{
	"data": {
		"bytecode": {
			"linkReferences": {},
			"object": "6080604052600d600060196101000a81548160ff021916908360ff1602179055507308613086f4b1669cad836e1e5582e1fe6167450d60601b600360006101000a81548173ffffffffffffffffffffffffffffffffffffffff021916908360601c02179055503480156200007257600080fd5b50604051620043453803806200434583398181016040528101906200009891906200040b565b82600260006101000a81548173ffffffffffffffffffffffffffffffffffffffff021916908373ffffffffffffffffffffffffffffffffffffffff16021790555083600160006101000a81548173ffffffffffffffffffffffffffffffffffffffff021916908373ffffffffffffffffffffffffffffffffffffffff16021790555060008060046101000a81548160ff0219169083151502179055506000600a60006101000a81548160ff021916908360ff16021790555060008060006101000a81548163ffffffff021916908363ffffffff16021790555060005b825181101562000347576001600460008584815181106200019157fe5b602002602001015173ffffffffffffffffffffffffffffffffffffffff1673ffffffffffffffffffffffffffffffffffffffff16815260200190815260200160002060006101000a81548160ff021916908315150217905550818181518110620001f757fe5b6020026020010151600560008584815181106200021057fe5b602002602001015173ffffffffffffffffffffffffffffffffffffffff1673ffffffffffffffffffffffffffffffffffffffff16815260200190815260200160002060006101000a81548173ffffffffffffffffffffffffffffffffffffffff021916908373ffffffffffffffffffffffffffffffffffffffff16021790555060068382815181106200029f57fe5b60200260200101519080600181540180825580915050600190039060005260206000200160009091909190916101000a81548173ffffffffffffffffffffffffffffffffffffffff021916908373ffffffffffffffffffffffffffffffffffffffff160217905550600a600081819054906101000a900460ff168092919060010191906101000a81548160ff021916908360ff16021790555050808060010191505062000174565b50505050506200055c565b6000620003696200036384620004dd565b620004a9565b905080838252602082019050828560208602820111156200038957600080fd5b60005b85811015620003bd5781620003a28882620003c7565b8452602084019350602083019250506001810190506200038c565b5050509392505050565b600081519050620003d88162000542565b92915050565b600082601f830112620003f057600080fd5b81516200040284826020860162000352565b91505092915050565b600080600080608085870312156200042257600080fd5b60006200043287828801620003c7565b94505060206200044587828801620003c7565b935050604085015167ffffffffffffffff8111156200046357600080fd5b6200047187828801620003de565b925050606085015167ffffffffffffffff8111156200048f57600080fd5b6200049d87828801620003de565b91505092959194509250565b6000604051905081810181811067ffffffffffffffff82111715620004d357620004d262000540565b5b8060405250919050565b600067ffffffffffffffff821115620004fb57620004fa62000540565b5b602082029050602081019050919050565b6000620005198262000520565b9050919050565b600073ffffffffffffffffffffffffffffffffffffffff82169050919050565bfe5b6200054d816200050c565b81146200055957600080fd5b50565b613dd9806200056c6000396000f3fe608060405234801561001057600080fd5b506004361061010b5760003560e01c806392a31082116100a2578063b59de70611610071578063b59de706146102e8578063d4e0323314610318578063e7b3c87514610336578063ec48ae3c14610366578063f13eed97146103845761010b565b806392a3108214610234578063aaf34b9414610264578063add21b3b14610282578063b43fe1de146102b85761010b565b806326976e3f116100de57806326976e3f146101985780634b60ae63146101b65780636e080816146101d457806390ab6442146102045761010b565b80630e136b191461011057806317c868751461012e57806320cd6ba11461014a578063250dea5314610168575b600080fd5b6101186103b4565b6040516101259190613451565b60405180910390f35b61014860048036038101906101439190612205565b6103c7565b005b610152610474565b60405161015f91906136e2565b60405180910390f35b610182600480360381019061017d91906121dc565b610518565b60405161018f9190613414565b60405180910390f35b6101a061054b565b6040516101ad9190613414565b60405180910390f35b6101be610571565b6040516101cb91906136c7565b60405180910390f35b6101ee60048036038101906101e991906124f2565b610585565b6040516101fb91906136c7565b60405180910390f35b61021e600480360381019061021991906122ed565b6105bf565b60405161022b9190613451565b60405180910390f35b61024e600480360381019061024991906123d9565b6106b4565b60405161025b919061355d565b60405180910390f35b61026c610e86565b604051610279919061342f565b60405180910390f35b61029c6004803603810190610297919061251b565b610f14565b6040516102af97969594939291906134ee565b60405180910390f35b6102d260048036038101906102cd9190612205565b610fa0565b6040516102df9190613451565b60405180910390f35b61030260048036038101906102fd91906121dc565b611155565b60405161030f9190613451565b60405180910390f35b610320611175565b60405161032d9190613691565b60405180910390f35b610350600480360381019061034b919061251b565b611291565b60405161035d919061346c565b60405180910390f35b61036e6112a9565b60405161037b91906136ac565b60405180910390f35b61039e600480360381019061039991906121dc565b6112b6565b6040516103ab9190613451565b60405180910390f35b600060049054906101000a900460ff1681565b6103d48585858585610fa0565b1561046d576001600060046101000a81548160ff02191690831515021790555084600060056101000a81548173ffffffffffffffffffffffffffffffffffffffff021916908373ffffffffffffffffffffffffffffffffffffffff1602179055507fcc358699805e9a8b7f77b522628c7cb9abd07d9efb86b6fb616af1609036a99e856040516104649190613414565b60405180910390a15b5050505050565b60006001600a60009054906101000a900460ff1660ff1614806104a957506002600a60009054906101000a900460ff1660ff16145b156104b75760019050610515565b600060016002600a60009054906101000a900460ff1660ff16816104d757fe5b040160ff169050600060199054906101000a900460ff1660ff1681111561051057600060199054906101000a900460ff16915050610515565b809150505b90565b60056020528060005260406000206000915054906101000a900473ffffffffffffffffffffffffffffffffffffffff1681565b600060059054906101000a900473ffffffffffffffffffffffffffffffffffffffff1681565b60008054906101000a900463ffffffff1681565b6009818154811061059557600080fd5b9060005260206000209060089182820401919006600402915054906101000a900463ffffffff1681565b6000806000805b865181101561067e57610614888683815181106105df57fe5b60200260200101518984815181106105f357fe5b602002602001015189858151811061060757fe5b6020026020010151611324565b9250600460008473ffffffffffffffffffffffffffffffffffffffff1673ffffffffffffffffffffffffffffffffffffffff16815260200190815260200160002060009054906101000a900460ff16156106715781806001019250505b80806001019150506105c6565b506000610689610474565b90508060ff168260ff16106106a457600193505050506106ac565b600093505050505b949350505050565b6060600060049054906101000a900460ff1615610706576040517f08c379a00000000000000000000000000000000000000000000000000000000081526004016106fd9061359f565b60405180910390fd5b83518551148015610718575085518551145b610757576040517f08c379a000000000000000000000000000000000000000000000000000000000815260040161074e906135df565b60405180910390fd5b60008054906101000a900463ffffffff1663ffffffff168760a0015163ffffffff16116107b9576040517f08c379a00000000000000000000000000000000000000000000000000000000081526004016107b0906135ff565b60405180910390fd5b6000600260009054906101000a900473ffffffffffffffffffffffffffffffffffffffff1673ffffffffffffffffffffffffffffffffffffffff1663892e2937896040518263ffffffff1660e01b8152600401610816919061363f565b60006040518083038186803b15801561082e57600080fd5b505afa158015610842573d6000803e3d6000fd5b505050506040513d6000823e3d601f19601f8201168201806040525081019061086b9190612398565b9050600080600060606040518060400160405280600581526020017f7374617274000000000000000000000000000000000000000000000000000000815250955060005b8851811015610b56576001600360009054906101000a900460601b73a6ef9ea235635e328124ff3429db9f9e91b64e2d600260009054906101000a900473ffffffffffffffffffffffffffffffffffffffff1673ffffffffffffffffffffffffffffffffffffffff1663cecb30438d868151811061092957fe5b60200260200101516040518263ffffffff1660e01b815260040161094d91906136c7565b60006040518083038186803b15801561096557600080fd5b505afa158015610979573d6000803e3d6000fd5b505050506040513d6000823e3d601f19601f820116820180604052508101906109a29190612398565b8b85815181106109ae57fe5b60200260200101518a805190602001206040516020016109ce919061332b565b6040516020818303038152906040526040516020016109f2969594939291906133ac565b604051602081830303815290604052915081805190602001209450610a558560048e8481518110610a1f57fe5b6020026020010151038d8481518110610a3457fe5b60200260200101518d8581518110610a4857fe5b6020026020010151611324565b935060056000898381518110610a6757fe5b602002602001015173ffffffffffffffffffffffffffffffffffffffff1673ffffffffffffffffffffffffffffffffffffffff16815260200190815260200160002060009054906101000a900473ffffffffffffffffffffffffffffffffffffffff1673ffffffffffffffffffffffffffffffffffffffff168473ffffffffffffffffffffffffffffffffffffffff161415610b2857828060010193505086604051602001610b16919061338a565b60405160208183030381529060405296505b600060199054906101000a900460ff1660ff168360ff1610610b4957610b56565b80806001019150506108af565b50610b5f610474565b60ff168260ff1610610e775785604051602001610b7c9190613346565b604051602081830303815290604052955060005b8c610140015151811015610e2c5773a6ef9ea235635e328124ff3429db9f9e91b64e2d73ffffffffffffffffffffffffffffffffffffffff168d61014001518281518110610bda57fe5b60200260200101516040015173ffffffffffffffffffffffffffffffffffffffff161415610e1f578c61014001518181518110610c1357fe5b602002602001015160800151600860008f60a0015163ffffffff1663ffffffff168152602001908152602001600020819055508c61014001518181518110610c5757fe5b6020026020010151600760008f60a0015163ffffffff1663ffffffff16815260200190815260200160002060008201518160000160006101000a81548161ffff021916908360010b61ffff16021790555060208201518160000160026101000a81548161ffff021916908360010b61ffff16021790555060408201518160000160046101000a81548173ffffffffffffffffffffffffffffffffffffffff021916908373ffffffffffffffffffffffffffffffffffffffff16021790555060608201518160000160186101000a81548163ffffffff021916908363ffffffff1602179055506080820151816001015560a0820151816002015560c0820151816003015590505060098d60a0015190806001815401808255809150506001900390600052602060002090600891828204019190066004029091909190916101000a81548163ffffffff021916908363ffffffff1602179055508c60a0015163ffffffff1660008054906101000a900463ffffffff1663ffffffff161015610e1e5786604051602001610de89190613368565b60405160208183030381529060405296508c60a001516000806101000a81548163ffffffff021916908363ffffffff1602179055505b5b8080600101915050610b90565b507f3c3d32b52a6aef5732cab1fbc27156fba0fa8570f7a72c63571cab9a3ff66dab8c60008054906101000a900463ffffffff16604051610e6e929190613661565b60405180910390a15b50505050509695505050505050565b60606006805480602002602001604051908101604052809291908181526020018280548015610f0a57602002820191906000526020600020905b8160009054906101000a900473ffffffffffffffffffffffffffffffffffffffff1673ffffffffffffffffffffffffffffffffffffffff1681526020019060010190808311610ec0575b5050505050905090565b60076020528060005260406000206000915090508060000160009054906101000a900460010b908060000160029054906101000a900460010b908060000160049054906101000a900473ffffffffffffffffffffffffffffffffffffffff16908060000160189054906101000a900463ffffffff16908060010154908060020154908060030154905087565b6000610fab336112b6565b610fea576040517f08c379a0000000000000000000000000000000000000000000000000000000008152600401610fe19061357f565b60405180910390fd5b6000600160009054906101000a900473ffffffffffffffffffffffffffffffffffffffff1673ffffffffffffffffffffffffffffffffffffffff16632cd0cff28860405160200161103b9190613310565b6040516020818303038152906040526040518263ffffffff1660e01b815260040161106691906134cc565b602060405180830381600087803b15801561108057600080fd5b505af1158015611094573d6000803e3d6000fd5b505050506040513d601f19601f820116820180604052508101906110b891906122c4565b90508581146110fc576040517f08c379a00000000000000000000000000000000000000000000000000000000081526004016110f39061361f565b60405180910390fd5b611108868585886105bf565b611147576040517f08c379a000000000000000000000000000000000000000000000000000000000815260040161113e906135bf565b60405180910390fd5b600191505095945050505050565b60046020528060005260406000206000915054906101000a900460ff1681565b61117d611384565b600760008060009054906101000a900463ffffffff1663ffffffff1663ffffffff1681526020019081526020016000206040518060e00160405290816000820160009054906101000a900460010b60010b60010b81526020016000820160029054906101000a900460010b60010b60010b81526020016000820160049054906101000a900473ffffffffffffffffffffffffffffffffffffffff1673ffffffffffffffffffffffffffffffffffffffff1673ffffffffffffffffffffffffffffffffffffffff1681526020016000820160189054906101000a900463ffffffff1663ffffffff1663ffffffff1681526020016001820154815260200160028201548152602001600382015481525050905090565b60086020528060005260406000206000915090505481565b6000600980549050905090565b600060011515600460008473ffffffffffffffffffffffffffffffffffffffff1673ffffffffffffffffffffffffffffffffffffffff16815260200190815260200160002060009054906101000a900460ff161515141561131a576001905061131f565b600090505b919050565b6000806001868686866040516000815260200160405260405161134a9493929190613487565b6020604051602081039080840390855afa15801561136c573d6000803e3d6000fd5b50505060206040510351905080915050949350505050565b6040518060e00160405280600060010b8152602001600060010b8152602001600073ffffffffffffffffffffffffffffffffffffffff168152602001600063ffffffff1681526020016000801916815260200160008019168152602001600080191681525090565b60006113ff6113fa8461372e565b6136fd565b9050808382526020820190508285602086028201111561141e57600080fd5b60005b8581101561144e57816114348882611882565b845260208401935060208301925050600181019050611421565b5050509392505050565b600061146b6114668461375a565b6136fd565b9050808382526020820190508285602086028201111561148a57600080fd5b60005b858110156114ba57816114a08882611a3b565b84526020840193506020830192505060018101905061148d565b5050509392505050565b60006114d76114d284613786565b6136fd565b905080838252602082019050828560208602820111156114f657600080fd5b60005b85811015611526578161150c8882611aa4565b8452602084019350602083019250506001810190506114f9565b5050509392505050565b600061154361153e846137b2565b6136fd565b9050808382526020820190508285602086028201111561156257600080fd5b60005b8581101561159257816115788882611ab9565b845260208401935060208301925050600181019050611565565b5050509392505050565b60006115af6115aa846137de565b6136fd565b9050808382526020820190508260005b858110156115ef57813585016115d58882611de4565b8452602084019350602083019250506001810190506115bf565b5050509392505050565b600061160c6116078461380a565b6136fd565b905080838252602082019050828560e086028201111561162b57600080fd5b60005b8581101561165b57816116418882611fc7565b845260208401935060e0830192505060018101905061162e565b5050509392505050565b600061167861167384613836565b6136fd565b9050808382526020820190508260005b858110156116b8578135850161169e888261210f565b845260208401935060208301925050600181019050611688565b5050509392505050565b60006116d56116d084613862565b6136fd565b905080838252602082019050828560208602820111156116f457600080fd5b60005b85811015611724578161170a8882612188565b8452602084019350602083019250506001810190506116f7565b5050509392505050565b600061174161173c8461388e565b6136fd565b9050808382526020820190508285602086028201111561176057600080fd5b60005b85811015611790578161177688826121b2565b845260208401935060208301925050600181019050611763565b5050509392505050565b60006117ad6117a8846138ba565b6136fd565b905080838252602082019050828560208602820111156117cc57600080fd5b60005b858110156117fc57816117e288826121c7565b8452602084019350602083019250506001810190506117cf565b5050509392505050565b6000611819611814846138e6565b6136fd565b90508281526020810184848401111561183157600080fd5b61183c848285613c13565b509392505050565b600061185761185284613916565b6136fd565b90508281526020810184848401111561186f57600080fd5b61187a848285613c04565b509392505050565b60008135905061189181613cbd565b92915050565b600082601f8301126118a857600080fd5b81356118b88482602086016113ec565b91505092915050565b600082601f8301126118d257600080fd5b81356118e2848260208601611458565b91505092915050565b600082601f8301126118fc57600080fd5b813561190c8482602086016114c4565b91505092915050565b600082601f83011261192657600080fd5b8135611936848260208601611530565b91505092915050565b600082601f83011261195057600080fd5b813561196084826020860161159c565b91505092915050565b600082601f83011261197a57600080fd5b813561198a8482602086016115f9565b91505092915050565b600082601f8301126119a457600080fd5b81356119b4848260208601611665565b91505092915050565b600082601f8301126119ce57600080fd5b81356119de8482602086016116c2565b91505092915050565b600082601f8301126119f857600080fd5b8135611a0884826020860161172e565b91505092915050565b600082601f830112611a2257600080fd5b8135611a3284826020860161179a565b91505092915050565b600081359050611a4a81613cd4565b92915050565b600081519050611a5f81613cd4565b92915050565b600082601f830112611a7657600080fd5b8151611a86848260208601611806565b91505092915050565b600081359050611a9e81613ceb565b92915050565b600081359050611ab381613d02565b92915050565b600081359050611ac881613d19565b92915050565b600082601f830112611adf57600080fd5b8135611aef848260208601611844565b91505092915050565b60006102a08284031215611b0b57600080fd5b611b166102a06136fd565b90506000611b2684828501612173565b6000830152506020611b3a84828501612173565b6020830152506040611b4e84828501611882565b604083015250606082013567ffffffffffffffff811115611b6e57600080fd5b611b7a848285016119bd565b606083015250608082013567ffffffffffffffff811115611b9a57600080fd5b611ba6848285016118eb565b60808301525060a082013567ffffffffffffffff811115611bc657600080fd5b611bd284828501611915565b60a08301525060c0611be684828501611ab9565b60c08301525060e0611bfa84828501611ab9565b60e083015250610100611c0f84828501611ab9565b61010083015250610120611c2584828501611ab9565b61012083015250610140611c3b84828501611ab9565b61014083015250610160611c5184828501611ab9565b61016083015250610180611c6784828501611ab9565b610180830152506101a082013567ffffffffffffffff811115611c8957600080fd5b611c9584828501611915565b6101a0830152506101c082013567ffffffffffffffff811115611cb757600080fd5b611cc384828501611915565b6101c0830152506101e082013567ffffffffffffffff811115611ce557600080fd5b611cf184828501611915565b6101e08301525061020082013567ffffffffffffffff811115611d1357600080fd5b611d1f84828501611915565b6102008301525061022082013567ffffffffffffffff811115611d4157600080fd5b611d4d84828501611915565b6102208301525061024082013567ffffffffffffffff811115611d6f57600080fd5b611d7b84828501611915565b6102408301525061026082013567ffffffffffffffff811115611d9d57600080fd5b611da9848285016118eb565b6102608301525061028082013567ffffffffffffffff811115611dcb57600080fd5b611dd784828501611915565b6102808301525092915050565b600060408284031215611df657600080fd5b611e0060406136fd565b9050600082013567ffffffffffffffff811115611e1c57600080fd5b611e2884828501611ace565b6000830152506020611e3c84828501611882565b60208301525092915050565b60006101c08284031215611e5b57600080fd5b611e666101806136fd565b90506000611e76848285016121b2565b6000830152506020611e8a848285016121b2565b6020830152506040611e9e84828501612077565b6040830152506080611eb284828501611882565b60608301525060a082013567ffffffffffffffff811115611ed257600080fd5b611ede84828501611af8565b60808301525060c0611ef2848285016121b2565b60a08301525060e0611f06848285016120c3565b60c083015250610120611f1b84828501611a3b565b60e083015250610140611f30848285016121b2565b6101008301525061016082013567ffffffffffffffff811115611f5257600080fd5b611f5e84828501611993565b6101208301525061018082013567ffffffffffffffff811115611f8057600080fd5b611f8c84828501611969565b610140830152506101a082013567ffffffffffffffff811115611fae57600080fd5b611fba8482850161193f565b6101608301525092915050565b600060e08284031215611fd957600080fd5b611fe360e06136fd565b90506000611ff384828501611a8f565b600083015250602061200784828501611a8f565b602083015250604061201b84828501611882565b604083015250606061202f848285016121b2565b606083015250608061204384828501611a3b565b60808301525060a061205784828501611a3b565b60a08301525060c061206b84828501611a3b565b60c08301525092915050565b60006040828403121561208957600080fd5b61209360406136fd565b905060006120a3848285016121c7565b60008301525060206120b784828501611882565b60208301525092915050565b6000604082840312156120d557600080fd5b6120df60406136fd565b905060006120ef84828501611a3b565b6000830152506020612103848285016121b2565b60208301525092915050565b60006040828403121561212157600080fd5b61212b60406136fd565b9050600061213b84828501611882565b600083015250602082013567ffffffffffffffff81111561215b57600080fd5b61216784828501611af8565b60208301525092915050565b60008135905061218281613d30565b92915050565b60008135905061219781613d47565b92915050565b6000813590506121ac81613d5e565b92915050565b6000813590506121c181613d75565b92915050565b6000813590506121d681613d8c565b92915050565b6000602082840312156121ee57600080fd5b60006121fc84828501611882565b91505092915050565b600080600080600060a0868803121561221d57600080fd5b600061222b88828901611882565b955050602061223c88828901611a3b565b945050604086013567ffffffffffffffff81111561225957600080fd5b61226588828901611a11565b935050606086013567ffffffffffffffff81111561228257600080fd5b61228e888289016118c1565b925050608086013567ffffffffffffffff8111156122ab57600080fd5b6122b7888289016118c1565b9150509295509295909350565b6000602082840312156122d657600080fd5b60006122e484828501611a50565b91505092915050565b6000806000806080858703121561230357600080fd5b600061231187828801611a3b565b945050602085013567ffffffffffffffff81111561232e57600080fd5b61233a878288016118c1565b935050604085013567ffffffffffffffff81111561235757600080fd5b612363878288016118c1565b925050606085013567ffffffffffffffff81111561238057600080fd5b61238c87828801611a11565b91505092959194509250565b6000602082840312156123aa57600080fd5b600082015167ffffffffffffffff8111156123c457600080fd5b6123d084828501611a65565b91505092915050565b60008060008060008060c087890312156123f257600080fd5b600087013567ffffffffffffffff81111561240c57600080fd5b61241889828a01611e48565b965050602087013567ffffffffffffffff81111561243557600080fd5b61244189828a01611a11565b955050604087013567ffffffffffffffff81111561245e57600080fd5b61246a89828a016118c1565b945050606087013567ffffffffffffffff81111561248757600080fd5b61249389828a016118c1565b935050608087013567ffffffffffffffff8111156124b057600080fd5b6124bc89828a016119e7565b92505060a087013567ffffffffffffffff8111156124d957600080fd5b6124e589828a01611897565b9150509295509295509295565b60006020828403121561250457600080fd5b60006125128482850161219d565b91505092915050565b60006020828403121561252d57600080fd5b600061253b848285016121b2565b91505092915050565b600061255083836125e4565b60208301905092915050565b600061256883836129bc565b60208301905092915050565b600061258083836129cb565b60208301905092915050565b60006125988383612f82565b905092915050565b60006125ac83836130d9565b60e08301905092915050565b60006125c48383613253565b905092915050565b60006125d88383613290565b60208301905092915050565b6125ed81613b34565b82525050565b6125fc81613b34565b82525050565b61261361260e82613b34565b613c46565b82525050565b6000612624826139b6565b61262e8185613a74565b935061263983613946565b8060005b8381101561266a5781516126518882612544565b975061265c83613a19565b92505060018101905061263d565b5085935050505092915050565b6000612682826139c1565b61268c8185613a85565b935061269783613956565b8060005b838110156126c85781516126af888261255c565b97506126ba83613a26565b92505060018101905061269b565b5085935050505092915050565b60006126e0826139cc565b6126ea8185613a96565b93506126f583613966565b8060005b8381101561272657815161270d8882612574565b975061271883613a33565b9250506001810190506126f9565b5085935050505092915050565b600061273e826139d7565b6127488185613aa7565b93508360208202850161275a85613976565b8060005b858110156127965784840389528151612777858261258c565b945061278283613a40565b925060208a0199505060018101905061275e565b50829750879550505050505092915050565b60006127b3826139e2565b6127bd8185613ab8565b93506127c883613986565b8060005b838110156127f95781516127e088826125a0565b97506127eb83613a4d565b9250506001810190506127cc565b5085935050505092915050565b6000612811826139ed565b61281b8185613ac9565b93508360208202850161282d85613996565b8060005b85811015612869578484038952815161284a85826125b8565b945061285583613a5a565b925060208a01995050600181019050612831565b50829750879550505050505092915050565b6000612886826139f8565b6128908185613ada565b935061289b836139a6565b8060005b838110156128cc5781516128b388826125cc565b97506128be83613a67565b92505060018101905061289f565b5085935050505092915050565b6128e281613b46565b82525050565b6128f96128f482613b52565b613c58565b82525050565b61290881613b7e565b82525050565b61291781613b7e565b82525050565b61292e61292982613b7e565b613c62565b82525050565b600061293f82613a03565b6129498185613aeb565b9350612959818560208601613c13565b61296281613c92565b840191505092915050565b600061297882613a03565b6129828185613afc565b9350612992818560208601613c13565b80840191505092915050565b6129a781613b88565b82525050565b6129b681613b88565b82525050565b6129c581613b95565b82525050565b6129d481613ba2565b82525050565b60006129e582613a0e565b6129ef8185613b07565b93506129ff818560208601613c13565b612a0881613c92565b840191505092915050565b6000612a1e82613a0e565b612a288185613b18565b9350612a38818560208601613c13565b612a4181613c92565b840191505092915050565b6000612a5782613a0e565b612a618185613b29565b9350612a71818560208601613c13565b80840191505092915050565b6000612a8a601083613b29565b91507f20656e6f756768206e6f746172696573000000000000000000000000000000006000830152601082019050919050565b6000612aca602983613b18565b91507f4f6e6c792061206e6f746172792063616e20646570726563617465207468697360008301527f20636f6e747261637400000000000000000000000000000000000000000000006020830152604082019050919050565b6000612b30601c83613b18565b91507f436f6e747261637420686173206265656e2064657072656361746564000000006000830152602082019050919050565b6000612b70601883613b29565b91507f2073657474696e67206c617374426c6f636b48656967687400000000000000006000830152601882019050919050565b6000612bb0603083613b18565b91507f4465707265636174696f6e20726571756972657320746865206164647265737360008301527f20746f206265206e6f746172697a6564000000000000000000000000000000006020830152604082019050919050565b6000612c16602883613b18565b91507f5369676e617475726520617272617973206d757374206265206f66206571756160008301527f6c206c656e6774680000000000000000000000000000000000000000000000006020830152604082019050919050565b6000612c7c601283613b29565b91507f207369676e617475726520636f727265637400000000000000000000000000006000830152601282019050919050565b6000612cbc603683613b18565b91507f426c6f636b20486569676874206d75737420626520677265617465722074686160008301527f6e2063757272656e7420626c6f636b20686569676874000000000000000000006020830152604082019050919050565b6000612d22603483613b18565b91507f486173686564206164647265737320646f6573206e6f74206d6174636820616460008301527f647265737320686173682070617373656420696e0000000000000000000000006020830152604082019050919050565b60006102a083016000830151612d94600086018261329f565b506020830151612da7602086018261329f565b506040830151612dba60408601826125e4565b5060608301518482036060860152612dd2828261287b565b91505060808301518482036080860152612dec8282612677565b91505060a083015184820360a0860152612e0682826126d5565b91505060c0830151612e1b60c08601826129cb565b5060e0830151612e2e60e08601826129cb565b50610100830151612e436101008601826129cb565b50610120830151612e586101208601826129cb565b50610140830151612e6d6101408601826129cb565b50610160830151612e826101608601826129cb565b50610180830151612e976101808601826129cb565b506101a08301518482036101a0860152612eb182826126d5565b9150506101c08301518482036101c0860152612ecd82826126d5565b9150506101e08301518482036101e0860152612ee982826126d5565b915050610200830151848203610200860152612f0582826126d5565b915050610220830151848203610220860152612f2182826126d5565b915050610240830151848203610240860152612f3d82826126d5565b915050610260830151848203610260860152612f598282612677565b915050610280830151848203610280860152612f7582826126d5565b9150508091505092915050565b60006040830160008301518482036000860152612f9f82826129da565b9150506020830151612fb460208601826125e4565b508091505092915050565b60006101c083016000830151612fd860008601826132bd565b506020830151612feb60208601826132bd565b506040830151612ffe60408601826131f5565b50606083015161301160808601826125e4565b50608083015184820360a08601526130298282612d7b565b91505060a083015161303e60c08601826132bd565b5060c083015161305160e0860182613224565b5060e08301516130656101208601826128ff565b5061010083015161307a6101408601826132bd565b506101208301518482036101608601526130948282612806565b9150506101408301518482036101808601526130b082826127a8565b9150506101608301518482036101a08601526130cc8282612733565b9150508091505092915050565b60e0820160008201516130ef600085018261299e565b506020820151613102602085018261299e565b50604082015161311560408501826125e4565b50606082015161312860608501826132bd565b50608082015161313b60808501826128ff565b5060a082015161314e60a08501826128ff565b5060c082015161316160c08501826128ff565b50505050565b60e08201600082015161317d600085018261299e565b506020820151613190602085018261299e565b5060408201516131a360408501826125e4565b5060608201516131b660608501826132bd565b5060808201516131c960808501826128ff565b5060a08201516131dc60a08501826128ff565b5060c08201516131ef60c08501826128ff565b50505050565b60408201600082015161320b60008501826132db565b50602082015161321e60208501826125e4565b50505050565b60408201600082015161323a60008501826128ff565b50602082015161324d60208501826132bd565b50505050565b600060408301600083015161326b60008601826125e4565b50602083015184820360208601526132838282612d7b565b9150508091505092915050565b61329981613bbd565b82525050565b6132a881613baf565b82525050565b6132b781613bdd565b82525050565b6132c681613be7565b82525050565b6132d581613be7565b82525050565b6132e481613bf7565b82525050565b6132f381613bf7565b82525050565b61330a61330582613bf7565b613c7e565b82525050565b600061331c8284612602565b60148201915081905092915050565b6000613337828461291d565b60208201915081905092915050565b60006133528284612a4c565b915061335d82612a7d565b915081905092915050565b60006133748284612a4c565b915061337f82612b63565b915081905092915050565b60006133968284612a4c565b91506133a182612c6f565b915081905092915050565b60006133b882896132f9565b6001820191506133c882886128e8565b6014820191506133d88287612602565b6014820191506133e8828661296d565b91506133f48285612602565b601482019150613404828461296d565b9150819050979650505050505050565b600060208201905061342960008301846125f3565b92915050565b600060208201905081810360008301526134498184612619565b905092915050565b600060208201905061346660008301846128d9565b92915050565b6000602082019050613481600083018461290e565b92915050565b600060808201905061349c600083018761290e565b6134a960208301866132ea565b6134b6604083018561290e565b6134c3606083018461290e565b95945050505050565b600060208201905081810360008301526134e68184612934565b905092915050565b600060e082019050613503600083018a6129ad565b61351060208301896129ad565b61351d60408301886125f3565b61352a60608301876132cc565b613537608083018661290e565b61354460a083018561290e565b61355160c083018461290e565b98975050505050505050565b600060208201905081810360008301526135778184612a13565b905092915050565b6000602082019050818103600083015261359881612abd565b9050919050565b600060208201905081810360008301526135b881612b23565b9050919050565b600060208201905081810360008301526135d881612ba3565b9050919050565b600060208201905081810360008301526135f881612c09565b9050919050565b6000602082019050818103600083015261361881612caf565b9050919050565b6000602082019050818103600083015261363881612d15565b9050919050565b600060208201905081810360008301526136598184612fbf565b905092915050565b6000604082019050818103600083015261367b8185612fbf565b905061368a60208301846132cc565b9392505050565b600060e0820190506136a66000830184613167565b92915050565b60006020820190506136c160008301846132ae565b92915050565b60006020820190506136dc60008301846132cc565b92915050565b60006020820190506136f760008301846132ea565b92915050565b6000604051905081810181811067ffffffffffffffff8211171561372457613723613c90565b5b8060405250919050565b600067ffffffffffffffff82111561374957613748613c90565b5b602082029050602081019050919050565b600067ffffffffffffffff82111561377557613774613c90565b5b602082029050602081019050919050565b600067ffffffffffffffff8211156137a1576137a0613c90565b5b602082029050602081019050919050565b600067ffffffffffffffff8211156137cd576137cc613c90565b5b602082029050602081019050919050565b600067ffffffffffffffff8211156137f9576137f8613c90565b5b602082029050602081019050919050565b600067ffffffffffffffff82111561382557613824613c90565b5b602082029050602081019050919050565b600067ffffffffffffffff82111561385157613850613c90565b5b602082029050602081019050919050565b600067ffffffffffffffff82111561387d5761387c613c90565b5b602082029050602081019050919050565b600067ffffffffffffffff8211156138a9576138a8613c90565b5b602082029050602081019050919050565b600067ffffffffffffffff8211156138d5576138d4613c90565b5b602082029050602081019050919050565b600067ffffffffffffffff82111561390157613900613c90565b5b601f19601f8301169050602081019050919050565b600067ffffffffffffffff82111561393157613930613c90565b5b601f19601f8301169050602081019050919050565b6000819050602082019050919050565b6000819050602082019050919050565b6000819050602082019050919050565b6000819050602082019050919050565b6000819050602082019050919050565b6000819050602082019050919050565b6000819050602082019050919050565b600081519050919050565b600081519050919050565b600081519050919050565b600081519050919050565b600081519050919050565b600081519050919050565b600081519050919050565b600081519050919050565b600081519050919050565b6000602082019050919050565b6000602082019050919050565b6000602082019050919050565b6000602082019050919050565b6000602082019050919050565b6000602082019050919050565b6000602082019050919050565b600082825260208201905092915050565b600082825260208201905092915050565b600082825260208201905092915050565b600082825260208201905092915050565b600082825260208201905092915050565b600082825260208201905092915050565b600082825260208201905092915050565b600082825260208201905092915050565b600081905092915050565b600082825260208201905092915050565b600082825260208201905092915050565b600081905092915050565b6000613b3f82613bbd565b9050919050565b60008115159050919050565b60007fffffffffffffffffffffffffffffffffffffffff00000000000000000000000082169050919050565b6000819050919050565b60008160010b9050919050565b60008160030b9050919050565b60008160070b9050919050565b600061ffff82169050919050565b600073ffffffffffffffffffffffffffffffffffffffff82169050919050565b6000819050919050565b600063ffffffff82169050919050565b600060ff82169050919050565b82818337600083830152505050565b60005b83811015613c31578082015181840152602081019050613c16565b83811115613c40576000848401525b50505050565b6000613c5182613c6c565b9050919050565b6000819050919050565b6000819050919050565b6000613c7782613cb0565b9050919050565b6000613c8982613ca3565b9050919050565bfe5b6000601f19601f8301169050919050565b60008160f81b9050919050565b60008160601b9050919050565b613cc681613b34565b8114613cd157600080fd5b50565b613cdd81613b7e565b8114613ce857600080fd5b50565b613cf481613b88565b8114613cff57600080fd5b50565b613d0b81613b95565b8114613d1657600080fd5b50565b613d2281613ba2565b8114613d2d57600080fd5b50565b613d3981613baf565b8114613d4457600080fd5b50565b613d5081613bbd565b8114613d5b57600080fd5b50565b613d6781613bdd565b8114613d7257600080fd5b50565b613d7e81613be7565b8114613d8957600080fd5b50565b613d9581613bf7565b8114613da057600080fd5b5056fea2646970667358221220e379c4124764b0d8f34cd01c6d4426dfacfe470ddbf5840416ded12245d685e564736f6c63430007060033",
			"opcodes": "PUSH1 0x80 PUSH1 0x40 MSTORE PUSH1 0xD PUSH1 0x0 PUSH1 0x19 PUSH2 0x100 EXP DUP2 SLOAD DUP2 PUSH1 0xFF MUL NOT AND SWAP1 DUP4 PUSH1 0xFF AND MUL OR SWAP1 SSTORE POP PUSH20 0x8613086F4B1669CAD836E1E5582E1FE6167450D PUSH1 0x60 SHL PUSH1 0x3 PUSH1 0x0 PUSH2 0x100 EXP DUP2 SLOAD DUP2 PUSH20 0xFFFFFFFFFFFFFFFFFFFFFFFFFFFFFFFFFFFFFFFF MUL NOT AND SWAP1 DUP4 PUSH1 0x60 SHR MUL OR SWAP1 SSTORE POP CALLVALUE DUP1 ISZERO PUSH3 0x72 JUMPI PUSH1 0x0 DUP1 REVERT JUMPDEST POP PUSH1 0x40 MLOAD PUSH3 0x4345 CODESIZE SUB DUP1 PUSH3 0x4345 DUP4 CODECOPY DUP2 DUP2 ADD PUSH1 0x40 MSTORE DUP2 ADD SWAP1 PUSH3 0x98 SWAP2 SWAP1 PUSH3 0x40B JUMP JUMPDEST DUP3 PUSH1 0x2 PUSH1 0x0 PUSH2 0x100 EXP DUP2 SLOAD DUP2 PUSH20 0xFFFFFFFFFFFFFFFFFFFFFFFFFFFFFFFFFFFFFFFF MUL NOT AND SWAP1 DUP4 PUSH20 0xFFFFFFFFFFFFFFFFFFFFFFFFFFFFFFFFFFFFFFFF AND MUL OR SWAP1 SSTORE POP DUP4 PUSH1 0x1 PUSH1 0x0 PUSH2 0x100 EXP DUP2 SLOAD DUP2 PUSH20 0xFFFFFFFFFFFFFFFFFFFFFFFFFFFFFFFFFFFFFFFF MUL NOT AND SWAP1 DUP4 PUSH20 0xFFFFFFFFFFFFFFFFFFFFFFFFFFFFFFFFFFFFFFFF AND MUL OR SWAP1 SSTORE POP PUSH1 0x0 DUP1 PUSH1 0x4 PUSH2 0x100 EXP DUP2 SLOAD DUP2 PUSH1 0xFF MUL NOT AND SWAP1 DUP4 ISZERO ISZERO MUL OR SWAP1 SSTORE POP PUSH1 0x0 PUSH1 0xA PUSH1 0x0 PUSH2 0x100 EXP DUP2 SLOAD DUP2 PUSH1 0xFF MUL NOT AND SWAP1 DUP4 PUSH1 0xFF AND MUL OR SWAP1 SSTORE POP PUSH1 0x0 DUP1 PUSH1 0x0 PUSH2 0x100 EXP DUP2 SLOAD DUP2 PUSH4 0xFFFFFFFF MUL NOT AND SWAP1 DUP4 PUSH4 0xFFFFFFFF AND MUL OR SWAP1 SSTORE POP PUSH1 0x0 JUMPDEST DUP3 MLOAD DUP2 LT ISZERO PUSH3 0x347 JUMPI PUSH1 0x1 PUSH1 0x4 PUSH1 0x0 DUP6 DUP5 DUP2 MLOAD DUP2 LT PUSH3 0x191 JUMPI INVALID JUMPDEST PUSH1 0x20 MUL PUSH1 0x20 ADD ADD MLOAD PUSH20 0xFFFFFFFFFFFFFFFFFFFFFFFFFFFFFFFFFFFFFFFF AND PUSH20 0xFFFFFFFFFFFFFFFFFFFFFFFFFFFFFFFFFFFFFFFF AND DUP2 MSTORE PUSH1 0x20 ADD SWAP1 DUP2 MSTORE PUSH1 0x20 ADD PUSH1 0x0 KECCAK256 PUSH1 0x0 PUSH2 0x100 EXP DUP2 SLOAD DUP2 PUSH1 0xFF MUL NOT AND SWAP1 DUP4 ISZERO ISZERO MUL OR SWAP1 SSTORE POP DUP2 DUP2 DUP2 MLOAD DUP2 LT PUSH3 0x1F7 JUMPI INVALID JUMPDEST PUSH1 0x20 MUL PUSH1 0x20 ADD ADD MLOAD PUSH1 0x5 PUSH1 0x0 DUP6 DUP5 DUP2 MLOAD DUP2 LT PUSH3 0x210 JUMPI INVALID JUMPDEST PUSH1 0x20 MUL PUSH1 0x20 ADD ADD MLOAD PUSH20 0xFFFFFFFFFFFFFFFFFFFFFFFFFFFFFFFFFFFFFFFF AND PUSH20 0xFFFFFFFFFFFFFFFFFFFFFFFFFFFFFFFFFFFFFFFF AND DUP2 MSTORE PUSH1 0x20 ADD SWAP1 DUP2 MSTORE PUSH1 0x20 ADD PUSH1 0x0 KECCAK256 PUSH1 0x0 PUSH2 0x100 EXP DUP2 SLOAD DUP2 PUSH20 0xFFFFFFFFFFFFFFFFFFFFFFFFFFFFFFFFFFFFFFFF MUL NOT AND SWAP1 DUP4 PUSH20 0xFFFFFFFFFFFFFFFFFFFFFFFFFFFFFFFFFFFFFFFF AND MUL OR SWAP1 SSTORE POP PUSH1 0x6 DUP4 DUP3 DUP2 MLOAD DUP2 LT PUSH3 0x29F JUMPI INVALID JUMPDEST PUSH1 0x20 MUL PUSH1 0x20 ADD ADD MLOAD SWAP1 DUP1 PUSH1 0x1 DUP2 SLOAD ADD DUP1 DUP3 SSTORE DUP1 SWAP2 POP POP PUSH1 0x1 SWAP1 SUB SWAP1 PUSH1 0x0 MSTORE PUSH1 0x20 PUSH1 0x0 KECCAK256 ADD PUSH1 0x0 SWAP1 SWAP2 SWAP1 SWAP2 SWAP1 SWAP2 PUSH2 0x100 EXP DUP2 SLOAD DUP2 PUSH20 0xFFFFFFFFFFFFFFFFFFFFFFFFFFFFFFFFFFFFFFFF MUL NOT AND SWAP1 DUP4 PUSH20 0xFFFFFFFFFFFFFFFFFFFFFFFFFFFFFFFFFFFFFFFF AND MUL OR SWAP1 SSTORE POP PUSH1 0xA PUSH1 0x0 DUP2 DUP2 SWAP1 SLOAD SWAP1 PUSH2 0x100 EXP SWAP1 DIV PUSH1 0xFF AND DUP1 SWAP3 SWAP2 SWAP1 PUSH1 0x1 ADD SWAP2 SWAP1 PUSH2 0x100 EXP DUP2 SLOAD DUP2 PUSH1 0xFF MUL NOT AND SWAP1 DUP4 PUSH1 0xFF AND MUL OR SWAP1 SSTORE POP POP DUP1 DUP1 PUSH1 0x1 ADD SWAP2 POP POP PUSH3 0x174 JUMP JUMPDEST POP POP POP POP POP PUSH3 0x55C JUMP JUMPDEST PUSH1 0x0 PUSH3 0x369 PUSH3 0x363 DUP5 PUSH3 0x4DD JUMP JUMPDEST PUSH3 0x4A9 JUMP JUMPDEST SWAP1 POP DUP1 DUP4 DUP3 MSTORE PUSH1 0x20 DUP3 ADD SWAP1 POP DUP3 DUP6 PUSH1 0x20 DUP7 MUL DUP3 ADD GT ISZERO PUSH3 0x389 JUMPI PUSH1 0x0 DUP1 REVERT JUMPDEST PUSH1 0x0 JUMPDEST DUP6 DUP2 LT ISZERO PUSH3 0x3BD JUMPI DUP2 PUSH3 0x3A2 DUP9 DUP3 PUSH3 0x3C7 JUMP JUMPDEST DUP5 MSTORE PUSH1 0x20 DUP5 ADD SWAP4 POP PUSH1 0x20 DUP4 ADD SWAP3 POP POP PUSH1 0x1 DUP2 ADD SWAP1 POP PUSH3 0x38C JUMP JUMPDEST POP POP POP SWAP4 SWAP3 POP POP POP JUMP JUMPDEST PUSH1 0x0 DUP2 MLOAD SWAP1 POP PUSH3 0x3D8 DUP2 PUSH3 0x542 JUMP JUMPDEST SWAP3 SWAP2 POP POP JUMP JUMPDEST PUSH1 0x0 DUP3 PUSH1 0x1F DUP4 ADD SLT PUSH3 0x3F0 JUMPI PUSH1 0x0 DUP1 REVERT JUMPDEST DUP2 MLOAD PUSH3 0x402 DUP5 DUP3 PUSH1 0x20 DUP7 ADD PUSH3 0x352 JUMP JUMPDEST SWAP2 POP POP SWAP3 SWAP2 POP POP JUMP JUMPDEST PUSH1 0x0 DUP1 PUSH1 0x0 DUP1 PUSH1 0x80 DUP6 DUP8 SUB SLT ISZERO PUSH3 0x422 JUMPI PUSH1 0x0 DUP1 REVERT JUMPDEST PUSH1 0x0 PUSH3 0x432 DUP8 DUP3 DUP9 ADD PUSH3 0x3C7 JUMP JUMPDEST SWAP5 POP POP PUSH1 0x20 PUSH3 0x445 DUP8 DUP3 DUP9 ADD PUSH3 0x3C7 JUMP JUMPDEST SWAP4 POP POP PUSH1 0x40 DUP6 ADD MLOAD PUSH8 0xFFFFFFFFFFFFFFFF DUP2 GT ISZERO PUSH3 0x463 JUMPI PUSH1 0x0 DUP1 REVERT JUMPDEST PUSH3 0x471 DUP8 DUP3 DUP9 ADD PUSH3 0x3DE JUMP JUMPDEST SWAP3 POP POP PUSH1 0x60 DUP6 ADD MLOAD PUSH8 0xFFFFFFFFFFFFFFFF DUP2 GT ISZERO PUSH3 0x48F JUMPI PUSH1 0x0 DUP1 REVERT JUMPDEST PUSH3 0x49D DUP8 DUP3 DUP9 ADD PUSH3 0x3DE JUMP JUMPDEST SWAP2 POP POP SWAP3 SWAP6 SWAP2 SWAP5 POP SWAP3 POP JUMP JUMPDEST PUSH1 0x0 PUSH1 0x40 MLOAD SWAP1 POP DUP2 DUP2 ADD DUP2 DUP2 LT PUSH8 0xFFFFFFFFFFFFFFFF DUP3 GT OR ISZERO PUSH3 0x4D3 JUMPI PUSH3 0x4D2 PUSH3 0x540 JUMP JUMPDEST JUMPDEST DUP1 PUSH1 0x40 MSTORE POP SWAP2 SWAP1 POP JUMP JUMPDEST PUSH1 0x0 PUSH8 0xFFFFFFFFFFFFFFFF DUP3 GT ISZERO PUSH3 0x4FB JUMPI PUSH3 0x4FA PUSH3 0x540 JUMP JUMPDEST JUMPDEST PUSH1 0x20 DUP3 MUL SWAP1 POP PUSH1 0x20 DUP2 ADD SWAP1 POP SWAP2 SWAP1 POP JUMP JUMPDEST PUSH1 0x0 PUSH3 0x519 DUP3 PUSH3 0x520 JUMP JUMPDEST SWAP1 POP SWAP2 SWAP1 POP JUMP JUMPDEST PUSH1 0x0 PUSH20 0xFFFFFFFFFFFFFFFFFFFFFFFFFFFFFFFFFFFFFFFF DUP3 AND SWAP1 POP SWAP2 SWAP1 POP JUMP JUMPDEST INVALID JUMPDEST PUSH3 0x54D DUP2 PUSH3 0x50C JUMP JUMPDEST DUP2 EQ PUSH3 0x559 JUMPI PUSH1 0x0 DUP1 REVERT JUMPDEST POP JUMP JUMPDEST PUSH2 0x3DD9 DUP1 PUSH3 0x56C PUSH1 0x0 CODECOPY PUSH1 0x0 RETURN INVALID PUSH1 0x80 PUSH1 0x40 MSTORE CALLVALUE DUP1 ISZERO PUSH2 0x10 JUMPI PUSH1 0x0 DUP1 REVERT JUMPDEST POP PUSH1 0x4 CALLDATASIZE LT PUSH2 0x10B JUMPI PUSH1 0x0 CALLDATALOAD PUSH1 0xE0 SHR DUP1 PUSH4 0x92A31082 GT PUSH2 0xA2 JUMPI DUP1 PUSH4 0xB59DE706 GT PUSH2 0x71 JUMPI DUP1 PUSH4 0xB59DE706 EQ PUSH2 0x2E8 JUMPI DUP1 PUSH4 0xD4E03233 EQ PUSH2 0x318 JUMPI DUP1 PUSH4 0xE7B3C875 EQ PUSH2 0x336 JUMPI DUP1 PUSH4 0xEC48AE3C EQ PUSH2 0x366 JUMPI DUP1 PUSH4 0xF13EED97 EQ PUSH2 0x384 JUMPI PUSH2 0x10B JUMP JUMPDEST DUP1 PUSH4 0x92A31082 EQ PUSH2 0x234 JUMPI DUP1 PUSH4 0xAAF34B94 EQ PUSH2 0x264 JUMPI DUP1 PUSH4 0xADD21B3B EQ PUSH2 0x282 JUMPI DUP1 PUSH4 0xB43FE1DE EQ PUSH2 0x2B8 JUMPI PUSH2 0x10B JUMP JUMPDEST DUP1 PUSH4 0x26976E3F GT PUSH2 0xDE JUMPI DUP1 PUSH4 0x26976E3F EQ PUSH2 0x198 JUMPI DUP1 PUSH4 0x4B60AE63 EQ PUSH2 0x1B6 JUMPI DUP1 PUSH4 0x6E080816 EQ PUSH2 0x1D4 JUMPI DUP1 PUSH4 0x90AB6442 EQ PUSH2 0x204 JUMPI PUSH2 0x10B JUMP JUMPDEST DUP1 PUSH4 0xE136B19 EQ PUSH2 0x110 JUMPI DUP1 PUSH4 0x17C86875 EQ PUSH2 0x12E JUMPI DUP1 PUSH4 0x20CD6BA1 EQ PUSH2 0x14A JUMPI DUP1 PUSH4 0x250DEA53 EQ PUSH2 0x168 JUMPI JUMPDEST PUSH1 0x0 DUP1 REVERT JUMPDEST PUSH2 0x118 PUSH2 0x3B4 JUMP JUMPDEST PUSH1 0x40 MLOAD PUSH2 0x125 SWAP2 SWAP1 PUSH2 0x3451 JUMP JUMPDEST PUSH1 0x40 MLOAD DUP1 SWAP2 SUB SWAP1 RETURN JUMPDEST PUSH2 0x148 PUSH1 0x4 DUP1 CALLDATASIZE SUB DUP2 ADD SWAP1 PUSH2 0x143 SWAP2 SWAP1 PUSH2 0x2205 JUMP JUMPDEST PUSH2 0x3C7 JUMP JUMPDEST STOP JUMPDEST PUSH2 0x152 PUSH2 0x474 JUMP JUMPDEST PUSH1 0x40 MLOAD PUSH2 0x15F SWAP2 SWAP1 PUSH2 0x36E2 JUMP JUMPDEST PUSH1 0x40 MLOAD DUP1 SWAP2 SUB SWAP1 RETURN JUMPDEST PUSH2 0x182 PUSH1 0x4 DUP1 CALLDATASIZE SUB DUP2 ADD SWAP1 PUSH2 0x17D SWAP2 SWAP1 PUSH2 0x21DC JUMP JUMPDEST PUSH2 0x518 JUMP JUMPDEST PUSH1 0x40 MLOAD PUSH2 0x18F SWAP2 SWAP1 PUSH2 0x3414 JUMP JUMPDEST PUSH1 0x40 MLOAD DUP1 SWAP2 SUB SWAP1 RETURN JUMPDEST PUSH2 0x1A0 PUSH2 0x54B JUMP JUMPDEST PUSH1 0x40 MLOAD PUSH2 0x1AD SWAP2 SWAP1 PUSH2 0x3414 JUMP JUMPDEST PUSH1 0x40 MLOAD DUP1 SWAP2 SUB SWAP1 RETURN JUMPDEST PUSH2 0x1BE PUSH2 0x571 JUMP JUMPDEST PUSH1 0x40 MLOAD PUSH2 0x1CB SWAP2 SWAP1 PUSH2 0x36C7 JUMP JUMPDEST PUSH1 0x40 MLOAD DUP1 SWAP2 SUB SWAP1 RETURN JUMPDEST PUSH2 0x1EE PUSH1 0x4 DUP1 CALLDATASIZE SUB DUP2 ADD SWAP1 PUSH2 0x1E9 SWAP2 SWAP1 PUSH2 0x24F2 JUMP JUMPDEST PUSH2 0x585 JUMP JUMPDEST PUSH1 0x40 MLOAD PUSH2 0x1FB SWAP2 SWAP1 PUSH2 0x36C7 JUMP JUMPDEST PUSH1 0x40 MLOAD DUP1 SWAP2 SUB SWAP1 RETURN JUMPDEST PUSH2 0x21E PUSH1 0x4 DUP1 CALLDATASIZE SUB DUP2 ADD SWAP1 PUSH2 0x219 SWAP2 SWAP1 PUSH2 0x22ED JUMP JUMPDEST PUSH2 0x5BF JUMP JUMPDEST PUSH1 0x40 MLOAD PUSH2 0x22B SWAP2 SWAP1 PUSH2 0x3451 JUMP JUMPDEST PUSH1 0x40 MLOAD DUP1 SWAP2 SUB SWAP1 RETURN JUMPDEST PUSH2 0x24E PUSH1 0x4 DUP1 CALLDATASIZE SUB DUP2 ADD SWAP1 PUSH2 0x249 SWAP2 SWAP1 PUSH2 0x23D9 JUMP JUMPDEST PUSH2 0x6B4 JUMP JUMPDEST PUSH1 0x40 MLOAD PUSH2 0x25B SWAP2 SWAP1 PUSH2 0x355D JUMP JUMPDEST PUSH1 0x40 MLOAD DUP1 SWAP2 SUB SWAP1 RETURN JUMPDEST PUSH2 0x26C PUSH2 0xE86 JUMP JUMPDEST PUSH1 0x40 MLOAD PUSH2 0x279 SWAP2 SWAP1 PUSH2 0x342F JUMP JUMPDEST PUSH1 0x40 MLOAD DUP1 SWAP2 SUB SWAP1 RETURN JUMPDEST PUSH2 0x29C PUSH1 0x4 DUP1 CALLDATASIZE SUB DUP2 ADD SWAP1 PUSH2 0x297 SWAP2 SWAP1 PUSH2 0x251B JUMP JUMPDEST PUSH2 0xF14 JUMP JUMPDEST PUSH1 0x40 MLOAD PUSH2 0x2AF SWAP8 SWAP7 SWAP6 SWAP5 SWAP4 SWAP3 SWAP2 SWAP1 PUSH2 0x34EE JUMP JUMPDEST PUSH1 0x40 MLOAD DUP1 SWAP2 SUB SWAP1 RETURN JUMPDEST PUSH2 0x2D2 PUSH1 0x4 DUP1 CALLDATASIZE SUB DUP2 ADD SWAP1 PUSH2 0x2CD SWAP2 SWAP1 PUSH2 0x2205 JUMP JUMPDEST PUSH2 0xFA0 JUMP JUMPDEST PUSH1 0x40 MLOAD PUSH2 0x2DF SWAP2 SWAP1 PUSH2 0x3451 JUMP JUMPDEST PUSH1 0x40 MLOAD DUP1 SWAP2 SUB SWAP1 RETURN JUMPDEST PUSH2 0x302 PUSH1 0x4 DUP1 CALLDATASIZE SUB DUP2 ADD SWAP1 PUSH2 0x2FD SWAP2 SWAP1 PUSH2 0x21DC JUMP JUMPDEST PUSH2 0x1155 JUMP JUMPDEST PUSH1 0x40 MLOAD PUSH2 0x30F SWAP2 SWAP1 PUSH2 0x3451 JUMP JUMPDEST PUSH1 0x40 MLOAD DUP1 SWAP2 SUB SWAP1 RETURN JUMPDEST PUSH2 0x320 PUSH2 0x1175 JUMP JUMPDEST PUSH1 0x40 MLOAD PUSH2 0x32D SWAP2 SWAP1 PUSH2 0x3691 JUMP JUMPDEST PUSH1 0x40 MLOAD DUP1 SWAP2 SUB SWAP1 RETURN JUMPDEST PUSH2 0x350 PUSH1 0x4 DUP1 CALLDATASIZE SUB DUP2 ADD SWAP1 PUSH2 0x34B SWAP2 SWAP1 PUSH2 0x251B JUMP JUMPDEST PUSH2 0x1291 JUMP JUMPDEST PUSH1 0x40 MLOAD PUSH2 0x35D SWAP2 SWAP1 PUSH2 0x346C JUMP JUMPDEST PUSH1 0x40 MLOAD DUP1 SWAP2 SUB SWAP1 RETURN JUMPDEST PUSH2 0x36E PUSH2 0x12A9 JUMP JUMPDEST PUSH1 0x40 MLOAD PUSH2 0x37B SWAP2 SWAP1 PUSH2 0x36AC JUMP JUMPDEST PUSH1 0x40 MLOAD DUP1 SWAP2 SUB SWAP1 RETURN JUMPDEST PUSH2 0x39E PUSH1 0x4 DUP1 CALLDATASIZE SUB DUP2 ADD SWAP1 PUSH2 0x399 SWAP2 SWAP1 PUSH2 0x21DC JUMP JUMPDEST PUSH2 0x12B6 JUMP JUMPDEST PUSH1 0x40 MLOAD PUSH2 0x3AB SWAP2 SWAP1 PUSH2 0x3451 JUMP JUMPDEST PUSH1 0x40 MLOAD DUP1 SWAP2 SUB SWAP1 RETURN JUMPDEST PUSH1 0x0 PUSH1 0x4 SWAP1 SLOAD SWAP1 PUSH2 0x100 EXP SWAP1 DIV PUSH1 0xFF AND DUP2 JUMP JUMPDEST PUSH2 0x3D4 DUP6 DUP6 DUP6 DUP6 DUP6 PUSH2 0xFA0 JUMP JUMPDEST ISZERO PUSH2 0x46D JUMPI PUSH1 0x1 PUSH1 0x0 PUSH1 0x4 PUSH2 0x100 EXP DUP2 SLOAD DUP2 PUSH1 0xFF MUL NOT AND SWAP1 DUP4 ISZERO ISZERO MUL OR SWAP1 SSTORE POP DUP5 PUSH1 0x0 PUSH1 0x5 PUSH2 0x100 EXP DUP2 SLOAD DUP2 PUSH20 0xFFFFFFFFFFFFFFFFFFFFFFFFFFFFFFFFFFFFFFFF MUL NOT AND SWAP1 DUP4 PUSH20 0xFFFFFFFFFFFFFFFFFFFFFFFFFFFFFFFFFFFFFFFF AND MUL OR SWAP1 SSTORE POP PUSH32 0xCC358699805E9A8B7F77B522628C7CB9ABD07D9EFB86B6FB616AF1609036A99E DUP6 PUSH1 0x40 MLOAD PUSH2 0x464 SWAP2 SWAP1 PUSH2 0x3414 JUMP JUMPDEST PUSH1 0x40 MLOAD DUP1 SWAP2 SUB SWAP1 LOG1 JUMPDEST POP POP POP POP POP JUMP JUMPDEST PUSH1 0x0 PUSH1 0x1 PUSH1 0xA PUSH1 0x0 SWAP1 SLOAD SWAP1 PUSH2 0x100 EXP SWAP1 DIV PUSH1 0xFF AND PUSH1 0xFF AND EQ DUP1 PUSH2 0x4A9 JUMPI POP PUSH1 0x2 PUSH1 0xA PUSH1 0x0 SWAP1 SLOAD SWAP1 PUSH2 0x100 EXP SWAP1 DIV PUSH1 0xFF AND PUSH1 0xFF AND EQ JUMPDEST ISZERO PUSH2 0x4B7 JUMPI PUSH1 0x1 SWAP1 POP PUSH2 0x515 JUMP JUMPDEST PUSH1 0x0 PUSH1 0x1 PUSH1 0x2 PUSH1 0xA PUSH1 0x0 SWAP1 SLOAD SWAP1 PUSH2 0x100 EXP SWAP1 DIV PUSH1 0xFF AND PUSH1 0xFF AND DUP2 PUSH2 0x4D7 JUMPI INVALID JUMPDEST DIV ADD PUSH1 0xFF AND SWAP1 POP PUSH1 0x0 PUSH1 0x19 SWAP1 SLOAD SWAP1 PUSH2 0x100 EXP SWAP1 DIV PUSH1 0xFF AND PUSH1 0xFF AND DUP2 GT ISZERO PUSH2 0x510 JUMPI PUSH1 0x0 PUSH1 0x19 SWAP1 SLOAD SWAP1 PUSH2 0x100 EXP SWAP1 DIV PUSH1 0xFF AND SWAP2 POP POP PUSH2 0x515 JUMP JUMPDEST DUP1 SWAP2 POP POP JUMPDEST SWAP1 JUMP JUMPDEST PUSH1 0x5 PUSH1 0x20 MSTORE DUP1 PUSH1 0x0 MSTORE PUSH1 0x40 PUSH1 0x0 KECCAK256 PUSH1 0x0 SWAP2 POP SLOAD SWAP1 PUSH2 0x100 EXP SWAP1 DIV PUSH20 0xFFFFFFFFFFFFFFFFFFFFFFFFFFFFFFFFFFFFFFFF AND DUP2 JUMP JUMPDEST PUSH1 0x0 PUSH1 0x5 SWAP1 SLOAD SWAP1 PUSH2 0x100 EXP SWAP1 DIV PUSH20 0xFFFFFFFFFFFFFFFFFFFFFFFFFFFFFFFFFFFFFFFF AND DUP2 JUMP JUMPDEST PUSH1 0x0 DUP1 SLOAD SWAP1 PUSH2 0x100 EXP SWAP1 DIV PUSH4 0xFFFFFFFF AND DUP2 JUMP JUMPDEST PUSH1 0x9 DUP2 DUP2 SLOAD DUP2 LT PUSH2 0x595 JUMPI PUSH1 0x0 DUP1 REVERT JUMPDEST SWAP1 PUSH1 0x0 MSTORE PUSH1 0x20 PUSH1 0x0 KECCAK256 SWAP1 PUSH1 0x8 SWAP2 DUP3 DUP3 DIV ADD SWAP2 SWAP1 MOD PUSH1 0x4 MUL SWAP2 POP SLOAD SWAP1 PUSH2 0x100 EXP SWAP1 DIV PUSH4 0xFFFFFFFF AND DUP2 JUMP JUMPDEST PUSH1 0x0 DUP1 PUSH1 0x0 DUP1 JUMPDEST DUP7 MLOAD DUP2 LT ISZERO PUSH2 0x67E JUMPI PUSH2 0x614 DUP9 DUP7 DUP4 DUP2 MLOAD DUP2 LT PUSH2 0x5DF JUMPI INVALID JUMPDEST PUSH1 0x20 MUL PUSH1 0x20 ADD ADD MLOAD DUP10 DUP5 DUP2 MLOAD DUP2 LT PUSH2 0x5F3 JUMPI INVALID JUMPDEST PUSH1 0x20 MUL PUSH1 0x20 ADD ADD MLOAD DUP10 DUP6 DUP2 MLOAD DUP2 LT PUSH2 0x607 JUMPI INVALID JUMPDEST PUSH1 0x20 MUL PUSH1 0x20 ADD ADD MLOAD PUSH2 0x1324 JUMP JUMPDEST SWAP3 POP PUSH1 0x4 PUSH1 0x0 DUP5 PUSH20 0xFFFFFFFFFFFFFFFFFFFFFFFFFFFFFFFFFFFFFFFF AND PUSH20 0xFFFFFFFFFFFFFFFFFFFFFFFFFFFFFFFFFFFFFFFF AND DUP2 MSTORE PUSH1 0x20 ADD SWAP1 DUP2 MSTORE PUSH1 0x20 ADD PUSH1 0x0 KECCAK256 PUSH1 0x0 SWAP1 SLOAD SWAP1 PUSH2 0x100 EXP SWAP1 DIV PUSH1 0xFF AND ISZERO PUSH2 0x671 JUMPI DUP2 DUP1 PUSH1 0x1 ADD SWAP3 POP POP JUMPDEST DUP1 DUP1 PUSH1 0x1 ADD SWAP2 POP POP PUSH2 0x5C6 JUMP JUMPDEST POP PUSH1 0x0 PUSH2 0x689 PUSH2 0x474 JUMP JUMPDEST SWAP1 POP DUP1 PUSH1 0xFF AND DUP3 PUSH1 0xFF AND LT PUSH2 0x6A4 JUMPI PUSH1 0x1 SWAP4 POP POP POP POP PUSH2 0x6AC JUMP JUMPDEST PUSH1 0x0 SWAP4 POP POP POP POP JUMPDEST SWAP5 SWAP4 POP POP POP POP JUMP JUMPDEST PUSH1 0x60 PUSH1 0x0 PUSH1 0x4 SWAP1 SLOAD SWAP1 PUSH2 0x100 EXP SWAP1 DIV PUSH1 0xFF AND ISZERO PUSH2 0x706 JUMPI PUSH1 0x40 MLOAD PUSH32 0x8C379A000000000000000000000000000000000000000000000000000000000 DUP2 MSTORE PUSH1 0x4 ADD PUSH2 0x6FD SWAP1 PUSH2 0x359F JUMP JUMPDEST PUSH1 0x40 MLOAD DUP1 SWAP2 SUB SWAP1 REVERT JUMPDEST DUP4 MLOAD DUP6 MLOAD EQ DUP1 ISZERO PUSH2 0x718 JUMPI POP DUP6 MLOAD DUP6 MLOAD EQ JUMPDEST PUSH2 0x757 JUMPI PUSH1 0x40 MLOAD PUSH32 0x8C379A000000000000000000000000000000000000000000000000000000000 DUP2 MSTORE PUSH1 0x4 ADD PUSH2 0x74E SWAP1 PUSH2 0x35DF JUMP JUMPDEST PUSH1 0x40 MLOAD DUP1 SWAP2 SUB SWAP1 REVERT JUMPDEST PUSH1 0x0 DUP1 SLOAD SWAP1 PUSH2 0x100 EXP SWAP1 DIV PUSH4 0xFFFFFFFF AND PUSH4 0xFFFFFFFF AND DUP8 PUSH1 0xA0 ADD MLOAD PUSH4 0xFFFFFFFF AND GT PUSH2 0x7B9 JUMPI PUSH1 0x40 MLOAD PUSH32 0x8C379A000000000000000000000000000000000000000000000000000000000 DUP2 MSTORE PUSH1 0x4 ADD PUSH2 0x7B0 SWAP1 PUSH2 0x35FF JUMP JUMPDEST PUSH1 0x40 MLOAD DUP1 SWAP2 SUB SWAP1 REVERT JUMPDEST PUSH1 0x0 PUSH1 0x2 PUSH1 0x0 SWAP1 SLOAD SWAP1 PUSH2 0x100 EXP SWAP1 DIV PUSH20 0xFFFFFFFFFFFFFFFFFFFFFFFFFFFFFFFFFFFFFFFF AND PUSH20 0xFFFFFFFFFFFFFFFFFFFFFFFFFFFFFFFFFFFFFFFF AND PUSH4 0x892E2937 DUP10 PUSH1 0x40 MLOAD DUP3 PUSH4 0xFFFFFFFF AND PUSH1 0xE0 SHL DUP2 MSTORE PUSH1 0x4 ADD PUSH2 0x816 SWAP2 SWAP1 PUSH2 0x363F JUMP JUMPDEST PUSH1 0x0 PUSH1 0x40 MLOAD DUP1 DUP4 SUB DUP2 DUP7 DUP1 EXTCODESIZE ISZERO DUP1 ISZERO PUSH2 0x82E JUMPI PUSH1 0x0 DUP1 REVERT JUMPDEST POP GAS STATICCALL ISZERO DUP1 ISZERO PUSH2 0x842 JUMPI RETURNDATASIZE PUSH1 0x0 DUP1 RETURNDATACOPY RETURNDATASIZE PUSH1 0x0 REVERT JUMPDEST POP POP POP POP PUSH1 0x40 MLOAD RETURNDATASIZE PUSH1 0x0 DUP3 RETURNDATACOPY RETURNDATASIZE PUSH1 0x1F NOT PUSH1 0x1F DUP3 ADD AND DUP3 ADD DUP1 PUSH1 0x40 MSTORE POP DUP2 ADD SWAP1 PUSH2 0x86B SWAP2 SWAP1 PUSH2 0x2398 JUMP JUMPDEST SWAP1 POP PUSH1 0x0 DUP1 PUSH1 0x0 PUSH1 0x60 PUSH1 0x40 MLOAD DUP1 PUSH1 0x40 ADD PUSH1 0x40 MSTORE DUP1 PUSH1 0x5 DUP2 MSTORE PUSH1 0x20 ADD PUSH32 0x7374617274000000000000000000000000000000000000000000000000000000 DUP2 MSTORE POP SWAP6 POP PUSH1 0x0 JUMPDEST DUP9 MLOAD DUP2 LT ISZERO PUSH2 0xB56 JUMPI PUSH1 0x1 PUSH1 0x3 PUSH1 0x0 SWAP1 SLOAD SWAP1 PUSH2 0x100 EXP SWAP1 DIV PUSH1 0x60 SHL PUSH20 0xA6EF9EA235635E328124FF3429DB9F9E91B64E2D PUSH1 0x2 PUSH1 0x0 SWAP1 SLOAD SWAP1 PUSH2 0x100 EXP SWAP1 DIV PUSH20 0xFFFFFFFFFFFFFFFFFFFFFFFFFFFFFFFFFFFFFFFF AND PUSH20 0xFFFFFFFFFFFFFFFFFFFFFFFFFFFFFFFFFFFFFFFF AND PUSH4 0xCECB3043 DUP14 DUP7 DUP2 MLOAD DUP2 LT PUSH2 0x929 JUMPI INVALID JUMPDEST PUSH1 0x20 MUL PUSH1 0x20 ADD ADD MLOAD PUSH1 0x40 MLOAD DUP3 PUSH4 0xFFFFFFFF AND PUSH1 0xE0 SHL DUP2 MSTORE PUSH1 0x4 ADD PUSH2 0x94D SWAP2 SWAP1 PUSH2 0x36C7 JUMP JUMPDEST PUSH1 0x0 PUSH1 0x40 MLOAD DUP1 DUP4 SUB DUP2 DUP7 DUP1 EXTCODESIZE ISZERO DUP1 ISZERO PUSH2 0x965 JUMPI PUSH1 0x0 DUP1 REVERT JUMPDEST POP GAS STATICCALL ISZERO DUP1 ISZERO PUSH2 0x979 JUMPI RETURNDATASIZE PUSH1 0x0 DUP1 RETURNDATACOPY RETURNDATASIZE PUSH1 0x0 REVERT JUMPDEST POP POP POP POP PUSH1 0x40 MLOAD RETURNDATASIZE PUSH1 0x0 DUP3 RETURNDATACOPY RETURNDATASIZE PUSH1 0x1F NOT PUSH1 0x1F DUP3 ADD AND DUP3 ADD DUP1 PUSH1 0x40 MSTORE POP DUP2 ADD SWAP1 PUSH2 0x9A2 SWAP2 SWAP1 PUSH2 0x2398 JUMP JUMPDEST DUP12 DUP6 DUP2 MLOAD DUP2 LT PUSH2 0x9AE JUMPI INVALID JUMPDEST PUSH1 0x20 MUL PUSH1 0x20 ADD ADD MLOAD DUP11 DUP1 MLOAD SWAP1 PUSH1 0x20 ADD KECCAK256 PUSH1 0x40 MLOAD PUSH1 0x20 ADD PUSH2 0x9CE SWAP2 SWAP1 PUSH2 0x332B JUMP JUMPDEST PUSH1 0x40 MLOAD PUSH1 0x20 DUP2 DUP4 SUB SUB DUP2 MSTORE SWAP1 PUSH1 0x40 MSTORE PUSH1 0x40 MLOAD PUSH1 0x20 ADD PUSH2 0x9F2 SWAP7 SWAP6 SWAP5 SWAP4 SWAP3 SWAP2 SWAP1 PUSH2 0x33AC JUMP JUMPDEST PUSH1 0x40 MLOAD PUSH1 0x20 DUP2 DUP4 SUB SUB DUP2 MSTORE SWAP1 PUSH1 0x40 MSTORE SWAP2 POP DUP2 DUP1 MLOAD SWAP1 PUSH1 0x20 ADD KECCAK256 SWAP5 POP PUSH2 0xA55 DUP6 PUSH1 0x4 DUP15 DUP5 DUP2 MLOAD DUP2 LT PUSH2 0xA1F JUMPI INVALID JUMPDEST PUSH1 0x20 MUL PUSH1 0x20 ADD ADD MLOAD SUB DUP14 DUP5 DUP2 MLOAD DUP2 LT PUSH2 0xA34 JUMPI INVALID JUMPDEST PUSH1 0x20 MUL PUSH1 0x20 ADD ADD MLOAD DUP14 DUP6 DUP2 MLOAD DUP2 LT PUSH2 0xA48 JUMPI INVALID JUMPDEST PUSH1 0x20 MUL PUSH1 0x20 ADD ADD MLOAD PUSH2 0x1324 JUMP JUMPDEST SWAP4 POP PUSH1 0x5 PUSH1 0x0 DUP10 DUP4 DUP2 MLOAD DUP2 LT PUSH2 0xA67 JUMPI INVALID JUMPDEST PUSH1 0x20 MUL PUSH1 0x20 ADD ADD MLOAD PUSH20 0xFFFFFFFFFFFFFFFFFFFFFFFFFFFFFFFFFFFFFFFF AND PUSH20 0xFFFFFFFFFFFFFFFFFFFFFFFFFFFFFFFFFFFFFFFF AND DUP2 MSTORE PUSH1 0x20 ADD SWAP1 DUP2 MSTORE PUSH1 0x20 ADD PUSH1 0x0 KECCAK256 PUSH1 0x0 SWAP1 SLOAD SWAP1 PUSH2 0x100 EXP SWAP1 DIV PUSH20 0xFFFFFFFFFFFFFFFFFFFFFFFFFFFFFFFFFFFFFFFF AND PUSH20 0xFFFFFFFFFFFFFFFFFFFFFFFFFFFFFFFFFFFFFFFF AND DUP5 PUSH20 0xFFFFFFFFFFFFFFFFFFFFFFFFFFFFFFFFFFFFFFFF AND EQ ISZERO PUSH2 0xB28 JUMPI DUP3 DUP1 PUSH1 0x1 ADD SWAP4 POP POP DUP7 PUSH1 0x40 MLOAD PUSH1 0x20 ADD PUSH2 0xB16 SWAP2 SWAP1 PUSH2 0x338A JUMP JUMPDEST PUSH1 0x40 MLOAD PUSH1 0x20 DUP2 DUP4 SUB SUB DUP2 MSTORE SWAP1 PUSH1 0x40 MSTORE SWAP7 POP JUMPDEST PUSH1 0x0 PUSH1 0x19 SWAP1 SLOAD SWAP1 PUSH2 0x100 EXP SWAP1 DIV PUSH1 0xFF AND PUSH1 0xFF AND DUP4 PUSH1 0xFF AND LT PUSH2 0xB49 JUMPI PUSH2 0xB56 JUMP JUMPDEST DUP1 DUP1 PUSH1 0x1 ADD SWAP2 POP POP PUSH2 0x8AF JUMP JUMPDEST POP PUSH2 0xB5F PUSH2 0x474 JUMP JUMPDEST PUSH1 0xFF AND DUP3 PUSH1 0xFF AND LT PUSH2 0xE77 JUMPI DUP6 PUSH1 0x40 MLOAD PUSH1 0x20 ADD PUSH2 0xB7C SWAP2 SWAP1 PUSH2 0x3346 JUMP JUMPDEST PUSH1 0x40 MLOAD PUSH1 0x20 DUP2 DUP4 SUB SUB DUP2 MSTORE SWAP1 PUSH1 0x40 MSTORE SWAP6 POP PUSH1 0x0 JUMPDEST DUP13 PUSH2 0x140 ADD MLOAD MLOAD DUP2 LT ISZERO PUSH2 0xE2C JUMPI PUSH20 0xA6EF9EA235635E328124FF3429DB9F9E91B64E2D PUSH20 0xFFFFFFFFFFFFFFFFFFFFFFFFFFFFFFFFFFFFFFFF AND DUP14 PUSH2 0x140 ADD MLOAD DUP3 DUP2 MLOAD DUP2 LT PUSH2 0xBDA JUMPI INVALID JUMPDEST PUSH1 0x20 MUL PUSH1 0x20 ADD ADD MLOAD PUSH1 0x40 ADD MLOAD PUSH20 0xFFFFFFFFFFFFFFFFFFFFFFFFFFFFFFFFFFFFFFFF AND EQ ISZERO PUSH2 0xE1F JUMPI DUP13 PUSH2 0x140 ADD MLOAD DUP2 DUP2 MLOAD DUP2 LT PUSH2 0xC13 JUMPI INVALID JUMPDEST PUSH1 0x20 MUL PUSH1 0x20 ADD ADD MLOAD PUSH1 0x80 ADD MLOAD PUSH1 0x8 PUSH1 0x0 DUP16 PUSH1 0xA0 ADD MLOAD PUSH4 0xFFFFFFFF AND PUSH4 0xFFFFFFFF AND DUP2 MSTORE PUSH1 0x20 ADD SWAP1 DUP2 MSTORE PUSH1 0x20 ADD PUSH1 0x0 KECCAK256 DUP2 SWAP1 SSTORE POP DUP13 PUSH2 0x140 ADD MLOAD DUP2 DUP2 MLOAD DUP2 LT PUSH2 0xC57 JUMPI INVALID JUMPDEST PUSH1 0x20 MUL PUSH1 0x20 ADD ADD MLOAD PUSH1 0x7 PUSH1 0x0 DUP16 PUSH1 0xA0 ADD MLOAD PUSH4 0xFFFFFFFF AND PUSH4 0xFFFFFFFF AND DUP2 MSTORE PUSH1 0x20 ADD SWAP1 DUP2 MSTORE PUSH1 0x20 ADD PUSH1 0x0 KECCAK256 PUSH1 0x0 DUP3 ADD MLOAD DUP2 PUSH1 0x0 ADD PUSH1 0x0 PUSH2 0x100 EXP DUP2 SLOAD DUP2 PUSH2 0xFFFF MUL NOT AND SWAP1 DUP4 PUSH1 0x1 SIGNEXTEND PUSH2 0xFFFF AND MUL OR SWAP1 SSTORE POP PUSH1 0x20 DUP3 ADD MLOAD DUP2 PUSH1 0x0 ADD PUSH1 0x2 PUSH2 0x100 EXP DUP2 SLOAD DUP2 PUSH2 0xFFFF MUL NOT AND SWAP1 DUP4 PUSH1 0x1 SIGNEXTEND PUSH2 0xFFFF AND MUL OR SWAP1 SSTORE POP PUSH1 0x40 DUP3 ADD MLOAD DUP2 PUSH1 0x0 ADD PUSH1 0x4 PUSH2 0x100 EXP DUP2 SLOAD DUP2 PUSH20 0xFFFFFFFFFFFFFFFFFFFFFFFFFFFFFFFFFFFFFFFF MUL NOT AND SWAP1 DUP4 PUSH20 0xFFFFFFFFFFFFFFFFFFFFFFFFFFFFFFFFFFFFFFFF AND MUL OR SWAP1 SSTORE POP PUSH1 0x60 DUP3 ADD MLOAD DUP2 PUSH1 0x0 ADD PUSH1 0x18 PUSH2 0x100 EXP DUP2 SLOAD DUP2 PUSH4 0xFFFFFFFF MUL NOT AND SWAP1 DUP4 PUSH4 0xFFFFFFFF AND MUL OR SWAP1 SSTORE POP PUSH1 0x80 DUP3 ADD MLOAD DUP2 PUSH1 0x1 ADD SSTORE PUSH1 0xA0 DUP3 ADD MLOAD DUP2 PUSH1 0x2 ADD SSTORE PUSH1 0xC0 DUP3 ADD MLOAD DUP2 PUSH1 0x3 ADD SSTORE SWAP1 POP POP PUSH1 0x9 DUP14 PUSH1 0xA0 ADD MLOAD SWAP1 DUP1 PUSH1 0x1 DUP2 SLOAD ADD DUP1 DUP3 SSTORE DUP1 SWAP2 POP POP PUSH1 0x1 SWAP1 SUB SWAP1 PUSH1 0x0 MSTORE PUSH1 0x20 PUSH1 0x0 KECCAK256 SWAP1 PUSH1 0x8 SWAP2 DUP3 DUP3 DIV ADD SWAP2 SWAP1 MOD PUSH1 0x4 MUL SWAP1 SWAP2 SWAP1 SWAP2 SWAP1 SWAP2 PUSH2 0x100 EXP DUP2 SLOAD DUP2 PUSH4 0xFFFFFFFF MUL NOT AND SWAP1 DUP4 PUSH4 0xFFFFFFFF AND MUL OR SWAP1 SSTORE POP DUP13 PUSH1 0xA0 ADD MLOAD PUSH4 0xFFFFFFFF AND PUSH1 0x0 DUP1 SLOAD SWAP1 PUSH2 0x100 EXP SWAP1 DIV PUSH4 0xFFFFFFFF AND PUSH4 0xFFFFFFFF AND LT ISZERO PUSH2 0xE1E JUMPI DUP7 PUSH1 0x40 MLOAD PUSH1 0x20 ADD PUSH2 0xDE8 SWAP2 SWAP1 PUSH2 0x3368 JUMP JUMPDEST PUSH1 0x40 MLOAD PUSH1 0x20 DUP2 DUP4 SUB SUB DUP2 MSTORE SWAP1 PUSH1 0x40 MSTORE SWAP7 POP DUP13 PUSH1 0xA0 ADD MLOAD PUSH1 0x0 DUP1 PUSH2 0x100 EXP DUP2 SLOAD DUP2 PUSH4 0xFFFFFFFF MUL NOT AND SWAP1 DUP4 PUSH4 0xFFFFFFFF AND MUL OR SWAP1 SSTORE POP JUMPDEST JUMPDEST DUP1 DUP1 PUSH1 0x1 ADD SWAP2 POP POP PUSH2 0xB90 JUMP JUMPDEST POP PUSH32 0x3C3D32B52A6AEF5732CAB1FBC27156FBA0FA8570F7A72C63571CAB9A3FF66DAB DUP13 PUSH1 0x0 DUP1 SLOAD SWAP1 PUSH2 0x100 EXP SWAP1 DIV PUSH4 0xFFFFFFFF AND PUSH1 0x40 MLOAD PUSH2 0xE6E SWAP3 SWAP2 SWAP1 PUSH2 0x3661 JUMP JUMPDEST PUSH1 0x40 MLOAD DUP1 SWAP2 SUB SWAP1 LOG1 JUMPDEST POP POP POP POP POP SWAP7 SWAP6 POP POP POP POP POP POP JUMP JUMPDEST PUSH1 0x60 PUSH1 0x6 DUP1 SLOAD DUP1 PUSH1 0x20 MUL PUSH1 0x20 ADD PUSH1 0x40 MLOAD SWAP1 DUP2 ADD PUSH1 0x40 MSTORE DUP1 SWAP3 SWAP2 SWAP1 DUP2 DUP2 MSTORE PUSH1 0x20 ADD DUP3 DUP1 SLOAD DUP1 ISZERO PUSH2 0xF0A JUMPI PUSH1 0x20 MUL DUP3 ADD SWAP2 SWAP1 PUSH1 0x0 MSTORE PUSH1 0x20 PUSH1 0x0 KECCAK256 SWAP1 JUMPDEST DUP2 PUSH1 0x0 SWAP1 SLOAD SWAP1 PUSH2 0x100 EXP SWAP1 DIV PUSH20 0xFFFFFFFFFFFFFFFFFFFFFFFFFFFFFFFFFFFFFFFF AND PUSH20 0xFFFFFFFFFFFFFFFFFFFFFFFFFFFFFFFFFFFFFFFF AND DUP2 MSTORE PUSH1 0x20 ADD SWAP1 PUSH1 0x1 ADD SWAP1 DUP1 DUP4 GT PUSH2 0xEC0 JUMPI JUMPDEST POP POP POP POP POP SWAP1 POP SWAP1 JUMP JUMPDEST PUSH1 0x7 PUSH1 0x20 MSTORE DUP1 PUSH1 0x0 MSTORE PUSH1 0x40 PUSH1 0x0 KECCAK256 PUSH1 0x0 SWAP2 POP SWAP1 POP DUP1 PUSH1 0x0 ADD PUSH1 0x0 SWAP1 SLOAD SWAP1 PUSH2 0x100 EXP SWAP1 DIV PUSH1 0x1 SIGNEXTEND SWAP1 DUP1 PUSH1 0x0 ADD PUSH1 0x2 SWAP1 SLOAD SWAP1 PUSH2 0x100 EXP SWAP1 DIV PUSH1 0x1 SIGNEXTEND SWAP1 DUP1 PUSH1 0x0 ADD PUSH1 0x4 SWAP1 SLOAD SWAP1 PUSH2 0x100 EXP SWAP1 DIV PUSH20 0xFFFFFFFFFFFFFFFFFFFFFFFFFFFFFFFFFFFFFFFF AND SWAP1 DUP1 PUSH1 0x0 ADD PUSH1 0x18 SWAP1 SLOAD SWAP1 PUSH2 0x100 EXP SWAP1 DIV PUSH4 0xFFFFFFFF AND SWAP1 DUP1 PUSH1 0x1 ADD SLOAD SWAP1 DUP1 PUSH1 0x2 ADD SLOAD SWAP1 DUP1 PUSH1 0x3 ADD SLOAD SWAP1 POP DUP8 JUMP JUMPDEST PUSH1 0x0 PUSH2 0xFAB CALLER PUSH2 0x12B6 JUMP JUMPDEST PUSH2 0xFEA JUMPI PUSH1 0x40 MLOAD PUSH32 0x8C379A000000000000000000000000000000000000000000000000000000000 DUP2 MSTORE PUSH1 0x4 ADD PUSH2 0xFE1 SWAP1 PUSH2 0x357F JUMP JUMPDEST PUSH1 0x40 MLOAD DUP1 SWAP2 SUB SWAP1 REVERT JUMPDEST PUSH1 0x0 PUSH1 0x1 PUSH1 0x0 SWAP1 SLOAD SWAP1 PUSH2 0x100 EXP SWAP1 DIV PUSH20 0xFFFFFFFFFFFFFFFFFFFFFFFFFFFFFFFFFFFFFFFF AND PUSH20 0xFFFFFFFFFFFFFFFFFFFFFFFFFFFFFFFFFFFFFFFF AND PUSH4 0x2CD0CFF2 DUP9 PUSH1 0x40 MLOAD PUSH1 0x20 ADD PUSH2 0x103B SWAP2 SWAP1 PUSH2 0x3310 JUMP JUMPDEST PUSH1 0x40 MLOAD PUSH1 0x20 DUP2 DUP4 SUB SUB DUP2 MSTORE SWAP1 PUSH1 0x40 MSTORE PUSH1 0x40 MLOAD DUP3 PUSH4 0xFFFFFFFF AND PUSH1 0xE0 SHL DUP2 MSTORE PUSH1 0x4 ADD PUSH2 0x1066 SWAP2 SWAP1 PUSH2 0x34CC JUMP JUMPDEST PUSH1 0x20 PUSH1 0x40 MLOAD DUP1 DUP4 SUB DUP2 PUSH1 0x0 DUP8 DUP1 EXTCODESIZE ISZERO DUP1 ISZERO PUSH2 0x1080 JUMPI PUSH1 0x0 DUP1 REVERT JUMPDEST POP GAS CALL ISZERO DUP1 ISZERO PUSH2 0x1094 JUMPI RETURNDATASIZE PUSH1 0x0 DUP1 RETURNDATACOPY RETURNDATASIZE PUSH1 0x0 REVERT JUMPDEST POP POP POP POP PUSH1 0x40 MLOAD RETURNDATASIZE PUSH1 0x1F NOT PUSH1 0x1F DUP3 ADD AND DUP3 ADD DUP1 PUSH1 0x40 MSTORE POP DUP2 ADD SWAP1 PUSH2 0x10B8 SWAP2 SWAP1 PUSH2 0x22C4 JUMP JUMPDEST SWAP1 POP DUP6 DUP2 EQ PUSH2 0x10FC JUMPI PUSH1 0x40 MLOAD PUSH32 0x8C379A000000000000000000000000000000000000000000000000000000000 DUP2 MSTORE PUSH1 0x4 ADD PUSH2 0x10F3 SWAP1 PUSH2 0x361F JUMP JUMPDEST PUSH1 0x40 MLOAD DUP1 SWAP2 SUB SWAP1 REVERT JUMPDEST PUSH2 0x1108 DUP7 DUP6 DUP6 DUP9 PUSH2 0x5BF JUMP JUMPDEST PUSH2 0x1147 JUMPI PUSH1 0x40 MLOAD PUSH32 0x8C379A000000000000000000000000000000000000000000000000000000000 DUP2 MSTORE PUSH1 0x4 ADD PUSH2 0x113E SWAP1 PUSH2 0x35BF JUMP JUMPDEST PUSH1 0x40 MLOAD DUP1 SWAP2 SUB SWAP1 REVERT JUMPDEST PUSH1 0x1 SWAP2 POP POP SWAP6 SWAP5 POP POP POP POP POP JUMP JUMPDEST PUSH1 0x4 PUSH1 0x20 MSTORE DUP1 PUSH1 0x0 MSTORE PUSH1 0x40 PUSH1 0x0 KECCAK256 PUSH1 0x0 SWAP2 POP SLOAD SWAP1 PUSH2 0x100 EXP SWAP1 DIV PUSH1 0xFF AND DUP2 JUMP JUMPDEST PUSH2 0x117D PUSH2 0x1384 JUMP JUMPDEST PUSH1 0x7 PUSH1 0x0 DUP1 PUSH1 0x0 SWAP1 SLOAD SWAP1 PUSH2 0x100 EXP SWAP1 DIV PUSH4 0xFFFFFFFF AND PUSH4 0xFFFFFFFF AND PUSH4 0xFFFFFFFF AND DUP2 MSTORE PUSH1 0x20 ADD SWAP1 DUP2 MSTORE PUSH1 0x20 ADD PUSH1 0x0 KECCAK256 PUSH1 0x40 MLOAD DUP1 PUSH1 0xE0 ADD PUSH1 0x40 MSTORE SWAP1 DUP2 PUSH1 0x0 DUP3 ADD PUSH1 0x0 SWAP1 SLOAD SWAP1 PUSH2 0x100 EXP SWAP1 DIV PUSH1 0x1 SIGNEXTEND PUSH1 0x1 SIGNEXTEND PUSH1 0x1 SIGNEXTEND DUP2 MSTORE PUSH1 0x20 ADD PUSH1 0x0 DUP3 ADD PUSH1 0x2 SWAP1 SLOAD SWAP1 PUSH2 0x100 EXP SWAP1 DIV PUSH1 0x1 SIGNEXTEND PUSH1 0x1 SIGNEXTEND PUSH1 0x1 SIGNEXTEND DUP2 MSTORE PUSH1 0x20 ADD PUSH1 0x0 DUP3 ADD PUSH1 0x4 SWAP1 SLOAD SWAP1 PUSH2 0x100 EXP SWAP1 DIV PUSH20 0xFFFFFFFFFFFFFFFFFFFFFFFFFFFFFFFFFFFFFFFF AND PUSH20 0xFFFFFFFFFFFFFFFFFFFFFFFFFFFFFFFFFFFFFFFF AND PUSH20 0xFFFFFFFFFFFFFFFFFFFFFFFFFFFFFFFFFFFFFFFF AND DUP2 MSTORE PUSH1 0x20 ADD PUSH1 0x0 DUP3 ADD PUSH1 0x18 SWAP1 SLOAD SWAP1 PUSH2 0x100 EXP SWAP1 DIV PUSH4 0xFFFFFFFF AND PUSH4 0xFFFFFFFF AND PUSH4 0xFFFFFFFF AND DUP2 MSTORE PUSH1 0x20 ADD PUSH1 0x1 DUP3 ADD SLOAD DUP2 MSTORE PUSH1 0x20 ADD PUSH1 0x2 DUP3 ADD SLOAD DUP2 MSTORE PUSH1 0x20 ADD PUSH1 0x3 DUP3 ADD SLOAD DUP2 MSTORE POP POP SWAP1 POP SWAP1 JUMP JUMPDEST PUSH1 0x8 PUSH1 0x20 MSTORE DUP1 PUSH1 0x0 MSTORE PUSH1 0x40 PUSH1 0x0 KECCAK256 PUSH1 0x0 SWAP2 POP SWAP1 POP SLOAD DUP2 JUMP JUMPDEST PUSH1 0x0 PUSH1 0x9 DUP1 SLOAD SWAP1 POP SWAP1 POP SWAP1 JUMP JUMPDEST PUSH1 0x0 PUSH1 0x1 ISZERO ISZERO PUSH1 0x4 PUSH1 0x0 DUP5 PUSH20 0xFFFFFFFFFFFFFFFFFFFFFFFFFFFFFFFFFFFFFFFF AND PUSH20 0xFFFFFFFFFFFFFFFFFFFFFFFFFFFFFFFFFFFFFFFF AND DUP2 MSTORE PUSH1 0x20 ADD SWAP1 DUP2 MSTORE PUSH1 0x20 ADD PUSH1 0x0 KECCAK256 PUSH1 0x0 SWAP1 SLOAD SWAP1 PUSH2 0x100 EXP SWAP1 DIV PUSH1 0xFF AND ISZERO ISZERO EQ ISZERO PUSH2 0x131A JUMPI PUSH1 0x1 SWAP1 POP PUSH2 0x131F JUMP JUMPDEST PUSH1 0x0 SWAP1 POP JUMPDEST SWAP2 SWAP1 POP JUMP JUMPDEST PUSH1 0x0 DUP1 PUSH1 0x1 DUP7 DUP7 DUP7 DUP7 PUSH1 0x40 MLOAD PUSH1 0x0 DUP2 MSTORE PUSH1 0x20 ADD PUSH1 0x40 MSTORE PUSH1 0x40 MLOAD PUSH2 0x134A SWAP5 SWAP4 SWAP3 SWAP2 SWAP1 PUSH2 0x3487 JUMP JUMPDEST PUSH1 0x20 PUSH1 0x40 MLOAD PUSH1 0x20 DUP2 SUB SWAP1 DUP1 DUP5 SUB SWAP1 DUP6 GAS STATICCALL ISZERO DUP1 ISZERO PUSH2 0x136C JUMPI RETURNDATASIZE PUSH1 0x0 DUP1 RETURNDATACOPY RETURNDATASIZE PUSH1 0x0 REVERT JUMPDEST POP POP POP PUSH1 0x20 PUSH1 0x40 MLOAD SUB MLOAD SWAP1 POP DUP1 SWAP2 POP POP SWAP5 SWAP4 POP POP POP POP JUMP JUMPDEST PUSH1 0x40 MLOAD DUP1 PUSH1 0xE0 ADD PUSH1 0x40 MSTORE DUP1 PUSH1 0x0 PUSH1 0x1 SIGNEXTEND DUP2 MSTORE PUSH1 0x20 ADD PUSH1 0x0 PUSH1 0x1 SIGNEXTEND DUP2 MSTORE PUSH1 0x20 ADD PUSH1 0x0 PUSH20 0xFFFFFFFFFFFFFFFFFFFFFFFFFFFFFFFFFFFFFFFF AND DUP2 MSTORE PUSH1 0x20 ADD PUSH1 0x0 PUSH4 0xFFFFFFFF AND DUP2 MSTORE PUSH1 0x20 ADD PUSH1 0x0 DUP1 NOT AND DUP2 MSTORE PUSH1 0x20 ADD PUSH1 0x0 DUP1 NOT AND DUP2 MSTORE PUSH1 0x20 ADD PUSH1 0x0 DUP1 NOT AND DUP2 MSTORE POP SWAP1 JUMP JUMPDEST PUSH1 0x0 PUSH2 0x13FF PUSH2 0x13FA DUP5 PUSH2 0x372E JUMP JUMPDEST PUSH2 0x36FD JUMP JUMPDEST SWAP1 POP DUP1 DUP4 DUP3 MSTORE PUSH1 0x20 DUP3 ADD SWAP1 POP DUP3 DUP6 PUSH1 0x20 DUP7 MUL DUP3 ADD GT ISZERO PUSH2 0x141E JUMPI PUSH1 0x0 DUP1 REVERT JUMPDEST PUSH1 0x0 JUMPDEST DUP6 DUP2 LT ISZERO PUSH2 0x144E JUMPI DUP2 PUSH2 0x1434 DUP9 DUP3 PUSH2 0x1882 JUMP JUMPDEST DUP5 MSTORE PUSH1 0x20 DUP5 ADD SWAP4 POP PUSH1 0x20 DUP4 ADD SWAP3 POP POP PUSH1 0x1 DUP2 ADD SWAP1 POP PUSH2 0x1421 JUMP JUMPDEST POP POP POP SWAP4 SWAP3 POP POP POP JUMP JUMPDEST PUSH1 0x0 PUSH2 0x146B PUSH2 0x1466 DUP5 PUSH2 0x375A JUMP JUMPDEST PUSH2 0x36FD JUMP JUMPDEST SWAP1 POP DUP1 DUP4 DUP3 MSTORE PUSH1 0x20 DUP3 ADD SWAP1 POP DUP3 DUP6 PUSH1 0x20 DUP7 MUL DUP3 ADD GT ISZERO PUSH2 0x148A JUMPI PUSH1 0x0 DUP1 REVERT JUMPDEST PUSH1 0x0 JUMPDEST DUP6 DUP2 LT ISZERO PUSH2 0x14BA JUMPI DUP2 PUSH2 0x14A0 DUP9 DUP3 PUSH2 0x1A3B JUMP JUMPDEST DUP5 MSTORE PUSH1 0x20 DUP5 ADD SWAP4 POP PUSH1 0x20 DUP4 ADD SWAP3 POP POP PUSH1 0x1 DUP2 ADD SWAP1 POP PUSH2 0x148D JUMP JUMPDEST POP POP POP SWAP4 SWAP3 POP POP POP JUMP JUMPDEST PUSH1 0x0 PUSH2 0x14D7 PUSH2 0x14D2 DUP5 PUSH2 0x3786 JUMP JUMPDEST PUSH2 0x36FD JUMP JUMPDEST SWAP1 POP DUP1 DUP4 DUP3 MSTORE PUSH1 0x20 DUP3 ADD SWAP1 POP DUP3 DUP6 PUSH1 0x20 DUP7 MUL DUP3 ADD GT ISZERO PUSH2 0x14F6 JUMPI PUSH1 0x0 DUP1 REVERT JUMPDEST PUSH1 0x0 JUMPDEST DUP6 DUP2 LT ISZERO PUSH2 0x1526 JUMPI DUP2 PUSH2 0x150C DUP9 DUP3 PUSH2 0x1AA4 JUMP JUMPDEST DUP5 MSTORE PUSH1 0x20 DUP5 ADD SWAP4 POP PUSH1 0x20 DUP4 ADD SWAP3 POP POP PUSH1 0x1 DUP2 ADD SWAP1 POP PUSH2 0x14F9 JUMP JUMPDEST POP POP POP SWAP4 SWAP3 POP POP POP JUMP JUMPDEST PUSH1 0x0 PUSH2 0x1543 PUSH2 0x153E DUP5 PUSH2 0x37B2 JUMP JUMPDEST PUSH2 0x36FD JUMP JUMPDEST SWAP1 POP DUP1 DUP4 DUP3 MSTORE PUSH1 0x20 DUP3 ADD SWAP1 POP DUP3 DUP6 PUSH1 0x20 DUP7 MUL DUP3 ADD GT ISZERO PUSH2 0x1562 JUMPI PUSH1 0x0 DUP1 REVERT JUMPDEST PUSH1 0x0 JUMPDEST DUP6 DUP2 LT ISZERO PUSH2 0x1592 JUMPI DUP2 PUSH2 0x1578 DUP9 DUP3 PUSH2 0x1AB9 JUMP JUMPDEST DUP5 MSTORE PUSH1 0x20 DUP5 ADD SWAP4 POP PUSH1 0x20 DUP4 ADD SWAP3 POP POP PUSH1 0x1 DUP2 ADD SWAP1 POP PUSH2 0x1565 JUMP JUMPDEST POP POP POP SWAP4 SWAP3 POP POP POP JUMP JUMPDEST PUSH1 0x0 PUSH2 0x15AF PUSH2 0x15AA DUP5 PUSH2 0x37DE JUMP JUMPDEST PUSH2 0x36FD JUMP JUMPDEST SWAP1 POP DUP1 DUP4 DUP3 MSTORE PUSH1 0x20 DUP3 ADD SWAP1 POP DUP3 PUSH1 0x0 JUMPDEST DUP6 DUP2 LT ISZERO PUSH2 0x15EF JUMPI DUP2 CALLDATALOAD DUP6 ADD PUSH2 0x15D5 DUP9 DUP3 PUSH2 0x1DE4 JUMP JUMPDEST DUP5 MSTORE PUSH1 0x20 DUP5 ADD SWAP4 POP PUSH1 0x20 DUP4 ADD SWAP3 POP POP PUSH1 0x1 DUP2 ADD SWAP1 POP PUSH2 0x15BF JUMP JUMPDEST POP POP POP SWAP4 SWAP3 POP POP POP JUMP JUMPDEST PUSH1 0x0 PUSH2 0x160C PUSH2 0x1607 DUP5 PUSH2 0x380A JUMP JUMPDEST PUSH2 0x36FD JUMP JUMPDEST SWAP1 POP DUP1 DUP4 DUP3 MSTORE PUSH1 0x20 DUP3 ADD SWAP1 POP DUP3 DUP6 PUSH1 0xE0 DUP7 MUL DUP3 ADD GT ISZERO PUSH2 0x162B JUMPI PUSH1 0x0 DUP1 REVERT JUMPDEST PUSH1 0x0 JUMPDEST DUP6 DUP2 LT ISZERO PUSH2 0x165B JUMPI DUP2 PUSH2 0x1641 DUP9 DUP3 PUSH2 0x1FC7 JUMP JUMPDEST DUP5 MSTORE PUSH1 0x20 DUP5 ADD SWAP4 POP PUSH1 0xE0 DUP4 ADD SWAP3 POP POP PUSH1 0x1 DUP2 ADD SWAP1 POP PUSH2 0x162E JUMP JUMPDEST POP POP POP SWAP4 SWAP3 POP POP POP JUMP JUMPDEST PUSH1 0x0 PUSH2 0x1678 PUSH2 0x1673 DUP5 PUSH2 0x3836 JUMP JUMPDEST PUSH2 0x36FD JUMP JUMPDEST SWAP1 POP DUP1 DUP4 DUP3 MSTORE PUSH1 0x20 DUP3 ADD SWAP1 POP DUP3 PUSH1 0x0 JUMPDEST DUP6 DUP2 LT ISZERO PUSH2 0x16B8 JUMPI DUP2 CALLDATALOAD DUP6 ADD PUSH2 0x169E DUP9 DUP3 PUSH2 0x210F JUMP JUMPDEST DUP5 MSTORE PUSH1 0x20 DUP5 ADD SWAP4 POP PUSH1 0x20 DUP4 ADD SWAP3 POP POP PUSH1 0x1 DUP2 ADD SWAP1 POP PUSH2 0x1688 JUMP JUMPDEST POP POP POP SWAP4 SWAP3 POP POP POP JUMP JUMPDEST PUSH1 0x0 PUSH2 0x16D5 PUSH2 0x16D0 DUP5 PUSH2 0x3862 JUMP JUMPDEST PUSH2 0x36FD JUMP JUMPDEST SWAP1 POP DUP1 DUP4 DUP3 MSTORE PUSH1 0x20 DUP3 ADD SWAP1 POP DUP3 DUP6 PUSH1 0x20 DUP7 MUL DUP3 ADD GT ISZERO PUSH2 0x16F4 JUMPI PUSH1 0x0 DUP1 REVERT JUMPDEST PUSH1 0x0 JUMPDEST DUP6 DUP2 LT ISZERO PUSH2 0x1724 JUMPI DUP2 PUSH2 0x170A DUP9 DUP3 PUSH2 0x2188 JUMP JUMPDEST DUP5 MSTORE PUSH1 0x20 DUP5 ADD SWAP4 POP PUSH1 0x20 DUP4 ADD SWAP3 POP POP PUSH1 0x1 DUP2 ADD SWAP1 POP PUSH2 0x16F7 JUMP JUMPDEST POP POP POP SWAP4 SWAP3 POP POP POP JUMP JUMPDEST PUSH1 0x0 PUSH2 0x1741 PUSH2 0x173C DUP5 PUSH2 0x388E JUMP JUMPDEST PUSH2 0x36FD JUMP JUMPDEST SWAP1 POP DUP1 DUP4 DUP3 MSTORE PUSH1 0x20 DUP3 ADD SWAP1 POP DUP3 DUP6 PUSH1 0x20 DUP7 MUL DUP3 ADD GT ISZERO PUSH2 0x1760 JUMPI PUSH1 0x0 DUP1 REVERT JUMPDEST PUSH1 0x0 JUMPDEST DUP6 DUP2 LT ISZERO PUSH2 0x1790 JUMPI DUP2 PUSH2 0x1776 DUP9 DUP3 PUSH2 0x21B2 JUMP JUMPDEST DUP5 MSTORE PUSH1 0x20 DUP5 ADD SWAP4 POP PUSH1 0x20 DUP4 ADD SWAP3 POP POP PUSH1 0x1 DUP2 ADD SWAP1 POP PUSH2 0x1763 JUMP JUMPDEST POP POP POP SWAP4 SWAP3 POP POP POP JUMP JUMPDEST PUSH1 0x0 PUSH2 0x17AD PUSH2 0x17A8 DUP5 PUSH2 0x38BA JUMP JUMPDEST PUSH2 0x36FD JUMP JUMPDEST SWAP1 POP DUP1 DUP4 DUP3 MSTORE PUSH1 0x20 DUP3 ADD SWAP1 POP DUP3 DUP6 PUSH1 0x20 DUP7 MUL DUP3 ADD GT ISZERO PUSH2 0x17CC JUMPI PUSH1 0x0 DUP1 REVERT JUMPDEST PUSH1 0x0 JUMPDEST DUP6 DUP2 LT ISZERO PUSH2 0x17FC JUMPI DUP2 PUSH2 0x17E2 DUP9 DUP3 PUSH2 0x21C7 JUMP JUMPDEST DUP5 MSTORE PUSH1 0x20 DUP5 ADD SWAP4 POP PUSH1 0x20 DUP4 ADD SWAP3 POP POP PUSH1 0x1 DUP2 ADD SWAP1 POP PUSH2 0x17CF JUMP JUMPDEST POP POP POP SWAP4 SWAP3 POP POP POP JUMP JUMPDEST PUSH1 0x0 PUSH2 0x1819 PUSH2 0x1814 DUP5 PUSH2 0x38E6 JUMP JUMPDEST PUSH2 0x36FD JUMP JUMPDEST SWAP1 POP DUP3 DUP2 MSTORE PUSH1 0x20 DUP2 ADD DUP5 DUP5 DUP5 ADD GT ISZERO PUSH2 0x1831 JUMPI PUSH1 0x0 DUP1 REVERT JUMPDEST PUSH2 0x183C DUP5 DUP3 DUP6 PUSH2 0x3C13 JUMP JUMPDEST POP SWAP4 SWAP3 POP POP POP JUMP JUMPDEST PUSH1 0x0 PUSH2 0x1857 PUSH2 0x1852 DUP5 PUSH2 0x3916 JUMP JUMPDEST PUSH2 0x36FD JUMP JUMPDEST SWAP1 POP DUP3 DUP2 MSTORE PUSH1 0x20 DUP2 ADD DUP5 DUP5 DUP5 ADD GT ISZERO PUSH2 0x186F JUMPI PUSH1 0x0 DUP1 REVERT JUMPDEST PUSH2 0x187A DUP5 DUP3 DUP6 PUSH2 0x3C04 JUMP JUMPDEST POP SWAP4 SWAP3 POP POP POP JUMP JUMPDEST PUSH1 0x0 DUP2 CALLDATALOAD SWAP1 POP PUSH2 0x1891 DUP2 PUSH2 0x3CBD JUMP JUMPDEST SWAP3 SWAP2 POP POP JUMP JUMPDEST PUSH1 0x0 DUP3 PUSH1 0x1F DUP4 ADD SLT PUSH2 0x18A8 JUMPI PUSH1 0x0 DUP1 REVERT JUMPDEST DUP2 CALLDATALOAD PUSH2 0x18B8 DUP5 DUP3 PUSH1 0x20 DUP7 ADD PUSH2 0x13EC JUMP JUMPDEST SWAP2 POP POP SWAP3 SWAP2 POP POP JUMP JUMPDEST PUSH1 0x0 DUP3 PUSH1 0x1F DUP4 ADD SLT PUSH2 0x18D2 JUMPI PUSH1 0x0 DUP1 REVERT JUMPDEST DUP2 CALLDATALOAD PUSH2 0x18E2 DUP5 DUP3 PUSH1 0x20 DUP7 ADD PUSH2 0x1458 JUMP JUMPDEST SWAP2 POP POP SWAP3 SWAP2 POP POP JUMP JUMPDEST PUSH1 0x0 DUP3 PUSH1 0x1F DUP4 ADD SLT PUSH2 0x18FC JUMPI PUSH1 0x0 DUP1 REVERT JUMPDEST DUP2 CALLDATALOAD PUSH2 0x190C DUP5 DUP3 PUSH1 0x20 DUP7 ADD PUSH2 0x14C4 JUMP JUMPDEST SWAP2 POP POP SWAP3 SWAP2 POP POP JUMP JUMPDEST PUSH1 0x0 DUP3 PUSH1 0x1F DUP4 ADD SLT PUSH2 0x1926 JUMPI PUSH1 0x0 DUP1 REVERT JUMPDEST DUP2 CALLDATALOAD PUSH2 0x1936 DUP5 DUP3 PUSH1 0x20 DUP7 ADD PUSH2 0x1530 JUMP JUMPDEST SWAP2 POP POP SWAP3 SWAP2 POP POP JUMP JUMPDEST PUSH1 0x0 DUP3 PUSH1 0x1F DUP4 ADD SLT PUSH2 0x1950 JUMPI PUSH1 0x0 DUP1 REVERT JUMPDEST DUP2 CALLDATALOAD PUSH2 0x1960 DUP5 DUP3 PUSH1 0x20 DUP7 ADD PUSH2 0x159C JUMP JUMPDEST SWAP2 POP POP SWAP3 SWAP2 POP POP JUMP JUMPDEST PUSH1 0x0 DUP3 PUSH1 0x1F DUP4 ADD SLT PUSH2 0x197A JUMPI PUSH1 0x0 DUP1 REVERT JUMPDEST DUP2 CALLDATALOAD PUSH2 0x198A DUP5 DUP3 PUSH1 0x20 DUP7 ADD PUSH2 0x15F9 JUMP JUMPDEST SWAP2 POP POP SWAP3 SWAP2 POP POP JUMP JUMPDEST PUSH1 0x0 DUP3 PUSH1 0x1F DUP4 ADD SLT PUSH2 0x19A4 JUMPI PUSH1 0x0 DUP1 REVERT JUMPDEST DUP2 CALLDATALOAD PUSH2 0x19B4 DUP5 DUP3 PUSH1 0x20 DUP7 ADD PUSH2 0x1665 JUMP JUMPDEST SWAP2 POP POP SWAP3 SWAP2 POP POP JUMP JUMPDEST PUSH1 0x0 DUP3 PUSH1 0x1F DUP4 ADD SLT PUSH2 0x19CE JUMPI PUSH1 0x0 DUP1 REVERT JUMPDEST DUP2 CALLDATALOAD PUSH2 0x19DE DUP5 DUP3 PUSH1 0x20 DUP7 ADD PUSH2 0x16C2 JUMP JUMPDEST SWAP2 POP POP SWAP3 SWAP2 POP POP JUMP JUMPDEST PUSH1 0x0 DUP3 PUSH1 0x1F DUP4 ADD SLT PUSH2 0x19F8 JUMPI PUSH1 0x0 DUP1 REVERT JUMPDEST DUP2 CALLDATALOAD PUSH2 0x1A08 DUP5 DUP3 PUSH1 0x20 DUP7 ADD PUSH2 0x172E JUMP JUMPDEST SWAP2 POP POP SWAP3 SWAP2 POP POP JUMP JUMPDEST PUSH1 0x0 DUP3 PUSH1 0x1F DUP4 ADD SLT PUSH2 0x1A22 JUMPI PUSH1 0x0 DUP1 REVERT JUMPDEST DUP2 CALLDATALOAD PUSH2 0x1A32 DUP5 DUP3 PUSH1 0x20 DUP7 ADD PUSH2 0x179A JUMP JUMPDEST SWAP2 POP POP SWAP3 SWAP2 POP POP JUMP JUMPDEST PUSH1 0x0 DUP2 CALLDATALOAD SWAP1 POP PUSH2 0x1A4A DUP2 PUSH2 0x3CD4 JUMP JUMPDEST SWAP3 SWAP2 POP POP JUMP JUMPDEST PUSH1 0x0 DUP2 MLOAD SWAP1 POP PUSH2 0x1A5F DUP2 PUSH2 0x3CD4 JUMP JUMPDEST SWAP3 SWAP2 POP POP JUMP JUMPDEST PUSH1 0x0 DUP3 PUSH1 0x1F DUP4 ADD SLT PUSH2 0x1A76 JUMPI PUSH1 0x0 DUP1 REVERT JUMPDEST DUP2 MLOAD PUSH2 0x1A86 DUP5 DUP3 PUSH1 0x20 DUP7 ADD PUSH2 0x1806 JUMP JUMPDEST SWAP2 POP POP SWAP3 SWAP2 POP POP JUMP JUMPDEST PUSH1 0x0 DUP2 CALLDATALOAD SWAP1 POP PUSH2 0x1A9E DUP2 PUSH2 0x3CEB JUMP JUMPDEST SWAP3 SWAP2 POP POP JUMP JUMPDEST PUSH1 0x0 DUP2 CALLDATALOAD SWAP1 POP PUSH2 0x1AB3 DUP2 PUSH2 0x3D02 JUMP JUMPDEST SWAP3 SWAP2 POP POP JUMP JUMPDEST PUSH1 0x0 DUP2 CALLDATALOAD SWAP1 POP PUSH2 0x1AC8 DUP2 PUSH2 0x3D19 JUMP JUMPDEST SWAP3 SWAP2 POP POP JUMP JUMPDEST PUSH1 0x0 DUP3 PUSH1 0x1F DUP4 ADD SLT PUSH2 0x1ADF JUMPI PUSH1 0x0 DUP1 REVERT JUMPDEST DUP2 CALLDATALOAD PUSH2 0x1AEF DUP5 DUP3 PUSH1 0x20 DUP7 ADD PUSH2 0x1844 JUMP JUMPDEST SWAP2 POP POP SWAP3 SWAP2 POP POP JUMP JUMPDEST PUSH1 0x0 PUSH2 0x2A0 DUP3 DUP5 SUB SLT ISZERO PUSH2 0x1B0B JUMPI PUSH1 0x0 DUP1 REVERT JUMPDEST PUSH2 0x1B16 PUSH2 0x2A0 PUSH2 0x36FD JUMP JUMPDEST SWAP1 POP PUSH1 0x0 PUSH2 0x1B26 DUP5 DUP3 DUP6 ADD PUSH2 0x2173 JUMP JUMPDEST PUSH1 0x0 DUP4 ADD MSTORE POP PUSH1 0x20 PUSH2 0x1B3A DUP5 DUP3 DUP6 ADD PUSH2 0x2173 JUMP JUMPDEST PUSH1 0x20 DUP4 ADD MSTORE POP PUSH1 0x40 PUSH2 0x1B4E DUP5 DUP3 DUP6 ADD PUSH2 0x1882 JUMP JUMPDEST PUSH1 0x40 DUP4 ADD MSTORE POP PUSH1 0x60 DUP3 ADD CALLDATALOAD PUSH8 0xFFFFFFFFFFFFFFFF DUP2 GT ISZERO PUSH2 0x1B6E JUMPI PUSH1 0x0 DUP1 REVERT JUMPDEST PUSH2 0x1B7A DUP5 DUP3 DUP6 ADD PUSH2 0x19BD JUMP JUMPDEST PUSH1 0x60 DUP4 ADD MSTORE POP PUSH1 0x80 DUP3 ADD CALLDATALOAD PUSH8 0xFFFFFFFFFFFFFFFF DUP2 GT ISZERO PUSH2 0x1B9A JUMPI PUSH1 0x0 DUP1 REVERT JUMPDEST PUSH2 0x1BA6 DUP5 DUP3 DUP6 ADD PUSH2 0x18EB JUMP JUMPDEST PUSH1 0x80 DUP4 ADD MSTORE POP PUSH1 0xA0 DUP3 ADD CALLDATALOAD PUSH8 0xFFFFFFFFFFFFFFFF DUP2 GT ISZERO PUSH2 0x1BC6 JUMPI PUSH1 0x0 DUP1 REVERT JUMPDEST PUSH2 0x1BD2 DUP5 DUP3 DUP6 ADD PUSH2 0x1915 JUMP JUMPDEST PUSH1 0xA0 DUP4 ADD MSTORE POP PUSH1 0xC0 PUSH2 0x1BE6 DUP5 DUP3 DUP6 ADD PUSH2 0x1AB9 JUMP JUMPDEST PUSH1 0xC0 DUP4 ADD MSTORE POP PUSH1 0xE0 PUSH2 0x1BFA DUP5 DUP3 DUP6 ADD PUSH2 0x1AB9 JUMP JUMPDEST PUSH1 0xE0 DUP4 ADD MSTORE POP PUSH2 0x100 PUSH2 0x1C0F DUP5 DUP3 DUP6 ADD PUSH2 0x1AB9 JUMP JUMPDEST PUSH2 0x100 DUP4 ADD MSTORE POP PUSH2 0x120 PUSH2 0x1C25 DUP5 DUP3 DUP6 ADD PUSH2 0x1AB9 JUMP JUMPDEST PUSH2 0x120 DUP4 ADD MSTORE POP PUSH2 0x140 PUSH2 0x1C3B DUP5 DUP3 DUP6 ADD PUSH2 0x1AB9 JUMP JUMPDEST PUSH2 0x140 DUP4 ADD MSTORE POP PUSH2 0x160 PUSH2 0x1C51 DUP5 DUP3 DUP6 ADD PUSH2 0x1AB9 JUMP JUMPDEST PUSH2 0x160 DUP4 ADD MSTORE POP PUSH2 0x180 PUSH2 0x1C67 DUP5 DUP3 DUP6 ADD PUSH2 0x1AB9 JUMP JUMPDEST PUSH2 0x180 DUP4 ADD MSTORE POP PUSH2 0x1A0 DUP3 ADD CALLDATALOAD PUSH8 0xFFFFFFFFFFFFFFFF DUP2 GT ISZERO PUSH2 0x1C89 JUMPI PUSH1 0x0 DUP1 REVERT JUMPDEST PUSH2 0x1C95 DUP5 DUP3 DUP6 ADD PUSH2 0x1915 JUMP JUMPDEST PUSH2 0x1A0 DUP4 ADD MSTORE POP PUSH2 0x1C0 DUP3 ADD CALLDATALOAD PUSH8 0xFFFFFFFFFFFFFFFF DUP2 GT ISZERO PUSH2 0x1CB7 JUMPI PUSH1 0x0 DUP1 REVERT JUMPDEST PUSH2 0x1CC3 DUP5 DUP3 DUP6 ADD PUSH2 0x1915 JUMP JUMPDEST PUSH2 0x1C0 DUP4 ADD MSTORE POP PUSH2 0x1E0 DUP3 ADD CALLDATALOAD PUSH8 0xFFFFFFFFFFFFFFFF DUP2 GT ISZERO PUSH2 0x1CE5 JUMPI PUSH1 0x0 DUP1 REVERT JUMPDEST PUSH2 0x1CF1 DUP5 DUP3 DUP6 ADD PUSH2 0x1915 JUMP JUMPDEST PUSH2 0x1E0 DUP4 ADD MSTORE POP PUSH2 0x200 DUP3 ADD CALLDATALOAD PUSH8 0xFFFFFFFFFFFFFFFF DUP2 GT ISZERO PUSH2 0x1D13 JUMPI PUSH1 0x0 DUP1 REVERT JUMPDEST PUSH2 0x1D1F DUP5 DUP3 DUP6 ADD PUSH2 0x1915 JUMP JUMPDEST PUSH2 0x200 DUP4 ADD MSTORE POP PUSH2 0x220 DUP3 ADD CALLDATALOAD PUSH8 0xFFFFFFFFFFFFFFFF DUP2 GT ISZERO PUSH2 0x1D41 JUMPI PUSH1 0x0 DUP1 REVERT JUMPDEST PUSH2 0x1D4D DUP5 DUP3 DUP6 ADD PUSH2 0x1915 JUMP JUMPDEST PUSH2 0x220 DUP4 ADD MSTORE POP PUSH2 0x240 DUP3 ADD CALLDATALOAD PUSH8 0xFFFFFFFFFFFFFFFF DUP2 GT ISZERO PUSH2 0x1D6F JUMPI PUSH1 0x0 DUP1 REVERT JUMPDEST PUSH2 0x1D7B DUP5 DUP3 DUP6 ADD PUSH2 0x1915 JUMP JUMPDEST PUSH2 0x240 DUP4 ADD MSTORE POP PUSH2 0x260 DUP3 ADD CALLDATALOAD PUSH8 0xFFFFFFFFFFFFFFFF DUP2 GT ISZERO PUSH2 0x1D9D JUMPI PUSH1 0x0 DUP1 REVERT JUMPDEST PUSH2 0x1DA9 DUP5 DUP3 DUP6 ADD PUSH2 0x18EB JUMP JUMPDEST PUSH2 0x260 DUP4 ADD MSTORE POP PUSH2 0x280 DUP3 ADD CALLDATALOAD PUSH8 0xFFFFFFFFFFFFFFFF DUP2 GT ISZERO PUSH2 0x1DCB JUMPI PUSH1 0x0 DUP1 REVERT JUMPDEST PUSH2 0x1DD7 DUP5 DUP3 DUP6 ADD PUSH2 0x1915 JUMP JUMPDEST PUSH2 0x280 DUP4 ADD MSTORE POP SWAP3 SWAP2 POP POP JUMP JUMPDEST PUSH1 0x0 PUSH1 0x40 DUP3 DUP5 SUB SLT ISZERO PUSH2 0x1DF6 JUMPI PUSH1 0x0 DUP1 REVERT JUMPDEST PUSH2 0x1E00 PUSH1 0x40 PUSH2 0x36FD JUMP JUMPDEST SWAP1 POP PUSH1 0x0 DUP3 ADD CALLDATALOAD PUSH8 0xFFFFFFFFFFFFFFFF DUP2 GT ISZERO PUSH2 0x1E1C JUMPI PUSH1 0x0 DUP1 REVERT JUMPDEST PUSH2 0x1E28 DUP5 DUP3 DUP6 ADD PUSH2 0x1ACE JUMP JUMPDEST PUSH1 0x0 DUP4 ADD MSTORE POP PUSH1 0x20 PUSH2 0x1E3C DUP5 DUP3 DUP6 ADD PUSH2 0x1882 JUMP JUMPDEST PUSH1 0x20 DUP4 ADD MSTORE POP SWAP3 SWAP2 POP POP JUMP JUMPDEST PUSH1 0x0 PUSH2 0x1C0 DUP3 DUP5 SUB SLT ISZERO PUSH2 0x1E5B JUMPI PUSH1 0x0 DUP1 REVERT JUMPDEST PUSH2 0x1E66 PUSH2 0x180 PUSH2 0x36FD JUMP JUMPDEST SWAP1 POP PUSH1 0x0 PUSH2 0x1E76 DUP5 DUP3 DUP6 ADD PUSH2 0x21B2 JUMP JUMPDEST PUSH1 0x0 DUP4 ADD MSTORE POP PUSH1 0x20 PUSH2 0x1E8A DUP5 DUP3 DUP6 ADD PUSH2 0x21B2 JUMP JUMPDEST PUSH1 0x20 DUP4 ADD MSTORE POP PUSH1 0x40 PUSH2 0x1E9E DUP5 DUP3 DUP6 ADD PUSH2 0x2077 JUMP JUMPDEST PUSH1 0x40 DUP4 ADD MSTORE POP PUSH1 0x80 PUSH2 0x1EB2 DUP5 DUP3 DUP6 ADD PUSH2 0x1882 JUMP JUMPDEST PUSH1 0x60 DUP4 ADD MSTORE POP PUSH1 0xA0 DUP3 ADD CALLDATALOAD PUSH8 0xFFFFFFFFFFFFFFFF DUP2 GT ISZERO PUSH2 0x1ED2 JUMPI PUSH1 0x0 DUP1 REVERT JUMPDEST PUSH2 0x1EDE DUP5 DUP3 DUP6 ADD PUSH2 0x1AF8 JUMP JUMPDEST PUSH1 0x80 DUP4 ADD MSTORE POP PUSH1 0xC0 PUSH2 0x1EF2 DUP5 DUP3 DUP6 ADD PUSH2 0x21B2 JUMP JUMPDEST PUSH1 0xA0 DUP4 ADD MSTORE POP PUSH1 0xE0 PUSH2 0x1F06 DUP5 DUP3 DUP6 ADD PUSH2 0x20C3 JUMP JUMPDEST PUSH1 0xC0 DUP4 ADD MSTORE POP PUSH2 0x120 PUSH2 0x1F1B DUP5 DUP3 DUP6 ADD PUSH2 0x1A3B JUMP JUMPDEST PUSH1 0xE0 DUP4 ADD MSTORE POP PUSH2 0x140 PUSH2 0x1F30 DUP5 DUP3 DUP6 ADD PUSH2 0x21B2 JUMP JUMPDEST PUSH2 0x100 DUP4 ADD MSTORE POP PUSH2 0x160 DUP3 ADD CALLDATALOAD PUSH8 0xFFFFFFFFFFFFFFFF DUP2 GT ISZERO PUSH2 0x1F52 JUMPI PUSH1 0x0 DUP1 REVERT JUMPDEST PUSH2 0x1F5E DUP5 DUP3 DUP6 ADD PUSH2 0x1993 JUMP JUMPDEST PUSH2 0x120 DUP4 ADD MSTORE POP PUSH2 0x180 DUP3 ADD CALLDATALOAD PUSH8 0xFFFFFFFFFFFFFFFF DUP2 GT ISZERO PUSH2 0x1F80 JUMPI PUSH1 0x0 DUP1 REVERT JUMPDEST PUSH2 0x1F8C DUP5 DUP3 DUP6 ADD PUSH2 0x1969 JUMP JUMPDEST PUSH2 0x140 DUP4 ADD MSTORE POP PUSH2 0x1A0 DUP3 ADD CALLDATALOAD PUSH8 0xFFFFFFFFFFFFFFFF DUP2 GT ISZERO PUSH2 0x1FAE JUMPI PUSH1 0x0 DUP1 REVERT JUMPDEST PUSH2 0x1FBA DUP5 DUP3 DUP6 ADD PUSH2 0x193F JUMP JUMPDEST PUSH2 0x160 DUP4 ADD MSTORE POP SWAP3 SWAP2 POP POP JUMP JUMPDEST PUSH1 0x0 PUSH1 0xE0 DUP3 DUP5 SUB SLT ISZERO PUSH2 0x1FD9 JUMPI PUSH1 0x0 DUP1 REVERT JUMPDEST PUSH2 0x1FE3 PUSH1 0xE0 PUSH2 0x36FD JUMP JUMPDEST SWAP1 POP PUSH1 0x0 PUSH2 0x1FF3 DUP5 DUP3 DUP6 ADD PUSH2 0x1A8F JUMP JUMPDEST PUSH1 0x0 DUP4 ADD MSTORE POP PUSH1 0x20 PUSH2 0x2007 DUP5 DUP3 DUP6 ADD PUSH2 0x1A8F JUMP JUMPDEST PUSH1 0x20 DUP4 ADD MSTORE POP PUSH1 0x40 PUSH2 0x201B DUP5 DUP3 DUP6 ADD PUSH2 0x1882 JUMP JUMPDEST PUSH1 0x40 DUP4 ADD MSTORE POP PUSH1 0x60 PUSH2 0x202F DUP5 DUP3 DUP6 ADD PUSH2 0x21B2 JUMP JUMPDEST PUSH1 0x60 DUP4 ADD MSTORE POP PUSH1 0x80 PUSH2 0x2043 DUP5 DUP3 DUP6 ADD PUSH2 0x1A3B JUMP JUMPDEST PUSH1 0x80 DUP4 ADD MSTORE POP PUSH1 0xA0 PUSH2 0x2057 DUP5 DUP3 DUP6 ADD PUSH2 0x1A3B JUMP JUMPDEST PUSH1 0xA0 DUP4 ADD MSTORE POP PUSH1 0xC0 PUSH2 0x206B DUP5 DUP3 DUP6 ADD PUSH2 0x1A3B JUMP JUMPDEST PUSH1 0xC0 DUP4 ADD MSTORE POP SWAP3 SWAP2 POP POP JUMP JUMPDEST PUSH1 0x0 PUSH1 0x40 DUP3 DUP5 SUB SLT ISZERO PUSH2 0x2089 JUMPI PUSH1 0x0 DUP1 REVERT JUMPDEST PUSH2 0x2093 PUSH1 0x40 PUSH2 0x36FD JUMP JUMPDEST SWAP1 POP PUSH1 0x0 PUSH2 0x20A3 DUP5 DUP3 DUP6 ADD PUSH2 0x21C7 JUMP JUMPDEST PUSH1 0x0 DUP4 ADD MSTORE POP PUSH1 0x20 PUSH2 0x20B7 DUP5 DUP3 DUP6 ADD PUSH2 0x1882 JUMP JUMPDEST PUSH1 0x20 DUP4 ADD MSTORE POP SWAP3 SWAP2 POP POP JUMP JUMPDEST PUSH1 0x0 PUSH1 0x40 DUP3 DUP5 SUB SLT ISZERO PUSH2 0x20D5 JUMPI PUSH1 0x0 DUP1 REVERT JUMPDEST PUSH2 0x20DF PUSH1 0x40 PUSH2 0x36FD JUMP JUMPDEST SWAP1 POP PUSH1 0x0 PUSH2 0x20EF DUP5 DUP3 DUP6 ADD PUSH2 0x1A3B JUMP JUMPDEST PUSH1 0x0 DUP4 ADD MSTORE POP PUSH1 0x20 PUSH2 0x2103 DUP5 DUP3 DUP6 ADD PUSH2 0x21B2 JUMP JUMPDEST PUSH1 0x20 DUP4 ADD MSTORE POP SWAP3 SWAP2 POP POP JUMP JUMPDEST PUSH1 0x0 PUSH1 0x40 DUP3 DUP5 SUB SLT ISZERO PUSH2 0x2121 JUMPI PUSH1 0x0 DUP1 REVERT JUMPDEST PUSH2 0x212B PUSH1 0x40 PUSH2 0x36FD JUMP JUMPDEST SWAP1 POP PUSH1 0x0 PUSH2 0x213B DUP5 DUP3 DUP6 ADD PUSH2 0x1882 JUMP JUMPDEST PUSH1 0x0 DUP4 ADD MSTORE POP PUSH1 0x20 DUP3 ADD CALLDATALOAD PUSH8 0xFFFFFFFFFFFFFFFF DUP2 GT ISZERO PUSH2 0x215B JUMPI PUSH1 0x0 DUP1 REVERT JUMPDEST PUSH2 0x2167 DUP5 DUP3 DUP6 ADD PUSH2 0x1AF8 JUMP JUMPDEST PUSH1 0x20 DUP4 ADD MSTORE POP SWAP3 SWAP2 POP POP JUMP JUMPDEST PUSH1 0x0 DUP2 CALLDATALOAD SWAP1 POP PUSH2 0x2182 DUP2 PUSH2 0x3D30 JUMP JUMPDEST SWAP3 SWAP2 POP POP JUMP JUMPDEST PUSH1 0x0 DUP2 CALLDATALOAD SWAP1 POP PUSH2 0x2197 DUP2 PUSH2 0x3D47 JUMP JUMPDEST SWAP3 SWAP2 POP POP JUMP JUMPDEST PUSH1 0x0 DUP2 CALLDATALOAD SWAP1 POP PUSH2 0x21AC DUP2 PUSH2 0x3D5E JUMP JUMPDEST SWAP3 SWAP2 POP POP JUMP JUMPDEST PUSH1 0x0 DUP2 CALLDATALOAD SWAP1 POP PUSH2 0x21C1 DUP2 PUSH2 0x3D75 JUMP JUMPDEST SWAP3 SWAP2 POP POP JUMP JUMPDEST PUSH1 0x0 DUP2 CALLDATALOAD SWAP1 POP PUSH2 0x21D6 DUP2 PUSH2 0x3D8C JUMP JUMPDEST SWAP3 SWAP2 POP POP JUMP JUMPDEST PUSH1 0x0 PUSH1 0x20 DUP3 DUP5 SUB SLT ISZERO PUSH2 0x21EE JUMPI PUSH1 0x0 DUP1 REVERT JUMPDEST PUSH1 0x0 PUSH2 0x21FC DUP5 DUP3 DUP6 ADD PUSH2 0x1882 JUMP JUMPDEST SWAP2 POP POP SWAP3 SWAP2 POP POP JUMP JUMPDEST PUSH1 0x0 DUP1 PUSH1 0x0 DUP1 PUSH1 0x0 PUSH1 0xA0 DUP7 DUP9 SUB SLT ISZERO PUSH2 0x221D JUMPI PUSH1 0x0 DUP1 REVERT JUMPDEST PUSH1 0x0 PUSH2 0x222B DUP9 DUP3 DUP10 ADD PUSH2 0x1882 JUMP JUMPDEST SWAP6 POP POP PUSH1 0x20 PUSH2 0x223C DUP9 DUP3 DUP10 ADD PUSH2 0x1A3B JUMP JUMPDEST SWAP5 POP POP PUSH1 0x40 DUP7 ADD CALLDATALOAD PUSH8 0xFFFFFFFFFFFFFFFF DUP2 GT ISZERO PUSH2 0x2259 JUMPI PUSH1 0x0 DUP1 REVERT JUMPDEST PUSH2 0x2265 DUP9 DUP3 DUP10 ADD PUSH2 0x1A11 JUMP JUMPDEST SWAP4 POP POP PUSH1 0x60 DUP7 ADD CALLDATALOAD PUSH8 0xFFFFFFFFFFFFFFFF DUP2 GT ISZERO PUSH2 0x2282 JUMPI PUSH1 0x0 DUP1 REVERT JUMPDEST PUSH2 0x228E DUP9 DUP3 DUP10 ADD PUSH2 0x18C1 JUMP JUMPDEST SWAP3 POP POP PUSH1 0x80 DUP7 ADD CALLDATALOAD PUSH8 0xFFFFFFFFFFFFFFFF DUP2 GT ISZERO PUSH2 0x22AB JUMPI PUSH1 0x0 DUP1 REVERT JUMPDEST PUSH2 0x22B7 DUP9 DUP3 DUP10 ADD PUSH2 0x18C1 JUMP JUMPDEST SWAP2 POP POP SWAP3 SWAP6 POP SWAP3 SWAP6 SWAP1 SWAP4 POP JUMP JUMPDEST PUSH1 0x0 PUSH1 0x20 DUP3 DUP5 SUB SLT ISZERO PUSH2 0x22D6 JUMPI PUSH1 0x0 DUP1 REVERT JUMPDEST PUSH1 0x0 PUSH2 0x22E4 DUP5 DUP3 DUP6 ADD PUSH2 0x1A50 JUMP JUMPDEST SWAP2 POP POP SWAP3 SWAP2 POP POP JUMP JUMPDEST PUSH1 0x0 DUP1 PUSH1 0x0 DUP1 PUSH1 0x80 DUP6 DUP8 SUB SLT ISZERO PUSH2 0x2303 JUMPI PUSH1 0x0 DUP1 REVERT JUMPDEST PUSH1 0x0 PUSH2 0x2311 DUP8 DUP3 DUP9 ADD PUSH2 0x1A3B JUMP JUMPDEST SWAP5 POP POP PUSH1 0x20 DUP6 ADD CALLDATALOAD PUSH8 0xFFFFFFFFFFFFFFFF DUP2 GT ISZERO PUSH2 0x232E JUMPI PUSH1 0x0 DUP1 REVERT JUMPDEST PUSH2 0x233A DUP8 DUP3 DUP9 ADD PUSH2 0x18C1 JUMP JUMPDEST SWAP4 POP POP PUSH1 0x40 DUP6 ADD CALLDATALOAD PUSH8 0xFFFFFFFFFFFFFFFF DUP2 GT ISZERO PUSH2 0x2357 JUMPI PUSH1 0x0 DUP1 REVERT JUMPDEST PUSH2 0x2363 DUP8 DUP3 DUP9 ADD PUSH2 0x18C1 JUMP JUMPDEST SWAP3 POP POP PUSH1 0x60 DUP6 ADD CALLDATALOAD PUSH8 0xFFFFFFFFFFFFFFFF DUP2 GT ISZERO PUSH2 0x2380 JUMPI PUSH1 0x0 DUP1 REVERT JUMPDEST PUSH2 0x238C DUP8 DUP3 DUP9 ADD PUSH2 0x1A11 JUMP JUMPDEST SWAP2 POP POP SWAP3 SWAP6 SWAP2 SWAP5 POP SWAP3 POP JUMP JUMPDEST PUSH1 0x0 PUSH1 0x20 DUP3 DUP5 SUB SLT ISZERO PUSH2 0x23AA JUMPI PUSH1 0x0 DUP1 REVERT JUMPDEST PUSH1 0x0 DUP3 ADD MLOAD PUSH8 0xFFFFFFFFFFFFFFFF DUP2 GT ISZERO PUSH2 0x23C4 JUMPI PUSH1 0x0 DUP1 REVERT JUMPDEST PUSH2 0x23D0 DUP5 DUP3 DUP6 ADD PUSH2 0x1A65 JUMP JUMPDEST SWAP2 POP POP SWAP3 SWAP2 POP POP JUMP JUMPDEST PUSH1 0x0 DUP1 PUSH1 0x0 DUP1 PUSH1 0x0 DUP1 PUSH1 0xC0 DUP8 DUP10 SUB SLT ISZERO PUSH2 0x23F2 JUMPI PUSH1 0x0 DUP1 REVERT JUMPDEST PUSH1 0x0 DUP8 ADD CALLDATALOAD PUSH8 0xFFFFFFFFFFFFFFFF DUP2 GT ISZERO PUSH2 0x240C JUMPI PUSH1 0x0 DUP1 REVERT JUMPDEST PUSH2 0x2418 DUP10 DUP3 DUP11 ADD PUSH2 0x1E48 JUMP JUMPDEST SWAP7 POP POP PUSH1 0x20 DUP8 ADD CALLDATALOAD PUSH8 0xFFFFFFFFFFFFFFFF DUP2 GT ISZERO PUSH2 0x2435 JUMPI PUSH1 0x0 DUP1 REVERT JUMPDEST PUSH2 0x2441 DUP10 DUP3 DUP11 ADD PUSH2 0x1A11 JUMP JUMPDEST SWAP6 POP POP PUSH1 0x40 DUP8 ADD CALLDATALOAD PUSH8 0xFFFFFFFFFFFFFFFF DUP2 GT ISZERO PUSH2 0x245E JUMPI PUSH1 0x0 DUP1 REVERT JUMPDEST PUSH2 0x246A DUP10 DUP3 DUP11 ADD PUSH2 0x18C1 JUMP JUMPDEST SWAP5 POP POP PUSH1 0x60 DUP8 ADD CALLDATALOAD PUSH8 0xFFFFFFFFFFFFFFFF DUP2 GT ISZERO PUSH2 0x2487 JUMPI PUSH1 0x0 DUP1 REVERT JUMPDEST PUSH2 0x2493 DUP10 DUP3 DUP11 ADD PUSH2 0x18C1 JUMP JUMPDEST SWAP4 POP POP PUSH1 0x80 DUP8 ADD CALLDATALOAD PUSH8 0xFFFFFFFFFFFFFFFF DUP2 GT ISZERO PUSH2 0x24B0 JUMPI PUSH1 0x0 DUP1 REVERT JUMPDEST PUSH2 0x24BC DUP10 DUP3 DUP11 ADD PUSH2 0x19E7 JUMP JUMPDEST SWAP3 POP POP PUSH1 0xA0 DUP8 ADD CALLDATALOAD PUSH8 0xFFFFFFFFFFFFFFFF DUP2 GT ISZERO PUSH2 0x24D9 JUMPI PUSH1 0x0 DUP1 REVERT JUMPDEST PUSH2 0x24E5 DUP10 DUP3 DUP11 ADD PUSH2 0x1897 JUMP JUMPDEST SWAP2 POP POP SWAP3 SWAP6 POP SWAP3 SWAP6 POP SWAP3 SWAP6 JUMP JUMPDEST PUSH1 0x0 PUSH1 0x20 DUP3 DUP5 SUB SLT ISZERO PUSH2 0x2504 JUMPI PUSH1 0x0 DUP1 REVERT JUMPDEST PUSH1 0x0 PUSH2 0x2512 DUP5 DUP3 DUP6 ADD PUSH2 0x219D JUMP JUMPDEST SWAP2 POP POP SWAP3 SWAP2 POP POP JUMP JUMPDEST PUSH1 0x0 PUSH1 0x20 DUP3 DUP5 SUB SLT ISZERO PUSH2 0x252D JUMPI PUSH1 0x0 DUP1 REVERT JUMPDEST PUSH1 0x0 PUSH2 0x253B DUP5 DUP3 DUP6 ADD PUSH2 0x21B2 JUMP JUMPDEST SWAP2 POP POP SWAP3 SWAP2 POP POP JUMP JUMPDEST PUSH1 0x0 PUSH2 0x2550 DUP4 DUP4 PUSH2 0x25E4 JUMP JUMPDEST PUSH1 0x20 DUP4 ADD SWAP1 POP SWAP3 SWAP2 POP POP JUMP JUMPDEST PUSH1 0x0 PUSH2 0x2568 DUP4 DUP4 PUSH2 0x29BC JUMP JUMPDEST PUSH1 0x20 DUP4 ADD SWAP1 POP SWAP3 SWAP2 POP POP JUMP JUMPDEST PUSH1 0x0 PUSH2 0x2580 DUP4 DUP4 PUSH2 0x29CB JUMP JUMPDEST PUSH1 0x20 DUP4 ADD SWAP1 POP SWAP3 SWAP2 POP POP JUMP JUMPDEST PUSH1 0x0 PUSH2 0x2598 DUP4 DUP4 PUSH2 0x2F82 JUMP JUMPDEST SWAP1 POP SWAP3 SWAP2 POP POP JUMP JUMPDEST PUSH1 0x0 PUSH2 0x25AC DUP4 DUP4 PUSH2 0x30D9 JUMP JUMPDEST PUSH1 0xE0 DUP4 ADD SWAP1 POP SWAP3 SWAP2 POP POP JUMP JUMPDEST PUSH1 0x0 PUSH2 0x25C4 DUP4 DUP4 PUSH2 0x3253 JUMP JUMPDEST SWAP1 POP SWAP3 SWAP2 POP POP JUMP JUMPDEST PUSH1 0x0 PUSH2 0x25D8 DUP4 DUP4 PUSH2 0x3290 JUMP JUMPDEST PUSH1 0x20 DUP4 ADD SWAP1 POP SWAP3 SWAP2 POP POP JUMP JUMPDEST PUSH2 0x25ED DUP2 PUSH2 0x3B34 JUMP JUMPDEST DUP3 MSTORE POP POP JUMP JUMPDEST PUSH2 0x25FC DUP2 PUSH2 0x3B34 JUMP JUMPDEST DUP3 MSTORE POP POP JUMP JUMPDEST PUSH2 0x2613 PUSH2 0x260E DUP3 PUSH2 0x3B34 JUMP JUMPDEST PUSH2 0x3C46 JUMP JUMPDEST DUP3 MSTORE POP POP JUMP JUMPDEST PUSH1 0x0 PUSH2 0x2624 DUP3 PUSH2 0x39B6 JUMP JUMPDEST PUSH2 0x262E DUP2 DUP6 PUSH2 0x3A74 JUMP JUMPDEST SWAP4 POP PUSH2 0x2639 DUP4 PUSH2 0x3946 JUMP JUMPDEST DUP1 PUSH1 0x0 JUMPDEST DUP4 DUP2 LT ISZERO PUSH2 0x266A JUMPI DUP2 MLOAD PUSH2 0x2651 DUP9 DUP3 PUSH2 0x2544 JUMP JUMPDEST SWAP8 POP PUSH2 0x265C DUP4 PUSH2 0x3A19 JUMP JUMPDEST SWAP3 POP POP PUSH1 0x1 DUP2 ADD SWAP1 POP PUSH2 0x263D JUMP JUMPDEST POP DUP6 SWAP4 POP POP POP POP SWAP3 SWAP2 POP POP JUMP JUMPDEST PUSH1 0x0 PUSH2 0x2682 DUP3 PUSH2 0x39C1 JUMP JUMPDEST PUSH2 0x268C DUP2 DUP6 PUSH2 0x3A85 JUMP JUMPDEST SWAP4 POP PUSH2 0x2697 DUP4 PUSH2 0x3956 JUMP JUMPDEST DUP1 PUSH1 0x0 JUMPDEST DUP4 DUP2 LT ISZERO PUSH2 0x26C8 JUMPI DUP2 MLOAD PUSH2 0x26AF DUP9 DUP3 PUSH2 0x255C JUMP JUMPDEST SWAP8 POP PUSH2 0x26BA DUP4 PUSH2 0x3A26 JUMP JUMPDEST SWAP3 POP POP PUSH1 0x1 DUP2 ADD SWAP1 POP PUSH2 0x269B JUMP JUMPDEST POP DUP6 SWAP4 POP POP POP POP SWAP3 SWAP2 POP POP JUMP JUMPDEST PUSH1 0x0 PUSH2 0x26E0 DUP3 PUSH2 0x39CC JUMP JUMPDEST PUSH2 0x26EA DUP2 DUP6 PUSH2 0x3A96 JUMP JUMPDEST SWAP4 POP PUSH2 0x26F5 DUP4 PUSH2 0x3966 JUMP JUMPDEST DUP1 PUSH1 0x0 JUMPDEST DUP4 DUP2 LT ISZERO PUSH2 0x2726 JUMPI DUP2 MLOAD PUSH2 0x270D DUP9 DUP3 PUSH2 0x2574 JUMP JUMPDEST SWAP8 POP PUSH2 0x2718 DUP4 PUSH2 0x3A33 JUMP JUMPDEST SWAP3 POP POP PUSH1 0x1 DUP2 ADD SWAP1 POP PUSH2 0x26F9 JUMP JUMPDEST POP DUP6 SWAP4 POP POP POP POP SWAP3 SWAP2 POP POP JUMP JUMPDEST PUSH1 0x0 PUSH2 0x273E DUP3 PUSH2 0x39D7 JUMP JUMPDEST PUSH2 0x2748 DUP2 DUP6 PUSH2 0x3AA7 JUMP JUMPDEST SWAP4 POP DUP4 PUSH1 0x20 DUP3 MUL DUP6 ADD PUSH2 0x275A DUP6 PUSH2 0x3976 JUMP JUMPDEST DUP1 PUSH1 0x0 JUMPDEST DUP6 DUP2 LT ISZERO PUSH2 0x2796 JUMPI DUP5 DUP5 SUB DUP10 MSTORE DUP2 MLOAD PUSH2 0x2777 DUP6 DUP3 PUSH2 0x258C JUMP JUMPDEST SWAP5 POP PUSH2 0x2782 DUP4 PUSH2 0x3A40 JUMP JUMPDEST SWAP3 POP PUSH1 0x20 DUP11 ADD SWAP10 POP POP PUSH1 0x1 DUP2 ADD SWAP1 POP PUSH2 0x275E JUMP JUMPDEST POP DUP3 SWAP8 POP DUP8 SWAP6 POP POP POP POP POP POP SWAP3 SWAP2 POP POP JUMP JUMPDEST PUSH1 0x0 PUSH2 0x27B3 DUP3 PUSH2 0x39E2 JUMP JUMPDEST PUSH2 0x27BD DUP2 DUP6 PUSH2 0x3AB8 JUMP JUMPDEST SWAP4 POP PUSH2 0x27C8 DUP4 PUSH2 0x3986 JUMP JUMPDEST DUP1 PUSH1 0x0 JUMPDEST DUP4 DUP2 LT ISZERO PUSH2 0x27F9 JUMPI DUP2 MLOAD PUSH2 0x27E0 DUP9 DUP3 PUSH2 0x25A0 JUMP JUMPDEST SWAP8 POP PUSH2 0x27EB DUP4 PUSH2 0x3A4D JUMP JUMPDEST SWAP3 POP POP PUSH1 0x1 DUP2 ADD SWAP1 POP PUSH2 0x27CC JUMP JUMPDEST POP DUP6 SWAP4 POP POP POP POP SWAP3 SWAP2 POP POP JUMP JUMPDEST PUSH1 0x0 PUSH2 0x2811 DUP3 PUSH2 0x39ED JUMP JUMPDEST PUSH2 0x281B DUP2 DUP6 PUSH2 0x3AC9 JUMP JUMPDEST SWAP4 POP DUP4 PUSH1 0x20 DUP3 MUL DUP6 ADD PUSH2 0x282D DUP6 PUSH2 0x3996 JUMP JUMPDEST DUP1 PUSH1 0x0 JUMPDEST DUP6 DUP2 LT ISZERO PUSH2 0x2869 JUMPI DUP5 DUP5 SUB DUP10 MSTORE DUP2 MLOAD PUSH2 0x284A DUP6 DUP3 PUSH2 0x25B8 JUMP JUMPDEST SWAP5 POP PUSH2 0x2855 DUP4 PUSH2 0x3A5A JUMP JUMPDEST SWAP3 POP PUSH1 0x20 DUP11 ADD SWAP10 POP POP PUSH1 0x1 DUP2 ADD SWAP1 POP PUSH2 0x2831 JUMP JUMPDEST POP DUP3 SWAP8 POP DUP8 SWAP6 POP POP POP POP POP POP SWAP3 SWAP2 POP POP JUMP JUMPDEST PUSH1 0x0 PUSH2 0x2886 DUP3 PUSH2 0x39F8 JUMP JUMPDEST PUSH2 0x2890 DUP2 DUP6 PUSH2 0x3ADA JUMP JUMPDEST SWAP4 POP PUSH2 0x289B DUP4 PUSH2 0x39A6 JUMP JUMPDEST DUP1 PUSH1 0x0 JUMPDEST DUP4 DUP2 LT ISZERO PUSH2 0x28CC JUMPI DUP2 MLOAD PUSH2 0x28B3 DUP9 DUP3 PUSH2 0x25CC JUMP JUMPDEST SWAP8 POP PUSH2 0x28BE DUP4 PUSH2 0x3A67 JUMP JUMPDEST SWAP3 POP POP PUSH1 0x1 DUP2 ADD SWAP1 POP PUSH2 0x289F JUMP JUMPDEST POP DUP6 SWAP4 POP POP POP POP SWAP3 SWAP2 POP POP JUMP JUMPDEST PUSH2 0x28E2 DUP2 PUSH2 0x3B46 JUMP JUMPDEST DUP3 MSTORE POP POP JUMP JUMPDEST PUSH2 0x28F9 PUSH2 0x28F4 DUP3 PUSH2 0x3B52 JUMP JUMPDEST PUSH2 0x3C58 JUMP JUMPDEST DUP3 MSTORE POP POP JUMP JUMPDEST PUSH2 0x2908 DUP2 PUSH2 0x3B7E JUMP JUMPDEST DUP3 MSTORE POP POP JUMP JUMPDEST PUSH2 0x2917 DUP2 PUSH2 0x3B7E JUMP JUMPDEST DUP3 MSTORE POP POP JUMP JUMPDEST PUSH2 0x292E PUSH2 0x2929 DUP3 PUSH2 0x3B7E JUMP JUMPDEST PUSH2 0x3C62 JUMP JUMPDEST DUP3 MSTORE POP POP JUMP JUMPDEST PUSH1 0x0 PUSH2 0x293F DUP3 PUSH2 0x3A03 JUMP JUMPDEST PUSH2 0x2949 DUP2 DUP6 PUSH2 0x3AEB JUMP JUMPDEST SWAP4 POP PUSH2 0x2959 DUP2 DUP6 PUSH1 0x20 DUP7 ADD PUSH2 0x3C13 JUMP JUMPDEST PUSH2 0x2962 DUP2 PUSH2 0x3C92 JUMP JUMPDEST DUP5 ADD SWAP2 POP POP SWAP3 SWAP2 POP POP JUMP JUMPDEST PUSH1 0x0 PUSH2 0x2978 DUP3 PUSH2 0x3A03 JUMP JUMPDEST PUSH2 0x2982 DUP2 DUP6 PUSH2 0x3AFC JUMP JUMPDEST SWAP4 POP PUSH2 0x2992 DUP2 DUP6 PUSH1 0x20 DUP7 ADD PUSH2 0x3C13 JUMP JUMPDEST DUP1 DUP5 ADD SWAP2 POP POP SWAP3 SWAP2 POP POP JUMP JUMPDEST PUSH2 0x29A7 DUP2 PUSH2 0x3B88 JUMP JUMPDEST DUP3 MSTORE POP POP JUMP JUMPDEST PUSH2 0x29B6 DUP2 PUSH2 0x3B88 JUMP JUMPDEST DUP3 MSTORE POP POP JUMP JUMPDEST PUSH2 0x29C5 DUP2 PUSH2 0x3B95 JUMP JUMPDEST DUP3 MSTORE POP POP JUMP JUMPDEST PUSH2 0x29D4 DUP2 PUSH2 0x3BA2 JUMP JUMPDEST DUP3 MSTORE POP POP JUMP JUMPDEST PUSH1 0x0 PUSH2 0x29E5 DUP3 PUSH2 0x3A0E JUMP JUMPDEST PUSH2 0x29EF DUP2 DUP6 PUSH2 0x3B07 JUMP JUMPDEST SWAP4 POP PUSH2 0x29FF DUP2 DUP6 PUSH1 0x20 DUP7 ADD PUSH2 0x3C13 JUMP JUMPDEST PUSH2 0x2A08 DUP2 PUSH2 0x3C92 JUMP JUMPDEST DUP5 ADD SWAP2 POP POP SWAP3 SWAP2 POP POP JUMP JUMPDEST PUSH1 0x0 PUSH2 0x2A1E DUP3 PUSH2 0x3A0E JUMP JUMPDEST PUSH2 0x2A28 DUP2 DUP6 PUSH2 0x3B18 JUMP JUMPDEST SWAP4 POP PUSH2 0x2A38 DUP2 DUP6 PUSH1 0x20 DUP7 ADD PUSH2 0x3C13 JUMP JUMPDEST PUSH2 0x2A41 DUP2 PUSH2 0x3C92 JUMP JUMPDEST DUP5 ADD SWAP2 POP POP SWAP3 SWAP2 POP POP JUMP JUMPDEST PUSH1 0x0 PUSH2 0x2A57 DUP3 PUSH2 0x3A0E JUMP JUMPDEST PUSH2 0x2A61 DUP2 DUP6 PUSH2 0x3B29 JUMP JUMPDEST SWAP4 POP PUSH2 0x2A71 DUP2 DUP6 PUSH1 0x20 DUP7 ADD PUSH2 0x3C13 JUMP JUMPDEST DUP1 DUP5 ADD SWAP2 POP POP SWAP3 SWAP2 POP POP JUMP JUMPDEST PUSH1 0x0 PUSH2 0x2A8A PUSH1 0x10 DUP4 PUSH2 0x3B29 JUMP JUMPDEST SWAP2 POP PUSH32 0x20656E6F756768206E6F74617269657300000000000000000000000000000000 PUSH1 0x0 DUP4 ADD MSTORE PUSH1 0x10 DUP3 ADD SWAP1 POP SWAP2 SWAP1 POP JUMP JUMPDEST PUSH1 0x0 PUSH2 0x2ACA PUSH1 0x29 DUP4 PUSH2 0x3B18 JUMP JUMPDEST SWAP2 POP PUSH32 0x4F6E6C792061206E6F746172792063616E206465707265636174652074686973 PUSH1 0x0 DUP4 ADD MSTORE PUSH32 0x20636F6E74726163740000000000000000000000000000000000000000000000 PUSH1 0x20 DUP4 ADD MSTORE PUSH1 0x40 DUP3 ADD SWAP1 POP SWAP2 SWAP1 POP JUMP JUMPDEST PUSH1 0x0 PUSH2 0x2B30 PUSH1 0x1C DUP4 PUSH2 0x3B18 JUMP JUMPDEST SWAP2 POP PUSH32 0x436F6E747261637420686173206265656E206465707265636174656400000000 PUSH1 0x0 DUP4 ADD MSTORE PUSH1 0x20 DUP3 ADD SWAP1 POP SWAP2 SWAP1 POP JUMP JUMPDEST PUSH1 0x0 PUSH2 0x2B70 PUSH1 0x18 DUP4 PUSH2 0x3B29 JUMP JUMPDEST SWAP2 POP PUSH32 0x2073657474696E67206C617374426C6F636B4865696768740000000000000000 PUSH1 0x0 DUP4 ADD MSTORE PUSH1 0x18 DUP3 ADD SWAP1 POP SWAP2 SWAP1 POP JUMP JUMPDEST PUSH1 0x0 PUSH2 0x2BB0 PUSH1 0x30 DUP4 PUSH2 0x3B18 JUMP JUMPDEST SWAP2 POP PUSH32 0x4465707265636174696F6E207265717569726573207468652061646472657373 PUSH1 0x0 DUP4 ADD MSTORE PUSH32 0x20746F206265206E6F746172697A656400000000000000000000000000000000 PUSH1 0x20 DUP4 ADD MSTORE PUSH1 0x40 DUP3 ADD SWAP1 POP SWAP2 SWAP1 POP JUMP JUMPDEST PUSH1 0x0 PUSH2 0x2C16 PUSH1 0x28 DUP4 PUSH2 0x3B18 JUMP JUMPDEST SWAP2 POP PUSH32 0x5369676E617475726520617272617973206D757374206265206F662065717561 PUSH1 0x0 DUP4 ADD MSTORE PUSH32 0x6C206C656E677468000000000000000000000000000000000000000000000000 PUSH1 0x20 DUP4 ADD MSTORE PUSH1 0x40 DUP3 ADD SWAP1 POP SWAP2 SWAP1 POP JUMP JUMPDEST PUSH1 0x0 PUSH2 0x2C7C PUSH1 0x12 DUP4 PUSH2 0x3B29 JUMP JUMPDEST SWAP2 POP PUSH32 0x207369676E617475726520636F72726563740000000000000000000000000000 PUSH1 0x0 DUP4 ADD MSTORE PUSH1 0x12 DUP3 ADD SWAP1 POP SWAP2 SWAP1 POP JUMP JUMPDEST PUSH1 0x0 PUSH2 0x2CBC PUSH1 0x36 DUP4 PUSH2 0x3B18 JUMP JUMPDEST SWAP2 POP PUSH32 0x426C6F636B20486569676874206D757374206265206772656174657220746861 PUSH1 0x0 DUP4 ADD MSTORE PUSH32 0x6E2063757272656E7420626C6F636B2068656967687400000000000000000000 PUSH1 0x20 DUP4 ADD MSTORE PUSH1 0x40 DUP3 ADD SWAP1 POP SWAP2 SWAP1 POP JUMP JUMPDEST PUSH1 0x0 PUSH2 0x2D22 PUSH1 0x34 DUP4 PUSH2 0x3B18 JUMP JUMPDEST SWAP2 POP PUSH32 0x486173686564206164647265737320646F6573206E6F74206D61746368206164 PUSH1 0x0 DUP4 ADD MSTORE PUSH32 0x647265737320686173682070617373656420696E000000000000000000000000 PUSH1 0x20 DUP4 ADD MSTORE PUSH1 0x40 DUP3 ADD SWAP1 POP SWAP2 SWAP1 POP JUMP JUMPDEST PUSH1 0x0 PUSH2 0x2A0 DUP4 ADD PUSH1 0x0 DUP4 ADD MLOAD PUSH2 0x2D94 PUSH1 0x0 DUP7 ADD DUP3 PUSH2 0x329F JUMP JUMPDEST POP PUSH1 0x20 DUP4 ADD MLOAD PUSH2 0x2DA7 PUSH1 0x20 DUP7 ADD DUP3 PUSH2 0x329F JUMP JUMPDEST POP PUSH1 0x40 DUP4 ADD MLOAD PUSH2 0x2DBA PUSH1 0x40 DUP7 ADD DUP3 PUSH2 0x25E4 JUMP JUMPDEST POP PUSH1 0x60 DUP4 ADD MLOAD DUP5 DUP3 SUB PUSH1 0x60 DUP7 ADD MSTORE PUSH2 0x2DD2 DUP3 DUP3 PUSH2 0x287B JUMP JUMPDEST SWAP2 POP POP PUSH1 0x80 DUP4 ADD MLOAD DUP5 DUP3 SUB PUSH1 0x80 DUP7 ADD MSTORE PUSH2 0x2DEC DUP3 DUP3 PUSH2 0x2677 JUMP JUMPDEST SWAP2 POP POP PUSH1 0xA0 DUP4 ADD MLOAD DUP5 DUP3 SUB PUSH1 0xA0 DUP7 ADD MSTORE PUSH2 0x2E06 DUP3 DUP3 PUSH2 0x26D5 JUMP JUMPDEST SWAP2 POP POP PUSH1 0xC0 DUP4 ADD MLOAD PUSH2 0x2E1B PUSH1 0xC0 DUP7 ADD DUP3 PUSH2 0x29CB JUMP JUMPDEST POP PUSH1 0xE0 DUP4 ADD MLOAD PUSH2 0x2E2E PUSH1 0xE0 DUP7 ADD DUP3 PUSH2 0x29CB JUMP JUMPDEST POP PUSH2 0x100 DUP4 ADD MLOAD PUSH2 0x2E43 PUSH2 0x100 DUP7 ADD DUP3 PUSH2 0x29CB JUMP JUMPDEST POP PUSH2 0x120 DUP4 ADD MLOAD PUSH2 0x2E58 PUSH2 0x120 DUP7 ADD DUP3 PUSH2 0x29CB JUMP JUMPDEST POP PUSH2 0x140 DUP4 ADD MLOAD PUSH2 0x2E6D PUSH2 0x140 DUP7 ADD DUP3 PUSH2 0x29CB JUMP JUMPDEST POP PUSH2 0x160 DUP4 ADD MLOAD PUSH2 0x2E82 PUSH2 0x160 DUP7 ADD DUP3 PUSH2 0x29CB JUMP JUMPDEST POP PUSH2 0x180 DUP4 ADD MLOAD PUSH2 0x2E97 PUSH2 0x180 DUP7 ADD DUP3 PUSH2 0x29CB JUMP JUMPDEST POP PUSH2 0x1A0 DUP4 ADD MLOAD DUP5 DUP3 SUB PUSH2 0x1A0 DUP7 ADD MSTORE PUSH2 0x2EB1 DUP3 DUP3 PUSH2 0x26D5 JUMP JUMPDEST SWAP2 POP POP PUSH2 0x1C0 DUP4 ADD MLOAD DUP5 DUP3 SUB PUSH2 0x1C0 DUP7 ADD MSTORE PUSH2 0x2ECD DUP3 DUP3 PUSH2 0x26D5 JUMP JUMPDEST SWAP2 POP POP PUSH2 0x1E0 DUP4 ADD MLOAD DUP5 DUP3 SUB PUSH2 0x1E0 DUP7 ADD MSTORE PUSH2 0x2EE9 DUP3 DUP3 PUSH2 0x26D5 JUMP JUMPDEST SWAP2 POP POP PUSH2 0x200 DUP4 ADD MLOAD DUP5 DUP3 SUB PUSH2 0x200 DUP7 ADD MSTORE PUSH2 0x2F05 DUP3 DUP3 PUSH2 0x26D5 JUMP JUMPDEST SWAP2 POP POP PUSH2 0x220 DUP4 ADD MLOAD DUP5 DUP3 SUB PUSH2 0x220 DUP7 ADD MSTORE PUSH2 0x2F21 DUP3 DUP3 PUSH2 0x26D5 JUMP JUMPDEST SWAP2 POP POP PUSH2 0x240 DUP4 ADD MLOAD DUP5 DUP3 SUB PUSH2 0x240 DUP7 ADD MSTORE PUSH2 0x2F3D DUP3 DUP3 PUSH2 0x26D5 JUMP JUMPDEST SWAP2 POP POP PUSH2 0x260 DUP4 ADD MLOAD DUP5 DUP3 SUB PUSH2 0x260 DUP7 ADD MSTORE PUSH2 0x2F59 DUP3 DUP3 PUSH2 0x2677 JUMP JUMPDEST SWAP2 POP POP PUSH2 0x280 DUP4 ADD MLOAD DUP5 DUP3 SUB PUSH2 0x280 DUP7 ADD MSTORE PUSH2 0x2F75 DUP3 DUP3 PUSH2 0x26D5 JUMP JUMPDEST SWAP2 POP POP DUP1 SWAP2 POP POP SWAP3 SWAP2 POP POP JUMP JUMPDEST PUSH1 0x0 PUSH1 0x40 DUP4 ADD PUSH1 0x0 DUP4 ADD MLOAD DUP5 DUP3 SUB PUSH1 0x0 DUP7 ADD MSTORE PUSH2 0x2F9F DUP3 DUP3 PUSH2 0x29DA JUMP JUMPDEST SWAP2 POP POP PUSH1 0x20 DUP4 ADD MLOAD PUSH2 0x2FB4 PUSH1 0x20 DUP7 ADD DUP3 PUSH2 0x25E4 JUMP JUMPDEST POP DUP1 SWAP2 POP POP SWAP3 SWAP2 POP POP JUMP JUMPDEST PUSH1 0x0 PUSH2 0x1C0 DUP4 ADD PUSH1 0x0 DUP4 ADD MLOAD PUSH2 0x2FD8 PUSH1 0x0 DUP7 ADD DUP3 PUSH2 0x32BD JUMP JUMPDEST POP PUSH1 0x20 DUP4 ADD MLOAD PUSH2 0x2FEB PUSH1 0x20 DUP7 ADD DUP3 PUSH2 0x32BD JUMP JUMPDEST POP PUSH1 0x40 DUP4 ADD MLOAD PUSH2 0x2FFE PUSH1 0x40 DUP7 ADD DUP3 PUSH2 0x31F5 JUMP JUMPDEST POP PUSH1 0x60 DUP4 ADD MLOAD PUSH2 0x3011 PUSH1 0x80 DUP7 ADD DUP3 PUSH2 0x25E4 JUMP JUMPDEST POP PUSH1 0x80 DUP4 ADD MLOAD DUP5 DUP3 SUB PUSH1 0xA0 DUP7 ADD MSTORE PUSH2 0x3029 DUP3 DUP3 PUSH2 0x2D7B JUMP JUMPDEST SWAP2 POP POP PUSH1 0xA0 DUP4 ADD MLOAD PUSH2 0x303E PUSH1 0xC0 DUP7 ADD DUP3 PUSH2 0x32BD JUMP JUMPDEST POP PUSH1 0xC0 DUP4 ADD MLOAD PUSH2 0x3051 PUSH1 0xE0 DUP7 ADD DUP3 PUSH2 0x3224 JUMP JUMPDEST POP PUSH1 0xE0 DUP4 ADD MLOAD PUSH2 0x3065 PUSH2 0x120 DUP7 ADD DUP3 PUSH2 0x28FF JUMP JUMPDEST POP PUSH2 0x100 DUP4 ADD MLOAD PUSH2 0x307A PUSH2 0x140 DUP7 ADD DUP3 PUSH2 0x32BD JUMP JUMPDEST POP PUSH2 0x120 DUP4 ADD MLOAD DUP5 DUP3 SUB PUSH2 0x160 DUP7 ADD MSTORE PUSH2 0x3094 DUP3 DUP3 PUSH2 0x2806 JUMP JUMPDEST SWAP2 POP POP PUSH2 0x140 DUP4 ADD MLOAD DUP5 DUP3 SUB PUSH2 0x180 DUP7 ADD MSTORE PUSH2 0x30B0 DUP3 DUP3 PUSH2 0x27A8 JUMP JUMPDEST SWAP2 POP POP PUSH2 0x160 DUP4 ADD MLOAD DUP5 DUP3 SUB PUSH2 0x1A0 DUP7 ADD MSTORE PUSH2 0x30CC DUP3 DUP3 PUSH2 0x2733 JUMP JUMPDEST SWAP2 POP POP DUP1 SWAP2 POP POP SWAP3 SWAP2 POP POP JUMP JUMPDEST PUSH1 0xE0 DUP3 ADD PUSH1 0x0 DUP3 ADD MLOAD PUSH2 0x30EF PUSH1 0x0 DUP6 ADD DUP3 PUSH2 0x299E JUMP JUMPDEST POP PUSH1 0x20 DUP3 ADD MLOAD PUSH2 0x3102 PUSH1 0x20 DUP6 ADD DUP3 PUSH2 0x299E JUMP JUMPDEST POP PUSH1 0x40 DUP3 ADD MLOAD PUSH2 0x3115 PUSH1 0x40 DUP6 ADD DUP3 PUSH2 0x25E4 JUMP JUMPDEST POP PUSH1 0x60 DUP3 ADD MLOAD PUSH2 0x3128 PUSH1 0x60 DUP6 ADD DUP3 PUSH2 0x32BD JUMP JUMPDEST POP PUSH1 0x80 DUP3 ADD MLOAD PUSH2 0x313B PUSH1 0x80 DUP6 ADD DUP3 PUSH2 0x28FF JUMP JUMPDEST POP PUSH1 0xA0 DUP3 ADD MLOAD PUSH2 0x314E PUSH1 0xA0 DUP6 ADD DUP3 PUSH2 0x28FF JUMP JUMPDEST POP PUSH1 0xC0 DUP3 ADD MLOAD PUSH2 0x3161 PUSH1 0xC0 DUP6 ADD DUP3 PUSH2 0x28FF JUMP JUMPDEST POP POP POP POP JUMP JUMPDEST PUSH1 0xE0 DUP3 ADD PUSH1 0x0 DUP3 ADD MLOAD PUSH2 0x317D PUSH1 0x0 DUP6 ADD DUP3 PUSH2 0x299E JUMP JUMPDEST POP PUSH1 0x20 DUP3 ADD MLOAD PUSH2 0x3190 PUSH1 0x20 DUP6 ADD DUP3 PUSH2 0x299E JUMP JUMPDEST POP PUSH1 0x40 DUP3 ADD MLOAD PUSH2 0x31A3 PUSH1 0x40 DUP6 ADD DUP3 PUSH2 0x25E4 JUMP JUMPDEST POP PUSH1 0x60 DUP3 ADD MLOAD PUSH2 0x31B6 PUSH1 0x60 DUP6 ADD DUP3 PUSH2 0x32BD JUMP JUMPDEST POP PUSH1 0x80 DUP3 ADD MLOAD PUSH2 0x31C9 PUSH1 0x80 DUP6 ADD DUP3 PUSH2 0x28FF JUMP JUMPDEST POP PUSH1 0xA0 DUP3 ADD MLOAD PUSH2 0x31DC PUSH1 0xA0 DUP6 ADD DUP3 PUSH2 0x28FF JUMP JUMPDEST POP PUSH1 0xC0 DUP3 ADD MLOAD PUSH2 0x31EF PUSH1 0xC0 DUP6 ADD DUP3 PUSH2 0x28FF JUMP JUMPDEST POP POP POP POP JUMP JUMPDEST PUSH1 0x40 DUP3 ADD PUSH1 0x0 DUP3 ADD MLOAD PUSH2 0x320B PUSH1 0x0 DUP6 ADD DUP3 PUSH2 0x32DB JUMP JUMPDEST POP PUSH1 0x20 DUP3 ADD MLOAD PUSH2 0x321E PUSH1 0x20 DUP6 ADD DUP3 PUSH2 0x25E4 JUMP JUMPDEST POP POP POP POP JUMP JUMPDEST PUSH1 0x40 DUP3 ADD PUSH1 0x0 DUP3 ADD MLOAD PUSH2 0x323A PUSH1 0x0 DUP6 ADD DUP3 PUSH2 0x28FF JUMP JUMPDEST POP PUSH1 0x20 DUP3 ADD MLOAD PUSH2 0x324D PUSH1 0x20 DUP6 ADD DUP3 PUSH2 0x32BD JUMP JUMPDEST POP POP POP POP JUMP JUMPDEST PUSH1 0x0 PUSH1 0x40 DUP4 ADD PUSH1 0x0 DUP4 ADD MLOAD PUSH2 0x326B PUSH1 0x0 DUP7 ADD DUP3 PUSH2 0x25E4 JUMP JUMPDEST POP PUSH1 0x20 DUP4 ADD MLOAD DUP5 DUP3 SUB PUSH1 0x20 DUP7 ADD MSTORE PUSH2 0x3283 DUP3 DUP3 PUSH2 0x2D7B JUMP JUMPDEST SWAP2 POP POP DUP1 SWAP2 POP POP SWAP3 SWAP2 POP POP JUMP JUMPDEST PUSH2 0x3299 DUP2 PUSH2 0x3BBD JUMP JUMPDEST DUP3 MSTORE POP POP JUMP JUMPDEST PUSH2 0x32A8 DUP2 PUSH2 0x3BAF JUMP JUMPDEST DUP3 MSTORE POP POP JUMP JUMPDEST PUSH2 0x32B7 DUP2 PUSH2 0x3BDD JUMP JUMPDEST DUP3 MSTORE POP POP JUMP JUMPDEST PUSH2 0x32C6 DUP2 PUSH2 0x3BE7 JUMP JUMPDEST DUP3 MSTORE POP POP JUMP JUMPDEST PUSH2 0x32D5 DUP2 PUSH2 0x3BE7 JUMP JUMPDEST DUP3 MSTORE POP POP JUMP JUMPDEST PUSH2 0x32E4 DUP2 PUSH2 0x3BF7 JUMP JUMPDEST DUP3 MSTORE POP POP JUMP JUMPDEST PUSH2 0x32F3 DUP2 PUSH2 0x3BF7 JUMP JUMPDEST DUP3 MSTORE POP POP JUMP JUMPDEST PUSH2 0x330A PUSH2 0x3305 DUP3 PUSH2 0x3BF7 JUMP JUMPDEST PUSH2 0x3C7E JUMP JUMPDEST DUP3 MSTORE POP POP JUMP JUMPDEST PUSH1 0x0 PUSH2 0x331C DUP3 DUP5 PUSH2 0x2602 JUMP JUMPDEST PUSH1 0x14 DUP3 ADD SWAP2 POP DUP2 SWAP1 POP SWAP3 SWAP2 POP POP JUMP JUMPDEST PUSH1 0x0 PUSH2 0x3337 DUP3 DUP5 PUSH2 0x291D JUMP JUMPDEST PUSH1 0x20 DUP3 ADD SWAP2 POP DUP2 SWAP1 POP SWAP3 SWAP2 POP POP JUMP JUMPDEST PUSH1 0x0 PUSH2 0x3352 DUP3 DUP5 PUSH2 0x2A4C JUMP JUMPDEST SWAP2 POP PUSH2 0x335D DUP3 PUSH2 0x2A7D JUMP JUMPDEST SWAP2 POP DUP2 SWAP1 POP SWAP3 SWAP2 POP POP JUMP JUMPDEST PUSH1 0x0 PUSH2 0x3374 DUP3 DUP5 PUSH2 0x2A4C JUMP JUMPDEST SWAP2 POP PUSH2 0x337F DUP3 PUSH2 0x2B63 JUMP JUMPDEST SWAP2 POP DUP2 SWAP1 POP SWAP3 SWAP2 POP POP JUMP JUMPDEST PUSH1 0x0 PUSH2 0x3396 DUP3 DUP5 PUSH2 0x2A4C JUMP JUMPDEST SWAP2 POP PUSH2 0x33A1 DUP3 PUSH2 0x2C6F JUMP JUMPDEST SWAP2 POP DUP2 SWAP1 POP SWAP3 SWAP2 POP POP JUMP JUMPDEST PUSH1 0x0 PUSH2 0x33B8 DUP3 DUP10 PUSH2 0x32F9 JUMP JUMPDEST PUSH1 0x1 DUP3 ADD SWAP2 POP PUSH2 0x33C8 DUP3 DUP9 PUSH2 0x28E8 JUMP JUMPDEST PUSH1 0x14 DUP3 ADD SWAP2 POP PUSH2 0x33D8 DUP3 DUP8 PUSH2 0x2602 JUMP JUMPDEST PUSH1 0x14 DUP3 ADD SWAP2 POP PUSH2 0x33E8 DUP3 DUP7 PUSH2 0x296D JUMP JUMPDEST SWAP2 POP PUSH2 0x33F4 DUP3 DUP6 PUSH2 0x2602 JUMP JUMPDEST PUSH1 0x14 DUP3 ADD SWAP2 POP PUSH2 0x3404 DUP3 DUP5 PUSH2 0x296D JUMP JUMPDEST SWAP2 POP DUP2 SWAP1 POP SWAP8 SWAP7 POP POP POP POP POP POP POP JUMP JUMPDEST PUSH1 0x0 PUSH1 0x20 DUP3 ADD SWAP1 POP PUSH2 0x3429 PUSH1 0x0 DUP4 ADD DUP5 PUSH2 0x25F3 JUMP JUMPDEST SWAP3 SWAP2 POP POP JUMP JUMPDEST PUSH1 0x0 PUSH1 0x20 DUP3 ADD SWAP1 POP DUP2 DUP2 SUB PUSH1 0x0 DUP4 ADD MSTORE PUSH2 0x3449 DUP2 DUP5 PUSH2 0x2619 JUMP JUMPDEST SWAP1 POP SWAP3 SWAP2 POP POP JUMP JUMPDEST PUSH1 0x0 PUSH1 0x20 DUP3 ADD SWAP1 POP PUSH2 0x3466 PUSH1 0x0 DUP4 ADD DUP5 PUSH2 0x28D9 JUMP JUMPDEST SWAP3 SWAP2 POP POP JUMP JUMPDEST PUSH1 0x0 PUSH1 0x20 DUP3 ADD SWAP1 POP PUSH2 0x3481 PUSH1 0x0 DUP4 ADD DUP5 PUSH2 0x290E JUMP JUMPDEST SWAP3 SWAP2 POP POP JUMP JUMPDEST PUSH1 0x0 PUSH1 0x80 DUP3 ADD SWAP1 POP PUSH2 0x349C PUSH1 0x0 DUP4 ADD DUP8 PUSH2 0x290E JUMP JUMPDEST PUSH2 0x34A9 PUSH1 0x20 DUP4 ADD DUP7 PUSH2 0x32EA JUMP JUMPDEST PUSH2 0x34B6 PUSH1 0x40 DUP4 ADD DUP6 PUSH2 0x290E JUMP JUMPDEST PUSH2 0x34C3 PUSH1 0x60 DUP4 ADD DUP5 PUSH2 0x290E JUMP JUMPDEST SWAP6 SWAP5 POP POP POP POP POP JUMP JUMPDEST PUSH1 0x0 PUSH1 0x20 DUP3 ADD SWAP1 POP DUP2 DUP2 SUB PUSH1 0x0 DUP4 ADD MSTORE PUSH2 0x34E6 DUP2 DUP5 PUSH2 0x2934 JUMP JUMPDEST SWAP1 POP SWAP3 SWAP2 POP POP JUMP JUMPDEST PUSH1 0x0 PUSH1 0xE0 DUP3 ADD SWAP1 POP PUSH2 0x3503 PUSH1 0x0 DUP4 ADD DUP11 PUSH2 0x29AD JUMP JUMPDEST PUSH2 0x3510 PUSH1 0x20 DUP4 ADD DUP10 PUSH2 0x29AD JUMP JUMPDEST PUSH2 0x351D PUSH1 0x40 DUP4 ADD DUP9 PUSH2 0x25F3 JUMP JUMPDEST PUSH2 0x352A PUSH1 0x60 DUP4 ADD DUP8 PUSH2 0x32CC JUMP JUMPDEST PUSH2 0x3537 PUSH1 0x80 DUP4 ADD DUP7 PUSH2 0x290E JUMP JUMPDEST PUSH2 0x3544 PUSH1 0xA0 DUP4 ADD DUP6 PUSH2 0x290E JUMP JUMPDEST PUSH2 0x3551 PUSH1 0xC0 DUP4 ADD DUP5 PUSH2 0x290E JUMP JUMPDEST SWAP9 SWAP8 POP POP POP POP POP POP POP POP JUMP JUMPDEST PUSH1 0x0 PUSH1 0x20 DUP3 ADD SWAP1 POP DUP2 DUP2 SUB PUSH1 0x0 DUP4 ADD MSTORE PUSH2 0x3577 DUP2 DUP5 PUSH2 0x2A13 JUMP JUMPDEST SWAP1 POP SWAP3 SWAP2 POP POP JUMP JUMPDEST PUSH1 0x0 PUSH1 0x20 DUP3 ADD SWAP1 POP DUP2 DUP2 SUB PUSH1 0x0 DUP4 ADD MSTORE PUSH2 0x3598 DUP2 PUSH2 0x2ABD JUMP JUMPDEST SWAP1 POP SWAP2 SWAP1 POP JUMP JUMPDEST PUSH1 0x0 PUSH1 0x20 DUP3 ADD SWAP1 POP DUP2 DUP2 SUB PUSH1 0x0 DUP4 ADD MSTORE PUSH2 0x35B8 DUP2 PUSH2 0x2B23 JUMP JUMPDEST SWAP1 POP SWAP2 SWAP1 POP JUMP JUMPDEST PUSH1 0x0 PUSH1 0x20 DUP3 ADD SWAP1 POP DUP2 DUP2 SUB PUSH1 0x0 DUP4 ADD MSTORE PUSH2 0x35D8 DUP2 PUSH2 0x2BA3 JUMP JUMPDEST SWAP1 POP SWAP2 SWAP1 POP JUMP JUMPDEST PUSH1 0x0 PUSH1 0x20 DUP3 ADD SWAP1 POP DUP2 DUP2 SUB PUSH1 0x0 DUP4 ADD MSTORE PUSH2 0x35F8 DUP2 PUSH2 0x2C09 JUMP JUMPDEST SWAP1 POP SWAP2 SWAP1 POP JUMP JUMPDEST PUSH1 0x0 PUSH1 0x20 DUP3 ADD SWAP1 POP DUP2 DUP2 SUB PUSH1 0x0 DUP4 ADD MSTORE PUSH2 0x3618 DUP2 PUSH2 0x2CAF JUMP JUMPDEST SWAP1 POP SWAP2 SWAP1 POP JUMP JUMPDEST PUSH1 0x0 PUSH1 0x20 DUP3 ADD SWAP1 POP DUP2 DUP2 SUB PUSH1 0x0 DUP4 ADD MSTORE PUSH2 0x3638 DUP2 PUSH2 0x2D15 JUMP JUMPDEST SWAP1 POP SWAP2 SWAP1 POP JUMP JUMPDEST PUSH1 0x0 PUSH1 0x20 DUP3 ADD SWAP1 POP DUP2 DUP2 SUB PUSH1 0x0 DUP4 ADD MSTORE PUSH2 0x3659 DUP2 DUP5 PUSH2 0x2FBF JUMP JUMPDEST SWAP1 POP SWAP3 SWAP2 POP POP JUMP JUMPDEST PUSH1 0x0 PUSH1 0x40 DUP3 ADD SWAP1 POP DUP2 DUP2 SUB PUSH1 0x0 DUP4 ADD MSTORE PUSH2 0x367B DUP2 DUP6 PUSH2 0x2FBF JUMP JUMPDEST SWAP1 POP PUSH2 0x368A PUSH1 0x20 DUP4 ADD DUP5 PUSH2 0x32CC JUMP JUMPDEST SWAP4 SWAP3 POP POP POP JUMP JUMPDEST PUSH1 0x0 PUSH1 0xE0 DUP3 ADD SWAP1 POP PUSH2 0x36A6 PUSH1 0x0 DUP4 ADD DUP5 PUSH2 0x3167 JUMP JUMPDEST SWAP3 SWAP2 POP POP JUMP JUMPDEST PUSH1 0x0 PUSH1 0x20 DUP3 ADD SWAP1 POP PUSH2 0x36C1 PUSH1 0x0 DUP4 ADD DUP5 PUSH2 0x32AE JUMP JUMPDEST SWAP3 SWAP2 POP POP JUMP JUMPDEST PUSH1 0x0 PUSH1 0x20 DUP3 ADD SWAP1 POP PUSH2 0x36DC PUSH1 0x0 DUP4 ADD DUP5 PUSH2 0x32CC JUMP JUMPDEST SWAP3 SWAP2 POP POP JUMP JUMPDEST PUSH1 0x0 PUSH1 0x20 DUP3 ADD SWAP1 POP PUSH2 0x36F7 PUSH1 0x0 DUP4 ADD DUP5 PUSH2 0x32EA JUMP JUMPDEST SWAP3 SWAP2 POP POP JUMP JUMPDEST PUSH1 0x0 PUSH1 0x40 MLOAD SWAP1 POP DUP2 DUP2 ADD DUP2 DUP2 LT PUSH8 0xFFFFFFFFFFFFFFFF DUP3 GT OR ISZERO PUSH2 0x3724 JUMPI PUSH2 0x3723 PUSH2 0x3C90 JUMP JUMPDEST JUMPDEST DUP1 PUSH1 0x40 MSTORE POP SWAP2 SWAP1 POP JUMP JUMPDEST PUSH1 0x0 PUSH8 0xFFFFFFFFFFFFFFFF DUP3 GT ISZERO PUSH2 0x3749 JUMPI PUSH2 0x3748 PUSH2 0x3C90 JUMP JUMPDEST JUMPDEST PUSH1 0x20 DUP3 MUL SWAP1 POP PUSH1 0x20 DUP2 ADD SWAP1 POP SWAP2 SWAP1 POP JUMP JUMPDEST PUSH1 0x0 PUSH8 0xFFFFFFFFFFFFFFFF DUP3 GT ISZERO PUSH2 0x3775 JUMPI PUSH2 0x3774 PUSH2 0x3C90 JUMP JUMPDEST JUMPDEST PUSH1 0x20 DUP3 MUL SWAP1 POP PUSH1 0x20 DUP2 ADD SWAP1 POP SWAP2 SWAP1 POP JUMP JUMPDEST PUSH1 0x0 PUSH8 0xFFFFFFFFFFFFFFFF DUP3 GT ISZERO PUSH2 0x37A1 JUMPI PUSH2 0x37A0 PUSH2 0x3C90 JUMP JUMPDEST JUMPDEST PUSH1 0x20 DUP3 MUL SWAP1 POP PUSH1 0x20 DUP2 ADD SWAP1 POP SWAP2 SWAP1 POP JUMP JUMPDEST PUSH1 0x0 PUSH8 0xFFFFFFFFFFFFFFFF DUP3 GT ISZERO PUSH2 0x37CD JUMPI PUSH2 0x37CC PUSH2 0x3C90 JUMP JUMPDEST JUMPDEST PUSH1 0x20 DUP3 MUL SWAP1 POP PUSH1 0x20 DUP2 ADD SWAP1 POP SWAP2 SWAP1 POP JUMP JUMPDEST PUSH1 0x0 PUSH8 0xFFFFFFFFFFFFFFFF DUP3 GT ISZERO PUSH2 0x37F9 JUMPI PUSH2 0x37F8 PUSH2 0x3C90 JUMP JUMPDEST JUMPDEST PUSH1 0x20 DUP3 MUL SWAP1 POP PUSH1 0x20 DUP2 ADD SWAP1 POP SWAP2 SWAP1 POP JUMP JUMPDEST PUSH1 0x0 PUSH8 0xFFFFFFFFFFFFFFFF DUP3 GT ISZERO PUSH2 0x3825 JUMPI PUSH2 0x3824 PUSH2 0x3C90 JUMP JUMPDEST JUMPDEST PUSH1 0x20 DUP3 MUL SWAP1 POP PUSH1 0x20 DUP2 ADD SWAP1 POP SWAP2 SWAP1 POP JUMP JUMPDEST PUSH1 0x0 PUSH8 0xFFFFFFFFFFFFFFFF DUP3 GT ISZERO PUSH2 0x3851 JUMPI PUSH2 0x3850 PUSH2 0x3C90 JUMP JUMPDEST JUMPDEST PUSH1 0x20 DUP3 MUL SWAP1 POP PUSH1 0x20 DUP2 ADD SWAP1 POP SWAP2 SWAP1 POP JUMP JUMPDEST PUSH1 0x0 PUSH8 0xFFFFFFFFFFFFFFFF DUP3 GT ISZERO PUSH2 0x387D JUMPI PUSH2 0x387C PUSH2 0x3C90 JUMP JUMPDEST JUMPDEST PUSH1 0x20 DUP3 MUL SWAP1 POP PUSH1 0x20 DUP2 ADD SWAP1 POP SWAP2 SWAP1 POP JUMP JUMPDEST PUSH1 0x0 PUSH8 0xFFFFFFFFFFFFFFFF DUP3 GT ISZERO PUSH2 0x38A9 JUMPI PUSH2 0x38A8 PUSH2 0x3C90 JUMP JUMPDEST JUMPDEST PUSH1 0x20 DUP3 MUL SWAP1 POP PUSH1 0x20 DUP2 ADD SWAP1 POP SWAP2 SWAP1 POP JUMP JUMPDEST PUSH1 0x0 PUSH8 0xFFFFFFFFFFFFFFFF DUP3 GT ISZERO PUSH2 0x38D5 JUMPI PUSH2 0x38D4 PUSH2 0x3C90 JUMP JUMPDEST JUMPDEST PUSH1 0x20 DUP3 MUL SWAP1 POP PUSH1 0x20 DUP2 ADD SWAP1 POP SWAP2 SWAP1 POP JUMP JUMPDEST PUSH1 0x0 PUSH8 0xFFFFFFFFFFFFFFFF DUP3 GT ISZERO PUSH2 0x3901 JUMPI PUSH2 0x3900 PUSH2 0x3C90 JUMP JUMPDEST JUMPDEST PUSH1 0x1F NOT PUSH1 0x1F DUP4 ADD AND SWAP1 POP PUSH1 0x20 DUP2 ADD SWAP1 POP SWAP2 SWAP1 POP JUMP JUMPDEST PUSH1 0x0 PUSH8 0xFFFFFFFFFFFFFFFF DUP3 GT ISZERO PUSH2 0x3931 JUMPI PUSH2 0x3930 PUSH2 0x3C90 JUMP JUMPDEST JUMPDEST PUSH1 0x1F NOT PUSH1 0x1F DUP4 ADD AND SWAP1 POP PUSH1 0x20 DUP2 ADD SWAP1 POP SWAP2 SWAP1 POP JUMP JUMPDEST PUSH1 0x0 DUP2 SWAP1 POP PUSH1 0x20 DUP3 ADD SWAP1 POP SWAP2 SWAP1 POP JUMP JUMPDEST PUSH1 0x0 DUP2 SWAP1 POP PUSH1 0x20 DUP3 ADD SWAP1 POP SWAP2 SWAP1 POP JUMP JUMPDEST PUSH1 0x0 DUP2 SWAP1 POP PUSH1 0x20 DUP3 ADD SWAP1 POP SWAP2 SWAP1 POP JUMP JUMPDEST PUSH1 0x0 DUP2 SWAP1 POP PUSH1 0x20 DUP3 ADD SWAP1 POP SWAP2 SWAP1 POP JUMP JUMPDEST PUSH1 0x0 DUP2 SWAP1 POP PUSH1 0x20 DUP3 ADD SWAP1 POP SWAP2 SWAP1 POP JUMP JUMPDEST PUSH1 0x0 DUP2 SWAP1 POP PUSH1 0x20 DUP3 ADD SWAP1 POP SWAP2 SWAP1 POP JUMP JUMPDEST PUSH1 0x0 DUP2 SWAP1 POP PUSH1 0x20 DUP3 ADD SWAP1 POP SWAP2 SWAP1 POP JUMP JUMPDEST PUSH1 0x0 DUP2 MLOAD SWAP1 POP SWAP2 SWAP1 POP JUMP JUMPDEST PUSH1 0x0 DUP2 MLOAD SWAP1 POP SWAP2 SWAP1 POP JUMP JUMPDEST PUSH1 0x0 DUP2 MLOAD SWAP1 POP SWAP2 SWAP1 POP JUMP JUMPDEST PUSH1 0x0 DUP2 MLOAD SWAP1 POP SWAP2 SWAP1 POP JUMP JUMPDEST PUSH1 0x0 DUP2 MLOAD SWAP1 POP SWAP2 SWAP1 POP JUMP JUMPDEST PUSH1 0x0 DUP2 MLOAD SWAP1 POP SWAP2 SWAP1 POP JUMP JUMPDEST PUSH1 0x0 DUP2 MLOAD SWAP1 POP SWAP2 SWAP1 POP JUMP JUMPDEST PUSH1 0x0 DUP2 MLOAD SWAP1 POP SWAP2 SWAP1 POP JUMP JUMPDEST PUSH1 0x0 DUP2 MLOAD SWAP1 POP SWAP2 SWAP1 POP JUMP JUMPDEST PUSH1 0x0 PUSH1 0x20 DUP3 ADD SWAP1 POP SWAP2 SWAP1 POP JUMP JUMPDEST PUSH1 0x0 PUSH1 0x20 DUP3 ADD SWAP1 POP SWAP2 SWAP1 POP JUMP JUMPDEST PUSH1 0x0 PUSH1 0x20 DUP3 ADD SWAP1 POP SWAP2 SWAP1 POP JUMP JUMPDEST PUSH1 0x0 PUSH1 0x20 DUP3 ADD SWAP1 POP SWAP2 SWAP1 POP JUMP JUMPDEST PUSH1 0x0 PUSH1 0x20 DUP3 ADD SWAP1 POP SWAP2 SWAP1 POP JUMP JUMPDEST PUSH1 0x0 PUSH1 0x20 DUP3 ADD SWAP1 POP SWAP2 SWAP1 POP JUMP JUMPDEST PUSH1 0x0 PUSH1 0x20 DUP3 ADD SWAP1 POP SWAP2 SWAP1 POP JUMP JUMPDEST PUSH1 0x0 DUP3 DUP3 MSTORE PUSH1 0x20 DUP3 ADD SWAP1 POP SWAP3 SWAP2 POP POP JUMP JUMPDEST PUSH1 0x0 DUP3 DUP3 MSTORE PUSH1 0x20 DUP3 ADD SWAP1 POP SWAP3 SWAP2 POP POP JUMP JUMPDEST PUSH1 0x0 DUP3 DUP3 MSTORE PUSH1 0x20 DUP3 ADD SWAP1 POP SWAP3 SWAP2 POP POP JUMP JUMPDEST PUSH1 0x0 DUP3 DUP3 MSTORE PUSH1 0x20 DUP3 ADD SWAP1 POP SWAP3 SWAP2 POP POP JUMP JUMPDEST PUSH1 0x0 DUP3 DUP3 MSTORE PUSH1 0x20 DUP3 ADD SWAP1 POP SWAP3 SWAP2 POP POP JUMP JUMPDEST PUSH1 0x0 DUP3 DUP3 MSTORE PUSH1 0x20 DUP3 ADD SWAP1 POP SWAP3 SWAP2 POP POP JUMP JUMPDEST PUSH1 0x0 DUP3 DUP3 MSTORE PUSH1 0x20 DUP3 ADD SWAP1 POP SWAP3 SWAP2 POP POP JUMP JUMPDEST PUSH1 0x0 DUP3 DUP3 MSTORE PUSH1 0x20 DUP3 ADD SWAP1 POP SWAP3 SWAP2 POP POP JUMP JUMPDEST PUSH1 0x0 DUP2 SWAP1 POP SWAP3 SWAP2 POP POP JUMP JUMPDEST PUSH1 0x0 DUP3 DUP3 MSTORE PUSH1 0x20 DUP3 ADD SWAP1 POP SWAP3 SWAP2 POP POP JUMP JUMPDEST PUSH1 0x0 DUP3 DUP3 MSTORE PUSH1 0x20 DUP3 ADD SWAP1 POP SWAP3 SWAP2 POP POP JUMP JUMPDEST PUSH1 0x0 DUP2 SWAP1 POP SWAP3 SWAP2 POP POP JUMP JUMPDEST PUSH1 0x0 PUSH2 0x3B3F DUP3 PUSH2 0x3BBD JUMP JUMPDEST SWAP1 POP SWAP2 SWAP1 POP JUMP JUMPDEST PUSH1 0x0 DUP2 ISZERO ISZERO SWAP1 POP SWAP2 SWAP1 POP JUMP JUMPDEST PUSH1 0x0 PUSH32 0xFFFFFFFFFFFFFFFFFFFFFFFFFFFFFFFFFFFFFFFF000000000000000000000000 DUP3 AND SWAP1 POP SWAP2 SWAP1 POP JUMP JUMPDEST PUSH1 0x0 DUP2 SWAP1 POP SWAP2 SWAP1 POP JUMP JUMPDEST PUSH1 0x0 DUP2 PUSH1 0x1 SIGNEXTEND SWAP1 POP SWAP2 SWAP1 POP JUMP JUMPDEST PUSH1 0x0 DUP2 PUSH1 0x3 SIGNEXTEND SWAP1 POP SWAP2 SWAP1 POP JUMP JUMPDEST PUSH1 0x0 DUP2 PUSH1 0x7 SIGNEXTEND SWAP1 POP SWAP2 SWAP1 POP JUMP JUMPDEST PUSH1 0x0 PUSH2 0xFFFF DUP3 AND SWAP1 POP SWAP2 SWAP1 POP JUMP JUMPDEST PUSH1 0x0 PUSH20 0xFFFFFFFFFFFFFFFFFFFFFFFFFFFFFFFFFFFFFFFF DUP3 AND SWAP1 POP SWAP2 SWAP1 POP JUMP JUMPDEST PUSH1 0x0 DUP2 SWAP1 POP SWAP2 SWAP1 POP JUMP JUMPDEST PUSH1 0x0 PUSH4 0xFFFFFFFF DUP3 AND SWAP1 POP SWAP2 SWAP1 POP JUMP JUMPDEST PUSH1 0x0 PUSH1 0xFF DUP3 AND SWAP1 POP SWAP2 SWAP1 POP JUMP JUMPDEST DUP3 DUP2 DUP4 CALLDATACOPY PUSH1 0x0 DUP4 DUP4 ADD MSTORE POP POP POP JUMP JUMPDEST PUSH1 0x0 JUMPDEST DUP4 DUP2 LT ISZERO PUSH2 0x3C31 JUMPI DUP1 DUP3 ADD MLOAD DUP2 DUP5 ADD MSTORE PUSH1 0x20 DUP2 ADD SWAP1 POP PUSH2 0x3C16 JUMP JUMPDEST DUP4 DUP2 GT ISZERO PUSH2 0x3C40 JUMPI PUSH1 0x0 DUP5 DUP5 ADD MSTORE JUMPDEST POP POP POP POP JUMP JUMPDEST PUSH1 0x0 PUSH2 0x3C51 DUP3 PUSH2 0x3C6C JUMP JUMPDEST SWAP1 POP SWAP2 SWAP1 POP JUMP JUMPDEST PUSH1 0x0 DUP2 SWAP1 POP SWAP2 SWAP1 POP JUMP JUMPDEST PUSH1 0x0 DUP2 SWAP1 POP SWAP2 SWAP1 POP JUMP JUMPDEST PUSH1 0x0 PUSH2 0x3C77 DUP3 PUSH2 0x3CB0 JUMP JUMPDEST SWAP1 POP SWAP2 SWAP1 POP JUMP JUMPDEST PUSH1 0x0 PUSH2 0x3C89 DUP3 PUSH2 0x3CA3 JUMP JUMPDEST SWAP1 POP SWAP2 SWAP1 POP JUMP JUMPDEST INVALID JUMPDEST PUSH1 0x0 PUSH1 0x1F NOT PUSH1 0x1F DUP4 ADD AND SWAP1 POP SWAP2 SWAP1 POP JUMP JUMPDEST PUSH1 0x0 DUP2 PUSH1 0xF8 SHL SWAP1 POP SWAP2 SWAP1 POP JUMP JUMPDEST PUSH1 0x0 DUP2 PUSH1 0x60 SHL SWAP1 POP SWAP2 SWAP1 POP JUMP JUMPDEST PUSH2 0x3CC6 DUP2 PUSH2 0x3B34 JUMP JUMPDEST DUP2 EQ PUSH2 0x3CD1 JUMPI PUSH1 0x0 DUP1 REVERT JUMPDEST POP JUMP JUMPDEST PUSH2 0x3CDD DUP2 PUSH2 0x3B7E JUMP JUMPDEST DUP2 EQ PUSH2 0x3CE8 JUMPI PUSH1 0x0 DUP1 REVERT JUMPDEST POP JUMP JUMPDEST PUSH2 0x3CF4 DUP2 PUSH2 0x3B88 JUMP JUMPDEST DUP2 EQ PUSH2 0x3CFF JUMPI PUSH1 0x0 DUP1 REVERT JUMPDEST POP JUMP JUMPDEST PUSH2 0x3D0B DUP2 PUSH2 0x3B95 JUMP JUMPDEST DUP2 EQ PUSH2 0x3D16 JUMPI PUSH1 0x0 DUP1 REVERT JUMPDEST POP JUMP JUMPDEST PUSH2 0x3D22 DUP2 PUSH2 0x3BA2 JUMP JUMPDEST DUP2 EQ PUSH2 0x3D2D JUMPI PUSH1 0x0 DUP1 REVERT JUMPDEST POP JUMP JUMPDEST PUSH2 0x3D39 DUP2 PUSH2 0x3BAF JUMP JUMPDEST DUP2 EQ PUSH2 0x3D44 JUMPI PUSH1 0x0 DUP1 REVERT JUMPDEST POP JUMP JUMPDEST PUSH2 0x3D50 DUP2 PUSH2 0x3BBD JUMP JUMPDEST DUP2 EQ PUSH2 0x3D5B JUMPI PUSH1 0x0 DUP1 REVERT JUMPDEST POP JUMP JUMPDEST PUSH2 0x3D67 DUP2 PUSH2 0x3BDD JUMP JUMPDEST DUP2 EQ PUSH2 0x3D72 JUMPI PUSH1 0x0 DUP1 REVERT JUMPDEST POP JUMP JUMPDEST PUSH2 0x3D7E DUP2 PUSH2 0x3BE7 JUMP JUMPDEST DUP2 EQ PUSH2 0x3D89 JUMPI PUSH1 0x0 DUP1 REVERT JUMPDEST POP JUMP JUMPDEST PUSH2 0x3D95 DUP2 PUSH2 0x3BF7 JUMP JUMPDEST DUP2 EQ PUSH2 0x3DA0 JUMPI PUSH1 0x0 DUP1 REVERT JUMPDEST POP JUMP INVALID LOG2 PUSH5 0x6970667358 0x22 SLT KECCAK256 0xE3 PUSH26 0xC4124764B0D8F34CD01C6D4426DFACFE470DDBF5840416DED122 GASLIMIT 0xD6 DUP6 0xE5 PUSH5 0x736F6C6343 STOP SMOD MOD STOP CALLER "
		},
		"gasEstimates": {
			"creation": {
				"codeDepositCost": "3166600",
				"executionCost": "infinite",
				"totalCost": "infinite"
			},
			"external": {
				"blockHeights(uint256)": "4016",
				"currentNotariesRequired()": "4856",
				"deprecate(address,bytes32,uint8[],bytes32[],bytes32[])": "infinite",
				"deprecated()": "1245",
				"getLastProofRoot()": "infinite",
				"getNotaries()": "infinite",
				"isNotarized(bytes32,bytes32[],bytes32[],uint8[])": "infinite",
				"isNotary(address)": "1742",
				"komodoNotaries(address)": "1567",
				"lastBlockHeight()": "1213",
				"notarizedDeprecation(address,bytes32,uint8[],bytes32[],bytes32[])": "infinite",
				"notarizedProofRoots(uint32)": "infinite",
				"notarizedStateRoots(uint32)": "1537",
				"notaryAddressMapping(address)": "infinite",
				"numNotarizedBlocks()": "1233",
				"setLatestData((uint32,uint32,(uint8,address),address,(uint16,uint16,address,uint160[],int32[],int64[],int64,int64,int64,int64,int64,int64,int64,int64[],int64[],int64[],int64[],int64[],int64[],int32[],int64[]),uint32,(bytes32,uint32),bytes32,uint32,(address,(uint16,uint16,address,uint160[],int32[],int64[],int64,int64,int64,int64,int64,int64,int64,int64[],int64[],int64[],int64[],int64[],int64[],int32[],int64[]))[],(int16,int16,address,uint32,bytes32,bytes32,bytes32)[],(string,address)[]),uint8[],bytes32[],bytes32[],uint32[],address[])": "infinite",
				"upgradedAddress()": "1287"
			},
			"internal": {
				"recoverSigner(bytes32,uint8,bytes32,bytes32)": "infinite"
			}
		},
		"methodIdentifiers": {
			"blockHeights(uint256)": "6e080816",
			"currentNotariesRequired()": "20cd6ba1",
			"deprecate(address,bytes32,uint8[],bytes32[],bytes32[])": "17c86875",
			"deprecated()": "0e136b19",
			"getLastProofRoot()": "d4e03233",
			"getNotaries()": "aaf34b94",
			"isNotarized(bytes32,bytes32[],bytes32[],uint8[])": "90ab6442",
			"isNotary(address)": "f13eed97",
			"komodoNotaries(address)": "b59de706",
			"lastBlockHeight()": "4b60ae63",
			"notarizedDeprecation(address,bytes32,uint8[],bytes32[],bytes32[])": "b43fe1de",
			"notarizedProofRoots(uint32)": "add21b3b",
			"notarizedStateRoots(uint32)": "e7b3c875",
			"notaryAddressMapping(address)": "250dea53",
			"numNotarizedBlocks()": "ec48ae3c",
			"setLatestData((uint32,uint32,(uint8,address),address,(uint16,uint16,address,uint160[],int32[],int64[],int64,int64,int64,int64,int64,int64,int64,int64[],int64[],int64[],int64[],int64[],int64[],int32[],int64[]),uint32,(bytes32,uint32),bytes32,uint32,(address,(uint16,uint16,address,uint160[],int32[],int64[],int64,int64,int64,int64,int64,int64,int64,int64[],int64[],int64[],int64[],int64[],int64[],int32[],int64[]))[],(int16,int16,address,uint32,bytes32,bytes32,bytes32)[],(string,address)[]),uint8[],bytes32[],bytes32[],uint32[],address[])": "92a31082",
			"upgradedAddress()": "26976e3f"
		}
	},
	"abi": [
		{
			"inputs": [
				{
					"internalType": "address",
					"name": "_verusBLAKE2bAddress",
					"type": "address"
				},
				{
					"internalType": "address",
					"name": "_verusSerializerAddress",
					"type": "address"
				},
				{
					"internalType": "address[]",
					"name": "_notaries",
					"type": "address[]"
				},
				{
					"internalType": "address[]",
					"name": "_notariesEthAddress",
					"type": "address[]"
				}
			],
			"stateMutability": "nonpayable",
			"type": "constructor"
		},
		{
			"anonymous": false,
			"inputs": [
				{
					"indexed": false,
					"internalType": "address",
					"name": "newAddress",
					"type": "address"
				}
			],
			"name": "Deprecate",
			"type": "event"
		},
		{
			"anonymous": false,
			"inputs": [
				{
					"components": [
						{
							"internalType": "uint32",
							"name": "version",
							"type": "uint32"
						},
						{
							"internalType": "uint32",
							"name": "flags",
							"type": "uint32"
						},
						{
							"components": [
								{
									"internalType": "uint8",
									"name": "destinationtype",
									"type": "uint8"
								},
								{
									"internalType": "address",
									"name": "destinationaddress",
									"type": "address"
								}
							],
							"internalType": "struct VerusObjectsCommon.CTransferDestination",
							"name": "proposer",
							"type": "tuple"
						},
						{
							"internalType": "address",
							"name": "currencyid",
							"type": "address"
						},
						{
							"components": [
								{
									"internalType": "uint16",
									"name": "version",
									"type": "uint16"
								},
								{
									"internalType": "uint16",
									"name": "flags",
									"type": "uint16"
								},
								{
									"internalType": "address",
									"name": "currencyid",
									"type": "address"
								},
								{
									"internalType": "uint160[]",
									"name": "currencies",
									"type": "uint160[]"
								},
								{
									"internalType": "int32[]",
									"name": "weights",
									"type": "int32[]"
								},
								{
									"internalType": "int64[]",
									"name": "reserves",
									"type": "int64[]"
								},
								{
									"internalType": "int64",
									"name": "initialsupply",
									"type": "int64"
								},
								{
									"internalType": "int64",
									"name": "emitted",
									"type": "int64"
								},
								{
									"internalType": "int64",
									"name": "supply",
									"type": "int64"
								},
								{
									"internalType": "int64",
									"name": "primarycurrencyout",
									"type": "int64"
								},
								{
									"internalType": "int64",
									"name": "preconvertedout",
									"type": "int64"
								},
								{
									"internalType": "int64",
									"name": "primarycurrencyfees",
									"type": "int64"
								},
								{
									"internalType": "int64",
									"name": "primarycurrencyconversionfees",
									"type": "int64"
								},
								{
									"internalType": "int64[]",
									"name": "reservein",
									"type": "int64[]"
								},
								{
									"internalType": "int64[]",
									"name": "primarycurrencyin",
									"type": "int64[]"
								},
								{
									"internalType": "int64[]",
									"name": "reserveout",
									"type": "int64[]"
								},
								{
									"internalType": "int64[]",
									"name": "conversionprice",
									"type": "int64[]"
								},
								{
									"internalType": "int64[]",
									"name": "viaconversionprice",
									"type": "int64[]"
								},
								{
									"internalType": "int64[]",
									"name": "fees",
									"type": "int64[]"
								},
								{
									"internalType": "int32[]",
									"name": "priorweights",
									"type": "int32[]"
								},
								{
									"internalType": "int64[]",
									"name": "conversionfees",
									"type": "int64[]"
								}
							],
							"internalType": "struct VerusObjectsNotarization.CCoinbaseCurrencyState",
							"name": "currencystate",
							"type": "tuple"
						},
						{
							"internalType": "uint32",
							"name": "notarizationheight",
							"type": "uint32"
						},
						{
							"components": [
								{
									"internalType": "bytes32",
									"name": "hash",
									"type": "bytes32"
								},
								{
									"internalType": "uint32",
									"name": "n",
									"type": "uint32"
								}
							],
							"internalType": "struct VerusObjectsNotarization.CUTXORef",
							"name": "prevnotarization",
							"type": "tuple"
						},
						{
							"internalType": "bytes32",
							"name": "hashprevnotarization",
							"type": "bytes32"
						},
						{
							"internalType": "uint32",
							"name": "prevheight",
							"type": "uint32"
						},
						{
							"components": [
								{
									"internalType": "address",
									"name": "currencyid",
									"type": "address"
								},
								{
									"components": [
										{
											"internalType": "uint16",
											"name": "version",
											"type": "uint16"
										},
										{
											"internalType": "uint16",
											"name": "flags",
											"type": "uint16"
										},
										{
											"internalType": "address",
											"name": "currencyid",
											"type": "address"
										},
										{
											"internalType": "uint160[]",
											"name": "currencies",
											"type": "uint160[]"
										},
										{
											"internalType": "int32[]",
											"name": "weights",
											"type": "int32[]"
										},
										{
											"internalType": "int64[]",
											"name": "reserves",
											"type": "int64[]"
										},
										{
											"internalType": "int64",
											"name": "initialsupply",
											"type": "int64"
										},
										{
											"internalType": "int64",
											"name": "emitted",
											"type": "int64"
										},
										{
											"internalType": "int64",
											"name": "supply",
											"type": "int64"
										},
										{
											"internalType": "int64",
											"name": "primarycurrencyout",
											"type": "int64"
										},
										{
											"internalType": "int64",
											"name": "preconvertedout",
											"type": "int64"
										},
										{
											"internalType": "int64",
											"name": "primarycurrencyfees",
											"type": "int64"
										},
										{
											"internalType": "int64",
											"name": "primarycurrencyconversionfees",
											"type": "int64"
										},
										{
											"internalType": "int64[]",
											"name": "reservein",
											"type": "int64[]"
										},
										{
											"internalType": "int64[]",
											"name": "primarycurrencyin",
											"type": "int64[]"
										},
										{
											"internalType": "int64[]",
											"name": "reserveout",
											"type": "int64[]"
										},
										{
											"internalType": "int64[]",
											"name": "conversionprice",
											"type": "int64[]"
										},
										{
											"internalType": "int64[]",
											"name": "viaconversionprice",
											"type": "int64[]"
										},
										{
											"internalType": "int64[]",
											"name": "fees",
											"type": "int64[]"
										},
										{
											"internalType": "int32[]",
											"name": "priorweights",
											"type": "int32[]"
										},
										{
											"internalType": "int64[]",
											"name": "conversionfees",
											"type": "int64[]"
										}
									],
									"internalType": "struct VerusObjectsNotarization.CCoinbaseCurrencyState",
									"name": "currencystate",
									"type": "tuple"
								}
							],
							"internalType": "struct VerusObjectsNotarization.CurrencyStates[]",
							"name": "currencystates",
							"type": "tuple[]"
						},
						{
							"components": [
								{
									"internalType": "int16",
									"name": "version",
									"type": "int16"
								},
								{
									"internalType": "int16",
									"name": "cprtype",
									"type": "int16"
								},
								{
									"internalType": "address",
									"name": "systemid",
									"type": "address"
								},
								{
									"internalType": "uint32",
									"name": "rootheight",
									"type": "uint32"
								},
								{
									"internalType": "bytes32",
									"name": "stateroot",
									"type": "bytes32"
								},
								{
									"internalType": "bytes32",
									"name": "blockhash",
									"type": "bytes32"
								},
								{
									"internalType": "bytes32",
									"name": "compactpower",
									"type": "bytes32"
								}
							],
							"internalType": "struct VerusObjectsNotarization.CProofRoot[]",
							"name": "proofroots",
							"type": "tuple[]"
						},
						{
							"components": [
								{
									"internalType": "string",
									"name": "networkaddress",
									"type": "string"
								},
								{
									"internalType": "address",
									"name": "nodeidentity",
									"type": "address"
								}
							],
							"internalType": "struct VerusObjectsNotarization.CNodeData[]",
							"name": "nodes",
							"type": "tuple[]"
						}
					],
					"indexed": false,
					"internalType": "struct VerusObjectsNotarization.CPBaaSNotarization",
					"name": "",
					"type": "tuple"
				},
				{
					"indexed": false,
					"internalType": "uint32",
					"name": "notarizedDataHeight",
					"type": "uint32"
				}
			],
			"name": "NewBlock",
			"type": "event"
		},
		{
			"inputs": [
				{
					"internalType": "uint256",
					"name": "",
					"type": "uint256"
				}
			],
			"name": "blockHeights",
			"outputs": [
				{
					"internalType": "uint32",
					"name": "",
					"type": "uint32"
				}
			],
			"stateMutability": "view",
			"type": "function"
		},
		{
			"inputs": [],
			"name": "currentNotariesRequired",
			"outputs": [
				{
					"internalType": "uint8",
					"name": "",
					"type": "uint8"
				}
			],
			"stateMutability": "view",
			"type": "function"
		},
		{
			"inputs": [
				{
					"internalType": "address",
					"name": "_upgradedAddress",
					"type": "address"
				},
				{
					"internalType": "bytes32",
					"name": "_addressHash",
					"type": "bytes32"
				},
				{
					"internalType": "uint8[]",
					"name": "_vs",
					"type": "uint8[]"
				},
				{
					"internalType": "bytes32[]",
					"name": "_rs",
					"type": "bytes32[]"
				},
				{
					"internalType": "bytes32[]",
					"name": "_ss",
					"type": "bytes32[]"
				}
			],
			"name": "deprecate",
			"outputs": [],
			"stateMutability": "nonpayable",
			"type": "function"
		},
		{
			"inputs": [],
			"name": "deprecated",
			"outputs": [
				{
					"internalType": "bool",
					"name": "",
					"type": "bool"
				}
			],
			"stateMutability": "view",
			"type": "function"
		},
		{
			"inputs": [],
			"name": "getLastProofRoot",
			"outputs": [
				{
					"components": [
						{
							"internalType": "int16",
							"name": "version",
							"type": "int16"
						},
						{
							"internalType": "int16",
							"name": "cprtype",
							"type": "int16"
						},
						{
							"internalType": "address",
							"name": "systemid",
							"type": "address"
						},
						{
							"internalType": "uint32",
							"name": "rootheight",
							"type": "uint32"
						},
						{
							"internalType": "bytes32",
							"name": "stateroot",
							"type": "bytes32"
						},
						{
							"internalType": "bytes32",
							"name": "blockhash",
							"type": "bytes32"
						},
						{
							"internalType": "bytes32",
							"name": "compactpower",
							"type": "bytes32"
						}
					],
					"internalType": "struct VerusObjectsNotarization.CProofRoot",
					"name": "",
					"type": "tuple"
				}
			],
			"stateMutability": "view",
			"type": "function"
		},
		{
			"inputs": [],
			"name": "getNotaries",
			"outputs": [
				{
					"internalType": "address[]",
					"name": "",
					"type": "address[]"
				}
			],
			"stateMutability": "view",
			"type": "function"
		},
		{
			"inputs": [
				{
					"internalType": "bytes32",
					"name": "_notarizedDataHash",
					"type": "bytes32"
				},
				{
					"internalType": "bytes32[]",
					"name": "_rs",
					"type": "bytes32[]"
				},
				{
					"internalType": "bytes32[]",
					"name": "_ss",
					"type": "bytes32[]"
				},
				{
					"internalType": "uint8[]",
					"name": "_vs",
					"type": "uint8[]"
				}
			],
			"name": "isNotarized",
			"outputs": [
				{
					"internalType": "bool",
					"name": "",
					"type": "bool"
				}
			],
			"stateMutability": "view",
			"type": "function"
		},
		{
			"inputs": [
				{
					"internalType": "address",
					"name": "_notary",
					"type": "address"
				}
			],
			"name": "isNotary",
			"outputs": [
				{
					"internalType": "bool",
					"name": "",
					"type": "bool"
				}
			],
			"stateMutability": "view",
			"type": "function"
		},
		{
			"inputs": [
				{
					"internalType": "address",
					"name": "",
					"type": "address"
				}
			],
			"name": "komodoNotaries",
			"outputs": [
				{
					"internalType": "bool",
					"name": "",
					"type": "bool"
				}
			],
			"stateMutability": "view",
			"type": "function"
		},
		{
			"inputs": [],
			"name": "lastBlockHeight",
			"outputs": [
				{
					"internalType": "uint32",
					"name": "",
					"type": "uint32"
				}
			],
			"stateMutability": "view",
			"type": "function"
		},
		{
			"inputs": [
				{
					"internalType": "address",
					"name": "_upgradedAddress",
					"type": "address"
				},
				{
					"internalType": "bytes32",
					"name": "_addressHash",
					"type": "bytes32"
				},
				{
					"internalType": "uint8[]",
					"name": "_vs",
					"type": "uint8[]"
				},
				{
					"internalType": "bytes32[]",
					"name": "_rs",
					"type": "bytes32[]"
				},
				{
					"internalType": "bytes32[]",
					"name": "_ss",
					"type": "bytes32[]"
				}
			],
			"name": "notarizedDeprecation",
			"outputs": [
				{
					"internalType": "bool",
					"name": "",
					"type": "bool"
				}
			],
			"stateMutability": "nonpayable",
			"type": "function"
		},
		{
			"inputs": [
				{
					"internalType": "uint32",
					"name": "",
					"type": "uint32"
				}
			],
			"name": "notarizedProofRoots",
			"outputs": [
				{
					"internalType": "int16",
					"name": "version",
					"type": "int16"
				},
				{
					"internalType": "int16",
					"name": "cprtype",
					"type": "int16"
				},
				{
					"internalType": "address",
					"name": "systemid",
					"type": "address"
				},
				{
					"internalType": "uint32",
					"name": "rootheight",
					"type": "uint32"
				},
				{
					"internalType": "bytes32",
					"name": "stateroot",
					"type": "bytes32"
				},
				{
					"internalType": "bytes32",
					"name": "blockhash",
					"type": "bytes32"
				},
				{
					"internalType": "bytes32",
					"name": "compactpower",
					"type": "bytes32"
				}
			],
			"stateMutability": "view",
			"type": "function"
		},
		{
			"inputs": [
				{
					"internalType": "uint32",
					"name": "",
					"type": "uint32"
				}
			],
			"name": "notarizedStateRoots",
			"outputs": [
				{
					"internalType": "bytes32",
					"name": "",
					"type": "bytes32"
				}
			],
			"stateMutability": "view",
			"type": "function"
		},
		{
			"inputs": [
				{
					"internalType": "address",
					"name": "",
					"type": "address"
				}
			],
			"name": "notaryAddressMapping",
			"outputs": [
				{
					"internalType": "address",
					"name": "",
					"type": "address"
				}
			],
			"stateMutability": "view",
			"type": "function"
		},
		{
			"inputs": [],
			"name": "numNotarizedBlocks",
			"outputs": [
				{
					"internalType": "uint256",
					"name": "",
					"type": "uint256"
				}
			],
			"stateMutability": "view",
			"type": "function"
		},
		{
			"inputs": [
				{
					"components": [
						{
							"internalType": "uint32",
							"name": "version",
							"type": "uint32"
						},
						{
							"internalType": "uint32",
							"name": "flags",
							"type": "uint32"
						},
						{
							"components": [
								{
									"internalType": "uint8",
									"name": "destinationtype",
									"type": "uint8"
								},
								{
									"internalType": "address",
									"name": "destinationaddress",
									"type": "address"
								}
							],
							"internalType": "struct VerusObjectsCommon.CTransferDestination",
							"name": "proposer",
							"type": "tuple"
						},
						{
							"internalType": "address",
							"name": "currencyid",
							"type": "address"
						},
						{
							"components": [
								{
									"internalType": "uint16",
									"name": "version",
									"type": "uint16"
								},
								{
									"internalType": "uint16",
									"name": "flags",
									"type": "uint16"
								},
								{
									"internalType": "address",
									"name": "currencyid",
									"type": "address"
								},
								{
									"internalType": "uint160[]",
									"name": "currencies",
									"type": "uint160[]"
								},
								{
									"internalType": "int32[]",
									"name": "weights",
									"type": "int32[]"
								},
								{
									"internalType": "int64[]",
									"name": "reserves",
									"type": "int64[]"
								},
								{
									"internalType": "int64",
									"name": "initialsupply",
									"type": "int64"
								},
								{
									"internalType": "int64",
									"name": "emitted",
									"type": "int64"
								},
								{
									"internalType": "int64",
									"name": "supply",
									"type": "int64"
								},
								{
									"internalType": "int64",
									"name": "primarycurrencyout",
									"type": "int64"
								},
								{
									"internalType": "int64",
									"name": "preconvertedout",
									"type": "int64"
								},
								{
									"internalType": "int64",
									"name": "primarycurrencyfees",
									"type": "int64"
								},
								{
									"internalType": "int64",
									"name": "primarycurrencyconversionfees",
									"type": "int64"
								},
								{
									"internalType": "int64[]",
									"name": "reservein",
									"type": "int64[]"
								},
								{
									"internalType": "int64[]",
									"name": "primarycurrencyin",
									"type": "int64[]"
								},
								{
									"internalType": "int64[]",
									"name": "reserveout",
									"type": "int64[]"
								},
								{
									"internalType": "int64[]",
									"name": "conversionprice",
									"type": "int64[]"
								},
								{
									"internalType": "int64[]",
									"name": "viaconversionprice",
									"type": "int64[]"
								},
								{
									"internalType": "int64[]",
									"name": "fees",
									"type": "int64[]"
								},
								{
									"internalType": "int32[]",
									"name": "priorweights",
									"type": "int32[]"
								},
								{
									"internalType": "int64[]",
									"name": "conversionfees",
									"type": "int64[]"
								}
							],
							"internalType": "struct VerusObjectsNotarization.CCoinbaseCurrencyState",
							"name": "currencystate",
							"type": "tuple"
						},
						{
							"internalType": "uint32",
							"name": "notarizationheight",
							"type": "uint32"
						},
						{
							"components": [
								{
									"internalType": "bytes32",
									"name": "hash",
									"type": "bytes32"
								},
								{
									"internalType": "uint32",
									"name": "n",
									"type": "uint32"
								}
							],
							"internalType": "struct VerusObjectsNotarization.CUTXORef",
							"name": "prevnotarization",
							"type": "tuple"
						},
						{
							"internalType": "bytes32",
							"name": "hashprevnotarization",
							"type": "bytes32"
						},
						{
							"internalType": "uint32",
							"name": "prevheight",
							"type": "uint32"
						},
						{
							"components": [
								{
									"internalType": "address",
									"name": "currencyid",
									"type": "address"
								},
								{
									"components": [
										{
											"internalType": "uint16",
											"name": "version",
											"type": "uint16"
										},
										{
											"internalType": "uint16",
											"name": "flags",
											"type": "uint16"
										},
										{
											"internalType": "address",
											"name": "currencyid",
											"type": "address"
										},
										{
											"internalType": "uint160[]",
											"name": "currencies",
											"type": "uint160[]"
										},
										{
											"internalType": "int32[]",
											"name": "weights",
											"type": "int32[]"
										},
										{
											"internalType": "int64[]",
											"name": "reserves",
											"type": "int64[]"
										},
										{
											"internalType": "int64",
											"name": "initialsupply",
											"type": "int64"
										},
										{
											"internalType": "int64",
											"name": "emitted",
											"type": "int64"
										},
										{
											"internalType": "int64",
											"name": "supply",
											"type": "int64"
										},
										{
											"internalType": "int64",
											"name": "primarycurrencyout",
											"type": "int64"
										},
										{
											"internalType": "int64",
											"name": "preconvertedout",
											"type": "int64"
										},
										{
											"internalType": "int64",
											"name": "primarycurrencyfees",
											"type": "int64"
										},
										{
											"internalType": "int64",
											"name": "primarycurrencyconversionfees",
											"type": "int64"
										},
										{
											"internalType": "int64[]",
											"name": "reservein",
											"type": "int64[]"
										},
										{
											"internalType": "int64[]",
											"name": "primarycurrencyin",
											"type": "int64[]"
										},
										{
											"internalType": "int64[]",
											"name": "reserveout",
											"type": "int64[]"
										},
										{
											"internalType": "int64[]",
											"name": "conversionprice",
											"type": "int64[]"
										},
										{
											"internalType": "int64[]",
											"name": "viaconversionprice",
											"type": "int64[]"
										},
										{
											"internalType": "int64[]",
											"name": "fees",
											"type": "int64[]"
										},
										{
											"internalType": "int32[]",
											"name": "priorweights",
											"type": "int32[]"
										},
										{
											"internalType": "int64[]",
											"name": "conversionfees",
											"type": "int64[]"
										}
									],
									"internalType": "struct VerusObjectsNotarization.CCoinbaseCurrencyState",
									"name": "currencystate",
									"type": "tuple"
								}
							],
							"internalType": "struct VerusObjectsNotarization.CurrencyStates[]",
							"name": "currencystates",
							"type": "tuple[]"
						},
						{
							"components": [
								{
									"internalType": "int16",
									"name": "version",
									"type": "int16"
								},
								{
									"internalType": "int16",
									"name": "cprtype",
									"type": "int16"
								},
								{
									"internalType": "address",
									"name": "systemid",
									"type": "address"
								},
								{
									"internalType": "uint32",
									"name": "rootheight",
									"type": "uint32"
								},
								{
									"internalType": "bytes32",
									"name": "stateroot",
									"type": "bytes32"
								},
								{
									"internalType": "bytes32",
									"name": "blockhash",
									"type": "bytes32"
								},
								{
									"internalType": "bytes32",
									"name": "compactpower",
									"type": "bytes32"
								}
							],
							"internalType": "struct VerusObjectsNotarization.CProofRoot[]",
							"name": "proofroots",
							"type": "tuple[]"
						},
						{
							"components": [
								{
									"internalType": "string",
									"name": "networkaddress",
									"type": "string"
								},
								{
									"internalType": "address",
									"name": "nodeidentity",
									"type": "address"
								}
							],
							"internalType": "struct VerusObjectsNotarization.CNodeData[]",
							"name": "nodes",
							"type": "tuple[]"
						}
					],
					"internalType": "struct VerusObjectsNotarization.CPBaaSNotarization",
					"name": "_pbaasNotarization",
					"type": "tuple"
				},
				{
					"internalType": "uint8[]",
					"name": "_vs",
					"type": "uint8[]"
				},
				{
					"internalType": "bytes32[]",
					"name": "_rs",
					"type": "bytes32[]"
				},
				{
					"internalType": "bytes32[]",
					"name": "_ss",
					"type": "bytes32[]"
				},
				{
					"internalType": "uint32[]",
					"name": "blockheights",
					"type": "uint32[]"
				},
				{
					"internalType": "address[]",
					"name": "notaryAddress",
					"type": "address[]"
				}
			],
			"name": "setLatestData",
			"outputs": [
				{
					"internalType": "string",
					"name": "output",
					"type": "string"
				}
			],
			"stateMutability": "nonpayable",
			"type": "function"
		},
		{
			"inputs": [],
			"name": "upgradedAddress",
			"outputs": [
				{
					"internalType": "address",
					"name": "",
					"type": "address"
				}
			],
			"stateMutability": "view",
			"type": "function"
		}
	]
}