{
	"data": {
		"bytecode": {
			"linkReferences": {},
			"object": "6080604052600d600060196101000a81548160ff021916908360ff1602179055507308613086f4b1669cad836e1e5582e1fe6167450d60601b600360006101000a81548173ffffffffffffffffffffffffffffffffffffffff021916908360601c02179055503480156200007257600080fd5b50604051620045563803806200455683398181016040528101906200009891906200040b565b82600260006101000a81548173ffffffffffffffffffffffffffffffffffffffff021916908373ffffffffffffffffffffffffffffffffffffffff16021790555083600160006101000a81548173ffffffffffffffffffffffffffffffffffffffff021916908373ffffffffffffffffffffffffffffffffffffffff16021790555060008060046101000a81548160ff0219169083151502179055506000600a60006101000a81548160ff021916908360ff16021790555060008060006101000a81548163ffffffff021916908363ffffffff16021790555060005b825181101562000347576001600460008584815181106200019157fe5b602002602001015173ffffffffffffffffffffffffffffffffffffffff1673ffffffffffffffffffffffffffffffffffffffff16815260200190815260200160002060006101000a81548160ff021916908315150217905550818181518110620001f757fe5b6020026020010151600560008584815181106200021057fe5b602002602001015173ffffffffffffffffffffffffffffffffffffffff1673ffffffffffffffffffffffffffffffffffffffff16815260200190815260200160002060006101000a81548173ffffffffffffffffffffffffffffffffffffffff021916908373ffffffffffffffffffffffffffffffffffffffff16021790555060068382815181106200029f57fe5b60200260200101519080600181540180825580915050600190039060005260206000200160009091909190916101000a81548173ffffffffffffffffffffffffffffffffffffffff021916908373ffffffffffffffffffffffffffffffffffffffff160217905550600a600081819054906101000a900460ff168092919060010191906101000a81548160ff021916908360ff16021790555050808060010191505062000174565b50505050506200055c565b6000620003696200036384620004dd565b620004a9565b905080838252602082019050828560208602820111156200038957600080fd5b60005b85811015620003bd5781620003a28882620003c7565b8452602084019350602083019250506001810190506200038c565b5050509392505050565b600081519050620003d88162000542565b92915050565b600082601f830112620003f057600080fd5b81516200040284826020860162000352565b91505092915050565b600080600080608085870312156200042257600080fd5b60006200043287828801620003c7565b94505060206200044587828801620003c7565b935050604085015167ffffffffffffffff8111156200046357600080fd5b6200047187828801620003de565b925050606085015167ffffffffffffffff8111156200048f57600080fd5b6200049d87828801620003de565b91505092959194509250565b6000604051905081810181811067ffffffffffffffff82111715620004d357620004d262000540565b5b8060405250919050565b600067ffffffffffffffff821115620004fb57620004fa62000540565b5b602082029050602081019050919050565b6000620005198262000520565b9050919050565b600073ffffffffffffffffffffffffffffffffffffffff82169050919050565bfe5b6200054d816200050c565b81146200055957600080fd5b50565b613fea806200056c6000396000f3fe608060405234801561001057600080fd5b50600436106101215760003560e01c806390ab6442116100ad578063b59de70611610071578063b59de7061461035e578063d4e032331461038e578063e7b3c875146103ac578063ec48ae3c146103dc578063f13eed97146103fa57610121565b806390ab64421461027a57806392a31082146102aa578063aaf34b94146102da578063add21b3b146102f8578063b43fe1de1461032e57610121565b806326976e3f116100f457806326976e3f146101ae5780634b60ae63146101cc5780636e080816146101ea578063786a5bc21461021a5780638c87cea71461024a57610121565b80630e136b191461012657806317c868751461014457806320cd6ba114610160578063250dea531461017e575b600080fd5b61012e61042a565b60405161013b919061366d565b60405180910390f35b61015e60048036038101906101599190612578565b61043d565b005b6101686104ea565b60405161017591906138fe565b60405180910390f35b6101986004803603810190610193919061254f565b61058e565b6040516101a59190613630565b60405180910390f35b6101b66105c1565b6040516101c39190613630565b60405180910390f35b6101d46105e7565b6040516101e191906138e3565b60405180910390f35b61020460048036038101906101ff9190612865565b6105fb565b60405161021191906138e3565b60405180910390f35b610234600480360381019061022f919061274c565b610635565b6040516102419190613630565b60405180910390f35b610264600480360381019061025f919061274c565b6108ba565b6040516102719190613779565b60405180910390f35b610294600480360381019061028f9190612660565b6109be565b6040516102a1919061366d565b60405180910390f35b6102c460048036038101906102bf919061274c565b610ab3565b6040516102d191906138e3565b60405180910390f35b6102e26111f9565b6040516102ef919061364b565b60405180910390f35b610312600480360381019061030d919061288e565b611287565b604051610325979695949392919061370a565b60405180910390f35b61034860048036038101906103439190612578565b611313565b604051610355919061366d565b60405180910390f35b6103786004803603810190610373919061254f565b6114c8565b604051610385919061366d565b60405180910390f35b6103966114e8565b6040516103a391906138ad565b60405180910390f35b6103c660048036038101906103c1919061288e565b611604565b6040516103d39190613688565b60405180910390f35b6103e461161c565b6040516103f191906138c8565b60405180910390f35b610414600480360381019061040f919061254f565b611629565b604051610421919061366d565b60405180910390f35b600060049054906101000a900460ff1681565b61044a8585858585611313565b156104e3576001600060046101000a81548160ff02191690831515021790555084600060056101000a81548173ffffffffffffffffffffffffffffffffffffffff021916908373ffffffffffffffffffffffffffffffffffffffff1602179055507fcc358699805e9a8b7f77b522628c7cb9abd07d9efb86b6fb616af1609036a99e856040516104da9190613630565b60405180910390a15b5050505050565b60006001600a60009054906101000a900460ff1660ff16148061051f57506002600a60009054906101000a900460ff1660ff16145b1561052d576001905061058b565b600060016002600a60009054906101000a900460ff1660ff168161054d57fe5b040160ff169050600060199054906101000a900460ff1660ff1681111561058657600060199054906101000a900460ff1691505061058b565b809150505b90565b60056020528060005260406000206000915054906101000a900473ffffffffffffffffffffffffffffffffffffffff1681565b600060059054906101000a900473ffffffffffffffffffffffffffffffffffffffff1681565b60008054906101000a900463ffffffff1681565b6009818154811061060b57600080fd5b9060005260206000209060089182820401919006600402915054906101000a900463ffffffff1681565b6000806000600260009054906101000a900473ffffffffffffffffffffffffffffffffffffffff1673ffffffffffffffffffffffffffffffffffffffff1663892e29378a6040518263ffffffff1660e01b8152600401610695919061385b565b60006040518083038186803b1580156106ad57600080fd5b505afa1580156106c1573d6000803e3d6000fd5b505050506040513d6000823e3d601f19601f820116820180604052508101906106ea919061270b565b905060005b85518110156108aa5760006001600360009054906101000a900460601b73a6ef9ea235635e328124ff3429db9f9e91b64e2d600260009054906101000a900473ffffffffffffffffffffffffffffffffffffffff1673ffffffffffffffffffffffffffffffffffffffff1663cecb30438b878151811061076b57fe5b60200260200101516040518263ffffffff1660e01b815260040161078f91906138e3565b60006040518083038186803b1580156107a757600080fd5b505afa1580156107bb573d6000803e3d6000fd5b505050506040513d6000823e3d601f19601f820116820180604052508101906107e4919061270b565b8986815181106107f057fe5b6020026020010151878051906020012060405160200161081091906135ad565b604051602081830303815290604052604051602001610834969594939291906135c8565b60405160208183030381529060405290506000818051906020012090506108998160048d868151811061086357fe5b6020026020010151038c868151811061087857fe5b60200260200101518c878151811061088c57fe5b6020026020010151611697565b9450505080806001019150506106ef565b5081925050509695505050505050565b60606000600260009054906101000a900473ffffffffffffffffffffffffffffffffffffffff1673ffffffffffffffffffffffffffffffffffffffff1663892e2937896040518263ffffffff1660e01b8152600401610919919061385b565b60006040518083038186803b15801561093157600080fd5b505afa158015610945573d6000803e3d6000fd5b505050506040513d6000823e3d601f19601f8201168201806040525081019061096e919061270b565b9050600080600060606040518060400160405280600581526020017f7374617274000000000000000000000000000000000000000000000000000000815250955050505050509695505050505050565b6000806000805b8651811015610a7d57610a13888683815181106109de57fe5b60200260200101518984815181106109f257fe5b6020026020010151898581518110610a0657fe5b6020026020010151611697565b9250600460008473ffffffffffffffffffffffffffffffffffffffff1673ffffffffffffffffffffffffffffffffffffffff16815260200190815260200160002060009054906101000a900460ff1615610a705781806001019250505b80806001019150506109c5565b506000610a886104ea565b90508060ff168260ff1610610aa35760019350505050610aab565b600093505050505b949350505050565b60008060049054906101000a900460ff1615610b04576040517f08c379a0000000000000000000000000000000000000000000000000000000008152600401610afb906137bb565b60405180910390fd5b83518551148015610b16575085518551145b610b55576040517f08c379a0000000000000000000000000000000000000000000000000000000008152600401610b4c906137fb565b60405180910390fd5b60008054906101000a900463ffffffff1663ffffffff168760a0015163ffffffff1611610bb7576040517f08c379a0000000000000000000000000000000000000000000000000000000008152600401610bae9061381b565b60405180910390fd5b6000600260009054906101000a900473ffffffffffffffffffffffffffffffffffffffff1673ffffffffffffffffffffffffffffffffffffffff1663892e2937896040518263ffffffff1660e01b8152600401610c14919061385b565b60006040518083038186803b158015610c2c57600080fd5b505afa158015610c40573d6000803e3d6000fd5b505050506040513d6000823e3d601f19601f82011682018060405250810190610c69919061270b565b90506000806000606060005b8851811015610efa576001600360009054906101000a900460601b73a6ef9ea235635e328124ff3429db9f9e91b64e2d600260009054906101000a900473ffffffffffffffffffffffffffffffffffffffff1673ffffffffffffffffffffffffffffffffffffffff1663cecb30438d8681518110610cef57fe5b60200260200101516040518263ffffffff1660e01b8152600401610d1391906138e3565b60006040518083038186803b158015610d2b57600080fd5b505afa158015610d3f573d6000803e3d6000fd5b505050506040513d6000823e3d601f19601f82011682018060405250810190610d68919061270b565b8b8581518110610d7457fe5b60200260200101518a80519060200120604051602001610d9491906135ad565b604051602081830303815290604052604051602001610db8969594939291906135c8565b604051602081830303815290604052915081805190602001209450610e1b8560048e8481518110610de557fe5b6020026020010151038d8481518110610dfa57fe5b60200260200101518d8581518110610e0e57fe5b6020026020010151611697565b935060056000898381518110610e2d57fe5b602002602001015173ffffffffffffffffffffffffffffffffffffffff1673ffffffffffffffffffffffffffffffffffffffff16815260200190815260200160002060009054906101000a900473ffffffffffffffffffffffffffffffffffffffff1673ffffffffffffffffffffffffffffffffffffffff168473ffffffffffffffffffffffffffffffffffffffff161415610ecc5782806001019350505b600060199054906101000a900460ff1660ff168360ff1610610eed57610efa565b8080600101915050610c75565b50610f036104ea565b60ff168260ff16106111d75760005b8c61014001515181101561118c5773a6ef9ea235635e328124ff3429db9f9e91b64e2d73ffffffffffffffffffffffffffffffffffffffff168d61014001518281518110610f5c57fe5b60200260200101516040015173ffffffffffffffffffffffffffffffffffffffff16141561117f578c61014001518181518110610f9557fe5b602002602001015160800151600860008f60a0015163ffffffff1663ffffffff168152602001908152602001600020819055508c61014001518181518110610fd957fe5b6020026020010151600760008f60a0015163ffffffff1663ffffffff16815260200190815260200160002060008201518160000160006101000a81548161ffff021916908360010b61ffff16021790555060208201518160000160026101000a81548161ffff021916908360010b61ffff16021790555060408201518160000160046101000a81548173ffffffffffffffffffffffffffffffffffffffff021916908373ffffffffffffffffffffffffffffffffffffffff16021790555060608201518160000160186101000a81548163ffffffff021916908363ffffffff1602179055506080820151816001015560a0820151816002015560c0820151816003015590505060098d60a0015190806001815401808255809150506001900390600052602060002090600891828204019190066004029091909190916101000a81548163ffffffff021916908363ffffffff1602179055508c60a0015163ffffffff1660008054906101000a900463ffffffff1663ffffffff16101561117e578c60a001516000806101000a81548163ffffffff021916908363ffffffff1602179055505b5b8080600101915050610f12565b507f3c3d32b52a6aef5732cab1fbc27156fba0fa8570f7a72c63571cab9a3ff66dab8c60008054906101000a900463ffffffff166040516111ce92919061387d565b60405180910390a15b60008054906101000a900463ffffffff16955050505050509695505050505050565b6060600680548060200260200160405190810160405280929190818152602001828054801561127d57602002820191906000526020600020905b8160009054906101000a900473ffffffffffffffffffffffffffffffffffffffff1673ffffffffffffffffffffffffffffffffffffffff1681526020019060010190808311611233575b5050505050905090565b60076020528060005260406000206000915090508060000160009054906101000a900460010b908060000160029054906101000a900460010b908060000160049054906101000a900473ffffffffffffffffffffffffffffffffffffffff16908060000160189054906101000a900463ffffffff16908060010154908060020154908060030154905087565b600061131e33611629565b61135d576040517f08c379a00000000000000000000000000000000000000000000000000000000081526004016113549061379b565b60405180910390fd5b6000600160009054906101000a900473ffffffffffffffffffffffffffffffffffffffff1673ffffffffffffffffffffffffffffffffffffffff16632cd0cff2886040516020016113ae9190613592565b6040516020818303038152906040526040518263ffffffff1660e01b81526004016113d991906136e8565b602060405180830381600087803b1580156113f357600080fd5b505af1158015611407573d6000803e3d6000fd5b505050506040513d601f19601f8201168201806040525081019061142b9190612637565b905085811461146f576040517f08c379a00000000000000000000000000000000000000000000000000000000081526004016114669061383b565b60405180910390fd5b61147b868585886109be565b6114ba576040517f08c379a00000000000000000000000000000000000000000000000000000000081526004016114b1906137db565b60405180910390fd5b600191505095945050505050565b60046020528060005260406000206000915054906101000a900460ff1681565b6114f06116f7565b600760008060009054906101000a900463ffffffff1663ffffffff1663ffffffff1681526020019081526020016000206040518060e00160405290816000820160009054906101000a900460010b60010b60010b81526020016000820160029054906101000a900460010b60010b60010b81526020016000820160049054906101000a900473ffffffffffffffffffffffffffffffffffffffff1673ffffffffffffffffffffffffffffffffffffffff1673ffffffffffffffffffffffffffffffffffffffff1681526020016000820160189054906101000a900463ffffffff1663ffffffff1663ffffffff1681526020016001820154815260200160028201548152602001600382015481525050905090565b60086020528060005260406000206000915090505481565b6000600980549050905090565b600060011515600460008473ffffffffffffffffffffffffffffffffffffffff1673ffffffffffffffffffffffffffffffffffffffff16815260200190815260200160002060009054906101000a900460ff161515141561168d5760019050611692565b600090505b919050565b600080600186868686604051600081526020016040526040516116bd94939291906136a3565b6020604051602081039080840390855afa1580156116df573d6000803e3d6000fd5b50505060206040510351905080915050949350505050565b6040518060e00160405280600060010b8152602001600060010b8152602001600073ffffffffffffffffffffffffffffffffffffffff168152602001600063ffffffff1681526020016000801916815260200160008019168152602001600080191681525090565b600061177261176d8461394a565b613919565b9050808382526020820190508285602086028201111561179157600080fd5b60005b858110156117c157816117a78882611bf5565b845260208401935060208301925050600181019050611794565b5050509392505050565b60006117de6117d984613976565b613919565b905080838252602082019050828560208602820111156117fd57600080fd5b60005b8581101561182d57816118138882611dae565b845260208401935060208301925050600181019050611800565b5050509392505050565b600061184a611845846139a2565b613919565b9050808382526020820190508285602086028201111561186957600080fd5b60005b85811015611899578161187f8882611e17565b84526020840193506020830192505060018101905061186c565b5050509392505050565b60006118b66118b1846139ce565b613919565b905080838252602082019050828560208602820111156118d557600080fd5b60005b8581101561190557816118eb8882611e2c565b8452602084019350602083019250506001810190506118d8565b5050509392505050565b600061192261191d846139fa565b613919565b9050808382526020820190508260005b8581101561196257813585016119488882612157565b845260208401935060208301925050600181019050611932565b5050509392505050565b600061197f61197a84613a26565b613919565b905080838252602082019050828560e086028201111561199e57600080fd5b60005b858110156119ce57816119b4888261233a565b845260208401935060e083019250506001810190506119a1565b5050509392505050565b60006119eb6119e684613a52565b613919565b9050808382526020820190508260005b85811015611a2b5781358501611a118882612482565b8452602084019350602083019250506001810190506119fb565b5050509392505050565b6000611a48611a4384613a7e565b613919565b90508083825260208201905082856020860282011115611a6757600080fd5b60005b85811015611a975781611a7d88826124fb565b845260208401935060208301925050600181019050611a6a565b5050509392505050565b6000611ab4611aaf84613aaa565b613919565b90508083825260208201905082856020860282011115611ad357600080fd5b60005b85811015611b035781611ae98882612525565b845260208401935060208301925050600181019050611ad6565b5050509392505050565b6000611b20611b1b84613ad6565b613919565b90508083825260208201905082856020860282011115611b3f57600080fd5b60005b85811015611b6f5781611b55888261253a565b845260208401935060208301925050600181019050611b42565b5050509392505050565b6000611b8c611b8784613b02565b613919565b905082815260208101848484011115611ba457600080fd5b611baf848285613e24565b509392505050565b6000611bca611bc584613b32565b613919565b905082815260208101848484011115611be257600080fd5b611bed848285613e15565b509392505050565b600081359050611c0481613ece565b92915050565b600082601f830112611c1b57600080fd5b8135611c2b84826020860161175f565b91505092915050565b600082601f830112611c4557600080fd5b8135611c558482602086016117cb565b91505092915050565b600082601f830112611c6f57600080fd5b8135611c7f848260208601611837565b91505092915050565b600082601f830112611c9957600080fd5b8135611ca98482602086016118a3565b91505092915050565b600082601f830112611cc357600080fd5b8135611cd384826020860161190f565b91505092915050565b600082601f830112611ced57600080fd5b8135611cfd84826020860161196c565b91505092915050565b600082601f830112611d1757600080fd5b8135611d278482602086016119d8565b91505092915050565b600082601f830112611d4157600080fd5b8135611d51848260208601611a35565b91505092915050565b600082601f830112611d6b57600080fd5b8135611d7b848260208601611aa1565b91505092915050565b600082601f830112611d9557600080fd5b8135611da5848260208601611b0d565b91505092915050565b600081359050611dbd81613ee5565b92915050565b600081519050611dd281613ee5565b92915050565b600082601f830112611de957600080fd5b8151611df9848260208601611b79565b91505092915050565b600081359050611e1181613efc565b92915050565b600081359050611e2681613f13565b92915050565b600081359050611e3b81613f2a565b92915050565b600082601f830112611e5257600080fd5b8135611e62848260208601611bb7565b91505092915050565b60006102a08284031215611e7e57600080fd5b611e896102a0613919565b90506000611e99848285016124e6565b6000830152506020611ead848285016124e6565b6020830152506040611ec184828501611bf5565b604083015250606082013567ffffffffffffffff811115611ee157600080fd5b611eed84828501611d30565b606083015250608082013567ffffffffffffffff811115611f0d57600080fd5b611f1984828501611c5e565b60808301525060a082013567ffffffffffffffff811115611f3957600080fd5b611f4584828501611c88565b60a08301525060c0611f5984828501611e2c565b60c08301525060e0611f6d84828501611e2c565b60e083015250610100611f8284828501611e2c565b61010083015250610120611f9884828501611e2c565b61012083015250610140611fae84828501611e2c565b61014083015250610160611fc484828501611e2c565b61016083015250610180611fda84828501611e2c565b610180830152506101a082013567ffffffffffffffff811115611ffc57600080fd5b61200884828501611c88565b6101a0830152506101c082013567ffffffffffffffff81111561202a57600080fd5b61203684828501611c88565b6101c0830152506101e082013567ffffffffffffffff81111561205857600080fd5b61206484828501611c88565b6101e08301525061020082013567ffffffffffffffff81111561208657600080fd5b61209284828501611c88565b6102008301525061022082013567ffffffffffffffff8111156120b457600080fd5b6120c084828501611c88565b6102208301525061024082013567ffffffffffffffff8111156120e257600080fd5b6120ee84828501611c88565b6102408301525061026082013567ffffffffffffffff81111561211057600080fd5b61211c84828501611c5e565b6102608301525061028082013567ffffffffffffffff81111561213e57600080fd5b61214a84828501611c88565b6102808301525092915050565b60006040828403121561216957600080fd5b6121736040613919565b9050600082013567ffffffffffffffff81111561218f57600080fd5b61219b84828501611e41565b60008301525060206121af84828501611bf5565b60208301525092915050565b60006101c082840312156121ce57600080fd5b6121d9610180613919565b905060006121e984828501612525565b60008301525060206121fd84828501612525565b6020830152506040612211848285016123ea565b604083015250608061222584828501611bf5565b60608301525060a082013567ffffffffffffffff81111561224557600080fd5b61225184828501611e6b565b60808301525060c061226584828501612525565b60a08301525060e061227984828501612436565b60c08301525061012061228e84828501611dae565b60e0830152506101406122a384828501612525565b6101008301525061016082013567ffffffffffffffff8111156122c557600080fd5b6122d184828501611d06565b6101208301525061018082013567ffffffffffffffff8111156122f357600080fd5b6122ff84828501611cdc565b610140830152506101a082013567ffffffffffffffff81111561232157600080fd5b61232d84828501611cb2565b6101608301525092915050565b600060e0828403121561234c57600080fd5b61235660e0613919565b9050600061236684828501611e02565b600083015250602061237a84828501611e02565b602083015250604061238e84828501611bf5565b60408301525060606123a284828501612525565b60608301525060806123b684828501611dae565b60808301525060a06123ca84828501611dae565b60a08301525060c06123de84828501611dae565b60c08301525092915050565b6000604082840312156123fc57600080fd5b6124066040613919565b905060006124168482850161253a565b600083015250602061242a84828501611bf5565b60208301525092915050565b60006040828403121561244857600080fd5b6124526040613919565b9050600061246284828501611dae565b600083015250602061247684828501612525565b60208301525092915050565b60006040828403121561249457600080fd5b61249e6040613919565b905060006124ae84828501611bf5565b600083015250602082013567ffffffffffffffff8111156124ce57600080fd5b6124da84828501611e6b565b60208301525092915050565b6000813590506124f581613f41565b92915050565b60008135905061250a81613f58565b92915050565b60008135905061251f81613f6f565b92915050565b60008135905061253481613f86565b92915050565b60008135905061254981613f9d565b92915050565b60006020828403121561256157600080fd5b600061256f84828501611bf5565b91505092915050565b600080600080600060a0868803121561259057600080fd5b600061259e88828901611bf5565b95505060206125af88828901611dae565b945050604086013567ffffffffffffffff8111156125cc57600080fd5b6125d888828901611d84565b935050606086013567ffffffffffffffff8111156125f557600080fd5b61260188828901611c34565b925050608086013567ffffffffffffffff81111561261e57600080fd5b61262a88828901611c34565b9150509295509295909350565b60006020828403121561264957600080fd5b600061265784828501611dc3565b91505092915050565b6000806000806080858703121561267657600080fd5b600061268487828801611dae565b945050602085013567ffffffffffffffff8111156126a157600080fd5b6126ad87828801611c34565b935050604085013567ffffffffffffffff8111156126ca57600080fd5b6126d687828801611c34565b925050606085013567ffffffffffffffff8111156126f357600080fd5b6126ff87828801611d84565b91505092959194509250565b60006020828403121561271d57600080fd5b600082015167ffffffffffffffff81111561273757600080fd5b61274384828501611dd8565b91505092915050565b60008060008060008060c0878903121561276557600080fd5b600087013567ffffffffffffffff81111561277f57600080fd5b61278b89828a016121bb565b965050602087013567ffffffffffffffff8111156127a857600080fd5b6127b489828a01611d84565b955050604087013567ffffffffffffffff8111156127d157600080fd5b6127dd89828a01611c34565b945050606087013567ffffffffffffffff8111156127fa57600080fd5b61280689828a01611c34565b935050608087013567ffffffffffffffff81111561282357600080fd5b61282f89828a01611d5a565b92505060a087013567ffffffffffffffff81111561284c57600080fd5b61285889828a01611c0a565b9150509295509295509295565b60006020828403121561287757600080fd5b600061288584828501612510565b91505092915050565b6000602082840312156128a057600080fd5b60006128ae84828501612525565b91505092915050565b60006128c38383612957565b60208301905092915050565b60006128db8383612d2f565b60208301905092915050565b60006128f38383612d3e565b60208301905092915050565b600061290b8383613204565b905092915050565b600061291f838361335b565b60e08301905092915050565b600061293783836134d5565b905092915050565b600061294b8383613512565b60208301905092915050565b61296081613d45565b82525050565b61296f81613d45565b82525050565b61298661298182613d45565b613e57565b82525050565b600061299782613bd2565b6129a18185613c90565b93506129ac83613b62565b8060005b838110156129dd5781516129c488826128b7565b97506129cf83613c35565b9250506001810190506129b0565b5085935050505092915050565b60006129f582613bdd565b6129ff8185613ca1565b9350612a0a83613b72565b8060005b83811015612a3b578151612a2288826128cf565b9750612a2d83613c42565b925050600181019050612a0e565b5085935050505092915050565b6000612a5382613be8565b612a5d8185613cb2565b9350612a6883613b82565b8060005b83811015612a99578151612a8088826128e7565b9750612a8b83613c4f565b925050600181019050612a6c565b5085935050505092915050565b6000612ab182613bf3565b612abb8185613cc3565b935083602082028501612acd85613b92565b8060005b85811015612b095784840389528151612aea85826128ff565b9450612af583613c5c565b925060208a01995050600181019050612ad1565b50829750879550505050505092915050565b6000612b2682613bfe565b612b308185613cd4565b9350612b3b83613ba2565b8060005b83811015612b6c578151612b538882612913565b9750612b5e83613c69565b925050600181019050612b3f565b5085935050505092915050565b6000612b8482613c09565b612b8e8185613ce5565b935083602082028501612ba085613bb2565b8060005b85811015612bdc5784840389528151612bbd858261292b565b9450612bc883613c76565b925060208a01995050600181019050612ba4565b50829750879550505050505092915050565b6000612bf982613c14565b612c038185613cf6565b9350612c0e83613bc2565b8060005b83811015612c3f578151612c26888261293f565b9750612c3183613c83565b925050600181019050612c12565b5085935050505092915050565b612c5581613d57565b82525050565b612c6c612c6782613d63565b613e69565b82525050565b612c7b81613d8f565b82525050565b612c8a81613d8f565b82525050565b612ca1612c9c82613d8f565b613e73565b82525050565b6000612cb282613c1f565b612cbc8185613d07565b9350612ccc818560208601613e24565b612cd581613ea3565b840191505092915050565b6000612ceb82613c1f565b612cf58185613d18565b9350612d05818560208601613e24565b80840191505092915050565b612d1a81613d99565b82525050565b612d2981613d99565b82525050565b612d3881613da6565b82525050565b612d4781613db3565b82525050565b6000612d5882613c2a565b612d628185613d23565b9350612d72818560208601613e24565b612d7b81613ea3565b840191505092915050565b6000612d9182613c2a565b612d9b8185613d34565b9350612dab818560208601613e24565b612db481613ea3565b840191505092915050565b6000612dcc602983613d34565b91507f4f6e6c792061206e6f746172792063616e20646570726563617465207468697360008301527f20636f6e747261637400000000000000000000000000000000000000000000006020830152604082019050919050565b6000612e32601c83613d34565b91507f436f6e747261637420686173206265656e2064657072656361746564000000006000830152602082019050919050565b6000612e72603083613d34565b91507f4465707265636174696f6e20726571756972657320746865206164647265737360008301527f20746f206265206e6f746172697a6564000000000000000000000000000000006020830152604082019050919050565b6000612ed8602883613d34565b91507f5369676e617475726520617272617973206d757374206265206f66206571756160008301527f6c206c656e6774680000000000000000000000000000000000000000000000006020830152604082019050919050565b6000612f3e603683613d34565b91507f426c6f636b20486569676874206d75737420626520677265617465722074686160008301527f6e2063757272656e7420626c6f636b20686569676874000000000000000000006020830152604082019050919050565b6000612fa4603483613d34565b91507f486173686564206164647265737320646f6573206e6f74206d6174636820616460008301527f647265737320686173682070617373656420696e0000000000000000000000006020830152604082019050919050565b60006102a0830160008301516130166000860182613521565b5060208301516130296020860182613521565b50604083015161303c6040860182612957565b50606083015184820360608601526130548282612bee565b9150506080830151848203608086015261306e82826129ea565b91505060a083015184820360a08601526130888282612a48565b91505060c083015161309d60c0860182612d3e565b5060e08301516130b060e0860182612d3e565b506101008301516130c5610100860182612d3e565b506101208301516130da610120860182612d3e565b506101408301516130ef610140860182612d3e565b50610160830151613104610160860182612d3e565b50610180830151613119610180860182612d3e565b506101a08301518482036101a08601526131338282612a48565b9150506101c08301518482036101c086015261314f8282612a48565b9150506101e08301518482036101e086015261316b8282612a48565b9150506102008301518482036102008601526131878282612a48565b9150506102208301518482036102208601526131a38282612a48565b9150506102408301518482036102408601526131bf8282612a48565b9150506102608301518482036102608601526131db82826129ea565b9150506102808301518482036102808601526131f78282612a48565b9150508091505092915050565b600060408301600083015184820360008601526132218282612d4d565b91505060208301516132366020860182612957565b508091505092915050565b60006101c08301600083015161325a600086018261353f565b50602083015161326d602086018261353f565b5060408301516132806040860182613477565b5060608301516132936080860182612957565b50608083015184820360a08601526132ab8282612ffd565b91505060a08301516132c060c086018261353f565b5060c08301516132d360e08601826134a6565b5060e08301516132e7610120860182612c72565b506101008301516132fc61014086018261353f565b506101208301518482036101608601526133168282612b79565b9150506101408301518482036101808601526133328282612b1b565b9150506101608301518482036101a086015261334e8282612aa6565b9150508091505092915050565b60e0820160008201516133716000850182612d11565b5060208201516133846020850182612d11565b5060408201516133976040850182612957565b5060608201516133aa606085018261353f565b5060808201516133bd6080850182612c72565b5060a08201516133d060a0850182612c72565b5060c08201516133e360c0850182612c72565b50505050565b60e0820160008201516133ff6000850182612d11565b5060208201516134126020850182612d11565b5060408201516134256040850182612957565b506060820151613438606085018261353f565b50608082015161344b6080850182612c72565b5060a082015161345e60a0850182612c72565b5060c082015161347160c0850182612c72565b50505050565b60408201600082015161348d600085018261355d565b5060208201516134a06020850182612957565b50505050565b6040820160008201516134bc6000850182612c72565b5060208201516134cf602085018261353f565b50505050565b60006040830160008301516134ed6000860182612957565b50602083015184820360208601526135058282612ffd565b9150508091505092915050565b61351b81613dce565b82525050565b61352a81613dc0565b82525050565b61353981613dee565b82525050565b61354881613df8565b82525050565b61355781613df8565b82525050565b61356681613e08565b82525050565b61357581613e08565b82525050565b61358c61358782613e08565b613e8f565b82525050565b600061359e8284612975565b60148201915081905092915050565b60006135b98284612c90565b60208201915081905092915050565b60006135d4828961357b565b6001820191506135e48288612c5b565b6014820191506135f48287612975565b6014820191506136048286612ce0565b91506136108285612975565b6014820191506136208284612ce0565b9150819050979650505050505050565b60006020820190506136456000830184612966565b92915050565b60006020820190508181036000830152613665818461298c565b905092915050565b60006020820190506136826000830184612c4c565b92915050565b600060208201905061369d6000830184612c81565b92915050565b60006080820190506136b86000830187612c81565b6136c5602083018661356c565b6136d26040830185612c81565b6136df6060830184612c81565b95945050505050565b600060208201905081810360008301526137028184612ca7565b905092915050565b600060e08201905061371f600083018a612d20565b61372c6020830189612d20565b6137396040830188612966565b613746606083018761354e565b6137536080830186612c81565b61376060a0830185612c81565b61376d60c0830184612c81565b98975050505050505050565b600060208201905081810360008301526137938184612d86565b905092915050565b600060208201905081810360008301526137b481612dbf565b9050919050565b600060208201905081810360008301526137d481612e25565b9050919050565b600060208201905081810360008301526137f481612e65565b9050919050565b6000602082019050818103600083015261381481612ecb565b9050919050565b6000602082019050818103600083015261383481612f31565b9050919050565b6000602082019050818103600083015261385481612f97565b9050919050565b600060208201905081810360008301526138758184613241565b905092915050565b600060408201905081810360008301526138978185613241565b90506138a6602083018461354e565b9392505050565b600060e0820190506138c260008301846133e9565b92915050565b60006020820190506138dd6000830184613530565b92915050565b60006020820190506138f8600083018461354e565b92915050565b6000602082019050613913600083018461356c565b92915050565b6000604051905081810181811067ffffffffffffffff821117156139405761393f613ea1565b5b8060405250919050565b600067ffffffffffffffff82111561396557613964613ea1565b5b602082029050602081019050919050565b600067ffffffffffffffff82111561399157613990613ea1565b5b602082029050602081019050919050565b600067ffffffffffffffff8211156139bd576139bc613ea1565b5b602082029050602081019050919050565b600067ffffffffffffffff8211156139e9576139e8613ea1565b5b602082029050602081019050919050565b600067ffffffffffffffff821115613a1557613a14613ea1565b5b602082029050602081019050919050565b600067ffffffffffffffff821115613a4157613a40613ea1565b5b602082029050602081019050919050565b600067ffffffffffffffff821115613a6d57613a6c613ea1565b5b602082029050602081019050919050565b600067ffffffffffffffff821115613a9957613a98613ea1565b5b602082029050602081019050919050565b600067ffffffffffffffff821115613ac557613ac4613ea1565b5b602082029050602081019050919050565b600067ffffffffffffffff821115613af157613af0613ea1565b5b602082029050602081019050919050565b600067ffffffffffffffff821115613b1d57613b1c613ea1565b5b601f19601f8301169050602081019050919050565b600067ffffffffffffffff821115613b4d57613b4c613ea1565b5b601f19601f8301169050602081019050919050565b6000819050602082019050919050565b6000819050602082019050919050565b6000819050602082019050919050565b6000819050602082019050919050565b6000819050602082019050919050565b6000819050602082019050919050565b6000819050602082019050919050565b600081519050919050565b600081519050919050565b600081519050919050565b600081519050919050565b600081519050919050565b600081519050919050565b600081519050919050565b600081519050919050565b600081519050919050565b6000602082019050919050565b6000602082019050919050565b6000602082019050919050565b6000602082019050919050565b6000602082019050919050565b6000602082019050919050565b6000602082019050919050565b600082825260208201905092915050565b600082825260208201905092915050565b600082825260208201905092915050565b600082825260208201905092915050565b600082825260208201905092915050565b600082825260208201905092915050565b600082825260208201905092915050565b600082825260208201905092915050565b600081905092915050565b600082825260208201905092915050565b600082825260208201905092915050565b6000613d5082613dce565b9050919050565b60008115159050919050565b60007fffffffffffffffffffffffffffffffffffffffff00000000000000000000000082169050919050565b6000819050919050565b60008160010b9050919050565b60008160030b9050919050565b60008160070b9050919050565b600061ffff82169050919050565b600073ffffffffffffffffffffffffffffffffffffffff82169050919050565b6000819050919050565b600063ffffffff82169050919050565b600060ff82169050919050565b82818337600083830152505050565b60005b83811015613e42578082015181840152602081019050613e27565b83811115613e51576000848401525b50505050565b6000613e6282613e7d565b9050919050565b6000819050919050565b6000819050919050565b6000613e8882613ec1565b9050919050565b6000613e9a82613eb4565b9050919050565bfe5b6000601f19601f8301169050919050565b60008160f81b9050919050565b60008160601b9050919050565b613ed781613d45565b8114613ee257600080fd5b50565b613eee81613d8f565b8114613ef957600080fd5b50565b613f0581613d99565b8114613f1057600080fd5b50565b613f1c81613da6565b8114613f2757600080fd5b50565b613f3381613db3565b8114613f3e57600080fd5b50565b613f4a81613dc0565b8114613f5557600080fd5b50565b613f6181613dce565b8114613f6c57600080fd5b50565b613f7881613dee565b8114613f8357600080fd5b50565b613f8f81613df8565b8114613f9a57600080fd5b50565b613fa681613e08565b8114613fb157600080fd5b5056fea2646970667358221220903a63d323250fb66d738fa5c477637ed5c129b2474f8e28e601e3a2a367928d64736f6c63430007060033",
			"opcodes": "PUSH1 0x80 PUSH1 0x40 MSTORE PUSH1 0xD PUSH1 0x0 PUSH1 0x19 PUSH2 0x100 EXP DUP2 SLOAD DUP2 PUSH1 0xFF MUL NOT AND SWAP1 DUP4 PUSH1 0xFF AND MUL OR SWAP1 SSTORE POP PUSH20 0x8613086F4B1669CAD836E1E5582E1FE6167450D PUSH1 0x60 SHL PUSH1 0x3 PUSH1 0x0 PUSH2 0x100 EXP DUP2 SLOAD DUP2 PUSH20 0xFFFFFFFFFFFFFFFFFFFFFFFFFFFFFFFFFFFFFFFF MUL NOT AND SWAP1 DUP4 PUSH1 0x60 SHR MUL OR SWAP1 SSTORE POP CALLVALUE DUP1 ISZERO PUSH3 0x72 JUMPI PUSH1 0x0 DUP1 REVERT JUMPDEST POP PUSH1 0x40 MLOAD PUSH3 0x4556 CODESIZE SUB DUP1 PUSH3 0x4556 DUP4 CODECOPY DUP2 DUP2 ADD PUSH1 0x40 MSTORE DUP2 ADD SWAP1 PUSH3 0x98 SWAP2 SWAP1 PUSH3 0x40B JUMP JUMPDEST DUP3 PUSH1 0x2 PUSH1 0x0 PUSH2 0x100 EXP DUP2 SLOAD DUP2 PUSH20 0xFFFFFFFFFFFFFFFFFFFFFFFFFFFFFFFFFFFFFFFF MUL NOT AND SWAP1 DUP4 PUSH20 0xFFFFFFFFFFFFFFFFFFFFFFFFFFFFFFFFFFFFFFFF AND MUL OR SWAP1 SSTORE POP DUP4 PUSH1 0x1 PUSH1 0x0 PUSH2 0x100 EXP DUP2 SLOAD DUP2 PUSH20 0xFFFFFFFFFFFFFFFFFFFFFFFFFFFFFFFFFFFFFFFF MUL NOT AND SWAP1 DUP4 PUSH20 0xFFFFFFFFFFFFFFFFFFFFFFFFFFFFFFFFFFFFFFFF AND MUL OR SWAP1 SSTORE POP PUSH1 0x0 DUP1 PUSH1 0x4 PUSH2 0x100 EXP DUP2 SLOAD DUP2 PUSH1 0xFF MUL NOT AND SWAP1 DUP4 ISZERO ISZERO MUL OR SWAP1 SSTORE POP PUSH1 0x0 PUSH1 0xA PUSH1 0x0 PUSH2 0x100 EXP DUP2 SLOAD DUP2 PUSH1 0xFF MUL NOT AND SWAP1 DUP4 PUSH1 0xFF AND MUL OR SWAP1 SSTORE POP PUSH1 0x0 DUP1 PUSH1 0x0 PUSH2 0x100 EXP DUP2 SLOAD DUP2 PUSH4 0xFFFFFFFF MUL NOT AND SWAP1 DUP4 PUSH4 0xFFFFFFFF AND MUL OR SWAP1 SSTORE POP PUSH1 0x0 JUMPDEST DUP3 MLOAD DUP2 LT ISZERO PUSH3 0x347 JUMPI PUSH1 0x1 PUSH1 0x4 PUSH1 0x0 DUP6 DUP5 DUP2 MLOAD DUP2 LT PUSH3 0x191 JUMPI INVALID JUMPDEST PUSH1 0x20 MUL PUSH1 0x20 ADD ADD MLOAD PUSH20 0xFFFFFFFFFFFFFFFFFFFFFFFFFFFFFFFFFFFFFFFF AND PUSH20 0xFFFFFFFFFFFFFFFFFFFFFFFFFFFFFFFFFFFFFFFF AND DUP2 MSTORE PUSH1 0x20 ADD SWAP1 DUP2 MSTORE PUSH1 0x20 ADD PUSH1 0x0 KECCAK256 PUSH1 0x0 PUSH2 0x100 EXP DUP2 SLOAD DUP2 PUSH1 0xFF MUL NOT AND SWAP1 DUP4 ISZERO ISZERO MUL OR SWAP1 SSTORE POP DUP2 DUP2 DUP2 MLOAD DUP2 LT PUSH3 0x1F7 JUMPI INVALID JUMPDEST PUSH1 0x20 MUL PUSH1 0x20 ADD ADD MLOAD PUSH1 0x5 PUSH1 0x0 DUP6 DUP5 DUP2 MLOAD DUP2 LT PUSH3 0x210 JUMPI INVALID JUMPDEST PUSH1 0x20 MUL PUSH1 0x20 ADD ADD MLOAD PUSH20 0xFFFFFFFFFFFFFFFFFFFFFFFFFFFFFFFFFFFFFFFF AND PUSH20 0xFFFFFFFFFFFFFFFFFFFFFFFFFFFFFFFFFFFFFFFF AND DUP2 MSTORE PUSH1 0x20 ADD SWAP1 DUP2 MSTORE PUSH1 0x20 ADD PUSH1 0x0 KECCAK256 PUSH1 0x0 PUSH2 0x100 EXP DUP2 SLOAD DUP2 PUSH20 0xFFFFFFFFFFFFFFFFFFFFFFFFFFFFFFFFFFFFFFFF MUL NOT AND SWAP1 DUP4 PUSH20 0xFFFFFFFFFFFFFFFFFFFFFFFFFFFFFFFFFFFFFFFF AND MUL OR SWAP1 SSTORE POP PUSH1 0x6 DUP4 DUP3 DUP2 MLOAD DUP2 LT PUSH3 0x29F JUMPI INVALID JUMPDEST PUSH1 0x20 MUL PUSH1 0x20 ADD ADD MLOAD SWAP1 DUP1 PUSH1 0x1 DUP2 SLOAD ADD DUP1 DUP3 SSTORE DUP1 SWAP2 POP POP PUSH1 0x1 SWAP1 SUB SWAP1 PUSH1 0x0 MSTORE PUSH1 0x20 PUSH1 0x0 KECCAK256 ADD PUSH1 0x0 SWAP1 SWAP2 SWAP1 SWAP2 SWAP1 SWAP2 PUSH2 0x100 EXP DUP2 SLOAD DUP2 PUSH20 0xFFFFFFFFFFFFFFFFFFFFFFFFFFFFFFFFFFFFFFFF MUL NOT AND SWAP1 DUP4 PUSH20 0xFFFFFFFFFFFFFFFFFFFFFFFFFFFFFFFFFFFFFFFF AND MUL OR SWAP1 SSTORE POP PUSH1 0xA PUSH1 0x0 DUP2 DUP2 SWAP1 SLOAD SWAP1 PUSH2 0x100 EXP SWAP1 DIV PUSH1 0xFF AND DUP1 SWAP3 SWAP2 SWAP1 PUSH1 0x1 ADD SWAP2 SWAP1 PUSH2 0x100 EXP DUP2 SLOAD DUP2 PUSH1 0xFF MUL NOT AND SWAP1 DUP4 PUSH1 0xFF AND MUL OR SWAP1 SSTORE POP POP DUP1 DUP1 PUSH1 0x1 ADD SWAP2 POP POP PUSH3 0x174 JUMP JUMPDEST POP POP POP POP POP PUSH3 0x55C JUMP JUMPDEST PUSH1 0x0 PUSH3 0x369 PUSH3 0x363 DUP5 PUSH3 0x4DD JUMP JUMPDEST PUSH3 0x4A9 JUMP JUMPDEST SWAP1 POP DUP1 DUP4 DUP3 MSTORE PUSH1 0x20 DUP3 ADD SWAP1 POP DUP3 DUP6 PUSH1 0x20 DUP7 MUL DUP3 ADD GT ISZERO PUSH3 0x389 JUMPI PUSH1 0x0 DUP1 REVERT JUMPDEST PUSH1 0x0 JUMPDEST DUP6 DUP2 LT ISZERO PUSH3 0x3BD JUMPI DUP2 PUSH3 0x3A2 DUP9 DUP3 PUSH3 0x3C7 JUMP JUMPDEST DUP5 MSTORE PUSH1 0x20 DUP5 ADD SWAP4 POP PUSH1 0x20 DUP4 ADD SWAP3 POP POP PUSH1 0x1 DUP2 ADD SWAP1 POP PUSH3 0x38C JUMP JUMPDEST POP POP POP SWAP4 SWAP3 POP POP POP JUMP JUMPDEST PUSH1 0x0 DUP2 MLOAD SWAP1 POP PUSH3 0x3D8 DUP2 PUSH3 0x542 JUMP JUMPDEST SWAP3 SWAP2 POP POP JUMP JUMPDEST PUSH1 0x0 DUP3 PUSH1 0x1F DUP4 ADD SLT PUSH3 0x3F0 JUMPI PUSH1 0x0 DUP1 REVERT JUMPDEST DUP2 MLOAD PUSH3 0x402 DUP5 DUP3 PUSH1 0x20 DUP7 ADD PUSH3 0x352 JUMP JUMPDEST SWAP2 POP POP SWAP3 SWAP2 POP POP JUMP JUMPDEST PUSH1 0x0 DUP1 PUSH1 0x0 DUP1 PUSH1 0x80 DUP6 DUP8 SUB SLT ISZERO PUSH3 0x422 JUMPI PUSH1 0x0 DUP1 REVERT JUMPDEST PUSH1 0x0 PUSH3 0x432 DUP8 DUP3 DUP9 ADD PUSH3 0x3C7 JUMP JUMPDEST SWAP5 POP POP PUSH1 0x20 PUSH3 0x445 DUP8 DUP3 DUP9 ADD PUSH3 0x3C7 JUMP JUMPDEST SWAP4 POP POP PUSH1 0x40 DUP6 ADD MLOAD PUSH8 0xFFFFFFFFFFFFFFFF DUP2 GT ISZERO PUSH3 0x463 JUMPI PUSH1 0x0 DUP1 REVERT JUMPDEST PUSH3 0x471 DUP8 DUP3 DUP9 ADD PUSH3 0x3DE JUMP JUMPDEST SWAP3 POP POP PUSH1 0x60 DUP6 ADD MLOAD PUSH8 0xFFFFFFFFFFFFFFFF DUP2 GT ISZERO PUSH3 0x48F JUMPI PUSH1 0x0 DUP1 REVERT JUMPDEST PUSH3 0x49D DUP8 DUP3 DUP9 ADD PUSH3 0x3DE JUMP JUMPDEST SWAP2 POP POP SWAP3 SWAP6 SWAP2 SWAP5 POP SWAP3 POP JUMP JUMPDEST PUSH1 0x0 PUSH1 0x40 MLOAD SWAP1 POP DUP2 DUP2 ADD DUP2 DUP2 LT PUSH8 0xFFFFFFFFFFFFFFFF DUP3 GT OR ISZERO PUSH3 0x4D3 JUMPI PUSH3 0x4D2 PUSH3 0x540 JUMP JUMPDEST JUMPDEST DUP1 PUSH1 0x40 MSTORE POP SWAP2 SWAP1 POP JUMP JUMPDEST PUSH1 0x0 PUSH8 0xFFFFFFFFFFFFFFFF DUP3 GT ISZERO PUSH3 0x4FB JUMPI PUSH3 0x4FA PUSH3 0x540 JUMP JUMPDEST JUMPDEST PUSH1 0x20 DUP3 MUL SWAP1 POP PUSH1 0x20 DUP2 ADD SWAP1 POP SWAP2 SWAP1 POP JUMP JUMPDEST PUSH1 0x0 PUSH3 0x519 DUP3 PUSH3 0x520 JUMP JUMPDEST SWAP1 POP SWAP2 SWAP1 POP JUMP JUMPDEST PUSH1 0x0 PUSH20 0xFFFFFFFFFFFFFFFFFFFFFFFFFFFFFFFFFFFFFFFF DUP3 AND SWAP1 POP SWAP2 SWAP1 POP JUMP JUMPDEST INVALID JUMPDEST PUSH3 0x54D DUP2 PUSH3 0x50C JUMP JUMPDEST DUP2 EQ PUSH3 0x559 JUMPI PUSH1 0x0 DUP1 REVERT JUMPDEST POP JUMP JUMPDEST PUSH2 0x3FEA DUP1 PUSH3 0x56C PUSH1 0x0 CODECOPY PUSH1 0x0 RETURN INVALID PUSH1 0x80 PUSH1 0x40 MSTORE CALLVALUE DUP1 ISZERO PUSH2 0x10 JUMPI PUSH1 0x0 DUP1 REVERT JUMPDEST POP PUSH1 0x4 CALLDATASIZE LT PUSH2 0x121 JUMPI PUSH1 0x0 CALLDATALOAD PUSH1 0xE0 SHR DUP1 PUSH4 0x90AB6442 GT PUSH2 0xAD JUMPI DUP1 PUSH4 0xB59DE706 GT PUSH2 0x71 JUMPI DUP1 PUSH4 0xB59DE706 EQ PUSH2 0x35E JUMPI DUP1 PUSH4 0xD4E03233 EQ PUSH2 0x38E JUMPI DUP1 PUSH4 0xE7B3C875 EQ PUSH2 0x3AC JUMPI DUP1 PUSH4 0xEC48AE3C EQ PUSH2 0x3DC JUMPI DUP1 PUSH4 0xF13EED97 EQ PUSH2 0x3FA JUMPI PUSH2 0x121 JUMP JUMPDEST DUP1 PUSH4 0x90AB6442 EQ PUSH2 0x27A JUMPI DUP1 PUSH4 0x92A31082 EQ PUSH2 0x2AA JUMPI DUP1 PUSH4 0xAAF34B94 EQ PUSH2 0x2DA JUMPI DUP1 PUSH4 0xADD21B3B EQ PUSH2 0x2F8 JUMPI DUP1 PUSH4 0xB43FE1DE EQ PUSH2 0x32E JUMPI PUSH2 0x121 JUMP JUMPDEST DUP1 PUSH4 0x26976E3F GT PUSH2 0xF4 JUMPI DUP1 PUSH4 0x26976E3F EQ PUSH2 0x1AE JUMPI DUP1 PUSH4 0x4B60AE63 EQ PUSH2 0x1CC JUMPI DUP1 PUSH4 0x6E080816 EQ PUSH2 0x1EA JUMPI DUP1 PUSH4 0x786A5BC2 EQ PUSH2 0x21A JUMPI DUP1 PUSH4 0x8C87CEA7 EQ PUSH2 0x24A JUMPI PUSH2 0x121 JUMP JUMPDEST DUP1 PUSH4 0xE136B19 EQ PUSH2 0x126 JUMPI DUP1 PUSH4 0x17C86875 EQ PUSH2 0x144 JUMPI DUP1 PUSH4 0x20CD6BA1 EQ PUSH2 0x160 JUMPI DUP1 PUSH4 0x250DEA53 EQ PUSH2 0x17E JUMPI JUMPDEST PUSH1 0x0 DUP1 REVERT JUMPDEST PUSH2 0x12E PUSH2 0x42A JUMP JUMPDEST PUSH1 0x40 MLOAD PUSH2 0x13B SWAP2 SWAP1 PUSH2 0x366D JUMP JUMPDEST PUSH1 0x40 MLOAD DUP1 SWAP2 SUB SWAP1 RETURN JUMPDEST PUSH2 0x15E PUSH1 0x4 DUP1 CALLDATASIZE SUB DUP2 ADD SWAP1 PUSH2 0x159 SWAP2 SWAP1 PUSH2 0x2578 JUMP JUMPDEST PUSH2 0x43D JUMP JUMPDEST STOP JUMPDEST PUSH2 0x168 PUSH2 0x4EA JUMP JUMPDEST PUSH1 0x40 MLOAD PUSH2 0x175 SWAP2 SWAP1 PUSH2 0x38FE JUMP JUMPDEST PUSH1 0x40 MLOAD DUP1 SWAP2 SUB SWAP1 RETURN JUMPDEST PUSH2 0x198 PUSH1 0x4 DUP1 CALLDATASIZE SUB DUP2 ADD SWAP1 PUSH2 0x193 SWAP2 SWAP1 PUSH2 0x254F JUMP JUMPDEST PUSH2 0x58E JUMP JUMPDEST PUSH1 0x40 MLOAD PUSH2 0x1A5 SWAP2 SWAP1 PUSH2 0x3630 JUMP JUMPDEST PUSH1 0x40 MLOAD DUP1 SWAP2 SUB SWAP1 RETURN JUMPDEST PUSH2 0x1B6 PUSH2 0x5C1 JUMP JUMPDEST PUSH1 0x40 MLOAD PUSH2 0x1C3 SWAP2 SWAP1 PUSH2 0x3630 JUMP JUMPDEST PUSH1 0x40 MLOAD DUP1 SWAP2 SUB SWAP1 RETURN JUMPDEST PUSH2 0x1D4 PUSH2 0x5E7 JUMP JUMPDEST PUSH1 0x40 MLOAD PUSH2 0x1E1 SWAP2 SWAP1 PUSH2 0x38E3 JUMP JUMPDEST PUSH1 0x40 MLOAD DUP1 SWAP2 SUB SWAP1 RETURN JUMPDEST PUSH2 0x204 PUSH1 0x4 DUP1 CALLDATASIZE SUB DUP2 ADD SWAP1 PUSH2 0x1FF SWAP2 SWAP1 PUSH2 0x2865 JUMP JUMPDEST PUSH2 0x5FB JUMP JUMPDEST PUSH1 0x40 MLOAD PUSH2 0x211 SWAP2 SWAP1 PUSH2 0x38E3 JUMP JUMPDEST PUSH1 0x40 MLOAD DUP1 SWAP2 SUB SWAP1 RETURN JUMPDEST PUSH2 0x234 PUSH1 0x4 DUP1 CALLDATASIZE SUB DUP2 ADD SWAP1 PUSH2 0x22F SWAP2 SWAP1 PUSH2 0x274C JUMP JUMPDEST PUSH2 0x635 JUMP JUMPDEST PUSH1 0x40 MLOAD PUSH2 0x241 SWAP2 SWAP1 PUSH2 0x3630 JUMP JUMPDEST PUSH1 0x40 MLOAD DUP1 SWAP2 SUB SWAP1 RETURN JUMPDEST PUSH2 0x264 PUSH1 0x4 DUP1 CALLDATASIZE SUB DUP2 ADD SWAP1 PUSH2 0x25F SWAP2 SWAP1 PUSH2 0x274C JUMP JUMPDEST PUSH2 0x8BA JUMP JUMPDEST PUSH1 0x40 MLOAD PUSH2 0x271 SWAP2 SWAP1 PUSH2 0x3779 JUMP JUMPDEST PUSH1 0x40 MLOAD DUP1 SWAP2 SUB SWAP1 RETURN JUMPDEST PUSH2 0x294 PUSH1 0x4 DUP1 CALLDATASIZE SUB DUP2 ADD SWAP1 PUSH2 0x28F SWAP2 SWAP1 PUSH2 0x2660 JUMP JUMPDEST PUSH2 0x9BE JUMP JUMPDEST PUSH1 0x40 MLOAD PUSH2 0x2A1 SWAP2 SWAP1 PUSH2 0x366D JUMP JUMPDEST PUSH1 0x40 MLOAD DUP1 SWAP2 SUB SWAP1 RETURN JUMPDEST PUSH2 0x2C4 PUSH1 0x4 DUP1 CALLDATASIZE SUB DUP2 ADD SWAP1 PUSH2 0x2BF SWAP2 SWAP1 PUSH2 0x274C JUMP JUMPDEST PUSH2 0xAB3 JUMP JUMPDEST PUSH1 0x40 MLOAD PUSH2 0x2D1 SWAP2 SWAP1 PUSH2 0x38E3 JUMP JUMPDEST PUSH1 0x40 MLOAD DUP1 SWAP2 SUB SWAP1 RETURN JUMPDEST PUSH2 0x2E2 PUSH2 0x11F9 JUMP JUMPDEST PUSH1 0x40 MLOAD PUSH2 0x2EF SWAP2 SWAP1 PUSH2 0x364B JUMP JUMPDEST PUSH1 0x40 MLOAD DUP1 SWAP2 SUB SWAP1 RETURN JUMPDEST PUSH2 0x312 PUSH1 0x4 DUP1 CALLDATASIZE SUB DUP2 ADD SWAP1 PUSH2 0x30D SWAP2 SWAP1 PUSH2 0x288E JUMP JUMPDEST PUSH2 0x1287 JUMP JUMPDEST PUSH1 0x40 MLOAD PUSH2 0x325 SWAP8 SWAP7 SWAP6 SWAP5 SWAP4 SWAP3 SWAP2 SWAP1 PUSH2 0x370A JUMP JUMPDEST PUSH1 0x40 MLOAD DUP1 SWAP2 SUB SWAP1 RETURN JUMPDEST PUSH2 0x348 PUSH1 0x4 DUP1 CALLDATASIZE SUB DUP2 ADD SWAP1 PUSH2 0x343 SWAP2 SWAP1 PUSH2 0x2578 JUMP JUMPDEST PUSH2 0x1313 JUMP JUMPDEST PUSH1 0x40 MLOAD PUSH2 0x355 SWAP2 SWAP1 PUSH2 0x366D JUMP JUMPDEST PUSH1 0x40 MLOAD DUP1 SWAP2 SUB SWAP1 RETURN JUMPDEST PUSH2 0x378 PUSH1 0x4 DUP1 CALLDATASIZE SUB DUP2 ADD SWAP1 PUSH2 0x373 SWAP2 SWAP1 PUSH2 0x254F JUMP JUMPDEST PUSH2 0x14C8 JUMP JUMPDEST PUSH1 0x40 MLOAD PUSH2 0x385 SWAP2 SWAP1 PUSH2 0x366D JUMP JUMPDEST PUSH1 0x40 MLOAD DUP1 SWAP2 SUB SWAP1 RETURN JUMPDEST PUSH2 0x396 PUSH2 0x14E8 JUMP JUMPDEST PUSH1 0x40 MLOAD PUSH2 0x3A3 SWAP2 SWAP1 PUSH2 0x38AD JUMP JUMPDEST PUSH1 0x40 MLOAD DUP1 SWAP2 SUB SWAP1 RETURN JUMPDEST PUSH2 0x3C6 PUSH1 0x4 DUP1 CALLDATASIZE SUB DUP2 ADD SWAP1 PUSH2 0x3C1 SWAP2 SWAP1 PUSH2 0x288E JUMP JUMPDEST PUSH2 0x1604 JUMP JUMPDEST PUSH1 0x40 MLOAD PUSH2 0x3D3 SWAP2 SWAP1 PUSH2 0x3688 JUMP JUMPDEST PUSH1 0x40 MLOAD DUP1 SWAP2 SUB SWAP1 RETURN JUMPDEST PUSH2 0x3E4 PUSH2 0x161C JUMP JUMPDEST PUSH1 0x40 MLOAD PUSH2 0x3F1 SWAP2 SWAP1 PUSH2 0x38C8 JUMP JUMPDEST PUSH1 0x40 MLOAD DUP1 SWAP2 SUB SWAP1 RETURN JUMPDEST PUSH2 0x414 PUSH1 0x4 DUP1 CALLDATASIZE SUB DUP2 ADD SWAP1 PUSH2 0x40F SWAP2 SWAP1 PUSH2 0x254F JUMP JUMPDEST PUSH2 0x1629 JUMP JUMPDEST PUSH1 0x40 MLOAD PUSH2 0x421 SWAP2 SWAP1 PUSH2 0x366D JUMP JUMPDEST PUSH1 0x40 MLOAD DUP1 SWAP2 SUB SWAP1 RETURN JUMPDEST PUSH1 0x0 PUSH1 0x4 SWAP1 SLOAD SWAP1 PUSH2 0x100 EXP SWAP1 DIV PUSH1 0xFF AND DUP2 JUMP JUMPDEST PUSH2 0x44A DUP6 DUP6 DUP6 DUP6 DUP6 PUSH2 0x1313 JUMP JUMPDEST ISZERO PUSH2 0x4E3 JUMPI PUSH1 0x1 PUSH1 0x0 PUSH1 0x4 PUSH2 0x100 EXP DUP2 SLOAD DUP2 PUSH1 0xFF MUL NOT AND SWAP1 DUP4 ISZERO ISZERO MUL OR SWAP1 SSTORE POP DUP5 PUSH1 0x0 PUSH1 0x5 PUSH2 0x100 EXP DUP2 SLOAD DUP2 PUSH20 0xFFFFFFFFFFFFFFFFFFFFFFFFFFFFFFFFFFFFFFFF MUL NOT AND SWAP1 DUP4 PUSH20 0xFFFFFFFFFFFFFFFFFFFFFFFFFFFFFFFFFFFFFFFF AND MUL OR SWAP1 SSTORE POP PUSH32 0xCC358699805E9A8B7F77B522628C7CB9ABD07D9EFB86B6FB616AF1609036A99E DUP6 PUSH1 0x40 MLOAD PUSH2 0x4DA SWAP2 SWAP1 PUSH2 0x3630 JUMP JUMPDEST PUSH1 0x40 MLOAD DUP1 SWAP2 SUB SWAP1 LOG1 JUMPDEST POP POP POP POP POP JUMP JUMPDEST PUSH1 0x0 PUSH1 0x1 PUSH1 0xA PUSH1 0x0 SWAP1 SLOAD SWAP1 PUSH2 0x100 EXP SWAP1 DIV PUSH1 0xFF AND PUSH1 0xFF AND EQ DUP1 PUSH2 0x51F JUMPI POP PUSH1 0x2 PUSH1 0xA PUSH1 0x0 SWAP1 SLOAD SWAP1 PUSH2 0x100 EXP SWAP1 DIV PUSH1 0xFF AND PUSH1 0xFF AND EQ JUMPDEST ISZERO PUSH2 0x52D JUMPI PUSH1 0x1 SWAP1 POP PUSH2 0x58B JUMP JUMPDEST PUSH1 0x0 PUSH1 0x1 PUSH1 0x2 PUSH1 0xA PUSH1 0x0 SWAP1 SLOAD SWAP1 PUSH2 0x100 EXP SWAP1 DIV PUSH1 0xFF AND PUSH1 0xFF AND DUP2 PUSH2 0x54D JUMPI INVALID JUMPDEST DIV ADD PUSH1 0xFF AND SWAP1 POP PUSH1 0x0 PUSH1 0x19 SWAP1 SLOAD SWAP1 PUSH2 0x100 EXP SWAP1 DIV PUSH1 0xFF AND PUSH1 0xFF AND DUP2 GT ISZERO PUSH2 0x586 JUMPI PUSH1 0x0 PUSH1 0x19 SWAP1 SLOAD SWAP1 PUSH2 0x100 EXP SWAP1 DIV PUSH1 0xFF AND SWAP2 POP POP PUSH2 0x58B JUMP JUMPDEST DUP1 SWAP2 POP POP JUMPDEST SWAP1 JUMP JUMPDEST PUSH1 0x5 PUSH1 0x20 MSTORE DUP1 PUSH1 0x0 MSTORE PUSH1 0x40 PUSH1 0x0 KECCAK256 PUSH1 0x0 SWAP2 POP SLOAD SWAP1 PUSH2 0x100 EXP SWAP1 DIV PUSH20 0xFFFFFFFFFFFFFFFFFFFFFFFFFFFFFFFFFFFFFFFF AND DUP2 JUMP JUMPDEST PUSH1 0x0 PUSH1 0x5 SWAP1 SLOAD SWAP1 PUSH2 0x100 EXP SWAP1 DIV PUSH20 0xFFFFFFFFFFFFFFFFFFFFFFFFFFFFFFFFFFFFFFFF AND DUP2 JUMP JUMPDEST PUSH1 0x0 DUP1 SLOAD SWAP1 PUSH2 0x100 EXP SWAP1 DIV PUSH4 0xFFFFFFFF AND DUP2 JUMP JUMPDEST PUSH1 0x9 DUP2 DUP2 SLOAD DUP2 LT PUSH2 0x60B JUMPI PUSH1 0x0 DUP1 REVERT JUMPDEST SWAP1 PUSH1 0x0 MSTORE PUSH1 0x20 PUSH1 0x0 KECCAK256 SWAP1 PUSH1 0x8 SWAP2 DUP3 DUP3 DIV ADD SWAP2 SWAP1 MOD PUSH1 0x4 MUL SWAP2 POP SLOAD SWAP1 PUSH2 0x100 EXP SWAP1 DIV PUSH4 0xFFFFFFFF AND DUP2 JUMP JUMPDEST PUSH1 0x0 DUP1 PUSH1 0x0 PUSH1 0x2 PUSH1 0x0 SWAP1 SLOAD SWAP1 PUSH2 0x100 EXP SWAP1 DIV PUSH20 0xFFFFFFFFFFFFFFFFFFFFFFFFFFFFFFFFFFFFFFFF AND PUSH20 0xFFFFFFFFFFFFFFFFFFFFFFFFFFFFFFFFFFFFFFFF AND PUSH4 0x892E2937 DUP11 PUSH1 0x40 MLOAD DUP3 PUSH4 0xFFFFFFFF AND PUSH1 0xE0 SHL DUP2 MSTORE PUSH1 0x4 ADD PUSH2 0x695 SWAP2 SWAP1 PUSH2 0x385B JUMP JUMPDEST PUSH1 0x0 PUSH1 0x40 MLOAD DUP1 DUP4 SUB DUP2 DUP7 DUP1 EXTCODESIZE ISZERO DUP1 ISZERO PUSH2 0x6AD JUMPI PUSH1 0x0 DUP1 REVERT JUMPDEST POP GAS STATICCALL ISZERO DUP1 ISZERO PUSH2 0x6C1 JUMPI RETURNDATASIZE PUSH1 0x0 DUP1 RETURNDATACOPY RETURNDATASIZE PUSH1 0x0 REVERT JUMPDEST POP POP POP POP PUSH1 0x40 MLOAD RETURNDATASIZE PUSH1 0x0 DUP3 RETURNDATACOPY RETURNDATASIZE PUSH1 0x1F NOT PUSH1 0x1F DUP3 ADD AND DUP3 ADD DUP1 PUSH1 0x40 MSTORE POP DUP2 ADD SWAP1 PUSH2 0x6EA SWAP2 SWAP1 PUSH2 0x270B JUMP JUMPDEST SWAP1 POP PUSH1 0x0 JUMPDEST DUP6 MLOAD DUP2 LT ISZERO PUSH2 0x8AA JUMPI PUSH1 0x0 PUSH1 0x1 PUSH1 0x3 PUSH1 0x0 SWAP1 SLOAD SWAP1 PUSH2 0x100 EXP SWAP1 DIV PUSH1 0x60 SHL PUSH20 0xA6EF9EA235635E328124FF3429DB9F9E91B64E2D PUSH1 0x2 PUSH1 0x0 SWAP1 SLOAD SWAP1 PUSH2 0x100 EXP SWAP1 DIV PUSH20 0xFFFFFFFFFFFFFFFFFFFFFFFFFFFFFFFFFFFFFFFF AND PUSH20 0xFFFFFFFFFFFFFFFFFFFFFFFFFFFFFFFFFFFFFFFF AND PUSH4 0xCECB3043 DUP12 DUP8 DUP2 MLOAD DUP2 LT PUSH2 0x76B JUMPI INVALID JUMPDEST PUSH1 0x20 MUL PUSH1 0x20 ADD ADD MLOAD PUSH1 0x40 MLOAD DUP3 PUSH4 0xFFFFFFFF AND PUSH1 0xE0 SHL DUP2 MSTORE PUSH1 0x4 ADD PUSH2 0x78F SWAP2 SWAP1 PUSH2 0x38E3 JUMP JUMPDEST PUSH1 0x0 PUSH1 0x40 MLOAD DUP1 DUP4 SUB DUP2 DUP7 DUP1 EXTCODESIZE ISZERO DUP1 ISZERO PUSH2 0x7A7 JUMPI PUSH1 0x0 DUP1 REVERT JUMPDEST POP GAS STATICCALL ISZERO DUP1 ISZERO PUSH2 0x7BB JUMPI RETURNDATASIZE PUSH1 0x0 DUP1 RETURNDATACOPY RETURNDATASIZE PUSH1 0x0 REVERT JUMPDEST POP POP POP POP PUSH1 0x40 MLOAD RETURNDATASIZE PUSH1 0x0 DUP3 RETURNDATACOPY RETURNDATASIZE PUSH1 0x1F NOT PUSH1 0x1F DUP3 ADD AND DUP3 ADD DUP1 PUSH1 0x40 MSTORE POP DUP2 ADD SWAP1 PUSH2 0x7E4 SWAP2 SWAP1 PUSH2 0x270B JUMP JUMPDEST DUP10 DUP7 DUP2 MLOAD DUP2 LT PUSH2 0x7F0 JUMPI INVALID JUMPDEST PUSH1 0x20 MUL PUSH1 0x20 ADD ADD MLOAD DUP8 DUP1 MLOAD SWAP1 PUSH1 0x20 ADD KECCAK256 PUSH1 0x40 MLOAD PUSH1 0x20 ADD PUSH2 0x810 SWAP2 SWAP1 PUSH2 0x35AD JUMP JUMPDEST PUSH1 0x40 MLOAD PUSH1 0x20 DUP2 DUP4 SUB SUB DUP2 MSTORE SWAP1 PUSH1 0x40 MSTORE PUSH1 0x40 MLOAD PUSH1 0x20 ADD PUSH2 0x834 SWAP7 SWAP6 SWAP5 SWAP4 SWAP3 SWAP2 SWAP1 PUSH2 0x35C8 JUMP JUMPDEST PUSH1 0x40 MLOAD PUSH1 0x20 DUP2 DUP4 SUB SUB DUP2 MSTORE SWAP1 PUSH1 0x40 MSTORE SWAP1 POP PUSH1 0x0 DUP2 DUP1 MLOAD SWAP1 PUSH1 0x20 ADD KECCAK256 SWAP1 POP PUSH2 0x899 DUP2 PUSH1 0x4 DUP14 DUP7 DUP2 MLOAD DUP2 LT PUSH2 0x863 JUMPI INVALID JUMPDEST PUSH1 0x20 MUL PUSH1 0x20 ADD ADD MLOAD SUB DUP13 DUP7 DUP2 MLOAD DUP2 LT PUSH2 0x878 JUMPI INVALID JUMPDEST PUSH1 0x20 MUL PUSH1 0x20 ADD ADD MLOAD DUP13 DUP8 DUP2 MLOAD DUP2 LT PUSH2 0x88C JUMPI INVALID JUMPDEST PUSH1 0x20 MUL PUSH1 0x20 ADD ADD MLOAD PUSH2 0x1697 JUMP JUMPDEST SWAP5 POP POP POP DUP1 DUP1 PUSH1 0x1 ADD SWAP2 POP POP PUSH2 0x6EF JUMP JUMPDEST POP DUP2 SWAP3 POP POP POP SWAP7 SWAP6 POP POP POP POP POP POP JUMP JUMPDEST PUSH1 0x60 PUSH1 0x0 PUSH1 0x2 PUSH1 0x0 SWAP1 SLOAD SWAP1 PUSH2 0x100 EXP SWAP1 DIV PUSH20 0xFFFFFFFFFFFFFFFFFFFFFFFFFFFFFFFFFFFFFFFF AND PUSH20 0xFFFFFFFFFFFFFFFFFFFFFFFFFFFFFFFFFFFFFFFF AND PUSH4 0x892E2937 DUP10 PUSH1 0x40 MLOAD DUP3 PUSH4 0xFFFFFFFF AND PUSH1 0xE0 SHL DUP2 MSTORE PUSH1 0x4 ADD PUSH2 0x919 SWAP2 SWAP1 PUSH2 0x385B JUMP JUMPDEST PUSH1 0x0 PUSH1 0x40 MLOAD DUP1 DUP4 SUB DUP2 DUP7 DUP1 EXTCODESIZE ISZERO DUP1 ISZERO PUSH2 0x931 JUMPI PUSH1 0x0 DUP1 REVERT JUMPDEST POP GAS STATICCALL ISZERO DUP1 ISZERO PUSH2 0x945 JUMPI RETURNDATASIZE PUSH1 0x0 DUP1 RETURNDATACOPY RETURNDATASIZE PUSH1 0x0 REVERT JUMPDEST POP POP POP POP PUSH1 0x40 MLOAD RETURNDATASIZE PUSH1 0x0 DUP3 RETURNDATACOPY RETURNDATASIZE PUSH1 0x1F NOT PUSH1 0x1F DUP3 ADD AND DUP3 ADD DUP1 PUSH1 0x40 MSTORE POP DUP2 ADD SWAP1 PUSH2 0x96E SWAP2 SWAP1 PUSH2 0x270B JUMP JUMPDEST SWAP1 POP PUSH1 0x0 DUP1 PUSH1 0x0 PUSH1 0x60 PUSH1 0x40 MLOAD DUP1 PUSH1 0x40 ADD PUSH1 0x40 MSTORE DUP1 PUSH1 0x5 DUP2 MSTORE PUSH1 0x20 ADD PUSH32 0x7374617274000000000000000000000000000000000000000000000000000000 DUP2 MSTORE POP SWAP6 POP POP POP POP POP POP SWAP7 SWAP6 POP POP POP POP POP POP JUMP JUMPDEST PUSH1 0x0 DUP1 PUSH1 0x0 DUP1 JUMPDEST DUP7 MLOAD DUP2 LT ISZERO PUSH2 0xA7D JUMPI PUSH2 0xA13 DUP9 DUP7 DUP4 DUP2 MLOAD DUP2 LT PUSH2 0x9DE JUMPI INVALID JUMPDEST PUSH1 0x20 MUL PUSH1 0x20 ADD ADD MLOAD DUP10 DUP5 DUP2 MLOAD DUP2 LT PUSH2 0x9F2 JUMPI INVALID JUMPDEST PUSH1 0x20 MUL PUSH1 0x20 ADD ADD MLOAD DUP10 DUP6 DUP2 MLOAD DUP2 LT PUSH2 0xA06 JUMPI INVALID JUMPDEST PUSH1 0x20 MUL PUSH1 0x20 ADD ADD MLOAD PUSH2 0x1697 JUMP JUMPDEST SWAP3 POP PUSH1 0x4 PUSH1 0x0 DUP5 PUSH20 0xFFFFFFFFFFFFFFFFFFFFFFFFFFFFFFFFFFFFFFFF AND PUSH20 0xFFFFFFFFFFFFFFFFFFFFFFFFFFFFFFFFFFFFFFFF AND DUP2 MSTORE PUSH1 0x20 ADD SWAP1 DUP2 MSTORE PUSH1 0x20 ADD PUSH1 0x0 KECCAK256 PUSH1 0x0 SWAP1 SLOAD SWAP1 PUSH2 0x100 EXP SWAP1 DIV PUSH1 0xFF AND ISZERO PUSH2 0xA70 JUMPI DUP2 DUP1 PUSH1 0x1 ADD SWAP3 POP POP JUMPDEST DUP1 DUP1 PUSH1 0x1 ADD SWAP2 POP POP PUSH2 0x9C5 JUMP JUMPDEST POP PUSH1 0x0 PUSH2 0xA88 PUSH2 0x4EA JUMP JUMPDEST SWAP1 POP DUP1 PUSH1 0xFF AND DUP3 PUSH1 0xFF AND LT PUSH2 0xAA3 JUMPI PUSH1 0x1 SWAP4 POP POP POP POP PUSH2 0xAAB JUMP JUMPDEST PUSH1 0x0 SWAP4 POP POP POP POP JUMPDEST SWAP5 SWAP4 POP POP POP POP JUMP JUMPDEST PUSH1 0x0 DUP1 PUSH1 0x4 SWAP1 SLOAD SWAP1 PUSH2 0x100 EXP SWAP1 DIV PUSH1 0xFF AND ISZERO PUSH2 0xB04 JUMPI PUSH1 0x40 MLOAD PUSH32 0x8C379A000000000000000000000000000000000000000000000000000000000 DUP2 MSTORE PUSH1 0x4 ADD PUSH2 0xAFB SWAP1 PUSH2 0x37BB JUMP JUMPDEST PUSH1 0x40 MLOAD DUP1 SWAP2 SUB SWAP1 REVERT JUMPDEST DUP4 MLOAD DUP6 MLOAD EQ DUP1 ISZERO PUSH2 0xB16 JUMPI POP DUP6 MLOAD DUP6 MLOAD EQ JUMPDEST PUSH2 0xB55 JUMPI PUSH1 0x40 MLOAD PUSH32 0x8C379A000000000000000000000000000000000000000000000000000000000 DUP2 MSTORE PUSH1 0x4 ADD PUSH2 0xB4C SWAP1 PUSH2 0x37FB JUMP JUMPDEST PUSH1 0x40 MLOAD DUP1 SWAP2 SUB SWAP1 REVERT JUMPDEST PUSH1 0x0 DUP1 SLOAD SWAP1 PUSH2 0x100 EXP SWAP1 DIV PUSH4 0xFFFFFFFF AND PUSH4 0xFFFFFFFF AND DUP8 PUSH1 0xA0 ADD MLOAD PUSH4 0xFFFFFFFF AND GT PUSH2 0xBB7 JUMPI PUSH1 0x40 MLOAD PUSH32 0x8C379A000000000000000000000000000000000000000000000000000000000 DUP2 MSTORE PUSH1 0x4 ADD PUSH2 0xBAE SWAP1 PUSH2 0x381B JUMP JUMPDEST PUSH1 0x40 MLOAD DUP1 SWAP2 SUB SWAP1 REVERT JUMPDEST PUSH1 0x0 PUSH1 0x2 PUSH1 0x0 SWAP1 SLOAD SWAP1 PUSH2 0x100 EXP SWAP1 DIV PUSH20 0xFFFFFFFFFFFFFFFFFFFFFFFFFFFFFFFFFFFFFFFF AND PUSH20 0xFFFFFFFFFFFFFFFFFFFFFFFFFFFFFFFFFFFFFFFF AND PUSH4 0x892E2937 DUP10 PUSH1 0x40 MLOAD DUP3 PUSH4 0xFFFFFFFF AND PUSH1 0xE0 SHL DUP2 MSTORE PUSH1 0x4 ADD PUSH2 0xC14 SWAP2 SWAP1 PUSH2 0x385B JUMP JUMPDEST PUSH1 0x0 PUSH1 0x40 MLOAD DUP1 DUP4 SUB DUP2 DUP7 DUP1 EXTCODESIZE ISZERO DUP1 ISZERO PUSH2 0xC2C JUMPI PUSH1 0x0 DUP1 REVERT JUMPDEST POP GAS STATICCALL ISZERO DUP1 ISZERO PUSH2 0xC40 JUMPI RETURNDATASIZE PUSH1 0x0 DUP1 RETURNDATACOPY RETURNDATASIZE PUSH1 0x0 REVERT JUMPDEST POP POP POP POP PUSH1 0x40 MLOAD RETURNDATASIZE PUSH1 0x0 DUP3 RETURNDATACOPY RETURNDATASIZE PUSH1 0x1F NOT PUSH1 0x1F DUP3 ADD AND DUP3 ADD DUP1 PUSH1 0x40 MSTORE POP DUP2 ADD SWAP1 PUSH2 0xC69 SWAP2 SWAP1 PUSH2 0x270B JUMP JUMPDEST SWAP1 POP PUSH1 0x0 DUP1 PUSH1 0x0 PUSH1 0x60 PUSH1 0x0 JUMPDEST DUP9 MLOAD DUP2 LT ISZERO PUSH2 0xEFA JUMPI PUSH1 0x1 PUSH1 0x3 PUSH1 0x0 SWAP1 SLOAD SWAP1 PUSH2 0x100 EXP SWAP1 DIV PUSH1 0x60 SHL PUSH20 0xA6EF9EA235635E328124FF3429DB9F9E91B64E2D PUSH1 0x2 PUSH1 0x0 SWAP1 SLOAD SWAP1 PUSH2 0x100 EXP SWAP1 DIV PUSH20 0xFFFFFFFFFFFFFFFFFFFFFFFFFFFFFFFFFFFFFFFF AND PUSH20 0xFFFFFFFFFFFFFFFFFFFFFFFFFFFFFFFFFFFFFFFF AND PUSH4 0xCECB3043 DUP14 DUP7 DUP2 MLOAD DUP2 LT PUSH2 0xCEF JUMPI INVALID JUMPDEST PUSH1 0x20 MUL PUSH1 0x20 ADD ADD MLOAD PUSH1 0x40 MLOAD DUP3 PUSH4 0xFFFFFFFF AND PUSH1 0xE0 SHL DUP2 MSTORE PUSH1 0x4 ADD PUSH2 0xD13 SWAP2 SWAP1 PUSH2 0x38E3 JUMP JUMPDEST PUSH1 0x0 PUSH1 0x40 MLOAD DUP1 DUP4 SUB DUP2 DUP7 DUP1 EXTCODESIZE ISZERO DUP1 ISZERO PUSH2 0xD2B JUMPI PUSH1 0x0 DUP1 REVERT JUMPDEST POP GAS STATICCALL ISZERO DUP1 ISZERO PUSH2 0xD3F JUMPI RETURNDATASIZE PUSH1 0x0 DUP1 RETURNDATACOPY RETURNDATASIZE PUSH1 0x0 REVERT JUMPDEST POP POP POP POP PUSH1 0x40 MLOAD RETURNDATASIZE PUSH1 0x0 DUP3 RETURNDATACOPY RETURNDATASIZE PUSH1 0x1F NOT PUSH1 0x1F DUP3 ADD AND DUP3 ADD DUP1 PUSH1 0x40 MSTORE POP DUP2 ADD SWAP1 PUSH2 0xD68 SWAP2 SWAP1 PUSH2 0x270B JUMP JUMPDEST DUP12 DUP6 DUP2 MLOAD DUP2 LT PUSH2 0xD74 JUMPI INVALID JUMPDEST PUSH1 0x20 MUL PUSH1 0x20 ADD ADD MLOAD DUP11 DUP1 MLOAD SWAP1 PUSH1 0x20 ADD KECCAK256 PUSH1 0x40 MLOAD PUSH1 0x20 ADD PUSH2 0xD94 SWAP2 SWAP1 PUSH2 0x35AD JUMP JUMPDEST PUSH1 0x40 MLOAD PUSH1 0x20 DUP2 DUP4 SUB SUB DUP2 MSTORE SWAP1 PUSH1 0x40 MSTORE PUSH1 0x40 MLOAD PUSH1 0x20 ADD PUSH2 0xDB8 SWAP7 SWAP6 SWAP5 SWAP4 SWAP3 SWAP2 SWAP1 PUSH2 0x35C8 JUMP JUMPDEST PUSH1 0x40 MLOAD PUSH1 0x20 DUP2 DUP4 SUB SUB DUP2 MSTORE SWAP1 PUSH1 0x40 MSTORE SWAP2 POP DUP2 DUP1 MLOAD SWAP1 PUSH1 0x20 ADD KECCAK256 SWAP5 POP PUSH2 0xE1B DUP6 PUSH1 0x4 DUP15 DUP5 DUP2 MLOAD DUP2 LT PUSH2 0xDE5 JUMPI INVALID JUMPDEST PUSH1 0x20 MUL PUSH1 0x20 ADD ADD MLOAD SUB DUP14 DUP5 DUP2 MLOAD DUP2 LT PUSH2 0xDFA JUMPI INVALID JUMPDEST PUSH1 0x20 MUL PUSH1 0x20 ADD ADD MLOAD DUP14 DUP6 DUP2 MLOAD DUP2 LT PUSH2 0xE0E JUMPI INVALID JUMPDEST PUSH1 0x20 MUL PUSH1 0x20 ADD ADD MLOAD PUSH2 0x1697 JUMP JUMPDEST SWAP4 POP PUSH1 0x5 PUSH1 0x0 DUP10 DUP4 DUP2 MLOAD DUP2 LT PUSH2 0xE2D JUMPI INVALID JUMPDEST PUSH1 0x20 MUL PUSH1 0x20 ADD ADD MLOAD PUSH20 0xFFFFFFFFFFFFFFFFFFFFFFFFFFFFFFFFFFFFFFFF AND PUSH20 0xFFFFFFFFFFFFFFFFFFFFFFFFFFFFFFFFFFFFFFFF AND DUP2 MSTORE PUSH1 0x20 ADD SWAP1 DUP2 MSTORE PUSH1 0x20 ADD PUSH1 0x0 KECCAK256 PUSH1 0x0 SWAP1 SLOAD SWAP1 PUSH2 0x100 EXP SWAP1 DIV PUSH20 0xFFFFFFFFFFFFFFFFFFFFFFFFFFFFFFFFFFFFFFFF AND PUSH20 0xFFFFFFFFFFFFFFFFFFFFFFFFFFFFFFFFFFFFFFFF AND DUP5 PUSH20 0xFFFFFFFFFFFFFFFFFFFFFFFFFFFFFFFFFFFFFFFF AND EQ ISZERO PUSH2 0xECC JUMPI DUP3 DUP1 PUSH1 0x1 ADD SWAP4 POP POP JUMPDEST PUSH1 0x0 PUSH1 0x19 SWAP1 SLOAD SWAP1 PUSH2 0x100 EXP SWAP1 DIV PUSH1 0xFF AND PUSH1 0xFF AND DUP4 PUSH1 0xFF AND LT PUSH2 0xEED JUMPI PUSH2 0xEFA JUMP JUMPDEST DUP1 DUP1 PUSH1 0x1 ADD SWAP2 POP POP PUSH2 0xC75 JUMP JUMPDEST POP PUSH2 0xF03 PUSH2 0x4EA JUMP JUMPDEST PUSH1 0xFF AND DUP3 PUSH1 0xFF AND LT PUSH2 0x11D7 JUMPI PUSH1 0x0 JUMPDEST DUP13 PUSH2 0x140 ADD MLOAD MLOAD DUP2 LT ISZERO PUSH2 0x118C JUMPI PUSH20 0xA6EF9EA235635E328124FF3429DB9F9E91B64E2D PUSH20 0xFFFFFFFFFFFFFFFFFFFFFFFFFFFFFFFFFFFFFFFF AND DUP14 PUSH2 0x140 ADD MLOAD DUP3 DUP2 MLOAD DUP2 LT PUSH2 0xF5C JUMPI INVALID JUMPDEST PUSH1 0x20 MUL PUSH1 0x20 ADD ADD MLOAD PUSH1 0x40 ADD MLOAD PUSH20 0xFFFFFFFFFFFFFFFFFFFFFFFFFFFFFFFFFFFFFFFF AND EQ ISZERO PUSH2 0x117F JUMPI DUP13 PUSH2 0x140 ADD MLOAD DUP2 DUP2 MLOAD DUP2 LT PUSH2 0xF95 JUMPI INVALID JUMPDEST PUSH1 0x20 MUL PUSH1 0x20 ADD ADD MLOAD PUSH1 0x80 ADD MLOAD PUSH1 0x8 PUSH1 0x0 DUP16 PUSH1 0xA0 ADD MLOAD PUSH4 0xFFFFFFFF AND PUSH4 0xFFFFFFFF AND DUP2 MSTORE PUSH1 0x20 ADD SWAP1 DUP2 MSTORE PUSH1 0x20 ADD PUSH1 0x0 KECCAK256 DUP2 SWAP1 SSTORE POP DUP13 PUSH2 0x140 ADD MLOAD DUP2 DUP2 MLOAD DUP2 LT PUSH2 0xFD9 JUMPI INVALID JUMPDEST PUSH1 0x20 MUL PUSH1 0x20 ADD ADD MLOAD PUSH1 0x7 PUSH1 0x0 DUP16 PUSH1 0xA0 ADD MLOAD PUSH4 0xFFFFFFFF AND PUSH4 0xFFFFFFFF AND DUP2 MSTORE PUSH1 0x20 ADD SWAP1 DUP2 MSTORE PUSH1 0x20 ADD PUSH1 0x0 KECCAK256 PUSH1 0x0 DUP3 ADD MLOAD DUP2 PUSH1 0x0 ADD PUSH1 0x0 PUSH2 0x100 EXP DUP2 SLOAD DUP2 PUSH2 0xFFFF MUL NOT AND SWAP1 DUP4 PUSH1 0x1 SIGNEXTEND PUSH2 0xFFFF AND MUL OR SWAP1 SSTORE POP PUSH1 0x20 DUP3 ADD MLOAD DUP2 PUSH1 0x0 ADD PUSH1 0x2 PUSH2 0x100 EXP DUP2 SLOAD DUP2 PUSH2 0xFFFF MUL NOT AND SWAP1 DUP4 PUSH1 0x1 SIGNEXTEND PUSH2 0xFFFF AND MUL OR SWAP1 SSTORE POP PUSH1 0x40 DUP3 ADD MLOAD DUP2 PUSH1 0x0 ADD PUSH1 0x4 PUSH2 0x100 EXP DUP2 SLOAD DUP2 PUSH20 0xFFFFFFFFFFFFFFFFFFFFFFFFFFFFFFFFFFFFFFFF MUL NOT AND SWAP1 DUP4 PUSH20 0xFFFFFFFFFFFFFFFFFFFFFFFFFFFFFFFFFFFFFFFF AND MUL OR SWAP1 SSTORE POP PUSH1 0x60 DUP3 ADD MLOAD DUP2 PUSH1 0x0 ADD PUSH1 0x18 PUSH2 0x100 EXP DUP2 SLOAD DUP2 PUSH4 0xFFFFFFFF MUL NOT AND SWAP1 DUP4 PUSH4 0xFFFFFFFF AND MUL OR SWAP1 SSTORE POP PUSH1 0x80 DUP3 ADD MLOAD DUP2 PUSH1 0x1 ADD SSTORE PUSH1 0xA0 DUP3 ADD MLOAD DUP2 PUSH1 0x2 ADD SSTORE PUSH1 0xC0 DUP3 ADD MLOAD DUP2 PUSH1 0x3 ADD SSTORE SWAP1 POP POP PUSH1 0x9 DUP14 PUSH1 0xA0 ADD MLOAD SWAP1 DUP1 PUSH1 0x1 DUP2 SLOAD ADD DUP1 DUP3 SSTORE DUP1 SWAP2 POP POP PUSH1 0x1 SWAP1 SUB SWAP1 PUSH1 0x0 MSTORE PUSH1 0x20 PUSH1 0x0 KECCAK256 SWAP1 PUSH1 0x8 SWAP2 DUP3 DUP3 DIV ADD SWAP2 SWAP1 MOD PUSH1 0x4 MUL SWAP1 SWAP2 SWAP1 SWAP2 SWAP1 SWAP2 PUSH2 0x100 EXP DUP2 SLOAD DUP2 PUSH4 0xFFFFFFFF MUL NOT AND SWAP1 DUP4 PUSH4 0xFFFFFFFF AND MUL OR SWAP1 SSTORE POP DUP13 PUSH1 0xA0 ADD MLOAD PUSH4 0xFFFFFFFF AND PUSH1 0x0 DUP1 SLOAD SWAP1 PUSH2 0x100 EXP SWAP1 DIV PUSH4 0xFFFFFFFF AND PUSH4 0xFFFFFFFF AND LT ISZERO PUSH2 0x117E JUMPI DUP13 PUSH1 0xA0 ADD MLOAD PUSH1 0x0 DUP1 PUSH2 0x100 EXP DUP2 SLOAD DUP2 PUSH4 0xFFFFFFFF MUL NOT AND SWAP1 DUP4 PUSH4 0xFFFFFFFF AND MUL OR SWAP1 SSTORE POP JUMPDEST JUMPDEST DUP1 DUP1 PUSH1 0x1 ADD SWAP2 POP POP PUSH2 0xF12 JUMP JUMPDEST POP PUSH32 0x3C3D32B52A6AEF5732CAB1FBC27156FBA0FA8570F7A72C63571CAB9A3FF66DAB DUP13 PUSH1 0x0 DUP1 SLOAD SWAP1 PUSH2 0x100 EXP SWAP1 DIV PUSH4 0xFFFFFFFF AND PUSH1 0x40 MLOAD PUSH2 0x11CE SWAP3 SWAP2 SWAP1 PUSH2 0x387D JUMP JUMPDEST PUSH1 0x40 MLOAD DUP1 SWAP2 SUB SWAP1 LOG1 JUMPDEST PUSH1 0x0 DUP1 SLOAD SWAP1 PUSH2 0x100 EXP SWAP1 DIV PUSH4 0xFFFFFFFF AND SWAP6 POP POP POP POP POP POP SWAP7 SWAP6 POP POP POP POP POP POP JUMP JUMPDEST PUSH1 0x60 PUSH1 0x6 DUP1 SLOAD DUP1 PUSH1 0x20 MUL PUSH1 0x20 ADD PUSH1 0x40 MLOAD SWAP1 DUP2 ADD PUSH1 0x40 MSTORE DUP1 SWAP3 SWAP2 SWAP1 DUP2 DUP2 MSTORE PUSH1 0x20 ADD DUP3 DUP1 SLOAD DUP1 ISZERO PUSH2 0x127D JUMPI PUSH1 0x20 MUL DUP3 ADD SWAP2 SWAP1 PUSH1 0x0 MSTORE PUSH1 0x20 PUSH1 0x0 KECCAK256 SWAP1 JUMPDEST DUP2 PUSH1 0x0 SWAP1 SLOAD SWAP1 PUSH2 0x100 EXP SWAP1 DIV PUSH20 0xFFFFFFFFFFFFFFFFFFFFFFFFFFFFFFFFFFFFFFFF AND PUSH20 0xFFFFFFFFFFFFFFFFFFFFFFFFFFFFFFFFFFFFFFFF AND DUP2 MSTORE PUSH1 0x20 ADD SWAP1 PUSH1 0x1 ADD SWAP1 DUP1 DUP4 GT PUSH2 0x1233 JUMPI JUMPDEST POP POP POP POP POP SWAP1 POP SWAP1 JUMP JUMPDEST PUSH1 0x7 PUSH1 0x20 MSTORE DUP1 PUSH1 0x0 MSTORE PUSH1 0x40 PUSH1 0x0 KECCAK256 PUSH1 0x0 SWAP2 POP SWAP1 POP DUP1 PUSH1 0x0 ADD PUSH1 0x0 SWAP1 SLOAD SWAP1 PUSH2 0x100 EXP SWAP1 DIV PUSH1 0x1 SIGNEXTEND SWAP1 DUP1 PUSH1 0x0 ADD PUSH1 0x2 SWAP1 SLOAD SWAP1 PUSH2 0x100 EXP SWAP1 DIV PUSH1 0x1 SIGNEXTEND SWAP1 DUP1 PUSH1 0x0 ADD PUSH1 0x4 SWAP1 SLOAD SWAP1 PUSH2 0x100 EXP SWAP1 DIV PUSH20 0xFFFFFFFFFFFFFFFFFFFFFFFFFFFFFFFFFFFFFFFF AND SWAP1 DUP1 PUSH1 0x0 ADD PUSH1 0x18 SWAP1 SLOAD SWAP1 PUSH2 0x100 EXP SWAP1 DIV PUSH4 0xFFFFFFFF AND SWAP1 DUP1 PUSH1 0x1 ADD SLOAD SWAP1 DUP1 PUSH1 0x2 ADD SLOAD SWAP1 DUP1 PUSH1 0x3 ADD SLOAD SWAP1 POP DUP8 JUMP JUMPDEST PUSH1 0x0 PUSH2 0x131E CALLER PUSH2 0x1629 JUMP JUMPDEST PUSH2 0x135D JUMPI PUSH1 0x40 MLOAD PUSH32 0x8C379A000000000000000000000000000000000000000000000000000000000 DUP2 MSTORE PUSH1 0x4 ADD PUSH2 0x1354 SWAP1 PUSH2 0x379B JUMP JUMPDEST PUSH1 0x40 MLOAD DUP1 SWAP2 SUB SWAP1 REVERT JUMPDEST PUSH1 0x0 PUSH1 0x1 PUSH1 0x0 SWAP1 SLOAD SWAP1 PUSH2 0x100 EXP SWAP1 DIV PUSH20 0xFFFFFFFFFFFFFFFFFFFFFFFFFFFFFFFFFFFFFFFF AND PUSH20 0xFFFFFFFFFFFFFFFFFFFFFFFFFFFFFFFFFFFFFFFF AND PUSH4 0x2CD0CFF2 DUP9 PUSH1 0x40 MLOAD PUSH1 0x20 ADD PUSH2 0x13AE SWAP2 SWAP1 PUSH2 0x3592 JUMP JUMPDEST PUSH1 0x40 MLOAD PUSH1 0x20 DUP2 DUP4 SUB SUB DUP2 MSTORE SWAP1 PUSH1 0x40 MSTORE PUSH1 0x40 MLOAD DUP3 PUSH4 0xFFFFFFFF AND PUSH1 0xE0 SHL DUP2 MSTORE PUSH1 0x4 ADD PUSH2 0x13D9 SWAP2 SWAP1 PUSH2 0x36E8 JUMP JUMPDEST PUSH1 0x20 PUSH1 0x40 MLOAD DUP1 DUP4 SUB DUP2 PUSH1 0x0 DUP8 DUP1 EXTCODESIZE ISZERO DUP1 ISZERO PUSH2 0x13F3 JUMPI PUSH1 0x0 DUP1 REVERT JUMPDEST POP GAS CALL ISZERO DUP1 ISZERO PUSH2 0x1407 JUMPI RETURNDATASIZE PUSH1 0x0 DUP1 RETURNDATACOPY RETURNDATASIZE PUSH1 0x0 REVERT JUMPDEST POP POP POP POP PUSH1 0x40 MLOAD RETURNDATASIZE PUSH1 0x1F NOT PUSH1 0x1F DUP3 ADD AND DUP3 ADD DUP1 PUSH1 0x40 MSTORE POP DUP2 ADD SWAP1 PUSH2 0x142B SWAP2 SWAP1 PUSH2 0x2637 JUMP JUMPDEST SWAP1 POP DUP6 DUP2 EQ PUSH2 0x146F JUMPI PUSH1 0x40 MLOAD PUSH32 0x8C379A000000000000000000000000000000000000000000000000000000000 DUP2 MSTORE PUSH1 0x4 ADD PUSH2 0x1466 SWAP1 PUSH2 0x383B JUMP JUMPDEST PUSH1 0x40 MLOAD DUP1 SWAP2 SUB SWAP1 REVERT JUMPDEST PUSH2 0x147B DUP7 DUP6 DUP6 DUP9 PUSH2 0x9BE JUMP JUMPDEST PUSH2 0x14BA JUMPI PUSH1 0x40 MLOAD PUSH32 0x8C379A000000000000000000000000000000000000000000000000000000000 DUP2 MSTORE PUSH1 0x4 ADD PUSH2 0x14B1 SWAP1 PUSH2 0x37DB JUMP JUMPDEST PUSH1 0x40 MLOAD DUP1 SWAP2 SUB SWAP1 REVERT JUMPDEST PUSH1 0x1 SWAP2 POP POP SWAP6 SWAP5 POP POP POP POP POP JUMP JUMPDEST PUSH1 0x4 PUSH1 0x20 MSTORE DUP1 PUSH1 0x0 MSTORE PUSH1 0x40 PUSH1 0x0 KECCAK256 PUSH1 0x0 SWAP2 POP SLOAD SWAP1 PUSH2 0x100 EXP SWAP1 DIV PUSH1 0xFF AND DUP2 JUMP JUMPDEST PUSH2 0x14F0 PUSH2 0x16F7 JUMP JUMPDEST PUSH1 0x7 PUSH1 0x0 DUP1 PUSH1 0x0 SWAP1 SLOAD SWAP1 PUSH2 0x100 EXP SWAP1 DIV PUSH4 0xFFFFFFFF AND PUSH4 0xFFFFFFFF AND PUSH4 0xFFFFFFFF AND DUP2 MSTORE PUSH1 0x20 ADD SWAP1 DUP2 MSTORE PUSH1 0x20 ADD PUSH1 0x0 KECCAK256 PUSH1 0x40 MLOAD DUP1 PUSH1 0xE0 ADD PUSH1 0x40 MSTORE SWAP1 DUP2 PUSH1 0x0 DUP3 ADD PUSH1 0x0 SWAP1 SLOAD SWAP1 PUSH2 0x100 EXP SWAP1 DIV PUSH1 0x1 SIGNEXTEND PUSH1 0x1 SIGNEXTEND PUSH1 0x1 SIGNEXTEND DUP2 MSTORE PUSH1 0x20 ADD PUSH1 0x0 DUP3 ADD PUSH1 0x2 SWAP1 SLOAD SWAP1 PUSH2 0x100 EXP SWAP1 DIV PUSH1 0x1 SIGNEXTEND PUSH1 0x1 SIGNEXTEND PUSH1 0x1 SIGNEXTEND DUP2 MSTORE PUSH1 0x20 ADD PUSH1 0x0 DUP3 ADD PUSH1 0x4 SWAP1 SLOAD SWAP1 PUSH2 0x100 EXP SWAP1 DIV PUSH20 0xFFFFFFFFFFFFFFFFFFFFFFFFFFFFFFFFFFFFFFFF AND PUSH20 0xFFFFFFFFFFFFFFFFFFFFFFFFFFFFFFFFFFFFFFFF AND PUSH20 0xFFFFFFFFFFFFFFFFFFFFFFFFFFFFFFFFFFFFFFFF AND DUP2 MSTORE PUSH1 0x20 ADD PUSH1 0x0 DUP3 ADD PUSH1 0x18 SWAP1 SLOAD SWAP1 PUSH2 0x100 EXP SWAP1 DIV PUSH4 0xFFFFFFFF AND PUSH4 0xFFFFFFFF AND PUSH4 0xFFFFFFFF AND DUP2 MSTORE PUSH1 0x20 ADD PUSH1 0x1 DUP3 ADD SLOAD DUP2 MSTORE PUSH1 0x20 ADD PUSH1 0x2 DUP3 ADD SLOAD DUP2 MSTORE PUSH1 0x20 ADD PUSH1 0x3 DUP3 ADD SLOAD DUP2 MSTORE POP POP SWAP1 POP SWAP1 JUMP JUMPDEST PUSH1 0x8 PUSH1 0x20 MSTORE DUP1 PUSH1 0x0 MSTORE PUSH1 0x40 PUSH1 0x0 KECCAK256 PUSH1 0x0 SWAP2 POP SWAP1 POP SLOAD DUP2 JUMP JUMPDEST PUSH1 0x0 PUSH1 0x9 DUP1 SLOAD SWAP1 POP SWAP1 POP SWAP1 JUMP JUMPDEST PUSH1 0x0 PUSH1 0x1 ISZERO ISZERO PUSH1 0x4 PUSH1 0x0 DUP5 PUSH20 0xFFFFFFFFFFFFFFFFFFFFFFFFFFFFFFFFFFFFFFFF AND PUSH20 0xFFFFFFFFFFFFFFFFFFFFFFFFFFFFFFFFFFFFFFFF AND DUP2 MSTORE PUSH1 0x20 ADD SWAP1 DUP2 MSTORE PUSH1 0x20 ADD PUSH1 0x0 KECCAK256 PUSH1 0x0 SWAP1 SLOAD SWAP1 PUSH2 0x100 EXP SWAP1 DIV PUSH1 0xFF AND ISZERO ISZERO EQ ISZERO PUSH2 0x168D JUMPI PUSH1 0x1 SWAP1 POP PUSH2 0x1692 JUMP JUMPDEST PUSH1 0x0 SWAP1 POP JUMPDEST SWAP2 SWAP1 POP JUMP JUMPDEST PUSH1 0x0 DUP1 PUSH1 0x1 DUP7 DUP7 DUP7 DUP7 PUSH1 0x40 MLOAD PUSH1 0x0 DUP2 MSTORE PUSH1 0x20 ADD PUSH1 0x40 MSTORE PUSH1 0x40 MLOAD PUSH2 0x16BD SWAP5 SWAP4 SWAP3 SWAP2 SWAP1 PUSH2 0x36A3 JUMP JUMPDEST PUSH1 0x20 PUSH1 0x40 MLOAD PUSH1 0x20 DUP2 SUB SWAP1 DUP1 DUP5 SUB SWAP1 DUP6 GAS STATICCALL ISZERO DUP1 ISZERO PUSH2 0x16DF JUMPI RETURNDATASIZE PUSH1 0x0 DUP1 RETURNDATACOPY RETURNDATASIZE PUSH1 0x0 REVERT JUMPDEST POP POP POP PUSH1 0x20 PUSH1 0x40 MLOAD SUB MLOAD SWAP1 POP DUP1 SWAP2 POP POP SWAP5 SWAP4 POP POP POP POP JUMP JUMPDEST PUSH1 0x40 MLOAD DUP1 PUSH1 0xE0 ADD PUSH1 0x40 MSTORE DUP1 PUSH1 0x0 PUSH1 0x1 SIGNEXTEND DUP2 MSTORE PUSH1 0x20 ADD PUSH1 0x0 PUSH1 0x1 SIGNEXTEND DUP2 MSTORE PUSH1 0x20 ADD PUSH1 0x0 PUSH20 0xFFFFFFFFFFFFFFFFFFFFFFFFFFFFFFFFFFFFFFFF AND DUP2 MSTORE PUSH1 0x20 ADD PUSH1 0x0 PUSH4 0xFFFFFFFF AND DUP2 MSTORE PUSH1 0x20 ADD PUSH1 0x0 DUP1 NOT AND DUP2 MSTORE PUSH1 0x20 ADD PUSH1 0x0 DUP1 NOT AND DUP2 MSTORE PUSH1 0x20 ADD PUSH1 0x0 DUP1 NOT AND DUP2 MSTORE POP SWAP1 JUMP JUMPDEST PUSH1 0x0 PUSH2 0x1772 PUSH2 0x176D DUP5 PUSH2 0x394A JUMP JUMPDEST PUSH2 0x3919 JUMP JUMPDEST SWAP1 POP DUP1 DUP4 DUP3 MSTORE PUSH1 0x20 DUP3 ADD SWAP1 POP DUP3 DUP6 PUSH1 0x20 DUP7 MUL DUP3 ADD GT ISZERO PUSH2 0x1791 JUMPI PUSH1 0x0 DUP1 REVERT JUMPDEST PUSH1 0x0 JUMPDEST DUP6 DUP2 LT ISZERO PUSH2 0x17C1 JUMPI DUP2 PUSH2 0x17A7 DUP9 DUP3 PUSH2 0x1BF5 JUMP JUMPDEST DUP5 MSTORE PUSH1 0x20 DUP5 ADD SWAP4 POP PUSH1 0x20 DUP4 ADD SWAP3 POP POP PUSH1 0x1 DUP2 ADD SWAP1 POP PUSH2 0x1794 JUMP JUMPDEST POP POP POP SWAP4 SWAP3 POP POP POP JUMP JUMPDEST PUSH1 0x0 PUSH2 0x17DE PUSH2 0x17D9 DUP5 PUSH2 0x3976 JUMP JUMPDEST PUSH2 0x3919 JUMP JUMPDEST SWAP1 POP DUP1 DUP4 DUP3 MSTORE PUSH1 0x20 DUP3 ADD SWAP1 POP DUP3 DUP6 PUSH1 0x20 DUP7 MUL DUP3 ADD GT ISZERO PUSH2 0x17FD JUMPI PUSH1 0x0 DUP1 REVERT JUMPDEST PUSH1 0x0 JUMPDEST DUP6 DUP2 LT ISZERO PUSH2 0x182D JUMPI DUP2 PUSH2 0x1813 DUP9 DUP3 PUSH2 0x1DAE JUMP JUMPDEST DUP5 MSTORE PUSH1 0x20 DUP5 ADD SWAP4 POP PUSH1 0x20 DUP4 ADD SWAP3 POP POP PUSH1 0x1 DUP2 ADD SWAP1 POP PUSH2 0x1800 JUMP JUMPDEST POP POP POP SWAP4 SWAP3 POP POP POP JUMP JUMPDEST PUSH1 0x0 PUSH2 0x184A PUSH2 0x1845 DUP5 PUSH2 0x39A2 JUMP JUMPDEST PUSH2 0x3919 JUMP JUMPDEST SWAP1 POP DUP1 DUP4 DUP3 MSTORE PUSH1 0x20 DUP3 ADD SWAP1 POP DUP3 DUP6 PUSH1 0x20 DUP7 MUL DUP3 ADD GT ISZERO PUSH2 0x1869 JUMPI PUSH1 0x0 DUP1 REVERT JUMPDEST PUSH1 0x0 JUMPDEST DUP6 DUP2 LT ISZERO PUSH2 0x1899 JUMPI DUP2 PUSH2 0x187F DUP9 DUP3 PUSH2 0x1E17 JUMP JUMPDEST DUP5 MSTORE PUSH1 0x20 DUP5 ADD SWAP4 POP PUSH1 0x20 DUP4 ADD SWAP3 POP POP PUSH1 0x1 DUP2 ADD SWAP1 POP PUSH2 0x186C JUMP JUMPDEST POP POP POP SWAP4 SWAP3 POP POP POP JUMP JUMPDEST PUSH1 0x0 PUSH2 0x18B6 PUSH2 0x18B1 DUP5 PUSH2 0x39CE JUMP JUMPDEST PUSH2 0x3919 JUMP JUMPDEST SWAP1 POP DUP1 DUP4 DUP3 MSTORE PUSH1 0x20 DUP3 ADD SWAP1 POP DUP3 DUP6 PUSH1 0x20 DUP7 MUL DUP3 ADD GT ISZERO PUSH2 0x18D5 JUMPI PUSH1 0x0 DUP1 REVERT JUMPDEST PUSH1 0x0 JUMPDEST DUP6 DUP2 LT ISZERO PUSH2 0x1905 JUMPI DUP2 PUSH2 0x18EB DUP9 DUP3 PUSH2 0x1E2C JUMP JUMPDEST DUP5 MSTORE PUSH1 0x20 DUP5 ADD SWAP4 POP PUSH1 0x20 DUP4 ADD SWAP3 POP POP PUSH1 0x1 DUP2 ADD SWAP1 POP PUSH2 0x18D8 JUMP JUMPDEST POP POP POP SWAP4 SWAP3 POP POP POP JUMP JUMPDEST PUSH1 0x0 PUSH2 0x1922 PUSH2 0x191D DUP5 PUSH2 0x39FA JUMP JUMPDEST PUSH2 0x3919 JUMP JUMPDEST SWAP1 POP DUP1 DUP4 DUP3 MSTORE PUSH1 0x20 DUP3 ADD SWAP1 POP DUP3 PUSH1 0x0 JUMPDEST DUP6 DUP2 LT ISZERO PUSH2 0x1962 JUMPI DUP2 CALLDATALOAD DUP6 ADD PUSH2 0x1948 DUP9 DUP3 PUSH2 0x2157 JUMP JUMPDEST DUP5 MSTORE PUSH1 0x20 DUP5 ADD SWAP4 POP PUSH1 0x20 DUP4 ADD SWAP3 POP POP PUSH1 0x1 DUP2 ADD SWAP1 POP PUSH2 0x1932 JUMP JUMPDEST POP POP POP SWAP4 SWAP3 POP POP POP JUMP JUMPDEST PUSH1 0x0 PUSH2 0x197F PUSH2 0x197A DUP5 PUSH2 0x3A26 JUMP JUMPDEST PUSH2 0x3919 JUMP JUMPDEST SWAP1 POP DUP1 DUP4 DUP3 MSTORE PUSH1 0x20 DUP3 ADD SWAP1 POP DUP3 DUP6 PUSH1 0xE0 DUP7 MUL DUP3 ADD GT ISZERO PUSH2 0x199E JUMPI PUSH1 0x0 DUP1 REVERT JUMPDEST PUSH1 0x0 JUMPDEST DUP6 DUP2 LT ISZERO PUSH2 0x19CE JUMPI DUP2 PUSH2 0x19B4 DUP9 DUP3 PUSH2 0x233A JUMP JUMPDEST DUP5 MSTORE PUSH1 0x20 DUP5 ADD SWAP4 POP PUSH1 0xE0 DUP4 ADD SWAP3 POP POP PUSH1 0x1 DUP2 ADD SWAP1 POP PUSH2 0x19A1 JUMP JUMPDEST POP POP POP SWAP4 SWAP3 POP POP POP JUMP JUMPDEST PUSH1 0x0 PUSH2 0x19EB PUSH2 0x19E6 DUP5 PUSH2 0x3A52 JUMP JUMPDEST PUSH2 0x3919 JUMP JUMPDEST SWAP1 POP DUP1 DUP4 DUP3 MSTORE PUSH1 0x20 DUP3 ADD SWAP1 POP DUP3 PUSH1 0x0 JUMPDEST DUP6 DUP2 LT ISZERO PUSH2 0x1A2B JUMPI DUP2 CALLDATALOAD DUP6 ADD PUSH2 0x1A11 DUP9 DUP3 PUSH2 0x2482 JUMP JUMPDEST DUP5 MSTORE PUSH1 0x20 DUP5 ADD SWAP4 POP PUSH1 0x20 DUP4 ADD SWAP3 POP POP PUSH1 0x1 DUP2 ADD SWAP1 POP PUSH2 0x19FB JUMP JUMPDEST POP POP POP SWAP4 SWAP3 POP POP POP JUMP JUMPDEST PUSH1 0x0 PUSH2 0x1A48 PUSH2 0x1A43 DUP5 PUSH2 0x3A7E JUMP JUMPDEST PUSH2 0x3919 JUMP JUMPDEST SWAP1 POP DUP1 DUP4 DUP3 MSTORE PUSH1 0x20 DUP3 ADD SWAP1 POP DUP3 DUP6 PUSH1 0x20 DUP7 MUL DUP3 ADD GT ISZERO PUSH2 0x1A67 JUMPI PUSH1 0x0 DUP1 REVERT JUMPDEST PUSH1 0x0 JUMPDEST DUP6 DUP2 LT ISZERO PUSH2 0x1A97 JUMPI DUP2 PUSH2 0x1A7D DUP9 DUP3 PUSH2 0x24FB JUMP JUMPDEST DUP5 MSTORE PUSH1 0x20 DUP5 ADD SWAP4 POP PUSH1 0x20 DUP4 ADD SWAP3 POP POP PUSH1 0x1 DUP2 ADD SWAP1 POP PUSH2 0x1A6A JUMP JUMPDEST POP POP POP SWAP4 SWAP3 POP POP POP JUMP JUMPDEST PUSH1 0x0 PUSH2 0x1AB4 PUSH2 0x1AAF DUP5 PUSH2 0x3AAA JUMP JUMPDEST PUSH2 0x3919 JUMP JUMPDEST SWAP1 POP DUP1 DUP4 DUP3 MSTORE PUSH1 0x20 DUP3 ADD SWAP1 POP DUP3 DUP6 PUSH1 0x20 DUP7 MUL DUP3 ADD GT ISZERO PUSH2 0x1AD3 JUMPI PUSH1 0x0 DUP1 REVERT JUMPDEST PUSH1 0x0 JUMPDEST DUP6 DUP2 LT ISZERO PUSH2 0x1B03 JUMPI DUP2 PUSH2 0x1AE9 DUP9 DUP3 PUSH2 0x2525 JUMP JUMPDEST DUP5 MSTORE PUSH1 0x20 DUP5 ADD SWAP4 POP PUSH1 0x20 DUP4 ADD SWAP3 POP POP PUSH1 0x1 DUP2 ADD SWAP1 POP PUSH2 0x1AD6 JUMP JUMPDEST POP POP POP SWAP4 SWAP3 POP POP POP JUMP JUMPDEST PUSH1 0x0 PUSH2 0x1B20 PUSH2 0x1B1B DUP5 PUSH2 0x3AD6 JUMP JUMPDEST PUSH2 0x3919 JUMP JUMPDEST SWAP1 POP DUP1 DUP4 DUP3 MSTORE PUSH1 0x20 DUP3 ADD SWAP1 POP DUP3 DUP6 PUSH1 0x20 DUP7 MUL DUP3 ADD GT ISZERO PUSH2 0x1B3F JUMPI PUSH1 0x0 DUP1 REVERT JUMPDEST PUSH1 0x0 JUMPDEST DUP6 DUP2 LT ISZERO PUSH2 0x1B6F JUMPI DUP2 PUSH2 0x1B55 DUP9 DUP3 PUSH2 0x253A JUMP JUMPDEST DUP5 MSTORE PUSH1 0x20 DUP5 ADD SWAP4 POP PUSH1 0x20 DUP4 ADD SWAP3 POP POP PUSH1 0x1 DUP2 ADD SWAP1 POP PUSH2 0x1B42 JUMP JUMPDEST POP POP POP SWAP4 SWAP3 POP POP POP JUMP JUMPDEST PUSH1 0x0 PUSH2 0x1B8C PUSH2 0x1B87 DUP5 PUSH2 0x3B02 JUMP JUMPDEST PUSH2 0x3919 JUMP JUMPDEST SWAP1 POP DUP3 DUP2 MSTORE PUSH1 0x20 DUP2 ADD DUP5 DUP5 DUP5 ADD GT ISZERO PUSH2 0x1BA4 JUMPI PUSH1 0x0 DUP1 REVERT JUMPDEST PUSH2 0x1BAF DUP5 DUP3 DUP6 PUSH2 0x3E24 JUMP JUMPDEST POP SWAP4 SWAP3 POP POP POP JUMP JUMPDEST PUSH1 0x0 PUSH2 0x1BCA PUSH2 0x1BC5 DUP5 PUSH2 0x3B32 JUMP JUMPDEST PUSH2 0x3919 JUMP JUMPDEST SWAP1 POP DUP3 DUP2 MSTORE PUSH1 0x20 DUP2 ADD DUP5 DUP5 DUP5 ADD GT ISZERO PUSH2 0x1BE2 JUMPI PUSH1 0x0 DUP1 REVERT JUMPDEST PUSH2 0x1BED DUP5 DUP3 DUP6 PUSH2 0x3E15 JUMP JUMPDEST POP SWAP4 SWAP3 POP POP POP JUMP JUMPDEST PUSH1 0x0 DUP2 CALLDATALOAD SWAP1 POP PUSH2 0x1C04 DUP2 PUSH2 0x3ECE JUMP JUMPDEST SWAP3 SWAP2 POP POP JUMP JUMPDEST PUSH1 0x0 DUP3 PUSH1 0x1F DUP4 ADD SLT PUSH2 0x1C1B JUMPI PUSH1 0x0 DUP1 REVERT JUMPDEST DUP2 CALLDATALOAD PUSH2 0x1C2B DUP5 DUP3 PUSH1 0x20 DUP7 ADD PUSH2 0x175F JUMP JUMPDEST SWAP2 POP POP SWAP3 SWAP2 POP POP JUMP JUMPDEST PUSH1 0x0 DUP3 PUSH1 0x1F DUP4 ADD SLT PUSH2 0x1C45 JUMPI PUSH1 0x0 DUP1 REVERT JUMPDEST DUP2 CALLDATALOAD PUSH2 0x1C55 DUP5 DUP3 PUSH1 0x20 DUP7 ADD PUSH2 0x17CB JUMP JUMPDEST SWAP2 POP POP SWAP3 SWAP2 POP POP JUMP JUMPDEST PUSH1 0x0 DUP3 PUSH1 0x1F DUP4 ADD SLT PUSH2 0x1C6F JUMPI PUSH1 0x0 DUP1 REVERT JUMPDEST DUP2 CALLDATALOAD PUSH2 0x1C7F DUP5 DUP3 PUSH1 0x20 DUP7 ADD PUSH2 0x1837 JUMP JUMPDEST SWAP2 POP POP SWAP3 SWAP2 POP POP JUMP JUMPDEST PUSH1 0x0 DUP3 PUSH1 0x1F DUP4 ADD SLT PUSH2 0x1C99 JUMPI PUSH1 0x0 DUP1 REVERT JUMPDEST DUP2 CALLDATALOAD PUSH2 0x1CA9 DUP5 DUP3 PUSH1 0x20 DUP7 ADD PUSH2 0x18A3 JUMP JUMPDEST SWAP2 POP POP SWAP3 SWAP2 POP POP JUMP JUMPDEST PUSH1 0x0 DUP3 PUSH1 0x1F DUP4 ADD SLT PUSH2 0x1CC3 JUMPI PUSH1 0x0 DUP1 REVERT JUMPDEST DUP2 CALLDATALOAD PUSH2 0x1CD3 DUP5 DUP3 PUSH1 0x20 DUP7 ADD PUSH2 0x190F JUMP JUMPDEST SWAP2 POP POP SWAP3 SWAP2 POP POP JUMP JUMPDEST PUSH1 0x0 DUP3 PUSH1 0x1F DUP4 ADD SLT PUSH2 0x1CED JUMPI PUSH1 0x0 DUP1 REVERT JUMPDEST DUP2 CALLDATALOAD PUSH2 0x1CFD DUP5 DUP3 PUSH1 0x20 DUP7 ADD PUSH2 0x196C JUMP JUMPDEST SWAP2 POP POP SWAP3 SWAP2 POP POP JUMP JUMPDEST PUSH1 0x0 DUP3 PUSH1 0x1F DUP4 ADD SLT PUSH2 0x1D17 JUMPI PUSH1 0x0 DUP1 REVERT JUMPDEST DUP2 CALLDATALOAD PUSH2 0x1D27 DUP5 DUP3 PUSH1 0x20 DUP7 ADD PUSH2 0x19D8 JUMP JUMPDEST SWAP2 POP POP SWAP3 SWAP2 POP POP JUMP JUMPDEST PUSH1 0x0 DUP3 PUSH1 0x1F DUP4 ADD SLT PUSH2 0x1D41 JUMPI PUSH1 0x0 DUP1 REVERT JUMPDEST DUP2 CALLDATALOAD PUSH2 0x1D51 DUP5 DUP3 PUSH1 0x20 DUP7 ADD PUSH2 0x1A35 JUMP JUMPDEST SWAP2 POP POP SWAP3 SWAP2 POP POP JUMP JUMPDEST PUSH1 0x0 DUP3 PUSH1 0x1F DUP4 ADD SLT PUSH2 0x1D6B JUMPI PUSH1 0x0 DUP1 REVERT JUMPDEST DUP2 CALLDATALOAD PUSH2 0x1D7B DUP5 DUP3 PUSH1 0x20 DUP7 ADD PUSH2 0x1AA1 JUMP JUMPDEST SWAP2 POP POP SWAP3 SWAP2 POP POP JUMP JUMPDEST PUSH1 0x0 DUP3 PUSH1 0x1F DUP4 ADD SLT PUSH2 0x1D95 JUMPI PUSH1 0x0 DUP1 REVERT JUMPDEST DUP2 CALLDATALOAD PUSH2 0x1DA5 DUP5 DUP3 PUSH1 0x20 DUP7 ADD PUSH2 0x1B0D JUMP JUMPDEST SWAP2 POP POP SWAP3 SWAP2 POP POP JUMP JUMPDEST PUSH1 0x0 DUP2 CALLDATALOAD SWAP1 POP PUSH2 0x1DBD DUP2 PUSH2 0x3EE5 JUMP JUMPDEST SWAP3 SWAP2 POP POP JUMP JUMPDEST PUSH1 0x0 DUP2 MLOAD SWAP1 POP PUSH2 0x1DD2 DUP2 PUSH2 0x3EE5 JUMP JUMPDEST SWAP3 SWAP2 POP POP JUMP JUMPDEST PUSH1 0x0 DUP3 PUSH1 0x1F DUP4 ADD SLT PUSH2 0x1DE9 JUMPI PUSH1 0x0 DUP1 REVERT JUMPDEST DUP2 MLOAD PUSH2 0x1DF9 DUP5 DUP3 PUSH1 0x20 DUP7 ADD PUSH2 0x1B79 JUMP JUMPDEST SWAP2 POP POP SWAP3 SWAP2 POP POP JUMP JUMPDEST PUSH1 0x0 DUP2 CALLDATALOAD SWAP1 POP PUSH2 0x1E11 DUP2 PUSH2 0x3EFC JUMP JUMPDEST SWAP3 SWAP2 POP POP JUMP JUMPDEST PUSH1 0x0 DUP2 CALLDATALOAD SWAP1 POP PUSH2 0x1E26 DUP2 PUSH2 0x3F13 JUMP JUMPDEST SWAP3 SWAP2 POP POP JUMP JUMPDEST PUSH1 0x0 DUP2 CALLDATALOAD SWAP1 POP PUSH2 0x1E3B DUP2 PUSH2 0x3F2A JUMP JUMPDEST SWAP3 SWAP2 POP POP JUMP JUMPDEST PUSH1 0x0 DUP3 PUSH1 0x1F DUP4 ADD SLT PUSH2 0x1E52 JUMPI PUSH1 0x0 DUP1 REVERT JUMPDEST DUP2 CALLDATALOAD PUSH2 0x1E62 DUP5 DUP3 PUSH1 0x20 DUP7 ADD PUSH2 0x1BB7 JUMP JUMPDEST SWAP2 POP POP SWAP3 SWAP2 POP POP JUMP JUMPDEST PUSH1 0x0 PUSH2 0x2A0 DUP3 DUP5 SUB SLT ISZERO PUSH2 0x1E7E JUMPI PUSH1 0x0 DUP1 REVERT JUMPDEST PUSH2 0x1E89 PUSH2 0x2A0 PUSH2 0x3919 JUMP JUMPDEST SWAP1 POP PUSH1 0x0 PUSH2 0x1E99 DUP5 DUP3 DUP6 ADD PUSH2 0x24E6 JUMP JUMPDEST PUSH1 0x0 DUP4 ADD MSTORE POP PUSH1 0x20 PUSH2 0x1EAD DUP5 DUP3 DUP6 ADD PUSH2 0x24E6 JUMP JUMPDEST PUSH1 0x20 DUP4 ADD MSTORE POP PUSH1 0x40 PUSH2 0x1EC1 DUP5 DUP3 DUP6 ADD PUSH2 0x1BF5 JUMP JUMPDEST PUSH1 0x40 DUP4 ADD MSTORE POP PUSH1 0x60 DUP3 ADD CALLDATALOAD PUSH8 0xFFFFFFFFFFFFFFFF DUP2 GT ISZERO PUSH2 0x1EE1 JUMPI PUSH1 0x0 DUP1 REVERT JUMPDEST PUSH2 0x1EED DUP5 DUP3 DUP6 ADD PUSH2 0x1D30 JUMP JUMPDEST PUSH1 0x60 DUP4 ADD MSTORE POP PUSH1 0x80 DUP3 ADD CALLDATALOAD PUSH8 0xFFFFFFFFFFFFFFFF DUP2 GT ISZERO PUSH2 0x1F0D JUMPI PUSH1 0x0 DUP1 REVERT JUMPDEST PUSH2 0x1F19 DUP5 DUP3 DUP6 ADD PUSH2 0x1C5E JUMP JUMPDEST PUSH1 0x80 DUP4 ADD MSTORE POP PUSH1 0xA0 DUP3 ADD CALLDATALOAD PUSH8 0xFFFFFFFFFFFFFFFF DUP2 GT ISZERO PUSH2 0x1F39 JUMPI PUSH1 0x0 DUP1 REVERT JUMPDEST PUSH2 0x1F45 DUP5 DUP3 DUP6 ADD PUSH2 0x1C88 JUMP JUMPDEST PUSH1 0xA0 DUP4 ADD MSTORE POP PUSH1 0xC0 PUSH2 0x1F59 DUP5 DUP3 DUP6 ADD PUSH2 0x1E2C JUMP JUMPDEST PUSH1 0xC0 DUP4 ADD MSTORE POP PUSH1 0xE0 PUSH2 0x1F6D DUP5 DUP3 DUP6 ADD PUSH2 0x1E2C JUMP JUMPDEST PUSH1 0xE0 DUP4 ADD MSTORE POP PUSH2 0x100 PUSH2 0x1F82 DUP5 DUP3 DUP6 ADD PUSH2 0x1E2C JUMP JUMPDEST PUSH2 0x100 DUP4 ADD MSTORE POP PUSH2 0x120 PUSH2 0x1F98 DUP5 DUP3 DUP6 ADD PUSH2 0x1E2C JUMP JUMPDEST PUSH2 0x120 DUP4 ADD MSTORE POP PUSH2 0x140 PUSH2 0x1FAE DUP5 DUP3 DUP6 ADD PUSH2 0x1E2C JUMP JUMPDEST PUSH2 0x140 DUP4 ADD MSTORE POP PUSH2 0x160 PUSH2 0x1FC4 DUP5 DUP3 DUP6 ADD PUSH2 0x1E2C JUMP JUMPDEST PUSH2 0x160 DUP4 ADD MSTORE POP PUSH2 0x180 PUSH2 0x1FDA DUP5 DUP3 DUP6 ADD PUSH2 0x1E2C JUMP JUMPDEST PUSH2 0x180 DUP4 ADD MSTORE POP PUSH2 0x1A0 DUP3 ADD CALLDATALOAD PUSH8 0xFFFFFFFFFFFFFFFF DUP2 GT ISZERO PUSH2 0x1FFC JUMPI PUSH1 0x0 DUP1 REVERT JUMPDEST PUSH2 0x2008 DUP5 DUP3 DUP6 ADD PUSH2 0x1C88 JUMP JUMPDEST PUSH2 0x1A0 DUP4 ADD MSTORE POP PUSH2 0x1C0 DUP3 ADD CALLDATALOAD PUSH8 0xFFFFFFFFFFFFFFFF DUP2 GT ISZERO PUSH2 0x202A JUMPI PUSH1 0x0 DUP1 REVERT JUMPDEST PUSH2 0x2036 DUP5 DUP3 DUP6 ADD PUSH2 0x1C88 JUMP JUMPDEST PUSH2 0x1C0 DUP4 ADD MSTORE POP PUSH2 0x1E0 DUP3 ADD CALLDATALOAD PUSH8 0xFFFFFFFFFFFFFFFF DUP2 GT ISZERO PUSH2 0x2058 JUMPI PUSH1 0x0 DUP1 REVERT JUMPDEST PUSH2 0x2064 DUP5 DUP3 DUP6 ADD PUSH2 0x1C88 JUMP JUMPDEST PUSH2 0x1E0 DUP4 ADD MSTORE POP PUSH2 0x200 DUP3 ADD CALLDATALOAD PUSH8 0xFFFFFFFFFFFFFFFF DUP2 GT ISZERO PUSH2 0x2086 JUMPI PUSH1 0x0 DUP1 REVERT JUMPDEST PUSH2 0x2092 DUP5 DUP3 DUP6 ADD PUSH2 0x1C88 JUMP JUMPDEST PUSH2 0x200 DUP4 ADD MSTORE POP PUSH2 0x220 DUP3 ADD CALLDATALOAD PUSH8 0xFFFFFFFFFFFFFFFF DUP2 GT ISZERO PUSH2 0x20B4 JUMPI PUSH1 0x0 DUP1 REVERT JUMPDEST PUSH2 0x20C0 DUP5 DUP3 DUP6 ADD PUSH2 0x1C88 JUMP JUMPDEST PUSH2 0x220 DUP4 ADD MSTORE POP PUSH2 0x240 DUP3 ADD CALLDATALOAD PUSH8 0xFFFFFFFFFFFFFFFF DUP2 GT ISZERO PUSH2 0x20E2 JUMPI PUSH1 0x0 DUP1 REVERT JUMPDEST PUSH2 0x20EE DUP5 DUP3 DUP6 ADD PUSH2 0x1C88 JUMP JUMPDEST PUSH2 0x240 DUP4 ADD MSTORE POP PUSH2 0x260 DUP3 ADD CALLDATALOAD PUSH8 0xFFFFFFFFFFFFFFFF DUP2 GT ISZERO PUSH2 0x2110 JUMPI PUSH1 0x0 DUP1 REVERT JUMPDEST PUSH2 0x211C DUP5 DUP3 DUP6 ADD PUSH2 0x1C5E JUMP JUMPDEST PUSH2 0x260 DUP4 ADD MSTORE POP PUSH2 0x280 DUP3 ADD CALLDATALOAD PUSH8 0xFFFFFFFFFFFFFFFF DUP2 GT ISZERO PUSH2 0x213E JUMPI PUSH1 0x0 DUP1 REVERT JUMPDEST PUSH2 0x214A DUP5 DUP3 DUP6 ADD PUSH2 0x1C88 JUMP JUMPDEST PUSH2 0x280 DUP4 ADD MSTORE POP SWAP3 SWAP2 POP POP JUMP JUMPDEST PUSH1 0x0 PUSH1 0x40 DUP3 DUP5 SUB SLT ISZERO PUSH2 0x2169 JUMPI PUSH1 0x0 DUP1 REVERT JUMPDEST PUSH2 0x2173 PUSH1 0x40 PUSH2 0x3919 JUMP JUMPDEST SWAP1 POP PUSH1 0x0 DUP3 ADD CALLDATALOAD PUSH8 0xFFFFFFFFFFFFFFFF DUP2 GT ISZERO PUSH2 0x218F JUMPI PUSH1 0x0 DUP1 REVERT JUMPDEST PUSH2 0x219B DUP5 DUP3 DUP6 ADD PUSH2 0x1E41 JUMP JUMPDEST PUSH1 0x0 DUP4 ADD MSTORE POP PUSH1 0x20 PUSH2 0x21AF DUP5 DUP3 DUP6 ADD PUSH2 0x1BF5 JUMP JUMPDEST PUSH1 0x20 DUP4 ADD MSTORE POP SWAP3 SWAP2 POP POP JUMP JUMPDEST PUSH1 0x0 PUSH2 0x1C0 DUP3 DUP5 SUB SLT ISZERO PUSH2 0x21CE JUMPI PUSH1 0x0 DUP1 REVERT JUMPDEST PUSH2 0x21D9 PUSH2 0x180 PUSH2 0x3919 JUMP JUMPDEST SWAP1 POP PUSH1 0x0 PUSH2 0x21E9 DUP5 DUP3 DUP6 ADD PUSH2 0x2525 JUMP JUMPDEST PUSH1 0x0 DUP4 ADD MSTORE POP PUSH1 0x20 PUSH2 0x21FD DUP5 DUP3 DUP6 ADD PUSH2 0x2525 JUMP JUMPDEST PUSH1 0x20 DUP4 ADD MSTORE POP PUSH1 0x40 PUSH2 0x2211 DUP5 DUP3 DUP6 ADD PUSH2 0x23EA JUMP JUMPDEST PUSH1 0x40 DUP4 ADD MSTORE POP PUSH1 0x80 PUSH2 0x2225 DUP5 DUP3 DUP6 ADD PUSH2 0x1BF5 JUMP JUMPDEST PUSH1 0x60 DUP4 ADD MSTORE POP PUSH1 0xA0 DUP3 ADD CALLDATALOAD PUSH8 0xFFFFFFFFFFFFFFFF DUP2 GT ISZERO PUSH2 0x2245 JUMPI PUSH1 0x0 DUP1 REVERT JUMPDEST PUSH2 0x2251 DUP5 DUP3 DUP6 ADD PUSH2 0x1E6B JUMP JUMPDEST PUSH1 0x80 DUP4 ADD MSTORE POP PUSH1 0xC0 PUSH2 0x2265 DUP5 DUP3 DUP6 ADD PUSH2 0x2525 JUMP JUMPDEST PUSH1 0xA0 DUP4 ADD MSTORE POP PUSH1 0xE0 PUSH2 0x2279 DUP5 DUP3 DUP6 ADD PUSH2 0x2436 JUMP JUMPDEST PUSH1 0xC0 DUP4 ADD MSTORE POP PUSH2 0x120 PUSH2 0x228E DUP5 DUP3 DUP6 ADD PUSH2 0x1DAE JUMP JUMPDEST PUSH1 0xE0 DUP4 ADD MSTORE POP PUSH2 0x140 PUSH2 0x22A3 DUP5 DUP3 DUP6 ADD PUSH2 0x2525 JUMP JUMPDEST PUSH2 0x100 DUP4 ADD MSTORE POP PUSH2 0x160 DUP3 ADD CALLDATALOAD PUSH8 0xFFFFFFFFFFFFFFFF DUP2 GT ISZERO PUSH2 0x22C5 JUMPI PUSH1 0x0 DUP1 REVERT JUMPDEST PUSH2 0x22D1 DUP5 DUP3 DUP6 ADD PUSH2 0x1D06 JUMP JUMPDEST PUSH2 0x120 DUP4 ADD MSTORE POP PUSH2 0x180 DUP3 ADD CALLDATALOAD PUSH8 0xFFFFFFFFFFFFFFFF DUP2 GT ISZERO PUSH2 0x22F3 JUMPI PUSH1 0x0 DUP1 REVERT JUMPDEST PUSH2 0x22FF DUP5 DUP3 DUP6 ADD PUSH2 0x1CDC JUMP JUMPDEST PUSH2 0x140 DUP4 ADD MSTORE POP PUSH2 0x1A0 DUP3 ADD CALLDATALOAD PUSH8 0xFFFFFFFFFFFFFFFF DUP2 GT ISZERO PUSH2 0x2321 JUMPI PUSH1 0x0 DUP1 REVERT JUMPDEST PUSH2 0x232D DUP5 DUP3 DUP6 ADD PUSH2 0x1CB2 JUMP JUMPDEST PUSH2 0x160 DUP4 ADD MSTORE POP SWAP3 SWAP2 POP POP JUMP JUMPDEST PUSH1 0x0 PUSH1 0xE0 DUP3 DUP5 SUB SLT ISZERO PUSH2 0x234C JUMPI PUSH1 0x0 DUP1 REVERT JUMPDEST PUSH2 0x2356 PUSH1 0xE0 PUSH2 0x3919 JUMP JUMPDEST SWAP1 POP PUSH1 0x0 PUSH2 0x2366 DUP5 DUP3 DUP6 ADD PUSH2 0x1E02 JUMP JUMPDEST PUSH1 0x0 DUP4 ADD MSTORE POP PUSH1 0x20 PUSH2 0x237A DUP5 DUP3 DUP6 ADD PUSH2 0x1E02 JUMP JUMPDEST PUSH1 0x20 DUP4 ADD MSTORE POP PUSH1 0x40 PUSH2 0x238E DUP5 DUP3 DUP6 ADD PUSH2 0x1BF5 JUMP JUMPDEST PUSH1 0x40 DUP4 ADD MSTORE POP PUSH1 0x60 PUSH2 0x23A2 DUP5 DUP3 DUP6 ADD PUSH2 0x2525 JUMP JUMPDEST PUSH1 0x60 DUP4 ADD MSTORE POP PUSH1 0x80 PUSH2 0x23B6 DUP5 DUP3 DUP6 ADD PUSH2 0x1DAE JUMP JUMPDEST PUSH1 0x80 DUP4 ADD MSTORE POP PUSH1 0xA0 PUSH2 0x23CA DUP5 DUP3 DUP6 ADD PUSH2 0x1DAE JUMP JUMPDEST PUSH1 0xA0 DUP4 ADD MSTORE POP PUSH1 0xC0 PUSH2 0x23DE DUP5 DUP3 DUP6 ADD PUSH2 0x1DAE JUMP JUMPDEST PUSH1 0xC0 DUP4 ADD MSTORE POP SWAP3 SWAP2 POP POP JUMP JUMPDEST PUSH1 0x0 PUSH1 0x40 DUP3 DUP5 SUB SLT ISZERO PUSH2 0x23FC JUMPI PUSH1 0x0 DUP1 REVERT JUMPDEST PUSH2 0x2406 PUSH1 0x40 PUSH2 0x3919 JUMP JUMPDEST SWAP1 POP PUSH1 0x0 PUSH2 0x2416 DUP5 DUP3 DUP6 ADD PUSH2 0x253A JUMP JUMPDEST PUSH1 0x0 DUP4 ADD MSTORE POP PUSH1 0x20 PUSH2 0x242A DUP5 DUP3 DUP6 ADD PUSH2 0x1BF5 JUMP JUMPDEST PUSH1 0x20 DUP4 ADD MSTORE POP SWAP3 SWAP2 POP POP JUMP JUMPDEST PUSH1 0x0 PUSH1 0x40 DUP3 DUP5 SUB SLT ISZERO PUSH2 0x2448 JUMPI PUSH1 0x0 DUP1 REVERT JUMPDEST PUSH2 0x2452 PUSH1 0x40 PUSH2 0x3919 JUMP JUMPDEST SWAP1 POP PUSH1 0x0 PUSH2 0x2462 DUP5 DUP3 DUP6 ADD PUSH2 0x1DAE JUMP JUMPDEST PUSH1 0x0 DUP4 ADD MSTORE POP PUSH1 0x20 PUSH2 0x2476 DUP5 DUP3 DUP6 ADD PUSH2 0x2525 JUMP JUMPDEST PUSH1 0x20 DUP4 ADD MSTORE POP SWAP3 SWAP2 POP POP JUMP JUMPDEST PUSH1 0x0 PUSH1 0x40 DUP3 DUP5 SUB SLT ISZERO PUSH2 0x2494 JUMPI PUSH1 0x0 DUP1 REVERT JUMPDEST PUSH2 0x249E PUSH1 0x40 PUSH2 0x3919 JUMP JUMPDEST SWAP1 POP PUSH1 0x0 PUSH2 0x24AE DUP5 DUP3 DUP6 ADD PUSH2 0x1BF5 JUMP JUMPDEST PUSH1 0x0 DUP4 ADD MSTORE POP PUSH1 0x20 DUP3 ADD CALLDATALOAD PUSH8 0xFFFFFFFFFFFFFFFF DUP2 GT ISZERO PUSH2 0x24CE JUMPI PUSH1 0x0 DUP1 REVERT JUMPDEST PUSH2 0x24DA DUP5 DUP3 DUP6 ADD PUSH2 0x1E6B JUMP JUMPDEST PUSH1 0x20 DUP4 ADD MSTORE POP SWAP3 SWAP2 POP POP JUMP JUMPDEST PUSH1 0x0 DUP2 CALLDATALOAD SWAP1 POP PUSH2 0x24F5 DUP2 PUSH2 0x3F41 JUMP JUMPDEST SWAP3 SWAP2 POP POP JUMP JUMPDEST PUSH1 0x0 DUP2 CALLDATALOAD SWAP1 POP PUSH2 0x250A DUP2 PUSH2 0x3F58 JUMP JUMPDEST SWAP3 SWAP2 POP POP JUMP JUMPDEST PUSH1 0x0 DUP2 CALLDATALOAD SWAP1 POP PUSH2 0x251F DUP2 PUSH2 0x3F6F JUMP JUMPDEST SWAP3 SWAP2 POP POP JUMP JUMPDEST PUSH1 0x0 DUP2 CALLDATALOAD SWAP1 POP PUSH2 0x2534 DUP2 PUSH2 0x3F86 JUMP JUMPDEST SWAP3 SWAP2 POP POP JUMP JUMPDEST PUSH1 0x0 DUP2 CALLDATALOAD SWAP1 POP PUSH2 0x2549 DUP2 PUSH2 0x3F9D JUMP JUMPDEST SWAP3 SWAP2 POP POP JUMP JUMPDEST PUSH1 0x0 PUSH1 0x20 DUP3 DUP5 SUB SLT ISZERO PUSH2 0x2561 JUMPI PUSH1 0x0 DUP1 REVERT JUMPDEST PUSH1 0x0 PUSH2 0x256F DUP5 DUP3 DUP6 ADD PUSH2 0x1BF5 JUMP JUMPDEST SWAP2 POP POP SWAP3 SWAP2 POP POP JUMP JUMPDEST PUSH1 0x0 DUP1 PUSH1 0x0 DUP1 PUSH1 0x0 PUSH1 0xA0 DUP7 DUP9 SUB SLT ISZERO PUSH2 0x2590 JUMPI PUSH1 0x0 DUP1 REVERT JUMPDEST PUSH1 0x0 PUSH2 0x259E DUP9 DUP3 DUP10 ADD PUSH2 0x1BF5 JUMP JUMPDEST SWAP6 POP POP PUSH1 0x20 PUSH2 0x25AF DUP9 DUP3 DUP10 ADD PUSH2 0x1DAE JUMP JUMPDEST SWAP5 POP POP PUSH1 0x40 DUP7 ADD CALLDATALOAD PUSH8 0xFFFFFFFFFFFFFFFF DUP2 GT ISZERO PUSH2 0x25CC JUMPI PUSH1 0x0 DUP1 REVERT JUMPDEST PUSH2 0x25D8 DUP9 DUP3 DUP10 ADD PUSH2 0x1D84 JUMP JUMPDEST SWAP4 POP POP PUSH1 0x60 DUP7 ADD CALLDATALOAD PUSH8 0xFFFFFFFFFFFFFFFF DUP2 GT ISZERO PUSH2 0x25F5 JUMPI PUSH1 0x0 DUP1 REVERT JUMPDEST PUSH2 0x2601 DUP9 DUP3 DUP10 ADD PUSH2 0x1C34 JUMP JUMPDEST SWAP3 POP POP PUSH1 0x80 DUP7 ADD CALLDATALOAD PUSH8 0xFFFFFFFFFFFFFFFF DUP2 GT ISZERO PUSH2 0x261E JUMPI PUSH1 0x0 DUP1 REVERT JUMPDEST PUSH2 0x262A DUP9 DUP3 DUP10 ADD PUSH2 0x1C34 JUMP JUMPDEST SWAP2 POP POP SWAP3 SWAP6 POP SWAP3 SWAP6 SWAP1 SWAP4 POP JUMP JUMPDEST PUSH1 0x0 PUSH1 0x20 DUP3 DUP5 SUB SLT ISZERO PUSH2 0x2649 JUMPI PUSH1 0x0 DUP1 REVERT JUMPDEST PUSH1 0x0 PUSH2 0x2657 DUP5 DUP3 DUP6 ADD PUSH2 0x1DC3 JUMP JUMPDEST SWAP2 POP POP SWAP3 SWAP2 POP POP JUMP JUMPDEST PUSH1 0x0 DUP1 PUSH1 0x0 DUP1 PUSH1 0x80 DUP6 DUP8 SUB SLT ISZERO PUSH2 0x2676 JUMPI PUSH1 0x0 DUP1 REVERT JUMPDEST PUSH1 0x0 PUSH2 0x2684 DUP8 DUP3 DUP9 ADD PUSH2 0x1DAE JUMP JUMPDEST SWAP5 POP POP PUSH1 0x20 DUP6 ADD CALLDATALOAD PUSH8 0xFFFFFFFFFFFFFFFF DUP2 GT ISZERO PUSH2 0x26A1 JUMPI PUSH1 0x0 DUP1 REVERT JUMPDEST PUSH2 0x26AD DUP8 DUP3 DUP9 ADD PUSH2 0x1C34 JUMP JUMPDEST SWAP4 POP POP PUSH1 0x40 DUP6 ADD CALLDATALOAD PUSH8 0xFFFFFFFFFFFFFFFF DUP2 GT ISZERO PUSH2 0x26CA JUMPI PUSH1 0x0 DUP1 REVERT JUMPDEST PUSH2 0x26D6 DUP8 DUP3 DUP9 ADD PUSH2 0x1C34 JUMP JUMPDEST SWAP3 POP POP PUSH1 0x60 DUP6 ADD CALLDATALOAD PUSH8 0xFFFFFFFFFFFFFFFF DUP2 GT ISZERO PUSH2 0x26F3 JUMPI PUSH1 0x0 DUP1 REVERT JUMPDEST PUSH2 0x26FF DUP8 DUP3 DUP9 ADD PUSH2 0x1D84 JUMP JUMPDEST SWAP2 POP POP SWAP3 SWAP6 SWAP2 SWAP5 POP SWAP3 POP JUMP JUMPDEST PUSH1 0x0 PUSH1 0x20 DUP3 DUP5 SUB SLT ISZERO PUSH2 0x271D JUMPI PUSH1 0x0 DUP1 REVERT JUMPDEST PUSH1 0x0 DUP3 ADD MLOAD PUSH8 0xFFFFFFFFFFFFFFFF DUP2 GT ISZERO PUSH2 0x2737 JUMPI PUSH1 0x0 DUP1 REVERT JUMPDEST PUSH2 0x2743 DUP5 DUP3 DUP6 ADD PUSH2 0x1DD8 JUMP JUMPDEST SWAP2 POP POP SWAP3 SWAP2 POP POP JUMP JUMPDEST PUSH1 0x0 DUP1 PUSH1 0x0 DUP1 PUSH1 0x0 DUP1 PUSH1 0xC0 DUP8 DUP10 SUB SLT ISZERO PUSH2 0x2765 JUMPI PUSH1 0x0 DUP1 REVERT JUMPDEST PUSH1 0x0 DUP8 ADD CALLDATALOAD PUSH8 0xFFFFFFFFFFFFFFFF DUP2 GT ISZERO PUSH2 0x277F JUMPI PUSH1 0x0 DUP1 REVERT JUMPDEST PUSH2 0x278B DUP10 DUP3 DUP11 ADD PUSH2 0x21BB JUMP JUMPDEST SWAP7 POP POP PUSH1 0x20 DUP8 ADD CALLDATALOAD PUSH8 0xFFFFFFFFFFFFFFFF DUP2 GT ISZERO PUSH2 0x27A8 JUMPI PUSH1 0x0 DUP1 REVERT JUMPDEST PUSH2 0x27B4 DUP10 DUP3 DUP11 ADD PUSH2 0x1D84 JUMP JUMPDEST SWAP6 POP POP PUSH1 0x40 DUP8 ADD CALLDATALOAD PUSH8 0xFFFFFFFFFFFFFFFF DUP2 GT ISZERO PUSH2 0x27D1 JUMPI PUSH1 0x0 DUP1 REVERT JUMPDEST PUSH2 0x27DD DUP10 DUP3 DUP11 ADD PUSH2 0x1C34 JUMP JUMPDEST SWAP5 POP POP PUSH1 0x60 DUP8 ADD CALLDATALOAD PUSH8 0xFFFFFFFFFFFFFFFF DUP2 GT ISZERO PUSH2 0x27FA JUMPI PUSH1 0x0 DUP1 REVERT JUMPDEST PUSH2 0x2806 DUP10 DUP3 DUP11 ADD PUSH2 0x1C34 JUMP JUMPDEST SWAP4 POP POP PUSH1 0x80 DUP8 ADD CALLDATALOAD PUSH8 0xFFFFFFFFFFFFFFFF DUP2 GT ISZERO PUSH2 0x2823 JUMPI PUSH1 0x0 DUP1 REVERT JUMPDEST PUSH2 0x282F DUP10 DUP3 DUP11 ADD PUSH2 0x1D5A JUMP JUMPDEST SWAP3 POP POP PUSH1 0xA0 DUP8 ADD CALLDATALOAD PUSH8 0xFFFFFFFFFFFFFFFF DUP2 GT ISZERO PUSH2 0x284C JUMPI PUSH1 0x0 DUP1 REVERT JUMPDEST PUSH2 0x2858 DUP10 DUP3 DUP11 ADD PUSH2 0x1C0A JUMP JUMPDEST SWAP2 POP POP SWAP3 SWAP6 POP SWAP3 SWAP6 POP SWAP3 SWAP6 JUMP JUMPDEST PUSH1 0x0 PUSH1 0x20 DUP3 DUP5 SUB SLT ISZERO PUSH2 0x2877 JUMPI PUSH1 0x0 DUP1 REVERT JUMPDEST PUSH1 0x0 PUSH2 0x2885 DUP5 DUP3 DUP6 ADD PUSH2 0x2510 JUMP JUMPDEST SWAP2 POP POP SWAP3 SWAP2 POP POP JUMP JUMPDEST PUSH1 0x0 PUSH1 0x20 DUP3 DUP5 SUB SLT ISZERO PUSH2 0x28A0 JUMPI PUSH1 0x0 DUP1 REVERT JUMPDEST PUSH1 0x0 PUSH2 0x28AE DUP5 DUP3 DUP6 ADD PUSH2 0x2525 JUMP JUMPDEST SWAP2 POP POP SWAP3 SWAP2 POP POP JUMP JUMPDEST PUSH1 0x0 PUSH2 0x28C3 DUP4 DUP4 PUSH2 0x2957 JUMP JUMPDEST PUSH1 0x20 DUP4 ADD SWAP1 POP SWAP3 SWAP2 POP POP JUMP JUMPDEST PUSH1 0x0 PUSH2 0x28DB DUP4 DUP4 PUSH2 0x2D2F JUMP JUMPDEST PUSH1 0x20 DUP4 ADD SWAP1 POP SWAP3 SWAP2 POP POP JUMP JUMPDEST PUSH1 0x0 PUSH2 0x28F3 DUP4 DUP4 PUSH2 0x2D3E JUMP JUMPDEST PUSH1 0x20 DUP4 ADD SWAP1 POP SWAP3 SWAP2 POP POP JUMP JUMPDEST PUSH1 0x0 PUSH2 0x290B DUP4 DUP4 PUSH2 0x3204 JUMP JUMPDEST SWAP1 POP SWAP3 SWAP2 POP POP JUMP JUMPDEST PUSH1 0x0 PUSH2 0x291F DUP4 DUP4 PUSH2 0x335B JUMP JUMPDEST PUSH1 0xE0 DUP4 ADD SWAP1 POP SWAP3 SWAP2 POP POP JUMP JUMPDEST PUSH1 0x0 PUSH2 0x2937 DUP4 DUP4 PUSH2 0x34D5 JUMP JUMPDEST SWAP1 POP SWAP3 SWAP2 POP POP JUMP JUMPDEST PUSH1 0x0 PUSH2 0x294B DUP4 DUP4 PUSH2 0x3512 JUMP JUMPDEST PUSH1 0x20 DUP4 ADD SWAP1 POP SWAP3 SWAP2 POP POP JUMP JUMPDEST PUSH2 0x2960 DUP2 PUSH2 0x3D45 JUMP JUMPDEST DUP3 MSTORE POP POP JUMP JUMPDEST PUSH2 0x296F DUP2 PUSH2 0x3D45 JUMP JUMPDEST DUP3 MSTORE POP POP JUMP JUMPDEST PUSH2 0x2986 PUSH2 0x2981 DUP3 PUSH2 0x3D45 JUMP JUMPDEST PUSH2 0x3E57 JUMP JUMPDEST DUP3 MSTORE POP POP JUMP JUMPDEST PUSH1 0x0 PUSH2 0x2997 DUP3 PUSH2 0x3BD2 JUMP JUMPDEST PUSH2 0x29A1 DUP2 DUP6 PUSH2 0x3C90 JUMP JUMPDEST SWAP4 POP PUSH2 0x29AC DUP4 PUSH2 0x3B62 JUMP JUMPDEST DUP1 PUSH1 0x0 JUMPDEST DUP4 DUP2 LT ISZERO PUSH2 0x29DD JUMPI DUP2 MLOAD PUSH2 0x29C4 DUP9 DUP3 PUSH2 0x28B7 JUMP JUMPDEST SWAP8 POP PUSH2 0x29CF DUP4 PUSH2 0x3C35 JUMP JUMPDEST SWAP3 POP POP PUSH1 0x1 DUP2 ADD SWAP1 POP PUSH2 0x29B0 JUMP JUMPDEST POP DUP6 SWAP4 POP POP POP POP SWAP3 SWAP2 POP POP JUMP JUMPDEST PUSH1 0x0 PUSH2 0x29F5 DUP3 PUSH2 0x3BDD JUMP JUMPDEST PUSH2 0x29FF DUP2 DUP6 PUSH2 0x3CA1 JUMP JUMPDEST SWAP4 POP PUSH2 0x2A0A DUP4 PUSH2 0x3B72 JUMP JUMPDEST DUP1 PUSH1 0x0 JUMPDEST DUP4 DUP2 LT ISZERO PUSH2 0x2A3B JUMPI DUP2 MLOAD PUSH2 0x2A22 DUP9 DUP3 PUSH2 0x28CF JUMP JUMPDEST SWAP8 POP PUSH2 0x2A2D DUP4 PUSH2 0x3C42 JUMP JUMPDEST SWAP3 POP POP PUSH1 0x1 DUP2 ADD SWAP1 POP PUSH2 0x2A0E JUMP JUMPDEST POP DUP6 SWAP4 POP POP POP POP SWAP3 SWAP2 POP POP JUMP JUMPDEST PUSH1 0x0 PUSH2 0x2A53 DUP3 PUSH2 0x3BE8 JUMP JUMPDEST PUSH2 0x2A5D DUP2 DUP6 PUSH2 0x3CB2 JUMP JUMPDEST SWAP4 POP PUSH2 0x2A68 DUP4 PUSH2 0x3B82 JUMP JUMPDEST DUP1 PUSH1 0x0 JUMPDEST DUP4 DUP2 LT ISZERO PUSH2 0x2A99 JUMPI DUP2 MLOAD PUSH2 0x2A80 DUP9 DUP3 PUSH2 0x28E7 JUMP JUMPDEST SWAP8 POP PUSH2 0x2A8B DUP4 PUSH2 0x3C4F JUMP JUMPDEST SWAP3 POP POP PUSH1 0x1 DUP2 ADD SWAP1 POP PUSH2 0x2A6C JUMP JUMPDEST POP DUP6 SWAP4 POP POP POP POP SWAP3 SWAP2 POP POP JUMP JUMPDEST PUSH1 0x0 PUSH2 0x2AB1 DUP3 PUSH2 0x3BF3 JUMP JUMPDEST PUSH2 0x2ABB DUP2 DUP6 PUSH2 0x3CC3 JUMP JUMPDEST SWAP4 POP DUP4 PUSH1 0x20 DUP3 MUL DUP6 ADD PUSH2 0x2ACD DUP6 PUSH2 0x3B92 JUMP JUMPDEST DUP1 PUSH1 0x0 JUMPDEST DUP6 DUP2 LT ISZERO PUSH2 0x2B09 JUMPI DUP5 DUP5 SUB DUP10 MSTORE DUP2 MLOAD PUSH2 0x2AEA DUP6 DUP3 PUSH2 0x28FF JUMP JUMPDEST SWAP5 POP PUSH2 0x2AF5 DUP4 PUSH2 0x3C5C JUMP JUMPDEST SWAP3 POP PUSH1 0x20 DUP11 ADD SWAP10 POP POP PUSH1 0x1 DUP2 ADD SWAP1 POP PUSH2 0x2AD1 JUMP JUMPDEST POP DUP3 SWAP8 POP DUP8 SWAP6 POP POP POP POP POP POP SWAP3 SWAP2 POP POP JUMP JUMPDEST PUSH1 0x0 PUSH2 0x2B26 DUP3 PUSH2 0x3BFE JUMP JUMPDEST PUSH2 0x2B30 DUP2 DUP6 PUSH2 0x3CD4 JUMP JUMPDEST SWAP4 POP PUSH2 0x2B3B DUP4 PUSH2 0x3BA2 JUMP JUMPDEST DUP1 PUSH1 0x0 JUMPDEST DUP4 DUP2 LT ISZERO PUSH2 0x2B6C JUMPI DUP2 MLOAD PUSH2 0x2B53 DUP9 DUP3 PUSH2 0x2913 JUMP JUMPDEST SWAP8 POP PUSH2 0x2B5E DUP4 PUSH2 0x3C69 JUMP JUMPDEST SWAP3 POP POP PUSH1 0x1 DUP2 ADD SWAP1 POP PUSH2 0x2B3F JUMP JUMPDEST POP DUP6 SWAP4 POP POP POP POP SWAP3 SWAP2 POP POP JUMP JUMPDEST PUSH1 0x0 PUSH2 0x2B84 DUP3 PUSH2 0x3C09 JUMP JUMPDEST PUSH2 0x2B8E DUP2 DUP6 PUSH2 0x3CE5 JUMP JUMPDEST SWAP4 POP DUP4 PUSH1 0x20 DUP3 MUL DUP6 ADD PUSH2 0x2BA0 DUP6 PUSH2 0x3BB2 JUMP JUMPDEST DUP1 PUSH1 0x0 JUMPDEST DUP6 DUP2 LT ISZERO PUSH2 0x2BDC JUMPI DUP5 DUP5 SUB DUP10 MSTORE DUP2 MLOAD PUSH2 0x2BBD DUP6 DUP3 PUSH2 0x292B JUMP JUMPDEST SWAP5 POP PUSH2 0x2BC8 DUP4 PUSH2 0x3C76 JUMP JUMPDEST SWAP3 POP PUSH1 0x20 DUP11 ADD SWAP10 POP POP PUSH1 0x1 DUP2 ADD SWAP1 POP PUSH2 0x2BA4 JUMP JUMPDEST POP DUP3 SWAP8 POP DUP8 SWAP6 POP POP POP POP POP POP SWAP3 SWAP2 POP POP JUMP JUMPDEST PUSH1 0x0 PUSH2 0x2BF9 DUP3 PUSH2 0x3C14 JUMP JUMPDEST PUSH2 0x2C03 DUP2 DUP6 PUSH2 0x3CF6 JUMP JUMPDEST SWAP4 POP PUSH2 0x2C0E DUP4 PUSH2 0x3BC2 JUMP JUMPDEST DUP1 PUSH1 0x0 JUMPDEST DUP4 DUP2 LT ISZERO PUSH2 0x2C3F JUMPI DUP2 MLOAD PUSH2 0x2C26 DUP9 DUP3 PUSH2 0x293F JUMP JUMPDEST SWAP8 POP PUSH2 0x2C31 DUP4 PUSH2 0x3C83 JUMP JUMPDEST SWAP3 POP POP PUSH1 0x1 DUP2 ADD SWAP1 POP PUSH2 0x2C12 JUMP JUMPDEST POP DUP6 SWAP4 POP POP POP POP SWAP3 SWAP2 POP POP JUMP JUMPDEST PUSH2 0x2C55 DUP2 PUSH2 0x3D57 JUMP JUMPDEST DUP3 MSTORE POP POP JUMP JUMPDEST PUSH2 0x2C6C PUSH2 0x2C67 DUP3 PUSH2 0x3D63 JUMP JUMPDEST PUSH2 0x3E69 JUMP JUMPDEST DUP3 MSTORE POP POP JUMP JUMPDEST PUSH2 0x2C7B DUP2 PUSH2 0x3D8F JUMP JUMPDEST DUP3 MSTORE POP POP JUMP JUMPDEST PUSH2 0x2C8A DUP2 PUSH2 0x3D8F JUMP JUMPDEST DUP3 MSTORE POP POP JUMP JUMPDEST PUSH2 0x2CA1 PUSH2 0x2C9C DUP3 PUSH2 0x3D8F JUMP JUMPDEST PUSH2 0x3E73 JUMP JUMPDEST DUP3 MSTORE POP POP JUMP JUMPDEST PUSH1 0x0 PUSH2 0x2CB2 DUP3 PUSH2 0x3C1F JUMP JUMPDEST PUSH2 0x2CBC DUP2 DUP6 PUSH2 0x3D07 JUMP JUMPDEST SWAP4 POP PUSH2 0x2CCC DUP2 DUP6 PUSH1 0x20 DUP7 ADD PUSH2 0x3E24 JUMP JUMPDEST PUSH2 0x2CD5 DUP2 PUSH2 0x3EA3 JUMP JUMPDEST DUP5 ADD SWAP2 POP POP SWAP3 SWAP2 POP POP JUMP JUMPDEST PUSH1 0x0 PUSH2 0x2CEB DUP3 PUSH2 0x3C1F JUMP JUMPDEST PUSH2 0x2CF5 DUP2 DUP6 PUSH2 0x3D18 JUMP JUMPDEST SWAP4 POP PUSH2 0x2D05 DUP2 DUP6 PUSH1 0x20 DUP7 ADD PUSH2 0x3E24 JUMP JUMPDEST DUP1 DUP5 ADD SWAP2 POP POP SWAP3 SWAP2 POP POP JUMP JUMPDEST PUSH2 0x2D1A DUP2 PUSH2 0x3D99 JUMP JUMPDEST DUP3 MSTORE POP POP JUMP JUMPDEST PUSH2 0x2D29 DUP2 PUSH2 0x3D99 JUMP JUMPDEST DUP3 MSTORE POP POP JUMP JUMPDEST PUSH2 0x2D38 DUP2 PUSH2 0x3DA6 JUMP JUMPDEST DUP3 MSTORE POP POP JUMP JUMPDEST PUSH2 0x2D47 DUP2 PUSH2 0x3DB3 JUMP JUMPDEST DUP3 MSTORE POP POP JUMP JUMPDEST PUSH1 0x0 PUSH2 0x2D58 DUP3 PUSH2 0x3C2A JUMP JUMPDEST PUSH2 0x2D62 DUP2 DUP6 PUSH2 0x3D23 JUMP JUMPDEST SWAP4 POP PUSH2 0x2D72 DUP2 DUP6 PUSH1 0x20 DUP7 ADD PUSH2 0x3E24 JUMP JUMPDEST PUSH2 0x2D7B DUP2 PUSH2 0x3EA3 JUMP JUMPDEST DUP5 ADD SWAP2 POP POP SWAP3 SWAP2 POP POP JUMP JUMPDEST PUSH1 0x0 PUSH2 0x2D91 DUP3 PUSH2 0x3C2A JUMP JUMPDEST PUSH2 0x2D9B DUP2 DUP6 PUSH2 0x3D34 JUMP JUMPDEST SWAP4 POP PUSH2 0x2DAB DUP2 DUP6 PUSH1 0x20 DUP7 ADD PUSH2 0x3E24 JUMP JUMPDEST PUSH2 0x2DB4 DUP2 PUSH2 0x3EA3 JUMP JUMPDEST DUP5 ADD SWAP2 POP POP SWAP3 SWAP2 POP POP JUMP JUMPDEST PUSH1 0x0 PUSH2 0x2DCC PUSH1 0x29 DUP4 PUSH2 0x3D34 JUMP JUMPDEST SWAP2 POP PUSH32 0x4F6E6C792061206E6F746172792063616E206465707265636174652074686973 PUSH1 0x0 DUP4 ADD MSTORE PUSH32 0x20636F6E74726163740000000000000000000000000000000000000000000000 PUSH1 0x20 DUP4 ADD MSTORE PUSH1 0x40 DUP3 ADD SWAP1 POP SWAP2 SWAP1 POP JUMP JUMPDEST PUSH1 0x0 PUSH2 0x2E32 PUSH1 0x1C DUP4 PUSH2 0x3D34 JUMP JUMPDEST SWAP2 POP PUSH32 0x436F6E747261637420686173206265656E206465707265636174656400000000 PUSH1 0x0 DUP4 ADD MSTORE PUSH1 0x20 DUP3 ADD SWAP1 POP SWAP2 SWAP1 POP JUMP JUMPDEST PUSH1 0x0 PUSH2 0x2E72 PUSH1 0x30 DUP4 PUSH2 0x3D34 JUMP JUMPDEST SWAP2 POP PUSH32 0x4465707265636174696F6E207265717569726573207468652061646472657373 PUSH1 0x0 DUP4 ADD MSTORE PUSH32 0x20746F206265206E6F746172697A656400000000000000000000000000000000 PUSH1 0x20 DUP4 ADD MSTORE PUSH1 0x40 DUP3 ADD SWAP1 POP SWAP2 SWAP1 POP JUMP JUMPDEST PUSH1 0x0 PUSH2 0x2ED8 PUSH1 0x28 DUP4 PUSH2 0x3D34 JUMP JUMPDEST SWAP2 POP PUSH32 0x5369676E617475726520617272617973206D757374206265206F662065717561 PUSH1 0x0 DUP4 ADD MSTORE PUSH32 0x6C206C656E677468000000000000000000000000000000000000000000000000 PUSH1 0x20 DUP4 ADD MSTORE PUSH1 0x40 DUP3 ADD SWAP1 POP SWAP2 SWAP1 POP JUMP JUMPDEST PUSH1 0x0 PUSH2 0x2F3E PUSH1 0x36 DUP4 PUSH2 0x3D34 JUMP JUMPDEST SWAP2 POP PUSH32 0x426C6F636B20486569676874206D757374206265206772656174657220746861 PUSH1 0x0 DUP4 ADD MSTORE PUSH32 0x6E2063757272656E7420626C6F636B2068656967687400000000000000000000 PUSH1 0x20 DUP4 ADD MSTORE PUSH1 0x40 DUP3 ADD SWAP1 POP SWAP2 SWAP1 POP JUMP JUMPDEST PUSH1 0x0 PUSH2 0x2FA4 PUSH1 0x34 DUP4 PUSH2 0x3D34 JUMP JUMPDEST SWAP2 POP PUSH32 0x486173686564206164647265737320646F6573206E6F74206D61746368206164 PUSH1 0x0 DUP4 ADD MSTORE PUSH32 0x647265737320686173682070617373656420696E000000000000000000000000 PUSH1 0x20 DUP4 ADD MSTORE PUSH1 0x40 DUP3 ADD SWAP1 POP SWAP2 SWAP1 POP JUMP JUMPDEST PUSH1 0x0 PUSH2 0x2A0 DUP4 ADD PUSH1 0x0 DUP4 ADD MLOAD PUSH2 0x3016 PUSH1 0x0 DUP7 ADD DUP3 PUSH2 0x3521 JUMP JUMPDEST POP PUSH1 0x20 DUP4 ADD MLOAD PUSH2 0x3029 PUSH1 0x20 DUP7 ADD DUP3 PUSH2 0x3521 JUMP JUMPDEST POP PUSH1 0x40 DUP4 ADD MLOAD PUSH2 0x303C PUSH1 0x40 DUP7 ADD DUP3 PUSH2 0x2957 JUMP JUMPDEST POP PUSH1 0x60 DUP4 ADD MLOAD DUP5 DUP3 SUB PUSH1 0x60 DUP7 ADD MSTORE PUSH2 0x3054 DUP3 DUP3 PUSH2 0x2BEE JUMP JUMPDEST SWAP2 POP POP PUSH1 0x80 DUP4 ADD MLOAD DUP5 DUP3 SUB PUSH1 0x80 DUP7 ADD MSTORE PUSH2 0x306E DUP3 DUP3 PUSH2 0x29EA JUMP JUMPDEST SWAP2 POP POP PUSH1 0xA0 DUP4 ADD MLOAD DUP5 DUP3 SUB PUSH1 0xA0 DUP7 ADD MSTORE PUSH2 0x3088 DUP3 DUP3 PUSH2 0x2A48 JUMP JUMPDEST SWAP2 POP POP PUSH1 0xC0 DUP4 ADD MLOAD PUSH2 0x309D PUSH1 0xC0 DUP7 ADD DUP3 PUSH2 0x2D3E JUMP JUMPDEST POP PUSH1 0xE0 DUP4 ADD MLOAD PUSH2 0x30B0 PUSH1 0xE0 DUP7 ADD DUP3 PUSH2 0x2D3E JUMP JUMPDEST POP PUSH2 0x100 DUP4 ADD MLOAD PUSH2 0x30C5 PUSH2 0x100 DUP7 ADD DUP3 PUSH2 0x2D3E JUMP JUMPDEST POP PUSH2 0x120 DUP4 ADD MLOAD PUSH2 0x30DA PUSH2 0x120 DUP7 ADD DUP3 PUSH2 0x2D3E JUMP JUMPDEST POP PUSH2 0x140 DUP4 ADD MLOAD PUSH2 0x30EF PUSH2 0x140 DUP7 ADD DUP3 PUSH2 0x2D3E JUMP JUMPDEST POP PUSH2 0x160 DUP4 ADD MLOAD PUSH2 0x3104 PUSH2 0x160 DUP7 ADD DUP3 PUSH2 0x2D3E JUMP JUMPDEST POP PUSH2 0x180 DUP4 ADD MLOAD PUSH2 0x3119 PUSH2 0x180 DUP7 ADD DUP3 PUSH2 0x2D3E JUMP JUMPDEST POP PUSH2 0x1A0 DUP4 ADD MLOAD DUP5 DUP3 SUB PUSH2 0x1A0 DUP7 ADD MSTORE PUSH2 0x3133 DUP3 DUP3 PUSH2 0x2A48 JUMP JUMPDEST SWAP2 POP POP PUSH2 0x1C0 DUP4 ADD MLOAD DUP5 DUP3 SUB PUSH2 0x1C0 DUP7 ADD MSTORE PUSH2 0x314F DUP3 DUP3 PUSH2 0x2A48 JUMP JUMPDEST SWAP2 POP POP PUSH2 0x1E0 DUP4 ADD MLOAD DUP5 DUP3 SUB PUSH2 0x1E0 DUP7 ADD MSTORE PUSH2 0x316B DUP3 DUP3 PUSH2 0x2A48 JUMP JUMPDEST SWAP2 POP POP PUSH2 0x200 DUP4 ADD MLOAD DUP5 DUP3 SUB PUSH2 0x200 DUP7 ADD MSTORE PUSH2 0x3187 DUP3 DUP3 PUSH2 0x2A48 JUMP JUMPDEST SWAP2 POP POP PUSH2 0x220 DUP4 ADD MLOAD DUP5 DUP3 SUB PUSH2 0x220 DUP7 ADD MSTORE PUSH2 0x31A3 DUP3 DUP3 PUSH2 0x2A48 JUMP JUMPDEST SWAP2 POP POP PUSH2 0x240 DUP4 ADD MLOAD DUP5 DUP3 SUB PUSH2 0x240 DUP7 ADD MSTORE PUSH2 0x31BF DUP3 DUP3 PUSH2 0x2A48 JUMP JUMPDEST SWAP2 POP POP PUSH2 0x260 DUP4 ADD MLOAD DUP5 DUP3 SUB PUSH2 0x260 DUP7 ADD MSTORE PUSH2 0x31DB DUP3 DUP3 PUSH2 0x29EA JUMP JUMPDEST SWAP2 POP POP PUSH2 0x280 DUP4 ADD MLOAD DUP5 DUP3 SUB PUSH2 0x280 DUP7 ADD MSTORE PUSH2 0x31F7 DUP3 DUP3 PUSH2 0x2A48 JUMP JUMPDEST SWAP2 POP POP DUP1 SWAP2 POP POP SWAP3 SWAP2 POP POP JUMP JUMPDEST PUSH1 0x0 PUSH1 0x40 DUP4 ADD PUSH1 0x0 DUP4 ADD MLOAD DUP5 DUP3 SUB PUSH1 0x0 DUP7 ADD MSTORE PUSH2 0x3221 DUP3 DUP3 PUSH2 0x2D4D JUMP JUMPDEST SWAP2 POP POP PUSH1 0x20 DUP4 ADD MLOAD PUSH2 0x3236 PUSH1 0x20 DUP7 ADD DUP3 PUSH2 0x2957 JUMP JUMPDEST POP DUP1 SWAP2 POP POP SWAP3 SWAP2 POP POP JUMP JUMPDEST PUSH1 0x0 PUSH2 0x1C0 DUP4 ADD PUSH1 0x0 DUP4 ADD MLOAD PUSH2 0x325A PUSH1 0x0 DUP7 ADD DUP3 PUSH2 0x353F JUMP JUMPDEST POP PUSH1 0x20 DUP4 ADD MLOAD PUSH2 0x326D PUSH1 0x20 DUP7 ADD DUP3 PUSH2 0x353F JUMP JUMPDEST POP PUSH1 0x40 DUP4 ADD MLOAD PUSH2 0x3280 PUSH1 0x40 DUP7 ADD DUP3 PUSH2 0x3477 JUMP JUMPDEST POP PUSH1 0x60 DUP4 ADD MLOAD PUSH2 0x3293 PUSH1 0x80 DUP7 ADD DUP3 PUSH2 0x2957 JUMP JUMPDEST POP PUSH1 0x80 DUP4 ADD MLOAD DUP5 DUP3 SUB PUSH1 0xA0 DUP7 ADD MSTORE PUSH2 0x32AB DUP3 DUP3 PUSH2 0x2FFD JUMP JUMPDEST SWAP2 POP POP PUSH1 0xA0 DUP4 ADD MLOAD PUSH2 0x32C0 PUSH1 0xC0 DUP7 ADD DUP3 PUSH2 0x353F JUMP JUMPDEST POP PUSH1 0xC0 DUP4 ADD MLOAD PUSH2 0x32D3 PUSH1 0xE0 DUP7 ADD DUP3 PUSH2 0x34A6 JUMP JUMPDEST POP PUSH1 0xE0 DUP4 ADD MLOAD PUSH2 0x32E7 PUSH2 0x120 DUP7 ADD DUP3 PUSH2 0x2C72 JUMP JUMPDEST POP PUSH2 0x100 DUP4 ADD MLOAD PUSH2 0x32FC PUSH2 0x140 DUP7 ADD DUP3 PUSH2 0x353F JUMP JUMPDEST POP PUSH2 0x120 DUP4 ADD MLOAD DUP5 DUP3 SUB PUSH2 0x160 DUP7 ADD MSTORE PUSH2 0x3316 DUP3 DUP3 PUSH2 0x2B79 JUMP JUMPDEST SWAP2 POP POP PUSH2 0x140 DUP4 ADD MLOAD DUP5 DUP3 SUB PUSH2 0x180 DUP7 ADD MSTORE PUSH2 0x3332 DUP3 DUP3 PUSH2 0x2B1B JUMP JUMPDEST SWAP2 POP POP PUSH2 0x160 DUP4 ADD MLOAD DUP5 DUP3 SUB PUSH2 0x1A0 DUP7 ADD MSTORE PUSH2 0x334E DUP3 DUP3 PUSH2 0x2AA6 JUMP JUMPDEST SWAP2 POP POP DUP1 SWAP2 POP POP SWAP3 SWAP2 POP POP JUMP JUMPDEST PUSH1 0xE0 DUP3 ADD PUSH1 0x0 DUP3 ADD MLOAD PUSH2 0x3371 PUSH1 0x0 DUP6 ADD DUP3 PUSH2 0x2D11 JUMP JUMPDEST POP PUSH1 0x20 DUP3 ADD MLOAD PUSH2 0x3384 PUSH1 0x20 DUP6 ADD DUP3 PUSH2 0x2D11 JUMP JUMPDEST POP PUSH1 0x40 DUP3 ADD MLOAD PUSH2 0x3397 PUSH1 0x40 DUP6 ADD DUP3 PUSH2 0x2957 JUMP JUMPDEST POP PUSH1 0x60 DUP3 ADD MLOAD PUSH2 0x33AA PUSH1 0x60 DUP6 ADD DUP3 PUSH2 0x353F JUMP JUMPDEST POP PUSH1 0x80 DUP3 ADD MLOAD PUSH2 0x33BD PUSH1 0x80 DUP6 ADD DUP3 PUSH2 0x2C72 JUMP JUMPDEST POP PUSH1 0xA0 DUP3 ADD MLOAD PUSH2 0x33D0 PUSH1 0xA0 DUP6 ADD DUP3 PUSH2 0x2C72 JUMP JUMPDEST POP PUSH1 0xC0 DUP3 ADD MLOAD PUSH2 0x33E3 PUSH1 0xC0 DUP6 ADD DUP3 PUSH2 0x2C72 JUMP JUMPDEST POP POP POP POP JUMP JUMPDEST PUSH1 0xE0 DUP3 ADD PUSH1 0x0 DUP3 ADD MLOAD PUSH2 0x33FF PUSH1 0x0 DUP6 ADD DUP3 PUSH2 0x2D11 JUMP JUMPDEST POP PUSH1 0x20 DUP3 ADD MLOAD PUSH2 0x3412 PUSH1 0x20 DUP6 ADD DUP3 PUSH2 0x2D11 JUMP JUMPDEST POP PUSH1 0x40 DUP3 ADD MLOAD PUSH2 0x3425 PUSH1 0x40 DUP6 ADD DUP3 PUSH2 0x2957 JUMP JUMPDEST POP PUSH1 0x60 DUP3 ADD MLOAD PUSH2 0x3438 PUSH1 0x60 DUP6 ADD DUP3 PUSH2 0x353F JUMP JUMPDEST POP PUSH1 0x80 DUP3 ADD MLOAD PUSH2 0x344B PUSH1 0x80 DUP6 ADD DUP3 PUSH2 0x2C72 JUMP JUMPDEST POP PUSH1 0xA0 DUP3 ADD MLOAD PUSH2 0x345E PUSH1 0xA0 DUP6 ADD DUP3 PUSH2 0x2C72 JUMP JUMPDEST POP PUSH1 0xC0 DUP3 ADD MLOAD PUSH2 0x3471 PUSH1 0xC0 DUP6 ADD DUP3 PUSH2 0x2C72 JUMP JUMPDEST POP POP POP POP JUMP JUMPDEST PUSH1 0x40 DUP3 ADD PUSH1 0x0 DUP3 ADD MLOAD PUSH2 0x348D PUSH1 0x0 DUP6 ADD DUP3 PUSH2 0x355D JUMP JUMPDEST POP PUSH1 0x20 DUP3 ADD MLOAD PUSH2 0x34A0 PUSH1 0x20 DUP6 ADD DUP3 PUSH2 0x2957 JUMP JUMPDEST POP POP POP POP JUMP JUMPDEST PUSH1 0x40 DUP3 ADD PUSH1 0x0 DUP3 ADD MLOAD PUSH2 0x34BC PUSH1 0x0 DUP6 ADD DUP3 PUSH2 0x2C72 JUMP JUMPDEST POP PUSH1 0x20 DUP3 ADD MLOAD PUSH2 0x34CF PUSH1 0x20 DUP6 ADD DUP3 PUSH2 0x353F JUMP JUMPDEST POP POP POP POP JUMP JUMPDEST PUSH1 0x0 PUSH1 0x40 DUP4 ADD PUSH1 0x0 DUP4 ADD MLOAD PUSH2 0x34ED PUSH1 0x0 DUP7 ADD DUP3 PUSH2 0x2957 JUMP JUMPDEST POP PUSH1 0x20 DUP4 ADD MLOAD DUP5 DUP3 SUB PUSH1 0x20 DUP7 ADD MSTORE PUSH2 0x3505 DUP3 DUP3 PUSH2 0x2FFD JUMP JUMPDEST SWAP2 POP POP DUP1 SWAP2 POP POP SWAP3 SWAP2 POP POP JUMP JUMPDEST PUSH2 0x351B DUP2 PUSH2 0x3DCE JUMP JUMPDEST DUP3 MSTORE POP POP JUMP JUMPDEST PUSH2 0x352A DUP2 PUSH2 0x3DC0 JUMP JUMPDEST DUP3 MSTORE POP POP JUMP JUMPDEST PUSH2 0x3539 DUP2 PUSH2 0x3DEE JUMP JUMPDEST DUP3 MSTORE POP POP JUMP JUMPDEST PUSH2 0x3548 DUP2 PUSH2 0x3DF8 JUMP JUMPDEST DUP3 MSTORE POP POP JUMP JUMPDEST PUSH2 0x3557 DUP2 PUSH2 0x3DF8 JUMP JUMPDEST DUP3 MSTORE POP POP JUMP JUMPDEST PUSH2 0x3566 DUP2 PUSH2 0x3E08 JUMP JUMPDEST DUP3 MSTORE POP POP JUMP JUMPDEST PUSH2 0x3575 DUP2 PUSH2 0x3E08 JUMP JUMPDEST DUP3 MSTORE POP POP JUMP JUMPDEST PUSH2 0x358C PUSH2 0x3587 DUP3 PUSH2 0x3E08 JUMP JUMPDEST PUSH2 0x3E8F JUMP JUMPDEST DUP3 MSTORE POP POP JUMP JUMPDEST PUSH1 0x0 PUSH2 0x359E DUP3 DUP5 PUSH2 0x2975 JUMP JUMPDEST PUSH1 0x14 DUP3 ADD SWAP2 POP DUP2 SWAP1 POP SWAP3 SWAP2 POP POP JUMP JUMPDEST PUSH1 0x0 PUSH2 0x35B9 DUP3 DUP5 PUSH2 0x2C90 JUMP JUMPDEST PUSH1 0x20 DUP3 ADD SWAP2 POP DUP2 SWAP1 POP SWAP3 SWAP2 POP POP JUMP JUMPDEST PUSH1 0x0 PUSH2 0x35D4 DUP3 DUP10 PUSH2 0x357B JUMP JUMPDEST PUSH1 0x1 DUP3 ADD SWAP2 POP PUSH2 0x35E4 DUP3 DUP9 PUSH2 0x2C5B JUMP JUMPDEST PUSH1 0x14 DUP3 ADD SWAP2 POP PUSH2 0x35F4 DUP3 DUP8 PUSH2 0x2975 JUMP JUMPDEST PUSH1 0x14 DUP3 ADD SWAP2 POP PUSH2 0x3604 DUP3 DUP7 PUSH2 0x2CE0 JUMP JUMPDEST SWAP2 POP PUSH2 0x3610 DUP3 DUP6 PUSH2 0x2975 JUMP JUMPDEST PUSH1 0x14 DUP3 ADD SWAP2 POP PUSH2 0x3620 DUP3 DUP5 PUSH2 0x2CE0 JUMP JUMPDEST SWAP2 POP DUP2 SWAP1 POP SWAP8 SWAP7 POP POP POP POP POP POP POP JUMP JUMPDEST PUSH1 0x0 PUSH1 0x20 DUP3 ADD SWAP1 POP PUSH2 0x3645 PUSH1 0x0 DUP4 ADD DUP5 PUSH2 0x2966 JUMP JUMPDEST SWAP3 SWAP2 POP POP JUMP JUMPDEST PUSH1 0x0 PUSH1 0x20 DUP3 ADD SWAP1 POP DUP2 DUP2 SUB PUSH1 0x0 DUP4 ADD MSTORE PUSH2 0x3665 DUP2 DUP5 PUSH2 0x298C JUMP JUMPDEST SWAP1 POP SWAP3 SWAP2 POP POP JUMP JUMPDEST PUSH1 0x0 PUSH1 0x20 DUP3 ADD SWAP1 POP PUSH2 0x3682 PUSH1 0x0 DUP4 ADD DUP5 PUSH2 0x2C4C JUMP JUMPDEST SWAP3 SWAP2 POP POP JUMP JUMPDEST PUSH1 0x0 PUSH1 0x20 DUP3 ADD SWAP1 POP PUSH2 0x369D PUSH1 0x0 DUP4 ADD DUP5 PUSH2 0x2C81 JUMP JUMPDEST SWAP3 SWAP2 POP POP JUMP JUMPDEST PUSH1 0x0 PUSH1 0x80 DUP3 ADD SWAP1 POP PUSH2 0x36B8 PUSH1 0x0 DUP4 ADD DUP8 PUSH2 0x2C81 JUMP JUMPDEST PUSH2 0x36C5 PUSH1 0x20 DUP4 ADD DUP7 PUSH2 0x356C JUMP JUMPDEST PUSH2 0x36D2 PUSH1 0x40 DUP4 ADD DUP6 PUSH2 0x2C81 JUMP JUMPDEST PUSH2 0x36DF PUSH1 0x60 DUP4 ADD DUP5 PUSH2 0x2C81 JUMP JUMPDEST SWAP6 SWAP5 POP POP POP POP POP JUMP JUMPDEST PUSH1 0x0 PUSH1 0x20 DUP3 ADD SWAP1 POP DUP2 DUP2 SUB PUSH1 0x0 DUP4 ADD MSTORE PUSH2 0x3702 DUP2 DUP5 PUSH2 0x2CA7 JUMP JUMPDEST SWAP1 POP SWAP3 SWAP2 POP POP JUMP JUMPDEST PUSH1 0x0 PUSH1 0xE0 DUP3 ADD SWAP1 POP PUSH2 0x371F PUSH1 0x0 DUP4 ADD DUP11 PUSH2 0x2D20 JUMP JUMPDEST PUSH2 0x372C PUSH1 0x20 DUP4 ADD DUP10 PUSH2 0x2D20 JUMP JUMPDEST PUSH2 0x3739 PUSH1 0x40 DUP4 ADD DUP9 PUSH2 0x2966 JUMP JUMPDEST PUSH2 0x3746 PUSH1 0x60 DUP4 ADD DUP8 PUSH2 0x354E JUMP JUMPDEST PUSH2 0x3753 PUSH1 0x80 DUP4 ADD DUP7 PUSH2 0x2C81 JUMP JUMPDEST PUSH2 0x3760 PUSH1 0xA0 DUP4 ADD DUP6 PUSH2 0x2C81 JUMP JUMPDEST PUSH2 0x376D PUSH1 0xC0 DUP4 ADD DUP5 PUSH2 0x2C81 JUMP JUMPDEST SWAP9 SWAP8 POP POP POP POP POP POP POP POP JUMP JUMPDEST PUSH1 0x0 PUSH1 0x20 DUP3 ADD SWAP1 POP DUP2 DUP2 SUB PUSH1 0x0 DUP4 ADD MSTORE PUSH2 0x3793 DUP2 DUP5 PUSH2 0x2D86 JUMP JUMPDEST SWAP1 POP SWAP3 SWAP2 POP POP JUMP JUMPDEST PUSH1 0x0 PUSH1 0x20 DUP3 ADD SWAP1 POP DUP2 DUP2 SUB PUSH1 0x0 DUP4 ADD MSTORE PUSH2 0x37B4 DUP2 PUSH2 0x2DBF JUMP JUMPDEST SWAP1 POP SWAP2 SWAP1 POP JUMP JUMPDEST PUSH1 0x0 PUSH1 0x20 DUP3 ADD SWAP1 POP DUP2 DUP2 SUB PUSH1 0x0 DUP4 ADD MSTORE PUSH2 0x37D4 DUP2 PUSH2 0x2E25 JUMP JUMPDEST SWAP1 POP SWAP2 SWAP1 POP JUMP JUMPDEST PUSH1 0x0 PUSH1 0x20 DUP3 ADD SWAP1 POP DUP2 DUP2 SUB PUSH1 0x0 DUP4 ADD MSTORE PUSH2 0x37F4 DUP2 PUSH2 0x2E65 JUMP JUMPDEST SWAP1 POP SWAP2 SWAP1 POP JUMP JUMPDEST PUSH1 0x0 PUSH1 0x20 DUP3 ADD SWAP1 POP DUP2 DUP2 SUB PUSH1 0x0 DUP4 ADD MSTORE PUSH2 0x3814 DUP2 PUSH2 0x2ECB JUMP JUMPDEST SWAP1 POP SWAP2 SWAP1 POP JUMP JUMPDEST PUSH1 0x0 PUSH1 0x20 DUP3 ADD SWAP1 POP DUP2 DUP2 SUB PUSH1 0x0 DUP4 ADD MSTORE PUSH2 0x3834 DUP2 PUSH2 0x2F31 JUMP JUMPDEST SWAP1 POP SWAP2 SWAP1 POP JUMP JUMPDEST PUSH1 0x0 PUSH1 0x20 DUP3 ADD SWAP1 POP DUP2 DUP2 SUB PUSH1 0x0 DUP4 ADD MSTORE PUSH2 0x3854 DUP2 PUSH2 0x2F97 JUMP JUMPDEST SWAP1 POP SWAP2 SWAP1 POP JUMP JUMPDEST PUSH1 0x0 PUSH1 0x20 DUP3 ADD SWAP1 POP DUP2 DUP2 SUB PUSH1 0x0 DUP4 ADD MSTORE PUSH2 0x3875 DUP2 DUP5 PUSH2 0x3241 JUMP JUMPDEST SWAP1 POP SWAP3 SWAP2 POP POP JUMP JUMPDEST PUSH1 0x0 PUSH1 0x40 DUP3 ADD SWAP1 POP DUP2 DUP2 SUB PUSH1 0x0 DUP4 ADD MSTORE PUSH2 0x3897 DUP2 DUP6 PUSH2 0x3241 JUMP JUMPDEST SWAP1 POP PUSH2 0x38A6 PUSH1 0x20 DUP4 ADD DUP5 PUSH2 0x354E JUMP JUMPDEST SWAP4 SWAP3 POP POP POP JUMP JUMPDEST PUSH1 0x0 PUSH1 0xE0 DUP3 ADD SWAP1 POP PUSH2 0x38C2 PUSH1 0x0 DUP4 ADD DUP5 PUSH2 0x33E9 JUMP JUMPDEST SWAP3 SWAP2 POP POP JUMP JUMPDEST PUSH1 0x0 PUSH1 0x20 DUP3 ADD SWAP1 POP PUSH2 0x38DD PUSH1 0x0 DUP4 ADD DUP5 PUSH2 0x3530 JUMP JUMPDEST SWAP3 SWAP2 POP POP JUMP JUMPDEST PUSH1 0x0 PUSH1 0x20 DUP3 ADD SWAP1 POP PUSH2 0x38F8 PUSH1 0x0 DUP4 ADD DUP5 PUSH2 0x354E JUMP JUMPDEST SWAP3 SWAP2 POP POP JUMP JUMPDEST PUSH1 0x0 PUSH1 0x20 DUP3 ADD SWAP1 POP PUSH2 0x3913 PUSH1 0x0 DUP4 ADD DUP5 PUSH2 0x356C JUMP JUMPDEST SWAP3 SWAP2 POP POP JUMP JUMPDEST PUSH1 0x0 PUSH1 0x40 MLOAD SWAP1 POP DUP2 DUP2 ADD DUP2 DUP2 LT PUSH8 0xFFFFFFFFFFFFFFFF DUP3 GT OR ISZERO PUSH2 0x3940 JUMPI PUSH2 0x393F PUSH2 0x3EA1 JUMP JUMPDEST JUMPDEST DUP1 PUSH1 0x40 MSTORE POP SWAP2 SWAP1 POP JUMP JUMPDEST PUSH1 0x0 PUSH8 0xFFFFFFFFFFFFFFFF DUP3 GT ISZERO PUSH2 0x3965 JUMPI PUSH2 0x3964 PUSH2 0x3EA1 JUMP JUMPDEST JUMPDEST PUSH1 0x20 DUP3 MUL SWAP1 POP PUSH1 0x20 DUP2 ADD SWAP1 POP SWAP2 SWAP1 POP JUMP JUMPDEST PUSH1 0x0 PUSH8 0xFFFFFFFFFFFFFFFF DUP3 GT ISZERO PUSH2 0x3991 JUMPI PUSH2 0x3990 PUSH2 0x3EA1 JUMP JUMPDEST JUMPDEST PUSH1 0x20 DUP3 MUL SWAP1 POP PUSH1 0x20 DUP2 ADD SWAP1 POP SWAP2 SWAP1 POP JUMP JUMPDEST PUSH1 0x0 PUSH8 0xFFFFFFFFFFFFFFFF DUP3 GT ISZERO PUSH2 0x39BD JUMPI PUSH2 0x39BC PUSH2 0x3EA1 JUMP JUMPDEST JUMPDEST PUSH1 0x20 DUP3 MUL SWAP1 POP PUSH1 0x20 DUP2 ADD SWAP1 POP SWAP2 SWAP1 POP JUMP JUMPDEST PUSH1 0x0 PUSH8 0xFFFFFFFFFFFFFFFF DUP3 GT ISZERO PUSH2 0x39E9 JUMPI PUSH2 0x39E8 PUSH2 0x3EA1 JUMP JUMPDEST JUMPDEST PUSH1 0x20 DUP3 MUL SWAP1 POP PUSH1 0x20 DUP2 ADD SWAP1 POP SWAP2 SWAP1 POP JUMP JUMPDEST PUSH1 0x0 PUSH8 0xFFFFFFFFFFFFFFFF DUP3 GT ISZERO PUSH2 0x3A15 JUMPI PUSH2 0x3A14 PUSH2 0x3EA1 JUMP JUMPDEST JUMPDEST PUSH1 0x20 DUP3 MUL SWAP1 POP PUSH1 0x20 DUP2 ADD SWAP1 POP SWAP2 SWAP1 POP JUMP JUMPDEST PUSH1 0x0 PUSH8 0xFFFFFFFFFFFFFFFF DUP3 GT ISZERO PUSH2 0x3A41 JUMPI PUSH2 0x3A40 PUSH2 0x3EA1 JUMP JUMPDEST JUMPDEST PUSH1 0x20 DUP3 MUL SWAP1 POP PUSH1 0x20 DUP2 ADD SWAP1 POP SWAP2 SWAP1 POP JUMP JUMPDEST PUSH1 0x0 PUSH8 0xFFFFFFFFFFFFFFFF DUP3 GT ISZERO PUSH2 0x3A6D JUMPI PUSH2 0x3A6C PUSH2 0x3EA1 JUMP JUMPDEST JUMPDEST PUSH1 0x20 DUP3 MUL SWAP1 POP PUSH1 0x20 DUP2 ADD SWAP1 POP SWAP2 SWAP1 POP JUMP JUMPDEST PUSH1 0x0 PUSH8 0xFFFFFFFFFFFFFFFF DUP3 GT ISZERO PUSH2 0x3A99 JUMPI PUSH2 0x3A98 PUSH2 0x3EA1 JUMP JUMPDEST JUMPDEST PUSH1 0x20 DUP3 MUL SWAP1 POP PUSH1 0x20 DUP2 ADD SWAP1 POP SWAP2 SWAP1 POP JUMP JUMPDEST PUSH1 0x0 PUSH8 0xFFFFFFFFFFFFFFFF DUP3 GT ISZERO PUSH2 0x3AC5 JUMPI PUSH2 0x3AC4 PUSH2 0x3EA1 JUMP JUMPDEST JUMPDEST PUSH1 0x20 DUP3 MUL SWAP1 POP PUSH1 0x20 DUP2 ADD SWAP1 POP SWAP2 SWAP1 POP JUMP JUMPDEST PUSH1 0x0 PUSH8 0xFFFFFFFFFFFFFFFF DUP3 GT ISZERO PUSH2 0x3AF1 JUMPI PUSH2 0x3AF0 PUSH2 0x3EA1 JUMP JUMPDEST JUMPDEST PUSH1 0x20 DUP3 MUL SWAP1 POP PUSH1 0x20 DUP2 ADD SWAP1 POP SWAP2 SWAP1 POP JUMP JUMPDEST PUSH1 0x0 PUSH8 0xFFFFFFFFFFFFFFFF DUP3 GT ISZERO PUSH2 0x3B1D JUMPI PUSH2 0x3B1C PUSH2 0x3EA1 JUMP JUMPDEST JUMPDEST PUSH1 0x1F NOT PUSH1 0x1F DUP4 ADD AND SWAP1 POP PUSH1 0x20 DUP2 ADD SWAP1 POP SWAP2 SWAP1 POP JUMP JUMPDEST PUSH1 0x0 PUSH8 0xFFFFFFFFFFFFFFFF DUP3 GT ISZERO PUSH2 0x3B4D JUMPI PUSH2 0x3B4C PUSH2 0x3EA1 JUMP JUMPDEST JUMPDEST PUSH1 0x1F NOT PUSH1 0x1F DUP4 ADD AND SWAP1 POP PUSH1 0x20 DUP2 ADD SWAP1 POP SWAP2 SWAP1 POP JUMP JUMPDEST PUSH1 0x0 DUP2 SWAP1 POP PUSH1 0x20 DUP3 ADD SWAP1 POP SWAP2 SWAP1 POP JUMP JUMPDEST PUSH1 0x0 DUP2 SWAP1 POP PUSH1 0x20 DUP3 ADD SWAP1 POP SWAP2 SWAP1 POP JUMP JUMPDEST PUSH1 0x0 DUP2 SWAP1 POP PUSH1 0x20 DUP3 ADD SWAP1 POP SWAP2 SWAP1 POP JUMP JUMPDEST PUSH1 0x0 DUP2 SWAP1 POP PUSH1 0x20 DUP3 ADD SWAP1 POP SWAP2 SWAP1 POP JUMP JUMPDEST PUSH1 0x0 DUP2 SWAP1 POP PUSH1 0x20 DUP3 ADD SWAP1 POP SWAP2 SWAP1 POP JUMP JUMPDEST PUSH1 0x0 DUP2 SWAP1 POP PUSH1 0x20 DUP3 ADD SWAP1 POP SWAP2 SWAP1 POP JUMP JUMPDEST PUSH1 0x0 DUP2 SWAP1 POP PUSH1 0x20 DUP3 ADD SWAP1 POP SWAP2 SWAP1 POP JUMP JUMPDEST PUSH1 0x0 DUP2 MLOAD SWAP1 POP SWAP2 SWAP1 POP JUMP JUMPDEST PUSH1 0x0 DUP2 MLOAD SWAP1 POP SWAP2 SWAP1 POP JUMP JUMPDEST PUSH1 0x0 DUP2 MLOAD SWAP1 POP SWAP2 SWAP1 POP JUMP JUMPDEST PUSH1 0x0 DUP2 MLOAD SWAP1 POP SWAP2 SWAP1 POP JUMP JUMPDEST PUSH1 0x0 DUP2 MLOAD SWAP1 POP SWAP2 SWAP1 POP JUMP JUMPDEST PUSH1 0x0 DUP2 MLOAD SWAP1 POP SWAP2 SWAP1 POP JUMP JUMPDEST PUSH1 0x0 DUP2 MLOAD SWAP1 POP SWAP2 SWAP1 POP JUMP JUMPDEST PUSH1 0x0 DUP2 MLOAD SWAP1 POP SWAP2 SWAP1 POP JUMP JUMPDEST PUSH1 0x0 DUP2 MLOAD SWAP1 POP SWAP2 SWAP1 POP JUMP JUMPDEST PUSH1 0x0 PUSH1 0x20 DUP3 ADD SWAP1 POP SWAP2 SWAP1 POP JUMP JUMPDEST PUSH1 0x0 PUSH1 0x20 DUP3 ADD SWAP1 POP SWAP2 SWAP1 POP JUMP JUMPDEST PUSH1 0x0 PUSH1 0x20 DUP3 ADD SWAP1 POP SWAP2 SWAP1 POP JUMP JUMPDEST PUSH1 0x0 PUSH1 0x20 DUP3 ADD SWAP1 POP SWAP2 SWAP1 POP JUMP JUMPDEST PUSH1 0x0 PUSH1 0x20 DUP3 ADD SWAP1 POP SWAP2 SWAP1 POP JUMP JUMPDEST PUSH1 0x0 PUSH1 0x20 DUP3 ADD SWAP1 POP SWAP2 SWAP1 POP JUMP JUMPDEST PUSH1 0x0 PUSH1 0x20 DUP3 ADD SWAP1 POP SWAP2 SWAP1 POP JUMP JUMPDEST PUSH1 0x0 DUP3 DUP3 MSTORE PUSH1 0x20 DUP3 ADD SWAP1 POP SWAP3 SWAP2 POP POP JUMP JUMPDEST PUSH1 0x0 DUP3 DUP3 MSTORE PUSH1 0x20 DUP3 ADD SWAP1 POP SWAP3 SWAP2 POP POP JUMP JUMPDEST PUSH1 0x0 DUP3 DUP3 MSTORE PUSH1 0x20 DUP3 ADD SWAP1 POP SWAP3 SWAP2 POP POP JUMP JUMPDEST PUSH1 0x0 DUP3 DUP3 MSTORE PUSH1 0x20 DUP3 ADD SWAP1 POP SWAP3 SWAP2 POP POP JUMP JUMPDEST PUSH1 0x0 DUP3 DUP3 MSTORE PUSH1 0x20 DUP3 ADD SWAP1 POP SWAP3 SWAP2 POP POP JUMP JUMPDEST PUSH1 0x0 DUP3 DUP3 MSTORE PUSH1 0x20 DUP3 ADD SWAP1 POP SWAP3 SWAP2 POP POP JUMP JUMPDEST PUSH1 0x0 DUP3 DUP3 MSTORE PUSH1 0x20 DUP3 ADD SWAP1 POP SWAP3 SWAP2 POP POP JUMP JUMPDEST PUSH1 0x0 DUP3 DUP3 MSTORE PUSH1 0x20 DUP3 ADD SWAP1 POP SWAP3 SWAP2 POP POP JUMP JUMPDEST PUSH1 0x0 DUP2 SWAP1 POP SWAP3 SWAP2 POP POP JUMP JUMPDEST PUSH1 0x0 DUP3 DUP3 MSTORE PUSH1 0x20 DUP3 ADD SWAP1 POP SWAP3 SWAP2 POP POP JUMP JUMPDEST PUSH1 0x0 DUP3 DUP3 MSTORE PUSH1 0x20 DUP3 ADD SWAP1 POP SWAP3 SWAP2 POP POP JUMP JUMPDEST PUSH1 0x0 PUSH2 0x3D50 DUP3 PUSH2 0x3DCE JUMP JUMPDEST SWAP1 POP SWAP2 SWAP1 POP JUMP JUMPDEST PUSH1 0x0 DUP2 ISZERO ISZERO SWAP1 POP SWAP2 SWAP1 POP JUMP JUMPDEST PUSH1 0x0 PUSH32 0xFFFFFFFFFFFFFFFFFFFFFFFFFFFFFFFFFFFFFFFF000000000000000000000000 DUP3 AND SWAP1 POP SWAP2 SWAP1 POP JUMP JUMPDEST PUSH1 0x0 DUP2 SWAP1 POP SWAP2 SWAP1 POP JUMP JUMPDEST PUSH1 0x0 DUP2 PUSH1 0x1 SIGNEXTEND SWAP1 POP SWAP2 SWAP1 POP JUMP JUMPDEST PUSH1 0x0 DUP2 PUSH1 0x3 SIGNEXTEND SWAP1 POP SWAP2 SWAP1 POP JUMP JUMPDEST PUSH1 0x0 DUP2 PUSH1 0x7 SIGNEXTEND SWAP1 POP SWAP2 SWAP1 POP JUMP JUMPDEST PUSH1 0x0 PUSH2 0xFFFF DUP3 AND SWAP1 POP SWAP2 SWAP1 POP JUMP JUMPDEST PUSH1 0x0 PUSH20 0xFFFFFFFFFFFFFFFFFFFFFFFFFFFFFFFFFFFFFFFF DUP3 AND SWAP1 POP SWAP2 SWAP1 POP JUMP JUMPDEST PUSH1 0x0 DUP2 SWAP1 POP SWAP2 SWAP1 POP JUMP JUMPDEST PUSH1 0x0 PUSH4 0xFFFFFFFF DUP3 AND SWAP1 POP SWAP2 SWAP1 POP JUMP JUMPDEST PUSH1 0x0 PUSH1 0xFF DUP3 AND SWAP1 POP SWAP2 SWAP1 POP JUMP JUMPDEST DUP3 DUP2 DUP4 CALLDATACOPY PUSH1 0x0 DUP4 DUP4 ADD MSTORE POP POP POP JUMP JUMPDEST PUSH1 0x0 JUMPDEST DUP4 DUP2 LT ISZERO PUSH2 0x3E42 JUMPI DUP1 DUP3 ADD MLOAD DUP2 DUP5 ADD MSTORE PUSH1 0x20 DUP2 ADD SWAP1 POP PUSH2 0x3E27 JUMP JUMPDEST DUP4 DUP2 GT ISZERO PUSH2 0x3E51 JUMPI PUSH1 0x0 DUP5 DUP5 ADD MSTORE JUMPDEST POP POP POP POP JUMP JUMPDEST PUSH1 0x0 PUSH2 0x3E62 DUP3 PUSH2 0x3E7D JUMP JUMPDEST SWAP1 POP SWAP2 SWAP1 POP JUMP JUMPDEST PUSH1 0x0 DUP2 SWAP1 POP SWAP2 SWAP1 POP JUMP JUMPDEST PUSH1 0x0 DUP2 SWAP1 POP SWAP2 SWAP1 POP JUMP JUMPDEST PUSH1 0x0 PUSH2 0x3E88 DUP3 PUSH2 0x3EC1 JUMP JUMPDEST SWAP1 POP SWAP2 SWAP1 POP JUMP JUMPDEST PUSH1 0x0 PUSH2 0x3E9A DUP3 PUSH2 0x3EB4 JUMP JUMPDEST SWAP1 POP SWAP2 SWAP1 POP JUMP JUMPDEST INVALID JUMPDEST PUSH1 0x0 PUSH1 0x1F NOT PUSH1 0x1F DUP4 ADD AND SWAP1 POP SWAP2 SWAP1 POP JUMP JUMPDEST PUSH1 0x0 DUP2 PUSH1 0xF8 SHL SWAP1 POP SWAP2 SWAP1 POP JUMP JUMPDEST PUSH1 0x0 DUP2 PUSH1 0x60 SHL SWAP1 POP SWAP2 SWAP1 POP JUMP JUMPDEST PUSH2 0x3ED7 DUP2 PUSH2 0x3D45 JUMP JUMPDEST DUP2 EQ PUSH2 0x3EE2 JUMPI PUSH1 0x0 DUP1 REVERT JUMPDEST POP JUMP JUMPDEST PUSH2 0x3EEE DUP2 PUSH2 0x3D8F JUMP JUMPDEST DUP2 EQ PUSH2 0x3EF9 JUMPI PUSH1 0x0 DUP1 REVERT JUMPDEST POP JUMP JUMPDEST PUSH2 0x3F05 DUP2 PUSH2 0x3D99 JUMP JUMPDEST DUP2 EQ PUSH2 0x3F10 JUMPI PUSH1 0x0 DUP1 REVERT JUMPDEST POP JUMP JUMPDEST PUSH2 0x3F1C DUP2 PUSH2 0x3DA6 JUMP JUMPDEST DUP2 EQ PUSH2 0x3F27 JUMPI PUSH1 0x0 DUP1 REVERT JUMPDEST POP JUMP JUMPDEST PUSH2 0x3F33 DUP2 PUSH2 0x3DB3 JUMP JUMPDEST DUP2 EQ PUSH2 0x3F3E JUMPI PUSH1 0x0 DUP1 REVERT JUMPDEST POP JUMP JUMPDEST PUSH2 0x3F4A DUP2 PUSH2 0x3DC0 JUMP JUMPDEST DUP2 EQ PUSH2 0x3F55 JUMPI PUSH1 0x0 DUP1 REVERT JUMPDEST POP JUMP JUMPDEST PUSH2 0x3F61 DUP2 PUSH2 0x3DCE JUMP JUMPDEST DUP2 EQ PUSH2 0x3F6C JUMPI PUSH1 0x0 DUP1 REVERT JUMPDEST POP JUMP JUMPDEST PUSH2 0x3F78 DUP2 PUSH2 0x3DEE JUMP JUMPDEST DUP2 EQ PUSH2 0x3F83 JUMPI PUSH1 0x0 DUP1 REVERT JUMPDEST POP JUMP JUMPDEST PUSH2 0x3F8F DUP2 PUSH2 0x3DF8 JUMP JUMPDEST DUP2 EQ PUSH2 0x3F9A JUMPI PUSH1 0x0 DUP1 REVERT JUMPDEST POP JUMP JUMPDEST PUSH2 0x3FA6 DUP2 PUSH2 0x3E08 JUMP JUMPDEST DUP2 EQ PUSH2 0x3FB1 JUMPI PUSH1 0x0 DUP1 REVERT JUMPDEST POP JUMP INVALID LOG2 PUSH5 0x6970667358 0x22 SLT KECCAK256 SWAP1 GASPRICE PUSH4 0xD323250F 0xB6 PUSH14 0x738FA5C477637ED5C129B2474F8E 0x28 0xE6 ADD 0xE3 LOG2 LOG3 PUSH8 0x928D64736F6C6343 STOP SMOD MOD STOP CALLER "
		},
		"gasEstimates": {
			"creation": {
				"codeDepositCost": "3272400",
				"executionCost": "infinite",
				"totalCost": "infinite"
			},
			"external": {
				"blockHeights(uint256)": "4016",
				"currentNotariesRequired()": "4856",
				"deprecate(address,bytes32,uint8[],bytes32[],bytes32[])": "infinite",
				"deprecated()": "1245",
				"getLastProofRoot()": "infinite",
				"getNotaries()": "infinite",
				"isNotarized(bytes32,bytes32[],bytes32[],uint8[])": "infinite",
				"isNotary(address)": "1742",
				"komodoNotaries(address)": "1567",
				"lastBlockHeight()": "1213",
				"notarizedDeprecation(address,bytes32,uint8[],bytes32[],bytes32[])": "infinite",
				"notarizedProofRoots(uint32)": "infinite",
				"notarizedStateRoots(uint32)": "1537",
				"notaryAddressMapping(address)": "infinite",
				"numNotarizedBlocks()": "1233",
				"setLatestData((uint32,uint32,(uint8,address),address,(uint16,uint16,address,uint160[],int32[],int64[],int64,int64,int64,int64,int64,int64,int64,int64[],int64[],int64[],int64[],int64[],int64[],int32[],int64[]),uint32,(bytes32,uint32),bytes32,uint32,(address,(uint16,uint16,address,uint160[],int32[],int64[],int64,int64,int64,int64,int64,int64,int64,int64[],int64[],int64[],int64[],int64[],int64[],int32[],int64[]))[],(int16,int16,address,uint32,bytes32,bytes32,bytes32)[],(string,address)[]),uint8[],bytes32[],bytes32[],uint32[],address[])": "infinite",
				"testData((uint32,uint32,(uint8,address),address,(uint16,uint16,address,uint160[],int32[],int64[],int64,int64,int64,int64,int64,int64,int64,int64[],int64[],int64[],int64[],int64[],int64[],int32[],int64[]),uint32,(bytes32,uint32),bytes32,uint32,(address,(uint16,uint16,address,uint160[],int32[],int64[],int64,int64,int64,int64,int64,int64,int64,int64[],int64[],int64[],int64[],int64[],int64[],int32[],int64[]))[],(int16,int16,address,uint32,bytes32,bytes32,bytes32)[],(string,address)[]),uint8[],bytes32[],bytes32[],uint32[],address[])": "infinite",
				"testData2((uint32,uint32,(uint8,address),address,(uint16,uint16,address,uint160[],int32[],int64[],int64,int64,int64,int64,int64,int64,int64,int64[],int64[],int64[],int64[],int64[],int64[],int32[],int64[]),uint32,(bytes32,uint32),bytes32,uint32,(address,(uint16,uint16,address,uint160[],int32[],int64[],int64,int64,int64,int64,int64,int64,int64,int64[],int64[],int64[],int64[],int64[],int64[],int32[],int64[]))[],(int16,int16,address,uint32,bytes32,bytes32,bytes32)[],(string,address)[]),uint8[],bytes32[],bytes32[],uint32[],address[])": "infinite",
				"upgradedAddress()": "1287"
			},
			"internal": {
				"recoverSigner(bytes32,uint8,bytes32,bytes32)": "infinite"
			}
		},
		"methodIdentifiers": {
			"blockHeights(uint256)": "6e080816",
			"currentNotariesRequired()": "20cd6ba1",
			"deprecate(address,bytes32,uint8[],bytes32[],bytes32[])": "17c86875",
			"deprecated()": "0e136b19",
			"getLastProofRoot()": "d4e03233",
			"getNotaries()": "aaf34b94",
			"isNotarized(bytes32,bytes32[],bytes32[],uint8[])": "90ab6442",
			"isNotary(address)": "f13eed97",
			"komodoNotaries(address)": "b59de706",
			"lastBlockHeight()": "4b60ae63",
			"notarizedDeprecation(address,bytes32,uint8[],bytes32[],bytes32[])": "b43fe1de",
			"notarizedProofRoots(uint32)": "add21b3b",
			"notarizedStateRoots(uint32)": "e7b3c875",
			"notaryAddressMapping(address)": "250dea53",
			"numNotarizedBlocks()": "ec48ae3c",
			"setLatestData((uint32,uint32,(uint8,address),address,(uint16,uint16,address,uint160[],int32[],int64[],int64,int64,int64,int64,int64,int64,int64,int64[],int64[],int64[],int64[],int64[],int64[],int32[],int64[]),uint32,(bytes32,uint32),bytes32,uint32,(address,(uint16,uint16,address,uint160[],int32[],int64[],int64,int64,int64,int64,int64,int64,int64,int64[],int64[],int64[],int64[],int64[],int64[],int32[],int64[]))[],(int16,int16,address,uint32,bytes32,bytes32,bytes32)[],(string,address)[]),uint8[],bytes32[],bytes32[],uint32[],address[])": "92a31082",
			"testData((uint32,uint32,(uint8,address),address,(uint16,uint16,address,uint160[],int32[],int64[],int64,int64,int64,int64,int64,int64,int64,int64[],int64[],int64[],int64[],int64[],int64[],int32[],int64[]),uint32,(bytes32,uint32),bytes32,uint32,(address,(uint16,uint16,address,uint160[],int32[],int64[],int64,int64,int64,int64,int64,int64,int64,int64[],int64[],int64[],int64[],int64[],int64[],int32[],int64[]))[],(int16,int16,address,uint32,bytes32,bytes32,bytes32)[],(string,address)[]),uint8[],bytes32[],bytes32[],uint32[],address[])": "786a5bc2",
			"testData2((uint32,uint32,(uint8,address),address,(uint16,uint16,address,uint160[],int32[],int64[],int64,int64,int64,int64,int64,int64,int64,int64[],int64[],int64[],int64[],int64[],int64[],int32[],int64[]),uint32,(bytes32,uint32),bytes32,uint32,(address,(uint16,uint16,address,uint160[],int32[],int64[],int64,int64,int64,int64,int64,int64,int64,int64[],int64[],int64[],int64[],int64[],int64[],int32[],int64[]))[],(int16,int16,address,uint32,bytes32,bytes32,bytes32)[],(string,address)[]),uint8[],bytes32[],bytes32[],uint32[],address[])": "8c87cea7",
			"upgradedAddress()": "26976e3f"
		}
	},
	"abi": [
		{
			"inputs": [
				{
					"internalType": "address",
					"name": "_verusBLAKE2bAddress",
					"type": "address"
				},
				{
					"internalType": "address",
					"name": "_verusSerializerAddress",
					"type": "address"
				},
				{
					"internalType": "address[]",
					"name": "_notaries",
					"type": "address[]"
				},
				{
					"internalType": "address[]",
					"name": "_notariesEthAddress",
					"type": "address[]"
				}
			],
			"stateMutability": "nonpayable",
			"type": "constructor"
		},
		{
			"anonymous": false,
			"inputs": [
				{
					"indexed": false,
					"internalType": "address",
					"name": "newAddress",
					"type": "address"
				}
			],
			"name": "Deprecate",
			"type": "event"
		},
		{
			"anonymous": false,
			"inputs": [
				{
					"components": [
						{
							"internalType": "uint32",
							"name": "version",
							"type": "uint32"
						},
						{
							"internalType": "uint32",
							"name": "flags",
							"type": "uint32"
						},
						{
							"components": [
								{
									"internalType": "uint8",
									"name": "destinationtype",
									"type": "uint8"
								},
								{
									"internalType": "address",
									"name": "destinationaddress",
									"type": "address"
								}
							],
							"internalType": "struct VerusObjects.CTransferDestination",
							"name": "proposer",
							"type": "tuple"
						},
						{
							"internalType": "address",
							"name": "currencyid",
							"type": "address"
						},
						{
							"components": [
								{
									"internalType": "uint16",
									"name": "version",
									"type": "uint16"
								},
								{
									"internalType": "uint16",
									"name": "flags",
									"type": "uint16"
								},
								{
									"internalType": "address",
									"name": "currencyid",
									"type": "address"
								},
								{
									"internalType": "uint160[]",
									"name": "currencies",
									"type": "uint160[]"
								},
								{
									"internalType": "int32[]",
									"name": "weights",
									"type": "int32[]"
								},
								{
									"internalType": "int64[]",
									"name": "reserves",
									"type": "int64[]"
								},
								{
									"internalType": "int64",
									"name": "initialsupply",
									"type": "int64"
								},
								{
									"internalType": "int64",
									"name": "emitted",
									"type": "int64"
								},
								{
									"internalType": "int64",
									"name": "supply",
									"type": "int64"
								},
								{
									"internalType": "int64",
									"name": "primarycurrencyout",
									"type": "int64"
								},
								{
									"internalType": "int64",
									"name": "preconvertedout",
									"type": "int64"
								},
								{
									"internalType": "int64",
									"name": "primarycurrencyfees",
									"type": "int64"
								},
								{
									"internalType": "int64",
									"name": "primarycurrencyconversionfees",
									"type": "int64"
								},
								{
									"internalType": "int64[]",
									"name": "reservein",
									"type": "int64[]"
								},
								{
									"internalType": "int64[]",
									"name": "primarycurrencyin",
									"type": "int64[]"
								},
								{
									"internalType": "int64[]",
									"name": "reserveout",
									"type": "int64[]"
								},
								{
									"internalType": "int64[]",
									"name": "conversionprice",
									"type": "int64[]"
								},
								{
									"internalType": "int64[]",
									"name": "viaconversionprice",
									"type": "int64[]"
								},
								{
									"internalType": "int64[]",
									"name": "fees",
									"type": "int64[]"
								},
								{
									"internalType": "int32[]",
									"name": "priorweights",
									"type": "int32[]"
								},
								{
									"internalType": "int64[]",
									"name": "conversionfees",
									"type": "int64[]"
								}
							],
							"internalType": "struct VerusObjects.CCoinbaseCurrencyState",
							"name": "currencystate",
							"type": "tuple"
						},
						{
							"internalType": "uint32",
							"name": "notarizationheight",
							"type": "uint32"
						},
						{
							"components": [
								{
									"internalType": "bytes32",
									"name": "hash",
									"type": "bytes32"
								},
								{
									"internalType": "uint32",
									"name": "n",
									"type": "uint32"
								}
							],
							"internalType": "struct VerusObjects.CUTXORef",
							"name": "prevnotarization",
							"type": "tuple"
						},
						{
							"internalType": "bytes32",
							"name": "hashprevnotarization",
							"type": "bytes32"
						},
						{
							"internalType": "uint32",
							"name": "prevheight",
							"type": "uint32"
						},
						{
							"components": [
								{
									"internalType": "address",
									"name": "currencyid",
									"type": "address"
								},
								{
									"components": [
										{
											"internalType": "uint16",
											"name": "version",
											"type": "uint16"
										},
										{
											"internalType": "uint16",
											"name": "flags",
											"type": "uint16"
										},
										{
											"internalType": "address",
											"name": "currencyid",
											"type": "address"
										},
										{
											"internalType": "uint160[]",
											"name": "currencies",
											"type": "uint160[]"
										},
										{
											"internalType": "int32[]",
											"name": "weights",
											"type": "int32[]"
										},
										{
											"internalType": "int64[]",
											"name": "reserves",
											"type": "int64[]"
										},
										{
											"internalType": "int64",
											"name": "initialsupply",
											"type": "int64"
										},
										{
											"internalType": "int64",
											"name": "emitted",
											"type": "int64"
										},
										{
											"internalType": "int64",
											"name": "supply",
											"type": "int64"
										},
										{
											"internalType": "int64",
											"name": "primarycurrencyout",
											"type": "int64"
										},
										{
											"internalType": "int64",
											"name": "preconvertedout",
											"type": "int64"
										},
										{
											"internalType": "int64",
											"name": "primarycurrencyfees",
											"type": "int64"
										},
										{
											"internalType": "int64",
											"name": "primarycurrencyconversionfees",
											"type": "int64"
										},
										{
											"internalType": "int64[]",
											"name": "reservein",
											"type": "int64[]"
										},
										{
											"internalType": "int64[]",
											"name": "primarycurrencyin",
											"type": "int64[]"
										},
										{
											"internalType": "int64[]",
											"name": "reserveout",
											"type": "int64[]"
										},
										{
											"internalType": "int64[]",
											"name": "conversionprice",
											"type": "int64[]"
										},
										{
											"internalType": "int64[]",
											"name": "viaconversionprice",
											"type": "int64[]"
										},
										{
											"internalType": "int64[]",
											"name": "fees",
											"type": "int64[]"
										},
										{
											"internalType": "int32[]",
											"name": "priorweights",
											"type": "int32[]"
										},
										{
											"internalType": "int64[]",
											"name": "conversionfees",
											"type": "int64[]"
										}
									],
									"internalType": "struct VerusObjects.CCoinbaseCurrencyState",
									"name": "currencystate",
									"type": "tuple"
								}
							],
							"internalType": "struct VerusObjects.CurrencyStates[]",
							"name": "currencystates",
							"type": "tuple[]"
						},
						{
							"components": [
								{
									"internalType": "int16",
									"name": "version",
									"type": "int16"
								},
								{
									"internalType": "int16",
									"name": "cprtype",
									"type": "int16"
								},
								{
									"internalType": "address",
									"name": "systemid",
									"type": "address"
								},
								{
									"internalType": "uint32",
									"name": "rootheight",
									"type": "uint32"
								},
								{
									"internalType": "bytes32",
									"name": "stateroot",
									"type": "bytes32"
								},
								{
									"internalType": "bytes32",
									"name": "blockhash",
									"type": "bytes32"
								},
								{
									"internalType": "bytes32",
									"name": "compactpower",
									"type": "bytes32"
								}
							],
							"internalType": "struct VerusObjects.CProofRoot[]",
							"name": "proofroots",
							"type": "tuple[]"
						},
						{
							"components": [
								{
									"internalType": "string",
									"name": "networkaddress",
									"type": "string"
								},
								{
									"internalType": "address",
									"name": "nodeidentity",
									"type": "address"
								}
							],
							"internalType": "struct VerusObjects.CNodeData[]",
							"name": "nodes",
							"type": "tuple[]"
						}
					],
					"indexed": false,
					"internalType": "struct VerusObjects.CPBaaSNotarization",
					"name": "",
					"type": "tuple"
				},
				{
					"indexed": false,
					"internalType": "uint32",
					"name": "notarizedDataHeight",
					"type": "uint32"
				}
			],
			"name": "NewBlock",
			"type": "event"
		},
		{
			"inputs": [
				{
					"internalType": "uint256",
					"name": "",
					"type": "uint256"
				}
			],
			"name": "blockHeights",
			"outputs": [
				{
					"internalType": "uint32",
					"name": "",
					"type": "uint32"
				}
			],
			"stateMutability": "view",
			"type": "function"
		},
		{
			"inputs": [],
			"name": "currentNotariesRequired",
			"outputs": [
				{
					"internalType": "uint8",
					"name": "",
					"type": "uint8"
				}
			],
			"stateMutability": "view",
			"type": "function"
		},
		{
			"inputs": [
				{
					"internalType": "address",
					"name": "_upgradedAddress",
					"type": "address"
				},
				{
					"internalType": "bytes32",
					"name": "_addressHash",
					"type": "bytes32"
				},
				{
					"internalType": "uint8[]",
					"name": "_vs",
					"type": "uint8[]"
				},
				{
					"internalType": "bytes32[]",
					"name": "_rs",
					"type": "bytes32[]"
				},
				{
					"internalType": "bytes32[]",
					"name": "_ss",
					"type": "bytes32[]"
				}
			],
			"name": "deprecate",
			"outputs": [],
			"stateMutability": "nonpayable",
			"type": "function"
		},
		{
			"inputs": [],
			"name": "deprecated",
			"outputs": [
				{
					"internalType": "bool",
					"name": "",
					"type": "bool"
				}
			],
			"stateMutability": "view",
			"type": "function"
		},
		{
			"inputs": [],
			"name": "getLastProofRoot",
			"outputs": [
				{
					"components": [
						{
							"internalType": "int16",
							"name": "version",
							"type": "int16"
						},
						{
							"internalType": "int16",
							"name": "cprtype",
							"type": "int16"
						},
						{
							"internalType": "address",
							"name": "systemid",
							"type": "address"
						},
						{
							"internalType": "uint32",
							"name": "rootheight",
							"type": "uint32"
						},
						{
							"internalType": "bytes32",
							"name": "stateroot",
							"type": "bytes32"
						},
						{
							"internalType": "bytes32",
							"name": "blockhash",
							"type": "bytes32"
						},
						{
							"internalType": "bytes32",
							"name": "compactpower",
							"type": "bytes32"
						}
					],
					"internalType": "struct VerusObjects.CProofRoot",
					"name": "",
					"type": "tuple"
				}
			],
			"stateMutability": "view",
			"type": "function"
		},
		{
			"inputs": [],
			"name": "getNotaries",
			"outputs": [
				{
					"internalType": "address[]",
					"name": "",
					"type": "address[]"
				}
			],
			"stateMutability": "view",
			"type": "function"
		},
		{
			"inputs": [
				{
					"internalType": "bytes32",
					"name": "_notarizedDataHash",
					"type": "bytes32"
				},
				{
					"internalType": "bytes32[]",
					"name": "_rs",
					"type": "bytes32[]"
				},
				{
					"internalType": "bytes32[]",
					"name": "_ss",
					"type": "bytes32[]"
				},
				{
					"internalType": "uint8[]",
					"name": "_vs",
					"type": "uint8[]"
				}
			],
			"name": "isNotarized",
			"outputs": [
				{
					"internalType": "bool",
					"name": "",
					"type": "bool"
				}
			],
			"stateMutability": "view",
			"type": "function"
		},
		{
			"inputs": [
				{
					"internalType": "address",
					"name": "_notary",
					"type": "address"
				}
			],
			"name": "isNotary",
			"outputs": [
				{
					"internalType": "bool",
					"name": "",
					"type": "bool"
				}
			],
			"stateMutability": "view",
			"type": "function"
		},
		{
			"inputs": [
				{
					"internalType": "address",
					"name": "",
					"type": "address"
				}
			],
			"name": "komodoNotaries",
			"outputs": [
				{
					"internalType": "bool",
					"name": "",
					"type": "bool"
				}
			],
			"stateMutability": "view",
			"type": "function"
		},
		{
			"inputs": [],
			"name": "lastBlockHeight",
			"outputs": [
				{
					"internalType": "uint32",
					"name": "",
					"type": "uint32"
				}
			],
			"stateMutability": "view",
			"type": "function"
		},
		{
			"inputs": [
				{
					"internalType": "address",
					"name": "_upgradedAddress",
					"type": "address"
				},
				{
					"internalType": "bytes32",
					"name": "_addressHash",
					"type": "bytes32"
				},
				{
					"internalType": "uint8[]",
					"name": "_vs",
					"type": "uint8[]"
				},
				{
					"internalType": "bytes32[]",
					"name": "_rs",
					"type": "bytes32[]"
				},
				{
					"internalType": "bytes32[]",
					"name": "_ss",
					"type": "bytes32[]"
				}
			],
			"name": "notarizedDeprecation",
			"outputs": [
				{
					"internalType": "bool",
					"name": "",
					"type": "bool"
				}
			],
			"stateMutability": "nonpayable",
			"type": "function"
		},
		{
			"inputs": [
				{
					"internalType": "uint32",
					"name": "",
					"type": "uint32"
				}
			],
			"name": "notarizedProofRoots",
			"outputs": [
				{
					"internalType": "int16",
					"name": "version",
					"type": "int16"
				},
				{
					"internalType": "int16",
					"name": "cprtype",
					"type": "int16"
				},
				{
					"internalType": "address",
					"name": "systemid",
					"type": "address"
				},
				{
					"internalType": "uint32",
					"name": "rootheight",
					"type": "uint32"
				},
				{
					"internalType": "bytes32",
					"name": "stateroot",
					"type": "bytes32"
				},
				{
					"internalType": "bytes32",
					"name": "blockhash",
					"type": "bytes32"
				},
				{
					"internalType": "bytes32",
					"name": "compactpower",
					"type": "bytes32"
				}
			],
			"stateMutability": "view",
			"type": "function"
		},
		{
			"inputs": [
				{
					"internalType": "uint32",
					"name": "",
					"type": "uint32"
				}
			],
			"name": "notarizedStateRoots",
			"outputs": [
				{
					"internalType": "bytes32",
					"name": "",
					"type": "bytes32"
				}
			],
			"stateMutability": "view",
			"type": "function"
		},
		{
			"inputs": [
				{
					"internalType": "address",
					"name": "",
					"type": "address"
				}
			],
			"name": "notaryAddressMapping",
			"outputs": [
				{
					"internalType": "address",
					"name": "",
					"type": "address"
				}
			],
			"stateMutability": "view",
			"type": "function"
		},
		{
			"inputs": [],
			"name": "numNotarizedBlocks",
			"outputs": [
				{
					"internalType": "uint256",
					"name": "",
					"type": "uint256"
				}
			],
			"stateMutability": "view",
			"type": "function"
		},
		{
			"inputs": [
				{
					"components": [
						{
							"internalType": "uint32",
							"name": "version",
							"type": "uint32"
						},
						{
							"internalType": "uint32",
							"name": "flags",
							"type": "uint32"
						},
						{
							"components": [
								{
									"internalType": "uint8",
									"name": "destinationtype",
									"type": "uint8"
								},
								{
									"internalType": "address",
									"name": "destinationaddress",
									"type": "address"
								}
							],
							"internalType": "struct VerusObjects.CTransferDestination",
							"name": "proposer",
							"type": "tuple"
						},
						{
							"internalType": "address",
							"name": "currencyid",
							"type": "address"
						},
						{
							"components": [
								{
									"internalType": "uint16",
									"name": "version",
									"type": "uint16"
								},
								{
									"internalType": "uint16",
									"name": "flags",
									"type": "uint16"
								},
								{
									"internalType": "address",
									"name": "currencyid",
									"type": "address"
								},
								{
									"internalType": "uint160[]",
									"name": "currencies",
									"type": "uint160[]"
								},
								{
									"internalType": "int32[]",
									"name": "weights",
									"type": "int32[]"
								},
								{
									"internalType": "int64[]",
									"name": "reserves",
									"type": "int64[]"
								},
								{
									"internalType": "int64",
									"name": "initialsupply",
									"type": "int64"
								},
								{
									"internalType": "int64",
									"name": "emitted",
									"type": "int64"
								},
								{
									"internalType": "int64",
									"name": "supply",
									"type": "int64"
								},
								{
									"internalType": "int64",
									"name": "primarycurrencyout",
									"type": "int64"
								},
								{
									"internalType": "int64",
									"name": "preconvertedout",
									"type": "int64"
								},
								{
									"internalType": "int64",
									"name": "primarycurrencyfees",
									"type": "int64"
								},
								{
									"internalType": "int64",
									"name": "primarycurrencyconversionfees",
									"type": "int64"
								},
								{
									"internalType": "int64[]",
									"name": "reservein",
									"type": "int64[]"
								},
								{
									"internalType": "int64[]",
									"name": "primarycurrencyin",
									"type": "int64[]"
								},
								{
									"internalType": "int64[]",
									"name": "reserveout",
									"type": "int64[]"
								},
								{
									"internalType": "int64[]",
									"name": "conversionprice",
									"type": "int64[]"
								},
								{
									"internalType": "int64[]",
									"name": "viaconversionprice",
									"type": "int64[]"
								},
								{
									"internalType": "int64[]",
									"name": "fees",
									"type": "int64[]"
								},
								{
									"internalType": "int32[]",
									"name": "priorweights",
									"type": "int32[]"
								},
								{
									"internalType": "int64[]",
									"name": "conversionfees",
									"type": "int64[]"
								}
							],
							"internalType": "struct VerusObjects.CCoinbaseCurrencyState",
							"name": "currencystate",
							"type": "tuple"
						},
						{
							"internalType": "uint32",
							"name": "notarizationheight",
							"type": "uint32"
						},
						{
							"components": [
								{
									"internalType": "bytes32",
									"name": "hash",
									"type": "bytes32"
								},
								{
									"internalType": "uint32",
									"name": "n",
									"type": "uint32"
								}
							],
							"internalType": "struct VerusObjects.CUTXORef",
							"name": "prevnotarization",
							"type": "tuple"
						},
						{
							"internalType": "bytes32",
							"name": "hashprevnotarization",
							"type": "bytes32"
						},
						{
							"internalType": "uint32",
							"name": "prevheight",
							"type": "uint32"
						},
						{
							"components": [
								{
									"internalType": "address",
									"name": "currencyid",
									"type": "address"
								},
								{
									"components": [
										{
											"internalType": "uint16",
											"name": "version",
											"type": "uint16"
										},
										{
											"internalType": "uint16",
											"name": "flags",
											"type": "uint16"
										},
										{
											"internalType": "address",
											"name": "currencyid",
											"type": "address"
										},
										{
											"internalType": "uint160[]",
											"name": "currencies",
											"type": "uint160[]"
										},
										{
											"internalType": "int32[]",
											"name": "weights",
											"type": "int32[]"
										},
										{
											"internalType": "int64[]",
											"name": "reserves",
											"type": "int64[]"
										},
										{
											"internalType": "int64",
											"name": "initialsupply",
											"type": "int64"
										},
										{
											"internalType": "int64",
											"name": "emitted",
											"type": "int64"
										},
										{
											"internalType": "int64",
											"name": "supply",
											"type": "int64"
										},
										{
											"internalType": "int64",
											"name": "primarycurrencyout",
											"type": "int64"
										},
										{
											"internalType": "int64",
											"name": "preconvertedout",
											"type": "int64"
										},
										{
											"internalType": "int64",
											"name": "primarycurrencyfees",
											"type": "int64"
										},
										{
											"internalType": "int64",
											"name": "primarycurrencyconversionfees",
											"type": "int64"
										},
										{
											"internalType": "int64[]",
											"name": "reservein",
											"type": "int64[]"
										},
										{
											"internalType": "int64[]",
											"name": "primarycurrencyin",
											"type": "int64[]"
										},
										{
											"internalType": "int64[]",
											"name": "reserveout",
											"type": "int64[]"
										},
										{
											"internalType": "int64[]",
											"name": "conversionprice",
											"type": "int64[]"
										},
										{
											"internalType": "int64[]",
											"name": "viaconversionprice",
											"type": "int64[]"
										},
										{
											"internalType": "int64[]",
											"name": "fees",
											"type": "int64[]"
										},
										{
											"internalType": "int32[]",
											"name": "priorweights",
											"type": "int32[]"
										},
										{
											"internalType": "int64[]",
											"name": "conversionfees",
											"type": "int64[]"
										}
									],
									"internalType": "struct VerusObjects.CCoinbaseCurrencyState",
									"name": "currencystate",
									"type": "tuple"
								}
							],
							"internalType": "struct VerusObjects.CurrencyStates[]",
							"name": "currencystates",
							"type": "tuple[]"
						},
						{
							"components": [
								{
									"internalType": "int16",
									"name": "version",
									"type": "int16"
								},
								{
									"internalType": "int16",
									"name": "cprtype",
									"type": "int16"
								},
								{
									"internalType": "address",
									"name": "systemid",
									"type": "address"
								},
								{
									"internalType": "uint32",
									"name": "rootheight",
									"type": "uint32"
								},
								{
									"internalType": "bytes32",
									"name": "stateroot",
									"type": "bytes32"
								},
								{
									"internalType": "bytes32",
									"name": "blockhash",
									"type": "bytes32"
								},
								{
									"internalType": "bytes32",
									"name": "compactpower",
									"type": "bytes32"
								}
							],
							"internalType": "struct VerusObjects.CProofRoot[]",
							"name": "proofroots",
							"type": "tuple[]"
						},
						{
							"components": [
								{
									"internalType": "string",
									"name": "networkaddress",
									"type": "string"
								},
								{
									"internalType": "address",
									"name": "nodeidentity",
									"type": "address"
								}
							],
							"internalType": "struct VerusObjects.CNodeData[]",
							"name": "nodes",
							"type": "tuple[]"
						}
					],
					"internalType": "struct VerusObjects.CPBaaSNotarization",
					"name": "_pbaasNotarization",
					"type": "tuple"
				},
				{
					"internalType": "uint8[]",
					"name": "_vs",
					"type": "uint8[]"
				},
				{
					"internalType": "bytes32[]",
					"name": "_rs",
					"type": "bytes32[]"
				},
				{
					"internalType": "bytes32[]",
					"name": "_ss",
					"type": "bytes32[]"
				},
				{
					"internalType": "uint32[]",
					"name": "blockheights",
					"type": "uint32[]"
				},
				{
					"internalType": "address[]",
					"name": "notaryAddress",
					"type": "address[]"
				}
			],
			"name": "setLatestData",
			"outputs": [
				{
					"internalType": "uint32",
					"name": "",
					"type": "uint32"
				}
			],
			"stateMutability": "nonpayable",
			"type": "function"
		},
		{
			"inputs": [
				{
					"components": [
						{
							"internalType": "uint32",
							"name": "version",
							"type": "uint32"
						},
						{
							"internalType": "uint32",
							"name": "flags",
							"type": "uint32"
						},
						{
							"components": [
								{
									"internalType": "uint8",
									"name": "destinationtype",
									"type": "uint8"
								},
								{
									"internalType": "address",
									"name": "destinationaddress",
									"type": "address"
								}
							],
							"internalType": "struct VerusObjects.CTransferDestination",
							"name": "proposer",
							"type": "tuple"
						},
						{
							"internalType": "address",
							"name": "currencyid",
							"type": "address"
						},
						{
							"components": [
								{
									"internalType": "uint16",
									"name": "version",
									"type": "uint16"
								},
								{
									"internalType": "uint16",
									"name": "flags",
									"type": "uint16"
								},
								{
									"internalType": "address",
									"name": "currencyid",
									"type": "address"
								},
								{
									"internalType": "uint160[]",
									"name": "currencies",
									"type": "uint160[]"
								},
								{
									"internalType": "int32[]",
									"name": "weights",
									"type": "int32[]"
								},
								{
									"internalType": "int64[]",
									"name": "reserves",
									"type": "int64[]"
								},
								{
									"internalType": "int64",
									"name": "initialsupply",
									"type": "int64"
								},
								{
									"internalType": "int64",
									"name": "emitted",
									"type": "int64"
								},
								{
									"internalType": "int64",
									"name": "supply",
									"type": "int64"
								},
								{
									"internalType": "int64",
									"name": "primarycurrencyout",
									"type": "int64"
								},
								{
									"internalType": "int64",
									"name": "preconvertedout",
									"type": "int64"
								},
								{
									"internalType": "int64",
									"name": "primarycurrencyfees",
									"type": "int64"
								},
								{
									"internalType": "int64",
									"name": "primarycurrencyconversionfees",
									"type": "int64"
								},
								{
									"internalType": "int64[]",
									"name": "reservein",
									"type": "int64[]"
								},
								{
									"internalType": "int64[]",
									"name": "primarycurrencyin",
									"type": "int64[]"
								},
								{
									"internalType": "int64[]",
									"name": "reserveout",
									"type": "int64[]"
								},
								{
									"internalType": "int64[]",
									"name": "conversionprice",
									"type": "int64[]"
								},
								{
									"internalType": "int64[]",
									"name": "viaconversionprice",
									"type": "int64[]"
								},
								{
									"internalType": "int64[]",
									"name": "fees",
									"type": "int64[]"
								},
								{
									"internalType": "int32[]",
									"name": "priorweights",
									"type": "int32[]"
								},
								{
									"internalType": "int64[]",
									"name": "conversionfees",
									"type": "int64[]"
								}
							],
							"internalType": "struct VerusObjects.CCoinbaseCurrencyState",
							"name": "currencystate",
							"type": "tuple"
						},
						{
							"internalType": "uint32",
							"name": "notarizationheight",
							"type": "uint32"
						},
						{
							"components": [
								{
									"internalType": "bytes32",
									"name": "hash",
									"type": "bytes32"
								},
								{
									"internalType": "uint32",
									"name": "n",
									"type": "uint32"
								}
							],
							"internalType": "struct VerusObjects.CUTXORef",
							"name": "prevnotarization",
							"type": "tuple"
						},
						{
							"internalType": "bytes32",
							"name": "hashprevnotarization",
							"type": "bytes32"
						},
						{
							"internalType": "uint32",
							"name": "prevheight",
							"type": "uint32"
						},
						{
							"components": [
								{
									"internalType": "address",
									"name": "currencyid",
									"type": "address"
								},
								{
									"components": [
										{
											"internalType": "uint16",
											"name": "version",
											"type": "uint16"
										},
										{
											"internalType": "uint16",
											"name": "flags",
											"type": "uint16"
										},
										{
											"internalType": "address",
											"name": "currencyid",
											"type": "address"
										},
										{
											"internalType": "uint160[]",
											"name": "currencies",
											"type": "uint160[]"
										},
										{
											"internalType": "int32[]",
											"name": "weights",
											"type": "int32[]"
										},
										{
											"internalType": "int64[]",
											"name": "reserves",
											"type": "int64[]"
										},
										{
											"internalType": "int64",
											"name": "initialsupply",
											"type": "int64"
										},
										{
											"internalType": "int64",
											"name": "emitted",
											"type": "int64"
										},
										{
											"internalType": "int64",
											"name": "supply",
											"type": "int64"
										},
										{
											"internalType": "int64",
											"name": "primarycurrencyout",
											"type": "int64"
										},
										{
											"internalType": "int64",
											"name": "preconvertedout",
											"type": "int64"
										},
										{
											"internalType": "int64",
											"name": "primarycurrencyfees",
											"type": "int64"
										},
										{
											"internalType": "int64",
											"name": "primarycurrencyconversionfees",
											"type": "int64"
										},
										{
											"internalType": "int64[]",
											"name": "reservein",
											"type": "int64[]"
										},
										{
											"internalType": "int64[]",
											"name": "primarycurrencyin",
											"type": "int64[]"
										},
										{
											"internalType": "int64[]",
											"name": "reserveout",
											"type": "int64[]"
										},
										{
											"internalType": "int64[]",
											"name": "conversionprice",
											"type": "int64[]"
										},
										{
											"internalType": "int64[]",
											"name": "viaconversionprice",
											"type": "int64[]"
										},
										{
											"internalType": "int64[]",
											"name": "fees",
											"type": "int64[]"
										},
										{
											"internalType": "int32[]",
											"name": "priorweights",
											"type": "int32[]"
										},
										{
											"internalType": "int64[]",
											"name": "conversionfees",
											"type": "int64[]"
										}
									],
									"internalType": "struct VerusObjects.CCoinbaseCurrencyState",
									"name": "currencystate",
									"type": "tuple"
								}
							],
							"internalType": "struct VerusObjects.CurrencyStates[]",
							"name": "currencystates",
							"type": "tuple[]"
						},
						{
							"components": [
								{
									"internalType": "int16",
									"name": "version",
									"type": "int16"
								},
								{
									"internalType": "int16",
									"name": "cprtype",
									"type": "int16"
								},
								{
									"internalType": "address",
									"name": "systemid",
									"type": "address"
								},
								{
									"internalType": "uint32",
									"name": "rootheight",
									"type": "uint32"
								},
								{
									"internalType": "bytes32",
									"name": "stateroot",
									"type": "bytes32"
								},
								{
									"internalType": "bytes32",
									"name": "blockhash",
									"type": "bytes32"
								},
								{
									"internalType": "bytes32",
									"name": "compactpower",
									"type": "bytes32"
								}
							],
							"internalType": "struct VerusObjects.CProofRoot[]",
							"name": "proofroots",
							"type": "tuple[]"
						},
						{
							"components": [
								{
									"internalType": "string",
									"name": "networkaddress",
									"type": "string"
								},
								{
									"internalType": "address",
									"name": "nodeidentity",
									"type": "address"
								}
							],
							"internalType": "struct VerusObjects.CNodeData[]",
							"name": "nodes",
							"type": "tuple[]"
						}
					],
					"internalType": "struct VerusObjects.CPBaaSNotarization",
					"name": "_pbaasNotarization",
					"type": "tuple"
				},
				{
					"internalType": "uint8[]",
					"name": "_vs",
					"type": "uint8[]"
				},
				{
					"internalType": "bytes32[]",
					"name": "_rs",
					"type": "bytes32[]"
				},
				{
					"internalType": "bytes32[]",
					"name": "_ss",
					"type": "bytes32[]"
				},
				{
					"internalType": "uint32[]",
					"name": "blockheights",
					"type": "uint32[]"
				},
				{
					"internalType": "address[]",
					"name": "notaryAddress",
					"type": "address[]"
				}
			],
			"name": "testData",
			"outputs": [
				{
					"internalType": "address",
					"name": "",
					"type": "address"
				}
			],
			"stateMutability": "view",
			"type": "function"
		},
		{
			"inputs": [
				{
					"components": [
						{
							"internalType": "uint32",
							"name": "version",
							"type": "uint32"
						},
						{
							"internalType": "uint32",
							"name": "flags",
							"type": "uint32"
						},
						{
							"components": [
								{
									"internalType": "uint8",
									"name": "destinationtype",
									"type": "uint8"
								},
								{
									"internalType": "address",
									"name": "destinationaddress",
									"type": "address"
								}
							],
							"internalType": "struct VerusObjects.CTransferDestination",
							"name": "proposer",
							"type": "tuple"
						},
						{
							"internalType": "address",
							"name": "currencyid",
							"type": "address"
						},
						{
							"components": [
								{
									"internalType": "uint16",
									"name": "version",
									"type": "uint16"
								},
								{
									"internalType": "uint16",
									"name": "flags",
									"type": "uint16"
								},
								{
									"internalType": "address",
									"name": "currencyid",
									"type": "address"
								},
								{
									"internalType": "uint160[]",
									"name": "currencies",
									"type": "uint160[]"
								},
								{
									"internalType": "int32[]",
									"name": "weights",
									"type": "int32[]"
								},
								{
									"internalType": "int64[]",
									"name": "reserves",
									"type": "int64[]"
								},
								{
									"internalType": "int64",
									"name": "initialsupply",
									"type": "int64"
								},
								{
									"internalType": "int64",
									"name": "emitted",
									"type": "int64"
								},
								{
									"internalType": "int64",
									"name": "supply",
									"type": "int64"
								},
								{
									"internalType": "int64",
									"name": "primarycurrencyout",
									"type": "int64"
								},
								{
									"internalType": "int64",
									"name": "preconvertedout",
									"type": "int64"
								},
								{
									"internalType": "int64",
									"name": "primarycurrencyfees",
									"type": "int64"
								},
								{
									"internalType": "int64",
									"name": "primarycurrencyconversionfees",
									"type": "int64"
								},
								{
									"internalType": "int64[]",
									"name": "reservein",
									"type": "int64[]"
								},
								{
									"internalType": "int64[]",
									"name": "primarycurrencyin",
									"type": "int64[]"
								},
								{
									"internalType": "int64[]",
									"name": "reserveout",
									"type": "int64[]"
								},
								{
									"internalType": "int64[]",
									"name": "conversionprice",
									"type": "int64[]"
								},
								{
									"internalType": "int64[]",
									"name": "viaconversionprice",
									"type": "int64[]"
								},
								{
									"internalType": "int64[]",
									"name": "fees",
									"type": "int64[]"
								},
								{
									"internalType": "int32[]",
									"name": "priorweights",
									"type": "int32[]"
								},
								{
									"internalType": "int64[]",
									"name": "conversionfees",
									"type": "int64[]"
								}
							],
							"internalType": "struct VerusObjects.CCoinbaseCurrencyState",
							"name": "currencystate",
							"type": "tuple"
						},
						{
							"internalType": "uint32",
							"name": "notarizationheight",
							"type": "uint32"
						},
						{
							"components": [
								{
									"internalType": "bytes32",
									"name": "hash",
									"type": "bytes32"
								},
								{
									"internalType": "uint32",
									"name": "n",
									"type": "uint32"
								}
							],
							"internalType": "struct VerusObjects.CUTXORef",
							"name": "prevnotarization",
							"type": "tuple"
						},
						{
							"internalType": "bytes32",
							"name": "hashprevnotarization",
							"type": "bytes32"
						},
						{
							"internalType": "uint32",
							"name": "prevheight",
							"type": "uint32"
						},
						{
							"components": [
								{
									"internalType": "address",
									"name": "currencyid",
									"type": "address"
								},
								{
									"components": [
										{
											"internalType": "uint16",
											"name": "version",
											"type": "uint16"
										},
										{
											"internalType": "uint16",
											"name": "flags",
											"type": "uint16"
										},
										{
											"internalType": "address",
											"name": "currencyid",
											"type": "address"
										},
										{
											"internalType": "uint160[]",
											"name": "currencies",
											"type": "uint160[]"
										},
										{
											"internalType": "int32[]",
											"name": "weights",
											"type": "int32[]"
										},
										{
											"internalType": "int64[]",
											"name": "reserves",
											"type": "int64[]"
										},
										{
											"internalType": "int64",
											"name": "initialsupply",
											"type": "int64"
										},
										{
											"internalType": "int64",
											"name": "emitted",
											"type": "int64"
										},
										{
											"internalType": "int64",
											"name": "supply",
											"type": "int64"
										},
										{
											"internalType": "int64",
											"name": "primarycurrencyout",
											"type": "int64"
										},
										{
											"internalType": "int64",
											"name": "preconvertedout",
											"type": "int64"
										},
										{
											"internalType": "int64",
											"name": "primarycurrencyfees",
											"type": "int64"
										},
										{
											"internalType": "int64",
											"name": "primarycurrencyconversionfees",
											"type": "int64"
										},
										{
											"internalType": "int64[]",
											"name": "reservein",
											"type": "int64[]"
										},
										{
											"internalType": "int64[]",
											"name": "primarycurrencyin",
											"type": "int64[]"
										},
										{
											"internalType": "int64[]",
											"name": "reserveout",
											"type": "int64[]"
										},
										{
											"internalType": "int64[]",
											"name": "conversionprice",
											"type": "int64[]"
										},
										{
											"internalType": "int64[]",
											"name": "viaconversionprice",
											"type": "int64[]"
										},
										{
											"internalType": "int64[]",
											"name": "fees",
											"type": "int64[]"
										},
										{
											"internalType": "int32[]",
											"name": "priorweights",
											"type": "int32[]"
										},
										{
											"internalType": "int64[]",
											"name": "conversionfees",
											"type": "int64[]"
										}
									],
									"internalType": "struct VerusObjects.CCoinbaseCurrencyState",
									"name": "currencystate",
									"type": "tuple"
								}
							],
							"internalType": "struct VerusObjects.CurrencyStates[]",
							"name": "currencystates",
							"type": "tuple[]"
						},
						{
							"components": [
								{
									"internalType": "int16",
									"name": "version",
									"type": "int16"
								},
								{
									"internalType": "int16",
									"name": "cprtype",
									"type": "int16"
								},
								{
									"internalType": "address",
									"name": "systemid",
									"type": "address"
								},
								{
									"internalType": "uint32",
									"name": "rootheight",
									"type": "uint32"
								},
								{
									"internalType": "bytes32",
									"name": "stateroot",
									"type": "bytes32"
								},
								{
									"internalType": "bytes32",
									"name": "blockhash",
									"type": "bytes32"
								},
								{
									"internalType": "bytes32",
									"name": "compactpower",
									"type": "bytes32"
								}
							],
							"internalType": "struct VerusObjects.CProofRoot[]",
							"name": "proofroots",
							"type": "tuple[]"
						},
						{
							"components": [
								{
									"internalType": "string",
									"name": "networkaddress",
									"type": "string"
								},
								{
									"internalType": "address",
									"name": "nodeidentity",
									"type": "address"
								}
							],
							"internalType": "struct VerusObjects.CNodeData[]",
							"name": "nodes",
							"type": "tuple[]"
						}
					],
					"internalType": "struct VerusObjects.CPBaaSNotarization",
					"name": "_pbaasNotarization",
					"type": "tuple"
				},
				{
					"internalType": "uint8[]",
					"name": "_vs",
					"type": "uint8[]"
				},
				{
					"internalType": "bytes32[]",
					"name": "_rs",
					"type": "bytes32[]"
				},
				{
					"internalType": "bytes32[]",
					"name": "_ss",
					"type": "bytes32[]"
				},
				{
					"internalType": "uint32[]",
					"name": "blockheights",
					"type": "uint32[]"
				},
				{
					"internalType": "address[]",
					"name": "notaryAddress",
					"type": "address[]"
				}
			],
			"name": "testData2",
			"outputs": [
				{
					"internalType": "string",
					"name": "output",
					"type": "string"
				}
			],
			"stateMutability": "view",
			"type": "function"
		},
		{
			"inputs": [],
			"name": "upgradedAddress",
			"outputs": [
				{
					"internalType": "address",
					"name": "",
					"type": "address"
				}
			],
			"stateMutability": "view",
			"type": "function"
		}
	]
}