{
	"data": {
		"bytecode": {
			"linkReferences": {},
			"object": "60806040526040518060400160405280601081526020017f566572757344656661756c7448617368000000000000000000000000000000008152506001908051906020019062000051929190620000d1565b503480156200005f57600080fd5b506040516200006e9062000158565b604051809103906000f0801580156200008b573d6000803e3d6000fd5b506000806101000a81548173ffffffffffffffffffffffffffffffffffffffff021916908373ffffffffffffffffffffffffffffffffffffffff16021790555062000185565b828054600181600116156101000203166002900490600052602060002090601f016020900481019282601f106200011457805160ff191683800117855562000145565b8280016001018555821562000145579182015b828111156200014457825182559160200191906001019062000127565b5b50905062000154919062000166565b5090565b612e78806200112583390190565b5b808211156200018157600081600090555060010162000167565b5090565b610f9080620001956000396000f3fe608060405234801561001057600080fd5b506004361061007d5760003560e01c8063bfe370d91161005b578063bfe370d914610112578063c984bae814610142578063e56e814b14610172578063fe5320bf146101a25761007d565b80632cd0cff2146100825780632f0da104146100b257806395c12f53146100e2575b600080fd5b61009c600480360381019061009791906109eb565b6101d2565b6040516100a99190610cc2565b60405180910390f35b6100cc60048036038101906100c791906109c2565b610281565b6040516100d99190610cc2565b60405180910390f35b6100fc60048036038101906100f79190610aec565b610400565b6040516101099190610cc2565b60405180910390f35b61012c600480360381019061012791906109eb565b6105d8565b6040516101399190610cc2565b60405180910390f35b61015c60048036038101906101579190610a80565b610603565b6040516101699190610cdd565b60405180910390f35b61018c60048036038101906101879190610a2c565b6107a9565b6040516101999190610cc2565b60405180910390f35b6101bc60048036038101906101b79190610a80565b610858565b6040516101c99190610cc2565b60405180910390f35b600061027a8260018054600181600116156101000203166002900480601f01602080910402602001604051908101604052809291908181526020018280546001816001161561010002031660029004801561026e5780601f106102435761010080835404028352916020019161026e565b820191906000526020600020905b81548152906001019060200180831161025157829003601f168201915b50505050506000610400565b9050919050565b600080600090505b60208160ff161080156102d45750600060f81b838260ff16602081106102ab57fe5b1a60f81b7effffffffffffffffffffffffffffffffffffffffffffffffffffffffffffff191614155b156102e6578080600101915050610289565b60608160ff1667ffffffffffffffff8111801561030257600080fd5b506040519080825280601f01601f1916602001820160405280156103355781602001600182028036833780820191505090505b509050600091505b60208260ff161080156103885750600060f81b848360ff166020811061035f57fe5b1a60f81b7effffffffffffffffffffffffffffffffffffffffffffffffffffffffffffff191614155b156103ee578382601f0360ff166020811061039f57fe5b1a60f81b818360ff16815181106103b257fe5b60200101907effffffffffffffffffffffffffffffffffffffffffffffffffffffffffffff1916908160001a905350818060010192505061033d565b6103f7816105d8565b92505050919050565b600061040a61086e565b60608560405160200161041d9190610c19565b604051602081830303815290604052905060608060008054906101000a900473ffffffffffffffffffffffffffffffffffffffff1673ffffffffffffffffffffffffffffffffffffffff16631e0924238484848b60206040518663ffffffff1660e01b8152600401610493959493929190610cff565b61010060405180830381600087803b1580156104ae57600080fd5b505af11580156104c2573d6000803e3d6000fd5b505050506040513d601f19601f820116820180604052508101906104e69190610998565b93506060846000600881106104f757fe5b60200201518560016008811061050957fe5b60200201518660026008811061051b57fe5b60200201518760036008811061052d57fe5b60200201518860046008811061053f57fe5b60200201518960056008811061055157fe5b60200201518a60066008811061056357fe5b60200201518b60076008811061057557fe5b6020020151604051602001610591989796959493929190610c30565b604051602081830303815290604052905060006105ad826105d8565b90506001151588151514156105c8576105c581610281565b90505b8096505050505050509392505050565b600060608290506000815114156105f5576000801b9150506105fe565b60208301519150505b919050565b606061060d61086e565b6060846040516020016106209190610c19565b604051602081830303815290604052905060008054906101000a900473ffffffffffffffffffffffffffffffffffffffff1673ffffffffffffffffffffffffffffffffffffffff1663d299dac08286604080518463ffffffff1660e01b815260040161068e93929190610d6e565b61010060405180830381600087803b1580156106a957600080fd5b505af11580156106bd573d6000803e3d6000fd5b505050506040513d601f19601f820116820180604052508101906106e19190610998565b91506060826000600881106106f257fe5b60200201518360016008811061070457fe5b60200201518460026008811061071657fe5b60200201518560036008811061072857fe5b60200201518660046008811061073a57fe5b60200201518760056008811061074c57fe5b60200201518860066008811061075e57fe5b60200201518960076008811061077057fe5b602002015160405160200161078c989796959493929190610c30565b604051602081830303815290604052905080935050505092915050565b60006108508360018054600181600116156101000203166002900480601f0160208091040260200160405190810160405280929190818152602001828054600181600116156101000203166002900480156108455780601f1061081a57610100808354040283529160200191610845565b820191906000526020600020905b81548152906001019060200180831161082857829003601f168201915b505050505084610400565b905092915050565b600061086683836000610400565b905092915050565b604051806101000160405280600890602082028036833780820191505090505090565b600082601f8301126108a257600080fd5b60086108b56108b082610de0565b610db3565b915081838560208402820111156108cb57600080fd5b60005b838110156108fb57816108e18882610983565b8452602084019350602083019250506001810190506108ce565b5050505092915050565b60008135905061091481610f15565b92915050565b60008135905061092981610f2c565b92915050565b600082601f83011261094057600080fd5b813561095361094e82610e02565b610db3565b9150808252602083016020830185838301111561096f57600080fd5b61097a838284610ea3565b50505092915050565b60008151905061099281610f43565b92915050565b600061010082840312156109ab57600080fd5b60006109b984828501610891565b91505092915050565b6000602082840312156109d457600080fd5b60006109e28482850161091a565b91505092915050565b6000602082840312156109fd57600080fd5b600082013567ffffffffffffffff811115610a1757600080fd5b610a238482850161092f565b91505092915050565b60008060408385031215610a3f57600080fd5b600083013567ffffffffffffffff811115610a5957600080fd5b610a658582860161092f565b9250506020610a7685828601610905565b9150509250929050565b60008060408385031215610a9357600080fd5b600083013567ffffffffffffffff811115610aad57600080fd5b610ab98582860161092f565b925050602083013567ffffffffffffffff811115610ad657600080fd5b610ae28582860161092f565b9150509250929050565b600080600060608486031215610b0157600080fd5b600084013567ffffffffffffffff811115610b1b57600080fd5b610b278682870161092f565b935050602084013567ffffffffffffffff811115610b4457600080fd5b610b508682870161092f565b9250506040610b6186828701610905565b9150509250925092565b610b7481610e61565b82525050565b6000610b8582610e2e565b610b8f8185610e39565b9350610b9f818560208601610eb2565b610ba881610ef7565b840191505092915050565b6000610bbe82610e2e565b610bc88185610e4a565b9350610bd8818560208601610eb2565b80840191505092915050565b610bed81610e7f565b82525050565b610bfc81610e91565b82525050565b610c13610c0e82610e6b565b610ee5565b82525050565b6000610c258284610bb3565b915081905092915050565b6000610c3c828b610c02565b600882019150610c4c828a610c02565b600882019150610c5c8289610c02565b600882019150610c6c8288610c02565b600882019150610c7c8287610c02565b600882019150610c8c8286610c02565b600882019150610c9c8285610c02565b600882019150610cac8284610c02565b6008820191508190509998505050505050505050565b6000602082019050610cd76000830184610b6b565b92915050565b60006020820190508181036000830152610cf78184610b7a565b905092915050565b600060a0820190508181036000830152610d198188610b7a565b90508181036020830152610d2d8187610b7a565b90508181036040830152610d418186610b7a565b90508181036060830152610d558185610b7a565b9050610d646080830184610be4565b9695505050505050565b60006060820190508181036000830152610d888186610b7a565b90508181036020830152610d9c8185610b7a565b9050610dab6040830184610bf3565b949350505050565b6000604051905081810181811067ffffffffffffffff82111715610dd657600080fd5b8060405250919050565b600067ffffffffffffffff821115610df757600080fd5b602082029050919050565b600067ffffffffffffffff821115610e1957600080fd5b601f19601f8301169050602081019050919050565b600081519050919050565b600082825260208201905092915050565b600081905092915050565b60008115159050919050565b6000819050919050565b600067ffffffffffffffff82169050919050565b6000610e8a82610e6b565b9050919050565b6000610e9c82610e6b565b9050919050565b82818337600083830152505050565b60005b83811015610ed0578082015181840152602081019050610eb5565b83811115610edf576000848401525b50505050565b6000610ef082610f08565b9050919050565b6000601f19601f8301169050919050565b60008160c01b9050919050565b610f1e81610e55565b8114610f2957600080fd5b50565b610f3581610e61565b8114610f4057600080fd5b50565b610f4c81610e6b565b8114610f5757600080fd5b5056fea2646970667358221220c405e3f0a88e73fefb78aea1cfc460b7a0eb3a109d037bf09c48d4fde2f4764464736f6c634300060c00336080604052604051806101000160405280676a09e667f3bcc90867ffffffffffffffff16815260200167bb67ae8584caa73b67ffffffffffffffff168152602001673c6ef372fe94f82b67ffffffffffffffff16815260200167a54ff53a5f1d36f167ffffffffffffffff16815260200167510e527fade682d167ffffffffffffffff168152602001679b05688c2b3e6c1f67ffffffffffffffff168152602001671f83d9abfb41bd6b67ffffffffffffffff168152602001675be0cd19137e217967ffffffffffffffff168152506000906008620000e0929190620000f5565b50348015620000ee57600080fd5b50620001dc565b826008600301600490048101928215620001985791602002820160005b838211156200016057835183826101000a81548167ffffffffffffffff021916908367ffffffffffffffff160217905550926020019260080160208160070104928301926001030262000112565b8015620001965782816101000a81549067ffffffffffffffff021916905560080160208160070104928301926001030262000160565b505b509050620001a79190620001ab565b5090565b5b80821115620001d857600081816101000a81549067ffffffffffffffff021916905550600101620001ac565b5090565b612c8c80620001ec6000396000f3fe608060405234801561001057600080fd5b50600436106100935760003560e01c8063d299dac011610066578063d299dac014610515578063df459019146106b7578063f23525ec1461075a578063fa2acd87146107a6578063fb72d24e1461085d57610093565b80631e09242314610098578063217311ac146103685780637ac0b1e3146103be578063bf187478146104b5575b600080fd5b61032a600480360360a08110156100ae57600080fd5b81019080803590602001906401000000008111156100cb57600080fd5b8201836020820111156100dd57600080fd5b803590602001918460018302840111640100000000831117156100ff57600080fd5b91908080601f016020809104026020016040519081016040528093929190818152602001838380828437600081840152601f19601f8201169050808301925050505050505091929192908035906020019064010000000081111561016257600080fd5b82018360208201111561017457600080fd5b8035906020019184600183028401116401000000008311171561019657600080fd5b91908080601f016020809104026020016040519081016040528093929190818152602001838380828437600081840152601f19601f820116905080830192505050505050509192919290803590602001906401000000008111156101f957600080fd5b82018360208201111561020b57600080fd5b8035906020019184600183028401116401000000008311171561022d57600080fd5b91908080601f016020809104026020016040519081016040528093929190818152602001838380828437600081840152601f19601f8201169050808301925050505050505091929192908035906020019064010000000081111561029057600080fd5b8201836020820111156102a257600080fd5b803590602001918460018302840111640100000000831117156102c457600080fd5b91908080601f016020809104026020016040519081016040528093929190818152602001838380828437600081840152601f19601f820116905080830192505050505050509192919290803567ffffffffffffffff1690602001909291905050506108bd565b6040518082600860200280838360005b8381101561035557808201518184015260208101905061033a565b5050505090500191505060405180910390f35b61039e6004803603602081101561037e57600080fd5b81019080803567ffffffffffffffff169060200190929190505050610973565b604051808267ffffffffffffffff16815260200191505060405180910390f35b610477600480360360208110156103d457600080fd5b81019080803590602001906401000000008111156103f157600080fd5b82018360208201111561040357600080fd5b8035906020019184600183028401116401000000008311171561042557600080fd5b91908080601f016020809104026020016040519081016040528093929190818152602001838380828437600081840152601f19601f820116905080830192505050505050509192919290505050610a63565b6040518082600260200280838360005b838110156104a2578082015181840152602081019050610487565b5050505090500191505060405180910390f35b6104f5600480360360408110156104cb57600080fd5b81019080803567ffffffffffffffff16906020019092919080359060200190929190505050610ba0565b604051808267ffffffffffffffff16815260200191505060405180910390f35b6106796004803603606081101561052b57600080fd5b810190808035906020019064010000000081111561054857600080fd5b82018360208201111561055a57600080fd5b8035906020019184600183028401116401000000008311171561057c57600080fd5b91908080601f016020809104026020016040519081016040528093929190818152602001838380828437600081840152601f19601f820116905080830192505050505050509192919290803590602001906401000000008111156105df57600080fd5b8201836020820111156105f157600080fd5b8035906020019184600183028401116401000000008311171561061357600080fd5b91908080601f016020809104026020016040519081016040528093929190818152602001838380828437600081840152601f19601f820116905080830192505050505050509192919290803567ffffffffffffffff169060200190929190505050610bcc565b6040518082600860200280838360005b838110156106a4578082015181840152602081019050610689565b5050505090500191505060405180910390f35b61071c60048036036101008110156106ce57600080fd5b810190808061010001906008806020026040519081016040528092919082600860200280828437600081840152601f19601f8201169050808301925050505050509192919290505050610c08565b6040518082600260200280838360005b8381101561074757808201518184015260208101905061072c565b5050505090500191505060405180910390f35b6107866004803603602081101561077057600080fd5b8101908080359060200190929190505050610ca9565b604051808267ffffffffffffffff16815260200191505060405180910390f35b61085b60048036036102c08110156107bd57600080fd5b810190808061020001906010806020026040519081016040528092919082601060200280828437600081840152601f19601f820116905080830192505050505050919291929080359060200190929190803590602001909291908035906020019092919080359060200190929190803567ffffffffffffffff169060200190929190803567ffffffffffffffff169060200190929190505050610cda565b005b61089d6004803603604081101561087357600080fd5b81019080803567ffffffffffffffff16906020019092919080359060200190929190505050610eae565b604051808267ffffffffffffffff16815260200191505060405180910390f35b6108c5612b25565b6108cd612b48565b6108d5612b25565b6108f28285896108e48a610a63565b6108ed8a610a63565b610ecf565b6108fc82896111da565b61090682826112e6565b7fde1a9fb355752f7765552010c12ee02e62eaa7b0502f3088e6b5398ce8686a38816040518082600860200280838360005b83811015610953578082015181840152602081019050610938565b5050505090500191505060405180910390a1809250505095945050505050565b600067010000000000000060ff8316026501000000000061ff00841602630100000062ff000085160261010063ff00000086160261010067ffffffffffffffff1664ff00000000871667ffffffffffffffff16816109cd57fe5b04630100000067ffffffffffffffff1665ff0000000000881667ffffffffffffffff16816109f757fe5b046501000000000067ffffffffffffffff1666ff000000000000891667ffffffffffffffff1681610a2457fe5b0467010000000000000067ffffffffffffffff1667ff000000000000008a1667ffffffffffffffff1681610a5457fe5b04181818181818189050919050565b610a6b612b9f565b60005b8251811015610b0e57610ab0838281518110610a8657fe5b602001015160f81c60f81b60f81c60ff16600160088481610aa357fe5b0601600802604003610ba0565b8260088381610abb57fe5b0460028110610ac657fe5b6020020151188260088381610ad757fe5b0460028110610ae257fe5b602002019067ffffffffffffffff16908167ffffffffffffffff16815250508080600101915050610a6e565b50610b2981600060028110610b1f57fe5b6020020151610973565b81600060028110610b3657fe5b602002019067ffffffffffffffff16908167ffffffffffffffff1681525050610b6f81600160028110610b6557fe5b6020020151610973565b81600160028110610b7c57fe5b602002019067ffffffffffffffff16908167ffffffffffffffff1681525050919050565b6000680100000000000000008260020a8467ffffffffffffffff160281610bc357fe5b06905092915050565b610bd4612b25565b610bff84846040518060200160405280600081525060405180602001604052806000815250866108bd565b90509392505050565b610c10612bc1565b610c18612bc1565b60005b6008811015610c9f5760048181610c2e57fe5b0660030360400260020a848260088110610c4457fe5b602002015167ffffffffffffffff160260001b8260048381610c6257fe5b0460028110610c6d57fe5b6020020151188260048381610c7e57fe5b0460028110610c8957fe5b6020020181815250508080600101915050610c1b565b5080915050919050565b60008160088110610cb657fe5b60049182820401919006600802915054906101000a900467ffffffffffffffff1681565b6000878760108110610ce857fe5b602002015190506000888760108110610cfd57fe5b602002015190506000898760108110610d1257fe5b6020020151905060008a8760108110610d2757fe5b60200201519050680100000000000000008684860108935068010000000000000000640100000000858318096401000000008583180418905068010000000000000000818308915068010000000000000000650100000000008385180963010000008385180418925068010000000000000000858486010893506801000000000000000066010000000000008583180962010000858318041890506801000000000000000081830891506801000000000000000060028385180967800000000000000083851804189250838b8b60108110610dfe57fe5b602002019067ffffffffffffffff16908167ffffffffffffffff1681525050828b8a60108110610e2a57fe5b602002019067ffffffffffffffff16908167ffffffffffffffff1681525050818b8960108110610e5657fe5b602002019067ffffffffffffffff16908167ffffffffffffffff1681525050808b8860108110610e8257fe5b602002019067ffffffffffffffff16908167ffffffffffffffff16815250505050505050505050505050565b60008160020a8367ffffffffffffffff1681610ec657fe5b04905092915050565b60008467ffffffffffffffff161480610ef2575060408467ffffffffffffffff16115b80610efe575060408351115b15610f54576040517f08c379a000000000000000000000000000000000000000000000000000000000815260040180806020018281038252602e815260200180612c29602e913960400191505060405180910390fd5b60005b6008811015610fc95760008160088110610f6d57fe5b600491828204019190066008029054906101000a900467ffffffffffffffff1686602001518260088110610f9d57fe5b602002019067ffffffffffffffff16908167ffffffffffffffff16815250508080600101915050610f57565b5083610fd784516008610ba0565b63010100008760200151600060088110610fed57fe5b6020020151181818856020015160006008811061100657fe5b602002019067ffffffffffffffff16908167ffffffffffffffff16815250508160006002811061103257fe5b6020020151856020015160046008811061104857fe5b602002015118856020015160046008811061105f57fe5b602002019067ffffffffffffffff16908167ffffffffffffffff16815250508160016002811061108b57fe5b602002015185602001516005600881106110a157fe5b60200201511885602001516005600881106110b857fe5b602002019067ffffffffffffffff16908167ffffffffffffffff1681525050806000600281106110e457fe5b602002015185602001516006600881106110fa57fe5b602002015118856020015160066008811061111157fe5b602002019067ffffffffffffffff16908167ffffffffffffffff16815250508060016002811061113d57fe5b6020020151856020015160076008811061115357fe5b602002015118856020015160076008811061116a57fe5b602002019067ffffffffffffffff16908167ffffffffffffffff16815250508367ffffffffffffffff168560800181815250506000835111156111d3576111b185846111da565b6080856060019067ffffffffffffffff16908167ffffffffffffffff16815250505b5050505050565b60005b81518110156112e1576080836060015167ffffffffffffffff16141561126e57826060015167ffffffffffffffff1683604001818151019150906fffffffffffffffffffffffffffffffff1690816fffffffffffffffffffffffffffffffff168152505061124c836000611437565b6000836060019067ffffffffffffffff16908167ffffffffffffffff16815250505b600083606001805180919060010167ffffffffffffffff1667ffffffffffffffff1681525067ffffffffffffffff1690506112a7612be3565b8460000151905060008484815181106112bc57fe5b602001015160f81c60f81b60f81c9050808383015350505080806001019150506111dd565b505050565b816060015167ffffffffffffffff1682604001818151019150906fffffffffffffffffffffffffffffffff1690816fffffffffffffffffffffffffffffffff1681525050611335826001611437565b60005b600883608001518161134657fe5b048110156113a35761136b8360200151826008811061136157fe5b6020020151610973565b82826008811061137757fe5b602002019067ffffffffffffffff16908167ffffffffffffffff16815250508080600101915050611338565b50604082608001511015611433576113f96113df836020015160088560800151816113ca57fe5b04600881106113d557fe5b6020020151610973565b60088460800151816113ed57fe5b06600802604003610eae565b81600884608001518161140857fe5b046008811061141357fe5b602002019067ffffffffffffffff16908167ffffffffffffffff16815250505b5050565b61143f612c05565b611447612c05565b60005b60088110156114fb578460200151816008811061146357fe5b602002015183826010811061147457fe5b602002019067ffffffffffffffff16908167ffffffffffffffff1681525050600081600881106114a057fe5b600491828204019190066008029054906101000a900467ffffffffffffffff168360088301601081106114cf57fe5b602002019067ffffffffffffffff16908167ffffffffffffffff1681525050808060010191505061144a565b506801000000000000000084604001516fffffffffffffffffffffffffffffffff168161152457fe5b0682600c6010811061153257fe5b60200201511882600c6010811061154557fe5b602002019067ffffffffffffffff16908167ffffffffffffffff16815250506801000000000000000084604001516fffffffffffffffffffffffffffffffff168161158c57fe5b0482600d6010811061159a57fe5b60200201511882600d601081106115ad57fe5b602002019067ffffffffffffffff16908167ffffffffffffffff168152505082156116125781600e601081106115df57fe5b60200201511982600e601081106115f257fe5b602002019067ffffffffffffffff16908167ffffffffffffffff16815250505b60008060005b60108110156116b95760006004828161162d57fe5b06905060009350600081141561165f5787600001516004838161164c57fe5b046004811061165757fe5b602002015192505b67ffffffffffffffff8160030360400260020a840416935061168084610973565b85836010811061168c57fe5b602002019067ffffffffffffffff16908167ffffffffffffffff1681525050508080600101915050611618565b506116ef84600060046008600c886000601081106116d357fe5b6020020151896001601081106116e557fe5b6020020151610cda565b61172484600160056009600d8860026010811061170857fe5b60200201518960036010811061171a57fe5b6020020151610cda565b6117598460026006600a600e8860046010811061173d57fe5b60200201518960056010811061174f57fe5b6020020151610cda565b61178e8460036007600b600f8860066010811061177257fe5b60200201518960076010811061178457fe5b6020020151610cda565b6117c38460006005600a600f886008601081106117a757fe5b6020020151896009601081106117b957fe5b6020020151610cda565b6117f88460016006600b600c88600a601081106117dc57fe5b602002015189600b601081106117ee57fe5b6020020151610cda565b61182d84600260076008600d88600c6010811061181157fe5b602002015189600d6010811061182357fe5b6020020151610cda565b61186284600360046009600e88600e6010811061184657fe5b602002015189600f6010811061185857fe5b6020020151610cda565b61189784600060046008600c88600e6010811061187b57fe5b602002015189600a6010811061188d57fe5b6020020151610cda565b6118cc84600160056009600d886004601081106118b057fe5b6020020151896008601081106118c257fe5b6020020151610cda565b6119018460026006600a600e886009601081106118e557fe5b602002015189600f601081106118f757fe5b6020020151610cda565b6119368460036007600b600f88600d6010811061191a57fe5b60200201518960066010811061192c57fe5b6020020151610cda565b61196b8460006005600a600f8860016010811061194f57fe5b602002015189600c6010811061196157fe5b6020020151610cda565b6119a08460016006600b600c8860006010811061198457fe5b60200201518960026010811061199657fe5b6020020151610cda565b6119d584600260076008600d88600b601081106119b957fe5b6020020151896007601081106119cb57fe5b6020020151610cda565b611a0a84600360046009600e886005601081106119ee57fe5b602002015189600360108110611a0057fe5b6020020151610cda565b611a3f84600060046008600c88600b60108110611a2357fe5b602002015189600860108110611a3557fe5b6020020151610cda565b611a7484600160056009600d88600c60108110611a5857fe5b602002015189600060108110611a6a57fe5b6020020151610cda565b611aa98460026006600a600e88600560108110611a8d57fe5b602002015189600260108110611a9f57fe5b6020020151610cda565b611ade8460036007600b600f88600f60108110611ac257fe5b602002015189600d60108110611ad457fe5b6020020151610cda565b611b138460006005600a600f88600a60108110611af757fe5b602002015189600e60108110611b0957fe5b6020020151610cda565b611b488460016006600b600c88600360108110611b2c57fe5b602002015189600660108110611b3e57fe5b6020020151610cda565b611b7d84600260076008600d88600760108110611b6157fe5b602002015189600160108110611b7357fe5b6020020151610cda565b611bb284600360046009600e88600960108110611b9657fe5b602002015189600460108110611ba857fe5b6020020151610cda565b611be784600060046008600c88600760108110611bcb57fe5b602002015189600960108110611bdd57fe5b6020020151610cda565b611c1c84600160056009600d88600360108110611c0057fe5b602002015189600160108110611c1257fe5b6020020151610cda565b611c518460026006600a600e88600d60108110611c3557fe5b602002015189600c60108110611c4757fe5b6020020151610cda565b611c868460036007600b600f88600b60108110611c6a57fe5b602002015189600e60108110611c7c57fe5b6020020151610cda565b611cbb8460006005600a600f88600260108110611c9f57fe5b602002015189600660108110611cb157fe5b6020020151610cda565b611cf08460016006600b600c88600560108110611cd457fe5b602002015189600a60108110611ce657fe5b6020020151610cda565b611d2584600260076008600d88600460108110611d0957fe5b602002015189600060108110611d1b57fe5b6020020151610cda565b611d5a84600360046009600e88600f60108110611d3e57fe5b602002015189600860108110611d5057fe5b6020020151610cda565b611d8f84600060046008600c88600960108110611d7357fe5b602002015189600060108110611d8557fe5b6020020151610cda565b611dc484600160056009600d88600560108110611da857fe5b602002015189600760108110611dba57fe5b6020020151610cda565b611df98460026006600a600e88600260108110611ddd57fe5b602002015189600460108110611def57fe5b6020020151610cda565b611e2e8460036007600b600f88600a60108110611e1257fe5b602002015189600f60108110611e2457fe5b6020020151610cda565b611e638460006005600a600f88600e60108110611e4757fe5b602002015189600160108110611e5957fe5b6020020151610cda565b611e988460016006600b600c88600b60108110611e7c57fe5b602002015189600c60108110611e8e57fe5b6020020151610cda565b611ecd84600260076008600d88600660108110611eb157fe5b602002015189600860108110611ec357fe5b6020020151610cda565b611f0284600360046009600e88600360108110611ee657fe5b602002015189600d60108110611ef857fe5b6020020151610cda565b611f3784600060046008600c88600260108110611f1b57fe5b602002015189600c60108110611f2d57fe5b6020020151610cda565b611f6c84600160056009600d88600660108110611f5057fe5b602002015189600a60108110611f6257fe5b6020020151610cda565b611fa18460026006600a600e88600060108110611f8557fe5b602002015189600b60108110611f9757fe5b6020020151610cda565b611fd68460036007600b600f88600860108110611fba57fe5b602002015189600360108110611fcc57fe5b6020020151610cda565b61200b8460006005600a600f88600460108110611fef57fe5b602002015189600d6010811061200157fe5b6020020151610cda565b6120408460016006600b600c8860076010811061202457fe5b60200201518960056010811061203657fe5b6020020151610cda565b61207584600260076008600d88600f6010811061205957fe5b602002015189600e6010811061206b57fe5b6020020151610cda565b6120aa84600360046009600e8860016010811061208e57fe5b6020020151896009601081106120a057fe5b6020020151610cda565b6120df84600060046008600c88600c601081106120c357fe5b6020020151896005601081106120d557fe5b6020020151610cda565b61211484600160056009600d886001601081106120f857fe5b602002015189600f6010811061210a57fe5b6020020151610cda565b6121498460026006600a600e88600e6010811061212d57fe5b602002015189600d6010811061213f57fe5b6020020151610cda565b61217e8460036007600b600f8860046010811061216257fe5b602002015189600a6010811061217457fe5b6020020151610cda565b6121b38460006005600a600f8860006010811061219757fe5b6020020151896007601081106121a957fe5b6020020151610cda565b6121e88460016006600b600c886006601081106121cc57fe5b6020020151896003601081106121de57fe5b6020020151610cda565b61221d84600260076008600d8860096010811061220157fe5b60200201518960026010811061221357fe5b6020020151610cda565b61225284600360046009600e8860086010811061223657fe5b602002015189600b6010811061224857fe5b6020020151610cda565b61228784600060046008600c88600d6010811061226b57fe5b602002015189600b6010811061227d57fe5b6020020151610cda565b6122bc84600160056009600d886007601081106122a057fe5b602002015189600e601081106122b257fe5b6020020151610cda565b6122f18460026006600a600e88600c601081106122d557fe5b6020020151896001601081106122e757fe5b6020020151610cda565b6123268460036007600b600f8860036010811061230a57fe5b60200201518960096010811061231c57fe5b6020020151610cda565b61235b8460006005600a600f8860056010811061233f57fe5b60200201518960006010811061235157fe5b6020020151610cda565b6123908460016006600b600c88600f6010811061237457fe5b60200201518960046010811061238657fe5b6020020151610cda565b6123c584600260076008600d886008601081106123a957fe5b6020020151896006601081106123bb57fe5b6020020151610cda565b6123fa84600360046009600e886002601081106123de57fe5b602002015189600a601081106123f057fe5b6020020151610cda565b61242f84600060046008600c8860066010811061241357fe5b602002015189600f6010811061242557fe5b6020020151610cda565b61246484600160056009600d88600e6010811061244857fe5b60200201518960096010811061245a57fe5b6020020151610cda565b6124998460026006600a600e88600b6010811061247d57fe5b60200201518960036010811061248f57fe5b6020020151610cda565b6124ce8460036007600b600f886000601081106124b257fe5b6020020151896008601081106124c457fe5b6020020151610cda565b6125038460006005600a600f88600c601081106124e757fe5b6020020151896002601081106124f957fe5b6020020151610cda565b6125388460016006600b600c88600d6010811061251c57fe5b60200201518960076010811061252e57fe5b6020020151610cda565b61256d84600260076008600d8860016010811061255157fe5b60200201518960046010811061256357fe5b6020020151610cda565b6125a284600360046009600e88600a6010811061258657fe5b60200201518960056010811061259857fe5b6020020151610cda565b6125d784600060046008600c88600a601081106125bb57fe5b6020020151896002601081106125cd57fe5b6020020151610cda565b61260c84600160056009600d886008601081106125f057fe5b60200201518960046010811061260257fe5b6020020151610cda565b6126418460026006600a600e8860076010811061262557fe5b60200201518960066010811061263757fe5b6020020151610cda565b6126768460036007600b600f8860016010811061265a57fe5b60200201518960056010811061266c57fe5b6020020151610cda565b6126ab8460006005600a600f88600f6010811061268f57fe5b602002015189600b601081106126a157fe5b6020020151610cda565b6126e08460016006600b600c886009601081106126c457fe5b602002015189600e601081106126d657fe5b6020020151610cda565b61271584600260076008600d886003601081106126f957fe5b602002015189600c6010811061270b57fe5b6020020151610cda565b61274a84600360046009600e88600d6010811061272e57fe5b60200201518960006010811061274057fe5b6020020151610cda565b61277f84600060046008600c8860006010811061276357fe5b60200201518960016010811061277557fe5b6020020151610cda565b6127b484600160056009600d8860026010811061279857fe5b6020020151896003601081106127aa57fe5b6020020151610cda565b6127e98460026006600a600e886004601081106127cd57fe5b6020020151896005601081106127df57fe5b6020020151610cda565b61281e8460036007600b600f8860066010811061280257fe5b60200201518960076010811061281457fe5b6020020151610cda565b6128538460006005600a600f8860086010811061283757fe5b60200201518960096010811061284957fe5b6020020151610cda565b6128888460016006600b600c88600a6010811061286c57fe5b602002015189600b6010811061287e57fe5b6020020151610cda565b6128bd84600260076008600d88600c601081106128a157fe5b602002015189600d601081106128b357fe5b6020020151610cda565b6128f284600360046009600e88600e601081106128d657fe5b602002015189600f601081106128e857fe5b6020020151610cda565b61292784600060046008600c88600e6010811061290b57fe5b602002015189600a6010811061291d57fe5b6020020151610cda565b61295c84600160056009600d8860046010811061294057fe5b60200201518960086010811061295257fe5b6020020151610cda565b6129918460026006600a600e8860096010811061297557fe5b602002015189600f6010811061298757fe5b6020020151610cda565b6129c68460036007600b600f88600d601081106129aa57fe5b6020020151896006601081106129bc57fe5b6020020151610cda565b6129fb8460006005600a600f886001601081106129df57fe5b602002015189600c601081106129f157fe5b6020020151610cda565b612a308460016006600b600c88600060108110612a1457fe5b602002015189600260108110612a2657fe5b6020020151610cda565b612a6584600260076008600d88600b60108110612a4957fe5b602002015189600760108110612a5b57fe5b6020020151610cda565b612a9a84600360046009600e88600560108110612a7e57fe5b602002015189600360108110612a9057fe5b6020020151610cda565b60005b6008811015612b1c57846008820160108110612ab557fe5b6020020151858260108110612ac657fe5b602002015188602001518360088110612adb57fe5b6020020151181887602001518260088110612af257fe5b602002019067ffffffffffffffff16908167ffffffffffffffff1681525050806001019050612a9d565b50505050505050565b604051806101000160405280600890602082028036833780820191505090505090565b6040518060a00160405280612b5b612be3565b8152602001612b68612b25565b815260200160006fffffffffffffffffffffffffffffffff168152602001600067ffffffffffffffff168152602001600081525090565b6040518060400160405280600290602082028036833780820191505090505090565b6040518060400160405280600290602082028036833780820191505090505090565b6040518060800160405280600490602082028036833780820191505090505090565b60405180610200016040528060109060208202803683378082019150509050509056fe4f75746c656e206d7573742062652067726561746572207468616e203020616e64206c657373207468616e203634a2646970667358221220b9bd951dcc3865af92c4c76508aeac2c5d08bc75e5da72dde142c68e5499140964736f6c634300060c0033",
			"opcodes": "PUSH1 0x80 PUSH1 0x40 MSTORE PUSH1 0x40 MLOAD DUP1 PUSH1 0x40 ADD PUSH1 0x40 MSTORE DUP1 PUSH1 0x10 DUP2 MSTORE PUSH1 0x20 ADD PUSH32 0x566572757344656661756C744861736800000000000000000000000000000000 DUP2 MSTORE POP PUSH1 0x1 SWAP1 DUP1 MLOAD SWAP1 PUSH1 0x20 ADD SWAP1 PUSH3 0x51 SWAP3 SWAP2 SWAP1 PUSH3 0xD1 JUMP JUMPDEST POP CALLVALUE DUP1 ISZERO PUSH3 0x5F JUMPI PUSH1 0x0 DUP1 REVERT JUMPDEST POP PUSH1 0x40 MLOAD PUSH3 0x6E SWAP1 PUSH3 0x158 JUMP JUMPDEST PUSH1 0x40 MLOAD DUP1 SWAP2 SUB SWAP1 PUSH1 0x0 CREATE DUP1 ISZERO DUP1 ISZERO PUSH3 0x8B JUMPI RETURNDATASIZE PUSH1 0x0 DUP1 RETURNDATACOPY RETURNDATASIZE PUSH1 0x0 REVERT JUMPDEST POP PUSH1 0x0 DUP1 PUSH2 0x100 EXP DUP2 SLOAD DUP2 PUSH20 0xFFFFFFFFFFFFFFFFFFFFFFFFFFFFFFFFFFFFFFFF MUL NOT AND SWAP1 DUP4 PUSH20 0xFFFFFFFFFFFFFFFFFFFFFFFFFFFFFFFFFFFFFFFF AND MUL OR SWAP1 SSTORE POP PUSH3 0x185 JUMP JUMPDEST DUP3 DUP1 SLOAD PUSH1 0x1 DUP2 PUSH1 0x1 AND ISZERO PUSH2 0x100 MUL SUB AND PUSH1 0x2 SWAP1 DIV SWAP1 PUSH1 0x0 MSTORE PUSH1 0x20 PUSH1 0x0 KECCAK256 SWAP1 PUSH1 0x1F ADD PUSH1 0x20 SWAP1 DIV DUP2 ADD SWAP3 DUP3 PUSH1 0x1F LT PUSH3 0x114 JUMPI DUP1 MLOAD PUSH1 0xFF NOT AND DUP4 DUP1 ADD OR DUP6 SSTORE PUSH3 0x145 JUMP JUMPDEST DUP3 DUP1 ADD PUSH1 0x1 ADD DUP6 SSTORE DUP3 ISZERO PUSH3 0x145 JUMPI SWAP2 DUP3 ADD JUMPDEST DUP3 DUP2 GT ISZERO PUSH3 0x144 JUMPI DUP3 MLOAD DUP3 SSTORE SWAP2 PUSH1 0x20 ADD SWAP2 SWAP1 PUSH1 0x1 ADD SWAP1 PUSH3 0x127 JUMP JUMPDEST JUMPDEST POP SWAP1 POP PUSH3 0x154 SWAP2 SWAP1 PUSH3 0x166 JUMP JUMPDEST POP SWAP1 JUMP JUMPDEST PUSH2 0x2E78 DUP1 PUSH3 0x1125 DUP4 CODECOPY ADD SWAP1 JUMP JUMPDEST JUMPDEST DUP1 DUP3 GT ISZERO PUSH3 0x181 JUMPI PUSH1 0x0 DUP2 PUSH1 0x0 SWAP1 SSTORE POP PUSH1 0x1 ADD PUSH3 0x167 JUMP JUMPDEST POP SWAP1 JUMP JUMPDEST PUSH2 0xF90 DUP1 PUSH3 0x195 PUSH1 0x0 CODECOPY PUSH1 0x0 RETURN INVALID PUSH1 0x80 PUSH1 0x40 MSTORE CALLVALUE DUP1 ISZERO PUSH2 0x10 JUMPI PUSH1 0x0 DUP1 REVERT JUMPDEST POP PUSH1 0x4 CALLDATASIZE LT PUSH2 0x7D JUMPI PUSH1 0x0 CALLDATALOAD PUSH1 0xE0 SHR DUP1 PUSH4 0xBFE370D9 GT PUSH2 0x5B JUMPI DUP1 PUSH4 0xBFE370D9 EQ PUSH2 0x112 JUMPI DUP1 PUSH4 0xC984BAE8 EQ PUSH2 0x142 JUMPI DUP1 PUSH4 0xE56E814B EQ PUSH2 0x172 JUMPI DUP1 PUSH4 0xFE5320BF EQ PUSH2 0x1A2 JUMPI PUSH2 0x7D JUMP JUMPDEST DUP1 PUSH4 0x2CD0CFF2 EQ PUSH2 0x82 JUMPI DUP1 PUSH4 0x2F0DA104 EQ PUSH2 0xB2 JUMPI DUP1 PUSH4 0x95C12F53 EQ PUSH2 0xE2 JUMPI JUMPDEST PUSH1 0x0 DUP1 REVERT JUMPDEST PUSH2 0x9C PUSH1 0x4 DUP1 CALLDATASIZE SUB DUP2 ADD SWAP1 PUSH2 0x97 SWAP2 SWAP1 PUSH2 0x9EB JUMP JUMPDEST PUSH2 0x1D2 JUMP JUMPDEST PUSH1 0x40 MLOAD PUSH2 0xA9 SWAP2 SWAP1 PUSH2 0xCC2 JUMP JUMPDEST PUSH1 0x40 MLOAD DUP1 SWAP2 SUB SWAP1 RETURN JUMPDEST PUSH2 0xCC PUSH1 0x4 DUP1 CALLDATASIZE SUB DUP2 ADD SWAP1 PUSH2 0xC7 SWAP2 SWAP1 PUSH2 0x9C2 JUMP JUMPDEST PUSH2 0x281 JUMP JUMPDEST PUSH1 0x40 MLOAD PUSH2 0xD9 SWAP2 SWAP1 PUSH2 0xCC2 JUMP JUMPDEST PUSH1 0x40 MLOAD DUP1 SWAP2 SUB SWAP1 RETURN JUMPDEST PUSH2 0xFC PUSH1 0x4 DUP1 CALLDATASIZE SUB DUP2 ADD SWAP1 PUSH2 0xF7 SWAP2 SWAP1 PUSH2 0xAEC JUMP JUMPDEST PUSH2 0x400 JUMP JUMPDEST PUSH1 0x40 MLOAD PUSH2 0x109 SWAP2 SWAP1 PUSH2 0xCC2 JUMP JUMPDEST PUSH1 0x40 MLOAD DUP1 SWAP2 SUB SWAP1 RETURN JUMPDEST PUSH2 0x12C PUSH1 0x4 DUP1 CALLDATASIZE SUB DUP2 ADD SWAP1 PUSH2 0x127 SWAP2 SWAP1 PUSH2 0x9EB JUMP JUMPDEST PUSH2 0x5D8 JUMP JUMPDEST PUSH1 0x40 MLOAD PUSH2 0x139 SWAP2 SWAP1 PUSH2 0xCC2 JUMP JUMPDEST PUSH1 0x40 MLOAD DUP1 SWAP2 SUB SWAP1 RETURN JUMPDEST PUSH2 0x15C PUSH1 0x4 DUP1 CALLDATASIZE SUB DUP2 ADD SWAP1 PUSH2 0x157 SWAP2 SWAP1 PUSH2 0xA80 JUMP JUMPDEST PUSH2 0x603 JUMP JUMPDEST PUSH1 0x40 MLOAD PUSH2 0x169 SWAP2 SWAP1 PUSH2 0xCDD JUMP JUMPDEST PUSH1 0x40 MLOAD DUP1 SWAP2 SUB SWAP1 RETURN JUMPDEST PUSH2 0x18C PUSH1 0x4 DUP1 CALLDATASIZE SUB DUP2 ADD SWAP1 PUSH2 0x187 SWAP2 SWAP1 PUSH2 0xA2C JUMP JUMPDEST PUSH2 0x7A9 JUMP JUMPDEST PUSH1 0x40 MLOAD PUSH2 0x199 SWAP2 SWAP1 PUSH2 0xCC2 JUMP JUMPDEST PUSH1 0x40 MLOAD DUP1 SWAP2 SUB SWAP1 RETURN JUMPDEST PUSH2 0x1BC PUSH1 0x4 DUP1 CALLDATASIZE SUB DUP2 ADD SWAP1 PUSH2 0x1B7 SWAP2 SWAP1 PUSH2 0xA80 JUMP JUMPDEST PUSH2 0x858 JUMP JUMPDEST PUSH1 0x40 MLOAD PUSH2 0x1C9 SWAP2 SWAP1 PUSH2 0xCC2 JUMP JUMPDEST PUSH1 0x40 MLOAD DUP1 SWAP2 SUB SWAP1 RETURN JUMPDEST PUSH1 0x0 PUSH2 0x27A DUP3 PUSH1 0x1 DUP1 SLOAD PUSH1 0x1 DUP2 PUSH1 0x1 AND ISZERO PUSH2 0x100 MUL SUB AND PUSH1 0x2 SWAP1 DIV DUP1 PUSH1 0x1F ADD PUSH1 0x20 DUP1 SWAP2 DIV MUL PUSH1 0x20 ADD PUSH1 0x40 MLOAD SWAP1 DUP2 ADD PUSH1 0x40 MSTORE DUP1 SWAP3 SWAP2 SWAP1 DUP2 DUP2 MSTORE PUSH1 0x20 ADD DUP3 DUP1 SLOAD PUSH1 0x1 DUP2 PUSH1 0x1 AND ISZERO PUSH2 0x100 MUL SUB AND PUSH1 0x2 SWAP1 DIV DUP1 ISZERO PUSH2 0x26E JUMPI DUP1 PUSH1 0x1F LT PUSH2 0x243 JUMPI PUSH2 0x100 DUP1 DUP4 SLOAD DIV MUL DUP4 MSTORE SWAP2 PUSH1 0x20 ADD SWAP2 PUSH2 0x26E JUMP JUMPDEST DUP3 ADD SWAP2 SWAP1 PUSH1 0x0 MSTORE PUSH1 0x20 PUSH1 0x0 KECCAK256 SWAP1 JUMPDEST DUP2 SLOAD DUP2 MSTORE SWAP1 PUSH1 0x1 ADD SWAP1 PUSH1 0x20 ADD DUP1 DUP4 GT PUSH2 0x251 JUMPI DUP3 SWAP1 SUB PUSH1 0x1F AND DUP3 ADD SWAP2 JUMPDEST POP POP POP POP POP PUSH1 0x0 PUSH2 0x400 JUMP JUMPDEST SWAP1 POP SWAP2 SWAP1 POP JUMP JUMPDEST PUSH1 0x0 DUP1 PUSH1 0x0 SWAP1 POP JUMPDEST PUSH1 0x20 DUP2 PUSH1 0xFF AND LT DUP1 ISZERO PUSH2 0x2D4 JUMPI POP PUSH1 0x0 PUSH1 0xF8 SHL DUP4 DUP3 PUSH1 0xFF AND PUSH1 0x20 DUP2 LT PUSH2 0x2AB JUMPI INVALID JUMPDEST BYTE PUSH1 0xF8 SHL PUSH31 0xFFFFFFFFFFFFFFFFFFFFFFFFFFFFFFFFFFFFFFFFFFFFFFFFFFFFFFFFFFFFFF NOT AND EQ ISZERO JUMPDEST ISZERO PUSH2 0x2E6 JUMPI DUP1 DUP1 PUSH1 0x1 ADD SWAP2 POP POP PUSH2 0x289 JUMP JUMPDEST PUSH1 0x60 DUP2 PUSH1 0xFF AND PUSH8 0xFFFFFFFFFFFFFFFF DUP2 GT DUP1 ISZERO PUSH2 0x302 JUMPI PUSH1 0x0 DUP1 REVERT JUMPDEST POP PUSH1 0x40 MLOAD SWAP1 DUP1 DUP3 MSTORE DUP1 PUSH1 0x1F ADD PUSH1 0x1F NOT AND PUSH1 0x20 ADD DUP3 ADD PUSH1 0x40 MSTORE DUP1 ISZERO PUSH2 0x335 JUMPI DUP2 PUSH1 0x20 ADD PUSH1 0x1 DUP3 MUL DUP1 CALLDATASIZE DUP4 CALLDATACOPY DUP1 DUP3 ADD SWAP2 POP POP SWAP1 POP JUMPDEST POP SWAP1 POP PUSH1 0x0 SWAP2 POP JUMPDEST PUSH1 0x20 DUP3 PUSH1 0xFF AND LT DUP1 ISZERO PUSH2 0x388 JUMPI POP PUSH1 0x0 PUSH1 0xF8 SHL DUP5 DUP4 PUSH1 0xFF AND PUSH1 0x20 DUP2 LT PUSH2 0x35F JUMPI INVALID JUMPDEST BYTE PUSH1 0xF8 SHL PUSH31 0xFFFFFFFFFFFFFFFFFFFFFFFFFFFFFFFFFFFFFFFFFFFFFFFFFFFFFFFFFFFFFF NOT AND EQ ISZERO JUMPDEST ISZERO PUSH2 0x3EE JUMPI DUP4 DUP3 PUSH1 0x1F SUB PUSH1 0xFF AND PUSH1 0x20 DUP2 LT PUSH2 0x39F JUMPI INVALID JUMPDEST BYTE PUSH1 0xF8 SHL DUP2 DUP4 PUSH1 0xFF AND DUP2 MLOAD DUP2 LT PUSH2 0x3B2 JUMPI INVALID JUMPDEST PUSH1 0x20 ADD ADD SWAP1 PUSH31 0xFFFFFFFFFFFFFFFFFFFFFFFFFFFFFFFFFFFFFFFFFFFFFFFFFFFFFFFFFFFFFF NOT AND SWAP1 DUP2 PUSH1 0x0 BYTE SWAP1 MSTORE8 POP DUP2 DUP1 PUSH1 0x1 ADD SWAP3 POP POP PUSH2 0x33D JUMP JUMPDEST PUSH2 0x3F7 DUP2 PUSH2 0x5D8 JUMP JUMPDEST SWAP3 POP POP POP SWAP2 SWAP1 POP JUMP JUMPDEST PUSH1 0x0 PUSH2 0x40A PUSH2 0x86E JUMP JUMPDEST PUSH1 0x60 DUP6 PUSH1 0x40 MLOAD PUSH1 0x20 ADD PUSH2 0x41D SWAP2 SWAP1 PUSH2 0xC19 JUMP JUMPDEST PUSH1 0x40 MLOAD PUSH1 0x20 DUP2 DUP4 SUB SUB DUP2 MSTORE SWAP1 PUSH1 0x40 MSTORE SWAP1 POP PUSH1 0x60 DUP1 PUSH1 0x0 DUP1 SLOAD SWAP1 PUSH2 0x100 EXP SWAP1 DIV PUSH20 0xFFFFFFFFFFFFFFFFFFFFFFFFFFFFFFFFFFFFFFFF AND PUSH20 0xFFFFFFFFFFFFFFFFFFFFFFFFFFFFFFFFFFFFFFFF AND PUSH4 0x1E092423 DUP5 DUP5 DUP5 DUP12 PUSH1 0x20 PUSH1 0x40 MLOAD DUP7 PUSH4 0xFFFFFFFF AND PUSH1 0xE0 SHL DUP2 MSTORE PUSH1 0x4 ADD PUSH2 0x493 SWAP6 SWAP5 SWAP4 SWAP3 SWAP2 SWAP1 PUSH2 0xCFF JUMP JUMPDEST PUSH2 0x100 PUSH1 0x40 MLOAD DUP1 DUP4 SUB DUP2 PUSH1 0x0 DUP8 DUP1 EXTCODESIZE ISZERO DUP1 ISZERO PUSH2 0x4AE JUMPI PUSH1 0x0 DUP1 REVERT JUMPDEST POP GAS CALL ISZERO DUP1 ISZERO PUSH2 0x4C2 JUMPI RETURNDATASIZE PUSH1 0x0 DUP1 RETURNDATACOPY RETURNDATASIZE PUSH1 0x0 REVERT JUMPDEST POP POP POP POP PUSH1 0x40 MLOAD RETURNDATASIZE PUSH1 0x1F NOT PUSH1 0x1F DUP3 ADD AND DUP3 ADD DUP1 PUSH1 0x40 MSTORE POP DUP2 ADD SWAP1 PUSH2 0x4E6 SWAP2 SWAP1 PUSH2 0x998 JUMP JUMPDEST SWAP4 POP PUSH1 0x60 DUP5 PUSH1 0x0 PUSH1 0x8 DUP2 LT PUSH2 0x4F7 JUMPI INVALID JUMPDEST PUSH1 0x20 MUL ADD MLOAD DUP6 PUSH1 0x1 PUSH1 0x8 DUP2 LT PUSH2 0x509 JUMPI INVALID JUMPDEST PUSH1 0x20 MUL ADD MLOAD DUP7 PUSH1 0x2 PUSH1 0x8 DUP2 LT PUSH2 0x51B JUMPI INVALID JUMPDEST PUSH1 0x20 MUL ADD MLOAD DUP8 PUSH1 0x3 PUSH1 0x8 DUP2 LT PUSH2 0x52D JUMPI INVALID JUMPDEST PUSH1 0x20 MUL ADD MLOAD DUP9 PUSH1 0x4 PUSH1 0x8 DUP2 LT PUSH2 0x53F JUMPI INVALID JUMPDEST PUSH1 0x20 MUL ADD MLOAD DUP10 PUSH1 0x5 PUSH1 0x8 DUP2 LT PUSH2 0x551 JUMPI INVALID JUMPDEST PUSH1 0x20 MUL ADD MLOAD DUP11 PUSH1 0x6 PUSH1 0x8 DUP2 LT PUSH2 0x563 JUMPI INVALID JUMPDEST PUSH1 0x20 MUL ADD MLOAD DUP12 PUSH1 0x7 PUSH1 0x8 DUP2 LT PUSH2 0x575 JUMPI INVALID JUMPDEST PUSH1 0x20 MUL ADD MLOAD PUSH1 0x40 MLOAD PUSH1 0x20 ADD PUSH2 0x591 SWAP9 SWAP8 SWAP7 SWAP6 SWAP5 SWAP4 SWAP3 SWAP2 SWAP1 PUSH2 0xC30 JUMP JUMPDEST PUSH1 0x40 MLOAD PUSH1 0x20 DUP2 DUP4 SUB SUB DUP2 MSTORE SWAP1 PUSH1 0x40 MSTORE SWAP1 POP PUSH1 0x0 PUSH2 0x5AD DUP3 PUSH2 0x5D8 JUMP JUMPDEST SWAP1 POP PUSH1 0x1 ISZERO ISZERO DUP9 ISZERO ISZERO EQ ISZERO PUSH2 0x5C8 JUMPI PUSH2 0x5C5 DUP2 PUSH2 0x281 JUMP JUMPDEST SWAP1 POP JUMPDEST DUP1 SWAP7 POP POP POP POP POP POP POP SWAP4 SWAP3 POP POP POP JUMP JUMPDEST PUSH1 0x0 PUSH1 0x60 DUP3 SWAP1 POP PUSH1 0x0 DUP2 MLOAD EQ ISZERO PUSH2 0x5F5 JUMPI PUSH1 0x0 DUP1 SHL SWAP2 POP POP PUSH2 0x5FE JUMP JUMPDEST PUSH1 0x20 DUP4 ADD MLOAD SWAP2 POP POP JUMPDEST SWAP2 SWAP1 POP JUMP JUMPDEST PUSH1 0x60 PUSH2 0x60D PUSH2 0x86E JUMP JUMPDEST PUSH1 0x60 DUP5 PUSH1 0x40 MLOAD PUSH1 0x20 ADD PUSH2 0x620 SWAP2 SWAP1 PUSH2 0xC19 JUMP JUMPDEST PUSH1 0x40 MLOAD PUSH1 0x20 DUP2 DUP4 SUB SUB DUP2 MSTORE SWAP1 PUSH1 0x40 MSTORE SWAP1 POP PUSH1 0x0 DUP1 SLOAD SWAP1 PUSH2 0x100 EXP SWAP1 DIV PUSH20 0xFFFFFFFFFFFFFFFFFFFFFFFFFFFFFFFFFFFFFFFF AND PUSH20 0xFFFFFFFFFFFFFFFFFFFFFFFFFFFFFFFFFFFFFFFF AND PUSH4 0xD299DAC0 DUP3 DUP7 PUSH1 0x40 DUP1 MLOAD DUP5 PUSH4 0xFFFFFFFF AND PUSH1 0xE0 SHL DUP2 MSTORE PUSH1 0x4 ADD PUSH2 0x68E SWAP4 SWAP3 SWAP2 SWAP1 PUSH2 0xD6E JUMP JUMPDEST PUSH2 0x100 PUSH1 0x40 MLOAD DUP1 DUP4 SUB DUP2 PUSH1 0x0 DUP8 DUP1 EXTCODESIZE ISZERO DUP1 ISZERO PUSH2 0x6A9 JUMPI PUSH1 0x0 DUP1 REVERT JUMPDEST POP GAS CALL ISZERO DUP1 ISZERO PUSH2 0x6BD JUMPI RETURNDATASIZE PUSH1 0x0 DUP1 RETURNDATACOPY RETURNDATASIZE PUSH1 0x0 REVERT JUMPDEST POP POP POP POP PUSH1 0x40 MLOAD RETURNDATASIZE PUSH1 0x1F NOT PUSH1 0x1F DUP3 ADD AND DUP3 ADD DUP1 PUSH1 0x40 MSTORE POP DUP2 ADD SWAP1 PUSH2 0x6E1 SWAP2 SWAP1 PUSH2 0x998 JUMP JUMPDEST SWAP2 POP PUSH1 0x60 DUP3 PUSH1 0x0 PUSH1 0x8 DUP2 LT PUSH2 0x6F2 JUMPI INVALID JUMPDEST PUSH1 0x20 MUL ADD MLOAD DUP4 PUSH1 0x1 PUSH1 0x8 DUP2 LT PUSH2 0x704 JUMPI INVALID JUMPDEST PUSH1 0x20 MUL ADD MLOAD DUP5 PUSH1 0x2 PUSH1 0x8 DUP2 LT PUSH2 0x716 JUMPI INVALID JUMPDEST PUSH1 0x20 MUL ADD MLOAD DUP6 PUSH1 0x3 PUSH1 0x8 DUP2 LT PUSH2 0x728 JUMPI INVALID JUMPDEST PUSH1 0x20 MUL ADD MLOAD DUP7 PUSH1 0x4 PUSH1 0x8 DUP2 LT PUSH2 0x73A JUMPI INVALID JUMPDEST PUSH1 0x20 MUL ADD MLOAD DUP8 PUSH1 0x5 PUSH1 0x8 DUP2 LT PUSH2 0x74C JUMPI INVALID JUMPDEST PUSH1 0x20 MUL ADD MLOAD DUP9 PUSH1 0x6 PUSH1 0x8 DUP2 LT PUSH2 0x75E JUMPI INVALID JUMPDEST PUSH1 0x20 MUL ADD MLOAD DUP10 PUSH1 0x7 PUSH1 0x8 DUP2 LT PUSH2 0x770 JUMPI INVALID JUMPDEST PUSH1 0x20 MUL ADD MLOAD PUSH1 0x40 MLOAD PUSH1 0x20 ADD PUSH2 0x78C SWAP9 SWAP8 SWAP7 SWAP6 SWAP5 SWAP4 SWAP3 SWAP2 SWAP1 PUSH2 0xC30 JUMP JUMPDEST PUSH1 0x40 MLOAD PUSH1 0x20 DUP2 DUP4 SUB SUB DUP2 MSTORE SWAP1 PUSH1 0x40 MSTORE SWAP1 POP DUP1 SWAP4 POP POP POP POP SWAP3 SWAP2 POP POP JUMP JUMPDEST PUSH1 0x0 PUSH2 0x850 DUP4 PUSH1 0x1 DUP1 SLOAD PUSH1 0x1 DUP2 PUSH1 0x1 AND ISZERO PUSH2 0x100 MUL SUB AND PUSH1 0x2 SWAP1 DIV DUP1 PUSH1 0x1F ADD PUSH1 0x20 DUP1 SWAP2 DIV MUL PUSH1 0x20 ADD PUSH1 0x40 MLOAD SWAP1 DUP2 ADD PUSH1 0x40 MSTORE DUP1 SWAP3 SWAP2 SWAP1 DUP2 DUP2 MSTORE PUSH1 0x20 ADD DUP3 DUP1 SLOAD PUSH1 0x1 DUP2 PUSH1 0x1 AND ISZERO PUSH2 0x100 MUL SUB AND PUSH1 0x2 SWAP1 DIV DUP1 ISZERO PUSH2 0x845 JUMPI DUP1 PUSH1 0x1F LT PUSH2 0x81A JUMPI PUSH2 0x100 DUP1 DUP4 SLOAD DIV MUL DUP4 MSTORE SWAP2 PUSH1 0x20 ADD SWAP2 PUSH2 0x845 JUMP JUMPDEST DUP3 ADD SWAP2 SWAP1 PUSH1 0x0 MSTORE PUSH1 0x20 PUSH1 0x0 KECCAK256 SWAP1 JUMPDEST DUP2 SLOAD DUP2 MSTORE SWAP1 PUSH1 0x1 ADD SWAP1 PUSH1 0x20 ADD DUP1 DUP4 GT PUSH2 0x828 JUMPI DUP3 SWAP1 SUB PUSH1 0x1F AND DUP3 ADD SWAP2 JUMPDEST POP POP POP POP POP DUP5 PUSH2 0x400 JUMP JUMPDEST SWAP1 POP SWAP3 SWAP2 POP POP JUMP JUMPDEST PUSH1 0x0 PUSH2 0x866 DUP4 DUP4 PUSH1 0x0 PUSH2 0x400 JUMP JUMPDEST SWAP1 POP SWAP3 SWAP2 POP POP JUMP JUMPDEST PUSH1 0x40 MLOAD DUP1 PUSH2 0x100 ADD PUSH1 0x40 MSTORE DUP1 PUSH1 0x8 SWAP1 PUSH1 0x20 DUP3 MUL DUP1 CALLDATASIZE DUP4 CALLDATACOPY DUP1 DUP3 ADD SWAP2 POP POP SWAP1 POP POP SWAP1 JUMP JUMPDEST PUSH1 0x0 DUP3 PUSH1 0x1F DUP4 ADD SLT PUSH2 0x8A2 JUMPI PUSH1 0x0 DUP1 REVERT JUMPDEST PUSH1 0x8 PUSH2 0x8B5 PUSH2 0x8B0 DUP3 PUSH2 0xDE0 JUMP JUMPDEST PUSH2 0xDB3 JUMP JUMPDEST SWAP2 POP DUP2 DUP4 DUP6 PUSH1 0x20 DUP5 MUL DUP3 ADD GT ISZERO PUSH2 0x8CB JUMPI PUSH1 0x0 DUP1 REVERT JUMPDEST PUSH1 0x0 JUMPDEST DUP4 DUP2 LT ISZERO PUSH2 0x8FB JUMPI DUP2 PUSH2 0x8E1 DUP9 DUP3 PUSH2 0x983 JUMP JUMPDEST DUP5 MSTORE PUSH1 0x20 DUP5 ADD SWAP4 POP PUSH1 0x20 DUP4 ADD SWAP3 POP POP PUSH1 0x1 DUP2 ADD SWAP1 POP PUSH2 0x8CE JUMP JUMPDEST POP POP POP POP SWAP3 SWAP2 POP POP JUMP JUMPDEST PUSH1 0x0 DUP2 CALLDATALOAD SWAP1 POP PUSH2 0x914 DUP2 PUSH2 0xF15 JUMP JUMPDEST SWAP3 SWAP2 POP POP JUMP JUMPDEST PUSH1 0x0 DUP2 CALLDATALOAD SWAP1 POP PUSH2 0x929 DUP2 PUSH2 0xF2C JUMP JUMPDEST SWAP3 SWAP2 POP POP JUMP JUMPDEST PUSH1 0x0 DUP3 PUSH1 0x1F DUP4 ADD SLT PUSH2 0x940 JUMPI PUSH1 0x0 DUP1 REVERT JUMPDEST DUP2 CALLDATALOAD PUSH2 0x953 PUSH2 0x94E DUP3 PUSH2 0xE02 JUMP JUMPDEST PUSH2 0xDB3 JUMP JUMPDEST SWAP2 POP DUP1 DUP3 MSTORE PUSH1 0x20 DUP4 ADD PUSH1 0x20 DUP4 ADD DUP6 DUP4 DUP4 ADD GT ISZERO PUSH2 0x96F JUMPI PUSH1 0x0 DUP1 REVERT JUMPDEST PUSH2 0x97A DUP4 DUP3 DUP5 PUSH2 0xEA3 JUMP JUMPDEST POP POP POP SWAP3 SWAP2 POP POP JUMP JUMPDEST PUSH1 0x0 DUP2 MLOAD SWAP1 POP PUSH2 0x992 DUP2 PUSH2 0xF43 JUMP JUMPDEST SWAP3 SWAP2 POP POP JUMP JUMPDEST PUSH1 0x0 PUSH2 0x100 DUP3 DUP5 SUB SLT ISZERO PUSH2 0x9AB JUMPI PUSH1 0x0 DUP1 REVERT JUMPDEST PUSH1 0x0 PUSH2 0x9B9 DUP5 DUP3 DUP6 ADD PUSH2 0x891 JUMP JUMPDEST SWAP2 POP POP SWAP3 SWAP2 POP POP JUMP JUMPDEST PUSH1 0x0 PUSH1 0x20 DUP3 DUP5 SUB SLT ISZERO PUSH2 0x9D4 JUMPI PUSH1 0x0 DUP1 REVERT JUMPDEST PUSH1 0x0 PUSH2 0x9E2 DUP5 DUP3 DUP6 ADD PUSH2 0x91A JUMP JUMPDEST SWAP2 POP POP SWAP3 SWAP2 POP POP JUMP JUMPDEST PUSH1 0x0 PUSH1 0x20 DUP3 DUP5 SUB SLT ISZERO PUSH2 0x9FD JUMPI PUSH1 0x0 DUP1 REVERT JUMPDEST PUSH1 0x0 DUP3 ADD CALLDATALOAD PUSH8 0xFFFFFFFFFFFFFFFF DUP2 GT ISZERO PUSH2 0xA17 JUMPI PUSH1 0x0 DUP1 REVERT JUMPDEST PUSH2 0xA23 DUP5 DUP3 DUP6 ADD PUSH2 0x92F JUMP JUMPDEST SWAP2 POP POP SWAP3 SWAP2 POP POP JUMP JUMPDEST PUSH1 0x0 DUP1 PUSH1 0x40 DUP4 DUP6 SUB SLT ISZERO PUSH2 0xA3F JUMPI PUSH1 0x0 DUP1 REVERT JUMPDEST PUSH1 0x0 DUP4 ADD CALLDATALOAD PUSH8 0xFFFFFFFFFFFFFFFF DUP2 GT ISZERO PUSH2 0xA59 JUMPI PUSH1 0x0 DUP1 REVERT JUMPDEST PUSH2 0xA65 DUP6 DUP3 DUP7 ADD PUSH2 0x92F JUMP JUMPDEST SWAP3 POP POP PUSH1 0x20 PUSH2 0xA76 DUP6 DUP3 DUP7 ADD PUSH2 0x905 JUMP JUMPDEST SWAP2 POP POP SWAP3 POP SWAP3 SWAP1 POP JUMP JUMPDEST PUSH1 0x0 DUP1 PUSH1 0x40 DUP4 DUP6 SUB SLT ISZERO PUSH2 0xA93 JUMPI PUSH1 0x0 DUP1 REVERT JUMPDEST PUSH1 0x0 DUP4 ADD CALLDATALOAD PUSH8 0xFFFFFFFFFFFFFFFF DUP2 GT ISZERO PUSH2 0xAAD JUMPI PUSH1 0x0 DUP1 REVERT JUMPDEST PUSH2 0xAB9 DUP6 DUP3 DUP7 ADD PUSH2 0x92F JUMP JUMPDEST SWAP3 POP POP PUSH1 0x20 DUP4 ADD CALLDATALOAD PUSH8 0xFFFFFFFFFFFFFFFF DUP2 GT ISZERO PUSH2 0xAD6 JUMPI PUSH1 0x0 DUP1 REVERT JUMPDEST PUSH2 0xAE2 DUP6 DUP3 DUP7 ADD PUSH2 0x92F JUMP JUMPDEST SWAP2 POP POP SWAP3 POP SWAP3 SWAP1 POP JUMP JUMPDEST PUSH1 0x0 DUP1 PUSH1 0x0 PUSH1 0x60 DUP5 DUP7 SUB SLT ISZERO PUSH2 0xB01 JUMPI PUSH1 0x0 DUP1 REVERT JUMPDEST PUSH1 0x0 DUP5 ADD CALLDATALOAD PUSH8 0xFFFFFFFFFFFFFFFF DUP2 GT ISZERO PUSH2 0xB1B JUMPI PUSH1 0x0 DUP1 REVERT JUMPDEST PUSH2 0xB27 DUP7 DUP3 DUP8 ADD PUSH2 0x92F JUMP JUMPDEST SWAP4 POP POP PUSH1 0x20 DUP5 ADD CALLDATALOAD PUSH8 0xFFFFFFFFFFFFFFFF DUP2 GT ISZERO PUSH2 0xB44 JUMPI PUSH1 0x0 DUP1 REVERT JUMPDEST PUSH2 0xB50 DUP7 DUP3 DUP8 ADD PUSH2 0x92F JUMP JUMPDEST SWAP3 POP POP PUSH1 0x40 PUSH2 0xB61 DUP7 DUP3 DUP8 ADD PUSH2 0x905 JUMP JUMPDEST SWAP2 POP POP SWAP3 POP SWAP3 POP SWAP3 JUMP JUMPDEST PUSH2 0xB74 DUP2 PUSH2 0xE61 JUMP JUMPDEST DUP3 MSTORE POP POP JUMP JUMPDEST PUSH1 0x0 PUSH2 0xB85 DUP3 PUSH2 0xE2E JUMP JUMPDEST PUSH2 0xB8F DUP2 DUP6 PUSH2 0xE39 JUMP JUMPDEST SWAP4 POP PUSH2 0xB9F DUP2 DUP6 PUSH1 0x20 DUP7 ADD PUSH2 0xEB2 JUMP JUMPDEST PUSH2 0xBA8 DUP2 PUSH2 0xEF7 JUMP JUMPDEST DUP5 ADD SWAP2 POP POP SWAP3 SWAP2 POP POP JUMP JUMPDEST PUSH1 0x0 PUSH2 0xBBE DUP3 PUSH2 0xE2E JUMP JUMPDEST PUSH2 0xBC8 DUP2 DUP6 PUSH2 0xE4A JUMP JUMPDEST SWAP4 POP PUSH2 0xBD8 DUP2 DUP6 PUSH1 0x20 DUP7 ADD PUSH2 0xEB2 JUMP JUMPDEST DUP1 DUP5 ADD SWAP2 POP POP SWAP3 SWAP2 POP POP JUMP JUMPDEST PUSH2 0xBED DUP2 PUSH2 0xE7F JUMP JUMPDEST DUP3 MSTORE POP POP JUMP JUMPDEST PUSH2 0xBFC DUP2 PUSH2 0xE91 JUMP JUMPDEST DUP3 MSTORE POP POP JUMP JUMPDEST PUSH2 0xC13 PUSH2 0xC0E DUP3 PUSH2 0xE6B JUMP JUMPDEST PUSH2 0xEE5 JUMP JUMPDEST DUP3 MSTORE POP POP JUMP JUMPDEST PUSH1 0x0 PUSH2 0xC25 DUP3 DUP5 PUSH2 0xBB3 JUMP JUMPDEST SWAP2 POP DUP2 SWAP1 POP SWAP3 SWAP2 POP POP JUMP JUMPDEST PUSH1 0x0 PUSH2 0xC3C DUP3 DUP12 PUSH2 0xC02 JUMP JUMPDEST PUSH1 0x8 DUP3 ADD SWAP2 POP PUSH2 0xC4C DUP3 DUP11 PUSH2 0xC02 JUMP JUMPDEST PUSH1 0x8 DUP3 ADD SWAP2 POP PUSH2 0xC5C DUP3 DUP10 PUSH2 0xC02 JUMP JUMPDEST PUSH1 0x8 DUP3 ADD SWAP2 POP PUSH2 0xC6C DUP3 DUP9 PUSH2 0xC02 JUMP JUMPDEST PUSH1 0x8 DUP3 ADD SWAP2 POP PUSH2 0xC7C DUP3 DUP8 PUSH2 0xC02 JUMP JUMPDEST PUSH1 0x8 DUP3 ADD SWAP2 POP PUSH2 0xC8C DUP3 DUP7 PUSH2 0xC02 JUMP JUMPDEST PUSH1 0x8 DUP3 ADD SWAP2 POP PUSH2 0xC9C DUP3 DUP6 PUSH2 0xC02 JUMP JUMPDEST PUSH1 0x8 DUP3 ADD SWAP2 POP PUSH2 0xCAC DUP3 DUP5 PUSH2 0xC02 JUMP JUMPDEST PUSH1 0x8 DUP3 ADD SWAP2 POP DUP2 SWAP1 POP SWAP10 SWAP9 POP POP POP POP POP POP POP POP POP JUMP JUMPDEST PUSH1 0x0 PUSH1 0x20 DUP3 ADD SWAP1 POP PUSH2 0xCD7 PUSH1 0x0 DUP4 ADD DUP5 PUSH2 0xB6B JUMP JUMPDEST SWAP3 SWAP2 POP POP JUMP JUMPDEST PUSH1 0x0 PUSH1 0x20 DUP3 ADD SWAP1 POP DUP2 DUP2 SUB PUSH1 0x0 DUP4 ADD MSTORE PUSH2 0xCF7 DUP2 DUP5 PUSH2 0xB7A JUMP JUMPDEST SWAP1 POP SWAP3 SWAP2 POP POP JUMP JUMPDEST PUSH1 0x0 PUSH1 0xA0 DUP3 ADD SWAP1 POP DUP2 DUP2 SUB PUSH1 0x0 DUP4 ADD MSTORE PUSH2 0xD19 DUP2 DUP9 PUSH2 0xB7A JUMP JUMPDEST SWAP1 POP DUP2 DUP2 SUB PUSH1 0x20 DUP4 ADD MSTORE PUSH2 0xD2D DUP2 DUP8 PUSH2 0xB7A JUMP JUMPDEST SWAP1 POP DUP2 DUP2 SUB PUSH1 0x40 DUP4 ADD MSTORE PUSH2 0xD41 DUP2 DUP7 PUSH2 0xB7A JUMP JUMPDEST SWAP1 POP DUP2 DUP2 SUB PUSH1 0x60 DUP4 ADD MSTORE PUSH2 0xD55 DUP2 DUP6 PUSH2 0xB7A JUMP JUMPDEST SWAP1 POP PUSH2 0xD64 PUSH1 0x80 DUP4 ADD DUP5 PUSH2 0xBE4 JUMP JUMPDEST SWAP7 SWAP6 POP POP POP POP POP POP JUMP JUMPDEST PUSH1 0x0 PUSH1 0x60 DUP3 ADD SWAP1 POP DUP2 DUP2 SUB PUSH1 0x0 DUP4 ADD MSTORE PUSH2 0xD88 DUP2 DUP7 PUSH2 0xB7A JUMP JUMPDEST SWAP1 POP DUP2 DUP2 SUB PUSH1 0x20 DUP4 ADD MSTORE PUSH2 0xD9C DUP2 DUP6 PUSH2 0xB7A JUMP JUMPDEST SWAP1 POP PUSH2 0xDAB PUSH1 0x40 DUP4 ADD DUP5 PUSH2 0xBF3 JUMP JUMPDEST SWAP5 SWAP4 POP POP POP POP JUMP JUMPDEST PUSH1 0x0 PUSH1 0x40 MLOAD SWAP1 POP DUP2 DUP2 ADD DUP2 DUP2 LT PUSH8 0xFFFFFFFFFFFFFFFF DUP3 GT OR ISZERO PUSH2 0xDD6 JUMPI PUSH1 0x0 DUP1 REVERT JUMPDEST DUP1 PUSH1 0x40 MSTORE POP SWAP2 SWAP1 POP JUMP JUMPDEST PUSH1 0x0 PUSH8 0xFFFFFFFFFFFFFFFF DUP3 GT ISZERO PUSH2 0xDF7 JUMPI PUSH1 0x0 DUP1 REVERT JUMPDEST PUSH1 0x20 DUP3 MUL SWAP1 POP SWAP2 SWAP1 POP JUMP JUMPDEST PUSH1 0x0 PUSH8 0xFFFFFFFFFFFFFFFF DUP3 GT ISZERO PUSH2 0xE19 JUMPI PUSH1 0x0 DUP1 REVERT JUMPDEST PUSH1 0x1F NOT PUSH1 0x1F DUP4 ADD AND SWAP1 POP PUSH1 0x20 DUP2 ADD SWAP1 POP SWAP2 SWAP1 POP JUMP JUMPDEST PUSH1 0x0 DUP2 MLOAD SWAP1 POP SWAP2 SWAP1 POP JUMP JUMPDEST PUSH1 0x0 DUP3 DUP3 MSTORE PUSH1 0x20 DUP3 ADD SWAP1 POP SWAP3 SWAP2 POP POP JUMP JUMPDEST PUSH1 0x0 DUP2 SWAP1 POP SWAP3 SWAP2 POP POP JUMP JUMPDEST PUSH1 0x0 DUP2 ISZERO ISZERO SWAP1 POP SWAP2 SWAP1 POP JUMP JUMPDEST PUSH1 0x0 DUP2 SWAP1 POP SWAP2 SWAP1 POP JUMP JUMPDEST PUSH1 0x0 PUSH8 0xFFFFFFFFFFFFFFFF DUP3 AND SWAP1 POP SWAP2 SWAP1 POP JUMP JUMPDEST PUSH1 0x0 PUSH2 0xE8A DUP3 PUSH2 0xE6B JUMP JUMPDEST SWAP1 POP SWAP2 SWAP1 POP JUMP JUMPDEST PUSH1 0x0 PUSH2 0xE9C DUP3 PUSH2 0xE6B JUMP JUMPDEST SWAP1 POP SWAP2 SWAP1 POP JUMP JUMPDEST DUP3 DUP2 DUP4 CALLDATACOPY PUSH1 0x0 DUP4 DUP4 ADD MSTORE POP POP POP JUMP JUMPDEST PUSH1 0x0 JUMPDEST DUP4 DUP2 LT ISZERO PUSH2 0xED0 JUMPI DUP1 DUP3 ADD MLOAD DUP2 DUP5 ADD MSTORE PUSH1 0x20 DUP2 ADD SWAP1 POP PUSH2 0xEB5 JUMP JUMPDEST DUP4 DUP2 GT ISZERO PUSH2 0xEDF JUMPI PUSH1 0x0 DUP5 DUP5 ADD MSTORE JUMPDEST POP POP POP POP JUMP JUMPDEST PUSH1 0x0 PUSH2 0xEF0 DUP3 PUSH2 0xF08 JUMP JUMPDEST SWAP1 POP SWAP2 SWAP1 POP JUMP JUMPDEST PUSH1 0x0 PUSH1 0x1F NOT PUSH1 0x1F DUP4 ADD AND SWAP1 POP SWAP2 SWAP1 POP JUMP JUMPDEST PUSH1 0x0 DUP2 PUSH1 0xC0 SHL SWAP1 POP SWAP2 SWAP1 POP JUMP JUMPDEST PUSH2 0xF1E DUP2 PUSH2 0xE55 JUMP JUMPDEST DUP2 EQ PUSH2 0xF29 JUMPI PUSH1 0x0 DUP1 REVERT JUMPDEST POP JUMP JUMPDEST PUSH2 0xF35 DUP2 PUSH2 0xE61 JUMP JUMPDEST DUP2 EQ PUSH2 0xF40 JUMPI PUSH1 0x0 DUP1 REVERT JUMPDEST POP JUMP JUMPDEST PUSH2 0xF4C DUP2 PUSH2 0xE6B JUMP JUMPDEST DUP2 EQ PUSH2 0xF57 JUMPI PUSH1 0x0 DUP1 REVERT JUMPDEST POP JUMP INVALID LOG2 PUSH5 0x6970667358 0x22 SLT KECCAK256 0xC4 SDIV 0xE3 CREATE 0xA8 DUP15 PUSH20 0xFEFB78AEA1CFC460B7A0EB3A109D037BF09C48D4 REVERT 0xE2 DELEGATECALL PUSH23 0x4464736F6C634300060C00336080604052604051806101 STOP ADD PUSH1 0x40 MSTORE DUP1 PUSH8 0x6A09E667F3BCC908 PUSH8 0xFFFFFFFFFFFFFFFF AND DUP2 MSTORE PUSH1 0x20 ADD PUSH8 0xBB67AE8584CAA73B PUSH8 0xFFFFFFFFFFFFFFFF AND DUP2 MSTORE PUSH1 0x20 ADD PUSH8 0x3C6EF372FE94F82B PUSH8 0xFFFFFFFFFFFFFFFF AND DUP2 MSTORE PUSH1 0x20 ADD PUSH8 0xA54FF53A5F1D36F1 PUSH8 0xFFFFFFFFFFFFFFFF AND DUP2 MSTORE PUSH1 0x20 ADD PUSH8 0x510E527FADE682D1 PUSH8 0xFFFFFFFFFFFFFFFF AND DUP2 MSTORE PUSH1 0x20 ADD PUSH8 0x9B05688C2B3E6C1F PUSH8 0xFFFFFFFFFFFFFFFF AND DUP2 MSTORE PUSH1 0x20 ADD PUSH8 0x1F83D9ABFB41BD6B PUSH8 0xFFFFFFFFFFFFFFFF AND DUP2 MSTORE PUSH1 0x20 ADD PUSH8 0x5BE0CD19137E2179 PUSH8 0xFFFFFFFFFFFFFFFF AND DUP2 MSTORE POP PUSH1 0x0 SWAP1 PUSH1 0x8 PUSH3 0xE0 SWAP3 SWAP2 SWAP1 PUSH3 0xF5 JUMP JUMPDEST POP CALLVALUE DUP1 ISZERO PUSH3 0xEE JUMPI PUSH1 0x0 DUP1 REVERT JUMPDEST POP PUSH3 0x1DC JUMP JUMPDEST DUP3 PUSH1 0x8 PUSH1 0x3 ADD PUSH1 0x4 SWAP1 DIV DUP2 ADD SWAP3 DUP3 ISZERO PUSH3 0x198 JUMPI SWAP2 PUSH1 0x20 MUL DUP3 ADD PUSH1 0x0 JUMPDEST DUP4 DUP3 GT ISZERO PUSH3 0x160 JUMPI DUP4 MLOAD DUP4 DUP3 PUSH2 0x100 EXP DUP2 SLOAD DUP2 PUSH8 0xFFFFFFFFFFFFFFFF MUL NOT AND SWAP1 DUP4 PUSH8 0xFFFFFFFFFFFFFFFF AND MUL OR SWAP1 SSTORE POP SWAP3 PUSH1 0x20 ADD SWAP3 PUSH1 0x8 ADD PUSH1 0x20 DUP2 PUSH1 0x7 ADD DIV SWAP3 DUP4 ADD SWAP3 PUSH1 0x1 SUB MUL PUSH3 0x112 JUMP JUMPDEST DUP1 ISZERO PUSH3 0x196 JUMPI DUP3 DUP2 PUSH2 0x100 EXP DUP2 SLOAD SWAP1 PUSH8 0xFFFFFFFFFFFFFFFF MUL NOT AND SWAP1 SSTORE PUSH1 0x8 ADD PUSH1 0x20 DUP2 PUSH1 0x7 ADD DIV SWAP3 DUP4 ADD SWAP3 PUSH1 0x1 SUB MUL PUSH3 0x160 JUMP JUMPDEST POP JUMPDEST POP SWAP1 POP PUSH3 0x1A7 SWAP2 SWAP1 PUSH3 0x1AB JUMP JUMPDEST POP SWAP1 JUMP JUMPDEST JUMPDEST DUP1 DUP3 GT ISZERO PUSH3 0x1D8 JUMPI PUSH1 0x0 DUP2 DUP2 PUSH2 0x100 EXP DUP2 SLOAD SWAP1 PUSH8 0xFFFFFFFFFFFFFFFF MUL NOT AND SWAP1 SSTORE POP PUSH1 0x1 ADD PUSH3 0x1AC JUMP JUMPDEST POP SWAP1 JUMP JUMPDEST PUSH2 0x2C8C DUP1 PUSH3 0x1EC PUSH1 0x0 CODECOPY PUSH1 0x0 RETURN INVALID PUSH1 0x80 PUSH1 0x40 MSTORE CALLVALUE DUP1 ISZERO PUSH2 0x10 JUMPI PUSH1 0x0 DUP1 REVERT JUMPDEST POP PUSH1 0x4 CALLDATASIZE LT PUSH2 0x93 JUMPI PUSH1 0x0 CALLDATALOAD PUSH1 0xE0 SHR DUP1 PUSH4 0xD299DAC0 GT PUSH2 0x66 JUMPI DUP1 PUSH4 0xD299DAC0 EQ PUSH2 0x515 JUMPI DUP1 PUSH4 0xDF459019 EQ PUSH2 0x6B7 JUMPI DUP1 PUSH4 0xF23525EC EQ PUSH2 0x75A JUMPI DUP1 PUSH4 0xFA2ACD87 EQ PUSH2 0x7A6 JUMPI DUP1 PUSH4 0xFB72D24E EQ PUSH2 0x85D JUMPI PUSH2 0x93 JUMP JUMPDEST DUP1 PUSH4 0x1E092423 EQ PUSH2 0x98 JUMPI DUP1 PUSH4 0x217311AC EQ PUSH2 0x368 JUMPI DUP1 PUSH4 0x7AC0B1E3 EQ PUSH2 0x3BE JUMPI DUP1 PUSH4 0xBF187478 EQ PUSH2 0x4B5 JUMPI JUMPDEST PUSH1 0x0 DUP1 REVERT JUMPDEST PUSH2 0x32A PUSH1 0x4 DUP1 CALLDATASIZE SUB PUSH1 0xA0 DUP2 LT ISZERO PUSH2 0xAE JUMPI PUSH1 0x0 DUP1 REVERT JUMPDEST DUP2 ADD SWAP1 DUP1 DUP1 CALLDATALOAD SWAP1 PUSH1 0x20 ADD SWAP1 PUSH5 0x100000000 DUP2 GT ISZERO PUSH2 0xCB JUMPI PUSH1 0x0 DUP1 REVERT JUMPDEST DUP3 ADD DUP4 PUSH1 0x20 DUP3 ADD GT ISZERO PUSH2 0xDD JUMPI PUSH1 0x0 DUP1 REVERT JUMPDEST DUP1 CALLDATALOAD SWAP1 PUSH1 0x20 ADD SWAP2 DUP5 PUSH1 0x1 DUP4 MUL DUP5 ADD GT PUSH5 0x100000000 DUP4 GT OR ISZERO PUSH2 0xFF JUMPI PUSH1 0x0 DUP1 REVERT JUMPDEST SWAP2 SWAP1 DUP1 DUP1 PUSH1 0x1F ADD PUSH1 0x20 DUP1 SWAP2 DIV MUL PUSH1 0x20 ADD PUSH1 0x40 MLOAD SWAP1 DUP2 ADD PUSH1 0x40 MSTORE DUP1 SWAP4 SWAP3 SWAP2 SWAP1 DUP2 DUP2 MSTORE PUSH1 0x20 ADD DUP4 DUP4 DUP1 DUP3 DUP5 CALLDATACOPY PUSH1 0x0 DUP2 DUP5 ADD MSTORE PUSH1 0x1F NOT PUSH1 0x1F DUP3 ADD AND SWAP1 POP DUP1 DUP4 ADD SWAP3 POP POP POP POP POP POP POP SWAP2 SWAP3 SWAP2 SWAP3 SWAP1 DUP1 CALLDATALOAD SWAP1 PUSH1 0x20 ADD SWAP1 PUSH5 0x100000000 DUP2 GT ISZERO PUSH2 0x162 JUMPI PUSH1 0x0 DUP1 REVERT JUMPDEST DUP3 ADD DUP4 PUSH1 0x20 DUP3 ADD GT ISZERO PUSH2 0x174 JUMPI PUSH1 0x0 DUP1 REVERT JUMPDEST DUP1 CALLDATALOAD SWAP1 PUSH1 0x20 ADD SWAP2 DUP5 PUSH1 0x1 DUP4 MUL DUP5 ADD GT PUSH5 0x100000000 DUP4 GT OR ISZERO PUSH2 0x196 JUMPI PUSH1 0x0 DUP1 REVERT JUMPDEST SWAP2 SWAP1 DUP1 DUP1 PUSH1 0x1F ADD PUSH1 0x20 DUP1 SWAP2 DIV MUL PUSH1 0x20 ADD PUSH1 0x40 MLOAD SWAP1 DUP2 ADD PUSH1 0x40 MSTORE DUP1 SWAP4 SWAP3 SWAP2 SWAP1 DUP2 DUP2 MSTORE PUSH1 0x20 ADD DUP4 DUP4 DUP1 DUP3 DUP5 CALLDATACOPY PUSH1 0x0 DUP2 DUP5 ADD MSTORE PUSH1 0x1F NOT PUSH1 0x1F DUP3 ADD AND SWAP1 POP DUP1 DUP4 ADD SWAP3 POP POP POP POP POP POP POP SWAP2 SWAP3 SWAP2 SWAP3 SWAP1 DUP1 CALLDATALOAD SWAP1 PUSH1 0x20 ADD SWAP1 PUSH5 0x100000000 DUP2 GT ISZERO PUSH2 0x1F9 JUMPI PUSH1 0x0 DUP1 REVERT JUMPDEST DUP3 ADD DUP4 PUSH1 0x20 DUP3 ADD GT ISZERO PUSH2 0x20B JUMPI PUSH1 0x0 DUP1 REVERT JUMPDEST DUP1 CALLDATALOAD SWAP1 PUSH1 0x20 ADD SWAP2 DUP5 PUSH1 0x1 DUP4 MUL DUP5 ADD GT PUSH5 0x100000000 DUP4 GT OR ISZERO PUSH2 0x22D JUMPI PUSH1 0x0 DUP1 REVERT JUMPDEST SWAP2 SWAP1 DUP1 DUP1 PUSH1 0x1F ADD PUSH1 0x20 DUP1 SWAP2 DIV MUL PUSH1 0x20 ADD PUSH1 0x40 MLOAD SWAP1 DUP2 ADD PUSH1 0x40 MSTORE DUP1 SWAP4 SWAP3 SWAP2 SWAP1 DUP2 DUP2 MSTORE PUSH1 0x20 ADD DUP4 DUP4 DUP1 DUP3 DUP5 CALLDATACOPY PUSH1 0x0 DUP2 DUP5 ADD MSTORE PUSH1 0x1F NOT PUSH1 0x1F DUP3 ADD AND SWAP1 POP DUP1 DUP4 ADD SWAP3 POP POP POP POP POP POP POP SWAP2 SWAP3 SWAP2 SWAP3 SWAP1 DUP1 CALLDATALOAD SWAP1 PUSH1 0x20 ADD SWAP1 PUSH5 0x100000000 DUP2 GT ISZERO PUSH2 0x290 JUMPI PUSH1 0x0 DUP1 REVERT JUMPDEST DUP3 ADD DUP4 PUSH1 0x20 DUP3 ADD GT ISZERO PUSH2 0x2A2 JUMPI PUSH1 0x0 DUP1 REVERT JUMPDEST DUP1 CALLDATALOAD SWAP1 PUSH1 0x20 ADD SWAP2 DUP5 PUSH1 0x1 DUP4 MUL DUP5 ADD GT PUSH5 0x100000000 DUP4 GT OR ISZERO PUSH2 0x2C4 JUMPI PUSH1 0x0 DUP1 REVERT JUMPDEST SWAP2 SWAP1 DUP1 DUP1 PUSH1 0x1F ADD PUSH1 0x20 DUP1 SWAP2 DIV MUL PUSH1 0x20 ADD PUSH1 0x40 MLOAD SWAP1 DUP2 ADD PUSH1 0x40 MSTORE DUP1 SWAP4 SWAP3 SWAP2 SWAP1 DUP2 DUP2 MSTORE PUSH1 0x20 ADD DUP4 DUP4 DUP1 DUP3 DUP5 CALLDATACOPY PUSH1 0x0 DUP2 DUP5 ADD MSTORE PUSH1 0x1F NOT PUSH1 0x1F DUP3 ADD AND SWAP1 POP DUP1 DUP4 ADD SWAP3 POP POP POP POP POP POP POP SWAP2 SWAP3 SWAP2 SWAP3 SWAP1 DUP1 CALLDATALOAD PUSH8 0xFFFFFFFFFFFFFFFF AND SWAP1 PUSH1 0x20 ADD SWAP1 SWAP3 SWAP2 SWAP1 POP POP POP PUSH2 0x8BD JUMP JUMPDEST PUSH1 0x40 MLOAD DUP1 DUP3 PUSH1 0x8 PUSH1 0x20 MUL DUP1 DUP4 DUP4 PUSH1 0x0 JUMPDEST DUP4 DUP2 LT ISZERO PUSH2 0x355 JUMPI DUP1 DUP3 ADD MLOAD DUP2 DUP5 ADD MSTORE PUSH1 0x20 DUP2 ADD SWAP1 POP PUSH2 0x33A JUMP JUMPDEST POP POP POP POP SWAP1 POP ADD SWAP2 POP POP PUSH1 0x40 MLOAD DUP1 SWAP2 SUB SWAP1 RETURN JUMPDEST PUSH2 0x39E PUSH1 0x4 DUP1 CALLDATASIZE SUB PUSH1 0x20 DUP2 LT ISZERO PUSH2 0x37E JUMPI PUSH1 0x0 DUP1 REVERT JUMPDEST DUP2 ADD SWAP1 DUP1 DUP1 CALLDATALOAD PUSH8 0xFFFFFFFFFFFFFFFF AND SWAP1 PUSH1 0x20 ADD SWAP1 SWAP3 SWAP2 SWAP1 POP POP POP PUSH2 0x973 JUMP JUMPDEST PUSH1 0x40 MLOAD DUP1 DUP3 PUSH8 0xFFFFFFFFFFFFFFFF AND DUP2 MSTORE PUSH1 0x20 ADD SWAP2 POP POP PUSH1 0x40 MLOAD DUP1 SWAP2 SUB SWAP1 RETURN JUMPDEST PUSH2 0x477 PUSH1 0x4 DUP1 CALLDATASIZE SUB PUSH1 0x20 DUP2 LT ISZERO PUSH2 0x3D4 JUMPI PUSH1 0x0 DUP1 REVERT JUMPDEST DUP2 ADD SWAP1 DUP1 DUP1 CALLDATALOAD SWAP1 PUSH1 0x20 ADD SWAP1 PUSH5 0x100000000 DUP2 GT ISZERO PUSH2 0x3F1 JUMPI PUSH1 0x0 DUP1 REVERT JUMPDEST DUP3 ADD DUP4 PUSH1 0x20 DUP3 ADD GT ISZERO PUSH2 0x403 JUMPI PUSH1 0x0 DUP1 REVERT JUMPDEST DUP1 CALLDATALOAD SWAP1 PUSH1 0x20 ADD SWAP2 DUP5 PUSH1 0x1 DUP4 MUL DUP5 ADD GT PUSH5 0x100000000 DUP4 GT OR ISZERO PUSH2 0x425 JUMPI PUSH1 0x0 DUP1 REVERT JUMPDEST SWAP2 SWAP1 DUP1 DUP1 PUSH1 0x1F ADD PUSH1 0x20 DUP1 SWAP2 DIV MUL PUSH1 0x20 ADD PUSH1 0x40 MLOAD SWAP1 DUP2 ADD PUSH1 0x40 MSTORE DUP1 SWAP4 SWAP3 SWAP2 SWAP1 DUP2 DUP2 MSTORE PUSH1 0x20 ADD DUP4 DUP4 DUP1 DUP3 DUP5 CALLDATACOPY PUSH1 0x0 DUP2 DUP5 ADD MSTORE PUSH1 0x1F NOT PUSH1 0x1F DUP3 ADD AND SWAP1 POP DUP1 DUP4 ADD SWAP3 POP POP POP POP POP POP POP SWAP2 SWAP3 SWAP2 SWAP3 SWAP1 POP POP POP PUSH2 0xA63 JUMP JUMPDEST PUSH1 0x40 MLOAD DUP1 DUP3 PUSH1 0x2 PUSH1 0x20 MUL DUP1 DUP4 DUP4 PUSH1 0x0 JUMPDEST DUP4 DUP2 LT ISZERO PUSH2 0x4A2 JUMPI DUP1 DUP3 ADD MLOAD DUP2 DUP5 ADD MSTORE PUSH1 0x20 DUP2 ADD SWAP1 POP PUSH2 0x487 JUMP JUMPDEST POP POP POP POP SWAP1 POP ADD SWAP2 POP POP PUSH1 0x40 MLOAD DUP1 SWAP2 SUB SWAP1 RETURN JUMPDEST PUSH2 0x4F5 PUSH1 0x4 DUP1 CALLDATASIZE SUB PUSH1 0x40 DUP2 LT ISZERO PUSH2 0x4CB JUMPI PUSH1 0x0 DUP1 REVERT JUMPDEST DUP2 ADD SWAP1 DUP1 DUP1 CALLDATALOAD PUSH8 0xFFFFFFFFFFFFFFFF AND SWAP1 PUSH1 0x20 ADD SWAP1 SWAP3 SWAP2 SWAP1 DUP1 CALLDATALOAD SWAP1 PUSH1 0x20 ADD SWAP1 SWAP3 SWAP2 SWAP1 POP POP POP PUSH2 0xBA0 JUMP JUMPDEST PUSH1 0x40 MLOAD DUP1 DUP3 PUSH8 0xFFFFFFFFFFFFFFFF AND DUP2 MSTORE PUSH1 0x20 ADD SWAP2 POP POP PUSH1 0x40 MLOAD DUP1 SWAP2 SUB SWAP1 RETURN JUMPDEST PUSH2 0x679 PUSH1 0x4 DUP1 CALLDATASIZE SUB PUSH1 0x60 DUP2 LT ISZERO PUSH2 0x52B JUMPI PUSH1 0x0 DUP1 REVERT JUMPDEST DUP2 ADD SWAP1 DUP1 DUP1 CALLDATALOAD SWAP1 PUSH1 0x20 ADD SWAP1 PUSH5 0x100000000 DUP2 GT ISZERO PUSH2 0x548 JUMPI PUSH1 0x0 DUP1 REVERT JUMPDEST DUP3 ADD DUP4 PUSH1 0x20 DUP3 ADD GT ISZERO PUSH2 0x55A JUMPI PUSH1 0x0 DUP1 REVERT JUMPDEST DUP1 CALLDATALOAD SWAP1 PUSH1 0x20 ADD SWAP2 DUP5 PUSH1 0x1 DUP4 MUL DUP5 ADD GT PUSH5 0x100000000 DUP4 GT OR ISZERO PUSH2 0x57C JUMPI PUSH1 0x0 DUP1 REVERT JUMPDEST SWAP2 SWAP1 DUP1 DUP1 PUSH1 0x1F ADD PUSH1 0x20 DUP1 SWAP2 DIV MUL PUSH1 0x20 ADD PUSH1 0x40 MLOAD SWAP1 DUP2 ADD PUSH1 0x40 MSTORE DUP1 SWAP4 SWAP3 SWAP2 SWAP1 DUP2 DUP2 MSTORE PUSH1 0x20 ADD DUP4 DUP4 DUP1 DUP3 DUP5 CALLDATACOPY PUSH1 0x0 DUP2 DUP5 ADD MSTORE PUSH1 0x1F NOT PUSH1 0x1F DUP3 ADD AND SWAP1 POP DUP1 DUP4 ADD SWAP3 POP POP POP POP POP POP POP SWAP2 SWAP3 SWAP2 SWAP3 SWAP1 DUP1 CALLDATALOAD SWAP1 PUSH1 0x20 ADD SWAP1 PUSH5 0x100000000 DUP2 GT ISZERO PUSH2 0x5DF JUMPI PUSH1 0x0 DUP1 REVERT JUMPDEST DUP3 ADD DUP4 PUSH1 0x20 DUP3 ADD GT ISZERO PUSH2 0x5F1 JUMPI PUSH1 0x0 DUP1 REVERT JUMPDEST DUP1 CALLDATALOAD SWAP1 PUSH1 0x20 ADD SWAP2 DUP5 PUSH1 0x1 DUP4 MUL DUP5 ADD GT PUSH5 0x100000000 DUP4 GT OR ISZERO PUSH2 0x613 JUMPI PUSH1 0x0 DUP1 REVERT JUMPDEST SWAP2 SWAP1 DUP1 DUP1 PUSH1 0x1F ADD PUSH1 0x20 DUP1 SWAP2 DIV MUL PUSH1 0x20 ADD PUSH1 0x40 MLOAD SWAP1 DUP2 ADD PUSH1 0x40 MSTORE DUP1 SWAP4 SWAP3 SWAP2 SWAP1 DUP2 DUP2 MSTORE PUSH1 0x20 ADD DUP4 DUP4 DUP1 DUP3 DUP5 CALLDATACOPY PUSH1 0x0 DUP2 DUP5 ADD MSTORE PUSH1 0x1F NOT PUSH1 0x1F DUP3 ADD AND SWAP1 POP DUP1 DUP4 ADD SWAP3 POP POP POP POP POP POP POP SWAP2 SWAP3 SWAP2 SWAP3 SWAP1 DUP1 CALLDATALOAD PUSH8 0xFFFFFFFFFFFFFFFF AND SWAP1 PUSH1 0x20 ADD SWAP1 SWAP3 SWAP2 SWAP1 POP POP POP PUSH2 0xBCC JUMP JUMPDEST PUSH1 0x40 MLOAD DUP1 DUP3 PUSH1 0x8 PUSH1 0x20 MUL DUP1 DUP4 DUP4 PUSH1 0x0 JUMPDEST DUP4 DUP2 LT ISZERO PUSH2 0x6A4 JUMPI DUP1 DUP3 ADD MLOAD DUP2 DUP5 ADD MSTORE PUSH1 0x20 DUP2 ADD SWAP1 POP PUSH2 0x689 JUMP JUMPDEST POP POP POP POP SWAP1 POP ADD SWAP2 POP POP PUSH1 0x40 MLOAD DUP1 SWAP2 SUB SWAP1 RETURN JUMPDEST PUSH2 0x71C PUSH1 0x4 DUP1 CALLDATASIZE SUB PUSH2 0x100 DUP2 LT ISZERO PUSH2 0x6CE JUMPI PUSH1 0x0 DUP1 REVERT JUMPDEST DUP2 ADD SWAP1 DUP1 DUP1 PUSH2 0x100 ADD SWAP1 PUSH1 0x8 DUP1 PUSH1 0x20 MUL PUSH1 0x40 MLOAD SWAP1 DUP2 ADD PUSH1 0x40 MSTORE DUP1 SWAP3 SWAP2 SWAP1 DUP3 PUSH1 0x8 PUSH1 0x20 MUL DUP1 DUP3 DUP5 CALLDATACOPY PUSH1 0x0 DUP2 DUP5 ADD MSTORE PUSH1 0x1F NOT PUSH1 0x1F DUP3 ADD AND SWAP1 POP DUP1 DUP4 ADD SWAP3 POP POP POP POP POP POP SWAP2 SWAP3 SWAP2 SWAP3 SWAP1 POP POP POP PUSH2 0xC08 JUMP JUMPDEST PUSH1 0x40 MLOAD DUP1 DUP3 PUSH1 0x2 PUSH1 0x20 MUL DUP1 DUP4 DUP4 PUSH1 0x0 JUMPDEST DUP4 DUP2 LT ISZERO PUSH2 0x747 JUMPI DUP1 DUP3 ADD MLOAD DUP2 DUP5 ADD MSTORE PUSH1 0x20 DUP2 ADD SWAP1 POP PUSH2 0x72C JUMP JUMPDEST POP POP POP POP SWAP1 POP ADD SWAP2 POP POP PUSH1 0x40 MLOAD DUP1 SWAP2 SUB SWAP1 RETURN JUMPDEST PUSH2 0x786 PUSH1 0x4 DUP1 CALLDATASIZE SUB PUSH1 0x20 DUP2 LT ISZERO PUSH2 0x770 JUMPI PUSH1 0x0 DUP1 REVERT JUMPDEST DUP2 ADD SWAP1 DUP1 DUP1 CALLDATALOAD SWAP1 PUSH1 0x20 ADD SWAP1 SWAP3 SWAP2 SWAP1 POP POP POP PUSH2 0xCA9 JUMP JUMPDEST PUSH1 0x40 MLOAD DUP1 DUP3 PUSH8 0xFFFFFFFFFFFFFFFF AND DUP2 MSTORE PUSH1 0x20 ADD SWAP2 POP POP PUSH1 0x40 MLOAD DUP1 SWAP2 SUB SWAP1 RETURN JUMPDEST PUSH2 0x85B PUSH1 0x4 DUP1 CALLDATASIZE SUB PUSH2 0x2C0 DUP2 LT ISZERO PUSH2 0x7BD JUMPI PUSH1 0x0 DUP1 REVERT JUMPDEST DUP2 ADD SWAP1 DUP1 DUP1 PUSH2 0x200 ADD SWAP1 PUSH1 0x10 DUP1 PUSH1 0x20 MUL PUSH1 0x40 MLOAD SWAP1 DUP2 ADD PUSH1 0x40 MSTORE DUP1 SWAP3 SWAP2 SWAP1 DUP3 PUSH1 0x10 PUSH1 0x20 MUL DUP1 DUP3 DUP5 CALLDATACOPY PUSH1 0x0 DUP2 DUP5 ADD MSTORE PUSH1 0x1F NOT PUSH1 0x1F DUP3 ADD AND SWAP1 POP DUP1 DUP4 ADD SWAP3 POP POP POP POP POP POP SWAP2 SWAP3 SWAP2 SWAP3 SWAP1 DUP1 CALLDATALOAD SWAP1 PUSH1 0x20 ADD SWAP1 SWAP3 SWAP2 SWAP1 DUP1 CALLDATALOAD SWAP1 PUSH1 0x20 ADD SWAP1 SWAP3 SWAP2 SWAP1 DUP1 CALLDATALOAD SWAP1 PUSH1 0x20 ADD SWAP1 SWAP3 SWAP2 SWAP1 DUP1 CALLDATALOAD SWAP1 PUSH1 0x20 ADD SWAP1 SWAP3 SWAP2 SWAP1 DUP1 CALLDATALOAD PUSH8 0xFFFFFFFFFFFFFFFF AND SWAP1 PUSH1 0x20 ADD SWAP1 SWAP3 SWAP2 SWAP1 DUP1 CALLDATALOAD PUSH8 0xFFFFFFFFFFFFFFFF AND SWAP1 PUSH1 0x20 ADD SWAP1 SWAP3 SWAP2 SWAP1 POP POP POP PUSH2 0xCDA JUMP JUMPDEST STOP JUMPDEST PUSH2 0x89D PUSH1 0x4 DUP1 CALLDATASIZE SUB PUSH1 0x40 DUP2 LT ISZERO PUSH2 0x873 JUMPI PUSH1 0x0 DUP1 REVERT JUMPDEST DUP2 ADD SWAP1 DUP1 DUP1 CALLDATALOAD PUSH8 0xFFFFFFFFFFFFFFFF AND SWAP1 PUSH1 0x20 ADD SWAP1 SWAP3 SWAP2 SWAP1 DUP1 CALLDATALOAD SWAP1 PUSH1 0x20 ADD SWAP1 SWAP3 SWAP2 SWAP1 POP POP POP PUSH2 0xEAE JUMP JUMPDEST PUSH1 0x40 MLOAD DUP1 DUP3 PUSH8 0xFFFFFFFFFFFFFFFF AND DUP2 MSTORE PUSH1 0x20 ADD SWAP2 POP POP PUSH1 0x40 MLOAD DUP1 SWAP2 SUB SWAP1 RETURN JUMPDEST PUSH2 0x8C5 PUSH2 0x2B25 JUMP JUMPDEST PUSH2 0x8CD PUSH2 0x2B48 JUMP JUMPDEST PUSH2 0x8D5 PUSH2 0x2B25 JUMP JUMPDEST PUSH2 0x8F2 DUP3 DUP6 DUP10 PUSH2 0x8E4 DUP11 PUSH2 0xA63 JUMP JUMPDEST PUSH2 0x8ED DUP11 PUSH2 0xA63 JUMP JUMPDEST PUSH2 0xECF JUMP JUMPDEST PUSH2 0x8FC DUP3 DUP10 PUSH2 0x11DA JUMP JUMPDEST PUSH2 0x906 DUP3 DUP3 PUSH2 0x12E6 JUMP JUMPDEST PUSH32 0xDE1A9FB355752F7765552010C12EE02E62EAA7B0502F3088E6B5398CE8686A38 DUP2 PUSH1 0x40 MLOAD DUP1 DUP3 PUSH1 0x8 PUSH1 0x20 MUL DUP1 DUP4 DUP4 PUSH1 0x0 JUMPDEST DUP4 DUP2 LT ISZERO PUSH2 0x953 JUMPI DUP1 DUP3 ADD MLOAD DUP2 DUP5 ADD MSTORE PUSH1 0x20 DUP2 ADD SWAP1 POP PUSH2 0x938 JUMP JUMPDEST POP POP POP POP SWAP1 POP ADD SWAP2 POP POP PUSH1 0x40 MLOAD DUP1 SWAP2 SUB SWAP1 LOG1 DUP1 SWAP3 POP POP POP SWAP6 SWAP5 POP POP POP POP POP JUMP JUMPDEST PUSH1 0x0 PUSH8 0x100000000000000 PUSH1 0xFF DUP4 AND MUL PUSH6 0x10000000000 PUSH2 0xFF00 DUP5 AND MUL PUSH4 0x1000000 PUSH3 0xFF0000 DUP6 AND MUL PUSH2 0x100 PUSH4 0xFF000000 DUP7 AND MUL PUSH2 0x100 PUSH8 0xFFFFFFFFFFFFFFFF AND PUSH5 0xFF00000000 DUP8 AND PUSH8 0xFFFFFFFFFFFFFFFF AND DUP2 PUSH2 0x9CD JUMPI INVALID JUMPDEST DIV PUSH4 0x1000000 PUSH8 0xFFFFFFFFFFFFFFFF AND PUSH6 0xFF0000000000 DUP9 AND PUSH8 0xFFFFFFFFFFFFFFFF AND DUP2 PUSH2 0x9F7 JUMPI INVALID JUMPDEST DIV PUSH6 0x10000000000 PUSH8 0xFFFFFFFFFFFFFFFF AND PUSH7 0xFF000000000000 DUP10 AND PUSH8 0xFFFFFFFFFFFFFFFF AND DUP2 PUSH2 0xA24 JUMPI INVALID JUMPDEST DIV PUSH8 0x100000000000000 PUSH8 0xFFFFFFFFFFFFFFFF AND PUSH8 0xFF00000000000000 DUP11 AND PUSH8 0xFFFFFFFFFFFFFFFF AND DUP2 PUSH2 0xA54 JUMPI INVALID JUMPDEST DIV XOR XOR XOR XOR XOR XOR XOR SWAP1 POP SWAP2 SWAP1 POP JUMP JUMPDEST PUSH2 0xA6B PUSH2 0x2B9F JUMP JUMPDEST PUSH1 0x0 JUMPDEST DUP3 MLOAD DUP2 LT ISZERO PUSH2 0xB0E JUMPI PUSH2 0xAB0 DUP4 DUP3 DUP2 MLOAD DUP2 LT PUSH2 0xA86 JUMPI INVALID JUMPDEST PUSH1 0x20 ADD ADD MLOAD PUSH1 0xF8 SHR PUSH1 0xF8 SHL PUSH1 0xF8 SHR PUSH1 0xFF AND PUSH1 0x1 PUSH1 0x8 DUP5 DUP2 PUSH2 0xAA3 JUMPI INVALID JUMPDEST MOD ADD PUSH1 0x8 MUL PUSH1 0x40 SUB PUSH2 0xBA0 JUMP JUMPDEST DUP3 PUSH1 0x8 DUP4 DUP2 PUSH2 0xABB JUMPI INVALID JUMPDEST DIV PUSH1 0x2 DUP2 LT PUSH2 0xAC6 JUMPI INVALID JUMPDEST PUSH1 0x20 MUL ADD MLOAD XOR DUP3 PUSH1 0x8 DUP4 DUP2 PUSH2 0xAD7 JUMPI INVALID JUMPDEST DIV PUSH1 0x2 DUP2 LT PUSH2 0xAE2 JUMPI INVALID JUMPDEST PUSH1 0x20 MUL ADD SWAP1 PUSH8 0xFFFFFFFFFFFFFFFF AND SWAP1 DUP2 PUSH8 0xFFFFFFFFFFFFFFFF AND DUP2 MSTORE POP POP DUP1 DUP1 PUSH1 0x1 ADD SWAP2 POP POP PUSH2 0xA6E JUMP JUMPDEST POP PUSH2 0xB29 DUP2 PUSH1 0x0 PUSH1 0x2 DUP2 LT PUSH2 0xB1F JUMPI INVALID JUMPDEST PUSH1 0x20 MUL ADD MLOAD PUSH2 0x973 JUMP JUMPDEST DUP2 PUSH1 0x0 PUSH1 0x2 DUP2 LT PUSH2 0xB36 JUMPI INVALID JUMPDEST PUSH1 0x20 MUL ADD SWAP1 PUSH8 0xFFFFFFFFFFFFFFFF AND SWAP1 DUP2 PUSH8 0xFFFFFFFFFFFFFFFF AND DUP2 MSTORE POP POP PUSH2 0xB6F DUP2 PUSH1 0x1 PUSH1 0x2 DUP2 LT PUSH2 0xB65 JUMPI INVALID JUMPDEST PUSH1 0x20 MUL ADD MLOAD PUSH2 0x973 JUMP JUMPDEST DUP2 PUSH1 0x1 PUSH1 0x2 DUP2 LT PUSH2 0xB7C JUMPI INVALID JUMPDEST PUSH1 0x20 MUL ADD SWAP1 PUSH8 0xFFFFFFFFFFFFFFFF AND SWAP1 DUP2 PUSH8 0xFFFFFFFFFFFFFFFF AND DUP2 MSTORE POP POP SWAP2 SWAP1 POP JUMP JUMPDEST PUSH1 0x0 PUSH9 0x10000000000000000 DUP3 PUSH1 0x2 EXP DUP5 PUSH8 0xFFFFFFFFFFFFFFFF AND MUL DUP2 PUSH2 0xBC3 JUMPI INVALID JUMPDEST MOD SWAP1 POP SWAP3 SWAP2 POP POP JUMP JUMPDEST PUSH2 0xBD4 PUSH2 0x2B25 JUMP JUMPDEST PUSH2 0xBFF DUP5 DUP5 PUSH1 0x40 MLOAD DUP1 PUSH1 0x20 ADD PUSH1 0x40 MSTORE DUP1 PUSH1 0x0 DUP2 MSTORE POP PUSH1 0x40 MLOAD DUP1 PUSH1 0x20 ADD PUSH1 0x40 MSTORE DUP1 PUSH1 0x0 DUP2 MSTORE POP DUP7 PUSH2 0x8BD JUMP JUMPDEST SWAP1 POP SWAP4 SWAP3 POP POP POP JUMP JUMPDEST PUSH2 0xC10 PUSH2 0x2BC1 JUMP JUMPDEST PUSH2 0xC18 PUSH2 0x2BC1 JUMP JUMPDEST PUSH1 0x0 JUMPDEST PUSH1 0x8 DUP2 LT ISZERO PUSH2 0xC9F JUMPI PUSH1 0x4 DUP2 DUP2 PUSH2 0xC2E JUMPI INVALID JUMPDEST MOD PUSH1 0x3 SUB PUSH1 0x40 MUL PUSH1 0x2 EXP DUP5 DUP3 PUSH1 0x8 DUP2 LT PUSH2 0xC44 JUMPI INVALID JUMPDEST PUSH1 0x20 MUL ADD MLOAD PUSH8 0xFFFFFFFFFFFFFFFF AND MUL PUSH1 0x0 SHL DUP3 PUSH1 0x4 DUP4 DUP2 PUSH2 0xC62 JUMPI INVALID JUMPDEST DIV PUSH1 0x2 DUP2 LT PUSH2 0xC6D JUMPI INVALID JUMPDEST PUSH1 0x20 MUL ADD MLOAD XOR DUP3 PUSH1 0x4 DUP4 DUP2 PUSH2 0xC7E JUMPI INVALID JUMPDEST DIV PUSH1 0x2 DUP2 LT PUSH2 0xC89 JUMPI INVALID JUMPDEST PUSH1 0x20 MUL ADD DUP2 DUP2 MSTORE POP POP DUP1 DUP1 PUSH1 0x1 ADD SWAP2 POP POP PUSH2 0xC1B JUMP JUMPDEST POP DUP1 SWAP2 POP POP SWAP2 SWAP1 POP JUMP JUMPDEST PUSH1 0x0 DUP2 PUSH1 0x8 DUP2 LT PUSH2 0xCB6 JUMPI INVALID JUMPDEST PUSH1 0x4 SWAP2 DUP3 DUP3 DIV ADD SWAP2 SWAP1 MOD PUSH1 0x8 MUL SWAP2 POP SLOAD SWAP1 PUSH2 0x100 EXP SWAP1 DIV PUSH8 0xFFFFFFFFFFFFFFFF AND DUP2 JUMP JUMPDEST PUSH1 0x0 DUP8 DUP8 PUSH1 0x10 DUP2 LT PUSH2 0xCE8 JUMPI INVALID JUMPDEST PUSH1 0x20 MUL ADD MLOAD SWAP1 POP PUSH1 0x0 DUP9 DUP8 PUSH1 0x10 DUP2 LT PUSH2 0xCFD JUMPI INVALID JUMPDEST PUSH1 0x20 MUL ADD MLOAD SWAP1 POP PUSH1 0x0 DUP10 DUP8 PUSH1 0x10 DUP2 LT PUSH2 0xD12 JUMPI INVALID JUMPDEST PUSH1 0x20 MUL ADD MLOAD SWAP1 POP PUSH1 0x0 DUP11 DUP8 PUSH1 0x10 DUP2 LT PUSH2 0xD27 JUMPI INVALID JUMPDEST PUSH1 0x20 MUL ADD MLOAD SWAP1 POP PUSH9 0x10000000000000000 DUP7 DUP5 DUP7 ADD ADDMOD SWAP4 POP PUSH9 0x10000000000000000 PUSH5 0x100000000 DUP6 DUP4 XOR MULMOD PUSH5 0x100000000 DUP6 DUP4 XOR DIV XOR SWAP1 POP PUSH9 0x10000000000000000 DUP2 DUP4 ADDMOD SWAP2 POP PUSH9 0x10000000000000000 PUSH6 0x10000000000 DUP4 DUP6 XOR MULMOD PUSH4 0x1000000 DUP4 DUP6 XOR DIV XOR SWAP3 POP PUSH9 0x10000000000000000 DUP6 DUP5 DUP7 ADD ADDMOD SWAP4 POP PUSH9 0x10000000000000000 PUSH7 0x1000000000000 DUP6 DUP4 XOR MULMOD PUSH3 0x10000 DUP6 DUP4 XOR DIV XOR SWAP1 POP PUSH9 0x10000000000000000 DUP2 DUP4 ADDMOD SWAP2 POP PUSH9 0x10000000000000000 PUSH1 0x2 DUP4 DUP6 XOR MULMOD PUSH8 0x8000000000000000 DUP4 DUP6 XOR DIV XOR SWAP3 POP DUP4 DUP12 DUP12 PUSH1 0x10 DUP2 LT PUSH2 0xDFE JUMPI INVALID JUMPDEST PUSH1 0x20 MUL ADD SWAP1 PUSH8 0xFFFFFFFFFFFFFFFF AND SWAP1 DUP2 PUSH8 0xFFFFFFFFFFFFFFFF AND DUP2 MSTORE POP POP DUP3 DUP12 DUP11 PUSH1 0x10 DUP2 LT PUSH2 0xE2A JUMPI INVALID JUMPDEST PUSH1 0x20 MUL ADD SWAP1 PUSH8 0xFFFFFFFFFFFFFFFF AND SWAP1 DUP2 PUSH8 0xFFFFFFFFFFFFFFFF AND DUP2 MSTORE POP POP DUP2 DUP12 DUP10 PUSH1 0x10 DUP2 LT PUSH2 0xE56 JUMPI INVALID JUMPDEST PUSH1 0x20 MUL ADD SWAP1 PUSH8 0xFFFFFFFFFFFFFFFF AND SWAP1 DUP2 PUSH8 0xFFFFFFFFFFFFFFFF AND DUP2 MSTORE POP POP DUP1 DUP12 DUP9 PUSH1 0x10 DUP2 LT PUSH2 0xE82 JUMPI INVALID JUMPDEST PUSH1 0x20 MUL ADD SWAP1 PUSH8 0xFFFFFFFFFFFFFFFF AND SWAP1 DUP2 PUSH8 0xFFFFFFFFFFFFFFFF AND DUP2 MSTORE POP POP POP POP POP POP POP POP POP POP POP POP POP JUMP JUMPDEST PUSH1 0x0 DUP2 PUSH1 0x2 EXP DUP4 PUSH8 0xFFFFFFFFFFFFFFFF AND DUP2 PUSH2 0xEC6 JUMPI INVALID JUMPDEST DIV SWAP1 POP SWAP3 SWAP2 POP POP JUMP JUMPDEST PUSH1 0x0 DUP5 PUSH8 0xFFFFFFFFFFFFFFFF AND EQ DUP1 PUSH2 0xEF2 JUMPI POP PUSH1 0x40 DUP5 PUSH8 0xFFFFFFFFFFFFFFFF AND GT JUMPDEST DUP1 PUSH2 0xEFE JUMPI POP PUSH1 0x40 DUP4 MLOAD GT JUMPDEST ISZERO PUSH2 0xF54 JUMPI PUSH1 0x40 MLOAD PUSH32 0x8C379A000000000000000000000000000000000000000000000000000000000 DUP2 MSTORE PUSH1 0x4 ADD DUP1 DUP1 PUSH1 0x20 ADD DUP3 DUP2 SUB DUP3 MSTORE PUSH1 0x2E DUP2 MSTORE PUSH1 0x20 ADD DUP1 PUSH2 0x2C29 PUSH1 0x2E SWAP2 CODECOPY PUSH1 0x40 ADD SWAP2 POP POP PUSH1 0x40 MLOAD DUP1 SWAP2 SUB SWAP1 REVERT JUMPDEST PUSH1 0x0 JUMPDEST PUSH1 0x8 DUP2 LT ISZERO PUSH2 0xFC9 JUMPI PUSH1 0x0 DUP2 PUSH1 0x8 DUP2 LT PUSH2 0xF6D JUMPI INVALID JUMPDEST PUSH1 0x4 SWAP2 DUP3 DUP3 DIV ADD SWAP2 SWAP1 MOD PUSH1 0x8 MUL SWAP1 SLOAD SWAP1 PUSH2 0x100 EXP SWAP1 DIV PUSH8 0xFFFFFFFFFFFFFFFF AND DUP7 PUSH1 0x20 ADD MLOAD DUP3 PUSH1 0x8 DUP2 LT PUSH2 0xF9D JUMPI INVALID JUMPDEST PUSH1 0x20 MUL ADD SWAP1 PUSH8 0xFFFFFFFFFFFFFFFF AND SWAP1 DUP2 PUSH8 0xFFFFFFFFFFFFFFFF AND DUP2 MSTORE POP POP DUP1 DUP1 PUSH1 0x1 ADD SWAP2 POP POP PUSH2 0xF57 JUMP JUMPDEST POP DUP4 PUSH2 0xFD7 DUP5 MLOAD PUSH1 0x8 PUSH2 0xBA0 JUMP JUMPDEST PUSH4 0x1010000 DUP8 PUSH1 0x20 ADD MLOAD PUSH1 0x0 PUSH1 0x8 DUP2 LT PUSH2 0xFED JUMPI INVALID JUMPDEST PUSH1 0x20 MUL ADD MLOAD XOR XOR XOR DUP6 PUSH1 0x20 ADD MLOAD PUSH1 0x0 PUSH1 0x8 DUP2 LT PUSH2 0x1006 JUMPI INVALID JUMPDEST PUSH1 0x20 MUL ADD SWAP1 PUSH8 0xFFFFFFFFFFFFFFFF AND SWAP1 DUP2 PUSH8 0xFFFFFFFFFFFFFFFF AND DUP2 MSTORE POP POP DUP2 PUSH1 0x0 PUSH1 0x2 DUP2 LT PUSH2 0x1032 JUMPI INVALID JUMPDEST PUSH1 0x20 MUL ADD MLOAD DUP6 PUSH1 0x20 ADD MLOAD PUSH1 0x4 PUSH1 0x8 DUP2 LT PUSH2 0x1048 JUMPI INVALID JUMPDEST PUSH1 0x20 MUL ADD MLOAD XOR DUP6 PUSH1 0x20 ADD MLOAD PUSH1 0x4 PUSH1 0x8 DUP2 LT PUSH2 0x105F JUMPI INVALID JUMPDEST PUSH1 0x20 MUL ADD SWAP1 PUSH8 0xFFFFFFFFFFFFFFFF AND SWAP1 DUP2 PUSH8 0xFFFFFFFFFFFFFFFF AND DUP2 MSTORE POP POP DUP2 PUSH1 0x1 PUSH1 0x2 DUP2 LT PUSH2 0x108B JUMPI INVALID JUMPDEST PUSH1 0x20 MUL ADD MLOAD DUP6 PUSH1 0x20 ADD MLOAD PUSH1 0x5 PUSH1 0x8 DUP2 LT PUSH2 0x10A1 JUMPI INVALID JUMPDEST PUSH1 0x20 MUL ADD MLOAD XOR DUP6 PUSH1 0x20 ADD MLOAD PUSH1 0x5 PUSH1 0x8 DUP2 LT PUSH2 0x10B8 JUMPI INVALID JUMPDEST PUSH1 0x20 MUL ADD SWAP1 PUSH8 0xFFFFFFFFFFFFFFFF AND SWAP1 DUP2 PUSH8 0xFFFFFFFFFFFFFFFF AND DUP2 MSTORE POP POP DUP1 PUSH1 0x0 PUSH1 0x2 DUP2 LT PUSH2 0x10E4 JUMPI INVALID JUMPDEST PUSH1 0x20 MUL ADD MLOAD DUP6 PUSH1 0x20 ADD MLOAD PUSH1 0x6 PUSH1 0x8 DUP2 LT PUSH2 0x10FA JUMPI INVALID JUMPDEST PUSH1 0x20 MUL ADD MLOAD XOR DUP6 PUSH1 0x20 ADD MLOAD PUSH1 0x6 PUSH1 0x8 DUP2 LT PUSH2 0x1111 JUMPI INVALID JUMPDEST PUSH1 0x20 MUL ADD SWAP1 PUSH8 0xFFFFFFFFFFFFFFFF AND SWAP1 DUP2 PUSH8 0xFFFFFFFFFFFFFFFF AND DUP2 MSTORE POP POP DUP1 PUSH1 0x1 PUSH1 0x2 DUP2 LT PUSH2 0x113D JUMPI INVALID JUMPDEST PUSH1 0x20 MUL ADD MLOAD DUP6 PUSH1 0x20 ADD MLOAD PUSH1 0x7 PUSH1 0x8 DUP2 LT PUSH2 0x1153 JUMPI INVALID JUMPDEST PUSH1 0x20 MUL ADD MLOAD XOR DUP6 PUSH1 0x20 ADD MLOAD PUSH1 0x7 PUSH1 0x8 DUP2 LT PUSH2 0x116A JUMPI INVALID JUMPDEST PUSH1 0x20 MUL ADD SWAP1 PUSH8 0xFFFFFFFFFFFFFFFF AND SWAP1 DUP2 PUSH8 0xFFFFFFFFFFFFFFFF AND DUP2 MSTORE POP POP DUP4 PUSH8 0xFFFFFFFFFFFFFFFF AND DUP6 PUSH1 0x80 ADD DUP2 DUP2 MSTORE POP POP PUSH1 0x0 DUP4 MLOAD GT ISZERO PUSH2 0x11D3 JUMPI PUSH2 0x11B1 DUP6 DUP5 PUSH2 0x11DA JUMP JUMPDEST PUSH1 0x80 DUP6 PUSH1 0x60 ADD SWAP1 PUSH8 0xFFFFFFFFFFFFFFFF AND SWAP1 DUP2 PUSH8 0xFFFFFFFFFFFFFFFF AND DUP2 MSTORE POP POP JUMPDEST POP POP POP POP POP JUMP JUMPDEST PUSH1 0x0 JUMPDEST DUP2 MLOAD DUP2 LT ISZERO PUSH2 0x12E1 JUMPI PUSH1 0x80 DUP4 PUSH1 0x60 ADD MLOAD PUSH8 0xFFFFFFFFFFFFFFFF AND EQ ISZERO PUSH2 0x126E JUMPI DUP3 PUSH1 0x60 ADD MLOAD PUSH8 0xFFFFFFFFFFFFFFFF AND DUP4 PUSH1 0x40 ADD DUP2 DUP2 MLOAD ADD SWAP2 POP SWAP1 PUSH16 0xFFFFFFFFFFFFFFFFFFFFFFFFFFFFFFFF AND SWAP1 DUP2 PUSH16 0xFFFFFFFFFFFFFFFFFFFFFFFFFFFFFFFF AND DUP2 MSTORE POP POP PUSH2 0x124C DUP4 PUSH1 0x0 PUSH2 0x1437 JUMP JUMPDEST PUSH1 0x0 DUP4 PUSH1 0x60 ADD SWAP1 PUSH8 0xFFFFFFFFFFFFFFFF AND SWAP1 DUP2 PUSH8 0xFFFFFFFFFFFFFFFF AND DUP2 MSTORE POP POP JUMPDEST PUSH1 0x0 DUP4 PUSH1 0x60 ADD DUP1 MLOAD DUP1 SWAP2 SWAP1 PUSH1 0x1 ADD PUSH8 0xFFFFFFFFFFFFFFFF AND PUSH8 0xFFFFFFFFFFFFFFFF AND DUP2 MSTORE POP PUSH8 0xFFFFFFFFFFFFFFFF AND SWAP1 POP PUSH2 0x12A7 PUSH2 0x2BE3 JUMP JUMPDEST DUP5 PUSH1 0x0 ADD MLOAD SWAP1 POP PUSH1 0x0 DUP5 DUP5 DUP2 MLOAD DUP2 LT PUSH2 0x12BC JUMPI INVALID JUMPDEST PUSH1 0x20 ADD ADD MLOAD PUSH1 0xF8 SHR PUSH1 0xF8 SHL PUSH1 0xF8 SHR SWAP1 POP DUP1 DUP4 DUP4 ADD MSTORE8 POP POP POP DUP1 DUP1 PUSH1 0x1 ADD SWAP2 POP POP PUSH2 0x11DD JUMP JUMPDEST POP POP POP JUMP JUMPDEST DUP2 PUSH1 0x60 ADD MLOAD PUSH8 0xFFFFFFFFFFFFFFFF AND DUP3 PUSH1 0x40 ADD DUP2 DUP2 MLOAD ADD SWAP2 POP SWAP1 PUSH16 0xFFFFFFFFFFFFFFFFFFFFFFFFFFFFFFFF AND SWAP1 DUP2 PUSH16 0xFFFFFFFFFFFFFFFFFFFFFFFFFFFFFFFF AND DUP2 MSTORE POP POP PUSH2 0x1335 DUP3 PUSH1 0x1 PUSH2 0x1437 JUMP JUMPDEST PUSH1 0x0 JUMPDEST PUSH1 0x8 DUP4 PUSH1 0x80 ADD MLOAD DUP2 PUSH2 0x1346 JUMPI INVALID JUMPDEST DIV DUP2 LT ISZERO PUSH2 0x13A3 JUMPI PUSH2 0x136B DUP4 PUSH1 0x20 ADD MLOAD DUP3 PUSH1 0x8 DUP2 LT PUSH2 0x1361 JUMPI INVALID JUMPDEST PUSH1 0x20 MUL ADD MLOAD PUSH2 0x973 JUMP JUMPDEST DUP3 DUP3 PUSH1 0x8 DUP2 LT PUSH2 0x1377 JUMPI INVALID JUMPDEST PUSH1 0x20 MUL ADD SWAP1 PUSH8 0xFFFFFFFFFFFFFFFF AND SWAP1 DUP2 PUSH8 0xFFFFFFFFFFFFFFFF AND DUP2 MSTORE POP POP DUP1 DUP1 PUSH1 0x1 ADD SWAP2 POP POP PUSH2 0x1338 JUMP JUMPDEST POP PUSH1 0x40 DUP3 PUSH1 0x80 ADD MLOAD LT ISZERO PUSH2 0x1433 JUMPI PUSH2 0x13F9 PUSH2 0x13DF DUP4 PUSH1 0x20 ADD MLOAD PUSH1 0x8 DUP6 PUSH1 0x80 ADD MLOAD DUP2 PUSH2 0x13CA JUMPI INVALID JUMPDEST DIV PUSH1 0x8 DUP2 LT PUSH2 0x13D5 JUMPI INVALID JUMPDEST PUSH1 0x20 MUL ADD MLOAD PUSH2 0x973 JUMP JUMPDEST PUSH1 0x8 DUP5 PUSH1 0x80 ADD MLOAD DUP2 PUSH2 0x13ED JUMPI INVALID JUMPDEST MOD PUSH1 0x8 MUL PUSH1 0x40 SUB PUSH2 0xEAE JUMP JUMPDEST DUP2 PUSH1 0x8 DUP5 PUSH1 0x80 ADD MLOAD DUP2 PUSH2 0x1408 JUMPI INVALID JUMPDEST DIV PUSH1 0x8 DUP2 LT PUSH2 0x1413 JUMPI INVALID JUMPDEST PUSH1 0x20 MUL ADD SWAP1 PUSH8 0xFFFFFFFFFFFFFFFF AND SWAP1 DUP2 PUSH8 0xFFFFFFFFFFFFFFFF AND DUP2 MSTORE POP POP JUMPDEST POP POP JUMP JUMPDEST PUSH2 0x143F PUSH2 0x2C05 JUMP JUMPDEST PUSH2 0x1447 PUSH2 0x2C05 JUMP JUMPDEST PUSH1 0x0 JUMPDEST PUSH1 0x8 DUP2 LT ISZERO PUSH2 0x14FB JUMPI DUP5 PUSH1 0x20 ADD MLOAD DUP2 PUSH1 0x8 DUP2 LT PUSH2 0x1463 JUMPI INVALID JUMPDEST PUSH1 0x20 MUL ADD MLOAD DUP4 DUP3 PUSH1 0x10 DUP2 LT PUSH2 0x1474 JUMPI INVALID JUMPDEST PUSH1 0x20 MUL ADD SWAP1 PUSH8 0xFFFFFFFFFFFFFFFF AND SWAP1 DUP2 PUSH8 0xFFFFFFFFFFFFFFFF AND DUP2 MSTORE POP POP PUSH1 0x0 DUP2 PUSH1 0x8 DUP2 LT PUSH2 0x14A0 JUMPI INVALID JUMPDEST PUSH1 0x4 SWAP2 DUP3 DUP3 DIV ADD SWAP2 SWAP1 MOD PUSH1 0x8 MUL SWAP1 SLOAD SWAP1 PUSH2 0x100 EXP SWAP1 DIV PUSH8 0xFFFFFFFFFFFFFFFF AND DUP4 PUSH1 0x8 DUP4 ADD PUSH1 0x10 DUP2 LT PUSH2 0x14CF JUMPI INVALID JUMPDEST PUSH1 0x20 MUL ADD SWAP1 PUSH8 0xFFFFFFFFFFFFFFFF AND SWAP1 DUP2 PUSH8 0xFFFFFFFFFFFFFFFF AND DUP2 MSTORE POP POP DUP1 DUP1 PUSH1 0x1 ADD SWAP2 POP POP PUSH2 0x144A JUMP JUMPDEST POP PUSH9 0x10000000000000000 DUP5 PUSH1 0x40 ADD MLOAD PUSH16 0xFFFFFFFFFFFFFFFFFFFFFFFFFFFFFFFF AND DUP2 PUSH2 0x1524 JUMPI INVALID JUMPDEST MOD DUP3 PUSH1 0xC PUSH1 0x10 DUP2 LT PUSH2 0x1532 JUMPI INVALID JUMPDEST PUSH1 0x20 MUL ADD MLOAD XOR DUP3 PUSH1 0xC PUSH1 0x10 DUP2 LT PUSH2 0x1545 JUMPI INVALID JUMPDEST PUSH1 0x20 MUL ADD SWAP1 PUSH8 0xFFFFFFFFFFFFFFFF AND SWAP1 DUP2 PUSH8 0xFFFFFFFFFFFFFFFF AND DUP2 MSTORE POP POP PUSH9 0x10000000000000000 DUP5 PUSH1 0x40 ADD MLOAD PUSH16 0xFFFFFFFFFFFFFFFFFFFFFFFFFFFFFFFF AND DUP2 PUSH2 0x158C JUMPI INVALID JUMPDEST DIV DUP3 PUSH1 0xD PUSH1 0x10 DUP2 LT PUSH2 0x159A JUMPI INVALID JUMPDEST PUSH1 0x20 MUL ADD MLOAD XOR DUP3 PUSH1 0xD PUSH1 0x10 DUP2 LT PUSH2 0x15AD JUMPI INVALID JUMPDEST PUSH1 0x20 MUL ADD SWAP1 PUSH8 0xFFFFFFFFFFFFFFFF AND SWAP1 DUP2 PUSH8 0xFFFFFFFFFFFFFFFF AND DUP2 MSTORE POP POP DUP3 ISZERO PUSH2 0x1612 JUMPI DUP2 PUSH1 0xE PUSH1 0x10 DUP2 LT PUSH2 0x15DF JUMPI INVALID JUMPDEST PUSH1 0x20 MUL ADD MLOAD NOT DUP3 PUSH1 0xE PUSH1 0x10 DUP2 LT PUSH2 0x15F2 JUMPI INVALID JUMPDEST PUSH1 0x20 MUL ADD SWAP1 PUSH8 0xFFFFFFFFFFFFFFFF AND SWAP1 DUP2 PUSH8 0xFFFFFFFFFFFFFFFF AND DUP2 MSTORE POP POP JUMPDEST PUSH1 0x0 DUP1 PUSH1 0x0 JUMPDEST PUSH1 0x10 DUP2 LT ISZERO PUSH2 0x16B9 JUMPI PUSH1 0x0 PUSH1 0x4 DUP3 DUP2 PUSH2 0x162D JUMPI INVALID JUMPDEST MOD SWAP1 POP PUSH1 0x0 SWAP4 POP PUSH1 0x0 DUP2 EQ ISZERO PUSH2 0x165F JUMPI DUP8 PUSH1 0x0 ADD MLOAD PUSH1 0x4 DUP4 DUP2 PUSH2 0x164C JUMPI INVALID JUMPDEST DIV PUSH1 0x4 DUP2 LT PUSH2 0x1657 JUMPI INVALID JUMPDEST PUSH1 0x20 MUL ADD MLOAD SWAP3 POP JUMPDEST PUSH8 0xFFFFFFFFFFFFFFFF DUP2 PUSH1 0x3 SUB PUSH1 0x40 MUL PUSH1 0x2 EXP DUP5 DIV AND SWAP4 POP PUSH2 0x1680 DUP5 PUSH2 0x973 JUMP JUMPDEST DUP6 DUP4 PUSH1 0x10 DUP2 LT PUSH2 0x168C JUMPI INVALID JUMPDEST PUSH1 0x20 MUL ADD SWAP1 PUSH8 0xFFFFFFFFFFFFFFFF AND SWAP1 DUP2 PUSH8 0xFFFFFFFFFFFFFFFF AND DUP2 MSTORE POP POP POP DUP1 DUP1 PUSH1 0x1 ADD SWAP2 POP POP PUSH2 0x1618 JUMP JUMPDEST POP PUSH2 0x16EF DUP5 PUSH1 0x0 PUSH1 0x4 PUSH1 0x8 PUSH1 0xC DUP9 PUSH1 0x0 PUSH1 0x10 DUP2 LT PUSH2 0x16D3 JUMPI INVALID JUMPDEST PUSH1 0x20 MUL ADD MLOAD DUP10 PUSH1 0x1 PUSH1 0x10 DUP2 LT PUSH2 0x16E5 JUMPI INVALID JUMPDEST PUSH1 0x20 MUL ADD MLOAD PUSH2 0xCDA JUMP JUMPDEST PUSH2 0x1724 DUP5 PUSH1 0x1 PUSH1 0x5 PUSH1 0x9 PUSH1 0xD DUP9 PUSH1 0x2 PUSH1 0x10 DUP2 LT PUSH2 0x1708 JUMPI INVALID JUMPDEST PUSH1 0x20 MUL ADD MLOAD DUP10 PUSH1 0x3 PUSH1 0x10 DUP2 LT PUSH2 0x171A JUMPI INVALID JUMPDEST PUSH1 0x20 MUL ADD MLOAD PUSH2 0xCDA JUMP JUMPDEST PUSH2 0x1759 DUP5 PUSH1 0x2 PUSH1 0x6 PUSH1 0xA PUSH1 0xE DUP9 PUSH1 0x4 PUSH1 0x10 DUP2 LT PUSH2 0x173D JUMPI INVALID JUMPDEST PUSH1 0x20 MUL ADD MLOAD DUP10 PUSH1 0x5 PUSH1 0x10 DUP2 LT PUSH2 0x174F JUMPI INVALID JUMPDEST PUSH1 0x20 MUL ADD MLOAD PUSH2 0xCDA JUMP JUMPDEST PUSH2 0x178E DUP5 PUSH1 0x3 PUSH1 0x7 PUSH1 0xB PUSH1 0xF DUP9 PUSH1 0x6 PUSH1 0x10 DUP2 LT PUSH2 0x1772 JUMPI INVALID JUMPDEST PUSH1 0x20 MUL ADD MLOAD DUP10 PUSH1 0x7 PUSH1 0x10 DUP2 LT PUSH2 0x1784 JUMPI INVALID JUMPDEST PUSH1 0x20 MUL ADD MLOAD PUSH2 0xCDA JUMP JUMPDEST PUSH2 0x17C3 DUP5 PUSH1 0x0 PUSH1 0x5 PUSH1 0xA PUSH1 0xF DUP9 PUSH1 0x8 PUSH1 0x10 DUP2 LT PUSH2 0x17A7 JUMPI INVALID JUMPDEST PUSH1 0x20 MUL ADD MLOAD DUP10 PUSH1 0x9 PUSH1 0x10 DUP2 LT PUSH2 0x17B9 JUMPI INVALID JUMPDEST PUSH1 0x20 MUL ADD MLOAD PUSH2 0xCDA JUMP JUMPDEST PUSH2 0x17F8 DUP5 PUSH1 0x1 PUSH1 0x6 PUSH1 0xB PUSH1 0xC DUP9 PUSH1 0xA PUSH1 0x10 DUP2 LT PUSH2 0x17DC JUMPI INVALID JUMPDEST PUSH1 0x20 MUL ADD MLOAD DUP10 PUSH1 0xB PUSH1 0x10 DUP2 LT PUSH2 0x17EE JUMPI INVALID JUMPDEST PUSH1 0x20 MUL ADD MLOAD PUSH2 0xCDA JUMP JUMPDEST PUSH2 0x182D DUP5 PUSH1 0x2 PUSH1 0x7 PUSH1 0x8 PUSH1 0xD DUP9 PUSH1 0xC PUSH1 0x10 DUP2 LT PUSH2 0x1811 JUMPI INVALID JUMPDEST PUSH1 0x20 MUL ADD MLOAD DUP10 PUSH1 0xD PUSH1 0x10 DUP2 LT PUSH2 0x1823 JUMPI INVALID JUMPDEST PUSH1 0x20 MUL ADD MLOAD PUSH2 0xCDA JUMP JUMPDEST PUSH2 0x1862 DUP5 PUSH1 0x3 PUSH1 0x4 PUSH1 0x9 PUSH1 0xE DUP9 PUSH1 0xE PUSH1 0x10 DUP2 LT PUSH2 0x1846 JUMPI INVALID JUMPDEST PUSH1 0x20 MUL ADD MLOAD DUP10 PUSH1 0xF PUSH1 0x10 DUP2 LT PUSH2 0x1858 JUMPI INVALID JUMPDEST PUSH1 0x20 MUL ADD MLOAD PUSH2 0xCDA JUMP JUMPDEST PUSH2 0x1897 DUP5 PUSH1 0x0 PUSH1 0x4 PUSH1 0x8 PUSH1 0xC DUP9 PUSH1 0xE PUSH1 0x10 DUP2 LT PUSH2 0x187B JUMPI INVALID JUMPDEST PUSH1 0x20 MUL ADD MLOAD DUP10 PUSH1 0xA PUSH1 0x10 DUP2 LT PUSH2 0x188D JUMPI INVALID JUMPDEST PUSH1 0x20 MUL ADD MLOAD PUSH2 0xCDA JUMP JUMPDEST PUSH2 0x18CC DUP5 PUSH1 0x1 PUSH1 0x5 PUSH1 0x9 PUSH1 0xD DUP9 PUSH1 0x4 PUSH1 0x10 DUP2 LT PUSH2 0x18B0 JUMPI INVALID JUMPDEST PUSH1 0x20 MUL ADD MLOAD DUP10 PUSH1 0x8 PUSH1 0x10 DUP2 LT PUSH2 0x18C2 JUMPI INVALID JUMPDEST PUSH1 0x20 MUL ADD MLOAD PUSH2 0xCDA JUMP JUMPDEST PUSH2 0x1901 DUP5 PUSH1 0x2 PUSH1 0x6 PUSH1 0xA PUSH1 0xE DUP9 PUSH1 0x9 PUSH1 0x10 DUP2 LT PUSH2 0x18E5 JUMPI INVALID JUMPDEST PUSH1 0x20 MUL ADD MLOAD DUP10 PUSH1 0xF PUSH1 0x10 DUP2 LT PUSH2 0x18F7 JUMPI INVALID JUMPDEST PUSH1 0x20 MUL ADD MLOAD PUSH2 0xCDA JUMP JUMPDEST PUSH2 0x1936 DUP5 PUSH1 0x3 PUSH1 0x7 PUSH1 0xB PUSH1 0xF DUP9 PUSH1 0xD PUSH1 0x10 DUP2 LT PUSH2 0x191A JUMPI INVALID JUMPDEST PUSH1 0x20 MUL ADD MLOAD DUP10 PUSH1 0x6 PUSH1 0x10 DUP2 LT PUSH2 0x192C JUMPI INVALID JUMPDEST PUSH1 0x20 MUL ADD MLOAD PUSH2 0xCDA JUMP JUMPDEST PUSH2 0x196B DUP5 PUSH1 0x0 PUSH1 0x5 PUSH1 0xA PUSH1 0xF DUP9 PUSH1 0x1 PUSH1 0x10 DUP2 LT PUSH2 0x194F JUMPI INVALID JUMPDEST PUSH1 0x20 MUL ADD MLOAD DUP10 PUSH1 0xC PUSH1 0x10 DUP2 LT PUSH2 0x1961 JUMPI INVALID JUMPDEST PUSH1 0x20 MUL ADD MLOAD PUSH2 0xCDA JUMP JUMPDEST PUSH2 0x19A0 DUP5 PUSH1 0x1 PUSH1 0x6 PUSH1 0xB PUSH1 0xC DUP9 PUSH1 0x0 PUSH1 0x10 DUP2 LT PUSH2 0x1984 JUMPI INVALID JUMPDEST PUSH1 0x20 MUL ADD MLOAD DUP10 PUSH1 0x2 PUSH1 0x10 DUP2 LT PUSH2 0x1996 JUMPI INVALID JUMPDEST PUSH1 0x20 MUL ADD MLOAD PUSH2 0xCDA JUMP JUMPDEST PUSH2 0x19D5 DUP5 PUSH1 0x2 PUSH1 0x7 PUSH1 0x8 PUSH1 0xD DUP9 PUSH1 0xB PUSH1 0x10 DUP2 LT PUSH2 0x19B9 JUMPI INVALID JUMPDEST PUSH1 0x20 MUL ADD MLOAD DUP10 PUSH1 0x7 PUSH1 0x10 DUP2 LT PUSH2 0x19CB JUMPI INVALID JUMPDEST PUSH1 0x20 MUL ADD MLOAD PUSH2 0xCDA JUMP JUMPDEST PUSH2 0x1A0A DUP5 PUSH1 0x3 PUSH1 0x4 PUSH1 0x9 PUSH1 0xE DUP9 PUSH1 0x5 PUSH1 0x10 DUP2 LT PUSH2 0x19EE JUMPI INVALID JUMPDEST PUSH1 0x20 MUL ADD MLOAD DUP10 PUSH1 0x3 PUSH1 0x10 DUP2 LT PUSH2 0x1A00 JUMPI INVALID JUMPDEST PUSH1 0x20 MUL ADD MLOAD PUSH2 0xCDA JUMP JUMPDEST PUSH2 0x1A3F DUP5 PUSH1 0x0 PUSH1 0x4 PUSH1 0x8 PUSH1 0xC DUP9 PUSH1 0xB PUSH1 0x10 DUP2 LT PUSH2 0x1A23 JUMPI INVALID JUMPDEST PUSH1 0x20 MUL ADD MLOAD DUP10 PUSH1 0x8 PUSH1 0x10 DUP2 LT PUSH2 0x1A35 JUMPI INVALID JUMPDEST PUSH1 0x20 MUL ADD MLOAD PUSH2 0xCDA JUMP JUMPDEST PUSH2 0x1A74 DUP5 PUSH1 0x1 PUSH1 0x5 PUSH1 0x9 PUSH1 0xD DUP9 PUSH1 0xC PUSH1 0x10 DUP2 LT PUSH2 0x1A58 JUMPI INVALID JUMPDEST PUSH1 0x20 MUL ADD MLOAD DUP10 PUSH1 0x0 PUSH1 0x10 DUP2 LT PUSH2 0x1A6A JUMPI INVALID JUMPDEST PUSH1 0x20 MUL ADD MLOAD PUSH2 0xCDA JUMP JUMPDEST PUSH2 0x1AA9 DUP5 PUSH1 0x2 PUSH1 0x6 PUSH1 0xA PUSH1 0xE DUP9 PUSH1 0x5 PUSH1 0x10 DUP2 LT PUSH2 0x1A8D JUMPI INVALID JUMPDEST PUSH1 0x20 MUL ADD MLOAD DUP10 PUSH1 0x2 PUSH1 0x10 DUP2 LT PUSH2 0x1A9F JUMPI INVALID JUMPDEST PUSH1 0x20 MUL ADD MLOAD PUSH2 0xCDA JUMP JUMPDEST PUSH2 0x1ADE DUP5 PUSH1 0x3 PUSH1 0x7 PUSH1 0xB PUSH1 0xF DUP9 PUSH1 0xF PUSH1 0x10 DUP2 LT PUSH2 0x1AC2 JUMPI INVALID JUMPDEST PUSH1 0x20 MUL ADD MLOAD DUP10 PUSH1 0xD PUSH1 0x10 DUP2 LT PUSH2 0x1AD4 JUMPI INVALID JUMPDEST PUSH1 0x20 MUL ADD MLOAD PUSH2 0xCDA JUMP JUMPDEST PUSH2 0x1B13 DUP5 PUSH1 0x0 PUSH1 0x5 PUSH1 0xA PUSH1 0xF DUP9 PUSH1 0xA PUSH1 0x10 DUP2 LT PUSH2 0x1AF7 JUMPI INVALID JUMPDEST PUSH1 0x20 MUL ADD MLOAD DUP10 PUSH1 0xE PUSH1 0x10 DUP2 LT PUSH2 0x1B09 JUMPI INVALID JUMPDEST PUSH1 0x20 MUL ADD MLOAD PUSH2 0xCDA JUMP JUMPDEST PUSH2 0x1B48 DUP5 PUSH1 0x1 PUSH1 0x6 PUSH1 0xB PUSH1 0xC DUP9 PUSH1 0x3 PUSH1 0x10 DUP2 LT PUSH2 0x1B2C JUMPI INVALID JUMPDEST PUSH1 0x20 MUL ADD MLOAD DUP10 PUSH1 0x6 PUSH1 0x10 DUP2 LT PUSH2 0x1B3E JUMPI INVALID JUMPDEST PUSH1 0x20 MUL ADD MLOAD PUSH2 0xCDA JUMP JUMPDEST PUSH2 0x1B7D DUP5 PUSH1 0x2 PUSH1 0x7 PUSH1 0x8 PUSH1 0xD DUP9 PUSH1 0x7 PUSH1 0x10 DUP2 LT PUSH2 0x1B61 JUMPI INVALID JUMPDEST PUSH1 0x20 MUL ADD MLOAD DUP10 PUSH1 0x1 PUSH1 0x10 DUP2 LT PUSH2 0x1B73 JUMPI INVALID JUMPDEST PUSH1 0x20 MUL ADD MLOAD PUSH2 0xCDA JUMP JUMPDEST PUSH2 0x1BB2 DUP5 PUSH1 0x3 PUSH1 0x4 PUSH1 0x9 PUSH1 0xE DUP9 PUSH1 0x9 PUSH1 0x10 DUP2 LT PUSH2 0x1B96 JUMPI INVALID JUMPDEST PUSH1 0x20 MUL ADD MLOAD DUP10 PUSH1 0x4 PUSH1 0x10 DUP2 LT PUSH2 0x1BA8 JUMPI INVALID JUMPDEST PUSH1 0x20 MUL ADD MLOAD PUSH2 0xCDA JUMP JUMPDEST PUSH2 0x1BE7 DUP5 PUSH1 0x0 PUSH1 0x4 PUSH1 0x8 PUSH1 0xC DUP9 PUSH1 0x7 PUSH1 0x10 DUP2 LT PUSH2 0x1BCB JUMPI INVALID JUMPDEST PUSH1 0x20 MUL ADD MLOAD DUP10 PUSH1 0x9 PUSH1 0x10 DUP2 LT PUSH2 0x1BDD JUMPI INVALID JUMPDEST PUSH1 0x20 MUL ADD MLOAD PUSH2 0xCDA JUMP JUMPDEST PUSH2 0x1C1C DUP5 PUSH1 0x1 PUSH1 0x5 PUSH1 0x9 PUSH1 0xD DUP9 PUSH1 0x3 PUSH1 0x10 DUP2 LT PUSH2 0x1C00 JUMPI INVALID JUMPDEST PUSH1 0x20 MUL ADD MLOAD DUP10 PUSH1 0x1 PUSH1 0x10 DUP2 LT PUSH2 0x1C12 JUMPI INVALID JUMPDEST PUSH1 0x20 MUL ADD MLOAD PUSH2 0xCDA JUMP JUMPDEST PUSH2 0x1C51 DUP5 PUSH1 0x2 PUSH1 0x6 PUSH1 0xA PUSH1 0xE DUP9 PUSH1 0xD PUSH1 0x10 DUP2 LT PUSH2 0x1C35 JUMPI INVALID JUMPDEST PUSH1 0x20 MUL ADD MLOAD DUP10 PUSH1 0xC PUSH1 0x10 DUP2 LT PUSH2 0x1C47 JUMPI INVALID JUMPDEST PUSH1 0x20 MUL ADD MLOAD PUSH2 0xCDA JUMP JUMPDEST PUSH2 0x1C86 DUP5 PUSH1 0x3 PUSH1 0x7 PUSH1 0xB PUSH1 0xF DUP9 PUSH1 0xB PUSH1 0x10 DUP2 LT PUSH2 0x1C6A JUMPI INVALID JUMPDEST PUSH1 0x20 MUL ADD MLOAD DUP10 PUSH1 0xE PUSH1 0x10 DUP2 LT PUSH2 0x1C7C JUMPI INVALID JUMPDEST PUSH1 0x20 MUL ADD MLOAD PUSH2 0xCDA JUMP JUMPDEST PUSH2 0x1CBB DUP5 PUSH1 0x0 PUSH1 0x5 PUSH1 0xA PUSH1 0xF DUP9 PUSH1 0x2 PUSH1 0x10 DUP2 LT PUSH2 0x1C9F JUMPI INVALID JUMPDEST PUSH1 0x20 MUL ADD MLOAD DUP10 PUSH1 0x6 PUSH1 0x10 DUP2 LT PUSH2 0x1CB1 JUMPI INVALID JUMPDEST PUSH1 0x20 MUL ADD MLOAD PUSH2 0xCDA JUMP JUMPDEST PUSH2 0x1CF0 DUP5 PUSH1 0x1 PUSH1 0x6 PUSH1 0xB PUSH1 0xC DUP9 PUSH1 0x5 PUSH1 0x10 DUP2 LT PUSH2 0x1CD4 JUMPI INVALID JUMPDEST PUSH1 0x20 MUL ADD MLOAD DUP10 PUSH1 0xA PUSH1 0x10 DUP2 LT PUSH2 0x1CE6 JUMPI INVALID JUMPDEST PUSH1 0x20 MUL ADD MLOAD PUSH2 0xCDA JUMP JUMPDEST PUSH2 0x1D25 DUP5 PUSH1 0x2 PUSH1 0x7 PUSH1 0x8 PUSH1 0xD DUP9 PUSH1 0x4 PUSH1 0x10 DUP2 LT PUSH2 0x1D09 JUMPI INVALID JUMPDEST PUSH1 0x20 MUL ADD MLOAD DUP10 PUSH1 0x0 PUSH1 0x10 DUP2 LT PUSH2 0x1D1B JUMPI INVALID JUMPDEST PUSH1 0x20 MUL ADD MLOAD PUSH2 0xCDA JUMP JUMPDEST PUSH2 0x1D5A DUP5 PUSH1 0x3 PUSH1 0x4 PUSH1 0x9 PUSH1 0xE DUP9 PUSH1 0xF PUSH1 0x10 DUP2 LT PUSH2 0x1D3E JUMPI INVALID JUMPDEST PUSH1 0x20 MUL ADD MLOAD DUP10 PUSH1 0x8 PUSH1 0x10 DUP2 LT PUSH2 0x1D50 JUMPI INVALID JUMPDEST PUSH1 0x20 MUL ADD MLOAD PUSH2 0xCDA JUMP JUMPDEST PUSH2 0x1D8F DUP5 PUSH1 0x0 PUSH1 0x4 PUSH1 0x8 PUSH1 0xC DUP9 PUSH1 0x9 PUSH1 0x10 DUP2 LT PUSH2 0x1D73 JUMPI INVALID JUMPDEST PUSH1 0x20 MUL ADD MLOAD DUP10 PUSH1 0x0 PUSH1 0x10 DUP2 LT PUSH2 0x1D85 JUMPI INVALID JUMPDEST PUSH1 0x20 MUL ADD MLOAD PUSH2 0xCDA JUMP JUMPDEST PUSH2 0x1DC4 DUP5 PUSH1 0x1 PUSH1 0x5 PUSH1 0x9 PUSH1 0xD DUP9 PUSH1 0x5 PUSH1 0x10 DUP2 LT PUSH2 0x1DA8 JUMPI INVALID JUMPDEST PUSH1 0x20 MUL ADD MLOAD DUP10 PUSH1 0x7 PUSH1 0x10 DUP2 LT PUSH2 0x1DBA JUMPI INVALID JUMPDEST PUSH1 0x20 MUL ADD MLOAD PUSH2 0xCDA JUMP JUMPDEST PUSH2 0x1DF9 DUP5 PUSH1 0x2 PUSH1 0x6 PUSH1 0xA PUSH1 0xE DUP9 PUSH1 0x2 PUSH1 0x10 DUP2 LT PUSH2 0x1DDD JUMPI INVALID JUMPDEST PUSH1 0x20 MUL ADD MLOAD DUP10 PUSH1 0x4 PUSH1 0x10 DUP2 LT PUSH2 0x1DEF JUMPI INVALID JUMPDEST PUSH1 0x20 MUL ADD MLOAD PUSH2 0xCDA JUMP JUMPDEST PUSH2 0x1E2E DUP5 PUSH1 0x3 PUSH1 0x7 PUSH1 0xB PUSH1 0xF DUP9 PUSH1 0xA PUSH1 0x10 DUP2 LT PUSH2 0x1E12 JUMPI INVALID JUMPDEST PUSH1 0x20 MUL ADD MLOAD DUP10 PUSH1 0xF PUSH1 0x10 DUP2 LT PUSH2 0x1E24 JUMPI INVALID JUMPDEST PUSH1 0x20 MUL ADD MLOAD PUSH2 0xCDA JUMP JUMPDEST PUSH2 0x1E63 DUP5 PUSH1 0x0 PUSH1 0x5 PUSH1 0xA PUSH1 0xF DUP9 PUSH1 0xE PUSH1 0x10 DUP2 LT PUSH2 0x1E47 JUMPI INVALID JUMPDEST PUSH1 0x20 MUL ADD MLOAD DUP10 PUSH1 0x1 PUSH1 0x10 DUP2 LT PUSH2 0x1E59 JUMPI INVALID JUMPDEST PUSH1 0x20 MUL ADD MLOAD PUSH2 0xCDA JUMP JUMPDEST PUSH2 0x1E98 DUP5 PUSH1 0x1 PUSH1 0x6 PUSH1 0xB PUSH1 0xC DUP9 PUSH1 0xB PUSH1 0x10 DUP2 LT PUSH2 0x1E7C JUMPI INVALID JUMPDEST PUSH1 0x20 MUL ADD MLOAD DUP10 PUSH1 0xC PUSH1 0x10 DUP2 LT PUSH2 0x1E8E JUMPI INVALID JUMPDEST PUSH1 0x20 MUL ADD MLOAD PUSH2 0xCDA JUMP JUMPDEST PUSH2 0x1ECD DUP5 PUSH1 0x2 PUSH1 0x7 PUSH1 0x8 PUSH1 0xD DUP9 PUSH1 0x6 PUSH1 0x10 DUP2 LT PUSH2 0x1EB1 JUMPI INVALID JUMPDEST PUSH1 0x20 MUL ADD MLOAD DUP10 PUSH1 0x8 PUSH1 0x10 DUP2 LT PUSH2 0x1EC3 JUMPI INVALID JUMPDEST PUSH1 0x20 MUL ADD MLOAD PUSH2 0xCDA JUMP JUMPDEST PUSH2 0x1F02 DUP5 PUSH1 0x3 PUSH1 0x4 PUSH1 0x9 PUSH1 0xE DUP9 PUSH1 0x3 PUSH1 0x10 DUP2 LT PUSH2 0x1EE6 JUMPI INVALID JUMPDEST PUSH1 0x20 MUL ADD MLOAD DUP10 PUSH1 0xD PUSH1 0x10 DUP2 LT PUSH2 0x1EF8 JUMPI INVALID JUMPDEST PUSH1 0x20 MUL ADD MLOAD PUSH2 0xCDA JUMP JUMPDEST PUSH2 0x1F37 DUP5 PUSH1 0x0 PUSH1 0x4 PUSH1 0x8 PUSH1 0xC DUP9 PUSH1 0x2 PUSH1 0x10 DUP2 LT PUSH2 0x1F1B JUMPI INVALID JUMPDEST PUSH1 0x20 MUL ADD MLOAD DUP10 PUSH1 0xC PUSH1 0x10 DUP2 LT PUSH2 0x1F2D JUMPI INVALID JUMPDEST PUSH1 0x20 MUL ADD MLOAD PUSH2 0xCDA JUMP JUMPDEST PUSH2 0x1F6C DUP5 PUSH1 0x1 PUSH1 0x5 PUSH1 0x9 PUSH1 0xD DUP9 PUSH1 0x6 PUSH1 0x10 DUP2 LT PUSH2 0x1F50 JUMPI INVALID JUMPDEST PUSH1 0x20 MUL ADD MLOAD DUP10 PUSH1 0xA PUSH1 0x10 DUP2 LT PUSH2 0x1F62 JUMPI INVALID JUMPDEST PUSH1 0x20 MUL ADD MLOAD PUSH2 0xCDA JUMP JUMPDEST PUSH2 0x1FA1 DUP5 PUSH1 0x2 PUSH1 0x6 PUSH1 0xA PUSH1 0xE DUP9 PUSH1 0x0 PUSH1 0x10 DUP2 LT PUSH2 0x1F85 JUMPI INVALID JUMPDEST PUSH1 0x20 MUL ADD MLOAD DUP10 PUSH1 0xB PUSH1 0x10 DUP2 LT PUSH2 0x1F97 JUMPI INVALID JUMPDEST PUSH1 0x20 MUL ADD MLOAD PUSH2 0xCDA JUMP JUMPDEST PUSH2 0x1FD6 DUP5 PUSH1 0x3 PUSH1 0x7 PUSH1 0xB PUSH1 0xF DUP9 PUSH1 0x8 PUSH1 0x10 DUP2 LT PUSH2 0x1FBA JUMPI INVALID JUMPDEST PUSH1 0x20 MUL ADD MLOAD DUP10 PUSH1 0x3 PUSH1 0x10 DUP2 LT PUSH2 0x1FCC JUMPI INVALID JUMPDEST PUSH1 0x20 MUL ADD MLOAD PUSH2 0xCDA JUMP JUMPDEST PUSH2 0x200B DUP5 PUSH1 0x0 PUSH1 0x5 PUSH1 0xA PUSH1 0xF DUP9 PUSH1 0x4 PUSH1 0x10 DUP2 LT PUSH2 0x1FEF JUMPI INVALID JUMPDEST PUSH1 0x20 MUL ADD MLOAD DUP10 PUSH1 0xD PUSH1 0x10 DUP2 LT PUSH2 0x2001 JUMPI INVALID JUMPDEST PUSH1 0x20 MUL ADD MLOAD PUSH2 0xCDA JUMP JUMPDEST PUSH2 0x2040 DUP5 PUSH1 0x1 PUSH1 0x6 PUSH1 0xB PUSH1 0xC DUP9 PUSH1 0x7 PUSH1 0x10 DUP2 LT PUSH2 0x2024 JUMPI INVALID JUMPDEST PUSH1 0x20 MUL ADD MLOAD DUP10 PUSH1 0x5 PUSH1 0x10 DUP2 LT PUSH2 0x2036 JUMPI INVALID JUMPDEST PUSH1 0x20 MUL ADD MLOAD PUSH2 0xCDA JUMP JUMPDEST PUSH2 0x2075 DUP5 PUSH1 0x2 PUSH1 0x7 PUSH1 0x8 PUSH1 0xD DUP9 PUSH1 0xF PUSH1 0x10 DUP2 LT PUSH2 0x2059 JUMPI INVALID JUMPDEST PUSH1 0x20 MUL ADD MLOAD DUP10 PUSH1 0xE PUSH1 0x10 DUP2 LT PUSH2 0x206B JUMPI INVALID JUMPDEST PUSH1 0x20 MUL ADD MLOAD PUSH2 0xCDA JUMP JUMPDEST PUSH2 0x20AA DUP5 PUSH1 0x3 PUSH1 0x4 PUSH1 0x9 PUSH1 0xE DUP9 PUSH1 0x1 PUSH1 0x10 DUP2 LT PUSH2 0x208E JUMPI INVALID JUMPDEST PUSH1 0x20 MUL ADD MLOAD DUP10 PUSH1 0x9 PUSH1 0x10 DUP2 LT PUSH2 0x20A0 JUMPI INVALID JUMPDEST PUSH1 0x20 MUL ADD MLOAD PUSH2 0xCDA JUMP JUMPDEST PUSH2 0x20DF DUP5 PUSH1 0x0 PUSH1 0x4 PUSH1 0x8 PUSH1 0xC DUP9 PUSH1 0xC PUSH1 0x10 DUP2 LT PUSH2 0x20C3 JUMPI INVALID JUMPDEST PUSH1 0x20 MUL ADD MLOAD DUP10 PUSH1 0x5 PUSH1 0x10 DUP2 LT PUSH2 0x20D5 JUMPI INVALID JUMPDEST PUSH1 0x20 MUL ADD MLOAD PUSH2 0xCDA JUMP JUMPDEST PUSH2 0x2114 DUP5 PUSH1 0x1 PUSH1 0x5 PUSH1 0x9 PUSH1 0xD DUP9 PUSH1 0x1 PUSH1 0x10 DUP2 LT PUSH2 0x20F8 JUMPI INVALID JUMPDEST PUSH1 0x20 MUL ADD MLOAD DUP10 PUSH1 0xF PUSH1 0x10 DUP2 LT PUSH2 0x210A JUMPI INVALID JUMPDEST PUSH1 0x20 MUL ADD MLOAD PUSH2 0xCDA JUMP JUMPDEST PUSH2 0x2149 DUP5 PUSH1 0x2 PUSH1 0x6 PUSH1 0xA PUSH1 0xE DUP9 PUSH1 0xE PUSH1 0x10 DUP2 LT PUSH2 0x212D JUMPI INVALID JUMPDEST PUSH1 0x20 MUL ADD MLOAD DUP10 PUSH1 0xD PUSH1 0x10 DUP2 LT PUSH2 0x213F JUMPI INVALID JUMPDEST PUSH1 0x20 MUL ADD MLOAD PUSH2 0xCDA JUMP JUMPDEST PUSH2 0x217E DUP5 PUSH1 0x3 PUSH1 0x7 PUSH1 0xB PUSH1 0xF DUP9 PUSH1 0x4 PUSH1 0x10 DUP2 LT PUSH2 0x2162 JUMPI INVALID JUMPDEST PUSH1 0x20 MUL ADD MLOAD DUP10 PUSH1 0xA PUSH1 0x10 DUP2 LT PUSH2 0x2174 JUMPI INVALID JUMPDEST PUSH1 0x20 MUL ADD MLOAD PUSH2 0xCDA JUMP JUMPDEST PUSH2 0x21B3 DUP5 PUSH1 0x0 PUSH1 0x5 PUSH1 0xA PUSH1 0xF DUP9 PUSH1 0x0 PUSH1 0x10 DUP2 LT PUSH2 0x2197 JUMPI INVALID JUMPDEST PUSH1 0x20 MUL ADD MLOAD DUP10 PUSH1 0x7 PUSH1 0x10 DUP2 LT PUSH2 0x21A9 JUMPI INVALID JUMPDEST PUSH1 0x20 MUL ADD MLOAD PUSH2 0xCDA JUMP JUMPDEST PUSH2 0x21E8 DUP5 PUSH1 0x1 PUSH1 0x6 PUSH1 0xB PUSH1 0xC DUP9 PUSH1 0x6 PUSH1 0x10 DUP2 LT PUSH2 0x21CC JUMPI INVALID JUMPDEST PUSH1 0x20 MUL ADD MLOAD DUP10 PUSH1 0x3 PUSH1 0x10 DUP2 LT PUSH2 0x21DE JUMPI INVALID JUMPDEST PUSH1 0x20 MUL ADD MLOAD PUSH2 0xCDA JUMP JUMPDEST PUSH2 0x221D DUP5 PUSH1 0x2 PUSH1 0x7 PUSH1 0x8 PUSH1 0xD DUP9 PUSH1 0x9 PUSH1 0x10 DUP2 LT PUSH2 0x2201 JUMPI INVALID JUMPDEST PUSH1 0x20 MUL ADD MLOAD DUP10 PUSH1 0x2 PUSH1 0x10 DUP2 LT PUSH2 0x2213 JUMPI INVALID JUMPDEST PUSH1 0x20 MUL ADD MLOAD PUSH2 0xCDA JUMP JUMPDEST PUSH2 0x2252 DUP5 PUSH1 0x3 PUSH1 0x4 PUSH1 0x9 PUSH1 0xE DUP9 PUSH1 0x8 PUSH1 0x10 DUP2 LT PUSH2 0x2236 JUMPI INVALID JUMPDEST PUSH1 0x20 MUL ADD MLOAD DUP10 PUSH1 0xB PUSH1 0x10 DUP2 LT PUSH2 0x2248 JUMPI INVALID JUMPDEST PUSH1 0x20 MUL ADD MLOAD PUSH2 0xCDA JUMP JUMPDEST PUSH2 0x2287 DUP5 PUSH1 0x0 PUSH1 0x4 PUSH1 0x8 PUSH1 0xC DUP9 PUSH1 0xD PUSH1 0x10 DUP2 LT PUSH2 0x226B JUMPI INVALID JUMPDEST PUSH1 0x20 MUL ADD MLOAD DUP10 PUSH1 0xB PUSH1 0x10 DUP2 LT PUSH2 0x227D JUMPI INVALID JUMPDEST PUSH1 0x20 MUL ADD MLOAD PUSH2 0xCDA JUMP JUMPDEST PUSH2 0x22BC DUP5 PUSH1 0x1 PUSH1 0x5 PUSH1 0x9 PUSH1 0xD DUP9 PUSH1 0x7 PUSH1 0x10 DUP2 LT PUSH2 0x22A0 JUMPI INVALID JUMPDEST PUSH1 0x20 MUL ADD MLOAD DUP10 PUSH1 0xE PUSH1 0x10 DUP2 LT PUSH2 0x22B2 JUMPI INVALID JUMPDEST PUSH1 0x20 MUL ADD MLOAD PUSH2 0xCDA JUMP JUMPDEST PUSH2 0x22F1 DUP5 PUSH1 0x2 PUSH1 0x6 PUSH1 0xA PUSH1 0xE DUP9 PUSH1 0xC PUSH1 0x10 DUP2 LT PUSH2 0x22D5 JUMPI INVALID JUMPDEST PUSH1 0x20 MUL ADD MLOAD DUP10 PUSH1 0x1 PUSH1 0x10 DUP2 LT PUSH2 0x22E7 JUMPI INVALID JUMPDEST PUSH1 0x20 MUL ADD MLOAD PUSH2 0xCDA JUMP JUMPDEST PUSH2 0x2326 DUP5 PUSH1 0x3 PUSH1 0x7 PUSH1 0xB PUSH1 0xF DUP9 PUSH1 0x3 PUSH1 0x10 DUP2 LT PUSH2 0x230A JUMPI INVALID JUMPDEST PUSH1 0x20 MUL ADD MLOAD DUP10 PUSH1 0x9 PUSH1 0x10 DUP2 LT PUSH2 0x231C JUMPI INVALID JUMPDEST PUSH1 0x20 MUL ADD MLOAD PUSH2 0xCDA JUMP JUMPDEST PUSH2 0x235B DUP5 PUSH1 0x0 PUSH1 0x5 PUSH1 0xA PUSH1 0xF DUP9 PUSH1 0x5 PUSH1 0x10 DUP2 LT PUSH2 0x233F JUMPI INVALID JUMPDEST PUSH1 0x20 MUL ADD MLOAD DUP10 PUSH1 0x0 PUSH1 0x10 DUP2 LT PUSH2 0x2351 JUMPI INVALID JUMPDEST PUSH1 0x20 MUL ADD MLOAD PUSH2 0xCDA JUMP JUMPDEST PUSH2 0x2390 DUP5 PUSH1 0x1 PUSH1 0x6 PUSH1 0xB PUSH1 0xC DUP9 PUSH1 0xF PUSH1 0x10 DUP2 LT PUSH2 0x2374 JUMPI INVALID JUMPDEST PUSH1 0x20 MUL ADD MLOAD DUP10 PUSH1 0x4 PUSH1 0x10 DUP2 LT PUSH2 0x2386 JUMPI INVALID JUMPDEST PUSH1 0x20 MUL ADD MLOAD PUSH2 0xCDA JUMP JUMPDEST PUSH2 0x23C5 DUP5 PUSH1 0x2 PUSH1 0x7 PUSH1 0x8 PUSH1 0xD DUP9 PUSH1 0x8 PUSH1 0x10 DUP2 LT PUSH2 0x23A9 JUMPI INVALID JUMPDEST PUSH1 0x20 MUL ADD MLOAD DUP10 PUSH1 0x6 PUSH1 0x10 DUP2 LT PUSH2 0x23BB JUMPI INVALID JUMPDEST PUSH1 0x20 MUL ADD MLOAD PUSH2 0xCDA JUMP JUMPDEST PUSH2 0x23FA DUP5 PUSH1 0x3 PUSH1 0x4 PUSH1 0x9 PUSH1 0xE DUP9 PUSH1 0x2 PUSH1 0x10 DUP2 LT PUSH2 0x23DE JUMPI INVALID JUMPDEST PUSH1 0x20 MUL ADD MLOAD DUP10 PUSH1 0xA PUSH1 0x10 DUP2 LT PUSH2 0x23F0 JUMPI INVALID JUMPDEST PUSH1 0x20 MUL ADD MLOAD PUSH2 0xCDA JUMP JUMPDEST PUSH2 0x242F DUP5 PUSH1 0x0 PUSH1 0x4 PUSH1 0x8 PUSH1 0xC DUP9 PUSH1 0x6 PUSH1 0x10 DUP2 LT PUSH2 0x2413 JUMPI INVALID JUMPDEST PUSH1 0x20 MUL ADD MLOAD DUP10 PUSH1 0xF PUSH1 0x10 DUP2 LT PUSH2 0x2425 JUMPI INVALID JUMPDEST PUSH1 0x20 MUL ADD MLOAD PUSH2 0xCDA JUMP JUMPDEST PUSH2 0x2464 DUP5 PUSH1 0x1 PUSH1 0x5 PUSH1 0x9 PUSH1 0xD DUP9 PUSH1 0xE PUSH1 0x10 DUP2 LT PUSH2 0x2448 JUMPI INVALID JUMPDEST PUSH1 0x20 MUL ADD MLOAD DUP10 PUSH1 0x9 PUSH1 0x10 DUP2 LT PUSH2 0x245A JUMPI INVALID JUMPDEST PUSH1 0x20 MUL ADD MLOAD PUSH2 0xCDA JUMP JUMPDEST PUSH2 0x2499 DUP5 PUSH1 0x2 PUSH1 0x6 PUSH1 0xA PUSH1 0xE DUP9 PUSH1 0xB PUSH1 0x10 DUP2 LT PUSH2 0x247D JUMPI INVALID JUMPDEST PUSH1 0x20 MUL ADD MLOAD DUP10 PUSH1 0x3 PUSH1 0x10 DUP2 LT PUSH2 0x248F JUMPI INVALID JUMPDEST PUSH1 0x20 MUL ADD MLOAD PUSH2 0xCDA JUMP JUMPDEST PUSH2 0x24CE DUP5 PUSH1 0x3 PUSH1 0x7 PUSH1 0xB PUSH1 0xF DUP9 PUSH1 0x0 PUSH1 0x10 DUP2 LT PUSH2 0x24B2 JUMPI INVALID JUMPDEST PUSH1 0x20 MUL ADD MLOAD DUP10 PUSH1 0x8 PUSH1 0x10 DUP2 LT PUSH2 0x24C4 JUMPI INVALID JUMPDEST PUSH1 0x20 MUL ADD MLOAD PUSH2 0xCDA JUMP JUMPDEST PUSH2 0x2503 DUP5 PUSH1 0x0 PUSH1 0x5 PUSH1 0xA PUSH1 0xF DUP9 PUSH1 0xC PUSH1 0x10 DUP2 LT PUSH2 0x24E7 JUMPI INVALID JUMPDEST PUSH1 0x20 MUL ADD MLOAD DUP10 PUSH1 0x2 PUSH1 0x10 DUP2 LT PUSH2 0x24F9 JUMPI INVALID JUMPDEST PUSH1 0x20 MUL ADD MLOAD PUSH2 0xCDA JUMP JUMPDEST PUSH2 0x2538 DUP5 PUSH1 0x1 PUSH1 0x6 PUSH1 0xB PUSH1 0xC DUP9 PUSH1 0xD PUSH1 0x10 DUP2 LT PUSH2 0x251C JUMPI INVALID JUMPDEST PUSH1 0x20 MUL ADD MLOAD DUP10 PUSH1 0x7 PUSH1 0x10 DUP2 LT PUSH2 0x252E JUMPI INVALID JUMPDEST PUSH1 0x20 MUL ADD MLOAD PUSH2 0xCDA JUMP JUMPDEST PUSH2 0x256D DUP5 PUSH1 0x2 PUSH1 0x7 PUSH1 0x8 PUSH1 0xD DUP9 PUSH1 0x1 PUSH1 0x10 DUP2 LT PUSH2 0x2551 JUMPI INVALID JUMPDEST PUSH1 0x20 MUL ADD MLOAD DUP10 PUSH1 0x4 PUSH1 0x10 DUP2 LT PUSH2 0x2563 JUMPI INVALID JUMPDEST PUSH1 0x20 MUL ADD MLOAD PUSH2 0xCDA JUMP JUMPDEST PUSH2 0x25A2 DUP5 PUSH1 0x3 PUSH1 0x4 PUSH1 0x9 PUSH1 0xE DUP9 PUSH1 0xA PUSH1 0x10 DUP2 LT PUSH2 0x2586 JUMPI INVALID JUMPDEST PUSH1 0x20 MUL ADD MLOAD DUP10 PUSH1 0x5 PUSH1 0x10 DUP2 LT PUSH2 0x2598 JUMPI INVALID JUMPDEST PUSH1 0x20 MUL ADD MLOAD PUSH2 0xCDA JUMP JUMPDEST PUSH2 0x25D7 DUP5 PUSH1 0x0 PUSH1 0x4 PUSH1 0x8 PUSH1 0xC DUP9 PUSH1 0xA PUSH1 0x10 DUP2 LT PUSH2 0x25BB JUMPI INVALID JUMPDEST PUSH1 0x20 MUL ADD MLOAD DUP10 PUSH1 0x2 PUSH1 0x10 DUP2 LT PUSH2 0x25CD JUMPI INVALID JUMPDEST PUSH1 0x20 MUL ADD MLOAD PUSH2 0xCDA JUMP JUMPDEST PUSH2 0x260C DUP5 PUSH1 0x1 PUSH1 0x5 PUSH1 0x9 PUSH1 0xD DUP9 PUSH1 0x8 PUSH1 0x10 DUP2 LT PUSH2 0x25F0 JUMPI INVALID JUMPDEST PUSH1 0x20 MUL ADD MLOAD DUP10 PUSH1 0x4 PUSH1 0x10 DUP2 LT PUSH2 0x2602 JUMPI INVALID JUMPDEST PUSH1 0x20 MUL ADD MLOAD PUSH2 0xCDA JUMP JUMPDEST PUSH2 0x2641 DUP5 PUSH1 0x2 PUSH1 0x6 PUSH1 0xA PUSH1 0xE DUP9 PUSH1 0x7 PUSH1 0x10 DUP2 LT PUSH2 0x2625 JUMPI INVALID JUMPDEST PUSH1 0x20 MUL ADD MLOAD DUP10 PUSH1 0x6 PUSH1 0x10 DUP2 LT PUSH2 0x2637 JUMPI INVALID JUMPDEST PUSH1 0x20 MUL ADD MLOAD PUSH2 0xCDA JUMP JUMPDEST PUSH2 0x2676 DUP5 PUSH1 0x3 PUSH1 0x7 PUSH1 0xB PUSH1 0xF DUP9 PUSH1 0x1 PUSH1 0x10 DUP2 LT PUSH2 0x265A JUMPI INVALID JUMPDEST PUSH1 0x20 MUL ADD MLOAD DUP10 PUSH1 0x5 PUSH1 0x10 DUP2 LT PUSH2 0x266C JUMPI INVALID JUMPDEST PUSH1 0x20 MUL ADD MLOAD PUSH2 0xCDA JUMP JUMPDEST PUSH2 0x26AB DUP5 PUSH1 0x0 PUSH1 0x5 PUSH1 0xA PUSH1 0xF DUP9 PUSH1 0xF PUSH1 0x10 DUP2 LT PUSH2 0x268F JUMPI INVALID JUMPDEST PUSH1 0x20 MUL ADD MLOAD DUP10 PUSH1 0xB PUSH1 0x10 DUP2 LT PUSH2 0x26A1 JUMPI INVALID JUMPDEST PUSH1 0x20 MUL ADD MLOAD PUSH2 0xCDA JUMP JUMPDEST PUSH2 0x26E0 DUP5 PUSH1 0x1 PUSH1 0x6 PUSH1 0xB PUSH1 0xC DUP9 PUSH1 0x9 PUSH1 0x10 DUP2 LT PUSH2 0x26C4 JUMPI INVALID JUMPDEST PUSH1 0x20 MUL ADD MLOAD DUP10 PUSH1 0xE PUSH1 0x10 DUP2 LT PUSH2 0x26D6 JUMPI INVALID JUMPDEST PUSH1 0x20 MUL ADD MLOAD PUSH2 0xCDA JUMP JUMPDEST PUSH2 0x2715 DUP5 PUSH1 0x2 PUSH1 0x7 PUSH1 0x8 PUSH1 0xD DUP9 PUSH1 0x3 PUSH1 0x10 DUP2 LT PUSH2 0x26F9 JUMPI INVALID JUMPDEST PUSH1 0x20 MUL ADD MLOAD DUP10 PUSH1 0xC PUSH1 0x10 DUP2 LT PUSH2 0x270B JUMPI INVALID JUMPDEST PUSH1 0x20 MUL ADD MLOAD PUSH2 0xCDA JUMP JUMPDEST PUSH2 0x274A DUP5 PUSH1 0x3 PUSH1 0x4 PUSH1 0x9 PUSH1 0xE DUP9 PUSH1 0xD PUSH1 0x10 DUP2 LT PUSH2 0x272E JUMPI INVALID JUMPDEST PUSH1 0x20 MUL ADD MLOAD DUP10 PUSH1 0x0 PUSH1 0x10 DUP2 LT PUSH2 0x2740 JUMPI INVALID JUMPDEST PUSH1 0x20 MUL ADD MLOAD PUSH2 0xCDA JUMP JUMPDEST PUSH2 0x277F DUP5 PUSH1 0x0 PUSH1 0x4 PUSH1 0x8 PUSH1 0xC DUP9 PUSH1 0x0 PUSH1 0x10 DUP2 LT PUSH2 0x2763 JUMPI INVALID JUMPDEST PUSH1 0x20 MUL ADD MLOAD DUP10 PUSH1 0x1 PUSH1 0x10 DUP2 LT PUSH2 0x2775 JUMPI INVALID JUMPDEST PUSH1 0x20 MUL ADD MLOAD PUSH2 0xCDA JUMP JUMPDEST PUSH2 0x27B4 DUP5 PUSH1 0x1 PUSH1 0x5 PUSH1 0x9 PUSH1 0xD DUP9 PUSH1 0x2 PUSH1 0x10 DUP2 LT PUSH2 0x2798 JUMPI INVALID JUMPDEST PUSH1 0x20 MUL ADD MLOAD DUP10 PUSH1 0x3 PUSH1 0x10 DUP2 LT PUSH2 0x27AA JUMPI INVALID JUMPDEST PUSH1 0x20 MUL ADD MLOAD PUSH2 0xCDA JUMP JUMPDEST PUSH2 0x27E9 DUP5 PUSH1 0x2 PUSH1 0x6 PUSH1 0xA PUSH1 0xE DUP9 PUSH1 0x4 PUSH1 0x10 DUP2 LT PUSH2 0x27CD JUMPI INVALID JUMPDEST PUSH1 0x20 MUL ADD MLOAD DUP10 PUSH1 0x5 PUSH1 0x10 DUP2 LT PUSH2 0x27DF JUMPI INVALID JUMPDEST PUSH1 0x20 MUL ADD MLOAD PUSH2 0xCDA JUMP JUMPDEST PUSH2 0x281E DUP5 PUSH1 0x3 PUSH1 0x7 PUSH1 0xB PUSH1 0xF DUP9 PUSH1 0x6 PUSH1 0x10 DUP2 LT PUSH2 0x2802 JUMPI INVALID JUMPDEST PUSH1 0x20 MUL ADD MLOAD DUP10 PUSH1 0x7 PUSH1 0x10 DUP2 LT PUSH2 0x2814 JUMPI INVALID JUMPDEST PUSH1 0x20 MUL ADD MLOAD PUSH2 0xCDA JUMP JUMPDEST PUSH2 0x2853 DUP5 PUSH1 0x0 PUSH1 0x5 PUSH1 0xA PUSH1 0xF DUP9 PUSH1 0x8 PUSH1 0x10 DUP2 LT PUSH2 0x2837 JUMPI INVALID JUMPDEST PUSH1 0x20 MUL ADD MLOAD DUP10 PUSH1 0x9 PUSH1 0x10 DUP2 LT PUSH2 0x2849 JUMPI INVALID JUMPDEST PUSH1 0x20 MUL ADD MLOAD PUSH2 0xCDA JUMP JUMPDEST PUSH2 0x2888 DUP5 PUSH1 0x1 PUSH1 0x6 PUSH1 0xB PUSH1 0xC DUP9 PUSH1 0xA PUSH1 0x10 DUP2 LT PUSH2 0x286C JUMPI INVALID JUMPDEST PUSH1 0x20 MUL ADD MLOAD DUP10 PUSH1 0xB PUSH1 0x10 DUP2 LT PUSH2 0x287E JUMPI INVALID JUMPDEST PUSH1 0x20 MUL ADD MLOAD PUSH2 0xCDA JUMP JUMPDEST PUSH2 0x28BD DUP5 PUSH1 0x2 PUSH1 0x7 PUSH1 0x8 PUSH1 0xD DUP9 PUSH1 0xC PUSH1 0x10 DUP2 LT PUSH2 0x28A1 JUMPI INVALID JUMPDEST PUSH1 0x20 MUL ADD MLOAD DUP10 PUSH1 0xD PUSH1 0x10 DUP2 LT PUSH2 0x28B3 JUMPI INVALID JUMPDEST PUSH1 0x20 MUL ADD MLOAD PUSH2 0xCDA JUMP JUMPDEST PUSH2 0x28F2 DUP5 PUSH1 0x3 PUSH1 0x4 PUSH1 0x9 PUSH1 0xE DUP9 PUSH1 0xE PUSH1 0x10 DUP2 LT PUSH2 0x28D6 JUMPI INVALID JUMPDEST PUSH1 0x20 MUL ADD MLOAD DUP10 PUSH1 0xF PUSH1 0x10 DUP2 LT PUSH2 0x28E8 JUMPI INVALID JUMPDEST PUSH1 0x20 MUL ADD MLOAD PUSH2 0xCDA JUMP JUMPDEST PUSH2 0x2927 DUP5 PUSH1 0x0 PUSH1 0x4 PUSH1 0x8 PUSH1 0xC DUP9 PUSH1 0xE PUSH1 0x10 DUP2 LT PUSH2 0x290B JUMPI INVALID JUMPDEST PUSH1 0x20 MUL ADD MLOAD DUP10 PUSH1 0xA PUSH1 0x10 DUP2 LT PUSH2 0x291D JUMPI INVALID JUMPDEST PUSH1 0x20 MUL ADD MLOAD PUSH2 0xCDA JUMP JUMPDEST PUSH2 0x295C DUP5 PUSH1 0x1 PUSH1 0x5 PUSH1 0x9 PUSH1 0xD DUP9 PUSH1 0x4 PUSH1 0x10 DUP2 LT PUSH2 0x2940 JUMPI INVALID JUMPDEST PUSH1 0x20 MUL ADD MLOAD DUP10 PUSH1 0x8 PUSH1 0x10 DUP2 LT PUSH2 0x2952 JUMPI INVALID JUMPDEST PUSH1 0x20 MUL ADD MLOAD PUSH2 0xCDA JUMP JUMPDEST PUSH2 0x2991 DUP5 PUSH1 0x2 PUSH1 0x6 PUSH1 0xA PUSH1 0xE DUP9 PUSH1 0x9 PUSH1 0x10 DUP2 LT PUSH2 0x2975 JUMPI INVALID JUMPDEST PUSH1 0x20 MUL ADD MLOAD DUP10 PUSH1 0xF PUSH1 0x10 DUP2 LT PUSH2 0x2987 JUMPI INVALID JUMPDEST PUSH1 0x20 MUL ADD MLOAD PUSH2 0xCDA JUMP JUMPDEST PUSH2 0x29C6 DUP5 PUSH1 0x3 PUSH1 0x7 PUSH1 0xB PUSH1 0xF DUP9 PUSH1 0xD PUSH1 0x10 DUP2 LT PUSH2 0x29AA JUMPI INVALID JUMPDEST PUSH1 0x20 MUL ADD MLOAD DUP10 PUSH1 0x6 PUSH1 0x10 DUP2 LT PUSH2 0x29BC JUMPI INVALID JUMPDEST PUSH1 0x20 MUL ADD MLOAD PUSH2 0xCDA JUMP JUMPDEST PUSH2 0x29FB DUP5 PUSH1 0x0 PUSH1 0x5 PUSH1 0xA PUSH1 0xF DUP9 PUSH1 0x1 PUSH1 0x10 DUP2 LT PUSH2 0x29DF JUMPI INVALID JUMPDEST PUSH1 0x20 MUL ADD MLOAD DUP10 PUSH1 0xC PUSH1 0x10 DUP2 LT PUSH2 0x29F1 JUMPI INVALID JUMPDEST PUSH1 0x20 MUL ADD MLOAD PUSH2 0xCDA JUMP JUMPDEST PUSH2 0x2A30 DUP5 PUSH1 0x1 PUSH1 0x6 PUSH1 0xB PUSH1 0xC DUP9 PUSH1 0x0 PUSH1 0x10 DUP2 LT PUSH2 0x2A14 JUMPI INVALID JUMPDEST PUSH1 0x20 MUL ADD MLOAD DUP10 PUSH1 0x2 PUSH1 0x10 DUP2 LT PUSH2 0x2A26 JUMPI INVALID JUMPDEST PUSH1 0x20 MUL ADD MLOAD PUSH2 0xCDA JUMP JUMPDEST PUSH2 0x2A65 DUP5 PUSH1 0x2 PUSH1 0x7 PUSH1 0x8 PUSH1 0xD DUP9 PUSH1 0xB PUSH1 0x10 DUP2 LT PUSH2 0x2A49 JUMPI INVALID JUMPDEST PUSH1 0x20 MUL ADD MLOAD DUP10 PUSH1 0x7 PUSH1 0x10 DUP2 LT PUSH2 0x2A5B JUMPI INVALID JUMPDEST PUSH1 0x20 MUL ADD MLOAD PUSH2 0xCDA JUMP JUMPDEST PUSH2 0x2A9A DUP5 PUSH1 0x3 PUSH1 0x4 PUSH1 0x9 PUSH1 0xE DUP9 PUSH1 0x5 PUSH1 0x10 DUP2 LT PUSH2 0x2A7E JUMPI INVALID JUMPDEST PUSH1 0x20 MUL ADD MLOAD DUP10 PUSH1 0x3 PUSH1 0x10 DUP2 LT PUSH2 0x2A90 JUMPI INVALID JUMPDEST PUSH1 0x20 MUL ADD MLOAD PUSH2 0xCDA JUMP JUMPDEST PUSH1 0x0 JUMPDEST PUSH1 0x8 DUP2 LT ISZERO PUSH2 0x2B1C JUMPI DUP5 PUSH1 0x8 DUP3 ADD PUSH1 0x10 DUP2 LT PUSH2 0x2AB5 JUMPI INVALID JUMPDEST PUSH1 0x20 MUL ADD MLOAD DUP6 DUP3 PUSH1 0x10 DUP2 LT PUSH2 0x2AC6 JUMPI INVALID JUMPDEST PUSH1 0x20 MUL ADD MLOAD DUP9 PUSH1 0x20 ADD MLOAD DUP4 PUSH1 0x8 DUP2 LT PUSH2 0x2ADB JUMPI INVALID JUMPDEST PUSH1 0x20 MUL ADD MLOAD XOR XOR DUP8 PUSH1 0x20 ADD MLOAD DUP3 PUSH1 0x8 DUP2 LT PUSH2 0x2AF2 JUMPI INVALID JUMPDEST PUSH1 0x20 MUL ADD SWAP1 PUSH8 0xFFFFFFFFFFFFFFFF AND SWAP1 DUP2 PUSH8 0xFFFFFFFFFFFFFFFF AND DUP2 MSTORE POP POP DUP1 PUSH1 0x1 ADD SWAP1 POP PUSH2 0x2A9D JUMP JUMPDEST POP POP POP POP POP POP POP JUMP JUMPDEST PUSH1 0x40 MLOAD DUP1 PUSH2 0x100 ADD PUSH1 0x40 MSTORE DUP1 PUSH1 0x8 SWAP1 PUSH1 0x20 DUP3 MUL DUP1 CALLDATASIZE DUP4 CALLDATACOPY DUP1 DUP3 ADD SWAP2 POP POP SWAP1 POP POP SWAP1 JUMP JUMPDEST PUSH1 0x40 MLOAD DUP1 PUSH1 0xA0 ADD PUSH1 0x40 MSTORE DUP1 PUSH2 0x2B5B PUSH2 0x2BE3 JUMP JUMPDEST DUP2 MSTORE PUSH1 0x20 ADD PUSH2 0x2B68 PUSH2 0x2B25 JUMP JUMPDEST DUP2 MSTORE PUSH1 0x20 ADD PUSH1 0x0 PUSH16 0xFFFFFFFFFFFFFFFFFFFFFFFFFFFFFFFF AND DUP2 MSTORE PUSH1 0x20 ADD PUSH1 0x0 PUSH8 0xFFFFFFFFFFFFFFFF AND DUP2 MSTORE PUSH1 0x20 ADD PUSH1 0x0 DUP2 MSTORE POP SWAP1 JUMP JUMPDEST PUSH1 0x40 MLOAD DUP1 PUSH1 0x40 ADD PUSH1 0x40 MSTORE DUP1 PUSH1 0x2 SWAP1 PUSH1 0x20 DUP3 MUL DUP1 CALLDATASIZE DUP4 CALLDATACOPY DUP1 DUP3 ADD SWAP2 POP POP SWAP1 POP POP SWAP1 JUMP JUMPDEST PUSH1 0x40 MLOAD DUP1 PUSH1 0x40 ADD PUSH1 0x40 MSTORE DUP1 PUSH1 0x2 SWAP1 PUSH1 0x20 DUP3 MUL DUP1 CALLDATASIZE DUP4 CALLDATACOPY DUP1 DUP3 ADD SWAP2 POP POP SWAP1 POP POP SWAP1 JUMP JUMPDEST PUSH1 0x40 MLOAD DUP1 PUSH1 0x80 ADD PUSH1 0x40 MSTORE DUP1 PUSH1 0x4 SWAP1 PUSH1 0x20 DUP3 MUL DUP1 CALLDATASIZE DUP4 CALLDATACOPY DUP1 DUP3 ADD SWAP2 POP POP SWAP1 POP POP SWAP1 JUMP JUMPDEST PUSH1 0x40 MLOAD DUP1 PUSH2 0x200 ADD PUSH1 0x40 MSTORE DUP1 PUSH1 0x10 SWAP1 PUSH1 0x20 DUP3 MUL DUP1 CALLDATASIZE DUP4 CALLDATACOPY DUP1 DUP3 ADD SWAP2 POP POP SWAP1 POP POP SWAP1 JUMP INVALID 0x4F PUSH22 0x746C656E206D75737420626520677265617465722074 PUSH9 0x616E203020616E6420 PUSH13 0x657373207468616E203634A264 PUSH10 0x70667358221220B9BD95 SAR 0xCC CODESIZE PUSH6 0xAF92C4C76508 0xAE 0xAC 0x2C 0x5D ADDMOD 0xBC PUSH22 0xE5DA72DDE142C68E5499140964736F6C634300060C00 CALLER "
		},
		"gasEstimates": {
			"creation": {
				"codeDepositCost": "796800",
				"executionCost": "infinite",
				"totalCost": "infinite"
			},
			"external": {
				"bytesToBytes32(bytes)": "infinite",
				"create64Hash(bytes,bytes)": "infinite",
				"createHash(bytes)": "infinite",
				"createHash(bytes,bool)": "infinite",
				"createHash(bytes,bytes)": "infinite",
				"createHash(bytes,bytes,bool)": "infinite",
				"reverseBytes(bytes32)": "infinite"
			}
		},
		"methodIdentifiers": {
			"bytesToBytes32(bytes)": "bfe370d9",
			"create64Hash(bytes,bytes)": "c984bae8",
			"createHash(bytes)": "2cd0cff2",
			"createHash(bytes,bool)": "e56e814b",
			"createHash(bytes,bytes)": "fe5320bf",
			"createHash(bytes,bytes,bool)": "95c12f53",
			"reverseBytes(bytes32)": "2f0da104"
		}
	},
	"abi": [
		{
			"inputs": [],
			"stateMutability": "nonpayable",
			"type": "constructor"
		},
		{
			"inputs": [
				{
					"internalType": "bytes",
					"name": "source",
					"type": "bytes"
				}
			],
			"name": "bytesToBytes32",
			"outputs": [
				{
					"internalType": "bytes32",
					"name": "result",
					"type": "bytes32"
				}
			],
			"stateMutability": "pure",
			"type": "function"
		},
		{
			"inputs": [
				{
					"internalType": "bytes",
					"name": "testString",
					"type": "bytes"
				},
				{
					"internalType": "bytes",
					"name": "key",
					"type": "bytes"
				}
			],
			"name": "create64Hash",
			"outputs": [
				{
					"internalType": "bytes",
					"name": "",
					"type": "bytes"
				}
			],
			"stateMutability": "nonpayable",
			"type": "function"
		},
		{
			"inputs": [
				{
					"internalType": "bytes",
					"name": "toHash",
					"type": "bytes"
				}
			],
			"name": "createHash",
			"outputs": [
				{
					"internalType": "bytes32",
					"name": "",
					"type": "bytes32"
				}
			],
			"stateMutability": "nonpayable",
			"type": "function"
		},
		{
			"inputs": [
				{
					"internalType": "bytes",
					"name": "toHash",
					"type": "bytes"
				},
				{
					"internalType": "bytes",
					"name": "personalisation",
					"type": "bytes"
				},
				{
					"internalType": "bool",
					"name": "flipped",
					"type": "bool"
				}
			],
			"name": "createHash",
			"outputs": [
				{
					"internalType": "bytes32",
					"name": "",
					"type": "bytes32"
				}
			],
			"stateMutability": "nonpayable",
			"type": "function"
		},
		{
			"inputs": [
				{
					"internalType": "bytes",
					"name": "toHash",
					"type": "bytes"
				},
				{
					"internalType": "bool",
					"name": "flipped",
					"type": "bool"
				}
			],
			"name": "createHash",
			"outputs": [
				{
					"internalType": "bytes32",
					"name": "",
					"type": "bytes32"
				}
			],
			"stateMutability": "nonpayable",
			"type": "function"
		},
		{
			"inputs": [
				{
					"internalType": "bytes",
					"name": "toHash",
					"type": "bytes"
				},
				{
					"internalType": "bytes",
					"name": "personalisation",
					"type": "bytes"
				}
			],
			"name": "createHash",
			"outputs": [
				{
					"internalType": "bytes32",
					"name": "",
					"type": "bytes32"
				}
			],
			"stateMutability": "nonpayable",
			"type": "function"
		},
		{
			"inputs": [
				{
					"internalType": "bytes32",
					"name": "_bytes32",
					"type": "bytes32"
				}
			],
			"name": "reverseBytes",
			"outputs": [
				{
					"internalType": "bytes32",
					"name": "",
					"type": "bytes32"
				}
			],
			"stateMutability": "pure",
			"type": "function"
		}
	]
}