{
	"data": {
		"bytecode": {
			"linkReferences": {},
			"object": "60806040526040518060400160405280601081526020017f566572757344656661756c744861736800000000000000000000000000000000815250600490805190602001906200005192919062000139565b503480156200005f57600080fd5b506040516200557738038062005577833981810160405281019062000085919062000204565b6040516200009390620001c0565b604051809103906000f080158015620000b0573d6000803e3d6000fd5b50600160006101000a81548173ffffffffffffffffffffffffffffffffffffffff021916908373ffffffffffffffffffffffffffffffffffffffff16021790555080600260006101000a81548173ffffffffffffffffffffffffffffffffffffffff021916908373ffffffffffffffffffffffffffffffffffffffff160217905550506200027e565b828054600181600116156101000203166002900490600052602060002090601f016020900481019282601f106200017c57805160ff1916838001178555620001ad565b82800160010185558215620001ad579182015b82811115620001ac5782518255916020019190600101906200018f565b5b509050620001bc9190620001ce565b5090565b612e7880620026ff83390190565b5b80821115620001e9576000816000905550600101620001cf565b5090565b600081519050620001fe8162000264565b92915050565b6000602082840312156200021757600080fd5b60006200022784828501620001ed565b91505092915050565b60006200023d8262000244565b9050919050565b600073ffffffffffffffffffffffffffffffffffffffff82169050919050565b6200026f8162000230565b81146200027b57600080fd5b50565b612471806200028e6000396000f3fe608060405234801561001057600080fd5b50600436106100935760003560e01c806395c12f531161006657806395c12f5314610158578063b5d7a1e414610188578063bfe370d9146101b8578063c984bae8146101e8578063fe5320bf1461021857610093565b80630a01b9b0146100985780632cd0cff2146100c85780632f0da104146100f857806382577c5614610128575b600080fd5b6100b260048036038101906100ad9190611668565b610248565b6040516100bf9190611e6f565b60405180910390f35b6100e260048036038101906100dd91906116cf565b61065b565b6040516100ef9190611e6f565b60405180910390f35b610112600480360381019061010d91906115c4565b61070a565b60405161011f9190611e6f565b60405180910390f35b610142600480360381019061013d91906115ed565b610889565b60405161014f9190611e54565b60405180910390f35b610172600480360381019061016d91906117bd565b6108b9565b60405161017f9190611e6f565b60405180910390f35b6101a2600480360381019061019d919061183c565b610acd565b6040516101af9190611e54565b60405180910390f35b6101d260048036038101906101cd91906116cf565b610d1b565b6040516101df9190611e6f565b60405180910390f35b61020260048036038101906101fd9190611751565b610d46565b60405161020f9190611edc565b60405180910390f35b610232600480360381019061022d9190611751565b610eee565b60405161023f9190611e6f565b60405180910390f35b60008083101561028d576040517f08c379a000000000000000000000000000000000000000000000000000000000815260040161028490612097565b60405180910390fd5b60008251116102d1576040517f08c379a00000000000000000000000000000000000000000000000000000000081526004016102c890612057565b60405180910390fd5b60008251905060006102e1610f04565b60606040518060200160405280600081525060049080519060200190610308929190610f27565b506103318860405160200161031d9190611d64565b604051602081830303815290604052610d1b565b925060005b8481101561064c576000600189161115610416578887828151811061035757fe5b602002602001015114156103a0576040517f08c379a000000000000000000000000000000000000000000000000000000000815260040161039790612077565b60405180910390fd5b8681815181106103ac57fe5b6020026020010151846040516020016103c6929190611d7f565b60405160208183030381529060405291507fb59b9417237df8735fe744fca91cd5730d251ce869959d110a29153590962561826001604051610409929190611ff7565b60405180910390a1610488565b8387828151811061042357fe5b602002602001015160405160200161043c929190611d7f565b60405160208183030381529060405291507fb59b9417237df8735fe744fca91cd5730d251ce869959d110a2915359096256182600260405161047f929190612027565b60405180910390a15b600160009054906101000a900473ffffffffffffffffffffffffffffffffffffffff1673ffffffffffffffffffffffffffffffffffffffff1663d299dac083600460206040518463ffffffff1660e01b81526004016104e993929190611fb2565b61010060405180830381600087803b15801561050457600080fd5b505af1158015610518573d6000803e3d6000fd5b505050506040513d601f19601f8201168201806040525081019061053c919061159a565b92506105fc8360006008811061054e57fe5b60200201518460016008811061056057fe5b60200201518560026008811061057257fe5b60200201518660036008811061058457fe5b60200201518760046008811061059657fe5b6020020151886005600881106105a857fe5b6020020151896006600881106105ba57fe5b60200201518a6007600881106105cc57fe5b60200201516040516020016105e8989796959493929190611dc2565b604051602081830303815290604052610d1b565b93507f72969aef5690044312f898780ff7189689547472aaea4eb1e0de070b96ebc278846003604051610630929190611eb3565b60405180910390a1600188901c97508080600101915050610336565b50829450505050509392505050565b60006107038260048054600181600116156101000203166002900480601f0160208091040260200160405190810160405280929190818152602001828054600181600116156101000203166002900480156106f75780601f106106cc576101008083540402835291602001916106f7565b820191906000526020600020905b8154815290600101906020018083116106da57829003601f168201915b505050505060006108b9565b9050919050565b600080600090505b60208160ff1610801561075d5750600060f81b838260ff166020811061073457fe5b1a60f81b7effffffffffffffffffffffffffffffffffffffffffffffffffffffffffffff191614155b1561076f578080600101915050610712565b60608160ff1667ffffffffffffffff8111801561078b57600080fd5b506040519080825280601f01601f1916602001820160405280156107be5781602001600182028036833780820191505090505b509050600091505b60208260ff161080156108115750600060f81b848360ff16602081106107e857fe5b1a60f81b7effffffffffffffffffffffffffffffffffffffffffffffffffffffffffffff191614155b15610877578382601f0360ff166020811061082857fe5b1a60f81b818360ff168151811061083b57fe5b60200101907effffffffffffffffffffffffffffffffffffffffffffffffffffffffffffff1916908160001a90535081806001019250506107c6565b61088081610d1b565b92505050919050565b600080610897858585610248565b9050808614156108ab5760019150506108b1565b60009150505b949350505050565b60006108c3610f04565b6060856040516020016108d69190611dab565b6040516020818303038152906040529050606080600160009054906101000a900473ffffffffffffffffffffffffffffffffffffffff1673ffffffffffffffffffffffffffffffffffffffff16631e0924238484848b60206040518663ffffffff1660e01b815260040161094e959493929190611efe565b61010060405180830381600087803b15801561096957600080fd5b505af115801561097d573d6000803e3d6000fd5b505050506040513d601f19601f820116820180604052508101906109a1919061159a565b93506060846000600881106109b257fe5b6020020151856001600881106109c457fe5b6020020151866002600881106109d657fe5b6020020151876003600881106109e857fe5b6020020151886004600881106109fa57fe5b602002015189600560088110610a0c57fe5b60200201518a600660088110610a1e57fe5b60200201518b600760088110610a3057fe5b6020020151604051602001610a4c989796959493929190611dc2565b60405160208183030381529060405290506000610a6882610d1b565b9050600115158815151415610a8357610a808161070a565b90505b7f72969aef5690044312f898780ff7189689547472aaea4eb1e0de070b96ebc278816001604051610ab5929190611e8a565b60405180910390a18096505050505050509392505050565b600080610c23600360009054906101000a900473ffffffffffffffffffffffffffffffffffffffff1673ffffffffffffffffffffffffffffffffffffffff16636675d6fd886040518263ffffffff1660e01b8152600401610b2e91906120b7565b60006040518083038186803b158015610b4657600080fd5b505afa158015610b5a573d6000803e3d6000fd5b505050506040513d6000823e3d601f19601f82011682018060405250810190610b839190611710565b60048054600181600116156101000203166002900480601f016020809104026020016040519081016040528092919081815260200182805460018160011615610100020316600290048015610c195780601f10610bee57610100808354040283529160200191610c19565b820191906000526020600020905b815481529060010190602001808311610bfc57829003601f168201915b5050505050610eee565b9050610c2d610fa7565b600260009054906101000a900473ffffffffffffffffffffffffffffffffffffffff1673ffffffffffffffffffffffffffffffffffffffff166359d4d188856040518263ffffffff1660e01b8152600401610c8891906120d9565b6101006040518083038186803b158015610ca157600080fd5b505afa158015610cb5573d6000803e3d6000fd5b505050506040513d601f19601f82011682018060405250810190610cd991906118cf565b905060008160a0015160001b9050610cf8838763ffffffff1689610248565b811415610d0b5760019350505050610d13565b600093505050505b949350505050565b60006060829050600081511415610d38576000801b915050610d41565b60208301519150505b919050565b6060610d50610f04565b606084604051602001610d639190611dab565b6040516020818303038152906040529050600160009054906101000a900473ffffffffffffffffffffffffffffffffffffffff1673ffffffffffffffffffffffffffffffffffffffff1663d299dac08286604080518463ffffffff1660e01b8152600401610dd393929190611f6d565b61010060405180830381600087803b158015610dee57600080fd5b505af1158015610e02573d6000803e3d6000fd5b505050506040513d601f19601f82011682018060405250810190610e26919061159a565b9150606082600060088110610e3757fe5b602002015183600160088110610e4957fe5b602002015184600260088110610e5b57fe5b602002015185600360088110610e6d57fe5b602002015186600460088110610e7f57fe5b602002015187600560088110610e9157fe5b602002015188600660088110610ea357fe5b602002015189600760088110610eb557fe5b6020020151604051602001610ed1989796959493929190611dc2565b604051602081830303815290604052905080935050505092915050565b6000610efc838360006108b9565b905092915050565b604051806101000160405280600890602082028036833780820191505090505090565b828054600181600116156101000203166002900490600052602060002090601f016020900481019282601f10610f6857805160ff1916838001178555610f96565b82800160010185558215610f96579182015b82811115610f95578251825591602001919060010190610f7a565b5b509050610fa3919061102a565b5090565b604051806101000160405280600063ffffffff168152602001600063ffffffff168152602001600073ffffffffffffffffffffffffffffffffffffffff168152602001600073ffffffffffffffffffffffffffffffffffffffff168152602001600063ffffffff1681526020016000815260200160008152602001600081525090565b5b8082111561104357600081600090555060010161102b565b5090565b600082601f83011261105857600080fd5b813561106b61106682612121565b6120f4565b9150818183526020840193506020810190508385602084028201111561109057600080fd5b60005b838110156110c057816110a688826111d6565b845260208401935060208301925050600181019050611093565b5050505092915050565b600082601f8301126110db57600080fd5b81356110ee6110e982612149565b6120f4565b9150818183526020840193506020810190508385604084028201111561111357600080fd5b60005b8381101561114357816111298882611293565b845260208401935060408301925050600181019050611116565b5050505092915050565b600082601f83011261115e57600080fd5b600861117161116c82612171565b6120f4565b9150818385602084028201111561118757600080fd5b60005b838110156111b7578161119d8882611585565b84526020840193506020830192505060018101905061118a565b5050505092915050565b6000813590506111d08161239a565b92915050565b6000813590506111e5816123b1565b92915050565b600082601f8301126111fc57600080fd5b813561120f61120a82612193565b6120f4565b9150808252602083016020830185838301111561122b57600080fd5b61123683828461231e565b50505092915050565b600082601f83011261125057600080fd5b815161126361125e82612193565b6120f4565b9150808252602083016020830185838301111561127f57600080fd5b61128a83828461232d565b50505092915050565b6000604082840312156112a557600080fd5b6112af60406120f4565b905060006112bf848285016114f2565b60008301525060206112d384828501611570565b60208301525092915050565b600061016082840312156112f257600080fd5b6112fd6101606120f4565b9050600061130d848285016114dd565b6000830152506020611321848285016114dd565b6020830152506040611335848285016114f2565b604083015250606061134984828501611546565b606083015250608061135d84828501611546565b60808301525060a0611371848285016114f2565b60a08301525060c082013567ffffffffffffffff81111561139157600080fd5b61139d848285016110ca565b60c08301525060e082013567ffffffffffffffff8111156113bd57600080fd5b6113c9848285016110ca565b60e0830152506101006113de84828501611546565b610100830152506101206113f48482850161151c565b6101208301525061014061140a84828501611546565b6101408301525092915050565b6000610100828403121561142a57600080fd5b6114356101006120f4565b905060006114458482850161155b565b60008301525060206114598482850161155b565b602083015250604061146d84828501611507565b604083015250606061148184828501611507565b60608301525060806114958482850161155b565b60808301525060a06114a984828501611531565b60a08301525060c06114bd84828501611531565b60c08301525060e06114d184828501611531565b60e08301525092915050565b6000813590506114ec816123c8565b92915050565b600081359050611501816123df565b92915050565b600081519050611516816123df565b92915050565b60008135905061152b816123f6565b92915050565b600081519050611540816123f6565b92915050565b6000813590506115558161240d565b92915050565b60008151905061156a8161240d565b92915050565b60008135905061157f81612424565b92915050565b60008151905061159481612424565b92915050565b600061010082840312156115ad57600080fd5b60006115bb8482850161114d565b91505092915050565b6000602082840312156115d657600080fd5b60006115e4848285016111d6565b91505092915050565b6000806000806080858703121561160357600080fd5b6000611611878288016111d6565b9450506020611622878288016111d6565b93505060406116338782880161151c565b925050606085013567ffffffffffffffff81111561165057600080fd5b61165c87828801611047565b91505092959194509250565b60008060006060848603121561167d57600080fd5b600061168b868287016111d6565b935050602061169c8682870161151c565b925050604084013567ffffffffffffffff8111156116b957600080fd5b6116c586828701611047565b9150509250925092565b6000602082840312156116e157600080fd5b600082013567ffffffffffffffff8111156116fb57600080fd5b611707848285016111eb565b91505092915050565b60006020828403121561172257600080fd5b600082015167ffffffffffffffff81111561173c57600080fd5b6117488482850161123f565b91505092915050565b6000806040838503121561176457600080fd5b600083013567ffffffffffffffff81111561177e57600080fd5b61178a858286016111eb565b925050602083013567ffffffffffffffff8111156117a757600080fd5b6117b3858286016111eb565b9150509250929050565b6000806000606084860312156117d257600080fd5b600084013567ffffffffffffffff8111156117ec57600080fd5b6117f8868287016111eb565b935050602084013567ffffffffffffffff81111561181557600080fd5b611821868287016111eb565b9250506040611832868287016111c1565b9150509250925092565b6000806000806080858703121561185257600080fd5b600085013567ffffffffffffffff81111561186c57600080fd5b611878878288016112df565b945050602085013567ffffffffffffffff81111561189557600080fd5b6118a187828801611047565b93505060406118b287828801611546565b92505060606118c387828801611546565b91505092959194509250565b600061010082840312156118e257600080fd5b60006118f084828501611417565b91505092915050565b60006119058383611bce565b60408301905092915050565b600061191c826121e4565b6119268185612207565b9350611931836121bf565b8060005b8381101561196257815161194988826118f9565b9750611954836121fa565b925050600181019050611935565b5085935050505092915050565b61197881612245565b82525050565b61198781612251565b82525050565b61199e61199982612251565b612360565b82525050565b60006119af826121ef565b6119b98185612218565b93506119c981856020860161232d565b6119d28161237c565b840191505092915050565b60006119e8826121ef565b6119f28185612229565b9350611a0281856020860161232d565b80840191505092915050565b600081546001811660008114611a2b5760018114611a5157611a95565b607f6002830416611a3c8187612218565b955060ff198316865260208601935050611a95565b60028204611a5f8187612218565b9550611a6a856121cf565b60005b82811015611a8c57815481890152600182019150602081019050611a6d565b80880195505050505b505092915050565b611aa6816122c4565b82525050565b611ab5816122d6565b82525050565b611ac4816122e8565b82525050565b611ad3816122fa565b82525050565b611ae28161230c565b82525050565b6000611af5601c83612234565b91507f4272616e6368206d757374206265206c6f6e676572207468616e2030000000006000830152602082019050919050565b6000611b35603183612234565b91507f56616c75652063616e20626520657175616c20746f206e6f646520627574206e60008301527f65766572206f6e207468652072696768740000000000000000000000000000006020830152604082019050919050565b6000611b9b601b83612234565b91507f496e6465782063616e6e6f74206265206c657373207468616e203000000000006000830152602082019050919050565b604082016000820151611be46000850182611cf3565b506020820151611bf76020850182611d3e565b50505050565b600061016083016000830151611c166000860182611d02565b506020830151611c296020860182611d02565b506040830151611c3c6040860182611cf3565b506060830151611c4f6060860182611d20565b506080830151611c626080860182611d20565b5060a0830151611c7560a0860182611cf3565b5060c083015184820360c0860152611c8d8282611911565b91505060e083015184820360e0860152611ca78282611911565b915050610100830151611cbe610100860182611d20565b50610120830151611cd3610120860182611d11565b50610140830151611ce8610140860182611d20565b508091505092915050565b611cfc81612269565b82525050565b611d0b8161225b565b82525050565b611d1a81612289565b82525050565b611d2981612293565b82525050565b611d3881612293565b82525050565b611d47816122a3565b82525050565b611d5e611d59826122a3565b61236a565b82525050565b6000611d70828461198d565b60208201915081905092915050565b6000611d8b828561198d565b602082019150611d9b828461198d565b6020820191508190509392505050565b6000611db782846119dd565b915081905092915050565b6000611dce828b611d4d565b600882019150611dde828a611d4d565b600882019150611dee8289611d4d565b600882019150611dfe8288611d4d565b600882019150611e0e8287611d4d565b600882019150611e1e8286611d4d565b600882019150611e2e8285611d4d565b600882019150611e3e8284611d4d565b6008820191508190509998505050505050505050565b6000602082019050611e69600083018461196f565b92915050565b6000602082019050611e84600083018461197e565b92915050565b6000604082019050611e9f600083018561197e565b611eac6020830184611a9d565b9392505050565b6000604082019050611ec8600083018561197e565b611ed56020830184611aca565b9392505050565b60006020820190508181036000830152611ef681846119a4565b905092915050565b600060a0820190508181036000830152611f1881886119a4565b90508181036020830152611f2c81876119a4565b90508181036040830152611f4081866119a4565b90508181036060830152611f5481856119a4565b9050611f636080830184611abb565b9695505050505050565b60006060820190508181036000830152611f8781866119a4565b90508181036020830152611f9b81856119a4565b9050611faa6040830184611ad9565b949350505050565b60006060820190508181036000830152611fcc81866119a4565b90508181036020830152611fe08185611a0e565b9050611fef6040830184611abb565b949350505050565b6000604082019050818103600083015261201181856119a4565b90506120206020830184611a9d565b9392505050565b6000604082019050818103600083015261204181856119a4565b90506120506020830184611aac565b9392505050565b6000602082019050818103600083015261207081611ae8565b9050919050565b6000602082019050818103600083015261209081611b28565b9050919050565b600060208201905081810360008301526120b081611b8e565b9050919050565b600060208201905081810360008301526120d18184611bfd565b905092915050565b60006020820190506120ee6000830184611d2f565b92915050565b6000604051905081810181811067ffffffffffffffff8211171561211757600080fd5b8060405250919050565b600067ffffffffffffffff82111561213857600080fd5b602082029050602081019050919050565b600067ffffffffffffffff82111561216057600080fd5b602082029050602081019050919050565b600067ffffffffffffffff82111561218857600080fd5b602082029050919050565b600067ffffffffffffffff8211156121aa57600080fd5b601f19601f8301169050602081019050919050565b6000819050602082019050919050565b60008190508160005260206000209050919050565b600081519050919050565b600081519050919050565b6000602082019050919050565b600082825260208201905092915050565b600082825260208201905092915050565b600081905092915050565b600082825260208201905092915050565b60008115159050919050565b6000819050919050565b600061ffff82169050919050565b600073ffffffffffffffffffffffffffffffffffffffff82169050919050565b6000819050919050565b600063ffffffff82169050919050565b600067ffffffffffffffff82169050919050565b600060ff82169050919050565b60006122cf826122b7565b9050919050565b60006122e1826122b7565b9050919050565b60006122f3826122a3565b9050919050565b6000612305826122b7565b9050919050565b6000612317826122a3565b9050919050565b82818337600083830152505050565b60005b8381101561234b578082015181840152602081019050612330565b8381111561235a576000848401525b50505050565b6000819050919050565b60006123758261238d565b9050919050565b6000601f19601f8301169050919050565b60008160c01b9050919050565b6123a381612245565b81146123ae57600080fd5b50565b6123ba81612251565b81146123c557600080fd5b50565b6123d18161225b565b81146123dc57600080fd5b50565b6123e881612269565b81146123f357600080fd5b50565b6123ff81612289565b811461240a57600080fd5b50565b61241681612293565b811461242157600080fd5b50565b61242d816122a3565b811461243857600080fd5b5056fea2646970667358221220421c166bed2afe33b7db6987818eb3f67e98b8c81c0886a7270c1b2ff4a1a05e64736f6c634300060c00336080604052604051806101000160405280676a09e667f3bcc90867ffffffffffffffff16815260200167bb67ae8584caa73b67ffffffffffffffff168152602001673c6ef372fe94f82b67ffffffffffffffff16815260200167a54ff53a5f1d36f167ffffffffffffffff16815260200167510e527fade682d167ffffffffffffffff168152602001679b05688c2b3e6c1f67ffffffffffffffff168152602001671f83d9abfb41bd6b67ffffffffffffffff168152602001675be0cd19137e217967ffffffffffffffff168152506000906008620000e0929190620000f5565b50348015620000ee57600080fd5b50620001dc565b826008600301600490048101928215620001985791602002820160005b838211156200016057835183826101000a81548167ffffffffffffffff021916908367ffffffffffffffff160217905550926020019260080160208160070104928301926001030262000112565b8015620001965782816101000a81549067ffffffffffffffff021916905560080160208160070104928301926001030262000160565b505b509050620001a79190620001ab565b5090565b5b80821115620001d857600081816101000a81549067ffffffffffffffff021916905550600101620001ac565b5090565b612c8c80620001ec6000396000f3fe608060405234801561001057600080fd5b50600436106100935760003560e01c8063d299dac011610066578063d299dac014610515578063df459019146106b7578063f23525ec1461075a578063fa2acd87146107a6578063fb72d24e1461085d57610093565b80631e09242314610098578063217311ac146103685780637ac0b1e3146103be578063bf187478146104b5575b600080fd5b61032a600480360360a08110156100ae57600080fd5b81019080803590602001906401000000008111156100cb57600080fd5b8201836020820111156100dd57600080fd5b803590602001918460018302840111640100000000831117156100ff57600080fd5b91908080601f016020809104026020016040519081016040528093929190818152602001838380828437600081840152601f19601f8201169050808301925050505050505091929192908035906020019064010000000081111561016257600080fd5b82018360208201111561017457600080fd5b8035906020019184600183028401116401000000008311171561019657600080fd5b91908080601f016020809104026020016040519081016040528093929190818152602001838380828437600081840152601f19601f820116905080830192505050505050509192919290803590602001906401000000008111156101f957600080fd5b82018360208201111561020b57600080fd5b8035906020019184600183028401116401000000008311171561022d57600080fd5b91908080601f016020809104026020016040519081016040528093929190818152602001838380828437600081840152601f19601f8201169050808301925050505050505091929192908035906020019064010000000081111561029057600080fd5b8201836020820111156102a257600080fd5b803590602001918460018302840111640100000000831117156102c457600080fd5b91908080601f016020809104026020016040519081016040528093929190818152602001838380828437600081840152601f19601f820116905080830192505050505050509192919290803567ffffffffffffffff1690602001909291905050506108bd565b6040518082600860200280838360005b8381101561035557808201518184015260208101905061033a565b5050505090500191505060405180910390f35b61039e6004803603602081101561037e57600080fd5b81019080803567ffffffffffffffff169060200190929190505050610973565b604051808267ffffffffffffffff16815260200191505060405180910390f35b610477600480360360208110156103d457600080fd5b81019080803590602001906401000000008111156103f157600080fd5b82018360208201111561040357600080fd5b8035906020019184600183028401116401000000008311171561042557600080fd5b91908080601f016020809104026020016040519081016040528093929190818152602001838380828437600081840152601f19601f820116905080830192505050505050509192919290505050610a63565b6040518082600260200280838360005b838110156104a2578082015181840152602081019050610487565b5050505090500191505060405180910390f35b6104f5600480360360408110156104cb57600080fd5b81019080803567ffffffffffffffff16906020019092919080359060200190929190505050610ba0565b604051808267ffffffffffffffff16815260200191505060405180910390f35b6106796004803603606081101561052b57600080fd5b810190808035906020019064010000000081111561054857600080fd5b82018360208201111561055a57600080fd5b8035906020019184600183028401116401000000008311171561057c57600080fd5b91908080601f016020809104026020016040519081016040528093929190818152602001838380828437600081840152601f19601f820116905080830192505050505050509192919290803590602001906401000000008111156105df57600080fd5b8201836020820111156105f157600080fd5b8035906020019184600183028401116401000000008311171561061357600080fd5b91908080601f016020809104026020016040519081016040528093929190818152602001838380828437600081840152601f19601f820116905080830192505050505050509192919290803567ffffffffffffffff169060200190929190505050610bcc565b6040518082600860200280838360005b838110156106a4578082015181840152602081019050610689565b5050505090500191505060405180910390f35b61071c60048036036101008110156106ce57600080fd5b810190808061010001906008806020026040519081016040528092919082600860200280828437600081840152601f19601f8201169050808301925050505050509192919290505050610c08565b6040518082600260200280838360005b8381101561074757808201518184015260208101905061072c565b5050505090500191505060405180910390f35b6107866004803603602081101561077057600080fd5b8101908080359060200190929190505050610ca9565b604051808267ffffffffffffffff16815260200191505060405180910390f35b61085b60048036036102c08110156107bd57600080fd5b810190808061020001906010806020026040519081016040528092919082601060200280828437600081840152601f19601f820116905080830192505050505050919291929080359060200190929190803590602001909291908035906020019092919080359060200190929190803567ffffffffffffffff169060200190929190803567ffffffffffffffff169060200190929190505050610cda565b005b61089d6004803603604081101561087357600080fd5b81019080803567ffffffffffffffff16906020019092919080359060200190929190505050610eae565b604051808267ffffffffffffffff16815260200191505060405180910390f35b6108c5612b25565b6108cd612b48565b6108d5612b25565b6108f28285896108e48a610a63565b6108ed8a610a63565b610ecf565b6108fc82896111da565b61090682826112e6565b7fde1a9fb355752f7765552010c12ee02e62eaa7b0502f3088e6b5398ce8686a38816040518082600860200280838360005b83811015610953578082015181840152602081019050610938565b5050505090500191505060405180910390a1809250505095945050505050565b600067010000000000000060ff8316026501000000000061ff00841602630100000062ff000085160261010063ff00000086160261010067ffffffffffffffff1664ff00000000871667ffffffffffffffff16816109cd57fe5b04630100000067ffffffffffffffff1665ff0000000000881667ffffffffffffffff16816109f757fe5b046501000000000067ffffffffffffffff1666ff000000000000891667ffffffffffffffff1681610a2457fe5b0467010000000000000067ffffffffffffffff1667ff000000000000008a1667ffffffffffffffff1681610a5457fe5b04181818181818189050919050565b610a6b612b9f565b60005b8251811015610b0e57610ab0838281518110610a8657fe5b602001015160f81c60f81b60f81c60ff16600160088481610aa357fe5b0601600802604003610ba0565b8260088381610abb57fe5b0460028110610ac657fe5b6020020151188260088381610ad757fe5b0460028110610ae257fe5b602002019067ffffffffffffffff16908167ffffffffffffffff16815250508080600101915050610a6e565b50610b2981600060028110610b1f57fe5b6020020151610973565b81600060028110610b3657fe5b602002019067ffffffffffffffff16908167ffffffffffffffff1681525050610b6f81600160028110610b6557fe5b6020020151610973565b81600160028110610b7c57fe5b602002019067ffffffffffffffff16908167ffffffffffffffff1681525050919050565b6000680100000000000000008260020a8467ffffffffffffffff160281610bc357fe5b06905092915050565b610bd4612b25565b610bff84846040518060200160405280600081525060405180602001604052806000815250866108bd565b90509392505050565b610c10612bc1565b610c18612bc1565b60005b6008811015610c9f5760048181610c2e57fe5b0660030360400260020a848260088110610c4457fe5b602002015167ffffffffffffffff160260001b8260048381610c6257fe5b0460028110610c6d57fe5b6020020151188260048381610c7e57fe5b0460028110610c8957fe5b6020020181815250508080600101915050610c1b565b5080915050919050565b60008160088110610cb657fe5b60049182820401919006600802915054906101000a900467ffffffffffffffff1681565b6000878760108110610ce857fe5b602002015190506000888760108110610cfd57fe5b602002015190506000898760108110610d1257fe5b6020020151905060008a8760108110610d2757fe5b60200201519050680100000000000000008684860108935068010000000000000000640100000000858318096401000000008583180418905068010000000000000000818308915068010000000000000000650100000000008385180963010000008385180418925068010000000000000000858486010893506801000000000000000066010000000000008583180962010000858318041890506801000000000000000081830891506801000000000000000060028385180967800000000000000083851804189250838b8b60108110610dfe57fe5b602002019067ffffffffffffffff16908167ffffffffffffffff1681525050828b8a60108110610e2a57fe5b602002019067ffffffffffffffff16908167ffffffffffffffff1681525050818b8960108110610e5657fe5b602002019067ffffffffffffffff16908167ffffffffffffffff1681525050808b8860108110610e8257fe5b602002019067ffffffffffffffff16908167ffffffffffffffff16815250505050505050505050505050565b60008160020a8367ffffffffffffffff1681610ec657fe5b04905092915050565b60008467ffffffffffffffff161480610ef2575060408467ffffffffffffffff16115b80610efe575060408351115b15610f54576040517f08c379a000000000000000000000000000000000000000000000000000000000815260040180806020018281038252602e815260200180612c29602e913960400191505060405180910390fd5b60005b6008811015610fc95760008160088110610f6d57fe5b600491828204019190066008029054906101000a900467ffffffffffffffff1686602001518260088110610f9d57fe5b602002019067ffffffffffffffff16908167ffffffffffffffff16815250508080600101915050610f57565b5083610fd784516008610ba0565b63010100008760200151600060088110610fed57fe5b6020020151181818856020015160006008811061100657fe5b602002019067ffffffffffffffff16908167ffffffffffffffff16815250508160006002811061103257fe5b6020020151856020015160046008811061104857fe5b602002015118856020015160046008811061105f57fe5b602002019067ffffffffffffffff16908167ffffffffffffffff16815250508160016002811061108b57fe5b602002015185602001516005600881106110a157fe5b60200201511885602001516005600881106110b857fe5b602002019067ffffffffffffffff16908167ffffffffffffffff1681525050806000600281106110e457fe5b602002015185602001516006600881106110fa57fe5b602002015118856020015160066008811061111157fe5b602002019067ffffffffffffffff16908167ffffffffffffffff16815250508060016002811061113d57fe5b6020020151856020015160076008811061115357fe5b602002015118856020015160076008811061116a57fe5b602002019067ffffffffffffffff16908167ffffffffffffffff16815250508367ffffffffffffffff168560800181815250506000835111156111d3576111b185846111da565b6080856060019067ffffffffffffffff16908167ffffffffffffffff16815250505b5050505050565b60005b81518110156112e1576080836060015167ffffffffffffffff16141561126e57826060015167ffffffffffffffff1683604001818151019150906fffffffffffffffffffffffffffffffff1690816fffffffffffffffffffffffffffffffff168152505061124c836000611437565b6000836060019067ffffffffffffffff16908167ffffffffffffffff16815250505b600083606001805180919060010167ffffffffffffffff1667ffffffffffffffff1681525067ffffffffffffffff1690506112a7612be3565b8460000151905060008484815181106112bc57fe5b602001015160f81c60f81b60f81c9050808383015350505080806001019150506111dd565b505050565b816060015167ffffffffffffffff1682604001818151019150906fffffffffffffffffffffffffffffffff1690816fffffffffffffffffffffffffffffffff1681525050611335826001611437565b60005b600883608001518161134657fe5b048110156113a35761136b8360200151826008811061136157fe5b6020020151610973565b82826008811061137757fe5b602002019067ffffffffffffffff16908167ffffffffffffffff16815250508080600101915050611338565b50604082608001511015611433576113f96113df836020015160088560800151816113ca57fe5b04600881106113d557fe5b6020020151610973565b60088460800151816113ed57fe5b06600802604003610eae565b81600884608001518161140857fe5b046008811061141357fe5b602002019067ffffffffffffffff16908167ffffffffffffffff16815250505b5050565b61143f612c05565b611447612c05565b60005b60088110156114fb578460200151816008811061146357fe5b602002015183826010811061147457fe5b602002019067ffffffffffffffff16908167ffffffffffffffff1681525050600081600881106114a057fe5b600491828204019190066008029054906101000a900467ffffffffffffffff168360088301601081106114cf57fe5b602002019067ffffffffffffffff16908167ffffffffffffffff1681525050808060010191505061144a565b506801000000000000000084604001516fffffffffffffffffffffffffffffffff168161152457fe5b0682600c6010811061153257fe5b60200201511882600c6010811061154557fe5b602002019067ffffffffffffffff16908167ffffffffffffffff16815250506801000000000000000084604001516fffffffffffffffffffffffffffffffff168161158c57fe5b0482600d6010811061159a57fe5b60200201511882600d601081106115ad57fe5b602002019067ffffffffffffffff16908167ffffffffffffffff168152505082156116125781600e601081106115df57fe5b60200201511982600e601081106115f257fe5b602002019067ffffffffffffffff16908167ffffffffffffffff16815250505b60008060005b60108110156116b95760006004828161162d57fe5b06905060009350600081141561165f5787600001516004838161164c57fe5b046004811061165757fe5b602002015192505b67ffffffffffffffff8160030360400260020a840416935061168084610973565b85836010811061168c57fe5b602002019067ffffffffffffffff16908167ffffffffffffffff1681525050508080600101915050611618565b506116ef84600060046008600c886000601081106116d357fe5b6020020151896001601081106116e557fe5b6020020151610cda565b61172484600160056009600d8860026010811061170857fe5b60200201518960036010811061171a57fe5b6020020151610cda565b6117598460026006600a600e8860046010811061173d57fe5b60200201518960056010811061174f57fe5b6020020151610cda565b61178e8460036007600b600f8860066010811061177257fe5b60200201518960076010811061178457fe5b6020020151610cda565b6117c38460006005600a600f886008601081106117a757fe5b6020020151896009601081106117b957fe5b6020020151610cda565b6117f88460016006600b600c88600a601081106117dc57fe5b602002015189600b601081106117ee57fe5b6020020151610cda565b61182d84600260076008600d88600c6010811061181157fe5b602002015189600d6010811061182357fe5b6020020151610cda565b61186284600360046009600e88600e6010811061184657fe5b602002015189600f6010811061185857fe5b6020020151610cda565b61189784600060046008600c88600e6010811061187b57fe5b602002015189600a6010811061188d57fe5b6020020151610cda565b6118cc84600160056009600d886004601081106118b057fe5b6020020151896008601081106118c257fe5b6020020151610cda565b6119018460026006600a600e886009601081106118e557fe5b602002015189600f601081106118f757fe5b6020020151610cda565b6119368460036007600b600f88600d6010811061191a57fe5b60200201518960066010811061192c57fe5b6020020151610cda565b61196b8460006005600a600f8860016010811061194f57fe5b602002015189600c6010811061196157fe5b6020020151610cda565b6119a08460016006600b600c8860006010811061198457fe5b60200201518960026010811061199657fe5b6020020151610cda565b6119d584600260076008600d88600b601081106119b957fe5b6020020151896007601081106119cb57fe5b6020020151610cda565b611a0a84600360046009600e886005601081106119ee57fe5b602002015189600360108110611a0057fe5b6020020151610cda565b611a3f84600060046008600c88600b60108110611a2357fe5b602002015189600860108110611a3557fe5b6020020151610cda565b611a7484600160056009600d88600c60108110611a5857fe5b602002015189600060108110611a6a57fe5b6020020151610cda565b611aa98460026006600a600e88600560108110611a8d57fe5b602002015189600260108110611a9f57fe5b6020020151610cda565b611ade8460036007600b600f88600f60108110611ac257fe5b602002015189600d60108110611ad457fe5b6020020151610cda565b611b138460006005600a600f88600a60108110611af757fe5b602002015189600e60108110611b0957fe5b6020020151610cda565b611b488460016006600b600c88600360108110611b2c57fe5b602002015189600660108110611b3e57fe5b6020020151610cda565b611b7d84600260076008600d88600760108110611b6157fe5b602002015189600160108110611b7357fe5b6020020151610cda565b611bb284600360046009600e88600960108110611b9657fe5b602002015189600460108110611ba857fe5b6020020151610cda565b611be784600060046008600c88600760108110611bcb57fe5b602002015189600960108110611bdd57fe5b6020020151610cda565b611c1c84600160056009600d88600360108110611c0057fe5b602002015189600160108110611c1257fe5b6020020151610cda565b611c518460026006600a600e88600d60108110611c3557fe5b602002015189600c60108110611c4757fe5b6020020151610cda565b611c868460036007600b600f88600b60108110611c6a57fe5b602002015189600e60108110611c7c57fe5b6020020151610cda565b611cbb8460006005600a600f88600260108110611c9f57fe5b602002015189600660108110611cb157fe5b6020020151610cda565b611cf08460016006600b600c88600560108110611cd457fe5b602002015189600a60108110611ce657fe5b6020020151610cda565b611d2584600260076008600d88600460108110611d0957fe5b602002015189600060108110611d1b57fe5b6020020151610cda565b611d5a84600360046009600e88600f60108110611d3e57fe5b602002015189600860108110611d5057fe5b6020020151610cda565b611d8f84600060046008600c88600960108110611d7357fe5b602002015189600060108110611d8557fe5b6020020151610cda565b611dc484600160056009600d88600560108110611da857fe5b602002015189600760108110611dba57fe5b6020020151610cda565b611df98460026006600a600e88600260108110611ddd57fe5b602002015189600460108110611def57fe5b6020020151610cda565b611e2e8460036007600b600f88600a60108110611e1257fe5b602002015189600f60108110611e2457fe5b6020020151610cda565b611e638460006005600a600f88600e60108110611e4757fe5b602002015189600160108110611e5957fe5b6020020151610cda565b611e988460016006600b600c88600b60108110611e7c57fe5b602002015189600c60108110611e8e57fe5b6020020151610cda565b611ecd84600260076008600d88600660108110611eb157fe5b602002015189600860108110611ec357fe5b6020020151610cda565b611f0284600360046009600e88600360108110611ee657fe5b602002015189600d60108110611ef857fe5b6020020151610cda565b611f3784600060046008600c88600260108110611f1b57fe5b602002015189600c60108110611f2d57fe5b6020020151610cda565b611f6c84600160056009600d88600660108110611f5057fe5b602002015189600a60108110611f6257fe5b6020020151610cda565b611fa18460026006600a600e88600060108110611f8557fe5b602002015189600b60108110611f9757fe5b6020020151610cda565b611fd68460036007600b600f88600860108110611fba57fe5b602002015189600360108110611fcc57fe5b6020020151610cda565b61200b8460006005600a600f88600460108110611fef57fe5b602002015189600d6010811061200157fe5b6020020151610cda565b6120408460016006600b600c8860076010811061202457fe5b60200201518960056010811061203657fe5b6020020151610cda565b61207584600260076008600d88600f6010811061205957fe5b602002015189600e6010811061206b57fe5b6020020151610cda565b6120aa84600360046009600e8860016010811061208e57fe5b6020020151896009601081106120a057fe5b6020020151610cda565b6120df84600060046008600c88600c601081106120c357fe5b6020020151896005601081106120d557fe5b6020020151610cda565b61211484600160056009600d886001601081106120f857fe5b602002015189600f6010811061210a57fe5b6020020151610cda565b6121498460026006600a600e88600e6010811061212d57fe5b602002015189600d6010811061213f57fe5b6020020151610cda565b61217e8460036007600b600f8860046010811061216257fe5b602002015189600a6010811061217457fe5b6020020151610cda565b6121b38460006005600a600f8860006010811061219757fe5b6020020151896007601081106121a957fe5b6020020151610cda565b6121e88460016006600b600c886006601081106121cc57fe5b6020020151896003601081106121de57fe5b6020020151610cda565b61221d84600260076008600d8860096010811061220157fe5b60200201518960026010811061221357fe5b6020020151610cda565b61225284600360046009600e8860086010811061223657fe5b602002015189600b6010811061224857fe5b6020020151610cda565b61228784600060046008600c88600d6010811061226b57fe5b602002015189600b6010811061227d57fe5b6020020151610cda565b6122bc84600160056009600d886007601081106122a057fe5b602002015189600e601081106122b257fe5b6020020151610cda565b6122f18460026006600a600e88600c601081106122d557fe5b6020020151896001601081106122e757fe5b6020020151610cda565b6123268460036007600b600f8860036010811061230a57fe5b60200201518960096010811061231c57fe5b6020020151610cda565b61235b8460006005600a600f8860056010811061233f57fe5b60200201518960006010811061235157fe5b6020020151610cda565b6123908460016006600b600c88600f6010811061237457fe5b60200201518960046010811061238657fe5b6020020151610cda565b6123c584600260076008600d886008601081106123a957fe5b6020020151896006601081106123bb57fe5b6020020151610cda565b6123fa84600360046009600e886002601081106123de57fe5b602002015189600a601081106123f057fe5b6020020151610cda565b61242f84600060046008600c8860066010811061241357fe5b602002015189600f6010811061242557fe5b6020020151610cda565b61246484600160056009600d88600e6010811061244857fe5b60200201518960096010811061245a57fe5b6020020151610cda565b6124998460026006600a600e88600b6010811061247d57fe5b60200201518960036010811061248f57fe5b6020020151610cda565b6124ce8460036007600b600f886000601081106124b257fe5b6020020151896008601081106124c457fe5b6020020151610cda565b6125038460006005600a600f88600c601081106124e757fe5b6020020151896002601081106124f957fe5b6020020151610cda565b6125388460016006600b600c88600d6010811061251c57fe5b60200201518960076010811061252e57fe5b6020020151610cda565b61256d84600260076008600d8860016010811061255157fe5b60200201518960046010811061256357fe5b6020020151610cda565b6125a284600360046009600e88600a6010811061258657fe5b60200201518960056010811061259857fe5b6020020151610cda565b6125d784600060046008600c88600a601081106125bb57fe5b6020020151896002601081106125cd57fe5b6020020151610cda565b61260c84600160056009600d886008601081106125f057fe5b60200201518960046010811061260257fe5b6020020151610cda565b6126418460026006600a600e8860076010811061262557fe5b60200201518960066010811061263757fe5b6020020151610cda565b6126768460036007600b600f8860016010811061265a57fe5b60200201518960056010811061266c57fe5b6020020151610cda565b6126ab8460006005600a600f88600f6010811061268f57fe5b602002015189600b601081106126a157fe5b6020020151610cda565b6126e08460016006600b600c886009601081106126c457fe5b602002015189600e601081106126d657fe5b6020020151610cda565b61271584600260076008600d886003601081106126f957fe5b602002015189600c6010811061270b57fe5b6020020151610cda565b61274a84600360046009600e88600d6010811061272e57fe5b60200201518960006010811061274057fe5b6020020151610cda565b61277f84600060046008600c8860006010811061276357fe5b60200201518960016010811061277557fe5b6020020151610cda565b6127b484600160056009600d8860026010811061279857fe5b6020020151896003601081106127aa57fe5b6020020151610cda565b6127e98460026006600a600e886004601081106127cd57fe5b6020020151896005601081106127df57fe5b6020020151610cda565b61281e8460036007600b600f8860066010811061280257fe5b60200201518960076010811061281457fe5b6020020151610cda565b6128538460006005600a600f8860086010811061283757fe5b60200201518960096010811061284957fe5b6020020151610cda565b6128888460016006600b600c88600a6010811061286c57fe5b602002015189600b6010811061287e57fe5b6020020151610cda565b6128bd84600260076008600d88600c601081106128a157fe5b602002015189600d601081106128b357fe5b6020020151610cda565b6128f284600360046009600e88600e601081106128d657fe5b602002015189600f601081106128e857fe5b6020020151610cda565b61292784600060046008600c88600e6010811061290b57fe5b602002015189600a6010811061291d57fe5b6020020151610cda565b61295c84600160056009600d8860046010811061294057fe5b60200201518960086010811061295257fe5b6020020151610cda565b6129918460026006600a600e8860096010811061297557fe5b602002015189600f6010811061298757fe5b6020020151610cda565b6129c68460036007600b600f88600d601081106129aa57fe5b6020020151896006601081106129bc57fe5b6020020151610cda565b6129fb8460006005600a600f886001601081106129df57fe5b602002015189600c601081106129f157fe5b6020020151610cda565b612a308460016006600b600c88600060108110612a1457fe5b602002015189600260108110612a2657fe5b6020020151610cda565b612a6584600260076008600d88600b60108110612a4957fe5b602002015189600760108110612a5b57fe5b6020020151610cda565b612a9a84600360046009600e88600560108110612a7e57fe5b602002015189600360108110612a9057fe5b6020020151610cda565b60005b6008811015612b1c57846008820160108110612ab557fe5b6020020151858260108110612ac657fe5b602002015188602001518360088110612adb57fe5b6020020151181887602001518260088110612af257fe5b602002019067ffffffffffffffff16908167ffffffffffffffff1681525050806001019050612a9d565b50505050505050565b604051806101000160405280600890602082028036833780820191505090505090565b6040518060a00160405280612b5b612be3565b8152602001612b68612b25565b815260200160006fffffffffffffffffffffffffffffffff168152602001600067ffffffffffffffff168152602001600081525090565b6040518060400160405280600290602082028036833780820191505090505090565b6040518060400160405280600290602082028036833780820191505090505090565b6040518060800160405280600490602082028036833780820191505090505090565b60405180610200016040528060109060208202803683378082019150509050509056fe4f75746c656e206d7573742062652067726561746572207468616e203020616e64206c657373207468616e203634a2646970667358221220fe109a32a00caa29a9016356c07c1dd58c2b4bd046444706736b2bff1fa601a664736f6c634300060c0033",
			"opcodes": "PUSH1 0x80 PUSH1 0x40 MSTORE PUSH1 0x40 MLOAD DUP1 PUSH1 0x40 ADD PUSH1 0x40 MSTORE DUP1 PUSH1 0x10 DUP2 MSTORE PUSH1 0x20 ADD PUSH32 0x566572757344656661756C744861736800000000000000000000000000000000 DUP2 MSTORE POP PUSH1 0x4 SWAP1 DUP1 MLOAD SWAP1 PUSH1 0x20 ADD SWAP1 PUSH3 0x51 SWAP3 SWAP2 SWAP1 PUSH3 0x139 JUMP JUMPDEST POP CALLVALUE DUP1 ISZERO PUSH3 0x5F JUMPI PUSH1 0x0 DUP1 REVERT JUMPDEST POP PUSH1 0x40 MLOAD PUSH3 0x5577 CODESIZE SUB DUP1 PUSH3 0x5577 DUP4 CODECOPY DUP2 DUP2 ADD PUSH1 0x40 MSTORE DUP2 ADD SWAP1 PUSH3 0x85 SWAP2 SWAP1 PUSH3 0x204 JUMP JUMPDEST PUSH1 0x40 MLOAD PUSH3 0x93 SWAP1 PUSH3 0x1C0 JUMP JUMPDEST PUSH1 0x40 MLOAD DUP1 SWAP2 SUB SWAP1 PUSH1 0x0 CREATE DUP1 ISZERO DUP1 ISZERO PUSH3 0xB0 JUMPI RETURNDATASIZE PUSH1 0x0 DUP1 RETURNDATACOPY RETURNDATASIZE PUSH1 0x0 REVERT JUMPDEST POP PUSH1 0x1 PUSH1 0x0 PUSH2 0x100 EXP DUP2 SLOAD DUP2 PUSH20 0xFFFFFFFFFFFFFFFFFFFFFFFFFFFFFFFFFFFFFFFF MUL NOT AND SWAP1 DUP4 PUSH20 0xFFFFFFFFFFFFFFFFFFFFFFFFFFFFFFFFFFFFFFFF AND MUL OR SWAP1 SSTORE POP DUP1 PUSH1 0x2 PUSH1 0x0 PUSH2 0x100 EXP DUP2 SLOAD DUP2 PUSH20 0xFFFFFFFFFFFFFFFFFFFFFFFFFFFFFFFFFFFFFFFF MUL NOT AND SWAP1 DUP4 PUSH20 0xFFFFFFFFFFFFFFFFFFFFFFFFFFFFFFFFFFFFFFFF AND MUL OR SWAP1 SSTORE POP POP PUSH3 0x27E JUMP JUMPDEST DUP3 DUP1 SLOAD PUSH1 0x1 DUP2 PUSH1 0x1 AND ISZERO PUSH2 0x100 MUL SUB AND PUSH1 0x2 SWAP1 DIV SWAP1 PUSH1 0x0 MSTORE PUSH1 0x20 PUSH1 0x0 KECCAK256 SWAP1 PUSH1 0x1F ADD PUSH1 0x20 SWAP1 DIV DUP2 ADD SWAP3 DUP3 PUSH1 0x1F LT PUSH3 0x17C JUMPI DUP1 MLOAD PUSH1 0xFF NOT AND DUP4 DUP1 ADD OR DUP6 SSTORE PUSH3 0x1AD JUMP JUMPDEST DUP3 DUP1 ADD PUSH1 0x1 ADD DUP6 SSTORE DUP3 ISZERO PUSH3 0x1AD JUMPI SWAP2 DUP3 ADD JUMPDEST DUP3 DUP2 GT ISZERO PUSH3 0x1AC JUMPI DUP3 MLOAD DUP3 SSTORE SWAP2 PUSH1 0x20 ADD SWAP2 SWAP1 PUSH1 0x1 ADD SWAP1 PUSH3 0x18F JUMP JUMPDEST JUMPDEST POP SWAP1 POP PUSH3 0x1BC SWAP2 SWAP1 PUSH3 0x1CE JUMP JUMPDEST POP SWAP1 JUMP JUMPDEST PUSH2 0x2E78 DUP1 PUSH3 0x26FF DUP4 CODECOPY ADD SWAP1 JUMP JUMPDEST JUMPDEST DUP1 DUP3 GT ISZERO PUSH3 0x1E9 JUMPI PUSH1 0x0 DUP2 PUSH1 0x0 SWAP1 SSTORE POP PUSH1 0x1 ADD PUSH3 0x1CF JUMP JUMPDEST POP SWAP1 JUMP JUMPDEST PUSH1 0x0 DUP2 MLOAD SWAP1 POP PUSH3 0x1FE DUP2 PUSH3 0x264 JUMP JUMPDEST SWAP3 SWAP2 POP POP JUMP JUMPDEST PUSH1 0x0 PUSH1 0x20 DUP3 DUP5 SUB SLT ISZERO PUSH3 0x217 JUMPI PUSH1 0x0 DUP1 REVERT JUMPDEST PUSH1 0x0 PUSH3 0x227 DUP5 DUP3 DUP6 ADD PUSH3 0x1ED JUMP JUMPDEST SWAP2 POP POP SWAP3 SWAP2 POP POP JUMP JUMPDEST PUSH1 0x0 PUSH3 0x23D DUP3 PUSH3 0x244 JUMP JUMPDEST SWAP1 POP SWAP2 SWAP1 POP JUMP JUMPDEST PUSH1 0x0 PUSH20 0xFFFFFFFFFFFFFFFFFFFFFFFFFFFFFFFFFFFFFFFF DUP3 AND SWAP1 POP SWAP2 SWAP1 POP JUMP JUMPDEST PUSH3 0x26F DUP2 PUSH3 0x230 JUMP JUMPDEST DUP2 EQ PUSH3 0x27B JUMPI PUSH1 0x0 DUP1 REVERT JUMPDEST POP JUMP JUMPDEST PUSH2 0x2471 DUP1 PUSH3 0x28E PUSH1 0x0 CODECOPY PUSH1 0x0 RETURN INVALID PUSH1 0x80 PUSH1 0x40 MSTORE CALLVALUE DUP1 ISZERO PUSH2 0x10 JUMPI PUSH1 0x0 DUP1 REVERT JUMPDEST POP PUSH1 0x4 CALLDATASIZE LT PUSH2 0x93 JUMPI PUSH1 0x0 CALLDATALOAD PUSH1 0xE0 SHR DUP1 PUSH4 0x95C12F53 GT PUSH2 0x66 JUMPI DUP1 PUSH4 0x95C12F53 EQ PUSH2 0x158 JUMPI DUP1 PUSH4 0xB5D7A1E4 EQ PUSH2 0x188 JUMPI DUP1 PUSH4 0xBFE370D9 EQ PUSH2 0x1B8 JUMPI DUP1 PUSH4 0xC984BAE8 EQ PUSH2 0x1E8 JUMPI DUP1 PUSH4 0xFE5320BF EQ PUSH2 0x218 JUMPI PUSH2 0x93 JUMP JUMPDEST DUP1 PUSH4 0xA01B9B0 EQ PUSH2 0x98 JUMPI DUP1 PUSH4 0x2CD0CFF2 EQ PUSH2 0xC8 JUMPI DUP1 PUSH4 0x2F0DA104 EQ PUSH2 0xF8 JUMPI DUP1 PUSH4 0x82577C56 EQ PUSH2 0x128 JUMPI JUMPDEST PUSH1 0x0 DUP1 REVERT JUMPDEST PUSH2 0xB2 PUSH1 0x4 DUP1 CALLDATASIZE SUB DUP2 ADD SWAP1 PUSH2 0xAD SWAP2 SWAP1 PUSH2 0x1668 JUMP JUMPDEST PUSH2 0x248 JUMP JUMPDEST PUSH1 0x40 MLOAD PUSH2 0xBF SWAP2 SWAP1 PUSH2 0x1E6F JUMP JUMPDEST PUSH1 0x40 MLOAD DUP1 SWAP2 SUB SWAP1 RETURN JUMPDEST PUSH2 0xE2 PUSH1 0x4 DUP1 CALLDATASIZE SUB DUP2 ADD SWAP1 PUSH2 0xDD SWAP2 SWAP1 PUSH2 0x16CF JUMP JUMPDEST PUSH2 0x65B JUMP JUMPDEST PUSH1 0x40 MLOAD PUSH2 0xEF SWAP2 SWAP1 PUSH2 0x1E6F JUMP JUMPDEST PUSH1 0x40 MLOAD DUP1 SWAP2 SUB SWAP1 RETURN JUMPDEST PUSH2 0x112 PUSH1 0x4 DUP1 CALLDATASIZE SUB DUP2 ADD SWAP1 PUSH2 0x10D SWAP2 SWAP1 PUSH2 0x15C4 JUMP JUMPDEST PUSH2 0x70A JUMP JUMPDEST PUSH1 0x40 MLOAD PUSH2 0x11F SWAP2 SWAP1 PUSH2 0x1E6F JUMP JUMPDEST PUSH1 0x40 MLOAD DUP1 SWAP2 SUB SWAP1 RETURN JUMPDEST PUSH2 0x142 PUSH1 0x4 DUP1 CALLDATASIZE SUB DUP2 ADD SWAP1 PUSH2 0x13D SWAP2 SWAP1 PUSH2 0x15ED JUMP JUMPDEST PUSH2 0x889 JUMP JUMPDEST PUSH1 0x40 MLOAD PUSH2 0x14F SWAP2 SWAP1 PUSH2 0x1E54 JUMP JUMPDEST PUSH1 0x40 MLOAD DUP1 SWAP2 SUB SWAP1 RETURN JUMPDEST PUSH2 0x172 PUSH1 0x4 DUP1 CALLDATASIZE SUB DUP2 ADD SWAP1 PUSH2 0x16D SWAP2 SWAP1 PUSH2 0x17BD JUMP JUMPDEST PUSH2 0x8B9 JUMP JUMPDEST PUSH1 0x40 MLOAD PUSH2 0x17F SWAP2 SWAP1 PUSH2 0x1E6F JUMP JUMPDEST PUSH1 0x40 MLOAD DUP1 SWAP2 SUB SWAP1 RETURN JUMPDEST PUSH2 0x1A2 PUSH1 0x4 DUP1 CALLDATASIZE SUB DUP2 ADD SWAP1 PUSH2 0x19D SWAP2 SWAP1 PUSH2 0x183C JUMP JUMPDEST PUSH2 0xACD JUMP JUMPDEST PUSH1 0x40 MLOAD PUSH2 0x1AF SWAP2 SWAP1 PUSH2 0x1E54 JUMP JUMPDEST PUSH1 0x40 MLOAD DUP1 SWAP2 SUB SWAP1 RETURN JUMPDEST PUSH2 0x1D2 PUSH1 0x4 DUP1 CALLDATASIZE SUB DUP2 ADD SWAP1 PUSH2 0x1CD SWAP2 SWAP1 PUSH2 0x16CF JUMP JUMPDEST PUSH2 0xD1B JUMP JUMPDEST PUSH1 0x40 MLOAD PUSH2 0x1DF SWAP2 SWAP1 PUSH2 0x1E6F JUMP JUMPDEST PUSH1 0x40 MLOAD DUP1 SWAP2 SUB SWAP1 RETURN JUMPDEST PUSH2 0x202 PUSH1 0x4 DUP1 CALLDATASIZE SUB DUP2 ADD SWAP1 PUSH2 0x1FD SWAP2 SWAP1 PUSH2 0x1751 JUMP JUMPDEST PUSH2 0xD46 JUMP JUMPDEST PUSH1 0x40 MLOAD PUSH2 0x20F SWAP2 SWAP1 PUSH2 0x1EDC JUMP JUMPDEST PUSH1 0x40 MLOAD DUP1 SWAP2 SUB SWAP1 RETURN JUMPDEST PUSH2 0x232 PUSH1 0x4 DUP1 CALLDATASIZE SUB DUP2 ADD SWAP1 PUSH2 0x22D SWAP2 SWAP1 PUSH2 0x1751 JUMP JUMPDEST PUSH2 0xEEE JUMP JUMPDEST PUSH1 0x40 MLOAD PUSH2 0x23F SWAP2 SWAP1 PUSH2 0x1E6F JUMP JUMPDEST PUSH1 0x40 MLOAD DUP1 SWAP2 SUB SWAP1 RETURN JUMPDEST PUSH1 0x0 DUP1 DUP4 LT ISZERO PUSH2 0x28D JUMPI PUSH1 0x40 MLOAD PUSH32 0x8C379A000000000000000000000000000000000000000000000000000000000 DUP2 MSTORE PUSH1 0x4 ADD PUSH2 0x284 SWAP1 PUSH2 0x2097 JUMP JUMPDEST PUSH1 0x40 MLOAD DUP1 SWAP2 SUB SWAP1 REVERT JUMPDEST PUSH1 0x0 DUP3 MLOAD GT PUSH2 0x2D1 JUMPI PUSH1 0x40 MLOAD PUSH32 0x8C379A000000000000000000000000000000000000000000000000000000000 DUP2 MSTORE PUSH1 0x4 ADD PUSH2 0x2C8 SWAP1 PUSH2 0x2057 JUMP JUMPDEST PUSH1 0x40 MLOAD DUP1 SWAP2 SUB SWAP1 REVERT JUMPDEST PUSH1 0x0 DUP3 MLOAD SWAP1 POP PUSH1 0x0 PUSH2 0x2E1 PUSH2 0xF04 JUMP JUMPDEST PUSH1 0x60 PUSH1 0x40 MLOAD DUP1 PUSH1 0x20 ADD PUSH1 0x40 MSTORE DUP1 PUSH1 0x0 DUP2 MSTORE POP PUSH1 0x4 SWAP1 DUP1 MLOAD SWAP1 PUSH1 0x20 ADD SWAP1 PUSH2 0x308 SWAP3 SWAP2 SWAP1 PUSH2 0xF27 JUMP JUMPDEST POP PUSH2 0x331 DUP9 PUSH1 0x40 MLOAD PUSH1 0x20 ADD PUSH2 0x31D SWAP2 SWAP1 PUSH2 0x1D64 JUMP JUMPDEST PUSH1 0x40 MLOAD PUSH1 0x20 DUP2 DUP4 SUB SUB DUP2 MSTORE SWAP1 PUSH1 0x40 MSTORE PUSH2 0xD1B JUMP JUMPDEST SWAP3 POP PUSH1 0x0 JUMPDEST DUP5 DUP2 LT ISZERO PUSH2 0x64C JUMPI PUSH1 0x0 PUSH1 0x1 DUP10 AND GT ISZERO PUSH2 0x416 JUMPI DUP9 DUP8 DUP3 DUP2 MLOAD DUP2 LT PUSH2 0x357 JUMPI INVALID JUMPDEST PUSH1 0x20 MUL PUSH1 0x20 ADD ADD MLOAD EQ ISZERO PUSH2 0x3A0 JUMPI PUSH1 0x40 MLOAD PUSH32 0x8C379A000000000000000000000000000000000000000000000000000000000 DUP2 MSTORE PUSH1 0x4 ADD PUSH2 0x397 SWAP1 PUSH2 0x2077 JUMP JUMPDEST PUSH1 0x40 MLOAD DUP1 SWAP2 SUB SWAP1 REVERT JUMPDEST DUP7 DUP2 DUP2 MLOAD DUP2 LT PUSH2 0x3AC JUMPI INVALID JUMPDEST PUSH1 0x20 MUL PUSH1 0x20 ADD ADD MLOAD DUP5 PUSH1 0x40 MLOAD PUSH1 0x20 ADD PUSH2 0x3C6 SWAP3 SWAP2 SWAP1 PUSH2 0x1D7F JUMP JUMPDEST PUSH1 0x40 MLOAD PUSH1 0x20 DUP2 DUP4 SUB SUB DUP2 MSTORE SWAP1 PUSH1 0x40 MSTORE SWAP2 POP PUSH32 0xB59B9417237DF8735FE744FCA91CD5730D251CE869959D110A29153590962561 DUP3 PUSH1 0x1 PUSH1 0x40 MLOAD PUSH2 0x409 SWAP3 SWAP2 SWAP1 PUSH2 0x1FF7 JUMP JUMPDEST PUSH1 0x40 MLOAD DUP1 SWAP2 SUB SWAP1 LOG1 PUSH2 0x488 JUMP JUMPDEST DUP4 DUP8 DUP3 DUP2 MLOAD DUP2 LT PUSH2 0x423 JUMPI INVALID JUMPDEST PUSH1 0x20 MUL PUSH1 0x20 ADD ADD MLOAD PUSH1 0x40 MLOAD PUSH1 0x20 ADD PUSH2 0x43C SWAP3 SWAP2 SWAP1 PUSH2 0x1D7F JUMP JUMPDEST PUSH1 0x40 MLOAD PUSH1 0x20 DUP2 DUP4 SUB SUB DUP2 MSTORE SWAP1 PUSH1 0x40 MSTORE SWAP2 POP PUSH32 0xB59B9417237DF8735FE744FCA91CD5730D251CE869959D110A29153590962561 DUP3 PUSH1 0x2 PUSH1 0x40 MLOAD PUSH2 0x47F SWAP3 SWAP2 SWAP1 PUSH2 0x2027 JUMP JUMPDEST PUSH1 0x40 MLOAD DUP1 SWAP2 SUB SWAP1 LOG1 JUMPDEST PUSH1 0x1 PUSH1 0x0 SWAP1 SLOAD SWAP1 PUSH2 0x100 EXP SWAP1 DIV PUSH20 0xFFFFFFFFFFFFFFFFFFFFFFFFFFFFFFFFFFFFFFFF AND PUSH20 0xFFFFFFFFFFFFFFFFFFFFFFFFFFFFFFFFFFFFFFFF AND PUSH4 0xD299DAC0 DUP4 PUSH1 0x4 PUSH1 0x20 PUSH1 0x40 MLOAD DUP5 PUSH4 0xFFFFFFFF AND PUSH1 0xE0 SHL DUP2 MSTORE PUSH1 0x4 ADD PUSH2 0x4E9 SWAP4 SWAP3 SWAP2 SWAP1 PUSH2 0x1FB2 JUMP JUMPDEST PUSH2 0x100 PUSH1 0x40 MLOAD DUP1 DUP4 SUB DUP2 PUSH1 0x0 DUP8 DUP1 EXTCODESIZE ISZERO DUP1 ISZERO PUSH2 0x504 JUMPI PUSH1 0x0 DUP1 REVERT JUMPDEST POP GAS CALL ISZERO DUP1 ISZERO PUSH2 0x518 JUMPI RETURNDATASIZE PUSH1 0x0 DUP1 RETURNDATACOPY RETURNDATASIZE PUSH1 0x0 REVERT JUMPDEST POP POP POP POP PUSH1 0x40 MLOAD RETURNDATASIZE PUSH1 0x1F NOT PUSH1 0x1F DUP3 ADD AND DUP3 ADD DUP1 PUSH1 0x40 MSTORE POP DUP2 ADD SWAP1 PUSH2 0x53C SWAP2 SWAP1 PUSH2 0x159A JUMP JUMPDEST SWAP3 POP PUSH2 0x5FC DUP4 PUSH1 0x0 PUSH1 0x8 DUP2 LT PUSH2 0x54E JUMPI INVALID JUMPDEST PUSH1 0x20 MUL ADD MLOAD DUP5 PUSH1 0x1 PUSH1 0x8 DUP2 LT PUSH2 0x560 JUMPI INVALID JUMPDEST PUSH1 0x20 MUL ADD MLOAD DUP6 PUSH1 0x2 PUSH1 0x8 DUP2 LT PUSH2 0x572 JUMPI INVALID JUMPDEST PUSH1 0x20 MUL ADD MLOAD DUP7 PUSH1 0x3 PUSH1 0x8 DUP2 LT PUSH2 0x584 JUMPI INVALID JUMPDEST PUSH1 0x20 MUL ADD MLOAD DUP8 PUSH1 0x4 PUSH1 0x8 DUP2 LT PUSH2 0x596 JUMPI INVALID JUMPDEST PUSH1 0x20 MUL ADD MLOAD DUP9 PUSH1 0x5 PUSH1 0x8 DUP2 LT PUSH2 0x5A8 JUMPI INVALID JUMPDEST PUSH1 0x20 MUL ADD MLOAD DUP10 PUSH1 0x6 PUSH1 0x8 DUP2 LT PUSH2 0x5BA JUMPI INVALID JUMPDEST PUSH1 0x20 MUL ADD MLOAD DUP11 PUSH1 0x7 PUSH1 0x8 DUP2 LT PUSH2 0x5CC JUMPI INVALID JUMPDEST PUSH1 0x20 MUL ADD MLOAD PUSH1 0x40 MLOAD PUSH1 0x20 ADD PUSH2 0x5E8 SWAP9 SWAP8 SWAP7 SWAP6 SWAP5 SWAP4 SWAP3 SWAP2 SWAP1 PUSH2 0x1DC2 JUMP JUMPDEST PUSH1 0x40 MLOAD PUSH1 0x20 DUP2 DUP4 SUB SUB DUP2 MSTORE SWAP1 PUSH1 0x40 MSTORE PUSH2 0xD1B JUMP JUMPDEST SWAP4 POP PUSH32 0x72969AEF5690044312F898780FF7189689547472AAEA4EB1E0DE070B96EBC278 DUP5 PUSH1 0x3 PUSH1 0x40 MLOAD PUSH2 0x630 SWAP3 SWAP2 SWAP1 PUSH2 0x1EB3 JUMP JUMPDEST PUSH1 0x40 MLOAD DUP1 SWAP2 SUB SWAP1 LOG1 PUSH1 0x1 DUP9 SWAP1 SHR SWAP8 POP DUP1 DUP1 PUSH1 0x1 ADD SWAP2 POP POP PUSH2 0x336 JUMP JUMPDEST POP DUP3 SWAP5 POP POP POP POP POP SWAP4 SWAP3 POP POP POP JUMP JUMPDEST PUSH1 0x0 PUSH2 0x703 DUP3 PUSH1 0x4 DUP1 SLOAD PUSH1 0x1 DUP2 PUSH1 0x1 AND ISZERO PUSH2 0x100 MUL SUB AND PUSH1 0x2 SWAP1 DIV DUP1 PUSH1 0x1F ADD PUSH1 0x20 DUP1 SWAP2 DIV MUL PUSH1 0x20 ADD PUSH1 0x40 MLOAD SWAP1 DUP2 ADD PUSH1 0x40 MSTORE DUP1 SWAP3 SWAP2 SWAP1 DUP2 DUP2 MSTORE PUSH1 0x20 ADD DUP3 DUP1 SLOAD PUSH1 0x1 DUP2 PUSH1 0x1 AND ISZERO PUSH2 0x100 MUL SUB AND PUSH1 0x2 SWAP1 DIV DUP1 ISZERO PUSH2 0x6F7 JUMPI DUP1 PUSH1 0x1F LT PUSH2 0x6CC JUMPI PUSH2 0x100 DUP1 DUP4 SLOAD DIV MUL DUP4 MSTORE SWAP2 PUSH1 0x20 ADD SWAP2 PUSH2 0x6F7 JUMP JUMPDEST DUP3 ADD SWAP2 SWAP1 PUSH1 0x0 MSTORE PUSH1 0x20 PUSH1 0x0 KECCAK256 SWAP1 JUMPDEST DUP2 SLOAD DUP2 MSTORE SWAP1 PUSH1 0x1 ADD SWAP1 PUSH1 0x20 ADD DUP1 DUP4 GT PUSH2 0x6DA JUMPI DUP3 SWAP1 SUB PUSH1 0x1F AND DUP3 ADD SWAP2 JUMPDEST POP POP POP POP POP PUSH1 0x0 PUSH2 0x8B9 JUMP JUMPDEST SWAP1 POP SWAP2 SWAP1 POP JUMP JUMPDEST PUSH1 0x0 DUP1 PUSH1 0x0 SWAP1 POP JUMPDEST PUSH1 0x20 DUP2 PUSH1 0xFF AND LT DUP1 ISZERO PUSH2 0x75D JUMPI POP PUSH1 0x0 PUSH1 0xF8 SHL DUP4 DUP3 PUSH1 0xFF AND PUSH1 0x20 DUP2 LT PUSH2 0x734 JUMPI INVALID JUMPDEST BYTE PUSH1 0xF8 SHL PUSH31 0xFFFFFFFFFFFFFFFFFFFFFFFFFFFFFFFFFFFFFFFFFFFFFFFFFFFFFFFFFFFFFF NOT AND EQ ISZERO JUMPDEST ISZERO PUSH2 0x76F JUMPI DUP1 DUP1 PUSH1 0x1 ADD SWAP2 POP POP PUSH2 0x712 JUMP JUMPDEST PUSH1 0x60 DUP2 PUSH1 0xFF AND PUSH8 0xFFFFFFFFFFFFFFFF DUP2 GT DUP1 ISZERO PUSH2 0x78B JUMPI PUSH1 0x0 DUP1 REVERT JUMPDEST POP PUSH1 0x40 MLOAD SWAP1 DUP1 DUP3 MSTORE DUP1 PUSH1 0x1F ADD PUSH1 0x1F NOT AND PUSH1 0x20 ADD DUP3 ADD PUSH1 0x40 MSTORE DUP1 ISZERO PUSH2 0x7BE JUMPI DUP2 PUSH1 0x20 ADD PUSH1 0x1 DUP3 MUL DUP1 CALLDATASIZE DUP4 CALLDATACOPY DUP1 DUP3 ADD SWAP2 POP POP SWAP1 POP JUMPDEST POP SWAP1 POP PUSH1 0x0 SWAP2 POP JUMPDEST PUSH1 0x20 DUP3 PUSH1 0xFF AND LT DUP1 ISZERO PUSH2 0x811 JUMPI POP PUSH1 0x0 PUSH1 0xF8 SHL DUP5 DUP4 PUSH1 0xFF AND PUSH1 0x20 DUP2 LT PUSH2 0x7E8 JUMPI INVALID JUMPDEST BYTE PUSH1 0xF8 SHL PUSH31 0xFFFFFFFFFFFFFFFFFFFFFFFFFFFFFFFFFFFFFFFFFFFFFFFFFFFFFFFFFFFFFF NOT AND EQ ISZERO JUMPDEST ISZERO PUSH2 0x877 JUMPI DUP4 DUP3 PUSH1 0x1F SUB PUSH1 0xFF AND PUSH1 0x20 DUP2 LT PUSH2 0x828 JUMPI INVALID JUMPDEST BYTE PUSH1 0xF8 SHL DUP2 DUP4 PUSH1 0xFF AND DUP2 MLOAD DUP2 LT PUSH2 0x83B JUMPI INVALID JUMPDEST PUSH1 0x20 ADD ADD SWAP1 PUSH31 0xFFFFFFFFFFFFFFFFFFFFFFFFFFFFFFFFFFFFFFFFFFFFFFFFFFFFFFFFFFFFFF NOT AND SWAP1 DUP2 PUSH1 0x0 BYTE SWAP1 MSTORE8 POP DUP2 DUP1 PUSH1 0x1 ADD SWAP3 POP POP PUSH2 0x7C6 JUMP JUMPDEST PUSH2 0x880 DUP2 PUSH2 0xD1B JUMP JUMPDEST SWAP3 POP POP POP SWAP2 SWAP1 POP JUMP JUMPDEST PUSH1 0x0 DUP1 PUSH2 0x897 DUP6 DUP6 DUP6 PUSH2 0x248 JUMP JUMPDEST SWAP1 POP DUP1 DUP7 EQ ISZERO PUSH2 0x8AB JUMPI PUSH1 0x1 SWAP2 POP POP PUSH2 0x8B1 JUMP JUMPDEST PUSH1 0x0 SWAP2 POP POP JUMPDEST SWAP5 SWAP4 POP POP POP POP JUMP JUMPDEST PUSH1 0x0 PUSH2 0x8C3 PUSH2 0xF04 JUMP JUMPDEST PUSH1 0x60 DUP6 PUSH1 0x40 MLOAD PUSH1 0x20 ADD PUSH2 0x8D6 SWAP2 SWAP1 PUSH2 0x1DAB JUMP JUMPDEST PUSH1 0x40 MLOAD PUSH1 0x20 DUP2 DUP4 SUB SUB DUP2 MSTORE SWAP1 PUSH1 0x40 MSTORE SWAP1 POP PUSH1 0x60 DUP1 PUSH1 0x1 PUSH1 0x0 SWAP1 SLOAD SWAP1 PUSH2 0x100 EXP SWAP1 DIV PUSH20 0xFFFFFFFFFFFFFFFFFFFFFFFFFFFFFFFFFFFFFFFF AND PUSH20 0xFFFFFFFFFFFFFFFFFFFFFFFFFFFFFFFFFFFFFFFF AND PUSH4 0x1E092423 DUP5 DUP5 DUP5 DUP12 PUSH1 0x20 PUSH1 0x40 MLOAD DUP7 PUSH4 0xFFFFFFFF AND PUSH1 0xE0 SHL DUP2 MSTORE PUSH1 0x4 ADD PUSH2 0x94E SWAP6 SWAP5 SWAP4 SWAP3 SWAP2 SWAP1 PUSH2 0x1EFE JUMP JUMPDEST PUSH2 0x100 PUSH1 0x40 MLOAD DUP1 DUP4 SUB DUP2 PUSH1 0x0 DUP8 DUP1 EXTCODESIZE ISZERO DUP1 ISZERO PUSH2 0x969 JUMPI PUSH1 0x0 DUP1 REVERT JUMPDEST POP GAS CALL ISZERO DUP1 ISZERO PUSH2 0x97D JUMPI RETURNDATASIZE PUSH1 0x0 DUP1 RETURNDATACOPY RETURNDATASIZE PUSH1 0x0 REVERT JUMPDEST POP POP POP POP PUSH1 0x40 MLOAD RETURNDATASIZE PUSH1 0x1F NOT PUSH1 0x1F DUP3 ADD AND DUP3 ADD DUP1 PUSH1 0x40 MSTORE POP DUP2 ADD SWAP1 PUSH2 0x9A1 SWAP2 SWAP1 PUSH2 0x159A JUMP JUMPDEST SWAP4 POP PUSH1 0x60 DUP5 PUSH1 0x0 PUSH1 0x8 DUP2 LT PUSH2 0x9B2 JUMPI INVALID JUMPDEST PUSH1 0x20 MUL ADD MLOAD DUP6 PUSH1 0x1 PUSH1 0x8 DUP2 LT PUSH2 0x9C4 JUMPI INVALID JUMPDEST PUSH1 0x20 MUL ADD MLOAD DUP7 PUSH1 0x2 PUSH1 0x8 DUP2 LT PUSH2 0x9D6 JUMPI INVALID JUMPDEST PUSH1 0x20 MUL ADD MLOAD DUP8 PUSH1 0x3 PUSH1 0x8 DUP2 LT PUSH2 0x9E8 JUMPI INVALID JUMPDEST PUSH1 0x20 MUL ADD MLOAD DUP9 PUSH1 0x4 PUSH1 0x8 DUP2 LT PUSH2 0x9FA JUMPI INVALID JUMPDEST PUSH1 0x20 MUL ADD MLOAD DUP10 PUSH1 0x5 PUSH1 0x8 DUP2 LT PUSH2 0xA0C JUMPI INVALID JUMPDEST PUSH1 0x20 MUL ADD MLOAD DUP11 PUSH1 0x6 PUSH1 0x8 DUP2 LT PUSH2 0xA1E JUMPI INVALID JUMPDEST PUSH1 0x20 MUL ADD MLOAD DUP12 PUSH1 0x7 PUSH1 0x8 DUP2 LT PUSH2 0xA30 JUMPI INVALID JUMPDEST PUSH1 0x20 MUL ADD MLOAD PUSH1 0x40 MLOAD PUSH1 0x20 ADD PUSH2 0xA4C SWAP9 SWAP8 SWAP7 SWAP6 SWAP5 SWAP4 SWAP3 SWAP2 SWAP1 PUSH2 0x1DC2 JUMP JUMPDEST PUSH1 0x40 MLOAD PUSH1 0x20 DUP2 DUP4 SUB SUB DUP2 MSTORE SWAP1 PUSH1 0x40 MSTORE SWAP1 POP PUSH1 0x0 PUSH2 0xA68 DUP3 PUSH2 0xD1B JUMP JUMPDEST SWAP1 POP PUSH1 0x1 ISZERO ISZERO DUP9 ISZERO ISZERO EQ ISZERO PUSH2 0xA83 JUMPI PUSH2 0xA80 DUP2 PUSH2 0x70A JUMP JUMPDEST SWAP1 POP JUMPDEST PUSH32 0x72969AEF5690044312F898780FF7189689547472AAEA4EB1E0DE070B96EBC278 DUP2 PUSH1 0x1 PUSH1 0x40 MLOAD PUSH2 0xAB5 SWAP3 SWAP2 SWAP1 PUSH2 0x1E8A JUMP JUMPDEST PUSH1 0x40 MLOAD DUP1 SWAP2 SUB SWAP1 LOG1 DUP1 SWAP7 POP POP POP POP POP POP POP SWAP4 SWAP3 POP POP POP JUMP JUMPDEST PUSH1 0x0 DUP1 PUSH2 0xC23 PUSH1 0x3 PUSH1 0x0 SWAP1 SLOAD SWAP1 PUSH2 0x100 EXP SWAP1 DIV PUSH20 0xFFFFFFFFFFFFFFFFFFFFFFFFFFFFFFFFFFFFFFFF AND PUSH20 0xFFFFFFFFFFFFFFFFFFFFFFFFFFFFFFFFFFFFFFFF AND PUSH4 0x6675D6FD DUP9 PUSH1 0x40 MLOAD DUP3 PUSH4 0xFFFFFFFF AND PUSH1 0xE0 SHL DUP2 MSTORE PUSH1 0x4 ADD PUSH2 0xB2E SWAP2 SWAP1 PUSH2 0x20B7 JUMP JUMPDEST PUSH1 0x0 PUSH1 0x40 MLOAD DUP1 DUP4 SUB DUP2 DUP7 DUP1 EXTCODESIZE ISZERO DUP1 ISZERO PUSH2 0xB46 JUMPI PUSH1 0x0 DUP1 REVERT JUMPDEST POP GAS STATICCALL ISZERO DUP1 ISZERO PUSH2 0xB5A JUMPI RETURNDATASIZE PUSH1 0x0 DUP1 RETURNDATACOPY RETURNDATASIZE PUSH1 0x0 REVERT JUMPDEST POP POP POP POP PUSH1 0x40 MLOAD RETURNDATASIZE PUSH1 0x0 DUP3 RETURNDATACOPY RETURNDATASIZE PUSH1 0x1F NOT PUSH1 0x1F DUP3 ADD AND DUP3 ADD DUP1 PUSH1 0x40 MSTORE POP DUP2 ADD SWAP1 PUSH2 0xB83 SWAP2 SWAP1 PUSH2 0x1710 JUMP JUMPDEST PUSH1 0x4 DUP1 SLOAD PUSH1 0x1 DUP2 PUSH1 0x1 AND ISZERO PUSH2 0x100 MUL SUB AND PUSH1 0x2 SWAP1 DIV DUP1 PUSH1 0x1F ADD PUSH1 0x20 DUP1 SWAP2 DIV MUL PUSH1 0x20 ADD PUSH1 0x40 MLOAD SWAP1 DUP2 ADD PUSH1 0x40 MSTORE DUP1 SWAP3 SWAP2 SWAP1 DUP2 DUP2 MSTORE PUSH1 0x20 ADD DUP3 DUP1 SLOAD PUSH1 0x1 DUP2 PUSH1 0x1 AND ISZERO PUSH2 0x100 MUL SUB AND PUSH1 0x2 SWAP1 DIV DUP1 ISZERO PUSH2 0xC19 JUMPI DUP1 PUSH1 0x1F LT PUSH2 0xBEE JUMPI PUSH2 0x100 DUP1 DUP4 SLOAD DIV MUL DUP4 MSTORE SWAP2 PUSH1 0x20 ADD SWAP2 PUSH2 0xC19 JUMP JUMPDEST DUP3 ADD SWAP2 SWAP1 PUSH1 0x0 MSTORE PUSH1 0x20 PUSH1 0x0 KECCAK256 SWAP1 JUMPDEST DUP2 SLOAD DUP2 MSTORE SWAP1 PUSH1 0x1 ADD SWAP1 PUSH1 0x20 ADD DUP1 DUP4 GT PUSH2 0xBFC JUMPI DUP3 SWAP1 SUB PUSH1 0x1F AND DUP3 ADD SWAP2 JUMPDEST POP POP POP POP POP PUSH2 0xEEE JUMP JUMPDEST SWAP1 POP PUSH2 0xC2D PUSH2 0xFA7 JUMP JUMPDEST PUSH1 0x2 PUSH1 0x0 SWAP1 SLOAD SWAP1 PUSH2 0x100 EXP SWAP1 DIV PUSH20 0xFFFFFFFFFFFFFFFFFFFFFFFFFFFFFFFFFFFFFFFF AND PUSH20 0xFFFFFFFFFFFFFFFFFFFFFFFFFFFFFFFFFFFFFFFF AND PUSH4 0x59D4D188 DUP6 PUSH1 0x40 MLOAD DUP3 PUSH4 0xFFFFFFFF AND PUSH1 0xE0 SHL DUP2 MSTORE PUSH1 0x4 ADD PUSH2 0xC88 SWAP2 SWAP1 PUSH2 0x20D9 JUMP JUMPDEST PUSH2 0x100 PUSH1 0x40 MLOAD DUP1 DUP4 SUB DUP2 DUP7 DUP1 EXTCODESIZE ISZERO DUP1 ISZERO PUSH2 0xCA1 JUMPI PUSH1 0x0 DUP1 REVERT JUMPDEST POP GAS STATICCALL ISZERO DUP1 ISZERO PUSH2 0xCB5 JUMPI RETURNDATASIZE PUSH1 0x0 DUP1 RETURNDATACOPY RETURNDATASIZE PUSH1 0x0 REVERT JUMPDEST POP POP POP POP PUSH1 0x40 MLOAD RETURNDATASIZE PUSH1 0x1F NOT PUSH1 0x1F DUP3 ADD AND DUP3 ADD DUP1 PUSH1 0x40 MSTORE POP DUP2 ADD SWAP1 PUSH2 0xCD9 SWAP2 SWAP1 PUSH2 0x18CF JUMP JUMPDEST SWAP1 POP PUSH1 0x0 DUP2 PUSH1 0xA0 ADD MLOAD PUSH1 0x0 SHL SWAP1 POP PUSH2 0xCF8 DUP4 DUP8 PUSH4 0xFFFFFFFF AND DUP10 PUSH2 0x248 JUMP JUMPDEST DUP2 EQ ISZERO PUSH2 0xD0B JUMPI PUSH1 0x1 SWAP4 POP POP POP POP PUSH2 0xD13 JUMP JUMPDEST PUSH1 0x0 SWAP4 POP POP POP POP JUMPDEST SWAP5 SWAP4 POP POP POP POP JUMP JUMPDEST PUSH1 0x0 PUSH1 0x60 DUP3 SWAP1 POP PUSH1 0x0 DUP2 MLOAD EQ ISZERO PUSH2 0xD38 JUMPI PUSH1 0x0 DUP1 SHL SWAP2 POP POP PUSH2 0xD41 JUMP JUMPDEST PUSH1 0x20 DUP4 ADD MLOAD SWAP2 POP POP JUMPDEST SWAP2 SWAP1 POP JUMP JUMPDEST PUSH1 0x60 PUSH2 0xD50 PUSH2 0xF04 JUMP JUMPDEST PUSH1 0x60 DUP5 PUSH1 0x40 MLOAD PUSH1 0x20 ADD PUSH2 0xD63 SWAP2 SWAP1 PUSH2 0x1DAB JUMP JUMPDEST PUSH1 0x40 MLOAD PUSH1 0x20 DUP2 DUP4 SUB SUB DUP2 MSTORE SWAP1 PUSH1 0x40 MSTORE SWAP1 POP PUSH1 0x1 PUSH1 0x0 SWAP1 SLOAD SWAP1 PUSH2 0x100 EXP SWAP1 DIV PUSH20 0xFFFFFFFFFFFFFFFFFFFFFFFFFFFFFFFFFFFFFFFF AND PUSH20 0xFFFFFFFFFFFFFFFFFFFFFFFFFFFFFFFFFFFFFFFF AND PUSH4 0xD299DAC0 DUP3 DUP7 PUSH1 0x40 DUP1 MLOAD DUP5 PUSH4 0xFFFFFFFF AND PUSH1 0xE0 SHL DUP2 MSTORE PUSH1 0x4 ADD PUSH2 0xDD3 SWAP4 SWAP3 SWAP2 SWAP1 PUSH2 0x1F6D JUMP JUMPDEST PUSH2 0x100 PUSH1 0x40 MLOAD DUP1 DUP4 SUB DUP2 PUSH1 0x0 DUP8 DUP1 EXTCODESIZE ISZERO DUP1 ISZERO PUSH2 0xDEE JUMPI PUSH1 0x0 DUP1 REVERT JUMPDEST POP GAS CALL ISZERO DUP1 ISZERO PUSH2 0xE02 JUMPI RETURNDATASIZE PUSH1 0x0 DUP1 RETURNDATACOPY RETURNDATASIZE PUSH1 0x0 REVERT JUMPDEST POP POP POP POP PUSH1 0x40 MLOAD RETURNDATASIZE PUSH1 0x1F NOT PUSH1 0x1F DUP3 ADD AND DUP3 ADD DUP1 PUSH1 0x40 MSTORE POP DUP2 ADD SWAP1 PUSH2 0xE26 SWAP2 SWAP1 PUSH2 0x159A JUMP JUMPDEST SWAP2 POP PUSH1 0x60 DUP3 PUSH1 0x0 PUSH1 0x8 DUP2 LT PUSH2 0xE37 JUMPI INVALID JUMPDEST PUSH1 0x20 MUL ADD MLOAD DUP4 PUSH1 0x1 PUSH1 0x8 DUP2 LT PUSH2 0xE49 JUMPI INVALID JUMPDEST PUSH1 0x20 MUL ADD MLOAD DUP5 PUSH1 0x2 PUSH1 0x8 DUP2 LT PUSH2 0xE5B JUMPI INVALID JUMPDEST PUSH1 0x20 MUL ADD MLOAD DUP6 PUSH1 0x3 PUSH1 0x8 DUP2 LT PUSH2 0xE6D JUMPI INVALID JUMPDEST PUSH1 0x20 MUL ADD MLOAD DUP7 PUSH1 0x4 PUSH1 0x8 DUP2 LT PUSH2 0xE7F JUMPI INVALID JUMPDEST PUSH1 0x20 MUL ADD MLOAD DUP8 PUSH1 0x5 PUSH1 0x8 DUP2 LT PUSH2 0xE91 JUMPI INVALID JUMPDEST PUSH1 0x20 MUL ADD MLOAD DUP9 PUSH1 0x6 PUSH1 0x8 DUP2 LT PUSH2 0xEA3 JUMPI INVALID JUMPDEST PUSH1 0x20 MUL ADD MLOAD DUP10 PUSH1 0x7 PUSH1 0x8 DUP2 LT PUSH2 0xEB5 JUMPI INVALID JUMPDEST PUSH1 0x20 MUL ADD MLOAD PUSH1 0x40 MLOAD PUSH1 0x20 ADD PUSH2 0xED1 SWAP9 SWAP8 SWAP7 SWAP6 SWAP5 SWAP4 SWAP3 SWAP2 SWAP1 PUSH2 0x1DC2 JUMP JUMPDEST PUSH1 0x40 MLOAD PUSH1 0x20 DUP2 DUP4 SUB SUB DUP2 MSTORE SWAP1 PUSH1 0x40 MSTORE SWAP1 POP DUP1 SWAP4 POP POP POP POP SWAP3 SWAP2 POP POP JUMP JUMPDEST PUSH1 0x0 PUSH2 0xEFC DUP4 DUP4 PUSH1 0x0 PUSH2 0x8B9 JUMP JUMPDEST SWAP1 POP SWAP3 SWAP2 POP POP JUMP JUMPDEST PUSH1 0x40 MLOAD DUP1 PUSH2 0x100 ADD PUSH1 0x40 MSTORE DUP1 PUSH1 0x8 SWAP1 PUSH1 0x20 DUP3 MUL DUP1 CALLDATASIZE DUP4 CALLDATACOPY DUP1 DUP3 ADD SWAP2 POP POP SWAP1 POP POP SWAP1 JUMP JUMPDEST DUP3 DUP1 SLOAD PUSH1 0x1 DUP2 PUSH1 0x1 AND ISZERO PUSH2 0x100 MUL SUB AND PUSH1 0x2 SWAP1 DIV SWAP1 PUSH1 0x0 MSTORE PUSH1 0x20 PUSH1 0x0 KECCAK256 SWAP1 PUSH1 0x1F ADD PUSH1 0x20 SWAP1 DIV DUP2 ADD SWAP3 DUP3 PUSH1 0x1F LT PUSH2 0xF68 JUMPI DUP1 MLOAD PUSH1 0xFF NOT AND DUP4 DUP1 ADD OR DUP6 SSTORE PUSH2 0xF96 JUMP JUMPDEST DUP3 DUP1 ADD PUSH1 0x1 ADD DUP6 SSTORE DUP3 ISZERO PUSH2 0xF96 JUMPI SWAP2 DUP3 ADD JUMPDEST DUP3 DUP2 GT ISZERO PUSH2 0xF95 JUMPI DUP3 MLOAD DUP3 SSTORE SWAP2 PUSH1 0x20 ADD SWAP2 SWAP1 PUSH1 0x1 ADD SWAP1 PUSH2 0xF7A JUMP JUMPDEST JUMPDEST POP SWAP1 POP PUSH2 0xFA3 SWAP2 SWAP1 PUSH2 0x102A JUMP JUMPDEST POP SWAP1 JUMP JUMPDEST PUSH1 0x40 MLOAD DUP1 PUSH2 0x100 ADD PUSH1 0x40 MSTORE DUP1 PUSH1 0x0 PUSH4 0xFFFFFFFF AND DUP2 MSTORE PUSH1 0x20 ADD PUSH1 0x0 PUSH4 0xFFFFFFFF AND DUP2 MSTORE PUSH1 0x20 ADD PUSH1 0x0 PUSH20 0xFFFFFFFFFFFFFFFFFFFFFFFFFFFFFFFFFFFFFFFF AND DUP2 MSTORE PUSH1 0x20 ADD PUSH1 0x0 PUSH20 0xFFFFFFFFFFFFFFFFFFFFFFFFFFFFFFFFFFFFFFFF AND DUP2 MSTORE PUSH1 0x20 ADD PUSH1 0x0 PUSH4 0xFFFFFFFF AND DUP2 MSTORE PUSH1 0x20 ADD PUSH1 0x0 DUP2 MSTORE PUSH1 0x20 ADD PUSH1 0x0 DUP2 MSTORE PUSH1 0x20 ADD PUSH1 0x0 DUP2 MSTORE POP SWAP1 JUMP JUMPDEST JUMPDEST DUP1 DUP3 GT ISZERO PUSH2 0x1043 JUMPI PUSH1 0x0 DUP2 PUSH1 0x0 SWAP1 SSTORE POP PUSH1 0x1 ADD PUSH2 0x102B JUMP JUMPDEST POP SWAP1 JUMP JUMPDEST PUSH1 0x0 DUP3 PUSH1 0x1F DUP4 ADD SLT PUSH2 0x1058 JUMPI PUSH1 0x0 DUP1 REVERT JUMPDEST DUP2 CALLDATALOAD PUSH2 0x106B PUSH2 0x1066 DUP3 PUSH2 0x2121 JUMP JUMPDEST PUSH2 0x20F4 JUMP JUMPDEST SWAP2 POP DUP2 DUP2 DUP4 MSTORE PUSH1 0x20 DUP5 ADD SWAP4 POP PUSH1 0x20 DUP2 ADD SWAP1 POP DUP4 DUP6 PUSH1 0x20 DUP5 MUL DUP3 ADD GT ISZERO PUSH2 0x1090 JUMPI PUSH1 0x0 DUP1 REVERT JUMPDEST PUSH1 0x0 JUMPDEST DUP4 DUP2 LT ISZERO PUSH2 0x10C0 JUMPI DUP2 PUSH2 0x10A6 DUP9 DUP3 PUSH2 0x11D6 JUMP JUMPDEST DUP5 MSTORE PUSH1 0x20 DUP5 ADD SWAP4 POP PUSH1 0x20 DUP4 ADD SWAP3 POP POP PUSH1 0x1 DUP2 ADD SWAP1 POP PUSH2 0x1093 JUMP JUMPDEST POP POP POP POP SWAP3 SWAP2 POP POP JUMP JUMPDEST PUSH1 0x0 DUP3 PUSH1 0x1F DUP4 ADD SLT PUSH2 0x10DB JUMPI PUSH1 0x0 DUP1 REVERT JUMPDEST DUP2 CALLDATALOAD PUSH2 0x10EE PUSH2 0x10E9 DUP3 PUSH2 0x2149 JUMP JUMPDEST PUSH2 0x20F4 JUMP JUMPDEST SWAP2 POP DUP2 DUP2 DUP4 MSTORE PUSH1 0x20 DUP5 ADD SWAP4 POP PUSH1 0x20 DUP2 ADD SWAP1 POP DUP4 DUP6 PUSH1 0x40 DUP5 MUL DUP3 ADD GT ISZERO PUSH2 0x1113 JUMPI PUSH1 0x0 DUP1 REVERT JUMPDEST PUSH1 0x0 JUMPDEST DUP4 DUP2 LT ISZERO PUSH2 0x1143 JUMPI DUP2 PUSH2 0x1129 DUP9 DUP3 PUSH2 0x1293 JUMP JUMPDEST DUP5 MSTORE PUSH1 0x20 DUP5 ADD SWAP4 POP PUSH1 0x40 DUP4 ADD SWAP3 POP POP PUSH1 0x1 DUP2 ADD SWAP1 POP PUSH2 0x1116 JUMP JUMPDEST POP POP POP POP SWAP3 SWAP2 POP POP JUMP JUMPDEST PUSH1 0x0 DUP3 PUSH1 0x1F DUP4 ADD SLT PUSH2 0x115E JUMPI PUSH1 0x0 DUP1 REVERT JUMPDEST PUSH1 0x8 PUSH2 0x1171 PUSH2 0x116C DUP3 PUSH2 0x2171 JUMP JUMPDEST PUSH2 0x20F4 JUMP JUMPDEST SWAP2 POP DUP2 DUP4 DUP6 PUSH1 0x20 DUP5 MUL DUP3 ADD GT ISZERO PUSH2 0x1187 JUMPI PUSH1 0x0 DUP1 REVERT JUMPDEST PUSH1 0x0 JUMPDEST DUP4 DUP2 LT ISZERO PUSH2 0x11B7 JUMPI DUP2 PUSH2 0x119D DUP9 DUP3 PUSH2 0x1585 JUMP JUMPDEST DUP5 MSTORE PUSH1 0x20 DUP5 ADD SWAP4 POP PUSH1 0x20 DUP4 ADD SWAP3 POP POP PUSH1 0x1 DUP2 ADD SWAP1 POP PUSH2 0x118A JUMP JUMPDEST POP POP POP POP SWAP3 SWAP2 POP POP JUMP JUMPDEST PUSH1 0x0 DUP2 CALLDATALOAD SWAP1 POP PUSH2 0x11D0 DUP2 PUSH2 0x239A JUMP JUMPDEST SWAP3 SWAP2 POP POP JUMP JUMPDEST PUSH1 0x0 DUP2 CALLDATALOAD SWAP1 POP PUSH2 0x11E5 DUP2 PUSH2 0x23B1 JUMP JUMPDEST SWAP3 SWAP2 POP POP JUMP JUMPDEST PUSH1 0x0 DUP3 PUSH1 0x1F DUP4 ADD SLT PUSH2 0x11FC JUMPI PUSH1 0x0 DUP1 REVERT JUMPDEST DUP2 CALLDATALOAD PUSH2 0x120F PUSH2 0x120A DUP3 PUSH2 0x2193 JUMP JUMPDEST PUSH2 0x20F4 JUMP JUMPDEST SWAP2 POP DUP1 DUP3 MSTORE PUSH1 0x20 DUP4 ADD PUSH1 0x20 DUP4 ADD DUP6 DUP4 DUP4 ADD GT ISZERO PUSH2 0x122B JUMPI PUSH1 0x0 DUP1 REVERT JUMPDEST PUSH2 0x1236 DUP4 DUP3 DUP5 PUSH2 0x231E JUMP JUMPDEST POP POP POP SWAP3 SWAP2 POP POP JUMP JUMPDEST PUSH1 0x0 DUP3 PUSH1 0x1F DUP4 ADD SLT PUSH2 0x1250 JUMPI PUSH1 0x0 DUP1 REVERT JUMPDEST DUP2 MLOAD PUSH2 0x1263 PUSH2 0x125E DUP3 PUSH2 0x2193 JUMP JUMPDEST PUSH2 0x20F4 JUMP JUMPDEST SWAP2 POP DUP1 DUP3 MSTORE PUSH1 0x20 DUP4 ADD PUSH1 0x20 DUP4 ADD DUP6 DUP4 DUP4 ADD GT ISZERO PUSH2 0x127F JUMPI PUSH1 0x0 DUP1 REVERT JUMPDEST PUSH2 0x128A DUP4 DUP3 DUP5 PUSH2 0x232D JUMP JUMPDEST POP POP POP SWAP3 SWAP2 POP POP JUMP JUMPDEST PUSH1 0x0 PUSH1 0x40 DUP3 DUP5 SUB SLT ISZERO PUSH2 0x12A5 JUMPI PUSH1 0x0 DUP1 REVERT JUMPDEST PUSH2 0x12AF PUSH1 0x40 PUSH2 0x20F4 JUMP JUMPDEST SWAP1 POP PUSH1 0x0 PUSH2 0x12BF DUP5 DUP3 DUP6 ADD PUSH2 0x14F2 JUMP JUMPDEST PUSH1 0x0 DUP4 ADD MSTORE POP PUSH1 0x20 PUSH2 0x12D3 DUP5 DUP3 DUP6 ADD PUSH2 0x1570 JUMP JUMPDEST PUSH1 0x20 DUP4 ADD MSTORE POP SWAP3 SWAP2 POP POP JUMP JUMPDEST PUSH1 0x0 PUSH2 0x160 DUP3 DUP5 SUB SLT ISZERO PUSH2 0x12F2 JUMPI PUSH1 0x0 DUP1 REVERT JUMPDEST PUSH2 0x12FD PUSH2 0x160 PUSH2 0x20F4 JUMP JUMPDEST SWAP1 POP PUSH1 0x0 PUSH2 0x130D DUP5 DUP3 DUP6 ADD PUSH2 0x14DD JUMP JUMPDEST PUSH1 0x0 DUP4 ADD MSTORE POP PUSH1 0x20 PUSH2 0x1321 DUP5 DUP3 DUP6 ADD PUSH2 0x14DD JUMP JUMPDEST PUSH1 0x20 DUP4 ADD MSTORE POP PUSH1 0x40 PUSH2 0x1335 DUP5 DUP3 DUP6 ADD PUSH2 0x14F2 JUMP JUMPDEST PUSH1 0x40 DUP4 ADD MSTORE POP PUSH1 0x60 PUSH2 0x1349 DUP5 DUP3 DUP6 ADD PUSH2 0x1546 JUMP JUMPDEST PUSH1 0x60 DUP4 ADD MSTORE POP PUSH1 0x80 PUSH2 0x135D DUP5 DUP3 DUP6 ADD PUSH2 0x1546 JUMP JUMPDEST PUSH1 0x80 DUP4 ADD MSTORE POP PUSH1 0xA0 PUSH2 0x1371 DUP5 DUP3 DUP6 ADD PUSH2 0x14F2 JUMP JUMPDEST PUSH1 0xA0 DUP4 ADD MSTORE POP PUSH1 0xC0 DUP3 ADD CALLDATALOAD PUSH8 0xFFFFFFFFFFFFFFFF DUP2 GT ISZERO PUSH2 0x1391 JUMPI PUSH1 0x0 DUP1 REVERT JUMPDEST PUSH2 0x139D DUP5 DUP3 DUP6 ADD PUSH2 0x10CA JUMP JUMPDEST PUSH1 0xC0 DUP4 ADD MSTORE POP PUSH1 0xE0 DUP3 ADD CALLDATALOAD PUSH8 0xFFFFFFFFFFFFFFFF DUP2 GT ISZERO PUSH2 0x13BD JUMPI PUSH1 0x0 DUP1 REVERT JUMPDEST PUSH2 0x13C9 DUP5 DUP3 DUP6 ADD PUSH2 0x10CA JUMP JUMPDEST PUSH1 0xE0 DUP4 ADD MSTORE POP PUSH2 0x100 PUSH2 0x13DE DUP5 DUP3 DUP6 ADD PUSH2 0x1546 JUMP JUMPDEST PUSH2 0x100 DUP4 ADD MSTORE POP PUSH2 0x120 PUSH2 0x13F4 DUP5 DUP3 DUP6 ADD PUSH2 0x151C JUMP JUMPDEST PUSH2 0x120 DUP4 ADD MSTORE POP PUSH2 0x140 PUSH2 0x140A DUP5 DUP3 DUP6 ADD PUSH2 0x1546 JUMP JUMPDEST PUSH2 0x140 DUP4 ADD MSTORE POP SWAP3 SWAP2 POP POP JUMP JUMPDEST PUSH1 0x0 PUSH2 0x100 DUP3 DUP5 SUB SLT ISZERO PUSH2 0x142A JUMPI PUSH1 0x0 DUP1 REVERT JUMPDEST PUSH2 0x1435 PUSH2 0x100 PUSH2 0x20F4 JUMP JUMPDEST SWAP1 POP PUSH1 0x0 PUSH2 0x1445 DUP5 DUP3 DUP6 ADD PUSH2 0x155B JUMP JUMPDEST PUSH1 0x0 DUP4 ADD MSTORE POP PUSH1 0x20 PUSH2 0x1459 DUP5 DUP3 DUP6 ADD PUSH2 0x155B JUMP JUMPDEST PUSH1 0x20 DUP4 ADD MSTORE POP PUSH1 0x40 PUSH2 0x146D DUP5 DUP3 DUP6 ADD PUSH2 0x1507 JUMP JUMPDEST PUSH1 0x40 DUP4 ADD MSTORE POP PUSH1 0x60 PUSH2 0x1481 DUP5 DUP3 DUP6 ADD PUSH2 0x1507 JUMP JUMPDEST PUSH1 0x60 DUP4 ADD MSTORE POP PUSH1 0x80 PUSH2 0x1495 DUP5 DUP3 DUP6 ADD PUSH2 0x155B JUMP JUMPDEST PUSH1 0x80 DUP4 ADD MSTORE POP PUSH1 0xA0 PUSH2 0x14A9 DUP5 DUP3 DUP6 ADD PUSH2 0x1531 JUMP JUMPDEST PUSH1 0xA0 DUP4 ADD MSTORE POP PUSH1 0xC0 PUSH2 0x14BD DUP5 DUP3 DUP6 ADD PUSH2 0x1531 JUMP JUMPDEST PUSH1 0xC0 DUP4 ADD MSTORE POP PUSH1 0xE0 PUSH2 0x14D1 DUP5 DUP3 DUP6 ADD PUSH2 0x1531 JUMP JUMPDEST PUSH1 0xE0 DUP4 ADD MSTORE POP SWAP3 SWAP2 POP POP JUMP JUMPDEST PUSH1 0x0 DUP2 CALLDATALOAD SWAP1 POP PUSH2 0x14EC DUP2 PUSH2 0x23C8 JUMP JUMPDEST SWAP3 SWAP2 POP POP JUMP JUMPDEST PUSH1 0x0 DUP2 CALLDATALOAD SWAP1 POP PUSH2 0x1501 DUP2 PUSH2 0x23DF JUMP JUMPDEST SWAP3 SWAP2 POP POP JUMP JUMPDEST PUSH1 0x0 DUP2 MLOAD SWAP1 POP PUSH2 0x1516 DUP2 PUSH2 0x23DF JUMP JUMPDEST SWAP3 SWAP2 POP POP JUMP JUMPDEST PUSH1 0x0 DUP2 CALLDATALOAD SWAP1 POP PUSH2 0x152B DUP2 PUSH2 0x23F6 JUMP JUMPDEST SWAP3 SWAP2 POP POP JUMP JUMPDEST PUSH1 0x0 DUP2 MLOAD SWAP1 POP PUSH2 0x1540 DUP2 PUSH2 0x23F6 JUMP JUMPDEST SWAP3 SWAP2 POP POP JUMP JUMPDEST PUSH1 0x0 DUP2 CALLDATALOAD SWAP1 POP PUSH2 0x1555 DUP2 PUSH2 0x240D JUMP JUMPDEST SWAP3 SWAP2 POP POP JUMP JUMPDEST PUSH1 0x0 DUP2 MLOAD SWAP1 POP PUSH2 0x156A DUP2 PUSH2 0x240D JUMP JUMPDEST SWAP3 SWAP2 POP POP JUMP JUMPDEST PUSH1 0x0 DUP2 CALLDATALOAD SWAP1 POP PUSH2 0x157F DUP2 PUSH2 0x2424 JUMP JUMPDEST SWAP3 SWAP2 POP POP JUMP JUMPDEST PUSH1 0x0 DUP2 MLOAD SWAP1 POP PUSH2 0x1594 DUP2 PUSH2 0x2424 JUMP JUMPDEST SWAP3 SWAP2 POP POP JUMP JUMPDEST PUSH1 0x0 PUSH2 0x100 DUP3 DUP5 SUB SLT ISZERO PUSH2 0x15AD JUMPI PUSH1 0x0 DUP1 REVERT JUMPDEST PUSH1 0x0 PUSH2 0x15BB DUP5 DUP3 DUP6 ADD PUSH2 0x114D JUMP JUMPDEST SWAP2 POP POP SWAP3 SWAP2 POP POP JUMP JUMPDEST PUSH1 0x0 PUSH1 0x20 DUP3 DUP5 SUB SLT ISZERO PUSH2 0x15D6 JUMPI PUSH1 0x0 DUP1 REVERT JUMPDEST PUSH1 0x0 PUSH2 0x15E4 DUP5 DUP3 DUP6 ADD PUSH2 0x11D6 JUMP JUMPDEST SWAP2 POP POP SWAP3 SWAP2 POP POP JUMP JUMPDEST PUSH1 0x0 DUP1 PUSH1 0x0 DUP1 PUSH1 0x80 DUP6 DUP8 SUB SLT ISZERO PUSH2 0x1603 JUMPI PUSH1 0x0 DUP1 REVERT JUMPDEST PUSH1 0x0 PUSH2 0x1611 DUP8 DUP3 DUP9 ADD PUSH2 0x11D6 JUMP JUMPDEST SWAP5 POP POP PUSH1 0x20 PUSH2 0x1622 DUP8 DUP3 DUP9 ADD PUSH2 0x11D6 JUMP JUMPDEST SWAP4 POP POP PUSH1 0x40 PUSH2 0x1633 DUP8 DUP3 DUP9 ADD PUSH2 0x151C JUMP JUMPDEST SWAP3 POP POP PUSH1 0x60 DUP6 ADD CALLDATALOAD PUSH8 0xFFFFFFFFFFFFFFFF DUP2 GT ISZERO PUSH2 0x1650 JUMPI PUSH1 0x0 DUP1 REVERT JUMPDEST PUSH2 0x165C DUP8 DUP3 DUP9 ADD PUSH2 0x1047 JUMP JUMPDEST SWAP2 POP POP SWAP3 SWAP6 SWAP2 SWAP5 POP SWAP3 POP JUMP JUMPDEST PUSH1 0x0 DUP1 PUSH1 0x0 PUSH1 0x60 DUP5 DUP7 SUB SLT ISZERO PUSH2 0x167D JUMPI PUSH1 0x0 DUP1 REVERT JUMPDEST PUSH1 0x0 PUSH2 0x168B DUP7 DUP3 DUP8 ADD PUSH2 0x11D6 JUMP JUMPDEST SWAP4 POP POP PUSH1 0x20 PUSH2 0x169C DUP7 DUP3 DUP8 ADD PUSH2 0x151C JUMP JUMPDEST SWAP3 POP POP PUSH1 0x40 DUP5 ADD CALLDATALOAD PUSH8 0xFFFFFFFFFFFFFFFF DUP2 GT ISZERO PUSH2 0x16B9 JUMPI PUSH1 0x0 DUP1 REVERT JUMPDEST PUSH2 0x16C5 DUP7 DUP3 DUP8 ADD PUSH2 0x1047 JUMP JUMPDEST SWAP2 POP POP SWAP3 POP SWAP3 POP SWAP3 JUMP JUMPDEST PUSH1 0x0 PUSH1 0x20 DUP3 DUP5 SUB SLT ISZERO PUSH2 0x16E1 JUMPI PUSH1 0x0 DUP1 REVERT JUMPDEST PUSH1 0x0 DUP3 ADD CALLDATALOAD PUSH8 0xFFFFFFFFFFFFFFFF DUP2 GT ISZERO PUSH2 0x16FB JUMPI PUSH1 0x0 DUP1 REVERT JUMPDEST PUSH2 0x1707 DUP5 DUP3 DUP6 ADD PUSH2 0x11EB JUMP JUMPDEST SWAP2 POP POP SWAP3 SWAP2 POP POP JUMP JUMPDEST PUSH1 0x0 PUSH1 0x20 DUP3 DUP5 SUB SLT ISZERO PUSH2 0x1722 JUMPI PUSH1 0x0 DUP1 REVERT JUMPDEST PUSH1 0x0 DUP3 ADD MLOAD PUSH8 0xFFFFFFFFFFFFFFFF DUP2 GT ISZERO PUSH2 0x173C JUMPI PUSH1 0x0 DUP1 REVERT JUMPDEST PUSH2 0x1748 DUP5 DUP3 DUP6 ADD PUSH2 0x123F JUMP JUMPDEST SWAP2 POP POP SWAP3 SWAP2 POP POP JUMP JUMPDEST PUSH1 0x0 DUP1 PUSH1 0x40 DUP4 DUP6 SUB SLT ISZERO PUSH2 0x1764 JUMPI PUSH1 0x0 DUP1 REVERT JUMPDEST PUSH1 0x0 DUP4 ADD CALLDATALOAD PUSH8 0xFFFFFFFFFFFFFFFF DUP2 GT ISZERO PUSH2 0x177E JUMPI PUSH1 0x0 DUP1 REVERT JUMPDEST PUSH2 0x178A DUP6 DUP3 DUP7 ADD PUSH2 0x11EB JUMP JUMPDEST SWAP3 POP POP PUSH1 0x20 DUP4 ADD CALLDATALOAD PUSH8 0xFFFFFFFFFFFFFFFF DUP2 GT ISZERO PUSH2 0x17A7 JUMPI PUSH1 0x0 DUP1 REVERT JUMPDEST PUSH2 0x17B3 DUP6 DUP3 DUP7 ADD PUSH2 0x11EB JUMP JUMPDEST SWAP2 POP POP SWAP3 POP SWAP3 SWAP1 POP JUMP JUMPDEST PUSH1 0x0 DUP1 PUSH1 0x0 PUSH1 0x60 DUP5 DUP7 SUB SLT ISZERO PUSH2 0x17D2 JUMPI PUSH1 0x0 DUP1 REVERT JUMPDEST PUSH1 0x0 DUP5 ADD CALLDATALOAD PUSH8 0xFFFFFFFFFFFFFFFF DUP2 GT ISZERO PUSH2 0x17EC JUMPI PUSH1 0x0 DUP1 REVERT JUMPDEST PUSH2 0x17F8 DUP7 DUP3 DUP8 ADD PUSH2 0x11EB JUMP JUMPDEST SWAP4 POP POP PUSH1 0x20 DUP5 ADD CALLDATALOAD PUSH8 0xFFFFFFFFFFFFFFFF DUP2 GT ISZERO PUSH2 0x1815 JUMPI PUSH1 0x0 DUP1 REVERT JUMPDEST PUSH2 0x1821 DUP7 DUP3 DUP8 ADD PUSH2 0x11EB JUMP JUMPDEST SWAP3 POP POP PUSH1 0x40 PUSH2 0x1832 DUP7 DUP3 DUP8 ADD PUSH2 0x11C1 JUMP JUMPDEST SWAP2 POP POP SWAP3 POP SWAP3 POP SWAP3 JUMP JUMPDEST PUSH1 0x0 DUP1 PUSH1 0x0 DUP1 PUSH1 0x80 DUP6 DUP8 SUB SLT ISZERO PUSH2 0x1852 JUMPI PUSH1 0x0 DUP1 REVERT JUMPDEST PUSH1 0x0 DUP6 ADD CALLDATALOAD PUSH8 0xFFFFFFFFFFFFFFFF DUP2 GT ISZERO PUSH2 0x186C JUMPI PUSH1 0x0 DUP1 REVERT JUMPDEST PUSH2 0x1878 DUP8 DUP3 DUP9 ADD PUSH2 0x12DF JUMP JUMPDEST SWAP5 POP POP PUSH1 0x20 DUP6 ADD CALLDATALOAD PUSH8 0xFFFFFFFFFFFFFFFF DUP2 GT ISZERO PUSH2 0x1895 JUMPI PUSH1 0x0 DUP1 REVERT JUMPDEST PUSH2 0x18A1 DUP8 DUP3 DUP9 ADD PUSH2 0x1047 JUMP JUMPDEST SWAP4 POP POP PUSH1 0x40 PUSH2 0x18B2 DUP8 DUP3 DUP9 ADD PUSH2 0x1546 JUMP JUMPDEST SWAP3 POP POP PUSH1 0x60 PUSH2 0x18C3 DUP8 DUP3 DUP9 ADD PUSH2 0x1546 JUMP JUMPDEST SWAP2 POP POP SWAP3 SWAP6 SWAP2 SWAP5 POP SWAP3 POP JUMP JUMPDEST PUSH1 0x0 PUSH2 0x100 DUP3 DUP5 SUB SLT ISZERO PUSH2 0x18E2 JUMPI PUSH1 0x0 DUP1 REVERT JUMPDEST PUSH1 0x0 PUSH2 0x18F0 DUP5 DUP3 DUP6 ADD PUSH2 0x1417 JUMP JUMPDEST SWAP2 POP POP SWAP3 SWAP2 POP POP JUMP JUMPDEST PUSH1 0x0 PUSH2 0x1905 DUP4 DUP4 PUSH2 0x1BCE JUMP JUMPDEST PUSH1 0x40 DUP4 ADD SWAP1 POP SWAP3 SWAP2 POP POP JUMP JUMPDEST PUSH1 0x0 PUSH2 0x191C DUP3 PUSH2 0x21E4 JUMP JUMPDEST PUSH2 0x1926 DUP2 DUP6 PUSH2 0x2207 JUMP JUMPDEST SWAP4 POP PUSH2 0x1931 DUP4 PUSH2 0x21BF JUMP JUMPDEST DUP1 PUSH1 0x0 JUMPDEST DUP4 DUP2 LT ISZERO PUSH2 0x1962 JUMPI DUP2 MLOAD PUSH2 0x1949 DUP9 DUP3 PUSH2 0x18F9 JUMP JUMPDEST SWAP8 POP PUSH2 0x1954 DUP4 PUSH2 0x21FA JUMP JUMPDEST SWAP3 POP POP PUSH1 0x1 DUP2 ADD SWAP1 POP PUSH2 0x1935 JUMP JUMPDEST POP DUP6 SWAP4 POP POP POP POP SWAP3 SWAP2 POP POP JUMP JUMPDEST PUSH2 0x1978 DUP2 PUSH2 0x2245 JUMP JUMPDEST DUP3 MSTORE POP POP JUMP JUMPDEST PUSH2 0x1987 DUP2 PUSH2 0x2251 JUMP JUMPDEST DUP3 MSTORE POP POP JUMP JUMPDEST PUSH2 0x199E PUSH2 0x1999 DUP3 PUSH2 0x2251 JUMP JUMPDEST PUSH2 0x2360 JUMP JUMPDEST DUP3 MSTORE POP POP JUMP JUMPDEST PUSH1 0x0 PUSH2 0x19AF DUP3 PUSH2 0x21EF JUMP JUMPDEST PUSH2 0x19B9 DUP2 DUP6 PUSH2 0x2218 JUMP JUMPDEST SWAP4 POP PUSH2 0x19C9 DUP2 DUP6 PUSH1 0x20 DUP7 ADD PUSH2 0x232D JUMP JUMPDEST PUSH2 0x19D2 DUP2 PUSH2 0x237C JUMP JUMPDEST DUP5 ADD SWAP2 POP POP SWAP3 SWAP2 POP POP JUMP JUMPDEST PUSH1 0x0 PUSH2 0x19E8 DUP3 PUSH2 0x21EF JUMP JUMPDEST PUSH2 0x19F2 DUP2 DUP6 PUSH2 0x2229 JUMP JUMPDEST SWAP4 POP PUSH2 0x1A02 DUP2 DUP6 PUSH1 0x20 DUP7 ADD PUSH2 0x232D JUMP JUMPDEST DUP1 DUP5 ADD SWAP2 POP POP SWAP3 SWAP2 POP POP JUMP JUMPDEST PUSH1 0x0 DUP2 SLOAD PUSH1 0x1 DUP2 AND PUSH1 0x0 DUP2 EQ PUSH2 0x1A2B JUMPI PUSH1 0x1 DUP2 EQ PUSH2 0x1A51 JUMPI PUSH2 0x1A95 JUMP JUMPDEST PUSH1 0x7F PUSH1 0x2 DUP4 DIV AND PUSH2 0x1A3C DUP2 DUP8 PUSH2 0x2218 JUMP JUMPDEST SWAP6 POP PUSH1 0xFF NOT DUP4 AND DUP7 MSTORE PUSH1 0x20 DUP7 ADD SWAP4 POP POP PUSH2 0x1A95 JUMP JUMPDEST PUSH1 0x2 DUP3 DIV PUSH2 0x1A5F DUP2 DUP8 PUSH2 0x2218 JUMP JUMPDEST SWAP6 POP PUSH2 0x1A6A DUP6 PUSH2 0x21CF JUMP JUMPDEST PUSH1 0x0 JUMPDEST DUP3 DUP2 LT ISZERO PUSH2 0x1A8C JUMPI DUP2 SLOAD DUP2 DUP10 ADD MSTORE PUSH1 0x1 DUP3 ADD SWAP2 POP PUSH1 0x20 DUP2 ADD SWAP1 POP PUSH2 0x1A6D JUMP JUMPDEST DUP1 DUP9 ADD SWAP6 POP POP POP POP JUMPDEST POP POP SWAP3 SWAP2 POP POP JUMP JUMPDEST PUSH2 0x1AA6 DUP2 PUSH2 0x22C4 JUMP JUMPDEST DUP3 MSTORE POP POP JUMP JUMPDEST PUSH2 0x1AB5 DUP2 PUSH2 0x22D6 JUMP JUMPDEST DUP3 MSTORE POP POP JUMP JUMPDEST PUSH2 0x1AC4 DUP2 PUSH2 0x22E8 JUMP JUMPDEST DUP3 MSTORE POP POP JUMP JUMPDEST PUSH2 0x1AD3 DUP2 PUSH2 0x22FA JUMP JUMPDEST DUP3 MSTORE POP POP JUMP JUMPDEST PUSH2 0x1AE2 DUP2 PUSH2 0x230C JUMP JUMPDEST DUP3 MSTORE POP POP JUMP JUMPDEST PUSH1 0x0 PUSH2 0x1AF5 PUSH1 0x1C DUP4 PUSH2 0x2234 JUMP JUMPDEST SWAP2 POP PUSH32 0x4272616E6368206D757374206265206C6F6E676572207468616E203000000000 PUSH1 0x0 DUP4 ADD MSTORE PUSH1 0x20 DUP3 ADD SWAP1 POP SWAP2 SWAP1 POP JUMP JUMPDEST PUSH1 0x0 PUSH2 0x1B35 PUSH1 0x31 DUP4 PUSH2 0x2234 JUMP JUMPDEST SWAP2 POP PUSH32 0x56616C75652063616E20626520657175616C20746F206E6F646520627574206E PUSH1 0x0 DUP4 ADD MSTORE PUSH32 0x65766572206F6E20746865207269676874000000000000000000000000000000 PUSH1 0x20 DUP4 ADD MSTORE PUSH1 0x40 DUP3 ADD SWAP1 POP SWAP2 SWAP1 POP JUMP JUMPDEST PUSH1 0x0 PUSH2 0x1B9B PUSH1 0x1B DUP4 PUSH2 0x2234 JUMP JUMPDEST SWAP2 POP PUSH32 0x496E6465782063616E6E6F74206265206C657373207468616E20300000000000 PUSH1 0x0 DUP4 ADD MSTORE PUSH1 0x20 DUP3 ADD SWAP1 POP SWAP2 SWAP1 POP JUMP JUMPDEST PUSH1 0x40 DUP3 ADD PUSH1 0x0 DUP3 ADD MLOAD PUSH2 0x1BE4 PUSH1 0x0 DUP6 ADD DUP3 PUSH2 0x1CF3 JUMP JUMPDEST POP PUSH1 0x20 DUP3 ADD MLOAD PUSH2 0x1BF7 PUSH1 0x20 DUP6 ADD DUP3 PUSH2 0x1D3E JUMP JUMPDEST POP POP POP POP JUMP JUMPDEST PUSH1 0x0 PUSH2 0x160 DUP4 ADD PUSH1 0x0 DUP4 ADD MLOAD PUSH2 0x1C16 PUSH1 0x0 DUP7 ADD DUP3 PUSH2 0x1D02 JUMP JUMPDEST POP PUSH1 0x20 DUP4 ADD MLOAD PUSH2 0x1C29 PUSH1 0x20 DUP7 ADD DUP3 PUSH2 0x1D02 JUMP JUMPDEST POP PUSH1 0x40 DUP4 ADD MLOAD PUSH2 0x1C3C PUSH1 0x40 DUP7 ADD DUP3 PUSH2 0x1CF3 JUMP JUMPDEST POP PUSH1 0x60 DUP4 ADD MLOAD PUSH2 0x1C4F PUSH1 0x60 DUP7 ADD DUP3 PUSH2 0x1D20 JUMP JUMPDEST POP PUSH1 0x80 DUP4 ADD MLOAD PUSH2 0x1C62 PUSH1 0x80 DUP7 ADD DUP3 PUSH2 0x1D20 JUMP JUMPDEST POP PUSH1 0xA0 DUP4 ADD MLOAD PUSH2 0x1C75 PUSH1 0xA0 DUP7 ADD DUP3 PUSH2 0x1CF3 JUMP JUMPDEST POP PUSH1 0xC0 DUP4 ADD MLOAD DUP5 DUP3 SUB PUSH1 0xC0 DUP7 ADD MSTORE PUSH2 0x1C8D DUP3 DUP3 PUSH2 0x1911 JUMP JUMPDEST SWAP2 POP POP PUSH1 0xE0 DUP4 ADD MLOAD DUP5 DUP3 SUB PUSH1 0xE0 DUP7 ADD MSTORE PUSH2 0x1CA7 DUP3 DUP3 PUSH2 0x1911 JUMP JUMPDEST SWAP2 POP POP PUSH2 0x100 DUP4 ADD MLOAD PUSH2 0x1CBE PUSH2 0x100 DUP7 ADD DUP3 PUSH2 0x1D20 JUMP JUMPDEST POP PUSH2 0x120 DUP4 ADD MLOAD PUSH2 0x1CD3 PUSH2 0x120 DUP7 ADD DUP3 PUSH2 0x1D11 JUMP JUMPDEST POP PUSH2 0x140 DUP4 ADD MLOAD PUSH2 0x1CE8 PUSH2 0x140 DUP7 ADD DUP3 PUSH2 0x1D20 JUMP JUMPDEST POP DUP1 SWAP2 POP POP SWAP3 SWAP2 POP POP JUMP JUMPDEST PUSH2 0x1CFC DUP2 PUSH2 0x2269 JUMP JUMPDEST DUP3 MSTORE POP POP JUMP JUMPDEST PUSH2 0x1D0B DUP2 PUSH2 0x225B JUMP JUMPDEST DUP3 MSTORE POP POP JUMP JUMPDEST PUSH2 0x1D1A DUP2 PUSH2 0x2289 JUMP JUMPDEST DUP3 MSTORE POP POP JUMP JUMPDEST PUSH2 0x1D29 DUP2 PUSH2 0x2293 JUMP JUMPDEST DUP3 MSTORE POP POP JUMP JUMPDEST PUSH2 0x1D38 DUP2 PUSH2 0x2293 JUMP JUMPDEST DUP3 MSTORE POP POP JUMP JUMPDEST PUSH2 0x1D47 DUP2 PUSH2 0x22A3 JUMP JUMPDEST DUP3 MSTORE POP POP JUMP JUMPDEST PUSH2 0x1D5E PUSH2 0x1D59 DUP3 PUSH2 0x22A3 JUMP JUMPDEST PUSH2 0x236A JUMP JUMPDEST DUP3 MSTORE POP POP JUMP JUMPDEST PUSH1 0x0 PUSH2 0x1D70 DUP3 DUP5 PUSH2 0x198D JUMP JUMPDEST PUSH1 0x20 DUP3 ADD SWAP2 POP DUP2 SWAP1 POP SWAP3 SWAP2 POP POP JUMP JUMPDEST PUSH1 0x0 PUSH2 0x1D8B DUP3 DUP6 PUSH2 0x198D JUMP JUMPDEST PUSH1 0x20 DUP3 ADD SWAP2 POP PUSH2 0x1D9B DUP3 DUP5 PUSH2 0x198D JUMP JUMPDEST PUSH1 0x20 DUP3 ADD SWAP2 POP DUP2 SWAP1 POP SWAP4 SWAP3 POP POP POP JUMP JUMPDEST PUSH1 0x0 PUSH2 0x1DB7 DUP3 DUP5 PUSH2 0x19DD JUMP JUMPDEST SWAP2 POP DUP2 SWAP1 POP SWAP3 SWAP2 POP POP JUMP JUMPDEST PUSH1 0x0 PUSH2 0x1DCE DUP3 DUP12 PUSH2 0x1D4D JUMP JUMPDEST PUSH1 0x8 DUP3 ADD SWAP2 POP PUSH2 0x1DDE DUP3 DUP11 PUSH2 0x1D4D JUMP JUMPDEST PUSH1 0x8 DUP3 ADD SWAP2 POP PUSH2 0x1DEE DUP3 DUP10 PUSH2 0x1D4D JUMP JUMPDEST PUSH1 0x8 DUP3 ADD SWAP2 POP PUSH2 0x1DFE DUP3 DUP9 PUSH2 0x1D4D JUMP JUMPDEST PUSH1 0x8 DUP3 ADD SWAP2 POP PUSH2 0x1E0E DUP3 DUP8 PUSH2 0x1D4D JUMP JUMPDEST PUSH1 0x8 DUP3 ADD SWAP2 POP PUSH2 0x1E1E DUP3 DUP7 PUSH2 0x1D4D JUMP JUMPDEST PUSH1 0x8 DUP3 ADD SWAP2 POP PUSH2 0x1E2E DUP3 DUP6 PUSH2 0x1D4D JUMP JUMPDEST PUSH1 0x8 DUP3 ADD SWAP2 POP PUSH2 0x1E3E DUP3 DUP5 PUSH2 0x1D4D JUMP JUMPDEST PUSH1 0x8 DUP3 ADD SWAP2 POP DUP2 SWAP1 POP SWAP10 SWAP9 POP POP POP POP POP POP POP POP POP JUMP JUMPDEST PUSH1 0x0 PUSH1 0x20 DUP3 ADD SWAP1 POP PUSH2 0x1E69 PUSH1 0x0 DUP4 ADD DUP5 PUSH2 0x196F JUMP JUMPDEST SWAP3 SWAP2 POP POP JUMP JUMPDEST PUSH1 0x0 PUSH1 0x20 DUP3 ADD SWAP1 POP PUSH2 0x1E84 PUSH1 0x0 DUP4 ADD DUP5 PUSH2 0x197E JUMP JUMPDEST SWAP3 SWAP2 POP POP JUMP JUMPDEST PUSH1 0x0 PUSH1 0x40 DUP3 ADD SWAP1 POP PUSH2 0x1E9F PUSH1 0x0 DUP4 ADD DUP6 PUSH2 0x197E JUMP JUMPDEST PUSH2 0x1EAC PUSH1 0x20 DUP4 ADD DUP5 PUSH2 0x1A9D JUMP JUMPDEST SWAP4 SWAP3 POP POP POP JUMP JUMPDEST PUSH1 0x0 PUSH1 0x40 DUP3 ADD SWAP1 POP PUSH2 0x1EC8 PUSH1 0x0 DUP4 ADD DUP6 PUSH2 0x197E JUMP JUMPDEST PUSH2 0x1ED5 PUSH1 0x20 DUP4 ADD DUP5 PUSH2 0x1ACA JUMP JUMPDEST SWAP4 SWAP3 POP POP POP JUMP JUMPDEST PUSH1 0x0 PUSH1 0x20 DUP3 ADD SWAP1 POP DUP2 DUP2 SUB PUSH1 0x0 DUP4 ADD MSTORE PUSH2 0x1EF6 DUP2 DUP5 PUSH2 0x19A4 JUMP JUMPDEST SWAP1 POP SWAP3 SWAP2 POP POP JUMP JUMPDEST PUSH1 0x0 PUSH1 0xA0 DUP3 ADD SWAP1 POP DUP2 DUP2 SUB PUSH1 0x0 DUP4 ADD MSTORE PUSH2 0x1F18 DUP2 DUP9 PUSH2 0x19A4 JUMP JUMPDEST SWAP1 POP DUP2 DUP2 SUB PUSH1 0x20 DUP4 ADD MSTORE PUSH2 0x1F2C DUP2 DUP8 PUSH2 0x19A4 JUMP JUMPDEST SWAP1 POP DUP2 DUP2 SUB PUSH1 0x40 DUP4 ADD MSTORE PUSH2 0x1F40 DUP2 DUP7 PUSH2 0x19A4 JUMP JUMPDEST SWAP1 POP DUP2 DUP2 SUB PUSH1 0x60 DUP4 ADD MSTORE PUSH2 0x1F54 DUP2 DUP6 PUSH2 0x19A4 JUMP JUMPDEST SWAP1 POP PUSH2 0x1F63 PUSH1 0x80 DUP4 ADD DUP5 PUSH2 0x1ABB JUMP JUMPDEST SWAP7 SWAP6 POP POP POP POP POP POP JUMP JUMPDEST PUSH1 0x0 PUSH1 0x60 DUP3 ADD SWAP1 POP DUP2 DUP2 SUB PUSH1 0x0 DUP4 ADD MSTORE PUSH2 0x1F87 DUP2 DUP7 PUSH2 0x19A4 JUMP JUMPDEST SWAP1 POP DUP2 DUP2 SUB PUSH1 0x20 DUP4 ADD MSTORE PUSH2 0x1F9B DUP2 DUP6 PUSH2 0x19A4 JUMP JUMPDEST SWAP1 POP PUSH2 0x1FAA PUSH1 0x40 DUP4 ADD DUP5 PUSH2 0x1AD9 JUMP JUMPDEST SWAP5 SWAP4 POP POP POP POP JUMP JUMPDEST PUSH1 0x0 PUSH1 0x60 DUP3 ADD SWAP1 POP DUP2 DUP2 SUB PUSH1 0x0 DUP4 ADD MSTORE PUSH2 0x1FCC DUP2 DUP7 PUSH2 0x19A4 JUMP JUMPDEST SWAP1 POP DUP2 DUP2 SUB PUSH1 0x20 DUP4 ADD MSTORE PUSH2 0x1FE0 DUP2 DUP6 PUSH2 0x1A0E JUMP JUMPDEST SWAP1 POP PUSH2 0x1FEF PUSH1 0x40 DUP4 ADD DUP5 PUSH2 0x1ABB JUMP JUMPDEST SWAP5 SWAP4 POP POP POP POP JUMP JUMPDEST PUSH1 0x0 PUSH1 0x40 DUP3 ADD SWAP1 POP DUP2 DUP2 SUB PUSH1 0x0 DUP4 ADD MSTORE PUSH2 0x2011 DUP2 DUP6 PUSH2 0x19A4 JUMP JUMPDEST SWAP1 POP PUSH2 0x2020 PUSH1 0x20 DUP4 ADD DUP5 PUSH2 0x1A9D JUMP JUMPDEST SWAP4 SWAP3 POP POP POP JUMP JUMPDEST PUSH1 0x0 PUSH1 0x40 DUP3 ADD SWAP1 POP DUP2 DUP2 SUB PUSH1 0x0 DUP4 ADD MSTORE PUSH2 0x2041 DUP2 DUP6 PUSH2 0x19A4 JUMP JUMPDEST SWAP1 POP PUSH2 0x2050 PUSH1 0x20 DUP4 ADD DUP5 PUSH2 0x1AAC JUMP JUMPDEST SWAP4 SWAP3 POP POP POP JUMP JUMPDEST PUSH1 0x0 PUSH1 0x20 DUP3 ADD SWAP1 POP DUP2 DUP2 SUB PUSH1 0x0 DUP4 ADD MSTORE PUSH2 0x2070 DUP2 PUSH2 0x1AE8 JUMP JUMPDEST SWAP1 POP SWAP2 SWAP1 POP JUMP JUMPDEST PUSH1 0x0 PUSH1 0x20 DUP3 ADD SWAP1 POP DUP2 DUP2 SUB PUSH1 0x0 DUP4 ADD MSTORE PUSH2 0x2090 DUP2 PUSH2 0x1B28 JUMP JUMPDEST SWAP1 POP SWAP2 SWAP1 POP JUMP JUMPDEST PUSH1 0x0 PUSH1 0x20 DUP3 ADD SWAP1 POP DUP2 DUP2 SUB PUSH1 0x0 DUP4 ADD MSTORE PUSH2 0x20B0 DUP2 PUSH2 0x1B8E JUMP JUMPDEST SWAP1 POP SWAP2 SWAP1 POP JUMP JUMPDEST PUSH1 0x0 PUSH1 0x20 DUP3 ADD SWAP1 POP DUP2 DUP2 SUB PUSH1 0x0 DUP4 ADD MSTORE PUSH2 0x20D1 DUP2 DUP5 PUSH2 0x1BFD JUMP JUMPDEST SWAP1 POP SWAP3 SWAP2 POP POP JUMP JUMPDEST PUSH1 0x0 PUSH1 0x20 DUP3 ADD SWAP1 POP PUSH2 0x20EE PUSH1 0x0 DUP4 ADD DUP5 PUSH2 0x1D2F JUMP JUMPDEST SWAP3 SWAP2 POP POP JUMP JUMPDEST PUSH1 0x0 PUSH1 0x40 MLOAD SWAP1 POP DUP2 DUP2 ADD DUP2 DUP2 LT PUSH8 0xFFFFFFFFFFFFFFFF DUP3 GT OR ISZERO PUSH2 0x2117 JUMPI PUSH1 0x0 DUP1 REVERT JUMPDEST DUP1 PUSH1 0x40 MSTORE POP SWAP2 SWAP1 POP JUMP JUMPDEST PUSH1 0x0 PUSH8 0xFFFFFFFFFFFFFFFF DUP3 GT ISZERO PUSH2 0x2138 JUMPI PUSH1 0x0 DUP1 REVERT JUMPDEST PUSH1 0x20 DUP3 MUL SWAP1 POP PUSH1 0x20 DUP2 ADD SWAP1 POP SWAP2 SWAP1 POP JUMP JUMPDEST PUSH1 0x0 PUSH8 0xFFFFFFFFFFFFFFFF DUP3 GT ISZERO PUSH2 0x2160 JUMPI PUSH1 0x0 DUP1 REVERT JUMPDEST PUSH1 0x20 DUP3 MUL SWAP1 POP PUSH1 0x20 DUP2 ADD SWAP1 POP SWAP2 SWAP1 POP JUMP JUMPDEST PUSH1 0x0 PUSH8 0xFFFFFFFFFFFFFFFF DUP3 GT ISZERO PUSH2 0x2188 JUMPI PUSH1 0x0 DUP1 REVERT JUMPDEST PUSH1 0x20 DUP3 MUL SWAP1 POP SWAP2 SWAP1 POP JUMP JUMPDEST PUSH1 0x0 PUSH8 0xFFFFFFFFFFFFFFFF DUP3 GT ISZERO PUSH2 0x21AA JUMPI PUSH1 0x0 DUP1 REVERT JUMPDEST PUSH1 0x1F NOT PUSH1 0x1F DUP4 ADD AND SWAP1 POP PUSH1 0x20 DUP2 ADD SWAP1 POP SWAP2 SWAP1 POP JUMP JUMPDEST PUSH1 0x0 DUP2 SWAP1 POP PUSH1 0x20 DUP3 ADD SWAP1 POP SWAP2 SWAP1 POP JUMP JUMPDEST PUSH1 0x0 DUP2 SWAP1 POP DUP2 PUSH1 0x0 MSTORE PUSH1 0x20 PUSH1 0x0 KECCAK256 SWAP1 POP SWAP2 SWAP1 POP JUMP JUMPDEST PUSH1 0x0 DUP2 MLOAD SWAP1 POP SWAP2 SWAP1 POP JUMP JUMPDEST PUSH1 0x0 DUP2 MLOAD SWAP1 POP SWAP2 SWAP1 POP JUMP JUMPDEST PUSH1 0x0 PUSH1 0x20 DUP3 ADD SWAP1 POP SWAP2 SWAP1 POP JUMP JUMPDEST PUSH1 0x0 DUP3 DUP3 MSTORE PUSH1 0x20 DUP3 ADD SWAP1 POP SWAP3 SWAP2 POP POP JUMP JUMPDEST PUSH1 0x0 DUP3 DUP3 MSTORE PUSH1 0x20 DUP3 ADD SWAP1 POP SWAP3 SWAP2 POP POP JUMP JUMPDEST PUSH1 0x0 DUP2 SWAP1 POP SWAP3 SWAP2 POP POP JUMP JUMPDEST PUSH1 0x0 DUP3 DUP3 MSTORE PUSH1 0x20 DUP3 ADD SWAP1 POP SWAP3 SWAP2 POP POP JUMP JUMPDEST PUSH1 0x0 DUP2 ISZERO ISZERO SWAP1 POP SWAP2 SWAP1 POP JUMP JUMPDEST PUSH1 0x0 DUP2 SWAP1 POP SWAP2 SWAP1 POP JUMP JUMPDEST PUSH1 0x0 PUSH2 0xFFFF DUP3 AND SWAP1 POP SWAP2 SWAP1 POP JUMP JUMPDEST PUSH1 0x0 PUSH20 0xFFFFFFFFFFFFFFFFFFFFFFFFFFFFFFFFFFFFFFFF DUP3 AND SWAP1 POP SWAP2 SWAP1 POP JUMP JUMPDEST PUSH1 0x0 DUP2 SWAP1 POP SWAP2 SWAP1 POP JUMP JUMPDEST PUSH1 0x0 PUSH4 0xFFFFFFFF DUP3 AND SWAP1 POP SWAP2 SWAP1 POP JUMP JUMPDEST PUSH1 0x0 PUSH8 0xFFFFFFFFFFFFFFFF DUP3 AND SWAP1 POP SWAP2 SWAP1 POP JUMP JUMPDEST PUSH1 0x0 PUSH1 0xFF DUP3 AND SWAP1 POP SWAP2 SWAP1 POP JUMP JUMPDEST PUSH1 0x0 PUSH2 0x22CF DUP3 PUSH2 0x22B7 JUMP JUMPDEST SWAP1 POP SWAP2 SWAP1 POP JUMP JUMPDEST PUSH1 0x0 PUSH2 0x22E1 DUP3 PUSH2 0x22B7 JUMP JUMPDEST SWAP1 POP SWAP2 SWAP1 POP JUMP JUMPDEST PUSH1 0x0 PUSH2 0x22F3 DUP3 PUSH2 0x22A3 JUMP JUMPDEST SWAP1 POP SWAP2 SWAP1 POP JUMP JUMPDEST PUSH1 0x0 PUSH2 0x2305 DUP3 PUSH2 0x22B7 JUMP JUMPDEST SWAP1 POP SWAP2 SWAP1 POP JUMP JUMPDEST PUSH1 0x0 PUSH2 0x2317 DUP3 PUSH2 0x22A3 JUMP JUMPDEST SWAP1 POP SWAP2 SWAP1 POP JUMP JUMPDEST DUP3 DUP2 DUP4 CALLDATACOPY PUSH1 0x0 DUP4 DUP4 ADD MSTORE POP POP POP JUMP JUMPDEST PUSH1 0x0 JUMPDEST DUP4 DUP2 LT ISZERO PUSH2 0x234B JUMPI DUP1 DUP3 ADD MLOAD DUP2 DUP5 ADD MSTORE PUSH1 0x20 DUP2 ADD SWAP1 POP PUSH2 0x2330 JUMP JUMPDEST DUP4 DUP2 GT ISZERO PUSH2 0x235A JUMPI PUSH1 0x0 DUP5 DUP5 ADD MSTORE JUMPDEST POP POP POP POP JUMP JUMPDEST PUSH1 0x0 DUP2 SWAP1 POP SWAP2 SWAP1 POP JUMP JUMPDEST PUSH1 0x0 PUSH2 0x2375 DUP3 PUSH2 0x238D JUMP JUMPDEST SWAP1 POP SWAP2 SWAP1 POP JUMP JUMPDEST PUSH1 0x0 PUSH1 0x1F NOT PUSH1 0x1F DUP4 ADD AND SWAP1 POP SWAP2 SWAP1 POP JUMP JUMPDEST PUSH1 0x0 DUP2 PUSH1 0xC0 SHL SWAP1 POP SWAP2 SWAP1 POP JUMP JUMPDEST PUSH2 0x23A3 DUP2 PUSH2 0x2245 JUMP JUMPDEST DUP2 EQ PUSH2 0x23AE JUMPI PUSH1 0x0 DUP1 REVERT JUMPDEST POP JUMP JUMPDEST PUSH2 0x23BA DUP2 PUSH2 0x2251 JUMP JUMPDEST DUP2 EQ PUSH2 0x23C5 JUMPI PUSH1 0x0 DUP1 REVERT JUMPDEST POP JUMP JUMPDEST PUSH2 0x23D1 DUP2 PUSH2 0x225B JUMP JUMPDEST DUP2 EQ PUSH2 0x23DC JUMPI PUSH1 0x0 DUP1 REVERT JUMPDEST POP JUMP JUMPDEST PUSH2 0x23E8 DUP2 PUSH2 0x2269 JUMP JUMPDEST DUP2 EQ PUSH2 0x23F3 JUMPI PUSH1 0x0 DUP1 REVERT JUMPDEST POP JUMP JUMPDEST PUSH2 0x23FF DUP2 PUSH2 0x2289 JUMP JUMPDEST DUP2 EQ PUSH2 0x240A JUMPI PUSH1 0x0 DUP1 REVERT JUMPDEST POP JUMP JUMPDEST PUSH2 0x2416 DUP2 PUSH2 0x2293 JUMP JUMPDEST DUP2 EQ PUSH2 0x2421 JUMPI PUSH1 0x0 DUP1 REVERT JUMPDEST POP JUMP JUMPDEST PUSH2 0x242D DUP2 PUSH2 0x22A3 JUMP JUMPDEST DUP2 EQ PUSH2 0x2438 JUMPI PUSH1 0x0 DUP1 REVERT JUMPDEST POP JUMP INVALID LOG2 PUSH5 0x6970667358 0x22 SLT KECCAK256 TIMESTAMP SHR AND PUSH12 0xED2AFE33B7DB6987818EB3F6 PUSH31 0x98B8C81C0886A7270C1B2FF4A1A05E64736F6C634300060C00336080604052 PUSH1 0x40 MLOAD DUP1 PUSH2 0x100 ADD PUSH1 0x40 MSTORE DUP1 PUSH8 0x6A09E667F3BCC908 PUSH8 0xFFFFFFFFFFFFFFFF AND DUP2 MSTORE PUSH1 0x20 ADD PUSH8 0xBB67AE8584CAA73B PUSH8 0xFFFFFFFFFFFFFFFF AND DUP2 MSTORE PUSH1 0x20 ADD PUSH8 0x3C6EF372FE94F82B PUSH8 0xFFFFFFFFFFFFFFFF AND DUP2 MSTORE PUSH1 0x20 ADD PUSH8 0xA54FF53A5F1D36F1 PUSH8 0xFFFFFFFFFFFFFFFF AND DUP2 MSTORE PUSH1 0x20 ADD PUSH8 0x510E527FADE682D1 PUSH8 0xFFFFFFFFFFFFFFFF AND DUP2 MSTORE PUSH1 0x20 ADD PUSH8 0x9B05688C2B3E6C1F PUSH8 0xFFFFFFFFFFFFFFFF AND DUP2 MSTORE PUSH1 0x20 ADD PUSH8 0x1F83D9ABFB41BD6B PUSH8 0xFFFFFFFFFFFFFFFF AND DUP2 MSTORE PUSH1 0x20 ADD PUSH8 0x5BE0CD19137E2179 PUSH8 0xFFFFFFFFFFFFFFFF AND DUP2 MSTORE POP PUSH1 0x0 SWAP1 PUSH1 0x8 PUSH3 0xE0 SWAP3 SWAP2 SWAP1 PUSH3 0xF5 JUMP JUMPDEST POP CALLVALUE DUP1 ISZERO PUSH3 0xEE JUMPI PUSH1 0x0 DUP1 REVERT JUMPDEST POP PUSH3 0x1DC JUMP JUMPDEST DUP3 PUSH1 0x8 PUSH1 0x3 ADD PUSH1 0x4 SWAP1 DIV DUP2 ADD SWAP3 DUP3 ISZERO PUSH3 0x198 JUMPI SWAP2 PUSH1 0x20 MUL DUP3 ADD PUSH1 0x0 JUMPDEST DUP4 DUP3 GT ISZERO PUSH3 0x160 JUMPI DUP4 MLOAD DUP4 DUP3 PUSH2 0x100 EXP DUP2 SLOAD DUP2 PUSH8 0xFFFFFFFFFFFFFFFF MUL NOT AND SWAP1 DUP4 PUSH8 0xFFFFFFFFFFFFFFFF AND MUL OR SWAP1 SSTORE POP SWAP3 PUSH1 0x20 ADD SWAP3 PUSH1 0x8 ADD PUSH1 0x20 DUP2 PUSH1 0x7 ADD DIV SWAP3 DUP4 ADD SWAP3 PUSH1 0x1 SUB MUL PUSH3 0x112 JUMP JUMPDEST DUP1 ISZERO PUSH3 0x196 JUMPI DUP3 DUP2 PUSH2 0x100 EXP DUP2 SLOAD SWAP1 PUSH8 0xFFFFFFFFFFFFFFFF MUL NOT AND SWAP1 SSTORE PUSH1 0x8 ADD PUSH1 0x20 DUP2 PUSH1 0x7 ADD DIV SWAP3 DUP4 ADD SWAP3 PUSH1 0x1 SUB MUL PUSH3 0x160 JUMP JUMPDEST POP JUMPDEST POP SWAP1 POP PUSH3 0x1A7 SWAP2 SWAP1 PUSH3 0x1AB JUMP JUMPDEST POP SWAP1 JUMP JUMPDEST JUMPDEST DUP1 DUP3 GT ISZERO PUSH3 0x1D8 JUMPI PUSH1 0x0 DUP2 DUP2 PUSH2 0x100 EXP DUP2 SLOAD SWAP1 PUSH8 0xFFFFFFFFFFFFFFFF MUL NOT AND SWAP1 SSTORE POP PUSH1 0x1 ADD PUSH3 0x1AC JUMP JUMPDEST POP SWAP1 JUMP JUMPDEST PUSH2 0x2C8C DUP1 PUSH3 0x1EC PUSH1 0x0 CODECOPY PUSH1 0x0 RETURN INVALID PUSH1 0x80 PUSH1 0x40 MSTORE CALLVALUE DUP1 ISZERO PUSH2 0x10 JUMPI PUSH1 0x0 DUP1 REVERT JUMPDEST POP PUSH1 0x4 CALLDATASIZE LT PUSH2 0x93 JUMPI PUSH1 0x0 CALLDATALOAD PUSH1 0xE0 SHR DUP1 PUSH4 0xD299DAC0 GT PUSH2 0x66 JUMPI DUP1 PUSH4 0xD299DAC0 EQ PUSH2 0x515 JUMPI DUP1 PUSH4 0xDF459019 EQ PUSH2 0x6B7 JUMPI DUP1 PUSH4 0xF23525EC EQ PUSH2 0x75A JUMPI DUP1 PUSH4 0xFA2ACD87 EQ PUSH2 0x7A6 JUMPI DUP1 PUSH4 0xFB72D24E EQ PUSH2 0x85D JUMPI PUSH2 0x93 JUMP JUMPDEST DUP1 PUSH4 0x1E092423 EQ PUSH2 0x98 JUMPI DUP1 PUSH4 0x217311AC EQ PUSH2 0x368 JUMPI DUP1 PUSH4 0x7AC0B1E3 EQ PUSH2 0x3BE JUMPI DUP1 PUSH4 0xBF187478 EQ PUSH2 0x4B5 JUMPI JUMPDEST PUSH1 0x0 DUP1 REVERT JUMPDEST PUSH2 0x32A PUSH1 0x4 DUP1 CALLDATASIZE SUB PUSH1 0xA0 DUP2 LT ISZERO PUSH2 0xAE JUMPI PUSH1 0x0 DUP1 REVERT JUMPDEST DUP2 ADD SWAP1 DUP1 DUP1 CALLDATALOAD SWAP1 PUSH1 0x20 ADD SWAP1 PUSH5 0x100000000 DUP2 GT ISZERO PUSH2 0xCB JUMPI PUSH1 0x0 DUP1 REVERT JUMPDEST DUP3 ADD DUP4 PUSH1 0x20 DUP3 ADD GT ISZERO PUSH2 0xDD JUMPI PUSH1 0x0 DUP1 REVERT JUMPDEST DUP1 CALLDATALOAD SWAP1 PUSH1 0x20 ADD SWAP2 DUP5 PUSH1 0x1 DUP4 MUL DUP5 ADD GT PUSH5 0x100000000 DUP4 GT OR ISZERO PUSH2 0xFF JUMPI PUSH1 0x0 DUP1 REVERT JUMPDEST SWAP2 SWAP1 DUP1 DUP1 PUSH1 0x1F ADD PUSH1 0x20 DUP1 SWAP2 DIV MUL PUSH1 0x20 ADD PUSH1 0x40 MLOAD SWAP1 DUP2 ADD PUSH1 0x40 MSTORE DUP1 SWAP4 SWAP3 SWAP2 SWAP1 DUP2 DUP2 MSTORE PUSH1 0x20 ADD DUP4 DUP4 DUP1 DUP3 DUP5 CALLDATACOPY PUSH1 0x0 DUP2 DUP5 ADD MSTORE PUSH1 0x1F NOT PUSH1 0x1F DUP3 ADD AND SWAP1 POP DUP1 DUP4 ADD SWAP3 POP POP POP POP POP POP POP SWAP2 SWAP3 SWAP2 SWAP3 SWAP1 DUP1 CALLDATALOAD SWAP1 PUSH1 0x20 ADD SWAP1 PUSH5 0x100000000 DUP2 GT ISZERO PUSH2 0x162 JUMPI PUSH1 0x0 DUP1 REVERT JUMPDEST DUP3 ADD DUP4 PUSH1 0x20 DUP3 ADD GT ISZERO PUSH2 0x174 JUMPI PUSH1 0x0 DUP1 REVERT JUMPDEST DUP1 CALLDATALOAD SWAP1 PUSH1 0x20 ADD SWAP2 DUP5 PUSH1 0x1 DUP4 MUL DUP5 ADD GT PUSH5 0x100000000 DUP4 GT OR ISZERO PUSH2 0x196 JUMPI PUSH1 0x0 DUP1 REVERT JUMPDEST SWAP2 SWAP1 DUP1 DUP1 PUSH1 0x1F ADD PUSH1 0x20 DUP1 SWAP2 DIV MUL PUSH1 0x20 ADD PUSH1 0x40 MLOAD SWAP1 DUP2 ADD PUSH1 0x40 MSTORE DUP1 SWAP4 SWAP3 SWAP2 SWAP1 DUP2 DUP2 MSTORE PUSH1 0x20 ADD DUP4 DUP4 DUP1 DUP3 DUP5 CALLDATACOPY PUSH1 0x0 DUP2 DUP5 ADD MSTORE PUSH1 0x1F NOT PUSH1 0x1F DUP3 ADD AND SWAP1 POP DUP1 DUP4 ADD SWAP3 POP POP POP POP POP POP POP SWAP2 SWAP3 SWAP2 SWAP3 SWAP1 DUP1 CALLDATALOAD SWAP1 PUSH1 0x20 ADD SWAP1 PUSH5 0x100000000 DUP2 GT ISZERO PUSH2 0x1F9 JUMPI PUSH1 0x0 DUP1 REVERT JUMPDEST DUP3 ADD DUP4 PUSH1 0x20 DUP3 ADD GT ISZERO PUSH2 0x20B JUMPI PUSH1 0x0 DUP1 REVERT JUMPDEST DUP1 CALLDATALOAD SWAP1 PUSH1 0x20 ADD SWAP2 DUP5 PUSH1 0x1 DUP4 MUL DUP5 ADD GT PUSH5 0x100000000 DUP4 GT OR ISZERO PUSH2 0x22D JUMPI PUSH1 0x0 DUP1 REVERT JUMPDEST SWAP2 SWAP1 DUP1 DUP1 PUSH1 0x1F ADD PUSH1 0x20 DUP1 SWAP2 DIV MUL PUSH1 0x20 ADD PUSH1 0x40 MLOAD SWAP1 DUP2 ADD PUSH1 0x40 MSTORE DUP1 SWAP4 SWAP3 SWAP2 SWAP1 DUP2 DUP2 MSTORE PUSH1 0x20 ADD DUP4 DUP4 DUP1 DUP3 DUP5 CALLDATACOPY PUSH1 0x0 DUP2 DUP5 ADD MSTORE PUSH1 0x1F NOT PUSH1 0x1F DUP3 ADD AND SWAP1 POP DUP1 DUP4 ADD SWAP3 POP POP POP POP POP POP POP SWAP2 SWAP3 SWAP2 SWAP3 SWAP1 DUP1 CALLDATALOAD SWAP1 PUSH1 0x20 ADD SWAP1 PUSH5 0x100000000 DUP2 GT ISZERO PUSH2 0x290 JUMPI PUSH1 0x0 DUP1 REVERT JUMPDEST DUP3 ADD DUP4 PUSH1 0x20 DUP3 ADD GT ISZERO PUSH2 0x2A2 JUMPI PUSH1 0x0 DUP1 REVERT JUMPDEST DUP1 CALLDATALOAD SWAP1 PUSH1 0x20 ADD SWAP2 DUP5 PUSH1 0x1 DUP4 MUL DUP5 ADD GT PUSH5 0x100000000 DUP4 GT OR ISZERO PUSH2 0x2C4 JUMPI PUSH1 0x0 DUP1 REVERT JUMPDEST SWAP2 SWAP1 DUP1 DUP1 PUSH1 0x1F ADD PUSH1 0x20 DUP1 SWAP2 DIV MUL PUSH1 0x20 ADD PUSH1 0x40 MLOAD SWAP1 DUP2 ADD PUSH1 0x40 MSTORE DUP1 SWAP4 SWAP3 SWAP2 SWAP1 DUP2 DUP2 MSTORE PUSH1 0x20 ADD DUP4 DUP4 DUP1 DUP3 DUP5 CALLDATACOPY PUSH1 0x0 DUP2 DUP5 ADD MSTORE PUSH1 0x1F NOT PUSH1 0x1F DUP3 ADD AND SWAP1 POP DUP1 DUP4 ADD SWAP3 POP POP POP POP POP POP POP SWAP2 SWAP3 SWAP2 SWAP3 SWAP1 DUP1 CALLDATALOAD PUSH8 0xFFFFFFFFFFFFFFFF AND SWAP1 PUSH1 0x20 ADD SWAP1 SWAP3 SWAP2 SWAP1 POP POP POP PUSH2 0x8BD JUMP JUMPDEST PUSH1 0x40 MLOAD DUP1 DUP3 PUSH1 0x8 PUSH1 0x20 MUL DUP1 DUP4 DUP4 PUSH1 0x0 JUMPDEST DUP4 DUP2 LT ISZERO PUSH2 0x355 JUMPI DUP1 DUP3 ADD MLOAD DUP2 DUP5 ADD MSTORE PUSH1 0x20 DUP2 ADD SWAP1 POP PUSH2 0x33A JUMP JUMPDEST POP POP POP POP SWAP1 POP ADD SWAP2 POP POP PUSH1 0x40 MLOAD DUP1 SWAP2 SUB SWAP1 RETURN JUMPDEST PUSH2 0x39E PUSH1 0x4 DUP1 CALLDATASIZE SUB PUSH1 0x20 DUP2 LT ISZERO PUSH2 0x37E JUMPI PUSH1 0x0 DUP1 REVERT JUMPDEST DUP2 ADD SWAP1 DUP1 DUP1 CALLDATALOAD PUSH8 0xFFFFFFFFFFFFFFFF AND SWAP1 PUSH1 0x20 ADD SWAP1 SWAP3 SWAP2 SWAP1 POP POP POP PUSH2 0x973 JUMP JUMPDEST PUSH1 0x40 MLOAD DUP1 DUP3 PUSH8 0xFFFFFFFFFFFFFFFF AND DUP2 MSTORE PUSH1 0x20 ADD SWAP2 POP POP PUSH1 0x40 MLOAD DUP1 SWAP2 SUB SWAP1 RETURN JUMPDEST PUSH2 0x477 PUSH1 0x4 DUP1 CALLDATASIZE SUB PUSH1 0x20 DUP2 LT ISZERO PUSH2 0x3D4 JUMPI PUSH1 0x0 DUP1 REVERT JUMPDEST DUP2 ADD SWAP1 DUP1 DUP1 CALLDATALOAD SWAP1 PUSH1 0x20 ADD SWAP1 PUSH5 0x100000000 DUP2 GT ISZERO PUSH2 0x3F1 JUMPI PUSH1 0x0 DUP1 REVERT JUMPDEST DUP3 ADD DUP4 PUSH1 0x20 DUP3 ADD GT ISZERO PUSH2 0x403 JUMPI PUSH1 0x0 DUP1 REVERT JUMPDEST DUP1 CALLDATALOAD SWAP1 PUSH1 0x20 ADD SWAP2 DUP5 PUSH1 0x1 DUP4 MUL DUP5 ADD GT PUSH5 0x100000000 DUP4 GT OR ISZERO PUSH2 0x425 JUMPI PUSH1 0x0 DUP1 REVERT JUMPDEST SWAP2 SWAP1 DUP1 DUP1 PUSH1 0x1F ADD PUSH1 0x20 DUP1 SWAP2 DIV MUL PUSH1 0x20 ADD PUSH1 0x40 MLOAD SWAP1 DUP2 ADD PUSH1 0x40 MSTORE DUP1 SWAP4 SWAP3 SWAP2 SWAP1 DUP2 DUP2 MSTORE PUSH1 0x20 ADD DUP4 DUP4 DUP1 DUP3 DUP5 CALLDATACOPY PUSH1 0x0 DUP2 DUP5 ADD MSTORE PUSH1 0x1F NOT PUSH1 0x1F DUP3 ADD AND SWAP1 POP DUP1 DUP4 ADD SWAP3 POP POP POP POP POP POP POP SWAP2 SWAP3 SWAP2 SWAP3 SWAP1 POP POP POP PUSH2 0xA63 JUMP JUMPDEST PUSH1 0x40 MLOAD DUP1 DUP3 PUSH1 0x2 PUSH1 0x20 MUL DUP1 DUP4 DUP4 PUSH1 0x0 JUMPDEST DUP4 DUP2 LT ISZERO PUSH2 0x4A2 JUMPI DUP1 DUP3 ADD MLOAD DUP2 DUP5 ADD MSTORE PUSH1 0x20 DUP2 ADD SWAP1 POP PUSH2 0x487 JUMP JUMPDEST POP POP POP POP SWAP1 POP ADD SWAP2 POP POP PUSH1 0x40 MLOAD DUP1 SWAP2 SUB SWAP1 RETURN JUMPDEST PUSH2 0x4F5 PUSH1 0x4 DUP1 CALLDATASIZE SUB PUSH1 0x40 DUP2 LT ISZERO PUSH2 0x4CB JUMPI PUSH1 0x0 DUP1 REVERT JUMPDEST DUP2 ADD SWAP1 DUP1 DUP1 CALLDATALOAD PUSH8 0xFFFFFFFFFFFFFFFF AND SWAP1 PUSH1 0x20 ADD SWAP1 SWAP3 SWAP2 SWAP1 DUP1 CALLDATALOAD SWAP1 PUSH1 0x20 ADD SWAP1 SWAP3 SWAP2 SWAP1 POP POP POP PUSH2 0xBA0 JUMP JUMPDEST PUSH1 0x40 MLOAD DUP1 DUP3 PUSH8 0xFFFFFFFFFFFFFFFF AND DUP2 MSTORE PUSH1 0x20 ADD SWAP2 POP POP PUSH1 0x40 MLOAD DUP1 SWAP2 SUB SWAP1 RETURN JUMPDEST PUSH2 0x679 PUSH1 0x4 DUP1 CALLDATASIZE SUB PUSH1 0x60 DUP2 LT ISZERO PUSH2 0x52B JUMPI PUSH1 0x0 DUP1 REVERT JUMPDEST DUP2 ADD SWAP1 DUP1 DUP1 CALLDATALOAD SWAP1 PUSH1 0x20 ADD SWAP1 PUSH5 0x100000000 DUP2 GT ISZERO PUSH2 0x548 JUMPI PUSH1 0x0 DUP1 REVERT JUMPDEST DUP3 ADD DUP4 PUSH1 0x20 DUP3 ADD GT ISZERO PUSH2 0x55A JUMPI PUSH1 0x0 DUP1 REVERT JUMPDEST DUP1 CALLDATALOAD SWAP1 PUSH1 0x20 ADD SWAP2 DUP5 PUSH1 0x1 DUP4 MUL DUP5 ADD GT PUSH5 0x100000000 DUP4 GT OR ISZERO PUSH2 0x57C JUMPI PUSH1 0x0 DUP1 REVERT JUMPDEST SWAP2 SWAP1 DUP1 DUP1 PUSH1 0x1F ADD PUSH1 0x20 DUP1 SWAP2 DIV MUL PUSH1 0x20 ADD PUSH1 0x40 MLOAD SWAP1 DUP2 ADD PUSH1 0x40 MSTORE DUP1 SWAP4 SWAP3 SWAP2 SWAP1 DUP2 DUP2 MSTORE PUSH1 0x20 ADD DUP4 DUP4 DUP1 DUP3 DUP5 CALLDATACOPY PUSH1 0x0 DUP2 DUP5 ADD MSTORE PUSH1 0x1F NOT PUSH1 0x1F DUP3 ADD AND SWAP1 POP DUP1 DUP4 ADD SWAP3 POP POP POP POP POP POP POP SWAP2 SWAP3 SWAP2 SWAP3 SWAP1 DUP1 CALLDATALOAD SWAP1 PUSH1 0x20 ADD SWAP1 PUSH5 0x100000000 DUP2 GT ISZERO PUSH2 0x5DF JUMPI PUSH1 0x0 DUP1 REVERT JUMPDEST DUP3 ADD DUP4 PUSH1 0x20 DUP3 ADD GT ISZERO PUSH2 0x5F1 JUMPI PUSH1 0x0 DUP1 REVERT JUMPDEST DUP1 CALLDATALOAD SWAP1 PUSH1 0x20 ADD SWAP2 DUP5 PUSH1 0x1 DUP4 MUL DUP5 ADD GT PUSH5 0x100000000 DUP4 GT OR ISZERO PUSH2 0x613 JUMPI PUSH1 0x0 DUP1 REVERT JUMPDEST SWAP2 SWAP1 DUP1 DUP1 PUSH1 0x1F ADD PUSH1 0x20 DUP1 SWAP2 DIV MUL PUSH1 0x20 ADD PUSH1 0x40 MLOAD SWAP1 DUP2 ADD PUSH1 0x40 MSTORE DUP1 SWAP4 SWAP3 SWAP2 SWAP1 DUP2 DUP2 MSTORE PUSH1 0x20 ADD DUP4 DUP4 DUP1 DUP3 DUP5 CALLDATACOPY PUSH1 0x0 DUP2 DUP5 ADD MSTORE PUSH1 0x1F NOT PUSH1 0x1F DUP3 ADD AND SWAP1 POP DUP1 DUP4 ADD SWAP3 POP POP POP POP POP POP POP SWAP2 SWAP3 SWAP2 SWAP3 SWAP1 DUP1 CALLDATALOAD PUSH8 0xFFFFFFFFFFFFFFFF AND SWAP1 PUSH1 0x20 ADD SWAP1 SWAP3 SWAP2 SWAP1 POP POP POP PUSH2 0xBCC JUMP JUMPDEST PUSH1 0x40 MLOAD DUP1 DUP3 PUSH1 0x8 PUSH1 0x20 MUL DUP1 DUP4 DUP4 PUSH1 0x0 JUMPDEST DUP4 DUP2 LT ISZERO PUSH2 0x6A4 JUMPI DUP1 DUP3 ADD MLOAD DUP2 DUP5 ADD MSTORE PUSH1 0x20 DUP2 ADD SWAP1 POP PUSH2 0x689 JUMP JUMPDEST POP POP POP POP SWAP1 POP ADD SWAP2 POP POP PUSH1 0x40 MLOAD DUP1 SWAP2 SUB SWAP1 RETURN JUMPDEST PUSH2 0x71C PUSH1 0x4 DUP1 CALLDATASIZE SUB PUSH2 0x100 DUP2 LT ISZERO PUSH2 0x6CE JUMPI PUSH1 0x0 DUP1 REVERT JUMPDEST DUP2 ADD SWAP1 DUP1 DUP1 PUSH2 0x100 ADD SWAP1 PUSH1 0x8 DUP1 PUSH1 0x20 MUL PUSH1 0x40 MLOAD SWAP1 DUP2 ADD PUSH1 0x40 MSTORE DUP1 SWAP3 SWAP2 SWAP1 DUP3 PUSH1 0x8 PUSH1 0x20 MUL DUP1 DUP3 DUP5 CALLDATACOPY PUSH1 0x0 DUP2 DUP5 ADD MSTORE PUSH1 0x1F NOT PUSH1 0x1F DUP3 ADD AND SWAP1 POP DUP1 DUP4 ADD SWAP3 POP POP POP POP POP POP SWAP2 SWAP3 SWAP2 SWAP3 SWAP1 POP POP POP PUSH2 0xC08 JUMP JUMPDEST PUSH1 0x40 MLOAD DUP1 DUP3 PUSH1 0x2 PUSH1 0x20 MUL DUP1 DUP4 DUP4 PUSH1 0x0 JUMPDEST DUP4 DUP2 LT ISZERO PUSH2 0x747 JUMPI DUP1 DUP3 ADD MLOAD DUP2 DUP5 ADD MSTORE PUSH1 0x20 DUP2 ADD SWAP1 POP PUSH2 0x72C JUMP JUMPDEST POP POP POP POP SWAP1 POP ADD SWAP2 POP POP PUSH1 0x40 MLOAD DUP1 SWAP2 SUB SWAP1 RETURN JUMPDEST PUSH2 0x786 PUSH1 0x4 DUP1 CALLDATASIZE SUB PUSH1 0x20 DUP2 LT ISZERO PUSH2 0x770 JUMPI PUSH1 0x0 DUP1 REVERT JUMPDEST DUP2 ADD SWAP1 DUP1 DUP1 CALLDATALOAD SWAP1 PUSH1 0x20 ADD SWAP1 SWAP3 SWAP2 SWAP1 POP POP POP PUSH2 0xCA9 JUMP JUMPDEST PUSH1 0x40 MLOAD DUP1 DUP3 PUSH8 0xFFFFFFFFFFFFFFFF AND DUP2 MSTORE PUSH1 0x20 ADD SWAP2 POP POP PUSH1 0x40 MLOAD DUP1 SWAP2 SUB SWAP1 RETURN JUMPDEST PUSH2 0x85B PUSH1 0x4 DUP1 CALLDATASIZE SUB PUSH2 0x2C0 DUP2 LT ISZERO PUSH2 0x7BD JUMPI PUSH1 0x0 DUP1 REVERT JUMPDEST DUP2 ADD SWAP1 DUP1 DUP1 PUSH2 0x200 ADD SWAP1 PUSH1 0x10 DUP1 PUSH1 0x20 MUL PUSH1 0x40 MLOAD SWAP1 DUP2 ADD PUSH1 0x40 MSTORE DUP1 SWAP3 SWAP2 SWAP1 DUP3 PUSH1 0x10 PUSH1 0x20 MUL DUP1 DUP3 DUP5 CALLDATACOPY PUSH1 0x0 DUP2 DUP5 ADD MSTORE PUSH1 0x1F NOT PUSH1 0x1F DUP3 ADD AND SWAP1 POP DUP1 DUP4 ADD SWAP3 POP POP POP POP POP POP SWAP2 SWAP3 SWAP2 SWAP3 SWAP1 DUP1 CALLDATALOAD SWAP1 PUSH1 0x20 ADD SWAP1 SWAP3 SWAP2 SWAP1 DUP1 CALLDATALOAD SWAP1 PUSH1 0x20 ADD SWAP1 SWAP3 SWAP2 SWAP1 DUP1 CALLDATALOAD SWAP1 PUSH1 0x20 ADD SWAP1 SWAP3 SWAP2 SWAP1 DUP1 CALLDATALOAD SWAP1 PUSH1 0x20 ADD SWAP1 SWAP3 SWAP2 SWAP1 DUP1 CALLDATALOAD PUSH8 0xFFFFFFFFFFFFFFFF AND SWAP1 PUSH1 0x20 ADD SWAP1 SWAP3 SWAP2 SWAP1 DUP1 CALLDATALOAD PUSH8 0xFFFFFFFFFFFFFFFF AND SWAP1 PUSH1 0x20 ADD SWAP1 SWAP3 SWAP2 SWAP1 POP POP POP PUSH2 0xCDA JUMP JUMPDEST STOP JUMPDEST PUSH2 0x89D PUSH1 0x4 DUP1 CALLDATASIZE SUB PUSH1 0x40 DUP2 LT ISZERO PUSH2 0x873 JUMPI PUSH1 0x0 DUP1 REVERT JUMPDEST DUP2 ADD SWAP1 DUP1 DUP1 CALLDATALOAD PUSH8 0xFFFFFFFFFFFFFFFF AND SWAP1 PUSH1 0x20 ADD SWAP1 SWAP3 SWAP2 SWAP1 DUP1 CALLDATALOAD SWAP1 PUSH1 0x20 ADD SWAP1 SWAP3 SWAP2 SWAP1 POP POP POP PUSH2 0xEAE JUMP JUMPDEST PUSH1 0x40 MLOAD DUP1 DUP3 PUSH8 0xFFFFFFFFFFFFFFFF AND DUP2 MSTORE PUSH1 0x20 ADD SWAP2 POP POP PUSH1 0x40 MLOAD DUP1 SWAP2 SUB SWAP1 RETURN JUMPDEST PUSH2 0x8C5 PUSH2 0x2B25 JUMP JUMPDEST PUSH2 0x8CD PUSH2 0x2B48 JUMP JUMPDEST PUSH2 0x8D5 PUSH2 0x2B25 JUMP JUMPDEST PUSH2 0x8F2 DUP3 DUP6 DUP10 PUSH2 0x8E4 DUP11 PUSH2 0xA63 JUMP JUMPDEST PUSH2 0x8ED DUP11 PUSH2 0xA63 JUMP JUMPDEST PUSH2 0xECF JUMP JUMPDEST PUSH2 0x8FC DUP3 DUP10 PUSH2 0x11DA JUMP JUMPDEST PUSH2 0x906 DUP3 DUP3 PUSH2 0x12E6 JUMP JUMPDEST PUSH32 0xDE1A9FB355752F7765552010C12EE02E62EAA7B0502F3088E6B5398CE8686A38 DUP2 PUSH1 0x40 MLOAD DUP1 DUP3 PUSH1 0x8 PUSH1 0x20 MUL DUP1 DUP4 DUP4 PUSH1 0x0 JUMPDEST DUP4 DUP2 LT ISZERO PUSH2 0x953 JUMPI DUP1 DUP3 ADD MLOAD DUP2 DUP5 ADD MSTORE PUSH1 0x20 DUP2 ADD SWAP1 POP PUSH2 0x938 JUMP JUMPDEST POP POP POP POP SWAP1 POP ADD SWAP2 POP POP PUSH1 0x40 MLOAD DUP1 SWAP2 SUB SWAP1 LOG1 DUP1 SWAP3 POP POP POP SWAP6 SWAP5 POP POP POP POP POP JUMP JUMPDEST PUSH1 0x0 PUSH8 0x100000000000000 PUSH1 0xFF DUP4 AND MUL PUSH6 0x10000000000 PUSH2 0xFF00 DUP5 AND MUL PUSH4 0x1000000 PUSH3 0xFF0000 DUP6 AND MUL PUSH2 0x100 PUSH4 0xFF000000 DUP7 AND MUL PUSH2 0x100 PUSH8 0xFFFFFFFFFFFFFFFF AND PUSH5 0xFF00000000 DUP8 AND PUSH8 0xFFFFFFFFFFFFFFFF AND DUP2 PUSH2 0x9CD JUMPI INVALID JUMPDEST DIV PUSH4 0x1000000 PUSH8 0xFFFFFFFFFFFFFFFF AND PUSH6 0xFF0000000000 DUP9 AND PUSH8 0xFFFFFFFFFFFFFFFF AND DUP2 PUSH2 0x9F7 JUMPI INVALID JUMPDEST DIV PUSH6 0x10000000000 PUSH8 0xFFFFFFFFFFFFFFFF AND PUSH7 0xFF000000000000 DUP10 AND PUSH8 0xFFFFFFFFFFFFFFFF AND DUP2 PUSH2 0xA24 JUMPI INVALID JUMPDEST DIV PUSH8 0x100000000000000 PUSH8 0xFFFFFFFFFFFFFFFF AND PUSH8 0xFF00000000000000 DUP11 AND PUSH8 0xFFFFFFFFFFFFFFFF AND DUP2 PUSH2 0xA54 JUMPI INVALID JUMPDEST DIV XOR XOR XOR XOR XOR XOR XOR SWAP1 POP SWAP2 SWAP1 POP JUMP JUMPDEST PUSH2 0xA6B PUSH2 0x2B9F JUMP JUMPDEST PUSH1 0x0 JUMPDEST DUP3 MLOAD DUP2 LT ISZERO PUSH2 0xB0E JUMPI PUSH2 0xAB0 DUP4 DUP3 DUP2 MLOAD DUP2 LT PUSH2 0xA86 JUMPI INVALID JUMPDEST PUSH1 0x20 ADD ADD MLOAD PUSH1 0xF8 SHR PUSH1 0xF8 SHL PUSH1 0xF8 SHR PUSH1 0xFF AND PUSH1 0x1 PUSH1 0x8 DUP5 DUP2 PUSH2 0xAA3 JUMPI INVALID JUMPDEST MOD ADD PUSH1 0x8 MUL PUSH1 0x40 SUB PUSH2 0xBA0 JUMP JUMPDEST DUP3 PUSH1 0x8 DUP4 DUP2 PUSH2 0xABB JUMPI INVALID JUMPDEST DIV PUSH1 0x2 DUP2 LT PUSH2 0xAC6 JUMPI INVALID JUMPDEST PUSH1 0x20 MUL ADD MLOAD XOR DUP3 PUSH1 0x8 DUP4 DUP2 PUSH2 0xAD7 JUMPI INVALID JUMPDEST DIV PUSH1 0x2 DUP2 LT PUSH2 0xAE2 JUMPI INVALID JUMPDEST PUSH1 0x20 MUL ADD SWAP1 PUSH8 0xFFFFFFFFFFFFFFFF AND SWAP1 DUP2 PUSH8 0xFFFFFFFFFFFFFFFF AND DUP2 MSTORE POP POP DUP1 DUP1 PUSH1 0x1 ADD SWAP2 POP POP PUSH2 0xA6E JUMP JUMPDEST POP PUSH2 0xB29 DUP2 PUSH1 0x0 PUSH1 0x2 DUP2 LT PUSH2 0xB1F JUMPI INVALID JUMPDEST PUSH1 0x20 MUL ADD MLOAD PUSH2 0x973 JUMP JUMPDEST DUP2 PUSH1 0x0 PUSH1 0x2 DUP2 LT PUSH2 0xB36 JUMPI INVALID JUMPDEST PUSH1 0x20 MUL ADD SWAP1 PUSH8 0xFFFFFFFFFFFFFFFF AND SWAP1 DUP2 PUSH8 0xFFFFFFFFFFFFFFFF AND DUP2 MSTORE POP POP PUSH2 0xB6F DUP2 PUSH1 0x1 PUSH1 0x2 DUP2 LT PUSH2 0xB65 JUMPI INVALID JUMPDEST PUSH1 0x20 MUL ADD MLOAD PUSH2 0x973 JUMP JUMPDEST DUP2 PUSH1 0x1 PUSH1 0x2 DUP2 LT PUSH2 0xB7C JUMPI INVALID JUMPDEST PUSH1 0x20 MUL ADD SWAP1 PUSH8 0xFFFFFFFFFFFFFFFF AND SWAP1 DUP2 PUSH8 0xFFFFFFFFFFFFFFFF AND DUP2 MSTORE POP POP SWAP2 SWAP1 POP JUMP JUMPDEST PUSH1 0x0 PUSH9 0x10000000000000000 DUP3 PUSH1 0x2 EXP DUP5 PUSH8 0xFFFFFFFFFFFFFFFF AND MUL DUP2 PUSH2 0xBC3 JUMPI INVALID JUMPDEST MOD SWAP1 POP SWAP3 SWAP2 POP POP JUMP JUMPDEST PUSH2 0xBD4 PUSH2 0x2B25 JUMP JUMPDEST PUSH2 0xBFF DUP5 DUP5 PUSH1 0x40 MLOAD DUP1 PUSH1 0x20 ADD PUSH1 0x40 MSTORE DUP1 PUSH1 0x0 DUP2 MSTORE POP PUSH1 0x40 MLOAD DUP1 PUSH1 0x20 ADD PUSH1 0x40 MSTORE DUP1 PUSH1 0x0 DUP2 MSTORE POP DUP7 PUSH2 0x8BD JUMP JUMPDEST SWAP1 POP SWAP4 SWAP3 POP POP POP JUMP JUMPDEST PUSH2 0xC10 PUSH2 0x2BC1 JUMP JUMPDEST PUSH2 0xC18 PUSH2 0x2BC1 JUMP JUMPDEST PUSH1 0x0 JUMPDEST PUSH1 0x8 DUP2 LT ISZERO PUSH2 0xC9F JUMPI PUSH1 0x4 DUP2 DUP2 PUSH2 0xC2E JUMPI INVALID JUMPDEST MOD PUSH1 0x3 SUB PUSH1 0x40 MUL PUSH1 0x2 EXP DUP5 DUP3 PUSH1 0x8 DUP2 LT PUSH2 0xC44 JUMPI INVALID JUMPDEST PUSH1 0x20 MUL ADD MLOAD PUSH8 0xFFFFFFFFFFFFFFFF AND MUL PUSH1 0x0 SHL DUP3 PUSH1 0x4 DUP4 DUP2 PUSH2 0xC62 JUMPI INVALID JUMPDEST DIV PUSH1 0x2 DUP2 LT PUSH2 0xC6D JUMPI INVALID JUMPDEST PUSH1 0x20 MUL ADD MLOAD XOR DUP3 PUSH1 0x4 DUP4 DUP2 PUSH2 0xC7E JUMPI INVALID JUMPDEST DIV PUSH1 0x2 DUP2 LT PUSH2 0xC89 JUMPI INVALID JUMPDEST PUSH1 0x20 MUL ADD DUP2 DUP2 MSTORE POP POP DUP1 DUP1 PUSH1 0x1 ADD SWAP2 POP POP PUSH2 0xC1B JUMP JUMPDEST POP DUP1 SWAP2 POP POP SWAP2 SWAP1 POP JUMP JUMPDEST PUSH1 0x0 DUP2 PUSH1 0x8 DUP2 LT PUSH2 0xCB6 JUMPI INVALID JUMPDEST PUSH1 0x4 SWAP2 DUP3 DUP3 DIV ADD SWAP2 SWAP1 MOD PUSH1 0x8 MUL SWAP2 POP SLOAD SWAP1 PUSH2 0x100 EXP SWAP1 DIV PUSH8 0xFFFFFFFFFFFFFFFF AND DUP2 JUMP JUMPDEST PUSH1 0x0 DUP8 DUP8 PUSH1 0x10 DUP2 LT PUSH2 0xCE8 JUMPI INVALID JUMPDEST PUSH1 0x20 MUL ADD MLOAD SWAP1 POP PUSH1 0x0 DUP9 DUP8 PUSH1 0x10 DUP2 LT PUSH2 0xCFD JUMPI INVALID JUMPDEST PUSH1 0x20 MUL ADD MLOAD SWAP1 POP PUSH1 0x0 DUP10 DUP8 PUSH1 0x10 DUP2 LT PUSH2 0xD12 JUMPI INVALID JUMPDEST PUSH1 0x20 MUL ADD MLOAD SWAP1 POP PUSH1 0x0 DUP11 DUP8 PUSH1 0x10 DUP2 LT PUSH2 0xD27 JUMPI INVALID JUMPDEST PUSH1 0x20 MUL ADD MLOAD SWAP1 POP PUSH9 0x10000000000000000 DUP7 DUP5 DUP7 ADD ADDMOD SWAP4 POP PUSH9 0x10000000000000000 PUSH5 0x100000000 DUP6 DUP4 XOR MULMOD PUSH5 0x100000000 DUP6 DUP4 XOR DIV XOR SWAP1 POP PUSH9 0x10000000000000000 DUP2 DUP4 ADDMOD SWAP2 POP PUSH9 0x10000000000000000 PUSH6 0x10000000000 DUP4 DUP6 XOR MULMOD PUSH4 0x1000000 DUP4 DUP6 XOR DIV XOR SWAP3 POP PUSH9 0x10000000000000000 DUP6 DUP5 DUP7 ADD ADDMOD SWAP4 POP PUSH9 0x10000000000000000 PUSH7 0x1000000000000 DUP6 DUP4 XOR MULMOD PUSH3 0x10000 DUP6 DUP4 XOR DIV XOR SWAP1 POP PUSH9 0x10000000000000000 DUP2 DUP4 ADDMOD SWAP2 POP PUSH9 0x10000000000000000 PUSH1 0x2 DUP4 DUP6 XOR MULMOD PUSH8 0x8000000000000000 DUP4 DUP6 XOR DIV XOR SWAP3 POP DUP4 DUP12 DUP12 PUSH1 0x10 DUP2 LT PUSH2 0xDFE JUMPI INVALID JUMPDEST PUSH1 0x20 MUL ADD SWAP1 PUSH8 0xFFFFFFFFFFFFFFFF AND SWAP1 DUP2 PUSH8 0xFFFFFFFFFFFFFFFF AND DUP2 MSTORE POP POP DUP3 DUP12 DUP11 PUSH1 0x10 DUP2 LT PUSH2 0xE2A JUMPI INVALID JUMPDEST PUSH1 0x20 MUL ADD SWAP1 PUSH8 0xFFFFFFFFFFFFFFFF AND SWAP1 DUP2 PUSH8 0xFFFFFFFFFFFFFFFF AND DUP2 MSTORE POP POP DUP2 DUP12 DUP10 PUSH1 0x10 DUP2 LT PUSH2 0xE56 JUMPI INVALID JUMPDEST PUSH1 0x20 MUL ADD SWAP1 PUSH8 0xFFFFFFFFFFFFFFFF AND SWAP1 DUP2 PUSH8 0xFFFFFFFFFFFFFFFF AND DUP2 MSTORE POP POP DUP1 DUP12 DUP9 PUSH1 0x10 DUP2 LT PUSH2 0xE82 JUMPI INVALID JUMPDEST PUSH1 0x20 MUL ADD SWAP1 PUSH8 0xFFFFFFFFFFFFFFFF AND SWAP1 DUP2 PUSH8 0xFFFFFFFFFFFFFFFF AND DUP2 MSTORE POP POP POP POP POP POP POP POP POP POP POP POP POP JUMP JUMPDEST PUSH1 0x0 DUP2 PUSH1 0x2 EXP DUP4 PUSH8 0xFFFFFFFFFFFFFFFF AND DUP2 PUSH2 0xEC6 JUMPI INVALID JUMPDEST DIV SWAP1 POP SWAP3 SWAP2 POP POP JUMP JUMPDEST PUSH1 0x0 DUP5 PUSH8 0xFFFFFFFFFFFFFFFF AND EQ DUP1 PUSH2 0xEF2 JUMPI POP PUSH1 0x40 DUP5 PUSH8 0xFFFFFFFFFFFFFFFF AND GT JUMPDEST DUP1 PUSH2 0xEFE JUMPI POP PUSH1 0x40 DUP4 MLOAD GT JUMPDEST ISZERO PUSH2 0xF54 JUMPI PUSH1 0x40 MLOAD PUSH32 0x8C379A000000000000000000000000000000000000000000000000000000000 DUP2 MSTORE PUSH1 0x4 ADD DUP1 DUP1 PUSH1 0x20 ADD DUP3 DUP2 SUB DUP3 MSTORE PUSH1 0x2E DUP2 MSTORE PUSH1 0x20 ADD DUP1 PUSH2 0x2C29 PUSH1 0x2E SWAP2 CODECOPY PUSH1 0x40 ADD SWAP2 POP POP PUSH1 0x40 MLOAD DUP1 SWAP2 SUB SWAP1 REVERT JUMPDEST PUSH1 0x0 JUMPDEST PUSH1 0x8 DUP2 LT ISZERO PUSH2 0xFC9 JUMPI PUSH1 0x0 DUP2 PUSH1 0x8 DUP2 LT PUSH2 0xF6D JUMPI INVALID JUMPDEST PUSH1 0x4 SWAP2 DUP3 DUP3 DIV ADD SWAP2 SWAP1 MOD PUSH1 0x8 MUL SWAP1 SLOAD SWAP1 PUSH2 0x100 EXP SWAP1 DIV PUSH8 0xFFFFFFFFFFFFFFFF AND DUP7 PUSH1 0x20 ADD MLOAD DUP3 PUSH1 0x8 DUP2 LT PUSH2 0xF9D JUMPI INVALID JUMPDEST PUSH1 0x20 MUL ADD SWAP1 PUSH8 0xFFFFFFFFFFFFFFFF AND SWAP1 DUP2 PUSH8 0xFFFFFFFFFFFFFFFF AND DUP2 MSTORE POP POP DUP1 DUP1 PUSH1 0x1 ADD SWAP2 POP POP PUSH2 0xF57 JUMP JUMPDEST POP DUP4 PUSH2 0xFD7 DUP5 MLOAD PUSH1 0x8 PUSH2 0xBA0 JUMP JUMPDEST PUSH4 0x1010000 DUP8 PUSH1 0x20 ADD MLOAD PUSH1 0x0 PUSH1 0x8 DUP2 LT PUSH2 0xFED JUMPI INVALID JUMPDEST PUSH1 0x20 MUL ADD MLOAD XOR XOR XOR DUP6 PUSH1 0x20 ADD MLOAD PUSH1 0x0 PUSH1 0x8 DUP2 LT PUSH2 0x1006 JUMPI INVALID JUMPDEST PUSH1 0x20 MUL ADD SWAP1 PUSH8 0xFFFFFFFFFFFFFFFF AND SWAP1 DUP2 PUSH8 0xFFFFFFFFFFFFFFFF AND DUP2 MSTORE POP POP DUP2 PUSH1 0x0 PUSH1 0x2 DUP2 LT PUSH2 0x1032 JUMPI INVALID JUMPDEST PUSH1 0x20 MUL ADD MLOAD DUP6 PUSH1 0x20 ADD MLOAD PUSH1 0x4 PUSH1 0x8 DUP2 LT PUSH2 0x1048 JUMPI INVALID JUMPDEST PUSH1 0x20 MUL ADD MLOAD XOR DUP6 PUSH1 0x20 ADD MLOAD PUSH1 0x4 PUSH1 0x8 DUP2 LT PUSH2 0x105F JUMPI INVALID JUMPDEST PUSH1 0x20 MUL ADD SWAP1 PUSH8 0xFFFFFFFFFFFFFFFF AND SWAP1 DUP2 PUSH8 0xFFFFFFFFFFFFFFFF AND DUP2 MSTORE POP POP DUP2 PUSH1 0x1 PUSH1 0x2 DUP2 LT PUSH2 0x108B JUMPI INVALID JUMPDEST PUSH1 0x20 MUL ADD MLOAD DUP6 PUSH1 0x20 ADD MLOAD PUSH1 0x5 PUSH1 0x8 DUP2 LT PUSH2 0x10A1 JUMPI INVALID JUMPDEST PUSH1 0x20 MUL ADD MLOAD XOR DUP6 PUSH1 0x20 ADD MLOAD PUSH1 0x5 PUSH1 0x8 DUP2 LT PUSH2 0x10B8 JUMPI INVALID JUMPDEST PUSH1 0x20 MUL ADD SWAP1 PUSH8 0xFFFFFFFFFFFFFFFF AND SWAP1 DUP2 PUSH8 0xFFFFFFFFFFFFFFFF AND DUP2 MSTORE POP POP DUP1 PUSH1 0x0 PUSH1 0x2 DUP2 LT PUSH2 0x10E4 JUMPI INVALID JUMPDEST PUSH1 0x20 MUL ADD MLOAD DUP6 PUSH1 0x20 ADD MLOAD PUSH1 0x6 PUSH1 0x8 DUP2 LT PUSH2 0x10FA JUMPI INVALID JUMPDEST PUSH1 0x20 MUL ADD MLOAD XOR DUP6 PUSH1 0x20 ADD MLOAD PUSH1 0x6 PUSH1 0x8 DUP2 LT PUSH2 0x1111 JUMPI INVALID JUMPDEST PUSH1 0x20 MUL ADD SWAP1 PUSH8 0xFFFFFFFFFFFFFFFF AND SWAP1 DUP2 PUSH8 0xFFFFFFFFFFFFFFFF AND DUP2 MSTORE POP POP DUP1 PUSH1 0x1 PUSH1 0x2 DUP2 LT PUSH2 0x113D JUMPI INVALID JUMPDEST PUSH1 0x20 MUL ADD MLOAD DUP6 PUSH1 0x20 ADD MLOAD PUSH1 0x7 PUSH1 0x8 DUP2 LT PUSH2 0x1153 JUMPI INVALID JUMPDEST PUSH1 0x20 MUL ADD MLOAD XOR DUP6 PUSH1 0x20 ADD MLOAD PUSH1 0x7 PUSH1 0x8 DUP2 LT PUSH2 0x116A JUMPI INVALID JUMPDEST PUSH1 0x20 MUL ADD SWAP1 PUSH8 0xFFFFFFFFFFFFFFFF AND SWAP1 DUP2 PUSH8 0xFFFFFFFFFFFFFFFF AND DUP2 MSTORE POP POP DUP4 PUSH8 0xFFFFFFFFFFFFFFFF AND DUP6 PUSH1 0x80 ADD DUP2 DUP2 MSTORE POP POP PUSH1 0x0 DUP4 MLOAD GT ISZERO PUSH2 0x11D3 JUMPI PUSH2 0x11B1 DUP6 DUP5 PUSH2 0x11DA JUMP JUMPDEST PUSH1 0x80 DUP6 PUSH1 0x60 ADD SWAP1 PUSH8 0xFFFFFFFFFFFFFFFF AND SWAP1 DUP2 PUSH8 0xFFFFFFFFFFFFFFFF AND DUP2 MSTORE POP POP JUMPDEST POP POP POP POP POP JUMP JUMPDEST PUSH1 0x0 JUMPDEST DUP2 MLOAD DUP2 LT ISZERO PUSH2 0x12E1 JUMPI PUSH1 0x80 DUP4 PUSH1 0x60 ADD MLOAD PUSH8 0xFFFFFFFFFFFFFFFF AND EQ ISZERO PUSH2 0x126E JUMPI DUP3 PUSH1 0x60 ADD MLOAD PUSH8 0xFFFFFFFFFFFFFFFF AND DUP4 PUSH1 0x40 ADD DUP2 DUP2 MLOAD ADD SWAP2 POP SWAP1 PUSH16 0xFFFFFFFFFFFFFFFFFFFFFFFFFFFFFFFF AND SWAP1 DUP2 PUSH16 0xFFFFFFFFFFFFFFFFFFFFFFFFFFFFFFFF AND DUP2 MSTORE POP POP PUSH2 0x124C DUP4 PUSH1 0x0 PUSH2 0x1437 JUMP JUMPDEST PUSH1 0x0 DUP4 PUSH1 0x60 ADD SWAP1 PUSH8 0xFFFFFFFFFFFFFFFF AND SWAP1 DUP2 PUSH8 0xFFFFFFFFFFFFFFFF AND DUP2 MSTORE POP POP JUMPDEST PUSH1 0x0 DUP4 PUSH1 0x60 ADD DUP1 MLOAD DUP1 SWAP2 SWAP1 PUSH1 0x1 ADD PUSH8 0xFFFFFFFFFFFFFFFF AND PUSH8 0xFFFFFFFFFFFFFFFF AND DUP2 MSTORE POP PUSH8 0xFFFFFFFFFFFFFFFF AND SWAP1 POP PUSH2 0x12A7 PUSH2 0x2BE3 JUMP JUMPDEST DUP5 PUSH1 0x0 ADD MLOAD SWAP1 POP PUSH1 0x0 DUP5 DUP5 DUP2 MLOAD DUP2 LT PUSH2 0x12BC JUMPI INVALID JUMPDEST PUSH1 0x20 ADD ADD MLOAD PUSH1 0xF8 SHR PUSH1 0xF8 SHL PUSH1 0xF8 SHR SWAP1 POP DUP1 DUP4 DUP4 ADD MSTORE8 POP POP POP DUP1 DUP1 PUSH1 0x1 ADD SWAP2 POP POP PUSH2 0x11DD JUMP JUMPDEST POP POP POP JUMP JUMPDEST DUP2 PUSH1 0x60 ADD MLOAD PUSH8 0xFFFFFFFFFFFFFFFF AND DUP3 PUSH1 0x40 ADD DUP2 DUP2 MLOAD ADD SWAP2 POP SWAP1 PUSH16 0xFFFFFFFFFFFFFFFFFFFFFFFFFFFFFFFF AND SWAP1 DUP2 PUSH16 0xFFFFFFFFFFFFFFFFFFFFFFFFFFFFFFFF AND DUP2 MSTORE POP POP PUSH2 0x1335 DUP3 PUSH1 0x1 PUSH2 0x1437 JUMP JUMPDEST PUSH1 0x0 JUMPDEST PUSH1 0x8 DUP4 PUSH1 0x80 ADD MLOAD DUP2 PUSH2 0x1346 JUMPI INVALID JUMPDEST DIV DUP2 LT ISZERO PUSH2 0x13A3 JUMPI PUSH2 0x136B DUP4 PUSH1 0x20 ADD MLOAD DUP3 PUSH1 0x8 DUP2 LT PUSH2 0x1361 JUMPI INVALID JUMPDEST PUSH1 0x20 MUL ADD MLOAD PUSH2 0x973 JUMP JUMPDEST DUP3 DUP3 PUSH1 0x8 DUP2 LT PUSH2 0x1377 JUMPI INVALID JUMPDEST PUSH1 0x20 MUL ADD SWAP1 PUSH8 0xFFFFFFFFFFFFFFFF AND SWAP1 DUP2 PUSH8 0xFFFFFFFFFFFFFFFF AND DUP2 MSTORE POP POP DUP1 DUP1 PUSH1 0x1 ADD SWAP2 POP POP PUSH2 0x1338 JUMP JUMPDEST POP PUSH1 0x40 DUP3 PUSH1 0x80 ADD MLOAD LT ISZERO PUSH2 0x1433 JUMPI PUSH2 0x13F9 PUSH2 0x13DF DUP4 PUSH1 0x20 ADD MLOAD PUSH1 0x8 DUP6 PUSH1 0x80 ADD MLOAD DUP2 PUSH2 0x13CA JUMPI INVALID JUMPDEST DIV PUSH1 0x8 DUP2 LT PUSH2 0x13D5 JUMPI INVALID JUMPDEST PUSH1 0x20 MUL ADD MLOAD PUSH2 0x973 JUMP JUMPDEST PUSH1 0x8 DUP5 PUSH1 0x80 ADD MLOAD DUP2 PUSH2 0x13ED JUMPI INVALID JUMPDEST MOD PUSH1 0x8 MUL PUSH1 0x40 SUB PUSH2 0xEAE JUMP JUMPDEST DUP2 PUSH1 0x8 DUP5 PUSH1 0x80 ADD MLOAD DUP2 PUSH2 0x1408 JUMPI INVALID JUMPDEST DIV PUSH1 0x8 DUP2 LT PUSH2 0x1413 JUMPI INVALID JUMPDEST PUSH1 0x20 MUL ADD SWAP1 PUSH8 0xFFFFFFFFFFFFFFFF AND SWAP1 DUP2 PUSH8 0xFFFFFFFFFFFFFFFF AND DUP2 MSTORE POP POP JUMPDEST POP POP JUMP JUMPDEST PUSH2 0x143F PUSH2 0x2C05 JUMP JUMPDEST PUSH2 0x1447 PUSH2 0x2C05 JUMP JUMPDEST PUSH1 0x0 JUMPDEST PUSH1 0x8 DUP2 LT ISZERO PUSH2 0x14FB JUMPI DUP5 PUSH1 0x20 ADD MLOAD DUP2 PUSH1 0x8 DUP2 LT PUSH2 0x1463 JUMPI INVALID JUMPDEST PUSH1 0x20 MUL ADD MLOAD DUP4 DUP3 PUSH1 0x10 DUP2 LT PUSH2 0x1474 JUMPI INVALID JUMPDEST PUSH1 0x20 MUL ADD SWAP1 PUSH8 0xFFFFFFFFFFFFFFFF AND SWAP1 DUP2 PUSH8 0xFFFFFFFFFFFFFFFF AND DUP2 MSTORE POP POP PUSH1 0x0 DUP2 PUSH1 0x8 DUP2 LT PUSH2 0x14A0 JUMPI INVALID JUMPDEST PUSH1 0x4 SWAP2 DUP3 DUP3 DIV ADD SWAP2 SWAP1 MOD PUSH1 0x8 MUL SWAP1 SLOAD SWAP1 PUSH2 0x100 EXP SWAP1 DIV PUSH8 0xFFFFFFFFFFFFFFFF AND DUP4 PUSH1 0x8 DUP4 ADD PUSH1 0x10 DUP2 LT PUSH2 0x14CF JUMPI INVALID JUMPDEST PUSH1 0x20 MUL ADD SWAP1 PUSH8 0xFFFFFFFFFFFFFFFF AND SWAP1 DUP2 PUSH8 0xFFFFFFFFFFFFFFFF AND DUP2 MSTORE POP POP DUP1 DUP1 PUSH1 0x1 ADD SWAP2 POP POP PUSH2 0x144A JUMP JUMPDEST POP PUSH9 0x10000000000000000 DUP5 PUSH1 0x40 ADD MLOAD PUSH16 0xFFFFFFFFFFFFFFFFFFFFFFFFFFFFFFFF AND DUP2 PUSH2 0x1524 JUMPI INVALID JUMPDEST MOD DUP3 PUSH1 0xC PUSH1 0x10 DUP2 LT PUSH2 0x1532 JUMPI INVALID JUMPDEST PUSH1 0x20 MUL ADD MLOAD XOR DUP3 PUSH1 0xC PUSH1 0x10 DUP2 LT PUSH2 0x1545 JUMPI INVALID JUMPDEST PUSH1 0x20 MUL ADD SWAP1 PUSH8 0xFFFFFFFFFFFFFFFF AND SWAP1 DUP2 PUSH8 0xFFFFFFFFFFFFFFFF AND DUP2 MSTORE POP POP PUSH9 0x10000000000000000 DUP5 PUSH1 0x40 ADD MLOAD PUSH16 0xFFFFFFFFFFFFFFFFFFFFFFFFFFFFFFFF AND DUP2 PUSH2 0x158C JUMPI INVALID JUMPDEST DIV DUP3 PUSH1 0xD PUSH1 0x10 DUP2 LT PUSH2 0x159A JUMPI INVALID JUMPDEST PUSH1 0x20 MUL ADD MLOAD XOR DUP3 PUSH1 0xD PUSH1 0x10 DUP2 LT PUSH2 0x15AD JUMPI INVALID JUMPDEST PUSH1 0x20 MUL ADD SWAP1 PUSH8 0xFFFFFFFFFFFFFFFF AND SWAP1 DUP2 PUSH8 0xFFFFFFFFFFFFFFFF AND DUP2 MSTORE POP POP DUP3 ISZERO PUSH2 0x1612 JUMPI DUP2 PUSH1 0xE PUSH1 0x10 DUP2 LT PUSH2 0x15DF JUMPI INVALID JUMPDEST PUSH1 0x20 MUL ADD MLOAD NOT DUP3 PUSH1 0xE PUSH1 0x10 DUP2 LT PUSH2 0x15F2 JUMPI INVALID JUMPDEST PUSH1 0x20 MUL ADD SWAP1 PUSH8 0xFFFFFFFFFFFFFFFF AND SWAP1 DUP2 PUSH8 0xFFFFFFFFFFFFFFFF AND DUP2 MSTORE POP POP JUMPDEST PUSH1 0x0 DUP1 PUSH1 0x0 JUMPDEST PUSH1 0x10 DUP2 LT ISZERO PUSH2 0x16B9 JUMPI PUSH1 0x0 PUSH1 0x4 DUP3 DUP2 PUSH2 0x162D JUMPI INVALID JUMPDEST MOD SWAP1 POP PUSH1 0x0 SWAP4 POP PUSH1 0x0 DUP2 EQ ISZERO PUSH2 0x165F JUMPI DUP8 PUSH1 0x0 ADD MLOAD PUSH1 0x4 DUP4 DUP2 PUSH2 0x164C JUMPI INVALID JUMPDEST DIV PUSH1 0x4 DUP2 LT PUSH2 0x1657 JUMPI INVALID JUMPDEST PUSH1 0x20 MUL ADD MLOAD SWAP3 POP JUMPDEST PUSH8 0xFFFFFFFFFFFFFFFF DUP2 PUSH1 0x3 SUB PUSH1 0x40 MUL PUSH1 0x2 EXP DUP5 DIV AND SWAP4 POP PUSH2 0x1680 DUP5 PUSH2 0x973 JUMP JUMPDEST DUP6 DUP4 PUSH1 0x10 DUP2 LT PUSH2 0x168C JUMPI INVALID JUMPDEST PUSH1 0x20 MUL ADD SWAP1 PUSH8 0xFFFFFFFFFFFFFFFF AND SWAP1 DUP2 PUSH8 0xFFFFFFFFFFFFFFFF AND DUP2 MSTORE POP POP POP DUP1 DUP1 PUSH1 0x1 ADD SWAP2 POP POP PUSH2 0x1618 JUMP JUMPDEST POP PUSH2 0x16EF DUP5 PUSH1 0x0 PUSH1 0x4 PUSH1 0x8 PUSH1 0xC DUP9 PUSH1 0x0 PUSH1 0x10 DUP2 LT PUSH2 0x16D3 JUMPI INVALID JUMPDEST PUSH1 0x20 MUL ADD MLOAD DUP10 PUSH1 0x1 PUSH1 0x10 DUP2 LT PUSH2 0x16E5 JUMPI INVALID JUMPDEST PUSH1 0x20 MUL ADD MLOAD PUSH2 0xCDA JUMP JUMPDEST PUSH2 0x1724 DUP5 PUSH1 0x1 PUSH1 0x5 PUSH1 0x9 PUSH1 0xD DUP9 PUSH1 0x2 PUSH1 0x10 DUP2 LT PUSH2 0x1708 JUMPI INVALID JUMPDEST PUSH1 0x20 MUL ADD MLOAD DUP10 PUSH1 0x3 PUSH1 0x10 DUP2 LT PUSH2 0x171A JUMPI INVALID JUMPDEST PUSH1 0x20 MUL ADD MLOAD PUSH2 0xCDA JUMP JUMPDEST PUSH2 0x1759 DUP5 PUSH1 0x2 PUSH1 0x6 PUSH1 0xA PUSH1 0xE DUP9 PUSH1 0x4 PUSH1 0x10 DUP2 LT PUSH2 0x173D JUMPI INVALID JUMPDEST PUSH1 0x20 MUL ADD MLOAD DUP10 PUSH1 0x5 PUSH1 0x10 DUP2 LT PUSH2 0x174F JUMPI INVALID JUMPDEST PUSH1 0x20 MUL ADD MLOAD PUSH2 0xCDA JUMP JUMPDEST PUSH2 0x178E DUP5 PUSH1 0x3 PUSH1 0x7 PUSH1 0xB PUSH1 0xF DUP9 PUSH1 0x6 PUSH1 0x10 DUP2 LT PUSH2 0x1772 JUMPI INVALID JUMPDEST PUSH1 0x20 MUL ADD MLOAD DUP10 PUSH1 0x7 PUSH1 0x10 DUP2 LT PUSH2 0x1784 JUMPI INVALID JUMPDEST PUSH1 0x20 MUL ADD MLOAD PUSH2 0xCDA JUMP JUMPDEST PUSH2 0x17C3 DUP5 PUSH1 0x0 PUSH1 0x5 PUSH1 0xA PUSH1 0xF DUP9 PUSH1 0x8 PUSH1 0x10 DUP2 LT PUSH2 0x17A7 JUMPI INVALID JUMPDEST PUSH1 0x20 MUL ADD MLOAD DUP10 PUSH1 0x9 PUSH1 0x10 DUP2 LT PUSH2 0x17B9 JUMPI INVALID JUMPDEST PUSH1 0x20 MUL ADD MLOAD PUSH2 0xCDA JUMP JUMPDEST PUSH2 0x17F8 DUP5 PUSH1 0x1 PUSH1 0x6 PUSH1 0xB PUSH1 0xC DUP9 PUSH1 0xA PUSH1 0x10 DUP2 LT PUSH2 0x17DC JUMPI INVALID JUMPDEST PUSH1 0x20 MUL ADD MLOAD DUP10 PUSH1 0xB PUSH1 0x10 DUP2 LT PUSH2 0x17EE JUMPI INVALID JUMPDEST PUSH1 0x20 MUL ADD MLOAD PUSH2 0xCDA JUMP JUMPDEST PUSH2 0x182D DUP5 PUSH1 0x2 PUSH1 0x7 PUSH1 0x8 PUSH1 0xD DUP9 PUSH1 0xC PUSH1 0x10 DUP2 LT PUSH2 0x1811 JUMPI INVALID JUMPDEST PUSH1 0x20 MUL ADD MLOAD DUP10 PUSH1 0xD PUSH1 0x10 DUP2 LT PUSH2 0x1823 JUMPI INVALID JUMPDEST PUSH1 0x20 MUL ADD MLOAD PUSH2 0xCDA JUMP JUMPDEST PUSH2 0x1862 DUP5 PUSH1 0x3 PUSH1 0x4 PUSH1 0x9 PUSH1 0xE DUP9 PUSH1 0xE PUSH1 0x10 DUP2 LT PUSH2 0x1846 JUMPI INVALID JUMPDEST PUSH1 0x20 MUL ADD MLOAD DUP10 PUSH1 0xF PUSH1 0x10 DUP2 LT PUSH2 0x1858 JUMPI INVALID JUMPDEST PUSH1 0x20 MUL ADD MLOAD PUSH2 0xCDA JUMP JUMPDEST PUSH2 0x1897 DUP5 PUSH1 0x0 PUSH1 0x4 PUSH1 0x8 PUSH1 0xC DUP9 PUSH1 0xE PUSH1 0x10 DUP2 LT PUSH2 0x187B JUMPI INVALID JUMPDEST PUSH1 0x20 MUL ADD MLOAD DUP10 PUSH1 0xA PUSH1 0x10 DUP2 LT PUSH2 0x188D JUMPI INVALID JUMPDEST PUSH1 0x20 MUL ADD MLOAD PUSH2 0xCDA JUMP JUMPDEST PUSH2 0x18CC DUP5 PUSH1 0x1 PUSH1 0x5 PUSH1 0x9 PUSH1 0xD DUP9 PUSH1 0x4 PUSH1 0x10 DUP2 LT PUSH2 0x18B0 JUMPI INVALID JUMPDEST PUSH1 0x20 MUL ADD MLOAD DUP10 PUSH1 0x8 PUSH1 0x10 DUP2 LT PUSH2 0x18C2 JUMPI INVALID JUMPDEST PUSH1 0x20 MUL ADD MLOAD PUSH2 0xCDA JUMP JUMPDEST PUSH2 0x1901 DUP5 PUSH1 0x2 PUSH1 0x6 PUSH1 0xA PUSH1 0xE DUP9 PUSH1 0x9 PUSH1 0x10 DUP2 LT PUSH2 0x18E5 JUMPI INVALID JUMPDEST PUSH1 0x20 MUL ADD MLOAD DUP10 PUSH1 0xF PUSH1 0x10 DUP2 LT PUSH2 0x18F7 JUMPI INVALID JUMPDEST PUSH1 0x20 MUL ADD MLOAD PUSH2 0xCDA JUMP JUMPDEST PUSH2 0x1936 DUP5 PUSH1 0x3 PUSH1 0x7 PUSH1 0xB PUSH1 0xF DUP9 PUSH1 0xD PUSH1 0x10 DUP2 LT PUSH2 0x191A JUMPI INVALID JUMPDEST PUSH1 0x20 MUL ADD MLOAD DUP10 PUSH1 0x6 PUSH1 0x10 DUP2 LT PUSH2 0x192C JUMPI INVALID JUMPDEST PUSH1 0x20 MUL ADD MLOAD PUSH2 0xCDA JUMP JUMPDEST PUSH2 0x196B DUP5 PUSH1 0x0 PUSH1 0x5 PUSH1 0xA PUSH1 0xF DUP9 PUSH1 0x1 PUSH1 0x10 DUP2 LT PUSH2 0x194F JUMPI INVALID JUMPDEST PUSH1 0x20 MUL ADD MLOAD DUP10 PUSH1 0xC PUSH1 0x10 DUP2 LT PUSH2 0x1961 JUMPI INVALID JUMPDEST PUSH1 0x20 MUL ADD MLOAD PUSH2 0xCDA JUMP JUMPDEST PUSH2 0x19A0 DUP5 PUSH1 0x1 PUSH1 0x6 PUSH1 0xB PUSH1 0xC DUP9 PUSH1 0x0 PUSH1 0x10 DUP2 LT PUSH2 0x1984 JUMPI INVALID JUMPDEST PUSH1 0x20 MUL ADD MLOAD DUP10 PUSH1 0x2 PUSH1 0x10 DUP2 LT PUSH2 0x1996 JUMPI INVALID JUMPDEST PUSH1 0x20 MUL ADD MLOAD PUSH2 0xCDA JUMP JUMPDEST PUSH2 0x19D5 DUP5 PUSH1 0x2 PUSH1 0x7 PUSH1 0x8 PUSH1 0xD DUP9 PUSH1 0xB PUSH1 0x10 DUP2 LT PUSH2 0x19B9 JUMPI INVALID JUMPDEST PUSH1 0x20 MUL ADD MLOAD DUP10 PUSH1 0x7 PUSH1 0x10 DUP2 LT PUSH2 0x19CB JUMPI INVALID JUMPDEST PUSH1 0x20 MUL ADD MLOAD PUSH2 0xCDA JUMP JUMPDEST PUSH2 0x1A0A DUP5 PUSH1 0x3 PUSH1 0x4 PUSH1 0x9 PUSH1 0xE DUP9 PUSH1 0x5 PUSH1 0x10 DUP2 LT PUSH2 0x19EE JUMPI INVALID JUMPDEST PUSH1 0x20 MUL ADD MLOAD DUP10 PUSH1 0x3 PUSH1 0x10 DUP2 LT PUSH2 0x1A00 JUMPI INVALID JUMPDEST PUSH1 0x20 MUL ADD MLOAD PUSH2 0xCDA JUMP JUMPDEST PUSH2 0x1A3F DUP5 PUSH1 0x0 PUSH1 0x4 PUSH1 0x8 PUSH1 0xC DUP9 PUSH1 0xB PUSH1 0x10 DUP2 LT PUSH2 0x1A23 JUMPI INVALID JUMPDEST PUSH1 0x20 MUL ADD MLOAD DUP10 PUSH1 0x8 PUSH1 0x10 DUP2 LT PUSH2 0x1A35 JUMPI INVALID JUMPDEST PUSH1 0x20 MUL ADD MLOAD PUSH2 0xCDA JUMP JUMPDEST PUSH2 0x1A74 DUP5 PUSH1 0x1 PUSH1 0x5 PUSH1 0x9 PUSH1 0xD DUP9 PUSH1 0xC PUSH1 0x10 DUP2 LT PUSH2 0x1A58 JUMPI INVALID JUMPDEST PUSH1 0x20 MUL ADD MLOAD DUP10 PUSH1 0x0 PUSH1 0x10 DUP2 LT PUSH2 0x1A6A JUMPI INVALID JUMPDEST PUSH1 0x20 MUL ADD MLOAD PUSH2 0xCDA JUMP JUMPDEST PUSH2 0x1AA9 DUP5 PUSH1 0x2 PUSH1 0x6 PUSH1 0xA PUSH1 0xE DUP9 PUSH1 0x5 PUSH1 0x10 DUP2 LT PUSH2 0x1A8D JUMPI INVALID JUMPDEST PUSH1 0x20 MUL ADD MLOAD DUP10 PUSH1 0x2 PUSH1 0x10 DUP2 LT PUSH2 0x1A9F JUMPI INVALID JUMPDEST PUSH1 0x20 MUL ADD MLOAD PUSH2 0xCDA JUMP JUMPDEST PUSH2 0x1ADE DUP5 PUSH1 0x3 PUSH1 0x7 PUSH1 0xB PUSH1 0xF DUP9 PUSH1 0xF PUSH1 0x10 DUP2 LT PUSH2 0x1AC2 JUMPI INVALID JUMPDEST PUSH1 0x20 MUL ADD MLOAD DUP10 PUSH1 0xD PUSH1 0x10 DUP2 LT PUSH2 0x1AD4 JUMPI INVALID JUMPDEST PUSH1 0x20 MUL ADD MLOAD PUSH2 0xCDA JUMP JUMPDEST PUSH2 0x1B13 DUP5 PUSH1 0x0 PUSH1 0x5 PUSH1 0xA PUSH1 0xF DUP9 PUSH1 0xA PUSH1 0x10 DUP2 LT PUSH2 0x1AF7 JUMPI INVALID JUMPDEST PUSH1 0x20 MUL ADD MLOAD DUP10 PUSH1 0xE PUSH1 0x10 DUP2 LT PUSH2 0x1B09 JUMPI INVALID JUMPDEST PUSH1 0x20 MUL ADD MLOAD PUSH2 0xCDA JUMP JUMPDEST PUSH2 0x1B48 DUP5 PUSH1 0x1 PUSH1 0x6 PUSH1 0xB PUSH1 0xC DUP9 PUSH1 0x3 PUSH1 0x10 DUP2 LT PUSH2 0x1B2C JUMPI INVALID JUMPDEST PUSH1 0x20 MUL ADD MLOAD DUP10 PUSH1 0x6 PUSH1 0x10 DUP2 LT PUSH2 0x1B3E JUMPI INVALID JUMPDEST PUSH1 0x20 MUL ADD MLOAD PUSH2 0xCDA JUMP JUMPDEST PUSH2 0x1B7D DUP5 PUSH1 0x2 PUSH1 0x7 PUSH1 0x8 PUSH1 0xD DUP9 PUSH1 0x7 PUSH1 0x10 DUP2 LT PUSH2 0x1B61 JUMPI INVALID JUMPDEST PUSH1 0x20 MUL ADD MLOAD DUP10 PUSH1 0x1 PUSH1 0x10 DUP2 LT PUSH2 0x1B73 JUMPI INVALID JUMPDEST PUSH1 0x20 MUL ADD MLOAD PUSH2 0xCDA JUMP JUMPDEST PUSH2 0x1BB2 DUP5 PUSH1 0x3 PUSH1 0x4 PUSH1 0x9 PUSH1 0xE DUP9 PUSH1 0x9 PUSH1 0x10 DUP2 LT PUSH2 0x1B96 JUMPI INVALID JUMPDEST PUSH1 0x20 MUL ADD MLOAD DUP10 PUSH1 0x4 PUSH1 0x10 DUP2 LT PUSH2 0x1BA8 JUMPI INVALID JUMPDEST PUSH1 0x20 MUL ADD MLOAD PUSH2 0xCDA JUMP JUMPDEST PUSH2 0x1BE7 DUP5 PUSH1 0x0 PUSH1 0x4 PUSH1 0x8 PUSH1 0xC DUP9 PUSH1 0x7 PUSH1 0x10 DUP2 LT PUSH2 0x1BCB JUMPI INVALID JUMPDEST PUSH1 0x20 MUL ADD MLOAD DUP10 PUSH1 0x9 PUSH1 0x10 DUP2 LT PUSH2 0x1BDD JUMPI INVALID JUMPDEST PUSH1 0x20 MUL ADD MLOAD PUSH2 0xCDA JUMP JUMPDEST PUSH2 0x1C1C DUP5 PUSH1 0x1 PUSH1 0x5 PUSH1 0x9 PUSH1 0xD DUP9 PUSH1 0x3 PUSH1 0x10 DUP2 LT PUSH2 0x1C00 JUMPI INVALID JUMPDEST PUSH1 0x20 MUL ADD MLOAD DUP10 PUSH1 0x1 PUSH1 0x10 DUP2 LT PUSH2 0x1C12 JUMPI INVALID JUMPDEST PUSH1 0x20 MUL ADD MLOAD PUSH2 0xCDA JUMP JUMPDEST PUSH2 0x1C51 DUP5 PUSH1 0x2 PUSH1 0x6 PUSH1 0xA PUSH1 0xE DUP9 PUSH1 0xD PUSH1 0x10 DUP2 LT PUSH2 0x1C35 JUMPI INVALID JUMPDEST PUSH1 0x20 MUL ADD MLOAD DUP10 PUSH1 0xC PUSH1 0x10 DUP2 LT PUSH2 0x1C47 JUMPI INVALID JUMPDEST PUSH1 0x20 MUL ADD MLOAD PUSH2 0xCDA JUMP JUMPDEST PUSH2 0x1C86 DUP5 PUSH1 0x3 PUSH1 0x7 PUSH1 0xB PUSH1 0xF DUP9 PUSH1 0xB PUSH1 0x10 DUP2 LT PUSH2 0x1C6A JUMPI INVALID JUMPDEST PUSH1 0x20 MUL ADD MLOAD DUP10 PUSH1 0xE PUSH1 0x10 DUP2 LT PUSH2 0x1C7C JUMPI INVALID JUMPDEST PUSH1 0x20 MUL ADD MLOAD PUSH2 0xCDA JUMP JUMPDEST PUSH2 0x1CBB DUP5 PUSH1 0x0 PUSH1 0x5 PUSH1 0xA PUSH1 0xF DUP9 PUSH1 0x2 PUSH1 0x10 DUP2 LT PUSH2 0x1C9F JUMPI INVALID JUMPDEST PUSH1 0x20 MUL ADD MLOAD DUP10 PUSH1 0x6 PUSH1 0x10 DUP2 LT PUSH2 0x1CB1 JUMPI INVALID JUMPDEST PUSH1 0x20 MUL ADD MLOAD PUSH2 0xCDA JUMP JUMPDEST PUSH2 0x1CF0 DUP5 PUSH1 0x1 PUSH1 0x6 PUSH1 0xB PUSH1 0xC DUP9 PUSH1 0x5 PUSH1 0x10 DUP2 LT PUSH2 0x1CD4 JUMPI INVALID JUMPDEST PUSH1 0x20 MUL ADD MLOAD DUP10 PUSH1 0xA PUSH1 0x10 DUP2 LT PUSH2 0x1CE6 JUMPI INVALID JUMPDEST PUSH1 0x20 MUL ADD MLOAD PUSH2 0xCDA JUMP JUMPDEST PUSH2 0x1D25 DUP5 PUSH1 0x2 PUSH1 0x7 PUSH1 0x8 PUSH1 0xD DUP9 PUSH1 0x4 PUSH1 0x10 DUP2 LT PUSH2 0x1D09 JUMPI INVALID JUMPDEST PUSH1 0x20 MUL ADD MLOAD DUP10 PUSH1 0x0 PUSH1 0x10 DUP2 LT PUSH2 0x1D1B JUMPI INVALID JUMPDEST PUSH1 0x20 MUL ADD MLOAD PUSH2 0xCDA JUMP JUMPDEST PUSH2 0x1D5A DUP5 PUSH1 0x3 PUSH1 0x4 PUSH1 0x9 PUSH1 0xE DUP9 PUSH1 0xF PUSH1 0x10 DUP2 LT PUSH2 0x1D3E JUMPI INVALID JUMPDEST PUSH1 0x20 MUL ADD MLOAD DUP10 PUSH1 0x8 PUSH1 0x10 DUP2 LT PUSH2 0x1D50 JUMPI INVALID JUMPDEST PUSH1 0x20 MUL ADD MLOAD PUSH2 0xCDA JUMP JUMPDEST PUSH2 0x1D8F DUP5 PUSH1 0x0 PUSH1 0x4 PUSH1 0x8 PUSH1 0xC DUP9 PUSH1 0x9 PUSH1 0x10 DUP2 LT PUSH2 0x1D73 JUMPI INVALID JUMPDEST PUSH1 0x20 MUL ADD MLOAD DUP10 PUSH1 0x0 PUSH1 0x10 DUP2 LT PUSH2 0x1D85 JUMPI INVALID JUMPDEST PUSH1 0x20 MUL ADD MLOAD PUSH2 0xCDA JUMP JUMPDEST PUSH2 0x1DC4 DUP5 PUSH1 0x1 PUSH1 0x5 PUSH1 0x9 PUSH1 0xD DUP9 PUSH1 0x5 PUSH1 0x10 DUP2 LT PUSH2 0x1DA8 JUMPI INVALID JUMPDEST PUSH1 0x20 MUL ADD MLOAD DUP10 PUSH1 0x7 PUSH1 0x10 DUP2 LT PUSH2 0x1DBA JUMPI INVALID JUMPDEST PUSH1 0x20 MUL ADD MLOAD PUSH2 0xCDA JUMP JUMPDEST PUSH2 0x1DF9 DUP5 PUSH1 0x2 PUSH1 0x6 PUSH1 0xA PUSH1 0xE DUP9 PUSH1 0x2 PUSH1 0x10 DUP2 LT PUSH2 0x1DDD JUMPI INVALID JUMPDEST PUSH1 0x20 MUL ADD MLOAD DUP10 PUSH1 0x4 PUSH1 0x10 DUP2 LT PUSH2 0x1DEF JUMPI INVALID JUMPDEST PUSH1 0x20 MUL ADD MLOAD PUSH2 0xCDA JUMP JUMPDEST PUSH2 0x1E2E DUP5 PUSH1 0x3 PUSH1 0x7 PUSH1 0xB PUSH1 0xF DUP9 PUSH1 0xA PUSH1 0x10 DUP2 LT PUSH2 0x1E12 JUMPI INVALID JUMPDEST PUSH1 0x20 MUL ADD MLOAD DUP10 PUSH1 0xF PUSH1 0x10 DUP2 LT PUSH2 0x1E24 JUMPI INVALID JUMPDEST PUSH1 0x20 MUL ADD MLOAD PUSH2 0xCDA JUMP JUMPDEST PUSH2 0x1E63 DUP5 PUSH1 0x0 PUSH1 0x5 PUSH1 0xA PUSH1 0xF DUP9 PUSH1 0xE PUSH1 0x10 DUP2 LT PUSH2 0x1E47 JUMPI INVALID JUMPDEST PUSH1 0x20 MUL ADD MLOAD DUP10 PUSH1 0x1 PUSH1 0x10 DUP2 LT PUSH2 0x1E59 JUMPI INVALID JUMPDEST PUSH1 0x20 MUL ADD MLOAD PUSH2 0xCDA JUMP JUMPDEST PUSH2 0x1E98 DUP5 PUSH1 0x1 PUSH1 0x6 PUSH1 0xB PUSH1 0xC DUP9 PUSH1 0xB PUSH1 0x10 DUP2 LT PUSH2 0x1E7C JUMPI INVALID JUMPDEST PUSH1 0x20 MUL ADD MLOAD DUP10 PUSH1 0xC PUSH1 0x10 DUP2 LT PUSH2 0x1E8E JUMPI INVALID JUMPDEST PUSH1 0x20 MUL ADD MLOAD PUSH2 0xCDA JUMP JUMPDEST PUSH2 0x1ECD DUP5 PUSH1 0x2 PUSH1 0x7 PUSH1 0x8 PUSH1 0xD DUP9 PUSH1 0x6 PUSH1 0x10 DUP2 LT PUSH2 0x1EB1 JUMPI INVALID JUMPDEST PUSH1 0x20 MUL ADD MLOAD DUP10 PUSH1 0x8 PUSH1 0x10 DUP2 LT PUSH2 0x1EC3 JUMPI INVALID JUMPDEST PUSH1 0x20 MUL ADD MLOAD PUSH2 0xCDA JUMP JUMPDEST PUSH2 0x1F02 DUP5 PUSH1 0x3 PUSH1 0x4 PUSH1 0x9 PUSH1 0xE DUP9 PUSH1 0x3 PUSH1 0x10 DUP2 LT PUSH2 0x1EE6 JUMPI INVALID JUMPDEST PUSH1 0x20 MUL ADD MLOAD DUP10 PUSH1 0xD PUSH1 0x10 DUP2 LT PUSH2 0x1EF8 JUMPI INVALID JUMPDEST PUSH1 0x20 MUL ADD MLOAD PUSH2 0xCDA JUMP JUMPDEST PUSH2 0x1F37 DUP5 PUSH1 0x0 PUSH1 0x4 PUSH1 0x8 PUSH1 0xC DUP9 PUSH1 0x2 PUSH1 0x10 DUP2 LT PUSH2 0x1F1B JUMPI INVALID JUMPDEST PUSH1 0x20 MUL ADD MLOAD DUP10 PUSH1 0xC PUSH1 0x10 DUP2 LT PUSH2 0x1F2D JUMPI INVALID JUMPDEST PUSH1 0x20 MUL ADD MLOAD PUSH2 0xCDA JUMP JUMPDEST PUSH2 0x1F6C DUP5 PUSH1 0x1 PUSH1 0x5 PUSH1 0x9 PUSH1 0xD DUP9 PUSH1 0x6 PUSH1 0x10 DUP2 LT PUSH2 0x1F50 JUMPI INVALID JUMPDEST PUSH1 0x20 MUL ADD MLOAD DUP10 PUSH1 0xA PUSH1 0x10 DUP2 LT PUSH2 0x1F62 JUMPI INVALID JUMPDEST PUSH1 0x20 MUL ADD MLOAD PUSH2 0xCDA JUMP JUMPDEST PUSH2 0x1FA1 DUP5 PUSH1 0x2 PUSH1 0x6 PUSH1 0xA PUSH1 0xE DUP9 PUSH1 0x0 PUSH1 0x10 DUP2 LT PUSH2 0x1F85 JUMPI INVALID JUMPDEST PUSH1 0x20 MUL ADD MLOAD DUP10 PUSH1 0xB PUSH1 0x10 DUP2 LT PUSH2 0x1F97 JUMPI INVALID JUMPDEST PUSH1 0x20 MUL ADD MLOAD PUSH2 0xCDA JUMP JUMPDEST PUSH2 0x1FD6 DUP5 PUSH1 0x3 PUSH1 0x7 PUSH1 0xB PUSH1 0xF DUP9 PUSH1 0x8 PUSH1 0x10 DUP2 LT PUSH2 0x1FBA JUMPI INVALID JUMPDEST PUSH1 0x20 MUL ADD MLOAD DUP10 PUSH1 0x3 PUSH1 0x10 DUP2 LT PUSH2 0x1FCC JUMPI INVALID JUMPDEST PUSH1 0x20 MUL ADD MLOAD PUSH2 0xCDA JUMP JUMPDEST PUSH2 0x200B DUP5 PUSH1 0x0 PUSH1 0x5 PUSH1 0xA PUSH1 0xF DUP9 PUSH1 0x4 PUSH1 0x10 DUP2 LT PUSH2 0x1FEF JUMPI INVALID JUMPDEST PUSH1 0x20 MUL ADD MLOAD DUP10 PUSH1 0xD PUSH1 0x10 DUP2 LT PUSH2 0x2001 JUMPI INVALID JUMPDEST PUSH1 0x20 MUL ADD MLOAD PUSH2 0xCDA JUMP JUMPDEST PUSH2 0x2040 DUP5 PUSH1 0x1 PUSH1 0x6 PUSH1 0xB PUSH1 0xC DUP9 PUSH1 0x7 PUSH1 0x10 DUP2 LT PUSH2 0x2024 JUMPI INVALID JUMPDEST PUSH1 0x20 MUL ADD MLOAD DUP10 PUSH1 0x5 PUSH1 0x10 DUP2 LT PUSH2 0x2036 JUMPI INVALID JUMPDEST PUSH1 0x20 MUL ADD MLOAD PUSH2 0xCDA JUMP JUMPDEST PUSH2 0x2075 DUP5 PUSH1 0x2 PUSH1 0x7 PUSH1 0x8 PUSH1 0xD DUP9 PUSH1 0xF PUSH1 0x10 DUP2 LT PUSH2 0x2059 JUMPI INVALID JUMPDEST PUSH1 0x20 MUL ADD MLOAD DUP10 PUSH1 0xE PUSH1 0x10 DUP2 LT PUSH2 0x206B JUMPI INVALID JUMPDEST PUSH1 0x20 MUL ADD MLOAD PUSH2 0xCDA JUMP JUMPDEST PUSH2 0x20AA DUP5 PUSH1 0x3 PUSH1 0x4 PUSH1 0x9 PUSH1 0xE DUP9 PUSH1 0x1 PUSH1 0x10 DUP2 LT PUSH2 0x208E JUMPI INVALID JUMPDEST PUSH1 0x20 MUL ADD MLOAD DUP10 PUSH1 0x9 PUSH1 0x10 DUP2 LT PUSH2 0x20A0 JUMPI INVALID JUMPDEST PUSH1 0x20 MUL ADD MLOAD PUSH2 0xCDA JUMP JUMPDEST PUSH2 0x20DF DUP5 PUSH1 0x0 PUSH1 0x4 PUSH1 0x8 PUSH1 0xC DUP9 PUSH1 0xC PUSH1 0x10 DUP2 LT PUSH2 0x20C3 JUMPI INVALID JUMPDEST PUSH1 0x20 MUL ADD MLOAD DUP10 PUSH1 0x5 PUSH1 0x10 DUP2 LT PUSH2 0x20D5 JUMPI INVALID JUMPDEST PUSH1 0x20 MUL ADD MLOAD PUSH2 0xCDA JUMP JUMPDEST PUSH2 0x2114 DUP5 PUSH1 0x1 PUSH1 0x5 PUSH1 0x9 PUSH1 0xD DUP9 PUSH1 0x1 PUSH1 0x10 DUP2 LT PUSH2 0x20F8 JUMPI INVALID JUMPDEST PUSH1 0x20 MUL ADD MLOAD DUP10 PUSH1 0xF PUSH1 0x10 DUP2 LT PUSH2 0x210A JUMPI INVALID JUMPDEST PUSH1 0x20 MUL ADD MLOAD PUSH2 0xCDA JUMP JUMPDEST PUSH2 0x2149 DUP5 PUSH1 0x2 PUSH1 0x6 PUSH1 0xA PUSH1 0xE DUP9 PUSH1 0xE PUSH1 0x10 DUP2 LT PUSH2 0x212D JUMPI INVALID JUMPDEST PUSH1 0x20 MUL ADD MLOAD DUP10 PUSH1 0xD PUSH1 0x10 DUP2 LT PUSH2 0x213F JUMPI INVALID JUMPDEST PUSH1 0x20 MUL ADD MLOAD PUSH2 0xCDA JUMP JUMPDEST PUSH2 0x217E DUP5 PUSH1 0x3 PUSH1 0x7 PUSH1 0xB PUSH1 0xF DUP9 PUSH1 0x4 PUSH1 0x10 DUP2 LT PUSH2 0x2162 JUMPI INVALID JUMPDEST PUSH1 0x20 MUL ADD MLOAD DUP10 PUSH1 0xA PUSH1 0x10 DUP2 LT PUSH2 0x2174 JUMPI INVALID JUMPDEST PUSH1 0x20 MUL ADD MLOAD PUSH2 0xCDA JUMP JUMPDEST PUSH2 0x21B3 DUP5 PUSH1 0x0 PUSH1 0x5 PUSH1 0xA PUSH1 0xF DUP9 PUSH1 0x0 PUSH1 0x10 DUP2 LT PUSH2 0x2197 JUMPI INVALID JUMPDEST PUSH1 0x20 MUL ADD MLOAD DUP10 PUSH1 0x7 PUSH1 0x10 DUP2 LT PUSH2 0x21A9 JUMPI INVALID JUMPDEST PUSH1 0x20 MUL ADD MLOAD PUSH2 0xCDA JUMP JUMPDEST PUSH2 0x21E8 DUP5 PUSH1 0x1 PUSH1 0x6 PUSH1 0xB PUSH1 0xC DUP9 PUSH1 0x6 PUSH1 0x10 DUP2 LT PUSH2 0x21CC JUMPI INVALID JUMPDEST PUSH1 0x20 MUL ADD MLOAD DUP10 PUSH1 0x3 PUSH1 0x10 DUP2 LT PUSH2 0x21DE JUMPI INVALID JUMPDEST PUSH1 0x20 MUL ADD MLOAD PUSH2 0xCDA JUMP JUMPDEST PUSH2 0x221D DUP5 PUSH1 0x2 PUSH1 0x7 PUSH1 0x8 PUSH1 0xD DUP9 PUSH1 0x9 PUSH1 0x10 DUP2 LT PUSH2 0x2201 JUMPI INVALID JUMPDEST PUSH1 0x20 MUL ADD MLOAD DUP10 PUSH1 0x2 PUSH1 0x10 DUP2 LT PUSH2 0x2213 JUMPI INVALID JUMPDEST PUSH1 0x20 MUL ADD MLOAD PUSH2 0xCDA JUMP JUMPDEST PUSH2 0x2252 DUP5 PUSH1 0x3 PUSH1 0x4 PUSH1 0x9 PUSH1 0xE DUP9 PUSH1 0x8 PUSH1 0x10 DUP2 LT PUSH2 0x2236 JUMPI INVALID JUMPDEST PUSH1 0x20 MUL ADD MLOAD DUP10 PUSH1 0xB PUSH1 0x10 DUP2 LT PUSH2 0x2248 JUMPI INVALID JUMPDEST PUSH1 0x20 MUL ADD MLOAD PUSH2 0xCDA JUMP JUMPDEST PUSH2 0x2287 DUP5 PUSH1 0x0 PUSH1 0x4 PUSH1 0x8 PUSH1 0xC DUP9 PUSH1 0xD PUSH1 0x10 DUP2 LT PUSH2 0x226B JUMPI INVALID JUMPDEST PUSH1 0x20 MUL ADD MLOAD DUP10 PUSH1 0xB PUSH1 0x10 DUP2 LT PUSH2 0x227D JUMPI INVALID JUMPDEST PUSH1 0x20 MUL ADD MLOAD PUSH2 0xCDA JUMP JUMPDEST PUSH2 0x22BC DUP5 PUSH1 0x1 PUSH1 0x5 PUSH1 0x9 PUSH1 0xD DUP9 PUSH1 0x7 PUSH1 0x10 DUP2 LT PUSH2 0x22A0 JUMPI INVALID JUMPDEST PUSH1 0x20 MUL ADD MLOAD DUP10 PUSH1 0xE PUSH1 0x10 DUP2 LT PUSH2 0x22B2 JUMPI INVALID JUMPDEST PUSH1 0x20 MUL ADD MLOAD PUSH2 0xCDA JUMP JUMPDEST PUSH2 0x22F1 DUP5 PUSH1 0x2 PUSH1 0x6 PUSH1 0xA PUSH1 0xE DUP9 PUSH1 0xC PUSH1 0x10 DUP2 LT PUSH2 0x22D5 JUMPI INVALID JUMPDEST PUSH1 0x20 MUL ADD MLOAD DUP10 PUSH1 0x1 PUSH1 0x10 DUP2 LT PUSH2 0x22E7 JUMPI INVALID JUMPDEST PUSH1 0x20 MUL ADD MLOAD PUSH2 0xCDA JUMP JUMPDEST PUSH2 0x2326 DUP5 PUSH1 0x3 PUSH1 0x7 PUSH1 0xB PUSH1 0xF DUP9 PUSH1 0x3 PUSH1 0x10 DUP2 LT PUSH2 0x230A JUMPI INVALID JUMPDEST PUSH1 0x20 MUL ADD MLOAD DUP10 PUSH1 0x9 PUSH1 0x10 DUP2 LT PUSH2 0x231C JUMPI INVALID JUMPDEST PUSH1 0x20 MUL ADD MLOAD PUSH2 0xCDA JUMP JUMPDEST PUSH2 0x235B DUP5 PUSH1 0x0 PUSH1 0x5 PUSH1 0xA PUSH1 0xF DUP9 PUSH1 0x5 PUSH1 0x10 DUP2 LT PUSH2 0x233F JUMPI INVALID JUMPDEST PUSH1 0x20 MUL ADD MLOAD DUP10 PUSH1 0x0 PUSH1 0x10 DUP2 LT PUSH2 0x2351 JUMPI INVALID JUMPDEST PUSH1 0x20 MUL ADD MLOAD PUSH2 0xCDA JUMP JUMPDEST PUSH2 0x2390 DUP5 PUSH1 0x1 PUSH1 0x6 PUSH1 0xB PUSH1 0xC DUP9 PUSH1 0xF PUSH1 0x10 DUP2 LT PUSH2 0x2374 JUMPI INVALID JUMPDEST PUSH1 0x20 MUL ADD MLOAD DUP10 PUSH1 0x4 PUSH1 0x10 DUP2 LT PUSH2 0x2386 JUMPI INVALID JUMPDEST PUSH1 0x20 MUL ADD MLOAD PUSH2 0xCDA JUMP JUMPDEST PUSH2 0x23C5 DUP5 PUSH1 0x2 PUSH1 0x7 PUSH1 0x8 PUSH1 0xD DUP9 PUSH1 0x8 PUSH1 0x10 DUP2 LT PUSH2 0x23A9 JUMPI INVALID JUMPDEST PUSH1 0x20 MUL ADD MLOAD DUP10 PUSH1 0x6 PUSH1 0x10 DUP2 LT PUSH2 0x23BB JUMPI INVALID JUMPDEST PUSH1 0x20 MUL ADD MLOAD PUSH2 0xCDA JUMP JUMPDEST PUSH2 0x23FA DUP5 PUSH1 0x3 PUSH1 0x4 PUSH1 0x9 PUSH1 0xE DUP9 PUSH1 0x2 PUSH1 0x10 DUP2 LT PUSH2 0x23DE JUMPI INVALID JUMPDEST PUSH1 0x20 MUL ADD MLOAD DUP10 PUSH1 0xA PUSH1 0x10 DUP2 LT PUSH2 0x23F0 JUMPI INVALID JUMPDEST PUSH1 0x20 MUL ADD MLOAD PUSH2 0xCDA JUMP JUMPDEST PUSH2 0x242F DUP5 PUSH1 0x0 PUSH1 0x4 PUSH1 0x8 PUSH1 0xC DUP9 PUSH1 0x6 PUSH1 0x10 DUP2 LT PUSH2 0x2413 JUMPI INVALID JUMPDEST PUSH1 0x20 MUL ADD MLOAD DUP10 PUSH1 0xF PUSH1 0x10 DUP2 LT PUSH2 0x2425 JUMPI INVALID JUMPDEST PUSH1 0x20 MUL ADD MLOAD PUSH2 0xCDA JUMP JUMPDEST PUSH2 0x2464 DUP5 PUSH1 0x1 PUSH1 0x5 PUSH1 0x9 PUSH1 0xD DUP9 PUSH1 0xE PUSH1 0x10 DUP2 LT PUSH2 0x2448 JUMPI INVALID JUMPDEST PUSH1 0x20 MUL ADD MLOAD DUP10 PUSH1 0x9 PUSH1 0x10 DUP2 LT PUSH2 0x245A JUMPI INVALID JUMPDEST PUSH1 0x20 MUL ADD MLOAD PUSH2 0xCDA JUMP JUMPDEST PUSH2 0x2499 DUP5 PUSH1 0x2 PUSH1 0x6 PUSH1 0xA PUSH1 0xE DUP9 PUSH1 0xB PUSH1 0x10 DUP2 LT PUSH2 0x247D JUMPI INVALID JUMPDEST PUSH1 0x20 MUL ADD MLOAD DUP10 PUSH1 0x3 PUSH1 0x10 DUP2 LT PUSH2 0x248F JUMPI INVALID JUMPDEST PUSH1 0x20 MUL ADD MLOAD PUSH2 0xCDA JUMP JUMPDEST PUSH2 0x24CE DUP5 PUSH1 0x3 PUSH1 0x7 PUSH1 0xB PUSH1 0xF DUP9 PUSH1 0x0 PUSH1 0x10 DUP2 LT PUSH2 0x24B2 JUMPI INVALID JUMPDEST PUSH1 0x20 MUL ADD MLOAD DUP10 PUSH1 0x8 PUSH1 0x10 DUP2 LT PUSH2 0x24C4 JUMPI INVALID JUMPDEST PUSH1 0x20 MUL ADD MLOAD PUSH2 0xCDA JUMP JUMPDEST PUSH2 0x2503 DUP5 PUSH1 0x0 PUSH1 0x5 PUSH1 0xA PUSH1 0xF DUP9 PUSH1 0xC PUSH1 0x10 DUP2 LT PUSH2 0x24E7 JUMPI INVALID JUMPDEST PUSH1 0x20 MUL ADD MLOAD DUP10 PUSH1 0x2 PUSH1 0x10 DUP2 LT PUSH2 0x24F9 JUMPI INVALID JUMPDEST PUSH1 0x20 MUL ADD MLOAD PUSH2 0xCDA JUMP JUMPDEST PUSH2 0x2538 DUP5 PUSH1 0x1 PUSH1 0x6 PUSH1 0xB PUSH1 0xC DUP9 PUSH1 0xD PUSH1 0x10 DUP2 LT PUSH2 0x251C JUMPI INVALID JUMPDEST PUSH1 0x20 MUL ADD MLOAD DUP10 PUSH1 0x7 PUSH1 0x10 DUP2 LT PUSH2 0x252E JUMPI INVALID JUMPDEST PUSH1 0x20 MUL ADD MLOAD PUSH2 0xCDA JUMP JUMPDEST PUSH2 0x256D DUP5 PUSH1 0x2 PUSH1 0x7 PUSH1 0x8 PUSH1 0xD DUP9 PUSH1 0x1 PUSH1 0x10 DUP2 LT PUSH2 0x2551 JUMPI INVALID JUMPDEST PUSH1 0x20 MUL ADD MLOAD DUP10 PUSH1 0x4 PUSH1 0x10 DUP2 LT PUSH2 0x2563 JUMPI INVALID JUMPDEST PUSH1 0x20 MUL ADD MLOAD PUSH2 0xCDA JUMP JUMPDEST PUSH2 0x25A2 DUP5 PUSH1 0x3 PUSH1 0x4 PUSH1 0x9 PUSH1 0xE DUP9 PUSH1 0xA PUSH1 0x10 DUP2 LT PUSH2 0x2586 JUMPI INVALID JUMPDEST PUSH1 0x20 MUL ADD MLOAD DUP10 PUSH1 0x5 PUSH1 0x10 DUP2 LT PUSH2 0x2598 JUMPI INVALID JUMPDEST PUSH1 0x20 MUL ADD MLOAD PUSH2 0xCDA JUMP JUMPDEST PUSH2 0x25D7 DUP5 PUSH1 0x0 PUSH1 0x4 PUSH1 0x8 PUSH1 0xC DUP9 PUSH1 0xA PUSH1 0x10 DUP2 LT PUSH2 0x25BB JUMPI INVALID JUMPDEST PUSH1 0x20 MUL ADD MLOAD DUP10 PUSH1 0x2 PUSH1 0x10 DUP2 LT PUSH2 0x25CD JUMPI INVALID JUMPDEST PUSH1 0x20 MUL ADD MLOAD PUSH2 0xCDA JUMP JUMPDEST PUSH2 0x260C DUP5 PUSH1 0x1 PUSH1 0x5 PUSH1 0x9 PUSH1 0xD DUP9 PUSH1 0x8 PUSH1 0x10 DUP2 LT PUSH2 0x25F0 JUMPI INVALID JUMPDEST PUSH1 0x20 MUL ADD MLOAD DUP10 PUSH1 0x4 PUSH1 0x10 DUP2 LT PUSH2 0x2602 JUMPI INVALID JUMPDEST PUSH1 0x20 MUL ADD MLOAD PUSH2 0xCDA JUMP JUMPDEST PUSH2 0x2641 DUP5 PUSH1 0x2 PUSH1 0x6 PUSH1 0xA PUSH1 0xE DUP9 PUSH1 0x7 PUSH1 0x10 DUP2 LT PUSH2 0x2625 JUMPI INVALID JUMPDEST PUSH1 0x20 MUL ADD MLOAD DUP10 PUSH1 0x6 PUSH1 0x10 DUP2 LT PUSH2 0x2637 JUMPI INVALID JUMPDEST PUSH1 0x20 MUL ADD MLOAD PUSH2 0xCDA JUMP JUMPDEST PUSH2 0x2676 DUP5 PUSH1 0x3 PUSH1 0x7 PUSH1 0xB PUSH1 0xF DUP9 PUSH1 0x1 PUSH1 0x10 DUP2 LT PUSH2 0x265A JUMPI INVALID JUMPDEST PUSH1 0x20 MUL ADD MLOAD DUP10 PUSH1 0x5 PUSH1 0x10 DUP2 LT PUSH2 0x266C JUMPI INVALID JUMPDEST PUSH1 0x20 MUL ADD MLOAD PUSH2 0xCDA JUMP JUMPDEST PUSH2 0x26AB DUP5 PUSH1 0x0 PUSH1 0x5 PUSH1 0xA PUSH1 0xF DUP9 PUSH1 0xF PUSH1 0x10 DUP2 LT PUSH2 0x268F JUMPI INVALID JUMPDEST PUSH1 0x20 MUL ADD MLOAD DUP10 PUSH1 0xB PUSH1 0x10 DUP2 LT PUSH2 0x26A1 JUMPI INVALID JUMPDEST PUSH1 0x20 MUL ADD MLOAD PUSH2 0xCDA JUMP JUMPDEST PUSH2 0x26E0 DUP5 PUSH1 0x1 PUSH1 0x6 PUSH1 0xB PUSH1 0xC DUP9 PUSH1 0x9 PUSH1 0x10 DUP2 LT PUSH2 0x26C4 JUMPI INVALID JUMPDEST PUSH1 0x20 MUL ADD MLOAD DUP10 PUSH1 0xE PUSH1 0x10 DUP2 LT PUSH2 0x26D6 JUMPI INVALID JUMPDEST PUSH1 0x20 MUL ADD MLOAD PUSH2 0xCDA JUMP JUMPDEST PUSH2 0x2715 DUP5 PUSH1 0x2 PUSH1 0x7 PUSH1 0x8 PUSH1 0xD DUP9 PUSH1 0x3 PUSH1 0x10 DUP2 LT PUSH2 0x26F9 JUMPI INVALID JUMPDEST PUSH1 0x20 MUL ADD MLOAD DUP10 PUSH1 0xC PUSH1 0x10 DUP2 LT PUSH2 0x270B JUMPI INVALID JUMPDEST PUSH1 0x20 MUL ADD MLOAD PUSH2 0xCDA JUMP JUMPDEST PUSH2 0x274A DUP5 PUSH1 0x3 PUSH1 0x4 PUSH1 0x9 PUSH1 0xE DUP9 PUSH1 0xD PUSH1 0x10 DUP2 LT PUSH2 0x272E JUMPI INVALID JUMPDEST PUSH1 0x20 MUL ADD MLOAD DUP10 PUSH1 0x0 PUSH1 0x10 DUP2 LT PUSH2 0x2740 JUMPI INVALID JUMPDEST PUSH1 0x20 MUL ADD MLOAD PUSH2 0xCDA JUMP JUMPDEST PUSH2 0x277F DUP5 PUSH1 0x0 PUSH1 0x4 PUSH1 0x8 PUSH1 0xC DUP9 PUSH1 0x0 PUSH1 0x10 DUP2 LT PUSH2 0x2763 JUMPI INVALID JUMPDEST PUSH1 0x20 MUL ADD MLOAD DUP10 PUSH1 0x1 PUSH1 0x10 DUP2 LT PUSH2 0x2775 JUMPI INVALID JUMPDEST PUSH1 0x20 MUL ADD MLOAD PUSH2 0xCDA JUMP JUMPDEST PUSH2 0x27B4 DUP5 PUSH1 0x1 PUSH1 0x5 PUSH1 0x9 PUSH1 0xD DUP9 PUSH1 0x2 PUSH1 0x10 DUP2 LT PUSH2 0x2798 JUMPI INVALID JUMPDEST PUSH1 0x20 MUL ADD MLOAD DUP10 PUSH1 0x3 PUSH1 0x10 DUP2 LT PUSH2 0x27AA JUMPI INVALID JUMPDEST PUSH1 0x20 MUL ADD MLOAD PUSH2 0xCDA JUMP JUMPDEST PUSH2 0x27E9 DUP5 PUSH1 0x2 PUSH1 0x6 PUSH1 0xA PUSH1 0xE DUP9 PUSH1 0x4 PUSH1 0x10 DUP2 LT PUSH2 0x27CD JUMPI INVALID JUMPDEST PUSH1 0x20 MUL ADD MLOAD DUP10 PUSH1 0x5 PUSH1 0x10 DUP2 LT PUSH2 0x27DF JUMPI INVALID JUMPDEST PUSH1 0x20 MUL ADD MLOAD PUSH2 0xCDA JUMP JUMPDEST PUSH2 0x281E DUP5 PUSH1 0x3 PUSH1 0x7 PUSH1 0xB PUSH1 0xF DUP9 PUSH1 0x6 PUSH1 0x10 DUP2 LT PUSH2 0x2802 JUMPI INVALID JUMPDEST PUSH1 0x20 MUL ADD MLOAD DUP10 PUSH1 0x7 PUSH1 0x10 DUP2 LT PUSH2 0x2814 JUMPI INVALID JUMPDEST PUSH1 0x20 MUL ADD MLOAD PUSH2 0xCDA JUMP JUMPDEST PUSH2 0x2853 DUP5 PUSH1 0x0 PUSH1 0x5 PUSH1 0xA PUSH1 0xF DUP9 PUSH1 0x8 PUSH1 0x10 DUP2 LT PUSH2 0x2837 JUMPI INVALID JUMPDEST PUSH1 0x20 MUL ADD MLOAD DUP10 PUSH1 0x9 PUSH1 0x10 DUP2 LT PUSH2 0x2849 JUMPI INVALID JUMPDEST PUSH1 0x20 MUL ADD MLOAD PUSH2 0xCDA JUMP JUMPDEST PUSH2 0x2888 DUP5 PUSH1 0x1 PUSH1 0x6 PUSH1 0xB PUSH1 0xC DUP9 PUSH1 0xA PUSH1 0x10 DUP2 LT PUSH2 0x286C JUMPI INVALID JUMPDEST PUSH1 0x20 MUL ADD MLOAD DUP10 PUSH1 0xB PUSH1 0x10 DUP2 LT PUSH2 0x287E JUMPI INVALID JUMPDEST PUSH1 0x20 MUL ADD MLOAD PUSH2 0xCDA JUMP JUMPDEST PUSH2 0x28BD DUP5 PUSH1 0x2 PUSH1 0x7 PUSH1 0x8 PUSH1 0xD DUP9 PUSH1 0xC PUSH1 0x10 DUP2 LT PUSH2 0x28A1 JUMPI INVALID JUMPDEST PUSH1 0x20 MUL ADD MLOAD DUP10 PUSH1 0xD PUSH1 0x10 DUP2 LT PUSH2 0x28B3 JUMPI INVALID JUMPDEST PUSH1 0x20 MUL ADD MLOAD PUSH2 0xCDA JUMP JUMPDEST PUSH2 0x28F2 DUP5 PUSH1 0x3 PUSH1 0x4 PUSH1 0x9 PUSH1 0xE DUP9 PUSH1 0xE PUSH1 0x10 DUP2 LT PUSH2 0x28D6 JUMPI INVALID JUMPDEST PUSH1 0x20 MUL ADD MLOAD DUP10 PUSH1 0xF PUSH1 0x10 DUP2 LT PUSH2 0x28E8 JUMPI INVALID JUMPDEST PUSH1 0x20 MUL ADD MLOAD PUSH2 0xCDA JUMP JUMPDEST PUSH2 0x2927 DUP5 PUSH1 0x0 PUSH1 0x4 PUSH1 0x8 PUSH1 0xC DUP9 PUSH1 0xE PUSH1 0x10 DUP2 LT PUSH2 0x290B JUMPI INVALID JUMPDEST PUSH1 0x20 MUL ADD MLOAD DUP10 PUSH1 0xA PUSH1 0x10 DUP2 LT PUSH2 0x291D JUMPI INVALID JUMPDEST PUSH1 0x20 MUL ADD MLOAD PUSH2 0xCDA JUMP JUMPDEST PUSH2 0x295C DUP5 PUSH1 0x1 PUSH1 0x5 PUSH1 0x9 PUSH1 0xD DUP9 PUSH1 0x4 PUSH1 0x10 DUP2 LT PUSH2 0x2940 JUMPI INVALID JUMPDEST PUSH1 0x20 MUL ADD MLOAD DUP10 PUSH1 0x8 PUSH1 0x10 DUP2 LT PUSH2 0x2952 JUMPI INVALID JUMPDEST PUSH1 0x20 MUL ADD MLOAD PUSH2 0xCDA JUMP JUMPDEST PUSH2 0x2991 DUP5 PUSH1 0x2 PUSH1 0x6 PUSH1 0xA PUSH1 0xE DUP9 PUSH1 0x9 PUSH1 0x10 DUP2 LT PUSH2 0x2975 JUMPI INVALID JUMPDEST PUSH1 0x20 MUL ADD MLOAD DUP10 PUSH1 0xF PUSH1 0x10 DUP2 LT PUSH2 0x2987 JUMPI INVALID JUMPDEST PUSH1 0x20 MUL ADD MLOAD PUSH2 0xCDA JUMP JUMPDEST PUSH2 0x29C6 DUP5 PUSH1 0x3 PUSH1 0x7 PUSH1 0xB PUSH1 0xF DUP9 PUSH1 0xD PUSH1 0x10 DUP2 LT PUSH2 0x29AA JUMPI INVALID JUMPDEST PUSH1 0x20 MUL ADD MLOAD DUP10 PUSH1 0x6 PUSH1 0x10 DUP2 LT PUSH2 0x29BC JUMPI INVALID JUMPDEST PUSH1 0x20 MUL ADD MLOAD PUSH2 0xCDA JUMP JUMPDEST PUSH2 0x29FB DUP5 PUSH1 0x0 PUSH1 0x5 PUSH1 0xA PUSH1 0xF DUP9 PUSH1 0x1 PUSH1 0x10 DUP2 LT PUSH2 0x29DF JUMPI INVALID JUMPDEST PUSH1 0x20 MUL ADD MLOAD DUP10 PUSH1 0xC PUSH1 0x10 DUP2 LT PUSH2 0x29F1 JUMPI INVALID JUMPDEST PUSH1 0x20 MUL ADD MLOAD PUSH2 0xCDA JUMP JUMPDEST PUSH2 0x2A30 DUP5 PUSH1 0x1 PUSH1 0x6 PUSH1 0xB PUSH1 0xC DUP9 PUSH1 0x0 PUSH1 0x10 DUP2 LT PUSH2 0x2A14 JUMPI INVALID JUMPDEST PUSH1 0x20 MUL ADD MLOAD DUP10 PUSH1 0x2 PUSH1 0x10 DUP2 LT PUSH2 0x2A26 JUMPI INVALID JUMPDEST PUSH1 0x20 MUL ADD MLOAD PUSH2 0xCDA JUMP JUMPDEST PUSH2 0x2A65 DUP5 PUSH1 0x2 PUSH1 0x7 PUSH1 0x8 PUSH1 0xD DUP9 PUSH1 0xB PUSH1 0x10 DUP2 LT PUSH2 0x2A49 JUMPI INVALID JUMPDEST PUSH1 0x20 MUL ADD MLOAD DUP10 PUSH1 0x7 PUSH1 0x10 DUP2 LT PUSH2 0x2A5B JUMPI INVALID JUMPDEST PUSH1 0x20 MUL ADD MLOAD PUSH2 0xCDA JUMP JUMPDEST PUSH2 0x2A9A DUP5 PUSH1 0x3 PUSH1 0x4 PUSH1 0x9 PUSH1 0xE DUP9 PUSH1 0x5 PUSH1 0x10 DUP2 LT PUSH2 0x2A7E JUMPI INVALID JUMPDEST PUSH1 0x20 MUL ADD MLOAD DUP10 PUSH1 0x3 PUSH1 0x10 DUP2 LT PUSH2 0x2A90 JUMPI INVALID JUMPDEST PUSH1 0x20 MUL ADD MLOAD PUSH2 0xCDA JUMP JUMPDEST PUSH1 0x0 JUMPDEST PUSH1 0x8 DUP2 LT ISZERO PUSH2 0x2B1C JUMPI DUP5 PUSH1 0x8 DUP3 ADD PUSH1 0x10 DUP2 LT PUSH2 0x2AB5 JUMPI INVALID JUMPDEST PUSH1 0x20 MUL ADD MLOAD DUP6 DUP3 PUSH1 0x10 DUP2 LT PUSH2 0x2AC6 JUMPI INVALID JUMPDEST PUSH1 0x20 MUL ADD MLOAD DUP9 PUSH1 0x20 ADD MLOAD DUP4 PUSH1 0x8 DUP2 LT PUSH2 0x2ADB JUMPI INVALID JUMPDEST PUSH1 0x20 MUL ADD MLOAD XOR XOR DUP8 PUSH1 0x20 ADD MLOAD DUP3 PUSH1 0x8 DUP2 LT PUSH2 0x2AF2 JUMPI INVALID JUMPDEST PUSH1 0x20 MUL ADD SWAP1 PUSH8 0xFFFFFFFFFFFFFFFF AND SWAP1 DUP2 PUSH8 0xFFFFFFFFFFFFFFFF AND DUP2 MSTORE POP POP DUP1 PUSH1 0x1 ADD SWAP1 POP PUSH2 0x2A9D JUMP JUMPDEST POP POP POP POP POP POP POP JUMP JUMPDEST PUSH1 0x40 MLOAD DUP1 PUSH2 0x100 ADD PUSH1 0x40 MSTORE DUP1 PUSH1 0x8 SWAP1 PUSH1 0x20 DUP3 MUL DUP1 CALLDATASIZE DUP4 CALLDATACOPY DUP1 DUP3 ADD SWAP2 POP POP SWAP1 POP POP SWAP1 JUMP JUMPDEST PUSH1 0x40 MLOAD DUP1 PUSH1 0xA0 ADD PUSH1 0x40 MSTORE DUP1 PUSH2 0x2B5B PUSH2 0x2BE3 JUMP JUMPDEST DUP2 MSTORE PUSH1 0x20 ADD PUSH2 0x2B68 PUSH2 0x2B25 JUMP JUMPDEST DUP2 MSTORE PUSH1 0x20 ADD PUSH1 0x0 PUSH16 0xFFFFFFFFFFFFFFFFFFFFFFFFFFFFFFFF AND DUP2 MSTORE PUSH1 0x20 ADD PUSH1 0x0 PUSH8 0xFFFFFFFFFFFFFFFF AND DUP2 MSTORE PUSH1 0x20 ADD PUSH1 0x0 DUP2 MSTORE POP SWAP1 JUMP JUMPDEST PUSH1 0x40 MLOAD DUP1 PUSH1 0x40 ADD PUSH1 0x40 MSTORE DUP1 PUSH1 0x2 SWAP1 PUSH1 0x20 DUP3 MUL DUP1 CALLDATASIZE DUP4 CALLDATACOPY DUP1 DUP3 ADD SWAP2 POP POP SWAP1 POP POP SWAP1 JUMP JUMPDEST PUSH1 0x40 MLOAD DUP1 PUSH1 0x40 ADD PUSH1 0x40 MSTORE DUP1 PUSH1 0x2 SWAP1 PUSH1 0x20 DUP3 MUL DUP1 CALLDATASIZE DUP4 CALLDATACOPY DUP1 DUP3 ADD SWAP2 POP POP SWAP1 POP POP SWAP1 JUMP JUMPDEST PUSH1 0x40 MLOAD DUP1 PUSH1 0x80 ADD PUSH1 0x40 MSTORE DUP1 PUSH1 0x4 SWAP1 PUSH1 0x20 DUP3 MUL DUP1 CALLDATASIZE DUP4 CALLDATACOPY DUP1 DUP3 ADD SWAP2 POP POP SWAP1 POP POP SWAP1 JUMP JUMPDEST PUSH1 0x40 MLOAD DUP1 PUSH2 0x200 ADD PUSH1 0x40 MSTORE DUP1 PUSH1 0x10 SWAP1 PUSH1 0x20 DUP3 MUL DUP1 CALLDATASIZE DUP4 CALLDATACOPY DUP1 DUP3 ADD SWAP2 POP POP SWAP1 POP POP SWAP1 JUMP INVALID 0x4F PUSH22 0x746C656E206D75737420626520677265617465722074 PUSH9 0x616E203020616E6420 PUSH13 0x657373207468616E203634A264 PUSH10 0x70667358221220FE109A ORIGIN LOG0 0xC 0xAA 0x29 0xA9 ADD PUSH4 0x56C07C1D 0xD5 DUP13 0x2B 0x4B 0xD0 CHAINID DIFFICULTY SELFBALANCE MOD PUSH20 0x6B2BFF1FA601A664736F6C634300060C00330000 "
		},
		"gasEstimates": {
			"creation": {
				"codeDepositCost": "1865800",
				"executionCost": "infinite",
				"totalCost": "infinite"
			},
			"external": {
				"bytesToBytes32(bytes)": "infinite",
				"checkHashInRoot(bytes32,bytes32,uint256,bytes32[])": "infinite",
				"create64Hash(bytes,bytes)": "infinite",
				"createHash(bytes)": "infinite",
				"createHash(bytes,bytes)": "infinite",
				"createHash(bytes,bytes,bool)": "infinite",
				"predictedRootHash(bytes32,uint256,bytes32[])": "infinite",
				"proveTransferSet((uint16,uint16,uint160,uint32,uint32,uint160,(uint160,uint64)[],(uint160,uint64)[],uint32,uint256,uint32),bytes32[],uint32,uint32)": "infinite",
				"reverseBytes(bytes32)": "infinite"
			}
		},
		"methodIdentifiers": {
			"bytesToBytes32(bytes)": "bfe370d9",
			"checkHashInRoot(bytes32,bytes32,uint256,bytes32[])": "82577c56",
			"create64Hash(bytes,bytes)": "c984bae8",
			"createHash(bytes)": "2cd0cff2",
			"createHash(bytes,bytes)": "fe5320bf",
			"createHash(bytes,bytes,bool)": "95c12f53",
			"predictedRootHash(bytes32,uint256,bytes32[])": "0a01b9b0",
			"proveTransferSet((uint16,uint16,uint160,uint32,uint32,uint160,(uint160,uint64)[],(uint160,uint64)[],uint32,uint256,uint32),bytes32[],uint32,uint32)": "b5d7a1e4",
			"reverseBytes(bytes32)": "2f0da104"
		}
	},
	"abi": [
		{
			"inputs": [
				{
					"internalType": "address",
					"name": "notarizerAddress",
					"type": "address"
				}
			],
			"stateMutability": "nonpayable",
			"type": "constructor"
		},
		{
			"anonymous": false,
			"inputs": [
				{
					"indexed": false,
					"internalType": "bytes32",
					"name": "newHash",
					"type": "bytes32"
				},
				{
					"indexed": false,
					"internalType": "uint8",
					"name": "eventType",
					"type": "uint8"
				}
			],
			"name": "HashEvent",
			"type": "event"
		},
		{
			"anonymous": false,
			"inputs": [
				{
					"indexed": false,
					"internalType": "bytes",
					"name": "joinedValue",
					"type": "bytes"
				},
				{
					"indexed": false,
					"internalType": "uint8",
					"name": "eventType",
					"type": "uint8"
				}
			],
			"name": "JoinEvent",
			"type": "event"
		},
		{
			"inputs": [
				{
					"internalType": "bytes",
					"name": "source",
					"type": "bytes"
				}
			],
			"name": "bytesToBytes32",
			"outputs": [
				{
					"internalType": "bytes32",
					"name": "result",
					"type": "bytes32"
				}
			],
			"stateMutability": "pure",
			"type": "function"
		},
		{
			"inputs": [
				{
					"internalType": "bytes32",
					"name": "_mmrRoot",
					"type": "bytes32"
				},
				{
					"internalType": "bytes32",
					"name": "_hashToCheck",
					"type": "bytes32"
				},
				{
					"internalType": "uint256",
					"name": "_hashIndex",
					"type": "uint256"
				},
				{
					"internalType": "bytes32[]",
					"name": "_branch",
					"type": "bytes32[]"
				}
			],
			"name": "checkHashInRoot",
			"outputs": [
				{
					"internalType": "bool",
					"name": "",
					"type": "bool"
				}
			],
			"stateMutability": "nonpayable",
			"type": "function"
		},
		{
			"inputs": [
				{
					"internalType": "bytes",
					"name": "testString",
					"type": "bytes"
				},
				{
					"internalType": "bytes",
					"name": "key",
					"type": "bytes"
				}
			],
			"name": "create64Hash",
			"outputs": [
				{
					"internalType": "bytes",
					"name": "",
					"type": "bytes"
				}
			],
			"stateMutability": "nonpayable",
			"type": "function"
		},
		{
			"inputs": [
				{
					"internalType": "bytes",
					"name": "toHash",
					"type": "bytes"
				}
			],
			"name": "createHash",
			"outputs": [
				{
					"internalType": "bytes32",
					"name": "",
					"type": "bytes32"
				}
			],
			"stateMutability": "nonpayable",
			"type": "function"
		},
		{
			"inputs": [
				{
					"internalType": "bytes",
					"name": "toHash",
					"type": "bytes"
				},
				{
					"internalType": "bytes",
					"name": "personalisation",
					"type": "bytes"
				},
				{
					"internalType": "bool",
					"name": "flipped",
					"type": "bool"
				}
			],
			"name": "createHash",
			"outputs": [
				{
					"internalType": "bytes32",
					"name": "",
					"type": "bytes32"
				}
			],
			"stateMutability": "nonpayable",
			"type": "function"
		},
		{
			"inputs": [
				{
					"internalType": "bytes",
					"name": "toHash",
					"type": "bytes"
				},
				{
					"internalType": "bytes",
					"name": "personalisation",
					"type": "bytes"
				}
			],
			"name": "createHash",
			"outputs": [
				{
					"internalType": "bytes32",
					"name": "",
					"type": "bytes32"
				}
			],
			"stateMutability": "nonpayable",
			"type": "function"
		},
		{
			"inputs": [
				{
					"internalType": "bytes32",
					"name": "_hashToCheck",
					"type": "bytes32"
				},
				{
					"internalType": "uint256",
					"name": "_hashIndex",
					"type": "uint256"
				},
				{
					"internalType": "bytes32[]",
					"name": "_branch",
					"type": "bytes32[]"
				}
			],
			"name": "predictedRootHash",
			"outputs": [
				{
					"internalType": "bytes32",
					"name": "",
					"type": "bytes32"
				}
			],
			"stateMutability": "nonpayable",
			"type": "function"
		},
		{
			"inputs": [
				{
					"components": [
						{
							"internalType": "uint16",
							"name": "version",
							"type": "uint16"
						},
						{
							"internalType": "uint16",
							"name": "flags",
							"type": "uint16"
						},
						{
							"internalType": "uint160",
							"name": "sourceSystemID",
							"type": "uint160"
						},
						{
							"internalType": "uint32",
							"name": "sourceHeightStart",
							"type": "uint32"
						},
						{
							"internalType": "uint32",
							"name": "sourceHeightEnd",
							"type": "uint32"
						},
						{
							"internalType": "uint160",
							"name": "destCurrencyId",
							"type": "uint160"
						},
						{
							"components": [
								{
									"internalType": "uint160",
									"name": "currency",
									"type": "uint160"
								},
								{
									"internalType": "uint64",
									"name": "amount",
									"type": "uint64"
								}
							],
							"internalType": "struct VerusObjects.CCurrencyValueMap[]",
							"name": "totalAmounts",
							"type": "tuple[]"
						},
						{
							"components": [
								{
									"internalType": "uint160",
									"name": "currency",
									"type": "uint160"
								},
								{
									"internalType": "uint64",
									"name": "amount",
									"type": "uint64"
								}
							],
							"internalType": "struct VerusObjects.CCurrencyValueMap[]",
							"name": "totalFees",
							"type": "tuple[]"
						},
						{
							"internalType": "uint32",
							"name": "numInputs",
							"type": "uint32"
						},
						{
							"internalType": "uint256",
							"name": "hashReserveTransfer",
							"type": "uint256"
						},
						{
							"internalType": "uint32",
							"name": "firstInput",
							"type": "uint32"
						}
					],
					"internalType": "struct VerusObjects.CTransferSet",
					"name": "_setToProve",
					"type": "tuple"
				},
				{
					"internalType": "bytes32[]",
					"name": "_transfersProof",
					"type": "bytes32[]"
				},
				{
					"internalType": "uint32",
					"name": "_hashIndex",
					"type": "uint32"
				},
				{
					"internalType": "uint32",
					"name": "_blockHeight",
					"type": "uint32"
				}
			],
			"name": "proveTransferSet",
			"outputs": [
				{
					"internalType": "bool",
					"name": "",
					"type": "bool"
				}
			],
			"stateMutability": "nonpayable",
			"type": "function"
		},
		{
			"inputs": [
				{
					"internalType": "bytes32",
					"name": "_bytes32",
					"type": "bytes32"
				}
			],
			"name": "reverseBytes",
			"outputs": [
				{
					"internalType": "bytes32",
					"name": "",
					"type": "bytes32"
				}
			],
			"stateMutability": "pure",
			"type": "function"
		}
	]
}