{
	"data": {
		"bytecode": {
			"linkReferences": {},
			"object": "60806040523480156200001157600080fd5b50604051620026973803806200269783398181016040528101906200003791906200011a565b81600160006101000a81548173ffffffffffffffffffffffffffffffffffffffff021916908373ffffffffffffffffffffffffffffffffffffffff16021790555080600360006101000a81548173ffffffffffffffffffffffffffffffffffffffff021916908373ffffffffffffffffffffffffffffffffffffffff16021790555082600260006101000a81548173ffffffffffffffffffffffffffffffffffffffff021916908373ffffffffffffffffffffffffffffffffffffffff160217905550505050620001be565b6000815190506200011481620001a4565b92915050565b6000806000606084860312156200013057600080fd5b6000620001408682870162000103565b9350506020620001538682870162000103565b9250506040620001668682870162000103565b9150509250925092565b60006200017d8262000184565b9050919050565b600073ffffffffffffffffffffffffffffffffffffffff82169050919050565b620001af8162000170565b8114620001bb57600080fd5b50565b6124c980620001ce6000396000f3fe608060405234801561001057600080fd5b50600436106100cf5760003560e01c80639aab72401161008c578063b740965f11610066578063b740965f14610260578063bc736c141461027e578063c1d71858146102ae578063f8ba7192146102cc576100cf565b80639aab7240146101d0578063a053528114610200578063b0adc5bc14610230576100cf565b8063317e325b146100d45780633192148c146100f257806356d2e32f146101225780635981d41b146101525780638a154c1f146101825780638f1db79b146101b2575b600080fd5b6100dc6102fc565b6040516100e9919061205e565b60405180910390f35b61010c60048036038101906101079190611bd3565b61039a565b6040516101199190612043565b60405180910390f35b61013c60048036038101906101379190611a16565b6103be565b6040516101499190612043565b60405180910390f35b61016c60048036038101906101679190611afd565b610486565b6040516101799190612043565b60405180910390f35b61019c60048036038101906101979190611b92565b6106f9565b6040516101a99190612028565b60405180910390f35b6101ba610889565b6040516101c79190612028565b60405180910390f35b6101ea60048036038101906101e59190611b92565b61089c565b6040516101f79190612043565b60405180910390f35b61021a60048036038101906102159190611b92565b610b0f565b6040516102279190612043565b60405180910390f35b61024a60048036038101906102459190611b92565b610b62565b6040516102579190612028565b60405180910390f35b610268610cb7565b6040516102759190612043565b60405180910390f35b61029860048036038101906102939190611a57565b610cbd565b6040516102a59190612043565b60405180910390f35b6102b6610cd5565b6040516102c39190612043565b60405180910390f35b6102e660048036038101906102e19190611aa9565b610cdb565b6040516102f39190612043565b60405180910390f35b60078054600181600116156101000203166002900480601f0160208091040260200160405190810160405280929190818152602001828054600181600116156101000203166002900480156103925780601f1061036757610100808354040283529160200191610392565b820191906000526020600020905b81548152906001019060200180831161037557829003601f168201915b505050505081565b600481815481106103aa57600080fd5b906000526020600020016000915090505481565b600080600360009054906101000a900473ffffffffffffffffffffffffffffffffffffffff1673ffffffffffffffffffffffffffffffffffffffff1663b04d197a8460006040518363ffffffff1660e01b815260040161041f929190611ff8565b60006040518083038186803b15801561043757600080fd5b505afa15801561044b573d6000803e3d6000fd5b505050506040513d6000823e3d601f19601f820116820180604052508101906104749190611b51565b90508080519060200120915050919050565b600080826020015163ffffffff1610156104d5576040517f08c379a00000000000000000000000000000000000000000000000000000000081526004016104cc90612100565b60405180910390fd5b60008260600151511161051d576040517f08c379a000000000000000000000000000000000000000000000000000000000815260040161051490612080565b60405180910390fd5b60008260600151519050600084905060606000856020015163ffffffff16905060005b848110156106eb5760006001831611156105ee57878760600151828151811061056557fe5b602002602001015114156105ae576040517f08c379a00000000000000000000000000000000000000000000000000000000081526004016105a5906120c0565b60405180910390fd5b866060015181815181106105be57fe5b6020026020010151846040516020016105d8929190611fcc565b604051602081830303815290604052925061062a565b83876060015182815181106105ff57fe5b6020026020010151604051602001610618929190611fcc565b60405160208183030381529060405292505b600160009054906101000a900473ffffffffffffffffffffffffffffffffffffffff1673ffffffffffffffffffffffffffffffffffffffff16632cd0cff2846040518263ffffffff1660e01b8152600401610685919061205e565b60206040518083038186803b15801561069d57600080fd5b505afa1580156106b1573d6000803e3d6000fd5b505050506040513d601f19601f820116820180604052508101906106d59190611a80565b9350600182901c91508080600101915050610540565b508294505050505092915050565b60008061070583610b0f565b90506000600260009054906101000a900473ffffffffffffffffffffffffffffffffffffffff1673ffffffffffffffffffffffffffffffffffffffff16634b60ae636040518163ffffffff1660e01b815260040160206040518083038186803b15801561077157600080fd5b505afa158015610785573d6000803e3d6000fd5b505050506040513d601f19601f820116820180604052508101906107a99190611bfc565b9050628db51590506000610866600260009054906101000a900473ffffffffffffffffffffffffffffffffffffffff1673ffffffffffffffffffffffffffffffffffffffff1663e7b3c875846040518263ffffffff1660e01b81526004016108119190612120565b60206040518083038186803b15801561082957600080fd5b505afa15801561083d573d6000803e3d6000fd5b505050506040513d601f19601f820116820180604052508101906108619190611a80565b610cbd565b90508083141561087c5760019350505050610884565b600093505050505b919050565b600860009054906101000a900460ff1681565b6000806000808460800151606001515111156109d957600160009054906101000a900473ffffffffffffffffffffffffffffffffffffffff1673ffffffffffffffffffffffffffffffffffffffff16632cd0cff285608001516060015160008151811061090557fe5b6020026020010151604001516040518263ffffffff1660e01b815260040161092d919061205e565b60206040518083038186803b15801561094557600080fd5b505afa158015610959573d6000803e3d6000fd5b505050506040513d601f19601f8201168201806040525081019061097d9190611a80565b9150600184608001516060015160008151811061099657fe5b60200260200101516000015160ff1614156109d8576109d5828560800151606001516000815181106109c457fe5b602002602001015160600151610cdb565b92505b5b6000600190505b84608001516060015151811015610b0757600160009054906101000a900473ffffffffffffffffffffffffffffffffffffffff1673ffffffffffffffffffffffffffffffffffffffff16632cd0cff28660800151606001518381518110610a4357fe5b6020026020010151604001516040518263ffffffff1660e01b8152600401610a6b919061205e565b60206040518083038186803b158015610a8357600080fd5b505afa158015610a97573d6000803e3d6000fd5b505050506040513d601f19601f82011682018060405250810190610abb9190611a80565b9250610ae6838660800151606001518381518110610ad557fe5b602002602001015160600151610cdb565b9150818414610afa576000801b9350610b07565b80806001019150506109e0565b505050919050565b60008060001b9050610b2082610b62565b610b2957610b5d565b6000610b348361089c565b90506000801b811415610b475750610b5d565b610b5981846080015160400151610cdb565b9150505b919050565b600080610b728360a001516103be565b905060008360800151606001516001856080015160600151510381518110610b9657fe5b60200260200101516080015163ffffffff16905060008460800151606001516001866080015160600151510381518110610bcc57fe5b60200260200101516040015190506000600160009054906101000a900473ffffffffffffffffffffffffffffffffffffffff1673ffffffffffffffffffffffffffffffffffffffff1663bfe370d9610c2684866020610d28565b6040518263ffffffff1660e01b8152600401610c42919061205e565b60206040518083038186803b158015610c5a57600080fd5b505afa158015610c6e573d6000803e3d6000fd5b505050506040513d601f19601f82011682018060405250810190610c929190611a80565b905080841415610ca9576001945050505050610cb2565b60009450505050505b919050565b60055481565b6000610ccb8260001c610e34565b60001b9050919050565b60065481565b60008083905060005b8351811015610d1d57610d0e82858381518110610cfd57fe5b602002602001015160200151610486565b91508080600101915050610ce4565b508091505092915050565b606081601f83011015610d70576040517f08c379a0000000000000000000000000000000000000000000000000000000008152600401610d67906120a0565b60405180910390fd5b81830184511015610db6576040517f08c379a0000000000000000000000000000000000000000000000000000000008152600401610dad906120e0565b60405180910390fd5b6060821560008114610dd75760405191506000825260208201604052610e28565b6040519150601f8416801560200281840101858101878315602002848b0101015b81831015610e155780518352602083019250602081019050610df8565b50868552601f19601f8301166040525050505b50809150509392505050565b600081905060087eff00ff00ff00ff00ff00ff00ff00ff00ff00ff00ff00ff00ff00ff00ff00ff8216901b60087fff00ff00ff00ff00ff00ff00ff00ff00ff00ff00ff00ff00ff00ff00ff00ff008316901c17905060107dffff0000ffff0000ffff0000ffff0000ffff0000ffff0000ffff0000ffff8216901b60107fffff0000ffff0000ffff0000ffff0000ffff0000ffff0000ffff0000ffff00008316901c17905060207bffffffff00000000ffffffff00000000ffffffff00000000ffffffff8216901b60207fffffffff00000000ffffffff00000000ffffffff00000000ffffffff000000008316901c179050604077ffffffffffffffff0000000000000000ffffffffffffffff8216901b60407fffffffffffffffff0000000000000000ffffffffffffffff00000000000000008316901c179050608081901b608082901c179050919050565b6000610f93610f8e8461216c565b61213b565b90508083825260208201905082856020860282011115610fb257600080fd5b60005b85811015610fe25781610fc888826112e3565b845260208401935060208301925050600181019050610fb5565b5050509392505050565b6000610fff610ffa84612198565b61213b565b9050808382526020820190508260005b8581101561103f57813585016110258882611376565b84526020840193506020830192505060018101905061100f565b5050509392505050565b600061105c611057846121c4565b61213b565b9050808382526020820190508285604086028201111561107b57600080fd5b60005b858110156110ab578161109188826115c0565b84526020840193506040830192505060018101905061107e565b5050509392505050565b60006110c86110c3846121f0565b61213b565b90508083825260208201905082856101408602820111156110e857600080fd5b60005b8581101561111957816110fe8882611820565b845260208401935061014083019250506001810190506110eb565b5050509392505050565b60006111366111318461221c565b61213b565b9050808382526020820190508260005b85811015611176578135850161115c88826118e8565b845260208401935060208301925050600181019050611146565b5050509392505050565b600061119361118e84612248565b61213b565b9050828152602081018484840111156111ab57600080fd5b6111b684828561237c565b509392505050565b60006111d16111cc84612248565b61213b565b9050828152602081018484840111156111e957600080fd5b6111f484828561238b565b509392505050565b60008135905061120b816123db565b92915050565b600082601f83011261122257600080fd5b8135611232848260208601610f80565b91505092915050565b600082601f83011261124c57600080fd5b813561125c848260208601610fec565b91505092915050565b600082601f83011261127657600080fd5b8135611286848260208601611049565b91505092915050565b600082601f8301126112a057600080fd5b81356112b08482602086016110b5565b91505092915050565b600082601f8301126112ca57600080fd5b81356112da848260208601611123565b91505092915050565b6000813590506112f2816123f2565b92915050565b600081519050611307816123f2565b92915050565b600082601f83011261131e57600080fd5b813561132e848260208601611180565b91505092915050565b600082601f83011261134857600080fd5b81516113588482602086016111be565b91505092915050565b60008135905061137081612409565b92915050565b600060a0828403121561138857600080fd5b61139260a061213b565b905060006113a284828501611a01565b60008301525060206113b684828501611a01565b602083015250604082013567ffffffffffffffff8111156113d657600080fd5b6113e28482850161130d565b604083015250606082013567ffffffffffffffff81111561140257600080fd5b61140e848285016112b9565b6060830152506080611422848285016119c2565b60808301525092915050565b60006101e0828403121561144157600080fd5b61144c6101c061213b565b9050600061145c84828501611998565b600083015250602061147084828501611998565b6020830152506040611484848285016111fc565b6040830152506060611498848285016119c2565b60608301525060806114ac848285016119c2565b60808301525060a06114c0848285016111fc565b60a08301525060c06114d4848285016111fc565b60c08301525060e06114e8848285016119c2565b60e08301525061010082013567ffffffffffffffff81111561150957600080fd5b61151584828501611265565b6101008301525061012082013567ffffffffffffffff81111561153757600080fd5b61154384828501611265565b61012083015250610140611559848285016112e3565b6101408301525061016082013567ffffffffffffffff81111561157b57600080fd5b61158784828501611265565b6101608301525061018061159d8482850161194c565b610180830152506101c06115b384828501611361565b6101a08301525092915050565b6000604082840312156115d257600080fd5b6115dc604061213b565b905060006115ec848285016111fc565b6000830152506020611600848285016119ec565b60208301525092915050565b60006080828403121561161e57600080fd5b611628608061213b565b9050600061163884828501611a01565b600083015250602061164c848285016119c2565b6020830152506040611660848285016119c2565b604083015250606082013567ffffffffffffffff81111561168057600080fd5b61168c84828501611211565b60608301525092915050565b6000608082840312156116aa57600080fd5b6116b4608061213b565b905060006116c484828501611a01565b60008301525060206116d884828501611a01565b602083015250604082013567ffffffffffffffff8111156116f857600080fd5b611704848285016112b9565b604083015250606082013567ffffffffffffffff81111561172457600080fd5b6117308482850161123b565b60608301525092915050565b600060c0828403121561174e57600080fd5b61175860c061213b565b90506000611768848285016119ad565b600083015250602061177c848285016112e3565b6020830152506040611790848285016119ad565b604083015250606082013567ffffffffffffffff8111156117b057600080fd5b6117bc8482850161142e565b606083015250608082013567ffffffffffffffff8111156117dc57600080fd5b6117e884828501611698565b60808301525060a082013567ffffffffffffffff81111561180857600080fd5b6118148482850161128f565b60a08301525092915050565b6000610140828403121561183357600080fd5b61183e61010061213b565b9050600061184e848285016119c2565b6000830152506020611862848285016115c0565b6020830152506060611876848285016119c2565b604083015250608061188a848285016111fc565b60608301525060a061189e848285016119ad565b60808301525060c06118b28482850161194c565b60a0830152506101006118c7848285016111fc565b60c0830152506101206118dc848285016111fc565b60e08301525092915050565b6000604082840312156118fa57600080fd5b611904604061213b565b9050600061191484828501611a01565b600083015250602082013567ffffffffffffffff81111561193457600080fd5b6119408482850161160c565b60208301525092915050565b60006040828403121561195e57600080fd5b611968604061213b565b9050600061197884828501611a01565b600083015250602061198c848285016111fc565b60208301525092915050565b6000813590506119a781612420565b92915050565b6000813590506119bc81612437565b92915050565b6000813590506119d18161244e565b92915050565b6000815190506119e68161244e565b92915050565b6000813590506119fb81612465565b92915050565b600081359050611a108161247c565b92915050565b600060208284031215611a2857600080fd5b600082013567ffffffffffffffff811115611a4257600080fd5b611a4e8482850161128f565b91505092915050565b600060208284031215611a6957600080fd5b6000611a77848285016112e3565b91505092915050565b600060208284031215611a9257600080fd5b6000611aa0848285016112f8565b91505092915050565b60008060408385031215611abc57600080fd5b6000611aca858286016112e3565b925050602083013567ffffffffffffffff811115611ae757600080fd5b611af3858286016112b9565b9150509250929050565b60008060408385031215611b1057600080fd5b6000611b1e858286016112e3565b925050602083013567ffffffffffffffff811115611b3b57600080fd5b611b478582860161160c565b9150509250929050565b600060208284031215611b6357600080fd5b600082015167ffffffffffffffff811115611b7d57600080fd5b611b8984828501611337565b91505092915050565b600060208284031215611ba457600080fd5b600082013567ffffffffffffffff811115611bbe57600080fd5b611bca8482850161173c565b91505092915050565b600060208284031215611be557600080fd5b6000611bf3848285016119ad565b91505092915050565b600060208284031215611c0e57600080fd5b6000611c1c848285016119d7565b91505092915050565b6000611c318383611eae565b6101408301905092915050565b611c47816122de565b82525050565b6000611c5882612288565b611c6281856122ab565b9350611c6d83612278565b8060005b83811015611c9e578151611c858882611c25565b9750611c908361229e565b925050600181019050611c71565b5085935050505092915050565b611cb4816122f0565b82525050565b611cc3816122fc565b82525050565b611cda611cd5826122fc565b6123be565b82525050565b6000611ceb82612293565b611cf581856122bc565b9350611d0581856020860161238b565b611d0e816123ca565b840191505092915050565b6000611d26601c836122cd565b91507f4272616e6368206d757374206265206c6f6e676572207468616e2030000000006000830152602082019050919050565b6000611d66600e836122cd565b91507f736c6963655f6f766572666c6f770000000000000000000000000000000000006000830152602082019050919050565b6000611da66031836122cd565b91507f56616c75652063616e20626520657175616c20746f206e6f646520627574206e60008301527f65766572206f6e207468652072696768740000000000000000000000000000006020830152604082019050919050565b6000611e0c6011836122cd565b91507f736c6963655f6f75744f66426f756e64730000000000000000000000000000006000830152602082019050919050565b6000611e4c601b836122cd565b91507f496e6465782063616e6e6f74206265206c657373207468616e203000000000006000830152602082019050919050565b604082016000820151611e956000850182611c3e565b506020820151611ea86020850182611fae565b50505050565b61014082016000820151611ec56000850182611f90565b506020820151611ed86020850182611e7f565b506040820151611eeb6060850182611f90565b506060820151611efe6080850182611c3e565b506080820151611f1160a0850182611f81565b5060a0820151611f2460c0850182611f52565b5060c0820151611f38610100850182611c3e565b5060e0820151611f4c610120850182611c3e565b50505050565b604082016000820151611f686000850182611fbd565b506020820151611f7b6020850182611c3e565b50505050565b611f8a81612341565b82525050565b611f998161234b565b82525050565b611fa88161234b565b82525050565b611fb78161235b565b82525050565b611fc68161236f565b82525050565b6000611fd88285611cc9565b602082019150611fe88284611cc9565b6020820191508190509392505050565b600060408201905081810360008301526120128185611c4d565b90506120216020830184611cab565b9392505050565b600060208201905061203d6000830184611cab565b92915050565b60006020820190506120586000830184611cba565b92915050565b600060208201905081810360008301526120788184611ce0565b905092915050565b6000602082019050818103600083015261209981611d19565b9050919050565b600060208201905081810360008301526120b981611d59565b9050919050565b600060208201905081810360008301526120d981611d99565b9050919050565b600060208201905081810360008301526120f981611dff565b9050919050565b6000602082019050818103600083015261211981611e3f565b9050919050565b60006020820190506121356000830184611f9f565b92915050565b6000604051905081810181811067ffffffffffffffff82111715612162576121616123c8565b5b8060405250919050565b600067ffffffffffffffff821115612187576121866123c8565b5b602082029050602081019050919050565b600067ffffffffffffffff8211156121b3576121b26123c8565b5b602082029050602081019050919050565b600067ffffffffffffffff8211156121df576121de6123c8565b5b602082029050602081019050919050565b600067ffffffffffffffff82111561220b5761220a6123c8565b5b602082029050602081019050919050565b600067ffffffffffffffff821115612237576122366123c8565b5b602082029050602081019050919050565b600067ffffffffffffffff821115612263576122626123c8565b5b601f19601f8301169050602081019050919050565b6000819050602082019050919050565b600081519050919050565b600081519050919050565b6000602082019050919050565b600082825260208201905092915050565b600082825260208201905092915050565b600082825260208201905092915050565b60006122e982612321565b9050919050565b60008115159050919050565b6000819050919050565b60008160030b9050919050565b600061ffff82169050919050565b600073ffffffffffffffffffffffffffffffffffffffff82169050919050565b6000819050919050565b600063ffffffff82169050919050565b600067ffffffffffffffff82169050919050565b600060ff82169050919050565b82818337600083830152505050565b60005b838110156123a957808201518184015260208101905061238e565b838111156123b8576000848401525b50505050565b6000819050919050565bfe5b6000601f19601f8301169050919050565b6123e4816122de565b81146123ef57600080fd5b50565b6123fb816122fc565b811461240657600080fd5b50565b61241281612306565b811461241d57600080fd5b50565b61242981612313565b811461243457600080fd5b50565b61244081612341565b811461244b57600080fd5b50565b6124578161234b565b811461246257600080fd5b50565b61246e8161235b565b811461247957600080fd5b50565b6124858161236f565b811461249057600080fd5b5056fea26469706673582212208b37ead888f8edd84ff1ec6bec08a52c7b845fea3a42b93158480d26f692824f64736f6c63430007060033",
			"opcodes": "PUSH1 0x80 PUSH1 0x40 MSTORE CALLVALUE DUP1 ISZERO PUSH3 0x11 JUMPI PUSH1 0x0 DUP1 REVERT JUMPDEST POP PUSH1 0x40 MLOAD PUSH3 0x2697 CODESIZE SUB DUP1 PUSH3 0x2697 DUP4 CODECOPY DUP2 DUP2 ADD PUSH1 0x40 MSTORE DUP2 ADD SWAP1 PUSH3 0x37 SWAP2 SWAP1 PUSH3 0x11A JUMP JUMPDEST DUP2 PUSH1 0x1 PUSH1 0x0 PUSH2 0x100 EXP DUP2 SLOAD DUP2 PUSH20 0xFFFFFFFFFFFFFFFFFFFFFFFFFFFFFFFFFFFFFFFF MUL NOT AND SWAP1 DUP4 PUSH20 0xFFFFFFFFFFFFFFFFFFFFFFFFFFFFFFFFFFFFFFFF AND MUL OR SWAP1 SSTORE POP DUP1 PUSH1 0x3 PUSH1 0x0 PUSH2 0x100 EXP DUP2 SLOAD DUP2 PUSH20 0xFFFFFFFFFFFFFFFFFFFFFFFFFFFFFFFFFFFFFFFF MUL NOT AND SWAP1 DUP4 PUSH20 0xFFFFFFFFFFFFFFFFFFFFFFFFFFFFFFFFFFFFFFFF AND MUL OR SWAP1 SSTORE POP DUP3 PUSH1 0x2 PUSH1 0x0 PUSH2 0x100 EXP DUP2 SLOAD DUP2 PUSH20 0xFFFFFFFFFFFFFFFFFFFFFFFFFFFFFFFFFFFFFFFF MUL NOT AND SWAP1 DUP4 PUSH20 0xFFFFFFFFFFFFFFFFFFFFFFFFFFFFFFFFFFFFFFFF AND MUL OR SWAP1 SSTORE POP POP POP POP PUSH3 0x1BE JUMP JUMPDEST PUSH1 0x0 DUP2 MLOAD SWAP1 POP PUSH3 0x114 DUP2 PUSH3 0x1A4 JUMP JUMPDEST SWAP3 SWAP2 POP POP JUMP JUMPDEST PUSH1 0x0 DUP1 PUSH1 0x0 PUSH1 0x60 DUP5 DUP7 SUB SLT ISZERO PUSH3 0x130 JUMPI PUSH1 0x0 DUP1 REVERT JUMPDEST PUSH1 0x0 PUSH3 0x140 DUP7 DUP3 DUP8 ADD PUSH3 0x103 JUMP JUMPDEST SWAP4 POP POP PUSH1 0x20 PUSH3 0x153 DUP7 DUP3 DUP8 ADD PUSH3 0x103 JUMP JUMPDEST SWAP3 POP POP PUSH1 0x40 PUSH3 0x166 DUP7 DUP3 DUP8 ADD PUSH3 0x103 JUMP JUMPDEST SWAP2 POP POP SWAP3 POP SWAP3 POP SWAP3 JUMP JUMPDEST PUSH1 0x0 PUSH3 0x17D DUP3 PUSH3 0x184 JUMP JUMPDEST SWAP1 POP SWAP2 SWAP1 POP JUMP JUMPDEST PUSH1 0x0 PUSH20 0xFFFFFFFFFFFFFFFFFFFFFFFFFFFFFFFFFFFFFFFF DUP3 AND SWAP1 POP SWAP2 SWAP1 POP JUMP JUMPDEST PUSH3 0x1AF DUP2 PUSH3 0x170 JUMP JUMPDEST DUP2 EQ PUSH3 0x1BB JUMPI PUSH1 0x0 DUP1 REVERT JUMPDEST POP JUMP JUMPDEST PUSH2 0x24C9 DUP1 PUSH3 0x1CE PUSH1 0x0 CODECOPY PUSH1 0x0 RETURN INVALID PUSH1 0x80 PUSH1 0x40 MSTORE CALLVALUE DUP1 ISZERO PUSH2 0x10 JUMPI PUSH1 0x0 DUP1 REVERT JUMPDEST POP PUSH1 0x4 CALLDATASIZE LT PUSH2 0xCF JUMPI PUSH1 0x0 CALLDATALOAD PUSH1 0xE0 SHR DUP1 PUSH4 0x9AAB7240 GT PUSH2 0x8C JUMPI DUP1 PUSH4 0xB740965F GT PUSH2 0x66 JUMPI DUP1 PUSH4 0xB740965F EQ PUSH2 0x260 JUMPI DUP1 PUSH4 0xBC736C14 EQ PUSH2 0x27E JUMPI DUP1 PUSH4 0xC1D71858 EQ PUSH2 0x2AE JUMPI DUP1 PUSH4 0xF8BA7192 EQ PUSH2 0x2CC JUMPI PUSH2 0xCF JUMP JUMPDEST DUP1 PUSH4 0x9AAB7240 EQ PUSH2 0x1D0 JUMPI DUP1 PUSH4 0xA0535281 EQ PUSH2 0x200 JUMPI DUP1 PUSH4 0xB0ADC5BC EQ PUSH2 0x230 JUMPI PUSH2 0xCF JUMP JUMPDEST DUP1 PUSH4 0x317E325B EQ PUSH2 0xD4 JUMPI DUP1 PUSH4 0x3192148C EQ PUSH2 0xF2 JUMPI DUP1 PUSH4 0x56D2E32F EQ PUSH2 0x122 JUMPI DUP1 PUSH4 0x5981D41B EQ PUSH2 0x152 JUMPI DUP1 PUSH4 0x8A154C1F EQ PUSH2 0x182 JUMPI DUP1 PUSH4 0x8F1DB79B EQ PUSH2 0x1B2 JUMPI JUMPDEST PUSH1 0x0 DUP1 REVERT JUMPDEST PUSH2 0xDC PUSH2 0x2FC JUMP JUMPDEST PUSH1 0x40 MLOAD PUSH2 0xE9 SWAP2 SWAP1 PUSH2 0x205E JUMP JUMPDEST PUSH1 0x40 MLOAD DUP1 SWAP2 SUB SWAP1 RETURN JUMPDEST PUSH2 0x10C PUSH1 0x4 DUP1 CALLDATASIZE SUB DUP2 ADD SWAP1 PUSH2 0x107 SWAP2 SWAP1 PUSH2 0x1BD3 JUMP JUMPDEST PUSH2 0x39A JUMP JUMPDEST PUSH1 0x40 MLOAD PUSH2 0x119 SWAP2 SWAP1 PUSH2 0x2043 JUMP JUMPDEST PUSH1 0x40 MLOAD DUP1 SWAP2 SUB SWAP1 RETURN JUMPDEST PUSH2 0x13C PUSH1 0x4 DUP1 CALLDATASIZE SUB DUP2 ADD SWAP1 PUSH2 0x137 SWAP2 SWAP1 PUSH2 0x1A16 JUMP JUMPDEST PUSH2 0x3BE JUMP JUMPDEST PUSH1 0x40 MLOAD PUSH2 0x149 SWAP2 SWAP1 PUSH2 0x2043 JUMP JUMPDEST PUSH1 0x40 MLOAD DUP1 SWAP2 SUB SWAP1 RETURN JUMPDEST PUSH2 0x16C PUSH1 0x4 DUP1 CALLDATASIZE SUB DUP2 ADD SWAP1 PUSH2 0x167 SWAP2 SWAP1 PUSH2 0x1AFD JUMP JUMPDEST PUSH2 0x486 JUMP JUMPDEST PUSH1 0x40 MLOAD PUSH2 0x179 SWAP2 SWAP1 PUSH2 0x2043 JUMP JUMPDEST PUSH1 0x40 MLOAD DUP1 SWAP2 SUB SWAP1 RETURN JUMPDEST PUSH2 0x19C PUSH1 0x4 DUP1 CALLDATASIZE SUB DUP2 ADD SWAP1 PUSH2 0x197 SWAP2 SWAP1 PUSH2 0x1B92 JUMP JUMPDEST PUSH2 0x6F9 JUMP JUMPDEST PUSH1 0x40 MLOAD PUSH2 0x1A9 SWAP2 SWAP1 PUSH2 0x2028 JUMP JUMPDEST PUSH1 0x40 MLOAD DUP1 SWAP2 SUB SWAP1 RETURN JUMPDEST PUSH2 0x1BA PUSH2 0x889 JUMP JUMPDEST PUSH1 0x40 MLOAD PUSH2 0x1C7 SWAP2 SWAP1 PUSH2 0x2028 JUMP JUMPDEST PUSH1 0x40 MLOAD DUP1 SWAP2 SUB SWAP1 RETURN JUMPDEST PUSH2 0x1EA PUSH1 0x4 DUP1 CALLDATASIZE SUB DUP2 ADD SWAP1 PUSH2 0x1E5 SWAP2 SWAP1 PUSH2 0x1B92 JUMP JUMPDEST PUSH2 0x89C JUMP JUMPDEST PUSH1 0x40 MLOAD PUSH2 0x1F7 SWAP2 SWAP1 PUSH2 0x2043 JUMP JUMPDEST PUSH1 0x40 MLOAD DUP1 SWAP2 SUB SWAP1 RETURN JUMPDEST PUSH2 0x21A PUSH1 0x4 DUP1 CALLDATASIZE SUB DUP2 ADD SWAP1 PUSH2 0x215 SWAP2 SWAP1 PUSH2 0x1B92 JUMP JUMPDEST PUSH2 0xB0F JUMP JUMPDEST PUSH1 0x40 MLOAD PUSH2 0x227 SWAP2 SWAP1 PUSH2 0x2043 JUMP JUMPDEST PUSH1 0x40 MLOAD DUP1 SWAP2 SUB SWAP1 RETURN JUMPDEST PUSH2 0x24A PUSH1 0x4 DUP1 CALLDATASIZE SUB DUP2 ADD SWAP1 PUSH2 0x245 SWAP2 SWAP1 PUSH2 0x1B92 JUMP JUMPDEST PUSH2 0xB62 JUMP JUMPDEST PUSH1 0x40 MLOAD PUSH2 0x257 SWAP2 SWAP1 PUSH2 0x2028 JUMP JUMPDEST PUSH1 0x40 MLOAD DUP1 SWAP2 SUB SWAP1 RETURN JUMPDEST PUSH2 0x268 PUSH2 0xCB7 JUMP JUMPDEST PUSH1 0x40 MLOAD PUSH2 0x275 SWAP2 SWAP1 PUSH2 0x2043 JUMP JUMPDEST PUSH1 0x40 MLOAD DUP1 SWAP2 SUB SWAP1 RETURN JUMPDEST PUSH2 0x298 PUSH1 0x4 DUP1 CALLDATASIZE SUB DUP2 ADD SWAP1 PUSH2 0x293 SWAP2 SWAP1 PUSH2 0x1A57 JUMP JUMPDEST PUSH2 0xCBD JUMP JUMPDEST PUSH1 0x40 MLOAD PUSH2 0x2A5 SWAP2 SWAP1 PUSH2 0x2043 JUMP JUMPDEST PUSH1 0x40 MLOAD DUP1 SWAP2 SUB SWAP1 RETURN JUMPDEST PUSH2 0x2B6 PUSH2 0xCD5 JUMP JUMPDEST PUSH1 0x40 MLOAD PUSH2 0x2C3 SWAP2 SWAP1 PUSH2 0x2043 JUMP JUMPDEST PUSH1 0x40 MLOAD DUP1 SWAP2 SUB SWAP1 RETURN JUMPDEST PUSH2 0x2E6 PUSH1 0x4 DUP1 CALLDATASIZE SUB DUP2 ADD SWAP1 PUSH2 0x2E1 SWAP2 SWAP1 PUSH2 0x1AA9 JUMP JUMPDEST PUSH2 0xCDB JUMP JUMPDEST PUSH1 0x40 MLOAD PUSH2 0x2F3 SWAP2 SWAP1 PUSH2 0x2043 JUMP JUMPDEST PUSH1 0x40 MLOAD DUP1 SWAP2 SUB SWAP1 RETURN JUMPDEST PUSH1 0x7 DUP1 SLOAD PUSH1 0x1 DUP2 PUSH1 0x1 AND ISZERO PUSH2 0x100 MUL SUB AND PUSH1 0x2 SWAP1 DIV DUP1 PUSH1 0x1F ADD PUSH1 0x20 DUP1 SWAP2 DIV MUL PUSH1 0x20 ADD PUSH1 0x40 MLOAD SWAP1 DUP2 ADD PUSH1 0x40 MSTORE DUP1 SWAP3 SWAP2 SWAP1 DUP2 DUP2 MSTORE PUSH1 0x20 ADD DUP3 DUP1 SLOAD PUSH1 0x1 DUP2 PUSH1 0x1 AND ISZERO PUSH2 0x100 MUL SUB AND PUSH1 0x2 SWAP1 DIV DUP1 ISZERO PUSH2 0x392 JUMPI DUP1 PUSH1 0x1F LT PUSH2 0x367 JUMPI PUSH2 0x100 DUP1 DUP4 SLOAD DIV MUL DUP4 MSTORE SWAP2 PUSH1 0x20 ADD SWAP2 PUSH2 0x392 JUMP JUMPDEST DUP3 ADD SWAP2 SWAP1 PUSH1 0x0 MSTORE PUSH1 0x20 PUSH1 0x0 KECCAK256 SWAP1 JUMPDEST DUP2 SLOAD DUP2 MSTORE SWAP1 PUSH1 0x1 ADD SWAP1 PUSH1 0x20 ADD DUP1 DUP4 GT PUSH2 0x375 JUMPI DUP3 SWAP1 SUB PUSH1 0x1F AND DUP3 ADD SWAP2 JUMPDEST POP POP POP POP POP DUP2 JUMP JUMPDEST PUSH1 0x4 DUP2 DUP2 SLOAD DUP2 LT PUSH2 0x3AA JUMPI PUSH1 0x0 DUP1 REVERT JUMPDEST SWAP1 PUSH1 0x0 MSTORE PUSH1 0x20 PUSH1 0x0 KECCAK256 ADD PUSH1 0x0 SWAP2 POP SWAP1 POP SLOAD DUP2 JUMP JUMPDEST PUSH1 0x0 DUP1 PUSH1 0x3 PUSH1 0x0 SWAP1 SLOAD SWAP1 PUSH2 0x100 EXP SWAP1 DIV PUSH20 0xFFFFFFFFFFFFFFFFFFFFFFFFFFFFFFFFFFFFFFFF AND PUSH20 0xFFFFFFFFFFFFFFFFFFFFFFFFFFFFFFFFFFFFFFFF AND PUSH4 0xB04D197A DUP5 PUSH1 0x0 PUSH1 0x40 MLOAD DUP4 PUSH4 0xFFFFFFFF AND PUSH1 0xE0 SHL DUP2 MSTORE PUSH1 0x4 ADD PUSH2 0x41F SWAP3 SWAP2 SWAP1 PUSH2 0x1FF8 JUMP JUMPDEST PUSH1 0x0 PUSH1 0x40 MLOAD DUP1 DUP4 SUB DUP2 DUP7 DUP1 EXTCODESIZE ISZERO DUP1 ISZERO PUSH2 0x437 JUMPI PUSH1 0x0 DUP1 REVERT JUMPDEST POP GAS STATICCALL ISZERO DUP1 ISZERO PUSH2 0x44B JUMPI RETURNDATASIZE PUSH1 0x0 DUP1 RETURNDATACOPY RETURNDATASIZE PUSH1 0x0 REVERT JUMPDEST POP POP POP POP PUSH1 0x40 MLOAD RETURNDATASIZE PUSH1 0x0 DUP3 RETURNDATACOPY RETURNDATASIZE PUSH1 0x1F NOT PUSH1 0x1F DUP3 ADD AND DUP3 ADD DUP1 PUSH1 0x40 MSTORE POP DUP2 ADD SWAP1 PUSH2 0x474 SWAP2 SWAP1 PUSH2 0x1B51 JUMP JUMPDEST SWAP1 POP DUP1 DUP1 MLOAD SWAP1 PUSH1 0x20 ADD KECCAK256 SWAP2 POP POP SWAP2 SWAP1 POP JUMP JUMPDEST PUSH1 0x0 DUP1 DUP3 PUSH1 0x20 ADD MLOAD PUSH4 0xFFFFFFFF AND LT ISZERO PUSH2 0x4D5 JUMPI PUSH1 0x40 MLOAD PUSH32 0x8C379A000000000000000000000000000000000000000000000000000000000 DUP2 MSTORE PUSH1 0x4 ADD PUSH2 0x4CC SWAP1 PUSH2 0x2100 JUMP JUMPDEST PUSH1 0x40 MLOAD DUP1 SWAP2 SUB SWAP1 REVERT JUMPDEST PUSH1 0x0 DUP3 PUSH1 0x60 ADD MLOAD MLOAD GT PUSH2 0x51D JUMPI PUSH1 0x40 MLOAD PUSH32 0x8C379A000000000000000000000000000000000000000000000000000000000 DUP2 MSTORE PUSH1 0x4 ADD PUSH2 0x514 SWAP1 PUSH2 0x2080 JUMP JUMPDEST PUSH1 0x40 MLOAD DUP1 SWAP2 SUB SWAP1 REVERT JUMPDEST PUSH1 0x0 DUP3 PUSH1 0x60 ADD MLOAD MLOAD SWAP1 POP PUSH1 0x0 DUP5 SWAP1 POP PUSH1 0x60 PUSH1 0x0 DUP6 PUSH1 0x20 ADD MLOAD PUSH4 0xFFFFFFFF AND SWAP1 POP PUSH1 0x0 JUMPDEST DUP5 DUP2 LT ISZERO PUSH2 0x6EB JUMPI PUSH1 0x0 PUSH1 0x1 DUP4 AND GT ISZERO PUSH2 0x5EE JUMPI DUP8 DUP8 PUSH1 0x60 ADD MLOAD DUP3 DUP2 MLOAD DUP2 LT PUSH2 0x565 JUMPI INVALID JUMPDEST PUSH1 0x20 MUL PUSH1 0x20 ADD ADD MLOAD EQ ISZERO PUSH2 0x5AE JUMPI PUSH1 0x40 MLOAD PUSH32 0x8C379A000000000000000000000000000000000000000000000000000000000 DUP2 MSTORE PUSH1 0x4 ADD PUSH2 0x5A5 SWAP1 PUSH2 0x20C0 JUMP JUMPDEST PUSH1 0x40 MLOAD DUP1 SWAP2 SUB SWAP1 REVERT JUMPDEST DUP7 PUSH1 0x60 ADD MLOAD DUP2 DUP2 MLOAD DUP2 LT PUSH2 0x5BE JUMPI INVALID JUMPDEST PUSH1 0x20 MUL PUSH1 0x20 ADD ADD MLOAD DUP5 PUSH1 0x40 MLOAD PUSH1 0x20 ADD PUSH2 0x5D8 SWAP3 SWAP2 SWAP1 PUSH2 0x1FCC JUMP JUMPDEST PUSH1 0x40 MLOAD PUSH1 0x20 DUP2 DUP4 SUB SUB DUP2 MSTORE SWAP1 PUSH1 0x40 MSTORE SWAP3 POP PUSH2 0x62A JUMP JUMPDEST DUP4 DUP8 PUSH1 0x60 ADD MLOAD DUP3 DUP2 MLOAD DUP2 LT PUSH2 0x5FF JUMPI INVALID JUMPDEST PUSH1 0x20 MUL PUSH1 0x20 ADD ADD MLOAD PUSH1 0x40 MLOAD PUSH1 0x20 ADD PUSH2 0x618 SWAP3 SWAP2 SWAP1 PUSH2 0x1FCC JUMP JUMPDEST PUSH1 0x40 MLOAD PUSH1 0x20 DUP2 DUP4 SUB SUB DUP2 MSTORE SWAP1 PUSH1 0x40 MSTORE SWAP3 POP JUMPDEST PUSH1 0x1 PUSH1 0x0 SWAP1 SLOAD SWAP1 PUSH2 0x100 EXP SWAP1 DIV PUSH20 0xFFFFFFFFFFFFFFFFFFFFFFFFFFFFFFFFFFFFFFFF AND PUSH20 0xFFFFFFFFFFFFFFFFFFFFFFFFFFFFFFFFFFFFFFFF AND PUSH4 0x2CD0CFF2 DUP5 PUSH1 0x40 MLOAD DUP3 PUSH4 0xFFFFFFFF AND PUSH1 0xE0 SHL DUP2 MSTORE PUSH1 0x4 ADD PUSH2 0x685 SWAP2 SWAP1 PUSH2 0x205E JUMP JUMPDEST PUSH1 0x20 PUSH1 0x40 MLOAD DUP1 DUP4 SUB DUP2 DUP7 DUP1 EXTCODESIZE ISZERO DUP1 ISZERO PUSH2 0x69D JUMPI PUSH1 0x0 DUP1 REVERT JUMPDEST POP GAS STATICCALL ISZERO DUP1 ISZERO PUSH2 0x6B1 JUMPI RETURNDATASIZE PUSH1 0x0 DUP1 RETURNDATACOPY RETURNDATASIZE PUSH1 0x0 REVERT JUMPDEST POP POP POP POP PUSH1 0x40 MLOAD RETURNDATASIZE PUSH1 0x1F NOT PUSH1 0x1F DUP3 ADD AND DUP3 ADD DUP1 PUSH1 0x40 MSTORE POP DUP2 ADD SWAP1 PUSH2 0x6D5 SWAP2 SWAP1 PUSH2 0x1A80 JUMP JUMPDEST SWAP4 POP PUSH1 0x1 DUP3 SWAP1 SHR SWAP2 POP DUP1 DUP1 PUSH1 0x1 ADD SWAP2 POP POP PUSH2 0x540 JUMP JUMPDEST POP DUP3 SWAP5 POP POP POP POP POP SWAP3 SWAP2 POP POP JUMP JUMPDEST PUSH1 0x0 DUP1 PUSH2 0x705 DUP4 PUSH2 0xB0F JUMP JUMPDEST SWAP1 POP PUSH1 0x0 PUSH1 0x2 PUSH1 0x0 SWAP1 SLOAD SWAP1 PUSH2 0x100 EXP SWAP1 DIV PUSH20 0xFFFFFFFFFFFFFFFFFFFFFFFFFFFFFFFFFFFFFFFF AND PUSH20 0xFFFFFFFFFFFFFFFFFFFFFFFFFFFFFFFFFFFFFFFF AND PUSH4 0x4B60AE63 PUSH1 0x40 MLOAD DUP2 PUSH4 0xFFFFFFFF AND PUSH1 0xE0 SHL DUP2 MSTORE PUSH1 0x4 ADD PUSH1 0x20 PUSH1 0x40 MLOAD DUP1 DUP4 SUB DUP2 DUP7 DUP1 EXTCODESIZE ISZERO DUP1 ISZERO PUSH2 0x771 JUMPI PUSH1 0x0 DUP1 REVERT JUMPDEST POP GAS STATICCALL ISZERO DUP1 ISZERO PUSH2 0x785 JUMPI RETURNDATASIZE PUSH1 0x0 DUP1 RETURNDATACOPY RETURNDATASIZE PUSH1 0x0 REVERT JUMPDEST POP POP POP POP PUSH1 0x40 MLOAD RETURNDATASIZE PUSH1 0x1F NOT PUSH1 0x1F DUP3 ADD AND DUP3 ADD DUP1 PUSH1 0x40 MSTORE POP DUP2 ADD SWAP1 PUSH2 0x7A9 SWAP2 SWAP1 PUSH2 0x1BFC JUMP JUMPDEST SWAP1 POP PUSH3 0x8DB515 SWAP1 POP PUSH1 0x0 PUSH2 0x866 PUSH1 0x2 PUSH1 0x0 SWAP1 SLOAD SWAP1 PUSH2 0x100 EXP SWAP1 DIV PUSH20 0xFFFFFFFFFFFFFFFFFFFFFFFFFFFFFFFFFFFFFFFF AND PUSH20 0xFFFFFFFFFFFFFFFFFFFFFFFFFFFFFFFFFFFFFFFF AND PUSH4 0xE7B3C875 DUP5 PUSH1 0x40 MLOAD DUP3 PUSH4 0xFFFFFFFF AND PUSH1 0xE0 SHL DUP2 MSTORE PUSH1 0x4 ADD PUSH2 0x811 SWAP2 SWAP1 PUSH2 0x2120 JUMP JUMPDEST PUSH1 0x20 PUSH1 0x40 MLOAD DUP1 DUP4 SUB DUP2 DUP7 DUP1 EXTCODESIZE ISZERO DUP1 ISZERO PUSH2 0x829 JUMPI PUSH1 0x0 DUP1 REVERT JUMPDEST POP GAS STATICCALL ISZERO DUP1 ISZERO PUSH2 0x83D JUMPI RETURNDATASIZE PUSH1 0x0 DUP1 RETURNDATACOPY RETURNDATASIZE PUSH1 0x0 REVERT JUMPDEST POP POP POP POP PUSH1 0x40 MLOAD RETURNDATASIZE PUSH1 0x1F NOT PUSH1 0x1F DUP3 ADD AND DUP3 ADD DUP1 PUSH1 0x40 MSTORE POP DUP2 ADD SWAP1 PUSH2 0x861 SWAP2 SWAP1 PUSH2 0x1A80 JUMP JUMPDEST PUSH2 0xCBD JUMP JUMPDEST SWAP1 POP DUP1 DUP4 EQ ISZERO PUSH2 0x87C JUMPI PUSH1 0x1 SWAP4 POP POP POP POP PUSH2 0x884 JUMP JUMPDEST PUSH1 0x0 SWAP4 POP POP POP POP JUMPDEST SWAP2 SWAP1 POP JUMP JUMPDEST PUSH1 0x8 PUSH1 0x0 SWAP1 SLOAD SWAP1 PUSH2 0x100 EXP SWAP1 DIV PUSH1 0xFF AND DUP2 JUMP JUMPDEST PUSH1 0x0 DUP1 PUSH1 0x0 DUP1 DUP5 PUSH1 0x80 ADD MLOAD PUSH1 0x60 ADD MLOAD MLOAD GT ISZERO PUSH2 0x9D9 JUMPI PUSH1 0x1 PUSH1 0x0 SWAP1 SLOAD SWAP1 PUSH2 0x100 EXP SWAP1 DIV PUSH20 0xFFFFFFFFFFFFFFFFFFFFFFFFFFFFFFFFFFFFFFFF AND PUSH20 0xFFFFFFFFFFFFFFFFFFFFFFFFFFFFFFFFFFFFFFFF AND PUSH4 0x2CD0CFF2 DUP6 PUSH1 0x80 ADD MLOAD PUSH1 0x60 ADD MLOAD PUSH1 0x0 DUP2 MLOAD DUP2 LT PUSH2 0x905 JUMPI INVALID JUMPDEST PUSH1 0x20 MUL PUSH1 0x20 ADD ADD MLOAD PUSH1 0x40 ADD MLOAD PUSH1 0x40 MLOAD DUP3 PUSH4 0xFFFFFFFF AND PUSH1 0xE0 SHL DUP2 MSTORE PUSH1 0x4 ADD PUSH2 0x92D SWAP2 SWAP1 PUSH2 0x205E JUMP JUMPDEST PUSH1 0x20 PUSH1 0x40 MLOAD DUP1 DUP4 SUB DUP2 DUP7 DUP1 EXTCODESIZE ISZERO DUP1 ISZERO PUSH2 0x945 JUMPI PUSH1 0x0 DUP1 REVERT JUMPDEST POP GAS STATICCALL ISZERO DUP1 ISZERO PUSH2 0x959 JUMPI RETURNDATASIZE PUSH1 0x0 DUP1 RETURNDATACOPY RETURNDATASIZE PUSH1 0x0 REVERT JUMPDEST POP POP POP POP PUSH1 0x40 MLOAD RETURNDATASIZE PUSH1 0x1F NOT PUSH1 0x1F DUP3 ADD AND DUP3 ADD DUP1 PUSH1 0x40 MSTORE POP DUP2 ADD SWAP1 PUSH2 0x97D SWAP2 SWAP1 PUSH2 0x1A80 JUMP JUMPDEST SWAP2 POP PUSH1 0x1 DUP5 PUSH1 0x80 ADD MLOAD PUSH1 0x60 ADD MLOAD PUSH1 0x0 DUP2 MLOAD DUP2 LT PUSH2 0x996 JUMPI INVALID JUMPDEST PUSH1 0x20 MUL PUSH1 0x20 ADD ADD MLOAD PUSH1 0x0 ADD MLOAD PUSH1 0xFF AND EQ ISZERO PUSH2 0x9D8 JUMPI PUSH2 0x9D5 DUP3 DUP6 PUSH1 0x80 ADD MLOAD PUSH1 0x60 ADD MLOAD PUSH1 0x0 DUP2 MLOAD DUP2 LT PUSH2 0x9C4 JUMPI INVALID JUMPDEST PUSH1 0x20 MUL PUSH1 0x20 ADD ADD MLOAD PUSH1 0x60 ADD MLOAD PUSH2 0xCDB JUMP JUMPDEST SWAP3 POP JUMPDEST JUMPDEST PUSH1 0x0 PUSH1 0x1 SWAP1 POP JUMPDEST DUP5 PUSH1 0x80 ADD MLOAD PUSH1 0x60 ADD MLOAD MLOAD DUP2 LT ISZERO PUSH2 0xB07 JUMPI PUSH1 0x1 PUSH1 0x0 SWAP1 SLOAD SWAP1 PUSH2 0x100 EXP SWAP1 DIV PUSH20 0xFFFFFFFFFFFFFFFFFFFFFFFFFFFFFFFFFFFFFFFF AND PUSH20 0xFFFFFFFFFFFFFFFFFFFFFFFFFFFFFFFFFFFFFFFF AND PUSH4 0x2CD0CFF2 DUP7 PUSH1 0x80 ADD MLOAD PUSH1 0x60 ADD MLOAD DUP4 DUP2 MLOAD DUP2 LT PUSH2 0xA43 JUMPI INVALID JUMPDEST PUSH1 0x20 MUL PUSH1 0x20 ADD ADD MLOAD PUSH1 0x40 ADD MLOAD PUSH1 0x40 MLOAD DUP3 PUSH4 0xFFFFFFFF AND PUSH1 0xE0 SHL DUP2 MSTORE PUSH1 0x4 ADD PUSH2 0xA6B SWAP2 SWAP1 PUSH2 0x205E JUMP JUMPDEST PUSH1 0x20 PUSH1 0x40 MLOAD DUP1 DUP4 SUB DUP2 DUP7 DUP1 EXTCODESIZE ISZERO DUP1 ISZERO PUSH2 0xA83 JUMPI PUSH1 0x0 DUP1 REVERT JUMPDEST POP GAS STATICCALL ISZERO DUP1 ISZERO PUSH2 0xA97 JUMPI RETURNDATASIZE PUSH1 0x0 DUP1 RETURNDATACOPY RETURNDATASIZE PUSH1 0x0 REVERT JUMPDEST POP POP POP POP PUSH1 0x40 MLOAD RETURNDATASIZE PUSH1 0x1F NOT PUSH1 0x1F DUP3 ADD AND DUP3 ADD DUP1 PUSH1 0x40 MSTORE POP DUP2 ADD SWAP1 PUSH2 0xABB SWAP2 SWAP1 PUSH2 0x1A80 JUMP JUMPDEST SWAP3 POP PUSH2 0xAE6 DUP4 DUP7 PUSH1 0x80 ADD MLOAD PUSH1 0x60 ADD MLOAD DUP4 DUP2 MLOAD DUP2 LT PUSH2 0xAD5 JUMPI INVALID JUMPDEST PUSH1 0x20 MUL PUSH1 0x20 ADD ADD MLOAD PUSH1 0x60 ADD MLOAD PUSH2 0xCDB JUMP JUMPDEST SWAP2 POP DUP2 DUP5 EQ PUSH2 0xAFA JUMPI PUSH1 0x0 DUP1 SHL SWAP4 POP PUSH2 0xB07 JUMP JUMPDEST DUP1 DUP1 PUSH1 0x1 ADD SWAP2 POP POP PUSH2 0x9E0 JUMP JUMPDEST POP POP POP SWAP2 SWAP1 POP JUMP JUMPDEST PUSH1 0x0 DUP1 PUSH1 0x0 SHL SWAP1 POP PUSH2 0xB20 DUP3 PUSH2 0xB62 JUMP JUMPDEST PUSH2 0xB29 JUMPI PUSH2 0xB5D JUMP JUMPDEST PUSH1 0x0 PUSH2 0xB34 DUP4 PUSH2 0x89C JUMP JUMPDEST SWAP1 POP PUSH1 0x0 DUP1 SHL DUP2 EQ ISZERO PUSH2 0xB47 JUMPI POP PUSH2 0xB5D JUMP JUMPDEST PUSH2 0xB59 DUP2 DUP5 PUSH1 0x80 ADD MLOAD PUSH1 0x40 ADD MLOAD PUSH2 0xCDB JUMP JUMPDEST SWAP2 POP POP JUMPDEST SWAP2 SWAP1 POP JUMP JUMPDEST PUSH1 0x0 DUP1 PUSH2 0xB72 DUP4 PUSH1 0xA0 ADD MLOAD PUSH2 0x3BE JUMP JUMPDEST SWAP1 POP PUSH1 0x0 DUP4 PUSH1 0x80 ADD MLOAD PUSH1 0x60 ADD MLOAD PUSH1 0x1 DUP6 PUSH1 0x80 ADD MLOAD PUSH1 0x60 ADD MLOAD MLOAD SUB DUP2 MLOAD DUP2 LT PUSH2 0xB96 JUMPI INVALID JUMPDEST PUSH1 0x20 MUL PUSH1 0x20 ADD ADD MLOAD PUSH1 0x80 ADD MLOAD PUSH4 0xFFFFFFFF AND SWAP1 POP PUSH1 0x0 DUP5 PUSH1 0x80 ADD MLOAD PUSH1 0x60 ADD MLOAD PUSH1 0x1 DUP7 PUSH1 0x80 ADD MLOAD PUSH1 0x60 ADD MLOAD MLOAD SUB DUP2 MLOAD DUP2 LT PUSH2 0xBCC JUMPI INVALID JUMPDEST PUSH1 0x20 MUL PUSH1 0x20 ADD ADD MLOAD PUSH1 0x40 ADD MLOAD SWAP1 POP PUSH1 0x0 PUSH1 0x1 PUSH1 0x0 SWAP1 SLOAD SWAP1 PUSH2 0x100 EXP SWAP1 DIV PUSH20 0xFFFFFFFFFFFFFFFFFFFFFFFFFFFFFFFFFFFFFFFF AND PUSH20 0xFFFFFFFFFFFFFFFFFFFFFFFFFFFFFFFFFFFFFFFF AND PUSH4 0xBFE370D9 PUSH2 0xC26 DUP5 DUP7 PUSH1 0x20 PUSH2 0xD28 JUMP JUMPDEST PUSH1 0x40 MLOAD DUP3 PUSH4 0xFFFFFFFF AND PUSH1 0xE0 SHL DUP2 MSTORE PUSH1 0x4 ADD PUSH2 0xC42 SWAP2 SWAP1 PUSH2 0x205E JUMP JUMPDEST PUSH1 0x20 PUSH1 0x40 MLOAD DUP1 DUP4 SUB DUP2 DUP7 DUP1 EXTCODESIZE ISZERO DUP1 ISZERO PUSH2 0xC5A JUMPI PUSH1 0x0 DUP1 REVERT JUMPDEST POP GAS STATICCALL ISZERO DUP1 ISZERO PUSH2 0xC6E JUMPI RETURNDATASIZE PUSH1 0x0 DUP1 RETURNDATACOPY RETURNDATASIZE PUSH1 0x0 REVERT JUMPDEST POP POP POP POP PUSH1 0x40 MLOAD RETURNDATASIZE PUSH1 0x1F NOT PUSH1 0x1F DUP3 ADD AND DUP3 ADD DUP1 PUSH1 0x40 MSTORE POP DUP2 ADD SWAP1 PUSH2 0xC92 SWAP2 SWAP1 PUSH2 0x1A80 JUMP JUMPDEST SWAP1 POP DUP1 DUP5 EQ ISZERO PUSH2 0xCA9 JUMPI PUSH1 0x1 SWAP5 POP POP POP POP POP PUSH2 0xCB2 JUMP JUMPDEST PUSH1 0x0 SWAP5 POP POP POP POP POP JUMPDEST SWAP2 SWAP1 POP JUMP JUMPDEST PUSH1 0x5 SLOAD DUP2 JUMP JUMPDEST PUSH1 0x0 PUSH2 0xCCB DUP3 PUSH1 0x0 SHR PUSH2 0xE34 JUMP JUMPDEST PUSH1 0x0 SHL SWAP1 POP SWAP2 SWAP1 POP JUMP JUMPDEST PUSH1 0x6 SLOAD DUP2 JUMP JUMPDEST PUSH1 0x0 DUP1 DUP4 SWAP1 POP PUSH1 0x0 JUMPDEST DUP4 MLOAD DUP2 LT ISZERO PUSH2 0xD1D JUMPI PUSH2 0xD0E DUP3 DUP6 DUP4 DUP2 MLOAD DUP2 LT PUSH2 0xCFD JUMPI INVALID JUMPDEST PUSH1 0x20 MUL PUSH1 0x20 ADD ADD MLOAD PUSH1 0x20 ADD MLOAD PUSH2 0x486 JUMP JUMPDEST SWAP2 POP DUP1 DUP1 PUSH1 0x1 ADD SWAP2 POP POP PUSH2 0xCE4 JUMP JUMPDEST POP DUP1 SWAP2 POP POP SWAP3 SWAP2 POP POP JUMP JUMPDEST PUSH1 0x60 DUP2 PUSH1 0x1F DUP4 ADD LT ISZERO PUSH2 0xD70 JUMPI PUSH1 0x40 MLOAD PUSH32 0x8C379A000000000000000000000000000000000000000000000000000000000 DUP2 MSTORE PUSH1 0x4 ADD PUSH2 0xD67 SWAP1 PUSH2 0x20A0 JUMP JUMPDEST PUSH1 0x40 MLOAD DUP1 SWAP2 SUB SWAP1 REVERT JUMPDEST DUP2 DUP4 ADD DUP5 MLOAD LT ISZERO PUSH2 0xDB6 JUMPI PUSH1 0x40 MLOAD PUSH32 0x8C379A000000000000000000000000000000000000000000000000000000000 DUP2 MSTORE PUSH1 0x4 ADD PUSH2 0xDAD SWAP1 PUSH2 0x20E0 JUMP JUMPDEST PUSH1 0x40 MLOAD DUP1 SWAP2 SUB SWAP1 REVERT JUMPDEST PUSH1 0x60 DUP3 ISZERO PUSH1 0x0 DUP2 EQ PUSH2 0xDD7 JUMPI PUSH1 0x40 MLOAD SWAP2 POP PUSH1 0x0 DUP3 MSTORE PUSH1 0x20 DUP3 ADD PUSH1 0x40 MSTORE PUSH2 0xE28 JUMP JUMPDEST PUSH1 0x40 MLOAD SWAP2 POP PUSH1 0x1F DUP5 AND DUP1 ISZERO PUSH1 0x20 MUL DUP2 DUP5 ADD ADD DUP6 DUP2 ADD DUP8 DUP4 ISZERO PUSH1 0x20 MUL DUP5 DUP12 ADD ADD ADD JUMPDEST DUP2 DUP4 LT ISZERO PUSH2 0xE15 JUMPI DUP1 MLOAD DUP4 MSTORE PUSH1 0x20 DUP4 ADD SWAP3 POP PUSH1 0x20 DUP2 ADD SWAP1 POP PUSH2 0xDF8 JUMP JUMPDEST POP DUP7 DUP6 MSTORE PUSH1 0x1F NOT PUSH1 0x1F DUP4 ADD AND PUSH1 0x40 MSTORE POP POP POP JUMPDEST POP DUP1 SWAP2 POP POP SWAP4 SWAP3 POP POP POP JUMP JUMPDEST PUSH1 0x0 DUP2 SWAP1 POP PUSH1 0x8 PUSH31 0xFF00FF00FF00FF00FF00FF00FF00FF00FF00FF00FF00FF00FF00FF00FF00FF DUP3 AND SWAP1 SHL PUSH1 0x8 PUSH32 0xFF00FF00FF00FF00FF00FF00FF00FF00FF00FF00FF00FF00FF00FF00FF00FF00 DUP4 AND SWAP1 SHR OR SWAP1 POP PUSH1 0x10 PUSH30 0xFFFF0000FFFF0000FFFF0000FFFF0000FFFF0000FFFF0000FFFF0000FFFF DUP3 AND SWAP1 SHL PUSH1 0x10 PUSH32 0xFFFF0000FFFF0000FFFF0000FFFF0000FFFF0000FFFF0000FFFF0000FFFF0000 DUP4 AND SWAP1 SHR OR SWAP1 POP PUSH1 0x20 PUSH28 0xFFFFFFFF00000000FFFFFFFF00000000FFFFFFFF00000000FFFFFFFF DUP3 AND SWAP1 SHL PUSH1 0x20 PUSH32 0xFFFFFFFF00000000FFFFFFFF00000000FFFFFFFF00000000FFFFFFFF00000000 DUP4 AND SWAP1 SHR OR SWAP1 POP PUSH1 0x40 PUSH24 0xFFFFFFFFFFFFFFFF0000000000000000FFFFFFFFFFFFFFFF DUP3 AND SWAP1 SHL PUSH1 0x40 PUSH32 0xFFFFFFFFFFFFFFFF0000000000000000FFFFFFFFFFFFFFFF0000000000000000 DUP4 AND SWAP1 SHR OR SWAP1 POP PUSH1 0x80 DUP2 SWAP1 SHL PUSH1 0x80 DUP3 SWAP1 SHR OR SWAP1 POP SWAP2 SWAP1 POP JUMP JUMPDEST PUSH1 0x0 PUSH2 0xF93 PUSH2 0xF8E DUP5 PUSH2 0x216C JUMP JUMPDEST PUSH2 0x213B JUMP JUMPDEST SWAP1 POP DUP1 DUP4 DUP3 MSTORE PUSH1 0x20 DUP3 ADD SWAP1 POP DUP3 DUP6 PUSH1 0x20 DUP7 MUL DUP3 ADD GT ISZERO PUSH2 0xFB2 JUMPI PUSH1 0x0 DUP1 REVERT JUMPDEST PUSH1 0x0 JUMPDEST DUP6 DUP2 LT ISZERO PUSH2 0xFE2 JUMPI DUP2 PUSH2 0xFC8 DUP9 DUP3 PUSH2 0x12E3 JUMP JUMPDEST DUP5 MSTORE PUSH1 0x20 DUP5 ADD SWAP4 POP PUSH1 0x20 DUP4 ADD SWAP3 POP POP PUSH1 0x1 DUP2 ADD SWAP1 POP PUSH2 0xFB5 JUMP JUMPDEST POP POP POP SWAP4 SWAP3 POP POP POP JUMP JUMPDEST PUSH1 0x0 PUSH2 0xFFF PUSH2 0xFFA DUP5 PUSH2 0x2198 JUMP JUMPDEST PUSH2 0x213B JUMP JUMPDEST SWAP1 POP DUP1 DUP4 DUP3 MSTORE PUSH1 0x20 DUP3 ADD SWAP1 POP DUP3 PUSH1 0x0 JUMPDEST DUP6 DUP2 LT ISZERO PUSH2 0x103F JUMPI DUP2 CALLDATALOAD DUP6 ADD PUSH2 0x1025 DUP9 DUP3 PUSH2 0x1376 JUMP JUMPDEST DUP5 MSTORE PUSH1 0x20 DUP5 ADD SWAP4 POP PUSH1 0x20 DUP4 ADD SWAP3 POP POP PUSH1 0x1 DUP2 ADD SWAP1 POP PUSH2 0x100F JUMP JUMPDEST POP POP POP SWAP4 SWAP3 POP POP POP JUMP JUMPDEST PUSH1 0x0 PUSH2 0x105C PUSH2 0x1057 DUP5 PUSH2 0x21C4 JUMP JUMPDEST PUSH2 0x213B JUMP JUMPDEST SWAP1 POP DUP1 DUP4 DUP3 MSTORE PUSH1 0x20 DUP3 ADD SWAP1 POP DUP3 DUP6 PUSH1 0x40 DUP7 MUL DUP3 ADD GT ISZERO PUSH2 0x107B JUMPI PUSH1 0x0 DUP1 REVERT JUMPDEST PUSH1 0x0 JUMPDEST DUP6 DUP2 LT ISZERO PUSH2 0x10AB JUMPI DUP2 PUSH2 0x1091 DUP9 DUP3 PUSH2 0x15C0 JUMP JUMPDEST DUP5 MSTORE PUSH1 0x20 DUP5 ADD SWAP4 POP PUSH1 0x40 DUP4 ADD SWAP3 POP POP PUSH1 0x1 DUP2 ADD SWAP1 POP PUSH2 0x107E JUMP JUMPDEST POP POP POP SWAP4 SWAP3 POP POP POP JUMP JUMPDEST PUSH1 0x0 PUSH2 0x10C8 PUSH2 0x10C3 DUP5 PUSH2 0x21F0 JUMP JUMPDEST PUSH2 0x213B JUMP JUMPDEST SWAP1 POP DUP1 DUP4 DUP3 MSTORE PUSH1 0x20 DUP3 ADD SWAP1 POP DUP3 DUP6 PUSH2 0x140 DUP7 MUL DUP3 ADD GT ISZERO PUSH2 0x10E8 JUMPI PUSH1 0x0 DUP1 REVERT JUMPDEST PUSH1 0x0 JUMPDEST DUP6 DUP2 LT ISZERO PUSH2 0x1119 JUMPI DUP2 PUSH2 0x10FE DUP9 DUP3 PUSH2 0x1820 JUMP JUMPDEST DUP5 MSTORE PUSH1 0x20 DUP5 ADD SWAP4 POP PUSH2 0x140 DUP4 ADD SWAP3 POP POP PUSH1 0x1 DUP2 ADD SWAP1 POP PUSH2 0x10EB JUMP JUMPDEST POP POP POP SWAP4 SWAP3 POP POP POP JUMP JUMPDEST PUSH1 0x0 PUSH2 0x1136 PUSH2 0x1131 DUP5 PUSH2 0x221C JUMP JUMPDEST PUSH2 0x213B JUMP JUMPDEST SWAP1 POP DUP1 DUP4 DUP3 MSTORE PUSH1 0x20 DUP3 ADD SWAP1 POP DUP3 PUSH1 0x0 JUMPDEST DUP6 DUP2 LT ISZERO PUSH2 0x1176 JUMPI DUP2 CALLDATALOAD DUP6 ADD PUSH2 0x115C DUP9 DUP3 PUSH2 0x18E8 JUMP JUMPDEST DUP5 MSTORE PUSH1 0x20 DUP5 ADD SWAP4 POP PUSH1 0x20 DUP4 ADD SWAP3 POP POP PUSH1 0x1 DUP2 ADD SWAP1 POP PUSH2 0x1146 JUMP JUMPDEST POP POP POP SWAP4 SWAP3 POP POP POP JUMP JUMPDEST PUSH1 0x0 PUSH2 0x1193 PUSH2 0x118E DUP5 PUSH2 0x2248 JUMP JUMPDEST PUSH2 0x213B JUMP JUMPDEST SWAP1 POP DUP3 DUP2 MSTORE PUSH1 0x20 DUP2 ADD DUP5 DUP5 DUP5 ADD GT ISZERO PUSH2 0x11AB JUMPI PUSH1 0x0 DUP1 REVERT JUMPDEST PUSH2 0x11B6 DUP5 DUP3 DUP6 PUSH2 0x237C JUMP JUMPDEST POP SWAP4 SWAP3 POP POP POP JUMP JUMPDEST PUSH1 0x0 PUSH2 0x11D1 PUSH2 0x11CC DUP5 PUSH2 0x2248 JUMP JUMPDEST PUSH2 0x213B JUMP JUMPDEST SWAP1 POP DUP3 DUP2 MSTORE PUSH1 0x20 DUP2 ADD DUP5 DUP5 DUP5 ADD GT ISZERO PUSH2 0x11E9 JUMPI PUSH1 0x0 DUP1 REVERT JUMPDEST PUSH2 0x11F4 DUP5 DUP3 DUP6 PUSH2 0x238B JUMP JUMPDEST POP SWAP4 SWAP3 POP POP POP JUMP JUMPDEST PUSH1 0x0 DUP2 CALLDATALOAD SWAP1 POP PUSH2 0x120B DUP2 PUSH2 0x23DB JUMP JUMPDEST SWAP3 SWAP2 POP POP JUMP JUMPDEST PUSH1 0x0 DUP3 PUSH1 0x1F DUP4 ADD SLT PUSH2 0x1222 JUMPI PUSH1 0x0 DUP1 REVERT JUMPDEST DUP2 CALLDATALOAD PUSH2 0x1232 DUP5 DUP3 PUSH1 0x20 DUP7 ADD PUSH2 0xF80 JUMP JUMPDEST SWAP2 POP POP SWAP3 SWAP2 POP POP JUMP JUMPDEST PUSH1 0x0 DUP3 PUSH1 0x1F DUP4 ADD SLT PUSH2 0x124C JUMPI PUSH1 0x0 DUP1 REVERT JUMPDEST DUP2 CALLDATALOAD PUSH2 0x125C DUP5 DUP3 PUSH1 0x20 DUP7 ADD PUSH2 0xFEC JUMP JUMPDEST SWAP2 POP POP SWAP3 SWAP2 POP POP JUMP JUMPDEST PUSH1 0x0 DUP3 PUSH1 0x1F DUP4 ADD SLT PUSH2 0x1276 JUMPI PUSH1 0x0 DUP1 REVERT JUMPDEST DUP2 CALLDATALOAD PUSH2 0x1286 DUP5 DUP3 PUSH1 0x20 DUP7 ADD PUSH2 0x1049 JUMP JUMPDEST SWAP2 POP POP SWAP3 SWAP2 POP POP JUMP JUMPDEST PUSH1 0x0 DUP3 PUSH1 0x1F DUP4 ADD SLT PUSH2 0x12A0 JUMPI PUSH1 0x0 DUP1 REVERT JUMPDEST DUP2 CALLDATALOAD PUSH2 0x12B0 DUP5 DUP3 PUSH1 0x20 DUP7 ADD PUSH2 0x10B5 JUMP JUMPDEST SWAP2 POP POP SWAP3 SWAP2 POP POP JUMP JUMPDEST PUSH1 0x0 DUP3 PUSH1 0x1F DUP4 ADD SLT PUSH2 0x12CA JUMPI PUSH1 0x0 DUP1 REVERT JUMPDEST DUP2 CALLDATALOAD PUSH2 0x12DA DUP5 DUP3 PUSH1 0x20 DUP7 ADD PUSH2 0x1123 JUMP JUMPDEST SWAP2 POP POP SWAP3 SWAP2 POP POP JUMP JUMPDEST PUSH1 0x0 DUP2 CALLDATALOAD SWAP1 POP PUSH2 0x12F2 DUP2 PUSH2 0x23F2 JUMP JUMPDEST SWAP3 SWAP2 POP POP JUMP JUMPDEST PUSH1 0x0 DUP2 MLOAD SWAP1 POP PUSH2 0x1307 DUP2 PUSH2 0x23F2 JUMP JUMPDEST SWAP3 SWAP2 POP POP JUMP JUMPDEST PUSH1 0x0 DUP3 PUSH1 0x1F DUP4 ADD SLT PUSH2 0x131E JUMPI PUSH1 0x0 DUP1 REVERT JUMPDEST DUP2 CALLDATALOAD PUSH2 0x132E DUP5 DUP3 PUSH1 0x20 DUP7 ADD PUSH2 0x1180 JUMP JUMPDEST SWAP2 POP POP SWAP3 SWAP2 POP POP JUMP JUMPDEST PUSH1 0x0 DUP3 PUSH1 0x1F DUP4 ADD SLT PUSH2 0x1348 JUMPI PUSH1 0x0 DUP1 REVERT JUMPDEST DUP2 MLOAD PUSH2 0x1358 DUP5 DUP3 PUSH1 0x20 DUP7 ADD PUSH2 0x11BE JUMP JUMPDEST SWAP2 POP POP SWAP3 SWAP2 POP POP JUMP JUMPDEST PUSH1 0x0 DUP2 CALLDATALOAD SWAP1 POP PUSH2 0x1370 DUP2 PUSH2 0x2409 JUMP JUMPDEST SWAP3 SWAP2 POP POP JUMP JUMPDEST PUSH1 0x0 PUSH1 0xA0 DUP3 DUP5 SUB SLT ISZERO PUSH2 0x1388 JUMPI PUSH1 0x0 DUP1 REVERT JUMPDEST PUSH2 0x1392 PUSH1 0xA0 PUSH2 0x213B JUMP JUMPDEST SWAP1 POP PUSH1 0x0 PUSH2 0x13A2 DUP5 DUP3 DUP6 ADD PUSH2 0x1A01 JUMP JUMPDEST PUSH1 0x0 DUP4 ADD MSTORE POP PUSH1 0x20 PUSH2 0x13B6 DUP5 DUP3 DUP6 ADD PUSH2 0x1A01 JUMP JUMPDEST PUSH1 0x20 DUP4 ADD MSTORE POP PUSH1 0x40 DUP3 ADD CALLDATALOAD PUSH8 0xFFFFFFFFFFFFFFFF DUP2 GT ISZERO PUSH2 0x13D6 JUMPI PUSH1 0x0 DUP1 REVERT JUMPDEST PUSH2 0x13E2 DUP5 DUP3 DUP6 ADD PUSH2 0x130D JUMP JUMPDEST PUSH1 0x40 DUP4 ADD MSTORE POP PUSH1 0x60 DUP3 ADD CALLDATALOAD PUSH8 0xFFFFFFFFFFFFFFFF DUP2 GT ISZERO PUSH2 0x1402 JUMPI PUSH1 0x0 DUP1 REVERT JUMPDEST PUSH2 0x140E DUP5 DUP3 DUP6 ADD PUSH2 0x12B9 JUMP JUMPDEST PUSH1 0x60 DUP4 ADD MSTORE POP PUSH1 0x80 PUSH2 0x1422 DUP5 DUP3 DUP6 ADD PUSH2 0x19C2 JUMP JUMPDEST PUSH1 0x80 DUP4 ADD MSTORE POP SWAP3 SWAP2 POP POP JUMP JUMPDEST PUSH1 0x0 PUSH2 0x1E0 DUP3 DUP5 SUB SLT ISZERO PUSH2 0x1441 JUMPI PUSH1 0x0 DUP1 REVERT JUMPDEST PUSH2 0x144C PUSH2 0x1C0 PUSH2 0x213B JUMP JUMPDEST SWAP1 POP PUSH1 0x0 PUSH2 0x145C DUP5 DUP3 DUP6 ADD PUSH2 0x1998 JUMP JUMPDEST PUSH1 0x0 DUP4 ADD MSTORE POP PUSH1 0x20 PUSH2 0x1470 DUP5 DUP3 DUP6 ADD PUSH2 0x1998 JUMP JUMPDEST PUSH1 0x20 DUP4 ADD MSTORE POP PUSH1 0x40 PUSH2 0x1484 DUP5 DUP3 DUP6 ADD PUSH2 0x11FC JUMP JUMPDEST PUSH1 0x40 DUP4 ADD MSTORE POP PUSH1 0x60 PUSH2 0x1498 DUP5 DUP3 DUP6 ADD PUSH2 0x19C2 JUMP JUMPDEST PUSH1 0x60 DUP4 ADD MSTORE POP PUSH1 0x80 PUSH2 0x14AC DUP5 DUP3 DUP6 ADD PUSH2 0x19C2 JUMP JUMPDEST PUSH1 0x80 DUP4 ADD MSTORE POP PUSH1 0xA0 PUSH2 0x14C0 DUP5 DUP3 DUP6 ADD PUSH2 0x11FC JUMP JUMPDEST PUSH1 0xA0 DUP4 ADD MSTORE POP PUSH1 0xC0 PUSH2 0x14D4 DUP5 DUP3 DUP6 ADD PUSH2 0x11FC JUMP JUMPDEST PUSH1 0xC0 DUP4 ADD MSTORE POP PUSH1 0xE0 PUSH2 0x14E8 DUP5 DUP3 DUP6 ADD PUSH2 0x19C2 JUMP JUMPDEST PUSH1 0xE0 DUP4 ADD MSTORE POP PUSH2 0x100 DUP3 ADD CALLDATALOAD PUSH8 0xFFFFFFFFFFFFFFFF DUP2 GT ISZERO PUSH2 0x1509 JUMPI PUSH1 0x0 DUP1 REVERT JUMPDEST PUSH2 0x1515 DUP5 DUP3 DUP6 ADD PUSH2 0x1265 JUMP JUMPDEST PUSH2 0x100 DUP4 ADD MSTORE POP PUSH2 0x120 DUP3 ADD CALLDATALOAD PUSH8 0xFFFFFFFFFFFFFFFF DUP2 GT ISZERO PUSH2 0x1537 JUMPI PUSH1 0x0 DUP1 REVERT JUMPDEST PUSH2 0x1543 DUP5 DUP3 DUP6 ADD PUSH2 0x1265 JUMP JUMPDEST PUSH2 0x120 DUP4 ADD MSTORE POP PUSH2 0x140 PUSH2 0x1559 DUP5 DUP3 DUP6 ADD PUSH2 0x12E3 JUMP JUMPDEST PUSH2 0x140 DUP4 ADD MSTORE POP PUSH2 0x160 DUP3 ADD CALLDATALOAD PUSH8 0xFFFFFFFFFFFFFFFF DUP2 GT ISZERO PUSH2 0x157B JUMPI PUSH1 0x0 DUP1 REVERT JUMPDEST PUSH2 0x1587 DUP5 DUP3 DUP6 ADD PUSH2 0x1265 JUMP JUMPDEST PUSH2 0x160 DUP4 ADD MSTORE POP PUSH2 0x180 PUSH2 0x159D DUP5 DUP3 DUP6 ADD PUSH2 0x194C JUMP JUMPDEST PUSH2 0x180 DUP4 ADD MSTORE POP PUSH2 0x1C0 PUSH2 0x15B3 DUP5 DUP3 DUP6 ADD PUSH2 0x1361 JUMP JUMPDEST PUSH2 0x1A0 DUP4 ADD MSTORE POP SWAP3 SWAP2 POP POP JUMP JUMPDEST PUSH1 0x0 PUSH1 0x40 DUP3 DUP5 SUB SLT ISZERO PUSH2 0x15D2 JUMPI PUSH1 0x0 DUP1 REVERT JUMPDEST PUSH2 0x15DC PUSH1 0x40 PUSH2 0x213B JUMP JUMPDEST SWAP1 POP PUSH1 0x0 PUSH2 0x15EC DUP5 DUP3 DUP6 ADD PUSH2 0x11FC JUMP JUMPDEST PUSH1 0x0 DUP4 ADD MSTORE POP PUSH1 0x20 PUSH2 0x1600 DUP5 DUP3 DUP6 ADD PUSH2 0x19EC JUMP JUMPDEST PUSH1 0x20 DUP4 ADD MSTORE POP SWAP3 SWAP2 POP POP JUMP JUMPDEST PUSH1 0x0 PUSH1 0x80 DUP3 DUP5 SUB SLT ISZERO PUSH2 0x161E JUMPI PUSH1 0x0 DUP1 REVERT JUMPDEST PUSH2 0x1628 PUSH1 0x80 PUSH2 0x213B JUMP JUMPDEST SWAP1 POP PUSH1 0x0 PUSH2 0x1638 DUP5 DUP3 DUP6 ADD PUSH2 0x1A01 JUMP JUMPDEST PUSH1 0x0 DUP4 ADD MSTORE POP PUSH1 0x20 PUSH2 0x164C DUP5 DUP3 DUP6 ADD PUSH2 0x19C2 JUMP JUMPDEST PUSH1 0x20 DUP4 ADD MSTORE POP PUSH1 0x40 PUSH2 0x1660 DUP5 DUP3 DUP6 ADD PUSH2 0x19C2 JUMP JUMPDEST PUSH1 0x40 DUP4 ADD MSTORE POP PUSH1 0x60 DUP3 ADD CALLDATALOAD PUSH8 0xFFFFFFFFFFFFFFFF DUP2 GT ISZERO PUSH2 0x1680 JUMPI PUSH1 0x0 DUP1 REVERT JUMPDEST PUSH2 0x168C DUP5 DUP3 DUP6 ADD PUSH2 0x1211 JUMP JUMPDEST PUSH1 0x60 DUP4 ADD MSTORE POP SWAP3 SWAP2 POP POP JUMP JUMPDEST PUSH1 0x0 PUSH1 0x80 DUP3 DUP5 SUB SLT ISZERO PUSH2 0x16AA JUMPI PUSH1 0x0 DUP1 REVERT JUMPDEST PUSH2 0x16B4 PUSH1 0x80 PUSH2 0x213B JUMP JUMPDEST SWAP1 POP PUSH1 0x0 PUSH2 0x16C4 DUP5 DUP3 DUP6 ADD PUSH2 0x1A01 JUMP JUMPDEST PUSH1 0x0 DUP4 ADD MSTORE POP PUSH1 0x20 PUSH2 0x16D8 DUP5 DUP3 DUP6 ADD PUSH2 0x1A01 JUMP JUMPDEST PUSH1 0x20 DUP4 ADD MSTORE POP PUSH1 0x40 DUP3 ADD CALLDATALOAD PUSH8 0xFFFFFFFFFFFFFFFF DUP2 GT ISZERO PUSH2 0x16F8 JUMPI PUSH1 0x0 DUP1 REVERT JUMPDEST PUSH2 0x1704 DUP5 DUP3 DUP6 ADD PUSH2 0x12B9 JUMP JUMPDEST PUSH1 0x40 DUP4 ADD MSTORE POP PUSH1 0x60 DUP3 ADD CALLDATALOAD PUSH8 0xFFFFFFFFFFFFFFFF DUP2 GT ISZERO PUSH2 0x1724 JUMPI PUSH1 0x0 DUP1 REVERT JUMPDEST PUSH2 0x1730 DUP5 DUP3 DUP6 ADD PUSH2 0x123B JUMP JUMPDEST PUSH1 0x60 DUP4 ADD MSTORE POP SWAP3 SWAP2 POP POP JUMP JUMPDEST PUSH1 0x0 PUSH1 0xC0 DUP3 DUP5 SUB SLT ISZERO PUSH2 0x174E JUMPI PUSH1 0x0 DUP1 REVERT JUMPDEST PUSH2 0x1758 PUSH1 0xC0 PUSH2 0x213B JUMP JUMPDEST SWAP1 POP PUSH1 0x0 PUSH2 0x1768 DUP5 DUP3 DUP6 ADD PUSH2 0x19AD JUMP JUMPDEST PUSH1 0x0 DUP4 ADD MSTORE POP PUSH1 0x20 PUSH2 0x177C DUP5 DUP3 DUP6 ADD PUSH2 0x12E3 JUMP JUMPDEST PUSH1 0x20 DUP4 ADD MSTORE POP PUSH1 0x40 PUSH2 0x1790 DUP5 DUP3 DUP6 ADD PUSH2 0x19AD JUMP JUMPDEST PUSH1 0x40 DUP4 ADD MSTORE POP PUSH1 0x60 DUP3 ADD CALLDATALOAD PUSH8 0xFFFFFFFFFFFFFFFF DUP2 GT ISZERO PUSH2 0x17B0 JUMPI PUSH1 0x0 DUP1 REVERT JUMPDEST PUSH2 0x17BC DUP5 DUP3 DUP6 ADD PUSH2 0x142E JUMP JUMPDEST PUSH1 0x60 DUP4 ADD MSTORE POP PUSH1 0x80 DUP3 ADD CALLDATALOAD PUSH8 0xFFFFFFFFFFFFFFFF DUP2 GT ISZERO PUSH2 0x17DC JUMPI PUSH1 0x0 DUP1 REVERT JUMPDEST PUSH2 0x17E8 DUP5 DUP3 DUP6 ADD PUSH2 0x1698 JUMP JUMPDEST PUSH1 0x80 DUP4 ADD MSTORE POP PUSH1 0xA0 DUP3 ADD CALLDATALOAD PUSH8 0xFFFFFFFFFFFFFFFF DUP2 GT ISZERO PUSH2 0x1808 JUMPI PUSH1 0x0 DUP1 REVERT JUMPDEST PUSH2 0x1814 DUP5 DUP3 DUP6 ADD PUSH2 0x128F JUMP JUMPDEST PUSH1 0xA0 DUP4 ADD MSTORE POP SWAP3 SWAP2 POP POP JUMP JUMPDEST PUSH1 0x0 PUSH2 0x140 DUP3 DUP5 SUB SLT ISZERO PUSH2 0x1833 JUMPI PUSH1 0x0 DUP1 REVERT JUMPDEST PUSH2 0x183E PUSH2 0x100 PUSH2 0x213B JUMP JUMPDEST SWAP1 POP PUSH1 0x0 PUSH2 0x184E DUP5 DUP3 DUP6 ADD PUSH2 0x19C2 JUMP JUMPDEST PUSH1 0x0 DUP4 ADD MSTORE POP PUSH1 0x20 PUSH2 0x1862 DUP5 DUP3 DUP6 ADD PUSH2 0x15C0 JUMP JUMPDEST PUSH1 0x20 DUP4 ADD MSTORE POP PUSH1 0x60 PUSH2 0x1876 DUP5 DUP3 DUP6 ADD PUSH2 0x19C2 JUMP JUMPDEST PUSH1 0x40 DUP4 ADD MSTORE POP PUSH1 0x80 PUSH2 0x188A DUP5 DUP3 DUP6 ADD PUSH2 0x11FC JUMP JUMPDEST PUSH1 0x60 DUP4 ADD MSTORE POP PUSH1 0xA0 PUSH2 0x189E DUP5 DUP3 DUP6 ADD PUSH2 0x19AD JUMP JUMPDEST PUSH1 0x80 DUP4 ADD MSTORE POP PUSH1 0xC0 PUSH2 0x18B2 DUP5 DUP3 DUP6 ADD PUSH2 0x194C JUMP JUMPDEST PUSH1 0xA0 DUP4 ADD MSTORE POP PUSH2 0x100 PUSH2 0x18C7 DUP5 DUP3 DUP6 ADD PUSH2 0x11FC JUMP JUMPDEST PUSH1 0xC0 DUP4 ADD MSTORE POP PUSH2 0x120 PUSH2 0x18DC DUP5 DUP3 DUP6 ADD PUSH2 0x11FC JUMP JUMPDEST PUSH1 0xE0 DUP4 ADD MSTORE POP SWAP3 SWAP2 POP POP JUMP JUMPDEST PUSH1 0x0 PUSH1 0x40 DUP3 DUP5 SUB SLT ISZERO PUSH2 0x18FA JUMPI PUSH1 0x0 DUP1 REVERT JUMPDEST PUSH2 0x1904 PUSH1 0x40 PUSH2 0x213B JUMP JUMPDEST SWAP1 POP PUSH1 0x0 PUSH2 0x1914 DUP5 DUP3 DUP6 ADD PUSH2 0x1A01 JUMP JUMPDEST PUSH1 0x0 DUP4 ADD MSTORE POP PUSH1 0x20 DUP3 ADD CALLDATALOAD PUSH8 0xFFFFFFFFFFFFFFFF DUP2 GT ISZERO PUSH2 0x1934 JUMPI PUSH1 0x0 DUP1 REVERT JUMPDEST PUSH2 0x1940 DUP5 DUP3 DUP6 ADD PUSH2 0x160C JUMP JUMPDEST PUSH1 0x20 DUP4 ADD MSTORE POP SWAP3 SWAP2 POP POP JUMP JUMPDEST PUSH1 0x0 PUSH1 0x40 DUP3 DUP5 SUB SLT ISZERO PUSH2 0x195E JUMPI PUSH1 0x0 DUP1 REVERT JUMPDEST PUSH2 0x1968 PUSH1 0x40 PUSH2 0x213B JUMP JUMPDEST SWAP1 POP PUSH1 0x0 PUSH2 0x1978 DUP5 DUP3 DUP6 ADD PUSH2 0x1A01 JUMP JUMPDEST PUSH1 0x0 DUP4 ADD MSTORE POP PUSH1 0x20 PUSH2 0x198C DUP5 DUP3 DUP6 ADD PUSH2 0x11FC JUMP JUMPDEST PUSH1 0x20 DUP4 ADD MSTORE POP SWAP3 SWAP2 POP POP JUMP JUMPDEST PUSH1 0x0 DUP2 CALLDATALOAD SWAP1 POP PUSH2 0x19A7 DUP2 PUSH2 0x2420 JUMP JUMPDEST SWAP3 SWAP2 POP POP JUMP JUMPDEST PUSH1 0x0 DUP2 CALLDATALOAD SWAP1 POP PUSH2 0x19BC DUP2 PUSH2 0x2437 JUMP JUMPDEST SWAP3 SWAP2 POP POP JUMP JUMPDEST PUSH1 0x0 DUP2 CALLDATALOAD SWAP1 POP PUSH2 0x19D1 DUP2 PUSH2 0x244E JUMP JUMPDEST SWAP3 SWAP2 POP POP JUMP JUMPDEST PUSH1 0x0 DUP2 MLOAD SWAP1 POP PUSH2 0x19E6 DUP2 PUSH2 0x244E JUMP JUMPDEST SWAP3 SWAP2 POP POP JUMP JUMPDEST PUSH1 0x0 DUP2 CALLDATALOAD SWAP1 POP PUSH2 0x19FB DUP2 PUSH2 0x2465 JUMP JUMPDEST SWAP3 SWAP2 POP POP JUMP JUMPDEST PUSH1 0x0 DUP2 CALLDATALOAD SWAP1 POP PUSH2 0x1A10 DUP2 PUSH2 0x247C JUMP JUMPDEST SWAP3 SWAP2 POP POP JUMP JUMPDEST PUSH1 0x0 PUSH1 0x20 DUP3 DUP5 SUB SLT ISZERO PUSH2 0x1A28 JUMPI PUSH1 0x0 DUP1 REVERT JUMPDEST PUSH1 0x0 DUP3 ADD CALLDATALOAD PUSH8 0xFFFFFFFFFFFFFFFF DUP2 GT ISZERO PUSH2 0x1A42 JUMPI PUSH1 0x0 DUP1 REVERT JUMPDEST PUSH2 0x1A4E DUP5 DUP3 DUP6 ADD PUSH2 0x128F JUMP JUMPDEST SWAP2 POP POP SWAP3 SWAP2 POP POP JUMP JUMPDEST PUSH1 0x0 PUSH1 0x20 DUP3 DUP5 SUB SLT ISZERO PUSH2 0x1A69 JUMPI PUSH1 0x0 DUP1 REVERT JUMPDEST PUSH1 0x0 PUSH2 0x1A77 DUP5 DUP3 DUP6 ADD PUSH2 0x12E3 JUMP JUMPDEST SWAP2 POP POP SWAP3 SWAP2 POP POP JUMP JUMPDEST PUSH1 0x0 PUSH1 0x20 DUP3 DUP5 SUB SLT ISZERO PUSH2 0x1A92 JUMPI PUSH1 0x0 DUP1 REVERT JUMPDEST PUSH1 0x0 PUSH2 0x1AA0 DUP5 DUP3 DUP6 ADD PUSH2 0x12F8 JUMP JUMPDEST SWAP2 POP POP SWAP3 SWAP2 POP POP JUMP JUMPDEST PUSH1 0x0 DUP1 PUSH1 0x40 DUP4 DUP6 SUB SLT ISZERO PUSH2 0x1ABC JUMPI PUSH1 0x0 DUP1 REVERT JUMPDEST PUSH1 0x0 PUSH2 0x1ACA DUP6 DUP3 DUP7 ADD PUSH2 0x12E3 JUMP JUMPDEST SWAP3 POP POP PUSH1 0x20 DUP4 ADD CALLDATALOAD PUSH8 0xFFFFFFFFFFFFFFFF DUP2 GT ISZERO PUSH2 0x1AE7 JUMPI PUSH1 0x0 DUP1 REVERT JUMPDEST PUSH2 0x1AF3 DUP6 DUP3 DUP7 ADD PUSH2 0x12B9 JUMP JUMPDEST SWAP2 POP POP SWAP3 POP SWAP3 SWAP1 POP JUMP JUMPDEST PUSH1 0x0 DUP1 PUSH1 0x40 DUP4 DUP6 SUB SLT ISZERO PUSH2 0x1B10 JUMPI PUSH1 0x0 DUP1 REVERT JUMPDEST PUSH1 0x0 PUSH2 0x1B1E DUP6 DUP3 DUP7 ADD PUSH2 0x12E3 JUMP JUMPDEST SWAP3 POP POP PUSH1 0x20 DUP4 ADD CALLDATALOAD PUSH8 0xFFFFFFFFFFFFFFFF DUP2 GT ISZERO PUSH2 0x1B3B JUMPI PUSH1 0x0 DUP1 REVERT JUMPDEST PUSH2 0x1B47 DUP6 DUP3 DUP7 ADD PUSH2 0x160C JUMP JUMPDEST SWAP2 POP POP SWAP3 POP SWAP3 SWAP1 POP JUMP JUMPDEST PUSH1 0x0 PUSH1 0x20 DUP3 DUP5 SUB SLT ISZERO PUSH2 0x1B63 JUMPI PUSH1 0x0 DUP1 REVERT JUMPDEST PUSH1 0x0 DUP3 ADD MLOAD PUSH8 0xFFFFFFFFFFFFFFFF DUP2 GT ISZERO PUSH2 0x1B7D JUMPI PUSH1 0x0 DUP1 REVERT JUMPDEST PUSH2 0x1B89 DUP5 DUP3 DUP6 ADD PUSH2 0x1337 JUMP JUMPDEST SWAP2 POP POP SWAP3 SWAP2 POP POP JUMP JUMPDEST PUSH1 0x0 PUSH1 0x20 DUP3 DUP5 SUB SLT ISZERO PUSH2 0x1BA4 JUMPI PUSH1 0x0 DUP1 REVERT JUMPDEST PUSH1 0x0 DUP3 ADD CALLDATALOAD PUSH8 0xFFFFFFFFFFFFFFFF DUP2 GT ISZERO PUSH2 0x1BBE JUMPI PUSH1 0x0 DUP1 REVERT JUMPDEST PUSH2 0x1BCA DUP5 DUP3 DUP6 ADD PUSH2 0x173C JUMP JUMPDEST SWAP2 POP POP SWAP3 SWAP2 POP POP JUMP JUMPDEST PUSH1 0x0 PUSH1 0x20 DUP3 DUP5 SUB SLT ISZERO PUSH2 0x1BE5 JUMPI PUSH1 0x0 DUP1 REVERT JUMPDEST PUSH1 0x0 PUSH2 0x1BF3 DUP5 DUP3 DUP6 ADD PUSH2 0x19AD JUMP JUMPDEST SWAP2 POP POP SWAP3 SWAP2 POP POP JUMP JUMPDEST PUSH1 0x0 PUSH1 0x20 DUP3 DUP5 SUB SLT ISZERO PUSH2 0x1C0E JUMPI PUSH1 0x0 DUP1 REVERT JUMPDEST PUSH1 0x0 PUSH2 0x1C1C DUP5 DUP3 DUP6 ADD PUSH2 0x19D7 JUMP JUMPDEST SWAP2 POP POP SWAP3 SWAP2 POP POP JUMP JUMPDEST PUSH1 0x0 PUSH2 0x1C31 DUP4 DUP4 PUSH2 0x1EAE JUMP JUMPDEST PUSH2 0x140 DUP4 ADD SWAP1 POP SWAP3 SWAP2 POP POP JUMP JUMPDEST PUSH2 0x1C47 DUP2 PUSH2 0x22DE JUMP JUMPDEST DUP3 MSTORE POP POP JUMP JUMPDEST PUSH1 0x0 PUSH2 0x1C58 DUP3 PUSH2 0x2288 JUMP JUMPDEST PUSH2 0x1C62 DUP2 DUP6 PUSH2 0x22AB JUMP JUMPDEST SWAP4 POP PUSH2 0x1C6D DUP4 PUSH2 0x2278 JUMP JUMPDEST DUP1 PUSH1 0x0 JUMPDEST DUP4 DUP2 LT ISZERO PUSH2 0x1C9E JUMPI DUP2 MLOAD PUSH2 0x1C85 DUP9 DUP3 PUSH2 0x1C25 JUMP JUMPDEST SWAP8 POP PUSH2 0x1C90 DUP4 PUSH2 0x229E JUMP JUMPDEST SWAP3 POP POP PUSH1 0x1 DUP2 ADD SWAP1 POP PUSH2 0x1C71 JUMP JUMPDEST POP DUP6 SWAP4 POP POP POP POP SWAP3 SWAP2 POP POP JUMP JUMPDEST PUSH2 0x1CB4 DUP2 PUSH2 0x22F0 JUMP JUMPDEST DUP3 MSTORE POP POP JUMP JUMPDEST PUSH2 0x1CC3 DUP2 PUSH2 0x22FC JUMP JUMPDEST DUP3 MSTORE POP POP JUMP JUMPDEST PUSH2 0x1CDA PUSH2 0x1CD5 DUP3 PUSH2 0x22FC JUMP JUMPDEST PUSH2 0x23BE JUMP JUMPDEST DUP3 MSTORE POP POP JUMP JUMPDEST PUSH1 0x0 PUSH2 0x1CEB DUP3 PUSH2 0x2293 JUMP JUMPDEST PUSH2 0x1CF5 DUP2 DUP6 PUSH2 0x22BC JUMP JUMPDEST SWAP4 POP PUSH2 0x1D05 DUP2 DUP6 PUSH1 0x20 DUP7 ADD PUSH2 0x238B JUMP JUMPDEST PUSH2 0x1D0E DUP2 PUSH2 0x23CA JUMP JUMPDEST DUP5 ADD SWAP2 POP POP SWAP3 SWAP2 POP POP JUMP JUMPDEST PUSH1 0x0 PUSH2 0x1D26 PUSH1 0x1C DUP4 PUSH2 0x22CD JUMP JUMPDEST SWAP2 POP PUSH32 0x4272616E6368206D757374206265206C6F6E676572207468616E203000000000 PUSH1 0x0 DUP4 ADD MSTORE PUSH1 0x20 DUP3 ADD SWAP1 POP SWAP2 SWAP1 POP JUMP JUMPDEST PUSH1 0x0 PUSH2 0x1D66 PUSH1 0xE DUP4 PUSH2 0x22CD JUMP JUMPDEST SWAP2 POP PUSH32 0x736C6963655F6F766572666C6F77000000000000000000000000000000000000 PUSH1 0x0 DUP4 ADD MSTORE PUSH1 0x20 DUP3 ADD SWAP1 POP SWAP2 SWAP1 POP JUMP JUMPDEST PUSH1 0x0 PUSH2 0x1DA6 PUSH1 0x31 DUP4 PUSH2 0x22CD JUMP JUMPDEST SWAP2 POP PUSH32 0x56616C75652063616E20626520657175616C20746F206E6F646520627574206E PUSH1 0x0 DUP4 ADD MSTORE PUSH32 0x65766572206F6E20746865207269676874000000000000000000000000000000 PUSH1 0x20 DUP4 ADD MSTORE PUSH1 0x40 DUP3 ADD SWAP1 POP SWAP2 SWAP1 POP JUMP JUMPDEST PUSH1 0x0 PUSH2 0x1E0C PUSH1 0x11 DUP4 PUSH2 0x22CD JUMP JUMPDEST SWAP2 POP PUSH32 0x736C6963655F6F75744F66426F756E6473000000000000000000000000000000 PUSH1 0x0 DUP4 ADD MSTORE PUSH1 0x20 DUP3 ADD SWAP1 POP SWAP2 SWAP1 POP JUMP JUMPDEST PUSH1 0x0 PUSH2 0x1E4C PUSH1 0x1B DUP4 PUSH2 0x22CD JUMP JUMPDEST SWAP2 POP PUSH32 0x496E6465782063616E6E6F74206265206C657373207468616E20300000000000 PUSH1 0x0 DUP4 ADD MSTORE PUSH1 0x20 DUP3 ADD SWAP1 POP SWAP2 SWAP1 POP JUMP JUMPDEST PUSH1 0x40 DUP3 ADD PUSH1 0x0 DUP3 ADD MLOAD PUSH2 0x1E95 PUSH1 0x0 DUP6 ADD DUP3 PUSH2 0x1C3E JUMP JUMPDEST POP PUSH1 0x20 DUP3 ADD MLOAD PUSH2 0x1EA8 PUSH1 0x20 DUP6 ADD DUP3 PUSH2 0x1FAE JUMP JUMPDEST POP POP POP POP JUMP JUMPDEST PUSH2 0x140 DUP3 ADD PUSH1 0x0 DUP3 ADD MLOAD PUSH2 0x1EC5 PUSH1 0x0 DUP6 ADD DUP3 PUSH2 0x1F90 JUMP JUMPDEST POP PUSH1 0x20 DUP3 ADD MLOAD PUSH2 0x1ED8 PUSH1 0x20 DUP6 ADD DUP3 PUSH2 0x1E7F JUMP JUMPDEST POP PUSH1 0x40 DUP3 ADD MLOAD PUSH2 0x1EEB PUSH1 0x60 DUP6 ADD DUP3 PUSH2 0x1F90 JUMP JUMPDEST POP PUSH1 0x60 DUP3 ADD MLOAD PUSH2 0x1EFE PUSH1 0x80 DUP6 ADD DUP3 PUSH2 0x1C3E JUMP JUMPDEST POP PUSH1 0x80 DUP3 ADD MLOAD PUSH2 0x1F11 PUSH1 0xA0 DUP6 ADD DUP3 PUSH2 0x1F81 JUMP JUMPDEST POP PUSH1 0xA0 DUP3 ADD MLOAD PUSH2 0x1F24 PUSH1 0xC0 DUP6 ADD DUP3 PUSH2 0x1F52 JUMP JUMPDEST POP PUSH1 0xC0 DUP3 ADD MLOAD PUSH2 0x1F38 PUSH2 0x100 DUP6 ADD DUP3 PUSH2 0x1C3E JUMP JUMPDEST POP PUSH1 0xE0 DUP3 ADD MLOAD PUSH2 0x1F4C PUSH2 0x120 DUP6 ADD DUP3 PUSH2 0x1C3E JUMP JUMPDEST POP POP POP POP JUMP JUMPDEST PUSH1 0x40 DUP3 ADD PUSH1 0x0 DUP3 ADD MLOAD PUSH2 0x1F68 PUSH1 0x0 DUP6 ADD DUP3 PUSH2 0x1FBD JUMP JUMPDEST POP PUSH1 0x20 DUP3 ADD MLOAD PUSH2 0x1F7B PUSH1 0x20 DUP6 ADD DUP3 PUSH2 0x1C3E JUMP JUMPDEST POP POP POP POP JUMP JUMPDEST PUSH2 0x1F8A DUP2 PUSH2 0x2341 JUMP JUMPDEST DUP3 MSTORE POP POP JUMP JUMPDEST PUSH2 0x1F99 DUP2 PUSH2 0x234B JUMP JUMPDEST DUP3 MSTORE POP POP JUMP JUMPDEST PUSH2 0x1FA8 DUP2 PUSH2 0x234B JUMP JUMPDEST DUP3 MSTORE POP POP JUMP JUMPDEST PUSH2 0x1FB7 DUP2 PUSH2 0x235B JUMP JUMPDEST DUP3 MSTORE POP POP JUMP JUMPDEST PUSH2 0x1FC6 DUP2 PUSH2 0x236F JUMP JUMPDEST DUP3 MSTORE POP POP JUMP JUMPDEST PUSH1 0x0 PUSH2 0x1FD8 DUP3 DUP6 PUSH2 0x1CC9 JUMP JUMPDEST PUSH1 0x20 DUP3 ADD SWAP2 POP PUSH2 0x1FE8 DUP3 DUP5 PUSH2 0x1CC9 JUMP JUMPDEST PUSH1 0x20 DUP3 ADD SWAP2 POP DUP2 SWAP1 POP SWAP4 SWAP3 POP POP POP JUMP JUMPDEST PUSH1 0x0 PUSH1 0x40 DUP3 ADD SWAP1 POP DUP2 DUP2 SUB PUSH1 0x0 DUP4 ADD MSTORE PUSH2 0x2012 DUP2 DUP6 PUSH2 0x1C4D JUMP JUMPDEST SWAP1 POP PUSH2 0x2021 PUSH1 0x20 DUP4 ADD DUP5 PUSH2 0x1CAB JUMP JUMPDEST SWAP4 SWAP3 POP POP POP JUMP JUMPDEST PUSH1 0x0 PUSH1 0x20 DUP3 ADD SWAP1 POP PUSH2 0x203D PUSH1 0x0 DUP4 ADD DUP5 PUSH2 0x1CAB JUMP JUMPDEST SWAP3 SWAP2 POP POP JUMP JUMPDEST PUSH1 0x0 PUSH1 0x20 DUP3 ADD SWAP1 POP PUSH2 0x2058 PUSH1 0x0 DUP4 ADD DUP5 PUSH2 0x1CBA JUMP JUMPDEST SWAP3 SWAP2 POP POP JUMP JUMPDEST PUSH1 0x0 PUSH1 0x20 DUP3 ADD SWAP1 POP DUP2 DUP2 SUB PUSH1 0x0 DUP4 ADD MSTORE PUSH2 0x2078 DUP2 DUP5 PUSH2 0x1CE0 JUMP JUMPDEST SWAP1 POP SWAP3 SWAP2 POP POP JUMP JUMPDEST PUSH1 0x0 PUSH1 0x20 DUP3 ADD SWAP1 POP DUP2 DUP2 SUB PUSH1 0x0 DUP4 ADD MSTORE PUSH2 0x2099 DUP2 PUSH2 0x1D19 JUMP JUMPDEST SWAP1 POP SWAP2 SWAP1 POP JUMP JUMPDEST PUSH1 0x0 PUSH1 0x20 DUP3 ADD SWAP1 POP DUP2 DUP2 SUB PUSH1 0x0 DUP4 ADD MSTORE PUSH2 0x20B9 DUP2 PUSH2 0x1D59 JUMP JUMPDEST SWAP1 POP SWAP2 SWAP1 POP JUMP JUMPDEST PUSH1 0x0 PUSH1 0x20 DUP3 ADD SWAP1 POP DUP2 DUP2 SUB PUSH1 0x0 DUP4 ADD MSTORE PUSH2 0x20D9 DUP2 PUSH2 0x1D99 JUMP JUMPDEST SWAP1 POP SWAP2 SWAP1 POP JUMP JUMPDEST PUSH1 0x0 PUSH1 0x20 DUP3 ADD SWAP1 POP DUP2 DUP2 SUB PUSH1 0x0 DUP4 ADD MSTORE PUSH2 0x20F9 DUP2 PUSH2 0x1DFF JUMP JUMPDEST SWAP1 POP SWAP2 SWAP1 POP JUMP JUMPDEST PUSH1 0x0 PUSH1 0x20 DUP3 ADD SWAP1 POP DUP2 DUP2 SUB PUSH1 0x0 DUP4 ADD MSTORE PUSH2 0x2119 DUP2 PUSH2 0x1E3F JUMP JUMPDEST SWAP1 POP SWAP2 SWAP1 POP JUMP JUMPDEST PUSH1 0x0 PUSH1 0x20 DUP3 ADD SWAP1 POP PUSH2 0x2135 PUSH1 0x0 DUP4 ADD DUP5 PUSH2 0x1F9F JUMP JUMPDEST SWAP3 SWAP2 POP POP JUMP JUMPDEST PUSH1 0x0 PUSH1 0x40 MLOAD SWAP1 POP DUP2 DUP2 ADD DUP2 DUP2 LT PUSH8 0xFFFFFFFFFFFFFFFF DUP3 GT OR ISZERO PUSH2 0x2162 JUMPI PUSH2 0x2161 PUSH2 0x23C8 JUMP JUMPDEST JUMPDEST DUP1 PUSH1 0x40 MSTORE POP SWAP2 SWAP1 POP JUMP JUMPDEST PUSH1 0x0 PUSH8 0xFFFFFFFFFFFFFFFF DUP3 GT ISZERO PUSH2 0x2187 JUMPI PUSH2 0x2186 PUSH2 0x23C8 JUMP JUMPDEST JUMPDEST PUSH1 0x20 DUP3 MUL SWAP1 POP PUSH1 0x20 DUP2 ADD SWAP1 POP SWAP2 SWAP1 POP JUMP JUMPDEST PUSH1 0x0 PUSH8 0xFFFFFFFFFFFFFFFF DUP3 GT ISZERO PUSH2 0x21B3 JUMPI PUSH2 0x21B2 PUSH2 0x23C8 JUMP JUMPDEST JUMPDEST PUSH1 0x20 DUP3 MUL SWAP1 POP PUSH1 0x20 DUP2 ADD SWAP1 POP SWAP2 SWAP1 POP JUMP JUMPDEST PUSH1 0x0 PUSH8 0xFFFFFFFFFFFFFFFF DUP3 GT ISZERO PUSH2 0x21DF JUMPI PUSH2 0x21DE PUSH2 0x23C8 JUMP JUMPDEST JUMPDEST PUSH1 0x20 DUP3 MUL SWAP1 POP PUSH1 0x20 DUP2 ADD SWAP1 POP SWAP2 SWAP1 POP JUMP JUMPDEST PUSH1 0x0 PUSH8 0xFFFFFFFFFFFFFFFF DUP3 GT ISZERO PUSH2 0x220B JUMPI PUSH2 0x220A PUSH2 0x23C8 JUMP JUMPDEST JUMPDEST PUSH1 0x20 DUP3 MUL SWAP1 POP PUSH1 0x20 DUP2 ADD SWAP1 POP SWAP2 SWAP1 POP JUMP JUMPDEST PUSH1 0x0 PUSH8 0xFFFFFFFFFFFFFFFF DUP3 GT ISZERO PUSH2 0x2237 JUMPI PUSH2 0x2236 PUSH2 0x23C8 JUMP JUMPDEST JUMPDEST PUSH1 0x20 DUP3 MUL SWAP1 POP PUSH1 0x20 DUP2 ADD SWAP1 POP SWAP2 SWAP1 POP JUMP JUMPDEST PUSH1 0x0 PUSH8 0xFFFFFFFFFFFFFFFF DUP3 GT ISZERO PUSH2 0x2263 JUMPI PUSH2 0x2262 PUSH2 0x23C8 JUMP JUMPDEST JUMPDEST PUSH1 0x1F NOT PUSH1 0x1F DUP4 ADD AND SWAP1 POP PUSH1 0x20 DUP2 ADD SWAP1 POP SWAP2 SWAP1 POP JUMP JUMPDEST PUSH1 0x0 DUP2 SWAP1 POP PUSH1 0x20 DUP3 ADD SWAP1 POP SWAP2 SWAP1 POP JUMP JUMPDEST PUSH1 0x0 DUP2 MLOAD SWAP1 POP SWAP2 SWAP1 POP JUMP JUMPDEST PUSH1 0x0 DUP2 MLOAD SWAP1 POP SWAP2 SWAP1 POP JUMP JUMPDEST PUSH1 0x0 PUSH1 0x20 DUP3 ADD SWAP1 POP SWAP2 SWAP1 POP JUMP JUMPDEST PUSH1 0x0 DUP3 DUP3 MSTORE PUSH1 0x20 DUP3 ADD SWAP1 POP SWAP3 SWAP2 POP POP JUMP JUMPDEST PUSH1 0x0 DUP3 DUP3 MSTORE PUSH1 0x20 DUP3 ADD SWAP1 POP SWAP3 SWAP2 POP POP JUMP JUMPDEST PUSH1 0x0 DUP3 DUP3 MSTORE PUSH1 0x20 DUP3 ADD SWAP1 POP SWAP3 SWAP2 POP POP JUMP JUMPDEST PUSH1 0x0 PUSH2 0x22E9 DUP3 PUSH2 0x2321 JUMP JUMPDEST SWAP1 POP SWAP2 SWAP1 POP JUMP JUMPDEST PUSH1 0x0 DUP2 ISZERO ISZERO SWAP1 POP SWAP2 SWAP1 POP JUMP JUMPDEST PUSH1 0x0 DUP2 SWAP1 POP SWAP2 SWAP1 POP JUMP JUMPDEST PUSH1 0x0 DUP2 PUSH1 0x3 SIGNEXTEND SWAP1 POP SWAP2 SWAP1 POP JUMP JUMPDEST PUSH1 0x0 PUSH2 0xFFFF DUP3 AND SWAP1 POP SWAP2 SWAP1 POP JUMP JUMPDEST PUSH1 0x0 PUSH20 0xFFFFFFFFFFFFFFFFFFFFFFFFFFFFFFFFFFFFFFFF DUP3 AND SWAP1 POP SWAP2 SWAP1 POP JUMP JUMPDEST PUSH1 0x0 DUP2 SWAP1 POP SWAP2 SWAP1 POP JUMP JUMPDEST PUSH1 0x0 PUSH4 0xFFFFFFFF DUP3 AND SWAP1 POP SWAP2 SWAP1 POP JUMP JUMPDEST PUSH1 0x0 PUSH8 0xFFFFFFFFFFFFFFFF DUP3 AND SWAP1 POP SWAP2 SWAP1 POP JUMP JUMPDEST PUSH1 0x0 PUSH1 0xFF DUP3 AND SWAP1 POP SWAP2 SWAP1 POP JUMP JUMPDEST DUP3 DUP2 DUP4 CALLDATACOPY PUSH1 0x0 DUP4 DUP4 ADD MSTORE POP POP POP JUMP JUMPDEST PUSH1 0x0 JUMPDEST DUP4 DUP2 LT ISZERO PUSH2 0x23A9 JUMPI DUP1 DUP3 ADD MLOAD DUP2 DUP5 ADD MSTORE PUSH1 0x20 DUP2 ADD SWAP1 POP PUSH2 0x238E JUMP JUMPDEST DUP4 DUP2 GT ISZERO PUSH2 0x23B8 JUMPI PUSH1 0x0 DUP5 DUP5 ADD MSTORE JUMPDEST POP POP POP POP JUMP JUMPDEST PUSH1 0x0 DUP2 SWAP1 POP SWAP2 SWAP1 POP JUMP JUMPDEST INVALID JUMPDEST PUSH1 0x0 PUSH1 0x1F NOT PUSH1 0x1F DUP4 ADD AND SWAP1 POP SWAP2 SWAP1 POP JUMP JUMPDEST PUSH2 0x23E4 DUP2 PUSH2 0x22DE JUMP JUMPDEST DUP2 EQ PUSH2 0x23EF JUMPI PUSH1 0x0 DUP1 REVERT JUMPDEST POP JUMP JUMPDEST PUSH2 0x23FB DUP2 PUSH2 0x22FC JUMP JUMPDEST DUP2 EQ PUSH2 0x2406 JUMPI PUSH1 0x0 DUP1 REVERT JUMPDEST POP JUMP JUMPDEST PUSH2 0x2412 DUP2 PUSH2 0x2306 JUMP JUMPDEST DUP2 EQ PUSH2 0x241D JUMPI PUSH1 0x0 DUP1 REVERT JUMPDEST POP JUMP JUMPDEST PUSH2 0x2429 DUP2 PUSH2 0x2313 JUMP JUMPDEST DUP2 EQ PUSH2 0x2434 JUMPI PUSH1 0x0 DUP1 REVERT JUMPDEST POP JUMP JUMPDEST PUSH2 0x2440 DUP2 PUSH2 0x2341 JUMP JUMPDEST DUP2 EQ PUSH2 0x244B JUMPI PUSH1 0x0 DUP1 REVERT JUMPDEST POP JUMP JUMPDEST PUSH2 0x2457 DUP2 PUSH2 0x234B JUMP JUMPDEST DUP2 EQ PUSH2 0x2462 JUMPI PUSH1 0x0 DUP1 REVERT JUMPDEST POP JUMP JUMPDEST PUSH2 0x246E DUP2 PUSH2 0x235B JUMP JUMPDEST DUP2 EQ PUSH2 0x2479 JUMPI PUSH1 0x0 DUP1 REVERT JUMPDEST POP JUMP JUMPDEST PUSH2 0x2485 DUP2 PUSH2 0x236F JUMP JUMPDEST DUP2 EQ PUSH2 0x2490 JUMPI PUSH1 0x0 DUP1 REVERT JUMPDEST POP JUMP INVALID LOG2 PUSH5 0x6970667358 0x22 SLT KECCAK256 DUP12 CALLDATACOPY 0xEA 0xD8 DUP9 0xF8 0xED 0xD8 0x4F CALL 0xEC PUSH12 0xEC08A52C7B845FEA3A42B931 PC 0x48 0xD 0x26 0xF6 SWAP3 DUP3 0x4F PUSH5 0x736F6C6343 STOP SMOD MOD STOP CALLER "
		},
		"gasEstimates": {
			"creation": {
				"codeDepositCost": "1883400",
				"executionCost": "infinite",
				"totalCost": "infinite"
			},
			"external": {
				"checkBranch(bytes32,(uint8,uint32,uint32,bytes32[]))": "infinite",
				"checkProof(bytes32,(uint8,(uint8,uint32,uint32,bytes32[]))[])": "infinite",
				"checkTransfers((uint256,bytes32,uint256,(uint16,uint16,address,uint32,uint32,address,address,uint32,(address,uint64)[],(address,uint64)[],bytes32,(address,uint64)[],(uint8,address),int32),(uint8,uint8,(uint8,(uint8,uint32,uint32,bytes32[]))[],(uint8,uint8,bytes,(uint8,(uint8,uint32,uint32,bytes32[]))[],uint32)[]),(uint32,(address,uint64),uint32,address,uint256,(uint8,address),address,address)[]))": "infinite",
				"computedValues(uint256)": "2305",
				"flipBytes32(bytes32)": "infinite",
				"hashTransfers((uint32,(address,uint64),uint32,address,uint256,(uint8,address),address,address)[])": "infinite",
				"proveComponents((uint256,bytes32,uint256,(uint16,uint16,address,uint32,uint32,address,address,uint32,(address,uint64)[],(address,uint64)[],bytes32,(address,uint64)[],(uint8,address),int32),(uint8,uint8,(uint8,(uint8,uint32,uint32,bytes32[]))[],(uint8,uint8,bytes,(uint8,(uint8,uint32,uint32,bytes32[]))[],uint32)[]),(uint32,(address,uint64),uint32,address,uint256,(uint8,address),address,address)[]))": "infinite",
				"proveImports((uint256,bytes32,uint256,(uint16,uint16,address,uint32,uint32,address,address,uint32,(address,uint64)[],(address,uint64)[],bytes32,(address,uint64)[],(uint8,address),int32),(uint8,uint8,(uint8,(uint8,uint32,uint32,bytes32[]))[],(uint8,uint8,bytes,(uint8,(uint8,uint32,uint32,bytes32[]))[],uint32)[]),(uint32,(address,uint64),uint32,address,uint256,(uint8,address),address,address)[]))": "infinite",
				"proveTransaction((uint256,bytes32,uint256,(uint16,uint16,address,uint32,uint32,address,address,uint32,(address,uint64)[],(address,uint64)[],bytes32,(address,uint64)[],(uint8,address),int32),(uint8,uint8,(uint8,(uint8,uint32,uint32,bytes32[]))[],(uint8,uint8,bytes,(uint8,(uint8,uint32,uint32,bytes32[]))[],uint32)[]),(uint32,(address,uint64),uint32,address,uint256,(uint8,address),address,address)[]))": "infinite",
				"testHashedTransfers()": "1151",
				"testResult()": "1282",
				"testTransfers()": "infinite",
				"txValue()": "1195"
			},
			"internal": {
				"reverseuint256(uint256)": "236",
				"slice(bytes memory,uint256,uint256)": "infinite"
			}
		},
		"methodIdentifiers": {
			"checkBranch(bytes32,(uint8,uint32,uint32,bytes32[]))": "5981d41b",
			"checkProof(bytes32,(uint8,(uint8,uint32,uint32,bytes32[]))[])": "f8ba7192",
			"checkTransfers((uint256,bytes32,uint256,(uint16,uint16,address,uint32,uint32,address,address,uint32,(address,uint64)[],(address,uint64)[],bytes32,(address,uint64)[],(uint8,address),int32),(uint8,uint8,(uint8,(uint8,uint32,uint32,bytes32[]))[],(uint8,uint8,bytes,(uint8,(uint8,uint32,uint32,bytes32[]))[],uint32)[]),(uint32,(address,uint64),uint32,address,uint256,(uint8,address),address,address)[]))": "b0adc5bc",
			"computedValues(uint256)": "3192148c",
			"flipBytes32(bytes32)": "bc736c14",
			"hashTransfers((uint32,(address,uint64),uint32,address,uint256,(uint8,address),address,address)[])": "56d2e32f",
			"proveComponents((uint256,bytes32,uint256,(uint16,uint16,address,uint32,uint32,address,address,uint32,(address,uint64)[],(address,uint64)[],bytes32,(address,uint64)[],(uint8,address),int32),(uint8,uint8,(uint8,(uint8,uint32,uint32,bytes32[]))[],(uint8,uint8,bytes,(uint8,(uint8,uint32,uint32,bytes32[]))[],uint32)[]),(uint32,(address,uint64),uint32,address,uint256,(uint8,address),address,address)[]))": "9aab7240",
			"proveImports((uint256,bytes32,uint256,(uint16,uint16,address,uint32,uint32,address,address,uint32,(address,uint64)[],(address,uint64)[],bytes32,(address,uint64)[],(uint8,address),int32),(uint8,uint8,(uint8,(uint8,uint32,uint32,bytes32[]))[],(uint8,uint8,bytes,(uint8,(uint8,uint32,uint32,bytes32[]))[],uint32)[]),(uint32,(address,uint64),uint32,address,uint256,(uint8,address),address,address)[]))": "8a154c1f",
			"proveTransaction((uint256,bytes32,uint256,(uint16,uint16,address,uint32,uint32,address,address,uint32,(address,uint64)[],(address,uint64)[],bytes32,(address,uint64)[],(uint8,address),int32),(uint8,uint8,(uint8,(uint8,uint32,uint32,bytes32[]))[],(uint8,uint8,bytes,(uint8,(uint8,uint32,uint32,bytes32[]))[],uint32)[]),(uint32,(address,uint64),uint32,address,uint256,(uint8,address),address,address)[]))": "a0535281",
			"testHashedTransfers()": "b740965f",
			"testResult()": "8f1db79b",
			"testTransfers()": "317e325b",
			"txValue()": "c1d71858"
		}
	},
	"abi": [
		{
			"inputs": [
				{
					"internalType": "address",
					"name": "notarizerAddress",
					"type": "address"
				},
				{
					"internalType": "address",
					"name": "verusBLAKE2b",
					"type": "address"
				},
				{
					"internalType": "address",
					"name": "verusSerializerAddress",
					"type": "address"
				}
			],
			"stateMutability": "nonpayable",
			"type": "constructor"
		},
		{
			"anonymous": false,
			"inputs": [
				{
					"indexed": false,
					"internalType": "bytes32",
					"name": "newHash",
					"type": "bytes32"
				},
				{
					"indexed": false,
					"internalType": "uint8",
					"name": "eventType",
					"type": "uint8"
				}
			],
			"name": "HashEvent",
			"type": "event"
		},
		{
			"inputs": [
				{
					"internalType": "bytes32",
					"name": "_hashToCheck",
					"type": "bytes32"
				},
				{
					"components": [
						{
							"internalType": "uint8",
							"name": "CMerkleBranchBase",
							"type": "uint8"
						},
						{
							"internalType": "uint32",
							"name": "nIndex",
							"type": "uint32"
						},
						{
							"internalType": "uint32",
							"name": "nSize",
							"type": "uint32"
						},
						{
							"internalType": "bytes32[]",
							"name": "branch",
							"type": "bytes32[]"
						}
					],
					"internalType": "struct VerusObjects.CMerkleBranch",
					"name": "_branch",
					"type": "tuple"
				}
			],
			"name": "checkBranch",
			"outputs": [
				{
					"internalType": "bytes32",
					"name": "",
					"type": "bytes32"
				}
			],
			"stateMutability": "view",
			"type": "function"
		},
		{
			"inputs": [
				{
					"internalType": "bytes32",
					"name": "hashToProve",
					"type": "bytes32"
				},
				{
					"components": [
						{
							"internalType": "uint8",
							"name": "branchType",
							"type": "uint8"
						},
						{
							"components": [
								{
									"internalType": "uint8",
									"name": "CMerkleBranchBase",
									"type": "uint8"
								},
								{
									"internalType": "uint32",
									"name": "nIndex",
									"type": "uint32"
								},
								{
									"internalType": "uint32",
									"name": "nSize",
									"type": "uint32"
								},
								{
									"internalType": "bytes32[]",
									"name": "branch",
									"type": "bytes32[]"
								}
							],
							"internalType": "struct VerusObjects.CMerkleBranch",
							"name": "proofSequence",
							"type": "tuple"
						}
					],
					"internalType": "struct VerusObjects.CTXProof[]",
					"name": "_branches",
					"type": "tuple[]"
				}
			],
			"name": "checkProof",
			"outputs": [
				{
					"internalType": "bytes32",
					"name": "",
					"type": "bytes32"
				}
			],
			"stateMutability": "view",
			"type": "function"
		},
		{
			"inputs": [
				{
					"components": [
						{
							"internalType": "uint256",
							"name": "height",
							"type": "uint256"
						},
						{
							"internalType": "bytes32",
							"name": "txid",
							"type": "bytes32"
						},
						{
							"internalType": "uint256",
							"name": "txoutnum",
							"type": "uint256"
						},
						{
							"components": [
								{
									"internalType": "uint16",
									"name": "version",
									"type": "uint16"
								},
								{
									"internalType": "uint16",
									"name": "flags",
									"type": "uint16"
								},
								{
									"internalType": "address",
									"name": "sourcesystemid",
									"type": "address"
								},
								{
									"internalType": "uint32",
									"name": "sourceheightstart",
									"type": "uint32"
								},
								{
									"internalType": "uint32",
									"name": "sourceheightend",
									"type": "uint32"
								},
								{
									"internalType": "address",
									"name": "destinationsystemid",
									"type": "address"
								},
								{
									"internalType": "address",
									"name": "destinationcurrencyid",
									"type": "address"
								},
								{
									"internalType": "uint32",
									"name": "numinputs",
									"type": "uint32"
								},
								{
									"components": [
										{
											"internalType": "address",
											"name": "currency",
											"type": "address"
										},
										{
											"internalType": "uint64",
											"name": "amount",
											"type": "uint64"
										}
									],
									"internalType": "struct VerusObjects.CCurrencyValueMap[]",
									"name": "totalamounts",
									"type": "tuple[]"
								},
								{
									"components": [
										{
											"internalType": "address",
											"name": "currency",
											"type": "address"
										},
										{
											"internalType": "uint64",
											"name": "amount",
											"type": "uint64"
										}
									],
									"internalType": "struct VerusObjects.CCurrencyValueMap[]",
									"name": "totalfees",
									"type": "tuple[]"
								},
								{
									"internalType": "bytes32",
									"name": "hashtransfers",
									"type": "bytes32"
								},
								{
									"components": [
										{
											"internalType": "address",
											"name": "currency",
											"type": "address"
										},
										{
											"internalType": "uint64",
											"name": "amount",
											"type": "uint64"
										}
									],
									"internalType": "struct VerusObjects.CCurrencyValueMap[]",
									"name": "totalburned",
									"type": "tuple[]"
								},
								{
									"components": [
										{
											"internalType": "uint8",
											"name": "destinationtype",
											"type": "uint8"
										},
										{
											"internalType": "address",
											"name": "destinationaddress",
											"type": "address"
										}
									],
									"internalType": "struct VerusObjectsCommon.CTransferDestination",
									"name": "rewardaddress",
									"type": "tuple"
								},
								{
									"internalType": "int32",
									"name": "firstinput",
									"type": "int32"
								}
							],
							"internalType": "struct VerusObjects.CCrossChainExport",
							"name": "exportinfo",
							"type": "tuple"
						},
						{
							"components": [
								{
									"internalType": "uint8",
									"name": "version",
									"type": "uint8"
								},
								{
									"internalType": "uint8",
									"name": "typeC",
									"type": "uint8"
								},
								{
									"components": [
										{
											"internalType": "uint8",
											"name": "branchType",
											"type": "uint8"
										},
										{
											"components": [
												{
													"internalType": "uint8",
													"name": "CMerkleBranchBase",
													"type": "uint8"
												},
												{
													"internalType": "uint32",
													"name": "nIndex",
													"type": "uint32"
												},
												{
													"internalType": "uint32",
													"name": "nSize",
													"type": "uint32"
												},
												{
													"internalType": "bytes32[]",
													"name": "branch",
													"type": "bytes32[]"
												}
											],
											"internalType": "struct VerusObjects.CMerkleBranch",
											"name": "proofSequence",
											"type": "tuple"
										}
									],
									"internalType": "struct VerusObjects.CTXProof[]",
									"name": "txproof",
									"type": "tuple[]"
								},
								{
									"components": [
										{
											"internalType": "uint8",
											"name": "elType",
											"type": "uint8"
										},
										{
											"internalType": "uint8",
											"name": "elIdx",
											"type": "uint8"
										},
										{
											"internalType": "bytes",
											"name": "elVchObj",
											"type": "bytes"
										},
										{
											"components": [
												{
													"internalType": "uint8",
													"name": "branchType",
													"type": "uint8"
												},
												{
													"components": [
														{
															"internalType": "uint8",
															"name": "CMerkleBranchBase",
															"type": "uint8"
														},
														{
															"internalType": "uint32",
															"name": "nIndex",
															"type": "uint32"
														},
														{
															"internalType": "uint32",
															"name": "nSize",
															"type": "uint32"
														},
														{
															"internalType": "bytes32[]",
															"name": "branch",
															"type": "bytes32[]"
														}
													],
													"internalType": "struct VerusObjects.CMerkleBranch",
													"name": "proofSequence",
													"type": "tuple"
												}
											],
											"internalType": "struct VerusObjects.CTXProof[]",
											"name": "elProof",
											"type": "tuple[]"
										},
										{
											"internalType": "uint32",
											"name": "VchObjIndex",
											"type": "uint32"
										}
									],
									"internalType": "struct VerusObjects.CComponents[]",
									"name": "components",
									"type": "tuple[]"
								}
							],
							"internalType": "struct VerusObjects.CPtransactionproof",
							"name": "partialtransactionproof",
							"type": "tuple"
						},
						{
							"components": [
								{
									"internalType": "uint32",
									"name": "version",
									"type": "uint32"
								},
								{
									"components": [
										{
											"internalType": "address",
											"name": "currency",
											"type": "address"
										},
										{
											"internalType": "uint64",
											"name": "amount",
											"type": "uint64"
										}
									],
									"internalType": "struct VerusObjects.CCurrencyValueMap",
									"name": "currencyvalue",
									"type": "tuple"
								},
								{
									"internalType": "uint32",
									"name": "flags",
									"type": "uint32"
								},
								{
									"internalType": "address",
									"name": "feecurrencyid",
									"type": "address"
								},
								{
									"internalType": "uint256",
									"name": "fees",
									"type": "uint256"
								},
								{
									"components": [
										{
											"internalType": "uint8",
											"name": "destinationtype",
											"type": "uint8"
										},
										{
											"internalType": "address",
											"name": "destinationaddress",
											"type": "address"
										}
									],
									"internalType": "struct VerusObjectsCommon.CTransferDestination",
									"name": "destination",
									"type": "tuple"
								},
								{
									"internalType": "address",
									"name": "destcurrencyid",
									"type": "address"
								},
								{
									"internalType": "address",
									"name": "destsystemid",
									"type": "address"
								}
							],
							"internalType": "struct VerusObjects.CReserveTransfer[]",
							"name": "transfers",
							"type": "tuple[]"
						}
					],
					"internalType": "struct VerusObjects.CReserveTransferImport",
					"name": "_import",
					"type": "tuple"
				}
			],
			"name": "checkTransfers",
			"outputs": [
				{
					"internalType": "bool",
					"name": "",
					"type": "bool"
				}
			],
			"stateMutability": "view",
			"type": "function"
		},
		{
			"inputs": [
				{
					"internalType": "uint256",
					"name": "",
					"type": "uint256"
				}
			],
			"name": "computedValues",
			"outputs": [
				{
					"internalType": "bytes32",
					"name": "",
					"type": "bytes32"
				}
			],
			"stateMutability": "view",
			"type": "function"
		},
		{
			"inputs": [
				{
					"internalType": "bytes32",
					"name": "input",
					"type": "bytes32"
				}
			],
			"name": "flipBytes32",
			"outputs": [
				{
					"internalType": "bytes32",
					"name": "",
					"type": "bytes32"
				}
			],
			"stateMutability": "pure",
			"type": "function"
		},
		{
			"inputs": [
				{
					"components": [
						{
							"internalType": "uint32",
							"name": "version",
							"type": "uint32"
						},
						{
							"components": [
								{
									"internalType": "address",
									"name": "currency",
									"type": "address"
								},
								{
									"internalType": "uint64",
									"name": "amount",
									"type": "uint64"
								}
							],
							"internalType": "struct VerusObjects.CCurrencyValueMap",
							"name": "currencyvalue",
							"type": "tuple"
						},
						{
							"internalType": "uint32",
							"name": "flags",
							"type": "uint32"
						},
						{
							"internalType": "address",
							"name": "feecurrencyid",
							"type": "address"
						},
						{
							"internalType": "uint256",
							"name": "fees",
							"type": "uint256"
						},
						{
							"components": [
								{
									"internalType": "uint8",
									"name": "destinationtype",
									"type": "uint8"
								},
								{
									"internalType": "address",
									"name": "destinationaddress",
									"type": "address"
								}
							],
							"internalType": "struct VerusObjectsCommon.CTransferDestination",
							"name": "destination",
							"type": "tuple"
						},
						{
							"internalType": "address",
							"name": "destcurrencyid",
							"type": "address"
						},
						{
							"internalType": "address",
							"name": "destsystemid",
							"type": "address"
						}
					],
					"internalType": "struct VerusObjects.CReserveTransfer[]",
					"name": "_transfers",
					"type": "tuple[]"
				}
			],
			"name": "hashTransfers",
			"outputs": [
				{
					"internalType": "bytes32",
					"name": "",
					"type": "bytes32"
				}
			],
			"stateMutability": "view",
			"type": "function"
		},
		{
			"inputs": [
				{
					"components": [
						{
							"internalType": "uint256",
							"name": "height",
							"type": "uint256"
						},
						{
							"internalType": "bytes32",
							"name": "txid",
							"type": "bytes32"
						},
						{
							"internalType": "uint256",
							"name": "txoutnum",
							"type": "uint256"
						},
						{
							"components": [
								{
									"internalType": "uint16",
									"name": "version",
									"type": "uint16"
								},
								{
									"internalType": "uint16",
									"name": "flags",
									"type": "uint16"
								},
								{
									"internalType": "address",
									"name": "sourcesystemid",
									"type": "address"
								},
								{
									"internalType": "uint32",
									"name": "sourceheightstart",
									"type": "uint32"
								},
								{
									"internalType": "uint32",
									"name": "sourceheightend",
									"type": "uint32"
								},
								{
									"internalType": "address",
									"name": "destinationsystemid",
									"type": "address"
								},
								{
									"internalType": "address",
									"name": "destinationcurrencyid",
									"type": "address"
								},
								{
									"internalType": "uint32",
									"name": "numinputs",
									"type": "uint32"
								},
								{
									"components": [
										{
											"internalType": "address",
											"name": "currency",
											"type": "address"
										},
										{
											"internalType": "uint64",
											"name": "amount",
											"type": "uint64"
										}
									],
									"internalType": "struct VerusObjects.CCurrencyValueMap[]",
									"name": "totalamounts",
									"type": "tuple[]"
								},
								{
									"components": [
										{
											"internalType": "address",
											"name": "currency",
											"type": "address"
										},
										{
											"internalType": "uint64",
											"name": "amount",
											"type": "uint64"
										}
									],
									"internalType": "struct VerusObjects.CCurrencyValueMap[]",
									"name": "totalfees",
									"type": "tuple[]"
								},
								{
									"internalType": "bytes32",
									"name": "hashtransfers",
									"type": "bytes32"
								},
								{
									"components": [
										{
											"internalType": "address",
											"name": "currency",
											"type": "address"
										},
										{
											"internalType": "uint64",
											"name": "amount",
											"type": "uint64"
										}
									],
									"internalType": "struct VerusObjects.CCurrencyValueMap[]",
									"name": "totalburned",
									"type": "tuple[]"
								},
								{
									"components": [
										{
											"internalType": "uint8",
											"name": "destinationtype",
											"type": "uint8"
										},
										{
											"internalType": "address",
											"name": "destinationaddress",
											"type": "address"
										}
									],
									"internalType": "struct VerusObjectsCommon.CTransferDestination",
									"name": "rewardaddress",
									"type": "tuple"
								},
								{
									"internalType": "int32",
									"name": "firstinput",
									"type": "int32"
								}
							],
							"internalType": "struct VerusObjects.CCrossChainExport",
							"name": "exportinfo",
							"type": "tuple"
						},
						{
							"components": [
								{
									"internalType": "uint8",
									"name": "version",
									"type": "uint8"
								},
								{
									"internalType": "uint8",
									"name": "typeC",
									"type": "uint8"
								},
								{
									"components": [
										{
											"internalType": "uint8",
											"name": "branchType",
											"type": "uint8"
										},
										{
											"components": [
												{
													"internalType": "uint8",
													"name": "CMerkleBranchBase",
													"type": "uint8"
												},
												{
													"internalType": "uint32",
													"name": "nIndex",
													"type": "uint32"
												},
												{
													"internalType": "uint32",
													"name": "nSize",
													"type": "uint32"
												},
												{
													"internalType": "bytes32[]",
													"name": "branch",
													"type": "bytes32[]"
												}
											],
											"internalType": "struct VerusObjects.CMerkleBranch",
											"name": "proofSequence",
											"type": "tuple"
										}
									],
									"internalType": "struct VerusObjects.CTXProof[]",
									"name": "txproof",
									"type": "tuple[]"
								},
								{
									"components": [
										{
											"internalType": "uint8",
											"name": "elType",
											"type": "uint8"
										},
										{
											"internalType": "uint8",
											"name": "elIdx",
											"type": "uint8"
										},
										{
											"internalType": "bytes",
											"name": "elVchObj",
											"type": "bytes"
										},
										{
											"components": [
												{
													"internalType": "uint8",
													"name": "branchType",
													"type": "uint8"
												},
												{
													"components": [
														{
															"internalType": "uint8",
															"name": "CMerkleBranchBase",
															"type": "uint8"
														},
														{
															"internalType": "uint32",
															"name": "nIndex",
															"type": "uint32"
														},
														{
															"internalType": "uint32",
															"name": "nSize",
															"type": "uint32"
														},
														{
															"internalType": "bytes32[]",
															"name": "branch",
															"type": "bytes32[]"
														}
													],
													"internalType": "struct VerusObjects.CMerkleBranch",
													"name": "proofSequence",
													"type": "tuple"
												}
											],
											"internalType": "struct VerusObjects.CTXProof[]",
											"name": "elProof",
											"type": "tuple[]"
										},
										{
											"internalType": "uint32",
											"name": "VchObjIndex",
											"type": "uint32"
										}
									],
									"internalType": "struct VerusObjects.CComponents[]",
									"name": "components",
									"type": "tuple[]"
								}
							],
							"internalType": "struct VerusObjects.CPtransactionproof",
							"name": "partialtransactionproof",
							"type": "tuple"
						},
						{
							"components": [
								{
									"internalType": "uint32",
									"name": "version",
									"type": "uint32"
								},
								{
									"components": [
										{
											"internalType": "address",
											"name": "currency",
											"type": "address"
										},
										{
											"internalType": "uint64",
											"name": "amount",
											"type": "uint64"
										}
									],
									"internalType": "struct VerusObjects.CCurrencyValueMap",
									"name": "currencyvalue",
									"type": "tuple"
								},
								{
									"internalType": "uint32",
									"name": "flags",
									"type": "uint32"
								},
								{
									"internalType": "address",
									"name": "feecurrencyid",
									"type": "address"
								},
								{
									"internalType": "uint256",
									"name": "fees",
									"type": "uint256"
								},
								{
									"components": [
										{
											"internalType": "uint8",
											"name": "destinationtype",
											"type": "uint8"
										},
										{
											"internalType": "address",
											"name": "destinationaddress",
											"type": "address"
										}
									],
									"internalType": "struct VerusObjectsCommon.CTransferDestination",
									"name": "destination",
									"type": "tuple"
								},
								{
									"internalType": "address",
									"name": "destcurrencyid",
									"type": "address"
								},
								{
									"internalType": "address",
									"name": "destsystemid",
									"type": "address"
								}
							],
							"internalType": "struct VerusObjects.CReserveTransfer[]",
							"name": "transfers",
							"type": "tuple[]"
						}
					],
					"internalType": "struct VerusObjects.CReserveTransferImport",
					"name": "_import",
					"type": "tuple"
				}
			],
			"name": "proveComponents",
			"outputs": [
				{
					"internalType": "bytes32",
					"name": "txRoot",
					"type": "bytes32"
				}
			],
			"stateMutability": "view",
			"type": "function"
		},
		{
			"inputs": [
				{
					"components": [
						{
							"internalType": "uint256",
							"name": "height",
							"type": "uint256"
						},
						{
							"internalType": "bytes32",
							"name": "txid",
							"type": "bytes32"
						},
						{
							"internalType": "uint256",
							"name": "txoutnum",
							"type": "uint256"
						},
						{
							"components": [
								{
									"internalType": "uint16",
									"name": "version",
									"type": "uint16"
								},
								{
									"internalType": "uint16",
									"name": "flags",
									"type": "uint16"
								},
								{
									"internalType": "address",
									"name": "sourcesystemid",
									"type": "address"
								},
								{
									"internalType": "uint32",
									"name": "sourceheightstart",
									"type": "uint32"
								},
								{
									"internalType": "uint32",
									"name": "sourceheightend",
									"type": "uint32"
								},
								{
									"internalType": "address",
									"name": "destinationsystemid",
									"type": "address"
								},
								{
									"internalType": "address",
									"name": "destinationcurrencyid",
									"type": "address"
								},
								{
									"internalType": "uint32",
									"name": "numinputs",
									"type": "uint32"
								},
								{
									"components": [
										{
											"internalType": "address",
											"name": "currency",
											"type": "address"
										},
										{
											"internalType": "uint64",
											"name": "amount",
											"type": "uint64"
										}
									],
									"internalType": "struct VerusObjects.CCurrencyValueMap[]",
									"name": "totalamounts",
									"type": "tuple[]"
								},
								{
									"components": [
										{
											"internalType": "address",
											"name": "currency",
											"type": "address"
										},
										{
											"internalType": "uint64",
											"name": "amount",
											"type": "uint64"
										}
									],
									"internalType": "struct VerusObjects.CCurrencyValueMap[]",
									"name": "totalfees",
									"type": "tuple[]"
								},
								{
									"internalType": "bytes32",
									"name": "hashtransfers",
									"type": "bytes32"
								},
								{
									"components": [
										{
											"internalType": "address",
											"name": "currency",
											"type": "address"
										},
										{
											"internalType": "uint64",
											"name": "amount",
											"type": "uint64"
										}
									],
									"internalType": "struct VerusObjects.CCurrencyValueMap[]",
									"name": "totalburned",
									"type": "tuple[]"
								},
								{
									"components": [
										{
											"internalType": "uint8",
											"name": "destinationtype",
											"type": "uint8"
										},
										{
											"internalType": "address",
											"name": "destinationaddress",
											"type": "address"
										}
									],
									"internalType": "struct VerusObjectsCommon.CTransferDestination",
									"name": "rewardaddress",
									"type": "tuple"
								},
								{
									"internalType": "int32",
									"name": "firstinput",
									"type": "int32"
								}
							],
							"internalType": "struct VerusObjects.CCrossChainExport",
							"name": "exportinfo",
							"type": "tuple"
						},
						{
							"components": [
								{
									"internalType": "uint8",
									"name": "version",
									"type": "uint8"
								},
								{
									"internalType": "uint8",
									"name": "typeC",
									"type": "uint8"
								},
								{
									"components": [
										{
											"internalType": "uint8",
											"name": "branchType",
											"type": "uint8"
										},
										{
											"components": [
												{
													"internalType": "uint8",
													"name": "CMerkleBranchBase",
													"type": "uint8"
												},
												{
													"internalType": "uint32",
													"name": "nIndex",
													"type": "uint32"
												},
												{
													"internalType": "uint32",
													"name": "nSize",
													"type": "uint32"
												},
												{
													"internalType": "bytes32[]",
													"name": "branch",
													"type": "bytes32[]"
												}
											],
											"internalType": "struct VerusObjects.CMerkleBranch",
											"name": "proofSequence",
											"type": "tuple"
										}
									],
									"internalType": "struct VerusObjects.CTXProof[]",
									"name": "txproof",
									"type": "tuple[]"
								},
								{
									"components": [
										{
											"internalType": "uint8",
											"name": "elType",
											"type": "uint8"
										},
										{
											"internalType": "uint8",
											"name": "elIdx",
											"type": "uint8"
										},
										{
											"internalType": "bytes",
											"name": "elVchObj",
											"type": "bytes"
										},
										{
											"components": [
												{
													"internalType": "uint8",
													"name": "branchType",
													"type": "uint8"
												},
												{
													"components": [
														{
															"internalType": "uint8",
															"name": "CMerkleBranchBase",
															"type": "uint8"
														},
														{
															"internalType": "uint32",
															"name": "nIndex",
															"type": "uint32"
														},
														{
															"internalType": "uint32",
															"name": "nSize",
															"type": "uint32"
														},
														{
															"internalType": "bytes32[]",
															"name": "branch",
															"type": "bytes32[]"
														}
													],
													"internalType": "struct VerusObjects.CMerkleBranch",
													"name": "proofSequence",
													"type": "tuple"
												}
											],
											"internalType": "struct VerusObjects.CTXProof[]",
											"name": "elProof",
											"type": "tuple[]"
										},
										{
											"internalType": "uint32",
											"name": "VchObjIndex",
											"type": "uint32"
										}
									],
									"internalType": "struct VerusObjects.CComponents[]",
									"name": "components",
									"type": "tuple[]"
								}
							],
							"internalType": "struct VerusObjects.CPtransactionproof",
							"name": "partialtransactionproof",
							"type": "tuple"
						},
						{
							"components": [
								{
									"internalType": "uint32",
									"name": "version",
									"type": "uint32"
								},
								{
									"components": [
										{
											"internalType": "address",
											"name": "currency",
											"type": "address"
										},
										{
											"internalType": "uint64",
											"name": "amount",
											"type": "uint64"
										}
									],
									"internalType": "struct VerusObjects.CCurrencyValueMap",
									"name": "currencyvalue",
									"type": "tuple"
								},
								{
									"internalType": "uint32",
									"name": "flags",
									"type": "uint32"
								},
								{
									"internalType": "address",
									"name": "feecurrencyid",
									"type": "address"
								},
								{
									"internalType": "uint256",
									"name": "fees",
									"type": "uint256"
								},
								{
									"components": [
										{
											"internalType": "uint8",
											"name": "destinationtype",
											"type": "uint8"
										},
										{
											"internalType": "address",
											"name": "destinationaddress",
											"type": "address"
										}
									],
									"internalType": "struct VerusObjectsCommon.CTransferDestination",
									"name": "destination",
									"type": "tuple"
								},
								{
									"internalType": "address",
									"name": "destcurrencyid",
									"type": "address"
								},
								{
									"internalType": "address",
									"name": "destsystemid",
									"type": "address"
								}
							],
							"internalType": "struct VerusObjects.CReserveTransfer[]",
							"name": "transfers",
							"type": "tuple[]"
						}
					],
					"internalType": "struct VerusObjects.CReserveTransferImport",
					"name": "_import",
					"type": "tuple"
				}
			],
			"name": "proveImports",
			"outputs": [
				{
					"internalType": "bool",
					"name": "",
					"type": "bool"
				}
			],
			"stateMutability": "view",
			"type": "function"
		},
		{
			"inputs": [
				{
					"components": [
						{
							"internalType": "uint256",
							"name": "height",
							"type": "uint256"
						},
						{
							"internalType": "bytes32",
							"name": "txid",
							"type": "bytes32"
						},
						{
							"internalType": "uint256",
							"name": "txoutnum",
							"type": "uint256"
						},
						{
							"components": [
								{
									"internalType": "uint16",
									"name": "version",
									"type": "uint16"
								},
								{
									"internalType": "uint16",
									"name": "flags",
									"type": "uint16"
								},
								{
									"internalType": "address",
									"name": "sourcesystemid",
									"type": "address"
								},
								{
									"internalType": "uint32",
									"name": "sourceheightstart",
									"type": "uint32"
								},
								{
									"internalType": "uint32",
									"name": "sourceheightend",
									"type": "uint32"
								},
								{
									"internalType": "address",
									"name": "destinationsystemid",
									"type": "address"
								},
								{
									"internalType": "address",
									"name": "destinationcurrencyid",
									"type": "address"
								},
								{
									"internalType": "uint32",
									"name": "numinputs",
									"type": "uint32"
								},
								{
									"components": [
										{
											"internalType": "address",
											"name": "currency",
											"type": "address"
										},
										{
											"internalType": "uint64",
											"name": "amount",
											"type": "uint64"
										}
									],
									"internalType": "struct VerusObjects.CCurrencyValueMap[]",
									"name": "totalamounts",
									"type": "tuple[]"
								},
								{
									"components": [
										{
											"internalType": "address",
											"name": "currency",
											"type": "address"
										},
										{
											"internalType": "uint64",
											"name": "amount",
											"type": "uint64"
										}
									],
									"internalType": "struct VerusObjects.CCurrencyValueMap[]",
									"name": "totalfees",
									"type": "tuple[]"
								},
								{
									"internalType": "bytes32",
									"name": "hashtransfers",
									"type": "bytes32"
								},
								{
									"components": [
										{
											"internalType": "address",
											"name": "currency",
											"type": "address"
										},
										{
											"internalType": "uint64",
											"name": "amount",
											"type": "uint64"
										}
									],
									"internalType": "struct VerusObjects.CCurrencyValueMap[]",
									"name": "totalburned",
									"type": "tuple[]"
								},
								{
									"components": [
										{
											"internalType": "uint8",
											"name": "destinationtype",
											"type": "uint8"
										},
										{
											"internalType": "address",
											"name": "destinationaddress",
											"type": "address"
										}
									],
									"internalType": "struct VerusObjectsCommon.CTransferDestination",
									"name": "rewardaddress",
									"type": "tuple"
								},
								{
									"internalType": "int32",
									"name": "firstinput",
									"type": "int32"
								}
							],
							"internalType": "struct VerusObjects.CCrossChainExport",
							"name": "exportinfo",
							"type": "tuple"
						},
						{
							"components": [
								{
									"internalType": "uint8",
									"name": "version",
									"type": "uint8"
								},
								{
									"internalType": "uint8",
									"name": "typeC",
									"type": "uint8"
								},
								{
									"components": [
										{
											"internalType": "uint8",
											"name": "branchType",
											"type": "uint8"
										},
										{
											"components": [
												{
													"internalType": "uint8",
													"name": "CMerkleBranchBase",
													"type": "uint8"
												},
												{
													"internalType": "uint32",
													"name": "nIndex",
													"type": "uint32"
												},
												{
													"internalType": "uint32",
													"name": "nSize",
													"type": "uint32"
												},
												{
													"internalType": "bytes32[]",
													"name": "branch",
													"type": "bytes32[]"
												}
											],
											"internalType": "struct VerusObjects.CMerkleBranch",
											"name": "proofSequence",
											"type": "tuple"
										}
									],
									"internalType": "struct VerusObjects.CTXProof[]",
									"name": "txproof",
									"type": "tuple[]"
								},
								{
									"components": [
										{
											"internalType": "uint8",
											"name": "elType",
											"type": "uint8"
										},
										{
											"internalType": "uint8",
											"name": "elIdx",
											"type": "uint8"
										},
										{
											"internalType": "bytes",
											"name": "elVchObj",
											"type": "bytes"
										},
										{
											"components": [
												{
													"internalType": "uint8",
													"name": "branchType",
													"type": "uint8"
												},
												{
													"components": [
														{
															"internalType": "uint8",
															"name": "CMerkleBranchBase",
															"type": "uint8"
														},
														{
															"internalType": "uint32",
															"name": "nIndex",
															"type": "uint32"
														},
														{
															"internalType": "uint32",
															"name": "nSize",
															"type": "uint32"
														},
														{
															"internalType": "bytes32[]",
															"name": "branch",
															"type": "bytes32[]"
														}
													],
													"internalType": "struct VerusObjects.CMerkleBranch",
													"name": "proofSequence",
													"type": "tuple"
												}
											],
											"internalType": "struct VerusObjects.CTXProof[]",
											"name": "elProof",
											"type": "tuple[]"
										},
										{
											"internalType": "uint32",
											"name": "VchObjIndex",
											"type": "uint32"
										}
									],
									"internalType": "struct VerusObjects.CComponents[]",
									"name": "components",
									"type": "tuple[]"
								}
							],
							"internalType": "struct VerusObjects.CPtransactionproof",
							"name": "partialtransactionproof",
							"type": "tuple"
						},
						{
							"components": [
								{
									"internalType": "uint32",
									"name": "version",
									"type": "uint32"
								},
								{
									"components": [
										{
											"internalType": "address",
											"name": "currency",
											"type": "address"
										},
										{
											"internalType": "uint64",
											"name": "amount",
											"type": "uint64"
										}
									],
									"internalType": "struct VerusObjects.CCurrencyValueMap",
									"name": "currencyvalue",
									"type": "tuple"
								},
								{
									"internalType": "uint32",
									"name": "flags",
									"type": "uint32"
								},
								{
									"internalType": "address",
									"name": "feecurrencyid",
									"type": "address"
								},
								{
									"internalType": "uint256",
									"name": "fees",
									"type": "uint256"
								},
								{
									"components": [
										{
											"internalType": "uint8",
											"name": "destinationtype",
											"type": "uint8"
										},
										{
											"internalType": "address",
											"name": "destinationaddress",
											"type": "address"
										}
									],
									"internalType": "struct VerusObjectsCommon.CTransferDestination",
									"name": "destination",
									"type": "tuple"
								},
								{
									"internalType": "address",
									"name": "destcurrencyid",
									"type": "address"
								},
								{
									"internalType": "address",
									"name": "destsystemid",
									"type": "address"
								}
							],
							"internalType": "struct VerusObjects.CReserveTransfer[]",
							"name": "transfers",
							"type": "tuple[]"
						}
					],
					"internalType": "struct VerusObjects.CReserveTransferImport",
					"name": "_import",
					"type": "tuple"
				}
			],
			"name": "proveTransaction",
			"outputs": [
				{
					"internalType": "bytes32",
					"name": "stateRoot",
					"type": "bytes32"
				}
			],
			"stateMutability": "view",
			"type": "function"
		},
		{
			"inputs": [],
			"name": "testHashedTransfers",
			"outputs": [
				{
					"internalType": "bytes32",
					"name": "",
					"type": "bytes32"
				}
			],
			"stateMutability": "view",
			"type": "function"
		},
		{
			"inputs": [],
			"name": "testResult",
			"outputs": [
				{
					"internalType": "bool",
					"name": "",
					"type": "bool"
				}
			],
			"stateMutability": "view",
			"type": "function"
		},
		{
			"inputs": [],
			"name": "testTransfers",
			"outputs": [
				{
					"internalType": "bytes",
					"name": "",
					"type": "bytes"
				}
			],
			"stateMutability": "view",
			"type": "function"
		},
		{
			"inputs": [],
			"name": "txValue",
			"outputs": [
				{
					"internalType": "bytes32",
					"name": "",
					"type": "bytes32"
				}
			],
			"stateMutability": "view",
			"type": "function"
		}
	]
}