{
	"data": {
		"bytecode": {
			"linkReferences": {},
			"object": "60806040526040518060400160405280601081526020017f566572757344656661756c7448617368000000000000000000000000000000008152506001908051906020019062000051929190620000d1565b503480156200005f57600080fd5b506040516200006e9062000168565b604051809103906000f0801580156200008b573d6000803e3d6000fd5b506000806101000a81548173ffffffffffffffffffffffffffffffffffffffff021916908373ffffffffffffffffffffffffffffffffffffffff16021790555062000195565b828054600181600116156101000203166002900490600052602060002090601f01602090048101928262000109576000855562000155565b82601f106200012457805160ff191683800117855562000155565b8280016001018555821562000155579182015b828111156200015457825182559160200191906001019062000137565b5b50905062000164919062000176565b5090565b61303a806200116c83390190565b5b808211156200019157600081600090555060010162000177565b5090565b610fc780620001a56000396000f3fe608060405234801561001057600080fd5b506004361061007d5760003560e01c8063bfe370d91161005b578063bfe370d914610112578063c984bae814610142578063e56e814b14610172578063fe5320bf146101a25761007d565b80632cd0cff2146100825780632f0da104146100b257806395c12f53146100e2575b600080fd5b61009c60048036038101906100979190610a14565b6101d2565b6040516100a99190610ceb565b60405180910390f35b6100cc60048036038101906100c791906109eb565b610281565b6040516100d99190610ceb565b60405180910390f35b6100fc60048036038101906100f79190610b15565b610400565b6040516101099190610ceb565b60405180910390f35b61012c60048036038101906101279190610a14565b6105d8565b6040516101399190610ceb565b60405180910390f35b61015c60048036038101906101579190610aa9565b610602565b6040516101699190610d06565b60405180910390f35b61018c60048036038101906101879190610a55565b6107a8565b6040516101999190610ceb565b60405180910390f35b6101bc60048036038101906101b79190610aa9565b610857565b6040516101c99190610ceb565b60405180910390f35b600061027a8260018054600181600116156101000203166002900480601f01602080910402602001604051908101604052809291908181526020018280546001816001161561010002031660029004801561026e5780601f106102435761010080835404028352916020019161026e565b820191906000526020600020905b81548152906001019060200180831161025157829003601f168201915b50505050506000610400565b9050919050565b600080600090505b60208160ff161080156102d45750600060f81b838260ff16602081106102ab57fe5b1a60f81b7effffffffffffffffffffffffffffffffffffffffffffffffffffffffffffff191614155b156102e6578080600101915050610289565b60008160ff1667ffffffffffffffff8111801561030257600080fd5b506040519080825280601f01601f1916602001820160405280156103355781602001600182028036833780820191505090505b509050600091505b60208260ff161080156103885750600060f81b848360ff166020811061035f57fe5b1a60f81b7effffffffffffffffffffffffffffffffffffffffffffffffffffffffffffff191614155b156103ee578382601f0360ff166020811061039f57fe5b1a60f81b818360ff16815181106103b257fe5b60200101907effffffffffffffffffffffffffffffffffffffffffffffffffffffffffffff1916908160001a905350818060010192505061033d565b6103f7816105d8565b92505050919050565b600061040a61086d565b60008560405160200161041d9190610c42565b604051602081830303815290604052905060608060008054906101000a900473ffffffffffffffffffffffffffffffffffffffff1673ffffffffffffffffffffffffffffffffffffffff16631e0924238484848b60206040518663ffffffff1660e01b8152600401610493959493929190610d28565b61010060405180830381600087803b1580156104ae57600080fd5b505af11580156104c2573d6000803e3d6000fd5b505050506040513d601f19601f820116820180604052508101906104e691906109c1565b93506000846000600881106104f757fe5b60200201518560016008811061050957fe5b60200201518660026008811061051b57fe5b60200201518760036008811061052d57fe5b60200201518860046008811061053f57fe5b60200201518960056008811061055157fe5b60200201518a60066008811061056357fe5b60200201518b60076008811061057557fe5b6020020151604051602001610591989796959493929190610c59565b604051602081830303815290604052905060006105ad826105d8565b90506001151588151514156105c8576105c581610281565b90505b8096505050505050509392505050565b6000808290506000815114156105f4576000801b9150506105fd565b60208301519150505b919050565b606061060c61086d565b60008460405160200161061f9190610c42565b604051602081830303815290604052905060008054906101000a900473ffffffffffffffffffffffffffffffffffffffff1673ffffffffffffffffffffffffffffffffffffffff1663d299dac08286604080518463ffffffff1660e01b815260040161068d93929190610d97565b61010060405180830381600087803b1580156106a857600080fd5b505af11580156106bc573d6000803e3d6000fd5b505050506040513d601f19601f820116820180604052508101906106e091906109c1565b91506000826000600881106106f157fe5b60200201518360016008811061070357fe5b60200201518460026008811061071557fe5b60200201518560036008811061072757fe5b60200201518660046008811061073957fe5b60200201518760056008811061074b57fe5b60200201518860066008811061075d57fe5b60200201518960076008811061076f57fe5b602002015160405160200161078b989796959493929190610c59565b604051602081830303815290604052905080935050505092915050565b600061084f8360018054600181600116156101000203166002900480601f0160208091040260200160405190810160405280929190818152602001828054600181600116156101000203166002900480156108445780601f1061081957610100808354040283529160200191610844565b820191906000526020600020905b81548152906001019060200180831161082757829003601f168201915b505050505084610400565b905092915050565b600061086583836000610400565b905092915050565b604051806101000160405280600890602082028036833780820191505090505090565b60006108a361089e84610e0d565b610ddc565b905080828560208602820111156108b957600080fd5b60005b858110156108e957816108cf88826109ac565b8452602084019350602083019250506001810190506108bc565b5050509392505050565b600061090661090184610e33565b610ddc565b90508281526020810184848401111561091e57600080fd5b610929848285610ed8565b509392505050565b600082601f83011261094257600080fd5b600861094f848285610890565b91505092915050565b60008135905061096781610f4c565b92915050565b60008135905061097c81610f63565b92915050565b600082601f83011261099357600080fd5b81356109a38482602086016108f3565b91505092915050565b6000815190506109bb81610f7a565b92915050565b600061010082840312156109d457600080fd5b60006109e284828501610931565b91505092915050565b6000602082840312156109fd57600080fd5b6000610a0b8482850161096d565b91505092915050565b600060208284031215610a2657600080fd5b600082013567ffffffffffffffff811115610a4057600080fd5b610a4c84828501610982565b91505092915050565b60008060408385031215610a6857600080fd5b600083013567ffffffffffffffff811115610a8257600080fd5b610a8e85828601610982565b9250506020610a9f85828601610958565b9150509250929050565b60008060408385031215610abc57600080fd5b600083013567ffffffffffffffff811115610ad657600080fd5b610ae285828601610982565b925050602083013567ffffffffffffffff811115610aff57600080fd5b610b0b85828601610982565b9150509250929050565b600080600060608486031215610b2a57600080fd5b600084013567ffffffffffffffff811115610b4457600080fd5b610b5086828701610982565b935050602084013567ffffffffffffffff811115610b6d57600080fd5b610b7986828701610982565b9250506040610b8a86828701610958565b9150509250925092565b610b9d81610e96565b82525050565b6000610bae82610e63565b610bb88185610e6e565b9350610bc8818560208601610ee7565b610bd181610f2e565b840191505092915050565b6000610be782610e63565b610bf18185610e7f565b9350610c01818560208601610ee7565b80840191505092915050565b610c1681610eb4565b82525050565b610c2581610ec6565b82525050565b610c3c610c3782610ea0565b610f1a565b82525050565b6000610c4e8284610bdc565b915081905092915050565b6000610c65828b610c2b565b600882019150610c75828a610c2b565b600882019150610c858289610c2b565b600882019150610c958288610c2b565b600882019150610ca58287610c2b565b600882019150610cb58286610c2b565b600882019150610cc58285610c2b565b600882019150610cd58284610c2b565b6008820191508190509998505050505050505050565b6000602082019050610d006000830184610b94565b92915050565b60006020820190508181036000830152610d208184610ba3565b905092915050565b600060a0820190508181036000830152610d428188610ba3565b90508181036020830152610d568187610ba3565b90508181036040830152610d6a8186610ba3565b90508181036060830152610d7e8185610ba3565b9050610d8d6080830184610c0d565b9695505050505050565b60006060820190508181036000830152610db18186610ba3565b90508181036020830152610dc58185610ba3565b9050610dd46040830184610c1c565b949350505050565b6000604051905081810181811067ffffffffffffffff82111715610e0357610e02610f2c565b5b8060405250919050565b600067ffffffffffffffff821115610e2857610e27610f2c565b5b602082029050919050565b600067ffffffffffffffff821115610e4e57610e4d610f2c565b5b601f19601f8301169050602081019050919050565b600081519050919050565b600082825260208201905092915050565b600081905092915050565b60008115159050919050565b6000819050919050565b600067ffffffffffffffff82169050919050565b6000610ebf82610ea0565b9050919050565b6000610ed182610ea0565b9050919050565b82818337600083830152505050565b60005b83811015610f05578082015181840152602081019050610eea565b83811115610f14576000848401525b50505050565b6000610f2582610f3f565b9050919050565bfe5b6000601f19601f8301169050919050565b60008160c01b9050919050565b610f5581610e8a565b8114610f6057600080fd5b50565b610f6c81610e96565b8114610f7757600080fd5b50565b610f8381610ea0565b8114610f8e57600080fd5b5056fea2646970667358221220f2ec6688682775b2676d7c0a632257aa7b47fd587d259468411d6c3d5fc6535364736f6c634300070600336080604052604051806101000160405280676a09e667f3bcc90867ffffffffffffffff16815260200167bb67ae8584caa73b67ffffffffffffffff168152602001673c6ef372fe94f82b67ffffffffffffffff16815260200167a54ff53a5f1d36f167ffffffffffffffff16815260200167510e527fade682d167ffffffffffffffff168152602001679b05688c2b3e6c1f67ffffffffffffffff168152602001671f83d9abfb41bd6b67ffffffffffffffff168152602001675be0cd19137e217967ffffffffffffffff168152506000906008620000e0929190620000f5565b50348015620000ee57600080fd5b50620001ca565b826008600301600490048101928215620001985791602002820160005b838211156200016057835183826101000a81548167ffffffffffffffff021916908367ffffffffffffffff160217905550926020019260080160208160070104928301926001030262000112565b8015620001965782816101000a81549067ffffffffffffffff021916905560080160208160070104928301926001030262000160565b505b509050620001a79190620001ab565b5090565b5b80821115620001c6576000816000905550600101620001ac565b5090565b612e6080620001da6000396000f3fe608060405234801561001057600080fd5b50600436106100935760003560e01c8063d299dac011610066578063d299dac014610515578063df459019146106b7578063f23525ec1461075a578063fa2acd87146107a6578063fb72d24e1461085d57610093565b80631e09242314610098578063217311ac146103685780637ac0b1e3146103be578063bf187478146104b5575b600080fd5b61032a600480360360a08110156100ae57600080fd5b81019080803590602001906401000000008111156100cb57600080fd5b8201836020820111156100dd57600080fd5b803590602001918460018302840111640100000000831117156100ff57600080fd5b91908080601f016020809104026020016040519081016040528093929190818152602001838380828437600081840152601f19601f8201169050808301925050505050505091929192908035906020019064010000000081111561016257600080fd5b82018360208201111561017457600080fd5b8035906020019184600183028401116401000000008311171561019657600080fd5b91908080601f016020809104026020016040519081016040528093929190818152602001838380828437600081840152601f19601f820116905080830192505050505050509192919290803590602001906401000000008111156101f957600080fd5b82018360208201111561020b57600080fd5b8035906020019184600183028401116401000000008311171561022d57600080fd5b91908080601f016020809104026020016040519081016040528093929190818152602001838380828437600081840152601f19601f8201169050808301925050505050505091929192908035906020019064010000000081111561029057600080fd5b8201836020820111156102a257600080fd5b803590602001918460018302840111640100000000831117156102c457600080fd5b91908080601f016020809104026020016040519081016040528093929190818152602001838380828437600081840152601f19601f820116905080830192505050505050509192919290803567ffffffffffffffff1690602001909291905050506108bd565b6040518082600860200280838360005b8381101561035557808201518184015260208101905061033a565b5050505090500191505060405180910390f35b61039e6004803603602081101561037e57600080fd5b81019080803567ffffffffffffffff169060200190929190505050610973565b604051808267ffffffffffffffff16815260200191505060405180910390f35b610477600480360360208110156103d457600080fd5b81019080803590602001906401000000008111156103f157600080fd5b82018360208201111561040357600080fd5b8035906020019184600183028401116401000000008311171561042557600080fd5b91908080601f016020809104026020016040519081016040528093929190818152602001838380828437600081840152601f19601f820116905080830192505050505050509192919290505050610a63565b6040518082600260200280838360005b838110156104a2578082015181840152602081019050610487565b5050505090500191505060405180910390f35b6104f5600480360360408110156104cb57600080fd5b81019080803567ffffffffffffffff16906020019092919080359060200190929190505050610ba0565b604051808267ffffffffffffffff16815260200191505060405180910390f35b6106796004803603606081101561052b57600080fd5b810190808035906020019064010000000081111561054857600080fd5b82018360208201111561055a57600080fd5b8035906020019184600183028401116401000000008311171561057c57600080fd5b91908080601f016020809104026020016040519081016040528093929190818152602001838380828437600081840152601f19601f820116905080830192505050505050509192919290803590602001906401000000008111156105df57600080fd5b8201836020820111156105f157600080fd5b8035906020019184600183028401116401000000008311171561061357600080fd5b91908080601f016020809104026020016040519081016040528093929190818152602001838380828437600081840152601f19601f820116905080830192505050505050509192919290803567ffffffffffffffff169060200190929190505050610bcc565b6040518082600860200280838360005b838110156106a4578082015181840152602081019050610689565b5050505090500191505060405180910390f35b61071c60048036036101008110156106ce57600080fd5b810190808061010001906008806020026040519081016040528092919082600860200280828437600081840152601f19601f8201169050808301925050505050509192919290505050610c08565b6040518082600260200280838360005b8381101561074757808201518184015260208101905061072c565b5050505090500191505060405180910390f35b6107866004803603602081101561077057600080fd5b8101908080359060200190929190505050610ca9565b604051808267ffffffffffffffff16815260200191505060405180910390f35b61085b60048036036102c08110156107bd57600080fd5b810190808061020001906010806020026040519081016040528092919082601060200280828437600081840152601f19601f820116905080830192505050505050919291929080359060200190929190803590602001909291908035906020019092919080359060200190929190803567ffffffffffffffff169060200190929190803567ffffffffffffffff169060200190929190505050610cdd565b005b61089d6004803603604081101561087357600080fd5b81019080803567ffffffffffffffff16906020019092919080359060200190929190505050610eb1565b604051808267ffffffffffffffff16815260200191505060405180910390f35b6108c5612cf9565b6108cd612d1c565b6108d5612cf9565b6108f28285896108e48a610a63565b6108ed8a610a63565b610ed2565b6108fc82896111dd565b61090682826112ef565b7fde1a9fb355752f7765552010c12ee02e62eaa7b0502f3088e6b5398ce8686a38816040518082600860200280838360005b83811015610953578082015181840152602081019050610938565b5050505090500191505060405180910390a1809250505095945050505050565b600067010000000000000060ff8316026501000000000061ff00841602630100000062ff000085160261010063ff00000086160261010067ffffffffffffffff1664ff00000000871667ffffffffffffffff16816109cd57fe5b04630100000067ffffffffffffffff1665ff0000000000881667ffffffffffffffff16816109f757fe5b046501000000000067ffffffffffffffff1666ff000000000000891667ffffffffffffffff1681610a2457fe5b0467010000000000000067ffffffffffffffff1667ff000000000000008a1667ffffffffffffffff1681610a5457fe5b04181818181818189050919050565b610a6b612d73565b60005b8251811015610b0e57610ab0838281518110610a8657fe5b602001015160f81c60f81b60f81c60ff16600160088481610aa357fe5b0601600802604003610ba0565b8260088381610abb57fe5b0460028110610ac657fe5b6020020151188260088381610ad757fe5b0460028110610ae257fe5b602002019067ffffffffffffffff16908167ffffffffffffffff16815250508080600101915050610a6e565b50610b2981600060028110610b1f57fe5b6020020151610973565b81600060028110610b3657fe5b602002019067ffffffffffffffff16908167ffffffffffffffff1681525050610b6f81600160028110610b6557fe5b6020020151610973565b81600160028110610b7c57fe5b602002019067ffffffffffffffff16908167ffffffffffffffff1681525050919050565b6000680100000000000000008260020a8467ffffffffffffffff160281610bc357fe5b06905092915050565b610bd4612cf9565b610bff84846040518060200160405280600081525060405180602001604052806000815250866108bd565b90509392505050565b610c10612d95565b610c18612d95565b60005b6008811015610c9f5760048181610c2e57fe5b0660030360400260020a848260088110610c4457fe5b602002015167ffffffffffffffff160260001b8260048381610c6257fe5b0460028110610c6d57fe5b6020020151188260048381610c7e57fe5b0460028110610c8957fe5b6020020181815250508080600101915050610c1b565b5080915050919050565b60008160088110610cb957600080fd5b60049182820401919006600802915054906101000a900467ffffffffffffffff1681565b6000878760108110610ceb57fe5b602002015190506000888760108110610d0057fe5b602002015190506000898760108110610d1557fe5b6020020151905060008a8760108110610d2a57fe5b60200201519050680100000000000000008684860108935068010000000000000000640100000000858318096401000000008583180418905068010000000000000000818308915068010000000000000000650100000000008385180963010000008385180418925068010000000000000000858486010893506801000000000000000066010000000000008583180962010000858318041890506801000000000000000081830891506801000000000000000060028385180967800000000000000083851804189250838b8b60108110610e0157fe5b602002019067ffffffffffffffff16908167ffffffffffffffff1681525050828b8a60108110610e2d57fe5b602002019067ffffffffffffffff16908167ffffffffffffffff1681525050818b8960108110610e5957fe5b602002019067ffffffffffffffff16908167ffffffffffffffff1681525050808b8860108110610e8557fe5b602002019067ffffffffffffffff16908167ffffffffffffffff16815250505050505050505050505050565b60008160020a8367ffffffffffffffff1681610ec957fe5b04905092915050565b60008467ffffffffffffffff161480610ef5575060408467ffffffffffffffff16115b80610f01575060408351115b15610f57576040517f08c379a000000000000000000000000000000000000000000000000000000000815260040180806020018281038252602e815260200180612dfd602e913960400191505060405180910390fd5b60005b6008811015610fcc5760008160088110610f7057fe5b600491828204019190066008029054906101000a900467ffffffffffffffff1686602001518260088110610fa057fe5b602002019067ffffffffffffffff16908167ffffffffffffffff16815250508080600101915050610f5a565b5083610fda84516008610ba0565b63010100008760200151600060088110610ff057fe5b6020020151181818856020015160006008811061100957fe5b602002019067ffffffffffffffff16908167ffffffffffffffff16815250508160006002811061103557fe5b6020020151856020015160046008811061104b57fe5b602002015118856020015160046008811061106257fe5b602002019067ffffffffffffffff16908167ffffffffffffffff16815250508160016002811061108e57fe5b602002015185602001516005600881106110a457fe5b60200201511885602001516005600881106110bb57fe5b602002019067ffffffffffffffff16908167ffffffffffffffff1681525050806000600281106110e757fe5b602002015185602001516006600881106110fd57fe5b602002015118856020015160066008811061111457fe5b602002019067ffffffffffffffff16908167ffffffffffffffff16815250508060016002811061114057fe5b6020020151856020015160076008811061115657fe5b602002015118856020015160076008811061116d57fe5b602002019067ffffffffffffffff16908167ffffffffffffffff16815250508367ffffffffffffffff168560800181815250506000835111156111d6576111b485846111dd565b6080856060019067ffffffffffffffff16908167ffffffffffffffff16815250505b5050505050565b60005b81518110156112ea576080836060015167ffffffffffffffff16141561127d57826060015167ffffffffffffffff1683604001818151019150906fffffffffffffffffffffffffffffffff1690816fffffffffffffffffffffffffffffffff168152505061124f83600061144c565b61125a836000612b9d565b506000836060019067ffffffffffffffff16908167ffffffffffffffff16815250505b600083606001805180919060010167ffffffffffffffff1667ffffffffffffffff1681525067ffffffffffffffff16905060008460000151905060008484815181106112c557fe5b602001015160f81c60f81b60f81c9050808383015350505080806001019150506111e0565b505050565b816060015167ffffffffffffffff1682604001818151019150906fffffffffffffffffffffffffffffffff1690816fffffffffffffffffffffffffffffffff168152505061133e82600161144c565b611349826001612b9d565b5060005b600883608001518161135b57fe5b048110156113b8576113808360200151826008811061137657fe5b6020020151610973565b82826008811061138c57fe5b602002019067ffffffffffffffff16908167ffffffffffffffff1681525050808060010191505061134d565b506040826080015110156114485761140e6113f4836020015160088560800151816113df57fe5b04600881106113ea57fe5b6020020151610973565b600884608001518161140257fe5b06600802604003610eb1565b81600884608001518161141d57fe5b046008811061142857fe5b602002019067ffffffffffffffff16908167ffffffffffffffff16815250505b5050565b611454612db7565b61145c612db7565b60005b6008811015611510578460200151816008811061147857fe5b602002015183826010811061148957fe5b602002019067ffffffffffffffff16908167ffffffffffffffff1681525050600081600881106114b557fe5b600491828204019190066008029054906101000a900467ffffffffffffffff168360088301601081106114e457fe5b602002019067ffffffffffffffff16908167ffffffffffffffff1681525050808060010191505061145f565b506801000000000000000084604001516fffffffffffffffffffffffffffffffff168161153957fe5b0682600c6010811061154757fe5b60200201511882600c6010811061155a57fe5b602002019067ffffffffffffffff16908167ffffffffffffffff16815250506801000000000000000084604001516fffffffffffffffffffffffffffffffff16816115a157fe5b0482600d601081106115af57fe5b60200201511882600d601081106115c257fe5b602002019067ffffffffffffffff16908167ffffffffffffffff168152505082156116275781600e601081106115f457fe5b60200201511982600e6010811061160757fe5b602002019067ffffffffffffffff16908167ffffffffffffffff16815250505b60008060005b60108110156116ce5760006004828161164257fe5b0690506000935060008114156116745787600001516004838161166157fe5b046004811061166c57fe5b602002015192505b67ffffffffffffffff8160030360400260020a840416935061169584610973565b8583601081106116a157fe5b602002019067ffffffffffffffff16908167ffffffffffffffff168152505050808060010191505061162d565b5061170484600060046008600c886000601081106116e857fe5b6020020151896001601081106116fa57fe5b6020020151610cdd565b61173984600160056009600d8860026010811061171d57fe5b60200201518960036010811061172f57fe5b6020020151610cdd565b61176e8460026006600a600e8860046010811061175257fe5b60200201518960056010811061176457fe5b6020020151610cdd565b6117a38460036007600b600f8860066010811061178757fe5b60200201518960076010811061179957fe5b6020020151610cdd565b6117d88460006005600a600f886008601081106117bc57fe5b6020020151896009601081106117ce57fe5b6020020151610cdd565b61180d8460016006600b600c88600a601081106117f157fe5b602002015189600b6010811061180357fe5b6020020151610cdd565b61184284600260076008600d88600c6010811061182657fe5b602002015189600d6010811061183857fe5b6020020151610cdd565b61187784600360046009600e88600e6010811061185b57fe5b602002015189600f6010811061186d57fe5b6020020151610cdd565b6118ac84600060046008600c88600e6010811061189057fe5b602002015189600a601081106118a257fe5b6020020151610cdd565b6118e184600160056009600d886004601081106118c557fe5b6020020151896008601081106118d757fe5b6020020151610cdd565b6119168460026006600a600e886009601081106118fa57fe5b602002015189600f6010811061190c57fe5b6020020151610cdd565b61194b8460036007600b600f88600d6010811061192f57fe5b60200201518960066010811061194157fe5b6020020151610cdd565b6119808460006005600a600f8860016010811061196457fe5b602002015189600c6010811061197657fe5b6020020151610cdd565b6119b58460016006600b600c8860006010811061199957fe5b6020020151896002601081106119ab57fe5b6020020151610cdd565b6119ea84600260076008600d88600b601081106119ce57fe5b6020020151896007601081106119e057fe5b6020020151610cdd565b611a1f84600360046009600e88600560108110611a0357fe5b602002015189600360108110611a1557fe5b6020020151610cdd565b611a5484600060046008600c88600b60108110611a3857fe5b602002015189600860108110611a4a57fe5b6020020151610cdd565b611a8984600160056009600d88600c60108110611a6d57fe5b602002015189600060108110611a7f57fe5b6020020151610cdd565b611abe8460026006600a600e88600560108110611aa257fe5b602002015189600260108110611ab457fe5b6020020151610cdd565b611af38460036007600b600f88600f60108110611ad757fe5b602002015189600d60108110611ae957fe5b6020020151610cdd565b611b288460006005600a600f88600a60108110611b0c57fe5b602002015189600e60108110611b1e57fe5b6020020151610cdd565b611b5d8460016006600b600c88600360108110611b4157fe5b602002015189600660108110611b5357fe5b6020020151610cdd565b611b9284600260076008600d88600760108110611b7657fe5b602002015189600160108110611b8857fe5b6020020151610cdd565b611bc784600360046009600e88600960108110611bab57fe5b602002015189600460108110611bbd57fe5b6020020151610cdd565b611bfc84600060046008600c88600760108110611be057fe5b602002015189600960108110611bf257fe5b6020020151610cdd565b611c3184600160056009600d88600360108110611c1557fe5b602002015189600160108110611c2757fe5b6020020151610cdd565b611c668460026006600a600e88600d60108110611c4a57fe5b602002015189600c60108110611c5c57fe5b6020020151610cdd565b611c9b8460036007600b600f88600b60108110611c7f57fe5b602002015189600e60108110611c9157fe5b6020020151610cdd565b611cd08460006005600a600f88600260108110611cb457fe5b602002015189600660108110611cc657fe5b6020020151610cdd565b611d058460016006600b600c88600560108110611ce957fe5b602002015189600a60108110611cfb57fe5b6020020151610cdd565b611d3a84600260076008600d88600460108110611d1e57fe5b602002015189600060108110611d3057fe5b6020020151610cdd565b611d6f84600360046009600e88600f60108110611d5357fe5b602002015189600860108110611d6557fe5b6020020151610cdd565b611da484600060046008600c88600960108110611d8857fe5b602002015189600060108110611d9a57fe5b6020020151610cdd565b611dd984600160056009600d88600560108110611dbd57fe5b602002015189600760108110611dcf57fe5b6020020151610cdd565b611e0e8460026006600a600e88600260108110611df257fe5b602002015189600460108110611e0457fe5b6020020151610cdd565b611e438460036007600b600f88600a60108110611e2757fe5b602002015189600f60108110611e3957fe5b6020020151610cdd565b611e788460006005600a600f88600e60108110611e5c57fe5b602002015189600160108110611e6e57fe5b6020020151610cdd565b611ead8460016006600b600c88600b60108110611e9157fe5b602002015189600c60108110611ea357fe5b6020020151610cdd565b611ee284600260076008600d88600660108110611ec657fe5b602002015189600860108110611ed857fe5b6020020151610cdd565b611f1784600360046009600e88600360108110611efb57fe5b602002015189600d60108110611f0d57fe5b6020020151610cdd565b611f4c84600060046008600c88600260108110611f3057fe5b602002015189600c60108110611f4257fe5b6020020151610cdd565b611f8184600160056009600d88600660108110611f6557fe5b602002015189600a60108110611f7757fe5b6020020151610cdd565b611fb68460026006600a600e88600060108110611f9a57fe5b602002015189600b60108110611fac57fe5b6020020151610cdd565b611feb8460036007600b600f88600860108110611fcf57fe5b602002015189600360108110611fe157fe5b6020020151610cdd565b6120208460006005600a600f8860046010811061200457fe5b602002015189600d6010811061201657fe5b6020020151610cdd565b6120558460016006600b600c8860076010811061203957fe5b60200201518960056010811061204b57fe5b6020020151610cdd565b61208a84600260076008600d88600f6010811061206e57fe5b602002015189600e6010811061208057fe5b6020020151610cdd565b6120bf84600360046009600e886001601081106120a357fe5b6020020151896009601081106120b557fe5b6020020151610cdd565b6120f484600060046008600c88600c601081106120d857fe5b6020020151896005601081106120ea57fe5b6020020151610cdd565b61212984600160056009600d8860016010811061210d57fe5b602002015189600f6010811061211f57fe5b6020020151610cdd565b61215e8460026006600a600e88600e6010811061214257fe5b602002015189600d6010811061215457fe5b6020020151610cdd565b6121938460036007600b600f8860046010811061217757fe5b602002015189600a6010811061218957fe5b6020020151610cdd565b6121c88460006005600a600f886000601081106121ac57fe5b6020020151896007601081106121be57fe5b6020020151610cdd565b6121fd8460016006600b600c886006601081106121e157fe5b6020020151896003601081106121f357fe5b6020020151610cdd565b61223284600260076008600d8860096010811061221657fe5b60200201518960026010811061222857fe5b6020020151610cdd565b61226784600360046009600e8860086010811061224b57fe5b602002015189600b6010811061225d57fe5b6020020151610cdd565b61229c84600060046008600c88600d6010811061228057fe5b602002015189600b6010811061229257fe5b6020020151610cdd565b6122d184600160056009600d886007601081106122b557fe5b602002015189600e601081106122c757fe5b6020020151610cdd565b6123068460026006600a600e88600c601081106122ea57fe5b6020020151896001601081106122fc57fe5b6020020151610cdd565b61233b8460036007600b600f8860036010811061231f57fe5b60200201518960096010811061233157fe5b6020020151610cdd565b6123708460006005600a600f8860056010811061235457fe5b60200201518960006010811061236657fe5b6020020151610cdd565b6123a58460016006600b600c88600f6010811061238957fe5b60200201518960046010811061239b57fe5b6020020151610cdd565b6123da84600260076008600d886008601081106123be57fe5b6020020151896006601081106123d057fe5b6020020151610cdd565b61240f84600360046009600e886002601081106123f357fe5b602002015189600a6010811061240557fe5b6020020151610cdd565b61244484600060046008600c8860066010811061242857fe5b602002015189600f6010811061243a57fe5b6020020151610cdd565b61247984600160056009600d88600e6010811061245d57fe5b60200201518960096010811061246f57fe5b6020020151610cdd565b6124ae8460026006600a600e88600b6010811061249257fe5b6020020151896003601081106124a457fe5b6020020151610cdd565b6124e38460036007600b600f886000601081106124c757fe5b6020020151896008601081106124d957fe5b6020020151610cdd565b6125188460006005600a600f88600c601081106124fc57fe5b60200201518960026010811061250e57fe5b6020020151610cdd565b61254d8460016006600b600c88600d6010811061253157fe5b60200201518960076010811061254357fe5b6020020151610cdd565b61258284600260076008600d8860016010811061256657fe5b60200201518960046010811061257857fe5b6020020151610cdd565b6125b784600360046009600e88600a6010811061259b57fe5b6020020151896005601081106125ad57fe5b6020020151610cdd565b6125ec84600060046008600c88600a601081106125d057fe5b6020020151896002601081106125e257fe5b6020020151610cdd565b61262184600160056009600d8860086010811061260557fe5b60200201518960046010811061261757fe5b6020020151610cdd565b6126568460026006600a600e8860076010811061263a57fe5b60200201518960066010811061264c57fe5b6020020151610cdd565b61268b8460036007600b600f8860016010811061266f57fe5b60200201518960056010811061268157fe5b6020020151610cdd565b6126c08460006005600a600f88600f601081106126a457fe5b602002015189600b601081106126b657fe5b6020020151610cdd565b6126f58460016006600b600c886009601081106126d957fe5b602002015189600e601081106126eb57fe5b6020020151610cdd565b61272a84600260076008600d8860036010811061270e57fe5b602002015189600c6010811061272057fe5b6020020151610cdd565b61275f84600360046009600e88600d6010811061274357fe5b60200201518960006010811061275557fe5b6020020151610cdd565b61279484600060046008600c8860006010811061277857fe5b60200201518960016010811061278a57fe5b6020020151610cdd565b6127c984600160056009600d886002601081106127ad57fe5b6020020151896003601081106127bf57fe5b6020020151610cdd565b6127fe8460026006600a600e886004601081106127e257fe5b6020020151896005601081106127f457fe5b6020020151610cdd565b6128338460036007600b600f8860066010811061281757fe5b60200201518960076010811061282957fe5b6020020151610cdd565b6128688460006005600a600f8860086010811061284c57fe5b60200201518960096010811061285e57fe5b6020020151610cdd565b61289d8460016006600b600c88600a6010811061288157fe5b602002015189600b6010811061289357fe5b6020020151610cdd565b6128d284600260076008600d88600c601081106128b657fe5b602002015189600d601081106128c857fe5b6020020151610cdd565b61290784600360046009600e88600e601081106128eb57fe5b602002015189600f601081106128fd57fe5b6020020151610cdd565b61293c84600060046008600c88600e6010811061292057fe5b602002015189600a6010811061293257fe5b6020020151610cdd565b61297184600160056009600d8860046010811061295557fe5b60200201518960086010811061296757fe5b6020020151610cdd565b6129a68460026006600a600e8860096010811061298a57fe5b602002015189600f6010811061299c57fe5b6020020151610cdd565b6129db8460036007600b600f88600d601081106129bf57fe5b6020020151896006601081106129d157fe5b6020020151610cdd565b612a108460006005600a600f886001601081106129f457fe5b602002015189600c60108110612a0657fe5b6020020151610cdd565b612a458460016006600b600c88600060108110612a2957fe5b602002015189600260108110612a3b57fe5b6020020151610cdd565b612a7a84600260076008600d88600b60108110612a5e57fe5b602002015189600760108110612a7057fe5b6020020151610cdd565b612aaf84600360046009600e88600560108110612a9357fe5b602002015189600360108110612aa557fe5b6020020151610cdd565b60005b6008811015612b3157846008820160108110612aca57fe5b6020020151858260108110612adb57fe5b602002015188602001518360088110612af057fe5b6020020151181887602001518260088110612b0757fe5b602002019067ffffffffffffffff16908167ffffffffffffffff1681525050806001019050612ab2565b507f999c4803e6e6345f2b927481896462f9436785c8f60b07321e015c4f4ee713cf86602001516040518082600860200280838360005b83811015612b83578082015181840152602081019050612b68565b5050505090500191505060405180910390a1505050505050565b612ba5612d95565b6000600c9050612bb3612d95565b60008286602001518760000151886040015188604051602001808663ffffffff1660e01b815260040185600860200280838360005b83811015612c03578082015181840152602081019050612be8565b5050505090500184600460200280838360005b83811015612c31578082015181840152602081019050612c16565b50505050905001836fffffffffffffffffffffffffffffffff1660801b815260100182151560f81b815260010195505050505050604051602081830303815290604052905060408260d5602084016009600019fa612c8e57600080fd5b7f2c67edbc4c4588b6df5c180dd391c50a232ed0d2272cb0553d26e4950c3b2fd2826040518082600260200280838360005b83811015612cdb578082015181840152602081019050612cc0565b5050505090500191505060405180910390a181935050505092915050565b604051806101000160405280600890602082028036833780820191505090505090565b6040518060a00160405280612d2f612dda565b8152602001612d3c612cf9565b815260200160006fffffffffffffffffffffffffffffffff168152602001600067ffffffffffffffff168152602001600081525090565b6040518060400160405280600290602082028036833780820191505090505090565b6040518060400160405280600290602082028036833780820191505090505090565b604051806102000160405280601090602082028036833780820191505090505090565b604051806080016040528060049060208202803683378082019150509050509056fe4f75746c656e206d7573742062652067726561746572207468616e203020616e64206c657373207468616e203634a264697066735822122076ed9d1f31314c0cfecf09c2bc39f4375eeb48230ff19cbd543aa15db796f6dc64736f6c63430007060033",
			"opcodes": "PUSH1 0x80 PUSH1 0x40 MSTORE PUSH1 0x40 MLOAD DUP1 PUSH1 0x40 ADD PUSH1 0x40 MSTORE DUP1 PUSH1 0x10 DUP2 MSTORE PUSH1 0x20 ADD PUSH32 0x566572757344656661756C744861736800000000000000000000000000000000 DUP2 MSTORE POP PUSH1 0x1 SWAP1 DUP1 MLOAD SWAP1 PUSH1 0x20 ADD SWAP1 PUSH3 0x51 SWAP3 SWAP2 SWAP1 PUSH3 0xD1 JUMP JUMPDEST POP CALLVALUE DUP1 ISZERO PUSH3 0x5F JUMPI PUSH1 0x0 DUP1 REVERT JUMPDEST POP PUSH1 0x40 MLOAD PUSH3 0x6E SWAP1 PUSH3 0x168 JUMP JUMPDEST PUSH1 0x40 MLOAD DUP1 SWAP2 SUB SWAP1 PUSH1 0x0 CREATE DUP1 ISZERO DUP1 ISZERO PUSH3 0x8B JUMPI RETURNDATASIZE PUSH1 0x0 DUP1 RETURNDATACOPY RETURNDATASIZE PUSH1 0x0 REVERT JUMPDEST POP PUSH1 0x0 DUP1 PUSH2 0x100 EXP DUP2 SLOAD DUP2 PUSH20 0xFFFFFFFFFFFFFFFFFFFFFFFFFFFFFFFFFFFFFFFF MUL NOT AND SWAP1 DUP4 PUSH20 0xFFFFFFFFFFFFFFFFFFFFFFFFFFFFFFFFFFFFFFFF AND MUL OR SWAP1 SSTORE POP PUSH3 0x195 JUMP JUMPDEST DUP3 DUP1 SLOAD PUSH1 0x1 DUP2 PUSH1 0x1 AND ISZERO PUSH2 0x100 MUL SUB AND PUSH1 0x2 SWAP1 DIV SWAP1 PUSH1 0x0 MSTORE PUSH1 0x20 PUSH1 0x0 KECCAK256 SWAP1 PUSH1 0x1F ADD PUSH1 0x20 SWAP1 DIV DUP2 ADD SWAP3 DUP3 PUSH3 0x109 JUMPI PUSH1 0x0 DUP6 SSTORE PUSH3 0x155 JUMP JUMPDEST DUP3 PUSH1 0x1F LT PUSH3 0x124 JUMPI DUP1 MLOAD PUSH1 0xFF NOT AND DUP4 DUP1 ADD OR DUP6 SSTORE PUSH3 0x155 JUMP JUMPDEST DUP3 DUP1 ADD PUSH1 0x1 ADD DUP6 SSTORE DUP3 ISZERO PUSH3 0x155 JUMPI SWAP2 DUP3 ADD JUMPDEST DUP3 DUP2 GT ISZERO PUSH3 0x154 JUMPI DUP3 MLOAD DUP3 SSTORE SWAP2 PUSH1 0x20 ADD SWAP2 SWAP1 PUSH1 0x1 ADD SWAP1 PUSH3 0x137 JUMP JUMPDEST JUMPDEST POP SWAP1 POP PUSH3 0x164 SWAP2 SWAP1 PUSH3 0x176 JUMP JUMPDEST POP SWAP1 JUMP JUMPDEST PUSH2 0x303A DUP1 PUSH3 0x116C DUP4 CODECOPY ADD SWAP1 JUMP JUMPDEST JUMPDEST DUP1 DUP3 GT ISZERO PUSH3 0x191 JUMPI PUSH1 0x0 DUP2 PUSH1 0x0 SWAP1 SSTORE POP PUSH1 0x1 ADD PUSH3 0x177 JUMP JUMPDEST POP SWAP1 JUMP JUMPDEST PUSH2 0xFC7 DUP1 PUSH3 0x1A5 PUSH1 0x0 CODECOPY PUSH1 0x0 RETURN INVALID PUSH1 0x80 PUSH1 0x40 MSTORE CALLVALUE DUP1 ISZERO PUSH2 0x10 JUMPI PUSH1 0x0 DUP1 REVERT JUMPDEST POP PUSH1 0x4 CALLDATASIZE LT PUSH2 0x7D JUMPI PUSH1 0x0 CALLDATALOAD PUSH1 0xE0 SHR DUP1 PUSH4 0xBFE370D9 GT PUSH2 0x5B JUMPI DUP1 PUSH4 0xBFE370D9 EQ PUSH2 0x112 JUMPI DUP1 PUSH4 0xC984BAE8 EQ PUSH2 0x142 JUMPI DUP1 PUSH4 0xE56E814B EQ PUSH2 0x172 JUMPI DUP1 PUSH4 0xFE5320BF EQ PUSH2 0x1A2 JUMPI PUSH2 0x7D JUMP JUMPDEST DUP1 PUSH4 0x2CD0CFF2 EQ PUSH2 0x82 JUMPI DUP1 PUSH4 0x2F0DA104 EQ PUSH2 0xB2 JUMPI DUP1 PUSH4 0x95C12F53 EQ PUSH2 0xE2 JUMPI JUMPDEST PUSH1 0x0 DUP1 REVERT JUMPDEST PUSH2 0x9C PUSH1 0x4 DUP1 CALLDATASIZE SUB DUP2 ADD SWAP1 PUSH2 0x97 SWAP2 SWAP1 PUSH2 0xA14 JUMP JUMPDEST PUSH2 0x1D2 JUMP JUMPDEST PUSH1 0x40 MLOAD PUSH2 0xA9 SWAP2 SWAP1 PUSH2 0xCEB JUMP JUMPDEST PUSH1 0x40 MLOAD DUP1 SWAP2 SUB SWAP1 RETURN JUMPDEST PUSH2 0xCC PUSH1 0x4 DUP1 CALLDATASIZE SUB DUP2 ADD SWAP1 PUSH2 0xC7 SWAP2 SWAP1 PUSH2 0x9EB JUMP JUMPDEST PUSH2 0x281 JUMP JUMPDEST PUSH1 0x40 MLOAD PUSH2 0xD9 SWAP2 SWAP1 PUSH2 0xCEB JUMP JUMPDEST PUSH1 0x40 MLOAD DUP1 SWAP2 SUB SWAP1 RETURN JUMPDEST PUSH2 0xFC PUSH1 0x4 DUP1 CALLDATASIZE SUB DUP2 ADD SWAP1 PUSH2 0xF7 SWAP2 SWAP1 PUSH2 0xB15 JUMP JUMPDEST PUSH2 0x400 JUMP JUMPDEST PUSH1 0x40 MLOAD PUSH2 0x109 SWAP2 SWAP1 PUSH2 0xCEB JUMP JUMPDEST PUSH1 0x40 MLOAD DUP1 SWAP2 SUB SWAP1 RETURN JUMPDEST PUSH2 0x12C PUSH1 0x4 DUP1 CALLDATASIZE SUB DUP2 ADD SWAP1 PUSH2 0x127 SWAP2 SWAP1 PUSH2 0xA14 JUMP JUMPDEST PUSH2 0x5D8 JUMP JUMPDEST PUSH1 0x40 MLOAD PUSH2 0x139 SWAP2 SWAP1 PUSH2 0xCEB JUMP JUMPDEST PUSH1 0x40 MLOAD DUP1 SWAP2 SUB SWAP1 RETURN JUMPDEST PUSH2 0x15C PUSH1 0x4 DUP1 CALLDATASIZE SUB DUP2 ADD SWAP1 PUSH2 0x157 SWAP2 SWAP1 PUSH2 0xAA9 JUMP JUMPDEST PUSH2 0x602 JUMP JUMPDEST PUSH1 0x40 MLOAD PUSH2 0x169 SWAP2 SWAP1 PUSH2 0xD06 JUMP JUMPDEST PUSH1 0x40 MLOAD DUP1 SWAP2 SUB SWAP1 RETURN JUMPDEST PUSH2 0x18C PUSH1 0x4 DUP1 CALLDATASIZE SUB DUP2 ADD SWAP1 PUSH2 0x187 SWAP2 SWAP1 PUSH2 0xA55 JUMP JUMPDEST PUSH2 0x7A8 JUMP JUMPDEST PUSH1 0x40 MLOAD PUSH2 0x199 SWAP2 SWAP1 PUSH2 0xCEB JUMP JUMPDEST PUSH1 0x40 MLOAD DUP1 SWAP2 SUB SWAP1 RETURN JUMPDEST PUSH2 0x1BC PUSH1 0x4 DUP1 CALLDATASIZE SUB DUP2 ADD SWAP1 PUSH2 0x1B7 SWAP2 SWAP1 PUSH2 0xAA9 JUMP JUMPDEST PUSH2 0x857 JUMP JUMPDEST PUSH1 0x40 MLOAD PUSH2 0x1C9 SWAP2 SWAP1 PUSH2 0xCEB JUMP JUMPDEST PUSH1 0x40 MLOAD DUP1 SWAP2 SUB SWAP1 RETURN JUMPDEST PUSH1 0x0 PUSH2 0x27A DUP3 PUSH1 0x1 DUP1 SLOAD PUSH1 0x1 DUP2 PUSH1 0x1 AND ISZERO PUSH2 0x100 MUL SUB AND PUSH1 0x2 SWAP1 DIV DUP1 PUSH1 0x1F ADD PUSH1 0x20 DUP1 SWAP2 DIV MUL PUSH1 0x20 ADD PUSH1 0x40 MLOAD SWAP1 DUP2 ADD PUSH1 0x40 MSTORE DUP1 SWAP3 SWAP2 SWAP1 DUP2 DUP2 MSTORE PUSH1 0x20 ADD DUP3 DUP1 SLOAD PUSH1 0x1 DUP2 PUSH1 0x1 AND ISZERO PUSH2 0x100 MUL SUB AND PUSH1 0x2 SWAP1 DIV DUP1 ISZERO PUSH2 0x26E JUMPI DUP1 PUSH1 0x1F LT PUSH2 0x243 JUMPI PUSH2 0x100 DUP1 DUP4 SLOAD DIV MUL DUP4 MSTORE SWAP2 PUSH1 0x20 ADD SWAP2 PUSH2 0x26E JUMP JUMPDEST DUP3 ADD SWAP2 SWAP1 PUSH1 0x0 MSTORE PUSH1 0x20 PUSH1 0x0 KECCAK256 SWAP1 JUMPDEST DUP2 SLOAD DUP2 MSTORE SWAP1 PUSH1 0x1 ADD SWAP1 PUSH1 0x20 ADD DUP1 DUP4 GT PUSH2 0x251 JUMPI DUP3 SWAP1 SUB PUSH1 0x1F AND DUP3 ADD SWAP2 JUMPDEST POP POP POP POP POP PUSH1 0x0 PUSH2 0x400 JUMP JUMPDEST SWAP1 POP SWAP2 SWAP1 POP JUMP JUMPDEST PUSH1 0x0 DUP1 PUSH1 0x0 SWAP1 POP JUMPDEST PUSH1 0x20 DUP2 PUSH1 0xFF AND LT DUP1 ISZERO PUSH2 0x2D4 JUMPI POP PUSH1 0x0 PUSH1 0xF8 SHL DUP4 DUP3 PUSH1 0xFF AND PUSH1 0x20 DUP2 LT PUSH2 0x2AB JUMPI INVALID JUMPDEST BYTE PUSH1 0xF8 SHL PUSH31 0xFFFFFFFFFFFFFFFFFFFFFFFFFFFFFFFFFFFFFFFFFFFFFFFFFFFFFFFFFFFFFF NOT AND EQ ISZERO JUMPDEST ISZERO PUSH2 0x2E6 JUMPI DUP1 DUP1 PUSH1 0x1 ADD SWAP2 POP POP PUSH2 0x289 JUMP JUMPDEST PUSH1 0x0 DUP2 PUSH1 0xFF AND PUSH8 0xFFFFFFFFFFFFFFFF DUP2 GT DUP1 ISZERO PUSH2 0x302 JUMPI PUSH1 0x0 DUP1 REVERT JUMPDEST POP PUSH1 0x40 MLOAD SWAP1 DUP1 DUP3 MSTORE DUP1 PUSH1 0x1F ADD PUSH1 0x1F NOT AND PUSH1 0x20 ADD DUP3 ADD PUSH1 0x40 MSTORE DUP1 ISZERO PUSH2 0x335 JUMPI DUP2 PUSH1 0x20 ADD PUSH1 0x1 DUP3 MUL DUP1 CALLDATASIZE DUP4 CALLDATACOPY DUP1 DUP3 ADD SWAP2 POP POP SWAP1 POP JUMPDEST POP SWAP1 POP PUSH1 0x0 SWAP2 POP JUMPDEST PUSH1 0x20 DUP3 PUSH1 0xFF AND LT DUP1 ISZERO PUSH2 0x388 JUMPI POP PUSH1 0x0 PUSH1 0xF8 SHL DUP5 DUP4 PUSH1 0xFF AND PUSH1 0x20 DUP2 LT PUSH2 0x35F JUMPI INVALID JUMPDEST BYTE PUSH1 0xF8 SHL PUSH31 0xFFFFFFFFFFFFFFFFFFFFFFFFFFFFFFFFFFFFFFFFFFFFFFFFFFFFFFFFFFFFFF NOT AND EQ ISZERO JUMPDEST ISZERO PUSH2 0x3EE JUMPI DUP4 DUP3 PUSH1 0x1F SUB PUSH1 0xFF AND PUSH1 0x20 DUP2 LT PUSH2 0x39F JUMPI INVALID JUMPDEST BYTE PUSH1 0xF8 SHL DUP2 DUP4 PUSH1 0xFF AND DUP2 MLOAD DUP2 LT PUSH2 0x3B2 JUMPI INVALID JUMPDEST PUSH1 0x20 ADD ADD SWAP1 PUSH31 0xFFFFFFFFFFFFFFFFFFFFFFFFFFFFFFFFFFFFFFFFFFFFFFFFFFFFFFFFFFFFFF NOT AND SWAP1 DUP2 PUSH1 0x0 BYTE SWAP1 MSTORE8 POP DUP2 DUP1 PUSH1 0x1 ADD SWAP3 POP POP PUSH2 0x33D JUMP JUMPDEST PUSH2 0x3F7 DUP2 PUSH2 0x5D8 JUMP JUMPDEST SWAP3 POP POP POP SWAP2 SWAP1 POP JUMP JUMPDEST PUSH1 0x0 PUSH2 0x40A PUSH2 0x86D JUMP JUMPDEST PUSH1 0x0 DUP6 PUSH1 0x40 MLOAD PUSH1 0x20 ADD PUSH2 0x41D SWAP2 SWAP1 PUSH2 0xC42 JUMP JUMPDEST PUSH1 0x40 MLOAD PUSH1 0x20 DUP2 DUP4 SUB SUB DUP2 MSTORE SWAP1 PUSH1 0x40 MSTORE SWAP1 POP PUSH1 0x60 DUP1 PUSH1 0x0 DUP1 SLOAD SWAP1 PUSH2 0x100 EXP SWAP1 DIV PUSH20 0xFFFFFFFFFFFFFFFFFFFFFFFFFFFFFFFFFFFFFFFF AND PUSH20 0xFFFFFFFFFFFFFFFFFFFFFFFFFFFFFFFFFFFFFFFF AND PUSH4 0x1E092423 DUP5 DUP5 DUP5 DUP12 PUSH1 0x20 PUSH1 0x40 MLOAD DUP7 PUSH4 0xFFFFFFFF AND PUSH1 0xE0 SHL DUP2 MSTORE PUSH1 0x4 ADD PUSH2 0x493 SWAP6 SWAP5 SWAP4 SWAP3 SWAP2 SWAP1 PUSH2 0xD28 JUMP JUMPDEST PUSH2 0x100 PUSH1 0x40 MLOAD DUP1 DUP4 SUB DUP2 PUSH1 0x0 DUP8 DUP1 EXTCODESIZE ISZERO DUP1 ISZERO PUSH2 0x4AE JUMPI PUSH1 0x0 DUP1 REVERT JUMPDEST POP GAS CALL ISZERO DUP1 ISZERO PUSH2 0x4C2 JUMPI RETURNDATASIZE PUSH1 0x0 DUP1 RETURNDATACOPY RETURNDATASIZE PUSH1 0x0 REVERT JUMPDEST POP POP POP POP PUSH1 0x40 MLOAD RETURNDATASIZE PUSH1 0x1F NOT PUSH1 0x1F DUP3 ADD AND DUP3 ADD DUP1 PUSH1 0x40 MSTORE POP DUP2 ADD SWAP1 PUSH2 0x4E6 SWAP2 SWAP1 PUSH2 0x9C1 JUMP JUMPDEST SWAP4 POP PUSH1 0x0 DUP5 PUSH1 0x0 PUSH1 0x8 DUP2 LT PUSH2 0x4F7 JUMPI INVALID JUMPDEST PUSH1 0x20 MUL ADD MLOAD DUP6 PUSH1 0x1 PUSH1 0x8 DUP2 LT PUSH2 0x509 JUMPI INVALID JUMPDEST PUSH1 0x20 MUL ADD MLOAD DUP7 PUSH1 0x2 PUSH1 0x8 DUP2 LT PUSH2 0x51B JUMPI INVALID JUMPDEST PUSH1 0x20 MUL ADD MLOAD DUP8 PUSH1 0x3 PUSH1 0x8 DUP2 LT PUSH2 0x52D JUMPI INVALID JUMPDEST PUSH1 0x20 MUL ADD MLOAD DUP9 PUSH1 0x4 PUSH1 0x8 DUP2 LT PUSH2 0x53F JUMPI INVALID JUMPDEST PUSH1 0x20 MUL ADD MLOAD DUP10 PUSH1 0x5 PUSH1 0x8 DUP2 LT PUSH2 0x551 JUMPI INVALID JUMPDEST PUSH1 0x20 MUL ADD MLOAD DUP11 PUSH1 0x6 PUSH1 0x8 DUP2 LT PUSH2 0x563 JUMPI INVALID JUMPDEST PUSH1 0x20 MUL ADD MLOAD DUP12 PUSH1 0x7 PUSH1 0x8 DUP2 LT PUSH2 0x575 JUMPI INVALID JUMPDEST PUSH1 0x20 MUL ADD MLOAD PUSH1 0x40 MLOAD PUSH1 0x20 ADD PUSH2 0x591 SWAP9 SWAP8 SWAP7 SWAP6 SWAP5 SWAP4 SWAP3 SWAP2 SWAP1 PUSH2 0xC59 JUMP JUMPDEST PUSH1 0x40 MLOAD PUSH1 0x20 DUP2 DUP4 SUB SUB DUP2 MSTORE SWAP1 PUSH1 0x40 MSTORE SWAP1 POP PUSH1 0x0 PUSH2 0x5AD DUP3 PUSH2 0x5D8 JUMP JUMPDEST SWAP1 POP PUSH1 0x1 ISZERO ISZERO DUP9 ISZERO ISZERO EQ ISZERO PUSH2 0x5C8 JUMPI PUSH2 0x5C5 DUP2 PUSH2 0x281 JUMP JUMPDEST SWAP1 POP JUMPDEST DUP1 SWAP7 POP POP POP POP POP POP POP SWAP4 SWAP3 POP POP POP JUMP JUMPDEST PUSH1 0x0 DUP1 DUP3 SWAP1 POP PUSH1 0x0 DUP2 MLOAD EQ ISZERO PUSH2 0x5F4 JUMPI PUSH1 0x0 DUP1 SHL SWAP2 POP POP PUSH2 0x5FD JUMP JUMPDEST PUSH1 0x20 DUP4 ADD MLOAD SWAP2 POP POP JUMPDEST SWAP2 SWAP1 POP JUMP JUMPDEST PUSH1 0x60 PUSH2 0x60C PUSH2 0x86D JUMP JUMPDEST PUSH1 0x0 DUP5 PUSH1 0x40 MLOAD PUSH1 0x20 ADD PUSH2 0x61F SWAP2 SWAP1 PUSH2 0xC42 JUMP JUMPDEST PUSH1 0x40 MLOAD PUSH1 0x20 DUP2 DUP4 SUB SUB DUP2 MSTORE SWAP1 PUSH1 0x40 MSTORE SWAP1 POP PUSH1 0x0 DUP1 SLOAD SWAP1 PUSH2 0x100 EXP SWAP1 DIV PUSH20 0xFFFFFFFFFFFFFFFFFFFFFFFFFFFFFFFFFFFFFFFF AND PUSH20 0xFFFFFFFFFFFFFFFFFFFFFFFFFFFFFFFFFFFFFFFF AND PUSH4 0xD299DAC0 DUP3 DUP7 PUSH1 0x40 DUP1 MLOAD DUP5 PUSH4 0xFFFFFFFF AND PUSH1 0xE0 SHL DUP2 MSTORE PUSH1 0x4 ADD PUSH2 0x68D SWAP4 SWAP3 SWAP2 SWAP1 PUSH2 0xD97 JUMP JUMPDEST PUSH2 0x100 PUSH1 0x40 MLOAD DUP1 DUP4 SUB DUP2 PUSH1 0x0 DUP8 DUP1 EXTCODESIZE ISZERO DUP1 ISZERO PUSH2 0x6A8 JUMPI PUSH1 0x0 DUP1 REVERT JUMPDEST POP GAS CALL ISZERO DUP1 ISZERO PUSH2 0x6BC JUMPI RETURNDATASIZE PUSH1 0x0 DUP1 RETURNDATACOPY RETURNDATASIZE PUSH1 0x0 REVERT JUMPDEST POP POP POP POP PUSH1 0x40 MLOAD RETURNDATASIZE PUSH1 0x1F NOT PUSH1 0x1F DUP3 ADD AND DUP3 ADD DUP1 PUSH1 0x40 MSTORE POP DUP2 ADD SWAP1 PUSH2 0x6E0 SWAP2 SWAP1 PUSH2 0x9C1 JUMP JUMPDEST SWAP2 POP PUSH1 0x0 DUP3 PUSH1 0x0 PUSH1 0x8 DUP2 LT PUSH2 0x6F1 JUMPI INVALID JUMPDEST PUSH1 0x20 MUL ADD MLOAD DUP4 PUSH1 0x1 PUSH1 0x8 DUP2 LT PUSH2 0x703 JUMPI INVALID JUMPDEST PUSH1 0x20 MUL ADD MLOAD DUP5 PUSH1 0x2 PUSH1 0x8 DUP2 LT PUSH2 0x715 JUMPI INVALID JUMPDEST PUSH1 0x20 MUL ADD MLOAD DUP6 PUSH1 0x3 PUSH1 0x8 DUP2 LT PUSH2 0x727 JUMPI INVALID JUMPDEST PUSH1 0x20 MUL ADD MLOAD DUP7 PUSH1 0x4 PUSH1 0x8 DUP2 LT PUSH2 0x739 JUMPI INVALID JUMPDEST PUSH1 0x20 MUL ADD MLOAD DUP8 PUSH1 0x5 PUSH1 0x8 DUP2 LT PUSH2 0x74B JUMPI INVALID JUMPDEST PUSH1 0x20 MUL ADD MLOAD DUP9 PUSH1 0x6 PUSH1 0x8 DUP2 LT PUSH2 0x75D JUMPI INVALID JUMPDEST PUSH1 0x20 MUL ADD MLOAD DUP10 PUSH1 0x7 PUSH1 0x8 DUP2 LT PUSH2 0x76F JUMPI INVALID JUMPDEST PUSH1 0x20 MUL ADD MLOAD PUSH1 0x40 MLOAD PUSH1 0x20 ADD PUSH2 0x78B SWAP9 SWAP8 SWAP7 SWAP6 SWAP5 SWAP4 SWAP3 SWAP2 SWAP1 PUSH2 0xC59 JUMP JUMPDEST PUSH1 0x40 MLOAD PUSH1 0x20 DUP2 DUP4 SUB SUB DUP2 MSTORE SWAP1 PUSH1 0x40 MSTORE SWAP1 POP DUP1 SWAP4 POP POP POP POP SWAP3 SWAP2 POP POP JUMP JUMPDEST PUSH1 0x0 PUSH2 0x84F DUP4 PUSH1 0x1 DUP1 SLOAD PUSH1 0x1 DUP2 PUSH1 0x1 AND ISZERO PUSH2 0x100 MUL SUB AND PUSH1 0x2 SWAP1 DIV DUP1 PUSH1 0x1F ADD PUSH1 0x20 DUP1 SWAP2 DIV MUL PUSH1 0x20 ADD PUSH1 0x40 MLOAD SWAP1 DUP2 ADD PUSH1 0x40 MSTORE DUP1 SWAP3 SWAP2 SWAP1 DUP2 DUP2 MSTORE PUSH1 0x20 ADD DUP3 DUP1 SLOAD PUSH1 0x1 DUP2 PUSH1 0x1 AND ISZERO PUSH2 0x100 MUL SUB AND PUSH1 0x2 SWAP1 DIV DUP1 ISZERO PUSH2 0x844 JUMPI DUP1 PUSH1 0x1F LT PUSH2 0x819 JUMPI PUSH2 0x100 DUP1 DUP4 SLOAD DIV MUL DUP4 MSTORE SWAP2 PUSH1 0x20 ADD SWAP2 PUSH2 0x844 JUMP JUMPDEST DUP3 ADD SWAP2 SWAP1 PUSH1 0x0 MSTORE PUSH1 0x20 PUSH1 0x0 KECCAK256 SWAP1 JUMPDEST DUP2 SLOAD DUP2 MSTORE SWAP1 PUSH1 0x1 ADD SWAP1 PUSH1 0x20 ADD DUP1 DUP4 GT PUSH2 0x827 JUMPI DUP3 SWAP1 SUB PUSH1 0x1F AND DUP3 ADD SWAP2 JUMPDEST POP POP POP POP POP DUP5 PUSH2 0x400 JUMP JUMPDEST SWAP1 POP SWAP3 SWAP2 POP POP JUMP JUMPDEST PUSH1 0x0 PUSH2 0x865 DUP4 DUP4 PUSH1 0x0 PUSH2 0x400 JUMP JUMPDEST SWAP1 POP SWAP3 SWAP2 POP POP JUMP JUMPDEST PUSH1 0x40 MLOAD DUP1 PUSH2 0x100 ADD PUSH1 0x40 MSTORE DUP1 PUSH1 0x8 SWAP1 PUSH1 0x20 DUP3 MUL DUP1 CALLDATASIZE DUP4 CALLDATACOPY DUP1 DUP3 ADD SWAP2 POP POP SWAP1 POP POP SWAP1 JUMP JUMPDEST PUSH1 0x0 PUSH2 0x8A3 PUSH2 0x89E DUP5 PUSH2 0xE0D JUMP JUMPDEST PUSH2 0xDDC JUMP JUMPDEST SWAP1 POP DUP1 DUP3 DUP6 PUSH1 0x20 DUP7 MUL DUP3 ADD GT ISZERO PUSH2 0x8B9 JUMPI PUSH1 0x0 DUP1 REVERT JUMPDEST PUSH1 0x0 JUMPDEST DUP6 DUP2 LT ISZERO PUSH2 0x8E9 JUMPI DUP2 PUSH2 0x8CF DUP9 DUP3 PUSH2 0x9AC JUMP JUMPDEST DUP5 MSTORE PUSH1 0x20 DUP5 ADD SWAP4 POP PUSH1 0x20 DUP4 ADD SWAP3 POP POP PUSH1 0x1 DUP2 ADD SWAP1 POP PUSH2 0x8BC JUMP JUMPDEST POP POP POP SWAP4 SWAP3 POP POP POP JUMP JUMPDEST PUSH1 0x0 PUSH2 0x906 PUSH2 0x901 DUP5 PUSH2 0xE33 JUMP JUMPDEST PUSH2 0xDDC JUMP JUMPDEST SWAP1 POP DUP3 DUP2 MSTORE PUSH1 0x20 DUP2 ADD DUP5 DUP5 DUP5 ADD GT ISZERO PUSH2 0x91E JUMPI PUSH1 0x0 DUP1 REVERT JUMPDEST PUSH2 0x929 DUP5 DUP3 DUP6 PUSH2 0xED8 JUMP JUMPDEST POP SWAP4 SWAP3 POP POP POP JUMP JUMPDEST PUSH1 0x0 DUP3 PUSH1 0x1F DUP4 ADD SLT PUSH2 0x942 JUMPI PUSH1 0x0 DUP1 REVERT JUMPDEST PUSH1 0x8 PUSH2 0x94F DUP5 DUP3 DUP6 PUSH2 0x890 JUMP JUMPDEST SWAP2 POP POP SWAP3 SWAP2 POP POP JUMP JUMPDEST PUSH1 0x0 DUP2 CALLDATALOAD SWAP1 POP PUSH2 0x967 DUP2 PUSH2 0xF4C JUMP JUMPDEST SWAP3 SWAP2 POP POP JUMP JUMPDEST PUSH1 0x0 DUP2 CALLDATALOAD SWAP1 POP PUSH2 0x97C DUP2 PUSH2 0xF63 JUMP JUMPDEST SWAP3 SWAP2 POP POP JUMP JUMPDEST PUSH1 0x0 DUP3 PUSH1 0x1F DUP4 ADD SLT PUSH2 0x993 JUMPI PUSH1 0x0 DUP1 REVERT JUMPDEST DUP2 CALLDATALOAD PUSH2 0x9A3 DUP5 DUP3 PUSH1 0x20 DUP7 ADD PUSH2 0x8F3 JUMP JUMPDEST SWAP2 POP POP SWAP3 SWAP2 POP POP JUMP JUMPDEST PUSH1 0x0 DUP2 MLOAD SWAP1 POP PUSH2 0x9BB DUP2 PUSH2 0xF7A JUMP JUMPDEST SWAP3 SWAP2 POP POP JUMP JUMPDEST PUSH1 0x0 PUSH2 0x100 DUP3 DUP5 SUB SLT ISZERO PUSH2 0x9D4 JUMPI PUSH1 0x0 DUP1 REVERT JUMPDEST PUSH1 0x0 PUSH2 0x9E2 DUP5 DUP3 DUP6 ADD PUSH2 0x931 JUMP JUMPDEST SWAP2 POP POP SWAP3 SWAP2 POP POP JUMP JUMPDEST PUSH1 0x0 PUSH1 0x20 DUP3 DUP5 SUB SLT ISZERO PUSH2 0x9FD JUMPI PUSH1 0x0 DUP1 REVERT JUMPDEST PUSH1 0x0 PUSH2 0xA0B DUP5 DUP3 DUP6 ADD PUSH2 0x96D JUMP JUMPDEST SWAP2 POP POP SWAP3 SWAP2 POP POP JUMP JUMPDEST PUSH1 0x0 PUSH1 0x20 DUP3 DUP5 SUB SLT ISZERO PUSH2 0xA26 JUMPI PUSH1 0x0 DUP1 REVERT JUMPDEST PUSH1 0x0 DUP3 ADD CALLDATALOAD PUSH8 0xFFFFFFFFFFFFFFFF DUP2 GT ISZERO PUSH2 0xA40 JUMPI PUSH1 0x0 DUP1 REVERT JUMPDEST PUSH2 0xA4C DUP5 DUP3 DUP6 ADD PUSH2 0x982 JUMP JUMPDEST SWAP2 POP POP SWAP3 SWAP2 POP POP JUMP JUMPDEST PUSH1 0x0 DUP1 PUSH1 0x40 DUP4 DUP6 SUB SLT ISZERO PUSH2 0xA68 JUMPI PUSH1 0x0 DUP1 REVERT JUMPDEST PUSH1 0x0 DUP4 ADD CALLDATALOAD PUSH8 0xFFFFFFFFFFFFFFFF DUP2 GT ISZERO PUSH2 0xA82 JUMPI PUSH1 0x0 DUP1 REVERT JUMPDEST PUSH2 0xA8E DUP6 DUP3 DUP7 ADD PUSH2 0x982 JUMP JUMPDEST SWAP3 POP POP PUSH1 0x20 PUSH2 0xA9F DUP6 DUP3 DUP7 ADD PUSH2 0x958 JUMP JUMPDEST SWAP2 POP POP SWAP3 POP SWAP3 SWAP1 POP JUMP JUMPDEST PUSH1 0x0 DUP1 PUSH1 0x40 DUP4 DUP6 SUB SLT ISZERO PUSH2 0xABC JUMPI PUSH1 0x0 DUP1 REVERT JUMPDEST PUSH1 0x0 DUP4 ADD CALLDATALOAD PUSH8 0xFFFFFFFFFFFFFFFF DUP2 GT ISZERO PUSH2 0xAD6 JUMPI PUSH1 0x0 DUP1 REVERT JUMPDEST PUSH2 0xAE2 DUP6 DUP3 DUP7 ADD PUSH2 0x982 JUMP JUMPDEST SWAP3 POP POP PUSH1 0x20 DUP4 ADD CALLDATALOAD PUSH8 0xFFFFFFFFFFFFFFFF DUP2 GT ISZERO PUSH2 0xAFF JUMPI PUSH1 0x0 DUP1 REVERT JUMPDEST PUSH2 0xB0B DUP6 DUP3 DUP7 ADD PUSH2 0x982 JUMP JUMPDEST SWAP2 POP POP SWAP3 POP SWAP3 SWAP1 POP JUMP JUMPDEST PUSH1 0x0 DUP1 PUSH1 0x0 PUSH1 0x60 DUP5 DUP7 SUB SLT ISZERO PUSH2 0xB2A JUMPI PUSH1 0x0 DUP1 REVERT JUMPDEST PUSH1 0x0 DUP5 ADD CALLDATALOAD PUSH8 0xFFFFFFFFFFFFFFFF DUP2 GT ISZERO PUSH2 0xB44 JUMPI PUSH1 0x0 DUP1 REVERT JUMPDEST PUSH2 0xB50 DUP7 DUP3 DUP8 ADD PUSH2 0x982 JUMP JUMPDEST SWAP4 POP POP PUSH1 0x20 DUP5 ADD CALLDATALOAD PUSH8 0xFFFFFFFFFFFFFFFF DUP2 GT ISZERO PUSH2 0xB6D JUMPI PUSH1 0x0 DUP1 REVERT JUMPDEST PUSH2 0xB79 DUP7 DUP3 DUP8 ADD PUSH2 0x982 JUMP JUMPDEST SWAP3 POP POP PUSH1 0x40 PUSH2 0xB8A DUP7 DUP3 DUP8 ADD PUSH2 0x958 JUMP JUMPDEST SWAP2 POP POP SWAP3 POP SWAP3 POP SWAP3 JUMP JUMPDEST PUSH2 0xB9D DUP2 PUSH2 0xE96 JUMP JUMPDEST DUP3 MSTORE POP POP JUMP JUMPDEST PUSH1 0x0 PUSH2 0xBAE DUP3 PUSH2 0xE63 JUMP JUMPDEST PUSH2 0xBB8 DUP2 DUP6 PUSH2 0xE6E JUMP JUMPDEST SWAP4 POP PUSH2 0xBC8 DUP2 DUP6 PUSH1 0x20 DUP7 ADD PUSH2 0xEE7 JUMP JUMPDEST PUSH2 0xBD1 DUP2 PUSH2 0xF2E JUMP JUMPDEST DUP5 ADD SWAP2 POP POP SWAP3 SWAP2 POP POP JUMP JUMPDEST PUSH1 0x0 PUSH2 0xBE7 DUP3 PUSH2 0xE63 JUMP JUMPDEST PUSH2 0xBF1 DUP2 DUP6 PUSH2 0xE7F JUMP JUMPDEST SWAP4 POP PUSH2 0xC01 DUP2 DUP6 PUSH1 0x20 DUP7 ADD PUSH2 0xEE7 JUMP JUMPDEST DUP1 DUP5 ADD SWAP2 POP POP SWAP3 SWAP2 POP POP JUMP JUMPDEST PUSH2 0xC16 DUP2 PUSH2 0xEB4 JUMP JUMPDEST DUP3 MSTORE POP POP JUMP JUMPDEST PUSH2 0xC25 DUP2 PUSH2 0xEC6 JUMP JUMPDEST DUP3 MSTORE POP POP JUMP JUMPDEST PUSH2 0xC3C PUSH2 0xC37 DUP3 PUSH2 0xEA0 JUMP JUMPDEST PUSH2 0xF1A JUMP JUMPDEST DUP3 MSTORE POP POP JUMP JUMPDEST PUSH1 0x0 PUSH2 0xC4E DUP3 DUP5 PUSH2 0xBDC JUMP JUMPDEST SWAP2 POP DUP2 SWAP1 POP SWAP3 SWAP2 POP POP JUMP JUMPDEST PUSH1 0x0 PUSH2 0xC65 DUP3 DUP12 PUSH2 0xC2B JUMP JUMPDEST PUSH1 0x8 DUP3 ADD SWAP2 POP PUSH2 0xC75 DUP3 DUP11 PUSH2 0xC2B JUMP JUMPDEST PUSH1 0x8 DUP3 ADD SWAP2 POP PUSH2 0xC85 DUP3 DUP10 PUSH2 0xC2B JUMP JUMPDEST PUSH1 0x8 DUP3 ADD SWAP2 POP PUSH2 0xC95 DUP3 DUP9 PUSH2 0xC2B JUMP JUMPDEST PUSH1 0x8 DUP3 ADD SWAP2 POP PUSH2 0xCA5 DUP3 DUP8 PUSH2 0xC2B JUMP JUMPDEST PUSH1 0x8 DUP3 ADD SWAP2 POP PUSH2 0xCB5 DUP3 DUP7 PUSH2 0xC2B JUMP JUMPDEST PUSH1 0x8 DUP3 ADD SWAP2 POP PUSH2 0xCC5 DUP3 DUP6 PUSH2 0xC2B JUMP JUMPDEST PUSH1 0x8 DUP3 ADD SWAP2 POP PUSH2 0xCD5 DUP3 DUP5 PUSH2 0xC2B JUMP JUMPDEST PUSH1 0x8 DUP3 ADD SWAP2 POP DUP2 SWAP1 POP SWAP10 SWAP9 POP POP POP POP POP POP POP POP POP JUMP JUMPDEST PUSH1 0x0 PUSH1 0x20 DUP3 ADD SWAP1 POP PUSH2 0xD00 PUSH1 0x0 DUP4 ADD DUP5 PUSH2 0xB94 JUMP JUMPDEST SWAP3 SWAP2 POP POP JUMP JUMPDEST PUSH1 0x0 PUSH1 0x20 DUP3 ADD SWAP1 POP DUP2 DUP2 SUB PUSH1 0x0 DUP4 ADD MSTORE PUSH2 0xD20 DUP2 DUP5 PUSH2 0xBA3 JUMP JUMPDEST SWAP1 POP SWAP3 SWAP2 POP POP JUMP JUMPDEST PUSH1 0x0 PUSH1 0xA0 DUP3 ADD SWAP1 POP DUP2 DUP2 SUB PUSH1 0x0 DUP4 ADD MSTORE PUSH2 0xD42 DUP2 DUP9 PUSH2 0xBA3 JUMP JUMPDEST SWAP1 POP DUP2 DUP2 SUB PUSH1 0x20 DUP4 ADD MSTORE PUSH2 0xD56 DUP2 DUP8 PUSH2 0xBA3 JUMP JUMPDEST SWAP1 POP DUP2 DUP2 SUB PUSH1 0x40 DUP4 ADD MSTORE PUSH2 0xD6A DUP2 DUP7 PUSH2 0xBA3 JUMP JUMPDEST SWAP1 POP DUP2 DUP2 SUB PUSH1 0x60 DUP4 ADD MSTORE PUSH2 0xD7E DUP2 DUP6 PUSH2 0xBA3 JUMP JUMPDEST SWAP1 POP PUSH2 0xD8D PUSH1 0x80 DUP4 ADD DUP5 PUSH2 0xC0D JUMP JUMPDEST SWAP7 SWAP6 POP POP POP POP POP POP JUMP JUMPDEST PUSH1 0x0 PUSH1 0x60 DUP3 ADD SWAP1 POP DUP2 DUP2 SUB PUSH1 0x0 DUP4 ADD MSTORE PUSH2 0xDB1 DUP2 DUP7 PUSH2 0xBA3 JUMP JUMPDEST SWAP1 POP DUP2 DUP2 SUB PUSH1 0x20 DUP4 ADD MSTORE PUSH2 0xDC5 DUP2 DUP6 PUSH2 0xBA3 JUMP JUMPDEST SWAP1 POP PUSH2 0xDD4 PUSH1 0x40 DUP4 ADD DUP5 PUSH2 0xC1C JUMP JUMPDEST SWAP5 SWAP4 POP POP POP POP JUMP JUMPDEST PUSH1 0x0 PUSH1 0x40 MLOAD SWAP1 POP DUP2 DUP2 ADD DUP2 DUP2 LT PUSH8 0xFFFFFFFFFFFFFFFF DUP3 GT OR ISZERO PUSH2 0xE03 JUMPI PUSH2 0xE02 PUSH2 0xF2C JUMP JUMPDEST JUMPDEST DUP1 PUSH1 0x40 MSTORE POP SWAP2 SWAP1 POP JUMP JUMPDEST PUSH1 0x0 PUSH8 0xFFFFFFFFFFFFFFFF DUP3 GT ISZERO PUSH2 0xE28 JUMPI PUSH2 0xE27 PUSH2 0xF2C JUMP JUMPDEST JUMPDEST PUSH1 0x20 DUP3 MUL SWAP1 POP SWAP2 SWAP1 POP JUMP JUMPDEST PUSH1 0x0 PUSH8 0xFFFFFFFFFFFFFFFF DUP3 GT ISZERO PUSH2 0xE4E JUMPI PUSH2 0xE4D PUSH2 0xF2C JUMP JUMPDEST JUMPDEST PUSH1 0x1F NOT PUSH1 0x1F DUP4 ADD AND SWAP1 POP PUSH1 0x20 DUP2 ADD SWAP1 POP SWAP2 SWAP1 POP JUMP JUMPDEST PUSH1 0x0 DUP2 MLOAD SWAP1 POP SWAP2 SWAP1 POP JUMP JUMPDEST PUSH1 0x0 DUP3 DUP3 MSTORE PUSH1 0x20 DUP3 ADD SWAP1 POP SWAP3 SWAP2 POP POP JUMP JUMPDEST PUSH1 0x0 DUP2 SWAP1 POP SWAP3 SWAP2 POP POP JUMP JUMPDEST PUSH1 0x0 DUP2 ISZERO ISZERO SWAP1 POP SWAP2 SWAP1 POP JUMP JUMPDEST PUSH1 0x0 DUP2 SWAP1 POP SWAP2 SWAP1 POP JUMP JUMPDEST PUSH1 0x0 PUSH8 0xFFFFFFFFFFFFFFFF DUP3 AND SWAP1 POP SWAP2 SWAP1 POP JUMP JUMPDEST PUSH1 0x0 PUSH2 0xEBF DUP3 PUSH2 0xEA0 JUMP JUMPDEST SWAP1 POP SWAP2 SWAP1 POP JUMP JUMPDEST PUSH1 0x0 PUSH2 0xED1 DUP3 PUSH2 0xEA0 JUMP JUMPDEST SWAP1 POP SWAP2 SWAP1 POP JUMP JUMPDEST DUP3 DUP2 DUP4 CALLDATACOPY PUSH1 0x0 DUP4 DUP4 ADD MSTORE POP POP POP JUMP JUMPDEST PUSH1 0x0 JUMPDEST DUP4 DUP2 LT ISZERO PUSH2 0xF05 JUMPI DUP1 DUP3 ADD MLOAD DUP2 DUP5 ADD MSTORE PUSH1 0x20 DUP2 ADD SWAP1 POP PUSH2 0xEEA JUMP JUMPDEST DUP4 DUP2 GT ISZERO PUSH2 0xF14 JUMPI PUSH1 0x0 DUP5 DUP5 ADD MSTORE JUMPDEST POP POP POP POP JUMP JUMPDEST PUSH1 0x0 PUSH2 0xF25 DUP3 PUSH2 0xF3F JUMP JUMPDEST SWAP1 POP SWAP2 SWAP1 POP JUMP JUMPDEST INVALID JUMPDEST PUSH1 0x0 PUSH1 0x1F NOT PUSH1 0x1F DUP4 ADD AND SWAP1 POP SWAP2 SWAP1 POP JUMP JUMPDEST PUSH1 0x0 DUP2 PUSH1 0xC0 SHL SWAP1 POP SWAP2 SWAP1 POP JUMP JUMPDEST PUSH2 0xF55 DUP2 PUSH2 0xE8A JUMP JUMPDEST DUP2 EQ PUSH2 0xF60 JUMPI PUSH1 0x0 DUP1 REVERT JUMPDEST POP JUMP JUMPDEST PUSH2 0xF6C DUP2 PUSH2 0xE96 JUMP JUMPDEST DUP2 EQ PUSH2 0xF77 JUMPI PUSH1 0x0 DUP1 REVERT JUMPDEST POP JUMP JUMPDEST PUSH2 0xF83 DUP2 PUSH2 0xEA0 JUMP JUMPDEST DUP2 EQ PUSH2 0xF8E JUMPI PUSH1 0x0 DUP1 REVERT JUMPDEST POP JUMP INVALID LOG2 PUSH5 0x6970667358 0x22 SLT KECCAK256 CALLCODE 0xEC PUSH7 0x88682775B2676D PUSH29 0xA632257AA7B47FD587D259468411D6C3D5FC6535364736F6C63430007 MOD STOP CALLER PUSH1 0x80 PUSH1 0x40 MSTORE PUSH1 0x40 MLOAD DUP1 PUSH2 0x100 ADD PUSH1 0x40 MSTORE DUP1 PUSH8 0x6A09E667F3BCC908 PUSH8 0xFFFFFFFFFFFFFFFF AND DUP2 MSTORE PUSH1 0x20 ADD PUSH8 0xBB67AE8584CAA73B PUSH8 0xFFFFFFFFFFFFFFFF AND DUP2 MSTORE PUSH1 0x20 ADD PUSH8 0x3C6EF372FE94F82B PUSH8 0xFFFFFFFFFFFFFFFF AND DUP2 MSTORE PUSH1 0x20 ADD PUSH8 0xA54FF53A5F1D36F1 PUSH8 0xFFFFFFFFFFFFFFFF AND DUP2 MSTORE PUSH1 0x20 ADD PUSH8 0x510E527FADE682D1 PUSH8 0xFFFFFFFFFFFFFFFF AND DUP2 MSTORE PUSH1 0x20 ADD PUSH8 0x9B05688C2B3E6C1F PUSH8 0xFFFFFFFFFFFFFFFF AND DUP2 MSTORE PUSH1 0x20 ADD PUSH8 0x1F83D9ABFB41BD6B PUSH8 0xFFFFFFFFFFFFFFFF AND DUP2 MSTORE PUSH1 0x20 ADD PUSH8 0x5BE0CD19137E2179 PUSH8 0xFFFFFFFFFFFFFFFF AND DUP2 MSTORE POP PUSH1 0x0 SWAP1 PUSH1 0x8 PUSH3 0xE0 SWAP3 SWAP2 SWAP1 PUSH3 0xF5 JUMP JUMPDEST POP CALLVALUE DUP1 ISZERO PUSH3 0xEE JUMPI PUSH1 0x0 DUP1 REVERT JUMPDEST POP PUSH3 0x1CA JUMP JUMPDEST DUP3 PUSH1 0x8 PUSH1 0x3 ADD PUSH1 0x4 SWAP1 DIV DUP2 ADD SWAP3 DUP3 ISZERO PUSH3 0x198 JUMPI SWAP2 PUSH1 0x20 MUL DUP3 ADD PUSH1 0x0 JUMPDEST DUP4 DUP3 GT ISZERO PUSH3 0x160 JUMPI DUP4 MLOAD DUP4 DUP3 PUSH2 0x100 EXP DUP2 SLOAD DUP2 PUSH8 0xFFFFFFFFFFFFFFFF MUL NOT AND SWAP1 DUP4 PUSH8 0xFFFFFFFFFFFFFFFF AND MUL OR SWAP1 SSTORE POP SWAP3 PUSH1 0x20 ADD SWAP3 PUSH1 0x8 ADD PUSH1 0x20 DUP2 PUSH1 0x7 ADD DIV SWAP3 DUP4 ADD SWAP3 PUSH1 0x1 SUB MUL PUSH3 0x112 JUMP JUMPDEST DUP1 ISZERO PUSH3 0x196 JUMPI DUP3 DUP2 PUSH2 0x100 EXP DUP2 SLOAD SWAP1 PUSH8 0xFFFFFFFFFFFFFFFF MUL NOT AND SWAP1 SSTORE PUSH1 0x8 ADD PUSH1 0x20 DUP2 PUSH1 0x7 ADD DIV SWAP3 DUP4 ADD SWAP3 PUSH1 0x1 SUB MUL PUSH3 0x160 JUMP JUMPDEST POP JUMPDEST POP SWAP1 POP PUSH3 0x1A7 SWAP2 SWAP1 PUSH3 0x1AB JUMP JUMPDEST POP SWAP1 JUMP JUMPDEST JUMPDEST DUP1 DUP3 GT ISZERO PUSH3 0x1C6 JUMPI PUSH1 0x0 DUP2 PUSH1 0x0 SWAP1 SSTORE POP PUSH1 0x1 ADD PUSH3 0x1AC JUMP JUMPDEST POP SWAP1 JUMP JUMPDEST PUSH2 0x2E60 DUP1 PUSH3 0x1DA PUSH1 0x0 CODECOPY PUSH1 0x0 RETURN INVALID PUSH1 0x80 PUSH1 0x40 MSTORE CALLVALUE DUP1 ISZERO PUSH2 0x10 JUMPI PUSH1 0x0 DUP1 REVERT JUMPDEST POP PUSH1 0x4 CALLDATASIZE LT PUSH2 0x93 JUMPI PUSH1 0x0 CALLDATALOAD PUSH1 0xE0 SHR DUP1 PUSH4 0xD299DAC0 GT PUSH2 0x66 JUMPI DUP1 PUSH4 0xD299DAC0 EQ PUSH2 0x515 JUMPI DUP1 PUSH4 0xDF459019 EQ PUSH2 0x6B7 JUMPI DUP1 PUSH4 0xF23525EC EQ PUSH2 0x75A JUMPI DUP1 PUSH4 0xFA2ACD87 EQ PUSH2 0x7A6 JUMPI DUP1 PUSH4 0xFB72D24E EQ PUSH2 0x85D JUMPI PUSH2 0x93 JUMP JUMPDEST DUP1 PUSH4 0x1E092423 EQ PUSH2 0x98 JUMPI DUP1 PUSH4 0x217311AC EQ PUSH2 0x368 JUMPI DUP1 PUSH4 0x7AC0B1E3 EQ PUSH2 0x3BE JUMPI DUP1 PUSH4 0xBF187478 EQ PUSH2 0x4B5 JUMPI JUMPDEST PUSH1 0x0 DUP1 REVERT JUMPDEST PUSH2 0x32A PUSH1 0x4 DUP1 CALLDATASIZE SUB PUSH1 0xA0 DUP2 LT ISZERO PUSH2 0xAE JUMPI PUSH1 0x0 DUP1 REVERT JUMPDEST DUP2 ADD SWAP1 DUP1 DUP1 CALLDATALOAD SWAP1 PUSH1 0x20 ADD SWAP1 PUSH5 0x100000000 DUP2 GT ISZERO PUSH2 0xCB JUMPI PUSH1 0x0 DUP1 REVERT JUMPDEST DUP3 ADD DUP4 PUSH1 0x20 DUP3 ADD GT ISZERO PUSH2 0xDD JUMPI PUSH1 0x0 DUP1 REVERT JUMPDEST DUP1 CALLDATALOAD SWAP1 PUSH1 0x20 ADD SWAP2 DUP5 PUSH1 0x1 DUP4 MUL DUP5 ADD GT PUSH5 0x100000000 DUP4 GT OR ISZERO PUSH2 0xFF JUMPI PUSH1 0x0 DUP1 REVERT JUMPDEST SWAP2 SWAP1 DUP1 DUP1 PUSH1 0x1F ADD PUSH1 0x20 DUP1 SWAP2 DIV MUL PUSH1 0x20 ADD PUSH1 0x40 MLOAD SWAP1 DUP2 ADD PUSH1 0x40 MSTORE DUP1 SWAP4 SWAP3 SWAP2 SWAP1 DUP2 DUP2 MSTORE PUSH1 0x20 ADD DUP4 DUP4 DUP1 DUP3 DUP5 CALLDATACOPY PUSH1 0x0 DUP2 DUP5 ADD MSTORE PUSH1 0x1F NOT PUSH1 0x1F DUP3 ADD AND SWAP1 POP DUP1 DUP4 ADD SWAP3 POP POP POP POP POP POP POP SWAP2 SWAP3 SWAP2 SWAP3 SWAP1 DUP1 CALLDATALOAD SWAP1 PUSH1 0x20 ADD SWAP1 PUSH5 0x100000000 DUP2 GT ISZERO PUSH2 0x162 JUMPI PUSH1 0x0 DUP1 REVERT JUMPDEST DUP3 ADD DUP4 PUSH1 0x20 DUP3 ADD GT ISZERO PUSH2 0x174 JUMPI PUSH1 0x0 DUP1 REVERT JUMPDEST DUP1 CALLDATALOAD SWAP1 PUSH1 0x20 ADD SWAP2 DUP5 PUSH1 0x1 DUP4 MUL DUP5 ADD GT PUSH5 0x100000000 DUP4 GT OR ISZERO PUSH2 0x196 JUMPI PUSH1 0x0 DUP1 REVERT JUMPDEST SWAP2 SWAP1 DUP1 DUP1 PUSH1 0x1F ADD PUSH1 0x20 DUP1 SWAP2 DIV MUL PUSH1 0x20 ADD PUSH1 0x40 MLOAD SWAP1 DUP2 ADD PUSH1 0x40 MSTORE DUP1 SWAP4 SWAP3 SWAP2 SWAP1 DUP2 DUP2 MSTORE PUSH1 0x20 ADD DUP4 DUP4 DUP1 DUP3 DUP5 CALLDATACOPY PUSH1 0x0 DUP2 DUP5 ADD MSTORE PUSH1 0x1F NOT PUSH1 0x1F DUP3 ADD AND SWAP1 POP DUP1 DUP4 ADD SWAP3 POP POP POP POP POP POP POP SWAP2 SWAP3 SWAP2 SWAP3 SWAP1 DUP1 CALLDATALOAD SWAP1 PUSH1 0x20 ADD SWAP1 PUSH5 0x100000000 DUP2 GT ISZERO PUSH2 0x1F9 JUMPI PUSH1 0x0 DUP1 REVERT JUMPDEST DUP3 ADD DUP4 PUSH1 0x20 DUP3 ADD GT ISZERO PUSH2 0x20B JUMPI PUSH1 0x0 DUP1 REVERT JUMPDEST DUP1 CALLDATALOAD SWAP1 PUSH1 0x20 ADD SWAP2 DUP5 PUSH1 0x1 DUP4 MUL DUP5 ADD GT PUSH5 0x100000000 DUP4 GT OR ISZERO PUSH2 0x22D JUMPI PUSH1 0x0 DUP1 REVERT JUMPDEST SWAP2 SWAP1 DUP1 DUP1 PUSH1 0x1F ADD PUSH1 0x20 DUP1 SWAP2 DIV MUL PUSH1 0x20 ADD PUSH1 0x40 MLOAD SWAP1 DUP2 ADD PUSH1 0x40 MSTORE DUP1 SWAP4 SWAP3 SWAP2 SWAP1 DUP2 DUP2 MSTORE PUSH1 0x20 ADD DUP4 DUP4 DUP1 DUP3 DUP5 CALLDATACOPY PUSH1 0x0 DUP2 DUP5 ADD MSTORE PUSH1 0x1F NOT PUSH1 0x1F DUP3 ADD AND SWAP1 POP DUP1 DUP4 ADD SWAP3 POP POP POP POP POP POP POP SWAP2 SWAP3 SWAP2 SWAP3 SWAP1 DUP1 CALLDATALOAD SWAP1 PUSH1 0x20 ADD SWAP1 PUSH5 0x100000000 DUP2 GT ISZERO PUSH2 0x290 JUMPI PUSH1 0x0 DUP1 REVERT JUMPDEST DUP3 ADD DUP4 PUSH1 0x20 DUP3 ADD GT ISZERO PUSH2 0x2A2 JUMPI PUSH1 0x0 DUP1 REVERT JUMPDEST DUP1 CALLDATALOAD SWAP1 PUSH1 0x20 ADD SWAP2 DUP5 PUSH1 0x1 DUP4 MUL DUP5 ADD GT PUSH5 0x100000000 DUP4 GT OR ISZERO PUSH2 0x2C4 JUMPI PUSH1 0x0 DUP1 REVERT JUMPDEST SWAP2 SWAP1 DUP1 DUP1 PUSH1 0x1F ADD PUSH1 0x20 DUP1 SWAP2 DIV MUL PUSH1 0x20 ADD PUSH1 0x40 MLOAD SWAP1 DUP2 ADD PUSH1 0x40 MSTORE DUP1 SWAP4 SWAP3 SWAP2 SWAP1 DUP2 DUP2 MSTORE PUSH1 0x20 ADD DUP4 DUP4 DUP1 DUP3 DUP5 CALLDATACOPY PUSH1 0x0 DUP2 DUP5 ADD MSTORE PUSH1 0x1F NOT PUSH1 0x1F DUP3 ADD AND SWAP1 POP DUP1 DUP4 ADD SWAP3 POP POP POP POP POP POP POP SWAP2 SWAP3 SWAP2 SWAP3 SWAP1 DUP1 CALLDATALOAD PUSH8 0xFFFFFFFFFFFFFFFF AND SWAP1 PUSH1 0x20 ADD SWAP1 SWAP3 SWAP2 SWAP1 POP POP POP PUSH2 0x8BD JUMP JUMPDEST PUSH1 0x40 MLOAD DUP1 DUP3 PUSH1 0x8 PUSH1 0x20 MUL DUP1 DUP4 DUP4 PUSH1 0x0 JUMPDEST DUP4 DUP2 LT ISZERO PUSH2 0x355 JUMPI DUP1 DUP3 ADD MLOAD DUP2 DUP5 ADD MSTORE PUSH1 0x20 DUP2 ADD SWAP1 POP PUSH2 0x33A JUMP JUMPDEST POP POP POP POP SWAP1 POP ADD SWAP2 POP POP PUSH1 0x40 MLOAD DUP1 SWAP2 SUB SWAP1 RETURN JUMPDEST PUSH2 0x39E PUSH1 0x4 DUP1 CALLDATASIZE SUB PUSH1 0x20 DUP2 LT ISZERO PUSH2 0x37E JUMPI PUSH1 0x0 DUP1 REVERT JUMPDEST DUP2 ADD SWAP1 DUP1 DUP1 CALLDATALOAD PUSH8 0xFFFFFFFFFFFFFFFF AND SWAP1 PUSH1 0x20 ADD SWAP1 SWAP3 SWAP2 SWAP1 POP POP POP PUSH2 0x973 JUMP JUMPDEST PUSH1 0x40 MLOAD DUP1 DUP3 PUSH8 0xFFFFFFFFFFFFFFFF AND DUP2 MSTORE PUSH1 0x20 ADD SWAP2 POP POP PUSH1 0x40 MLOAD DUP1 SWAP2 SUB SWAP1 RETURN JUMPDEST PUSH2 0x477 PUSH1 0x4 DUP1 CALLDATASIZE SUB PUSH1 0x20 DUP2 LT ISZERO PUSH2 0x3D4 JUMPI PUSH1 0x0 DUP1 REVERT JUMPDEST DUP2 ADD SWAP1 DUP1 DUP1 CALLDATALOAD SWAP1 PUSH1 0x20 ADD SWAP1 PUSH5 0x100000000 DUP2 GT ISZERO PUSH2 0x3F1 JUMPI PUSH1 0x0 DUP1 REVERT JUMPDEST DUP3 ADD DUP4 PUSH1 0x20 DUP3 ADD GT ISZERO PUSH2 0x403 JUMPI PUSH1 0x0 DUP1 REVERT JUMPDEST DUP1 CALLDATALOAD SWAP1 PUSH1 0x20 ADD SWAP2 DUP5 PUSH1 0x1 DUP4 MUL DUP5 ADD GT PUSH5 0x100000000 DUP4 GT OR ISZERO PUSH2 0x425 JUMPI PUSH1 0x0 DUP1 REVERT JUMPDEST SWAP2 SWAP1 DUP1 DUP1 PUSH1 0x1F ADD PUSH1 0x20 DUP1 SWAP2 DIV MUL PUSH1 0x20 ADD PUSH1 0x40 MLOAD SWAP1 DUP2 ADD PUSH1 0x40 MSTORE DUP1 SWAP4 SWAP3 SWAP2 SWAP1 DUP2 DUP2 MSTORE PUSH1 0x20 ADD DUP4 DUP4 DUP1 DUP3 DUP5 CALLDATACOPY PUSH1 0x0 DUP2 DUP5 ADD MSTORE PUSH1 0x1F NOT PUSH1 0x1F DUP3 ADD AND SWAP1 POP DUP1 DUP4 ADD SWAP3 POP POP POP POP POP POP POP SWAP2 SWAP3 SWAP2 SWAP3 SWAP1 POP POP POP PUSH2 0xA63 JUMP JUMPDEST PUSH1 0x40 MLOAD DUP1 DUP3 PUSH1 0x2 PUSH1 0x20 MUL DUP1 DUP4 DUP4 PUSH1 0x0 JUMPDEST DUP4 DUP2 LT ISZERO PUSH2 0x4A2 JUMPI DUP1 DUP3 ADD MLOAD DUP2 DUP5 ADD MSTORE PUSH1 0x20 DUP2 ADD SWAP1 POP PUSH2 0x487 JUMP JUMPDEST POP POP POP POP SWAP1 POP ADD SWAP2 POP POP PUSH1 0x40 MLOAD DUP1 SWAP2 SUB SWAP1 RETURN JUMPDEST PUSH2 0x4F5 PUSH1 0x4 DUP1 CALLDATASIZE SUB PUSH1 0x40 DUP2 LT ISZERO PUSH2 0x4CB JUMPI PUSH1 0x0 DUP1 REVERT JUMPDEST DUP2 ADD SWAP1 DUP1 DUP1 CALLDATALOAD PUSH8 0xFFFFFFFFFFFFFFFF AND SWAP1 PUSH1 0x20 ADD SWAP1 SWAP3 SWAP2 SWAP1 DUP1 CALLDATALOAD SWAP1 PUSH1 0x20 ADD SWAP1 SWAP3 SWAP2 SWAP1 POP POP POP PUSH2 0xBA0 JUMP JUMPDEST PUSH1 0x40 MLOAD DUP1 DUP3 PUSH8 0xFFFFFFFFFFFFFFFF AND DUP2 MSTORE PUSH1 0x20 ADD SWAP2 POP POP PUSH1 0x40 MLOAD DUP1 SWAP2 SUB SWAP1 RETURN JUMPDEST PUSH2 0x679 PUSH1 0x4 DUP1 CALLDATASIZE SUB PUSH1 0x60 DUP2 LT ISZERO PUSH2 0x52B JUMPI PUSH1 0x0 DUP1 REVERT JUMPDEST DUP2 ADD SWAP1 DUP1 DUP1 CALLDATALOAD SWAP1 PUSH1 0x20 ADD SWAP1 PUSH5 0x100000000 DUP2 GT ISZERO PUSH2 0x548 JUMPI PUSH1 0x0 DUP1 REVERT JUMPDEST DUP3 ADD DUP4 PUSH1 0x20 DUP3 ADD GT ISZERO PUSH2 0x55A JUMPI PUSH1 0x0 DUP1 REVERT JUMPDEST DUP1 CALLDATALOAD SWAP1 PUSH1 0x20 ADD SWAP2 DUP5 PUSH1 0x1 DUP4 MUL DUP5 ADD GT PUSH5 0x100000000 DUP4 GT OR ISZERO PUSH2 0x57C JUMPI PUSH1 0x0 DUP1 REVERT JUMPDEST SWAP2 SWAP1 DUP1 DUP1 PUSH1 0x1F ADD PUSH1 0x20 DUP1 SWAP2 DIV MUL PUSH1 0x20 ADD PUSH1 0x40 MLOAD SWAP1 DUP2 ADD PUSH1 0x40 MSTORE DUP1 SWAP4 SWAP3 SWAP2 SWAP1 DUP2 DUP2 MSTORE PUSH1 0x20 ADD DUP4 DUP4 DUP1 DUP3 DUP5 CALLDATACOPY PUSH1 0x0 DUP2 DUP5 ADD MSTORE PUSH1 0x1F NOT PUSH1 0x1F DUP3 ADD AND SWAP1 POP DUP1 DUP4 ADD SWAP3 POP POP POP POP POP POP POP SWAP2 SWAP3 SWAP2 SWAP3 SWAP1 DUP1 CALLDATALOAD SWAP1 PUSH1 0x20 ADD SWAP1 PUSH5 0x100000000 DUP2 GT ISZERO PUSH2 0x5DF JUMPI PUSH1 0x0 DUP1 REVERT JUMPDEST DUP3 ADD DUP4 PUSH1 0x20 DUP3 ADD GT ISZERO PUSH2 0x5F1 JUMPI PUSH1 0x0 DUP1 REVERT JUMPDEST DUP1 CALLDATALOAD SWAP1 PUSH1 0x20 ADD SWAP2 DUP5 PUSH1 0x1 DUP4 MUL DUP5 ADD GT PUSH5 0x100000000 DUP4 GT OR ISZERO PUSH2 0x613 JUMPI PUSH1 0x0 DUP1 REVERT JUMPDEST SWAP2 SWAP1 DUP1 DUP1 PUSH1 0x1F ADD PUSH1 0x20 DUP1 SWAP2 DIV MUL PUSH1 0x20 ADD PUSH1 0x40 MLOAD SWAP1 DUP2 ADD PUSH1 0x40 MSTORE DUP1 SWAP4 SWAP3 SWAP2 SWAP1 DUP2 DUP2 MSTORE PUSH1 0x20 ADD DUP4 DUP4 DUP1 DUP3 DUP5 CALLDATACOPY PUSH1 0x0 DUP2 DUP5 ADD MSTORE PUSH1 0x1F NOT PUSH1 0x1F DUP3 ADD AND SWAP1 POP DUP1 DUP4 ADD SWAP3 POP POP POP POP POP POP POP SWAP2 SWAP3 SWAP2 SWAP3 SWAP1 DUP1 CALLDATALOAD PUSH8 0xFFFFFFFFFFFFFFFF AND SWAP1 PUSH1 0x20 ADD SWAP1 SWAP3 SWAP2 SWAP1 POP POP POP PUSH2 0xBCC JUMP JUMPDEST PUSH1 0x40 MLOAD DUP1 DUP3 PUSH1 0x8 PUSH1 0x20 MUL DUP1 DUP4 DUP4 PUSH1 0x0 JUMPDEST DUP4 DUP2 LT ISZERO PUSH2 0x6A4 JUMPI DUP1 DUP3 ADD MLOAD DUP2 DUP5 ADD MSTORE PUSH1 0x20 DUP2 ADD SWAP1 POP PUSH2 0x689 JUMP JUMPDEST POP POP POP POP SWAP1 POP ADD SWAP2 POP POP PUSH1 0x40 MLOAD DUP1 SWAP2 SUB SWAP1 RETURN JUMPDEST PUSH2 0x71C PUSH1 0x4 DUP1 CALLDATASIZE SUB PUSH2 0x100 DUP2 LT ISZERO PUSH2 0x6CE JUMPI PUSH1 0x0 DUP1 REVERT JUMPDEST DUP2 ADD SWAP1 DUP1 DUP1 PUSH2 0x100 ADD SWAP1 PUSH1 0x8 DUP1 PUSH1 0x20 MUL PUSH1 0x40 MLOAD SWAP1 DUP2 ADD PUSH1 0x40 MSTORE DUP1 SWAP3 SWAP2 SWAP1 DUP3 PUSH1 0x8 PUSH1 0x20 MUL DUP1 DUP3 DUP5 CALLDATACOPY PUSH1 0x0 DUP2 DUP5 ADD MSTORE PUSH1 0x1F NOT PUSH1 0x1F DUP3 ADD AND SWAP1 POP DUP1 DUP4 ADD SWAP3 POP POP POP POP POP POP SWAP2 SWAP3 SWAP2 SWAP3 SWAP1 POP POP POP PUSH2 0xC08 JUMP JUMPDEST PUSH1 0x40 MLOAD DUP1 DUP3 PUSH1 0x2 PUSH1 0x20 MUL DUP1 DUP4 DUP4 PUSH1 0x0 JUMPDEST DUP4 DUP2 LT ISZERO PUSH2 0x747 JUMPI DUP1 DUP3 ADD MLOAD DUP2 DUP5 ADD MSTORE PUSH1 0x20 DUP2 ADD SWAP1 POP PUSH2 0x72C JUMP JUMPDEST POP POP POP POP SWAP1 POP ADD SWAP2 POP POP PUSH1 0x40 MLOAD DUP1 SWAP2 SUB SWAP1 RETURN JUMPDEST PUSH2 0x786 PUSH1 0x4 DUP1 CALLDATASIZE SUB PUSH1 0x20 DUP2 LT ISZERO PUSH2 0x770 JUMPI PUSH1 0x0 DUP1 REVERT JUMPDEST DUP2 ADD SWAP1 DUP1 DUP1 CALLDATALOAD SWAP1 PUSH1 0x20 ADD SWAP1 SWAP3 SWAP2 SWAP1 POP POP POP PUSH2 0xCA9 JUMP JUMPDEST PUSH1 0x40 MLOAD DUP1 DUP3 PUSH8 0xFFFFFFFFFFFFFFFF AND DUP2 MSTORE PUSH1 0x20 ADD SWAP2 POP POP PUSH1 0x40 MLOAD DUP1 SWAP2 SUB SWAP1 RETURN JUMPDEST PUSH2 0x85B PUSH1 0x4 DUP1 CALLDATASIZE SUB PUSH2 0x2C0 DUP2 LT ISZERO PUSH2 0x7BD JUMPI PUSH1 0x0 DUP1 REVERT JUMPDEST DUP2 ADD SWAP1 DUP1 DUP1 PUSH2 0x200 ADD SWAP1 PUSH1 0x10 DUP1 PUSH1 0x20 MUL PUSH1 0x40 MLOAD SWAP1 DUP2 ADD PUSH1 0x40 MSTORE DUP1 SWAP3 SWAP2 SWAP1 DUP3 PUSH1 0x10 PUSH1 0x20 MUL DUP1 DUP3 DUP5 CALLDATACOPY PUSH1 0x0 DUP2 DUP5 ADD MSTORE PUSH1 0x1F NOT PUSH1 0x1F DUP3 ADD AND SWAP1 POP DUP1 DUP4 ADD SWAP3 POP POP POP POP POP POP SWAP2 SWAP3 SWAP2 SWAP3 SWAP1 DUP1 CALLDATALOAD SWAP1 PUSH1 0x20 ADD SWAP1 SWAP3 SWAP2 SWAP1 DUP1 CALLDATALOAD SWAP1 PUSH1 0x20 ADD SWAP1 SWAP3 SWAP2 SWAP1 DUP1 CALLDATALOAD SWAP1 PUSH1 0x20 ADD SWAP1 SWAP3 SWAP2 SWAP1 DUP1 CALLDATALOAD SWAP1 PUSH1 0x20 ADD SWAP1 SWAP3 SWAP2 SWAP1 DUP1 CALLDATALOAD PUSH8 0xFFFFFFFFFFFFFFFF AND SWAP1 PUSH1 0x20 ADD SWAP1 SWAP3 SWAP2 SWAP1 DUP1 CALLDATALOAD PUSH8 0xFFFFFFFFFFFFFFFF AND SWAP1 PUSH1 0x20 ADD SWAP1 SWAP3 SWAP2 SWAP1 POP POP POP PUSH2 0xCDD JUMP JUMPDEST STOP JUMPDEST PUSH2 0x89D PUSH1 0x4 DUP1 CALLDATASIZE SUB PUSH1 0x40 DUP2 LT ISZERO PUSH2 0x873 JUMPI PUSH1 0x0 DUP1 REVERT JUMPDEST DUP2 ADD SWAP1 DUP1 DUP1 CALLDATALOAD PUSH8 0xFFFFFFFFFFFFFFFF AND SWAP1 PUSH1 0x20 ADD SWAP1 SWAP3 SWAP2 SWAP1 DUP1 CALLDATALOAD SWAP1 PUSH1 0x20 ADD SWAP1 SWAP3 SWAP2 SWAP1 POP POP POP PUSH2 0xEB1 JUMP JUMPDEST PUSH1 0x40 MLOAD DUP1 DUP3 PUSH8 0xFFFFFFFFFFFFFFFF AND DUP2 MSTORE PUSH1 0x20 ADD SWAP2 POP POP PUSH1 0x40 MLOAD DUP1 SWAP2 SUB SWAP1 RETURN JUMPDEST PUSH2 0x8C5 PUSH2 0x2CF9 JUMP JUMPDEST PUSH2 0x8CD PUSH2 0x2D1C JUMP JUMPDEST PUSH2 0x8D5 PUSH2 0x2CF9 JUMP JUMPDEST PUSH2 0x8F2 DUP3 DUP6 DUP10 PUSH2 0x8E4 DUP11 PUSH2 0xA63 JUMP JUMPDEST PUSH2 0x8ED DUP11 PUSH2 0xA63 JUMP JUMPDEST PUSH2 0xED2 JUMP JUMPDEST PUSH2 0x8FC DUP3 DUP10 PUSH2 0x11DD JUMP JUMPDEST PUSH2 0x906 DUP3 DUP3 PUSH2 0x12EF JUMP JUMPDEST PUSH32 0xDE1A9FB355752F7765552010C12EE02E62EAA7B0502F3088E6B5398CE8686A38 DUP2 PUSH1 0x40 MLOAD DUP1 DUP3 PUSH1 0x8 PUSH1 0x20 MUL DUP1 DUP4 DUP4 PUSH1 0x0 JUMPDEST DUP4 DUP2 LT ISZERO PUSH2 0x953 JUMPI DUP1 DUP3 ADD MLOAD DUP2 DUP5 ADD MSTORE PUSH1 0x20 DUP2 ADD SWAP1 POP PUSH2 0x938 JUMP JUMPDEST POP POP POP POP SWAP1 POP ADD SWAP2 POP POP PUSH1 0x40 MLOAD DUP1 SWAP2 SUB SWAP1 LOG1 DUP1 SWAP3 POP POP POP SWAP6 SWAP5 POP POP POP POP POP JUMP JUMPDEST PUSH1 0x0 PUSH8 0x100000000000000 PUSH1 0xFF DUP4 AND MUL PUSH6 0x10000000000 PUSH2 0xFF00 DUP5 AND MUL PUSH4 0x1000000 PUSH3 0xFF0000 DUP6 AND MUL PUSH2 0x100 PUSH4 0xFF000000 DUP7 AND MUL PUSH2 0x100 PUSH8 0xFFFFFFFFFFFFFFFF AND PUSH5 0xFF00000000 DUP8 AND PUSH8 0xFFFFFFFFFFFFFFFF AND DUP2 PUSH2 0x9CD JUMPI INVALID JUMPDEST DIV PUSH4 0x1000000 PUSH8 0xFFFFFFFFFFFFFFFF AND PUSH6 0xFF0000000000 DUP9 AND PUSH8 0xFFFFFFFFFFFFFFFF AND DUP2 PUSH2 0x9F7 JUMPI INVALID JUMPDEST DIV PUSH6 0x10000000000 PUSH8 0xFFFFFFFFFFFFFFFF AND PUSH7 0xFF000000000000 DUP10 AND PUSH8 0xFFFFFFFFFFFFFFFF AND DUP2 PUSH2 0xA24 JUMPI INVALID JUMPDEST DIV PUSH8 0x100000000000000 PUSH8 0xFFFFFFFFFFFFFFFF AND PUSH8 0xFF00000000000000 DUP11 AND PUSH8 0xFFFFFFFFFFFFFFFF AND DUP2 PUSH2 0xA54 JUMPI INVALID JUMPDEST DIV XOR XOR XOR XOR XOR XOR XOR SWAP1 POP SWAP2 SWAP1 POP JUMP JUMPDEST PUSH2 0xA6B PUSH2 0x2D73 JUMP JUMPDEST PUSH1 0x0 JUMPDEST DUP3 MLOAD DUP2 LT ISZERO PUSH2 0xB0E JUMPI PUSH2 0xAB0 DUP4 DUP3 DUP2 MLOAD DUP2 LT PUSH2 0xA86 JUMPI INVALID JUMPDEST PUSH1 0x20 ADD ADD MLOAD PUSH1 0xF8 SHR PUSH1 0xF8 SHL PUSH1 0xF8 SHR PUSH1 0xFF AND PUSH1 0x1 PUSH1 0x8 DUP5 DUP2 PUSH2 0xAA3 JUMPI INVALID JUMPDEST MOD ADD PUSH1 0x8 MUL PUSH1 0x40 SUB PUSH2 0xBA0 JUMP JUMPDEST DUP3 PUSH1 0x8 DUP4 DUP2 PUSH2 0xABB JUMPI INVALID JUMPDEST DIV PUSH1 0x2 DUP2 LT PUSH2 0xAC6 JUMPI INVALID JUMPDEST PUSH1 0x20 MUL ADD MLOAD XOR DUP3 PUSH1 0x8 DUP4 DUP2 PUSH2 0xAD7 JUMPI INVALID JUMPDEST DIV PUSH1 0x2 DUP2 LT PUSH2 0xAE2 JUMPI INVALID JUMPDEST PUSH1 0x20 MUL ADD SWAP1 PUSH8 0xFFFFFFFFFFFFFFFF AND SWAP1 DUP2 PUSH8 0xFFFFFFFFFFFFFFFF AND DUP2 MSTORE POP POP DUP1 DUP1 PUSH1 0x1 ADD SWAP2 POP POP PUSH2 0xA6E JUMP JUMPDEST POP PUSH2 0xB29 DUP2 PUSH1 0x0 PUSH1 0x2 DUP2 LT PUSH2 0xB1F JUMPI INVALID JUMPDEST PUSH1 0x20 MUL ADD MLOAD PUSH2 0x973 JUMP JUMPDEST DUP2 PUSH1 0x0 PUSH1 0x2 DUP2 LT PUSH2 0xB36 JUMPI INVALID JUMPDEST PUSH1 0x20 MUL ADD SWAP1 PUSH8 0xFFFFFFFFFFFFFFFF AND SWAP1 DUP2 PUSH8 0xFFFFFFFFFFFFFFFF AND DUP2 MSTORE POP POP PUSH2 0xB6F DUP2 PUSH1 0x1 PUSH1 0x2 DUP2 LT PUSH2 0xB65 JUMPI INVALID JUMPDEST PUSH1 0x20 MUL ADD MLOAD PUSH2 0x973 JUMP JUMPDEST DUP2 PUSH1 0x1 PUSH1 0x2 DUP2 LT PUSH2 0xB7C JUMPI INVALID JUMPDEST PUSH1 0x20 MUL ADD SWAP1 PUSH8 0xFFFFFFFFFFFFFFFF AND SWAP1 DUP2 PUSH8 0xFFFFFFFFFFFFFFFF AND DUP2 MSTORE POP POP SWAP2 SWAP1 POP JUMP JUMPDEST PUSH1 0x0 PUSH9 0x10000000000000000 DUP3 PUSH1 0x2 EXP DUP5 PUSH8 0xFFFFFFFFFFFFFFFF AND MUL DUP2 PUSH2 0xBC3 JUMPI INVALID JUMPDEST MOD SWAP1 POP SWAP3 SWAP2 POP POP JUMP JUMPDEST PUSH2 0xBD4 PUSH2 0x2CF9 JUMP JUMPDEST PUSH2 0xBFF DUP5 DUP5 PUSH1 0x40 MLOAD DUP1 PUSH1 0x20 ADD PUSH1 0x40 MSTORE DUP1 PUSH1 0x0 DUP2 MSTORE POP PUSH1 0x40 MLOAD DUP1 PUSH1 0x20 ADD PUSH1 0x40 MSTORE DUP1 PUSH1 0x0 DUP2 MSTORE POP DUP7 PUSH2 0x8BD JUMP JUMPDEST SWAP1 POP SWAP4 SWAP3 POP POP POP JUMP JUMPDEST PUSH2 0xC10 PUSH2 0x2D95 JUMP JUMPDEST PUSH2 0xC18 PUSH2 0x2D95 JUMP JUMPDEST PUSH1 0x0 JUMPDEST PUSH1 0x8 DUP2 LT ISZERO PUSH2 0xC9F JUMPI PUSH1 0x4 DUP2 DUP2 PUSH2 0xC2E JUMPI INVALID JUMPDEST MOD PUSH1 0x3 SUB PUSH1 0x40 MUL PUSH1 0x2 EXP DUP5 DUP3 PUSH1 0x8 DUP2 LT PUSH2 0xC44 JUMPI INVALID JUMPDEST PUSH1 0x20 MUL ADD MLOAD PUSH8 0xFFFFFFFFFFFFFFFF AND MUL PUSH1 0x0 SHL DUP3 PUSH1 0x4 DUP4 DUP2 PUSH2 0xC62 JUMPI INVALID JUMPDEST DIV PUSH1 0x2 DUP2 LT PUSH2 0xC6D JUMPI INVALID JUMPDEST PUSH1 0x20 MUL ADD MLOAD XOR DUP3 PUSH1 0x4 DUP4 DUP2 PUSH2 0xC7E JUMPI INVALID JUMPDEST DIV PUSH1 0x2 DUP2 LT PUSH2 0xC89 JUMPI INVALID JUMPDEST PUSH1 0x20 MUL ADD DUP2 DUP2 MSTORE POP POP DUP1 DUP1 PUSH1 0x1 ADD SWAP2 POP POP PUSH2 0xC1B JUMP JUMPDEST POP DUP1 SWAP2 POP POP SWAP2 SWAP1 POP JUMP JUMPDEST PUSH1 0x0 DUP2 PUSH1 0x8 DUP2 LT PUSH2 0xCB9 JUMPI PUSH1 0x0 DUP1 REVERT JUMPDEST PUSH1 0x4 SWAP2 DUP3 DUP3 DIV ADD SWAP2 SWAP1 MOD PUSH1 0x8 MUL SWAP2 POP SLOAD SWAP1 PUSH2 0x100 EXP SWAP1 DIV PUSH8 0xFFFFFFFFFFFFFFFF AND DUP2 JUMP JUMPDEST PUSH1 0x0 DUP8 DUP8 PUSH1 0x10 DUP2 LT PUSH2 0xCEB JUMPI INVALID JUMPDEST PUSH1 0x20 MUL ADD MLOAD SWAP1 POP PUSH1 0x0 DUP9 DUP8 PUSH1 0x10 DUP2 LT PUSH2 0xD00 JUMPI INVALID JUMPDEST PUSH1 0x20 MUL ADD MLOAD SWAP1 POP PUSH1 0x0 DUP10 DUP8 PUSH1 0x10 DUP2 LT PUSH2 0xD15 JUMPI INVALID JUMPDEST PUSH1 0x20 MUL ADD MLOAD SWAP1 POP PUSH1 0x0 DUP11 DUP8 PUSH1 0x10 DUP2 LT PUSH2 0xD2A JUMPI INVALID JUMPDEST PUSH1 0x20 MUL ADD MLOAD SWAP1 POP PUSH9 0x10000000000000000 DUP7 DUP5 DUP7 ADD ADDMOD SWAP4 POP PUSH9 0x10000000000000000 PUSH5 0x100000000 DUP6 DUP4 XOR MULMOD PUSH5 0x100000000 DUP6 DUP4 XOR DIV XOR SWAP1 POP PUSH9 0x10000000000000000 DUP2 DUP4 ADDMOD SWAP2 POP PUSH9 0x10000000000000000 PUSH6 0x10000000000 DUP4 DUP6 XOR MULMOD PUSH4 0x1000000 DUP4 DUP6 XOR DIV XOR SWAP3 POP PUSH9 0x10000000000000000 DUP6 DUP5 DUP7 ADD ADDMOD SWAP4 POP PUSH9 0x10000000000000000 PUSH7 0x1000000000000 DUP6 DUP4 XOR MULMOD PUSH3 0x10000 DUP6 DUP4 XOR DIV XOR SWAP1 POP PUSH9 0x10000000000000000 DUP2 DUP4 ADDMOD SWAP2 POP PUSH9 0x10000000000000000 PUSH1 0x2 DUP4 DUP6 XOR MULMOD PUSH8 0x8000000000000000 DUP4 DUP6 XOR DIV XOR SWAP3 POP DUP4 DUP12 DUP12 PUSH1 0x10 DUP2 LT PUSH2 0xE01 JUMPI INVALID JUMPDEST PUSH1 0x20 MUL ADD SWAP1 PUSH8 0xFFFFFFFFFFFFFFFF AND SWAP1 DUP2 PUSH8 0xFFFFFFFFFFFFFFFF AND DUP2 MSTORE POP POP DUP3 DUP12 DUP11 PUSH1 0x10 DUP2 LT PUSH2 0xE2D JUMPI INVALID JUMPDEST PUSH1 0x20 MUL ADD SWAP1 PUSH8 0xFFFFFFFFFFFFFFFF AND SWAP1 DUP2 PUSH8 0xFFFFFFFFFFFFFFFF AND DUP2 MSTORE POP POP DUP2 DUP12 DUP10 PUSH1 0x10 DUP2 LT PUSH2 0xE59 JUMPI INVALID JUMPDEST PUSH1 0x20 MUL ADD SWAP1 PUSH8 0xFFFFFFFFFFFFFFFF AND SWAP1 DUP2 PUSH8 0xFFFFFFFFFFFFFFFF AND DUP2 MSTORE POP POP DUP1 DUP12 DUP9 PUSH1 0x10 DUP2 LT PUSH2 0xE85 JUMPI INVALID JUMPDEST PUSH1 0x20 MUL ADD SWAP1 PUSH8 0xFFFFFFFFFFFFFFFF AND SWAP1 DUP2 PUSH8 0xFFFFFFFFFFFFFFFF AND DUP2 MSTORE POP POP POP POP POP POP POP POP POP POP POP POP POP JUMP JUMPDEST PUSH1 0x0 DUP2 PUSH1 0x2 EXP DUP4 PUSH8 0xFFFFFFFFFFFFFFFF AND DUP2 PUSH2 0xEC9 JUMPI INVALID JUMPDEST DIV SWAP1 POP SWAP3 SWAP2 POP POP JUMP JUMPDEST PUSH1 0x0 DUP5 PUSH8 0xFFFFFFFFFFFFFFFF AND EQ DUP1 PUSH2 0xEF5 JUMPI POP PUSH1 0x40 DUP5 PUSH8 0xFFFFFFFFFFFFFFFF AND GT JUMPDEST DUP1 PUSH2 0xF01 JUMPI POP PUSH1 0x40 DUP4 MLOAD GT JUMPDEST ISZERO PUSH2 0xF57 JUMPI PUSH1 0x40 MLOAD PUSH32 0x8C379A000000000000000000000000000000000000000000000000000000000 DUP2 MSTORE PUSH1 0x4 ADD DUP1 DUP1 PUSH1 0x20 ADD DUP3 DUP2 SUB DUP3 MSTORE PUSH1 0x2E DUP2 MSTORE PUSH1 0x20 ADD DUP1 PUSH2 0x2DFD PUSH1 0x2E SWAP2 CODECOPY PUSH1 0x40 ADD SWAP2 POP POP PUSH1 0x40 MLOAD DUP1 SWAP2 SUB SWAP1 REVERT JUMPDEST PUSH1 0x0 JUMPDEST PUSH1 0x8 DUP2 LT ISZERO PUSH2 0xFCC JUMPI PUSH1 0x0 DUP2 PUSH1 0x8 DUP2 LT PUSH2 0xF70 JUMPI INVALID JUMPDEST PUSH1 0x4 SWAP2 DUP3 DUP3 DIV ADD SWAP2 SWAP1 MOD PUSH1 0x8 MUL SWAP1 SLOAD SWAP1 PUSH2 0x100 EXP SWAP1 DIV PUSH8 0xFFFFFFFFFFFFFFFF AND DUP7 PUSH1 0x20 ADD MLOAD DUP3 PUSH1 0x8 DUP2 LT PUSH2 0xFA0 JUMPI INVALID JUMPDEST PUSH1 0x20 MUL ADD SWAP1 PUSH8 0xFFFFFFFFFFFFFFFF AND SWAP1 DUP2 PUSH8 0xFFFFFFFFFFFFFFFF AND DUP2 MSTORE POP POP DUP1 DUP1 PUSH1 0x1 ADD SWAP2 POP POP PUSH2 0xF5A JUMP JUMPDEST POP DUP4 PUSH2 0xFDA DUP5 MLOAD PUSH1 0x8 PUSH2 0xBA0 JUMP JUMPDEST PUSH4 0x1010000 DUP8 PUSH1 0x20 ADD MLOAD PUSH1 0x0 PUSH1 0x8 DUP2 LT PUSH2 0xFF0 JUMPI INVALID JUMPDEST PUSH1 0x20 MUL ADD MLOAD XOR XOR XOR DUP6 PUSH1 0x20 ADD MLOAD PUSH1 0x0 PUSH1 0x8 DUP2 LT PUSH2 0x1009 JUMPI INVALID JUMPDEST PUSH1 0x20 MUL ADD SWAP1 PUSH8 0xFFFFFFFFFFFFFFFF AND SWAP1 DUP2 PUSH8 0xFFFFFFFFFFFFFFFF AND DUP2 MSTORE POP POP DUP2 PUSH1 0x0 PUSH1 0x2 DUP2 LT PUSH2 0x1035 JUMPI INVALID JUMPDEST PUSH1 0x20 MUL ADD MLOAD DUP6 PUSH1 0x20 ADD MLOAD PUSH1 0x4 PUSH1 0x8 DUP2 LT PUSH2 0x104B JUMPI INVALID JUMPDEST PUSH1 0x20 MUL ADD MLOAD XOR DUP6 PUSH1 0x20 ADD MLOAD PUSH1 0x4 PUSH1 0x8 DUP2 LT PUSH2 0x1062 JUMPI INVALID JUMPDEST PUSH1 0x20 MUL ADD SWAP1 PUSH8 0xFFFFFFFFFFFFFFFF AND SWAP1 DUP2 PUSH8 0xFFFFFFFFFFFFFFFF AND DUP2 MSTORE POP POP DUP2 PUSH1 0x1 PUSH1 0x2 DUP2 LT PUSH2 0x108E JUMPI INVALID JUMPDEST PUSH1 0x20 MUL ADD MLOAD DUP6 PUSH1 0x20 ADD MLOAD PUSH1 0x5 PUSH1 0x8 DUP2 LT PUSH2 0x10A4 JUMPI INVALID JUMPDEST PUSH1 0x20 MUL ADD MLOAD XOR DUP6 PUSH1 0x20 ADD MLOAD PUSH1 0x5 PUSH1 0x8 DUP2 LT PUSH2 0x10BB JUMPI INVALID JUMPDEST PUSH1 0x20 MUL ADD SWAP1 PUSH8 0xFFFFFFFFFFFFFFFF AND SWAP1 DUP2 PUSH8 0xFFFFFFFFFFFFFFFF AND DUP2 MSTORE POP POP DUP1 PUSH1 0x0 PUSH1 0x2 DUP2 LT PUSH2 0x10E7 JUMPI INVALID JUMPDEST PUSH1 0x20 MUL ADD MLOAD DUP6 PUSH1 0x20 ADD MLOAD PUSH1 0x6 PUSH1 0x8 DUP2 LT PUSH2 0x10FD JUMPI INVALID JUMPDEST PUSH1 0x20 MUL ADD MLOAD XOR DUP6 PUSH1 0x20 ADD MLOAD PUSH1 0x6 PUSH1 0x8 DUP2 LT PUSH2 0x1114 JUMPI INVALID JUMPDEST PUSH1 0x20 MUL ADD SWAP1 PUSH8 0xFFFFFFFFFFFFFFFF AND SWAP1 DUP2 PUSH8 0xFFFFFFFFFFFFFFFF AND DUP2 MSTORE POP POP DUP1 PUSH1 0x1 PUSH1 0x2 DUP2 LT PUSH2 0x1140 JUMPI INVALID JUMPDEST PUSH1 0x20 MUL ADD MLOAD DUP6 PUSH1 0x20 ADD MLOAD PUSH1 0x7 PUSH1 0x8 DUP2 LT PUSH2 0x1156 JUMPI INVALID JUMPDEST PUSH1 0x20 MUL ADD MLOAD XOR DUP6 PUSH1 0x20 ADD MLOAD PUSH1 0x7 PUSH1 0x8 DUP2 LT PUSH2 0x116D JUMPI INVALID JUMPDEST PUSH1 0x20 MUL ADD SWAP1 PUSH8 0xFFFFFFFFFFFFFFFF AND SWAP1 DUP2 PUSH8 0xFFFFFFFFFFFFFFFF AND DUP2 MSTORE POP POP DUP4 PUSH8 0xFFFFFFFFFFFFFFFF AND DUP6 PUSH1 0x80 ADD DUP2 DUP2 MSTORE POP POP PUSH1 0x0 DUP4 MLOAD GT ISZERO PUSH2 0x11D6 JUMPI PUSH2 0x11B4 DUP6 DUP5 PUSH2 0x11DD JUMP JUMPDEST PUSH1 0x80 DUP6 PUSH1 0x60 ADD SWAP1 PUSH8 0xFFFFFFFFFFFFFFFF AND SWAP1 DUP2 PUSH8 0xFFFFFFFFFFFFFFFF AND DUP2 MSTORE POP POP JUMPDEST POP POP POP POP POP JUMP JUMPDEST PUSH1 0x0 JUMPDEST DUP2 MLOAD DUP2 LT ISZERO PUSH2 0x12EA JUMPI PUSH1 0x80 DUP4 PUSH1 0x60 ADD MLOAD PUSH8 0xFFFFFFFFFFFFFFFF AND EQ ISZERO PUSH2 0x127D JUMPI DUP3 PUSH1 0x60 ADD MLOAD PUSH8 0xFFFFFFFFFFFFFFFF AND DUP4 PUSH1 0x40 ADD DUP2 DUP2 MLOAD ADD SWAP2 POP SWAP1 PUSH16 0xFFFFFFFFFFFFFFFFFFFFFFFFFFFFFFFF AND SWAP1 DUP2 PUSH16 0xFFFFFFFFFFFFFFFFFFFFFFFFFFFFFFFF AND DUP2 MSTORE POP POP PUSH2 0x124F DUP4 PUSH1 0x0 PUSH2 0x144C JUMP JUMPDEST PUSH2 0x125A DUP4 PUSH1 0x0 PUSH2 0x2B9D JUMP JUMPDEST POP PUSH1 0x0 DUP4 PUSH1 0x60 ADD SWAP1 PUSH8 0xFFFFFFFFFFFFFFFF AND SWAP1 DUP2 PUSH8 0xFFFFFFFFFFFFFFFF AND DUP2 MSTORE POP POP JUMPDEST PUSH1 0x0 DUP4 PUSH1 0x60 ADD DUP1 MLOAD DUP1 SWAP2 SWAP1 PUSH1 0x1 ADD PUSH8 0xFFFFFFFFFFFFFFFF AND PUSH8 0xFFFFFFFFFFFFFFFF AND DUP2 MSTORE POP PUSH8 0xFFFFFFFFFFFFFFFF AND SWAP1 POP PUSH1 0x0 DUP5 PUSH1 0x0 ADD MLOAD SWAP1 POP PUSH1 0x0 DUP5 DUP5 DUP2 MLOAD DUP2 LT PUSH2 0x12C5 JUMPI INVALID JUMPDEST PUSH1 0x20 ADD ADD MLOAD PUSH1 0xF8 SHR PUSH1 0xF8 SHL PUSH1 0xF8 SHR SWAP1 POP DUP1 DUP4 DUP4 ADD MSTORE8 POP POP POP DUP1 DUP1 PUSH1 0x1 ADD SWAP2 POP POP PUSH2 0x11E0 JUMP JUMPDEST POP POP POP JUMP JUMPDEST DUP2 PUSH1 0x60 ADD MLOAD PUSH8 0xFFFFFFFFFFFFFFFF AND DUP3 PUSH1 0x40 ADD DUP2 DUP2 MLOAD ADD SWAP2 POP SWAP1 PUSH16 0xFFFFFFFFFFFFFFFFFFFFFFFFFFFFFFFF AND SWAP1 DUP2 PUSH16 0xFFFFFFFFFFFFFFFFFFFFFFFFFFFFFFFF AND DUP2 MSTORE POP POP PUSH2 0x133E DUP3 PUSH1 0x1 PUSH2 0x144C JUMP JUMPDEST PUSH2 0x1349 DUP3 PUSH1 0x1 PUSH2 0x2B9D JUMP JUMPDEST POP PUSH1 0x0 JUMPDEST PUSH1 0x8 DUP4 PUSH1 0x80 ADD MLOAD DUP2 PUSH2 0x135B JUMPI INVALID JUMPDEST DIV DUP2 LT ISZERO PUSH2 0x13B8 JUMPI PUSH2 0x1380 DUP4 PUSH1 0x20 ADD MLOAD DUP3 PUSH1 0x8 DUP2 LT PUSH2 0x1376 JUMPI INVALID JUMPDEST PUSH1 0x20 MUL ADD MLOAD PUSH2 0x973 JUMP JUMPDEST DUP3 DUP3 PUSH1 0x8 DUP2 LT PUSH2 0x138C JUMPI INVALID JUMPDEST PUSH1 0x20 MUL ADD SWAP1 PUSH8 0xFFFFFFFFFFFFFFFF AND SWAP1 DUP2 PUSH8 0xFFFFFFFFFFFFFFFF AND DUP2 MSTORE POP POP DUP1 DUP1 PUSH1 0x1 ADD SWAP2 POP POP PUSH2 0x134D JUMP JUMPDEST POP PUSH1 0x40 DUP3 PUSH1 0x80 ADD MLOAD LT ISZERO PUSH2 0x1448 JUMPI PUSH2 0x140E PUSH2 0x13F4 DUP4 PUSH1 0x20 ADD MLOAD PUSH1 0x8 DUP6 PUSH1 0x80 ADD MLOAD DUP2 PUSH2 0x13DF JUMPI INVALID JUMPDEST DIV PUSH1 0x8 DUP2 LT PUSH2 0x13EA JUMPI INVALID JUMPDEST PUSH1 0x20 MUL ADD MLOAD PUSH2 0x973 JUMP JUMPDEST PUSH1 0x8 DUP5 PUSH1 0x80 ADD MLOAD DUP2 PUSH2 0x1402 JUMPI INVALID JUMPDEST MOD PUSH1 0x8 MUL PUSH1 0x40 SUB PUSH2 0xEB1 JUMP JUMPDEST DUP2 PUSH1 0x8 DUP5 PUSH1 0x80 ADD MLOAD DUP2 PUSH2 0x141D JUMPI INVALID JUMPDEST DIV PUSH1 0x8 DUP2 LT PUSH2 0x1428 JUMPI INVALID JUMPDEST PUSH1 0x20 MUL ADD SWAP1 PUSH8 0xFFFFFFFFFFFFFFFF AND SWAP1 DUP2 PUSH8 0xFFFFFFFFFFFFFFFF AND DUP2 MSTORE POP POP JUMPDEST POP POP JUMP JUMPDEST PUSH2 0x1454 PUSH2 0x2DB7 JUMP JUMPDEST PUSH2 0x145C PUSH2 0x2DB7 JUMP JUMPDEST PUSH1 0x0 JUMPDEST PUSH1 0x8 DUP2 LT ISZERO PUSH2 0x1510 JUMPI DUP5 PUSH1 0x20 ADD MLOAD DUP2 PUSH1 0x8 DUP2 LT PUSH2 0x1478 JUMPI INVALID JUMPDEST PUSH1 0x20 MUL ADD MLOAD DUP4 DUP3 PUSH1 0x10 DUP2 LT PUSH2 0x1489 JUMPI INVALID JUMPDEST PUSH1 0x20 MUL ADD SWAP1 PUSH8 0xFFFFFFFFFFFFFFFF AND SWAP1 DUP2 PUSH8 0xFFFFFFFFFFFFFFFF AND DUP2 MSTORE POP POP PUSH1 0x0 DUP2 PUSH1 0x8 DUP2 LT PUSH2 0x14B5 JUMPI INVALID JUMPDEST PUSH1 0x4 SWAP2 DUP3 DUP3 DIV ADD SWAP2 SWAP1 MOD PUSH1 0x8 MUL SWAP1 SLOAD SWAP1 PUSH2 0x100 EXP SWAP1 DIV PUSH8 0xFFFFFFFFFFFFFFFF AND DUP4 PUSH1 0x8 DUP4 ADD PUSH1 0x10 DUP2 LT PUSH2 0x14E4 JUMPI INVALID JUMPDEST PUSH1 0x20 MUL ADD SWAP1 PUSH8 0xFFFFFFFFFFFFFFFF AND SWAP1 DUP2 PUSH8 0xFFFFFFFFFFFFFFFF AND DUP2 MSTORE POP POP DUP1 DUP1 PUSH1 0x1 ADD SWAP2 POP POP PUSH2 0x145F JUMP JUMPDEST POP PUSH9 0x10000000000000000 DUP5 PUSH1 0x40 ADD MLOAD PUSH16 0xFFFFFFFFFFFFFFFFFFFFFFFFFFFFFFFF AND DUP2 PUSH2 0x1539 JUMPI INVALID JUMPDEST MOD DUP3 PUSH1 0xC PUSH1 0x10 DUP2 LT PUSH2 0x1547 JUMPI INVALID JUMPDEST PUSH1 0x20 MUL ADD MLOAD XOR DUP3 PUSH1 0xC PUSH1 0x10 DUP2 LT PUSH2 0x155A JUMPI INVALID JUMPDEST PUSH1 0x20 MUL ADD SWAP1 PUSH8 0xFFFFFFFFFFFFFFFF AND SWAP1 DUP2 PUSH8 0xFFFFFFFFFFFFFFFF AND DUP2 MSTORE POP POP PUSH9 0x10000000000000000 DUP5 PUSH1 0x40 ADD MLOAD PUSH16 0xFFFFFFFFFFFFFFFFFFFFFFFFFFFFFFFF AND DUP2 PUSH2 0x15A1 JUMPI INVALID JUMPDEST DIV DUP3 PUSH1 0xD PUSH1 0x10 DUP2 LT PUSH2 0x15AF JUMPI INVALID JUMPDEST PUSH1 0x20 MUL ADD MLOAD XOR DUP3 PUSH1 0xD PUSH1 0x10 DUP2 LT PUSH2 0x15C2 JUMPI INVALID JUMPDEST PUSH1 0x20 MUL ADD SWAP1 PUSH8 0xFFFFFFFFFFFFFFFF AND SWAP1 DUP2 PUSH8 0xFFFFFFFFFFFFFFFF AND DUP2 MSTORE POP POP DUP3 ISZERO PUSH2 0x1627 JUMPI DUP2 PUSH1 0xE PUSH1 0x10 DUP2 LT PUSH2 0x15F4 JUMPI INVALID JUMPDEST PUSH1 0x20 MUL ADD MLOAD NOT DUP3 PUSH1 0xE PUSH1 0x10 DUP2 LT PUSH2 0x1607 JUMPI INVALID JUMPDEST PUSH1 0x20 MUL ADD SWAP1 PUSH8 0xFFFFFFFFFFFFFFFF AND SWAP1 DUP2 PUSH8 0xFFFFFFFFFFFFFFFF AND DUP2 MSTORE POP POP JUMPDEST PUSH1 0x0 DUP1 PUSH1 0x0 JUMPDEST PUSH1 0x10 DUP2 LT ISZERO PUSH2 0x16CE JUMPI PUSH1 0x0 PUSH1 0x4 DUP3 DUP2 PUSH2 0x1642 JUMPI INVALID JUMPDEST MOD SWAP1 POP PUSH1 0x0 SWAP4 POP PUSH1 0x0 DUP2 EQ ISZERO PUSH2 0x1674 JUMPI DUP8 PUSH1 0x0 ADD MLOAD PUSH1 0x4 DUP4 DUP2 PUSH2 0x1661 JUMPI INVALID JUMPDEST DIV PUSH1 0x4 DUP2 LT PUSH2 0x166C JUMPI INVALID JUMPDEST PUSH1 0x20 MUL ADD MLOAD SWAP3 POP JUMPDEST PUSH8 0xFFFFFFFFFFFFFFFF DUP2 PUSH1 0x3 SUB PUSH1 0x40 MUL PUSH1 0x2 EXP DUP5 DIV AND SWAP4 POP PUSH2 0x1695 DUP5 PUSH2 0x973 JUMP JUMPDEST DUP6 DUP4 PUSH1 0x10 DUP2 LT PUSH2 0x16A1 JUMPI INVALID JUMPDEST PUSH1 0x20 MUL ADD SWAP1 PUSH8 0xFFFFFFFFFFFFFFFF AND SWAP1 DUP2 PUSH8 0xFFFFFFFFFFFFFFFF AND DUP2 MSTORE POP POP POP DUP1 DUP1 PUSH1 0x1 ADD SWAP2 POP POP PUSH2 0x162D JUMP JUMPDEST POP PUSH2 0x1704 DUP5 PUSH1 0x0 PUSH1 0x4 PUSH1 0x8 PUSH1 0xC DUP9 PUSH1 0x0 PUSH1 0x10 DUP2 LT PUSH2 0x16E8 JUMPI INVALID JUMPDEST PUSH1 0x20 MUL ADD MLOAD DUP10 PUSH1 0x1 PUSH1 0x10 DUP2 LT PUSH2 0x16FA JUMPI INVALID JUMPDEST PUSH1 0x20 MUL ADD MLOAD PUSH2 0xCDD JUMP JUMPDEST PUSH2 0x1739 DUP5 PUSH1 0x1 PUSH1 0x5 PUSH1 0x9 PUSH1 0xD DUP9 PUSH1 0x2 PUSH1 0x10 DUP2 LT PUSH2 0x171D JUMPI INVALID JUMPDEST PUSH1 0x20 MUL ADD MLOAD DUP10 PUSH1 0x3 PUSH1 0x10 DUP2 LT PUSH2 0x172F JUMPI INVALID JUMPDEST PUSH1 0x20 MUL ADD MLOAD PUSH2 0xCDD JUMP JUMPDEST PUSH2 0x176E DUP5 PUSH1 0x2 PUSH1 0x6 PUSH1 0xA PUSH1 0xE DUP9 PUSH1 0x4 PUSH1 0x10 DUP2 LT PUSH2 0x1752 JUMPI INVALID JUMPDEST PUSH1 0x20 MUL ADD MLOAD DUP10 PUSH1 0x5 PUSH1 0x10 DUP2 LT PUSH2 0x1764 JUMPI INVALID JUMPDEST PUSH1 0x20 MUL ADD MLOAD PUSH2 0xCDD JUMP JUMPDEST PUSH2 0x17A3 DUP5 PUSH1 0x3 PUSH1 0x7 PUSH1 0xB PUSH1 0xF DUP9 PUSH1 0x6 PUSH1 0x10 DUP2 LT PUSH2 0x1787 JUMPI INVALID JUMPDEST PUSH1 0x20 MUL ADD MLOAD DUP10 PUSH1 0x7 PUSH1 0x10 DUP2 LT PUSH2 0x1799 JUMPI INVALID JUMPDEST PUSH1 0x20 MUL ADD MLOAD PUSH2 0xCDD JUMP JUMPDEST PUSH2 0x17D8 DUP5 PUSH1 0x0 PUSH1 0x5 PUSH1 0xA PUSH1 0xF DUP9 PUSH1 0x8 PUSH1 0x10 DUP2 LT PUSH2 0x17BC JUMPI INVALID JUMPDEST PUSH1 0x20 MUL ADD MLOAD DUP10 PUSH1 0x9 PUSH1 0x10 DUP2 LT PUSH2 0x17CE JUMPI INVALID JUMPDEST PUSH1 0x20 MUL ADD MLOAD PUSH2 0xCDD JUMP JUMPDEST PUSH2 0x180D DUP5 PUSH1 0x1 PUSH1 0x6 PUSH1 0xB PUSH1 0xC DUP9 PUSH1 0xA PUSH1 0x10 DUP2 LT PUSH2 0x17F1 JUMPI INVALID JUMPDEST PUSH1 0x20 MUL ADD MLOAD DUP10 PUSH1 0xB PUSH1 0x10 DUP2 LT PUSH2 0x1803 JUMPI INVALID JUMPDEST PUSH1 0x20 MUL ADD MLOAD PUSH2 0xCDD JUMP JUMPDEST PUSH2 0x1842 DUP5 PUSH1 0x2 PUSH1 0x7 PUSH1 0x8 PUSH1 0xD DUP9 PUSH1 0xC PUSH1 0x10 DUP2 LT PUSH2 0x1826 JUMPI INVALID JUMPDEST PUSH1 0x20 MUL ADD MLOAD DUP10 PUSH1 0xD PUSH1 0x10 DUP2 LT PUSH2 0x1838 JUMPI INVALID JUMPDEST PUSH1 0x20 MUL ADD MLOAD PUSH2 0xCDD JUMP JUMPDEST PUSH2 0x1877 DUP5 PUSH1 0x3 PUSH1 0x4 PUSH1 0x9 PUSH1 0xE DUP9 PUSH1 0xE PUSH1 0x10 DUP2 LT PUSH2 0x185B JUMPI INVALID JUMPDEST PUSH1 0x20 MUL ADD MLOAD DUP10 PUSH1 0xF PUSH1 0x10 DUP2 LT PUSH2 0x186D JUMPI INVALID JUMPDEST PUSH1 0x20 MUL ADD MLOAD PUSH2 0xCDD JUMP JUMPDEST PUSH2 0x18AC DUP5 PUSH1 0x0 PUSH1 0x4 PUSH1 0x8 PUSH1 0xC DUP9 PUSH1 0xE PUSH1 0x10 DUP2 LT PUSH2 0x1890 JUMPI INVALID JUMPDEST PUSH1 0x20 MUL ADD MLOAD DUP10 PUSH1 0xA PUSH1 0x10 DUP2 LT PUSH2 0x18A2 JUMPI INVALID JUMPDEST PUSH1 0x20 MUL ADD MLOAD PUSH2 0xCDD JUMP JUMPDEST PUSH2 0x18E1 DUP5 PUSH1 0x1 PUSH1 0x5 PUSH1 0x9 PUSH1 0xD DUP9 PUSH1 0x4 PUSH1 0x10 DUP2 LT PUSH2 0x18C5 JUMPI INVALID JUMPDEST PUSH1 0x20 MUL ADD MLOAD DUP10 PUSH1 0x8 PUSH1 0x10 DUP2 LT PUSH2 0x18D7 JUMPI INVALID JUMPDEST PUSH1 0x20 MUL ADD MLOAD PUSH2 0xCDD JUMP JUMPDEST PUSH2 0x1916 DUP5 PUSH1 0x2 PUSH1 0x6 PUSH1 0xA PUSH1 0xE DUP9 PUSH1 0x9 PUSH1 0x10 DUP2 LT PUSH2 0x18FA JUMPI INVALID JUMPDEST PUSH1 0x20 MUL ADD MLOAD DUP10 PUSH1 0xF PUSH1 0x10 DUP2 LT PUSH2 0x190C JUMPI INVALID JUMPDEST PUSH1 0x20 MUL ADD MLOAD PUSH2 0xCDD JUMP JUMPDEST PUSH2 0x194B DUP5 PUSH1 0x3 PUSH1 0x7 PUSH1 0xB PUSH1 0xF DUP9 PUSH1 0xD PUSH1 0x10 DUP2 LT PUSH2 0x192F JUMPI INVALID JUMPDEST PUSH1 0x20 MUL ADD MLOAD DUP10 PUSH1 0x6 PUSH1 0x10 DUP2 LT PUSH2 0x1941 JUMPI INVALID JUMPDEST PUSH1 0x20 MUL ADD MLOAD PUSH2 0xCDD JUMP JUMPDEST PUSH2 0x1980 DUP5 PUSH1 0x0 PUSH1 0x5 PUSH1 0xA PUSH1 0xF DUP9 PUSH1 0x1 PUSH1 0x10 DUP2 LT PUSH2 0x1964 JUMPI INVALID JUMPDEST PUSH1 0x20 MUL ADD MLOAD DUP10 PUSH1 0xC PUSH1 0x10 DUP2 LT PUSH2 0x1976 JUMPI INVALID JUMPDEST PUSH1 0x20 MUL ADD MLOAD PUSH2 0xCDD JUMP JUMPDEST PUSH2 0x19B5 DUP5 PUSH1 0x1 PUSH1 0x6 PUSH1 0xB PUSH1 0xC DUP9 PUSH1 0x0 PUSH1 0x10 DUP2 LT PUSH2 0x1999 JUMPI INVALID JUMPDEST PUSH1 0x20 MUL ADD MLOAD DUP10 PUSH1 0x2 PUSH1 0x10 DUP2 LT PUSH2 0x19AB JUMPI INVALID JUMPDEST PUSH1 0x20 MUL ADD MLOAD PUSH2 0xCDD JUMP JUMPDEST PUSH2 0x19EA DUP5 PUSH1 0x2 PUSH1 0x7 PUSH1 0x8 PUSH1 0xD DUP9 PUSH1 0xB PUSH1 0x10 DUP2 LT PUSH2 0x19CE JUMPI INVALID JUMPDEST PUSH1 0x20 MUL ADD MLOAD DUP10 PUSH1 0x7 PUSH1 0x10 DUP2 LT PUSH2 0x19E0 JUMPI INVALID JUMPDEST PUSH1 0x20 MUL ADD MLOAD PUSH2 0xCDD JUMP JUMPDEST PUSH2 0x1A1F DUP5 PUSH1 0x3 PUSH1 0x4 PUSH1 0x9 PUSH1 0xE DUP9 PUSH1 0x5 PUSH1 0x10 DUP2 LT PUSH2 0x1A03 JUMPI INVALID JUMPDEST PUSH1 0x20 MUL ADD MLOAD DUP10 PUSH1 0x3 PUSH1 0x10 DUP2 LT PUSH2 0x1A15 JUMPI INVALID JUMPDEST PUSH1 0x20 MUL ADD MLOAD PUSH2 0xCDD JUMP JUMPDEST PUSH2 0x1A54 DUP5 PUSH1 0x0 PUSH1 0x4 PUSH1 0x8 PUSH1 0xC DUP9 PUSH1 0xB PUSH1 0x10 DUP2 LT PUSH2 0x1A38 JUMPI INVALID JUMPDEST PUSH1 0x20 MUL ADD MLOAD DUP10 PUSH1 0x8 PUSH1 0x10 DUP2 LT PUSH2 0x1A4A JUMPI INVALID JUMPDEST PUSH1 0x20 MUL ADD MLOAD PUSH2 0xCDD JUMP JUMPDEST PUSH2 0x1A89 DUP5 PUSH1 0x1 PUSH1 0x5 PUSH1 0x9 PUSH1 0xD DUP9 PUSH1 0xC PUSH1 0x10 DUP2 LT PUSH2 0x1A6D JUMPI INVALID JUMPDEST PUSH1 0x20 MUL ADD MLOAD DUP10 PUSH1 0x0 PUSH1 0x10 DUP2 LT PUSH2 0x1A7F JUMPI INVALID JUMPDEST PUSH1 0x20 MUL ADD MLOAD PUSH2 0xCDD JUMP JUMPDEST PUSH2 0x1ABE DUP5 PUSH1 0x2 PUSH1 0x6 PUSH1 0xA PUSH1 0xE DUP9 PUSH1 0x5 PUSH1 0x10 DUP2 LT PUSH2 0x1AA2 JUMPI INVALID JUMPDEST PUSH1 0x20 MUL ADD MLOAD DUP10 PUSH1 0x2 PUSH1 0x10 DUP2 LT PUSH2 0x1AB4 JUMPI INVALID JUMPDEST PUSH1 0x20 MUL ADD MLOAD PUSH2 0xCDD JUMP JUMPDEST PUSH2 0x1AF3 DUP5 PUSH1 0x3 PUSH1 0x7 PUSH1 0xB PUSH1 0xF DUP9 PUSH1 0xF PUSH1 0x10 DUP2 LT PUSH2 0x1AD7 JUMPI INVALID JUMPDEST PUSH1 0x20 MUL ADD MLOAD DUP10 PUSH1 0xD PUSH1 0x10 DUP2 LT PUSH2 0x1AE9 JUMPI INVALID JUMPDEST PUSH1 0x20 MUL ADD MLOAD PUSH2 0xCDD JUMP JUMPDEST PUSH2 0x1B28 DUP5 PUSH1 0x0 PUSH1 0x5 PUSH1 0xA PUSH1 0xF DUP9 PUSH1 0xA PUSH1 0x10 DUP2 LT PUSH2 0x1B0C JUMPI INVALID JUMPDEST PUSH1 0x20 MUL ADD MLOAD DUP10 PUSH1 0xE PUSH1 0x10 DUP2 LT PUSH2 0x1B1E JUMPI INVALID JUMPDEST PUSH1 0x20 MUL ADD MLOAD PUSH2 0xCDD JUMP JUMPDEST PUSH2 0x1B5D DUP5 PUSH1 0x1 PUSH1 0x6 PUSH1 0xB PUSH1 0xC DUP9 PUSH1 0x3 PUSH1 0x10 DUP2 LT PUSH2 0x1B41 JUMPI INVALID JUMPDEST PUSH1 0x20 MUL ADD MLOAD DUP10 PUSH1 0x6 PUSH1 0x10 DUP2 LT PUSH2 0x1B53 JUMPI INVALID JUMPDEST PUSH1 0x20 MUL ADD MLOAD PUSH2 0xCDD JUMP JUMPDEST PUSH2 0x1B92 DUP5 PUSH1 0x2 PUSH1 0x7 PUSH1 0x8 PUSH1 0xD DUP9 PUSH1 0x7 PUSH1 0x10 DUP2 LT PUSH2 0x1B76 JUMPI INVALID JUMPDEST PUSH1 0x20 MUL ADD MLOAD DUP10 PUSH1 0x1 PUSH1 0x10 DUP2 LT PUSH2 0x1B88 JUMPI INVALID JUMPDEST PUSH1 0x20 MUL ADD MLOAD PUSH2 0xCDD JUMP JUMPDEST PUSH2 0x1BC7 DUP5 PUSH1 0x3 PUSH1 0x4 PUSH1 0x9 PUSH1 0xE DUP9 PUSH1 0x9 PUSH1 0x10 DUP2 LT PUSH2 0x1BAB JUMPI INVALID JUMPDEST PUSH1 0x20 MUL ADD MLOAD DUP10 PUSH1 0x4 PUSH1 0x10 DUP2 LT PUSH2 0x1BBD JUMPI INVALID JUMPDEST PUSH1 0x20 MUL ADD MLOAD PUSH2 0xCDD JUMP JUMPDEST PUSH2 0x1BFC DUP5 PUSH1 0x0 PUSH1 0x4 PUSH1 0x8 PUSH1 0xC DUP9 PUSH1 0x7 PUSH1 0x10 DUP2 LT PUSH2 0x1BE0 JUMPI INVALID JUMPDEST PUSH1 0x20 MUL ADD MLOAD DUP10 PUSH1 0x9 PUSH1 0x10 DUP2 LT PUSH2 0x1BF2 JUMPI INVALID JUMPDEST PUSH1 0x20 MUL ADD MLOAD PUSH2 0xCDD JUMP JUMPDEST PUSH2 0x1C31 DUP5 PUSH1 0x1 PUSH1 0x5 PUSH1 0x9 PUSH1 0xD DUP9 PUSH1 0x3 PUSH1 0x10 DUP2 LT PUSH2 0x1C15 JUMPI INVALID JUMPDEST PUSH1 0x20 MUL ADD MLOAD DUP10 PUSH1 0x1 PUSH1 0x10 DUP2 LT PUSH2 0x1C27 JUMPI INVALID JUMPDEST PUSH1 0x20 MUL ADD MLOAD PUSH2 0xCDD JUMP JUMPDEST PUSH2 0x1C66 DUP5 PUSH1 0x2 PUSH1 0x6 PUSH1 0xA PUSH1 0xE DUP9 PUSH1 0xD PUSH1 0x10 DUP2 LT PUSH2 0x1C4A JUMPI INVALID JUMPDEST PUSH1 0x20 MUL ADD MLOAD DUP10 PUSH1 0xC PUSH1 0x10 DUP2 LT PUSH2 0x1C5C JUMPI INVALID JUMPDEST PUSH1 0x20 MUL ADD MLOAD PUSH2 0xCDD JUMP JUMPDEST PUSH2 0x1C9B DUP5 PUSH1 0x3 PUSH1 0x7 PUSH1 0xB PUSH1 0xF DUP9 PUSH1 0xB PUSH1 0x10 DUP2 LT PUSH2 0x1C7F JUMPI INVALID JUMPDEST PUSH1 0x20 MUL ADD MLOAD DUP10 PUSH1 0xE PUSH1 0x10 DUP2 LT PUSH2 0x1C91 JUMPI INVALID JUMPDEST PUSH1 0x20 MUL ADD MLOAD PUSH2 0xCDD JUMP JUMPDEST PUSH2 0x1CD0 DUP5 PUSH1 0x0 PUSH1 0x5 PUSH1 0xA PUSH1 0xF DUP9 PUSH1 0x2 PUSH1 0x10 DUP2 LT PUSH2 0x1CB4 JUMPI INVALID JUMPDEST PUSH1 0x20 MUL ADD MLOAD DUP10 PUSH1 0x6 PUSH1 0x10 DUP2 LT PUSH2 0x1CC6 JUMPI INVALID JUMPDEST PUSH1 0x20 MUL ADD MLOAD PUSH2 0xCDD JUMP JUMPDEST PUSH2 0x1D05 DUP5 PUSH1 0x1 PUSH1 0x6 PUSH1 0xB PUSH1 0xC DUP9 PUSH1 0x5 PUSH1 0x10 DUP2 LT PUSH2 0x1CE9 JUMPI INVALID JUMPDEST PUSH1 0x20 MUL ADD MLOAD DUP10 PUSH1 0xA PUSH1 0x10 DUP2 LT PUSH2 0x1CFB JUMPI INVALID JUMPDEST PUSH1 0x20 MUL ADD MLOAD PUSH2 0xCDD JUMP JUMPDEST PUSH2 0x1D3A DUP5 PUSH1 0x2 PUSH1 0x7 PUSH1 0x8 PUSH1 0xD DUP9 PUSH1 0x4 PUSH1 0x10 DUP2 LT PUSH2 0x1D1E JUMPI INVALID JUMPDEST PUSH1 0x20 MUL ADD MLOAD DUP10 PUSH1 0x0 PUSH1 0x10 DUP2 LT PUSH2 0x1D30 JUMPI INVALID JUMPDEST PUSH1 0x20 MUL ADD MLOAD PUSH2 0xCDD JUMP JUMPDEST PUSH2 0x1D6F DUP5 PUSH1 0x3 PUSH1 0x4 PUSH1 0x9 PUSH1 0xE DUP9 PUSH1 0xF PUSH1 0x10 DUP2 LT PUSH2 0x1D53 JUMPI INVALID JUMPDEST PUSH1 0x20 MUL ADD MLOAD DUP10 PUSH1 0x8 PUSH1 0x10 DUP2 LT PUSH2 0x1D65 JUMPI INVALID JUMPDEST PUSH1 0x20 MUL ADD MLOAD PUSH2 0xCDD JUMP JUMPDEST PUSH2 0x1DA4 DUP5 PUSH1 0x0 PUSH1 0x4 PUSH1 0x8 PUSH1 0xC DUP9 PUSH1 0x9 PUSH1 0x10 DUP2 LT PUSH2 0x1D88 JUMPI INVALID JUMPDEST PUSH1 0x20 MUL ADD MLOAD DUP10 PUSH1 0x0 PUSH1 0x10 DUP2 LT PUSH2 0x1D9A JUMPI INVALID JUMPDEST PUSH1 0x20 MUL ADD MLOAD PUSH2 0xCDD JUMP JUMPDEST PUSH2 0x1DD9 DUP5 PUSH1 0x1 PUSH1 0x5 PUSH1 0x9 PUSH1 0xD DUP9 PUSH1 0x5 PUSH1 0x10 DUP2 LT PUSH2 0x1DBD JUMPI INVALID JUMPDEST PUSH1 0x20 MUL ADD MLOAD DUP10 PUSH1 0x7 PUSH1 0x10 DUP2 LT PUSH2 0x1DCF JUMPI INVALID JUMPDEST PUSH1 0x20 MUL ADD MLOAD PUSH2 0xCDD JUMP JUMPDEST PUSH2 0x1E0E DUP5 PUSH1 0x2 PUSH1 0x6 PUSH1 0xA PUSH1 0xE DUP9 PUSH1 0x2 PUSH1 0x10 DUP2 LT PUSH2 0x1DF2 JUMPI INVALID JUMPDEST PUSH1 0x20 MUL ADD MLOAD DUP10 PUSH1 0x4 PUSH1 0x10 DUP2 LT PUSH2 0x1E04 JUMPI INVALID JUMPDEST PUSH1 0x20 MUL ADD MLOAD PUSH2 0xCDD JUMP JUMPDEST PUSH2 0x1E43 DUP5 PUSH1 0x3 PUSH1 0x7 PUSH1 0xB PUSH1 0xF DUP9 PUSH1 0xA PUSH1 0x10 DUP2 LT PUSH2 0x1E27 JUMPI INVALID JUMPDEST PUSH1 0x20 MUL ADD MLOAD DUP10 PUSH1 0xF PUSH1 0x10 DUP2 LT PUSH2 0x1E39 JUMPI INVALID JUMPDEST PUSH1 0x20 MUL ADD MLOAD PUSH2 0xCDD JUMP JUMPDEST PUSH2 0x1E78 DUP5 PUSH1 0x0 PUSH1 0x5 PUSH1 0xA PUSH1 0xF DUP9 PUSH1 0xE PUSH1 0x10 DUP2 LT PUSH2 0x1E5C JUMPI INVALID JUMPDEST PUSH1 0x20 MUL ADD MLOAD DUP10 PUSH1 0x1 PUSH1 0x10 DUP2 LT PUSH2 0x1E6E JUMPI INVALID JUMPDEST PUSH1 0x20 MUL ADD MLOAD PUSH2 0xCDD JUMP JUMPDEST PUSH2 0x1EAD DUP5 PUSH1 0x1 PUSH1 0x6 PUSH1 0xB PUSH1 0xC DUP9 PUSH1 0xB PUSH1 0x10 DUP2 LT PUSH2 0x1E91 JUMPI INVALID JUMPDEST PUSH1 0x20 MUL ADD MLOAD DUP10 PUSH1 0xC PUSH1 0x10 DUP2 LT PUSH2 0x1EA3 JUMPI INVALID JUMPDEST PUSH1 0x20 MUL ADD MLOAD PUSH2 0xCDD JUMP JUMPDEST PUSH2 0x1EE2 DUP5 PUSH1 0x2 PUSH1 0x7 PUSH1 0x8 PUSH1 0xD DUP9 PUSH1 0x6 PUSH1 0x10 DUP2 LT PUSH2 0x1EC6 JUMPI INVALID JUMPDEST PUSH1 0x20 MUL ADD MLOAD DUP10 PUSH1 0x8 PUSH1 0x10 DUP2 LT PUSH2 0x1ED8 JUMPI INVALID JUMPDEST PUSH1 0x20 MUL ADD MLOAD PUSH2 0xCDD JUMP JUMPDEST PUSH2 0x1F17 DUP5 PUSH1 0x3 PUSH1 0x4 PUSH1 0x9 PUSH1 0xE DUP9 PUSH1 0x3 PUSH1 0x10 DUP2 LT PUSH2 0x1EFB JUMPI INVALID JUMPDEST PUSH1 0x20 MUL ADD MLOAD DUP10 PUSH1 0xD PUSH1 0x10 DUP2 LT PUSH2 0x1F0D JUMPI INVALID JUMPDEST PUSH1 0x20 MUL ADD MLOAD PUSH2 0xCDD JUMP JUMPDEST PUSH2 0x1F4C DUP5 PUSH1 0x0 PUSH1 0x4 PUSH1 0x8 PUSH1 0xC DUP9 PUSH1 0x2 PUSH1 0x10 DUP2 LT PUSH2 0x1F30 JUMPI INVALID JUMPDEST PUSH1 0x20 MUL ADD MLOAD DUP10 PUSH1 0xC PUSH1 0x10 DUP2 LT PUSH2 0x1F42 JUMPI INVALID JUMPDEST PUSH1 0x20 MUL ADD MLOAD PUSH2 0xCDD JUMP JUMPDEST PUSH2 0x1F81 DUP5 PUSH1 0x1 PUSH1 0x5 PUSH1 0x9 PUSH1 0xD DUP9 PUSH1 0x6 PUSH1 0x10 DUP2 LT PUSH2 0x1F65 JUMPI INVALID JUMPDEST PUSH1 0x20 MUL ADD MLOAD DUP10 PUSH1 0xA PUSH1 0x10 DUP2 LT PUSH2 0x1F77 JUMPI INVALID JUMPDEST PUSH1 0x20 MUL ADD MLOAD PUSH2 0xCDD JUMP JUMPDEST PUSH2 0x1FB6 DUP5 PUSH1 0x2 PUSH1 0x6 PUSH1 0xA PUSH1 0xE DUP9 PUSH1 0x0 PUSH1 0x10 DUP2 LT PUSH2 0x1F9A JUMPI INVALID JUMPDEST PUSH1 0x20 MUL ADD MLOAD DUP10 PUSH1 0xB PUSH1 0x10 DUP2 LT PUSH2 0x1FAC JUMPI INVALID JUMPDEST PUSH1 0x20 MUL ADD MLOAD PUSH2 0xCDD JUMP JUMPDEST PUSH2 0x1FEB DUP5 PUSH1 0x3 PUSH1 0x7 PUSH1 0xB PUSH1 0xF DUP9 PUSH1 0x8 PUSH1 0x10 DUP2 LT PUSH2 0x1FCF JUMPI INVALID JUMPDEST PUSH1 0x20 MUL ADD MLOAD DUP10 PUSH1 0x3 PUSH1 0x10 DUP2 LT PUSH2 0x1FE1 JUMPI INVALID JUMPDEST PUSH1 0x20 MUL ADD MLOAD PUSH2 0xCDD JUMP JUMPDEST PUSH2 0x2020 DUP5 PUSH1 0x0 PUSH1 0x5 PUSH1 0xA PUSH1 0xF DUP9 PUSH1 0x4 PUSH1 0x10 DUP2 LT PUSH2 0x2004 JUMPI INVALID JUMPDEST PUSH1 0x20 MUL ADD MLOAD DUP10 PUSH1 0xD PUSH1 0x10 DUP2 LT PUSH2 0x2016 JUMPI INVALID JUMPDEST PUSH1 0x20 MUL ADD MLOAD PUSH2 0xCDD JUMP JUMPDEST PUSH2 0x2055 DUP5 PUSH1 0x1 PUSH1 0x6 PUSH1 0xB PUSH1 0xC DUP9 PUSH1 0x7 PUSH1 0x10 DUP2 LT PUSH2 0x2039 JUMPI INVALID JUMPDEST PUSH1 0x20 MUL ADD MLOAD DUP10 PUSH1 0x5 PUSH1 0x10 DUP2 LT PUSH2 0x204B JUMPI INVALID JUMPDEST PUSH1 0x20 MUL ADD MLOAD PUSH2 0xCDD JUMP JUMPDEST PUSH2 0x208A DUP5 PUSH1 0x2 PUSH1 0x7 PUSH1 0x8 PUSH1 0xD DUP9 PUSH1 0xF PUSH1 0x10 DUP2 LT PUSH2 0x206E JUMPI INVALID JUMPDEST PUSH1 0x20 MUL ADD MLOAD DUP10 PUSH1 0xE PUSH1 0x10 DUP2 LT PUSH2 0x2080 JUMPI INVALID JUMPDEST PUSH1 0x20 MUL ADD MLOAD PUSH2 0xCDD JUMP JUMPDEST PUSH2 0x20BF DUP5 PUSH1 0x3 PUSH1 0x4 PUSH1 0x9 PUSH1 0xE DUP9 PUSH1 0x1 PUSH1 0x10 DUP2 LT PUSH2 0x20A3 JUMPI INVALID JUMPDEST PUSH1 0x20 MUL ADD MLOAD DUP10 PUSH1 0x9 PUSH1 0x10 DUP2 LT PUSH2 0x20B5 JUMPI INVALID JUMPDEST PUSH1 0x20 MUL ADD MLOAD PUSH2 0xCDD JUMP JUMPDEST PUSH2 0x20F4 DUP5 PUSH1 0x0 PUSH1 0x4 PUSH1 0x8 PUSH1 0xC DUP9 PUSH1 0xC PUSH1 0x10 DUP2 LT PUSH2 0x20D8 JUMPI INVALID JUMPDEST PUSH1 0x20 MUL ADD MLOAD DUP10 PUSH1 0x5 PUSH1 0x10 DUP2 LT PUSH2 0x20EA JUMPI INVALID JUMPDEST PUSH1 0x20 MUL ADD MLOAD PUSH2 0xCDD JUMP JUMPDEST PUSH2 0x2129 DUP5 PUSH1 0x1 PUSH1 0x5 PUSH1 0x9 PUSH1 0xD DUP9 PUSH1 0x1 PUSH1 0x10 DUP2 LT PUSH2 0x210D JUMPI INVALID JUMPDEST PUSH1 0x20 MUL ADD MLOAD DUP10 PUSH1 0xF PUSH1 0x10 DUP2 LT PUSH2 0x211F JUMPI INVALID JUMPDEST PUSH1 0x20 MUL ADD MLOAD PUSH2 0xCDD JUMP JUMPDEST PUSH2 0x215E DUP5 PUSH1 0x2 PUSH1 0x6 PUSH1 0xA PUSH1 0xE DUP9 PUSH1 0xE PUSH1 0x10 DUP2 LT PUSH2 0x2142 JUMPI INVALID JUMPDEST PUSH1 0x20 MUL ADD MLOAD DUP10 PUSH1 0xD PUSH1 0x10 DUP2 LT PUSH2 0x2154 JUMPI INVALID JUMPDEST PUSH1 0x20 MUL ADD MLOAD PUSH2 0xCDD JUMP JUMPDEST PUSH2 0x2193 DUP5 PUSH1 0x3 PUSH1 0x7 PUSH1 0xB PUSH1 0xF DUP9 PUSH1 0x4 PUSH1 0x10 DUP2 LT PUSH2 0x2177 JUMPI INVALID JUMPDEST PUSH1 0x20 MUL ADD MLOAD DUP10 PUSH1 0xA PUSH1 0x10 DUP2 LT PUSH2 0x2189 JUMPI INVALID JUMPDEST PUSH1 0x20 MUL ADD MLOAD PUSH2 0xCDD JUMP JUMPDEST PUSH2 0x21C8 DUP5 PUSH1 0x0 PUSH1 0x5 PUSH1 0xA PUSH1 0xF DUP9 PUSH1 0x0 PUSH1 0x10 DUP2 LT PUSH2 0x21AC JUMPI INVALID JUMPDEST PUSH1 0x20 MUL ADD MLOAD DUP10 PUSH1 0x7 PUSH1 0x10 DUP2 LT PUSH2 0x21BE JUMPI INVALID JUMPDEST PUSH1 0x20 MUL ADD MLOAD PUSH2 0xCDD JUMP JUMPDEST PUSH2 0x21FD DUP5 PUSH1 0x1 PUSH1 0x6 PUSH1 0xB PUSH1 0xC DUP9 PUSH1 0x6 PUSH1 0x10 DUP2 LT PUSH2 0x21E1 JUMPI INVALID JUMPDEST PUSH1 0x20 MUL ADD MLOAD DUP10 PUSH1 0x3 PUSH1 0x10 DUP2 LT PUSH2 0x21F3 JUMPI INVALID JUMPDEST PUSH1 0x20 MUL ADD MLOAD PUSH2 0xCDD JUMP JUMPDEST PUSH2 0x2232 DUP5 PUSH1 0x2 PUSH1 0x7 PUSH1 0x8 PUSH1 0xD DUP9 PUSH1 0x9 PUSH1 0x10 DUP2 LT PUSH2 0x2216 JUMPI INVALID JUMPDEST PUSH1 0x20 MUL ADD MLOAD DUP10 PUSH1 0x2 PUSH1 0x10 DUP2 LT PUSH2 0x2228 JUMPI INVALID JUMPDEST PUSH1 0x20 MUL ADD MLOAD PUSH2 0xCDD JUMP JUMPDEST PUSH2 0x2267 DUP5 PUSH1 0x3 PUSH1 0x4 PUSH1 0x9 PUSH1 0xE DUP9 PUSH1 0x8 PUSH1 0x10 DUP2 LT PUSH2 0x224B JUMPI INVALID JUMPDEST PUSH1 0x20 MUL ADD MLOAD DUP10 PUSH1 0xB PUSH1 0x10 DUP2 LT PUSH2 0x225D JUMPI INVALID JUMPDEST PUSH1 0x20 MUL ADD MLOAD PUSH2 0xCDD JUMP JUMPDEST PUSH2 0x229C DUP5 PUSH1 0x0 PUSH1 0x4 PUSH1 0x8 PUSH1 0xC DUP9 PUSH1 0xD PUSH1 0x10 DUP2 LT PUSH2 0x2280 JUMPI INVALID JUMPDEST PUSH1 0x20 MUL ADD MLOAD DUP10 PUSH1 0xB PUSH1 0x10 DUP2 LT PUSH2 0x2292 JUMPI INVALID JUMPDEST PUSH1 0x20 MUL ADD MLOAD PUSH2 0xCDD JUMP JUMPDEST PUSH2 0x22D1 DUP5 PUSH1 0x1 PUSH1 0x5 PUSH1 0x9 PUSH1 0xD DUP9 PUSH1 0x7 PUSH1 0x10 DUP2 LT PUSH2 0x22B5 JUMPI INVALID JUMPDEST PUSH1 0x20 MUL ADD MLOAD DUP10 PUSH1 0xE PUSH1 0x10 DUP2 LT PUSH2 0x22C7 JUMPI INVALID JUMPDEST PUSH1 0x20 MUL ADD MLOAD PUSH2 0xCDD JUMP JUMPDEST PUSH2 0x2306 DUP5 PUSH1 0x2 PUSH1 0x6 PUSH1 0xA PUSH1 0xE DUP9 PUSH1 0xC PUSH1 0x10 DUP2 LT PUSH2 0x22EA JUMPI INVALID JUMPDEST PUSH1 0x20 MUL ADD MLOAD DUP10 PUSH1 0x1 PUSH1 0x10 DUP2 LT PUSH2 0x22FC JUMPI INVALID JUMPDEST PUSH1 0x20 MUL ADD MLOAD PUSH2 0xCDD JUMP JUMPDEST PUSH2 0x233B DUP5 PUSH1 0x3 PUSH1 0x7 PUSH1 0xB PUSH1 0xF DUP9 PUSH1 0x3 PUSH1 0x10 DUP2 LT PUSH2 0x231F JUMPI INVALID JUMPDEST PUSH1 0x20 MUL ADD MLOAD DUP10 PUSH1 0x9 PUSH1 0x10 DUP2 LT PUSH2 0x2331 JUMPI INVALID JUMPDEST PUSH1 0x20 MUL ADD MLOAD PUSH2 0xCDD JUMP JUMPDEST PUSH2 0x2370 DUP5 PUSH1 0x0 PUSH1 0x5 PUSH1 0xA PUSH1 0xF DUP9 PUSH1 0x5 PUSH1 0x10 DUP2 LT PUSH2 0x2354 JUMPI INVALID JUMPDEST PUSH1 0x20 MUL ADD MLOAD DUP10 PUSH1 0x0 PUSH1 0x10 DUP2 LT PUSH2 0x2366 JUMPI INVALID JUMPDEST PUSH1 0x20 MUL ADD MLOAD PUSH2 0xCDD JUMP JUMPDEST PUSH2 0x23A5 DUP5 PUSH1 0x1 PUSH1 0x6 PUSH1 0xB PUSH1 0xC DUP9 PUSH1 0xF PUSH1 0x10 DUP2 LT PUSH2 0x2389 JUMPI INVALID JUMPDEST PUSH1 0x20 MUL ADD MLOAD DUP10 PUSH1 0x4 PUSH1 0x10 DUP2 LT PUSH2 0x239B JUMPI INVALID JUMPDEST PUSH1 0x20 MUL ADD MLOAD PUSH2 0xCDD JUMP JUMPDEST PUSH2 0x23DA DUP5 PUSH1 0x2 PUSH1 0x7 PUSH1 0x8 PUSH1 0xD DUP9 PUSH1 0x8 PUSH1 0x10 DUP2 LT PUSH2 0x23BE JUMPI INVALID JUMPDEST PUSH1 0x20 MUL ADD MLOAD DUP10 PUSH1 0x6 PUSH1 0x10 DUP2 LT PUSH2 0x23D0 JUMPI INVALID JUMPDEST PUSH1 0x20 MUL ADD MLOAD PUSH2 0xCDD JUMP JUMPDEST PUSH2 0x240F DUP5 PUSH1 0x3 PUSH1 0x4 PUSH1 0x9 PUSH1 0xE DUP9 PUSH1 0x2 PUSH1 0x10 DUP2 LT PUSH2 0x23F3 JUMPI INVALID JUMPDEST PUSH1 0x20 MUL ADD MLOAD DUP10 PUSH1 0xA PUSH1 0x10 DUP2 LT PUSH2 0x2405 JUMPI INVALID JUMPDEST PUSH1 0x20 MUL ADD MLOAD PUSH2 0xCDD JUMP JUMPDEST PUSH2 0x2444 DUP5 PUSH1 0x0 PUSH1 0x4 PUSH1 0x8 PUSH1 0xC DUP9 PUSH1 0x6 PUSH1 0x10 DUP2 LT PUSH2 0x2428 JUMPI INVALID JUMPDEST PUSH1 0x20 MUL ADD MLOAD DUP10 PUSH1 0xF PUSH1 0x10 DUP2 LT PUSH2 0x243A JUMPI INVALID JUMPDEST PUSH1 0x20 MUL ADD MLOAD PUSH2 0xCDD JUMP JUMPDEST PUSH2 0x2479 DUP5 PUSH1 0x1 PUSH1 0x5 PUSH1 0x9 PUSH1 0xD DUP9 PUSH1 0xE PUSH1 0x10 DUP2 LT PUSH2 0x245D JUMPI INVALID JUMPDEST PUSH1 0x20 MUL ADD MLOAD DUP10 PUSH1 0x9 PUSH1 0x10 DUP2 LT PUSH2 0x246F JUMPI INVALID JUMPDEST PUSH1 0x20 MUL ADD MLOAD PUSH2 0xCDD JUMP JUMPDEST PUSH2 0x24AE DUP5 PUSH1 0x2 PUSH1 0x6 PUSH1 0xA PUSH1 0xE DUP9 PUSH1 0xB PUSH1 0x10 DUP2 LT PUSH2 0x2492 JUMPI INVALID JUMPDEST PUSH1 0x20 MUL ADD MLOAD DUP10 PUSH1 0x3 PUSH1 0x10 DUP2 LT PUSH2 0x24A4 JUMPI INVALID JUMPDEST PUSH1 0x20 MUL ADD MLOAD PUSH2 0xCDD JUMP JUMPDEST PUSH2 0x24E3 DUP5 PUSH1 0x3 PUSH1 0x7 PUSH1 0xB PUSH1 0xF DUP9 PUSH1 0x0 PUSH1 0x10 DUP2 LT PUSH2 0x24C7 JUMPI INVALID JUMPDEST PUSH1 0x20 MUL ADD MLOAD DUP10 PUSH1 0x8 PUSH1 0x10 DUP2 LT PUSH2 0x24D9 JUMPI INVALID JUMPDEST PUSH1 0x20 MUL ADD MLOAD PUSH2 0xCDD JUMP JUMPDEST PUSH2 0x2518 DUP5 PUSH1 0x0 PUSH1 0x5 PUSH1 0xA PUSH1 0xF DUP9 PUSH1 0xC PUSH1 0x10 DUP2 LT PUSH2 0x24FC JUMPI INVALID JUMPDEST PUSH1 0x20 MUL ADD MLOAD DUP10 PUSH1 0x2 PUSH1 0x10 DUP2 LT PUSH2 0x250E JUMPI INVALID JUMPDEST PUSH1 0x20 MUL ADD MLOAD PUSH2 0xCDD JUMP JUMPDEST PUSH2 0x254D DUP5 PUSH1 0x1 PUSH1 0x6 PUSH1 0xB PUSH1 0xC DUP9 PUSH1 0xD PUSH1 0x10 DUP2 LT PUSH2 0x2531 JUMPI INVALID JUMPDEST PUSH1 0x20 MUL ADD MLOAD DUP10 PUSH1 0x7 PUSH1 0x10 DUP2 LT PUSH2 0x2543 JUMPI INVALID JUMPDEST PUSH1 0x20 MUL ADD MLOAD PUSH2 0xCDD JUMP JUMPDEST PUSH2 0x2582 DUP5 PUSH1 0x2 PUSH1 0x7 PUSH1 0x8 PUSH1 0xD DUP9 PUSH1 0x1 PUSH1 0x10 DUP2 LT PUSH2 0x2566 JUMPI INVALID JUMPDEST PUSH1 0x20 MUL ADD MLOAD DUP10 PUSH1 0x4 PUSH1 0x10 DUP2 LT PUSH2 0x2578 JUMPI INVALID JUMPDEST PUSH1 0x20 MUL ADD MLOAD PUSH2 0xCDD JUMP JUMPDEST PUSH2 0x25B7 DUP5 PUSH1 0x3 PUSH1 0x4 PUSH1 0x9 PUSH1 0xE DUP9 PUSH1 0xA PUSH1 0x10 DUP2 LT PUSH2 0x259B JUMPI INVALID JUMPDEST PUSH1 0x20 MUL ADD MLOAD DUP10 PUSH1 0x5 PUSH1 0x10 DUP2 LT PUSH2 0x25AD JUMPI INVALID JUMPDEST PUSH1 0x20 MUL ADD MLOAD PUSH2 0xCDD JUMP JUMPDEST PUSH2 0x25EC DUP5 PUSH1 0x0 PUSH1 0x4 PUSH1 0x8 PUSH1 0xC DUP9 PUSH1 0xA PUSH1 0x10 DUP2 LT PUSH2 0x25D0 JUMPI INVALID JUMPDEST PUSH1 0x20 MUL ADD MLOAD DUP10 PUSH1 0x2 PUSH1 0x10 DUP2 LT PUSH2 0x25E2 JUMPI INVALID JUMPDEST PUSH1 0x20 MUL ADD MLOAD PUSH2 0xCDD JUMP JUMPDEST PUSH2 0x2621 DUP5 PUSH1 0x1 PUSH1 0x5 PUSH1 0x9 PUSH1 0xD DUP9 PUSH1 0x8 PUSH1 0x10 DUP2 LT PUSH2 0x2605 JUMPI INVALID JUMPDEST PUSH1 0x20 MUL ADD MLOAD DUP10 PUSH1 0x4 PUSH1 0x10 DUP2 LT PUSH2 0x2617 JUMPI INVALID JUMPDEST PUSH1 0x20 MUL ADD MLOAD PUSH2 0xCDD JUMP JUMPDEST PUSH2 0x2656 DUP5 PUSH1 0x2 PUSH1 0x6 PUSH1 0xA PUSH1 0xE DUP9 PUSH1 0x7 PUSH1 0x10 DUP2 LT PUSH2 0x263A JUMPI INVALID JUMPDEST PUSH1 0x20 MUL ADD MLOAD DUP10 PUSH1 0x6 PUSH1 0x10 DUP2 LT PUSH2 0x264C JUMPI INVALID JUMPDEST PUSH1 0x20 MUL ADD MLOAD PUSH2 0xCDD JUMP JUMPDEST PUSH2 0x268B DUP5 PUSH1 0x3 PUSH1 0x7 PUSH1 0xB PUSH1 0xF DUP9 PUSH1 0x1 PUSH1 0x10 DUP2 LT PUSH2 0x266F JUMPI INVALID JUMPDEST PUSH1 0x20 MUL ADD MLOAD DUP10 PUSH1 0x5 PUSH1 0x10 DUP2 LT PUSH2 0x2681 JUMPI INVALID JUMPDEST PUSH1 0x20 MUL ADD MLOAD PUSH2 0xCDD JUMP JUMPDEST PUSH2 0x26C0 DUP5 PUSH1 0x0 PUSH1 0x5 PUSH1 0xA PUSH1 0xF DUP9 PUSH1 0xF PUSH1 0x10 DUP2 LT PUSH2 0x26A4 JUMPI INVALID JUMPDEST PUSH1 0x20 MUL ADD MLOAD DUP10 PUSH1 0xB PUSH1 0x10 DUP2 LT PUSH2 0x26B6 JUMPI INVALID JUMPDEST PUSH1 0x20 MUL ADD MLOAD PUSH2 0xCDD JUMP JUMPDEST PUSH2 0x26F5 DUP5 PUSH1 0x1 PUSH1 0x6 PUSH1 0xB PUSH1 0xC DUP9 PUSH1 0x9 PUSH1 0x10 DUP2 LT PUSH2 0x26D9 JUMPI INVALID JUMPDEST PUSH1 0x20 MUL ADD MLOAD DUP10 PUSH1 0xE PUSH1 0x10 DUP2 LT PUSH2 0x26EB JUMPI INVALID JUMPDEST PUSH1 0x20 MUL ADD MLOAD PUSH2 0xCDD JUMP JUMPDEST PUSH2 0x272A DUP5 PUSH1 0x2 PUSH1 0x7 PUSH1 0x8 PUSH1 0xD DUP9 PUSH1 0x3 PUSH1 0x10 DUP2 LT PUSH2 0x270E JUMPI INVALID JUMPDEST PUSH1 0x20 MUL ADD MLOAD DUP10 PUSH1 0xC PUSH1 0x10 DUP2 LT PUSH2 0x2720 JUMPI INVALID JUMPDEST PUSH1 0x20 MUL ADD MLOAD PUSH2 0xCDD JUMP JUMPDEST PUSH2 0x275F DUP5 PUSH1 0x3 PUSH1 0x4 PUSH1 0x9 PUSH1 0xE DUP9 PUSH1 0xD PUSH1 0x10 DUP2 LT PUSH2 0x2743 JUMPI INVALID JUMPDEST PUSH1 0x20 MUL ADD MLOAD DUP10 PUSH1 0x0 PUSH1 0x10 DUP2 LT PUSH2 0x2755 JUMPI INVALID JUMPDEST PUSH1 0x20 MUL ADD MLOAD PUSH2 0xCDD JUMP JUMPDEST PUSH2 0x2794 DUP5 PUSH1 0x0 PUSH1 0x4 PUSH1 0x8 PUSH1 0xC DUP9 PUSH1 0x0 PUSH1 0x10 DUP2 LT PUSH2 0x2778 JUMPI INVALID JUMPDEST PUSH1 0x20 MUL ADD MLOAD DUP10 PUSH1 0x1 PUSH1 0x10 DUP2 LT PUSH2 0x278A JUMPI INVALID JUMPDEST PUSH1 0x20 MUL ADD MLOAD PUSH2 0xCDD JUMP JUMPDEST PUSH2 0x27C9 DUP5 PUSH1 0x1 PUSH1 0x5 PUSH1 0x9 PUSH1 0xD DUP9 PUSH1 0x2 PUSH1 0x10 DUP2 LT PUSH2 0x27AD JUMPI INVALID JUMPDEST PUSH1 0x20 MUL ADD MLOAD DUP10 PUSH1 0x3 PUSH1 0x10 DUP2 LT PUSH2 0x27BF JUMPI INVALID JUMPDEST PUSH1 0x20 MUL ADD MLOAD PUSH2 0xCDD JUMP JUMPDEST PUSH2 0x27FE DUP5 PUSH1 0x2 PUSH1 0x6 PUSH1 0xA PUSH1 0xE DUP9 PUSH1 0x4 PUSH1 0x10 DUP2 LT PUSH2 0x27E2 JUMPI INVALID JUMPDEST PUSH1 0x20 MUL ADD MLOAD DUP10 PUSH1 0x5 PUSH1 0x10 DUP2 LT PUSH2 0x27F4 JUMPI INVALID JUMPDEST PUSH1 0x20 MUL ADD MLOAD PUSH2 0xCDD JUMP JUMPDEST PUSH2 0x2833 DUP5 PUSH1 0x3 PUSH1 0x7 PUSH1 0xB PUSH1 0xF DUP9 PUSH1 0x6 PUSH1 0x10 DUP2 LT PUSH2 0x2817 JUMPI INVALID JUMPDEST PUSH1 0x20 MUL ADD MLOAD DUP10 PUSH1 0x7 PUSH1 0x10 DUP2 LT PUSH2 0x2829 JUMPI INVALID JUMPDEST PUSH1 0x20 MUL ADD MLOAD PUSH2 0xCDD JUMP JUMPDEST PUSH2 0x2868 DUP5 PUSH1 0x0 PUSH1 0x5 PUSH1 0xA PUSH1 0xF DUP9 PUSH1 0x8 PUSH1 0x10 DUP2 LT PUSH2 0x284C JUMPI INVALID JUMPDEST PUSH1 0x20 MUL ADD MLOAD DUP10 PUSH1 0x9 PUSH1 0x10 DUP2 LT PUSH2 0x285E JUMPI INVALID JUMPDEST PUSH1 0x20 MUL ADD MLOAD PUSH2 0xCDD JUMP JUMPDEST PUSH2 0x289D DUP5 PUSH1 0x1 PUSH1 0x6 PUSH1 0xB PUSH1 0xC DUP9 PUSH1 0xA PUSH1 0x10 DUP2 LT PUSH2 0x2881 JUMPI INVALID JUMPDEST PUSH1 0x20 MUL ADD MLOAD DUP10 PUSH1 0xB PUSH1 0x10 DUP2 LT PUSH2 0x2893 JUMPI INVALID JUMPDEST PUSH1 0x20 MUL ADD MLOAD PUSH2 0xCDD JUMP JUMPDEST PUSH2 0x28D2 DUP5 PUSH1 0x2 PUSH1 0x7 PUSH1 0x8 PUSH1 0xD DUP9 PUSH1 0xC PUSH1 0x10 DUP2 LT PUSH2 0x28B6 JUMPI INVALID JUMPDEST PUSH1 0x20 MUL ADD MLOAD DUP10 PUSH1 0xD PUSH1 0x10 DUP2 LT PUSH2 0x28C8 JUMPI INVALID JUMPDEST PUSH1 0x20 MUL ADD MLOAD PUSH2 0xCDD JUMP JUMPDEST PUSH2 0x2907 DUP5 PUSH1 0x3 PUSH1 0x4 PUSH1 0x9 PUSH1 0xE DUP9 PUSH1 0xE PUSH1 0x10 DUP2 LT PUSH2 0x28EB JUMPI INVALID JUMPDEST PUSH1 0x20 MUL ADD MLOAD DUP10 PUSH1 0xF PUSH1 0x10 DUP2 LT PUSH2 0x28FD JUMPI INVALID JUMPDEST PUSH1 0x20 MUL ADD MLOAD PUSH2 0xCDD JUMP JUMPDEST PUSH2 0x293C DUP5 PUSH1 0x0 PUSH1 0x4 PUSH1 0x8 PUSH1 0xC DUP9 PUSH1 0xE PUSH1 0x10 DUP2 LT PUSH2 0x2920 JUMPI INVALID JUMPDEST PUSH1 0x20 MUL ADD MLOAD DUP10 PUSH1 0xA PUSH1 0x10 DUP2 LT PUSH2 0x2932 JUMPI INVALID JUMPDEST PUSH1 0x20 MUL ADD MLOAD PUSH2 0xCDD JUMP JUMPDEST PUSH2 0x2971 DUP5 PUSH1 0x1 PUSH1 0x5 PUSH1 0x9 PUSH1 0xD DUP9 PUSH1 0x4 PUSH1 0x10 DUP2 LT PUSH2 0x2955 JUMPI INVALID JUMPDEST PUSH1 0x20 MUL ADD MLOAD DUP10 PUSH1 0x8 PUSH1 0x10 DUP2 LT PUSH2 0x2967 JUMPI INVALID JUMPDEST PUSH1 0x20 MUL ADD MLOAD PUSH2 0xCDD JUMP JUMPDEST PUSH2 0x29A6 DUP5 PUSH1 0x2 PUSH1 0x6 PUSH1 0xA PUSH1 0xE DUP9 PUSH1 0x9 PUSH1 0x10 DUP2 LT PUSH2 0x298A JUMPI INVALID JUMPDEST PUSH1 0x20 MUL ADD MLOAD DUP10 PUSH1 0xF PUSH1 0x10 DUP2 LT PUSH2 0x299C JUMPI INVALID JUMPDEST PUSH1 0x20 MUL ADD MLOAD PUSH2 0xCDD JUMP JUMPDEST PUSH2 0x29DB DUP5 PUSH1 0x3 PUSH1 0x7 PUSH1 0xB PUSH1 0xF DUP9 PUSH1 0xD PUSH1 0x10 DUP2 LT PUSH2 0x29BF JUMPI INVALID JUMPDEST PUSH1 0x20 MUL ADD MLOAD DUP10 PUSH1 0x6 PUSH1 0x10 DUP2 LT PUSH2 0x29D1 JUMPI INVALID JUMPDEST PUSH1 0x20 MUL ADD MLOAD PUSH2 0xCDD JUMP JUMPDEST PUSH2 0x2A10 DUP5 PUSH1 0x0 PUSH1 0x5 PUSH1 0xA PUSH1 0xF DUP9 PUSH1 0x1 PUSH1 0x10 DUP2 LT PUSH2 0x29F4 JUMPI INVALID JUMPDEST PUSH1 0x20 MUL ADD MLOAD DUP10 PUSH1 0xC PUSH1 0x10 DUP2 LT PUSH2 0x2A06 JUMPI INVALID JUMPDEST PUSH1 0x20 MUL ADD MLOAD PUSH2 0xCDD JUMP JUMPDEST PUSH2 0x2A45 DUP5 PUSH1 0x1 PUSH1 0x6 PUSH1 0xB PUSH1 0xC DUP9 PUSH1 0x0 PUSH1 0x10 DUP2 LT PUSH2 0x2A29 JUMPI INVALID JUMPDEST PUSH1 0x20 MUL ADD MLOAD DUP10 PUSH1 0x2 PUSH1 0x10 DUP2 LT PUSH2 0x2A3B JUMPI INVALID JUMPDEST PUSH1 0x20 MUL ADD MLOAD PUSH2 0xCDD JUMP JUMPDEST PUSH2 0x2A7A DUP5 PUSH1 0x2 PUSH1 0x7 PUSH1 0x8 PUSH1 0xD DUP9 PUSH1 0xB PUSH1 0x10 DUP2 LT PUSH2 0x2A5E JUMPI INVALID JUMPDEST PUSH1 0x20 MUL ADD MLOAD DUP10 PUSH1 0x7 PUSH1 0x10 DUP2 LT PUSH2 0x2A70 JUMPI INVALID JUMPDEST PUSH1 0x20 MUL ADD MLOAD PUSH2 0xCDD JUMP JUMPDEST PUSH2 0x2AAF DUP5 PUSH1 0x3 PUSH1 0x4 PUSH1 0x9 PUSH1 0xE DUP9 PUSH1 0x5 PUSH1 0x10 DUP2 LT PUSH2 0x2A93 JUMPI INVALID JUMPDEST PUSH1 0x20 MUL ADD MLOAD DUP10 PUSH1 0x3 PUSH1 0x10 DUP2 LT PUSH2 0x2AA5 JUMPI INVALID JUMPDEST PUSH1 0x20 MUL ADD MLOAD PUSH2 0xCDD JUMP JUMPDEST PUSH1 0x0 JUMPDEST PUSH1 0x8 DUP2 LT ISZERO PUSH2 0x2B31 JUMPI DUP5 PUSH1 0x8 DUP3 ADD PUSH1 0x10 DUP2 LT PUSH2 0x2ACA JUMPI INVALID JUMPDEST PUSH1 0x20 MUL ADD MLOAD DUP6 DUP3 PUSH1 0x10 DUP2 LT PUSH2 0x2ADB JUMPI INVALID JUMPDEST PUSH1 0x20 MUL ADD MLOAD DUP9 PUSH1 0x20 ADD MLOAD DUP4 PUSH1 0x8 DUP2 LT PUSH2 0x2AF0 JUMPI INVALID JUMPDEST PUSH1 0x20 MUL ADD MLOAD XOR XOR DUP8 PUSH1 0x20 ADD MLOAD DUP3 PUSH1 0x8 DUP2 LT PUSH2 0x2B07 JUMPI INVALID JUMPDEST PUSH1 0x20 MUL ADD SWAP1 PUSH8 0xFFFFFFFFFFFFFFFF AND SWAP1 DUP2 PUSH8 0xFFFFFFFFFFFFFFFF AND DUP2 MSTORE POP POP DUP1 PUSH1 0x1 ADD SWAP1 POP PUSH2 0x2AB2 JUMP JUMPDEST POP PUSH32 0x999C4803E6E6345F2B927481896462F9436785C8F60B07321E015C4F4EE713CF DUP7 PUSH1 0x20 ADD MLOAD PUSH1 0x40 MLOAD DUP1 DUP3 PUSH1 0x8 PUSH1 0x20 MUL DUP1 DUP4 DUP4 PUSH1 0x0 JUMPDEST DUP4 DUP2 LT ISZERO PUSH2 0x2B83 JUMPI DUP1 DUP3 ADD MLOAD DUP2 DUP5 ADD MSTORE PUSH1 0x20 DUP2 ADD SWAP1 POP PUSH2 0x2B68 JUMP JUMPDEST POP POP POP POP SWAP1 POP ADD SWAP2 POP POP PUSH1 0x40 MLOAD DUP1 SWAP2 SUB SWAP1 LOG1 POP POP POP POP POP POP JUMP JUMPDEST PUSH2 0x2BA5 PUSH2 0x2D95 JUMP JUMPDEST PUSH1 0x0 PUSH1 0xC SWAP1 POP PUSH2 0x2BB3 PUSH2 0x2D95 JUMP JUMPDEST PUSH1 0x0 DUP3 DUP7 PUSH1 0x20 ADD MLOAD DUP8 PUSH1 0x0 ADD MLOAD DUP9 PUSH1 0x40 ADD MLOAD DUP9 PUSH1 0x40 MLOAD PUSH1 0x20 ADD DUP1 DUP7 PUSH4 0xFFFFFFFF AND PUSH1 0xE0 SHL DUP2 MSTORE PUSH1 0x4 ADD DUP6 PUSH1 0x8 PUSH1 0x20 MUL DUP1 DUP4 DUP4 PUSH1 0x0 JUMPDEST DUP4 DUP2 LT ISZERO PUSH2 0x2C03 JUMPI DUP1 DUP3 ADD MLOAD DUP2 DUP5 ADD MSTORE PUSH1 0x20 DUP2 ADD SWAP1 POP PUSH2 0x2BE8 JUMP JUMPDEST POP POP POP POP SWAP1 POP ADD DUP5 PUSH1 0x4 PUSH1 0x20 MUL DUP1 DUP4 DUP4 PUSH1 0x0 JUMPDEST DUP4 DUP2 LT ISZERO PUSH2 0x2C31 JUMPI DUP1 DUP3 ADD MLOAD DUP2 DUP5 ADD MSTORE PUSH1 0x20 DUP2 ADD SWAP1 POP PUSH2 0x2C16 JUMP JUMPDEST POP POP POP POP SWAP1 POP ADD DUP4 PUSH16 0xFFFFFFFFFFFFFFFFFFFFFFFFFFFFFFFF AND PUSH1 0x80 SHL DUP2 MSTORE PUSH1 0x10 ADD DUP3 ISZERO ISZERO PUSH1 0xF8 SHL DUP2 MSTORE PUSH1 0x1 ADD SWAP6 POP POP POP POP POP POP PUSH1 0x40 MLOAD PUSH1 0x20 DUP2 DUP4 SUB SUB DUP2 MSTORE SWAP1 PUSH1 0x40 MSTORE SWAP1 POP PUSH1 0x40 DUP3 PUSH1 0xD5 PUSH1 0x20 DUP5 ADD PUSH1 0x9 PUSH1 0x0 NOT STATICCALL PUSH2 0x2C8E JUMPI PUSH1 0x0 DUP1 REVERT JUMPDEST PUSH32 0x2C67EDBC4C4588B6DF5C180DD391C50A232ED0D2272CB0553D26E4950C3B2FD2 DUP3 PUSH1 0x40 MLOAD DUP1 DUP3 PUSH1 0x2 PUSH1 0x20 MUL DUP1 DUP4 DUP4 PUSH1 0x0 JUMPDEST DUP4 DUP2 LT ISZERO PUSH2 0x2CDB JUMPI DUP1 DUP3 ADD MLOAD DUP2 DUP5 ADD MSTORE PUSH1 0x20 DUP2 ADD SWAP1 POP PUSH2 0x2CC0 JUMP JUMPDEST POP POP POP POP SWAP1 POP ADD SWAP2 POP POP PUSH1 0x40 MLOAD DUP1 SWAP2 SUB SWAP1 LOG1 DUP2 SWAP4 POP POP POP POP SWAP3 SWAP2 POP POP JUMP JUMPDEST PUSH1 0x40 MLOAD DUP1 PUSH2 0x100 ADD PUSH1 0x40 MSTORE DUP1 PUSH1 0x8 SWAP1 PUSH1 0x20 DUP3 MUL DUP1 CALLDATASIZE DUP4 CALLDATACOPY DUP1 DUP3 ADD SWAP2 POP POP SWAP1 POP POP SWAP1 JUMP JUMPDEST PUSH1 0x40 MLOAD DUP1 PUSH1 0xA0 ADD PUSH1 0x40 MSTORE DUP1 PUSH2 0x2D2F PUSH2 0x2DDA JUMP JUMPDEST DUP2 MSTORE PUSH1 0x20 ADD PUSH2 0x2D3C PUSH2 0x2CF9 JUMP JUMPDEST DUP2 MSTORE PUSH1 0x20 ADD PUSH1 0x0 PUSH16 0xFFFFFFFFFFFFFFFFFFFFFFFFFFFFFFFF AND DUP2 MSTORE PUSH1 0x20 ADD PUSH1 0x0 PUSH8 0xFFFFFFFFFFFFFFFF AND DUP2 MSTORE PUSH1 0x20 ADD PUSH1 0x0 DUP2 MSTORE POP SWAP1 JUMP JUMPDEST PUSH1 0x40 MLOAD DUP1 PUSH1 0x40 ADD PUSH1 0x40 MSTORE DUP1 PUSH1 0x2 SWAP1 PUSH1 0x20 DUP3 MUL DUP1 CALLDATASIZE DUP4 CALLDATACOPY DUP1 DUP3 ADD SWAP2 POP POP SWAP1 POP POP SWAP1 JUMP JUMPDEST PUSH1 0x40 MLOAD DUP1 PUSH1 0x40 ADD PUSH1 0x40 MSTORE DUP1 PUSH1 0x2 SWAP1 PUSH1 0x20 DUP3 MUL DUP1 CALLDATASIZE DUP4 CALLDATACOPY DUP1 DUP3 ADD SWAP2 POP POP SWAP1 POP POP SWAP1 JUMP JUMPDEST PUSH1 0x40 MLOAD DUP1 PUSH2 0x200 ADD PUSH1 0x40 MSTORE DUP1 PUSH1 0x10 SWAP1 PUSH1 0x20 DUP3 MUL DUP1 CALLDATASIZE DUP4 CALLDATACOPY DUP1 DUP3 ADD SWAP2 POP POP SWAP1 POP POP SWAP1 JUMP JUMPDEST PUSH1 0x40 MLOAD DUP1 PUSH1 0x80 ADD PUSH1 0x40 MSTORE DUP1 PUSH1 0x4 SWAP1 PUSH1 0x20 DUP3 MUL DUP1 CALLDATASIZE DUP4 CALLDATACOPY DUP1 DUP3 ADD SWAP2 POP POP SWAP1 POP POP SWAP1 JUMP INVALID 0x4F PUSH22 0x746C656E206D75737420626520677265617465722074 PUSH9 0x616E203020616E6420 PUSH13 0x657373207468616E203634A264 PUSH10 0x7066735822122076ED9D 0x1F BALANCE BALANCE 0x4C 0xC INVALID 0xCF MULMOD 0xC2 0xBC CODECOPY DELEGATECALL CALLDATACOPY 0x5E 0xEB 0x48 0x23 0xF CALL SWAP13 0xBD SLOAD GASPRICE LOG1 0x5D 0xB7 SWAP7 0xF6 0xDC PUSH5 0x736F6C6343 STOP SMOD MOD STOP CALLER "
		},
		"gasEstimates": {
			"creation": {
				"codeDepositCost": "807800",
				"executionCost": "infinite",
				"totalCost": "infinite"
			},
			"external": {
				"bytesToBytes32(bytes)": "infinite",
				"create64Hash(bytes,bytes)": "infinite",
				"createHash(bytes)": "infinite",
				"createHash(bytes,bool)": "infinite",
				"createHash(bytes,bytes)": "infinite",
				"createHash(bytes,bytes,bool)": "infinite",
				"reverseBytes(bytes32)": "infinite"
			}
		},
		"methodIdentifiers": {
			"bytesToBytes32(bytes)": "bfe370d9",
			"create64Hash(bytes,bytes)": "c984bae8",
			"createHash(bytes)": "2cd0cff2",
			"createHash(bytes,bool)": "e56e814b",
			"createHash(bytes,bytes)": "fe5320bf",
			"createHash(bytes,bytes,bool)": "95c12f53",
			"reverseBytes(bytes32)": "2f0da104"
		}
	},
	"abi": [
		{
			"inputs": [],
			"stateMutability": "nonpayable",
			"type": "constructor"
		},
		{
			"inputs": [
				{
					"internalType": "bytes",
					"name": "source",
					"type": "bytes"
				}
			],
			"name": "bytesToBytes32",
			"outputs": [
				{
					"internalType": "bytes32",
					"name": "result",
					"type": "bytes32"
				}
			],
			"stateMutability": "pure",
			"type": "function"
		},
		{
			"inputs": [
				{
					"internalType": "bytes",
					"name": "testString",
					"type": "bytes"
				},
				{
					"internalType": "bytes",
					"name": "key",
					"type": "bytes"
				}
			],
			"name": "create64Hash",
			"outputs": [
				{
					"internalType": "bytes",
					"name": "",
					"type": "bytes"
				}
			],
			"stateMutability": "nonpayable",
			"type": "function"
		},
		{
			"inputs": [
				{
					"internalType": "bytes",
					"name": "toHash",
					"type": "bytes"
				}
			],
			"name": "createHash",
			"outputs": [
				{
					"internalType": "bytes32",
					"name": "",
					"type": "bytes32"
				}
			],
			"stateMutability": "nonpayable",
			"type": "function"
		},
		{
			"inputs": [
				{
					"internalType": "bytes",
					"name": "toHash",
					"type": "bytes"
				},
				{
					"internalType": "bytes",
					"name": "personalisation",
					"type": "bytes"
				},
				{
					"internalType": "bool",
					"name": "flipped",
					"type": "bool"
				}
			],
			"name": "createHash",
			"outputs": [
				{
					"internalType": "bytes32",
					"name": "",
					"type": "bytes32"
				}
			],
			"stateMutability": "nonpayable",
			"type": "function"
		},
		{
			"inputs": [
				{
					"internalType": "bytes",
					"name": "toHash",
					"type": "bytes"
				},
				{
					"internalType": "bool",
					"name": "flipped",
					"type": "bool"
				}
			],
			"name": "createHash",
			"outputs": [
				{
					"internalType": "bytes32",
					"name": "",
					"type": "bytes32"
				}
			],
			"stateMutability": "nonpayable",
			"type": "function"
		},
		{
			"inputs": [
				{
					"internalType": "bytes",
					"name": "toHash",
					"type": "bytes"
				},
				{
					"internalType": "bytes",
					"name": "personalisation",
					"type": "bytes"
				}
			],
			"name": "createHash",
			"outputs": [
				{
					"internalType": "bytes32",
					"name": "",
					"type": "bytes32"
				}
			],
			"stateMutability": "nonpayable",
			"type": "function"
		},
		{
			"inputs": [
				{
					"internalType": "bytes32",
					"name": "_bytes32",
					"type": "bytes32"
				}
			],
			"name": "reverseBytes",
			"outputs": [
				{
					"internalType": "bytes32",
					"name": "",
					"type": "bytes32"
				}
			],
			"stateMutability": "pure",
			"type": "function"
		}
	]
}