{
	"data": {
		"bytecode": {
			"linkReferences": {},
			"object": "608060405234801561001057600080fd5b5061172f806100206000396000f3fe608060405234801561001057600080fd5b50600436106101005760003560e01c80636127b4ff11610097578063c6f4c26911610066578063c6f4c26914610345578063cecb304314610375578063e4cba547146103a5578063f20fb830146103d557610100565b80636127b4ff1461028557806368b4ae81146102b5578063af832f09146102e5578063c41c134d1461031557610100565b8063241d23b2116100d3578063241d23b2146101c5578063463276c3146101f55780634efc5da11461022557806357759e151461025557610100565b80631222d81a14610105578063122e5ae71461013557806314282c61146101655780631b5656cf14610195575b600080fd5b61011f600480360381019061011a9190610db7565b610405565b60405161012c919061131c565b60405180910390f35b61014f600480360381019061014a9190610f82565b6104d6565b60405161015c919061131c565b60405180910390f35b61017f600480360381019061017a9190610e8b565b61050c565b60405161018c919061131c565b60405180910390f35b6101af60048036038101906101aa9190610d4d565b610595565b6040516101bc919061131c565b60405180910390f35b6101df60048036038101906101da9190610ce3565b610606565b6040516101ec919061131c565b60405180910390f35b61020f600480360381019061020a9190610d8e565b610637565b60405161021c919061131c565b60405180910390f35b61023f600480360381019061023a9190610eb5565b610660565b60405161024c919061131c565b60405180910390f35b61026f600480360381019061026a9190610f07565b6106cd565b60405161027c919061131c565b60405180910390f35b61029f600480360381019061029a9190610fab565b610703565b6040516102ac919061131c565b60405180910390f35b6102cf60048036038101906102ca9190610e21565b610739565b6040516102dc919061131c565b60405180910390f35b6102ff60048036038101906102fa9190610df8565b610762565b60405161030c919061131c565b60405180910390f35b61032f600480360381019061032a9190610e62565b610798565b60405161033c919061131c565b60405180910390f35b61035f600480360381019061035a9190610d0c565b6107db565b60405161036c919061131c565b60405180910390f35b61038f600480360381019061038a9190610f59565b61084c565b60405161039c919061131c565b60405180910390f35b6103bf60048036038101906103ba9190610ede565b610882565b6040516103cc919061131c565b60405180910390f35b6103ef60048036038101906103ea9190610f30565b6108b8565b6040516103fc919061131c565b60405180910390f35b606060008251905060608167ffffffffffffffff8111801561042657600080fd5b506040519080825280601f01601f1916602001820160405280156104595781602001600182028036833780820191505090505b50905060005b828110156104cb57846001828503038151811061047857fe5b602001015160f81c60f81b82828151811061048f57fe5b60200101907effffffffffffffffffffffffffffffffffffffffffffffffffffffffffffff1916908160001a905350808060010191505061045f565b819350505050919050565b606080826040516020016104ea91906112e6565b604051602081830303815290604052905061050481610405565b915050919050565b606061051b826000015161084c565b61052883602001516106cd565b61053584604001516104d6565b6105428560600151610660565b61054f86608001516104d6565b61055c8760a001516106cd565b6105698860c001516106cd565b60405160200161057f97969594939291906111e3565b6040516020818303038152906040529050919050565b6060806105a283516108b8565b905060005b83518110156105fc57816105cd8583815181106105c057fe5b602002602001015161050c565b6040516020016105de929190611174565b604051602081830303815290604052915080806001019150506105a7565b5080915050919050565b60606106308260405160200161061c919061113e565b604051602081830303815290604052610405565b9050919050565b60608160405160200161064a9190611159565b6040516020818303038152906040529050919050565b606061066f8260000151610703565b61067c83602001516106cd565b61068984604001516106cd565b61069685606001516106cd565b6106a38660800151610762565b6040516020016106b7959493929190611198565b6040516020818303038152906040529050919050565b606080826040516020016106e1919061127a565b60405160208183030381529060405290506106fb81610405565b915050919050565b606080826040516020016107179190611301565b604051602081830303815290604052905061073181610405565b915050919050565b60608160405160200161074c9190611263565b6040516020818303038152906040529050919050565b606080826040516020016107769190611248565b604051602081830303815290604052905061079081610405565b915050919050565b60606107a782600001516106cd565b6107b483602001516104d6565b6040516020016107c5929190611174565b6040516020818303038152906040529050919050565b6060806107e883516108b8565b905060005b8351811015610842578161081385838151811061080657fe5b6020026020010151610798565b604051602001610824929190611174565b604051602081830303815290604052915080806001019150506107ed565b5080915050919050565b6060808260405160200161086091906112cb565b604051602081830303815290604052905061087a81610405565b915050919050565b606080826040516020016108969190611295565b60405160208183030381529060405290506108b081610405565b915050919050565b606080826040516020016108cc91906112b0565b60405160208183030381529060405290506108e681610405565b915050919050565b6000813590506108fd8161162a565b92915050565b600082601f83011261091457600080fd5b81356109276109228261136b565b61133e565b9150818183526020840193506020810190508385604084028201111561094c57600080fd5b60005b8381101561097c57816109628882610add565b84526020840193506040830192505060018101905061094f565b5050505092915050565b600082601f83011261099757600080fd5b81356109aa6109a582611393565b61133e565b91508181835260208401935060208101905083856101608402820111156109d057600080fd5b60005b83811015610a0157816109e68882610b29565b845260208401935061016083019250506001810190506109d3565b5050505092915050565b600081359050610a1a81611641565b92915050565b600082601f830112610a3157600080fd5b8135610a44610a3f826113bb565b61133e565b91508082526020830160208301858383011115610a6057600080fd5b610a6b838284611504565b50505092915050565b600081359050610a8381611658565b92915050565b600082601f830112610a9a57600080fd5b8135610aad610aa8826113e7565b61133e565b91508082526020830160208301858383011115610ac957600080fd5b610ad4838284611504565b50505092915050565b600060408284031215610aef57600080fd5b610af9604061133e565b90506000610b0984828501610c7a565b6000830152506020610b1d84828501610cb9565b60208301525092915050565b60006101608284031215610b3c57600080fd5b610b4660e061133e565b90506000610b5684828501610ca4565b6000830152506020610b6a84828501610c7a565b6020830152506040610b7e84828501610cb9565b6040830152506060610b9284828501610bdd565b606083015250610100610ba784828501610cb9565b608083015250610120610bbc84828501610c7a565b60a083015250610140610bd184828501610c7a565b60c08301525092915050565b600060a08284031215610bef57600080fd5b610bf960a061133e565b90506000610c0984828501610cce565b6000830152506020610c1d84828501610c7a565b6020830152506040610c3184828501610c7a565b6040830152506060610c4584828501610c7a565b6060830152506080610c5984828501610a74565b60808301525092915050565b600081359050610c748161166f565b92915050565b600081359050610c8981611686565b92915050565b600081359050610c9e8161169d565b92915050565b600081359050610cb3816116b4565b92915050565b600081359050610cc8816116cb565b92915050565b600081359050610cdd816116e2565b92915050565b600060208284031215610cf557600080fd5b6000610d03848285016108ee565b91505092915050565b600060208284031215610d1e57600080fd5b600082013567ffffffffffffffff811115610d3857600080fd5b610d4484828501610903565b91505092915050565b600060208284031215610d5f57600080fd5b600082013567ffffffffffffffff811115610d7957600080fd5b610d8584828501610986565b91505092915050565b600060208284031215610da057600080fd5b6000610dae84828501610a0b565b91505092915050565b600060208284031215610dc957600080fd5b600082013567ffffffffffffffff811115610de357600080fd5b610def84828501610a20565b91505092915050565b600060208284031215610e0a57600080fd5b6000610e1884828501610a74565b91505092915050565b600060208284031215610e3357600080fd5b600082013567ffffffffffffffff811115610e4d57600080fd5b610e5984828501610a89565b91505092915050565b600060408284031215610e7457600080fd5b6000610e8284828501610add565b91505092915050565b60006101608284031215610e9e57600080fd5b6000610eac84828501610b29565b91505092915050565b600060a08284031215610ec757600080fd5b6000610ed584828501610bdd565b91505092915050565b600060208284031215610ef057600080fd5b6000610efe84828501610c65565b91505092915050565b600060208284031215610f1957600080fd5b6000610f2784828501610c7a565b91505092915050565b600060208284031215610f4257600080fd5b6000610f5084828501610c8f565b91505092915050565b600060208284031215610f6b57600080fd5b6000610f7984828501610ca4565b91505092915050565b600060208284031215610f9457600080fd5b6000610fa284828501610cb9565b91505092915050565b600060208284031215610fbd57600080fd5b6000610fcb84828501610cce565b91505092915050565b610fe5610fe082611450565b611546565b82525050565b610ffc610ff782611462565b611558565b82525050565b600061100d82611413565b6110178185611429565b9350611027818560208601611513565b611030816115d8565b840191505092915050565b600061104682611413565b611050818561143a565b9350611060818560208601611513565b80840191505092915050565b61107d6110788261148e565b611562565b82525050565b600061108e8261141e565b6110988185611445565b93506110a8818560208601611513565b80840191505092915050565b6110c56110c0826114a9565b611586565b82525050565b6110dc6110d78261149b565b611574565b82525050565b6110f36110ee826114c9565b611598565b82525050565b61110a611105826114d3565b6115a2565b82525050565b61112161111c826114e3565b6115b4565b82525050565b611138611133826114f7565b6115c6565b82525050565b600061114a8284610fd4565b60148201915081905092915050565b60006111658284610feb565b60148201915081905092915050565b6000611180828561103b565b915061118c828461103b565b91508190509392505050565b60006111a4828861103b565b91506111b0828761103b565b91506111bc828661103b565b91506111c8828561103b565b91506111d4828461103b565b91508190509695505050505050565b60006111ef828a61103b565b91506111fb828961103b565b9150611207828861103b565b9150611213828761103b565b915061121f828661103b565b915061122b828561103b565b9150611237828461103b565b915081905098975050505050505050565b6000611254828461106c565b60088201915081905092915050565b600061126f8284611083565b915081905092915050565b600061128682846110b4565b60148201915081905092915050565b60006112a182846110cb565b60028201915081905092915050565b60006112bc82846110e2565b60208201915081905092915050565b60006112d782846110f9565b60048201915081905092915050565b60006112f28284611110565b60088201915081905092915050565b600061130d8284611127565b60018201915081905092915050565b600060208201905081810360008301526113368184611002565b905092915050565b6000604051905081810181811067ffffffffffffffff8211171561136157600080fd5b8060405250919050565b600067ffffffffffffffff82111561138257600080fd5b602082029050602081019050919050565b600067ffffffffffffffff8211156113aa57600080fd5b602082029050602081019050919050565b600067ffffffffffffffff8211156113d257600080fd5b601f19601f8301169050602081019050919050565b600067ffffffffffffffff8211156113fe57600080fd5b601f19601f8301169050602081019050919050565b600081519050919050565b600081519050919050565b600082825260208201905092915050565b600081905092915050565b600081905092915050565b600061145b826114a9565b9050919050565b60007fffffffffffffffffffffffffffffffffffffffff00000000000000000000000082169050919050565b60008160070b9050919050565b600061ffff82169050919050565b600073ffffffffffffffffffffffffffffffffffffffff82169050919050565b6000819050919050565b600063ffffffff82169050919050565b600067ffffffffffffffff82169050919050565b600060ff82169050919050565b82818337600083830152505050565b60005b83811015611531578082015181840152602081019050611516565b83811115611540576000848401525b50505050565b600061155182611586565b9050919050565b6000819050919050565b600061156d826115e9565b9050919050565b600061157f82611603565b9050919050565b60006115918261161d565b9050919050565b6000819050919050565b60006115ad826115f6565b9050919050565b60006115bf826115e9565b9050919050565b60006115d182611610565b9050919050565b6000601f19601f8301169050919050565b60008160c01b9050919050565b60008160e01b9050919050565b60008160f01b9050919050565b60008160f81b9050919050565b60008160601b9050919050565b61163381611450565b811461163e57600080fd5b50565b61164a81611462565b811461165557600080fd5b50565b6116618161148e565b811461166c57600080fd5b50565b6116788161149b565b811461168357600080fd5b50565b61168f816114a9565b811461169a57600080fd5b50565b6116a6816114c9565b81146116b157600080fd5b50565b6116bd816114d3565b81146116c857600080fd5b50565b6116d4816114e3565b81146116df57600080fd5b50565b6116eb816114f7565b81146116f657600080fd5b5056fea26469706673582212207f256eb9988de8fb8615c3d1a92762639f198a654a92fe4baea391bdd742074c64736f6c634300060c0033",
			"opcodes": "PUSH1 0x80 PUSH1 0x40 MSTORE CALLVALUE DUP1 ISZERO PUSH2 0x10 JUMPI PUSH1 0x0 DUP1 REVERT JUMPDEST POP PUSH2 0x172F DUP1 PUSH2 0x20 PUSH1 0x0 CODECOPY PUSH1 0x0 RETURN INVALID PUSH1 0x80 PUSH1 0x40 MSTORE CALLVALUE DUP1 ISZERO PUSH2 0x10 JUMPI PUSH1 0x0 DUP1 REVERT JUMPDEST POP PUSH1 0x4 CALLDATASIZE LT PUSH2 0x100 JUMPI PUSH1 0x0 CALLDATALOAD PUSH1 0xE0 SHR DUP1 PUSH4 0x6127B4FF GT PUSH2 0x97 JUMPI DUP1 PUSH4 0xC6F4C269 GT PUSH2 0x66 JUMPI DUP1 PUSH4 0xC6F4C269 EQ PUSH2 0x345 JUMPI DUP1 PUSH4 0xCECB3043 EQ PUSH2 0x375 JUMPI DUP1 PUSH4 0xE4CBA547 EQ PUSH2 0x3A5 JUMPI DUP1 PUSH4 0xF20FB830 EQ PUSH2 0x3D5 JUMPI PUSH2 0x100 JUMP JUMPDEST DUP1 PUSH4 0x6127B4FF EQ PUSH2 0x285 JUMPI DUP1 PUSH4 0x68B4AE81 EQ PUSH2 0x2B5 JUMPI DUP1 PUSH4 0xAF832F09 EQ PUSH2 0x2E5 JUMPI DUP1 PUSH4 0xC41C134D EQ PUSH2 0x315 JUMPI PUSH2 0x100 JUMP JUMPDEST DUP1 PUSH4 0x241D23B2 GT PUSH2 0xD3 JUMPI DUP1 PUSH4 0x241D23B2 EQ PUSH2 0x1C5 JUMPI DUP1 PUSH4 0x463276C3 EQ PUSH2 0x1F5 JUMPI DUP1 PUSH4 0x4EFC5DA1 EQ PUSH2 0x225 JUMPI DUP1 PUSH4 0x57759E15 EQ PUSH2 0x255 JUMPI PUSH2 0x100 JUMP JUMPDEST DUP1 PUSH4 0x1222D81A EQ PUSH2 0x105 JUMPI DUP1 PUSH4 0x122E5AE7 EQ PUSH2 0x135 JUMPI DUP1 PUSH4 0x14282C61 EQ PUSH2 0x165 JUMPI DUP1 PUSH4 0x1B5656CF EQ PUSH2 0x195 JUMPI JUMPDEST PUSH1 0x0 DUP1 REVERT JUMPDEST PUSH2 0x11F PUSH1 0x4 DUP1 CALLDATASIZE SUB DUP2 ADD SWAP1 PUSH2 0x11A SWAP2 SWAP1 PUSH2 0xDB7 JUMP JUMPDEST PUSH2 0x405 JUMP JUMPDEST PUSH1 0x40 MLOAD PUSH2 0x12C SWAP2 SWAP1 PUSH2 0x131C JUMP JUMPDEST PUSH1 0x40 MLOAD DUP1 SWAP2 SUB SWAP1 RETURN JUMPDEST PUSH2 0x14F PUSH1 0x4 DUP1 CALLDATASIZE SUB DUP2 ADD SWAP1 PUSH2 0x14A SWAP2 SWAP1 PUSH2 0xF82 JUMP JUMPDEST PUSH2 0x4D6 JUMP JUMPDEST PUSH1 0x40 MLOAD PUSH2 0x15C SWAP2 SWAP1 PUSH2 0x131C JUMP JUMPDEST PUSH1 0x40 MLOAD DUP1 SWAP2 SUB SWAP1 RETURN JUMPDEST PUSH2 0x17F PUSH1 0x4 DUP1 CALLDATASIZE SUB DUP2 ADD SWAP1 PUSH2 0x17A SWAP2 SWAP1 PUSH2 0xE8B JUMP JUMPDEST PUSH2 0x50C JUMP JUMPDEST PUSH1 0x40 MLOAD PUSH2 0x18C SWAP2 SWAP1 PUSH2 0x131C JUMP JUMPDEST PUSH1 0x40 MLOAD DUP1 SWAP2 SUB SWAP1 RETURN JUMPDEST PUSH2 0x1AF PUSH1 0x4 DUP1 CALLDATASIZE SUB DUP2 ADD SWAP1 PUSH2 0x1AA SWAP2 SWAP1 PUSH2 0xD4D JUMP JUMPDEST PUSH2 0x595 JUMP JUMPDEST PUSH1 0x40 MLOAD PUSH2 0x1BC SWAP2 SWAP1 PUSH2 0x131C JUMP JUMPDEST PUSH1 0x40 MLOAD DUP1 SWAP2 SUB SWAP1 RETURN JUMPDEST PUSH2 0x1DF PUSH1 0x4 DUP1 CALLDATASIZE SUB DUP2 ADD SWAP1 PUSH2 0x1DA SWAP2 SWAP1 PUSH2 0xCE3 JUMP JUMPDEST PUSH2 0x606 JUMP JUMPDEST PUSH1 0x40 MLOAD PUSH2 0x1EC SWAP2 SWAP1 PUSH2 0x131C JUMP JUMPDEST PUSH1 0x40 MLOAD DUP1 SWAP2 SUB SWAP1 RETURN JUMPDEST PUSH2 0x20F PUSH1 0x4 DUP1 CALLDATASIZE SUB DUP2 ADD SWAP1 PUSH2 0x20A SWAP2 SWAP1 PUSH2 0xD8E JUMP JUMPDEST PUSH2 0x637 JUMP JUMPDEST PUSH1 0x40 MLOAD PUSH2 0x21C SWAP2 SWAP1 PUSH2 0x131C JUMP JUMPDEST PUSH1 0x40 MLOAD DUP1 SWAP2 SUB SWAP1 RETURN JUMPDEST PUSH2 0x23F PUSH1 0x4 DUP1 CALLDATASIZE SUB DUP2 ADD SWAP1 PUSH2 0x23A SWAP2 SWAP1 PUSH2 0xEB5 JUMP JUMPDEST PUSH2 0x660 JUMP JUMPDEST PUSH1 0x40 MLOAD PUSH2 0x24C SWAP2 SWAP1 PUSH2 0x131C JUMP JUMPDEST PUSH1 0x40 MLOAD DUP1 SWAP2 SUB SWAP1 RETURN JUMPDEST PUSH2 0x26F PUSH1 0x4 DUP1 CALLDATASIZE SUB DUP2 ADD SWAP1 PUSH2 0x26A SWAP2 SWAP1 PUSH2 0xF07 JUMP JUMPDEST PUSH2 0x6CD JUMP JUMPDEST PUSH1 0x40 MLOAD PUSH2 0x27C SWAP2 SWAP1 PUSH2 0x131C JUMP JUMPDEST PUSH1 0x40 MLOAD DUP1 SWAP2 SUB SWAP1 RETURN JUMPDEST PUSH2 0x29F PUSH1 0x4 DUP1 CALLDATASIZE SUB DUP2 ADD SWAP1 PUSH2 0x29A SWAP2 SWAP1 PUSH2 0xFAB JUMP JUMPDEST PUSH2 0x703 JUMP JUMPDEST PUSH1 0x40 MLOAD PUSH2 0x2AC SWAP2 SWAP1 PUSH2 0x131C JUMP JUMPDEST PUSH1 0x40 MLOAD DUP1 SWAP2 SUB SWAP1 RETURN JUMPDEST PUSH2 0x2CF PUSH1 0x4 DUP1 CALLDATASIZE SUB DUP2 ADD SWAP1 PUSH2 0x2CA SWAP2 SWAP1 PUSH2 0xE21 JUMP JUMPDEST PUSH2 0x739 JUMP JUMPDEST PUSH1 0x40 MLOAD PUSH2 0x2DC SWAP2 SWAP1 PUSH2 0x131C JUMP JUMPDEST PUSH1 0x40 MLOAD DUP1 SWAP2 SUB SWAP1 RETURN JUMPDEST PUSH2 0x2FF PUSH1 0x4 DUP1 CALLDATASIZE SUB DUP2 ADD SWAP1 PUSH2 0x2FA SWAP2 SWAP1 PUSH2 0xDF8 JUMP JUMPDEST PUSH2 0x762 JUMP JUMPDEST PUSH1 0x40 MLOAD PUSH2 0x30C SWAP2 SWAP1 PUSH2 0x131C JUMP JUMPDEST PUSH1 0x40 MLOAD DUP1 SWAP2 SUB SWAP1 RETURN JUMPDEST PUSH2 0x32F PUSH1 0x4 DUP1 CALLDATASIZE SUB DUP2 ADD SWAP1 PUSH2 0x32A SWAP2 SWAP1 PUSH2 0xE62 JUMP JUMPDEST PUSH2 0x798 JUMP JUMPDEST PUSH1 0x40 MLOAD PUSH2 0x33C SWAP2 SWAP1 PUSH2 0x131C JUMP JUMPDEST PUSH1 0x40 MLOAD DUP1 SWAP2 SUB SWAP1 RETURN JUMPDEST PUSH2 0x35F PUSH1 0x4 DUP1 CALLDATASIZE SUB DUP2 ADD SWAP1 PUSH2 0x35A SWAP2 SWAP1 PUSH2 0xD0C JUMP JUMPDEST PUSH2 0x7DB JUMP JUMPDEST PUSH1 0x40 MLOAD PUSH2 0x36C SWAP2 SWAP1 PUSH2 0x131C JUMP JUMPDEST PUSH1 0x40 MLOAD DUP1 SWAP2 SUB SWAP1 RETURN JUMPDEST PUSH2 0x38F PUSH1 0x4 DUP1 CALLDATASIZE SUB DUP2 ADD SWAP1 PUSH2 0x38A SWAP2 SWAP1 PUSH2 0xF59 JUMP JUMPDEST PUSH2 0x84C JUMP JUMPDEST PUSH1 0x40 MLOAD PUSH2 0x39C SWAP2 SWAP1 PUSH2 0x131C JUMP JUMPDEST PUSH1 0x40 MLOAD DUP1 SWAP2 SUB SWAP1 RETURN JUMPDEST PUSH2 0x3BF PUSH1 0x4 DUP1 CALLDATASIZE SUB DUP2 ADD SWAP1 PUSH2 0x3BA SWAP2 SWAP1 PUSH2 0xEDE JUMP JUMPDEST PUSH2 0x882 JUMP JUMPDEST PUSH1 0x40 MLOAD PUSH2 0x3CC SWAP2 SWAP1 PUSH2 0x131C JUMP JUMPDEST PUSH1 0x40 MLOAD DUP1 SWAP2 SUB SWAP1 RETURN JUMPDEST PUSH2 0x3EF PUSH1 0x4 DUP1 CALLDATASIZE SUB DUP2 ADD SWAP1 PUSH2 0x3EA SWAP2 SWAP1 PUSH2 0xF30 JUMP JUMPDEST PUSH2 0x8B8 JUMP JUMPDEST PUSH1 0x40 MLOAD PUSH2 0x3FC SWAP2 SWAP1 PUSH2 0x131C JUMP JUMPDEST PUSH1 0x40 MLOAD DUP1 SWAP2 SUB SWAP1 RETURN JUMPDEST PUSH1 0x60 PUSH1 0x0 DUP3 MLOAD SWAP1 POP PUSH1 0x60 DUP2 PUSH8 0xFFFFFFFFFFFFFFFF DUP2 GT DUP1 ISZERO PUSH2 0x426 JUMPI PUSH1 0x0 DUP1 REVERT JUMPDEST POP PUSH1 0x40 MLOAD SWAP1 DUP1 DUP3 MSTORE DUP1 PUSH1 0x1F ADD PUSH1 0x1F NOT AND PUSH1 0x20 ADD DUP3 ADD PUSH1 0x40 MSTORE DUP1 ISZERO PUSH2 0x459 JUMPI DUP2 PUSH1 0x20 ADD PUSH1 0x1 DUP3 MUL DUP1 CALLDATASIZE DUP4 CALLDATACOPY DUP1 DUP3 ADD SWAP2 POP POP SWAP1 POP JUMPDEST POP SWAP1 POP PUSH1 0x0 JUMPDEST DUP3 DUP2 LT ISZERO PUSH2 0x4CB JUMPI DUP5 PUSH1 0x1 DUP3 DUP6 SUB SUB DUP2 MLOAD DUP2 LT PUSH2 0x478 JUMPI INVALID JUMPDEST PUSH1 0x20 ADD ADD MLOAD PUSH1 0xF8 SHR PUSH1 0xF8 SHL DUP3 DUP3 DUP2 MLOAD DUP2 LT PUSH2 0x48F JUMPI INVALID JUMPDEST PUSH1 0x20 ADD ADD SWAP1 PUSH31 0xFFFFFFFFFFFFFFFFFFFFFFFFFFFFFFFFFFFFFFFFFFFFFFFFFFFFFFFFFFFFFF NOT AND SWAP1 DUP2 PUSH1 0x0 BYTE SWAP1 MSTORE8 POP DUP1 DUP1 PUSH1 0x1 ADD SWAP2 POP POP PUSH2 0x45F JUMP JUMPDEST DUP2 SWAP4 POP POP POP POP SWAP2 SWAP1 POP JUMP JUMPDEST PUSH1 0x60 DUP1 DUP3 PUSH1 0x40 MLOAD PUSH1 0x20 ADD PUSH2 0x4EA SWAP2 SWAP1 PUSH2 0x12E6 JUMP JUMPDEST PUSH1 0x40 MLOAD PUSH1 0x20 DUP2 DUP4 SUB SUB DUP2 MSTORE SWAP1 PUSH1 0x40 MSTORE SWAP1 POP PUSH2 0x504 DUP2 PUSH2 0x405 JUMP JUMPDEST SWAP2 POP POP SWAP2 SWAP1 POP JUMP JUMPDEST PUSH1 0x60 PUSH2 0x51B DUP3 PUSH1 0x0 ADD MLOAD PUSH2 0x84C JUMP JUMPDEST PUSH2 0x528 DUP4 PUSH1 0x20 ADD MLOAD PUSH2 0x6CD JUMP JUMPDEST PUSH2 0x535 DUP5 PUSH1 0x40 ADD MLOAD PUSH2 0x4D6 JUMP JUMPDEST PUSH2 0x542 DUP6 PUSH1 0x60 ADD MLOAD PUSH2 0x660 JUMP JUMPDEST PUSH2 0x54F DUP7 PUSH1 0x80 ADD MLOAD PUSH2 0x4D6 JUMP JUMPDEST PUSH2 0x55C DUP8 PUSH1 0xA0 ADD MLOAD PUSH2 0x6CD JUMP JUMPDEST PUSH2 0x569 DUP9 PUSH1 0xC0 ADD MLOAD PUSH2 0x6CD JUMP JUMPDEST PUSH1 0x40 MLOAD PUSH1 0x20 ADD PUSH2 0x57F SWAP8 SWAP7 SWAP6 SWAP5 SWAP4 SWAP3 SWAP2 SWAP1 PUSH2 0x11E3 JUMP JUMPDEST PUSH1 0x40 MLOAD PUSH1 0x20 DUP2 DUP4 SUB SUB DUP2 MSTORE SWAP1 PUSH1 0x40 MSTORE SWAP1 POP SWAP2 SWAP1 POP JUMP JUMPDEST PUSH1 0x60 DUP1 PUSH2 0x5A2 DUP4 MLOAD PUSH2 0x8B8 JUMP JUMPDEST SWAP1 POP PUSH1 0x0 JUMPDEST DUP4 MLOAD DUP2 LT ISZERO PUSH2 0x5FC JUMPI DUP2 PUSH2 0x5CD DUP6 DUP4 DUP2 MLOAD DUP2 LT PUSH2 0x5C0 JUMPI INVALID JUMPDEST PUSH1 0x20 MUL PUSH1 0x20 ADD ADD MLOAD PUSH2 0x50C JUMP JUMPDEST PUSH1 0x40 MLOAD PUSH1 0x20 ADD PUSH2 0x5DE SWAP3 SWAP2 SWAP1 PUSH2 0x1174 JUMP JUMPDEST PUSH1 0x40 MLOAD PUSH1 0x20 DUP2 DUP4 SUB SUB DUP2 MSTORE SWAP1 PUSH1 0x40 MSTORE SWAP2 POP DUP1 DUP1 PUSH1 0x1 ADD SWAP2 POP POP PUSH2 0x5A7 JUMP JUMPDEST POP DUP1 SWAP2 POP POP SWAP2 SWAP1 POP JUMP JUMPDEST PUSH1 0x60 PUSH2 0x630 DUP3 PUSH1 0x40 MLOAD PUSH1 0x20 ADD PUSH2 0x61C SWAP2 SWAP1 PUSH2 0x113E JUMP JUMPDEST PUSH1 0x40 MLOAD PUSH1 0x20 DUP2 DUP4 SUB SUB DUP2 MSTORE SWAP1 PUSH1 0x40 MSTORE PUSH2 0x405 JUMP JUMPDEST SWAP1 POP SWAP2 SWAP1 POP JUMP JUMPDEST PUSH1 0x60 DUP2 PUSH1 0x40 MLOAD PUSH1 0x20 ADD PUSH2 0x64A SWAP2 SWAP1 PUSH2 0x1159 JUMP JUMPDEST PUSH1 0x40 MLOAD PUSH1 0x20 DUP2 DUP4 SUB SUB DUP2 MSTORE SWAP1 PUSH1 0x40 MSTORE SWAP1 POP SWAP2 SWAP1 POP JUMP JUMPDEST PUSH1 0x60 PUSH2 0x66F DUP3 PUSH1 0x0 ADD MLOAD PUSH2 0x703 JUMP JUMPDEST PUSH2 0x67C DUP4 PUSH1 0x20 ADD MLOAD PUSH2 0x6CD JUMP JUMPDEST PUSH2 0x689 DUP5 PUSH1 0x40 ADD MLOAD PUSH2 0x6CD JUMP JUMPDEST PUSH2 0x696 DUP6 PUSH1 0x60 ADD MLOAD PUSH2 0x6CD JUMP JUMPDEST PUSH2 0x6A3 DUP7 PUSH1 0x80 ADD MLOAD PUSH2 0x762 JUMP JUMPDEST PUSH1 0x40 MLOAD PUSH1 0x20 ADD PUSH2 0x6B7 SWAP6 SWAP5 SWAP4 SWAP3 SWAP2 SWAP1 PUSH2 0x1198 JUMP JUMPDEST PUSH1 0x40 MLOAD PUSH1 0x20 DUP2 DUP4 SUB SUB DUP2 MSTORE SWAP1 PUSH1 0x40 MSTORE SWAP1 POP SWAP2 SWAP1 POP JUMP JUMPDEST PUSH1 0x60 DUP1 DUP3 PUSH1 0x40 MLOAD PUSH1 0x20 ADD PUSH2 0x6E1 SWAP2 SWAP1 PUSH2 0x127A JUMP JUMPDEST PUSH1 0x40 MLOAD PUSH1 0x20 DUP2 DUP4 SUB SUB DUP2 MSTORE SWAP1 PUSH1 0x40 MSTORE SWAP1 POP PUSH2 0x6FB DUP2 PUSH2 0x405 JUMP JUMPDEST SWAP2 POP POP SWAP2 SWAP1 POP JUMP JUMPDEST PUSH1 0x60 DUP1 DUP3 PUSH1 0x40 MLOAD PUSH1 0x20 ADD PUSH2 0x717 SWAP2 SWAP1 PUSH2 0x1301 JUMP JUMPDEST PUSH1 0x40 MLOAD PUSH1 0x20 DUP2 DUP4 SUB SUB DUP2 MSTORE SWAP1 PUSH1 0x40 MSTORE SWAP1 POP PUSH2 0x731 DUP2 PUSH2 0x405 JUMP JUMPDEST SWAP2 POP POP SWAP2 SWAP1 POP JUMP JUMPDEST PUSH1 0x60 DUP2 PUSH1 0x40 MLOAD PUSH1 0x20 ADD PUSH2 0x74C SWAP2 SWAP1 PUSH2 0x1263 JUMP JUMPDEST PUSH1 0x40 MLOAD PUSH1 0x20 DUP2 DUP4 SUB SUB DUP2 MSTORE SWAP1 PUSH1 0x40 MSTORE SWAP1 POP SWAP2 SWAP1 POP JUMP JUMPDEST PUSH1 0x60 DUP1 DUP3 PUSH1 0x40 MLOAD PUSH1 0x20 ADD PUSH2 0x776 SWAP2 SWAP1 PUSH2 0x1248 JUMP JUMPDEST PUSH1 0x40 MLOAD PUSH1 0x20 DUP2 DUP4 SUB SUB DUP2 MSTORE SWAP1 PUSH1 0x40 MSTORE SWAP1 POP PUSH2 0x790 DUP2 PUSH2 0x405 JUMP JUMPDEST SWAP2 POP POP SWAP2 SWAP1 POP JUMP JUMPDEST PUSH1 0x60 PUSH2 0x7A7 DUP3 PUSH1 0x0 ADD MLOAD PUSH2 0x6CD JUMP JUMPDEST PUSH2 0x7B4 DUP4 PUSH1 0x20 ADD MLOAD PUSH2 0x4D6 JUMP JUMPDEST PUSH1 0x40 MLOAD PUSH1 0x20 ADD PUSH2 0x7C5 SWAP3 SWAP2 SWAP1 PUSH2 0x1174 JUMP JUMPDEST PUSH1 0x40 MLOAD PUSH1 0x20 DUP2 DUP4 SUB SUB DUP2 MSTORE SWAP1 PUSH1 0x40 MSTORE SWAP1 POP SWAP2 SWAP1 POP JUMP JUMPDEST PUSH1 0x60 DUP1 PUSH2 0x7E8 DUP4 MLOAD PUSH2 0x8B8 JUMP JUMPDEST SWAP1 POP PUSH1 0x0 JUMPDEST DUP4 MLOAD DUP2 LT ISZERO PUSH2 0x842 JUMPI DUP2 PUSH2 0x813 DUP6 DUP4 DUP2 MLOAD DUP2 LT PUSH2 0x806 JUMPI INVALID JUMPDEST PUSH1 0x20 MUL PUSH1 0x20 ADD ADD MLOAD PUSH2 0x798 JUMP JUMPDEST PUSH1 0x40 MLOAD PUSH1 0x20 ADD PUSH2 0x824 SWAP3 SWAP2 SWAP1 PUSH2 0x1174 JUMP JUMPDEST PUSH1 0x40 MLOAD PUSH1 0x20 DUP2 DUP4 SUB SUB DUP2 MSTORE SWAP1 PUSH1 0x40 MSTORE SWAP2 POP DUP1 DUP1 PUSH1 0x1 ADD SWAP2 POP POP PUSH2 0x7ED JUMP JUMPDEST POP DUP1 SWAP2 POP POP SWAP2 SWAP1 POP JUMP JUMPDEST PUSH1 0x60 DUP1 DUP3 PUSH1 0x40 MLOAD PUSH1 0x20 ADD PUSH2 0x860 SWAP2 SWAP1 PUSH2 0x12CB JUMP JUMPDEST PUSH1 0x40 MLOAD PUSH1 0x20 DUP2 DUP4 SUB SUB DUP2 MSTORE SWAP1 PUSH1 0x40 MSTORE SWAP1 POP PUSH2 0x87A DUP2 PUSH2 0x405 JUMP JUMPDEST SWAP2 POP POP SWAP2 SWAP1 POP JUMP JUMPDEST PUSH1 0x60 DUP1 DUP3 PUSH1 0x40 MLOAD PUSH1 0x20 ADD PUSH2 0x896 SWAP2 SWAP1 PUSH2 0x1295 JUMP JUMPDEST PUSH1 0x40 MLOAD PUSH1 0x20 DUP2 DUP4 SUB SUB DUP2 MSTORE SWAP1 PUSH1 0x40 MSTORE SWAP1 POP PUSH2 0x8B0 DUP2 PUSH2 0x405 JUMP JUMPDEST SWAP2 POP POP SWAP2 SWAP1 POP JUMP JUMPDEST PUSH1 0x60 DUP1 DUP3 PUSH1 0x40 MLOAD PUSH1 0x20 ADD PUSH2 0x8CC SWAP2 SWAP1 PUSH2 0x12B0 JUMP JUMPDEST PUSH1 0x40 MLOAD PUSH1 0x20 DUP2 DUP4 SUB SUB DUP2 MSTORE SWAP1 PUSH1 0x40 MSTORE SWAP1 POP PUSH2 0x8E6 DUP2 PUSH2 0x405 JUMP JUMPDEST SWAP2 POP POP SWAP2 SWAP1 POP JUMP JUMPDEST PUSH1 0x0 DUP2 CALLDATALOAD SWAP1 POP PUSH2 0x8FD DUP2 PUSH2 0x162A JUMP JUMPDEST SWAP3 SWAP2 POP POP JUMP JUMPDEST PUSH1 0x0 DUP3 PUSH1 0x1F DUP4 ADD SLT PUSH2 0x914 JUMPI PUSH1 0x0 DUP1 REVERT JUMPDEST DUP2 CALLDATALOAD PUSH2 0x927 PUSH2 0x922 DUP3 PUSH2 0x136B JUMP JUMPDEST PUSH2 0x133E JUMP JUMPDEST SWAP2 POP DUP2 DUP2 DUP4 MSTORE PUSH1 0x20 DUP5 ADD SWAP4 POP PUSH1 0x20 DUP2 ADD SWAP1 POP DUP4 DUP6 PUSH1 0x40 DUP5 MUL DUP3 ADD GT ISZERO PUSH2 0x94C JUMPI PUSH1 0x0 DUP1 REVERT JUMPDEST PUSH1 0x0 JUMPDEST DUP4 DUP2 LT ISZERO PUSH2 0x97C JUMPI DUP2 PUSH2 0x962 DUP9 DUP3 PUSH2 0xADD JUMP JUMPDEST DUP5 MSTORE PUSH1 0x20 DUP5 ADD SWAP4 POP PUSH1 0x40 DUP4 ADD SWAP3 POP POP PUSH1 0x1 DUP2 ADD SWAP1 POP PUSH2 0x94F JUMP JUMPDEST POP POP POP POP SWAP3 SWAP2 POP POP JUMP JUMPDEST PUSH1 0x0 DUP3 PUSH1 0x1F DUP4 ADD SLT PUSH2 0x997 JUMPI PUSH1 0x0 DUP1 REVERT JUMPDEST DUP2 CALLDATALOAD PUSH2 0x9AA PUSH2 0x9A5 DUP3 PUSH2 0x1393 JUMP JUMPDEST PUSH2 0x133E JUMP JUMPDEST SWAP2 POP DUP2 DUP2 DUP4 MSTORE PUSH1 0x20 DUP5 ADD SWAP4 POP PUSH1 0x20 DUP2 ADD SWAP1 POP DUP4 DUP6 PUSH2 0x160 DUP5 MUL DUP3 ADD GT ISZERO PUSH2 0x9D0 JUMPI PUSH1 0x0 DUP1 REVERT JUMPDEST PUSH1 0x0 JUMPDEST DUP4 DUP2 LT ISZERO PUSH2 0xA01 JUMPI DUP2 PUSH2 0x9E6 DUP9 DUP3 PUSH2 0xB29 JUMP JUMPDEST DUP5 MSTORE PUSH1 0x20 DUP5 ADD SWAP4 POP PUSH2 0x160 DUP4 ADD SWAP3 POP POP PUSH1 0x1 DUP2 ADD SWAP1 POP PUSH2 0x9D3 JUMP JUMPDEST POP POP POP POP SWAP3 SWAP2 POP POP JUMP JUMPDEST PUSH1 0x0 DUP2 CALLDATALOAD SWAP1 POP PUSH2 0xA1A DUP2 PUSH2 0x1641 JUMP JUMPDEST SWAP3 SWAP2 POP POP JUMP JUMPDEST PUSH1 0x0 DUP3 PUSH1 0x1F DUP4 ADD SLT PUSH2 0xA31 JUMPI PUSH1 0x0 DUP1 REVERT JUMPDEST DUP2 CALLDATALOAD PUSH2 0xA44 PUSH2 0xA3F DUP3 PUSH2 0x13BB JUMP JUMPDEST PUSH2 0x133E JUMP JUMPDEST SWAP2 POP DUP1 DUP3 MSTORE PUSH1 0x20 DUP4 ADD PUSH1 0x20 DUP4 ADD DUP6 DUP4 DUP4 ADD GT ISZERO PUSH2 0xA60 JUMPI PUSH1 0x0 DUP1 REVERT JUMPDEST PUSH2 0xA6B DUP4 DUP3 DUP5 PUSH2 0x1504 JUMP JUMPDEST POP POP POP SWAP3 SWAP2 POP POP JUMP JUMPDEST PUSH1 0x0 DUP2 CALLDATALOAD SWAP1 POP PUSH2 0xA83 DUP2 PUSH2 0x1658 JUMP JUMPDEST SWAP3 SWAP2 POP POP JUMP JUMPDEST PUSH1 0x0 DUP3 PUSH1 0x1F DUP4 ADD SLT PUSH2 0xA9A JUMPI PUSH1 0x0 DUP1 REVERT JUMPDEST DUP2 CALLDATALOAD PUSH2 0xAAD PUSH2 0xAA8 DUP3 PUSH2 0x13E7 JUMP JUMPDEST PUSH2 0x133E JUMP JUMPDEST SWAP2 POP DUP1 DUP3 MSTORE PUSH1 0x20 DUP4 ADD PUSH1 0x20 DUP4 ADD DUP6 DUP4 DUP4 ADD GT ISZERO PUSH2 0xAC9 JUMPI PUSH1 0x0 DUP1 REVERT JUMPDEST PUSH2 0xAD4 DUP4 DUP3 DUP5 PUSH2 0x1504 JUMP JUMPDEST POP POP POP SWAP3 SWAP2 POP POP JUMP JUMPDEST PUSH1 0x0 PUSH1 0x40 DUP3 DUP5 SUB SLT ISZERO PUSH2 0xAEF JUMPI PUSH1 0x0 DUP1 REVERT JUMPDEST PUSH2 0xAF9 PUSH1 0x40 PUSH2 0x133E JUMP JUMPDEST SWAP1 POP PUSH1 0x0 PUSH2 0xB09 DUP5 DUP3 DUP6 ADD PUSH2 0xC7A JUMP JUMPDEST PUSH1 0x0 DUP4 ADD MSTORE POP PUSH1 0x20 PUSH2 0xB1D DUP5 DUP3 DUP6 ADD PUSH2 0xCB9 JUMP JUMPDEST PUSH1 0x20 DUP4 ADD MSTORE POP SWAP3 SWAP2 POP POP JUMP JUMPDEST PUSH1 0x0 PUSH2 0x160 DUP3 DUP5 SUB SLT ISZERO PUSH2 0xB3C JUMPI PUSH1 0x0 DUP1 REVERT JUMPDEST PUSH2 0xB46 PUSH1 0xE0 PUSH2 0x133E JUMP JUMPDEST SWAP1 POP PUSH1 0x0 PUSH2 0xB56 DUP5 DUP3 DUP6 ADD PUSH2 0xCA4 JUMP JUMPDEST PUSH1 0x0 DUP4 ADD MSTORE POP PUSH1 0x20 PUSH2 0xB6A DUP5 DUP3 DUP6 ADD PUSH2 0xC7A JUMP JUMPDEST PUSH1 0x20 DUP4 ADD MSTORE POP PUSH1 0x40 PUSH2 0xB7E DUP5 DUP3 DUP6 ADD PUSH2 0xCB9 JUMP JUMPDEST PUSH1 0x40 DUP4 ADD MSTORE POP PUSH1 0x60 PUSH2 0xB92 DUP5 DUP3 DUP6 ADD PUSH2 0xBDD JUMP JUMPDEST PUSH1 0x60 DUP4 ADD MSTORE POP PUSH2 0x100 PUSH2 0xBA7 DUP5 DUP3 DUP6 ADD PUSH2 0xCB9 JUMP JUMPDEST PUSH1 0x80 DUP4 ADD MSTORE POP PUSH2 0x120 PUSH2 0xBBC DUP5 DUP3 DUP6 ADD PUSH2 0xC7A JUMP JUMPDEST PUSH1 0xA0 DUP4 ADD MSTORE POP PUSH2 0x140 PUSH2 0xBD1 DUP5 DUP3 DUP6 ADD PUSH2 0xC7A JUMP JUMPDEST PUSH1 0xC0 DUP4 ADD MSTORE POP SWAP3 SWAP2 POP POP JUMP JUMPDEST PUSH1 0x0 PUSH1 0xA0 DUP3 DUP5 SUB SLT ISZERO PUSH2 0xBEF JUMPI PUSH1 0x0 DUP1 REVERT JUMPDEST PUSH2 0xBF9 PUSH1 0xA0 PUSH2 0x133E JUMP JUMPDEST SWAP1 POP PUSH1 0x0 PUSH2 0xC09 DUP5 DUP3 DUP6 ADD PUSH2 0xCCE JUMP JUMPDEST PUSH1 0x0 DUP4 ADD MSTORE POP PUSH1 0x20 PUSH2 0xC1D DUP5 DUP3 DUP6 ADD PUSH2 0xC7A JUMP JUMPDEST PUSH1 0x20 DUP4 ADD MSTORE POP PUSH1 0x40 PUSH2 0xC31 DUP5 DUP3 DUP6 ADD PUSH2 0xC7A JUMP JUMPDEST PUSH1 0x40 DUP4 ADD MSTORE POP PUSH1 0x60 PUSH2 0xC45 DUP5 DUP3 DUP6 ADD PUSH2 0xC7A JUMP JUMPDEST PUSH1 0x60 DUP4 ADD MSTORE POP PUSH1 0x80 PUSH2 0xC59 DUP5 DUP3 DUP6 ADD PUSH2 0xA74 JUMP JUMPDEST PUSH1 0x80 DUP4 ADD MSTORE POP SWAP3 SWAP2 POP POP JUMP JUMPDEST PUSH1 0x0 DUP2 CALLDATALOAD SWAP1 POP PUSH2 0xC74 DUP2 PUSH2 0x166F JUMP JUMPDEST SWAP3 SWAP2 POP POP JUMP JUMPDEST PUSH1 0x0 DUP2 CALLDATALOAD SWAP1 POP PUSH2 0xC89 DUP2 PUSH2 0x1686 JUMP JUMPDEST SWAP3 SWAP2 POP POP JUMP JUMPDEST PUSH1 0x0 DUP2 CALLDATALOAD SWAP1 POP PUSH2 0xC9E DUP2 PUSH2 0x169D JUMP JUMPDEST SWAP3 SWAP2 POP POP JUMP JUMPDEST PUSH1 0x0 DUP2 CALLDATALOAD SWAP1 POP PUSH2 0xCB3 DUP2 PUSH2 0x16B4 JUMP JUMPDEST SWAP3 SWAP2 POP POP JUMP JUMPDEST PUSH1 0x0 DUP2 CALLDATALOAD SWAP1 POP PUSH2 0xCC8 DUP2 PUSH2 0x16CB JUMP JUMPDEST SWAP3 SWAP2 POP POP JUMP JUMPDEST PUSH1 0x0 DUP2 CALLDATALOAD SWAP1 POP PUSH2 0xCDD DUP2 PUSH2 0x16E2 JUMP JUMPDEST SWAP3 SWAP2 POP POP JUMP JUMPDEST PUSH1 0x0 PUSH1 0x20 DUP3 DUP5 SUB SLT ISZERO PUSH2 0xCF5 JUMPI PUSH1 0x0 DUP1 REVERT JUMPDEST PUSH1 0x0 PUSH2 0xD03 DUP5 DUP3 DUP6 ADD PUSH2 0x8EE JUMP JUMPDEST SWAP2 POP POP SWAP3 SWAP2 POP POP JUMP JUMPDEST PUSH1 0x0 PUSH1 0x20 DUP3 DUP5 SUB SLT ISZERO PUSH2 0xD1E JUMPI PUSH1 0x0 DUP1 REVERT JUMPDEST PUSH1 0x0 DUP3 ADD CALLDATALOAD PUSH8 0xFFFFFFFFFFFFFFFF DUP2 GT ISZERO PUSH2 0xD38 JUMPI PUSH1 0x0 DUP1 REVERT JUMPDEST PUSH2 0xD44 DUP5 DUP3 DUP6 ADD PUSH2 0x903 JUMP JUMPDEST SWAP2 POP POP SWAP3 SWAP2 POP POP JUMP JUMPDEST PUSH1 0x0 PUSH1 0x20 DUP3 DUP5 SUB SLT ISZERO PUSH2 0xD5F JUMPI PUSH1 0x0 DUP1 REVERT JUMPDEST PUSH1 0x0 DUP3 ADD CALLDATALOAD PUSH8 0xFFFFFFFFFFFFFFFF DUP2 GT ISZERO PUSH2 0xD79 JUMPI PUSH1 0x0 DUP1 REVERT JUMPDEST PUSH2 0xD85 DUP5 DUP3 DUP6 ADD PUSH2 0x986 JUMP JUMPDEST SWAP2 POP POP SWAP3 SWAP2 POP POP JUMP JUMPDEST PUSH1 0x0 PUSH1 0x20 DUP3 DUP5 SUB SLT ISZERO PUSH2 0xDA0 JUMPI PUSH1 0x0 DUP1 REVERT JUMPDEST PUSH1 0x0 PUSH2 0xDAE DUP5 DUP3 DUP6 ADD PUSH2 0xA0B JUMP JUMPDEST SWAP2 POP POP SWAP3 SWAP2 POP POP JUMP JUMPDEST PUSH1 0x0 PUSH1 0x20 DUP3 DUP5 SUB SLT ISZERO PUSH2 0xDC9 JUMPI PUSH1 0x0 DUP1 REVERT JUMPDEST PUSH1 0x0 DUP3 ADD CALLDATALOAD PUSH8 0xFFFFFFFFFFFFFFFF DUP2 GT ISZERO PUSH2 0xDE3 JUMPI PUSH1 0x0 DUP1 REVERT JUMPDEST PUSH2 0xDEF DUP5 DUP3 DUP6 ADD PUSH2 0xA20 JUMP JUMPDEST SWAP2 POP POP SWAP3 SWAP2 POP POP JUMP JUMPDEST PUSH1 0x0 PUSH1 0x20 DUP3 DUP5 SUB SLT ISZERO PUSH2 0xE0A JUMPI PUSH1 0x0 DUP1 REVERT JUMPDEST PUSH1 0x0 PUSH2 0xE18 DUP5 DUP3 DUP6 ADD PUSH2 0xA74 JUMP JUMPDEST SWAP2 POP POP SWAP3 SWAP2 POP POP JUMP JUMPDEST PUSH1 0x0 PUSH1 0x20 DUP3 DUP5 SUB SLT ISZERO PUSH2 0xE33 JUMPI PUSH1 0x0 DUP1 REVERT JUMPDEST PUSH1 0x0 DUP3 ADD CALLDATALOAD PUSH8 0xFFFFFFFFFFFFFFFF DUP2 GT ISZERO PUSH2 0xE4D JUMPI PUSH1 0x0 DUP1 REVERT JUMPDEST PUSH2 0xE59 DUP5 DUP3 DUP6 ADD PUSH2 0xA89 JUMP JUMPDEST SWAP2 POP POP SWAP3 SWAP2 POP POP JUMP JUMPDEST PUSH1 0x0 PUSH1 0x40 DUP3 DUP5 SUB SLT ISZERO PUSH2 0xE74 JUMPI PUSH1 0x0 DUP1 REVERT JUMPDEST PUSH1 0x0 PUSH2 0xE82 DUP5 DUP3 DUP6 ADD PUSH2 0xADD JUMP JUMPDEST SWAP2 POP POP SWAP3 SWAP2 POP POP JUMP JUMPDEST PUSH1 0x0 PUSH2 0x160 DUP3 DUP5 SUB SLT ISZERO PUSH2 0xE9E JUMPI PUSH1 0x0 DUP1 REVERT JUMPDEST PUSH1 0x0 PUSH2 0xEAC DUP5 DUP3 DUP6 ADD PUSH2 0xB29 JUMP JUMPDEST SWAP2 POP POP SWAP3 SWAP2 POP POP JUMP JUMPDEST PUSH1 0x0 PUSH1 0xA0 DUP3 DUP5 SUB SLT ISZERO PUSH2 0xEC7 JUMPI PUSH1 0x0 DUP1 REVERT JUMPDEST PUSH1 0x0 PUSH2 0xED5 DUP5 DUP3 DUP6 ADD PUSH2 0xBDD JUMP JUMPDEST SWAP2 POP POP SWAP3 SWAP2 POP POP JUMP JUMPDEST PUSH1 0x0 PUSH1 0x20 DUP3 DUP5 SUB SLT ISZERO PUSH2 0xEF0 JUMPI PUSH1 0x0 DUP1 REVERT JUMPDEST PUSH1 0x0 PUSH2 0xEFE DUP5 DUP3 DUP6 ADD PUSH2 0xC65 JUMP JUMPDEST SWAP2 POP POP SWAP3 SWAP2 POP POP JUMP JUMPDEST PUSH1 0x0 PUSH1 0x20 DUP3 DUP5 SUB SLT ISZERO PUSH2 0xF19 JUMPI PUSH1 0x0 DUP1 REVERT JUMPDEST PUSH1 0x0 PUSH2 0xF27 DUP5 DUP3 DUP6 ADD PUSH2 0xC7A JUMP JUMPDEST SWAP2 POP POP SWAP3 SWAP2 POP POP JUMP JUMPDEST PUSH1 0x0 PUSH1 0x20 DUP3 DUP5 SUB SLT ISZERO PUSH2 0xF42 JUMPI PUSH1 0x0 DUP1 REVERT JUMPDEST PUSH1 0x0 PUSH2 0xF50 DUP5 DUP3 DUP6 ADD PUSH2 0xC8F JUMP JUMPDEST SWAP2 POP POP SWAP3 SWAP2 POP POP JUMP JUMPDEST PUSH1 0x0 PUSH1 0x20 DUP3 DUP5 SUB SLT ISZERO PUSH2 0xF6B JUMPI PUSH1 0x0 DUP1 REVERT JUMPDEST PUSH1 0x0 PUSH2 0xF79 DUP5 DUP3 DUP6 ADD PUSH2 0xCA4 JUMP JUMPDEST SWAP2 POP POP SWAP3 SWAP2 POP POP JUMP JUMPDEST PUSH1 0x0 PUSH1 0x20 DUP3 DUP5 SUB SLT ISZERO PUSH2 0xF94 JUMPI PUSH1 0x0 DUP1 REVERT JUMPDEST PUSH1 0x0 PUSH2 0xFA2 DUP5 DUP3 DUP6 ADD PUSH2 0xCB9 JUMP JUMPDEST SWAP2 POP POP SWAP3 SWAP2 POP POP JUMP JUMPDEST PUSH1 0x0 PUSH1 0x20 DUP3 DUP5 SUB SLT ISZERO PUSH2 0xFBD JUMPI PUSH1 0x0 DUP1 REVERT JUMPDEST PUSH1 0x0 PUSH2 0xFCB DUP5 DUP3 DUP6 ADD PUSH2 0xCCE JUMP JUMPDEST SWAP2 POP POP SWAP3 SWAP2 POP POP JUMP JUMPDEST PUSH2 0xFE5 PUSH2 0xFE0 DUP3 PUSH2 0x1450 JUMP JUMPDEST PUSH2 0x1546 JUMP JUMPDEST DUP3 MSTORE POP POP JUMP JUMPDEST PUSH2 0xFFC PUSH2 0xFF7 DUP3 PUSH2 0x1462 JUMP JUMPDEST PUSH2 0x1558 JUMP JUMPDEST DUP3 MSTORE POP POP JUMP JUMPDEST PUSH1 0x0 PUSH2 0x100D DUP3 PUSH2 0x1413 JUMP JUMPDEST PUSH2 0x1017 DUP2 DUP6 PUSH2 0x1429 JUMP JUMPDEST SWAP4 POP PUSH2 0x1027 DUP2 DUP6 PUSH1 0x20 DUP7 ADD PUSH2 0x1513 JUMP JUMPDEST PUSH2 0x1030 DUP2 PUSH2 0x15D8 JUMP JUMPDEST DUP5 ADD SWAP2 POP POP SWAP3 SWAP2 POP POP JUMP JUMPDEST PUSH1 0x0 PUSH2 0x1046 DUP3 PUSH2 0x1413 JUMP JUMPDEST PUSH2 0x1050 DUP2 DUP6 PUSH2 0x143A JUMP JUMPDEST SWAP4 POP PUSH2 0x1060 DUP2 DUP6 PUSH1 0x20 DUP7 ADD PUSH2 0x1513 JUMP JUMPDEST DUP1 DUP5 ADD SWAP2 POP POP SWAP3 SWAP2 POP POP JUMP JUMPDEST PUSH2 0x107D PUSH2 0x1078 DUP3 PUSH2 0x148E JUMP JUMPDEST PUSH2 0x1562 JUMP JUMPDEST DUP3 MSTORE POP POP JUMP JUMPDEST PUSH1 0x0 PUSH2 0x108E DUP3 PUSH2 0x141E JUMP JUMPDEST PUSH2 0x1098 DUP2 DUP6 PUSH2 0x1445 JUMP JUMPDEST SWAP4 POP PUSH2 0x10A8 DUP2 DUP6 PUSH1 0x20 DUP7 ADD PUSH2 0x1513 JUMP JUMPDEST DUP1 DUP5 ADD SWAP2 POP POP SWAP3 SWAP2 POP POP JUMP JUMPDEST PUSH2 0x10C5 PUSH2 0x10C0 DUP3 PUSH2 0x14A9 JUMP JUMPDEST PUSH2 0x1586 JUMP JUMPDEST DUP3 MSTORE POP POP JUMP JUMPDEST PUSH2 0x10DC PUSH2 0x10D7 DUP3 PUSH2 0x149B JUMP JUMPDEST PUSH2 0x1574 JUMP JUMPDEST DUP3 MSTORE POP POP JUMP JUMPDEST PUSH2 0x10F3 PUSH2 0x10EE DUP3 PUSH2 0x14C9 JUMP JUMPDEST PUSH2 0x1598 JUMP JUMPDEST DUP3 MSTORE POP POP JUMP JUMPDEST PUSH2 0x110A PUSH2 0x1105 DUP3 PUSH2 0x14D3 JUMP JUMPDEST PUSH2 0x15A2 JUMP JUMPDEST DUP3 MSTORE POP POP JUMP JUMPDEST PUSH2 0x1121 PUSH2 0x111C DUP3 PUSH2 0x14E3 JUMP JUMPDEST PUSH2 0x15B4 JUMP JUMPDEST DUP3 MSTORE POP POP JUMP JUMPDEST PUSH2 0x1138 PUSH2 0x1133 DUP3 PUSH2 0x14F7 JUMP JUMPDEST PUSH2 0x15C6 JUMP JUMPDEST DUP3 MSTORE POP POP JUMP JUMPDEST PUSH1 0x0 PUSH2 0x114A DUP3 DUP5 PUSH2 0xFD4 JUMP JUMPDEST PUSH1 0x14 DUP3 ADD SWAP2 POP DUP2 SWAP1 POP SWAP3 SWAP2 POP POP JUMP JUMPDEST PUSH1 0x0 PUSH2 0x1165 DUP3 DUP5 PUSH2 0xFEB JUMP JUMPDEST PUSH1 0x14 DUP3 ADD SWAP2 POP DUP2 SWAP1 POP SWAP3 SWAP2 POP POP JUMP JUMPDEST PUSH1 0x0 PUSH2 0x1180 DUP3 DUP6 PUSH2 0x103B JUMP JUMPDEST SWAP2 POP PUSH2 0x118C DUP3 DUP5 PUSH2 0x103B JUMP JUMPDEST SWAP2 POP DUP2 SWAP1 POP SWAP4 SWAP3 POP POP POP JUMP JUMPDEST PUSH1 0x0 PUSH2 0x11A4 DUP3 DUP9 PUSH2 0x103B JUMP JUMPDEST SWAP2 POP PUSH2 0x11B0 DUP3 DUP8 PUSH2 0x103B JUMP JUMPDEST SWAP2 POP PUSH2 0x11BC DUP3 DUP7 PUSH2 0x103B JUMP JUMPDEST SWAP2 POP PUSH2 0x11C8 DUP3 DUP6 PUSH2 0x103B JUMP JUMPDEST SWAP2 POP PUSH2 0x11D4 DUP3 DUP5 PUSH2 0x103B JUMP JUMPDEST SWAP2 POP DUP2 SWAP1 POP SWAP7 SWAP6 POP POP POP POP POP POP JUMP JUMPDEST PUSH1 0x0 PUSH2 0x11EF DUP3 DUP11 PUSH2 0x103B JUMP JUMPDEST SWAP2 POP PUSH2 0x11FB DUP3 DUP10 PUSH2 0x103B JUMP JUMPDEST SWAP2 POP PUSH2 0x1207 DUP3 DUP9 PUSH2 0x103B JUMP JUMPDEST SWAP2 POP PUSH2 0x1213 DUP3 DUP8 PUSH2 0x103B JUMP JUMPDEST SWAP2 POP PUSH2 0x121F DUP3 DUP7 PUSH2 0x103B JUMP JUMPDEST SWAP2 POP PUSH2 0x122B DUP3 DUP6 PUSH2 0x103B JUMP JUMPDEST SWAP2 POP PUSH2 0x1237 DUP3 DUP5 PUSH2 0x103B JUMP JUMPDEST SWAP2 POP DUP2 SWAP1 POP SWAP9 SWAP8 POP POP POP POP POP POP POP POP JUMP JUMPDEST PUSH1 0x0 PUSH2 0x1254 DUP3 DUP5 PUSH2 0x106C JUMP JUMPDEST PUSH1 0x8 DUP3 ADD SWAP2 POP DUP2 SWAP1 POP SWAP3 SWAP2 POP POP JUMP JUMPDEST PUSH1 0x0 PUSH2 0x126F DUP3 DUP5 PUSH2 0x1083 JUMP JUMPDEST SWAP2 POP DUP2 SWAP1 POP SWAP3 SWAP2 POP POP JUMP JUMPDEST PUSH1 0x0 PUSH2 0x1286 DUP3 DUP5 PUSH2 0x10B4 JUMP JUMPDEST PUSH1 0x14 DUP3 ADD SWAP2 POP DUP2 SWAP1 POP SWAP3 SWAP2 POP POP JUMP JUMPDEST PUSH1 0x0 PUSH2 0x12A1 DUP3 DUP5 PUSH2 0x10CB JUMP JUMPDEST PUSH1 0x2 DUP3 ADD SWAP2 POP DUP2 SWAP1 POP SWAP3 SWAP2 POP POP JUMP JUMPDEST PUSH1 0x0 PUSH2 0x12BC DUP3 DUP5 PUSH2 0x10E2 JUMP JUMPDEST PUSH1 0x20 DUP3 ADD SWAP2 POP DUP2 SWAP1 POP SWAP3 SWAP2 POP POP JUMP JUMPDEST PUSH1 0x0 PUSH2 0x12D7 DUP3 DUP5 PUSH2 0x10F9 JUMP JUMPDEST PUSH1 0x4 DUP3 ADD SWAP2 POP DUP2 SWAP1 POP SWAP3 SWAP2 POP POP JUMP JUMPDEST PUSH1 0x0 PUSH2 0x12F2 DUP3 DUP5 PUSH2 0x1110 JUMP JUMPDEST PUSH1 0x8 DUP3 ADD SWAP2 POP DUP2 SWAP1 POP SWAP3 SWAP2 POP POP JUMP JUMPDEST PUSH1 0x0 PUSH2 0x130D DUP3 DUP5 PUSH2 0x1127 JUMP JUMPDEST PUSH1 0x1 DUP3 ADD SWAP2 POP DUP2 SWAP1 POP SWAP3 SWAP2 POP POP JUMP JUMPDEST PUSH1 0x0 PUSH1 0x20 DUP3 ADD SWAP1 POP DUP2 DUP2 SUB PUSH1 0x0 DUP4 ADD MSTORE PUSH2 0x1336 DUP2 DUP5 PUSH2 0x1002 JUMP JUMPDEST SWAP1 POP SWAP3 SWAP2 POP POP JUMP JUMPDEST PUSH1 0x0 PUSH1 0x40 MLOAD SWAP1 POP DUP2 DUP2 ADD DUP2 DUP2 LT PUSH8 0xFFFFFFFFFFFFFFFF DUP3 GT OR ISZERO PUSH2 0x1361 JUMPI PUSH1 0x0 DUP1 REVERT JUMPDEST DUP1 PUSH1 0x40 MSTORE POP SWAP2 SWAP1 POP JUMP JUMPDEST PUSH1 0x0 PUSH8 0xFFFFFFFFFFFFFFFF DUP3 GT ISZERO PUSH2 0x1382 JUMPI PUSH1 0x0 DUP1 REVERT JUMPDEST PUSH1 0x20 DUP3 MUL SWAP1 POP PUSH1 0x20 DUP2 ADD SWAP1 POP SWAP2 SWAP1 POP JUMP JUMPDEST PUSH1 0x0 PUSH8 0xFFFFFFFFFFFFFFFF DUP3 GT ISZERO PUSH2 0x13AA JUMPI PUSH1 0x0 DUP1 REVERT JUMPDEST PUSH1 0x20 DUP3 MUL SWAP1 POP PUSH1 0x20 DUP2 ADD SWAP1 POP SWAP2 SWAP1 POP JUMP JUMPDEST PUSH1 0x0 PUSH8 0xFFFFFFFFFFFFFFFF DUP3 GT ISZERO PUSH2 0x13D2 JUMPI PUSH1 0x0 DUP1 REVERT JUMPDEST PUSH1 0x1F NOT PUSH1 0x1F DUP4 ADD AND SWAP1 POP PUSH1 0x20 DUP2 ADD SWAP1 POP SWAP2 SWAP1 POP JUMP JUMPDEST PUSH1 0x0 PUSH8 0xFFFFFFFFFFFFFFFF DUP3 GT ISZERO PUSH2 0x13FE JUMPI PUSH1 0x0 DUP1 REVERT JUMPDEST PUSH1 0x1F NOT PUSH1 0x1F DUP4 ADD AND SWAP1 POP PUSH1 0x20 DUP2 ADD SWAP1 POP SWAP2 SWAP1 POP JUMP JUMPDEST PUSH1 0x0 DUP2 MLOAD SWAP1 POP SWAP2 SWAP1 POP JUMP JUMPDEST PUSH1 0x0 DUP2 MLOAD SWAP1 POP SWAP2 SWAP1 POP JUMP JUMPDEST PUSH1 0x0 DUP3 DUP3 MSTORE PUSH1 0x20 DUP3 ADD SWAP1 POP SWAP3 SWAP2 POP POP JUMP JUMPDEST PUSH1 0x0 DUP2 SWAP1 POP SWAP3 SWAP2 POP POP JUMP JUMPDEST PUSH1 0x0 DUP2 SWAP1 POP SWAP3 SWAP2 POP POP JUMP JUMPDEST PUSH1 0x0 PUSH2 0x145B DUP3 PUSH2 0x14A9 JUMP JUMPDEST SWAP1 POP SWAP2 SWAP1 POP JUMP JUMPDEST PUSH1 0x0 PUSH32 0xFFFFFFFFFFFFFFFFFFFFFFFFFFFFFFFFFFFFFFFF000000000000000000000000 DUP3 AND SWAP1 POP SWAP2 SWAP1 POP JUMP JUMPDEST PUSH1 0x0 DUP2 PUSH1 0x7 SIGNEXTEND SWAP1 POP SWAP2 SWAP1 POP JUMP JUMPDEST PUSH1 0x0 PUSH2 0xFFFF DUP3 AND SWAP1 POP SWAP2 SWAP1 POP JUMP JUMPDEST PUSH1 0x0 PUSH20 0xFFFFFFFFFFFFFFFFFFFFFFFFFFFFFFFFFFFFFFFF DUP3 AND SWAP1 POP SWAP2 SWAP1 POP JUMP JUMPDEST PUSH1 0x0 DUP2 SWAP1 POP SWAP2 SWAP1 POP JUMP JUMPDEST PUSH1 0x0 PUSH4 0xFFFFFFFF DUP3 AND SWAP1 POP SWAP2 SWAP1 POP JUMP JUMPDEST PUSH1 0x0 PUSH8 0xFFFFFFFFFFFFFFFF DUP3 AND SWAP1 POP SWAP2 SWAP1 POP JUMP JUMPDEST PUSH1 0x0 PUSH1 0xFF DUP3 AND SWAP1 POP SWAP2 SWAP1 POP JUMP JUMPDEST DUP3 DUP2 DUP4 CALLDATACOPY PUSH1 0x0 DUP4 DUP4 ADD MSTORE POP POP POP JUMP JUMPDEST PUSH1 0x0 JUMPDEST DUP4 DUP2 LT ISZERO PUSH2 0x1531 JUMPI DUP1 DUP3 ADD MLOAD DUP2 DUP5 ADD MSTORE PUSH1 0x20 DUP2 ADD SWAP1 POP PUSH2 0x1516 JUMP JUMPDEST DUP4 DUP2 GT ISZERO PUSH2 0x1540 JUMPI PUSH1 0x0 DUP5 DUP5 ADD MSTORE JUMPDEST POP POP POP POP JUMP JUMPDEST PUSH1 0x0 PUSH2 0x1551 DUP3 PUSH2 0x1586 JUMP JUMPDEST SWAP1 POP SWAP2 SWAP1 POP JUMP JUMPDEST PUSH1 0x0 DUP2 SWAP1 POP SWAP2 SWAP1 POP JUMP JUMPDEST PUSH1 0x0 PUSH2 0x156D DUP3 PUSH2 0x15E9 JUMP JUMPDEST SWAP1 POP SWAP2 SWAP1 POP JUMP JUMPDEST PUSH1 0x0 PUSH2 0x157F DUP3 PUSH2 0x1603 JUMP JUMPDEST SWAP1 POP SWAP2 SWAP1 POP JUMP JUMPDEST PUSH1 0x0 PUSH2 0x1591 DUP3 PUSH2 0x161D JUMP JUMPDEST SWAP1 POP SWAP2 SWAP1 POP JUMP JUMPDEST PUSH1 0x0 DUP2 SWAP1 POP SWAP2 SWAP1 POP JUMP JUMPDEST PUSH1 0x0 PUSH2 0x15AD DUP3 PUSH2 0x15F6 JUMP JUMPDEST SWAP1 POP SWAP2 SWAP1 POP JUMP JUMPDEST PUSH1 0x0 PUSH2 0x15BF DUP3 PUSH2 0x15E9 JUMP JUMPDEST SWAP1 POP SWAP2 SWAP1 POP JUMP JUMPDEST PUSH1 0x0 PUSH2 0x15D1 DUP3 PUSH2 0x1610 JUMP JUMPDEST SWAP1 POP SWAP2 SWAP1 POP JUMP JUMPDEST PUSH1 0x0 PUSH1 0x1F NOT PUSH1 0x1F DUP4 ADD AND SWAP1 POP SWAP2 SWAP1 POP JUMP JUMPDEST PUSH1 0x0 DUP2 PUSH1 0xC0 SHL SWAP1 POP SWAP2 SWAP1 POP JUMP JUMPDEST PUSH1 0x0 DUP2 PUSH1 0xE0 SHL SWAP1 POP SWAP2 SWAP1 POP JUMP JUMPDEST PUSH1 0x0 DUP2 PUSH1 0xF0 SHL SWAP1 POP SWAP2 SWAP1 POP JUMP JUMPDEST PUSH1 0x0 DUP2 PUSH1 0xF8 SHL SWAP1 POP SWAP2 SWAP1 POP JUMP JUMPDEST PUSH1 0x0 DUP2 PUSH1 0x60 SHL SWAP1 POP SWAP2 SWAP1 POP JUMP JUMPDEST PUSH2 0x1633 DUP2 PUSH2 0x1450 JUMP JUMPDEST DUP2 EQ PUSH2 0x163E JUMPI PUSH1 0x0 DUP1 REVERT JUMPDEST POP JUMP JUMPDEST PUSH2 0x164A DUP2 PUSH2 0x1462 JUMP JUMPDEST DUP2 EQ PUSH2 0x1655 JUMPI PUSH1 0x0 DUP1 REVERT JUMPDEST POP JUMP JUMPDEST PUSH2 0x1661 DUP2 PUSH2 0x148E JUMP JUMPDEST DUP2 EQ PUSH2 0x166C JUMPI PUSH1 0x0 DUP1 REVERT JUMPDEST POP JUMP JUMPDEST PUSH2 0x1678 DUP2 PUSH2 0x149B JUMP JUMPDEST DUP2 EQ PUSH2 0x1683 JUMPI PUSH1 0x0 DUP1 REVERT JUMPDEST POP JUMP JUMPDEST PUSH2 0x168F DUP2 PUSH2 0x14A9 JUMP JUMPDEST DUP2 EQ PUSH2 0x169A JUMPI PUSH1 0x0 DUP1 REVERT JUMPDEST POP JUMP JUMPDEST PUSH2 0x16A6 DUP2 PUSH2 0x14C9 JUMP JUMPDEST DUP2 EQ PUSH2 0x16B1 JUMPI PUSH1 0x0 DUP1 REVERT JUMPDEST POP JUMP JUMPDEST PUSH2 0x16BD DUP2 PUSH2 0x14D3 JUMP JUMPDEST DUP2 EQ PUSH2 0x16C8 JUMPI PUSH1 0x0 DUP1 REVERT JUMPDEST POP JUMP JUMPDEST PUSH2 0x16D4 DUP2 PUSH2 0x14E3 JUMP JUMPDEST DUP2 EQ PUSH2 0x16DF JUMPI PUSH1 0x0 DUP1 REVERT JUMPDEST POP JUMP JUMPDEST PUSH2 0x16EB DUP2 PUSH2 0x14F7 JUMP JUMPDEST DUP2 EQ PUSH2 0x16F6 JUMPI PUSH1 0x0 DUP1 REVERT JUMPDEST POP JUMP INVALID LOG2 PUSH5 0x6970667358 0x22 SLT KECCAK256 PUSH32 0x256EB9988DE8FB8615C3D1A92762639F198A654A92FE4BAEA391BDD742074C64 PUSH20 0x6F6C634300060C00330000000000000000000000 "
		},
		"gasEstimates": {
			"creation": {
				"codeDepositCost": "1187000",
				"executionCost": "1234",
				"totalCost": "1188234"
			},
			"external": {
				"flipArray(bytes)": "infinite",
				"serializeAddress(address)": "infinite",
				"serializeBytes20(bytes20)": "infinite",
				"serializeCCurrencyValueMap((uint160,uint64))": "infinite",
				"serializeCCurrencyValueMaps((uint160,uint64)[])": "infinite",
				"serializeCReserveTransfer((uint32,uint160,uint64,(uint8,uint160,uint160,uint160,int64),uint64,uint160,uint160))": "infinite",
				"serializeCReserveTransfers((uint32,uint160,uint64,(uint8,uint160,uint160,uint160,int64),uint64,uint160,uint160)[])": "infinite",
				"serializeCTransferDestination((uint8,uint160,uint160,uint160,int64))": "infinite",
				"serializeInt64(int64)": "infinite",
				"serializeString(string)": "infinite",
				"serializeUint16(uint16)": "infinite",
				"serializeUint160(uint160)": "infinite",
				"serializeUint256(uint256)": "infinite",
				"serializeUint32(uint32)": "infinite",
				"serializeUint64(uint64)": "infinite",
				"serializeUint8(uint8)": "infinite"
			}
		},
		"methodIdentifiers": {
			"flipArray(bytes)": "1222d81a",
			"serializeAddress(address)": "241d23b2",
			"serializeBytes20(bytes20)": "463276c3",
			"serializeCCurrencyValueMap((uint160,uint64))": "c41c134d",
			"serializeCCurrencyValueMaps((uint160,uint64)[])": "c6f4c269",
			"serializeCReserveTransfer((uint32,uint160,uint64,(uint8,uint160,uint160,uint160,int64),uint64,uint160,uint160))": "14282c61",
			"serializeCReserveTransfers((uint32,uint160,uint64,(uint8,uint160,uint160,uint160,int64),uint64,uint160,uint160)[])": "1b5656cf",
			"serializeCTransferDestination((uint8,uint160,uint160,uint160,int64))": "4efc5da1",
			"serializeInt64(int64)": "af832f09",
			"serializeString(string)": "68b4ae81",
			"serializeUint16(uint16)": "e4cba547",
			"serializeUint160(uint160)": "57759e15",
			"serializeUint256(uint256)": "f20fb830",
			"serializeUint32(uint32)": "cecb3043",
			"serializeUint64(uint64)": "122e5ae7",
			"serializeUint8(uint8)": "6127b4ff"
		}
	},
	"abi": [
		{
			"inputs": [
				{
					"internalType": "bytes",
					"name": "incoming",
					"type": "bytes"
				}
			],
			"name": "flipArray",
			"outputs": [
				{
					"internalType": "bytes",
					"name": "",
					"type": "bytes"
				}
			],
			"stateMutability": "pure",
			"type": "function"
		},
		{
			"inputs": [
				{
					"internalType": "address",
					"name": "anyAddress",
					"type": "address"
				}
			],
			"name": "serializeAddress",
			"outputs": [
				{
					"internalType": "bytes",
					"name": "",
					"type": "bytes"
				}
			],
			"stateMutability": "pure",
			"type": "function"
		},
		{
			"inputs": [
				{
					"internalType": "bytes20",
					"name": "anyBytes20",
					"type": "bytes20"
				}
			],
			"name": "serializeBytes20",
			"outputs": [
				{
					"internalType": "bytes",
					"name": "",
					"type": "bytes"
				}
			],
			"stateMutability": "pure",
			"type": "function"
		},
		{
			"inputs": [
				{
					"components": [
						{
							"internalType": "uint160",
							"name": "currency",
							"type": "uint160"
						},
						{
							"internalType": "uint64",
							"name": "amount",
							"type": "uint64"
						}
					],
					"internalType": "struct VerusObjects.CCurrencyValueMap",
					"name": "_ccvm",
					"type": "tuple"
				}
			],
			"name": "serializeCCurrencyValueMap",
			"outputs": [
				{
					"internalType": "bytes",
					"name": "",
					"type": "bytes"
				}
			],
			"stateMutability": "pure",
			"type": "function"
		},
		{
			"inputs": [
				{
					"components": [
						{
							"internalType": "uint160",
							"name": "currency",
							"type": "uint160"
						},
						{
							"internalType": "uint64",
							"name": "amount",
							"type": "uint64"
						}
					],
					"internalType": "struct VerusObjects.CCurrencyValueMap[]",
					"name": "_ccvms",
					"type": "tuple[]"
				}
			],
			"name": "serializeCCurrencyValueMaps",
			"outputs": [
				{
					"internalType": "bytes",
					"name": "",
					"type": "bytes"
				}
			],
			"stateMutability": "pure",
			"type": "function"
		},
		{
			"inputs": [
				{
					"components": [
						{
							"internalType": "uint32",
							"name": "flags",
							"type": "uint32"
						},
						{
							"internalType": "uint160",
							"name": "feeCurrencyID",
							"type": "uint160"
						},
						{
							"internalType": "uint64",
							"name": "nFees",
							"type": "uint64"
						},
						{
							"components": [
								{
									"internalType": "uint8",
									"name": "transferType",
									"type": "uint8"
								},
								{
									"internalType": "uint160",
									"name": "destination",
									"type": "uint160"
								},
								{
									"internalType": "uint160",
									"name": "gatewayID",
									"type": "uint160"
								},
								{
									"internalType": "uint160",
									"name": "gatewayCode",
									"type": "uint160"
								},
								{
									"internalType": "int64",
									"name": "fees",
									"type": "int64"
								}
							],
							"internalType": "struct VerusObjects.CTransferDestination",
							"name": "destination",
							"type": "tuple"
						},
						{
							"internalType": "uint64",
							"name": "amount",
							"type": "uint64"
						},
						{
							"internalType": "uint160",
							"name": "destCurrencyID",
							"type": "uint160"
						},
						{
							"internalType": "uint160",
							"name": "secondReserveID",
							"type": "uint160"
						}
					],
					"internalType": "struct VerusObjects.CReserveTransfer",
					"name": "ct",
					"type": "tuple"
				}
			],
			"name": "serializeCReserveTransfer",
			"outputs": [
				{
					"internalType": "bytes",
					"name": "",
					"type": "bytes"
				}
			],
			"stateMutability": "pure",
			"type": "function"
		},
		{
			"inputs": [
				{
					"components": [
						{
							"internalType": "uint32",
							"name": "flags",
							"type": "uint32"
						},
						{
							"internalType": "uint160",
							"name": "feeCurrencyID",
							"type": "uint160"
						},
						{
							"internalType": "uint64",
							"name": "nFees",
							"type": "uint64"
						},
						{
							"components": [
								{
									"internalType": "uint8",
									"name": "transferType",
									"type": "uint8"
								},
								{
									"internalType": "uint160",
									"name": "destination",
									"type": "uint160"
								},
								{
									"internalType": "uint160",
									"name": "gatewayID",
									"type": "uint160"
								},
								{
									"internalType": "uint160",
									"name": "gatewayCode",
									"type": "uint160"
								},
								{
									"internalType": "int64",
									"name": "fees",
									"type": "int64"
								}
							],
							"internalType": "struct VerusObjects.CTransferDestination",
							"name": "destination",
							"type": "tuple"
						},
						{
							"internalType": "uint64",
							"name": "amount",
							"type": "uint64"
						},
						{
							"internalType": "uint160",
							"name": "destCurrencyID",
							"type": "uint160"
						},
						{
							"internalType": "uint160",
							"name": "secondReserveID",
							"type": "uint160"
						}
					],
					"internalType": "struct VerusObjects.CReserveTransfer[]",
					"name": "_bts",
					"type": "tuple[]"
				}
			],
			"name": "serializeCReserveTransfers",
			"outputs": [
				{
					"internalType": "bytes",
					"name": "",
					"type": "bytes"
				}
			],
			"stateMutability": "pure",
			"type": "function"
		},
		{
			"inputs": [
				{
					"components": [
						{
							"internalType": "uint8",
							"name": "transferType",
							"type": "uint8"
						},
						{
							"internalType": "uint160",
							"name": "destination",
							"type": "uint160"
						},
						{
							"internalType": "uint160",
							"name": "gatewayID",
							"type": "uint160"
						},
						{
							"internalType": "uint160",
							"name": "gatewayCode",
							"type": "uint160"
						},
						{
							"internalType": "int64",
							"name": "fees",
							"type": "int64"
						}
					],
					"internalType": "struct VerusObjects.CTransferDestination",
					"name": "ctd",
					"type": "tuple"
				}
			],
			"name": "serializeCTransferDestination",
			"outputs": [
				{
					"internalType": "bytes",
					"name": "",
					"type": "bytes"
				}
			],
			"stateMutability": "pure",
			"type": "function"
		},
		{
			"inputs": [
				{
					"internalType": "int64",
					"name": "number",
					"type": "int64"
				}
			],
			"name": "serializeInt64",
			"outputs": [
				{
					"internalType": "bytes",
					"name": "",
					"type": "bytes"
				}
			],
			"stateMutability": "pure",
			"type": "function"
		},
		{
			"inputs": [
				{
					"internalType": "string",
					"name": "anyString",
					"type": "string"
				}
			],
			"name": "serializeString",
			"outputs": [
				{
					"internalType": "bytes",
					"name": "",
					"type": "bytes"
				}
			],
			"stateMutability": "pure",
			"type": "function"
		},
		{
			"inputs": [
				{
					"internalType": "uint16",
					"name": "number",
					"type": "uint16"
				}
			],
			"name": "serializeUint16",
			"outputs": [
				{
					"internalType": "bytes",
					"name": "",
					"type": "bytes"
				}
			],
			"stateMutability": "pure",
			"type": "function"
		},
		{
			"inputs": [
				{
					"internalType": "uint160",
					"name": "number",
					"type": "uint160"
				}
			],
			"name": "serializeUint160",
			"outputs": [
				{
					"internalType": "bytes",
					"name": "",
					"type": "bytes"
				}
			],
			"stateMutability": "pure",
			"type": "function"
		},
		{
			"inputs": [
				{
					"internalType": "uint256",
					"name": "number",
					"type": "uint256"
				}
			],
			"name": "serializeUint256",
			"outputs": [
				{
					"internalType": "bytes",
					"name": "",
					"type": "bytes"
				}
			],
			"stateMutability": "pure",
			"type": "function"
		},
		{
			"inputs": [
				{
					"internalType": "uint32",
					"name": "number",
					"type": "uint32"
				}
			],
			"name": "serializeUint32",
			"outputs": [
				{
					"internalType": "bytes",
					"name": "",
					"type": "bytes"
				}
			],
			"stateMutability": "pure",
			"type": "function"
		},
		{
			"inputs": [
				{
					"internalType": "uint64",
					"name": "number",
					"type": "uint64"
				}
			],
			"name": "serializeUint64",
			"outputs": [
				{
					"internalType": "bytes",
					"name": "",
					"type": "bytes"
				}
			],
			"stateMutability": "pure",
			"type": "function"
		},
		{
			"inputs": [
				{
					"internalType": "uint8",
					"name": "number",
					"type": "uint8"
				}
			],
			"name": "serializeUint8",
			"outputs": [
				{
					"internalType": "bytes",
					"name": "",
					"type": "bytes"
				}
			],
			"stateMutability": "pure",
			"type": "function"
		}
	]
}