{
	"data": {
		"bytecode": {
			"linkReferences": {},
			"object": "608060405234801561001057600080fd5b50613f98806100206000396000f3fe608060405234801561001057600080fd5b50600436106102265760003560e01c8063892e293711610130578063c93e58c8116100b8578063e06711111161007c578063e06711111461082b578063e4cba5471461085b578063f20fb8301461088b578063f8217295146108bb578063fef5906a146108eb57610226565b8063c93e58c81461073b578063cecb30431461076b578063cfa84de91461079b578063dad935a1146107cb578063df61a937146107fb57610226565b8063a412bb29116100ff578063a412bb291461064b578063af832f091461067b578063b04d197a146106ab578063b3a895f6146106db578063b9f7f35a1461070b57610226565b8063892e29371461058b5780638bbfc13e146105bb578063941bb060146105eb5780639d487b471461061b57610226565b8063241d23b2116101b35780634625600711610182578063462560071461049b578063463276c3146104cb5780636127b4ff146104fb57806368b4ae811461052b5780637b92bd281461055b57610226565b8063241d23b2146103db57806333c45ab91461040b578063343bee601461043b57806344c789d11461046b57610226565b8063122e5ae7116101fa578063122e5ae7146102eb57806318c9bbfd1461031b57806319a7c17b1461034b5780631c3565321461037b578063200f6c2a146103ab57610226565b80629c81521461022b578063049e34901461025b5780630a803a861461028b5780631222d81a146102bb575b600080fd5b61024560048036038101906102409190612cb7565b61091b565b6040516102529190613939565b60405180910390f35b61027560048036038101906102709190612b1e565b610944565b6040516102829190613939565b60405180910390f35b6102a560048036038101906102a09190612ed6565b6109b5565b6040516102b29190613939565b60405180910390f35b6102d560048036038101906102d09190612d32565b610b62565b6040516102e29190613939565b60405180910390f35b6103056004803603810190610300919061318e565b610c33565b6040516103129190613939565b60405180910390f35b61033560048036038101906103309190613003565b610c6a565b6040516103429190613939565b60405180910390f35b61036560048036038101906103609190612c76565b610d01565b6040516103729190613939565b60405180910390f35b6103956004803603810190610390919061307f565b610d89565b6040516103a29190613939565b60405180910390f35b6103c560048036038101906103c09190612bf4565b610dcc565b6040516103d29190613939565b60405180910390f35b6103f560048036038101906103f09190612a32565b610e3d565b6040516104029190613939565b60405180910390f35b610425600480360381019061042091906130e9565b610e6c565b6040516104329190613939565b60405180910390f35b61045560048036038101906104509190612f17565b610eaf565b6040516104629190613939565b60405180910390f35b61048560048036038101906104809190612f81565b610ffc565b6040516104929190613939565b60405180910390f35b6104b560048036038101906104b09190612d73565b611037565b6040516104c29190613939565b60405180910390f35b6104e560048036038101906104e09190612ce0565b61106e565b6040516104f29190613939565b60405180910390f35b610515600480360381019061051091906131b7565b611097565b6040516105229190613939565b60405180910390f35b61054560048036038101906105409190612dee565b6110ce565b6040516105529190613939565b60405180910390f35b61057560048036038101906105709190612c35565b611126565b6040516105829190613939565b60405180910390f35b6105a560048036038101906105a09190612fc2565b611197565b6040516105b29190613939565b60405180910390f35b6105d560048036038101906105d0919061302c565b611276565b6040516105e29190613939565b60405180910390f35b61060560048036038101906106009190612add565b611397565b6040516106129190613939565b60405180910390f35b61063560048036038101906106309190612a5b565b611408565b6040516106429190613939565b60405180910390f35b61066560048036038101906106609190612b5f565b611479565b6040516106729190613939565b60405180910390f35b61069560048036038101906106909190612dc5565b6114ea565b6040516106a29190613939565b60405180910390f35b6106c560048036038101906106c09190612ba0565b611521565b6040516106d29190613939565b60405180910390f35b6106f560048036038101906106f0919061313c565b61159a565b6040516107029190613939565b60405180910390f35b61072560048036038101906107209190612d09565b611622565b6040516107329190613939565b60405180910390f35b61075560048036038101906107509190612e2f565b611653565b6040516107629190613939565b60405180910390f35b61078560048036038101906107809190613165565b6116a8565b6040516107929190613939565b60405180910390f35b6107b560048036038101906107b09190612f58565b6116df565b6040516107c29190613939565b60405180910390f35b6107e560048036038101906107e0919061313c565b611722565b6040516107f29190613939565b60405180910390f35b61081560048036038101906108109190613056565b6117f1565b6040516108229190613939565b60405180910390f35b610845600480360381019061084091906130a8565b61183f565b6040516108529190613939565b60405180910390f35b61087560048036038101906108709190613113565b611882565b6040516108829190613939565b60405180910390f35b6108a560048036038101906108a0919061313c565b6118b9565b6040516108b29190613939565b60405180910390f35b6108d560048036038101906108d09190612a9c565b6118f0565b6040516108e29190613939565b60405180910390f35b61090560048036038101906109009190612d9c565b611980565b6040516109129190613939565b60405180910390f35b60608160405160200161092e91906133d8565b6040516020818303038152906040529050919050565b6060806109518351611722565b905060005b83518110156109ab578161097c85838151811061096f57fe5b6020026020010151610ffc565b60405160200161098d929190613451565b60405160208183030381529060405291508080600101915050610956565b5080915050919050565b606060006109c68360000151611882565b6109d38460200151611882565b6109e08560400151610e3d565b6109ed8660600151610d01565b6109fa8760800151611408565b610a078860a001516118f0565b610a178960c0015160070b61159a565b610a278a60e0015160070b61159a565b610a388b610100015160070b61159a565b604051602001610a509998979695949392919061363e565b60405160208183030381529060405290506000610a718461012001516114ea565b610a7f8561014001516114ea565b610a8d8661016001516114ea565b610a9b8761018001516114ea565b610aa9886101a001516118f0565b610ab7896101c001516118f0565b610ac58a6101e001516118f0565b610ad38b61020001516118f0565b610ae18c61022001516118f0565b610aef8d61024001516118f0565b610afd8e6102600151611408565b610b0b8f61028001516118f0565b604051602001610b269c9b9a999897969594939291906136bd565b60405160208183030381529060405290508181604051602001610b4a929190613451565b60405160208183030381529060405292505050919050565b606060008251905060008167ffffffffffffffff81118015610b8357600080fd5b506040519080825280601f01601f191660200182016040528015610bb65781602001600182028036833780820191505090505b50905060005b82811015610c28578460018285030381518110610bd557fe5b602001015160f81c60f81b828281518110610bec57fe5b60200101907effffffffffffffffffffffffffffffffffffffffffffffffffffffffffffff1916908160001a9053508080600101915050610bbc565b819350505050919050565b6060600082604051602001610c48919061387f565b6040516020818303038152906040529050610c6281610b62565b915050919050565b6060610c798260400151610e3d565b610c868360000151611037565b610c938460200151611037565b610ca08560400151610e3d565b610cad86606001516116a8565b610cba8760800151611622565b610cc78860a00151611622565b610cd48960c00151611622565b604051602001610ceb9897969594939291906135cc565b6040516020818303038152906040529050919050565b606080610d0e8351611722565b905060005b8351811015610d7f5781848281518110610d2957fe5b6020026020010151604051602001610d419190613813565b604051602081830303815290604052604051602001610d61929190613451565b60405160208183030381529060405291508080600101915050610d13565b5080915050919050565b6060610d988260000151611622565b610da583602001516116a8565b604051602001610db6929190613451565b6040516020818303038152906040529050919050565b606080610dd98351611722565b905060005b8351811015610e335781610e04858381518110610df757fe5b602002602001015161183f565b604051602001610e15929190613451565b60405160208183030381529060405291508080600101915050610dde565b5080915050919050565b6060600082604051602001610e5291906133bd565b604051602081830303815290604052905080915050919050565b6060610e7b8260000151610e3d565b610e888360200151610c6a565b604051602001610e99929190613451565b6040516020818303038152906040529050919050565b60606000610ec08360000151611882565b610ecd8460200151611882565b610eda8560400151610e3d565b610eed866060015163ffffffff1661159a565b610f00876080015163ffffffff1661159a565b610f0d8860a00151610e3d565b610f1a8960c00151610e3d565b604051602001610f3097969594939291906134f1565b60405160208183030381529060405290506000610f508460e001516116a8565b610f5e856101000151611397565b610f6c866101200151611397565b610f7a876101400151611622565b610f88886101600151611397565b610f968961018001516117f1565b610fa48a6101a00151611980565b600060f81b604051602001610fc0989796959493929190613556565b60405160208183030381529060405290508181604051602001610fe4929190613451565b60405160208183030381529060405292505050919050565b606081600001516110108360200151610e3d565b6040516020016110219291906137ef565b6040516020818303038152906040529050919050565b606060008260405160200161104c9190613787565b604051602081830303815290604052905061106681610b62565b915050919050565b60608160405160200161108191906133f3565b6040516020818303038152906040529050919050565b60606000826040516020016110ac919061389a565b60405160208183030381529060405290506110c681610b62565b915050919050565b606080826040516020016110e291906137d8565b60405160208183030381529060405290506110fd8151611722565b8360405160200161110f929190613763565b604051602081830303815290604052915050919050565b6060806111338351611722565b905060005b835181101561118d578161115e85838151811061115157fe5b6020026020010151610e6c565b60405160200161116f929190613451565b60405160208183030381529060405291508080600101915050611138565b5080915050919050565b60606111ac826000015163ffffffff1661159a565b6111bf836020015163ffffffff1661159a565b6111cc84604001516117f1565b6111d98560600151610e3d565b6111e686608001516109b5565b6111f38760a001516116a8565b6112008860c00151610d89565b61120d8960e00151611622565b61121b8a61010001516116a8565b6112298b6101200151610dcc565b6112378c6101400151611479565b6112458d6101600151610944565b6040516020016112609c9b9a999897969594939291906136bd565b6040516020818303038152906040529050919050565b6060600061128d836000015163ffffffff1661159a565b61129e846020015160000151610e3d565b6112b985602001516020015167ffffffffffffffff1661159a565b6040516020016112ca929190613451565b6040516020818303038152906040526112ec856040015163ffffffff1661159a565b6112f98660600151610e3d565b611306876080015161159a565b6113138860a001516117f1565b6113208960c00151610e3d565b60405160200161133697969594939291906134f1565b60405160208183030381529060405290506000604084604001511663ffffffff16111561138e578061136b8460e00151610e3d565b60405160200161137c929190613451565b60405160208183030381529060405290505b80915050919050565b6060806113a4835161159a565b905060005b83518110156113fe57816113cf8583815181106113c257fe5b60200260200101516116df565b6040516020016113e0929190613451565b604051602081830303815290604052915080806001019150506113a9565b5080915050919050565b6060806114158351611722565b905060005b835181101561146f578161144085838151811061143357fe5b6020026020010151611980565b604051602001611451929190613451565b6040516020818303038152906040529150808060010191505061141a565b5080915050919050565b6060806114868351611722565b905060005b83518110156114e057816114b18583815181106114a457fe5b6020026020010151610c6a565b6040516020016114c2929190613451565b6040516020818303038152906040529150808060010191505061148b565b5080915050919050565b60606000826040516020016114ff91906137bd565b604051602081830303815290604052905061151981610b62565b915050919050565b6060808215611537576115348451611722565b90505b60005b845181101561158f578161156086838151811061155357fe5b6020026020010151611276565b604051602001611571929190613451565b6040516020818303038152906040529150808060010191505061153a565b508091505092915050565b60606000606060005b60011561160f5760008114156115ba5760006115bd565b60805b607f86161760f81b925081836040516020016115da929190613429565b6040516020818303038152906040529150607f85116115f85761160f565b6001600786901c03945080806001019150506115a3565b61161882610b62565b9350505050919050565b606061164c82604051602001611638919061340e565b604051602081830303815290604052610b62565b9050919050565b606061165e866110ce565b61166786610e3d565b611670866114ea565b61167986610e3d565b8560405160200161168e9594939291906134a6565b604051602081830303815290604052905095945050505050565b60606000826040516020016116bd9190613864565b60405160208183030381529060405290506116d781610b62565b915050919050565b60606116ee8260000151610e3d565b6116fb8360200151610c33565b60405160200161170c929190613451565b6040516020818303038152906040529050919050565b60608060fd60ff168310156117585782604051602001611742919061389a565b60405160208183030381529060405290506117e8565b61ffff831161178b5760fd836040516020016117759291906138b5565b60405160208183030381529060405290506117e7565b63ffffffff83116117c05760fe836040516020016117aa9291906138e1565b60405160208183030381529060405290506117e6565b60ff836040516020016117d492919061390d565b60405160208183030381529060405290505b5b5b80915050919050565b60606118008260000151611097565b61180a6014611722565b6118178460200151610e3d565b60405160200161182993929190613475565b6040516020818303038152906040529050919050565b606061184e8260000151610e3d565b61185b83602001516109b5565b60405160200161186c929190613451565b6040516020818303038152906040529050919050565b6060600082604051602001611897919061382e565b60405160208183030381529060405290506118b181610b62565b915050919050565b60606000826040516020016118ce9190613849565b60405160208183030381529060405290506118e881610b62565b915050919050565b6060806118fd8351611722565b905060005b8351811015611976578161194785838151811061191b57fe5b602002602001015160405160200161193391906137bd565b604051602081830303815290604052610b62565b604051602001611958929190613451565b60405160208183030381529060405291508080600101915050611902565b5080915050919050565b606060008260405160200161199591906137a2565b60405160208183030381529060405290506119af81610b62565b915050919050565b60006119ca6119c58461398c565b61395b565b905080838252602082019050828560208602820111156119e957600080fd5b60005b85811015611a1957816119ff8882611ff2565b8452602084019350602083019250506001810190506119ec565b5050509392505050565b6000611a36611a31846139b8565b61395b565b90508083825260208201905082856020860282011115611a5557600080fd5b60005b85811015611a855781611a6b8882612007565b845260208401935060208301925050600181019050611a58565b5050509392505050565b6000611aa2611a9d846139e4565b61395b565b90508083825260208201905082856040860282011115611ac157600080fd5b60005b85811015611af15781611ad788826124c4565b845260208401935060408301925050600181019050611ac4565b5050509392505050565b6000611b0e611b0984613a10565b61395b565b9050808382526020820190508260005b85811015611b4e5781358501611b348882612510565b845260208401935060208301925050600181019050611b1e565b5050509392505050565b6000611b6b611b6684613a3c565b61395b565b905080838252602082019050828560e0860282011115611b8a57600080fd5b60005b85811015611bba5781611ba088826126f3565b845260208401935060e08301925050600181019050611b8d565b5050509392505050565b6000611bd7611bd284613a68565b61395b565b9050808382526020820190508285610140860282011115611bf757600080fd5b60005b85811015611c285781611c0d88826127a3565b84526020840193506101408301925050600181019050611bfa565b5050509392505050565b6000611c45611c4084613a94565b61395b565b9050808382526020820190508260005b85811015611c855781358501611c6b8882612903565b845260208401935060208301925050600181019050611c55565b5050509392505050565b6000611ca2611c9d84613ac0565b61395b565b9050808382526020820190508285610100860282011115611cc257600080fd5b60005b85811015611cf35781611cd88882612967565b84526020840193506101008301925050600181019050611cc5565b5050509392505050565b6000611d10611d0b84613aec565b61395b565b90508083825260208201905082856020860282011115611d2f57600080fd5b60005b85811015611d5f5781611d4588826129c9565b845260208401935060208301925050600181019050611d32565b5050509392505050565b6000611d7c611d7784613b18565b61395b565b905082815260208101848484011115611d9457600080fd5b611d9f848285613cc5565b509392505050565b6000611dba611db584613b48565b61395b565b905082815260208101848484011115611dd257600080fd5b611ddd848285613cc5565b509392505050565b600081359050611df481613e37565b92915050565b600082601f830112611e0b57600080fd5b8135611e1b8482602086016119b7565b91505092915050565b600082601f830112611e3557600080fd5b8135611e45848260208601611a23565b91505092915050565b600082601f830112611e5f57600080fd5b8135611e6f848260208601611a8f565b91505092915050565b600082601f830112611e8957600080fd5b8135611e99848260208601611afb565b91505092915050565b600082601f830112611eb357600080fd5b8135611ec3848260208601611b58565b91505092915050565b600082601f830112611edd57600080fd5b8135611eed848260208601611bc4565b91505092915050565b600082601f830112611f0757600080fd5b8135611f17848260208601611c32565b91505092915050565b600082601f830112611f3157600080fd5b8135611f41848260208601611c8f565b91505092915050565b600082601f830112611f5b57600080fd5b8135611f6b848260208601611cfd565b91505092915050565b600081359050611f8381613e4e565b92915050565b600081359050611f9881613e65565b92915050565b600081359050611fad81613e7c565b92915050565b600082601f830112611fc457600080fd5b8135611fd4848260208601611d69565b91505092915050565b600081359050611fec81613e93565b92915050565b60008135905061200181613eaa565b92915050565b60008135905061201681613ec1565b92915050565b600082601f83011261202d57600080fd5b813561203d848260208601611da7565b91505092915050565b60006102a0828403121561205957600080fd5b6120646102a061395b565b90506000612074848285016129b4565b6000830152506020612088848285016129b4565b602083015250604061209c84828501611de5565b604083015250606082013567ffffffffffffffff8111156120bc57600080fd5b6120c884828501611f4a565b606083015250608082013567ffffffffffffffff8111156120e857600080fd5b6120f484828501611dfa565b60808301525060a082013567ffffffffffffffff81111561211457600080fd5b61212084828501611e24565b60a08301525060c061213484828501612007565b60c08301525060e061214884828501612007565b60e08301525061010061215d84828501612007565b6101008301525061012061217384828501612007565b6101208301525061014061218984828501612007565b6101408301525061016061219f84828501612007565b610160830152506101806121b584828501612007565b610180830152506101a082013567ffffffffffffffff8111156121d757600080fd5b6121e384828501611e24565b6101a0830152506101c082013567ffffffffffffffff81111561220557600080fd5b61221184828501611e24565b6101c0830152506101e082013567ffffffffffffffff81111561223357600080fd5b61223f84828501611e24565b6101e08301525061020082013567ffffffffffffffff81111561226157600080fd5b61226d84828501611e24565b6102008301525061022082013567ffffffffffffffff81111561228f57600080fd5b61229b84828501611e24565b6102208301525061024082013567ffffffffffffffff8111156122bd57600080fd5b6122c984828501611e24565b6102408301525061026082013567ffffffffffffffff8111156122eb57600080fd5b6122f784828501611dfa565b6102608301525061028082013567ffffffffffffffff81111561231957600080fd5b61232584828501611e24565b6102808301525092915050565b60006101e0828403121561234557600080fd5b6123506101c061395b565b90506000612360848285016129b4565b6000830152506020612374848285016129b4565b602083015250604061238884828501611de5565b604083015250606061239c848285016129f3565b60608301525060806123b0848285016129f3565b60808301525060a06123c484828501611de5565b60a08301525060c06123d884828501611de5565b60c08301525060e06123ec848285016129f3565b60e08301525061010082013567ffffffffffffffff81111561240d57600080fd5b61241984828501611e4e565b6101008301525061012082013567ffffffffffffffff81111561243b57600080fd5b61244784828501611e4e565b6101208301525061014061245d84828501611f9e565b6101408301525061016082013567ffffffffffffffff81111561247f57600080fd5b61248b84828501611e4e565b610160830152506101806124a18482850161286b565b610180830152506101c06124b784828501611ff2565b6101a08301525092915050565b6000604082840312156124d657600080fd5b6124e0604061395b565b905060006124f084828501611de5565b600083015250602061250484828501612a08565b60208301525092915050565b60006040828403121561252257600080fd5b61252c604061395b565b9050600082013567ffffffffffffffff81111561254857600080fd5b6125548482850161201c565b600083015250602061256884828501611de5565b60208301525092915050565b60006101c0828403121561258757600080fd5b61259261018061395b565b905060006125a2848285016129f3565b60008301525060206125b6848285016129f3565b60208301525060406125ca8482850161286b565b60408301525060806125de84828501611de5565b60608301525060a082013567ffffffffffffffff8111156125fe57600080fd5b61260a84828501612046565b60808301525060c061261e848285016129f3565b60a08301525060e0612632848285016128b7565b60c08301525061012061264784828501611f9e565b60e08301525061014061265c848285016129f3565b6101008301525061016082013567ffffffffffffffff81111561267e57600080fd5b61268a84828501611ef6565b6101208301525061018082013567ffffffffffffffff8111156126ac57600080fd5b6126b884828501611ea2565b610140830152506101a082013567ffffffffffffffff8111156126da57600080fd5b6126e684828501611e78565b6101608301525092915050565b600060e0828403121561270557600080fd5b61270f60e061395b565b9050600061271f84828501611fdd565b600083015250602061273384828501611fdd565b602083015250604061274784828501611de5565b604083015250606061275b848285016129f3565b606083015250608061276f84828501611f9e565b60808301525060a061278384828501611f9e565b60a08301525060c061279784828501611f9e565b60c08301525092915050565b600061014082840312156127b657600080fd5b6127c161010061395b565b905060006127d1848285016129f3565b60008301525060206127e5848285016124c4565b60208301525060606127f9848285016129f3565b604083015250608061280d84828501611de5565b60608301525060a0612821848285016129de565b60808301525060c06128358482850161286b565b60a08301525061010061284a84828501611de5565b60c08301525061012061285f84828501611de5565b60e08301525092915050565b60006040828403121561287d57600080fd5b612887604061395b565b9050600061289784828501612a1d565b60008301525060206128ab84828501611de5565b60208301525092915050565b6000604082840312156128c957600080fd5b6128d3604061395b565b905060006128e384828501611f9e565b60008301525060206128f7848285016129f3565b60208301525092915050565b60006040828403121561291557600080fd5b61291f604061395b565b9050600061292f84828501611de5565b600083015250602082013567ffffffffffffffff81111561294f57600080fd5b61295b84828501612046565b60208301525092915050565b6000610100828403121561297a57600080fd5b612984604061395b565b9050600061299484828501611de5565b60008301525060206129a8848285016126f3565b60208301525092915050565b6000813590506129c381613ed8565b92915050565b6000813590506129d881613eef565b92915050565b6000813590506129ed81613f06565b92915050565b600081359050612a0281613f1d565b92915050565b600081359050612a1781613f34565b92915050565b600081359050612a2c81613f4b565b92915050565b600060208284031215612a4457600080fd5b6000612a5284828501611de5565b91505092915050565b600060208284031215612a6d57600080fd5b600082013567ffffffffffffffff811115612a8757600080fd5b612a9384828501611dfa565b91505092915050565b600060208284031215612aae57600080fd5b600082013567ffffffffffffffff811115612ac857600080fd5b612ad484828501611e24565b91505092915050565b600060208284031215612aef57600080fd5b600082013567ffffffffffffffff811115612b0957600080fd5b612b1584828501611e4e565b91505092915050565b600060208284031215612b3057600080fd5b600082013567ffffffffffffffff811115612b4a57600080fd5b612b5684828501611e78565b91505092915050565b600060208284031215612b7157600080fd5b600082013567ffffffffffffffff811115612b8b57600080fd5b612b9784828501611ea2565b91505092915050565b60008060408385031215612bb357600080fd5b600083013567ffffffffffffffff811115612bcd57600080fd5b612bd985828601611ecc565b9250506020612bea85828601611f74565b9150509250929050565b600060208284031215612c0657600080fd5b600082013567ffffffffffffffff811115612c2057600080fd5b612c2c84828501611ef6565b91505092915050565b600060208284031215612c4757600080fd5b600082013567ffffffffffffffff811115612c6157600080fd5b612c6d84828501611f20565b91505092915050565b600060208284031215612c8857600080fd5b600082013567ffffffffffffffff811115612ca257600080fd5b612cae84828501611f4a565b91505092915050565b600060208284031215612cc957600080fd5b6000612cd784828501611f74565b91505092915050565b600060208284031215612cf257600080fd5b6000612d0084828501611f89565b91505092915050565b600060208284031215612d1b57600080fd5b6000612d2984828501611f9e565b91505092915050565b600060208284031215612d4457600080fd5b600082013567ffffffffffffffff811115612d5e57600080fd5b612d6a84828501611fb3565b91505092915050565b600060208284031215612d8557600080fd5b6000612d9384828501611fdd565b91505092915050565b600060208284031215612dae57600080fd5b6000612dbc84828501611ff2565b91505092915050565b600060208284031215612dd757600080fd5b6000612de584828501612007565b91505092915050565b600060208284031215612e0057600080fd5b600082013567ffffffffffffffff811115612e1a57600080fd5b612e268482850161201c565b91505092915050565b600080600080600060a08688031215612e4757600080fd5b600086013567ffffffffffffffff811115612e6157600080fd5b612e6d8882890161201c565b9550506020612e7e88828901611de5565b9450506040612e8f88828901612007565b9350506060612ea088828901611de5565b925050608086013567ffffffffffffffff811115612ebd57600080fd5b612ec988828901611fb3565b9150509295509295909350565b600060208284031215612ee857600080fd5b600082013567ffffffffffffffff811115612f0257600080fd5b612f0e84828501612046565b91505092915050565b600060208284031215612f2957600080fd5b600082013567ffffffffffffffff811115612f4357600080fd5b612f4f84828501612332565b91505092915050565b600060408284031215612f6a57600080fd5b6000612f78848285016124c4565b91505092915050565b600060208284031215612f9357600080fd5b600082013567ffffffffffffffff811115612fad57600080fd5b612fb984828501612510565b91505092915050565b600060208284031215612fd457600080fd5b600082013567ffffffffffffffff811115612fee57600080fd5b612ffa84828501612574565b91505092915050565b600060e0828403121561301557600080fd5b6000613023848285016126f3565b91505092915050565b6000610140828403121561303f57600080fd5b600061304d848285016127a3565b91505092915050565b60006040828403121561306857600080fd5b60006130768482850161286b565b91505092915050565b60006040828403121561309157600080fd5b600061309f848285016128b7565b91505092915050565b6000602082840312156130ba57600080fd5b600082013567ffffffffffffffff8111156130d457600080fd5b6130e084828501612903565b91505092915050565b600061010082840312156130fc57600080fd5b600061310a84828501612967565b91505092915050565b60006020828403121561312557600080fd5b6000613133848285016129b4565b91505092915050565b60006020828403121561314e57600080fd5b600061315c848285016129de565b91505092915050565b60006020828403121561317757600080fd5b6000613185848285016129f3565b91505092915050565b6000602082840312156131a057600080fd5b60006131ae84828501612a08565b91505092915050565b6000602082840312156131c957600080fd5b60006131d784828501612a1d565b91505092915050565b6131f16131ec82613bb5565b613d07565b82525050565b61320861320382613bc7565b613d19565b82525050565b61321f61321a82613bd3565b613d2b565b82525050565b61323661323182613bff565b613d35565b82525050565b61324d61324882613c2b565b613d3f565b82525050565b600061325e82613b78565b6132688185613b8e565b9350613278818560208601613cd4565b61328181613de5565b840191505092915050565b600061329782613b78565b6132a18185613b9f565b93506132b1818560208601613cd4565b80840191505092915050565b6132ce6132c982613c35565b613d49565b82525050565b6132e56132e082613c42565b613d5b565b82525050565b6132fc6132f782613c4f565b613d6d565b82525050565b600061330d82613b83565b6133178185613baa565b9350613327818560208601613cd4565b80840191505092915050565b61334461333f82613c6a565b613d91565b82525050565b61335b61335682613c5c565b613d7f565b82525050565b61337261336d82613c8a565b613da3565b82525050565b61338961338482613c94565b613dad565b82525050565b6133a061339b82613ca4565b613dbf565b82525050565b6133b76133b282613cb8565b613dd1565b82525050565b60006133c982846131e0565b60148201915081905092915050565b60006133e482846131f7565b60018201915081905092915050565b60006133ff8284613225565b60148201915081905092915050565b600061341a828461323c565b60208201915081905092915050565b6000613435828561328c565b9150613441828461320e565b6001820191508190509392505050565b600061345d828561328c565b9150613469828461328c565b91508190509392505050565b6000613481828661328c565b915061348d828561328c565b9150613499828461328c565b9150819050949350505050565b60006134b2828861328c565b91506134be828761328c565b91506134ca828661328c565b91506134d6828561328c565b91506134e2828461328c565b91508190509695505050505050565b60006134fd828a61328c565b9150613509828961328c565b9150613515828861328c565b9150613521828761328c565b915061352d828661328c565b9150613539828561328c565b9150613545828461328c565b915081905098975050505050505050565b6000613562828b61328c565b915061356e828a61328c565b915061357a828961328c565b9150613586828861328c565b9150613592828761328c565b915061359e828661328c565b91506135aa828561328c565b91506135b6828461320e565b6001820191508190509998505050505050505050565b60006135d8828b61328c565b91506135e4828a61328c565b91506135f0828961328c565b91506135fc828861328c565b9150613608828761328c565b9150613614828661328c565b9150613620828561328c565b915061362c828461328c565b91508190509998505050505050505050565b600061364a828c61328c565b9150613656828b61328c565b9150613662828a61328c565b915061366e828961328c565b915061367a828861328c565b9150613686828761328c565b9150613692828661328c565b915061369e828561328c565b91506136aa828461328c565b91508190509a9950505050505050505050565b60006136c9828f61328c565b91506136d5828e61328c565b91506136e1828d61328c565b91506136ed828c61328c565b91506136f9828b61328c565b9150613705828a61328c565b9150613711828961328c565b915061371d828861328c565b9150613729828761328c565b9150613735828661328c565b9150613741828561328c565b915061374d828461328c565b91508190509d9c50505050505050505050505050565b600061376f828561328c565b915061377b8284613302565b91508190509392505050565b600061379382846132bd565b60028201915081905092915050565b60006137ae82846132d4565b60048201915081905092915050565b60006137c982846132eb565b60088201915081905092915050565b60006137e48284613302565b915081905092915050565b60006137fb8285613302565b9150613807828461328c565b91508190509392505050565b600061381f8284613333565b60148201915081905092915050565b600061383a828461334a565b60028201915081905092915050565b60006138558284613361565b60208201915081905092915050565b60006138708284613378565b60048201915081905092915050565b600061388b828461338f565b60088201915081905092915050565b60006138a682846133a6565b60018201915081905092915050565b60006138c182856133a6565b6001820191506138d1828461334a565b6002820191508190509392505050565b60006138ed82856133a6565b6001820191506138fd8284613378565b6004820191508190509392505050565b600061391982856133a6565b600182019150613929828461338f565b6008820191508190509392505050565b600060208201905081810360008301526139538184613253565b905092915050565b6000604051905081810181811067ffffffffffffffff8211171561398257613981613de3565b5b8060405250919050565b600067ffffffffffffffff8211156139a7576139a6613de3565b5b602082029050602081019050919050565b600067ffffffffffffffff8211156139d3576139d2613de3565b5b602082029050602081019050919050565b600067ffffffffffffffff8211156139ff576139fe613de3565b5b602082029050602081019050919050565b600067ffffffffffffffff821115613a2b57613a2a613de3565b5b602082029050602081019050919050565b600067ffffffffffffffff821115613a5757613a56613de3565b5b602082029050602081019050919050565b600067ffffffffffffffff821115613a8357613a82613de3565b5b602082029050602081019050919050565b600067ffffffffffffffff821115613aaf57613aae613de3565b5b602082029050602081019050919050565b600067ffffffffffffffff821115613adb57613ada613de3565b5b602082029050602081019050919050565b600067ffffffffffffffff821115613b0757613b06613de3565b5b602082029050602081019050919050565b600067ffffffffffffffff821115613b3357613b32613de3565b5b601f19601f8301169050602081019050919050565b600067ffffffffffffffff821115613b6357613b62613de3565b5b601f19601f8301169050602081019050919050565b600081519050919050565b600081519050919050565b600082825260208201905092915050565b600081905092915050565b600081905092915050565b6000613bc082613c6a565b9050919050565b60008115159050919050565b60007fff0000000000000000000000000000000000000000000000000000000000000082169050919050565b60007fffffffffffffffffffffffffffffffffffffffff00000000000000000000000082169050919050565b6000819050919050565b60008160010b9050919050565b60008160030b9050919050565b60008160070b9050919050565b600061ffff82169050919050565b600073ffffffffffffffffffffffffffffffffffffffff82169050919050565b6000819050919050565b600063ffffffff82169050919050565b600067ffffffffffffffff82169050919050565b600060ff82169050919050565b82818337600083830152505050565b60005b83811015613cf2578082015181840152602081019050613cd7565b83811115613d01576000848401525b50505050565b6000613d1282613d91565b9050919050565b6000613d2482613dd1565b9050919050565b6000819050919050565b6000819050919050565b6000819050919050565b6000613d5482613e10565b9050919050565b6000613d6682613e03565b9050919050565b6000613d7882613df6565b9050919050565b6000613d8a82613e10565b9050919050565b6000613d9c82613e2a565b9050919050565b6000819050919050565b6000613db882613e03565b9050919050565b6000613dca82613df6565b9050919050565b6000613ddc82613e1d565b9050919050565bfe5b6000601f19601f8301169050919050565b60008160c01b9050919050565b60008160e01b9050919050565b60008160f01b9050919050565b60008160f81b9050919050565b60008160601b9050919050565b613e4081613bb5565b8114613e4b57600080fd5b50565b613e5781613bc7565b8114613e6257600080fd5b50565b613e6e81613bff565b8114613e7957600080fd5b50565b613e8581613c2b565b8114613e9057600080fd5b50565b613e9c81613c35565b8114613ea757600080fd5b50565b613eb381613c42565b8114613ebe57600080fd5b50565b613eca81613c4f565b8114613ed557600080fd5b50565b613ee181613c5c565b8114613eec57600080fd5b50565b613ef881613c6a565b8114613f0357600080fd5b50565b613f0f81613c8a565b8114613f1a57600080fd5b50565b613f2681613c94565b8114613f3157600080fd5b50565b613f3d81613ca4565b8114613f4857600080fd5b50565b613f5481613cb8565b8114613f5f57600080fd5b5056fea26469706673582212201be47c6af34a2ca46750ff37499c5cf69bc6052a271eb8b3c5725a45db28517864736f6c63430007060033",
			"opcodes": "PUSH1 0x80 PUSH1 0x40 MSTORE CALLVALUE DUP1 ISZERO PUSH2 0x10 JUMPI PUSH1 0x0 DUP1 REVERT JUMPDEST POP PUSH2 0x3F98 DUP1 PUSH2 0x20 PUSH1 0x0 CODECOPY PUSH1 0x0 RETURN INVALID PUSH1 0x80 PUSH1 0x40 MSTORE CALLVALUE DUP1 ISZERO PUSH2 0x10 JUMPI PUSH1 0x0 DUP1 REVERT JUMPDEST POP PUSH1 0x4 CALLDATASIZE LT PUSH2 0x226 JUMPI PUSH1 0x0 CALLDATALOAD PUSH1 0xE0 SHR DUP1 PUSH4 0x892E2937 GT PUSH2 0x130 JUMPI DUP1 PUSH4 0xC93E58C8 GT PUSH2 0xB8 JUMPI DUP1 PUSH4 0xE0671111 GT PUSH2 0x7C JUMPI DUP1 PUSH4 0xE0671111 EQ PUSH2 0x82B JUMPI DUP1 PUSH4 0xE4CBA547 EQ PUSH2 0x85B JUMPI DUP1 PUSH4 0xF20FB830 EQ PUSH2 0x88B JUMPI DUP1 PUSH4 0xF8217295 EQ PUSH2 0x8BB JUMPI DUP1 PUSH4 0xFEF5906A EQ PUSH2 0x8EB JUMPI PUSH2 0x226 JUMP JUMPDEST DUP1 PUSH4 0xC93E58C8 EQ PUSH2 0x73B JUMPI DUP1 PUSH4 0xCECB3043 EQ PUSH2 0x76B JUMPI DUP1 PUSH4 0xCFA84DE9 EQ PUSH2 0x79B JUMPI DUP1 PUSH4 0xDAD935A1 EQ PUSH2 0x7CB JUMPI DUP1 PUSH4 0xDF61A937 EQ PUSH2 0x7FB JUMPI PUSH2 0x226 JUMP JUMPDEST DUP1 PUSH4 0xA412BB29 GT PUSH2 0xFF JUMPI DUP1 PUSH4 0xA412BB29 EQ PUSH2 0x64B JUMPI DUP1 PUSH4 0xAF832F09 EQ PUSH2 0x67B JUMPI DUP1 PUSH4 0xB04D197A EQ PUSH2 0x6AB JUMPI DUP1 PUSH4 0xB3A895F6 EQ PUSH2 0x6DB JUMPI DUP1 PUSH4 0xB9F7F35A EQ PUSH2 0x70B JUMPI PUSH2 0x226 JUMP JUMPDEST DUP1 PUSH4 0x892E2937 EQ PUSH2 0x58B JUMPI DUP1 PUSH4 0x8BBFC13E EQ PUSH2 0x5BB JUMPI DUP1 PUSH4 0x941BB060 EQ PUSH2 0x5EB JUMPI DUP1 PUSH4 0x9D487B47 EQ PUSH2 0x61B JUMPI PUSH2 0x226 JUMP JUMPDEST DUP1 PUSH4 0x241D23B2 GT PUSH2 0x1B3 JUMPI DUP1 PUSH4 0x46256007 GT PUSH2 0x182 JUMPI DUP1 PUSH4 0x46256007 EQ PUSH2 0x49B JUMPI DUP1 PUSH4 0x463276C3 EQ PUSH2 0x4CB JUMPI DUP1 PUSH4 0x6127B4FF EQ PUSH2 0x4FB JUMPI DUP1 PUSH4 0x68B4AE81 EQ PUSH2 0x52B JUMPI DUP1 PUSH4 0x7B92BD28 EQ PUSH2 0x55B JUMPI PUSH2 0x226 JUMP JUMPDEST DUP1 PUSH4 0x241D23B2 EQ PUSH2 0x3DB JUMPI DUP1 PUSH4 0x33C45AB9 EQ PUSH2 0x40B JUMPI DUP1 PUSH4 0x343BEE60 EQ PUSH2 0x43B JUMPI DUP1 PUSH4 0x44C789D1 EQ PUSH2 0x46B JUMPI PUSH2 0x226 JUMP JUMPDEST DUP1 PUSH4 0x122E5AE7 GT PUSH2 0x1FA JUMPI DUP1 PUSH4 0x122E5AE7 EQ PUSH2 0x2EB JUMPI DUP1 PUSH4 0x18C9BBFD EQ PUSH2 0x31B JUMPI DUP1 PUSH4 0x19A7C17B EQ PUSH2 0x34B JUMPI DUP1 PUSH4 0x1C356532 EQ PUSH2 0x37B JUMPI DUP1 PUSH4 0x200F6C2A EQ PUSH2 0x3AB JUMPI PUSH2 0x226 JUMP JUMPDEST DUP1 PUSH3 0x9C8152 EQ PUSH2 0x22B JUMPI DUP1 PUSH4 0x49E3490 EQ PUSH2 0x25B JUMPI DUP1 PUSH4 0xA803A86 EQ PUSH2 0x28B JUMPI DUP1 PUSH4 0x1222D81A EQ PUSH2 0x2BB JUMPI JUMPDEST PUSH1 0x0 DUP1 REVERT JUMPDEST PUSH2 0x245 PUSH1 0x4 DUP1 CALLDATASIZE SUB DUP2 ADD SWAP1 PUSH2 0x240 SWAP2 SWAP1 PUSH2 0x2CB7 JUMP JUMPDEST PUSH2 0x91B JUMP JUMPDEST PUSH1 0x40 MLOAD PUSH2 0x252 SWAP2 SWAP1 PUSH2 0x3939 JUMP JUMPDEST PUSH1 0x40 MLOAD DUP1 SWAP2 SUB SWAP1 RETURN JUMPDEST PUSH2 0x275 PUSH1 0x4 DUP1 CALLDATASIZE SUB DUP2 ADD SWAP1 PUSH2 0x270 SWAP2 SWAP1 PUSH2 0x2B1E JUMP JUMPDEST PUSH2 0x944 JUMP JUMPDEST PUSH1 0x40 MLOAD PUSH2 0x282 SWAP2 SWAP1 PUSH2 0x3939 JUMP JUMPDEST PUSH1 0x40 MLOAD DUP1 SWAP2 SUB SWAP1 RETURN JUMPDEST PUSH2 0x2A5 PUSH1 0x4 DUP1 CALLDATASIZE SUB DUP2 ADD SWAP1 PUSH2 0x2A0 SWAP2 SWAP1 PUSH2 0x2ED6 JUMP JUMPDEST PUSH2 0x9B5 JUMP JUMPDEST PUSH1 0x40 MLOAD PUSH2 0x2B2 SWAP2 SWAP1 PUSH2 0x3939 JUMP JUMPDEST PUSH1 0x40 MLOAD DUP1 SWAP2 SUB SWAP1 RETURN JUMPDEST PUSH2 0x2D5 PUSH1 0x4 DUP1 CALLDATASIZE SUB DUP2 ADD SWAP1 PUSH2 0x2D0 SWAP2 SWAP1 PUSH2 0x2D32 JUMP JUMPDEST PUSH2 0xB62 JUMP JUMPDEST PUSH1 0x40 MLOAD PUSH2 0x2E2 SWAP2 SWAP1 PUSH2 0x3939 JUMP JUMPDEST PUSH1 0x40 MLOAD DUP1 SWAP2 SUB SWAP1 RETURN JUMPDEST PUSH2 0x305 PUSH1 0x4 DUP1 CALLDATASIZE SUB DUP2 ADD SWAP1 PUSH2 0x300 SWAP2 SWAP1 PUSH2 0x318E JUMP JUMPDEST PUSH2 0xC33 JUMP JUMPDEST PUSH1 0x40 MLOAD PUSH2 0x312 SWAP2 SWAP1 PUSH2 0x3939 JUMP JUMPDEST PUSH1 0x40 MLOAD DUP1 SWAP2 SUB SWAP1 RETURN JUMPDEST PUSH2 0x335 PUSH1 0x4 DUP1 CALLDATASIZE SUB DUP2 ADD SWAP1 PUSH2 0x330 SWAP2 SWAP1 PUSH2 0x3003 JUMP JUMPDEST PUSH2 0xC6A JUMP JUMPDEST PUSH1 0x40 MLOAD PUSH2 0x342 SWAP2 SWAP1 PUSH2 0x3939 JUMP JUMPDEST PUSH1 0x40 MLOAD DUP1 SWAP2 SUB SWAP1 RETURN JUMPDEST PUSH2 0x365 PUSH1 0x4 DUP1 CALLDATASIZE SUB DUP2 ADD SWAP1 PUSH2 0x360 SWAP2 SWAP1 PUSH2 0x2C76 JUMP JUMPDEST PUSH2 0xD01 JUMP JUMPDEST PUSH1 0x40 MLOAD PUSH2 0x372 SWAP2 SWAP1 PUSH2 0x3939 JUMP JUMPDEST PUSH1 0x40 MLOAD DUP1 SWAP2 SUB SWAP1 RETURN JUMPDEST PUSH2 0x395 PUSH1 0x4 DUP1 CALLDATASIZE SUB DUP2 ADD SWAP1 PUSH2 0x390 SWAP2 SWAP1 PUSH2 0x307F JUMP JUMPDEST PUSH2 0xD89 JUMP JUMPDEST PUSH1 0x40 MLOAD PUSH2 0x3A2 SWAP2 SWAP1 PUSH2 0x3939 JUMP JUMPDEST PUSH1 0x40 MLOAD DUP1 SWAP2 SUB SWAP1 RETURN JUMPDEST PUSH2 0x3C5 PUSH1 0x4 DUP1 CALLDATASIZE SUB DUP2 ADD SWAP1 PUSH2 0x3C0 SWAP2 SWAP1 PUSH2 0x2BF4 JUMP JUMPDEST PUSH2 0xDCC JUMP JUMPDEST PUSH1 0x40 MLOAD PUSH2 0x3D2 SWAP2 SWAP1 PUSH2 0x3939 JUMP JUMPDEST PUSH1 0x40 MLOAD DUP1 SWAP2 SUB SWAP1 RETURN JUMPDEST PUSH2 0x3F5 PUSH1 0x4 DUP1 CALLDATASIZE SUB DUP2 ADD SWAP1 PUSH2 0x3F0 SWAP2 SWAP1 PUSH2 0x2A32 JUMP JUMPDEST PUSH2 0xE3D JUMP JUMPDEST PUSH1 0x40 MLOAD PUSH2 0x402 SWAP2 SWAP1 PUSH2 0x3939 JUMP JUMPDEST PUSH1 0x40 MLOAD DUP1 SWAP2 SUB SWAP1 RETURN JUMPDEST PUSH2 0x425 PUSH1 0x4 DUP1 CALLDATASIZE SUB DUP2 ADD SWAP1 PUSH2 0x420 SWAP2 SWAP1 PUSH2 0x30E9 JUMP JUMPDEST PUSH2 0xE6C JUMP JUMPDEST PUSH1 0x40 MLOAD PUSH2 0x432 SWAP2 SWAP1 PUSH2 0x3939 JUMP JUMPDEST PUSH1 0x40 MLOAD DUP1 SWAP2 SUB SWAP1 RETURN JUMPDEST PUSH2 0x455 PUSH1 0x4 DUP1 CALLDATASIZE SUB DUP2 ADD SWAP1 PUSH2 0x450 SWAP2 SWAP1 PUSH2 0x2F17 JUMP JUMPDEST PUSH2 0xEAF JUMP JUMPDEST PUSH1 0x40 MLOAD PUSH2 0x462 SWAP2 SWAP1 PUSH2 0x3939 JUMP JUMPDEST PUSH1 0x40 MLOAD DUP1 SWAP2 SUB SWAP1 RETURN JUMPDEST PUSH2 0x485 PUSH1 0x4 DUP1 CALLDATASIZE SUB DUP2 ADD SWAP1 PUSH2 0x480 SWAP2 SWAP1 PUSH2 0x2F81 JUMP JUMPDEST PUSH2 0xFFC JUMP JUMPDEST PUSH1 0x40 MLOAD PUSH2 0x492 SWAP2 SWAP1 PUSH2 0x3939 JUMP JUMPDEST PUSH1 0x40 MLOAD DUP1 SWAP2 SUB SWAP1 RETURN JUMPDEST PUSH2 0x4B5 PUSH1 0x4 DUP1 CALLDATASIZE SUB DUP2 ADD SWAP1 PUSH2 0x4B0 SWAP2 SWAP1 PUSH2 0x2D73 JUMP JUMPDEST PUSH2 0x1037 JUMP JUMPDEST PUSH1 0x40 MLOAD PUSH2 0x4C2 SWAP2 SWAP1 PUSH2 0x3939 JUMP JUMPDEST PUSH1 0x40 MLOAD DUP1 SWAP2 SUB SWAP1 RETURN JUMPDEST PUSH2 0x4E5 PUSH1 0x4 DUP1 CALLDATASIZE SUB DUP2 ADD SWAP1 PUSH2 0x4E0 SWAP2 SWAP1 PUSH2 0x2CE0 JUMP JUMPDEST PUSH2 0x106E JUMP JUMPDEST PUSH1 0x40 MLOAD PUSH2 0x4F2 SWAP2 SWAP1 PUSH2 0x3939 JUMP JUMPDEST PUSH1 0x40 MLOAD DUP1 SWAP2 SUB SWAP1 RETURN JUMPDEST PUSH2 0x515 PUSH1 0x4 DUP1 CALLDATASIZE SUB DUP2 ADD SWAP1 PUSH2 0x510 SWAP2 SWAP1 PUSH2 0x31B7 JUMP JUMPDEST PUSH2 0x1097 JUMP JUMPDEST PUSH1 0x40 MLOAD PUSH2 0x522 SWAP2 SWAP1 PUSH2 0x3939 JUMP JUMPDEST PUSH1 0x40 MLOAD DUP1 SWAP2 SUB SWAP1 RETURN JUMPDEST PUSH2 0x545 PUSH1 0x4 DUP1 CALLDATASIZE SUB DUP2 ADD SWAP1 PUSH2 0x540 SWAP2 SWAP1 PUSH2 0x2DEE JUMP JUMPDEST PUSH2 0x10CE JUMP JUMPDEST PUSH1 0x40 MLOAD PUSH2 0x552 SWAP2 SWAP1 PUSH2 0x3939 JUMP JUMPDEST PUSH1 0x40 MLOAD DUP1 SWAP2 SUB SWAP1 RETURN JUMPDEST PUSH2 0x575 PUSH1 0x4 DUP1 CALLDATASIZE SUB DUP2 ADD SWAP1 PUSH2 0x570 SWAP2 SWAP1 PUSH2 0x2C35 JUMP JUMPDEST PUSH2 0x1126 JUMP JUMPDEST PUSH1 0x40 MLOAD PUSH2 0x582 SWAP2 SWAP1 PUSH2 0x3939 JUMP JUMPDEST PUSH1 0x40 MLOAD DUP1 SWAP2 SUB SWAP1 RETURN JUMPDEST PUSH2 0x5A5 PUSH1 0x4 DUP1 CALLDATASIZE SUB DUP2 ADD SWAP1 PUSH2 0x5A0 SWAP2 SWAP1 PUSH2 0x2FC2 JUMP JUMPDEST PUSH2 0x1197 JUMP JUMPDEST PUSH1 0x40 MLOAD PUSH2 0x5B2 SWAP2 SWAP1 PUSH2 0x3939 JUMP JUMPDEST PUSH1 0x40 MLOAD DUP1 SWAP2 SUB SWAP1 RETURN JUMPDEST PUSH2 0x5D5 PUSH1 0x4 DUP1 CALLDATASIZE SUB DUP2 ADD SWAP1 PUSH2 0x5D0 SWAP2 SWAP1 PUSH2 0x302C JUMP JUMPDEST PUSH2 0x1276 JUMP JUMPDEST PUSH1 0x40 MLOAD PUSH2 0x5E2 SWAP2 SWAP1 PUSH2 0x3939 JUMP JUMPDEST PUSH1 0x40 MLOAD DUP1 SWAP2 SUB SWAP1 RETURN JUMPDEST PUSH2 0x605 PUSH1 0x4 DUP1 CALLDATASIZE SUB DUP2 ADD SWAP1 PUSH2 0x600 SWAP2 SWAP1 PUSH2 0x2ADD JUMP JUMPDEST PUSH2 0x1397 JUMP JUMPDEST PUSH1 0x40 MLOAD PUSH2 0x612 SWAP2 SWAP1 PUSH2 0x3939 JUMP JUMPDEST PUSH1 0x40 MLOAD DUP1 SWAP2 SUB SWAP1 RETURN JUMPDEST PUSH2 0x635 PUSH1 0x4 DUP1 CALLDATASIZE SUB DUP2 ADD SWAP1 PUSH2 0x630 SWAP2 SWAP1 PUSH2 0x2A5B JUMP JUMPDEST PUSH2 0x1408 JUMP JUMPDEST PUSH1 0x40 MLOAD PUSH2 0x642 SWAP2 SWAP1 PUSH2 0x3939 JUMP JUMPDEST PUSH1 0x40 MLOAD DUP1 SWAP2 SUB SWAP1 RETURN JUMPDEST PUSH2 0x665 PUSH1 0x4 DUP1 CALLDATASIZE SUB DUP2 ADD SWAP1 PUSH2 0x660 SWAP2 SWAP1 PUSH2 0x2B5F JUMP JUMPDEST PUSH2 0x1479 JUMP JUMPDEST PUSH1 0x40 MLOAD PUSH2 0x672 SWAP2 SWAP1 PUSH2 0x3939 JUMP JUMPDEST PUSH1 0x40 MLOAD DUP1 SWAP2 SUB SWAP1 RETURN JUMPDEST PUSH2 0x695 PUSH1 0x4 DUP1 CALLDATASIZE SUB DUP2 ADD SWAP1 PUSH2 0x690 SWAP2 SWAP1 PUSH2 0x2DC5 JUMP JUMPDEST PUSH2 0x14EA JUMP JUMPDEST PUSH1 0x40 MLOAD PUSH2 0x6A2 SWAP2 SWAP1 PUSH2 0x3939 JUMP JUMPDEST PUSH1 0x40 MLOAD DUP1 SWAP2 SUB SWAP1 RETURN JUMPDEST PUSH2 0x6C5 PUSH1 0x4 DUP1 CALLDATASIZE SUB DUP2 ADD SWAP1 PUSH2 0x6C0 SWAP2 SWAP1 PUSH2 0x2BA0 JUMP JUMPDEST PUSH2 0x1521 JUMP JUMPDEST PUSH1 0x40 MLOAD PUSH2 0x6D2 SWAP2 SWAP1 PUSH2 0x3939 JUMP JUMPDEST PUSH1 0x40 MLOAD DUP1 SWAP2 SUB SWAP1 RETURN JUMPDEST PUSH2 0x6F5 PUSH1 0x4 DUP1 CALLDATASIZE SUB DUP2 ADD SWAP1 PUSH2 0x6F0 SWAP2 SWAP1 PUSH2 0x313C JUMP JUMPDEST PUSH2 0x159A JUMP JUMPDEST PUSH1 0x40 MLOAD PUSH2 0x702 SWAP2 SWAP1 PUSH2 0x3939 JUMP JUMPDEST PUSH1 0x40 MLOAD DUP1 SWAP2 SUB SWAP1 RETURN JUMPDEST PUSH2 0x725 PUSH1 0x4 DUP1 CALLDATASIZE SUB DUP2 ADD SWAP1 PUSH2 0x720 SWAP2 SWAP1 PUSH2 0x2D09 JUMP JUMPDEST PUSH2 0x1622 JUMP JUMPDEST PUSH1 0x40 MLOAD PUSH2 0x732 SWAP2 SWAP1 PUSH2 0x3939 JUMP JUMPDEST PUSH1 0x40 MLOAD DUP1 SWAP2 SUB SWAP1 RETURN JUMPDEST PUSH2 0x755 PUSH1 0x4 DUP1 CALLDATASIZE SUB DUP2 ADD SWAP1 PUSH2 0x750 SWAP2 SWAP1 PUSH2 0x2E2F JUMP JUMPDEST PUSH2 0x1653 JUMP JUMPDEST PUSH1 0x40 MLOAD PUSH2 0x762 SWAP2 SWAP1 PUSH2 0x3939 JUMP JUMPDEST PUSH1 0x40 MLOAD DUP1 SWAP2 SUB SWAP1 RETURN JUMPDEST PUSH2 0x785 PUSH1 0x4 DUP1 CALLDATASIZE SUB DUP2 ADD SWAP1 PUSH2 0x780 SWAP2 SWAP1 PUSH2 0x3165 JUMP JUMPDEST PUSH2 0x16A8 JUMP JUMPDEST PUSH1 0x40 MLOAD PUSH2 0x792 SWAP2 SWAP1 PUSH2 0x3939 JUMP JUMPDEST PUSH1 0x40 MLOAD DUP1 SWAP2 SUB SWAP1 RETURN JUMPDEST PUSH2 0x7B5 PUSH1 0x4 DUP1 CALLDATASIZE SUB DUP2 ADD SWAP1 PUSH2 0x7B0 SWAP2 SWAP1 PUSH2 0x2F58 JUMP JUMPDEST PUSH2 0x16DF JUMP JUMPDEST PUSH1 0x40 MLOAD PUSH2 0x7C2 SWAP2 SWAP1 PUSH2 0x3939 JUMP JUMPDEST PUSH1 0x40 MLOAD DUP1 SWAP2 SUB SWAP1 RETURN JUMPDEST PUSH2 0x7E5 PUSH1 0x4 DUP1 CALLDATASIZE SUB DUP2 ADD SWAP1 PUSH2 0x7E0 SWAP2 SWAP1 PUSH2 0x313C JUMP JUMPDEST PUSH2 0x1722 JUMP JUMPDEST PUSH1 0x40 MLOAD PUSH2 0x7F2 SWAP2 SWAP1 PUSH2 0x3939 JUMP JUMPDEST PUSH1 0x40 MLOAD DUP1 SWAP2 SUB SWAP1 RETURN JUMPDEST PUSH2 0x815 PUSH1 0x4 DUP1 CALLDATASIZE SUB DUP2 ADD SWAP1 PUSH2 0x810 SWAP2 SWAP1 PUSH2 0x3056 JUMP JUMPDEST PUSH2 0x17F1 JUMP JUMPDEST PUSH1 0x40 MLOAD PUSH2 0x822 SWAP2 SWAP1 PUSH2 0x3939 JUMP JUMPDEST PUSH1 0x40 MLOAD DUP1 SWAP2 SUB SWAP1 RETURN JUMPDEST PUSH2 0x845 PUSH1 0x4 DUP1 CALLDATASIZE SUB DUP2 ADD SWAP1 PUSH2 0x840 SWAP2 SWAP1 PUSH2 0x30A8 JUMP JUMPDEST PUSH2 0x183F JUMP JUMPDEST PUSH1 0x40 MLOAD PUSH2 0x852 SWAP2 SWAP1 PUSH2 0x3939 JUMP JUMPDEST PUSH1 0x40 MLOAD DUP1 SWAP2 SUB SWAP1 RETURN JUMPDEST PUSH2 0x875 PUSH1 0x4 DUP1 CALLDATASIZE SUB DUP2 ADD SWAP1 PUSH2 0x870 SWAP2 SWAP1 PUSH2 0x3113 JUMP JUMPDEST PUSH2 0x1882 JUMP JUMPDEST PUSH1 0x40 MLOAD PUSH2 0x882 SWAP2 SWAP1 PUSH2 0x3939 JUMP JUMPDEST PUSH1 0x40 MLOAD DUP1 SWAP2 SUB SWAP1 RETURN JUMPDEST PUSH2 0x8A5 PUSH1 0x4 DUP1 CALLDATASIZE SUB DUP2 ADD SWAP1 PUSH2 0x8A0 SWAP2 SWAP1 PUSH2 0x313C JUMP JUMPDEST PUSH2 0x18B9 JUMP JUMPDEST PUSH1 0x40 MLOAD PUSH2 0x8B2 SWAP2 SWAP1 PUSH2 0x3939 JUMP JUMPDEST PUSH1 0x40 MLOAD DUP1 SWAP2 SUB SWAP1 RETURN JUMPDEST PUSH2 0x8D5 PUSH1 0x4 DUP1 CALLDATASIZE SUB DUP2 ADD SWAP1 PUSH2 0x8D0 SWAP2 SWAP1 PUSH2 0x2A9C JUMP JUMPDEST PUSH2 0x18F0 JUMP JUMPDEST PUSH1 0x40 MLOAD PUSH2 0x8E2 SWAP2 SWAP1 PUSH2 0x3939 JUMP JUMPDEST PUSH1 0x40 MLOAD DUP1 SWAP2 SUB SWAP1 RETURN JUMPDEST PUSH2 0x905 PUSH1 0x4 DUP1 CALLDATASIZE SUB DUP2 ADD SWAP1 PUSH2 0x900 SWAP2 SWAP1 PUSH2 0x2D9C JUMP JUMPDEST PUSH2 0x1980 JUMP JUMPDEST PUSH1 0x40 MLOAD PUSH2 0x912 SWAP2 SWAP1 PUSH2 0x3939 JUMP JUMPDEST PUSH1 0x40 MLOAD DUP1 SWAP2 SUB SWAP1 RETURN JUMPDEST PUSH1 0x60 DUP2 PUSH1 0x40 MLOAD PUSH1 0x20 ADD PUSH2 0x92E SWAP2 SWAP1 PUSH2 0x33D8 JUMP JUMPDEST PUSH1 0x40 MLOAD PUSH1 0x20 DUP2 DUP4 SUB SUB DUP2 MSTORE SWAP1 PUSH1 0x40 MSTORE SWAP1 POP SWAP2 SWAP1 POP JUMP JUMPDEST PUSH1 0x60 DUP1 PUSH2 0x951 DUP4 MLOAD PUSH2 0x1722 JUMP JUMPDEST SWAP1 POP PUSH1 0x0 JUMPDEST DUP4 MLOAD DUP2 LT ISZERO PUSH2 0x9AB JUMPI DUP2 PUSH2 0x97C DUP6 DUP4 DUP2 MLOAD DUP2 LT PUSH2 0x96F JUMPI INVALID JUMPDEST PUSH1 0x20 MUL PUSH1 0x20 ADD ADD MLOAD PUSH2 0xFFC JUMP JUMPDEST PUSH1 0x40 MLOAD PUSH1 0x20 ADD PUSH2 0x98D SWAP3 SWAP2 SWAP1 PUSH2 0x3451 JUMP JUMPDEST PUSH1 0x40 MLOAD PUSH1 0x20 DUP2 DUP4 SUB SUB DUP2 MSTORE SWAP1 PUSH1 0x40 MSTORE SWAP2 POP DUP1 DUP1 PUSH1 0x1 ADD SWAP2 POP POP PUSH2 0x956 JUMP JUMPDEST POP DUP1 SWAP2 POP POP SWAP2 SWAP1 POP JUMP JUMPDEST PUSH1 0x60 PUSH1 0x0 PUSH2 0x9C6 DUP4 PUSH1 0x0 ADD MLOAD PUSH2 0x1882 JUMP JUMPDEST PUSH2 0x9D3 DUP5 PUSH1 0x20 ADD MLOAD PUSH2 0x1882 JUMP JUMPDEST PUSH2 0x9E0 DUP6 PUSH1 0x40 ADD MLOAD PUSH2 0xE3D JUMP JUMPDEST PUSH2 0x9ED DUP7 PUSH1 0x60 ADD MLOAD PUSH2 0xD01 JUMP JUMPDEST PUSH2 0x9FA DUP8 PUSH1 0x80 ADD MLOAD PUSH2 0x1408 JUMP JUMPDEST PUSH2 0xA07 DUP9 PUSH1 0xA0 ADD MLOAD PUSH2 0x18F0 JUMP JUMPDEST PUSH2 0xA17 DUP10 PUSH1 0xC0 ADD MLOAD PUSH1 0x7 SIGNEXTEND PUSH2 0x159A JUMP JUMPDEST PUSH2 0xA27 DUP11 PUSH1 0xE0 ADD MLOAD PUSH1 0x7 SIGNEXTEND PUSH2 0x159A JUMP JUMPDEST PUSH2 0xA38 DUP12 PUSH2 0x100 ADD MLOAD PUSH1 0x7 SIGNEXTEND PUSH2 0x159A JUMP JUMPDEST PUSH1 0x40 MLOAD PUSH1 0x20 ADD PUSH2 0xA50 SWAP10 SWAP9 SWAP8 SWAP7 SWAP6 SWAP5 SWAP4 SWAP3 SWAP2 SWAP1 PUSH2 0x363E JUMP JUMPDEST PUSH1 0x40 MLOAD PUSH1 0x20 DUP2 DUP4 SUB SUB DUP2 MSTORE SWAP1 PUSH1 0x40 MSTORE SWAP1 POP PUSH1 0x0 PUSH2 0xA71 DUP5 PUSH2 0x120 ADD MLOAD PUSH2 0x14EA JUMP JUMPDEST PUSH2 0xA7F DUP6 PUSH2 0x140 ADD MLOAD PUSH2 0x14EA JUMP JUMPDEST PUSH2 0xA8D DUP7 PUSH2 0x160 ADD MLOAD PUSH2 0x14EA JUMP JUMPDEST PUSH2 0xA9B DUP8 PUSH2 0x180 ADD MLOAD PUSH2 0x14EA JUMP JUMPDEST PUSH2 0xAA9 DUP9 PUSH2 0x1A0 ADD MLOAD PUSH2 0x18F0 JUMP JUMPDEST PUSH2 0xAB7 DUP10 PUSH2 0x1C0 ADD MLOAD PUSH2 0x18F0 JUMP JUMPDEST PUSH2 0xAC5 DUP11 PUSH2 0x1E0 ADD MLOAD PUSH2 0x18F0 JUMP JUMPDEST PUSH2 0xAD3 DUP12 PUSH2 0x200 ADD MLOAD PUSH2 0x18F0 JUMP JUMPDEST PUSH2 0xAE1 DUP13 PUSH2 0x220 ADD MLOAD PUSH2 0x18F0 JUMP JUMPDEST PUSH2 0xAEF DUP14 PUSH2 0x240 ADD MLOAD PUSH2 0x18F0 JUMP JUMPDEST PUSH2 0xAFD DUP15 PUSH2 0x260 ADD MLOAD PUSH2 0x1408 JUMP JUMPDEST PUSH2 0xB0B DUP16 PUSH2 0x280 ADD MLOAD PUSH2 0x18F0 JUMP JUMPDEST PUSH1 0x40 MLOAD PUSH1 0x20 ADD PUSH2 0xB26 SWAP13 SWAP12 SWAP11 SWAP10 SWAP9 SWAP8 SWAP7 SWAP6 SWAP5 SWAP4 SWAP3 SWAP2 SWAP1 PUSH2 0x36BD JUMP JUMPDEST PUSH1 0x40 MLOAD PUSH1 0x20 DUP2 DUP4 SUB SUB DUP2 MSTORE SWAP1 PUSH1 0x40 MSTORE SWAP1 POP DUP2 DUP2 PUSH1 0x40 MLOAD PUSH1 0x20 ADD PUSH2 0xB4A SWAP3 SWAP2 SWAP1 PUSH2 0x3451 JUMP JUMPDEST PUSH1 0x40 MLOAD PUSH1 0x20 DUP2 DUP4 SUB SUB DUP2 MSTORE SWAP1 PUSH1 0x40 MSTORE SWAP3 POP POP POP SWAP2 SWAP1 POP JUMP JUMPDEST PUSH1 0x60 PUSH1 0x0 DUP3 MLOAD SWAP1 POP PUSH1 0x0 DUP2 PUSH8 0xFFFFFFFFFFFFFFFF DUP2 GT DUP1 ISZERO PUSH2 0xB83 JUMPI PUSH1 0x0 DUP1 REVERT JUMPDEST POP PUSH1 0x40 MLOAD SWAP1 DUP1 DUP3 MSTORE DUP1 PUSH1 0x1F ADD PUSH1 0x1F NOT AND PUSH1 0x20 ADD DUP3 ADD PUSH1 0x40 MSTORE DUP1 ISZERO PUSH2 0xBB6 JUMPI DUP2 PUSH1 0x20 ADD PUSH1 0x1 DUP3 MUL DUP1 CALLDATASIZE DUP4 CALLDATACOPY DUP1 DUP3 ADD SWAP2 POP POP SWAP1 POP JUMPDEST POP SWAP1 POP PUSH1 0x0 JUMPDEST DUP3 DUP2 LT ISZERO PUSH2 0xC28 JUMPI DUP5 PUSH1 0x1 DUP3 DUP6 SUB SUB DUP2 MLOAD DUP2 LT PUSH2 0xBD5 JUMPI INVALID JUMPDEST PUSH1 0x20 ADD ADD MLOAD PUSH1 0xF8 SHR PUSH1 0xF8 SHL DUP3 DUP3 DUP2 MLOAD DUP2 LT PUSH2 0xBEC JUMPI INVALID JUMPDEST PUSH1 0x20 ADD ADD SWAP1 PUSH31 0xFFFFFFFFFFFFFFFFFFFFFFFFFFFFFFFFFFFFFFFFFFFFFFFFFFFFFFFFFFFFFF NOT AND SWAP1 DUP2 PUSH1 0x0 BYTE SWAP1 MSTORE8 POP DUP1 DUP1 PUSH1 0x1 ADD SWAP2 POP POP PUSH2 0xBBC JUMP JUMPDEST DUP2 SWAP4 POP POP POP POP SWAP2 SWAP1 POP JUMP JUMPDEST PUSH1 0x60 PUSH1 0x0 DUP3 PUSH1 0x40 MLOAD PUSH1 0x20 ADD PUSH2 0xC48 SWAP2 SWAP1 PUSH2 0x387F JUMP JUMPDEST PUSH1 0x40 MLOAD PUSH1 0x20 DUP2 DUP4 SUB SUB DUP2 MSTORE SWAP1 PUSH1 0x40 MSTORE SWAP1 POP PUSH2 0xC62 DUP2 PUSH2 0xB62 JUMP JUMPDEST SWAP2 POP POP SWAP2 SWAP1 POP JUMP JUMPDEST PUSH1 0x60 PUSH2 0xC79 DUP3 PUSH1 0x40 ADD MLOAD PUSH2 0xE3D JUMP JUMPDEST PUSH2 0xC86 DUP4 PUSH1 0x0 ADD MLOAD PUSH2 0x1037 JUMP JUMPDEST PUSH2 0xC93 DUP5 PUSH1 0x20 ADD MLOAD PUSH2 0x1037 JUMP JUMPDEST PUSH2 0xCA0 DUP6 PUSH1 0x40 ADD MLOAD PUSH2 0xE3D JUMP JUMPDEST PUSH2 0xCAD DUP7 PUSH1 0x60 ADD MLOAD PUSH2 0x16A8 JUMP JUMPDEST PUSH2 0xCBA DUP8 PUSH1 0x80 ADD MLOAD PUSH2 0x1622 JUMP JUMPDEST PUSH2 0xCC7 DUP9 PUSH1 0xA0 ADD MLOAD PUSH2 0x1622 JUMP JUMPDEST PUSH2 0xCD4 DUP10 PUSH1 0xC0 ADD MLOAD PUSH2 0x1622 JUMP JUMPDEST PUSH1 0x40 MLOAD PUSH1 0x20 ADD PUSH2 0xCEB SWAP9 SWAP8 SWAP7 SWAP6 SWAP5 SWAP4 SWAP3 SWAP2 SWAP1 PUSH2 0x35CC JUMP JUMPDEST PUSH1 0x40 MLOAD PUSH1 0x20 DUP2 DUP4 SUB SUB DUP2 MSTORE SWAP1 PUSH1 0x40 MSTORE SWAP1 POP SWAP2 SWAP1 POP JUMP JUMPDEST PUSH1 0x60 DUP1 PUSH2 0xD0E DUP4 MLOAD PUSH2 0x1722 JUMP JUMPDEST SWAP1 POP PUSH1 0x0 JUMPDEST DUP4 MLOAD DUP2 LT ISZERO PUSH2 0xD7F JUMPI DUP2 DUP5 DUP3 DUP2 MLOAD DUP2 LT PUSH2 0xD29 JUMPI INVALID JUMPDEST PUSH1 0x20 MUL PUSH1 0x20 ADD ADD MLOAD PUSH1 0x40 MLOAD PUSH1 0x20 ADD PUSH2 0xD41 SWAP2 SWAP1 PUSH2 0x3813 JUMP JUMPDEST PUSH1 0x40 MLOAD PUSH1 0x20 DUP2 DUP4 SUB SUB DUP2 MSTORE SWAP1 PUSH1 0x40 MSTORE PUSH1 0x40 MLOAD PUSH1 0x20 ADD PUSH2 0xD61 SWAP3 SWAP2 SWAP1 PUSH2 0x3451 JUMP JUMPDEST PUSH1 0x40 MLOAD PUSH1 0x20 DUP2 DUP4 SUB SUB DUP2 MSTORE SWAP1 PUSH1 0x40 MSTORE SWAP2 POP DUP1 DUP1 PUSH1 0x1 ADD SWAP2 POP POP PUSH2 0xD13 JUMP JUMPDEST POP DUP1 SWAP2 POP POP SWAP2 SWAP1 POP JUMP JUMPDEST PUSH1 0x60 PUSH2 0xD98 DUP3 PUSH1 0x0 ADD MLOAD PUSH2 0x1622 JUMP JUMPDEST PUSH2 0xDA5 DUP4 PUSH1 0x20 ADD MLOAD PUSH2 0x16A8 JUMP JUMPDEST PUSH1 0x40 MLOAD PUSH1 0x20 ADD PUSH2 0xDB6 SWAP3 SWAP2 SWAP1 PUSH2 0x3451 JUMP JUMPDEST PUSH1 0x40 MLOAD PUSH1 0x20 DUP2 DUP4 SUB SUB DUP2 MSTORE SWAP1 PUSH1 0x40 MSTORE SWAP1 POP SWAP2 SWAP1 POP JUMP JUMPDEST PUSH1 0x60 DUP1 PUSH2 0xDD9 DUP4 MLOAD PUSH2 0x1722 JUMP JUMPDEST SWAP1 POP PUSH1 0x0 JUMPDEST DUP4 MLOAD DUP2 LT ISZERO PUSH2 0xE33 JUMPI DUP2 PUSH2 0xE04 DUP6 DUP4 DUP2 MLOAD DUP2 LT PUSH2 0xDF7 JUMPI INVALID JUMPDEST PUSH1 0x20 MUL PUSH1 0x20 ADD ADD MLOAD PUSH2 0x183F JUMP JUMPDEST PUSH1 0x40 MLOAD PUSH1 0x20 ADD PUSH2 0xE15 SWAP3 SWAP2 SWAP1 PUSH2 0x3451 JUMP JUMPDEST PUSH1 0x40 MLOAD PUSH1 0x20 DUP2 DUP4 SUB SUB DUP2 MSTORE SWAP1 PUSH1 0x40 MSTORE SWAP2 POP DUP1 DUP1 PUSH1 0x1 ADD SWAP2 POP POP PUSH2 0xDDE JUMP JUMPDEST POP DUP1 SWAP2 POP POP SWAP2 SWAP1 POP JUMP JUMPDEST PUSH1 0x60 PUSH1 0x0 DUP3 PUSH1 0x40 MLOAD PUSH1 0x20 ADD PUSH2 0xE52 SWAP2 SWAP1 PUSH2 0x33BD JUMP JUMPDEST PUSH1 0x40 MLOAD PUSH1 0x20 DUP2 DUP4 SUB SUB DUP2 MSTORE SWAP1 PUSH1 0x40 MSTORE SWAP1 POP DUP1 SWAP2 POP POP SWAP2 SWAP1 POP JUMP JUMPDEST PUSH1 0x60 PUSH2 0xE7B DUP3 PUSH1 0x0 ADD MLOAD PUSH2 0xE3D JUMP JUMPDEST PUSH2 0xE88 DUP4 PUSH1 0x20 ADD MLOAD PUSH2 0xC6A JUMP JUMPDEST PUSH1 0x40 MLOAD PUSH1 0x20 ADD PUSH2 0xE99 SWAP3 SWAP2 SWAP1 PUSH2 0x3451 JUMP JUMPDEST PUSH1 0x40 MLOAD PUSH1 0x20 DUP2 DUP4 SUB SUB DUP2 MSTORE SWAP1 PUSH1 0x40 MSTORE SWAP1 POP SWAP2 SWAP1 POP JUMP JUMPDEST PUSH1 0x60 PUSH1 0x0 PUSH2 0xEC0 DUP4 PUSH1 0x0 ADD MLOAD PUSH2 0x1882 JUMP JUMPDEST PUSH2 0xECD DUP5 PUSH1 0x20 ADD MLOAD PUSH2 0x1882 JUMP JUMPDEST PUSH2 0xEDA DUP6 PUSH1 0x40 ADD MLOAD PUSH2 0xE3D JUMP JUMPDEST PUSH2 0xEED DUP7 PUSH1 0x60 ADD MLOAD PUSH4 0xFFFFFFFF AND PUSH2 0x159A JUMP JUMPDEST PUSH2 0xF00 DUP8 PUSH1 0x80 ADD MLOAD PUSH4 0xFFFFFFFF AND PUSH2 0x159A JUMP JUMPDEST PUSH2 0xF0D DUP9 PUSH1 0xA0 ADD MLOAD PUSH2 0xE3D JUMP JUMPDEST PUSH2 0xF1A DUP10 PUSH1 0xC0 ADD MLOAD PUSH2 0xE3D JUMP JUMPDEST PUSH1 0x40 MLOAD PUSH1 0x20 ADD PUSH2 0xF30 SWAP8 SWAP7 SWAP6 SWAP5 SWAP4 SWAP3 SWAP2 SWAP1 PUSH2 0x34F1 JUMP JUMPDEST PUSH1 0x40 MLOAD PUSH1 0x20 DUP2 DUP4 SUB SUB DUP2 MSTORE SWAP1 PUSH1 0x40 MSTORE SWAP1 POP PUSH1 0x0 PUSH2 0xF50 DUP5 PUSH1 0xE0 ADD MLOAD PUSH2 0x16A8 JUMP JUMPDEST PUSH2 0xF5E DUP6 PUSH2 0x100 ADD MLOAD PUSH2 0x1397 JUMP JUMPDEST PUSH2 0xF6C DUP7 PUSH2 0x120 ADD MLOAD PUSH2 0x1397 JUMP JUMPDEST PUSH2 0xF7A DUP8 PUSH2 0x140 ADD MLOAD PUSH2 0x1622 JUMP JUMPDEST PUSH2 0xF88 DUP9 PUSH2 0x160 ADD MLOAD PUSH2 0x1397 JUMP JUMPDEST PUSH2 0xF96 DUP10 PUSH2 0x180 ADD MLOAD PUSH2 0x17F1 JUMP JUMPDEST PUSH2 0xFA4 DUP11 PUSH2 0x1A0 ADD MLOAD PUSH2 0x1980 JUMP JUMPDEST PUSH1 0x0 PUSH1 0xF8 SHL PUSH1 0x40 MLOAD PUSH1 0x20 ADD PUSH2 0xFC0 SWAP9 SWAP8 SWAP7 SWAP6 SWAP5 SWAP4 SWAP3 SWAP2 SWAP1 PUSH2 0x3556 JUMP JUMPDEST PUSH1 0x40 MLOAD PUSH1 0x20 DUP2 DUP4 SUB SUB DUP2 MSTORE SWAP1 PUSH1 0x40 MSTORE SWAP1 POP DUP2 DUP2 PUSH1 0x40 MLOAD PUSH1 0x20 ADD PUSH2 0xFE4 SWAP3 SWAP2 SWAP1 PUSH2 0x3451 JUMP JUMPDEST PUSH1 0x40 MLOAD PUSH1 0x20 DUP2 DUP4 SUB SUB DUP2 MSTORE SWAP1 PUSH1 0x40 MSTORE SWAP3 POP POP POP SWAP2 SWAP1 POP JUMP JUMPDEST PUSH1 0x60 DUP2 PUSH1 0x0 ADD MLOAD PUSH2 0x1010 DUP4 PUSH1 0x20 ADD MLOAD PUSH2 0xE3D JUMP JUMPDEST PUSH1 0x40 MLOAD PUSH1 0x20 ADD PUSH2 0x1021 SWAP3 SWAP2 SWAP1 PUSH2 0x37EF JUMP JUMPDEST PUSH1 0x40 MLOAD PUSH1 0x20 DUP2 DUP4 SUB SUB DUP2 MSTORE SWAP1 PUSH1 0x40 MSTORE SWAP1 POP SWAP2 SWAP1 POP JUMP JUMPDEST PUSH1 0x60 PUSH1 0x0 DUP3 PUSH1 0x40 MLOAD PUSH1 0x20 ADD PUSH2 0x104C SWAP2 SWAP1 PUSH2 0x3787 JUMP JUMPDEST PUSH1 0x40 MLOAD PUSH1 0x20 DUP2 DUP4 SUB SUB DUP2 MSTORE SWAP1 PUSH1 0x40 MSTORE SWAP1 POP PUSH2 0x1066 DUP2 PUSH2 0xB62 JUMP JUMPDEST SWAP2 POP POP SWAP2 SWAP1 POP JUMP JUMPDEST PUSH1 0x60 DUP2 PUSH1 0x40 MLOAD PUSH1 0x20 ADD PUSH2 0x1081 SWAP2 SWAP1 PUSH2 0x33F3 JUMP JUMPDEST PUSH1 0x40 MLOAD PUSH1 0x20 DUP2 DUP4 SUB SUB DUP2 MSTORE SWAP1 PUSH1 0x40 MSTORE SWAP1 POP SWAP2 SWAP1 POP JUMP JUMPDEST PUSH1 0x60 PUSH1 0x0 DUP3 PUSH1 0x40 MLOAD PUSH1 0x20 ADD PUSH2 0x10AC SWAP2 SWAP1 PUSH2 0x389A JUMP JUMPDEST PUSH1 0x40 MLOAD PUSH1 0x20 DUP2 DUP4 SUB SUB DUP2 MSTORE SWAP1 PUSH1 0x40 MSTORE SWAP1 POP PUSH2 0x10C6 DUP2 PUSH2 0xB62 JUMP JUMPDEST SWAP2 POP POP SWAP2 SWAP1 POP JUMP JUMPDEST PUSH1 0x60 DUP1 DUP3 PUSH1 0x40 MLOAD PUSH1 0x20 ADD PUSH2 0x10E2 SWAP2 SWAP1 PUSH2 0x37D8 JUMP JUMPDEST PUSH1 0x40 MLOAD PUSH1 0x20 DUP2 DUP4 SUB SUB DUP2 MSTORE SWAP1 PUSH1 0x40 MSTORE SWAP1 POP PUSH2 0x10FD DUP2 MLOAD PUSH2 0x1722 JUMP JUMPDEST DUP4 PUSH1 0x40 MLOAD PUSH1 0x20 ADD PUSH2 0x110F SWAP3 SWAP2 SWAP1 PUSH2 0x3763 JUMP JUMPDEST PUSH1 0x40 MLOAD PUSH1 0x20 DUP2 DUP4 SUB SUB DUP2 MSTORE SWAP1 PUSH1 0x40 MSTORE SWAP2 POP POP SWAP2 SWAP1 POP JUMP JUMPDEST PUSH1 0x60 DUP1 PUSH2 0x1133 DUP4 MLOAD PUSH2 0x1722 JUMP JUMPDEST SWAP1 POP PUSH1 0x0 JUMPDEST DUP4 MLOAD DUP2 LT ISZERO PUSH2 0x118D JUMPI DUP2 PUSH2 0x115E DUP6 DUP4 DUP2 MLOAD DUP2 LT PUSH2 0x1151 JUMPI INVALID JUMPDEST PUSH1 0x20 MUL PUSH1 0x20 ADD ADD MLOAD PUSH2 0xE6C JUMP JUMPDEST PUSH1 0x40 MLOAD PUSH1 0x20 ADD PUSH2 0x116F SWAP3 SWAP2 SWAP1 PUSH2 0x3451 JUMP JUMPDEST PUSH1 0x40 MLOAD PUSH1 0x20 DUP2 DUP4 SUB SUB DUP2 MSTORE SWAP1 PUSH1 0x40 MSTORE SWAP2 POP DUP1 DUP1 PUSH1 0x1 ADD SWAP2 POP POP PUSH2 0x1138 JUMP JUMPDEST POP DUP1 SWAP2 POP POP SWAP2 SWAP1 POP JUMP JUMPDEST PUSH1 0x60 PUSH2 0x11AC DUP3 PUSH1 0x0 ADD MLOAD PUSH4 0xFFFFFFFF AND PUSH2 0x159A JUMP JUMPDEST PUSH2 0x11BF DUP4 PUSH1 0x20 ADD MLOAD PUSH4 0xFFFFFFFF AND PUSH2 0x159A JUMP JUMPDEST PUSH2 0x11CC DUP5 PUSH1 0x40 ADD MLOAD PUSH2 0x17F1 JUMP JUMPDEST PUSH2 0x11D9 DUP6 PUSH1 0x60 ADD MLOAD PUSH2 0xE3D JUMP JUMPDEST PUSH2 0x11E6 DUP7 PUSH1 0x80 ADD MLOAD PUSH2 0x9B5 JUMP JUMPDEST PUSH2 0x11F3 DUP8 PUSH1 0xA0 ADD MLOAD PUSH2 0x16A8 JUMP JUMPDEST PUSH2 0x1200 DUP9 PUSH1 0xC0 ADD MLOAD PUSH2 0xD89 JUMP JUMPDEST PUSH2 0x120D DUP10 PUSH1 0xE0 ADD MLOAD PUSH2 0x1622 JUMP JUMPDEST PUSH2 0x121B DUP11 PUSH2 0x100 ADD MLOAD PUSH2 0x16A8 JUMP JUMPDEST PUSH2 0x1229 DUP12 PUSH2 0x120 ADD MLOAD PUSH2 0xDCC JUMP JUMPDEST PUSH2 0x1237 DUP13 PUSH2 0x140 ADD MLOAD PUSH2 0x1479 JUMP JUMPDEST PUSH2 0x1245 DUP14 PUSH2 0x160 ADD MLOAD PUSH2 0x944 JUMP JUMPDEST PUSH1 0x40 MLOAD PUSH1 0x20 ADD PUSH2 0x1260 SWAP13 SWAP12 SWAP11 SWAP10 SWAP9 SWAP8 SWAP7 SWAP6 SWAP5 SWAP4 SWAP3 SWAP2 SWAP1 PUSH2 0x36BD JUMP JUMPDEST PUSH1 0x40 MLOAD PUSH1 0x20 DUP2 DUP4 SUB SUB DUP2 MSTORE SWAP1 PUSH1 0x40 MSTORE SWAP1 POP SWAP2 SWAP1 POP JUMP JUMPDEST PUSH1 0x60 PUSH1 0x0 PUSH2 0x128D DUP4 PUSH1 0x0 ADD MLOAD PUSH4 0xFFFFFFFF AND PUSH2 0x159A JUMP JUMPDEST PUSH2 0x129E DUP5 PUSH1 0x20 ADD MLOAD PUSH1 0x0 ADD MLOAD PUSH2 0xE3D JUMP JUMPDEST PUSH2 0x12B9 DUP6 PUSH1 0x20 ADD MLOAD PUSH1 0x20 ADD MLOAD PUSH8 0xFFFFFFFFFFFFFFFF AND PUSH2 0x159A JUMP JUMPDEST PUSH1 0x40 MLOAD PUSH1 0x20 ADD PUSH2 0x12CA SWAP3 SWAP2 SWAP1 PUSH2 0x3451 JUMP JUMPDEST PUSH1 0x40 MLOAD PUSH1 0x20 DUP2 DUP4 SUB SUB DUP2 MSTORE SWAP1 PUSH1 0x40 MSTORE PUSH2 0x12EC DUP6 PUSH1 0x40 ADD MLOAD PUSH4 0xFFFFFFFF AND PUSH2 0x159A JUMP JUMPDEST PUSH2 0x12F9 DUP7 PUSH1 0x60 ADD MLOAD PUSH2 0xE3D JUMP JUMPDEST PUSH2 0x1306 DUP8 PUSH1 0x80 ADD MLOAD PUSH2 0x159A JUMP JUMPDEST PUSH2 0x1313 DUP9 PUSH1 0xA0 ADD MLOAD PUSH2 0x17F1 JUMP JUMPDEST PUSH2 0x1320 DUP10 PUSH1 0xC0 ADD MLOAD PUSH2 0xE3D JUMP JUMPDEST PUSH1 0x40 MLOAD PUSH1 0x20 ADD PUSH2 0x1336 SWAP8 SWAP7 SWAP6 SWAP5 SWAP4 SWAP3 SWAP2 SWAP1 PUSH2 0x34F1 JUMP JUMPDEST PUSH1 0x40 MLOAD PUSH1 0x20 DUP2 DUP4 SUB SUB DUP2 MSTORE SWAP1 PUSH1 0x40 MSTORE SWAP1 POP PUSH1 0x0 PUSH1 0x40 DUP5 PUSH1 0x40 ADD MLOAD AND PUSH4 0xFFFFFFFF AND GT ISZERO PUSH2 0x138E JUMPI DUP1 PUSH2 0x136B DUP5 PUSH1 0xE0 ADD MLOAD PUSH2 0xE3D JUMP JUMPDEST PUSH1 0x40 MLOAD PUSH1 0x20 ADD PUSH2 0x137C SWAP3 SWAP2 SWAP1 PUSH2 0x3451 JUMP JUMPDEST PUSH1 0x40 MLOAD PUSH1 0x20 DUP2 DUP4 SUB SUB DUP2 MSTORE SWAP1 PUSH1 0x40 MSTORE SWAP1 POP JUMPDEST DUP1 SWAP2 POP POP SWAP2 SWAP1 POP JUMP JUMPDEST PUSH1 0x60 DUP1 PUSH2 0x13A4 DUP4 MLOAD PUSH2 0x159A JUMP JUMPDEST SWAP1 POP PUSH1 0x0 JUMPDEST DUP4 MLOAD DUP2 LT ISZERO PUSH2 0x13FE JUMPI DUP2 PUSH2 0x13CF DUP6 DUP4 DUP2 MLOAD DUP2 LT PUSH2 0x13C2 JUMPI INVALID JUMPDEST PUSH1 0x20 MUL PUSH1 0x20 ADD ADD MLOAD PUSH2 0x16DF JUMP JUMPDEST PUSH1 0x40 MLOAD PUSH1 0x20 ADD PUSH2 0x13E0 SWAP3 SWAP2 SWAP1 PUSH2 0x3451 JUMP JUMPDEST PUSH1 0x40 MLOAD PUSH1 0x20 DUP2 DUP4 SUB SUB DUP2 MSTORE SWAP1 PUSH1 0x40 MSTORE SWAP2 POP DUP1 DUP1 PUSH1 0x1 ADD SWAP2 POP POP PUSH2 0x13A9 JUMP JUMPDEST POP DUP1 SWAP2 POP POP SWAP2 SWAP1 POP JUMP JUMPDEST PUSH1 0x60 DUP1 PUSH2 0x1415 DUP4 MLOAD PUSH2 0x1722 JUMP JUMPDEST SWAP1 POP PUSH1 0x0 JUMPDEST DUP4 MLOAD DUP2 LT ISZERO PUSH2 0x146F JUMPI DUP2 PUSH2 0x1440 DUP6 DUP4 DUP2 MLOAD DUP2 LT PUSH2 0x1433 JUMPI INVALID JUMPDEST PUSH1 0x20 MUL PUSH1 0x20 ADD ADD MLOAD PUSH2 0x1980 JUMP JUMPDEST PUSH1 0x40 MLOAD PUSH1 0x20 ADD PUSH2 0x1451 SWAP3 SWAP2 SWAP1 PUSH2 0x3451 JUMP JUMPDEST PUSH1 0x40 MLOAD PUSH1 0x20 DUP2 DUP4 SUB SUB DUP2 MSTORE SWAP1 PUSH1 0x40 MSTORE SWAP2 POP DUP1 DUP1 PUSH1 0x1 ADD SWAP2 POP POP PUSH2 0x141A JUMP JUMPDEST POP DUP1 SWAP2 POP POP SWAP2 SWAP1 POP JUMP JUMPDEST PUSH1 0x60 DUP1 PUSH2 0x1486 DUP4 MLOAD PUSH2 0x1722 JUMP JUMPDEST SWAP1 POP PUSH1 0x0 JUMPDEST DUP4 MLOAD DUP2 LT ISZERO PUSH2 0x14E0 JUMPI DUP2 PUSH2 0x14B1 DUP6 DUP4 DUP2 MLOAD DUP2 LT PUSH2 0x14A4 JUMPI INVALID JUMPDEST PUSH1 0x20 MUL PUSH1 0x20 ADD ADD MLOAD PUSH2 0xC6A JUMP JUMPDEST PUSH1 0x40 MLOAD PUSH1 0x20 ADD PUSH2 0x14C2 SWAP3 SWAP2 SWAP1 PUSH2 0x3451 JUMP JUMPDEST PUSH1 0x40 MLOAD PUSH1 0x20 DUP2 DUP4 SUB SUB DUP2 MSTORE SWAP1 PUSH1 0x40 MSTORE SWAP2 POP DUP1 DUP1 PUSH1 0x1 ADD SWAP2 POP POP PUSH2 0x148B JUMP JUMPDEST POP DUP1 SWAP2 POP POP SWAP2 SWAP1 POP JUMP JUMPDEST PUSH1 0x60 PUSH1 0x0 DUP3 PUSH1 0x40 MLOAD PUSH1 0x20 ADD PUSH2 0x14FF SWAP2 SWAP1 PUSH2 0x37BD JUMP JUMPDEST PUSH1 0x40 MLOAD PUSH1 0x20 DUP2 DUP4 SUB SUB DUP2 MSTORE SWAP1 PUSH1 0x40 MSTORE SWAP1 POP PUSH2 0x1519 DUP2 PUSH2 0xB62 JUMP JUMPDEST SWAP2 POP POP SWAP2 SWAP1 POP JUMP JUMPDEST PUSH1 0x60 DUP1 DUP3 ISZERO PUSH2 0x1537 JUMPI PUSH2 0x1534 DUP5 MLOAD PUSH2 0x1722 JUMP JUMPDEST SWAP1 POP JUMPDEST PUSH1 0x0 JUMPDEST DUP5 MLOAD DUP2 LT ISZERO PUSH2 0x158F JUMPI DUP2 PUSH2 0x1560 DUP7 DUP4 DUP2 MLOAD DUP2 LT PUSH2 0x1553 JUMPI INVALID JUMPDEST PUSH1 0x20 MUL PUSH1 0x20 ADD ADD MLOAD PUSH2 0x1276 JUMP JUMPDEST PUSH1 0x40 MLOAD PUSH1 0x20 ADD PUSH2 0x1571 SWAP3 SWAP2 SWAP1 PUSH2 0x3451 JUMP JUMPDEST PUSH1 0x40 MLOAD PUSH1 0x20 DUP2 DUP4 SUB SUB DUP2 MSTORE SWAP1 PUSH1 0x40 MSTORE SWAP2 POP DUP1 DUP1 PUSH1 0x1 ADD SWAP2 POP POP PUSH2 0x153A JUMP JUMPDEST POP DUP1 SWAP2 POP POP SWAP3 SWAP2 POP POP JUMP JUMPDEST PUSH1 0x60 PUSH1 0x0 PUSH1 0x60 PUSH1 0x0 JUMPDEST PUSH1 0x1 ISZERO PUSH2 0x160F JUMPI PUSH1 0x0 DUP2 EQ ISZERO PUSH2 0x15BA JUMPI PUSH1 0x0 PUSH2 0x15BD JUMP JUMPDEST PUSH1 0x80 JUMPDEST PUSH1 0x7F DUP7 AND OR PUSH1 0xF8 SHL SWAP3 POP DUP2 DUP4 PUSH1 0x40 MLOAD PUSH1 0x20 ADD PUSH2 0x15DA SWAP3 SWAP2 SWAP1 PUSH2 0x3429 JUMP JUMPDEST PUSH1 0x40 MLOAD PUSH1 0x20 DUP2 DUP4 SUB SUB DUP2 MSTORE SWAP1 PUSH1 0x40 MSTORE SWAP2 POP PUSH1 0x7F DUP6 GT PUSH2 0x15F8 JUMPI PUSH2 0x160F JUMP JUMPDEST PUSH1 0x1 PUSH1 0x7 DUP7 SWAP1 SHR SUB SWAP5 POP DUP1 DUP1 PUSH1 0x1 ADD SWAP2 POP POP PUSH2 0x15A3 JUMP JUMPDEST PUSH2 0x1618 DUP3 PUSH2 0xB62 JUMP JUMPDEST SWAP4 POP POP POP POP SWAP2 SWAP1 POP JUMP JUMPDEST PUSH1 0x60 PUSH2 0x164C DUP3 PUSH1 0x40 MLOAD PUSH1 0x20 ADD PUSH2 0x1638 SWAP2 SWAP1 PUSH2 0x340E JUMP JUMPDEST PUSH1 0x40 MLOAD PUSH1 0x20 DUP2 DUP4 SUB SUB DUP2 MSTORE SWAP1 PUSH1 0x40 MSTORE PUSH2 0xB62 JUMP JUMPDEST SWAP1 POP SWAP2 SWAP1 POP JUMP JUMPDEST PUSH1 0x60 PUSH2 0x165E DUP7 PUSH2 0x10CE JUMP JUMPDEST PUSH2 0x1667 DUP7 PUSH2 0xE3D JUMP JUMPDEST PUSH2 0x1670 DUP7 PUSH2 0x14EA JUMP JUMPDEST PUSH2 0x1679 DUP7 PUSH2 0xE3D JUMP JUMPDEST DUP6 PUSH1 0x40 MLOAD PUSH1 0x20 ADD PUSH2 0x168E SWAP6 SWAP5 SWAP4 SWAP3 SWAP2 SWAP1 PUSH2 0x34A6 JUMP JUMPDEST PUSH1 0x40 MLOAD PUSH1 0x20 DUP2 DUP4 SUB SUB DUP2 MSTORE SWAP1 PUSH1 0x40 MSTORE SWAP1 POP SWAP6 SWAP5 POP POP POP POP POP JUMP JUMPDEST PUSH1 0x60 PUSH1 0x0 DUP3 PUSH1 0x40 MLOAD PUSH1 0x20 ADD PUSH2 0x16BD SWAP2 SWAP1 PUSH2 0x3864 JUMP JUMPDEST PUSH1 0x40 MLOAD PUSH1 0x20 DUP2 DUP4 SUB SUB DUP2 MSTORE SWAP1 PUSH1 0x40 MSTORE SWAP1 POP PUSH2 0x16D7 DUP2 PUSH2 0xB62 JUMP JUMPDEST SWAP2 POP POP SWAP2 SWAP1 POP JUMP JUMPDEST PUSH1 0x60 PUSH2 0x16EE DUP3 PUSH1 0x0 ADD MLOAD PUSH2 0xE3D JUMP JUMPDEST PUSH2 0x16FB DUP4 PUSH1 0x20 ADD MLOAD PUSH2 0xC33 JUMP JUMPDEST PUSH1 0x40 MLOAD PUSH1 0x20 ADD PUSH2 0x170C SWAP3 SWAP2 SWAP1 PUSH2 0x3451 JUMP JUMPDEST PUSH1 0x40 MLOAD PUSH1 0x20 DUP2 DUP4 SUB SUB DUP2 MSTORE SWAP1 PUSH1 0x40 MSTORE SWAP1 POP SWAP2 SWAP1 POP JUMP JUMPDEST PUSH1 0x60 DUP1 PUSH1 0xFD PUSH1 0xFF AND DUP4 LT ISZERO PUSH2 0x1758 JUMPI DUP3 PUSH1 0x40 MLOAD PUSH1 0x20 ADD PUSH2 0x1742 SWAP2 SWAP1 PUSH2 0x389A JUMP JUMPDEST PUSH1 0x40 MLOAD PUSH1 0x20 DUP2 DUP4 SUB SUB DUP2 MSTORE SWAP1 PUSH1 0x40 MSTORE SWAP1 POP PUSH2 0x17E8 JUMP JUMPDEST PUSH2 0xFFFF DUP4 GT PUSH2 0x178B JUMPI PUSH1 0xFD DUP4 PUSH1 0x40 MLOAD PUSH1 0x20 ADD PUSH2 0x1775 SWAP3 SWAP2 SWAP1 PUSH2 0x38B5 JUMP JUMPDEST PUSH1 0x40 MLOAD PUSH1 0x20 DUP2 DUP4 SUB SUB DUP2 MSTORE SWAP1 PUSH1 0x40 MSTORE SWAP1 POP PUSH2 0x17E7 JUMP JUMPDEST PUSH4 0xFFFFFFFF DUP4 GT PUSH2 0x17C0 JUMPI PUSH1 0xFE DUP4 PUSH1 0x40 MLOAD PUSH1 0x20 ADD PUSH2 0x17AA SWAP3 SWAP2 SWAP1 PUSH2 0x38E1 JUMP JUMPDEST PUSH1 0x40 MLOAD PUSH1 0x20 DUP2 DUP4 SUB SUB DUP2 MSTORE SWAP1 PUSH1 0x40 MSTORE SWAP1 POP PUSH2 0x17E6 JUMP JUMPDEST PUSH1 0xFF DUP4 PUSH1 0x40 MLOAD PUSH1 0x20 ADD PUSH2 0x17D4 SWAP3 SWAP2 SWAP1 PUSH2 0x390D JUMP JUMPDEST PUSH1 0x40 MLOAD PUSH1 0x20 DUP2 DUP4 SUB SUB DUP2 MSTORE SWAP1 PUSH1 0x40 MSTORE SWAP1 POP JUMPDEST JUMPDEST JUMPDEST DUP1 SWAP2 POP POP SWAP2 SWAP1 POP JUMP JUMPDEST PUSH1 0x60 PUSH2 0x1800 DUP3 PUSH1 0x0 ADD MLOAD PUSH2 0x1097 JUMP JUMPDEST PUSH2 0x180A PUSH1 0x14 PUSH2 0x1722 JUMP JUMPDEST PUSH2 0x1817 DUP5 PUSH1 0x20 ADD MLOAD PUSH2 0xE3D JUMP JUMPDEST PUSH1 0x40 MLOAD PUSH1 0x20 ADD PUSH2 0x1829 SWAP4 SWAP3 SWAP2 SWAP1 PUSH2 0x3475 JUMP JUMPDEST PUSH1 0x40 MLOAD PUSH1 0x20 DUP2 DUP4 SUB SUB DUP2 MSTORE SWAP1 PUSH1 0x40 MSTORE SWAP1 POP SWAP2 SWAP1 POP JUMP JUMPDEST PUSH1 0x60 PUSH2 0x184E DUP3 PUSH1 0x0 ADD MLOAD PUSH2 0xE3D JUMP JUMPDEST PUSH2 0x185B DUP4 PUSH1 0x20 ADD MLOAD PUSH2 0x9B5 JUMP JUMPDEST PUSH1 0x40 MLOAD PUSH1 0x20 ADD PUSH2 0x186C SWAP3 SWAP2 SWAP1 PUSH2 0x3451 JUMP JUMPDEST PUSH1 0x40 MLOAD PUSH1 0x20 DUP2 DUP4 SUB SUB DUP2 MSTORE SWAP1 PUSH1 0x40 MSTORE SWAP1 POP SWAP2 SWAP1 POP JUMP JUMPDEST PUSH1 0x60 PUSH1 0x0 DUP3 PUSH1 0x40 MLOAD PUSH1 0x20 ADD PUSH2 0x1897 SWAP2 SWAP1 PUSH2 0x382E JUMP JUMPDEST PUSH1 0x40 MLOAD PUSH1 0x20 DUP2 DUP4 SUB SUB DUP2 MSTORE SWAP1 PUSH1 0x40 MSTORE SWAP1 POP PUSH2 0x18B1 DUP2 PUSH2 0xB62 JUMP JUMPDEST SWAP2 POP POP SWAP2 SWAP1 POP JUMP JUMPDEST PUSH1 0x60 PUSH1 0x0 DUP3 PUSH1 0x40 MLOAD PUSH1 0x20 ADD PUSH2 0x18CE SWAP2 SWAP1 PUSH2 0x3849 JUMP JUMPDEST PUSH1 0x40 MLOAD PUSH1 0x20 DUP2 DUP4 SUB SUB DUP2 MSTORE SWAP1 PUSH1 0x40 MSTORE SWAP1 POP PUSH2 0x18E8 DUP2 PUSH2 0xB62 JUMP JUMPDEST SWAP2 POP POP SWAP2 SWAP1 POP JUMP JUMPDEST PUSH1 0x60 DUP1 PUSH2 0x18FD DUP4 MLOAD PUSH2 0x1722 JUMP JUMPDEST SWAP1 POP PUSH1 0x0 JUMPDEST DUP4 MLOAD DUP2 LT ISZERO PUSH2 0x1976 JUMPI DUP2 PUSH2 0x1947 DUP6 DUP4 DUP2 MLOAD DUP2 LT PUSH2 0x191B JUMPI INVALID JUMPDEST PUSH1 0x20 MUL PUSH1 0x20 ADD ADD MLOAD PUSH1 0x40 MLOAD PUSH1 0x20 ADD PUSH2 0x1933 SWAP2 SWAP1 PUSH2 0x37BD JUMP JUMPDEST PUSH1 0x40 MLOAD PUSH1 0x20 DUP2 DUP4 SUB SUB DUP2 MSTORE SWAP1 PUSH1 0x40 MSTORE PUSH2 0xB62 JUMP JUMPDEST PUSH1 0x40 MLOAD PUSH1 0x20 ADD PUSH2 0x1958 SWAP3 SWAP2 SWAP1 PUSH2 0x3451 JUMP JUMPDEST PUSH1 0x40 MLOAD PUSH1 0x20 DUP2 DUP4 SUB SUB DUP2 MSTORE SWAP1 PUSH1 0x40 MSTORE SWAP2 POP DUP1 DUP1 PUSH1 0x1 ADD SWAP2 POP POP PUSH2 0x1902 JUMP JUMPDEST POP DUP1 SWAP2 POP POP SWAP2 SWAP1 POP JUMP JUMPDEST PUSH1 0x60 PUSH1 0x0 DUP3 PUSH1 0x40 MLOAD PUSH1 0x20 ADD PUSH2 0x1995 SWAP2 SWAP1 PUSH2 0x37A2 JUMP JUMPDEST PUSH1 0x40 MLOAD PUSH1 0x20 DUP2 DUP4 SUB SUB DUP2 MSTORE SWAP1 PUSH1 0x40 MSTORE SWAP1 POP PUSH2 0x19AF DUP2 PUSH2 0xB62 JUMP JUMPDEST SWAP2 POP POP SWAP2 SWAP1 POP JUMP JUMPDEST PUSH1 0x0 PUSH2 0x19CA PUSH2 0x19C5 DUP5 PUSH2 0x398C JUMP JUMPDEST PUSH2 0x395B JUMP JUMPDEST SWAP1 POP DUP1 DUP4 DUP3 MSTORE PUSH1 0x20 DUP3 ADD SWAP1 POP DUP3 DUP6 PUSH1 0x20 DUP7 MUL DUP3 ADD GT ISZERO PUSH2 0x19E9 JUMPI PUSH1 0x0 DUP1 REVERT JUMPDEST PUSH1 0x0 JUMPDEST DUP6 DUP2 LT ISZERO PUSH2 0x1A19 JUMPI DUP2 PUSH2 0x19FF DUP9 DUP3 PUSH2 0x1FF2 JUMP JUMPDEST DUP5 MSTORE PUSH1 0x20 DUP5 ADD SWAP4 POP PUSH1 0x20 DUP4 ADD SWAP3 POP POP PUSH1 0x1 DUP2 ADD SWAP1 POP PUSH2 0x19EC JUMP JUMPDEST POP POP POP SWAP4 SWAP3 POP POP POP JUMP JUMPDEST PUSH1 0x0 PUSH2 0x1A36 PUSH2 0x1A31 DUP5 PUSH2 0x39B8 JUMP JUMPDEST PUSH2 0x395B JUMP JUMPDEST SWAP1 POP DUP1 DUP4 DUP3 MSTORE PUSH1 0x20 DUP3 ADD SWAP1 POP DUP3 DUP6 PUSH1 0x20 DUP7 MUL DUP3 ADD GT ISZERO PUSH2 0x1A55 JUMPI PUSH1 0x0 DUP1 REVERT JUMPDEST PUSH1 0x0 JUMPDEST DUP6 DUP2 LT ISZERO PUSH2 0x1A85 JUMPI DUP2 PUSH2 0x1A6B DUP9 DUP3 PUSH2 0x2007 JUMP JUMPDEST DUP5 MSTORE PUSH1 0x20 DUP5 ADD SWAP4 POP PUSH1 0x20 DUP4 ADD SWAP3 POP POP PUSH1 0x1 DUP2 ADD SWAP1 POP PUSH2 0x1A58 JUMP JUMPDEST POP POP POP SWAP4 SWAP3 POP POP POP JUMP JUMPDEST PUSH1 0x0 PUSH2 0x1AA2 PUSH2 0x1A9D DUP5 PUSH2 0x39E4 JUMP JUMPDEST PUSH2 0x395B JUMP JUMPDEST SWAP1 POP DUP1 DUP4 DUP3 MSTORE PUSH1 0x20 DUP3 ADD SWAP1 POP DUP3 DUP6 PUSH1 0x40 DUP7 MUL DUP3 ADD GT ISZERO PUSH2 0x1AC1 JUMPI PUSH1 0x0 DUP1 REVERT JUMPDEST PUSH1 0x0 JUMPDEST DUP6 DUP2 LT ISZERO PUSH2 0x1AF1 JUMPI DUP2 PUSH2 0x1AD7 DUP9 DUP3 PUSH2 0x24C4 JUMP JUMPDEST DUP5 MSTORE PUSH1 0x20 DUP5 ADD SWAP4 POP PUSH1 0x40 DUP4 ADD SWAP3 POP POP PUSH1 0x1 DUP2 ADD SWAP1 POP PUSH2 0x1AC4 JUMP JUMPDEST POP POP POP SWAP4 SWAP3 POP POP POP JUMP JUMPDEST PUSH1 0x0 PUSH2 0x1B0E PUSH2 0x1B09 DUP5 PUSH2 0x3A10 JUMP JUMPDEST PUSH2 0x395B JUMP JUMPDEST SWAP1 POP DUP1 DUP4 DUP3 MSTORE PUSH1 0x20 DUP3 ADD SWAP1 POP DUP3 PUSH1 0x0 JUMPDEST DUP6 DUP2 LT ISZERO PUSH2 0x1B4E JUMPI DUP2 CALLDATALOAD DUP6 ADD PUSH2 0x1B34 DUP9 DUP3 PUSH2 0x2510 JUMP JUMPDEST DUP5 MSTORE PUSH1 0x20 DUP5 ADD SWAP4 POP PUSH1 0x20 DUP4 ADD SWAP3 POP POP PUSH1 0x1 DUP2 ADD SWAP1 POP PUSH2 0x1B1E JUMP JUMPDEST POP POP POP SWAP4 SWAP3 POP POP POP JUMP JUMPDEST PUSH1 0x0 PUSH2 0x1B6B PUSH2 0x1B66 DUP5 PUSH2 0x3A3C JUMP JUMPDEST PUSH2 0x395B JUMP JUMPDEST SWAP1 POP DUP1 DUP4 DUP3 MSTORE PUSH1 0x20 DUP3 ADD SWAP1 POP DUP3 DUP6 PUSH1 0xE0 DUP7 MUL DUP3 ADD GT ISZERO PUSH2 0x1B8A JUMPI PUSH1 0x0 DUP1 REVERT JUMPDEST PUSH1 0x0 JUMPDEST DUP6 DUP2 LT ISZERO PUSH2 0x1BBA JUMPI DUP2 PUSH2 0x1BA0 DUP9 DUP3 PUSH2 0x26F3 JUMP JUMPDEST DUP5 MSTORE PUSH1 0x20 DUP5 ADD SWAP4 POP PUSH1 0xE0 DUP4 ADD SWAP3 POP POP PUSH1 0x1 DUP2 ADD SWAP1 POP PUSH2 0x1B8D JUMP JUMPDEST POP POP POP SWAP4 SWAP3 POP POP POP JUMP JUMPDEST PUSH1 0x0 PUSH2 0x1BD7 PUSH2 0x1BD2 DUP5 PUSH2 0x3A68 JUMP JUMPDEST PUSH2 0x395B JUMP JUMPDEST SWAP1 POP DUP1 DUP4 DUP3 MSTORE PUSH1 0x20 DUP3 ADD SWAP1 POP DUP3 DUP6 PUSH2 0x140 DUP7 MUL DUP3 ADD GT ISZERO PUSH2 0x1BF7 JUMPI PUSH1 0x0 DUP1 REVERT JUMPDEST PUSH1 0x0 JUMPDEST DUP6 DUP2 LT ISZERO PUSH2 0x1C28 JUMPI DUP2 PUSH2 0x1C0D DUP9 DUP3 PUSH2 0x27A3 JUMP JUMPDEST DUP5 MSTORE PUSH1 0x20 DUP5 ADD SWAP4 POP PUSH2 0x140 DUP4 ADD SWAP3 POP POP PUSH1 0x1 DUP2 ADD SWAP1 POP PUSH2 0x1BFA JUMP JUMPDEST POP POP POP SWAP4 SWAP3 POP POP POP JUMP JUMPDEST PUSH1 0x0 PUSH2 0x1C45 PUSH2 0x1C40 DUP5 PUSH2 0x3A94 JUMP JUMPDEST PUSH2 0x395B JUMP JUMPDEST SWAP1 POP DUP1 DUP4 DUP3 MSTORE PUSH1 0x20 DUP3 ADD SWAP1 POP DUP3 PUSH1 0x0 JUMPDEST DUP6 DUP2 LT ISZERO PUSH2 0x1C85 JUMPI DUP2 CALLDATALOAD DUP6 ADD PUSH2 0x1C6B DUP9 DUP3 PUSH2 0x2903 JUMP JUMPDEST DUP5 MSTORE PUSH1 0x20 DUP5 ADD SWAP4 POP PUSH1 0x20 DUP4 ADD SWAP3 POP POP PUSH1 0x1 DUP2 ADD SWAP1 POP PUSH2 0x1C55 JUMP JUMPDEST POP POP POP SWAP4 SWAP3 POP POP POP JUMP JUMPDEST PUSH1 0x0 PUSH2 0x1CA2 PUSH2 0x1C9D DUP5 PUSH2 0x3AC0 JUMP JUMPDEST PUSH2 0x395B JUMP JUMPDEST SWAP1 POP DUP1 DUP4 DUP3 MSTORE PUSH1 0x20 DUP3 ADD SWAP1 POP DUP3 DUP6 PUSH2 0x100 DUP7 MUL DUP3 ADD GT ISZERO PUSH2 0x1CC2 JUMPI PUSH1 0x0 DUP1 REVERT JUMPDEST PUSH1 0x0 JUMPDEST DUP6 DUP2 LT ISZERO PUSH2 0x1CF3 JUMPI DUP2 PUSH2 0x1CD8 DUP9 DUP3 PUSH2 0x2967 JUMP JUMPDEST DUP5 MSTORE PUSH1 0x20 DUP5 ADD SWAP4 POP PUSH2 0x100 DUP4 ADD SWAP3 POP POP PUSH1 0x1 DUP2 ADD SWAP1 POP PUSH2 0x1CC5 JUMP JUMPDEST POP POP POP SWAP4 SWAP3 POP POP POP JUMP JUMPDEST PUSH1 0x0 PUSH2 0x1D10 PUSH2 0x1D0B DUP5 PUSH2 0x3AEC JUMP JUMPDEST PUSH2 0x395B JUMP JUMPDEST SWAP1 POP DUP1 DUP4 DUP3 MSTORE PUSH1 0x20 DUP3 ADD SWAP1 POP DUP3 DUP6 PUSH1 0x20 DUP7 MUL DUP3 ADD GT ISZERO PUSH2 0x1D2F JUMPI PUSH1 0x0 DUP1 REVERT JUMPDEST PUSH1 0x0 JUMPDEST DUP6 DUP2 LT ISZERO PUSH2 0x1D5F JUMPI DUP2 PUSH2 0x1D45 DUP9 DUP3 PUSH2 0x29C9 JUMP JUMPDEST DUP5 MSTORE PUSH1 0x20 DUP5 ADD SWAP4 POP PUSH1 0x20 DUP4 ADD SWAP3 POP POP PUSH1 0x1 DUP2 ADD SWAP1 POP PUSH2 0x1D32 JUMP JUMPDEST POP POP POP SWAP4 SWAP3 POP POP POP JUMP JUMPDEST PUSH1 0x0 PUSH2 0x1D7C PUSH2 0x1D77 DUP5 PUSH2 0x3B18 JUMP JUMPDEST PUSH2 0x395B JUMP JUMPDEST SWAP1 POP DUP3 DUP2 MSTORE PUSH1 0x20 DUP2 ADD DUP5 DUP5 DUP5 ADD GT ISZERO PUSH2 0x1D94 JUMPI PUSH1 0x0 DUP1 REVERT JUMPDEST PUSH2 0x1D9F DUP5 DUP3 DUP6 PUSH2 0x3CC5 JUMP JUMPDEST POP SWAP4 SWAP3 POP POP POP JUMP JUMPDEST PUSH1 0x0 PUSH2 0x1DBA PUSH2 0x1DB5 DUP5 PUSH2 0x3B48 JUMP JUMPDEST PUSH2 0x395B JUMP JUMPDEST SWAP1 POP DUP3 DUP2 MSTORE PUSH1 0x20 DUP2 ADD DUP5 DUP5 DUP5 ADD GT ISZERO PUSH2 0x1DD2 JUMPI PUSH1 0x0 DUP1 REVERT JUMPDEST PUSH2 0x1DDD DUP5 DUP3 DUP6 PUSH2 0x3CC5 JUMP JUMPDEST POP SWAP4 SWAP3 POP POP POP JUMP JUMPDEST PUSH1 0x0 DUP2 CALLDATALOAD SWAP1 POP PUSH2 0x1DF4 DUP2 PUSH2 0x3E37 JUMP JUMPDEST SWAP3 SWAP2 POP POP JUMP JUMPDEST PUSH1 0x0 DUP3 PUSH1 0x1F DUP4 ADD SLT PUSH2 0x1E0B JUMPI PUSH1 0x0 DUP1 REVERT JUMPDEST DUP2 CALLDATALOAD PUSH2 0x1E1B DUP5 DUP3 PUSH1 0x20 DUP7 ADD PUSH2 0x19B7 JUMP JUMPDEST SWAP2 POP POP SWAP3 SWAP2 POP POP JUMP JUMPDEST PUSH1 0x0 DUP3 PUSH1 0x1F DUP4 ADD SLT PUSH2 0x1E35 JUMPI PUSH1 0x0 DUP1 REVERT JUMPDEST DUP2 CALLDATALOAD PUSH2 0x1E45 DUP5 DUP3 PUSH1 0x20 DUP7 ADD PUSH2 0x1A23 JUMP JUMPDEST SWAP2 POP POP SWAP3 SWAP2 POP POP JUMP JUMPDEST PUSH1 0x0 DUP3 PUSH1 0x1F DUP4 ADD SLT PUSH2 0x1E5F JUMPI PUSH1 0x0 DUP1 REVERT JUMPDEST DUP2 CALLDATALOAD PUSH2 0x1E6F DUP5 DUP3 PUSH1 0x20 DUP7 ADD PUSH2 0x1A8F JUMP JUMPDEST SWAP2 POP POP SWAP3 SWAP2 POP POP JUMP JUMPDEST PUSH1 0x0 DUP3 PUSH1 0x1F DUP4 ADD SLT PUSH2 0x1E89 JUMPI PUSH1 0x0 DUP1 REVERT JUMPDEST DUP2 CALLDATALOAD PUSH2 0x1E99 DUP5 DUP3 PUSH1 0x20 DUP7 ADD PUSH2 0x1AFB JUMP JUMPDEST SWAP2 POP POP SWAP3 SWAP2 POP POP JUMP JUMPDEST PUSH1 0x0 DUP3 PUSH1 0x1F DUP4 ADD SLT PUSH2 0x1EB3 JUMPI PUSH1 0x0 DUP1 REVERT JUMPDEST DUP2 CALLDATALOAD PUSH2 0x1EC3 DUP5 DUP3 PUSH1 0x20 DUP7 ADD PUSH2 0x1B58 JUMP JUMPDEST SWAP2 POP POP SWAP3 SWAP2 POP POP JUMP JUMPDEST PUSH1 0x0 DUP3 PUSH1 0x1F DUP4 ADD SLT PUSH2 0x1EDD JUMPI PUSH1 0x0 DUP1 REVERT JUMPDEST DUP2 CALLDATALOAD PUSH2 0x1EED DUP5 DUP3 PUSH1 0x20 DUP7 ADD PUSH2 0x1BC4 JUMP JUMPDEST SWAP2 POP POP SWAP3 SWAP2 POP POP JUMP JUMPDEST PUSH1 0x0 DUP3 PUSH1 0x1F DUP4 ADD SLT PUSH2 0x1F07 JUMPI PUSH1 0x0 DUP1 REVERT JUMPDEST DUP2 CALLDATALOAD PUSH2 0x1F17 DUP5 DUP3 PUSH1 0x20 DUP7 ADD PUSH2 0x1C32 JUMP JUMPDEST SWAP2 POP POP SWAP3 SWAP2 POP POP JUMP JUMPDEST PUSH1 0x0 DUP3 PUSH1 0x1F DUP4 ADD SLT PUSH2 0x1F31 JUMPI PUSH1 0x0 DUP1 REVERT JUMPDEST DUP2 CALLDATALOAD PUSH2 0x1F41 DUP5 DUP3 PUSH1 0x20 DUP7 ADD PUSH2 0x1C8F JUMP JUMPDEST SWAP2 POP POP SWAP3 SWAP2 POP POP JUMP JUMPDEST PUSH1 0x0 DUP3 PUSH1 0x1F DUP4 ADD SLT PUSH2 0x1F5B JUMPI PUSH1 0x0 DUP1 REVERT JUMPDEST DUP2 CALLDATALOAD PUSH2 0x1F6B DUP5 DUP3 PUSH1 0x20 DUP7 ADD PUSH2 0x1CFD JUMP JUMPDEST SWAP2 POP POP SWAP3 SWAP2 POP POP JUMP JUMPDEST PUSH1 0x0 DUP2 CALLDATALOAD SWAP1 POP PUSH2 0x1F83 DUP2 PUSH2 0x3E4E JUMP JUMPDEST SWAP3 SWAP2 POP POP JUMP JUMPDEST PUSH1 0x0 DUP2 CALLDATALOAD SWAP1 POP PUSH2 0x1F98 DUP2 PUSH2 0x3E65 JUMP JUMPDEST SWAP3 SWAP2 POP POP JUMP JUMPDEST PUSH1 0x0 DUP2 CALLDATALOAD SWAP1 POP PUSH2 0x1FAD DUP2 PUSH2 0x3E7C JUMP JUMPDEST SWAP3 SWAP2 POP POP JUMP JUMPDEST PUSH1 0x0 DUP3 PUSH1 0x1F DUP4 ADD SLT PUSH2 0x1FC4 JUMPI PUSH1 0x0 DUP1 REVERT JUMPDEST DUP2 CALLDATALOAD PUSH2 0x1FD4 DUP5 DUP3 PUSH1 0x20 DUP7 ADD PUSH2 0x1D69 JUMP JUMPDEST SWAP2 POP POP SWAP3 SWAP2 POP POP JUMP JUMPDEST PUSH1 0x0 DUP2 CALLDATALOAD SWAP1 POP PUSH2 0x1FEC DUP2 PUSH2 0x3E93 JUMP JUMPDEST SWAP3 SWAP2 POP POP JUMP JUMPDEST PUSH1 0x0 DUP2 CALLDATALOAD SWAP1 POP PUSH2 0x2001 DUP2 PUSH2 0x3EAA JUMP JUMPDEST SWAP3 SWAP2 POP POP JUMP JUMPDEST PUSH1 0x0 DUP2 CALLDATALOAD SWAP1 POP PUSH2 0x2016 DUP2 PUSH2 0x3EC1 JUMP JUMPDEST SWAP3 SWAP2 POP POP JUMP JUMPDEST PUSH1 0x0 DUP3 PUSH1 0x1F DUP4 ADD SLT PUSH2 0x202D JUMPI PUSH1 0x0 DUP1 REVERT JUMPDEST DUP2 CALLDATALOAD PUSH2 0x203D DUP5 DUP3 PUSH1 0x20 DUP7 ADD PUSH2 0x1DA7 JUMP JUMPDEST SWAP2 POP POP SWAP3 SWAP2 POP POP JUMP JUMPDEST PUSH1 0x0 PUSH2 0x2A0 DUP3 DUP5 SUB SLT ISZERO PUSH2 0x2059 JUMPI PUSH1 0x0 DUP1 REVERT JUMPDEST PUSH2 0x2064 PUSH2 0x2A0 PUSH2 0x395B JUMP JUMPDEST SWAP1 POP PUSH1 0x0 PUSH2 0x2074 DUP5 DUP3 DUP6 ADD PUSH2 0x29B4 JUMP JUMPDEST PUSH1 0x0 DUP4 ADD MSTORE POP PUSH1 0x20 PUSH2 0x2088 DUP5 DUP3 DUP6 ADD PUSH2 0x29B4 JUMP JUMPDEST PUSH1 0x20 DUP4 ADD MSTORE POP PUSH1 0x40 PUSH2 0x209C DUP5 DUP3 DUP6 ADD PUSH2 0x1DE5 JUMP JUMPDEST PUSH1 0x40 DUP4 ADD MSTORE POP PUSH1 0x60 DUP3 ADD CALLDATALOAD PUSH8 0xFFFFFFFFFFFFFFFF DUP2 GT ISZERO PUSH2 0x20BC JUMPI PUSH1 0x0 DUP1 REVERT JUMPDEST PUSH2 0x20C8 DUP5 DUP3 DUP6 ADD PUSH2 0x1F4A JUMP JUMPDEST PUSH1 0x60 DUP4 ADD MSTORE POP PUSH1 0x80 DUP3 ADD CALLDATALOAD PUSH8 0xFFFFFFFFFFFFFFFF DUP2 GT ISZERO PUSH2 0x20E8 JUMPI PUSH1 0x0 DUP1 REVERT JUMPDEST PUSH2 0x20F4 DUP5 DUP3 DUP6 ADD PUSH2 0x1DFA JUMP JUMPDEST PUSH1 0x80 DUP4 ADD MSTORE POP PUSH1 0xA0 DUP3 ADD CALLDATALOAD PUSH8 0xFFFFFFFFFFFFFFFF DUP2 GT ISZERO PUSH2 0x2114 JUMPI PUSH1 0x0 DUP1 REVERT JUMPDEST PUSH2 0x2120 DUP5 DUP3 DUP6 ADD PUSH2 0x1E24 JUMP JUMPDEST PUSH1 0xA0 DUP4 ADD MSTORE POP PUSH1 0xC0 PUSH2 0x2134 DUP5 DUP3 DUP6 ADD PUSH2 0x2007 JUMP JUMPDEST PUSH1 0xC0 DUP4 ADD MSTORE POP PUSH1 0xE0 PUSH2 0x2148 DUP5 DUP3 DUP6 ADD PUSH2 0x2007 JUMP JUMPDEST PUSH1 0xE0 DUP4 ADD MSTORE POP PUSH2 0x100 PUSH2 0x215D DUP5 DUP3 DUP6 ADD PUSH2 0x2007 JUMP JUMPDEST PUSH2 0x100 DUP4 ADD MSTORE POP PUSH2 0x120 PUSH2 0x2173 DUP5 DUP3 DUP6 ADD PUSH2 0x2007 JUMP JUMPDEST PUSH2 0x120 DUP4 ADD MSTORE POP PUSH2 0x140 PUSH2 0x2189 DUP5 DUP3 DUP6 ADD PUSH2 0x2007 JUMP JUMPDEST PUSH2 0x140 DUP4 ADD MSTORE POP PUSH2 0x160 PUSH2 0x219F DUP5 DUP3 DUP6 ADD PUSH2 0x2007 JUMP JUMPDEST PUSH2 0x160 DUP4 ADD MSTORE POP PUSH2 0x180 PUSH2 0x21B5 DUP5 DUP3 DUP6 ADD PUSH2 0x2007 JUMP JUMPDEST PUSH2 0x180 DUP4 ADD MSTORE POP PUSH2 0x1A0 DUP3 ADD CALLDATALOAD PUSH8 0xFFFFFFFFFFFFFFFF DUP2 GT ISZERO PUSH2 0x21D7 JUMPI PUSH1 0x0 DUP1 REVERT JUMPDEST PUSH2 0x21E3 DUP5 DUP3 DUP6 ADD PUSH2 0x1E24 JUMP JUMPDEST PUSH2 0x1A0 DUP4 ADD MSTORE POP PUSH2 0x1C0 DUP3 ADD CALLDATALOAD PUSH8 0xFFFFFFFFFFFFFFFF DUP2 GT ISZERO PUSH2 0x2205 JUMPI PUSH1 0x0 DUP1 REVERT JUMPDEST PUSH2 0x2211 DUP5 DUP3 DUP6 ADD PUSH2 0x1E24 JUMP JUMPDEST PUSH2 0x1C0 DUP4 ADD MSTORE POP PUSH2 0x1E0 DUP3 ADD CALLDATALOAD PUSH8 0xFFFFFFFFFFFFFFFF DUP2 GT ISZERO PUSH2 0x2233 JUMPI PUSH1 0x0 DUP1 REVERT JUMPDEST PUSH2 0x223F DUP5 DUP3 DUP6 ADD PUSH2 0x1E24 JUMP JUMPDEST PUSH2 0x1E0 DUP4 ADD MSTORE POP PUSH2 0x200 DUP3 ADD CALLDATALOAD PUSH8 0xFFFFFFFFFFFFFFFF DUP2 GT ISZERO PUSH2 0x2261 JUMPI PUSH1 0x0 DUP1 REVERT JUMPDEST PUSH2 0x226D DUP5 DUP3 DUP6 ADD PUSH2 0x1E24 JUMP JUMPDEST PUSH2 0x200 DUP4 ADD MSTORE POP PUSH2 0x220 DUP3 ADD CALLDATALOAD PUSH8 0xFFFFFFFFFFFFFFFF DUP2 GT ISZERO PUSH2 0x228F JUMPI PUSH1 0x0 DUP1 REVERT JUMPDEST PUSH2 0x229B DUP5 DUP3 DUP6 ADD PUSH2 0x1E24 JUMP JUMPDEST PUSH2 0x220 DUP4 ADD MSTORE POP PUSH2 0x240 DUP3 ADD CALLDATALOAD PUSH8 0xFFFFFFFFFFFFFFFF DUP2 GT ISZERO PUSH2 0x22BD JUMPI PUSH1 0x0 DUP1 REVERT JUMPDEST PUSH2 0x22C9 DUP5 DUP3 DUP6 ADD PUSH2 0x1E24 JUMP JUMPDEST PUSH2 0x240 DUP4 ADD MSTORE POP PUSH2 0x260 DUP3 ADD CALLDATALOAD PUSH8 0xFFFFFFFFFFFFFFFF DUP2 GT ISZERO PUSH2 0x22EB JUMPI PUSH1 0x0 DUP1 REVERT JUMPDEST PUSH2 0x22F7 DUP5 DUP3 DUP6 ADD PUSH2 0x1DFA JUMP JUMPDEST PUSH2 0x260 DUP4 ADD MSTORE POP PUSH2 0x280 DUP3 ADD CALLDATALOAD PUSH8 0xFFFFFFFFFFFFFFFF DUP2 GT ISZERO PUSH2 0x2319 JUMPI PUSH1 0x0 DUP1 REVERT JUMPDEST PUSH2 0x2325 DUP5 DUP3 DUP6 ADD PUSH2 0x1E24 JUMP JUMPDEST PUSH2 0x280 DUP4 ADD MSTORE POP SWAP3 SWAP2 POP POP JUMP JUMPDEST PUSH1 0x0 PUSH2 0x1E0 DUP3 DUP5 SUB SLT ISZERO PUSH2 0x2345 JUMPI PUSH1 0x0 DUP1 REVERT JUMPDEST PUSH2 0x2350 PUSH2 0x1C0 PUSH2 0x395B JUMP JUMPDEST SWAP1 POP PUSH1 0x0 PUSH2 0x2360 DUP5 DUP3 DUP6 ADD PUSH2 0x29B4 JUMP JUMPDEST PUSH1 0x0 DUP4 ADD MSTORE POP PUSH1 0x20 PUSH2 0x2374 DUP5 DUP3 DUP6 ADD PUSH2 0x29B4 JUMP JUMPDEST PUSH1 0x20 DUP4 ADD MSTORE POP PUSH1 0x40 PUSH2 0x2388 DUP5 DUP3 DUP6 ADD PUSH2 0x1DE5 JUMP JUMPDEST PUSH1 0x40 DUP4 ADD MSTORE POP PUSH1 0x60 PUSH2 0x239C DUP5 DUP3 DUP6 ADD PUSH2 0x29F3 JUMP JUMPDEST PUSH1 0x60 DUP4 ADD MSTORE POP PUSH1 0x80 PUSH2 0x23B0 DUP5 DUP3 DUP6 ADD PUSH2 0x29F3 JUMP JUMPDEST PUSH1 0x80 DUP4 ADD MSTORE POP PUSH1 0xA0 PUSH2 0x23C4 DUP5 DUP3 DUP6 ADD PUSH2 0x1DE5 JUMP JUMPDEST PUSH1 0xA0 DUP4 ADD MSTORE POP PUSH1 0xC0 PUSH2 0x23D8 DUP5 DUP3 DUP6 ADD PUSH2 0x1DE5 JUMP JUMPDEST PUSH1 0xC0 DUP4 ADD MSTORE POP PUSH1 0xE0 PUSH2 0x23EC DUP5 DUP3 DUP6 ADD PUSH2 0x29F3 JUMP JUMPDEST PUSH1 0xE0 DUP4 ADD MSTORE POP PUSH2 0x100 DUP3 ADD CALLDATALOAD PUSH8 0xFFFFFFFFFFFFFFFF DUP2 GT ISZERO PUSH2 0x240D JUMPI PUSH1 0x0 DUP1 REVERT JUMPDEST PUSH2 0x2419 DUP5 DUP3 DUP6 ADD PUSH2 0x1E4E JUMP JUMPDEST PUSH2 0x100 DUP4 ADD MSTORE POP PUSH2 0x120 DUP3 ADD CALLDATALOAD PUSH8 0xFFFFFFFFFFFFFFFF DUP2 GT ISZERO PUSH2 0x243B JUMPI PUSH1 0x0 DUP1 REVERT JUMPDEST PUSH2 0x2447 DUP5 DUP3 DUP6 ADD PUSH2 0x1E4E JUMP JUMPDEST PUSH2 0x120 DUP4 ADD MSTORE POP PUSH2 0x140 PUSH2 0x245D DUP5 DUP3 DUP6 ADD PUSH2 0x1F9E JUMP JUMPDEST PUSH2 0x140 DUP4 ADD MSTORE POP PUSH2 0x160 DUP3 ADD CALLDATALOAD PUSH8 0xFFFFFFFFFFFFFFFF DUP2 GT ISZERO PUSH2 0x247F JUMPI PUSH1 0x0 DUP1 REVERT JUMPDEST PUSH2 0x248B DUP5 DUP3 DUP6 ADD PUSH2 0x1E4E JUMP JUMPDEST PUSH2 0x160 DUP4 ADD MSTORE POP PUSH2 0x180 PUSH2 0x24A1 DUP5 DUP3 DUP6 ADD PUSH2 0x286B JUMP JUMPDEST PUSH2 0x180 DUP4 ADD MSTORE POP PUSH2 0x1C0 PUSH2 0x24B7 DUP5 DUP3 DUP6 ADD PUSH2 0x1FF2 JUMP JUMPDEST PUSH2 0x1A0 DUP4 ADD MSTORE POP SWAP3 SWAP2 POP POP JUMP JUMPDEST PUSH1 0x0 PUSH1 0x40 DUP3 DUP5 SUB SLT ISZERO PUSH2 0x24D6 JUMPI PUSH1 0x0 DUP1 REVERT JUMPDEST PUSH2 0x24E0 PUSH1 0x40 PUSH2 0x395B JUMP JUMPDEST SWAP1 POP PUSH1 0x0 PUSH2 0x24F0 DUP5 DUP3 DUP6 ADD PUSH2 0x1DE5 JUMP JUMPDEST PUSH1 0x0 DUP4 ADD MSTORE POP PUSH1 0x20 PUSH2 0x2504 DUP5 DUP3 DUP6 ADD PUSH2 0x2A08 JUMP JUMPDEST PUSH1 0x20 DUP4 ADD MSTORE POP SWAP3 SWAP2 POP POP JUMP JUMPDEST PUSH1 0x0 PUSH1 0x40 DUP3 DUP5 SUB SLT ISZERO PUSH2 0x2522 JUMPI PUSH1 0x0 DUP1 REVERT JUMPDEST PUSH2 0x252C PUSH1 0x40 PUSH2 0x395B JUMP JUMPDEST SWAP1 POP PUSH1 0x0 DUP3 ADD CALLDATALOAD PUSH8 0xFFFFFFFFFFFFFFFF DUP2 GT ISZERO PUSH2 0x2548 JUMPI PUSH1 0x0 DUP1 REVERT JUMPDEST PUSH2 0x2554 DUP5 DUP3 DUP6 ADD PUSH2 0x201C JUMP JUMPDEST PUSH1 0x0 DUP4 ADD MSTORE POP PUSH1 0x20 PUSH2 0x2568 DUP5 DUP3 DUP6 ADD PUSH2 0x1DE5 JUMP JUMPDEST PUSH1 0x20 DUP4 ADD MSTORE POP SWAP3 SWAP2 POP POP JUMP JUMPDEST PUSH1 0x0 PUSH2 0x1C0 DUP3 DUP5 SUB SLT ISZERO PUSH2 0x2587 JUMPI PUSH1 0x0 DUP1 REVERT JUMPDEST PUSH2 0x2592 PUSH2 0x180 PUSH2 0x395B JUMP JUMPDEST SWAP1 POP PUSH1 0x0 PUSH2 0x25A2 DUP5 DUP3 DUP6 ADD PUSH2 0x29F3 JUMP JUMPDEST PUSH1 0x0 DUP4 ADD MSTORE POP PUSH1 0x20 PUSH2 0x25B6 DUP5 DUP3 DUP6 ADD PUSH2 0x29F3 JUMP JUMPDEST PUSH1 0x20 DUP4 ADD MSTORE POP PUSH1 0x40 PUSH2 0x25CA DUP5 DUP3 DUP6 ADD PUSH2 0x286B JUMP JUMPDEST PUSH1 0x40 DUP4 ADD MSTORE POP PUSH1 0x80 PUSH2 0x25DE DUP5 DUP3 DUP6 ADD PUSH2 0x1DE5 JUMP JUMPDEST PUSH1 0x60 DUP4 ADD MSTORE POP PUSH1 0xA0 DUP3 ADD CALLDATALOAD PUSH8 0xFFFFFFFFFFFFFFFF DUP2 GT ISZERO PUSH2 0x25FE JUMPI PUSH1 0x0 DUP1 REVERT JUMPDEST PUSH2 0x260A DUP5 DUP3 DUP6 ADD PUSH2 0x2046 JUMP JUMPDEST PUSH1 0x80 DUP4 ADD MSTORE POP PUSH1 0xC0 PUSH2 0x261E DUP5 DUP3 DUP6 ADD PUSH2 0x29F3 JUMP JUMPDEST PUSH1 0xA0 DUP4 ADD MSTORE POP PUSH1 0xE0 PUSH2 0x2632 DUP5 DUP3 DUP6 ADD PUSH2 0x28B7 JUMP JUMPDEST PUSH1 0xC0 DUP4 ADD MSTORE POP PUSH2 0x120 PUSH2 0x2647 DUP5 DUP3 DUP6 ADD PUSH2 0x1F9E JUMP JUMPDEST PUSH1 0xE0 DUP4 ADD MSTORE POP PUSH2 0x140 PUSH2 0x265C DUP5 DUP3 DUP6 ADD PUSH2 0x29F3 JUMP JUMPDEST PUSH2 0x100 DUP4 ADD MSTORE POP PUSH2 0x160 DUP3 ADD CALLDATALOAD PUSH8 0xFFFFFFFFFFFFFFFF DUP2 GT ISZERO PUSH2 0x267E JUMPI PUSH1 0x0 DUP1 REVERT JUMPDEST PUSH2 0x268A DUP5 DUP3 DUP6 ADD PUSH2 0x1EF6 JUMP JUMPDEST PUSH2 0x120 DUP4 ADD MSTORE POP PUSH2 0x180 DUP3 ADD CALLDATALOAD PUSH8 0xFFFFFFFFFFFFFFFF DUP2 GT ISZERO PUSH2 0x26AC JUMPI PUSH1 0x0 DUP1 REVERT JUMPDEST PUSH2 0x26B8 DUP5 DUP3 DUP6 ADD PUSH2 0x1EA2 JUMP JUMPDEST PUSH2 0x140 DUP4 ADD MSTORE POP PUSH2 0x1A0 DUP3 ADD CALLDATALOAD PUSH8 0xFFFFFFFFFFFFFFFF DUP2 GT ISZERO PUSH2 0x26DA JUMPI PUSH1 0x0 DUP1 REVERT JUMPDEST PUSH2 0x26E6 DUP5 DUP3 DUP6 ADD PUSH2 0x1E78 JUMP JUMPDEST PUSH2 0x160 DUP4 ADD MSTORE POP SWAP3 SWAP2 POP POP JUMP JUMPDEST PUSH1 0x0 PUSH1 0xE0 DUP3 DUP5 SUB SLT ISZERO PUSH2 0x2705 JUMPI PUSH1 0x0 DUP1 REVERT JUMPDEST PUSH2 0x270F PUSH1 0xE0 PUSH2 0x395B JUMP JUMPDEST SWAP1 POP PUSH1 0x0 PUSH2 0x271F DUP5 DUP3 DUP6 ADD PUSH2 0x1FDD JUMP JUMPDEST PUSH1 0x0 DUP4 ADD MSTORE POP PUSH1 0x20 PUSH2 0x2733 DUP5 DUP3 DUP6 ADD PUSH2 0x1FDD JUMP JUMPDEST PUSH1 0x20 DUP4 ADD MSTORE POP PUSH1 0x40 PUSH2 0x2747 DUP5 DUP3 DUP6 ADD PUSH2 0x1DE5 JUMP JUMPDEST PUSH1 0x40 DUP4 ADD MSTORE POP PUSH1 0x60 PUSH2 0x275B DUP5 DUP3 DUP6 ADD PUSH2 0x29F3 JUMP JUMPDEST PUSH1 0x60 DUP4 ADD MSTORE POP PUSH1 0x80 PUSH2 0x276F DUP5 DUP3 DUP6 ADD PUSH2 0x1F9E JUMP JUMPDEST PUSH1 0x80 DUP4 ADD MSTORE POP PUSH1 0xA0 PUSH2 0x2783 DUP5 DUP3 DUP6 ADD PUSH2 0x1F9E JUMP JUMPDEST PUSH1 0xA0 DUP4 ADD MSTORE POP PUSH1 0xC0 PUSH2 0x2797 DUP5 DUP3 DUP6 ADD PUSH2 0x1F9E JUMP JUMPDEST PUSH1 0xC0 DUP4 ADD MSTORE POP SWAP3 SWAP2 POP POP JUMP JUMPDEST PUSH1 0x0 PUSH2 0x140 DUP3 DUP5 SUB SLT ISZERO PUSH2 0x27B6 JUMPI PUSH1 0x0 DUP1 REVERT JUMPDEST PUSH2 0x27C1 PUSH2 0x100 PUSH2 0x395B JUMP JUMPDEST SWAP1 POP PUSH1 0x0 PUSH2 0x27D1 DUP5 DUP3 DUP6 ADD PUSH2 0x29F3 JUMP JUMPDEST PUSH1 0x0 DUP4 ADD MSTORE POP PUSH1 0x20 PUSH2 0x27E5 DUP5 DUP3 DUP6 ADD PUSH2 0x24C4 JUMP JUMPDEST PUSH1 0x20 DUP4 ADD MSTORE POP PUSH1 0x60 PUSH2 0x27F9 DUP5 DUP3 DUP6 ADD PUSH2 0x29F3 JUMP JUMPDEST PUSH1 0x40 DUP4 ADD MSTORE POP PUSH1 0x80 PUSH2 0x280D DUP5 DUP3 DUP6 ADD PUSH2 0x1DE5 JUMP JUMPDEST PUSH1 0x60 DUP4 ADD MSTORE POP PUSH1 0xA0 PUSH2 0x2821 DUP5 DUP3 DUP6 ADD PUSH2 0x29DE JUMP JUMPDEST PUSH1 0x80 DUP4 ADD MSTORE POP PUSH1 0xC0 PUSH2 0x2835 DUP5 DUP3 DUP6 ADD PUSH2 0x286B JUMP JUMPDEST PUSH1 0xA0 DUP4 ADD MSTORE POP PUSH2 0x100 PUSH2 0x284A DUP5 DUP3 DUP6 ADD PUSH2 0x1DE5 JUMP JUMPDEST PUSH1 0xC0 DUP4 ADD MSTORE POP PUSH2 0x120 PUSH2 0x285F DUP5 DUP3 DUP6 ADD PUSH2 0x1DE5 JUMP JUMPDEST PUSH1 0xE0 DUP4 ADD MSTORE POP SWAP3 SWAP2 POP POP JUMP JUMPDEST PUSH1 0x0 PUSH1 0x40 DUP3 DUP5 SUB SLT ISZERO PUSH2 0x287D JUMPI PUSH1 0x0 DUP1 REVERT JUMPDEST PUSH2 0x2887 PUSH1 0x40 PUSH2 0x395B JUMP JUMPDEST SWAP1 POP PUSH1 0x0 PUSH2 0x2897 DUP5 DUP3 DUP6 ADD PUSH2 0x2A1D JUMP JUMPDEST PUSH1 0x0 DUP4 ADD MSTORE POP PUSH1 0x20 PUSH2 0x28AB DUP5 DUP3 DUP6 ADD PUSH2 0x1DE5 JUMP JUMPDEST PUSH1 0x20 DUP4 ADD MSTORE POP SWAP3 SWAP2 POP POP JUMP JUMPDEST PUSH1 0x0 PUSH1 0x40 DUP3 DUP5 SUB SLT ISZERO PUSH2 0x28C9 JUMPI PUSH1 0x0 DUP1 REVERT JUMPDEST PUSH2 0x28D3 PUSH1 0x40 PUSH2 0x395B JUMP JUMPDEST SWAP1 POP PUSH1 0x0 PUSH2 0x28E3 DUP5 DUP3 DUP6 ADD PUSH2 0x1F9E JUMP JUMPDEST PUSH1 0x0 DUP4 ADD MSTORE POP PUSH1 0x20 PUSH2 0x28F7 DUP5 DUP3 DUP6 ADD PUSH2 0x29F3 JUMP JUMPDEST PUSH1 0x20 DUP4 ADD MSTORE POP SWAP3 SWAP2 POP POP JUMP JUMPDEST PUSH1 0x0 PUSH1 0x40 DUP3 DUP5 SUB SLT ISZERO PUSH2 0x2915 JUMPI PUSH1 0x0 DUP1 REVERT JUMPDEST PUSH2 0x291F PUSH1 0x40 PUSH2 0x395B JUMP JUMPDEST SWAP1 POP PUSH1 0x0 PUSH2 0x292F DUP5 DUP3 DUP6 ADD PUSH2 0x1DE5 JUMP JUMPDEST PUSH1 0x0 DUP4 ADD MSTORE POP PUSH1 0x20 DUP3 ADD CALLDATALOAD PUSH8 0xFFFFFFFFFFFFFFFF DUP2 GT ISZERO PUSH2 0x294F JUMPI PUSH1 0x0 DUP1 REVERT JUMPDEST PUSH2 0x295B DUP5 DUP3 DUP6 ADD PUSH2 0x2046 JUMP JUMPDEST PUSH1 0x20 DUP4 ADD MSTORE POP SWAP3 SWAP2 POP POP JUMP JUMPDEST PUSH1 0x0 PUSH2 0x100 DUP3 DUP5 SUB SLT ISZERO PUSH2 0x297A JUMPI PUSH1 0x0 DUP1 REVERT JUMPDEST PUSH2 0x2984 PUSH1 0x40 PUSH2 0x395B JUMP JUMPDEST SWAP1 POP PUSH1 0x0 PUSH2 0x2994 DUP5 DUP3 DUP6 ADD PUSH2 0x1DE5 JUMP JUMPDEST PUSH1 0x0 DUP4 ADD MSTORE POP PUSH1 0x20 PUSH2 0x29A8 DUP5 DUP3 DUP6 ADD PUSH2 0x26F3 JUMP JUMPDEST PUSH1 0x20 DUP4 ADD MSTORE POP SWAP3 SWAP2 POP POP JUMP JUMPDEST PUSH1 0x0 DUP2 CALLDATALOAD SWAP1 POP PUSH2 0x29C3 DUP2 PUSH2 0x3ED8 JUMP JUMPDEST SWAP3 SWAP2 POP POP JUMP JUMPDEST PUSH1 0x0 DUP2 CALLDATALOAD SWAP1 POP PUSH2 0x29D8 DUP2 PUSH2 0x3EEF JUMP JUMPDEST SWAP3 SWAP2 POP POP JUMP JUMPDEST PUSH1 0x0 DUP2 CALLDATALOAD SWAP1 POP PUSH2 0x29ED DUP2 PUSH2 0x3F06 JUMP JUMPDEST SWAP3 SWAP2 POP POP JUMP JUMPDEST PUSH1 0x0 DUP2 CALLDATALOAD SWAP1 POP PUSH2 0x2A02 DUP2 PUSH2 0x3F1D JUMP JUMPDEST SWAP3 SWAP2 POP POP JUMP JUMPDEST PUSH1 0x0 DUP2 CALLDATALOAD SWAP1 POP PUSH2 0x2A17 DUP2 PUSH2 0x3F34 JUMP JUMPDEST SWAP3 SWAP2 POP POP JUMP JUMPDEST PUSH1 0x0 DUP2 CALLDATALOAD SWAP1 POP PUSH2 0x2A2C DUP2 PUSH2 0x3F4B JUMP JUMPDEST SWAP3 SWAP2 POP POP JUMP JUMPDEST PUSH1 0x0 PUSH1 0x20 DUP3 DUP5 SUB SLT ISZERO PUSH2 0x2A44 JUMPI PUSH1 0x0 DUP1 REVERT JUMPDEST PUSH1 0x0 PUSH2 0x2A52 DUP5 DUP3 DUP6 ADD PUSH2 0x1DE5 JUMP JUMPDEST SWAP2 POP POP SWAP3 SWAP2 POP POP JUMP JUMPDEST PUSH1 0x0 PUSH1 0x20 DUP3 DUP5 SUB SLT ISZERO PUSH2 0x2A6D JUMPI PUSH1 0x0 DUP1 REVERT JUMPDEST PUSH1 0x0 DUP3 ADD CALLDATALOAD PUSH8 0xFFFFFFFFFFFFFFFF DUP2 GT ISZERO PUSH2 0x2A87 JUMPI PUSH1 0x0 DUP1 REVERT JUMPDEST PUSH2 0x2A93 DUP5 DUP3 DUP6 ADD PUSH2 0x1DFA JUMP JUMPDEST SWAP2 POP POP SWAP3 SWAP2 POP POP JUMP JUMPDEST PUSH1 0x0 PUSH1 0x20 DUP3 DUP5 SUB SLT ISZERO PUSH2 0x2AAE JUMPI PUSH1 0x0 DUP1 REVERT JUMPDEST PUSH1 0x0 DUP3 ADD CALLDATALOAD PUSH8 0xFFFFFFFFFFFFFFFF DUP2 GT ISZERO PUSH2 0x2AC8 JUMPI PUSH1 0x0 DUP1 REVERT JUMPDEST PUSH2 0x2AD4 DUP5 DUP3 DUP6 ADD PUSH2 0x1E24 JUMP JUMPDEST SWAP2 POP POP SWAP3 SWAP2 POP POP JUMP JUMPDEST PUSH1 0x0 PUSH1 0x20 DUP3 DUP5 SUB SLT ISZERO PUSH2 0x2AEF JUMPI PUSH1 0x0 DUP1 REVERT JUMPDEST PUSH1 0x0 DUP3 ADD CALLDATALOAD PUSH8 0xFFFFFFFFFFFFFFFF DUP2 GT ISZERO PUSH2 0x2B09 JUMPI PUSH1 0x0 DUP1 REVERT JUMPDEST PUSH2 0x2B15 DUP5 DUP3 DUP6 ADD PUSH2 0x1E4E JUMP JUMPDEST SWAP2 POP POP SWAP3 SWAP2 POP POP JUMP JUMPDEST PUSH1 0x0 PUSH1 0x20 DUP3 DUP5 SUB SLT ISZERO PUSH2 0x2B30 JUMPI PUSH1 0x0 DUP1 REVERT JUMPDEST PUSH1 0x0 DUP3 ADD CALLDATALOAD PUSH8 0xFFFFFFFFFFFFFFFF DUP2 GT ISZERO PUSH2 0x2B4A JUMPI PUSH1 0x0 DUP1 REVERT JUMPDEST PUSH2 0x2B56 DUP5 DUP3 DUP6 ADD PUSH2 0x1E78 JUMP JUMPDEST SWAP2 POP POP SWAP3 SWAP2 POP POP JUMP JUMPDEST PUSH1 0x0 PUSH1 0x20 DUP3 DUP5 SUB SLT ISZERO PUSH2 0x2B71 JUMPI PUSH1 0x0 DUP1 REVERT JUMPDEST PUSH1 0x0 DUP3 ADD CALLDATALOAD PUSH8 0xFFFFFFFFFFFFFFFF DUP2 GT ISZERO PUSH2 0x2B8B JUMPI PUSH1 0x0 DUP1 REVERT JUMPDEST PUSH2 0x2B97 DUP5 DUP3 DUP6 ADD PUSH2 0x1EA2 JUMP JUMPDEST SWAP2 POP POP SWAP3 SWAP2 POP POP JUMP JUMPDEST PUSH1 0x0 DUP1 PUSH1 0x40 DUP4 DUP6 SUB SLT ISZERO PUSH2 0x2BB3 JUMPI PUSH1 0x0 DUP1 REVERT JUMPDEST PUSH1 0x0 DUP4 ADD CALLDATALOAD PUSH8 0xFFFFFFFFFFFFFFFF DUP2 GT ISZERO PUSH2 0x2BCD JUMPI PUSH1 0x0 DUP1 REVERT JUMPDEST PUSH2 0x2BD9 DUP6 DUP3 DUP7 ADD PUSH2 0x1ECC JUMP JUMPDEST SWAP3 POP POP PUSH1 0x20 PUSH2 0x2BEA DUP6 DUP3 DUP7 ADD PUSH2 0x1F74 JUMP JUMPDEST SWAP2 POP POP SWAP3 POP SWAP3 SWAP1 POP JUMP JUMPDEST PUSH1 0x0 PUSH1 0x20 DUP3 DUP5 SUB SLT ISZERO PUSH2 0x2C06 JUMPI PUSH1 0x0 DUP1 REVERT JUMPDEST PUSH1 0x0 DUP3 ADD CALLDATALOAD PUSH8 0xFFFFFFFFFFFFFFFF DUP2 GT ISZERO PUSH2 0x2C20 JUMPI PUSH1 0x0 DUP1 REVERT JUMPDEST PUSH2 0x2C2C DUP5 DUP3 DUP6 ADD PUSH2 0x1EF6 JUMP JUMPDEST SWAP2 POP POP SWAP3 SWAP2 POP POP JUMP JUMPDEST PUSH1 0x0 PUSH1 0x20 DUP3 DUP5 SUB SLT ISZERO PUSH2 0x2C47 JUMPI PUSH1 0x0 DUP1 REVERT JUMPDEST PUSH1 0x0 DUP3 ADD CALLDATALOAD PUSH8 0xFFFFFFFFFFFFFFFF DUP2 GT ISZERO PUSH2 0x2C61 JUMPI PUSH1 0x0 DUP1 REVERT JUMPDEST PUSH2 0x2C6D DUP5 DUP3 DUP6 ADD PUSH2 0x1F20 JUMP JUMPDEST SWAP2 POP POP SWAP3 SWAP2 POP POP JUMP JUMPDEST PUSH1 0x0 PUSH1 0x20 DUP3 DUP5 SUB SLT ISZERO PUSH2 0x2C88 JUMPI PUSH1 0x0 DUP1 REVERT JUMPDEST PUSH1 0x0 DUP3 ADD CALLDATALOAD PUSH8 0xFFFFFFFFFFFFFFFF DUP2 GT ISZERO PUSH2 0x2CA2 JUMPI PUSH1 0x0 DUP1 REVERT JUMPDEST PUSH2 0x2CAE DUP5 DUP3 DUP6 ADD PUSH2 0x1F4A JUMP JUMPDEST SWAP2 POP POP SWAP3 SWAP2 POP POP JUMP JUMPDEST PUSH1 0x0 PUSH1 0x20 DUP3 DUP5 SUB SLT ISZERO PUSH2 0x2CC9 JUMPI PUSH1 0x0 DUP1 REVERT JUMPDEST PUSH1 0x0 PUSH2 0x2CD7 DUP5 DUP3 DUP6 ADD PUSH2 0x1F74 JUMP JUMPDEST SWAP2 POP POP SWAP3 SWAP2 POP POP JUMP JUMPDEST PUSH1 0x0 PUSH1 0x20 DUP3 DUP5 SUB SLT ISZERO PUSH2 0x2CF2 JUMPI PUSH1 0x0 DUP1 REVERT JUMPDEST PUSH1 0x0 PUSH2 0x2D00 DUP5 DUP3 DUP6 ADD PUSH2 0x1F89 JUMP JUMPDEST SWAP2 POP POP SWAP3 SWAP2 POP POP JUMP JUMPDEST PUSH1 0x0 PUSH1 0x20 DUP3 DUP5 SUB SLT ISZERO PUSH2 0x2D1B JUMPI PUSH1 0x0 DUP1 REVERT JUMPDEST PUSH1 0x0 PUSH2 0x2D29 DUP5 DUP3 DUP6 ADD PUSH2 0x1F9E JUMP JUMPDEST SWAP2 POP POP SWAP3 SWAP2 POP POP JUMP JUMPDEST PUSH1 0x0 PUSH1 0x20 DUP3 DUP5 SUB SLT ISZERO PUSH2 0x2D44 JUMPI PUSH1 0x0 DUP1 REVERT JUMPDEST PUSH1 0x0 DUP3 ADD CALLDATALOAD PUSH8 0xFFFFFFFFFFFFFFFF DUP2 GT ISZERO PUSH2 0x2D5E JUMPI PUSH1 0x0 DUP1 REVERT JUMPDEST PUSH2 0x2D6A DUP5 DUP3 DUP6 ADD PUSH2 0x1FB3 JUMP JUMPDEST SWAP2 POP POP SWAP3 SWAP2 POP POP JUMP JUMPDEST PUSH1 0x0 PUSH1 0x20 DUP3 DUP5 SUB SLT ISZERO PUSH2 0x2D85 JUMPI PUSH1 0x0 DUP1 REVERT JUMPDEST PUSH1 0x0 PUSH2 0x2D93 DUP5 DUP3 DUP6 ADD PUSH2 0x1FDD JUMP JUMPDEST SWAP2 POP POP SWAP3 SWAP2 POP POP JUMP JUMPDEST PUSH1 0x0 PUSH1 0x20 DUP3 DUP5 SUB SLT ISZERO PUSH2 0x2DAE JUMPI PUSH1 0x0 DUP1 REVERT JUMPDEST PUSH1 0x0 PUSH2 0x2DBC DUP5 DUP3 DUP6 ADD PUSH2 0x1FF2 JUMP JUMPDEST SWAP2 POP POP SWAP3 SWAP2 POP POP JUMP JUMPDEST PUSH1 0x0 PUSH1 0x20 DUP3 DUP5 SUB SLT ISZERO PUSH2 0x2DD7 JUMPI PUSH1 0x0 DUP1 REVERT JUMPDEST PUSH1 0x0 PUSH2 0x2DE5 DUP5 DUP3 DUP6 ADD PUSH2 0x2007 JUMP JUMPDEST SWAP2 POP POP SWAP3 SWAP2 POP POP JUMP JUMPDEST PUSH1 0x0 PUSH1 0x20 DUP3 DUP5 SUB SLT ISZERO PUSH2 0x2E00 JUMPI PUSH1 0x0 DUP1 REVERT JUMPDEST PUSH1 0x0 DUP3 ADD CALLDATALOAD PUSH8 0xFFFFFFFFFFFFFFFF DUP2 GT ISZERO PUSH2 0x2E1A JUMPI PUSH1 0x0 DUP1 REVERT JUMPDEST PUSH2 0x2E26 DUP5 DUP3 DUP6 ADD PUSH2 0x201C JUMP JUMPDEST SWAP2 POP POP SWAP3 SWAP2 POP POP JUMP JUMPDEST PUSH1 0x0 DUP1 PUSH1 0x0 DUP1 PUSH1 0x0 PUSH1 0xA0 DUP7 DUP9 SUB SLT ISZERO PUSH2 0x2E47 JUMPI PUSH1 0x0 DUP1 REVERT JUMPDEST PUSH1 0x0 DUP7 ADD CALLDATALOAD PUSH8 0xFFFFFFFFFFFFFFFF DUP2 GT ISZERO PUSH2 0x2E61 JUMPI PUSH1 0x0 DUP1 REVERT JUMPDEST PUSH2 0x2E6D DUP9 DUP3 DUP10 ADD PUSH2 0x201C JUMP JUMPDEST SWAP6 POP POP PUSH1 0x20 PUSH2 0x2E7E DUP9 DUP3 DUP10 ADD PUSH2 0x1DE5 JUMP JUMPDEST SWAP5 POP POP PUSH1 0x40 PUSH2 0x2E8F DUP9 DUP3 DUP10 ADD PUSH2 0x2007 JUMP JUMPDEST SWAP4 POP POP PUSH1 0x60 PUSH2 0x2EA0 DUP9 DUP3 DUP10 ADD PUSH2 0x1DE5 JUMP JUMPDEST SWAP3 POP POP PUSH1 0x80 DUP7 ADD CALLDATALOAD PUSH8 0xFFFFFFFFFFFFFFFF DUP2 GT ISZERO PUSH2 0x2EBD JUMPI PUSH1 0x0 DUP1 REVERT JUMPDEST PUSH2 0x2EC9 DUP9 DUP3 DUP10 ADD PUSH2 0x1FB3 JUMP JUMPDEST SWAP2 POP POP SWAP3 SWAP6 POP SWAP3 SWAP6 SWAP1 SWAP4 POP JUMP JUMPDEST PUSH1 0x0 PUSH1 0x20 DUP3 DUP5 SUB SLT ISZERO PUSH2 0x2EE8 JUMPI PUSH1 0x0 DUP1 REVERT JUMPDEST PUSH1 0x0 DUP3 ADD CALLDATALOAD PUSH8 0xFFFFFFFFFFFFFFFF DUP2 GT ISZERO PUSH2 0x2F02 JUMPI PUSH1 0x0 DUP1 REVERT JUMPDEST PUSH2 0x2F0E DUP5 DUP3 DUP6 ADD PUSH2 0x2046 JUMP JUMPDEST SWAP2 POP POP SWAP3 SWAP2 POP POP JUMP JUMPDEST PUSH1 0x0 PUSH1 0x20 DUP3 DUP5 SUB SLT ISZERO PUSH2 0x2F29 JUMPI PUSH1 0x0 DUP1 REVERT JUMPDEST PUSH1 0x0 DUP3 ADD CALLDATALOAD PUSH8 0xFFFFFFFFFFFFFFFF DUP2 GT ISZERO PUSH2 0x2F43 JUMPI PUSH1 0x0 DUP1 REVERT JUMPDEST PUSH2 0x2F4F DUP5 DUP3 DUP6 ADD PUSH2 0x2332 JUMP JUMPDEST SWAP2 POP POP SWAP3 SWAP2 POP POP JUMP JUMPDEST PUSH1 0x0 PUSH1 0x40 DUP3 DUP5 SUB SLT ISZERO PUSH2 0x2F6A JUMPI PUSH1 0x0 DUP1 REVERT JUMPDEST PUSH1 0x0 PUSH2 0x2F78 DUP5 DUP3 DUP6 ADD PUSH2 0x24C4 JUMP JUMPDEST SWAP2 POP POP SWAP3 SWAP2 POP POP JUMP JUMPDEST PUSH1 0x0 PUSH1 0x20 DUP3 DUP5 SUB SLT ISZERO PUSH2 0x2F93 JUMPI PUSH1 0x0 DUP1 REVERT JUMPDEST PUSH1 0x0 DUP3 ADD CALLDATALOAD PUSH8 0xFFFFFFFFFFFFFFFF DUP2 GT ISZERO PUSH2 0x2FAD JUMPI PUSH1 0x0 DUP1 REVERT JUMPDEST PUSH2 0x2FB9 DUP5 DUP3 DUP6 ADD PUSH2 0x2510 JUMP JUMPDEST SWAP2 POP POP SWAP3 SWAP2 POP POP JUMP JUMPDEST PUSH1 0x0 PUSH1 0x20 DUP3 DUP5 SUB SLT ISZERO PUSH2 0x2FD4 JUMPI PUSH1 0x0 DUP1 REVERT JUMPDEST PUSH1 0x0 DUP3 ADD CALLDATALOAD PUSH8 0xFFFFFFFFFFFFFFFF DUP2 GT ISZERO PUSH2 0x2FEE JUMPI PUSH1 0x0 DUP1 REVERT JUMPDEST PUSH2 0x2FFA DUP5 DUP3 DUP6 ADD PUSH2 0x2574 JUMP JUMPDEST SWAP2 POP POP SWAP3 SWAP2 POP POP JUMP JUMPDEST PUSH1 0x0 PUSH1 0xE0 DUP3 DUP5 SUB SLT ISZERO PUSH2 0x3015 JUMPI PUSH1 0x0 DUP1 REVERT JUMPDEST PUSH1 0x0 PUSH2 0x3023 DUP5 DUP3 DUP6 ADD PUSH2 0x26F3 JUMP JUMPDEST SWAP2 POP POP SWAP3 SWAP2 POP POP JUMP JUMPDEST PUSH1 0x0 PUSH2 0x140 DUP3 DUP5 SUB SLT ISZERO PUSH2 0x303F JUMPI PUSH1 0x0 DUP1 REVERT JUMPDEST PUSH1 0x0 PUSH2 0x304D DUP5 DUP3 DUP6 ADD PUSH2 0x27A3 JUMP JUMPDEST SWAP2 POP POP SWAP3 SWAP2 POP POP JUMP JUMPDEST PUSH1 0x0 PUSH1 0x40 DUP3 DUP5 SUB SLT ISZERO PUSH2 0x3068 JUMPI PUSH1 0x0 DUP1 REVERT JUMPDEST PUSH1 0x0 PUSH2 0x3076 DUP5 DUP3 DUP6 ADD PUSH2 0x286B JUMP JUMPDEST SWAP2 POP POP SWAP3 SWAP2 POP POP JUMP JUMPDEST PUSH1 0x0 PUSH1 0x40 DUP3 DUP5 SUB SLT ISZERO PUSH2 0x3091 JUMPI PUSH1 0x0 DUP1 REVERT JUMPDEST PUSH1 0x0 PUSH2 0x309F DUP5 DUP3 DUP6 ADD PUSH2 0x28B7 JUMP JUMPDEST SWAP2 POP POP SWAP3 SWAP2 POP POP JUMP JUMPDEST PUSH1 0x0 PUSH1 0x20 DUP3 DUP5 SUB SLT ISZERO PUSH2 0x30BA JUMPI PUSH1 0x0 DUP1 REVERT JUMPDEST PUSH1 0x0 DUP3 ADD CALLDATALOAD PUSH8 0xFFFFFFFFFFFFFFFF DUP2 GT ISZERO PUSH2 0x30D4 JUMPI PUSH1 0x0 DUP1 REVERT JUMPDEST PUSH2 0x30E0 DUP5 DUP3 DUP6 ADD PUSH2 0x2903 JUMP JUMPDEST SWAP2 POP POP SWAP3 SWAP2 POP POP JUMP JUMPDEST PUSH1 0x0 PUSH2 0x100 DUP3 DUP5 SUB SLT ISZERO PUSH2 0x30FC JUMPI PUSH1 0x0 DUP1 REVERT JUMPDEST PUSH1 0x0 PUSH2 0x310A DUP5 DUP3 DUP6 ADD PUSH2 0x2967 JUMP JUMPDEST SWAP2 POP POP SWAP3 SWAP2 POP POP JUMP JUMPDEST PUSH1 0x0 PUSH1 0x20 DUP3 DUP5 SUB SLT ISZERO PUSH2 0x3125 JUMPI PUSH1 0x0 DUP1 REVERT JUMPDEST PUSH1 0x0 PUSH2 0x3133 DUP5 DUP3 DUP6 ADD PUSH2 0x29B4 JUMP JUMPDEST SWAP2 POP POP SWAP3 SWAP2 POP POP JUMP JUMPDEST PUSH1 0x0 PUSH1 0x20 DUP3 DUP5 SUB SLT ISZERO PUSH2 0x314E JUMPI PUSH1 0x0 DUP1 REVERT JUMPDEST PUSH1 0x0 PUSH2 0x315C DUP5 DUP3 DUP6 ADD PUSH2 0x29DE JUMP JUMPDEST SWAP2 POP POP SWAP3 SWAP2 POP POP JUMP JUMPDEST PUSH1 0x0 PUSH1 0x20 DUP3 DUP5 SUB SLT ISZERO PUSH2 0x3177 JUMPI PUSH1 0x0 DUP1 REVERT JUMPDEST PUSH1 0x0 PUSH2 0x3185 DUP5 DUP3 DUP6 ADD PUSH2 0x29F3 JUMP JUMPDEST SWAP2 POP POP SWAP3 SWAP2 POP POP JUMP JUMPDEST PUSH1 0x0 PUSH1 0x20 DUP3 DUP5 SUB SLT ISZERO PUSH2 0x31A0 JUMPI PUSH1 0x0 DUP1 REVERT JUMPDEST PUSH1 0x0 PUSH2 0x31AE DUP5 DUP3 DUP6 ADD PUSH2 0x2A08 JUMP JUMPDEST SWAP2 POP POP SWAP3 SWAP2 POP POP JUMP JUMPDEST PUSH1 0x0 PUSH1 0x20 DUP3 DUP5 SUB SLT ISZERO PUSH2 0x31C9 JUMPI PUSH1 0x0 DUP1 REVERT JUMPDEST PUSH1 0x0 PUSH2 0x31D7 DUP5 DUP3 DUP6 ADD PUSH2 0x2A1D JUMP JUMPDEST SWAP2 POP POP SWAP3 SWAP2 POP POP JUMP JUMPDEST PUSH2 0x31F1 PUSH2 0x31EC DUP3 PUSH2 0x3BB5 JUMP JUMPDEST PUSH2 0x3D07 JUMP JUMPDEST DUP3 MSTORE POP POP JUMP JUMPDEST PUSH2 0x3208 PUSH2 0x3203 DUP3 PUSH2 0x3BC7 JUMP JUMPDEST PUSH2 0x3D19 JUMP JUMPDEST DUP3 MSTORE POP POP JUMP JUMPDEST PUSH2 0x321F PUSH2 0x321A DUP3 PUSH2 0x3BD3 JUMP JUMPDEST PUSH2 0x3D2B JUMP JUMPDEST DUP3 MSTORE POP POP JUMP JUMPDEST PUSH2 0x3236 PUSH2 0x3231 DUP3 PUSH2 0x3BFF JUMP JUMPDEST PUSH2 0x3D35 JUMP JUMPDEST DUP3 MSTORE POP POP JUMP JUMPDEST PUSH2 0x324D PUSH2 0x3248 DUP3 PUSH2 0x3C2B JUMP JUMPDEST PUSH2 0x3D3F JUMP JUMPDEST DUP3 MSTORE POP POP JUMP JUMPDEST PUSH1 0x0 PUSH2 0x325E DUP3 PUSH2 0x3B78 JUMP JUMPDEST PUSH2 0x3268 DUP2 DUP6 PUSH2 0x3B8E JUMP JUMPDEST SWAP4 POP PUSH2 0x3278 DUP2 DUP6 PUSH1 0x20 DUP7 ADD PUSH2 0x3CD4 JUMP JUMPDEST PUSH2 0x3281 DUP2 PUSH2 0x3DE5 JUMP JUMPDEST DUP5 ADD SWAP2 POP POP SWAP3 SWAP2 POP POP JUMP JUMPDEST PUSH1 0x0 PUSH2 0x3297 DUP3 PUSH2 0x3B78 JUMP JUMPDEST PUSH2 0x32A1 DUP2 DUP6 PUSH2 0x3B9F JUMP JUMPDEST SWAP4 POP PUSH2 0x32B1 DUP2 DUP6 PUSH1 0x20 DUP7 ADD PUSH2 0x3CD4 JUMP JUMPDEST DUP1 DUP5 ADD SWAP2 POP POP SWAP3 SWAP2 POP POP JUMP JUMPDEST PUSH2 0x32CE PUSH2 0x32C9 DUP3 PUSH2 0x3C35 JUMP JUMPDEST PUSH2 0x3D49 JUMP JUMPDEST DUP3 MSTORE POP POP JUMP JUMPDEST PUSH2 0x32E5 PUSH2 0x32E0 DUP3 PUSH2 0x3C42 JUMP JUMPDEST PUSH2 0x3D5B JUMP JUMPDEST DUP3 MSTORE POP POP JUMP JUMPDEST PUSH2 0x32FC PUSH2 0x32F7 DUP3 PUSH2 0x3C4F JUMP JUMPDEST PUSH2 0x3D6D JUMP JUMPDEST DUP3 MSTORE POP POP JUMP JUMPDEST PUSH1 0x0 PUSH2 0x330D DUP3 PUSH2 0x3B83 JUMP JUMPDEST PUSH2 0x3317 DUP2 DUP6 PUSH2 0x3BAA JUMP JUMPDEST SWAP4 POP PUSH2 0x3327 DUP2 DUP6 PUSH1 0x20 DUP7 ADD PUSH2 0x3CD4 JUMP JUMPDEST DUP1 DUP5 ADD SWAP2 POP POP SWAP3 SWAP2 POP POP JUMP JUMPDEST PUSH2 0x3344 PUSH2 0x333F DUP3 PUSH2 0x3C6A JUMP JUMPDEST PUSH2 0x3D91 JUMP JUMPDEST DUP3 MSTORE POP POP JUMP JUMPDEST PUSH2 0x335B PUSH2 0x3356 DUP3 PUSH2 0x3C5C JUMP JUMPDEST PUSH2 0x3D7F JUMP JUMPDEST DUP3 MSTORE POP POP JUMP JUMPDEST PUSH2 0x3372 PUSH2 0x336D DUP3 PUSH2 0x3C8A JUMP JUMPDEST PUSH2 0x3DA3 JUMP JUMPDEST DUP3 MSTORE POP POP JUMP JUMPDEST PUSH2 0x3389 PUSH2 0x3384 DUP3 PUSH2 0x3C94 JUMP JUMPDEST PUSH2 0x3DAD JUMP JUMPDEST DUP3 MSTORE POP POP JUMP JUMPDEST PUSH2 0x33A0 PUSH2 0x339B DUP3 PUSH2 0x3CA4 JUMP JUMPDEST PUSH2 0x3DBF JUMP JUMPDEST DUP3 MSTORE POP POP JUMP JUMPDEST PUSH2 0x33B7 PUSH2 0x33B2 DUP3 PUSH2 0x3CB8 JUMP JUMPDEST PUSH2 0x3DD1 JUMP JUMPDEST DUP3 MSTORE POP POP JUMP JUMPDEST PUSH1 0x0 PUSH2 0x33C9 DUP3 DUP5 PUSH2 0x31E0 JUMP JUMPDEST PUSH1 0x14 DUP3 ADD SWAP2 POP DUP2 SWAP1 POP SWAP3 SWAP2 POP POP JUMP JUMPDEST PUSH1 0x0 PUSH2 0x33E4 DUP3 DUP5 PUSH2 0x31F7 JUMP JUMPDEST PUSH1 0x1 DUP3 ADD SWAP2 POP DUP2 SWAP1 POP SWAP3 SWAP2 POP POP JUMP JUMPDEST PUSH1 0x0 PUSH2 0x33FF DUP3 DUP5 PUSH2 0x3225 JUMP JUMPDEST PUSH1 0x14 DUP3 ADD SWAP2 POP DUP2 SWAP1 POP SWAP3 SWAP2 POP POP JUMP JUMPDEST PUSH1 0x0 PUSH2 0x341A DUP3 DUP5 PUSH2 0x323C JUMP JUMPDEST PUSH1 0x20 DUP3 ADD SWAP2 POP DUP2 SWAP1 POP SWAP3 SWAP2 POP POP JUMP JUMPDEST PUSH1 0x0 PUSH2 0x3435 DUP3 DUP6 PUSH2 0x328C JUMP JUMPDEST SWAP2 POP PUSH2 0x3441 DUP3 DUP5 PUSH2 0x320E JUMP JUMPDEST PUSH1 0x1 DUP3 ADD SWAP2 POP DUP2 SWAP1 POP SWAP4 SWAP3 POP POP POP JUMP JUMPDEST PUSH1 0x0 PUSH2 0x345D DUP3 DUP6 PUSH2 0x328C JUMP JUMPDEST SWAP2 POP PUSH2 0x3469 DUP3 DUP5 PUSH2 0x328C JUMP JUMPDEST SWAP2 POP DUP2 SWAP1 POP SWAP4 SWAP3 POP POP POP JUMP JUMPDEST PUSH1 0x0 PUSH2 0x3481 DUP3 DUP7 PUSH2 0x328C JUMP JUMPDEST SWAP2 POP PUSH2 0x348D DUP3 DUP6 PUSH2 0x328C JUMP JUMPDEST SWAP2 POP PUSH2 0x3499 DUP3 DUP5 PUSH2 0x328C JUMP JUMPDEST SWAP2 POP DUP2 SWAP1 POP SWAP5 SWAP4 POP POP POP POP JUMP JUMPDEST PUSH1 0x0 PUSH2 0x34B2 DUP3 DUP9 PUSH2 0x328C JUMP JUMPDEST SWAP2 POP PUSH2 0x34BE DUP3 DUP8 PUSH2 0x328C JUMP JUMPDEST SWAP2 POP PUSH2 0x34CA DUP3 DUP7 PUSH2 0x328C JUMP JUMPDEST SWAP2 POP PUSH2 0x34D6 DUP3 DUP6 PUSH2 0x328C JUMP JUMPDEST SWAP2 POP PUSH2 0x34E2 DUP3 DUP5 PUSH2 0x328C JUMP JUMPDEST SWAP2 POP DUP2 SWAP1 POP SWAP7 SWAP6 POP POP POP POP POP POP JUMP JUMPDEST PUSH1 0x0 PUSH2 0x34FD DUP3 DUP11 PUSH2 0x328C JUMP JUMPDEST SWAP2 POP PUSH2 0x3509 DUP3 DUP10 PUSH2 0x328C JUMP JUMPDEST SWAP2 POP PUSH2 0x3515 DUP3 DUP9 PUSH2 0x328C JUMP JUMPDEST SWAP2 POP PUSH2 0x3521 DUP3 DUP8 PUSH2 0x328C JUMP JUMPDEST SWAP2 POP PUSH2 0x352D DUP3 DUP7 PUSH2 0x328C JUMP JUMPDEST SWAP2 POP PUSH2 0x3539 DUP3 DUP6 PUSH2 0x328C JUMP JUMPDEST SWAP2 POP PUSH2 0x3545 DUP3 DUP5 PUSH2 0x328C JUMP JUMPDEST SWAP2 POP DUP2 SWAP1 POP SWAP9 SWAP8 POP POP POP POP POP POP POP POP JUMP JUMPDEST PUSH1 0x0 PUSH2 0x3562 DUP3 DUP12 PUSH2 0x328C JUMP JUMPDEST SWAP2 POP PUSH2 0x356E DUP3 DUP11 PUSH2 0x328C JUMP JUMPDEST SWAP2 POP PUSH2 0x357A DUP3 DUP10 PUSH2 0x328C JUMP JUMPDEST SWAP2 POP PUSH2 0x3586 DUP3 DUP9 PUSH2 0x328C JUMP JUMPDEST SWAP2 POP PUSH2 0x3592 DUP3 DUP8 PUSH2 0x328C JUMP JUMPDEST SWAP2 POP PUSH2 0x359E DUP3 DUP7 PUSH2 0x328C JUMP JUMPDEST SWAP2 POP PUSH2 0x35AA DUP3 DUP6 PUSH2 0x328C JUMP JUMPDEST SWAP2 POP PUSH2 0x35B6 DUP3 DUP5 PUSH2 0x320E JUMP JUMPDEST PUSH1 0x1 DUP3 ADD SWAP2 POP DUP2 SWAP1 POP SWAP10 SWAP9 POP POP POP POP POP POP POP POP POP JUMP JUMPDEST PUSH1 0x0 PUSH2 0x35D8 DUP3 DUP12 PUSH2 0x328C JUMP JUMPDEST SWAP2 POP PUSH2 0x35E4 DUP3 DUP11 PUSH2 0x328C JUMP JUMPDEST SWAP2 POP PUSH2 0x35F0 DUP3 DUP10 PUSH2 0x328C JUMP JUMPDEST SWAP2 POP PUSH2 0x35FC DUP3 DUP9 PUSH2 0x328C JUMP JUMPDEST SWAP2 POP PUSH2 0x3608 DUP3 DUP8 PUSH2 0x328C JUMP JUMPDEST SWAP2 POP PUSH2 0x3614 DUP3 DUP7 PUSH2 0x328C JUMP JUMPDEST SWAP2 POP PUSH2 0x3620 DUP3 DUP6 PUSH2 0x328C JUMP JUMPDEST SWAP2 POP PUSH2 0x362C DUP3 DUP5 PUSH2 0x328C JUMP JUMPDEST SWAP2 POP DUP2 SWAP1 POP SWAP10 SWAP9 POP POP POP POP POP POP POP POP POP JUMP JUMPDEST PUSH1 0x0 PUSH2 0x364A DUP3 DUP13 PUSH2 0x328C JUMP JUMPDEST SWAP2 POP PUSH2 0x3656 DUP3 DUP12 PUSH2 0x328C JUMP JUMPDEST SWAP2 POP PUSH2 0x3662 DUP3 DUP11 PUSH2 0x328C JUMP JUMPDEST SWAP2 POP PUSH2 0x366E DUP3 DUP10 PUSH2 0x328C JUMP JUMPDEST SWAP2 POP PUSH2 0x367A DUP3 DUP9 PUSH2 0x328C JUMP JUMPDEST SWAP2 POP PUSH2 0x3686 DUP3 DUP8 PUSH2 0x328C JUMP JUMPDEST SWAP2 POP PUSH2 0x3692 DUP3 DUP7 PUSH2 0x328C JUMP JUMPDEST SWAP2 POP PUSH2 0x369E DUP3 DUP6 PUSH2 0x328C JUMP JUMPDEST SWAP2 POP PUSH2 0x36AA DUP3 DUP5 PUSH2 0x328C JUMP JUMPDEST SWAP2 POP DUP2 SWAP1 POP SWAP11 SWAP10 POP POP POP POP POP POP POP POP POP POP JUMP JUMPDEST PUSH1 0x0 PUSH2 0x36C9 DUP3 DUP16 PUSH2 0x328C JUMP JUMPDEST SWAP2 POP PUSH2 0x36D5 DUP3 DUP15 PUSH2 0x328C JUMP JUMPDEST SWAP2 POP PUSH2 0x36E1 DUP3 DUP14 PUSH2 0x328C JUMP JUMPDEST SWAP2 POP PUSH2 0x36ED DUP3 DUP13 PUSH2 0x328C JUMP JUMPDEST SWAP2 POP PUSH2 0x36F9 DUP3 DUP12 PUSH2 0x328C JUMP JUMPDEST SWAP2 POP PUSH2 0x3705 DUP3 DUP11 PUSH2 0x328C JUMP JUMPDEST SWAP2 POP PUSH2 0x3711 DUP3 DUP10 PUSH2 0x328C JUMP JUMPDEST SWAP2 POP PUSH2 0x371D DUP3 DUP9 PUSH2 0x328C JUMP JUMPDEST SWAP2 POP PUSH2 0x3729 DUP3 DUP8 PUSH2 0x328C JUMP JUMPDEST SWAP2 POP PUSH2 0x3735 DUP3 DUP7 PUSH2 0x328C JUMP JUMPDEST SWAP2 POP PUSH2 0x3741 DUP3 DUP6 PUSH2 0x328C JUMP JUMPDEST SWAP2 POP PUSH2 0x374D DUP3 DUP5 PUSH2 0x328C JUMP JUMPDEST SWAP2 POP DUP2 SWAP1 POP SWAP14 SWAP13 POP POP POP POP POP POP POP POP POP POP POP POP POP JUMP JUMPDEST PUSH1 0x0 PUSH2 0x376F DUP3 DUP6 PUSH2 0x328C JUMP JUMPDEST SWAP2 POP PUSH2 0x377B DUP3 DUP5 PUSH2 0x3302 JUMP JUMPDEST SWAP2 POP DUP2 SWAP1 POP SWAP4 SWAP3 POP POP POP JUMP JUMPDEST PUSH1 0x0 PUSH2 0x3793 DUP3 DUP5 PUSH2 0x32BD JUMP JUMPDEST PUSH1 0x2 DUP3 ADD SWAP2 POP DUP2 SWAP1 POP SWAP3 SWAP2 POP POP JUMP JUMPDEST PUSH1 0x0 PUSH2 0x37AE DUP3 DUP5 PUSH2 0x32D4 JUMP JUMPDEST PUSH1 0x4 DUP3 ADD SWAP2 POP DUP2 SWAP1 POP SWAP3 SWAP2 POP POP JUMP JUMPDEST PUSH1 0x0 PUSH2 0x37C9 DUP3 DUP5 PUSH2 0x32EB JUMP JUMPDEST PUSH1 0x8 DUP3 ADD SWAP2 POP DUP2 SWAP1 POP SWAP3 SWAP2 POP POP JUMP JUMPDEST PUSH1 0x0 PUSH2 0x37E4 DUP3 DUP5 PUSH2 0x3302 JUMP JUMPDEST SWAP2 POP DUP2 SWAP1 POP SWAP3 SWAP2 POP POP JUMP JUMPDEST PUSH1 0x0 PUSH2 0x37FB DUP3 DUP6 PUSH2 0x3302 JUMP JUMPDEST SWAP2 POP PUSH2 0x3807 DUP3 DUP5 PUSH2 0x328C JUMP JUMPDEST SWAP2 POP DUP2 SWAP1 POP SWAP4 SWAP3 POP POP POP JUMP JUMPDEST PUSH1 0x0 PUSH2 0x381F DUP3 DUP5 PUSH2 0x3333 JUMP JUMPDEST PUSH1 0x14 DUP3 ADD SWAP2 POP DUP2 SWAP1 POP SWAP3 SWAP2 POP POP JUMP JUMPDEST PUSH1 0x0 PUSH2 0x383A DUP3 DUP5 PUSH2 0x334A JUMP JUMPDEST PUSH1 0x2 DUP3 ADD SWAP2 POP DUP2 SWAP1 POP SWAP3 SWAP2 POP POP JUMP JUMPDEST PUSH1 0x0 PUSH2 0x3855 DUP3 DUP5 PUSH2 0x3361 JUMP JUMPDEST PUSH1 0x20 DUP3 ADD SWAP2 POP DUP2 SWAP1 POP SWAP3 SWAP2 POP POP JUMP JUMPDEST PUSH1 0x0 PUSH2 0x3870 DUP3 DUP5 PUSH2 0x3378 JUMP JUMPDEST PUSH1 0x4 DUP3 ADD SWAP2 POP DUP2 SWAP1 POP SWAP3 SWAP2 POP POP JUMP JUMPDEST PUSH1 0x0 PUSH2 0x388B DUP3 DUP5 PUSH2 0x338F JUMP JUMPDEST PUSH1 0x8 DUP3 ADD SWAP2 POP DUP2 SWAP1 POP SWAP3 SWAP2 POP POP JUMP JUMPDEST PUSH1 0x0 PUSH2 0x38A6 DUP3 DUP5 PUSH2 0x33A6 JUMP JUMPDEST PUSH1 0x1 DUP3 ADD SWAP2 POP DUP2 SWAP1 POP SWAP3 SWAP2 POP POP JUMP JUMPDEST PUSH1 0x0 PUSH2 0x38C1 DUP3 DUP6 PUSH2 0x33A6 JUMP JUMPDEST PUSH1 0x1 DUP3 ADD SWAP2 POP PUSH2 0x38D1 DUP3 DUP5 PUSH2 0x334A JUMP JUMPDEST PUSH1 0x2 DUP3 ADD SWAP2 POP DUP2 SWAP1 POP SWAP4 SWAP3 POP POP POP JUMP JUMPDEST PUSH1 0x0 PUSH2 0x38ED DUP3 DUP6 PUSH2 0x33A6 JUMP JUMPDEST PUSH1 0x1 DUP3 ADD SWAP2 POP PUSH2 0x38FD DUP3 DUP5 PUSH2 0x3378 JUMP JUMPDEST PUSH1 0x4 DUP3 ADD SWAP2 POP DUP2 SWAP1 POP SWAP4 SWAP3 POP POP POP JUMP JUMPDEST PUSH1 0x0 PUSH2 0x3919 DUP3 DUP6 PUSH2 0x33A6 JUMP JUMPDEST PUSH1 0x1 DUP3 ADD SWAP2 POP PUSH2 0x3929 DUP3 DUP5 PUSH2 0x338F JUMP JUMPDEST PUSH1 0x8 DUP3 ADD SWAP2 POP DUP2 SWAP1 POP SWAP4 SWAP3 POP POP POP JUMP JUMPDEST PUSH1 0x0 PUSH1 0x20 DUP3 ADD SWAP1 POP DUP2 DUP2 SUB PUSH1 0x0 DUP4 ADD MSTORE PUSH2 0x3953 DUP2 DUP5 PUSH2 0x3253 JUMP JUMPDEST SWAP1 POP SWAP3 SWAP2 POP POP JUMP JUMPDEST PUSH1 0x0 PUSH1 0x40 MLOAD SWAP1 POP DUP2 DUP2 ADD DUP2 DUP2 LT PUSH8 0xFFFFFFFFFFFFFFFF DUP3 GT OR ISZERO PUSH2 0x3982 JUMPI PUSH2 0x3981 PUSH2 0x3DE3 JUMP JUMPDEST JUMPDEST DUP1 PUSH1 0x40 MSTORE POP SWAP2 SWAP1 POP JUMP JUMPDEST PUSH1 0x0 PUSH8 0xFFFFFFFFFFFFFFFF DUP3 GT ISZERO PUSH2 0x39A7 JUMPI PUSH2 0x39A6 PUSH2 0x3DE3 JUMP JUMPDEST JUMPDEST PUSH1 0x20 DUP3 MUL SWAP1 POP PUSH1 0x20 DUP2 ADD SWAP1 POP SWAP2 SWAP1 POP JUMP JUMPDEST PUSH1 0x0 PUSH8 0xFFFFFFFFFFFFFFFF DUP3 GT ISZERO PUSH2 0x39D3 JUMPI PUSH2 0x39D2 PUSH2 0x3DE3 JUMP JUMPDEST JUMPDEST PUSH1 0x20 DUP3 MUL SWAP1 POP PUSH1 0x20 DUP2 ADD SWAP1 POP SWAP2 SWAP1 POP JUMP JUMPDEST PUSH1 0x0 PUSH8 0xFFFFFFFFFFFFFFFF DUP3 GT ISZERO PUSH2 0x39FF JUMPI PUSH2 0x39FE PUSH2 0x3DE3 JUMP JUMPDEST JUMPDEST PUSH1 0x20 DUP3 MUL SWAP1 POP PUSH1 0x20 DUP2 ADD SWAP1 POP SWAP2 SWAP1 POP JUMP JUMPDEST PUSH1 0x0 PUSH8 0xFFFFFFFFFFFFFFFF DUP3 GT ISZERO PUSH2 0x3A2B JUMPI PUSH2 0x3A2A PUSH2 0x3DE3 JUMP JUMPDEST JUMPDEST PUSH1 0x20 DUP3 MUL SWAP1 POP PUSH1 0x20 DUP2 ADD SWAP1 POP SWAP2 SWAP1 POP JUMP JUMPDEST PUSH1 0x0 PUSH8 0xFFFFFFFFFFFFFFFF DUP3 GT ISZERO PUSH2 0x3A57 JUMPI PUSH2 0x3A56 PUSH2 0x3DE3 JUMP JUMPDEST JUMPDEST PUSH1 0x20 DUP3 MUL SWAP1 POP PUSH1 0x20 DUP2 ADD SWAP1 POP SWAP2 SWAP1 POP JUMP JUMPDEST PUSH1 0x0 PUSH8 0xFFFFFFFFFFFFFFFF DUP3 GT ISZERO PUSH2 0x3A83 JUMPI PUSH2 0x3A82 PUSH2 0x3DE3 JUMP JUMPDEST JUMPDEST PUSH1 0x20 DUP3 MUL SWAP1 POP PUSH1 0x20 DUP2 ADD SWAP1 POP SWAP2 SWAP1 POP JUMP JUMPDEST PUSH1 0x0 PUSH8 0xFFFFFFFFFFFFFFFF DUP3 GT ISZERO PUSH2 0x3AAF JUMPI PUSH2 0x3AAE PUSH2 0x3DE3 JUMP JUMPDEST JUMPDEST PUSH1 0x20 DUP3 MUL SWAP1 POP PUSH1 0x20 DUP2 ADD SWAP1 POP SWAP2 SWAP1 POP JUMP JUMPDEST PUSH1 0x0 PUSH8 0xFFFFFFFFFFFFFFFF DUP3 GT ISZERO PUSH2 0x3ADB JUMPI PUSH2 0x3ADA PUSH2 0x3DE3 JUMP JUMPDEST JUMPDEST PUSH1 0x20 DUP3 MUL SWAP1 POP PUSH1 0x20 DUP2 ADD SWAP1 POP SWAP2 SWAP1 POP JUMP JUMPDEST PUSH1 0x0 PUSH8 0xFFFFFFFFFFFFFFFF DUP3 GT ISZERO PUSH2 0x3B07 JUMPI PUSH2 0x3B06 PUSH2 0x3DE3 JUMP JUMPDEST JUMPDEST PUSH1 0x20 DUP3 MUL SWAP1 POP PUSH1 0x20 DUP2 ADD SWAP1 POP SWAP2 SWAP1 POP JUMP JUMPDEST PUSH1 0x0 PUSH8 0xFFFFFFFFFFFFFFFF DUP3 GT ISZERO PUSH2 0x3B33 JUMPI PUSH2 0x3B32 PUSH2 0x3DE3 JUMP JUMPDEST JUMPDEST PUSH1 0x1F NOT PUSH1 0x1F DUP4 ADD AND SWAP1 POP PUSH1 0x20 DUP2 ADD SWAP1 POP SWAP2 SWAP1 POP JUMP JUMPDEST PUSH1 0x0 PUSH8 0xFFFFFFFFFFFFFFFF DUP3 GT ISZERO PUSH2 0x3B63 JUMPI PUSH2 0x3B62 PUSH2 0x3DE3 JUMP JUMPDEST JUMPDEST PUSH1 0x1F NOT PUSH1 0x1F DUP4 ADD AND SWAP1 POP PUSH1 0x20 DUP2 ADD SWAP1 POP SWAP2 SWAP1 POP JUMP JUMPDEST PUSH1 0x0 DUP2 MLOAD SWAP1 POP SWAP2 SWAP1 POP JUMP JUMPDEST PUSH1 0x0 DUP2 MLOAD SWAP1 POP SWAP2 SWAP1 POP JUMP JUMPDEST PUSH1 0x0 DUP3 DUP3 MSTORE PUSH1 0x20 DUP3 ADD SWAP1 POP SWAP3 SWAP2 POP POP JUMP JUMPDEST PUSH1 0x0 DUP2 SWAP1 POP SWAP3 SWAP2 POP POP JUMP JUMPDEST PUSH1 0x0 DUP2 SWAP1 POP SWAP3 SWAP2 POP POP JUMP JUMPDEST PUSH1 0x0 PUSH2 0x3BC0 DUP3 PUSH2 0x3C6A JUMP JUMPDEST SWAP1 POP SWAP2 SWAP1 POP JUMP JUMPDEST PUSH1 0x0 DUP2 ISZERO ISZERO SWAP1 POP SWAP2 SWAP1 POP JUMP JUMPDEST PUSH1 0x0 PUSH32 0xFF00000000000000000000000000000000000000000000000000000000000000 DUP3 AND SWAP1 POP SWAP2 SWAP1 POP JUMP JUMPDEST PUSH1 0x0 PUSH32 0xFFFFFFFFFFFFFFFFFFFFFFFFFFFFFFFFFFFFFFFF000000000000000000000000 DUP3 AND SWAP1 POP SWAP2 SWAP1 POP JUMP JUMPDEST PUSH1 0x0 DUP2 SWAP1 POP SWAP2 SWAP1 POP JUMP JUMPDEST PUSH1 0x0 DUP2 PUSH1 0x1 SIGNEXTEND SWAP1 POP SWAP2 SWAP1 POP JUMP JUMPDEST PUSH1 0x0 DUP2 PUSH1 0x3 SIGNEXTEND SWAP1 POP SWAP2 SWAP1 POP JUMP JUMPDEST PUSH1 0x0 DUP2 PUSH1 0x7 SIGNEXTEND SWAP1 POP SWAP2 SWAP1 POP JUMP JUMPDEST PUSH1 0x0 PUSH2 0xFFFF DUP3 AND SWAP1 POP SWAP2 SWAP1 POP JUMP JUMPDEST PUSH1 0x0 PUSH20 0xFFFFFFFFFFFFFFFFFFFFFFFFFFFFFFFFFFFFFFFF DUP3 AND SWAP1 POP SWAP2 SWAP1 POP JUMP JUMPDEST PUSH1 0x0 DUP2 SWAP1 POP SWAP2 SWAP1 POP JUMP JUMPDEST PUSH1 0x0 PUSH4 0xFFFFFFFF DUP3 AND SWAP1 POP SWAP2 SWAP1 POP JUMP JUMPDEST PUSH1 0x0 PUSH8 0xFFFFFFFFFFFFFFFF DUP3 AND SWAP1 POP SWAP2 SWAP1 POP JUMP JUMPDEST PUSH1 0x0 PUSH1 0xFF DUP3 AND SWAP1 POP SWAP2 SWAP1 POP JUMP JUMPDEST DUP3 DUP2 DUP4 CALLDATACOPY PUSH1 0x0 DUP4 DUP4 ADD MSTORE POP POP POP JUMP JUMPDEST PUSH1 0x0 JUMPDEST DUP4 DUP2 LT ISZERO PUSH2 0x3CF2 JUMPI DUP1 DUP3 ADD MLOAD DUP2 DUP5 ADD MSTORE PUSH1 0x20 DUP2 ADD SWAP1 POP PUSH2 0x3CD7 JUMP JUMPDEST DUP4 DUP2 GT ISZERO PUSH2 0x3D01 JUMPI PUSH1 0x0 DUP5 DUP5 ADD MSTORE JUMPDEST POP POP POP POP JUMP JUMPDEST PUSH1 0x0 PUSH2 0x3D12 DUP3 PUSH2 0x3D91 JUMP JUMPDEST SWAP1 POP SWAP2 SWAP1 POP JUMP JUMPDEST PUSH1 0x0 PUSH2 0x3D24 DUP3 PUSH2 0x3DD1 JUMP JUMPDEST SWAP1 POP SWAP2 SWAP1 POP JUMP JUMPDEST PUSH1 0x0 DUP2 SWAP1 POP SWAP2 SWAP1 POP JUMP JUMPDEST PUSH1 0x0 DUP2 SWAP1 POP SWAP2 SWAP1 POP JUMP JUMPDEST PUSH1 0x0 DUP2 SWAP1 POP SWAP2 SWAP1 POP JUMP JUMPDEST PUSH1 0x0 PUSH2 0x3D54 DUP3 PUSH2 0x3E10 JUMP JUMPDEST SWAP1 POP SWAP2 SWAP1 POP JUMP JUMPDEST PUSH1 0x0 PUSH2 0x3D66 DUP3 PUSH2 0x3E03 JUMP JUMPDEST SWAP1 POP SWAP2 SWAP1 POP JUMP JUMPDEST PUSH1 0x0 PUSH2 0x3D78 DUP3 PUSH2 0x3DF6 JUMP JUMPDEST SWAP1 POP SWAP2 SWAP1 POP JUMP JUMPDEST PUSH1 0x0 PUSH2 0x3D8A DUP3 PUSH2 0x3E10 JUMP JUMPDEST SWAP1 POP SWAP2 SWAP1 POP JUMP JUMPDEST PUSH1 0x0 PUSH2 0x3D9C DUP3 PUSH2 0x3E2A JUMP JUMPDEST SWAP1 POP SWAP2 SWAP1 POP JUMP JUMPDEST PUSH1 0x0 DUP2 SWAP1 POP SWAP2 SWAP1 POP JUMP JUMPDEST PUSH1 0x0 PUSH2 0x3DB8 DUP3 PUSH2 0x3E03 JUMP JUMPDEST SWAP1 POP SWAP2 SWAP1 POP JUMP JUMPDEST PUSH1 0x0 PUSH2 0x3DCA DUP3 PUSH2 0x3DF6 JUMP JUMPDEST SWAP1 POP SWAP2 SWAP1 POP JUMP JUMPDEST PUSH1 0x0 PUSH2 0x3DDC DUP3 PUSH2 0x3E1D JUMP JUMPDEST SWAP1 POP SWAP2 SWAP1 POP JUMP JUMPDEST INVALID JUMPDEST PUSH1 0x0 PUSH1 0x1F NOT PUSH1 0x1F DUP4 ADD AND SWAP1 POP SWAP2 SWAP1 POP JUMP JUMPDEST PUSH1 0x0 DUP2 PUSH1 0xC0 SHL SWAP1 POP SWAP2 SWAP1 POP JUMP JUMPDEST PUSH1 0x0 DUP2 PUSH1 0xE0 SHL SWAP1 POP SWAP2 SWAP1 POP JUMP JUMPDEST PUSH1 0x0 DUP2 PUSH1 0xF0 SHL SWAP1 POP SWAP2 SWAP1 POP JUMP JUMPDEST PUSH1 0x0 DUP2 PUSH1 0xF8 SHL SWAP1 POP SWAP2 SWAP1 POP JUMP JUMPDEST PUSH1 0x0 DUP2 PUSH1 0x60 SHL SWAP1 POP SWAP2 SWAP1 POP JUMP JUMPDEST PUSH2 0x3E40 DUP2 PUSH2 0x3BB5 JUMP JUMPDEST DUP2 EQ PUSH2 0x3E4B JUMPI PUSH1 0x0 DUP1 REVERT JUMPDEST POP JUMP JUMPDEST PUSH2 0x3E57 DUP2 PUSH2 0x3BC7 JUMP JUMPDEST DUP2 EQ PUSH2 0x3E62 JUMPI PUSH1 0x0 DUP1 REVERT JUMPDEST POP JUMP JUMPDEST PUSH2 0x3E6E DUP2 PUSH2 0x3BFF JUMP JUMPDEST DUP2 EQ PUSH2 0x3E79 JUMPI PUSH1 0x0 DUP1 REVERT JUMPDEST POP JUMP JUMPDEST PUSH2 0x3E85 DUP2 PUSH2 0x3C2B JUMP JUMPDEST DUP2 EQ PUSH2 0x3E90 JUMPI PUSH1 0x0 DUP1 REVERT JUMPDEST POP JUMP JUMPDEST PUSH2 0x3E9C DUP2 PUSH2 0x3C35 JUMP JUMPDEST DUP2 EQ PUSH2 0x3EA7 JUMPI PUSH1 0x0 DUP1 REVERT JUMPDEST POP JUMP JUMPDEST PUSH2 0x3EB3 DUP2 PUSH2 0x3C42 JUMP JUMPDEST DUP2 EQ PUSH2 0x3EBE JUMPI PUSH1 0x0 DUP1 REVERT JUMPDEST POP JUMP JUMPDEST PUSH2 0x3ECA DUP2 PUSH2 0x3C4F JUMP JUMPDEST DUP2 EQ PUSH2 0x3ED5 JUMPI PUSH1 0x0 DUP1 REVERT JUMPDEST POP JUMP JUMPDEST PUSH2 0x3EE1 DUP2 PUSH2 0x3C5C JUMP JUMPDEST DUP2 EQ PUSH2 0x3EEC JUMPI PUSH1 0x0 DUP1 REVERT JUMPDEST POP JUMP JUMPDEST PUSH2 0x3EF8 DUP2 PUSH2 0x3C6A JUMP JUMPDEST DUP2 EQ PUSH2 0x3F03 JUMPI PUSH1 0x0 DUP1 REVERT JUMPDEST POP JUMP JUMPDEST PUSH2 0x3F0F DUP2 PUSH2 0x3C8A JUMP JUMPDEST DUP2 EQ PUSH2 0x3F1A JUMPI PUSH1 0x0 DUP1 REVERT JUMPDEST POP JUMP JUMPDEST PUSH2 0x3F26 DUP2 PUSH2 0x3C94 JUMP JUMPDEST DUP2 EQ PUSH2 0x3F31 JUMPI PUSH1 0x0 DUP1 REVERT JUMPDEST POP JUMP JUMPDEST PUSH2 0x3F3D DUP2 PUSH2 0x3CA4 JUMP JUMPDEST DUP2 EQ PUSH2 0x3F48 JUMPI PUSH1 0x0 DUP1 REVERT JUMPDEST POP JUMP JUMPDEST PUSH2 0x3F54 DUP2 PUSH2 0x3CB8 JUMP JUMPDEST DUP2 EQ PUSH2 0x3F5F JUMPI PUSH1 0x0 DUP1 REVERT JUMPDEST POP JUMP INVALID LOG2 PUSH5 0x6970667358 0x22 SLT KECCAK256 SHL 0xE4 PUSH29 0x6AF34A2CA46750FF37499C5CF69BC6052A271EB8B3C5725A45DB285178 PUSH5 0x736F6C6343 STOP SMOD MOD STOP CALLER "
		},
		"gasEstimates": {
			"creation": {
				"codeDepositCost": "3256000",
				"executionCost": "3611",
				"totalCost": "3259611"
			},
			"external": {
				"flipArray(bytes)": "infinite",
				"serializeAddress(address)": "infinite",
				"serializeBool(bool)": "infinite",
				"serializeBytes20(bytes20)": "infinite",
				"serializeBytes32(bytes32)": "infinite",
				"serializeCCoinbaseCurrencyState((uint16,uint16,address,uint160[],int32[],int64[],int64,int64,int64,int64,int64,int64,int64,int64[],int64[],int64[],int64[],int64[],int64[],int32[],int64[]))": "infinite",
				"serializeCCrossChainExport((uint16,uint16,address,uint32,uint32,address,address,uint32,(address,uint64)[],(address,uint64)[],bytes32,(address,uint64)[],(uint8,address),int32))": "infinite",
				"serializeCCurrencyValueMap((address,uint64))": "infinite",
				"serializeCCurrencyValueMaps((address,uint64)[])": "infinite",
				"serializeCNodeData((string,address))": "infinite",
				"serializeCPBaaSNotarization((uint32,uint32,(uint8,address),address,(uint16,uint16,address,uint160[],int32[],int64[],int64,int64,int64,int64,int64,int64,int64,int64[],int64[],int64[],int64[],int64[],int64[],int32[],int64[]),uint32,(bytes32,uint32),bytes32,uint32,(address,(uint16,uint16,address,uint160[],int32[],int64[],int64,int64,int64,int64,int64,int64,int64,int64[],int64[],int64[],int64[],int64[],int64[],int32[],int64[]))[],(int16,int16,address,uint32,bytes32,bytes32,bytes32)[],(string,address)[]))": "infinite",
				"serializeCProofRoot((int16,int16,address,uint32,bytes32,bytes32,bytes32))": "infinite",
				"serializeCProofRootArray((int16,int16,address,uint32,bytes32,bytes32,bytes32)[])": "infinite",
				"serializeCReserveTransfer((uint32,(address,uint64),uint32,address,uint256,(uint8,address),address,address))": "infinite",
				"serializeCReserveTransfers((uint32,(address,uint64),uint32,address,uint256,(uint8,address),address,address)[],bool)": "infinite",
				"serializeCTransferDestination((uint8,address))": "infinite",
				"serializeCUTXORef((bytes32,uint32))": "infinite",
				"serializeCurrencyStates((address,(uint16,uint16,address,uint160[],int32[],int64[],int64,int64,int64,int64,int64,int64,int64,int64[],int64[],int64[],int64[],int64[],int64[],int32[],int64[])))": "infinite",
				"serializeCurrencyStatesArray((address,(uint16,uint16,address,uint160[],int32[],int64[],int64,int64,int64,int64,int64,int64,int64,int64[],int64[],int64[],int64[],int64[],int64[],int32[],int64[]))[])": "infinite",
				"serializeInt16(int16)": "infinite",
				"serializeInt32(int32)": "infinite",
				"serializeInt32Array(int32[])": "infinite",
				"serializeInt64(int64)": "infinite",
				"serializeInt64Array(int64[])": "infinite",
				"serializeNodes((string,address)[])": "infinite",
				"serializeProofRoots((address,(int16,int16,address,uint32,bytes32,bytes32,bytes32)))": "infinite",
				"serializeProofRootsArray((address,(int16,int16,address,uint32,bytes32,bytes32,bytes32))[])": "infinite",
				"serializeString(string)": "infinite",
				"serializeUint16(uint16)": "infinite",
				"serializeUint160Array(uint160[])": "infinite",
				"serializeUint256(uint256)": "infinite",
				"serializeUint32(uint32)": "infinite",
				"serializeUint64(uint64)": "infinite",
				"serializeUint8(uint8)": "infinite",
				"verusHashPrefix(string,address,int64,address,bytes)": "infinite",
				"writeCompactSize(uint256)": "infinite",
				"writeVarInt(uint256)": "infinite"
			}
		},
		"methodIdentifiers": {
			"flipArray(bytes)": "1222d81a",
			"serializeAddress(address)": "241d23b2",
			"serializeBool(bool)": "009c8152",
			"serializeBytes20(bytes20)": "463276c3",
			"serializeBytes32(bytes32)": "b9f7f35a",
			"serializeCCoinbaseCurrencyState((uint16,uint16,address,uint160[],int32[],int64[],int64,int64,int64,int64,int64,int64,int64,int64[],int64[],int64[],int64[],int64[],int64[],int32[],int64[]))": "0a803a86",
			"serializeCCrossChainExport((uint16,uint16,address,uint32,uint32,address,address,uint32,(address,uint64)[],(address,uint64)[],bytes32,(address,uint64)[],(uint8,address),int32))": "343bee60",
			"serializeCCurrencyValueMap((address,uint64))": "cfa84de9",
			"serializeCCurrencyValueMaps((address,uint64)[])": "941bb060",
			"serializeCNodeData((string,address))": "44c789d1",
			"serializeCPBaaSNotarization((uint32,uint32,(uint8,address),address,(uint16,uint16,address,uint160[],int32[],int64[],int64,int64,int64,int64,int64,int64,int64,int64[],int64[],int64[],int64[],int64[],int64[],int32[],int64[]),uint32,(bytes32,uint32),bytes32,uint32,(address,(uint16,uint16,address,uint160[],int32[],int64[],int64,int64,int64,int64,int64,int64,int64,int64[],int64[],int64[],int64[],int64[],int64[],int32[],int64[]))[],(int16,int16,address,uint32,bytes32,bytes32,bytes32)[],(string,address)[]))": "892e2937",
			"serializeCProofRoot((int16,int16,address,uint32,bytes32,bytes32,bytes32))": "18c9bbfd",
			"serializeCProofRootArray((int16,int16,address,uint32,bytes32,bytes32,bytes32)[])": "a412bb29",
			"serializeCReserveTransfer((uint32,(address,uint64),uint32,address,uint256,(uint8,address),address,address))": "8bbfc13e",
			"serializeCReserveTransfers((uint32,(address,uint64),uint32,address,uint256,(uint8,address),address,address)[],bool)": "b04d197a",
			"serializeCTransferDestination((uint8,address))": "df61a937",
			"serializeCUTXORef((bytes32,uint32))": "1c356532",
			"serializeCurrencyStates((address,(uint16,uint16,address,uint160[],int32[],int64[],int64,int64,int64,int64,int64,int64,int64,int64[],int64[],int64[],int64[],int64[],int64[],int32[],int64[])))": "e0671111",
			"serializeCurrencyStatesArray((address,(uint16,uint16,address,uint160[],int32[],int64[],int64,int64,int64,int64,int64,int64,int64,int64[],int64[],int64[],int64[],int64[],int64[],int32[],int64[]))[])": "200f6c2a",
			"serializeInt16(int16)": "46256007",
			"serializeInt32(int32)": "fef5906a",
			"serializeInt32Array(int32[])": "9d487b47",
			"serializeInt64(int64)": "af832f09",
			"serializeInt64Array(int64[])": "f8217295",
			"serializeNodes((string,address)[])": "049e3490",
			"serializeProofRoots((address,(int16,int16,address,uint32,bytes32,bytes32,bytes32)))": "33c45ab9",
			"serializeProofRootsArray((address,(int16,int16,address,uint32,bytes32,bytes32,bytes32))[])": "7b92bd28",
			"serializeString(string)": "68b4ae81",
			"serializeUint16(uint16)": "e4cba547",
			"serializeUint160Array(uint160[])": "19a7c17b",
			"serializeUint256(uint256)": "f20fb830",
			"serializeUint32(uint32)": "cecb3043",
			"serializeUint64(uint64)": "122e5ae7",
			"serializeUint8(uint8)": "6127b4ff",
			"verusHashPrefix(string,address,int64,address,bytes)": "c93e58c8",
			"writeCompactSize(uint256)": "dad935a1",
			"writeVarInt(uint256)": "b3a895f6"
		}
	},
	"abi": [
		{
			"inputs": [
				{
					"internalType": "bytes",
					"name": "incoming",
					"type": "bytes"
				}
			],
			"name": "flipArray",
			"outputs": [
				{
					"internalType": "bytes",
					"name": "",
					"type": "bytes"
				}
			],
			"stateMutability": "pure",
			"type": "function"
		},
		{
			"inputs": [
				{
					"internalType": "address",
					"name": "number",
					"type": "address"
				}
			],
			"name": "serializeAddress",
			"outputs": [
				{
					"internalType": "bytes",
					"name": "",
					"type": "bytes"
				}
			],
			"stateMutability": "pure",
			"type": "function"
		},
		{
			"inputs": [
				{
					"internalType": "bool",
					"name": "anyBool",
					"type": "bool"
				}
			],
			"name": "serializeBool",
			"outputs": [
				{
					"internalType": "bytes",
					"name": "",
					"type": "bytes"
				}
			],
			"stateMutability": "pure",
			"type": "function"
		},
		{
			"inputs": [
				{
					"internalType": "bytes20",
					"name": "anyBytes20",
					"type": "bytes20"
				}
			],
			"name": "serializeBytes20",
			"outputs": [
				{
					"internalType": "bytes",
					"name": "",
					"type": "bytes"
				}
			],
			"stateMutability": "pure",
			"type": "function"
		},
		{
			"inputs": [
				{
					"internalType": "bytes32",
					"name": "anyBytes32",
					"type": "bytes32"
				}
			],
			"name": "serializeBytes32",
			"outputs": [
				{
					"internalType": "bytes",
					"name": "",
					"type": "bytes"
				}
			],
			"stateMutability": "pure",
			"type": "function"
		},
		{
			"inputs": [
				{
					"components": [
						{
							"internalType": "uint16",
							"name": "version",
							"type": "uint16"
						},
						{
							"internalType": "uint16",
							"name": "flags",
							"type": "uint16"
						},
						{
							"internalType": "address",
							"name": "currencyid",
							"type": "address"
						},
						{
							"internalType": "uint160[]",
							"name": "currencies",
							"type": "uint160[]"
						},
						{
							"internalType": "int32[]",
							"name": "weights",
							"type": "int32[]"
						},
						{
							"internalType": "int64[]",
							"name": "reserves",
							"type": "int64[]"
						},
						{
							"internalType": "int64",
							"name": "initialsupply",
							"type": "int64"
						},
						{
							"internalType": "int64",
							"name": "emitted",
							"type": "int64"
						},
						{
							"internalType": "int64",
							"name": "supply",
							"type": "int64"
						},
						{
							"internalType": "int64",
							"name": "primarycurrencyout",
							"type": "int64"
						},
						{
							"internalType": "int64",
							"name": "preconvertedout",
							"type": "int64"
						},
						{
							"internalType": "int64",
							"name": "primarycurrencyfees",
							"type": "int64"
						},
						{
							"internalType": "int64",
							"name": "primarycurrencyconversionfees",
							"type": "int64"
						},
						{
							"internalType": "int64[]",
							"name": "reservein",
							"type": "int64[]"
						},
						{
							"internalType": "int64[]",
							"name": "primarycurrencyin",
							"type": "int64[]"
						},
						{
							"internalType": "int64[]",
							"name": "reserveout",
							"type": "int64[]"
						},
						{
							"internalType": "int64[]",
							"name": "conversionprice",
							"type": "int64[]"
						},
						{
							"internalType": "int64[]",
							"name": "viaconversionprice",
							"type": "int64[]"
						},
						{
							"internalType": "int64[]",
							"name": "fees",
							"type": "int64[]"
						},
						{
							"internalType": "int32[]",
							"name": "priorweights",
							"type": "int32[]"
						},
						{
							"internalType": "int64[]",
							"name": "conversionfees",
							"type": "int64[]"
						}
					],
					"internalType": "struct VerusObjects.CCoinbaseCurrencyState",
					"name": "_cccs",
					"type": "tuple"
				}
			],
			"name": "serializeCCoinbaseCurrencyState",
			"outputs": [
				{
					"internalType": "bytes",
					"name": "",
					"type": "bytes"
				}
			],
			"stateMutability": "pure",
			"type": "function"
		},
		{
			"inputs": [
				{
					"components": [
						{
							"internalType": "uint16",
							"name": "version",
							"type": "uint16"
						},
						{
							"internalType": "uint16",
							"name": "flags",
							"type": "uint16"
						},
						{
							"internalType": "address",
							"name": "sourcesystemid",
							"type": "address"
						},
						{
							"internalType": "uint32",
							"name": "sourceheightstart",
							"type": "uint32"
						},
						{
							"internalType": "uint32",
							"name": "sourceheightend",
							"type": "uint32"
						},
						{
							"internalType": "address",
							"name": "destinationsystemid",
							"type": "address"
						},
						{
							"internalType": "address",
							"name": "destinationcurrencyid",
							"type": "address"
						},
						{
							"internalType": "uint32",
							"name": "numinputs",
							"type": "uint32"
						},
						{
							"components": [
								{
									"internalType": "address",
									"name": "currency",
									"type": "address"
								},
								{
									"internalType": "uint64",
									"name": "amount",
									"type": "uint64"
								}
							],
							"internalType": "struct VerusObjects.CCurrencyValueMap[]",
							"name": "totalamounts",
							"type": "tuple[]"
						},
						{
							"components": [
								{
									"internalType": "address",
									"name": "currency",
									"type": "address"
								},
								{
									"internalType": "uint64",
									"name": "amount",
									"type": "uint64"
								}
							],
							"internalType": "struct VerusObjects.CCurrencyValueMap[]",
							"name": "totalfees",
							"type": "tuple[]"
						},
						{
							"internalType": "bytes32",
							"name": "hashtransfers",
							"type": "bytes32"
						},
						{
							"components": [
								{
									"internalType": "address",
									"name": "currency",
									"type": "address"
								},
								{
									"internalType": "uint64",
									"name": "amount",
									"type": "uint64"
								}
							],
							"internalType": "struct VerusObjects.CCurrencyValueMap[]",
							"name": "totalburned",
							"type": "tuple[]"
						},
						{
							"components": [
								{
									"internalType": "uint8",
									"name": "destinationtype",
									"type": "uint8"
								},
								{
									"internalType": "address",
									"name": "destinationaddress",
									"type": "address"
								}
							],
							"internalType": "struct VerusObjects.CTransferDestination",
							"name": "rewardaddress",
							"type": "tuple"
						},
						{
							"internalType": "int32",
							"name": "firstinput",
							"type": "int32"
						}
					],
					"internalType": "struct VerusObjects.CCrossChainExport",
					"name": "_ccce",
					"type": "tuple"
				}
			],
			"name": "serializeCCrossChainExport",
			"outputs": [
				{
					"internalType": "bytes",
					"name": "",
					"type": "bytes"
				}
			],
			"stateMutability": "pure",
			"type": "function"
		},
		{
			"inputs": [
				{
					"components": [
						{
							"internalType": "address",
							"name": "currency",
							"type": "address"
						},
						{
							"internalType": "uint64",
							"name": "amount",
							"type": "uint64"
						}
					],
					"internalType": "struct VerusObjects.CCurrencyValueMap",
					"name": "_ccvm",
					"type": "tuple"
				}
			],
			"name": "serializeCCurrencyValueMap",
			"outputs": [
				{
					"internalType": "bytes",
					"name": "",
					"type": "bytes"
				}
			],
			"stateMutability": "pure",
			"type": "function"
		},
		{
			"inputs": [
				{
					"components": [
						{
							"internalType": "address",
							"name": "currency",
							"type": "address"
						},
						{
							"internalType": "uint64",
							"name": "amount",
							"type": "uint64"
						}
					],
					"internalType": "struct VerusObjects.CCurrencyValueMap[]",
					"name": "_ccvms",
					"type": "tuple[]"
				}
			],
			"name": "serializeCCurrencyValueMaps",
			"outputs": [
				{
					"internalType": "bytes",
					"name": "",
					"type": "bytes"
				}
			],
			"stateMutability": "pure",
			"type": "function"
		},
		{
			"inputs": [
				{
					"components": [
						{
							"internalType": "string",
							"name": "networkaddress",
							"type": "string"
						},
						{
							"internalType": "address",
							"name": "nodeidentity",
							"type": "address"
						}
					],
					"internalType": "struct VerusObjects.CNodeData",
					"name": "_cnd",
					"type": "tuple"
				}
			],
			"name": "serializeCNodeData",
			"outputs": [
				{
					"internalType": "bytes",
					"name": "",
					"type": "bytes"
				}
			],
			"stateMutability": "pure",
			"type": "function"
		},
		{
			"inputs": [
				{
					"components": [
						{
							"internalType": "uint32",
							"name": "version",
							"type": "uint32"
						},
						{
							"internalType": "uint32",
							"name": "flags",
							"type": "uint32"
						},
						{
							"components": [
								{
									"internalType": "uint8",
									"name": "destinationtype",
									"type": "uint8"
								},
								{
									"internalType": "address",
									"name": "destinationaddress",
									"type": "address"
								}
							],
							"internalType": "struct VerusObjects.CTransferDestination",
							"name": "proposer",
							"type": "tuple"
						},
						{
							"internalType": "address",
							"name": "currencyid",
							"type": "address"
						},
						{
							"components": [
								{
									"internalType": "uint16",
									"name": "version",
									"type": "uint16"
								},
								{
									"internalType": "uint16",
									"name": "flags",
									"type": "uint16"
								},
								{
									"internalType": "address",
									"name": "currencyid",
									"type": "address"
								},
								{
									"internalType": "uint160[]",
									"name": "currencies",
									"type": "uint160[]"
								},
								{
									"internalType": "int32[]",
									"name": "weights",
									"type": "int32[]"
								},
								{
									"internalType": "int64[]",
									"name": "reserves",
									"type": "int64[]"
								},
								{
									"internalType": "int64",
									"name": "initialsupply",
									"type": "int64"
								},
								{
									"internalType": "int64",
									"name": "emitted",
									"type": "int64"
								},
								{
									"internalType": "int64",
									"name": "supply",
									"type": "int64"
								},
								{
									"internalType": "int64",
									"name": "primarycurrencyout",
									"type": "int64"
								},
								{
									"internalType": "int64",
									"name": "preconvertedout",
									"type": "int64"
								},
								{
									"internalType": "int64",
									"name": "primarycurrencyfees",
									"type": "int64"
								},
								{
									"internalType": "int64",
									"name": "primarycurrencyconversionfees",
									"type": "int64"
								},
								{
									"internalType": "int64[]",
									"name": "reservein",
									"type": "int64[]"
								},
								{
									"internalType": "int64[]",
									"name": "primarycurrencyin",
									"type": "int64[]"
								},
								{
									"internalType": "int64[]",
									"name": "reserveout",
									"type": "int64[]"
								},
								{
									"internalType": "int64[]",
									"name": "conversionprice",
									"type": "int64[]"
								},
								{
									"internalType": "int64[]",
									"name": "viaconversionprice",
									"type": "int64[]"
								},
								{
									"internalType": "int64[]",
									"name": "fees",
									"type": "int64[]"
								},
								{
									"internalType": "int32[]",
									"name": "priorweights",
									"type": "int32[]"
								},
								{
									"internalType": "int64[]",
									"name": "conversionfees",
									"type": "int64[]"
								}
							],
							"internalType": "struct VerusObjects.CCoinbaseCurrencyState",
							"name": "currencystate",
							"type": "tuple"
						},
						{
							"internalType": "uint32",
							"name": "notarizationheight",
							"type": "uint32"
						},
						{
							"components": [
								{
									"internalType": "bytes32",
									"name": "hash",
									"type": "bytes32"
								},
								{
									"internalType": "uint32",
									"name": "n",
									"type": "uint32"
								}
							],
							"internalType": "struct VerusObjects.CUTXORef",
							"name": "prevnotarization",
							"type": "tuple"
						},
						{
							"internalType": "bytes32",
							"name": "hashprevnotarization",
							"type": "bytes32"
						},
						{
							"internalType": "uint32",
							"name": "prevheight",
							"type": "uint32"
						},
						{
							"components": [
								{
									"internalType": "address",
									"name": "currencyid",
									"type": "address"
								},
								{
									"components": [
										{
											"internalType": "uint16",
											"name": "version",
											"type": "uint16"
										},
										{
											"internalType": "uint16",
											"name": "flags",
											"type": "uint16"
										},
										{
											"internalType": "address",
											"name": "currencyid",
											"type": "address"
										},
										{
											"internalType": "uint160[]",
											"name": "currencies",
											"type": "uint160[]"
										},
										{
											"internalType": "int32[]",
											"name": "weights",
											"type": "int32[]"
										},
										{
											"internalType": "int64[]",
											"name": "reserves",
											"type": "int64[]"
										},
										{
											"internalType": "int64",
											"name": "initialsupply",
											"type": "int64"
										},
										{
											"internalType": "int64",
											"name": "emitted",
											"type": "int64"
										},
										{
											"internalType": "int64",
											"name": "supply",
											"type": "int64"
										},
										{
											"internalType": "int64",
											"name": "primarycurrencyout",
											"type": "int64"
										},
										{
											"internalType": "int64",
											"name": "preconvertedout",
											"type": "int64"
										},
										{
											"internalType": "int64",
											"name": "primarycurrencyfees",
											"type": "int64"
										},
										{
											"internalType": "int64",
											"name": "primarycurrencyconversionfees",
											"type": "int64"
										},
										{
											"internalType": "int64[]",
											"name": "reservein",
											"type": "int64[]"
										},
										{
											"internalType": "int64[]",
											"name": "primarycurrencyin",
											"type": "int64[]"
										},
										{
											"internalType": "int64[]",
											"name": "reserveout",
											"type": "int64[]"
										},
										{
											"internalType": "int64[]",
											"name": "conversionprice",
											"type": "int64[]"
										},
										{
											"internalType": "int64[]",
											"name": "viaconversionprice",
											"type": "int64[]"
										},
										{
											"internalType": "int64[]",
											"name": "fees",
											"type": "int64[]"
										},
										{
											"internalType": "int32[]",
											"name": "priorweights",
											"type": "int32[]"
										},
										{
											"internalType": "int64[]",
											"name": "conversionfees",
											"type": "int64[]"
										}
									],
									"internalType": "struct VerusObjects.CCoinbaseCurrencyState",
									"name": "currencystate",
									"type": "tuple"
								}
							],
							"internalType": "struct VerusObjects.CurrencyStates[]",
							"name": "currencystates",
							"type": "tuple[]"
						},
						{
							"components": [
								{
									"internalType": "int16",
									"name": "version",
									"type": "int16"
								},
								{
									"internalType": "int16",
									"name": "cprtype",
									"type": "int16"
								},
								{
									"internalType": "address",
									"name": "systemid",
									"type": "address"
								},
								{
									"internalType": "uint32",
									"name": "rootheight",
									"type": "uint32"
								},
								{
									"internalType": "bytes32",
									"name": "stateroot",
									"type": "bytes32"
								},
								{
									"internalType": "bytes32",
									"name": "blockhash",
									"type": "bytes32"
								},
								{
									"internalType": "bytes32",
									"name": "compactpower",
									"type": "bytes32"
								}
							],
							"internalType": "struct VerusObjects.CProofRoot[]",
							"name": "proofroots",
							"type": "tuple[]"
						},
						{
							"components": [
								{
									"internalType": "string",
									"name": "networkaddress",
									"type": "string"
								},
								{
									"internalType": "address",
									"name": "nodeidentity",
									"type": "address"
								}
							],
							"internalType": "struct VerusObjects.CNodeData[]",
							"name": "nodes",
							"type": "tuple[]"
						}
					],
					"internalType": "struct VerusObjects.CPBaaSNotarization",
					"name": "_not",
					"type": "tuple"
				}
			],
			"name": "serializeCPBaaSNotarization",
			"outputs": [
				{
					"internalType": "bytes",
					"name": "",
					"type": "bytes"
				}
			],
			"stateMutability": "pure",
			"type": "function"
		},
		{
			"inputs": [
				{
					"components": [
						{
							"internalType": "int16",
							"name": "version",
							"type": "int16"
						},
						{
							"internalType": "int16",
							"name": "cprtype",
							"type": "int16"
						},
						{
							"internalType": "address",
							"name": "systemid",
							"type": "address"
						},
						{
							"internalType": "uint32",
							"name": "rootheight",
							"type": "uint32"
						},
						{
							"internalType": "bytes32",
							"name": "stateroot",
							"type": "bytes32"
						},
						{
							"internalType": "bytes32",
							"name": "blockhash",
							"type": "bytes32"
						},
						{
							"internalType": "bytes32",
							"name": "compactpower",
							"type": "bytes32"
						}
					],
					"internalType": "struct VerusObjects.CProofRoot",
					"name": "_cpr",
					"type": "tuple"
				}
			],
			"name": "serializeCProofRoot",
			"outputs": [
				{
					"internalType": "bytes",
					"name": "",
					"type": "bytes"
				}
			],
			"stateMutability": "pure",
			"type": "function"
		},
		{
			"inputs": [
				{
					"components": [
						{
							"internalType": "int16",
							"name": "version",
							"type": "int16"
						},
						{
							"internalType": "int16",
							"name": "cprtype",
							"type": "int16"
						},
						{
							"internalType": "address",
							"name": "systemid",
							"type": "address"
						},
						{
							"internalType": "uint32",
							"name": "rootheight",
							"type": "uint32"
						},
						{
							"internalType": "bytes32",
							"name": "stateroot",
							"type": "bytes32"
						},
						{
							"internalType": "bytes32",
							"name": "blockhash",
							"type": "bytes32"
						},
						{
							"internalType": "bytes32",
							"name": "compactpower",
							"type": "bytes32"
						}
					],
					"internalType": "struct VerusObjects.CProofRoot[]",
					"name": "_prsa",
					"type": "tuple[]"
				}
			],
			"name": "serializeCProofRootArray",
			"outputs": [
				{
					"internalType": "bytes",
					"name": "",
					"type": "bytes"
				}
			],
			"stateMutability": "pure",
			"type": "function"
		},
		{
			"inputs": [
				{
					"components": [
						{
							"internalType": "uint32",
							"name": "version",
							"type": "uint32"
						},
						{
							"components": [
								{
									"internalType": "address",
									"name": "currency",
									"type": "address"
								},
								{
									"internalType": "uint64",
									"name": "amount",
									"type": "uint64"
								}
							],
							"internalType": "struct VerusObjects.CCurrencyValueMap",
							"name": "currencyvalue",
							"type": "tuple"
						},
						{
							"internalType": "uint32",
							"name": "flags",
							"type": "uint32"
						},
						{
							"internalType": "address",
							"name": "feecurrencyid",
							"type": "address"
						},
						{
							"internalType": "uint256",
							"name": "fees",
							"type": "uint256"
						},
						{
							"components": [
								{
									"internalType": "uint8",
									"name": "destinationtype",
									"type": "uint8"
								},
								{
									"internalType": "address",
									"name": "destinationaddress",
									"type": "address"
								}
							],
							"internalType": "struct VerusObjects.CTransferDestination",
							"name": "destination",
							"type": "tuple"
						},
						{
							"internalType": "address",
							"name": "destcurrencyid",
							"type": "address"
						},
						{
							"internalType": "address",
							"name": "destsystemid",
							"type": "address"
						}
					],
					"internalType": "struct VerusObjects.CReserveTransfer",
					"name": "ct",
					"type": "tuple"
				}
			],
			"name": "serializeCReserveTransfer",
			"outputs": [
				{
					"internalType": "bytes",
					"name": "",
					"type": "bytes"
				}
			],
			"stateMutability": "pure",
			"type": "function"
		},
		{
			"inputs": [
				{
					"components": [
						{
							"internalType": "uint32",
							"name": "version",
							"type": "uint32"
						},
						{
							"components": [
								{
									"internalType": "address",
									"name": "currency",
									"type": "address"
								},
								{
									"internalType": "uint64",
									"name": "amount",
									"type": "uint64"
								}
							],
							"internalType": "struct VerusObjects.CCurrencyValueMap",
							"name": "currencyvalue",
							"type": "tuple"
						},
						{
							"internalType": "uint32",
							"name": "flags",
							"type": "uint32"
						},
						{
							"internalType": "address",
							"name": "feecurrencyid",
							"type": "address"
						},
						{
							"internalType": "uint256",
							"name": "fees",
							"type": "uint256"
						},
						{
							"components": [
								{
									"internalType": "uint8",
									"name": "destinationtype",
									"type": "uint8"
								},
								{
									"internalType": "address",
									"name": "destinationaddress",
									"type": "address"
								}
							],
							"internalType": "struct VerusObjects.CTransferDestination",
							"name": "destination",
							"type": "tuple"
						},
						{
							"internalType": "address",
							"name": "destcurrencyid",
							"type": "address"
						},
						{
							"internalType": "address",
							"name": "destsystemid",
							"type": "address"
						}
					],
					"internalType": "struct VerusObjects.CReserveTransfer[]",
					"name": "_bts",
					"type": "tuple[]"
				},
				{
					"internalType": "bool",
					"name": "includeSize",
					"type": "bool"
				}
			],
			"name": "serializeCReserveTransfers",
			"outputs": [
				{
					"internalType": "bytes",
					"name": "",
					"type": "bytes"
				}
			],
			"stateMutability": "pure",
			"type": "function"
		},
		{
			"inputs": [
				{
					"components": [
						{
							"internalType": "uint8",
							"name": "destinationtype",
							"type": "uint8"
						},
						{
							"internalType": "address",
							"name": "destinationaddress",
							"type": "address"
						}
					],
					"internalType": "struct VerusObjects.CTransferDestination",
					"name": "ctd",
					"type": "tuple"
				}
			],
			"name": "serializeCTransferDestination",
			"outputs": [
				{
					"internalType": "bytes",
					"name": "",
					"type": "bytes"
				}
			],
			"stateMutability": "pure",
			"type": "function"
		},
		{
			"inputs": [
				{
					"components": [
						{
							"internalType": "bytes32",
							"name": "hash",
							"type": "bytes32"
						},
						{
							"internalType": "uint32",
							"name": "n",
							"type": "uint32"
						}
					],
					"internalType": "struct VerusObjects.CUTXORef",
					"name": "_cutxo",
					"type": "tuple"
				}
			],
			"name": "serializeCUTXORef",
			"outputs": [
				{
					"internalType": "bytes",
					"name": "",
					"type": "bytes"
				}
			],
			"stateMutability": "pure",
			"type": "function"
		},
		{
			"inputs": [
				{
					"components": [
						{
							"internalType": "address",
							"name": "currencyid",
							"type": "address"
						},
						{
							"components": [
								{
									"internalType": "uint16",
									"name": "version",
									"type": "uint16"
								},
								{
									"internalType": "uint16",
									"name": "flags",
									"type": "uint16"
								},
								{
									"internalType": "address",
									"name": "currencyid",
									"type": "address"
								},
								{
									"internalType": "uint160[]",
									"name": "currencies",
									"type": "uint160[]"
								},
								{
									"internalType": "int32[]",
									"name": "weights",
									"type": "int32[]"
								},
								{
									"internalType": "int64[]",
									"name": "reserves",
									"type": "int64[]"
								},
								{
									"internalType": "int64",
									"name": "initialsupply",
									"type": "int64"
								},
								{
									"internalType": "int64",
									"name": "emitted",
									"type": "int64"
								},
								{
									"internalType": "int64",
									"name": "supply",
									"type": "int64"
								},
								{
									"internalType": "int64",
									"name": "primarycurrencyout",
									"type": "int64"
								},
								{
									"internalType": "int64",
									"name": "preconvertedout",
									"type": "int64"
								},
								{
									"internalType": "int64",
									"name": "primarycurrencyfees",
									"type": "int64"
								},
								{
									"internalType": "int64",
									"name": "primarycurrencyconversionfees",
									"type": "int64"
								},
								{
									"internalType": "int64[]",
									"name": "reservein",
									"type": "int64[]"
								},
								{
									"internalType": "int64[]",
									"name": "primarycurrencyin",
									"type": "int64[]"
								},
								{
									"internalType": "int64[]",
									"name": "reserveout",
									"type": "int64[]"
								},
								{
									"internalType": "int64[]",
									"name": "conversionprice",
									"type": "int64[]"
								},
								{
									"internalType": "int64[]",
									"name": "viaconversionprice",
									"type": "int64[]"
								},
								{
									"internalType": "int64[]",
									"name": "fees",
									"type": "int64[]"
								},
								{
									"internalType": "int32[]",
									"name": "priorweights",
									"type": "int32[]"
								},
								{
									"internalType": "int64[]",
									"name": "conversionfees",
									"type": "int64[]"
								}
							],
							"internalType": "struct VerusObjects.CCoinbaseCurrencyState",
							"name": "currencystate",
							"type": "tuple"
						}
					],
					"internalType": "struct VerusObjects.CurrencyStates",
					"name": "_cs",
					"type": "tuple"
				}
			],
			"name": "serializeCurrencyStates",
			"outputs": [
				{
					"internalType": "bytes",
					"name": "",
					"type": "bytes"
				}
			],
			"stateMutability": "pure",
			"type": "function"
		},
		{
			"inputs": [
				{
					"components": [
						{
							"internalType": "address",
							"name": "currencyid",
							"type": "address"
						},
						{
							"components": [
								{
									"internalType": "uint16",
									"name": "version",
									"type": "uint16"
								},
								{
									"internalType": "uint16",
									"name": "flags",
									"type": "uint16"
								},
								{
									"internalType": "address",
									"name": "currencyid",
									"type": "address"
								},
								{
									"internalType": "uint160[]",
									"name": "currencies",
									"type": "uint160[]"
								},
								{
									"internalType": "int32[]",
									"name": "weights",
									"type": "int32[]"
								},
								{
									"internalType": "int64[]",
									"name": "reserves",
									"type": "int64[]"
								},
								{
									"internalType": "int64",
									"name": "initialsupply",
									"type": "int64"
								},
								{
									"internalType": "int64",
									"name": "emitted",
									"type": "int64"
								},
								{
									"internalType": "int64",
									"name": "supply",
									"type": "int64"
								},
								{
									"internalType": "int64",
									"name": "primarycurrencyout",
									"type": "int64"
								},
								{
									"internalType": "int64",
									"name": "preconvertedout",
									"type": "int64"
								},
								{
									"internalType": "int64",
									"name": "primarycurrencyfees",
									"type": "int64"
								},
								{
									"internalType": "int64",
									"name": "primarycurrencyconversionfees",
									"type": "int64"
								},
								{
									"internalType": "int64[]",
									"name": "reservein",
									"type": "int64[]"
								},
								{
									"internalType": "int64[]",
									"name": "primarycurrencyin",
									"type": "int64[]"
								},
								{
									"internalType": "int64[]",
									"name": "reserveout",
									"type": "int64[]"
								},
								{
									"internalType": "int64[]",
									"name": "conversionprice",
									"type": "int64[]"
								},
								{
									"internalType": "int64[]",
									"name": "viaconversionprice",
									"type": "int64[]"
								},
								{
									"internalType": "int64[]",
									"name": "fees",
									"type": "int64[]"
								},
								{
									"internalType": "int32[]",
									"name": "priorweights",
									"type": "int32[]"
								},
								{
									"internalType": "int64[]",
									"name": "conversionfees",
									"type": "int64[]"
								}
							],
							"internalType": "struct VerusObjects.CCoinbaseCurrencyState",
							"name": "currencystate",
							"type": "tuple"
						}
					],
					"internalType": "struct VerusObjects.CurrencyStates[]",
					"name": "_csa",
					"type": "tuple[]"
				}
			],
			"name": "serializeCurrencyStatesArray",
			"outputs": [
				{
					"internalType": "bytes",
					"name": "",
					"type": "bytes"
				}
			],
			"stateMutability": "pure",
			"type": "function"
		},
		{
			"inputs": [
				{
					"internalType": "int16",
					"name": "number",
					"type": "int16"
				}
			],
			"name": "serializeInt16",
			"outputs": [
				{
					"internalType": "bytes",
					"name": "",
					"type": "bytes"
				}
			],
			"stateMutability": "pure",
			"type": "function"
		},
		{
			"inputs": [
				{
					"internalType": "int32",
					"name": "number",
					"type": "int32"
				}
			],
			"name": "serializeInt32",
			"outputs": [
				{
					"internalType": "bytes",
					"name": "",
					"type": "bytes"
				}
			],
			"stateMutability": "pure",
			"type": "function"
		},
		{
			"inputs": [
				{
					"internalType": "int32[]",
					"name": "numbers",
					"type": "int32[]"
				}
			],
			"name": "serializeInt32Array",
			"outputs": [
				{
					"internalType": "bytes",
					"name": "",
					"type": "bytes"
				}
			],
			"stateMutability": "pure",
			"type": "function"
		},
		{
			"inputs": [
				{
					"internalType": "int64",
					"name": "number",
					"type": "int64"
				}
			],
			"name": "serializeInt64",
			"outputs": [
				{
					"internalType": "bytes",
					"name": "",
					"type": "bytes"
				}
			],
			"stateMutability": "pure",
			"type": "function"
		},
		{
			"inputs": [
				{
					"internalType": "int64[]",
					"name": "numbers",
					"type": "int64[]"
				}
			],
			"name": "serializeInt64Array",
			"outputs": [
				{
					"internalType": "bytes",
					"name": "",
					"type": "bytes"
				}
			],
			"stateMutability": "pure",
			"type": "function"
		},
		{
			"inputs": [
				{
					"components": [
						{
							"internalType": "string",
							"name": "networkaddress",
							"type": "string"
						},
						{
							"internalType": "address",
							"name": "nodeidentity",
							"type": "address"
						}
					],
					"internalType": "struct VerusObjects.CNodeData[]",
					"name": "_cnds",
					"type": "tuple[]"
				}
			],
			"name": "serializeNodes",
			"outputs": [
				{
					"internalType": "bytes",
					"name": "",
					"type": "bytes"
				}
			],
			"stateMutability": "pure",
			"type": "function"
		},
		{
			"inputs": [
				{
					"components": [
						{
							"internalType": "address",
							"name": "currencyid",
							"type": "address"
						},
						{
							"components": [
								{
									"internalType": "int16",
									"name": "version",
									"type": "int16"
								},
								{
									"internalType": "int16",
									"name": "cprtype",
									"type": "int16"
								},
								{
									"internalType": "address",
									"name": "systemid",
									"type": "address"
								},
								{
									"internalType": "uint32",
									"name": "rootheight",
									"type": "uint32"
								},
								{
									"internalType": "bytes32",
									"name": "stateroot",
									"type": "bytes32"
								},
								{
									"internalType": "bytes32",
									"name": "blockhash",
									"type": "bytes32"
								},
								{
									"internalType": "bytes32",
									"name": "compactpower",
									"type": "bytes32"
								}
							],
							"internalType": "struct VerusObjects.CProofRoot",
							"name": "proofroot",
							"type": "tuple"
						}
					],
					"internalType": "struct VerusObjects.ProofRoots",
					"name": "_prs",
					"type": "tuple"
				}
			],
			"name": "serializeProofRoots",
			"outputs": [
				{
					"internalType": "bytes",
					"name": "",
					"type": "bytes"
				}
			],
			"stateMutability": "pure",
			"type": "function"
		},
		{
			"inputs": [
				{
					"components": [
						{
							"internalType": "address",
							"name": "currencyid",
							"type": "address"
						},
						{
							"components": [
								{
									"internalType": "int16",
									"name": "version",
									"type": "int16"
								},
								{
									"internalType": "int16",
									"name": "cprtype",
									"type": "int16"
								},
								{
									"internalType": "address",
									"name": "systemid",
									"type": "address"
								},
								{
									"internalType": "uint32",
									"name": "rootheight",
									"type": "uint32"
								},
								{
									"internalType": "bytes32",
									"name": "stateroot",
									"type": "bytes32"
								},
								{
									"internalType": "bytes32",
									"name": "blockhash",
									"type": "bytes32"
								},
								{
									"internalType": "bytes32",
									"name": "compactpower",
									"type": "bytes32"
								}
							],
							"internalType": "struct VerusObjects.CProofRoot",
							"name": "proofroot",
							"type": "tuple"
						}
					],
					"internalType": "struct VerusObjects.ProofRoots[]",
					"name": "_prsa",
					"type": "tuple[]"
				}
			],
			"name": "serializeProofRootsArray",
			"outputs": [
				{
					"internalType": "bytes",
					"name": "",
					"type": "bytes"
				}
			],
			"stateMutability": "pure",
			"type": "function"
		},
		{
			"inputs": [
				{
					"internalType": "string",
					"name": "anyString",
					"type": "string"
				}
			],
			"name": "serializeString",
			"outputs": [
				{
					"internalType": "bytes",
					"name": "",
					"type": "bytes"
				}
			],
			"stateMutability": "pure",
			"type": "function"
		},
		{
			"inputs": [
				{
					"internalType": "uint16",
					"name": "number",
					"type": "uint16"
				}
			],
			"name": "serializeUint16",
			"outputs": [
				{
					"internalType": "bytes",
					"name": "",
					"type": "bytes"
				}
			],
			"stateMutability": "pure",
			"type": "function"
		},
		{
			"inputs": [
				{
					"internalType": "uint160[]",
					"name": "numbers",
					"type": "uint160[]"
				}
			],
			"name": "serializeUint160Array",
			"outputs": [
				{
					"internalType": "bytes",
					"name": "",
					"type": "bytes"
				}
			],
			"stateMutability": "pure",
			"type": "function"
		},
		{
			"inputs": [
				{
					"internalType": "uint256",
					"name": "number",
					"type": "uint256"
				}
			],
			"name": "serializeUint256",
			"outputs": [
				{
					"internalType": "bytes",
					"name": "",
					"type": "bytes"
				}
			],
			"stateMutability": "pure",
			"type": "function"
		},
		{
			"inputs": [
				{
					"internalType": "uint32",
					"name": "number",
					"type": "uint32"
				}
			],
			"name": "serializeUint32",
			"outputs": [
				{
					"internalType": "bytes",
					"name": "",
					"type": "bytes"
				}
			],
			"stateMutability": "pure",
			"type": "function"
		},
		{
			"inputs": [
				{
					"internalType": "uint64",
					"name": "number",
					"type": "uint64"
				}
			],
			"name": "serializeUint64",
			"outputs": [
				{
					"internalType": "bytes",
					"name": "",
					"type": "bytes"
				}
			],
			"stateMutability": "pure",
			"type": "function"
		},
		{
			"inputs": [
				{
					"internalType": "uint8",
					"name": "number",
					"type": "uint8"
				}
			],
			"name": "serializeUint8",
			"outputs": [
				{
					"internalType": "bytes",
					"name": "",
					"type": "bytes"
				}
			],
			"stateMutability": "pure",
			"type": "function"
		},
		{
			"inputs": [
				{
					"internalType": "string",
					"name": "prefix",
					"type": "string"
				},
				{
					"internalType": "address",
					"name": "systemID",
					"type": "address"
				},
				{
					"internalType": "int64",
					"name": "blockHeight",
					"type": "int64"
				},
				{
					"internalType": "address",
					"name": "signingID",
					"type": "address"
				},
				{
					"internalType": "bytes",
					"name": "messageToHash",
					"type": "bytes"
				}
			],
			"name": "verusHashPrefix",
			"outputs": [
				{
					"internalType": "bytes",
					"name": "",
					"type": "bytes"
				}
			],
			"stateMutability": "pure",
			"type": "function"
		},
		{
			"inputs": [
				{
					"internalType": "uint256",
					"name": "newNumber",
					"type": "uint256"
				}
			],
			"name": "writeCompactSize",
			"outputs": [
				{
					"internalType": "bytes",
					"name": "",
					"type": "bytes"
				}
			],
			"stateMutability": "pure",
			"type": "function"
		},
		{
			"inputs": [
				{
					"internalType": "uint256",
					"name": "incoming",
					"type": "uint256"
				}
			],
			"name": "writeVarInt",
			"outputs": [
				{
					"internalType": "bytes",
					"name": "",
					"type": "bytes"
				}
			],
			"stateMutability": "pure",
			"type": "function"
		}
	]
}