{
	"data": {
		"bytecode": {
			"linkReferences": {},
			"object": "608060405234801561001057600080fd5b506138ba806100206000396000f3fe608060405234801561001057600080fd5b50600436106102055760003560e01c80639d487b471161011a578063cecb3043116100ad578063eb7d70eb1161007c578063eb7d70eb1461077a578063f20fb830146107aa578063f2fc6d61146107da578063f82172951461080a578063fef5906a1461083a57610205565b8063cecb3043146106ba578063d40274b2146106ea578063d75a295b1461071a578063e4cba5471461074a57610205565b8063bd5ea273116100e9578063bd5ea273146105fa578063c28c58591461062a578063c41c134d1461065a578063c6f4c2691461068a57610205565b80639d487b471461053a578063af832f091461056a578063b9edc7951461059a578063baa42698146105ca57610205565b806325c130c91161019d578063537b91f51161016c578063537b91f51461044a57806357759e151461047a5780636087c21d146104aa5780636127b4ff146104da57806368b4ae811461050a57610205565b806325c130c91461038a57806346256007146103ba578063463276c3146103ea57806348352c071461041a57610205565b806319a7c17b116101d957806319a7c17b146102ca57806320907b41146102fa578063241d23b21461032a578063253fe4ee1461035a57610205565b80629c81521461020a5780631222d81a1461023a578063122e5ae71461026a57806313f9d46d1461029a575b600080fd5b610224600480360381019061021f91906127fe565b61086a565b60405161023191906132e8565b60405180910390f35b610254600480360381019061024f9190612850565b610893565b60405161026191906132e8565b60405180910390f35b610284600480360381019061027f9190612cd5565b610964565b60405161029191906132e8565b60405180910390f35b6102b460048036038101906102af9190612a9f565b61099b565b6040516102c191906132e8565b60405180910390f35b6102e460048036038101906102df91906127bd565b6109d6565b6040516102f191906132e8565b60405180910390f35b610314600480360381019061030f9190612b74565b610a66565b60405161032191906132e8565b60405180910390f35b610344600480360381019061033f91906125cd565b610aa9565b60405161035191906132e8565b60405180910390f35b610374600480360381019061036f9190612c07565b610ada565b60405161038191906132e8565b60405180910390f35b6103a4600480360381019061039f919061294d565b610b1d565b6040516103b191906132e8565b60405180910390f35b6103d460048036038101906103cf9190612891565b610b72565b6040516103e191906132e8565b60405180910390f35b61040460048036038101906103ff9190612827565b610ba9565b60405161041191906132e8565b60405180910390f35b610434600480360381019061042f91906126fa565b610bd2565b60405161044191906132e8565b60405180910390f35b610464600480360381019061045f9190612b21565b610c43565b60405161047191906132e8565b60405180910390f35b610494600480360381019061048f9190612c5a565b610ccc565b6040516104a191906132e8565b60405180910390f35b6104c460048036038101906104bf91906129f4565b610d03565b6040516104d191906132e8565b60405180910390f35b6104f460048036038101906104ef9190612cfe565b610e7c565b60405161050191906132e8565b60405180910390f35b610524600480360381019061051f919061290c565b610eb3565b60405161053191906132e8565b60405180910390f35b610554600480360381019061054f91906125f6565b610edc565b60405161056191906132e8565b60405180910390f35b610584600480360381019061057f91906128e3565b610f45565b60405161059191906132e8565b60405180910390f35b6105b460048036038101906105af9190612b9d565b610f7c565b6040516105c191906132e8565b60405180910390f35b6105e460048036038101906105df9190612b4a565b610fbf565b6040516105f191906132e8565b60405180910390f35b610614600480360381019061060f9190612a35565b611048565b60405161062191906132e8565b60405180910390f35b610644600480360381019061063f919061273b565b611183565b60405161065191906132e8565b60405180910390f35b610674600480360381019061066f9190612a76565b6111f4565b60405161068191906132e8565b60405180910390f35b6106a4600480360381019061069f9190612678565b611237565b6040516106b191906132e8565b60405180910390f35b6106d460048036038101906106cf9190612cac565b6112a8565b6040516106e191906132e8565b60405180910390f35b61070460048036038101906106ff919061277c565b6112df565b60405161071191906132e8565b60405180910390f35b610734600480360381019061072f91906126b9565b611350565b60405161074191906132e8565b60405180910390f35b610764600480360381019061075f9190612c31565b6113c1565b60405161077191906132e8565b60405180910390f35b610794600480360381019061078f9190612bc6565b6113f8565b6040516107a191906132e8565b60405180910390f35b6107c460048036038101906107bf9190612c83565b61143b565b6040516107d191906132e8565b60405180910390f35b6107f460048036038101906107ef9190612ae0565b611472565b60405161080191906132e8565b60405180910390f35b610824600480360381019061081f9190612637565b611536565b60405161083191906132e8565b60405180910390f35b610854600480360381019061084f91906128ba565b6115c6565b60405161086191906132e8565b60405180910390f35b60608160405160200161087d9190612ef1565b6040516020818303038152906040529050919050565b606060008251905060008167ffffffffffffffff811180156108b457600080fd5b506040519080825280601f01601f1916602001820160405280156108e75781602001600182028036833780820191505090505b50905060005b8281101561095957846001828503038151811061090657fe5b602001015160f81c60f81b82828151811061091d57fe5b60200101907effffffffffffffffffffffffffffffffffffffffffffffffffffffffffffff1916908160001a90535080806001019150506108ed565b819350505050919050565b606060008260405160200161097991906132b2565b604051602081830303815290604052905061099381610893565b915050919050565b606081600001516109af8360200151610ccc565b6040516020016109c0929190613222565b6040516020818303038152906040529050919050565b6060806109e3835161143b565b905060005b8351811015610a5c5781610a2d858381518110610a0157fe5b6020026020010151604051602001610a199190613246565b604051602081830303815290604052610893565b604051602001610a3e929190612f27565b604051602081830303815290604052915080806001019150506109e8565b5080915050919050565b6060610a7582600001516112a8565b610a828360200151610ccc565b604051602001610a93929190612f27565b6040516020818303038152906040529050919050565b6060610ad382604051602001610abf9190612ed6565b604051602081830303815290604052610893565b9050919050565b6060610ae98260000151610ccc565b610af68360200151610c43565b604051602001610b07929190612f27565b6040516020818303038152906040529050919050565b6060610b2886610eb3565b610b3186610ccc565b610b3a86610f45565b610b4386610ccc565b85604051602001610b58959493929190612f4b565b604051602081830303815290604052905095945050505050565b6060600082604051602001610b8791906131ba565b6040516020818303038152906040529050610ba181610893565b915050919050565b606081604051602001610bbc9190612f0c565b6040516020818303038152906040529050919050565b606080610bdf835161143b565b905060005b8351811015610c395781610c0a858381518110610bfd57fe5b6020026020010151610fbf565b604051602001610c1b929190612f27565b60405160208183030381529060405291508080600101915050610be4565b5080915050919050565b6060610c528260000151610b72565b610c5f8360200151610b72565b610c6c8460400151610ccc565b610c7985606001516112a8565b610c86866080015161143b565b610c938760a0015161143b565b610ca08860c0015161143b565b604051602001610cb69796959493929190612fee565b6040516020818303038152906040529050919050565b6060600082604051602001610ce19190613246565b6040516020818303038152906040529050610cfb81610893565b915050919050565b60606000610d1483600001516113c1565b610d2184602001516113c1565b610d2e8560400151610ccc565b610d3b86606001516109d6565b610d488760800151610edc565b610d558860a00151611536565b604051602001610d6a96959493929190612f96565b60405160208183030381529060405290506000610d8b846101200151610f45565b610d99856101400151610f45565b610da7866101600151610f45565b610db5876101800151610f45565b610dc3886101a00151611536565b610dd1896101c00151611536565b610ddf8a6101e00151611536565b610ded8b6102000151611536565b610dfb8c6102200151611536565b610e098d6102400151611536565b610e178e6102600151611536565b610e258f6102800151610edc565b604051602001610e409c9b9a999897969594939291906130ec565b60405160208183030381529060405290508181604051602001610e64929190612f27565b60405160208183030381529060405292505050919050565b6060600082604051602001610e9191906132cd565b6040516020818303038152906040529050610eab81610893565b915050919050565b606081604051602001610ec6919061320b565b6040516020818303038152906040529050919050565b606080610ee9835161143b565b905060005b8351811015610f3b5781848281518110610f0457fe5b6020026020010151604051602001610f1d929190613192565b60405160208183030381529060405291508080600101915050610eee565b5080915050919050565b6060600082604051602001610f5a91906131f0565b6040516020818303038152906040529050610f7481610893565b915050919050565b6060610f8b826000015161143b565b610f9883602001516112a8565b604051602001610fa9929190612f27565b6040516020818303038152906040529050919050565b6060610fce82600001516112a8565b610fdb83602001516111f4565b610fe884604001516112a8565b610ff58560600151610ccc565b611002866080015161143b565b61100f8760c00151610ccc565b61101c8860a00151610a66565b6040516020016110329796959493929190612fee565b6040516020818303038152906040529050919050565b6060600061105983600001516112a8565b61106684602001516112a8565b6110738560400151610ccc565b61108086606001516112a8565b61108d87608001516112a8565b61109a8860a00151610ccc565b6110a78960c00151610ccc565b6040516020016110bd9796959493929190612fee565b604051602081830303815290604052905060006110dd8460e001516115c6565b6110eb856101000151611237565b6110f9866101200151611237565b61110787610140015161143b565b611115886101600151611237565b611123896101800151610aa9565b6111318a6101a001516115c6565b6040516020016111479796959493929190612fee565b6040516020818303038152906040529050818160405160200161116b929190612f27565b60405160208183030381529060405292505050919050565b606080611190835161143b565b905060005b83518110156111ea57816111bb8583815181106111ae57fe5b60200260200101516113f8565b6040516020016111cc929190612f27565b60405160208183030381529060405291508080600101915050611195565b5080915050919050565b60606112038260000151610ccc565b6112108360200151610964565b604051602001611221929190612f27565b6040516020818303038152906040529050919050565b606080611244835161143b565b905060005b835181101561129e578161126f85838151811061126257fe5b60200260200101516111f4565b604051602001611280929190612f27565b60405160208183030381529060405291508080600101915050611249565b5080915050919050565b60606000826040516020016112bd9190613297565b60405160208183030381529060405290506112d781610893565b915050919050565b6060806112ec835161143b565b905060005b8351811015611346578161131785838151811061130a57fe5b6020026020010151610ada565b604051602001611328929190612f27565b604051602081830303815290604052915080806001019150506112f1565b5080915050919050565b60608061135d835161143b565b905060005b83518110156113b7578161138885838151811061137b57fe5b602002602001015161099b565b604051602001611399929190612f27565b60405160208183030381529060405291508080600101915050611362565b5080915050919050565b60606000826040516020016113d69190613261565b60405160208183030381529060405290506113f081610893565b915050919050565b60606114078260000151610ccc565b6114148360200151610d03565b604051602001611425929190612f27565b6040516020818303038152906040529050919050565b6060600082604051602001611450919061327c565b604051602081830303815290604052905061146a81610893565b915050919050565b606061148182600001516112a8565b61148e8360200151610a66565b61149b84604001516112a8565b6114a88560600151610d03565b6114b5866080015161143b565b6114c28760a00151610f45565b6114cf8860c0015161143b565b6114dc8960e00151610964565b6114ea8a6101000151611183565b6114f88b61012001516112df565b6115068c6101400151611350565b6040516020016115209b9a99989796959493929190613053565b6040516020818303038152906040529050919050565b606080611543835161143b565b905060005b83518110156115bc578161158d85838151811061156157fe5b602002602001015160405160200161157991906131f0565b604051602081830303815290604052610893565b60405160200161159e929190612f27565b60405160208183030381529060405291508080600101915050611548565b5080915050919050565b60606000826040516020016115db91906131d5565b60405160208183030381529060405290506115f581610893565b915050919050565b600061161061160b8461333b565b61330a565b9050808382526020820190508285602086028201111561162f57600080fd5b60005b8581101561165f57816116458882611b8d565b845260208401935060208301925050600181019050611632565b5050509392505050565b600061167c61167784613367565b61330a565b9050808382526020820190508285602086028201111561169b57600080fd5b60005b858110156116cb57816116b18882611ba2565b84526020840193506020830192505060018101905061169e565b5050509392505050565b60006116e86116e384613393565b61330a565b9050808382526020820190508285604086028201111561170757600080fd5b60005b85811015611737578161171d888261205f565b84526020840193506040830192505060018101905061170a565b5050509392505050565b600061175461174f846133bf565b61330a565b9050808382526020820190508260005b85811015611794578135850161177a88826120ab565b845260208401935060208301925050600181019050611764565b5050509392505050565b60006117b16117ac846133eb565b61330a565b90508083825260208201905082856101608602820111156117d157600080fd5b60005b8581101561180257816117e78882612328565b845260208401935061016083019250506001810190506117d4565b5050509392505050565b600061181f61181a84613417565b61330a565b9050808382526020820190508260005b8581101561185f5781358501611845888261249e565b84526020840193506020830192505060018101905061182f565b5050509392505050565b600061187c61187784613443565b61330a565b905080838252602082019050828561010086028201111561189c57600080fd5b60005b858110156118cd57816118b28882612502565b8452602084019350610100830192505060018101905061189f565b5050509392505050565b60006118ea6118e58461346f565b61330a565b9050808382526020820190508285602086028201111561190957600080fd5b60005b85811015611939578161191f8882612564565b84526020840193506020830192505060018101905061190c565b5050509392505050565b60006119566119518461349b565b61330a565b90508281526020810184848401111561196e57600080fd5b611979848285613612565b509392505050565b600061199461198f846134cb565b61330a565b9050828152602081018484840111156119ac57600080fd5b6119b7848285613612565b509392505050565b6000813590506119ce81613770565b92915050565b600082601f8301126119e557600080fd5b81356119f58482602086016115fd565b91505092915050565b600082601f830112611a0f57600080fd5b8135611a1f848260208601611669565b91505092915050565b600082601f830112611a3957600080fd5b8135611a498482602086016116d5565b91505092915050565b600082601f830112611a6357600080fd5b8135611a73848260208601611741565b91505092915050565b600082601f830112611a8d57600080fd5b8135611a9d84826020860161179e565b91505092915050565b600082601f830112611ab757600080fd5b8135611ac784826020860161180c565b91505092915050565b600082601f830112611ae157600080fd5b8135611af1848260208601611869565b91505092915050565b600082601f830112611b0b57600080fd5b8135611b1b8482602086016118d7565b91505092915050565b600081359050611b3381613787565b92915050565b600081359050611b488161379e565b92915050565b600082601f830112611b5f57600080fd5b8135611b6f848260208601611943565b91505092915050565b600081359050611b87816137b5565b92915050565b600081359050611b9c816137cc565b92915050565b600081359050611bb1816137e3565b92915050565b600082601f830112611bc857600080fd5b8135611bd8848260208601611981565b91505092915050565b60006102a08284031215611bf457600080fd5b611bff6102a061330a565b90506000611c0f8482850161254f565b6000830152506020611c238482850161254f565b6020830152506040611c3784828501612564565b604083015250606082013567ffffffffffffffff811115611c5757600080fd5b611c6384828501611afa565b606083015250608082013567ffffffffffffffff811115611c8357600080fd5b611c8f848285016119d4565b60808301525060a082013567ffffffffffffffff811115611caf57600080fd5b611cbb848285016119fe565b60a08301525060c0611ccf84828501611ba2565b60c08301525060e0611ce384828501611ba2565b60e083015250610100611cf884828501611ba2565b61010083015250610120611d0e84828501611ba2565b61012083015250610140611d2484828501611ba2565b61014083015250610160611d3a84828501611ba2565b61016083015250610180611d5084828501611ba2565b610180830152506101a082013567ffffffffffffffff811115611d7257600080fd5b611d7e848285016119fe565b6101a0830152506101c082013567ffffffffffffffff811115611da057600080fd5b611dac848285016119fe565b6101c0830152506101e082013567ffffffffffffffff811115611dce57600080fd5b611dda848285016119fe565b6101e08301525061020082013567ffffffffffffffff811115611dfc57600080fd5b611e08848285016119fe565b6102008301525061022082013567ffffffffffffffff811115611e2a57600080fd5b611e36848285016119fe565b6102208301525061024082013567ffffffffffffffff811115611e5857600080fd5b611e64848285016119fe565b6102408301525061026082013567ffffffffffffffff811115611e8657600080fd5b611e92848285016119fe565b6102608301525061028082013567ffffffffffffffff811115611eb457600080fd5b611ec0848285016119d4565b6102808301525092915050565b60006101c08284031215611ee057600080fd5b611eeb6101c061330a565b90506000611efb8482850161258e565b6000830152506020611f0f8482850161258e565b6020830152506040611f2384828501612564565b6040830152506060611f378482850161258e565b6060830152506080611f4b8482850161258e565b60808301525060a0611f5f84828501612564565b60a08301525060c0611f7384828501612564565b60c08301525060e0611f8784828501611b8d565b60e08301525061010082013567ffffffffffffffff811115611fa857600080fd5b611fb484828501611a28565b6101008301525061012082013567ffffffffffffffff811115611fd657600080fd5b611fe284828501611a28565b61012083015250610140611ff884828501612579565b6101408301525061016082013567ffffffffffffffff81111561201a57600080fd5b61202684828501611a28565b6101608301525061018061203c848285016119bf565b610180830152506101a061205284828501611b8d565b6101a08301525092915050565b60006040828403121561207157600080fd5b61207b604061330a565b9050600061208b84828501612564565b600083015250602061209f848285016125a3565b60208301525092915050565b6000604082840312156120bd57600080fd5b6120c7604061330a565b9050600082013567ffffffffffffffff8111156120e357600080fd5b6120ef84828501611bb7565b600083015250602061210384828501612564565b60208301525092915050565b6000610180828403121561212257600080fd5b61212d61016061330a565b9050600061213d8482850161258e565b600083015250602061215184828501612406565b60208301525060606121658482850161258e565b604083015250608082013567ffffffffffffffff81111561218557600080fd5b61219184828501611be1565b60608301525060a06121a584828501612579565b60808301525060c06121b984828501611ba2565b60a08301525060e06121cd84828501612579565b60c0830152506101006121e2848285016125a3565b60e08301525061012082013567ffffffffffffffff81111561220357600080fd5b61220f84828501611aa6565b6101008301525061014082013567ffffffffffffffff81111561223157600080fd5b61223d84828501611ad0565b6101208301525061016082013567ffffffffffffffff81111561225f57600080fd5b61226b84828501611a52565b6101408301525092915050565b600060e0828403121561228a57600080fd5b61229460e061330a565b905060006122a484828501611b78565b60008301525060206122b884828501611b78565b60208301525060406122cc84828501612564565b60408301525060606122e08482850161258e565b60608301525060806122f484828501612579565b60808301525060a061230884828501612579565b60a08301525060c061231c84828501612579565b60c08301525092915050565b6000610160828403121561233b57600080fd5b61234661012061330a565b905060006123568482850161258e565b600083015250602061236a8482850161205f565b602083015250606061237e8482850161258e565b604083015250608061239284828501612564565b60608301525060a06123a684828501612579565b60808301525060c06123ba84828501612406565b60a0830152506101006123cf84828501612564565b60c0830152506101206123e484828501612564565b60e0830152506101406123f984828501612564565b6101008301525092915050565b60006040828403121561241857600080fd5b612422604061330a565b905060006124328482850161258e565b600083015250602061244684828501612564565b60208301525092915050565b60006040828403121561246457600080fd5b61246e604061330a565b9050600061247e84828501612579565b60008301525060206124928482850161258e565b60208301525092915050565b6000604082840312156124b057600080fd5b6124ba604061330a565b905060006124ca84828501612564565b600083015250602082013567ffffffffffffffff8111156124ea57600080fd5b6124f684828501611be1565b60208301525092915050565b6000610100828403121561251557600080fd5b61251f604061330a565b9050600061252f84828501612564565b600083015250602061254384828501612278565b60208301525092915050565b60008135905061255e816137fa565b92915050565b60008135905061257381613811565b92915050565b60008135905061258881613828565b92915050565b60008135905061259d8161383f565b92915050565b6000813590506125b281613856565b92915050565b6000813590506125c78161386d565b92915050565b6000602082840312156125df57600080fd5b60006125ed848285016119bf565b91505092915050565b60006020828403121561260857600080fd5b600082013567ffffffffffffffff81111561262257600080fd5b61262e848285016119d4565b91505092915050565b60006020828403121561264957600080fd5b600082013567ffffffffffffffff81111561266357600080fd5b61266f848285016119fe565b91505092915050565b60006020828403121561268a57600080fd5b600082013567ffffffffffffffff8111156126a457600080fd5b6126b084828501611a28565b91505092915050565b6000602082840312156126cb57600080fd5b600082013567ffffffffffffffff8111156126e557600080fd5b6126f184828501611a52565b91505092915050565b60006020828403121561270c57600080fd5b600082013567ffffffffffffffff81111561272657600080fd5b61273284828501611a7c565b91505092915050565b60006020828403121561274d57600080fd5b600082013567ffffffffffffffff81111561276757600080fd5b61277384828501611aa6565b91505092915050565b60006020828403121561278e57600080fd5b600082013567ffffffffffffffff8111156127a857600080fd5b6127b484828501611ad0565b91505092915050565b6000602082840312156127cf57600080fd5b600082013567ffffffffffffffff8111156127e957600080fd5b6127f584828501611afa565b91505092915050565b60006020828403121561281057600080fd5b600061281e84828501611b24565b91505092915050565b60006020828403121561283957600080fd5b600061284784828501611b39565b91505092915050565b60006020828403121561286257600080fd5b600082013567ffffffffffffffff81111561287c57600080fd5b61288884828501611b4e565b91505092915050565b6000602082840312156128a357600080fd5b60006128b184828501611b78565b91505092915050565b6000602082840312156128cc57600080fd5b60006128da84828501611b8d565b91505092915050565b6000602082840312156128f557600080fd5b600061290384828501611ba2565b91505092915050565b60006020828403121561291e57600080fd5b600082013567ffffffffffffffff81111561293857600080fd5b61294484828501611bb7565b91505092915050565b600080600080600060a0868803121561296557600080fd5b600086013567ffffffffffffffff81111561297f57600080fd5b61298b88828901611bb7565b955050602061299c88828901612564565b94505060406129ad88828901611ba2565b93505060606129be88828901612564565b925050608086013567ffffffffffffffff8111156129db57600080fd5b6129e788828901611b4e565b9150509295509295909350565b600060208284031215612a0657600080fd5b600082013567ffffffffffffffff811115612a2057600080fd5b612a2c84828501611be1565b91505092915050565b600060208284031215612a4757600080fd5b600082013567ffffffffffffffff811115612a6157600080fd5b612a6d84828501611ecd565b91505092915050565b600060408284031215612a8857600080fd5b6000612a968482850161205f565b91505092915050565b600060208284031215612ab157600080fd5b600082013567ffffffffffffffff811115612acb57600080fd5b612ad7848285016120ab565b91505092915050565b600060208284031215612af257600080fd5b600082013567ffffffffffffffff811115612b0c57600080fd5b612b188482850161210f565b91505092915050565b600060e08284031215612b3357600080fd5b6000612b4184828501612278565b91505092915050565b60006101608284031215612b5d57600080fd5b6000612b6b84828501612328565b91505092915050565b600060408284031215612b8657600080fd5b6000612b9484828501612406565b91505092915050565b600060408284031215612baf57600080fd5b6000612bbd84828501612452565b91505092915050565b600060208284031215612bd857600080fd5b600082013567ffffffffffffffff811115612bf257600080fd5b612bfe8482850161249e565b91505092915050565b60006101008284031215612c1a57600080fd5b6000612c2884828501612502565b91505092915050565b600060208284031215612c4357600080fd5b6000612c518482850161254f565b91505092915050565b600060208284031215612c6c57600080fd5b6000612c7a84828501612564565b91505092915050565b600060208284031215612c9557600080fd5b6000612ca384828501612579565b91505092915050565b600060208284031215612cbe57600080fd5b6000612ccc8482850161258e565b91505092915050565b600060208284031215612ce757600080fd5b6000612cf5848285016125a3565b91505092915050565b600060208284031215612d1057600080fd5b6000612d1e848285016125b8565b91505092915050565b612d38612d3382613538565b613654565b82525050565b612d4f612d4a8261354a565b613666565b82525050565b612d66612d6182613556565b613678565b82525050565b6000612d77826134fb565b612d818185613511565b9350612d91818560208601613621565b612d9a8161371e565b840191505092915050565b6000612db0826134fb565b612dba8185613522565b9350612dca818560208601613621565b80840191505092915050565b612de7612de282613582565b613682565b82525050565b612dfe612df98261358f565b613694565b82525050565b612e15612e108261359c565b6136a6565b82525050565b6000612e2682613506565b612e30818561352d565b9350612e40818560208601613621565b80840191505092915050565b612e5d612e58826135b7565b6136ca565b82525050565b612e74612e6f826135a9565b6136b8565b82525050565b612e8b612e86826135d7565b6136dc565b82525050565b612ea2612e9d826135e1565b6136e6565b82525050565b612eb9612eb4826135f1565b6136f8565b82525050565b612ed0612ecb82613605565b61370a565b82525050565b6000612ee28284612d27565b60148201915081905092915050565b6000612efd8284612d3e565b60018201915081905092915050565b6000612f188284612d55565b60148201915081905092915050565b6000612f338285612da5565b9150612f3f8284612da5565b91508190509392505050565b6000612f578288612da5565b9150612f638287612da5565b9150612f6f8286612da5565b9150612f7b8285612da5565b9150612f878284612da5565b91508190509695505050505050565b6000612fa28289612da5565b9150612fae8288612da5565b9150612fba8287612da5565b9150612fc68286612da5565b9150612fd28285612da5565b9150612fde8284612da5565b9150819050979650505050505050565b6000612ffa828a612da5565b91506130068289612da5565b91506130128288612da5565b915061301e8287612da5565b915061302a8286612da5565b91506130368285612da5565b91506130428284612da5565b915081905098975050505050505050565b600061305f828e612da5565b915061306b828d612da5565b9150613077828c612da5565b9150613083828b612da5565b915061308f828a612da5565b915061309b8289612da5565b91506130a78288612da5565b91506130b38287612da5565b91506130bf8286612da5565b91506130cb8285612da5565b91506130d78284612da5565b91508190509c9b505050505050505050505050565b60006130f8828f612da5565b9150613104828e612da5565b9150613110828d612da5565b915061311c828c612da5565b9150613128828b612da5565b9150613134828a612da5565b91506131408289612da5565b915061314c8288612da5565b91506131588287612da5565b91506131648286612da5565b91506131708285612da5565b915061317c8284612da5565b91508190509d9c50505050505050505050505050565b600061319e8285612da5565b91506131aa8284612ded565b6004820191508190509392505050565b60006131c68284612dd6565b60028201915081905092915050565b60006131e18284612ded565b60048201915081905092915050565b60006131fc8284612e04565b60088201915081905092915050565b60006132178284612e1b565b915081905092915050565b600061322e8285612e1b565b915061323a8284612da5565b91508190509392505050565b60006132528284612e4c565b60148201915081905092915050565b600061326d8284612e63565b60028201915081905092915050565b60006132888284612e7a565b60208201915081905092915050565b60006132a38284612e91565b60048201915081905092915050565b60006132be8284612ea8565b60088201915081905092915050565b60006132d98284612ebf565b60018201915081905092915050565b600060208201905081810360008301526133028184612d6c565b905092915050565b6000604051905081810181811067ffffffffffffffff821117156133315761333061371c565b5b8060405250919050565b600067ffffffffffffffff8211156133565761335561371c565b5b602082029050602081019050919050565b600067ffffffffffffffff8211156133825761338161371c565b5b602082029050602081019050919050565b600067ffffffffffffffff8211156133ae576133ad61371c565b5b602082029050602081019050919050565b600067ffffffffffffffff8211156133da576133d961371c565b5b602082029050602081019050919050565b600067ffffffffffffffff8211156134065761340561371c565b5b602082029050602081019050919050565b600067ffffffffffffffff8211156134325761343161371c565b5b602082029050602081019050919050565b600067ffffffffffffffff82111561345e5761345d61371c565b5b602082029050602081019050919050565b600067ffffffffffffffff82111561348a5761348961371c565b5b602082029050602081019050919050565b600067ffffffffffffffff8211156134b6576134b561371c565b5b601f19601f8301169050602081019050919050565b600067ffffffffffffffff8211156134e6576134e561371c565b5b601f19601f8301169050602081019050919050565b600081519050919050565b600081519050919050565b600082825260208201905092915050565b600081905092915050565b600081905092915050565b6000613543826135b7565b9050919050565b60008115159050919050565b60007fffffffffffffffffffffffffffffffffffffffff00000000000000000000000082169050919050565b60008160010b9050919050565b60008160030b9050919050565b60008160070b9050919050565b600061ffff82169050919050565b600073ffffffffffffffffffffffffffffffffffffffff82169050919050565b6000819050919050565b600063ffffffff82169050919050565b600067ffffffffffffffff82169050919050565b600060ff82169050919050565b82818337600083830152505050565b60005b8381101561363f578082015181840152602081019050613624565b8381111561364e576000848401525b50505050565b600061365f826136ca565b9050919050565b60006136718261370a565b9050919050565b6000819050919050565b600061368d82613749565b9050919050565b600061369f8261373c565b9050919050565b60006136b18261372f565b9050919050565b60006136c382613749565b9050919050565b60006136d582613763565b9050919050565b6000819050919050565b60006136f18261373c565b9050919050565b60006137038261372f565b9050919050565b600061371582613756565b9050919050565bfe5b6000601f19601f8301169050919050565b60008160c01b9050919050565b60008160e01b9050919050565b60008160f01b9050919050565b60008160f81b9050919050565b60008160601b9050919050565b61377981613538565b811461378457600080fd5b50565b6137908161354a565b811461379b57600080fd5b50565b6137a781613556565b81146137b257600080fd5b50565b6137be81613582565b81146137c957600080fd5b50565b6137d58161358f565b81146137e057600080fd5b50565b6137ec8161359c565b81146137f757600080fd5b50565b613803816135a9565b811461380e57600080fd5b50565b61381a816135b7565b811461382557600080fd5b50565b613831816135d7565b811461383c57600080fd5b50565b613848816135e1565b811461385357600080fd5b50565b61385f816135f1565b811461386a57600080fd5b50565b61387681613605565b811461388157600080fd5b5056fea264697066735822122070babefb93d8f34bf86c5f8775c613b3a4147a41c98568fe1cc63ef3cc8f7cff64736f6c63430007060033",
			"opcodes": "PUSH1 0x80 PUSH1 0x40 MSTORE CALLVALUE DUP1 ISZERO PUSH2 0x10 JUMPI PUSH1 0x0 DUP1 REVERT JUMPDEST POP PUSH2 0x38BA DUP1 PUSH2 0x20 PUSH1 0x0 CODECOPY PUSH1 0x0 RETURN INVALID PUSH1 0x80 PUSH1 0x40 MSTORE CALLVALUE DUP1 ISZERO PUSH2 0x10 JUMPI PUSH1 0x0 DUP1 REVERT JUMPDEST POP PUSH1 0x4 CALLDATASIZE LT PUSH2 0x205 JUMPI PUSH1 0x0 CALLDATALOAD PUSH1 0xE0 SHR DUP1 PUSH4 0x9D487B47 GT PUSH2 0x11A JUMPI DUP1 PUSH4 0xCECB3043 GT PUSH2 0xAD JUMPI DUP1 PUSH4 0xEB7D70EB GT PUSH2 0x7C JUMPI DUP1 PUSH4 0xEB7D70EB EQ PUSH2 0x77A JUMPI DUP1 PUSH4 0xF20FB830 EQ PUSH2 0x7AA JUMPI DUP1 PUSH4 0xF2FC6D61 EQ PUSH2 0x7DA JUMPI DUP1 PUSH4 0xF8217295 EQ PUSH2 0x80A JUMPI DUP1 PUSH4 0xFEF5906A EQ PUSH2 0x83A JUMPI PUSH2 0x205 JUMP JUMPDEST DUP1 PUSH4 0xCECB3043 EQ PUSH2 0x6BA JUMPI DUP1 PUSH4 0xD40274B2 EQ PUSH2 0x6EA JUMPI DUP1 PUSH4 0xD75A295B EQ PUSH2 0x71A JUMPI DUP1 PUSH4 0xE4CBA547 EQ PUSH2 0x74A JUMPI PUSH2 0x205 JUMP JUMPDEST DUP1 PUSH4 0xBD5EA273 GT PUSH2 0xE9 JUMPI DUP1 PUSH4 0xBD5EA273 EQ PUSH2 0x5FA JUMPI DUP1 PUSH4 0xC28C5859 EQ PUSH2 0x62A JUMPI DUP1 PUSH4 0xC41C134D EQ PUSH2 0x65A JUMPI DUP1 PUSH4 0xC6F4C269 EQ PUSH2 0x68A JUMPI PUSH2 0x205 JUMP JUMPDEST DUP1 PUSH4 0x9D487B47 EQ PUSH2 0x53A JUMPI DUP1 PUSH4 0xAF832F09 EQ PUSH2 0x56A JUMPI DUP1 PUSH4 0xB9EDC795 EQ PUSH2 0x59A JUMPI DUP1 PUSH4 0xBAA42698 EQ PUSH2 0x5CA JUMPI PUSH2 0x205 JUMP JUMPDEST DUP1 PUSH4 0x25C130C9 GT PUSH2 0x19D JUMPI DUP1 PUSH4 0x537B91F5 GT PUSH2 0x16C JUMPI DUP1 PUSH4 0x537B91F5 EQ PUSH2 0x44A JUMPI DUP1 PUSH4 0x57759E15 EQ PUSH2 0x47A JUMPI DUP1 PUSH4 0x6087C21D EQ PUSH2 0x4AA JUMPI DUP1 PUSH4 0x6127B4FF EQ PUSH2 0x4DA JUMPI DUP1 PUSH4 0x68B4AE81 EQ PUSH2 0x50A JUMPI PUSH2 0x205 JUMP JUMPDEST DUP1 PUSH4 0x25C130C9 EQ PUSH2 0x38A JUMPI DUP1 PUSH4 0x46256007 EQ PUSH2 0x3BA JUMPI DUP1 PUSH4 0x463276C3 EQ PUSH2 0x3EA JUMPI DUP1 PUSH4 0x48352C07 EQ PUSH2 0x41A JUMPI PUSH2 0x205 JUMP JUMPDEST DUP1 PUSH4 0x19A7C17B GT PUSH2 0x1D9 JUMPI DUP1 PUSH4 0x19A7C17B EQ PUSH2 0x2CA JUMPI DUP1 PUSH4 0x20907B41 EQ PUSH2 0x2FA JUMPI DUP1 PUSH4 0x241D23B2 EQ PUSH2 0x32A JUMPI DUP1 PUSH4 0x253FE4EE EQ PUSH2 0x35A JUMPI PUSH2 0x205 JUMP JUMPDEST DUP1 PUSH3 0x9C8152 EQ PUSH2 0x20A JUMPI DUP1 PUSH4 0x1222D81A EQ PUSH2 0x23A JUMPI DUP1 PUSH4 0x122E5AE7 EQ PUSH2 0x26A JUMPI DUP1 PUSH4 0x13F9D46D EQ PUSH2 0x29A JUMPI JUMPDEST PUSH1 0x0 DUP1 REVERT JUMPDEST PUSH2 0x224 PUSH1 0x4 DUP1 CALLDATASIZE SUB DUP2 ADD SWAP1 PUSH2 0x21F SWAP2 SWAP1 PUSH2 0x27FE JUMP JUMPDEST PUSH2 0x86A JUMP JUMPDEST PUSH1 0x40 MLOAD PUSH2 0x231 SWAP2 SWAP1 PUSH2 0x32E8 JUMP JUMPDEST PUSH1 0x40 MLOAD DUP1 SWAP2 SUB SWAP1 RETURN JUMPDEST PUSH2 0x254 PUSH1 0x4 DUP1 CALLDATASIZE SUB DUP2 ADD SWAP1 PUSH2 0x24F SWAP2 SWAP1 PUSH2 0x2850 JUMP JUMPDEST PUSH2 0x893 JUMP JUMPDEST PUSH1 0x40 MLOAD PUSH2 0x261 SWAP2 SWAP1 PUSH2 0x32E8 JUMP JUMPDEST PUSH1 0x40 MLOAD DUP1 SWAP2 SUB SWAP1 RETURN JUMPDEST PUSH2 0x284 PUSH1 0x4 DUP1 CALLDATASIZE SUB DUP2 ADD SWAP1 PUSH2 0x27F SWAP2 SWAP1 PUSH2 0x2CD5 JUMP JUMPDEST PUSH2 0x964 JUMP JUMPDEST PUSH1 0x40 MLOAD PUSH2 0x291 SWAP2 SWAP1 PUSH2 0x32E8 JUMP JUMPDEST PUSH1 0x40 MLOAD DUP1 SWAP2 SUB SWAP1 RETURN JUMPDEST PUSH2 0x2B4 PUSH1 0x4 DUP1 CALLDATASIZE SUB DUP2 ADD SWAP1 PUSH2 0x2AF SWAP2 SWAP1 PUSH2 0x2A9F JUMP JUMPDEST PUSH2 0x99B JUMP JUMPDEST PUSH1 0x40 MLOAD PUSH2 0x2C1 SWAP2 SWAP1 PUSH2 0x32E8 JUMP JUMPDEST PUSH1 0x40 MLOAD DUP1 SWAP2 SUB SWAP1 RETURN JUMPDEST PUSH2 0x2E4 PUSH1 0x4 DUP1 CALLDATASIZE SUB DUP2 ADD SWAP1 PUSH2 0x2DF SWAP2 SWAP1 PUSH2 0x27BD JUMP JUMPDEST PUSH2 0x9D6 JUMP JUMPDEST PUSH1 0x40 MLOAD PUSH2 0x2F1 SWAP2 SWAP1 PUSH2 0x32E8 JUMP JUMPDEST PUSH1 0x40 MLOAD DUP1 SWAP2 SUB SWAP1 RETURN JUMPDEST PUSH2 0x314 PUSH1 0x4 DUP1 CALLDATASIZE SUB DUP2 ADD SWAP1 PUSH2 0x30F SWAP2 SWAP1 PUSH2 0x2B74 JUMP JUMPDEST PUSH2 0xA66 JUMP JUMPDEST PUSH1 0x40 MLOAD PUSH2 0x321 SWAP2 SWAP1 PUSH2 0x32E8 JUMP JUMPDEST PUSH1 0x40 MLOAD DUP1 SWAP2 SUB SWAP1 RETURN JUMPDEST PUSH2 0x344 PUSH1 0x4 DUP1 CALLDATASIZE SUB DUP2 ADD SWAP1 PUSH2 0x33F SWAP2 SWAP1 PUSH2 0x25CD JUMP JUMPDEST PUSH2 0xAA9 JUMP JUMPDEST PUSH1 0x40 MLOAD PUSH2 0x351 SWAP2 SWAP1 PUSH2 0x32E8 JUMP JUMPDEST PUSH1 0x40 MLOAD DUP1 SWAP2 SUB SWAP1 RETURN JUMPDEST PUSH2 0x374 PUSH1 0x4 DUP1 CALLDATASIZE SUB DUP2 ADD SWAP1 PUSH2 0x36F SWAP2 SWAP1 PUSH2 0x2C07 JUMP JUMPDEST PUSH2 0xADA JUMP JUMPDEST PUSH1 0x40 MLOAD PUSH2 0x381 SWAP2 SWAP1 PUSH2 0x32E8 JUMP JUMPDEST PUSH1 0x40 MLOAD DUP1 SWAP2 SUB SWAP1 RETURN JUMPDEST PUSH2 0x3A4 PUSH1 0x4 DUP1 CALLDATASIZE SUB DUP2 ADD SWAP1 PUSH2 0x39F SWAP2 SWAP1 PUSH2 0x294D JUMP JUMPDEST PUSH2 0xB1D JUMP JUMPDEST PUSH1 0x40 MLOAD PUSH2 0x3B1 SWAP2 SWAP1 PUSH2 0x32E8 JUMP JUMPDEST PUSH1 0x40 MLOAD DUP1 SWAP2 SUB SWAP1 RETURN JUMPDEST PUSH2 0x3D4 PUSH1 0x4 DUP1 CALLDATASIZE SUB DUP2 ADD SWAP1 PUSH2 0x3CF SWAP2 SWAP1 PUSH2 0x2891 JUMP JUMPDEST PUSH2 0xB72 JUMP JUMPDEST PUSH1 0x40 MLOAD PUSH2 0x3E1 SWAP2 SWAP1 PUSH2 0x32E8 JUMP JUMPDEST PUSH1 0x40 MLOAD DUP1 SWAP2 SUB SWAP1 RETURN JUMPDEST PUSH2 0x404 PUSH1 0x4 DUP1 CALLDATASIZE SUB DUP2 ADD SWAP1 PUSH2 0x3FF SWAP2 SWAP1 PUSH2 0x2827 JUMP JUMPDEST PUSH2 0xBA9 JUMP JUMPDEST PUSH1 0x40 MLOAD PUSH2 0x411 SWAP2 SWAP1 PUSH2 0x32E8 JUMP JUMPDEST PUSH1 0x40 MLOAD DUP1 SWAP2 SUB SWAP1 RETURN JUMPDEST PUSH2 0x434 PUSH1 0x4 DUP1 CALLDATASIZE SUB DUP2 ADD SWAP1 PUSH2 0x42F SWAP2 SWAP1 PUSH2 0x26FA JUMP JUMPDEST PUSH2 0xBD2 JUMP JUMPDEST PUSH1 0x40 MLOAD PUSH2 0x441 SWAP2 SWAP1 PUSH2 0x32E8 JUMP JUMPDEST PUSH1 0x40 MLOAD DUP1 SWAP2 SUB SWAP1 RETURN JUMPDEST PUSH2 0x464 PUSH1 0x4 DUP1 CALLDATASIZE SUB DUP2 ADD SWAP1 PUSH2 0x45F SWAP2 SWAP1 PUSH2 0x2B21 JUMP JUMPDEST PUSH2 0xC43 JUMP JUMPDEST PUSH1 0x40 MLOAD PUSH2 0x471 SWAP2 SWAP1 PUSH2 0x32E8 JUMP JUMPDEST PUSH1 0x40 MLOAD DUP1 SWAP2 SUB SWAP1 RETURN JUMPDEST PUSH2 0x494 PUSH1 0x4 DUP1 CALLDATASIZE SUB DUP2 ADD SWAP1 PUSH2 0x48F SWAP2 SWAP1 PUSH2 0x2C5A JUMP JUMPDEST PUSH2 0xCCC JUMP JUMPDEST PUSH1 0x40 MLOAD PUSH2 0x4A1 SWAP2 SWAP1 PUSH2 0x32E8 JUMP JUMPDEST PUSH1 0x40 MLOAD DUP1 SWAP2 SUB SWAP1 RETURN JUMPDEST PUSH2 0x4C4 PUSH1 0x4 DUP1 CALLDATASIZE SUB DUP2 ADD SWAP1 PUSH2 0x4BF SWAP2 SWAP1 PUSH2 0x29F4 JUMP JUMPDEST PUSH2 0xD03 JUMP JUMPDEST PUSH1 0x40 MLOAD PUSH2 0x4D1 SWAP2 SWAP1 PUSH2 0x32E8 JUMP JUMPDEST PUSH1 0x40 MLOAD DUP1 SWAP2 SUB SWAP1 RETURN JUMPDEST PUSH2 0x4F4 PUSH1 0x4 DUP1 CALLDATASIZE SUB DUP2 ADD SWAP1 PUSH2 0x4EF SWAP2 SWAP1 PUSH2 0x2CFE JUMP JUMPDEST PUSH2 0xE7C JUMP JUMPDEST PUSH1 0x40 MLOAD PUSH2 0x501 SWAP2 SWAP1 PUSH2 0x32E8 JUMP JUMPDEST PUSH1 0x40 MLOAD DUP1 SWAP2 SUB SWAP1 RETURN JUMPDEST PUSH2 0x524 PUSH1 0x4 DUP1 CALLDATASIZE SUB DUP2 ADD SWAP1 PUSH2 0x51F SWAP2 SWAP1 PUSH2 0x290C JUMP JUMPDEST PUSH2 0xEB3 JUMP JUMPDEST PUSH1 0x40 MLOAD PUSH2 0x531 SWAP2 SWAP1 PUSH2 0x32E8 JUMP JUMPDEST PUSH1 0x40 MLOAD DUP1 SWAP2 SUB SWAP1 RETURN JUMPDEST PUSH2 0x554 PUSH1 0x4 DUP1 CALLDATASIZE SUB DUP2 ADD SWAP1 PUSH2 0x54F SWAP2 SWAP1 PUSH2 0x25F6 JUMP JUMPDEST PUSH2 0xEDC JUMP JUMPDEST PUSH1 0x40 MLOAD PUSH2 0x561 SWAP2 SWAP1 PUSH2 0x32E8 JUMP JUMPDEST PUSH1 0x40 MLOAD DUP1 SWAP2 SUB SWAP1 RETURN JUMPDEST PUSH2 0x584 PUSH1 0x4 DUP1 CALLDATASIZE SUB DUP2 ADD SWAP1 PUSH2 0x57F SWAP2 SWAP1 PUSH2 0x28E3 JUMP JUMPDEST PUSH2 0xF45 JUMP JUMPDEST PUSH1 0x40 MLOAD PUSH2 0x591 SWAP2 SWAP1 PUSH2 0x32E8 JUMP JUMPDEST PUSH1 0x40 MLOAD DUP1 SWAP2 SUB SWAP1 RETURN JUMPDEST PUSH2 0x5B4 PUSH1 0x4 DUP1 CALLDATASIZE SUB DUP2 ADD SWAP1 PUSH2 0x5AF SWAP2 SWAP1 PUSH2 0x2B9D JUMP JUMPDEST PUSH2 0xF7C JUMP JUMPDEST PUSH1 0x40 MLOAD PUSH2 0x5C1 SWAP2 SWAP1 PUSH2 0x32E8 JUMP JUMPDEST PUSH1 0x40 MLOAD DUP1 SWAP2 SUB SWAP1 RETURN JUMPDEST PUSH2 0x5E4 PUSH1 0x4 DUP1 CALLDATASIZE SUB DUP2 ADD SWAP1 PUSH2 0x5DF SWAP2 SWAP1 PUSH2 0x2B4A JUMP JUMPDEST PUSH2 0xFBF JUMP JUMPDEST PUSH1 0x40 MLOAD PUSH2 0x5F1 SWAP2 SWAP1 PUSH2 0x32E8 JUMP JUMPDEST PUSH1 0x40 MLOAD DUP1 SWAP2 SUB SWAP1 RETURN JUMPDEST PUSH2 0x614 PUSH1 0x4 DUP1 CALLDATASIZE SUB DUP2 ADD SWAP1 PUSH2 0x60F SWAP2 SWAP1 PUSH2 0x2A35 JUMP JUMPDEST PUSH2 0x1048 JUMP JUMPDEST PUSH1 0x40 MLOAD PUSH2 0x621 SWAP2 SWAP1 PUSH2 0x32E8 JUMP JUMPDEST PUSH1 0x40 MLOAD DUP1 SWAP2 SUB SWAP1 RETURN JUMPDEST PUSH2 0x644 PUSH1 0x4 DUP1 CALLDATASIZE SUB DUP2 ADD SWAP1 PUSH2 0x63F SWAP2 SWAP1 PUSH2 0x273B JUMP JUMPDEST PUSH2 0x1183 JUMP JUMPDEST PUSH1 0x40 MLOAD PUSH2 0x651 SWAP2 SWAP1 PUSH2 0x32E8 JUMP JUMPDEST PUSH1 0x40 MLOAD DUP1 SWAP2 SUB SWAP1 RETURN JUMPDEST PUSH2 0x674 PUSH1 0x4 DUP1 CALLDATASIZE SUB DUP2 ADD SWAP1 PUSH2 0x66F SWAP2 SWAP1 PUSH2 0x2A76 JUMP JUMPDEST PUSH2 0x11F4 JUMP JUMPDEST PUSH1 0x40 MLOAD PUSH2 0x681 SWAP2 SWAP1 PUSH2 0x32E8 JUMP JUMPDEST PUSH1 0x40 MLOAD DUP1 SWAP2 SUB SWAP1 RETURN JUMPDEST PUSH2 0x6A4 PUSH1 0x4 DUP1 CALLDATASIZE SUB DUP2 ADD SWAP1 PUSH2 0x69F SWAP2 SWAP1 PUSH2 0x2678 JUMP JUMPDEST PUSH2 0x1237 JUMP JUMPDEST PUSH1 0x40 MLOAD PUSH2 0x6B1 SWAP2 SWAP1 PUSH2 0x32E8 JUMP JUMPDEST PUSH1 0x40 MLOAD DUP1 SWAP2 SUB SWAP1 RETURN JUMPDEST PUSH2 0x6D4 PUSH1 0x4 DUP1 CALLDATASIZE SUB DUP2 ADD SWAP1 PUSH2 0x6CF SWAP2 SWAP1 PUSH2 0x2CAC JUMP JUMPDEST PUSH2 0x12A8 JUMP JUMPDEST PUSH1 0x40 MLOAD PUSH2 0x6E1 SWAP2 SWAP1 PUSH2 0x32E8 JUMP JUMPDEST PUSH1 0x40 MLOAD DUP1 SWAP2 SUB SWAP1 RETURN JUMPDEST PUSH2 0x704 PUSH1 0x4 DUP1 CALLDATASIZE SUB DUP2 ADD SWAP1 PUSH2 0x6FF SWAP2 SWAP1 PUSH2 0x277C JUMP JUMPDEST PUSH2 0x12DF JUMP JUMPDEST PUSH1 0x40 MLOAD PUSH2 0x711 SWAP2 SWAP1 PUSH2 0x32E8 JUMP JUMPDEST PUSH1 0x40 MLOAD DUP1 SWAP2 SUB SWAP1 RETURN JUMPDEST PUSH2 0x734 PUSH1 0x4 DUP1 CALLDATASIZE SUB DUP2 ADD SWAP1 PUSH2 0x72F SWAP2 SWAP1 PUSH2 0x26B9 JUMP JUMPDEST PUSH2 0x1350 JUMP JUMPDEST PUSH1 0x40 MLOAD PUSH2 0x741 SWAP2 SWAP1 PUSH2 0x32E8 JUMP JUMPDEST PUSH1 0x40 MLOAD DUP1 SWAP2 SUB SWAP1 RETURN JUMPDEST PUSH2 0x764 PUSH1 0x4 DUP1 CALLDATASIZE SUB DUP2 ADD SWAP1 PUSH2 0x75F SWAP2 SWAP1 PUSH2 0x2C31 JUMP JUMPDEST PUSH2 0x13C1 JUMP JUMPDEST PUSH1 0x40 MLOAD PUSH2 0x771 SWAP2 SWAP1 PUSH2 0x32E8 JUMP JUMPDEST PUSH1 0x40 MLOAD DUP1 SWAP2 SUB SWAP1 RETURN JUMPDEST PUSH2 0x794 PUSH1 0x4 DUP1 CALLDATASIZE SUB DUP2 ADD SWAP1 PUSH2 0x78F SWAP2 SWAP1 PUSH2 0x2BC6 JUMP JUMPDEST PUSH2 0x13F8 JUMP JUMPDEST PUSH1 0x40 MLOAD PUSH2 0x7A1 SWAP2 SWAP1 PUSH2 0x32E8 JUMP JUMPDEST PUSH1 0x40 MLOAD DUP1 SWAP2 SUB SWAP1 RETURN JUMPDEST PUSH2 0x7C4 PUSH1 0x4 DUP1 CALLDATASIZE SUB DUP2 ADD SWAP1 PUSH2 0x7BF SWAP2 SWAP1 PUSH2 0x2C83 JUMP JUMPDEST PUSH2 0x143B JUMP JUMPDEST PUSH1 0x40 MLOAD PUSH2 0x7D1 SWAP2 SWAP1 PUSH2 0x32E8 JUMP JUMPDEST PUSH1 0x40 MLOAD DUP1 SWAP2 SUB SWAP1 RETURN JUMPDEST PUSH2 0x7F4 PUSH1 0x4 DUP1 CALLDATASIZE SUB DUP2 ADD SWAP1 PUSH2 0x7EF SWAP2 SWAP1 PUSH2 0x2AE0 JUMP JUMPDEST PUSH2 0x1472 JUMP JUMPDEST PUSH1 0x40 MLOAD PUSH2 0x801 SWAP2 SWAP1 PUSH2 0x32E8 JUMP JUMPDEST PUSH1 0x40 MLOAD DUP1 SWAP2 SUB SWAP1 RETURN JUMPDEST PUSH2 0x824 PUSH1 0x4 DUP1 CALLDATASIZE SUB DUP2 ADD SWAP1 PUSH2 0x81F SWAP2 SWAP1 PUSH2 0x2637 JUMP JUMPDEST PUSH2 0x1536 JUMP JUMPDEST PUSH1 0x40 MLOAD PUSH2 0x831 SWAP2 SWAP1 PUSH2 0x32E8 JUMP JUMPDEST PUSH1 0x40 MLOAD DUP1 SWAP2 SUB SWAP1 RETURN JUMPDEST PUSH2 0x854 PUSH1 0x4 DUP1 CALLDATASIZE SUB DUP2 ADD SWAP1 PUSH2 0x84F SWAP2 SWAP1 PUSH2 0x28BA JUMP JUMPDEST PUSH2 0x15C6 JUMP JUMPDEST PUSH1 0x40 MLOAD PUSH2 0x861 SWAP2 SWAP1 PUSH2 0x32E8 JUMP JUMPDEST PUSH1 0x40 MLOAD DUP1 SWAP2 SUB SWAP1 RETURN JUMPDEST PUSH1 0x60 DUP2 PUSH1 0x40 MLOAD PUSH1 0x20 ADD PUSH2 0x87D SWAP2 SWAP1 PUSH2 0x2EF1 JUMP JUMPDEST PUSH1 0x40 MLOAD PUSH1 0x20 DUP2 DUP4 SUB SUB DUP2 MSTORE SWAP1 PUSH1 0x40 MSTORE SWAP1 POP SWAP2 SWAP1 POP JUMP JUMPDEST PUSH1 0x60 PUSH1 0x0 DUP3 MLOAD SWAP1 POP PUSH1 0x0 DUP2 PUSH8 0xFFFFFFFFFFFFFFFF DUP2 GT DUP1 ISZERO PUSH2 0x8B4 JUMPI PUSH1 0x0 DUP1 REVERT JUMPDEST POP PUSH1 0x40 MLOAD SWAP1 DUP1 DUP3 MSTORE DUP1 PUSH1 0x1F ADD PUSH1 0x1F NOT AND PUSH1 0x20 ADD DUP3 ADD PUSH1 0x40 MSTORE DUP1 ISZERO PUSH2 0x8E7 JUMPI DUP2 PUSH1 0x20 ADD PUSH1 0x1 DUP3 MUL DUP1 CALLDATASIZE DUP4 CALLDATACOPY DUP1 DUP3 ADD SWAP2 POP POP SWAP1 POP JUMPDEST POP SWAP1 POP PUSH1 0x0 JUMPDEST DUP3 DUP2 LT ISZERO PUSH2 0x959 JUMPI DUP5 PUSH1 0x1 DUP3 DUP6 SUB SUB DUP2 MLOAD DUP2 LT PUSH2 0x906 JUMPI INVALID JUMPDEST PUSH1 0x20 ADD ADD MLOAD PUSH1 0xF8 SHR PUSH1 0xF8 SHL DUP3 DUP3 DUP2 MLOAD DUP2 LT PUSH2 0x91D JUMPI INVALID JUMPDEST PUSH1 0x20 ADD ADD SWAP1 PUSH31 0xFFFFFFFFFFFFFFFFFFFFFFFFFFFFFFFFFFFFFFFFFFFFFFFFFFFFFFFFFFFFFF NOT AND SWAP1 DUP2 PUSH1 0x0 BYTE SWAP1 MSTORE8 POP DUP1 DUP1 PUSH1 0x1 ADD SWAP2 POP POP PUSH2 0x8ED JUMP JUMPDEST DUP2 SWAP4 POP POP POP POP SWAP2 SWAP1 POP JUMP JUMPDEST PUSH1 0x60 PUSH1 0x0 DUP3 PUSH1 0x40 MLOAD PUSH1 0x20 ADD PUSH2 0x979 SWAP2 SWAP1 PUSH2 0x32B2 JUMP JUMPDEST PUSH1 0x40 MLOAD PUSH1 0x20 DUP2 DUP4 SUB SUB DUP2 MSTORE SWAP1 PUSH1 0x40 MSTORE SWAP1 POP PUSH2 0x993 DUP2 PUSH2 0x893 JUMP JUMPDEST SWAP2 POP POP SWAP2 SWAP1 POP JUMP JUMPDEST PUSH1 0x60 DUP2 PUSH1 0x0 ADD MLOAD PUSH2 0x9AF DUP4 PUSH1 0x20 ADD MLOAD PUSH2 0xCCC JUMP JUMPDEST PUSH1 0x40 MLOAD PUSH1 0x20 ADD PUSH2 0x9C0 SWAP3 SWAP2 SWAP1 PUSH2 0x3222 JUMP JUMPDEST PUSH1 0x40 MLOAD PUSH1 0x20 DUP2 DUP4 SUB SUB DUP2 MSTORE SWAP1 PUSH1 0x40 MSTORE SWAP1 POP SWAP2 SWAP1 POP JUMP JUMPDEST PUSH1 0x60 DUP1 PUSH2 0x9E3 DUP4 MLOAD PUSH2 0x143B JUMP JUMPDEST SWAP1 POP PUSH1 0x0 JUMPDEST DUP4 MLOAD DUP2 LT ISZERO PUSH2 0xA5C JUMPI DUP2 PUSH2 0xA2D DUP6 DUP4 DUP2 MLOAD DUP2 LT PUSH2 0xA01 JUMPI INVALID JUMPDEST PUSH1 0x20 MUL PUSH1 0x20 ADD ADD MLOAD PUSH1 0x40 MLOAD PUSH1 0x20 ADD PUSH2 0xA19 SWAP2 SWAP1 PUSH2 0x3246 JUMP JUMPDEST PUSH1 0x40 MLOAD PUSH1 0x20 DUP2 DUP4 SUB SUB DUP2 MSTORE SWAP1 PUSH1 0x40 MSTORE PUSH2 0x893 JUMP JUMPDEST PUSH1 0x40 MLOAD PUSH1 0x20 ADD PUSH2 0xA3E SWAP3 SWAP2 SWAP1 PUSH2 0x2F27 JUMP JUMPDEST PUSH1 0x40 MLOAD PUSH1 0x20 DUP2 DUP4 SUB SUB DUP2 MSTORE SWAP1 PUSH1 0x40 MSTORE SWAP2 POP DUP1 DUP1 PUSH1 0x1 ADD SWAP2 POP POP PUSH2 0x9E8 JUMP JUMPDEST POP DUP1 SWAP2 POP POP SWAP2 SWAP1 POP JUMP JUMPDEST PUSH1 0x60 PUSH2 0xA75 DUP3 PUSH1 0x0 ADD MLOAD PUSH2 0x12A8 JUMP JUMPDEST PUSH2 0xA82 DUP4 PUSH1 0x20 ADD MLOAD PUSH2 0xCCC JUMP JUMPDEST PUSH1 0x40 MLOAD PUSH1 0x20 ADD PUSH2 0xA93 SWAP3 SWAP2 SWAP1 PUSH2 0x2F27 JUMP JUMPDEST PUSH1 0x40 MLOAD PUSH1 0x20 DUP2 DUP4 SUB SUB DUP2 MSTORE SWAP1 PUSH1 0x40 MSTORE SWAP1 POP SWAP2 SWAP1 POP JUMP JUMPDEST PUSH1 0x60 PUSH2 0xAD3 DUP3 PUSH1 0x40 MLOAD PUSH1 0x20 ADD PUSH2 0xABF SWAP2 SWAP1 PUSH2 0x2ED6 JUMP JUMPDEST PUSH1 0x40 MLOAD PUSH1 0x20 DUP2 DUP4 SUB SUB DUP2 MSTORE SWAP1 PUSH1 0x40 MSTORE PUSH2 0x893 JUMP JUMPDEST SWAP1 POP SWAP2 SWAP1 POP JUMP JUMPDEST PUSH1 0x60 PUSH2 0xAE9 DUP3 PUSH1 0x0 ADD MLOAD PUSH2 0xCCC JUMP JUMPDEST PUSH2 0xAF6 DUP4 PUSH1 0x20 ADD MLOAD PUSH2 0xC43 JUMP JUMPDEST PUSH1 0x40 MLOAD PUSH1 0x20 ADD PUSH2 0xB07 SWAP3 SWAP2 SWAP1 PUSH2 0x2F27 JUMP JUMPDEST PUSH1 0x40 MLOAD PUSH1 0x20 DUP2 DUP4 SUB SUB DUP2 MSTORE SWAP1 PUSH1 0x40 MSTORE SWAP1 POP SWAP2 SWAP1 POP JUMP JUMPDEST PUSH1 0x60 PUSH2 0xB28 DUP7 PUSH2 0xEB3 JUMP JUMPDEST PUSH2 0xB31 DUP7 PUSH2 0xCCC JUMP JUMPDEST PUSH2 0xB3A DUP7 PUSH2 0xF45 JUMP JUMPDEST PUSH2 0xB43 DUP7 PUSH2 0xCCC JUMP JUMPDEST DUP6 PUSH1 0x40 MLOAD PUSH1 0x20 ADD PUSH2 0xB58 SWAP6 SWAP5 SWAP4 SWAP3 SWAP2 SWAP1 PUSH2 0x2F4B JUMP JUMPDEST PUSH1 0x40 MLOAD PUSH1 0x20 DUP2 DUP4 SUB SUB DUP2 MSTORE SWAP1 PUSH1 0x40 MSTORE SWAP1 POP SWAP6 SWAP5 POP POP POP POP POP JUMP JUMPDEST PUSH1 0x60 PUSH1 0x0 DUP3 PUSH1 0x40 MLOAD PUSH1 0x20 ADD PUSH2 0xB87 SWAP2 SWAP1 PUSH2 0x31BA JUMP JUMPDEST PUSH1 0x40 MLOAD PUSH1 0x20 DUP2 DUP4 SUB SUB DUP2 MSTORE SWAP1 PUSH1 0x40 MSTORE SWAP1 POP PUSH2 0xBA1 DUP2 PUSH2 0x893 JUMP JUMPDEST SWAP2 POP POP SWAP2 SWAP1 POP JUMP JUMPDEST PUSH1 0x60 DUP2 PUSH1 0x40 MLOAD PUSH1 0x20 ADD PUSH2 0xBBC SWAP2 SWAP1 PUSH2 0x2F0C JUMP JUMPDEST PUSH1 0x40 MLOAD PUSH1 0x20 DUP2 DUP4 SUB SUB DUP2 MSTORE SWAP1 PUSH1 0x40 MSTORE SWAP1 POP SWAP2 SWAP1 POP JUMP JUMPDEST PUSH1 0x60 DUP1 PUSH2 0xBDF DUP4 MLOAD PUSH2 0x143B JUMP JUMPDEST SWAP1 POP PUSH1 0x0 JUMPDEST DUP4 MLOAD DUP2 LT ISZERO PUSH2 0xC39 JUMPI DUP2 PUSH2 0xC0A DUP6 DUP4 DUP2 MLOAD DUP2 LT PUSH2 0xBFD JUMPI INVALID JUMPDEST PUSH1 0x20 MUL PUSH1 0x20 ADD ADD MLOAD PUSH2 0xFBF JUMP JUMPDEST PUSH1 0x40 MLOAD PUSH1 0x20 ADD PUSH2 0xC1B SWAP3 SWAP2 SWAP1 PUSH2 0x2F27 JUMP JUMPDEST PUSH1 0x40 MLOAD PUSH1 0x20 DUP2 DUP4 SUB SUB DUP2 MSTORE SWAP1 PUSH1 0x40 MSTORE SWAP2 POP DUP1 DUP1 PUSH1 0x1 ADD SWAP2 POP POP PUSH2 0xBE4 JUMP JUMPDEST POP DUP1 SWAP2 POP POP SWAP2 SWAP1 POP JUMP JUMPDEST PUSH1 0x60 PUSH2 0xC52 DUP3 PUSH1 0x0 ADD MLOAD PUSH2 0xB72 JUMP JUMPDEST PUSH2 0xC5F DUP4 PUSH1 0x20 ADD MLOAD PUSH2 0xB72 JUMP JUMPDEST PUSH2 0xC6C DUP5 PUSH1 0x40 ADD MLOAD PUSH2 0xCCC JUMP JUMPDEST PUSH2 0xC79 DUP6 PUSH1 0x60 ADD MLOAD PUSH2 0x12A8 JUMP JUMPDEST PUSH2 0xC86 DUP7 PUSH1 0x80 ADD MLOAD PUSH2 0x143B JUMP JUMPDEST PUSH2 0xC93 DUP8 PUSH1 0xA0 ADD MLOAD PUSH2 0x143B JUMP JUMPDEST PUSH2 0xCA0 DUP9 PUSH1 0xC0 ADD MLOAD PUSH2 0x143B JUMP JUMPDEST PUSH1 0x40 MLOAD PUSH1 0x20 ADD PUSH2 0xCB6 SWAP8 SWAP7 SWAP6 SWAP5 SWAP4 SWAP3 SWAP2 SWAP1 PUSH2 0x2FEE JUMP JUMPDEST PUSH1 0x40 MLOAD PUSH1 0x20 DUP2 DUP4 SUB SUB DUP2 MSTORE SWAP1 PUSH1 0x40 MSTORE SWAP1 POP SWAP2 SWAP1 POP JUMP JUMPDEST PUSH1 0x60 PUSH1 0x0 DUP3 PUSH1 0x40 MLOAD PUSH1 0x20 ADD PUSH2 0xCE1 SWAP2 SWAP1 PUSH2 0x3246 JUMP JUMPDEST PUSH1 0x40 MLOAD PUSH1 0x20 DUP2 DUP4 SUB SUB DUP2 MSTORE SWAP1 PUSH1 0x40 MSTORE SWAP1 POP PUSH2 0xCFB DUP2 PUSH2 0x893 JUMP JUMPDEST SWAP2 POP POP SWAP2 SWAP1 POP JUMP JUMPDEST PUSH1 0x60 PUSH1 0x0 PUSH2 0xD14 DUP4 PUSH1 0x0 ADD MLOAD PUSH2 0x13C1 JUMP JUMPDEST PUSH2 0xD21 DUP5 PUSH1 0x20 ADD MLOAD PUSH2 0x13C1 JUMP JUMPDEST PUSH2 0xD2E DUP6 PUSH1 0x40 ADD MLOAD PUSH2 0xCCC JUMP JUMPDEST PUSH2 0xD3B DUP7 PUSH1 0x60 ADD MLOAD PUSH2 0x9D6 JUMP JUMPDEST PUSH2 0xD48 DUP8 PUSH1 0x80 ADD MLOAD PUSH2 0xEDC JUMP JUMPDEST PUSH2 0xD55 DUP9 PUSH1 0xA0 ADD MLOAD PUSH2 0x1536 JUMP JUMPDEST PUSH1 0x40 MLOAD PUSH1 0x20 ADD PUSH2 0xD6A SWAP7 SWAP6 SWAP5 SWAP4 SWAP3 SWAP2 SWAP1 PUSH2 0x2F96 JUMP JUMPDEST PUSH1 0x40 MLOAD PUSH1 0x20 DUP2 DUP4 SUB SUB DUP2 MSTORE SWAP1 PUSH1 0x40 MSTORE SWAP1 POP PUSH1 0x0 PUSH2 0xD8B DUP5 PUSH2 0x120 ADD MLOAD PUSH2 0xF45 JUMP JUMPDEST PUSH2 0xD99 DUP6 PUSH2 0x140 ADD MLOAD PUSH2 0xF45 JUMP JUMPDEST PUSH2 0xDA7 DUP7 PUSH2 0x160 ADD MLOAD PUSH2 0xF45 JUMP JUMPDEST PUSH2 0xDB5 DUP8 PUSH2 0x180 ADD MLOAD PUSH2 0xF45 JUMP JUMPDEST PUSH2 0xDC3 DUP9 PUSH2 0x1A0 ADD MLOAD PUSH2 0x1536 JUMP JUMPDEST PUSH2 0xDD1 DUP10 PUSH2 0x1C0 ADD MLOAD PUSH2 0x1536 JUMP JUMPDEST PUSH2 0xDDF DUP11 PUSH2 0x1E0 ADD MLOAD PUSH2 0x1536 JUMP JUMPDEST PUSH2 0xDED DUP12 PUSH2 0x200 ADD MLOAD PUSH2 0x1536 JUMP JUMPDEST PUSH2 0xDFB DUP13 PUSH2 0x220 ADD MLOAD PUSH2 0x1536 JUMP JUMPDEST PUSH2 0xE09 DUP14 PUSH2 0x240 ADD MLOAD PUSH2 0x1536 JUMP JUMPDEST PUSH2 0xE17 DUP15 PUSH2 0x260 ADD MLOAD PUSH2 0x1536 JUMP JUMPDEST PUSH2 0xE25 DUP16 PUSH2 0x280 ADD MLOAD PUSH2 0xEDC JUMP JUMPDEST PUSH1 0x40 MLOAD PUSH1 0x20 ADD PUSH2 0xE40 SWAP13 SWAP12 SWAP11 SWAP10 SWAP9 SWAP8 SWAP7 SWAP6 SWAP5 SWAP4 SWAP3 SWAP2 SWAP1 PUSH2 0x30EC JUMP JUMPDEST PUSH1 0x40 MLOAD PUSH1 0x20 DUP2 DUP4 SUB SUB DUP2 MSTORE SWAP1 PUSH1 0x40 MSTORE SWAP1 POP DUP2 DUP2 PUSH1 0x40 MLOAD PUSH1 0x20 ADD PUSH2 0xE64 SWAP3 SWAP2 SWAP1 PUSH2 0x2F27 JUMP JUMPDEST PUSH1 0x40 MLOAD PUSH1 0x20 DUP2 DUP4 SUB SUB DUP2 MSTORE SWAP1 PUSH1 0x40 MSTORE SWAP3 POP POP POP SWAP2 SWAP1 POP JUMP JUMPDEST PUSH1 0x60 PUSH1 0x0 DUP3 PUSH1 0x40 MLOAD PUSH1 0x20 ADD PUSH2 0xE91 SWAP2 SWAP1 PUSH2 0x32CD JUMP JUMPDEST PUSH1 0x40 MLOAD PUSH1 0x20 DUP2 DUP4 SUB SUB DUP2 MSTORE SWAP1 PUSH1 0x40 MSTORE SWAP1 POP PUSH2 0xEAB DUP2 PUSH2 0x893 JUMP JUMPDEST SWAP2 POP POP SWAP2 SWAP1 POP JUMP JUMPDEST PUSH1 0x60 DUP2 PUSH1 0x40 MLOAD PUSH1 0x20 ADD PUSH2 0xEC6 SWAP2 SWAP1 PUSH2 0x320B JUMP JUMPDEST PUSH1 0x40 MLOAD PUSH1 0x20 DUP2 DUP4 SUB SUB DUP2 MSTORE SWAP1 PUSH1 0x40 MSTORE SWAP1 POP SWAP2 SWAP1 POP JUMP JUMPDEST PUSH1 0x60 DUP1 PUSH2 0xEE9 DUP4 MLOAD PUSH2 0x143B JUMP JUMPDEST SWAP1 POP PUSH1 0x0 JUMPDEST DUP4 MLOAD DUP2 LT ISZERO PUSH2 0xF3B JUMPI DUP2 DUP5 DUP3 DUP2 MLOAD DUP2 LT PUSH2 0xF04 JUMPI INVALID JUMPDEST PUSH1 0x20 MUL PUSH1 0x20 ADD ADD MLOAD PUSH1 0x40 MLOAD PUSH1 0x20 ADD PUSH2 0xF1D SWAP3 SWAP2 SWAP1 PUSH2 0x3192 JUMP JUMPDEST PUSH1 0x40 MLOAD PUSH1 0x20 DUP2 DUP4 SUB SUB DUP2 MSTORE SWAP1 PUSH1 0x40 MSTORE SWAP2 POP DUP1 DUP1 PUSH1 0x1 ADD SWAP2 POP POP PUSH2 0xEEE JUMP JUMPDEST POP DUP1 SWAP2 POP POP SWAP2 SWAP1 POP JUMP JUMPDEST PUSH1 0x60 PUSH1 0x0 DUP3 PUSH1 0x40 MLOAD PUSH1 0x20 ADD PUSH2 0xF5A SWAP2 SWAP1 PUSH2 0x31F0 JUMP JUMPDEST PUSH1 0x40 MLOAD PUSH1 0x20 DUP2 DUP4 SUB SUB DUP2 MSTORE SWAP1 PUSH1 0x40 MSTORE SWAP1 POP PUSH2 0xF74 DUP2 PUSH2 0x893 JUMP JUMPDEST SWAP2 POP POP SWAP2 SWAP1 POP JUMP JUMPDEST PUSH1 0x60 PUSH2 0xF8B DUP3 PUSH1 0x0 ADD MLOAD PUSH2 0x143B JUMP JUMPDEST PUSH2 0xF98 DUP4 PUSH1 0x20 ADD MLOAD PUSH2 0x12A8 JUMP JUMPDEST PUSH1 0x40 MLOAD PUSH1 0x20 ADD PUSH2 0xFA9 SWAP3 SWAP2 SWAP1 PUSH2 0x2F27 JUMP JUMPDEST PUSH1 0x40 MLOAD PUSH1 0x20 DUP2 DUP4 SUB SUB DUP2 MSTORE SWAP1 PUSH1 0x40 MSTORE SWAP1 POP SWAP2 SWAP1 POP JUMP JUMPDEST PUSH1 0x60 PUSH2 0xFCE DUP3 PUSH1 0x0 ADD MLOAD PUSH2 0x12A8 JUMP JUMPDEST PUSH2 0xFDB DUP4 PUSH1 0x20 ADD MLOAD PUSH2 0x11F4 JUMP JUMPDEST PUSH2 0xFE8 DUP5 PUSH1 0x40 ADD MLOAD PUSH2 0x12A8 JUMP JUMPDEST PUSH2 0xFF5 DUP6 PUSH1 0x60 ADD MLOAD PUSH2 0xCCC JUMP JUMPDEST PUSH2 0x1002 DUP7 PUSH1 0x80 ADD MLOAD PUSH2 0x143B JUMP JUMPDEST PUSH2 0x100F DUP8 PUSH1 0xC0 ADD MLOAD PUSH2 0xCCC JUMP JUMPDEST PUSH2 0x101C DUP9 PUSH1 0xA0 ADD MLOAD PUSH2 0xA66 JUMP JUMPDEST PUSH1 0x40 MLOAD PUSH1 0x20 ADD PUSH2 0x1032 SWAP8 SWAP7 SWAP6 SWAP5 SWAP4 SWAP3 SWAP2 SWAP1 PUSH2 0x2FEE JUMP JUMPDEST PUSH1 0x40 MLOAD PUSH1 0x20 DUP2 DUP4 SUB SUB DUP2 MSTORE SWAP1 PUSH1 0x40 MSTORE SWAP1 POP SWAP2 SWAP1 POP JUMP JUMPDEST PUSH1 0x60 PUSH1 0x0 PUSH2 0x1059 DUP4 PUSH1 0x0 ADD MLOAD PUSH2 0x12A8 JUMP JUMPDEST PUSH2 0x1066 DUP5 PUSH1 0x20 ADD MLOAD PUSH2 0x12A8 JUMP JUMPDEST PUSH2 0x1073 DUP6 PUSH1 0x40 ADD MLOAD PUSH2 0xCCC JUMP JUMPDEST PUSH2 0x1080 DUP7 PUSH1 0x60 ADD MLOAD PUSH2 0x12A8 JUMP JUMPDEST PUSH2 0x108D DUP8 PUSH1 0x80 ADD MLOAD PUSH2 0x12A8 JUMP JUMPDEST PUSH2 0x109A DUP9 PUSH1 0xA0 ADD MLOAD PUSH2 0xCCC JUMP JUMPDEST PUSH2 0x10A7 DUP10 PUSH1 0xC0 ADD MLOAD PUSH2 0xCCC JUMP JUMPDEST PUSH1 0x40 MLOAD PUSH1 0x20 ADD PUSH2 0x10BD SWAP8 SWAP7 SWAP6 SWAP5 SWAP4 SWAP3 SWAP2 SWAP1 PUSH2 0x2FEE JUMP JUMPDEST PUSH1 0x40 MLOAD PUSH1 0x20 DUP2 DUP4 SUB SUB DUP2 MSTORE SWAP1 PUSH1 0x40 MSTORE SWAP1 POP PUSH1 0x0 PUSH2 0x10DD DUP5 PUSH1 0xE0 ADD MLOAD PUSH2 0x15C6 JUMP JUMPDEST PUSH2 0x10EB DUP6 PUSH2 0x100 ADD MLOAD PUSH2 0x1237 JUMP JUMPDEST PUSH2 0x10F9 DUP7 PUSH2 0x120 ADD MLOAD PUSH2 0x1237 JUMP JUMPDEST PUSH2 0x1107 DUP8 PUSH2 0x140 ADD MLOAD PUSH2 0x143B JUMP JUMPDEST PUSH2 0x1115 DUP9 PUSH2 0x160 ADD MLOAD PUSH2 0x1237 JUMP JUMPDEST PUSH2 0x1123 DUP10 PUSH2 0x180 ADD MLOAD PUSH2 0xAA9 JUMP JUMPDEST PUSH2 0x1131 DUP11 PUSH2 0x1A0 ADD MLOAD PUSH2 0x15C6 JUMP JUMPDEST PUSH1 0x40 MLOAD PUSH1 0x20 ADD PUSH2 0x1147 SWAP8 SWAP7 SWAP6 SWAP5 SWAP4 SWAP3 SWAP2 SWAP1 PUSH2 0x2FEE JUMP JUMPDEST PUSH1 0x40 MLOAD PUSH1 0x20 DUP2 DUP4 SUB SUB DUP2 MSTORE SWAP1 PUSH1 0x40 MSTORE SWAP1 POP DUP2 DUP2 PUSH1 0x40 MLOAD PUSH1 0x20 ADD PUSH2 0x116B SWAP3 SWAP2 SWAP1 PUSH2 0x2F27 JUMP JUMPDEST PUSH1 0x40 MLOAD PUSH1 0x20 DUP2 DUP4 SUB SUB DUP2 MSTORE SWAP1 PUSH1 0x40 MSTORE SWAP3 POP POP POP SWAP2 SWAP1 POP JUMP JUMPDEST PUSH1 0x60 DUP1 PUSH2 0x1190 DUP4 MLOAD PUSH2 0x143B JUMP JUMPDEST SWAP1 POP PUSH1 0x0 JUMPDEST DUP4 MLOAD DUP2 LT ISZERO PUSH2 0x11EA JUMPI DUP2 PUSH2 0x11BB DUP6 DUP4 DUP2 MLOAD DUP2 LT PUSH2 0x11AE JUMPI INVALID JUMPDEST PUSH1 0x20 MUL PUSH1 0x20 ADD ADD MLOAD PUSH2 0x13F8 JUMP JUMPDEST PUSH1 0x40 MLOAD PUSH1 0x20 ADD PUSH2 0x11CC SWAP3 SWAP2 SWAP1 PUSH2 0x2F27 JUMP JUMPDEST PUSH1 0x40 MLOAD PUSH1 0x20 DUP2 DUP4 SUB SUB DUP2 MSTORE SWAP1 PUSH1 0x40 MSTORE SWAP2 POP DUP1 DUP1 PUSH1 0x1 ADD SWAP2 POP POP PUSH2 0x1195 JUMP JUMPDEST POP DUP1 SWAP2 POP POP SWAP2 SWAP1 POP JUMP JUMPDEST PUSH1 0x60 PUSH2 0x1203 DUP3 PUSH1 0x0 ADD MLOAD PUSH2 0xCCC JUMP JUMPDEST PUSH2 0x1210 DUP4 PUSH1 0x20 ADD MLOAD PUSH2 0x964 JUMP JUMPDEST PUSH1 0x40 MLOAD PUSH1 0x20 ADD PUSH2 0x1221 SWAP3 SWAP2 SWAP1 PUSH2 0x2F27 JUMP JUMPDEST PUSH1 0x40 MLOAD PUSH1 0x20 DUP2 DUP4 SUB SUB DUP2 MSTORE SWAP1 PUSH1 0x40 MSTORE SWAP1 POP SWAP2 SWAP1 POP JUMP JUMPDEST PUSH1 0x60 DUP1 PUSH2 0x1244 DUP4 MLOAD PUSH2 0x143B JUMP JUMPDEST SWAP1 POP PUSH1 0x0 JUMPDEST DUP4 MLOAD DUP2 LT ISZERO PUSH2 0x129E JUMPI DUP2 PUSH2 0x126F DUP6 DUP4 DUP2 MLOAD DUP2 LT PUSH2 0x1262 JUMPI INVALID JUMPDEST PUSH1 0x20 MUL PUSH1 0x20 ADD ADD MLOAD PUSH2 0x11F4 JUMP JUMPDEST PUSH1 0x40 MLOAD PUSH1 0x20 ADD PUSH2 0x1280 SWAP3 SWAP2 SWAP1 PUSH2 0x2F27 JUMP JUMPDEST PUSH1 0x40 MLOAD PUSH1 0x20 DUP2 DUP4 SUB SUB DUP2 MSTORE SWAP1 PUSH1 0x40 MSTORE SWAP2 POP DUP1 DUP1 PUSH1 0x1 ADD SWAP2 POP POP PUSH2 0x1249 JUMP JUMPDEST POP DUP1 SWAP2 POP POP SWAP2 SWAP1 POP JUMP JUMPDEST PUSH1 0x60 PUSH1 0x0 DUP3 PUSH1 0x40 MLOAD PUSH1 0x20 ADD PUSH2 0x12BD SWAP2 SWAP1 PUSH2 0x3297 JUMP JUMPDEST PUSH1 0x40 MLOAD PUSH1 0x20 DUP2 DUP4 SUB SUB DUP2 MSTORE SWAP1 PUSH1 0x40 MSTORE SWAP1 POP PUSH2 0x12D7 DUP2 PUSH2 0x893 JUMP JUMPDEST SWAP2 POP POP SWAP2 SWAP1 POP JUMP JUMPDEST PUSH1 0x60 DUP1 PUSH2 0x12EC DUP4 MLOAD PUSH2 0x143B JUMP JUMPDEST SWAP1 POP PUSH1 0x0 JUMPDEST DUP4 MLOAD DUP2 LT ISZERO PUSH2 0x1346 JUMPI DUP2 PUSH2 0x1317 DUP6 DUP4 DUP2 MLOAD DUP2 LT PUSH2 0x130A JUMPI INVALID JUMPDEST PUSH1 0x20 MUL PUSH1 0x20 ADD ADD MLOAD PUSH2 0xADA JUMP JUMPDEST PUSH1 0x40 MLOAD PUSH1 0x20 ADD PUSH2 0x1328 SWAP3 SWAP2 SWAP1 PUSH2 0x2F27 JUMP JUMPDEST PUSH1 0x40 MLOAD PUSH1 0x20 DUP2 DUP4 SUB SUB DUP2 MSTORE SWAP1 PUSH1 0x40 MSTORE SWAP2 POP DUP1 DUP1 PUSH1 0x1 ADD SWAP2 POP POP PUSH2 0x12F1 JUMP JUMPDEST POP DUP1 SWAP2 POP POP SWAP2 SWAP1 POP JUMP JUMPDEST PUSH1 0x60 DUP1 PUSH2 0x135D DUP4 MLOAD PUSH2 0x143B JUMP JUMPDEST SWAP1 POP PUSH1 0x0 JUMPDEST DUP4 MLOAD DUP2 LT ISZERO PUSH2 0x13B7 JUMPI DUP2 PUSH2 0x1388 DUP6 DUP4 DUP2 MLOAD DUP2 LT PUSH2 0x137B JUMPI INVALID JUMPDEST PUSH1 0x20 MUL PUSH1 0x20 ADD ADD MLOAD PUSH2 0x99B JUMP JUMPDEST PUSH1 0x40 MLOAD PUSH1 0x20 ADD PUSH2 0x1399 SWAP3 SWAP2 SWAP1 PUSH2 0x2F27 JUMP JUMPDEST PUSH1 0x40 MLOAD PUSH1 0x20 DUP2 DUP4 SUB SUB DUP2 MSTORE SWAP1 PUSH1 0x40 MSTORE SWAP2 POP DUP1 DUP1 PUSH1 0x1 ADD SWAP2 POP POP PUSH2 0x1362 JUMP JUMPDEST POP DUP1 SWAP2 POP POP SWAP2 SWAP1 POP JUMP JUMPDEST PUSH1 0x60 PUSH1 0x0 DUP3 PUSH1 0x40 MLOAD PUSH1 0x20 ADD PUSH2 0x13D6 SWAP2 SWAP1 PUSH2 0x3261 JUMP JUMPDEST PUSH1 0x40 MLOAD PUSH1 0x20 DUP2 DUP4 SUB SUB DUP2 MSTORE SWAP1 PUSH1 0x40 MSTORE SWAP1 POP PUSH2 0x13F0 DUP2 PUSH2 0x893 JUMP JUMPDEST SWAP2 POP POP SWAP2 SWAP1 POP JUMP JUMPDEST PUSH1 0x60 PUSH2 0x1407 DUP3 PUSH1 0x0 ADD MLOAD PUSH2 0xCCC JUMP JUMPDEST PUSH2 0x1414 DUP4 PUSH1 0x20 ADD MLOAD PUSH2 0xD03 JUMP JUMPDEST PUSH1 0x40 MLOAD PUSH1 0x20 ADD PUSH2 0x1425 SWAP3 SWAP2 SWAP1 PUSH2 0x2F27 JUMP JUMPDEST PUSH1 0x40 MLOAD PUSH1 0x20 DUP2 DUP4 SUB SUB DUP2 MSTORE SWAP1 PUSH1 0x40 MSTORE SWAP1 POP SWAP2 SWAP1 POP JUMP JUMPDEST PUSH1 0x60 PUSH1 0x0 DUP3 PUSH1 0x40 MLOAD PUSH1 0x20 ADD PUSH2 0x1450 SWAP2 SWAP1 PUSH2 0x327C JUMP JUMPDEST PUSH1 0x40 MLOAD PUSH1 0x20 DUP2 DUP4 SUB SUB DUP2 MSTORE SWAP1 PUSH1 0x40 MSTORE SWAP1 POP PUSH2 0x146A DUP2 PUSH2 0x893 JUMP JUMPDEST SWAP2 POP POP SWAP2 SWAP1 POP JUMP JUMPDEST PUSH1 0x60 PUSH2 0x1481 DUP3 PUSH1 0x0 ADD MLOAD PUSH2 0x12A8 JUMP JUMPDEST PUSH2 0x148E DUP4 PUSH1 0x20 ADD MLOAD PUSH2 0xA66 JUMP JUMPDEST PUSH2 0x149B DUP5 PUSH1 0x40 ADD MLOAD PUSH2 0x12A8 JUMP JUMPDEST PUSH2 0x14A8 DUP6 PUSH1 0x60 ADD MLOAD PUSH2 0xD03 JUMP JUMPDEST PUSH2 0x14B5 DUP7 PUSH1 0x80 ADD MLOAD PUSH2 0x143B JUMP JUMPDEST PUSH2 0x14C2 DUP8 PUSH1 0xA0 ADD MLOAD PUSH2 0xF45 JUMP JUMPDEST PUSH2 0x14CF DUP9 PUSH1 0xC0 ADD MLOAD PUSH2 0x143B JUMP JUMPDEST PUSH2 0x14DC DUP10 PUSH1 0xE0 ADD MLOAD PUSH2 0x964 JUMP JUMPDEST PUSH2 0x14EA DUP11 PUSH2 0x100 ADD MLOAD PUSH2 0x1183 JUMP JUMPDEST PUSH2 0x14F8 DUP12 PUSH2 0x120 ADD MLOAD PUSH2 0x12DF JUMP JUMPDEST PUSH2 0x1506 DUP13 PUSH2 0x140 ADD MLOAD PUSH2 0x1350 JUMP JUMPDEST PUSH1 0x40 MLOAD PUSH1 0x20 ADD PUSH2 0x1520 SWAP12 SWAP11 SWAP10 SWAP9 SWAP8 SWAP7 SWAP6 SWAP5 SWAP4 SWAP3 SWAP2 SWAP1 PUSH2 0x3053 JUMP JUMPDEST PUSH1 0x40 MLOAD PUSH1 0x20 DUP2 DUP4 SUB SUB DUP2 MSTORE SWAP1 PUSH1 0x40 MSTORE SWAP1 POP SWAP2 SWAP1 POP JUMP JUMPDEST PUSH1 0x60 DUP1 PUSH2 0x1543 DUP4 MLOAD PUSH2 0x143B JUMP JUMPDEST SWAP1 POP PUSH1 0x0 JUMPDEST DUP4 MLOAD DUP2 LT ISZERO PUSH2 0x15BC JUMPI DUP2 PUSH2 0x158D DUP6 DUP4 DUP2 MLOAD DUP2 LT PUSH2 0x1561 JUMPI INVALID JUMPDEST PUSH1 0x20 MUL PUSH1 0x20 ADD ADD MLOAD PUSH1 0x40 MLOAD PUSH1 0x20 ADD PUSH2 0x1579 SWAP2 SWAP1 PUSH2 0x31F0 JUMP JUMPDEST PUSH1 0x40 MLOAD PUSH1 0x20 DUP2 DUP4 SUB SUB DUP2 MSTORE SWAP1 PUSH1 0x40 MSTORE PUSH2 0x893 JUMP JUMPDEST PUSH1 0x40 MLOAD PUSH1 0x20 ADD PUSH2 0x159E SWAP3 SWAP2 SWAP1 PUSH2 0x2F27 JUMP JUMPDEST PUSH1 0x40 MLOAD PUSH1 0x20 DUP2 DUP4 SUB SUB DUP2 MSTORE SWAP1 PUSH1 0x40 MSTORE SWAP2 POP DUP1 DUP1 PUSH1 0x1 ADD SWAP2 POP POP PUSH2 0x1548 JUMP JUMPDEST POP DUP1 SWAP2 POP POP SWAP2 SWAP1 POP JUMP JUMPDEST PUSH1 0x60 PUSH1 0x0 DUP3 PUSH1 0x40 MLOAD PUSH1 0x20 ADD PUSH2 0x15DB SWAP2 SWAP1 PUSH2 0x31D5 JUMP JUMPDEST PUSH1 0x40 MLOAD PUSH1 0x20 DUP2 DUP4 SUB SUB DUP2 MSTORE SWAP1 PUSH1 0x40 MSTORE SWAP1 POP PUSH2 0x15F5 DUP2 PUSH2 0x893 JUMP JUMPDEST SWAP2 POP POP SWAP2 SWAP1 POP JUMP JUMPDEST PUSH1 0x0 PUSH2 0x1610 PUSH2 0x160B DUP5 PUSH2 0x333B JUMP JUMPDEST PUSH2 0x330A JUMP JUMPDEST SWAP1 POP DUP1 DUP4 DUP3 MSTORE PUSH1 0x20 DUP3 ADD SWAP1 POP DUP3 DUP6 PUSH1 0x20 DUP7 MUL DUP3 ADD GT ISZERO PUSH2 0x162F JUMPI PUSH1 0x0 DUP1 REVERT JUMPDEST PUSH1 0x0 JUMPDEST DUP6 DUP2 LT ISZERO PUSH2 0x165F JUMPI DUP2 PUSH2 0x1645 DUP9 DUP3 PUSH2 0x1B8D JUMP JUMPDEST DUP5 MSTORE PUSH1 0x20 DUP5 ADD SWAP4 POP PUSH1 0x20 DUP4 ADD SWAP3 POP POP PUSH1 0x1 DUP2 ADD SWAP1 POP PUSH2 0x1632 JUMP JUMPDEST POP POP POP SWAP4 SWAP3 POP POP POP JUMP JUMPDEST PUSH1 0x0 PUSH2 0x167C PUSH2 0x1677 DUP5 PUSH2 0x3367 JUMP JUMPDEST PUSH2 0x330A JUMP JUMPDEST SWAP1 POP DUP1 DUP4 DUP3 MSTORE PUSH1 0x20 DUP3 ADD SWAP1 POP DUP3 DUP6 PUSH1 0x20 DUP7 MUL DUP3 ADD GT ISZERO PUSH2 0x169B JUMPI PUSH1 0x0 DUP1 REVERT JUMPDEST PUSH1 0x0 JUMPDEST DUP6 DUP2 LT ISZERO PUSH2 0x16CB JUMPI DUP2 PUSH2 0x16B1 DUP9 DUP3 PUSH2 0x1BA2 JUMP JUMPDEST DUP5 MSTORE PUSH1 0x20 DUP5 ADD SWAP4 POP PUSH1 0x20 DUP4 ADD SWAP3 POP POP PUSH1 0x1 DUP2 ADD SWAP1 POP PUSH2 0x169E JUMP JUMPDEST POP POP POP SWAP4 SWAP3 POP POP POP JUMP JUMPDEST PUSH1 0x0 PUSH2 0x16E8 PUSH2 0x16E3 DUP5 PUSH2 0x3393 JUMP JUMPDEST PUSH2 0x330A JUMP JUMPDEST SWAP1 POP DUP1 DUP4 DUP3 MSTORE PUSH1 0x20 DUP3 ADD SWAP1 POP DUP3 DUP6 PUSH1 0x40 DUP7 MUL DUP3 ADD GT ISZERO PUSH2 0x1707 JUMPI PUSH1 0x0 DUP1 REVERT JUMPDEST PUSH1 0x0 JUMPDEST DUP6 DUP2 LT ISZERO PUSH2 0x1737 JUMPI DUP2 PUSH2 0x171D DUP9 DUP3 PUSH2 0x205F JUMP JUMPDEST DUP5 MSTORE PUSH1 0x20 DUP5 ADD SWAP4 POP PUSH1 0x40 DUP4 ADD SWAP3 POP POP PUSH1 0x1 DUP2 ADD SWAP1 POP PUSH2 0x170A JUMP JUMPDEST POP POP POP SWAP4 SWAP3 POP POP POP JUMP JUMPDEST PUSH1 0x0 PUSH2 0x1754 PUSH2 0x174F DUP5 PUSH2 0x33BF JUMP JUMPDEST PUSH2 0x330A JUMP JUMPDEST SWAP1 POP DUP1 DUP4 DUP3 MSTORE PUSH1 0x20 DUP3 ADD SWAP1 POP DUP3 PUSH1 0x0 JUMPDEST DUP6 DUP2 LT ISZERO PUSH2 0x1794 JUMPI DUP2 CALLDATALOAD DUP6 ADD PUSH2 0x177A DUP9 DUP3 PUSH2 0x20AB JUMP JUMPDEST DUP5 MSTORE PUSH1 0x20 DUP5 ADD SWAP4 POP PUSH1 0x20 DUP4 ADD SWAP3 POP POP PUSH1 0x1 DUP2 ADD SWAP1 POP PUSH2 0x1764 JUMP JUMPDEST POP POP POP SWAP4 SWAP3 POP POP POP JUMP JUMPDEST PUSH1 0x0 PUSH2 0x17B1 PUSH2 0x17AC DUP5 PUSH2 0x33EB JUMP JUMPDEST PUSH2 0x330A JUMP JUMPDEST SWAP1 POP DUP1 DUP4 DUP3 MSTORE PUSH1 0x20 DUP3 ADD SWAP1 POP DUP3 DUP6 PUSH2 0x160 DUP7 MUL DUP3 ADD GT ISZERO PUSH2 0x17D1 JUMPI PUSH1 0x0 DUP1 REVERT JUMPDEST PUSH1 0x0 JUMPDEST DUP6 DUP2 LT ISZERO PUSH2 0x1802 JUMPI DUP2 PUSH2 0x17E7 DUP9 DUP3 PUSH2 0x2328 JUMP JUMPDEST DUP5 MSTORE PUSH1 0x20 DUP5 ADD SWAP4 POP PUSH2 0x160 DUP4 ADD SWAP3 POP POP PUSH1 0x1 DUP2 ADD SWAP1 POP PUSH2 0x17D4 JUMP JUMPDEST POP POP POP SWAP4 SWAP3 POP POP POP JUMP JUMPDEST PUSH1 0x0 PUSH2 0x181F PUSH2 0x181A DUP5 PUSH2 0x3417 JUMP JUMPDEST PUSH2 0x330A JUMP JUMPDEST SWAP1 POP DUP1 DUP4 DUP3 MSTORE PUSH1 0x20 DUP3 ADD SWAP1 POP DUP3 PUSH1 0x0 JUMPDEST DUP6 DUP2 LT ISZERO PUSH2 0x185F JUMPI DUP2 CALLDATALOAD DUP6 ADD PUSH2 0x1845 DUP9 DUP3 PUSH2 0x249E JUMP JUMPDEST DUP5 MSTORE PUSH1 0x20 DUP5 ADD SWAP4 POP PUSH1 0x20 DUP4 ADD SWAP3 POP POP PUSH1 0x1 DUP2 ADD SWAP1 POP PUSH2 0x182F JUMP JUMPDEST POP POP POP SWAP4 SWAP3 POP POP POP JUMP JUMPDEST PUSH1 0x0 PUSH2 0x187C PUSH2 0x1877 DUP5 PUSH2 0x3443 JUMP JUMPDEST PUSH2 0x330A JUMP JUMPDEST SWAP1 POP DUP1 DUP4 DUP3 MSTORE PUSH1 0x20 DUP3 ADD SWAP1 POP DUP3 DUP6 PUSH2 0x100 DUP7 MUL DUP3 ADD GT ISZERO PUSH2 0x189C JUMPI PUSH1 0x0 DUP1 REVERT JUMPDEST PUSH1 0x0 JUMPDEST DUP6 DUP2 LT ISZERO PUSH2 0x18CD JUMPI DUP2 PUSH2 0x18B2 DUP9 DUP3 PUSH2 0x2502 JUMP JUMPDEST DUP5 MSTORE PUSH1 0x20 DUP5 ADD SWAP4 POP PUSH2 0x100 DUP4 ADD SWAP3 POP POP PUSH1 0x1 DUP2 ADD SWAP1 POP PUSH2 0x189F JUMP JUMPDEST POP POP POP SWAP4 SWAP3 POP POP POP JUMP JUMPDEST PUSH1 0x0 PUSH2 0x18EA PUSH2 0x18E5 DUP5 PUSH2 0x346F JUMP JUMPDEST PUSH2 0x330A JUMP JUMPDEST SWAP1 POP DUP1 DUP4 DUP3 MSTORE PUSH1 0x20 DUP3 ADD SWAP1 POP DUP3 DUP6 PUSH1 0x20 DUP7 MUL DUP3 ADD GT ISZERO PUSH2 0x1909 JUMPI PUSH1 0x0 DUP1 REVERT JUMPDEST PUSH1 0x0 JUMPDEST DUP6 DUP2 LT ISZERO PUSH2 0x1939 JUMPI DUP2 PUSH2 0x191F DUP9 DUP3 PUSH2 0x2564 JUMP JUMPDEST DUP5 MSTORE PUSH1 0x20 DUP5 ADD SWAP4 POP PUSH1 0x20 DUP4 ADD SWAP3 POP POP PUSH1 0x1 DUP2 ADD SWAP1 POP PUSH2 0x190C JUMP JUMPDEST POP POP POP SWAP4 SWAP3 POP POP POP JUMP JUMPDEST PUSH1 0x0 PUSH2 0x1956 PUSH2 0x1951 DUP5 PUSH2 0x349B JUMP JUMPDEST PUSH2 0x330A JUMP JUMPDEST SWAP1 POP DUP3 DUP2 MSTORE PUSH1 0x20 DUP2 ADD DUP5 DUP5 DUP5 ADD GT ISZERO PUSH2 0x196E JUMPI PUSH1 0x0 DUP1 REVERT JUMPDEST PUSH2 0x1979 DUP5 DUP3 DUP6 PUSH2 0x3612 JUMP JUMPDEST POP SWAP4 SWAP3 POP POP POP JUMP JUMPDEST PUSH1 0x0 PUSH2 0x1994 PUSH2 0x198F DUP5 PUSH2 0x34CB JUMP JUMPDEST PUSH2 0x330A JUMP JUMPDEST SWAP1 POP DUP3 DUP2 MSTORE PUSH1 0x20 DUP2 ADD DUP5 DUP5 DUP5 ADD GT ISZERO PUSH2 0x19AC JUMPI PUSH1 0x0 DUP1 REVERT JUMPDEST PUSH2 0x19B7 DUP5 DUP3 DUP6 PUSH2 0x3612 JUMP JUMPDEST POP SWAP4 SWAP3 POP POP POP JUMP JUMPDEST PUSH1 0x0 DUP2 CALLDATALOAD SWAP1 POP PUSH2 0x19CE DUP2 PUSH2 0x3770 JUMP JUMPDEST SWAP3 SWAP2 POP POP JUMP JUMPDEST PUSH1 0x0 DUP3 PUSH1 0x1F DUP4 ADD SLT PUSH2 0x19E5 JUMPI PUSH1 0x0 DUP1 REVERT JUMPDEST DUP2 CALLDATALOAD PUSH2 0x19F5 DUP5 DUP3 PUSH1 0x20 DUP7 ADD PUSH2 0x15FD JUMP JUMPDEST SWAP2 POP POP SWAP3 SWAP2 POP POP JUMP JUMPDEST PUSH1 0x0 DUP3 PUSH1 0x1F DUP4 ADD SLT PUSH2 0x1A0F JUMPI PUSH1 0x0 DUP1 REVERT JUMPDEST DUP2 CALLDATALOAD PUSH2 0x1A1F DUP5 DUP3 PUSH1 0x20 DUP7 ADD PUSH2 0x1669 JUMP JUMPDEST SWAP2 POP POP SWAP3 SWAP2 POP POP JUMP JUMPDEST PUSH1 0x0 DUP3 PUSH1 0x1F DUP4 ADD SLT PUSH2 0x1A39 JUMPI PUSH1 0x0 DUP1 REVERT JUMPDEST DUP2 CALLDATALOAD PUSH2 0x1A49 DUP5 DUP3 PUSH1 0x20 DUP7 ADD PUSH2 0x16D5 JUMP JUMPDEST SWAP2 POP POP SWAP3 SWAP2 POP POP JUMP JUMPDEST PUSH1 0x0 DUP3 PUSH1 0x1F DUP4 ADD SLT PUSH2 0x1A63 JUMPI PUSH1 0x0 DUP1 REVERT JUMPDEST DUP2 CALLDATALOAD PUSH2 0x1A73 DUP5 DUP3 PUSH1 0x20 DUP7 ADD PUSH2 0x1741 JUMP JUMPDEST SWAP2 POP POP SWAP3 SWAP2 POP POP JUMP JUMPDEST PUSH1 0x0 DUP3 PUSH1 0x1F DUP4 ADD SLT PUSH2 0x1A8D JUMPI PUSH1 0x0 DUP1 REVERT JUMPDEST DUP2 CALLDATALOAD PUSH2 0x1A9D DUP5 DUP3 PUSH1 0x20 DUP7 ADD PUSH2 0x179E JUMP JUMPDEST SWAP2 POP POP SWAP3 SWAP2 POP POP JUMP JUMPDEST PUSH1 0x0 DUP3 PUSH1 0x1F DUP4 ADD SLT PUSH2 0x1AB7 JUMPI PUSH1 0x0 DUP1 REVERT JUMPDEST DUP2 CALLDATALOAD PUSH2 0x1AC7 DUP5 DUP3 PUSH1 0x20 DUP7 ADD PUSH2 0x180C JUMP JUMPDEST SWAP2 POP POP SWAP3 SWAP2 POP POP JUMP JUMPDEST PUSH1 0x0 DUP3 PUSH1 0x1F DUP4 ADD SLT PUSH2 0x1AE1 JUMPI PUSH1 0x0 DUP1 REVERT JUMPDEST DUP2 CALLDATALOAD PUSH2 0x1AF1 DUP5 DUP3 PUSH1 0x20 DUP7 ADD PUSH2 0x1869 JUMP JUMPDEST SWAP2 POP POP SWAP3 SWAP2 POP POP JUMP JUMPDEST PUSH1 0x0 DUP3 PUSH1 0x1F DUP4 ADD SLT PUSH2 0x1B0B JUMPI PUSH1 0x0 DUP1 REVERT JUMPDEST DUP2 CALLDATALOAD PUSH2 0x1B1B DUP5 DUP3 PUSH1 0x20 DUP7 ADD PUSH2 0x18D7 JUMP JUMPDEST SWAP2 POP POP SWAP3 SWAP2 POP POP JUMP JUMPDEST PUSH1 0x0 DUP2 CALLDATALOAD SWAP1 POP PUSH2 0x1B33 DUP2 PUSH2 0x3787 JUMP JUMPDEST SWAP3 SWAP2 POP POP JUMP JUMPDEST PUSH1 0x0 DUP2 CALLDATALOAD SWAP1 POP PUSH2 0x1B48 DUP2 PUSH2 0x379E JUMP JUMPDEST SWAP3 SWAP2 POP POP JUMP JUMPDEST PUSH1 0x0 DUP3 PUSH1 0x1F DUP4 ADD SLT PUSH2 0x1B5F JUMPI PUSH1 0x0 DUP1 REVERT JUMPDEST DUP2 CALLDATALOAD PUSH2 0x1B6F DUP5 DUP3 PUSH1 0x20 DUP7 ADD PUSH2 0x1943 JUMP JUMPDEST SWAP2 POP POP SWAP3 SWAP2 POP POP JUMP JUMPDEST PUSH1 0x0 DUP2 CALLDATALOAD SWAP1 POP PUSH2 0x1B87 DUP2 PUSH2 0x37B5 JUMP JUMPDEST SWAP3 SWAP2 POP POP JUMP JUMPDEST PUSH1 0x0 DUP2 CALLDATALOAD SWAP1 POP PUSH2 0x1B9C DUP2 PUSH2 0x37CC JUMP JUMPDEST SWAP3 SWAP2 POP POP JUMP JUMPDEST PUSH1 0x0 DUP2 CALLDATALOAD SWAP1 POP PUSH2 0x1BB1 DUP2 PUSH2 0x37E3 JUMP JUMPDEST SWAP3 SWAP2 POP POP JUMP JUMPDEST PUSH1 0x0 DUP3 PUSH1 0x1F DUP4 ADD SLT PUSH2 0x1BC8 JUMPI PUSH1 0x0 DUP1 REVERT JUMPDEST DUP2 CALLDATALOAD PUSH2 0x1BD8 DUP5 DUP3 PUSH1 0x20 DUP7 ADD PUSH2 0x1981 JUMP JUMPDEST SWAP2 POP POP SWAP3 SWAP2 POP POP JUMP JUMPDEST PUSH1 0x0 PUSH2 0x2A0 DUP3 DUP5 SUB SLT ISZERO PUSH2 0x1BF4 JUMPI PUSH1 0x0 DUP1 REVERT JUMPDEST PUSH2 0x1BFF PUSH2 0x2A0 PUSH2 0x330A JUMP JUMPDEST SWAP1 POP PUSH1 0x0 PUSH2 0x1C0F DUP5 DUP3 DUP6 ADD PUSH2 0x254F JUMP JUMPDEST PUSH1 0x0 DUP4 ADD MSTORE POP PUSH1 0x20 PUSH2 0x1C23 DUP5 DUP3 DUP6 ADD PUSH2 0x254F JUMP JUMPDEST PUSH1 0x20 DUP4 ADD MSTORE POP PUSH1 0x40 PUSH2 0x1C37 DUP5 DUP3 DUP6 ADD PUSH2 0x2564 JUMP JUMPDEST PUSH1 0x40 DUP4 ADD MSTORE POP PUSH1 0x60 DUP3 ADD CALLDATALOAD PUSH8 0xFFFFFFFFFFFFFFFF DUP2 GT ISZERO PUSH2 0x1C57 JUMPI PUSH1 0x0 DUP1 REVERT JUMPDEST PUSH2 0x1C63 DUP5 DUP3 DUP6 ADD PUSH2 0x1AFA JUMP JUMPDEST PUSH1 0x60 DUP4 ADD MSTORE POP PUSH1 0x80 DUP3 ADD CALLDATALOAD PUSH8 0xFFFFFFFFFFFFFFFF DUP2 GT ISZERO PUSH2 0x1C83 JUMPI PUSH1 0x0 DUP1 REVERT JUMPDEST PUSH2 0x1C8F DUP5 DUP3 DUP6 ADD PUSH2 0x19D4 JUMP JUMPDEST PUSH1 0x80 DUP4 ADD MSTORE POP PUSH1 0xA0 DUP3 ADD CALLDATALOAD PUSH8 0xFFFFFFFFFFFFFFFF DUP2 GT ISZERO PUSH2 0x1CAF JUMPI PUSH1 0x0 DUP1 REVERT JUMPDEST PUSH2 0x1CBB DUP5 DUP3 DUP6 ADD PUSH2 0x19FE JUMP JUMPDEST PUSH1 0xA0 DUP4 ADD MSTORE POP PUSH1 0xC0 PUSH2 0x1CCF DUP5 DUP3 DUP6 ADD PUSH2 0x1BA2 JUMP JUMPDEST PUSH1 0xC0 DUP4 ADD MSTORE POP PUSH1 0xE0 PUSH2 0x1CE3 DUP5 DUP3 DUP6 ADD PUSH2 0x1BA2 JUMP JUMPDEST PUSH1 0xE0 DUP4 ADD MSTORE POP PUSH2 0x100 PUSH2 0x1CF8 DUP5 DUP3 DUP6 ADD PUSH2 0x1BA2 JUMP JUMPDEST PUSH2 0x100 DUP4 ADD MSTORE POP PUSH2 0x120 PUSH2 0x1D0E DUP5 DUP3 DUP6 ADD PUSH2 0x1BA2 JUMP JUMPDEST PUSH2 0x120 DUP4 ADD MSTORE POP PUSH2 0x140 PUSH2 0x1D24 DUP5 DUP3 DUP6 ADD PUSH2 0x1BA2 JUMP JUMPDEST PUSH2 0x140 DUP4 ADD MSTORE POP PUSH2 0x160 PUSH2 0x1D3A DUP5 DUP3 DUP6 ADD PUSH2 0x1BA2 JUMP JUMPDEST PUSH2 0x160 DUP4 ADD MSTORE POP PUSH2 0x180 PUSH2 0x1D50 DUP5 DUP3 DUP6 ADD PUSH2 0x1BA2 JUMP JUMPDEST PUSH2 0x180 DUP4 ADD MSTORE POP PUSH2 0x1A0 DUP3 ADD CALLDATALOAD PUSH8 0xFFFFFFFFFFFFFFFF DUP2 GT ISZERO PUSH2 0x1D72 JUMPI PUSH1 0x0 DUP1 REVERT JUMPDEST PUSH2 0x1D7E DUP5 DUP3 DUP6 ADD PUSH2 0x19FE JUMP JUMPDEST PUSH2 0x1A0 DUP4 ADD MSTORE POP PUSH2 0x1C0 DUP3 ADD CALLDATALOAD PUSH8 0xFFFFFFFFFFFFFFFF DUP2 GT ISZERO PUSH2 0x1DA0 JUMPI PUSH1 0x0 DUP1 REVERT JUMPDEST PUSH2 0x1DAC DUP5 DUP3 DUP6 ADD PUSH2 0x19FE JUMP JUMPDEST PUSH2 0x1C0 DUP4 ADD MSTORE POP PUSH2 0x1E0 DUP3 ADD CALLDATALOAD PUSH8 0xFFFFFFFFFFFFFFFF DUP2 GT ISZERO PUSH2 0x1DCE JUMPI PUSH1 0x0 DUP1 REVERT JUMPDEST PUSH2 0x1DDA DUP5 DUP3 DUP6 ADD PUSH2 0x19FE JUMP JUMPDEST PUSH2 0x1E0 DUP4 ADD MSTORE POP PUSH2 0x200 DUP3 ADD CALLDATALOAD PUSH8 0xFFFFFFFFFFFFFFFF DUP2 GT ISZERO PUSH2 0x1DFC JUMPI PUSH1 0x0 DUP1 REVERT JUMPDEST PUSH2 0x1E08 DUP5 DUP3 DUP6 ADD PUSH2 0x19FE JUMP JUMPDEST PUSH2 0x200 DUP4 ADD MSTORE POP PUSH2 0x220 DUP3 ADD CALLDATALOAD PUSH8 0xFFFFFFFFFFFFFFFF DUP2 GT ISZERO PUSH2 0x1E2A JUMPI PUSH1 0x0 DUP1 REVERT JUMPDEST PUSH2 0x1E36 DUP5 DUP3 DUP6 ADD PUSH2 0x19FE JUMP JUMPDEST PUSH2 0x220 DUP4 ADD MSTORE POP PUSH2 0x240 DUP3 ADD CALLDATALOAD PUSH8 0xFFFFFFFFFFFFFFFF DUP2 GT ISZERO PUSH2 0x1E58 JUMPI PUSH1 0x0 DUP1 REVERT JUMPDEST PUSH2 0x1E64 DUP5 DUP3 DUP6 ADD PUSH2 0x19FE JUMP JUMPDEST PUSH2 0x240 DUP4 ADD MSTORE POP PUSH2 0x260 DUP3 ADD CALLDATALOAD PUSH8 0xFFFFFFFFFFFFFFFF DUP2 GT ISZERO PUSH2 0x1E86 JUMPI PUSH1 0x0 DUP1 REVERT JUMPDEST PUSH2 0x1E92 DUP5 DUP3 DUP6 ADD PUSH2 0x19FE JUMP JUMPDEST PUSH2 0x260 DUP4 ADD MSTORE POP PUSH2 0x280 DUP3 ADD CALLDATALOAD PUSH8 0xFFFFFFFFFFFFFFFF DUP2 GT ISZERO PUSH2 0x1EB4 JUMPI PUSH1 0x0 DUP1 REVERT JUMPDEST PUSH2 0x1EC0 DUP5 DUP3 DUP6 ADD PUSH2 0x19D4 JUMP JUMPDEST PUSH2 0x280 DUP4 ADD MSTORE POP SWAP3 SWAP2 POP POP JUMP JUMPDEST PUSH1 0x0 PUSH2 0x1C0 DUP3 DUP5 SUB SLT ISZERO PUSH2 0x1EE0 JUMPI PUSH1 0x0 DUP1 REVERT JUMPDEST PUSH2 0x1EEB PUSH2 0x1C0 PUSH2 0x330A JUMP JUMPDEST SWAP1 POP PUSH1 0x0 PUSH2 0x1EFB DUP5 DUP3 DUP6 ADD PUSH2 0x258E JUMP JUMPDEST PUSH1 0x0 DUP4 ADD MSTORE POP PUSH1 0x20 PUSH2 0x1F0F DUP5 DUP3 DUP6 ADD PUSH2 0x258E JUMP JUMPDEST PUSH1 0x20 DUP4 ADD MSTORE POP PUSH1 0x40 PUSH2 0x1F23 DUP5 DUP3 DUP6 ADD PUSH2 0x2564 JUMP JUMPDEST PUSH1 0x40 DUP4 ADD MSTORE POP PUSH1 0x60 PUSH2 0x1F37 DUP5 DUP3 DUP6 ADD PUSH2 0x258E JUMP JUMPDEST PUSH1 0x60 DUP4 ADD MSTORE POP PUSH1 0x80 PUSH2 0x1F4B DUP5 DUP3 DUP6 ADD PUSH2 0x258E JUMP JUMPDEST PUSH1 0x80 DUP4 ADD MSTORE POP PUSH1 0xA0 PUSH2 0x1F5F DUP5 DUP3 DUP6 ADD PUSH2 0x2564 JUMP JUMPDEST PUSH1 0xA0 DUP4 ADD MSTORE POP PUSH1 0xC0 PUSH2 0x1F73 DUP5 DUP3 DUP6 ADD PUSH2 0x2564 JUMP JUMPDEST PUSH1 0xC0 DUP4 ADD MSTORE POP PUSH1 0xE0 PUSH2 0x1F87 DUP5 DUP3 DUP6 ADD PUSH2 0x1B8D JUMP JUMPDEST PUSH1 0xE0 DUP4 ADD MSTORE POP PUSH2 0x100 DUP3 ADD CALLDATALOAD PUSH8 0xFFFFFFFFFFFFFFFF DUP2 GT ISZERO PUSH2 0x1FA8 JUMPI PUSH1 0x0 DUP1 REVERT JUMPDEST PUSH2 0x1FB4 DUP5 DUP3 DUP6 ADD PUSH2 0x1A28 JUMP JUMPDEST PUSH2 0x100 DUP4 ADD MSTORE POP PUSH2 0x120 DUP3 ADD CALLDATALOAD PUSH8 0xFFFFFFFFFFFFFFFF DUP2 GT ISZERO PUSH2 0x1FD6 JUMPI PUSH1 0x0 DUP1 REVERT JUMPDEST PUSH2 0x1FE2 DUP5 DUP3 DUP6 ADD PUSH2 0x1A28 JUMP JUMPDEST PUSH2 0x120 DUP4 ADD MSTORE POP PUSH2 0x140 PUSH2 0x1FF8 DUP5 DUP3 DUP6 ADD PUSH2 0x2579 JUMP JUMPDEST PUSH2 0x140 DUP4 ADD MSTORE POP PUSH2 0x160 DUP3 ADD CALLDATALOAD PUSH8 0xFFFFFFFFFFFFFFFF DUP2 GT ISZERO PUSH2 0x201A JUMPI PUSH1 0x0 DUP1 REVERT JUMPDEST PUSH2 0x2026 DUP5 DUP3 DUP6 ADD PUSH2 0x1A28 JUMP JUMPDEST PUSH2 0x160 DUP4 ADD MSTORE POP PUSH2 0x180 PUSH2 0x203C DUP5 DUP3 DUP6 ADD PUSH2 0x19BF JUMP JUMPDEST PUSH2 0x180 DUP4 ADD MSTORE POP PUSH2 0x1A0 PUSH2 0x2052 DUP5 DUP3 DUP6 ADD PUSH2 0x1B8D JUMP JUMPDEST PUSH2 0x1A0 DUP4 ADD MSTORE POP SWAP3 SWAP2 POP POP JUMP JUMPDEST PUSH1 0x0 PUSH1 0x40 DUP3 DUP5 SUB SLT ISZERO PUSH2 0x2071 JUMPI PUSH1 0x0 DUP1 REVERT JUMPDEST PUSH2 0x207B PUSH1 0x40 PUSH2 0x330A JUMP JUMPDEST SWAP1 POP PUSH1 0x0 PUSH2 0x208B DUP5 DUP3 DUP6 ADD PUSH2 0x2564 JUMP JUMPDEST PUSH1 0x0 DUP4 ADD MSTORE POP PUSH1 0x20 PUSH2 0x209F DUP5 DUP3 DUP6 ADD PUSH2 0x25A3 JUMP JUMPDEST PUSH1 0x20 DUP4 ADD MSTORE POP SWAP3 SWAP2 POP POP JUMP JUMPDEST PUSH1 0x0 PUSH1 0x40 DUP3 DUP5 SUB SLT ISZERO PUSH2 0x20BD JUMPI PUSH1 0x0 DUP1 REVERT JUMPDEST PUSH2 0x20C7 PUSH1 0x40 PUSH2 0x330A JUMP JUMPDEST SWAP1 POP PUSH1 0x0 DUP3 ADD CALLDATALOAD PUSH8 0xFFFFFFFFFFFFFFFF DUP2 GT ISZERO PUSH2 0x20E3 JUMPI PUSH1 0x0 DUP1 REVERT JUMPDEST PUSH2 0x20EF DUP5 DUP3 DUP6 ADD PUSH2 0x1BB7 JUMP JUMPDEST PUSH1 0x0 DUP4 ADD MSTORE POP PUSH1 0x20 PUSH2 0x2103 DUP5 DUP3 DUP6 ADD PUSH2 0x2564 JUMP JUMPDEST PUSH1 0x20 DUP4 ADD MSTORE POP SWAP3 SWAP2 POP POP JUMP JUMPDEST PUSH1 0x0 PUSH2 0x180 DUP3 DUP5 SUB SLT ISZERO PUSH2 0x2122 JUMPI PUSH1 0x0 DUP1 REVERT JUMPDEST PUSH2 0x212D PUSH2 0x160 PUSH2 0x330A JUMP JUMPDEST SWAP1 POP PUSH1 0x0 PUSH2 0x213D DUP5 DUP3 DUP6 ADD PUSH2 0x258E JUMP JUMPDEST PUSH1 0x0 DUP4 ADD MSTORE POP PUSH1 0x20 PUSH2 0x2151 DUP5 DUP3 DUP6 ADD PUSH2 0x2406 JUMP JUMPDEST PUSH1 0x20 DUP4 ADD MSTORE POP PUSH1 0x60 PUSH2 0x2165 DUP5 DUP3 DUP6 ADD PUSH2 0x258E JUMP JUMPDEST PUSH1 0x40 DUP4 ADD MSTORE POP PUSH1 0x80 DUP3 ADD CALLDATALOAD PUSH8 0xFFFFFFFFFFFFFFFF DUP2 GT ISZERO PUSH2 0x2185 JUMPI PUSH1 0x0 DUP1 REVERT JUMPDEST PUSH2 0x2191 DUP5 DUP3 DUP6 ADD PUSH2 0x1BE1 JUMP JUMPDEST PUSH1 0x60 DUP4 ADD MSTORE POP PUSH1 0xA0 PUSH2 0x21A5 DUP5 DUP3 DUP6 ADD PUSH2 0x2579 JUMP JUMPDEST PUSH1 0x80 DUP4 ADD MSTORE POP PUSH1 0xC0 PUSH2 0x21B9 DUP5 DUP3 DUP6 ADD PUSH2 0x1BA2 JUMP JUMPDEST PUSH1 0xA0 DUP4 ADD MSTORE POP PUSH1 0xE0 PUSH2 0x21CD DUP5 DUP3 DUP6 ADD PUSH2 0x2579 JUMP JUMPDEST PUSH1 0xC0 DUP4 ADD MSTORE POP PUSH2 0x100 PUSH2 0x21E2 DUP5 DUP3 DUP6 ADD PUSH2 0x25A3 JUMP JUMPDEST PUSH1 0xE0 DUP4 ADD MSTORE POP PUSH2 0x120 DUP3 ADD CALLDATALOAD PUSH8 0xFFFFFFFFFFFFFFFF DUP2 GT ISZERO PUSH2 0x2203 JUMPI PUSH1 0x0 DUP1 REVERT JUMPDEST PUSH2 0x220F DUP5 DUP3 DUP6 ADD PUSH2 0x1AA6 JUMP JUMPDEST PUSH2 0x100 DUP4 ADD MSTORE POP PUSH2 0x140 DUP3 ADD CALLDATALOAD PUSH8 0xFFFFFFFFFFFFFFFF DUP2 GT ISZERO PUSH2 0x2231 JUMPI PUSH1 0x0 DUP1 REVERT JUMPDEST PUSH2 0x223D DUP5 DUP3 DUP6 ADD PUSH2 0x1AD0 JUMP JUMPDEST PUSH2 0x120 DUP4 ADD MSTORE POP PUSH2 0x160 DUP3 ADD CALLDATALOAD PUSH8 0xFFFFFFFFFFFFFFFF DUP2 GT ISZERO PUSH2 0x225F JUMPI PUSH1 0x0 DUP1 REVERT JUMPDEST PUSH2 0x226B DUP5 DUP3 DUP6 ADD PUSH2 0x1A52 JUMP JUMPDEST PUSH2 0x140 DUP4 ADD MSTORE POP SWAP3 SWAP2 POP POP JUMP JUMPDEST PUSH1 0x0 PUSH1 0xE0 DUP3 DUP5 SUB SLT ISZERO PUSH2 0x228A JUMPI PUSH1 0x0 DUP1 REVERT JUMPDEST PUSH2 0x2294 PUSH1 0xE0 PUSH2 0x330A JUMP JUMPDEST SWAP1 POP PUSH1 0x0 PUSH2 0x22A4 DUP5 DUP3 DUP6 ADD PUSH2 0x1B78 JUMP JUMPDEST PUSH1 0x0 DUP4 ADD MSTORE POP PUSH1 0x20 PUSH2 0x22B8 DUP5 DUP3 DUP6 ADD PUSH2 0x1B78 JUMP JUMPDEST PUSH1 0x20 DUP4 ADD MSTORE POP PUSH1 0x40 PUSH2 0x22CC DUP5 DUP3 DUP6 ADD PUSH2 0x2564 JUMP JUMPDEST PUSH1 0x40 DUP4 ADD MSTORE POP PUSH1 0x60 PUSH2 0x22E0 DUP5 DUP3 DUP6 ADD PUSH2 0x258E JUMP JUMPDEST PUSH1 0x60 DUP4 ADD MSTORE POP PUSH1 0x80 PUSH2 0x22F4 DUP5 DUP3 DUP6 ADD PUSH2 0x2579 JUMP JUMPDEST PUSH1 0x80 DUP4 ADD MSTORE POP PUSH1 0xA0 PUSH2 0x2308 DUP5 DUP3 DUP6 ADD PUSH2 0x2579 JUMP JUMPDEST PUSH1 0xA0 DUP4 ADD MSTORE POP PUSH1 0xC0 PUSH2 0x231C DUP5 DUP3 DUP6 ADD PUSH2 0x2579 JUMP JUMPDEST PUSH1 0xC0 DUP4 ADD MSTORE POP SWAP3 SWAP2 POP POP JUMP JUMPDEST PUSH1 0x0 PUSH2 0x160 DUP3 DUP5 SUB SLT ISZERO PUSH2 0x233B JUMPI PUSH1 0x0 DUP1 REVERT JUMPDEST PUSH2 0x2346 PUSH2 0x120 PUSH2 0x330A JUMP JUMPDEST SWAP1 POP PUSH1 0x0 PUSH2 0x2356 DUP5 DUP3 DUP6 ADD PUSH2 0x258E JUMP JUMPDEST PUSH1 0x0 DUP4 ADD MSTORE POP PUSH1 0x20 PUSH2 0x236A DUP5 DUP3 DUP6 ADD PUSH2 0x205F JUMP JUMPDEST PUSH1 0x20 DUP4 ADD MSTORE POP PUSH1 0x60 PUSH2 0x237E DUP5 DUP3 DUP6 ADD PUSH2 0x258E JUMP JUMPDEST PUSH1 0x40 DUP4 ADD MSTORE POP PUSH1 0x80 PUSH2 0x2392 DUP5 DUP3 DUP6 ADD PUSH2 0x2564 JUMP JUMPDEST PUSH1 0x60 DUP4 ADD MSTORE POP PUSH1 0xA0 PUSH2 0x23A6 DUP5 DUP3 DUP6 ADD PUSH2 0x2579 JUMP JUMPDEST PUSH1 0x80 DUP4 ADD MSTORE POP PUSH1 0xC0 PUSH2 0x23BA DUP5 DUP3 DUP6 ADD PUSH2 0x2406 JUMP JUMPDEST PUSH1 0xA0 DUP4 ADD MSTORE POP PUSH2 0x100 PUSH2 0x23CF DUP5 DUP3 DUP6 ADD PUSH2 0x2564 JUMP JUMPDEST PUSH1 0xC0 DUP4 ADD MSTORE POP PUSH2 0x120 PUSH2 0x23E4 DUP5 DUP3 DUP6 ADD PUSH2 0x2564 JUMP JUMPDEST PUSH1 0xE0 DUP4 ADD MSTORE POP PUSH2 0x140 PUSH2 0x23F9 DUP5 DUP3 DUP6 ADD PUSH2 0x2564 JUMP JUMPDEST PUSH2 0x100 DUP4 ADD MSTORE POP SWAP3 SWAP2 POP POP JUMP JUMPDEST PUSH1 0x0 PUSH1 0x40 DUP3 DUP5 SUB SLT ISZERO PUSH2 0x2418 JUMPI PUSH1 0x0 DUP1 REVERT JUMPDEST PUSH2 0x2422 PUSH1 0x40 PUSH2 0x330A JUMP JUMPDEST SWAP1 POP PUSH1 0x0 PUSH2 0x2432 DUP5 DUP3 DUP6 ADD PUSH2 0x258E JUMP JUMPDEST PUSH1 0x0 DUP4 ADD MSTORE POP PUSH1 0x20 PUSH2 0x2446 DUP5 DUP3 DUP6 ADD PUSH2 0x2564 JUMP JUMPDEST PUSH1 0x20 DUP4 ADD MSTORE POP SWAP3 SWAP2 POP POP JUMP JUMPDEST PUSH1 0x0 PUSH1 0x40 DUP3 DUP5 SUB SLT ISZERO PUSH2 0x2464 JUMPI PUSH1 0x0 DUP1 REVERT JUMPDEST PUSH2 0x246E PUSH1 0x40 PUSH2 0x330A JUMP JUMPDEST SWAP1 POP PUSH1 0x0 PUSH2 0x247E DUP5 DUP3 DUP6 ADD PUSH2 0x2579 JUMP JUMPDEST PUSH1 0x0 DUP4 ADD MSTORE POP PUSH1 0x20 PUSH2 0x2492 DUP5 DUP3 DUP6 ADD PUSH2 0x258E JUMP JUMPDEST PUSH1 0x20 DUP4 ADD MSTORE POP SWAP3 SWAP2 POP POP JUMP JUMPDEST PUSH1 0x0 PUSH1 0x40 DUP3 DUP5 SUB SLT ISZERO PUSH2 0x24B0 JUMPI PUSH1 0x0 DUP1 REVERT JUMPDEST PUSH2 0x24BA PUSH1 0x40 PUSH2 0x330A JUMP JUMPDEST SWAP1 POP PUSH1 0x0 PUSH2 0x24CA DUP5 DUP3 DUP6 ADD PUSH2 0x2564 JUMP JUMPDEST PUSH1 0x0 DUP4 ADD MSTORE POP PUSH1 0x20 DUP3 ADD CALLDATALOAD PUSH8 0xFFFFFFFFFFFFFFFF DUP2 GT ISZERO PUSH2 0x24EA JUMPI PUSH1 0x0 DUP1 REVERT JUMPDEST PUSH2 0x24F6 DUP5 DUP3 DUP6 ADD PUSH2 0x1BE1 JUMP JUMPDEST PUSH1 0x20 DUP4 ADD MSTORE POP SWAP3 SWAP2 POP POP JUMP JUMPDEST PUSH1 0x0 PUSH2 0x100 DUP3 DUP5 SUB SLT ISZERO PUSH2 0x2515 JUMPI PUSH1 0x0 DUP1 REVERT JUMPDEST PUSH2 0x251F PUSH1 0x40 PUSH2 0x330A JUMP JUMPDEST SWAP1 POP PUSH1 0x0 PUSH2 0x252F DUP5 DUP3 DUP6 ADD PUSH2 0x2564 JUMP JUMPDEST PUSH1 0x0 DUP4 ADD MSTORE POP PUSH1 0x20 PUSH2 0x2543 DUP5 DUP3 DUP6 ADD PUSH2 0x2278 JUMP JUMPDEST PUSH1 0x20 DUP4 ADD MSTORE POP SWAP3 SWAP2 POP POP JUMP JUMPDEST PUSH1 0x0 DUP2 CALLDATALOAD SWAP1 POP PUSH2 0x255E DUP2 PUSH2 0x37FA JUMP JUMPDEST SWAP3 SWAP2 POP POP JUMP JUMPDEST PUSH1 0x0 DUP2 CALLDATALOAD SWAP1 POP PUSH2 0x2573 DUP2 PUSH2 0x3811 JUMP JUMPDEST SWAP3 SWAP2 POP POP JUMP JUMPDEST PUSH1 0x0 DUP2 CALLDATALOAD SWAP1 POP PUSH2 0x2588 DUP2 PUSH2 0x3828 JUMP JUMPDEST SWAP3 SWAP2 POP POP JUMP JUMPDEST PUSH1 0x0 DUP2 CALLDATALOAD SWAP1 POP PUSH2 0x259D DUP2 PUSH2 0x383F JUMP JUMPDEST SWAP3 SWAP2 POP POP JUMP JUMPDEST PUSH1 0x0 DUP2 CALLDATALOAD SWAP1 POP PUSH2 0x25B2 DUP2 PUSH2 0x3856 JUMP JUMPDEST SWAP3 SWAP2 POP POP JUMP JUMPDEST PUSH1 0x0 DUP2 CALLDATALOAD SWAP1 POP PUSH2 0x25C7 DUP2 PUSH2 0x386D JUMP JUMPDEST SWAP3 SWAP2 POP POP JUMP JUMPDEST PUSH1 0x0 PUSH1 0x20 DUP3 DUP5 SUB SLT ISZERO PUSH2 0x25DF JUMPI PUSH1 0x0 DUP1 REVERT JUMPDEST PUSH1 0x0 PUSH2 0x25ED DUP5 DUP3 DUP6 ADD PUSH2 0x19BF JUMP JUMPDEST SWAP2 POP POP SWAP3 SWAP2 POP POP JUMP JUMPDEST PUSH1 0x0 PUSH1 0x20 DUP3 DUP5 SUB SLT ISZERO PUSH2 0x2608 JUMPI PUSH1 0x0 DUP1 REVERT JUMPDEST PUSH1 0x0 DUP3 ADD CALLDATALOAD PUSH8 0xFFFFFFFFFFFFFFFF DUP2 GT ISZERO PUSH2 0x2622 JUMPI PUSH1 0x0 DUP1 REVERT JUMPDEST PUSH2 0x262E DUP5 DUP3 DUP6 ADD PUSH2 0x19D4 JUMP JUMPDEST SWAP2 POP POP SWAP3 SWAP2 POP POP JUMP JUMPDEST PUSH1 0x0 PUSH1 0x20 DUP3 DUP5 SUB SLT ISZERO PUSH2 0x2649 JUMPI PUSH1 0x0 DUP1 REVERT JUMPDEST PUSH1 0x0 DUP3 ADD CALLDATALOAD PUSH8 0xFFFFFFFFFFFFFFFF DUP2 GT ISZERO PUSH2 0x2663 JUMPI PUSH1 0x0 DUP1 REVERT JUMPDEST PUSH2 0x266F DUP5 DUP3 DUP6 ADD PUSH2 0x19FE JUMP JUMPDEST SWAP2 POP POP SWAP3 SWAP2 POP POP JUMP JUMPDEST PUSH1 0x0 PUSH1 0x20 DUP3 DUP5 SUB SLT ISZERO PUSH2 0x268A JUMPI PUSH1 0x0 DUP1 REVERT JUMPDEST PUSH1 0x0 DUP3 ADD CALLDATALOAD PUSH8 0xFFFFFFFFFFFFFFFF DUP2 GT ISZERO PUSH2 0x26A4 JUMPI PUSH1 0x0 DUP1 REVERT JUMPDEST PUSH2 0x26B0 DUP5 DUP3 DUP6 ADD PUSH2 0x1A28 JUMP JUMPDEST SWAP2 POP POP SWAP3 SWAP2 POP POP JUMP JUMPDEST PUSH1 0x0 PUSH1 0x20 DUP3 DUP5 SUB SLT ISZERO PUSH2 0x26CB JUMPI PUSH1 0x0 DUP1 REVERT JUMPDEST PUSH1 0x0 DUP3 ADD CALLDATALOAD PUSH8 0xFFFFFFFFFFFFFFFF DUP2 GT ISZERO PUSH2 0x26E5 JUMPI PUSH1 0x0 DUP1 REVERT JUMPDEST PUSH2 0x26F1 DUP5 DUP3 DUP6 ADD PUSH2 0x1A52 JUMP JUMPDEST SWAP2 POP POP SWAP3 SWAP2 POP POP JUMP JUMPDEST PUSH1 0x0 PUSH1 0x20 DUP3 DUP5 SUB SLT ISZERO PUSH2 0x270C JUMPI PUSH1 0x0 DUP1 REVERT JUMPDEST PUSH1 0x0 DUP3 ADD CALLDATALOAD PUSH8 0xFFFFFFFFFFFFFFFF DUP2 GT ISZERO PUSH2 0x2726 JUMPI PUSH1 0x0 DUP1 REVERT JUMPDEST PUSH2 0x2732 DUP5 DUP3 DUP6 ADD PUSH2 0x1A7C JUMP JUMPDEST SWAP2 POP POP SWAP3 SWAP2 POP POP JUMP JUMPDEST PUSH1 0x0 PUSH1 0x20 DUP3 DUP5 SUB SLT ISZERO PUSH2 0x274D JUMPI PUSH1 0x0 DUP1 REVERT JUMPDEST PUSH1 0x0 DUP3 ADD CALLDATALOAD PUSH8 0xFFFFFFFFFFFFFFFF DUP2 GT ISZERO PUSH2 0x2767 JUMPI PUSH1 0x0 DUP1 REVERT JUMPDEST PUSH2 0x2773 DUP5 DUP3 DUP6 ADD PUSH2 0x1AA6 JUMP JUMPDEST SWAP2 POP POP SWAP3 SWAP2 POP POP JUMP JUMPDEST PUSH1 0x0 PUSH1 0x20 DUP3 DUP5 SUB SLT ISZERO PUSH2 0x278E JUMPI PUSH1 0x0 DUP1 REVERT JUMPDEST PUSH1 0x0 DUP3 ADD CALLDATALOAD PUSH8 0xFFFFFFFFFFFFFFFF DUP2 GT ISZERO PUSH2 0x27A8 JUMPI PUSH1 0x0 DUP1 REVERT JUMPDEST PUSH2 0x27B4 DUP5 DUP3 DUP6 ADD PUSH2 0x1AD0 JUMP JUMPDEST SWAP2 POP POP SWAP3 SWAP2 POP POP JUMP JUMPDEST PUSH1 0x0 PUSH1 0x20 DUP3 DUP5 SUB SLT ISZERO PUSH2 0x27CF JUMPI PUSH1 0x0 DUP1 REVERT JUMPDEST PUSH1 0x0 DUP3 ADD CALLDATALOAD PUSH8 0xFFFFFFFFFFFFFFFF DUP2 GT ISZERO PUSH2 0x27E9 JUMPI PUSH1 0x0 DUP1 REVERT JUMPDEST PUSH2 0x27F5 DUP5 DUP3 DUP6 ADD PUSH2 0x1AFA JUMP JUMPDEST SWAP2 POP POP SWAP3 SWAP2 POP POP JUMP JUMPDEST PUSH1 0x0 PUSH1 0x20 DUP3 DUP5 SUB SLT ISZERO PUSH2 0x2810 JUMPI PUSH1 0x0 DUP1 REVERT JUMPDEST PUSH1 0x0 PUSH2 0x281E DUP5 DUP3 DUP6 ADD PUSH2 0x1B24 JUMP JUMPDEST SWAP2 POP POP SWAP3 SWAP2 POP POP JUMP JUMPDEST PUSH1 0x0 PUSH1 0x20 DUP3 DUP5 SUB SLT ISZERO PUSH2 0x2839 JUMPI PUSH1 0x0 DUP1 REVERT JUMPDEST PUSH1 0x0 PUSH2 0x2847 DUP5 DUP3 DUP6 ADD PUSH2 0x1B39 JUMP JUMPDEST SWAP2 POP POP SWAP3 SWAP2 POP POP JUMP JUMPDEST PUSH1 0x0 PUSH1 0x20 DUP3 DUP5 SUB SLT ISZERO PUSH2 0x2862 JUMPI PUSH1 0x0 DUP1 REVERT JUMPDEST PUSH1 0x0 DUP3 ADD CALLDATALOAD PUSH8 0xFFFFFFFFFFFFFFFF DUP2 GT ISZERO PUSH2 0x287C JUMPI PUSH1 0x0 DUP1 REVERT JUMPDEST PUSH2 0x2888 DUP5 DUP3 DUP6 ADD PUSH2 0x1B4E JUMP JUMPDEST SWAP2 POP POP SWAP3 SWAP2 POP POP JUMP JUMPDEST PUSH1 0x0 PUSH1 0x20 DUP3 DUP5 SUB SLT ISZERO PUSH2 0x28A3 JUMPI PUSH1 0x0 DUP1 REVERT JUMPDEST PUSH1 0x0 PUSH2 0x28B1 DUP5 DUP3 DUP6 ADD PUSH2 0x1B78 JUMP JUMPDEST SWAP2 POP POP SWAP3 SWAP2 POP POP JUMP JUMPDEST PUSH1 0x0 PUSH1 0x20 DUP3 DUP5 SUB SLT ISZERO PUSH2 0x28CC JUMPI PUSH1 0x0 DUP1 REVERT JUMPDEST PUSH1 0x0 PUSH2 0x28DA DUP5 DUP3 DUP6 ADD PUSH2 0x1B8D JUMP JUMPDEST SWAP2 POP POP SWAP3 SWAP2 POP POP JUMP JUMPDEST PUSH1 0x0 PUSH1 0x20 DUP3 DUP5 SUB SLT ISZERO PUSH2 0x28F5 JUMPI PUSH1 0x0 DUP1 REVERT JUMPDEST PUSH1 0x0 PUSH2 0x2903 DUP5 DUP3 DUP6 ADD PUSH2 0x1BA2 JUMP JUMPDEST SWAP2 POP POP SWAP3 SWAP2 POP POP JUMP JUMPDEST PUSH1 0x0 PUSH1 0x20 DUP3 DUP5 SUB SLT ISZERO PUSH2 0x291E JUMPI PUSH1 0x0 DUP1 REVERT JUMPDEST PUSH1 0x0 DUP3 ADD CALLDATALOAD PUSH8 0xFFFFFFFFFFFFFFFF DUP2 GT ISZERO PUSH2 0x2938 JUMPI PUSH1 0x0 DUP1 REVERT JUMPDEST PUSH2 0x2944 DUP5 DUP3 DUP6 ADD PUSH2 0x1BB7 JUMP JUMPDEST SWAP2 POP POP SWAP3 SWAP2 POP POP JUMP JUMPDEST PUSH1 0x0 DUP1 PUSH1 0x0 DUP1 PUSH1 0x0 PUSH1 0xA0 DUP7 DUP9 SUB SLT ISZERO PUSH2 0x2965 JUMPI PUSH1 0x0 DUP1 REVERT JUMPDEST PUSH1 0x0 DUP7 ADD CALLDATALOAD PUSH8 0xFFFFFFFFFFFFFFFF DUP2 GT ISZERO PUSH2 0x297F JUMPI PUSH1 0x0 DUP1 REVERT JUMPDEST PUSH2 0x298B DUP9 DUP3 DUP10 ADD PUSH2 0x1BB7 JUMP JUMPDEST SWAP6 POP POP PUSH1 0x20 PUSH2 0x299C DUP9 DUP3 DUP10 ADD PUSH2 0x2564 JUMP JUMPDEST SWAP5 POP POP PUSH1 0x40 PUSH2 0x29AD DUP9 DUP3 DUP10 ADD PUSH2 0x1BA2 JUMP JUMPDEST SWAP4 POP POP PUSH1 0x60 PUSH2 0x29BE DUP9 DUP3 DUP10 ADD PUSH2 0x2564 JUMP JUMPDEST SWAP3 POP POP PUSH1 0x80 DUP7 ADD CALLDATALOAD PUSH8 0xFFFFFFFFFFFFFFFF DUP2 GT ISZERO PUSH2 0x29DB JUMPI PUSH1 0x0 DUP1 REVERT JUMPDEST PUSH2 0x29E7 DUP9 DUP3 DUP10 ADD PUSH2 0x1B4E JUMP JUMPDEST SWAP2 POP POP SWAP3 SWAP6 POP SWAP3 SWAP6 SWAP1 SWAP4 POP JUMP JUMPDEST PUSH1 0x0 PUSH1 0x20 DUP3 DUP5 SUB SLT ISZERO PUSH2 0x2A06 JUMPI PUSH1 0x0 DUP1 REVERT JUMPDEST PUSH1 0x0 DUP3 ADD CALLDATALOAD PUSH8 0xFFFFFFFFFFFFFFFF DUP2 GT ISZERO PUSH2 0x2A20 JUMPI PUSH1 0x0 DUP1 REVERT JUMPDEST PUSH2 0x2A2C DUP5 DUP3 DUP6 ADD PUSH2 0x1BE1 JUMP JUMPDEST SWAP2 POP POP SWAP3 SWAP2 POP POP JUMP JUMPDEST PUSH1 0x0 PUSH1 0x20 DUP3 DUP5 SUB SLT ISZERO PUSH2 0x2A47 JUMPI PUSH1 0x0 DUP1 REVERT JUMPDEST PUSH1 0x0 DUP3 ADD CALLDATALOAD PUSH8 0xFFFFFFFFFFFFFFFF DUP2 GT ISZERO PUSH2 0x2A61 JUMPI PUSH1 0x0 DUP1 REVERT JUMPDEST PUSH2 0x2A6D DUP5 DUP3 DUP6 ADD PUSH2 0x1ECD JUMP JUMPDEST SWAP2 POP POP SWAP3 SWAP2 POP POP JUMP JUMPDEST PUSH1 0x0 PUSH1 0x40 DUP3 DUP5 SUB SLT ISZERO PUSH2 0x2A88 JUMPI PUSH1 0x0 DUP1 REVERT JUMPDEST PUSH1 0x0 PUSH2 0x2A96 DUP5 DUP3 DUP6 ADD PUSH2 0x205F JUMP JUMPDEST SWAP2 POP POP SWAP3 SWAP2 POP POP JUMP JUMPDEST PUSH1 0x0 PUSH1 0x20 DUP3 DUP5 SUB SLT ISZERO PUSH2 0x2AB1 JUMPI PUSH1 0x0 DUP1 REVERT JUMPDEST PUSH1 0x0 DUP3 ADD CALLDATALOAD PUSH8 0xFFFFFFFFFFFFFFFF DUP2 GT ISZERO PUSH2 0x2ACB JUMPI PUSH1 0x0 DUP1 REVERT JUMPDEST PUSH2 0x2AD7 DUP5 DUP3 DUP6 ADD PUSH2 0x20AB JUMP JUMPDEST SWAP2 POP POP SWAP3 SWAP2 POP POP JUMP JUMPDEST PUSH1 0x0 PUSH1 0x20 DUP3 DUP5 SUB SLT ISZERO PUSH2 0x2AF2 JUMPI PUSH1 0x0 DUP1 REVERT JUMPDEST PUSH1 0x0 DUP3 ADD CALLDATALOAD PUSH8 0xFFFFFFFFFFFFFFFF DUP2 GT ISZERO PUSH2 0x2B0C JUMPI PUSH1 0x0 DUP1 REVERT JUMPDEST PUSH2 0x2B18 DUP5 DUP3 DUP6 ADD PUSH2 0x210F JUMP JUMPDEST SWAP2 POP POP SWAP3 SWAP2 POP POP JUMP JUMPDEST PUSH1 0x0 PUSH1 0xE0 DUP3 DUP5 SUB SLT ISZERO PUSH2 0x2B33 JUMPI PUSH1 0x0 DUP1 REVERT JUMPDEST PUSH1 0x0 PUSH2 0x2B41 DUP5 DUP3 DUP6 ADD PUSH2 0x2278 JUMP JUMPDEST SWAP2 POP POP SWAP3 SWAP2 POP POP JUMP JUMPDEST PUSH1 0x0 PUSH2 0x160 DUP3 DUP5 SUB SLT ISZERO PUSH2 0x2B5D JUMPI PUSH1 0x0 DUP1 REVERT JUMPDEST PUSH1 0x0 PUSH2 0x2B6B DUP5 DUP3 DUP6 ADD PUSH2 0x2328 JUMP JUMPDEST SWAP2 POP POP SWAP3 SWAP2 POP POP JUMP JUMPDEST PUSH1 0x0 PUSH1 0x40 DUP3 DUP5 SUB SLT ISZERO PUSH2 0x2B86 JUMPI PUSH1 0x0 DUP1 REVERT JUMPDEST PUSH1 0x0 PUSH2 0x2B94 DUP5 DUP3 DUP6 ADD PUSH2 0x2406 JUMP JUMPDEST SWAP2 POP POP SWAP3 SWAP2 POP POP JUMP JUMPDEST PUSH1 0x0 PUSH1 0x40 DUP3 DUP5 SUB SLT ISZERO PUSH2 0x2BAF JUMPI PUSH1 0x0 DUP1 REVERT JUMPDEST PUSH1 0x0 PUSH2 0x2BBD DUP5 DUP3 DUP6 ADD PUSH2 0x2452 JUMP JUMPDEST SWAP2 POP POP SWAP3 SWAP2 POP POP JUMP JUMPDEST PUSH1 0x0 PUSH1 0x20 DUP3 DUP5 SUB SLT ISZERO PUSH2 0x2BD8 JUMPI PUSH1 0x0 DUP1 REVERT JUMPDEST PUSH1 0x0 DUP3 ADD CALLDATALOAD PUSH8 0xFFFFFFFFFFFFFFFF DUP2 GT ISZERO PUSH2 0x2BF2 JUMPI PUSH1 0x0 DUP1 REVERT JUMPDEST PUSH2 0x2BFE DUP5 DUP3 DUP6 ADD PUSH2 0x249E JUMP JUMPDEST SWAP2 POP POP SWAP3 SWAP2 POP POP JUMP JUMPDEST PUSH1 0x0 PUSH2 0x100 DUP3 DUP5 SUB SLT ISZERO PUSH2 0x2C1A JUMPI PUSH1 0x0 DUP1 REVERT JUMPDEST PUSH1 0x0 PUSH2 0x2C28 DUP5 DUP3 DUP6 ADD PUSH2 0x2502 JUMP JUMPDEST SWAP2 POP POP SWAP3 SWAP2 POP POP JUMP JUMPDEST PUSH1 0x0 PUSH1 0x20 DUP3 DUP5 SUB SLT ISZERO PUSH2 0x2C43 JUMPI PUSH1 0x0 DUP1 REVERT JUMPDEST PUSH1 0x0 PUSH2 0x2C51 DUP5 DUP3 DUP6 ADD PUSH2 0x254F JUMP JUMPDEST SWAP2 POP POP SWAP3 SWAP2 POP POP JUMP JUMPDEST PUSH1 0x0 PUSH1 0x20 DUP3 DUP5 SUB SLT ISZERO PUSH2 0x2C6C JUMPI PUSH1 0x0 DUP1 REVERT JUMPDEST PUSH1 0x0 PUSH2 0x2C7A DUP5 DUP3 DUP6 ADD PUSH2 0x2564 JUMP JUMPDEST SWAP2 POP POP SWAP3 SWAP2 POP POP JUMP JUMPDEST PUSH1 0x0 PUSH1 0x20 DUP3 DUP5 SUB SLT ISZERO PUSH2 0x2C95 JUMPI PUSH1 0x0 DUP1 REVERT JUMPDEST PUSH1 0x0 PUSH2 0x2CA3 DUP5 DUP3 DUP6 ADD PUSH2 0x2579 JUMP JUMPDEST SWAP2 POP POP SWAP3 SWAP2 POP POP JUMP JUMPDEST PUSH1 0x0 PUSH1 0x20 DUP3 DUP5 SUB SLT ISZERO PUSH2 0x2CBE JUMPI PUSH1 0x0 DUP1 REVERT JUMPDEST PUSH1 0x0 PUSH2 0x2CCC DUP5 DUP3 DUP6 ADD PUSH2 0x258E JUMP JUMPDEST SWAP2 POP POP SWAP3 SWAP2 POP POP JUMP JUMPDEST PUSH1 0x0 PUSH1 0x20 DUP3 DUP5 SUB SLT ISZERO PUSH2 0x2CE7 JUMPI PUSH1 0x0 DUP1 REVERT JUMPDEST PUSH1 0x0 PUSH2 0x2CF5 DUP5 DUP3 DUP6 ADD PUSH2 0x25A3 JUMP JUMPDEST SWAP2 POP POP SWAP3 SWAP2 POP POP JUMP JUMPDEST PUSH1 0x0 PUSH1 0x20 DUP3 DUP5 SUB SLT ISZERO PUSH2 0x2D10 JUMPI PUSH1 0x0 DUP1 REVERT JUMPDEST PUSH1 0x0 PUSH2 0x2D1E DUP5 DUP3 DUP6 ADD PUSH2 0x25B8 JUMP JUMPDEST SWAP2 POP POP SWAP3 SWAP2 POP POP JUMP JUMPDEST PUSH2 0x2D38 PUSH2 0x2D33 DUP3 PUSH2 0x3538 JUMP JUMPDEST PUSH2 0x3654 JUMP JUMPDEST DUP3 MSTORE POP POP JUMP JUMPDEST PUSH2 0x2D4F PUSH2 0x2D4A DUP3 PUSH2 0x354A JUMP JUMPDEST PUSH2 0x3666 JUMP JUMPDEST DUP3 MSTORE POP POP JUMP JUMPDEST PUSH2 0x2D66 PUSH2 0x2D61 DUP3 PUSH2 0x3556 JUMP JUMPDEST PUSH2 0x3678 JUMP JUMPDEST DUP3 MSTORE POP POP JUMP JUMPDEST PUSH1 0x0 PUSH2 0x2D77 DUP3 PUSH2 0x34FB JUMP JUMPDEST PUSH2 0x2D81 DUP2 DUP6 PUSH2 0x3511 JUMP JUMPDEST SWAP4 POP PUSH2 0x2D91 DUP2 DUP6 PUSH1 0x20 DUP7 ADD PUSH2 0x3621 JUMP JUMPDEST PUSH2 0x2D9A DUP2 PUSH2 0x371E JUMP JUMPDEST DUP5 ADD SWAP2 POP POP SWAP3 SWAP2 POP POP JUMP JUMPDEST PUSH1 0x0 PUSH2 0x2DB0 DUP3 PUSH2 0x34FB JUMP JUMPDEST PUSH2 0x2DBA DUP2 DUP6 PUSH2 0x3522 JUMP JUMPDEST SWAP4 POP PUSH2 0x2DCA DUP2 DUP6 PUSH1 0x20 DUP7 ADD PUSH2 0x3621 JUMP JUMPDEST DUP1 DUP5 ADD SWAP2 POP POP SWAP3 SWAP2 POP POP JUMP JUMPDEST PUSH2 0x2DE7 PUSH2 0x2DE2 DUP3 PUSH2 0x3582 JUMP JUMPDEST PUSH2 0x3682 JUMP JUMPDEST DUP3 MSTORE POP POP JUMP JUMPDEST PUSH2 0x2DFE PUSH2 0x2DF9 DUP3 PUSH2 0x358F JUMP JUMPDEST PUSH2 0x3694 JUMP JUMPDEST DUP3 MSTORE POP POP JUMP JUMPDEST PUSH2 0x2E15 PUSH2 0x2E10 DUP3 PUSH2 0x359C JUMP JUMPDEST PUSH2 0x36A6 JUMP JUMPDEST DUP3 MSTORE POP POP JUMP JUMPDEST PUSH1 0x0 PUSH2 0x2E26 DUP3 PUSH2 0x3506 JUMP JUMPDEST PUSH2 0x2E30 DUP2 DUP6 PUSH2 0x352D JUMP JUMPDEST SWAP4 POP PUSH2 0x2E40 DUP2 DUP6 PUSH1 0x20 DUP7 ADD PUSH2 0x3621 JUMP JUMPDEST DUP1 DUP5 ADD SWAP2 POP POP SWAP3 SWAP2 POP POP JUMP JUMPDEST PUSH2 0x2E5D PUSH2 0x2E58 DUP3 PUSH2 0x35B7 JUMP JUMPDEST PUSH2 0x36CA JUMP JUMPDEST DUP3 MSTORE POP POP JUMP JUMPDEST PUSH2 0x2E74 PUSH2 0x2E6F DUP3 PUSH2 0x35A9 JUMP JUMPDEST PUSH2 0x36B8 JUMP JUMPDEST DUP3 MSTORE POP POP JUMP JUMPDEST PUSH2 0x2E8B PUSH2 0x2E86 DUP3 PUSH2 0x35D7 JUMP JUMPDEST PUSH2 0x36DC JUMP JUMPDEST DUP3 MSTORE POP POP JUMP JUMPDEST PUSH2 0x2EA2 PUSH2 0x2E9D DUP3 PUSH2 0x35E1 JUMP JUMPDEST PUSH2 0x36E6 JUMP JUMPDEST DUP3 MSTORE POP POP JUMP JUMPDEST PUSH2 0x2EB9 PUSH2 0x2EB4 DUP3 PUSH2 0x35F1 JUMP JUMPDEST PUSH2 0x36F8 JUMP JUMPDEST DUP3 MSTORE POP POP JUMP JUMPDEST PUSH2 0x2ED0 PUSH2 0x2ECB DUP3 PUSH2 0x3605 JUMP JUMPDEST PUSH2 0x370A JUMP JUMPDEST DUP3 MSTORE POP POP JUMP JUMPDEST PUSH1 0x0 PUSH2 0x2EE2 DUP3 DUP5 PUSH2 0x2D27 JUMP JUMPDEST PUSH1 0x14 DUP3 ADD SWAP2 POP DUP2 SWAP1 POP SWAP3 SWAP2 POP POP JUMP JUMPDEST PUSH1 0x0 PUSH2 0x2EFD DUP3 DUP5 PUSH2 0x2D3E JUMP JUMPDEST PUSH1 0x1 DUP3 ADD SWAP2 POP DUP2 SWAP1 POP SWAP3 SWAP2 POP POP JUMP JUMPDEST PUSH1 0x0 PUSH2 0x2F18 DUP3 DUP5 PUSH2 0x2D55 JUMP JUMPDEST PUSH1 0x14 DUP3 ADD SWAP2 POP DUP2 SWAP1 POP SWAP3 SWAP2 POP POP JUMP JUMPDEST PUSH1 0x0 PUSH2 0x2F33 DUP3 DUP6 PUSH2 0x2DA5 JUMP JUMPDEST SWAP2 POP PUSH2 0x2F3F DUP3 DUP5 PUSH2 0x2DA5 JUMP JUMPDEST SWAP2 POP DUP2 SWAP1 POP SWAP4 SWAP3 POP POP POP JUMP JUMPDEST PUSH1 0x0 PUSH2 0x2F57 DUP3 DUP9 PUSH2 0x2DA5 JUMP JUMPDEST SWAP2 POP PUSH2 0x2F63 DUP3 DUP8 PUSH2 0x2DA5 JUMP JUMPDEST SWAP2 POP PUSH2 0x2F6F DUP3 DUP7 PUSH2 0x2DA5 JUMP JUMPDEST SWAP2 POP PUSH2 0x2F7B DUP3 DUP6 PUSH2 0x2DA5 JUMP JUMPDEST SWAP2 POP PUSH2 0x2F87 DUP3 DUP5 PUSH2 0x2DA5 JUMP JUMPDEST SWAP2 POP DUP2 SWAP1 POP SWAP7 SWAP6 POP POP POP POP POP POP JUMP JUMPDEST PUSH1 0x0 PUSH2 0x2FA2 DUP3 DUP10 PUSH2 0x2DA5 JUMP JUMPDEST SWAP2 POP PUSH2 0x2FAE DUP3 DUP9 PUSH2 0x2DA5 JUMP JUMPDEST SWAP2 POP PUSH2 0x2FBA DUP3 DUP8 PUSH2 0x2DA5 JUMP JUMPDEST SWAP2 POP PUSH2 0x2FC6 DUP3 DUP7 PUSH2 0x2DA5 JUMP JUMPDEST SWAP2 POP PUSH2 0x2FD2 DUP3 DUP6 PUSH2 0x2DA5 JUMP JUMPDEST SWAP2 POP PUSH2 0x2FDE DUP3 DUP5 PUSH2 0x2DA5 JUMP JUMPDEST SWAP2 POP DUP2 SWAP1 POP SWAP8 SWAP7 POP POP POP POP POP POP POP JUMP JUMPDEST PUSH1 0x0 PUSH2 0x2FFA DUP3 DUP11 PUSH2 0x2DA5 JUMP JUMPDEST SWAP2 POP PUSH2 0x3006 DUP3 DUP10 PUSH2 0x2DA5 JUMP JUMPDEST SWAP2 POP PUSH2 0x3012 DUP3 DUP9 PUSH2 0x2DA5 JUMP JUMPDEST SWAP2 POP PUSH2 0x301E DUP3 DUP8 PUSH2 0x2DA5 JUMP JUMPDEST SWAP2 POP PUSH2 0x302A DUP3 DUP7 PUSH2 0x2DA5 JUMP JUMPDEST SWAP2 POP PUSH2 0x3036 DUP3 DUP6 PUSH2 0x2DA5 JUMP JUMPDEST SWAP2 POP PUSH2 0x3042 DUP3 DUP5 PUSH2 0x2DA5 JUMP JUMPDEST SWAP2 POP DUP2 SWAP1 POP SWAP9 SWAP8 POP POP POP POP POP POP POP POP JUMP JUMPDEST PUSH1 0x0 PUSH2 0x305F DUP3 DUP15 PUSH2 0x2DA5 JUMP JUMPDEST SWAP2 POP PUSH2 0x306B DUP3 DUP14 PUSH2 0x2DA5 JUMP JUMPDEST SWAP2 POP PUSH2 0x3077 DUP3 DUP13 PUSH2 0x2DA5 JUMP JUMPDEST SWAP2 POP PUSH2 0x3083 DUP3 DUP12 PUSH2 0x2DA5 JUMP JUMPDEST SWAP2 POP PUSH2 0x308F DUP3 DUP11 PUSH2 0x2DA5 JUMP JUMPDEST SWAP2 POP PUSH2 0x309B DUP3 DUP10 PUSH2 0x2DA5 JUMP JUMPDEST SWAP2 POP PUSH2 0x30A7 DUP3 DUP9 PUSH2 0x2DA5 JUMP JUMPDEST SWAP2 POP PUSH2 0x30B3 DUP3 DUP8 PUSH2 0x2DA5 JUMP JUMPDEST SWAP2 POP PUSH2 0x30BF DUP3 DUP7 PUSH2 0x2DA5 JUMP JUMPDEST SWAP2 POP PUSH2 0x30CB DUP3 DUP6 PUSH2 0x2DA5 JUMP JUMPDEST SWAP2 POP PUSH2 0x30D7 DUP3 DUP5 PUSH2 0x2DA5 JUMP JUMPDEST SWAP2 POP DUP2 SWAP1 POP SWAP13 SWAP12 POP POP POP POP POP POP POP POP POP POP POP POP JUMP JUMPDEST PUSH1 0x0 PUSH2 0x30F8 DUP3 DUP16 PUSH2 0x2DA5 JUMP JUMPDEST SWAP2 POP PUSH2 0x3104 DUP3 DUP15 PUSH2 0x2DA5 JUMP JUMPDEST SWAP2 POP PUSH2 0x3110 DUP3 DUP14 PUSH2 0x2DA5 JUMP JUMPDEST SWAP2 POP PUSH2 0x311C DUP3 DUP13 PUSH2 0x2DA5 JUMP JUMPDEST SWAP2 POP PUSH2 0x3128 DUP3 DUP12 PUSH2 0x2DA5 JUMP JUMPDEST SWAP2 POP PUSH2 0x3134 DUP3 DUP11 PUSH2 0x2DA5 JUMP JUMPDEST SWAP2 POP PUSH2 0x3140 DUP3 DUP10 PUSH2 0x2DA5 JUMP JUMPDEST SWAP2 POP PUSH2 0x314C DUP3 DUP9 PUSH2 0x2DA5 JUMP JUMPDEST SWAP2 POP PUSH2 0x3158 DUP3 DUP8 PUSH2 0x2DA5 JUMP JUMPDEST SWAP2 POP PUSH2 0x3164 DUP3 DUP7 PUSH2 0x2DA5 JUMP JUMPDEST SWAP2 POP PUSH2 0x3170 DUP3 DUP6 PUSH2 0x2DA5 JUMP JUMPDEST SWAP2 POP PUSH2 0x317C DUP3 DUP5 PUSH2 0x2DA5 JUMP JUMPDEST SWAP2 POP DUP2 SWAP1 POP SWAP14 SWAP13 POP POP POP POP POP POP POP POP POP POP POP POP POP JUMP JUMPDEST PUSH1 0x0 PUSH2 0x319E DUP3 DUP6 PUSH2 0x2DA5 JUMP JUMPDEST SWAP2 POP PUSH2 0x31AA DUP3 DUP5 PUSH2 0x2DED JUMP JUMPDEST PUSH1 0x4 DUP3 ADD SWAP2 POP DUP2 SWAP1 POP SWAP4 SWAP3 POP POP POP JUMP JUMPDEST PUSH1 0x0 PUSH2 0x31C6 DUP3 DUP5 PUSH2 0x2DD6 JUMP JUMPDEST PUSH1 0x2 DUP3 ADD SWAP2 POP DUP2 SWAP1 POP SWAP3 SWAP2 POP POP JUMP JUMPDEST PUSH1 0x0 PUSH2 0x31E1 DUP3 DUP5 PUSH2 0x2DED JUMP JUMPDEST PUSH1 0x4 DUP3 ADD SWAP2 POP DUP2 SWAP1 POP SWAP3 SWAP2 POP POP JUMP JUMPDEST PUSH1 0x0 PUSH2 0x31FC DUP3 DUP5 PUSH2 0x2E04 JUMP JUMPDEST PUSH1 0x8 DUP3 ADD SWAP2 POP DUP2 SWAP1 POP SWAP3 SWAP2 POP POP JUMP JUMPDEST PUSH1 0x0 PUSH2 0x3217 DUP3 DUP5 PUSH2 0x2E1B JUMP JUMPDEST SWAP2 POP DUP2 SWAP1 POP SWAP3 SWAP2 POP POP JUMP JUMPDEST PUSH1 0x0 PUSH2 0x322E DUP3 DUP6 PUSH2 0x2E1B JUMP JUMPDEST SWAP2 POP PUSH2 0x323A DUP3 DUP5 PUSH2 0x2DA5 JUMP JUMPDEST SWAP2 POP DUP2 SWAP1 POP SWAP4 SWAP3 POP POP POP JUMP JUMPDEST PUSH1 0x0 PUSH2 0x3252 DUP3 DUP5 PUSH2 0x2E4C JUMP JUMPDEST PUSH1 0x14 DUP3 ADD SWAP2 POP DUP2 SWAP1 POP SWAP3 SWAP2 POP POP JUMP JUMPDEST PUSH1 0x0 PUSH2 0x326D DUP3 DUP5 PUSH2 0x2E63 JUMP JUMPDEST PUSH1 0x2 DUP3 ADD SWAP2 POP DUP2 SWAP1 POP SWAP3 SWAP2 POP POP JUMP JUMPDEST PUSH1 0x0 PUSH2 0x3288 DUP3 DUP5 PUSH2 0x2E7A JUMP JUMPDEST PUSH1 0x20 DUP3 ADD SWAP2 POP DUP2 SWAP1 POP SWAP3 SWAP2 POP POP JUMP JUMPDEST PUSH1 0x0 PUSH2 0x32A3 DUP3 DUP5 PUSH2 0x2E91 JUMP JUMPDEST PUSH1 0x4 DUP3 ADD SWAP2 POP DUP2 SWAP1 POP SWAP3 SWAP2 POP POP JUMP JUMPDEST PUSH1 0x0 PUSH2 0x32BE DUP3 DUP5 PUSH2 0x2EA8 JUMP JUMPDEST PUSH1 0x8 DUP3 ADD SWAP2 POP DUP2 SWAP1 POP SWAP3 SWAP2 POP POP JUMP JUMPDEST PUSH1 0x0 PUSH2 0x32D9 DUP3 DUP5 PUSH2 0x2EBF JUMP JUMPDEST PUSH1 0x1 DUP3 ADD SWAP2 POP DUP2 SWAP1 POP SWAP3 SWAP2 POP POP JUMP JUMPDEST PUSH1 0x0 PUSH1 0x20 DUP3 ADD SWAP1 POP DUP2 DUP2 SUB PUSH1 0x0 DUP4 ADD MSTORE PUSH2 0x3302 DUP2 DUP5 PUSH2 0x2D6C JUMP JUMPDEST SWAP1 POP SWAP3 SWAP2 POP POP JUMP JUMPDEST PUSH1 0x0 PUSH1 0x40 MLOAD SWAP1 POP DUP2 DUP2 ADD DUP2 DUP2 LT PUSH8 0xFFFFFFFFFFFFFFFF DUP3 GT OR ISZERO PUSH2 0x3331 JUMPI PUSH2 0x3330 PUSH2 0x371C JUMP JUMPDEST JUMPDEST DUP1 PUSH1 0x40 MSTORE POP SWAP2 SWAP1 POP JUMP JUMPDEST PUSH1 0x0 PUSH8 0xFFFFFFFFFFFFFFFF DUP3 GT ISZERO PUSH2 0x3356 JUMPI PUSH2 0x3355 PUSH2 0x371C JUMP JUMPDEST JUMPDEST PUSH1 0x20 DUP3 MUL SWAP1 POP PUSH1 0x20 DUP2 ADD SWAP1 POP SWAP2 SWAP1 POP JUMP JUMPDEST PUSH1 0x0 PUSH8 0xFFFFFFFFFFFFFFFF DUP3 GT ISZERO PUSH2 0x3382 JUMPI PUSH2 0x3381 PUSH2 0x371C JUMP JUMPDEST JUMPDEST PUSH1 0x20 DUP3 MUL SWAP1 POP PUSH1 0x20 DUP2 ADD SWAP1 POP SWAP2 SWAP1 POP JUMP JUMPDEST PUSH1 0x0 PUSH8 0xFFFFFFFFFFFFFFFF DUP3 GT ISZERO PUSH2 0x33AE JUMPI PUSH2 0x33AD PUSH2 0x371C JUMP JUMPDEST JUMPDEST PUSH1 0x20 DUP3 MUL SWAP1 POP PUSH1 0x20 DUP2 ADD SWAP1 POP SWAP2 SWAP1 POP JUMP JUMPDEST PUSH1 0x0 PUSH8 0xFFFFFFFFFFFFFFFF DUP3 GT ISZERO PUSH2 0x33DA JUMPI PUSH2 0x33D9 PUSH2 0x371C JUMP JUMPDEST JUMPDEST PUSH1 0x20 DUP3 MUL SWAP1 POP PUSH1 0x20 DUP2 ADD SWAP1 POP SWAP2 SWAP1 POP JUMP JUMPDEST PUSH1 0x0 PUSH8 0xFFFFFFFFFFFFFFFF DUP3 GT ISZERO PUSH2 0x3406 JUMPI PUSH2 0x3405 PUSH2 0x371C JUMP JUMPDEST JUMPDEST PUSH1 0x20 DUP3 MUL SWAP1 POP PUSH1 0x20 DUP2 ADD SWAP1 POP SWAP2 SWAP1 POP JUMP JUMPDEST PUSH1 0x0 PUSH8 0xFFFFFFFFFFFFFFFF DUP3 GT ISZERO PUSH2 0x3432 JUMPI PUSH2 0x3431 PUSH2 0x371C JUMP JUMPDEST JUMPDEST PUSH1 0x20 DUP3 MUL SWAP1 POP PUSH1 0x20 DUP2 ADD SWAP1 POP SWAP2 SWAP1 POP JUMP JUMPDEST PUSH1 0x0 PUSH8 0xFFFFFFFFFFFFFFFF DUP3 GT ISZERO PUSH2 0x345E JUMPI PUSH2 0x345D PUSH2 0x371C JUMP JUMPDEST JUMPDEST PUSH1 0x20 DUP3 MUL SWAP1 POP PUSH1 0x20 DUP2 ADD SWAP1 POP SWAP2 SWAP1 POP JUMP JUMPDEST PUSH1 0x0 PUSH8 0xFFFFFFFFFFFFFFFF DUP3 GT ISZERO PUSH2 0x348A JUMPI PUSH2 0x3489 PUSH2 0x371C JUMP JUMPDEST JUMPDEST PUSH1 0x20 DUP3 MUL SWAP1 POP PUSH1 0x20 DUP2 ADD SWAP1 POP SWAP2 SWAP1 POP JUMP JUMPDEST PUSH1 0x0 PUSH8 0xFFFFFFFFFFFFFFFF DUP3 GT ISZERO PUSH2 0x34B6 JUMPI PUSH2 0x34B5 PUSH2 0x371C JUMP JUMPDEST JUMPDEST PUSH1 0x1F NOT PUSH1 0x1F DUP4 ADD AND SWAP1 POP PUSH1 0x20 DUP2 ADD SWAP1 POP SWAP2 SWAP1 POP JUMP JUMPDEST PUSH1 0x0 PUSH8 0xFFFFFFFFFFFFFFFF DUP3 GT ISZERO PUSH2 0x34E6 JUMPI PUSH2 0x34E5 PUSH2 0x371C JUMP JUMPDEST JUMPDEST PUSH1 0x1F NOT PUSH1 0x1F DUP4 ADD AND SWAP1 POP PUSH1 0x20 DUP2 ADD SWAP1 POP SWAP2 SWAP1 POP JUMP JUMPDEST PUSH1 0x0 DUP2 MLOAD SWAP1 POP SWAP2 SWAP1 POP JUMP JUMPDEST PUSH1 0x0 DUP2 MLOAD SWAP1 POP SWAP2 SWAP1 POP JUMP JUMPDEST PUSH1 0x0 DUP3 DUP3 MSTORE PUSH1 0x20 DUP3 ADD SWAP1 POP SWAP3 SWAP2 POP POP JUMP JUMPDEST PUSH1 0x0 DUP2 SWAP1 POP SWAP3 SWAP2 POP POP JUMP JUMPDEST PUSH1 0x0 DUP2 SWAP1 POP SWAP3 SWAP2 POP POP JUMP JUMPDEST PUSH1 0x0 PUSH2 0x3543 DUP3 PUSH2 0x35B7 JUMP JUMPDEST SWAP1 POP SWAP2 SWAP1 POP JUMP JUMPDEST PUSH1 0x0 DUP2 ISZERO ISZERO SWAP1 POP SWAP2 SWAP1 POP JUMP JUMPDEST PUSH1 0x0 PUSH32 0xFFFFFFFFFFFFFFFFFFFFFFFFFFFFFFFFFFFFFFFF000000000000000000000000 DUP3 AND SWAP1 POP SWAP2 SWAP1 POP JUMP JUMPDEST PUSH1 0x0 DUP2 PUSH1 0x1 SIGNEXTEND SWAP1 POP SWAP2 SWAP1 POP JUMP JUMPDEST PUSH1 0x0 DUP2 PUSH1 0x3 SIGNEXTEND SWAP1 POP SWAP2 SWAP1 POP JUMP JUMPDEST PUSH1 0x0 DUP2 PUSH1 0x7 SIGNEXTEND SWAP1 POP SWAP2 SWAP1 POP JUMP JUMPDEST PUSH1 0x0 PUSH2 0xFFFF DUP3 AND SWAP1 POP SWAP2 SWAP1 POP JUMP JUMPDEST PUSH1 0x0 PUSH20 0xFFFFFFFFFFFFFFFFFFFFFFFFFFFFFFFFFFFFFFFF DUP3 AND SWAP1 POP SWAP2 SWAP1 POP JUMP JUMPDEST PUSH1 0x0 DUP2 SWAP1 POP SWAP2 SWAP1 POP JUMP JUMPDEST PUSH1 0x0 PUSH4 0xFFFFFFFF DUP3 AND SWAP1 POP SWAP2 SWAP1 POP JUMP JUMPDEST PUSH1 0x0 PUSH8 0xFFFFFFFFFFFFFFFF DUP3 AND SWAP1 POP SWAP2 SWAP1 POP JUMP JUMPDEST PUSH1 0x0 PUSH1 0xFF DUP3 AND SWAP1 POP SWAP2 SWAP1 POP JUMP JUMPDEST DUP3 DUP2 DUP4 CALLDATACOPY PUSH1 0x0 DUP4 DUP4 ADD MSTORE POP POP POP JUMP JUMPDEST PUSH1 0x0 JUMPDEST DUP4 DUP2 LT ISZERO PUSH2 0x363F JUMPI DUP1 DUP3 ADD MLOAD DUP2 DUP5 ADD MSTORE PUSH1 0x20 DUP2 ADD SWAP1 POP PUSH2 0x3624 JUMP JUMPDEST DUP4 DUP2 GT ISZERO PUSH2 0x364E JUMPI PUSH1 0x0 DUP5 DUP5 ADD MSTORE JUMPDEST POP POP POP POP JUMP JUMPDEST PUSH1 0x0 PUSH2 0x365F DUP3 PUSH2 0x36CA JUMP JUMPDEST SWAP1 POP SWAP2 SWAP1 POP JUMP JUMPDEST PUSH1 0x0 PUSH2 0x3671 DUP3 PUSH2 0x370A JUMP JUMPDEST SWAP1 POP SWAP2 SWAP1 POP JUMP JUMPDEST PUSH1 0x0 DUP2 SWAP1 POP SWAP2 SWAP1 POP JUMP JUMPDEST PUSH1 0x0 PUSH2 0x368D DUP3 PUSH2 0x3749 JUMP JUMPDEST SWAP1 POP SWAP2 SWAP1 POP JUMP JUMPDEST PUSH1 0x0 PUSH2 0x369F DUP3 PUSH2 0x373C JUMP JUMPDEST SWAP1 POP SWAP2 SWAP1 POP JUMP JUMPDEST PUSH1 0x0 PUSH2 0x36B1 DUP3 PUSH2 0x372F JUMP JUMPDEST SWAP1 POP SWAP2 SWAP1 POP JUMP JUMPDEST PUSH1 0x0 PUSH2 0x36C3 DUP3 PUSH2 0x3749 JUMP JUMPDEST SWAP1 POP SWAP2 SWAP1 POP JUMP JUMPDEST PUSH1 0x0 PUSH2 0x36D5 DUP3 PUSH2 0x3763 JUMP JUMPDEST SWAP1 POP SWAP2 SWAP1 POP JUMP JUMPDEST PUSH1 0x0 DUP2 SWAP1 POP SWAP2 SWAP1 POP JUMP JUMPDEST PUSH1 0x0 PUSH2 0x36F1 DUP3 PUSH2 0x373C JUMP JUMPDEST SWAP1 POP SWAP2 SWAP1 POP JUMP JUMPDEST PUSH1 0x0 PUSH2 0x3703 DUP3 PUSH2 0x372F JUMP JUMPDEST SWAP1 POP SWAP2 SWAP1 POP JUMP JUMPDEST PUSH1 0x0 PUSH2 0x3715 DUP3 PUSH2 0x3756 JUMP JUMPDEST SWAP1 POP SWAP2 SWAP1 POP JUMP JUMPDEST INVALID JUMPDEST PUSH1 0x0 PUSH1 0x1F NOT PUSH1 0x1F DUP4 ADD AND SWAP1 POP SWAP2 SWAP1 POP JUMP JUMPDEST PUSH1 0x0 DUP2 PUSH1 0xC0 SHL SWAP1 POP SWAP2 SWAP1 POP JUMP JUMPDEST PUSH1 0x0 DUP2 PUSH1 0xE0 SHL SWAP1 POP SWAP2 SWAP1 POP JUMP JUMPDEST PUSH1 0x0 DUP2 PUSH1 0xF0 SHL SWAP1 POP SWAP2 SWAP1 POP JUMP JUMPDEST PUSH1 0x0 DUP2 PUSH1 0xF8 SHL SWAP1 POP SWAP2 SWAP1 POP JUMP JUMPDEST PUSH1 0x0 DUP2 PUSH1 0x60 SHL SWAP1 POP SWAP2 SWAP1 POP JUMP JUMPDEST PUSH2 0x3779 DUP2 PUSH2 0x3538 JUMP JUMPDEST DUP2 EQ PUSH2 0x3784 JUMPI PUSH1 0x0 DUP1 REVERT JUMPDEST POP JUMP JUMPDEST PUSH2 0x3790 DUP2 PUSH2 0x354A JUMP JUMPDEST DUP2 EQ PUSH2 0x379B JUMPI PUSH1 0x0 DUP1 REVERT JUMPDEST POP JUMP JUMPDEST PUSH2 0x37A7 DUP2 PUSH2 0x3556 JUMP JUMPDEST DUP2 EQ PUSH2 0x37B2 JUMPI PUSH1 0x0 DUP1 REVERT JUMPDEST POP JUMP JUMPDEST PUSH2 0x37BE DUP2 PUSH2 0x3582 JUMP JUMPDEST DUP2 EQ PUSH2 0x37C9 JUMPI PUSH1 0x0 DUP1 REVERT JUMPDEST POP JUMP JUMPDEST PUSH2 0x37D5 DUP2 PUSH2 0x358F JUMP JUMPDEST DUP2 EQ PUSH2 0x37E0 JUMPI PUSH1 0x0 DUP1 REVERT JUMPDEST POP JUMP JUMPDEST PUSH2 0x37EC DUP2 PUSH2 0x359C JUMP JUMPDEST DUP2 EQ PUSH2 0x37F7 JUMPI PUSH1 0x0 DUP1 REVERT JUMPDEST POP JUMP JUMPDEST PUSH2 0x3803 DUP2 PUSH2 0x35A9 JUMP JUMPDEST DUP2 EQ PUSH2 0x380E JUMPI PUSH1 0x0 DUP1 REVERT JUMPDEST POP JUMP JUMPDEST PUSH2 0x381A DUP2 PUSH2 0x35B7 JUMP JUMPDEST DUP2 EQ PUSH2 0x3825 JUMPI PUSH1 0x0 DUP1 REVERT JUMPDEST POP JUMP JUMPDEST PUSH2 0x3831 DUP2 PUSH2 0x35D7 JUMP JUMPDEST DUP2 EQ PUSH2 0x383C JUMPI PUSH1 0x0 DUP1 REVERT JUMPDEST POP JUMP JUMPDEST PUSH2 0x3848 DUP2 PUSH2 0x35E1 JUMP JUMPDEST DUP2 EQ PUSH2 0x3853 JUMPI PUSH1 0x0 DUP1 REVERT JUMPDEST POP JUMP JUMPDEST PUSH2 0x385F DUP2 PUSH2 0x35F1 JUMP JUMPDEST DUP2 EQ PUSH2 0x386A JUMPI PUSH1 0x0 DUP1 REVERT JUMPDEST POP JUMP JUMPDEST PUSH2 0x3876 DUP2 PUSH2 0x3605 JUMP JUMPDEST DUP2 EQ PUSH2 0x3881 JUMPI PUSH1 0x0 DUP1 REVERT JUMPDEST POP JUMP INVALID LOG2 PUSH5 0x6970667358 0x22 SLT KECCAK256 PUSH17 0xBABEFB93D8F34BF86C5F8775C613B3A414 PUSH27 0x41C98568FE1CC63EF3CC8F7CFF64736F6C63430007060033000000 "
		},
		"gasEstimates": {
			"creation": {
				"codeDepositCost": "2904400",
				"executionCost": "3177",
				"totalCost": "2907577"
			},
			"external": {
				"flipArray(bytes)": "infinite",
				"serializeAddress(address)": "infinite",
				"serializeBool(bool)": "infinite",
				"serializeBytes20(bytes20)": "infinite",
				"serializeCCoinbaseCurrencyState((uint16,uint16,uint160,uint160[],int32[],int64[],int64,int64,int64,int64,int64,int64,int64,int64[],int64[],int64[],int64[],int64[],int64[],int64[],int32[]))": "infinite",
				"serializeCCrossChainExport((uint32,uint32,uint160,uint32,uint32,uint160,uint160,int32,(uint160,uint64)[],(uint160,uint64)[],uint256,(uint160,uint64)[],address,int32))": "infinite",
				"serializeCCurrencyValueMap((uint160,uint64))": "infinite",
				"serializeCCurrencyValueMaps((uint160,uint64)[])": "infinite",
				"serializeCNodeData((string,uint160))": "infinite",
				"serializeCPBaaSNotarization((uint32,(uint32,uint160),uint32,(uint16,uint16,uint160,uint160[],int32[],int64[],int64,int64,int64,int64,int64,int64,int64,int64[],int64[],int64[],int64[],int64[],int64[],int64[],int32[]),uint256,int64,uint256,uint64,(uint160,(uint16,uint16,uint160,uint160[],int32[],int64[],int64,int64,int64,int64,int64,int64,int64,int64[],int64[],int64[],int64[],int64[],int64[],int64[],int32[]))[],(uint160,(int16,int16,uint160,uint32,uint256,uint256,uint256))[],(string,uint160)[]))": "infinite",
				"serializeCProofRoot((int16,int16,uint160,uint32,uint256,uint256,uint256))": "infinite",
				"serializeCReserveTransfer((uint32,(uint160,uint64),uint32,uint160,uint256,(uint32,uint160),uint160,uint160,uint160))": "infinite",
				"serializeCReserveTransfers((uint32,(uint160,uint64),uint32,uint160,uint256,(uint32,uint160),uint160,uint160,uint160)[])": "infinite",
				"serializeCTransferDestination((uint32,uint160))": "infinite",
				"serializeCUTXORef((uint256,uint32))": "infinite",
				"serializeCurrencyStates((uint160,(uint16,uint16,uint160,uint160[],int32[],int64[],int64,int64,int64,int64,int64,int64,int64,int64[],int64[],int64[],int64[],int64[],int64[],int64[],int32[])))": "infinite",
				"serializeCurrencyStatesArray((uint160,(uint16,uint16,uint160,uint160[],int32[],int64[],int64,int64,int64,int64,int64,int64,int64,int64[],int64[],int64[],int64[],int64[],int64[],int64[],int32[]))[])": "infinite",
				"serializeInt16(int16)": "infinite",
				"serializeInt32(int32)": "infinite",
				"serializeInt32Array(int32[])": "infinite",
				"serializeInt64(int64)": "infinite",
				"serializeInt64Array(int64[])": "infinite",
				"serializeNodes((string,uint160)[])": "infinite",
				"serializeProofRoots((uint160,(int16,int16,uint160,uint32,uint256,uint256,uint256)))": "infinite",
				"serializeProofRootsArray((uint160,(int16,int16,uint160,uint32,uint256,uint256,uint256))[])": "infinite",
				"serializeString(string)": "infinite",
				"serializeUint16(uint16)": "infinite",
				"serializeUint160(uint160)": "infinite",
				"serializeUint160Array(uint160[])": "infinite",
				"serializeUint256(uint256)": "infinite",
				"serializeUint32(uint32)": "infinite",
				"serializeUint64(uint64)": "infinite",
				"serializeUint8(uint8)": "infinite",
				"verusHashPrefix(string,uint160,int64,uint160,bytes)": "infinite"
			}
		},
		"methodIdentifiers": {
			"flipArray(bytes)": "1222d81a",
			"serializeAddress(address)": "241d23b2",
			"serializeBool(bool)": "009c8152",
			"serializeBytes20(bytes20)": "463276c3",
			"serializeCCoinbaseCurrencyState((uint16,uint16,uint160,uint160[],int32[],int64[],int64,int64,int64,int64,int64,int64,int64,int64[],int64[],int64[],int64[],int64[],int64[],int64[],int32[]))": "6087c21d",
			"serializeCCrossChainExport((uint32,uint32,uint160,uint32,uint32,uint160,uint160,int32,(uint160,uint64)[],(uint160,uint64)[],uint256,(uint160,uint64)[],address,int32))": "bd5ea273",
			"serializeCCurrencyValueMap((uint160,uint64))": "c41c134d",
			"serializeCCurrencyValueMaps((uint160,uint64)[])": "c6f4c269",
			"serializeCNodeData((string,uint160))": "13f9d46d",
			"serializeCPBaaSNotarization((uint32,(uint32,uint160),uint32,(uint16,uint16,uint160,uint160[],int32[],int64[],int64,int64,int64,int64,int64,int64,int64,int64[],int64[],int64[],int64[],int64[],int64[],int64[],int32[]),uint256,int64,uint256,uint64,(uint160,(uint16,uint16,uint160,uint160[],int32[],int64[],int64,int64,int64,int64,int64,int64,int64,int64[],int64[],int64[],int64[],int64[],int64[],int64[],int32[]))[],(uint160,(int16,int16,uint160,uint32,uint256,uint256,uint256))[],(string,uint160)[]))": "f2fc6d61",
			"serializeCProofRoot((int16,int16,uint160,uint32,uint256,uint256,uint256))": "537b91f5",
			"serializeCReserveTransfer((uint32,(uint160,uint64),uint32,uint160,uint256,(uint32,uint160),uint160,uint160,uint160))": "baa42698",
			"serializeCReserveTransfers((uint32,(uint160,uint64),uint32,uint160,uint256,(uint32,uint160),uint160,uint160,uint160)[])": "48352c07",
			"serializeCTransferDestination((uint32,uint160))": "20907b41",
			"serializeCUTXORef((uint256,uint32))": "b9edc795",
			"serializeCurrencyStates((uint160,(uint16,uint16,uint160,uint160[],int32[],int64[],int64,int64,int64,int64,int64,int64,int64,int64[],int64[],int64[],int64[],int64[],int64[],int64[],int32[])))": "eb7d70eb",
			"serializeCurrencyStatesArray((uint160,(uint16,uint16,uint160,uint160[],int32[],int64[],int64,int64,int64,int64,int64,int64,int64,int64[],int64[],int64[],int64[],int64[],int64[],int64[],int32[]))[])": "c28c5859",
			"serializeInt16(int16)": "46256007",
			"serializeInt32(int32)": "fef5906a",
			"serializeInt32Array(int32[])": "9d487b47",
			"serializeInt64(int64)": "af832f09",
			"serializeInt64Array(int64[])": "f8217295",
			"serializeNodes((string,uint160)[])": "d75a295b",
			"serializeProofRoots((uint160,(int16,int16,uint160,uint32,uint256,uint256,uint256)))": "253fe4ee",
			"serializeProofRootsArray((uint160,(int16,int16,uint160,uint32,uint256,uint256,uint256))[])": "d40274b2",
			"serializeString(string)": "68b4ae81",
			"serializeUint16(uint16)": "e4cba547",
			"serializeUint160(uint160)": "57759e15",
			"serializeUint160Array(uint160[])": "19a7c17b",
			"serializeUint256(uint256)": "f20fb830",
			"serializeUint32(uint32)": "cecb3043",
			"serializeUint64(uint64)": "122e5ae7",
			"serializeUint8(uint8)": "6127b4ff",
			"verusHashPrefix(string,uint160,int64,uint160,bytes)": "25c130c9"
		}
	},
	"abi": [
		{
			"inputs": [
				{
					"internalType": "bytes",
					"name": "incoming",
					"type": "bytes"
				}
			],
			"name": "flipArray",
			"outputs": [
				{
					"internalType": "bytes",
					"name": "",
					"type": "bytes"
				}
			],
			"stateMutability": "pure",
			"type": "function"
		},
		{
			"inputs": [
				{
					"internalType": "address",
					"name": "anyAddress",
					"type": "address"
				}
			],
			"name": "serializeAddress",
			"outputs": [
				{
					"internalType": "bytes",
					"name": "",
					"type": "bytes"
				}
			],
			"stateMutability": "pure",
			"type": "function"
		},
		{
			"inputs": [
				{
					"internalType": "bool",
					"name": "anyBool",
					"type": "bool"
				}
			],
			"name": "serializeBool",
			"outputs": [
				{
					"internalType": "bytes",
					"name": "",
					"type": "bytes"
				}
			],
			"stateMutability": "pure",
			"type": "function"
		},
		{
			"inputs": [
				{
					"internalType": "bytes20",
					"name": "anyBytes20",
					"type": "bytes20"
				}
			],
			"name": "serializeBytes20",
			"outputs": [
				{
					"internalType": "bytes",
					"name": "",
					"type": "bytes"
				}
			],
			"stateMutability": "pure",
			"type": "function"
		},
		{
			"inputs": [
				{
					"components": [
						{
							"internalType": "uint16",
							"name": "version",
							"type": "uint16"
						},
						{
							"internalType": "uint16",
							"name": "flags",
							"type": "uint16"
						},
						{
							"internalType": "uint160",
							"name": "currencyID",
							"type": "uint160"
						},
						{
							"internalType": "uint160[]",
							"name": "currencies",
							"type": "uint160[]"
						},
						{
							"internalType": "int32[]",
							"name": "weights",
							"type": "int32[]"
						},
						{
							"internalType": "int64[]",
							"name": "reserves",
							"type": "int64[]"
						},
						{
							"internalType": "int64",
							"name": "initialSupply",
							"type": "int64"
						},
						{
							"internalType": "int64",
							"name": "emitted",
							"type": "int64"
						},
						{
							"internalType": "int64",
							"name": "supply",
							"type": "int64"
						},
						{
							"internalType": "int64",
							"name": "primaryCurrencyOut",
							"type": "int64"
						},
						{
							"internalType": "int64",
							"name": "preconvertedOut",
							"type": "int64"
						},
						{
							"internalType": "int64",
							"name": "primaryCurrencyFees",
							"type": "int64"
						},
						{
							"internalType": "int64",
							"name": "primaryCurrencyConversionFees",
							"type": "int64"
						},
						{
							"internalType": "int64[]",
							"name": "reserveIn",
							"type": "int64[]"
						},
						{
							"internalType": "int64[]",
							"name": "primaryCurrencyIn",
							"type": "int64[]"
						},
						{
							"internalType": "int64[]",
							"name": "reserveOut",
							"type": "int64[]"
						},
						{
							"internalType": "int64[]",
							"name": "conversionPrice",
							"type": "int64[]"
						},
						{
							"internalType": "int64[]",
							"name": "viaConversionPrice",
							"type": "int64[]"
						},
						{
							"internalType": "int64[]",
							"name": "fees",
							"type": "int64[]"
						},
						{
							"internalType": "int64[]",
							"name": "conversionFees",
							"type": "int64[]"
						},
						{
							"internalType": "int32[]",
							"name": "priorWeights",
							"type": "int32[]"
						}
					],
					"internalType": "struct VerusObjects.CCoinbaseCurrencyState",
					"name": "_cccs",
					"type": "tuple"
				}
			],
			"name": "serializeCCoinbaseCurrencyState",
			"outputs": [
				{
					"internalType": "bytes",
					"name": "",
					"type": "bytes"
				}
			],
			"stateMutability": "pure",
			"type": "function"
		},
		{
			"inputs": [
				{
					"components": [
						{
							"internalType": "uint32",
							"name": "version",
							"type": "uint32"
						},
						{
							"internalType": "uint32",
							"name": "flags",
							"type": "uint32"
						},
						{
							"internalType": "uint160",
							"name": "sourcesystemid",
							"type": "uint160"
						},
						{
							"internalType": "uint32",
							"name": "sourceheightstart",
							"type": "uint32"
						},
						{
							"internalType": "uint32",
							"name": "sourceheightend",
							"type": "uint32"
						},
						{
							"internalType": "uint160",
							"name": "destinationsystemid",
							"type": "uint160"
						},
						{
							"internalType": "uint160",
							"name": "destinationcurrencyid",
							"type": "uint160"
						},
						{
							"internalType": "int32",
							"name": "numinputs",
							"type": "int32"
						},
						{
							"components": [
								{
									"internalType": "uint160",
									"name": "currency",
									"type": "uint160"
								},
								{
									"internalType": "uint64",
									"name": "amount",
									"type": "uint64"
								}
							],
							"internalType": "struct VerusObjects.CCurrencyValueMap[]",
							"name": "totalamounts",
							"type": "tuple[]"
						},
						{
							"components": [
								{
									"internalType": "uint160",
									"name": "currency",
									"type": "uint160"
								},
								{
									"internalType": "uint64",
									"name": "amount",
									"type": "uint64"
								}
							],
							"internalType": "struct VerusObjects.CCurrencyValueMap[]",
							"name": "totalfees",
							"type": "tuple[]"
						},
						{
							"internalType": "uint256",
							"name": "hashtransfers",
							"type": "uint256"
						},
						{
							"components": [
								{
									"internalType": "uint160",
									"name": "currency",
									"type": "uint160"
								},
								{
									"internalType": "uint64",
									"name": "amount",
									"type": "uint64"
								}
							],
							"internalType": "struct VerusObjects.CCurrencyValueMap[]",
							"name": "totalburned",
							"type": "tuple[]"
						},
						{
							"internalType": "address",
							"name": "rewardaddress",
							"type": "address"
						},
						{
							"internalType": "int32",
							"name": "firstinput",
							"type": "int32"
						}
					],
					"internalType": "struct VerusObjects.CCrossChainExport",
					"name": "_ccce",
					"type": "tuple"
				}
			],
			"name": "serializeCCrossChainExport",
			"outputs": [
				{
					"internalType": "bytes",
					"name": "",
					"type": "bytes"
				}
			],
			"stateMutability": "pure",
			"type": "function"
		},
		{
			"inputs": [
				{
					"components": [
						{
							"internalType": "uint160",
							"name": "currency",
							"type": "uint160"
						},
						{
							"internalType": "uint64",
							"name": "amount",
							"type": "uint64"
						}
					],
					"internalType": "struct VerusObjects.CCurrencyValueMap",
					"name": "_ccvm",
					"type": "tuple"
				}
			],
			"name": "serializeCCurrencyValueMap",
			"outputs": [
				{
					"internalType": "bytes",
					"name": "",
					"type": "bytes"
				}
			],
			"stateMutability": "pure",
			"type": "function"
		},
		{
			"inputs": [
				{
					"components": [
						{
							"internalType": "uint160",
							"name": "currency",
							"type": "uint160"
						},
						{
							"internalType": "uint64",
							"name": "amount",
							"type": "uint64"
						}
					],
					"internalType": "struct VerusObjects.CCurrencyValueMap[]",
					"name": "_ccvms",
					"type": "tuple[]"
				}
			],
			"name": "serializeCCurrencyValueMaps",
			"outputs": [
				{
					"internalType": "bytes",
					"name": "",
					"type": "bytes"
				}
			],
			"stateMutability": "pure",
			"type": "function"
		},
		{
			"inputs": [
				{
					"components": [
						{
							"internalType": "string",
							"name": "networkAddress",
							"type": "string"
						},
						{
							"internalType": "uint160",
							"name": "nodeIdentity",
							"type": "uint160"
						}
					],
					"internalType": "struct VerusObjects.CNodeData",
					"name": "_cnd",
					"type": "tuple"
				}
			],
			"name": "serializeCNodeData",
			"outputs": [
				{
					"internalType": "bytes",
					"name": "",
					"type": "bytes"
				}
			],
			"stateMutability": "pure",
			"type": "function"
		},
		{
			"inputs": [
				{
					"components": [
						{
							"internalType": "uint32",
							"name": "version",
							"type": "uint32"
						},
						{
							"components": [
								{
									"internalType": "uint32",
									"name": "destinationtype",
									"type": "uint32"
								},
								{
									"internalType": "uint160",
									"name": "destinationaddress",
									"type": "uint160"
								}
							],
							"internalType": "struct VerusObjects.CTransferDestination",
							"name": "proposer",
							"type": "tuple"
						},
						{
							"internalType": "uint32",
							"name": "notarizationHeight",
							"type": "uint32"
						},
						{
							"components": [
								{
									"internalType": "uint16",
									"name": "version",
									"type": "uint16"
								},
								{
									"internalType": "uint16",
									"name": "flags",
									"type": "uint16"
								},
								{
									"internalType": "uint160",
									"name": "currencyID",
									"type": "uint160"
								},
								{
									"internalType": "uint160[]",
									"name": "currencies",
									"type": "uint160[]"
								},
								{
									"internalType": "int32[]",
									"name": "weights",
									"type": "int32[]"
								},
								{
									"internalType": "int64[]",
									"name": "reserves",
									"type": "int64[]"
								},
								{
									"internalType": "int64",
									"name": "initialSupply",
									"type": "int64"
								},
								{
									"internalType": "int64",
									"name": "emitted",
									"type": "int64"
								},
								{
									"internalType": "int64",
									"name": "supply",
									"type": "int64"
								},
								{
									"internalType": "int64",
									"name": "primaryCurrencyOut",
									"type": "int64"
								},
								{
									"internalType": "int64",
									"name": "preconvertedOut",
									"type": "int64"
								},
								{
									"internalType": "int64",
									"name": "primaryCurrencyFees",
									"type": "int64"
								},
								{
									"internalType": "int64",
									"name": "primaryCurrencyConversionFees",
									"type": "int64"
								},
								{
									"internalType": "int64[]",
									"name": "reserveIn",
									"type": "int64[]"
								},
								{
									"internalType": "int64[]",
									"name": "primaryCurrencyIn",
									"type": "int64[]"
								},
								{
									"internalType": "int64[]",
									"name": "reserveOut",
									"type": "int64[]"
								},
								{
									"internalType": "int64[]",
									"name": "conversionPrice",
									"type": "int64[]"
								},
								{
									"internalType": "int64[]",
									"name": "viaConversionPrice",
									"type": "int64[]"
								},
								{
									"internalType": "int64[]",
									"name": "fees",
									"type": "int64[]"
								},
								{
									"internalType": "int64[]",
									"name": "conversionFees",
									"type": "int64[]"
								},
								{
									"internalType": "int32[]",
									"name": "priorWeights",
									"type": "int32[]"
								}
							],
							"internalType": "struct VerusObjects.CCoinbaseCurrencyState",
							"name": "currencyState",
							"type": "tuple"
						},
						{
							"internalType": "uint256",
							"name": "prevnotarizationtxid",
							"type": "uint256"
						},
						{
							"internalType": "int64",
							"name": "prevnotarizationout",
							"type": "int64"
						},
						{
							"internalType": "uint256",
							"name": "hashprevnotarizationobject",
							"type": "uint256"
						},
						{
							"internalType": "uint64",
							"name": "prevheight",
							"type": "uint64"
						},
						{
							"components": [
								{
									"internalType": "uint160",
									"name": "currencyId",
									"type": "uint160"
								},
								{
									"components": [
										{
											"internalType": "uint16",
											"name": "version",
											"type": "uint16"
										},
										{
											"internalType": "uint16",
											"name": "flags",
											"type": "uint16"
										},
										{
											"internalType": "uint160",
											"name": "currencyID",
											"type": "uint160"
										},
										{
											"internalType": "uint160[]",
											"name": "currencies",
											"type": "uint160[]"
										},
										{
											"internalType": "int32[]",
											"name": "weights",
											"type": "int32[]"
										},
										{
											"internalType": "int64[]",
											"name": "reserves",
											"type": "int64[]"
										},
										{
											"internalType": "int64",
											"name": "initialSupply",
											"type": "int64"
										},
										{
											"internalType": "int64",
											"name": "emitted",
											"type": "int64"
										},
										{
											"internalType": "int64",
											"name": "supply",
											"type": "int64"
										},
										{
											"internalType": "int64",
											"name": "primaryCurrencyOut",
											"type": "int64"
										},
										{
											"internalType": "int64",
											"name": "preconvertedOut",
											"type": "int64"
										},
										{
											"internalType": "int64",
											"name": "primaryCurrencyFees",
											"type": "int64"
										},
										{
											"internalType": "int64",
											"name": "primaryCurrencyConversionFees",
											"type": "int64"
										},
										{
											"internalType": "int64[]",
											"name": "reserveIn",
											"type": "int64[]"
										},
										{
											"internalType": "int64[]",
											"name": "primaryCurrencyIn",
											"type": "int64[]"
										},
										{
											"internalType": "int64[]",
											"name": "reserveOut",
											"type": "int64[]"
										},
										{
											"internalType": "int64[]",
											"name": "conversionPrice",
											"type": "int64[]"
										},
										{
											"internalType": "int64[]",
											"name": "viaConversionPrice",
											"type": "int64[]"
										},
										{
											"internalType": "int64[]",
											"name": "fees",
											"type": "int64[]"
										},
										{
											"internalType": "int64[]",
											"name": "conversionFees",
											"type": "int64[]"
										},
										{
											"internalType": "int32[]",
											"name": "priorWeights",
											"type": "int32[]"
										}
									],
									"internalType": "struct VerusObjects.CCoinbaseCurrencyState",
									"name": "currencyState",
									"type": "tuple"
								}
							],
							"internalType": "struct VerusObjects.CurrencyStates[]",
							"name": "currencyStates",
							"type": "tuple[]"
						},
						{
							"components": [
								{
									"internalType": "uint160",
									"name": "currencyId",
									"type": "uint160"
								},
								{
									"components": [
										{
											"internalType": "int16",
											"name": "version",
											"type": "int16"
										},
										{
											"internalType": "int16",
											"name": "CPRtype",
											"type": "int16"
										},
										{
											"internalType": "uint160",
											"name": "systemID",
											"type": "uint160"
										},
										{
											"internalType": "uint32",
											"name": "rootHeight",
											"type": "uint32"
										},
										{
											"internalType": "uint256",
											"name": "stateRoot",
											"type": "uint256"
										},
										{
											"internalType": "uint256",
											"name": "blockHash",
											"type": "uint256"
										},
										{
											"internalType": "uint256",
											"name": "compactPower",
											"type": "uint256"
										}
									],
									"internalType": "struct VerusObjects.CProofRoot",
									"name": "proofRoot",
									"type": "tuple"
								}
							],
							"internalType": "struct VerusObjects.ProofRoots[]",
							"name": "proofRoots",
							"type": "tuple[]"
						},
						{
							"components": [
								{
									"internalType": "string",
									"name": "networkAddress",
									"type": "string"
								},
								{
									"internalType": "uint160",
									"name": "nodeIdentity",
									"type": "uint160"
								}
							],
							"internalType": "struct VerusObjects.CNodeData[]",
							"name": "nodes",
							"type": "tuple[]"
						}
					],
					"internalType": "struct VerusObjects.CPBaaSNotarization",
					"name": "_not",
					"type": "tuple"
				}
			],
			"name": "serializeCPBaaSNotarization",
			"outputs": [
				{
					"internalType": "bytes",
					"name": "",
					"type": "bytes"
				}
			],
			"stateMutability": "pure",
			"type": "function"
		},
		{
			"inputs": [
				{
					"components": [
						{
							"internalType": "int16",
							"name": "version",
							"type": "int16"
						},
						{
							"internalType": "int16",
							"name": "CPRtype",
							"type": "int16"
						},
						{
							"internalType": "uint160",
							"name": "systemID",
							"type": "uint160"
						},
						{
							"internalType": "uint32",
							"name": "rootHeight",
							"type": "uint32"
						},
						{
							"internalType": "uint256",
							"name": "stateRoot",
							"type": "uint256"
						},
						{
							"internalType": "uint256",
							"name": "blockHash",
							"type": "uint256"
						},
						{
							"internalType": "uint256",
							"name": "compactPower",
							"type": "uint256"
						}
					],
					"internalType": "struct VerusObjects.CProofRoot",
					"name": "_cpr",
					"type": "tuple"
				}
			],
			"name": "serializeCProofRoot",
			"outputs": [
				{
					"internalType": "bytes",
					"name": "",
					"type": "bytes"
				}
			],
			"stateMutability": "pure",
			"type": "function"
		},
		{
			"inputs": [
				{
					"components": [
						{
							"internalType": "uint32",
							"name": "version",
							"type": "uint32"
						},
						{
							"components": [
								{
									"internalType": "uint160",
									"name": "currency",
									"type": "uint160"
								},
								{
									"internalType": "uint64",
									"name": "amount",
									"type": "uint64"
								}
							],
							"internalType": "struct VerusObjects.CCurrencyValueMap",
							"name": "currencyvalue",
							"type": "tuple"
						},
						{
							"internalType": "uint32",
							"name": "flags",
							"type": "uint32"
						},
						{
							"internalType": "uint160",
							"name": "feecurrencyid",
							"type": "uint160"
						},
						{
							"internalType": "uint256",
							"name": "fees",
							"type": "uint256"
						},
						{
							"components": [
								{
									"internalType": "uint32",
									"name": "destinationtype",
									"type": "uint32"
								},
								{
									"internalType": "uint160",
									"name": "destinationaddress",
									"type": "uint160"
								}
							],
							"internalType": "struct VerusObjects.CTransferDestination",
							"name": "destination",
							"type": "tuple"
						},
						{
							"internalType": "uint160",
							"name": "destCurrencyID",
							"type": "uint160"
						},
						{
							"internalType": "uint160",
							"name": "secondReserveID",
							"type": "uint160"
						},
						{
							"internalType": "uint160",
							"name": "destSystemID",
							"type": "uint160"
						}
					],
					"internalType": "struct VerusObjects.CReserveTransfer",
					"name": "ct",
					"type": "tuple"
				}
			],
			"name": "serializeCReserveTransfer",
			"outputs": [
				{
					"internalType": "bytes",
					"name": "",
					"type": "bytes"
				}
			],
			"stateMutability": "pure",
			"type": "function"
		},
		{
			"inputs": [
				{
					"components": [
						{
							"internalType": "uint32",
							"name": "version",
							"type": "uint32"
						},
						{
							"components": [
								{
									"internalType": "uint160",
									"name": "currency",
									"type": "uint160"
								},
								{
									"internalType": "uint64",
									"name": "amount",
									"type": "uint64"
								}
							],
							"internalType": "struct VerusObjects.CCurrencyValueMap",
							"name": "currencyvalue",
							"type": "tuple"
						},
						{
							"internalType": "uint32",
							"name": "flags",
							"type": "uint32"
						},
						{
							"internalType": "uint160",
							"name": "feecurrencyid",
							"type": "uint160"
						},
						{
							"internalType": "uint256",
							"name": "fees",
							"type": "uint256"
						},
						{
							"components": [
								{
									"internalType": "uint32",
									"name": "destinationtype",
									"type": "uint32"
								},
								{
									"internalType": "uint160",
									"name": "destinationaddress",
									"type": "uint160"
								}
							],
							"internalType": "struct VerusObjects.CTransferDestination",
							"name": "destination",
							"type": "tuple"
						},
						{
							"internalType": "uint160",
							"name": "destCurrencyID",
							"type": "uint160"
						},
						{
							"internalType": "uint160",
							"name": "secondReserveID",
							"type": "uint160"
						},
						{
							"internalType": "uint160",
							"name": "destSystemID",
							"type": "uint160"
						}
					],
					"internalType": "struct VerusObjects.CReserveTransfer[]",
					"name": "_bts",
					"type": "tuple[]"
				}
			],
			"name": "serializeCReserveTransfers",
			"outputs": [
				{
					"internalType": "bytes",
					"name": "",
					"type": "bytes"
				}
			],
			"stateMutability": "pure",
			"type": "function"
		},
		{
			"inputs": [
				{
					"components": [
						{
							"internalType": "uint32",
							"name": "destinationtype",
							"type": "uint32"
						},
						{
							"internalType": "uint160",
							"name": "destinationaddress",
							"type": "uint160"
						}
					],
					"internalType": "struct VerusObjects.CTransferDestination",
					"name": "ctd",
					"type": "tuple"
				}
			],
			"name": "serializeCTransferDestination",
			"outputs": [
				{
					"internalType": "bytes",
					"name": "",
					"type": "bytes"
				}
			],
			"stateMutability": "pure",
			"type": "function"
		},
		{
			"inputs": [
				{
					"components": [
						{
							"internalType": "uint256",
							"name": "hash",
							"type": "uint256"
						},
						{
							"internalType": "uint32",
							"name": "n",
							"type": "uint32"
						}
					],
					"internalType": "struct VerusObjects.CUTXORef",
					"name": "_cutxo",
					"type": "tuple"
				}
			],
			"name": "serializeCUTXORef",
			"outputs": [
				{
					"internalType": "bytes",
					"name": "",
					"type": "bytes"
				}
			],
			"stateMutability": "pure",
			"type": "function"
		},
		{
			"inputs": [
				{
					"components": [
						{
							"internalType": "uint160",
							"name": "currencyId",
							"type": "uint160"
						},
						{
							"components": [
								{
									"internalType": "uint16",
									"name": "version",
									"type": "uint16"
								},
								{
									"internalType": "uint16",
									"name": "flags",
									"type": "uint16"
								},
								{
									"internalType": "uint160",
									"name": "currencyID",
									"type": "uint160"
								},
								{
									"internalType": "uint160[]",
									"name": "currencies",
									"type": "uint160[]"
								},
								{
									"internalType": "int32[]",
									"name": "weights",
									"type": "int32[]"
								},
								{
									"internalType": "int64[]",
									"name": "reserves",
									"type": "int64[]"
								},
								{
									"internalType": "int64",
									"name": "initialSupply",
									"type": "int64"
								},
								{
									"internalType": "int64",
									"name": "emitted",
									"type": "int64"
								},
								{
									"internalType": "int64",
									"name": "supply",
									"type": "int64"
								},
								{
									"internalType": "int64",
									"name": "primaryCurrencyOut",
									"type": "int64"
								},
								{
									"internalType": "int64",
									"name": "preconvertedOut",
									"type": "int64"
								},
								{
									"internalType": "int64",
									"name": "primaryCurrencyFees",
									"type": "int64"
								},
								{
									"internalType": "int64",
									"name": "primaryCurrencyConversionFees",
									"type": "int64"
								},
								{
									"internalType": "int64[]",
									"name": "reserveIn",
									"type": "int64[]"
								},
								{
									"internalType": "int64[]",
									"name": "primaryCurrencyIn",
									"type": "int64[]"
								},
								{
									"internalType": "int64[]",
									"name": "reserveOut",
									"type": "int64[]"
								},
								{
									"internalType": "int64[]",
									"name": "conversionPrice",
									"type": "int64[]"
								},
								{
									"internalType": "int64[]",
									"name": "viaConversionPrice",
									"type": "int64[]"
								},
								{
									"internalType": "int64[]",
									"name": "fees",
									"type": "int64[]"
								},
								{
									"internalType": "int64[]",
									"name": "conversionFees",
									"type": "int64[]"
								},
								{
									"internalType": "int32[]",
									"name": "priorWeights",
									"type": "int32[]"
								}
							],
							"internalType": "struct VerusObjects.CCoinbaseCurrencyState",
							"name": "currencyState",
							"type": "tuple"
						}
					],
					"internalType": "struct VerusObjects.CurrencyStates",
					"name": "_cs",
					"type": "tuple"
				}
			],
			"name": "serializeCurrencyStates",
			"outputs": [
				{
					"internalType": "bytes",
					"name": "",
					"type": "bytes"
				}
			],
			"stateMutability": "pure",
			"type": "function"
		},
		{
			"inputs": [
				{
					"components": [
						{
							"internalType": "uint160",
							"name": "currencyId",
							"type": "uint160"
						},
						{
							"components": [
								{
									"internalType": "uint16",
									"name": "version",
									"type": "uint16"
								},
								{
									"internalType": "uint16",
									"name": "flags",
									"type": "uint16"
								},
								{
									"internalType": "uint160",
									"name": "currencyID",
									"type": "uint160"
								},
								{
									"internalType": "uint160[]",
									"name": "currencies",
									"type": "uint160[]"
								},
								{
									"internalType": "int32[]",
									"name": "weights",
									"type": "int32[]"
								},
								{
									"internalType": "int64[]",
									"name": "reserves",
									"type": "int64[]"
								},
								{
									"internalType": "int64",
									"name": "initialSupply",
									"type": "int64"
								},
								{
									"internalType": "int64",
									"name": "emitted",
									"type": "int64"
								},
								{
									"internalType": "int64",
									"name": "supply",
									"type": "int64"
								},
								{
									"internalType": "int64",
									"name": "primaryCurrencyOut",
									"type": "int64"
								},
								{
									"internalType": "int64",
									"name": "preconvertedOut",
									"type": "int64"
								},
								{
									"internalType": "int64",
									"name": "primaryCurrencyFees",
									"type": "int64"
								},
								{
									"internalType": "int64",
									"name": "primaryCurrencyConversionFees",
									"type": "int64"
								},
								{
									"internalType": "int64[]",
									"name": "reserveIn",
									"type": "int64[]"
								},
								{
									"internalType": "int64[]",
									"name": "primaryCurrencyIn",
									"type": "int64[]"
								},
								{
									"internalType": "int64[]",
									"name": "reserveOut",
									"type": "int64[]"
								},
								{
									"internalType": "int64[]",
									"name": "conversionPrice",
									"type": "int64[]"
								},
								{
									"internalType": "int64[]",
									"name": "viaConversionPrice",
									"type": "int64[]"
								},
								{
									"internalType": "int64[]",
									"name": "fees",
									"type": "int64[]"
								},
								{
									"internalType": "int64[]",
									"name": "conversionFees",
									"type": "int64[]"
								},
								{
									"internalType": "int32[]",
									"name": "priorWeights",
									"type": "int32[]"
								}
							],
							"internalType": "struct VerusObjects.CCoinbaseCurrencyState",
							"name": "currencyState",
							"type": "tuple"
						}
					],
					"internalType": "struct VerusObjects.CurrencyStates[]",
					"name": "_csa",
					"type": "tuple[]"
				}
			],
			"name": "serializeCurrencyStatesArray",
			"outputs": [
				{
					"internalType": "bytes",
					"name": "",
					"type": "bytes"
				}
			],
			"stateMutability": "pure",
			"type": "function"
		},
		{
			"inputs": [
				{
					"internalType": "int16",
					"name": "number",
					"type": "int16"
				}
			],
			"name": "serializeInt16",
			"outputs": [
				{
					"internalType": "bytes",
					"name": "",
					"type": "bytes"
				}
			],
			"stateMutability": "pure",
			"type": "function"
		},
		{
			"inputs": [
				{
					"internalType": "int32",
					"name": "number",
					"type": "int32"
				}
			],
			"name": "serializeInt32",
			"outputs": [
				{
					"internalType": "bytes",
					"name": "",
					"type": "bytes"
				}
			],
			"stateMutability": "pure",
			"type": "function"
		},
		{
			"inputs": [
				{
					"internalType": "int32[]",
					"name": "numbers",
					"type": "int32[]"
				}
			],
			"name": "serializeInt32Array",
			"outputs": [
				{
					"internalType": "bytes",
					"name": "",
					"type": "bytes"
				}
			],
			"stateMutability": "pure",
			"type": "function"
		},
		{
			"inputs": [
				{
					"internalType": "int64",
					"name": "number",
					"type": "int64"
				}
			],
			"name": "serializeInt64",
			"outputs": [
				{
					"internalType": "bytes",
					"name": "",
					"type": "bytes"
				}
			],
			"stateMutability": "pure",
			"type": "function"
		},
		{
			"inputs": [
				{
					"internalType": "int64[]",
					"name": "numbers",
					"type": "int64[]"
				}
			],
			"name": "serializeInt64Array",
			"outputs": [
				{
					"internalType": "bytes",
					"name": "",
					"type": "bytes"
				}
			],
			"stateMutability": "pure",
			"type": "function"
		},
		{
			"inputs": [
				{
					"components": [
						{
							"internalType": "string",
							"name": "networkAddress",
							"type": "string"
						},
						{
							"internalType": "uint160",
							"name": "nodeIdentity",
							"type": "uint160"
						}
					],
					"internalType": "struct VerusObjects.CNodeData[]",
					"name": "_cnds",
					"type": "tuple[]"
				}
			],
			"name": "serializeNodes",
			"outputs": [
				{
					"internalType": "bytes",
					"name": "",
					"type": "bytes"
				}
			],
			"stateMutability": "pure",
			"type": "function"
		},
		{
			"inputs": [
				{
					"components": [
						{
							"internalType": "uint160",
							"name": "currencyId",
							"type": "uint160"
						},
						{
							"components": [
								{
									"internalType": "int16",
									"name": "version",
									"type": "int16"
								},
								{
									"internalType": "int16",
									"name": "CPRtype",
									"type": "int16"
								},
								{
									"internalType": "uint160",
									"name": "systemID",
									"type": "uint160"
								},
								{
									"internalType": "uint32",
									"name": "rootHeight",
									"type": "uint32"
								},
								{
									"internalType": "uint256",
									"name": "stateRoot",
									"type": "uint256"
								},
								{
									"internalType": "uint256",
									"name": "blockHash",
									"type": "uint256"
								},
								{
									"internalType": "uint256",
									"name": "compactPower",
									"type": "uint256"
								}
							],
							"internalType": "struct VerusObjects.CProofRoot",
							"name": "proofRoot",
							"type": "tuple"
						}
					],
					"internalType": "struct VerusObjects.ProofRoots",
					"name": "_prs",
					"type": "tuple"
				}
			],
			"name": "serializeProofRoots",
			"outputs": [
				{
					"internalType": "bytes",
					"name": "",
					"type": "bytes"
				}
			],
			"stateMutability": "pure",
			"type": "function"
		},
		{
			"inputs": [
				{
					"components": [
						{
							"internalType": "uint160",
							"name": "currencyId",
							"type": "uint160"
						},
						{
							"components": [
								{
									"internalType": "int16",
									"name": "version",
									"type": "int16"
								},
								{
									"internalType": "int16",
									"name": "CPRtype",
									"type": "int16"
								},
								{
									"internalType": "uint160",
									"name": "systemID",
									"type": "uint160"
								},
								{
									"internalType": "uint32",
									"name": "rootHeight",
									"type": "uint32"
								},
								{
									"internalType": "uint256",
									"name": "stateRoot",
									"type": "uint256"
								},
								{
									"internalType": "uint256",
									"name": "blockHash",
									"type": "uint256"
								},
								{
									"internalType": "uint256",
									"name": "compactPower",
									"type": "uint256"
								}
							],
							"internalType": "struct VerusObjects.CProofRoot",
							"name": "proofRoot",
							"type": "tuple"
						}
					],
					"internalType": "struct VerusObjects.ProofRoots[]",
					"name": "_prsa",
					"type": "tuple[]"
				}
			],
			"name": "serializeProofRootsArray",
			"outputs": [
				{
					"internalType": "bytes",
					"name": "",
					"type": "bytes"
				}
			],
			"stateMutability": "pure",
			"type": "function"
		},
		{
			"inputs": [
				{
					"internalType": "string",
					"name": "anyString",
					"type": "string"
				}
			],
			"name": "serializeString",
			"outputs": [
				{
					"internalType": "bytes",
					"name": "",
					"type": "bytes"
				}
			],
			"stateMutability": "pure",
			"type": "function"
		},
		{
			"inputs": [
				{
					"internalType": "uint16",
					"name": "number",
					"type": "uint16"
				}
			],
			"name": "serializeUint16",
			"outputs": [
				{
					"internalType": "bytes",
					"name": "",
					"type": "bytes"
				}
			],
			"stateMutability": "pure",
			"type": "function"
		},
		{
			"inputs": [
				{
					"internalType": "uint160",
					"name": "number",
					"type": "uint160"
				}
			],
			"name": "serializeUint160",
			"outputs": [
				{
					"internalType": "bytes",
					"name": "",
					"type": "bytes"
				}
			],
			"stateMutability": "pure",
			"type": "function"
		},
		{
			"inputs": [
				{
					"internalType": "uint160[]",
					"name": "numbers",
					"type": "uint160[]"
				}
			],
			"name": "serializeUint160Array",
			"outputs": [
				{
					"internalType": "bytes",
					"name": "",
					"type": "bytes"
				}
			],
			"stateMutability": "pure",
			"type": "function"
		},
		{
			"inputs": [
				{
					"internalType": "uint256",
					"name": "number",
					"type": "uint256"
				}
			],
			"name": "serializeUint256",
			"outputs": [
				{
					"internalType": "bytes",
					"name": "",
					"type": "bytes"
				}
			],
			"stateMutability": "pure",
			"type": "function"
		},
		{
			"inputs": [
				{
					"internalType": "uint32",
					"name": "number",
					"type": "uint32"
				}
			],
			"name": "serializeUint32",
			"outputs": [
				{
					"internalType": "bytes",
					"name": "",
					"type": "bytes"
				}
			],
			"stateMutability": "pure",
			"type": "function"
		},
		{
			"inputs": [
				{
					"internalType": "uint64",
					"name": "number",
					"type": "uint64"
				}
			],
			"name": "serializeUint64",
			"outputs": [
				{
					"internalType": "bytes",
					"name": "",
					"type": "bytes"
				}
			],
			"stateMutability": "pure",
			"type": "function"
		},
		{
			"inputs": [
				{
					"internalType": "uint8",
					"name": "number",
					"type": "uint8"
				}
			],
			"name": "serializeUint8",
			"outputs": [
				{
					"internalType": "bytes",
					"name": "",
					"type": "bytes"
				}
			],
			"stateMutability": "pure",
			"type": "function"
		},
		{
			"inputs": [
				{
					"internalType": "string",
					"name": "prefix",
					"type": "string"
				},
				{
					"internalType": "uint160",
					"name": "systemID",
					"type": "uint160"
				},
				{
					"internalType": "int64",
					"name": "blockHeight",
					"type": "int64"
				},
				{
					"internalType": "uint160",
					"name": "signingID",
					"type": "uint160"
				},
				{
					"internalType": "bytes",
					"name": "messageToHash",
					"type": "bytes"
				}
			],
			"name": "verusHashPrefix",
			"outputs": [
				{
					"internalType": "bytes",
					"name": "",
					"type": "bytes"
				}
			],
			"stateMutability": "pure",
			"type": "function"
		}
	]
}