{
	"data": {
		"bytecode": {
			"linkReferences": {},
			"object": "608060405234801561001057600080fd5b50613ccf806100206000396000f3fe608060405234801561001057600080fd5b506004361061021b5760003560e01c80638bbfc13e11610125578063cecb3043116100ad578063e06711111161007c578063e0671111146107f0578063e4cba54714610820578063f20fb83014610850578063f821729514610880578063fef5906a146108b05761021b565b8063cecb304314610730578063cfa84de914610760578063dad935a114610790578063df61a937146107c05761021b565b8063b04d197a116100f4578063b04d197a14610640578063b1d53d1d14610670578063b3a895f6146106a0578063b9f7f35a146106d0578063c93e58c8146107005761021b565b80638bbfc13e14610580578063941bb060146105b05780639d487b47146105e0578063af832f09146106105761021b565b8063241d23b2116101a857806346256007116101775780634625600714610490578063463276c3146104c05780636127b4ff146104f057806368b4ae81146105205780637b92bd28146105505761021b565b8063241d23b2146103d057806333c45ab914610400578063343bee601461043057806344c789d1146104605761021b565b8063122e5ae7116101ef578063122e5ae7146102e057806318c9bbfd1461031057806319a7c17b146103405780631c35653214610370578063200f6c2a146103a05761021b565b80629c815214610220578063049e3490146102505780630a803a86146102805780631222d81a146102b0575b600080fd5b61023a60048036038101906102359190612aaf565b6108e0565b604051610247919061369c565b60405180910390f35b61026a60048036038101906102659190612957565b610909565b604051610277919061369c565b60405180910390f35b61029a60048036038101906102959190612cce565b61097a565b6040516102a7919061369c565b60405180910390f35b6102ca60048036038101906102c59190612b2a565b610af3565b6040516102d7919061369c565b60405180910390f35b6102fa60048036038101906102f59190612f86565b610bc4565b604051610307919061369c565b60405180910390f35b61032a60048036038101906103259190612dfb565b610bfb565b604051610337919061369c565b60405180910390f35b61035a60048036038101906103559190612a6e565b610c84565b604051610367919061369c565b60405180910390f35b61038a60048036038101906103859190612e77565b610d14565b604051610397919061369c565b60405180910390f35b6103ba60048036038101906103b591906129ec565b610d57565b6040516103c7919061369c565b60405180910390f35b6103ea60048036038101906103e5919061286b565b610dc8565b6040516103f7919061369c565b60405180910390f35b61041a60048036038101906104159190612ee1565b610df7565b604051610427919061369c565b60405180910390f35b61044a60048036038101906104459190612d0f565b610e3a565b604051610457919061369c565b60405180910390f35b61047a60048036038101906104759190612d79565b610f87565b604051610487919061369c565b60405180910390f35b6104aa60048036038101906104a59190612b6b565b610fc2565b6040516104b7919061369c565b60405180910390f35b6104da60048036038101906104d59190612ad8565b610ff9565b6040516104e7919061369c565b60405180910390f35b61050a60048036038101906105059190612faf565b611022565b604051610517919061369c565b60405180910390f35b61053a60048036038101906105359190612be6565b611059565b604051610547919061369c565b60405180910390f35b61056a60048036038101906105659190612a2d565b611082565b604051610577919061369c565b60405180910390f35b61059a60048036038101906105959190612e24565b6110f3565b6040516105a7919061369c565b60405180910390f35b6105ca60048036038101906105c59190612916565b611214565b6040516105d7919061369c565b60405180910390f35b6105fa60048036038101906105f59190612894565b611285565b604051610607919061369c565b60405180910390f35b61062a60048036038101906106259190612bbd565b6112ee565b604051610637919061369c565b60405180910390f35b61065a60048036038101906106559190612998565b611325565b604051610667919061369c565b60405180910390f35b61068a60048036038101906106859190612dba565b61139e565b604051610697919061369c565b60405180910390f35b6106ba60048036038101906106b59190612f34565b611471565b6040516106c7919061369c565b60405180910390f35b6106ea60048036038101906106e59190612b01565b6114f9565b6040516106f7919061369c565b60405180910390f35b61071a60048036038101906107159190612c27565b611522565b604051610727919061369c565b60405180910390f35b61074a60048036038101906107459190612f5d565b611577565b604051610757919061369c565b60405180910390f35b61077a60048036038101906107759190612d50565b6115ae565b604051610787919061369c565b60405180910390f35b6107aa60048036038101906107a59190612f34565b6115f1565b6040516107b7919061369c565b60405180910390f35b6107da60048036038101906107d59190612e4e565b6116c0565b6040516107e7919061369c565b60405180910390f35b61080a60048036038101906108059190612ea0565b61170e565b604051610817919061369c565b60405180910390f35b61083a60048036038101906108359190612f0b565b611751565b604051610847919061369c565b60405180910390f35b61086a60048036038101906108659190612f34565b611788565b604051610877919061369c565b60405180910390f35b61089a600480360381019061089591906128d5565b6117bf565b6040516108a7919061369c565b60405180910390f35b6108ca60048036038101906108c59190612b94565b61184f565b6040516108d7919061369c565b60405180910390f35b6060816040516020016108f391906131d0565b6040516020818303038152906040529050919050565b6060806109168351611788565b905060005b8351811015610970578161094185838151811061093457fe5b6020026020010151610f87565b604051602001610952929190613249565b6040516020818303038152906040529150808060010191505061091b565b5080915050919050565b6060600061098b8360000151611751565b6109988460200151611751565b6109a58560400151610dc8565b6109b28660600151610c84565b6109bf8760800151611285565b6109cc8860a001516117bf565b6040516020016109e1969594939291906132e9565b60405160208183030381529060405290506000610a028461012001516112ee565b610a108561014001516112ee565b610a1e8661016001516112ee565b610a2c8761018001516112ee565b610a3a886101a001516117bf565b610a48896101c001516117bf565b610a568a6101e001516117bf565b610a648b61020001516117bf565b610a728c61022001516117bf565b610a808d61024001516117bf565b610a8e8e61028001516117bf565b610a9c8f6102600151611285565b604051602001610ab79c9b9a9998979695949392919061341c565b60405160208183030381529060405290508181604051602001610adb929190613249565b60405160208183030381529060405292505050919050565b606060008251905060008167ffffffffffffffff81118015610b1457600080fd5b506040519080825280601f01601f191660200182016040528015610b475781602001600182028036833780820191505090505b50905060005b82811015610bb9578460018285030381518110610b6657fe5b602001015160f81c60f81b828281518110610b7d57fe5b60200101907effffffffffffffffffffffffffffffffffffffffffffffffffffffffffffff1916908160001a9053508080600101915050610b4d565b819350505050919050565b6060600082604051602001610bd991906135e2565b6040516020818303038152906040529050610bf381610af3565b915050919050565b6060610c0a8260000151610fc2565b610c178360200151610fc2565b610c248460400151610dc8565b610c318560600151611577565b610c3e86608001516114f9565b610c4b8760a001516114f9565b610c588860c001516114f9565b604051602001610c6e9796959493929190613341565b6040516020818303038152906040529050919050565b606080610c918351611788565b905060005b8351811015610d0a5781610cdb858381518110610caf57fe5b6020026020010151604051602001610cc79190613576565b604051602081830303815290604052610af3565b604051602001610cec929190613249565b60405160208183030381529060405291508080600101915050610c96565b5080915050919050565b6060610d2382600001516114f9565b610d308360200151611577565b604051602001610d41929190613249565b6040516020818303038152906040529050919050565b606080610d648351611788565b905060005b8351811015610dbe5781610d8f858381518110610d8257fe5b602002602001015161170e565b604051602001610da0929190613249565b60405160208183030381529060405291508080600101915050610d69565b5080915050919050565b6060600082604051602001610ddd91906131b5565b604051602081830303815290604052905080915050919050565b6060610e068260000151610dc8565b610e138360200151610bfb565b604051602001610e24929190613249565b6040516020818303038152906040529050919050565b60606000610e4b8360000151611751565b610e588460200151611751565b610e658560400151610dc8565b610e78866060015163ffffffff16611471565b610e8b876080015163ffffffff16611471565b610e988860a00151610dc8565b610ea58960c00151610dc8565b604051602001610ebb9796959493929190613341565b60405160208183030381529060405290506000610edb8460e00151611577565b610ee9856101000151611214565b610ef7866101200151611214565b610f058761014001516114f9565b610f13886101600151611214565b610f218961018001516116c0565b610f2f8a6101a0015161184f565b600060f81b604051602001610f4b9897969594939291906133a6565b60405160208183030381529060405290508181604051602001610f6f929190613249565b60405160208183030381529060405292505050919050565b60608160000151610f9b8360200151610dc8565b604051602001610fac929190613552565b6040516020818303038152906040529050919050565b6060600082604051602001610fd791906134ea565b6040516020818303038152906040529050610ff181610af3565b915050919050565b60608160405160200161100c91906131eb565b6040516020818303038152906040529050919050565b606060008260405160200161103791906135fd565b604051602081830303815290604052905061105181610af3565b915050919050565b60608160405160200161106c919061353b565b6040516020818303038152906040529050919050565b60608061108f8351611788565b905060005b83518110156110e957816110ba8583815181106110ad57fe5b6020026020010151610df7565b6040516020016110cb929190613249565b60405160208183030381529060405291508080600101915050611094565b5080915050919050565b6060600061110a836000015163ffffffff16611471565b61111b846020015160000151610dc8565b61113685602001516020015167ffffffffffffffff16611471565b604051602001611147929190613249565b604051602081830303815290604052611169856040015163ffffffff16611471565b6111768660600151610dc8565b6111838760800151611471565b6111908860a001516116c0565b61119d8960c00151610dc8565b6040516020016111b39796959493929190613341565b60405160208183030381529060405290506000604084604001511663ffffffff16111561120b57806111e88460e00151610dc8565b6040516020016111f9929190613249565b60405160208183030381529060405290505b80915050919050565b6060806112218351611471565b905060005b835181101561127b578161124c85838151811061123f57fe5b60200260200101516115ae565b60405160200161125d929190613249565b60405160208183030381529060405291508080600101915050611226565b5080915050919050565b6060806112928351611788565b905060005b83518110156112e457818482815181106112ad57fe5b60200260200101516040516020016112c69291906134c2565b60405160208183030381529060405291508080600101915050611297565b5080915050919050565b60606000826040516020016113039190613520565b604051602081830303815290604052905061131d81610af3565b915050919050565b606080821561133b5761133884516115f1565b90505b60005b8451811015611393578161136486838151811061135757fe5b60200260200101516110f3565b604051602001611375929190613249565b6040516020818303038152906040529150808060010191505061133e565b508091505092915050565b60606113ad8260000151611577565b6113ba8360200151611577565b6113c784604001516116c0565b6113d48560600151610dc8565b6113e1866080015161097a565b6113ee8760a00151611577565b6113fb8860c00151610d14565b6114088960e001516114f9565b6114168a6101000151610bc4565b6114248b6101200151610d57565b6114328c6101400151611082565b6114408d6101600151610909565b60405160200161145b9c9b9a9998979695949392919061341c565b6040516020818303038152906040529050919050565b60606000606060005b6001156114e6576000811415611491576000611494565b60805b607f86161760f81b925081836040516020016114b1929190613221565b6040516020818303038152906040529150607f85116114cf576114e6565b6001600786901c039450808060010191505061147a565b6114ef82610af3565b9350505050919050565b60608160405160200161150c9190613206565b6040516020818303038152906040529050919050565b606061152d86611059565b61153686610dc8565b61153f866112ee565b61154886610dc8565b8560405160200161155d95949392919061329e565b604051602081830303815290604052905095945050505050565b606060008260405160200161158c91906135c7565b60405160208183030381529060405290506115a681610af3565b915050919050565b60606115bd8260000151610dc8565b6115ca8360200151610bc4565b6040516020016115db929190613249565b6040516020818303038152906040529050919050565b60608060fd60ff16831015611627578260405160200161161191906135fd565b60405160208183030381529060405290506116b7565b61ffff831161165a5760fd83604051602001611644929190613618565b60405160208183030381529060405290506116b6565b63ffffffff831161168f5760fe83604051602001611679929190613644565b60405160208183030381529060405290506116b5565b60ff836040516020016116a3929190613670565b60405160208183030381529060405290505b5b5b80915050919050565b60606116cf8260000151611022565b6116d960146115f1565b6116e68460200151610dc8565b6040516020016116f89392919061326d565b6040516020818303038152906040529050919050565b606061171d8260000151610dc8565b61172a836020015161097a565b60405160200161173b929190613249565b6040516020818303038152906040529050919050565b60606000826040516020016117669190613591565b604051602081830303815290604052905061178081610af3565b915050919050565b606060008260405160200161179d91906135ac565b60405160208183030381529060405290506117b781610af3565b915050919050565b6060806117cc8351611788565b905060005b835181101561184557816118168583815181106117ea57fe5b60200260200101516040516020016118029190613520565b604051602081830303815290604052610af3565b604051602001611827929190613249565b604051602081830303815290604052915080806001019150506117d1565b5080915050919050565b60606000826040516020016118649190613505565b604051602081830303815290604052905061187e81610af3565b915050919050565b6000611899611894846136ef565b6136be565b905080838252602082019050828560208602820111156118b857600080fd5b60005b858110156118e857816118ce8882611e2b565b8452602084019350602083019250506001810190506118bb565b5050509392505050565b60006119056119008461371b565b6136be565b9050808382526020820190508285602086028201111561192457600080fd5b60005b85811015611954578161193a8882611e40565b845260208401935060208301925050600181019050611927565b5050509392505050565b600061197161196c84613747565b6136be565b9050808382526020820190508285604086028201111561199057600080fd5b60005b858110156119c057816119a688826122fd565b845260208401935060408301925050600181019050611993565b5050509392505050565b60006119dd6119d884613773565b6136be565b9050808382526020820190508260005b85811015611a1d5781358501611a038882612349565b8452602084019350602083019250506001810190506119ed565b5050509392505050565b6000611a3a611a358461379f565b6136be565b9050808382526020820190508285610140860282011115611a5a57600080fd5b60005b85811015611a8b5781611a7088826125dc565b84526020840193506101408301925050600181019050611a5d565b5050509392505050565b6000611aa8611aa3846137cb565b6136be565b9050808382526020820190508260005b85811015611ae85781358501611ace888261273c565b845260208401935060208301925050600181019050611ab8565b5050509392505050565b6000611b05611b00846137f7565b6136be565b9050808382526020820190508285610100860282011115611b2557600080fd5b60005b85811015611b565781611b3b88826127a0565b84526020840193506101008301925050600181019050611b28565b5050509392505050565b6000611b73611b6e84613823565b6136be565b90508083825260208201905082856020860282011115611b9257600080fd5b60005b85811015611bc25781611ba88882612802565b845260208401935060208301925050600181019050611b95565b5050509392505050565b6000611bdf611bda8461384f565b6136be565b905082815260208101848484011115611bf757600080fd5b611c028482856139fc565b509392505050565b6000611c1d611c188461387f565b6136be565b905082815260208101848484011115611c3557600080fd5b611c408482856139fc565b509392505050565b600081359050611c5781613b6e565b92915050565b600082601f830112611c6e57600080fd5b8135611c7e848260208601611886565b91505092915050565b600082601f830112611c9857600080fd5b8135611ca88482602086016118f2565b91505092915050565b600082601f830112611cc257600080fd5b8135611cd284826020860161195e565b91505092915050565b600082601f830112611cec57600080fd5b8135611cfc8482602086016119ca565b91505092915050565b600082601f830112611d1657600080fd5b8135611d26848260208601611a27565b91505092915050565b600082601f830112611d4057600080fd5b8135611d50848260208601611a95565b91505092915050565b600082601f830112611d6a57600080fd5b8135611d7a848260208601611af2565b91505092915050565b600082601f830112611d9457600080fd5b8135611da4848260208601611b60565b91505092915050565b600081359050611dbc81613b85565b92915050565b600081359050611dd181613b9c565b92915050565b600081359050611de681613bb3565b92915050565b600082601f830112611dfd57600080fd5b8135611e0d848260208601611bcc565b91505092915050565b600081359050611e2581613bca565b92915050565b600081359050611e3a81613be1565b92915050565b600081359050611e4f81613bf8565b92915050565b600082601f830112611e6657600080fd5b8135611e76848260208601611c0a565b91505092915050565b60006102a08284031215611e9257600080fd5b611e9d6102a06136be565b90506000611ead848285016127ed565b6000830152506020611ec1848285016127ed565b6020830152506040611ed584828501611c48565b604083015250606082013567ffffffffffffffff811115611ef557600080fd5b611f0184828501611d83565b606083015250608082013567ffffffffffffffff811115611f2157600080fd5b611f2d84828501611c5d565b60808301525060a082013567ffffffffffffffff811115611f4d57600080fd5b611f5984828501611c87565b60a08301525060c0611f6d84828501611e40565b60c08301525060e0611f8184828501611e40565b60e083015250610100611f9684828501611e40565b61010083015250610120611fac84828501611e40565b61012083015250610140611fc284828501611e40565b61014083015250610160611fd884828501611e40565b61016083015250610180611fee84828501611e40565b610180830152506101a082013567ffffffffffffffff81111561201057600080fd5b61201c84828501611c87565b6101a0830152506101c082013567ffffffffffffffff81111561203e57600080fd5b61204a84828501611c87565b6101c0830152506101e082013567ffffffffffffffff81111561206c57600080fd5b61207884828501611c87565b6101e08301525061020082013567ffffffffffffffff81111561209a57600080fd5b6120a684828501611c87565b6102008301525061022082013567ffffffffffffffff8111156120c857600080fd5b6120d484828501611c87565b6102208301525061024082013567ffffffffffffffff8111156120f657600080fd5b61210284828501611c87565b6102408301525061026082013567ffffffffffffffff81111561212457600080fd5b61213084828501611c5d565b6102608301525061028082013567ffffffffffffffff81111561215257600080fd5b61215e84828501611c87565b6102808301525092915050565b60006101e0828403121561217e57600080fd5b6121896101c06136be565b90506000612199848285016127ed565b60008301525060206121ad848285016127ed565b60208301525060406121c184828501611c48565b60408301525060606121d58482850161282c565b60608301525060806121e98482850161282c565b60808301525060a06121fd84828501611c48565b60a08301525060c061221184828501611c48565b60c08301525060e06122258482850161282c565b60e08301525061010082013567ffffffffffffffff81111561224657600080fd5b61225284828501611cb1565b6101008301525061012082013567ffffffffffffffff81111561227457600080fd5b61228084828501611cb1565b6101208301525061014061229684828501611dd7565b6101408301525061016082013567ffffffffffffffff8111156122b857600080fd5b6122c484828501611cb1565b610160830152506101806122da848285016126a4565b610180830152506101c06122f084828501611e2b565b6101a08301525092915050565b60006040828403121561230f57600080fd5b61231960406136be565b9050600061232984828501611c48565b600083015250602061233d84828501612841565b60208301525092915050565b60006040828403121561235b57600080fd5b61236560406136be565b9050600082013567ffffffffffffffff81111561238157600080fd5b61238d84828501611e55565b60008301525060206123a184828501611c48565b60208301525092915050565b60006101c082840312156123c057600080fd5b6123cb6101806136be565b905060006123db8482850161282c565b60008301525060206123ef8482850161282c565b6020830152506040612403848285016126a4565b604083015250608061241784828501611c48565b60608301525060a082013567ffffffffffffffff81111561243757600080fd5b61244384828501611e7f565b60808301525060c06124578482850161282c565b60a08301525060e061246b848285016126f0565b60c08301525061012061248084828501611dd7565b60e08301525061014061249584828501612841565b6101008301525061016082013567ffffffffffffffff8111156124b757600080fd5b6124c384828501611d2f565b6101208301525061018082013567ffffffffffffffff8111156124e557600080fd5b6124f184828501611d59565b610140830152506101a082013567ffffffffffffffff81111561251357600080fd5b61251f84828501611cdb565b6101608301525092915050565b600060e0828403121561253e57600080fd5b61254860e06136be565b9050600061255884828501611e16565b600083015250602061256c84828501611e16565b602083015250604061258084828501611c48565b60408301525060606125948482850161282c565b60608301525060806125a884828501611dd7565b60808301525060a06125bc84828501611dd7565b60a08301525060c06125d084828501611dd7565b60c08301525092915050565b600061014082840312156125ef57600080fd5b6125fa6101006136be565b9050600061260a8482850161282c565b600083015250602061261e848285016122fd565b60208301525060606126328482850161282c565b604083015250608061264684828501611c48565b60608301525060a061265a84828501612817565b60808301525060c061266e848285016126a4565b60a08301525061010061268384828501611c48565b60c08301525061012061269884828501611c48565b60e08301525092915050565b6000604082840312156126b657600080fd5b6126c060406136be565b905060006126d084828501612856565b60008301525060206126e484828501611c48565b60208301525092915050565b60006040828403121561270257600080fd5b61270c60406136be565b9050600061271c84828501611dd7565b60008301525060206127308482850161282c565b60208301525092915050565b60006040828403121561274e57600080fd5b61275860406136be565b9050600061276884828501611c48565b600083015250602082013567ffffffffffffffff81111561278857600080fd5b61279484828501611e7f565b60208301525092915050565b600061010082840312156127b357600080fd5b6127bd60406136be565b905060006127cd84828501611c48565b60008301525060206127e18482850161252c565b60208301525092915050565b6000813590506127fc81613c0f565b92915050565b60008135905061281181613c26565b92915050565b60008135905061282681613c3d565b92915050565b60008135905061283b81613c54565b92915050565b60008135905061285081613c6b565b92915050565b60008135905061286581613c82565b92915050565b60006020828403121561287d57600080fd5b600061288b84828501611c48565b91505092915050565b6000602082840312156128a657600080fd5b600082013567ffffffffffffffff8111156128c057600080fd5b6128cc84828501611c5d565b91505092915050565b6000602082840312156128e757600080fd5b600082013567ffffffffffffffff81111561290157600080fd5b61290d84828501611c87565b91505092915050565b60006020828403121561292857600080fd5b600082013567ffffffffffffffff81111561294257600080fd5b61294e84828501611cb1565b91505092915050565b60006020828403121561296957600080fd5b600082013567ffffffffffffffff81111561298357600080fd5b61298f84828501611cdb565b91505092915050565b600080604083850312156129ab57600080fd5b600083013567ffffffffffffffff8111156129c557600080fd5b6129d185828601611d05565b92505060206129e285828601611dad565b9150509250929050565b6000602082840312156129fe57600080fd5b600082013567ffffffffffffffff811115612a1857600080fd5b612a2484828501611d2f565b91505092915050565b600060208284031215612a3f57600080fd5b600082013567ffffffffffffffff811115612a5957600080fd5b612a6584828501611d59565b91505092915050565b600060208284031215612a8057600080fd5b600082013567ffffffffffffffff811115612a9a57600080fd5b612aa684828501611d83565b91505092915050565b600060208284031215612ac157600080fd5b6000612acf84828501611dad565b91505092915050565b600060208284031215612aea57600080fd5b6000612af884828501611dc2565b91505092915050565b600060208284031215612b1357600080fd5b6000612b2184828501611dd7565b91505092915050565b600060208284031215612b3c57600080fd5b600082013567ffffffffffffffff811115612b5657600080fd5b612b6284828501611dec565b91505092915050565b600060208284031215612b7d57600080fd5b6000612b8b84828501611e16565b91505092915050565b600060208284031215612ba657600080fd5b6000612bb484828501611e2b565b91505092915050565b600060208284031215612bcf57600080fd5b6000612bdd84828501611e40565b91505092915050565b600060208284031215612bf857600080fd5b600082013567ffffffffffffffff811115612c1257600080fd5b612c1e84828501611e55565b91505092915050565b600080600080600060a08688031215612c3f57600080fd5b600086013567ffffffffffffffff811115612c5957600080fd5b612c6588828901611e55565b9550506020612c7688828901611c48565b9450506040612c8788828901611e40565b9350506060612c9888828901611c48565b925050608086013567ffffffffffffffff811115612cb557600080fd5b612cc188828901611dec565b9150509295509295909350565b600060208284031215612ce057600080fd5b600082013567ffffffffffffffff811115612cfa57600080fd5b612d0684828501611e7f565b91505092915050565b600060208284031215612d2157600080fd5b600082013567ffffffffffffffff811115612d3b57600080fd5b612d478482850161216b565b91505092915050565b600060408284031215612d6257600080fd5b6000612d70848285016122fd565b91505092915050565b600060208284031215612d8b57600080fd5b600082013567ffffffffffffffff811115612da557600080fd5b612db184828501612349565b91505092915050565b600060208284031215612dcc57600080fd5b600082013567ffffffffffffffff811115612de657600080fd5b612df2848285016123ad565b91505092915050565b600060e08284031215612e0d57600080fd5b6000612e1b8482850161252c565b91505092915050565b60006101408284031215612e3757600080fd5b6000612e45848285016125dc565b91505092915050565b600060408284031215612e6057600080fd5b6000612e6e848285016126a4565b91505092915050565b600060408284031215612e8957600080fd5b6000612e97848285016126f0565b91505092915050565b600060208284031215612eb257600080fd5b600082013567ffffffffffffffff811115612ecc57600080fd5b612ed88482850161273c565b91505092915050565b60006101008284031215612ef457600080fd5b6000612f02848285016127a0565b91505092915050565b600060208284031215612f1d57600080fd5b6000612f2b848285016127ed565b91505092915050565b600060208284031215612f4657600080fd5b6000612f5484828501612817565b91505092915050565b600060208284031215612f6f57600080fd5b6000612f7d8482850161282c565b91505092915050565b600060208284031215612f9857600080fd5b6000612fa684828501612841565b91505092915050565b600060208284031215612fc157600080fd5b6000612fcf84828501612856565b91505092915050565b612fe9612fe4826138ec565b613a3e565b82525050565b613000612ffb826138fe565b613a50565b82525050565b6130176130128261390a565b613a62565b82525050565b61302e61302982613936565b613a6c565b82525050565b61304561304082613962565b613a76565b82525050565b6000613056826138af565b61306081856138c5565b9350613070818560208601613a0b565b61307981613b1c565b840191505092915050565b600061308f826138af565b61309981856138d6565b93506130a9818560208601613a0b565b80840191505092915050565b6130c66130c18261396c565b613a80565b82525050565b6130dd6130d882613979565b613a92565b82525050565b6130f46130ef82613986565b613aa4565b82525050565b6000613105826138ba565b61310f81856138e1565b935061311f818560208601613a0b565b80840191505092915050565b61313c613137826139a1565b613ac8565b82525050565b61315361314e82613993565b613ab6565b82525050565b61316a613165826139c1565b613ada565b82525050565b61318161317c826139cb565b613ae4565b82525050565b613198613193826139db565b613af6565b82525050565b6131af6131aa826139ef565b613b08565b82525050565b60006131c18284612fd8565b60148201915081905092915050565b60006131dc8284612fef565b60018201915081905092915050565b60006131f7828461301d565b60148201915081905092915050565b60006132128284613034565b60208201915081905092915050565b600061322d8285613084565b91506132398284613006565b6001820191508190509392505050565b60006132558285613084565b91506132618284613084565b91508190509392505050565b60006132798286613084565b91506132858285613084565b91506132918284613084565b9150819050949350505050565b60006132aa8288613084565b91506132b68287613084565b91506132c28286613084565b91506132ce8285613084565b91506132da8284613084565b91508190509695505050505050565b60006132f58289613084565b91506133018288613084565b915061330d8287613084565b91506133198286613084565b91506133258285613084565b91506133318284613084565b9150819050979650505050505050565b600061334d828a613084565b91506133598289613084565b91506133658288613084565b91506133718287613084565b915061337d8286613084565b91506133898285613084565b91506133958284613084565b915081905098975050505050505050565b60006133b2828b613084565b91506133be828a613084565b91506133ca8289613084565b91506133d68288613084565b91506133e28287613084565b91506133ee8286613084565b91506133fa8285613084565b91506134068284613006565b6001820191508190509998505050505050505050565b6000613428828f613084565b9150613434828e613084565b9150613440828d613084565b915061344c828c613084565b9150613458828b613084565b9150613464828a613084565b91506134708289613084565b915061347c8288613084565b91506134888287613084565b91506134948286613084565b91506134a08285613084565b91506134ac8284613084565b91508190509d9c50505050505050505050505050565b60006134ce8285613084565b91506134da82846130cc565b6004820191508190509392505050565b60006134f682846130b5565b60028201915081905092915050565b600061351182846130cc565b60048201915081905092915050565b600061352c82846130e3565b60088201915081905092915050565b600061354782846130fa565b915081905092915050565b600061355e82856130fa565b915061356a8284613084565b91508190509392505050565b6000613582828461312b565b60148201915081905092915050565b600061359d8284613142565b60028201915081905092915050565b60006135b88284613159565b60208201915081905092915050565b60006135d38284613170565b60048201915081905092915050565b60006135ee8284613187565b60088201915081905092915050565b6000613609828461319e565b60018201915081905092915050565b6000613624828561319e565b6001820191506136348284613142565b6002820191508190509392505050565b6000613650828561319e565b6001820191506136608284613170565b6004820191508190509392505050565b600061367c828561319e565b60018201915061368c8284613187565b6008820191508190509392505050565b600060208201905081810360008301526136b6818461304b565b905092915050565b6000604051905081810181811067ffffffffffffffff821117156136e5576136e4613b1a565b5b8060405250919050565b600067ffffffffffffffff82111561370a57613709613b1a565b5b602082029050602081019050919050565b600067ffffffffffffffff82111561373657613735613b1a565b5b602082029050602081019050919050565b600067ffffffffffffffff82111561376257613761613b1a565b5b602082029050602081019050919050565b600067ffffffffffffffff82111561378e5761378d613b1a565b5b602082029050602081019050919050565b600067ffffffffffffffff8211156137ba576137b9613b1a565b5b602082029050602081019050919050565b600067ffffffffffffffff8211156137e6576137e5613b1a565b5b602082029050602081019050919050565b600067ffffffffffffffff82111561381257613811613b1a565b5b602082029050602081019050919050565b600067ffffffffffffffff82111561383e5761383d613b1a565b5b602082029050602081019050919050565b600067ffffffffffffffff82111561386a57613869613b1a565b5b601f19601f8301169050602081019050919050565b600067ffffffffffffffff82111561389a57613899613b1a565b5b601f19601f8301169050602081019050919050565b600081519050919050565b600081519050919050565b600082825260208201905092915050565b600081905092915050565b600081905092915050565b60006138f7826139a1565b9050919050565b60008115159050919050565b60007fff0000000000000000000000000000000000000000000000000000000000000082169050919050565b60007fffffffffffffffffffffffffffffffffffffffff00000000000000000000000082169050919050565b6000819050919050565b60008160010b9050919050565b60008160030b9050919050565b60008160070b9050919050565b600061ffff82169050919050565b600073ffffffffffffffffffffffffffffffffffffffff82169050919050565b6000819050919050565b600063ffffffff82169050919050565b600067ffffffffffffffff82169050919050565b600060ff82169050919050565b82818337600083830152505050565b60005b83811015613a29578082015181840152602081019050613a0e565b83811115613a38576000848401525b50505050565b6000613a4982613ac8565b9050919050565b6000613a5b82613b08565b9050919050565b6000819050919050565b6000819050919050565b6000819050919050565b6000613a8b82613b47565b9050919050565b6000613a9d82613b3a565b9050919050565b6000613aaf82613b2d565b9050919050565b6000613ac182613b47565b9050919050565b6000613ad382613b61565b9050919050565b6000819050919050565b6000613aef82613b3a565b9050919050565b6000613b0182613b2d565b9050919050565b6000613b1382613b54565b9050919050565bfe5b6000601f19601f8301169050919050565b60008160c01b9050919050565b60008160e01b9050919050565b60008160f01b9050919050565b60008160f81b9050919050565b60008160601b9050919050565b613b77816138ec565b8114613b8257600080fd5b50565b613b8e816138fe565b8114613b9957600080fd5b50565b613ba581613936565b8114613bb057600080fd5b50565b613bbc81613962565b8114613bc757600080fd5b50565b613bd38161396c565b8114613bde57600080fd5b50565b613bea81613979565b8114613bf557600080fd5b50565b613c0181613986565b8114613c0c57600080fd5b50565b613c1881613993565b8114613c2357600080fd5b50565b613c2f816139a1565b8114613c3a57600080fd5b50565b613c46816139c1565b8114613c5157600080fd5b50565b613c5d816139cb565b8114613c6857600080fd5b50565b613c74816139db565b8114613c7f57600080fd5b50565b613c8b816139ef565b8114613c9657600080fd5b5056fea2646970667358221220e2b593587a84aeb7fb225723194579ea4aaef976600685a67dbf1b2dec726c8564736f6c63430007060033",
			"opcodes": "PUSH1 0x80 PUSH1 0x40 MSTORE CALLVALUE DUP1 ISZERO PUSH2 0x10 JUMPI PUSH1 0x0 DUP1 REVERT JUMPDEST POP PUSH2 0x3CCF DUP1 PUSH2 0x20 PUSH1 0x0 CODECOPY PUSH1 0x0 RETURN INVALID PUSH1 0x80 PUSH1 0x40 MSTORE CALLVALUE DUP1 ISZERO PUSH2 0x10 JUMPI PUSH1 0x0 DUP1 REVERT JUMPDEST POP PUSH1 0x4 CALLDATASIZE LT PUSH2 0x21B JUMPI PUSH1 0x0 CALLDATALOAD PUSH1 0xE0 SHR DUP1 PUSH4 0x8BBFC13E GT PUSH2 0x125 JUMPI DUP1 PUSH4 0xCECB3043 GT PUSH2 0xAD JUMPI DUP1 PUSH4 0xE0671111 GT PUSH2 0x7C JUMPI DUP1 PUSH4 0xE0671111 EQ PUSH2 0x7F0 JUMPI DUP1 PUSH4 0xE4CBA547 EQ PUSH2 0x820 JUMPI DUP1 PUSH4 0xF20FB830 EQ PUSH2 0x850 JUMPI DUP1 PUSH4 0xF8217295 EQ PUSH2 0x880 JUMPI DUP1 PUSH4 0xFEF5906A EQ PUSH2 0x8B0 JUMPI PUSH2 0x21B JUMP JUMPDEST DUP1 PUSH4 0xCECB3043 EQ PUSH2 0x730 JUMPI DUP1 PUSH4 0xCFA84DE9 EQ PUSH2 0x760 JUMPI DUP1 PUSH4 0xDAD935A1 EQ PUSH2 0x790 JUMPI DUP1 PUSH4 0xDF61A937 EQ PUSH2 0x7C0 JUMPI PUSH2 0x21B JUMP JUMPDEST DUP1 PUSH4 0xB04D197A GT PUSH2 0xF4 JUMPI DUP1 PUSH4 0xB04D197A EQ PUSH2 0x640 JUMPI DUP1 PUSH4 0xB1D53D1D EQ PUSH2 0x670 JUMPI DUP1 PUSH4 0xB3A895F6 EQ PUSH2 0x6A0 JUMPI DUP1 PUSH4 0xB9F7F35A EQ PUSH2 0x6D0 JUMPI DUP1 PUSH4 0xC93E58C8 EQ PUSH2 0x700 JUMPI PUSH2 0x21B JUMP JUMPDEST DUP1 PUSH4 0x8BBFC13E EQ PUSH2 0x580 JUMPI DUP1 PUSH4 0x941BB060 EQ PUSH2 0x5B0 JUMPI DUP1 PUSH4 0x9D487B47 EQ PUSH2 0x5E0 JUMPI DUP1 PUSH4 0xAF832F09 EQ PUSH2 0x610 JUMPI PUSH2 0x21B JUMP JUMPDEST DUP1 PUSH4 0x241D23B2 GT PUSH2 0x1A8 JUMPI DUP1 PUSH4 0x46256007 GT PUSH2 0x177 JUMPI DUP1 PUSH4 0x46256007 EQ PUSH2 0x490 JUMPI DUP1 PUSH4 0x463276C3 EQ PUSH2 0x4C0 JUMPI DUP1 PUSH4 0x6127B4FF EQ PUSH2 0x4F0 JUMPI DUP1 PUSH4 0x68B4AE81 EQ PUSH2 0x520 JUMPI DUP1 PUSH4 0x7B92BD28 EQ PUSH2 0x550 JUMPI PUSH2 0x21B JUMP JUMPDEST DUP1 PUSH4 0x241D23B2 EQ PUSH2 0x3D0 JUMPI DUP1 PUSH4 0x33C45AB9 EQ PUSH2 0x400 JUMPI DUP1 PUSH4 0x343BEE60 EQ PUSH2 0x430 JUMPI DUP1 PUSH4 0x44C789D1 EQ PUSH2 0x460 JUMPI PUSH2 0x21B JUMP JUMPDEST DUP1 PUSH4 0x122E5AE7 GT PUSH2 0x1EF JUMPI DUP1 PUSH4 0x122E5AE7 EQ PUSH2 0x2E0 JUMPI DUP1 PUSH4 0x18C9BBFD EQ PUSH2 0x310 JUMPI DUP1 PUSH4 0x19A7C17B EQ PUSH2 0x340 JUMPI DUP1 PUSH4 0x1C356532 EQ PUSH2 0x370 JUMPI DUP1 PUSH4 0x200F6C2A EQ PUSH2 0x3A0 JUMPI PUSH2 0x21B JUMP JUMPDEST DUP1 PUSH3 0x9C8152 EQ PUSH2 0x220 JUMPI DUP1 PUSH4 0x49E3490 EQ PUSH2 0x250 JUMPI DUP1 PUSH4 0xA803A86 EQ PUSH2 0x280 JUMPI DUP1 PUSH4 0x1222D81A EQ PUSH2 0x2B0 JUMPI JUMPDEST PUSH1 0x0 DUP1 REVERT JUMPDEST PUSH2 0x23A PUSH1 0x4 DUP1 CALLDATASIZE SUB DUP2 ADD SWAP1 PUSH2 0x235 SWAP2 SWAP1 PUSH2 0x2AAF JUMP JUMPDEST PUSH2 0x8E0 JUMP JUMPDEST PUSH1 0x40 MLOAD PUSH2 0x247 SWAP2 SWAP1 PUSH2 0x369C JUMP JUMPDEST PUSH1 0x40 MLOAD DUP1 SWAP2 SUB SWAP1 RETURN JUMPDEST PUSH2 0x26A PUSH1 0x4 DUP1 CALLDATASIZE SUB DUP2 ADD SWAP1 PUSH2 0x265 SWAP2 SWAP1 PUSH2 0x2957 JUMP JUMPDEST PUSH2 0x909 JUMP JUMPDEST PUSH1 0x40 MLOAD PUSH2 0x277 SWAP2 SWAP1 PUSH2 0x369C JUMP JUMPDEST PUSH1 0x40 MLOAD DUP1 SWAP2 SUB SWAP1 RETURN JUMPDEST PUSH2 0x29A PUSH1 0x4 DUP1 CALLDATASIZE SUB DUP2 ADD SWAP1 PUSH2 0x295 SWAP2 SWAP1 PUSH2 0x2CCE JUMP JUMPDEST PUSH2 0x97A JUMP JUMPDEST PUSH1 0x40 MLOAD PUSH2 0x2A7 SWAP2 SWAP1 PUSH2 0x369C JUMP JUMPDEST PUSH1 0x40 MLOAD DUP1 SWAP2 SUB SWAP1 RETURN JUMPDEST PUSH2 0x2CA PUSH1 0x4 DUP1 CALLDATASIZE SUB DUP2 ADD SWAP1 PUSH2 0x2C5 SWAP2 SWAP1 PUSH2 0x2B2A JUMP JUMPDEST PUSH2 0xAF3 JUMP JUMPDEST PUSH1 0x40 MLOAD PUSH2 0x2D7 SWAP2 SWAP1 PUSH2 0x369C JUMP JUMPDEST PUSH1 0x40 MLOAD DUP1 SWAP2 SUB SWAP1 RETURN JUMPDEST PUSH2 0x2FA PUSH1 0x4 DUP1 CALLDATASIZE SUB DUP2 ADD SWAP1 PUSH2 0x2F5 SWAP2 SWAP1 PUSH2 0x2F86 JUMP JUMPDEST PUSH2 0xBC4 JUMP JUMPDEST PUSH1 0x40 MLOAD PUSH2 0x307 SWAP2 SWAP1 PUSH2 0x369C JUMP JUMPDEST PUSH1 0x40 MLOAD DUP1 SWAP2 SUB SWAP1 RETURN JUMPDEST PUSH2 0x32A PUSH1 0x4 DUP1 CALLDATASIZE SUB DUP2 ADD SWAP1 PUSH2 0x325 SWAP2 SWAP1 PUSH2 0x2DFB JUMP JUMPDEST PUSH2 0xBFB JUMP JUMPDEST PUSH1 0x40 MLOAD PUSH2 0x337 SWAP2 SWAP1 PUSH2 0x369C JUMP JUMPDEST PUSH1 0x40 MLOAD DUP1 SWAP2 SUB SWAP1 RETURN JUMPDEST PUSH2 0x35A PUSH1 0x4 DUP1 CALLDATASIZE SUB DUP2 ADD SWAP1 PUSH2 0x355 SWAP2 SWAP1 PUSH2 0x2A6E JUMP JUMPDEST PUSH2 0xC84 JUMP JUMPDEST PUSH1 0x40 MLOAD PUSH2 0x367 SWAP2 SWAP1 PUSH2 0x369C JUMP JUMPDEST PUSH1 0x40 MLOAD DUP1 SWAP2 SUB SWAP1 RETURN JUMPDEST PUSH2 0x38A PUSH1 0x4 DUP1 CALLDATASIZE SUB DUP2 ADD SWAP1 PUSH2 0x385 SWAP2 SWAP1 PUSH2 0x2E77 JUMP JUMPDEST PUSH2 0xD14 JUMP JUMPDEST PUSH1 0x40 MLOAD PUSH2 0x397 SWAP2 SWAP1 PUSH2 0x369C JUMP JUMPDEST PUSH1 0x40 MLOAD DUP1 SWAP2 SUB SWAP1 RETURN JUMPDEST PUSH2 0x3BA PUSH1 0x4 DUP1 CALLDATASIZE SUB DUP2 ADD SWAP1 PUSH2 0x3B5 SWAP2 SWAP1 PUSH2 0x29EC JUMP JUMPDEST PUSH2 0xD57 JUMP JUMPDEST PUSH1 0x40 MLOAD PUSH2 0x3C7 SWAP2 SWAP1 PUSH2 0x369C JUMP JUMPDEST PUSH1 0x40 MLOAD DUP1 SWAP2 SUB SWAP1 RETURN JUMPDEST PUSH2 0x3EA PUSH1 0x4 DUP1 CALLDATASIZE SUB DUP2 ADD SWAP1 PUSH2 0x3E5 SWAP2 SWAP1 PUSH2 0x286B JUMP JUMPDEST PUSH2 0xDC8 JUMP JUMPDEST PUSH1 0x40 MLOAD PUSH2 0x3F7 SWAP2 SWAP1 PUSH2 0x369C JUMP JUMPDEST PUSH1 0x40 MLOAD DUP1 SWAP2 SUB SWAP1 RETURN JUMPDEST PUSH2 0x41A PUSH1 0x4 DUP1 CALLDATASIZE SUB DUP2 ADD SWAP1 PUSH2 0x415 SWAP2 SWAP1 PUSH2 0x2EE1 JUMP JUMPDEST PUSH2 0xDF7 JUMP JUMPDEST PUSH1 0x40 MLOAD PUSH2 0x427 SWAP2 SWAP1 PUSH2 0x369C JUMP JUMPDEST PUSH1 0x40 MLOAD DUP1 SWAP2 SUB SWAP1 RETURN JUMPDEST PUSH2 0x44A PUSH1 0x4 DUP1 CALLDATASIZE SUB DUP2 ADD SWAP1 PUSH2 0x445 SWAP2 SWAP1 PUSH2 0x2D0F JUMP JUMPDEST PUSH2 0xE3A JUMP JUMPDEST PUSH1 0x40 MLOAD PUSH2 0x457 SWAP2 SWAP1 PUSH2 0x369C JUMP JUMPDEST PUSH1 0x40 MLOAD DUP1 SWAP2 SUB SWAP1 RETURN JUMPDEST PUSH2 0x47A PUSH1 0x4 DUP1 CALLDATASIZE SUB DUP2 ADD SWAP1 PUSH2 0x475 SWAP2 SWAP1 PUSH2 0x2D79 JUMP JUMPDEST PUSH2 0xF87 JUMP JUMPDEST PUSH1 0x40 MLOAD PUSH2 0x487 SWAP2 SWAP1 PUSH2 0x369C JUMP JUMPDEST PUSH1 0x40 MLOAD DUP1 SWAP2 SUB SWAP1 RETURN JUMPDEST PUSH2 0x4AA PUSH1 0x4 DUP1 CALLDATASIZE SUB DUP2 ADD SWAP1 PUSH2 0x4A5 SWAP2 SWAP1 PUSH2 0x2B6B JUMP JUMPDEST PUSH2 0xFC2 JUMP JUMPDEST PUSH1 0x40 MLOAD PUSH2 0x4B7 SWAP2 SWAP1 PUSH2 0x369C JUMP JUMPDEST PUSH1 0x40 MLOAD DUP1 SWAP2 SUB SWAP1 RETURN JUMPDEST PUSH2 0x4DA PUSH1 0x4 DUP1 CALLDATASIZE SUB DUP2 ADD SWAP1 PUSH2 0x4D5 SWAP2 SWAP1 PUSH2 0x2AD8 JUMP JUMPDEST PUSH2 0xFF9 JUMP JUMPDEST PUSH1 0x40 MLOAD PUSH2 0x4E7 SWAP2 SWAP1 PUSH2 0x369C JUMP JUMPDEST PUSH1 0x40 MLOAD DUP1 SWAP2 SUB SWAP1 RETURN JUMPDEST PUSH2 0x50A PUSH1 0x4 DUP1 CALLDATASIZE SUB DUP2 ADD SWAP1 PUSH2 0x505 SWAP2 SWAP1 PUSH2 0x2FAF JUMP JUMPDEST PUSH2 0x1022 JUMP JUMPDEST PUSH1 0x40 MLOAD PUSH2 0x517 SWAP2 SWAP1 PUSH2 0x369C JUMP JUMPDEST PUSH1 0x40 MLOAD DUP1 SWAP2 SUB SWAP1 RETURN JUMPDEST PUSH2 0x53A PUSH1 0x4 DUP1 CALLDATASIZE SUB DUP2 ADD SWAP1 PUSH2 0x535 SWAP2 SWAP1 PUSH2 0x2BE6 JUMP JUMPDEST PUSH2 0x1059 JUMP JUMPDEST PUSH1 0x40 MLOAD PUSH2 0x547 SWAP2 SWAP1 PUSH2 0x369C JUMP JUMPDEST PUSH1 0x40 MLOAD DUP1 SWAP2 SUB SWAP1 RETURN JUMPDEST PUSH2 0x56A PUSH1 0x4 DUP1 CALLDATASIZE SUB DUP2 ADD SWAP1 PUSH2 0x565 SWAP2 SWAP1 PUSH2 0x2A2D JUMP JUMPDEST PUSH2 0x1082 JUMP JUMPDEST PUSH1 0x40 MLOAD PUSH2 0x577 SWAP2 SWAP1 PUSH2 0x369C JUMP JUMPDEST PUSH1 0x40 MLOAD DUP1 SWAP2 SUB SWAP1 RETURN JUMPDEST PUSH2 0x59A PUSH1 0x4 DUP1 CALLDATASIZE SUB DUP2 ADD SWAP1 PUSH2 0x595 SWAP2 SWAP1 PUSH2 0x2E24 JUMP JUMPDEST PUSH2 0x10F3 JUMP JUMPDEST PUSH1 0x40 MLOAD PUSH2 0x5A7 SWAP2 SWAP1 PUSH2 0x369C JUMP JUMPDEST PUSH1 0x40 MLOAD DUP1 SWAP2 SUB SWAP1 RETURN JUMPDEST PUSH2 0x5CA PUSH1 0x4 DUP1 CALLDATASIZE SUB DUP2 ADD SWAP1 PUSH2 0x5C5 SWAP2 SWAP1 PUSH2 0x2916 JUMP JUMPDEST PUSH2 0x1214 JUMP JUMPDEST PUSH1 0x40 MLOAD PUSH2 0x5D7 SWAP2 SWAP1 PUSH2 0x369C JUMP JUMPDEST PUSH1 0x40 MLOAD DUP1 SWAP2 SUB SWAP1 RETURN JUMPDEST PUSH2 0x5FA PUSH1 0x4 DUP1 CALLDATASIZE SUB DUP2 ADD SWAP1 PUSH2 0x5F5 SWAP2 SWAP1 PUSH2 0x2894 JUMP JUMPDEST PUSH2 0x1285 JUMP JUMPDEST PUSH1 0x40 MLOAD PUSH2 0x607 SWAP2 SWAP1 PUSH2 0x369C JUMP JUMPDEST PUSH1 0x40 MLOAD DUP1 SWAP2 SUB SWAP1 RETURN JUMPDEST PUSH2 0x62A PUSH1 0x4 DUP1 CALLDATASIZE SUB DUP2 ADD SWAP1 PUSH2 0x625 SWAP2 SWAP1 PUSH2 0x2BBD JUMP JUMPDEST PUSH2 0x12EE JUMP JUMPDEST PUSH1 0x40 MLOAD PUSH2 0x637 SWAP2 SWAP1 PUSH2 0x369C JUMP JUMPDEST PUSH1 0x40 MLOAD DUP1 SWAP2 SUB SWAP1 RETURN JUMPDEST PUSH2 0x65A PUSH1 0x4 DUP1 CALLDATASIZE SUB DUP2 ADD SWAP1 PUSH2 0x655 SWAP2 SWAP1 PUSH2 0x2998 JUMP JUMPDEST PUSH2 0x1325 JUMP JUMPDEST PUSH1 0x40 MLOAD PUSH2 0x667 SWAP2 SWAP1 PUSH2 0x369C JUMP JUMPDEST PUSH1 0x40 MLOAD DUP1 SWAP2 SUB SWAP1 RETURN JUMPDEST PUSH2 0x68A PUSH1 0x4 DUP1 CALLDATASIZE SUB DUP2 ADD SWAP1 PUSH2 0x685 SWAP2 SWAP1 PUSH2 0x2DBA JUMP JUMPDEST PUSH2 0x139E JUMP JUMPDEST PUSH1 0x40 MLOAD PUSH2 0x697 SWAP2 SWAP1 PUSH2 0x369C JUMP JUMPDEST PUSH1 0x40 MLOAD DUP1 SWAP2 SUB SWAP1 RETURN JUMPDEST PUSH2 0x6BA PUSH1 0x4 DUP1 CALLDATASIZE SUB DUP2 ADD SWAP1 PUSH2 0x6B5 SWAP2 SWAP1 PUSH2 0x2F34 JUMP JUMPDEST PUSH2 0x1471 JUMP JUMPDEST PUSH1 0x40 MLOAD PUSH2 0x6C7 SWAP2 SWAP1 PUSH2 0x369C JUMP JUMPDEST PUSH1 0x40 MLOAD DUP1 SWAP2 SUB SWAP1 RETURN JUMPDEST PUSH2 0x6EA PUSH1 0x4 DUP1 CALLDATASIZE SUB DUP2 ADD SWAP1 PUSH2 0x6E5 SWAP2 SWAP1 PUSH2 0x2B01 JUMP JUMPDEST PUSH2 0x14F9 JUMP JUMPDEST PUSH1 0x40 MLOAD PUSH2 0x6F7 SWAP2 SWAP1 PUSH2 0x369C JUMP JUMPDEST PUSH1 0x40 MLOAD DUP1 SWAP2 SUB SWAP1 RETURN JUMPDEST PUSH2 0x71A PUSH1 0x4 DUP1 CALLDATASIZE SUB DUP2 ADD SWAP1 PUSH2 0x715 SWAP2 SWAP1 PUSH2 0x2C27 JUMP JUMPDEST PUSH2 0x1522 JUMP JUMPDEST PUSH1 0x40 MLOAD PUSH2 0x727 SWAP2 SWAP1 PUSH2 0x369C JUMP JUMPDEST PUSH1 0x40 MLOAD DUP1 SWAP2 SUB SWAP1 RETURN JUMPDEST PUSH2 0x74A PUSH1 0x4 DUP1 CALLDATASIZE SUB DUP2 ADD SWAP1 PUSH2 0x745 SWAP2 SWAP1 PUSH2 0x2F5D JUMP JUMPDEST PUSH2 0x1577 JUMP JUMPDEST PUSH1 0x40 MLOAD PUSH2 0x757 SWAP2 SWAP1 PUSH2 0x369C JUMP JUMPDEST PUSH1 0x40 MLOAD DUP1 SWAP2 SUB SWAP1 RETURN JUMPDEST PUSH2 0x77A PUSH1 0x4 DUP1 CALLDATASIZE SUB DUP2 ADD SWAP1 PUSH2 0x775 SWAP2 SWAP1 PUSH2 0x2D50 JUMP JUMPDEST PUSH2 0x15AE JUMP JUMPDEST PUSH1 0x40 MLOAD PUSH2 0x787 SWAP2 SWAP1 PUSH2 0x369C JUMP JUMPDEST PUSH1 0x40 MLOAD DUP1 SWAP2 SUB SWAP1 RETURN JUMPDEST PUSH2 0x7AA PUSH1 0x4 DUP1 CALLDATASIZE SUB DUP2 ADD SWAP1 PUSH2 0x7A5 SWAP2 SWAP1 PUSH2 0x2F34 JUMP JUMPDEST PUSH2 0x15F1 JUMP JUMPDEST PUSH1 0x40 MLOAD PUSH2 0x7B7 SWAP2 SWAP1 PUSH2 0x369C JUMP JUMPDEST PUSH1 0x40 MLOAD DUP1 SWAP2 SUB SWAP1 RETURN JUMPDEST PUSH2 0x7DA PUSH1 0x4 DUP1 CALLDATASIZE SUB DUP2 ADD SWAP1 PUSH2 0x7D5 SWAP2 SWAP1 PUSH2 0x2E4E JUMP JUMPDEST PUSH2 0x16C0 JUMP JUMPDEST PUSH1 0x40 MLOAD PUSH2 0x7E7 SWAP2 SWAP1 PUSH2 0x369C JUMP JUMPDEST PUSH1 0x40 MLOAD DUP1 SWAP2 SUB SWAP1 RETURN JUMPDEST PUSH2 0x80A PUSH1 0x4 DUP1 CALLDATASIZE SUB DUP2 ADD SWAP1 PUSH2 0x805 SWAP2 SWAP1 PUSH2 0x2EA0 JUMP JUMPDEST PUSH2 0x170E JUMP JUMPDEST PUSH1 0x40 MLOAD PUSH2 0x817 SWAP2 SWAP1 PUSH2 0x369C JUMP JUMPDEST PUSH1 0x40 MLOAD DUP1 SWAP2 SUB SWAP1 RETURN JUMPDEST PUSH2 0x83A PUSH1 0x4 DUP1 CALLDATASIZE SUB DUP2 ADD SWAP1 PUSH2 0x835 SWAP2 SWAP1 PUSH2 0x2F0B JUMP JUMPDEST PUSH2 0x1751 JUMP JUMPDEST PUSH1 0x40 MLOAD PUSH2 0x847 SWAP2 SWAP1 PUSH2 0x369C JUMP JUMPDEST PUSH1 0x40 MLOAD DUP1 SWAP2 SUB SWAP1 RETURN JUMPDEST PUSH2 0x86A PUSH1 0x4 DUP1 CALLDATASIZE SUB DUP2 ADD SWAP1 PUSH2 0x865 SWAP2 SWAP1 PUSH2 0x2F34 JUMP JUMPDEST PUSH2 0x1788 JUMP JUMPDEST PUSH1 0x40 MLOAD PUSH2 0x877 SWAP2 SWAP1 PUSH2 0x369C JUMP JUMPDEST PUSH1 0x40 MLOAD DUP1 SWAP2 SUB SWAP1 RETURN JUMPDEST PUSH2 0x89A PUSH1 0x4 DUP1 CALLDATASIZE SUB DUP2 ADD SWAP1 PUSH2 0x895 SWAP2 SWAP1 PUSH2 0x28D5 JUMP JUMPDEST PUSH2 0x17BF JUMP JUMPDEST PUSH1 0x40 MLOAD PUSH2 0x8A7 SWAP2 SWAP1 PUSH2 0x369C JUMP JUMPDEST PUSH1 0x40 MLOAD DUP1 SWAP2 SUB SWAP1 RETURN JUMPDEST PUSH2 0x8CA PUSH1 0x4 DUP1 CALLDATASIZE SUB DUP2 ADD SWAP1 PUSH2 0x8C5 SWAP2 SWAP1 PUSH2 0x2B94 JUMP JUMPDEST PUSH2 0x184F JUMP JUMPDEST PUSH1 0x40 MLOAD PUSH2 0x8D7 SWAP2 SWAP1 PUSH2 0x369C JUMP JUMPDEST PUSH1 0x40 MLOAD DUP1 SWAP2 SUB SWAP1 RETURN JUMPDEST PUSH1 0x60 DUP2 PUSH1 0x40 MLOAD PUSH1 0x20 ADD PUSH2 0x8F3 SWAP2 SWAP1 PUSH2 0x31D0 JUMP JUMPDEST PUSH1 0x40 MLOAD PUSH1 0x20 DUP2 DUP4 SUB SUB DUP2 MSTORE SWAP1 PUSH1 0x40 MSTORE SWAP1 POP SWAP2 SWAP1 POP JUMP JUMPDEST PUSH1 0x60 DUP1 PUSH2 0x916 DUP4 MLOAD PUSH2 0x1788 JUMP JUMPDEST SWAP1 POP PUSH1 0x0 JUMPDEST DUP4 MLOAD DUP2 LT ISZERO PUSH2 0x970 JUMPI DUP2 PUSH2 0x941 DUP6 DUP4 DUP2 MLOAD DUP2 LT PUSH2 0x934 JUMPI INVALID JUMPDEST PUSH1 0x20 MUL PUSH1 0x20 ADD ADD MLOAD PUSH2 0xF87 JUMP JUMPDEST PUSH1 0x40 MLOAD PUSH1 0x20 ADD PUSH2 0x952 SWAP3 SWAP2 SWAP1 PUSH2 0x3249 JUMP JUMPDEST PUSH1 0x40 MLOAD PUSH1 0x20 DUP2 DUP4 SUB SUB DUP2 MSTORE SWAP1 PUSH1 0x40 MSTORE SWAP2 POP DUP1 DUP1 PUSH1 0x1 ADD SWAP2 POP POP PUSH2 0x91B JUMP JUMPDEST POP DUP1 SWAP2 POP POP SWAP2 SWAP1 POP JUMP JUMPDEST PUSH1 0x60 PUSH1 0x0 PUSH2 0x98B DUP4 PUSH1 0x0 ADD MLOAD PUSH2 0x1751 JUMP JUMPDEST PUSH2 0x998 DUP5 PUSH1 0x20 ADD MLOAD PUSH2 0x1751 JUMP JUMPDEST PUSH2 0x9A5 DUP6 PUSH1 0x40 ADD MLOAD PUSH2 0xDC8 JUMP JUMPDEST PUSH2 0x9B2 DUP7 PUSH1 0x60 ADD MLOAD PUSH2 0xC84 JUMP JUMPDEST PUSH2 0x9BF DUP8 PUSH1 0x80 ADD MLOAD PUSH2 0x1285 JUMP JUMPDEST PUSH2 0x9CC DUP9 PUSH1 0xA0 ADD MLOAD PUSH2 0x17BF JUMP JUMPDEST PUSH1 0x40 MLOAD PUSH1 0x20 ADD PUSH2 0x9E1 SWAP7 SWAP6 SWAP5 SWAP4 SWAP3 SWAP2 SWAP1 PUSH2 0x32E9 JUMP JUMPDEST PUSH1 0x40 MLOAD PUSH1 0x20 DUP2 DUP4 SUB SUB DUP2 MSTORE SWAP1 PUSH1 0x40 MSTORE SWAP1 POP PUSH1 0x0 PUSH2 0xA02 DUP5 PUSH2 0x120 ADD MLOAD PUSH2 0x12EE JUMP JUMPDEST PUSH2 0xA10 DUP6 PUSH2 0x140 ADD MLOAD PUSH2 0x12EE JUMP JUMPDEST PUSH2 0xA1E DUP7 PUSH2 0x160 ADD MLOAD PUSH2 0x12EE JUMP JUMPDEST PUSH2 0xA2C DUP8 PUSH2 0x180 ADD MLOAD PUSH2 0x12EE JUMP JUMPDEST PUSH2 0xA3A DUP9 PUSH2 0x1A0 ADD MLOAD PUSH2 0x17BF JUMP JUMPDEST PUSH2 0xA48 DUP10 PUSH2 0x1C0 ADD MLOAD PUSH2 0x17BF JUMP JUMPDEST PUSH2 0xA56 DUP11 PUSH2 0x1E0 ADD MLOAD PUSH2 0x17BF JUMP JUMPDEST PUSH2 0xA64 DUP12 PUSH2 0x200 ADD MLOAD PUSH2 0x17BF JUMP JUMPDEST PUSH2 0xA72 DUP13 PUSH2 0x220 ADD MLOAD PUSH2 0x17BF JUMP JUMPDEST PUSH2 0xA80 DUP14 PUSH2 0x240 ADD MLOAD PUSH2 0x17BF JUMP JUMPDEST PUSH2 0xA8E DUP15 PUSH2 0x280 ADD MLOAD PUSH2 0x17BF JUMP JUMPDEST PUSH2 0xA9C DUP16 PUSH2 0x260 ADD MLOAD PUSH2 0x1285 JUMP JUMPDEST PUSH1 0x40 MLOAD PUSH1 0x20 ADD PUSH2 0xAB7 SWAP13 SWAP12 SWAP11 SWAP10 SWAP9 SWAP8 SWAP7 SWAP6 SWAP5 SWAP4 SWAP3 SWAP2 SWAP1 PUSH2 0x341C JUMP JUMPDEST PUSH1 0x40 MLOAD PUSH1 0x20 DUP2 DUP4 SUB SUB DUP2 MSTORE SWAP1 PUSH1 0x40 MSTORE SWAP1 POP DUP2 DUP2 PUSH1 0x40 MLOAD PUSH1 0x20 ADD PUSH2 0xADB SWAP3 SWAP2 SWAP1 PUSH2 0x3249 JUMP JUMPDEST PUSH1 0x40 MLOAD PUSH1 0x20 DUP2 DUP4 SUB SUB DUP2 MSTORE SWAP1 PUSH1 0x40 MSTORE SWAP3 POP POP POP SWAP2 SWAP1 POP JUMP JUMPDEST PUSH1 0x60 PUSH1 0x0 DUP3 MLOAD SWAP1 POP PUSH1 0x0 DUP2 PUSH8 0xFFFFFFFFFFFFFFFF DUP2 GT DUP1 ISZERO PUSH2 0xB14 JUMPI PUSH1 0x0 DUP1 REVERT JUMPDEST POP PUSH1 0x40 MLOAD SWAP1 DUP1 DUP3 MSTORE DUP1 PUSH1 0x1F ADD PUSH1 0x1F NOT AND PUSH1 0x20 ADD DUP3 ADD PUSH1 0x40 MSTORE DUP1 ISZERO PUSH2 0xB47 JUMPI DUP2 PUSH1 0x20 ADD PUSH1 0x1 DUP3 MUL DUP1 CALLDATASIZE DUP4 CALLDATACOPY DUP1 DUP3 ADD SWAP2 POP POP SWAP1 POP JUMPDEST POP SWAP1 POP PUSH1 0x0 JUMPDEST DUP3 DUP2 LT ISZERO PUSH2 0xBB9 JUMPI DUP5 PUSH1 0x1 DUP3 DUP6 SUB SUB DUP2 MLOAD DUP2 LT PUSH2 0xB66 JUMPI INVALID JUMPDEST PUSH1 0x20 ADD ADD MLOAD PUSH1 0xF8 SHR PUSH1 0xF8 SHL DUP3 DUP3 DUP2 MLOAD DUP2 LT PUSH2 0xB7D JUMPI INVALID JUMPDEST PUSH1 0x20 ADD ADD SWAP1 PUSH31 0xFFFFFFFFFFFFFFFFFFFFFFFFFFFFFFFFFFFFFFFFFFFFFFFFFFFFFFFFFFFFFF NOT AND SWAP1 DUP2 PUSH1 0x0 BYTE SWAP1 MSTORE8 POP DUP1 DUP1 PUSH1 0x1 ADD SWAP2 POP POP PUSH2 0xB4D JUMP JUMPDEST DUP2 SWAP4 POP POP POP POP SWAP2 SWAP1 POP JUMP JUMPDEST PUSH1 0x60 PUSH1 0x0 DUP3 PUSH1 0x40 MLOAD PUSH1 0x20 ADD PUSH2 0xBD9 SWAP2 SWAP1 PUSH2 0x35E2 JUMP JUMPDEST PUSH1 0x40 MLOAD PUSH1 0x20 DUP2 DUP4 SUB SUB DUP2 MSTORE SWAP1 PUSH1 0x40 MSTORE SWAP1 POP PUSH2 0xBF3 DUP2 PUSH2 0xAF3 JUMP JUMPDEST SWAP2 POP POP SWAP2 SWAP1 POP JUMP JUMPDEST PUSH1 0x60 PUSH2 0xC0A DUP3 PUSH1 0x0 ADD MLOAD PUSH2 0xFC2 JUMP JUMPDEST PUSH2 0xC17 DUP4 PUSH1 0x20 ADD MLOAD PUSH2 0xFC2 JUMP JUMPDEST PUSH2 0xC24 DUP5 PUSH1 0x40 ADD MLOAD PUSH2 0xDC8 JUMP JUMPDEST PUSH2 0xC31 DUP6 PUSH1 0x60 ADD MLOAD PUSH2 0x1577 JUMP JUMPDEST PUSH2 0xC3E DUP7 PUSH1 0x80 ADD MLOAD PUSH2 0x14F9 JUMP JUMPDEST PUSH2 0xC4B DUP8 PUSH1 0xA0 ADD MLOAD PUSH2 0x14F9 JUMP JUMPDEST PUSH2 0xC58 DUP9 PUSH1 0xC0 ADD MLOAD PUSH2 0x14F9 JUMP JUMPDEST PUSH1 0x40 MLOAD PUSH1 0x20 ADD PUSH2 0xC6E SWAP8 SWAP7 SWAP6 SWAP5 SWAP4 SWAP3 SWAP2 SWAP1 PUSH2 0x3341 JUMP JUMPDEST PUSH1 0x40 MLOAD PUSH1 0x20 DUP2 DUP4 SUB SUB DUP2 MSTORE SWAP1 PUSH1 0x40 MSTORE SWAP1 POP SWAP2 SWAP1 POP JUMP JUMPDEST PUSH1 0x60 DUP1 PUSH2 0xC91 DUP4 MLOAD PUSH2 0x1788 JUMP JUMPDEST SWAP1 POP PUSH1 0x0 JUMPDEST DUP4 MLOAD DUP2 LT ISZERO PUSH2 0xD0A JUMPI DUP2 PUSH2 0xCDB DUP6 DUP4 DUP2 MLOAD DUP2 LT PUSH2 0xCAF JUMPI INVALID JUMPDEST PUSH1 0x20 MUL PUSH1 0x20 ADD ADD MLOAD PUSH1 0x40 MLOAD PUSH1 0x20 ADD PUSH2 0xCC7 SWAP2 SWAP1 PUSH2 0x3576 JUMP JUMPDEST PUSH1 0x40 MLOAD PUSH1 0x20 DUP2 DUP4 SUB SUB DUP2 MSTORE SWAP1 PUSH1 0x40 MSTORE PUSH2 0xAF3 JUMP JUMPDEST PUSH1 0x40 MLOAD PUSH1 0x20 ADD PUSH2 0xCEC SWAP3 SWAP2 SWAP1 PUSH2 0x3249 JUMP JUMPDEST PUSH1 0x40 MLOAD PUSH1 0x20 DUP2 DUP4 SUB SUB DUP2 MSTORE SWAP1 PUSH1 0x40 MSTORE SWAP2 POP DUP1 DUP1 PUSH1 0x1 ADD SWAP2 POP POP PUSH2 0xC96 JUMP JUMPDEST POP DUP1 SWAP2 POP POP SWAP2 SWAP1 POP JUMP JUMPDEST PUSH1 0x60 PUSH2 0xD23 DUP3 PUSH1 0x0 ADD MLOAD PUSH2 0x14F9 JUMP JUMPDEST PUSH2 0xD30 DUP4 PUSH1 0x20 ADD MLOAD PUSH2 0x1577 JUMP JUMPDEST PUSH1 0x40 MLOAD PUSH1 0x20 ADD PUSH2 0xD41 SWAP3 SWAP2 SWAP1 PUSH2 0x3249 JUMP JUMPDEST PUSH1 0x40 MLOAD PUSH1 0x20 DUP2 DUP4 SUB SUB DUP2 MSTORE SWAP1 PUSH1 0x40 MSTORE SWAP1 POP SWAP2 SWAP1 POP JUMP JUMPDEST PUSH1 0x60 DUP1 PUSH2 0xD64 DUP4 MLOAD PUSH2 0x1788 JUMP JUMPDEST SWAP1 POP PUSH1 0x0 JUMPDEST DUP4 MLOAD DUP2 LT ISZERO PUSH2 0xDBE JUMPI DUP2 PUSH2 0xD8F DUP6 DUP4 DUP2 MLOAD DUP2 LT PUSH2 0xD82 JUMPI INVALID JUMPDEST PUSH1 0x20 MUL PUSH1 0x20 ADD ADD MLOAD PUSH2 0x170E JUMP JUMPDEST PUSH1 0x40 MLOAD PUSH1 0x20 ADD PUSH2 0xDA0 SWAP3 SWAP2 SWAP1 PUSH2 0x3249 JUMP JUMPDEST PUSH1 0x40 MLOAD PUSH1 0x20 DUP2 DUP4 SUB SUB DUP2 MSTORE SWAP1 PUSH1 0x40 MSTORE SWAP2 POP DUP1 DUP1 PUSH1 0x1 ADD SWAP2 POP POP PUSH2 0xD69 JUMP JUMPDEST POP DUP1 SWAP2 POP POP SWAP2 SWAP1 POP JUMP JUMPDEST PUSH1 0x60 PUSH1 0x0 DUP3 PUSH1 0x40 MLOAD PUSH1 0x20 ADD PUSH2 0xDDD SWAP2 SWAP1 PUSH2 0x31B5 JUMP JUMPDEST PUSH1 0x40 MLOAD PUSH1 0x20 DUP2 DUP4 SUB SUB DUP2 MSTORE SWAP1 PUSH1 0x40 MSTORE SWAP1 POP DUP1 SWAP2 POP POP SWAP2 SWAP1 POP JUMP JUMPDEST PUSH1 0x60 PUSH2 0xE06 DUP3 PUSH1 0x0 ADD MLOAD PUSH2 0xDC8 JUMP JUMPDEST PUSH2 0xE13 DUP4 PUSH1 0x20 ADD MLOAD PUSH2 0xBFB JUMP JUMPDEST PUSH1 0x40 MLOAD PUSH1 0x20 ADD PUSH2 0xE24 SWAP3 SWAP2 SWAP1 PUSH2 0x3249 JUMP JUMPDEST PUSH1 0x40 MLOAD PUSH1 0x20 DUP2 DUP4 SUB SUB DUP2 MSTORE SWAP1 PUSH1 0x40 MSTORE SWAP1 POP SWAP2 SWAP1 POP JUMP JUMPDEST PUSH1 0x60 PUSH1 0x0 PUSH2 0xE4B DUP4 PUSH1 0x0 ADD MLOAD PUSH2 0x1751 JUMP JUMPDEST PUSH2 0xE58 DUP5 PUSH1 0x20 ADD MLOAD PUSH2 0x1751 JUMP JUMPDEST PUSH2 0xE65 DUP6 PUSH1 0x40 ADD MLOAD PUSH2 0xDC8 JUMP JUMPDEST PUSH2 0xE78 DUP7 PUSH1 0x60 ADD MLOAD PUSH4 0xFFFFFFFF AND PUSH2 0x1471 JUMP JUMPDEST PUSH2 0xE8B DUP8 PUSH1 0x80 ADD MLOAD PUSH4 0xFFFFFFFF AND PUSH2 0x1471 JUMP JUMPDEST PUSH2 0xE98 DUP9 PUSH1 0xA0 ADD MLOAD PUSH2 0xDC8 JUMP JUMPDEST PUSH2 0xEA5 DUP10 PUSH1 0xC0 ADD MLOAD PUSH2 0xDC8 JUMP JUMPDEST PUSH1 0x40 MLOAD PUSH1 0x20 ADD PUSH2 0xEBB SWAP8 SWAP7 SWAP6 SWAP5 SWAP4 SWAP3 SWAP2 SWAP1 PUSH2 0x3341 JUMP JUMPDEST PUSH1 0x40 MLOAD PUSH1 0x20 DUP2 DUP4 SUB SUB DUP2 MSTORE SWAP1 PUSH1 0x40 MSTORE SWAP1 POP PUSH1 0x0 PUSH2 0xEDB DUP5 PUSH1 0xE0 ADD MLOAD PUSH2 0x1577 JUMP JUMPDEST PUSH2 0xEE9 DUP6 PUSH2 0x100 ADD MLOAD PUSH2 0x1214 JUMP JUMPDEST PUSH2 0xEF7 DUP7 PUSH2 0x120 ADD MLOAD PUSH2 0x1214 JUMP JUMPDEST PUSH2 0xF05 DUP8 PUSH2 0x140 ADD MLOAD PUSH2 0x14F9 JUMP JUMPDEST PUSH2 0xF13 DUP9 PUSH2 0x160 ADD MLOAD PUSH2 0x1214 JUMP JUMPDEST PUSH2 0xF21 DUP10 PUSH2 0x180 ADD MLOAD PUSH2 0x16C0 JUMP JUMPDEST PUSH2 0xF2F DUP11 PUSH2 0x1A0 ADD MLOAD PUSH2 0x184F JUMP JUMPDEST PUSH1 0x0 PUSH1 0xF8 SHL PUSH1 0x40 MLOAD PUSH1 0x20 ADD PUSH2 0xF4B SWAP9 SWAP8 SWAP7 SWAP6 SWAP5 SWAP4 SWAP3 SWAP2 SWAP1 PUSH2 0x33A6 JUMP JUMPDEST PUSH1 0x40 MLOAD PUSH1 0x20 DUP2 DUP4 SUB SUB DUP2 MSTORE SWAP1 PUSH1 0x40 MSTORE SWAP1 POP DUP2 DUP2 PUSH1 0x40 MLOAD PUSH1 0x20 ADD PUSH2 0xF6F SWAP3 SWAP2 SWAP1 PUSH2 0x3249 JUMP JUMPDEST PUSH1 0x40 MLOAD PUSH1 0x20 DUP2 DUP4 SUB SUB DUP2 MSTORE SWAP1 PUSH1 0x40 MSTORE SWAP3 POP POP POP SWAP2 SWAP1 POP JUMP JUMPDEST PUSH1 0x60 DUP2 PUSH1 0x0 ADD MLOAD PUSH2 0xF9B DUP4 PUSH1 0x20 ADD MLOAD PUSH2 0xDC8 JUMP JUMPDEST PUSH1 0x40 MLOAD PUSH1 0x20 ADD PUSH2 0xFAC SWAP3 SWAP2 SWAP1 PUSH2 0x3552 JUMP JUMPDEST PUSH1 0x40 MLOAD PUSH1 0x20 DUP2 DUP4 SUB SUB DUP2 MSTORE SWAP1 PUSH1 0x40 MSTORE SWAP1 POP SWAP2 SWAP1 POP JUMP JUMPDEST PUSH1 0x60 PUSH1 0x0 DUP3 PUSH1 0x40 MLOAD PUSH1 0x20 ADD PUSH2 0xFD7 SWAP2 SWAP1 PUSH2 0x34EA JUMP JUMPDEST PUSH1 0x40 MLOAD PUSH1 0x20 DUP2 DUP4 SUB SUB DUP2 MSTORE SWAP1 PUSH1 0x40 MSTORE SWAP1 POP PUSH2 0xFF1 DUP2 PUSH2 0xAF3 JUMP JUMPDEST SWAP2 POP POP SWAP2 SWAP1 POP JUMP JUMPDEST PUSH1 0x60 DUP2 PUSH1 0x40 MLOAD PUSH1 0x20 ADD PUSH2 0x100C SWAP2 SWAP1 PUSH2 0x31EB JUMP JUMPDEST PUSH1 0x40 MLOAD PUSH1 0x20 DUP2 DUP4 SUB SUB DUP2 MSTORE SWAP1 PUSH1 0x40 MSTORE SWAP1 POP SWAP2 SWAP1 POP JUMP JUMPDEST PUSH1 0x60 PUSH1 0x0 DUP3 PUSH1 0x40 MLOAD PUSH1 0x20 ADD PUSH2 0x1037 SWAP2 SWAP1 PUSH2 0x35FD JUMP JUMPDEST PUSH1 0x40 MLOAD PUSH1 0x20 DUP2 DUP4 SUB SUB DUP2 MSTORE SWAP1 PUSH1 0x40 MSTORE SWAP1 POP PUSH2 0x1051 DUP2 PUSH2 0xAF3 JUMP JUMPDEST SWAP2 POP POP SWAP2 SWAP1 POP JUMP JUMPDEST PUSH1 0x60 DUP2 PUSH1 0x40 MLOAD PUSH1 0x20 ADD PUSH2 0x106C SWAP2 SWAP1 PUSH2 0x353B JUMP JUMPDEST PUSH1 0x40 MLOAD PUSH1 0x20 DUP2 DUP4 SUB SUB DUP2 MSTORE SWAP1 PUSH1 0x40 MSTORE SWAP1 POP SWAP2 SWAP1 POP JUMP JUMPDEST PUSH1 0x60 DUP1 PUSH2 0x108F DUP4 MLOAD PUSH2 0x1788 JUMP JUMPDEST SWAP1 POP PUSH1 0x0 JUMPDEST DUP4 MLOAD DUP2 LT ISZERO PUSH2 0x10E9 JUMPI DUP2 PUSH2 0x10BA DUP6 DUP4 DUP2 MLOAD DUP2 LT PUSH2 0x10AD JUMPI INVALID JUMPDEST PUSH1 0x20 MUL PUSH1 0x20 ADD ADD MLOAD PUSH2 0xDF7 JUMP JUMPDEST PUSH1 0x40 MLOAD PUSH1 0x20 ADD PUSH2 0x10CB SWAP3 SWAP2 SWAP1 PUSH2 0x3249 JUMP JUMPDEST PUSH1 0x40 MLOAD PUSH1 0x20 DUP2 DUP4 SUB SUB DUP2 MSTORE SWAP1 PUSH1 0x40 MSTORE SWAP2 POP DUP1 DUP1 PUSH1 0x1 ADD SWAP2 POP POP PUSH2 0x1094 JUMP JUMPDEST POP DUP1 SWAP2 POP POP SWAP2 SWAP1 POP JUMP JUMPDEST PUSH1 0x60 PUSH1 0x0 PUSH2 0x110A DUP4 PUSH1 0x0 ADD MLOAD PUSH4 0xFFFFFFFF AND PUSH2 0x1471 JUMP JUMPDEST PUSH2 0x111B DUP5 PUSH1 0x20 ADD MLOAD PUSH1 0x0 ADD MLOAD PUSH2 0xDC8 JUMP JUMPDEST PUSH2 0x1136 DUP6 PUSH1 0x20 ADD MLOAD PUSH1 0x20 ADD MLOAD PUSH8 0xFFFFFFFFFFFFFFFF AND PUSH2 0x1471 JUMP JUMPDEST PUSH1 0x40 MLOAD PUSH1 0x20 ADD PUSH2 0x1147 SWAP3 SWAP2 SWAP1 PUSH2 0x3249 JUMP JUMPDEST PUSH1 0x40 MLOAD PUSH1 0x20 DUP2 DUP4 SUB SUB DUP2 MSTORE SWAP1 PUSH1 0x40 MSTORE PUSH2 0x1169 DUP6 PUSH1 0x40 ADD MLOAD PUSH4 0xFFFFFFFF AND PUSH2 0x1471 JUMP JUMPDEST PUSH2 0x1176 DUP7 PUSH1 0x60 ADD MLOAD PUSH2 0xDC8 JUMP JUMPDEST PUSH2 0x1183 DUP8 PUSH1 0x80 ADD MLOAD PUSH2 0x1471 JUMP JUMPDEST PUSH2 0x1190 DUP9 PUSH1 0xA0 ADD MLOAD PUSH2 0x16C0 JUMP JUMPDEST PUSH2 0x119D DUP10 PUSH1 0xC0 ADD MLOAD PUSH2 0xDC8 JUMP JUMPDEST PUSH1 0x40 MLOAD PUSH1 0x20 ADD PUSH2 0x11B3 SWAP8 SWAP7 SWAP6 SWAP5 SWAP4 SWAP3 SWAP2 SWAP1 PUSH2 0x3341 JUMP JUMPDEST PUSH1 0x40 MLOAD PUSH1 0x20 DUP2 DUP4 SUB SUB DUP2 MSTORE SWAP1 PUSH1 0x40 MSTORE SWAP1 POP PUSH1 0x0 PUSH1 0x40 DUP5 PUSH1 0x40 ADD MLOAD AND PUSH4 0xFFFFFFFF AND GT ISZERO PUSH2 0x120B JUMPI DUP1 PUSH2 0x11E8 DUP5 PUSH1 0xE0 ADD MLOAD PUSH2 0xDC8 JUMP JUMPDEST PUSH1 0x40 MLOAD PUSH1 0x20 ADD PUSH2 0x11F9 SWAP3 SWAP2 SWAP1 PUSH2 0x3249 JUMP JUMPDEST PUSH1 0x40 MLOAD PUSH1 0x20 DUP2 DUP4 SUB SUB DUP2 MSTORE SWAP1 PUSH1 0x40 MSTORE SWAP1 POP JUMPDEST DUP1 SWAP2 POP POP SWAP2 SWAP1 POP JUMP JUMPDEST PUSH1 0x60 DUP1 PUSH2 0x1221 DUP4 MLOAD PUSH2 0x1471 JUMP JUMPDEST SWAP1 POP PUSH1 0x0 JUMPDEST DUP4 MLOAD DUP2 LT ISZERO PUSH2 0x127B JUMPI DUP2 PUSH2 0x124C DUP6 DUP4 DUP2 MLOAD DUP2 LT PUSH2 0x123F JUMPI INVALID JUMPDEST PUSH1 0x20 MUL PUSH1 0x20 ADD ADD MLOAD PUSH2 0x15AE JUMP JUMPDEST PUSH1 0x40 MLOAD PUSH1 0x20 ADD PUSH2 0x125D SWAP3 SWAP2 SWAP1 PUSH2 0x3249 JUMP JUMPDEST PUSH1 0x40 MLOAD PUSH1 0x20 DUP2 DUP4 SUB SUB DUP2 MSTORE SWAP1 PUSH1 0x40 MSTORE SWAP2 POP DUP1 DUP1 PUSH1 0x1 ADD SWAP2 POP POP PUSH2 0x1226 JUMP JUMPDEST POP DUP1 SWAP2 POP POP SWAP2 SWAP1 POP JUMP JUMPDEST PUSH1 0x60 DUP1 PUSH2 0x1292 DUP4 MLOAD PUSH2 0x1788 JUMP JUMPDEST SWAP1 POP PUSH1 0x0 JUMPDEST DUP4 MLOAD DUP2 LT ISZERO PUSH2 0x12E4 JUMPI DUP2 DUP5 DUP3 DUP2 MLOAD DUP2 LT PUSH2 0x12AD JUMPI INVALID JUMPDEST PUSH1 0x20 MUL PUSH1 0x20 ADD ADD MLOAD PUSH1 0x40 MLOAD PUSH1 0x20 ADD PUSH2 0x12C6 SWAP3 SWAP2 SWAP1 PUSH2 0x34C2 JUMP JUMPDEST PUSH1 0x40 MLOAD PUSH1 0x20 DUP2 DUP4 SUB SUB DUP2 MSTORE SWAP1 PUSH1 0x40 MSTORE SWAP2 POP DUP1 DUP1 PUSH1 0x1 ADD SWAP2 POP POP PUSH2 0x1297 JUMP JUMPDEST POP DUP1 SWAP2 POP POP SWAP2 SWAP1 POP JUMP JUMPDEST PUSH1 0x60 PUSH1 0x0 DUP3 PUSH1 0x40 MLOAD PUSH1 0x20 ADD PUSH2 0x1303 SWAP2 SWAP1 PUSH2 0x3520 JUMP JUMPDEST PUSH1 0x40 MLOAD PUSH1 0x20 DUP2 DUP4 SUB SUB DUP2 MSTORE SWAP1 PUSH1 0x40 MSTORE SWAP1 POP PUSH2 0x131D DUP2 PUSH2 0xAF3 JUMP JUMPDEST SWAP2 POP POP SWAP2 SWAP1 POP JUMP JUMPDEST PUSH1 0x60 DUP1 DUP3 ISZERO PUSH2 0x133B JUMPI PUSH2 0x1338 DUP5 MLOAD PUSH2 0x15F1 JUMP JUMPDEST SWAP1 POP JUMPDEST PUSH1 0x0 JUMPDEST DUP5 MLOAD DUP2 LT ISZERO PUSH2 0x1393 JUMPI DUP2 PUSH2 0x1364 DUP7 DUP4 DUP2 MLOAD DUP2 LT PUSH2 0x1357 JUMPI INVALID JUMPDEST PUSH1 0x20 MUL PUSH1 0x20 ADD ADD MLOAD PUSH2 0x10F3 JUMP JUMPDEST PUSH1 0x40 MLOAD PUSH1 0x20 ADD PUSH2 0x1375 SWAP3 SWAP2 SWAP1 PUSH2 0x3249 JUMP JUMPDEST PUSH1 0x40 MLOAD PUSH1 0x20 DUP2 DUP4 SUB SUB DUP2 MSTORE SWAP1 PUSH1 0x40 MSTORE SWAP2 POP DUP1 DUP1 PUSH1 0x1 ADD SWAP2 POP POP PUSH2 0x133E JUMP JUMPDEST POP DUP1 SWAP2 POP POP SWAP3 SWAP2 POP POP JUMP JUMPDEST PUSH1 0x60 PUSH2 0x13AD DUP3 PUSH1 0x0 ADD MLOAD PUSH2 0x1577 JUMP JUMPDEST PUSH2 0x13BA DUP4 PUSH1 0x20 ADD MLOAD PUSH2 0x1577 JUMP JUMPDEST PUSH2 0x13C7 DUP5 PUSH1 0x40 ADD MLOAD PUSH2 0x16C0 JUMP JUMPDEST PUSH2 0x13D4 DUP6 PUSH1 0x60 ADD MLOAD PUSH2 0xDC8 JUMP JUMPDEST PUSH2 0x13E1 DUP7 PUSH1 0x80 ADD MLOAD PUSH2 0x97A JUMP JUMPDEST PUSH2 0x13EE DUP8 PUSH1 0xA0 ADD MLOAD PUSH2 0x1577 JUMP JUMPDEST PUSH2 0x13FB DUP9 PUSH1 0xC0 ADD MLOAD PUSH2 0xD14 JUMP JUMPDEST PUSH2 0x1408 DUP10 PUSH1 0xE0 ADD MLOAD PUSH2 0x14F9 JUMP JUMPDEST PUSH2 0x1416 DUP11 PUSH2 0x100 ADD MLOAD PUSH2 0xBC4 JUMP JUMPDEST PUSH2 0x1424 DUP12 PUSH2 0x120 ADD MLOAD PUSH2 0xD57 JUMP JUMPDEST PUSH2 0x1432 DUP13 PUSH2 0x140 ADD MLOAD PUSH2 0x1082 JUMP JUMPDEST PUSH2 0x1440 DUP14 PUSH2 0x160 ADD MLOAD PUSH2 0x909 JUMP JUMPDEST PUSH1 0x40 MLOAD PUSH1 0x20 ADD PUSH2 0x145B SWAP13 SWAP12 SWAP11 SWAP10 SWAP9 SWAP8 SWAP7 SWAP6 SWAP5 SWAP4 SWAP3 SWAP2 SWAP1 PUSH2 0x341C JUMP JUMPDEST PUSH1 0x40 MLOAD PUSH1 0x20 DUP2 DUP4 SUB SUB DUP2 MSTORE SWAP1 PUSH1 0x40 MSTORE SWAP1 POP SWAP2 SWAP1 POP JUMP JUMPDEST PUSH1 0x60 PUSH1 0x0 PUSH1 0x60 PUSH1 0x0 JUMPDEST PUSH1 0x1 ISZERO PUSH2 0x14E6 JUMPI PUSH1 0x0 DUP2 EQ ISZERO PUSH2 0x1491 JUMPI PUSH1 0x0 PUSH2 0x1494 JUMP JUMPDEST PUSH1 0x80 JUMPDEST PUSH1 0x7F DUP7 AND OR PUSH1 0xF8 SHL SWAP3 POP DUP2 DUP4 PUSH1 0x40 MLOAD PUSH1 0x20 ADD PUSH2 0x14B1 SWAP3 SWAP2 SWAP1 PUSH2 0x3221 JUMP JUMPDEST PUSH1 0x40 MLOAD PUSH1 0x20 DUP2 DUP4 SUB SUB DUP2 MSTORE SWAP1 PUSH1 0x40 MSTORE SWAP2 POP PUSH1 0x7F DUP6 GT PUSH2 0x14CF JUMPI PUSH2 0x14E6 JUMP JUMPDEST PUSH1 0x1 PUSH1 0x7 DUP7 SWAP1 SHR SUB SWAP5 POP DUP1 DUP1 PUSH1 0x1 ADD SWAP2 POP POP PUSH2 0x147A JUMP JUMPDEST PUSH2 0x14EF DUP3 PUSH2 0xAF3 JUMP JUMPDEST SWAP4 POP POP POP POP SWAP2 SWAP1 POP JUMP JUMPDEST PUSH1 0x60 DUP2 PUSH1 0x40 MLOAD PUSH1 0x20 ADD PUSH2 0x150C SWAP2 SWAP1 PUSH2 0x3206 JUMP JUMPDEST PUSH1 0x40 MLOAD PUSH1 0x20 DUP2 DUP4 SUB SUB DUP2 MSTORE SWAP1 PUSH1 0x40 MSTORE SWAP1 POP SWAP2 SWAP1 POP JUMP JUMPDEST PUSH1 0x60 PUSH2 0x152D DUP7 PUSH2 0x1059 JUMP JUMPDEST PUSH2 0x1536 DUP7 PUSH2 0xDC8 JUMP JUMPDEST PUSH2 0x153F DUP7 PUSH2 0x12EE JUMP JUMPDEST PUSH2 0x1548 DUP7 PUSH2 0xDC8 JUMP JUMPDEST DUP6 PUSH1 0x40 MLOAD PUSH1 0x20 ADD PUSH2 0x155D SWAP6 SWAP5 SWAP4 SWAP3 SWAP2 SWAP1 PUSH2 0x329E JUMP JUMPDEST PUSH1 0x40 MLOAD PUSH1 0x20 DUP2 DUP4 SUB SUB DUP2 MSTORE SWAP1 PUSH1 0x40 MSTORE SWAP1 POP SWAP6 SWAP5 POP POP POP POP POP JUMP JUMPDEST PUSH1 0x60 PUSH1 0x0 DUP3 PUSH1 0x40 MLOAD PUSH1 0x20 ADD PUSH2 0x158C SWAP2 SWAP1 PUSH2 0x35C7 JUMP JUMPDEST PUSH1 0x40 MLOAD PUSH1 0x20 DUP2 DUP4 SUB SUB DUP2 MSTORE SWAP1 PUSH1 0x40 MSTORE SWAP1 POP PUSH2 0x15A6 DUP2 PUSH2 0xAF3 JUMP JUMPDEST SWAP2 POP POP SWAP2 SWAP1 POP JUMP JUMPDEST PUSH1 0x60 PUSH2 0x15BD DUP3 PUSH1 0x0 ADD MLOAD PUSH2 0xDC8 JUMP JUMPDEST PUSH2 0x15CA DUP4 PUSH1 0x20 ADD MLOAD PUSH2 0xBC4 JUMP JUMPDEST PUSH1 0x40 MLOAD PUSH1 0x20 ADD PUSH2 0x15DB SWAP3 SWAP2 SWAP1 PUSH2 0x3249 JUMP JUMPDEST PUSH1 0x40 MLOAD PUSH1 0x20 DUP2 DUP4 SUB SUB DUP2 MSTORE SWAP1 PUSH1 0x40 MSTORE SWAP1 POP SWAP2 SWAP1 POP JUMP JUMPDEST PUSH1 0x60 DUP1 PUSH1 0xFD PUSH1 0xFF AND DUP4 LT ISZERO PUSH2 0x1627 JUMPI DUP3 PUSH1 0x40 MLOAD PUSH1 0x20 ADD PUSH2 0x1611 SWAP2 SWAP1 PUSH2 0x35FD JUMP JUMPDEST PUSH1 0x40 MLOAD PUSH1 0x20 DUP2 DUP4 SUB SUB DUP2 MSTORE SWAP1 PUSH1 0x40 MSTORE SWAP1 POP PUSH2 0x16B7 JUMP JUMPDEST PUSH2 0xFFFF DUP4 GT PUSH2 0x165A JUMPI PUSH1 0xFD DUP4 PUSH1 0x40 MLOAD PUSH1 0x20 ADD PUSH2 0x1644 SWAP3 SWAP2 SWAP1 PUSH2 0x3618 JUMP JUMPDEST PUSH1 0x40 MLOAD PUSH1 0x20 DUP2 DUP4 SUB SUB DUP2 MSTORE SWAP1 PUSH1 0x40 MSTORE SWAP1 POP PUSH2 0x16B6 JUMP JUMPDEST PUSH4 0xFFFFFFFF DUP4 GT PUSH2 0x168F JUMPI PUSH1 0xFE DUP4 PUSH1 0x40 MLOAD PUSH1 0x20 ADD PUSH2 0x1679 SWAP3 SWAP2 SWAP1 PUSH2 0x3644 JUMP JUMPDEST PUSH1 0x40 MLOAD PUSH1 0x20 DUP2 DUP4 SUB SUB DUP2 MSTORE SWAP1 PUSH1 0x40 MSTORE SWAP1 POP PUSH2 0x16B5 JUMP JUMPDEST PUSH1 0xFF DUP4 PUSH1 0x40 MLOAD PUSH1 0x20 ADD PUSH2 0x16A3 SWAP3 SWAP2 SWAP1 PUSH2 0x3670 JUMP JUMPDEST PUSH1 0x40 MLOAD PUSH1 0x20 DUP2 DUP4 SUB SUB DUP2 MSTORE SWAP1 PUSH1 0x40 MSTORE SWAP1 POP JUMPDEST JUMPDEST JUMPDEST DUP1 SWAP2 POP POP SWAP2 SWAP1 POP JUMP JUMPDEST PUSH1 0x60 PUSH2 0x16CF DUP3 PUSH1 0x0 ADD MLOAD PUSH2 0x1022 JUMP JUMPDEST PUSH2 0x16D9 PUSH1 0x14 PUSH2 0x15F1 JUMP JUMPDEST PUSH2 0x16E6 DUP5 PUSH1 0x20 ADD MLOAD PUSH2 0xDC8 JUMP JUMPDEST PUSH1 0x40 MLOAD PUSH1 0x20 ADD PUSH2 0x16F8 SWAP4 SWAP3 SWAP2 SWAP1 PUSH2 0x326D JUMP JUMPDEST PUSH1 0x40 MLOAD PUSH1 0x20 DUP2 DUP4 SUB SUB DUP2 MSTORE SWAP1 PUSH1 0x40 MSTORE SWAP1 POP SWAP2 SWAP1 POP JUMP JUMPDEST PUSH1 0x60 PUSH2 0x171D DUP3 PUSH1 0x0 ADD MLOAD PUSH2 0xDC8 JUMP JUMPDEST PUSH2 0x172A DUP4 PUSH1 0x20 ADD MLOAD PUSH2 0x97A JUMP JUMPDEST PUSH1 0x40 MLOAD PUSH1 0x20 ADD PUSH2 0x173B SWAP3 SWAP2 SWAP1 PUSH2 0x3249 JUMP JUMPDEST PUSH1 0x40 MLOAD PUSH1 0x20 DUP2 DUP4 SUB SUB DUP2 MSTORE SWAP1 PUSH1 0x40 MSTORE SWAP1 POP SWAP2 SWAP1 POP JUMP JUMPDEST PUSH1 0x60 PUSH1 0x0 DUP3 PUSH1 0x40 MLOAD PUSH1 0x20 ADD PUSH2 0x1766 SWAP2 SWAP1 PUSH2 0x3591 JUMP JUMPDEST PUSH1 0x40 MLOAD PUSH1 0x20 DUP2 DUP4 SUB SUB DUP2 MSTORE SWAP1 PUSH1 0x40 MSTORE SWAP1 POP PUSH2 0x1780 DUP2 PUSH2 0xAF3 JUMP JUMPDEST SWAP2 POP POP SWAP2 SWAP1 POP JUMP JUMPDEST PUSH1 0x60 PUSH1 0x0 DUP3 PUSH1 0x40 MLOAD PUSH1 0x20 ADD PUSH2 0x179D SWAP2 SWAP1 PUSH2 0x35AC JUMP JUMPDEST PUSH1 0x40 MLOAD PUSH1 0x20 DUP2 DUP4 SUB SUB DUP2 MSTORE SWAP1 PUSH1 0x40 MSTORE SWAP1 POP PUSH2 0x17B7 DUP2 PUSH2 0xAF3 JUMP JUMPDEST SWAP2 POP POP SWAP2 SWAP1 POP JUMP JUMPDEST PUSH1 0x60 DUP1 PUSH2 0x17CC DUP4 MLOAD PUSH2 0x1788 JUMP JUMPDEST SWAP1 POP PUSH1 0x0 JUMPDEST DUP4 MLOAD DUP2 LT ISZERO PUSH2 0x1845 JUMPI DUP2 PUSH2 0x1816 DUP6 DUP4 DUP2 MLOAD DUP2 LT PUSH2 0x17EA JUMPI INVALID JUMPDEST PUSH1 0x20 MUL PUSH1 0x20 ADD ADD MLOAD PUSH1 0x40 MLOAD PUSH1 0x20 ADD PUSH2 0x1802 SWAP2 SWAP1 PUSH2 0x3520 JUMP JUMPDEST PUSH1 0x40 MLOAD PUSH1 0x20 DUP2 DUP4 SUB SUB DUP2 MSTORE SWAP1 PUSH1 0x40 MSTORE PUSH2 0xAF3 JUMP JUMPDEST PUSH1 0x40 MLOAD PUSH1 0x20 ADD PUSH2 0x1827 SWAP3 SWAP2 SWAP1 PUSH2 0x3249 JUMP JUMPDEST PUSH1 0x40 MLOAD PUSH1 0x20 DUP2 DUP4 SUB SUB DUP2 MSTORE SWAP1 PUSH1 0x40 MSTORE SWAP2 POP DUP1 DUP1 PUSH1 0x1 ADD SWAP2 POP POP PUSH2 0x17D1 JUMP JUMPDEST POP DUP1 SWAP2 POP POP SWAP2 SWAP1 POP JUMP JUMPDEST PUSH1 0x60 PUSH1 0x0 DUP3 PUSH1 0x40 MLOAD PUSH1 0x20 ADD PUSH2 0x1864 SWAP2 SWAP1 PUSH2 0x3505 JUMP JUMPDEST PUSH1 0x40 MLOAD PUSH1 0x20 DUP2 DUP4 SUB SUB DUP2 MSTORE SWAP1 PUSH1 0x40 MSTORE SWAP1 POP PUSH2 0x187E DUP2 PUSH2 0xAF3 JUMP JUMPDEST SWAP2 POP POP SWAP2 SWAP1 POP JUMP JUMPDEST PUSH1 0x0 PUSH2 0x1899 PUSH2 0x1894 DUP5 PUSH2 0x36EF JUMP JUMPDEST PUSH2 0x36BE JUMP JUMPDEST SWAP1 POP DUP1 DUP4 DUP3 MSTORE PUSH1 0x20 DUP3 ADD SWAP1 POP DUP3 DUP6 PUSH1 0x20 DUP7 MUL DUP3 ADD GT ISZERO PUSH2 0x18B8 JUMPI PUSH1 0x0 DUP1 REVERT JUMPDEST PUSH1 0x0 JUMPDEST DUP6 DUP2 LT ISZERO PUSH2 0x18E8 JUMPI DUP2 PUSH2 0x18CE DUP9 DUP3 PUSH2 0x1E2B JUMP JUMPDEST DUP5 MSTORE PUSH1 0x20 DUP5 ADD SWAP4 POP PUSH1 0x20 DUP4 ADD SWAP3 POP POP PUSH1 0x1 DUP2 ADD SWAP1 POP PUSH2 0x18BB JUMP JUMPDEST POP POP POP SWAP4 SWAP3 POP POP POP JUMP JUMPDEST PUSH1 0x0 PUSH2 0x1905 PUSH2 0x1900 DUP5 PUSH2 0x371B JUMP JUMPDEST PUSH2 0x36BE JUMP JUMPDEST SWAP1 POP DUP1 DUP4 DUP3 MSTORE PUSH1 0x20 DUP3 ADD SWAP1 POP DUP3 DUP6 PUSH1 0x20 DUP7 MUL DUP3 ADD GT ISZERO PUSH2 0x1924 JUMPI PUSH1 0x0 DUP1 REVERT JUMPDEST PUSH1 0x0 JUMPDEST DUP6 DUP2 LT ISZERO PUSH2 0x1954 JUMPI DUP2 PUSH2 0x193A DUP9 DUP3 PUSH2 0x1E40 JUMP JUMPDEST DUP5 MSTORE PUSH1 0x20 DUP5 ADD SWAP4 POP PUSH1 0x20 DUP4 ADD SWAP3 POP POP PUSH1 0x1 DUP2 ADD SWAP1 POP PUSH2 0x1927 JUMP JUMPDEST POP POP POP SWAP4 SWAP3 POP POP POP JUMP JUMPDEST PUSH1 0x0 PUSH2 0x1971 PUSH2 0x196C DUP5 PUSH2 0x3747 JUMP JUMPDEST PUSH2 0x36BE JUMP JUMPDEST SWAP1 POP DUP1 DUP4 DUP3 MSTORE PUSH1 0x20 DUP3 ADD SWAP1 POP DUP3 DUP6 PUSH1 0x40 DUP7 MUL DUP3 ADD GT ISZERO PUSH2 0x1990 JUMPI PUSH1 0x0 DUP1 REVERT JUMPDEST PUSH1 0x0 JUMPDEST DUP6 DUP2 LT ISZERO PUSH2 0x19C0 JUMPI DUP2 PUSH2 0x19A6 DUP9 DUP3 PUSH2 0x22FD JUMP JUMPDEST DUP5 MSTORE PUSH1 0x20 DUP5 ADD SWAP4 POP PUSH1 0x40 DUP4 ADD SWAP3 POP POP PUSH1 0x1 DUP2 ADD SWAP1 POP PUSH2 0x1993 JUMP JUMPDEST POP POP POP SWAP4 SWAP3 POP POP POP JUMP JUMPDEST PUSH1 0x0 PUSH2 0x19DD PUSH2 0x19D8 DUP5 PUSH2 0x3773 JUMP JUMPDEST PUSH2 0x36BE JUMP JUMPDEST SWAP1 POP DUP1 DUP4 DUP3 MSTORE PUSH1 0x20 DUP3 ADD SWAP1 POP DUP3 PUSH1 0x0 JUMPDEST DUP6 DUP2 LT ISZERO PUSH2 0x1A1D JUMPI DUP2 CALLDATALOAD DUP6 ADD PUSH2 0x1A03 DUP9 DUP3 PUSH2 0x2349 JUMP JUMPDEST DUP5 MSTORE PUSH1 0x20 DUP5 ADD SWAP4 POP PUSH1 0x20 DUP4 ADD SWAP3 POP POP PUSH1 0x1 DUP2 ADD SWAP1 POP PUSH2 0x19ED JUMP JUMPDEST POP POP POP SWAP4 SWAP3 POP POP POP JUMP JUMPDEST PUSH1 0x0 PUSH2 0x1A3A PUSH2 0x1A35 DUP5 PUSH2 0x379F JUMP JUMPDEST PUSH2 0x36BE JUMP JUMPDEST SWAP1 POP DUP1 DUP4 DUP3 MSTORE PUSH1 0x20 DUP3 ADD SWAP1 POP DUP3 DUP6 PUSH2 0x140 DUP7 MUL DUP3 ADD GT ISZERO PUSH2 0x1A5A JUMPI PUSH1 0x0 DUP1 REVERT JUMPDEST PUSH1 0x0 JUMPDEST DUP6 DUP2 LT ISZERO PUSH2 0x1A8B JUMPI DUP2 PUSH2 0x1A70 DUP9 DUP3 PUSH2 0x25DC JUMP JUMPDEST DUP5 MSTORE PUSH1 0x20 DUP5 ADD SWAP4 POP PUSH2 0x140 DUP4 ADD SWAP3 POP POP PUSH1 0x1 DUP2 ADD SWAP1 POP PUSH2 0x1A5D JUMP JUMPDEST POP POP POP SWAP4 SWAP3 POP POP POP JUMP JUMPDEST PUSH1 0x0 PUSH2 0x1AA8 PUSH2 0x1AA3 DUP5 PUSH2 0x37CB JUMP JUMPDEST PUSH2 0x36BE JUMP JUMPDEST SWAP1 POP DUP1 DUP4 DUP3 MSTORE PUSH1 0x20 DUP3 ADD SWAP1 POP DUP3 PUSH1 0x0 JUMPDEST DUP6 DUP2 LT ISZERO PUSH2 0x1AE8 JUMPI DUP2 CALLDATALOAD DUP6 ADD PUSH2 0x1ACE DUP9 DUP3 PUSH2 0x273C JUMP JUMPDEST DUP5 MSTORE PUSH1 0x20 DUP5 ADD SWAP4 POP PUSH1 0x20 DUP4 ADD SWAP3 POP POP PUSH1 0x1 DUP2 ADD SWAP1 POP PUSH2 0x1AB8 JUMP JUMPDEST POP POP POP SWAP4 SWAP3 POP POP POP JUMP JUMPDEST PUSH1 0x0 PUSH2 0x1B05 PUSH2 0x1B00 DUP5 PUSH2 0x37F7 JUMP JUMPDEST PUSH2 0x36BE JUMP JUMPDEST SWAP1 POP DUP1 DUP4 DUP3 MSTORE PUSH1 0x20 DUP3 ADD SWAP1 POP DUP3 DUP6 PUSH2 0x100 DUP7 MUL DUP3 ADD GT ISZERO PUSH2 0x1B25 JUMPI PUSH1 0x0 DUP1 REVERT JUMPDEST PUSH1 0x0 JUMPDEST DUP6 DUP2 LT ISZERO PUSH2 0x1B56 JUMPI DUP2 PUSH2 0x1B3B DUP9 DUP3 PUSH2 0x27A0 JUMP JUMPDEST DUP5 MSTORE PUSH1 0x20 DUP5 ADD SWAP4 POP PUSH2 0x100 DUP4 ADD SWAP3 POP POP PUSH1 0x1 DUP2 ADD SWAP1 POP PUSH2 0x1B28 JUMP JUMPDEST POP POP POP SWAP4 SWAP3 POP POP POP JUMP JUMPDEST PUSH1 0x0 PUSH2 0x1B73 PUSH2 0x1B6E DUP5 PUSH2 0x3823 JUMP JUMPDEST PUSH2 0x36BE JUMP JUMPDEST SWAP1 POP DUP1 DUP4 DUP3 MSTORE PUSH1 0x20 DUP3 ADD SWAP1 POP DUP3 DUP6 PUSH1 0x20 DUP7 MUL DUP3 ADD GT ISZERO PUSH2 0x1B92 JUMPI PUSH1 0x0 DUP1 REVERT JUMPDEST PUSH1 0x0 JUMPDEST DUP6 DUP2 LT ISZERO PUSH2 0x1BC2 JUMPI DUP2 PUSH2 0x1BA8 DUP9 DUP3 PUSH2 0x2802 JUMP JUMPDEST DUP5 MSTORE PUSH1 0x20 DUP5 ADD SWAP4 POP PUSH1 0x20 DUP4 ADD SWAP3 POP POP PUSH1 0x1 DUP2 ADD SWAP1 POP PUSH2 0x1B95 JUMP JUMPDEST POP POP POP SWAP4 SWAP3 POP POP POP JUMP JUMPDEST PUSH1 0x0 PUSH2 0x1BDF PUSH2 0x1BDA DUP5 PUSH2 0x384F JUMP JUMPDEST PUSH2 0x36BE JUMP JUMPDEST SWAP1 POP DUP3 DUP2 MSTORE PUSH1 0x20 DUP2 ADD DUP5 DUP5 DUP5 ADD GT ISZERO PUSH2 0x1BF7 JUMPI PUSH1 0x0 DUP1 REVERT JUMPDEST PUSH2 0x1C02 DUP5 DUP3 DUP6 PUSH2 0x39FC JUMP JUMPDEST POP SWAP4 SWAP3 POP POP POP JUMP JUMPDEST PUSH1 0x0 PUSH2 0x1C1D PUSH2 0x1C18 DUP5 PUSH2 0x387F JUMP JUMPDEST PUSH2 0x36BE JUMP JUMPDEST SWAP1 POP DUP3 DUP2 MSTORE PUSH1 0x20 DUP2 ADD DUP5 DUP5 DUP5 ADD GT ISZERO PUSH2 0x1C35 JUMPI PUSH1 0x0 DUP1 REVERT JUMPDEST PUSH2 0x1C40 DUP5 DUP3 DUP6 PUSH2 0x39FC JUMP JUMPDEST POP SWAP4 SWAP3 POP POP POP JUMP JUMPDEST PUSH1 0x0 DUP2 CALLDATALOAD SWAP1 POP PUSH2 0x1C57 DUP2 PUSH2 0x3B6E JUMP JUMPDEST SWAP3 SWAP2 POP POP JUMP JUMPDEST PUSH1 0x0 DUP3 PUSH1 0x1F DUP4 ADD SLT PUSH2 0x1C6E JUMPI PUSH1 0x0 DUP1 REVERT JUMPDEST DUP2 CALLDATALOAD PUSH2 0x1C7E DUP5 DUP3 PUSH1 0x20 DUP7 ADD PUSH2 0x1886 JUMP JUMPDEST SWAP2 POP POP SWAP3 SWAP2 POP POP JUMP JUMPDEST PUSH1 0x0 DUP3 PUSH1 0x1F DUP4 ADD SLT PUSH2 0x1C98 JUMPI PUSH1 0x0 DUP1 REVERT JUMPDEST DUP2 CALLDATALOAD PUSH2 0x1CA8 DUP5 DUP3 PUSH1 0x20 DUP7 ADD PUSH2 0x18F2 JUMP JUMPDEST SWAP2 POP POP SWAP3 SWAP2 POP POP JUMP JUMPDEST PUSH1 0x0 DUP3 PUSH1 0x1F DUP4 ADD SLT PUSH2 0x1CC2 JUMPI PUSH1 0x0 DUP1 REVERT JUMPDEST DUP2 CALLDATALOAD PUSH2 0x1CD2 DUP5 DUP3 PUSH1 0x20 DUP7 ADD PUSH2 0x195E JUMP JUMPDEST SWAP2 POP POP SWAP3 SWAP2 POP POP JUMP JUMPDEST PUSH1 0x0 DUP3 PUSH1 0x1F DUP4 ADD SLT PUSH2 0x1CEC JUMPI PUSH1 0x0 DUP1 REVERT JUMPDEST DUP2 CALLDATALOAD PUSH2 0x1CFC DUP5 DUP3 PUSH1 0x20 DUP7 ADD PUSH2 0x19CA JUMP JUMPDEST SWAP2 POP POP SWAP3 SWAP2 POP POP JUMP JUMPDEST PUSH1 0x0 DUP3 PUSH1 0x1F DUP4 ADD SLT PUSH2 0x1D16 JUMPI PUSH1 0x0 DUP1 REVERT JUMPDEST DUP2 CALLDATALOAD PUSH2 0x1D26 DUP5 DUP3 PUSH1 0x20 DUP7 ADD PUSH2 0x1A27 JUMP JUMPDEST SWAP2 POP POP SWAP3 SWAP2 POP POP JUMP JUMPDEST PUSH1 0x0 DUP3 PUSH1 0x1F DUP4 ADD SLT PUSH2 0x1D40 JUMPI PUSH1 0x0 DUP1 REVERT JUMPDEST DUP2 CALLDATALOAD PUSH2 0x1D50 DUP5 DUP3 PUSH1 0x20 DUP7 ADD PUSH2 0x1A95 JUMP JUMPDEST SWAP2 POP POP SWAP3 SWAP2 POP POP JUMP JUMPDEST PUSH1 0x0 DUP3 PUSH1 0x1F DUP4 ADD SLT PUSH2 0x1D6A JUMPI PUSH1 0x0 DUP1 REVERT JUMPDEST DUP2 CALLDATALOAD PUSH2 0x1D7A DUP5 DUP3 PUSH1 0x20 DUP7 ADD PUSH2 0x1AF2 JUMP JUMPDEST SWAP2 POP POP SWAP3 SWAP2 POP POP JUMP JUMPDEST PUSH1 0x0 DUP3 PUSH1 0x1F DUP4 ADD SLT PUSH2 0x1D94 JUMPI PUSH1 0x0 DUP1 REVERT JUMPDEST DUP2 CALLDATALOAD PUSH2 0x1DA4 DUP5 DUP3 PUSH1 0x20 DUP7 ADD PUSH2 0x1B60 JUMP JUMPDEST SWAP2 POP POP SWAP3 SWAP2 POP POP JUMP JUMPDEST PUSH1 0x0 DUP2 CALLDATALOAD SWAP1 POP PUSH2 0x1DBC DUP2 PUSH2 0x3B85 JUMP JUMPDEST SWAP3 SWAP2 POP POP JUMP JUMPDEST PUSH1 0x0 DUP2 CALLDATALOAD SWAP1 POP PUSH2 0x1DD1 DUP2 PUSH2 0x3B9C JUMP JUMPDEST SWAP3 SWAP2 POP POP JUMP JUMPDEST PUSH1 0x0 DUP2 CALLDATALOAD SWAP1 POP PUSH2 0x1DE6 DUP2 PUSH2 0x3BB3 JUMP JUMPDEST SWAP3 SWAP2 POP POP JUMP JUMPDEST PUSH1 0x0 DUP3 PUSH1 0x1F DUP4 ADD SLT PUSH2 0x1DFD JUMPI PUSH1 0x0 DUP1 REVERT JUMPDEST DUP2 CALLDATALOAD PUSH2 0x1E0D DUP5 DUP3 PUSH1 0x20 DUP7 ADD PUSH2 0x1BCC JUMP JUMPDEST SWAP2 POP POP SWAP3 SWAP2 POP POP JUMP JUMPDEST PUSH1 0x0 DUP2 CALLDATALOAD SWAP1 POP PUSH2 0x1E25 DUP2 PUSH2 0x3BCA JUMP JUMPDEST SWAP3 SWAP2 POP POP JUMP JUMPDEST PUSH1 0x0 DUP2 CALLDATALOAD SWAP1 POP PUSH2 0x1E3A DUP2 PUSH2 0x3BE1 JUMP JUMPDEST SWAP3 SWAP2 POP POP JUMP JUMPDEST PUSH1 0x0 DUP2 CALLDATALOAD SWAP1 POP PUSH2 0x1E4F DUP2 PUSH2 0x3BF8 JUMP JUMPDEST SWAP3 SWAP2 POP POP JUMP JUMPDEST PUSH1 0x0 DUP3 PUSH1 0x1F DUP4 ADD SLT PUSH2 0x1E66 JUMPI PUSH1 0x0 DUP1 REVERT JUMPDEST DUP2 CALLDATALOAD PUSH2 0x1E76 DUP5 DUP3 PUSH1 0x20 DUP7 ADD PUSH2 0x1C0A JUMP JUMPDEST SWAP2 POP POP SWAP3 SWAP2 POP POP JUMP JUMPDEST PUSH1 0x0 PUSH2 0x2A0 DUP3 DUP5 SUB SLT ISZERO PUSH2 0x1E92 JUMPI PUSH1 0x0 DUP1 REVERT JUMPDEST PUSH2 0x1E9D PUSH2 0x2A0 PUSH2 0x36BE JUMP JUMPDEST SWAP1 POP PUSH1 0x0 PUSH2 0x1EAD DUP5 DUP3 DUP6 ADD PUSH2 0x27ED JUMP JUMPDEST PUSH1 0x0 DUP4 ADD MSTORE POP PUSH1 0x20 PUSH2 0x1EC1 DUP5 DUP3 DUP6 ADD PUSH2 0x27ED JUMP JUMPDEST PUSH1 0x20 DUP4 ADD MSTORE POP PUSH1 0x40 PUSH2 0x1ED5 DUP5 DUP3 DUP6 ADD PUSH2 0x1C48 JUMP JUMPDEST PUSH1 0x40 DUP4 ADD MSTORE POP PUSH1 0x60 DUP3 ADD CALLDATALOAD PUSH8 0xFFFFFFFFFFFFFFFF DUP2 GT ISZERO PUSH2 0x1EF5 JUMPI PUSH1 0x0 DUP1 REVERT JUMPDEST PUSH2 0x1F01 DUP5 DUP3 DUP6 ADD PUSH2 0x1D83 JUMP JUMPDEST PUSH1 0x60 DUP4 ADD MSTORE POP PUSH1 0x80 DUP3 ADD CALLDATALOAD PUSH8 0xFFFFFFFFFFFFFFFF DUP2 GT ISZERO PUSH2 0x1F21 JUMPI PUSH1 0x0 DUP1 REVERT JUMPDEST PUSH2 0x1F2D DUP5 DUP3 DUP6 ADD PUSH2 0x1C5D JUMP JUMPDEST PUSH1 0x80 DUP4 ADD MSTORE POP PUSH1 0xA0 DUP3 ADD CALLDATALOAD PUSH8 0xFFFFFFFFFFFFFFFF DUP2 GT ISZERO PUSH2 0x1F4D JUMPI PUSH1 0x0 DUP1 REVERT JUMPDEST PUSH2 0x1F59 DUP5 DUP3 DUP6 ADD PUSH2 0x1C87 JUMP JUMPDEST PUSH1 0xA0 DUP4 ADD MSTORE POP PUSH1 0xC0 PUSH2 0x1F6D DUP5 DUP3 DUP6 ADD PUSH2 0x1E40 JUMP JUMPDEST PUSH1 0xC0 DUP4 ADD MSTORE POP PUSH1 0xE0 PUSH2 0x1F81 DUP5 DUP3 DUP6 ADD PUSH2 0x1E40 JUMP JUMPDEST PUSH1 0xE0 DUP4 ADD MSTORE POP PUSH2 0x100 PUSH2 0x1F96 DUP5 DUP3 DUP6 ADD PUSH2 0x1E40 JUMP JUMPDEST PUSH2 0x100 DUP4 ADD MSTORE POP PUSH2 0x120 PUSH2 0x1FAC DUP5 DUP3 DUP6 ADD PUSH2 0x1E40 JUMP JUMPDEST PUSH2 0x120 DUP4 ADD MSTORE POP PUSH2 0x140 PUSH2 0x1FC2 DUP5 DUP3 DUP6 ADD PUSH2 0x1E40 JUMP JUMPDEST PUSH2 0x140 DUP4 ADD MSTORE POP PUSH2 0x160 PUSH2 0x1FD8 DUP5 DUP3 DUP6 ADD PUSH2 0x1E40 JUMP JUMPDEST PUSH2 0x160 DUP4 ADD MSTORE POP PUSH2 0x180 PUSH2 0x1FEE DUP5 DUP3 DUP6 ADD PUSH2 0x1E40 JUMP JUMPDEST PUSH2 0x180 DUP4 ADD MSTORE POP PUSH2 0x1A0 DUP3 ADD CALLDATALOAD PUSH8 0xFFFFFFFFFFFFFFFF DUP2 GT ISZERO PUSH2 0x2010 JUMPI PUSH1 0x0 DUP1 REVERT JUMPDEST PUSH2 0x201C DUP5 DUP3 DUP6 ADD PUSH2 0x1C87 JUMP JUMPDEST PUSH2 0x1A0 DUP4 ADD MSTORE POP PUSH2 0x1C0 DUP3 ADD CALLDATALOAD PUSH8 0xFFFFFFFFFFFFFFFF DUP2 GT ISZERO PUSH2 0x203E JUMPI PUSH1 0x0 DUP1 REVERT JUMPDEST PUSH2 0x204A DUP5 DUP3 DUP6 ADD PUSH2 0x1C87 JUMP JUMPDEST PUSH2 0x1C0 DUP4 ADD MSTORE POP PUSH2 0x1E0 DUP3 ADD CALLDATALOAD PUSH8 0xFFFFFFFFFFFFFFFF DUP2 GT ISZERO PUSH2 0x206C JUMPI PUSH1 0x0 DUP1 REVERT JUMPDEST PUSH2 0x2078 DUP5 DUP3 DUP6 ADD PUSH2 0x1C87 JUMP JUMPDEST PUSH2 0x1E0 DUP4 ADD MSTORE POP PUSH2 0x200 DUP3 ADD CALLDATALOAD PUSH8 0xFFFFFFFFFFFFFFFF DUP2 GT ISZERO PUSH2 0x209A JUMPI PUSH1 0x0 DUP1 REVERT JUMPDEST PUSH2 0x20A6 DUP5 DUP3 DUP6 ADD PUSH2 0x1C87 JUMP JUMPDEST PUSH2 0x200 DUP4 ADD MSTORE POP PUSH2 0x220 DUP3 ADD CALLDATALOAD PUSH8 0xFFFFFFFFFFFFFFFF DUP2 GT ISZERO PUSH2 0x20C8 JUMPI PUSH1 0x0 DUP1 REVERT JUMPDEST PUSH2 0x20D4 DUP5 DUP3 DUP6 ADD PUSH2 0x1C87 JUMP JUMPDEST PUSH2 0x220 DUP4 ADD MSTORE POP PUSH2 0x240 DUP3 ADD CALLDATALOAD PUSH8 0xFFFFFFFFFFFFFFFF DUP2 GT ISZERO PUSH2 0x20F6 JUMPI PUSH1 0x0 DUP1 REVERT JUMPDEST PUSH2 0x2102 DUP5 DUP3 DUP6 ADD PUSH2 0x1C87 JUMP JUMPDEST PUSH2 0x240 DUP4 ADD MSTORE POP PUSH2 0x260 DUP3 ADD CALLDATALOAD PUSH8 0xFFFFFFFFFFFFFFFF DUP2 GT ISZERO PUSH2 0x2124 JUMPI PUSH1 0x0 DUP1 REVERT JUMPDEST PUSH2 0x2130 DUP5 DUP3 DUP6 ADD PUSH2 0x1C5D JUMP JUMPDEST PUSH2 0x260 DUP4 ADD MSTORE POP PUSH2 0x280 DUP3 ADD CALLDATALOAD PUSH8 0xFFFFFFFFFFFFFFFF DUP2 GT ISZERO PUSH2 0x2152 JUMPI PUSH1 0x0 DUP1 REVERT JUMPDEST PUSH2 0x215E DUP5 DUP3 DUP6 ADD PUSH2 0x1C87 JUMP JUMPDEST PUSH2 0x280 DUP4 ADD MSTORE POP SWAP3 SWAP2 POP POP JUMP JUMPDEST PUSH1 0x0 PUSH2 0x1E0 DUP3 DUP5 SUB SLT ISZERO PUSH2 0x217E JUMPI PUSH1 0x0 DUP1 REVERT JUMPDEST PUSH2 0x2189 PUSH2 0x1C0 PUSH2 0x36BE JUMP JUMPDEST SWAP1 POP PUSH1 0x0 PUSH2 0x2199 DUP5 DUP3 DUP6 ADD PUSH2 0x27ED JUMP JUMPDEST PUSH1 0x0 DUP4 ADD MSTORE POP PUSH1 0x20 PUSH2 0x21AD DUP5 DUP3 DUP6 ADD PUSH2 0x27ED JUMP JUMPDEST PUSH1 0x20 DUP4 ADD MSTORE POP PUSH1 0x40 PUSH2 0x21C1 DUP5 DUP3 DUP6 ADD PUSH2 0x1C48 JUMP JUMPDEST PUSH1 0x40 DUP4 ADD MSTORE POP PUSH1 0x60 PUSH2 0x21D5 DUP5 DUP3 DUP6 ADD PUSH2 0x282C JUMP JUMPDEST PUSH1 0x60 DUP4 ADD MSTORE POP PUSH1 0x80 PUSH2 0x21E9 DUP5 DUP3 DUP6 ADD PUSH2 0x282C JUMP JUMPDEST PUSH1 0x80 DUP4 ADD MSTORE POP PUSH1 0xA0 PUSH2 0x21FD DUP5 DUP3 DUP6 ADD PUSH2 0x1C48 JUMP JUMPDEST PUSH1 0xA0 DUP4 ADD MSTORE POP PUSH1 0xC0 PUSH2 0x2211 DUP5 DUP3 DUP6 ADD PUSH2 0x1C48 JUMP JUMPDEST PUSH1 0xC0 DUP4 ADD MSTORE POP PUSH1 0xE0 PUSH2 0x2225 DUP5 DUP3 DUP6 ADD PUSH2 0x282C JUMP JUMPDEST PUSH1 0xE0 DUP4 ADD MSTORE POP PUSH2 0x100 DUP3 ADD CALLDATALOAD PUSH8 0xFFFFFFFFFFFFFFFF DUP2 GT ISZERO PUSH2 0x2246 JUMPI PUSH1 0x0 DUP1 REVERT JUMPDEST PUSH2 0x2252 DUP5 DUP3 DUP6 ADD PUSH2 0x1CB1 JUMP JUMPDEST PUSH2 0x100 DUP4 ADD MSTORE POP PUSH2 0x120 DUP3 ADD CALLDATALOAD PUSH8 0xFFFFFFFFFFFFFFFF DUP2 GT ISZERO PUSH2 0x2274 JUMPI PUSH1 0x0 DUP1 REVERT JUMPDEST PUSH2 0x2280 DUP5 DUP3 DUP6 ADD PUSH2 0x1CB1 JUMP JUMPDEST PUSH2 0x120 DUP4 ADD MSTORE POP PUSH2 0x140 PUSH2 0x2296 DUP5 DUP3 DUP6 ADD PUSH2 0x1DD7 JUMP JUMPDEST PUSH2 0x140 DUP4 ADD MSTORE POP PUSH2 0x160 DUP3 ADD CALLDATALOAD PUSH8 0xFFFFFFFFFFFFFFFF DUP2 GT ISZERO PUSH2 0x22B8 JUMPI PUSH1 0x0 DUP1 REVERT JUMPDEST PUSH2 0x22C4 DUP5 DUP3 DUP6 ADD PUSH2 0x1CB1 JUMP JUMPDEST PUSH2 0x160 DUP4 ADD MSTORE POP PUSH2 0x180 PUSH2 0x22DA DUP5 DUP3 DUP6 ADD PUSH2 0x26A4 JUMP JUMPDEST PUSH2 0x180 DUP4 ADD MSTORE POP PUSH2 0x1C0 PUSH2 0x22F0 DUP5 DUP3 DUP6 ADD PUSH2 0x1E2B JUMP JUMPDEST PUSH2 0x1A0 DUP4 ADD MSTORE POP SWAP3 SWAP2 POP POP JUMP JUMPDEST PUSH1 0x0 PUSH1 0x40 DUP3 DUP5 SUB SLT ISZERO PUSH2 0x230F JUMPI PUSH1 0x0 DUP1 REVERT JUMPDEST PUSH2 0x2319 PUSH1 0x40 PUSH2 0x36BE JUMP JUMPDEST SWAP1 POP PUSH1 0x0 PUSH2 0x2329 DUP5 DUP3 DUP6 ADD PUSH2 0x1C48 JUMP JUMPDEST PUSH1 0x0 DUP4 ADD MSTORE POP PUSH1 0x20 PUSH2 0x233D DUP5 DUP3 DUP6 ADD PUSH2 0x2841 JUMP JUMPDEST PUSH1 0x20 DUP4 ADD MSTORE POP SWAP3 SWAP2 POP POP JUMP JUMPDEST PUSH1 0x0 PUSH1 0x40 DUP3 DUP5 SUB SLT ISZERO PUSH2 0x235B JUMPI PUSH1 0x0 DUP1 REVERT JUMPDEST PUSH2 0x2365 PUSH1 0x40 PUSH2 0x36BE JUMP JUMPDEST SWAP1 POP PUSH1 0x0 DUP3 ADD CALLDATALOAD PUSH8 0xFFFFFFFFFFFFFFFF DUP2 GT ISZERO PUSH2 0x2381 JUMPI PUSH1 0x0 DUP1 REVERT JUMPDEST PUSH2 0x238D DUP5 DUP3 DUP6 ADD PUSH2 0x1E55 JUMP JUMPDEST PUSH1 0x0 DUP4 ADD MSTORE POP PUSH1 0x20 PUSH2 0x23A1 DUP5 DUP3 DUP6 ADD PUSH2 0x1C48 JUMP JUMPDEST PUSH1 0x20 DUP4 ADD MSTORE POP SWAP3 SWAP2 POP POP JUMP JUMPDEST PUSH1 0x0 PUSH2 0x1C0 DUP3 DUP5 SUB SLT ISZERO PUSH2 0x23C0 JUMPI PUSH1 0x0 DUP1 REVERT JUMPDEST PUSH2 0x23CB PUSH2 0x180 PUSH2 0x36BE JUMP JUMPDEST SWAP1 POP PUSH1 0x0 PUSH2 0x23DB DUP5 DUP3 DUP6 ADD PUSH2 0x282C JUMP JUMPDEST PUSH1 0x0 DUP4 ADD MSTORE POP PUSH1 0x20 PUSH2 0x23EF DUP5 DUP3 DUP6 ADD PUSH2 0x282C JUMP JUMPDEST PUSH1 0x20 DUP4 ADD MSTORE POP PUSH1 0x40 PUSH2 0x2403 DUP5 DUP3 DUP6 ADD PUSH2 0x26A4 JUMP JUMPDEST PUSH1 0x40 DUP4 ADD MSTORE POP PUSH1 0x80 PUSH2 0x2417 DUP5 DUP3 DUP6 ADD PUSH2 0x1C48 JUMP JUMPDEST PUSH1 0x60 DUP4 ADD MSTORE POP PUSH1 0xA0 DUP3 ADD CALLDATALOAD PUSH8 0xFFFFFFFFFFFFFFFF DUP2 GT ISZERO PUSH2 0x2437 JUMPI PUSH1 0x0 DUP1 REVERT JUMPDEST PUSH2 0x2443 DUP5 DUP3 DUP6 ADD PUSH2 0x1E7F JUMP JUMPDEST PUSH1 0x80 DUP4 ADD MSTORE POP PUSH1 0xC0 PUSH2 0x2457 DUP5 DUP3 DUP6 ADD PUSH2 0x282C JUMP JUMPDEST PUSH1 0xA0 DUP4 ADD MSTORE POP PUSH1 0xE0 PUSH2 0x246B DUP5 DUP3 DUP6 ADD PUSH2 0x26F0 JUMP JUMPDEST PUSH1 0xC0 DUP4 ADD MSTORE POP PUSH2 0x120 PUSH2 0x2480 DUP5 DUP3 DUP6 ADD PUSH2 0x1DD7 JUMP JUMPDEST PUSH1 0xE0 DUP4 ADD MSTORE POP PUSH2 0x140 PUSH2 0x2495 DUP5 DUP3 DUP6 ADD PUSH2 0x2841 JUMP JUMPDEST PUSH2 0x100 DUP4 ADD MSTORE POP PUSH2 0x160 DUP3 ADD CALLDATALOAD PUSH8 0xFFFFFFFFFFFFFFFF DUP2 GT ISZERO PUSH2 0x24B7 JUMPI PUSH1 0x0 DUP1 REVERT JUMPDEST PUSH2 0x24C3 DUP5 DUP3 DUP6 ADD PUSH2 0x1D2F JUMP JUMPDEST PUSH2 0x120 DUP4 ADD MSTORE POP PUSH2 0x180 DUP3 ADD CALLDATALOAD PUSH8 0xFFFFFFFFFFFFFFFF DUP2 GT ISZERO PUSH2 0x24E5 JUMPI PUSH1 0x0 DUP1 REVERT JUMPDEST PUSH2 0x24F1 DUP5 DUP3 DUP6 ADD PUSH2 0x1D59 JUMP JUMPDEST PUSH2 0x140 DUP4 ADD MSTORE POP PUSH2 0x1A0 DUP3 ADD CALLDATALOAD PUSH8 0xFFFFFFFFFFFFFFFF DUP2 GT ISZERO PUSH2 0x2513 JUMPI PUSH1 0x0 DUP1 REVERT JUMPDEST PUSH2 0x251F DUP5 DUP3 DUP6 ADD PUSH2 0x1CDB JUMP JUMPDEST PUSH2 0x160 DUP4 ADD MSTORE POP SWAP3 SWAP2 POP POP JUMP JUMPDEST PUSH1 0x0 PUSH1 0xE0 DUP3 DUP5 SUB SLT ISZERO PUSH2 0x253E JUMPI PUSH1 0x0 DUP1 REVERT JUMPDEST PUSH2 0x2548 PUSH1 0xE0 PUSH2 0x36BE JUMP JUMPDEST SWAP1 POP PUSH1 0x0 PUSH2 0x2558 DUP5 DUP3 DUP6 ADD PUSH2 0x1E16 JUMP JUMPDEST PUSH1 0x0 DUP4 ADD MSTORE POP PUSH1 0x20 PUSH2 0x256C DUP5 DUP3 DUP6 ADD PUSH2 0x1E16 JUMP JUMPDEST PUSH1 0x20 DUP4 ADD MSTORE POP PUSH1 0x40 PUSH2 0x2580 DUP5 DUP3 DUP6 ADD PUSH2 0x1C48 JUMP JUMPDEST PUSH1 0x40 DUP4 ADD MSTORE POP PUSH1 0x60 PUSH2 0x2594 DUP5 DUP3 DUP6 ADD PUSH2 0x282C JUMP JUMPDEST PUSH1 0x60 DUP4 ADD MSTORE POP PUSH1 0x80 PUSH2 0x25A8 DUP5 DUP3 DUP6 ADD PUSH2 0x1DD7 JUMP JUMPDEST PUSH1 0x80 DUP4 ADD MSTORE POP PUSH1 0xA0 PUSH2 0x25BC DUP5 DUP3 DUP6 ADD PUSH2 0x1DD7 JUMP JUMPDEST PUSH1 0xA0 DUP4 ADD MSTORE POP PUSH1 0xC0 PUSH2 0x25D0 DUP5 DUP3 DUP6 ADD PUSH2 0x1DD7 JUMP JUMPDEST PUSH1 0xC0 DUP4 ADD MSTORE POP SWAP3 SWAP2 POP POP JUMP JUMPDEST PUSH1 0x0 PUSH2 0x140 DUP3 DUP5 SUB SLT ISZERO PUSH2 0x25EF JUMPI PUSH1 0x0 DUP1 REVERT JUMPDEST PUSH2 0x25FA PUSH2 0x100 PUSH2 0x36BE JUMP JUMPDEST SWAP1 POP PUSH1 0x0 PUSH2 0x260A DUP5 DUP3 DUP6 ADD PUSH2 0x282C JUMP JUMPDEST PUSH1 0x0 DUP4 ADD MSTORE POP PUSH1 0x20 PUSH2 0x261E DUP5 DUP3 DUP6 ADD PUSH2 0x22FD JUMP JUMPDEST PUSH1 0x20 DUP4 ADD MSTORE POP PUSH1 0x60 PUSH2 0x2632 DUP5 DUP3 DUP6 ADD PUSH2 0x282C JUMP JUMPDEST PUSH1 0x40 DUP4 ADD MSTORE POP PUSH1 0x80 PUSH2 0x2646 DUP5 DUP3 DUP6 ADD PUSH2 0x1C48 JUMP JUMPDEST PUSH1 0x60 DUP4 ADD MSTORE POP PUSH1 0xA0 PUSH2 0x265A DUP5 DUP3 DUP6 ADD PUSH2 0x2817 JUMP JUMPDEST PUSH1 0x80 DUP4 ADD MSTORE POP PUSH1 0xC0 PUSH2 0x266E DUP5 DUP3 DUP6 ADD PUSH2 0x26A4 JUMP JUMPDEST PUSH1 0xA0 DUP4 ADD MSTORE POP PUSH2 0x100 PUSH2 0x2683 DUP5 DUP3 DUP6 ADD PUSH2 0x1C48 JUMP JUMPDEST PUSH1 0xC0 DUP4 ADD MSTORE POP PUSH2 0x120 PUSH2 0x2698 DUP5 DUP3 DUP6 ADD PUSH2 0x1C48 JUMP JUMPDEST PUSH1 0xE0 DUP4 ADD MSTORE POP SWAP3 SWAP2 POP POP JUMP JUMPDEST PUSH1 0x0 PUSH1 0x40 DUP3 DUP5 SUB SLT ISZERO PUSH2 0x26B6 JUMPI PUSH1 0x0 DUP1 REVERT JUMPDEST PUSH2 0x26C0 PUSH1 0x40 PUSH2 0x36BE JUMP JUMPDEST SWAP1 POP PUSH1 0x0 PUSH2 0x26D0 DUP5 DUP3 DUP6 ADD PUSH2 0x2856 JUMP JUMPDEST PUSH1 0x0 DUP4 ADD MSTORE POP PUSH1 0x20 PUSH2 0x26E4 DUP5 DUP3 DUP6 ADD PUSH2 0x1C48 JUMP JUMPDEST PUSH1 0x20 DUP4 ADD MSTORE POP SWAP3 SWAP2 POP POP JUMP JUMPDEST PUSH1 0x0 PUSH1 0x40 DUP3 DUP5 SUB SLT ISZERO PUSH2 0x2702 JUMPI PUSH1 0x0 DUP1 REVERT JUMPDEST PUSH2 0x270C PUSH1 0x40 PUSH2 0x36BE JUMP JUMPDEST SWAP1 POP PUSH1 0x0 PUSH2 0x271C DUP5 DUP3 DUP6 ADD PUSH2 0x1DD7 JUMP JUMPDEST PUSH1 0x0 DUP4 ADD MSTORE POP PUSH1 0x20 PUSH2 0x2730 DUP5 DUP3 DUP6 ADD PUSH2 0x282C JUMP JUMPDEST PUSH1 0x20 DUP4 ADD MSTORE POP SWAP3 SWAP2 POP POP JUMP JUMPDEST PUSH1 0x0 PUSH1 0x40 DUP3 DUP5 SUB SLT ISZERO PUSH2 0x274E JUMPI PUSH1 0x0 DUP1 REVERT JUMPDEST PUSH2 0x2758 PUSH1 0x40 PUSH2 0x36BE JUMP JUMPDEST SWAP1 POP PUSH1 0x0 PUSH2 0x2768 DUP5 DUP3 DUP6 ADD PUSH2 0x1C48 JUMP JUMPDEST PUSH1 0x0 DUP4 ADD MSTORE POP PUSH1 0x20 DUP3 ADD CALLDATALOAD PUSH8 0xFFFFFFFFFFFFFFFF DUP2 GT ISZERO PUSH2 0x2788 JUMPI PUSH1 0x0 DUP1 REVERT JUMPDEST PUSH2 0x2794 DUP5 DUP3 DUP6 ADD PUSH2 0x1E7F JUMP JUMPDEST PUSH1 0x20 DUP4 ADD MSTORE POP SWAP3 SWAP2 POP POP JUMP JUMPDEST PUSH1 0x0 PUSH2 0x100 DUP3 DUP5 SUB SLT ISZERO PUSH2 0x27B3 JUMPI PUSH1 0x0 DUP1 REVERT JUMPDEST PUSH2 0x27BD PUSH1 0x40 PUSH2 0x36BE JUMP JUMPDEST SWAP1 POP PUSH1 0x0 PUSH2 0x27CD DUP5 DUP3 DUP6 ADD PUSH2 0x1C48 JUMP JUMPDEST PUSH1 0x0 DUP4 ADD MSTORE POP PUSH1 0x20 PUSH2 0x27E1 DUP5 DUP3 DUP6 ADD PUSH2 0x252C JUMP JUMPDEST PUSH1 0x20 DUP4 ADD MSTORE POP SWAP3 SWAP2 POP POP JUMP JUMPDEST PUSH1 0x0 DUP2 CALLDATALOAD SWAP1 POP PUSH2 0x27FC DUP2 PUSH2 0x3C0F JUMP JUMPDEST SWAP3 SWAP2 POP POP JUMP JUMPDEST PUSH1 0x0 DUP2 CALLDATALOAD SWAP1 POP PUSH2 0x2811 DUP2 PUSH2 0x3C26 JUMP JUMPDEST SWAP3 SWAP2 POP POP JUMP JUMPDEST PUSH1 0x0 DUP2 CALLDATALOAD SWAP1 POP PUSH2 0x2826 DUP2 PUSH2 0x3C3D JUMP JUMPDEST SWAP3 SWAP2 POP POP JUMP JUMPDEST PUSH1 0x0 DUP2 CALLDATALOAD SWAP1 POP PUSH2 0x283B DUP2 PUSH2 0x3C54 JUMP JUMPDEST SWAP3 SWAP2 POP POP JUMP JUMPDEST PUSH1 0x0 DUP2 CALLDATALOAD SWAP1 POP PUSH2 0x2850 DUP2 PUSH2 0x3C6B JUMP JUMPDEST SWAP3 SWAP2 POP POP JUMP JUMPDEST PUSH1 0x0 DUP2 CALLDATALOAD SWAP1 POP PUSH2 0x2865 DUP2 PUSH2 0x3C82 JUMP JUMPDEST SWAP3 SWAP2 POP POP JUMP JUMPDEST PUSH1 0x0 PUSH1 0x20 DUP3 DUP5 SUB SLT ISZERO PUSH2 0x287D JUMPI PUSH1 0x0 DUP1 REVERT JUMPDEST PUSH1 0x0 PUSH2 0x288B DUP5 DUP3 DUP6 ADD PUSH2 0x1C48 JUMP JUMPDEST SWAP2 POP POP SWAP3 SWAP2 POP POP JUMP JUMPDEST PUSH1 0x0 PUSH1 0x20 DUP3 DUP5 SUB SLT ISZERO PUSH2 0x28A6 JUMPI PUSH1 0x0 DUP1 REVERT JUMPDEST PUSH1 0x0 DUP3 ADD CALLDATALOAD PUSH8 0xFFFFFFFFFFFFFFFF DUP2 GT ISZERO PUSH2 0x28C0 JUMPI PUSH1 0x0 DUP1 REVERT JUMPDEST PUSH2 0x28CC DUP5 DUP3 DUP6 ADD PUSH2 0x1C5D JUMP JUMPDEST SWAP2 POP POP SWAP3 SWAP2 POP POP JUMP JUMPDEST PUSH1 0x0 PUSH1 0x20 DUP3 DUP5 SUB SLT ISZERO PUSH2 0x28E7 JUMPI PUSH1 0x0 DUP1 REVERT JUMPDEST PUSH1 0x0 DUP3 ADD CALLDATALOAD PUSH8 0xFFFFFFFFFFFFFFFF DUP2 GT ISZERO PUSH2 0x2901 JUMPI PUSH1 0x0 DUP1 REVERT JUMPDEST PUSH2 0x290D DUP5 DUP3 DUP6 ADD PUSH2 0x1C87 JUMP JUMPDEST SWAP2 POP POP SWAP3 SWAP2 POP POP JUMP JUMPDEST PUSH1 0x0 PUSH1 0x20 DUP3 DUP5 SUB SLT ISZERO PUSH2 0x2928 JUMPI PUSH1 0x0 DUP1 REVERT JUMPDEST PUSH1 0x0 DUP3 ADD CALLDATALOAD PUSH8 0xFFFFFFFFFFFFFFFF DUP2 GT ISZERO PUSH2 0x2942 JUMPI PUSH1 0x0 DUP1 REVERT JUMPDEST PUSH2 0x294E DUP5 DUP3 DUP6 ADD PUSH2 0x1CB1 JUMP JUMPDEST SWAP2 POP POP SWAP3 SWAP2 POP POP JUMP JUMPDEST PUSH1 0x0 PUSH1 0x20 DUP3 DUP5 SUB SLT ISZERO PUSH2 0x2969 JUMPI PUSH1 0x0 DUP1 REVERT JUMPDEST PUSH1 0x0 DUP3 ADD CALLDATALOAD PUSH8 0xFFFFFFFFFFFFFFFF DUP2 GT ISZERO PUSH2 0x2983 JUMPI PUSH1 0x0 DUP1 REVERT JUMPDEST PUSH2 0x298F DUP5 DUP3 DUP6 ADD PUSH2 0x1CDB JUMP JUMPDEST SWAP2 POP POP SWAP3 SWAP2 POP POP JUMP JUMPDEST PUSH1 0x0 DUP1 PUSH1 0x40 DUP4 DUP6 SUB SLT ISZERO PUSH2 0x29AB JUMPI PUSH1 0x0 DUP1 REVERT JUMPDEST PUSH1 0x0 DUP4 ADD CALLDATALOAD PUSH8 0xFFFFFFFFFFFFFFFF DUP2 GT ISZERO PUSH2 0x29C5 JUMPI PUSH1 0x0 DUP1 REVERT JUMPDEST PUSH2 0x29D1 DUP6 DUP3 DUP7 ADD PUSH2 0x1D05 JUMP JUMPDEST SWAP3 POP POP PUSH1 0x20 PUSH2 0x29E2 DUP6 DUP3 DUP7 ADD PUSH2 0x1DAD JUMP JUMPDEST SWAP2 POP POP SWAP3 POP SWAP3 SWAP1 POP JUMP JUMPDEST PUSH1 0x0 PUSH1 0x20 DUP3 DUP5 SUB SLT ISZERO PUSH2 0x29FE JUMPI PUSH1 0x0 DUP1 REVERT JUMPDEST PUSH1 0x0 DUP3 ADD CALLDATALOAD PUSH8 0xFFFFFFFFFFFFFFFF DUP2 GT ISZERO PUSH2 0x2A18 JUMPI PUSH1 0x0 DUP1 REVERT JUMPDEST PUSH2 0x2A24 DUP5 DUP3 DUP6 ADD PUSH2 0x1D2F JUMP JUMPDEST SWAP2 POP POP SWAP3 SWAP2 POP POP JUMP JUMPDEST PUSH1 0x0 PUSH1 0x20 DUP3 DUP5 SUB SLT ISZERO PUSH2 0x2A3F JUMPI PUSH1 0x0 DUP1 REVERT JUMPDEST PUSH1 0x0 DUP3 ADD CALLDATALOAD PUSH8 0xFFFFFFFFFFFFFFFF DUP2 GT ISZERO PUSH2 0x2A59 JUMPI PUSH1 0x0 DUP1 REVERT JUMPDEST PUSH2 0x2A65 DUP5 DUP3 DUP6 ADD PUSH2 0x1D59 JUMP JUMPDEST SWAP2 POP POP SWAP3 SWAP2 POP POP JUMP JUMPDEST PUSH1 0x0 PUSH1 0x20 DUP3 DUP5 SUB SLT ISZERO PUSH2 0x2A80 JUMPI PUSH1 0x0 DUP1 REVERT JUMPDEST PUSH1 0x0 DUP3 ADD CALLDATALOAD PUSH8 0xFFFFFFFFFFFFFFFF DUP2 GT ISZERO PUSH2 0x2A9A JUMPI PUSH1 0x0 DUP1 REVERT JUMPDEST PUSH2 0x2AA6 DUP5 DUP3 DUP6 ADD PUSH2 0x1D83 JUMP JUMPDEST SWAP2 POP POP SWAP3 SWAP2 POP POP JUMP JUMPDEST PUSH1 0x0 PUSH1 0x20 DUP3 DUP5 SUB SLT ISZERO PUSH2 0x2AC1 JUMPI PUSH1 0x0 DUP1 REVERT JUMPDEST PUSH1 0x0 PUSH2 0x2ACF DUP5 DUP3 DUP6 ADD PUSH2 0x1DAD JUMP JUMPDEST SWAP2 POP POP SWAP3 SWAP2 POP POP JUMP JUMPDEST PUSH1 0x0 PUSH1 0x20 DUP3 DUP5 SUB SLT ISZERO PUSH2 0x2AEA JUMPI PUSH1 0x0 DUP1 REVERT JUMPDEST PUSH1 0x0 PUSH2 0x2AF8 DUP5 DUP3 DUP6 ADD PUSH2 0x1DC2 JUMP JUMPDEST SWAP2 POP POP SWAP3 SWAP2 POP POP JUMP JUMPDEST PUSH1 0x0 PUSH1 0x20 DUP3 DUP5 SUB SLT ISZERO PUSH2 0x2B13 JUMPI PUSH1 0x0 DUP1 REVERT JUMPDEST PUSH1 0x0 PUSH2 0x2B21 DUP5 DUP3 DUP6 ADD PUSH2 0x1DD7 JUMP JUMPDEST SWAP2 POP POP SWAP3 SWAP2 POP POP JUMP JUMPDEST PUSH1 0x0 PUSH1 0x20 DUP3 DUP5 SUB SLT ISZERO PUSH2 0x2B3C JUMPI PUSH1 0x0 DUP1 REVERT JUMPDEST PUSH1 0x0 DUP3 ADD CALLDATALOAD PUSH8 0xFFFFFFFFFFFFFFFF DUP2 GT ISZERO PUSH2 0x2B56 JUMPI PUSH1 0x0 DUP1 REVERT JUMPDEST PUSH2 0x2B62 DUP5 DUP3 DUP6 ADD PUSH2 0x1DEC JUMP JUMPDEST SWAP2 POP POP SWAP3 SWAP2 POP POP JUMP JUMPDEST PUSH1 0x0 PUSH1 0x20 DUP3 DUP5 SUB SLT ISZERO PUSH2 0x2B7D JUMPI PUSH1 0x0 DUP1 REVERT JUMPDEST PUSH1 0x0 PUSH2 0x2B8B DUP5 DUP3 DUP6 ADD PUSH2 0x1E16 JUMP JUMPDEST SWAP2 POP POP SWAP3 SWAP2 POP POP JUMP JUMPDEST PUSH1 0x0 PUSH1 0x20 DUP3 DUP5 SUB SLT ISZERO PUSH2 0x2BA6 JUMPI PUSH1 0x0 DUP1 REVERT JUMPDEST PUSH1 0x0 PUSH2 0x2BB4 DUP5 DUP3 DUP6 ADD PUSH2 0x1E2B JUMP JUMPDEST SWAP2 POP POP SWAP3 SWAP2 POP POP JUMP JUMPDEST PUSH1 0x0 PUSH1 0x20 DUP3 DUP5 SUB SLT ISZERO PUSH2 0x2BCF JUMPI PUSH1 0x0 DUP1 REVERT JUMPDEST PUSH1 0x0 PUSH2 0x2BDD DUP5 DUP3 DUP6 ADD PUSH2 0x1E40 JUMP JUMPDEST SWAP2 POP POP SWAP3 SWAP2 POP POP JUMP JUMPDEST PUSH1 0x0 PUSH1 0x20 DUP3 DUP5 SUB SLT ISZERO PUSH2 0x2BF8 JUMPI PUSH1 0x0 DUP1 REVERT JUMPDEST PUSH1 0x0 DUP3 ADD CALLDATALOAD PUSH8 0xFFFFFFFFFFFFFFFF DUP2 GT ISZERO PUSH2 0x2C12 JUMPI PUSH1 0x0 DUP1 REVERT JUMPDEST PUSH2 0x2C1E DUP5 DUP3 DUP6 ADD PUSH2 0x1E55 JUMP JUMPDEST SWAP2 POP POP SWAP3 SWAP2 POP POP JUMP JUMPDEST PUSH1 0x0 DUP1 PUSH1 0x0 DUP1 PUSH1 0x0 PUSH1 0xA0 DUP7 DUP9 SUB SLT ISZERO PUSH2 0x2C3F JUMPI PUSH1 0x0 DUP1 REVERT JUMPDEST PUSH1 0x0 DUP7 ADD CALLDATALOAD PUSH8 0xFFFFFFFFFFFFFFFF DUP2 GT ISZERO PUSH2 0x2C59 JUMPI PUSH1 0x0 DUP1 REVERT JUMPDEST PUSH2 0x2C65 DUP9 DUP3 DUP10 ADD PUSH2 0x1E55 JUMP JUMPDEST SWAP6 POP POP PUSH1 0x20 PUSH2 0x2C76 DUP9 DUP3 DUP10 ADD PUSH2 0x1C48 JUMP JUMPDEST SWAP5 POP POP PUSH1 0x40 PUSH2 0x2C87 DUP9 DUP3 DUP10 ADD PUSH2 0x1E40 JUMP JUMPDEST SWAP4 POP POP PUSH1 0x60 PUSH2 0x2C98 DUP9 DUP3 DUP10 ADD PUSH2 0x1C48 JUMP JUMPDEST SWAP3 POP POP PUSH1 0x80 DUP7 ADD CALLDATALOAD PUSH8 0xFFFFFFFFFFFFFFFF DUP2 GT ISZERO PUSH2 0x2CB5 JUMPI PUSH1 0x0 DUP1 REVERT JUMPDEST PUSH2 0x2CC1 DUP9 DUP3 DUP10 ADD PUSH2 0x1DEC JUMP JUMPDEST SWAP2 POP POP SWAP3 SWAP6 POP SWAP3 SWAP6 SWAP1 SWAP4 POP JUMP JUMPDEST PUSH1 0x0 PUSH1 0x20 DUP3 DUP5 SUB SLT ISZERO PUSH2 0x2CE0 JUMPI PUSH1 0x0 DUP1 REVERT JUMPDEST PUSH1 0x0 DUP3 ADD CALLDATALOAD PUSH8 0xFFFFFFFFFFFFFFFF DUP2 GT ISZERO PUSH2 0x2CFA JUMPI PUSH1 0x0 DUP1 REVERT JUMPDEST PUSH2 0x2D06 DUP5 DUP3 DUP6 ADD PUSH2 0x1E7F JUMP JUMPDEST SWAP2 POP POP SWAP3 SWAP2 POP POP JUMP JUMPDEST PUSH1 0x0 PUSH1 0x20 DUP3 DUP5 SUB SLT ISZERO PUSH2 0x2D21 JUMPI PUSH1 0x0 DUP1 REVERT JUMPDEST PUSH1 0x0 DUP3 ADD CALLDATALOAD PUSH8 0xFFFFFFFFFFFFFFFF DUP2 GT ISZERO PUSH2 0x2D3B JUMPI PUSH1 0x0 DUP1 REVERT JUMPDEST PUSH2 0x2D47 DUP5 DUP3 DUP6 ADD PUSH2 0x216B JUMP JUMPDEST SWAP2 POP POP SWAP3 SWAP2 POP POP JUMP JUMPDEST PUSH1 0x0 PUSH1 0x40 DUP3 DUP5 SUB SLT ISZERO PUSH2 0x2D62 JUMPI PUSH1 0x0 DUP1 REVERT JUMPDEST PUSH1 0x0 PUSH2 0x2D70 DUP5 DUP3 DUP6 ADD PUSH2 0x22FD JUMP JUMPDEST SWAP2 POP POP SWAP3 SWAP2 POP POP JUMP JUMPDEST PUSH1 0x0 PUSH1 0x20 DUP3 DUP5 SUB SLT ISZERO PUSH2 0x2D8B JUMPI PUSH1 0x0 DUP1 REVERT JUMPDEST PUSH1 0x0 DUP3 ADD CALLDATALOAD PUSH8 0xFFFFFFFFFFFFFFFF DUP2 GT ISZERO PUSH2 0x2DA5 JUMPI PUSH1 0x0 DUP1 REVERT JUMPDEST PUSH2 0x2DB1 DUP5 DUP3 DUP6 ADD PUSH2 0x2349 JUMP JUMPDEST SWAP2 POP POP SWAP3 SWAP2 POP POP JUMP JUMPDEST PUSH1 0x0 PUSH1 0x20 DUP3 DUP5 SUB SLT ISZERO PUSH2 0x2DCC JUMPI PUSH1 0x0 DUP1 REVERT JUMPDEST PUSH1 0x0 DUP3 ADD CALLDATALOAD PUSH8 0xFFFFFFFFFFFFFFFF DUP2 GT ISZERO PUSH2 0x2DE6 JUMPI PUSH1 0x0 DUP1 REVERT JUMPDEST PUSH2 0x2DF2 DUP5 DUP3 DUP6 ADD PUSH2 0x23AD JUMP JUMPDEST SWAP2 POP POP SWAP3 SWAP2 POP POP JUMP JUMPDEST PUSH1 0x0 PUSH1 0xE0 DUP3 DUP5 SUB SLT ISZERO PUSH2 0x2E0D JUMPI PUSH1 0x0 DUP1 REVERT JUMPDEST PUSH1 0x0 PUSH2 0x2E1B DUP5 DUP3 DUP6 ADD PUSH2 0x252C JUMP JUMPDEST SWAP2 POP POP SWAP3 SWAP2 POP POP JUMP JUMPDEST PUSH1 0x0 PUSH2 0x140 DUP3 DUP5 SUB SLT ISZERO PUSH2 0x2E37 JUMPI PUSH1 0x0 DUP1 REVERT JUMPDEST PUSH1 0x0 PUSH2 0x2E45 DUP5 DUP3 DUP6 ADD PUSH2 0x25DC JUMP JUMPDEST SWAP2 POP POP SWAP3 SWAP2 POP POP JUMP JUMPDEST PUSH1 0x0 PUSH1 0x40 DUP3 DUP5 SUB SLT ISZERO PUSH2 0x2E60 JUMPI PUSH1 0x0 DUP1 REVERT JUMPDEST PUSH1 0x0 PUSH2 0x2E6E DUP5 DUP3 DUP6 ADD PUSH2 0x26A4 JUMP JUMPDEST SWAP2 POP POP SWAP3 SWAP2 POP POP JUMP JUMPDEST PUSH1 0x0 PUSH1 0x40 DUP3 DUP5 SUB SLT ISZERO PUSH2 0x2E89 JUMPI PUSH1 0x0 DUP1 REVERT JUMPDEST PUSH1 0x0 PUSH2 0x2E97 DUP5 DUP3 DUP6 ADD PUSH2 0x26F0 JUMP JUMPDEST SWAP2 POP POP SWAP3 SWAP2 POP POP JUMP JUMPDEST PUSH1 0x0 PUSH1 0x20 DUP3 DUP5 SUB SLT ISZERO PUSH2 0x2EB2 JUMPI PUSH1 0x0 DUP1 REVERT JUMPDEST PUSH1 0x0 DUP3 ADD CALLDATALOAD PUSH8 0xFFFFFFFFFFFFFFFF DUP2 GT ISZERO PUSH2 0x2ECC JUMPI PUSH1 0x0 DUP1 REVERT JUMPDEST PUSH2 0x2ED8 DUP5 DUP3 DUP6 ADD PUSH2 0x273C JUMP JUMPDEST SWAP2 POP POP SWAP3 SWAP2 POP POP JUMP JUMPDEST PUSH1 0x0 PUSH2 0x100 DUP3 DUP5 SUB SLT ISZERO PUSH2 0x2EF4 JUMPI PUSH1 0x0 DUP1 REVERT JUMPDEST PUSH1 0x0 PUSH2 0x2F02 DUP5 DUP3 DUP6 ADD PUSH2 0x27A0 JUMP JUMPDEST SWAP2 POP POP SWAP3 SWAP2 POP POP JUMP JUMPDEST PUSH1 0x0 PUSH1 0x20 DUP3 DUP5 SUB SLT ISZERO PUSH2 0x2F1D JUMPI PUSH1 0x0 DUP1 REVERT JUMPDEST PUSH1 0x0 PUSH2 0x2F2B DUP5 DUP3 DUP6 ADD PUSH2 0x27ED JUMP JUMPDEST SWAP2 POP POP SWAP3 SWAP2 POP POP JUMP JUMPDEST PUSH1 0x0 PUSH1 0x20 DUP3 DUP5 SUB SLT ISZERO PUSH2 0x2F46 JUMPI PUSH1 0x0 DUP1 REVERT JUMPDEST PUSH1 0x0 PUSH2 0x2F54 DUP5 DUP3 DUP6 ADD PUSH2 0x2817 JUMP JUMPDEST SWAP2 POP POP SWAP3 SWAP2 POP POP JUMP JUMPDEST PUSH1 0x0 PUSH1 0x20 DUP3 DUP5 SUB SLT ISZERO PUSH2 0x2F6F JUMPI PUSH1 0x0 DUP1 REVERT JUMPDEST PUSH1 0x0 PUSH2 0x2F7D DUP5 DUP3 DUP6 ADD PUSH2 0x282C JUMP JUMPDEST SWAP2 POP POP SWAP3 SWAP2 POP POP JUMP JUMPDEST PUSH1 0x0 PUSH1 0x20 DUP3 DUP5 SUB SLT ISZERO PUSH2 0x2F98 JUMPI PUSH1 0x0 DUP1 REVERT JUMPDEST PUSH1 0x0 PUSH2 0x2FA6 DUP5 DUP3 DUP6 ADD PUSH2 0x2841 JUMP JUMPDEST SWAP2 POP POP SWAP3 SWAP2 POP POP JUMP JUMPDEST PUSH1 0x0 PUSH1 0x20 DUP3 DUP5 SUB SLT ISZERO PUSH2 0x2FC1 JUMPI PUSH1 0x0 DUP1 REVERT JUMPDEST PUSH1 0x0 PUSH2 0x2FCF DUP5 DUP3 DUP6 ADD PUSH2 0x2856 JUMP JUMPDEST SWAP2 POP POP SWAP3 SWAP2 POP POP JUMP JUMPDEST PUSH2 0x2FE9 PUSH2 0x2FE4 DUP3 PUSH2 0x38EC JUMP JUMPDEST PUSH2 0x3A3E JUMP JUMPDEST DUP3 MSTORE POP POP JUMP JUMPDEST PUSH2 0x3000 PUSH2 0x2FFB DUP3 PUSH2 0x38FE JUMP JUMPDEST PUSH2 0x3A50 JUMP JUMPDEST DUP3 MSTORE POP POP JUMP JUMPDEST PUSH2 0x3017 PUSH2 0x3012 DUP3 PUSH2 0x390A JUMP JUMPDEST PUSH2 0x3A62 JUMP JUMPDEST DUP3 MSTORE POP POP JUMP JUMPDEST PUSH2 0x302E PUSH2 0x3029 DUP3 PUSH2 0x3936 JUMP JUMPDEST PUSH2 0x3A6C JUMP JUMPDEST DUP3 MSTORE POP POP JUMP JUMPDEST PUSH2 0x3045 PUSH2 0x3040 DUP3 PUSH2 0x3962 JUMP JUMPDEST PUSH2 0x3A76 JUMP JUMPDEST DUP3 MSTORE POP POP JUMP JUMPDEST PUSH1 0x0 PUSH2 0x3056 DUP3 PUSH2 0x38AF JUMP JUMPDEST PUSH2 0x3060 DUP2 DUP6 PUSH2 0x38C5 JUMP JUMPDEST SWAP4 POP PUSH2 0x3070 DUP2 DUP6 PUSH1 0x20 DUP7 ADD PUSH2 0x3A0B JUMP JUMPDEST PUSH2 0x3079 DUP2 PUSH2 0x3B1C JUMP JUMPDEST DUP5 ADD SWAP2 POP POP SWAP3 SWAP2 POP POP JUMP JUMPDEST PUSH1 0x0 PUSH2 0x308F DUP3 PUSH2 0x38AF JUMP JUMPDEST PUSH2 0x3099 DUP2 DUP6 PUSH2 0x38D6 JUMP JUMPDEST SWAP4 POP PUSH2 0x30A9 DUP2 DUP6 PUSH1 0x20 DUP7 ADD PUSH2 0x3A0B JUMP JUMPDEST DUP1 DUP5 ADD SWAP2 POP POP SWAP3 SWAP2 POP POP JUMP JUMPDEST PUSH2 0x30C6 PUSH2 0x30C1 DUP3 PUSH2 0x396C JUMP JUMPDEST PUSH2 0x3A80 JUMP JUMPDEST DUP3 MSTORE POP POP JUMP JUMPDEST PUSH2 0x30DD PUSH2 0x30D8 DUP3 PUSH2 0x3979 JUMP JUMPDEST PUSH2 0x3A92 JUMP JUMPDEST DUP3 MSTORE POP POP JUMP JUMPDEST PUSH2 0x30F4 PUSH2 0x30EF DUP3 PUSH2 0x3986 JUMP JUMPDEST PUSH2 0x3AA4 JUMP JUMPDEST DUP3 MSTORE POP POP JUMP JUMPDEST PUSH1 0x0 PUSH2 0x3105 DUP3 PUSH2 0x38BA JUMP JUMPDEST PUSH2 0x310F DUP2 DUP6 PUSH2 0x38E1 JUMP JUMPDEST SWAP4 POP PUSH2 0x311F DUP2 DUP6 PUSH1 0x20 DUP7 ADD PUSH2 0x3A0B JUMP JUMPDEST DUP1 DUP5 ADD SWAP2 POP POP SWAP3 SWAP2 POP POP JUMP JUMPDEST PUSH2 0x313C PUSH2 0x3137 DUP3 PUSH2 0x39A1 JUMP JUMPDEST PUSH2 0x3AC8 JUMP JUMPDEST DUP3 MSTORE POP POP JUMP JUMPDEST PUSH2 0x3153 PUSH2 0x314E DUP3 PUSH2 0x3993 JUMP JUMPDEST PUSH2 0x3AB6 JUMP JUMPDEST DUP3 MSTORE POP POP JUMP JUMPDEST PUSH2 0x316A PUSH2 0x3165 DUP3 PUSH2 0x39C1 JUMP JUMPDEST PUSH2 0x3ADA JUMP JUMPDEST DUP3 MSTORE POP POP JUMP JUMPDEST PUSH2 0x3181 PUSH2 0x317C DUP3 PUSH2 0x39CB JUMP JUMPDEST PUSH2 0x3AE4 JUMP JUMPDEST DUP3 MSTORE POP POP JUMP JUMPDEST PUSH2 0x3198 PUSH2 0x3193 DUP3 PUSH2 0x39DB JUMP JUMPDEST PUSH2 0x3AF6 JUMP JUMPDEST DUP3 MSTORE POP POP JUMP JUMPDEST PUSH2 0x31AF PUSH2 0x31AA DUP3 PUSH2 0x39EF JUMP JUMPDEST PUSH2 0x3B08 JUMP JUMPDEST DUP3 MSTORE POP POP JUMP JUMPDEST PUSH1 0x0 PUSH2 0x31C1 DUP3 DUP5 PUSH2 0x2FD8 JUMP JUMPDEST PUSH1 0x14 DUP3 ADD SWAP2 POP DUP2 SWAP1 POP SWAP3 SWAP2 POP POP JUMP JUMPDEST PUSH1 0x0 PUSH2 0x31DC DUP3 DUP5 PUSH2 0x2FEF JUMP JUMPDEST PUSH1 0x1 DUP3 ADD SWAP2 POP DUP2 SWAP1 POP SWAP3 SWAP2 POP POP JUMP JUMPDEST PUSH1 0x0 PUSH2 0x31F7 DUP3 DUP5 PUSH2 0x301D JUMP JUMPDEST PUSH1 0x14 DUP3 ADD SWAP2 POP DUP2 SWAP1 POP SWAP3 SWAP2 POP POP JUMP JUMPDEST PUSH1 0x0 PUSH2 0x3212 DUP3 DUP5 PUSH2 0x3034 JUMP JUMPDEST PUSH1 0x20 DUP3 ADD SWAP2 POP DUP2 SWAP1 POP SWAP3 SWAP2 POP POP JUMP JUMPDEST PUSH1 0x0 PUSH2 0x322D DUP3 DUP6 PUSH2 0x3084 JUMP JUMPDEST SWAP2 POP PUSH2 0x3239 DUP3 DUP5 PUSH2 0x3006 JUMP JUMPDEST PUSH1 0x1 DUP3 ADD SWAP2 POP DUP2 SWAP1 POP SWAP4 SWAP3 POP POP POP JUMP JUMPDEST PUSH1 0x0 PUSH2 0x3255 DUP3 DUP6 PUSH2 0x3084 JUMP JUMPDEST SWAP2 POP PUSH2 0x3261 DUP3 DUP5 PUSH2 0x3084 JUMP JUMPDEST SWAP2 POP DUP2 SWAP1 POP SWAP4 SWAP3 POP POP POP JUMP JUMPDEST PUSH1 0x0 PUSH2 0x3279 DUP3 DUP7 PUSH2 0x3084 JUMP JUMPDEST SWAP2 POP PUSH2 0x3285 DUP3 DUP6 PUSH2 0x3084 JUMP JUMPDEST SWAP2 POP PUSH2 0x3291 DUP3 DUP5 PUSH2 0x3084 JUMP JUMPDEST SWAP2 POP DUP2 SWAP1 POP SWAP5 SWAP4 POP POP POP POP JUMP JUMPDEST PUSH1 0x0 PUSH2 0x32AA DUP3 DUP9 PUSH2 0x3084 JUMP JUMPDEST SWAP2 POP PUSH2 0x32B6 DUP3 DUP8 PUSH2 0x3084 JUMP JUMPDEST SWAP2 POP PUSH2 0x32C2 DUP3 DUP7 PUSH2 0x3084 JUMP JUMPDEST SWAP2 POP PUSH2 0x32CE DUP3 DUP6 PUSH2 0x3084 JUMP JUMPDEST SWAP2 POP PUSH2 0x32DA DUP3 DUP5 PUSH2 0x3084 JUMP JUMPDEST SWAP2 POP DUP2 SWAP1 POP SWAP7 SWAP6 POP POP POP POP POP POP JUMP JUMPDEST PUSH1 0x0 PUSH2 0x32F5 DUP3 DUP10 PUSH2 0x3084 JUMP JUMPDEST SWAP2 POP PUSH2 0x3301 DUP3 DUP9 PUSH2 0x3084 JUMP JUMPDEST SWAP2 POP PUSH2 0x330D DUP3 DUP8 PUSH2 0x3084 JUMP JUMPDEST SWAP2 POP PUSH2 0x3319 DUP3 DUP7 PUSH2 0x3084 JUMP JUMPDEST SWAP2 POP PUSH2 0x3325 DUP3 DUP6 PUSH2 0x3084 JUMP JUMPDEST SWAP2 POP PUSH2 0x3331 DUP3 DUP5 PUSH2 0x3084 JUMP JUMPDEST SWAP2 POP DUP2 SWAP1 POP SWAP8 SWAP7 POP POP POP POP POP POP POP JUMP JUMPDEST PUSH1 0x0 PUSH2 0x334D DUP3 DUP11 PUSH2 0x3084 JUMP JUMPDEST SWAP2 POP PUSH2 0x3359 DUP3 DUP10 PUSH2 0x3084 JUMP JUMPDEST SWAP2 POP PUSH2 0x3365 DUP3 DUP9 PUSH2 0x3084 JUMP JUMPDEST SWAP2 POP PUSH2 0x3371 DUP3 DUP8 PUSH2 0x3084 JUMP JUMPDEST SWAP2 POP PUSH2 0x337D DUP3 DUP7 PUSH2 0x3084 JUMP JUMPDEST SWAP2 POP PUSH2 0x3389 DUP3 DUP6 PUSH2 0x3084 JUMP JUMPDEST SWAP2 POP PUSH2 0x3395 DUP3 DUP5 PUSH2 0x3084 JUMP JUMPDEST SWAP2 POP DUP2 SWAP1 POP SWAP9 SWAP8 POP POP POP POP POP POP POP POP JUMP JUMPDEST PUSH1 0x0 PUSH2 0x33B2 DUP3 DUP12 PUSH2 0x3084 JUMP JUMPDEST SWAP2 POP PUSH2 0x33BE DUP3 DUP11 PUSH2 0x3084 JUMP JUMPDEST SWAP2 POP PUSH2 0x33CA DUP3 DUP10 PUSH2 0x3084 JUMP JUMPDEST SWAP2 POP PUSH2 0x33D6 DUP3 DUP9 PUSH2 0x3084 JUMP JUMPDEST SWAP2 POP PUSH2 0x33E2 DUP3 DUP8 PUSH2 0x3084 JUMP JUMPDEST SWAP2 POP PUSH2 0x33EE DUP3 DUP7 PUSH2 0x3084 JUMP JUMPDEST SWAP2 POP PUSH2 0x33FA DUP3 DUP6 PUSH2 0x3084 JUMP JUMPDEST SWAP2 POP PUSH2 0x3406 DUP3 DUP5 PUSH2 0x3006 JUMP JUMPDEST PUSH1 0x1 DUP3 ADD SWAP2 POP DUP2 SWAP1 POP SWAP10 SWAP9 POP POP POP POP POP POP POP POP POP JUMP JUMPDEST PUSH1 0x0 PUSH2 0x3428 DUP3 DUP16 PUSH2 0x3084 JUMP JUMPDEST SWAP2 POP PUSH2 0x3434 DUP3 DUP15 PUSH2 0x3084 JUMP JUMPDEST SWAP2 POP PUSH2 0x3440 DUP3 DUP14 PUSH2 0x3084 JUMP JUMPDEST SWAP2 POP PUSH2 0x344C DUP3 DUP13 PUSH2 0x3084 JUMP JUMPDEST SWAP2 POP PUSH2 0x3458 DUP3 DUP12 PUSH2 0x3084 JUMP JUMPDEST SWAP2 POP PUSH2 0x3464 DUP3 DUP11 PUSH2 0x3084 JUMP JUMPDEST SWAP2 POP PUSH2 0x3470 DUP3 DUP10 PUSH2 0x3084 JUMP JUMPDEST SWAP2 POP PUSH2 0x347C DUP3 DUP9 PUSH2 0x3084 JUMP JUMPDEST SWAP2 POP PUSH2 0x3488 DUP3 DUP8 PUSH2 0x3084 JUMP JUMPDEST SWAP2 POP PUSH2 0x3494 DUP3 DUP7 PUSH2 0x3084 JUMP JUMPDEST SWAP2 POP PUSH2 0x34A0 DUP3 DUP6 PUSH2 0x3084 JUMP JUMPDEST SWAP2 POP PUSH2 0x34AC DUP3 DUP5 PUSH2 0x3084 JUMP JUMPDEST SWAP2 POP DUP2 SWAP1 POP SWAP14 SWAP13 POP POP POP POP POP POP POP POP POP POP POP POP POP JUMP JUMPDEST PUSH1 0x0 PUSH2 0x34CE DUP3 DUP6 PUSH2 0x3084 JUMP JUMPDEST SWAP2 POP PUSH2 0x34DA DUP3 DUP5 PUSH2 0x30CC JUMP JUMPDEST PUSH1 0x4 DUP3 ADD SWAP2 POP DUP2 SWAP1 POP SWAP4 SWAP3 POP POP POP JUMP JUMPDEST PUSH1 0x0 PUSH2 0x34F6 DUP3 DUP5 PUSH2 0x30B5 JUMP JUMPDEST PUSH1 0x2 DUP3 ADD SWAP2 POP DUP2 SWAP1 POP SWAP3 SWAP2 POP POP JUMP JUMPDEST PUSH1 0x0 PUSH2 0x3511 DUP3 DUP5 PUSH2 0x30CC JUMP JUMPDEST PUSH1 0x4 DUP3 ADD SWAP2 POP DUP2 SWAP1 POP SWAP3 SWAP2 POP POP JUMP JUMPDEST PUSH1 0x0 PUSH2 0x352C DUP3 DUP5 PUSH2 0x30E3 JUMP JUMPDEST PUSH1 0x8 DUP3 ADD SWAP2 POP DUP2 SWAP1 POP SWAP3 SWAP2 POP POP JUMP JUMPDEST PUSH1 0x0 PUSH2 0x3547 DUP3 DUP5 PUSH2 0x30FA JUMP JUMPDEST SWAP2 POP DUP2 SWAP1 POP SWAP3 SWAP2 POP POP JUMP JUMPDEST PUSH1 0x0 PUSH2 0x355E DUP3 DUP6 PUSH2 0x30FA JUMP JUMPDEST SWAP2 POP PUSH2 0x356A DUP3 DUP5 PUSH2 0x3084 JUMP JUMPDEST SWAP2 POP DUP2 SWAP1 POP SWAP4 SWAP3 POP POP POP JUMP JUMPDEST PUSH1 0x0 PUSH2 0x3582 DUP3 DUP5 PUSH2 0x312B JUMP JUMPDEST PUSH1 0x14 DUP3 ADD SWAP2 POP DUP2 SWAP1 POP SWAP3 SWAP2 POP POP JUMP JUMPDEST PUSH1 0x0 PUSH2 0x359D DUP3 DUP5 PUSH2 0x3142 JUMP JUMPDEST PUSH1 0x2 DUP3 ADD SWAP2 POP DUP2 SWAP1 POP SWAP3 SWAP2 POP POP JUMP JUMPDEST PUSH1 0x0 PUSH2 0x35B8 DUP3 DUP5 PUSH2 0x3159 JUMP JUMPDEST PUSH1 0x20 DUP3 ADD SWAP2 POP DUP2 SWAP1 POP SWAP3 SWAP2 POP POP JUMP JUMPDEST PUSH1 0x0 PUSH2 0x35D3 DUP3 DUP5 PUSH2 0x3170 JUMP JUMPDEST PUSH1 0x4 DUP3 ADD SWAP2 POP DUP2 SWAP1 POP SWAP3 SWAP2 POP POP JUMP JUMPDEST PUSH1 0x0 PUSH2 0x35EE DUP3 DUP5 PUSH2 0x3187 JUMP JUMPDEST PUSH1 0x8 DUP3 ADD SWAP2 POP DUP2 SWAP1 POP SWAP3 SWAP2 POP POP JUMP JUMPDEST PUSH1 0x0 PUSH2 0x3609 DUP3 DUP5 PUSH2 0x319E JUMP JUMPDEST PUSH1 0x1 DUP3 ADD SWAP2 POP DUP2 SWAP1 POP SWAP3 SWAP2 POP POP JUMP JUMPDEST PUSH1 0x0 PUSH2 0x3624 DUP3 DUP6 PUSH2 0x319E JUMP JUMPDEST PUSH1 0x1 DUP3 ADD SWAP2 POP PUSH2 0x3634 DUP3 DUP5 PUSH2 0x3142 JUMP JUMPDEST PUSH1 0x2 DUP3 ADD SWAP2 POP DUP2 SWAP1 POP SWAP4 SWAP3 POP POP POP JUMP JUMPDEST PUSH1 0x0 PUSH2 0x3650 DUP3 DUP6 PUSH2 0x319E JUMP JUMPDEST PUSH1 0x1 DUP3 ADD SWAP2 POP PUSH2 0x3660 DUP3 DUP5 PUSH2 0x3170 JUMP JUMPDEST PUSH1 0x4 DUP3 ADD SWAP2 POP DUP2 SWAP1 POP SWAP4 SWAP3 POP POP POP JUMP JUMPDEST PUSH1 0x0 PUSH2 0x367C DUP3 DUP6 PUSH2 0x319E JUMP JUMPDEST PUSH1 0x1 DUP3 ADD SWAP2 POP PUSH2 0x368C DUP3 DUP5 PUSH2 0x3187 JUMP JUMPDEST PUSH1 0x8 DUP3 ADD SWAP2 POP DUP2 SWAP1 POP SWAP4 SWAP3 POP POP POP JUMP JUMPDEST PUSH1 0x0 PUSH1 0x20 DUP3 ADD SWAP1 POP DUP2 DUP2 SUB PUSH1 0x0 DUP4 ADD MSTORE PUSH2 0x36B6 DUP2 DUP5 PUSH2 0x304B JUMP JUMPDEST SWAP1 POP SWAP3 SWAP2 POP POP JUMP JUMPDEST PUSH1 0x0 PUSH1 0x40 MLOAD SWAP1 POP DUP2 DUP2 ADD DUP2 DUP2 LT PUSH8 0xFFFFFFFFFFFFFFFF DUP3 GT OR ISZERO PUSH2 0x36E5 JUMPI PUSH2 0x36E4 PUSH2 0x3B1A JUMP JUMPDEST JUMPDEST DUP1 PUSH1 0x40 MSTORE POP SWAP2 SWAP1 POP JUMP JUMPDEST PUSH1 0x0 PUSH8 0xFFFFFFFFFFFFFFFF DUP3 GT ISZERO PUSH2 0x370A JUMPI PUSH2 0x3709 PUSH2 0x3B1A JUMP JUMPDEST JUMPDEST PUSH1 0x20 DUP3 MUL SWAP1 POP PUSH1 0x20 DUP2 ADD SWAP1 POP SWAP2 SWAP1 POP JUMP JUMPDEST PUSH1 0x0 PUSH8 0xFFFFFFFFFFFFFFFF DUP3 GT ISZERO PUSH2 0x3736 JUMPI PUSH2 0x3735 PUSH2 0x3B1A JUMP JUMPDEST JUMPDEST PUSH1 0x20 DUP3 MUL SWAP1 POP PUSH1 0x20 DUP2 ADD SWAP1 POP SWAP2 SWAP1 POP JUMP JUMPDEST PUSH1 0x0 PUSH8 0xFFFFFFFFFFFFFFFF DUP3 GT ISZERO PUSH2 0x3762 JUMPI PUSH2 0x3761 PUSH2 0x3B1A JUMP JUMPDEST JUMPDEST PUSH1 0x20 DUP3 MUL SWAP1 POP PUSH1 0x20 DUP2 ADD SWAP1 POP SWAP2 SWAP1 POP JUMP JUMPDEST PUSH1 0x0 PUSH8 0xFFFFFFFFFFFFFFFF DUP3 GT ISZERO PUSH2 0x378E JUMPI PUSH2 0x378D PUSH2 0x3B1A JUMP JUMPDEST JUMPDEST PUSH1 0x20 DUP3 MUL SWAP1 POP PUSH1 0x20 DUP2 ADD SWAP1 POP SWAP2 SWAP1 POP JUMP JUMPDEST PUSH1 0x0 PUSH8 0xFFFFFFFFFFFFFFFF DUP3 GT ISZERO PUSH2 0x37BA JUMPI PUSH2 0x37B9 PUSH2 0x3B1A JUMP JUMPDEST JUMPDEST PUSH1 0x20 DUP3 MUL SWAP1 POP PUSH1 0x20 DUP2 ADD SWAP1 POP SWAP2 SWAP1 POP JUMP JUMPDEST PUSH1 0x0 PUSH8 0xFFFFFFFFFFFFFFFF DUP3 GT ISZERO PUSH2 0x37E6 JUMPI PUSH2 0x37E5 PUSH2 0x3B1A JUMP JUMPDEST JUMPDEST PUSH1 0x20 DUP3 MUL SWAP1 POP PUSH1 0x20 DUP2 ADD SWAP1 POP SWAP2 SWAP1 POP JUMP JUMPDEST PUSH1 0x0 PUSH8 0xFFFFFFFFFFFFFFFF DUP3 GT ISZERO PUSH2 0x3812 JUMPI PUSH2 0x3811 PUSH2 0x3B1A JUMP JUMPDEST JUMPDEST PUSH1 0x20 DUP3 MUL SWAP1 POP PUSH1 0x20 DUP2 ADD SWAP1 POP SWAP2 SWAP1 POP JUMP JUMPDEST PUSH1 0x0 PUSH8 0xFFFFFFFFFFFFFFFF DUP3 GT ISZERO PUSH2 0x383E JUMPI PUSH2 0x383D PUSH2 0x3B1A JUMP JUMPDEST JUMPDEST PUSH1 0x20 DUP3 MUL SWAP1 POP PUSH1 0x20 DUP2 ADD SWAP1 POP SWAP2 SWAP1 POP JUMP JUMPDEST PUSH1 0x0 PUSH8 0xFFFFFFFFFFFFFFFF DUP3 GT ISZERO PUSH2 0x386A JUMPI PUSH2 0x3869 PUSH2 0x3B1A JUMP JUMPDEST JUMPDEST PUSH1 0x1F NOT PUSH1 0x1F DUP4 ADD AND SWAP1 POP PUSH1 0x20 DUP2 ADD SWAP1 POP SWAP2 SWAP1 POP JUMP JUMPDEST PUSH1 0x0 PUSH8 0xFFFFFFFFFFFFFFFF DUP3 GT ISZERO PUSH2 0x389A JUMPI PUSH2 0x3899 PUSH2 0x3B1A JUMP JUMPDEST JUMPDEST PUSH1 0x1F NOT PUSH1 0x1F DUP4 ADD AND SWAP1 POP PUSH1 0x20 DUP2 ADD SWAP1 POP SWAP2 SWAP1 POP JUMP JUMPDEST PUSH1 0x0 DUP2 MLOAD SWAP1 POP SWAP2 SWAP1 POP JUMP JUMPDEST PUSH1 0x0 DUP2 MLOAD SWAP1 POP SWAP2 SWAP1 POP JUMP JUMPDEST PUSH1 0x0 DUP3 DUP3 MSTORE PUSH1 0x20 DUP3 ADD SWAP1 POP SWAP3 SWAP2 POP POP JUMP JUMPDEST PUSH1 0x0 DUP2 SWAP1 POP SWAP3 SWAP2 POP POP JUMP JUMPDEST PUSH1 0x0 DUP2 SWAP1 POP SWAP3 SWAP2 POP POP JUMP JUMPDEST PUSH1 0x0 PUSH2 0x38F7 DUP3 PUSH2 0x39A1 JUMP JUMPDEST SWAP1 POP SWAP2 SWAP1 POP JUMP JUMPDEST PUSH1 0x0 DUP2 ISZERO ISZERO SWAP1 POP SWAP2 SWAP1 POP JUMP JUMPDEST PUSH1 0x0 PUSH32 0xFF00000000000000000000000000000000000000000000000000000000000000 DUP3 AND SWAP1 POP SWAP2 SWAP1 POP JUMP JUMPDEST PUSH1 0x0 PUSH32 0xFFFFFFFFFFFFFFFFFFFFFFFFFFFFFFFFFFFFFFFF000000000000000000000000 DUP3 AND SWAP1 POP SWAP2 SWAP1 POP JUMP JUMPDEST PUSH1 0x0 DUP2 SWAP1 POP SWAP2 SWAP1 POP JUMP JUMPDEST PUSH1 0x0 DUP2 PUSH1 0x1 SIGNEXTEND SWAP1 POP SWAP2 SWAP1 POP JUMP JUMPDEST PUSH1 0x0 DUP2 PUSH1 0x3 SIGNEXTEND SWAP1 POP SWAP2 SWAP1 POP JUMP JUMPDEST PUSH1 0x0 DUP2 PUSH1 0x7 SIGNEXTEND SWAP1 POP SWAP2 SWAP1 POP JUMP JUMPDEST PUSH1 0x0 PUSH2 0xFFFF DUP3 AND SWAP1 POP SWAP2 SWAP1 POP JUMP JUMPDEST PUSH1 0x0 PUSH20 0xFFFFFFFFFFFFFFFFFFFFFFFFFFFFFFFFFFFFFFFF DUP3 AND SWAP1 POP SWAP2 SWAP1 POP JUMP JUMPDEST PUSH1 0x0 DUP2 SWAP1 POP SWAP2 SWAP1 POP JUMP JUMPDEST PUSH1 0x0 PUSH4 0xFFFFFFFF DUP3 AND SWAP1 POP SWAP2 SWAP1 POP JUMP JUMPDEST PUSH1 0x0 PUSH8 0xFFFFFFFFFFFFFFFF DUP3 AND SWAP1 POP SWAP2 SWAP1 POP JUMP JUMPDEST PUSH1 0x0 PUSH1 0xFF DUP3 AND SWAP1 POP SWAP2 SWAP1 POP JUMP JUMPDEST DUP3 DUP2 DUP4 CALLDATACOPY PUSH1 0x0 DUP4 DUP4 ADD MSTORE POP POP POP JUMP JUMPDEST PUSH1 0x0 JUMPDEST DUP4 DUP2 LT ISZERO PUSH2 0x3A29 JUMPI DUP1 DUP3 ADD MLOAD DUP2 DUP5 ADD MSTORE PUSH1 0x20 DUP2 ADD SWAP1 POP PUSH2 0x3A0E JUMP JUMPDEST DUP4 DUP2 GT ISZERO PUSH2 0x3A38 JUMPI PUSH1 0x0 DUP5 DUP5 ADD MSTORE JUMPDEST POP POP POP POP JUMP JUMPDEST PUSH1 0x0 PUSH2 0x3A49 DUP3 PUSH2 0x3AC8 JUMP JUMPDEST SWAP1 POP SWAP2 SWAP1 POP JUMP JUMPDEST PUSH1 0x0 PUSH2 0x3A5B DUP3 PUSH2 0x3B08 JUMP JUMPDEST SWAP1 POP SWAP2 SWAP1 POP JUMP JUMPDEST PUSH1 0x0 DUP2 SWAP1 POP SWAP2 SWAP1 POP JUMP JUMPDEST PUSH1 0x0 DUP2 SWAP1 POP SWAP2 SWAP1 POP JUMP JUMPDEST PUSH1 0x0 DUP2 SWAP1 POP SWAP2 SWAP1 POP JUMP JUMPDEST PUSH1 0x0 PUSH2 0x3A8B DUP3 PUSH2 0x3B47 JUMP JUMPDEST SWAP1 POP SWAP2 SWAP1 POP JUMP JUMPDEST PUSH1 0x0 PUSH2 0x3A9D DUP3 PUSH2 0x3B3A JUMP JUMPDEST SWAP1 POP SWAP2 SWAP1 POP JUMP JUMPDEST PUSH1 0x0 PUSH2 0x3AAF DUP3 PUSH2 0x3B2D JUMP JUMPDEST SWAP1 POP SWAP2 SWAP1 POP JUMP JUMPDEST PUSH1 0x0 PUSH2 0x3AC1 DUP3 PUSH2 0x3B47 JUMP JUMPDEST SWAP1 POP SWAP2 SWAP1 POP JUMP JUMPDEST PUSH1 0x0 PUSH2 0x3AD3 DUP3 PUSH2 0x3B61 JUMP JUMPDEST SWAP1 POP SWAP2 SWAP1 POP JUMP JUMPDEST PUSH1 0x0 DUP2 SWAP1 POP SWAP2 SWAP1 POP JUMP JUMPDEST PUSH1 0x0 PUSH2 0x3AEF DUP3 PUSH2 0x3B3A JUMP JUMPDEST SWAP1 POP SWAP2 SWAP1 POP JUMP JUMPDEST PUSH1 0x0 PUSH2 0x3B01 DUP3 PUSH2 0x3B2D JUMP JUMPDEST SWAP1 POP SWAP2 SWAP1 POP JUMP JUMPDEST PUSH1 0x0 PUSH2 0x3B13 DUP3 PUSH2 0x3B54 JUMP JUMPDEST SWAP1 POP SWAP2 SWAP1 POP JUMP JUMPDEST INVALID JUMPDEST PUSH1 0x0 PUSH1 0x1F NOT PUSH1 0x1F DUP4 ADD AND SWAP1 POP SWAP2 SWAP1 POP JUMP JUMPDEST PUSH1 0x0 DUP2 PUSH1 0xC0 SHL SWAP1 POP SWAP2 SWAP1 POP JUMP JUMPDEST PUSH1 0x0 DUP2 PUSH1 0xE0 SHL SWAP1 POP SWAP2 SWAP1 POP JUMP JUMPDEST PUSH1 0x0 DUP2 PUSH1 0xF0 SHL SWAP1 POP SWAP2 SWAP1 POP JUMP JUMPDEST PUSH1 0x0 DUP2 PUSH1 0xF8 SHL SWAP1 POP SWAP2 SWAP1 POP JUMP JUMPDEST PUSH1 0x0 DUP2 PUSH1 0x60 SHL SWAP1 POP SWAP2 SWAP1 POP JUMP JUMPDEST PUSH2 0x3B77 DUP2 PUSH2 0x38EC JUMP JUMPDEST DUP2 EQ PUSH2 0x3B82 JUMPI PUSH1 0x0 DUP1 REVERT JUMPDEST POP JUMP JUMPDEST PUSH2 0x3B8E DUP2 PUSH2 0x38FE JUMP JUMPDEST DUP2 EQ PUSH2 0x3B99 JUMPI PUSH1 0x0 DUP1 REVERT JUMPDEST POP JUMP JUMPDEST PUSH2 0x3BA5 DUP2 PUSH2 0x3936 JUMP JUMPDEST DUP2 EQ PUSH2 0x3BB0 JUMPI PUSH1 0x0 DUP1 REVERT JUMPDEST POP JUMP JUMPDEST PUSH2 0x3BBC DUP2 PUSH2 0x3962 JUMP JUMPDEST DUP2 EQ PUSH2 0x3BC7 JUMPI PUSH1 0x0 DUP1 REVERT JUMPDEST POP JUMP JUMPDEST PUSH2 0x3BD3 DUP2 PUSH2 0x396C JUMP JUMPDEST DUP2 EQ PUSH2 0x3BDE JUMPI PUSH1 0x0 DUP1 REVERT JUMPDEST POP JUMP JUMPDEST PUSH2 0x3BEA DUP2 PUSH2 0x3979 JUMP JUMPDEST DUP2 EQ PUSH2 0x3BF5 JUMPI PUSH1 0x0 DUP1 REVERT JUMPDEST POP JUMP JUMPDEST PUSH2 0x3C01 DUP2 PUSH2 0x3986 JUMP JUMPDEST DUP2 EQ PUSH2 0x3C0C JUMPI PUSH1 0x0 DUP1 REVERT JUMPDEST POP JUMP JUMPDEST PUSH2 0x3C18 DUP2 PUSH2 0x3993 JUMP JUMPDEST DUP2 EQ PUSH2 0x3C23 JUMPI PUSH1 0x0 DUP1 REVERT JUMPDEST POP JUMP JUMPDEST PUSH2 0x3C2F DUP2 PUSH2 0x39A1 JUMP JUMPDEST DUP2 EQ PUSH2 0x3C3A JUMPI PUSH1 0x0 DUP1 REVERT JUMPDEST POP JUMP JUMPDEST PUSH2 0x3C46 DUP2 PUSH2 0x39C1 JUMP JUMPDEST DUP2 EQ PUSH2 0x3C51 JUMPI PUSH1 0x0 DUP1 REVERT JUMPDEST POP JUMP JUMPDEST PUSH2 0x3C5D DUP2 PUSH2 0x39CB JUMP JUMPDEST DUP2 EQ PUSH2 0x3C68 JUMPI PUSH1 0x0 DUP1 REVERT JUMPDEST POP JUMP JUMPDEST PUSH2 0x3C74 DUP2 PUSH2 0x39DB JUMP JUMPDEST DUP2 EQ PUSH2 0x3C7F JUMPI PUSH1 0x0 DUP1 REVERT JUMPDEST POP JUMP JUMPDEST PUSH2 0x3C8B DUP2 PUSH2 0x39EF JUMP JUMPDEST DUP2 EQ PUSH2 0x3C96 JUMPI PUSH1 0x0 DUP1 REVERT JUMPDEST POP JUMP INVALID LOG2 PUSH5 0x6970667358 0x22 SLT KECCAK256 0xE2 0xB5 SWAP4 PC PUSH27 0x84AEB7FB225723194579EA4AAEF976600685A67DBF1B2DEC726C85 PUSH5 0x736F6C6343 STOP SMOD MOD STOP CALLER "
		},
		"gasEstimates": {
			"creation": {
				"codeDepositCost": "3113400",
				"executionCost": "3436",
				"totalCost": "3116836"
			},
			"external": {
				"flipArray(bytes)": "infinite",
				"serializeAddress(address)": "infinite",
				"serializeBool(bool)": "infinite",
				"serializeBytes20(bytes20)": "infinite",
				"serializeBytes32(bytes32)": "infinite",
				"serializeCCoinbaseCurrencyState((uint16,uint16,address,uint160[],int32[],int64[],int64,int64,int64,int64,int64,int64,int64,int64[],int64[],int64[],int64[],int64[],int64[],int32[],int64[]))": "infinite",
				"serializeCCrossChainExport((uint16,uint16,address,uint32,uint32,address,address,uint32,(address,uint64)[],(address,uint64)[],bytes32,(address,uint64)[],(uint8,address),int32))": "infinite",
				"serializeCCurrencyValueMap((address,uint64))": "infinite",
				"serializeCCurrencyValueMaps((address,uint64)[])": "infinite",
				"serializeCNodeData((string,address))": "infinite",
				"serializeCPBaaSNotarization((uint32,uint32,(uint8,address),address,(uint16,uint16,address,uint160[],int32[],int64[],int64,int64,int64,int64,int64,int64,int64,int64[],int64[],int64[],int64[],int64[],int64[],int32[],int64[]),uint32,(bytes32,uint32),bytes32,uint64,(address,(uint16,uint16,address,uint160[],int32[],int64[],int64,int64,int64,int64,int64,int64,int64,int64[],int64[],int64[],int64[],int64[],int64[],int32[],int64[]))[],(address,(int16,int16,address,uint32,bytes32,bytes32,bytes32))[],(string,address)[]))": "infinite",
				"serializeCProofRoot((int16,int16,address,uint32,bytes32,bytes32,bytes32))": "infinite",
				"serializeCReserveTransfer((uint32,(address,uint64),uint32,address,uint256,(uint8,address),address,address))": "infinite",
				"serializeCReserveTransfers((uint32,(address,uint64),uint32,address,uint256,(uint8,address),address,address)[],bool)": "infinite",
				"serializeCTransferDestination((uint8,address))": "infinite",
				"serializeCUTXORef((bytes32,uint32))": "infinite",
				"serializeCurrencyStates((address,(uint16,uint16,address,uint160[],int32[],int64[],int64,int64,int64,int64,int64,int64,int64,int64[],int64[],int64[],int64[],int64[],int64[],int32[],int64[])))": "infinite",
				"serializeCurrencyStatesArray((address,(uint16,uint16,address,uint160[],int32[],int64[],int64,int64,int64,int64,int64,int64,int64,int64[],int64[],int64[],int64[],int64[],int64[],int32[],int64[]))[])": "infinite",
				"serializeInt16(int16)": "infinite",
				"serializeInt32(int32)": "infinite",
				"serializeInt32Array(int32[])": "infinite",
				"serializeInt64(int64)": "infinite",
				"serializeInt64Array(int64[])": "infinite",
				"serializeNodes((string,address)[])": "infinite",
				"serializeProofRoots((address,(int16,int16,address,uint32,bytes32,bytes32,bytes32)))": "infinite",
				"serializeProofRootsArray((address,(int16,int16,address,uint32,bytes32,bytes32,bytes32))[])": "infinite",
				"serializeString(string)": "infinite",
				"serializeUint16(uint16)": "infinite",
				"serializeUint160Array(uint160[])": "infinite",
				"serializeUint256(uint256)": "infinite",
				"serializeUint32(uint32)": "infinite",
				"serializeUint64(uint64)": "infinite",
				"serializeUint8(uint8)": "infinite",
				"verusHashPrefix(string,address,int64,address,bytes)": "infinite",
				"writeCompactSize(uint256)": "infinite",
				"writeVarInt(uint256)": "infinite"
			}
		},
		"methodIdentifiers": {
			"flipArray(bytes)": "1222d81a",
			"serializeAddress(address)": "241d23b2",
			"serializeBool(bool)": "009c8152",
			"serializeBytes20(bytes20)": "463276c3",
			"serializeBytes32(bytes32)": "b9f7f35a",
			"serializeCCoinbaseCurrencyState((uint16,uint16,address,uint160[],int32[],int64[],int64,int64,int64,int64,int64,int64,int64,int64[],int64[],int64[],int64[],int64[],int64[],int32[],int64[]))": "0a803a86",
			"serializeCCrossChainExport((uint16,uint16,address,uint32,uint32,address,address,uint32,(address,uint64)[],(address,uint64)[],bytes32,(address,uint64)[],(uint8,address),int32))": "343bee60",
			"serializeCCurrencyValueMap((address,uint64))": "cfa84de9",
			"serializeCCurrencyValueMaps((address,uint64)[])": "941bb060",
			"serializeCNodeData((string,address))": "44c789d1",
			"serializeCPBaaSNotarization((uint32,uint32,(uint8,address),address,(uint16,uint16,address,uint160[],int32[],int64[],int64,int64,int64,int64,int64,int64,int64,int64[],int64[],int64[],int64[],int64[],int64[],int32[],int64[]),uint32,(bytes32,uint32),bytes32,uint64,(address,(uint16,uint16,address,uint160[],int32[],int64[],int64,int64,int64,int64,int64,int64,int64,int64[],int64[],int64[],int64[],int64[],int64[],int32[],int64[]))[],(address,(int16,int16,address,uint32,bytes32,bytes32,bytes32))[],(string,address)[]))": "b1d53d1d",
			"serializeCProofRoot((int16,int16,address,uint32,bytes32,bytes32,bytes32))": "18c9bbfd",
			"serializeCReserveTransfer((uint32,(address,uint64),uint32,address,uint256,(uint8,address),address,address))": "8bbfc13e",
			"serializeCReserveTransfers((uint32,(address,uint64),uint32,address,uint256,(uint8,address),address,address)[],bool)": "b04d197a",
			"serializeCTransferDestination((uint8,address))": "df61a937",
			"serializeCUTXORef((bytes32,uint32))": "1c356532",
			"serializeCurrencyStates((address,(uint16,uint16,address,uint160[],int32[],int64[],int64,int64,int64,int64,int64,int64,int64,int64[],int64[],int64[],int64[],int64[],int64[],int32[],int64[])))": "e0671111",
			"serializeCurrencyStatesArray((address,(uint16,uint16,address,uint160[],int32[],int64[],int64,int64,int64,int64,int64,int64,int64,int64[],int64[],int64[],int64[],int64[],int64[],int32[],int64[]))[])": "200f6c2a",
			"serializeInt16(int16)": "46256007",
			"serializeInt32(int32)": "fef5906a",
			"serializeInt32Array(int32[])": "9d487b47",
			"serializeInt64(int64)": "af832f09",
			"serializeInt64Array(int64[])": "f8217295",
			"serializeNodes((string,address)[])": "049e3490",
			"serializeProofRoots((address,(int16,int16,address,uint32,bytes32,bytes32,bytes32)))": "33c45ab9",
			"serializeProofRootsArray((address,(int16,int16,address,uint32,bytes32,bytes32,bytes32))[])": "7b92bd28",
			"serializeString(string)": "68b4ae81",
			"serializeUint16(uint16)": "e4cba547",
			"serializeUint160Array(uint160[])": "19a7c17b",
			"serializeUint256(uint256)": "f20fb830",
			"serializeUint32(uint32)": "cecb3043",
			"serializeUint64(uint64)": "122e5ae7",
			"serializeUint8(uint8)": "6127b4ff",
			"verusHashPrefix(string,address,int64,address,bytes)": "c93e58c8",
			"writeCompactSize(uint256)": "dad935a1",
			"writeVarInt(uint256)": "b3a895f6"
		}
	},
	"abi": [
		{
			"inputs": [
				{
					"internalType": "bytes",
					"name": "incoming",
					"type": "bytes"
				}
			],
			"name": "flipArray",
			"outputs": [
				{
					"internalType": "bytes",
					"name": "",
					"type": "bytes"
				}
			],
			"stateMutability": "pure",
			"type": "function"
		},
		{
			"inputs": [
				{
					"internalType": "address",
					"name": "number",
					"type": "address"
				}
			],
			"name": "serializeAddress",
			"outputs": [
				{
					"internalType": "bytes",
					"name": "",
					"type": "bytes"
				}
			],
			"stateMutability": "pure",
			"type": "function"
		},
		{
			"inputs": [
				{
					"internalType": "bool",
					"name": "anyBool",
					"type": "bool"
				}
			],
			"name": "serializeBool",
			"outputs": [
				{
					"internalType": "bytes",
					"name": "",
					"type": "bytes"
				}
			],
			"stateMutability": "pure",
			"type": "function"
		},
		{
			"inputs": [
				{
					"internalType": "bytes20",
					"name": "anyBytes20",
					"type": "bytes20"
				}
			],
			"name": "serializeBytes20",
			"outputs": [
				{
					"internalType": "bytes",
					"name": "",
					"type": "bytes"
				}
			],
			"stateMutability": "pure",
			"type": "function"
		},
		{
			"inputs": [
				{
					"internalType": "bytes32",
					"name": "anyBytes32",
					"type": "bytes32"
				}
			],
			"name": "serializeBytes32",
			"outputs": [
				{
					"internalType": "bytes",
					"name": "",
					"type": "bytes"
				}
			],
			"stateMutability": "pure",
			"type": "function"
		},
		{
			"inputs": [
				{
					"components": [
						{
							"internalType": "uint16",
							"name": "version",
							"type": "uint16"
						},
						{
							"internalType": "uint16",
							"name": "flags",
							"type": "uint16"
						},
						{
							"internalType": "address",
							"name": "currencyID",
							"type": "address"
						},
						{
							"internalType": "uint160[]",
							"name": "currencies",
							"type": "uint160[]"
						},
						{
							"internalType": "int32[]",
							"name": "weights",
							"type": "int32[]"
						},
						{
							"internalType": "int64[]",
							"name": "reserves",
							"type": "int64[]"
						},
						{
							"internalType": "int64",
							"name": "initialSupply",
							"type": "int64"
						},
						{
							"internalType": "int64",
							"name": "emitted",
							"type": "int64"
						},
						{
							"internalType": "int64",
							"name": "supply",
							"type": "int64"
						},
						{
							"internalType": "int64",
							"name": "primaryCurrencyOut",
							"type": "int64"
						},
						{
							"internalType": "int64",
							"name": "preconvertedOut",
							"type": "int64"
						},
						{
							"internalType": "int64",
							"name": "primaryCurrencyFees",
							"type": "int64"
						},
						{
							"internalType": "int64",
							"name": "primaryCurrencyConversionFees",
							"type": "int64"
						},
						{
							"internalType": "int64[]",
							"name": "reserveIn",
							"type": "int64[]"
						},
						{
							"internalType": "int64[]",
							"name": "primaryCurrencyIn",
							"type": "int64[]"
						},
						{
							"internalType": "int64[]",
							"name": "reserveOut",
							"type": "int64[]"
						},
						{
							"internalType": "int64[]",
							"name": "conversionPrice",
							"type": "int64[]"
						},
						{
							"internalType": "int64[]",
							"name": "viaConversionPrice",
							"type": "int64[]"
						},
						{
							"internalType": "int64[]",
							"name": "fees",
							"type": "int64[]"
						},
						{
							"internalType": "int32[]",
							"name": "priorWeights",
							"type": "int32[]"
						},
						{
							"internalType": "int64[]",
							"name": "conversionFees",
							"type": "int64[]"
						}
					],
					"internalType": "struct VerusObjects.CCoinbaseCurrencyState",
					"name": "_cccs",
					"type": "tuple"
				}
			],
			"name": "serializeCCoinbaseCurrencyState",
			"outputs": [
				{
					"internalType": "bytes",
					"name": "",
					"type": "bytes"
				}
			],
			"stateMutability": "pure",
			"type": "function"
		},
		{
			"inputs": [
				{
					"components": [
						{
							"internalType": "uint16",
							"name": "version",
							"type": "uint16"
						},
						{
							"internalType": "uint16",
							"name": "flags",
							"type": "uint16"
						},
						{
							"internalType": "address",
							"name": "sourcesystemid",
							"type": "address"
						},
						{
							"internalType": "uint32",
							"name": "sourceheightstart",
							"type": "uint32"
						},
						{
							"internalType": "uint32",
							"name": "sourceheightend",
							"type": "uint32"
						},
						{
							"internalType": "address",
							"name": "destinationsystemid",
							"type": "address"
						},
						{
							"internalType": "address",
							"name": "destinationcurrencyid",
							"type": "address"
						},
						{
							"internalType": "uint32",
							"name": "numinputs",
							"type": "uint32"
						},
						{
							"components": [
								{
									"internalType": "address",
									"name": "currency",
									"type": "address"
								},
								{
									"internalType": "uint64",
									"name": "amount",
									"type": "uint64"
								}
							],
							"internalType": "struct VerusObjects.CCurrencyValueMap[]",
							"name": "totalamounts",
							"type": "tuple[]"
						},
						{
							"components": [
								{
									"internalType": "address",
									"name": "currency",
									"type": "address"
								},
								{
									"internalType": "uint64",
									"name": "amount",
									"type": "uint64"
								}
							],
							"internalType": "struct VerusObjects.CCurrencyValueMap[]",
							"name": "totalfees",
							"type": "tuple[]"
						},
						{
							"internalType": "bytes32",
							"name": "hashtransfers",
							"type": "bytes32"
						},
						{
							"components": [
								{
									"internalType": "address",
									"name": "currency",
									"type": "address"
								},
								{
									"internalType": "uint64",
									"name": "amount",
									"type": "uint64"
								}
							],
							"internalType": "struct VerusObjects.CCurrencyValueMap[]",
							"name": "totalburned",
							"type": "tuple[]"
						},
						{
							"components": [
								{
									"internalType": "uint8",
									"name": "destinationtype",
									"type": "uint8"
								},
								{
									"internalType": "address",
									"name": "destinationaddress",
									"type": "address"
								}
							],
							"internalType": "struct VerusObjects.CTransferDestination",
							"name": "rewardaddress",
							"type": "tuple"
						},
						{
							"internalType": "int32",
							"name": "firstinput",
							"type": "int32"
						}
					],
					"internalType": "struct VerusObjects.CCrossChainExport",
					"name": "_ccce",
					"type": "tuple"
				}
			],
			"name": "serializeCCrossChainExport",
			"outputs": [
				{
					"internalType": "bytes",
					"name": "",
					"type": "bytes"
				}
			],
			"stateMutability": "pure",
			"type": "function"
		},
		{
			"inputs": [
				{
					"components": [
						{
							"internalType": "address",
							"name": "currency",
							"type": "address"
						},
						{
							"internalType": "uint64",
							"name": "amount",
							"type": "uint64"
						}
					],
					"internalType": "struct VerusObjects.CCurrencyValueMap",
					"name": "_ccvm",
					"type": "tuple"
				}
			],
			"name": "serializeCCurrencyValueMap",
			"outputs": [
				{
					"internalType": "bytes",
					"name": "",
					"type": "bytes"
				}
			],
			"stateMutability": "pure",
			"type": "function"
		},
		{
			"inputs": [
				{
					"components": [
						{
							"internalType": "address",
							"name": "currency",
							"type": "address"
						},
						{
							"internalType": "uint64",
							"name": "amount",
							"type": "uint64"
						}
					],
					"internalType": "struct VerusObjects.CCurrencyValueMap[]",
					"name": "_ccvms",
					"type": "tuple[]"
				}
			],
			"name": "serializeCCurrencyValueMaps",
			"outputs": [
				{
					"internalType": "bytes",
					"name": "",
					"type": "bytes"
				}
			],
			"stateMutability": "pure",
			"type": "function"
		},
		{
			"inputs": [
				{
					"components": [
						{
							"internalType": "string",
							"name": "networkAddress",
							"type": "string"
						},
						{
							"internalType": "address",
							"name": "nodeIdentity",
							"type": "address"
						}
					],
					"internalType": "struct VerusObjects.CNodeData",
					"name": "_cnd",
					"type": "tuple"
				}
			],
			"name": "serializeCNodeData",
			"outputs": [
				{
					"internalType": "bytes",
					"name": "",
					"type": "bytes"
				}
			],
			"stateMutability": "pure",
			"type": "function"
		},
		{
			"inputs": [
				{
					"components": [
						{
							"internalType": "uint32",
							"name": "version",
							"type": "uint32"
						},
						{
							"internalType": "uint32",
							"name": "flags",
							"type": "uint32"
						},
						{
							"components": [
								{
									"internalType": "uint8",
									"name": "destinationtype",
									"type": "uint8"
								},
								{
									"internalType": "address",
									"name": "destinationaddress",
									"type": "address"
								}
							],
							"internalType": "struct VerusObjects.CTransferDestination",
							"name": "proposer",
							"type": "tuple"
						},
						{
							"internalType": "address",
							"name": "currencyID",
							"type": "address"
						},
						{
							"components": [
								{
									"internalType": "uint16",
									"name": "version",
									"type": "uint16"
								},
								{
									"internalType": "uint16",
									"name": "flags",
									"type": "uint16"
								},
								{
									"internalType": "address",
									"name": "currencyID",
									"type": "address"
								},
								{
									"internalType": "uint160[]",
									"name": "currencies",
									"type": "uint160[]"
								},
								{
									"internalType": "int32[]",
									"name": "weights",
									"type": "int32[]"
								},
								{
									"internalType": "int64[]",
									"name": "reserves",
									"type": "int64[]"
								},
								{
									"internalType": "int64",
									"name": "initialSupply",
									"type": "int64"
								},
								{
									"internalType": "int64",
									"name": "emitted",
									"type": "int64"
								},
								{
									"internalType": "int64",
									"name": "supply",
									"type": "int64"
								},
								{
									"internalType": "int64",
									"name": "primaryCurrencyOut",
									"type": "int64"
								},
								{
									"internalType": "int64",
									"name": "preconvertedOut",
									"type": "int64"
								},
								{
									"internalType": "int64",
									"name": "primaryCurrencyFees",
									"type": "int64"
								},
								{
									"internalType": "int64",
									"name": "primaryCurrencyConversionFees",
									"type": "int64"
								},
								{
									"internalType": "int64[]",
									"name": "reserveIn",
									"type": "int64[]"
								},
								{
									"internalType": "int64[]",
									"name": "primaryCurrencyIn",
									"type": "int64[]"
								},
								{
									"internalType": "int64[]",
									"name": "reserveOut",
									"type": "int64[]"
								},
								{
									"internalType": "int64[]",
									"name": "conversionPrice",
									"type": "int64[]"
								},
								{
									"internalType": "int64[]",
									"name": "viaConversionPrice",
									"type": "int64[]"
								},
								{
									"internalType": "int64[]",
									"name": "fees",
									"type": "int64[]"
								},
								{
									"internalType": "int32[]",
									"name": "priorWeights",
									"type": "int32[]"
								},
								{
									"internalType": "int64[]",
									"name": "conversionFees",
									"type": "int64[]"
								}
							],
							"internalType": "struct VerusObjects.CCoinbaseCurrencyState",
							"name": "currencyState",
							"type": "tuple"
						},
						{
							"internalType": "uint32",
							"name": "notarizationHeight",
							"type": "uint32"
						},
						{
							"components": [
								{
									"internalType": "bytes32",
									"name": "hash",
									"type": "bytes32"
								},
								{
									"internalType": "uint32",
									"name": "n",
									"type": "uint32"
								}
							],
							"internalType": "struct VerusObjects.CUTXORef",
							"name": "prevNotarization",
							"type": "tuple"
						},
						{
							"internalType": "bytes32",
							"name": "hashPrevNotarization",
							"type": "bytes32"
						},
						{
							"internalType": "uint64",
							"name": "prevheight",
							"type": "uint64"
						},
						{
							"components": [
								{
									"internalType": "address",
									"name": "currencyId",
									"type": "address"
								},
								{
									"components": [
										{
											"internalType": "uint16",
											"name": "version",
											"type": "uint16"
										},
										{
											"internalType": "uint16",
											"name": "flags",
											"type": "uint16"
										},
										{
											"internalType": "address",
											"name": "currencyID",
											"type": "address"
										},
										{
											"internalType": "uint160[]",
											"name": "currencies",
											"type": "uint160[]"
										},
										{
											"internalType": "int32[]",
											"name": "weights",
											"type": "int32[]"
										},
										{
											"internalType": "int64[]",
											"name": "reserves",
											"type": "int64[]"
										},
										{
											"internalType": "int64",
											"name": "initialSupply",
											"type": "int64"
										},
										{
											"internalType": "int64",
											"name": "emitted",
											"type": "int64"
										},
										{
											"internalType": "int64",
											"name": "supply",
											"type": "int64"
										},
										{
											"internalType": "int64",
											"name": "primaryCurrencyOut",
											"type": "int64"
										},
										{
											"internalType": "int64",
											"name": "preconvertedOut",
											"type": "int64"
										},
										{
											"internalType": "int64",
											"name": "primaryCurrencyFees",
											"type": "int64"
										},
										{
											"internalType": "int64",
											"name": "primaryCurrencyConversionFees",
											"type": "int64"
										},
										{
											"internalType": "int64[]",
											"name": "reserveIn",
											"type": "int64[]"
										},
										{
											"internalType": "int64[]",
											"name": "primaryCurrencyIn",
											"type": "int64[]"
										},
										{
											"internalType": "int64[]",
											"name": "reserveOut",
											"type": "int64[]"
										},
										{
											"internalType": "int64[]",
											"name": "conversionPrice",
											"type": "int64[]"
										},
										{
											"internalType": "int64[]",
											"name": "viaConversionPrice",
											"type": "int64[]"
										},
										{
											"internalType": "int64[]",
											"name": "fees",
											"type": "int64[]"
										},
										{
											"internalType": "int32[]",
											"name": "priorWeights",
											"type": "int32[]"
										},
										{
											"internalType": "int64[]",
											"name": "conversionFees",
											"type": "int64[]"
										}
									],
									"internalType": "struct VerusObjects.CCoinbaseCurrencyState",
									"name": "currencyState",
									"type": "tuple"
								}
							],
							"internalType": "struct VerusObjects.CurrencyStates[]",
							"name": "currencyStates",
							"type": "tuple[]"
						},
						{
							"components": [
								{
									"internalType": "address",
									"name": "currencyId",
									"type": "address"
								},
								{
									"components": [
										{
											"internalType": "int16",
											"name": "version",
											"type": "int16"
										},
										{
											"internalType": "int16",
											"name": "CPRtype",
											"type": "int16"
										},
										{
											"internalType": "address",
											"name": "systemID",
											"type": "address"
										},
										{
											"internalType": "uint32",
											"name": "rootHeight",
											"type": "uint32"
										},
										{
											"internalType": "bytes32",
											"name": "stateRoot",
											"type": "bytes32"
										},
										{
											"internalType": "bytes32",
											"name": "blockHash",
											"type": "bytes32"
										},
										{
											"internalType": "bytes32",
											"name": "compactPower",
											"type": "bytes32"
										}
									],
									"internalType": "struct VerusObjects.CProofRoot",
									"name": "proofRoot",
									"type": "tuple"
								}
							],
							"internalType": "struct VerusObjects.ProofRoots[]",
							"name": "proofRoots",
							"type": "tuple[]"
						},
						{
							"components": [
								{
									"internalType": "string",
									"name": "networkAddress",
									"type": "string"
								},
								{
									"internalType": "address",
									"name": "nodeIdentity",
									"type": "address"
								}
							],
							"internalType": "struct VerusObjects.CNodeData[]",
							"name": "nodes",
							"type": "tuple[]"
						}
					],
					"internalType": "struct VerusObjects.CPBaaSNotarization",
					"name": "_not",
					"type": "tuple"
				}
			],
			"name": "serializeCPBaaSNotarization",
			"outputs": [
				{
					"internalType": "bytes",
					"name": "",
					"type": "bytes"
				}
			],
			"stateMutability": "pure",
			"type": "function"
		},
		{
			"inputs": [
				{
					"components": [
						{
							"internalType": "int16",
							"name": "version",
							"type": "int16"
						},
						{
							"internalType": "int16",
							"name": "CPRtype",
							"type": "int16"
						},
						{
							"internalType": "address",
							"name": "systemID",
							"type": "address"
						},
						{
							"internalType": "uint32",
							"name": "rootHeight",
							"type": "uint32"
						},
						{
							"internalType": "bytes32",
							"name": "stateRoot",
							"type": "bytes32"
						},
						{
							"internalType": "bytes32",
							"name": "blockHash",
							"type": "bytes32"
						},
						{
							"internalType": "bytes32",
							"name": "compactPower",
							"type": "bytes32"
						}
					],
					"internalType": "struct VerusObjects.CProofRoot",
					"name": "_cpr",
					"type": "tuple"
				}
			],
			"name": "serializeCProofRoot",
			"outputs": [
				{
					"internalType": "bytes",
					"name": "",
					"type": "bytes"
				}
			],
			"stateMutability": "pure",
			"type": "function"
		},
		{
			"inputs": [
				{
					"components": [
						{
							"internalType": "uint32",
							"name": "version",
							"type": "uint32"
						},
						{
							"components": [
								{
									"internalType": "address",
									"name": "currency",
									"type": "address"
								},
								{
									"internalType": "uint64",
									"name": "amount",
									"type": "uint64"
								}
							],
							"internalType": "struct VerusObjects.CCurrencyValueMap",
							"name": "currencyvalue",
							"type": "tuple"
						},
						{
							"internalType": "uint32",
							"name": "flags",
							"type": "uint32"
						},
						{
							"internalType": "address",
							"name": "feecurrencyid",
							"type": "address"
						},
						{
							"internalType": "uint256",
							"name": "fees",
							"type": "uint256"
						},
						{
							"components": [
								{
									"internalType": "uint8",
									"name": "destinationtype",
									"type": "uint8"
								},
								{
									"internalType": "address",
									"name": "destinationaddress",
									"type": "address"
								}
							],
							"internalType": "struct VerusObjects.CTransferDestination",
							"name": "destination",
							"type": "tuple"
						},
						{
							"internalType": "address",
							"name": "destCurrencyID",
							"type": "address"
						},
						{
							"internalType": "address",
							"name": "destSystemID",
							"type": "address"
						}
					],
					"internalType": "struct VerusObjects.CReserveTransfer",
					"name": "ct",
					"type": "tuple"
				}
			],
			"name": "serializeCReserveTransfer",
			"outputs": [
				{
					"internalType": "bytes",
					"name": "",
					"type": "bytes"
				}
			],
			"stateMutability": "pure",
			"type": "function"
		},
		{
			"inputs": [
				{
					"components": [
						{
							"internalType": "uint32",
							"name": "version",
							"type": "uint32"
						},
						{
							"components": [
								{
									"internalType": "address",
									"name": "currency",
									"type": "address"
								},
								{
									"internalType": "uint64",
									"name": "amount",
									"type": "uint64"
								}
							],
							"internalType": "struct VerusObjects.CCurrencyValueMap",
							"name": "currencyvalue",
							"type": "tuple"
						},
						{
							"internalType": "uint32",
							"name": "flags",
							"type": "uint32"
						},
						{
							"internalType": "address",
							"name": "feecurrencyid",
							"type": "address"
						},
						{
							"internalType": "uint256",
							"name": "fees",
							"type": "uint256"
						},
						{
							"components": [
								{
									"internalType": "uint8",
									"name": "destinationtype",
									"type": "uint8"
								},
								{
									"internalType": "address",
									"name": "destinationaddress",
									"type": "address"
								}
							],
							"internalType": "struct VerusObjects.CTransferDestination",
							"name": "destination",
							"type": "tuple"
						},
						{
							"internalType": "address",
							"name": "destCurrencyID",
							"type": "address"
						},
						{
							"internalType": "address",
							"name": "destSystemID",
							"type": "address"
						}
					],
					"internalType": "struct VerusObjects.CReserveTransfer[]",
					"name": "_bts",
					"type": "tuple[]"
				},
				{
					"internalType": "bool",
					"name": "includeSize",
					"type": "bool"
				}
			],
			"name": "serializeCReserveTransfers",
			"outputs": [
				{
					"internalType": "bytes",
					"name": "",
					"type": "bytes"
				}
			],
			"stateMutability": "pure",
			"type": "function"
		},
		{
			"inputs": [
				{
					"components": [
						{
							"internalType": "uint8",
							"name": "destinationtype",
							"type": "uint8"
						},
						{
							"internalType": "address",
							"name": "destinationaddress",
							"type": "address"
						}
					],
					"internalType": "struct VerusObjects.CTransferDestination",
					"name": "ctd",
					"type": "tuple"
				}
			],
			"name": "serializeCTransferDestination",
			"outputs": [
				{
					"internalType": "bytes",
					"name": "",
					"type": "bytes"
				}
			],
			"stateMutability": "pure",
			"type": "function"
		},
		{
			"inputs": [
				{
					"components": [
						{
							"internalType": "bytes32",
							"name": "hash",
							"type": "bytes32"
						},
						{
							"internalType": "uint32",
							"name": "n",
							"type": "uint32"
						}
					],
					"internalType": "struct VerusObjects.CUTXORef",
					"name": "_cutxo",
					"type": "tuple"
				}
			],
			"name": "serializeCUTXORef",
			"outputs": [
				{
					"internalType": "bytes",
					"name": "",
					"type": "bytes"
				}
			],
			"stateMutability": "pure",
			"type": "function"
		},
		{
			"inputs": [
				{
					"components": [
						{
							"internalType": "address",
							"name": "currencyId",
							"type": "address"
						},
						{
							"components": [
								{
									"internalType": "uint16",
									"name": "version",
									"type": "uint16"
								},
								{
									"internalType": "uint16",
									"name": "flags",
									"type": "uint16"
								},
								{
									"internalType": "address",
									"name": "currencyID",
									"type": "address"
								},
								{
									"internalType": "uint160[]",
									"name": "currencies",
									"type": "uint160[]"
								},
								{
									"internalType": "int32[]",
									"name": "weights",
									"type": "int32[]"
								},
								{
									"internalType": "int64[]",
									"name": "reserves",
									"type": "int64[]"
								},
								{
									"internalType": "int64",
									"name": "initialSupply",
									"type": "int64"
								},
								{
									"internalType": "int64",
									"name": "emitted",
									"type": "int64"
								},
								{
									"internalType": "int64",
									"name": "supply",
									"type": "int64"
								},
								{
									"internalType": "int64",
									"name": "primaryCurrencyOut",
									"type": "int64"
								},
								{
									"internalType": "int64",
									"name": "preconvertedOut",
									"type": "int64"
								},
								{
									"internalType": "int64",
									"name": "primaryCurrencyFees",
									"type": "int64"
								},
								{
									"internalType": "int64",
									"name": "primaryCurrencyConversionFees",
									"type": "int64"
								},
								{
									"internalType": "int64[]",
									"name": "reserveIn",
									"type": "int64[]"
								},
								{
									"internalType": "int64[]",
									"name": "primaryCurrencyIn",
									"type": "int64[]"
								},
								{
									"internalType": "int64[]",
									"name": "reserveOut",
									"type": "int64[]"
								},
								{
									"internalType": "int64[]",
									"name": "conversionPrice",
									"type": "int64[]"
								},
								{
									"internalType": "int64[]",
									"name": "viaConversionPrice",
									"type": "int64[]"
								},
								{
									"internalType": "int64[]",
									"name": "fees",
									"type": "int64[]"
								},
								{
									"internalType": "int32[]",
									"name": "priorWeights",
									"type": "int32[]"
								},
								{
									"internalType": "int64[]",
									"name": "conversionFees",
									"type": "int64[]"
								}
							],
							"internalType": "struct VerusObjects.CCoinbaseCurrencyState",
							"name": "currencyState",
							"type": "tuple"
						}
					],
					"internalType": "struct VerusObjects.CurrencyStates",
					"name": "_cs",
					"type": "tuple"
				}
			],
			"name": "serializeCurrencyStates",
			"outputs": [
				{
					"internalType": "bytes",
					"name": "",
					"type": "bytes"
				}
			],
			"stateMutability": "pure",
			"type": "function"
		},
		{
			"inputs": [
				{
					"components": [
						{
							"internalType": "address",
							"name": "currencyId",
							"type": "address"
						},
						{
							"components": [
								{
									"internalType": "uint16",
									"name": "version",
									"type": "uint16"
								},
								{
									"internalType": "uint16",
									"name": "flags",
									"type": "uint16"
								},
								{
									"internalType": "address",
									"name": "currencyID",
									"type": "address"
								},
								{
									"internalType": "uint160[]",
									"name": "currencies",
									"type": "uint160[]"
								},
								{
									"internalType": "int32[]",
									"name": "weights",
									"type": "int32[]"
								},
								{
									"internalType": "int64[]",
									"name": "reserves",
									"type": "int64[]"
								},
								{
									"internalType": "int64",
									"name": "initialSupply",
									"type": "int64"
								},
								{
									"internalType": "int64",
									"name": "emitted",
									"type": "int64"
								},
								{
									"internalType": "int64",
									"name": "supply",
									"type": "int64"
								},
								{
									"internalType": "int64",
									"name": "primaryCurrencyOut",
									"type": "int64"
								},
								{
									"internalType": "int64",
									"name": "preconvertedOut",
									"type": "int64"
								},
								{
									"internalType": "int64",
									"name": "primaryCurrencyFees",
									"type": "int64"
								},
								{
									"internalType": "int64",
									"name": "primaryCurrencyConversionFees",
									"type": "int64"
								},
								{
									"internalType": "int64[]",
									"name": "reserveIn",
									"type": "int64[]"
								},
								{
									"internalType": "int64[]",
									"name": "primaryCurrencyIn",
									"type": "int64[]"
								},
								{
									"internalType": "int64[]",
									"name": "reserveOut",
									"type": "int64[]"
								},
								{
									"internalType": "int64[]",
									"name": "conversionPrice",
									"type": "int64[]"
								},
								{
									"internalType": "int64[]",
									"name": "viaConversionPrice",
									"type": "int64[]"
								},
								{
									"internalType": "int64[]",
									"name": "fees",
									"type": "int64[]"
								},
								{
									"internalType": "int32[]",
									"name": "priorWeights",
									"type": "int32[]"
								},
								{
									"internalType": "int64[]",
									"name": "conversionFees",
									"type": "int64[]"
								}
							],
							"internalType": "struct VerusObjects.CCoinbaseCurrencyState",
							"name": "currencyState",
							"type": "tuple"
						}
					],
					"internalType": "struct VerusObjects.CurrencyStates[]",
					"name": "_csa",
					"type": "tuple[]"
				}
			],
			"name": "serializeCurrencyStatesArray",
			"outputs": [
				{
					"internalType": "bytes",
					"name": "",
					"type": "bytes"
				}
			],
			"stateMutability": "pure",
			"type": "function"
		},
		{
			"inputs": [
				{
					"internalType": "int16",
					"name": "number",
					"type": "int16"
				}
			],
			"name": "serializeInt16",
			"outputs": [
				{
					"internalType": "bytes",
					"name": "",
					"type": "bytes"
				}
			],
			"stateMutability": "pure",
			"type": "function"
		},
		{
			"inputs": [
				{
					"internalType": "int32",
					"name": "number",
					"type": "int32"
				}
			],
			"name": "serializeInt32",
			"outputs": [
				{
					"internalType": "bytes",
					"name": "",
					"type": "bytes"
				}
			],
			"stateMutability": "pure",
			"type": "function"
		},
		{
			"inputs": [
				{
					"internalType": "int32[]",
					"name": "numbers",
					"type": "int32[]"
				}
			],
			"name": "serializeInt32Array",
			"outputs": [
				{
					"internalType": "bytes",
					"name": "",
					"type": "bytes"
				}
			],
			"stateMutability": "pure",
			"type": "function"
		},
		{
			"inputs": [
				{
					"internalType": "int64",
					"name": "number",
					"type": "int64"
				}
			],
			"name": "serializeInt64",
			"outputs": [
				{
					"internalType": "bytes",
					"name": "",
					"type": "bytes"
				}
			],
			"stateMutability": "pure",
			"type": "function"
		},
		{
			"inputs": [
				{
					"internalType": "int64[]",
					"name": "numbers",
					"type": "int64[]"
				}
			],
			"name": "serializeInt64Array",
			"outputs": [
				{
					"internalType": "bytes",
					"name": "",
					"type": "bytes"
				}
			],
			"stateMutability": "pure",
			"type": "function"
		},
		{
			"inputs": [
				{
					"components": [
						{
							"internalType": "string",
							"name": "networkAddress",
							"type": "string"
						},
						{
							"internalType": "address",
							"name": "nodeIdentity",
							"type": "address"
						}
					],
					"internalType": "struct VerusObjects.CNodeData[]",
					"name": "_cnds",
					"type": "tuple[]"
				}
			],
			"name": "serializeNodes",
			"outputs": [
				{
					"internalType": "bytes",
					"name": "",
					"type": "bytes"
				}
			],
			"stateMutability": "pure",
			"type": "function"
		},
		{
			"inputs": [
				{
					"components": [
						{
							"internalType": "address",
							"name": "currencyId",
							"type": "address"
						},
						{
							"components": [
								{
									"internalType": "int16",
									"name": "version",
									"type": "int16"
								},
								{
									"internalType": "int16",
									"name": "CPRtype",
									"type": "int16"
								},
								{
									"internalType": "address",
									"name": "systemID",
									"type": "address"
								},
								{
									"internalType": "uint32",
									"name": "rootHeight",
									"type": "uint32"
								},
								{
									"internalType": "bytes32",
									"name": "stateRoot",
									"type": "bytes32"
								},
								{
									"internalType": "bytes32",
									"name": "blockHash",
									"type": "bytes32"
								},
								{
									"internalType": "bytes32",
									"name": "compactPower",
									"type": "bytes32"
								}
							],
							"internalType": "struct VerusObjects.CProofRoot",
							"name": "proofRoot",
							"type": "tuple"
						}
					],
					"internalType": "struct VerusObjects.ProofRoots",
					"name": "_prs",
					"type": "tuple"
				}
			],
			"name": "serializeProofRoots",
			"outputs": [
				{
					"internalType": "bytes",
					"name": "",
					"type": "bytes"
				}
			],
			"stateMutability": "pure",
			"type": "function"
		},
		{
			"inputs": [
				{
					"components": [
						{
							"internalType": "address",
							"name": "currencyId",
							"type": "address"
						},
						{
							"components": [
								{
									"internalType": "int16",
									"name": "version",
									"type": "int16"
								},
								{
									"internalType": "int16",
									"name": "CPRtype",
									"type": "int16"
								},
								{
									"internalType": "address",
									"name": "systemID",
									"type": "address"
								},
								{
									"internalType": "uint32",
									"name": "rootHeight",
									"type": "uint32"
								},
								{
									"internalType": "bytes32",
									"name": "stateRoot",
									"type": "bytes32"
								},
								{
									"internalType": "bytes32",
									"name": "blockHash",
									"type": "bytes32"
								},
								{
									"internalType": "bytes32",
									"name": "compactPower",
									"type": "bytes32"
								}
							],
							"internalType": "struct VerusObjects.CProofRoot",
							"name": "proofRoot",
							"type": "tuple"
						}
					],
					"internalType": "struct VerusObjects.ProofRoots[]",
					"name": "_prsa",
					"type": "tuple[]"
				}
			],
			"name": "serializeProofRootsArray",
			"outputs": [
				{
					"internalType": "bytes",
					"name": "",
					"type": "bytes"
				}
			],
			"stateMutability": "pure",
			"type": "function"
		},
		{
			"inputs": [
				{
					"internalType": "string",
					"name": "anyString",
					"type": "string"
				}
			],
			"name": "serializeString",
			"outputs": [
				{
					"internalType": "bytes",
					"name": "",
					"type": "bytes"
				}
			],
			"stateMutability": "pure",
			"type": "function"
		},
		{
			"inputs": [
				{
					"internalType": "uint16",
					"name": "number",
					"type": "uint16"
				}
			],
			"name": "serializeUint16",
			"outputs": [
				{
					"internalType": "bytes",
					"name": "",
					"type": "bytes"
				}
			],
			"stateMutability": "pure",
			"type": "function"
		},
		{
			"inputs": [
				{
					"internalType": "uint160[]",
					"name": "numbers",
					"type": "uint160[]"
				}
			],
			"name": "serializeUint160Array",
			"outputs": [
				{
					"internalType": "bytes",
					"name": "",
					"type": "bytes"
				}
			],
			"stateMutability": "pure",
			"type": "function"
		},
		{
			"inputs": [
				{
					"internalType": "uint256",
					"name": "number",
					"type": "uint256"
				}
			],
			"name": "serializeUint256",
			"outputs": [
				{
					"internalType": "bytes",
					"name": "",
					"type": "bytes"
				}
			],
			"stateMutability": "pure",
			"type": "function"
		},
		{
			"inputs": [
				{
					"internalType": "uint32",
					"name": "number",
					"type": "uint32"
				}
			],
			"name": "serializeUint32",
			"outputs": [
				{
					"internalType": "bytes",
					"name": "",
					"type": "bytes"
				}
			],
			"stateMutability": "pure",
			"type": "function"
		},
		{
			"inputs": [
				{
					"internalType": "uint64",
					"name": "number",
					"type": "uint64"
				}
			],
			"name": "serializeUint64",
			"outputs": [
				{
					"internalType": "bytes",
					"name": "",
					"type": "bytes"
				}
			],
			"stateMutability": "pure",
			"type": "function"
		},
		{
			"inputs": [
				{
					"internalType": "uint8",
					"name": "number",
					"type": "uint8"
				}
			],
			"name": "serializeUint8",
			"outputs": [
				{
					"internalType": "bytes",
					"name": "",
					"type": "bytes"
				}
			],
			"stateMutability": "pure",
			"type": "function"
		},
		{
			"inputs": [
				{
					"internalType": "string",
					"name": "prefix",
					"type": "string"
				},
				{
					"internalType": "address",
					"name": "systemID",
					"type": "address"
				},
				{
					"internalType": "int64",
					"name": "blockHeight",
					"type": "int64"
				},
				{
					"internalType": "address",
					"name": "signingID",
					"type": "address"
				},
				{
					"internalType": "bytes",
					"name": "messageToHash",
					"type": "bytes"
				}
			],
			"name": "verusHashPrefix",
			"outputs": [
				{
					"internalType": "bytes",
					"name": "",
					"type": "bytes"
				}
			],
			"stateMutability": "pure",
			"type": "function"
		},
		{
			"inputs": [
				{
					"internalType": "uint256",
					"name": "newNumber",
					"type": "uint256"
				}
			],
			"name": "writeCompactSize",
			"outputs": [
				{
					"internalType": "bytes",
					"name": "",
					"type": "bytes"
				}
			],
			"stateMutability": "pure",
			"type": "function"
		},
		{
			"inputs": [
				{
					"internalType": "uint256",
					"name": "incoming",
					"type": "uint256"
				}
			],
			"name": "writeVarInt",
			"outputs": [
				{
					"internalType": "bytes",
					"name": "",
					"type": "bytes"
				}
			],
			"stateMutability": "pure",
			"type": "function"
		}
	]
}