{
	"data": {
		"bytecode": {
			"linkReferences": {},
			"object": "608060405234801561001057600080fd5b506130a0806100206000396000f3fe608060405234801561001057600080fd5b50600436106101d95760003560e01c806385f9098311610104578063c41c134d116100a2578063e4cba54711610071578063e4cba547146106be578063f20fb830146106ee578063f82172951461071e578063fef5906a1461074e576101d9565b8063c41c134d146105fe578063c6f4c2691461062e578063cecb30431461065e578063d40274b21461068e576101d9565b8063af832f09116100de578063af832f091461053e578063b5a0fb241461056e578063b9edc7951461059e578063baa42698146105ce576101d9565b806385f90983146104ae5780639d487b47146104de578063a2e5d8361461050e576101d9565b8063462560071161017c57806357759e151161014b57806357759e15146103ee5780636127b4ff1461041e57806368b4ae811461044e5780636d83f48c1461047e576101d9565b8063462560071461032e578063463276c31461035e57806348352c071461038e578063537b91f5146103be576101d9565b806320907b41116101b857806320907b411461026e578063241d23b21461029e578063253fe4ee146102ce5780633a6ceed9146102fe576101d9565b80629c8152146101de5780631222d81a1461020e578063122e5ae71461023e575b600080fd5b6101f860048036038101906101f39190612180565b61077e565b6040516102059190612b24565b60405180910390f35b610228600480360381019061022391906121d2565b6107a7565b6040516102359190612b24565b60405180910390f35b61025860048036038101906102539190612558565b610878565b6040516102659190612b24565b60405180910390f35b610288600480360381019061028391906123f7565b6108ae565b6040516102959190612b24565b60405180910390f35b6102b860048036038101906102b39190611fd1565b6108f1565b6040516102c59190612b24565b60405180910390f35b6102e860048036038101906102e3919061248a565b610922565b6040516102f59190612b24565b60405180910390f35b61031860048036038101906103139190612310565b610965565b6040516103259190612b24565b60405180910390f35b61034860048036038101906103439190612213565b610a90565b6040516103559190612b24565b60405180910390f35b610378600480360381019061037391906121a9565b610ac6565b6040516103859190612b24565b60405180910390f35b6103a860048036038101906103a391906120bd565b610aef565b6040516103b59190612b24565b60405180910390f35b6103d860048036038101906103d391906123a4565b610b60565b6040516103e59190612b24565b60405180910390f35b610408600480360381019061040391906124dd565b610be9565b6040516104159190612b24565b60405180910390f35b61043860048036038101906104339190612581565b610c1f565b6040516104459190612b24565b60405180910390f35b6104686004803603810190610463919061228e565b610c55565b6040516104759190612b24565b60405180910390f35b61049860048036038101906104939190612449565b610c7e565b6040516104a59190612b24565b60405180910390f35b6104c860048036038101906104c391906122cf565b610cc1565b6040516104d59190612b24565b60405180910390f35b6104f860048036038101906104f39190611ffa565b610d94565b6040516105059190612b24565b60405180910390f35b61052860048036038101906105239190612363565b610dfd565b6040516105359190612b24565b60405180910390f35b61055860048036038101906105539190612265565b610ec1565b6040516105659190612b24565b60405180910390f35b610588600480360381019061058391906120fe565b610ef7565b6040516105959190612b24565b60405180910390f35b6105b860048036038101906105b39190612420565b610f68565b6040516105c59190612b24565b60405180910390f35b6105e860048036038101906105e391906123cd565b610fab565b6040516105f59190612b24565b60405180910390f35b6106186004803603810190610613919061233a565b611034565b6040516106259190612b24565b60405180910390f35b6106486004803603810190610643919061207c565b611077565b6040516106559190612b24565b60405180910390f35b6106786004803603810190610673919061252f565b6110e8565b6040516106859190612b24565b60405180910390f35b6106a860048036038101906106a3919061213f565b61111e565b6040516106b59190612b24565b60405180910390f35b6106d860048036038101906106d391906124b4565b61118f565b6040516106e59190612b24565b60405180910390f35b61070860048036038101906107039190612506565b6111c5565b6040516107159190612b24565b60405180910390f35b6107386004803603810190610733919061203b565b6111fb565b6040516107459190612b24565b60405180910390f35b6107686004803603810190610763919061223c565b611264565b6040516107759190612b24565b60405180910390f35b6060816040516020016107919190612774565b6040516020818303038152906040529050919050565b606060008251905060608167ffffffffffffffff811180156107c857600080fd5b506040519080825280601f01601f1916602001820160405280156107fb5781602001600182028036833780820191505090505b50905060005b8281101561086d57846001828503038151811061081a57fe5b602001015160f81c60f81b82828151811061083157fe5b60200101907effffffffffffffffffffffffffffffffffffffffffffffffffffffffffffff1916908160001a9053508080600101915050610801565b819350505050919050565b6060808260405160200161088c9190612aee565b60405160208183030381529060405290506108a6816107a7565b915050919050565b60606108bd82600001516110e8565b6108ca8360200151610be9565b6040516020016108db9291906127aa565b6040516020818303038152906040529050919050565b606061091b826040516020016109079190612759565b6040516020818303038152906040526107a7565b9050919050565b60606109318260000151610be9565b61093e8360200151610b60565b60405160200161094f9291906127aa565b6040516020818303038152906040529050919050565b6060806109758360000151610c1f565b61098284602001516110e8565b61098f8560400151610be9565b61099c86606001516110e8565b6109a987608001516110e8565b6109b68860a00151610be9565b6109c38960c00151610be9565b6040516020016109d99796959493929190612826565b604051602081830303815290604052905060606109f98460e00151611264565b610a07856101000151611034565b610a15866101200151611034565b610a238761014001516111c5565b610a318861016001516108f1565b610a3f896101800151611264565b604051602001610a54969594939291906127ce565b60405160208183030381529060405290508181604051602001610a789291906127aa565b60405160208183030381529060405292505050919050565b60608082604051602001610aa49190612a1a565b6040516020818303038152906040529050610abe816107a7565b915050919050565b606081604051602001610ad9919061278f565b6040516020818303038152906040529050919050565b606080610afc83516111c5565b905060005b8351811015610b565781610b27858381518110610b1a57fe5b6020026020010151610fab565b604051602001610b389291906127aa565b60405160208183030381529060405291508080600101915050610b01565b5080915050919050565b6060610b6f8260000151610a90565b610b7c8360200151610a90565b610b898460400151610be9565b610b9685606001516110e8565b610ba386608001516111c5565b610bb08760a001516111c5565b610bbd8860c001516111c5565b604051602001610bd39796959493929190612826565b6040516020818303038152906040529050919050565b60608082604051602001610bfd9190612a82565b6040516020818303038152906040529050610c17816107a7565b915050919050565b60608082604051602001610c339190612b09565b6040516020818303038152906040529050610c4d816107a7565b915050919050565b606081604051602001610c689190612a6b565b6040516020818303038152906040529050919050565b6060610c8d8260000151610be9565b610c9a8360200151610cc1565b604051602001610cab9291906127aa565b6040516020818303038152906040529050919050565b6060610cd08260000151610ec1565b610cdd8360200151610ec1565b610cea8460400151610ec1565b610cf78560600151610ec1565b610d0486608001516111fb565b610d118760a001516111fb565b610d1e8860c001516111fb565b610d2b8960e001516111fb565b610d398a61010001516111fb565b610d478b61012001516111fb565b610d558c61014001516111fb565b610d638d6101600151610d94565b604051602001610d7e9c9b9a99989796959493929190612924565b6040516020818303038152906040529050919050565b606080610da183516111c5565b905060005b8351811015610df35781848281518110610dbc57fe5b6020026020010151604051602001610dd59291906129ca565b60405160208183030381529060405291508080600101915050610da6565b5080915050919050565b6060610e0c82600001516110e8565b610e1983602001516110e8565b610e2684604001516108ae565b610e338560600151610be9565b610e4086608001516110e8565b610e4d8760a00151610cc1565b610e5a8860c00151610f68565b610e678960e001516111c5565b610e758a61010001516110e8565b610e838b6101200151610ef7565b610e918c610140015161111e565b604051602001610eab9b9a9998979695949392919061288b565b6040516020818303038152906040529050919050565b60608082604051602001610ed59190612a50565b6040516020818303038152906040529050610eef816107a7565b915050919050565b606080610f0483516111c5565b905060005b8351811015610f5e5781610f2f858381518110610f2257fe5b6020026020010151610c7e565b604051602001610f409291906127aa565b60405160208183030381529060405291508080600101915050610f09565b5080915050919050565b6060610f7782600001516111c5565b610f8483602001516110e8565b604051602001610f959291906127aa565b6040516020818303038152906040529050919050565b6060610fba82600001516110e8565b610fc78360200151611034565b610fd484604001516110e8565b610fe18560600151610be9565b610fee86608001516111c5565b610ffb8760c00151610be9565b6110088860a001516108ae565b60405160200161101e9796959493929190612826565b6040516020818303038152906040529050919050565b60606110438260000151610be9565b6110508360200151610878565b6040516020016110619291906127aa565b6040516020818303038152906040529050919050565b60608061108483516111c5565b905060005b83518110156110de57816110af8583815181106110a257fe5b6020026020010151611034565b6040516020016110c09291906127aa565b60405160208183030381529060405291508080600101915050611089565b5080915050919050565b606080826040516020016110fc9190612ad3565b6040516020818303038152906040529050611116816107a7565b915050919050565b60608061112b83516111c5565b905060005b8351811015611185578161115685838151811061114957fe5b6020026020010151610922565b6040516020016111679291906127aa565b60405160208183030381529060405291508080600101915050611130565b5080915050919050565b606080826040516020016111a39190612a9d565b60405160208183030381529060405290506111bd816107a7565b915050919050565b606080826040516020016111d99190612ab8565b60405160208183030381529060405290506111f3816107a7565b915050919050565b60608061120883516111c5565b905060005b835181101561125a578184828151811061122357fe5b602002602001015160405160200161123c9291906129f2565b6040516020818303038152906040529150808060010191505061120d565b5080915050919050565b606080826040516020016112789190612a35565b6040516020818303038152906040529050611292816107a7565b915050919050565b6000813590506112a981612f56565b92915050565b600082601f8301126112c057600080fd5b81356112d36112ce82612b73565b612b46565b915081818352602084019350602081019050838560208402820111156112f857600080fd5b60005b83811015611328578161130e88826116bd565b8452602084019350602083019250506001810190506112fb565b5050505092915050565b600082601f83011261134357600080fd5b813561135661135182612b9b565b612b46565b9150818183526020840193506020810190508385602084028201111561137b57600080fd5b60005b838110156113ab578161139188826116d2565b84526020840193506020830192505060018101905061137e565b5050505092915050565b600082601f8301126113c657600080fd5b81356113d96113d482612bc3565b612b46565b915081818352602084019350602081019050838560408402820111156113fe57600080fd5b60005b8381101561142e57816114148882611a4d565b845260208401935060408301925050600181019050611401565b5050505092915050565b600082601f83011261144957600080fd5b813561145c61145782612beb565b612b46565b9150818183526020840193506020810190508360005b838110156114a257813586016114888882611a99565b845260208401935060208301925050600181019050611472565b5050505092915050565b600082601f8301126114bd57600080fd5b81356114d06114cb82612c13565b612b46565b91508181835260208401935060208101905083856101608402820111156114f657600080fd5b60005b83811015611527578161150c8882611d2c565b845260208401935061016083019250506001810190506114f9565b5050505092915050565b600082601f83011261154257600080fd5b813561155561155082612c3b565b612b46565b9150818183526020840193506020810190508360005b8381101561159b57813586016115818882611ea2565b84526020840193506020830192505060018101905061156b565b5050505092915050565b600082601f8301126115b657600080fd5b81356115c96115c482612c63565b612b46565b91508181835260208401935060208101905083856101008402820111156115ef57600080fd5b60005b8381101561162057816116058882611f06565b845260208401935061010083019250506001810190506115f2565b5050505092915050565b60008135905061163981612f6d565b92915050565b60008135905061164e81612f84565b92915050565b600082601f83011261166557600080fd5b813561167861167382612c8b565b612b46565b9150808252602083016020830185838301111561169457600080fd5b61169f838284612dfa565b50505092915050565b6000813590506116b781612f9b565b92915050565b6000813590506116cc81612fb2565b92915050565b6000813590506116e181612fc9565b92915050565b600082601f8301126116f857600080fd5b813561170b61170682612cb7565b612b46565b9150808252602083016020830185838301111561172757600080fd5b611732838284612dfa565b50505092915050565b6000610180828403121561174e57600080fd5b611759610180612b46565b90506000611769848285016116d2565b600083015250602061177d848285016116d2565b6020830152506040611791848285016116d2565b60408301525060606117a5848285016116d2565b606083015250608082013567ffffffffffffffff8111156117c557600080fd5b6117d184828501611332565b60808301525060a082013567ffffffffffffffff8111156117f157600080fd5b6117fd84828501611332565b60a08301525060c082013567ffffffffffffffff81111561181d57600080fd5b61182984828501611332565b60c08301525060e082013567ffffffffffffffff81111561184957600080fd5b61185584828501611332565b60e08301525061010082013567ffffffffffffffff81111561187657600080fd5b61188284828501611332565b6101008301525061012082013567ffffffffffffffff8111156118a457600080fd5b6118b084828501611332565b6101208301525061014082013567ffffffffffffffff8111156118d257600080fd5b6118de84828501611332565b6101408301525061016082013567ffffffffffffffff81111561190057600080fd5b61190c848285016112af565b6101608301525092915050565b60006101e0828403121561192c57600080fd5b6119376101a0612b46565b9050600061194784828501611fbc565b600083015250602061195b84828501611f92565b602083015250604061196f84828501611f68565b604083015250606061198384828501611f92565b606083015250608061199784828501611f92565b60808301525060a06119ab84828501611f68565b60a08301525060c06119bf84828501611f68565b60c08301525060e06119d3848285016116bd565b60e0830152506101006119e884828501611a4d565b610100830152506101406119fe84828501611a4d565b61012083015250610180611a1484828501611f7d565b610140830152506101a0611a2a8482850161129a565b610160830152506101c0611a40848285016116bd565b6101808301525092915050565b600060408284031215611a5f57600080fd5b611a696040612b46565b90506000611a7984828501611f68565b6000830152506020611a8d84828501611fa7565b60208301525092915050565b600060408284031215611aab57600080fd5b611ab56040612b46565b9050600082013567ffffffffffffffff811115611ad157600080fd5b611add848285016116e7565b6000830152506020611af184828501611f68565b60208301525092915050565b60006101c08284031215611b1057600080fd5b611b1b610180612b46565b90506000611b2b84828501611f92565b6000830152506020611b3f84828501611f92565b6020830152506040611b5384828501611e0a565b6040830152506080611b6784828501611f68565b60608301525060a0611b7b84828501611f92565b60808301525060c082013567ffffffffffffffff811115611b9b57600080fd5b611ba78482850161173b565b60a08301525060e0611bbb84828501611e56565b60c083015250610120611bd084828501611f7d565b60e083015250610140611be584828501611f92565b6101008301525061016082013567ffffffffffffffff811115611c0757600080fd5b611c1384828501611531565b6101208301525061018082013567ffffffffffffffff811115611c3557600080fd5b611c41848285016115a5565b610140830152506101a082013567ffffffffffffffff811115611c6357600080fd5b611c6f84828501611438565b6101608301525092915050565b600060e08284031215611c8e57600080fd5b611c9860e0612b46565b90506000611ca8848285016116a8565b6000830152506020611cbc848285016116a8565b6020830152506040611cd084828501611f68565b6040830152506060611ce484828501611f92565b6060830152506080611cf884828501611f7d565b60808301525060a0611d0c84828501611f7d565b60a08301525060c0611d2084828501611f7d565b60c08301525092915050565b60006101608284031215611d3f57600080fd5b611d4a610120612b46565b90506000611d5a84828501611f92565b6000830152506020611d6e84828501611a4d565b6020830152506060611d8284828501611f92565b6040830152506080611d9684828501611f68565b60608301525060a0611daa84828501611f7d565b60808301525060c0611dbe84828501611e0a565b60a083015250610100611dd384828501611f68565b60c083015250610120611de884828501611f68565b60e083015250610140611dfd84828501611f68565b6101008301525092915050565b600060408284031215611e1c57600080fd5b611e266040612b46565b90506000611e3684828501611f92565b6000830152506020611e4a84828501611f68565b60208301525092915050565b600060408284031215611e6857600080fd5b611e726040612b46565b90506000611e8284828501611f7d565b6000830152506020611e9684828501611f92565b60208301525092915050565b600060408284031215611eb457600080fd5b611ebe6040612b46565b90506000611ece84828501611f68565b600083015250602082013567ffffffffffffffff811115611eee57600080fd5b611efa8482850161173b565b60208301525092915050565b60006101008284031215611f1957600080fd5b611f236040612b46565b90506000611f3384828501611f68565b6000830152506020611f4784828501611c7c565b60208301525092915050565b600081359050611f6281612fe0565b92915050565b600081359050611f7781612ff7565b92915050565b600081359050611f8c8161300e565b92915050565b600081359050611fa181613025565b92915050565b600081359050611fb68161303c565b92915050565b600081359050611fcb81613053565b92915050565b600060208284031215611fe357600080fd5b6000611ff18482850161129a565b91505092915050565b60006020828403121561200c57600080fd5b600082013567ffffffffffffffff81111561202657600080fd5b612032848285016112af565b91505092915050565b60006020828403121561204d57600080fd5b600082013567ffffffffffffffff81111561206757600080fd5b61207384828501611332565b91505092915050565b60006020828403121561208e57600080fd5b600082013567ffffffffffffffff8111156120a857600080fd5b6120b4848285016113b5565b91505092915050565b6000602082840312156120cf57600080fd5b600082013567ffffffffffffffff8111156120e957600080fd5b6120f5848285016114ac565b91505092915050565b60006020828403121561211057600080fd5b600082013567ffffffffffffffff81111561212a57600080fd5b61213684828501611531565b91505092915050565b60006020828403121561215157600080fd5b600082013567ffffffffffffffff81111561216b57600080fd5b612177848285016115a5565b91505092915050565b60006020828403121561219257600080fd5b60006121a08482850161162a565b91505092915050565b6000602082840312156121bb57600080fd5b60006121c98482850161163f565b91505092915050565b6000602082840312156121e457600080fd5b600082013567ffffffffffffffff8111156121fe57600080fd5b61220a84828501611654565b91505092915050565b60006020828403121561222557600080fd5b6000612233848285016116a8565b91505092915050565b60006020828403121561224e57600080fd5b600061225c848285016116bd565b91505092915050565b60006020828403121561227757600080fd5b6000612285848285016116d2565b91505092915050565b6000602082840312156122a057600080fd5b600082013567ffffffffffffffff8111156122ba57600080fd5b6122c6848285016116e7565b91505092915050565b6000602082840312156122e157600080fd5b600082013567ffffffffffffffff8111156122fb57600080fd5b6123078482850161173b565b91505092915050565b60006101e0828403121561232357600080fd5b600061233184828501611919565b91505092915050565b60006040828403121561234c57600080fd5b600061235a84828501611a4d565b91505092915050565b60006020828403121561237557600080fd5b600082013567ffffffffffffffff81111561238f57600080fd5b61239b84828501611afd565b91505092915050565b600060e082840312156123b657600080fd5b60006123c484828501611c7c565b91505092915050565b600061016082840312156123e057600080fd5b60006123ee84828501611d2c565b91505092915050565b60006040828403121561240957600080fd5b600061241784828501611e0a565b91505092915050565b60006040828403121561243257600080fd5b600061244084828501611e56565b91505092915050565b60006020828403121561245b57600080fd5b600082013567ffffffffffffffff81111561247557600080fd5b61248184828501611ea2565b91505092915050565b6000610100828403121561249d57600080fd5b60006124ab84828501611f06565b91505092915050565b6000602082840312156124c657600080fd5b60006124d484828501611f53565b91505092915050565b6000602082840312156124ef57600080fd5b60006124fd84828501611f68565b91505092915050565b60006020828403121561251857600080fd5b600061252684828501611f7d565b91505092915050565b60006020828403121561254157600080fd5b600061254f84828501611f92565b91505092915050565b60006020828403121561256a57600080fd5b600061257884828501611fa7565b91505092915050565b60006020828403121561259357600080fd5b60006125a184828501611fbc565b91505092915050565b6125bb6125b682612d20565b612e3c565b82525050565b6125d26125cd82612d32565b612e4e565b82525050565b6125e96125e482612d3e565b612e60565b82525050565b60006125fa82612ce3565b6126048185612cf9565b9350612614818560208601612e09565b61261d81612f04565b840191505092915050565b600061263382612ce3565b61263d8185612d0a565b935061264d818560208601612e09565b80840191505092915050565b61266a61266582612d6a565b612e6a565b82525050565b61268161267c82612d77565b612e7c565b82525050565b61269861269382612d84565b612e8e565b82525050565b60006126a982612cee565b6126b38185612d15565b93506126c3818560208601612e09565b80840191505092915050565b6126e06126db82612d9f565b612eb2565b82525050565b6126f76126f282612d91565b612ea0565b82525050565b61270e61270982612dbf565b612ec4565b82525050565b61272561272082612dc9565b612ece565b82525050565b61273c61273782612dd9565b612ee0565b82525050565b61275361274e82612ded565b612ef2565b82525050565b600061276582846125aa565b60148201915081905092915050565b600061278082846125c1565b60018201915081905092915050565b600061279b82846125d8565b60148201915081905092915050565b60006127b68285612628565b91506127c28284612628565b91508190509392505050565b60006127da8289612628565b91506127e68288612628565b91506127f28287612628565b91506127fe8286612628565b915061280a8285612628565b91506128168284612628565b9150819050979650505050505050565b6000612832828a612628565b915061283e8289612628565b915061284a8288612628565b91506128568287612628565b91506128628286612628565b915061286e8285612628565b915061287a8284612628565b915081905098975050505050505050565b6000612897828e612628565b91506128a3828d612628565b91506128af828c612628565b91506128bb828b612628565b91506128c7828a612628565b91506128d38289612628565b91506128df8288612628565b91506128eb8287612628565b91506128f78286612628565b91506129038285612628565b915061290f8284612628565b91508190509c9b505050505050505050505050565b6000612930828f612628565b915061293c828e612628565b9150612948828d612628565b9150612954828c612628565b9150612960828b612628565b915061296c828a612628565b91506129788289612628565b91506129848288612628565b91506129908287612628565b915061299c8286612628565b91506129a88285612628565b91506129b48284612628565b91508190509d9c50505050505050505050505050565b60006129d68285612628565b91506129e28284612670565b6004820191508190509392505050565b60006129fe8285612628565b9150612a0a8284612687565b6008820191508190509392505050565b6000612a268284612659565b60028201915081905092915050565b6000612a418284612670565b60048201915081905092915050565b6000612a5c8284612687565b60088201915081905092915050565b6000612a77828461269e565b915081905092915050565b6000612a8e82846126cf565b60148201915081905092915050565b6000612aa982846126e6565b60028201915081905092915050565b6000612ac482846126fd565b60208201915081905092915050565b6000612adf8284612714565b60048201915081905092915050565b6000612afa828461272b565b60088201915081905092915050565b6000612b158284612742565b60018201915081905092915050565b60006020820190508181036000830152612b3e81846125ef565b905092915050565b6000604051905081810181811067ffffffffffffffff82111715612b6957600080fd5b8060405250919050565b600067ffffffffffffffff821115612b8a57600080fd5b602082029050602081019050919050565b600067ffffffffffffffff821115612bb257600080fd5b602082029050602081019050919050565b600067ffffffffffffffff821115612bda57600080fd5b602082029050602081019050919050565b600067ffffffffffffffff821115612c0257600080fd5b602082029050602081019050919050565b600067ffffffffffffffff821115612c2a57600080fd5b602082029050602081019050919050565b600067ffffffffffffffff821115612c5257600080fd5b602082029050602081019050919050565b600067ffffffffffffffff821115612c7a57600080fd5b602082029050602081019050919050565b600067ffffffffffffffff821115612ca257600080fd5b601f19601f8301169050602081019050919050565b600067ffffffffffffffff821115612cce57600080fd5b601f19601f8301169050602081019050919050565b600081519050919050565b600081519050919050565b600082825260208201905092915050565b600081905092915050565b600081905092915050565b6000612d2b82612d9f565b9050919050565b60008115159050919050565b60007fffffffffffffffffffffffffffffffffffffffff00000000000000000000000082169050919050565b60008160010b9050919050565b60008160030b9050919050565b60008160070b9050919050565b600061ffff82169050919050565b600073ffffffffffffffffffffffffffffffffffffffff82169050919050565b6000819050919050565b600063ffffffff82169050919050565b600067ffffffffffffffff82169050919050565b600060ff82169050919050565b82818337600083830152505050565b60005b83811015612e27578082015181840152602081019050612e0c565b83811115612e36576000848401525b50505050565b6000612e4782612eb2565b9050919050565b6000612e5982612ef2565b9050919050565b6000819050919050565b6000612e7582612f2f565b9050919050565b6000612e8782612f22565b9050919050565b6000612e9982612f15565b9050919050565b6000612eab82612f2f565b9050919050565b6000612ebd82612f49565b9050919050565b6000819050919050565b6000612ed982612f22565b9050919050565b6000612eeb82612f15565b9050919050565b6000612efd82612f3c565b9050919050565b6000601f19601f8301169050919050565b60008160c01b9050919050565b60008160e01b9050919050565b60008160f01b9050919050565b60008160f81b9050919050565b60008160601b9050919050565b612f5f81612d20565b8114612f6a57600080fd5b50565b612f7681612d32565b8114612f8157600080fd5b50565b612f8d81612d3e565b8114612f9857600080fd5b50565b612fa481612d6a565b8114612faf57600080fd5b50565b612fbb81612d77565b8114612fc657600080fd5b50565b612fd281612d84565b8114612fdd57600080fd5b50565b612fe981612d91565b8114612ff457600080fd5b50565b61300081612d9f565b811461300b57600080fd5b50565b61301781612dbf565b811461302257600080fd5b50565b61302e81612dc9565b811461303957600080fd5b50565b61304581612dd9565b811461305057600080fd5b50565b61305c81612ded565b811461306757600080fd5b5056fea2646970667358221220910b0210be254d14ba459519413c7c778e6581ab768193df63af900bc998b7cb64736f6c634300060c0033",
			"opcodes": "PUSH1 0x80 PUSH1 0x40 MSTORE CALLVALUE DUP1 ISZERO PUSH2 0x10 JUMPI PUSH1 0x0 DUP1 REVERT JUMPDEST POP PUSH2 0x30A0 DUP1 PUSH2 0x20 PUSH1 0x0 CODECOPY PUSH1 0x0 RETURN INVALID PUSH1 0x80 PUSH1 0x40 MSTORE CALLVALUE DUP1 ISZERO PUSH2 0x10 JUMPI PUSH1 0x0 DUP1 REVERT JUMPDEST POP PUSH1 0x4 CALLDATASIZE LT PUSH2 0x1D9 JUMPI PUSH1 0x0 CALLDATALOAD PUSH1 0xE0 SHR DUP1 PUSH4 0x85F90983 GT PUSH2 0x104 JUMPI DUP1 PUSH4 0xC41C134D GT PUSH2 0xA2 JUMPI DUP1 PUSH4 0xE4CBA547 GT PUSH2 0x71 JUMPI DUP1 PUSH4 0xE4CBA547 EQ PUSH2 0x6BE JUMPI DUP1 PUSH4 0xF20FB830 EQ PUSH2 0x6EE JUMPI DUP1 PUSH4 0xF8217295 EQ PUSH2 0x71E JUMPI DUP1 PUSH4 0xFEF5906A EQ PUSH2 0x74E JUMPI PUSH2 0x1D9 JUMP JUMPDEST DUP1 PUSH4 0xC41C134D EQ PUSH2 0x5FE JUMPI DUP1 PUSH4 0xC6F4C269 EQ PUSH2 0x62E JUMPI DUP1 PUSH4 0xCECB3043 EQ PUSH2 0x65E JUMPI DUP1 PUSH4 0xD40274B2 EQ PUSH2 0x68E JUMPI PUSH2 0x1D9 JUMP JUMPDEST DUP1 PUSH4 0xAF832F09 GT PUSH2 0xDE JUMPI DUP1 PUSH4 0xAF832F09 EQ PUSH2 0x53E JUMPI DUP1 PUSH4 0xB5A0FB24 EQ PUSH2 0x56E JUMPI DUP1 PUSH4 0xB9EDC795 EQ PUSH2 0x59E JUMPI DUP1 PUSH4 0xBAA42698 EQ PUSH2 0x5CE JUMPI PUSH2 0x1D9 JUMP JUMPDEST DUP1 PUSH4 0x85F90983 EQ PUSH2 0x4AE JUMPI DUP1 PUSH4 0x9D487B47 EQ PUSH2 0x4DE JUMPI DUP1 PUSH4 0xA2E5D836 EQ PUSH2 0x50E JUMPI PUSH2 0x1D9 JUMP JUMPDEST DUP1 PUSH4 0x46256007 GT PUSH2 0x17C JUMPI DUP1 PUSH4 0x57759E15 GT PUSH2 0x14B JUMPI DUP1 PUSH4 0x57759E15 EQ PUSH2 0x3EE JUMPI DUP1 PUSH4 0x6127B4FF EQ PUSH2 0x41E JUMPI DUP1 PUSH4 0x68B4AE81 EQ PUSH2 0x44E JUMPI DUP1 PUSH4 0x6D83F48C EQ PUSH2 0x47E JUMPI PUSH2 0x1D9 JUMP JUMPDEST DUP1 PUSH4 0x46256007 EQ PUSH2 0x32E JUMPI DUP1 PUSH4 0x463276C3 EQ PUSH2 0x35E JUMPI DUP1 PUSH4 0x48352C07 EQ PUSH2 0x38E JUMPI DUP1 PUSH4 0x537B91F5 EQ PUSH2 0x3BE JUMPI PUSH2 0x1D9 JUMP JUMPDEST DUP1 PUSH4 0x20907B41 GT PUSH2 0x1B8 JUMPI DUP1 PUSH4 0x20907B41 EQ PUSH2 0x26E JUMPI DUP1 PUSH4 0x241D23B2 EQ PUSH2 0x29E JUMPI DUP1 PUSH4 0x253FE4EE EQ PUSH2 0x2CE JUMPI DUP1 PUSH4 0x3A6CEED9 EQ PUSH2 0x2FE JUMPI PUSH2 0x1D9 JUMP JUMPDEST DUP1 PUSH3 0x9C8152 EQ PUSH2 0x1DE JUMPI DUP1 PUSH4 0x1222D81A EQ PUSH2 0x20E JUMPI DUP1 PUSH4 0x122E5AE7 EQ PUSH2 0x23E JUMPI JUMPDEST PUSH1 0x0 DUP1 REVERT JUMPDEST PUSH2 0x1F8 PUSH1 0x4 DUP1 CALLDATASIZE SUB DUP2 ADD SWAP1 PUSH2 0x1F3 SWAP2 SWAP1 PUSH2 0x2180 JUMP JUMPDEST PUSH2 0x77E JUMP JUMPDEST PUSH1 0x40 MLOAD PUSH2 0x205 SWAP2 SWAP1 PUSH2 0x2B24 JUMP JUMPDEST PUSH1 0x40 MLOAD DUP1 SWAP2 SUB SWAP1 RETURN JUMPDEST PUSH2 0x228 PUSH1 0x4 DUP1 CALLDATASIZE SUB DUP2 ADD SWAP1 PUSH2 0x223 SWAP2 SWAP1 PUSH2 0x21D2 JUMP JUMPDEST PUSH2 0x7A7 JUMP JUMPDEST PUSH1 0x40 MLOAD PUSH2 0x235 SWAP2 SWAP1 PUSH2 0x2B24 JUMP JUMPDEST PUSH1 0x40 MLOAD DUP1 SWAP2 SUB SWAP1 RETURN JUMPDEST PUSH2 0x258 PUSH1 0x4 DUP1 CALLDATASIZE SUB DUP2 ADD SWAP1 PUSH2 0x253 SWAP2 SWAP1 PUSH2 0x2558 JUMP JUMPDEST PUSH2 0x878 JUMP JUMPDEST PUSH1 0x40 MLOAD PUSH2 0x265 SWAP2 SWAP1 PUSH2 0x2B24 JUMP JUMPDEST PUSH1 0x40 MLOAD DUP1 SWAP2 SUB SWAP1 RETURN JUMPDEST PUSH2 0x288 PUSH1 0x4 DUP1 CALLDATASIZE SUB DUP2 ADD SWAP1 PUSH2 0x283 SWAP2 SWAP1 PUSH2 0x23F7 JUMP JUMPDEST PUSH2 0x8AE JUMP JUMPDEST PUSH1 0x40 MLOAD PUSH2 0x295 SWAP2 SWAP1 PUSH2 0x2B24 JUMP JUMPDEST PUSH1 0x40 MLOAD DUP1 SWAP2 SUB SWAP1 RETURN JUMPDEST PUSH2 0x2B8 PUSH1 0x4 DUP1 CALLDATASIZE SUB DUP2 ADD SWAP1 PUSH2 0x2B3 SWAP2 SWAP1 PUSH2 0x1FD1 JUMP JUMPDEST PUSH2 0x8F1 JUMP JUMPDEST PUSH1 0x40 MLOAD PUSH2 0x2C5 SWAP2 SWAP1 PUSH2 0x2B24 JUMP JUMPDEST PUSH1 0x40 MLOAD DUP1 SWAP2 SUB SWAP1 RETURN JUMPDEST PUSH2 0x2E8 PUSH1 0x4 DUP1 CALLDATASIZE SUB DUP2 ADD SWAP1 PUSH2 0x2E3 SWAP2 SWAP1 PUSH2 0x248A JUMP JUMPDEST PUSH2 0x922 JUMP JUMPDEST PUSH1 0x40 MLOAD PUSH2 0x2F5 SWAP2 SWAP1 PUSH2 0x2B24 JUMP JUMPDEST PUSH1 0x40 MLOAD DUP1 SWAP2 SUB SWAP1 RETURN JUMPDEST PUSH2 0x318 PUSH1 0x4 DUP1 CALLDATASIZE SUB DUP2 ADD SWAP1 PUSH2 0x313 SWAP2 SWAP1 PUSH2 0x2310 JUMP JUMPDEST PUSH2 0x965 JUMP JUMPDEST PUSH1 0x40 MLOAD PUSH2 0x325 SWAP2 SWAP1 PUSH2 0x2B24 JUMP JUMPDEST PUSH1 0x40 MLOAD DUP1 SWAP2 SUB SWAP1 RETURN JUMPDEST PUSH2 0x348 PUSH1 0x4 DUP1 CALLDATASIZE SUB DUP2 ADD SWAP1 PUSH2 0x343 SWAP2 SWAP1 PUSH2 0x2213 JUMP JUMPDEST PUSH2 0xA90 JUMP JUMPDEST PUSH1 0x40 MLOAD PUSH2 0x355 SWAP2 SWAP1 PUSH2 0x2B24 JUMP JUMPDEST PUSH1 0x40 MLOAD DUP1 SWAP2 SUB SWAP1 RETURN JUMPDEST PUSH2 0x378 PUSH1 0x4 DUP1 CALLDATASIZE SUB DUP2 ADD SWAP1 PUSH2 0x373 SWAP2 SWAP1 PUSH2 0x21A9 JUMP JUMPDEST PUSH2 0xAC6 JUMP JUMPDEST PUSH1 0x40 MLOAD PUSH2 0x385 SWAP2 SWAP1 PUSH2 0x2B24 JUMP JUMPDEST PUSH1 0x40 MLOAD DUP1 SWAP2 SUB SWAP1 RETURN JUMPDEST PUSH2 0x3A8 PUSH1 0x4 DUP1 CALLDATASIZE SUB DUP2 ADD SWAP1 PUSH2 0x3A3 SWAP2 SWAP1 PUSH2 0x20BD JUMP JUMPDEST PUSH2 0xAEF JUMP JUMPDEST PUSH1 0x40 MLOAD PUSH2 0x3B5 SWAP2 SWAP1 PUSH2 0x2B24 JUMP JUMPDEST PUSH1 0x40 MLOAD DUP1 SWAP2 SUB SWAP1 RETURN JUMPDEST PUSH2 0x3D8 PUSH1 0x4 DUP1 CALLDATASIZE SUB DUP2 ADD SWAP1 PUSH2 0x3D3 SWAP2 SWAP1 PUSH2 0x23A4 JUMP JUMPDEST PUSH2 0xB60 JUMP JUMPDEST PUSH1 0x40 MLOAD PUSH2 0x3E5 SWAP2 SWAP1 PUSH2 0x2B24 JUMP JUMPDEST PUSH1 0x40 MLOAD DUP1 SWAP2 SUB SWAP1 RETURN JUMPDEST PUSH2 0x408 PUSH1 0x4 DUP1 CALLDATASIZE SUB DUP2 ADD SWAP1 PUSH2 0x403 SWAP2 SWAP1 PUSH2 0x24DD JUMP JUMPDEST PUSH2 0xBE9 JUMP JUMPDEST PUSH1 0x40 MLOAD PUSH2 0x415 SWAP2 SWAP1 PUSH2 0x2B24 JUMP JUMPDEST PUSH1 0x40 MLOAD DUP1 SWAP2 SUB SWAP1 RETURN JUMPDEST PUSH2 0x438 PUSH1 0x4 DUP1 CALLDATASIZE SUB DUP2 ADD SWAP1 PUSH2 0x433 SWAP2 SWAP1 PUSH2 0x2581 JUMP JUMPDEST PUSH2 0xC1F JUMP JUMPDEST PUSH1 0x40 MLOAD PUSH2 0x445 SWAP2 SWAP1 PUSH2 0x2B24 JUMP JUMPDEST PUSH1 0x40 MLOAD DUP1 SWAP2 SUB SWAP1 RETURN JUMPDEST PUSH2 0x468 PUSH1 0x4 DUP1 CALLDATASIZE SUB DUP2 ADD SWAP1 PUSH2 0x463 SWAP2 SWAP1 PUSH2 0x228E JUMP JUMPDEST PUSH2 0xC55 JUMP JUMPDEST PUSH1 0x40 MLOAD PUSH2 0x475 SWAP2 SWAP1 PUSH2 0x2B24 JUMP JUMPDEST PUSH1 0x40 MLOAD DUP1 SWAP2 SUB SWAP1 RETURN JUMPDEST PUSH2 0x498 PUSH1 0x4 DUP1 CALLDATASIZE SUB DUP2 ADD SWAP1 PUSH2 0x493 SWAP2 SWAP1 PUSH2 0x2449 JUMP JUMPDEST PUSH2 0xC7E JUMP JUMPDEST PUSH1 0x40 MLOAD PUSH2 0x4A5 SWAP2 SWAP1 PUSH2 0x2B24 JUMP JUMPDEST PUSH1 0x40 MLOAD DUP1 SWAP2 SUB SWAP1 RETURN JUMPDEST PUSH2 0x4C8 PUSH1 0x4 DUP1 CALLDATASIZE SUB DUP2 ADD SWAP1 PUSH2 0x4C3 SWAP2 SWAP1 PUSH2 0x22CF JUMP JUMPDEST PUSH2 0xCC1 JUMP JUMPDEST PUSH1 0x40 MLOAD PUSH2 0x4D5 SWAP2 SWAP1 PUSH2 0x2B24 JUMP JUMPDEST PUSH1 0x40 MLOAD DUP1 SWAP2 SUB SWAP1 RETURN JUMPDEST PUSH2 0x4F8 PUSH1 0x4 DUP1 CALLDATASIZE SUB DUP2 ADD SWAP1 PUSH2 0x4F3 SWAP2 SWAP1 PUSH2 0x1FFA JUMP JUMPDEST PUSH2 0xD94 JUMP JUMPDEST PUSH1 0x40 MLOAD PUSH2 0x505 SWAP2 SWAP1 PUSH2 0x2B24 JUMP JUMPDEST PUSH1 0x40 MLOAD DUP1 SWAP2 SUB SWAP1 RETURN JUMPDEST PUSH2 0x528 PUSH1 0x4 DUP1 CALLDATASIZE SUB DUP2 ADD SWAP1 PUSH2 0x523 SWAP2 SWAP1 PUSH2 0x2363 JUMP JUMPDEST PUSH2 0xDFD JUMP JUMPDEST PUSH1 0x40 MLOAD PUSH2 0x535 SWAP2 SWAP1 PUSH2 0x2B24 JUMP JUMPDEST PUSH1 0x40 MLOAD DUP1 SWAP2 SUB SWAP1 RETURN JUMPDEST PUSH2 0x558 PUSH1 0x4 DUP1 CALLDATASIZE SUB DUP2 ADD SWAP1 PUSH2 0x553 SWAP2 SWAP1 PUSH2 0x2265 JUMP JUMPDEST PUSH2 0xEC1 JUMP JUMPDEST PUSH1 0x40 MLOAD PUSH2 0x565 SWAP2 SWAP1 PUSH2 0x2B24 JUMP JUMPDEST PUSH1 0x40 MLOAD DUP1 SWAP2 SUB SWAP1 RETURN JUMPDEST PUSH2 0x588 PUSH1 0x4 DUP1 CALLDATASIZE SUB DUP2 ADD SWAP1 PUSH2 0x583 SWAP2 SWAP1 PUSH2 0x20FE JUMP JUMPDEST PUSH2 0xEF7 JUMP JUMPDEST PUSH1 0x40 MLOAD PUSH2 0x595 SWAP2 SWAP1 PUSH2 0x2B24 JUMP JUMPDEST PUSH1 0x40 MLOAD DUP1 SWAP2 SUB SWAP1 RETURN JUMPDEST PUSH2 0x5B8 PUSH1 0x4 DUP1 CALLDATASIZE SUB DUP2 ADD SWAP1 PUSH2 0x5B3 SWAP2 SWAP1 PUSH2 0x2420 JUMP JUMPDEST PUSH2 0xF68 JUMP JUMPDEST PUSH1 0x40 MLOAD PUSH2 0x5C5 SWAP2 SWAP1 PUSH2 0x2B24 JUMP JUMPDEST PUSH1 0x40 MLOAD DUP1 SWAP2 SUB SWAP1 RETURN JUMPDEST PUSH2 0x5E8 PUSH1 0x4 DUP1 CALLDATASIZE SUB DUP2 ADD SWAP1 PUSH2 0x5E3 SWAP2 SWAP1 PUSH2 0x23CD JUMP JUMPDEST PUSH2 0xFAB JUMP JUMPDEST PUSH1 0x40 MLOAD PUSH2 0x5F5 SWAP2 SWAP1 PUSH2 0x2B24 JUMP JUMPDEST PUSH1 0x40 MLOAD DUP1 SWAP2 SUB SWAP1 RETURN JUMPDEST PUSH2 0x618 PUSH1 0x4 DUP1 CALLDATASIZE SUB DUP2 ADD SWAP1 PUSH2 0x613 SWAP2 SWAP1 PUSH2 0x233A JUMP JUMPDEST PUSH2 0x1034 JUMP JUMPDEST PUSH1 0x40 MLOAD PUSH2 0x625 SWAP2 SWAP1 PUSH2 0x2B24 JUMP JUMPDEST PUSH1 0x40 MLOAD DUP1 SWAP2 SUB SWAP1 RETURN JUMPDEST PUSH2 0x648 PUSH1 0x4 DUP1 CALLDATASIZE SUB DUP2 ADD SWAP1 PUSH2 0x643 SWAP2 SWAP1 PUSH2 0x207C JUMP JUMPDEST PUSH2 0x1077 JUMP JUMPDEST PUSH1 0x40 MLOAD PUSH2 0x655 SWAP2 SWAP1 PUSH2 0x2B24 JUMP JUMPDEST PUSH1 0x40 MLOAD DUP1 SWAP2 SUB SWAP1 RETURN JUMPDEST PUSH2 0x678 PUSH1 0x4 DUP1 CALLDATASIZE SUB DUP2 ADD SWAP1 PUSH2 0x673 SWAP2 SWAP1 PUSH2 0x252F JUMP JUMPDEST PUSH2 0x10E8 JUMP JUMPDEST PUSH1 0x40 MLOAD PUSH2 0x685 SWAP2 SWAP1 PUSH2 0x2B24 JUMP JUMPDEST PUSH1 0x40 MLOAD DUP1 SWAP2 SUB SWAP1 RETURN JUMPDEST PUSH2 0x6A8 PUSH1 0x4 DUP1 CALLDATASIZE SUB DUP2 ADD SWAP1 PUSH2 0x6A3 SWAP2 SWAP1 PUSH2 0x213F JUMP JUMPDEST PUSH2 0x111E JUMP JUMPDEST PUSH1 0x40 MLOAD PUSH2 0x6B5 SWAP2 SWAP1 PUSH2 0x2B24 JUMP JUMPDEST PUSH1 0x40 MLOAD DUP1 SWAP2 SUB SWAP1 RETURN JUMPDEST PUSH2 0x6D8 PUSH1 0x4 DUP1 CALLDATASIZE SUB DUP2 ADD SWAP1 PUSH2 0x6D3 SWAP2 SWAP1 PUSH2 0x24B4 JUMP JUMPDEST PUSH2 0x118F JUMP JUMPDEST PUSH1 0x40 MLOAD PUSH2 0x6E5 SWAP2 SWAP1 PUSH2 0x2B24 JUMP JUMPDEST PUSH1 0x40 MLOAD DUP1 SWAP2 SUB SWAP1 RETURN JUMPDEST PUSH2 0x708 PUSH1 0x4 DUP1 CALLDATASIZE SUB DUP2 ADD SWAP1 PUSH2 0x703 SWAP2 SWAP1 PUSH2 0x2506 JUMP JUMPDEST PUSH2 0x11C5 JUMP JUMPDEST PUSH1 0x40 MLOAD PUSH2 0x715 SWAP2 SWAP1 PUSH2 0x2B24 JUMP JUMPDEST PUSH1 0x40 MLOAD DUP1 SWAP2 SUB SWAP1 RETURN JUMPDEST PUSH2 0x738 PUSH1 0x4 DUP1 CALLDATASIZE SUB DUP2 ADD SWAP1 PUSH2 0x733 SWAP2 SWAP1 PUSH2 0x203B JUMP JUMPDEST PUSH2 0x11FB JUMP JUMPDEST PUSH1 0x40 MLOAD PUSH2 0x745 SWAP2 SWAP1 PUSH2 0x2B24 JUMP JUMPDEST PUSH1 0x40 MLOAD DUP1 SWAP2 SUB SWAP1 RETURN JUMPDEST PUSH2 0x768 PUSH1 0x4 DUP1 CALLDATASIZE SUB DUP2 ADD SWAP1 PUSH2 0x763 SWAP2 SWAP1 PUSH2 0x223C JUMP JUMPDEST PUSH2 0x1264 JUMP JUMPDEST PUSH1 0x40 MLOAD PUSH2 0x775 SWAP2 SWAP1 PUSH2 0x2B24 JUMP JUMPDEST PUSH1 0x40 MLOAD DUP1 SWAP2 SUB SWAP1 RETURN JUMPDEST PUSH1 0x60 DUP2 PUSH1 0x40 MLOAD PUSH1 0x20 ADD PUSH2 0x791 SWAP2 SWAP1 PUSH2 0x2774 JUMP JUMPDEST PUSH1 0x40 MLOAD PUSH1 0x20 DUP2 DUP4 SUB SUB DUP2 MSTORE SWAP1 PUSH1 0x40 MSTORE SWAP1 POP SWAP2 SWAP1 POP JUMP JUMPDEST PUSH1 0x60 PUSH1 0x0 DUP3 MLOAD SWAP1 POP PUSH1 0x60 DUP2 PUSH8 0xFFFFFFFFFFFFFFFF DUP2 GT DUP1 ISZERO PUSH2 0x7C8 JUMPI PUSH1 0x0 DUP1 REVERT JUMPDEST POP PUSH1 0x40 MLOAD SWAP1 DUP1 DUP3 MSTORE DUP1 PUSH1 0x1F ADD PUSH1 0x1F NOT AND PUSH1 0x20 ADD DUP3 ADD PUSH1 0x40 MSTORE DUP1 ISZERO PUSH2 0x7FB JUMPI DUP2 PUSH1 0x20 ADD PUSH1 0x1 DUP3 MUL DUP1 CALLDATASIZE DUP4 CALLDATACOPY DUP1 DUP3 ADD SWAP2 POP POP SWAP1 POP JUMPDEST POP SWAP1 POP PUSH1 0x0 JUMPDEST DUP3 DUP2 LT ISZERO PUSH2 0x86D JUMPI DUP5 PUSH1 0x1 DUP3 DUP6 SUB SUB DUP2 MLOAD DUP2 LT PUSH2 0x81A JUMPI INVALID JUMPDEST PUSH1 0x20 ADD ADD MLOAD PUSH1 0xF8 SHR PUSH1 0xF8 SHL DUP3 DUP3 DUP2 MLOAD DUP2 LT PUSH2 0x831 JUMPI INVALID JUMPDEST PUSH1 0x20 ADD ADD SWAP1 PUSH31 0xFFFFFFFFFFFFFFFFFFFFFFFFFFFFFFFFFFFFFFFFFFFFFFFFFFFFFFFFFFFFFF NOT AND SWAP1 DUP2 PUSH1 0x0 BYTE SWAP1 MSTORE8 POP DUP1 DUP1 PUSH1 0x1 ADD SWAP2 POP POP PUSH2 0x801 JUMP JUMPDEST DUP2 SWAP4 POP POP POP POP SWAP2 SWAP1 POP JUMP JUMPDEST PUSH1 0x60 DUP1 DUP3 PUSH1 0x40 MLOAD PUSH1 0x20 ADD PUSH2 0x88C SWAP2 SWAP1 PUSH2 0x2AEE JUMP JUMPDEST PUSH1 0x40 MLOAD PUSH1 0x20 DUP2 DUP4 SUB SUB DUP2 MSTORE SWAP1 PUSH1 0x40 MSTORE SWAP1 POP PUSH2 0x8A6 DUP2 PUSH2 0x7A7 JUMP JUMPDEST SWAP2 POP POP SWAP2 SWAP1 POP JUMP JUMPDEST PUSH1 0x60 PUSH2 0x8BD DUP3 PUSH1 0x0 ADD MLOAD PUSH2 0x10E8 JUMP JUMPDEST PUSH2 0x8CA DUP4 PUSH1 0x20 ADD MLOAD PUSH2 0xBE9 JUMP JUMPDEST PUSH1 0x40 MLOAD PUSH1 0x20 ADD PUSH2 0x8DB SWAP3 SWAP2 SWAP1 PUSH2 0x27AA JUMP JUMPDEST PUSH1 0x40 MLOAD PUSH1 0x20 DUP2 DUP4 SUB SUB DUP2 MSTORE SWAP1 PUSH1 0x40 MSTORE SWAP1 POP SWAP2 SWAP1 POP JUMP JUMPDEST PUSH1 0x60 PUSH2 0x91B DUP3 PUSH1 0x40 MLOAD PUSH1 0x20 ADD PUSH2 0x907 SWAP2 SWAP1 PUSH2 0x2759 JUMP JUMPDEST PUSH1 0x40 MLOAD PUSH1 0x20 DUP2 DUP4 SUB SUB DUP2 MSTORE SWAP1 PUSH1 0x40 MSTORE PUSH2 0x7A7 JUMP JUMPDEST SWAP1 POP SWAP2 SWAP1 POP JUMP JUMPDEST PUSH1 0x60 PUSH2 0x931 DUP3 PUSH1 0x0 ADD MLOAD PUSH2 0xBE9 JUMP JUMPDEST PUSH2 0x93E DUP4 PUSH1 0x20 ADD MLOAD PUSH2 0xB60 JUMP JUMPDEST PUSH1 0x40 MLOAD PUSH1 0x20 ADD PUSH2 0x94F SWAP3 SWAP2 SWAP1 PUSH2 0x27AA JUMP JUMPDEST PUSH1 0x40 MLOAD PUSH1 0x20 DUP2 DUP4 SUB SUB DUP2 MSTORE SWAP1 PUSH1 0x40 MSTORE SWAP1 POP SWAP2 SWAP1 POP JUMP JUMPDEST PUSH1 0x60 DUP1 PUSH2 0x975 DUP4 PUSH1 0x0 ADD MLOAD PUSH2 0xC1F JUMP JUMPDEST PUSH2 0x982 DUP5 PUSH1 0x20 ADD MLOAD PUSH2 0x10E8 JUMP JUMPDEST PUSH2 0x98F DUP6 PUSH1 0x40 ADD MLOAD PUSH2 0xBE9 JUMP JUMPDEST PUSH2 0x99C DUP7 PUSH1 0x60 ADD MLOAD PUSH2 0x10E8 JUMP JUMPDEST PUSH2 0x9A9 DUP8 PUSH1 0x80 ADD MLOAD PUSH2 0x10E8 JUMP JUMPDEST PUSH2 0x9B6 DUP9 PUSH1 0xA0 ADD MLOAD PUSH2 0xBE9 JUMP JUMPDEST PUSH2 0x9C3 DUP10 PUSH1 0xC0 ADD MLOAD PUSH2 0xBE9 JUMP JUMPDEST PUSH1 0x40 MLOAD PUSH1 0x20 ADD PUSH2 0x9D9 SWAP8 SWAP7 SWAP6 SWAP5 SWAP4 SWAP3 SWAP2 SWAP1 PUSH2 0x2826 JUMP JUMPDEST PUSH1 0x40 MLOAD PUSH1 0x20 DUP2 DUP4 SUB SUB DUP2 MSTORE SWAP1 PUSH1 0x40 MSTORE SWAP1 POP PUSH1 0x60 PUSH2 0x9F9 DUP5 PUSH1 0xE0 ADD MLOAD PUSH2 0x1264 JUMP JUMPDEST PUSH2 0xA07 DUP6 PUSH2 0x100 ADD MLOAD PUSH2 0x1034 JUMP JUMPDEST PUSH2 0xA15 DUP7 PUSH2 0x120 ADD MLOAD PUSH2 0x1034 JUMP JUMPDEST PUSH2 0xA23 DUP8 PUSH2 0x140 ADD MLOAD PUSH2 0x11C5 JUMP JUMPDEST PUSH2 0xA31 DUP9 PUSH2 0x160 ADD MLOAD PUSH2 0x8F1 JUMP JUMPDEST PUSH2 0xA3F DUP10 PUSH2 0x180 ADD MLOAD PUSH2 0x1264 JUMP JUMPDEST PUSH1 0x40 MLOAD PUSH1 0x20 ADD PUSH2 0xA54 SWAP7 SWAP6 SWAP5 SWAP4 SWAP3 SWAP2 SWAP1 PUSH2 0x27CE JUMP JUMPDEST PUSH1 0x40 MLOAD PUSH1 0x20 DUP2 DUP4 SUB SUB DUP2 MSTORE SWAP1 PUSH1 0x40 MSTORE SWAP1 POP DUP2 DUP2 PUSH1 0x40 MLOAD PUSH1 0x20 ADD PUSH2 0xA78 SWAP3 SWAP2 SWAP1 PUSH2 0x27AA JUMP JUMPDEST PUSH1 0x40 MLOAD PUSH1 0x20 DUP2 DUP4 SUB SUB DUP2 MSTORE SWAP1 PUSH1 0x40 MSTORE SWAP3 POP POP POP SWAP2 SWAP1 POP JUMP JUMPDEST PUSH1 0x60 DUP1 DUP3 PUSH1 0x40 MLOAD PUSH1 0x20 ADD PUSH2 0xAA4 SWAP2 SWAP1 PUSH2 0x2A1A JUMP JUMPDEST PUSH1 0x40 MLOAD PUSH1 0x20 DUP2 DUP4 SUB SUB DUP2 MSTORE SWAP1 PUSH1 0x40 MSTORE SWAP1 POP PUSH2 0xABE DUP2 PUSH2 0x7A7 JUMP JUMPDEST SWAP2 POP POP SWAP2 SWAP1 POP JUMP JUMPDEST PUSH1 0x60 DUP2 PUSH1 0x40 MLOAD PUSH1 0x20 ADD PUSH2 0xAD9 SWAP2 SWAP1 PUSH2 0x278F JUMP JUMPDEST PUSH1 0x40 MLOAD PUSH1 0x20 DUP2 DUP4 SUB SUB DUP2 MSTORE SWAP1 PUSH1 0x40 MSTORE SWAP1 POP SWAP2 SWAP1 POP JUMP JUMPDEST PUSH1 0x60 DUP1 PUSH2 0xAFC DUP4 MLOAD PUSH2 0x11C5 JUMP JUMPDEST SWAP1 POP PUSH1 0x0 JUMPDEST DUP4 MLOAD DUP2 LT ISZERO PUSH2 0xB56 JUMPI DUP2 PUSH2 0xB27 DUP6 DUP4 DUP2 MLOAD DUP2 LT PUSH2 0xB1A JUMPI INVALID JUMPDEST PUSH1 0x20 MUL PUSH1 0x20 ADD ADD MLOAD PUSH2 0xFAB JUMP JUMPDEST PUSH1 0x40 MLOAD PUSH1 0x20 ADD PUSH2 0xB38 SWAP3 SWAP2 SWAP1 PUSH2 0x27AA JUMP JUMPDEST PUSH1 0x40 MLOAD PUSH1 0x20 DUP2 DUP4 SUB SUB DUP2 MSTORE SWAP1 PUSH1 0x40 MSTORE SWAP2 POP DUP1 DUP1 PUSH1 0x1 ADD SWAP2 POP POP PUSH2 0xB01 JUMP JUMPDEST POP DUP1 SWAP2 POP POP SWAP2 SWAP1 POP JUMP JUMPDEST PUSH1 0x60 PUSH2 0xB6F DUP3 PUSH1 0x0 ADD MLOAD PUSH2 0xA90 JUMP JUMPDEST PUSH2 0xB7C DUP4 PUSH1 0x20 ADD MLOAD PUSH2 0xA90 JUMP JUMPDEST PUSH2 0xB89 DUP5 PUSH1 0x40 ADD MLOAD PUSH2 0xBE9 JUMP JUMPDEST PUSH2 0xB96 DUP6 PUSH1 0x60 ADD MLOAD PUSH2 0x10E8 JUMP JUMPDEST PUSH2 0xBA3 DUP7 PUSH1 0x80 ADD MLOAD PUSH2 0x11C5 JUMP JUMPDEST PUSH2 0xBB0 DUP8 PUSH1 0xA0 ADD MLOAD PUSH2 0x11C5 JUMP JUMPDEST PUSH2 0xBBD DUP9 PUSH1 0xC0 ADD MLOAD PUSH2 0x11C5 JUMP JUMPDEST PUSH1 0x40 MLOAD PUSH1 0x20 ADD PUSH2 0xBD3 SWAP8 SWAP7 SWAP6 SWAP5 SWAP4 SWAP3 SWAP2 SWAP1 PUSH2 0x2826 JUMP JUMPDEST PUSH1 0x40 MLOAD PUSH1 0x20 DUP2 DUP4 SUB SUB DUP2 MSTORE SWAP1 PUSH1 0x40 MSTORE SWAP1 POP SWAP2 SWAP1 POP JUMP JUMPDEST PUSH1 0x60 DUP1 DUP3 PUSH1 0x40 MLOAD PUSH1 0x20 ADD PUSH2 0xBFD SWAP2 SWAP1 PUSH2 0x2A82 JUMP JUMPDEST PUSH1 0x40 MLOAD PUSH1 0x20 DUP2 DUP4 SUB SUB DUP2 MSTORE SWAP1 PUSH1 0x40 MSTORE SWAP1 POP PUSH2 0xC17 DUP2 PUSH2 0x7A7 JUMP JUMPDEST SWAP2 POP POP SWAP2 SWAP1 POP JUMP JUMPDEST PUSH1 0x60 DUP1 DUP3 PUSH1 0x40 MLOAD PUSH1 0x20 ADD PUSH2 0xC33 SWAP2 SWAP1 PUSH2 0x2B09 JUMP JUMPDEST PUSH1 0x40 MLOAD PUSH1 0x20 DUP2 DUP4 SUB SUB DUP2 MSTORE SWAP1 PUSH1 0x40 MSTORE SWAP1 POP PUSH2 0xC4D DUP2 PUSH2 0x7A7 JUMP JUMPDEST SWAP2 POP POP SWAP2 SWAP1 POP JUMP JUMPDEST PUSH1 0x60 DUP2 PUSH1 0x40 MLOAD PUSH1 0x20 ADD PUSH2 0xC68 SWAP2 SWAP1 PUSH2 0x2A6B JUMP JUMPDEST PUSH1 0x40 MLOAD PUSH1 0x20 DUP2 DUP4 SUB SUB DUP2 MSTORE SWAP1 PUSH1 0x40 MSTORE SWAP1 POP SWAP2 SWAP1 POP JUMP JUMPDEST PUSH1 0x60 PUSH2 0xC8D DUP3 PUSH1 0x0 ADD MLOAD PUSH2 0xBE9 JUMP JUMPDEST PUSH2 0xC9A DUP4 PUSH1 0x20 ADD MLOAD PUSH2 0xCC1 JUMP JUMPDEST PUSH1 0x40 MLOAD PUSH1 0x20 ADD PUSH2 0xCAB SWAP3 SWAP2 SWAP1 PUSH2 0x27AA JUMP JUMPDEST PUSH1 0x40 MLOAD PUSH1 0x20 DUP2 DUP4 SUB SUB DUP2 MSTORE SWAP1 PUSH1 0x40 MSTORE SWAP1 POP SWAP2 SWAP1 POP JUMP JUMPDEST PUSH1 0x60 PUSH2 0xCD0 DUP3 PUSH1 0x0 ADD MLOAD PUSH2 0xEC1 JUMP JUMPDEST PUSH2 0xCDD DUP4 PUSH1 0x20 ADD MLOAD PUSH2 0xEC1 JUMP JUMPDEST PUSH2 0xCEA DUP5 PUSH1 0x40 ADD MLOAD PUSH2 0xEC1 JUMP JUMPDEST PUSH2 0xCF7 DUP6 PUSH1 0x60 ADD MLOAD PUSH2 0xEC1 JUMP JUMPDEST PUSH2 0xD04 DUP7 PUSH1 0x80 ADD MLOAD PUSH2 0x11FB JUMP JUMPDEST PUSH2 0xD11 DUP8 PUSH1 0xA0 ADD MLOAD PUSH2 0x11FB JUMP JUMPDEST PUSH2 0xD1E DUP9 PUSH1 0xC0 ADD MLOAD PUSH2 0x11FB JUMP JUMPDEST PUSH2 0xD2B DUP10 PUSH1 0xE0 ADD MLOAD PUSH2 0x11FB JUMP JUMPDEST PUSH2 0xD39 DUP11 PUSH2 0x100 ADD MLOAD PUSH2 0x11FB JUMP JUMPDEST PUSH2 0xD47 DUP12 PUSH2 0x120 ADD MLOAD PUSH2 0x11FB JUMP JUMPDEST PUSH2 0xD55 DUP13 PUSH2 0x140 ADD MLOAD PUSH2 0x11FB JUMP JUMPDEST PUSH2 0xD63 DUP14 PUSH2 0x160 ADD MLOAD PUSH2 0xD94 JUMP JUMPDEST PUSH1 0x40 MLOAD PUSH1 0x20 ADD PUSH2 0xD7E SWAP13 SWAP12 SWAP11 SWAP10 SWAP9 SWAP8 SWAP7 SWAP6 SWAP5 SWAP4 SWAP3 SWAP2 SWAP1 PUSH2 0x2924 JUMP JUMPDEST PUSH1 0x40 MLOAD PUSH1 0x20 DUP2 DUP4 SUB SUB DUP2 MSTORE SWAP1 PUSH1 0x40 MSTORE SWAP1 POP SWAP2 SWAP1 POP JUMP JUMPDEST PUSH1 0x60 DUP1 PUSH2 0xDA1 DUP4 MLOAD PUSH2 0x11C5 JUMP JUMPDEST SWAP1 POP PUSH1 0x0 JUMPDEST DUP4 MLOAD DUP2 LT ISZERO PUSH2 0xDF3 JUMPI DUP2 DUP5 DUP3 DUP2 MLOAD DUP2 LT PUSH2 0xDBC JUMPI INVALID JUMPDEST PUSH1 0x20 MUL PUSH1 0x20 ADD ADD MLOAD PUSH1 0x40 MLOAD PUSH1 0x20 ADD PUSH2 0xDD5 SWAP3 SWAP2 SWAP1 PUSH2 0x29CA JUMP JUMPDEST PUSH1 0x40 MLOAD PUSH1 0x20 DUP2 DUP4 SUB SUB DUP2 MSTORE SWAP1 PUSH1 0x40 MSTORE SWAP2 POP DUP1 DUP1 PUSH1 0x1 ADD SWAP2 POP POP PUSH2 0xDA6 JUMP JUMPDEST POP DUP1 SWAP2 POP POP SWAP2 SWAP1 POP JUMP JUMPDEST PUSH1 0x60 PUSH2 0xE0C DUP3 PUSH1 0x0 ADD MLOAD PUSH2 0x10E8 JUMP JUMPDEST PUSH2 0xE19 DUP4 PUSH1 0x20 ADD MLOAD PUSH2 0x10E8 JUMP JUMPDEST PUSH2 0xE26 DUP5 PUSH1 0x40 ADD MLOAD PUSH2 0x8AE JUMP JUMPDEST PUSH2 0xE33 DUP6 PUSH1 0x60 ADD MLOAD PUSH2 0xBE9 JUMP JUMPDEST PUSH2 0xE40 DUP7 PUSH1 0x80 ADD MLOAD PUSH2 0x10E8 JUMP JUMPDEST PUSH2 0xE4D DUP8 PUSH1 0xA0 ADD MLOAD PUSH2 0xCC1 JUMP JUMPDEST PUSH2 0xE5A DUP9 PUSH1 0xC0 ADD MLOAD PUSH2 0xF68 JUMP JUMPDEST PUSH2 0xE67 DUP10 PUSH1 0xE0 ADD MLOAD PUSH2 0x11C5 JUMP JUMPDEST PUSH2 0xE75 DUP11 PUSH2 0x100 ADD MLOAD PUSH2 0x10E8 JUMP JUMPDEST PUSH2 0xE83 DUP12 PUSH2 0x120 ADD MLOAD PUSH2 0xEF7 JUMP JUMPDEST PUSH2 0xE91 DUP13 PUSH2 0x140 ADD MLOAD PUSH2 0x111E JUMP JUMPDEST PUSH1 0x40 MLOAD PUSH1 0x20 ADD PUSH2 0xEAB SWAP12 SWAP11 SWAP10 SWAP9 SWAP8 SWAP7 SWAP6 SWAP5 SWAP4 SWAP3 SWAP2 SWAP1 PUSH2 0x288B JUMP JUMPDEST PUSH1 0x40 MLOAD PUSH1 0x20 DUP2 DUP4 SUB SUB DUP2 MSTORE SWAP1 PUSH1 0x40 MSTORE SWAP1 POP SWAP2 SWAP1 POP JUMP JUMPDEST PUSH1 0x60 DUP1 DUP3 PUSH1 0x40 MLOAD PUSH1 0x20 ADD PUSH2 0xED5 SWAP2 SWAP1 PUSH2 0x2A50 JUMP JUMPDEST PUSH1 0x40 MLOAD PUSH1 0x20 DUP2 DUP4 SUB SUB DUP2 MSTORE SWAP1 PUSH1 0x40 MSTORE SWAP1 POP PUSH2 0xEEF DUP2 PUSH2 0x7A7 JUMP JUMPDEST SWAP2 POP POP SWAP2 SWAP1 POP JUMP JUMPDEST PUSH1 0x60 DUP1 PUSH2 0xF04 DUP4 MLOAD PUSH2 0x11C5 JUMP JUMPDEST SWAP1 POP PUSH1 0x0 JUMPDEST DUP4 MLOAD DUP2 LT ISZERO PUSH2 0xF5E JUMPI DUP2 PUSH2 0xF2F DUP6 DUP4 DUP2 MLOAD DUP2 LT PUSH2 0xF22 JUMPI INVALID JUMPDEST PUSH1 0x20 MUL PUSH1 0x20 ADD ADD MLOAD PUSH2 0xC7E JUMP JUMPDEST PUSH1 0x40 MLOAD PUSH1 0x20 ADD PUSH2 0xF40 SWAP3 SWAP2 SWAP1 PUSH2 0x27AA JUMP JUMPDEST PUSH1 0x40 MLOAD PUSH1 0x20 DUP2 DUP4 SUB SUB DUP2 MSTORE SWAP1 PUSH1 0x40 MSTORE SWAP2 POP DUP1 DUP1 PUSH1 0x1 ADD SWAP2 POP POP PUSH2 0xF09 JUMP JUMPDEST POP DUP1 SWAP2 POP POP SWAP2 SWAP1 POP JUMP JUMPDEST PUSH1 0x60 PUSH2 0xF77 DUP3 PUSH1 0x0 ADD MLOAD PUSH2 0x11C5 JUMP JUMPDEST PUSH2 0xF84 DUP4 PUSH1 0x20 ADD MLOAD PUSH2 0x10E8 JUMP JUMPDEST PUSH1 0x40 MLOAD PUSH1 0x20 ADD PUSH2 0xF95 SWAP3 SWAP2 SWAP1 PUSH2 0x27AA JUMP JUMPDEST PUSH1 0x40 MLOAD PUSH1 0x20 DUP2 DUP4 SUB SUB DUP2 MSTORE SWAP1 PUSH1 0x40 MSTORE SWAP1 POP SWAP2 SWAP1 POP JUMP JUMPDEST PUSH1 0x60 PUSH2 0xFBA DUP3 PUSH1 0x0 ADD MLOAD PUSH2 0x10E8 JUMP JUMPDEST PUSH2 0xFC7 DUP4 PUSH1 0x20 ADD MLOAD PUSH2 0x1034 JUMP JUMPDEST PUSH2 0xFD4 DUP5 PUSH1 0x40 ADD MLOAD PUSH2 0x10E8 JUMP JUMPDEST PUSH2 0xFE1 DUP6 PUSH1 0x60 ADD MLOAD PUSH2 0xBE9 JUMP JUMPDEST PUSH2 0xFEE DUP7 PUSH1 0x80 ADD MLOAD PUSH2 0x11C5 JUMP JUMPDEST PUSH2 0xFFB DUP8 PUSH1 0xC0 ADD MLOAD PUSH2 0xBE9 JUMP JUMPDEST PUSH2 0x1008 DUP9 PUSH1 0xA0 ADD MLOAD PUSH2 0x8AE JUMP JUMPDEST PUSH1 0x40 MLOAD PUSH1 0x20 ADD PUSH2 0x101E SWAP8 SWAP7 SWAP6 SWAP5 SWAP4 SWAP3 SWAP2 SWAP1 PUSH2 0x2826 JUMP JUMPDEST PUSH1 0x40 MLOAD PUSH1 0x20 DUP2 DUP4 SUB SUB DUP2 MSTORE SWAP1 PUSH1 0x40 MSTORE SWAP1 POP SWAP2 SWAP1 POP JUMP JUMPDEST PUSH1 0x60 PUSH2 0x1043 DUP3 PUSH1 0x0 ADD MLOAD PUSH2 0xBE9 JUMP JUMPDEST PUSH2 0x1050 DUP4 PUSH1 0x20 ADD MLOAD PUSH2 0x878 JUMP JUMPDEST PUSH1 0x40 MLOAD PUSH1 0x20 ADD PUSH2 0x1061 SWAP3 SWAP2 SWAP1 PUSH2 0x27AA JUMP JUMPDEST PUSH1 0x40 MLOAD PUSH1 0x20 DUP2 DUP4 SUB SUB DUP2 MSTORE SWAP1 PUSH1 0x40 MSTORE SWAP1 POP SWAP2 SWAP1 POP JUMP JUMPDEST PUSH1 0x60 DUP1 PUSH2 0x1084 DUP4 MLOAD PUSH2 0x11C5 JUMP JUMPDEST SWAP1 POP PUSH1 0x0 JUMPDEST DUP4 MLOAD DUP2 LT ISZERO PUSH2 0x10DE JUMPI DUP2 PUSH2 0x10AF DUP6 DUP4 DUP2 MLOAD DUP2 LT PUSH2 0x10A2 JUMPI INVALID JUMPDEST PUSH1 0x20 MUL PUSH1 0x20 ADD ADD MLOAD PUSH2 0x1034 JUMP JUMPDEST PUSH1 0x40 MLOAD PUSH1 0x20 ADD PUSH2 0x10C0 SWAP3 SWAP2 SWAP1 PUSH2 0x27AA JUMP JUMPDEST PUSH1 0x40 MLOAD PUSH1 0x20 DUP2 DUP4 SUB SUB DUP2 MSTORE SWAP1 PUSH1 0x40 MSTORE SWAP2 POP DUP1 DUP1 PUSH1 0x1 ADD SWAP2 POP POP PUSH2 0x1089 JUMP JUMPDEST POP DUP1 SWAP2 POP POP SWAP2 SWAP1 POP JUMP JUMPDEST PUSH1 0x60 DUP1 DUP3 PUSH1 0x40 MLOAD PUSH1 0x20 ADD PUSH2 0x10FC SWAP2 SWAP1 PUSH2 0x2AD3 JUMP JUMPDEST PUSH1 0x40 MLOAD PUSH1 0x20 DUP2 DUP4 SUB SUB DUP2 MSTORE SWAP1 PUSH1 0x40 MSTORE SWAP1 POP PUSH2 0x1116 DUP2 PUSH2 0x7A7 JUMP JUMPDEST SWAP2 POP POP SWAP2 SWAP1 POP JUMP JUMPDEST PUSH1 0x60 DUP1 PUSH2 0x112B DUP4 MLOAD PUSH2 0x11C5 JUMP JUMPDEST SWAP1 POP PUSH1 0x0 JUMPDEST DUP4 MLOAD DUP2 LT ISZERO PUSH2 0x1185 JUMPI DUP2 PUSH2 0x1156 DUP6 DUP4 DUP2 MLOAD DUP2 LT PUSH2 0x1149 JUMPI INVALID JUMPDEST PUSH1 0x20 MUL PUSH1 0x20 ADD ADD MLOAD PUSH2 0x922 JUMP JUMPDEST PUSH1 0x40 MLOAD PUSH1 0x20 ADD PUSH2 0x1167 SWAP3 SWAP2 SWAP1 PUSH2 0x27AA JUMP JUMPDEST PUSH1 0x40 MLOAD PUSH1 0x20 DUP2 DUP4 SUB SUB DUP2 MSTORE SWAP1 PUSH1 0x40 MSTORE SWAP2 POP DUP1 DUP1 PUSH1 0x1 ADD SWAP2 POP POP PUSH2 0x1130 JUMP JUMPDEST POP DUP1 SWAP2 POP POP SWAP2 SWAP1 POP JUMP JUMPDEST PUSH1 0x60 DUP1 DUP3 PUSH1 0x40 MLOAD PUSH1 0x20 ADD PUSH2 0x11A3 SWAP2 SWAP1 PUSH2 0x2A9D JUMP JUMPDEST PUSH1 0x40 MLOAD PUSH1 0x20 DUP2 DUP4 SUB SUB DUP2 MSTORE SWAP1 PUSH1 0x40 MSTORE SWAP1 POP PUSH2 0x11BD DUP2 PUSH2 0x7A7 JUMP JUMPDEST SWAP2 POP POP SWAP2 SWAP1 POP JUMP JUMPDEST PUSH1 0x60 DUP1 DUP3 PUSH1 0x40 MLOAD PUSH1 0x20 ADD PUSH2 0x11D9 SWAP2 SWAP1 PUSH2 0x2AB8 JUMP JUMPDEST PUSH1 0x40 MLOAD PUSH1 0x20 DUP2 DUP4 SUB SUB DUP2 MSTORE SWAP1 PUSH1 0x40 MSTORE SWAP1 POP PUSH2 0x11F3 DUP2 PUSH2 0x7A7 JUMP JUMPDEST SWAP2 POP POP SWAP2 SWAP1 POP JUMP JUMPDEST PUSH1 0x60 DUP1 PUSH2 0x1208 DUP4 MLOAD PUSH2 0x11C5 JUMP JUMPDEST SWAP1 POP PUSH1 0x0 JUMPDEST DUP4 MLOAD DUP2 LT ISZERO PUSH2 0x125A JUMPI DUP2 DUP5 DUP3 DUP2 MLOAD DUP2 LT PUSH2 0x1223 JUMPI INVALID JUMPDEST PUSH1 0x20 MUL PUSH1 0x20 ADD ADD MLOAD PUSH1 0x40 MLOAD PUSH1 0x20 ADD PUSH2 0x123C SWAP3 SWAP2 SWAP1 PUSH2 0x29F2 JUMP JUMPDEST PUSH1 0x40 MLOAD PUSH1 0x20 DUP2 DUP4 SUB SUB DUP2 MSTORE SWAP1 PUSH1 0x40 MSTORE SWAP2 POP DUP1 DUP1 PUSH1 0x1 ADD SWAP2 POP POP PUSH2 0x120D JUMP JUMPDEST POP DUP1 SWAP2 POP POP SWAP2 SWAP1 POP JUMP JUMPDEST PUSH1 0x60 DUP1 DUP3 PUSH1 0x40 MLOAD PUSH1 0x20 ADD PUSH2 0x1278 SWAP2 SWAP1 PUSH2 0x2A35 JUMP JUMPDEST PUSH1 0x40 MLOAD PUSH1 0x20 DUP2 DUP4 SUB SUB DUP2 MSTORE SWAP1 PUSH1 0x40 MSTORE SWAP1 POP PUSH2 0x1292 DUP2 PUSH2 0x7A7 JUMP JUMPDEST SWAP2 POP POP SWAP2 SWAP1 POP JUMP JUMPDEST PUSH1 0x0 DUP2 CALLDATALOAD SWAP1 POP PUSH2 0x12A9 DUP2 PUSH2 0x2F56 JUMP JUMPDEST SWAP3 SWAP2 POP POP JUMP JUMPDEST PUSH1 0x0 DUP3 PUSH1 0x1F DUP4 ADD SLT PUSH2 0x12C0 JUMPI PUSH1 0x0 DUP1 REVERT JUMPDEST DUP2 CALLDATALOAD PUSH2 0x12D3 PUSH2 0x12CE DUP3 PUSH2 0x2B73 JUMP JUMPDEST PUSH2 0x2B46 JUMP JUMPDEST SWAP2 POP DUP2 DUP2 DUP4 MSTORE PUSH1 0x20 DUP5 ADD SWAP4 POP PUSH1 0x20 DUP2 ADD SWAP1 POP DUP4 DUP6 PUSH1 0x20 DUP5 MUL DUP3 ADD GT ISZERO PUSH2 0x12F8 JUMPI PUSH1 0x0 DUP1 REVERT JUMPDEST PUSH1 0x0 JUMPDEST DUP4 DUP2 LT ISZERO PUSH2 0x1328 JUMPI DUP2 PUSH2 0x130E DUP9 DUP3 PUSH2 0x16BD JUMP JUMPDEST DUP5 MSTORE PUSH1 0x20 DUP5 ADD SWAP4 POP PUSH1 0x20 DUP4 ADD SWAP3 POP POP PUSH1 0x1 DUP2 ADD SWAP1 POP PUSH2 0x12FB JUMP JUMPDEST POP POP POP POP SWAP3 SWAP2 POP POP JUMP JUMPDEST PUSH1 0x0 DUP3 PUSH1 0x1F DUP4 ADD SLT PUSH2 0x1343 JUMPI PUSH1 0x0 DUP1 REVERT JUMPDEST DUP2 CALLDATALOAD PUSH2 0x1356 PUSH2 0x1351 DUP3 PUSH2 0x2B9B JUMP JUMPDEST PUSH2 0x2B46 JUMP JUMPDEST SWAP2 POP DUP2 DUP2 DUP4 MSTORE PUSH1 0x20 DUP5 ADD SWAP4 POP PUSH1 0x20 DUP2 ADD SWAP1 POP DUP4 DUP6 PUSH1 0x20 DUP5 MUL DUP3 ADD GT ISZERO PUSH2 0x137B JUMPI PUSH1 0x0 DUP1 REVERT JUMPDEST PUSH1 0x0 JUMPDEST DUP4 DUP2 LT ISZERO PUSH2 0x13AB JUMPI DUP2 PUSH2 0x1391 DUP9 DUP3 PUSH2 0x16D2 JUMP JUMPDEST DUP5 MSTORE PUSH1 0x20 DUP5 ADD SWAP4 POP PUSH1 0x20 DUP4 ADD SWAP3 POP POP PUSH1 0x1 DUP2 ADD SWAP1 POP PUSH2 0x137E JUMP JUMPDEST POP POP POP POP SWAP3 SWAP2 POP POP JUMP JUMPDEST PUSH1 0x0 DUP3 PUSH1 0x1F DUP4 ADD SLT PUSH2 0x13C6 JUMPI PUSH1 0x0 DUP1 REVERT JUMPDEST DUP2 CALLDATALOAD PUSH2 0x13D9 PUSH2 0x13D4 DUP3 PUSH2 0x2BC3 JUMP JUMPDEST PUSH2 0x2B46 JUMP JUMPDEST SWAP2 POP DUP2 DUP2 DUP4 MSTORE PUSH1 0x20 DUP5 ADD SWAP4 POP PUSH1 0x20 DUP2 ADD SWAP1 POP DUP4 DUP6 PUSH1 0x40 DUP5 MUL DUP3 ADD GT ISZERO PUSH2 0x13FE JUMPI PUSH1 0x0 DUP1 REVERT JUMPDEST PUSH1 0x0 JUMPDEST DUP4 DUP2 LT ISZERO PUSH2 0x142E JUMPI DUP2 PUSH2 0x1414 DUP9 DUP3 PUSH2 0x1A4D JUMP JUMPDEST DUP5 MSTORE PUSH1 0x20 DUP5 ADD SWAP4 POP PUSH1 0x40 DUP4 ADD SWAP3 POP POP PUSH1 0x1 DUP2 ADD SWAP1 POP PUSH2 0x1401 JUMP JUMPDEST POP POP POP POP SWAP3 SWAP2 POP POP JUMP JUMPDEST PUSH1 0x0 DUP3 PUSH1 0x1F DUP4 ADD SLT PUSH2 0x1449 JUMPI PUSH1 0x0 DUP1 REVERT JUMPDEST DUP2 CALLDATALOAD PUSH2 0x145C PUSH2 0x1457 DUP3 PUSH2 0x2BEB JUMP JUMPDEST PUSH2 0x2B46 JUMP JUMPDEST SWAP2 POP DUP2 DUP2 DUP4 MSTORE PUSH1 0x20 DUP5 ADD SWAP4 POP PUSH1 0x20 DUP2 ADD SWAP1 POP DUP4 PUSH1 0x0 JUMPDEST DUP4 DUP2 LT ISZERO PUSH2 0x14A2 JUMPI DUP2 CALLDATALOAD DUP7 ADD PUSH2 0x1488 DUP9 DUP3 PUSH2 0x1A99 JUMP JUMPDEST DUP5 MSTORE PUSH1 0x20 DUP5 ADD SWAP4 POP PUSH1 0x20 DUP4 ADD SWAP3 POP POP PUSH1 0x1 DUP2 ADD SWAP1 POP PUSH2 0x1472 JUMP JUMPDEST POP POP POP POP SWAP3 SWAP2 POP POP JUMP JUMPDEST PUSH1 0x0 DUP3 PUSH1 0x1F DUP4 ADD SLT PUSH2 0x14BD JUMPI PUSH1 0x0 DUP1 REVERT JUMPDEST DUP2 CALLDATALOAD PUSH2 0x14D0 PUSH2 0x14CB DUP3 PUSH2 0x2C13 JUMP JUMPDEST PUSH2 0x2B46 JUMP JUMPDEST SWAP2 POP DUP2 DUP2 DUP4 MSTORE PUSH1 0x20 DUP5 ADD SWAP4 POP PUSH1 0x20 DUP2 ADD SWAP1 POP DUP4 DUP6 PUSH2 0x160 DUP5 MUL DUP3 ADD GT ISZERO PUSH2 0x14F6 JUMPI PUSH1 0x0 DUP1 REVERT JUMPDEST PUSH1 0x0 JUMPDEST DUP4 DUP2 LT ISZERO PUSH2 0x1527 JUMPI DUP2 PUSH2 0x150C DUP9 DUP3 PUSH2 0x1D2C JUMP JUMPDEST DUP5 MSTORE PUSH1 0x20 DUP5 ADD SWAP4 POP PUSH2 0x160 DUP4 ADD SWAP3 POP POP PUSH1 0x1 DUP2 ADD SWAP1 POP PUSH2 0x14F9 JUMP JUMPDEST POP POP POP POP SWAP3 SWAP2 POP POP JUMP JUMPDEST PUSH1 0x0 DUP3 PUSH1 0x1F DUP4 ADD SLT PUSH2 0x1542 JUMPI PUSH1 0x0 DUP1 REVERT JUMPDEST DUP2 CALLDATALOAD PUSH2 0x1555 PUSH2 0x1550 DUP3 PUSH2 0x2C3B JUMP JUMPDEST PUSH2 0x2B46 JUMP JUMPDEST SWAP2 POP DUP2 DUP2 DUP4 MSTORE PUSH1 0x20 DUP5 ADD SWAP4 POP PUSH1 0x20 DUP2 ADD SWAP1 POP DUP4 PUSH1 0x0 JUMPDEST DUP4 DUP2 LT ISZERO PUSH2 0x159B JUMPI DUP2 CALLDATALOAD DUP7 ADD PUSH2 0x1581 DUP9 DUP3 PUSH2 0x1EA2 JUMP JUMPDEST DUP5 MSTORE PUSH1 0x20 DUP5 ADD SWAP4 POP PUSH1 0x20 DUP4 ADD SWAP3 POP POP PUSH1 0x1 DUP2 ADD SWAP1 POP PUSH2 0x156B JUMP JUMPDEST POP POP POP POP SWAP3 SWAP2 POP POP JUMP JUMPDEST PUSH1 0x0 DUP3 PUSH1 0x1F DUP4 ADD SLT PUSH2 0x15B6 JUMPI PUSH1 0x0 DUP1 REVERT JUMPDEST DUP2 CALLDATALOAD PUSH2 0x15C9 PUSH2 0x15C4 DUP3 PUSH2 0x2C63 JUMP JUMPDEST PUSH2 0x2B46 JUMP JUMPDEST SWAP2 POP DUP2 DUP2 DUP4 MSTORE PUSH1 0x20 DUP5 ADD SWAP4 POP PUSH1 0x20 DUP2 ADD SWAP1 POP DUP4 DUP6 PUSH2 0x100 DUP5 MUL DUP3 ADD GT ISZERO PUSH2 0x15EF JUMPI PUSH1 0x0 DUP1 REVERT JUMPDEST PUSH1 0x0 JUMPDEST DUP4 DUP2 LT ISZERO PUSH2 0x1620 JUMPI DUP2 PUSH2 0x1605 DUP9 DUP3 PUSH2 0x1F06 JUMP JUMPDEST DUP5 MSTORE PUSH1 0x20 DUP5 ADD SWAP4 POP PUSH2 0x100 DUP4 ADD SWAP3 POP POP PUSH1 0x1 DUP2 ADD SWAP1 POP PUSH2 0x15F2 JUMP JUMPDEST POP POP POP POP SWAP3 SWAP2 POP POP JUMP JUMPDEST PUSH1 0x0 DUP2 CALLDATALOAD SWAP1 POP PUSH2 0x1639 DUP2 PUSH2 0x2F6D JUMP JUMPDEST SWAP3 SWAP2 POP POP JUMP JUMPDEST PUSH1 0x0 DUP2 CALLDATALOAD SWAP1 POP PUSH2 0x164E DUP2 PUSH2 0x2F84 JUMP JUMPDEST SWAP3 SWAP2 POP POP JUMP JUMPDEST PUSH1 0x0 DUP3 PUSH1 0x1F DUP4 ADD SLT PUSH2 0x1665 JUMPI PUSH1 0x0 DUP1 REVERT JUMPDEST DUP2 CALLDATALOAD PUSH2 0x1678 PUSH2 0x1673 DUP3 PUSH2 0x2C8B JUMP JUMPDEST PUSH2 0x2B46 JUMP JUMPDEST SWAP2 POP DUP1 DUP3 MSTORE PUSH1 0x20 DUP4 ADD PUSH1 0x20 DUP4 ADD DUP6 DUP4 DUP4 ADD GT ISZERO PUSH2 0x1694 JUMPI PUSH1 0x0 DUP1 REVERT JUMPDEST PUSH2 0x169F DUP4 DUP3 DUP5 PUSH2 0x2DFA JUMP JUMPDEST POP POP POP SWAP3 SWAP2 POP POP JUMP JUMPDEST PUSH1 0x0 DUP2 CALLDATALOAD SWAP1 POP PUSH2 0x16B7 DUP2 PUSH2 0x2F9B JUMP JUMPDEST SWAP3 SWAP2 POP POP JUMP JUMPDEST PUSH1 0x0 DUP2 CALLDATALOAD SWAP1 POP PUSH2 0x16CC DUP2 PUSH2 0x2FB2 JUMP JUMPDEST SWAP3 SWAP2 POP POP JUMP JUMPDEST PUSH1 0x0 DUP2 CALLDATALOAD SWAP1 POP PUSH2 0x16E1 DUP2 PUSH2 0x2FC9 JUMP JUMPDEST SWAP3 SWAP2 POP POP JUMP JUMPDEST PUSH1 0x0 DUP3 PUSH1 0x1F DUP4 ADD SLT PUSH2 0x16F8 JUMPI PUSH1 0x0 DUP1 REVERT JUMPDEST DUP2 CALLDATALOAD PUSH2 0x170B PUSH2 0x1706 DUP3 PUSH2 0x2CB7 JUMP JUMPDEST PUSH2 0x2B46 JUMP JUMPDEST SWAP2 POP DUP1 DUP3 MSTORE PUSH1 0x20 DUP4 ADD PUSH1 0x20 DUP4 ADD DUP6 DUP4 DUP4 ADD GT ISZERO PUSH2 0x1727 JUMPI PUSH1 0x0 DUP1 REVERT JUMPDEST PUSH2 0x1732 DUP4 DUP3 DUP5 PUSH2 0x2DFA JUMP JUMPDEST POP POP POP SWAP3 SWAP2 POP POP JUMP JUMPDEST PUSH1 0x0 PUSH2 0x180 DUP3 DUP5 SUB SLT ISZERO PUSH2 0x174E JUMPI PUSH1 0x0 DUP1 REVERT JUMPDEST PUSH2 0x1759 PUSH2 0x180 PUSH2 0x2B46 JUMP JUMPDEST SWAP1 POP PUSH1 0x0 PUSH2 0x1769 DUP5 DUP3 DUP6 ADD PUSH2 0x16D2 JUMP JUMPDEST PUSH1 0x0 DUP4 ADD MSTORE POP PUSH1 0x20 PUSH2 0x177D DUP5 DUP3 DUP6 ADD PUSH2 0x16D2 JUMP JUMPDEST PUSH1 0x20 DUP4 ADD MSTORE POP PUSH1 0x40 PUSH2 0x1791 DUP5 DUP3 DUP6 ADD PUSH2 0x16D2 JUMP JUMPDEST PUSH1 0x40 DUP4 ADD MSTORE POP PUSH1 0x60 PUSH2 0x17A5 DUP5 DUP3 DUP6 ADD PUSH2 0x16D2 JUMP JUMPDEST PUSH1 0x60 DUP4 ADD MSTORE POP PUSH1 0x80 DUP3 ADD CALLDATALOAD PUSH8 0xFFFFFFFFFFFFFFFF DUP2 GT ISZERO PUSH2 0x17C5 JUMPI PUSH1 0x0 DUP1 REVERT JUMPDEST PUSH2 0x17D1 DUP5 DUP3 DUP6 ADD PUSH2 0x1332 JUMP JUMPDEST PUSH1 0x80 DUP4 ADD MSTORE POP PUSH1 0xA0 DUP3 ADD CALLDATALOAD PUSH8 0xFFFFFFFFFFFFFFFF DUP2 GT ISZERO PUSH2 0x17F1 JUMPI PUSH1 0x0 DUP1 REVERT JUMPDEST PUSH2 0x17FD DUP5 DUP3 DUP6 ADD PUSH2 0x1332 JUMP JUMPDEST PUSH1 0xA0 DUP4 ADD MSTORE POP PUSH1 0xC0 DUP3 ADD CALLDATALOAD PUSH8 0xFFFFFFFFFFFFFFFF DUP2 GT ISZERO PUSH2 0x181D JUMPI PUSH1 0x0 DUP1 REVERT JUMPDEST PUSH2 0x1829 DUP5 DUP3 DUP6 ADD PUSH2 0x1332 JUMP JUMPDEST PUSH1 0xC0 DUP4 ADD MSTORE POP PUSH1 0xE0 DUP3 ADD CALLDATALOAD PUSH8 0xFFFFFFFFFFFFFFFF DUP2 GT ISZERO PUSH2 0x1849 JUMPI PUSH1 0x0 DUP1 REVERT JUMPDEST PUSH2 0x1855 DUP5 DUP3 DUP6 ADD PUSH2 0x1332 JUMP JUMPDEST PUSH1 0xE0 DUP4 ADD MSTORE POP PUSH2 0x100 DUP3 ADD CALLDATALOAD PUSH8 0xFFFFFFFFFFFFFFFF DUP2 GT ISZERO PUSH2 0x1876 JUMPI PUSH1 0x0 DUP1 REVERT JUMPDEST PUSH2 0x1882 DUP5 DUP3 DUP6 ADD PUSH2 0x1332 JUMP JUMPDEST PUSH2 0x100 DUP4 ADD MSTORE POP PUSH2 0x120 DUP3 ADD CALLDATALOAD PUSH8 0xFFFFFFFFFFFFFFFF DUP2 GT ISZERO PUSH2 0x18A4 JUMPI PUSH1 0x0 DUP1 REVERT JUMPDEST PUSH2 0x18B0 DUP5 DUP3 DUP6 ADD PUSH2 0x1332 JUMP JUMPDEST PUSH2 0x120 DUP4 ADD MSTORE POP PUSH2 0x140 DUP3 ADD CALLDATALOAD PUSH8 0xFFFFFFFFFFFFFFFF DUP2 GT ISZERO PUSH2 0x18D2 JUMPI PUSH1 0x0 DUP1 REVERT JUMPDEST PUSH2 0x18DE DUP5 DUP3 DUP6 ADD PUSH2 0x1332 JUMP JUMPDEST PUSH2 0x140 DUP4 ADD MSTORE POP PUSH2 0x160 DUP3 ADD CALLDATALOAD PUSH8 0xFFFFFFFFFFFFFFFF DUP2 GT ISZERO PUSH2 0x1900 JUMPI PUSH1 0x0 DUP1 REVERT JUMPDEST PUSH2 0x190C DUP5 DUP3 DUP6 ADD PUSH2 0x12AF JUMP JUMPDEST PUSH2 0x160 DUP4 ADD MSTORE POP SWAP3 SWAP2 POP POP JUMP JUMPDEST PUSH1 0x0 PUSH2 0x1E0 DUP3 DUP5 SUB SLT ISZERO PUSH2 0x192C JUMPI PUSH1 0x0 DUP1 REVERT JUMPDEST PUSH2 0x1937 PUSH2 0x1A0 PUSH2 0x2B46 JUMP JUMPDEST SWAP1 POP PUSH1 0x0 PUSH2 0x1947 DUP5 DUP3 DUP6 ADD PUSH2 0x1FBC JUMP JUMPDEST PUSH1 0x0 DUP4 ADD MSTORE POP PUSH1 0x20 PUSH2 0x195B DUP5 DUP3 DUP6 ADD PUSH2 0x1F92 JUMP JUMPDEST PUSH1 0x20 DUP4 ADD MSTORE POP PUSH1 0x40 PUSH2 0x196F DUP5 DUP3 DUP6 ADD PUSH2 0x1F68 JUMP JUMPDEST PUSH1 0x40 DUP4 ADD MSTORE POP PUSH1 0x60 PUSH2 0x1983 DUP5 DUP3 DUP6 ADD PUSH2 0x1F92 JUMP JUMPDEST PUSH1 0x60 DUP4 ADD MSTORE POP PUSH1 0x80 PUSH2 0x1997 DUP5 DUP3 DUP6 ADD PUSH2 0x1F92 JUMP JUMPDEST PUSH1 0x80 DUP4 ADD MSTORE POP PUSH1 0xA0 PUSH2 0x19AB DUP5 DUP3 DUP6 ADD PUSH2 0x1F68 JUMP JUMPDEST PUSH1 0xA0 DUP4 ADD MSTORE POP PUSH1 0xC0 PUSH2 0x19BF DUP5 DUP3 DUP6 ADD PUSH2 0x1F68 JUMP JUMPDEST PUSH1 0xC0 DUP4 ADD MSTORE POP PUSH1 0xE0 PUSH2 0x19D3 DUP5 DUP3 DUP6 ADD PUSH2 0x16BD JUMP JUMPDEST PUSH1 0xE0 DUP4 ADD MSTORE POP PUSH2 0x100 PUSH2 0x19E8 DUP5 DUP3 DUP6 ADD PUSH2 0x1A4D JUMP JUMPDEST PUSH2 0x100 DUP4 ADD MSTORE POP PUSH2 0x140 PUSH2 0x19FE DUP5 DUP3 DUP6 ADD PUSH2 0x1A4D JUMP JUMPDEST PUSH2 0x120 DUP4 ADD MSTORE POP PUSH2 0x180 PUSH2 0x1A14 DUP5 DUP3 DUP6 ADD PUSH2 0x1F7D JUMP JUMPDEST PUSH2 0x140 DUP4 ADD MSTORE POP PUSH2 0x1A0 PUSH2 0x1A2A DUP5 DUP3 DUP6 ADD PUSH2 0x129A JUMP JUMPDEST PUSH2 0x160 DUP4 ADD MSTORE POP PUSH2 0x1C0 PUSH2 0x1A40 DUP5 DUP3 DUP6 ADD PUSH2 0x16BD JUMP JUMPDEST PUSH2 0x180 DUP4 ADD MSTORE POP SWAP3 SWAP2 POP POP JUMP JUMPDEST PUSH1 0x0 PUSH1 0x40 DUP3 DUP5 SUB SLT ISZERO PUSH2 0x1A5F JUMPI PUSH1 0x0 DUP1 REVERT JUMPDEST PUSH2 0x1A69 PUSH1 0x40 PUSH2 0x2B46 JUMP JUMPDEST SWAP1 POP PUSH1 0x0 PUSH2 0x1A79 DUP5 DUP3 DUP6 ADD PUSH2 0x1F68 JUMP JUMPDEST PUSH1 0x0 DUP4 ADD MSTORE POP PUSH1 0x20 PUSH2 0x1A8D DUP5 DUP3 DUP6 ADD PUSH2 0x1FA7 JUMP JUMPDEST PUSH1 0x20 DUP4 ADD MSTORE POP SWAP3 SWAP2 POP POP JUMP JUMPDEST PUSH1 0x0 PUSH1 0x40 DUP3 DUP5 SUB SLT ISZERO PUSH2 0x1AAB JUMPI PUSH1 0x0 DUP1 REVERT JUMPDEST PUSH2 0x1AB5 PUSH1 0x40 PUSH2 0x2B46 JUMP JUMPDEST SWAP1 POP PUSH1 0x0 DUP3 ADD CALLDATALOAD PUSH8 0xFFFFFFFFFFFFFFFF DUP2 GT ISZERO PUSH2 0x1AD1 JUMPI PUSH1 0x0 DUP1 REVERT JUMPDEST PUSH2 0x1ADD DUP5 DUP3 DUP6 ADD PUSH2 0x16E7 JUMP JUMPDEST PUSH1 0x0 DUP4 ADD MSTORE POP PUSH1 0x20 PUSH2 0x1AF1 DUP5 DUP3 DUP6 ADD PUSH2 0x1F68 JUMP JUMPDEST PUSH1 0x20 DUP4 ADD MSTORE POP SWAP3 SWAP2 POP POP JUMP JUMPDEST PUSH1 0x0 PUSH2 0x1C0 DUP3 DUP5 SUB SLT ISZERO PUSH2 0x1B10 JUMPI PUSH1 0x0 DUP1 REVERT JUMPDEST PUSH2 0x1B1B PUSH2 0x180 PUSH2 0x2B46 JUMP JUMPDEST SWAP1 POP PUSH1 0x0 PUSH2 0x1B2B DUP5 DUP3 DUP6 ADD PUSH2 0x1F92 JUMP JUMPDEST PUSH1 0x0 DUP4 ADD MSTORE POP PUSH1 0x20 PUSH2 0x1B3F DUP5 DUP3 DUP6 ADD PUSH2 0x1F92 JUMP JUMPDEST PUSH1 0x20 DUP4 ADD MSTORE POP PUSH1 0x40 PUSH2 0x1B53 DUP5 DUP3 DUP6 ADD PUSH2 0x1E0A JUMP JUMPDEST PUSH1 0x40 DUP4 ADD MSTORE POP PUSH1 0x80 PUSH2 0x1B67 DUP5 DUP3 DUP6 ADD PUSH2 0x1F68 JUMP JUMPDEST PUSH1 0x60 DUP4 ADD MSTORE POP PUSH1 0xA0 PUSH2 0x1B7B DUP5 DUP3 DUP6 ADD PUSH2 0x1F92 JUMP JUMPDEST PUSH1 0x80 DUP4 ADD MSTORE POP PUSH1 0xC0 DUP3 ADD CALLDATALOAD PUSH8 0xFFFFFFFFFFFFFFFF DUP2 GT ISZERO PUSH2 0x1B9B JUMPI PUSH1 0x0 DUP1 REVERT JUMPDEST PUSH2 0x1BA7 DUP5 DUP3 DUP6 ADD PUSH2 0x173B JUMP JUMPDEST PUSH1 0xA0 DUP4 ADD MSTORE POP PUSH1 0xE0 PUSH2 0x1BBB DUP5 DUP3 DUP6 ADD PUSH2 0x1E56 JUMP JUMPDEST PUSH1 0xC0 DUP4 ADD MSTORE POP PUSH2 0x120 PUSH2 0x1BD0 DUP5 DUP3 DUP6 ADD PUSH2 0x1F7D JUMP JUMPDEST PUSH1 0xE0 DUP4 ADD MSTORE POP PUSH2 0x140 PUSH2 0x1BE5 DUP5 DUP3 DUP6 ADD PUSH2 0x1F92 JUMP JUMPDEST PUSH2 0x100 DUP4 ADD MSTORE POP PUSH2 0x160 DUP3 ADD CALLDATALOAD PUSH8 0xFFFFFFFFFFFFFFFF DUP2 GT ISZERO PUSH2 0x1C07 JUMPI PUSH1 0x0 DUP1 REVERT JUMPDEST PUSH2 0x1C13 DUP5 DUP3 DUP6 ADD PUSH2 0x1531 JUMP JUMPDEST PUSH2 0x120 DUP4 ADD MSTORE POP PUSH2 0x180 DUP3 ADD CALLDATALOAD PUSH8 0xFFFFFFFFFFFFFFFF DUP2 GT ISZERO PUSH2 0x1C35 JUMPI PUSH1 0x0 DUP1 REVERT JUMPDEST PUSH2 0x1C41 DUP5 DUP3 DUP6 ADD PUSH2 0x15A5 JUMP JUMPDEST PUSH2 0x140 DUP4 ADD MSTORE POP PUSH2 0x1A0 DUP3 ADD CALLDATALOAD PUSH8 0xFFFFFFFFFFFFFFFF DUP2 GT ISZERO PUSH2 0x1C63 JUMPI PUSH1 0x0 DUP1 REVERT JUMPDEST PUSH2 0x1C6F DUP5 DUP3 DUP6 ADD PUSH2 0x1438 JUMP JUMPDEST PUSH2 0x160 DUP4 ADD MSTORE POP SWAP3 SWAP2 POP POP JUMP JUMPDEST PUSH1 0x0 PUSH1 0xE0 DUP3 DUP5 SUB SLT ISZERO PUSH2 0x1C8E JUMPI PUSH1 0x0 DUP1 REVERT JUMPDEST PUSH2 0x1C98 PUSH1 0xE0 PUSH2 0x2B46 JUMP JUMPDEST SWAP1 POP PUSH1 0x0 PUSH2 0x1CA8 DUP5 DUP3 DUP6 ADD PUSH2 0x16A8 JUMP JUMPDEST PUSH1 0x0 DUP4 ADD MSTORE POP PUSH1 0x20 PUSH2 0x1CBC DUP5 DUP3 DUP6 ADD PUSH2 0x16A8 JUMP JUMPDEST PUSH1 0x20 DUP4 ADD MSTORE POP PUSH1 0x40 PUSH2 0x1CD0 DUP5 DUP3 DUP6 ADD PUSH2 0x1F68 JUMP JUMPDEST PUSH1 0x40 DUP4 ADD MSTORE POP PUSH1 0x60 PUSH2 0x1CE4 DUP5 DUP3 DUP6 ADD PUSH2 0x1F92 JUMP JUMPDEST PUSH1 0x60 DUP4 ADD MSTORE POP PUSH1 0x80 PUSH2 0x1CF8 DUP5 DUP3 DUP6 ADD PUSH2 0x1F7D JUMP JUMPDEST PUSH1 0x80 DUP4 ADD MSTORE POP PUSH1 0xA0 PUSH2 0x1D0C DUP5 DUP3 DUP6 ADD PUSH2 0x1F7D JUMP JUMPDEST PUSH1 0xA0 DUP4 ADD MSTORE POP PUSH1 0xC0 PUSH2 0x1D20 DUP5 DUP3 DUP6 ADD PUSH2 0x1F7D JUMP JUMPDEST PUSH1 0xC0 DUP4 ADD MSTORE POP SWAP3 SWAP2 POP POP JUMP JUMPDEST PUSH1 0x0 PUSH2 0x160 DUP3 DUP5 SUB SLT ISZERO PUSH2 0x1D3F JUMPI PUSH1 0x0 DUP1 REVERT JUMPDEST PUSH2 0x1D4A PUSH2 0x120 PUSH2 0x2B46 JUMP JUMPDEST SWAP1 POP PUSH1 0x0 PUSH2 0x1D5A DUP5 DUP3 DUP6 ADD PUSH2 0x1F92 JUMP JUMPDEST PUSH1 0x0 DUP4 ADD MSTORE POP PUSH1 0x20 PUSH2 0x1D6E DUP5 DUP3 DUP6 ADD PUSH2 0x1A4D JUMP JUMPDEST PUSH1 0x20 DUP4 ADD MSTORE POP PUSH1 0x60 PUSH2 0x1D82 DUP5 DUP3 DUP6 ADD PUSH2 0x1F92 JUMP JUMPDEST PUSH1 0x40 DUP4 ADD MSTORE POP PUSH1 0x80 PUSH2 0x1D96 DUP5 DUP3 DUP6 ADD PUSH2 0x1F68 JUMP JUMPDEST PUSH1 0x60 DUP4 ADD MSTORE POP PUSH1 0xA0 PUSH2 0x1DAA DUP5 DUP3 DUP6 ADD PUSH2 0x1F7D JUMP JUMPDEST PUSH1 0x80 DUP4 ADD MSTORE POP PUSH1 0xC0 PUSH2 0x1DBE DUP5 DUP3 DUP6 ADD PUSH2 0x1E0A JUMP JUMPDEST PUSH1 0xA0 DUP4 ADD MSTORE POP PUSH2 0x100 PUSH2 0x1DD3 DUP5 DUP3 DUP6 ADD PUSH2 0x1F68 JUMP JUMPDEST PUSH1 0xC0 DUP4 ADD MSTORE POP PUSH2 0x120 PUSH2 0x1DE8 DUP5 DUP3 DUP6 ADD PUSH2 0x1F68 JUMP JUMPDEST PUSH1 0xE0 DUP4 ADD MSTORE POP PUSH2 0x140 PUSH2 0x1DFD DUP5 DUP3 DUP6 ADD PUSH2 0x1F68 JUMP JUMPDEST PUSH2 0x100 DUP4 ADD MSTORE POP SWAP3 SWAP2 POP POP JUMP JUMPDEST PUSH1 0x0 PUSH1 0x40 DUP3 DUP5 SUB SLT ISZERO PUSH2 0x1E1C JUMPI PUSH1 0x0 DUP1 REVERT JUMPDEST PUSH2 0x1E26 PUSH1 0x40 PUSH2 0x2B46 JUMP JUMPDEST SWAP1 POP PUSH1 0x0 PUSH2 0x1E36 DUP5 DUP3 DUP6 ADD PUSH2 0x1F92 JUMP JUMPDEST PUSH1 0x0 DUP4 ADD MSTORE POP PUSH1 0x20 PUSH2 0x1E4A DUP5 DUP3 DUP6 ADD PUSH2 0x1F68 JUMP JUMPDEST PUSH1 0x20 DUP4 ADD MSTORE POP SWAP3 SWAP2 POP POP JUMP JUMPDEST PUSH1 0x0 PUSH1 0x40 DUP3 DUP5 SUB SLT ISZERO PUSH2 0x1E68 JUMPI PUSH1 0x0 DUP1 REVERT JUMPDEST PUSH2 0x1E72 PUSH1 0x40 PUSH2 0x2B46 JUMP JUMPDEST SWAP1 POP PUSH1 0x0 PUSH2 0x1E82 DUP5 DUP3 DUP6 ADD PUSH2 0x1F7D JUMP JUMPDEST PUSH1 0x0 DUP4 ADD MSTORE POP PUSH1 0x20 PUSH2 0x1E96 DUP5 DUP3 DUP6 ADD PUSH2 0x1F92 JUMP JUMPDEST PUSH1 0x20 DUP4 ADD MSTORE POP SWAP3 SWAP2 POP POP JUMP JUMPDEST PUSH1 0x0 PUSH1 0x40 DUP3 DUP5 SUB SLT ISZERO PUSH2 0x1EB4 JUMPI PUSH1 0x0 DUP1 REVERT JUMPDEST PUSH2 0x1EBE PUSH1 0x40 PUSH2 0x2B46 JUMP JUMPDEST SWAP1 POP PUSH1 0x0 PUSH2 0x1ECE DUP5 DUP3 DUP6 ADD PUSH2 0x1F68 JUMP JUMPDEST PUSH1 0x0 DUP4 ADD MSTORE POP PUSH1 0x20 DUP3 ADD CALLDATALOAD PUSH8 0xFFFFFFFFFFFFFFFF DUP2 GT ISZERO PUSH2 0x1EEE JUMPI PUSH1 0x0 DUP1 REVERT JUMPDEST PUSH2 0x1EFA DUP5 DUP3 DUP6 ADD PUSH2 0x173B JUMP JUMPDEST PUSH1 0x20 DUP4 ADD MSTORE POP SWAP3 SWAP2 POP POP JUMP JUMPDEST PUSH1 0x0 PUSH2 0x100 DUP3 DUP5 SUB SLT ISZERO PUSH2 0x1F19 JUMPI PUSH1 0x0 DUP1 REVERT JUMPDEST PUSH2 0x1F23 PUSH1 0x40 PUSH2 0x2B46 JUMP JUMPDEST SWAP1 POP PUSH1 0x0 PUSH2 0x1F33 DUP5 DUP3 DUP6 ADD PUSH2 0x1F68 JUMP JUMPDEST PUSH1 0x0 DUP4 ADD MSTORE POP PUSH1 0x20 PUSH2 0x1F47 DUP5 DUP3 DUP6 ADD PUSH2 0x1C7C JUMP JUMPDEST PUSH1 0x20 DUP4 ADD MSTORE POP SWAP3 SWAP2 POP POP JUMP JUMPDEST PUSH1 0x0 DUP2 CALLDATALOAD SWAP1 POP PUSH2 0x1F62 DUP2 PUSH2 0x2FE0 JUMP JUMPDEST SWAP3 SWAP2 POP POP JUMP JUMPDEST PUSH1 0x0 DUP2 CALLDATALOAD SWAP1 POP PUSH2 0x1F77 DUP2 PUSH2 0x2FF7 JUMP JUMPDEST SWAP3 SWAP2 POP POP JUMP JUMPDEST PUSH1 0x0 DUP2 CALLDATALOAD SWAP1 POP PUSH2 0x1F8C DUP2 PUSH2 0x300E JUMP JUMPDEST SWAP3 SWAP2 POP POP JUMP JUMPDEST PUSH1 0x0 DUP2 CALLDATALOAD SWAP1 POP PUSH2 0x1FA1 DUP2 PUSH2 0x3025 JUMP JUMPDEST SWAP3 SWAP2 POP POP JUMP JUMPDEST PUSH1 0x0 DUP2 CALLDATALOAD SWAP1 POP PUSH2 0x1FB6 DUP2 PUSH2 0x303C JUMP JUMPDEST SWAP3 SWAP2 POP POP JUMP JUMPDEST PUSH1 0x0 DUP2 CALLDATALOAD SWAP1 POP PUSH2 0x1FCB DUP2 PUSH2 0x3053 JUMP JUMPDEST SWAP3 SWAP2 POP POP JUMP JUMPDEST PUSH1 0x0 PUSH1 0x20 DUP3 DUP5 SUB SLT ISZERO PUSH2 0x1FE3 JUMPI PUSH1 0x0 DUP1 REVERT JUMPDEST PUSH1 0x0 PUSH2 0x1FF1 DUP5 DUP3 DUP6 ADD PUSH2 0x129A JUMP JUMPDEST SWAP2 POP POP SWAP3 SWAP2 POP POP JUMP JUMPDEST PUSH1 0x0 PUSH1 0x20 DUP3 DUP5 SUB SLT ISZERO PUSH2 0x200C JUMPI PUSH1 0x0 DUP1 REVERT JUMPDEST PUSH1 0x0 DUP3 ADD CALLDATALOAD PUSH8 0xFFFFFFFFFFFFFFFF DUP2 GT ISZERO PUSH2 0x2026 JUMPI PUSH1 0x0 DUP1 REVERT JUMPDEST PUSH2 0x2032 DUP5 DUP3 DUP6 ADD PUSH2 0x12AF JUMP JUMPDEST SWAP2 POP POP SWAP3 SWAP2 POP POP JUMP JUMPDEST PUSH1 0x0 PUSH1 0x20 DUP3 DUP5 SUB SLT ISZERO PUSH2 0x204D JUMPI PUSH1 0x0 DUP1 REVERT JUMPDEST PUSH1 0x0 DUP3 ADD CALLDATALOAD PUSH8 0xFFFFFFFFFFFFFFFF DUP2 GT ISZERO PUSH2 0x2067 JUMPI PUSH1 0x0 DUP1 REVERT JUMPDEST PUSH2 0x2073 DUP5 DUP3 DUP6 ADD PUSH2 0x1332 JUMP JUMPDEST SWAP2 POP POP SWAP3 SWAP2 POP POP JUMP JUMPDEST PUSH1 0x0 PUSH1 0x20 DUP3 DUP5 SUB SLT ISZERO PUSH2 0x208E JUMPI PUSH1 0x0 DUP1 REVERT JUMPDEST PUSH1 0x0 DUP3 ADD CALLDATALOAD PUSH8 0xFFFFFFFFFFFFFFFF DUP2 GT ISZERO PUSH2 0x20A8 JUMPI PUSH1 0x0 DUP1 REVERT JUMPDEST PUSH2 0x20B4 DUP5 DUP3 DUP6 ADD PUSH2 0x13B5 JUMP JUMPDEST SWAP2 POP POP SWAP3 SWAP2 POP POP JUMP JUMPDEST PUSH1 0x0 PUSH1 0x20 DUP3 DUP5 SUB SLT ISZERO PUSH2 0x20CF JUMPI PUSH1 0x0 DUP1 REVERT JUMPDEST PUSH1 0x0 DUP3 ADD CALLDATALOAD PUSH8 0xFFFFFFFFFFFFFFFF DUP2 GT ISZERO PUSH2 0x20E9 JUMPI PUSH1 0x0 DUP1 REVERT JUMPDEST PUSH2 0x20F5 DUP5 DUP3 DUP6 ADD PUSH2 0x14AC JUMP JUMPDEST SWAP2 POP POP SWAP3 SWAP2 POP POP JUMP JUMPDEST PUSH1 0x0 PUSH1 0x20 DUP3 DUP5 SUB SLT ISZERO PUSH2 0x2110 JUMPI PUSH1 0x0 DUP1 REVERT JUMPDEST PUSH1 0x0 DUP3 ADD CALLDATALOAD PUSH8 0xFFFFFFFFFFFFFFFF DUP2 GT ISZERO PUSH2 0x212A JUMPI PUSH1 0x0 DUP1 REVERT JUMPDEST PUSH2 0x2136 DUP5 DUP3 DUP6 ADD PUSH2 0x1531 JUMP JUMPDEST SWAP2 POP POP SWAP3 SWAP2 POP POP JUMP JUMPDEST PUSH1 0x0 PUSH1 0x20 DUP3 DUP5 SUB SLT ISZERO PUSH2 0x2151 JUMPI PUSH1 0x0 DUP1 REVERT JUMPDEST PUSH1 0x0 DUP3 ADD CALLDATALOAD PUSH8 0xFFFFFFFFFFFFFFFF DUP2 GT ISZERO PUSH2 0x216B JUMPI PUSH1 0x0 DUP1 REVERT JUMPDEST PUSH2 0x2177 DUP5 DUP3 DUP6 ADD PUSH2 0x15A5 JUMP JUMPDEST SWAP2 POP POP SWAP3 SWAP2 POP POP JUMP JUMPDEST PUSH1 0x0 PUSH1 0x20 DUP3 DUP5 SUB SLT ISZERO PUSH2 0x2192 JUMPI PUSH1 0x0 DUP1 REVERT JUMPDEST PUSH1 0x0 PUSH2 0x21A0 DUP5 DUP3 DUP6 ADD PUSH2 0x162A JUMP JUMPDEST SWAP2 POP POP SWAP3 SWAP2 POP POP JUMP JUMPDEST PUSH1 0x0 PUSH1 0x20 DUP3 DUP5 SUB SLT ISZERO PUSH2 0x21BB JUMPI PUSH1 0x0 DUP1 REVERT JUMPDEST PUSH1 0x0 PUSH2 0x21C9 DUP5 DUP3 DUP6 ADD PUSH2 0x163F JUMP JUMPDEST SWAP2 POP POP SWAP3 SWAP2 POP POP JUMP JUMPDEST PUSH1 0x0 PUSH1 0x20 DUP3 DUP5 SUB SLT ISZERO PUSH2 0x21E4 JUMPI PUSH1 0x0 DUP1 REVERT JUMPDEST PUSH1 0x0 DUP3 ADD CALLDATALOAD PUSH8 0xFFFFFFFFFFFFFFFF DUP2 GT ISZERO PUSH2 0x21FE JUMPI PUSH1 0x0 DUP1 REVERT JUMPDEST PUSH2 0x220A DUP5 DUP3 DUP6 ADD PUSH2 0x1654 JUMP JUMPDEST SWAP2 POP POP SWAP3 SWAP2 POP POP JUMP JUMPDEST PUSH1 0x0 PUSH1 0x20 DUP3 DUP5 SUB SLT ISZERO PUSH2 0x2225 JUMPI PUSH1 0x0 DUP1 REVERT JUMPDEST PUSH1 0x0 PUSH2 0x2233 DUP5 DUP3 DUP6 ADD PUSH2 0x16A8 JUMP JUMPDEST SWAP2 POP POP SWAP3 SWAP2 POP POP JUMP JUMPDEST PUSH1 0x0 PUSH1 0x20 DUP3 DUP5 SUB SLT ISZERO PUSH2 0x224E JUMPI PUSH1 0x0 DUP1 REVERT JUMPDEST PUSH1 0x0 PUSH2 0x225C DUP5 DUP3 DUP6 ADD PUSH2 0x16BD JUMP JUMPDEST SWAP2 POP POP SWAP3 SWAP2 POP POP JUMP JUMPDEST PUSH1 0x0 PUSH1 0x20 DUP3 DUP5 SUB SLT ISZERO PUSH2 0x2277 JUMPI PUSH1 0x0 DUP1 REVERT JUMPDEST PUSH1 0x0 PUSH2 0x2285 DUP5 DUP3 DUP6 ADD PUSH2 0x16D2 JUMP JUMPDEST SWAP2 POP POP SWAP3 SWAP2 POP POP JUMP JUMPDEST PUSH1 0x0 PUSH1 0x20 DUP3 DUP5 SUB SLT ISZERO PUSH2 0x22A0 JUMPI PUSH1 0x0 DUP1 REVERT JUMPDEST PUSH1 0x0 DUP3 ADD CALLDATALOAD PUSH8 0xFFFFFFFFFFFFFFFF DUP2 GT ISZERO PUSH2 0x22BA JUMPI PUSH1 0x0 DUP1 REVERT JUMPDEST PUSH2 0x22C6 DUP5 DUP3 DUP6 ADD PUSH2 0x16E7 JUMP JUMPDEST SWAP2 POP POP SWAP3 SWAP2 POP POP JUMP JUMPDEST PUSH1 0x0 PUSH1 0x20 DUP3 DUP5 SUB SLT ISZERO PUSH2 0x22E1 JUMPI PUSH1 0x0 DUP1 REVERT JUMPDEST PUSH1 0x0 DUP3 ADD CALLDATALOAD PUSH8 0xFFFFFFFFFFFFFFFF DUP2 GT ISZERO PUSH2 0x22FB JUMPI PUSH1 0x0 DUP1 REVERT JUMPDEST PUSH2 0x2307 DUP5 DUP3 DUP6 ADD PUSH2 0x173B JUMP JUMPDEST SWAP2 POP POP SWAP3 SWAP2 POP POP JUMP JUMPDEST PUSH1 0x0 PUSH2 0x1E0 DUP3 DUP5 SUB SLT ISZERO PUSH2 0x2323 JUMPI PUSH1 0x0 DUP1 REVERT JUMPDEST PUSH1 0x0 PUSH2 0x2331 DUP5 DUP3 DUP6 ADD PUSH2 0x1919 JUMP JUMPDEST SWAP2 POP POP SWAP3 SWAP2 POP POP JUMP JUMPDEST PUSH1 0x0 PUSH1 0x40 DUP3 DUP5 SUB SLT ISZERO PUSH2 0x234C JUMPI PUSH1 0x0 DUP1 REVERT JUMPDEST PUSH1 0x0 PUSH2 0x235A DUP5 DUP3 DUP6 ADD PUSH2 0x1A4D JUMP JUMPDEST SWAP2 POP POP SWAP3 SWAP2 POP POP JUMP JUMPDEST PUSH1 0x0 PUSH1 0x20 DUP3 DUP5 SUB SLT ISZERO PUSH2 0x2375 JUMPI PUSH1 0x0 DUP1 REVERT JUMPDEST PUSH1 0x0 DUP3 ADD CALLDATALOAD PUSH8 0xFFFFFFFFFFFFFFFF DUP2 GT ISZERO PUSH2 0x238F JUMPI PUSH1 0x0 DUP1 REVERT JUMPDEST PUSH2 0x239B DUP5 DUP3 DUP6 ADD PUSH2 0x1AFD JUMP JUMPDEST SWAP2 POP POP SWAP3 SWAP2 POP POP JUMP JUMPDEST PUSH1 0x0 PUSH1 0xE0 DUP3 DUP5 SUB SLT ISZERO PUSH2 0x23B6 JUMPI PUSH1 0x0 DUP1 REVERT JUMPDEST PUSH1 0x0 PUSH2 0x23C4 DUP5 DUP3 DUP6 ADD PUSH2 0x1C7C JUMP JUMPDEST SWAP2 POP POP SWAP3 SWAP2 POP POP JUMP JUMPDEST PUSH1 0x0 PUSH2 0x160 DUP3 DUP5 SUB SLT ISZERO PUSH2 0x23E0 JUMPI PUSH1 0x0 DUP1 REVERT JUMPDEST PUSH1 0x0 PUSH2 0x23EE DUP5 DUP3 DUP6 ADD PUSH2 0x1D2C JUMP JUMPDEST SWAP2 POP POP SWAP3 SWAP2 POP POP JUMP JUMPDEST PUSH1 0x0 PUSH1 0x40 DUP3 DUP5 SUB SLT ISZERO PUSH2 0x2409 JUMPI PUSH1 0x0 DUP1 REVERT JUMPDEST PUSH1 0x0 PUSH2 0x2417 DUP5 DUP3 DUP6 ADD PUSH2 0x1E0A JUMP JUMPDEST SWAP2 POP POP SWAP3 SWAP2 POP POP JUMP JUMPDEST PUSH1 0x0 PUSH1 0x40 DUP3 DUP5 SUB SLT ISZERO PUSH2 0x2432 JUMPI PUSH1 0x0 DUP1 REVERT JUMPDEST PUSH1 0x0 PUSH2 0x2440 DUP5 DUP3 DUP6 ADD PUSH2 0x1E56 JUMP JUMPDEST SWAP2 POP POP SWAP3 SWAP2 POP POP JUMP JUMPDEST PUSH1 0x0 PUSH1 0x20 DUP3 DUP5 SUB SLT ISZERO PUSH2 0x245B JUMPI PUSH1 0x0 DUP1 REVERT JUMPDEST PUSH1 0x0 DUP3 ADD CALLDATALOAD PUSH8 0xFFFFFFFFFFFFFFFF DUP2 GT ISZERO PUSH2 0x2475 JUMPI PUSH1 0x0 DUP1 REVERT JUMPDEST PUSH2 0x2481 DUP5 DUP3 DUP6 ADD PUSH2 0x1EA2 JUMP JUMPDEST SWAP2 POP POP SWAP3 SWAP2 POP POP JUMP JUMPDEST PUSH1 0x0 PUSH2 0x100 DUP3 DUP5 SUB SLT ISZERO PUSH2 0x249D JUMPI PUSH1 0x0 DUP1 REVERT JUMPDEST PUSH1 0x0 PUSH2 0x24AB DUP5 DUP3 DUP6 ADD PUSH2 0x1F06 JUMP JUMPDEST SWAP2 POP POP SWAP3 SWAP2 POP POP JUMP JUMPDEST PUSH1 0x0 PUSH1 0x20 DUP3 DUP5 SUB SLT ISZERO PUSH2 0x24C6 JUMPI PUSH1 0x0 DUP1 REVERT JUMPDEST PUSH1 0x0 PUSH2 0x24D4 DUP5 DUP3 DUP6 ADD PUSH2 0x1F53 JUMP JUMPDEST SWAP2 POP POP SWAP3 SWAP2 POP POP JUMP JUMPDEST PUSH1 0x0 PUSH1 0x20 DUP3 DUP5 SUB SLT ISZERO PUSH2 0x24EF JUMPI PUSH1 0x0 DUP1 REVERT JUMPDEST PUSH1 0x0 PUSH2 0x24FD DUP5 DUP3 DUP6 ADD PUSH2 0x1F68 JUMP JUMPDEST SWAP2 POP POP SWAP3 SWAP2 POP POP JUMP JUMPDEST PUSH1 0x0 PUSH1 0x20 DUP3 DUP5 SUB SLT ISZERO PUSH2 0x2518 JUMPI PUSH1 0x0 DUP1 REVERT JUMPDEST PUSH1 0x0 PUSH2 0x2526 DUP5 DUP3 DUP6 ADD PUSH2 0x1F7D JUMP JUMPDEST SWAP2 POP POP SWAP3 SWAP2 POP POP JUMP JUMPDEST PUSH1 0x0 PUSH1 0x20 DUP3 DUP5 SUB SLT ISZERO PUSH2 0x2541 JUMPI PUSH1 0x0 DUP1 REVERT JUMPDEST PUSH1 0x0 PUSH2 0x254F DUP5 DUP3 DUP6 ADD PUSH2 0x1F92 JUMP JUMPDEST SWAP2 POP POP SWAP3 SWAP2 POP POP JUMP JUMPDEST PUSH1 0x0 PUSH1 0x20 DUP3 DUP5 SUB SLT ISZERO PUSH2 0x256A JUMPI PUSH1 0x0 DUP1 REVERT JUMPDEST PUSH1 0x0 PUSH2 0x2578 DUP5 DUP3 DUP6 ADD PUSH2 0x1FA7 JUMP JUMPDEST SWAP2 POP POP SWAP3 SWAP2 POP POP JUMP JUMPDEST PUSH1 0x0 PUSH1 0x20 DUP3 DUP5 SUB SLT ISZERO PUSH2 0x2593 JUMPI PUSH1 0x0 DUP1 REVERT JUMPDEST PUSH1 0x0 PUSH2 0x25A1 DUP5 DUP3 DUP6 ADD PUSH2 0x1FBC JUMP JUMPDEST SWAP2 POP POP SWAP3 SWAP2 POP POP JUMP JUMPDEST PUSH2 0x25BB PUSH2 0x25B6 DUP3 PUSH2 0x2D20 JUMP JUMPDEST PUSH2 0x2E3C JUMP JUMPDEST DUP3 MSTORE POP POP JUMP JUMPDEST PUSH2 0x25D2 PUSH2 0x25CD DUP3 PUSH2 0x2D32 JUMP JUMPDEST PUSH2 0x2E4E JUMP JUMPDEST DUP3 MSTORE POP POP JUMP JUMPDEST PUSH2 0x25E9 PUSH2 0x25E4 DUP3 PUSH2 0x2D3E JUMP JUMPDEST PUSH2 0x2E60 JUMP JUMPDEST DUP3 MSTORE POP POP JUMP JUMPDEST PUSH1 0x0 PUSH2 0x25FA DUP3 PUSH2 0x2CE3 JUMP JUMPDEST PUSH2 0x2604 DUP2 DUP6 PUSH2 0x2CF9 JUMP JUMPDEST SWAP4 POP PUSH2 0x2614 DUP2 DUP6 PUSH1 0x20 DUP7 ADD PUSH2 0x2E09 JUMP JUMPDEST PUSH2 0x261D DUP2 PUSH2 0x2F04 JUMP JUMPDEST DUP5 ADD SWAP2 POP POP SWAP3 SWAP2 POP POP JUMP JUMPDEST PUSH1 0x0 PUSH2 0x2633 DUP3 PUSH2 0x2CE3 JUMP JUMPDEST PUSH2 0x263D DUP2 DUP6 PUSH2 0x2D0A JUMP JUMPDEST SWAP4 POP PUSH2 0x264D DUP2 DUP6 PUSH1 0x20 DUP7 ADD PUSH2 0x2E09 JUMP JUMPDEST DUP1 DUP5 ADD SWAP2 POP POP SWAP3 SWAP2 POP POP JUMP JUMPDEST PUSH2 0x266A PUSH2 0x2665 DUP3 PUSH2 0x2D6A JUMP JUMPDEST PUSH2 0x2E6A JUMP JUMPDEST DUP3 MSTORE POP POP JUMP JUMPDEST PUSH2 0x2681 PUSH2 0x267C DUP3 PUSH2 0x2D77 JUMP JUMPDEST PUSH2 0x2E7C JUMP JUMPDEST DUP3 MSTORE POP POP JUMP JUMPDEST PUSH2 0x2698 PUSH2 0x2693 DUP3 PUSH2 0x2D84 JUMP JUMPDEST PUSH2 0x2E8E JUMP JUMPDEST DUP3 MSTORE POP POP JUMP JUMPDEST PUSH1 0x0 PUSH2 0x26A9 DUP3 PUSH2 0x2CEE JUMP JUMPDEST PUSH2 0x26B3 DUP2 DUP6 PUSH2 0x2D15 JUMP JUMPDEST SWAP4 POP PUSH2 0x26C3 DUP2 DUP6 PUSH1 0x20 DUP7 ADD PUSH2 0x2E09 JUMP JUMPDEST DUP1 DUP5 ADD SWAP2 POP POP SWAP3 SWAP2 POP POP JUMP JUMPDEST PUSH2 0x26E0 PUSH2 0x26DB DUP3 PUSH2 0x2D9F JUMP JUMPDEST PUSH2 0x2EB2 JUMP JUMPDEST DUP3 MSTORE POP POP JUMP JUMPDEST PUSH2 0x26F7 PUSH2 0x26F2 DUP3 PUSH2 0x2D91 JUMP JUMPDEST PUSH2 0x2EA0 JUMP JUMPDEST DUP3 MSTORE POP POP JUMP JUMPDEST PUSH2 0x270E PUSH2 0x2709 DUP3 PUSH2 0x2DBF JUMP JUMPDEST PUSH2 0x2EC4 JUMP JUMPDEST DUP3 MSTORE POP POP JUMP JUMPDEST PUSH2 0x2725 PUSH2 0x2720 DUP3 PUSH2 0x2DC9 JUMP JUMPDEST PUSH2 0x2ECE JUMP JUMPDEST DUP3 MSTORE POP POP JUMP JUMPDEST PUSH2 0x273C PUSH2 0x2737 DUP3 PUSH2 0x2DD9 JUMP JUMPDEST PUSH2 0x2EE0 JUMP JUMPDEST DUP3 MSTORE POP POP JUMP JUMPDEST PUSH2 0x2753 PUSH2 0x274E DUP3 PUSH2 0x2DED JUMP JUMPDEST PUSH2 0x2EF2 JUMP JUMPDEST DUP3 MSTORE POP POP JUMP JUMPDEST PUSH1 0x0 PUSH2 0x2765 DUP3 DUP5 PUSH2 0x25AA JUMP JUMPDEST PUSH1 0x14 DUP3 ADD SWAP2 POP DUP2 SWAP1 POP SWAP3 SWAP2 POP POP JUMP JUMPDEST PUSH1 0x0 PUSH2 0x2780 DUP3 DUP5 PUSH2 0x25C1 JUMP JUMPDEST PUSH1 0x1 DUP3 ADD SWAP2 POP DUP2 SWAP1 POP SWAP3 SWAP2 POP POP JUMP JUMPDEST PUSH1 0x0 PUSH2 0x279B DUP3 DUP5 PUSH2 0x25D8 JUMP JUMPDEST PUSH1 0x14 DUP3 ADD SWAP2 POP DUP2 SWAP1 POP SWAP3 SWAP2 POP POP JUMP JUMPDEST PUSH1 0x0 PUSH2 0x27B6 DUP3 DUP6 PUSH2 0x2628 JUMP JUMPDEST SWAP2 POP PUSH2 0x27C2 DUP3 DUP5 PUSH2 0x2628 JUMP JUMPDEST SWAP2 POP DUP2 SWAP1 POP SWAP4 SWAP3 POP POP POP JUMP JUMPDEST PUSH1 0x0 PUSH2 0x27DA DUP3 DUP10 PUSH2 0x2628 JUMP JUMPDEST SWAP2 POP PUSH2 0x27E6 DUP3 DUP9 PUSH2 0x2628 JUMP JUMPDEST SWAP2 POP PUSH2 0x27F2 DUP3 DUP8 PUSH2 0x2628 JUMP JUMPDEST SWAP2 POP PUSH2 0x27FE DUP3 DUP7 PUSH2 0x2628 JUMP JUMPDEST SWAP2 POP PUSH2 0x280A DUP3 DUP6 PUSH2 0x2628 JUMP JUMPDEST SWAP2 POP PUSH2 0x2816 DUP3 DUP5 PUSH2 0x2628 JUMP JUMPDEST SWAP2 POP DUP2 SWAP1 POP SWAP8 SWAP7 POP POP POP POP POP POP POP JUMP JUMPDEST PUSH1 0x0 PUSH2 0x2832 DUP3 DUP11 PUSH2 0x2628 JUMP JUMPDEST SWAP2 POP PUSH2 0x283E DUP3 DUP10 PUSH2 0x2628 JUMP JUMPDEST SWAP2 POP PUSH2 0x284A DUP3 DUP9 PUSH2 0x2628 JUMP JUMPDEST SWAP2 POP PUSH2 0x2856 DUP3 DUP8 PUSH2 0x2628 JUMP JUMPDEST SWAP2 POP PUSH2 0x2862 DUP3 DUP7 PUSH2 0x2628 JUMP JUMPDEST SWAP2 POP PUSH2 0x286E DUP3 DUP6 PUSH2 0x2628 JUMP JUMPDEST SWAP2 POP PUSH2 0x287A DUP3 DUP5 PUSH2 0x2628 JUMP JUMPDEST SWAP2 POP DUP2 SWAP1 POP SWAP9 SWAP8 POP POP POP POP POP POP POP POP JUMP JUMPDEST PUSH1 0x0 PUSH2 0x2897 DUP3 DUP15 PUSH2 0x2628 JUMP JUMPDEST SWAP2 POP PUSH2 0x28A3 DUP3 DUP14 PUSH2 0x2628 JUMP JUMPDEST SWAP2 POP PUSH2 0x28AF DUP3 DUP13 PUSH2 0x2628 JUMP JUMPDEST SWAP2 POP PUSH2 0x28BB DUP3 DUP12 PUSH2 0x2628 JUMP JUMPDEST SWAP2 POP PUSH2 0x28C7 DUP3 DUP11 PUSH2 0x2628 JUMP JUMPDEST SWAP2 POP PUSH2 0x28D3 DUP3 DUP10 PUSH2 0x2628 JUMP JUMPDEST SWAP2 POP PUSH2 0x28DF DUP3 DUP9 PUSH2 0x2628 JUMP JUMPDEST SWAP2 POP PUSH2 0x28EB DUP3 DUP8 PUSH2 0x2628 JUMP JUMPDEST SWAP2 POP PUSH2 0x28F7 DUP3 DUP7 PUSH2 0x2628 JUMP JUMPDEST SWAP2 POP PUSH2 0x2903 DUP3 DUP6 PUSH2 0x2628 JUMP JUMPDEST SWAP2 POP PUSH2 0x290F DUP3 DUP5 PUSH2 0x2628 JUMP JUMPDEST SWAP2 POP DUP2 SWAP1 POP SWAP13 SWAP12 POP POP POP POP POP POP POP POP POP POP POP POP JUMP JUMPDEST PUSH1 0x0 PUSH2 0x2930 DUP3 DUP16 PUSH2 0x2628 JUMP JUMPDEST SWAP2 POP PUSH2 0x293C DUP3 DUP15 PUSH2 0x2628 JUMP JUMPDEST SWAP2 POP PUSH2 0x2948 DUP3 DUP14 PUSH2 0x2628 JUMP JUMPDEST SWAP2 POP PUSH2 0x2954 DUP3 DUP13 PUSH2 0x2628 JUMP JUMPDEST SWAP2 POP PUSH2 0x2960 DUP3 DUP12 PUSH2 0x2628 JUMP JUMPDEST SWAP2 POP PUSH2 0x296C DUP3 DUP11 PUSH2 0x2628 JUMP JUMPDEST SWAP2 POP PUSH2 0x2978 DUP3 DUP10 PUSH2 0x2628 JUMP JUMPDEST SWAP2 POP PUSH2 0x2984 DUP3 DUP9 PUSH2 0x2628 JUMP JUMPDEST SWAP2 POP PUSH2 0x2990 DUP3 DUP8 PUSH2 0x2628 JUMP JUMPDEST SWAP2 POP PUSH2 0x299C DUP3 DUP7 PUSH2 0x2628 JUMP JUMPDEST SWAP2 POP PUSH2 0x29A8 DUP3 DUP6 PUSH2 0x2628 JUMP JUMPDEST SWAP2 POP PUSH2 0x29B4 DUP3 DUP5 PUSH2 0x2628 JUMP JUMPDEST SWAP2 POP DUP2 SWAP1 POP SWAP14 SWAP13 POP POP POP POP POP POP POP POP POP POP POP POP POP JUMP JUMPDEST PUSH1 0x0 PUSH2 0x29D6 DUP3 DUP6 PUSH2 0x2628 JUMP JUMPDEST SWAP2 POP PUSH2 0x29E2 DUP3 DUP5 PUSH2 0x2670 JUMP JUMPDEST PUSH1 0x4 DUP3 ADD SWAP2 POP DUP2 SWAP1 POP SWAP4 SWAP3 POP POP POP JUMP JUMPDEST PUSH1 0x0 PUSH2 0x29FE DUP3 DUP6 PUSH2 0x2628 JUMP JUMPDEST SWAP2 POP PUSH2 0x2A0A DUP3 DUP5 PUSH2 0x2687 JUMP JUMPDEST PUSH1 0x8 DUP3 ADD SWAP2 POP DUP2 SWAP1 POP SWAP4 SWAP3 POP POP POP JUMP JUMPDEST PUSH1 0x0 PUSH2 0x2A26 DUP3 DUP5 PUSH2 0x2659 JUMP JUMPDEST PUSH1 0x2 DUP3 ADD SWAP2 POP DUP2 SWAP1 POP SWAP3 SWAP2 POP POP JUMP JUMPDEST PUSH1 0x0 PUSH2 0x2A41 DUP3 DUP5 PUSH2 0x2670 JUMP JUMPDEST PUSH1 0x4 DUP3 ADD SWAP2 POP DUP2 SWAP1 POP SWAP3 SWAP2 POP POP JUMP JUMPDEST PUSH1 0x0 PUSH2 0x2A5C DUP3 DUP5 PUSH2 0x2687 JUMP JUMPDEST PUSH1 0x8 DUP3 ADD SWAP2 POP DUP2 SWAP1 POP SWAP3 SWAP2 POP POP JUMP JUMPDEST PUSH1 0x0 PUSH2 0x2A77 DUP3 DUP5 PUSH2 0x269E JUMP JUMPDEST SWAP2 POP DUP2 SWAP1 POP SWAP3 SWAP2 POP POP JUMP JUMPDEST PUSH1 0x0 PUSH2 0x2A8E DUP3 DUP5 PUSH2 0x26CF JUMP JUMPDEST PUSH1 0x14 DUP3 ADD SWAP2 POP DUP2 SWAP1 POP SWAP3 SWAP2 POP POP JUMP JUMPDEST PUSH1 0x0 PUSH2 0x2AA9 DUP3 DUP5 PUSH2 0x26E6 JUMP JUMPDEST PUSH1 0x2 DUP3 ADD SWAP2 POP DUP2 SWAP1 POP SWAP3 SWAP2 POP POP JUMP JUMPDEST PUSH1 0x0 PUSH2 0x2AC4 DUP3 DUP5 PUSH2 0x26FD JUMP JUMPDEST PUSH1 0x20 DUP3 ADD SWAP2 POP DUP2 SWAP1 POP SWAP3 SWAP2 POP POP JUMP JUMPDEST PUSH1 0x0 PUSH2 0x2ADF DUP3 DUP5 PUSH2 0x2714 JUMP JUMPDEST PUSH1 0x4 DUP3 ADD SWAP2 POP DUP2 SWAP1 POP SWAP3 SWAP2 POP POP JUMP JUMPDEST PUSH1 0x0 PUSH2 0x2AFA DUP3 DUP5 PUSH2 0x272B JUMP JUMPDEST PUSH1 0x8 DUP3 ADD SWAP2 POP DUP2 SWAP1 POP SWAP3 SWAP2 POP POP JUMP JUMPDEST PUSH1 0x0 PUSH2 0x2B15 DUP3 DUP5 PUSH2 0x2742 JUMP JUMPDEST PUSH1 0x1 DUP3 ADD SWAP2 POP DUP2 SWAP1 POP SWAP3 SWAP2 POP POP JUMP JUMPDEST PUSH1 0x0 PUSH1 0x20 DUP3 ADD SWAP1 POP DUP2 DUP2 SUB PUSH1 0x0 DUP4 ADD MSTORE PUSH2 0x2B3E DUP2 DUP5 PUSH2 0x25EF JUMP JUMPDEST SWAP1 POP SWAP3 SWAP2 POP POP JUMP JUMPDEST PUSH1 0x0 PUSH1 0x40 MLOAD SWAP1 POP DUP2 DUP2 ADD DUP2 DUP2 LT PUSH8 0xFFFFFFFFFFFFFFFF DUP3 GT OR ISZERO PUSH2 0x2B69 JUMPI PUSH1 0x0 DUP1 REVERT JUMPDEST DUP1 PUSH1 0x40 MSTORE POP SWAP2 SWAP1 POP JUMP JUMPDEST PUSH1 0x0 PUSH8 0xFFFFFFFFFFFFFFFF DUP3 GT ISZERO PUSH2 0x2B8A JUMPI PUSH1 0x0 DUP1 REVERT JUMPDEST PUSH1 0x20 DUP3 MUL SWAP1 POP PUSH1 0x20 DUP2 ADD SWAP1 POP SWAP2 SWAP1 POP JUMP JUMPDEST PUSH1 0x0 PUSH8 0xFFFFFFFFFFFFFFFF DUP3 GT ISZERO PUSH2 0x2BB2 JUMPI PUSH1 0x0 DUP1 REVERT JUMPDEST PUSH1 0x20 DUP3 MUL SWAP1 POP PUSH1 0x20 DUP2 ADD SWAP1 POP SWAP2 SWAP1 POP JUMP JUMPDEST PUSH1 0x0 PUSH8 0xFFFFFFFFFFFFFFFF DUP3 GT ISZERO PUSH2 0x2BDA JUMPI PUSH1 0x0 DUP1 REVERT JUMPDEST PUSH1 0x20 DUP3 MUL SWAP1 POP PUSH1 0x20 DUP2 ADD SWAP1 POP SWAP2 SWAP1 POP JUMP JUMPDEST PUSH1 0x0 PUSH8 0xFFFFFFFFFFFFFFFF DUP3 GT ISZERO PUSH2 0x2C02 JUMPI PUSH1 0x0 DUP1 REVERT JUMPDEST PUSH1 0x20 DUP3 MUL SWAP1 POP PUSH1 0x20 DUP2 ADD SWAP1 POP SWAP2 SWAP1 POP JUMP JUMPDEST PUSH1 0x0 PUSH8 0xFFFFFFFFFFFFFFFF DUP3 GT ISZERO PUSH2 0x2C2A JUMPI PUSH1 0x0 DUP1 REVERT JUMPDEST PUSH1 0x20 DUP3 MUL SWAP1 POP PUSH1 0x20 DUP2 ADD SWAP1 POP SWAP2 SWAP1 POP JUMP JUMPDEST PUSH1 0x0 PUSH8 0xFFFFFFFFFFFFFFFF DUP3 GT ISZERO PUSH2 0x2C52 JUMPI PUSH1 0x0 DUP1 REVERT JUMPDEST PUSH1 0x20 DUP3 MUL SWAP1 POP PUSH1 0x20 DUP2 ADD SWAP1 POP SWAP2 SWAP1 POP JUMP JUMPDEST PUSH1 0x0 PUSH8 0xFFFFFFFFFFFFFFFF DUP3 GT ISZERO PUSH2 0x2C7A JUMPI PUSH1 0x0 DUP1 REVERT JUMPDEST PUSH1 0x20 DUP3 MUL SWAP1 POP PUSH1 0x20 DUP2 ADD SWAP1 POP SWAP2 SWAP1 POP JUMP JUMPDEST PUSH1 0x0 PUSH8 0xFFFFFFFFFFFFFFFF DUP3 GT ISZERO PUSH2 0x2CA2 JUMPI PUSH1 0x0 DUP1 REVERT JUMPDEST PUSH1 0x1F NOT PUSH1 0x1F DUP4 ADD AND SWAP1 POP PUSH1 0x20 DUP2 ADD SWAP1 POP SWAP2 SWAP1 POP JUMP JUMPDEST PUSH1 0x0 PUSH8 0xFFFFFFFFFFFFFFFF DUP3 GT ISZERO PUSH2 0x2CCE JUMPI PUSH1 0x0 DUP1 REVERT JUMPDEST PUSH1 0x1F NOT PUSH1 0x1F DUP4 ADD AND SWAP1 POP PUSH1 0x20 DUP2 ADD SWAP1 POP SWAP2 SWAP1 POP JUMP JUMPDEST PUSH1 0x0 DUP2 MLOAD SWAP1 POP SWAP2 SWAP1 POP JUMP JUMPDEST PUSH1 0x0 DUP2 MLOAD SWAP1 POP SWAP2 SWAP1 POP JUMP JUMPDEST PUSH1 0x0 DUP3 DUP3 MSTORE PUSH1 0x20 DUP3 ADD SWAP1 POP SWAP3 SWAP2 POP POP JUMP JUMPDEST PUSH1 0x0 DUP2 SWAP1 POP SWAP3 SWAP2 POP POP JUMP JUMPDEST PUSH1 0x0 DUP2 SWAP1 POP SWAP3 SWAP2 POP POP JUMP JUMPDEST PUSH1 0x0 PUSH2 0x2D2B DUP3 PUSH2 0x2D9F JUMP JUMPDEST SWAP1 POP SWAP2 SWAP1 POP JUMP JUMPDEST PUSH1 0x0 DUP2 ISZERO ISZERO SWAP1 POP SWAP2 SWAP1 POP JUMP JUMPDEST PUSH1 0x0 PUSH32 0xFFFFFFFFFFFFFFFFFFFFFFFFFFFFFFFFFFFFFFFF000000000000000000000000 DUP3 AND SWAP1 POP SWAP2 SWAP1 POP JUMP JUMPDEST PUSH1 0x0 DUP2 PUSH1 0x1 SIGNEXTEND SWAP1 POP SWAP2 SWAP1 POP JUMP JUMPDEST PUSH1 0x0 DUP2 PUSH1 0x3 SIGNEXTEND SWAP1 POP SWAP2 SWAP1 POP JUMP JUMPDEST PUSH1 0x0 DUP2 PUSH1 0x7 SIGNEXTEND SWAP1 POP SWAP2 SWAP1 POP JUMP JUMPDEST PUSH1 0x0 PUSH2 0xFFFF DUP3 AND SWAP1 POP SWAP2 SWAP1 POP JUMP JUMPDEST PUSH1 0x0 PUSH20 0xFFFFFFFFFFFFFFFFFFFFFFFFFFFFFFFFFFFFFFFF DUP3 AND SWAP1 POP SWAP2 SWAP1 POP JUMP JUMPDEST PUSH1 0x0 DUP2 SWAP1 POP SWAP2 SWAP1 POP JUMP JUMPDEST PUSH1 0x0 PUSH4 0xFFFFFFFF DUP3 AND SWAP1 POP SWAP2 SWAP1 POP JUMP JUMPDEST PUSH1 0x0 PUSH8 0xFFFFFFFFFFFFFFFF DUP3 AND SWAP1 POP SWAP2 SWAP1 POP JUMP JUMPDEST PUSH1 0x0 PUSH1 0xFF DUP3 AND SWAP1 POP SWAP2 SWAP1 POP JUMP JUMPDEST DUP3 DUP2 DUP4 CALLDATACOPY PUSH1 0x0 DUP4 DUP4 ADD MSTORE POP POP POP JUMP JUMPDEST PUSH1 0x0 JUMPDEST DUP4 DUP2 LT ISZERO PUSH2 0x2E27 JUMPI DUP1 DUP3 ADD MLOAD DUP2 DUP5 ADD MSTORE PUSH1 0x20 DUP2 ADD SWAP1 POP PUSH2 0x2E0C JUMP JUMPDEST DUP4 DUP2 GT ISZERO PUSH2 0x2E36 JUMPI PUSH1 0x0 DUP5 DUP5 ADD MSTORE JUMPDEST POP POP POP POP JUMP JUMPDEST PUSH1 0x0 PUSH2 0x2E47 DUP3 PUSH2 0x2EB2 JUMP JUMPDEST SWAP1 POP SWAP2 SWAP1 POP JUMP JUMPDEST PUSH1 0x0 PUSH2 0x2E59 DUP3 PUSH2 0x2EF2 JUMP JUMPDEST SWAP1 POP SWAP2 SWAP1 POP JUMP JUMPDEST PUSH1 0x0 DUP2 SWAP1 POP SWAP2 SWAP1 POP JUMP JUMPDEST PUSH1 0x0 PUSH2 0x2E75 DUP3 PUSH2 0x2F2F JUMP JUMPDEST SWAP1 POP SWAP2 SWAP1 POP JUMP JUMPDEST PUSH1 0x0 PUSH2 0x2E87 DUP3 PUSH2 0x2F22 JUMP JUMPDEST SWAP1 POP SWAP2 SWAP1 POP JUMP JUMPDEST PUSH1 0x0 PUSH2 0x2E99 DUP3 PUSH2 0x2F15 JUMP JUMPDEST SWAP1 POP SWAP2 SWAP1 POP JUMP JUMPDEST PUSH1 0x0 PUSH2 0x2EAB DUP3 PUSH2 0x2F2F JUMP JUMPDEST SWAP1 POP SWAP2 SWAP1 POP JUMP JUMPDEST PUSH1 0x0 PUSH2 0x2EBD DUP3 PUSH2 0x2F49 JUMP JUMPDEST SWAP1 POP SWAP2 SWAP1 POP JUMP JUMPDEST PUSH1 0x0 DUP2 SWAP1 POP SWAP2 SWAP1 POP JUMP JUMPDEST PUSH1 0x0 PUSH2 0x2ED9 DUP3 PUSH2 0x2F22 JUMP JUMPDEST SWAP1 POP SWAP2 SWAP1 POP JUMP JUMPDEST PUSH1 0x0 PUSH2 0x2EEB DUP3 PUSH2 0x2F15 JUMP JUMPDEST SWAP1 POP SWAP2 SWAP1 POP JUMP JUMPDEST PUSH1 0x0 PUSH2 0x2EFD DUP3 PUSH2 0x2F3C JUMP JUMPDEST SWAP1 POP SWAP2 SWAP1 POP JUMP JUMPDEST PUSH1 0x0 PUSH1 0x1F NOT PUSH1 0x1F DUP4 ADD AND SWAP1 POP SWAP2 SWAP1 POP JUMP JUMPDEST PUSH1 0x0 DUP2 PUSH1 0xC0 SHL SWAP1 POP SWAP2 SWAP1 POP JUMP JUMPDEST PUSH1 0x0 DUP2 PUSH1 0xE0 SHL SWAP1 POP SWAP2 SWAP1 POP JUMP JUMPDEST PUSH1 0x0 DUP2 PUSH1 0xF0 SHL SWAP1 POP SWAP2 SWAP1 POP JUMP JUMPDEST PUSH1 0x0 DUP2 PUSH1 0xF8 SHL SWAP1 POP SWAP2 SWAP1 POP JUMP JUMPDEST PUSH1 0x0 DUP2 PUSH1 0x60 SHL SWAP1 POP SWAP2 SWAP1 POP JUMP JUMPDEST PUSH2 0x2F5F DUP2 PUSH2 0x2D20 JUMP JUMPDEST DUP2 EQ PUSH2 0x2F6A JUMPI PUSH1 0x0 DUP1 REVERT JUMPDEST POP JUMP JUMPDEST PUSH2 0x2F76 DUP2 PUSH2 0x2D32 JUMP JUMPDEST DUP2 EQ PUSH2 0x2F81 JUMPI PUSH1 0x0 DUP1 REVERT JUMPDEST POP JUMP JUMPDEST PUSH2 0x2F8D DUP2 PUSH2 0x2D3E JUMP JUMPDEST DUP2 EQ PUSH2 0x2F98 JUMPI PUSH1 0x0 DUP1 REVERT JUMPDEST POP JUMP JUMPDEST PUSH2 0x2FA4 DUP2 PUSH2 0x2D6A JUMP JUMPDEST DUP2 EQ PUSH2 0x2FAF JUMPI PUSH1 0x0 DUP1 REVERT JUMPDEST POP JUMP JUMPDEST PUSH2 0x2FBB DUP2 PUSH2 0x2D77 JUMP JUMPDEST DUP2 EQ PUSH2 0x2FC6 JUMPI PUSH1 0x0 DUP1 REVERT JUMPDEST POP JUMP JUMPDEST PUSH2 0x2FD2 DUP2 PUSH2 0x2D84 JUMP JUMPDEST DUP2 EQ PUSH2 0x2FDD JUMPI PUSH1 0x0 DUP1 REVERT JUMPDEST POP JUMP JUMPDEST PUSH2 0x2FE9 DUP2 PUSH2 0x2D91 JUMP JUMPDEST DUP2 EQ PUSH2 0x2FF4 JUMPI PUSH1 0x0 DUP1 REVERT JUMPDEST POP JUMP JUMPDEST PUSH2 0x3000 DUP2 PUSH2 0x2D9F JUMP JUMPDEST DUP2 EQ PUSH2 0x300B JUMPI PUSH1 0x0 DUP1 REVERT JUMPDEST POP JUMP JUMPDEST PUSH2 0x3017 DUP2 PUSH2 0x2DBF JUMP JUMPDEST DUP2 EQ PUSH2 0x3022 JUMPI PUSH1 0x0 DUP1 REVERT JUMPDEST POP JUMP JUMPDEST PUSH2 0x302E DUP2 PUSH2 0x2DC9 JUMP JUMPDEST DUP2 EQ PUSH2 0x3039 JUMPI PUSH1 0x0 DUP1 REVERT JUMPDEST POP JUMP JUMPDEST PUSH2 0x3045 DUP2 PUSH2 0x2DD9 JUMP JUMPDEST DUP2 EQ PUSH2 0x3050 JUMPI PUSH1 0x0 DUP1 REVERT JUMPDEST POP JUMP JUMPDEST PUSH2 0x305C DUP2 PUSH2 0x2DED JUMP JUMPDEST DUP2 EQ PUSH2 0x3067 JUMPI PUSH1 0x0 DUP1 REVERT JUMPDEST POP JUMP INVALID LOG2 PUSH5 0x6970667358 0x22 SLT KECCAK256 SWAP2 SIGNEXTEND MUL LT 0xBE 0x25 0x4D EQ 0xBA GASLIMIT SWAP6 NOT COINBASE EXTCODECOPY PUSH29 0x778E6581AB768193DF63AF900BC998B7CB64736F6C634300060C003300 "
		},
		"gasEstimates": {
			"creation": {
				"codeDepositCost": "2489600",
				"executionCost": "2680",
				"totalCost": "2492280"
			},
			"external": {
				"flipArray(bytes)": "infinite",
				"serializeAddress(address)": "infinite",
				"serializeBool(bool)": "infinite",
				"serializeBytes20(bytes20)": "infinite",
				"serializeCCoinbaseCurrencyState((int64,int64,int64,int64,int64[],int64[],int64[],int64[],int64[],int64[],int64[],int32[]))": "infinite",
				"serializeCCrossChainExport((uint8,uint32,uint160,uint32,uint32,uint160,uint160,int32,(uint160,uint64),(uint160,uint64),uint256,address,int32))": "infinite",
				"serializeCCurrencyValueMap((uint160,uint64))": "infinite",
				"serializeCCurrencyValueMaps((uint160,uint64)[])": "infinite",
				"serializeCPBaaSNotarization((uint32,uint32,(uint32,uint160),uint160,uint32,(int64,int64,int64,int64,int64[],int64[],int64[],int64[],int64[],int64[],int64[],int32[]),(uint256,uint32),uint256,uint32,(uint160,(int64,int64,int64,int64,int64[],int64[],int64[],int64[],int64[],int64[],int64[],int32[]))[],(uint160,(int16,int16,uint160,uint32,uint256,uint256,uint256))[],(string,uint160)[]))": "infinite",
				"serializeCProofRoot((int16,int16,uint160,uint32,uint256,uint256,uint256))": "infinite",
				"serializeCReserveTransfer((uint32,(uint160,uint64),uint32,uint160,uint256,(uint32,uint160),uint160,uint160,uint160))": "infinite",
				"serializeCReserveTransfers((uint32,(uint160,uint64),uint32,uint160,uint256,(uint32,uint160),uint160,uint160,uint160)[])": "infinite",
				"serializeCTransferDestination((uint32,uint160))": "infinite",
				"serializeCUTXORef((uint256,uint32))": "infinite",
				"serializeCurrencyStates((uint160,(int64,int64,int64,int64,int64[],int64[],int64[],int64[],int64[],int64[],int64[],int32[])))": "infinite",
				"serializeCurrencyStatesArray((uint160,(int64,int64,int64,int64,int64[],int64[],int64[],int64[],int64[],int64[],int64[],int32[]))[])": "infinite",
				"serializeInt16(int16)": "infinite",
				"serializeInt32(int32)": "infinite",
				"serializeInt32Array(int32[])": "infinite",
				"serializeInt64(int64)": "infinite",
				"serializeInt64Array(int64[])": "infinite",
				"serializeProofRoots((uint160,(int16,int16,uint160,uint32,uint256,uint256,uint256)))": "infinite",
				"serializeProofRootsArray((uint160,(int16,int16,uint160,uint32,uint256,uint256,uint256))[])": "infinite",
				"serializeString(string)": "infinite",
				"serializeUint16(uint16)": "infinite",
				"serializeUint160(uint160)": "infinite",
				"serializeUint256(uint256)": "infinite",
				"serializeUint32(uint32)": "infinite",
				"serializeUint64(uint64)": "infinite",
				"serializeUint8(uint8)": "infinite"
			}
		},
		"methodIdentifiers": {
			"flipArray(bytes)": "1222d81a",
			"serializeAddress(address)": "241d23b2",
			"serializeBool(bool)": "009c8152",
			"serializeBytes20(bytes20)": "463276c3",
			"serializeCCoinbaseCurrencyState((int64,int64,int64,int64,int64[],int64[],int64[],int64[],int64[],int64[],int64[],int32[]))": "85f90983",
			"serializeCCrossChainExport((uint8,uint32,uint160,uint32,uint32,uint160,uint160,int32,(uint160,uint64),(uint160,uint64),uint256,address,int32))": "3a6ceed9",
			"serializeCCurrencyValueMap((uint160,uint64))": "c41c134d",
			"serializeCCurrencyValueMaps((uint160,uint64)[])": "c6f4c269",
			"serializeCPBaaSNotarization((uint32,uint32,(uint32,uint160),uint160,uint32,(int64,int64,int64,int64,int64[],int64[],int64[],int64[],int64[],int64[],int64[],int32[]),(uint256,uint32),uint256,uint32,(uint160,(int64,int64,int64,int64,int64[],int64[],int64[],int64[],int64[],int64[],int64[],int32[]))[],(uint160,(int16,int16,uint160,uint32,uint256,uint256,uint256))[],(string,uint160)[]))": "a2e5d836",
			"serializeCProofRoot((int16,int16,uint160,uint32,uint256,uint256,uint256))": "537b91f5",
			"serializeCReserveTransfer((uint32,(uint160,uint64),uint32,uint160,uint256,(uint32,uint160),uint160,uint160,uint160))": "baa42698",
			"serializeCReserveTransfers((uint32,(uint160,uint64),uint32,uint160,uint256,(uint32,uint160),uint160,uint160,uint160)[])": "48352c07",
			"serializeCTransferDestination((uint32,uint160))": "20907b41",
			"serializeCUTXORef((uint256,uint32))": "b9edc795",
			"serializeCurrencyStates((uint160,(int64,int64,int64,int64,int64[],int64[],int64[],int64[],int64[],int64[],int64[],int32[])))": "6d83f48c",
			"serializeCurrencyStatesArray((uint160,(int64,int64,int64,int64,int64[],int64[],int64[],int64[],int64[],int64[],int64[],int32[]))[])": "b5a0fb24",
			"serializeInt16(int16)": "46256007",
			"serializeInt32(int32)": "fef5906a",
			"serializeInt32Array(int32[])": "9d487b47",
			"serializeInt64(int64)": "af832f09",
			"serializeInt64Array(int64[])": "f8217295",
			"serializeProofRoots((uint160,(int16,int16,uint160,uint32,uint256,uint256,uint256)))": "253fe4ee",
			"serializeProofRootsArray((uint160,(int16,int16,uint160,uint32,uint256,uint256,uint256))[])": "d40274b2",
			"serializeString(string)": "68b4ae81",
			"serializeUint16(uint16)": "e4cba547",
			"serializeUint160(uint160)": "57759e15",
			"serializeUint256(uint256)": "f20fb830",
			"serializeUint32(uint32)": "cecb3043",
			"serializeUint64(uint64)": "122e5ae7",
			"serializeUint8(uint8)": "6127b4ff"
		}
	},
	"abi": [
		{
			"inputs": [
				{
					"internalType": "bytes",
					"name": "incoming",
					"type": "bytes"
				}
			],
			"name": "flipArray",
			"outputs": [
				{
					"internalType": "bytes",
					"name": "",
					"type": "bytes"
				}
			],
			"stateMutability": "pure",
			"type": "function"
		},
		{
			"inputs": [
				{
					"internalType": "address",
					"name": "anyAddress",
					"type": "address"
				}
			],
			"name": "serializeAddress",
			"outputs": [
				{
					"internalType": "bytes",
					"name": "",
					"type": "bytes"
				}
			],
			"stateMutability": "pure",
			"type": "function"
		},
		{
			"inputs": [
				{
					"internalType": "bool",
					"name": "anyBool",
					"type": "bool"
				}
			],
			"name": "serializeBool",
			"outputs": [
				{
					"internalType": "bytes",
					"name": "",
					"type": "bytes"
				}
			],
			"stateMutability": "pure",
			"type": "function"
		},
		{
			"inputs": [
				{
					"internalType": "bytes20",
					"name": "anyBytes20",
					"type": "bytes20"
				}
			],
			"name": "serializeBytes20",
			"outputs": [
				{
					"internalType": "bytes",
					"name": "",
					"type": "bytes"
				}
			],
			"stateMutability": "pure",
			"type": "function"
		},
		{
			"inputs": [
				{
					"components": [
						{
							"internalType": "int64",
							"name": "primaryCurrencyOut",
							"type": "int64"
						},
						{
							"internalType": "int64",
							"name": "preconvertedOut",
							"type": "int64"
						},
						{
							"internalType": "int64",
							"name": "primaryCurrencyFees",
							"type": "int64"
						},
						{
							"internalType": "int64",
							"name": "primaryCurrencyConversionFees",
							"type": "int64"
						},
						{
							"internalType": "int64[]",
							"name": "reserveIn",
							"type": "int64[]"
						},
						{
							"internalType": "int64[]",
							"name": "primaryCurrencyIn",
							"type": "int64[]"
						},
						{
							"internalType": "int64[]",
							"name": "reserveOut",
							"type": "int64[]"
						},
						{
							"internalType": "int64[]",
							"name": "conversionPrice",
							"type": "int64[]"
						},
						{
							"internalType": "int64[]",
							"name": "viaConversionPrice",
							"type": "int64[]"
						},
						{
							"internalType": "int64[]",
							"name": "fees",
							"type": "int64[]"
						},
						{
							"internalType": "int64[]",
							"name": "conversionFees",
							"type": "int64[]"
						},
						{
							"internalType": "int32[]",
							"name": "priorWeights",
							"type": "int32[]"
						}
					],
					"internalType": "struct VerusObjects.CCoinbaseCurrencyState",
					"name": "_cccs",
					"type": "tuple"
				}
			],
			"name": "serializeCCoinbaseCurrencyState",
			"outputs": [
				{
					"internalType": "bytes",
					"name": "",
					"type": "bytes"
				}
			],
			"stateMutability": "pure",
			"type": "function"
		},
		{
			"inputs": [
				{
					"components": [
						{
							"internalType": "uint8",
							"name": "version",
							"type": "uint8"
						},
						{
							"internalType": "uint32",
							"name": "flags",
							"type": "uint32"
						},
						{
							"internalType": "uint160",
							"name": "sourcesystemid",
							"type": "uint160"
						},
						{
							"internalType": "uint32",
							"name": "sourceheightstart",
							"type": "uint32"
						},
						{
							"internalType": "uint32",
							"name": "sourceheightend",
							"type": "uint32"
						},
						{
							"internalType": "uint160",
							"name": "destinationsystemid",
							"type": "uint160"
						},
						{
							"internalType": "uint160",
							"name": "destinationcurrencyid",
							"type": "uint160"
						},
						{
							"internalType": "int32",
							"name": "numinputs",
							"type": "int32"
						},
						{
							"components": [
								{
									"internalType": "uint160",
									"name": "currency",
									"type": "uint160"
								},
								{
									"internalType": "uint64",
									"name": "amount",
									"type": "uint64"
								}
							],
							"internalType": "struct VerusObjects.CCurrencyValueMap",
							"name": "totalamounts",
							"type": "tuple"
						},
						{
							"components": [
								{
									"internalType": "uint160",
									"name": "currency",
									"type": "uint160"
								},
								{
									"internalType": "uint64",
									"name": "amount",
									"type": "uint64"
								}
							],
							"internalType": "struct VerusObjects.CCurrencyValueMap",
							"name": "totalfees",
							"type": "tuple"
						},
						{
							"internalType": "uint256",
							"name": "hashtransfers",
							"type": "uint256"
						},
						{
							"internalType": "address",
							"name": "rewardaddress",
							"type": "address"
						},
						{
							"internalType": "int32",
							"name": "firstinput",
							"type": "int32"
						}
					],
					"internalType": "struct VerusObjects.CCrossChainExport",
					"name": "_ccce",
					"type": "tuple"
				}
			],
			"name": "serializeCCrossChainExport",
			"outputs": [
				{
					"internalType": "bytes",
					"name": "",
					"type": "bytes"
				}
			],
			"stateMutability": "pure",
			"type": "function"
		},
		{
			"inputs": [
				{
					"components": [
						{
							"internalType": "uint160",
							"name": "currency",
							"type": "uint160"
						},
						{
							"internalType": "uint64",
							"name": "amount",
							"type": "uint64"
						}
					],
					"internalType": "struct VerusObjects.CCurrencyValueMap",
					"name": "_ccvm",
					"type": "tuple"
				}
			],
			"name": "serializeCCurrencyValueMap",
			"outputs": [
				{
					"internalType": "bytes",
					"name": "",
					"type": "bytes"
				}
			],
			"stateMutability": "pure",
			"type": "function"
		},
		{
			"inputs": [
				{
					"components": [
						{
							"internalType": "uint160",
							"name": "currency",
							"type": "uint160"
						},
						{
							"internalType": "uint64",
							"name": "amount",
							"type": "uint64"
						}
					],
					"internalType": "struct VerusObjects.CCurrencyValueMap[]",
					"name": "_ccvms",
					"type": "tuple[]"
				}
			],
			"name": "serializeCCurrencyValueMaps",
			"outputs": [
				{
					"internalType": "bytes",
					"name": "",
					"type": "bytes"
				}
			],
			"stateMutability": "pure",
			"type": "function"
		},
		{
			"inputs": [
				{
					"components": [
						{
							"internalType": "uint32",
							"name": "version",
							"type": "uint32"
						},
						{
							"internalType": "uint32",
							"name": "flags",
							"type": "uint32"
						},
						{
							"components": [
								{
									"internalType": "uint32",
									"name": "destinationtype",
									"type": "uint32"
								},
								{
									"internalType": "uint160",
									"name": "destinationaddress",
									"type": "uint160"
								}
							],
							"internalType": "struct VerusObjects.CTransferDestination",
							"name": "proposer",
							"type": "tuple"
						},
						{
							"internalType": "uint160",
							"name": "currencyID",
							"type": "uint160"
						},
						{
							"internalType": "uint32",
							"name": "notarizationHeight",
							"type": "uint32"
						},
						{
							"components": [
								{
									"internalType": "int64",
									"name": "primaryCurrencyOut",
									"type": "int64"
								},
								{
									"internalType": "int64",
									"name": "preconvertedOut",
									"type": "int64"
								},
								{
									"internalType": "int64",
									"name": "primaryCurrencyFees",
									"type": "int64"
								},
								{
									"internalType": "int64",
									"name": "primaryCurrencyConversionFees",
									"type": "int64"
								},
								{
									"internalType": "int64[]",
									"name": "reserveIn",
									"type": "int64[]"
								},
								{
									"internalType": "int64[]",
									"name": "primaryCurrencyIn",
									"type": "int64[]"
								},
								{
									"internalType": "int64[]",
									"name": "reserveOut",
									"type": "int64[]"
								},
								{
									"internalType": "int64[]",
									"name": "conversionPrice",
									"type": "int64[]"
								},
								{
									"internalType": "int64[]",
									"name": "viaConversionPrice",
									"type": "int64[]"
								},
								{
									"internalType": "int64[]",
									"name": "fees",
									"type": "int64[]"
								},
								{
									"internalType": "int64[]",
									"name": "conversionFees",
									"type": "int64[]"
								},
								{
									"internalType": "int32[]",
									"name": "priorWeights",
									"type": "int32[]"
								}
							],
							"internalType": "struct VerusObjects.CCoinbaseCurrencyState",
							"name": "currencyState",
							"type": "tuple"
						},
						{
							"components": [
								{
									"internalType": "uint256",
									"name": "hash",
									"type": "uint256"
								},
								{
									"internalType": "uint32",
									"name": "n",
									"type": "uint32"
								}
							],
							"internalType": "struct VerusObjects.CUTXORef",
							"name": "prevNotarization",
							"type": "tuple"
						},
						{
							"internalType": "uint256",
							"name": "hashPrevNotarization",
							"type": "uint256"
						},
						{
							"internalType": "uint32",
							"name": "prevHeight",
							"type": "uint32"
						},
						{
							"components": [
								{
									"internalType": "uint160",
									"name": "currencyId",
									"type": "uint160"
								},
								{
									"components": [
										{
											"internalType": "int64",
											"name": "primaryCurrencyOut",
											"type": "int64"
										},
										{
											"internalType": "int64",
											"name": "preconvertedOut",
											"type": "int64"
										},
										{
											"internalType": "int64",
											"name": "primaryCurrencyFees",
											"type": "int64"
										},
										{
											"internalType": "int64",
											"name": "primaryCurrencyConversionFees",
											"type": "int64"
										},
										{
											"internalType": "int64[]",
											"name": "reserveIn",
											"type": "int64[]"
										},
										{
											"internalType": "int64[]",
											"name": "primaryCurrencyIn",
											"type": "int64[]"
										},
										{
											"internalType": "int64[]",
											"name": "reserveOut",
											"type": "int64[]"
										},
										{
											"internalType": "int64[]",
											"name": "conversionPrice",
											"type": "int64[]"
										},
										{
											"internalType": "int64[]",
											"name": "viaConversionPrice",
											"type": "int64[]"
										},
										{
											"internalType": "int64[]",
											"name": "fees",
											"type": "int64[]"
										},
										{
											"internalType": "int64[]",
											"name": "conversionFees",
											"type": "int64[]"
										},
										{
											"internalType": "int32[]",
											"name": "priorWeights",
											"type": "int32[]"
										}
									],
									"internalType": "struct VerusObjects.CCoinbaseCurrencyState",
									"name": "currencyState",
									"type": "tuple"
								}
							],
							"internalType": "struct VerusObjects.CurrencyStates[]",
							"name": "currencyStates",
							"type": "tuple[]"
						},
						{
							"components": [
								{
									"internalType": "uint160",
									"name": "currencyId",
									"type": "uint160"
								},
								{
									"components": [
										{
											"internalType": "int16",
											"name": "version",
											"type": "int16"
										},
										{
											"internalType": "int16",
											"name": "CPRtype",
											"type": "int16"
										},
										{
											"internalType": "uint160",
											"name": "systemID",
											"type": "uint160"
										},
										{
											"internalType": "uint32",
											"name": "rootHeight",
											"type": "uint32"
										},
										{
											"internalType": "uint256",
											"name": "stateRoot",
											"type": "uint256"
										},
										{
											"internalType": "uint256",
											"name": "blockHash",
											"type": "uint256"
										},
										{
											"internalType": "uint256",
											"name": "compactPower",
											"type": "uint256"
										}
									],
									"internalType": "struct VerusObjects.CProofRoot",
									"name": "proofRoot",
									"type": "tuple"
								}
							],
							"internalType": "struct VerusObjects.ProofRoots[]",
							"name": "proofRoots",
							"type": "tuple[]"
						},
						{
							"components": [
								{
									"internalType": "string",
									"name": "networkAddress",
									"type": "string"
								},
								{
									"internalType": "uint160",
									"name": "nodeIdentity",
									"type": "uint160"
								}
							],
							"internalType": "struct VerusObjects.CNodeData[]",
							"name": "nodes",
							"type": "tuple[]"
						}
					],
					"internalType": "struct VerusObjects.CPBaaSNotarization",
					"name": "_not",
					"type": "tuple"
				}
			],
			"name": "serializeCPBaaSNotarization",
			"outputs": [
				{
					"internalType": "bytes",
					"name": "",
					"type": "bytes"
				}
			],
			"stateMutability": "pure",
			"type": "function"
		},
		{
			"inputs": [
				{
					"components": [
						{
							"internalType": "int16",
							"name": "version",
							"type": "int16"
						},
						{
							"internalType": "int16",
							"name": "CPRtype",
							"type": "int16"
						},
						{
							"internalType": "uint160",
							"name": "systemID",
							"type": "uint160"
						},
						{
							"internalType": "uint32",
							"name": "rootHeight",
							"type": "uint32"
						},
						{
							"internalType": "uint256",
							"name": "stateRoot",
							"type": "uint256"
						},
						{
							"internalType": "uint256",
							"name": "blockHash",
							"type": "uint256"
						},
						{
							"internalType": "uint256",
							"name": "compactPower",
							"type": "uint256"
						}
					],
					"internalType": "struct VerusObjects.CProofRoot",
					"name": "_cpr",
					"type": "tuple"
				}
			],
			"name": "serializeCProofRoot",
			"outputs": [
				{
					"internalType": "bytes",
					"name": "",
					"type": "bytes"
				}
			],
			"stateMutability": "pure",
			"type": "function"
		},
		{
			"inputs": [
				{
					"components": [
						{
							"internalType": "uint32",
							"name": "version",
							"type": "uint32"
						},
						{
							"components": [
								{
									"internalType": "uint160",
									"name": "currency",
									"type": "uint160"
								},
								{
									"internalType": "uint64",
									"name": "amount",
									"type": "uint64"
								}
							],
							"internalType": "struct VerusObjects.CCurrencyValueMap",
							"name": "currencyvalues",
							"type": "tuple"
						},
						{
							"internalType": "uint32",
							"name": "flags",
							"type": "uint32"
						},
						{
							"internalType": "uint160",
							"name": "feecurrencyid",
							"type": "uint160"
						},
						{
							"internalType": "uint256",
							"name": "fees",
							"type": "uint256"
						},
						{
							"components": [
								{
									"internalType": "uint32",
									"name": "destinationtype",
									"type": "uint32"
								},
								{
									"internalType": "uint160",
									"name": "destinationaddress",
									"type": "uint160"
								}
							],
							"internalType": "struct VerusObjects.CTransferDestination",
							"name": "destination",
							"type": "tuple"
						},
						{
							"internalType": "uint160",
							"name": "destCurrencyID",
							"type": "uint160"
						},
						{
							"internalType": "uint160",
							"name": "secondReserveID",
							"type": "uint160"
						},
						{
							"internalType": "uint160",
							"name": "destSystemID",
							"type": "uint160"
						}
					],
					"internalType": "struct VerusObjects.CReserveTransfer",
					"name": "ct",
					"type": "tuple"
				}
			],
			"name": "serializeCReserveTransfer",
			"outputs": [
				{
					"internalType": "bytes",
					"name": "",
					"type": "bytes"
				}
			],
			"stateMutability": "pure",
			"type": "function"
		},
		{
			"inputs": [
				{
					"components": [
						{
							"internalType": "uint32",
							"name": "version",
							"type": "uint32"
						},
						{
							"components": [
								{
									"internalType": "uint160",
									"name": "currency",
									"type": "uint160"
								},
								{
									"internalType": "uint64",
									"name": "amount",
									"type": "uint64"
								}
							],
							"internalType": "struct VerusObjects.CCurrencyValueMap",
							"name": "currencyvalues",
							"type": "tuple"
						},
						{
							"internalType": "uint32",
							"name": "flags",
							"type": "uint32"
						},
						{
							"internalType": "uint160",
							"name": "feecurrencyid",
							"type": "uint160"
						},
						{
							"internalType": "uint256",
							"name": "fees",
							"type": "uint256"
						},
						{
							"components": [
								{
									"internalType": "uint32",
									"name": "destinationtype",
									"type": "uint32"
								},
								{
									"internalType": "uint160",
									"name": "destinationaddress",
									"type": "uint160"
								}
							],
							"internalType": "struct VerusObjects.CTransferDestination",
							"name": "destination",
							"type": "tuple"
						},
						{
							"internalType": "uint160",
							"name": "destCurrencyID",
							"type": "uint160"
						},
						{
							"internalType": "uint160",
							"name": "secondReserveID",
							"type": "uint160"
						},
						{
							"internalType": "uint160",
							"name": "destSystemID",
							"type": "uint160"
						}
					],
					"internalType": "struct VerusObjects.CReserveTransfer[]",
					"name": "_bts",
					"type": "tuple[]"
				}
			],
			"name": "serializeCReserveTransfers",
			"outputs": [
				{
					"internalType": "bytes",
					"name": "",
					"type": "bytes"
				}
			],
			"stateMutability": "pure",
			"type": "function"
		},
		{
			"inputs": [
				{
					"components": [
						{
							"internalType": "uint32",
							"name": "destinationtype",
							"type": "uint32"
						},
						{
							"internalType": "uint160",
							"name": "destinationaddress",
							"type": "uint160"
						}
					],
					"internalType": "struct VerusObjects.CTransferDestination",
					"name": "ctd",
					"type": "tuple"
				}
			],
			"name": "serializeCTransferDestination",
			"outputs": [
				{
					"internalType": "bytes",
					"name": "",
					"type": "bytes"
				}
			],
			"stateMutability": "pure",
			"type": "function"
		},
		{
			"inputs": [
				{
					"components": [
						{
							"internalType": "uint256",
							"name": "hash",
							"type": "uint256"
						},
						{
							"internalType": "uint32",
							"name": "n",
							"type": "uint32"
						}
					],
					"internalType": "struct VerusObjects.CUTXORef",
					"name": "_cutxo",
					"type": "tuple"
				}
			],
			"name": "serializeCUTXORef",
			"outputs": [
				{
					"internalType": "bytes",
					"name": "",
					"type": "bytes"
				}
			],
			"stateMutability": "pure",
			"type": "function"
		},
		{
			"inputs": [
				{
					"components": [
						{
							"internalType": "uint160",
							"name": "currencyId",
							"type": "uint160"
						},
						{
							"components": [
								{
									"internalType": "int64",
									"name": "primaryCurrencyOut",
									"type": "int64"
								},
								{
									"internalType": "int64",
									"name": "preconvertedOut",
									"type": "int64"
								},
								{
									"internalType": "int64",
									"name": "primaryCurrencyFees",
									"type": "int64"
								},
								{
									"internalType": "int64",
									"name": "primaryCurrencyConversionFees",
									"type": "int64"
								},
								{
									"internalType": "int64[]",
									"name": "reserveIn",
									"type": "int64[]"
								},
								{
									"internalType": "int64[]",
									"name": "primaryCurrencyIn",
									"type": "int64[]"
								},
								{
									"internalType": "int64[]",
									"name": "reserveOut",
									"type": "int64[]"
								},
								{
									"internalType": "int64[]",
									"name": "conversionPrice",
									"type": "int64[]"
								},
								{
									"internalType": "int64[]",
									"name": "viaConversionPrice",
									"type": "int64[]"
								},
								{
									"internalType": "int64[]",
									"name": "fees",
									"type": "int64[]"
								},
								{
									"internalType": "int64[]",
									"name": "conversionFees",
									"type": "int64[]"
								},
								{
									"internalType": "int32[]",
									"name": "priorWeights",
									"type": "int32[]"
								}
							],
							"internalType": "struct VerusObjects.CCoinbaseCurrencyState",
							"name": "currencyState",
							"type": "tuple"
						}
					],
					"internalType": "struct VerusObjects.CurrencyStates",
					"name": "_cs",
					"type": "tuple"
				}
			],
			"name": "serializeCurrencyStates",
			"outputs": [
				{
					"internalType": "bytes",
					"name": "",
					"type": "bytes"
				}
			],
			"stateMutability": "pure",
			"type": "function"
		},
		{
			"inputs": [
				{
					"components": [
						{
							"internalType": "uint160",
							"name": "currencyId",
							"type": "uint160"
						},
						{
							"components": [
								{
									"internalType": "int64",
									"name": "primaryCurrencyOut",
									"type": "int64"
								},
								{
									"internalType": "int64",
									"name": "preconvertedOut",
									"type": "int64"
								},
								{
									"internalType": "int64",
									"name": "primaryCurrencyFees",
									"type": "int64"
								},
								{
									"internalType": "int64",
									"name": "primaryCurrencyConversionFees",
									"type": "int64"
								},
								{
									"internalType": "int64[]",
									"name": "reserveIn",
									"type": "int64[]"
								},
								{
									"internalType": "int64[]",
									"name": "primaryCurrencyIn",
									"type": "int64[]"
								},
								{
									"internalType": "int64[]",
									"name": "reserveOut",
									"type": "int64[]"
								},
								{
									"internalType": "int64[]",
									"name": "conversionPrice",
									"type": "int64[]"
								},
								{
									"internalType": "int64[]",
									"name": "viaConversionPrice",
									"type": "int64[]"
								},
								{
									"internalType": "int64[]",
									"name": "fees",
									"type": "int64[]"
								},
								{
									"internalType": "int64[]",
									"name": "conversionFees",
									"type": "int64[]"
								},
								{
									"internalType": "int32[]",
									"name": "priorWeights",
									"type": "int32[]"
								}
							],
							"internalType": "struct VerusObjects.CCoinbaseCurrencyState",
							"name": "currencyState",
							"type": "tuple"
						}
					],
					"internalType": "struct VerusObjects.CurrencyStates[]",
					"name": "_csa",
					"type": "tuple[]"
				}
			],
			"name": "serializeCurrencyStatesArray",
			"outputs": [
				{
					"internalType": "bytes",
					"name": "",
					"type": "bytes"
				}
			],
			"stateMutability": "pure",
			"type": "function"
		},
		{
			"inputs": [
				{
					"internalType": "int16",
					"name": "number",
					"type": "int16"
				}
			],
			"name": "serializeInt16",
			"outputs": [
				{
					"internalType": "bytes",
					"name": "",
					"type": "bytes"
				}
			],
			"stateMutability": "pure",
			"type": "function"
		},
		{
			"inputs": [
				{
					"internalType": "int32",
					"name": "number",
					"type": "int32"
				}
			],
			"name": "serializeInt32",
			"outputs": [
				{
					"internalType": "bytes",
					"name": "",
					"type": "bytes"
				}
			],
			"stateMutability": "pure",
			"type": "function"
		},
		{
			"inputs": [
				{
					"internalType": "int32[]",
					"name": "numbers",
					"type": "int32[]"
				}
			],
			"name": "serializeInt32Array",
			"outputs": [
				{
					"internalType": "bytes",
					"name": "",
					"type": "bytes"
				}
			],
			"stateMutability": "pure",
			"type": "function"
		},
		{
			"inputs": [
				{
					"internalType": "int64",
					"name": "number",
					"type": "int64"
				}
			],
			"name": "serializeInt64",
			"outputs": [
				{
					"internalType": "bytes",
					"name": "",
					"type": "bytes"
				}
			],
			"stateMutability": "pure",
			"type": "function"
		},
		{
			"inputs": [
				{
					"internalType": "int64[]",
					"name": "numbers",
					"type": "int64[]"
				}
			],
			"name": "serializeInt64Array",
			"outputs": [
				{
					"internalType": "bytes",
					"name": "",
					"type": "bytes"
				}
			],
			"stateMutability": "pure",
			"type": "function"
		},
		{
			"inputs": [
				{
					"components": [
						{
							"internalType": "uint160",
							"name": "currencyId",
							"type": "uint160"
						},
						{
							"components": [
								{
									"internalType": "int16",
									"name": "version",
									"type": "int16"
								},
								{
									"internalType": "int16",
									"name": "CPRtype",
									"type": "int16"
								},
								{
									"internalType": "uint160",
									"name": "systemID",
									"type": "uint160"
								},
								{
									"internalType": "uint32",
									"name": "rootHeight",
									"type": "uint32"
								},
								{
									"internalType": "uint256",
									"name": "stateRoot",
									"type": "uint256"
								},
								{
									"internalType": "uint256",
									"name": "blockHash",
									"type": "uint256"
								},
								{
									"internalType": "uint256",
									"name": "compactPower",
									"type": "uint256"
								}
							],
							"internalType": "struct VerusObjects.CProofRoot",
							"name": "proofRoot",
							"type": "tuple"
						}
					],
					"internalType": "struct VerusObjects.ProofRoots",
					"name": "_prs",
					"type": "tuple"
				}
			],
			"name": "serializeProofRoots",
			"outputs": [
				{
					"internalType": "bytes",
					"name": "",
					"type": "bytes"
				}
			],
			"stateMutability": "pure",
			"type": "function"
		},
		{
			"inputs": [
				{
					"components": [
						{
							"internalType": "uint160",
							"name": "currencyId",
							"type": "uint160"
						},
						{
							"components": [
								{
									"internalType": "int16",
									"name": "version",
									"type": "int16"
								},
								{
									"internalType": "int16",
									"name": "CPRtype",
									"type": "int16"
								},
								{
									"internalType": "uint160",
									"name": "systemID",
									"type": "uint160"
								},
								{
									"internalType": "uint32",
									"name": "rootHeight",
									"type": "uint32"
								},
								{
									"internalType": "uint256",
									"name": "stateRoot",
									"type": "uint256"
								},
								{
									"internalType": "uint256",
									"name": "blockHash",
									"type": "uint256"
								},
								{
									"internalType": "uint256",
									"name": "compactPower",
									"type": "uint256"
								}
							],
							"internalType": "struct VerusObjects.CProofRoot",
							"name": "proofRoot",
							"type": "tuple"
						}
					],
					"internalType": "struct VerusObjects.ProofRoots[]",
					"name": "_prsa",
					"type": "tuple[]"
				}
			],
			"name": "serializeProofRootsArray",
			"outputs": [
				{
					"internalType": "bytes",
					"name": "",
					"type": "bytes"
				}
			],
			"stateMutability": "pure",
			"type": "function"
		},
		{
			"inputs": [
				{
					"internalType": "string",
					"name": "anyString",
					"type": "string"
				}
			],
			"name": "serializeString",
			"outputs": [
				{
					"internalType": "bytes",
					"name": "",
					"type": "bytes"
				}
			],
			"stateMutability": "pure",
			"type": "function"
		},
		{
			"inputs": [
				{
					"internalType": "uint16",
					"name": "number",
					"type": "uint16"
				}
			],
			"name": "serializeUint16",
			"outputs": [
				{
					"internalType": "bytes",
					"name": "",
					"type": "bytes"
				}
			],
			"stateMutability": "pure",
			"type": "function"
		},
		{
			"inputs": [
				{
					"internalType": "uint160",
					"name": "number",
					"type": "uint160"
				}
			],
			"name": "serializeUint160",
			"outputs": [
				{
					"internalType": "bytes",
					"name": "",
					"type": "bytes"
				}
			],
			"stateMutability": "pure",
			"type": "function"
		},
		{
			"inputs": [
				{
					"internalType": "uint256",
					"name": "number",
					"type": "uint256"
				}
			],
			"name": "serializeUint256",
			"outputs": [
				{
					"internalType": "bytes",
					"name": "",
					"type": "bytes"
				}
			],
			"stateMutability": "pure",
			"type": "function"
		},
		{
			"inputs": [
				{
					"internalType": "uint32",
					"name": "number",
					"type": "uint32"
				}
			],
			"name": "serializeUint32",
			"outputs": [
				{
					"internalType": "bytes",
					"name": "",
					"type": "bytes"
				}
			],
			"stateMutability": "pure",
			"type": "function"
		},
		{
			"inputs": [
				{
					"internalType": "uint64",
					"name": "number",
					"type": "uint64"
				}
			],
			"name": "serializeUint64",
			"outputs": [
				{
					"internalType": "bytes",
					"name": "",
					"type": "bytes"
				}
			],
			"stateMutability": "pure",
			"type": "function"
		},
		{
			"inputs": [
				{
					"internalType": "uint8",
					"name": "number",
					"type": "uint8"
				}
			],
			"name": "serializeUint8",
			"outputs": [
				{
					"internalType": "bytes",
					"name": "",
					"type": "bytes"
				}
			],
			"stateMutability": "pure",
			"type": "function"
		}
	]
}