{
	"data": {
		"bytecode": {
			"linkReferences": {},
			"object": "608060405234801561001057600080fd5b50613cd1806100206000396000f3fe608060405234801561001057600080fd5b506004361061021b5760003560e01c80639d487b4711610125578063cfa84de9116100ad578063ed7115d51161007c578063ed7115d5146107f0578063f20fb83014610820578063f821729514610850578063f8bd772514610880578063fef5906a146108b05761021b565b8063cfa84de914610730578063d945255f14610760578063dad935a114610790578063e4cba547146107c05761021b565b8063ba4b1d01116100f4578063ba4b1d0114610640578063bcddeda414610670578063c7343e2c146106a0578063c93e58c8146106d0578063cecb3043146107005761021b565b80639d487b4714610580578063af832f09146105b0578063b3a895f6146105e0578063b9edc795146106105761021b565b806344c789d1116101a85780636127b4ff116101775780636127b4ff1461049057806368b4ae81146104c05780637a635645146104f05780638e619e2014610520578063941bb060146105505761021b565b806344c789d1146103d05780634625600714610400578063463276c314610430578063485153eb146104605761021b565b8063122e5ae7116101ef578063122e5ae7146102e057806319a7c17b1461031057806320105c8a14610340578063241d23b21461037057806329688df3146103a05761021b565b80629c815214610220578063049e34901461025057806308ea154c146102805780631222d81a146102b0575b600080fd5b61023a60048036038101906102359190612a9e565b6108e0565b60405161024791906136c9565b60405180910390f35b61026a60048036038101906102659190612959565b610909565b60405161027791906136c9565b60405180910390f35b61029a60048036038101906102959190612d80565b61097a565b6040516102a791906136c9565b60405180910390f35b6102ca60048036038101906102c59190612af0565b610a3e565b6040516102d791906136c9565b60405180910390f35b6102fa60048036038101906102f59190612f4c565b610b0f565b60405161030791906136c9565b60405180910390f35b61032a60048036038101906103259190612a5d565b610b46565b60405161033791906136c9565b60405180910390f35b61035a60048036038101906103559190612dc1565b610bd6565b60405161036791906136c9565b60405180910390f35b61038a6004803603810190610385919061286d565b610c5f565b60405161039791906136c9565b60405180910390f35b6103ba60048036038101906103b59190612ea7565b610c90565b6040516103c791906136c9565b60405180910390f35b6103ea60048036038101906103e59190612d3f565b610cd3565b6040516103f791906136c9565b60405180910390f35b61041a60048036038101906104159190612b31565b610d0e565b60405161042791906136c9565b60405180910390f35b61044a60048036038101906104459190612ac7565b610d45565b60405161045791906136c9565b60405180910390f35b61047a60048036038101906104759190612cd5565b610d6e565b60405161048791906136c9565b60405180910390f35b6104aa60048036038101906104a59190612f75565b610ebb565b6040516104b791906136c9565b60405180910390f35b6104da60048036038101906104d59190612bac565b610ef2565b6040516104e791906136c9565b60405180910390f35b61050a600480360381019061050591906129db565b610f1b565b60405161051791906136c9565b60405180910390f35b61053a60048036038101906105359190612a1c565b610f8c565b60405161054791906136c9565b60405180910390f35b61056a60048036038101906105659190612918565b610ffd565b60405161057791906136c9565b60405180910390f35b61059a60048036038101906105959190612896565b61106e565b6040516105a791906136c9565b60405180910390f35b6105ca60048036038101906105c59190612b83565b6110d7565b6040516105d791906136c9565b60405180910390f35b6105fa60048036038101906105f59190612efa565b61110e565b60405161060791906136c9565b60405180910390f35b61062a60048036038101906106259190612e3d565b611196565b60405161063791906136c9565b60405180910390f35b61065a6004803603810190610655919061299a565b6111d9565b60405161066791906136c9565b60405180910390f35b61068a60048036038101906106859190612e66565b61124a565b60405161069791906136c9565b60405180910390f35b6106ba60048036038101906106b59190612c94565b61128d565b6040516106c791906136c9565b60405180910390f35b6106ea60048036038101906106e59190612bed565b611406565b6040516106f791906136c9565b60405180910390f35b61071a60048036038101906107159190612f23565b61145b565b60405161072791906136c9565b60405180910390f35b61074a60048036038101906107459190612d16565b611492565b60405161075791906136c9565b60405180910390f35b61077a60048036038101906107759190612e14565b6114df565b60405161078791906136c9565b60405180910390f35b6107aa60048036038101906107a59190612efa565b61152d565b6040516107b791906136c9565b60405180910390f35b6107da60048036038101906107d59190612ed1565b6115fc565b6040516107e791906136c9565b60405180910390f35b61080a6004803603810190610805919061286d565b611633565b60405161081791906136c9565b60405180910390f35b61083a60048036038101906108359190612efa565b611662565b60405161084791906136c9565b60405180910390f35b61086a600480360381019061086591906128d7565b611699565b60405161087791906136c9565b60405180910390f35b61089a60048036038101906108959190612dea565b611729565b6040516108a791906136c9565b60405180910390f35b6108ca60048036038101906108c59190612b5a565b61187c565b6040516108d791906136c9565b60405180910390f35b6060816040516020016108f3919061317f565b6040516020818303038152906040529050919050565b6060806109168351611662565b905060005b8351811015610970578161094185838151811061093457fe5b6020026020010151610cd3565b6040516020016109529291906131dd565b6040516020818303038152906040529150808060010191505061091b565b5080915050919050565b6060610989826000015161145b565b61099683602001516114df565b6109a3846040015161145b565b6109b0856060015161128d565b6109bd8660800151611662565b6109ca8760a001516110d7565b6109d78860c00151611662565b6109e48960e00151610b0f565b6109f28a6101000151610f1b565b610a008b6101200151610f8c565b610a0e8c6101400151610909565b604051602001610a289b9a999897969594939291906133b0565b6040516020818303038152906040529050919050565b606060008251905060008167ffffffffffffffff81118015610a5f57600080fd5b506040519080825280601f01601f191660200182016040528015610a925781602001600182028036833780820191505090505b50905060005b82811015610b04578460018285030381518110610ab157fe5b602001015160f81c60f81b828281518110610ac857fe5b60200101907effffffffffffffffffffffffffffffffffffffffffffffffffffffffffffff1916908160001a9053508080600101915050610a98565b819350505050919050565b6060600082604051602001610b24919061360f565b6040516020818303038152906040529050610b3e81610a3e565b915050919050565b606080610b538351611662565b905060005b8351811015610bcc5781610b9d858381518110610b7157fe5b6020026020010151604051602001610b8991906135a3565b604051602081830303815290604052610a3e565b604051602001610bae9291906131dd565b60405160208183030381529060405291508080600101915050610b58565b5080915050919050565b6060610be58260000151610d0e565b610bf28360200151610d0e565b610bff8460400151611633565b610c0c856060015161145b565b610c198660800151611662565b610c268760a00151611662565b610c338860c00151611662565b604051602001610c4997969594939291906132d5565b6040516020818303038152906040529050919050565b6060610c8982604051602001610c759190613164565b604051602081830303815290604052610a3e565b9050919050565b6060610c9f8260000151611633565b610cac8360200151610bd6565b604051602001610cbd9291906131dd565b6040516020818303038152906040529050919050565b60608160000151610ce78360200151611633565b604051602001610cf892919061357f565b6040516020818303038152906040529050919050565b6060600082604051602001610d239190613517565b6040516020818303038152906040529050610d3d81610a3e565b915050919050565b606081604051602001610d58919061319a565b6040516020818303038152906040529050919050565b60606000610d7f836000015161145b565b610d8c846020015161145b565b610d998560400151611633565b610dac866060015163ffffffff1661110e565b610dbf876080015163ffffffff1661110e565b610dcc8860a00151611633565b610dd98960c00151611633565b604051602001610def97969594939291906132d5565b60405160208183030381529060405290506000610e0f8460e0015161145b565b610e1d856101000151610ffd565b610e2b866101200151610ffd565b610e39876101400151611662565b610e47886101600151610ffd565b610e55896101800151610c5f565b610e638a6101a0015161187c565b600060f81b604051602001610e7f98979695949392919061333a565b60405160208183030381529060405290508181604051602001610ea39291906131dd565b60405160208183030381529060405292505050919050565b6060600082604051602001610ed0919061362a565b6040516020818303038152906040529050610eea81610a3e565b915050919050565b606081604051602001610f059190613568565b6040516020818303038152906040529050919050565b606080610f288351611662565b905060005b8351811015610f825781610f53858381518110610f4657fe5b602002602001015161124a565b604051602001610f649291906131dd565b60405160208183030381529060405291508080600101915050610f2d565b5080915050919050565b606080610f998351611662565b905060005b8351811015610ff35781610fc4858381518110610fb757fe5b6020026020010151610c90565b604051602001610fd59291906131dd565b60405160208183030381529060405291508080600101915050610f9e565b5080915050919050565b60608061100a835161110e565b905060005b8351811015611064578161103585838151811061102857fe5b6020026020010151611492565b6040516020016110469291906131dd565b6040516020818303038152906040529150808060010191505061100f565b5080915050919050565b60608061107b8351611662565b905060005b83518110156110cd578184828151811061109657fe5b60200260200101516040516020016110af9291906134ef565b60405160208183030381529060405291508080600101915050611080565b5080915050919050565b60606000826040516020016110ec919061354d565b604051602081830303815290604052905061110681610a3e565b915050919050565b60606000606060005b60011561118357600081141561112e576000611131565b60805b607f86161760f81b9250818360405160200161114e9291906131b5565b6040516020818303038152906040529150607f851161116c57611183565b6001600786901c0394508080600101915050611117565b61118c82610a3e565b9350505050919050565b60606111a58260000151611662565b6111b2836020015161145b565b6040516020016111c39291906131dd565b6040516020818303038152906040529050919050565b6060806111e6835161152d565b905060005b8351811015611240578161121185838151811061120457fe5b6020026020010151611729565b6040516020016112229291906131dd565b604051602081830303815290604052915080806001019150506111eb565b5080915050919050565b60606112598260000151611633565b611266836020015161128d565b6040516020016112779291906131dd565b6040516020818303038152906040529050919050565b6060600061129e83600001516115fc565b6112ab84602001516115fc565b6112b88560400151611633565b6112c58660600151610b46565b6112d2876080015161106e565b6112df8860a00151611699565b6040516020016112f49695949392919061327d565b604051602081830303815290604052905060006113158461012001516110d7565b6113238561014001516110d7565b6113318661016001516110d7565b61133f8761018001516110d7565b61134d886101a00151611699565b61135b896101c00151611699565b6113698a6101e00151611699565b6113778b6102000151611699565b6113858c6102200151611699565b6113938d6102400151611699565b6113a18e6102600151611699565b6113af8f610280015161106e565b6040516020016113ca9c9b9a99989796959493929190613449565b604051602081830303815290604052905081816040516020016113ee9291906131dd565b60405160208183030381529060405292505050919050565b606061141186610ef2565b61141a86611633565b611423866110d7565b61142c86611633565b85604051602001611441959493929190613232565b604051602081830303815290604052905095945050505050565b606060008260405160200161147091906135f4565b604051602081830303815290604052905061148a81610a3e565b915050919050565b60606114a18260000151611633565b6114b8836020015167ffffffffffffffff1661110e565b6040516020016114c99291906131dd565b6040516020818303038152906040529050919050565b60606114ee826000015161145b565b6114f8601461152d565b6115058460200151611633565b60405160200161151793929190613201565b6040516020818303038152906040529050919050565b60608060fd60ff16831015611563578260405160200161154d919061362a565b60405160208183030381529060405290506115f3565b61ffff83116115965760fd83604051602001611580929190613645565b60405160208183030381529060405290506115f2565b63ffffffff83116115cb5760fe836040516020016115b5929190613671565b60405160208183030381529060405290506115f1565b60ff836040516020016115df92919061369d565b60405160208183030381529060405290505b5b5b80915050919050565b606060008260405160200161161191906135be565b604051602081830303815290604052905061162b81610a3e565b915050919050565b60606000826040516020016116489190613164565b604051602081830303815290604052905080915050919050565b606060008260405160200161167791906135d9565b604051602081830303815290604052905061169181610a3e565b915050919050565b6060806116a68351611662565b905060005b835181101561171f57816116f08583815181106116c457fe5b60200260200101516040516020016116dc919061354d565b604051602081830303815290604052610a3e565b6040516020016117019291906131dd565b604051602081830303815290604052915080806001019150506116ab565b5080915050919050565b6060600061173a836000015161145b565b6117478460200151611492565b611754856040015161145b565b6117618660600151611633565b61176e876080015161110e565b61177b8860a001516114df565b6040516020016117909695949392919061327d565b6040516020818303038152906040529050600073ffffffffffffffffffffffffffffffffffffffff168360c0015173ffffffffffffffffffffffffffffffffffffffff161461180a57806117e78460c00151611633565b6040516020016117f89291906131dd565b60405160208183030381529060405290505b600073ffffffffffffffffffffffffffffffffffffffff168360e0015173ffffffffffffffffffffffffffffffffffffffff161461187357806118508460e00151611633565b6040516020016118619291906131dd565b60405160208183030381529060405290505b80915050919050565b60606000826040516020016118919190613532565b60405160208183030381529060405290506118ab81610a3e565b915050919050565b60006118c66118c18461371c565b6136eb565b905080838252602082019050828560208602820111156118e557600080fd5b60005b8581101561191557816118fb8882611e43565b8452602084019350602083019250506001810190506118e8565b5050509392505050565b600061193261192d84613748565b6136eb565b9050808382526020820190508285602086028201111561195157600080fd5b60005b8581101561198157816119678882611e58565b845260208401935060208301925050600181019050611954565b5050509392505050565b600061199e61199984613774565b6136eb565b905080838252602082019050828560408602820111156119bd57600080fd5b60005b858110156119ed57816119d38882612315565b8452602084019350604083019250506001810190506119c0565b5050509392505050565b6000611a0a611a05846137a0565b6136eb565b9050808382526020820190508260005b85811015611a4a5781358501611a308882612361565b845260208401935060208301925050600181019050611a1a565b5050509392505050565b6000611a67611a62846137cc565b6136eb565b9050808382526020820190508285610140860282011115611a8757600080fd5b60005b85811015611ab85781611a9d88826125de565b84526020840193506101408301925050600181019050611a8a565b5050509392505050565b6000611ad5611ad0846137f8565b6136eb565b9050808382526020820190508260005b85811015611b155781358501611afb888261273e565b845260208401935060208301925050600181019050611ae5565b5050509392505050565b6000611b32611b2d84613824565b6136eb565b9050808382526020820190508285610100860282011115611b5257600080fd5b60005b85811015611b835781611b6888826127a2565b84526020840193506101008301925050600181019050611b55565b5050509392505050565b6000611ba0611b9b84613850565b6136eb565b90508083825260208201905082856020860282011115611bbf57600080fd5b60005b85811015611bef5781611bd58882612804565b845260208401935060208301925050600181019050611bc2565b5050509392505050565b6000611c0c611c078461387c565b6136eb565b905082815260208101848484011115611c2457600080fd5b611c2f848285613a1f565b509392505050565b6000611c4a611c45846138ac565b6136eb565b905082815260208101848484011115611c6257600080fd5b611c6d848285613a1f565b509392505050565b600081359050611c8481613b87565b92915050565b600082601f830112611c9b57600080fd5b8135611cab8482602086016118b3565b91505092915050565b600082601f830112611cc557600080fd5b8135611cd584826020860161191f565b91505092915050565b600082601f830112611cef57600080fd5b8135611cff84826020860161198b565b91505092915050565b600082601f830112611d1957600080fd5b8135611d298482602086016119f7565b91505092915050565b600082601f830112611d4357600080fd5b8135611d53848260208601611a54565b91505092915050565b600082601f830112611d6d57600080fd5b8135611d7d848260208601611ac2565b91505092915050565b600082601f830112611d9757600080fd5b8135611da7848260208601611b1f565b91505092915050565b600082601f830112611dc157600080fd5b8135611dd1848260208601611b8d565b91505092915050565b600081359050611de981613b9e565b92915050565b600081359050611dfe81613bb5565b92915050565b600082601f830112611e1557600080fd5b8135611e25848260208601611bf9565b91505092915050565b600081359050611e3d81613bcc565b92915050565b600081359050611e5281613be3565b92915050565b600081359050611e6781613bfa565b92915050565b600082601f830112611e7e57600080fd5b8135611e8e848260208601611c37565b91505092915050565b60006102a08284031215611eaa57600080fd5b611eb56102a06136eb565b90506000611ec5848285016127ef565b6000830152506020611ed9848285016127ef565b6020830152506040611eed84828501611c75565b604083015250606082013567ffffffffffffffff811115611f0d57600080fd5b611f1984828501611db0565b606083015250608082013567ffffffffffffffff811115611f3957600080fd5b611f4584828501611c8a565b60808301525060a082013567ffffffffffffffff811115611f6557600080fd5b611f7184828501611cb4565b60a08301525060c0611f8584828501611e58565b60c08301525060e0611f9984828501611e58565b60e083015250610100611fae84828501611e58565b61010083015250610120611fc484828501611e58565b61012083015250610140611fda84828501611e58565b61014083015250610160611ff084828501611e58565b6101608301525061018061200684828501611e58565b610180830152506101a082013567ffffffffffffffff81111561202857600080fd5b61203484828501611cb4565b6101a0830152506101c082013567ffffffffffffffff81111561205657600080fd5b61206284828501611cb4565b6101c0830152506101e082013567ffffffffffffffff81111561208457600080fd5b61209084828501611cb4565b6101e08301525061020082013567ffffffffffffffff8111156120b257600080fd5b6120be84828501611cb4565b6102008301525061022082013567ffffffffffffffff8111156120e057600080fd5b6120ec84828501611cb4565b6102208301525061024082013567ffffffffffffffff81111561210e57600080fd5b61211a84828501611cb4565b6102408301525061026082013567ffffffffffffffff81111561213c57600080fd5b61214884828501611cb4565b6102608301525061028082013567ffffffffffffffff81111561216a57600080fd5b61217684828501611c8a565b6102808301525092915050565b60006101c0828403121561219657600080fd5b6121a16101c06136eb565b905060006121b18482850161282e565b60008301525060206121c58482850161282e565b60208301525060406121d984828501611c75565b60408301525060606121ed8482850161282e565b60608301525060806122018482850161282e565b60808301525060a061221584828501611c75565b60a08301525060c061222984828501611c75565b60c08301525060e061223d8482850161282e565b60e08301525061010082013567ffffffffffffffff81111561225e57600080fd5b61226a84828501611cde565b6101008301525061012082013567ffffffffffffffff81111561228c57600080fd5b61229884828501611cde565b610120830152506101406122ae84828501612819565b6101408301525061016082013567ffffffffffffffff8111156122d057600080fd5b6122dc84828501611cde565b610160830152506101806122f284828501611c75565b610180830152506101a061230884828501611e43565b6101a08301525092915050565b60006040828403121561232757600080fd5b61233160406136eb565b9050600061234184828501611c75565b600083015250602061235584828501612843565b60208301525092915050565b60006040828403121561237357600080fd5b61237d60406136eb565b9050600082013567ffffffffffffffff81111561239957600080fd5b6123a584828501611e6d565b60008301525060206123b984828501611c75565b60208301525092915050565b600061018082840312156123d857600080fd5b6123e36101606136eb565b905060006123f38482850161282e565b6000830152506020612407848285016126a6565b602083015250606061241b8482850161282e565b604083015250608082013567ffffffffffffffff81111561243b57600080fd5b61244784828501611e97565b60608301525060a061245b84828501612819565b60808301525060c061246f84828501611e58565b60a08301525060e061248384828501612819565b60c08301525061010061249884828501612843565b60e08301525061012082013567ffffffffffffffff8111156124b957600080fd5b6124c584828501611d5c565b6101008301525061014082013567ffffffffffffffff8111156124e757600080fd5b6124f384828501611d86565b6101208301525061016082013567ffffffffffffffff81111561251557600080fd5b61252184828501611d08565b6101408301525092915050565b600060e0828403121561254057600080fd5b61254a60e06136eb565b9050600061255a84828501611e2e565b600083015250602061256e84828501611e2e565b602083015250604061258284828501611c75565b60408301525060606125968482850161282e565b60608301525060806125aa84828501612819565b60808301525060a06125be84828501612819565b60a08301525060c06125d284828501612819565b60c08301525092915050565b600061014082840312156125f157600080fd5b6125fc6101006136eb565b9050600061260c8482850161282e565b600083015250602061262084828501612315565b60208301525060606126348482850161282e565b604083015250608061264884828501611c75565b60608301525060a061265c84828501612819565b60808301525060c0612670848285016126a6565b60a08301525061010061268584828501611c75565b60c08301525061012061269a84828501611c75565b60e08301525092915050565b6000604082840312156126b857600080fd5b6126c260406136eb565b905060006126d28482850161282e565b60008301525060206126e684828501611c75565b60208301525092915050565b60006040828403121561270457600080fd5b61270e60406136eb565b9050600061271e84828501612819565b60008301525060206127328482850161282e565b60208301525092915050565b60006040828403121561275057600080fd5b61275a60406136eb565b9050600061276a84828501611c75565b600083015250602082013567ffffffffffffffff81111561278a57600080fd5b61279684828501611e97565b60208301525092915050565b600061010082840312156127b557600080fd5b6127bf60406136eb565b905060006127cf84828501611c75565b60008301525060206127e38482850161252e565b60208301525092915050565b6000813590506127fe81613c11565b92915050565b60008135905061281381613c28565b92915050565b60008135905061282881613c3f565b92915050565b60008135905061283d81613c56565b92915050565b60008135905061285281613c6d565b92915050565b60008135905061286781613c84565b92915050565b60006020828403121561287f57600080fd5b600061288d84828501611c75565b91505092915050565b6000602082840312156128a857600080fd5b600082013567ffffffffffffffff8111156128c257600080fd5b6128ce84828501611c8a565b91505092915050565b6000602082840312156128e957600080fd5b600082013567ffffffffffffffff81111561290357600080fd5b61290f84828501611cb4565b91505092915050565b60006020828403121561292a57600080fd5b600082013567ffffffffffffffff81111561294457600080fd5b61295084828501611cde565b91505092915050565b60006020828403121561296b57600080fd5b600082013567ffffffffffffffff81111561298557600080fd5b61299184828501611d08565b91505092915050565b6000602082840312156129ac57600080fd5b600082013567ffffffffffffffff8111156129c657600080fd5b6129d284828501611d32565b91505092915050565b6000602082840312156129ed57600080fd5b600082013567ffffffffffffffff811115612a0757600080fd5b612a1384828501611d5c565b91505092915050565b600060208284031215612a2e57600080fd5b600082013567ffffffffffffffff811115612a4857600080fd5b612a5484828501611d86565b91505092915050565b600060208284031215612a6f57600080fd5b600082013567ffffffffffffffff811115612a8957600080fd5b612a9584828501611db0565b91505092915050565b600060208284031215612ab057600080fd5b6000612abe84828501611dda565b91505092915050565b600060208284031215612ad957600080fd5b6000612ae784828501611def565b91505092915050565b600060208284031215612b0257600080fd5b600082013567ffffffffffffffff811115612b1c57600080fd5b612b2884828501611e04565b91505092915050565b600060208284031215612b4357600080fd5b6000612b5184828501611e2e565b91505092915050565b600060208284031215612b6c57600080fd5b6000612b7a84828501611e43565b91505092915050565b600060208284031215612b9557600080fd5b6000612ba384828501611e58565b91505092915050565b600060208284031215612bbe57600080fd5b600082013567ffffffffffffffff811115612bd857600080fd5b612be484828501611e6d565b91505092915050565b600080600080600060a08688031215612c0557600080fd5b600086013567ffffffffffffffff811115612c1f57600080fd5b612c2b88828901611e6d565b9550506020612c3c88828901611c75565b9450506040612c4d88828901611e58565b9350506060612c5e88828901611c75565b925050608086013567ffffffffffffffff811115612c7b57600080fd5b612c8788828901611e04565b9150509295509295909350565b600060208284031215612ca657600080fd5b600082013567ffffffffffffffff811115612cc057600080fd5b612ccc84828501611e97565b91505092915050565b600060208284031215612ce757600080fd5b600082013567ffffffffffffffff811115612d0157600080fd5b612d0d84828501612183565b91505092915050565b600060408284031215612d2857600080fd5b6000612d3684828501612315565b91505092915050565b600060208284031215612d5157600080fd5b600082013567ffffffffffffffff811115612d6b57600080fd5b612d7784828501612361565b91505092915050565b600060208284031215612d9257600080fd5b600082013567ffffffffffffffff811115612dac57600080fd5b612db8848285016123c5565b91505092915050565b600060e08284031215612dd357600080fd5b6000612de18482850161252e565b91505092915050565b60006101408284031215612dfd57600080fd5b6000612e0b848285016125de565b91505092915050565b600060408284031215612e2657600080fd5b6000612e34848285016126a6565b91505092915050565b600060408284031215612e4f57600080fd5b6000612e5d848285016126f2565b91505092915050565b600060208284031215612e7857600080fd5b600082013567ffffffffffffffff811115612e9257600080fd5b612e9e8482850161273e565b91505092915050565b60006101008284031215612eba57600080fd5b6000612ec8848285016127a2565b91505092915050565b600060208284031215612ee357600080fd5b6000612ef1848285016127ef565b91505092915050565b600060208284031215612f0c57600080fd5b6000612f1a84828501612819565b91505092915050565b600060208284031215612f3557600080fd5b6000612f438482850161282e565b91505092915050565b600060208284031215612f5e57600080fd5b6000612f6c84828501612843565b91505092915050565b600060208284031215612f8757600080fd5b6000612f9584828501612858565b91505092915050565b612faf612faa82613919565b613a61565b82525050565b612fc6612fc18261392b565b613a73565b82525050565b612fdd612fd882613937565b613a85565b82525050565b612ff4612fef82613963565b613a8f565b82525050565b6000613005826138dc565b61300f81856138f2565b935061301f818560208601613a2e565b61302881613b35565b840191505092915050565b600061303e826138dc565b6130488185613903565b9350613058818560208601613a2e565b80840191505092915050565b6130756130708261398f565b613a99565b82525050565b61308c6130878261399c565b613aab565b82525050565b6130a361309e826139a9565b613abd565b82525050565b60006130b4826138e7565b6130be818561390e565b93506130ce818560208601613a2e565b80840191505092915050565b6130eb6130e6826139c4565b613ae1565b82525050565b6131026130fd826139b6565b613acf565b82525050565b613119613114826139e4565b613af3565b82525050565b61313061312b826139ee565b613afd565b82525050565b613147613142826139fe565b613b0f565b82525050565b61315e61315982613a12565b613b21565b82525050565b60006131708284612f9e565b60148201915081905092915050565b600061318b8284612fb5565b60018201915081905092915050565b60006131a68284612fe3565b60148201915081905092915050565b60006131c18285613033565b91506131cd8284612fcc565b6001820191508190509392505050565b60006131e98285613033565b91506131f58284613033565b91508190509392505050565b600061320d8286613033565b91506132198285613033565b91506132258284613033565b9150819050949350505050565b600061323e8288613033565b915061324a8287613033565b91506132568286613033565b91506132628285613033565b915061326e8284613033565b91508190509695505050505050565b60006132898289613033565b91506132958288613033565b91506132a18287613033565b91506132ad8286613033565b91506132b98285613033565b91506132c58284613033565b9150819050979650505050505050565b60006132e1828a613033565b91506132ed8289613033565b91506132f98288613033565b91506133058287613033565b91506133118286613033565b915061331d8285613033565b91506133298284613033565b915081905098975050505050505050565b6000613346828b613033565b9150613352828a613033565b915061335e8289613033565b915061336a8288613033565b91506133768287613033565b91506133828286613033565b915061338e8285613033565b915061339a8284612fcc565b6001820191508190509998505050505050505050565b60006133bc828e613033565b91506133c8828d613033565b91506133d4828c613033565b91506133e0828b613033565b91506133ec828a613033565b91506133f88289613033565b91506134048288613033565b91506134108287613033565b915061341c8286613033565b91506134288285613033565b91506134348284613033565b91508190509c9b505050505050505050505050565b6000613455828f613033565b9150613461828e613033565b915061346d828d613033565b9150613479828c613033565b9150613485828b613033565b9150613491828a613033565b915061349d8289613033565b91506134a98288613033565b91506134b58287613033565b91506134c18286613033565b91506134cd8285613033565b91506134d98284613033565b91508190509d9c50505050505050505050505050565b60006134fb8285613033565b9150613507828461307b565b6004820191508190509392505050565b60006135238284613064565b60028201915081905092915050565b600061353e828461307b565b60048201915081905092915050565b60006135598284613092565b60088201915081905092915050565b600061357482846130a9565b915081905092915050565b600061358b82856130a9565b91506135978284613033565b91508190509392505050565b60006135af82846130da565b60148201915081905092915050565b60006135ca82846130f1565b60028201915081905092915050565b60006135e58284613108565b60208201915081905092915050565b6000613600828461311f565b60048201915081905092915050565b600061361b8284613136565b60088201915081905092915050565b6000613636828461314d565b60018201915081905092915050565b6000613651828561314d565b60018201915061366182846130f1565b6002820191508190509392505050565b600061367d828561314d565b60018201915061368d828461311f565b6004820191508190509392505050565b60006136a9828561314d565b6001820191506136b98284613136565b6008820191508190509392505050565b600060208201905081810360008301526136e38184612ffa565b905092915050565b6000604051905081810181811067ffffffffffffffff8211171561371257613711613b33565b5b8060405250919050565b600067ffffffffffffffff82111561373757613736613b33565b5b602082029050602081019050919050565b600067ffffffffffffffff82111561376357613762613b33565b5b602082029050602081019050919050565b600067ffffffffffffffff82111561378f5761378e613b33565b5b602082029050602081019050919050565b600067ffffffffffffffff8211156137bb576137ba613b33565b5b602082029050602081019050919050565b600067ffffffffffffffff8211156137e7576137e6613b33565b5b602082029050602081019050919050565b600067ffffffffffffffff82111561381357613812613b33565b5b602082029050602081019050919050565b600067ffffffffffffffff82111561383f5761383e613b33565b5b602082029050602081019050919050565b600067ffffffffffffffff82111561386b5761386a613b33565b5b602082029050602081019050919050565b600067ffffffffffffffff82111561389757613896613b33565b5b601f19601f8301169050602081019050919050565b600067ffffffffffffffff8211156138c7576138c6613b33565b5b601f19601f8301169050602081019050919050565b600081519050919050565b600081519050919050565b600082825260208201905092915050565b600081905092915050565b600081905092915050565b6000613924826139c4565b9050919050565b60008115159050919050565b60007fff0000000000000000000000000000000000000000000000000000000000000082169050919050565b60007fffffffffffffffffffffffffffffffffffffffff00000000000000000000000082169050919050565b60008160010b9050919050565b60008160030b9050919050565b60008160070b9050919050565b600061ffff82169050919050565b600073ffffffffffffffffffffffffffffffffffffffff82169050919050565b6000819050919050565b600063ffffffff82169050919050565b600067ffffffffffffffff82169050919050565b600060ff82169050919050565b82818337600083830152505050565b60005b83811015613a4c578082015181840152602081019050613a31565b83811115613a5b576000848401525b50505050565b6000613a6c82613ae1565b9050919050565b6000613a7e82613b21565b9050919050565b6000819050919050565b6000819050919050565b6000613aa482613b60565b9050919050565b6000613ab682613b53565b9050919050565b6000613ac882613b46565b9050919050565b6000613ada82613b60565b9050919050565b6000613aec82613b7a565b9050919050565b6000819050919050565b6000613b0882613b53565b9050919050565b6000613b1a82613b46565b9050919050565b6000613b2c82613b6d565b9050919050565bfe5b6000601f19601f8301169050919050565b60008160c01b9050919050565b60008160e01b9050919050565b60008160f01b9050919050565b60008160f81b9050919050565b60008160601b9050919050565b613b9081613919565b8114613b9b57600080fd5b50565b613ba78161392b565b8114613bb257600080fd5b50565b613bbe81613963565b8114613bc957600080fd5b50565b613bd58161398f565b8114613be057600080fd5b50565b613bec8161399c565b8114613bf757600080fd5b50565b613c03816139a9565b8114613c0e57600080fd5b50565b613c1a816139b6565b8114613c2557600080fd5b50565b613c31816139c4565b8114613c3c57600080fd5b50565b613c48816139e4565b8114613c5357600080fd5b50565b613c5f816139ee565b8114613c6a57600080fd5b50565b613c76816139fe565b8114613c8157600080fd5b50565b613c8d81613a12565b8114613c9857600080fd5b5056fea264697066735822122060dbbc1af2b624d438021a79f26a503741d7982586099da5946fd5e54114bdbb64736f6c63430007060033",
			"opcodes": "PUSH1 0x80 PUSH1 0x40 MSTORE CALLVALUE DUP1 ISZERO PUSH2 0x10 JUMPI PUSH1 0x0 DUP1 REVERT JUMPDEST POP PUSH2 0x3CD1 DUP1 PUSH2 0x20 PUSH1 0x0 CODECOPY PUSH1 0x0 RETURN INVALID PUSH1 0x80 PUSH1 0x40 MSTORE CALLVALUE DUP1 ISZERO PUSH2 0x10 JUMPI PUSH1 0x0 DUP1 REVERT JUMPDEST POP PUSH1 0x4 CALLDATASIZE LT PUSH2 0x21B JUMPI PUSH1 0x0 CALLDATALOAD PUSH1 0xE0 SHR DUP1 PUSH4 0x9D487B47 GT PUSH2 0x125 JUMPI DUP1 PUSH4 0xCFA84DE9 GT PUSH2 0xAD JUMPI DUP1 PUSH4 0xED7115D5 GT PUSH2 0x7C JUMPI DUP1 PUSH4 0xED7115D5 EQ PUSH2 0x7F0 JUMPI DUP1 PUSH4 0xF20FB830 EQ PUSH2 0x820 JUMPI DUP1 PUSH4 0xF8217295 EQ PUSH2 0x850 JUMPI DUP1 PUSH4 0xF8BD7725 EQ PUSH2 0x880 JUMPI DUP1 PUSH4 0xFEF5906A EQ PUSH2 0x8B0 JUMPI PUSH2 0x21B JUMP JUMPDEST DUP1 PUSH4 0xCFA84DE9 EQ PUSH2 0x730 JUMPI DUP1 PUSH4 0xD945255F EQ PUSH2 0x760 JUMPI DUP1 PUSH4 0xDAD935A1 EQ PUSH2 0x790 JUMPI DUP1 PUSH4 0xE4CBA547 EQ PUSH2 0x7C0 JUMPI PUSH2 0x21B JUMP JUMPDEST DUP1 PUSH4 0xBA4B1D01 GT PUSH2 0xF4 JUMPI DUP1 PUSH4 0xBA4B1D01 EQ PUSH2 0x640 JUMPI DUP1 PUSH4 0xBCDDEDA4 EQ PUSH2 0x670 JUMPI DUP1 PUSH4 0xC7343E2C EQ PUSH2 0x6A0 JUMPI DUP1 PUSH4 0xC93E58C8 EQ PUSH2 0x6D0 JUMPI DUP1 PUSH4 0xCECB3043 EQ PUSH2 0x700 JUMPI PUSH2 0x21B JUMP JUMPDEST DUP1 PUSH4 0x9D487B47 EQ PUSH2 0x580 JUMPI DUP1 PUSH4 0xAF832F09 EQ PUSH2 0x5B0 JUMPI DUP1 PUSH4 0xB3A895F6 EQ PUSH2 0x5E0 JUMPI DUP1 PUSH4 0xB9EDC795 EQ PUSH2 0x610 JUMPI PUSH2 0x21B JUMP JUMPDEST DUP1 PUSH4 0x44C789D1 GT PUSH2 0x1A8 JUMPI DUP1 PUSH4 0x6127B4FF GT PUSH2 0x177 JUMPI DUP1 PUSH4 0x6127B4FF EQ PUSH2 0x490 JUMPI DUP1 PUSH4 0x68B4AE81 EQ PUSH2 0x4C0 JUMPI DUP1 PUSH4 0x7A635645 EQ PUSH2 0x4F0 JUMPI DUP1 PUSH4 0x8E619E20 EQ PUSH2 0x520 JUMPI DUP1 PUSH4 0x941BB060 EQ PUSH2 0x550 JUMPI PUSH2 0x21B JUMP JUMPDEST DUP1 PUSH4 0x44C789D1 EQ PUSH2 0x3D0 JUMPI DUP1 PUSH4 0x46256007 EQ PUSH2 0x400 JUMPI DUP1 PUSH4 0x463276C3 EQ PUSH2 0x430 JUMPI DUP1 PUSH4 0x485153EB EQ PUSH2 0x460 JUMPI PUSH2 0x21B JUMP JUMPDEST DUP1 PUSH4 0x122E5AE7 GT PUSH2 0x1EF JUMPI DUP1 PUSH4 0x122E5AE7 EQ PUSH2 0x2E0 JUMPI DUP1 PUSH4 0x19A7C17B EQ PUSH2 0x310 JUMPI DUP1 PUSH4 0x20105C8A EQ PUSH2 0x340 JUMPI DUP1 PUSH4 0x241D23B2 EQ PUSH2 0x370 JUMPI DUP1 PUSH4 0x29688DF3 EQ PUSH2 0x3A0 JUMPI PUSH2 0x21B JUMP JUMPDEST DUP1 PUSH3 0x9C8152 EQ PUSH2 0x220 JUMPI DUP1 PUSH4 0x49E3490 EQ PUSH2 0x250 JUMPI DUP1 PUSH4 0x8EA154C EQ PUSH2 0x280 JUMPI DUP1 PUSH4 0x1222D81A EQ PUSH2 0x2B0 JUMPI JUMPDEST PUSH1 0x0 DUP1 REVERT JUMPDEST PUSH2 0x23A PUSH1 0x4 DUP1 CALLDATASIZE SUB DUP2 ADD SWAP1 PUSH2 0x235 SWAP2 SWAP1 PUSH2 0x2A9E JUMP JUMPDEST PUSH2 0x8E0 JUMP JUMPDEST PUSH1 0x40 MLOAD PUSH2 0x247 SWAP2 SWAP1 PUSH2 0x36C9 JUMP JUMPDEST PUSH1 0x40 MLOAD DUP1 SWAP2 SUB SWAP1 RETURN JUMPDEST PUSH2 0x26A PUSH1 0x4 DUP1 CALLDATASIZE SUB DUP2 ADD SWAP1 PUSH2 0x265 SWAP2 SWAP1 PUSH2 0x2959 JUMP JUMPDEST PUSH2 0x909 JUMP JUMPDEST PUSH1 0x40 MLOAD PUSH2 0x277 SWAP2 SWAP1 PUSH2 0x36C9 JUMP JUMPDEST PUSH1 0x40 MLOAD DUP1 SWAP2 SUB SWAP1 RETURN JUMPDEST PUSH2 0x29A PUSH1 0x4 DUP1 CALLDATASIZE SUB DUP2 ADD SWAP1 PUSH2 0x295 SWAP2 SWAP1 PUSH2 0x2D80 JUMP JUMPDEST PUSH2 0x97A JUMP JUMPDEST PUSH1 0x40 MLOAD PUSH2 0x2A7 SWAP2 SWAP1 PUSH2 0x36C9 JUMP JUMPDEST PUSH1 0x40 MLOAD DUP1 SWAP2 SUB SWAP1 RETURN JUMPDEST PUSH2 0x2CA PUSH1 0x4 DUP1 CALLDATASIZE SUB DUP2 ADD SWAP1 PUSH2 0x2C5 SWAP2 SWAP1 PUSH2 0x2AF0 JUMP JUMPDEST PUSH2 0xA3E JUMP JUMPDEST PUSH1 0x40 MLOAD PUSH2 0x2D7 SWAP2 SWAP1 PUSH2 0x36C9 JUMP JUMPDEST PUSH1 0x40 MLOAD DUP1 SWAP2 SUB SWAP1 RETURN JUMPDEST PUSH2 0x2FA PUSH1 0x4 DUP1 CALLDATASIZE SUB DUP2 ADD SWAP1 PUSH2 0x2F5 SWAP2 SWAP1 PUSH2 0x2F4C JUMP JUMPDEST PUSH2 0xB0F JUMP JUMPDEST PUSH1 0x40 MLOAD PUSH2 0x307 SWAP2 SWAP1 PUSH2 0x36C9 JUMP JUMPDEST PUSH1 0x40 MLOAD DUP1 SWAP2 SUB SWAP1 RETURN JUMPDEST PUSH2 0x32A PUSH1 0x4 DUP1 CALLDATASIZE SUB DUP2 ADD SWAP1 PUSH2 0x325 SWAP2 SWAP1 PUSH2 0x2A5D JUMP JUMPDEST PUSH2 0xB46 JUMP JUMPDEST PUSH1 0x40 MLOAD PUSH2 0x337 SWAP2 SWAP1 PUSH2 0x36C9 JUMP JUMPDEST PUSH1 0x40 MLOAD DUP1 SWAP2 SUB SWAP1 RETURN JUMPDEST PUSH2 0x35A PUSH1 0x4 DUP1 CALLDATASIZE SUB DUP2 ADD SWAP1 PUSH2 0x355 SWAP2 SWAP1 PUSH2 0x2DC1 JUMP JUMPDEST PUSH2 0xBD6 JUMP JUMPDEST PUSH1 0x40 MLOAD PUSH2 0x367 SWAP2 SWAP1 PUSH2 0x36C9 JUMP JUMPDEST PUSH1 0x40 MLOAD DUP1 SWAP2 SUB SWAP1 RETURN JUMPDEST PUSH2 0x38A PUSH1 0x4 DUP1 CALLDATASIZE SUB DUP2 ADD SWAP1 PUSH2 0x385 SWAP2 SWAP1 PUSH2 0x286D JUMP JUMPDEST PUSH2 0xC5F JUMP JUMPDEST PUSH1 0x40 MLOAD PUSH2 0x397 SWAP2 SWAP1 PUSH2 0x36C9 JUMP JUMPDEST PUSH1 0x40 MLOAD DUP1 SWAP2 SUB SWAP1 RETURN JUMPDEST PUSH2 0x3BA PUSH1 0x4 DUP1 CALLDATASIZE SUB DUP2 ADD SWAP1 PUSH2 0x3B5 SWAP2 SWAP1 PUSH2 0x2EA7 JUMP JUMPDEST PUSH2 0xC90 JUMP JUMPDEST PUSH1 0x40 MLOAD PUSH2 0x3C7 SWAP2 SWAP1 PUSH2 0x36C9 JUMP JUMPDEST PUSH1 0x40 MLOAD DUP1 SWAP2 SUB SWAP1 RETURN JUMPDEST PUSH2 0x3EA PUSH1 0x4 DUP1 CALLDATASIZE SUB DUP2 ADD SWAP1 PUSH2 0x3E5 SWAP2 SWAP1 PUSH2 0x2D3F JUMP JUMPDEST PUSH2 0xCD3 JUMP JUMPDEST PUSH1 0x40 MLOAD PUSH2 0x3F7 SWAP2 SWAP1 PUSH2 0x36C9 JUMP JUMPDEST PUSH1 0x40 MLOAD DUP1 SWAP2 SUB SWAP1 RETURN JUMPDEST PUSH2 0x41A PUSH1 0x4 DUP1 CALLDATASIZE SUB DUP2 ADD SWAP1 PUSH2 0x415 SWAP2 SWAP1 PUSH2 0x2B31 JUMP JUMPDEST PUSH2 0xD0E JUMP JUMPDEST PUSH1 0x40 MLOAD PUSH2 0x427 SWAP2 SWAP1 PUSH2 0x36C9 JUMP JUMPDEST PUSH1 0x40 MLOAD DUP1 SWAP2 SUB SWAP1 RETURN JUMPDEST PUSH2 0x44A PUSH1 0x4 DUP1 CALLDATASIZE SUB DUP2 ADD SWAP1 PUSH2 0x445 SWAP2 SWAP1 PUSH2 0x2AC7 JUMP JUMPDEST PUSH2 0xD45 JUMP JUMPDEST PUSH1 0x40 MLOAD PUSH2 0x457 SWAP2 SWAP1 PUSH2 0x36C9 JUMP JUMPDEST PUSH1 0x40 MLOAD DUP1 SWAP2 SUB SWAP1 RETURN JUMPDEST PUSH2 0x47A PUSH1 0x4 DUP1 CALLDATASIZE SUB DUP2 ADD SWAP1 PUSH2 0x475 SWAP2 SWAP1 PUSH2 0x2CD5 JUMP JUMPDEST PUSH2 0xD6E JUMP JUMPDEST PUSH1 0x40 MLOAD PUSH2 0x487 SWAP2 SWAP1 PUSH2 0x36C9 JUMP JUMPDEST PUSH1 0x40 MLOAD DUP1 SWAP2 SUB SWAP1 RETURN JUMPDEST PUSH2 0x4AA PUSH1 0x4 DUP1 CALLDATASIZE SUB DUP2 ADD SWAP1 PUSH2 0x4A5 SWAP2 SWAP1 PUSH2 0x2F75 JUMP JUMPDEST PUSH2 0xEBB JUMP JUMPDEST PUSH1 0x40 MLOAD PUSH2 0x4B7 SWAP2 SWAP1 PUSH2 0x36C9 JUMP JUMPDEST PUSH1 0x40 MLOAD DUP1 SWAP2 SUB SWAP1 RETURN JUMPDEST PUSH2 0x4DA PUSH1 0x4 DUP1 CALLDATASIZE SUB DUP2 ADD SWAP1 PUSH2 0x4D5 SWAP2 SWAP1 PUSH2 0x2BAC JUMP JUMPDEST PUSH2 0xEF2 JUMP JUMPDEST PUSH1 0x40 MLOAD PUSH2 0x4E7 SWAP2 SWAP1 PUSH2 0x36C9 JUMP JUMPDEST PUSH1 0x40 MLOAD DUP1 SWAP2 SUB SWAP1 RETURN JUMPDEST PUSH2 0x50A PUSH1 0x4 DUP1 CALLDATASIZE SUB DUP2 ADD SWAP1 PUSH2 0x505 SWAP2 SWAP1 PUSH2 0x29DB JUMP JUMPDEST PUSH2 0xF1B JUMP JUMPDEST PUSH1 0x40 MLOAD PUSH2 0x517 SWAP2 SWAP1 PUSH2 0x36C9 JUMP JUMPDEST PUSH1 0x40 MLOAD DUP1 SWAP2 SUB SWAP1 RETURN JUMPDEST PUSH2 0x53A PUSH1 0x4 DUP1 CALLDATASIZE SUB DUP2 ADD SWAP1 PUSH2 0x535 SWAP2 SWAP1 PUSH2 0x2A1C JUMP JUMPDEST PUSH2 0xF8C JUMP JUMPDEST PUSH1 0x40 MLOAD PUSH2 0x547 SWAP2 SWAP1 PUSH2 0x36C9 JUMP JUMPDEST PUSH1 0x40 MLOAD DUP1 SWAP2 SUB SWAP1 RETURN JUMPDEST PUSH2 0x56A PUSH1 0x4 DUP1 CALLDATASIZE SUB DUP2 ADD SWAP1 PUSH2 0x565 SWAP2 SWAP1 PUSH2 0x2918 JUMP JUMPDEST PUSH2 0xFFD JUMP JUMPDEST PUSH1 0x40 MLOAD PUSH2 0x577 SWAP2 SWAP1 PUSH2 0x36C9 JUMP JUMPDEST PUSH1 0x40 MLOAD DUP1 SWAP2 SUB SWAP1 RETURN JUMPDEST PUSH2 0x59A PUSH1 0x4 DUP1 CALLDATASIZE SUB DUP2 ADD SWAP1 PUSH2 0x595 SWAP2 SWAP1 PUSH2 0x2896 JUMP JUMPDEST PUSH2 0x106E JUMP JUMPDEST PUSH1 0x40 MLOAD PUSH2 0x5A7 SWAP2 SWAP1 PUSH2 0x36C9 JUMP JUMPDEST PUSH1 0x40 MLOAD DUP1 SWAP2 SUB SWAP1 RETURN JUMPDEST PUSH2 0x5CA PUSH1 0x4 DUP1 CALLDATASIZE SUB DUP2 ADD SWAP1 PUSH2 0x5C5 SWAP2 SWAP1 PUSH2 0x2B83 JUMP JUMPDEST PUSH2 0x10D7 JUMP JUMPDEST PUSH1 0x40 MLOAD PUSH2 0x5D7 SWAP2 SWAP1 PUSH2 0x36C9 JUMP JUMPDEST PUSH1 0x40 MLOAD DUP1 SWAP2 SUB SWAP1 RETURN JUMPDEST PUSH2 0x5FA PUSH1 0x4 DUP1 CALLDATASIZE SUB DUP2 ADD SWAP1 PUSH2 0x5F5 SWAP2 SWAP1 PUSH2 0x2EFA JUMP JUMPDEST PUSH2 0x110E JUMP JUMPDEST PUSH1 0x40 MLOAD PUSH2 0x607 SWAP2 SWAP1 PUSH2 0x36C9 JUMP JUMPDEST PUSH1 0x40 MLOAD DUP1 SWAP2 SUB SWAP1 RETURN JUMPDEST PUSH2 0x62A PUSH1 0x4 DUP1 CALLDATASIZE SUB DUP2 ADD SWAP1 PUSH2 0x625 SWAP2 SWAP1 PUSH2 0x2E3D JUMP JUMPDEST PUSH2 0x1196 JUMP JUMPDEST PUSH1 0x40 MLOAD PUSH2 0x637 SWAP2 SWAP1 PUSH2 0x36C9 JUMP JUMPDEST PUSH1 0x40 MLOAD DUP1 SWAP2 SUB SWAP1 RETURN JUMPDEST PUSH2 0x65A PUSH1 0x4 DUP1 CALLDATASIZE SUB DUP2 ADD SWAP1 PUSH2 0x655 SWAP2 SWAP1 PUSH2 0x299A JUMP JUMPDEST PUSH2 0x11D9 JUMP JUMPDEST PUSH1 0x40 MLOAD PUSH2 0x667 SWAP2 SWAP1 PUSH2 0x36C9 JUMP JUMPDEST PUSH1 0x40 MLOAD DUP1 SWAP2 SUB SWAP1 RETURN JUMPDEST PUSH2 0x68A PUSH1 0x4 DUP1 CALLDATASIZE SUB DUP2 ADD SWAP1 PUSH2 0x685 SWAP2 SWAP1 PUSH2 0x2E66 JUMP JUMPDEST PUSH2 0x124A JUMP JUMPDEST PUSH1 0x40 MLOAD PUSH2 0x697 SWAP2 SWAP1 PUSH2 0x36C9 JUMP JUMPDEST PUSH1 0x40 MLOAD DUP1 SWAP2 SUB SWAP1 RETURN JUMPDEST PUSH2 0x6BA PUSH1 0x4 DUP1 CALLDATASIZE SUB DUP2 ADD SWAP1 PUSH2 0x6B5 SWAP2 SWAP1 PUSH2 0x2C94 JUMP JUMPDEST PUSH2 0x128D JUMP JUMPDEST PUSH1 0x40 MLOAD PUSH2 0x6C7 SWAP2 SWAP1 PUSH2 0x36C9 JUMP JUMPDEST PUSH1 0x40 MLOAD DUP1 SWAP2 SUB SWAP1 RETURN JUMPDEST PUSH2 0x6EA PUSH1 0x4 DUP1 CALLDATASIZE SUB DUP2 ADD SWAP1 PUSH2 0x6E5 SWAP2 SWAP1 PUSH2 0x2BED JUMP JUMPDEST PUSH2 0x1406 JUMP JUMPDEST PUSH1 0x40 MLOAD PUSH2 0x6F7 SWAP2 SWAP1 PUSH2 0x36C9 JUMP JUMPDEST PUSH1 0x40 MLOAD DUP1 SWAP2 SUB SWAP1 RETURN JUMPDEST PUSH2 0x71A PUSH1 0x4 DUP1 CALLDATASIZE SUB DUP2 ADD SWAP1 PUSH2 0x715 SWAP2 SWAP1 PUSH2 0x2F23 JUMP JUMPDEST PUSH2 0x145B JUMP JUMPDEST PUSH1 0x40 MLOAD PUSH2 0x727 SWAP2 SWAP1 PUSH2 0x36C9 JUMP JUMPDEST PUSH1 0x40 MLOAD DUP1 SWAP2 SUB SWAP1 RETURN JUMPDEST PUSH2 0x74A PUSH1 0x4 DUP1 CALLDATASIZE SUB DUP2 ADD SWAP1 PUSH2 0x745 SWAP2 SWAP1 PUSH2 0x2D16 JUMP JUMPDEST PUSH2 0x1492 JUMP JUMPDEST PUSH1 0x40 MLOAD PUSH2 0x757 SWAP2 SWAP1 PUSH2 0x36C9 JUMP JUMPDEST PUSH1 0x40 MLOAD DUP1 SWAP2 SUB SWAP1 RETURN JUMPDEST PUSH2 0x77A PUSH1 0x4 DUP1 CALLDATASIZE SUB DUP2 ADD SWAP1 PUSH2 0x775 SWAP2 SWAP1 PUSH2 0x2E14 JUMP JUMPDEST PUSH2 0x14DF JUMP JUMPDEST PUSH1 0x40 MLOAD PUSH2 0x787 SWAP2 SWAP1 PUSH2 0x36C9 JUMP JUMPDEST PUSH1 0x40 MLOAD DUP1 SWAP2 SUB SWAP1 RETURN JUMPDEST PUSH2 0x7AA PUSH1 0x4 DUP1 CALLDATASIZE SUB DUP2 ADD SWAP1 PUSH2 0x7A5 SWAP2 SWAP1 PUSH2 0x2EFA JUMP JUMPDEST PUSH2 0x152D JUMP JUMPDEST PUSH1 0x40 MLOAD PUSH2 0x7B7 SWAP2 SWAP1 PUSH2 0x36C9 JUMP JUMPDEST PUSH1 0x40 MLOAD DUP1 SWAP2 SUB SWAP1 RETURN JUMPDEST PUSH2 0x7DA PUSH1 0x4 DUP1 CALLDATASIZE SUB DUP2 ADD SWAP1 PUSH2 0x7D5 SWAP2 SWAP1 PUSH2 0x2ED1 JUMP JUMPDEST PUSH2 0x15FC JUMP JUMPDEST PUSH1 0x40 MLOAD PUSH2 0x7E7 SWAP2 SWAP1 PUSH2 0x36C9 JUMP JUMPDEST PUSH1 0x40 MLOAD DUP1 SWAP2 SUB SWAP1 RETURN JUMPDEST PUSH2 0x80A PUSH1 0x4 DUP1 CALLDATASIZE SUB DUP2 ADD SWAP1 PUSH2 0x805 SWAP2 SWAP1 PUSH2 0x286D JUMP JUMPDEST PUSH2 0x1633 JUMP JUMPDEST PUSH1 0x40 MLOAD PUSH2 0x817 SWAP2 SWAP1 PUSH2 0x36C9 JUMP JUMPDEST PUSH1 0x40 MLOAD DUP1 SWAP2 SUB SWAP1 RETURN JUMPDEST PUSH2 0x83A PUSH1 0x4 DUP1 CALLDATASIZE SUB DUP2 ADD SWAP1 PUSH2 0x835 SWAP2 SWAP1 PUSH2 0x2EFA JUMP JUMPDEST PUSH2 0x1662 JUMP JUMPDEST PUSH1 0x40 MLOAD PUSH2 0x847 SWAP2 SWAP1 PUSH2 0x36C9 JUMP JUMPDEST PUSH1 0x40 MLOAD DUP1 SWAP2 SUB SWAP1 RETURN JUMPDEST PUSH2 0x86A PUSH1 0x4 DUP1 CALLDATASIZE SUB DUP2 ADD SWAP1 PUSH2 0x865 SWAP2 SWAP1 PUSH2 0x28D7 JUMP JUMPDEST PUSH2 0x1699 JUMP JUMPDEST PUSH1 0x40 MLOAD PUSH2 0x877 SWAP2 SWAP1 PUSH2 0x36C9 JUMP JUMPDEST PUSH1 0x40 MLOAD DUP1 SWAP2 SUB SWAP1 RETURN JUMPDEST PUSH2 0x89A PUSH1 0x4 DUP1 CALLDATASIZE SUB DUP2 ADD SWAP1 PUSH2 0x895 SWAP2 SWAP1 PUSH2 0x2DEA JUMP JUMPDEST PUSH2 0x1729 JUMP JUMPDEST PUSH1 0x40 MLOAD PUSH2 0x8A7 SWAP2 SWAP1 PUSH2 0x36C9 JUMP JUMPDEST PUSH1 0x40 MLOAD DUP1 SWAP2 SUB SWAP1 RETURN JUMPDEST PUSH2 0x8CA PUSH1 0x4 DUP1 CALLDATASIZE SUB DUP2 ADD SWAP1 PUSH2 0x8C5 SWAP2 SWAP1 PUSH2 0x2B5A JUMP JUMPDEST PUSH2 0x187C JUMP JUMPDEST PUSH1 0x40 MLOAD PUSH2 0x8D7 SWAP2 SWAP1 PUSH2 0x36C9 JUMP JUMPDEST PUSH1 0x40 MLOAD DUP1 SWAP2 SUB SWAP1 RETURN JUMPDEST PUSH1 0x60 DUP2 PUSH1 0x40 MLOAD PUSH1 0x20 ADD PUSH2 0x8F3 SWAP2 SWAP1 PUSH2 0x317F JUMP JUMPDEST PUSH1 0x40 MLOAD PUSH1 0x20 DUP2 DUP4 SUB SUB DUP2 MSTORE SWAP1 PUSH1 0x40 MSTORE SWAP1 POP SWAP2 SWAP1 POP JUMP JUMPDEST PUSH1 0x60 DUP1 PUSH2 0x916 DUP4 MLOAD PUSH2 0x1662 JUMP JUMPDEST SWAP1 POP PUSH1 0x0 JUMPDEST DUP4 MLOAD DUP2 LT ISZERO PUSH2 0x970 JUMPI DUP2 PUSH2 0x941 DUP6 DUP4 DUP2 MLOAD DUP2 LT PUSH2 0x934 JUMPI INVALID JUMPDEST PUSH1 0x20 MUL PUSH1 0x20 ADD ADD MLOAD PUSH2 0xCD3 JUMP JUMPDEST PUSH1 0x40 MLOAD PUSH1 0x20 ADD PUSH2 0x952 SWAP3 SWAP2 SWAP1 PUSH2 0x31DD JUMP JUMPDEST PUSH1 0x40 MLOAD PUSH1 0x20 DUP2 DUP4 SUB SUB DUP2 MSTORE SWAP1 PUSH1 0x40 MSTORE SWAP2 POP DUP1 DUP1 PUSH1 0x1 ADD SWAP2 POP POP PUSH2 0x91B JUMP JUMPDEST POP DUP1 SWAP2 POP POP SWAP2 SWAP1 POP JUMP JUMPDEST PUSH1 0x60 PUSH2 0x989 DUP3 PUSH1 0x0 ADD MLOAD PUSH2 0x145B JUMP JUMPDEST PUSH2 0x996 DUP4 PUSH1 0x20 ADD MLOAD PUSH2 0x14DF JUMP JUMPDEST PUSH2 0x9A3 DUP5 PUSH1 0x40 ADD MLOAD PUSH2 0x145B JUMP JUMPDEST PUSH2 0x9B0 DUP6 PUSH1 0x60 ADD MLOAD PUSH2 0x128D JUMP JUMPDEST PUSH2 0x9BD DUP7 PUSH1 0x80 ADD MLOAD PUSH2 0x1662 JUMP JUMPDEST PUSH2 0x9CA DUP8 PUSH1 0xA0 ADD MLOAD PUSH2 0x10D7 JUMP JUMPDEST PUSH2 0x9D7 DUP9 PUSH1 0xC0 ADD MLOAD PUSH2 0x1662 JUMP JUMPDEST PUSH2 0x9E4 DUP10 PUSH1 0xE0 ADD MLOAD PUSH2 0xB0F JUMP JUMPDEST PUSH2 0x9F2 DUP11 PUSH2 0x100 ADD MLOAD PUSH2 0xF1B JUMP JUMPDEST PUSH2 0xA00 DUP12 PUSH2 0x120 ADD MLOAD PUSH2 0xF8C JUMP JUMPDEST PUSH2 0xA0E DUP13 PUSH2 0x140 ADD MLOAD PUSH2 0x909 JUMP JUMPDEST PUSH1 0x40 MLOAD PUSH1 0x20 ADD PUSH2 0xA28 SWAP12 SWAP11 SWAP10 SWAP9 SWAP8 SWAP7 SWAP6 SWAP5 SWAP4 SWAP3 SWAP2 SWAP1 PUSH2 0x33B0 JUMP JUMPDEST PUSH1 0x40 MLOAD PUSH1 0x20 DUP2 DUP4 SUB SUB DUP2 MSTORE SWAP1 PUSH1 0x40 MSTORE SWAP1 POP SWAP2 SWAP1 POP JUMP JUMPDEST PUSH1 0x60 PUSH1 0x0 DUP3 MLOAD SWAP1 POP PUSH1 0x0 DUP2 PUSH8 0xFFFFFFFFFFFFFFFF DUP2 GT DUP1 ISZERO PUSH2 0xA5F JUMPI PUSH1 0x0 DUP1 REVERT JUMPDEST POP PUSH1 0x40 MLOAD SWAP1 DUP1 DUP3 MSTORE DUP1 PUSH1 0x1F ADD PUSH1 0x1F NOT AND PUSH1 0x20 ADD DUP3 ADD PUSH1 0x40 MSTORE DUP1 ISZERO PUSH2 0xA92 JUMPI DUP2 PUSH1 0x20 ADD PUSH1 0x1 DUP3 MUL DUP1 CALLDATASIZE DUP4 CALLDATACOPY DUP1 DUP3 ADD SWAP2 POP POP SWAP1 POP JUMPDEST POP SWAP1 POP PUSH1 0x0 JUMPDEST DUP3 DUP2 LT ISZERO PUSH2 0xB04 JUMPI DUP5 PUSH1 0x1 DUP3 DUP6 SUB SUB DUP2 MLOAD DUP2 LT PUSH2 0xAB1 JUMPI INVALID JUMPDEST PUSH1 0x20 ADD ADD MLOAD PUSH1 0xF8 SHR PUSH1 0xF8 SHL DUP3 DUP3 DUP2 MLOAD DUP2 LT PUSH2 0xAC8 JUMPI INVALID JUMPDEST PUSH1 0x20 ADD ADD SWAP1 PUSH31 0xFFFFFFFFFFFFFFFFFFFFFFFFFFFFFFFFFFFFFFFFFFFFFFFFFFFFFFFFFFFFFF NOT AND SWAP1 DUP2 PUSH1 0x0 BYTE SWAP1 MSTORE8 POP DUP1 DUP1 PUSH1 0x1 ADD SWAP2 POP POP PUSH2 0xA98 JUMP JUMPDEST DUP2 SWAP4 POP POP POP POP SWAP2 SWAP1 POP JUMP JUMPDEST PUSH1 0x60 PUSH1 0x0 DUP3 PUSH1 0x40 MLOAD PUSH1 0x20 ADD PUSH2 0xB24 SWAP2 SWAP1 PUSH2 0x360F JUMP JUMPDEST PUSH1 0x40 MLOAD PUSH1 0x20 DUP2 DUP4 SUB SUB DUP2 MSTORE SWAP1 PUSH1 0x40 MSTORE SWAP1 POP PUSH2 0xB3E DUP2 PUSH2 0xA3E JUMP JUMPDEST SWAP2 POP POP SWAP2 SWAP1 POP JUMP JUMPDEST PUSH1 0x60 DUP1 PUSH2 0xB53 DUP4 MLOAD PUSH2 0x1662 JUMP JUMPDEST SWAP1 POP PUSH1 0x0 JUMPDEST DUP4 MLOAD DUP2 LT ISZERO PUSH2 0xBCC JUMPI DUP2 PUSH2 0xB9D DUP6 DUP4 DUP2 MLOAD DUP2 LT PUSH2 0xB71 JUMPI INVALID JUMPDEST PUSH1 0x20 MUL PUSH1 0x20 ADD ADD MLOAD PUSH1 0x40 MLOAD PUSH1 0x20 ADD PUSH2 0xB89 SWAP2 SWAP1 PUSH2 0x35A3 JUMP JUMPDEST PUSH1 0x40 MLOAD PUSH1 0x20 DUP2 DUP4 SUB SUB DUP2 MSTORE SWAP1 PUSH1 0x40 MSTORE PUSH2 0xA3E JUMP JUMPDEST PUSH1 0x40 MLOAD PUSH1 0x20 ADD PUSH2 0xBAE SWAP3 SWAP2 SWAP1 PUSH2 0x31DD JUMP JUMPDEST PUSH1 0x40 MLOAD PUSH1 0x20 DUP2 DUP4 SUB SUB DUP2 MSTORE SWAP1 PUSH1 0x40 MSTORE SWAP2 POP DUP1 DUP1 PUSH1 0x1 ADD SWAP2 POP POP PUSH2 0xB58 JUMP JUMPDEST POP DUP1 SWAP2 POP POP SWAP2 SWAP1 POP JUMP JUMPDEST PUSH1 0x60 PUSH2 0xBE5 DUP3 PUSH1 0x0 ADD MLOAD PUSH2 0xD0E JUMP JUMPDEST PUSH2 0xBF2 DUP4 PUSH1 0x20 ADD MLOAD PUSH2 0xD0E JUMP JUMPDEST PUSH2 0xBFF DUP5 PUSH1 0x40 ADD MLOAD PUSH2 0x1633 JUMP JUMPDEST PUSH2 0xC0C DUP6 PUSH1 0x60 ADD MLOAD PUSH2 0x145B JUMP JUMPDEST PUSH2 0xC19 DUP7 PUSH1 0x80 ADD MLOAD PUSH2 0x1662 JUMP JUMPDEST PUSH2 0xC26 DUP8 PUSH1 0xA0 ADD MLOAD PUSH2 0x1662 JUMP JUMPDEST PUSH2 0xC33 DUP9 PUSH1 0xC0 ADD MLOAD PUSH2 0x1662 JUMP JUMPDEST PUSH1 0x40 MLOAD PUSH1 0x20 ADD PUSH2 0xC49 SWAP8 SWAP7 SWAP6 SWAP5 SWAP4 SWAP3 SWAP2 SWAP1 PUSH2 0x32D5 JUMP JUMPDEST PUSH1 0x40 MLOAD PUSH1 0x20 DUP2 DUP4 SUB SUB DUP2 MSTORE SWAP1 PUSH1 0x40 MSTORE SWAP1 POP SWAP2 SWAP1 POP JUMP JUMPDEST PUSH1 0x60 PUSH2 0xC89 DUP3 PUSH1 0x40 MLOAD PUSH1 0x20 ADD PUSH2 0xC75 SWAP2 SWAP1 PUSH2 0x3164 JUMP JUMPDEST PUSH1 0x40 MLOAD PUSH1 0x20 DUP2 DUP4 SUB SUB DUP2 MSTORE SWAP1 PUSH1 0x40 MSTORE PUSH2 0xA3E JUMP JUMPDEST SWAP1 POP SWAP2 SWAP1 POP JUMP JUMPDEST PUSH1 0x60 PUSH2 0xC9F DUP3 PUSH1 0x0 ADD MLOAD PUSH2 0x1633 JUMP JUMPDEST PUSH2 0xCAC DUP4 PUSH1 0x20 ADD MLOAD PUSH2 0xBD6 JUMP JUMPDEST PUSH1 0x40 MLOAD PUSH1 0x20 ADD PUSH2 0xCBD SWAP3 SWAP2 SWAP1 PUSH2 0x31DD JUMP JUMPDEST PUSH1 0x40 MLOAD PUSH1 0x20 DUP2 DUP4 SUB SUB DUP2 MSTORE SWAP1 PUSH1 0x40 MSTORE SWAP1 POP SWAP2 SWAP1 POP JUMP JUMPDEST PUSH1 0x60 DUP2 PUSH1 0x0 ADD MLOAD PUSH2 0xCE7 DUP4 PUSH1 0x20 ADD MLOAD PUSH2 0x1633 JUMP JUMPDEST PUSH1 0x40 MLOAD PUSH1 0x20 ADD PUSH2 0xCF8 SWAP3 SWAP2 SWAP1 PUSH2 0x357F JUMP JUMPDEST PUSH1 0x40 MLOAD PUSH1 0x20 DUP2 DUP4 SUB SUB DUP2 MSTORE SWAP1 PUSH1 0x40 MSTORE SWAP1 POP SWAP2 SWAP1 POP JUMP JUMPDEST PUSH1 0x60 PUSH1 0x0 DUP3 PUSH1 0x40 MLOAD PUSH1 0x20 ADD PUSH2 0xD23 SWAP2 SWAP1 PUSH2 0x3517 JUMP JUMPDEST PUSH1 0x40 MLOAD PUSH1 0x20 DUP2 DUP4 SUB SUB DUP2 MSTORE SWAP1 PUSH1 0x40 MSTORE SWAP1 POP PUSH2 0xD3D DUP2 PUSH2 0xA3E JUMP JUMPDEST SWAP2 POP POP SWAP2 SWAP1 POP JUMP JUMPDEST PUSH1 0x60 DUP2 PUSH1 0x40 MLOAD PUSH1 0x20 ADD PUSH2 0xD58 SWAP2 SWAP1 PUSH2 0x319A JUMP JUMPDEST PUSH1 0x40 MLOAD PUSH1 0x20 DUP2 DUP4 SUB SUB DUP2 MSTORE SWAP1 PUSH1 0x40 MSTORE SWAP1 POP SWAP2 SWAP1 POP JUMP JUMPDEST PUSH1 0x60 PUSH1 0x0 PUSH2 0xD7F DUP4 PUSH1 0x0 ADD MLOAD PUSH2 0x145B JUMP JUMPDEST PUSH2 0xD8C DUP5 PUSH1 0x20 ADD MLOAD PUSH2 0x145B JUMP JUMPDEST PUSH2 0xD99 DUP6 PUSH1 0x40 ADD MLOAD PUSH2 0x1633 JUMP JUMPDEST PUSH2 0xDAC DUP7 PUSH1 0x60 ADD MLOAD PUSH4 0xFFFFFFFF AND PUSH2 0x110E JUMP JUMPDEST PUSH2 0xDBF DUP8 PUSH1 0x80 ADD MLOAD PUSH4 0xFFFFFFFF AND PUSH2 0x110E JUMP JUMPDEST PUSH2 0xDCC DUP9 PUSH1 0xA0 ADD MLOAD PUSH2 0x1633 JUMP JUMPDEST PUSH2 0xDD9 DUP10 PUSH1 0xC0 ADD MLOAD PUSH2 0x1633 JUMP JUMPDEST PUSH1 0x40 MLOAD PUSH1 0x20 ADD PUSH2 0xDEF SWAP8 SWAP7 SWAP6 SWAP5 SWAP4 SWAP3 SWAP2 SWAP1 PUSH2 0x32D5 JUMP JUMPDEST PUSH1 0x40 MLOAD PUSH1 0x20 DUP2 DUP4 SUB SUB DUP2 MSTORE SWAP1 PUSH1 0x40 MSTORE SWAP1 POP PUSH1 0x0 PUSH2 0xE0F DUP5 PUSH1 0xE0 ADD MLOAD PUSH2 0x145B JUMP JUMPDEST PUSH2 0xE1D DUP6 PUSH2 0x100 ADD MLOAD PUSH2 0xFFD JUMP JUMPDEST PUSH2 0xE2B DUP7 PUSH2 0x120 ADD MLOAD PUSH2 0xFFD JUMP JUMPDEST PUSH2 0xE39 DUP8 PUSH2 0x140 ADD MLOAD PUSH2 0x1662 JUMP JUMPDEST PUSH2 0xE47 DUP9 PUSH2 0x160 ADD MLOAD PUSH2 0xFFD JUMP JUMPDEST PUSH2 0xE55 DUP10 PUSH2 0x180 ADD MLOAD PUSH2 0xC5F JUMP JUMPDEST PUSH2 0xE63 DUP11 PUSH2 0x1A0 ADD MLOAD PUSH2 0x187C JUMP JUMPDEST PUSH1 0x0 PUSH1 0xF8 SHL PUSH1 0x40 MLOAD PUSH1 0x20 ADD PUSH2 0xE7F SWAP9 SWAP8 SWAP7 SWAP6 SWAP5 SWAP4 SWAP3 SWAP2 SWAP1 PUSH2 0x333A JUMP JUMPDEST PUSH1 0x40 MLOAD PUSH1 0x20 DUP2 DUP4 SUB SUB DUP2 MSTORE SWAP1 PUSH1 0x40 MSTORE SWAP1 POP DUP2 DUP2 PUSH1 0x40 MLOAD PUSH1 0x20 ADD PUSH2 0xEA3 SWAP3 SWAP2 SWAP1 PUSH2 0x31DD JUMP JUMPDEST PUSH1 0x40 MLOAD PUSH1 0x20 DUP2 DUP4 SUB SUB DUP2 MSTORE SWAP1 PUSH1 0x40 MSTORE SWAP3 POP POP POP SWAP2 SWAP1 POP JUMP JUMPDEST PUSH1 0x60 PUSH1 0x0 DUP3 PUSH1 0x40 MLOAD PUSH1 0x20 ADD PUSH2 0xED0 SWAP2 SWAP1 PUSH2 0x362A JUMP JUMPDEST PUSH1 0x40 MLOAD PUSH1 0x20 DUP2 DUP4 SUB SUB DUP2 MSTORE SWAP1 PUSH1 0x40 MSTORE SWAP1 POP PUSH2 0xEEA DUP2 PUSH2 0xA3E JUMP JUMPDEST SWAP2 POP POP SWAP2 SWAP1 POP JUMP JUMPDEST PUSH1 0x60 DUP2 PUSH1 0x40 MLOAD PUSH1 0x20 ADD PUSH2 0xF05 SWAP2 SWAP1 PUSH2 0x3568 JUMP JUMPDEST PUSH1 0x40 MLOAD PUSH1 0x20 DUP2 DUP4 SUB SUB DUP2 MSTORE SWAP1 PUSH1 0x40 MSTORE SWAP1 POP SWAP2 SWAP1 POP JUMP JUMPDEST PUSH1 0x60 DUP1 PUSH2 0xF28 DUP4 MLOAD PUSH2 0x1662 JUMP JUMPDEST SWAP1 POP PUSH1 0x0 JUMPDEST DUP4 MLOAD DUP2 LT ISZERO PUSH2 0xF82 JUMPI DUP2 PUSH2 0xF53 DUP6 DUP4 DUP2 MLOAD DUP2 LT PUSH2 0xF46 JUMPI INVALID JUMPDEST PUSH1 0x20 MUL PUSH1 0x20 ADD ADD MLOAD PUSH2 0x124A JUMP JUMPDEST PUSH1 0x40 MLOAD PUSH1 0x20 ADD PUSH2 0xF64 SWAP3 SWAP2 SWAP1 PUSH2 0x31DD JUMP JUMPDEST PUSH1 0x40 MLOAD PUSH1 0x20 DUP2 DUP4 SUB SUB DUP2 MSTORE SWAP1 PUSH1 0x40 MSTORE SWAP2 POP DUP1 DUP1 PUSH1 0x1 ADD SWAP2 POP POP PUSH2 0xF2D JUMP JUMPDEST POP DUP1 SWAP2 POP POP SWAP2 SWAP1 POP JUMP JUMPDEST PUSH1 0x60 DUP1 PUSH2 0xF99 DUP4 MLOAD PUSH2 0x1662 JUMP JUMPDEST SWAP1 POP PUSH1 0x0 JUMPDEST DUP4 MLOAD DUP2 LT ISZERO PUSH2 0xFF3 JUMPI DUP2 PUSH2 0xFC4 DUP6 DUP4 DUP2 MLOAD DUP2 LT PUSH2 0xFB7 JUMPI INVALID JUMPDEST PUSH1 0x20 MUL PUSH1 0x20 ADD ADD MLOAD PUSH2 0xC90 JUMP JUMPDEST PUSH1 0x40 MLOAD PUSH1 0x20 ADD PUSH2 0xFD5 SWAP3 SWAP2 SWAP1 PUSH2 0x31DD JUMP JUMPDEST PUSH1 0x40 MLOAD PUSH1 0x20 DUP2 DUP4 SUB SUB DUP2 MSTORE SWAP1 PUSH1 0x40 MSTORE SWAP2 POP DUP1 DUP1 PUSH1 0x1 ADD SWAP2 POP POP PUSH2 0xF9E JUMP JUMPDEST POP DUP1 SWAP2 POP POP SWAP2 SWAP1 POP JUMP JUMPDEST PUSH1 0x60 DUP1 PUSH2 0x100A DUP4 MLOAD PUSH2 0x110E JUMP JUMPDEST SWAP1 POP PUSH1 0x0 JUMPDEST DUP4 MLOAD DUP2 LT ISZERO PUSH2 0x1064 JUMPI DUP2 PUSH2 0x1035 DUP6 DUP4 DUP2 MLOAD DUP2 LT PUSH2 0x1028 JUMPI INVALID JUMPDEST PUSH1 0x20 MUL PUSH1 0x20 ADD ADD MLOAD PUSH2 0x1492 JUMP JUMPDEST PUSH1 0x40 MLOAD PUSH1 0x20 ADD PUSH2 0x1046 SWAP3 SWAP2 SWAP1 PUSH2 0x31DD JUMP JUMPDEST PUSH1 0x40 MLOAD PUSH1 0x20 DUP2 DUP4 SUB SUB DUP2 MSTORE SWAP1 PUSH1 0x40 MSTORE SWAP2 POP DUP1 DUP1 PUSH1 0x1 ADD SWAP2 POP POP PUSH2 0x100F JUMP JUMPDEST POP DUP1 SWAP2 POP POP SWAP2 SWAP1 POP JUMP JUMPDEST PUSH1 0x60 DUP1 PUSH2 0x107B DUP4 MLOAD PUSH2 0x1662 JUMP JUMPDEST SWAP1 POP PUSH1 0x0 JUMPDEST DUP4 MLOAD DUP2 LT ISZERO PUSH2 0x10CD JUMPI DUP2 DUP5 DUP3 DUP2 MLOAD DUP2 LT PUSH2 0x1096 JUMPI INVALID JUMPDEST PUSH1 0x20 MUL PUSH1 0x20 ADD ADD MLOAD PUSH1 0x40 MLOAD PUSH1 0x20 ADD PUSH2 0x10AF SWAP3 SWAP2 SWAP1 PUSH2 0x34EF JUMP JUMPDEST PUSH1 0x40 MLOAD PUSH1 0x20 DUP2 DUP4 SUB SUB DUP2 MSTORE SWAP1 PUSH1 0x40 MSTORE SWAP2 POP DUP1 DUP1 PUSH1 0x1 ADD SWAP2 POP POP PUSH2 0x1080 JUMP JUMPDEST POP DUP1 SWAP2 POP POP SWAP2 SWAP1 POP JUMP JUMPDEST PUSH1 0x60 PUSH1 0x0 DUP3 PUSH1 0x40 MLOAD PUSH1 0x20 ADD PUSH2 0x10EC SWAP2 SWAP1 PUSH2 0x354D JUMP JUMPDEST PUSH1 0x40 MLOAD PUSH1 0x20 DUP2 DUP4 SUB SUB DUP2 MSTORE SWAP1 PUSH1 0x40 MSTORE SWAP1 POP PUSH2 0x1106 DUP2 PUSH2 0xA3E JUMP JUMPDEST SWAP2 POP POP SWAP2 SWAP1 POP JUMP JUMPDEST PUSH1 0x60 PUSH1 0x0 PUSH1 0x60 PUSH1 0x0 JUMPDEST PUSH1 0x1 ISZERO PUSH2 0x1183 JUMPI PUSH1 0x0 DUP2 EQ ISZERO PUSH2 0x112E JUMPI PUSH1 0x0 PUSH2 0x1131 JUMP JUMPDEST PUSH1 0x80 JUMPDEST PUSH1 0x7F DUP7 AND OR PUSH1 0xF8 SHL SWAP3 POP DUP2 DUP4 PUSH1 0x40 MLOAD PUSH1 0x20 ADD PUSH2 0x114E SWAP3 SWAP2 SWAP1 PUSH2 0x31B5 JUMP JUMPDEST PUSH1 0x40 MLOAD PUSH1 0x20 DUP2 DUP4 SUB SUB DUP2 MSTORE SWAP1 PUSH1 0x40 MSTORE SWAP2 POP PUSH1 0x7F DUP6 GT PUSH2 0x116C JUMPI PUSH2 0x1183 JUMP JUMPDEST PUSH1 0x1 PUSH1 0x7 DUP7 SWAP1 SHR SUB SWAP5 POP DUP1 DUP1 PUSH1 0x1 ADD SWAP2 POP POP PUSH2 0x1117 JUMP JUMPDEST PUSH2 0x118C DUP3 PUSH2 0xA3E JUMP JUMPDEST SWAP4 POP POP POP POP SWAP2 SWAP1 POP JUMP JUMPDEST PUSH1 0x60 PUSH2 0x11A5 DUP3 PUSH1 0x0 ADD MLOAD PUSH2 0x1662 JUMP JUMPDEST PUSH2 0x11B2 DUP4 PUSH1 0x20 ADD MLOAD PUSH2 0x145B JUMP JUMPDEST PUSH1 0x40 MLOAD PUSH1 0x20 ADD PUSH2 0x11C3 SWAP3 SWAP2 SWAP1 PUSH2 0x31DD JUMP JUMPDEST PUSH1 0x40 MLOAD PUSH1 0x20 DUP2 DUP4 SUB SUB DUP2 MSTORE SWAP1 PUSH1 0x40 MSTORE SWAP1 POP SWAP2 SWAP1 POP JUMP JUMPDEST PUSH1 0x60 DUP1 PUSH2 0x11E6 DUP4 MLOAD PUSH2 0x152D JUMP JUMPDEST SWAP1 POP PUSH1 0x0 JUMPDEST DUP4 MLOAD DUP2 LT ISZERO PUSH2 0x1240 JUMPI DUP2 PUSH2 0x1211 DUP6 DUP4 DUP2 MLOAD DUP2 LT PUSH2 0x1204 JUMPI INVALID JUMPDEST PUSH1 0x20 MUL PUSH1 0x20 ADD ADD MLOAD PUSH2 0x1729 JUMP JUMPDEST PUSH1 0x40 MLOAD PUSH1 0x20 ADD PUSH2 0x1222 SWAP3 SWAP2 SWAP1 PUSH2 0x31DD JUMP JUMPDEST PUSH1 0x40 MLOAD PUSH1 0x20 DUP2 DUP4 SUB SUB DUP2 MSTORE SWAP1 PUSH1 0x40 MSTORE SWAP2 POP DUP1 DUP1 PUSH1 0x1 ADD SWAP2 POP POP PUSH2 0x11EB JUMP JUMPDEST POP DUP1 SWAP2 POP POP SWAP2 SWAP1 POP JUMP JUMPDEST PUSH1 0x60 PUSH2 0x1259 DUP3 PUSH1 0x0 ADD MLOAD PUSH2 0x1633 JUMP JUMPDEST PUSH2 0x1266 DUP4 PUSH1 0x20 ADD MLOAD PUSH2 0x128D JUMP JUMPDEST PUSH1 0x40 MLOAD PUSH1 0x20 ADD PUSH2 0x1277 SWAP3 SWAP2 SWAP1 PUSH2 0x31DD JUMP JUMPDEST PUSH1 0x40 MLOAD PUSH1 0x20 DUP2 DUP4 SUB SUB DUP2 MSTORE SWAP1 PUSH1 0x40 MSTORE SWAP1 POP SWAP2 SWAP1 POP JUMP JUMPDEST PUSH1 0x60 PUSH1 0x0 PUSH2 0x129E DUP4 PUSH1 0x0 ADD MLOAD PUSH2 0x15FC JUMP JUMPDEST PUSH2 0x12AB DUP5 PUSH1 0x20 ADD MLOAD PUSH2 0x15FC JUMP JUMPDEST PUSH2 0x12B8 DUP6 PUSH1 0x40 ADD MLOAD PUSH2 0x1633 JUMP JUMPDEST PUSH2 0x12C5 DUP7 PUSH1 0x60 ADD MLOAD PUSH2 0xB46 JUMP JUMPDEST PUSH2 0x12D2 DUP8 PUSH1 0x80 ADD MLOAD PUSH2 0x106E JUMP JUMPDEST PUSH2 0x12DF DUP9 PUSH1 0xA0 ADD MLOAD PUSH2 0x1699 JUMP JUMPDEST PUSH1 0x40 MLOAD PUSH1 0x20 ADD PUSH2 0x12F4 SWAP7 SWAP6 SWAP5 SWAP4 SWAP3 SWAP2 SWAP1 PUSH2 0x327D JUMP JUMPDEST PUSH1 0x40 MLOAD PUSH1 0x20 DUP2 DUP4 SUB SUB DUP2 MSTORE SWAP1 PUSH1 0x40 MSTORE SWAP1 POP PUSH1 0x0 PUSH2 0x1315 DUP5 PUSH2 0x120 ADD MLOAD PUSH2 0x10D7 JUMP JUMPDEST PUSH2 0x1323 DUP6 PUSH2 0x140 ADD MLOAD PUSH2 0x10D7 JUMP JUMPDEST PUSH2 0x1331 DUP7 PUSH2 0x160 ADD MLOAD PUSH2 0x10D7 JUMP JUMPDEST PUSH2 0x133F DUP8 PUSH2 0x180 ADD MLOAD PUSH2 0x10D7 JUMP JUMPDEST PUSH2 0x134D DUP9 PUSH2 0x1A0 ADD MLOAD PUSH2 0x1699 JUMP JUMPDEST PUSH2 0x135B DUP10 PUSH2 0x1C0 ADD MLOAD PUSH2 0x1699 JUMP JUMPDEST PUSH2 0x1369 DUP11 PUSH2 0x1E0 ADD MLOAD PUSH2 0x1699 JUMP JUMPDEST PUSH2 0x1377 DUP12 PUSH2 0x200 ADD MLOAD PUSH2 0x1699 JUMP JUMPDEST PUSH2 0x1385 DUP13 PUSH2 0x220 ADD MLOAD PUSH2 0x1699 JUMP JUMPDEST PUSH2 0x1393 DUP14 PUSH2 0x240 ADD MLOAD PUSH2 0x1699 JUMP JUMPDEST PUSH2 0x13A1 DUP15 PUSH2 0x260 ADD MLOAD PUSH2 0x1699 JUMP JUMPDEST PUSH2 0x13AF DUP16 PUSH2 0x280 ADD MLOAD PUSH2 0x106E JUMP JUMPDEST PUSH1 0x40 MLOAD PUSH1 0x20 ADD PUSH2 0x13CA SWAP13 SWAP12 SWAP11 SWAP10 SWAP9 SWAP8 SWAP7 SWAP6 SWAP5 SWAP4 SWAP3 SWAP2 SWAP1 PUSH2 0x3449 JUMP JUMPDEST PUSH1 0x40 MLOAD PUSH1 0x20 DUP2 DUP4 SUB SUB DUP2 MSTORE SWAP1 PUSH1 0x40 MSTORE SWAP1 POP DUP2 DUP2 PUSH1 0x40 MLOAD PUSH1 0x20 ADD PUSH2 0x13EE SWAP3 SWAP2 SWAP1 PUSH2 0x31DD JUMP JUMPDEST PUSH1 0x40 MLOAD PUSH1 0x20 DUP2 DUP4 SUB SUB DUP2 MSTORE SWAP1 PUSH1 0x40 MSTORE SWAP3 POP POP POP SWAP2 SWAP1 POP JUMP JUMPDEST PUSH1 0x60 PUSH2 0x1411 DUP7 PUSH2 0xEF2 JUMP JUMPDEST PUSH2 0x141A DUP7 PUSH2 0x1633 JUMP JUMPDEST PUSH2 0x1423 DUP7 PUSH2 0x10D7 JUMP JUMPDEST PUSH2 0x142C DUP7 PUSH2 0x1633 JUMP JUMPDEST DUP6 PUSH1 0x40 MLOAD PUSH1 0x20 ADD PUSH2 0x1441 SWAP6 SWAP5 SWAP4 SWAP3 SWAP2 SWAP1 PUSH2 0x3232 JUMP JUMPDEST PUSH1 0x40 MLOAD PUSH1 0x20 DUP2 DUP4 SUB SUB DUP2 MSTORE SWAP1 PUSH1 0x40 MSTORE SWAP1 POP SWAP6 SWAP5 POP POP POP POP POP JUMP JUMPDEST PUSH1 0x60 PUSH1 0x0 DUP3 PUSH1 0x40 MLOAD PUSH1 0x20 ADD PUSH2 0x1470 SWAP2 SWAP1 PUSH2 0x35F4 JUMP JUMPDEST PUSH1 0x40 MLOAD PUSH1 0x20 DUP2 DUP4 SUB SUB DUP2 MSTORE SWAP1 PUSH1 0x40 MSTORE SWAP1 POP PUSH2 0x148A DUP2 PUSH2 0xA3E JUMP JUMPDEST SWAP2 POP POP SWAP2 SWAP1 POP JUMP JUMPDEST PUSH1 0x60 PUSH2 0x14A1 DUP3 PUSH1 0x0 ADD MLOAD PUSH2 0x1633 JUMP JUMPDEST PUSH2 0x14B8 DUP4 PUSH1 0x20 ADD MLOAD PUSH8 0xFFFFFFFFFFFFFFFF AND PUSH2 0x110E JUMP JUMPDEST PUSH1 0x40 MLOAD PUSH1 0x20 ADD PUSH2 0x14C9 SWAP3 SWAP2 SWAP1 PUSH2 0x31DD JUMP JUMPDEST PUSH1 0x40 MLOAD PUSH1 0x20 DUP2 DUP4 SUB SUB DUP2 MSTORE SWAP1 PUSH1 0x40 MSTORE SWAP1 POP SWAP2 SWAP1 POP JUMP JUMPDEST PUSH1 0x60 PUSH2 0x14EE DUP3 PUSH1 0x0 ADD MLOAD PUSH2 0x145B JUMP JUMPDEST PUSH2 0x14F8 PUSH1 0x14 PUSH2 0x152D JUMP JUMPDEST PUSH2 0x1505 DUP5 PUSH1 0x20 ADD MLOAD PUSH2 0x1633 JUMP JUMPDEST PUSH1 0x40 MLOAD PUSH1 0x20 ADD PUSH2 0x1517 SWAP4 SWAP3 SWAP2 SWAP1 PUSH2 0x3201 JUMP JUMPDEST PUSH1 0x40 MLOAD PUSH1 0x20 DUP2 DUP4 SUB SUB DUP2 MSTORE SWAP1 PUSH1 0x40 MSTORE SWAP1 POP SWAP2 SWAP1 POP JUMP JUMPDEST PUSH1 0x60 DUP1 PUSH1 0xFD PUSH1 0xFF AND DUP4 LT ISZERO PUSH2 0x1563 JUMPI DUP3 PUSH1 0x40 MLOAD PUSH1 0x20 ADD PUSH2 0x154D SWAP2 SWAP1 PUSH2 0x362A JUMP JUMPDEST PUSH1 0x40 MLOAD PUSH1 0x20 DUP2 DUP4 SUB SUB DUP2 MSTORE SWAP1 PUSH1 0x40 MSTORE SWAP1 POP PUSH2 0x15F3 JUMP JUMPDEST PUSH2 0xFFFF DUP4 GT PUSH2 0x1596 JUMPI PUSH1 0xFD DUP4 PUSH1 0x40 MLOAD PUSH1 0x20 ADD PUSH2 0x1580 SWAP3 SWAP2 SWAP1 PUSH2 0x3645 JUMP JUMPDEST PUSH1 0x40 MLOAD PUSH1 0x20 DUP2 DUP4 SUB SUB DUP2 MSTORE SWAP1 PUSH1 0x40 MSTORE SWAP1 POP PUSH2 0x15F2 JUMP JUMPDEST PUSH4 0xFFFFFFFF DUP4 GT PUSH2 0x15CB JUMPI PUSH1 0xFE DUP4 PUSH1 0x40 MLOAD PUSH1 0x20 ADD PUSH2 0x15B5 SWAP3 SWAP2 SWAP1 PUSH2 0x3671 JUMP JUMPDEST PUSH1 0x40 MLOAD PUSH1 0x20 DUP2 DUP4 SUB SUB DUP2 MSTORE SWAP1 PUSH1 0x40 MSTORE SWAP1 POP PUSH2 0x15F1 JUMP JUMPDEST PUSH1 0xFF DUP4 PUSH1 0x40 MLOAD PUSH1 0x20 ADD PUSH2 0x15DF SWAP3 SWAP2 SWAP1 PUSH2 0x369D JUMP JUMPDEST PUSH1 0x40 MLOAD PUSH1 0x20 DUP2 DUP4 SUB SUB DUP2 MSTORE SWAP1 PUSH1 0x40 MSTORE SWAP1 POP JUMPDEST JUMPDEST JUMPDEST DUP1 SWAP2 POP POP SWAP2 SWAP1 POP JUMP JUMPDEST PUSH1 0x60 PUSH1 0x0 DUP3 PUSH1 0x40 MLOAD PUSH1 0x20 ADD PUSH2 0x1611 SWAP2 SWAP1 PUSH2 0x35BE JUMP JUMPDEST PUSH1 0x40 MLOAD PUSH1 0x20 DUP2 DUP4 SUB SUB DUP2 MSTORE SWAP1 PUSH1 0x40 MSTORE SWAP1 POP PUSH2 0x162B DUP2 PUSH2 0xA3E JUMP JUMPDEST SWAP2 POP POP SWAP2 SWAP1 POP JUMP JUMPDEST PUSH1 0x60 PUSH1 0x0 DUP3 PUSH1 0x40 MLOAD PUSH1 0x20 ADD PUSH2 0x1648 SWAP2 SWAP1 PUSH2 0x3164 JUMP JUMPDEST PUSH1 0x40 MLOAD PUSH1 0x20 DUP2 DUP4 SUB SUB DUP2 MSTORE SWAP1 PUSH1 0x40 MSTORE SWAP1 POP DUP1 SWAP2 POP POP SWAP2 SWAP1 POP JUMP JUMPDEST PUSH1 0x60 PUSH1 0x0 DUP3 PUSH1 0x40 MLOAD PUSH1 0x20 ADD PUSH2 0x1677 SWAP2 SWAP1 PUSH2 0x35D9 JUMP JUMPDEST PUSH1 0x40 MLOAD PUSH1 0x20 DUP2 DUP4 SUB SUB DUP2 MSTORE SWAP1 PUSH1 0x40 MSTORE SWAP1 POP PUSH2 0x1691 DUP2 PUSH2 0xA3E JUMP JUMPDEST SWAP2 POP POP SWAP2 SWAP1 POP JUMP JUMPDEST PUSH1 0x60 DUP1 PUSH2 0x16A6 DUP4 MLOAD PUSH2 0x1662 JUMP JUMPDEST SWAP1 POP PUSH1 0x0 JUMPDEST DUP4 MLOAD DUP2 LT ISZERO PUSH2 0x171F JUMPI DUP2 PUSH2 0x16F0 DUP6 DUP4 DUP2 MLOAD DUP2 LT PUSH2 0x16C4 JUMPI INVALID JUMPDEST PUSH1 0x20 MUL PUSH1 0x20 ADD ADD MLOAD PUSH1 0x40 MLOAD PUSH1 0x20 ADD PUSH2 0x16DC SWAP2 SWAP1 PUSH2 0x354D JUMP JUMPDEST PUSH1 0x40 MLOAD PUSH1 0x20 DUP2 DUP4 SUB SUB DUP2 MSTORE SWAP1 PUSH1 0x40 MSTORE PUSH2 0xA3E JUMP JUMPDEST PUSH1 0x40 MLOAD PUSH1 0x20 ADD PUSH2 0x1701 SWAP3 SWAP2 SWAP1 PUSH2 0x31DD JUMP JUMPDEST PUSH1 0x40 MLOAD PUSH1 0x20 DUP2 DUP4 SUB SUB DUP2 MSTORE SWAP1 PUSH1 0x40 MSTORE SWAP2 POP DUP1 DUP1 PUSH1 0x1 ADD SWAP2 POP POP PUSH2 0x16AB JUMP JUMPDEST POP DUP1 SWAP2 POP POP SWAP2 SWAP1 POP JUMP JUMPDEST PUSH1 0x60 PUSH1 0x0 PUSH2 0x173A DUP4 PUSH1 0x0 ADD MLOAD PUSH2 0x145B JUMP JUMPDEST PUSH2 0x1747 DUP5 PUSH1 0x20 ADD MLOAD PUSH2 0x1492 JUMP JUMPDEST PUSH2 0x1754 DUP6 PUSH1 0x40 ADD MLOAD PUSH2 0x145B JUMP JUMPDEST PUSH2 0x1761 DUP7 PUSH1 0x60 ADD MLOAD PUSH2 0x1633 JUMP JUMPDEST PUSH2 0x176E DUP8 PUSH1 0x80 ADD MLOAD PUSH2 0x110E JUMP JUMPDEST PUSH2 0x177B DUP9 PUSH1 0xA0 ADD MLOAD PUSH2 0x14DF JUMP JUMPDEST PUSH1 0x40 MLOAD PUSH1 0x20 ADD PUSH2 0x1790 SWAP7 SWAP6 SWAP5 SWAP4 SWAP3 SWAP2 SWAP1 PUSH2 0x327D JUMP JUMPDEST PUSH1 0x40 MLOAD PUSH1 0x20 DUP2 DUP4 SUB SUB DUP2 MSTORE SWAP1 PUSH1 0x40 MSTORE SWAP1 POP PUSH1 0x0 PUSH20 0xFFFFFFFFFFFFFFFFFFFFFFFFFFFFFFFFFFFFFFFF AND DUP4 PUSH1 0xC0 ADD MLOAD PUSH20 0xFFFFFFFFFFFFFFFFFFFFFFFFFFFFFFFFFFFFFFFF AND EQ PUSH2 0x180A JUMPI DUP1 PUSH2 0x17E7 DUP5 PUSH1 0xC0 ADD MLOAD PUSH2 0x1633 JUMP JUMPDEST PUSH1 0x40 MLOAD PUSH1 0x20 ADD PUSH2 0x17F8 SWAP3 SWAP2 SWAP1 PUSH2 0x31DD JUMP JUMPDEST PUSH1 0x40 MLOAD PUSH1 0x20 DUP2 DUP4 SUB SUB DUP2 MSTORE SWAP1 PUSH1 0x40 MSTORE SWAP1 POP JUMPDEST PUSH1 0x0 PUSH20 0xFFFFFFFFFFFFFFFFFFFFFFFFFFFFFFFFFFFFFFFF AND DUP4 PUSH1 0xE0 ADD MLOAD PUSH20 0xFFFFFFFFFFFFFFFFFFFFFFFFFFFFFFFFFFFFFFFF AND EQ PUSH2 0x1873 JUMPI DUP1 PUSH2 0x1850 DUP5 PUSH1 0xE0 ADD MLOAD PUSH2 0x1633 JUMP JUMPDEST PUSH1 0x40 MLOAD PUSH1 0x20 ADD PUSH2 0x1861 SWAP3 SWAP2 SWAP1 PUSH2 0x31DD JUMP JUMPDEST PUSH1 0x40 MLOAD PUSH1 0x20 DUP2 DUP4 SUB SUB DUP2 MSTORE SWAP1 PUSH1 0x40 MSTORE SWAP1 POP JUMPDEST DUP1 SWAP2 POP POP SWAP2 SWAP1 POP JUMP JUMPDEST PUSH1 0x60 PUSH1 0x0 DUP3 PUSH1 0x40 MLOAD PUSH1 0x20 ADD PUSH2 0x1891 SWAP2 SWAP1 PUSH2 0x3532 JUMP JUMPDEST PUSH1 0x40 MLOAD PUSH1 0x20 DUP2 DUP4 SUB SUB DUP2 MSTORE SWAP1 PUSH1 0x40 MSTORE SWAP1 POP PUSH2 0x18AB DUP2 PUSH2 0xA3E JUMP JUMPDEST SWAP2 POP POP SWAP2 SWAP1 POP JUMP JUMPDEST PUSH1 0x0 PUSH2 0x18C6 PUSH2 0x18C1 DUP5 PUSH2 0x371C JUMP JUMPDEST PUSH2 0x36EB JUMP JUMPDEST SWAP1 POP DUP1 DUP4 DUP3 MSTORE PUSH1 0x20 DUP3 ADD SWAP1 POP DUP3 DUP6 PUSH1 0x20 DUP7 MUL DUP3 ADD GT ISZERO PUSH2 0x18E5 JUMPI PUSH1 0x0 DUP1 REVERT JUMPDEST PUSH1 0x0 JUMPDEST DUP6 DUP2 LT ISZERO PUSH2 0x1915 JUMPI DUP2 PUSH2 0x18FB DUP9 DUP3 PUSH2 0x1E43 JUMP JUMPDEST DUP5 MSTORE PUSH1 0x20 DUP5 ADD SWAP4 POP PUSH1 0x20 DUP4 ADD SWAP3 POP POP PUSH1 0x1 DUP2 ADD SWAP1 POP PUSH2 0x18E8 JUMP JUMPDEST POP POP POP SWAP4 SWAP3 POP POP POP JUMP JUMPDEST PUSH1 0x0 PUSH2 0x1932 PUSH2 0x192D DUP5 PUSH2 0x3748 JUMP JUMPDEST PUSH2 0x36EB JUMP JUMPDEST SWAP1 POP DUP1 DUP4 DUP3 MSTORE PUSH1 0x20 DUP3 ADD SWAP1 POP DUP3 DUP6 PUSH1 0x20 DUP7 MUL DUP3 ADD GT ISZERO PUSH2 0x1951 JUMPI PUSH1 0x0 DUP1 REVERT JUMPDEST PUSH1 0x0 JUMPDEST DUP6 DUP2 LT ISZERO PUSH2 0x1981 JUMPI DUP2 PUSH2 0x1967 DUP9 DUP3 PUSH2 0x1E58 JUMP JUMPDEST DUP5 MSTORE PUSH1 0x20 DUP5 ADD SWAP4 POP PUSH1 0x20 DUP4 ADD SWAP3 POP POP PUSH1 0x1 DUP2 ADD SWAP1 POP PUSH2 0x1954 JUMP JUMPDEST POP POP POP SWAP4 SWAP3 POP POP POP JUMP JUMPDEST PUSH1 0x0 PUSH2 0x199E PUSH2 0x1999 DUP5 PUSH2 0x3774 JUMP JUMPDEST PUSH2 0x36EB JUMP JUMPDEST SWAP1 POP DUP1 DUP4 DUP3 MSTORE PUSH1 0x20 DUP3 ADD SWAP1 POP DUP3 DUP6 PUSH1 0x40 DUP7 MUL DUP3 ADD GT ISZERO PUSH2 0x19BD JUMPI PUSH1 0x0 DUP1 REVERT JUMPDEST PUSH1 0x0 JUMPDEST DUP6 DUP2 LT ISZERO PUSH2 0x19ED JUMPI DUP2 PUSH2 0x19D3 DUP9 DUP3 PUSH2 0x2315 JUMP JUMPDEST DUP5 MSTORE PUSH1 0x20 DUP5 ADD SWAP4 POP PUSH1 0x40 DUP4 ADD SWAP3 POP POP PUSH1 0x1 DUP2 ADD SWAP1 POP PUSH2 0x19C0 JUMP JUMPDEST POP POP POP SWAP4 SWAP3 POP POP POP JUMP JUMPDEST PUSH1 0x0 PUSH2 0x1A0A PUSH2 0x1A05 DUP5 PUSH2 0x37A0 JUMP JUMPDEST PUSH2 0x36EB JUMP JUMPDEST SWAP1 POP DUP1 DUP4 DUP3 MSTORE PUSH1 0x20 DUP3 ADD SWAP1 POP DUP3 PUSH1 0x0 JUMPDEST DUP6 DUP2 LT ISZERO PUSH2 0x1A4A JUMPI DUP2 CALLDATALOAD DUP6 ADD PUSH2 0x1A30 DUP9 DUP3 PUSH2 0x2361 JUMP JUMPDEST DUP5 MSTORE PUSH1 0x20 DUP5 ADD SWAP4 POP PUSH1 0x20 DUP4 ADD SWAP3 POP POP PUSH1 0x1 DUP2 ADD SWAP1 POP PUSH2 0x1A1A JUMP JUMPDEST POP POP POP SWAP4 SWAP3 POP POP POP JUMP JUMPDEST PUSH1 0x0 PUSH2 0x1A67 PUSH2 0x1A62 DUP5 PUSH2 0x37CC JUMP JUMPDEST PUSH2 0x36EB JUMP JUMPDEST SWAP1 POP DUP1 DUP4 DUP3 MSTORE PUSH1 0x20 DUP3 ADD SWAP1 POP DUP3 DUP6 PUSH2 0x140 DUP7 MUL DUP3 ADD GT ISZERO PUSH2 0x1A87 JUMPI PUSH1 0x0 DUP1 REVERT JUMPDEST PUSH1 0x0 JUMPDEST DUP6 DUP2 LT ISZERO PUSH2 0x1AB8 JUMPI DUP2 PUSH2 0x1A9D DUP9 DUP3 PUSH2 0x25DE JUMP JUMPDEST DUP5 MSTORE PUSH1 0x20 DUP5 ADD SWAP4 POP PUSH2 0x140 DUP4 ADD SWAP3 POP POP PUSH1 0x1 DUP2 ADD SWAP1 POP PUSH2 0x1A8A JUMP JUMPDEST POP POP POP SWAP4 SWAP3 POP POP POP JUMP JUMPDEST PUSH1 0x0 PUSH2 0x1AD5 PUSH2 0x1AD0 DUP5 PUSH2 0x37F8 JUMP JUMPDEST PUSH2 0x36EB JUMP JUMPDEST SWAP1 POP DUP1 DUP4 DUP3 MSTORE PUSH1 0x20 DUP3 ADD SWAP1 POP DUP3 PUSH1 0x0 JUMPDEST DUP6 DUP2 LT ISZERO PUSH2 0x1B15 JUMPI DUP2 CALLDATALOAD DUP6 ADD PUSH2 0x1AFB DUP9 DUP3 PUSH2 0x273E JUMP JUMPDEST DUP5 MSTORE PUSH1 0x20 DUP5 ADD SWAP4 POP PUSH1 0x20 DUP4 ADD SWAP3 POP POP PUSH1 0x1 DUP2 ADD SWAP1 POP PUSH2 0x1AE5 JUMP JUMPDEST POP POP POP SWAP4 SWAP3 POP POP POP JUMP JUMPDEST PUSH1 0x0 PUSH2 0x1B32 PUSH2 0x1B2D DUP5 PUSH2 0x3824 JUMP JUMPDEST PUSH2 0x36EB JUMP JUMPDEST SWAP1 POP DUP1 DUP4 DUP3 MSTORE PUSH1 0x20 DUP3 ADD SWAP1 POP DUP3 DUP6 PUSH2 0x100 DUP7 MUL DUP3 ADD GT ISZERO PUSH2 0x1B52 JUMPI PUSH1 0x0 DUP1 REVERT JUMPDEST PUSH1 0x0 JUMPDEST DUP6 DUP2 LT ISZERO PUSH2 0x1B83 JUMPI DUP2 PUSH2 0x1B68 DUP9 DUP3 PUSH2 0x27A2 JUMP JUMPDEST DUP5 MSTORE PUSH1 0x20 DUP5 ADD SWAP4 POP PUSH2 0x100 DUP4 ADD SWAP3 POP POP PUSH1 0x1 DUP2 ADD SWAP1 POP PUSH2 0x1B55 JUMP JUMPDEST POP POP POP SWAP4 SWAP3 POP POP POP JUMP JUMPDEST PUSH1 0x0 PUSH2 0x1BA0 PUSH2 0x1B9B DUP5 PUSH2 0x3850 JUMP JUMPDEST PUSH2 0x36EB JUMP JUMPDEST SWAP1 POP DUP1 DUP4 DUP3 MSTORE PUSH1 0x20 DUP3 ADD SWAP1 POP DUP3 DUP6 PUSH1 0x20 DUP7 MUL DUP3 ADD GT ISZERO PUSH2 0x1BBF JUMPI PUSH1 0x0 DUP1 REVERT JUMPDEST PUSH1 0x0 JUMPDEST DUP6 DUP2 LT ISZERO PUSH2 0x1BEF JUMPI DUP2 PUSH2 0x1BD5 DUP9 DUP3 PUSH2 0x2804 JUMP JUMPDEST DUP5 MSTORE PUSH1 0x20 DUP5 ADD SWAP4 POP PUSH1 0x20 DUP4 ADD SWAP3 POP POP PUSH1 0x1 DUP2 ADD SWAP1 POP PUSH2 0x1BC2 JUMP JUMPDEST POP POP POP SWAP4 SWAP3 POP POP POP JUMP JUMPDEST PUSH1 0x0 PUSH2 0x1C0C PUSH2 0x1C07 DUP5 PUSH2 0x387C JUMP JUMPDEST PUSH2 0x36EB JUMP JUMPDEST SWAP1 POP DUP3 DUP2 MSTORE PUSH1 0x20 DUP2 ADD DUP5 DUP5 DUP5 ADD GT ISZERO PUSH2 0x1C24 JUMPI PUSH1 0x0 DUP1 REVERT JUMPDEST PUSH2 0x1C2F DUP5 DUP3 DUP6 PUSH2 0x3A1F JUMP JUMPDEST POP SWAP4 SWAP3 POP POP POP JUMP JUMPDEST PUSH1 0x0 PUSH2 0x1C4A PUSH2 0x1C45 DUP5 PUSH2 0x38AC JUMP JUMPDEST PUSH2 0x36EB JUMP JUMPDEST SWAP1 POP DUP3 DUP2 MSTORE PUSH1 0x20 DUP2 ADD DUP5 DUP5 DUP5 ADD GT ISZERO PUSH2 0x1C62 JUMPI PUSH1 0x0 DUP1 REVERT JUMPDEST PUSH2 0x1C6D DUP5 DUP3 DUP6 PUSH2 0x3A1F JUMP JUMPDEST POP SWAP4 SWAP3 POP POP POP JUMP JUMPDEST PUSH1 0x0 DUP2 CALLDATALOAD SWAP1 POP PUSH2 0x1C84 DUP2 PUSH2 0x3B87 JUMP JUMPDEST SWAP3 SWAP2 POP POP JUMP JUMPDEST PUSH1 0x0 DUP3 PUSH1 0x1F DUP4 ADD SLT PUSH2 0x1C9B JUMPI PUSH1 0x0 DUP1 REVERT JUMPDEST DUP2 CALLDATALOAD PUSH2 0x1CAB DUP5 DUP3 PUSH1 0x20 DUP7 ADD PUSH2 0x18B3 JUMP JUMPDEST SWAP2 POP POP SWAP3 SWAP2 POP POP JUMP JUMPDEST PUSH1 0x0 DUP3 PUSH1 0x1F DUP4 ADD SLT PUSH2 0x1CC5 JUMPI PUSH1 0x0 DUP1 REVERT JUMPDEST DUP2 CALLDATALOAD PUSH2 0x1CD5 DUP5 DUP3 PUSH1 0x20 DUP7 ADD PUSH2 0x191F JUMP JUMPDEST SWAP2 POP POP SWAP3 SWAP2 POP POP JUMP JUMPDEST PUSH1 0x0 DUP3 PUSH1 0x1F DUP4 ADD SLT PUSH2 0x1CEF JUMPI PUSH1 0x0 DUP1 REVERT JUMPDEST DUP2 CALLDATALOAD PUSH2 0x1CFF DUP5 DUP3 PUSH1 0x20 DUP7 ADD PUSH2 0x198B JUMP JUMPDEST SWAP2 POP POP SWAP3 SWAP2 POP POP JUMP JUMPDEST PUSH1 0x0 DUP3 PUSH1 0x1F DUP4 ADD SLT PUSH2 0x1D19 JUMPI PUSH1 0x0 DUP1 REVERT JUMPDEST DUP2 CALLDATALOAD PUSH2 0x1D29 DUP5 DUP3 PUSH1 0x20 DUP7 ADD PUSH2 0x19F7 JUMP JUMPDEST SWAP2 POP POP SWAP3 SWAP2 POP POP JUMP JUMPDEST PUSH1 0x0 DUP3 PUSH1 0x1F DUP4 ADD SLT PUSH2 0x1D43 JUMPI PUSH1 0x0 DUP1 REVERT JUMPDEST DUP2 CALLDATALOAD PUSH2 0x1D53 DUP5 DUP3 PUSH1 0x20 DUP7 ADD PUSH2 0x1A54 JUMP JUMPDEST SWAP2 POP POP SWAP3 SWAP2 POP POP JUMP JUMPDEST PUSH1 0x0 DUP3 PUSH1 0x1F DUP4 ADD SLT PUSH2 0x1D6D JUMPI PUSH1 0x0 DUP1 REVERT JUMPDEST DUP2 CALLDATALOAD PUSH2 0x1D7D DUP5 DUP3 PUSH1 0x20 DUP7 ADD PUSH2 0x1AC2 JUMP JUMPDEST SWAP2 POP POP SWAP3 SWAP2 POP POP JUMP JUMPDEST PUSH1 0x0 DUP3 PUSH1 0x1F DUP4 ADD SLT PUSH2 0x1D97 JUMPI PUSH1 0x0 DUP1 REVERT JUMPDEST DUP2 CALLDATALOAD PUSH2 0x1DA7 DUP5 DUP3 PUSH1 0x20 DUP7 ADD PUSH2 0x1B1F JUMP JUMPDEST SWAP2 POP POP SWAP3 SWAP2 POP POP JUMP JUMPDEST PUSH1 0x0 DUP3 PUSH1 0x1F DUP4 ADD SLT PUSH2 0x1DC1 JUMPI PUSH1 0x0 DUP1 REVERT JUMPDEST DUP2 CALLDATALOAD PUSH2 0x1DD1 DUP5 DUP3 PUSH1 0x20 DUP7 ADD PUSH2 0x1B8D JUMP JUMPDEST SWAP2 POP POP SWAP3 SWAP2 POP POP JUMP JUMPDEST PUSH1 0x0 DUP2 CALLDATALOAD SWAP1 POP PUSH2 0x1DE9 DUP2 PUSH2 0x3B9E JUMP JUMPDEST SWAP3 SWAP2 POP POP JUMP JUMPDEST PUSH1 0x0 DUP2 CALLDATALOAD SWAP1 POP PUSH2 0x1DFE DUP2 PUSH2 0x3BB5 JUMP JUMPDEST SWAP3 SWAP2 POP POP JUMP JUMPDEST PUSH1 0x0 DUP3 PUSH1 0x1F DUP4 ADD SLT PUSH2 0x1E15 JUMPI PUSH1 0x0 DUP1 REVERT JUMPDEST DUP2 CALLDATALOAD PUSH2 0x1E25 DUP5 DUP3 PUSH1 0x20 DUP7 ADD PUSH2 0x1BF9 JUMP JUMPDEST SWAP2 POP POP SWAP3 SWAP2 POP POP JUMP JUMPDEST PUSH1 0x0 DUP2 CALLDATALOAD SWAP1 POP PUSH2 0x1E3D DUP2 PUSH2 0x3BCC JUMP JUMPDEST SWAP3 SWAP2 POP POP JUMP JUMPDEST PUSH1 0x0 DUP2 CALLDATALOAD SWAP1 POP PUSH2 0x1E52 DUP2 PUSH2 0x3BE3 JUMP JUMPDEST SWAP3 SWAP2 POP POP JUMP JUMPDEST PUSH1 0x0 DUP2 CALLDATALOAD SWAP1 POP PUSH2 0x1E67 DUP2 PUSH2 0x3BFA JUMP JUMPDEST SWAP3 SWAP2 POP POP JUMP JUMPDEST PUSH1 0x0 DUP3 PUSH1 0x1F DUP4 ADD SLT PUSH2 0x1E7E JUMPI PUSH1 0x0 DUP1 REVERT JUMPDEST DUP2 CALLDATALOAD PUSH2 0x1E8E DUP5 DUP3 PUSH1 0x20 DUP7 ADD PUSH2 0x1C37 JUMP JUMPDEST SWAP2 POP POP SWAP3 SWAP2 POP POP JUMP JUMPDEST PUSH1 0x0 PUSH2 0x2A0 DUP3 DUP5 SUB SLT ISZERO PUSH2 0x1EAA JUMPI PUSH1 0x0 DUP1 REVERT JUMPDEST PUSH2 0x1EB5 PUSH2 0x2A0 PUSH2 0x36EB JUMP JUMPDEST SWAP1 POP PUSH1 0x0 PUSH2 0x1EC5 DUP5 DUP3 DUP6 ADD PUSH2 0x27EF JUMP JUMPDEST PUSH1 0x0 DUP4 ADD MSTORE POP PUSH1 0x20 PUSH2 0x1ED9 DUP5 DUP3 DUP6 ADD PUSH2 0x27EF JUMP JUMPDEST PUSH1 0x20 DUP4 ADD MSTORE POP PUSH1 0x40 PUSH2 0x1EED DUP5 DUP3 DUP6 ADD PUSH2 0x1C75 JUMP JUMPDEST PUSH1 0x40 DUP4 ADD MSTORE POP PUSH1 0x60 DUP3 ADD CALLDATALOAD PUSH8 0xFFFFFFFFFFFFFFFF DUP2 GT ISZERO PUSH2 0x1F0D JUMPI PUSH1 0x0 DUP1 REVERT JUMPDEST PUSH2 0x1F19 DUP5 DUP3 DUP6 ADD PUSH2 0x1DB0 JUMP JUMPDEST PUSH1 0x60 DUP4 ADD MSTORE POP PUSH1 0x80 DUP3 ADD CALLDATALOAD PUSH8 0xFFFFFFFFFFFFFFFF DUP2 GT ISZERO PUSH2 0x1F39 JUMPI PUSH1 0x0 DUP1 REVERT JUMPDEST PUSH2 0x1F45 DUP5 DUP3 DUP6 ADD PUSH2 0x1C8A JUMP JUMPDEST PUSH1 0x80 DUP4 ADD MSTORE POP PUSH1 0xA0 DUP3 ADD CALLDATALOAD PUSH8 0xFFFFFFFFFFFFFFFF DUP2 GT ISZERO PUSH2 0x1F65 JUMPI PUSH1 0x0 DUP1 REVERT JUMPDEST PUSH2 0x1F71 DUP5 DUP3 DUP6 ADD PUSH2 0x1CB4 JUMP JUMPDEST PUSH1 0xA0 DUP4 ADD MSTORE POP PUSH1 0xC0 PUSH2 0x1F85 DUP5 DUP3 DUP6 ADD PUSH2 0x1E58 JUMP JUMPDEST PUSH1 0xC0 DUP4 ADD MSTORE POP PUSH1 0xE0 PUSH2 0x1F99 DUP5 DUP3 DUP6 ADD PUSH2 0x1E58 JUMP JUMPDEST PUSH1 0xE0 DUP4 ADD MSTORE POP PUSH2 0x100 PUSH2 0x1FAE DUP5 DUP3 DUP6 ADD PUSH2 0x1E58 JUMP JUMPDEST PUSH2 0x100 DUP4 ADD MSTORE POP PUSH2 0x120 PUSH2 0x1FC4 DUP5 DUP3 DUP6 ADD PUSH2 0x1E58 JUMP JUMPDEST PUSH2 0x120 DUP4 ADD MSTORE POP PUSH2 0x140 PUSH2 0x1FDA DUP5 DUP3 DUP6 ADD PUSH2 0x1E58 JUMP JUMPDEST PUSH2 0x140 DUP4 ADD MSTORE POP PUSH2 0x160 PUSH2 0x1FF0 DUP5 DUP3 DUP6 ADD PUSH2 0x1E58 JUMP JUMPDEST PUSH2 0x160 DUP4 ADD MSTORE POP PUSH2 0x180 PUSH2 0x2006 DUP5 DUP3 DUP6 ADD PUSH2 0x1E58 JUMP JUMPDEST PUSH2 0x180 DUP4 ADD MSTORE POP PUSH2 0x1A0 DUP3 ADD CALLDATALOAD PUSH8 0xFFFFFFFFFFFFFFFF DUP2 GT ISZERO PUSH2 0x2028 JUMPI PUSH1 0x0 DUP1 REVERT JUMPDEST PUSH2 0x2034 DUP5 DUP3 DUP6 ADD PUSH2 0x1CB4 JUMP JUMPDEST PUSH2 0x1A0 DUP4 ADD MSTORE POP PUSH2 0x1C0 DUP3 ADD CALLDATALOAD PUSH8 0xFFFFFFFFFFFFFFFF DUP2 GT ISZERO PUSH2 0x2056 JUMPI PUSH1 0x0 DUP1 REVERT JUMPDEST PUSH2 0x2062 DUP5 DUP3 DUP6 ADD PUSH2 0x1CB4 JUMP JUMPDEST PUSH2 0x1C0 DUP4 ADD MSTORE POP PUSH2 0x1E0 DUP3 ADD CALLDATALOAD PUSH8 0xFFFFFFFFFFFFFFFF DUP2 GT ISZERO PUSH2 0x2084 JUMPI PUSH1 0x0 DUP1 REVERT JUMPDEST PUSH2 0x2090 DUP5 DUP3 DUP6 ADD PUSH2 0x1CB4 JUMP JUMPDEST PUSH2 0x1E0 DUP4 ADD MSTORE POP PUSH2 0x200 DUP3 ADD CALLDATALOAD PUSH8 0xFFFFFFFFFFFFFFFF DUP2 GT ISZERO PUSH2 0x20B2 JUMPI PUSH1 0x0 DUP1 REVERT JUMPDEST PUSH2 0x20BE DUP5 DUP3 DUP6 ADD PUSH2 0x1CB4 JUMP JUMPDEST PUSH2 0x200 DUP4 ADD MSTORE POP PUSH2 0x220 DUP3 ADD CALLDATALOAD PUSH8 0xFFFFFFFFFFFFFFFF DUP2 GT ISZERO PUSH2 0x20E0 JUMPI PUSH1 0x0 DUP1 REVERT JUMPDEST PUSH2 0x20EC DUP5 DUP3 DUP6 ADD PUSH2 0x1CB4 JUMP JUMPDEST PUSH2 0x220 DUP4 ADD MSTORE POP PUSH2 0x240 DUP3 ADD CALLDATALOAD PUSH8 0xFFFFFFFFFFFFFFFF DUP2 GT ISZERO PUSH2 0x210E JUMPI PUSH1 0x0 DUP1 REVERT JUMPDEST PUSH2 0x211A DUP5 DUP3 DUP6 ADD PUSH2 0x1CB4 JUMP JUMPDEST PUSH2 0x240 DUP4 ADD MSTORE POP PUSH2 0x260 DUP3 ADD CALLDATALOAD PUSH8 0xFFFFFFFFFFFFFFFF DUP2 GT ISZERO PUSH2 0x213C JUMPI PUSH1 0x0 DUP1 REVERT JUMPDEST PUSH2 0x2148 DUP5 DUP3 DUP6 ADD PUSH2 0x1CB4 JUMP JUMPDEST PUSH2 0x260 DUP4 ADD MSTORE POP PUSH2 0x280 DUP3 ADD CALLDATALOAD PUSH8 0xFFFFFFFFFFFFFFFF DUP2 GT ISZERO PUSH2 0x216A JUMPI PUSH1 0x0 DUP1 REVERT JUMPDEST PUSH2 0x2176 DUP5 DUP3 DUP6 ADD PUSH2 0x1C8A JUMP JUMPDEST PUSH2 0x280 DUP4 ADD MSTORE POP SWAP3 SWAP2 POP POP JUMP JUMPDEST PUSH1 0x0 PUSH2 0x1C0 DUP3 DUP5 SUB SLT ISZERO PUSH2 0x2196 JUMPI PUSH1 0x0 DUP1 REVERT JUMPDEST PUSH2 0x21A1 PUSH2 0x1C0 PUSH2 0x36EB JUMP JUMPDEST SWAP1 POP PUSH1 0x0 PUSH2 0x21B1 DUP5 DUP3 DUP6 ADD PUSH2 0x282E JUMP JUMPDEST PUSH1 0x0 DUP4 ADD MSTORE POP PUSH1 0x20 PUSH2 0x21C5 DUP5 DUP3 DUP6 ADD PUSH2 0x282E JUMP JUMPDEST PUSH1 0x20 DUP4 ADD MSTORE POP PUSH1 0x40 PUSH2 0x21D9 DUP5 DUP3 DUP6 ADD PUSH2 0x1C75 JUMP JUMPDEST PUSH1 0x40 DUP4 ADD MSTORE POP PUSH1 0x60 PUSH2 0x21ED DUP5 DUP3 DUP6 ADD PUSH2 0x282E JUMP JUMPDEST PUSH1 0x60 DUP4 ADD MSTORE POP PUSH1 0x80 PUSH2 0x2201 DUP5 DUP3 DUP6 ADD PUSH2 0x282E JUMP JUMPDEST PUSH1 0x80 DUP4 ADD MSTORE POP PUSH1 0xA0 PUSH2 0x2215 DUP5 DUP3 DUP6 ADD PUSH2 0x1C75 JUMP JUMPDEST PUSH1 0xA0 DUP4 ADD MSTORE POP PUSH1 0xC0 PUSH2 0x2229 DUP5 DUP3 DUP6 ADD PUSH2 0x1C75 JUMP JUMPDEST PUSH1 0xC0 DUP4 ADD MSTORE POP PUSH1 0xE0 PUSH2 0x223D DUP5 DUP3 DUP6 ADD PUSH2 0x282E JUMP JUMPDEST PUSH1 0xE0 DUP4 ADD MSTORE POP PUSH2 0x100 DUP3 ADD CALLDATALOAD PUSH8 0xFFFFFFFFFFFFFFFF DUP2 GT ISZERO PUSH2 0x225E JUMPI PUSH1 0x0 DUP1 REVERT JUMPDEST PUSH2 0x226A DUP5 DUP3 DUP6 ADD PUSH2 0x1CDE JUMP JUMPDEST PUSH2 0x100 DUP4 ADD MSTORE POP PUSH2 0x120 DUP3 ADD CALLDATALOAD PUSH8 0xFFFFFFFFFFFFFFFF DUP2 GT ISZERO PUSH2 0x228C JUMPI PUSH1 0x0 DUP1 REVERT JUMPDEST PUSH2 0x2298 DUP5 DUP3 DUP6 ADD PUSH2 0x1CDE JUMP JUMPDEST PUSH2 0x120 DUP4 ADD MSTORE POP PUSH2 0x140 PUSH2 0x22AE DUP5 DUP3 DUP6 ADD PUSH2 0x2819 JUMP JUMPDEST PUSH2 0x140 DUP4 ADD MSTORE POP PUSH2 0x160 DUP3 ADD CALLDATALOAD PUSH8 0xFFFFFFFFFFFFFFFF DUP2 GT ISZERO PUSH2 0x22D0 JUMPI PUSH1 0x0 DUP1 REVERT JUMPDEST PUSH2 0x22DC DUP5 DUP3 DUP6 ADD PUSH2 0x1CDE JUMP JUMPDEST PUSH2 0x160 DUP4 ADD MSTORE POP PUSH2 0x180 PUSH2 0x22F2 DUP5 DUP3 DUP6 ADD PUSH2 0x1C75 JUMP JUMPDEST PUSH2 0x180 DUP4 ADD MSTORE POP PUSH2 0x1A0 PUSH2 0x2308 DUP5 DUP3 DUP6 ADD PUSH2 0x1E43 JUMP JUMPDEST PUSH2 0x1A0 DUP4 ADD MSTORE POP SWAP3 SWAP2 POP POP JUMP JUMPDEST PUSH1 0x0 PUSH1 0x40 DUP3 DUP5 SUB SLT ISZERO PUSH2 0x2327 JUMPI PUSH1 0x0 DUP1 REVERT JUMPDEST PUSH2 0x2331 PUSH1 0x40 PUSH2 0x36EB JUMP JUMPDEST SWAP1 POP PUSH1 0x0 PUSH2 0x2341 DUP5 DUP3 DUP6 ADD PUSH2 0x1C75 JUMP JUMPDEST PUSH1 0x0 DUP4 ADD MSTORE POP PUSH1 0x20 PUSH2 0x2355 DUP5 DUP3 DUP6 ADD PUSH2 0x2843 JUMP JUMPDEST PUSH1 0x20 DUP4 ADD MSTORE POP SWAP3 SWAP2 POP POP JUMP JUMPDEST PUSH1 0x0 PUSH1 0x40 DUP3 DUP5 SUB SLT ISZERO PUSH2 0x2373 JUMPI PUSH1 0x0 DUP1 REVERT JUMPDEST PUSH2 0x237D PUSH1 0x40 PUSH2 0x36EB JUMP JUMPDEST SWAP1 POP PUSH1 0x0 DUP3 ADD CALLDATALOAD PUSH8 0xFFFFFFFFFFFFFFFF DUP2 GT ISZERO PUSH2 0x2399 JUMPI PUSH1 0x0 DUP1 REVERT JUMPDEST PUSH2 0x23A5 DUP5 DUP3 DUP6 ADD PUSH2 0x1E6D JUMP JUMPDEST PUSH1 0x0 DUP4 ADD MSTORE POP PUSH1 0x20 PUSH2 0x23B9 DUP5 DUP3 DUP6 ADD PUSH2 0x1C75 JUMP JUMPDEST PUSH1 0x20 DUP4 ADD MSTORE POP SWAP3 SWAP2 POP POP JUMP JUMPDEST PUSH1 0x0 PUSH2 0x180 DUP3 DUP5 SUB SLT ISZERO PUSH2 0x23D8 JUMPI PUSH1 0x0 DUP1 REVERT JUMPDEST PUSH2 0x23E3 PUSH2 0x160 PUSH2 0x36EB JUMP JUMPDEST SWAP1 POP PUSH1 0x0 PUSH2 0x23F3 DUP5 DUP3 DUP6 ADD PUSH2 0x282E JUMP JUMPDEST PUSH1 0x0 DUP4 ADD MSTORE POP PUSH1 0x20 PUSH2 0x2407 DUP5 DUP3 DUP6 ADD PUSH2 0x26A6 JUMP JUMPDEST PUSH1 0x20 DUP4 ADD MSTORE POP PUSH1 0x60 PUSH2 0x241B DUP5 DUP3 DUP6 ADD PUSH2 0x282E JUMP JUMPDEST PUSH1 0x40 DUP4 ADD MSTORE POP PUSH1 0x80 DUP3 ADD CALLDATALOAD PUSH8 0xFFFFFFFFFFFFFFFF DUP2 GT ISZERO PUSH2 0x243B JUMPI PUSH1 0x0 DUP1 REVERT JUMPDEST PUSH2 0x2447 DUP5 DUP3 DUP6 ADD PUSH2 0x1E97 JUMP JUMPDEST PUSH1 0x60 DUP4 ADD MSTORE POP PUSH1 0xA0 PUSH2 0x245B DUP5 DUP3 DUP6 ADD PUSH2 0x2819 JUMP JUMPDEST PUSH1 0x80 DUP4 ADD MSTORE POP PUSH1 0xC0 PUSH2 0x246F DUP5 DUP3 DUP6 ADD PUSH2 0x1E58 JUMP JUMPDEST PUSH1 0xA0 DUP4 ADD MSTORE POP PUSH1 0xE0 PUSH2 0x2483 DUP5 DUP3 DUP6 ADD PUSH2 0x2819 JUMP JUMPDEST PUSH1 0xC0 DUP4 ADD MSTORE POP PUSH2 0x100 PUSH2 0x2498 DUP5 DUP3 DUP6 ADD PUSH2 0x2843 JUMP JUMPDEST PUSH1 0xE0 DUP4 ADD MSTORE POP PUSH2 0x120 DUP3 ADD CALLDATALOAD PUSH8 0xFFFFFFFFFFFFFFFF DUP2 GT ISZERO PUSH2 0x24B9 JUMPI PUSH1 0x0 DUP1 REVERT JUMPDEST PUSH2 0x24C5 DUP5 DUP3 DUP6 ADD PUSH2 0x1D5C JUMP JUMPDEST PUSH2 0x100 DUP4 ADD MSTORE POP PUSH2 0x140 DUP3 ADD CALLDATALOAD PUSH8 0xFFFFFFFFFFFFFFFF DUP2 GT ISZERO PUSH2 0x24E7 JUMPI PUSH1 0x0 DUP1 REVERT JUMPDEST PUSH2 0x24F3 DUP5 DUP3 DUP6 ADD PUSH2 0x1D86 JUMP JUMPDEST PUSH2 0x120 DUP4 ADD MSTORE POP PUSH2 0x160 DUP3 ADD CALLDATALOAD PUSH8 0xFFFFFFFFFFFFFFFF DUP2 GT ISZERO PUSH2 0x2515 JUMPI PUSH1 0x0 DUP1 REVERT JUMPDEST PUSH2 0x2521 DUP5 DUP3 DUP6 ADD PUSH2 0x1D08 JUMP JUMPDEST PUSH2 0x140 DUP4 ADD MSTORE POP SWAP3 SWAP2 POP POP JUMP JUMPDEST PUSH1 0x0 PUSH1 0xE0 DUP3 DUP5 SUB SLT ISZERO PUSH2 0x2540 JUMPI PUSH1 0x0 DUP1 REVERT JUMPDEST PUSH2 0x254A PUSH1 0xE0 PUSH2 0x36EB JUMP JUMPDEST SWAP1 POP PUSH1 0x0 PUSH2 0x255A DUP5 DUP3 DUP6 ADD PUSH2 0x1E2E JUMP JUMPDEST PUSH1 0x0 DUP4 ADD MSTORE POP PUSH1 0x20 PUSH2 0x256E DUP5 DUP3 DUP6 ADD PUSH2 0x1E2E JUMP JUMPDEST PUSH1 0x20 DUP4 ADD MSTORE POP PUSH1 0x40 PUSH2 0x2582 DUP5 DUP3 DUP6 ADD PUSH2 0x1C75 JUMP JUMPDEST PUSH1 0x40 DUP4 ADD MSTORE POP PUSH1 0x60 PUSH2 0x2596 DUP5 DUP3 DUP6 ADD PUSH2 0x282E JUMP JUMPDEST PUSH1 0x60 DUP4 ADD MSTORE POP PUSH1 0x80 PUSH2 0x25AA DUP5 DUP3 DUP6 ADD PUSH2 0x2819 JUMP JUMPDEST PUSH1 0x80 DUP4 ADD MSTORE POP PUSH1 0xA0 PUSH2 0x25BE DUP5 DUP3 DUP6 ADD PUSH2 0x2819 JUMP JUMPDEST PUSH1 0xA0 DUP4 ADD MSTORE POP PUSH1 0xC0 PUSH2 0x25D2 DUP5 DUP3 DUP6 ADD PUSH2 0x2819 JUMP JUMPDEST PUSH1 0xC0 DUP4 ADD MSTORE POP SWAP3 SWAP2 POP POP JUMP JUMPDEST PUSH1 0x0 PUSH2 0x140 DUP3 DUP5 SUB SLT ISZERO PUSH2 0x25F1 JUMPI PUSH1 0x0 DUP1 REVERT JUMPDEST PUSH2 0x25FC PUSH2 0x100 PUSH2 0x36EB JUMP JUMPDEST SWAP1 POP PUSH1 0x0 PUSH2 0x260C DUP5 DUP3 DUP6 ADD PUSH2 0x282E JUMP JUMPDEST PUSH1 0x0 DUP4 ADD MSTORE POP PUSH1 0x20 PUSH2 0x2620 DUP5 DUP3 DUP6 ADD PUSH2 0x2315 JUMP JUMPDEST PUSH1 0x20 DUP4 ADD MSTORE POP PUSH1 0x60 PUSH2 0x2634 DUP5 DUP3 DUP6 ADD PUSH2 0x282E JUMP JUMPDEST PUSH1 0x40 DUP4 ADD MSTORE POP PUSH1 0x80 PUSH2 0x2648 DUP5 DUP3 DUP6 ADD PUSH2 0x1C75 JUMP JUMPDEST PUSH1 0x60 DUP4 ADD MSTORE POP PUSH1 0xA0 PUSH2 0x265C DUP5 DUP3 DUP6 ADD PUSH2 0x2819 JUMP JUMPDEST PUSH1 0x80 DUP4 ADD MSTORE POP PUSH1 0xC0 PUSH2 0x2670 DUP5 DUP3 DUP6 ADD PUSH2 0x26A6 JUMP JUMPDEST PUSH1 0xA0 DUP4 ADD MSTORE POP PUSH2 0x100 PUSH2 0x2685 DUP5 DUP3 DUP6 ADD PUSH2 0x1C75 JUMP JUMPDEST PUSH1 0xC0 DUP4 ADD MSTORE POP PUSH2 0x120 PUSH2 0x269A DUP5 DUP3 DUP6 ADD PUSH2 0x1C75 JUMP JUMPDEST PUSH1 0xE0 DUP4 ADD MSTORE POP SWAP3 SWAP2 POP POP JUMP JUMPDEST PUSH1 0x0 PUSH1 0x40 DUP3 DUP5 SUB SLT ISZERO PUSH2 0x26B8 JUMPI PUSH1 0x0 DUP1 REVERT JUMPDEST PUSH2 0x26C2 PUSH1 0x40 PUSH2 0x36EB JUMP JUMPDEST SWAP1 POP PUSH1 0x0 PUSH2 0x26D2 DUP5 DUP3 DUP6 ADD PUSH2 0x282E JUMP JUMPDEST PUSH1 0x0 DUP4 ADD MSTORE POP PUSH1 0x20 PUSH2 0x26E6 DUP5 DUP3 DUP6 ADD PUSH2 0x1C75 JUMP JUMPDEST PUSH1 0x20 DUP4 ADD MSTORE POP SWAP3 SWAP2 POP POP JUMP JUMPDEST PUSH1 0x0 PUSH1 0x40 DUP3 DUP5 SUB SLT ISZERO PUSH2 0x2704 JUMPI PUSH1 0x0 DUP1 REVERT JUMPDEST PUSH2 0x270E PUSH1 0x40 PUSH2 0x36EB JUMP JUMPDEST SWAP1 POP PUSH1 0x0 PUSH2 0x271E DUP5 DUP3 DUP6 ADD PUSH2 0x2819 JUMP JUMPDEST PUSH1 0x0 DUP4 ADD MSTORE POP PUSH1 0x20 PUSH2 0x2732 DUP5 DUP3 DUP6 ADD PUSH2 0x282E JUMP JUMPDEST PUSH1 0x20 DUP4 ADD MSTORE POP SWAP3 SWAP2 POP POP JUMP JUMPDEST PUSH1 0x0 PUSH1 0x40 DUP3 DUP5 SUB SLT ISZERO PUSH2 0x2750 JUMPI PUSH1 0x0 DUP1 REVERT JUMPDEST PUSH2 0x275A PUSH1 0x40 PUSH2 0x36EB JUMP JUMPDEST SWAP1 POP PUSH1 0x0 PUSH2 0x276A DUP5 DUP3 DUP6 ADD PUSH2 0x1C75 JUMP JUMPDEST PUSH1 0x0 DUP4 ADD MSTORE POP PUSH1 0x20 DUP3 ADD CALLDATALOAD PUSH8 0xFFFFFFFFFFFFFFFF DUP2 GT ISZERO PUSH2 0x278A JUMPI PUSH1 0x0 DUP1 REVERT JUMPDEST PUSH2 0x2796 DUP5 DUP3 DUP6 ADD PUSH2 0x1E97 JUMP JUMPDEST PUSH1 0x20 DUP4 ADD MSTORE POP SWAP3 SWAP2 POP POP JUMP JUMPDEST PUSH1 0x0 PUSH2 0x100 DUP3 DUP5 SUB SLT ISZERO PUSH2 0x27B5 JUMPI PUSH1 0x0 DUP1 REVERT JUMPDEST PUSH2 0x27BF PUSH1 0x40 PUSH2 0x36EB JUMP JUMPDEST SWAP1 POP PUSH1 0x0 PUSH2 0x27CF DUP5 DUP3 DUP6 ADD PUSH2 0x1C75 JUMP JUMPDEST PUSH1 0x0 DUP4 ADD MSTORE POP PUSH1 0x20 PUSH2 0x27E3 DUP5 DUP3 DUP6 ADD PUSH2 0x252E JUMP JUMPDEST PUSH1 0x20 DUP4 ADD MSTORE POP SWAP3 SWAP2 POP POP JUMP JUMPDEST PUSH1 0x0 DUP2 CALLDATALOAD SWAP1 POP PUSH2 0x27FE DUP2 PUSH2 0x3C11 JUMP JUMPDEST SWAP3 SWAP2 POP POP JUMP JUMPDEST PUSH1 0x0 DUP2 CALLDATALOAD SWAP1 POP PUSH2 0x2813 DUP2 PUSH2 0x3C28 JUMP JUMPDEST SWAP3 SWAP2 POP POP JUMP JUMPDEST PUSH1 0x0 DUP2 CALLDATALOAD SWAP1 POP PUSH2 0x2828 DUP2 PUSH2 0x3C3F JUMP JUMPDEST SWAP3 SWAP2 POP POP JUMP JUMPDEST PUSH1 0x0 DUP2 CALLDATALOAD SWAP1 POP PUSH2 0x283D DUP2 PUSH2 0x3C56 JUMP JUMPDEST SWAP3 SWAP2 POP POP JUMP JUMPDEST PUSH1 0x0 DUP2 CALLDATALOAD SWAP1 POP PUSH2 0x2852 DUP2 PUSH2 0x3C6D JUMP JUMPDEST SWAP3 SWAP2 POP POP JUMP JUMPDEST PUSH1 0x0 DUP2 CALLDATALOAD SWAP1 POP PUSH2 0x2867 DUP2 PUSH2 0x3C84 JUMP JUMPDEST SWAP3 SWAP2 POP POP JUMP JUMPDEST PUSH1 0x0 PUSH1 0x20 DUP3 DUP5 SUB SLT ISZERO PUSH2 0x287F JUMPI PUSH1 0x0 DUP1 REVERT JUMPDEST PUSH1 0x0 PUSH2 0x288D DUP5 DUP3 DUP6 ADD PUSH2 0x1C75 JUMP JUMPDEST SWAP2 POP POP SWAP3 SWAP2 POP POP JUMP JUMPDEST PUSH1 0x0 PUSH1 0x20 DUP3 DUP5 SUB SLT ISZERO PUSH2 0x28A8 JUMPI PUSH1 0x0 DUP1 REVERT JUMPDEST PUSH1 0x0 DUP3 ADD CALLDATALOAD PUSH8 0xFFFFFFFFFFFFFFFF DUP2 GT ISZERO PUSH2 0x28C2 JUMPI PUSH1 0x0 DUP1 REVERT JUMPDEST PUSH2 0x28CE DUP5 DUP3 DUP6 ADD PUSH2 0x1C8A JUMP JUMPDEST SWAP2 POP POP SWAP3 SWAP2 POP POP JUMP JUMPDEST PUSH1 0x0 PUSH1 0x20 DUP3 DUP5 SUB SLT ISZERO PUSH2 0x28E9 JUMPI PUSH1 0x0 DUP1 REVERT JUMPDEST PUSH1 0x0 DUP3 ADD CALLDATALOAD PUSH8 0xFFFFFFFFFFFFFFFF DUP2 GT ISZERO PUSH2 0x2903 JUMPI PUSH1 0x0 DUP1 REVERT JUMPDEST PUSH2 0x290F DUP5 DUP3 DUP6 ADD PUSH2 0x1CB4 JUMP JUMPDEST SWAP2 POP POP SWAP3 SWAP2 POP POP JUMP JUMPDEST PUSH1 0x0 PUSH1 0x20 DUP3 DUP5 SUB SLT ISZERO PUSH2 0x292A JUMPI PUSH1 0x0 DUP1 REVERT JUMPDEST PUSH1 0x0 DUP3 ADD CALLDATALOAD PUSH8 0xFFFFFFFFFFFFFFFF DUP2 GT ISZERO PUSH2 0x2944 JUMPI PUSH1 0x0 DUP1 REVERT JUMPDEST PUSH2 0x2950 DUP5 DUP3 DUP6 ADD PUSH2 0x1CDE JUMP JUMPDEST SWAP2 POP POP SWAP3 SWAP2 POP POP JUMP JUMPDEST PUSH1 0x0 PUSH1 0x20 DUP3 DUP5 SUB SLT ISZERO PUSH2 0x296B JUMPI PUSH1 0x0 DUP1 REVERT JUMPDEST PUSH1 0x0 DUP3 ADD CALLDATALOAD PUSH8 0xFFFFFFFFFFFFFFFF DUP2 GT ISZERO PUSH2 0x2985 JUMPI PUSH1 0x0 DUP1 REVERT JUMPDEST PUSH2 0x2991 DUP5 DUP3 DUP6 ADD PUSH2 0x1D08 JUMP JUMPDEST SWAP2 POP POP SWAP3 SWAP2 POP POP JUMP JUMPDEST PUSH1 0x0 PUSH1 0x20 DUP3 DUP5 SUB SLT ISZERO PUSH2 0x29AC JUMPI PUSH1 0x0 DUP1 REVERT JUMPDEST PUSH1 0x0 DUP3 ADD CALLDATALOAD PUSH8 0xFFFFFFFFFFFFFFFF DUP2 GT ISZERO PUSH2 0x29C6 JUMPI PUSH1 0x0 DUP1 REVERT JUMPDEST PUSH2 0x29D2 DUP5 DUP3 DUP6 ADD PUSH2 0x1D32 JUMP JUMPDEST SWAP2 POP POP SWAP3 SWAP2 POP POP JUMP JUMPDEST PUSH1 0x0 PUSH1 0x20 DUP3 DUP5 SUB SLT ISZERO PUSH2 0x29ED JUMPI PUSH1 0x0 DUP1 REVERT JUMPDEST PUSH1 0x0 DUP3 ADD CALLDATALOAD PUSH8 0xFFFFFFFFFFFFFFFF DUP2 GT ISZERO PUSH2 0x2A07 JUMPI PUSH1 0x0 DUP1 REVERT JUMPDEST PUSH2 0x2A13 DUP5 DUP3 DUP6 ADD PUSH2 0x1D5C JUMP JUMPDEST SWAP2 POP POP SWAP3 SWAP2 POP POP JUMP JUMPDEST PUSH1 0x0 PUSH1 0x20 DUP3 DUP5 SUB SLT ISZERO PUSH2 0x2A2E JUMPI PUSH1 0x0 DUP1 REVERT JUMPDEST PUSH1 0x0 DUP3 ADD CALLDATALOAD PUSH8 0xFFFFFFFFFFFFFFFF DUP2 GT ISZERO PUSH2 0x2A48 JUMPI PUSH1 0x0 DUP1 REVERT JUMPDEST PUSH2 0x2A54 DUP5 DUP3 DUP6 ADD PUSH2 0x1D86 JUMP JUMPDEST SWAP2 POP POP SWAP3 SWAP2 POP POP JUMP JUMPDEST PUSH1 0x0 PUSH1 0x20 DUP3 DUP5 SUB SLT ISZERO PUSH2 0x2A6F JUMPI PUSH1 0x0 DUP1 REVERT JUMPDEST PUSH1 0x0 DUP3 ADD CALLDATALOAD PUSH8 0xFFFFFFFFFFFFFFFF DUP2 GT ISZERO PUSH2 0x2A89 JUMPI PUSH1 0x0 DUP1 REVERT JUMPDEST PUSH2 0x2A95 DUP5 DUP3 DUP6 ADD PUSH2 0x1DB0 JUMP JUMPDEST SWAP2 POP POP SWAP3 SWAP2 POP POP JUMP JUMPDEST PUSH1 0x0 PUSH1 0x20 DUP3 DUP5 SUB SLT ISZERO PUSH2 0x2AB0 JUMPI PUSH1 0x0 DUP1 REVERT JUMPDEST PUSH1 0x0 PUSH2 0x2ABE DUP5 DUP3 DUP6 ADD PUSH2 0x1DDA JUMP JUMPDEST SWAP2 POP POP SWAP3 SWAP2 POP POP JUMP JUMPDEST PUSH1 0x0 PUSH1 0x20 DUP3 DUP5 SUB SLT ISZERO PUSH2 0x2AD9 JUMPI PUSH1 0x0 DUP1 REVERT JUMPDEST PUSH1 0x0 PUSH2 0x2AE7 DUP5 DUP3 DUP6 ADD PUSH2 0x1DEF JUMP JUMPDEST SWAP2 POP POP SWAP3 SWAP2 POP POP JUMP JUMPDEST PUSH1 0x0 PUSH1 0x20 DUP3 DUP5 SUB SLT ISZERO PUSH2 0x2B02 JUMPI PUSH1 0x0 DUP1 REVERT JUMPDEST PUSH1 0x0 DUP3 ADD CALLDATALOAD PUSH8 0xFFFFFFFFFFFFFFFF DUP2 GT ISZERO PUSH2 0x2B1C JUMPI PUSH1 0x0 DUP1 REVERT JUMPDEST PUSH2 0x2B28 DUP5 DUP3 DUP6 ADD PUSH2 0x1E04 JUMP JUMPDEST SWAP2 POP POP SWAP3 SWAP2 POP POP JUMP JUMPDEST PUSH1 0x0 PUSH1 0x20 DUP3 DUP5 SUB SLT ISZERO PUSH2 0x2B43 JUMPI PUSH1 0x0 DUP1 REVERT JUMPDEST PUSH1 0x0 PUSH2 0x2B51 DUP5 DUP3 DUP6 ADD PUSH2 0x1E2E JUMP JUMPDEST SWAP2 POP POP SWAP3 SWAP2 POP POP JUMP JUMPDEST PUSH1 0x0 PUSH1 0x20 DUP3 DUP5 SUB SLT ISZERO PUSH2 0x2B6C JUMPI PUSH1 0x0 DUP1 REVERT JUMPDEST PUSH1 0x0 PUSH2 0x2B7A DUP5 DUP3 DUP6 ADD PUSH2 0x1E43 JUMP JUMPDEST SWAP2 POP POP SWAP3 SWAP2 POP POP JUMP JUMPDEST PUSH1 0x0 PUSH1 0x20 DUP3 DUP5 SUB SLT ISZERO PUSH2 0x2B95 JUMPI PUSH1 0x0 DUP1 REVERT JUMPDEST PUSH1 0x0 PUSH2 0x2BA3 DUP5 DUP3 DUP6 ADD PUSH2 0x1E58 JUMP JUMPDEST SWAP2 POP POP SWAP3 SWAP2 POP POP JUMP JUMPDEST PUSH1 0x0 PUSH1 0x20 DUP3 DUP5 SUB SLT ISZERO PUSH2 0x2BBE JUMPI PUSH1 0x0 DUP1 REVERT JUMPDEST PUSH1 0x0 DUP3 ADD CALLDATALOAD PUSH8 0xFFFFFFFFFFFFFFFF DUP2 GT ISZERO PUSH2 0x2BD8 JUMPI PUSH1 0x0 DUP1 REVERT JUMPDEST PUSH2 0x2BE4 DUP5 DUP3 DUP6 ADD PUSH2 0x1E6D JUMP JUMPDEST SWAP2 POP POP SWAP3 SWAP2 POP POP JUMP JUMPDEST PUSH1 0x0 DUP1 PUSH1 0x0 DUP1 PUSH1 0x0 PUSH1 0xA0 DUP7 DUP9 SUB SLT ISZERO PUSH2 0x2C05 JUMPI PUSH1 0x0 DUP1 REVERT JUMPDEST PUSH1 0x0 DUP7 ADD CALLDATALOAD PUSH8 0xFFFFFFFFFFFFFFFF DUP2 GT ISZERO PUSH2 0x2C1F JUMPI PUSH1 0x0 DUP1 REVERT JUMPDEST PUSH2 0x2C2B DUP9 DUP3 DUP10 ADD PUSH2 0x1E6D JUMP JUMPDEST SWAP6 POP POP PUSH1 0x20 PUSH2 0x2C3C DUP9 DUP3 DUP10 ADD PUSH2 0x1C75 JUMP JUMPDEST SWAP5 POP POP PUSH1 0x40 PUSH2 0x2C4D DUP9 DUP3 DUP10 ADD PUSH2 0x1E58 JUMP JUMPDEST SWAP4 POP POP PUSH1 0x60 PUSH2 0x2C5E DUP9 DUP3 DUP10 ADD PUSH2 0x1C75 JUMP JUMPDEST SWAP3 POP POP PUSH1 0x80 DUP7 ADD CALLDATALOAD PUSH8 0xFFFFFFFFFFFFFFFF DUP2 GT ISZERO PUSH2 0x2C7B JUMPI PUSH1 0x0 DUP1 REVERT JUMPDEST PUSH2 0x2C87 DUP9 DUP3 DUP10 ADD PUSH2 0x1E04 JUMP JUMPDEST SWAP2 POP POP SWAP3 SWAP6 POP SWAP3 SWAP6 SWAP1 SWAP4 POP JUMP JUMPDEST PUSH1 0x0 PUSH1 0x20 DUP3 DUP5 SUB SLT ISZERO PUSH2 0x2CA6 JUMPI PUSH1 0x0 DUP1 REVERT JUMPDEST PUSH1 0x0 DUP3 ADD CALLDATALOAD PUSH8 0xFFFFFFFFFFFFFFFF DUP2 GT ISZERO PUSH2 0x2CC0 JUMPI PUSH1 0x0 DUP1 REVERT JUMPDEST PUSH2 0x2CCC DUP5 DUP3 DUP6 ADD PUSH2 0x1E97 JUMP JUMPDEST SWAP2 POP POP SWAP3 SWAP2 POP POP JUMP JUMPDEST PUSH1 0x0 PUSH1 0x20 DUP3 DUP5 SUB SLT ISZERO PUSH2 0x2CE7 JUMPI PUSH1 0x0 DUP1 REVERT JUMPDEST PUSH1 0x0 DUP3 ADD CALLDATALOAD PUSH8 0xFFFFFFFFFFFFFFFF DUP2 GT ISZERO PUSH2 0x2D01 JUMPI PUSH1 0x0 DUP1 REVERT JUMPDEST PUSH2 0x2D0D DUP5 DUP3 DUP6 ADD PUSH2 0x2183 JUMP JUMPDEST SWAP2 POP POP SWAP3 SWAP2 POP POP JUMP JUMPDEST PUSH1 0x0 PUSH1 0x40 DUP3 DUP5 SUB SLT ISZERO PUSH2 0x2D28 JUMPI PUSH1 0x0 DUP1 REVERT JUMPDEST PUSH1 0x0 PUSH2 0x2D36 DUP5 DUP3 DUP6 ADD PUSH2 0x2315 JUMP JUMPDEST SWAP2 POP POP SWAP3 SWAP2 POP POP JUMP JUMPDEST PUSH1 0x0 PUSH1 0x20 DUP3 DUP5 SUB SLT ISZERO PUSH2 0x2D51 JUMPI PUSH1 0x0 DUP1 REVERT JUMPDEST PUSH1 0x0 DUP3 ADD CALLDATALOAD PUSH8 0xFFFFFFFFFFFFFFFF DUP2 GT ISZERO PUSH2 0x2D6B JUMPI PUSH1 0x0 DUP1 REVERT JUMPDEST PUSH2 0x2D77 DUP5 DUP3 DUP6 ADD PUSH2 0x2361 JUMP JUMPDEST SWAP2 POP POP SWAP3 SWAP2 POP POP JUMP JUMPDEST PUSH1 0x0 PUSH1 0x20 DUP3 DUP5 SUB SLT ISZERO PUSH2 0x2D92 JUMPI PUSH1 0x0 DUP1 REVERT JUMPDEST PUSH1 0x0 DUP3 ADD CALLDATALOAD PUSH8 0xFFFFFFFFFFFFFFFF DUP2 GT ISZERO PUSH2 0x2DAC JUMPI PUSH1 0x0 DUP1 REVERT JUMPDEST PUSH2 0x2DB8 DUP5 DUP3 DUP6 ADD PUSH2 0x23C5 JUMP JUMPDEST SWAP2 POP POP SWAP3 SWAP2 POP POP JUMP JUMPDEST PUSH1 0x0 PUSH1 0xE0 DUP3 DUP5 SUB SLT ISZERO PUSH2 0x2DD3 JUMPI PUSH1 0x0 DUP1 REVERT JUMPDEST PUSH1 0x0 PUSH2 0x2DE1 DUP5 DUP3 DUP6 ADD PUSH2 0x252E JUMP JUMPDEST SWAP2 POP POP SWAP3 SWAP2 POP POP JUMP JUMPDEST PUSH1 0x0 PUSH2 0x140 DUP3 DUP5 SUB SLT ISZERO PUSH2 0x2DFD JUMPI PUSH1 0x0 DUP1 REVERT JUMPDEST PUSH1 0x0 PUSH2 0x2E0B DUP5 DUP3 DUP6 ADD PUSH2 0x25DE JUMP JUMPDEST SWAP2 POP POP SWAP3 SWAP2 POP POP JUMP JUMPDEST PUSH1 0x0 PUSH1 0x40 DUP3 DUP5 SUB SLT ISZERO PUSH2 0x2E26 JUMPI PUSH1 0x0 DUP1 REVERT JUMPDEST PUSH1 0x0 PUSH2 0x2E34 DUP5 DUP3 DUP6 ADD PUSH2 0x26A6 JUMP JUMPDEST SWAP2 POP POP SWAP3 SWAP2 POP POP JUMP JUMPDEST PUSH1 0x0 PUSH1 0x40 DUP3 DUP5 SUB SLT ISZERO PUSH2 0x2E4F JUMPI PUSH1 0x0 DUP1 REVERT JUMPDEST PUSH1 0x0 PUSH2 0x2E5D DUP5 DUP3 DUP6 ADD PUSH2 0x26F2 JUMP JUMPDEST SWAP2 POP POP SWAP3 SWAP2 POP POP JUMP JUMPDEST PUSH1 0x0 PUSH1 0x20 DUP3 DUP5 SUB SLT ISZERO PUSH2 0x2E78 JUMPI PUSH1 0x0 DUP1 REVERT JUMPDEST PUSH1 0x0 DUP3 ADD CALLDATALOAD PUSH8 0xFFFFFFFFFFFFFFFF DUP2 GT ISZERO PUSH2 0x2E92 JUMPI PUSH1 0x0 DUP1 REVERT JUMPDEST PUSH2 0x2E9E DUP5 DUP3 DUP6 ADD PUSH2 0x273E JUMP JUMPDEST SWAP2 POP POP SWAP3 SWAP2 POP POP JUMP JUMPDEST PUSH1 0x0 PUSH2 0x100 DUP3 DUP5 SUB SLT ISZERO PUSH2 0x2EBA JUMPI PUSH1 0x0 DUP1 REVERT JUMPDEST PUSH1 0x0 PUSH2 0x2EC8 DUP5 DUP3 DUP6 ADD PUSH2 0x27A2 JUMP JUMPDEST SWAP2 POP POP SWAP3 SWAP2 POP POP JUMP JUMPDEST PUSH1 0x0 PUSH1 0x20 DUP3 DUP5 SUB SLT ISZERO PUSH2 0x2EE3 JUMPI PUSH1 0x0 DUP1 REVERT JUMPDEST PUSH1 0x0 PUSH2 0x2EF1 DUP5 DUP3 DUP6 ADD PUSH2 0x27EF JUMP JUMPDEST SWAP2 POP POP SWAP3 SWAP2 POP POP JUMP JUMPDEST PUSH1 0x0 PUSH1 0x20 DUP3 DUP5 SUB SLT ISZERO PUSH2 0x2F0C JUMPI PUSH1 0x0 DUP1 REVERT JUMPDEST PUSH1 0x0 PUSH2 0x2F1A DUP5 DUP3 DUP6 ADD PUSH2 0x2819 JUMP JUMPDEST SWAP2 POP POP SWAP3 SWAP2 POP POP JUMP JUMPDEST PUSH1 0x0 PUSH1 0x20 DUP3 DUP5 SUB SLT ISZERO PUSH2 0x2F35 JUMPI PUSH1 0x0 DUP1 REVERT JUMPDEST PUSH1 0x0 PUSH2 0x2F43 DUP5 DUP3 DUP6 ADD PUSH2 0x282E JUMP JUMPDEST SWAP2 POP POP SWAP3 SWAP2 POP POP JUMP JUMPDEST PUSH1 0x0 PUSH1 0x20 DUP3 DUP5 SUB SLT ISZERO PUSH2 0x2F5E JUMPI PUSH1 0x0 DUP1 REVERT JUMPDEST PUSH1 0x0 PUSH2 0x2F6C DUP5 DUP3 DUP6 ADD PUSH2 0x2843 JUMP JUMPDEST SWAP2 POP POP SWAP3 SWAP2 POP POP JUMP JUMPDEST PUSH1 0x0 PUSH1 0x20 DUP3 DUP5 SUB SLT ISZERO PUSH2 0x2F87 JUMPI PUSH1 0x0 DUP1 REVERT JUMPDEST PUSH1 0x0 PUSH2 0x2F95 DUP5 DUP3 DUP6 ADD PUSH2 0x2858 JUMP JUMPDEST SWAP2 POP POP SWAP3 SWAP2 POP POP JUMP JUMPDEST PUSH2 0x2FAF PUSH2 0x2FAA DUP3 PUSH2 0x3919 JUMP JUMPDEST PUSH2 0x3A61 JUMP JUMPDEST DUP3 MSTORE POP POP JUMP JUMPDEST PUSH2 0x2FC6 PUSH2 0x2FC1 DUP3 PUSH2 0x392B JUMP JUMPDEST PUSH2 0x3A73 JUMP JUMPDEST DUP3 MSTORE POP POP JUMP JUMPDEST PUSH2 0x2FDD PUSH2 0x2FD8 DUP3 PUSH2 0x3937 JUMP JUMPDEST PUSH2 0x3A85 JUMP JUMPDEST DUP3 MSTORE POP POP JUMP JUMPDEST PUSH2 0x2FF4 PUSH2 0x2FEF DUP3 PUSH2 0x3963 JUMP JUMPDEST PUSH2 0x3A8F JUMP JUMPDEST DUP3 MSTORE POP POP JUMP JUMPDEST PUSH1 0x0 PUSH2 0x3005 DUP3 PUSH2 0x38DC JUMP JUMPDEST PUSH2 0x300F DUP2 DUP6 PUSH2 0x38F2 JUMP JUMPDEST SWAP4 POP PUSH2 0x301F DUP2 DUP6 PUSH1 0x20 DUP7 ADD PUSH2 0x3A2E JUMP JUMPDEST PUSH2 0x3028 DUP2 PUSH2 0x3B35 JUMP JUMPDEST DUP5 ADD SWAP2 POP POP SWAP3 SWAP2 POP POP JUMP JUMPDEST PUSH1 0x0 PUSH2 0x303E DUP3 PUSH2 0x38DC JUMP JUMPDEST PUSH2 0x3048 DUP2 DUP6 PUSH2 0x3903 JUMP JUMPDEST SWAP4 POP PUSH2 0x3058 DUP2 DUP6 PUSH1 0x20 DUP7 ADD PUSH2 0x3A2E JUMP JUMPDEST DUP1 DUP5 ADD SWAP2 POP POP SWAP3 SWAP2 POP POP JUMP JUMPDEST PUSH2 0x3075 PUSH2 0x3070 DUP3 PUSH2 0x398F JUMP JUMPDEST PUSH2 0x3A99 JUMP JUMPDEST DUP3 MSTORE POP POP JUMP JUMPDEST PUSH2 0x308C PUSH2 0x3087 DUP3 PUSH2 0x399C JUMP JUMPDEST PUSH2 0x3AAB JUMP JUMPDEST DUP3 MSTORE POP POP JUMP JUMPDEST PUSH2 0x30A3 PUSH2 0x309E DUP3 PUSH2 0x39A9 JUMP JUMPDEST PUSH2 0x3ABD JUMP JUMPDEST DUP3 MSTORE POP POP JUMP JUMPDEST PUSH1 0x0 PUSH2 0x30B4 DUP3 PUSH2 0x38E7 JUMP JUMPDEST PUSH2 0x30BE DUP2 DUP6 PUSH2 0x390E JUMP JUMPDEST SWAP4 POP PUSH2 0x30CE DUP2 DUP6 PUSH1 0x20 DUP7 ADD PUSH2 0x3A2E JUMP JUMPDEST DUP1 DUP5 ADD SWAP2 POP POP SWAP3 SWAP2 POP POP JUMP JUMPDEST PUSH2 0x30EB PUSH2 0x30E6 DUP3 PUSH2 0x39C4 JUMP JUMPDEST PUSH2 0x3AE1 JUMP JUMPDEST DUP3 MSTORE POP POP JUMP JUMPDEST PUSH2 0x3102 PUSH2 0x30FD DUP3 PUSH2 0x39B6 JUMP JUMPDEST PUSH2 0x3ACF JUMP JUMPDEST DUP3 MSTORE POP POP JUMP JUMPDEST PUSH2 0x3119 PUSH2 0x3114 DUP3 PUSH2 0x39E4 JUMP JUMPDEST PUSH2 0x3AF3 JUMP JUMPDEST DUP3 MSTORE POP POP JUMP JUMPDEST PUSH2 0x3130 PUSH2 0x312B DUP3 PUSH2 0x39EE JUMP JUMPDEST PUSH2 0x3AFD JUMP JUMPDEST DUP3 MSTORE POP POP JUMP JUMPDEST PUSH2 0x3147 PUSH2 0x3142 DUP3 PUSH2 0x39FE JUMP JUMPDEST PUSH2 0x3B0F JUMP JUMPDEST DUP3 MSTORE POP POP JUMP JUMPDEST PUSH2 0x315E PUSH2 0x3159 DUP3 PUSH2 0x3A12 JUMP JUMPDEST PUSH2 0x3B21 JUMP JUMPDEST DUP3 MSTORE POP POP JUMP JUMPDEST PUSH1 0x0 PUSH2 0x3170 DUP3 DUP5 PUSH2 0x2F9E JUMP JUMPDEST PUSH1 0x14 DUP3 ADD SWAP2 POP DUP2 SWAP1 POP SWAP3 SWAP2 POP POP JUMP JUMPDEST PUSH1 0x0 PUSH2 0x318B DUP3 DUP5 PUSH2 0x2FB5 JUMP JUMPDEST PUSH1 0x1 DUP3 ADD SWAP2 POP DUP2 SWAP1 POP SWAP3 SWAP2 POP POP JUMP JUMPDEST PUSH1 0x0 PUSH2 0x31A6 DUP3 DUP5 PUSH2 0x2FE3 JUMP JUMPDEST PUSH1 0x14 DUP3 ADD SWAP2 POP DUP2 SWAP1 POP SWAP3 SWAP2 POP POP JUMP JUMPDEST PUSH1 0x0 PUSH2 0x31C1 DUP3 DUP6 PUSH2 0x3033 JUMP JUMPDEST SWAP2 POP PUSH2 0x31CD DUP3 DUP5 PUSH2 0x2FCC JUMP JUMPDEST PUSH1 0x1 DUP3 ADD SWAP2 POP DUP2 SWAP1 POP SWAP4 SWAP3 POP POP POP JUMP JUMPDEST PUSH1 0x0 PUSH2 0x31E9 DUP3 DUP6 PUSH2 0x3033 JUMP JUMPDEST SWAP2 POP PUSH2 0x31F5 DUP3 DUP5 PUSH2 0x3033 JUMP JUMPDEST SWAP2 POP DUP2 SWAP1 POP SWAP4 SWAP3 POP POP POP JUMP JUMPDEST PUSH1 0x0 PUSH2 0x320D DUP3 DUP7 PUSH2 0x3033 JUMP JUMPDEST SWAP2 POP PUSH2 0x3219 DUP3 DUP6 PUSH2 0x3033 JUMP JUMPDEST SWAP2 POP PUSH2 0x3225 DUP3 DUP5 PUSH2 0x3033 JUMP JUMPDEST SWAP2 POP DUP2 SWAP1 POP SWAP5 SWAP4 POP POP POP POP JUMP JUMPDEST PUSH1 0x0 PUSH2 0x323E DUP3 DUP9 PUSH2 0x3033 JUMP JUMPDEST SWAP2 POP PUSH2 0x324A DUP3 DUP8 PUSH2 0x3033 JUMP JUMPDEST SWAP2 POP PUSH2 0x3256 DUP3 DUP7 PUSH2 0x3033 JUMP JUMPDEST SWAP2 POP PUSH2 0x3262 DUP3 DUP6 PUSH2 0x3033 JUMP JUMPDEST SWAP2 POP PUSH2 0x326E DUP3 DUP5 PUSH2 0x3033 JUMP JUMPDEST SWAP2 POP DUP2 SWAP1 POP SWAP7 SWAP6 POP POP POP POP POP POP JUMP JUMPDEST PUSH1 0x0 PUSH2 0x3289 DUP3 DUP10 PUSH2 0x3033 JUMP JUMPDEST SWAP2 POP PUSH2 0x3295 DUP3 DUP9 PUSH2 0x3033 JUMP JUMPDEST SWAP2 POP PUSH2 0x32A1 DUP3 DUP8 PUSH2 0x3033 JUMP JUMPDEST SWAP2 POP PUSH2 0x32AD DUP3 DUP7 PUSH2 0x3033 JUMP JUMPDEST SWAP2 POP PUSH2 0x32B9 DUP3 DUP6 PUSH2 0x3033 JUMP JUMPDEST SWAP2 POP PUSH2 0x32C5 DUP3 DUP5 PUSH2 0x3033 JUMP JUMPDEST SWAP2 POP DUP2 SWAP1 POP SWAP8 SWAP7 POP POP POP POP POP POP POP JUMP JUMPDEST PUSH1 0x0 PUSH2 0x32E1 DUP3 DUP11 PUSH2 0x3033 JUMP JUMPDEST SWAP2 POP PUSH2 0x32ED DUP3 DUP10 PUSH2 0x3033 JUMP JUMPDEST SWAP2 POP PUSH2 0x32F9 DUP3 DUP9 PUSH2 0x3033 JUMP JUMPDEST SWAP2 POP PUSH2 0x3305 DUP3 DUP8 PUSH2 0x3033 JUMP JUMPDEST SWAP2 POP PUSH2 0x3311 DUP3 DUP7 PUSH2 0x3033 JUMP JUMPDEST SWAP2 POP PUSH2 0x331D DUP3 DUP6 PUSH2 0x3033 JUMP JUMPDEST SWAP2 POP PUSH2 0x3329 DUP3 DUP5 PUSH2 0x3033 JUMP JUMPDEST SWAP2 POP DUP2 SWAP1 POP SWAP9 SWAP8 POP POP POP POP POP POP POP POP JUMP JUMPDEST PUSH1 0x0 PUSH2 0x3346 DUP3 DUP12 PUSH2 0x3033 JUMP JUMPDEST SWAP2 POP PUSH2 0x3352 DUP3 DUP11 PUSH2 0x3033 JUMP JUMPDEST SWAP2 POP PUSH2 0x335E DUP3 DUP10 PUSH2 0x3033 JUMP JUMPDEST SWAP2 POP PUSH2 0x336A DUP3 DUP9 PUSH2 0x3033 JUMP JUMPDEST SWAP2 POP PUSH2 0x3376 DUP3 DUP8 PUSH2 0x3033 JUMP JUMPDEST SWAP2 POP PUSH2 0x3382 DUP3 DUP7 PUSH2 0x3033 JUMP JUMPDEST SWAP2 POP PUSH2 0x338E DUP3 DUP6 PUSH2 0x3033 JUMP JUMPDEST SWAP2 POP PUSH2 0x339A DUP3 DUP5 PUSH2 0x2FCC JUMP JUMPDEST PUSH1 0x1 DUP3 ADD SWAP2 POP DUP2 SWAP1 POP SWAP10 SWAP9 POP POP POP POP POP POP POP POP POP JUMP JUMPDEST PUSH1 0x0 PUSH2 0x33BC DUP3 DUP15 PUSH2 0x3033 JUMP JUMPDEST SWAP2 POP PUSH2 0x33C8 DUP3 DUP14 PUSH2 0x3033 JUMP JUMPDEST SWAP2 POP PUSH2 0x33D4 DUP3 DUP13 PUSH2 0x3033 JUMP JUMPDEST SWAP2 POP PUSH2 0x33E0 DUP3 DUP12 PUSH2 0x3033 JUMP JUMPDEST SWAP2 POP PUSH2 0x33EC DUP3 DUP11 PUSH2 0x3033 JUMP JUMPDEST SWAP2 POP PUSH2 0x33F8 DUP3 DUP10 PUSH2 0x3033 JUMP JUMPDEST SWAP2 POP PUSH2 0x3404 DUP3 DUP9 PUSH2 0x3033 JUMP JUMPDEST SWAP2 POP PUSH2 0x3410 DUP3 DUP8 PUSH2 0x3033 JUMP JUMPDEST SWAP2 POP PUSH2 0x341C DUP3 DUP7 PUSH2 0x3033 JUMP JUMPDEST SWAP2 POP PUSH2 0x3428 DUP3 DUP6 PUSH2 0x3033 JUMP JUMPDEST SWAP2 POP PUSH2 0x3434 DUP3 DUP5 PUSH2 0x3033 JUMP JUMPDEST SWAP2 POP DUP2 SWAP1 POP SWAP13 SWAP12 POP POP POP POP POP POP POP POP POP POP POP POP JUMP JUMPDEST PUSH1 0x0 PUSH2 0x3455 DUP3 DUP16 PUSH2 0x3033 JUMP JUMPDEST SWAP2 POP PUSH2 0x3461 DUP3 DUP15 PUSH2 0x3033 JUMP JUMPDEST SWAP2 POP PUSH2 0x346D DUP3 DUP14 PUSH2 0x3033 JUMP JUMPDEST SWAP2 POP PUSH2 0x3479 DUP3 DUP13 PUSH2 0x3033 JUMP JUMPDEST SWAP2 POP PUSH2 0x3485 DUP3 DUP12 PUSH2 0x3033 JUMP JUMPDEST SWAP2 POP PUSH2 0x3491 DUP3 DUP11 PUSH2 0x3033 JUMP JUMPDEST SWAP2 POP PUSH2 0x349D DUP3 DUP10 PUSH2 0x3033 JUMP JUMPDEST SWAP2 POP PUSH2 0x34A9 DUP3 DUP9 PUSH2 0x3033 JUMP JUMPDEST SWAP2 POP PUSH2 0x34B5 DUP3 DUP8 PUSH2 0x3033 JUMP JUMPDEST SWAP2 POP PUSH2 0x34C1 DUP3 DUP7 PUSH2 0x3033 JUMP JUMPDEST SWAP2 POP PUSH2 0x34CD DUP3 DUP6 PUSH2 0x3033 JUMP JUMPDEST SWAP2 POP PUSH2 0x34D9 DUP3 DUP5 PUSH2 0x3033 JUMP JUMPDEST SWAP2 POP DUP2 SWAP1 POP SWAP14 SWAP13 POP POP POP POP POP POP POP POP POP POP POP POP POP JUMP JUMPDEST PUSH1 0x0 PUSH2 0x34FB DUP3 DUP6 PUSH2 0x3033 JUMP JUMPDEST SWAP2 POP PUSH2 0x3507 DUP3 DUP5 PUSH2 0x307B JUMP JUMPDEST PUSH1 0x4 DUP3 ADD SWAP2 POP DUP2 SWAP1 POP SWAP4 SWAP3 POP POP POP JUMP JUMPDEST PUSH1 0x0 PUSH2 0x3523 DUP3 DUP5 PUSH2 0x3064 JUMP JUMPDEST PUSH1 0x2 DUP3 ADD SWAP2 POP DUP2 SWAP1 POP SWAP3 SWAP2 POP POP JUMP JUMPDEST PUSH1 0x0 PUSH2 0x353E DUP3 DUP5 PUSH2 0x307B JUMP JUMPDEST PUSH1 0x4 DUP3 ADD SWAP2 POP DUP2 SWAP1 POP SWAP3 SWAP2 POP POP JUMP JUMPDEST PUSH1 0x0 PUSH2 0x3559 DUP3 DUP5 PUSH2 0x3092 JUMP JUMPDEST PUSH1 0x8 DUP3 ADD SWAP2 POP DUP2 SWAP1 POP SWAP3 SWAP2 POP POP JUMP JUMPDEST PUSH1 0x0 PUSH2 0x3574 DUP3 DUP5 PUSH2 0x30A9 JUMP JUMPDEST SWAP2 POP DUP2 SWAP1 POP SWAP3 SWAP2 POP POP JUMP JUMPDEST PUSH1 0x0 PUSH2 0x358B DUP3 DUP6 PUSH2 0x30A9 JUMP JUMPDEST SWAP2 POP PUSH2 0x3597 DUP3 DUP5 PUSH2 0x3033 JUMP JUMPDEST SWAP2 POP DUP2 SWAP1 POP SWAP4 SWAP3 POP POP POP JUMP JUMPDEST PUSH1 0x0 PUSH2 0x35AF DUP3 DUP5 PUSH2 0x30DA JUMP JUMPDEST PUSH1 0x14 DUP3 ADD SWAP2 POP DUP2 SWAP1 POP SWAP3 SWAP2 POP POP JUMP JUMPDEST PUSH1 0x0 PUSH2 0x35CA DUP3 DUP5 PUSH2 0x30F1 JUMP JUMPDEST PUSH1 0x2 DUP3 ADD SWAP2 POP DUP2 SWAP1 POP SWAP3 SWAP2 POP POP JUMP JUMPDEST PUSH1 0x0 PUSH2 0x35E5 DUP3 DUP5 PUSH2 0x3108 JUMP JUMPDEST PUSH1 0x20 DUP3 ADD SWAP2 POP DUP2 SWAP1 POP SWAP3 SWAP2 POP POP JUMP JUMPDEST PUSH1 0x0 PUSH2 0x3600 DUP3 DUP5 PUSH2 0x311F JUMP JUMPDEST PUSH1 0x4 DUP3 ADD SWAP2 POP DUP2 SWAP1 POP SWAP3 SWAP2 POP POP JUMP JUMPDEST PUSH1 0x0 PUSH2 0x361B DUP3 DUP5 PUSH2 0x3136 JUMP JUMPDEST PUSH1 0x8 DUP3 ADD SWAP2 POP DUP2 SWAP1 POP SWAP3 SWAP2 POP POP JUMP JUMPDEST PUSH1 0x0 PUSH2 0x3636 DUP3 DUP5 PUSH2 0x314D JUMP JUMPDEST PUSH1 0x1 DUP3 ADD SWAP2 POP DUP2 SWAP1 POP SWAP3 SWAP2 POP POP JUMP JUMPDEST PUSH1 0x0 PUSH2 0x3651 DUP3 DUP6 PUSH2 0x314D JUMP JUMPDEST PUSH1 0x1 DUP3 ADD SWAP2 POP PUSH2 0x3661 DUP3 DUP5 PUSH2 0x30F1 JUMP JUMPDEST PUSH1 0x2 DUP3 ADD SWAP2 POP DUP2 SWAP1 POP SWAP4 SWAP3 POP POP POP JUMP JUMPDEST PUSH1 0x0 PUSH2 0x367D DUP3 DUP6 PUSH2 0x314D JUMP JUMPDEST PUSH1 0x1 DUP3 ADD SWAP2 POP PUSH2 0x368D DUP3 DUP5 PUSH2 0x311F JUMP JUMPDEST PUSH1 0x4 DUP3 ADD SWAP2 POP DUP2 SWAP1 POP SWAP4 SWAP3 POP POP POP JUMP JUMPDEST PUSH1 0x0 PUSH2 0x36A9 DUP3 DUP6 PUSH2 0x314D JUMP JUMPDEST PUSH1 0x1 DUP3 ADD SWAP2 POP PUSH2 0x36B9 DUP3 DUP5 PUSH2 0x3136 JUMP JUMPDEST PUSH1 0x8 DUP3 ADD SWAP2 POP DUP2 SWAP1 POP SWAP4 SWAP3 POP POP POP JUMP JUMPDEST PUSH1 0x0 PUSH1 0x20 DUP3 ADD SWAP1 POP DUP2 DUP2 SUB PUSH1 0x0 DUP4 ADD MSTORE PUSH2 0x36E3 DUP2 DUP5 PUSH2 0x2FFA JUMP JUMPDEST SWAP1 POP SWAP3 SWAP2 POP POP JUMP JUMPDEST PUSH1 0x0 PUSH1 0x40 MLOAD SWAP1 POP DUP2 DUP2 ADD DUP2 DUP2 LT PUSH8 0xFFFFFFFFFFFFFFFF DUP3 GT OR ISZERO PUSH2 0x3712 JUMPI PUSH2 0x3711 PUSH2 0x3B33 JUMP JUMPDEST JUMPDEST DUP1 PUSH1 0x40 MSTORE POP SWAP2 SWAP1 POP JUMP JUMPDEST PUSH1 0x0 PUSH8 0xFFFFFFFFFFFFFFFF DUP3 GT ISZERO PUSH2 0x3737 JUMPI PUSH2 0x3736 PUSH2 0x3B33 JUMP JUMPDEST JUMPDEST PUSH1 0x20 DUP3 MUL SWAP1 POP PUSH1 0x20 DUP2 ADD SWAP1 POP SWAP2 SWAP1 POP JUMP JUMPDEST PUSH1 0x0 PUSH8 0xFFFFFFFFFFFFFFFF DUP3 GT ISZERO PUSH2 0x3763 JUMPI PUSH2 0x3762 PUSH2 0x3B33 JUMP JUMPDEST JUMPDEST PUSH1 0x20 DUP3 MUL SWAP1 POP PUSH1 0x20 DUP2 ADD SWAP1 POP SWAP2 SWAP1 POP JUMP JUMPDEST PUSH1 0x0 PUSH8 0xFFFFFFFFFFFFFFFF DUP3 GT ISZERO PUSH2 0x378F JUMPI PUSH2 0x378E PUSH2 0x3B33 JUMP JUMPDEST JUMPDEST PUSH1 0x20 DUP3 MUL SWAP1 POP PUSH1 0x20 DUP2 ADD SWAP1 POP SWAP2 SWAP1 POP JUMP JUMPDEST PUSH1 0x0 PUSH8 0xFFFFFFFFFFFFFFFF DUP3 GT ISZERO PUSH2 0x37BB JUMPI PUSH2 0x37BA PUSH2 0x3B33 JUMP JUMPDEST JUMPDEST PUSH1 0x20 DUP3 MUL SWAP1 POP PUSH1 0x20 DUP2 ADD SWAP1 POP SWAP2 SWAP1 POP JUMP JUMPDEST PUSH1 0x0 PUSH8 0xFFFFFFFFFFFFFFFF DUP3 GT ISZERO PUSH2 0x37E7 JUMPI PUSH2 0x37E6 PUSH2 0x3B33 JUMP JUMPDEST JUMPDEST PUSH1 0x20 DUP3 MUL SWAP1 POP PUSH1 0x20 DUP2 ADD SWAP1 POP SWAP2 SWAP1 POP JUMP JUMPDEST PUSH1 0x0 PUSH8 0xFFFFFFFFFFFFFFFF DUP3 GT ISZERO PUSH2 0x3813 JUMPI PUSH2 0x3812 PUSH2 0x3B33 JUMP JUMPDEST JUMPDEST PUSH1 0x20 DUP3 MUL SWAP1 POP PUSH1 0x20 DUP2 ADD SWAP1 POP SWAP2 SWAP1 POP JUMP JUMPDEST PUSH1 0x0 PUSH8 0xFFFFFFFFFFFFFFFF DUP3 GT ISZERO PUSH2 0x383F JUMPI PUSH2 0x383E PUSH2 0x3B33 JUMP JUMPDEST JUMPDEST PUSH1 0x20 DUP3 MUL SWAP1 POP PUSH1 0x20 DUP2 ADD SWAP1 POP SWAP2 SWAP1 POP JUMP JUMPDEST PUSH1 0x0 PUSH8 0xFFFFFFFFFFFFFFFF DUP3 GT ISZERO PUSH2 0x386B JUMPI PUSH2 0x386A PUSH2 0x3B33 JUMP JUMPDEST JUMPDEST PUSH1 0x20 DUP3 MUL SWAP1 POP PUSH1 0x20 DUP2 ADD SWAP1 POP SWAP2 SWAP1 POP JUMP JUMPDEST PUSH1 0x0 PUSH8 0xFFFFFFFFFFFFFFFF DUP3 GT ISZERO PUSH2 0x3897 JUMPI PUSH2 0x3896 PUSH2 0x3B33 JUMP JUMPDEST JUMPDEST PUSH1 0x1F NOT PUSH1 0x1F DUP4 ADD AND SWAP1 POP PUSH1 0x20 DUP2 ADD SWAP1 POP SWAP2 SWAP1 POP JUMP JUMPDEST PUSH1 0x0 PUSH8 0xFFFFFFFFFFFFFFFF DUP3 GT ISZERO PUSH2 0x38C7 JUMPI PUSH2 0x38C6 PUSH2 0x3B33 JUMP JUMPDEST JUMPDEST PUSH1 0x1F NOT PUSH1 0x1F DUP4 ADD AND SWAP1 POP PUSH1 0x20 DUP2 ADD SWAP1 POP SWAP2 SWAP1 POP JUMP JUMPDEST PUSH1 0x0 DUP2 MLOAD SWAP1 POP SWAP2 SWAP1 POP JUMP JUMPDEST PUSH1 0x0 DUP2 MLOAD SWAP1 POP SWAP2 SWAP1 POP JUMP JUMPDEST PUSH1 0x0 DUP3 DUP3 MSTORE PUSH1 0x20 DUP3 ADD SWAP1 POP SWAP3 SWAP2 POP POP JUMP JUMPDEST PUSH1 0x0 DUP2 SWAP1 POP SWAP3 SWAP2 POP POP JUMP JUMPDEST PUSH1 0x0 DUP2 SWAP1 POP SWAP3 SWAP2 POP POP JUMP JUMPDEST PUSH1 0x0 PUSH2 0x3924 DUP3 PUSH2 0x39C4 JUMP JUMPDEST SWAP1 POP SWAP2 SWAP1 POP JUMP JUMPDEST PUSH1 0x0 DUP2 ISZERO ISZERO SWAP1 POP SWAP2 SWAP1 POP JUMP JUMPDEST PUSH1 0x0 PUSH32 0xFF00000000000000000000000000000000000000000000000000000000000000 DUP3 AND SWAP1 POP SWAP2 SWAP1 POP JUMP JUMPDEST PUSH1 0x0 PUSH32 0xFFFFFFFFFFFFFFFFFFFFFFFFFFFFFFFFFFFFFFFF000000000000000000000000 DUP3 AND SWAP1 POP SWAP2 SWAP1 POP JUMP JUMPDEST PUSH1 0x0 DUP2 PUSH1 0x1 SIGNEXTEND SWAP1 POP SWAP2 SWAP1 POP JUMP JUMPDEST PUSH1 0x0 DUP2 PUSH1 0x3 SIGNEXTEND SWAP1 POP SWAP2 SWAP1 POP JUMP JUMPDEST PUSH1 0x0 DUP2 PUSH1 0x7 SIGNEXTEND SWAP1 POP SWAP2 SWAP1 POP JUMP JUMPDEST PUSH1 0x0 PUSH2 0xFFFF DUP3 AND SWAP1 POP SWAP2 SWAP1 POP JUMP JUMPDEST PUSH1 0x0 PUSH20 0xFFFFFFFFFFFFFFFFFFFFFFFFFFFFFFFFFFFFFFFF DUP3 AND SWAP1 POP SWAP2 SWAP1 POP JUMP JUMPDEST PUSH1 0x0 DUP2 SWAP1 POP SWAP2 SWAP1 POP JUMP JUMPDEST PUSH1 0x0 PUSH4 0xFFFFFFFF DUP3 AND SWAP1 POP SWAP2 SWAP1 POP JUMP JUMPDEST PUSH1 0x0 PUSH8 0xFFFFFFFFFFFFFFFF DUP3 AND SWAP1 POP SWAP2 SWAP1 POP JUMP JUMPDEST PUSH1 0x0 PUSH1 0xFF DUP3 AND SWAP1 POP SWAP2 SWAP1 POP JUMP JUMPDEST DUP3 DUP2 DUP4 CALLDATACOPY PUSH1 0x0 DUP4 DUP4 ADD MSTORE POP POP POP JUMP JUMPDEST PUSH1 0x0 JUMPDEST DUP4 DUP2 LT ISZERO PUSH2 0x3A4C JUMPI DUP1 DUP3 ADD MLOAD DUP2 DUP5 ADD MSTORE PUSH1 0x20 DUP2 ADD SWAP1 POP PUSH2 0x3A31 JUMP JUMPDEST DUP4 DUP2 GT ISZERO PUSH2 0x3A5B JUMPI PUSH1 0x0 DUP5 DUP5 ADD MSTORE JUMPDEST POP POP POP POP JUMP JUMPDEST PUSH1 0x0 PUSH2 0x3A6C DUP3 PUSH2 0x3AE1 JUMP JUMPDEST SWAP1 POP SWAP2 SWAP1 POP JUMP JUMPDEST PUSH1 0x0 PUSH2 0x3A7E DUP3 PUSH2 0x3B21 JUMP JUMPDEST SWAP1 POP SWAP2 SWAP1 POP JUMP JUMPDEST PUSH1 0x0 DUP2 SWAP1 POP SWAP2 SWAP1 POP JUMP JUMPDEST PUSH1 0x0 DUP2 SWAP1 POP SWAP2 SWAP1 POP JUMP JUMPDEST PUSH1 0x0 PUSH2 0x3AA4 DUP3 PUSH2 0x3B60 JUMP JUMPDEST SWAP1 POP SWAP2 SWAP1 POP JUMP JUMPDEST PUSH1 0x0 PUSH2 0x3AB6 DUP3 PUSH2 0x3B53 JUMP JUMPDEST SWAP1 POP SWAP2 SWAP1 POP JUMP JUMPDEST PUSH1 0x0 PUSH2 0x3AC8 DUP3 PUSH2 0x3B46 JUMP JUMPDEST SWAP1 POP SWAP2 SWAP1 POP JUMP JUMPDEST PUSH1 0x0 PUSH2 0x3ADA DUP3 PUSH2 0x3B60 JUMP JUMPDEST SWAP1 POP SWAP2 SWAP1 POP JUMP JUMPDEST PUSH1 0x0 PUSH2 0x3AEC DUP3 PUSH2 0x3B7A JUMP JUMPDEST SWAP1 POP SWAP2 SWAP1 POP JUMP JUMPDEST PUSH1 0x0 DUP2 SWAP1 POP SWAP2 SWAP1 POP JUMP JUMPDEST PUSH1 0x0 PUSH2 0x3B08 DUP3 PUSH2 0x3B53 JUMP JUMPDEST SWAP1 POP SWAP2 SWAP1 POP JUMP JUMPDEST PUSH1 0x0 PUSH2 0x3B1A DUP3 PUSH2 0x3B46 JUMP JUMPDEST SWAP1 POP SWAP2 SWAP1 POP JUMP JUMPDEST PUSH1 0x0 PUSH2 0x3B2C DUP3 PUSH2 0x3B6D JUMP JUMPDEST SWAP1 POP SWAP2 SWAP1 POP JUMP JUMPDEST INVALID JUMPDEST PUSH1 0x0 PUSH1 0x1F NOT PUSH1 0x1F DUP4 ADD AND SWAP1 POP SWAP2 SWAP1 POP JUMP JUMPDEST PUSH1 0x0 DUP2 PUSH1 0xC0 SHL SWAP1 POP SWAP2 SWAP1 POP JUMP JUMPDEST PUSH1 0x0 DUP2 PUSH1 0xE0 SHL SWAP1 POP SWAP2 SWAP1 POP JUMP JUMPDEST PUSH1 0x0 DUP2 PUSH1 0xF0 SHL SWAP1 POP SWAP2 SWAP1 POP JUMP JUMPDEST PUSH1 0x0 DUP2 PUSH1 0xF8 SHL SWAP1 POP SWAP2 SWAP1 POP JUMP JUMPDEST PUSH1 0x0 DUP2 PUSH1 0x60 SHL SWAP1 POP SWAP2 SWAP1 POP JUMP JUMPDEST PUSH2 0x3B90 DUP2 PUSH2 0x3919 JUMP JUMPDEST DUP2 EQ PUSH2 0x3B9B JUMPI PUSH1 0x0 DUP1 REVERT JUMPDEST POP JUMP JUMPDEST PUSH2 0x3BA7 DUP2 PUSH2 0x392B JUMP JUMPDEST DUP2 EQ PUSH2 0x3BB2 JUMPI PUSH1 0x0 DUP1 REVERT JUMPDEST POP JUMP JUMPDEST PUSH2 0x3BBE DUP2 PUSH2 0x3963 JUMP JUMPDEST DUP2 EQ PUSH2 0x3BC9 JUMPI PUSH1 0x0 DUP1 REVERT JUMPDEST POP JUMP JUMPDEST PUSH2 0x3BD5 DUP2 PUSH2 0x398F JUMP JUMPDEST DUP2 EQ PUSH2 0x3BE0 JUMPI PUSH1 0x0 DUP1 REVERT JUMPDEST POP JUMP JUMPDEST PUSH2 0x3BEC DUP2 PUSH2 0x399C JUMP JUMPDEST DUP2 EQ PUSH2 0x3BF7 JUMPI PUSH1 0x0 DUP1 REVERT JUMPDEST POP JUMP JUMPDEST PUSH2 0x3C03 DUP2 PUSH2 0x39A9 JUMP JUMPDEST DUP2 EQ PUSH2 0x3C0E JUMPI PUSH1 0x0 DUP1 REVERT JUMPDEST POP JUMP JUMPDEST PUSH2 0x3C1A DUP2 PUSH2 0x39B6 JUMP JUMPDEST DUP2 EQ PUSH2 0x3C25 JUMPI PUSH1 0x0 DUP1 REVERT JUMPDEST POP JUMP JUMPDEST PUSH2 0x3C31 DUP2 PUSH2 0x39C4 JUMP JUMPDEST DUP2 EQ PUSH2 0x3C3C JUMPI PUSH1 0x0 DUP1 REVERT JUMPDEST POP JUMP JUMPDEST PUSH2 0x3C48 DUP2 PUSH2 0x39E4 JUMP JUMPDEST DUP2 EQ PUSH2 0x3C53 JUMPI PUSH1 0x0 DUP1 REVERT JUMPDEST POP JUMP JUMPDEST PUSH2 0x3C5F DUP2 PUSH2 0x39EE JUMP JUMPDEST DUP2 EQ PUSH2 0x3C6A JUMPI PUSH1 0x0 DUP1 REVERT JUMPDEST POP JUMP JUMPDEST PUSH2 0x3C76 DUP2 PUSH2 0x39FE JUMP JUMPDEST DUP2 EQ PUSH2 0x3C81 JUMPI PUSH1 0x0 DUP1 REVERT JUMPDEST POP JUMP JUMPDEST PUSH2 0x3C8D DUP2 PUSH2 0x3A12 JUMP JUMPDEST DUP2 EQ PUSH2 0x3C98 JUMPI PUSH1 0x0 DUP1 REVERT JUMPDEST POP JUMP INVALID LOG2 PUSH5 0x6970667358 0x22 SLT KECCAK256 PUSH1 0xDB 0xBC BYTE CALLCODE 0xB6 0x24 0xD4 CODESIZE MUL BYTE PUSH26 0xF26A503741D7982586099DA5946FD5E54114BDBB64736F6C6343 STOP SMOD MOD STOP CALLER "
		},
		"gasEstimates": {
			"creation": {
				"codeDepositCost": "3113800",
				"executionCost": "3436",
				"totalCost": "3117236"
			},
			"external": {
				"flipArray(bytes)": "infinite",
				"serializeAddress(address)": "infinite",
				"serializeBool(bool)": "infinite",
				"serializeBytes20(bytes20)": "infinite",
				"serializeCCoinbaseCurrencyState((uint16,uint16,address,uint160[],int32[],int64[],int64,int64,int64,int64,int64,int64,int64,int64[],int64[],int64[],int64[],int64[],int64[],int64[],int32[]))": "infinite",
				"serializeCCrossChainExport((uint32,uint32,address,uint32,uint32,address,address,uint32,(address,uint64)[],(address,uint64)[],uint256,(address,uint64)[],address,int32))": "infinite",
				"serializeCCurrencyValueMap((address,uint64))": "infinite",
				"serializeCCurrencyValueMaps((address,uint64)[])": "infinite",
				"serializeCNodeData((string,address))": "infinite",
				"serializeCPBaaSNotarization((uint32,(uint32,address),uint32,(uint16,uint16,address,uint160[],int32[],int64[],int64,int64,int64,int64,int64,int64,int64,int64[],int64[],int64[],int64[],int64[],int64[],int64[],int32[]),uint256,int64,uint256,uint64,(address,(uint16,uint16,address,uint160[],int32[],int64[],int64,int64,int64,int64,int64,int64,int64,int64[],int64[],int64[],int64[],int64[],int64[],int64[],int32[]))[],(address,(int16,int16,address,uint32,uint256,uint256,uint256))[],(string,address)[]))": "infinite",
				"serializeCProofRoot((int16,int16,address,uint32,uint256,uint256,uint256))": "infinite",
				"serializeCReserveTransfer((uint32,(address,uint64),uint32,address,uint256,(uint32,address),address,address))": "infinite",
				"serializeCReserveTransfers((uint32,(address,uint64),uint32,address,uint256,(uint32,address),address,address)[])": "infinite",
				"serializeCTransferDestination((uint32,address))": "infinite",
				"serializeCUTXORef((uint256,uint32))": "infinite",
				"serializeCurrencyStates((address,(uint16,uint16,address,uint160[],int32[],int64[],int64,int64,int64,int64,int64,int64,int64,int64[],int64[],int64[],int64[],int64[],int64[],int64[],int32[])))": "infinite",
				"serializeCurrencyStatesArray((address,(uint16,uint16,address,uint160[],int32[],int64[],int64,int64,int64,int64,int64,int64,int64,int64[],int64[],int64[],int64[],int64[],int64[],int64[],int32[]))[])": "infinite",
				"serializeInt16(int16)": "infinite",
				"serializeInt32(int32)": "infinite",
				"serializeInt32Array(int32[])": "infinite",
				"serializeInt64(int64)": "infinite",
				"serializeInt64Array(int64[])": "infinite",
				"serializeNodes((string,address)[])": "infinite",
				"serializeProofRoots((address,(int16,int16,address,uint32,uint256,uint256,uint256)))": "infinite",
				"serializeProofRootsArray((address,(int16,int16,address,uint32,uint256,uint256,uint256))[])": "infinite",
				"serializeString(string)": "infinite",
				"serializeUint16(uint16)": "infinite",
				"serializeUint160(address)": "infinite",
				"serializeUint160Array(uint160[])": "infinite",
				"serializeUint256(uint256)": "infinite",
				"serializeUint32(uint32)": "infinite",
				"serializeUint64(uint64)": "infinite",
				"serializeUint8(uint8)": "infinite",
				"verusHashPrefix(string,address,int64,address,bytes)": "infinite",
				"writeCompactSize(uint256)": "infinite",
				"writeVarInt(uint256)": "infinite"
			}
		},
		"methodIdentifiers": {
			"flipArray(bytes)": "1222d81a",
			"serializeAddress(address)": "241d23b2",
			"serializeBool(bool)": "009c8152",
			"serializeBytes20(bytes20)": "463276c3",
			"serializeCCoinbaseCurrencyState((uint16,uint16,address,uint160[],int32[],int64[],int64,int64,int64,int64,int64,int64,int64,int64[],int64[],int64[],int64[],int64[],int64[],int64[],int32[]))": "c7343e2c",
			"serializeCCrossChainExport((uint32,uint32,address,uint32,uint32,address,address,uint32,(address,uint64)[],(address,uint64)[],uint256,(address,uint64)[],address,int32))": "485153eb",
			"serializeCCurrencyValueMap((address,uint64))": "cfa84de9",
			"serializeCCurrencyValueMaps((address,uint64)[])": "941bb060",
			"serializeCNodeData((string,address))": "44c789d1",
			"serializeCPBaaSNotarization((uint32,(uint32,address),uint32,(uint16,uint16,address,uint160[],int32[],int64[],int64,int64,int64,int64,int64,int64,int64,int64[],int64[],int64[],int64[],int64[],int64[],int64[],int32[]),uint256,int64,uint256,uint64,(address,(uint16,uint16,address,uint160[],int32[],int64[],int64,int64,int64,int64,int64,int64,int64,int64[],int64[],int64[],int64[],int64[],int64[],int64[],int32[]))[],(address,(int16,int16,address,uint32,uint256,uint256,uint256))[],(string,address)[]))": "08ea154c",
			"serializeCProofRoot((int16,int16,address,uint32,uint256,uint256,uint256))": "20105c8a",
			"serializeCReserveTransfer((uint32,(address,uint64),uint32,address,uint256,(uint32,address),address,address))": "f8bd7725",
			"serializeCReserveTransfers((uint32,(address,uint64),uint32,address,uint256,(uint32,address),address,address)[])": "ba4b1d01",
			"serializeCTransferDestination((uint32,address))": "d945255f",
			"serializeCUTXORef((uint256,uint32))": "b9edc795",
			"serializeCurrencyStates((address,(uint16,uint16,address,uint160[],int32[],int64[],int64,int64,int64,int64,int64,int64,int64,int64[],int64[],int64[],int64[],int64[],int64[],int64[],int32[])))": "bcddeda4",
			"serializeCurrencyStatesArray((address,(uint16,uint16,address,uint160[],int32[],int64[],int64,int64,int64,int64,int64,int64,int64,int64[],int64[],int64[],int64[],int64[],int64[],int64[],int32[]))[])": "7a635645",
			"serializeInt16(int16)": "46256007",
			"serializeInt32(int32)": "fef5906a",
			"serializeInt32Array(int32[])": "9d487b47",
			"serializeInt64(int64)": "af832f09",
			"serializeInt64Array(int64[])": "f8217295",
			"serializeNodes((string,address)[])": "049e3490",
			"serializeProofRoots((address,(int16,int16,address,uint32,uint256,uint256,uint256)))": "29688df3",
			"serializeProofRootsArray((address,(int16,int16,address,uint32,uint256,uint256,uint256))[])": "8e619e20",
			"serializeString(string)": "68b4ae81",
			"serializeUint16(uint16)": "e4cba547",
			"serializeUint160(address)": "ed7115d5",
			"serializeUint160Array(uint160[])": "19a7c17b",
			"serializeUint256(uint256)": "f20fb830",
			"serializeUint32(uint32)": "cecb3043",
			"serializeUint64(uint64)": "122e5ae7",
			"serializeUint8(uint8)": "6127b4ff",
			"verusHashPrefix(string,address,int64,address,bytes)": "c93e58c8",
			"writeCompactSize(uint256)": "dad935a1",
			"writeVarInt(uint256)": "b3a895f6"
		}
	},
	"abi": [
		{
			"inputs": [
				{
					"internalType": "bytes",
					"name": "incoming",
					"type": "bytes"
				}
			],
			"name": "flipArray",
			"outputs": [
				{
					"internalType": "bytes",
					"name": "",
					"type": "bytes"
				}
			],
			"stateMutability": "pure",
			"type": "function"
		},
		{
			"inputs": [
				{
					"internalType": "address",
					"name": "anyAddress",
					"type": "address"
				}
			],
			"name": "serializeAddress",
			"outputs": [
				{
					"internalType": "bytes",
					"name": "",
					"type": "bytes"
				}
			],
			"stateMutability": "pure",
			"type": "function"
		},
		{
			"inputs": [
				{
					"internalType": "bool",
					"name": "anyBool",
					"type": "bool"
				}
			],
			"name": "serializeBool",
			"outputs": [
				{
					"internalType": "bytes",
					"name": "",
					"type": "bytes"
				}
			],
			"stateMutability": "pure",
			"type": "function"
		},
		{
			"inputs": [
				{
					"internalType": "bytes20",
					"name": "anyBytes20",
					"type": "bytes20"
				}
			],
			"name": "serializeBytes20",
			"outputs": [
				{
					"internalType": "bytes",
					"name": "",
					"type": "bytes"
				}
			],
			"stateMutability": "pure",
			"type": "function"
		},
		{
			"inputs": [
				{
					"components": [
						{
							"internalType": "uint16",
							"name": "version",
							"type": "uint16"
						},
						{
							"internalType": "uint16",
							"name": "flags",
							"type": "uint16"
						},
						{
							"internalType": "address",
							"name": "currencyID",
							"type": "address"
						},
						{
							"internalType": "uint160[]",
							"name": "currencies",
							"type": "uint160[]"
						},
						{
							"internalType": "int32[]",
							"name": "weights",
							"type": "int32[]"
						},
						{
							"internalType": "int64[]",
							"name": "reserves",
							"type": "int64[]"
						},
						{
							"internalType": "int64",
							"name": "initialSupply",
							"type": "int64"
						},
						{
							"internalType": "int64",
							"name": "emitted",
							"type": "int64"
						},
						{
							"internalType": "int64",
							"name": "supply",
							"type": "int64"
						},
						{
							"internalType": "int64",
							"name": "primaryCurrencyOut",
							"type": "int64"
						},
						{
							"internalType": "int64",
							"name": "preconvertedOut",
							"type": "int64"
						},
						{
							"internalType": "int64",
							"name": "primaryCurrencyFees",
							"type": "int64"
						},
						{
							"internalType": "int64",
							"name": "primaryCurrencyConversionFees",
							"type": "int64"
						},
						{
							"internalType": "int64[]",
							"name": "reserveIn",
							"type": "int64[]"
						},
						{
							"internalType": "int64[]",
							"name": "primaryCurrencyIn",
							"type": "int64[]"
						},
						{
							"internalType": "int64[]",
							"name": "reserveOut",
							"type": "int64[]"
						},
						{
							"internalType": "int64[]",
							"name": "conversionPrice",
							"type": "int64[]"
						},
						{
							"internalType": "int64[]",
							"name": "viaConversionPrice",
							"type": "int64[]"
						},
						{
							"internalType": "int64[]",
							"name": "fees",
							"type": "int64[]"
						},
						{
							"internalType": "int64[]",
							"name": "conversionFees",
							"type": "int64[]"
						},
						{
							"internalType": "int32[]",
							"name": "priorWeights",
							"type": "int32[]"
						}
					],
					"internalType": "struct VerusObjects.CCoinbaseCurrencyState",
					"name": "_cccs",
					"type": "tuple"
				}
			],
			"name": "serializeCCoinbaseCurrencyState",
			"outputs": [
				{
					"internalType": "bytes",
					"name": "",
					"type": "bytes"
				}
			],
			"stateMutability": "pure",
			"type": "function"
		},
		{
			"inputs": [
				{
					"components": [
						{
							"internalType": "uint32",
							"name": "version",
							"type": "uint32"
						},
						{
							"internalType": "uint32",
							"name": "flags",
							"type": "uint32"
						},
						{
							"internalType": "address",
							"name": "sourcesystemid",
							"type": "address"
						},
						{
							"internalType": "uint32",
							"name": "sourceheightstart",
							"type": "uint32"
						},
						{
							"internalType": "uint32",
							"name": "sourceheightend",
							"type": "uint32"
						},
						{
							"internalType": "address",
							"name": "destinationsystemid",
							"type": "address"
						},
						{
							"internalType": "address",
							"name": "destinationcurrencyid",
							"type": "address"
						},
						{
							"internalType": "uint32",
							"name": "numinputs",
							"type": "uint32"
						},
						{
							"components": [
								{
									"internalType": "address",
									"name": "currency",
									"type": "address"
								},
								{
									"internalType": "uint64",
									"name": "amount",
									"type": "uint64"
								}
							],
							"internalType": "struct VerusObjects.CCurrencyValueMap[]",
							"name": "totalamounts",
							"type": "tuple[]"
						},
						{
							"components": [
								{
									"internalType": "address",
									"name": "currency",
									"type": "address"
								},
								{
									"internalType": "uint64",
									"name": "amount",
									"type": "uint64"
								}
							],
							"internalType": "struct VerusObjects.CCurrencyValueMap[]",
							"name": "totalfees",
							"type": "tuple[]"
						},
						{
							"internalType": "uint256",
							"name": "hashtransfers",
							"type": "uint256"
						},
						{
							"components": [
								{
									"internalType": "address",
									"name": "currency",
									"type": "address"
								},
								{
									"internalType": "uint64",
									"name": "amount",
									"type": "uint64"
								}
							],
							"internalType": "struct VerusObjects.CCurrencyValueMap[]",
							"name": "totalburned",
							"type": "tuple[]"
						},
						{
							"internalType": "address",
							"name": "rewardaddress",
							"type": "address"
						},
						{
							"internalType": "int32",
							"name": "firstinput",
							"type": "int32"
						}
					],
					"internalType": "struct VerusObjects.CCrossChainExport",
					"name": "_ccce",
					"type": "tuple"
				}
			],
			"name": "serializeCCrossChainExport",
			"outputs": [
				{
					"internalType": "bytes",
					"name": "",
					"type": "bytes"
				}
			],
			"stateMutability": "pure",
			"type": "function"
		},
		{
			"inputs": [
				{
					"components": [
						{
							"internalType": "address",
							"name": "currency",
							"type": "address"
						},
						{
							"internalType": "uint64",
							"name": "amount",
							"type": "uint64"
						}
					],
					"internalType": "struct VerusObjects.CCurrencyValueMap",
					"name": "_ccvm",
					"type": "tuple"
				}
			],
			"name": "serializeCCurrencyValueMap",
			"outputs": [
				{
					"internalType": "bytes",
					"name": "",
					"type": "bytes"
				}
			],
			"stateMutability": "pure",
			"type": "function"
		},
		{
			"inputs": [
				{
					"components": [
						{
							"internalType": "address",
							"name": "currency",
							"type": "address"
						},
						{
							"internalType": "uint64",
							"name": "amount",
							"type": "uint64"
						}
					],
					"internalType": "struct VerusObjects.CCurrencyValueMap[]",
					"name": "_ccvms",
					"type": "tuple[]"
				}
			],
			"name": "serializeCCurrencyValueMaps",
			"outputs": [
				{
					"internalType": "bytes",
					"name": "",
					"type": "bytes"
				}
			],
			"stateMutability": "pure",
			"type": "function"
		},
		{
			"inputs": [
				{
					"components": [
						{
							"internalType": "string",
							"name": "networkAddress",
							"type": "string"
						},
						{
							"internalType": "address",
							"name": "nodeIdentity",
							"type": "address"
						}
					],
					"internalType": "struct VerusObjects.CNodeData",
					"name": "_cnd",
					"type": "tuple"
				}
			],
			"name": "serializeCNodeData",
			"outputs": [
				{
					"internalType": "bytes",
					"name": "",
					"type": "bytes"
				}
			],
			"stateMutability": "pure",
			"type": "function"
		},
		{
			"inputs": [
				{
					"components": [
						{
							"internalType": "uint32",
							"name": "version",
							"type": "uint32"
						},
						{
							"components": [
								{
									"internalType": "uint32",
									"name": "destinationtype",
									"type": "uint32"
								},
								{
									"internalType": "address",
									"name": "destinationaddress",
									"type": "address"
								}
							],
							"internalType": "struct VerusObjects.CTransferDestination",
							"name": "proposer",
							"type": "tuple"
						},
						{
							"internalType": "uint32",
							"name": "notarizationHeight",
							"type": "uint32"
						},
						{
							"components": [
								{
									"internalType": "uint16",
									"name": "version",
									"type": "uint16"
								},
								{
									"internalType": "uint16",
									"name": "flags",
									"type": "uint16"
								},
								{
									"internalType": "address",
									"name": "currencyID",
									"type": "address"
								},
								{
									"internalType": "uint160[]",
									"name": "currencies",
									"type": "uint160[]"
								},
								{
									"internalType": "int32[]",
									"name": "weights",
									"type": "int32[]"
								},
								{
									"internalType": "int64[]",
									"name": "reserves",
									"type": "int64[]"
								},
								{
									"internalType": "int64",
									"name": "initialSupply",
									"type": "int64"
								},
								{
									"internalType": "int64",
									"name": "emitted",
									"type": "int64"
								},
								{
									"internalType": "int64",
									"name": "supply",
									"type": "int64"
								},
								{
									"internalType": "int64",
									"name": "primaryCurrencyOut",
									"type": "int64"
								},
								{
									"internalType": "int64",
									"name": "preconvertedOut",
									"type": "int64"
								},
								{
									"internalType": "int64",
									"name": "primaryCurrencyFees",
									"type": "int64"
								},
								{
									"internalType": "int64",
									"name": "primaryCurrencyConversionFees",
									"type": "int64"
								},
								{
									"internalType": "int64[]",
									"name": "reserveIn",
									"type": "int64[]"
								},
								{
									"internalType": "int64[]",
									"name": "primaryCurrencyIn",
									"type": "int64[]"
								},
								{
									"internalType": "int64[]",
									"name": "reserveOut",
									"type": "int64[]"
								},
								{
									"internalType": "int64[]",
									"name": "conversionPrice",
									"type": "int64[]"
								},
								{
									"internalType": "int64[]",
									"name": "viaConversionPrice",
									"type": "int64[]"
								},
								{
									"internalType": "int64[]",
									"name": "fees",
									"type": "int64[]"
								},
								{
									"internalType": "int64[]",
									"name": "conversionFees",
									"type": "int64[]"
								},
								{
									"internalType": "int32[]",
									"name": "priorWeights",
									"type": "int32[]"
								}
							],
							"internalType": "struct VerusObjects.CCoinbaseCurrencyState",
							"name": "currencyState",
							"type": "tuple"
						},
						{
							"internalType": "uint256",
							"name": "prevnotarizationtxid",
							"type": "uint256"
						},
						{
							"internalType": "int64",
							"name": "prevnotarizationout",
							"type": "int64"
						},
						{
							"internalType": "uint256",
							"name": "hashprevnotarizationobject",
							"type": "uint256"
						},
						{
							"internalType": "uint64",
							"name": "prevheight",
							"type": "uint64"
						},
						{
							"components": [
								{
									"internalType": "address",
									"name": "currencyId",
									"type": "address"
								},
								{
									"components": [
										{
											"internalType": "uint16",
											"name": "version",
											"type": "uint16"
										},
										{
											"internalType": "uint16",
											"name": "flags",
											"type": "uint16"
										},
										{
											"internalType": "address",
											"name": "currencyID",
											"type": "address"
										},
										{
											"internalType": "uint160[]",
											"name": "currencies",
											"type": "uint160[]"
										},
										{
											"internalType": "int32[]",
											"name": "weights",
											"type": "int32[]"
										},
										{
											"internalType": "int64[]",
											"name": "reserves",
											"type": "int64[]"
										},
										{
											"internalType": "int64",
											"name": "initialSupply",
											"type": "int64"
										},
										{
											"internalType": "int64",
											"name": "emitted",
											"type": "int64"
										},
										{
											"internalType": "int64",
											"name": "supply",
											"type": "int64"
										},
										{
											"internalType": "int64",
											"name": "primaryCurrencyOut",
											"type": "int64"
										},
										{
											"internalType": "int64",
											"name": "preconvertedOut",
											"type": "int64"
										},
										{
											"internalType": "int64",
											"name": "primaryCurrencyFees",
											"type": "int64"
										},
										{
											"internalType": "int64",
											"name": "primaryCurrencyConversionFees",
											"type": "int64"
										},
										{
											"internalType": "int64[]",
											"name": "reserveIn",
											"type": "int64[]"
										},
										{
											"internalType": "int64[]",
											"name": "primaryCurrencyIn",
											"type": "int64[]"
										},
										{
											"internalType": "int64[]",
											"name": "reserveOut",
											"type": "int64[]"
										},
										{
											"internalType": "int64[]",
											"name": "conversionPrice",
											"type": "int64[]"
										},
										{
											"internalType": "int64[]",
											"name": "viaConversionPrice",
											"type": "int64[]"
										},
										{
											"internalType": "int64[]",
											"name": "fees",
											"type": "int64[]"
										},
										{
											"internalType": "int64[]",
											"name": "conversionFees",
											"type": "int64[]"
										},
										{
											"internalType": "int32[]",
											"name": "priorWeights",
											"type": "int32[]"
										}
									],
									"internalType": "struct VerusObjects.CCoinbaseCurrencyState",
									"name": "currencyState",
									"type": "tuple"
								}
							],
							"internalType": "struct VerusObjects.CurrencyStates[]",
							"name": "currencyStates",
							"type": "tuple[]"
						},
						{
							"components": [
								{
									"internalType": "address",
									"name": "currencyId",
									"type": "address"
								},
								{
									"components": [
										{
											"internalType": "int16",
											"name": "version",
											"type": "int16"
										},
										{
											"internalType": "int16",
											"name": "CPRtype",
											"type": "int16"
										},
										{
											"internalType": "address",
											"name": "systemID",
											"type": "address"
										},
										{
											"internalType": "uint32",
											"name": "rootHeight",
											"type": "uint32"
										},
										{
											"internalType": "uint256",
											"name": "stateRoot",
											"type": "uint256"
										},
										{
											"internalType": "uint256",
											"name": "blockHash",
											"type": "uint256"
										},
										{
											"internalType": "uint256",
											"name": "compactPower",
											"type": "uint256"
										}
									],
									"internalType": "struct VerusObjects.CProofRoot",
									"name": "proofRoot",
									"type": "tuple"
								}
							],
							"internalType": "struct VerusObjects.ProofRoots[]",
							"name": "proofRoots",
							"type": "tuple[]"
						},
						{
							"components": [
								{
									"internalType": "string",
									"name": "networkAddress",
									"type": "string"
								},
								{
									"internalType": "address",
									"name": "nodeIdentity",
									"type": "address"
								}
							],
							"internalType": "struct VerusObjects.CNodeData[]",
							"name": "nodes",
							"type": "tuple[]"
						}
					],
					"internalType": "struct VerusObjects.CPBaaSNotarization",
					"name": "_not",
					"type": "tuple"
				}
			],
			"name": "serializeCPBaaSNotarization",
			"outputs": [
				{
					"internalType": "bytes",
					"name": "",
					"type": "bytes"
				}
			],
			"stateMutability": "pure",
			"type": "function"
		},
		{
			"inputs": [
				{
					"components": [
						{
							"internalType": "int16",
							"name": "version",
							"type": "int16"
						},
						{
							"internalType": "int16",
							"name": "CPRtype",
							"type": "int16"
						},
						{
							"internalType": "address",
							"name": "systemID",
							"type": "address"
						},
						{
							"internalType": "uint32",
							"name": "rootHeight",
							"type": "uint32"
						},
						{
							"internalType": "uint256",
							"name": "stateRoot",
							"type": "uint256"
						},
						{
							"internalType": "uint256",
							"name": "blockHash",
							"type": "uint256"
						},
						{
							"internalType": "uint256",
							"name": "compactPower",
							"type": "uint256"
						}
					],
					"internalType": "struct VerusObjects.CProofRoot",
					"name": "_cpr",
					"type": "tuple"
				}
			],
			"name": "serializeCProofRoot",
			"outputs": [
				{
					"internalType": "bytes",
					"name": "",
					"type": "bytes"
				}
			],
			"stateMutability": "pure",
			"type": "function"
		},
		{
			"inputs": [
				{
					"components": [
						{
							"internalType": "uint32",
							"name": "version",
							"type": "uint32"
						},
						{
							"components": [
								{
									"internalType": "address",
									"name": "currency",
									"type": "address"
								},
								{
									"internalType": "uint64",
									"name": "amount",
									"type": "uint64"
								}
							],
							"internalType": "struct VerusObjects.CCurrencyValueMap",
							"name": "currencyvalue",
							"type": "tuple"
						},
						{
							"internalType": "uint32",
							"name": "flags",
							"type": "uint32"
						},
						{
							"internalType": "address",
							"name": "feecurrencyid",
							"type": "address"
						},
						{
							"internalType": "uint256",
							"name": "fees",
							"type": "uint256"
						},
						{
							"components": [
								{
									"internalType": "uint32",
									"name": "destinationtype",
									"type": "uint32"
								},
								{
									"internalType": "address",
									"name": "destinationaddress",
									"type": "address"
								}
							],
							"internalType": "struct VerusObjects.CTransferDestination",
							"name": "destination",
							"type": "tuple"
						},
						{
							"internalType": "address",
							"name": "destCurrencyID",
							"type": "address"
						},
						{
							"internalType": "address",
							"name": "destSystemID",
							"type": "address"
						}
					],
					"internalType": "struct VerusObjects.CReserveTransfer",
					"name": "ct",
					"type": "tuple"
				}
			],
			"name": "serializeCReserveTransfer",
			"outputs": [
				{
					"internalType": "bytes",
					"name": "",
					"type": "bytes"
				}
			],
			"stateMutability": "pure",
			"type": "function"
		},
		{
			"inputs": [
				{
					"components": [
						{
							"internalType": "uint32",
							"name": "version",
							"type": "uint32"
						},
						{
							"components": [
								{
									"internalType": "address",
									"name": "currency",
									"type": "address"
								},
								{
									"internalType": "uint64",
									"name": "amount",
									"type": "uint64"
								}
							],
							"internalType": "struct VerusObjects.CCurrencyValueMap",
							"name": "currencyvalue",
							"type": "tuple"
						},
						{
							"internalType": "uint32",
							"name": "flags",
							"type": "uint32"
						},
						{
							"internalType": "address",
							"name": "feecurrencyid",
							"type": "address"
						},
						{
							"internalType": "uint256",
							"name": "fees",
							"type": "uint256"
						},
						{
							"components": [
								{
									"internalType": "uint32",
									"name": "destinationtype",
									"type": "uint32"
								},
								{
									"internalType": "address",
									"name": "destinationaddress",
									"type": "address"
								}
							],
							"internalType": "struct VerusObjects.CTransferDestination",
							"name": "destination",
							"type": "tuple"
						},
						{
							"internalType": "address",
							"name": "destCurrencyID",
							"type": "address"
						},
						{
							"internalType": "address",
							"name": "destSystemID",
							"type": "address"
						}
					],
					"internalType": "struct VerusObjects.CReserveTransfer[]",
					"name": "_bts",
					"type": "tuple[]"
				}
			],
			"name": "serializeCReserveTransfers",
			"outputs": [
				{
					"internalType": "bytes",
					"name": "",
					"type": "bytes"
				}
			],
			"stateMutability": "pure",
			"type": "function"
		},
		{
			"inputs": [
				{
					"components": [
						{
							"internalType": "uint32",
							"name": "destinationtype",
							"type": "uint32"
						},
						{
							"internalType": "address",
							"name": "destinationaddress",
							"type": "address"
						}
					],
					"internalType": "struct VerusObjects.CTransferDestination",
					"name": "ctd",
					"type": "tuple"
				}
			],
			"name": "serializeCTransferDestination",
			"outputs": [
				{
					"internalType": "bytes",
					"name": "",
					"type": "bytes"
				}
			],
			"stateMutability": "pure",
			"type": "function"
		},
		{
			"inputs": [
				{
					"components": [
						{
							"internalType": "uint256",
							"name": "hash",
							"type": "uint256"
						},
						{
							"internalType": "uint32",
							"name": "n",
							"type": "uint32"
						}
					],
					"internalType": "struct VerusObjects.CUTXORef",
					"name": "_cutxo",
					"type": "tuple"
				}
			],
			"name": "serializeCUTXORef",
			"outputs": [
				{
					"internalType": "bytes",
					"name": "",
					"type": "bytes"
				}
			],
			"stateMutability": "pure",
			"type": "function"
		},
		{
			"inputs": [
				{
					"components": [
						{
							"internalType": "address",
							"name": "currencyId",
							"type": "address"
						},
						{
							"components": [
								{
									"internalType": "uint16",
									"name": "version",
									"type": "uint16"
								},
								{
									"internalType": "uint16",
									"name": "flags",
									"type": "uint16"
								},
								{
									"internalType": "address",
									"name": "currencyID",
									"type": "address"
								},
								{
									"internalType": "uint160[]",
									"name": "currencies",
									"type": "uint160[]"
								},
								{
									"internalType": "int32[]",
									"name": "weights",
									"type": "int32[]"
								},
								{
									"internalType": "int64[]",
									"name": "reserves",
									"type": "int64[]"
								},
								{
									"internalType": "int64",
									"name": "initialSupply",
									"type": "int64"
								},
								{
									"internalType": "int64",
									"name": "emitted",
									"type": "int64"
								},
								{
									"internalType": "int64",
									"name": "supply",
									"type": "int64"
								},
								{
									"internalType": "int64",
									"name": "primaryCurrencyOut",
									"type": "int64"
								},
								{
									"internalType": "int64",
									"name": "preconvertedOut",
									"type": "int64"
								},
								{
									"internalType": "int64",
									"name": "primaryCurrencyFees",
									"type": "int64"
								},
								{
									"internalType": "int64",
									"name": "primaryCurrencyConversionFees",
									"type": "int64"
								},
								{
									"internalType": "int64[]",
									"name": "reserveIn",
									"type": "int64[]"
								},
								{
									"internalType": "int64[]",
									"name": "primaryCurrencyIn",
									"type": "int64[]"
								},
								{
									"internalType": "int64[]",
									"name": "reserveOut",
									"type": "int64[]"
								},
								{
									"internalType": "int64[]",
									"name": "conversionPrice",
									"type": "int64[]"
								},
								{
									"internalType": "int64[]",
									"name": "viaConversionPrice",
									"type": "int64[]"
								},
								{
									"internalType": "int64[]",
									"name": "fees",
									"type": "int64[]"
								},
								{
									"internalType": "int64[]",
									"name": "conversionFees",
									"type": "int64[]"
								},
								{
									"internalType": "int32[]",
									"name": "priorWeights",
									"type": "int32[]"
								}
							],
							"internalType": "struct VerusObjects.CCoinbaseCurrencyState",
							"name": "currencyState",
							"type": "tuple"
						}
					],
					"internalType": "struct VerusObjects.CurrencyStates",
					"name": "_cs",
					"type": "tuple"
				}
			],
			"name": "serializeCurrencyStates",
			"outputs": [
				{
					"internalType": "bytes",
					"name": "",
					"type": "bytes"
				}
			],
			"stateMutability": "pure",
			"type": "function"
		},
		{
			"inputs": [
				{
					"components": [
						{
							"internalType": "address",
							"name": "currencyId",
							"type": "address"
						},
						{
							"components": [
								{
									"internalType": "uint16",
									"name": "version",
									"type": "uint16"
								},
								{
									"internalType": "uint16",
									"name": "flags",
									"type": "uint16"
								},
								{
									"internalType": "address",
									"name": "currencyID",
									"type": "address"
								},
								{
									"internalType": "uint160[]",
									"name": "currencies",
									"type": "uint160[]"
								},
								{
									"internalType": "int32[]",
									"name": "weights",
									"type": "int32[]"
								},
								{
									"internalType": "int64[]",
									"name": "reserves",
									"type": "int64[]"
								},
								{
									"internalType": "int64",
									"name": "initialSupply",
									"type": "int64"
								},
								{
									"internalType": "int64",
									"name": "emitted",
									"type": "int64"
								},
								{
									"internalType": "int64",
									"name": "supply",
									"type": "int64"
								},
								{
									"internalType": "int64",
									"name": "primaryCurrencyOut",
									"type": "int64"
								},
								{
									"internalType": "int64",
									"name": "preconvertedOut",
									"type": "int64"
								},
								{
									"internalType": "int64",
									"name": "primaryCurrencyFees",
									"type": "int64"
								},
								{
									"internalType": "int64",
									"name": "primaryCurrencyConversionFees",
									"type": "int64"
								},
								{
									"internalType": "int64[]",
									"name": "reserveIn",
									"type": "int64[]"
								},
								{
									"internalType": "int64[]",
									"name": "primaryCurrencyIn",
									"type": "int64[]"
								},
								{
									"internalType": "int64[]",
									"name": "reserveOut",
									"type": "int64[]"
								},
								{
									"internalType": "int64[]",
									"name": "conversionPrice",
									"type": "int64[]"
								},
								{
									"internalType": "int64[]",
									"name": "viaConversionPrice",
									"type": "int64[]"
								},
								{
									"internalType": "int64[]",
									"name": "fees",
									"type": "int64[]"
								},
								{
									"internalType": "int64[]",
									"name": "conversionFees",
									"type": "int64[]"
								},
								{
									"internalType": "int32[]",
									"name": "priorWeights",
									"type": "int32[]"
								}
							],
							"internalType": "struct VerusObjects.CCoinbaseCurrencyState",
							"name": "currencyState",
							"type": "tuple"
						}
					],
					"internalType": "struct VerusObjects.CurrencyStates[]",
					"name": "_csa",
					"type": "tuple[]"
				}
			],
			"name": "serializeCurrencyStatesArray",
			"outputs": [
				{
					"internalType": "bytes",
					"name": "",
					"type": "bytes"
				}
			],
			"stateMutability": "pure",
			"type": "function"
		},
		{
			"inputs": [
				{
					"internalType": "int16",
					"name": "number",
					"type": "int16"
				}
			],
			"name": "serializeInt16",
			"outputs": [
				{
					"internalType": "bytes",
					"name": "",
					"type": "bytes"
				}
			],
			"stateMutability": "pure",
			"type": "function"
		},
		{
			"inputs": [
				{
					"internalType": "int32",
					"name": "number",
					"type": "int32"
				}
			],
			"name": "serializeInt32",
			"outputs": [
				{
					"internalType": "bytes",
					"name": "",
					"type": "bytes"
				}
			],
			"stateMutability": "pure",
			"type": "function"
		},
		{
			"inputs": [
				{
					"internalType": "int32[]",
					"name": "numbers",
					"type": "int32[]"
				}
			],
			"name": "serializeInt32Array",
			"outputs": [
				{
					"internalType": "bytes",
					"name": "",
					"type": "bytes"
				}
			],
			"stateMutability": "pure",
			"type": "function"
		},
		{
			"inputs": [
				{
					"internalType": "int64",
					"name": "number",
					"type": "int64"
				}
			],
			"name": "serializeInt64",
			"outputs": [
				{
					"internalType": "bytes",
					"name": "",
					"type": "bytes"
				}
			],
			"stateMutability": "pure",
			"type": "function"
		},
		{
			"inputs": [
				{
					"internalType": "int64[]",
					"name": "numbers",
					"type": "int64[]"
				}
			],
			"name": "serializeInt64Array",
			"outputs": [
				{
					"internalType": "bytes",
					"name": "",
					"type": "bytes"
				}
			],
			"stateMutability": "pure",
			"type": "function"
		},
		{
			"inputs": [
				{
					"components": [
						{
							"internalType": "string",
							"name": "networkAddress",
							"type": "string"
						},
						{
							"internalType": "address",
							"name": "nodeIdentity",
							"type": "address"
						}
					],
					"internalType": "struct VerusObjects.CNodeData[]",
					"name": "_cnds",
					"type": "tuple[]"
				}
			],
			"name": "serializeNodes",
			"outputs": [
				{
					"internalType": "bytes",
					"name": "",
					"type": "bytes"
				}
			],
			"stateMutability": "pure",
			"type": "function"
		},
		{
			"inputs": [
				{
					"components": [
						{
							"internalType": "address",
							"name": "currencyId",
							"type": "address"
						},
						{
							"components": [
								{
									"internalType": "int16",
									"name": "version",
									"type": "int16"
								},
								{
									"internalType": "int16",
									"name": "CPRtype",
									"type": "int16"
								},
								{
									"internalType": "address",
									"name": "systemID",
									"type": "address"
								},
								{
									"internalType": "uint32",
									"name": "rootHeight",
									"type": "uint32"
								},
								{
									"internalType": "uint256",
									"name": "stateRoot",
									"type": "uint256"
								},
								{
									"internalType": "uint256",
									"name": "blockHash",
									"type": "uint256"
								},
								{
									"internalType": "uint256",
									"name": "compactPower",
									"type": "uint256"
								}
							],
							"internalType": "struct VerusObjects.CProofRoot",
							"name": "proofRoot",
							"type": "tuple"
						}
					],
					"internalType": "struct VerusObjects.ProofRoots",
					"name": "_prs",
					"type": "tuple"
				}
			],
			"name": "serializeProofRoots",
			"outputs": [
				{
					"internalType": "bytes",
					"name": "",
					"type": "bytes"
				}
			],
			"stateMutability": "pure",
			"type": "function"
		},
		{
			"inputs": [
				{
					"components": [
						{
							"internalType": "address",
							"name": "currencyId",
							"type": "address"
						},
						{
							"components": [
								{
									"internalType": "int16",
									"name": "version",
									"type": "int16"
								},
								{
									"internalType": "int16",
									"name": "CPRtype",
									"type": "int16"
								},
								{
									"internalType": "address",
									"name": "systemID",
									"type": "address"
								},
								{
									"internalType": "uint32",
									"name": "rootHeight",
									"type": "uint32"
								},
								{
									"internalType": "uint256",
									"name": "stateRoot",
									"type": "uint256"
								},
								{
									"internalType": "uint256",
									"name": "blockHash",
									"type": "uint256"
								},
								{
									"internalType": "uint256",
									"name": "compactPower",
									"type": "uint256"
								}
							],
							"internalType": "struct VerusObjects.CProofRoot",
							"name": "proofRoot",
							"type": "tuple"
						}
					],
					"internalType": "struct VerusObjects.ProofRoots[]",
					"name": "_prsa",
					"type": "tuple[]"
				}
			],
			"name": "serializeProofRootsArray",
			"outputs": [
				{
					"internalType": "bytes",
					"name": "",
					"type": "bytes"
				}
			],
			"stateMutability": "pure",
			"type": "function"
		},
		{
			"inputs": [
				{
					"internalType": "string",
					"name": "anyString",
					"type": "string"
				}
			],
			"name": "serializeString",
			"outputs": [
				{
					"internalType": "bytes",
					"name": "",
					"type": "bytes"
				}
			],
			"stateMutability": "pure",
			"type": "function"
		},
		{
			"inputs": [
				{
					"internalType": "uint16",
					"name": "number",
					"type": "uint16"
				}
			],
			"name": "serializeUint16",
			"outputs": [
				{
					"internalType": "bytes",
					"name": "",
					"type": "bytes"
				}
			],
			"stateMutability": "pure",
			"type": "function"
		},
		{
			"inputs": [
				{
					"internalType": "address",
					"name": "number",
					"type": "address"
				}
			],
			"name": "serializeUint160",
			"outputs": [
				{
					"internalType": "bytes",
					"name": "",
					"type": "bytes"
				}
			],
			"stateMutability": "pure",
			"type": "function"
		},
		{
			"inputs": [
				{
					"internalType": "uint160[]",
					"name": "numbers",
					"type": "uint160[]"
				}
			],
			"name": "serializeUint160Array",
			"outputs": [
				{
					"internalType": "bytes",
					"name": "",
					"type": "bytes"
				}
			],
			"stateMutability": "pure",
			"type": "function"
		},
		{
			"inputs": [
				{
					"internalType": "uint256",
					"name": "number",
					"type": "uint256"
				}
			],
			"name": "serializeUint256",
			"outputs": [
				{
					"internalType": "bytes",
					"name": "",
					"type": "bytes"
				}
			],
			"stateMutability": "pure",
			"type": "function"
		},
		{
			"inputs": [
				{
					"internalType": "uint32",
					"name": "number",
					"type": "uint32"
				}
			],
			"name": "serializeUint32",
			"outputs": [
				{
					"internalType": "bytes",
					"name": "",
					"type": "bytes"
				}
			],
			"stateMutability": "pure",
			"type": "function"
		},
		{
			"inputs": [
				{
					"internalType": "uint64",
					"name": "number",
					"type": "uint64"
				}
			],
			"name": "serializeUint64",
			"outputs": [
				{
					"internalType": "bytes",
					"name": "",
					"type": "bytes"
				}
			],
			"stateMutability": "pure",
			"type": "function"
		},
		{
			"inputs": [
				{
					"internalType": "uint8",
					"name": "number",
					"type": "uint8"
				}
			],
			"name": "serializeUint8",
			"outputs": [
				{
					"internalType": "bytes",
					"name": "",
					"type": "bytes"
				}
			],
			"stateMutability": "pure",
			"type": "function"
		},
		{
			"inputs": [
				{
					"internalType": "string",
					"name": "prefix",
					"type": "string"
				},
				{
					"internalType": "address",
					"name": "systemID",
					"type": "address"
				},
				{
					"internalType": "int64",
					"name": "blockHeight",
					"type": "int64"
				},
				{
					"internalType": "address",
					"name": "signingID",
					"type": "address"
				},
				{
					"internalType": "bytes",
					"name": "messageToHash",
					"type": "bytes"
				}
			],
			"name": "verusHashPrefix",
			"outputs": [
				{
					"internalType": "bytes",
					"name": "",
					"type": "bytes"
				}
			],
			"stateMutability": "pure",
			"type": "function"
		},
		{
			"inputs": [
				{
					"internalType": "uint256",
					"name": "newNumber",
					"type": "uint256"
				}
			],
			"name": "writeCompactSize",
			"outputs": [
				{
					"internalType": "bytes",
					"name": "",
					"type": "bytes"
				}
			],
			"stateMutability": "pure",
			"type": "function"
		},
		{
			"inputs": [
				{
					"internalType": "uint256",
					"name": "incoming",
					"type": "uint256"
				}
			],
			"name": "writeVarInt",
			"outputs": [
				{
					"internalType": "bytes",
					"name": "",
					"type": "bytes"
				}
			],
			"stateMutability": "pure",
			"type": "function"
		}
	]
}