{
	"data": {
		"bytecode": {
			"linkReferences": {},
			"object": "60806040526000600660146101000a81548160ff021916908315150217905550600060085560006009556000600a556000600c60006101000a81548173ffffffffffffffffffffffffffffffffffffffff021916908373ffffffffffffffffffffffffffffffffffffffff1602179055506000600d60006101000a81548173ffffffffffffffffffffffffffffffffffffffff021916908373ffffffffffffffffffffffffffffffffffffffff1602179055506001600e60006101000a81548173ffffffffffffffffffffffffffffffffffffffff021916908373ffffffffffffffffffffffffffffffffffffffff1602179055506001600f60006101000a81548173ffffffffffffffffffffffffffffffffffffffff021916908373ffffffffffffffffffffffffffffffffffffffff1602179055506002601060006101000a81548173ffffffffffffffffffffffffffffffffffffffff021916908373ffffffffffffffffffffffffffffffffffffffff160217905550655af3107a4000601155600060135560006014553480156200019957600080fd5b506040516200711c3803806200711c8339818101604052810190620001bf919062000666565b33600660006101000a81548173ffffffffffffffffffffffffffffffffffffffff021916908373ffffffffffffffffffffffffffffffffffffffff16021790555087600260006101000a81548173ffffffffffffffffffffffffffffffffffffffff021916908373ffffffffffffffffffffffffffffffffffffffff160217905550866000806101000a81548173ffffffffffffffffffffffffffffffffffffffff021916908373ffffffffffffffffffffffffffffffffffffffff16021790555085600160006101000a81548173ffffffffffffffffffffffffffffffffffffffff021916908373ffffffffffffffffffffffffffffffffffffffff16021790555084600360006101000a81548173ffffffffffffffffffffffffffffffffffffffff021916908373ffffffffffffffffffffffffffffffffffffffff16021790555083600460006101000a81548173ffffffffffffffffffffffffffffffffffffffff021916908373ffffffffffffffffffffffffffffffffffffffff16021790555082600560006101000a81548173ffffffffffffffffffffffffffffffffffffffff021916908373ffffffffffffffffffffffffffffffffffffffff16021790555081601c600082015181600001556020820151816001019080519060200190620003b09291906200041c565b5060408201518160020155606082015181600301556080820151816004019080519060200190620003e39291906200041c565b5060a08201518160050160006101000a81548160ff02191690831515021790555090505080600a81905550505050505050505062000879565b828054600181600116156101000203166002900490600052602060002090601f016020900481019282620004545760008555620004a0565b82601f106200046f57805160ff1916838001178555620004a0565b82800160010185558215620004a0579182015b828111156200049f57825182559160200191906001019062000482565b5b509050620004af9190620004b3565b5090565b5b80821115620004ce576000816000905550600101620004b4565b5090565b6000620004e9620004e38462000776565b62000742565b9050828152602081018484840111156200050257600080fd5b6200050f848285620007f3565b509392505050565b60008151905062000528816200082b565b92915050565b6000815190506200053f8162000845565b92915050565b600082601f8301126200055757600080fd5b815162000569848260208601620004d2565b91505092915050565b600060c082840312156200058557600080fd5b6200059160c062000742565b90506000620005a3848285016200064f565b600083015250602082015167ffffffffffffffff811115620005c457600080fd5b620005d28482850162000545565b6020830152506040620005e8848285016200064f565b6040830152506060620005fe848285016200064f565b606083015250608082015167ffffffffffffffff8111156200061f57600080fd5b6200062d8482850162000545565b60808301525060a062000643848285016200052e565b60a08301525092915050565b60008151905062000660816200085f565b92915050565b600080600080600080600080610100898b0312156200068457600080fd5b6000620006948b828c0162000517565b9850506020620006a78b828c0162000517565b9750506040620006ba8b828c0162000517565b9650506060620006cd8b828c0162000517565b9550506080620006e08b828c0162000517565b94505060a0620006f38b828c0162000517565b93505060c089015167ffffffffffffffff8111156200071157600080fd5b6200071f8b828c0162000572565b92505060e0620007328b828c016200064f565b9150509295985092959890939650565b6000604051905081810181811067ffffffffffffffff821117156200076c576200076b62000829565b5b8060405250919050565b600067ffffffffffffffff82111562000794576200079362000829565b5b601f19601f8301169050602081019050919050565b6000620007b682620007c9565b9050919050565b60008115159050919050565b600073ffffffffffffffffffffffffffffffffffffffff82169050919050565b6000819050919050565b60005b8381101562000813578082015181840152602081019050620007f6565b8381111562000823576000848401525b50505050565bfe5b6200083681620007a9565b81146200084257600080fd5b50565b6200085081620007bd565b81146200085c57600080fd5b50565b6200086a81620007e9565b81146200087657600080fd5b50565b61689380620008896000396000f3fe6080604052600436106101c25760003560e01c80636bbfff00116100f7578063c17a4eef11610095578063e45b909d11610064578063e45b909d14610697578063e4804abc146106d4578063e7ffdd9614610711578063f8ab921e14610741576101c2565b8063c17a4eef146105d8578063c994539714610616578063d294f09314610641578063e39f448a1461066c576101c2565b80639e3856c6116100d15780639e3856c6146104ec578063a5f8cf6014610529578063b332d1e014610570578063bf59a1a31461059b576101c2565b80636bbfff001461043f5780637e0b24921461046a5780637e3e661b146104a7576101c2565b80632d49ea541161016457806340b61d301161013e57806340b61d301461038157806342ce5011146103ac5780634ec18db9146103d75780635561718014610402576101c2565b80632d49ea541461030257806334ed50571461032b5780633f067b2014610356576101c2565b80631c93b03a116101a05780631c93b03a146102465780631fb513621461027157806326976e3f1461029a5780632a9e72a6146102c5576101c2565b80630e136b19146101c757806317c86875146101f25780631a2d86291461021b575b600080fd5b3480156101d357600080fd5b506101dc61075d565b6040516101e99190615ec6565b60405180910390f35b3480156101fe57600080fd5b5061021960048036038101906102149190614b35565b610770565b005b34801561022757600080fd5b506102306108c5565b60405161023d9190616062565b60405180910390f35b34801561025257600080fd5b5061025b610a6d565b6040516102689190615efc565b60405180910390f35b34801561027d57600080fd5b5061029860048036038101906102939190614c35565b610b0b565b005b3480156102a657600080fd5b506102af610b45565b6040516102bc9190615d54565b60405180910390f35b3480156102d157600080fd5b506102ec60048036038101906102e79190614e2b565b610b6b565b6040516102f99190616040565b60405180910390f35b34801561030e57600080fd5b5061032960048036038101906103249190614d8b565b610f1b565b005b34801561033757600080fd5b50610340611515565b60405161034d9190616084565b60405180910390f35b34801561036257600080fd5b5061036b61153b565b60405161037891906160d6565b60405180910390f35b34801561038d57600080fd5b50610396611541565b6040516103a39190616084565b60405180910390f35b3480156103b857600080fd5b506103c1611567565b6040516103ce91906160d6565b60405180910390f35b3480156103e357600080fd5b506103ec61156d565b6040516103f991906160d6565b60405180910390f35b34801561040e57600080fd5b5061042960048036038101906104249190614e2b565b611573565b604051610436919061601e565b60405180910390f35b34801561044b57600080fd5b50610454611687565b6040516104619190616084565b60405180910390f35b34801561047657600080fd5b50610491600480360381019061048c9190614b0c565b6116ad565b60405161049e91906160d6565b60405180910390f35b3480156104b357600080fd5b506104ce60048036038101906104c99190614e7d565b6116c5565b6040516104e39998979695949392919061611a565b60405180910390f35b3480156104f857600080fd5b50610513600480360381019061050e9190614c9f565b6118f4565b60405161052091906160d6565b60405180910390f35b34801561053557600080fd5b50610550600480360381019061054b9190614e2b565b61190c565b6040516105679b9a999897969594939291906161a9565b60405180910390f35b34801561057c57600080fd5b50610585611a50565b6040516105929190616084565b60405180910390f35b3480156105a757600080fd5b506105c260048036038101906105bd9190614e2b565b611a76565b6040516105cf9190615e82565b60405180910390f35b3480156105e457600080fd5b506105ff60048036038101906105fa9190614e2b565b611e17565b60405161060d9291906160f1565b60405180910390f35b34801561062257600080fd5b5061062b611e48565b60405161063891906160d6565b60405180910390f35b34801561064d57600080fd5b50610656611ea8565b60405161066391906160d6565b60405180910390f35b34801561067857600080fd5b50610681611fd1565b60405161068e9190616084565b60405180910390f35b3480156106a357600080fd5b506106be60048036038101906106b99190614e2b565b611ff7565b6040516106cb9190615ee1565b60405180910390f35b3480156106e057600080fd5b506106fb60048036038101906106f69190614e7d565b61201b565b6040516107089190615e60565b60405180910390f35b61072b60048036038101906107269190614db4565b612139565b60405161073891906160d6565b60405180910390f35b61075b60048036038101906107569190614eb9565b612371565b005b600660149054906101000a900460ff1681565b600460009054906101000a900473ffffffffffffffffffffffffffffffffffffffff1673ffffffffffffffffffffffffffffffffffffffff1663b43fe1de86868686866040518663ffffffff1660e01b81526004016107d3959493929190615dcf565b602060405180830381600087803b1580156107ed57600080fd5b505af1158015610801573d6000803e3d6000fd5b505050506040513d601f19601f820116820180604052508101906108259190614c76565b156108be576001600660146101000a81548160ff02191690831515021790555084600760006101000a81548173ffffffffffffffffffffffffffffffffffffffff021916908373ffffffffffffffffffffffffffffffffffffffff1602179055507fcc358699805e9a8b7f77b522628c7cb9abd07d9efb86b6fb616af1609036a99e856040516108b59190615d54565b60405180910390a15b5050505050565b6108cd61373d565b6108d561373d565b601c60000154816000018181525050601c6001018054600181600116156101000203166002900480601f01602080910402602001604051908101604052809291908181526020018280546001816001161561010002031660029004801561097d5780601f106109525761010080835404028352916020019161097d565b820191906000526020600020905b81548152906001019060200180831161096057829003601f168201915b505050505081602001819052504381604001818152505042816060018181525050601c6004018054600181600116156101000203166002900480601f016020809104026020016040519081016040528092919081815260200182805460018160011615610100020316600290048015610a375780601f10610a0c57610100808354040283529160200191610a37565b820191906000526020600020905b815481529060010190602001808311610a1a57829003601f168201915b50505050508160800181905250601c60050160009054906101000a900460ff168160a00190151590811515815250508091505090565b600b8054600181600116156101000203166002900480601f016020809104026020016040519081016040528092919081815260200182805460018160011615610100020316600290048015610b035780601f10610ad857610100808354040283529160200191610b03565b820191906000526020600020905b815481529060010190602001808311610ae657829003601f168201915b505050505081565b60005b8151811015610b4157610b33828281518110610b2657fe5b60200260200101516128b9565b508080600101915050610b0e565b5050565b600760009054906101000a900473ffffffffffffffffffffffffffffffffffffffff1681565b610b73613775565b6000601a60008481526020019081526020016000206000015490506000604051806080016040528083815260200185815260200160128481548110610bb457fe5b9060005260206000200154815260200160178481548110610bd157fe5b90600052602060002001805480602002602001604051908101604052809291908181526020016000905b82821015610f085783829060005260206000209060080201604051806101200160405290816000820160009054906101000a900463ffffffff1663ffffffff1663ffffffff168152602001600182016040518060400160405290816000820160009054906101000a900473ffffffffffffffffffffffffffffffffffffffff1673ffffffffffffffffffffffffffffffffffffffff1673ffffffffffffffffffffffffffffffffffffffff1681526020016000820160149054906101000a900467ffffffffffffffff1667ffffffffffffffff1667ffffffffffffffff168152505081526020016002820160009054906101000a900463ffffffff1663ffffffff1663ffffffff1681526020016002820160049054906101000a900473ffffffffffffffffffffffffffffffffffffffff1673ffffffffffffffffffffffffffffffffffffffff1673ffffffffffffffffffffffffffffffffffffffff16815260200160038201548152602001600482016040518060400160405290816000820160009054906101000a900463ffffffff1663ffffffff1663ffffffff1681526020016000820160049054906101000a900473ffffffffffffffffffffffffffffffffffffffff1673ffffffffffffffffffffffffffffffffffffffff1673ffffffffffffffffffffffffffffffffffffffff168152505081526020016005820160009054906101000a900473ffffffffffffffffffffffffffffffffffffffff1673ffffffffffffffffffffffffffffffffffffffff1673ffffffffffffffffffffffffffffffffffffffff1681526020016006820160009054906101000a900473ffffffffffffffffffffffffffffffffffffffff1673ffffffffffffffffffffffffffffffffffffffff1673ffffffffffffffffffffffffffffffffffffffff1681526020016007820160009054906101000a900473ffffffffffffffffffffffffffffffffffffffff1673ffffffffffffffffffffffffffffffffffffffff1673ffffffffffffffffffffffffffffffffffffffff168152505081526020019060010190610bfb565b5050505081525090508092505050919050565b610f236137a0565b601c600001548160000181815250506000600460009054906101000a900473ffffffffffffffffffffffffffffffffffffffff1673ffffffffffffffffffffffffffffffffffffffff1663aaf34b946040518163ffffffff1660e01b815260040160006040518083038186803b158015610f9c57600080fd5b505afa158015610fb0573d6000803e3d6000fd5b505050506040513d6000823e3d601f19601f82011682018060405250810190610fd99190614bf4565b90506000600460009054906101000a900473ffffffffffffffffffffffffffffffffffffffff1673ffffffffffffffffffffffffffffffffffffffff166320cd6ba16040518163ffffffff1660e01b815260040160206040518083038186803b15801561104557600080fd5b505afa158015611059573d6000803e3d6000fd5b505050506040513d601f19601f8201168201806040525081019061107d9190614f6b565b9050600073ffffffffffffffffffffffffffffffffffffffff168473ffffffffffffffffffffffffffffffffffffffff1614156112df57604051806102000160405280601c6000015481526020016040518060400160405280600481526020017f56455448000000000000000000000000000000000000000000000000000000008152508152602001600c60009054906101000a900473ffffffffffffffffffffffffffffffffffffffff1673ffffffffffffffffffffffffffffffffffffffff168152602001600e60009054906101000a900473ffffffffffffffffffffffffffffffffffffffff1673ffffffffffffffffffffffffffffffffffffffff168152602001600e60009054906101000a900473ffffffffffffffffffffffffffffffffffffffff1673ffffffffffffffffffffffffffffffffffffffff168152602001600160ff168152602001600460ff1681526020016040518060400160405280600963ffffffff168152602001600c60009054906101000a900473ffffffffffffffffffffffffffffffffffffffff1673ffffffffffffffffffffffffffffffffffffffff168152508152602001600e60009054906101000a900473ffffffffffffffffffffffffffffffffffffffff1673ffffffffffffffffffffffffffffffffffffffff168152602001600081526020016000815260200163044aa200815260200163044aa2008152602001600c60009054906101000a900473ffffffffffffffffffffffffffffffffffffffff1673ffffffffffffffffffffffffffffffffffffffff1681526020018381526020018260ff16815250925061150f565b6000849050604051806102000160405280601c6000015481526020018273ffffffffffffffffffffffffffffffffffffffff166306fdde036040518163ffffffff1660e01b815260040160006040518083038186803b15801561134157600080fd5b505afa158015611355573d6000803e3d6000fd5b505050506040513d6000823e3d601f19601f8201168201806040525081019061137e9190614d09565b81526020018673ffffffffffffffffffffffffffffffffffffffff168152602001600e60009054906101000a900473ffffffffffffffffffffffffffffffffffffffff1673ffffffffffffffffffffffffffffffffffffffff168152602001600e60009054906101000a900473ffffffffffffffffffffffffffffffffffffffff1673ffffffffffffffffffffffffffffffffffffffff168152602001600160ff168152602001600460ff1681526020016040518060400160405280600963ffffffff1681526020018873ffffffffffffffffffffffffffffffffffffffff168152508152602001600e60009054906101000a900473ffffffffffffffffffffffffffffffffffffffff1673ffffffffffffffffffffffffffffffffffffffff16815260200160008152602001600081526020016000815260200160008152602001600c60009054906101000a900473ffffffffffffffffffffffffffffffffffffffff1673ffffffffffffffffffffffffffffffffffffffff1681526020018481526020018360ff168152509350505b50505050565b600e60009054906101000a900473ffffffffffffffffffffffffffffffffffffffff1681565b60085481565b600c60009054906101000a900473ffffffffffffffffffffffffffffffffffffffff1681565b60095481565b600a5481565b61157b613897565b6000600560009054906101000a900473ffffffffffffffffffffffffffffffffffffffff1673ffffffffffffffffffffffffffffffffffffffff16636e38d8ec601785815481106115c857fe5b906000526020600020016040518263ffffffff1660e01b81526004016115ee9190615ea4565b600060405180830381600087803b15801561160857600080fd5b505af115801561161c573d6000803e3d6000fd5b505050506040513d6000823e3d601f19601f820116820180604052508101906116459190614d4a565b90507ff02dc673563287b8331b05b87e42c1b98c7d66034211c30cdf9f13e0b80d865f81604051611676919061601e565b60405180910390a180915050919050565b601060009054906101000a900473ffffffffffffffffffffffffffffffffffffffff1681565b601b6020528060005260406000206000915090505481565b601782815481106116d557600080fd5b9060005260206000200181815481106116ed57600080fd5b9060005260206000209060080201600091509150508060000160009054906101000a900463ffffffff1690806001016040518060400160405290816000820160009054906101000a900473ffffffffffffffffffffffffffffffffffffffff1673ffffffffffffffffffffffffffffffffffffffff1673ffffffffffffffffffffffffffffffffffffffff1681526020016000820160149054906101000a900467ffffffffffffffff1667ffffffffffffffff1667ffffffffffffffff1681525050908060020160009054906101000a900463ffffffff16908060020160049054906101000a900473ffffffffffffffffffffffffffffffffffffffff1690806003015490806004016040518060400160405290816000820160009054906101000a900463ffffffff1663ffffffff1663ffffffff1681526020016000820160049054906101000a900473ffffffffffffffffffffffffffffffffffffffff1673ffffffffffffffffffffffffffffffffffffffff1673ffffffffffffffffffffffffffffffffffffffff1681525050908060050160009054906101000a900473ffffffffffffffffffffffffffffffffffffffff16908060060160009054906101000a900473ffffffffffffffffffffffffffffffffffffffff16908060070160009054906101000a900473ffffffffffffffffffffffffffffffffffffffff16905089565b60196020528060005260406000206000915090505481565b6018818154811061191c57600080fd5b90600052602060002090600802016000915090508060000160009054906101000a900463ffffffff16908060000160049054906101000a900463ffffffff16908060000160089054906101000a900473ffffffffffffffffffffffffffffffffffffffff169080600001601c9054906101000a900463ffffffff16908060010160009054906101000a900463ffffffff16908060010160049054906101000a900473ffffffffffffffffffffffffffffffffffffffff16908060020160009054906101000a900473ffffffffffffffffffffffffffffffffffffffff16908060020160149054906101000a900460030b908060050154908060070160009054906101000a900473ffffffffffffffffffffffffffffffffffffffff16908060070160149054906101000a900460030b90508b565b600f60009054906101000a900473ffffffffffffffffffffffffffffffffffffffff1681565b6060600660149054906101000a900460ff1615611ac8576040517f08c379a0000000000000000000000000000000000000000000000000000000008152600401611abf90615f3e565b60405180910390fd5b60178281548110611ad557fe5b90600052602060002001805480602002602001604051908101604052809291908181526020016000905b82821015611e0c5783829060005260206000209060080201604051806101200160405290816000820160009054906101000a900463ffffffff1663ffffffff1663ffffffff168152602001600182016040518060400160405290816000820160009054906101000a900473ffffffffffffffffffffffffffffffffffffffff1673ffffffffffffffffffffffffffffffffffffffff1673ffffffffffffffffffffffffffffffffffffffff1681526020016000820160149054906101000a900467ffffffffffffffff1667ffffffffffffffff1667ffffffffffffffff168152505081526020016002820160009054906101000a900463ffffffff1663ffffffff1663ffffffff1681526020016002820160049054906101000a900473ffffffffffffffffffffffffffffffffffffffff1673ffffffffffffffffffffffffffffffffffffffff1673ffffffffffffffffffffffffffffffffffffffff16815260200160038201548152602001600482016040518060400160405290816000820160009054906101000a900463ffffffff1663ffffffff1663ffffffff1681526020016000820160049054906101000a900473ffffffffffffffffffffffffffffffffffffffff1673ffffffffffffffffffffffffffffffffffffffff1673ffffffffffffffffffffffffffffffffffffffff168152505081526020016005820160009054906101000a900473ffffffffffffffffffffffffffffffffffffffff1673ffffffffffffffffffffffffffffffffffffffff1673ffffffffffffffffffffffffffffffffffffffff1681526020016006820160009054906101000a900473ffffffffffffffffffffffffffffffffffffffff1673ffffffffffffffffffffffffffffffffffffffff1673ffffffffffffffffffffffffffffffffffffffff1681526020016007820160009054906101000a900473ffffffffffffffffffffffffffffffffffffffff1673ffffffffffffffffffffffffffffffffffffffff1673ffffffffffffffffffffffffffffffffffffffff168152505081526020019060010190611aff565b505050509050919050565b601a6020528060005260406000206000915090508060000154908060010160009054906101000a900460ff16905082565b6000600660149054906101000a900460ff1615611e9a576040517f08c379a0000000000000000000000000000000000000000000000000000000008152600401611e9190615f3e565b60405180910390fd5b600160178054905003905090565b6000600660149054906101000a900460ff1615611efa576040517f08c379a0000000000000000000000000000000000000000000000000000000008152600401611ef190615f3e565b60405180910390fd5b6000601b60003373ffffffffffffffffffffffffffffffffffffffff1673ffffffffffffffffffffffffffffffffffffffff168152602001908152602001600020541115611f8c57611f8b601b60003373ffffffffffffffffffffffffffffffffffffffff1673ffffffffffffffffffffffffffffffffffffffff1681526020019081526020016000205433612c08565b5b601b60003373ffffffffffffffffffffffffffffffffffffffff1673ffffffffffffffffffffffffffffffffffffffff16815260200190815260200160002054905090565b600d60009054906101000a900473ffffffffffffffffffffffffffffffffffffffff1681565b6012818154811061200757600080fd5b906000526020600020016000915090505481565b60606000808490505b83811161206857601a600082815260200190815260200160002060010160009054906101000a900460ff161561205b576001820191505b8080600101915050612024565b5060008167ffffffffffffffff8111801561208257600080fd5b506040519080825280602002602001820160405280156120bc57816020015b6120a9613775565b8152602001906001900390816120a15790505b5090506000808690505b85811161212c57601a600082815260200190815260200160002060010160009054906101000a900460ff161561211f576120ff81610b6b565b83838151811061210b57fe5b602002602001018190525081806001019250505b80806001019150506120c6565b5081935050505092915050565b6000600660149054906101000a900460ff161561218b576040517f08c379a000000000000000000000000000000000000000000000000000000000815260040161218290615f3e565b60405180910390fd5b60115434116121cf576040517f08c379a00000000000000000000000000000000000000000000000000000000081526004016121c690615f7e565b60405180910390fd5b600060115434039050806009600082825401925050819055506011546008600082825401925050819055506000806040518060400160405280600163ffffffff1681526020018a73ffffffffffffffffffffffffffffffffffffffff16815250905060006040518060400160405280600c60009054906101000a900473ffffffffffffffffffffffffffffffffffffffff1673ffffffffffffffffffffffffffffffffffffffff1681526020018567ffffffffffffffff1681525090506000604051806101200160405280600163ffffffff1681526020018381526020018563ffffffff1681526020018b73ffffffffffffffffffffffffffffffffffffffff1681526020018a8152602001848152602001600c60009054906101000a900473ffffffffffffffffffffffffffffffffffffffff1673ffffffffffffffffffffffffffffffffffffffff1681526020018973ffffffffffffffffffffffffffffffffffffffff1681526020018873ffffffffffffffffffffffffffffffffffffffff16815250905061236081612ce6565b849550505050505095945050505050565b600660149054906101000a900460ff16156123c1576040517f08c379a00000000000000000000000000000000000000000000000000000000081526004016123b890615f3e565b60405180910390fd5b8367ffffffffffffffff1660115401341015612412576040517f08c379a000000000000000000000000000000000000000000000000000000000815260040161240990615ffe565b60405180910390fd5b600c60009054906101000a900473ffffffffffffffffffffffffffffffffffffffff1673ffffffffffffffffffffffffffffffffffffffff168673ffffffffffffffffffffffffffffffffffffffff1614156124a3576040517f08c379a000000000000000000000000000000000000000000000000000000000815260040161249a90615f5e565b60405180910390fd5b34600860008282540192505081905550600087905060008173ffffffffffffffffffffffffffffffffffffffff1663dd62ed3e33306040518363ffffffff1660e01b81526004016124f5929190615d6f565b60206040518083038186803b15801561250d57600080fd5b505afa158015612521573d6000803e3d6000fd5b505050506040513d601f19601f820116820180604052508101906125459190614e54565b90508967ffffffffffffffff168167ffffffffffffffff16101561259e576040517f08c379a000000000000000000000000000000000000000000000000000000000815260040161259590615fde565b60405180910390fd5b8173ffffffffffffffffffffffffffffffffffffffff166323b872dd33308d67ffffffffffffffff166040518463ffffffff1660e01b81526004016125e593929190615d98565b602060405180830381600087803b1580156125ff57600080fd5b505af1158015612613573d6000803e3d6000fd5b505050506040513d601f19601f820116820180604052508101906126379190614c76565b508173ffffffffffffffffffffffffffffffffffffffff1663095ea7b360008054906101000a900473ffffffffffffffffffffffffffffffffffffffff168c67ffffffffffffffff166040518363ffffffff1660e01b815260040161269d929190615e37565b602060405180830381600087803b1580156126b757600080fd5b505af11580156126cb573d6000803e3d6000fd5b505050506040513d601f19601f820116820180604052508101906126ef9190614c76565b5060008054906101000a900473ffffffffffffffffffffffffffffffffffffffff1673ffffffffffffffffffffffffffffffffffffffff16639033ef3f8a8c67ffffffffffffffff166040518363ffffffff1660e01b8152600401612755929190615e37565b600060405180830381600087803b15801561276f57600080fd5b505af1158015612783573d6000803e3d6000fd5b505050506000806040518060400160405280600163ffffffff1681526020018b73ffffffffffffffffffffffffffffffffffffffff168152509050600060405180604001604052808d73ffffffffffffffffffffffffffffffffffffffff1681526020018e67ffffffffffffffff1681525090506000604051806101200160405280600163ffffffff1681526020018381526020018563ffffffff1681526020018a73ffffffffffffffffffffffffffffffffffffffff1681526020018b81526020018481526020018c73ffffffffffffffffffffffffffffffffffffffff1681526020018973ffffffffffffffffffffffffffffffffffffffff1681526020018873ffffffffffffffffffffffffffffffffffffffff1681525090506128a981612ce6565b5050505050505050505050505050565b600080600090505b8260a0015151811015612bfe57600c60009054906101000a900473ffffffffffffffffffffffffffffffffffffffff1673ffffffffffffffffffffffffffffffffffffffff168360a00151828151811061291757fe5b602002602001015160c0015173ffffffffffffffffffffffffffffffffffffffff1614156129cf576129918360a00151828151811061295257fe5b6020026020010151602001516020015167ffffffffffffffff168460a00151838151811061297c57fe5b602002602001015160a0015160200151612c08565b8260a0015181815181106129a157fe5b6020026020010151602001516020015167ffffffffffffffff16600960008282540392505081905550612ab8565b60008054906101000a900473ffffffffffffffffffffffffffffffffffffffff1673ffffffffffffffffffffffffffffffffffffffff166368d31bb98460a001518381518110612a1b57fe5b602002602001015160c001518560a001518481518110612a3757fe5b602002602001015160200151602001518660a001518581518110612a5757fe5b602002602001015160a00151602001516040518463ffffffff1660e01b8152600401612a859392919061609f565b600060405180830381600087803b158015612a9f57600080fd5b505af1158015612ab3573d6000803e3d6000fd5b505050505b60008360a001518281518110612aca57fe5b602002602001015160800151118015612b4b5750600c60009054906101000a900473ffffffffffffffffffffffffffffffffffffffff1673ffffffffffffffffffffffffffffffffffffffff168360a001518281518110612b2757fe5b60200260200101516060015173ffffffffffffffffffffffffffffffffffffffff16145b15612bf1578260a001518181518110612b6057fe5b602002602001015160800151601b60003373ffffffffffffffffffffffffffffffffffffffff1673ffffffffffffffffffffffffffffffffffffffff1681526020019081526020016000205401601b60003373ffffffffffffffffffffffffffffffffffffffff1673ffffffffffffffffffffffffffffffffffffffff168152602001908152602001600020819055505b80806001019150506128c1565b5060019050919050565b600660149054906101000a900460ff1615612c58576040517f08c379a0000000000000000000000000000000000000000000000000000000008152600401612c4f90615f3e565b60405180910390fd5b47821115612c9b576040517f08c379a0000000000000000000000000000000000000000000000000000000008152600401612c9290615f9e565b60405180910390fd5b8073ffffffffffffffffffffffffffffffffffffffff166108fc839081150290604051600060405180830381858888f19350505050158015612ce1573d6000803e3d6000fd5b505050565b6000439050600080612d00846080015185606001516135ac565b15612d1a578360800151600a600082825403925050819055505b601a600084815260200190815260200160002060010160009054906101000a900460ff161561301757601a600084815260200190815260200160002060000154915060178281548110612d6957fe5b9060005260206000200184908060018154018082558091505060019003906000526020600020906008020160009091909190915060008201518160000160006101000a81548163ffffffff021916908363ffffffff16021790555060208201518160010160008201518160000160006101000a81548173ffffffffffffffffffffffffffffffffffffffff021916908373ffffffffffffffffffffffffffffffffffffffff16021790555060208201518160000160146101000a81548167ffffffffffffffff021916908367ffffffffffffffff160217905550505060408201518160020160006101000a81548163ffffffff021916908363ffffffff16021790555060608201518160020160046101000a81548173ffffffffffffffffffffffffffffffffffffffff021916908373ffffffffffffffffffffffffffffffffffffffff1602179055506080820151816003015560a08201518160040160008201518160000160006101000a81548163ffffffff021916908363ffffffff16021790555060208201518160000160046101000a81548173ffffffffffffffffffffffffffffffffffffffff021916908373ffffffffffffffffffffffffffffffffffffffff160217905550505060c08201518160050160006101000a81548173ffffffffffffffffffffffffffffffffffffffff021916908373ffffffffffffffffffffffffffffffffffffffff16021790555060e08201518160060160006101000a81548173ffffffffffffffffffffffffffffffffffffffff021916908373ffffffffffffffffffffffffffffffffffffffff1602179055506101008201518160070160006101000a81548173ffffffffffffffffffffffffffffffffffffffff021916908373ffffffffffffffffffffffffffffffffffffffff160217905550505060009050613362565b601584908060018154018082558091505060019003906000526020600020906008020160009091909190915060008201518160000160006101000a81548163ffffffff021916908363ffffffff16021790555060208201518160010160008201518160000160006101000a81548173ffffffffffffffffffffffffffffffffffffffff021916908373ffffffffffffffffffffffffffffffffffffffff16021790555060208201518160000160146101000a81548167ffffffffffffffff021916908367ffffffffffffffff160217905550505060408201518160020160006101000a81548163ffffffff021916908363ffffffff16021790555060608201518160020160046101000a81548173ffffffffffffffffffffffffffffffffffffffff021916908373ffffffffffffffffffffffffffffffffffffffff1602179055506080820151816003015560a08201518160040160008201518160000160006101000a81548163ffffffff021916908363ffffffff16021790555060208201518160000160046101000a81548173ffffffffffffffffffffffffffffffffffffffff021916908373ffffffffffffffffffffffffffffffffffffffff160217905550505060c08201518160050160006101000a81548173ffffffffffffffffffffffffffffffffffffffff021916908373ffffffffffffffffffffffffffffffffffffffff16021790555060e08201518160060160006101000a81548173ffffffffffffffffffffffffffffffffffffffff021916908373ffffffffffffffffffffffffffffffffffffffff1602179055506101008201518160070160006101000a81548173ffffffffffffffffffffffffffffffffffffffff021916908373ffffffffffffffffffffffffffffffffffffffff160217905550505060176015908060018154018082558091505060019003906000526020600020016000909190919091509080546132eb92919061397c565b506001601780549050039150604051806040016040528083815260200160011515815250601a60008581526020019081526020016000206000820151816000015560208201518160010160006101000a81548160ff0219169083151502179055509050506015600061335d9190613d44565b600190505b7f0b8d4f347a0b44134445a8314af14ad4ca1c388ba87529e9a4fb9c6ef15745dc8260405161339191906160d6565b60405180910390a160006133a483611573565b90506000600160009054906101000a900473ffffffffffffffffffffffffffffffffffffffff1673ffffffffffffffffffffffffffffffffffffffff1663bd5ea273836040518263ffffffff1660e01b8152600401613403919061601e565b60006040518083038186803b15801561341b57600080fd5b505afa15801561342f573d6000803e3d6000fd5b505050506040513d6000823e3d601f19601f820116820180604052508101906134589190614cc8565b90506000600160009054906101000a900473ffffffffffffffffffffffffffffffffffffffff1673ffffffffffffffffffffffffffffffffffffffff166348352c07601787815481106134a757fe5b906000526020600020016040518263ffffffff1660e01b81526004016134cd9190615ea4565b60006040518083038186803b1580156134e557600080fd5b505afa1580156134f9573d6000803e3d6000fd5b505050506040513d6000823e3d601f19601f820116820180604052508101906135229190614cc8565b905060008282604051602001613539929190615d30565b60405160208183030381529060405280519060200120905084156135855760128190806001815401808255809150506001900390600052602060002001600090919091909150556135a2565b806012878154811061359357fe5b90600052602060002001819055505b5050505050505050565b60006001600460009054906101000a900473ffffffffffffffffffffffffffffffffffffffff1673ffffffffffffffffffffffffffffffffffffffff1663ec48ae3c6040518163ffffffff1660e01b815260040160206040518083038186803b15801561361857600080fd5b505afa15801561362c573d6000803e3d6000fd5b505050506040513d601f19601f820116820180604052508101906136509190614e54565b1061365e5760009050613737565b600f60009054906101000a900473ffffffffffffffffffffffffffffffffffffffff1673ffffffffffffffffffffffffffffffffffffffff168273ffffffffffffffffffffffffffffffffffffffff16146136ee576040517f08c379a00000000000000000000000000000000000000000000000000000000081526004016136e590615f1e565b60405180910390fd5b82600a5411613732576040517f08c379a000000000000000000000000000000000000000000000000000000000815260040161372990615fbe565b60405180910390fd5b600190505b92915050565b6040518060c0016040528060008152602001606081526020016000815260200160008152602001606081526020016000151581525090565b6040518060800160405280600081526020016000815260200160008019168152602001606081525090565b6040518061020001604052806000815260200160608152602001600073ffffffffffffffffffffffffffffffffffffffff168152602001600073ffffffffffffffffffffffffffffffffffffffff168152602001600073ffffffffffffffffffffffffffffffffffffffff168152602001600060ff168152602001600060ff16815260200161382d613d68565b8152602001600073ffffffffffffffffffffffffffffffffffffffff16815260200160008152602001600081526020016000815260200160008152602001600073ffffffffffffffffffffffffffffffffffffffff16815260200160608152602001600081525090565b604051806101c00160405280600063ffffffff168152602001600063ffffffff168152602001600073ffffffffffffffffffffffffffffffffffffffff168152602001600063ffffffff168152602001600063ffffffff168152602001600073ffffffffffffffffffffffffffffffffffffffff168152602001600073ffffffffffffffffffffffffffffffffffffffff168152602001600060030b815260200160608152602001606081526020016000815260200160608152602001600073ffffffffffffffffffffffffffffffffffffffff168152602001600060030b81525090565b828054828255906000526020600020906008028101928215613d335760005260206000209160080282015b82811115613d325782826000820160009054906101000a900463ffffffff168160000160006101000a81548163ffffffff021916908363ffffffff16021790555060018201816001016000820160009054906101000a900473ffffffffffffffffffffffffffffffffffffffff168160000160006101000a81548173ffffffffffffffffffffffffffffffffffffffff021916908373ffffffffffffffffffffffffffffffffffffffff1602179055506000820160149054906101000a900467ffffffffffffffff168160000160146101000a81548167ffffffffffffffff021916908367ffffffffffffffff16021790555050506002820160009054906101000a900463ffffffff168160020160006101000a81548163ffffffff021916908363ffffffff1602179055506002820160049054906101000a900473ffffffffffffffffffffffffffffffffffffffff168160020160046101000a81548173ffffffffffffffffffffffffffffffffffffffff021916908373ffffffffffffffffffffffffffffffffffffffff1602179055506003820154816003015560048201816004016000820160009054906101000a900463ffffffff168160000160006101000a81548163ffffffff021916908363ffffffff1602179055506000820160049054906101000a900473ffffffffffffffffffffffffffffffffffffffff168160000160046101000a81548173ffffffffffffffffffffffffffffffffffffffff021916908373ffffffffffffffffffffffffffffffffffffffff16021790555050506005820160009054906101000a900473ffffffffffffffffffffffffffffffffffffffff168160050160006101000a81548173ffffffffffffffffffffffffffffffffffffffff021916908373ffffffffffffffffffffffffffffffffffffffff1602179055506006820160009054906101000a900473ffffffffffffffffffffffffffffffffffffffff168160060160006101000a81548173ffffffffffffffffffffffffffffffffffffffff021916908373ffffffffffffffffffffffffffffffffffffffff1602179055506007820160009054906101000a900473ffffffffffffffffffffffffffffffffffffffff168160070160006101000a81548173ffffffffffffffffffffffffffffffffffffffff021916908373ffffffffffffffffffffffffffffffffffffffff1602179055505050916008019190600801906139a7565b5b509050613d409190613d9e565b5090565b5080546000825560080290600052602060002090810190613d659190613d9e565b50565b6040518060400160405280600063ffffffff168152602001600073ffffffffffffffffffffffffffffffffffffffff1681525090565b5b80821115613f1157600080820160006101000a81549063ffffffff021916905560018201600080820160006101000a81549073ffffffffffffffffffffffffffffffffffffffff02191690556000820160146101000a81549067ffffffffffffffff021916905550506002820160006101000a81549063ffffffff02191690556002820160046101000a81549073ffffffffffffffffffffffffffffffffffffffff0219169055600382016000905560048201600080820160006101000a81549063ffffffff02191690556000820160046101000a81549073ffffffffffffffffffffffffffffffffffffffff021916905550506005820160006101000a81549073ffffffffffffffffffffffffffffffffffffffff02191690556006820160006101000a81549073ffffffffffffffffffffffffffffffffffffffff02191690556007820160006101000a81549073ffffffffffffffffffffffffffffffffffffffff021916905550600801613d9f565b5090565b6000613f28613f2384616285565b616254565b90508083825260208201905082856020860282011115613f4757600080fd5b60005b85811015613f775781613f5d888261428d565b845260208401935060208301925050600181019050613f4a565b5050509392505050565b6000613f94613f8f846162b1565b616254565b90508083825260208201905082856020860282011115613fb357600080fd5b60005b85811015613fe35781613fc988826143dd565b845260208401935060208301925050600181019050613fb6565b5050509392505050565b6000614000613ffb846162dd565b616254565b9050808382526020820190508285604086028201111561401f57600080fd5b60005b8581101561404f57816140358882614794565b845260208401935060408301925050600181019050614022565b5050509392505050565b600061406c614067846162dd565b616254565b9050808382526020820190508285604086028201111561408b57600080fd5b60005b858110156140bb57816140a188826147e0565b84526020840193506040830192505060018101905061408e565b5050509392505050565b60006140d86140d384616309565b616254565b9050808382526020820190508260005b8581101561411857813585016140fe888261482c565b8452602084019350602083019250506001810190506140e8565b5050509392505050565b600061413561413084616335565b616254565b905080838252602082019050828561016086028201111561415557600080fd5b60005b85811015614186578161416b8882614910565b84526020840193506101608301925050600181019050614158565b5050509392505050565b60006141a361419e84616361565b616254565b905080838252602082019050828560208602820111156141c257600080fd5b60005b858110156141f257816141d88882614ae2565b8452602084019350602083019250506001810190506141c5565b5050509392505050565b600061420f61420a8461638d565b616254565b90508281526020810184848401111561422757600080fd5b61423284828561669f565b509392505050565b600061424d614248846163bd565b616254565b90508281526020810184848401111561426557600080fd5b61427084828561669f565b509392505050565b6000813590506142878161678e565b92915050565b60008151905061429c8161678e565b92915050565b600082601f8301126142b357600080fd5b81516142c3848260208601613f15565b91505092915050565b600082601f8301126142dd57600080fd5b81356142ed848260208601613f81565b91505092915050565b600082601f83011261430757600080fd5b8135614317848260208601613fed565b91505092915050565b600082601f83011261433157600080fd5b8151614341848260208601614059565b91505092915050565b600082601f83011261435b57600080fd5b813561436b8482602086016140c5565b91505092915050565b600082601f83011261438557600080fd5b8135614395848260208601614122565b91505092915050565b600082601f8301126143af57600080fd5b81356143bf848260208601614190565b91505092915050565b6000815190506143d7816167a5565b92915050565b6000813590506143ec816167bc565b92915050565b600082601f83011261440357600080fd5b81516144138482602086016141fc565b91505092915050565b60008135905061442b816167d3565b92915050565b600081519050614440816167d3565b92915050565b600082601f83011261445757600080fd5b815161446784826020860161423a565b91505092915050565b60006101c0828403121561448357600080fd5b61448e6101c0616254565b9050600061449e84828501614a8e565b60008301525060206144b284828501614a8e565b60208301525060406144c684828501614a3a565b60408301525060606144da84828501614a8e565b60608301525060806144ee84828501614a8e565b60808301525060a061450284828501614a3a565b60a08301525060c061451684828501614a3a565b60c08301525060e061452a8482850161441c565b60e08301525061010082013567ffffffffffffffff81111561454b57600080fd5b614557848285016142f6565b6101008301525061012082013567ffffffffffffffff81111561457957600080fd5b614585848285016142f6565b6101208301525061014061459b84828501614a64565b6101408301525061016082013567ffffffffffffffff8111156145bd57600080fd5b6145c9848285016142f6565b610160830152506101806145df84828501614278565b610180830152506101a06145f58482850161441c565b6101a08301525092915050565b60006101c0828403121561461557600080fd5b6146206101c0616254565b9050600061463084828501614aa3565b600083015250602061464484828501614aa3565b602083015250604061465884828501614a4f565b604083015250606061466c84828501614aa3565b606083015250608061468084828501614aa3565b60808301525060a061469484828501614a4f565b60a08301525060c06146a884828501614a4f565b60c08301525060e06146bc84828501614431565b60e08301525061010082015167ffffffffffffffff8111156146dd57600080fd5b6146e984828501614320565b6101008301525061012082015167ffffffffffffffff81111561470b57600080fd5b61471784828501614320565b6101208301525061014061472d84828501614a79565b6101408301525061016082015167ffffffffffffffff81111561474f57600080fd5b61475b84828501614320565b610160830152506101806147718482850161428d565b610180830152506101a061478784828501614431565b6101a08301525092915050565b6000604082840312156147a657600080fd5b6147b06040616254565b905060006147c084828501614a3a565b60008301525060206147d484828501614ab8565b60208301525092915050565b6000604082840312156147f257600080fd5b6147fc6040616254565b9050600061480c84828501614a4f565b600083015250602061482084828501614acd565b60208301525092915050565b600060c0828403121561483e57600080fd5b61484860c0616254565b9050600061485884828501614a64565b600083015250602061486c848285016143dd565b602083015250604061488084828501614a64565b604083015250606082013567ffffffffffffffff8111156148a057600080fd5b6148ac84828501614470565b606083015250608082013567ffffffffffffffff8111156148cc57600080fd5b6148d8848285016142cc565b60808301525060a082013567ffffffffffffffff8111156148f857600080fd5b61490484828501614374565b60a08301525092915050565b6000610160828403121561492357600080fd5b61492e610120616254565b9050600061493e84828501614a8e565b600083015250602061495284828501614794565b602083015250606061496684828501614a8e565b604083015250608061497a84828501614a3a565b60608301525060a061498e84828501614a64565b60808301525060c06149a2848285016149ee565b60a0830152506101006149b784828501614a3a565b60c0830152506101206149cc84828501614a3a565b60e0830152506101406149e184828501614a3a565b6101008301525092915050565b600060408284031215614a0057600080fd5b614a0a6040616254565b90506000614a1a84828501614a8e565b6000830152506020614a2e84828501614a3a565b60208301525092915050565b600081359050614a49816167ea565b92915050565b600081519050614a5e816167ea565b92915050565b600081359050614a7381616801565b92915050565b600081519050614a8881616801565b92915050565b600081359050614a9d81616818565b92915050565b600081519050614ab281616818565b92915050565b600081359050614ac78161682f565b92915050565b600081519050614adc8161682f565b92915050565b600081359050614af181616846565b92915050565b600081519050614b0681616846565b92915050565b600060208284031215614b1e57600080fd5b6000614b2c84828501614278565b91505092915050565b600080600080600060a08688031215614b4d57600080fd5b6000614b5b88828901614278565b9550506020614b6c888289016143dd565b945050604086013567ffffffffffffffff811115614b8957600080fd5b614b958882890161439e565b935050606086013567ffffffffffffffff811115614bb257600080fd5b614bbe888289016142cc565b925050608086013567ffffffffffffffff811115614bdb57600080fd5b614be7888289016142cc565b9150509295509295909350565b600060208284031215614c0657600080fd5b600082015167ffffffffffffffff811115614c2057600080fd5b614c2c848285016142a2565b91505092915050565b600060208284031215614c4757600080fd5b600082013567ffffffffffffffff811115614c6157600080fd5b614c6d8482850161434a565b91505092915050565b600060208284031215614c8857600080fd5b6000614c96848285016143c8565b91505092915050565b600060208284031215614cb157600080fd5b6000614cbf848285016143dd565b91505092915050565b600060208284031215614cda57600080fd5b600082015167ffffffffffffffff811115614cf457600080fd5b614d00848285016143f2565b91505092915050565b600060208284031215614d1b57600080fd5b600082015167ffffffffffffffff811115614d3557600080fd5b614d4184828501614446565b91505092915050565b600060208284031215614d5c57600080fd5b600082015167ffffffffffffffff811115614d7657600080fd5b614d8284828501614602565b91505092915050565b600060208284031215614d9d57600080fd5b6000614dab84828501614a3a565b91505092915050565b600080600080600060a08688031215614dcc57600080fd5b6000614dda88828901614a3a565b9550506020614deb88828901614a3a565b9450506040614dfc88828901614a64565b9350506060614e0d88828901614a3a565b9250506080614e1e88828901614a3a565b9150509295509295909350565b600060208284031215614e3d57600080fd5b6000614e4b84828501614a64565b91505092915050565b600060208284031215614e6657600080fd5b6000614e7484828501614a79565b91505092915050565b60008060408385031215614e9057600080fd5b6000614e9e85828601614a64565b9250506020614eaf85828601614a64565b9150509250929050565b600080600080600080600080610100898b031215614ed657600080fd5b6000614ee48b828c01614ab8565b9850506020614ef58b828c01614278565b9750506040614f068b828c01614a3a565b9650506060614f178b828c01614a3a565b9550506080614f288b828c01614a64565b94505060a0614f398b828c01614a3a565b93505060c0614f4a8b828c01614a3a565b92505060e0614f5b8b828c01614a3a565b9150509295985092959890939650565b600060208284031215614f7d57600080fd5b6000614f8b84828501614af7565b91505092915050565b6000614fa08383615315565b60208301905092915050565b6000614fb88383615860565b60408301905092915050565b6000614fd083836158fe565b905092915050565b6000614fe483836159c4565b6101608301905092915050565b6000614ffd8383615a7d565b6101608301905092915050565b60006150168383615d21565b60208301905092915050565b61502b81616669565b82525050565b61503a816165d9565b82525050565b615049816165d9565b82525050565b600061505a82616452565b61506481856164f8565b935061506f836163ed565b8060005b838110156150a05781516150878882614f94565b9750615092836164aa565b925050600181019050615073565b5085935050505092915050565b60006150b88261645d565b6150c28185616509565b93506150cd836163fd565b8060005b838110156150fe5781516150e58882614fac565b97506150f0836164b7565b9250506001810190506150d1565b5085935050505092915050565b600061511682616468565b615120818561651a565b9350836020820285016151328561640d565b8060005b8581101561516e578484038952815161514f8582614fc4565b945061515a836164c4565b925060208a01995050600181019050615136565b50829750879550505050505092915050565b600061518b82616473565b615195818561652b565b93506151a08361641d565b8060005b838110156151d15781516151b88882614fd8565b97506151c3836164d1565b9250506001810190506151a4565b5085935050505092915050565b60006151e982616473565b6151f3818561653c565b93506151fe8361641d565b8060005b8381101561522f5781516152168882614fd8565b9750615221836164d1565b925050600181019050615202565b5085935050505092915050565b60006152478261647e565b615251818561653c565b935061525c8361642d565b8060005b8381101561528c57816152738882614ff1565b975061527e836164de565b925050600181019050615260565b5085935050505092915050565b60006152a482616489565b6152ae818561654d565b93506152b983616442565b8060005b838110156152ea5781516152d1888261500a565b97506152dc836164eb565b9250506001810190506152bd565b5085935050505092915050565b615300816165eb565b82525050565b61530f816165eb565b82525050565b61531e816165f7565b82525050565b61532d816165f7565b82525050565b600061533e82616494565b615348818561655e565b935061535881856020860161669f565b80840191505092915050565b61536d81616601565b82525050565b61537c81616601565b82525050565b600061538d8261649f565b6153978185616569565b93506153a781856020860161669f565b6153b081616756565b840191505092915050565b60006153c68261649f565b6153d0818561657a565b93506153e081856020860161669f565b6153e981616756565b840191505092915050565b6000615401603b8361657a565b91507f427269646765206973206e6f742079657420617661696c61626c65206f6e6c7960008301527f2056657275732063616e206265207573656420666f72206665657300000000006020830152604082019050919050565b6000615467601c8361657a565b91507f436f6e747261637420686173206265656e2064657072656361746564000000006000830152602082019050919050565b60006154a760198361657a565b91507f546f2073656e642065746820757365206578706f7274455448000000000000006000830152602082019050919050565b60006154e760488361657a565b91507f457468657265756d206d7573742062652073656e74207769746820746865207460008301527f72616e73616374696f6e20746f2062652073656e7420746f207468652056657260208301527f757320436861696e0000000000000000000000000000000000000000000000006040830152606082019050919050565b600061557360298361657a565b91507f52657175657374656420616d6f756e74206578636565647320636f6e7472616360008301527f742062616c616e636500000000000000000000000000000000000000000000006020830152604082019050919050565b60006155d9603d8361657a565b91507f427269646765206973206e6f742079657420617661696c61626c65206665657360008301527f2063616e6e6f7420657863656564206578697374696e6720706f6f6c2e0000006020830152604082019050919050565b600061563f60558361657a565b91507f5468697320636f6e7472616374206d757374206861766520616e20616c6c6f7760008301527f616e6365206f662067726561746572207468616e206f7220657175616c20746f60208301527f20746865206e756d626572206f6620746f6b656e7300000000000000000000006040830152606082019050919050565b60006156cb602c8361657a565b91507f506c656173652073656e642074686520617070726f707269617465207472616e60008301527f73616374696f6e206665652e00000000000000000000000000000000000000006020830152604082019050919050565b60006101c08301600083015161573d6000860182615ce5565b5060208301516157506020860182615ce5565b5060408301516157636040860182615ca9565b5060608301516157766060860182615ce5565b5060808301516157896080860182615ce5565b5060a083015161579c60a0860182615ca9565b5060c08301516157af60c0860182615ca9565b5060e08301516157c260e0860182615364565b506101008301518482036101008601526157dc82826150ad565b9150506101208301518482036101208601526157f882826150ad565b91505061014083015161580f610140860182615cc7565b5061016083015184820361016086015261582982826150ad565b915050610180830151615840610180860182615031565b506101a08301516158556101a0860182615364565b508091505092915050565b6040820160008201516158766000850182615ca9565b5060208201516158896020850182615d03565b50505050565b6040820160008201516158a56000850182615ca9565b5060208201516158b86020850182615d03565b50505050565b6040820160008083015490506158d3816166d2565b6158e06000860182615ca9565b506158ea81616720565b6158f76020860182615d03565b5050505050565b60006080830160008301516159166000860182615cc7565b5060208301516159296020860182615cc7565b50604083015161593c6040860182615315565b50606083015184820360608601526159548282615180565b9150508091505092915050565b60006080830160008301516159796000860182615cc7565b50602083015161598c6020860182615cc7565b50604083015161599f6040860182615315565b50606083015184820360608601526159b78282615180565b9150508091505092915050565b610160820160008201516159db6000850182615ce5565b5060208201516159ee6020850182615860565b506040820151615a016060850182615ce5565b506060820151615a146080850182615ca9565b506080820151615a2760a0850182615cc7565b5060a0820151615a3a60c0850182615b7b565b5060c0820151615a4e610100850182615ca9565b5060e0820151615a62610120850182615ca9565b50610100820151615a77610140850182615ca9565b50505050565b61016082016000808301549050615a9381616706565b615aa06000860182615ce5565b5060018301615ab260208601826158be565b5060028301549050615ac381616706565b615ad06060860182615ce5565b50615ada8161673a565b615ae76080860182615ca9565b5060038301549050615af8816166ec565b615b0560a0860182615cc7565b5060048301615b1760c0860182615bd9565b5060058301549050615b28816166d2565b615b36610100860182615ca9565b5060068301549050615b47816166d2565b615b55610120860182615ca9565b5060078301549050615b66816166d2565b615b74610140860182615ca9565b5050505050565b604082016000820151615b916000850182615ce5565b506020820151615ba46020850182615ca9565b50505050565b604082016000820151615bc06000850182615ce5565b506020820151615bd36020850182615ca9565b50505050565b604082016000808301549050615bee81616706565b615bfb6000860182615ce5565b50615c058161673a565b615c126020860182615ca9565b5050505050565b600060c083016000830151615c316000860182615cc7565b5060208301518482036020860152615c498282615382565b9150506040830151615c5e6040860182615cc7565b506060830151615c716060860182615cc7565b5060808301518482036080860152615c898282615382565b91505060a0830151615c9e60a08601826152f7565b508091505092915050565b615cb28161660e565b82525050565b615cc18161660e565b82525050565b615cd08161662e565b82525050565b615cdf8161662e565b82525050565b615cee81616638565b82525050565b615cfd81616638565b82525050565b615d0c81616648565b82525050565b615d1b81616648565b82525050565b615d2a8161665c565b82525050565b6000615d3c8285615333565b9150615d488284615333565b91508190509392505050565b6000602082019050615d696000830184615040565b92915050565b6000604082019050615d846000830185615022565b615d916020830184615040565b9392505050565b6000606082019050615dad6000830186615022565b615dba6020830185615040565b615dc76040830184615cd6565b949350505050565b600060a082019050615de46000830188615040565b615df16020830187615324565b8181036040830152615e038186615299565b90508181036060830152615e17818561504f565b90508181036080830152615e2b818461504f565b90509695505050505050565b6000604082019050615e4c6000830185615040565b615e596020830184615cd6565b9392505050565b60006020820190508181036000830152615e7a818461510b565b905092915050565b60006020820190508181036000830152615e9c81846151de565b905092915050565b60006020820190508181036000830152615ebe818461523c565b905092915050565b6000602082019050615edb6000830184615306565b92915050565b6000602082019050615ef66000830184615324565b92915050565b60006020820190508181036000830152615f1681846153bb565b905092915050565b60006020820190508181036000830152615f37816153f4565b9050919050565b60006020820190508181036000830152615f578161545a565b9050919050565b60006020820190508181036000830152615f778161549a565b9050919050565b60006020820190508181036000830152615f97816154da565b9050919050565b60006020820190508181036000830152615fb781615566565b9050919050565b60006020820190508181036000830152615fd7816155cc565b9050919050565b60006020820190508181036000830152615ff781615632565b9050919050565b60006020820190508181036000830152616017816156be565b9050919050565b600060208201905081810360008301526160388184615724565b905092915050565b6000602082019050818103600083015261605a8184615961565b905092915050565b6000602082019050818103600083015261607c8184615c19565b905092915050565b60006020820190506160996000830184615cb8565b92915050565b60006060820190506160b46000830186615cb8565b6160c16020830185615d12565b6160ce6040830184615cb8565b949350505050565b60006020820190506160eb6000830184615cd6565b92915050565b60006040820190506161066000830185615cd6565b6161136020830184615306565b9392505050565b600061016082019050616130600083018c615cf4565b61613d602083018b61588f565b61614a606083018a615cf4565b6161576080830189615cb8565b61616460a0830188615cd6565b61617160c0830187615baa565b61617f610100830186615cb8565b61618d610120830185615cb8565b61619b610140830184615cb8565b9a9950505050505050505050565b6000610160820190506161bf600083018e615cf4565b6161cc602083018d615cf4565b6161d9604083018c615cb8565b6161e6606083018b615cf4565b6161f3608083018a615cf4565b61620060a0830189615cb8565b61620d60c0830188615cb8565b61621a60e0830187615373565b616228610100830186615cd6565b616236610120830185615040565b616244610140830184615373565b9c9b505050505050505050505050565b6000604051905081810181811067ffffffffffffffff8211171561627b5761627a616754565b5b8060405250919050565b600067ffffffffffffffff8211156162a05761629f616754565b5b602082029050602081019050919050565b600067ffffffffffffffff8211156162cc576162cb616754565b5b602082029050602081019050919050565b600067ffffffffffffffff8211156162f8576162f7616754565b5b602082029050602081019050919050565b600067ffffffffffffffff82111561632457616323616754565b5b602082029050602081019050919050565b600067ffffffffffffffff8211156163505761634f616754565b5b602082029050602081019050919050565b600067ffffffffffffffff82111561637c5761637b616754565b5b602082029050602081019050919050565b600067ffffffffffffffff8211156163a8576163a7616754565b5b601f19601f8301169050602081019050919050565b600067ffffffffffffffff8211156163d8576163d7616754565b5b601f19601f8301169050602081019050919050565b6000819050602082019050919050565b6000819050602082019050919050565b6000819050602082019050919050565b6000819050602082019050919050565b60008190508160005260206000209050919050565b6000819050602082019050919050565b600081519050919050565b600081519050919050565b600081519050919050565b600081519050919050565b600081549050919050565b600081519050919050565b600081519050919050565b600081519050919050565b6000602082019050919050565b6000602082019050919050565b6000602082019050919050565b6000602082019050919050565b6000600882019050919050565b6000602082019050919050565b600082825260208201905092915050565b600082825260208201905092915050565b600082825260208201905092915050565b600082825260208201905092915050565b600082825260208201905092915050565b600082825260208201905092915050565b600081905092915050565b600082825260208201905092915050565b600082825260208201905092915050565b600073ffffffffffffffffffffffffffffffffffffffff82169050919050565b6000819050919050565b600063ffffffff82169050919050565b600067ffffffffffffffff82169050919050565b60006165e48261660e565b9050919050565b60008115159050919050565b6000819050919050565b60008160030b9050919050565b600073ffffffffffffffffffffffffffffffffffffffff82169050919050565b6000819050919050565b600063ffffffff82169050919050565b600067ffffffffffffffff82169050919050565b600060ff82169050919050565b60006166748261667b565b9050919050565b60006166868261668d565b9050919050565b60006166988261660e565b9050919050565b60005b838110156166bd5780820151818401526020810190506166a2565b838111156166cc576000848401525b50505050565b60006166e56166e083616767565b61658b565b9050919050565b60006166ff6166fa83616767565b6165ab565b9050919050565b600061671961671483616767565b6165b5565b9050919050565b600061673361672e83616774565b6165c5565b9050919050565b600061674d61674883616781565b61658b565b9050919050565bfe5b6000601f19601f8301169050919050565b60008160001c9050919050565b60008160a01c9050919050565b60008160201c9050919050565b616797816165d9565b81146167a257600080fd5b50565b6167ae816165eb565b81146167b957600080fd5b50565b6167c5816165f7565b81146167d057600080fd5b50565b6167dc81616601565b81146167e757600080fd5b50565b6167f38161660e565b81146167fe57600080fd5b50565b61680a8161662e565b811461681557600080fd5b50565b61682181616638565b811461682c57600080fd5b50565b61683881616648565b811461684357600080fd5b50565b61684f8161665c565b811461685a57600080fd5b5056fea2646970667358221220b72d67d941e3851052c0ab5625e91542835aec8800a4a27e5089b65e459ec03564736f6c63430007060033",
			"opcodes": "PUSH1 0x80 PUSH1 0x40 MSTORE PUSH1 0x0 PUSH1 0x6 PUSH1 0x14 PUSH2 0x100 EXP DUP2 SLOAD DUP2 PUSH1 0xFF MUL NOT AND SWAP1 DUP4 ISZERO ISZERO MUL OR SWAP1 SSTORE POP PUSH1 0x0 PUSH1 0x8 SSTORE PUSH1 0x0 PUSH1 0x9 SSTORE PUSH1 0x0 PUSH1 0xA SSTORE PUSH1 0x0 PUSH1 0xC PUSH1 0x0 PUSH2 0x100 EXP DUP2 SLOAD DUP2 PUSH20 0xFFFFFFFFFFFFFFFFFFFFFFFFFFFFFFFFFFFFFFFF MUL NOT AND SWAP1 DUP4 PUSH20 0xFFFFFFFFFFFFFFFFFFFFFFFFFFFFFFFFFFFFFFFF AND MUL OR SWAP1 SSTORE POP PUSH1 0x0 PUSH1 0xD PUSH1 0x0 PUSH2 0x100 EXP DUP2 SLOAD DUP2 PUSH20 0xFFFFFFFFFFFFFFFFFFFFFFFFFFFFFFFFFFFFFFFF MUL NOT AND SWAP1 DUP4 PUSH20 0xFFFFFFFFFFFFFFFFFFFFFFFFFFFFFFFFFFFFFFFF AND MUL OR SWAP1 SSTORE POP PUSH1 0x1 PUSH1 0xE PUSH1 0x0 PUSH2 0x100 EXP DUP2 SLOAD DUP2 PUSH20 0xFFFFFFFFFFFFFFFFFFFFFFFFFFFFFFFFFFFFFFFF MUL NOT AND SWAP1 DUP4 PUSH20 0xFFFFFFFFFFFFFFFFFFFFFFFFFFFFFFFFFFFFFFFF AND MUL OR SWAP1 SSTORE POP PUSH1 0x1 PUSH1 0xF PUSH1 0x0 PUSH2 0x100 EXP DUP2 SLOAD DUP2 PUSH20 0xFFFFFFFFFFFFFFFFFFFFFFFFFFFFFFFFFFFFFFFF MUL NOT AND SWAP1 DUP4 PUSH20 0xFFFFFFFFFFFFFFFFFFFFFFFFFFFFFFFFFFFFFFFF AND MUL OR SWAP1 SSTORE POP PUSH1 0x2 PUSH1 0x10 PUSH1 0x0 PUSH2 0x100 EXP DUP2 SLOAD DUP2 PUSH20 0xFFFFFFFFFFFFFFFFFFFFFFFFFFFFFFFFFFFFFFFF MUL NOT AND SWAP1 DUP4 PUSH20 0xFFFFFFFFFFFFFFFFFFFFFFFFFFFFFFFFFFFFFFFF AND MUL OR SWAP1 SSTORE POP PUSH6 0x5AF3107A4000 PUSH1 0x11 SSTORE PUSH1 0x0 PUSH1 0x13 SSTORE PUSH1 0x0 PUSH1 0x14 SSTORE CALLVALUE DUP1 ISZERO PUSH3 0x199 JUMPI PUSH1 0x0 DUP1 REVERT JUMPDEST POP PUSH1 0x40 MLOAD PUSH3 0x711C CODESIZE SUB DUP1 PUSH3 0x711C DUP4 CODECOPY DUP2 DUP2 ADD PUSH1 0x40 MSTORE DUP2 ADD SWAP1 PUSH3 0x1BF SWAP2 SWAP1 PUSH3 0x666 JUMP JUMPDEST CALLER PUSH1 0x6 PUSH1 0x0 PUSH2 0x100 EXP DUP2 SLOAD DUP2 PUSH20 0xFFFFFFFFFFFFFFFFFFFFFFFFFFFFFFFFFFFFFFFF MUL NOT AND SWAP1 DUP4 PUSH20 0xFFFFFFFFFFFFFFFFFFFFFFFFFFFFFFFFFFFFFFFF AND MUL OR SWAP1 SSTORE POP DUP8 PUSH1 0x2 PUSH1 0x0 PUSH2 0x100 EXP DUP2 SLOAD DUP2 PUSH20 0xFFFFFFFFFFFFFFFFFFFFFFFFFFFFFFFFFFFFFFFF MUL NOT AND SWAP1 DUP4 PUSH20 0xFFFFFFFFFFFFFFFFFFFFFFFFFFFFFFFFFFFFFFFF AND MUL OR SWAP1 SSTORE POP DUP7 PUSH1 0x0 DUP1 PUSH2 0x100 EXP DUP2 SLOAD DUP2 PUSH20 0xFFFFFFFFFFFFFFFFFFFFFFFFFFFFFFFFFFFFFFFF MUL NOT AND SWAP1 DUP4 PUSH20 0xFFFFFFFFFFFFFFFFFFFFFFFFFFFFFFFFFFFFFFFF AND MUL OR SWAP1 SSTORE POP DUP6 PUSH1 0x1 PUSH1 0x0 PUSH2 0x100 EXP DUP2 SLOAD DUP2 PUSH20 0xFFFFFFFFFFFFFFFFFFFFFFFFFFFFFFFFFFFFFFFF MUL NOT AND SWAP1 DUP4 PUSH20 0xFFFFFFFFFFFFFFFFFFFFFFFFFFFFFFFFFFFFFFFF AND MUL OR SWAP1 SSTORE POP DUP5 PUSH1 0x3 PUSH1 0x0 PUSH2 0x100 EXP DUP2 SLOAD DUP2 PUSH20 0xFFFFFFFFFFFFFFFFFFFFFFFFFFFFFFFFFFFFFFFF MUL NOT AND SWAP1 DUP4 PUSH20 0xFFFFFFFFFFFFFFFFFFFFFFFFFFFFFFFFFFFFFFFF AND MUL OR SWAP1 SSTORE POP DUP4 PUSH1 0x4 PUSH1 0x0 PUSH2 0x100 EXP DUP2 SLOAD DUP2 PUSH20 0xFFFFFFFFFFFFFFFFFFFFFFFFFFFFFFFFFFFFFFFF MUL NOT AND SWAP1 DUP4 PUSH20 0xFFFFFFFFFFFFFFFFFFFFFFFFFFFFFFFFFFFFFFFF AND MUL OR SWAP1 SSTORE POP DUP3 PUSH1 0x5 PUSH1 0x0 PUSH2 0x100 EXP DUP2 SLOAD DUP2 PUSH20 0xFFFFFFFFFFFFFFFFFFFFFFFFFFFFFFFFFFFFFFFF MUL NOT AND SWAP1 DUP4 PUSH20 0xFFFFFFFFFFFFFFFFFFFFFFFFFFFFFFFFFFFFFFFF AND MUL OR SWAP1 SSTORE POP DUP2 PUSH1 0x1C PUSH1 0x0 DUP3 ADD MLOAD DUP2 PUSH1 0x0 ADD SSTORE PUSH1 0x20 DUP3 ADD MLOAD DUP2 PUSH1 0x1 ADD SWAP1 DUP1 MLOAD SWAP1 PUSH1 0x20 ADD SWAP1 PUSH3 0x3B0 SWAP3 SWAP2 SWAP1 PUSH3 0x41C JUMP JUMPDEST POP PUSH1 0x40 DUP3 ADD MLOAD DUP2 PUSH1 0x2 ADD SSTORE PUSH1 0x60 DUP3 ADD MLOAD DUP2 PUSH1 0x3 ADD SSTORE PUSH1 0x80 DUP3 ADD MLOAD DUP2 PUSH1 0x4 ADD SWAP1 DUP1 MLOAD SWAP1 PUSH1 0x20 ADD SWAP1 PUSH3 0x3E3 SWAP3 SWAP2 SWAP1 PUSH3 0x41C JUMP JUMPDEST POP PUSH1 0xA0 DUP3 ADD MLOAD DUP2 PUSH1 0x5 ADD PUSH1 0x0 PUSH2 0x100 EXP DUP2 SLOAD DUP2 PUSH1 0xFF MUL NOT AND SWAP1 DUP4 ISZERO ISZERO MUL OR SWAP1 SSTORE POP SWAP1 POP POP DUP1 PUSH1 0xA DUP2 SWAP1 SSTORE POP POP POP POP POP POP POP POP POP PUSH3 0x879 JUMP JUMPDEST DUP3 DUP1 SLOAD PUSH1 0x1 DUP2 PUSH1 0x1 AND ISZERO PUSH2 0x100 MUL SUB AND PUSH1 0x2 SWAP1 DIV SWAP1 PUSH1 0x0 MSTORE PUSH1 0x20 PUSH1 0x0 KECCAK256 SWAP1 PUSH1 0x1F ADD PUSH1 0x20 SWAP1 DIV DUP2 ADD SWAP3 DUP3 PUSH3 0x454 JUMPI PUSH1 0x0 DUP6 SSTORE PUSH3 0x4A0 JUMP JUMPDEST DUP3 PUSH1 0x1F LT PUSH3 0x46F JUMPI DUP1 MLOAD PUSH1 0xFF NOT AND DUP4 DUP1 ADD OR DUP6 SSTORE PUSH3 0x4A0 JUMP JUMPDEST DUP3 DUP1 ADD PUSH1 0x1 ADD DUP6 SSTORE DUP3 ISZERO PUSH3 0x4A0 JUMPI SWAP2 DUP3 ADD JUMPDEST DUP3 DUP2 GT ISZERO PUSH3 0x49F JUMPI DUP3 MLOAD DUP3 SSTORE SWAP2 PUSH1 0x20 ADD SWAP2 SWAP1 PUSH1 0x1 ADD SWAP1 PUSH3 0x482 JUMP JUMPDEST JUMPDEST POP SWAP1 POP PUSH3 0x4AF SWAP2 SWAP1 PUSH3 0x4B3 JUMP JUMPDEST POP SWAP1 JUMP JUMPDEST JUMPDEST DUP1 DUP3 GT ISZERO PUSH3 0x4CE JUMPI PUSH1 0x0 DUP2 PUSH1 0x0 SWAP1 SSTORE POP PUSH1 0x1 ADD PUSH3 0x4B4 JUMP JUMPDEST POP SWAP1 JUMP JUMPDEST PUSH1 0x0 PUSH3 0x4E9 PUSH3 0x4E3 DUP5 PUSH3 0x776 JUMP JUMPDEST PUSH3 0x742 JUMP JUMPDEST SWAP1 POP DUP3 DUP2 MSTORE PUSH1 0x20 DUP2 ADD DUP5 DUP5 DUP5 ADD GT ISZERO PUSH3 0x502 JUMPI PUSH1 0x0 DUP1 REVERT JUMPDEST PUSH3 0x50F DUP5 DUP3 DUP6 PUSH3 0x7F3 JUMP JUMPDEST POP SWAP4 SWAP3 POP POP POP JUMP JUMPDEST PUSH1 0x0 DUP2 MLOAD SWAP1 POP PUSH3 0x528 DUP2 PUSH3 0x82B JUMP JUMPDEST SWAP3 SWAP2 POP POP JUMP JUMPDEST PUSH1 0x0 DUP2 MLOAD SWAP1 POP PUSH3 0x53F DUP2 PUSH3 0x845 JUMP JUMPDEST SWAP3 SWAP2 POP POP JUMP JUMPDEST PUSH1 0x0 DUP3 PUSH1 0x1F DUP4 ADD SLT PUSH3 0x557 JUMPI PUSH1 0x0 DUP1 REVERT JUMPDEST DUP2 MLOAD PUSH3 0x569 DUP5 DUP3 PUSH1 0x20 DUP7 ADD PUSH3 0x4D2 JUMP JUMPDEST SWAP2 POP POP SWAP3 SWAP2 POP POP JUMP JUMPDEST PUSH1 0x0 PUSH1 0xC0 DUP3 DUP5 SUB SLT ISZERO PUSH3 0x585 JUMPI PUSH1 0x0 DUP1 REVERT JUMPDEST PUSH3 0x591 PUSH1 0xC0 PUSH3 0x742 JUMP JUMPDEST SWAP1 POP PUSH1 0x0 PUSH3 0x5A3 DUP5 DUP3 DUP6 ADD PUSH3 0x64F JUMP JUMPDEST PUSH1 0x0 DUP4 ADD MSTORE POP PUSH1 0x20 DUP3 ADD MLOAD PUSH8 0xFFFFFFFFFFFFFFFF DUP2 GT ISZERO PUSH3 0x5C4 JUMPI PUSH1 0x0 DUP1 REVERT JUMPDEST PUSH3 0x5D2 DUP5 DUP3 DUP6 ADD PUSH3 0x545 JUMP JUMPDEST PUSH1 0x20 DUP4 ADD MSTORE POP PUSH1 0x40 PUSH3 0x5E8 DUP5 DUP3 DUP6 ADD PUSH3 0x64F JUMP JUMPDEST PUSH1 0x40 DUP4 ADD MSTORE POP PUSH1 0x60 PUSH3 0x5FE DUP5 DUP3 DUP6 ADD PUSH3 0x64F JUMP JUMPDEST PUSH1 0x60 DUP4 ADD MSTORE POP PUSH1 0x80 DUP3 ADD MLOAD PUSH8 0xFFFFFFFFFFFFFFFF DUP2 GT ISZERO PUSH3 0x61F JUMPI PUSH1 0x0 DUP1 REVERT JUMPDEST PUSH3 0x62D DUP5 DUP3 DUP6 ADD PUSH3 0x545 JUMP JUMPDEST PUSH1 0x80 DUP4 ADD MSTORE POP PUSH1 0xA0 PUSH3 0x643 DUP5 DUP3 DUP6 ADD PUSH3 0x52E JUMP JUMPDEST PUSH1 0xA0 DUP4 ADD MSTORE POP SWAP3 SWAP2 POP POP JUMP JUMPDEST PUSH1 0x0 DUP2 MLOAD SWAP1 POP PUSH3 0x660 DUP2 PUSH3 0x85F JUMP JUMPDEST SWAP3 SWAP2 POP POP JUMP JUMPDEST PUSH1 0x0 DUP1 PUSH1 0x0 DUP1 PUSH1 0x0 DUP1 PUSH1 0x0 DUP1 PUSH2 0x100 DUP10 DUP12 SUB SLT ISZERO PUSH3 0x684 JUMPI PUSH1 0x0 DUP1 REVERT JUMPDEST PUSH1 0x0 PUSH3 0x694 DUP12 DUP3 DUP13 ADD PUSH3 0x517 JUMP JUMPDEST SWAP9 POP POP PUSH1 0x20 PUSH3 0x6A7 DUP12 DUP3 DUP13 ADD PUSH3 0x517 JUMP JUMPDEST SWAP8 POP POP PUSH1 0x40 PUSH3 0x6BA DUP12 DUP3 DUP13 ADD PUSH3 0x517 JUMP JUMPDEST SWAP7 POP POP PUSH1 0x60 PUSH3 0x6CD DUP12 DUP3 DUP13 ADD PUSH3 0x517 JUMP JUMPDEST SWAP6 POP POP PUSH1 0x80 PUSH3 0x6E0 DUP12 DUP3 DUP13 ADD PUSH3 0x517 JUMP JUMPDEST SWAP5 POP POP PUSH1 0xA0 PUSH3 0x6F3 DUP12 DUP3 DUP13 ADD PUSH3 0x517 JUMP JUMPDEST SWAP4 POP POP PUSH1 0xC0 DUP10 ADD MLOAD PUSH8 0xFFFFFFFFFFFFFFFF DUP2 GT ISZERO PUSH3 0x711 JUMPI PUSH1 0x0 DUP1 REVERT JUMPDEST PUSH3 0x71F DUP12 DUP3 DUP13 ADD PUSH3 0x572 JUMP JUMPDEST SWAP3 POP POP PUSH1 0xE0 PUSH3 0x732 DUP12 DUP3 DUP13 ADD PUSH3 0x64F JUMP JUMPDEST SWAP2 POP POP SWAP3 SWAP6 SWAP9 POP SWAP3 SWAP6 SWAP9 SWAP1 SWAP4 SWAP7 POP JUMP JUMPDEST PUSH1 0x0 PUSH1 0x40 MLOAD SWAP1 POP DUP2 DUP2 ADD DUP2 DUP2 LT PUSH8 0xFFFFFFFFFFFFFFFF DUP3 GT OR ISZERO PUSH3 0x76C JUMPI PUSH3 0x76B PUSH3 0x829 JUMP JUMPDEST JUMPDEST DUP1 PUSH1 0x40 MSTORE POP SWAP2 SWAP1 POP JUMP JUMPDEST PUSH1 0x0 PUSH8 0xFFFFFFFFFFFFFFFF DUP3 GT ISZERO PUSH3 0x794 JUMPI PUSH3 0x793 PUSH3 0x829 JUMP JUMPDEST JUMPDEST PUSH1 0x1F NOT PUSH1 0x1F DUP4 ADD AND SWAP1 POP PUSH1 0x20 DUP2 ADD SWAP1 POP SWAP2 SWAP1 POP JUMP JUMPDEST PUSH1 0x0 PUSH3 0x7B6 DUP3 PUSH3 0x7C9 JUMP JUMPDEST SWAP1 POP SWAP2 SWAP1 POP JUMP JUMPDEST PUSH1 0x0 DUP2 ISZERO ISZERO SWAP1 POP SWAP2 SWAP1 POP JUMP JUMPDEST PUSH1 0x0 PUSH20 0xFFFFFFFFFFFFFFFFFFFFFFFFFFFFFFFFFFFFFFFF DUP3 AND SWAP1 POP SWAP2 SWAP1 POP JUMP JUMPDEST PUSH1 0x0 DUP2 SWAP1 POP SWAP2 SWAP1 POP JUMP JUMPDEST PUSH1 0x0 JUMPDEST DUP4 DUP2 LT ISZERO PUSH3 0x813 JUMPI DUP1 DUP3 ADD MLOAD DUP2 DUP5 ADD MSTORE PUSH1 0x20 DUP2 ADD SWAP1 POP PUSH3 0x7F6 JUMP JUMPDEST DUP4 DUP2 GT ISZERO PUSH3 0x823 JUMPI PUSH1 0x0 DUP5 DUP5 ADD MSTORE JUMPDEST POP POP POP POP JUMP JUMPDEST INVALID JUMPDEST PUSH3 0x836 DUP2 PUSH3 0x7A9 JUMP JUMPDEST DUP2 EQ PUSH3 0x842 JUMPI PUSH1 0x0 DUP1 REVERT JUMPDEST POP JUMP JUMPDEST PUSH3 0x850 DUP2 PUSH3 0x7BD JUMP JUMPDEST DUP2 EQ PUSH3 0x85C JUMPI PUSH1 0x0 DUP1 REVERT JUMPDEST POP JUMP JUMPDEST PUSH3 0x86A DUP2 PUSH3 0x7E9 JUMP JUMPDEST DUP2 EQ PUSH3 0x876 JUMPI PUSH1 0x0 DUP1 REVERT JUMPDEST POP JUMP JUMPDEST PUSH2 0x6893 DUP1 PUSH3 0x889 PUSH1 0x0 CODECOPY PUSH1 0x0 RETURN INVALID PUSH1 0x80 PUSH1 0x40 MSTORE PUSH1 0x4 CALLDATASIZE LT PUSH2 0x1C2 JUMPI PUSH1 0x0 CALLDATALOAD PUSH1 0xE0 SHR DUP1 PUSH4 0x6BBFFF00 GT PUSH2 0xF7 JUMPI DUP1 PUSH4 0xC17A4EEF GT PUSH2 0x95 JUMPI DUP1 PUSH4 0xE45B909D GT PUSH2 0x64 JUMPI DUP1 PUSH4 0xE45B909D EQ PUSH2 0x697 JUMPI DUP1 PUSH4 0xE4804ABC EQ PUSH2 0x6D4 JUMPI DUP1 PUSH4 0xE7FFDD96 EQ PUSH2 0x711 JUMPI DUP1 PUSH4 0xF8AB921E EQ PUSH2 0x741 JUMPI PUSH2 0x1C2 JUMP JUMPDEST DUP1 PUSH4 0xC17A4EEF EQ PUSH2 0x5D8 JUMPI DUP1 PUSH4 0xC9945397 EQ PUSH2 0x616 JUMPI DUP1 PUSH4 0xD294F093 EQ PUSH2 0x641 JUMPI DUP1 PUSH4 0xE39F448A EQ PUSH2 0x66C JUMPI PUSH2 0x1C2 JUMP JUMPDEST DUP1 PUSH4 0x9E3856C6 GT PUSH2 0xD1 JUMPI DUP1 PUSH4 0x9E3856C6 EQ PUSH2 0x4EC JUMPI DUP1 PUSH4 0xA5F8CF60 EQ PUSH2 0x529 JUMPI DUP1 PUSH4 0xB332D1E0 EQ PUSH2 0x570 JUMPI DUP1 PUSH4 0xBF59A1A3 EQ PUSH2 0x59B JUMPI PUSH2 0x1C2 JUMP JUMPDEST DUP1 PUSH4 0x6BBFFF00 EQ PUSH2 0x43F JUMPI DUP1 PUSH4 0x7E0B2492 EQ PUSH2 0x46A JUMPI DUP1 PUSH4 0x7E3E661B EQ PUSH2 0x4A7 JUMPI PUSH2 0x1C2 JUMP JUMPDEST DUP1 PUSH4 0x2D49EA54 GT PUSH2 0x164 JUMPI DUP1 PUSH4 0x40B61D30 GT PUSH2 0x13E JUMPI DUP1 PUSH4 0x40B61D30 EQ PUSH2 0x381 JUMPI DUP1 PUSH4 0x42CE5011 EQ PUSH2 0x3AC JUMPI DUP1 PUSH4 0x4EC18DB9 EQ PUSH2 0x3D7 JUMPI DUP1 PUSH4 0x55617180 EQ PUSH2 0x402 JUMPI PUSH2 0x1C2 JUMP JUMPDEST DUP1 PUSH4 0x2D49EA54 EQ PUSH2 0x302 JUMPI DUP1 PUSH4 0x34ED5057 EQ PUSH2 0x32B JUMPI DUP1 PUSH4 0x3F067B20 EQ PUSH2 0x356 JUMPI PUSH2 0x1C2 JUMP JUMPDEST DUP1 PUSH4 0x1C93B03A GT PUSH2 0x1A0 JUMPI DUP1 PUSH4 0x1C93B03A EQ PUSH2 0x246 JUMPI DUP1 PUSH4 0x1FB51362 EQ PUSH2 0x271 JUMPI DUP1 PUSH4 0x26976E3F EQ PUSH2 0x29A JUMPI DUP1 PUSH4 0x2A9E72A6 EQ PUSH2 0x2C5 JUMPI PUSH2 0x1C2 JUMP JUMPDEST DUP1 PUSH4 0xE136B19 EQ PUSH2 0x1C7 JUMPI DUP1 PUSH4 0x17C86875 EQ PUSH2 0x1F2 JUMPI DUP1 PUSH4 0x1A2D8629 EQ PUSH2 0x21B JUMPI JUMPDEST PUSH1 0x0 DUP1 REVERT JUMPDEST CALLVALUE DUP1 ISZERO PUSH2 0x1D3 JUMPI PUSH1 0x0 DUP1 REVERT JUMPDEST POP PUSH2 0x1DC PUSH2 0x75D JUMP JUMPDEST PUSH1 0x40 MLOAD PUSH2 0x1E9 SWAP2 SWAP1 PUSH2 0x5EC6 JUMP JUMPDEST PUSH1 0x40 MLOAD DUP1 SWAP2 SUB SWAP1 RETURN JUMPDEST CALLVALUE DUP1 ISZERO PUSH2 0x1FE JUMPI PUSH1 0x0 DUP1 REVERT JUMPDEST POP PUSH2 0x219 PUSH1 0x4 DUP1 CALLDATASIZE SUB DUP2 ADD SWAP1 PUSH2 0x214 SWAP2 SWAP1 PUSH2 0x4B35 JUMP JUMPDEST PUSH2 0x770 JUMP JUMPDEST STOP JUMPDEST CALLVALUE DUP1 ISZERO PUSH2 0x227 JUMPI PUSH1 0x0 DUP1 REVERT JUMPDEST POP PUSH2 0x230 PUSH2 0x8C5 JUMP JUMPDEST PUSH1 0x40 MLOAD PUSH2 0x23D SWAP2 SWAP1 PUSH2 0x6062 JUMP JUMPDEST PUSH1 0x40 MLOAD DUP1 SWAP2 SUB SWAP1 RETURN JUMPDEST CALLVALUE DUP1 ISZERO PUSH2 0x252 JUMPI PUSH1 0x0 DUP1 REVERT JUMPDEST POP PUSH2 0x25B PUSH2 0xA6D JUMP JUMPDEST PUSH1 0x40 MLOAD PUSH2 0x268 SWAP2 SWAP1 PUSH2 0x5EFC JUMP JUMPDEST PUSH1 0x40 MLOAD DUP1 SWAP2 SUB SWAP1 RETURN JUMPDEST CALLVALUE DUP1 ISZERO PUSH2 0x27D JUMPI PUSH1 0x0 DUP1 REVERT JUMPDEST POP PUSH2 0x298 PUSH1 0x4 DUP1 CALLDATASIZE SUB DUP2 ADD SWAP1 PUSH2 0x293 SWAP2 SWAP1 PUSH2 0x4C35 JUMP JUMPDEST PUSH2 0xB0B JUMP JUMPDEST STOP JUMPDEST CALLVALUE DUP1 ISZERO PUSH2 0x2A6 JUMPI PUSH1 0x0 DUP1 REVERT JUMPDEST POP PUSH2 0x2AF PUSH2 0xB45 JUMP JUMPDEST PUSH1 0x40 MLOAD PUSH2 0x2BC SWAP2 SWAP1 PUSH2 0x5D54 JUMP JUMPDEST PUSH1 0x40 MLOAD DUP1 SWAP2 SUB SWAP1 RETURN JUMPDEST CALLVALUE DUP1 ISZERO PUSH2 0x2D1 JUMPI PUSH1 0x0 DUP1 REVERT JUMPDEST POP PUSH2 0x2EC PUSH1 0x4 DUP1 CALLDATASIZE SUB DUP2 ADD SWAP1 PUSH2 0x2E7 SWAP2 SWAP1 PUSH2 0x4E2B JUMP JUMPDEST PUSH2 0xB6B JUMP JUMPDEST PUSH1 0x40 MLOAD PUSH2 0x2F9 SWAP2 SWAP1 PUSH2 0x6040 JUMP JUMPDEST PUSH1 0x40 MLOAD DUP1 SWAP2 SUB SWAP1 RETURN JUMPDEST CALLVALUE DUP1 ISZERO PUSH2 0x30E JUMPI PUSH1 0x0 DUP1 REVERT JUMPDEST POP PUSH2 0x329 PUSH1 0x4 DUP1 CALLDATASIZE SUB DUP2 ADD SWAP1 PUSH2 0x324 SWAP2 SWAP1 PUSH2 0x4D8B JUMP JUMPDEST PUSH2 0xF1B JUMP JUMPDEST STOP JUMPDEST CALLVALUE DUP1 ISZERO PUSH2 0x337 JUMPI PUSH1 0x0 DUP1 REVERT JUMPDEST POP PUSH2 0x340 PUSH2 0x1515 JUMP JUMPDEST PUSH1 0x40 MLOAD PUSH2 0x34D SWAP2 SWAP1 PUSH2 0x6084 JUMP JUMPDEST PUSH1 0x40 MLOAD DUP1 SWAP2 SUB SWAP1 RETURN JUMPDEST CALLVALUE DUP1 ISZERO PUSH2 0x362 JUMPI PUSH1 0x0 DUP1 REVERT JUMPDEST POP PUSH2 0x36B PUSH2 0x153B JUMP JUMPDEST PUSH1 0x40 MLOAD PUSH2 0x378 SWAP2 SWAP1 PUSH2 0x60D6 JUMP JUMPDEST PUSH1 0x40 MLOAD DUP1 SWAP2 SUB SWAP1 RETURN JUMPDEST CALLVALUE DUP1 ISZERO PUSH2 0x38D JUMPI PUSH1 0x0 DUP1 REVERT JUMPDEST POP PUSH2 0x396 PUSH2 0x1541 JUMP JUMPDEST PUSH1 0x40 MLOAD PUSH2 0x3A3 SWAP2 SWAP1 PUSH2 0x6084 JUMP JUMPDEST PUSH1 0x40 MLOAD DUP1 SWAP2 SUB SWAP1 RETURN JUMPDEST CALLVALUE DUP1 ISZERO PUSH2 0x3B8 JUMPI PUSH1 0x0 DUP1 REVERT JUMPDEST POP PUSH2 0x3C1 PUSH2 0x1567 JUMP JUMPDEST PUSH1 0x40 MLOAD PUSH2 0x3CE SWAP2 SWAP1 PUSH2 0x60D6 JUMP JUMPDEST PUSH1 0x40 MLOAD DUP1 SWAP2 SUB SWAP1 RETURN JUMPDEST CALLVALUE DUP1 ISZERO PUSH2 0x3E3 JUMPI PUSH1 0x0 DUP1 REVERT JUMPDEST POP PUSH2 0x3EC PUSH2 0x156D JUMP JUMPDEST PUSH1 0x40 MLOAD PUSH2 0x3F9 SWAP2 SWAP1 PUSH2 0x60D6 JUMP JUMPDEST PUSH1 0x40 MLOAD DUP1 SWAP2 SUB SWAP1 RETURN JUMPDEST CALLVALUE DUP1 ISZERO PUSH2 0x40E JUMPI PUSH1 0x0 DUP1 REVERT JUMPDEST POP PUSH2 0x429 PUSH1 0x4 DUP1 CALLDATASIZE SUB DUP2 ADD SWAP1 PUSH2 0x424 SWAP2 SWAP1 PUSH2 0x4E2B JUMP JUMPDEST PUSH2 0x1573 JUMP JUMPDEST PUSH1 0x40 MLOAD PUSH2 0x436 SWAP2 SWAP1 PUSH2 0x601E JUMP JUMPDEST PUSH1 0x40 MLOAD DUP1 SWAP2 SUB SWAP1 RETURN JUMPDEST CALLVALUE DUP1 ISZERO PUSH2 0x44B JUMPI PUSH1 0x0 DUP1 REVERT JUMPDEST POP PUSH2 0x454 PUSH2 0x1687 JUMP JUMPDEST PUSH1 0x40 MLOAD PUSH2 0x461 SWAP2 SWAP1 PUSH2 0x6084 JUMP JUMPDEST PUSH1 0x40 MLOAD DUP1 SWAP2 SUB SWAP1 RETURN JUMPDEST CALLVALUE DUP1 ISZERO PUSH2 0x476 JUMPI PUSH1 0x0 DUP1 REVERT JUMPDEST POP PUSH2 0x491 PUSH1 0x4 DUP1 CALLDATASIZE SUB DUP2 ADD SWAP1 PUSH2 0x48C SWAP2 SWAP1 PUSH2 0x4B0C JUMP JUMPDEST PUSH2 0x16AD JUMP JUMPDEST PUSH1 0x40 MLOAD PUSH2 0x49E SWAP2 SWAP1 PUSH2 0x60D6 JUMP JUMPDEST PUSH1 0x40 MLOAD DUP1 SWAP2 SUB SWAP1 RETURN JUMPDEST CALLVALUE DUP1 ISZERO PUSH2 0x4B3 JUMPI PUSH1 0x0 DUP1 REVERT JUMPDEST POP PUSH2 0x4CE PUSH1 0x4 DUP1 CALLDATASIZE SUB DUP2 ADD SWAP1 PUSH2 0x4C9 SWAP2 SWAP1 PUSH2 0x4E7D JUMP JUMPDEST PUSH2 0x16C5 JUMP JUMPDEST PUSH1 0x40 MLOAD PUSH2 0x4E3 SWAP10 SWAP9 SWAP8 SWAP7 SWAP6 SWAP5 SWAP4 SWAP3 SWAP2 SWAP1 PUSH2 0x611A JUMP JUMPDEST PUSH1 0x40 MLOAD DUP1 SWAP2 SUB SWAP1 RETURN JUMPDEST CALLVALUE DUP1 ISZERO PUSH2 0x4F8 JUMPI PUSH1 0x0 DUP1 REVERT JUMPDEST POP PUSH2 0x513 PUSH1 0x4 DUP1 CALLDATASIZE SUB DUP2 ADD SWAP1 PUSH2 0x50E SWAP2 SWAP1 PUSH2 0x4C9F JUMP JUMPDEST PUSH2 0x18F4 JUMP JUMPDEST PUSH1 0x40 MLOAD PUSH2 0x520 SWAP2 SWAP1 PUSH2 0x60D6 JUMP JUMPDEST PUSH1 0x40 MLOAD DUP1 SWAP2 SUB SWAP1 RETURN JUMPDEST CALLVALUE DUP1 ISZERO PUSH2 0x535 JUMPI PUSH1 0x0 DUP1 REVERT JUMPDEST POP PUSH2 0x550 PUSH1 0x4 DUP1 CALLDATASIZE SUB DUP2 ADD SWAP1 PUSH2 0x54B SWAP2 SWAP1 PUSH2 0x4E2B JUMP JUMPDEST PUSH2 0x190C JUMP JUMPDEST PUSH1 0x40 MLOAD PUSH2 0x567 SWAP12 SWAP11 SWAP10 SWAP9 SWAP8 SWAP7 SWAP6 SWAP5 SWAP4 SWAP3 SWAP2 SWAP1 PUSH2 0x61A9 JUMP JUMPDEST PUSH1 0x40 MLOAD DUP1 SWAP2 SUB SWAP1 RETURN JUMPDEST CALLVALUE DUP1 ISZERO PUSH2 0x57C JUMPI PUSH1 0x0 DUP1 REVERT JUMPDEST POP PUSH2 0x585 PUSH2 0x1A50 JUMP JUMPDEST PUSH1 0x40 MLOAD PUSH2 0x592 SWAP2 SWAP1 PUSH2 0x6084 JUMP JUMPDEST PUSH1 0x40 MLOAD DUP1 SWAP2 SUB SWAP1 RETURN JUMPDEST CALLVALUE DUP1 ISZERO PUSH2 0x5A7 JUMPI PUSH1 0x0 DUP1 REVERT JUMPDEST POP PUSH2 0x5C2 PUSH1 0x4 DUP1 CALLDATASIZE SUB DUP2 ADD SWAP1 PUSH2 0x5BD SWAP2 SWAP1 PUSH2 0x4E2B JUMP JUMPDEST PUSH2 0x1A76 JUMP JUMPDEST PUSH1 0x40 MLOAD PUSH2 0x5CF SWAP2 SWAP1 PUSH2 0x5E82 JUMP JUMPDEST PUSH1 0x40 MLOAD DUP1 SWAP2 SUB SWAP1 RETURN JUMPDEST CALLVALUE DUP1 ISZERO PUSH2 0x5E4 JUMPI PUSH1 0x0 DUP1 REVERT JUMPDEST POP PUSH2 0x5FF PUSH1 0x4 DUP1 CALLDATASIZE SUB DUP2 ADD SWAP1 PUSH2 0x5FA SWAP2 SWAP1 PUSH2 0x4E2B JUMP JUMPDEST PUSH2 0x1E17 JUMP JUMPDEST PUSH1 0x40 MLOAD PUSH2 0x60D SWAP3 SWAP2 SWAP1 PUSH2 0x60F1 JUMP JUMPDEST PUSH1 0x40 MLOAD DUP1 SWAP2 SUB SWAP1 RETURN JUMPDEST CALLVALUE DUP1 ISZERO PUSH2 0x622 JUMPI PUSH1 0x0 DUP1 REVERT JUMPDEST POP PUSH2 0x62B PUSH2 0x1E48 JUMP JUMPDEST PUSH1 0x40 MLOAD PUSH2 0x638 SWAP2 SWAP1 PUSH2 0x60D6 JUMP JUMPDEST PUSH1 0x40 MLOAD DUP1 SWAP2 SUB SWAP1 RETURN JUMPDEST CALLVALUE DUP1 ISZERO PUSH2 0x64D JUMPI PUSH1 0x0 DUP1 REVERT JUMPDEST POP PUSH2 0x656 PUSH2 0x1EA8 JUMP JUMPDEST PUSH1 0x40 MLOAD PUSH2 0x663 SWAP2 SWAP1 PUSH2 0x60D6 JUMP JUMPDEST PUSH1 0x40 MLOAD DUP1 SWAP2 SUB SWAP1 RETURN JUMPDEST CALLVALUE DUP1 ISZERO PUSH2 0x678 JUMPI PUSH1 0x0 DUP1 REVERT JUMPDEST POP PUSH2 0x681 PUSH2 0x1FD1 JUMP JUMPDEST PUSH1 0x40 MLOAD PUSH2 0x68E SWAP2 SWAP1 PUSH2 0x6084 JUMP JUMPDEST PUSH1 0x40 MLOAD DUP1 SWAP2 SUB SWAP1 RETURN JUMPDEST CALLVALUE DUP1 ISZERO PUSH2 0x6A3 JUMPI PUSH1 0x0 DUP1 REVERT JUMPDEST POP PUSH2 0x6BE PUSH1 0x4 DUP1 CALLDATASIZE SUB DUP2 ADD SWAP1 PUSH2 0x6B9 SWAP2 SWAP1 PUSH2 0x4E2B JUMP JUMPDEST PUSH2 0x1FF7 JUMP JUMPDEST PUSH1 0x40 MLOAD PUSH2 0x6CB SWAP2 SWAP1 PUSH2 0x5EE1 JUMP JUMPDEST PUSH1 0x40 MLOAD DUP1 SWAP2 SUB SWAP1 RETURN JUMPDEST CALLVALUE DUP1 ISZERO PUSH2 0x6E0 JUMPI PUSH1 0x0 DUP1 REVERT JUMPDEST POP PUSH2 0x6FB PUSH1 0x4 DUP1 CALLDATASIZE SUB DUP2 ADD SWAP1 PUSH2 0x6F6 SWAP2 SWAP1 PUSH2 0x4E7D JUMP JUMPDEST PUSH2 0x201B JUMP JUMPDEST PUSH1 0x40 MLOAD PUSH2 0x708 SWAP2 SWAP1 PUSH2 0x5E60 JUMP JUMPDEST PUSH1 0x40 MLOAD DUP1 SWAP2 SUB SWAP1 RETURN JUMPDEST PUSH2 0x72B PUSH1 0x4 DUP1 CALLDATASIZE SUB DUP2 ADD SWAP1 PUSH2 0x726 SWAP2 SWAP1 PUSH2 0x4DB4 JUMP JUMPDEST PUSH2 0x2139 JUMP JUMPDEST PUSH1 0x40 MLOAD PUSH2 0x738 SWAP2 SWAP1 PUSH2 0x60D6 JUMP JUMPDEST PUSH1 0x40 MLOAD DUP1 SWAP2 SUB SWAP1 RETURN JUMPDEST PUSH2 0x75B PUSH1 0x4 DUP1 CALLDATASIZE SUB DUP2 ADD SWAP1 PUSH2 0x756 SWAP2 SWAP1 PUSH2 0x4EB9 JUMP JUMPDEST PUSH2 0x2371 JUMP JUMPDEST STOP JUMPDEST PUSH1 0x6 PUSH1 0x14 SWAP1 SLOAD SWAP1 PUSH2 0x100 EXP SWAP1 DIV PUSH1 0xFF AND DUP2 JUMP JUMPDEST PUSH1 0x4 PUSH1 0x0 SWAP1 SLOAD SWAP1 PUSH2 0x100 EXP SWAP1 DIV PUSH20 0xFFFFFFFFFFFFFFFFFFFFFFFFFFFFFFFFFFFFFFFF AND PUSH20 0xFFFFFFFFFFFFFFFFFFFFFFFFFFFFFFFFFFFFFFFF AND PUSH4 0xB43FE1DE DUP7 DUP7 DUP7 DUP7 DUP7 PUSH1 0x40 MLOAD DUP7 PUSH4 0xFFFFFFFF AND PUSH1 0xE0 SHL DUP2 MSTORE PUSH1 0x4 ADD PUSH2 0x7D3 SWAP6 SWAP5 SWAP4 SWAP3 SWAP2 SWAP1 PUSH2 0x5DCF JUMP JUMPDEST PUSH1 0x20 PUSH1 0x40 MLOAD DUP1 DUP4 SUB DUP2 PUSH1 0x0 DUP8 DUP1 EXTCODESIZE ISZERO DUP1 ISZERO PUSH2 0x7ED JUMPI PUSH1 0x0 DUP1 REVERT JUMPDEST POP GAS CALL ISZERO DUP1 ISZERO PUSH2 0x801 JUMPI RETURNDATASIZE PUSH1 0x0 DUP1 RETURNDATACOPY RETURNDATASIZE PUSH1 0x0 REVERT JUMPDEST POP POP POP POP PUSH1 0x40 MLOAD RETURNDATASIZE PUSH1 0x1F NOT PUSH1 0x1F DUP3 ADD AND DUP3 ADD DUP1 PUSH1 0x40 MSTORE POP DUP2 ADD SWAP1 PUSH2 0x825 SWAP2 SWAP1 PUSH2 0x4C76 JUMP JUMPDEST ISZERO PUSH2 0x8BE JUMPI PUSH1 0x1 PUSH1 0x6 PUSH1 0x14 PUSH2 0x100 EXP DUP2 SLOAD DUP2 PUSH1 0xFF MUL NOT AND SWAP1 DUP4 ISZERO ISZERO MUL OR SWAP1 SSTORE POP DUP5 PUSH1 0x7 PUSH1 0x0 PUSH2 0x100 EXP DUP2 SLOAD DUP2 PUSH20 0xFFFFFFFFFFFFFFFFFFFFFFFFFFFFFFFFFFFFFFFF MUL NOT AND SWAP1 DUP4 PUSH20 0xFFFFFFFFFFFFFFFFFFFFFFFFFFFFFFFFFFFFFFFF AND MUL OR SWAP1 SSTORE POP PUSH32 0xCC358699805E9A8B7F77B522628C7CB9ABD07D9EFB86B6FB616AF1609036A99E DUP6 PUSH1 0x40 MLOAD PUSH2 0x8B5 SWAP2 SWAP1 PUSH2 0x5D54 JUMP JUMPDEST PUSH1 0x40 MLOAD DUP1 SWAP2 SUB SWAP1 LOG1 JUMPDEST POP POP POP POP POP JUMP JUMPDEST PUSH2 0x8CD PUSH2 0x373D JUMP JUMPDEST PUSH2 0x8D5 PUSH2 0x373D JUMP JUMPDEST PUSH1 0x1C PUSH1 0x0 ADD SLOAD DUP2 PUSH1 0x0 ADD DUP2 DUP2 MSTORE POP POP PUSH1 0x1C PUSH1 0x1 ADD DUP1 SLOAD PUSH1 0x1 DUP2 PUSH1 0x1 AND ISZERO PUSH2 0x100 MUL SUB AND PUSH1 0x2 SWAP1 DIV DUP1 PUSH1 0x1F ADD PUSH1 0x20 DUP1 SWAP2 DIV MUL PUSH1 0x20 ADD PUSH1 0x40 MLOAD SWAP1 DUP2 ADD PUSH1 0x40 MSTORE DUP1 SWAP3 SWAP2 SWAP1 DUP2 DUP2 MSTORE PUSH1 0x20 ADD DUP3 DUP1 SLOAD PUSH1 0x1 DUP2 PUSH1 0x1 AND ISZERO PUSH2 0x100 MUL SUB AND PUSH1 0x2 SWAP1 DIV DUP1 ISZERO PUSH2 0x97D JUMPI DUP1 PUSH1 0x1F LT PUSH2 0x952 JUMPI PUSH2 0x100 DUP1 DUP4 SLOAD DIV MUL DUP4 MSTORE SWAP2 PUSH1 0x20 ADD SWAP2 PUSH2 0x97D JUMP JUMPDEST DUP3 ADD SWAP2 SWAP1 PUSH1 0x0 MSTORE PUSH1 0x20 PUSH1 0x0 KECCAK256 SWAP1 JUMPDEST DUP2 SLOAD DUP2 MSTORE SWAP1 PUSH1 0x1 ADD SWAP1 PUSH1 0x20 ADD DUP1 DUP4 GT PUSH2 0x960 JUMPI DUP3 SWAP1 SUB PUSH1 0x1F AND DUP3 ADD SWAP2 JUMPDEST POP POP POP POP POP DUP2 PUSH1 0x20 ADD DUP2 SWAP1 MSTORE POP NUMBER DUP2 PUSH1 0x40 ADD DUP2 DUP2 MSTORE POP POP TIMESTAMP DUP2 PUSH1 0x60 ADD DUP2 DUP2 MSTORE POP POP PUSH1 0x1C PUSH1 0x4 ADD DUP1 SLOAD PUSH1 0x1 DUP2 PUSH1 0x1 AND ISZERO PUSH2 0x100 MUL SUB AND PUSH1 0x2 SWAP1 DIV DUP1 PUSH1 0x1F ADD PUSH1 0x20 DUP1 SWAP2 DIV MUL PUSH1 0x20 ADD PUSH1 0x40 MLOAD SWAP1 DUP2 ADD PUSH1 0x40 MSTORE DUP1 SWAP3 SWAP2 SWAP1 DUP2 DUP2 MSTORE PUSH1 0x20 ADD DUP3 DUP1 SLOAD PUSH1 0x1 DUP2 PUSH1 0x1 AND ISZERO PUSH2 0x100 MUL SUB AND PUSH1 0x2 SWAP1 DIV DUP1 ISZERO PUSH2 0xA37 JUMPI DUP1 PUSH1 0x1F LT PUSH2 0xA0C JUMPI PUSH2 0x100 DUP1 DUP4 SLOAD DIV MUL DUP4 MSTORE SWAP2 PUSH1 0x20 ADD SWAP2 PUSH2 0xA37 JUMP JUMPDEST DUP3 ADD SWAP2 SWAP1 PUSH1 0x0 MSTORE PUSH1 0x20 PUSH1 0x0 KECCAK256 SWAP1 JUMPDEST DUP2 SLOAD DUP2 MSTORE SWAP1 PUSH1 0x1 ADD SWAP1 PUSH1 0x20 ADD DUP1 DUP4 GT PUSH2 0xA1A JUMPI DUP3 SWAP1 SUB PUSH1 0x1F AND DUP3 ADD SWAP2 JUMPDEST POP POP POP POP POP DUP2 PUSH1 0x80 ADD DUP2 SWAP1 MSTORE POP PUSH1 0x1C PUSH1 0x5 ADD PUSH1 0x0 SWAP1 SLOAD SWAP1 PUSH2 0x100 EXP SWAP1 DIV PUSH1 0xFF AND DUP2 PUSH1 0xA0 ADD SWAP1 ISZERO ISZERO SWAP1 DUP2 ISZERO ISZERO DUP2 MSTORE POP POP DUP1 SWAP2 POP POP SWAP1 JUMP JUMPDEST PUSH1 0xB DUP1 SLOAD PUSH1 0x1 DUP2 PUSH1 0x1 AND ISZERO PUSH2 0x100 MUL SUB AND PUSH1 0x2 SWAP1 DIV DUP1 PUSH1 0x1F ADD PUSH1 0x20 DUP1 SWAP2 DIV MUL PUSH1 0x20 ADD PUSH1 0x40 MLOAD SWAP1 DUP2 ADD PUSH1 0x40 MSTORE DUP1 SWAP3 SWAP2 SWAP1 DUP2 DUP2 MSTORE PUSH1 0x20 ADD DUP3 DUP1 SLOAD PUSH1 0x1 DUP2 PUSH1 0x1 AND ISZERO PUSH2 0x100 MUL SUB AND PUSH1 0x2 SWAP1 DIV DUP1 ISZERO PUSH2 0xB03 JUMPI DUP1 PUSH1 0x1F LT PUSH2 0xAD8 JUMPI PUSH2 0x100 DUP1 DUP4 SLOAD DIV MUL DUP4 MSTORE SWAP2 PUSH1 0x20 ADD SWAP2 PUSH2 0xB03 JUMP JUMPDEST DUP3 ADD SWAP2 SWAP1 PUSH1 0x0 MSTORE PUSH1 0x20 PUSH1 0x0 KECCAK256 SWAP1 JUMPDEST DUP2 SLOAD DUP2 MSTORE SWAP1 PUSH1 0x1 ADD SWAP1 PUSH1 0x20 ADD DUP1 DUP4 GT PUSH2 0xAE6 JUMPI DUP3 SWAP1 SUB PUSH1 0x1F AND DUP3 ADD SWAP2 JUMPDEST POP POP POP POP POP DUP2 JUMP JUMPDEST PUSH1 0x0 JUMPDEST DUP2 MLOAD DUP2 LT ISZERO PUSH2 0xB41 JUMPI PUSH2 0xB33 DUP3 DUP3 DUP2 MLOAD DUP2 LT PUSH2 0xB26 JUMPI INVALID JUMPDEST PUSH1 0x20 MUL PUSH1 0x20 ADD ADD MLOAD PUSH2 0x28B9 JUMP JUMPDEST POP DUP1 DUP1 PUSH1 0x1 ADD SWAP2 POP POP PUSH2 0xB0E JUMP JUMPDEST POP POP JUMP JUMPDEST PUSH1 0x7 PUSH1 0x0 SWAP1 SLOAD SWAP1 PUSH2 0x100 EXP SWAP1 DIV PUSH20 0xFFFFFFFFFFFFFFFFFFFFFFFFFFFFFFFFFFFFFFFF AND DUP2 JUMP JUMPDEST PUSH2 0xB73 PUSH2 0x3775 JUMP JUMPDEST PUSH1 0x0 PUSH1 0x1A PUSH1 0x0 DUP5 DUP2 MSTORE PUSH1 0x20 ADD SWAP1 DUP2 MSTORE PUSH1 0x20 ADD PUSH1 0x0 KECCAK256 PUSH1 0x0 ADD SLOAD SWAP1 POP PUSH1 0x0 PUSH1 0x40 MLOAD DUP1 PUSH1 0x80 ADD PUSH1 0x40 MSTORE DUP1 DUP4 DUP2 MSTORE PUSH1 0x20 ADD DUP6 DUP2 MSTORE PUSH1 0x20 ADD PUSH1 0x12 DUP5 DUP2 SLOAD DUP2 LT PUSH2 0xBB4 JUMPI INVALID JUMPDEST SWAP1 PUSH1 0x0 MSTORE PUSH1 0x20 PUSH1 0x0 KECCAK256 ADD SLOAD DUP2 MSTORE PUSH1 0x20 ADD PUSH1 0x17 DUP5 DUP2 SLOAD DUP2 LT PUSH2 0xBD1 JUMPI INVALID JUMPDEST SWAP1 PUSH1 0x0 MSTORE PUSH1 0x20 PUSH1 0x0 KECCAK256 ADD DUP1 SLOAD DUP1 PUSH1 0x20 MUL PUSH1 0x20 ADD PUSH1 0x40 MLOAD SWAP1 DUP2 ADD PUSH1 0x40 MSTORE DUP1 SWAP3 SWAP2 SWAP1 DUP2 DUP2 MSTORE PUSH1 0x20 ADD PUSH1 0x0 SWAP1 JUMPDEST DUP3 DUP3 LT ISZERO PUSH2 0xF08 JUMPI DUP4 DUP3 SWAP1 PUSH1 0x0 MSTORE PUSH1 0x20 PUSH1 0x0 KECCAK256 SWAP1 PUSH1 0x8 MUL ADD PUSH1 0x40 MLOAD DUP1 PUSH2 0x120 ADD PUSH1 0x40 MSTORE SWAP1 DUP2 PUSH1 0x0 DUP3 ADD PUSH1 0x0 SWAP1 SLOAD SWAP1 PUSH2 0x100 EXP SWAP1 DIV PUSH4 0xFFFFFFFF AND PUSH4 0xFFFFFFFF AND PUSH4 0xFFFFFFFF AND DUP2 MSTORE PUSH1 0x20 ADD PUSH1 0x1 DUP3 ADD PUSH1 0x40 MLOAD DUP1 PUSH1 0x40 ADD PUSH1 0x40 MSTORE SWAP1 DUP2 PUSH1 0x0 DUP3 ADD PUSH1 0x0 SWAP1 SLOAD SWAP1 PUSH2 0x100 EXP SWAP1 DIV PUSH20 0xFFFFFFFFFFFFFFFFFFFFFFFFFFFFFFFFFFFFFFFF AND PUSH20 0xFFFFFFFFFFFFFFFFFFFFFFFFFFFFFFFFFFFFFFFF AND PUSH20 0xFFFFFFFFFFFFFFFFFFFFFFFFFFFFFFFFFFFFFFFF AND DUP2 MSTORE PUSH1 0x20 ADD PUSH1 0x0 DUP3 ADD PUSH1 0x14 SWAP1 SLOAD SWAP1 PUSH2 0x100 EXP SWAP1 DIV PUSH8 0xFFFFFFFFFFFFFFFF AND PUSH8 0xFFFFFFFFFFFFFFFF AND PUSH8 0xFFFFFFFFFFFFFFFF AND DUP2 MSTORE POP POP DUP2 MSTORE PUSH1 0x20 ADD PUSH1 0x2 DUP3 ADD PUSH1 0x0 SWAP1 SLOAD SWAP1 PUSH2 0x100 EXP SWAP1 DIV PUSH4 0xFFFFFFFF AND PUSH4 0xFFFFFFFF AND PUSH4 0xFFFFFFFF AND DUP2 MSTORE PUSH1 0x20 ADD PUSH1 0x2 DUP3 ADD PUSH1 0x4 SWAP1 SLOAD SWAP1 PUSH2 0x100 EXP SWAP1 DIV PUSH20 0xFFFFFFFFFFFFFFFFFFFFFFFFFFFFFFFFFFFFFFFF AND PUSH20 0xFFFFFFFFFFFFFFFFFFFFFFFFFFFFFFFFFFFFFFFF AND PUSH20 0xFFFFFFFFFFFFFFFFFFFFFFFFFFFFFFFFFFFFFFFF AND DUP2 MSTORE PUSH1 0x20 ADD PUSH1 0x3 DUP3 ADD SLOAD DUP2 MSTORE PUSH1 0x20 ADD PUSH1 0x4 DUP3 ADD PUSH1 0x40 MLOAD DUP1 PUSH1 0x40 ADD PUSH1 0x40 MSTORE SWAP1 DUP2 PUSH1 0x0 DUP3 ADD PUSH1 0x0 SWAP1 SLOAD SWAP1 PUSH2 0x100 EXP SWAP1 DIV PUSH4 0xFFFFFFFF AND PUSH4 0xFFFFFFFF AND PUSH4 0xFFFFFFFF AND DUP2 MSTORE PUSH1 0x20 ADD PUSH1 0x0 DUP3 ADD PUSH1 0x4 SWAP1 SLOAD SWAP1 PUSH2 0x100 EXP SWAP1 DIV PUSH20 0xFFFFFFFFFFFFFFFFFFFFFFFFFFFFFFFFFFFFFFFF AND PUSH20 0xFFFFFFFFFFFFFFFFFFFFFFFFFFFFFFFFFFFFFFFF AND PUSH20 0xFFFFFFFFFFFFFFFFFFFFFFFFFFFFFFFFFFFFFFFF AND DUP2 MSTORE POP POP DUP2 MSTORE PUSH1 0x20 ADD PUSH1 0x5 DUP3 ADD PUSH1 0x0 SWAP1 SLOAD SWAP1 PUSH2 0x100 EXP SWAP1 DIV PUSH20 0xFFFFFFFFFFFFFFFFFFFFFFFFFFFFFFFFFFFFFFFF AND PUSH20 0xFFFFFFFFFFFFFFFFFFFFFFFFFFFFFFFFFFFFFFFF AND PUSH20 0xFFFFFFFFFFFFFFFFFFFFFFFFFFFFFFFFFFFFFFFF AND DUP2 MSTORE PUSH1 0x20 ADD PUSH1 0x6 DUP3 ADD PUSH1 0x0 SWAP1 SLOAD SWAP1 PUSH2 0x100 EXP SWAP1 DIV PUSH20 0xFFFFFFFFFFFFFFFFFFFFFFFFFFFFFFFFFFFFFFFF AND PUSH20 0xFFFFFFFFFFFFFFFFFFFFFFFFFFFFFFFFFFFFFFFF AND PUSH20 0xFFFFFFFFFFFFFFFFFFFFFFFFFFFFFFFFFFFFFFFF AND DUP2 MSTORE PUSH1 0x20 ADD PUSH1 0x7 DUP3 ADD PUSH1 0x0 SWAP1 SLOAD SWAP1 PUSH2 0x100 EXP SWAP1 DIV PUSH20 0xFFFFFFFFFFFFFFFFFFFFFFFFFFFFFFFFFFFFFFFF AND PUSH20 0xFFFFFFFFFFFFFFFFFFFFFFFFFFFFFFFFFFFFFFFF AND PUSH20 0xFFFFFFFFFFFFFFFFFFFFFFFFFFFFFFFFFFFFFFFF AND DUP2 MSTORE POP POP DUP2 MSTORE PUSH1 0x20 ADD SWAP1 PUSH1 0x1 ADD SWAP1 PUSH2 0xBFB JUMP JUMPDEST POP POP POP POP DUP2 MSTORE POP SWAP1 POP DUP1 SWAP3 POP POP POP SWAP2 SWAP1 POP JUMP JUMPDEST PUSH2 0xF23 PUSH2 0x37A0 JUMP JUMPDEST PUSH1 0x1C PUSH1 0x0 ADD SLOAD DUP2 PUSH1 0x0 ADD DUP2 DUP2 MSTORE POP POP PUSH1 0x0 PUSH1 0x4 PUSH1 0x0 SWAP1 SLOAD SWAP1 PUSH2 0x100 EXP SWAP1 DIV PUSH20 0xFFFFFFFFFFFFFFFFFFFFFFFFFFFFFFFFFFFFFFFF AND PUSH20 0xFFFFFFFFFFFFFFFFFFFFFFFFFFFFFFFFFFFFFFFF AND PUSH4 0xAAF34B94 PUSH1 0x40 MLOAD DUP2 PUSH4 0xFFFFFFFF AND PUSH1 0xE0 SHL DUP2 MSTORE PUSH1 0x4 ADD PUSH1 0x0 PUSH1 0x40 MLOAD DUP1 DUP4 SUB DUP2 DUP7 DUP1 EXTCODESIZE ISZERO DUP1 ISZERO PUSH2 0xF9C JUMPI PUSH1 0x0 DUP1 REVERT JUMPDEST POP GAS STATICCALL ISZERO DUP1 ISZERO PUSH2 0xFB0 JUMPI RETURNDATASIZE PUSH1 0x0 DUP1 RETURNDATACOPY RETURNDATASIZE PUSH1 0x0 REVERT JUMPDEST POP POP POP POP PUSH1 0x40 MLOAD RETURNDATASIZE PUSH1 0x0 DUP3 RETURNDATACOPY RETURNDATASIZE PUSH1 0x1F NOT PUSH1 0x1F DUP3 ADD AND DUP3 ADD DUP1 PUSH1 0x40 MSTORE POP DUP2 ADD SWAP1 PUSH2 0xFD9 SWAP2 SWAP1 PUSH2 0x4BF4 JUMP JUMPDEST SWAP1 POP PUSH1 0x0 PUSH1 0x4 PUSH1 0x0 SWAP1 SLOAD SWAP1 PUSH2 0x100 EXP SWAP1 DIV PUSH20 0xFFFFFFFFFFFFFFFFFFFFFFFFFFFFFFFFFFFFFFFF AND PUSH20 0xFFFFFFFFFFFFFFFFFFFFFFFFFFFFFFFFFFFFFFFF AND PUSH4 0x20CD6BA1 PUSH1 0x40 MLOAD DUP2 PUSH4 0xFFFFFFFF AND PUSH1 0xE0 SHL DUP2 MSTORE PUSH1 0x4 ADD PUSH1 0x20 PUSH1 0x40 MLOAD DUP1 DUP4 SUB DUP2 DUP7 DUP1 EXTCODESIZE ISZERO DUP1 ISZERO PUSH2 0x1045 JUMPI PUSH1 0x0 DUP1 REVERT JUMPDEST POP GAS STATICCALL ISZERO DUP1 ISZERO PUSH2 0x1059 JUMPI RETURNDATASIZE PUSH1 0x0 DUP1 RETURNDATACOPY RETURNDATASIZE PUSH1 0x0 REVERT JUMPDEST POP POP POP POP PUSH1 0x40 MLOAD RETURNDATASIZE PUSH1 0x1F NOT PUSH1 0x1F DUP3 ADD AND DUP3 ADD DUP1 PUSH1 0x40 MSTORE POP DUP2 ADD SWAP1 PUSH2 0x107D SWAP2 SWAP1 PUSH2 0x4F6B JUMP JUMPDEST SWAP1 POP PUSH1 0x0 PUSH20 0xFFFFFFFFFFFFFFFFFFFFFFFFFFFFFFFFFFFFFFFF AND DUP5 PUSH20 0xFFFFFFFFFFFFFFFFFFFFFFFFFFFFFFFFFFFFFFFF AND EQ ISZERO PUSH2 0x12DF JUMPI PUSH1 0x40 MLOAD DUP1 PUSH2 0x200 ADD PUSH1 0x40 MSTORE DUP1 PUSH1 0x1C PUSH1 0x0 ADD SLOAD DUP2 MSTORE PUSH1 0x20 ADD PUSH1 0x40 MLOAD DUP1 PUSH1 0x40 ADD PUSH1 0x40 MSTORE DUP1 PUSH1 0x4 DUP2 MSTORE PUSH1 0x20 ADD PUSH32 0x5645544800000000000000000000000000000000000000000000000000000000 DUP2 MSTORE POP DUP2 MSTORE PUSH1 0x20 ADD PUSH1 0xC PUSH1 0x0 SWAP1 SLOAD SWAP1 PUSH2 0x100 EXP SWAP1 DIV PUSH20 0xFFFFFFFFFFFFFFFFFFFFFFFFFFFFFFFFFFFFFFFF AND PUSH20 0xFFFFFFFFFFFFFFFFFFFFFFFFFFFFFFFFFFFFFFFF AND DUP2 MSTORE PUSH1 0x20 ADD PUSH1 0xE PUSH1 0x0 SWAP1 SLOAD SWAP1 PUSH2 0x100 EXP SWAP1 DIV PUSH20 0xFFFFFFFFFFFFFFFFFFFFFFFFFFFFFFFFFFFFFFFF AND PUSH20 0xFFFFFFFFFFFFFFFFFFFFFFFFFFFFFFFFFFFFFFFF AND DUP2 MSTORE PUSH1 0x20 ADD PUSH1 0xE PUSH1 0x0 SWAP1 SLOAD SWAP1 PUSH2 0x100 EXP SWAP1 DIV PUSH20 0xFFFFFFFFFFFFFFFFFFFFFFFFFFFFFFFFFFFFFFFF AND PUSH20 0xFFFFFFFFFFFFFFFFFFFFFFFFFFFFFFFFFFFFFFFF AND DUP2 MSTORE PUSH1 0x20 ADD PUSH1 0x1 PUSH1 0xFF AND DUP2 MSTORE PUSH1 0x20 ADD PUSH1 0x4 PUSH1 0xFF AND DUP2 MSTORE PUSH1 0x20 ADD PUSH1 0x40 MLOAD DUP1 PUSH1 0x40 ADD PUSH1 0x40 MSTORE DUP1 PUSH1 0x9 PUSH4 0xFFFFFFFF AND DUP2 MSTORE PUSH1 0x20 ADD PUSH1 0xC PUSH1 0x0 SWAP1 SLOAD SWAP1 PUSH2 0x100 EXP SWAP1 DIV PUSH20 0xFFFFFFFFFFFFFFFFFFFFFFFFFFFFFFFFFFFFFFFF AND PUSH20 0xFFFFFFFFFFFFFFFFFFFFFFFFFFFFFFFFFFFFFFFF AND DUP2 MSTORE POP DUP2 MSTORE PUSH1 0x20 ADD PUSH1 0xE PUSH1 0x0 SWAP1 SLOAD SWAP1 PUSH2 0x100 EXP SWAP1 DIV PUSH20 0xFFFFFFFFFFFFFFFFFFFFFFFFFFFFFFFFFFFFFFFF AND PUSH20 0xFFFFFFFFFFFFFFFFFFFFFFFFFFFFFFFFFFFFFFFF AND DUP2 MSTORE PUSH1 0x20 ADD PUSH1 0x0 DUP2 MSTORE PUSH1 0x20 ADD PUSH1 0x0 DUP2 MSTORE PUSH1 0x20 ADD PUSH4 0x44AA200 DUP2 MSTORE PUSH1 0x20 ADD PUSH4 0x44AA200 DUP2 MSTORE PUSH1 0x20 ADD PUSH1 0xC PUSH1 0x0 SWAP1 SLOAD SWAP1 PUSH2 0x100 EXP SWAP1 DIV PUSH20 0xFFFFFFFFFFFFFFFFFFFFFFFFFFFFFFFFFFFFFFFF AND PUSH20 0xFFFFFFFFFFFFFFFFFFFFFFFFFFFFFFFFFFFFFFFF AND DUP2 MSTORE PUSH1 0x20 ADD DUP4 DUP2 MSTORE PUSH1 0x20 ADD DUP3 PUSH1 0xFF AND DUP2 MSTORE POP SWAP3 POP PUSH2 0x150F JUMP JUMPDEST PUSH1 0x0 DUP5 SWAP1 POP PUSH1 0x40 MLOAD DUP1 PUSH2 0x200 ADD PUSH1 0x40 MSTORE DUP1 PUSH1 0x1C PUSH1 0x0 ADD SLOAD DUP2 MSTORE PUSH1 0x20 ADD DUP3 PUSH20 0xFFFFFFFFFFFFFFFFFFFFFFFFFFFFFFFFFFFFFFFF AND PUSH4 0x6FDDE03 PUSH1 0x40 MLOAD DUP2 PUSH4 0xFFFFFFFF AND PUSH1 0xE0 SHL DUP2 MSTORE PUSH1 0x4 ADD PUSH1 0x0 PUSH1 0x40 MLOAD DUP1 DUP4 SUB DUP2 DUP7 DUP1 EXTCODESIZE ISZERO DUP1 ISZERO PUSH2 0x1341 JUMPI PUSH1 0x0 DUP1 REVERT JUMPDEST POP GAS STATICCALL ISZERO DUP1 ISZERO PUSH2 0x1355 JUMPI RETURNDATASIZE PUSH1 0x0 DUP1 RETURNDATACOPY RETURNDATASIZE PUSH1 0x0 REVERT JUMPDEST POP POP POP POP PUSH1 0x40 MLOAD RETURNDATASIZE PUSH1 0x0 DUP3 RETURNDATACOPY RETURNDATASIZE PUSH1 0x1F NOT PUSH1 0x1F DUP3 ADD AND DUP3 ADD DUP1 PUSH1 0x40 MSTORE POP DUP2 ADD SWAP1 PUSH2 0x137E SWAP2 SWAP1 PUSH2 0x4D09 JUMP JUMPDEST DUP2 MSTORE PUSH1 0x20 ADD DUP7 PUSH20 0xFFFFFFFFFFFFFFFFFFFFFFFFFFFFFFFFFFFFFFFF AND DUP2 MSTORE PUSH1 0x20 ADD PUSH1 0xE PUSH1 0x0 SWAP1 SLOAD SWAP1 PUSH2 0x100 EXP SWAP1 DIV PUSH20 0xFFFFFFFFFFFFFFFFFFFFFFFFFFFFFFFFFFFFFFFF AND PUSH20 0xFFFFFFFFFFFFFFFFFFFFFFFFFFFFFFFFFFFFFFFF AND DUP2 MSTORE PUSH1 0x20 ADD PUSH1 0xE PUSH1 0x0 SWAP1 SLOAD SWAP1 PUSH2 0x100 EXP SWAP1 DIV PUSH20 0xFFFFFFFFFFFFFFFFFFFFFFFFFFFFFFFFFFFFFFFF AND PUSH20 0xFFFFFFFFFFFFFFFFFFFFFFFFFFFFFFFFFFFFFFFF AND DUP2 MSTORE PUSH1 0x20 ADD PUSH1 0x1 PUSH1 0xFF AND DUP2 MSTORE PUSH1 0x20 ADD PUSH1 0x4 PUSH1 0xFF AND DUP2 MSTORE PUSH1 0x20 ADD PUSH1 0x40 MLOAD DUP1 PUSH1 0x40 ADD PUSH1 0x40 MSTORE DUP1 PUSH1 0x9 PUSH4 0xFFFFFFFF AND DUP2 MSTORE PUSH1 0x20 ADD DUP9 PUSH20 0xFFFFFFFFFFFFFFFFFFFFFFFFFFFFFFFFFFFFFFFF AND DUP2 MSTORE POP DUP2 MSTORE PUSH1 0x20 ADD PUSH1 0xE PUSH1 0x0 SWAP1 SLOAD SWAP1 PUSH2 0x100 EXP SWAP1 DIV PUSH20 0xFFFFFFFFFFFFFFFFFFFFFFFFFFFFFFFFFFFFFFFF AND PUSH20 0xFFFFFFFFFFFFFFFFFFFFFFFFFFFFFFFFFFFFFFFF AND DUP2 MSTORE PUSH1 0x20 ADD PUSH1 0x0 DUP2 MSTORE PUSH1 0x20 ADD PUSH1 0x0 DUP2 MSTORE PUSH1 0x20 ADD PUSH1 0x0 DUP2 MSTORE PUSH1 0x20 ADD PUSH1 0x0 DUP2 MSTORE PUSH1 0x20 ADD PUSH1 0xC PUSH1 0x0 SWAP1 SLOAD SWAP1 PUSH2 0x100 EXP SWAP1 DIV PUSH20 0xFFFFFFFFFFFFFFFFFFFFFFFFFFFFFFFFFFFFFFFF AND PUSH20 0xFFFFFFFFFFFFFFFFFFFFFFFFFFFFFFFFFFFFFFFF AND DUP2 MSTORE PUSH1 0x20 ADD DUP5 DUP2 MSTORE PUSH1 0x20 ADD DUP4 PUSH1 0xFF AND DUP2 MSTORE POP SWAP4 POP POP JUMPDEST POP POP POP POP JUMP JUMPDEST PUSH1 0xE PUSH1 0x0 SWAP1 SLOAD SWAP1 PUSH2 0x100 EXP SWAP1 DIV PUSH20 0xFFFFFFFFFFFFFFFFFFFFFFFFFFFFFFFFFFFFFFFF AND DUP2 JUMP JUMPDEST PUSH1 0x8 SLOAD DUP2 JUMP JUMPDEST PUSH1 0xC PUSH1 0x0 SWAP1 SLOAD SWAP1 PUSH2 0x100 EXP SWAP1 DIV PUSH20 0xFFFFFFFFFFFFFFFFFFFFFFFFFFFFFFFFFFFFFFFF AND DUP2 JUMP JUMPDEST PUSH1 0x9 SLOAD DUP2 JUMP JUMPDEST PUSH1 0xA SLOAD DUP2 JUMP JUMPDEST PUSH2 0x157B PUSH2 0x3897 JUMP JUMPDEST PUSH1 0x0 PUSH1 0x5 PUSH1 0x0 SWAP1 SLOAD SWAP1 PUSH2 0x100 EXP SWAP1 DIV PUSH20 0xFFFFFFFFFFFFFFFFFFFFFFFFFFFFFFFFFFFFFFFF AND PUSH20 0xFFFFFFFFFFFFFFFFFFFFFFFFFFFFFFFFFFFFFFFF AND PUSH4 0x6E38D8EC PUSH1 0x17 DUP6 DUP2 SLOAD DUP2 LT PUSH2 0x15C8 JUMPI INVALID JUMPDEST SWAP1 PUSH1 0x0 MSTORE PUSH1 0x20 PUSH1 0x0 KECCAK256 ADD PUSH1 0x40 MLOAD DUP3 PUSH4 0xFFFFFFFF AND PUSH1 0xE0 SHL DUP2 MSTORE PUSH1 0x4 ADD PUSH2 0x15EE SWAP2 SWAP1 PUSH2 0x5EA4 JUMP JUMPDEST PUSH1 0x0 PUSH1 0x40 MLOAD DUP1 DUP4 SUB DUP2 PUSH1 0x0 DUP8 DUP1 EXTCODESIZE ISZERO DUP1 ISZERO PUSH2 0x1608 JUMPI PUSH1 0x0 DUP1 REVERT JUMPDEST POP GAS CALL ISZERO DUP1 ISZERO PUSH2 0x161C JUMPI RETURNDATASIZE PUSH1 0x0 DUP1 RETURNDATACOPY RETURNDATASIZE PUSH1 0x0 REVERT JUMPDEST POP POP POP POP PUSH1 0x40 MLOAD RETURNDATASIZE PUSH1 0x0 DUP3 RETURNDATACOPY RETURNDATASIZE PUSH1 0x1F NOT PUSH1 0x1F DUP3 ADD AND DUP3 ADD DUP1 PUSH1 0x40 MSTORE POP DUP2 ADD SWAP1 PUSH2 0x1645 SWAP2 SWAP1 PUSH2 0x4D4A JUMP JUMPDEST SWAP1 POP PUSH32 0xF02DC673563287B8331B05B87E42C1B98C7D66034211C30CDF9F13E0B80D865F DUP2 PUSH1 0x40 MLOAD PUSH2 0x1676 SWAP2 SWAP1 PUSH2 0x601E JUMP JUMPDEST PUSH1 0x40 MLOAD DUP1 SWAP2 SUB SWAP1 LOG1 DUP1 SWAP2 POP POP SWAP2 SWAP1 POP JUMP JUMPDEST PUSH1 0x10 PUSH1 0x0 SWAP1 SLOAD SWAP1 PUSH2 0x100 EXP SWAP1 DIV PUSH20 0xFFFFFFFFFFFFFFFFFFFFFFFFFFFFFFFFFFFFFFFF AND DUP2 JUMP JUMPDEST PUSH1 0x1B PUSH1 0x20 MSTORE DUP1 PUSH1 0x0 MSTORE PUSH1 0x40 PUSH1 0x0 KECCAK256 PUSH1 0x0 SWAP2 POP SWAP1 POP SLOAD DUP2 JUMP JUMPDEST PUSH1 0x17 DUP3 DUP2 SLOAD DUP2 LT PUSH2 0x16D5 JUMPI PUSH1 0x0 DUP1 REVERT JUMPDEST SWAP1 PUSH1 0x0 MSTORE PUSH1 0x20 PUSH1 0x0 KECCAK256 ADD DUP2 DUP2 SLOAD DUP2 LT PUSH2 0x16ED JUMPI PUSH1 0x0 DUP1 REVERT JUMPDEST SWAP1 PUSH1 0x0 MSTORE PUSH1 0x20 PUSH1 0x0 KECCAK256 SWAP1 PUSH1 0x8 MUL ADD PUSH1 0x0 SWAP2 POP SWAP2 POP POP DUP1 PUSH1 0x0 ADD PUSH1 0x0 SWAP1 SLOAD SWAP1 PUSH2 0x100 EXP SWAP1 DIV PUSH4 0xFFFFFFFF AND SWAP1 DUP1 PUSH1 0x1 ADD PUSH1 0x40 MLOAD DUP1 PUSH1 0x40 ADD PUSH1 0x40 MSTORE SWAP1 DUP2 PUSH1 0x0 DUP3 ADD PUSH1 0x0 SWAP1 SLOAD SWAP1 PUSH2 0x100 EXP SWAP1 DIV PUSH20 0xFFFFFFFFFFFFFFFFFFFFFFFFFFFFFFFFFFFFFFFF AND PUSH20 0xFFFFFFFFFFFFFFFFFFFFFFFFFFFFFFFFFFFFFFFF AND PUSH20 0xFFFFFFFFFFFFFFFFFFFFFFFFFFFFFFFFFFFFFFFF AND DUP2 MSTORE PUSH1 0x20 ADD PUSH1 0x0 DUP3 ADD PUSH1 0x14 SWAP1 SLOAD SWAP1 PUSH2 0x100 EXP SWAP1 DIV PUSH8 0xFFFFFFFFFFFFFFFF AND PUSH8 0xFFFFFFFFFFFFFFFF AND PUSH8 0xFFFFFFFFFFFFFFFF AND DUP2 MSTORE POP POP SWAP1 DUP1 PUSH1 0x2 ADD PUSH1 0x0 SWAP1 SLOAD SWAP1 PUSH2 0x100 EXP SWAP1 DIV PUSH4 0xFFFFFFFF AND SWAP1 DUP1 PUSH1 0x2 ADD PUSH1 0x4 SWAP1 SLOAD SWAP1 PUSH2 0x100 EXP SWAP1 DIV PUSH20 0xFFFFFFFFFFFFFFFFFFFFFFFFFFFFFFFFFFFFFFFF AND SWAP1 DUP1 PUSH1 0x3 ADD SLOAD SWAP1 DUP1 PUSH1 0x4 ADD PUSH1 0x40 MLOAD DUP1 PUSH1 0x40 ADD PUSH1 0x40 MSTORE SWAP1 DUP2 PUSH1 0x0 DUP3 ADD PUSH1 0x0 SWAP1 SLOAD SWAP1 PUSH2 0x100 EXP SWAP1 DIV PUSH4 0xFFFFFFFF AND PUSH4 0xFFFFFFFF AND PUSH4 0xFFFFFFFF AND DUP2 MSTORE PUSH1 0x20 ADD PUSH1 0x0 DUP3 ADD PUSH1 0x4 SWAP1 SLOAD SWAP1 PUSH2 0x100 EXP SWAP1 DIV PUSH20 0xFFFFFFFFFFFFFFFFFFFFFFFFFFFFFFFFFFFFFFFF AND PUSH20 0xFFFFFFFFFFFFFFFFFFFFFFFFFFFFFFFFFFFFFFFF AND PUSH20 0xFFFFFFFFFFFFFFFFFFFFFFFFFFFFFFFFFFFFFFFF AND DUP2 MSTORE POP POP SWAP1 DUP1 PUSH1 0x5 ADD PUSH1 0x0 SWAP1 SLOAD SWAP1 PUSH2 0x100 EXP SWAP1 DIV PUSH20 0xFFFFFFFFFFFFFFFFFFFFFFFFFFFFFFFFFFFFFFFF AND SWAP1 DUP1 PUSH1 0x6 ADD PUSH1 0x0 SWAP1 SLOAD SWAP1 PUSH2 0x100 EXP SWAP1 DIV PUSH20 0xFFFFFFFFFFFFFFFFFFFFFFFFFFFFFFFFFFFFFFFF AND SWAP1 DUP1 PUSH1 0x7 ADD PUSH1 0x0 SWAP1 SLOAD SWAP1 PUSH2 0x100 EXP SWAP1 DIV PUSH20 0xFFFFFFFFFFFFFFFFFFFFFFFFFFFFFFFFFFFFFFFF AND SWAP1 POP DUP10 JUMP JUMPDEST PUSH1 0x19 PUSH1 0x20 MSTORE DUP1 PUSH1 0x0 MSTORE PUSH1 0x40 PUSH1 0x0 KECCAK256 PUSH1 0x0 SWAP2 POP SWAP1 POP SLOAD DUP2 JUMP JUMPDEST PUSH1 0x18 DUP2 DUP2 SLOAD DUP2 LT PUSH2 0x191C JUMPI PUSH1 0x0 DUP1 REVERT JUMPDEST SWAP1 PUSH1 0x0 MSTORE PUSH1 0x20 PUSH1 0x0 KECCAK256 SWAP1 PUSH1 0x8 MUL ADD PUSH1 0x0 SWAP2 POP SWAP1 POP DUP1 PUSH1 0x0 ADD PUSH1 0x0 SWAP1 SLOAD SWAP1 PUSH2 0x100 EXP SWAP1 DIV PUSH4 0xFFFFFFFF AND SWAP1 DUP1 PUSH1 0x0 ADD PUSH1 0x4 SWAP1 SLOAD SWAP1 PUSH2 0x100 EXP SWAP1 DIV PUSH4 0xFFFFFFFF AND SWAP1 DUP1 PUSH1 0x0 ADD PUSH1 0x8 SWAP1 SLOAD SWAP1 PUSH2 0x100 EXP SWAP1 DIV PUSH20 0xFFFFFFFFFFFFFFFFFFFFFFFFFFFFFFFFFFFFFFFF AND SWAP1 DUP1 PUSH1 0x0 ADD PUSH1 0x1C SWAP1 SLOAD SWAP1 PUSH2 0x100 EXP SWAP1 DIV PUSH4 0xFFFFFFFF AND SWAP1 DUP1 PUSH1 0x1 ADD PUSH1 0x0 SWAP1 SLOAD SWAP1 PUSH2 0x100 EXP SWAP1 DIV PUSH4 0xFFFFFFFF AND SWAP1 DUP1 PUSH1 0x1 ADD PUSH1 0x4 SWAP1 SLOAD SWAP1 PUSH2 0x100 EXP SWAP1 DIV PUSH20 0xFFFFFFFFFFFFFFFFFFFFFFFFFFFFFFFFFFFFFFFF AND SWAP1 DUP1 PUSH1 0x2 ADD PUSH1 0x0 SWAP1 SLOAD SWAP1 PUSH2 0x100 EXP SWAP1 DIV PUSH20 0xFFFFFFFFFFFFFFFFFFFFFFFFFFFFFFFFFFFFFFFF AND SWAP1 DUP1 PUSH1 0x2 ADD PUSH1 0x14 SWAP1 SLOAD SWAP1 PUSH2 0x100 EXP SWAP1 DIV PUSH1 0x3 SIGNEXTEND SWAP1 DUP1 PUSH1 0x5 ADD SLOAD SWAP1 DUP1 PUSH1 0x7 ADD PUSH1 0x0 SWAP1 SLOAD SWAP1 PUSH2 0x100 EXP SWAP1 DIV PUSH20 0xFFFFFFFFFFFFFFFFFFFFFFFFFFFFFFFFFFFFFFFF AND SWAP1 DUP1 PUSH1 0x7 ADD PUSH1 0x14 SWAP1 SLOAD SWAP1 PUSH2 0x100 EXP SWAP1 DIV PUSH1 0x3 SIGNEXTEND SWAP1 POP DUP12 JUMP JUMPDEST PUSH1 0xF PUSH1 0x0 SWAP1 SLOAD SWAP1 PUSH2 0x100 EXP SWAP1 DIV PUSH20 0xFFFFFFFFFFFFFFFFFFFFFFFFFFFFFFFFFFFFFFFF AND DUP2 JUMP JUMPDEST PUSH1 0x60 PUSH1 0x6 PUSH1 0x14 SWAP1 SLOAD SWAP1 PUSH2 0x100 EXP SWAP1 DIV PUSH1 0xFF AND ISZERO PUSH2 0x1AC8 JUMPI PUSH1 0x40 MLOAD PUSH32 0x8C379A000000000000000000000000000000000000000000000000000000000 DUP2 MSTORE PUSH1 0x4 ADD PUSH2 0x1ABF SWAP1 PUSH2 0x5F3E JUMP JUMPDEST PUSH1 0x40 MLOAD DUP1 SWAP2 SUB SWAP1 REVERT JUMPDEST PUSH1 0x17 DUP3 DUP2 SLOAD DUP2 LT PUSH2 0x1AD5 JUMPI INVALID JUMPDEST SWAP1 PUSH1 0x0 MSTORE PUSH1 0x20 PUSH1 0x0 KECCAK256 ADD DUP1 SLOAD DUP1 PUSH1 0x20 MUL PUSH1 0x20 ADD PUSH1 0x40 MLOAD SWAP1 DUP2 ADD PUSH1 0x40 MSTORE DUP1 SWAP3 SWAP2 SWAP1 DUP2 DUP2 MSTORE PUSH1 0x20 ADD PUSH1 0x0 SWAP1 JUMPDEST DUP3 DUP3 LT ISZERO PUSH2 0x1E0C JUMPI DUP4 DUP3 SWAP1 PUSH1 0x0 MSTORE PUSH1 0x20 PUSH1 0x0 KECCAK256 SWAP1 PUSH1 0x8 MUL ADD PUSH1 0x40 MLOAD DUP1 PUSH2 0x120 ADD PUSH1 0x40 MSTORE SWAP1 DUP2 PUSH1 0x0 DUP3 ADD PUSH1 0x0 SWAP1 SLOAD SWAP1 PUSH2 0x100 EXP SWAP1 DIV PUSH4 0xFFFFFFFF AND PUSH4 0xFFFFFFFF AND PUSH4 0xFFFFFFFF AND DUP2 MSTORE PUSH1 0x20 ADD PUSH1 0x1 DUP3 ADD PUSH1 0x40 MLOAD DUP1 PUSH1 0x40 ADD PUSH1 0x40 MSTORE SWAP1 DUP2 PUSH1 0x0 DUP3 ADD PUSH1 0x0 SWAP1 SLOAD SWAP1 PUSH2 0x100 EXP SWAP1 DIV PUSH20 0xFFFFFFFFFFFFFFFFFFFFFFFFFFFFFFFFFFFFFFFF AND PUSH20 0xFFFFFFFFFFFFFFFFFFFFFFFFFFFFFFFFFFFFFFFF AND PUSH20 0xFFFFFFFFFFFFFFFFFFFFFFFFFFFFFFFFFFFFFFFF AND DUP2 MSTORE PUSH1 0x20 ADD PUSH1 0x0 DUP3 ADD PUSH1 0x14 SWAP1 SLOAD SWAP1 PUSH2 0x100 EXP SWAP1 DIV PUSH8 0xFFFFFFFFFFFFFFFF AND PUSH8 0xFFFFFFFFFFFFFFFF AND PUSH8 0xFFFFFFFFFFFFFFFF AND DUP2 MSTORE POP POP DUP2 MSTORE PUSH1 0x20 ADD PUSH1 0x2 DUP3 ADD PUSH1 0x0 SWAP1 SLOAD SWAP1 PUSH2 0x100 EXP SWAP1 DIV PUSH4 0xFFFFFFFF AND PUSH4 0xFFFFFFFF AND PUSH4 0xFFFFFFFF AND DUP2 MSTORE PUSH1 0x20 ADD PUSH1 0x2 DUP3 ADD PUSH1 0x4 SWAP1 SLOAD SWAP1 PUSH2 0x100 EXP SWAP1 DIV PUSH20 0xFFFFFFFFFFFFFFFFFFFFFFFFFFFFFFFFFFFFFFFF AND PUSH20 0xFFFFFFFFFFFFFFFFFFFFFFFFFFFFFFFFFFFFFFFF AND PUSH20 0xFFFFFFFFFFFFFFFFFFFFFFFFFFFFFFFFFFFFFFFF AND DUP2 MSTORE PUSH1 0x20 ADD PUSH1 0x3 DUP3 ADD SLOAD DUP2 MSTORE PUSH1 0x20 ADD PUSH1 0x4 DUP3 ADD PUSH1 0x40 MLOAD DUP1 PUSH1 0x40 ADD PUSH1 0x40 MSTORE SWAP1 DUP2 PUSH1 0x0 DUP3 ADD PUSH1 0x0 SWAP1 SLOAD SWAP1 PUSH2 0x100 EXP SWAP1 DIV PUSH4 0xFFFFFFFF AND PUSH4 0xFFFFFFFF AND PUSH4 0xFFFFFFFF AND DUP2 MSTORE PUSH1 0x20 ADD PUSH1 0x0 DUP3 ADD PUSH1 0x4 SWAP1 SLOAD SWAP1 PUSH2 0x100 EXP SWAP1 DIV PUSH20 0xFFFFFFFFFFFFFFFFFFFFFFFFFFFFFFFFFFFFFFFF AND PUSH20 0xFFFFFFFFFFFFFFFFFFFFFFFFFFFFFFFFFFFFFFFF AND PUSH20 0xFFFFFFFFFFFFFFFFFFFFFFFFFFFFFFFFFFFFFFFF AND DUP2 MSTORE POP POP DUP2 MSTORE PUSH1 0x20 ADD PUSH1 0x5 DUP3 ADD PUSH1 0x0 SWAP1 SLOAD SWAP1 PUSH2 0x100 EXP SWAP1 DIV PUSH20 0xFFFFFFFFFFFFFFFFFFFFFFFFFFFFFFFFFFFFFFFF AND PUSH20 0xFFFFFFFFFFFFFFFFFFFFFFFFFFFFFFFFFFFFFFFF AND PUSH20 0xFFFFFFFFFFFFFFFFFFFFFFFFFFFFFFFFFFFFFFFF AND DUP2 MSTORE PUSH1 0x20 ADD PUSH1 0x6 DUP3 ADD PUSH1 0x0 SWAP1 SLOAD SWAP1 PUSH2 0x100 EXP SWAP1 DIV PUSH20 0xFFFFFFFFFFFFFFFFFFFFFFFFFFFFFFFFFFFFFFFF AND PUSH20 0xFFFFFFFFFFFFFFFFFFFFFFFFFFFFFFFFFFFFFFFF AND PUSH20 0xFFFFFFFFFFFFFFFFFFFFFFFFFFFFFFFFFFFFFFFF AND DUP2 MSTORE PUSH1 0x20 ADD PUSH1 0x7 DUP3 ADD PUSH1 0x0 SWAP1 SLOAD SWAP1 PUSH2 0x100 EXP SWAP1 DIV PUSH20 0xFFFFFFFFFFFFFFFFFFFFFFFFFFFFFFFFFFFFFFFF AND PUSH20 0xFFFFFFFFFFFFFFFFFFFFFFFFFFFFFFFFFFFFFFFF AND PUSH20 0xFFFFFFFFFFFFFFFFFFFFFFFFFFFFFFFFFFFFFFFF AND DUP2 MSTORE POP POP DUP2 MSTORE PUSH1 0x20 ADD SWAP1 PUSH1 0x1 ADD SWAP1 PUSH2 0x1AFF JUMP JUMPDEST POP POP POP POP SWAP1 POP SWAP2 SWAP1 POP JUMP JUMPDEST PUSH1 0x1A PUSH1 0x20 MSTORE DUP1 PUSH1 0x0 MSTORE PUSH1 0x40 PUSH1 0x0 KECCAK256 PUSH1 0x0 SWAP2 POP SWAP1 POP DUP1 PUSH1 0x0 ADD SLOAD SWAP1 DUP1 PUSH1 0x1 ADD PUSH1 0x0 SWAP1 SLOAD SWAP1 PUSH2 0x100 EXP SWAP1 DIV PUSH1 0xFF AND SWAP1 POP DUP3 JUMP JUMPDEST PUSH1 0x0 PUSH1 0x6 PUSH1 0x14 SWAP1 SLOAD SWAP1 PUSH2 0x100 EXP SWAP1 DIV PUSH1 0xFF AND ISZERO PUSH2 0x1E9A JUMPI PUSH1 0x40 MLOAD PUSH32 0x8C379A000000000000000000000000000000000000000000000000000000000 DUP2 MSTORE PUSH1 0x4 ADD PUSH2 0x1E91 SWAP1 PUSH2 0x5F3E JUMP JUMPDEST PUSH1 0x40 MLOAD DUP1 SWAP2 SUB SWAP1 REVERT JUMPDEST PUSH1 0x1 PUSH1 0x17 DUP1 SLOAD SWAP1 POP SUB SWAP1 POP SWAP1 JUMP JUMPDEST PUSH1 0x0 PUSH1 0x6 PUSH1 0x14 SWAP1 SLOAD SWAP1 PUSH2 0x100 EXP SWAP1 DIV PUSH1 0xFF AND ISZERO PUSH2 0x1EFA JUMPI PUSH1 0x40 MLOAD PUSH32 0x8C379A000000000000000000000000000000000000000000000000000000000 DUP2 MSTORE PUSH1 0x4 ADD PUSH2 0x1EF1 SWAP1 PUSH2 0x5F3E JUMP JUMPDEST PUSH1 0x40 MLOAD DUP1 SWAP2 SUB SWAP1 REVERT JUMPDEST PUSH1 0x0 PUSH1 0x1B PUSH1 0x0 CALLER PUSH20 0xFFFFFFFFFFFFFFFFFFFFFFFFFFFFFFFFFFFFFFFF AND PUSH20 0xFFFFFFFFFFFFFFFFFFFFFFFFFFFFFFFFFFFFFFFF AND DUP2 MSTORE PUSH1 0x20 ADD SWAP1 DUP2 MSTORE PUSH1 0x20 ADD PUSH1 0x0 KECCAK256 SLOAD GT ISZERO PUSH2 0x1F8C JUMPI PUSH2 0x1F8B PUSH1 0x1B PUSH1 0x0 CALLER PUSH20 0xFFFFFFFFFFFFFFFFFFFFFFFFFFFFFFFFFFFFFFFF AND PUSH20 0xFFFFFFFFFFFFFFFFFFFFFFFFFFFFFFFFFFFFFFFF AND DUP2 MSTORE PUSH1 0x20 ADD SWAP1 DUP2 MSTORE PUSH1 0x20 ADD PUSH1 0x0 KECCAK256 SLOAD CALLER PUSH2 0x2C08 JUMP JUMPDEST JUMPDEST PUSH1 0x1B PUSH1 0x0 CALLER PUSH20 0xFFFFFFFFFFFFFFFFFFFFFFFFFFFFFFFFFFFFFFFF AND PUSH20 0xFFFFFFFFFFFFFFFFFFFFFFFFFFFFFFFFFFFFFFFF AND DUP2 MSTORE PUSH1 0x20 ADD SWAP1 DUP2 MSTORE PUSH1 0x20 ADD PUSH1 0x0 KECCAK256 SLOAD SWAP1 POP SWAP1 JUMP JUMPDEST PUSH1 0xD PUSH1 0x0 SWAP1 SLOAD SWAP1 PUSH2 0x100 EXP SWAP1 DIV PUSH20 0xFFFFFFFFFFFFFFFFFFFFFFFFFFFFFFFFFFFFFFFF AND DUP2 JUMP JUMPDEST PUSH1 0x12 DUP2 DUP2 SLOAD DUP2 LT PUSH2 0x2007 JUMPI PUSH1 0x0 DUP1 REVERT JUMPDEST SWAP1 PUSH1 0x0 MSTORE PUSH1 0x20 PUSH1 0x0 KECCAK256 ADD PUSH1 0x0 SWAP2 POP SWAP1 POP SLOAD DUP2 JUMP JUMPDEST PUSH1 0x60 PUSH1 0x0 DUP1 DUP5 SWAP1 POP JUMPDEST DUP4 DUP2 GT PUSH2 0x2068 JUMPI PUSH1 0x1A PUSH1 0x0 DUP3 DUP2 MSTORE PUSH1 0x20 ADD SWAP1 DUP2 MSTORE PUSH1 0x20 ADD PUSH1 0x0 KECCAK256 PUSH1 0x1 ADD PUSH1 0x0 SWAP1 SLOAD SWAP1 PUSH2 0x100 EXP SWAP1 DIV PUSH1 0xFF AND ISZERO PUSH2 0x205B JUMPI PUSH1 0x1 DUP3 ADD SWAP2 POP JUMPDEST DUP1 DUP1 PUSH1 0x1 ADD SWAP2 POP POP PUSH2 0x2024 JUMP JUMPDEST POP PUSH1 0x0 DUP2 PUSH8 0xFFFFFFFFFFFFFFFF DUP2 GT DUP1 ISZERO PUSH2 0x2082 JUMPI PUSH1 0x0 DUP1 REVERT JUMPDEST POP PUSH1 0x40 MLOAD SWAP1 DUP1 DUP3 MSTORE DUP1 PUSH1 0x20 MUL PUSH1 0x20 ADD DUP3 ADD PUSH1 0x40 MSTORE DUP1 ISZERO PUSH2 0x20BC JUMPI DUP2 PUSH1 0x20 ADD JUMPDEST PUSH2 0x20A9 PUSH2 0x3775 JUMP JUMPDEST DUP2 MSTORE PUSH1 0x20 ADD SWAP1 PUSH1 0x1 SWAP1 SUB SWAP1 DUP2 PUSH2 0x20A1 JUMPI SWAP1 POP JUMPDEST POP SWAP1 POP PUSH1 0x0 DUP1 DUP7 SWAP1 POP JUMPDEST DUP6 DUP2 GT PUSH2 0x212C JUMPI PUSH1 0x1A PUSH1 0x0 DUP3 DUP2 MSTORE PUSH1 0x20 ADD SWAP1 DUP2 MSTORE PUSH1 0x20 ADD PUSH1 0x0 KECCAK256 PUSH1 0x1 ADD PUSH1 0x0 SWAP1 SLOAD SWAP1 PUSH2 0x100 EXP SWAP1 DIV PUSH1 0xFF AND ISZERO PUSH2 0x211F JUMPI PUSH2 0x20FF DUP2 PUSH2 0xB6B JUMP JUMPDEST DUP4 DUP4 DUP2 MLOAD DUP2 LT PUSH2 0x210B JUMPI INVALID JUMPDEST PUSH1 0x20 MUL PUSH1 0x20 ADD ADD DUP2 SWAP1 MSTORE POP DUP2 DUP1 PUSH1 0x1 ADD SWAP3 POP POP JUMPDEST DUP1 DUP1 PUSH1 0x1 ADD SWAP2 POP POP PUSH2 0x20C6 JUMP JUMPDEST POP DUP2 SWAP4 POP POP POP POP SWAP3 SWAP2 POP POP JUMP JUMPDEST PUSH1 0x0 PUSH1 0x6 PUSH1 0x14 SWAP1 SLOAD SWAP1 PUSH2 0x100 EXP SWAP1 DIV PUSH1 0xFF AND ISZERO PUSH2 0x218B JUMPI PUSH1 0x40 MLOAD PUSH32 0x8C379A000000000000000000000000000000000000000000000000000000000 DUP2 MSTORE PUSH1 0x4 ADD PUSH2 0x2182 SWAP1 PUSH2 0x5F3E JUMP JUMPDEST PUSH1 0x40 MLOAD DUP1 SWAP2 SUB SWAP1 REVERT JUMPDEST PUSH1 0x11 SLOAD CALLVALUE GT PUSH2 0x21CF JUMPI PUSH1 0x40 MLOAD PUSH32 0x8C379A000000000000000000000000000000000000000000000000000000000 DUP2 MSTORE PUSH1 0x4 ADD PUSH2 0x21C6 SWAP1 PUSH2 0x5F7E JUMP JUMPDEST PUSH1 0x40 MLOAD DUP1 SWAP2 SUB SWAP1 REVERT JUMPDEST PUSH1 0x0 PUSH1 0x11 SLOAD CALLVALUE SUB SWAP1 POP DUP1 PUSH1 0x9 PUSH1 0x0 DUP3 DUP3 SLOAD ADD SWAP3 POP POP DUP2 SWAP1 SSTORE POP PUSH1 0x11 SLOAD PUSH1 0x8 PUSH1 0x0 DUP3 DUP3 SLOAD ADD SWAP3 POP POP DUP2 SWAP1 SSTORE POP PUSH1 0x0 DUP1 PUSH1 0x40 MLOAD DUP1 PUSH1 0x40 ADD PUSH1 0x40 MSTORE DUP1 PUSH1 0x1 PUSH4 0xFFFFFFFF AND DUP2 MSTORE PUSH1 0x20 ADD DUP11 PUSH20 0xFFFFFFFFFFFFFFFFFFFFFFFFFFFFFFFFFFFFFFFF AND DUP2 MSTORE POP SWAP1 POP PUSH1 0x0 PUSH1 0x40 MLOAD DUP1 PUSH1 0x40 ADD PUSH1 0x40 MSTORE DUP1 PUSH1 0xC PUSH1 0x0 SWAP1 SLOAD SWAP1 PUSH2 0x100 EXP SWAP1 DIV PUSH20 0xFFFFFFFFFFFFFFFFFFFFFFFFFFFFFFFFFFFFFFFF AND PUSH20 0xFFFFFFFFFFFFFFFFFFFFFFFFFFFFFFFFFFFFFFFF AND DUP2 MSTORE PUSH1 0x20 ADD DUP6 PUSH8 0xFFFFFFFFFFFFFFFF AND DUP2 MSTORE POP SWAP1 POP PUSH1 0x0 PUSH1 0x40 MLOAD DUP1 PUSH2 0x120 ADD PUSH1 0x40 MSTORE DUP1 PUSH1 0x1 PUSH4 0xFFFFFFFF AND DUP2 MSTORE PUSH1 0x20 ADD DUP4 DUP2 MSTORE PUSH1 0x20 ADD DUP6 PUSH4 0xFFFFFFFF AND DUP2 MSTORE PUSH1 0x20 ADD DUP12 PUSH20 0xFFFFFFFFFFFFFFFFFFFFFFFFFFFFFFFFFFFFFFFF AND DUP2 MSTORE PUSH1 0x20 ADD DUP11 DUP2 MSTORE PUSH1 0x20 ADD DUP5 DUP2 MSTORE PUSH1 0x20 ADD PUSH1 0xC PUSH1 0x0 SWAP1 SLOAD SWAP1 PUSH2 0x100 EXP SWAP1 DIV PUSH20 0xFFFFFFFFFFFFFFFFFFFFFFFFFFFFFFFFFFFFFFFF AND PUSH20 0xFFFFFFFFFFFFFFFFFFFFFFFFFFFFFFFFFFFFFFFF AND DUP2 MSTORE PUSH1 0x20 ADD DUP10 PUSH20 0xFFFFFFFFFFFFFFFFFFFFFFFFFFFFFFFFFFFFFFFF AND DUP2 MSTORE PUSH1 0x20 ADD DUP9 PUSH20 0xFFFFFFFFFFFFFFFFFFFFFFFFFFFFFFFFFFFFFFFF AND DUP2 MSTORE POP SWAP1 POP PUSH2 0x2360 DUP2 PUSH2 0x2CE6 JUMP JUMPDEST DUP5 SWAP6 POP POP POP POP POP POP SWAP6 SWAP5 POP POP POP POP POP JUMP JUMPDEST PUSH1 0x6 PUSH1 0x14 SWAP1 SLOAD SWAP1 PUSH2 0x100 EXP SWAP1 DIV PUSH1 0xFF AND ISZERO PUSH2 0x23C1 JUMPI PUSH1 0x40 MLOAD PUSH32 0x8C379A000000000000000000000000000000000000000000000000000000000 DUP2 MSTORE PUSH1 0x4 ADD PUSH2 0x23B8 SWAP1 PUSH2 0x5F3E JUMP JUMPDEST PUSH1 0x40 MLOAD DUP1 SWAP2 SUB SWAP1 REVERT JUMPDEST DUP4 PUSH8 0xFFFFFFFFFFFFFFFF AND PUSH1 0x11 SLOAD ADD CALLVALUE LT ISZERO PUSH2 0x2412 JUMPI PUSH1 0x40 MLOAD PUSH32 0x8C379A000000000000000000000000000000000000000000000000000000000 DUP2 MSTORE PUSH1 0x4 ADD PUSH2 0x2409 SWAP1 PUSH2 0x5FFE JUMP JUMPDEST PUSH1 0x40 MLOAD DUP1 SWAP2 SUB SWAP1 REVERT JUMPDEST PUSH1 0xC PUSH1 0x0 SWAP1 SLOAD SWAP1 PUSH2 0x100 EXP SWAP1 DIV PUSH20 0xFFFFFFFFFFFFFFFFFFFFFFFFFFFFFFFFFFFFFFFF AND PUSH20 0xFFFFFFFFFFFFFFFFFFFFFFFFFFFFFFFFFFFFFFFF AND DUP7 PUSH20 0xFFFFFFFFFFFFFFFFFFFFFFFFFFFFFFFFFFFFFFFF AND EQ ISZERO PUSH2 0x24A3 JUMPI PUSH1 0x40 MLOAD PUSH32 0x8C379A000000000000000000000000000000000000000000000000000000000 DUP2 MSTORE PUSH1 0x4 ADD PUSH2 0x249A SWAP1 PUSH2 0x5F5E JUMP JUMPDEST PUSH1 0x40 MLOAD DUP1 SWAP2 SUB SWAP1 REVERT JUMPDEST CALLVALUE PUSH1 0x8 PUSH1 0x0 DUP3 DUP3 SLOAD ADD SWAP3 POP POP DUP2 SWAP1 SSTORE POP PUSH1 0x0 DUP8 SWAP1 POP PUSH1 0x0 DUP2 PUSH20 0xFFFFFFFFFFFFFFFFFFFFFFFFFFFFFFFFFFFFFFFF AND PUSH4 0xDD62ED3E CALLER ADDRESS PUSH1 0x40 MLOAD DUP4 PUSH4 0xFFFFFFFF AND PUSH1 0xE0 SHL DUP2 MSTORE PUSH1 0x4 ADD PUSH2 0x24F5 SWAP3 SWAP2 SWAP1 PUSH2 0x5D6F JUMP JUMPDEST PUSH1 0x20 PUSH1 0x40 MLOAD DUP1 DUP4 SUB DUP2 DUP7 DUP1 EXTCODESIZE ISZERO DUP1 ISZERO PUSH2 0x250D JUMPI PUSH1 0x0 DUP1 REVERT JUMPDEST POP GAS STATICCALL ISZERO DUP1 ISZERO PUSH2 0x2521 JUMPI RETURNDATASIZE PUSH1 0x0 DUP1 RETURNDATACOPY RETURNDATASIZE PUSH1 0x0 REVERT JUMPDEST POP POP POP POP PUSH1 0x40 MLOAD RETURNDATASIZE PUSH1 0x1F NOT PUSH1 0x1F DUP3 ADD AND DUP3 ADD DUP1 PUSH1 0x40 MSTORE POP DUP2 ADD SWAP1 PUSH2 0x2545 SWAP2 SWAP1 PUSH2 0x4E54 JUMP JUMPDEST SWAP1 POP DUP10 PUSH8 0xFFFFFFFFFFFFFFFF AND DUP2 PUSH8 0xFFFFFFFFFFFFFFFF AND LT ISZERO PUSH2 0x259E JUMPI PUSH1 0x40 MLOAD PUSH32 0x8C379A000000000000000000000000000000000000000000000000000000000 DUP2 MSTORE PUSH1 0x4 ADD PUSH2 0x2595 SWAP1 PUSH2 0x5FDE JUMP JUMPDEST PUSH1 0x40 MLOAD DUP1 SWAP2 SUB SWAP1 REVERT JUMPDEST DUP2 PUSH20 0xFFFFFFFFFFFFFFFFFFFFFFFFFFFFFFFFFFFFFFFF AND PUSH4 0x23B872DD CALLER ADDRESS DUP14 PUSH8 0xFFFFFFFFFFFFFFFF AND PUSH1 0x40 MLOAD DUP5 PUSH4 0xFFFFFFFF AND PUSH1 0xE0 SHL DUP2 MSTORE PUSH1 0x4 ADD PUSH2 0x25E5 SWAP4 SWAP3 SWAP2 SWAP1 PUSH2 0x5D98 JUMP JUMPDEST PUSH1 0x20 PUSH1 0x40 MLOAD DUP1 DUP4 SUB DUP2 PUSH1 0x0 DUP8 DUP1 EXTCODESIZE ISZERO DUP1 ISZERO PUSH2 0x25FF JUMPI PUSH1 0x0 DUP1 REVERT JUMPDEST POP GAS CALL ISZERO DUP1 ISZERO PUSH2 0x2613 JUMPI RETURNDATASIZE PUSH1 0x0 DUP1 RETURNDATACOPY RETURNDATASIZE PUSH1 0x0 REVERT JUMPDEST POP POP POP POP PUSH1 0x40 MLOAD RETURNDATASIZE PUSH1 0x1F NOT PUSH1 0x1F DUP3 ADD AND DUP3 ADD DUP1 PUSH1 0x40 MSTORE POP DUP2 ADD SWAP1 PUSH2 0x2637 SWAP2 SWAP1 PUSH2 0x4C76 JUMP JUMPDEST POP DUP2 PUSH20 0xFFFFFFFFFFFFFFFFFFFFFFFFFFFFFFFFFFFFFFFF AND PUSH4 0x95EA7B3 PUSH1 0x0 DUP1 SLOAD SWAP1 PUSH2 0x100 EXP SWAP1 DIV PUSH20 0xFFFFFFFFFFFFFFFFFFFFFFFFFFFFFFFFFFFFFFFF AND DUP13 PUSH8 0xFFFFFFFFFFFFFFFF AND PUSH1 0x40 MLOAD DUP4 PUSH4 0xFFFFFFFF AND PUSH1 0xE0 SHL DUP2 MSTORE PUSH1 0x4 ADD PUSH2 0x269D SWAP3 SWAP2 SWAP1 PUSH2 0x5E37 JUMP JUMPDEST PUSH1 0x20 PUSH1 0x40 MLOAD DUP1 DUP4 SUB DUP2 PUSH1 0x0 DUP8 DUP1 EXTCODESIZE ISZERO DUP1 ISZERO PUSH2 0x26B7 JUMPI PUSH1 0x0 DUP1 REVERT JUMPDEST POP GAS CALL ISZERO DUP1 ISZERO PUSH2 0x26CB JUMPI RETURNDATASIZE PUSH1 0x0 DUP1 RETURNDATACOPY RETURNDATASIZE PUSH1 0x0 REVERT JUMPDEST POP POP POP POP PUSH1 0x40 MLOAD RETURNDATASIZE PUSH1 0x1F NOT PUSH1 0x1F DUP3 ADD AND DUP3 ADD DUP1 PUSH1 0x40 MSTORE POP DUP2 ADD SWAP1 PUSH2 0x26EF SWAP2 SWAP1 PUSH2 0x4C76 JUMP JUMPDEST POP PUSH1 0x0 DUP1 SLOAD SWAP1 PUSH2 0x100 EXP SWAP1 DIV PUSH20 0xFFFFFFFFFFFFFFFFFFFFFFFFFFFFFFFFFFFFFFFF AND PUSH20 0xFFFFFFFFFFFFFFFFFFFFFFFFFFFFFFFFFFFFFFFF AND PUSH4 0x9033EF3F DUP11 DUP13 PUSH8 0xFFFFFFFFFFFFFFFF AND PUSH1 0x40 MLOAD DUP4 PUSH4 0xFFFFFFFF AND PUSH1 0xE0 SHL DUP2 MSTORE PUSH1 0x4 ADD PUSH2 0x2755 SWAP3 SWAP2 SWAP1 PUSH2 0x5E37 JUMP JUMPDEST PUSH1 0x0 PUSH1 0x40 MLOAD DUP1 DUP4 SUB DUP2 PUSH1 0x0 DUP8 DUP1 EXTCODESIZE ISZERO DUP1 ISZERO PUSH2 0x276F JUMPI PUSH1 0x0 DUP1 REVERT JUMPDEST POP GAS CALL ISZERO DUP1 ISZERO PUSH2 0x2783 JUMPI RETURNDATASIZE PUSH1 0x0 DUP1 RETURNDATACOPY RETURNDATASIZE PUSH1 0x0 REVERT JUMPDEST POP POP POP POP PUSH1 0x0 DUP1 PUSH1 0x40 MLOAD DUP1 PUSH1 0x40 ADD PUSH1 0x40 MSTORE DUP1 PUSH1 0x1 PUSH4 0xFFFFFFFF AND DUP2 MSTORE PUSH1 0x20 ADD DUP12 PUSH20 0xFFFFFFFFFFFFFFFFFFFFFFFFFFFFFFFFFFFFFFFF AND DUP2 MSTORE POP SWAP1 POP PUSH1 0x0 PUSH1 0x40 MLOAD DUP1 PUSH1 0x40 ADD PUSH1 0x40 MSTORE DUP1 DUP14 PUSH20 0xFFFFFFFFFFFFFFFFFFFFFFFFFFFFFFFFFFFFFFFF AND DUP2 MSTORE PUSH1 0x20 ADD DUP15 PUSH8 0xFFFFFFFFFFFFFFFF AND DUP2 MSTORE POP SWAP1 POP PUSH1 0x0 PUSH1 0x40 MLOAD DUP1 PUSH2 0x120 ADD PUSH1 0x40 MSTORE DUP1 PUSH1 0x1 PUSH4 0xFFFFFFFF AND DUP2 MSTORE PUSH1 0x20 ADD DUP4 DUP2 MSTORE PUSH1 0x20 ADD DUP6 PUSH4 0xFFFFFFFF AND DUP2 MSTORE PUSH1 0x20 ADD DUP11 PUSH20 0xFFFFFFFFFFFFFFFFFFFFFFFFFFFFFFFFFFFFFFFF AND DUP2 MSTORE PUSH1 0x20 ADD DUP12 DUP2 MSTORE PUSH1 0x20 ADD DUP5 DUP2 MSTORE PUSH1 0x20 ADD DUP13 PUSH20 0xFFFFFFFFFFFFFFFFFFFFFFFFFFFFFFFFFFFFFFFF AND DUP2 MSTORE PUSH1 0x20 ADD DUP10 PUSH20 0xFFFFFFFFFFFFFFFFFFFFFFFFFFFFFFFFFFFFFFFF AND DUP2 MSTORE PUSH1 0x20 ADD DUP9 PUSH20 0xFFFFFFFFFFFFFFFFFFFFFFFFFFFFFFFFFFFFFFFF AND DUP2 MSTORE POP SWAP1 POP PUSH2 0x28A9 DUP2 PUSH2 0x2CE6 JUMP JUMPDEST POP POP POP POP POP POP POP POP POP POP POP POP POP POP JUMP JUMPDEST PUSH1 0x0 DUP1 PUSH1 0x0 SWAP1 POP JUMPDEST DUP3 PUSH1 0xA0 ADD MLOAD MLOAD DUP2 LT ISZERO PUSH2 0x2BFE JUMPI PUSH1 0xC PUSH1 0x0 SWAP1 SLOAD SWAP1 PUSH2 0x100 EXP SWAP1 DIV PUSH20 0xFFFFFFFFFFFFFFFFFFFFFFFFFFFFFFFFFFFFFFFF AND PUSH20 0xFFFFFFFFFFFFFFFFFFFFFFFFFFFFFFFFFFFFFFFF AND DUP4 PUSH1 0xA0 ADD MLOAD DUP3 DUP2 MLOAD DUP2 LT PUSH2 0x2917 JUMPI INVALID JUMPDEST PUSH1 0x20 MUL PUSH1 0x20 ADD ADD MLOAD PUSH1 0xC0 ADD MLOAD PUSH20 0xFFFFFFFFFFFFFFFFFFFFFFFFFFFFFFFFFFFFFFFF AND EQ ISZERO PUSH2 0x29CF JUMPI PUSH2 0x2991 DUP4 PUSH1 0xA0 ADD MLOAD DUP3 DUP2 MLOAD DUP2 LT PUSH2 0x2952 JUMPI INVALID JUMPDEST PUSH1 0x20 MUL PUSH1 0x20 ADD ADD MLOAD PUSH1 0x20 ADD MLOAD PUSH1 0x20 ADD MLOAD PUSH8 0xFFFFFFFFFFFFFFFF AND DUP5 PUSH1 0xA0 ADD MLOAD DUP4 DUP2 MLOAD DUP2 LT PUSH2 0x297C JUMPI INVALID JUMPDEST PUSH1 0x20 MUL PUSH1 0x20 ADD ADD MLOAD PUSH1 0xA0 ADD MLOAD PUSH1 0x20 ADD MLOAD PUSH2 0x2C08 JUMP JUMPDEST DUP3 PUSH1 0xA0 ADD MLOAD DUP2 DUP2 MLOAD DUP2 LT PUSH2 0x29A1 JUMPI INVALID JUMPDEST PUSH1 0x20 MUL PUSH1 0x20 ADD ADD MLOAD PUSH1 0x20 ADD MLOAD PUSH1 0x20 ADD MLOAD PUSH8 0xFFFFFFFFFFFFFFFF AND PUSH1 0x9 PUSH1 0x0 DUP3 DUP3 SLOAD SUB SWAP3 POP POP DUP2 SWAP1 SSTORE POP PUSH2 0x2AB8 JUMP JUMPDEST PUSH1 0x0 DUP1 SLOAD SWAP1 PUSH2 0x100 EXP SWAP1 DIV PUSH20 0xFFFFFFFFFFFFFFFFFFFFFFFFFFFFFFFFFFFFFFFF AND PUSH20 0xFFFFFFFFFFFFFFFFFFFFFFFFFFFFFFFFFFFFFFFF AND PUSH4 0x68D31BB9 DUP5 PUSH1 0xA0 ADD MLOAD DUP4 DUP2 MLOAD DUP2 LT PUSH2 0x2A1B JUMPI INVALID JUMPDEST PUSH1 0x20 MUL PUSH1 0x20 ADD ADD MLOAD PUSH1 0xC0 ADD MLOAD DUP6 PUSH1 0xA0 ADD MLOAD DUP5 DUP2 MLOAD DUP2 LT PUSH2 0x2A37 JUMPI INVALID JUMPDEST PUSH1 0x20 MUL PUSH1 0x20 ADD ADD MLOAD PUSH1 0x20 ADD MLOAD PUSH1 0x20 ADD MLOAD DUP7 PUSH1 0xA0 ADD MLOAD DUP6 DUP2 MLOAD DUP2 LT PUSH2 0x2A57 JUMPI INVALID JUMPDEST PUSH1 0x20 MUL PUSH1 0x20 ADD ADD MLOAD PUSH1 0xA0 ADD MLOAD PUSH1 0x20 ADD MLOAD PUSH1 0x40 MLOAD DUP5 PUSH4 0xFFFFFFFF AND PUSH1 0xE0 SHL DUP2 MSTORE PUSH1 0x4 ADD PUSH2 0x2A85 SWAP4 SWAP3 SWAP2 SWAP1 PUSH2 0x609F JUMP JUMPDEST PUSH1 0x0 PUSH1 0x40 MLOAD DUP1 DUP4 SUB DUP2 PUSH1 0x0 DUP8 DUP1 EXTCODESIZE ISZERO DUP1 ISZERO PUSH2 0x2A9F JUMPI PUSH1 0x0 DUP1 REVERT JUMPDEST POP GAS CALL ISZERO DUP1 ISZERO PUSH2 0x2AB3 JUMPI RETURNDATASIZE PUSH1 0x0 DUP1 RETURNDATACOPY RETURNDATASIZE PUSH1 0x0 REVERT JUMPDEST POP POP POP POP JUMPDEST PUSH1 0x0 DUP4 PUSH1 0xA0 ADD MLOAD DUP3 DUP2 MLOAD DUP2 LT PUSH2 0x2ACA JUMPI INVALID JUMPDEST PUSH1 0x20 MUL PUSH1 0x20 ADD ADD MLOAD PUSH1 0x80 ADD MLOAD GT DUP1 ISZERO PUSH2 0x2B4B JUMPI POP PUSH1 0xC PUSH1 0x0 SWAP1 SLOAD SWAP1 PUSH2 0x100 EXP SWAP1 DIV PUSH20 0xFFFFFFFFFFFFFFFFFFFFFFFFFFFFFFFFFFFFFFFF AND PUSH20 0xFFFFFFFFFFFFFFFFFFFFFFFFFFFFFFFFFFFFFFFF AND DUP4 PUSH1 0xA0 ADD MLOAD DUP3 DUP2 MLOAD DUP2 LT PUSH2 0x2B27 JUMPI INVALID JUMPDEST PUSH1 0x20 MUL PUSH1 0x20 ADD ADD MLOAD PUSH1 0x60 ADD MLOAD PUSH20 0xFFFFFFFFFFFFFFFFFFFFFFFFFFFFFFFFFFFFFFFF AND EQ JUMPDEST ISZERO PUSH2 0x2BF1 JUMPI DUP3 PUSH1 0xA0 ADD MLOAD DUP2 DUP2 MLOAD DUP2 LT PUSH2 0x2B60 JUMPI INVALID JUMPDEST PUSH1 0x20 MUL PUSH1 0x20 ADD ADD MLOAD PUSH1 0x80 ADD MLOAD PUSH1 0x1B PUSH1 0x0 CALLER PUSH20 0xFFFFFFFFFFFFFFFFFFFFFFFFFFFFFFFFFFFFFFFF AND PUSH20 0xFFFFFFFFFFFFFFFFFFFFFFFFFFFFFFFFFFFFFFFF AND DUP2 MSTORE PUSH1 0x20 ADD SWAP1 DUP2 MSTORE PUSH1 0x20 ADD PUSH1 0x0 KECCAK256 SLOAD ADD PUSH1 0x1B PUSH1 0x0 CALLER PUSH20 0xFFFFFFFFFFFFFFFFFFFFFFFFFFFFFFFFFFFFFFFF AND PUSH20 0xFFFFFFFFFFFFFFFFFFFFFFFFFFFFFFFFFFFFFFFF AND DUP2 MSTORE PUSH1 0x20 ADD SWAP1 DUP2 MSTORE PUSH1 0x20 ADD PUSH1 0x0 KECCAK256 DUP2 SWAP1 SSTORE POP JUMPDEST DUP1 DUP1 PUSH1 0x1 ADD SWAP2 POP POP PUSH2 0x28C1 JUMP JUMPDEST POP PUSH1 0x1 SWAP1 POP SWAP2 SWAP1 POP JUMP JUMPDEST PUSH1 0x6 PUSH1 0x14 SWAP1 SLOAD SWAP1 PUSH2 0x100 EXP SWAP1 DIV PUSH1 0xFF AND ISZERO PUSH2 0x2C58 JUMPI PUSH1 0x40 MLOAD PUSH32 0x8C379A000000000000000000000000000000000000000000000000000000000 DUP2 MSTORE PUSH1 0x4 ADD PUSH2 0x2C4F SWAP1 PUSH2 0x5F3E JUMP JUMPDEST PUSH1 0x40 MLOAD DUP1 SWAP2 SUB SWAP1 REVERT JUMPDEST SELFBALANCE DUP3 GT ISZERO PUSH2 0x2C9B JUMPI PUSH1 0x40 MLOAD PUSH32 0x8C379A000000000000000000000000000000000000000000000000000000000 DUP2 MSTORE PUSH1 0x4 ADD PUSH2 0x2C92 SWAP1 PUSH2 0x5F9E JUMP JUMPDEST PUSH1 0x40 MLOAD DUP1 SWAP2 SUB SWAP1 REVERT JUMPDEST DUP1 PUSH20 0xFFFFFFFFFFFFFFFFFFFFFFFFFFFFFFFFFFFFFFFF AND PUSH2 0x8FC DUP4 SWAP1 DUP2 ISZERO MUL SWAP1 PUSH1 0x40 MLOAD PUSH1 0x0 PUSH1 0x40 MLOAD DUP1 DUP4 SUB DUP2 DUP6 DUP9 DUP9 CALL SWAP4 POP POP POP POP ISZERO DUP1 ISZERO PUSH2 0x2CE1 JUMPI RETURNDATASIZE PUSH1 0x0 DUP1 RETURNDATACOPY RETURNDATASIZE PUSH1 0x0 REVERT JUMPDEST POP POP POP JUMP JUMPDEST PUSH1 0x0 NUMBER SWAP1 POP PUSH1 0x0 DUP1 PUSH2 0x2D00 DUP5 PUSH1 0x80 ADD MLOAD DUP6 PUSH1 0x60 ADD MLOAD PUSH2 0x35AC JUMP JUMPDEST ISZERO PUSH2 0x2D1A JUMPI DUP4 PUSH1 0x80 ADD MLOAD PUSH1 0xA PUSH1 0x0 DUP3 DUP3 SLOAD SUB SWAP3 POP POP DUP2 SWAP1 SSTORE POP JUMPDEST PUSH1 0x1A PUSH1 0x0 DUP5 DUP2 MSTORE PUSH1 0x20 ADD SWAP1 DUP2 MSTORE PUSH1 0x20 ADD PUSH1 0x0 KECCAK256 PUSH1 0x1 ADD PUSH1 0x0 SWAP1 SLOAD SWAP1 PUSH2 0x100 EXP SWAP1 DIV PUSH1 0xFF AND ISZERO PUSH2 0x3017 JUMPI PUSH1 0x1A PUSH1 0x0 DUP5 DUP2 MSTORE PUSH1 0x20 ADD SWAP1 DUP2 MSTORE PUSH1 0x20 ADD PUSH1 0x0 KECCAK256 PUSH1 0x0 ADD SLOAD SWAP2 POP PUSH1 0x17 DUP3 DUP2 SLOAD DUP2 LT PUSH2 0x2D69 JUMPI INVALID JUMPDEST SWAP1 PUSH1 0x0 MSTORE PUSH1 0x20 PUSH1 0x0 KECCAK256 ADD DUP5 SWAP1 DUP1 PUSH1 0x1 DUP2 SLOAD ADD DUP1 DUP3 SSTORE DUP1 SWAP2 POP POP PUSH1 0x1 SWAP1 SUB SWAP1 PUSH1 0x0 MSTORE PUSH1 0x20 PUSH1 0x0 KECCAK256 SWAP1 PUSH1 0x8 MUL ADD PUSH1 0x0 SWAP1 SWAP2 SWAP1 SWAP2 SWAP1 SWAP2 POP PUSH1 0x0 DUP3 ADD MLOAD DUP2 PUSH1 0x0 ADD PUSH1 0x0 PUSH2 0x100 EXP DUP2 SLOAD DUP2 PUSH4 0xFFFFFFFF MUL NOT AND SWAP1 DUP4 PUSH4 0xFFFFFFFF AND MUL OR SWAP1 SSTORE POP PUSH1 0x20 DUP3 ADD MLOAD DUP2 PUSH1 0x1 ADD PUSH1 0x0 DUP3 ADD MLOAD DUP2 PUSH1 0x0 ADD PUSH1 0x0 PUSH2 0x100 EXP DUP2 SLOAD DUP2 PUSH20 0xFFFFFFFFFFFFFFFFFFFFFFFFFFFFFFFFFFFFFFFF MUL NOT AND SWAP1 DUP4 PUSH20 0xFFFFFFFFFFFFFFFFFFFFFFFFFFFFFFFFFFFFFFFF AND MUL OR SWAP1 SSTORE POP PUSH1 0x20 DUP3 ADD MLOAD DUP2 PUSH1 0x0 ADD PUSH1 0x14 PUSH2 0x100 EXP DUP2 SLOAD DUP2 PUSH8 0xFFFFFFFFFFFFFFFF MUL NOT AND SWAP1 DUP4 PUSH8 0xFFFFFFFFFFFFFFFF AND MUL OR SWAP1 SSTORE POP POP POP PUSH1 0x40 DUP3 ADD MLOAD DUP2 PUSH1 0x2 ADD PUSH1 0x0 PUSH2 0x100 EXP DUP2 SLOAD DUP2 PUSH4 0xFFFFFFFF MUL NOT AND SWAP1 DUP4 PUSH4 0xFFFFFFFF AND MUL OR SWAP1 SSTORE POP PUSH1 0x60 DUP3 ADD MLOAD DUP2 PUSH1 0x2 ADD PUSH1 0x4 PUSH2 0x100 EXP DUP2 SLOAD DUP2 PUSH20 0xFFFFFFFFFFFFFFFFFFFFFFFFFFFFFFFFFFFFFFFF MUL NOT AND SWAP1 DUP4 PUSH20 0xFFFFFFFFFFFFFFFFFFFFFFFFFFFFFFFFFFFFFFFF AND MUL OR SWAP1 SSTORE POP PUSH1 0x80 DUP3 ADD MLOAD DUP2 PUSH1 0x3 ADD SSTORE PUSH1 0xA0 DUP3 ADD MLOAD DUP2 PUSH1 0x4 ADD PUSH1 0x0 DUP3 ADD MLOAD DUP2 PUSH1 0x0 ADD PUSH1 0x0 PUSH2 0x100 EXP DUP2 SLOAD DUP2 PUSH4 0xFFFFFFFF MUL NOT AND SWAP1 DUP4 PUSH4 0xFFFFFFFF AND MUL OR SWAP1 SSTORE POP PUSH1 0x20 DUP3 ADD MLOAD DUP2 PUSH1 0x0 ADD PUSH1 0x4 PUSH2 0x100 EXP DUP2 SLOAD DUP2 PUSH20 0xFFFFFFFFFFFFFFFFFFFFFFFFFFFFFFFFFFFFFFFF MUL NOT AND SWAP1 DUP4 PUSH20 0xFFFFFFFFFFFFFFFFFFFFFFFFFFFFFFFFFFFFFFFF AND MUL OR SWAP1 SSTORE POP POP POP PUSH1 0xC0 DUP3 ADD MLOAD DUP2 PUSH1 0x5 ADD PUSH1 0x0 PUSH2 0x100 EXP DUP2 SLOAD DUP2 PUSH20 0xFFFFFFFFFFFFFFFFFFFFFFFFFFFFFFFFFFFFFFFF MUL NOT AND SWAP1 DUP4 PUSH20 0xFFFFFFFFFFFFFFFFFFFFFFFFFFFFFFFFFFFFFFFF AND MUL OR SWAP1 SSTORE POP PUSH1 0xE0 DUP3 ADD MLOAD DUP2 PUSH1 0x6 ADD PUSH1 0x0 PUSH2 0x100 EXP DUP2 SLOAD DUP2 PUSH20 0xFFFFFFFFFFFFFFFFFFFFFFFFFFFFFFFFFFFFFFFF MUL NOT AND SWAP1 DUP4 PUSH20 0xFFFFFFFFFFFFFFFFFFFFFFFFFFFFFFFFFFFFFFFF AND MUL OR SWAP1 SSTORE POP PUSH2 0x100 DUP3 ADD MLOAD DUP2 PUSH1 0x7 ADD PUSH1 0x0 PUSH2 0x100 EXP DUP2 SLOAD DUP2 PUSH20 0xFFFFFFFFFFFFFFFFFFFFFFFFFFFFFFFFFFFFFFFF MUL NOT AND SWAP1 DUP4 PUSH20 0xFFFFFFFFFFFFFFFFFFFFFFFFFFFFFFFFFFFFFFFF AND MUL OR SWAP1 SSTORE POP POP POP PUSH1 0x0 SWAP1 POP PUSH2 0x3362 JUMP JUMPDEST PUSH1 0x15 DUP5 SWAP1 DUP1 PUSH1 0x1 DUP2 SLOAD ADD DUP1 DUP3 SSTORE DUP1 SWAP2 POP POP PUSH1 0x1 SWAP1 SUB SWAP1 PUSH1 0x0 MSTORE PUSH1 0x20 PUSH1 0x0 KECCAK256 SWAP1 PUSH1 0x8 MUL ADD PUSH1 0x0 SWAP1 SWAP2 SWAP1 SWAP2 SWAP1 SWAP2 POP PUSH1 0x0 DUP3 ADD MLOAD DUP2 PUSH1 0x0 ADD PUSH1 0x0 PUSH2 0x100 EXP DUP2 SLOAD DUP2 PUSH4 0xFFFFFFFF MUL NOT AND SWAP1 DUP4 PUSH4 0xFFFFFFFF AND MUL OR SWAP1 SSTORE POP PUSH1 0x20 DUP3 ADD MLOAD DUP2 PUSH1 0x1 ADD PUSH1 0x0 DUP3 ADD MLOAD DUP2 PUSH1 0x0 ADD PUSH1 0x0 PUSH2 0x100 EXP DUP2 SLOAD DUP2 PUSH20 0xFFFFFFFFFFFFFFFFFFFFFFFFFFFFFFFFFFFFFFFF MUL NOT AND SWAP1 DUP4 PUSH20 0xFFFFFFFFFFFFFFFFFFFFFFFFFFFFFFFFFFFFFFFF AND MUL OR SWAP1 SSTORE POP PUSH1 0x20 DUP3 ADD MLOAD DUP2 PUSH1 0x0 ADD PUSH1 0x14 PUSH2 0x100 EXP DUP2 SLOAD DUP2 PUSH8 0xFFFFFFFFFFFFFFFF MUL NOT AND SWAP1 DUP4 PUSH8 0xFFFFFFFFFFFFFFFF AND MUL OR SWAP1 SSTORE POP POP POP PUSH1 0x40 DUP3 ADD MLOAD DUP2 PUSH1 0x2 ADD PUSH1 0x0 PUSH2 0x100 EXP DUP2 SLOAD DUP2 PUSH4 0xFFFFFFFF MUL NOT AND SWAP1 DUP4 PUSH4 0xFFFFFFFF AND MUL OR SWAP1 SSTORE POP PUSH1 0x60 DUP3 ADD MLOAD DUP2 PUSH1 0x2 ADD PUSH1 0x4 PUSH2 0x100 EXP DUP2 SLOAD DUP2 PUSH20 0xFFFFFFFFFFFFFFFFFFFFFFFFFFFFFFFFFFFFFFFF MUL NOT AND SWAP1 DUP4 PUSH20 0xFFFFFFFFFFFFFFFFFFFFFFFFFFFFFFFFFFFFFFFF AND MUL OR SWAP1 SSTORE POP PUSH1 0x80 DUP3 ADD MLOAD DUP2 PUSH1 0x3 ADD SSTORE PUSH1 0xA0 DUP3 ADD MLOAD DUP2 PUSH1 0x4 ADD PUSH1 0x0 DUP3 ADD MLOAD DUP2 PUSH1 0x0 ADD PUSH1 0x0 PUSH2 0x100 EXP DUP2 SLOAD DUP2 PUSH4 0xFFFFFFFF MUL NOT AND SWAP1 DUP4 PUSH4 0xFFFFFFFF AND MUL OR SWAP1 SSTORE POP PUSH1 0x20 DUP3 ADD MLOAD DUP2 PUSH1 0x0 ADD PUSH1 0x4 PUSH2 0x100 EXP DUP2 SLOAD DUP2 PUSH20 0xFFFFFFFFFFFFFFFFFFFFFFFFFFFFFFFFFFFFFFFF MUL NOT AND SWAP1 DUP4 PUSH20 0xFFFFFFFFFFFFFFFFFFFFFFFFFFFFFFFFFFFFFFFF AND MUL OR SWAP1 SSTORE POP POP POP PUSH1 0xC0 DUP3 ADD MLOAD DUP2 PUSH1 0x5 ADD PUSH1 0x0 PUSH2 0x100 EXP DUP2 SLOAD DUP2 PUSH20 0xFFFFFFFFFFFFFFFFFFFFFFFFFFFFFFFFFFFFFFFF MUL NOT AND SWAP1 DUP4 PUSH20 0xFFFFFFFFFFFFFFFFFFFFFFFFFFFFFFFFFFFFFFFF AND MUL OR SWAP1 SSTORE POP PUSH1 0xE0 DUP3 ADD MLOAD DUP2 PUSH1 0x6 ADD PUSH1 0x0 PUSH2 0x100 EXP DUP2 SLOAD DUP2 PUSH20 0xFFFFFFFFFFFFFFFFFFFFFFFFFFFFFFFFFFFFFFFF MUL NOT AND SWAP1 DUP4 PUSH20 0xFFFFFFFFFFFFFFFFFFFFFFFFFFFFFFFFFFFFFFFF AND MUL OR SWAP1 SSTORE POP PUSH2 0x100 DUP3 ADD MLOAD DUP2 PUSH1 0x7 ADD PUSH1 0x0 PUSH2 0x100 EXP DUP2 SLOAD DUP2 PUSH20 0xFFFFFFFFFFFFFFFFFFFFFFFFFFFFFFFFFFFFFFFF MUL NOT AND SWAP1 DUP4 PUSH20 0xFFFFFFFFFFFFFFFFFFFFFFFFFFFFFFFFFFFFFFFF AND MUL OR SWAP1 SSTORE POP POP POP PUSH1 0x17 PUSH1 0x15 SWAP1 DUP1 PUSH1 0x1 DUP2 SLOAD ADD DUP1 DUP3 SSTORE DUP1 SWAP2 POP POP PUSH1 0x1 SWAP1 SUB SWAP1 PUSH1 0x0 MSTORE PUSH1 0x20 PUSH1 0x0 KECCAK256 ADD PUSH1 0x0 SWAP1 SWAP2 SWAP1 SWAP2 SWAP1 SWAP2 POP SWAP1 DUP1 SLOAD PUSH2 0x32EB SWAP3 SWAP2 SWAP1 PUSH2 0x397C JUMP JUMPDEST POP PUSH1 0x1 PUSH1 0x17 DUP1 SLOAD SWAP1 POP SUB SWAP2 POP PUSH1 0x40 MLOAD DUP1 PUSH1 0x40 ADD PUSH1 0x40 MSTORE DUP1 DUP4 DUP2 MSTORE PUSH1 0x20 ADD PUSH1 0x1 ISZERO ISZERO DUP2 MSTORE POP PUSH1 0x1A PUSH1 0x0 DUP6 DUP2 MSTORE PUSH1 0x20 ADD SWAP1 DUP2 MSTORE PUSH1 0x20 ADD PUSH1 0x0 KECCAK256 PUSH1 0x0 DUP3 ADD MLOAD DUP2 PUSH1 0x0 ADD SSTORE PUSH1 0x20 DUP3 ADD MLOAD DUP2 PUSH1 0x1 ADD PUSH1 0x0 PUSH2 0x100 EXP DUP2 SLOAD DUP2 PUSH1 0xFF MUL NOT AND SWAP1 DUP4 ISZERO ISZERO MUL OR SWAP1 SSTORE POP SWAP1 POP POP PUSH1 0x15 PUSH1 0x0 PUSH2 0x335D SWAP2 SWAP1 PUSH2 0x3D44 JUMP JUMPDEST PUSH1 0x1 SWAP1 POP JUMPDEST PUSH32 0xB8D4F347A0B44134445A8314AF14AD4CA1C388BA87529E9A4FB9C6EF15745DC DUP3 PUSH1 0x40 MLOAD PUSH2 0x3391 SWAP2 SWAP1 PUSH2 0x60D6 JUMP JUMPDEST PUSH1 0x40 MLOAD DUP1 SWAP2 SUB SWAP1 LOG1 PUSH1 0x0 PUSH2 0x33A4 DUP4 PUSH2 0x1573 JUMP JUMPDEST SWAP1 POP PUSH1 0x0 PUSH1 0x1 PUSH1 0x0 SWAP1 SLOAD SWAP1 PUSH2 0x100 EXP SWAP1 DIV PUSH20 0xFFFFFFFFFFFFFFFFFFFFFFFFFFFFFFFFFFFFFFFF AND PUSH20 0xFFFFFFFFFFFFFFFFFFFFFFFFFFFFFFFFFFFFFFFF AND PUSH4 0xBD5EA273 DUP4 PUSH1 0x40 MLOAD DUP3 PUSH4 0xFFFFFFFF AND PUSH1 0xE0 SHL DUP2 MSTORE PUSH1 0x4 ADD PUSH2 0x3403 SWAP2 SWAP1 PUSH2 0x601E JUMP JUMPDEST PUSH1 0x0 PUSH1 0x40 MLOAD DUP1 DUP4 SUB DUP2 DUP7 DUP1 EXTCODESIZE ISZERO DUP1 ISZERO PUSH2 0x341B JUMPI PUSH1 0x0 DUP1 REVERT JUMPDEST POP GAS STATICCALL ISZERO DUP1 ISZERO PUSH2 0x342F JUMPI RETURNDATASIZE PUSH1 0x0 DUP1 RETURNDATACOPY RETURNDATASIZE PUSH1 0x0 REVERT JUMPDEST POP POP POP POP PUSH1 0x40 MLOAD RETURNDATASIZE PUSH1 0x0 DUP3 RETURNDATACOPY RETURNDATASIZE PUSH1 0x1F NOT PUSH1 0x1F DUP3 ADD AND DUP3 ADD DUP1 PUSH1 0x40 MSTORE POP DUP2 ADD SWAP1 PUSH2 0x3458 SWAP2 SWAP1 PUSH2 0x4CC8 JUMP JUMPDEST SWAP1 POP PUSH1 0x0 PUSH1 0x1 PUSH1 0x0 SWAP1 SLOAD SWAP1 PUSH2 0x100 EXP SWAP1 DIV PUSH20 0xFFFFFFFFFFFFFFFFFFFFFFFFFFFFFFFFFFFFFFFF AND PUSH20 0xFFFFFFFFFFFFFFFFFFFFFFFFFFFFFFFFFFFFFFFF AND PUSH4 0x48352C07 PUSH1 0x17 DUP8 DUP2 SLOAD DUP2 LT PUSH2 0x34A7 JUMPI INVALID JUMPDEST SWAP1 PUSH1 0x0 MSTORE PUSH1 0x20 PUSH1 0x0 KECCAK256 ADD PUSH1 0x40 MLOAD DUP3 PUSH4 0xFFFFFFFF AND PUSH1 0xE0 SHL DUP2 MSTORE PUSH1 0x4 ADD PUSH2 0x34CD SWAP2 SWAP1 PUSH2 0x5EA4 JUMP JUMPDEST PUSH1 0x0 PUSH1 0x40 MLOAD DUP1 DUP4 SUB DUP2 DUP7 DUP1 EXTCODESIZE ISZERO DUP1 ISZERO PUSH2 0x34E5 JUMPI PUSH1 0x0 DUP1 REVERT JUMPDEST POP GAS STATICCALL ISZERO DUP1 ISZERO PUSH2 0x34F9 JUMPI RETURNDATASIZE PUSH1 0x0 DUP1 RETURNDATACOPY RETURNDATASIZE PUSH1 0x0 REVERT JUMPDEST POP POP POP POP PUSH1 0x40 MLOAD RETURNDATASIZE PUSH1 0x0 DUP3 RETURNDATACOPY RETURNDATASIZE PUSH1 0x1F NOT PUSH1 0x1F DUP3 ADD AND DUP3 ADD DUP1 PUSH1 0x40 MSTORE POP DUP2 ADD SWAP1 PUSH2 0x3522 SWAP2 SWAP1 PUSH2 0x4CC8 JUMP JUMPDEST SWAP1 POP PUSH1 0x0 DUP3 DUP3 PUSH1 0x40 MLOAD PUSH1 0x20 ADD PUSH2 0x3539 SWAP3 SWAP2 SWAP1 PUSH2 0x5D30 JUMP JUMPDEST PUSH1 0x40 MLOAD PUSH1 0x20 DUP2 DUP4 SUB SUB DUP2 MSTORE SWAP1 PUSH1 0x40 MSTORE DUP1 MLOAD SWAP1 PUSH1 0x20 ADD KECCAK256 SWAP1 POP DUP5 ISZERO PUSH2 0x3585 JUMPI PUSH1 0x12 DUP2 SWAP1 DUP1 PUSH1 0x1 DUP2 SLOAD ADD DUP1 DUP3 SSTORE DUP1 SWAP2 POP POP PUSH1 0x1 SWAP1 SUB SWAP1 PUSH1 0x0 MSTORE PUSH1 0x20 PUSH1 0x0 KECCAK256 ADD PUSH1 0x0 SWAP1 SWAP2 SWAP1 SWAP2 SWAP1 SWAP2 POP SSTORE PUSH2 0x35A2 JUMP JUMPDEST DUP1 PUSH1 0x12 DUP8 DUP2 SLOAD DUP2 LT PUSH2 0x3593 JUMPI INVALID JUMPDEST SWAP1 PUSH1 0x0 MSTORE PUSH1 0x20 PUSH1 0x0 KECCAK256 ADD DUP2 SWAP1 SSTORE POP JUMPDEST POP POP POP POP POP POP POP POP JUMP JUMPDEST PUSH1 0x0 PUSH1 0x1 PUSH1 0x4 PUSH1 0x0 SWAP1 SLOAD SWAP1 PUSH2 0x100 EXP SWAP1 DIV PUSH20 0xFFFFFFFFFFFFFFFFFFFFFFFFFFFFFFFFFFFFFFFF AND PUSH20 0xFFFFFFFFFFFFFFFFFFFFFFFFFFFFFFFFFFFFFFFF AND PUSH4 0xEC48AE3C PUSH1 0x40 MLOAD DUP2 PUSH4 0xFFFFFFFF AND PUSH1 0xE0 SHL DUP2 MSTORE PUSH1 0x4 ADD PUSH1 0x20 PUSH1 0x40 MLOAD DUP1 DUP4 SUB DUP2 DUP7 DUP1 EXTCODESIZE ISZERO DUP1 ISZERO PUSH2 0x3618 JUMPI PUSH1 0x0 DUP1 REVERT JUMPDEST POP GAS STATICCALL ISZERO DUP1 ISZERO PUSH2 0x362C JUMPI RETURNDATASIZE PUSH1 0x0 DUP1 RETURNDATACOPY RETURNDATASIZE PUSH1 0x0 REVERT JUMPDEST POP POP POP POP PUSH1 0x40 MLOAD RETURNDATASIZE PUSH1 0x1F NOT PUSH1 0x1F DUP3 ADD AND DUP3 ADD DUP1 PUSH1 0x40 MSTORE POP DUP2 ADD SWAP1 PUSH2 0x3650 SWAP2 SWAP1 PUSH2 0x4E54 JUMP JUMPDEST LT PUSH2 0x365E JUMPI PUSH1 0x0 SWAP1 POP PUSH2 0x3737 JUMP JUMPDEST PUSH1 0xF PUSH1 0x0 SWAP1 SLOAD SWAP1 PUSH2 0x100 EXP SWAP1 DIV PUSH20 0xFFFFFFFFFFFFFFFFFFFFFFFFFFFFFFFFFFFFFFFF AND PUSH20 0xFFFFFFFFFFFFFFFFFFFFFFFFFFFFFFFFFFFFFFFF AND DUP3 PUSH20 0xFFFFFFFFFFFFFFFFFFFFFFFFFFFFFFFFFFFFFFFF AND EQ PUSH2 0x36EE JUMPI PUSH1 0x40 MLOAD PUSH32 0x8C379A000000000000000000000000000000000000000000000000000000000 DUP2 MSTORE PUSH1 0x4 ADD PUSH2 0x36E5 SWAP1 PUSH2 0x5F1E JUMP JUMPDEST PUSH1 0x40 MLOAD DUP1 SWAP2 SUB SWAP1 REVERT JUMPDEST DUP3 PUSH1 0xA SLOAD GT PUSH2 0x3732 JUMPI PUSH1 0x40 MLOAD PUSH32 0x8C379A000000000000000000000000000000000000000000000000000000000 DUP2 MSTORE PUSH1 0x4 ADD PUSH2 0x3729 SWAP1 PUSH2 0x5FBE JUMP JUMPDEST PUSH1 0x40 MLOAD DUP1 SWAP2 SUB SWAP1 REVERT JUMPDEST PUSH1 0x1 SWAP1 POP JUMPDEST SWAP3 SWAP2 POP POP JUMP JUMPDEST PUSH1 0x40 MLOAD DUP1 PUSH1 0xC0 ADD PUSH1 0x40 MSTORE DUP1 PUSH1 0x0 DUP2 MSTORE PUSH1 0x20 ADD PUSH1 0x60 DUP2 MSTORE PUSH1 0x20 ADD PUSH1 0x0 DUP2 MSTORE PUSH1 0x20 ADD PUSH1 0x0 DUP2 MSTORE PUSH1 0x20 ADD PUSH1 0x60 DUP2 MSTORE PUSH1 0x20 ADD PUSH1 0x0 ISZERO ISZERO DUP2 MSTORE POP SWAP1 JUMP JUMPDEST PUSH1 0x40 MLOAD DUP1 PUSH1 0x80 ADD PUSH1 0x40 MSTORE DUP1 PUSH1 0x0 DUP2 MSTORE PUSH1 0x20 ADD PUSH1 0x0 DUP2 MSTORE PUSH1 0x20 ADD PUSH1 0x0 DUP1 NOT AND DUP2 MSTORE PUSH1 0x20 ADD PUSH1 0x60 DUP2 MSTORE POP SWAP1 JUMP JUMPDEST PUSH1 0x40 MLOAD DUP1 PUSH2 0x200 ADD PUSH1 0x40 MSTORE DUP1 PUSH1 0x0 DUP2 MSTORE PUSH1 0x20 ADD PUSH1 0x60 DUP2 MSTORE PUSH1 0x20 ADD PUSH1 0x0 PUSH20 0xFFFFFFFFFFFFFFFFFFFFFFFFFFFFFFFFFFFFFFFF AND DUP2 MSTORE PUSH1 0x20 ADD PUSH1 0x0 PUSH20 0xFFFFFFFFFFFFFFFFFFFFFFFFFFFFFFFFFFFFFFFF AND DUP2 MSTORE PUSH1 0x20 ADD PUSH1 0x0 PUSH20 0xFFFFFFFFFFFFFFFFFFFFFFFFFFFFFFFFFFFFFFFF AND DUP2 MSTORE PUSH1 0x20 ADD PUSH1 0x0 PUSH1 0xFF AND DUP2 MSTORE PUSH1 0x20 ADD PUSH1 0x0 PUSH1 0xFF AND DUP2 MSTORE PUSH1 0x20 ADD PUSH2 0x382D PUSH2 0x3D68 JUMP JUMPDEST DUP2 MSTORE PUSH1 0x20 ADD PUSH1 0x0 PUSH20 0xFFFFFFFFFFFFFFFFFFFFFFFFFFFFFFFFFFFFFFFF AND DUP2 MSTORE PUSH1 0x20 ADD PUSH1 0x0 DUP2 MSTORE PUSH1 0x20 ADD PUSH1 0x0 DUP2 MSTORE PUSH1 0x20 ADD PUSH1 0x0 DUP2 MSTORE PUSH1 0x20 ADD PUSH1 0x0 DUP2 MSTORE PUSH1 0x20 ADD PUSH1 0x0 PUSH20 0xFFFFFFFFFFFFFFFFFFFFFFFFFFFFFFFFFFFFFFFF AND DUP2 MSTORE PUSH1 0x20 ADD PUSH1 0x60 DUP2 MSTORE PUSH1 0x20 ADD PUSH1 0x0 DUP2 MSTORE POP SWAP1 JUMP JUMPDEST PUSH1 0x40 MLOAD DUP1 PUSH2 0x1C0 ADD PUSH1 0x40 MSTORE DUP1 PUSH1 0x0 PUSH4 0xFFFFFFFF AND DUP2 MSTORE PUSH1 0x20 ADD PUSH1 0x0 PUSH4 0xFFFFFFFF AND DUP2 MSTORE PUSH1 0x20 ADD PUSH1 0x0 PUSH20 0xFFFFFFFFFFFFFFFFFFFFFFFFFFFFFFFFFFFFFFFF AND DUP2 MSTORE PUSH1 0x20 ADD PUSH1 0x0 PUSH4 0xFFFFFFFF AND DUP2 MSTORE PUSH1 0x20 ADD PUSH1 0x0 PUSH4 0xFFFFFFFF AND DUP2 MSTORE PUSH1 0x20 ADD PUSH1 0x0 PUSH20 0xFFFFFFFFFFFFFFFFFFFFFFFFFFFFFFFFFFFFFFFF AND DUP2 MSTORE PUSH1 0x20 ADD PUSH1 0x0 PUSH20 0xFFFFFFFFFFFFFFFFFFFFFFFFFFFFFFFFFFFFFFFF AND DUP2 MSTORE PUSH1 0x20 ADD PUSH1 0x0 PUSH1 0x3 SIGNEXTEND DUP2 MSTORE PUSH1 0x20 ADD PUSH1 0x60 DUP2 MSTORE PUSH1 0x20 ADD PUSH1 0x60 DUP2 MSTORE PUSH1 0x20 ADD PUSH1 0x0 DUP2 MSTORE PUSH1 0x20 ADD PUSH1 0x60 DUP2 MSTORE PUSH1 0x20 ADD PUSH1 0x0 PUSH20 0xFFFFFFFFFFFFFFFFFFFFFFFFFFFFFFFFFFFFFFFF AND DUP2 MSTORE PUSH1 0x20 ADD PUSH1 0x0 PUSH1 0x3 SIGNEXTEND DUP2 MSTORE POP SWAP1 JUMP JUMPDEST DUP3 DUP1 SLOAD DUP3 DUP3 SSTORE SWAP1 PUSH1 0x0 MSTORE PUSH1 0x20 PUSH1 0x0 KECCAK256 SWAP1 PUSH1 0x8 MUL DUP2 ADD SWAP3 DUP3 ISZERO PUSH2 0x3D33 JUMPI PUSH1 0x0 MSTORE PUSH1 0x20 PUSH1 0x0 KECCAK256 SWAP2 PUSH1 0x8 MUL DUP3 ADD JUMPDEST DUP3 DUP2 GT ISZERO PUSH2 0x3D32 JUMPI DUP3 DUP3 PUSH1 0x0 DUP3 ADD PUSH1 0x0 SWAP1 SLOAD SWAP1 PUSH2 0x100 EXP SWAP1 DIV PUSH4 0xFFFFFFFF AND DUP2 PUSH1 0x0 ADD PUSH1 0x0 PUSH2 0x100 EXP DUP2 SLOAD DUP2 PUSH4 0xFFFFFFFF MUL NOT AND SWAP1 DUP4 PUSH4 0xFFFFFFFF AND MUL OR SWAP1 SSTORE POP PUSH1 0x1 DUP3 ADD DUP2 PUSH1 0x1 ADD PUSH1 0x0 DUP3 ADD PUSH1 0x0 SWAP1 SLOAD SWAP1 PUSH2 0x100 EXP SWAP1 DIV PUSH20 0xFFFFFFFFFFFFFFFFFFFFFFFFFFFFFFFFFFFFFFFF AND DUP2 PUSH1 0x0 ADD PUSH1 0x0 PUSH2 0x100 EXP DUP2 SLOAD DUP2 PUSH20 0xFFFFFFFFFFFFFFFFFFFFFFFFFFFFFFFFFFFFFFFF MUL NOT AND SWAP1 DUP4 PUSH20 0xFFFFFFFFFFFFFFFFFFFFFFFFFFFFFFFFFFFFFFFF AND MUL OR SWAP1 SSTORE POP PUSH1 0x0 DUP3 ADD PUSH1 0x14 SWAP1 SLOAD SWAP1 PUSH2 0x100 EXP SWAP1 DIV PUSH8 0xFFFFFFFFFFFFFFFF AND DUP2 PUSH1 0x0 ADD PUSH1 0x14 PUSH2 0x100 EXP DUP2 SLOAD DUP2 PUSH8 0xFFFFFFFFFFFFFFFF MUL NOT AND SWAP1 DUP4 PUSH8 0xFFFFFFFFFFFFFFFF AND MUL OR SWAP1 SSTORE POP POP POP PUSH1 0x2 DUP3 ADD PUSH1 0x0 SWAP1 SLOAD SWAP1 PUSH2 0x100 EXP SWAP1 DIV PUSH4 0xFFFFFFFF AND DUP2 PUSH1 0x2 ADD PUSH1 0x0 PUSH2 0x100 EXP DUP2 SLOAD DUP2 PUSH4 0xFFFFFFFF MUL NOT AND SWAP1 DUP4 PUSH4 0xFFFFFFFF AND MUL OR SWAP1 SSTORE POP PUSH1 0x2 DUP3 ADD PUSH1 0x4 SWAP1 SLOAD SWAP1 PUSH2 0x100 EXP SWAP1 DIV PUSH20 0xFFFFFFFFFFFFFFFFFFFFFFFFFFFFFFFFFFFFFFFF AND DUP2 PUSH1 0x2 ADD PUSH1 0x4 PUSH2 0x100 EXP DUP2 SLOAD DUP2 PUSH20 0xFFFFFFFFFFFFFFFFFFFFFFFFFFFFFFFFFFFFFFFF MUL NOT AND SWAP1 DUP4 PUSH20 0xFFFFFFFFFFFFFFFFFFFFFFFFFFFFFFFFFFFFFFFF AND MUL OR SWAP1 SSTORE POP PUSH1 0x3 DUP3 ADD SLOAD DUP2 PUSH1 0x3 ADD SSTORE PUSH1 0x4 DUP3 ADD DUP2 PUSH1 0x4 ADD PUSH1 0x0 DUP3 ADD PUSH1 0x0 SWAP1 SLOAD SWAP1 PUSH2 0x100 EXP SWAP1 DIV PUSH4 0xFFFFFFFF AND DUP2 PUSH1 0x0 ADD PUSH1 0x0 PUSH2 0x100 EXP DUP2 SLOAD DUP2 PUSH4 0xFFFFFFFF MUL NOT AND SWAP1 DUP4 PUSH4 0xFFFFFFFF AND MUL OR SWAP1 SSTORE POP PUSH1 0x0 DUP3 ADD PUSH1 0x4 SWAP1 SLOAD SWAP1 PUSH2 0x100 EXP SWAP1 DIV PUSH20 0xFFFFFFFFFFFFFFFFFFFFFFFFFFFFFFFFFFFFFFFF AND DUP2 PUSH1 0x0 ADD PUSH1 0x4 PUSH2 0x100 EXP DUP2 SLOAD DUP2 PUSH20 0xFFFFFFFFFFFFFFFFFFFFFFFFFFFFFFFFFFFFFFFF MUL NOT AND SWAP1 DUP4 PUSH20 0xFFFFFFFFFFFFFFFFFFFFFFFFFFFFFFFFFFFFFFFF AND MUL OR SWAP1 SSTORE POP POP POP PUSH1 0x5 DUP3 ADD PUSH1 0x0 SWAP1 SLOAD SWAP1 PUSH2 0x100 EXP SWAP1 DIV PUSH20 0xFFFFFFFFFFFFFFFFFFFFFFFFFFFFFFFFFFFFFFFF AND DUP2 PUSH1 0x5 ADD PUSH1 0x0 PUSH2 0x100 EXP DUP2 SLOAD DUP2 PUSH20 0xFFFFFFFFFFFFFFFFFFFFFFFFFFFFFFFFFFFFFFFF MUL NOT AND SWAP1 DUP4 PUSH20 0xFFFFFFFFFFFFFFFFFFFFFFFFFFFFFFFFFFFFFFFF AND MUL OR SWAP1 SSTORE POP PUSH1 0x6 DUP3 ADD PUSH1 0x0 SWAP1 SLOAD SWAP1 PUSH2 0x100 EXP SWAP1 DIV PUSH20 0xFFFFFFFFFFFFFFFFFFFFFFFFFFFFFFFFFFFFFFFF AND DUP2 PUSH1 0x6 ADD PUSH1 0x0 PUSH2 0x100 EXP DUP2 SLOAD DUP2 PUSH20 0xFFFFFFFFFFFFFFFFFFFFFFFFFFFFFFFFFFFFFFFF MUL NOT AND SWAP1 DUP4 PUSH20 0xFFFFFFFFFFFFFFFFFFFFFFFFFFFFFFFFFFFFFFFF AND MUL OR SWAP1 SSTORE POP PUSH1 0x7 DUP3 ADD PUSH1 0x0 SWAP1 SLOAD SWAP1 PUSH2 0x100 EXP SWAP1 DIV PUSH20 0xFFFFFFFFFFFFFFFFFFFFFFFFFFFFFFFFFFFFFFFF AND DUP2 PUSH1 0x7 ADD PUSH1 0x0 PUSH2 0x100 EXP DUP2 SLOAD DUP2 PUSH20 0xFFFFFFFFFFFFFFFFFFFFFFFFFFFFFFFFFFFFFFFF MUL NOT AND SWAP1 DUP4 PUSH20 0xFFFFFFFFFFFFFFFFFFFFFFFFFFFFFFFFFFFFFFFF AND MUL OR SWAP1 SSTORE POP POP POP SWAP2 PUSH1 0x8 ADD SWAP2 SWAP1 PUSH1 0x8 ADD SWAP1 PUSH2 0x39A7 JUMP JUMPDEST JUMPDEST POP SWAP1 POP PUSH2 0x3D40 SWAP2 SWAP1 PUSH2 0x3D9E JUMP JUMPDEST POP SWAP1 JUMP JUMPDEST POP DUP1 SLOAD PUSH1 0x0 DUP3 SSTORE PUSH1 0x8 MUL SWAP1 PUSH1 0x0 MSTORE PUSH1 0x20 PUSH1 0x0 KECCAK256 SWAP1 DUP2 ADD SWAP1 PUSH2 0x3D65 SWAP2 SWAP1 PUSH2 0x3D9E JUMP JUMPDEST POP JUMP JUMPDEST PUSH1 0x40 MLOAD DUP1 PUSH1 0x40 ADD PUSH1 0x40 MSTORE DUP1 PUSH1 0x0 PUSH4 0xFFFFFFFF AND DUP2 MSTORE PUSH1 0x20 ADD PUSH1 0x0 PUSH20 0xFFFFFFFFFFFFFFFFFFFFFFFFFFFFFFFFFFFFFFFF AND DUP2 MSTORE POP SWAP1 JUMP JUMPDEST JUMPDEST DUP1 DUP3 GT ISZERO PUSH2 0x3F11 JUMPI PUSH1 0x0 DUP1 DUP3 ADD PUSH1 0x0 PUSH2 0x100 EXP DUP2 SLOAD SWAP1 PUSH4 0xFFFFFFFF MUL NOT AND SWAP1 SSTORE PUSH1 0x1 DUP3 ADD PUSH1 0x0 DUP1 DUP3 ADD PUSH1 0x0 PUSH2 0x100 EXP DUP2 SLOAD SWAP1 PUSH20 0xFFFFFFFFFFFFFFFFFFFFFFFFFFFFFFFFFFFFFFFF MUL NOT AND SWAP1 SSTORE PUSH1 0x0 DUP3 ADD PUSH1 0x14 PUSH2 0x100 EXP DUP2 SLOAD SWAP1 PUSH8 0xFFFFFFFFFFFFFFFF MUL NOT AND SWAP1 SSTORE POP POP PUSH1 0x2 DUP3 ADD PUSH1 0x0 PUSH2 0x100 EXP DUP2 SLOAD SWAP1 PUSH4 0xFFFFFFFF MUL NOT AND SWAP1 SSTORE PUSH1 0x2 DUP3 ADD PUSH1 0x4 PUSH2 0x100 EXP DUP2 SLOAD SWAP1 PUSH20 0xFFFFFFFFFFFFFFFFFFFFFFFFFFFFFFFFFFFFFFFF MUL NOT AND SWAP1 SSTORE PUSH1 0x3 DUP3 ADD PUSH1 0x0 SWAP1 SSTORE PUSH1 0x4 DUP3 ADD PUSH1 0x0 DUP1 DUP3 ADD PUSH1 0x0 PUSH2 0x100 EXP DUP2 SLOAD SWAP1 PUSH4 0xFFFFFFFF MUL NOT AND SWAP1 SSTORE PUSH1 0x0 DUP3 ADD PUSH1 0x4 PUSH2 0x100 EXP DUP2 SLOAD SWAP1 PUSH20 0xFFFFFFFFFFFFFFFFFFFFFFFFFFFFFFFFFFFFFFFF MUL NOT AND SWAP1 SSTORE POP POP PUSH1 0x5 DUP3 ADD PUSH1 0x0 PUSH2 0x100 EXP DUP2 SLOAD SWAP1 PUSH20 0xFFFFFFFFFFFFFFFFFFFFFFFFFFFFFFFFFFFFFFFF MUL NOT AND SWAP1 SSTORE PUSH1 0x6 DUP3 ADD PUSH1 0x0 PUSH2 0x100 EXP DUP2 SLOAD SWAP1 PUSH20 0xFFFFFFFFFFFFFFFFFFFFFFFFFFFFFFFFFFFFFFFF MUL NOT AND SWAP1 SSTORE PUSH1 0x7 DUP3 ADD PUSH1 0x0 PUSH2 0x100 EXP DUP2 SLOAD SWAP1 PUSH20 0xFFFFFFFFFFFFFFFFFFFFFFFFFFFFFFFFFFFFFFFF MUL NOT AND SWAP1 SSTORE POP PUSH1 0x8 ADD PUSH2 0x3D9F JUMP JUMPDEST POP SWAP1 JUMP JUMPDEST PUSH1 0x0 PUSH2 0x3F28 PUSH2 0x3F23 DUP5 PUSH2 0x6285 JUMP JUMPDEST PUSH2 0x6254 JUMP JUMPDEST SWAP1 POP DUP1 DUP4 DUP3 MSTORE PUSH1 0x20 DUP3 ADD SWAP1 POP DUP3 DUP6 PUSH1 0x20 DUP7 MUL DUP3 ADD GT ISZERO PUSH2 0x3F47 JUMPI PUSH1 0x0 DUP1 REVERT JUMPDEST PUSH1 0x0 JUMPDEST DUP6 DUP2 LT ISZERO PUSH2 0x3F77 JUMPI DUP2 PUSH2 0x3F5D DUP9 DUP3 PUSH2 0x428D JUMP JUMPDEST DUP5 MSTORE PUSH1 0x20 DUP5 ADD SWAP4 POP PUSH1 0x20 DUP4 ADD SWAP3 POP POP PUSH1 0x1 DUP2 ADD SWAP1 POP PUSH2 0x3F4A JUMP JUMPDEST POP POP POP SWAP4 SWAP3 POP POP POP JUMP JUMPDEST PUSH1 0x0 PUSH2 0x3F94 PUSH2 0x3F8F DUP5 PUSH2 0x62B1 JUMP JUMPDEST PUSH2 0x6254 JUMP JUMPDEST SWAP1 POP DUP1 DUP4 DUP3 MSTORE PUSH1 0x20 DUP3 ADD SWAP1 POP DUP3 DUP6 PUSH1 0x20 DUP7 MUL DUP3 ADD GT ISZERO PUSH2 0x3FB3 JUMPI PUSH1 0x0 DUP1 REVERT JUMPDEST PUSH1 0x0 JUMPDEST DUP6 DUP2 LT ISZERO PUSH2 0x3FE3 JUMPI DUP2 PUSH2 0x3FC9 DUP9 DUP3 PUSH2 0x43DD JUMP JUMPDEST DUP5 MSTORE PUSH1 0x20 DUP5 ADD SWAP4 POP PUSH1 0x20 DUP4 ADD SWAP3 POP POP PUSH1 0x1 DUP2 ADD SWAP1 POP PUSH2 0x3FB6 JUMP JUMPDEST POP POP POP SWAP4 SWAP3 POP POP POP JUMP JUMPDEST PUSH1 0x0 PUSH2 0x4000 PUSH2 0x3FFB DUP5 PUSH2 0x62DD JUMP JUMPDEST PUSH2 0x6254 JUMP JUMPDEST SWAP1 POP DUP1 DUP4 DUP3 MSTORE PUSH1 0x20 DUP3 ADD SWAP1 POP DUP3 DUP6 PUSH1 0x40 DUP7 MUL DUP3 ADD GT ISZERO PUSH2 0x401F JUMPI PUSH1 0x0 DUP1 REVERT JUMPDEST PUSH1 0x0 JUMPDEST DUP6 DUP2 LT ISZERO PUSH2 0x404F JUMPI DUP2 PUSH2 0x4035 DUP9 DUP3 PUSH2 0x4794 JUMP JUMPDEST DUP5 MSTORE PUSH1 0x20 DUP5 ADD SWAP4 POP PUSH1 0x40 DUP4 ADD SWAP3 POP POP PUSH1 0x1 DUP2 ADD SWAP1 POP PUSH2 0x4022 JUMP JUMPDEST POP POP POP SWAP4 SWAP3 POP POP POP JUMP JUMPDEST PUSH1 0x0 PUSH2 0x406C PUSH2 0x4067 DUP5 PUSH2 0x62DD JUMP JUMPDEST PUSH2 0x6254 JUMP JUMPDEST SWAP1 POP DUP1 DUP4 DUP3 MSTORE PUSH1 0x20 DUP3 ADD SWAP1 POP DUP3 DUP6 PUSH1 0x40 DUP7 MUL DUP3 ADD GT ISZERO PUSH2 0x408B JUMPI PUSH1 0x0 DUP1 REVERT JUMPDEST PUSH1 0x0 JUMPDEST DUP6 DUP2 LT ISZERO PUSH2 0x40BB JUMPI DUP2 PUSH2 0x40A1 DUP9 DUP3 PUSH2 0x47E0 JUMP JUMPDEST DUP5 MSTORE PUSH1 0x20 DUP5 ADD SWAP4 POP PUSH1 0x40 DUP4 ADD SWAP3 POP POP PUSH1 0x1 DUP2 ADD SWAP1 POP PUSH2 0x408E JUMP JUMPDEST POP POP POP SWAP4 SWAP3 POP POP POP JUMP JUMPDEST PUSH1 0x0 PUSH2 0x40D8 PUSH2 0x40D3 DUP5 PUSH2 0x6309 JUMP JUMPDEST PUSH2 0x6254 JUMP JUMPDEST SWAP1 POP DUP1 DUP4 DUP3 MSTORE PUSH1 0x20 DUP3 ADD SWAP1 POP DUP3 PUSH1 0x0 JUMPDEST DUP6 DUP2 LT ISZERO PUSH2 0x4118 JUMPI DUP2 CALLDATALOAD DUP6 ADD PUSH2 0x40FE DUP9 DUP3 PUSH2 0x482C JUMP JUMPDEST DUP5 MSTORE PUSH1 0x20 DUP5 ADD SWAP4 POP PUSH1 0x20 DUP4 ADD SWAP3 POP POP PUSH1 0x1 DUP2 ADD SWAP1 POP PUSH2 0x40E8 JUMP JUMPDEST POP POP POP SWAP4 SWAP3 POP POP POP JUMP JUMPDEST PUSH1 0x0 PUSH2 0x4135 PUSH2 0x4130 DUP5 PUSH2 0x6335 JUMP JUMPDEST PUSH2 0x6254 JUMP JUMPDEST SWAP1 POP DUP1 DUP4 DUP3 MSTORE PUSH1 0x20 DUP3 ADD SWAP1 POP DUP3 DUP6 PUSH2 0x160 DUP7 MUL DUP3 ADD GT ISZERO PUSH2 0x4155 JUMPI PUSH1 0x0 DUP1 REVERT JUMPDEST PUSH1 0x0 JUMPDEST DUP6 DUP2 LT ISZERO PUSH2 0x4186 JUMPI DUP2 PUSH2 0x416B DUP9 DUP3 PUSH2 0x4910 JUMP JUMPDEST DUP5 MSTORE PUSH1 0x20 DUP5 ADD SWAP4 POP PUSH2 0x160 DUP4 ADD SWAP3 POP POP PUSH1 0x1 DUP2 ADD SWAP1 POP PUSH2 0x4158 JUMP JUMPDEST POP POP POP SWAP4 SWAP3 POP POP POP JUMP JUMPDEST PUSH1 0x0 PUSH2 0x41A3 PUSH2 0x419E DUP5 PUSH2 0x6361 JUMP JUMPDEST PUSH2 0x6254 JUMP JUMPDEST SWAP1 POP DUP1 DUP4 DUP3 MSTORE PUSH1 0x20 DUP3 ADD SWAP1 POP DUP3 DUP6 PUSH1 0x20 DUP7 MUL DUP3 ADD GT ISZERO PUSH2 0x41C2 JUMPI PUSH1 0x0 DUP1 REVERT JUMPDEST PUSH1 0x0 JUMPDEST DUP6 DUP2 LT ISZERO PUSH2 0x41F2 JUMPI DUP2 PUSH2 0x41D8 DUP9 DUP3 PUSH2 0x4AE2 JUMP JUMPDEST DUP5 MSTORE PUSH1 0x20 DUP5 ADD SWAP4 POP PUSH1 0x20 DUP4 ADD SWAP3 POP POP PUSH1 0x1 DUP2 ADD SWAP1 POP PUSH2 0x41C5 JUMP JUMPDEST POP POP POP SWAP4 SWAP3 POP POP POP JUMP JUMPDEST PUSH1 0x0 PUSH2 0x420F PUSH2 0x420A DUP5 PUSH2 0x638D JUMP JUMPDEST PUSH2 0x6254 JUMP JUMPDEST SWAP1 POP DUP3 DUP2 MSTORE PUSH1 0x20 DUP2 ADD DUP5 DUP5 DUP5 ADD GT ISZERO PUSH2 0x4227 JUMPI PUSH1 0x0 DUP1 REVERT JUMPDEST PUSH2 0x4232 DUP5 DUP3 DUP6 PUSH2 0x669F JUMP JUMPDEST POP SWAP4 SWAP3 POP POP POP JUMP JUMPDEST PUSH1 0x0 PUSH2 0x424D PUSH2 0x4248 DUP5 PUSH2 0x63BD JUMP JUMPDEST PUSH2 0x6254 JUMP JUMPDEST SWAP1 POP DUP3 DUP2 MSTORE PUSH1 0x20 DUP2 ADD DUP5 DUP5 DUP5 ADD GT ISZERO PUSH2 0x4265 JUMPI PUSH1 0x0 DUP1 REVERT JUMPDEST PUSH2 0x4270 DUP5 DUP3 DUP6 PUSH2 0x669F JUMP JUMPDEST POP SWAP4 SWAP3 POP POP POP JUMP JUMPDEST PUSH1 0x0 DUP2 CALLDATALOAD SWAP1 POP PUSH2 0x4287 DUP2 PUSH2 0x678E JUMP JUMPDEST SWAP3 SWAP2 POP POP JUMP JUMPDEST PUSH1 0x0 DUP2 MLOAD SWAP1 POP PUSH2 0x429C DUP2 PUSH2 0x678E JUMP JUMPDEST SWAP3 SWAP2 POP POP JUMP JUMPDEST PUSH1 0x0 DUP3 PUSH1 0x1F DUP4 ADD SLT PUSH2 0x42B3 JUMPI PUSH1 0x0 DUP1 REVERT JUMPDEST DUP2 MLOAD PUSH2 0x42C3 DUP5 DUP3 PUSH1 0x20 DUP7 ADD PUSH2 0x3F15 JUMP JUMPDEST SWAP2 POP POP SWAP3 SWAP2 POP POP JUMP JUMPDEST PUSH1 0x0 DUP3 PUSH1 0x1F DUP4 ADD SLT PUSH2 0x42DD JUMPI PUSH1 0x0 DUP1 REVERT JUMPDEST DUP2 CALLDATALOAD PUSH2 0x42ED DUP5 DUP3 PUSH1 0x20 DUP7 ADD PUSH2 0x3F81 JUMP JUMPDEST SWAP2 POP POP SWAP3 SWAP2 POP POP JUMP JUMPDEST PUSH1 0x0 DUP3 PUSH1 0x1F DUP4 ADD SLT PUSH2 0x4307 JUMPI PUSH1 0x0 DUP1 REVERT JUMPDEST DUP2 CALLDATALOAD PUSH2 0x4317 DUP5 DUP3 PUSH1 0x20 DUP7 ADD PUSH2 0x3FED JUMP JUMPDEST SWAP2 POP POP SWAP3 SWAP2 POP POP JUMP JUMPDEST PUSH1 0x0 DUP3 PUSH1 0x1F DUP4 ADD SLT PUSH2 0x4331 JUMPI PUSH1 0x0 DUP1 REVERT JUMPDEST DUP2 MLOAD PUSH2 0x4341 DUP5 DUP3 PUSH1 0x20 DUP7 ADD PUSH2 0x4059 JUMP JUMPDEST SWAP2 POP POP SWAP3 SWAP2 POP POP JUMP JUMPDEST PUSH1 0x0 DUP3 PUSH1 0x1F DUP4 ADD SLT PUSH2 0x435B JUMPI PUSH1 0x0 DUP1 REVERT JUMPDEST DUP2 CALLDATALOAD PUSH2 0x436B DUP5 DUP3 PUSH1 0x20 DUP7 ADD PUSH2 0x40C5 JUMP JUMPDEST SWAP2 POP POP SWAP3 SWAP2 POP POP JUMP JUMPDEST PUSH1 0x0 DUP3 PUSH1 0x1F DUP4 ADD SLT PUSH2 0x4385 JUMPI PUSH1 0x0 DUP1 REVERT JUMPDEST DUP2 CALLDATALOAD PUSH2 0x4395 DUP5 DUP3 PUSH1 0x20 DUP7 ADD PUSH2 0x4122 JUMP JUMPDEST SWAP2 POP POP SWAP3 SWAP2 POP POP JUMP JUMPDEST PUSH1 0x0 DUP3 PUSH1 0x1F DUP4 ADD SLT PUSH2 0x43AF JUMPI PUSH1 0x0 DUP1 REVERT JUMPDEST DUP2 CALLDATALOAD PUSH2 0x43BF DUP5 DUP3 PUSH1 0x20 DUP7 ADD PUSH2 0x4190 JUMP JUMPDEST SWAP2 POP POP SWAP3 SWAP2 POP POP JUMP JUMPDEST PUSH1 0x0 DUP2 MLOAD SWAP1 POP PUSH2 0x43D7 DUP2 PUSH2 0x67A5 JUMP JUMPDEST SWAP3 SWAP2 POP POP JUMP JUMPDEST PUSH1 0x0 DUP2 CALLDATALOAD SWAP1 POP PUSH2 0x43EC DUP2 PUSH2 0x67BC JUMP JUMPDEST SWAP3 SWAP2 POP POP JUMP JUMPDEST PUSH1 0x0 DUP3 PUSH1 0x1F DUP4 ADD SLT PUSH2 0x4403 JUMPI PUSH1 0x0 DUP1 REVERT JUMPDEST DUP2 MLOAD PUSH2 0x4413 DUP5 DUP3 PUSH1 0x20 DUP7 ADD PUSH2 0x41FC JUMP JUMPDEST SWAP2 POP POP SWAP3 SWAP2 POP POP JUMP JUMPDEST PUSH1 0x0 DUP2 CALLDATALOAD SWAP1 POP PUSH2 0x442B DUP2 PUSH2 0x67D3 JUMP JUMPDEST SWAP3 SWAP2 POP POP JUMP JUMPDEST PUSH1 0x0 DUP2 MLOAD SWAP1 POP PUSH2 0x4440 DUP2 PUSH2 0x67D3 JUMP JUMPDEST SWAP3 SWAP2 POP POP JUMP JUMPDEST PUSH1 0x0 DUP3 PUSH1 0x1F DUP4 ADD SLT PUSH2 0x4457 JUMPI PUSH1 0x0 DUP1 REVERT JUMPDEST DUP2 MLOAD PUSH2 0x4467 DUP5 DUP3 PUSH1 0x20 DUP7 ADD PUSH2 0x423A JUMP JUMPDEST SWAP2 POP POP SWAP3 SWAP2 POP POP JUMP JUMPDEST PUSH1 0x0 PUSH2 0x1C0 DUP3 DUP5 SUB SLT ISZERO PUSH2 0x4483 JUMPI PUSH1 0x0 DUP1 REVERT JUMPDEST PUSH2 0x448E PUSH2 0x1C0 PUSH2 0x6254 JUMP JUMPDEST SWAP1 POP PUSH1 0x0 PUSH2 0x449E DUP5 DUP3 DUP6 ADD PUSH2 0x4A8E JUMP JUMPDEST PUSH1 0x0 DUP4 ADD MSTORE POP PUSH1 0x20 PUSH2 0x44B2 DUP5 DUP3 DUP6 ADD PUSH2 0x4A8E JUMP JUMPDEST PUSH1 0x20 DUP4 ADD MSTORE POP PUSH1 0x40 PUSH2 0x44C6 DUP5 DUP3 DUP6 ADD PUSH2 0x4A3A JUMP JUMPDEST PUSH1 0x40 DUP4 ADD MSTORE POP PUSH1 0x60 PUSH2 0x44DA DUP5 DUP3 DUP6 ADD PUSH2 0x4A8E JUMP JUMPDEST PUSH1 0x60 DUP4 ADD MSTORE POP PUSH1 0x80 PUSH2 0x44EE DUP5 DUP3 DUP6 ADD PUSH2 0x4A8E JUMP JUMPDEST PUSH1 0x80 DUP4 ADD MSTORE POP PUSH1 0xA0 PUSH2 0x4502 DUP5 DUP3 DUP6 ADD PUSH2 0x4A3A JUMP JUMPDEST PUSH1 0xA0 DUP4 ADD MSTORE POP PUSH1 0xC0 PUSH2 0x4516 DUP5 DUP3 DUP6 ADD PUSH2 0x4A3A JUMP JUMPDEST PUSH1 0xC0 DUP4 ADD MSTORE POP PUSH1 0xE0 PUSH2 0x452A DUP5 DUP3 DUP6 ADD PUSH2 0x441C JUMP JUMPDEST PUSH1 0xE0 DUP4 ADD MSTORE POP PUSH2 0x100 DUP3 ADD CALLDATALOAD PUSH8 0xFFFFFFFFFFFFFFFF DUP2 GT ISZERO PUSH2 0x454B JUMPI PUSH1 0x0 DUP1 REVERT JUMPDEST PUSH2 0x4557 DUP5 DUP3 DUP6 ADD PUSH2 0x42F6 JUMP JUMPDEST PUSH2 0x100 DUP4 ADD MSTORE POP PUSH2 0x120 DUP3 ADD CALLDATALOAD PUSH8 0xFFFFFFFFFFFFFFFF DUP2 GT ISZERO PUSH2 0x4579 JUMPI PUSH1 0x0 DUP1 REVERT JUMPDEST PUSH2 0x4585 DUP5 DUP3 DUP6 ADD PUSH2 0x42F6 JUMP JUMPDEST PUSH2 0x120 DUP4 ADD MSTORE POP PUSH2 0x140 PUSH2 0x459B DUP5 DUP3 DUP6 ADD PUSH2 0x4A64 JUMP JUMPDEST PUSH2 0x140 DUP4 ADD MSTORE POP PUSH2 0x160 DUP3 ADD CALLDATALOAD PUSH8 0xFFFFFFFFFFFFFFFF DUP2 GT ISZERO PUSH2 0x45BD JUMPI PUSH1 0x0 DUP1 REVERT JUMPDEST PUSH2 0x45C9 DUP5 DUP3 DUP6 ADD PUSH2 0x42F6 JUMP JUMPDEST PUSH2 0x160 DUP4 ADD MSTORE POP PUSH2 0x180 PUSH2 0x45DF DUP5 DUP3 DUP6 ADD PUSH2 0x4278 JUMP JUMPDEST PUSH2 0x180 DUP4 ADD MSTORE POP PUSH2 0x1A0 PUSH2 0x45F5 DUP5 DUP3 DUP6 ADD PUSH2 0x441C JUMP JUMPDEST PUSH2 0x1A0 DUP4 ADD MSTORE POP SWAP3 SWAP2 POP POP JUMP JUMPDEST PUSH1 0x0 PUSH2 0x1C0 DUP3 DUP5 SUB SLT ISZERO PUSH2 0x4615 JUMPI PUSH1 0x0 DUP1 REVERT JUMPDEST PUSH2 0x4620 PUSH2 0x1C0 PUSH2 0x6254 JUMP JUMPDEST SWAP1 POP PUSH1 0x0 PUSH2 0x4630 DUP5 DUP3 DUP6 ADD PUSH2 0x4AA3 JUMP JUMPDEST PUSH1 0x0 DUP4 ADD MSTORE POP PUSH1 0x20 PUSH2 0x4644 DUP5 DUP3 DUP6 ADD PUSH2 0x4AA3 JUMP JUMPDEST PUSH1 0x20 DUP4 ADD MSTORE POP PUSH1 0x40 PUSH2 0x4658 DUP5 DUP3 DUP6 ADD PUSH2 0x4A4F JUMP JUMPDEST PUSH1 0x40 DUP4 ADD MSTORE POP PUSH1 0x60 PUSH2 0x466C DUP5 DUP3 DUP6 ADD PUSH2 0x4AA3 JUMP JUMPDEST PUSH1 0x60 DUP4 ADD MSTORE POP PUSH1 0x80 PUSH2 0x4680 DUP5 DUP3 DUP6 ADD PUSH2 0x4AA3 JUMP JUMPDEST PUSH1 0x80 DUP4 ADD MSTORE POP PUSH1 0xA0 PUSH2 0x4694 DUP5 DUP3 DUP6 ADD PUSH2 0x4A4F JUMP JUMPDEST PUSH1 0xA0 DUP4 ADD MSTORE POP PUSH1 0xC0 PUSH2 0x46A8 DUP5 DUP3 DUP6 ADD PUSH2 0x4A4F JUMP JUMPDEST PUSH1 0xC0 DUP4 ADD MSTORE POP PUSH1 0xE0 PUSH2 0x46BC DUP5 DUP3 DUP6 ADD PUSH2 0x4431 JUMP JUMPDEST PUSH1 0xE0 DUP4 ADD MSTORE POP PUSH2 0x100 DUP3 ADD MLOAD PUSH8 0xFFFFFFFFFFFFFFFF DUP2 GT ISZERO PUSH2 0x46DD JUMPI PUSH1 0x0 DUP1 REVERT JUMPDEST PUSH2 0x46E9 DUP5 DUP3 DUP6 ADD PUSH2 0x4320 JUMP JUMPDEST PUSH2 0x100 DUP4 ADD MSTORE POP PUSH2 0x120 DUP3 ADD MLOAD PUSH8 0xFFFFFFFFFFFFFFFF DUP2 GT ISZERO PUSH2 0x470B JUMPI PUSH1 0x0 DUP1 REVERT JUMPDEST PUSH2 0x4717 DUP5 DUP3 DUP6 ADD PUSH2 0x4320 JUMP JUMPDEST PUSH2 0x120 DUP4 ADD MSTORE POP PUSH2 0x140 PUSH2 0x472D DUP5 DUP3 DUP6 ADD PUSH2 0x4A79 JUMP JUMPDEST PUSH2 0x140 DUP4 ADD MSTORE POP PUSH2 0x160 DUP3 ADD MLOAD PUSH8 0xFFFFFFFFFFFFFFFF DUP2 GT ISZERO PUSH2 0x474F JUMPI PUSH1 0x0 DUP1 REVERT JUMPDEST PUSH2 0x475B DUP5 DUP3 DUP6 ADD PUSH2 0x4320 JUMP JUMPDEST PUSH2 0x160 DUP4 ADD MSTORE POP PUSH2 0x180 PUSH2 0x4771 DUP5 DUP3 DUP6 ADD PUSH2 0x428D JUMP JUMPDEST PUSH2 0x180 DUP4 ADD MSTORE POP PUSH2 0x1A0 PUSH2 0x4787 DUP5 DUP3 DUP6 ADD PUSH2 0x4431 JUMP JUMPDEST PUSH2 0x1A0 DUP4 ADD MSTORE POP SWAP3 SWAP2 POP POP JUMP JUMPDEST PUSH1 0x0 PUSH1 0x40 DUP3 DUP5 SUB SLT ISZERO PUSH2 0x47A6 JUMPI PUSH1 0x0 DUP1 REVERT JUMPDEST PUSH2 0x47B0 PUSH1 0x40 PUSH2 0x6254 JUMP JUMPDEST SWAP1 POP PUSH1 0x0 PUSH2 0x47C0 DUP5 DUP3 DUP6 ADD PUSH2 0x4A3A JUMP JUMPDEST PUSH1 0x0 DUP4 ADD MSTORE POP PUSH1 0x20 PUSH2 0x47D4 DUP5 DUP3 DUP6 ADD PUSH2 0x4AB8 JUMP JUMPDEST PUSH1 0x20 DUP4 ADD MSTORE POP SWAP3 SWAP2 POP POP JUMP JUMPDEST PUSH1 0x0 PUSH1 0x40 DUP3 DUP5 SUB SLT ISZERO PUSH2 0x47F2 JUMPI PUSH1 0x0 DUP1 REVERT JUMPDEST PUSH2 0x47FC PUSH1 0x40 PUSH2 0x6254 JUMP JUMPDEST SWAP1 POP PUSH1 0x0 PUSH2 0x480C DUP5 DUP3 DUP6 ADD PUSH2 0x4A4F JUMP JUMPDEST PUSH1 0x0 DUP4 ADD MSTORE POP PUSH1 0x20 PUSH2 0x4820 DUP5 DUP3 DUP6 ADD PUSH2 0x4ACD JUMP JUMPDEST PUSH1 0x20 DUP4 ADD MSTORE POP SWAP3 SWAP2 POP POP JUMP JUMPDEST PUSH1 0x0 PUSH1 0xC0 DUP3 DUP5 SUB SLT ISZERO PUSH2 0x483E JUMPI PUSH1 0x0 DUP1 REVERT JUMPDEST PUSH2 0x4848 PUSH1 0xC0 PUSH2 0x6254 JUMP JUMPDEST SWAP1 POP PUSH1 0x0 PUSH2 0x4858 DUP5 DUP3 DUP6 ADD PUSH2 0x4A64 JUMP JUMPDEST PUSH1 0x0 DUP4 ADD MSTORE POP PUSH1 0x20 PUSH2 0x486C DUP5 DUP3 DUP6 ADD PUSH2 0x43DD JUMP JUMPDEST PUSH1 0x20 DUP4 ADD MSTORE POP PUSH1 0x40 PUSH2 0x4880 DUP5 DUP3 DUP6 ADD PUSH2 0x4A64 JUMP JUMPDEST PUSH1 0x40 DUP4 ADD MSTORE POP PUSH1 0x60 DUP3 ADD CALLDATALOAD PUSH8 0xFFFFFFFFFFFFFFFF DUP2 GT ISZERO PUSH2 0x48A0 JUMPI PUSH1 0x0 DUP1 REVERT JUMPDEST PUSH2 0x48AC DUP5 DUP3 DUP6 ADD PUSH2 0x4470 JUMP JUMPDEST PUSH1 0x60 DUP4 ADD MSTORE POP PUSH1 0x80 DUP3 ADD CALLDATALOAD PUSH8 0xFFFFFFFFFFFFFFFF DUP2 GT ISZERO PUSH2 0x48CC JUMPI PUSH1 0x0 DUP1 REVERT JUMPDEST PUSH2 0x48D8 DUP5 DUP3 DUP6 ADD PUSH2 0x42CC JUMP JUMPDEST PUSH1 0x80 DUP4 ADD MSTORE POP PUSH1 0xA0 DUP3 ADD CALLDATALOAD PUSH8 0xFFFFFFFFFFFFFFFF DUP2 GT ISZERO PUSH2 0x48F8 JUMPI PUSH1 0x0 DUP1 REVERT JUMPDEST PUSH2 0x4904 DUP5 DUP3 DUP6 ADD PUSH2 0x4374 JUMP JUMPDEST PUSH1 0xA0 DUP4 ADD MSTORE POP SWAP3 SWAP2 POP POP JUMP JUMPDEST PUSH1 0x0 PUSH2 0x160 DUP3 DUP5 SUB SLT ISZERO PUSH2 0x4923 JUMPI PUSH1 0x0 DUP1 REVERT JUMPDEST PUSH2 0x492E PUSH2 0x120 PUSH2 0x6254 JUMP JUMPDEST SWAP1 POP PUSH1 0x0 PUSH2 0x493E DUP5 DUP3 DUP6 ADD PUSH2 0x4A8E JUMP JUMPDEST PUSH1 0x0 DUP4 ADD MSTORE POP PUSH1 0x20 PUSH2 0x4952 DUP5 DUP3 DUP6 ADD PUSH2 0x4794 JUMP JUMPDEST PUSH1 0x20 DUP4 ADD MSTORE POP PUSH1 0x60 PUSH2 0x4966 DUP5 DUP3 DUP6 ADD PUSH2 0x4A8E JUMP JUMPDEST PUSH1 0x40 DUP4 ADD MSTORE POP PUSH1 0x80 PUSH2 0x497A DUP5 DUP3 DUP6 ADD PUSH2 0x4A3A JUMP JUMPDEST PUSH1 0x60 DUP4 ADD MSTORE POP PUSH1 0xA0 PUSH2 0x498E DUP5 DUP3 DUP6 ADD PUSH2 0x4A64 JUMP JUMPDEST PUSH1 0x80 DUP4 ADD MSTORE POP PUSH1 0xC0 PUSH2 0x49A2 DUP5 DUP3 DUP6 ADD PUSH2 0x49EE JUMP JUMPDEST PUSH1 0xA0 DUP4 ADD MSTORE POP PUSH2 0x100 PUSH2 0x49B7 DUP5 DUP3 DUP6 ADD PUSH2 0x4A3A JUMP JUMPDEST PUSH1 0xC0 DUP4 ADD MSTORE POP PUSH2 0x120 PUSH2 0x49CC DUP5 DUP3 DUP6 ADD PUSH2 0x4A3A JUMP JUMPDEST PUSH1 0xE0 DUP4 ADD MSTORE POP PUSH2 0x140 PUSH2 0x49E1 DUP5 DUP3 DUP6 ADD PUSH2 0x4A3A JUMP JUMPDEST PUSH2 0x100 DUP4 ADD MSTORE POP SWAP3 SWAP2 POP POP JUMP JUMPDEST PUSH1 0x0 PUSH1 0x40 DUP3 DUP5 SUB SLT ISZERO PUSH2 0x4A00 JUMPI PUSH1 0x0 DUP1 REVERT JUMPDEST PUSH2 0x4A0A PUSH1 0x40 PUSH2 0x6254 JUMP JUMPDEST SWAP1 POP PUSH1 0x0 PUSH2 0x4A1A DUP5 DUP3 DUP6 ADD PUSH2 0x4A8E JUMP JUMPDEST PUSH1 0x0 DUP4 ADD MSTORE POP PUSH1 0x20 PUSH2 0x4A2E DUP5 DUP3 DUP6 ADD PUSH2 0x4A3A JUMP JUMPDEST PUSH1 0x20 DUP4 ADD MSTORE POP SWAP3 SWAP2 POP POP JUMP JUMPDEST PUSH1 0x0 DUP2 CALLDATALOAD SWAP1 POP PUSH2 0x4A49 DUP2 PUSH2 0x67EA JUMP JUMPDEST SWAP3 SWAP2 POP POP JUMP JUMPDEST PUSH1 0x0 DUP2 MLOAD SWAP1 POP PUSH2 0x4A5E DUP2 PUSH2 0x67EA JUMP JUMPDEST SWAP3 SWAP2 POP POP JUMP JUMPDEST PUSH1 0x0 DUP2 CALLDATALOAD SWAP1 POP PUSH2 0x4A73 DUP2 PUSH2 0x6801 JUMP JUMPDEST SWAP3 SWAP2 POP POP JUMP JUMPDEST PUSH1 0x0 DUP2 MLOAD SWAP1 POP PUSH2 0x4A88 DUP2 PUSH2 0x6801 JUMP JUMPDEST SWAP3 SWAP2 POP POP JUMP JUMPDEST PUSH1 0x0 DUP2 CALLDATALOAD SWAP1 POP PUSH2 0x4A9D DUP2 PUSH2 0x6818 JUMP JUMPDEST SWAP3 SWAP2 POP POP JUMP JUMPDEST PUSH1 0x0 DUP2 MLOAD SWAP1 POP PUSH2 0x4AB2 DUP2 PUSH2 0x6818 JUMP JUMPDEST SWAP3 SWAP2 POP POP JUMP JUMPDEST PUSH1 0x0 DUP2 CALLDATALOAD SWAP1 POP PUSH2 0x4AC7 DUP2 PUSH2 0x682F JUMP JUMPDEST SWAP3 SWAP2 POP POP JUMP JUMPDEST PUSH1 0x0 DUP2 MLOAD SWAP1 POP PUSH2 0x4ADC DUP2 PUSH2 0x682F JUMP JUMPDEST SWAP3 SWAP2 POP POP JUMP JUMPDEST PUSH1 0x0 DUP2 CALLDATALOAD SWAP1 POP PUSH2 0x4AF1 DUP2 PUSH2 0x6846 JUMP JUMPDEST SWAP3 SWAP2 POP POP JUMP JUMPDEST PUSH1 0x0 DUP2 MLOAD SWAP1 POP PUSH2 0x4B06 DUP2 PUSH2 0x6846 JUMP JUMPDEST SWAP3 SWAP2 POP POP JUMP JUMPDEST PUSH1 0x0 PUSH1 0x20 DUP3 DUP5 SUB SLT ISZERO PUSH2 0x4B1E JUMPI PUSH1 0x0 DUP1 REVERT JUMPDEST PUSH1 0x0 PUSH2 0x4B2C DUP5 DUP3 DUP6 ADD PUSH2 0x4278 JUMP JUMPDEST SWAP2 POP POP SWAP3 SWAP2 POP POP JUMP JUMPDEST PUSH1 0x0 DUP1 PUSH1 0x0 DUP1 PUSH1 0x0 PUSH1 0xA0 DUP7 DUP9 SUB SLT ISZERO PUSH2 0x4B4D JUMPI PUSH1 0x0 DUP1 REVERT JUMPDEST PUSH1 0x0 PUSH2 0x4B5B DUP9 DUP3 DUP10 ADD PUSH2 0x4278 JUMP JUMPDEST SWAP6 POP POP PUSH1 0x20 PUSH2 0x4B6C DUP9 DUP3 DUP10 ADD PUSH2 0x43DD JUMP JUMPDEST SWAP5 POP POP PUSH1 0x40 DUP7 ADD CALLDATALOAD PUSH8 0xFFFFFFFFFFFFFFFF DUP2 GT ISZERO PUSH2 0x4B89 JUMPI PUSH1 0x0 DUP1 REVERT JUMPDEST PUSH2 0x4B95 DUP9 DUP3 DUP10 ADD PUSH2 0x439E JUMP JUMPDEST SWAP4 POP POP PUSH1 0x60 DUP7 ADD CALLDATALOAD PUSH8 0xFFFFFFFFFFFFFFFF DUP2 GT ISZERO PUSH2 0x4BB2 JUMPI PUSH1 0x0 DUP1 REVERT JUMPDEST PUSH2 0x4BBE DUP9 DUP3 DUP10 ADD PUSH2 0x42CC JUMP JUMPDEST SWAP3 POP POP PUSH1 0x80 DUP7 ADD CALLDATALOAD PUSH8 0xFFFFFFFFFFFFFFFF DUP2 GT ISZERO PUSH2 0x4BDB JUMPI PUSH1 0x0 DUP1 REVERT JUMPDEST PUSH2 0x4BE7 DUP9 DUP3 DUP10 ADD PUSH2 0x42CC JUMP JUMPDEST SWAP2 POP POP SWAP3 SWAP6 POP SWAP3 SWAP6 SWAP1 SWAP4 POP JUMP JUMPDEST PUSH1 0x0 PUSH1 0x20 DUP3 DUP5 SUB SLT ISZERO PUSH2 0x4C06 JUMPI PUSH1 0x0 DUP1 REVERT JUMPDEST PUSH1 0x0 DUP3 ADD MLOAD PUSH8 0xFFFFFFFFFFFFFFFF DUP2 GT ISZERO PUSH2 0x4C20 JUMPI PUSH1 0x0 DUP1 REVERT JUMPDEST PUSH2 0x4C2C DUP5 DUP3 DUP6 ADD PUSH2 0x42A2 JUMP JUMPDEST SWAP2 POP POP SWAP3 SWAP2 POP POP JUMP JUMPDEST PUSH1 0x0 PUSH1 0x20 DUP3 DUP5 SUB SLT ISZERO PUSH2 0x4C47 JUMPI PUSH1 0x0 DUP1 REVERT JUMPDEST PUSH1 0x0 DUP3 ADD CALLDATALOAD PUSH8 0xFFFFFFFFFFFFFFFF DUP2 GT ISZERO PUSH2 0x4C61 JUMPI PUSH1 0x0 DUP1 REVERT JUMPDEST PUSH2 0x4C6D DUP5 DUP3 DUP6 ADD PUSH2 0x434A JUMP JUMPDEST SWAP2 POP POP SWAP3 SWAP2 POP POP JUMP JUMPDEST PUSH1 0x0 PUSH1 0x20 DUP3 DUP5 SUB SLT ISZERO PUSH2 0x4C88 JUMPI PUSH1 0x0 DUP1 REVERT JUMPDEST PUSH1 0x0 PUSH2 0x4C96 DUP5 DUP3 DUP6 ADD PUSH2 0x43C8 JUMP JUMPDEST SWAP2 POP POP SWAP3 SWAP2 POP POP JUMP JUMPDEST PUSH1 0x0 PUSH1 0x20 DUP3 DUP5 SUB SLT ISZERO PUSH2 0x4CB1 JUMPI PUSH1 0x0 DUP1 REVERT JUMPDEST PUSH1 0x0 PUSH2 0x4CBF DUP5 DUP3 DUP6 ADD PUSH2 0x43DD JUMP JUMPDEST SWAP2 POP POP SWAP3 SWAP2 POP POP JUMP JUMPDEST PUSH1 0x0 PUSH1 0x20 DUP3 DUP5 SUB SLT ISZERO PUSH2 0x4CDA JUMPI PUSH1 0x0 DUP1 REVERT JUMPDEST PUSH1 0x0 DUP3 ADD MLOAD PUSH8 0xFFFFFFFFFFFFFFFF DUP2 GT ISZERO PUSH2 0x4CF4 JUMPI PUSH1 0x0 DUP1 REVERT JUMPDEST PUSH2 0x4D00 DUP5 DUP3 DUP6 ADD PUSH2 0x43F2 JUMP JUMPDEST SWAP2 POP POP SWAP3 SWAP2 POP POP JUMP JUMPDEST PUSH1 0x0 PUSH1 0x20 DUP3 DUP5 SUB SLT ISZERO PUSH2 0x4D1B JUMPI PUSH1 0x0 DUP1 REVERT JUMPDEST PUSH1 0x0 DUP3 ADD MLOAD PUSH8 0xFFFFFFFFFFFFFFFF DUP2 GT ISZERO PUSH2 0x4D35 JUMPI PUSH1 0x0 DUP1 REVERT JUMPDEST PUSH2 0x4D41 DUP5 DUP3 DUP6 ADD PUSH2 0x4446 JUMP JUMPDEST SWAP2 POP POP SWAP3 SWAP2 POP POP JUMP JUMPDEST PUSH1 0x0 PUSH1 0x20 DUP3 DUP5 SUB SLT ISZERO PUSH2 0x4D5C JUMPI PUSH1 0x0 DUP1 REVERT JUMPDEST PUSH1 0x0 DUP3 ADD MLOAD PUSH8 0xFFFFFFFFFFFFFFFF DUP2 GT ISZERO PUSH2 0x4D76 JUMPI PUSH1 0x0 DUP1 REVERT JUMPDEST PUSH2 0x4D82 DUP5 DUP3 DUP6 ADD PUSH2 0x4602 JUMP JUMPDEST SWAP2 POP POP SWAP3 SWAP2 POP POP JUMP JUMPDEST PUSH1 0x0 PUSH1 0x20 DUP3 DUP5 SUB SLT ISZERO PUSH2 0x4D9D JUMPI PUSH1 0x0 DUP1 REVERT JUMPDEST PUSH1 0x0 PUSH2 0x4DAB DUP5 DUP3 DUP6 ADD PUSH2 0x4A3A JUMP JUMPDEST SWAP2 POP POP SWAP3 SWAP2 POP POP JUMP JUMPDEST PUSH1 0x0 DUP1 PUSH1 0x0 DUP1 PUSH1 0x0 PUSH1 0xA0 DUP7 DUP9 SUB SLT ISZERO PUSH2 0x4DCC JUMPI PUSH1 0x0 DUP1 REVERT JUMPDEST PUSH1 0x0 PUSH2 0x4DDA DUP9 DUP3 DUP10 ADD PUSH2 0x4A3A JUMP JUMPDEST SWAP6 POP POP PUSH1 0x20 PUSH2 0x4DEB DUP9 DUP3 DUP10 ADD PUSH2 0x4A3A JUMP JUMPDEST SWAP5 POP POP PUSH1 0x40 PUSH2 0x4DFC DUP9 DUP3 DUP10 ADD PUSH2 0x4A64 JUMP JUMPDEST SWAP4 POP POP PUSH1 0x60 PUSH2 0x4E0D DUP9 DUP3 DUP10 ADD PUSH2 0x4A3A JUMP JUMPDEST SWAP3 POP POP PUSH1 0x80 PUSH2 0x4E1E DUP9 DUP3 DUP10 ADD PUSH2 0x4A3A JUMP JUMPDEST SWAP2 POP POP SWAP3 SWAP6 POP SWAP3 SWAP6 SWAP1 SWAP4 POP JUMP JUMPDEST PUSH1 0x0 PUSH1 0x20 DUP3 DUP5 SUB SLT ISZERO PUSH2 0x4E3D JUMPI PUSH1 0x0 DUP1 REVERT JUMPDEST PUSH1 0x0 PUSH2 0x4E4B DUP5 DUP3 DUP6 ADD PUSH2 0x4A64 JUMP JUMPDEST SWAP2 POP POP SWAP3 SWAP2 POP POP JUMP JUMPDEST PUSH1 0x0 PUSH1 0x20 DUP3 DUP5 SUB SLT ISZERO PUSH2 0x4E66 JUMPI PUSH1 0x0 DUP1 REVERT JUMPDEST PUSH1 0x0 PUSH2 0x4E74 DUP5 DUP3 DUP6 ADD PUSH2 0x4A79 JUMP JUMPDEST SWAP2 POP POP SWAP3 SWAP2 POP POP JUMP JUMPDEST PUSH1 0x0 DUP1 PUSH1 0x40 DUP4 DUP6 SUB SLT ISZERO PUSH2 0x4E90 JUMPI PUSH1 0x0 DUP1 REVERT JUMPDEST PUSH1 0x0 PUSH2 0x4E9E DUP6 DUP3 DUP7 ADD PUSH2 0x4A64 JUMP JUMPDEST SWAP3 POP POP PUSH1 0x20 PUSH2 0x4EAF DUP6 DUP3 DUP7 ADD PUSH2 0x4A64 JUMP JUMPDEST SWAP2 POP POP SWAP3 POP SWAP3 SWAP1 POP JUMP JUMPDEST PUSH1 0x0 DUP1 PUSH1 0x0 DUP1 PUSH1 0x0 DUP1 PUSH1 0x0 DUP1 PUSH2 0x100 DUP10 DUP12 SUB SLT ISZERO PUSH2 0x4ED6 JUMPI PUSH1 0x0 DUP1 REVERT JUMPDEST PUSH1 0x0 PUSH2 0x4EE4 DUP12 DUP3 DUP13 ADD PUSH2 0x4AB8 JUMP JUMPDEST SWAP9 POP POP PUSH1 0x20 PUSH2 0x4EF5 DUP12 DUP3 DUP13 ADD PUSH2 0x4278 JUMP JUMPDEST SWAP8 POP POP PUSH1 0x40 PUSH2 0x4F06 DUP12 DUP3 DUP13 ADD PUSH2 0x4A3A JUMP JUMPDEST SWAP7 POP POP PUSH1 0x60 PUSH2 0x4F17 DUP12 DUP3 DUP13 ADD PUSH2 0x4A3A JUMP JUMPDEST SWAP6 POP POP PUSH1 0x80 PUSH2 0x4F28 DUP12 DUP3 DUP13 ADD PUSH2 0x4A64 JUMP JUMPDEST SWAP5 POP POP PUSH1 0xA0 PUSH2 0x4F39 DUP12 DUP3 DUP13 ADD PUSH2 0x4A3A JUMP JUMPDEST SWAP4 POP POP PUSH1 0xC0 PUSH2 0x4F4A DUP12 DUP3 DUP13 ADD PUSH2 0x4A3A JUMP JUMPDEST SWAP3 POP POP PUSH1 0xE0 PUSH2 0x4F5B DUP12 DUP3 DUP13 ADD PUSH2 0x4A3A JUMP JUMPDEST SWAP2 POP POP SWAP3 SWAP6 SWAP9 POP SWAP3 SWAP6 SWAP9 SWAP1 SWAP4 SWAP7 POP JUMP JUMPDEST PUSH1 0x0 PUSH1 0x20 DUP3 DUP5 SUB SLT ISZERO PUSH2 0x4F7D JUMPI PUSH1 0x0 DUP1 REVERT JUMPDEST PUSH1 0x0 PUSH2 0x4F8B DUP5 DUP3 DUP6 ADD PUSH2 0x4AF7 JUMP JUMPDEST SWAP2 POP POP SWAP3 SWAP2 POP POP JUMP JUMPDEST PUSH1 0x0 PUSH2 0x4FA0 DUP4 DUP4 PUSH2 0x5315 JUMP JUMPDEST PUSH1 0x20 DUP4 ADD SWAP1 POP SWAP3 SWAP2 POP POP JUMP JUMPDEST PUSH1 0x0 PUSH2 0x4FB8 DUP4 DUP4 PUSH2 0x5860 JUMP JUMPDEST PUSH1 0x40 DUP4 ADD SWAP1 POP SWAP3 SWAP2 POP POP JUMP JUMPDEST PUSH1 0x0 PUSH2 0x4FD0 DUP4 DUP4 PUSH2 0x58FE JUMP JUMPDEST SWAP1 POP SWAP3 SWAP2 POP POP JUMP JUMPDEST PUSH1 0x0 PUSH2 0x4FE4 DUP4 DUP4 PUSH2 0x59C4 JUMP JUMPDEST PUSH2 0x160 DUP4 ADD SWAP1 POP SWAP3 SWAP2 POP POP JUMP JUMPDEST PUSH1 0x0 PUSH2 0x4FFD DUP4 DUP4 PUSH2 0x5A7D JUMP JUMPDEST PUSH2 0x160 DUP4 ADD SWAP1 POP SWAP3 SWAP2 POP POP JUMP JUMPDEST PUSH1 0x0 PUSH2 0x5016 DUP4 DUP4 PUSH2 0x5D21 JUMP JUMPDEST PUSH1 0x20 DUP4 ADD SWAP1 POP SWAP3 SWAP2 POP POP JUMP JUMPDEST PUSH2 0x502B DUP2 PUSH2 0x6669 JUMP JUMPDEST DUP3 MSTORE POP POP JUMP JUMPDEST PUSH2 0x503A DUP2 PUSH2 0x65D9 JUMP JUMPDEST DUP3 MSTORE POP POP JUMP JUMPDEST PUSH2 0x5049 DUP2 PUSH2 0x65D9 JUMP JUMPDEST DUP3 MSTORE POP POP JUMP JUMPDEST PUSH1 0x0 PUSH2 0x505A DUP3 PUSH2 0x6452 JUMP JUMPDEST PUSH2 0x5064 DUP2 DUP6 PUSH2 0x64F8 JUMP JUMPDEST SWAP4 POP PUSH2 0x506F DUP4 PUSH2 0x63ED JUMP JUMPDEST DUP1 PUSH1 0x0 JUMPDEST DUP4 DUP2 LT ISZERO PUSH2 0x50A0 JUMPI DUP2 MLOAD PUSH2 0x5087 DUP9 DUP3 PUSH2 0x4F94 JUMP JUMPDEST SWAP8 POP PUSH2 0x5092 DUP4 PUSH2 0x64AA JUMP JUMPDEST SWAP3 POP POP PUSH1 0x1 DUP2 ADD SWAP1 POP PUSH2 0x5073 JUMP JUMPDEST POP DUP6 SWAP4 POP POP POP POP SWAP3 SWAP2 POP POP JUMP JUMPDEST PUSH1 0x0 PUSH2 0x50B8 DUP3 PUSH2 0x645D JUMP JUMPDEST PUSH2 0x50C2 DUP2 DUP6 PUSH2 0x6509 JUMP JUMPDEST SWAP4 POP PUSH2 0x50CD DUP4 PUSH2 0x63FD JUMP JUMPDEST DUP1 PUSH1 0x0 JUMPDEST DUP4 DUP2 LT ISZERO PUSH2 0x50FE JUMPI DUP2 MLOAD PUSH2 0x50E5 DUP9 DUP3 PUSH2 0x4FAC JUMP JUMPDEST SWAP8 POP PUSH2 0x50F0 DUP4 PUSH2 0x64B7 JUMP JUMPDEST SWAP3 POP POP PUSH1 0x1 DUP2 ADD SWAP1 POP PUSH2 0x50D1 JUMP JUMPDEST POP DUP6 SWAP4 POP POP POP POP SWAP3 SWAP2 POP POP JUMP JUMPDEST PUSH1 0x0 PUSH2 0x5116 DUP3 PUSH2 0x6468 JUMP JUMPDEST PUSH2 0x5120 DUP2 DUP6 PUSH2 0x651A JUMP JUMPDEST SWAP4 POP DUP4 PUSH1 0x20 DUP3 MUL DUP6 ADD PUSH2 0x5132 DUP6 PUSH2 0x640D JUMP JUMPDEST DUP1 PUSH1 0x0 JUMPDEST DUP6 DUP2 LT ISZERO PUSH2 0x516E JUMPI DUP5 DUP5 SUB DUP10 MSTORE DUP2 MLOAD PUSH2 0x514F DUP6 DUP3 PUSH2 0x4FC4 JUMP JUMPDEST SWAP5 POP PUSH2 0x515A DUP4 PUSH2 0x64C4 JUMP JUMPDEST SWAP3 POP PUSH1 0x20 DUP11 ADD SWAP10 POP POP PUSH1 0x1 DUP2 ADD SWAP1 POP PUSH2 0x5136 JUMP JUMPDEST POP DUP3 SWAP8 POP DUP8 SWAP6 POP POP POP POP POP POP SWAP3 SWAP2 POP POP JUMP JUMPDEST PUSH1 0x0 PUSH2 0x518B DUP3 PUSH2 0x6473 JUMP JUMPDEST PUSH2 0x5195 DUP2 DUP6 PUSH2 0x652B JUMP JUMPDEST SWAP4 POP PUSH2 0x51A0 DUP4 PUSH2 0x641D JUMP JUMPDEST DUP1 PUSH1 0x0 JUMPDEST DUP4 DUP2 LT ISZERO PUSH2 0x51D1 JUMPI DUP2 MLOAD PUSH2 0x51B8 DUP9 DUP3 PUSH2 0x4FD8 JUMP JUMPDEST SWAP8 POP PUSH2 0x51C3 DUP4 PUSH2 0x64D1 JUMP JUMPDEST SWAP3 POP POP PUSH1 0x1 DUP2 ADD SWAP1 POP PUSH2 0x51A4 JUMP JUMPDEST POP DUP6 SWAP4 POP POP POP POP SWAP3 SWAP2 POP POP JUMP JUMPDEST PUSH1 0x0 PUSH2 0x51E9 DUP3 PUSH2 0x6473 JUMP JUMPDEST PUSH2 0x51F3 DUP2 DUP6 PUSH2 0x653C JUMP JUMPDEST SWAP4 POP PUSH2 0x51FE DUP4 PUSH2 0x641D JUMP JUMPDEST DUP1 PUSH1 0x0 JUMPDEST DUP4 DUP2 LT ISZERO PUSH2 0x522F JUMPI DUP2 MLOAD PUSH2 0x5216 DUP9 DUP3 PUSH2 0x4FD8 JUMP JUMPDEST SWAP8 POP PUSH2 0x5221 DUP4 PUSH2 0x64D1 JUMP JUMPDEST SWAP3 POP POP PUSH1 0x1 DUP2 ADD SWAP1 POP PUSH2 0x5202 JUMP JUMPDEST POP DUP6 SWAP4 POP POP POP POP SWAP3 SWAP2 POP POP JUMP JUMPDEST PUSH1 0x0 PUSH2 0x5247 DUP3 PUSH2 0x647E JUMP JUMPDEST PUSH2 0x5251 DUP2 DUP6 PUSH2 0x653C JUMP JUMPDEST SWAP4 POP PUSH2 0x525C DUP4 PUSH2 0x642D JUMP JUMPDEST DUP1 PUSH1 0x0 JUMPDEST DUP4 DUP2 LT ISZERO PUSH2 0x528C JUMPI DUP2 PUSH2 0x5273 DUP9 DUP3 PUSH2 0x4FF1 JUMP JUMPDEST SWAP8 POP PUSH2 0x527E DUP4 PUSH2 0x64DE JUMP JUMPDEST SWAP3 POP POP PUSH1 0x1 DUP2 ADD SWAP1 POP PUSH2 0x5260 JUMP JUMPDEST POP DUP6 SWAP4 POP POP POP POP SWAP3 SWAP2 POP POP JUMP JUMPDEST PUSH1 0x0 PUSH2 0x52A4 DUP3 PUSH2 0x6489 JUMP JUMPDEST PUSH2 0x52AE DUP2 DUP6 PUSH2 0x654D JUMP JUMPDEST SWAP4 POP PUSH2 0x52B9 DUP4 PUSH2 0x6442 JUMP JUMPDEST DUP1 PUSH1 0x0 JUMPDEST DUP4 DUP2 LT ISZERO PUSH2 0x52EA JUMPI DUP2 MLOAD PUSH2 0x52D1 DUP9 DUP3 PUSH2 0x500A JUMP JUMPDEST SWAP8 POP PUSH2 0x52DC DUP4 PUSH2 0x64EB JUMP JUMPDEST SWAP3 POP POP PUSH1 0x1 DUP2 ADD SWAP1 POP PUSH2 0x52BD JUMP JUMPDEST POP DUP6 SWAP4 POP POP POP POP SWAP3 SWAP2 POP POP JUMP JUMPDEST PUSH2 0x5300 DUP2 PUSH2 0x65EB JUMP JUMPDEST DUP3 MSTORE POP POP JUMP JUMPDEST PUSH2 0x530F DUP2 PUSH2 0x65EB JUMP JUMPDEST DUP3 MSTORE POP POP JUMP JUMPDEST PUSH2 0x531E DUP2 PUSH2 0x65F7 JUMP JUMPDEST DUP3 MSTORE POP POP JUMP JUMPDEST PUSH2 0x532D DUP2 PUSH2 0x65F7 JUMP JUMPDEST DUP3 MSTORE POP POP JUMP JUMPDEST PUSH1 0x0 PUSH2 0x533E DUP3 PUSH2 0x6494 JUMP JUMPDEST PUSH2 0x5348 DUP2 DUP6 PUSH2 0x655E JUMP JUMPDEST SWAP4 POP PUSH2 0x5358 DUP2 DUP6 PUSH1 0x20 DUP7 ADD PUSH2 0x669F JUMP JUMPDEST DUP1 DUP5 ADD SWAP2 POP POP SWAP3 SWAP2 POP POP JUMP JUMPDEST PUSH2 0x536D DUP2 PUSH2 0x6601 JUMP JUMPDEST DUP3 MSTORE POP POP JUMP JUMPDEST PUSH2 0x537C DUP2 PUSH2 0x6601 JUMP JUMPDEST DUP3 MSTORE POP POP JUMP JUMPDEST PUSH1 0x0 PUSH2 0x538D DUP3 PUSH2 0x649F JUMP JUMPDEST PUSH2 0x5397 DUP2 DUP6 PUSH2 0x6569 JUMP JUMPDEST SWAP4 POP PUSH2 0x53A7 DUP2 DUP6 PUSH1 0x20 DUP7 ADD PUSH2 0x669F JUMP JUMPDEST PUSH2 0x53B0 DUP2 PUSH2 0x6756 JUMP JUMPDEST DUP5 ADD SWAP2 POP POP SWAP3 SWAP2 POP POP JUMP JUMPDEST PUSH1 0x0 PUSH2 0x53C6 DUP3 PUSH2 0x649F JUMP JUMPDEST PUSH2 0x53D0 DUP2 DUP6 PUSH2 0x657A JUMP JUMPDEST SWAP4 POP PUSH2 0x53E0 DUP2 DUP6 PUSH1 0x20 DUP7 ADD PUSH2 0x669F JUMP JUMPDEST PUSH2 0x53E9 DUP2 PUSH2 0x6756 JUMP JUMPDEST DUP5 ADD SWAP2 POP POP SWAP3 SWAP2 POP POP JUMP JUMPDEST PUSH1 0x0 PUSH2 0x5401 PUSH1 0x3B DUP4 PUSH2 0x657A JUMP JUMPDEST SWAP2 POP PUSH32 0x427269646765206973206E6F742079657420617661696C61626C65206F6E6C79 PUSH1 0x0 DUP4 ADD MSTORE PUSH32 0x2056657275732063616E206265207573656420666F7220666565730000000000 PUSH1 0x20 DUP4 ADD MSTORE PUSH1 0x40 DUP3 ADD SWAP1 POP SWAP2 SWAP1 POP JUMP JUMPDEST PUSH1 0x0 PUSH2 0x5467 PUSH1 0x1C DUP4 PUSH2 0x657A JUMP JUMPDEST SWAP2 POP PUSH32 0x436F6E747261637420686173206265656E206465707265636174656400000000 PUSH1 0x0 DUP4 ADD MSTORE PUSH1 0x20 DUP3 ADD SWAP1 POP SWAP2 SWAP1 POP JUMP JUMPDEST PUSH1 0x0 PUSH2 0x54A7 PUSH1 0x19 DUP4 PUSH2 0x657A JUMP JUMPDEST SWAP2 POP PUSH32 0x546F2073656E642065746820757365206578706F727445544800000000000000 PUSH1 0x0 DUP4 ADD MSTORE PUSH1 0x20 DUP3 ADD SWAP1 POP SWAP2 SWAP1 POP JUMP JUMPDEST PUSH1 0x0 PUSH2 0x54E7 PUSH1 0x48 DUP4 PUSH2 0x657A JUMP JUMPDEST SWAP2 POP PUSH32 0x457468657265756D206D7573742062652073656E742077697468207468652074 PUSH1 0x0 DUP4 ADD MSTORE PUSH32 0x72616E73616374696F6E20746F2062652073656E7420746F2074686520566572 PUSH1 0x20 DUP4 ADD MSTORE PUSH32 0x757320436861696E000000000000000000000000000000000000000000000000 PUSH1 0x40 DUP4 ADD MSTORE PUSH1 0x60 DUP3 ADD SWAP1 POP SWAP2 SWAP1 POP JUMP JUMPDEST PUSH1 0x0 PUSH2 0x5573 PUSH1 0x29 DUP4 PUSH2 0x657A JUMP JUMPDEST SWAP2 POP PUSH32 0x52657175657374656420616D6F756E74206578636565647320636F6E74726163 PUSH1 0x0 DUP4 ADD MSTORE PUSH32 0x742062616C616E63650000000000000000000000000000000000000000000000 PUSH1 0x20 DUP4 ADD MSTORE PUSH1 0x40 DUP3 ADD SWAP1 POP SWAP2 SWAP1 POP JUMP JUMPDEST PUSH1 0x0 PUSH2 0x55D9 PUSH1 0x3D DUP4 PUSH2 0x657A JUMP JUMPDEST SWAP2 POP PUSH32 0x427269646765206973206E6F742079657420617661696C61626C652066656573 PUSH1 0x0 DUP4 ADD MSTORE PUSH32 0x2063616E6E6F7420657863656564206578697374696E6720706F6F6C2E000000 PUSH1 0x20 DUP4 ADD MSTORE PUSH1 0x40 DUP3 ADD SWAP1 POP SWAP2 SWAP1 POP JUMP JUMPDEST PUSH1 0x0 PUSH2 0x563F PUSH1 0x55 DUP4 PUSH2 0x657A JUMP JUMPDEST SWAP2 POP PUSH32 0x5468697320636F6E7472616374206D757374206861766520616E20616C6C6F77 PUSH1 0x0 DUP4 ADD MSTORE PUSH32 0x616E6365206F662067726561746572207468616E206F7220657175616C20746F PUSH1 0x20 DUP4 ADD MSTORE PUSH32 0x20746865206E756D626572206F6620746F6B656E730000000000000000000000 PUSH1 0x40 DUP4 ADD MSTORE PUSH1 0x60 DUP3 ADD SWAP1 POP SWAP2 SWAP1 POP JUMP JUMPDEST PUSH1 0x0 PUSH2 0x56CB PUSH1 0x2C DUP4 PUSH2 0x657A JUMP JUMPDEST SWAP2 POP PUSH32 0x506C656173652073656E642074686520617070726F707269617465207472616E PUSH1 0x0 DUP4 ADD MSTORE PUSH32 0x73616374696F6E206665652E0000000000000000000000000000000000000000 PUSH1 0x20 DUP4 ADD MSTORE PUSH1 0x40 DUP3 ADD SWAP1 POP SWAP2 SWAP1 POP JUMP JUMPDEST PUSH1 0x0 PUSH2 0x1C0 DUP4 ADD PUSH1 0x0 DUP4 ADD MLOAD PUSH2 0x573D PUSH1 0x0 DUP7 ADD DUP3 PUSH2 0x5CE5 JUMP JUMPDEST POP PUSH1 0x20 DUP4 ADD MLOAD PUSH2 0x5750 PUSH1 0x20 DUP7 ADD DUP3 PUSH2 0x5CE5 JUMP JUMPDEST POP PUSH1 0x40 DUP4 ADD MLOAD PUSH2 0x5763 PUSH1 0x40 DUP7 ADD DUP3 PUSH2 0x5CA9 JUMP JUMPDEST POP PUSH1 0x60 DUP4 ADD MLOAD PUSH2 0x5776 PUSH1 0x60 DUP7 ADD DUP3 PUSH2 0x5CE5 JUMP JUMPDEST POP PUSH1 0x80 DUP4 ADD MLOAD PUSH2 0x5789 PUSH1 0x80 DUP7 ADD DUP3 PUSH2 0x5CE5 JUMP JUMPDEST POP PUSH1 0xA0 DUP4 ADD MLOAD PUSH2 0x579C PUSH1 0xA0 DUP7 ADD DUP3 PUSH2 0x5CA9 JUMP JUMPDEST POP PUSH1 0xC0 DUP4 ADD MLOAD PUSH2 0x57AF PUSH1 0xC0 DUP7 ADD DUP3 PUSH2 0x5CA9 JUMP JUMPDEST POP PUSH1 0xE0 DUP4 ADD MLOAD PUSH2 0x57C2 PUSH1 0xE0 DUP7 ADD DUP3 PUSH2 0x5364 JUMP JUMPDEST POP PUSH2 0x100 DUP4 ADD MLOAD DUP5 DUP3 SUB PUSH2 0x100 DUP7 ADD MSTORE PUSH2 0x57DC DUP3 DUP3 PUSH2 0x50AD JUMP JUMPDEST SWAP2 POP POP PUSH2 0x120 DUP4 ADD MLOAD DUP5 DUP3 SUB PUSH2 0x120 DUP7 ADD MSTORE PUSH2 0x57F8 DUP3 DUP3 PUSH2 0x50AD JUMP JUMPDEST SWAP2 POP POP PUSH2 0x140 DUP4 ADD MLOAD PUSH2 0x580F PUSH2 0x140 DUP7 ADD DUP3 PUSH2 0x5CC7 JUMP JUMPDEST POP PUSH2 0x160 DUP4 ADD MLOAD DUP5 DUP3 SUB PUSH2 0x160 DUP7 ADD MSTORE PUSH2 0x5829 DUP3 DUP3 PUSH2 0x50AD JUMP JUMPDEST SWAP2 POP POP PUSH2 0x180 DUP4 ADD MLOAD PUSH2 0x5840 PUSH2 0x180 DUP7 ADD DUP3 PUSH2 0x5031 JUMP JUMPDEST POP PUSH2 0x1A0 DUP4 ADD MLOAD PUSH2 0x5855 PUSH2 0x1A0 DUP7 ADD DUP3 PUSH2 0x5364 JUMP JUMPDEST POP DUP1 SWAP2 POP POP SWAP3 SWAP2 POP POP JUMP JUMPDEST PUSH1 0x40 DUP3 ADD PUSH1 0x0 DUP3 ADD MLOAD PUSH2 0x5876 PUSH1 0x0 DUP6 ADD DUP3 PUSH2 0x5CA9 JUMP JUMPDEST POP PUSH1 0x20 DUP3 ADD MLOAD PUSH2 0x5889 PUSH1 0x20 DUP6 ADD DUP3 PUSH2 0x5D03 JUMP JUMPDEST POP POP POP POP JUMP JUMPDEST PUSH1 0x40 DUP3 ADD PUSH1 0x0 DUP3 ADD MLOAD PUSH2 0x58A5 PUSH1 0x0 DUP6 ADD DUP3 PUSH2 0x5CA9 JUMP JUMPDEST POP PUSH1 0x20 DUP3 ADD MLOAD PUSH2 0x58B8 PUSH1 0x20 DUP6 ADD DUP3 PUSH2 0x5D03 JUMP JUMPDEST POP POP POP POP JUMP JUMPDEST PUSH1 0x40 DUP3 ADD PUSH1 0x0 DUP1 DUP4 ADD SLOAD SWAP1 POP PUSH2 0x58D3 DUP2 PUSH2 0x66D2 JUMP JUMPDEST PUSH2 0x58E0 PUSH1 0x0 DUP7 ADD DUP3 PUSH2 0x5CA9 JUMP JUMPDEST POP PUSH2 0x58EA DUP2 PUSH2 0x6720 JUMP JUMPDEST PUSH2 0x58F7 PUSH1 0x20 DUP7 ADD DUP3 PUSH2 0x5D03 JUMP JUMPDEST POP POP POP POP POP JUMP JUMPDEST PUSH1 0x0 PUSH1 0x80 DUP4 ADD PUSH1 0x0 DUP4 ADD MLOAD PUSH2 0x5916 PUSH1 0x0 DUP7 ADD DUP3 PUSH2 0x5CC7 JUMP JUMPDEST POP PUSH1 0x20 DUP4 ADD MLOAD PUSH2 0x5929 PUSH1 0x20 DUP7 ADD DUP3 PUSH2 0x5CC7 JUMP JUMPDEST POP PUSH1 0x40 DUP4 ADD MLOAD PUSH2 0x593C PUSH1 0x40 DUP7 ADD DUP3 PUSH2 0x5315 JUMP JUMPDEST POP PUSH1 0x60 DUP4 ADD MLOAD DUP5 DUP3 SUB PUSH1 0x60 DUP7 ADD MSTORE PUSH2 0x5954 DUP3 DUP3 PUSH2 0x5180 JUMP JUMPDEST SWAP2 POP POP DUP1 SWAP2 POP POP SWAP3 SWAP2 POP POP JUMP JUMPDEST PUSH1 0x0 PUSH1 0x80 DUP4 ADD PUSH1 0x0 DUP4 ADD MLOAD PUSH2 0x5979 PUSH1 0x0 DUP7 ADD DUP3 PUSH2 0x5CC7 JUMP JUMPDEST POP PUSH1 0x20 DUP4 ADD MLOAD PUSH2 0x598C PUSH1 0x20 DUP7 ADD DUP3 PUSH2 0x5CC7 JUMP JUMPDEST POP PUSH1 0x40 DUP4 ADD MLOAD PUSH2 0x599F PUSH1 0x40 DUP7 ADD DUP3 PUSH2 0x5315 JUMP JUMPDEST POP PUSH1 0x60 DUP4 ADD MLOAD DUP5 DUP3 SUB PUSH1 0x60 DUP7 ADD MSTORE PUSH2 0x59B7 DUP3 DUP3 PUSH2 0x5180 JUMP JUMPDEST SWAP2 POP POP DUP1 SWAP2 POP POP SWAP3 SWAP2 POP POP JUMP JUMPDEST PUSH2 0x160 DUP3 ADD PUSH1 0x0 DUP3 ADD MLOAD PUSH2 0x59DB PUSH1 0x0 DUP6 ADD DUP3 PUSH2 0x5CE5 JUMP JUMPDEST POP PUSH1 0x20 DUP3 ADD MLOAD PUSH2 0x59EE PUSH1 0x20 DUP6 ADD DUP3 PUSH2 0x5860 JUMP JUMPDEST POP PUSH1 0x40 DUP3 ADD MLOAD PUSH2 0x5A01 PUSH1 0x60 DUP6 ADD DUP3 PUSH2 0x5CE5 JUMP JUMPDEST POP PUSH1 0x60 DUP3 ADD MLOAD PUSH2 0x5A14 PUSH1 0x80 DUP6 ADD DUP3 PUSH2 0x5CA9 JUMP JUMPDEST POP PUSH1 0x80 DUP3 ADD MLOAD PUSH2 0x5A27 PUSH1 0xA0 DUP6 ADD DUP3 PUSH2 0x5CC7 JUMP JUMPDEST POP PUSH1 0xA0 DUP3 ADD MLOAD PUSH2 0x5A3A PUSH1 0xC0 DUP6 ADD DUP3 PUSH2 0x5B7B JUMP JUMPDEST POP PUSH1 0xC0 DUP3 ADD MLOAD PUSH2 0x5A4E PUSH2 0x100 DUP6 ADD DUP3 PUSH2 0x5CA9 JUMP JUMPDEST POP PUSH1 0xE0 DUP3 ADD MLOAD PUSH2 0x5A62 PUSH2 0x120 DUP6 ADD DUP3 PUSH2 0x5CA9 JUMP JUMPDEST POP PUSH2 0x100 DUP3 ADD MLOAD PUSH2 0x5A77 PUSH2 0x140 DUP6 ADD DUP3 PUSH2 0x5CA9 JUMP JUMPDEST POP POP POP POP JUMP JUMPDEST PUSH2 0x160 DUP3 ADD PUSH1 0x0 DUP1 DUP4 ADD SLOAD SWAP1 POP PUSH2 0x5A93 DUP2 PUSH2 0x6706 JUMP JUMPDEST PUSH2 0x5AA0 PUSH1 0x0 DUP7 ADD DUP3 PUSH2 0x5CE5 JUMP JUMPDEST POP PUSH1 0x1 DUP4 ADD PUSH2 0x5AB2 PUSH1 0x20 DUP7 ADD DUP3 PUSH2 0x58BE JUMP JUMPDEST POP PUSH1 0x2 DUP4 ADD SLOAD SWAP1 POP PUSH2 0x5AC3 DUP2 PUSH2 0x6706 JUMP JUMPDEST PUSH2 0x5AD0 PUSH1 0x60 DUP7 ADD DUP3 PUSH2 0x5CE5 JUMP JUMPDEST POP PUSH2 0x5ADA DUP2 PUSH2 0x673A JUMP JUMPDEST PUSH2 0x5AE7 PUSH1 0x80 DUP7 ADD DUP3 PUSH2 0x5CA9 JUMP JUMPDEST POP PUSH1 0x3 DUP4 ADD SLOAD SWAP1 POP PUSH2 0x5AF8 DUP2 PUSH2 0x66EC JUMP JUMPDEST PUSH2 0x5B05 PUSH1 0xA0 DUP7 ADD DUP3 PUSH2 0x5CC7 JUMP JUMPDEST POP PUSH1 0x4 DUP4 ADD PUSH2 0x5B17 PUSH1 0xC0 DUP7 ADD DUP3 PUSH2 0x5BD9 JUMP JUMPDEST POP PUSH1 0x5 DUP4 ADD SLOAD SWAP1 POP PUSH2 0x5B28 DUP2 PUSH2 0x66D2 JUMP JUMPDEST PUSH2 0x5B36 PUSH2 0x100 DUP7 ADD DUP3 PUSH2 0x5CA9 JUMP JUMPDEST POP PUSH1 0x6 DUP4 ADD SLOAD SWAP1 POP PUSH2 0x5B47 DUP2 PUSH2 0x66D2 JUMP JUMPDEST PUSH2 0x5B55 PUSH2 0x120 DUP7 ADD DUP3 PUSH2 0x5CA9 JUMP JUMPDEST POP PUSH1 0x7 DUP4 ADD SLOAD SWAP1 POP PUSH2 0x5B66 DUP2 PUSH2 0x66D2 JUMP JUMPDEST PUSH2 0x5B74 PUSH2 0x140 DUP7 ADD DUP3 PUSH2 0x5CA9 JUMP JUMPDEST POP POP POP POP POP JUMP JUMPDEST PUSH1 0x40 DUP3 ADD PUSH1 0x0 DUP3 ADD MLOAD PUSH2 0x5B91 PUSH1 0x0 DUP6 ADD DUP3 PUSH2 0x5CE5 JUMP JUMPDEST POP PUSH1 0x20 DUP3 ADD MLOAD PUSH2 0x5BA4 PUSH1 0x20 DUP6 ADD DUP3 PUSH2 0x5CA9 JUMP JUMPDEST POP POP POP POP JUMP JUMPDEST PUSH1 0x40 DUP3 ADD PUSH1 0x0 DUP3 ADD MLOAD PUSH2 0x5BC0 PUSH1 0x0 DUP6 ADD DUP3 PUSH2 0x5CE5 JUMP JUMPDEST POP PUSH1 0x20 DUP3 ADD MLOAD PUSH2 0x5BD3 PUSH1 0x20 DUP6 ADD DUP3 PUSH2 0x5CA9 JUMP JUMPDEST POP POP POP POP JUMP JUMPDEST PUSH1 0x40 DUP3 ADD PUSH1 0x0 DUP1 DUP4 ADD SLOAD SWAP1 POP PUSH2 0x5BEE DUP2 PUSH2 0x6706 JUMP JUMPDEST PUSH2 0x5BFB PUSH1 0x0 DUP7 ADD DUP3 PUSH2 0x5CE5 JUMP JUMPDEST POP PUSH2 0x5C05 DUP2 PUSH2 0x673A JUMP JUMPDEST PUSH2 0x5C12 PUSH1 0x20 DUP7 ADD DUP3 PUSH2 0x5CA9 JUMP JUMPDEST POP POP POP POP POP JUMP JUMPDEST PUSH1 0x0 PUSH1 0xC0 DUP4 ADD PUSH1 0x0 DUP4 ADD MLOAD PUSH2 0x5C31 PUSH1 0x0 DUP7 ADD DUP3 PUSH2 0x5CC7 JUMP JUMPDEST POP PUSH1 0x20 DUP4 ADD MLOAD DUP5 DUP3 SUB PUSH1 0x20 DUP7 ADD MSTORE PUSH2 0x5C49 DUP3 DUP3 PUSH2 0x5382 JUMP JUMPDEST SWAP2 POP POP PUSH1 0x40 DUP4 ADD MLOAD PUSH2 0x5C5E PUSH1 0x40 DUP7 ADD DUP3 PUSH2 0x5CC7 JUMP JUMPDEST POP PUSH1 0x60 DUP4 ADD MLOAD PUSH2 0x5C71 PUSH1 0x60 DUP7 ADD DUP3 PUSH2 0x5CC7 JUMP JUMPDEST POP PUSH1 0x80 DUP4 ADD MLOAD DUP5 DUP3 SUB PUSH1 0x80 DUP7 ADD MSTORE PUSH2 0x5C89 DUP3 DUP3 PUSH2 0x5382 JUMP JUMPDEST SWAP2 POP POP PUSH1 0xA0 DUP4 ADD MLOAD PUSH2 0x5C9E PUSH1 0xA0 DUP7 ADD DUP3 PUSH2 0x52F7 JUMP JUMPDEST POP DUP1 SWAP2 POP POP SWAP3 SWAP2 POP POP JUMP JUMPDEST PUSH2 0x5CB2 DUP2 PUSH2 0x660E JUMP JUMPDEST DUP3 MSTORE POP POP JUMP JUMPDEST PUSH2 0x5CC1 DUP2 PUSH2 0x660E JUMP JUMPDEST DUP3 MSTORE POP POP JUMP JUMPDEST PUSH2 0x5CD0 DUP2 PUSH2 0x662E JUMP JUMPDEST DUP3 MSTORE POP POP JUMP JUMPDEST PUSH2 0x5CDF DUP2 PUSH2 0x662E JUMP JUMPDEST DUP3 MSTORE POP POP JUMP JUMPDEST PUSH2 0x5CEE DUP2 PUSH2 0x6638 JUMP JUMPDEST DUP3 MSTORE POP POP JUMP JUMPDEST PUSH2 0x5CFD DUP2 PUSH2 0x6638 JUMP JUMPDEST DUP3 MSTORE POP POP JUMP JUMPDEST PUSH2 0x5D0C DUP2 PUSH2 0x6648 JUMP JUMPDEST DUP3 MSTORE POP POP JUMP JUMPDEST PUSH2 0x5D1B DUP2 PUSH2 0x6648 JUMP JUMPDEST DUP3 MSTORE POP POP JUMP JUMPDEST PUSH2 0x5D2A DUP2 PUSH2 0x665C JUMP JUMPDEST DUP3 MSTORE POP POP JUMP JUMPDEST PUSH1 0x0 PUSH2 0x5D3C DUP3 DUP6 PUSH2 0x5333 JUMP JUMPDEST SWAP2 POP PUSH2 0x5D48 DUP3 DUP5 PUSH2 0x5333 JUMP JUMPDEST SWAP2 POP DUP2 SWAP1 POP SWAP4 SWAP3 POP POP POP JUMP JUMPDEST PUSH1 0x0 PUSH1 0x20 DUP3 ADD SWAP1 POP PUSH2 0x5D69 PUSH1 0x0 DUP4 ADD DUP5 PUSH2 0x5040 JUMP JUMPDEST SWAP3 SWAP2 POP POP JUMP JUMPDEST PUSH1 0x0 PUSH1 0x40 DUP3 ADD SWAP1 POP PUSH2 0x5D84 PUSH1 0x0 DUP4 ADD DUP6 PUSH2 0x5022 JUMP JUMPDEST PUSH2 0x5D91 PUSH1 0x20 DUP4 ADD DUP5 PUSH2 0x5040 JUMP JUMPDEST SWAP4 SWAP3 POP POP POP JUMP JUMPDEST PUSH1 0x0 PUSH1 0x60 DUP3 ADD SWAP1 POP PUSH2 0x5DAD PUSH1 0x0 DUP4 ADD DUP7 PUSH2 0x5022 JUMP JUMPDEST PUSH2 0x5DBA PUSH1 0x20 DUP4 ADD DUP6 PUSH2 0x5040 JUMP JUMPDEST PUSH2 0x5DC7 PUSH1 0x40 DUP4 ADD DUP5 PUSH2 0x5CD6 JUMP JUMPDEST SWAP5 SWAP4 POP POP POP POP JUMP JUMPDEST PUSH1 0x0 PUSH1 0xA0 DUP3 ADD SWAP1 POP PUSH2 0x5DE4 PUSH1 0x0 DUP4 ADD DUP9 PUSH2 0x5040 JUMP JUMPDEST PUSH2 0x5DF1 PUSH1 0x20 DUP4 ADD DUP8 PUSH2 0x5324 JUMP JUMPDEST DUP2 DUP2 SUB PUSH1 0x40 DUP4 ADD MSTORE PUSH2 0x5E03 DUP2 DUP7 PUSH2 0x5299 JUMP JUMPDEST SWAP1 POP DUP2 DUP2 SUB PUSH1 0x60 DUP4 ADD MSTORE PUSH2 0x5E17 DUP2 DUP6 PUSH2 0x504F JUMP JUMPDEST SWAP1 POP DUP2 DUP2 SUB PUSH1 0x80 DUP4 ADD MSTORE PUSH2 0x5E2B DUP2 DUP5 PUSH2 0x504F JUMP JUMPDEST SWAP1 POP SWAP7 SWAP6 POP POP POP POP POP POP JUMP JUMPDEST PUSH1 0x0 PUSH1 0x40 DUP3 ADD SWAP1 POP PUSH2 0x5E4C PUSH1 0x0 DUP4 ADD DUP6 PUSH2 0x5040 JUMP JUMPDEST PUSH2 0x5E59 PUSH1 0x20 DUP4 ADD DUP5 PUSH2 0x5CD6 JUMP JUMPDEST SWAP4 SWAP3 POP POP POP JUMP JUMPDEST PUSH1 0x0 PUSH1 0x20 DUP3 ADD SWAP1 POP DUP2 DUP2 SUB PUSH1 0x0 DUP4 ADD MSTORE PUSH2 0x5E7A DUP2 DUP5 PUSH2 0x510B JUMP JUMPDEST SWAP1 POP SWAP3 SWAP2 POP POP JUMP JUMPDEST PUSH1 0x0 PUSH1 0x20 DUP3 ADD SWAP1 POP DUP2 DUP2 SUB PUSH1 0x0 DUP4 ADD MSTORE PUSH2 0x5E9C DUP2 DUP5 PUSH2 0x51DE JUMP JUMPDEST SWAP1 POP SWAP3 SWAP2 POP POP JUMP JUMPDEST PUSH1 0x0 PUSH1 0x20 DUP3 ADD SWAP1 POP DUP2 DUP2 SUB PUSH1 0x0 DUP4 ADD MSTORE PUSH2 0x5EBE DUP2 DUP5 PUSH2 0x523C JUMP JUMPDEST SWAP1 POP SWAP3 SWAP2 POP POP JUMP JUMPDEST PUSH1 0x0 PUSH1 0x20 DUP3 ADD SWAP1 POP PUSH2 0x5EDB PUSH1 0x0 DUP4 ADD DUP5 PUSH2 0x5306 JUMP JUMPDEST SWAP3 SWAP2 POP POP JUMP JUMPDEST PUSH1 0x0 PUSH1 0x20 DUP3 ADD SWAP1 POP PUSH2 0x5EF6 PUSH1 0x0 DUP4 ADD DUP5 PUSH2 0x5324 JUMP JUMPDEST SWAP3 SWAP2 POP POP JUMP JUMPDEST PUSH1 0x0 PUSH1 0x20 DUP3 ADD SWAP1 POP DUP2 DUP2 SUB PUSH1 0x0 DUP4 ADD MSTORE PUSH2 0x5F16 DUP2 DUP5 PUSH2 0x53BB JUMP JUMPDEST SWAP1 POP SWAP3 SWAP2 POP POP JUMP JUMPDEST PUSH1 0x0 PUSH1 0x20 DUP3 ADD SWAP1 POP DUP2 DUP2 SUB PUSH1 0x0 DUP4 ADD MSTORE PUSH2 0x5F37 DUP2 PUSH2 0x53F4 JUMP JUMPDEST SWAP1 POP SWAP2 SWAP1 POP JUMP JUMPDEST PUSH1 0x0 PUSH1 0x20 DUP3 ADD SWAP1 POP DUP2 DUP2 SUB PUSH1 0x0 DUP4 ADD MSTORE PUSH2 0x5F57 DUP2 PUSH2 0x545A JUMP JUMPDEST SWAP1 POP SWAP2 SWAP1 POP JUMP JUMPDEST PUSH1 0x0 PUSH1 0x20 DUP3 ADD SWAP1 POP DUP2 DUP2 SUB PUSH1 0x0 DUP4 ADD MSTORE PUSH2 0x5F77 DUP2 PUSH2 0x549A JUMP JUMPDEST SWAP1 POP SWAP2 SWAP1 POP JUMP JUMPDEST PUSH1 0x0 PUSH1 0x20 DUP3 ADD SWAP1 POP DUP2 DUP2 SUB PUSH1 0x0 DUP4 ADD MSTORE PUSH2 0x5F97 DUP2 PUSH2 0x54DA JUMP JUMPDEST SWAP1 POP SWAP2 SWAP1 POP JUMP JUMPDEST PUSH1 0x0 PUSH1 0x20 DUP3 ADD SWAP1 POP DUP2 DUP2 SUB PUSH1 0x0 DUP4 ADD MSTORE PUSH2 0x5FB7 DUP2 PUSH2 0x5566 JUMP JUMPDEST SWAP1 POP SWAP2 SWAP1 POP JUMP JUMPDEST PUSH1 0x0 PUSH1 0x20 DUP3 ADD SWAP1 POP DUP2 DUP2 SUB PUSH1 0x0 DUP4 ADD MSTORE PUSH2 0x5FD7 DUP2 PUSH2 0x55CC JUMP JUMPDEST SWAP1 POP SWAP2 SWAP1 POP JUMP JUMPDEST PUSH1 0x0 PUSH1 0x20 DUP3 ADD SWAP1 POP DUP2 DUP2 SUB PUSH1 0x0 DUP4 ADD MSTORE PUSH2 0x5FF7 DUP2 PUSH2 0x5632 JUMP JUMPDEST SWAP1 POP SWAP2 SWAP1 POP JUMP JUMPDEST PUSH1 0x0 PUSH1 0x20 DUP3 ADD SWAP1 POP DUP2 DUP2 SUB PUSH1 0x0 DUP4 ADD MSTORE PUSH2 0x6017 DUP2 PUSH2 0x56BE JUMP JUMPDEST SWAP1 POP SWAP2 SWAP1 POP JUMP JUMPDEST PUSH1 0x0 PUSH1 0x20 DUP3 ADD SWAP1 POP DUP2 DUP2 SUB PUSH1 0x0 DUP4 ADD MSTORE PUSH2 0x6038 DUP2 DUP5 PUSH2 0x5724 JUMP JUMPDEST SWAP1 POP SWAP3 SWAP2 POP POP JUMP JUMPDEST PUSH1 0x0 PUSH1 0x20 DUP3 ADD SWAP1 POP DUP2 DUP2 SUB PUSH1 0x0 DUP4 ADD MSTORE PUSH2 0x605A DUP2 DUP5 PUSH2 0x5961 JUMP JUMPDEST SWAP1 POP SWAP3 SWAP2 POP POP JUMP JUMPDEST PUSH1 0x0 PUSH1 0x20 DUP3 ADD SWAP1 POP DUP2 DUP2 SUB PUSH1 0x0 DUP4 ADD MSTORE PUSH2 0x607C DUP2 DUP5 PUSH2 0x5C19 JUMP JUMPDEST SWAP1 POP SWAP3 SWAP2 POP POP JUMP JUMPDEST PUSH1 0x0 PUSH1 0x20 DUP3 ADD SWAP1 POP PUSH2 0x6099 PUSH1 0x0 DUP4 ADD DUP5 PUSH2 0x5CB8 JUMP JUMPDEST SWAP3 SWAP2 POP POP JUMP JUMPDEST PUSH1 0x0 PUSH1 0x60 DUP3 ADD SWAP1 POP PUSH2 0x60B4 PUSH1 0x0 DUP4 ADD DUP7 PUSH2 0x5CB8 JUMP JUMPDEST PUSH2 0x60C1 PUSH1 0x20 DUP4 ADD DUP6 PUSH2 0x5D12 JUMP JUMPDEST PUSH2 0x60CE PUSH1 0x40 DUP4 ADD DUP5 PUSH2 0x5CB8 JUMP JUMPDEST SWAP5 SWAP4 POP POP POP POP JUMP JUMPDEST PUSH1 0x0 PUSH1 0x20 DUP3 ADD SWAP1 POP PUSH2 0x60EB PUSH1 0x0 DUP4 ADD DUP5 PUSH2 0x5CD6 JUMP JUMPDEST SWAP3 SWAP2 POP POP JUMP JUMPDEST PUSH1 0x0 PUSH1 0x40 DUP3 ADD SWAP1 POP PUSH2 0x6106 PUSH1 0x0 DUP4 ADD DUP6 PUSH2 0x5CD6 JUMP JUMPDEST PUSH2 0x6113 PUSH1 0x20 DUP4 ADD DUP5 PUSH2 0x5306 JUMP JUMPDEST SWAP4 SWAP3 POP POP POP JUMP JUMPDEST PUSH1 0x0 PUSH2 0x160 DUP3 ADD SWAP1 POP PUSH2 0x6130 PUSH1 0x0 DUP4 ADD DUP13 PUSH2 0x5CF4 JUMP JUMPDEST PUSH2 0x613D PUSH1 0x20 DUP4 ADD DUP12 PUSH2 0x588F JUMP JUMPDEST PUSH2 0x614A PUSH1 0x60 DUP4 ADD DUP11 PUSH2 0x5CF4 JUMP JUMPDEST PUSH2 0x6157 PUSH1 0x80 DUP4 ADD DUP10 PUSH2 0x5CB8 JUMP JUMPDEST PUSH2 0x6164 PUSH1 0xA0 DUP4 ADD DUP9 PUSH2 0x5CD6 JUMP JUMPDEST PUSH2 0x6171 PUSH1 0xC0 DUP4 ADD DUP8 PUSH2 0x5BAA JUMP JUMPDEST PUSH2 0x617F PUSH2 0x100 DUP4 ADD DUP7 PUSH2 0x5CB8 JUMP JUMPDEST PUSH2 0x618D PUSH2 0x120 DUP4 ADD DUP6 PUSH2 0x5CB8 JUMP JUMPDEST PUSH2 0x619B PUSH2 0x140 DUP4 ADD DUP5 PUSH2 0x5CB8 JUMP JUMPDEST SWAP11 SWAP10 POP POP POP POP POP POP POP POP POP POP JUMP JUMPDEST PUSH1 0x0 PUSH2 0x160 DUP3 ADD SWAP1 POP PUSH2 0x61BF PUSH1 0x0 DUP4 ADD DUP15 PUSH2 0x5CF4 JUMP JUMPDEST PUSH2 0x61CC PUSH1 0x20 DUP4 ADD DUP14 PUSH2 0x5CF4 JUMP JUMPDEST PUSH2 0x61D9 PUSH1 0x40 DUP4 ADD DUP13 PUSH2 0x5CB8 JUMP JUMPDEST PUSH2 0x61E6 PUSH1 0x60 DUP4 ADD DUP12 PUSH2 0x5CF4 JUMP JUMPDEST PUSH2 0x61F3 PUSH1 0x80 DUP4 ADD DUP11 PUSH2 0x5CF4 JUMP JUMPDEST PUSH2 0x6200 PUSH1 0xA0 DUP4 ADD DUP10 PUSH2 0x5CB8 JUMP JUMPDEST PUSH2 0x620D PUSH1 0xC0 DUP4 ADD DUP9 PUSH2 0x5CB8 JUMP JUMPDEST PUSH2 0x621A PUSH1 0xE0 DUP4 ADD DUP8 PUSH2 0x5373 JUMP JUMPDEST PUSH2 0x6228 PUSH2 0x100 DUP4 ADD DUP7 PUSH2 0x5CD6 JUMP JUMPDEST PUSH2 0x6236 PUSH2 0x120 DUP4 ADD DUP6 PUSH2 0x5040 JUMP JUMPDEST PUSH2 0x6244 PUSH2 0x140 DUP4 ADD DUP5 PUSH2 0x5373 JUMP JUMPDEST SWAP13 SWAP12 POP POP POP POP POP POP POP POP POP POP POP POP JUMP JUMPDEST PUSH1 0x0 PUSH1 0x40 MLOAD SWAP1 POP DUP2 DUP2 ADD DUP2 DUP2 LT PUSH8 0xFFFFFFFFFFFFFFFF DUP3 GT OR ISZERO PUSH2 0x627B JUMPI PUSH2 0x627A PUSH2 0x6754 JUMP JUMPDEST JUMPDEST DUP1 PUSH1 0x40 MSTORE POP SWAP2 SWAP1 POP JUMP JUMPDEST PUSH1 0x0 PUSH8 0xFFFFFFFFFFFFFFFF DUP3 GT ISZERO PUSH2 0x62A0 JUMPI PUSH2 0x629F PUSH2 0x6754 JUMP JUMPDEST JUMPDEST PUSH1 0x20 DUP3 MUL SWAP1 POP PUSH1 0x20 DUP2 ADD SWAP1 POP SWAP2 SWAP1 POP JUMP JUMPDEST PUSH1 0x0 PUSH8 0xFFFFFFFFFFFFFFFF DUP3 GT ISZERO PUSH2 0x62CC JUMPI PUSH2 0x62CB PUSH2 0x6754 JUMP JUMPDEST JUMPDEST PUSH1 0x20 DUP3 MUL SWAP1 POP PUSH1 0x20 DUP2 ADD SWAP1 POP SWAP2 SWAP1 POP JUMP JUMPDEST PUSH1 0x0 PUSH8 0xFFFFFFFFFFFFFFFF DUP3 GT ISZERO PUSH2 0x62F8 JUMPI PUSH2 0x62F7 PUSH2 0x6754 JUMP JUMPDEST JUMPDEST PUSH1 0x20 DUP3 MUL SWAP1 POP PUSH1 0x20 DUP2 ADD SWAP1 POP SWAP2 SWAP1 POP JUMP JUMPDEST PUSH1 0x0 PUSH8 0xFFFFFFFFFFFFFFFF DUP3 GT ISZERO PUSH2 0x6324 JUMPI PUSH2 0x6323 PUSH2 0x6754 JUMP JUMPDEST JUMPDEST PUSH1 0x20 DUP3 MUL SWAP1 POP PUSH1 0x20 DUP2 ADD SWAP1 POP SWAP2 SWAP1 POP JUMP JUMPDEST PUSH1 0x0 PUSH8 0xFFFFFFFFFFFFFFFF DUP3 GT ISZERO PUSH2 0x6350 JUMPI PUSH2 0x634F PUSH2 0x6754 JUMP JUMPDEST JUMPDEST PUSH1 0x20 DUP3 MUL SWAP1 POP PUSH1 0x20 DUP2 ADD SWAP1 POP SWAP2 SWAP1 POP JUMP JUMPDEST PUSH1 0x0 PUSH8 0xFFFFFFFFFFFFFFFF DUP3 GT ISZERO PUSH2 0x637C JUMPI PUSH2 0x637B PUSH2 0x6754 JUMP JUMPDEST JUMPDEST PUSH1 0x20 DUP3 MUL SWAP1 POP PUSH1 0x20 DUP2 ADD SWAP1 POP SWAP2 SWAP1 POP JUMP JUMPDEST PUSH1 0x0 PUSH8 0xFFFFFFFFFFFFFFFF DUP3 GT ISZERO PUSH2 0x63A8 JUMPI PUSH2 0x63A7 PUSH2 0x6754 JUMP JUMPDEST JUMPDEST PUSH1 0x1F NOT PUSH1 0x1F DUP4 ADD AND SWAP1 POP PUSH1 0x20 DUP2 ADD SWAP1 POP SWAP2 SWAP1 POP JUMP JUMPDEST PUSH1 0x0 PUSH8 0xFFFFFFFFFFFFFFFF DUP3 GT ISZERO PUSH2 0x63D8 JUMPI PUSH2 0x63D7 PUSH2 0x6754 JUMP JUMPDEST JUMPDEST PUSH1 0x1F NOT PUSH1 0x1F DUP4 ADD AND SWAP1 POP PUSH1 0x20 DUP2 ADD SWAP1 POP SWAP2 SWAP1 POP JUMP JUMPDEST PUSH1 0x0 DUP2 SWAP1 POP PUSH1 0x20 DUP3 ADD SWAP1 POP SWAP2 SWAP1 POP JUMP JUMPDEST PUSH1 0x0 DUP2 SWAP1 POP PUSH1 0x20 DUP3 ADD SWAP1 POP SWAP2 SWAP1 POP JUMP JUMPDEST PUSH1 0x0 DUP2 SWAP1 POP PUSH1 0x20 DUP3 ADD SWAP1 POP SWAP2 SWAP1 POP JUMP JUMPDEST PUSH1 0x0 DUP2 SWAP1 POP PUSH1 0x20 DUP3 ADD SWAP1 POP SWAP2 SWAP1 POP JUMP JUMPDEST PUSH1 0x0 DUP2 SWAP1 POP DUP2 PUSH1 0x0 MSTORE PUSH1 0x20 PUSH1 0x0 KECCAK256 SWAP1 POP SWAP2 SWAP1 POP JUMP JUMPDEST PUSH1 0x0 DUP2 SWAP1 POP PUSH1 0x20 DUP3 ADD SWAP1 POP SWAP2 SWAP1 POP JUMP JUMPDEST PUSH1 0x0 DUP2 MLOAD SWAP1 POP SWAP2 SWAP1 POP JUMP JUMPDEST PUSH1 0x0 DUP2 MLOAD SWAP1 POP SWAP2 SWAP1 POP JUMP JUMPDEST PUSH1 0x0 DUP2 MLOAD SWAP1 POP SWAP2 SWAP1 POP JUMP JUMPDEST PUSH1 0x0 DUP2 MLOAD SWAP1 POP SWAP2 SWAP1 POP JUMP JUMPDEST PUSH1 0x0 DUP2 SLOAD SWAP1 POP SWAP2 SWAP1 POP JUMP JUMPDEST PUSH1 0x0 DUP2 MLOAD SWAP1 POP SWAP2 SWAP1 POP JUMP JUMPDEST PUSH1 0x0 DUP2 MLOAD SWAP1 POP SWAP2 SWAP1 POP JUMP JUMPDEST PUSH1 0x0 DUP2 MLOAD SWAP1 POP SWAP2 SWAP1 POP JUMP JUMPDEST PUSH1 0x0 PUSH1 0x20 DUP3 ADD SWAP1 POP SWAP2 SWAP1 POP JUMP JUMPDEST PUSH1 0x0 PUSH1 0x20 DUP3 ADD SWAP1 POP SWAP2 SWAP1 POP JUMP JUMPDEST PUSH1 0x0 PUSH1 0x20 DUP3 ADD SWAP1 POP SWAP2 SWAP1 POP JUMP JUMPDEST PUSH1 0x0 PUSH1 0x20 DUP3 ADD SWAP1 POP SWAP2 SWAP1 POP JUMP JUMPDEST PUSH1 0x0 PUSH1 0x8 DUP3 ADD SWAP1 POP SWAP2 SWAP1 POP JUMP JUMPDEST PUSH1 0x0 PUSH1 0x20 DUP3 ADD SWAP1 POP SWAP2 SWAP1 POP JUMP JUMPDEST PUSH1 0x0 DUP3 DUP3 MSTORE PUSH1 0x20 DUP3 ADD SWAP1 POP SWAP3 SWAP2 POP POP JUMP JUMPDEST PUSH1 0x0 DUP3 DUP3 MSTORE PUSH1 0x20 DUP3 ADD SWAP1 POP SWAP3 SWAP2 POP POP JUMP JUMPDEST PUSH1 0x0 DUP3 DUP3 MSTORE PUSH1 0x20 DUP3 ADD SWAP1 POP SWAP3 SWAP2 POP POP JUMP JUMPDEST PUSH1 0x0 DUP3 DUP3 MSTORE PUSH1 0x20 DUP3 ADD SWAP1 POP SWAP3 SWAP2 POP POP JUMP JUMPDEST PUSH1 0x0 DUP3 DUP3 MSTORE PUSH1 0x20 DUP3 ADD SWAP1 POP SWAP3 SWAP2 POP POP JUMP JUMPDEST PUSH1 0x0 DUP3 DUP3 MSTORE PUSH1 0x20 DUP3 ADD SWAP1 POP SWAP3 SWAP2 POP POP JUMP JUMPDEST PUSH1 0x0 DUP2 SWAP1 POP SWAP3 SWAP2 POP POP JUMP JUMPDEST PUSH1 0x0 DUP3 DUP3 MSTORE PUSH1 0x20 DUP3 ADD SWAP1 POP SWAP3 SWAP2 POP POP JUMP JUMPDEST PUSH1 0x0 DUP3 DUP3 MSTORE PUSH1 0x20 DUP3 ADD SWAP1 POP SWAP3 SWAP2 POP POP JUMP JUMPDEST PUSH1 0x0 PUSH20 0xFFFFFFFFFFFFFFFFFFFFFFFFFFFFFFFFFFFFFFFF DUP3 AND SWAP1 POP SWAP2 SWAP1 POP JUMP JUMPDEST PUSH1 0x0 DUP2 SWAP1 POP SWAP2 SWAP1 POP JUMP JUMPDEST PUSH1 0x0 PUSH4 0xFFFFFFFF DUP3 AND SWAP1 POP SWAP2 SWAP1 POP JUMP JUMPDEST PUSH1 0x0 PUSH8 0xFFFFFFFFFFFFFFFF DUP3 AND SWAP1 POP SWAP2 SWAP1 POP JUMP JUMPDEST PUSH1 0x0 PUSH2 0x65E4 DUP3 PUSH2 0x660E JUMP JUMPDEST SWAP1 POP SWAP2 SWAP1 POP JUMP JUMPDEST PUSH1 0x0 DUP2 ISZERO ISZERO SWAP1 POP SWAP2 SWAP1 POP JUMP JUMPDEST PUSH1 0x0 DUP2 SWAP1 POP SWAP2 SWAP1 POP JUMP JUMPDEST PUSH1 0x0 DUP2 PUSH1 0x3 SIGNEXTEND SWAP1 POP SWAP2 SWAP1 POP JUMP JUMPDEST PUSH1 0x0 PUSH20 0xFFFFFFFFFFFFFFFFFFFFFFFFFFFFFFFFFFFFFFFF DUP3 AND SWAP1 POP SWAP2 SWAP1 POP JUMP JUMPDEST PUSH1 0x0 DUP2 SWAP1 POP SWAP2 SWAP1 POP JUMP JUMPDEST PUSH1 0x0 PUSH4 0xFFFFFFFF DUP3 AND SWAP1 POP SWAP2 SWAP1 POP JUMP JUMPDEST PUSH1 0x0 PUSH8 0xFFFFFFFFFFFFFFFF DUP3 AND SWAP1 POP SWAP2 SWAP1 POP JUMP JUMPDEST PUSH1 0x0 PUSH1 0xFF DUP3 AND SWAP1 POP SWAP2 SWAP1 POP JUMP JUMPDEST PUSH1 0x0 PUSH2 0x6674 DUP3 PUSH2 0x667B JUMP JUMPDEST SWAP1 POP SWAP2 SWAP1 POP JUMP JUMPDEST PUSH1 0x0 PUSH2 0x6686 DUP3 PUSH2 0x668D JUMP JUMPDEST SWAP1 POP SWAP2 SWAP1 POP JUMP JUMPDEST PUSH1 0x0 PUSH2 0x6698 DUP3 PUSH2 0x660E JUMP JUMPDEST SWAP1 POP SWAP2 SWAP1 POP JUMP JUMPDEST PUSH1 0x0 JUMPDEST DUP4 DUP2 LT ISZERO PUSH2 0x66BD JUMPI DUP1 DUP3 ADD MLOAD DUP2 DUP5 ADD MSTORE PUSH1 0x20 DUP2 ADD SWAP1 POP PUSH2 0x66A2 JUMP JUMPDEST DUP4 DUP2 GT ISZERO PUSH2 0x66CC JUMPI PUSH1 0x0 DUP5 DUP5 ADD MSTORE JUMPDEST POP POP POP POP JUMP JUMPDEST PUSH1 0x0 PUSH2 0x66E5 PUSH2 0x66E0 DUP4 PUSH2 0x6767 JUMP JUMPDEST PUSH2 0x658B JUMP JUMPDEST SWAP1 POP SWAP2 SWAP1 POP JUMP JUMPDEST PUSH1 0x0 PUSH2 0x66FF PUSH2 0x66FA DUP4 PUSH2 0x6767 JUMP JUMPDEST PUSH2 0x65AB JUMP JUMPDEST SWAP1 POP SWAP2 SWAP1 POP JUMP JUMPDEST PUSH1 0x0 PUSH2 0x6719 PUSH2 0x6714 DUP4 PUSH2 0x6767 JUMP JUMPDEST PUSH2 0x65B5 JUMP JUMPDEST SWAP1 POP SWAP2 SWAP1 POP JUMP JUMPDEST PUSH1 0x0 PUSH2 0x6733 PUSH2 0x672E DUP4 PUSH2 0x6774 JUMP JUMPDEST PUSH2 0x65C5 JUMP JUMPDEST SWAP1 POP SWAP2 SWAP1 POP JUMP JUMPDEST PUSH1 0x0 PUSH2 0x674D PUSH2 0x6748 DUP4 PUSH2 0x6781 JUMP JUMPDEST PUSH2 0x658B JUMP JUMPDEST SWAP1 POP SWAP2 SWAP1 POP JUMP JUMPDEST INVALID JUMPDEST PUSH1 0x0 PUSH1 0x1F NOT PUSH1 0x1F DUP4 ADD AND SWAP1 POP SWAP2 SWAP1 POP JUMP JUMPDEST PUSH1 0x0 DUP2 PUSH1 0x0 SHR SWAP1 POP SWAP2 SWAP1 POP JUMP JUMPDEST PUSH1 0x0 DUP2 PUSH1 0xA0 SHR SWAP1 POP SWAP2 SWAP1 POP JUMP JUMPDEST PUSH1 0x0 DUP2 PUSH1 0x20 SHR SWAP1 POP SWAP2 SWAP1 POP JUMP JUMPDEST PUSH2 0x6797 DUP2 PUSH2 0x65D9 JUMP JUMPDEST DUP2 EQ PUSH2 0x67A2 JUMPI PUSH1 0x0 DUP1 REVERT JUMPDEST POP JUMP JUMPDEST PUSH2 0x67AE DUP2 PUSH2 0x65EB JUMP JUMPDEST DUP2 EQ PUSH2 0x67B9 JUMPI PUSH1 0x0 DUP1 REVERT JUMPDEST POP JUMP JUMPDEST PUSH2 0x67C5 DUP2 PUSH2 0x65F7 JUMP JUMPDEST DUP2 EQ PUSH2 0x67D0 JUMPI PUSH1 0x0 DUP1 REVERT JUMPDEST POP JUMP JUMPDEST PUSH2 0x67DC DUP2 PUSH2 0x6601 JUMP JUMPDEST DUP2 EQ PUSH2 0x67E7 JUMPI PUSH1 0x0 DUP1 REVERT JUMPDEST POP JUMP JUMPDEST PUSH2 0x67F3 DUP2 PUSH2 0x660E JUMP JUMPDEST DUP2 EQ PUSH2 0x67FE JUMPI PUSH1 0x0 DUP1 REVERT JUMPDEST POP JUMP JUMPDEST PUSH2 0x680A DUP2 PUSH2 0x662E JUMP JUMPDEST DUP2 EQ PUSH2 0x6815 JUMPI PUSH1 0x0 DUP1 REVERT JUMPDEST POP JUMP JUMPDEST PUSH2 0x6821 DUP2 PUSH2 0x6638 JUMP JUMPDEST DUP2 EQ PUSH2 0x682C JUMPI PUSH1 0x0 DUP1 REVERT JUMPDEST POP JUMP JUMPDEST PUSH2 0x6838 DUP2 PUSH2 0x6648 JUMP JUMPDEST DUP2 EQ PUSH2 0x6843 JUMPI PUSH1 0x0 DUP1 REVERT JUMPDEST POP JUMP JUMPDEST PUSH2 0x684F DUP2 PUSH2 0x665C JUMP JUMPDEST DUP2 EQ PUSH2 0x685A JUMPI PUSH1 0x0 DUP1 REVERT JUMPDEST POP JUMP INVALID LOG2 PUSH5 0x6970667358 0x22 SLT KECCAK256 0xB7 0x2D PUSH8 0xD941E3851052C0AB JUMP 0x25 0xE9 ISZERO TIMESTAMP DUP4 GAS 0xEC DUP9 STOP LOG4 LOG2 PUSH31 0x5089B65E459EC03564736F6C63430007060033000000000000000000000000 "
		},
		"gasEstimates": {
			"creation": {
				"codeDepositCost": "5354200",
				"executionCost": "infinite",
				"totalCost": "infinite"
			},
			"external": {
				"EthSystemID()": "1282",
				"RewardAddress()": "1217",
				"VEth()": "1216",
				"VerusCurrencyId()": "1260",
				"VerusSystemId()": "1239",
				"_createCCrossChainExport(uint256)": "infinite",
				"_readyExports(uint256,uint256)": "infinite",
				"chainName()": "infinite",
				"claimFees()": "infinite",
				"claimableFees(address)": "1582",
				"deprecate(address,bytes32,uint8[],bytes32[],bytes32[])": "infinite",
				"deprecated()": "1268",
				"ethHeld()": "1196",
				"exportERC20(uint64,address,uint160,uint160,uint256,uint160,uint160,uint160)": "infinite",
				"exportETH(uint160,uint160,uint256,uint160,uint160)": "infinite",
				"feesHeld()": "1219",
				"getReadyExports(uint256)": "infinite",
				"getReadyExportsByBlock(uint256)": "infinite",
				"getReadyExportsByRange(uint256,uint256)": "infinite",
				"getReadyExportsIndex()": "2124",
				"getcurrency(uint160)": "infinite",
				"getinfo()": "infinite",
				"poolSize()": "1218",
				"processedImportSetHashes(bytes32)": "1510",
				"readyCCEs(uint256)": "infinite",
				"readyExportHashes(uint256)": "2326",
				"readyExportsByBlock(uint256)": "infinite",
				"submitImports((uint256,bytes32,uint256,(uint32,uint32,uint160,uint32,uint32,uint160,uint160,int32,(uint160,uint64)[],(uint160,uint64)[],uint256,(uint160,uint64)[],address,int32),bytes32[],(uint32,(uint160,uint64),uint32,uint160,uint256,(uint32,uint160),uint160,uint160,uint160)[])[])": "infinite",
				"upgradedAddress()": "1304"
			},
			"internal": {
				"_createExports(struct VerusObjects.CReserveTransfer memory)": "infinite",
				"_createImports(struct VerusObjects.CReserveTransferImport memory)": "infinite",
				"isPoolAvailable(uint256,uint160)": "infinite",
				"sendEth(uint256,address payable)": "infinite"
			}
		},
		"methodIdentifiers": {
			"EthSystemID()": "e39f448a",
			"RewardAddress()": "6bbfff00",
			"VEth()": "40b61d30",
			"VerusCurrencyId()": "b332d1e0",
			"VerusSystemId()": "34ed5057",
			"_createCCrossChainExport(uint256)": "55617180",
			"_readyExports(uint256,uint256)": "7e3e661b",
			"chainName()": "1c93b03a",
			"claimFees()": "d294f093",
			"claimableFees(address)": "7e0b2492",
			"deprecate(address,bytes32,uint8[],bytes32[],bytes32[])": "17c86875",
			"deprecated()": "0e136b19",
			"ethHeld()": "42ce5011",
			"exportERC20(uint64,address,uint160,uint160,uint256,uint160,uint160,uint160)": "f8ab921e",
			"exportETH(uint160,uint160,uint256,uint160,uint160)": "e7ffdd96",
			"feesHeld()": "3f067b20",
			"getReadyExports(uint256)": "bf59a1a3",
			"getReadyExportsByBlock(uint256)": "2a9e72a6",
			"getReadyExportsByRange(uint256,uint256)": "e4804abc",
			"getReadyExportsIndex()": "c9945397",
			"getcurrency(uint160)": "2d49ea54",
			"getinfo()": "1a2d8629",
			"poolSize()": "4ec18db9",
			"processedImportSetHashes(bytes32)": "9e3856c6",
			"readyCCEs(uint256)": "a5f8cf60",
			"readyExportHashes(uint256)": "e45b909d",
			"readyExportsByBlock(uint256)": "c17a4eef",
			"submitImports((uint256,bytes32,uint256,(uint32,uint32,uint160,uint32,uint32,uint160,uint160,int32,(uint160,uint64)[],(uint160,uint64)[],uint256,(uint160,uint64)[],address,int32),bytes32[],(uint32,(uint160,uint64),uint32,uint160,uint256,(uint32,uint160),uint160,uint160,uint160)[])[])": "1fb51362",
			"upgradedAddress()": "26976e3f"
		}
	},
	"abi": [
		{
			"inputs": [
				{
					"internalType": "address",
					"name": "verusProofAddress",
					"type": "address"
				},
				{
					"internalType": "address",
					"name": "tokenManagerAddress",
					"type": "address"
				},
				{
					"internalType": "address",
					"name": "verusSerializerAddress",
					"type": "address"
				},
				{
					"internalType": "address",
					"name": "verusBLAKE2bAddress",
					"type": "address"
				},
				{
					"internalType": "address",
					"name": "verusNotarizerAddress",
					"type": "address"
				},
				{
					"internalType": "address",
					"name": "verusCCEAddress",
					"type": "address"
				},
				{
					"components": [
						{
							"internalType": "uint256",
							"name": "version",
							"type": "uint256"
						},
						{
							"internalType": "string",
							"name": "VRSCversion",
							"type": "string"
						},
						{
							"internalType": "uint256",
							"name": "blocks",
							"type": "uint256"
						},
						{
							"internalType": "uint256",
							"name": "tiptime",
							"type": "uint256"
						},
						{
							"internalType": "string",
							"name": "name",
							"type": "string"
						},
						{
							"internalType": "bool",
							"name": "testnet",
							"type": "bool"
						}
					],
					"internalType": "struct VerusBridge.infoDetails",
					"name": "_chainInfo",
					"type": "tuple"
				},
				{
					"internalType": "uint256",
					"name": "_poolSize",
					"type": "uint256"
				}
			],
			"stateMutability": "nonpayable",
			"type": "constructor"
		},
		{
			"anonymous": false,
			"inputs": [
				{
					"components": [
						{
							"internalType": "uint32",
							"name": "version",
							"type": "uint32"
						},
						{
							"internalType": "uint32",
							"name": "flags",
							"type": "uint32"
						},
						{
							"internalType": "uint160",
							"name": "sourcesystemid",
							"type": "uint160"
						},
						{
							"internalType": "uint32",
							"name": "sourceheightstart",
							"type": "uint32"
						},
						{
							"internalType": "uint32",
							"name": "sourceheightend",
							"type": "uint32"
						},
						{
							"internalType": "uint160",
							"name": "destinationsystemid",
							"type": "uint160"
						},
						{
							"internalType": "uint160",
							"name": "destinationcurrencyid",
							"type": "uint160"
						},
						{
							"internalType": "int32",
							"name": "numinputs",
							"type": "int32"
						},
						{
							"components": [
								{
									"internalType": "uint160",
									"name": "currency",
									"type": "uint160"
								},
								{
									"internalType": "uint64",
									"name": "amount",
									"type": "uint64"
								}
							],
							"internalType": "struct VerusObjects.CCurrencyValueMap[]",
							"name": "totalamounts",
							"type": "tuple[]"
						},
						{
							"components": [
								{
									"internalType": "uint160",
									"name": "currency",
									"type": "uint160"
								},
								{
									"internalType": "uint64",
									"name": "amount",
									"type": "uint64"
								}
							],
							"internalType": "struct VerusObjects.CCurrencyValueMap[]",
							"name": "totalfees",
							"type": "tuple[]"
						},
						{
							"internalType": "uint256",
							"name": "hashtransfers",
							"type": "uint256"
						},
						{
							"components": [
								{
									"internalType": "uint160",
									"name": "currency",
									"type": "uint160"
								},
								{
									"internalType": "uint64",
									"name": "amount",
									"type": "uint64"
								}
							],
							"internalType": "struct VerusObjects.CCurrencyValueMap[]",
							"name": "totalburned",
							"type": "tuple[]"
						},
						{
							"internalType": "address",
							"name": "rewardaddress",
							"type": "address"
						},
						{
							"internalType": "int32",
							"name": "firstinput",
							"type": "int32"
						}
					],
					"indexed": false,
					"internalType": "struct VerusObjects.CCrossChainExport",
					"name": "CCE",
					"type": "tuple"
				}
			],
			"name": "CrossChainExport",
			"type": "event"
		},
		{
			"anonymous": false,
			"inputs": [
				{
					"indexed": false,
					"internalType": "address",
					"name": "newAddress",
					"type": "address"
				}
			],
			"name": "Deprecate",
			"type": "event"
		},
		{
			"anonymous": false,
			"inputs": [
				{
					"indexed": false,
					"internalType": "uint256",
					"name": "index",
					"type": "uint256"
				}
			],
			"name": "ExportsReady",
			"type": "event"
		},
		{
			"anonymous": false,
			"inputs": [
				{
					"components": [
						{
							"internalType": "uint32",
							"name": "version",
							"type": "uint32"
						},
						{
							"components": [
								{
									"internalType": "uint160",
									"name": "currency",
									"type": "uint160"
								},
								{
									"internalType": "uint64",
									"name": "amount",
									"type": "uint64"
								}
							],
							"internalType": "struct VerusObjects.CCurrencyValueMap",
							"name": "currencyvalues",
							"type": "tuple"
						},
						{
							"internalType": "uint32",
							"name": "flags",
							"type": "uint32"
						},
						{
							"internalType": "uint160",
							"name": "feecurrencyid",
							"type": "uint160"
						},
						{
							"internalType": "uint256",
							"name": "fees",
							"type": "uint256"
						},
						{
							"components": [
								{
									"internalType": "uint32",
									"name": "destinationtype",
									"type": "uint32"
								},
								{
									"internalType": "uint160",
									"name": "destinationaddress",
									"type": "uint160"
								}
							],
							"internalType": "struct VerusObjects.CTransferDestination",
							"name": "destination",
							"type": "tuple"
						},
						{
							"internalType": "uint160",
							"name": "destCurrencyID",
							"type": "uint160"
						},
						{
							"internalType": "uint160",
							"name": "secondReserveID",
							"type": "uint160"
						},
						{
							"internalType": "uint160",
							"name": "destSystemID",
							"type": "uint160"
						}
					],
					"indexed": false,
					"internalType": "struct VerusObjects.CReserveTransfer",
					"name": "transaction",
					"type": "tuple"
				}
			],
			"name": "ReceivedTransfer",
			"type": "event"
		},
		{
			"inputs": [],
			"name": "EthSystemID",
			"outputs": [
				{
					"internalType": "uint160",
					"name": "",
					"type": "uint160"
				}
			],
			"stateMutability": "view",
			"type": "function"
		},
		{
			"inputs": [],
			"name": "RewardAddress",
			"outputs": [
				{
					"internalType": "uint160",
					"name": "",
					"type": "uint160"
				}
			],
			"stateMutability": "view",
			"type": "function"
		},
		{
			"inputs": [],
			"name": "VEth",
			"outputs": [
				{
					"internalType": "uint160",
					"name": "",
					"type": "uint160"
				}
			],
			"stateMutability": "view",
			"type": "function"
		},
		{
			"inputs": [],
			"name": "VerusCurrencyId",
			"outputs": [
				{
					"internalType": "uint160",
					"name": "",
					"type": "uint160"
				}
			],
			"stateMutability": "view",
			"type": "function"
		},
		{
			"inputs": [],
			"name": "VerusSystemId",
			"outputs": [
				{
					"internalType": "uint160",
					"name": "",
					"type": "uint160"
				}
			],
			"stateMutability": "view",
			"type": "function"
		},
		{
			"inputs": [
				{
					"internalType": "uint256",
					"name": "exportIndex",
					"type": "uint256"
				}
			],
			"name": "_createCCrossChainExport",
			"outputs": [
				{
					"components": [
						{
							"internalType": "uint32",
							"name": "version",
							"type": "uint32"
						},
						{
							"internalType": "uint32",
							"name": "flags",
							"type": "uint32"
						},
						{
							"internalType": "uint160",
							"name": "sourcesystemid",
							"type": "uint160"
						},
						{
							"internalType": "uint32",
							"name": "sourceheightstart",
							"type": "uint32"
						},
						{
							"internalType": "uint32",
							"name": "sourceheightend",
							"type": "uint32"
						},
						{
							"internalType": "uint160",
							"name": "destinationsystemid",
							"type": "uint160"
						},
						{
							"internalType": "uint160",
							"name": "destinationcurrencyid",
							"type": "uint160"
						},
						{
							"internalType": "int32",
							"name": "numinputs",
							"type": "int32"
						},
						{
							"components": [
								{
									"internalType": "uint160",
									"name": "currency",
									"type": "uint160"
								},
								{
									"internalType": "uint64",
									"name": "amount",
									"type": "uint64"
								}
							],
							"internalType": "struct VerusObjects.CCurrencyValueMap[]",
							"name": "totalamounts",
							"type": "tuple[]"
						},
						{
							"components": [
								{
									"internalType": "uint160",
									"name": "currency",
									"type": "uint160"
								},
								{
									"internalType": "uint64",
									"name": "amount",
									"type": "uint64"
								}
							],
							"internalType": "struct VerusObjects.CCurrencyValueMap[]",
							"name": "totalfees",
							"type": "tuple[]"
						},
						{
							"internalType": "uint256",
							"name": "hashtransfers",
							"type": "uint256"
						},
						{
							"components": [
								{
									"internalType": "uint160",
									"name": "currency",
									"type": "uint160"
								},
								{
									"internalType": "uint64",
									"name": "amount",
									"type": "uint64"
								}
							],
							"internalType": "struct VerusObjects.CCurrencyValueMap[]",
							"name": "totalburned",
							"type": "tuple[]"
						},
						{
							"internalType": "address",
							"name": "rewardaddress",
							"type": "address"
						},
						{
							"internalType": "int32",
							"name": "firstinput",
							"type": "int32"
						}
					],
					"internalType": "struct VerusObjects.CCrossChainExport",
					"name": "",
					"type": "tuple"
				}
			],
			"stateMutability": "nonpayable",
			"type": "function"
		},
		{
			"inputs": [
				{
					"internalType": "uint256",
					"name": "",
					"type": "uint256"
				},
				{
					"internalType": "uint256",
					"name": "",
					"type": "uint256"
				}
			],
			"name": "_readyExports",
			"outputs": [
				{
					"internalType": "uint32",
					"name": "version",
					"type": "uint32"
				},
				{
					"components": [
						{
							"internalType": "uint160",
							"name": "currency",
							"type": "uint160"
						},
						{
							"internalType": "uint64",
							"name": "amount",
							"type": "uint64"
						}
					],
					"internalType": "struct VerusObjects.CCurrencyValueMap",
					"name": "currencyvalues",
					"type": "tuple"
				},
				{
					"internalType": "uint32",
					"name": "flags",
					"type": "uint32"
				},
				{
					"internalType": "uint160",
					"name": "feecurrencyid",
					"type": "uint160"
				},
				{
					"internalType": "uint256",
					"name": "fees",
					"type": "uint256"
				},
				{
					"components": [
						{
							"internalType": "uint32",
							"name": "destinationtype",
							"type": "uint32"
						},
						{
							"internalType": "uint160",
							"name": "destinationaddress",
							"type": "uint160"
						}
					],
					"internalType": "struct VerusObjects.CTransferDestination",
					"name": "destination",
					"type": "tuple"
				},
				{
					"internalType": "uint160",
					"name": "destCurrencyID",
					"type": "uint160"
				},
				{
					"internalType": "uint160",
					"name": "secondReserveID",
					"type": "uint160"
				},
				{
					"internalType": "uint160",
					"name": "destSystemID",
					"type": "uint160"
				}
			],
			"stateMutability": "view",
			"type": "function"
		},
		{
			"inputs": [],
			"name": "chainName",
			"outputs": [
				{
					"internalType": "string",
					"name": "",
					"type": "string"
				}
			],
			"stateMutability": "view",
			"type": "function"
		},
		{
			"inputs": [],
			"name": "claimFees",
			"outputs": [
				{
					"internalType": "uint256",
					"name": "",
					"type": "uint256"
				}
			],
			"stateMutability": "nonpayable",
			"type": "function"
		},
		{
			"inputs": [
				{
					"internalType": "address",
					"name": "",
					"type": "address"
				}
			],
			"name": "claimableFees",
			"outputs": [
				{
					"internalType": "uint256",
					"name": "",
					"type": "uint256"
				}
			],
			"stateMutability": "view",
			"type": "function"
		},
		{
			"inputs": [
				{
					"internalType": "address",
					"name": "_upgradedAddress",
					"type": "address"
				},
				{
					"internalType": "bytes32",
					"name": "_addressHash",
					"type": "bytes32"
				},
				{
					"internalType": "uint8[]",
					"name": "_vs",
					"type": "uint8[]"
				},
				{
					"internalType": "bytes32[]",
					"name": "_rs",
					"type": "bytes32[]"
				},
				{
					"internalType": "bytes32[]",
					"name": "_ss",
					"type": "bytes32[]"
				}
			],
			"name": "deprecate",
			"outputs": [],
			"stateMutability": "nonpayable",
			"type": "function"
		},
		{
			"inputs": [],
			"name": "deprecated",
			"outputs": [
				{
					"internalType": "bool",
					"name": "",
					"type": "bool"
				}
			],
			"stateMutability": "view",
			"type": "function"
		},
		{
			"inputs": [],
			"name": "ethHeld",
			"outputs": [
				{
					"internalType": "uint256",
					"name": "",
					"type": "uint256"
				}
			],
			"stateMutability": "view",
			"type": "function"
		},
		{
			"inputs": [
				{
					"internalType": "uint64",
					"name": "_amount",
					"type": "uint64"
				},
				{
					"internalType": "address",
					"name": "_tokenAddress",
					"type": "address"
				},
				{
					"internalType": "uint160",
					"name": "_destination",
					"type": "uint160"
				},
				{
					"internalType": "uint160",
					"name": "_destCurrencyID",
					"type": "uint160"
				},
				{
					"internalType": "uint256",
					"name": "_nFees",
					"type": "uint256"
				},
				{
					"internalType": "uint160",
					"name": "_feeCurrencyID",
					"type": "uint160"
				},
				{
					"internalType": "uint160",
					"name": "_secondReserveID",
					"type": "uint160"
				},
				{
					"internalType": "uint160",
					"name": "_destSystemID",
					"type": "uint160"
				}
			],
			"name": "exportERC20",
			"outputs": [],
			"stateMutability": "payable",
			"type": "function"
		},
		{
			"inputs": [
				{
					"internalType": "uint160",
					"name": "_destination",
					"type": "uint160"
				},
				{
					"internalType": "uint160",
					"name": "_feeCurrencyID",
					"type": "uint160"
				},
				{
					"internalType": "uint256",
					"name": "_nFees",
					"type": "uint256"
				},
				{
					"internalType": "uint160",
					"name": "_secondReserveID",
					"type": "uint160"
				},
				{
					"internalType": "uint160",
					"name": "_destSystemID",
					"type": "uint160"
				}
			],
			"name": "exportETH",
			"outputs": [
				{
					"internalType": "uint256",
					"name": "",
					"type": "uint256"
				}
			],
			"stateMutability": "payable",
			"type": "function"
		},
		{
			"inputs": [],
			"name": "feesHeld",
			"outputs": [
				{
					"internalType": "uint256",
					"name": "",
					"type": "uint256"
				}
			],
			"stateMutability": "view",
			"type": "function"
		},
		{
			"inputs": [
				{
					"internalType": "uint256",
					"name": "_eIndex",
					"type": "uint256"
				}
			],
			"name": "getReadyExports",
			"outputs": [
				{
					"components": [
						{
							"internalType": "uint32",
							"name": "version",
							"type": "uint32"
						},
						{
							"components": [
								{
									"internalType": "uint160",
									"name": "currency",
									"type": "uint160"
								},
								{
									"internalType": "uint64",
									"name": "amount",
									"type": "uint64"
								}
							],
							"internalType": "struct VerusObjects.CCurrencyValueMap",
							"name": "currencyvalues",
							"type": "tuple"
						},
						{
							"internalType": "uint32",
							"name": "flags",
							"type": "uint32"
						},
						{
							"internalType": "uint160",
							"name": "feecurrencyid",
							"type": "uint160"
						},
						{
							"internalType": "uint256",
							"name": "fees",
							"type": "uint256"
						},
						{
							"components": [
								{
									"internalType": "uint32",
									"name": "destinationtype",
									"type": "uint32"
								},
								{
									"internalType": "uint160",
									"name": "destinationaddress",
									"type": "uint160"
								}
							],
							"internalType": "struct VerusObjects.CTransferDestination",
							"name": "destination",
							"type": "tuple"
						},
						{
							"internalType": "uint160",
							"name": "destCurrencyID",
							"type": "uint160"
						},
						{
							"internalType": "uint160",
							"name": "secondReserveID",
							"type": "uint160"
						},
						{
							"internalType": "uint160",
							"name": "destSystemID",
							"type": "uint160"
						}
					],
					"internalType": "struct VerusObjects.CReserveTransfer[]",
					"name": "",
					"type": "tuple[]"
				}
			],
			"stateMutability": "view",
			"type": "function"
		},
		{
			"inputs": [
				{
					"internalType": "uint256",
					"name": "_blockNumber",
					"type": "uint256"
				}
			],
			"name": "getReadyExportsByBlock",
			"outputs": [
				{
					"components": [
						{
							"internalType": "uint256",
							"name": "position",
							"type": "uint256"
						},
						{
							"internalType": "uint256",
							"name": "blockHeight",
							"type": "uint256"
						},
						{
							"internalType": "bytes32",
							"name": "exportHash",
							"type": "bytes32"
						},
						{
							"components": [
								{
									"internalType": "uint32",
									"name": "version",
									"type": "uint32"
								},
								{
									"components": [
										{
											"internalType": "uint160",
											"name": "currency",
											"type": "uint160"
										},
										{
											"internalType": "uint64",
											"name": "amount",
											"type": "uint64"
										}
									],
									"internalType": "struct VerusObjects.CCurrencyValueMap",
									"name": "currencyvalues",
									"type": "tuple"
								},
								{
									"internalType": "uint32",
									"name": "flags",
									"type": "uint32"
								},
								{
									"internalType": "uint160",
									"name": "feecurrencyid",
									"type": "uint160"
								},
								{
									"internalType": "uint256",
									"name": "fees",
									"type": "uint256"
								},
								{
									"components": [
										{
											"internalType": "uint32",
											"name": "destinationtype",
											"type": "uint32"
										},
										{
											"internalType": "uint160",
											"name": "destinationaddress",
											"type": "uint160"
										}
									],
									"internalType": "struct VerusObjects.CTransferDestination",
									"name": "destination",
									"type": "tuple"
								},
								{
									"internalType": "uint160",
									"name": "destCurrencyID",
									"type": "uint160"
								},
								{
									"internalType": "uint160",
									"name": "secondReserveID",
									"type": "uint160"
								},
								{
									"internalType": "uint160",
									"name": "destSystemID",
									"type": "uint160"
								}
							],
							"internalType": "struct VerusObjects.CReserveTransfer[]",
							"name": "transfers",
							"type": "tuple[]"
						}
					],
					"internalType": "struct VerusObjects.CReserveTransferSet",
					"name": "",
					"type": "tuple"
				}
			],
			"stateMutability": "view",
			"type": "function"
		},
		{
			"inputs": [
				{
					"internalType": "uint256",
					"name": "_startBlock",
					"type": "uint256"
				},
				{
					"internalType": "uint256",
					"name": "_endBlock",
					"type": "uint256"
				}
			],
			"name": "getReadyExportsByRange",
			"outputs": [
				{
					"components": [
						{
							"internalType": "uint256",
							"name": "position",
							"type": "uint256"
						},
						{
							"internalType": "uint256",
							"name": "blockHeight",
							"type": "uint256"
						},
						{
							"internalType": "bytes32",
							"name": "exportHash",
							"type": "bytes32"
						},
						{
							"components": [
								{
									"internalType": "uint32",
									"name": "version",
									"type": "uint32"
								},
								{
									"components": [
										{
											"internalType": "uint160",
											"name": "currency",
											"type": "uint160"
										},
										{
											"internalType": "uint64",
											"name": "amount",
											"type": "uint64"
										}
									],
									"internalType": "struct VerusObjects.CCurrencyValueMap",
									"name": "currencyvalues",
									"type": "tuple"
								},
								{
									"internalType": "uint32",
									"name": "flags",
									"type": "uint32"
								},
								{
									"internalType": "uint160",
									"name": "feecurrencyid",
									"type": "uint160"
								},
								{
									"internalType": "uint256",
									"name": "fees",
									"type": "uint256"
								},
								{
									"components": [
										{
											"internalType": "uint32",
											"name": "destinationtype",
											"type": "uint32"
										},
										{
											"internalType": "uint160",
											"name": "destinationaddress",
											"type": "uint160"
										}
									],
									"internalType": "struct VerusObjects.CTransferDestination",
									"name": "destination",
									"type": "tuple"
								},
								{
									"internalType": "uint160",
									"name": "destCurrencyID",
									"type": "uint160"
								},
								{
									"internalType": "uint160",
									"name": "secondReserveID",
									"type": "uint160"
								},
								{
									"internalType": "uint160",
									"name": "destSystemID",
									"type": "uint160"
								}
							],
							"internalType": "struct VerusObjects.CReserveTransfer[]",
							"name": "transfers",
							"type": "tuple[]"
						}
					],
					"internalType": "struct VerusObjects.CReserveTransferSet[]",
					"name": "",
					"type": "tuple[]"
				}
			],
			"stateMutability": "view",
			"type": "function"
		},
		{
			"inputs": [],
			"name": "getReadyExportsIndex",
			"outputs": [
				{
					"internalType": "uint256",
					"name": "",
					"type": "uint256"
				}
			],
			"stateMutability": "view",
			"type": "function"
		},
		{
			"inputs": [
				{
					"internalType": "uint160",
					"name": "_currencyid",
					"type": "uint160"
				}
			],
			"name": "getcurrency",
			"outputs": [],
			"stateMutability": "nonpayable",
			"type": "function"
		},
		{
			"inputs": [],
			"name": "getinfo",
			"outputs": [
				{
					"components": [
						{
							"internalType": "uint256",
							"name": "version",
							"type": "uint256"
						},
						{
							"internalType": "string",
							"name": "VRSCversion",
							"type": "string"
						},
						{
							"internalType": "uint256",
							"name": "blocks",
							"type": "uint256"
						},
						{
							"internalType": "uint256",
							"name": "tiptime",
							"type": "uint256"
						},
						{
							"internalType": "string",
							"name": "name",
							"type": "string"
						},
						{
							"internalType": "bool",
							"name": "testnet",
							"type": "bool"
						}
					],
					"internalType": "struct VerusBridge.infoDetails",
					"name": "",
					"type": "tuple"
				}
			],
			"stateMutability": "view",
			"type": "function"
		},
		{
			"inputs": [],
			"name": "poolSize",
			"outputs": [
				{
					"internalType": "uint256",
					"name": "",
					"type": "uint256"
				}
			],
			"stateMutability": "view",
			"type": "function"
		},
		{
			"inputs": [
				{
					"internalType": "bytes32",
					"name": "",
					"type": "bytes32"
				}
			],
			"name": "processedImportSetHashes",
			"outputs": [
				{
					"internalType": "uint256",
					"name": "",
					"type": "uint256"
				}
			],
			"stateMutability": "view",
			"type": "function"
		},
		{
			"inputs": [
				{
					"internalType": "uint256",
					"name": "",
					"type": "uint256"
				}
			],
			"name": "readyCCEs",
			"outputs": [
				{
					"internalType": "uint32",
					"name": "version",
					"type": "uint32"
				},
				{
					"internalType": "uint32",
					"name": "flags",
					"type": "uint32"
				},
				{
					"internalType": "uint160",
					"name": "sourcesystemid",
					"type": "uint160"
				},
				{
					"internalType": "uint32",
					"name": "sourceheightstart",
					"type": "uint32"
				},
				{
					"internalType": "uint32",
					"name": "sourceheightend",
					"type": "uint32"
				},
				{
					"internalType": "uint160",
					"name": "destinationsystemid",
					"type": "uint160"
				},
				{
					"internalType": "uint160",
					"name": "destinationcurrencyid",
					"type": "uint160"
				},
				{
					"internalType": "int32",
					"name": "numinputs",
					"type": "int32"
				},
				{
					"internalType": "uint256",
					"name": "hashtransfers",
					"type": "uint256"
				},
				{
					"internalType": "address",
					"name": "rewardaddress",
					"type": "address"
				},
				{
					"internalType": "int32",
					"name": "firstinput",
					"type": "int32"
				}
			],
			"stateMutability": "view",
			"type": "function"
		},
		{
			"inputs": [
				{
					"internalType": "uint256",
					"name": "",
					"type": "uint256"
				}
			],
			"name": "readyExportHashes",
			"outputs": [
				{
					"internalType": "bytes32",
					"name": "",
					"type": "bytes32"
				}
			],
			"stateMutability": "view",
			"type": "function"
		},
		{
			"inputs": [
				{
					"internalType": "uint256",
					"name": "",
					"type": "uint256"
				}
			],
			"name": "readyExportsByBlock",
			"outputs": [
				{
					"internalType": "uint256",
					"name": "index",
					"type": "uint256"
				},
				{
					"internalType": "bool",
					"name": "created",
					"type": "bool"
				}
			],
			"stateMutability": "view",
			"type": "function"
		},
		{
			"inputs": [
				{
					"components": [
						{
							"internalType": "uint256",
							"name": "height",
							"type": "uint256"
						},
						{
							"internalType": "bytes32",
							"name": "txid",
							"type": "bytes32"
						},
						{
							"internalType": "uint256",
							"name": "txoutnum",
							"type": "uint256"
						},
						{
							"components": [
								{
									"internalType": "uint32",
									"name": "version",
									"type": "uint32"
								},
								{
									"internalType": "uint32",
									"name": "flags",
									"type": "uint32"
								},
								{
									"internalType": "uint160",
									"name": "sourcesystemid",
									"type": "uint160"
								},
								{
									"internalType": "uint32",
									"name": "sourceheightstart",
									"type": "uint32"
								},
								{
									"internalType": "uint32",
									"name": "sourceheightend",
									"type": "uint32"
								},
								{
									"internalType": "uint160",
									"name": "destinationsystemid",
									"type": "uint160"
								},
								{
									"internalType": "uint160",
									"name": "destinationcurrencyid",
									"type": "uint160"
								},
								{
									"internalType": "int32",
									"name": "numinputs",
									"type": "int32"
								},
								{
									"components": [
										{
											"internalType": "uint160",
											"name": "currency",
											"type": "uint160"
										},
										{
											"internalType": "uint64",
											"name": "amount",
											"type": "uint64"
										}
									],
									"internalType": "struct VerusObjects.CCurrencyValueMap[]",
									"name": "totalamounts",
									"type": "tuple[]"
								},
								{
									"components": [
										{
											"internalType": "uint160",
											"name": "currency",
											"type": "uint160"
										},
										{
											"internalType": "uint64",
											"name": "amount",
											"type": "uint64"
										}
									],
									"internalType": "struct VerusObjects.CCurrencyValueMap[]",
									"name": "totalfees",
									"type": "tuple[]"
								},
								{
									"internalType": "uint256",
									"name": "hashtransfers",
									"type": "uint256"
								},
								{
									"components": [
										{
											"internalType": "uint160",
											"name": "currency",
											"type": "uint160"
										},
										{
											"internalType": "uint64",
											"name": "amount",
											"type": "uint64"
										}
									],
									"internalType": "struct VerusObjects.CCurrencyValueMap[]",
									"name": "totalburned",
									"type": "tuple[]"
								},
								{
									"internalType": "address",
									"name": "rewardaddress",
									"type": "address"
								},
								{
									"internalType": "int32",
									"name": "firstinput",
									"type": "int32"
								}
							],
							"internalType": "struct VerusObjects.CCrossChainExport",
							"name": "exportinfo",
							"type": "tuple"
						},
						{
							"internalType": "bytes32[]",
							"name": "partialtransactionproof",
							"type": "bytes32[]"
						},
						{
							"components": [
								{
									"internalType": "uint32",
									"name": "version",
									"type": "uint32"
								},
								{
									"components": [
										{
											"internalType": "uint160",
											"name": "currency",
											"type": "uint160"
										},
										{
											"internalType": "uint64",
											"name": "amount",
											"type": "uint64"
										}
									],
									"internalType": "struct VerusObjects.CCurrencyValueMap",
									"name": "currencyvalues",
									"type": "tuple"
								},
								{
									"internalType": "uint32",
									"name": "flags",
									"type": "uint32"
								},
								{
									"internalType": "uint160",
									"name": "feecurrencyid",
									"type": "uint160"
								},
								{
									"internalType": "uint256",
									"name": "fees",
									"type": "uint256"
								},
								{
									"components": [
										{
											"internalType": "uint32",
											"name": "destinationtype",
											"type": "uint32"
										},
										{
											"internalType": "uint160",
											"name": "destinationaddress",
											"type": "uint160"
										}
									],
									"internalType": "struct VerusObjects.CTransferDestination",
									"name": "destination",
									"type": "tuple"
								},
								{
									"internalType": "uint160",
									"name": "destCurrencyID",
									"type": "uint160"
								},
								{
									"internalType": "uint160",
									"name": "secondReserveID",
									"type": "uint160"
								},
								{
									"internalType": "uint160",
									"name": "destSystemID",
									"type": "uint160"
								}
							],
							"internalType": "struct VerusObjects.CReserveTransfer[]",
							"name": "transfers",
							"type": "tuple[]"
						}
					],
					"internalType": "struct VerusObjects.CReserveTransferImport[]",
					"name": "_imports",
					"type": "tuple[]"
				}
			],
			"name": "submitImports",
			"outputs": [],
			"stateMutability": "nonpayable",
			"type": "function"
		},
		{
			"inputs": [],
			"name": "upgradedAddress",
			"outputs": [
				{
					"internalType": "address",
					"name": "",
					"type": "address"
				}
			],
			"stateMutability": "view",
			"type": "function"
		}
	]
}