{
	"data": {
		"bytecode": {
			"linkReferences": {},
			"object": "60806040526000600560146101000a81548160ff0219169083151502179055506000600755600060085560006009556000600a553480156200004057600080fd5b5060405162005fd138038062005fd1833981810160405281019062000066919062000244565b33600560006101000a81548173ffffffffffffffffffffffffffffffffffffffff021916908373ffffffffffffffffffffffffffffffffffffffff16021790555085600260006101000a81548173ffffffffffffffffffffffffffffffffffffffff021916908373ffffffffffffffffffffffffffffffffffffffff160217905550846000806101000a81548173ffffffffffffffffffffffffffffffffffffffff021916908373ffffffffffffffffffffffffffffffffffffffff16021790555083600160006101000a81548173ffffffffffffffffffffffffffffffffffffffff021916908373ffffffffffffffffffffffffffffffffffffffff16021790555082600360006101000a81548173ffffffffffffffffffffffffffffffffffffffff021916908373ffffffffffffffffffffffffffffffffffffffff16021790555081600460006101000a81548173ffffffffffffffffffffffffffffffffffffffff021916908373ffffffffffffffffffffffffffffffffffffffff160217905550806009819055506000600e600001819055506000801b600e600101819055505050505050506200034c565b600081519050620002278162000318565b92915050565b6000815190506200023e8162000332565b92915050565b60008060008060008060c087890312156200025e57600080fd5b60006200026e89828a0162000216565b96505060206200028189828a0162000216565b95505060406200029489828a0162000216565b9450506060620002a789828a0162000216565b9350506080620002ba89828a0162000216565b92505060a0620002cd89828a016200022d565b9150509295509295509295565b6000620002e782620002ee565b9050919050565b600073ffffffffffffffffffffffffffffffffffffffff82169050919050565b6000819050919050565b6200032381620002da565b81146200032f57600080fd5b50565b6200033d816200030e565b81146200034957600080fd5b50565b615c75806200035c6000396000f3fe6080604052600436106101405760003560e01c806344e5ffd3116100b6578063c17a4eef1161006f578063c17a4eef146104bc578063d294f093146104fa578063d83aa63c14610525578063df7dc50614610562578063e45b909d1461058b578063e4804abc146105c857610140565b806344e5ffd3146103695780634ec18db9146103a6578063529cb5a1146103d15780635f2edcbe1461040e5780637e0b24921461043a5780637e3e661b1461047757610140565b8063327d426311610108578063327d42631461021f57806333bc02fa1461025c578063388eee6c146102995780633ee2ce85146102d65780633f067b201461031357806342ce50111461033e57610140565b80630e136b1914610145578063231b02681461017057806326976e3f1461019b5780632a9e72a6146101c65780632d5beadc14610203575b600080fd5b34801561015157600080fd5b5061015a610605565b60405161016791906152bd565b60405180910390f35b34801561017c57600080fd5b50610185610618565b604051610192919061549b565b60405180910390f35b3480156101a757600080fd5b506101b061061e565b6040516101bd919061516e565b60405180910390f35b3480156101d257600080fd5b506101ed60048036038101906101e89190613fec565b610644565b6040516101fa9190615479565b60405180910390f35b61021d60048036038101906102189190613fc2565b6109eb565b005b34801561022b57600080fd5b5061024660048036038101906102419190613ed6565b6110dc565b60405161025391906152bd565b60405180910390f35b34801561026857600080fd5b50610283600480360381019061027e9190613f81565b6110fc565b60405161029091906152bd565b60405180910390f35b3480156102a557600080fd5b506102c060048036038101906102bb9190613fec565b6115d6565b6040516102cd9190615597565b60405180910390f35b3480156102e257600080fd5b506102fd60048036038101906102f89190613fec565b6115f3565b60405161030a91906152f3565b60405180910390f35b34801561031f57600080fd5b506103286116af565b604051610335919061549b565b60405180910390f35b34801561034a57600080fd5b506103536116b5565b604051610360919061549b565b60405180910390f35b34801561037557600080fd5b50610390600480360381019061038b9190613fec565b6116bb565b60405161039d91906152d8565b60405180910390f35b3480156103b257600080fd5b506103bb6116df565b6040516103c8919061549b565b60405180910390f35b3480156103dd57600080fd5b506103f860048036038101906103f39190613fec565b6116e5565b6040516104059190615597565b60405180910390f35b34801561041a57600080fd5b506104236116fb565b6040516104319291906154df565b60405180910390f35b34801561044657600080fd5b50610461600480360381019061045c9190613e1a565b61170d565b60405161046e919061549b565b60405180910390f35b34801561048357600080fd5b5061049e6004803603810190610499919061403e565b611725565b6040516104b399989796959493929190615508565b60405180910390f35b3480156104c857600080fd5b506104e360048036038101906104de9190613fec565b61194b565b6040516104f19291906154b6565b60405180910390f35b34801561050657600080fd5b5061050f61197c565b60405161051c919061549b565b60405180910390f35b34801561053157600080fd5b5061054c60048036038101906105479190613fec565b611aa5565b60405161055991906152f3565b60405180910390f35b34801561056e57600080fd5b5061058960048036038101906105849190613e6c565b611b61565b005b34801561059757600080fd5b506105b260048036038101906105ad9190613fec565b611b9b565b6040516105bf91906152d8565b60405180910390f35b3480156105d457600080fd5b506105ef60048036038101906105ea919061403e565b611bbf565b6040516105fc9190615249565b60405180910390f35b600560149054906101000a900460ff1681565b600a5481565b600660009054906101000a900473ffffffffffffffffffffffffffffffffffffffff1681565b61064c612967565b60006011600084815260200190815260200160002060000154905060006040518060800160405280838152602001858152602001600b848154811061068d57fe5b90600052602060002001548152602001600d84815481106106aa57fe5b90600052602060002001805480602002602001604051908101604052809291908181526020016000905b828210156109d85783829060005260206000209060080201604051806101200160405290816000820160009054906101000a900463ffffffff1663ffffffff1663ffffffff168152602001600182016040518060400160405290816000820160009054906101000a900473ffffffffffffffffffffffffffffffffffffffff1673ffffffffffffffffffffffffffffffffffffffff1673ffffffffffffffffffffffffffffffffffffffff1681526020016000820160149054906101000a900467ffffffffffffffff1667ffffffffffffffff1667ffffffffffffffff168152505081526020016002820160009054906101000a900463ffffffff1663ffffffff1663ffffffff1681526020016002820160049054906101000a900473ffffffffffffffffffffffffffffffffffffffff1673ffffffffffffffffffffffffffffffffffffffff1673ffffffffffffffffffffffffffffffffffffffff16815260200160038201548152602001600482016040518060400160405290816000820160009054906101000a900460ff1660ff1660ff1681526020016000820160019054906101000a900473ffffffffffffffffffffffffffffffffffffffff1673ffffffffffffffffffffffffffffffffffffffff1673ffffffffffffffffffffffffffffffffffffffff168152505081526020016005820160009054906101000a900473ffffffffffffffffffffffffffffffffffffffff1673ffffffffffffffffffffffffffffffffffffffff1673ffffffffffffffffffffffffffffffffffffffff1681526020016006820160009054906101000a900473ffffffffffffffffffffffffffffffffffffffff1673ffffffffffffffffffffffffffffffffffffffff1673ffffffffffffffffffffffffffffffffffffffff1681526020016007820160009054906101000a900473ffffffffffffffffffffffffffffffffffffffff1673ffffffffffffffffffffffffffffffffffffffff1673ffffffffffffffffffffffffffffffffffffffff1681525050815260200190600101906106d4565b5050505081525090508092505050919050565b600560149054906101000a900460ff1615610a3b576040517f08c379a0000000000000000000000000000000000000000000000000000000008152600401610a3290615335565b60405180910390fd5b806080015167ffffffffffffffff16655af3107a400001341015610a94576040517f08c379a0000000000000000000000000000000000000000000000000000000008152600401610a8b90615415565b60405180910390fd5b7367460c2f56774ed27eeb8685f29f6cec0b090b0073ffffffffffffffffffffffffffffffffffffffff168160a001516020015173ffffffffffffffffffffffffffffffffffffffff16146110635734600760008282540192505081905550600073ffffffffffffffffffffffffffffffffffffffff1660008054906101000a900473ffffffffffffffffffffffffffffffffffffffff1673ffffffffffffffffffffffffffffffffffffffff1663826737fc8360e001516040518263ffffffff1660e01b8152600401610b68919061516e565b60206040518083038186803b158015610b8057600080fd5b505afa158015610b94573d6000803e3d6000fd5b505050506040513d601f19601f82011682018060405250810190610bb89190613e43565b73ffffffffffffffffffffffffffffffffffffffff161415610c0f576040517f08c379a0000000000000000000000000000000000000000000000000000000008152600401610c06906153d5565b60405180910390fd5b60008060009054906101000a900473ffffffffffffffffffffffffffffffffffffffff1673ffffffffffffffffffffffffffffffffffffffff1663826737fc8360e001516040518263ffffffff1660e01b8152600401610c6f919061516e565b60206040518083038186803b158015610c8757600080fd5b505afa158015610c9b573d6000803e3d6000fd5b505050506040513d601f19601f82011682018060405250810190610cbf9190613e43565b905060008173ffffffffffffffffffffffffffffffffffffffff1663dd62ed3e33306040518363ffffffff1660e01b8152600401610cfe929190615189565b60206040518083038186803b158015610d1657600080fd5b505afa158015610d2a573d6000803e3d6000fd5b505050506040513d601f19601f82011682018060405250810190610d4e9190614015565b905082602001516020015167ffffffffffffffff168167ffffffffffffffff161015610daf576040517f08c379a0000000000000000000000000000000000000000000000000000000008152600401610da6906153f5565b60405180910390fd5b8173ffffffffffffffffffffffffffffffffffffffff166323b872dd333086602001516020015167ffffffffffffffff166040518463ffffffff1660e01b8152600401610dfe939291906151b2565b602060405180830381600087803b158015610e1857600080fd5b505af1158015610e2c573d6000803e3d6000fd5b505050506040513d601f19601f82011682018060405250810190610e509190613ead565b508173ffffffffffffffffffffffffffffffffffffffff1663095ea7b360008054906101000a900473ffffffffffffffffffffffffffffffffffffffff1685602001516020015167ffffffffffffffff166040518363ffffffff1660e01b8152600401610ebe9291906151e9565b602060405180830381600087803b158015610ed857600080fd5b505af1158015610eec573d6000803e3d6000fd5b505050506040513d601f19601f82011682018060405250810190610f109190613ead565b5060008054906101000a900473ffffffffffffffffffffffffffffffffffffffff1673ffffffffffffffffffffffffffffffffffffffff16639033ef3f60008054906101000a900473ffffffffffffffffffffffffffffffffffffffff1673ffffffffffffffffffffffffffffffffffffffff1663826737fc8660e001516040518263ffffffff1660e01b8152600401610faa919061516e565b60206040518083038186803b158015610fc257600080fd5b505afa158015610fd6573d6000803e3d6000fd5b505050506040513d601f19601f82011682018060405250810190610ffa9190613e43565b85602001516020015167ffffffffffffffff166040518363ffffffff1660e01b815260040161102a9291906151e9565b600060405180830381600087803b15801561104457600080fd5b505af1158015611058573d6000803e3d6000fd5b5050505050506110d0565b611074655af3107a400034036115d6565b81602001516020019067ffffffffffffffff16908167ffffffffffffffff168152505080602001516020015167ffffffffffffffff16600860008282540192505081905550655af3107a40006007600082825401925050819055505b6110d981611cee565b50565b60106020528060005260406000206000915054906101000a900460ff1681565b600060011515601060008460200151815260200190815260200160002060009054906101000a900460ff161515141561116a576040517f08c379a000000000000000000000000000000000000000000000000000000000815260040161116190615355565b60405180910390fd5b6000600260009054906101000a900473ffffffffffffffffffffffffffffffffffffffff1673ffffffffffffffffffffffffffffffffffffffff16638f59b004846040518263ffffffff1660e01b81526004016111c79190615457565b60206040518083038186803b1580156111df57600080fd5b505afa1580156111f3573d6000803e3d6000fd5b505050506040513d601f19601f820116820180604052508101906112179190613ead565b905080611259576040517f08c379a000000000000000000000000000000000000000000000000000000000815260040161125090615375565b60405180910390fd5b6001601060008560200151815260200190815260200160002060006101000a81548160ff021916908315150217905550600080600090505b8460a00151518110156115ca576112d08560a0015182815181106112b157fe5b6020026020010151602001516020015167ffffffffffffffff166116e5565b67ffffffffffffffff1691507367460c2f56774ed27eeb8685f29f6cec0b090b0073ffffffffffffffffffffffffffffffffffffffff168560a00151828151811061131757fe5b6020026020010151602001516000015173ffffffffffffffffffffffffffffffffffffffff1614156113c45747821115611386576040517f08c379a000000000000000000000000000000000000000000000000000000000815260040161137d90615395565b60405180910390fd5b6113af828660a00151838151811061139a57fe5b602002602001015160a0015160200151612749565b81600860008282540392505081905550611492565b60008054906101000a900473ffffffffffffffffffffffffffffffffffffffff1673ffffffffffffffffffffffffffffffffffffffff1663d2a5bdb18660a00151838151811061141057fe5b60200260200101516020015160000151848860a00151858151811061143157fe5b602002602001015160a00151602001516040518463ffffffff1660e01b815260040161145f93929190615212565b600060405180830381600087803b15801561147957600080fd5b505af115801561148d573d6000803e3d6000fd5b505050505b60008560a0015182815181106114a457fe5b60200260200101516080015111801561151757507367460c2f56774ed27eeb8685f29f6cec0b090b0073ffffffffffffffffffffffffffffffffffffffff168560a0015182815181106114f357fe5b60200260200101516060015173ffffffffffffffffffffffffffffffffffffffff16145b156115bd578460a00151818151811061152c57fe5b602002602001015160800151601260003373ffffffffffffffffffffffffffffffffffffffff1673ffffffffffffffffffffffffffffffffffffffff1681526020019081526020016000205401601260003373ffffffffffffffffffffffffffffffffffffffff1673ffffffffffffffffffffffffffffffffffffffff168152602001908152602001600020819055505b8080600101915050611291565b50600192505050919050565b6000806402540be40083816115e757fe5b04905080915050919050565b6014818154811061160357600080fd5b906000526020600020016000915090508054600181600116156101000203166002900480601f0160208091040260200160405190810160405280929190818152602001828054600181600116156101000203166002900480156116a75780601f1061167c576101008083540402835291602001916116a7565b820191906000526020600020905b81548152906001019060200180831161168a57829003601f168201915b505050505081565b60075481565b60085481565b601581815481106116cb57600080fd5b906000526020600020016000915090505481565b60095481565b6000806402540be4008302905080915050919050565b600e8060000154908060010154905082565b60126020528060005260406000206000915090505481565b600d828154811061173557600080fd5b90600052602060002001818154811061174d57600080fd5b9060005260206000209060080201600091509150508060000160009054906101000a900463ffffffff1690806001016040518060400160405290816000820160009054906101000a900473ffffffffffffffffffffffffffffffffffffffff1673ffffffffffffffffffffffffffffffffffffffff1673ffffffffffffffffffffffffffffffffffffffff1681526020016000820160149054906101000a900467ffffffffffffffff1667ffffffffffffffff1667ffffffffffffffff1681525050908060020160009054906101000a900463ffffffff16908060020160049054906101000a900473ffffffffffffffffffffffffffffffffffffffff1690806003015490806004016040518060400160405290816000820160009054906101000a900460ff1660ff1660ff1681526020016000820160019054906101000a900473ffffffffffffffffffffffffffffffffffffffff1673ffffffffffffffffffffffffffffffffffffffff1673ffffffffffffffffffffffffffffffffffffffff1681525050908060050160009054906101000a900473ffffffffffffffffffffffffffffffffffffffff16908060060160009054906101000a900473ffffffffffffffffffffffffffffffffffffffff16908060070160009054906101000a900473ffffffffffffffffffffffffffffffffffffffff16905089565b60116020528060005260406000206000915090508060000154908060010160009054906101000a900460ff16905082565b6000600560149054906101000a900460ff16156119ce576040517f08c379a00000000000000000000000000000000000000000000000000000000081526004016119c590615335565b60405180910390fd5b6000601260003373ffffffffffffffffffffffffffffffffffffffff1673ffffffffffffffffffffffffffffffffffffffff168152602001908152602001600020541115611a6057611a5f601260003373ffffffffffffffffffffffffffffffffffffffff1673ffffffffffffffffffffffffffffffffffffffff1681526020019081526020016000205433612749565b5b601260003373ffffffffffffffffffffffffffffffffffffffff1673ffffffffffffffffffffffffffffffffffffffff16815260200190815260200160002054905090565b60138181548110611ab557600080fd5b906000526020600020016000915090508054600181600116156101000203166002900480601f016020809104026020016040519081016040528092919081815260200182805460018160011615610100020316600290048015611b595780601f10611b2e57610100808354040283529160200191611b59565b820191906000526020600020905b815481529060010190602001808311611b3c57829003601f168201915b505050505081565b60005b8151811015611b9757611b89828281518110611b7c57fe5b60200260200101516110fc565b508080600101915050611b64565b5050565b600b8181548110611bab57600080fd5b906000526020600020016000915090505481565b60606000600a54841015611bd357600a5493505b60008490505b838111611c1d576011600082815260200190815260200160002060010160009054906101000a900460ff1615611c10576001820191505b8080600101915050611bd9565b5060008167ffffffffffffffff81118015611c3757600080fd5b50604051908082528060200260200182016040528015611c7157816020015b611c5e612967565b815260200190600190039081611c565790505b5090506000808690505b858111611ce1576011600082815260200190815260200160002060010160009054906101000a900460ff1615611cd457611cb481610644565b838381518110611cc057fe5b602002602001018190525081806001019250505b8080600101915050611c7b565b5081935050505092915050565b6000439050600080611d08846080015185606001516127e4565b15611d225783608001516009600082825403925050819055505b6011600084815260200190815260200160002060010160009054906101000a900460ff16156120195760116000848152602001908152602001600020600001549150600d8281548110611d7157fe5b9060005260206000200184908060018154018082558091505060019003906000526020600020906008020160009091909190915060008201518160000160006101000a81548163ffffffff021916908363ffffffff16021790555060208201518160010160008201518160000160006101000a81548173ffffffffffffffffffffffffffffffffffffffff021916908373ffffffffffffffffffffffffffffffffffffffff16021790555060208201518160000160146101000a81548167ffffffffffffffff021916908367ffffffffffffffff160217905550505060408201518160020160006101000a81548163ffffffff021916908363ffffffff16021790555060608201518160020160046101000a81548173ffffffffffffffffffffffffffffffffffffffff021916908373ffffffffffffffffffffffffffffffffffffffff1602179055506080820151816003015560a08201518160040160008201518160000160006101000a81548160ff021916908360ff16021790555060208201518160000160016101000a81548173ffffffffffffffffffffffffffffffffffffffff021916908373ffffffffffffffffffffffffffffffffffffffff160217905550505060c08201518160050160006101000a81548173ffffffffffffffffffffffffffffffffffffffff021916908373ffffffffffffffffffffffffffffffffffffffff16021790555060e08201518160060160006101000a81548173ffffffffffffffffffffffffffffffffffffffff021916908373ffffffffffffffffffffffffffffffffffffffff1602179055506101008201518160070160006101000a81548173ffffffffffffffffffffffffffffffffffffffff021916908373ffffffffffffffffffffffffffffffffffffffff16021790555050506000905061235e565b600c84908060018154018082558091505060019003906000526020600020906008020160009091909190915060008201518160000160006101000a81548163ffffffff021916908363ffffffff16021790555060208201518160010160008201518160000160006101000a81548173ffffffffffffffffffffffffffffffffffffffff021916908373ffffffffffffffffffffffffffffffffffffffff16021790555060208201518160000160146101000a81548167ffffffffffffffff021916908367ffffffffffffffff160217905550505060408201518160020160006101000a81548163ffffffff021916908363ffffffff16021790555060608201518160020160046101000a81548173ffffffffffffffffffffffffffffffffffffffff021916908373ffffffffffffffffffffffffffffffffffffffff1602179055506080820151816003015560a08201518160040160008201518160000160006101000a81548160ff021916908360ff16021790555060208201518160000160016101000a81548173ffffffffffffffffffffffffffffffffffffffff021916908373ffffffffffffffffffffffffffffffffffffffff160217905550505060c08201518160050160006101000a81548173ffffffffffffffffffffffffffffffffffffffff021916908373ffffffffffffffffffffffffffffffffffffffff16021790555060e08201518160060160006101000a81548173ffffffffffffffffffffffffffffffffffffffff021916908373ffffffffffffffffffffffffffffffffffffffff1602179055506101008201518160070160006101000a81548173ffffffffffffffffffffffffffffffffffffffff021916908373ffffffffffffffffffffffffffffffffffffffff1602179055505050600d600c908060018154018082558091505060019003906000526020600020016000909190919091509080546122e7929190612992565b506001600d80549050039150604051806040016040528083815260200160011515815250601160008581526020019081526020016000206000820151816000015560208201518160010160006101000a81548160ff021916908315150217905550905050600c60006123599190612d51565b600190505b6000600460009054906101000a900473ffffffffffffffffffffffffffffffffffffffff1673ffffffffffffffffffffffffffffffffffffffff1663bdfcfddd600d85815481106123ab57fe5b906000526020600020016040518263ffffffff1660e01b81526004016123d1919061526b565b600060405180830381600087803b1580156123eb57600080fd5b505af11580156123ff573d6000803e3d6000fd5b505050506040513d6000823e3d601f19601f820116820180604052508101906124289190613f40565b90506000600160009054906101000a900473ffffffffffffffffffffffffffffffffffffffff1673ffffffffffffffffffffffffffffffffffffffff1663343bee60836040518263ffffffff1660e01b81526004016124879190615435565b60006040518083038186803b15801561249f57600080fd5b505afa1580156124b3573d6000803e3d6000fd5b505050506040513d6000823e3d601f19601f820116820180604052508101906124dc9190613eff565b90506000600160009054906101000a900473ffffffffffffffffffffffffffffffffffffffff1673ffffffffffffffffffffffffffffffffffffffff16632a4edd70600d878154811061252b57fe5b9060005260206000200160006040518363ffffffff1660e01b815260040161255492919061528d565b60006040518083038186803b15801561256c57600080fd5b505afa158015612580573d6000803e3d6000fd5b505050506040513d6000823e3d601f19601f820116820180604052508101906125a99190613eff565b90506013819080600181540180825580915050600190039060005260206000200160009091909190915090805190602001906125e6929190612d75565b506000818051906020012090506000838360405160200161260892919061514a565b6040516020818303038152906040529050601481908060018154018082558091505060019003906000526020600020016000909190919091509080519060200190612654929190612d75565b5060158290806001815401808255809150506001900390600052602060002001600090919091909150556000806000801b9050600089146126ad57600b60018a038154811061269f57fe5b906000526020600020015490505b85816040516020016126c0929190615122565b604051602081830303815290604052805190602001209150871561270c57600b829080600181540180825580915050600190039060005260206000200160009091909190915055612729565b81600b8a8154811061271a57fe5b90600052602060002001819055505b6000600a54141561273c5789600a819055505b5050505050505050505050565b600560149054906101000a900460ff1615612799576040517f08c379a000000000000000000000000000000000000000000000000000000000815260040161279090615335565b60405180910390fd5b8073ffffffffffffffffffffffffffffffffffffffff166108fc839081150290604051600060405180830381858888f193505050501580156127df573d6000803e3d6000fd5b505050565b60006001600360009054906101000a900473ffffffffffffffffffffffffffffffffffffffff1673ffffffffffffffffffffffffffffffffffffffff1663ec48ae3c6040518163ffffffff1660e01b815260040160206040518083038186803b15801561285057600080fd5b505afa158015612864573d6000803e3d6000fd5b505050506040513d601f19601f820116820180604052508101906128889190614015565b106128965760009050612961565b73a6ef9ea235635e328124ff3429db9f9e91b64e2d73ffffffffffffffffffffffffffffffffffffffff168273ffffffffffffffffffffffffffffffffffffffff1614612918576040517f08c379a000000000000000000000000000000000000000000000000000000000815260040161290f90615315565b60405180910390fd5b826009541161295c576040517f08c379a0000000000000000000000000000000000000000000000000000000008152600401612953906153b5565b60405180910390fd5b600190505b92915050565b6040518060800160405280600081526020016000815260200160008019168152602001606081525090565b828054828255906000526020600020906008028101928215612d405760005260206000209160080282015b82811115612d3f5782826000820160009054906101000a900463ffffffff168160000160006101000a81548163ffffffff021916908363ffffffff16021790555060018201816001016000820160009054906101000a900473ffffffffffffffffffffffffffffffffffffffff168160000160006101000a81548173ffffffffffffffffffffffffffffffffffffffff021916908373ffffffffffffffffffffffffffffffffffffffff1602179055506000820160149054906101000a900467ffffffffffffffff168160000160146101000a81548167ffffffffffffffff021916908367ffffffffffffffff16021790555050506002820160009054906101000a900463ffffffff168160020160006101000a81548163ffffffff021916908363ffffffff1602179055506002820160049054906101000a900473ffffffffffffffffffffffffffffffffffffffff168160020160046101000a81548173ffffffffffffffffffffffffffffffffffffffff021916908373ffffffffffffffffffffffffffffffffffffffff1602179055506003820154816003015560048201816004016000820160009054906101000a900460ff168160000160006101000a81548160ff021916908360ff1602179055506000820160019054906101000a900473ffffffffffffffffffffffffffffffffffffffff168160000160016101000a81548173ffffffffffffffffffffffffffffffffffffffff021916908373ffffffffffffffffffffffffffffffffffffffff16021790555050506005820160009054906101000a900473ffffffffffffffffffffffffffffffffffffffff168160050160006101000a81548173ffffffffffffffffffffffffffffffffffffffff021916908373ffffffffffffffffffffffffffffffffffffffff1602179055506006820160009054906101000a900473ffffffffffffffffffffffffffffffffffffffff168160060160006101000a81548173ffffffffffffffffffffffffffffffffffffffff021916908373ffffffffffffffffffffffffffffffffffffffff1602179055506007820160009054906101000a900473ffffffffffffffffffffffffffffffffffffffff168160070160006101000a81548173ffffffffffffffffffffffffffffffffffffffff021916908373ffffffffffffffffffffffffffffffffffffffff1602179055505050916008019190600801906129bd565b5b509050612d4d9190612e03565b5090565b5080546000825560080290600052602060002090810190612d729190612e03565b50565b828054600181600116156101000203166002900490600052602060002090601f016020900481019282612dab5760008555612df2565b82601f10612dc457805160ff1916838001178555612df2565b82800160010185558215612df2579182015b82811115612df1578251825591602001919060010190612dd6565b5b509050612dff9190612f77565b5090565b5b80821115612f7357600080820160006101000a81549063ffffffff021916905560018201600080820160006101000a81549073ffffffffffffffffffffffffffffffffffffffff02191690556000820160146101000a81549067ffffffffffffffff021916905550506002820160006101000a81549063ffffffff02191690556002820160046101000a81549073ffffffffffffffffffffffffffffffffffffffff0219169055600382016000905560048201600080820160006101000a81549060ff02191690556000820160016101000a81549073ffffffffffffffffffffffffffffffffffffffff021916905550506005820160006101000a81549073ffffffffffffffffffffffffffffffffffffffff02191690556006820160006101000a81549073ffffffffffffffffffffffffffffffffffffffff02191690556007820160006101000a81549073ffffffffffffffffffffffffffffffffffffffff021916905550600801612e04565b5090565b5b80821115612f90576000816000905550600101612f78565b5090565b6000612fa7612fa2846155e3565b6155b2565b90508083825260208201905082856020860282011115612fc657600080fd5b60005b85811015612ff65781612fdc888261343e565b845260208401935060208301925050600181019050612fc9565b5050509392505050565b600061301361300e8461560f565b6155b2565b9050808382526020820190508260005b85811015613053578135850161303988826134e6565b845260208401935060208301925050600181019050613023565b5050509392505050565b600061307061306b8461563b565b6155b2565b9050808382526020820190508285604086028201111561308f57600080fd5b60005b858110156130bf57816130a588826138c2565b845260208401935060408301925050600181019050613092565b5050509392505050565b60006130dc6130d78461563b565b6155b2565b905080838252602082019050828560408602820111156130fb57600080fd5b60005b8581101561312b5781613111888261390e565b8452602084019350604083019250506001810190506130fe565b5050509392505050565b600061314861314384615667565b6155b2565b9050808382526020820190508260005b85811015613188578135850161316e8882613a8a565b845260208401935060208301925050600181019050613158565b5050509392505050565b60006131a56131a084615693565b6155b2565b90508083825260208201905082856101608602820111156131c557600080fd5b60005b858110156131f657816131db8882613b6e565b845260208401935061016083019250506001810190506131c8565b5050509392505050565b600061321361320e846156bf565b6155b2565b9050808382526020820190508260005b8581101561325357813585016132398882613c4c565b845260208401935060208301925050600181019050613223565b5050509392505050565b600061327061326b846156eb565b6155b2565b90508281526020810184848401111561328857600080fd5b613293848285615a27565b509392505050565b60006132ae6132a9846156eb565b6155b2565b9050828152602081018484840111156132c657600080fd5b6132d1848285615a36565b509392505050565b6000813590506132e881615b70565b92915050565b6000815190506132fd81615b70565b92915050565b600082601f83011261331457600080fd5b8135613324848260208601612f94565b91505092915050565b600082601f83011261333e57600080fd5b813561334e848260208601613000565b91505092915050565b600082601f83011261336857600080fd5b813561337884826020860161305d565b91505092915050565b600082601f83011261339257600080fd5b81516133a28482602086016130c9565b91505092915050565b600082601f8301126133bc57600080fd5b81356133cc848260208601613135565b91505092915050565b600082601f8301126133e657600080fd5b81356133f6848260208601613192565b91505092915050565b600082601f83011261341057600080fd5b8135613420848260208601613200565b91505092915050565b60008151905061343881615b87565b92915050565b60008135905061344d81615b9e565b92915050565b60008151905061346281615b9e565b92915050565b600082601f83011261347957600080fd5b813561348984826020860161325d565b91505092915050565b600082601f8301126134a357600080fd5b81516134b384826020860161329b565b91505092915050565b6000813590506134cb81615bb5565b92915050565b6000815190506134e081615bb5565b92915050565b600060a082840312156134f857600080fd5b61350260a06155b2565b9050600061351284828501613df0565b600083015250602061352684828501613df0565b602083015250604082013567ffffffffffffffff81111561354657600080fd5b61355284828501613468565b604083015250606082013567ffffffffffffffff81111561357257600080fd5b61357e848285016133ff565b606083015250608061359284828501613d9c565b60808301525092915050565b60006101e082840312156135b157600080fd5b6135bc6101c06155b2565b905060006135cc84828501613d48565b60008301525060206135e084828501613d48565b60208301525060406135f4848285016132d9565b604083015250606061360884828501613d9c565b606083015250608061361c84828501613d9c565b60808301525060a0613630848285016132d9565b60a08301525060c0613644848285016132d9565b60c08301525060e061365884828501613d9c565b60e08301525061010082013567ffffffffffffffff81111561367957600080fd5b61368584828501613357565b6101008301525061012082013567ffffffffffffffff8111156136a757600080fd5b6136b384828501613357565b610120830152506101406136c98482850161343e565b6101408301525061016082013567ffffffffffffffff8111156136eb57600080fd5b6136f784828501613357565b6101608301525061018061370d84828501613cb0565b610180830152506101c0613723848285016134bc565b6101a08301525092915050565b60006101e0828403121561374357600080fd5b61374e6101c06155b2565b9050600061375e84828501613d5d565b600083015250602061377284828501613d5d565b6020830152506040613786848285016132ee565b604083015250606061379a84828501613db1565b60608301525060806137ae84828501613db1565b60808301525060a06137c2848285016132ee565b60a08301525060c06137d6848285016132ee565b60c08301525060e06137ea84828501613db1565b60e08301525061010082015167ffffffffffffffff81111561380b57600080fd5b61381784828501613381565b6101008301525061012082015167ffffffffffffffff81111561383957600080fd5b61384584828501613381565b6101208301525061014061385b84828501613453565b6101408301525061016082015167ffffffffffffffff81111561387d57600080fd5b61388984828501613381565b6101608301525061018061389f84828501613cfc565b610180830152506101c06138b5848285016134d1565b6101a08301525092915050565b6000604082840312156138d457600080fd5b6138de60406155b2565b905060006138ee848285016132d9565b600083015250602061390284828501613dc6565b60208301525092915050565b60006040828403121561392057600080fd5b61392a60406155b2565b9050600061393a848285016132ee565b600083015250602061394e84828501613ddb565b60208301525092915050565b60006080828403121561396c57600080fd5b61397660806155b2565b9050600061398684828501613df0565b600083015250602061399a84828501613d9c565b60208301525060406139ae84828501613d9c565b604083015250606082013567ffffffffffffffff8111156139ce57600080fd5b6139da84828501613303565b60608301525092915050565b6000608082840312156139f857600080fd5b613a0260806155b2565b90506000613a1284828501613df0565b6000830152506020613a2684828501613df0565b602083015250604082013567ffffffffffffffff811115613a4657600080fd5b613a52848285016133ff565b604083015250606082013567ffffffffffffffff811115613a7257600080fd5b613a7e8482850161332d565b60608301525092915050565b600060c08284031215613a9c57600080fd5b613aa660c06155b2565b90506000613ab684828501613d72565b6000830152506020613aca8482850161343e565b6020830152506040613ade84828501613d72565b604083015250606082013567ffffffffffffffff811115613afe57600080fd5b613b0a8482850161359e565b606083015250608082013567ffffffffffffffff811115613b2a57600080fd5b613b36848285016139e6565b60808301525060a082013567ffffffffffffffff811115613b5657600080fd5b613b62848285016133d5565b60a08301525092915050565b60006101608284031215613b8157600080fd5b613b8c6101206155b2565b90506000613b9c84828501613d9c565b6000830152506020613bb0848285016138c2565b6020830152506060613bc484828501613d9c565b6040830152506080613bd8848285016132d9565b60608301525060a0613bec84828501613d72565b60808301525060c0613c0084828501613cb0565b60a083015250610100613c15848285016132d9565b60c083015250610120613c2a848285016132d9565b60e083015250610140613c3f848285016132d9565b6101008301525092915050565b600060408284031215613c5e57600080fd5b613c6860406155b2565b90506000613c7884828501613df0565b600083015250602082013567ffffffffffffffff811115613c9857600080fd5b613ca48482850161395a565b60208301525092915050565b600060408284031215613cc257600080fd5b613ccc60406155b2565b90506000613cdc84828501613df0565b6000830152506020613cf0848285016132d9565b60208301525092915050565b600060408284031215613d0e57600080fd5b613d1860406155b2565b90506000613d2884828501613e05565b6000830152506020613d3c848285016132ee565b60208301525092915050565b600081359050613d5781615bcc565b92915050565b600081519050613d6c81615bcc565b92915050565b600081359050613d8181615be3565b92915050565b600081519050613d9681615be3565b92915050565b600081359050613dab81615bfa565b92915050565b600081519050613dc081615bfa565b92915050565b600081359050613dd581615c11565b92915050565b600081519050613dea81615c11565b92915050565b600081359050613dff81615c28565b92915050565b600081519050613e1481615c28565b92915050565b600060208284031215613e2c57600080fd5b6000613e3a848285016132d9565b91505092915050565b600060208284031215613e5557600080fd5b6000613e63848285016132ee565b91505092915050565b600060208284031215613e7e57600080fd5b600082013567ffffffffffffffff811115613e9857600080fd5b613ea4848285016133ab565b91505092915050565b600060208284031215613ebf57600080fd5b6000613ecd84828501613429565b91505092915050565b600060208284031215613ee857600080fd5b6000613ef68482850161343e565b91505092915050565b600060208284031215613f1157600080fd5b600082015167ffffffffffffffff811115613f2b57600080fd5b613f3784828501613492565b91505092915050565b600060208284031215613f5257600080fd5b600082015167ffffffffffffffff811115613f6c57600080fd5b613f7884828501613730565b91505092915050565b600060208284031215613f9357600080fd5b600082013567ffffffffffffffff811115613fad57600080fd5b613fb984828501613a8a565b91505092915050565b60006101608284031215613fd557600080fd5b6000613fe384828501613b6e565b91505092915050565b600060208284031215613ffe57600080fd5b600061400c84828501613d72565b91505092915050565b60006020828403121561402757600080fd5b600061403584828501613d87565b91505092915050565b6000806040838503121561405157600080fd5b600061405f85828601613d72565b925050602061407085828601613d72565b9150509250929050565b6000614086838361442a565b60208301905092915050565b600061409e838361485b565b905092915050565b60006140b28383614b50565b60408301905092915050565b60006140ca8383614d52565b905092915050565b60006140de8383614e18565b6101608301905092915050565b60006140f78383614ed1565b6101608301905092915050565b60006141108383614fcf565b905092915050565b614121816159f1565b82525050565b61413081615953565b82525050565b61413f81615953565b82525050565b600061415082615790565b61415a8185615843565b93506141658361571b565b8060005b8381101561419657815161417d888261407a565b9750614188836157e8565b925050600181019050614169565b5085935050505092915050565b60006141ae8261579b565b6141b88185615854565b9350836020820285016141ca8561572b565b8060005b8581101561420657848403895281516141e78582614092565b94506141f2836157f5565b925060208a019950506001810190506141ce565b50829750879550505050505092915050565b6000614223826157a6565b61422d8185615865565b93506142388361573b565b8060005b8381101561426957815161425088826140a6565b975061425b83615802565b92505060018101905061423c565b5085935050505092915050565b6000614281826157b1565b61428b8185615876565b93508360208202850161429d8561574b565b8060005b858110156142d957848403895281516142ba85826140be565b94506142c58361580f565b925060208a019950506001810190506142a1565b50829750879550505050505092915050565b60006142f6826157bc565b6143008185615887565b935061430b8361575b565b8060005b8381101561433c57815161432388826140d2565b975061432e8361581c565b92505060018101905061430f565b5085935050505092915050565b6000614354826157c7565b61435e8185615898565b93506143698361576b565b8060005b83811015614399578161438088826140eb565b975061438b83615829565b92505060018101905061436d565b5085935050505092915050565b60006143b1826157d2565b6143bb81856158a9565b9350836020820285016143cd85615780565b8060005b8581101561440957848403895281516143ea8582614104565b94506143f583615836565b925060208a019950506001810190506143d1565b50829750879550505050505092915050565b61442481615965565b82525050565b61443381615971565b82525050565b61444281615971565b82525050565b61445961445482615971565b615b1f565b82525050565b600061446a826157dd565b61447481856158ba565b9350614484818560208601615a36565b61448d81615b2b565b840191505092915050565b60006144a3826157dd565b6144ad81856158cb565b93506144bd818560208601615a36565b6144c681615b2b565b840191505092915050565b60006144dc826157dd565b6144e681856158dc565b93506144f6818560208601615a36565b80840191505092915050565b61450b8161597b565b82525050565b600061451e603b836158e7565b91507f427269646765206973206e6f742079657420617661696c61626c65206f6e6c7960008301527f2056657275732063616e206265207573656420666f72206665657300000000006020830152604082019050919050565b6000614584601c836158e7565b91507f436f6e747261637420686173206265656e2064657072656361746564000000006000830152602082019050919050565b60006145c4601b836158e7565b91507f5472616e7366657220686173206265656e2070726f63657373656400000000006000830152602082019050919050565b60006146046034836158e7565b91507f5472616e736665727320646f206e6f742070726f766520616761696e7374207460008301527f6865206c617374206e6f746172697a6174696f6e0000000000000000000000006020830152604082019050919050565b600061466a6029836158e7565b91507f52657175657374656420616d6f756e74206578636565647320636f6e7472616360008301527f742062616c616e636500000000000000000000000000000000000000000000006020830152604082019050919050565b60006146d0603d836158e7565b91507f427269646765206973206e6f742079657420617661696c61626c65206665657360008301527f2063616e6e6f7420657863656564206578697374696e6720706f6f6c2e0000006020830152604082019050919050565b6000614736601b836158e7565b91507f54686520746f6b656e206973206e6f74207265676973746572656400000000006000830152602082019050919050565b60006147766055836158e7565b91507f5468697320636f6e7472616374206d757374206861766520616e20616c6c6f7760008301527f616e6365206f662067726561746572207468616e206f7220657175616c20746f60208301527f20746865206e756d626572206f6620746f6b656e7300000000000000000000006040830152606082019050919050565b6000614802602c836158e7565b91507f506c656173652073656e642074686520617070726f707269617465207472616e60008301527f73616374696f6e206665652e00000000000000000000000000000000000000006020830152604082019050919050565b600060a0830160008301516148736000860182615113565b5060208301516148866020860182615113565b506040830151848203604086015261489e828261445f565b915050606083015184820360608601526148b882826143a6565b91505060808301516148cd60808601826150d7565b508091505092915050565b60006101e0830160008301516148f160008601826150aa565b50602083015161490460208601826150aa565b5060408301516149176040860182614127565b50606083015161492a60608601826150d7565b50608083015161493d60808601826150d7565b5060a083015161495060a0860182614127565b5060c083015161496360c0860182614127565b5060e083015161497660e08601826150d7565b506101008301518482036101008601526149908282614218565b9150506101208301518482036101208601526149ac8282614218565b9150506101408301516149c361014086018261442a565b506101608301518482036101608601526149dd8282614218565b9150506101808301516149f461018086018261500c565b506101a0830151614a096101c0860182614502565b508091505092915050565b60006101e083016000830151614a2d60008601826150aa565b506020830151614a4060208601826150aa565b506040830151614a536040860182614127565b506060830151614a6660608601826150d7565b506080830151614a7960808601826150d7565b5060a0830151614a8c60a0860182614127565b5060c0830151614a9f60c0860182614127565b5060e0830151614ab260e08601826150d7565b50610100830151848203610100860152614acc8282614218565b915050610120830151848203610120860152614ae88282614218565b915050610140830151614aff61014086018261442a565b50610160830151848203610160860152614b198282614218565b915050610180830151614b3061018086018261500c565b506101a0830151614b456101c0860182614502565b508091505092915050565b604082016000820151614b666000850182614127565b506020820151614b7960208501826150f5565b50505050565b604082016000820151614b956000850182614127565b506020820151614ba860208501826150f5565b50505050565b604082016000808301549050614bc381615a69565b614bd06000860182614127565b50614bda81615aeb565b614be760208601826150f5565b5050505050565b6000608083016000830151614c066000860182615113565b506020830151614c1960208601826150d7565b506040830151614c2c60408601826150d7565b5060608301518482036060860152614c448282614145565b9150508091505092915050565b6000608083016000830151614c696000860182615113565b506020830151614c7c6020860182615113565b5060408301518482036040860152614c9482826143a6565b91505060608301518482036060860152614cae82826141a3565b9150508091505092915050565b600060c083016000830151614cd360008601826150b9565b506020830151614ce6602086018261442a565b506040830151614cf960408601826150b9565b5060608301518482036060860152614d1182826148d8565b91505060808301518482036080860152614d2b8282614c51565b91505060a083015184820360a0860152614d4582826142eb565b9150508091505092915050565b6000608083016000830151614d6a60008601826150b9565b506020830151614d7d60208601826150b9565b506040830151614d90604086018261442a565b5060608301518482036060860152614da882826142eb565b9150508091505092915050565b6000608083016000830151614dcd60008601826150b9565b506020830151614de060208601826150b9565b506040830151614df3604086018261442a565b5060608301518482036060860152614e0b82826142eb565b9150508091505092915050565b61016082016000820151614e2f60008501826150d7565b506020820151614e426020850182614b50565b506040820151614e5560608501826150d7565b506060820151614e686080850182614127565b506080820151614e7b60a08501826150b9565b5060a0820151614e8e60c085018261500c565b5060c0820151614ea2610100850182614127565b5060e0820151614eb6610120850182614127565b50610100820151614ecb610140850182614127565b50505050565b61016082016000808301549050614ee781615a9d565b614ef460008601826150d7565b5060018301614f066020860182614bae565b5060028301549050614f1781615a9d565b614f2460608601826150d7565b50614f2e81615b05565b614f3b6080860182614127565b5060038301549050614f4c81615a83565b614f5960a08601826150b9565b5060048301614f6b60c086018261506a565b5060058301549050614f7c81615a69565b614f8a610100860182614127565b5060068301549050614f9b81615a69565b614fa9610120860182614127565b5060078301549050614fba81615a69565b614fc8610140860182614127565b5050505050565b6000604083016000830151614fe76000860182615113565b5060208301518482036020860152614fff8282614bee565b9150508091505092915050565b6040820160008201516150226000850182615113565b5060208201516150356020850182614127565b50505050565b6040820160008201516150516000850182615113565b5060208201516150646020850182614127565b50505050565b60408201600080830154905061507f81615ab7565b61508c6000860182615113565b5061509681615ad1565b6150a36020860182614127565b5050505050565b6150b381615988565b82525050565b6150c2816159b6565b82525050565b6150d1816159b6565b82525050565b6150e0816159c0565b82525050565b6150ef816159c0565b82525050565b6150fe816159d0565b82525050565b61510d816159d0565b82525050565b61511c816159e4565b82525050565b600061512e82856144d1565b915061513a8284614448565b6020820191508190509392505050565b600061515682856144d1565b915061516282846144d1565b91508190509392505050565b60006020820190506151836000830184614136565b92915050565b600060408201905061519e6000830185614118565b6151ab6020830184614136565b9392505050565b60006060820190506151c76000830186614118565b6151d46020830185614136565b6151e160408301846150c8565b949350505050565b60006040820190506151fe6000830185614136565b61520b60208301846150c8565b9392505050565b60006060820190506152276000830186614136565b61523460208301856150c8565b6152416040830184614136565b949350505050565b600060208201905081810360008301526152638184614276565b905092915050565b600060208201905081810360008301526152858184614349565b905092915050565b600060408201905081810360008301526152a78185614349565b90506152b6602083018461441b565b9392505050565b60006020820190506152d2600083018461441b565b92915050565b60006020820190506152ed6000830184614439565b92915050565b6000602082019050818103600083015261530d8184614498565b905092915050565b6000602082019050818103600083015261532e81614511565b9050919050565b6000602082019050818103600083015261534e81614577565b9050919050565b6000602082019050818103600083015261536e816145b7565b9050919050565b6000602082019050818103600083015261538e816145f7565b9050919050565b600060208201905081810360008301526153ae8161465d565b9050919050565b600060208201905081810360008301526153ce816146c3565b9050919050565b600060208201905081810360008301526153ee81614729565b9050919050565b6000602082019050818103600083015261540e81614769565b9050919050565b6000602082019050818103600083015261542e816147f5565b9050919050565b6000602082019050818103600083015261544f8184614a14565b905092915050565b600060208201905081810360008301526154718184614cbb565b905092915050565b600060208201905081810360008301526154938184614db5565b905092915050565b60006020820190506154b060008301846150c8565b92915050565b60006040820190506154cb60008301856150c8565b6154d8602083018461441b565b9392505050565b60006040820190506154f460008301856150c8565b6155016020830184614439565b9392505050565b60006101608201905061551e600083018c6150e6565b61552b602083018b614b7f565b615538606083018a6150e6565b6155456080830189614136565b61555260a08301886150c8565b61555f60c083018761503b565b61556d610100830186614136565b61557b610120830185614136565b615589610140830184614136565b9a9950505050505050505050565b60006020820190506155ac6000830184615104565b92915050565b6000604051905081810181811067ffffffffffffffff821117156155d9576155d8615b29565b5b8060405250919050565b600067ffffffffffffffff8211156155fe576155fd615b29565b5b602082029050602081019050919050565b600067ffffffffffffffff82111561562a57615629615b29565b5b602082029050602081019050919050565b600067ffffffffffffffff82111561565657615655615b29565b5b602082029050602081019050919050565b600067ffffffffffffffff82111561568257615681615b29565b5b602082029050602081019050919050565b600067ffffffffffffffff8211156156ae576156ad615b29565b5b602082029050602081019050919050565b600067ffffffffffffffff8211156156da576156d9615b29565b5b602082029050602081019050919050565b600067ffffffffffffffff82111561570657615705615b29565b5b601f19601f8301169050602081019050919050565b6000819050602082019050919050565b6000819050602082019050919050565b6000819050602082019050919050565b6000819050602082019050919050565b6000819050602082019050919050565b60008190508160005260206000209050919050565b6000819050602082019050919050565b600081519050919050565b600081519050919050565b600081519050919050565b600081519050919050565b600081519050919050565b600081549050919050565b600081519050919050565b600081519050919050565b6000602082019050919050565b6000602082019050919050565b6000602082019050919050565b6000602082019050919050565b6000602082019050919050565b6000600882019050919050565b6000602082019050919050565b600082825260208201905092915050565b600082825260208201905092915050565b600082825260208201905092915050565b600082825260208201905092915050565b600082825260208201905092915050565b600082825260208201905092915050565b600082825260208201905092915050565b600082825260208201905092915050565b600082825260208201905092915050565b600081905092915050565b600082825260208201905092915050565b600073ffffffffffffffffffffffffffffffffffffffff82169050919050565b6000819050919050565b600063ffffffff82169050919050565b600067ffffffffffffffff82169050919050565b600060ff82169050919050565b600061595e82615996565b9050919050565b60008115159050919050565b6000819050919050565b60008160030b9050919050565b600061ffff82169050919050565b600073ffffffffffffffffffffffffffffffffffffffff82169050919050565b6000819050919050565b600063ffffffff82169050919050565b600067ffffffffffffffff82169050919050565b600060ff82169050919050565b60006159fc82615a03565b9050919050565b6000615a0e82615a15565b9050919050565b6000615a2082615996565b9050919050565b82818337600083830152505050565b60005b83811015615a54578082015181840152602081019050615a39565b83811115615a63576000848401525b50505050565b6000615a7c615a7783615b3c565b6158f8565b9050919050565b6000615a96615a9183615b3c565b615918565b9050919050565b6000615ab0615aab83615b3c565b615922565b9050919050565b6000615aca615ac583615b3c565b615946565b9050919050565b6000615ae4615adf83615b63565b6158f8565b9050919050565b6000615afe615af983615b49565b615932565b9050919050565b6000615b18615b1383615b56565b6158f8565b9050919050565b6000819050919050565bfe5b6000601f19601f8301169050919050565b60008160001c9050919050565b60008160a01c9050919050565b60008160201c9050919050565b60008160081c9050919050565b615b7981615953565b8114615b8457600080fd5b50565b615b9081615965565b8114615b9b57600080fd5b50565b615ba781615971565b8114615bb257600080fd5b50565b615bbe8161597b565b8114615bc957600080fd5b50565b615bd581615988565b8114615be057600080fd5b50565b615bec816159b6565b8114615bf757600080fd5b50565b615c03816159c0565b8114615c0e57600080fd5b50565b615c1a816159d0565b8114615c2557600080fd5b50565b615c31816159e4565b8114615c3c57600080fd5b5056fea26469706673582212206779af6e882a523323464ca5ab48e5f45befd4a04f1fce1b3dd78278aa07d36c64736f6c63430007060033",
			"opcodes": "PUSH1 0x80 PUSH1 0x40 MSTORE PUSH1 0x0 PUSH1 0x5 PUSH1 0x14 PUSH2 0x100 EXP DUP2 SLOAD DUP2 PUSH1 0xFF MUL NOT AND SWAP1 DUP4 ISZERO ISZERO MUL OR SWAP1 SSTORE POP PUSH1 0x0 PUSH1 0x7 SSTORE PUSH1 0x0 PUSH1 0x8 SSTORE PUSH1 0x0 PUSH1 0x9 SSTORE PUSH1 0x0 PUSH1 0xA SSTORE CALLVALUE DUP1 ISZERO PUSH3 0x40 JUMPI PUSH1 0x0 DUP1 REVERT JUMPDEST POP PUSH1 0x40 MLOAD PUSH3 0x5FD1 CODESIZE SUB DUP1 PUSH3 0x5FD1 DUP4 CODECOPY DUP2 DUP2 ADD PUSH1 0x40 MSTORE DUP2 ADD SWAP1 PUSH3 0x66 SWAP2 SWAP1 PUSH3 0x244 JUMP JUMPDEST CALLER PUSH1 0x5 PUSH1 0x0 PUSH2 0x100 EXP DUP2 SLOAD DUP2 PUSH20 0xFFFFFFFFFFFFFFFFFFFFFFFFFFFFFFFFFFFFFFFF MUL NOT AND SWAP1 DUP4 PUSH20 0xFFFFFFFFFFFFFFFFFFFFFFFFFFFFFFFFFFFFFFFF AND MUL OR SWAP1 SSTORE POP DUP6 PUSH1 0x2 PUSH1 0x0 PUSH2 0x100 EXP DUP2 SLOAD DUP2 PUSH20 0xFFFFFFFFFFFFFFFFFFFFFFFFFFFFFFFFFFFFFFFF MUL NOT AND SWAP1 DUP4 PUSH20 0xFFFFFFFFFFFFFFFFFFFFFFFFFFFFFFFFFFFFFFFF AND MUL OR SWAP1 SSTORE POP DUP5 PUSH1 0x0 DUP1 PUSH2 0x100 EXP DUP2 SLOAD DUP2 PUSH20 0xFFFFFFFFFFFFFFFFFFFFFFFFFFFFFFFFFFFFFFFF MUL NOT AND SWAP1 DUP4 PUSH20 0xFFFFFFFFFFFFFFFFFFFFFFFFFFFFFFFFFFFFFFFF AND MUL OR SWAP1 SSTORE POP DUP4 PUSH1 0x1 PUSH1 0x0 PUSH2 0x100 EXP DUP2 SLOAD DUP2 PUSH20 0xFFFFFFFFFFFFFFFFFFFFFFFFFFFFFFFFFFFFFFFF MUL NOT AND SWAP1 DUP4 PUSH20 0xFFFFFFFFFFFFFFFFFFFFFFFFFFFFFFFFFFFFFFFF AND MUL OR SWAP1 SSTORE POP DUP3 PUSH1 0x3 PUSH1 0x0 PUSH2 0x100 EXP DUP2 SLOAD DUP2 PUSH20 0xFFFFFFFFFFFFFFFFFFFFFFFFFFFFFFFFFFFFFFFF MUL NOT AND SWAP1 DUP4 PUSH20 0xFFFFFFFFFFFFFFFFFFFFFFFFFFFFFFFFFFFFFFFF AND MUL OR SWAP1 SSTORE POP DUP2 PUSH1 0x4 PUSH1 0x0 PUSH2 0x100 EXP DUP2 SLOAD DUP2 PUSH20 0xFFFFFFFFFFFFFFFFFFFFFFFFFFFFFFFFFFFFFFFF MUL NOT AND SWAP1 DUP4 PUSH20 0xFFFFFFFFFFFFFFFFFFFFFFFFFFFFFFFFFFFFFFFF AND MUL OR SWAP1 SSTORE POP DUP1 PUSH1 0x9 DUP2 SWAP1 SSTORE POP PUSH1 0x0 PUSH1 0xE PUSH1 0x0 ADD DUP2 SWAP1 SSTORE POP PUSH1 0x0 DUP1 SHL PUSH1 0xE PUSH1 0x1 ADD DUP2 SWAP1 SSTORE POP POP POP POP POP POP POP PUSH3 0x34C JUMP JUMPDEST PUSH1 0x0 DUP2 MLOAD SWAP1 POP PUSH3 0x227 DUP2 PUSH3 0x318 JUMP JUMPDEST SWAP3 SWAP2 POP POP JUMP JUMPDEST PUSH1 0x0 DUP2 MLOAD SWAP1 POP PUSH3 0x23E DUP2 PUSH3 0x332 JUMP JUMPDEST SWAP3 SWAP2 POP POP JUMP JUMPDEST PUSH1 0x0 DUP1 PUSH1 0x0 DUP1 PUSH1 0x0 DUP1 PUSH1 0xC0 DUP8 DUP10 SUB SLT ISZERO PUSH3 0x25E JUMPI PUSH1 0x0 DUP1 REVERT JUMPDEST PUSH1 0x0 PUSH3 0x26E DUP10 DUP3 DUP11 ADD PUSH3 0x216 JUMP JUMPDEST SWAP7 POP POP PUSH1 0x20 PUSH3 0x281 DUP10 DUP3 DUP11 ADD PUSH3 0x216 JUMP JUMPDEST SWAP6 POP POP PUSH1 0x40 PUSH3 0x294 DUP10 DUP3 DUP11 ADD PUSH3 0x216 JUMP JUMPDEST SWAP5 POP POP PUSH1 0x60 PUSH3 0x2A7 DUP10 DUP3 DUP11 ADD PUSH3 0x216 JUMP JUMPDEST SWAP4 POP POP PUSH1 0x80 PUSH3 0x2BA DUP10 DUP3 DUP11 ADD PUSH3 0x216 JUMP JUMPDEST SWAP3 POP POP PUSH1 0xA0 PUSH3 0x2CD DUP10 DUP3 DUP11 ADD PUSH3 0x22D JUMP JUMPDEST SWAP2 POP POP SWAP3 SWAP6 POP SWAP3 SWAP6 POP SWAP3 SWAP6 JUMP JUMPDEST PUSH1 0x0 PUSH3 0x2E7 DUP3 PUSH3 0x2EE JUMP JUMPDEST SWAP1 POP SWAP2 SWAP1 POP JUMP JUMPDEST PUSH1 0x0 PUSH20 0xFFFFFFFFFFFFFFFFFFFFFFFFFFFFFFFFFFFFFFFF DUP3 AND SWAP1 POP SWAP2 SWAP1 POP JUMP JUMPDEST PUSH1 0x0 DUP2 SWAP1 POP SWAP2 SWAP1 POP JUMP JUMPDEST PUSH3 0x323 DUP2 PUSH3 0x2DA JUMP JUMPDEST DUP2 EQ PUSH3 0x32F JUMPI PUSH1 0x0 DUP1 REVERT JUMPDEST POP JUMP JUMPDEST PUSH3 0x33D DUP2 PUSH3 0x30E JUMP JUMPDEST DUP2 EQ PUSH3 0x349 JUMPI PUSH1 0x0 DUP1 REVERT JUMPDEST POP JUMP JUMPDEST PUSH2 0x5C75 DUP1 PUSH3 0x35C PUSH1 0x0 CODECOPY PUSH1 0x0 RETURN INVALID PUSH1 0x80 PUSH1 0x40 MSTORE PUSH1 0x4 CALLDATASIZE LT PUSH2 0x140 JUMPI PUSH1 0x0 CALLDATALOAD PUSH1 0xE0 SHR DUP1 PUSH4 0x44E5FFD3 GT PUSH2 0xB6 JUMPI DUP1 PUSH4 0xC17A4EEF GT PUSH2 0x6F JUMPI DUP1 PUSH4 0xC17A4EEF EQ PUSH2 0x4BC JUMPI DUP1 PUSH4 0xD294F093 EQ PUSH2 0x4FA JUMPI DUP1 PUSH4 0xD83AA63C EQ PUSH2 0x525 JUMPI DUP1 PUSH4 0xDF7DC506 EQ PUSH2 0x562 JUMPI DUP1 PUSH4 0xE45B909D EQ PUSH2 0x58B JUMPI DUP1 PUSH4 0xE4804ABC EQ PUSH2 0x5C8 JUMPI PUSH2 0x140 JUMP JUMPDEST DUP1 PUSH4 0x44E5FFD3 EQ PUSH2 0x369 JUMPI DUP1 PUSH4 0x4EC18DB9 EQ PUSH2 0x3A6 JUMPI DUP1 PUSH4 0x529CB5A1 EQ PUSH2 0x3D1 JUMPI DUP1 PUSH4 0x5F2EDCBE EQ PUSH2 0x40E JUMPI DUP1 PUSH4 0x7E0B2492 EQ PUSH2 0x43A JUMPI DUP1 PUSH4 0x7E3E661B EQ PUSH2 0x477 JUMPI PUSH2 0x140 JUMP JUMPDEST DUP1 PUSH4 0x327D4263 GT PUSH2 0x108 JUMPI DUP1 PUSH4 0x327D4263 EQ PUSH2 0x21F JUMPI DUP1 PUSH4 0x33BC02FA EQ PUSH2 0x25C JUMPI DUP1 PUSH4 0x388EEE6C EQ PUSH2 0x299 JUMPI DUP1 PUSH4 0x3EE2CE85 EQ PUSH2 0x2D6 JUMPI DUP1 PUSH4 0x3F067B20 EQ PUSH2 0x313 JUMPI DUP1 PUSH4 0x42CE5011 EQ PUSH2 0x33E JUMPI PUSH2 0x140 JUMP JUMPDEST DUP1 PUSH4 0xE136B19 EQ PUSH2 0x145 JUMPI DUP1 PUSH4 0x231B0268 EQ PUSH2 0x170 JUMPI DUP1 PUSH4 0x26976E3F EQ PUSH2 0x19B JUMPI DUP1 PUSH4 0x2A9E72A6 EQ PUSH2 0x1C6 JUMPI DUP1 PUSH4 0x2D5BEADC EQ PUSH2 0x203 JUMPI JUMPDEST PUSH1 0x0 DUP1 REVERT JUMPDEST CALLVALUE DUP1 ISZERO PUSH2 0x151 JUMPI PUSH1 0x0 DUP1 REVERT JUMPDEST POP PUSH2 0x15A PUSH2 0x605 JUMP JUMPDEST PUSH1 0x40 MLOAD PUSH2 0x167 SWAP2 SWAP1 PUSH2 0x52BD JUMP JUMPDEST PUSH1 0x40 MLOAD DUP1 SWAP2 SUB SWAP1 RETURN JUMPDEST CALLVALUE DUP1 ISZERO PUSH2 0x17C JUMPI PUSH1 0x0 DUP1 REVERT JUMPDEST POP PUSH2 0x185 PUSH2 0x618 JUMP JUMPDEST PUSH1 0x40 MLOAD PUSH2 0x192 SWAP2 SWAP1 PUSH2 0x549B JUMP JUMPDEST PUSH1 0x40 MLOAD DUP1 SWAP2 SUB SWAP1 RETURN JUMPDEST CALLVALUE DUP1 ISZERO PUSH2 0x1A7 JUMPI PUSH1 0x0 DUP1 REVERT JUMPDEST POP PUSH2 0x1B0 PUSH2 0x61E JUMP JUMPDEST PUSH1 0x40 MLOAD PUSH2 0x1BD SWAP2 SWAP1 PUSH2 0x516E JUMP JUMPDEST PUSH1 0x40 MLOAD DUP1 SWAP2 SUB SWAP1 RETURN JUMPDEST CALLVALUE DUP1 ISZERO PUSH2 0x1D2 JUMPI PUSH1 0x0 DUP1 REVERT JUMPDEST POP PUSH2 0x1ED PUSH1 0x4 DUP1 CALLDATASIZE SUB DUP2 ADD SWAP1 PUSH2 0x1E8 SWAP2 SWAP1 PUSH2 0x3FEC JUMP JUMPDEST PUSH2 0x644 JUMP JUMPDEST PUSH1 0x40 MLOAD PUSH2 0x1FA SWAP2 SWAP1 PUSH2 0x5479 JUMP JUMPDEST PUSH1 0x40 MLOAD DUP1 SWAP2 SUB SWAP1 RETURN JUMPDEST PUSH2 0x21D PUSH1 0x4 DUP1 CALLDATASIZE SUB DUP2 ADD SWAP1 PUSH2 0x218 SWAP2 SWAP1 PUSH2 0x3FC2 JUMP JUMPDEST PUSH2 0x9EB JUMP JUMPDEST STOP JUMPDEST CALLVALUE DUP1 ISZERO PUSH2 0x22B JUMPI PUSH1 0x0 DUP1 REVERT JUMPDEST POP PUSH2 0x246 PUSH1 0x4 DUP1 CALLDATASIZE SUB DUP2 ADD SWAP1 PUSH2 0x241 SWAP2 SWAP1 PUSH2 0x3ED6 JUMP JUMPDEST PUSH2 0x10DC JUMP JUMPDEST PUSH1 0x40 MLOAD PUSH2 0x253 SWAP2 SWAP1 PUSH2 0x52BD JUMP JUMPDEST PUSH1 0x40 MLOAD DUP1 SWAP2 SUB SWAP1 RETURN JUMPDEST CALLVALUE DUP1 ISZERO PUSH2 0x268 JUMPI PUSH1 0x0 DUP1 REVERT JUMPDEST POP PUSH2 0x283 PUSH1 0x4 DUP1 CALLDATASIZE SUB DUP2 ADD SWAP1 PUSH2 0x27E SWAP2 SWAP1 PUSH2 0x3F81 JUMP JUMPDEST PUSH2 0x10FC JUMP JUMPDEST PUSH1 0x40 MLOAD PUSH2 0x290 SWAP2 SWAP1 PUSH2 0x52BD JUMP JUMPDEST PUSH1 0x40 MLOAD DUP1 SWAP2 SUB SWAP1 RETURN JUMPDEST CALLVALUE DUP1 ISZERO PUSH2 0x2A5 JUMPI PUSH1 0x0 DUP1 REVERT JUMPDEST POP PUSH2 0x2C0 PUSH1 0x4 DUP1 CALLDATASIZE SUB DUP2 ADD SWAP1 PUSH2 0x2BB SWAP2 SWAP1 PUSH2 0x3FEC JUMP JUMPDEST PUSH2 0x15D6 JUMP JUMPDEST PUSH1 0x40 MLOAD PUSH2 0x2CD SWAP2 SWAP1 PUSH2 0x5597 JUMP JUMPDEST PUSH1 0x40 MLOAD DUP1 SWAP2 SUB SWAP1 RETURN JUMPDEST CALLVALUE DUP1 ISZERO PUSH2 0x2E2 JUMPI PUSH1 0x0 DUP1 REVERT JUMPDEST POP PUSH2 0x2FD PUSH1 0x4 DUP1 CALLDATASIZE SUB DUP2 ADD SWAP1 PUSH2 0x2F8 SWAP2 SWAP1 PUSH2 0x3FEC JUMP JUMPDEST PUSH2 0x15F3 JUMP JUMPDEST PUSH1 0x40 MLOAD PUSH2 0x30A SWAP2 SWAP1 PUSH2 0x52F3 JUMP JUMPDEST PUSH1 0x40 MLOAD DUP1 SWAP2 SUB SWAP1 RETURN JUMPDEST CALLVALUE DUP1 ISZERO PUSH2 0x31F JUMPI PUSH1 0x0 DUP1 REVERT JUMPDEST POP PUSH2 0x328 PUSH2 0x16AF JUMP JUMPDEST PUSH1 0x40 MLOAD PUSH2 0x335 SWAP2 SWAP1 PUSH2 0x549B JUMP JUMPDEST PUSH1 0x40 MLOAD DUP1 SWAP2 SUB SWAP1 RETURN JUMPDEST CALLVALUE DUP1 ISZERO PUSH2 0x34A JUMPI PUSH1 0x0 DUP1 REVERT JUMPDEST POP PUSH2 0x353 PUSH2 0x16B5 JUMP JUMPDEST PUSH1 0x40 MLOAD PUSH2 0x360 SWAP2 SWAP1 PUSH2 0x549B JUMP JUMPDEST PUSH1 0x40 MLOAD DUP1 SWAP2 SUB SWAP1 RETURN JUMPDEST CALLVALUE DUP1 ISZERO PUSH2 0x375 JUMPI PUSH1 0x0 DUP1 REVERT JUMPDEST POP PUSH2 0x390 PUSH1 0x4 DUP1 CALLDATASIZE SUB DUP2 ADD SWAP1 PUSH2 0x38B SWAP2 SWAP1 PUSH2 0x3FEC JUMP JUMPDEST PUSH2 0x16BB JUMP JUMPDEST PUSH1 0x40 MLOAD PUSH2 0x39D SWAP2 SWAP1 PUSH2 0x52D8 JUMP JUMPDEST PUSH1 0x40 MLOAD DUP1 SWAP2 SUB SWAP1 RETURN JUMPDEST CALLVALUE DUP1 ISZERO PUSH2 0x3B2 JUMPI PUSH1 0x0 DUP1 REVERT JUMPDEST POP PUSH2 0x3BB PUSH2 0x16DF JUMP JUMPDEST PUSH1 0x40 MLOAD PUSH2 0x3C8 SWAP2 SWAP1 PUSH2 0x549B JUMP JUMPDEST PUSH1 0x40 MLOAD DUP1 SWAP2 SUB SWAP1 RETURN JUMPDEST CALLVALUE DUP1 ISZERO PUSH2 0x3DD JUMPI PUSH1 0x0 DUP1 REVERT JUMPDEST POP PUSH2 0x3F8 PUSH1 0x4 DUP1 CALLDATASIZE SUB DUP2 ADD SWAP1 PUSH2 0x3F3 SWAP2 SWAP1 PUSH2 0x3FEC JUMP JUMPDEST PUSH2 0x16E5 JUMP JUMPDEST PUSH1 0x40 MLOAD PUSH2 0x405 SWAP2 SWAP1 PUSH2 0x5597 JUMP JUMPDEST PUSH1 0x40 MLOAD DUP1 SWAP2 SUB SWAP1 RETURN JUMPDEST CALLVALUE DUP1 ISZERO PUSH2 0x41A JUMPI PUSH1 0x0 DUP1 REVERT JUMPDEST POP PUSH2 0x423 PUSH2 0x16FB JUMP JUMPDEST PUSH1 0x40 MLOAD PUSH2 0x431 SWAP3 SWAP2 SWAP1 PUSH2 0x54DF JUMP JUMPDEST PUSH1 0x40 MLOAD DUP1 SWAP2 SUB SWAP1 RETURN JUMPDEST CALLVALUE DUP1 ISZERO PUSH2 0x446 JUMPI PUSH1 0x0 DUP1 REVERT JUMPDEST POP PUSH2 0x461 PUSH1 0x4 DUP1 CALLDATASIZE SUB DUP2 ADD SWAP1 PUSH2 0x45C SWAP2 SWAP1 PUSH2 0x3E1A JUMP JUMPDEST PUSH2 0x170D JUMP JUMPDEST PUSH1 0x40 MLOAD PUSH2 0x46E SWAP2 SWAP1 PUSH2 0x549B JUMP JUMPDEST PUSH1 0x40 MLOAD DUP1 SWAP2 SUB SWAP1 RETURN JUMPDEST CALLVALUE DUP1 ISZERO PUSH2 0x483 JUMPI PUSH1 0x0 DUP1 REVERT JUMPDEST POP PUSH2 0x49E PUSH1 0x4 DUP1 CALLDATASIZE SUB DUP2 ADD SWAP1 PUSH2 0x499 SWAP2 SWAP1 PUSH2 0x403E JUMP JUMPDEST PUSH2 0x1725 JUMP JUMPDEST PUSH1 0x40 MLOAD PUSH2 0x4B3 SWAP10 SWAP9 SWAP8 SWAP7 SWAP6 SWAP5 SWAP4 SWAP3 SWAP2 SWAP1 PUSH2 0x5508 JUMP JUMPDEST PUSH1 0x40 MLOAD DUP1 SWAP2 SUB SWAP1 RETURN JUMPDEST CALLVALUE DUP1 ISZERO PUSH2 0x4C8 JUMPI PUSH1 0x0 DUP1 REVERT JUMPDEST POP PUSH2 0x4E3 PUSH1 0x4 DUP1 CALLDATASIZE SUB DUP2 ADD SWAP1 PUSH2 0x4DE SWAP2 SWAP1 PUSH2 0x3FEC JUMP JUMPDEST PUSH2 0x194B JUMP JUMPDEST PUSH1 0x40 MLOAD PUSH2 0x4F1 SWAP3 SWAP2 SWAP1 PUSH2 0x54B6 JUMP JUMPDEST PUSH1 0x40 MLOAD DUP1 SWAP2 SUB SWAP1 RETURN JUMPDEST CALLVALUE DUP1 ISZERO PUSH2 0x506 JUMPI PUSH1 0x0 DUP1 REVERT JUMPDEST POP PUSH2 0x50F PUSH2 0x197C JUMP JUMPDEST PUSH1 0x40 MLOAD PUSH2 0x51C SWAP2 SWAP1 PUSH2 0x549B JUMP JUMPDEST PUSH1 0x40 MLOAD DUP1 SWAP2 SUB SWAP1 RETURN JUMPDEST CALLVALUE DUP1 ISZERO PUSH2 0x531 JUMPI PUSH1 0x0 DUP1 REVERT JUMPDEST POP PUSH2 0x54C PUSH1 0x4 DUP1 CALLDATASIZE SUB DUP2 ADD SWAP1 PUSH2 0x547 SWAP2 SWAP1 PUSH2 0x3FEC JUMP JUMPDEST PUSH2 0x1AA5 JUMP JUMPDEST PUSH1 0x40 MLOAD PUSH2 0x559 SWAP2 SWAP1 PUSH2 0x52F3 JUMP JUMPDEST PUSH1 0x40 MLOAD DUP1 SWAP2 SUB SWAP1 RETURN JUMPDEST CALLVALUE DUP1 ISZERO PUSH2 0x56E JUMPI PUSH1 0x0 DUP1 REVERT JUMPDEST POP PUSH2 0x589 PUSH1 0x4 DUP1 CALLDATASIZE SUB DUP2 ADD SWAP1 PUSH2 0x584 SWAP2 SWAP1 PUSH2 0x3E6C JUMP JUMPDEST PUSH2 0x1B61 JUMP JUMPDEST STOP JUMPDEST CALLVALUE DUP1 ISZERO PUSH2 0x597 JUMPI PUSH1 0x0 DUP1 REVERT JUMPDEST POP PUSH2 0x5B2 PUSH1 0x4 DUP1 CALLDATASIZE SUB DUP2 ADD SWAP1 PUSH2 0x5AD SWAP2 SWAP1 PUSH2 0x3FEC JUMP JUMPDEST PUSH2 0x1B9B JUMP JUMPDEST PUSH1 0x40 MLOAD PUSH2 0x5BF SWAP2 SWAP1 PUSH2 0x52D8 JUMP JUMPDEST PUSH1 0x40 MLOAD DUP1 SWAP2 SUB SWAP1 RETURN JUMPDEST CALLVALUE DUP1 ISZERO PUSH2 0x5D4 JUMPI PUSH1 0x0 DUP1 REVERT JUMPDEST POP PUSH2 0x5EF PUSH1 0x4 DUP1 CALLDATASIZE SUB DUP2 ADD SWAP1 PUSH2 0x5EA SWAP2 SWAP1 PUSH2 0x403E JUMP JUMPDEST PUSH2 0x1BBF JUMP JUMPDEST PUSH1 0x40 MLOAD PUSH2 0x5FC SWAP2 SWAP1 PUSH2 0x5249 JUMP JUMPDEST PUSH1 0x40 MLOAD DUP1 SWAP2 SUB SWAP1 RETURN JUMPDEST PUSH1 0x5 PUSH1 0x14 SWAP1 SLOAD SWAP1 PUSH2 0x100 EXP SWAP1 DIV PUSH1 0xFF AND DUP2 JUMP JUMPDEST PUSH1 0xA SLOAD DUP2 JUMP JUMPDEST PUSH1 0x6 PUSH1 0x0 SWAP1 SLOAD SWAP1 PUSH2 0x100 EXP SWAP1 DIV PUSH20 0xFFFFFFFFFFFFFFFFFFFFFFFFFFFFFFFFFFFFFFFF AND DUP2 JUMP JUMPDEST PUSH2 0x64C PUSH2 0x2967 JUMP JUMPDEST PUSH1 0x0 PUSH1 0x11 PUSH1 0x0 DUP5 DUP2 MSTORE PUSH1 0x20 ADD SWAP1 DUP2 MSTORE PUSH1 0x20 ADD PUSH1 0x0 KECCAK256 PUSH1 0x0 ADD SLOAD SWAP1 POP PUSH1 0x0 PUSH1 0x40 MLOAD DUP1 PUSH1 0x80 ADD PUSH1 0x40 MSTORE DUP1 DUP4 DUP2 MSTORE PUSH1 0x20 ADD DUP6 DUP2 MSTORE PUSH1 0x20 ADD PUSH1 0xB DUP5 DUP2 SLOAD DUP2 LT PUSH2 0x68D JUMPI INVALID JUMPDEST SWAP1 PUSH1 0x0 MSTORE PUSH1 0x20 PUSH1 0x0 KECCAK256 ADD SLOAD DUP2 MSTORE PUSH1 0x20 ADD PUSH1 0xD DUP5 DUP2 SLOAD DUP2 LT PUSH2 0x6AA JUMPI INVALID JUMPDEST SWAP1 PUSH1 0x0 MSTORE PUSH1 0x20 PUSH1 0x0 KECCAK256 ADD DUP1 SLOAD DUP1 PUSH1 0x20 MUL PUSH1 0x20 ADD PUSH1 0x40 MLOAD SWAP1 DUP2 ADD PUSH1 0x40 MSTORE DUP1 SWAP3 SWAP2 SWAP1 DUP2 DUP2 MSTORE PUSH1 0x20 ADD PUSH1 0x0 SWAP1 JUMPDEST DUP3 DUP3 LT ISZERO PUSH2 0x9D8 JUMPI DUP4 DUP3 SWAP1 PUSH1 0x0 MSTORE PUSH1 0x20 PUSH1 0x0 KECCAK256 SWAP1 PUSH1 0x8 MUL ADD PUSH1 0x40 MLOAD DUP1 PUSH2 0x120 ADD PUSH1 0x40 MSTORE SWAP1 DUP2 PUSH1 0x0 DUP3 ADD PUSH1 0x0 SWAP1 SLOAD SWAP1 PUSH2 0x100 EXP SWAP1 DIV PUSH4 0xFFFFFFFF AND PUSH4 0xFFFFFFFF AND PUSH4 0xFFFFFFFF AND DUP2 MSTORE PUSH1 0x20 ADD PUSH1 0x1 DUP3 ADD PUSH1 0x40 MLOAD DUP1 PUSH1 0x40 ADD PUSH1 0x40 MSTORE SWAP1 DUP2 PUSH1 0x0 DUP3 ADD PUSH1 0x0 SWAP1 SLOAD SWAP1 PUSH2 0x100 EXP SWAP1 DIV PUSH20 0xFFFFFFFFFFFFFFFFFFFFFFFFFFFFFFFFFFFFFFFF AND PUSH20 0xFFFFFFFFFFFFFFFFFFFFFFFFFFFFFFFFFFFFFFFF AND PUSH20 0xFFFFFFFFFFFFFFFFFFFFFFFFFFFFFFFFFFFFFFFF AND DUP2 MSTORE PUSH1 0x20 ADD PUSH1 0x0 DUP3 ADD PUSH1 0x14 SWAP1 SLOAD SWAP1 PUSH2 0x100 EXP SWAP1 DIV PUSH8 0xFFFFFFFFFFFFFFFF AND PUSH8 0xFFFFFFFFFFFFFFFF AND PUSH8 0xFFFFFFFFFFFFFFFF AND DUP2 MSTORE POP POP DUP2 MSTORE PUSH1 0x20 ADD PUSH1 0x2 DUP3 ADD PUSH1 0x0 SWAP1 SLOAD SWAP1 PUSH2 0x100 EXP SWAP1 DIV PUSH4 0xFFFFFFFF AND PUSH4 0xFFFFFFFF AND PUSH4 0xFFFFFFFF AND DUP2 MSTORE PUSH1 0x20 ADD PUSH1 0x2 DUP3 ADD PUSH1 0x4 SWAP1 SLOAD SWAP1 PUSH2 0x100 EXP SWAP1 DIV PUSH20 0xFFFFFFFFFFFFFFFFFFFFFFFFFFFFFFFFFFFFFFFF AND PUSH20 0xFFFFFFFFFFFFFFFFFFFFFFFFFFFFFFFFFFFFFFFF AND PUSH20 0xFFFFFFFFFFFFFFFFFFFFFFFFFFFFFFFFFFFFFFFF AND DUP2 MSTORE PUSH1 0x20 ADD PUSH1 0x3 DUP3 ADD SLOAD DUP2 MSTORE PUSH1 0x20 ADD PUSH1 0x4 DUP3 ADD PUSH1 0x40 MLOAD DUP1 PUSH1 0x40 ADD PUSH1 0x40 MSTORE SWAP1 DUP2 PUSH1 0x0 DUP3 ADD PUSH1 0x0 SWAP1 SLOAD SWAP1 PUSH2 0x100 EXP SWAP1 DIV PUSH1 0xFF AND PUSH1 0xFF AND PUSH1 0xFF AND DUP2 MSTORE PUSH1 0x20 ADD PUSH1 0x0 DUP3 ADD PUSH1 0x1 SWAP1 SLOAD SWAP1 PUSH2 0x100 EXP SWAP1 DIV PUSH20 0xFFFFFFFFFFFFFFFFFFFFFFFFFFFFFFFFFFFFFFFF AND PUSH20 0xFFFFFFFFFFFFFFFFFFFFFFFFFFFFFFFFFFFFFFFF AND PUSH20 0xFFFFFFFFFFFFFFFFFFFFFFFFFFFFFFFFFFFFFFFF AND DUP2 MSTORE POP POP DUP2 MSTORE PUSH1 0x20 ADD PUSH1 0x5 DUP3 ADD PUSH1 0x0 SWAP1 SLOAD SWAP1 PUSH2 0x100 EXP SWAP1 DIV PUSH20 0xFFFFFFFFFFFFFFFFFFFFFFFFFFFFFFFFFFFFFFFF AND PUSH20 0xFFFFFFFFFFFFFFFFFFFFFFFFFFFFFFFFFFFFFFFF AND PUSH20 0xFFFFFFFFFFFFFFFFFFFFFFFFFFFFFFFFFFFFFFFF AND DUP2 MSTORE PUSH1 0x20 ADD PUSH1 0x6 DUP3 ADD PUSH1 0x0 SWAP1 SLOAD SWAP1 PUSH2 0x100 EXP SWAP1 DIV PUSH20 0xFFFFFFFFFFFFFFFFFFFFFFFFFFFFFFFFFFFFFFFF AND PUSH20 0xFFFFFFFFFFFFFFFFFFFFFFFFFFFFFFFFFFFFFFFF AND PUSH20 0xFFFFFFFFFFFFFFFFFFFFFFFFFFFFFFFFFFFFFFFF AND DUP2 MSTORE PUSH1 0x20 ADD PUSH1 0x7 DUP3 ADD PUSH1 0x0 SWAP1 SLOAD SWAP1 PUSH2 0x100 EXP SWAP1 DIV PUSH20 0xFFFFFFFFFFFFFFFFFFFFFFFFFFFFFFFFFFFFFFFF AND PUSH20 0xFFFFFFFFFFFFFFFFFFFFFFFFFFFFFFFFFFFFFFFF AND PUSH20 0xFFFFFFFFFFFFFFFFFFFFFFFFFFFFFFFFFFFFFFFF AND DUP2 MSTORE POP POP DUP2 MSTORE PUSH1 0x20 ADD SWAP1 PUSH1 0x1 ADD SWAP1 PUSH2 0x6D4 JUMP JUMPDEST POP POP POP POP DUP2 MSTORE POP SWAP1 POP DUP1 SWAP3 POP POP POP SWAP2 SWAP1 POP JUMP JUMPDEST PUSH1 0x5 PUSH1 0x14 SWAP1 SLOAD SWAP1 PUSH2 0x100 EXP SWAP1 DIV PUSH1 0xFF AND ISZERO PUSH2 0xA3B JUMPI PUSH1 0x40 MLOAD PUSH32 0x8C379A000000000000000000000000000000000000000000000000000000000 DUP2 MSTORE PUSH1 0x4 ADD PUSH2 0xA32 SWAP1 PUSH2 0x5335 JUMP JUMPDEST PUSH1 0x40 MLOAD DUP1 SWAP2 SUB SWAP1 REVERT JUMPDEST DUP1 PUSH1 0x80 ADD MLOAD PUSH8 0xFFFFFFFFFFFFFFFF AND PUSH6 0x5AF3107A4000 ADD CALLVALUE LT ISZERO PUSH2 0xA94 JUMPI PUSH1 0x40 MLOAD PUSH32 0x8C379A000000000000000000000000000000000000000000000000000000000 DUP2 MSTORE PUSH1 0x4 ADD PUSH2 0xA8B SWAP1 PUSH2 0x5415 JUMP JUMPDEST PUSH1 0x40 MLOAD DUP1 SWAP2 SUB SWAP1 REVERT JUMPDEST PUSH20 0x67460C2F56774ED27EEB8685F29F6CEC0B090B00 PUSH20 0xFFFFFFFFFFFFFFFFFFFFFFFFFFFFFFFFFFFFFFFF AND DUP2 PUSH1 0xA0 ADD MLOAD PUSH1 0x20 ADD MLOAD PUSH20 0xFFFFFFFFFFFFFFFFFFFFFFFFFFFFFFFFFFFFFFFF AND EQ PUSH2 0x1063 JUMPI CALLVALUE PUSH1 0x7 PUSH1 0x0 DUP3 DUP3 SLOAD ADD SWAP3 POP POP DUP2 SWAP1 SSTORE POP PUSH1 0x0 PUSH20 0xFFFFFFFFFFFFFFFFFFFFFFFFFFFFFFFFFFFFFFFF AND PUSH1 0x0 DUP1 SLOAD SWAP1 PUSH2 0x100 EXP SWAP1 DIV PUSH20 0xFFFFFFFFFFFFFFFFFFFFFFFFFFFFFFFFFFFFFFFF AND PUSH20 0xFFFFFFFFFFFFFFFFFFFFFFFFFFFFFFFFFFFFFFFF AND PUSH4 0x826737FC DUP4 PUSH1 0xE0 ADD MLOAD PUSH1 0x40 MLOAD DUP3 PUSH4 0xFFFFFFFF AND PUSH1 0xE0 SHL DUP2 MSTORE PUSH1 0x4 ADD PUSH2 0xB68 SWAP2 SWAP1 PUSH2 0x516E JUMP JUMPDEST PUSH1 0x20 PUSH1 0x40 MLOAD DUP1 DUP4 SUB DUP2 DUP7 DUP1 EXTCODESIZE ISZERO DUP1 ISZERO PUSH2 0xB80 JUMPI PUSH1 0x0 DUP1 REVERT JUMPDEST POP GAS STATICCALL ISZERO DUP1 ISZERO PUSH2 0xB94 JUMPI RETURNDATASIZE PUSH1 0x0 DUP1 RETURNDATACOPY RETURNDATASIZE PUSH1 0x0 REVERT JUMPDEST POP POP POP POP PUSH1 0x40 MLOAD RETURNDATASIZE PUSH1 0x1F NOT PUSH1 0x1F DUP3 ADD AND DUP3 ADD DUP1 PUSH1 0x40 MSTORE POP DUP2 ADD SWAP1 PUSH2 0xBB8 SWAP2 SWAP1 PUSH2 0x3E43 JUMP JUMPDEST PUSH20 0xFFFFFFFFFFFFFFFFFFFFFFFFFFFFFFFFFFFFFFFF AND EQ ISZERO PUSH2 0xC0F JUMPI PUSH1 0x40 MLOAD PUSH32 0x8C379A000000000000000000000000000000000000000000000000000000000 DUP2 MSTORE PUSH1 0x4 ADD PUSH2 0xC06 SWAP1 PUSH2 0x53D5 JUMP JUMPDEST PUSH1 0x40 MLOAD DUP1 SWAP2 SUB SWAP1 REVERT JUMPDEST PUSH1 0x0 DUP1 PUSH1 0x0 SWAP1 SLOAD SWAP1 PUSH2 0x100 EXP SWAP1 DIV PUSH20 0xFFFFFFFFFFFFFFFFFFFFFFFFFFFFFFFFFFFFFFFF AND PUSH20 0xFFFFFFFFFFFFFFFFFFFFFFFFFFFFFFFFFFFFFFFF AND PUSH4 0x826737FC DUP4 PUSH1 0xE0 ADD MLOAD PUSH1 0x40 MLOAD DUP3 PUSH4 0xFFFFFFFF AND PUSH1 0xE0 SHL DUP2 MSTORE PUSH1 0x4 ADD PUSH2 0xC6F SWAP2 SWAP1 PUSH2 0x516E JUMP JUMPDEST PUSH1 0x20 PUSH1 0x40 MLOAD DUP1 DUP4 SUB DUP2 DUP7 DUP1 EXTCODESIZE ISZERO DUP1 ISZERO PUSH2 0xC87 JUMPI PUSH1 0x0 DUP1 REVERT JUMPDEST POP GAS STATICCALL ISZERO DUP1 ISZERO PUSH2 0xC9B JUMPI RETURNDATASIZE PUSH1 0x0 DUP1 RETURNDATACOPY RETURNDATASIZE PUSH1 0x0 REVERT JUMPDEST POP POP POP POP PUSH1 0x40 MLOAD RETURNDATASIZE PUSH1 0x1F NOT PUSH1 0x1F DUP3 ADD AND DUP3 ADD DUP1 PUSH1 0x40 MSTORE POP DUP2 ADD SWAP1 PUSH2 0xCBF SWAP2 SWAP1 PUSH2 0x3E43 JUMP JUMPDEST SWAP1 POP PUSH1 0x0 DUP2 PUSH20 0xFFFFFFFFFFFFFFFFFFFFFFFFFFFFFFFFFFFFFFFF AND PUSH4 0xDD62ED3E CALLER ADDRESS PUSH1 0x40 MLOAD DUP4 PUSH4 0xFFFFFFFF AND PUSH1 0xE0 SHL DUP2 MSTORE PUSH1 0x4 ADD PUSH2 0xCFE SWAP3 SWAP2 SWAP1 PUSH2 0x5189 JUMP JUMPDEST PUSH1 0x20 PUSH1 0x40 MLOAD DUP1 DUP4 SUB DUP2 DUP7 DUP1 EXTCODESIZE ISZERO DUP1 ISZERO PUSH2 0xD16 JUMPI PUSH1 0x0 DUP1 REVERT JUMPDEST POP GAS STATICCALL ISZERO DUP1 ISZERO PUSH2 0xD2A JUMPI RETURNDATASIZE PUSH1 0x0 DUP1 RETURNDATACOPY RETURNDATASIZE PUSH1 0x0 REVERT JUMPDEST POP POP POP POP PUSH1 0x40 MLOAD RETURNDATASIZE PUSH1 0x1F NOT PUSH1 0x1F DUP3 ADD AND DUP3 ADD DUP1 PUSH1 0x40 MSTORE POP DUP2 ADD SWAP1 PUSH2 0xD4E SWAP2 SWAP1 PUSH2 0x4015 JUMP JUMPDEST SWAP1 POP DUP3 PUSH1 0x20 ADD MLOAD PUSH1 0x20 ADD MLOAD PUSH8 0xFFFFFFFFFFFFFFFF AND DUP2 PUSH8 0xFFFFFFFFFFFFFFFF AND LT ISZERO PUSH2 0xDAF JUMPI PUSH1 0x40 MLOAD PUSH32 0x8C379A000000000000000000000000000000000000000000000000000000000 DUP2 MSTORE PUSH1 0x4 ADD PUSH2 0xDA6 SWAP1 PUSH2 0x53F5 JUMP JUMPDEST PUSH1 0x40 MLOAD DUP1 SWAP2 SUB SWAP1 REVERT JUMPDEST DUP2 PUSH20 0xFFFFFFFFFFFFFFFFFFFFFFFFFFFFFFFFFFFFFFFF AND PUSH4 0x23B872DD CALLER ADDRESS DUP7 PUSH1 0x20 ADD MLOAD PUSH1 0x20 ADD MLOAD PUSH8 0xFFFFFFFFFFFFFFFF AND PUSH1 0x40 MLOAD DUP5 PUSH4 0xFFFFFFFF AND PUSH1 0xE0 SHL DUP2 MSTORE PUSH1 0x4 ADD PUSH2 0xDFE SWAP4 SWAP3 SWAP2 SWAP1 PUSH2 0x51B2 JUMP JUMPDEST PUSH1 0x20 PUSH1 0x40 MLOAD DUP1 DUP4 SUB DUP2 PUSH1 0x0 DUP8 DUP1 EXTCODESIZE ISZERO DUP1 ISZERO PUSH2 0xE18 JUMPI PUSH1 0x0 DUP1 REVERT JUMPDEST POP GAS CALL ISZERO DUP1 ISZERO PUSH2 0xE2C JUMPI RETURNDATASIZE PUSH1 0x0 DUP1 RETURNDATACOPY RETURNDATASIZE PUSH1 0x0 REVERT JUMPDEST POP POP POP POP PUSH1 0x40 MLOAD RETURNDATASIZE PUSH1 0x1F NOT PUSH1 0x1F DUP3 ADD AND DUP3 ADD DUP1 PUSH1 0x40 MSTORE POP DUP2 ADD SWAP1 PUSH2 0xE50 SWAP2 SWAP1 PUSH2 0x3EAD JUMP JUMPDEST POP DUP2 PUSH20 0xFFFFFFFFFFFFFFFFFFFFFFFFFFFFFFFFFFFFFFFF AND PUSH4 0x95EA7B3 PUSH1 0x0 DUP1 SLOAD SWAP1 PUSH2 0x100 EXP SWAP1 DIV PUSH20 0xFFFFFFFFFFFFFFFFFFFFFFFFFFFFFFFFFFFFFFFF AND DUP6 PUSH1 0x20 ADD MLOAD PUSH1 0x20 ADD MLOAD PUSH8 0xFFFFFFFFFFFFFFFF AND PUSH1 0x40 MLOAD DUP4 PUSH4 0xFFFFFFFF AND PUSH1 0xE0 SHL DUP2 MSTORE PUSH1 0x4 ADD PUSH2 0xEBE SWAP3 SWAP2 SWAP1 PUSH2 0x51E9 JUMP JUMPDEST PUSH1 0x20 PUSH1 0x40 MLOAD DUP1 DUP4 SUB DUP2 PUSH1 0x0 DUP8 DUP1 EXTCODESIZE ISZERO DUP1 ISZERO PUSH2 0xED8 JUMPI PUSH1 0x0 DUP1 REVERT JUMPDEST POP GAS CALL ISZERO DUP1 ISZERO PUSH2 0xEEC JUMPI RETURNDATASIZE PUSH1 0x0 DUP1 RETURNDATACOPY RETURNDATASIZE PUSH1 0x0 REVERT JUMPDEST POP POP POP POP PUSH1 0x40 MLOAD RETURNDATASIZE PUSH1 0x1F NOT PUSH1 0x1F DUP3 ADD AND DUP3 ADD DUP1 PUSH1 0x40 MSTORE POP DUP2 ADD SWAP1 PUSH2 0xF10 SWAP2 SWAP1 PUSH2 0x3EAD JUMP JUMPDEST POP PUSH1 0x0 DUP1 SLOAD SWAP1 PUSH2 0x100 EXP SWAP1 DIV PUSH20 0xFFFFFFFFFFFFFFFFFFFFFFFFFFFFFFFFFFFFFFFF AND PUSH20 0xFFFFFFFFFFFFFFFFFFFFFFFFFFFFFFFFFFFFFFFF AND PUSH4 0x9033EF3F PUSH1 0x0 DUP1 SLOAD SWAP1 PUSH2 0x100 EXP SWAP1 DIV PUSH20 0xFFFFFFFFFFFFFFFFFFFFFFFFFFFFFFFFFFFFFFFF AND PUSH20 0xFFFFFFFFFFFFFFFFFFFFFFFFFFFFFFFFFFFFFFFF AND PUSH4 0x826737FC DUP7 PUSH1 0xE0 ADD MLOAD PUSH1 0x40 MLOAD DUP3 PUSH4 0xFFFFFFFF AND PUSH1 0xE0 SHL DUP2 MSTORE PUSH1 0x4 ADD PUSH2 0xFAA SWAP2 SWAP1 PUSH2 0x516E JUMP JUMPDEST PUSH1 0x20 PUSH1 0x40 MLOAD DUP1 DUP4 SUB DUP2 DUP7 DUP1 EXTCODESIZE ISZERO DUP1 ISZERO PUSH2 0xFC2 JUMPI PUSH1 0x0 DUP1 REVERT JUMPDEST POP GAS STATICCALL ISZERO DUP1 ISZERO PUSH2 0xFD6 JUMPI RETURNDATASIZE PUSH1 0x0 DUP1 RETURNDATACOPY RETURNDATASIZE PUSH1 0x0 REVERT JUMPDEST POP POP POP POP PUSH1 0x40 MLOAD RETURNDATASIZE PUSH1 0x1F NOT PUSH1 0x1F DUP3 ADD AND DUP3 ADD DUP1 PUSH1 0x40 MSTORE POP DUP2 ADD SWAP1 PUSH2 0xFFA SWAP2 SWAP1 PUSH2 0x3E43 JUMP JUMPDEST DUP6 PUSH1 0x20 ADD MLOAD PUSH1 0x20 ADD MLOAD PUSH8 0xFFFFFFFFFFFFFFFF AND PUSH1 0x40 MLOAD DUP4 PUSH4 0xFFFFFFFF AND PUSH1 0xE0 SHL DUP2 MSTORE PUSH1 0x4 ADD PUSH2 0x102A SWAP3 SWAP2 SWAP1 PUSH2 0x51E9 JUMP JUMPDEST PUSH1 0x0 PUSH1 0x40 MLOAD DUP1 DUP4 SUB DUP2 PUSH1 0x0 DUP8 DUP1 EXTCODESIZE ISZERO DUP1 ISZERO PUSH2 0x1044 JUMPI PUSH1 0x0 DUP1 REVERT JUMPDEST POP GAS CALL ISZERO DUP1 ISZERO PUSH2 0x1058 JUMPI RETURNDATASIZE PUSH1 0x0 DUP1 RETURNDATACOPY RETURNDATASIZE PUSH1 0x0 REVERT JUMPDEST POP POP POP POP POP POP PUSH2 0x10D0 JUMP JUMPDEST PUSH2 0x1074 PUSH6 0x5AF3107A4000 CALLVALUE SUB PUSH2 0x15D6 JUMP JUMPDEST DUP2 PUSH1 0x20 ADD MLOAD PUSH1 0x20 ADD SWAP1 PUSH8 0xFFFFFFFFFFFFFFFF AND SWAP1 DUP2 PUSH8 0xFFFFFFFFFFFFFFFF AND DUP2 MSTORE POP POP DUP1 PUSH1 0x20 ADD MLOAD PUSH1 0x20 ADD MLOAD PUSH8 0xFFFFFFFFFFFFFFFF AND PUSH1 0x8 PUSH1 0x0 DUP3 DUP3 SLOAD ADD SWAP3 POP POP DUP2 SWAP1 SSTORE POP PUSH6 0x5AF3107A4000 PUSH1 0x7 PUSH1 0x0 DUP3 DUP3 SLOAD ADD SWAP3 POP POP DUP2 SWAP1 SSTORE POP JUMPDEST PUSH2 0x10D9 DUP2 PUSH2 0x1CEE JUMP JUMPDEST POP JUMP JUMPDEST PUSH1 0x10 PUSH1 0x20 MSTORE DUP1 PUSH1 0x0 MSTORE PUSH1 0x40 PUSH1 0x0 KECCAK256 PUSH1 0x0 SWAP2 POP SLOAD SWAP1 PUSH2 0x100 EXP SWAP1 DIV PUSH1 0xFF AND DUP2 JUMP JUMPDEST PUSH1 0x0 PUSH1 0x1 ISZERO ISZERO PUSH1 0x10 PUSH1 0x0 DUP5 PUSH1 0x20 ADD MLOAD DUP2 MSTORE PUSH1 0x20 ADD SWAP1 DUP2 MSTORE PUSH1 0x20 ADD PUSH1 0x0 KECCAK256 PUSH1 0x0 SWAP1 SLOAD SWAP1 PUSH2 0x100 EXP SWAP1 DIV PUSH1 0xFF AND ISZERO ISZERO EQ ISZERO PUSH2 0x116A JUMPI PUSH1 0x40 MLOAD PUSH32 0x8C379A000000000000000000000000000000000000000000000000000000000 DUP2 MSTORE PUSH1 0x4 ADD PUSH2 0x1161 SWAP1 PUSH2 0x5355 JUMP JUMPDEST PUSH1 0x40 MLOAD DUP1 SWAP2 SUB SWAP1 REVERT JUMPDEST PUSH1 0x0 PUSH1 0x2 PUSH1 0x0 SWAP1 SLOAD SWAP1 PUSH2 0x100 EXP SWAP1 DIV PUSH20 0xFFFFFFFFFFFFFFFFFFFFFFFFFFFFFFFFFFFFFFFF AND PUSH20 0xFFFFFFFFFFFFFFFFFFFFFFFFFFFFFFFFFFFFFFFF AND PUSH4 0x8F59B004 DUP5 PUSH1 0x40 MLOAD DUP3 PUSH4 0xFFFFFFFF AND PUSH1 0xE0 SHL DUP2 MSTORE PUSH1 0x4 ADD PUSH2 0x11C7 SWAP2 SWAP1 PUSH2 0x5457 JUMP JUMPDEST PUSH1 0x20 PUSH1 0x40 MLOAD DUP1 DUP4 SUB DUP2 DUP7 DUP1 EXTCODESIZE ISZERO DUP1 ISZERO PUSH2 0x11DF JUMPI PUSH1 0x0 DUP1 REVERT JUMPDEST POP GAS STATICCALL ISZERO DUP1 ISZERO PUSH2 0x11F3 JUMPI RETURNDATASIZE PUSH1 0x0 DUP1 RETURNDATACOPY RETURNDATASIZE PUSH1 0x0 REVERT JUMPDEST POP POP POP POP PUSH1 0x40 MLOAD RETURNDATASIZE PUSH1 0x1F NOT PUSH1 0x1F DUP3 ADD AND DUP3 ADD DUP1 PUSH1 0x40 MSTORE POP DUP2 ADD SWAP1 PUSH2 0x1217 SWAP2 SWAP1 PUSH2 0x3EAD JUMP JUMPDEST SWAP1 POP DUP1 PUSH2 0x1259 JUMPI PUSH1 0x40 MLOAD PUSH32 0x8C379A000000000000000000000000000000000000000000000000000000000 DUP2 MSTORE PUSH1 0x4 ADD PUSH2 0x1250 SWAP1 PUSH2 0x5375 JUMP JUMPDEST PUSH1 0x40 MLOAD DUP1 SWAP2 SUB SWAP1 REVERT JUMPDEST PUSH1 0x1 PUSH1 0x10 PUSH1 0x0 DUP6 PUSH1 0x20 ADD MLOAD DUP2 MSTORE PUSH1 0x20 ADD SWAP1 DUP2 MSTORE PUSH1 0x20 ADD PUSH1 0x0 KECCAK256 PUSH1 0x0 PUSH2 0x100 EXP DUP2 SLOAD DUP2 PUSH1 0xFF MUL NOT AND SWAP1 DUP4 ISZERO ISZERO MUL OR SWAP1 SSTORE POP PUSH1 0x0 DUP1 PUSH1 0x0 SWAP1 POP JUMPDEST DUP5 PUSH1 0xA0 ADD MLOAD MLOAD DUP2 LT ISZERO PUSH2 0x15CA JUMPI PUSH2 0x12D0 DUP6 PUSH1 0xA0 ADD MLOAD DUP3 DUP2 MLOAD DUP2 LT PUSH2 0x12B1 JUMPI INVALID JUMPDEST PUSH1 0x20 MUL PUSH1 0x20 ADD ADD MLOAD PUSH1 0x20 ADD MLOAD PUSH1 0x20 ADD MLOAD PUSH8 0xFFFFFFFFFFFFFFFF AND PUSH2 0x16E5 JUMP JUMPDEST PUSH8 0xFFFFFFFFFFFFFFFF AND SWAP2 POP PUSH20 0x67460C2F56774ED27EEB8685F29F6CEC0B090B00 PUSH20 0xFFFFFFFFFFFFFFFFFFFFFFFFFFFFFFFFFFFFFFFF AND DUP6 PUSH1 0xA0 ADD MLOAD DUP3 DUP2 MLOAD DUP2 LT PUSH2 0x1317 JUMPI INVALID JUMPDEST PUSH1 0x20 MUL PUSH1 0x20 ADD ADD MLOAD PUSH1 0x20 ADD MLOAD PUSH1 0x0 ADD MLOAD PUSH20 0xFFFFFFFFFFFFFFFFFFFFFFFFFFFFFFFFFFFFFFFF AND EQ ISZERO PUSH2 0x13C4 JUMPI SELFBALANCE DUP3 GT ISZERO PUSH2 0x1386 JUMPI PUSH1 0x40 MLOAD PUSH32 0x8C379A000000000000000000000000000000000000000000000000000000000 DUP2 MSTORE PUSH1 0x4 ADD PUSH2 0x137D SWAP1 PUSH2 0x5395 JUMP JUMPDEST PUSH1 0x40 MLOAD DUP1 SWAP2 SUB SWAP1 REVERT JUMPDEST PUSH2 0x13AF DUP3 DUP7 PUSH1 0xA0 ADD MLOAD DUP4 DUP2 MLOAD DUP2 LT PUSH2 0x139A JUMPI INVALID JUMPDEST PUSH1 0x20 MUL PUSH1 0x20 ADD ADD MLOAD PUSH1 0xA0 ADD MLOAD PUSH1 0x20 ADD MLOAD PUSH2 0x2749 JUMP JUMPDEST DUP2 PUSH1 0x8 PUSH1 0x0 DUP3 DUP3 SLOAD SUB SWAP3 POP POP DUP2 SWAP1 SSTORE POP PUSH2 0x1492 JUMP JUMPDEST PUSH1 0x0 DUP1 SLOAD SWAP1 PUSH2 0x100 EXP SWAP1 DIV PUSH20 0xFFFFFFFFFFFFFFFFFFFFFFFFFFFFFFFFFFFFFFFF AND PUSH20 0xFFFFFFFFFFFFFFFFFFFFFFFFFFFFFFFFFFFFFFFF AND PUSH4 0xD2A5BDB1 DUP7 PUSH1 0xA0 ADD MLOAD DUP4 DUP2 MLOAD DUP2 LT PUSH2 0x1410 JUMPI INVALID JUMPDEST PUSH1 0x20 MUL PUSH1 0x20 ADD ADD MLOAD PUSH1 0x20 ADD MLOAD PUSH1 0x0 ADD MLOAD DUP5 DUP9 PUSH1 0xA0 ADD MLOAD DUP6 DUP2 MLOAD DUP2 LT PUSH2 0x1431 JUMPI INVALID JUMPDEST PUSH1 0x20 MUL PUSH1 0x20 ADD ADD MLOAD PUSH1 0xA0 ADD MLOAD PUSH1 0x20 ADD MLOAD PUSH1 0x40 MLOAD DUP5 PUSH4 0xFFFFFFFF AND PUSH1 0xE0 SHL DUP2 MSTORE PUSH1 0x4 ADD PUSH2 0x145F SWAP4 SWAP3 SWAP2 SWAP1 PUSH2 0x5212 JUMP JUMPDEST PUSH1 0x0 PUSH1 0x40 MLOAD DUP1 DUP4 SUB DUP2 PUSH1 0x0 DUP8 DUP1 EXTCODESIZE ISZERO DUP1 ISZERO PUSH2 0x1479 JUMPI PUSH1 0x0 DUP1 REVERT JUMPDEST POP GAS CALL ISZERO DUP1 ISZERO PUSH2 0x148D JUMPI RETURNDATASIZE PUSH1 0x0 DUP1 RETURNDATACOPY RETURNDATASIZE PUSH1 0x0 REVERT JUMPDEST POP POP POP POP JUMPDEST PUSH1 0x0 DUP6 PUSH1 0xA0 ADD MLOAD DUP3 DUP2 MLOAD DUP2 LT PUSH2 0x14A4 JUMPI INVALID JUMPDEST PUSH1 0x20 MUL PUSH1 0x20 ADD ADD MLOAD PUSH1 0x80 ADD MLOAD GT DUP1 ISZERO PUSH2 0x1517 JUMPI POP PUSH20 0x67460C2F56774ED27EEB8685F29F6CEC0B090B00 PUSH20 0xFFFFFFFFFFFFFFFFFFFFFFFFFFFFFFFFFFFFFFFF AND DUP6 PUSH1 0xA0 ADD MLOAD DUP3 DUP2 MLOAD DUP2 LT PUSH2 0x14F3 JUMPI INVALID JUMPDEST PUSH1 0x20 MUL PUSH1 0x20 ADD ADD MLOAD PUSH1 0x60 ADD MLOAD PUSH20 0xFFFFFFFFFFFFFFFFFFFFFFFFFFFFFFFFFFFFFFFF AND EQ JUMPDEST ISZERO PUSH2 0x15BD JUMPI DUP5 PUSH1 0xA0 ADD MLOAD DUP2 DUP2 MLOAD DUP2 LT PUSH2 0x152C JUMPI INVALID JUMPDEST PUSH1 0x20 MUL PUSH1 0x20 ADD ADD MLOAD PUSH1 0x80 ADD MLOAD PUSH1 0x12 PUSH1 0x0 CALLER PUSH20 0xFFFFFFFFFFFFFFFFFFFFFFFFFFFFFFFFFFFFFFFF AND PUSH20 0xFFFFFFFFFFFFFFFFFFFFFFFFFFFFFFFFFFFFFFFF AND DUP2 MSTORE PUSH1 0x20 ADD SWAP1 DUP2 MSTORE PUSH1 0x20 ADD PUSH1 0x0 KECCAK256 SLOAD ADD PUSH1 0x12 PUSH1 0x0 CALLER PUSH20 0xFFFFFFFFFFFFFFFFFFFFFFFFFFFFFFFFFFFFFFFF AND PUSH20 0xFFFFFFFFFFFFFFFFFFFFFFFFFFFFFFFFFFFFFFFF AND DUP2 MSTORE PUSH1 0x20 ADD SWAP1 DUP2 MSTORE PUSH1 0x20 ADD PUSH1 0x0 KECCAK256 DUP2 SWAP1 SSTORE POP JUMPDEST DUP1 DUP1 PUSH1 0x1 ADD SWAP2 POP POP PUSH2 0x1291 JUMP JUMPDEST POP PUSH1 0x1 SWAP3 POP POP POP SWAP2 SWAP1 POP JUMP JUMPDEST PUSH1 0x0 DUP1 PUSH5 0x2540BE400 DUP4 DUP2 PUSH2 0x15E7 JUMPI INVALID JUMPDEST DIV SWAP1 POP DUP1 SWAP2 POP POP SWAP2 SWAP1 POP JUMP JUMPDEST PUSH1 0x14 DUP2 DUP2 SLOAD DUP2 LT PUSH2 0x1603 JUMPI PUSH1 0x0 DUP1 REVERT JUMPDEST SWAP1 PUSH1 0x0 MSTORE PUSH1 0x20 PUSH1 0x0 KECCAK256 ADD PUSH1 0x0 SWAP2 POP SWAP1 POP DUP1 SLOAD PUSH1 0x1 DUP2 PUSH1 0x1 AND ISZERO PUSH2 0x100 MUL SUB AND PUSH1 0x2 SWAP1 DIV DUP1 PUSH1 0x1F ADD PUSH1 0x20 DUP1 SWAP2 DIV MUL PUSH1 0x20 ADD PUSH1 0x40 MLOAD SWAP1 DUP2 ADD PUSH1 0x40 MSTORE DUP1 SWAP3 SWAP2 SWAP1 DUP2 DUP2 MSTORE PUSH1 0x20 ADD DUP3 DUP1 SLOAD PUSH1 0x1 DUP2 PUSH1 0x1 AND ISZERO PUSH2 0x100 MUL SUB AND PUSH1 0x2 SWAP1 DIV DUP1 ISZERO PUSH2 0x16A7 JUMPI DUP1 PUSH1 0x1F LT PUSH2 0x167C JUMPI PUSH2 0x100 DUP1 DUP4 SLOAD DIV MUL DUP4 MSTORE SWAP2 PUSH1 0x20 ADD SWAP2 PUSH2 0x16A7 JUMP JUMPDEST DUP3 ADD SWAP2 SWAP1 PUSH1 0x0 MSTORE PUSH1 0x20 PUSH1 0x0 KECCAK256 SWAP1 JUMPDEST DUP2 SLOAD DUP2 MSTORE SWAP1 PUSH1 0x1 ADD SWAP1 PUSH1 0x20 ADD DUP1 DUP4 GT PUSH2 0x168A JUMPI DUP3 SWAP1 SUB PUSH1 0x1F AND DUP3 ADD SWAP2 JUMPDEST POP POP POP POP POP DUP2 JUMP JUMPDEST PUSH1 0x7 SLOAD DUP2 JUMP JUMPDEST PUSH1 0x8 SLOAD DUP2 JUMP JUMPDEST PUSH1 0x15 DUP2 DUP2 SLOAD DUP2 LT PUSH2 0x16CB JUMPI PUSH1 0x0 DUP1 REVERT JUMPDEST SWAP1 PUSH1 0x0 MSTORE PUSH1 0x20 PUSH1 0x0 KECCAK256 ADD PUSH1 0x0 SWAP2 POP SWAP1 POP SLOAD DUP2 JUMP JUMPDEST PUSH1 0x9 SLOAD DUP2 JUMP JUMPDEST PUSH1 0x0 DUP1 PUSH5 0x2540BE400 DUP4 MUL SWAP1 POP DUP1 SWAP2 POP POP SWAP2 SWAP1 POP JUMP JUMPDEST PUSH1 0xE DUP1 PUSH1 0x0 ADD SLOAD SWAP1 DUP1 PUSH1 0x1 ADD SLOAD SWAP1 POP DUP3 JUMP JUMPDEST PUSH1 0x12 PUSH1 0x20 MSTORE DUP1 PUSH1 0x0 MSTORE PUSH1 0x40 PUSH1 0x0 KECCAK256 PUSH1 0x0 SWAP2 POP SWAP1 POP SLOAD DUP2 JUMP JUMPDEST PUSH1 0xD DUP3 DUP2 SLOAD DUP2 LT PUSH2 0x1735 JUMPI PUSH1 0x0 DUP1 REVERT JUMPDEST SWAP1 PUSH1 0x0 MSTORE PUSH1 0x20 PUSH1 0x0 KECCAK256 ADD DUP2 DUP2 SLOAD DUP2 LT PUSH2 0x174D JUMPI PUSH1 0x0 DUP1 REVERT JUMPDEST SWAP1 PUSH1 0x0 MSTORE PUSH1 0x20 PUSH1 0x0 KECCAK256 SWAP1 PUSH1 0x8 MUL ADD PUSH1 0x0 SWAP2 POP SWAP2 POP POP DUP1 PUSH1 0x0 ADD PUSH1 0x0 SWAP1 SLOAD SWAP1 PUSH2 0x100 EXP SWAP1 DIV PUSH4 0xFFFFFFFF AND SWAP1 DUP1 PUSH1 0x1 ADD PUSH1 0x40 MLOAD DUP1 PUSH1 0x40 ADD PUSH1 0x40 MSTORE SWAP1 DUP2 PUSH1 0x0 DUP3 ADD PUSH1 0x0 SWAP1 SLOAD SWAP1 PUSH2 0x100 EXP SWAP1 DIV PUSH20 0xFFFFFFFFFFFFFFFFFFFFFFFFFFFFFFFFFFFFFFFF AND PUSH20 0xFFFFFFFFFFFFFFFFFFFFFFFFFFFFFFFFFFFFFFFF AND PUSH20 0xFFFFFFFFFFFFFFFFFFFFFFFFFFFFFFFFFFFFFFFF AND DUP2 MSTORE PUSH1 0x20 ADD PUSH1 0x0 DUP3 ADD PUSH1 0x14 SWAP1 SLOAD SWAP1 PUSH2 0x100 EXP SWAP1 DIV PUSH8 0xFFFFFFFFFFFFFFFF AND PUSH8 0xFFFFFFFFFFFFFFFF AND PUSH8 0xFFFFFFFFFFFFFFFF AND DUP2 MSTORE POP POP SWAP1 DUP1 PUSH1 0x2 ADD PUSH1 0x0 SWAP1 SLOAD SWAP1 PUSH2 0x100 EXP SWAP1 DIV PUSH4 0xFFFFFFFF AND SWAP1 DUP1 PUSH1 0x2 ADD PUSH1 0x4 SWAP1 SLOAD SWAP1 PUSH2 0x100 EXP SWAP1 DIV PUSH20 0xFFFFFFFFFFFFFFFFFFFFFFFFFFFFFFFFFFFFFFFF AND SWAP1 DUP1 PUSH1 0x3 ADD SLOAD SWAP1 DUP1 PUSH1 0x4 ADD PUSH1 0x40 MLOAD DUP1 PUSH1 0x40 ADD PUSH1 0x40 MSTORE SWAP1 DUP2 PUSH1 0x0 DUP3 ADD PUSH1 0x0 SWAP1 SLOAD SWAP1 PUSH2 0x100 EXP SWAP1 DIV PUSH1 0xFF AND PUSH1 0xFF AND PUSH1 0xFF AND DUP2 MSTORE PUSH1 0x20 ADD PUSH1 0x0 DUP3 ADD PUSH1 0x1 SWAP1 SLOAD SWAP1 PUSH2 0x100 EXP SWAP1 DIV PUSH20 0xFFFFFFFFFFFFFFFFFFFFFFFFFFFFFFFFFFFFFFFF AND PUSH20 0xFFFFFFFFFFFFFFFFFFFFFFFFFFFFFFFFFFFFFFFF AND PUSH20 0xFFFFFFFFFFFFFFFFFFFFFFFFFFFFFFFFFFFFFFFF AND DUP2 MSTORE POP POP SWAP1 DUP1 PUSH1 0x5 ADD PUSH1 0x0 SWAP1 SLOAD SWAP1 PUSH2 0x100 EXP SWAP1 DIV PUSH20 0xFFFFFFFFFFFFFFFFFFFFFFFFFFFFFFFFFFFFFFFF AND SWAP1 DUP1 PUSH1 0x6 ADD PUSH1 0x0 SWAP1 SLOAD SWAP1 PUSH2 0x100 EXP SWAP1 DIV PUSH20 0xFFFFFFFFFFFFFFFFFFFFFFFFFFFFFFFFFFFFFFFF AND SWAP1 DUP1 PUSH1 0x7 ADD PUSH1 0x0 SWAP1 SLOAD SWAP1 PUSH2 0x100 EXP SWAP1 DIV PUSH20 0xFFFFFFFFFFFFFFFFFFFFFFFFFFFFFFFFFFFFFFFF AND SWAP1 POP DUP10 JUMP JUMPDEST PUSH1 0x11 PUSH1 0x20 MSTORE DUP1 PUSH1 0x0 MSTORE PUSH1 0x40 PUSH1 0x0 KECCAK256 PUSH1 0x0 SWAP2 POP SWAP1 POP DUP1 PUSH1 0x0 ADD SLOAD SWAP1 DUP1 PUSH1 0x1 ADD PUSH1 0x0 SWAP1 SLOAD SWAP1 PUSH2 0x100 EXP SWAP1 DIV PUSH1 0xFF AND SWAP1 POP DUP3 JUMP JUMPDEST PUSH1 0x0 PUSH1 0x5 PUSH1 0x14 SWAP1 SLOAD SWAP1 PUSH2 0x100 EXP SWAP1 DIV PUSH1 0xFF AND ISZERO PUSH2 0x19CE JUMPI PUSH1 0x40 MLOAD PUSH32 0x8C379A000000000000000000000000000000000000000000000000000000000 DUP2 MSTORE PUSH1 0x4 ADD PUSH2 0x19C5 SWAP1 PUSH2 0x5335 JUMP JUMPDEST PUSH1 0x40 MLOAD DUP1 SWAP2 SUB SWAP1 REVERT JUMPDEST PUSH1 0x0 PUSH1 0x12 PUSH1 0x0 CALLER PUSH20 0xFFFFFFFFFFFFFFFFFFFFFFFFFFFFFFFFFFFFFFFF AND PUSH20 0xFFFFFFFFFFFFFFFFFFFFFFFFFFFFFFFFFFFFFFFF AND DUP2 MSTORE PUSH1 0x20 ADD SWAP1 DUP2 MSTORE PUSH1 0x20 ADD PUSH1 0x0 KECCAK256 SLOAD GT ISZERO PUSH2 0x1A60 JUMPI PUSH2 0x1A5F PUSH1 0x12 PUSH1 0x0 CALLER PUSH20 0xFFFFFFFFFFFFFFFFFFFFFFFFFFFFFFFFFFFFFFFF AND PUSH20 0xFFFFFFFFFFFFFFFFFFFFFFFFFFFFFFFFFFFFFFFF AND DUP2 MSTORE PUSH1 0x20 ADD SWAP1 DUP2 MSTORE PUSH1 0x20 ADD PUSH1 0x0 KECCAK256 SLOAD CALLER PUSH2 0x2749 JUMP JUMPDEST JUMPDEST PUSH1 0x12 PUSH1 0x0 CALLER PUSH20 0xFFFFFFFFFFFFFFFFFFFFFFFFFFFFFFFFFFFFFFFF AND PUSH20 0xFFFFFFFFFFFFFFFFFFFFFFFFFFFFFFFFFFFFFFFF AND DUP2 MSTORE PUSH1 0x20 ADD SWAP1 DUP2 MSTORE PUSH1 0x20 ADD PUSH1 0x0 KECCAK256 SLOAD SWAP1 POP SWAP1 JUMP JUMPDEST PUSH1 0x13 DUP2 DUP2 SLOAD DUP2 LT PUSH2 0x1AB5 JUMPI PUSH1 0x0 DUP1 REVERT JUMPDEST SWAP1 PUSH1 0x0 MSTORE PUSH1 0x20 PUSH1 0x0 KECCAK256 ADD PUSH1 0x0 SWAP2 POP SWAP1 POP DUP1 SLOAD PUSH1 0x1 DUP2 PUSH1 0x1 AND ISZERO PUSH2 0x100 MUL SUB AND PUSH1 0x2 SWAP1 DIV DUP1 PUSH1 0x1F ADD PUSH1 0x20 DUP1 SWAP2 DIV MUL PUSH1 0x20 ADD PUSH1 0x40 MLOAD SWAP1 DUP2 ADD PUSH1 0x40 MSTORE DUP1 SWAP3 SWAP2 SWAP1 DUP2 DUP2 MSTORE PUSH1 0x20 ADD DUP3 DUP1 SLOAD PUSH1 0x1 DUP2 PUSH1 0x1 AND ISZERO PUSH2 0x100 MUL SUB AND PUSH1 0x2 SWAP1 DIV DUP1 ISZERO PUSH2 0x1B59 JUMPI DUP1 PUSH1 0x1F LT PUSH2 0x1B2E JUMPI PUSH2 0x100 DUP1 DUP4 SLOAD DIV MUL DUP4 MSTORE SWAP2 PUSH1 0x20 ADD SWAP2 PUSH2 0x1B59 JUMP JUMPDEST DUP3 ADD SWAP2 SWAP1 PUSH1 0x0 MSTORE PUSH1 0x20 PUSH1 0x0 KECCAK256 SWAP1 JUMPDEST DUP2 SLOAD DUP2 MSTORE SWAP1 PUSH1 0x1 ADD SWAP1 PUSH1 0x20 ADD DUP1 DUP4 GT PUSH2 0x1B3C JUMPI DUP3 SWAP1 SUB PUSH1 0x1F AND DUP3 ADD SWAP2 JUMPDEST POP POP POP POP POP DUP2 JUMP JUMPDEST PUSH1 0x0 JUMPDEST DUP2 MLOAD DUP2 LT ISZERO PUSH2 0x1B97 JUMPI PUSH2 0x1B89 DUP3 DUP3 DUP2 MLOAD DUP2 LT PUSH2 0x1B7C JUMPI INVALID JUMPDEST PUSH1 0x20 MUL PUSH1 0x20 ADD ADD MLOAD PUSH2 0x10FC JUMP JUMPDEST POP DUP1 DUP1 PUSH1 0x1 ADD SWAP2 POP POP PUSH2 0x1B64 JUMP JUMPDEST POP POP JUMP JUMPDEST PUSH1 0xB DUP2 DUP2 SLOAD DUP2 LT PUSH2 0x1BAB JUMPI PUSH1 0x0 DUP1 REVERT JUMPDEST SWAP1 PUSH1 0x0 MSTORE PUSH1 0x20 PUSH1 0x0 KECCAK256 ADD PUSH1 0x0 SWAP2 POP SWAP1 POP SLOAD DUP2 JUMP JUMPDEST PUSH1 0x60 PUSH1 0x0 PUSH1 0xA SLOAD DUP5 LT ISZERO PUSH2 0x1BD3 JUMPI PUSH1 0xA SLOAD SWAP4 POP JUMPDEST PUSH1 0x0 DUP5 SWAP1 POP JUMPDEST DUP4 DUP2 GT PUSH2 0x1C1D JUMPI PUSH1 0x11 PUSH1 0x0 DUP3 DUP2 MSTORE PUSH1 0x20 ADD SWAP1 DUP2 MSTORE PUSH1 0x20 ADD PUSH1 0x0 KECCAK256 PUSH1 0x1 ADD PUSH1 0x0 SWAP1 SLOAD SWAP1 PUSH2 0x100 EXP SWAP1 DIV PUSH1 0xFF AND ISZERO PUSH2 0x1C10 JUMPI PUSH1 0x1 DUP3 ADD SWAP2 POP JUMPDEST DUP1 DUP1 PUSH1 0x1 ADD SWAP2 POP POP PUSH2 0x1BD9 JUMP JUMPDEST POP PUSH1 0x0 DUP2 PUSH8 0xFFFFFFFFFFFFFFFF DUP2 GT DUP1 ISZERO PUSH2 0x1C37 JUMPI PUSH1 0x0 DUP1 REVERT JUMPDEST POP PUSH1 0x40 MLOAD SWAP1 DUP1 DUP3 MSTORE DUP1 PUSH1 0x20 MUL PUSH1 0x20 ADD DUP3 ADD PUSH1 0x40 MSTORE DUP1 ISZERO PUSH2 0x1C71 JUMPI DUP2 PUSH1 0x20 ADD JUMPDEST PUSH2 0x1C5E PUSH2 0x2967 JUMP JUMPDEST DUP2 MSTORE PUSH1 0x20 ADD SWAP1 PUSH1 0x1 SWAP1 SUB SWAP1 DUP2 PUSH2 0x1C56 JUMPI SWAP1 POP JUMPDEST POP SWAP1 POP PUSH1 0x0 DUP1 DUP7 SWAP1 POP JUMPDEST DUP6 DUP2 GT PUSH2 0x1CE1 JUMPI PUSH1 0x11 PUSH1 0x0 DUP3 DUP2 MSTORE PUSH1 0x20 ADD SWAP1 DUP2 MSTORE PUSH1 0x20 ADD PUSH1 0x0 KECCAK256 PUSH1 0x1 ADD PUSH1 0x0 SWAP1 SLOAD SWAP1 PUSH2 0x100 EXP SWAP1 DIV PUSH1 0xFF AND ISZERO PUSH2 0x1CD4 JUMPI PUSH2 0x1CB4 DUP2 PUSH2 0x644 JUMP JUMPDEST DUP4 DUP4 DUP2 MLOAD DUP2 LT PUSH2 0x1CC0 JUMPI INVALID JUMPDEST PUSH1 0x20 MUL PUSH1 0x20 ADD ADD DUP2 SWAP1 MSTORE POP DUP2 DUP1 PUSH1 0x1 ADD SWAP3 POP POP JUMPDEST DUP1 DUP1 PUSH1 0x1 ADD SWAP2 POP POP PUSH2 0x1C7B JUMP JUMPDEST POP DUP2 SWAP4 POP POP POP POP SWAP3 SWAP2 POP POP JUMP JUMPDEST PUSH1 0x0 NUMBER SWAP1 POP PUSH1 0x0 DUP1 PUSH2 0x1D08 DUP5 PUSH1 0x80 ADD MLOAD DUP6 PUSH1 0x60 ADD MLOAD PUSH2 0x27E4 JUMP JUMPDEST ISZERO PUSH2 0x1D22 JUMPI DUP4 PUSH1 0x80 ADD MLOAD PUSH1 0x9 PUSH1 0x0 DUP3 DUP3 SLOAD SUB SWAP3 POP POP DUP2 SWAP1 SSTORE POP JUMPDEST PUSH1 0x11 PUSH1 0x0 DUP5 DUP2 MSTORE PUSH1 0x20 ADD SWAP1 DUP2 MSTORE PUSH1 0x20 ADD PUSH1 0x0 KECCAK256 PUSH1 0x1 ADD PUSH1 0x0 SWAP1 SLOAD SWAP1 PUSH2 0x100 EXP SWAP1 DIV PUSH1 0xFF AND ISZERO PUSH2 0x2019 JUMPI PUSH1 0x11 PUSH1 0x0 DUP5 DUP2 MSTORE PUSH1 0x20 ADD SWAP1 DUP2 MSTORE PUSH1 0x20 ADD PUSH1 0x0 KECCAK256 PUSH1 0x0 ADD SLOAD SWAP2 POP PUSH1 0xD DUP3 DUP2 SLOAD DUP2 LT PUSH2 0x1D71 JUMPI INVALID JUMPDEST SWAP1 PUSH1 0x0 MSTORE PUSH1 0x20 PUSH1 0x0 KECCAK256 ADD DUP5 SWAP1 DUP1 PUSH1 0x1 DUP2 SLOAD ADD DUP1 DUP3 SSTORE DUP1 SWAP2 POP POP PUSH1 0x1 SWAP1 SUB SWAP1 PUSH1 0x0 MSTORE PUSH1 0x20 PUSH1 0x0 KECCAK256 SWAP1 PUSH1 0x8 MUL ADD PUSH1 0x0 SWAP1 SWAP2 SWAP1 SWAP2 SWAP1 SWAP2 POP PUSH1 0x0 DUP3 ADD MLOAD DUP2 PUSH1 0x0 ADD PUSH1 0x0 PUSH2 0x100 EXP DUP2 SLOAD DUP2 PUSH4 0xFFFFFFFF MUL NOT AND SWAP1 DUP4 PUSH4 0xFFFFFFFF AND MUL OR SWAP1 SSTORE POP PUSH1 0x20 DUP3 ADD MLOAD DUP2 PUSH1 0x1 ADD PUSH1 0x0 DUP3 ADD MLOAD DUP2 PUSH1 0x0 ADD PUSH1 0x0 PUSH2 0x100 EXP DUP2 SLOAD DUP2 PUSH20 0xFFFFFFFFFFFFFFFFFFFFFFFFFFFFFFFFFFFFFFFF MUL NOT AND SWAP1 DUP4 PUSH20 0xFFFFFFFFFFFFFFFFFFFFFFFFFFFFFFFFFFFFFFFF AND MUL OR SWAP1 SSTORE POP PUSH1 0x20 DUP3 ADD MLOAD DUP2 PUSH1 0x0 ADD PUSH1 0x14 PUSH2 0x100 EXP DUP2 SLOAD DUP2 PUSH8 0xFFFFFFFFFFFFFFFF MUL NOT AND SWAP1 DUP4 PUSH8 0xFFFFFFFFFFFFFFFF AND MUL OR SWAP1 SSTORE POP POP POP PUSH1 0x40 DUP3 ADD MLOAD DUP2 PUSH1 0x2 ADD PUSH1 0x0 PUSH2 0x100 EXP DUP2 SLOAD DUP2 PUSH4 0xFFFFFFFF MUL NOT AND SWAP1 DUP4 PUSH4 0xFFFFFFFF AND MUL OR SWAP1 SSTORE POP PUSH1 0x60 DUP3 ADD MLOAD DUP2 PUSH1 0x2 ADD PUSH1 0x4 PUSH2 0x100 EXP DUP2 SLOAD DUP2 PUSH20 0xFFFFFFFFFFFFFFFFFFFFFFFFFFFFFFFFFFFFFFFF MUL NOT AND SWAP1 DUP4 PUSH20 0xFFFFFFFFFFFFFFFFFFFFFFFFFFFFFFFFFFFFFFFF AND MUL OR SWAP1 SSTORE POP PUSH1 0x80 DUP3 ADD MLOAD DUP2 PUSH1 0x3 ADD SSTORE PUSH1 0xA0 DUP3 ADD MLOAD DUP2 PUSH1 0x4 ADD PUSH1 0x0 DUP3 ADD MLOAD DUP2 PUSH1 0x0 ADD PUSH1 0x0 PUSH2 0x100 EXP DUP2 SLOAD DUP2 PUSH1 0xFF MUL NOT AND SWAP1 DUP4 PUSH1 0xFF AND MUL OR SWAP1 SSTORE POP PUSH1 0x20 DUP3 ADD MLOAD DUP2 PUSH1 0x0 ADD PUSH1 0x1 PUSH2 0x100 EXP DUP2 SLOAD DUP2 PUSH20 0xFFFFFFFFFFFFFFFFFFFFFFFFFFFFFFFFFFFFFFFF MUL NOT AND SWAP1 DUP4 PUSH20 0xFFFFFFFFFFFFFFFFFFFFFFFFFFFFFFFFFFFFFFFF AND MUL OR SWAP1 SSTORE POP POP POP PUSH1 0xC0 DUP3 ADD MLOAD DUP2 PUSH1 0x5 ADD PUSH1 0x0 PUSH2 0x100 EXP DUP2 SLOAD DUP2 PUSH20 0xFFFFFFFFFFFFFFFFFFFFFFFFFFFFFFFFFFFFFFFF MUL NOT AND SWAP1 DUP4 PUSH20 0xFFFFFFFFFFFFFFFFFFFFFFFFFFFFFFFFFFFFFFFF AND MUL OR SWAP1 SSTORE POP PUSH1 0xE0 DUP3 ADD MLOAD DUP2 PUSH1 0x6 ADD PUSH1 0x0 PUSH2 0x100 EXP DUP2 SLOAD DUP2 PUSH20 0xFFFFFFFFFFFFFFFFFFFFFFFFFFFFFFFFFFFFFFFF MUL NOT AND SWAP1 DUP4 PUSH20 0xFFFFFFFFFFFFFFFFFFFFFFFFFFFFFFFFFFFFFFFF AND MUL OR SWAP1 SSTORE POP PUSH2 0x100 DUP3 ADD MLOAD DUP2 PUSH1 0x7 ADD PUSH1 0x0 PUSH2 0x100 EXP DUP2 SLOAD DUP2 PUSH20 0xFFFFFFFFFFFFFFFFFFFFFFFFFFFFFFFFFFFFFFFF MUL NOT AND SWAP1 DUP4 PUSH20 0xFFFFFFFFFFFFFFFFFFFFFFFFFFFFFFFFFFFFFFFF AND MUL OR SWAP1 SSTORE POP POP POP PUSH1 0x0 SWAP1 POP PUSH2 0x235E JUMP JUMPDEST PUSH1 0xC DUP5 SWAP1 DUP1 PUSH1 0x1 DUP2 SLOAD ADD DUP1 DUP3 SSTORE DUP1 SWAP2 POP POP PUSH1 0x1 SWAP1 SUB SWAP1 PUSH1 0x0 MSTORE PUSH1 0x20 PUSH1 0x0 KECCAK256 SWAP1 PUSH1 0x8 MUL ADD PUSH1 0x0 SWAP1 SWAP2 SWAP1 SWAP2 SWAP1 SWAP2 POP PUSH1 0x0 DUP3 ADD MLOAD DUP2 PUSH1 0x0 ADD PUSH1 0x0 PUSH2 0x100 EXP DUP2 SLOAD DUP2 PUSH4 0xFFFFFFFF MUL NOT AND SWAP1 DUP4 PUSH4 0xFFFFFFFF AND MUL OR SWAP1 SSTORE POP PUSH1 0x20 DUP3 ADD MLOAD DUP2 PUSH1 0x1 ADD PUSH1 0x0 DUP3 ADD MLOAD DUP2 PUSH1 0x0 ADD PUSH1 0x0 PUSH2 0x100 EXP DUP2 SLOAD DUP2 PUSH20 0xFFFFFFFFFFFFFFFFFFFFFFFFFFFFFFFFFFFFFFFF MUL NOT AND SWAP1 DUP4 PUSH20 0xFFFFFFFFFFFFFFFFFFFFFFFFFFFFFFFFFFFFFFFF AND MUL OR SWAP1 SSTORE POP PUSH1 0x20 DUP3 ADD MLOAD DUP2 PUSH1 0x0 ADD PUSH1 0x14 PUSH2 0x100 EXP DUP2 SLOAD DUP2 PUSH8 0xFFFFFFFFFFFFFFFF MUL NOT AND SWAP1 DUP4 PUSH8 0xFFFFFFFFFFFFFFFF AND MUL OR SWAP1 SSTORE POP POP POP PUSH1 0x40 DUP3 ADD MLOAD DUP2 PUSH1 0x2 ADD PUSH1 0x0 PUSH2 0x100 EXP DUP2 SLOAD DUP2 PUSH4 0xFFFFFFFF MUL NOT AND SWAP1 DUP4 PUSH4 0xFFFFFFFF AND MUL OR SWAP1 SSTORE POP PUSH1 0x60 DUP3 ADD MLOAD DUP2 PUSH1 0x2 ADD PUSH1 0x4 PUSH2 0x100 EXP DUP2 SLOAD DUP2 PUSH20 0xFFFFFFFFFFFFFFFFFFFFFFFFFFFFFFFFFFFFFFFF MUL NOT AND SWAP1 DUP4 PUSH20 0xFFFFFFFFFFFFFFFFFFFFFFFFFFFFFFFFFFFFFFFF AND MUL OR SWAP1 SSTORE POP PUSH1 0x80 DUP3 ADD MLOAD DUP2 PUSH1 0x3 ADD SSTORE PUSH1 0xA0 DUP3 ADD MLOAD DUP2 PUSH1 0x4 ADD PUSH1 0x0 DUP3 ADD MLOAD DUP2 PUSH1 0x0 ADD PUSH1 0x0 PUSH2 0x100 EXP DUP2 SLOAD DUP2 PUSH1 0xFF MUL NOT AND SWAP1 DUP4 PUSH1 0xFF AND MUL OR SWAP1 SSTORE POP PUSH1 0x20 DUP3 ADD MLOAD DUP2 PUSH1 0x0 ADD PUSH1 0x1 PUSH2 0x100 EXP DUP2 SLOAD DUP2 PUSH20 0xFFFFFFFFFFFFFFFFFFFFFFFFFFFFFFFFFFFFFFFF MUL NOT AND SWAP1 DUP4 PUSH20 0xFFFFFFFFFFFFFFFFFFFFFFFFFFFFFFFFFFFFFFFF AND MUL OR SWAP1 SSTORE POP POP POP PUSH1 0xC0 DUP3 ADD MLOAD DUP2 PUSH1 0x5 ADD PUSH1 0x0 PUSH2 0x100 EXP DUP2 SLOAD DUP2 PUSH20 0xFFFFFFFFFFFFFFFFFFFFFFFFFFFFFFFFFFFFFFFF MUL NOT AND SWAP1 DUP4 PUSH20 0xFFFFFFFFFFFFFFFFFFFFFFFFFFFFFFFFFFFFFFFF AND MUL OR SWAP1 SSTORE POP PUSH1 0xE0 DUP3 ADD MLOAD DUP2 PUSH1 0x6 ADD PUSH1 0x0 PUSH2 0x100 EXP DUP2 SLOAD DUP2 PUSH20 0xFFFFFFFFFFFFFFFFFFFFFFFFFFFFFFFFFFFFFFFF MUL NOT AND SWAP1 DUP4 PUSH20 0xFFFFFFFFFFFFFFFFFFFFFFFFFFFFFFFFFFFFFFFF AND MUL OR SWAP1 SSTORE POP PUSH2 0x100 DUP3 ADD MLOAD DUP2 PUSH1 0x7 ADD PUSH1 0x0 PUSH2 0x100 EXP DUP2 SLOAD DUP2 PUSH20 0xFFFFFFFFFFFFFFFFFFFFFFFFFFFFFFFFFFFFFFFF MUL NOT AND SWAP1 DUP4 PUSH20 0xFFFFFFFFFFFFFFFFFFFFFFFFFFFFFFFFFFFFFFFF AND MUL OR SWAP1 SSTORE POP POP POP PUSH1 0xD PUSH1 0xC SWAP1 DUP1 PUSH1 0x1 DUP2 SLOAD ADD DUP1 DUP3 SSTORE DUP1 SWAP2 POP POP PUSH1 0x1 SWAP1 SUB SWAP1 PUSH1 0x0 MSTORE PUSH1 0x20 PUSH1 0x0 KECCAK256 ADD PUSH1 0x0 SWAP1 SWAP2 SWAP1 SWAP2 SWAP1 SWAP2 POP SWAP1 DUP1 SLOAD PUSH2 0x22E7 SWAP3 SWAP2 SWAP1 PUSH2 0x2992 JUMP JUMPDEST POP PUSH1 0x1 PUSH1 0xD DUP1 SLOAD SWAP1 POP SUB SWAP2 POP PUSH1 0x40 MLOAD DUP1 PUSH1 0x40 ADD PUSH1 0x40 MSTORE DUP1 DUP4 DUP2 MSTORE PUSH1 0x20 ADD PUSH1 0x1 ISZERO ISZERO DUP2 MSTORE POP PUSH1 0x11 PUSH1 0x0 DUP6 DUP2 MSTORE PUSH1 0x20 ADD SWAP1 DUP2 MSTORE PUSH1 0x20 ADD PUSH1 0x0 KECCAK256 PUSH1 0x0 DUP3 ADD MLOAD DUP2 PUSH1 0x0 ADD SSTORE PUSH1 0x20 DUP3 ADD MLOAD DUP2 PUSH1 0x1 ADD PUSH1 0x0 PUSH2 0x100 EXP DUP2 SLOAD DUP2 PUSH1 0xFF MUL NOT AND SWAP1 DUP4 ISZERO ISZERO MUL OR SWAP1 SSTORE POP SWAP1 POP POP PUSH1 0xC PUSH1 0x0 PUSH2 0x2359 SWAP2 SWAP1 PUSH2 0x2D51 JUMP JUMPDEST PUSH1 0x1 SWAP1 POP JUMPDEST PUSH1 0x0 PUSH1 0x4 PUSH1 0x0 SWAP1 SLOAD SWAP1 PUSH2 0x100 EXP SWAP1 DIV PUSH20 0xFFFFFFFFFFFFFFFFFFFFFFFFFFFFFFFFFFFFFFFF AND PUSH20 0xFFFFFFFFFFFFFFFFFFFFFFFFFFFFFFFFFFFFFFFF AND PUSH4 0xBDFCFDDD PUSH1 0xD DUP6 DUP2 SLOAD DUP2 LT PUSH2 0x23AB JUMPI INVALID JUMPDEST SWAP1 PUSH1 0x0 MSTORE PUSH1 0x20 PUSH1 0x0 KECCAK256 ADD PUSH1 0x40 MLOAD DUP3 PUSH4 0xFFFFFFFF AND PUSH1 0xE0 SHL DUP2 MSTORE PUSH1 0x4 ADD PUSH2 0x23D1 SWAP2 SWAP1 PUSH2 0x526B JUMP JUMPDEST PUSH1 0x0 PUSH1 0x40 MLOAD DUP1 DUP4 SUB DUP2 PUSH1 0x0 DUP8 DUP1 EXTCODESIZE ISZERO DUP1 ISZERO PUSH2 0x23EB JUMPI PUSH1 0x0 DUP1 REVERT JUMPDEST POP GAS CALL ISZERO DUP1 ISZERO PUSH2 0x23FF JUMPI RETURNDATASIZE PUSH1 0x0 DUP1 RETURNDATACOPY RETURNDATASIZE PUSH1 0x0 REVERT JUMPDEST POP POP POP POP PUSH1 0x40 MLOAD RETURNDATASIZE PUSH1 0x0 DUP3 RETURNDATACOPY RETURNDATASIZE PUSH1 0x1F NOT PUSH1 0x1F DUP3 ADD AND DUP3 ADD DUP1 PUSH1 0x40 MSTORE POP DUP2 ADD SWAP1 PUSH2 0x2428 SWAP2 SWAP1 PUSH2 0x3F40 JUMP JUMPDEST SWAP1 POP PUSH1 0x0 PUSH1 0x1 PUSH1 0x0 SWAP1 SLOAD SWAP1 PUSH2 0x100 EXP SWAP1 DIV PUSH20 0xFFFFFFFFFFFFFFFFFFFFFFFFFFFFFFFFFFFFFFFF AND PUSH20 0xFFFFFFFFFFFFFFFFFFFFFFFFFFFFFFFFFFFFFFFF AND PUSH4 0x343BEE60 DUP4 PUSH1 0x40 MLOAD DUP3 PUSH4 0xFFFFFFFF AND PUSH1 0xE0 SHL DUP2 MSTORE PUSH1 0x4 ADD PUSH2 0x2487 SWAP2 SWAP1 PUSH2 0x5435 JUMP JUMPDEST PUSH1 0x0 PUSH1 0x40 MLOAD DUP1 DUP4 SUB DUP2 DUP7 DUP1 EXTCODESIZE ISZERO DUP1 ISZERO PUSH2 0x249F JUMPI PUSH1 0x0 DUP1 REVERT JUMPDEST POP GAS STATICCALL ISZERO DUP1 ISZERO PUSH2 0x24B3 JUMPI RETURNDATASIZE PUSH1 0x0 DUP1 RETURNDATACOPY RETURNDATASIZE PUSH1 0x0 REVERT JUMPDEST POP POP POP POP PUSH1 0x40 MLOAD RETURNDATASIZE PUSH1 0x0 DUP3 RETURNDATACOPY RETURNDATASIZE PUSH1 0x1F NOT PUSH1 0x1F DUP3 ADD AND DUP3 ADD DUP1 PUSH1 0x40 MSTORE POP DUP2 ADD SWAP1 PUSH2 0x24DC SWAP2 SWAP1 PUSH2 0x3EFF JUMP JUMPDEST SWAP1 POP PUSH1 0x0 PUSH1 0x1 PUSH1 0x0 SWAP1 SLOAD SWAP1 PUSH2 0x100 EXP SWAP1 DIV PUSH20 0xFFFFFFFFFFFFFFFFFFFFFFFFFFFFFFFFFFFFFFFF AND PUSH20 0xFFFFFFFFFFFFFFFFFFFFFFFFFFFFFFFFFFFFFFFF AND PUSH4 0x2A4EDD70 PUSH1 0xD DUP8 DUP2 SLOAD DUP2 LT PUSH2 0x252B JUMPI INVALID JUMPDEST SWAP1 PUSH1 0x0 MSTORE PUSH1 0x20 PUSH1 0x0 KECCAK256 ADD PUSH1 0x0 PUSH1 0x40 MLOAD DUP4 PUSH4 0xFFFFFFFF AND PUSH1 0xE0 SHL DUP2 MSTORE PUSH1 0x4 ADD PUSH2 0x2554 SWAP3 SWAP2 SWAP1 PUSH2 0x528D JUMP JUMPDEST PUSH1 0x0 PUSH1 0x40 MLOAD DUP1 DUP4 SUB DUP2 DUP7 DUP1 EXTCODESIZE ISZERO DUP1 ISZERO PUSH2 0x256C JUMPI PUSH1 0x0 DUP1 REVERT JUMPDEST POP GAS STATICCALL ISZERO DUP1 ISZERO PUSH2 0x2580 JUMPI RETURNDATASIZE PUSH1 0x0 DUP1 RETURNDATACOPY RETURNDATASIZE PUSH1 0x0 REVERT JUMPDEST POP POP POP POP PUSH1 0x40 MLOAD RETURNDATASIZE PUSH1 0x0 DUP3 RETURNDATACOPY RETURNDATASIZE PUSH1 0x1F NOT PUSH1 0x1F DUP3 ADD AND DUP3 ADD DUP1 PUSH1 0x40 MSTORE POP DUP2 ADD SWAP1 PUSH2 0x25A9 SWAP2 SWAP1 PUSH2 0x3EFF JUMP JUMPDEST SWAP1 POP PUSH1 0x13 DUP2 SWAP1 DUP1 PUSH1 0x1 DUP2 SLOAD ADD DUP1 DUP3 SSTORE DUP1 SWAP2 POP POP PUSH1 0x1 SWAP1 SUB SWAP1 PUSH1 0x0 MSTORE PUSH1 0x20 PUSH1 0x0 KECCAK256 ADD PUSH1 0x0 SWAP1 SWAP2 SWAP1 SWAP2 SWAP1 SWAP2 POP SWAP1 DUP1 MLOAD SWAP1 PUSH1 0x20 ADD SWAP1 PUSH2 0x25E6 SWAP3 SWAP2 SWAP1 PUSH2 0x2D75 JUMP JUMPDEST POP PUSH1 0x0 DUP2 DUP1 MLOAD SWAP1 PUSH1 0x20 ADD KECCAK256 SWAP1 POP PUSH1 0x0 DUP4 DUP4 PUSH1 0x40 MLOAD PUSH1 0x20 ADD PUSH2 0x2608 SWAP3 SWAP2 SWAP1 PUSH2 0x514A JUMP JUMPDEST PUSH1 0x40 MLOAD PUSH1 0x20 DUP2 DUP4 SUB SUB DUP2 MSTORE SWAP1 PUSH1 0x40 MSTORE SWAP1 POP PUSH1 0x14 DUP2 SWAP1 DUP1 PUSH1 0x1 DUP2 SLOAD ADD DUP1 DUP3 SSTORE DUP1 SWAP2 POP POP PUSH1 0x1 SWAP1 SUB SWAP1 PUSH1 0x0 MSTORE PUSH1 0x20 PUSH1 0x0 KECCAK256 ADD PUSH1 0x0 SWAP1 SWAP2 SWAP1 SWAP2 SWAP1 SWAP2 POP SWAP1 DUP1 MLOAD SWAP1 PUSH1 0x20 ADD SWAP1 PUSH2 0x2654 SWAP3 SWAP2 SWAP1 PUSH2 0x2D75 JUMP JUMPDEST POP PUSH1 0x15 DUP3 SWAP1 DUP1 PUSH1 0x1 DUP2 SLOAD ADD DUP1 DUP3 SSTORE DUP1 SWAP2 POP POP PUSH1 0x1 SWAP1 SUB SWAP1 PUSH1 0x0 MSTORE PUSH1 0x20 PUSH1 0x0 KECCAK256 ADD PUSH1 0x0 SWAP1 SWAP2 SWAP1 SWAP2 SWAP1 SWAP2 POP SSTORE PUSH1 0x0 DUP1 PUSH1 0x0 DUP1 SHL SWAP1 POP PUSH1 0x0 DUP10 EQ PUSH2 0x26AD JUMPI PUSH1 0xB PUSH1 0x1 DUP11 SUB DUP2 SLOAD DUP2 LT PUSH2 0x269F JUMPI INVALID JUMPDEST SWAP1 PUSH1 0x0 MSTORE PUSH1 0x20 PUSH1 0x0 KECCAK256 ADD SLOAD SWAP1 POP JUMPDEST DUP6 DUP2 PUSH1 0x40 MLOAD PUSH1 0x20 ADD PUSH2 0x26C0 SWAP3 SWAP2 SWAP1 PUSH2 0x5122 JUMP JUMPDEST PUSH1 0x40 MLOAD PUSH1 0x20 DUP2 DUP4 SUB SUB DUP2 MSTORE SWAP1 PUSH1 0x40 MSTORE DUP1 MLOAD SWAP1 PUSH1 0x20 ADD KECCAK256 SWAP2 POP DUP8 ISZERO PUSH2 0x270C JUMPI PUSH1 0xB DUP3 SWAP1 DUP1 PUSH1 0x1 DUP2 SLOAD ADD DUP1 DUP3 SSTORE DUP1 SWAP2 POP POP PUSH1 0x1 SWAP1 SUB SWAP1 PUSH1 0x0 MSTORE PUSH1 0x20 PUSH1 0x0 KECCAK256 ADD PUSH1 0x0 SWAP1 SWAP2 SWAP1 SWAP2 SWAP1 SWAP2 POP SSTORE PUSH2 0x2729 JUMP JUMPDEST DUP2 PUSH1 0xB DUP11 DUP2 SLOAD DUP2 LT PUSH2 0x271A JUMPI INVALID JUMPDEST SWAP1 PUSH1 0x0 MSTORE PUSH1 0x20 PUSH1 0x0 KECCAK256 ADD DUP2 SWAP1 SSTORE POP JUMPDEST PUSH1 0x0 PUSH1 0xA SLOAD EQ ISZERO PUSH2 0x273C JUMPI DUP10 PUSH1 0xA DUP2 SWAP1 SSTORE POP JUMPDEST POP POP POP POP POP POP POP POP POP POP POP JUMP JUMPDEST PUSH1 0x5 PUSH1 0x14 SWAP1 SLOAD SWAP1 PUSH2 0x100 EXP SWAP1 DIV PUSH1 0xFF AND ISZERO PUSH2 0x2799 JUMPI PUSH1 0x40 MLOAD PUSH32 0x8C379A000000000000000000000000000000000000000000000000000000000 DUP2 MSTORE PUSH1 0x4 ADD PUSH2 0x2790 SWAP1 PUSH2 0x5335 JUMP JUMPDEST PUSH1 0x40 MLOAD DUP1 SWAP2 SUB SWAP1 REVERT JUMPDEST DUP1 PUSH20 0xFFFFFFFFFFFFFFFFFFFFFFFFFFFFFFFFFFFFFFFF AND PUSH2 0x8FC DUP4 SWAP1 DUP2 ISZERO MUL SWAP1 PUSH1 0x40 MLOAD PUSH1 0x0 PUSH1 0x40 MLOAD DUP1 DUP4 SUB DUP2 DUP6 DUP9 DUP9 CALL SWAP4 POP POP POP POP ISZERO DUP1 ISZERO PUSH2 0x27DF JUMPI RETURNDATASIZE PUSH1 0x0 DUP1 RETURNDATACOPY RETURNDATASIZE PUSH1 0x0 REVERT JUMPDEST POP POP POP JUMP JUMPDEST PUSH1 0x0 PUSH1 0x1 PUSH1 0x3 PUSH1 0x0 SWAP1 SLOAD SWAP1 PUSH2 0x100 EXP SWAP1 DIV PUSH20 0xFFFFFFFFFFFFFFFFFFFFFFFFFFFFFFFFFFFFFFFF AND PUSH20 0xFFFFFFFFFFFFFFFFFFFFFFFFFFFFFFFFFFFFFFFF AND PUSH4 0xEC48AE3C PUSH1 0x40 MLOAD DUP2 PUSH4 0xFFFFFFFF AND PUSH1 0xE0 SHL DUP2 MSTORE PUSH1 0x4 ADD PUSH1 0x20 PUSH1 0x40 MLOAD DUP1 DUP4 SUB DUP2 DUP7 DUP1 EXTCODESIZE ISZERO DUP1 ISZERO PUSH2 0x2850 JUMPI PUSH1 0x0 DUP1 REVERT JUMPDEST POP GAS STATICCALL ISZERO DUP1 ISZERO PUSH2 0x2864 JUMPI RETURNDATASIZE PUSH1 0x0 DUP1 RETURNDATACOPY RETURNDATASIZE PUSH1 0x0 REVERT JUMPDEST POP POP POP POP PUSH1 0x40 MLOAD RETURNDATASIZE PUSH1 0x1F NOT PUSH1 0x1F DUP3 ADD AND DUP3 ADD DUP1 PUSH1 0x40 MSTORE POP DUP2 ADD SWAP1 PUSH2 0x2888 SWAP2 SWAP1 PUSH2 0x4015 JUMP JUMPDEST LT PUSH2 0x2896 JUMPI PUSH1 0x0 SWAP1 POP PUSH2 0x2961 JUMP JUMPDEST PUSH20 0xA6EF9EA235635E328124FF3429DB9F9E91B64E2D PUSH20 0xFFFFFFFFFFFFFFFFFFFFFFFFFFFFFFFFFFFFFFFF AND DUP3 PUSH20 0xFFFFFFFFFFFFFFFFFFFFFFFFFFFFFFFFFFFFFFFF AND EQ PUSH2 0x2918 JUMPI PUSH1 0x40 MLOAD PUSH32 0x8C379A000000000000000000000000000000000000000000000000000000000 DUP2 MSTORE PUSH1 0x4 ADD PUSH2 0x290F SWAP1 PUSH2 0x5315 JUMP JUMPDEST PUSH1 0x40 MLOAD DUP1 SWAP2 SUB SWAP1 REVERT JUMPDEST DUP3 PUSH1 0x9 SLOAD GT PUSH2 0x295C JUMPI PUSH1 0x40 MLOAD PUSH32 0x8C379A000000000000000000000000000000000000000000000000000000000 DUP2 MSTORE PUSH1 0x4 ADD PUSH2 0x2953 SWAP1 PUSH2 0x53B5 JUMP JUMPDEST PUSH1 0x40 MLOAD DUP1 SWAP2 SUB SWAP1 REVERT JUMPDEST PUSH1 0x1 SWAP1 POP JUMPDEST SWAP3 SWAP2 POP POP JUMP JUMPDEST PUSH1 0x40 MLOAD DUP1 PUSH1 0x80 ADD PUSH1 0x40 MSTORE DUP1 PUSH1 0x0 DUP2 MSTORE PUSH1 0x20 ADD PUSH1 0x0 DUP2 MSTORE PUSH1 0x20 ADD PUSH1 0x0 DUP1 NOT AND DUP2 MSTORE PUSH1 0x20 ADD PUSH1 0x60 DUP2 MSTORE POP SWAP1 JUMP JUMPDEST DUP3 DUP1 SLOAD DUP3 DUP3 SSTORE SWAP1 PUSH1 0x0 MSTORE PUSH1 0x20 PUSH1 0x0 KECCAK256 SWAP1 PUSH1 0x8 MUL DUP2 ADD SWAP3 DUP3 ISZERO PUSH2 0x2D40 JUMPI PUSH1 0x0 MSTORE PUSH1 0x20 PUSH1 0x0 KECCAK256 SWAP2 PUSH1 0x8 MUL DUP3 ADD JUMPDEST DUP3 DUP2 GT ISZERO PUSH2 0x2D3F JUMPI DUP3 DUP3 PUSH1 0x0 DUP3 ADD PUSH1 0x0 SWAP1 SLOAD SWAP1 PUSH2 0x100 EXP SWAP1 DIV PUSH4 0xFFFFFFFF AND DUP2 PUSH1 0x0 ADD PUSH1 0x0 PUSH2 0x100 EXP DUP2 SLOAD DUP2 PUSH4 0xFFFFFFFF MUL NOT AND SWAP1 DUP4 PUSH4 0xFFFFFFFF AND MUL OR SWAP1 SSTORE POP PUSH1 0x1 DUP3 ADD DUP2 PUSH1 0x1 ADD PUSH1 0x0 DUP3 ADD PUSH1 0x0 SWAP1 SLOAD SWAP1 PUSH2 0x100 EXP SWAP1 DIV PUSH20 0xFFFFFFFFFFFFFFFFFFFFFFFFFFFFFFFFFFFFFFFF AND DUP2 PUSH1 0x0 ADD PUSH1 0x0 PUSH2 0x100 EXP DUP2 SLOAD DUP2 PUSH20 0xFFFFFFFFFFFFFFFFFFFFFFFFFFFFFFFFFFFFFFFF MUL NOT AND SWAP1 DUP4 PUSH20 0xFFFFFFFFFFFFFFFFFFFFFFFFFFFFFFFFFFFFFFFF AND MUL OR SWAP1 SSTORE POP PUSH1 0x0 DUP3 ADD PUSH1 0x14 SWAP1 SLOAD SWAP1 PUSH2 0x100 EXP SWAP1 DIV PUSH8 0xFFFFFFFFFFFFFFFF AND DUP2 PUSH1 0x0 ADD PUSH1 0x14 PUSH2 0x100 EXP DUP2 SLOAD DUP2 PUSH8 0xFFFFFFFFFFFFFFFF MUL NOT AND SWAP1 DUP4 PUSH8 0xFFFFFFFFFFFFFFFF AND MUL OR SWAP1 SSTORE POP POP POP PUSH1 0x2 DUP3 ADD PUSH1 0x0 SWAP1 SLOAD SWAP1 PUSH2 0x100 EXP SWAP1 DIV PUSH4 0xFFFFFFFF AND DUP2 PUSH1 0x2 ADD PUSH1 0x0 PUSH2 0x100 EXP DUP2 SLOAD DUP2 PUSH4 0xFFFFFFFF MUL NOT AND SWAP1 DUP4 PUSH4 0xFFFFFFFF AND MUL OR SWAP1 SSTORE POP PUSH1 0x2 DUP3 ADD PUSH1 0x4 SWAP1 SLOAD SWAP1 PUSH2 0x100 EXP SWAP1 DIV PUSH20 0xFFFFFFFFFFFFFFFFFFFFFFFFFFFFFFFFFFFFFFFF AND DUP2 PUSH1 0x2 ADD PUSH1 0x4 PUSH2 0x100 EXP DUP2 SLOAD DUP2 PUSH20 0xFFFFFFFFFFFFFFFFFFFFFFFFFFFFFFFFFFFFFFFF MUL NOT AND SWAP1 DUP4 PUSH20 0xFFFFFFFFFFFFFFFFFFFFFFFFFFFFFFFFFFFFFFFF AND MUL OR SWAP1 SSTORE POP PUSH1 0x3 DUP3 ADD SLOAD DUP2 PUSH1 0x3 ADD SSTORE PUSH1 0x4 DUP3 ADD DUP2 PUSH1 0x4 ADD PUSH1 0x0 DUP3 ADD PUSH1 0x0 SWAP1 SLOAD SWAP1 PUSH2 0x100 EXP SWAP1 DIV PUSH1 0xFF AND DUP2 PUSH1 0x0 ADD PUSH1 0x0 PUSH2 0x100 EXP DUP2 SLOAD DUP2 PUSH1 0xFF MUL NOT AND SWAP1 DUP4 PUSH1 0xFF AND MUL OR SWAP1 SSTORE POP PUSH1 0x0 DUP3 ADD PUSH1 0x1 SWAP1 SLOAD SWAP1 PUSH2 0x100 EXP SWAP1 DIV PUSH20 0xFFFFFFFFFFFFFFFFFFFFFFFFFFFFFFFFFFFFFFFF AND DUP2 PUSH1 0x0 ADD PUSH1 0x1 PUSH2 0x100 EXP DUP2 SLOAD DUP2 PUSH20 0xFFFFFFFFFFFFFFFFFFFFFFFFFFFFFFFFFFFFFFFF MUL NOT AND SWAP1 DUP4 PUSH20 0xFFFFFFFFFFFFFFFFFFFFFFFFFFFFFFFFFFFFFFFF AND MUL OR SWAP1 SSTORE POP POP POP PUSH1 0x5 DUP3 ADD PUSH1 0x0 SWAP1 SLOAD SWAP1 PUSH2 0x100 EXP SWAP1 DIV PUSH20 0xFFFFFFFFFFFFFFFFFFFFFFFFFFFFFFFFFFFFFFFF AND DUP2 PUSH1 0x5 ADD PUSH1 0x0 PUSH2 0x100 EXP DUP2 SLOAD DUP2 PUSH20 0xFFFFFFFFFFFFFFFFFFFFFFFFFFFFFFFFFFFFFFFF MUL NOT AND SWAP1 DUP4 PUSH20 0xFFFFFFFFFFFFFFFFFFFFFFFFFFFFFFFFFFFFFFFF AND MUL OR SWAP1 SSTORE POP PUSH1 0x6 DUP3 ADD PUSH1 0x0 SWAP1 SLOAD SWAP1 PUSH2 0x100 EXP SWAP1 DIV PUSH20 0xFFFFFFFFFFFFFFFFFFFFFFFFFFFFFFFFFFFFFFFF AND DUP2 PUSH1 0x6 ADD PUSH1 0x0 PUSH2 0x100 EXP DUP2 SLOAD DUP2 PUSH20 0xFFFFFFFFFFFFFFFFFFFFFFFFFFFFFFFFFFFFFFFF MUL NOT AND SWAP1 DUP4 PUSH20 0xFFFFFFFFFFFFFFFFFFFFFFFFFFFFFFFFFFFFFFFF AND MUL OR SWAP1 SSTORE POP PUSH1 0x7 DUP3 ADD PUSH1 0x0 SWAP1 SLOAD SWAP1 PUSH2 0x100 EXP SWAP1 DIV PUSH20 0xFFFFFFFFFFFFFFFFFFFFFFFFFFFFFFFFFFFFFFFF AND DUP2 PUSH1 0x7 ADD PUSH1 0x0 PUSH2 0x100 EXP DUP2 SLOAD DUP2 PUSH20 0xFFFFFFFFFFFFFFFFFFFFFFFFFFFFFFFFFFFFFFFF MUL NOT AND SWAP1 DUP4 PUSH20 0xFFFFFFFFFFFFFFFFFFFFFFFFFFFFFFFFFFFFFFFF AND MUL OR SWAP1 SSTORE POP POP POP SWAP2 PUSH1 0x8 ADD SWAP2 SWAP1 PUSH1 0x8 ADD SWAP1 PUSH2 0x29BD JUMP JUMPDEST JUMPDEST POP SWAP1 POP PUSH2 0x2D4D SWAP2 SWAP1 PUSH2 0x2E03 JUMP JUMPDEST POP SWAP1 JUMP JUMPDEST POP DUP1 SLOAD PUSH1 0x0 DUP3 SSTORE PUSH1 0x8 MUL SWAP1 PUSH1 0x0 MSTORE PUSH1 0x20 PUSH1 0x0 KECCAK256 SWAP1 DUP2 ADD SWAP1 PUSH2 0x2D72 SWAP2 SWAP1 PUSH2 0x2E03 JUMP JUMPDEST POP JUMP JUMPDEST DUP3 DUP1 SLOAD PUSH1 0x1 DUP2 PUSH1 0x1 AND ISZERO PUSH2 0x100 MUL SUB AND PUSH1 0x2 SWAP1 DIV SWAP1 PUSH1 0x0 MSTORE PUSH1 0x20 PUSH1 0x0 KECCAK256 SWAP1 PUSH1 0x1F ADD PUSH1 0x20 SWAP1 DIV DUP2 ADD SWAP3 DUP3 PUSH2 0x2DAB JUMPI PUSH1 0x0 DUP6 SSTORE PUSH2 0x2DF2 JUMP JUMPDEST DUP3 PUSH1 0x1F LT PUSH2 0x2DC4 JUMPI DUP1 MLOAD PUSH1 0xFF NOT AND DUP4 DUP1 ADD OR DUP6 SSTORE PUSH2 0x2DF2 JUMP JUMPDEST DUP3 DUP1 ADD PUSH1 0x1 ADD DUP6 SSTORE DUP3 ISZERO PUSH2 0x2DF2 JUMPI SWAP2 DUP3 ADD JUMPDEST DUP3 DUP2 GT ISZERO PUSH2 0x2DF1 JUMPI DUP3 MLOAD DUP3 SSTORE SWAP2 PUSH1 0x20 ADD SWAP2 SWAP1 PUSH1 0x1 ADD SWAP1 PUSH2 0x2DD6 JUMP JUMPDEST JUMPDEST POP SWAP1 POP PUSH2 0x2DFF SWAP2 SWAP1 PUSH2 0x2F77 JUMP JUMPDEST POP SWAP1 JUMP JUMPDEST JUMPDEST DUP1 DUP3 GT ISZERO PUSH2 0x2F73 JUMPI PUSH1 0x0 DUP1 DUP3 ADD PUSH1 0x0 PUSH2 0x100 EXP DUP2 SLOAD SWAP1 PUSH4 0xFFFFFFFF MUL NOT AND SWAP1 SSTORE PUSH1 0x1 DUP3 ADD PUSH1 0x0 DUP1 DUP3 ADD PUSH1 0x0 PUSH2 0x100 EXP DUP2 SLOAD SWAP1 PUSH20 0xFFFFFFFFFFFFFFFFFFFFFFFFFFFFFFFFFFFFFFFF MUL NOT AND SWAP1 SSTORE PUSH1 0x0 DUP3 ADD PUSH1 0x14 PUSH2 0x100 EXP DUP2 SLOAD SWAP1 PUSH8 0xFFFFFFFFFFFFFFFF MUL NOT AND SWAP1 SSTORE POP POP PUSH1 0x2 DUP3 ADD PUSH1 0x0 PUSH2 0x100 EXP DUP2 SLOAD SWAP1 PUSH4 0xFFFFFFFF MUL NOT AND SWAP1 SSTORE PUSH1 0x2 DUP3 ADD PUSH1 0x4 PUSH2 0x100 EXP DUP2 SLOAD SWAP1 PUSH20 0xFFFFFFFFFFFFFFFFFFFFFFFFFFFFFFFFFFFFFFFF MUL NOT AND SWAP1 SSTORE PUSH1 0x3 DUP3 ADD PUSH1 0x0 SWAP1 SSTORE PUSH1 0x4 DUP3 ADD PUSH1 0x0 DUP1 DUP3 ADD PUSH1 0x0 PUSH2 0x100 EXP DUP2 SLOAD SWAP1 PUSH1 0xFF MUL NOT AND SWAP1 SSTORE PUSH1 0x0 DUP3 ADD PUSH1 0x1 PUSH2 0x100 EXP DUP2 SLOAD SWAP1 PUSH20 0xFFFFFFFFFFFFFFFFFFFFFFFFFFFFFFFFFFFFFFFF MUL NOT AND SWAP1 SSTORE POP POP PUSH1 0x5 DUP3 ADD PUSH1 0x0 PUSH2 0x100 EXP DUP2 SLOAD SWAP1 PUSH20 0xFFFFFFFFFFFFFFFFFFFFFFFFFFFFFFFFFFFFFFFF MUL NOT AND SWAP1 SSTORE PUSH1 0x6 DUP3 ADD PUSH1 0x0 PUSH2 0x100 EXP DUP2 SLOAD SWAP1 PUSH20 0xFFFFFFFFFFFFFFFFFFFFFFFFFFFFFFFFFFFFFFFF MUL NOT AND SWAP1 SSTORE PUSH1 0x7 DUP3 ADD PUSH1 0x0 PUSH2 0x100 EXP DUP2 SLOAD SWAP1 PUSH20 0xFFFFFFFFFFFFFFFFFFFFFFFFFFFFFFFFFFFFFFFF MUL NOT AND SWAP1 SSTORE POP PUSH1 0x8 ADD PUSH2 0x2E04 JUMP JUMPDEST POP SWAP1 JUMP JUMPDEST JUMPDEST DUP1 DUP3 GT ISZERO PUSH2 0x2F90 JUMPI PUSH1 0x0 DUP2 PUSH1 0x0 SWAP1 SSTORE POP PUSH1 0x1 ADD PUSH2 0x2F78 JUMP JUMPDEST POP SWAP1 JUMP JUMPDEST PUSH1 0x0 PUSH2 0x2FA7 PUSH2 0x2FA2 DUP5 PUSH2 0x55E3 JUMP JUMPDEST PUSH2 0x55B2 JUMP JUMPDEST SWAP1 POP DUP1 DUP4 DUP3 MSTORE PUSH1 0x20 DUP3 ADD SWAP1 POP DUP3 DUP6 PUSH1 0x20 DUP7 MUL DUP3 ADD GT ISZERO PUSH2 0x2FC6 JUMPI PUSH1 0x0 DUP1 REVERT JUMPDEST PUSH1 0x0 JUMPDEST DUP6 DUP2 LT ISZERO PUSH2 0x2FF6 JUMPI DUP2 PUSH2 0x2FDC DUP9 DUP3 PUSH2 0x343E JUMP JUMPDEST DUP5 MSTORE PUSH1 0x20 DUP5 ADD SWAP4 POP PUSH1 0x20 DUP4 ADD SWAP3 POP POP PUSH1 0x1 DUP2 ADD SWAP1 POP PUSH2 0x2FC9 JUMP JUMPDEST POP POP POP SWAP4 SWAP3 POP POP POP JUMP JUMPDEST PUSH1 0x0 PUSH2 0x3013 PUSH2 0x300E DUP5 PUSH2 0x560F JUMP JUMPDEST PUSH2 0x55B2 JUMP JUMPDEST SWAP1 POP DUP1 DUP4 DUP3 MSTORE PUSH1 0x20 DUP3 ADD SWAP1 POP DUP3 PUSH1 0x0 JUMPDEST DUP6 DUP2 LT ISZERO PUSH2 0x3053 JUMPI DUP2 CALLDATALOAD DUP6 ADD PUSH2 0x3039 DUP9 DUP3 PUSH2 0x34E6 JUMP JUMPDEST DUP5 MSTORE PUSH1 0x20 DUP5 ADD SWAP4 POP PUSH1 0x20 DUP4 ADD SWAP3 POP POP PUSH1 0x1 DUP2 ADD SWAP1 POP PUSH2 0x3023 JUMP JUMPDEST POP POP POP SWAP4 SWAP3 POP POP POP JUMP JUMPDEST PUSH1 0x0 PUSH2 0x3070 PUSH2 0x306B DUP5 PUSH2 0x563B JUMP JUMPDEST PUSH2 0x55B2 JUMP JUMPDEST SWAP1 POP DUP1 DUP4 DUP3 MSTORE PUSH1 0x20 DUP3 ADD SWAP1 POP DUP3 DUP6 PUSH1 0x40 DUP7 MUL DUP3 ADD GT ISZERO PUSH2 0x308F JUMPI PUSH1 0x0 DUP1 REVERT JUMPDEST PUSH1 0x0 JUMPDEST DUP6 DUP2 LT ISZERO PUSH2 0x30BF JUMPI DUP2 PUSH2 0x30A5 DUP9 DUP3 PUSH2 0x38C2 JUMP JUMPDEST DUP5 MSTORE PUSH1 0x20 DUP5 ADD SWAP4 POP PUSH1 0x40 DUP4 ADD SWAP3 POP POP PUSH1 0x1 DUP2 ADD SWAP1 POP PUSH2 0x3092 JUMP JUMPDEST POP POP POP SWAP4 SWAP3 POP POP POP JUMP JUMPDEST PUSH1 0x0 PUSH2 0x30DC PUSH2 0x30D7 DUP5 PUSH2 0x563B JUMP JUMPDEST PUSH2 0x55B2 JUMP JUMPDEST SWAP1 POP DUP1 DUP4 DUP3 MSTORE PUSH1 0x20 DUP3 ADD SWAP1 POP DUP3 DUP6 PUSH1 0x40 DUP7 MUL DUP3 ADD GT ISZERO PUSH2 0x30FB JUMPI PUSH1 0x0 DUP1 REVERT JUMPDEST PUSH1 0x0 JUMPDEST DUP6 DUP2 LT ISZERO PUSH2 0x312B JUMPI DUP2 PUSH2 0x3111 DUP9 DUP3 PUSH2 0x390E JUMP JUMPDEST DUP5 MSTORE PUSH1 0x20 DUP5 ADD SWAP4 POP PUSH1 0x40 DUP4 ADD SWAP3 POP POP PUSH1 0x1 DUP2 ADD SWAP1 POP PUSH2 0x30FE JUMP JUMPDEST POP POP POP SWAP4 SWAP3 POP POP POP JUMP JUMPDEST PUSH1 0x0 PUSH2 0x3148 PUSH2 0x3143 DUP5 PUSH2 0x5667 JUMP JUMPDEST PUSH2 0x55B2 JUMP JUMPDEST SWAP1 POP DUP1 DUP4 DUP3 MSTORE PUSH1 0x20 DUP3 ADD SWAP1 POP DUP3 PUSH1 0x0 JUMPDEST DUP6 DUP2 LT ISZERO PUSH2 0x3188 JUMPI DUP2 CALLDATALOAD DUP6 ADD PUSH2 0x316E DUP9 DUP3 PUSH2 0x3A8A JUMP JUMPDEST DUP5 MSTORE PUSH1 0x20 DUP5 ADD SWAP4 POP PUSH1 0x20 DUP4 ADD SWAP3 POP POP PUSH1 0x1 DUP2 ADD SWAP1 POP PUSH2 0x3158 JUMP JUMPDEST POP POP POP SWAP4 SWAP3 POP POP POP JUMP JUMPDEST PUSH1 0x0 PUSH2 0x31A5 PUSH2 0x31A0 DUP5 PUSH2 0x5693 JUMP JUMPDEST PUSH2 0x55B2 JUMP JUMPDEST SWAP1 POP DUP1 DUP4 DUP3 MSTORE PUSH1 0x20 DUP3 ADD SWAP1 POP DUP3 DUP6 PUSH2 0x160 DUP7 MUL DUP3 ADD GT ISZERO PUSH2 0x31C5 JUMPI PUSH1 0x0 DUP1 REVERT JUMPDEST PUSH1 0x0 JUMPDEST DUP6 DUP2 LT ISZERO PUSH2 0x31F6 JUMPI DUP2 PUSH2 0x31DB DUP9 DUP3 PUSH2 0x3B6E JUMP JUMPDEST DUP5 MSTORE PUSH1 0x20 DUP5 ADD SWAP4 POP PUSH2 0x160 DUP4 ADD SWAP3 POP POP PUSH1 0x1 DUP2 ADD SWAP1 POP PUSH2 0x31C8 JUMP JUMPDEST POP POP POP SWAP4 SWAP3 POP POP POP JUMP JUMPDEST PUSH1 0x0 PUSH2 0x3213 PUSH2 0x320E DUP5 PUSH2 0x56BF JUMP JUMPDEST PUSH2 0x55B2 JUMP JUMPDEST SWAP1 POP DUP1 DUP4 DUP3 MSTORE PUSH1 0x20 DUP3 ADD SWAP1 POP DUP3 PUSH1 0x0 JUMPDEST DUP6 DUP2 LT ISZERO PUSH2 0x3253 JUMPI DUP2 CALLDATALOAD DUP6 ADD PUSH2 0x3239 DUP9 DUP3 PUSH2 0x3C4C JUMP JUMPDEST DUP5 MSTORE PUSH1 0x20 DUP5 ADD SWAP4 POP PUSH1 0x20 DUP4 ADD SWAP3 POP POP PUSH1 0x1 DUP2 ADD SWAP1 POP PUSH2 0x3223 JUMP JUMPDEST POP POP POP SWAP4 SWAP3 POP POP POP JUMP JUMPDEST PUSH1 0x0 PUSH2 0x3270 PUSH2 0x326B DUP5 PUSH2 0x56EB JUMP JUMPDEST PUSH2 0x55B2 JUMP JUMPDEST SWAP1 POP DUP3 DUP2 MSTORE PUSH1 0x20 DUP2 ADD DUP5 DUP5 DUP5 ADD GT ISZERO PUSH2 0x3288 JUMPI PUSH1 0x0 DUP1 REVERT JUMPDEST PUSH2 0x3293 DUP5 DUP3 DUP6 PUSH2 0x5A27 JUMP JUMPDEST POP SWAP4 SWAP3 POP POP POP JUMP JUMPDEST PUSH1 0x0 PUSH2 0x32AE PUSH2 0x32A9 DUP5 PUSH2 0x56EB JUMP JUMPDEST PUSH2 0x55B2 JUMP JUMPDEST SWAP1 POP DUP3 DUP2 MSTORE PUSH1 0x20 DUP2 ADD DUP5 DUP5 DUP5 ADD GT ISZERO PUSH2 0x32C6 JUMPI PUSH1 0x0 DUP1 REVERT JUMPDEST PUSH2 0x32D1 DUP5 DUP3 DUP6 PUSH2 0x5A36 JUMP JUMPDEST POP SWAP4 SWAP3 POP POP POP JUMP JUMPDEST PUSH1 0x0 DUP2 CALLDATALOAD SWAP1 POP PUSH2 0x32E8 DUP2 PUSH2 0x5B70 JUMP JUMPDEST SWAP3 SWAP2 POP POP JUMP JUMPDEST PUSH1 0x0 DUP2 MLOAD SWAP1 POP PUSH2 0x32FD DUP2 PUSH2 0x5B70 JUMP JUMPDEST SWAP3 SWAP2 POP POP JUMP JUMPDEST PUSH1 0x0 DUP3 PUSH1 0x1F DUP4 ADD SLT PUSH2 0x3314 JUMPI PUSH1 0x0 DUP1 REVERT JUMPDEST DUP2 CALLDATALOAD PUSH2 0x3324 DUP5 DUP3 PUSH1 0x20 DUP7 ADD PUSH2 0x2F94 JUMP JUMPDEST SWAP2 POP POP SWAP3 SWAP2 POP POP JUMP JUMPDEST PUSH1 0x0 DUP3 PUSH1 0x1F DUP4 ADD SLT PUSH2 0x333E JUMPI PUSH1 0x0 DUP1 REVERT JUMPDEST DUP2 CALLDATALOAD PUSH2 0x334E DUP5 DUP3 PUSH1 0x20 DUP7 ADD PUSH2 0x3000 JUMP JUMPDEST SWAP2 POP POP SWAP3 SWAP2 POP POP JUMP JUMPDEST PUSH1 0x0 DUP3 PUSH1 0x1F DUP4 ADD SLT PUSH2 0x3368 JUMPI PUSH1 0x0 DUP1 REVERT JUMPDEST DUP2 CALLDATALOAD PUSH2 0x3378 DUP5 DUP3 PUSH1 0x20 DUP7 ADD PUSH2 0x305D JUMP JUMPDEST SWAP2 POP POP SWAP3 SWAP2 POP POP JUMP JUMPDEST PUSH1 0x0 DUP3 PUSH1 0x1F DUP4 ADD SLT PUSH2 0x3392 JUMPI PUSH1 0x0 DUP1 REVERT JUMPDEST DUP2 MLOAD PUSH2 0x33A2 DUP5 DUP3 PUSH1 0x20 DUP7 ADD PUSH2 0x30C9 JUMP JUMPDEST SWAP2 POP POP SWAP3 SWAP2 POP POP JUMP JUMPDEST PUSH1 0x0 DUP3 PUSH1 0x1F DUP4 ADD SLT PUSH2 0x33BC JUMPI PUSH1 0x0 DUP1 REVERT JUMPDEST DUP2 CALLDATALOAD PUSH2 0x33CC DUP5 DUP3 PUSH1 0x20 DUP7 ADD PUSH2 0x3135 JUMP JUMPDEST SWAP2 POP POP SWAP3 SWAP2 POP POP JUMP JUMPDEST PUSH1 0x0 DUP3 PUSH1 0x1F DUP4 ADD SLT PUSH2 0x33E6 JUMPI PUSH1 0x0 DUP1 REVERT JUMPDEST DUP2 CALLDATALOAD PUSH2 0x33F6 DUP5 DUP3 PUSH1 0x20 DUP7 ADD PUSH2 0x3192 JUMP JUMPDEST SWAP2 POP POP SWAP3 SWAP2 POP POP JUMP JUMPDEST PUSH1 0x0 DUP3 PUSH1 0x1F DUP4 ADD SLT PUSH2 0x3410 JUMPI PUSH1 0x0 DUP1 REVERT JUMPDEST DUP2 CALLDATALOAD PUSH2 0x3420 DUP5 DUP3 PUSH1 0x20 DUP7 ADD PUSH2 0x3200 JUMP JUMPDEST SWAP2 POP POP SWAP3 SWAP2 POP POP JUMP JUMPDEST PUSH1 0x0 DUP2 MLOAD SWAP1 POP PUSH2 0x3438 DUP2 PUSH2 0x5B87 JUMP JUMPDEST SWAP3 SWAP2 POP POP JUMP JUMPDEST PUSH1 0x0 DUP2 CALLDATALOAD SWAP1 POP PUSH2 0x344D DUP2 PUSH2 0x5B9E JUMP JUMPDEST SWAP3 SWAP2 POP POP JUMP JUMPDEST PUSH1 0x0 DUP2 MLOAD SWAP1 POP PUSH2 0x3462 DUP2 PUSH2 0x5B9E JUMP JUMPDEST SWAP3 SWAP2 POP POP JUMP JUMPDEST PUSH1 0x0 DUP3 PUSH1 0x1F DUP4 ADD SLT PUSH2 0x3479 JUMPI PUSH1 0x0 DUP1 REVERT JUMPDEST DUP2 CALLDATALOAD PUSH2 0x3489 DUP5 DUP3 PUSH1 0x20 DUP7 ADD PUSH2 0x325D JUMP JUMPDEST SWAP2 POP POP SWAP3 SWAP2 POP POP JUMP JUMPDEST PUSH1 0x0 DUP3 PUSH1 0x1F DUP4 ADD SLT PUSH2 0x34A3 JUMPI PUSH1 0x0 DUP1 REVERT JUMPDEST DUP2 MLOAD PUSH2 0x34B3 DUP5 DUP3 PUSH1 0x20 DUP7 ADD PUSH2 0x329B JUMP JUMPDEST SWAP2 POP POP SWAP3 SWAP2 POP POP JUMP JUMPDEST PUSH1 0x0 DUP2 CALLDATALOAD SWAP1 POP PUSH2 0x34CB DUP2 PUSH2 0x5BB5 JUMP JUMPDEST SWAP3 SWAP2 POP POP JUMP JUMPDEST PUSH1 0x0 DUP2 MLOAD SWAP1 POP PUSH2 0x34E0 DUP2 PUSH2 0x5BB5 JUMP JUMPDEST SWAP3 SWAP2 POP POP JUMP JUMPDEST PUSH1 0x0 PUSH1 0xA0 DUP3 DUP5 SUB SLT ISZERO PUSH2 0x34F8 JUMPI PUSH1 0x0 DUP1 REVERT JUMPDEST PUSH2 0x3502 PUSH1 0xA0 PUSH2 0x55B2 JUMP JUMPDEST SWAP1 POP PUSH1 0x0 PUSH2 0x3512 DUP5 DUP3 DUP6 ADD PUSH2 0x3DF0 JUMP JUMPDEST PUSH1 0x0 DUP4 ADD MSTORE POP PUSH1 0x20 PUSH2 0x3526 DUP5 DUP3 DUP6 ADD PUSH2 0x3DF0 JUMP JUMPDEST PUSH1 0x20 DUP4 ADD MSTORE POP PUSH1 0x40 DUP3 ADD CALLDATALOAD PUSH8 0xFFFFFFFFFFFFFFFF DUP2 GT ISZERO PUSH2 0x3546 JUMPI PUSH1 0x0 DUP1 REVERT JUMPDEST PUSH2 0x3552 DUP5 DUP3 DUP6 ADD PUSH2 0x3468 JUMP JUMPDEST PUSH1 0x40 DUP4 ADD MSTORE POP PUSH1 0x60 DUP3 ADD CALLDATALOAD PUSH8 0xFFFFFFFFFFFFFFFF DUP2 GT ISZERO PUSH2 0x3572 JUMPI PUSH1 0x0 DUP1 REVERT JUMPDEST PUSH2 0x357E DUP5 DUP3 DUP6 ADD PUSH2 0x33FF JUMP JUMPDEST PUSH1 0x60 DUP4 ADD MSTORE POP PUSH1 0x80 PUSH2 0x3592 DUP5 DUP3 DUP6 ADD PUSH2 0x3D9C JUMP JUMPDEST PUSH1 0x80 DUP4 ADD MSTORE POP SWAP3 SWAP2 POP POP JUMP JUMPDEST PUSH1 0x0 PUSH2 0x1E0 DUP3 DUP5 SUB SLT ISZERO PUSH2 0x35B1 JUMPI PUSH1 0x0 DUP1 REVERT JUMPDEST PUSH2 0x35BC PUSH2 0x1C0 PUSH2 0x55B2 JUMP JUMPDEST SWAP1 POP PUSH1 0x0 PUSH2 0x35CC DUP5 DUP3 DUP6 ADD PUSH2 0x3D48 JUMP JUMPDEST PUSH1 0x0 DUP4 ADD MSTORE POP PUSH1 0x20 PUSH2 0x35E0 DUP5 DUP3 DUP6 ADD PUSH2 0x3D48 JUMP JUMPDEST PUSH1 0x20 DUP4 ADD MSTORE POP PUSH1 0x40 PUSH2 0x35F4 DUP5 DUP3 DUP6 ADD PUSH2 0x32D9 JUMP JUMPDEST PUSH1 0x40 DUP4 ADD MSTORE POP PUSH1 0x60 PUSH2 0x3608 DUP5 DUP3 DUP6 ADD PUSH2 0x3D9C JUMP JUMPDEST PUSH1 0x60 DUP4 ADD MSTORE POP PUSH1 0x80 PUSH2 0x361C DUP5 DUP3 DUP6 ADD PUSH2 0x3D9C JUMP JUMPDEST PUSH1 0x80 DUP4 ADD MSTORE POP PUSH1 0xA0 PUSH2 0x3630 DUP5 DUP3 DUP6 ADD PUSH2 0x32D9 JUMP JUMPDEST PUSH1 0xA0 DUP4 ADD MSTORE POP PUSH1 0xC0 PUSH2 0x3644 DUP5 DUP3 DUP6 ADD PUSH2 0x32D9 JUMP JUMPDEST PUSH1 0xC0 DUP4 ADD MSTORE POP PUSH1 0xE0 PUSH2 0x3658 DUP5 DUP3 DUP6 ADD PUSH2 0x3D9C JUMP JUMPDEST PUSH1 0xE0 DUP4 ADD MSTORE POP PUSH2 0x100 DUP3 ADD CALLDATALOAD PUSH8 0xFFFFFFFFFFFFFFFF DUP2 GT ISZERO PUSH2 0x3679 JUMPI PUSH1 0x0 DUP1 REVERT JUMPDEST PUSH2 0x3685 DUP5 DUP3 DUP6 ADD PUSH2 0x3357 JUMP JUMPDEST PUSH2 0x100 DUP4 ADD MSTORE POP PUSH2 0x120 DUP3 ADD CALLDATALOAD PUSH8 0xFFFFFFFFFFFFFFFF DUP2 GT ISZERO PUSH2 0x36A7 JUMPI PUSH1 0x0 DUP1 REVERT JUMPDEST PUSH2 0x36B3 DUP5 DUP3 DUP6 ADD PUSH2 0x3357 JUMP JUMPDEST PUSH2 0x120 DUP4 ADD MSTORE POP PUSH2 0x140 PUSH2 0x36C9 DUP5 DUP3 DUP6 ADD PUSH2 0x343E JUMP JUMPDEST PUSH2 0x140 DUP4 ADD MSTORE POP PUSH2 0x160 DUP3 ADD CALLDATALOAD PUSH8 0xFFFFFFFFFFFFFFFF DUP2 GT ISZERO PUSH2 0x36EB JUMPI PUSH1 0x0 DUP1 REVERT JUMPDEST PUSH2 0x36F7 DUP5 DUP3 DUP6 ADD PUSH2 0x3357 JUMP JUMPDEST PUSH2 0x160 DUP4 ADD MSTORE POP PUSH2 0x180 PUSH2 0x370D DUP5 DUP3 DUP6 ADD PUSH2 0x3CB0 JUMP JUMPDEST PUSH2 0x180 DUP4 ADD MSTORE POP PUSH2 0x1C0 PUSH2 0x3723 DUP5 DUP3 DUP6 ADD PUSH2 0x34BC JUMP JUMPDEST PUSH2 0x1A0 DUP4 ADD MSTORE POP SWAP3 SWAP2 POP POP JUMP JUMPDEST PUSH1 0x0 PUSH2 0x1E0 DUP3 DUP5 SUB SLT ISZERO PUSH2 0x3743 JUMPI PUSH1 0x0 DUP1 REVERT JUMPDEST PUSH2 0x374E PUSH2 0x1C0 PUSH2 0x55B2 JUMP JUMPDEST SWAP1 POP PUSH1 0x0 PUSH2 0x375E DUP5 DUP3 DUP6 ADD PUSH2 0x3D5D JUMP JUMPDEST PUSH1 0x0 DUP4 ADD MSTORE POP PUSH1 0x20 PUSH2 0x3772 DUP5 DUP3 DUP6 ADD PUSH2 0x3D5D JUMP JUMPDEST PUSH1 0x20 DUP4 ADD MSTORE POP PUSH1 0x40 PUSH2 0x3786 DUP5 DUP3 DUP6 ADD PUSH2 0x32EE JUMP JUMPDEST PUSH1 0x40 DUP4 ADD MSTORE POP PUSH1 0x60 PUSH2 0x379A DUP5 DUP3 DUP6 ADD PUSH2 0x3DB1 JUMP JUMPDEST PUSH1 0x60 DUP4 ADD MSTORE POP PUSH1 0x80 PUSH2 0x37AE DUP5 DUP3 DUP6 ADD PUSH2 0x3DB1 JUMP JUMPDEST PUSH1 0x80 DUP4 ADD MSTORE POP PUSH1 0xA0 PUSH2 0x37C2 DUP5 DUP3 DUP6 ADD PUSH2 0x32EE JUMP JUMPDEST PUSH1 0xA0 DUP4 ADD MSTORE POP PUSH1 0xC0 PUSH2 0x37D6 DUP5 DUP3 DUP6 ADD PUSH2 0x32EE JUMP JUMPDEST PUSH1 0xC0 DUP4 ADD MSTORE POP PUSH1 0xE0 PUSH2 0x37EA DUP5 DUP3 DUP6 ADD PUSH2 0x3DB1 JUMP JUMPDEST PUSH1 0xE0 DUP4 ADD MSTORE POP PUSH2 0x100 DUP3 ADD MLOAD PUSH8 0xFFFFFFFFFFFFFFFF DUP2 GT ISZERO PUSH2 0x380B JUMPI PUSH1 0x0 DUP1 REVERT JUMPDEST PUSH2 0x3817 DUP5 DUP3 DUP6 ADD PUSH2 0x3381 JUMP JUMPDEST PUSH2 0x100 DUP4 ADD MSTORE POP PUSH2 0x120 DUP3 ADD MLOAD PUSH8 0xFFFFFFFFFFFFFFFF DUP2 GT ISZERO PUSH2 0x3839 JUMPI PUSH1 0x0 DUP1 REVERT JUMPDEST PUSH2 0x3845 DUP5 DUP3 DUP6 ADD PUSH2 0x3381 JUMP JUMPDEST PUSH2 0x120 DUP4 ADD MSTORE POP PUSH2 0x140 PUSH2 0x385B DUP5 DUP3 DUP6 ADD PUSH2 0x3453 JUMP JUMPDEST PUSH2 0x140 DUP4 ADD MSTORE POP PUSH2 0x160 DUP3 ADD MLOAD PUSH8 0xFFFFFFFFFFFFFFFF DUP2 GT ISZERO PUSH2 0x387D JUMPI PUSH1 0x0 DUP1 REVERT JUMPDEST PUSH2 0x3889 DUP5 DUP3 DUP6 ADD PUSH2 0x3381 JUMP JUMPDEST PUSH2 0x160 DUP4 ADD MSTORE POP PUSH2 0x180 PUSH2 0x389F DUP5 DUP3 DUP6 ADD PUSH2 0x3CFC JUMP JUMPDEST PUSH2 0x180 DUP4 ADD MSTORE POP PUSH2 0x1C0 PUSH2 0x38B5 DUP5 DUP3 DUP6 ADD PUSH2 0x34D1 JUMP JUMPDEST PUSH2 0x1A0 DUP4 ADD MSTORE POP SWAP3 SWAP2 POP POP JUMP JUMPDEST PUSH1 0x0 PUSH1 0x40 DUP3 DUP5 SUB SLT ISZERO PUSH2 0x38D4 JUMPI PUSH1 0x0 DUP1 REVERT JUMPDEST PUSH2 0x38DE PUSH1 0x40 PUSH2 0x55B2 JUMP JUMPDEST SWAP1 POP PUSH1 0x0 PUSH2 0x38EE DUP5 DUP3 DUP6 ADD PUSH2 0x32D9 JUMP JUMPDEST PUSH1 0x0 DUP4 ADD MSTORE POP PUSH1 0x20 PUSH2 0x3902 DUP5 DUP3 DUP6 ADD PUSH2 0x3DC6 JUMP JUMPDEST PUSH1 0x20 DUP4 ADD MSTORE POP SWAP3 SWAP2 POP POP JUMP JUMPDEST PUSH1 0x0 PUSH1 0x40 DUP3 DUP5 SUB SLT ISZERO PUSH2 0x3920 JUMPI PUSH1 0x0 DUP1 REVERT JUMPDEST PUSH2 0x392A PUSH1 0x40 PUSH2 0x55B2 JUMP JUMPDEST SWAP1 POP PUSH1 0x0 PUSH2 0x393A DUP5 DUP3 DUP6 ADD PUSH2 0x32EE JUMP JUMPDEST PUSH1 0x0 DUP4 ADD MSTORE POP PUSH1 0x20 PUSH2 0x394E DUP5 DUP3 DUP6 ADD PUSH2 0x3DDB JUMP JUMPDEST PUSH1 0x20 DUP4 ADD MSTORE POP SWAP3 SWAP2 POP POP JUMP JUMPDEST PUSH1 0x0 PUSH1 0x80 DUP3 DUP5 SUB SLT ISZERO PUSH2 0x396C JUMPI PUSH1 0x0 DUP1 REVERT JUMPDEST PUSH2 0x3976 PUSH1 0x80 PUSH2 0x55B2 JUMP JUMPDEST SWAP1 POP PUSH1 0x0 PUSH2 0x3986 DUP5 DUP3 DUP6 ADD PUSH2 0x3DF0 JUMP JUMPDEST PUSH1 0x0 DUP4 ADD MSTORE POP PUSH1 0x20 PUSH2 0x399A DUP5 DUP3 DUP6 ADD PUSH2 0x3D9C JUMP JUMPDEST PUSH1 0x20 DUP4 ADD MSTORE POP PUSH1 0x40 PUSH2 0x39AE DUP5 DUP3 DUP6 ADD PUSH2 0x3D9C JUMP JUMPDEST PUSH1 0x40 DUP4 ADD MSTORE POP PUSH1 0x60 DUP3 ADD CALLDATALOAD PUSH8 0xFFFFFFFFFFFFFFFF DUP2 GT ISZERO PUSH2 0x39CE JUMPI PUSH1 0x0 DUP1 REVERT JUMPDEST PUSH2 0x39DA DUP5 DUP3 DUP6 ADD PUSH2 0x3303 JUMP JUMPDEST PUSH1 0x60 DUP4 ADD MSTORE POP SWAP3 SWAP2 POP POP JUMP JUMPDEST PUSH1 0x0 PUSH1 0x80 DUP3 DUP5 SUB SLT ISZERO PUSH2 0x39F8 JUMPI PUSH1 0x0 DUP1 REVERT JUMPDEST PUSH2 0x3A02 PUSH1 0x80 PUSH2 0x55B2 JUMP JUMPDEST SWAP1 POP PUSH1 0x0 PUSH2 0x3A12 DUP5 DUP3 DUP6 ADD PUSH2 0x3DF0 JUMP JUMPDEST PUSH1 0x0 DUP4 ADD MSTORE POP PUSH1 0x20 PUSH2 0x3A26 DUP5 DUP3 DUP6 ADD PUSH2 0x3DF0 JUMP JUMPDEST PUSH1 0x20 DUP4 ADD MSTORE POP PUSH1 0x40 DUP3 ADD CALLDATALOAD PUSH8 0xFFFFFFFFFFFFFFFF DUP2 GT ISZERO PUSH2 0x3A46 JUMPI PUSH1 0x0 DUP1 REVERT JUMPDEST PUSH2 0x3A52 DUP5 DUP3 DUP6 ADD PUSH2 0x33FF JUMP JUMPDEST PUSH1 0x40 DUP4 ADD MSTORE POP PUSH1 0x60 DUP3 ADD CALLDATALOAD PUSH8 0xFFFFFFFFFFFFFFFF DUP2 GT ISZERO PUSH2 0x3A72 JUMPI PUSH1 0x0 DUP1 REVERT JUMPDEST PUSH2 0x3A7E DUP5 DUP3 DUP6 ADD PUSH2 0x332D JUMP JUMPDEST PUSH1 0x60 DUP4 ADD MSTORE POP SWAP3 SWAP2 POP POP JUMP JUMPDEST PUSH1 0x0 PUSH1 0xC0 DUP3 DUP5 SUB SLT ISZERO PUSH2 0x3A9C JUMPI PUSH1 0x0 DUP1 REVERT JUMPDEST PUSH2 0x3AA6 PUSH1 0xC0 PUSH2 0x55B2 JUMP JUMPDEST SWAP1 POP PUSH1 0x0 PUSH2 0x3AB6 DUP5 DUP3 DUP6 ADD PUSH2 0x3D72 JUMP JUMPDEST PUSH1 0x0 DUP4 ADD MSTORE POP PUSH1 0x20 PUSH2 0x3ACA DUP5 DUP3 DUP6 ADD PUSH2 0x343E JUMP JUMPDEST PUSH1 0x20 DUP4 ADD MSTORE POP PUSH1 0x40 PUSH2 0x3ADE DUP5 DUP3 DUP6 ADD PUSH2 0x3D72 JUMP JUMPDEST PUSH1 0x40 DUP4 ADD MSTORE POP PUSH1 0x60 DUP3 ADD CALLDATALOAD PUSH8 0xFFFFFFFFFFFFFFFF DUP2 GT ISZERO PUSH2 0x3AFE JUMPI PUSH1 0x0 DUP1 REVERT JUMPDEST PUSH2 0x3B0A DUP5 DUP3 DUP6 ADD PUSH2 0x359E JUMP JUMPDEST PUSH1 0x60 DUP4 ADD MSTORE POP PUSH1 0x80 DUP3 ADD CALLDATALOAD PUSH8 0xFFFFFFFFFFFFFFFF DUP2 GT ISZERO PUSH2 0x3B2A JUMPI PUSH1 0x0 DUP1 REVERT JUMPDEST PUSH2 0x3B36 DUP5 DUP3 DUP6 ADD PUSH2 0x39E6 JUMP JUMPDEST PUSH1 0x80 DUP4 ADD MSTORE POP PUSH1 0xA0 DUP3 ADD CALLDATALOAD PUSH8 0xFFFFFFFFFFFFFFFF DUP2 GT ISZERO PUSH2 0x3B56 JUMPI PUSH1 0x0 DUP1 REVERT JUMPDEST PUSH2 0x3B62 DUP5 DUP3 DUP6 ADD PUSH2 0x33D5 JUMP JUMPDEST PUSH1 0xA0 DUP4 ADD MSTORE POP SWAP3 SWAP2 POP POP JUMP JUMPDEST PUSH1 0x0 PUSH2 0x160 DUP3 DUP5 SUB SLT ISZERO PUSH2 0x3B81 JUMPI PUSH1 0x0 DUP1 REVERT JUMPDEST PUSH2 0x3B8C PUSH2 0x120 PUSH2 0x55B2 JUMP JUMPDEST SWAP1 POP PUSH1 0x0 PUSH2 0x3B9C DUP5 DUP3 DUP6 ADD PUSH2 0x3D9C JUMP JUMPDEST PUSH1 0x0 DUP4 ADD MSTORE POP PUSH1 0x20 PUSH2 0x3BB0 DUP5 DUP3 DUP6 ADD PUSH2 0x38C2 JUMP JUMPDEST PUSH1 0x20 DUP4 ADD MSTORE POP PUSH1 0x60 PUSH2 0x3BC4 DUP5 DUP3 DUP6 ADD PUSH2 0x3D9C JUMP JUMPDEST PUSH1 0x40 DUP4 ADD MSTORE POP PUSH1 0x80 PUSH2 0x3BD8 DUP5 DUP3 DUP6 ADD PUSH2 0x32D9 JUMP JUMPDEST PUSH1 0x60 DUP4 ADD MSTORE POP PUSH1 0xA0 PUSH2 0x3BEC DUP5 DUP3 DUP6 ADD PUSH2 0x3D72 JUMP JUMPDEST PUSH1 0x80 DUP4 ADD MSTORE POP PUSH1 0xC0 PUSH2 0x3C00 DUP5 DUP3 DUP6 ADD PUSH2 0x3CB0 JUMP JUMPDEST PUSH1 0xA0 DUP4 ADD MSTORE POP PUSH2 0x100 PUSH2 0x3C15 DUP5 DUP3 DUP6 ADD PUSH2 0x32D9 JUMP JUMPDEST PUSH1 0xC0 DUP4 ADD MSTORE POP PUSH2 0x120 PUSH2 0x3C2A DUP5 DUP3 DUP6 ADD PUSH2 0x32D9 JUMP JUMPDEST PUSH1 0xE0 DUP4 ADD MSTORE POP PUSH2 0x140 PUSH2 0x3C3F DUP5 DUP3 DUP6 ADD PUSH2 0x32D9 JUMP JUMPDEST PUSH2 0x100 DUP4 ADD MSTORE POP SWAP3 SWAP2 POP POP JUMP JUMPDEST PUSH1 0x0 PUSH1 0x40 DUP3 DUP5 SUB SLT ISZERO PUSH2 0x3C5E JUMPI PUSH1 0x0 DUP1 REVERT JUMPDEST PUSH2 0x3C68 PUSH1 0x40 PUSH2 0x55B2 JUMP JUMPDEST SWAP1 POP PUSH1 0x0 PUSH2 0x3C78 DUP5 DUP3 DUP6 ADD PUSH2 0x3DF0 JUMP JUMPDEST PUSH1 0x0 DUP4 ADD MSTORE POP PUSH1 0x20 DUP3 ADD CALLDATALOAD PUSH8 0xFFFFFFFFFFFFFFFF DUP2 GT ISZERO PUSH2 0x3C98 JUMPI PUSH1 0x0 DUP1 REVERT JUMPDEST PUSH2 0x3CA4 DUP5 DUP3 DUP6 ADD PUSH2 0x395A JUMP JUMPDEST PUSH1 0x20 DUP4 ADD MSTORE POP SWAP3 SWAP2 POP POP JUMP JUMPDEST PUSH1 0x0 PUSH1 0x40 DUP3 DUP5 SUB SLT ISZERO PUSH2 0x3CC2 JUMPI PUSH1 0x0 DUP1 REVERT JUMPDEST PUSH2 0x3CCC PUSH1 0x40 PUSH2 0x55B2 JUMP JUMPDEST SWAP1 POP PUSH1 0x0 PUSH2 0x3CDC DUP5 DUP3 DUP6 ADD PUSH2 0x3DF0 JUMP JUMPDEST PUSH1 0x0 DUP4 ADD MSTORE POP PUSH1 0x20 PUSH2 0x3CF0 DUP5 DUP3 DUP6 ADD PUSH2 0x32D9 JUMP JUMPDEST PUSH1 0x20 DUP4 ADD MSTORE POP SWAP3 SWAP2 POP POP JUMP JUMPDEST PUSH1 0x0 PUSH1 0x40 DUP3 DUP5 SUB SLT ISZERO PUSH2 0x3D0E JUMPI PUSH1 0x0 DUP1 REVERT JUMPDEST PUSH2 0x3D18 PUSH1 0x40 PUSH2 0x55B2 JUMP JUMPDEST SWAP1 POP PUSH1 0x0 PUSH2 0x3D28 DUP5 DUP3 DUP6 ADD PUSH2 0x3E05 JUMP JUMPDEST PUSH1 0x0 DUP4 ADD MSTORE POP PUSH1 0x20 PUSH2 0x3D3C DUP5 DUP3 DUP6 ADD PUSH2 0x32EE JUMP JUMPDEST PUSH1 0x20 DUP4 ADD MSTORE POP SWAP3 SWAP2 POP POP JUMP JUMPDEST PUSH1 0x0 DUP2 CALLDATALOAD SWAP1 POP PUSH2 0x3D57 DUP2 PUSH2 0x5BCC JUMP JUMPDEST SWAP3 SWAP2 POP POP JUMP JUMPDEST PUSH1 0x0 DUP2 MLOAD SWAP1 POP PUSH2 0x3D6C DUP2 PUSH2 0x5BCC JUMP JUMPDEST SWAP3 SWAP2 POP POP JUMP JUMPDEST PUSH1 0x0 DUP2 CALLDATALOAD SWAP1 POP PUSH2 0x3D81 DUP2 PUSH2 0x5BE3 JUMP JUMPDEST SWAP3 SWAP2 POP POP JUMP JUMPDEST PUSH1 0x0 DUP2 MLOAD SWAP1 POP PUSH2 0x3D96 DUP2 PUSH2 0x5BE3 JUMP JUMPDEST SWAP3 SWAP2 POP POP JUMP JUMPDEST PUSH1 0x0 DUP2 CALLDATALOAD SWAP1 POP PUSH2 0x3DAB DUP2 PUSH2 0x5BFA JUMP JUMPDEST SWAP3 SWAP2 POP POP JUMP JUMPDEST PUSH1 0x0 DUP2 MLOAD SWAP1 POP PUSH2 0x3DC0 DUP2 PUSH2 0x5BFA JUMP JUMPDEST SWAP3 SWAP2 POP POP JUMP JUMPDEST PUSH1 0x0 DUP2 CALLDATALOAD SWAP1 POP PUSH2 0x3DD5 DUP2 PUSH2 0x5C11 JUMP JUMPDEST SWAP3 SWAP2 POP POP JUMP JUMPDEST PUSH1 0x0 DUP2 MLOAD SWAP1 POP PUSH2 0x3DEA DUP2 PUSH2 0x5C11 JUMP JUMPDEST SWAP3 SWAP2 POP POP JUMP JUMPDEST PUSH1 0x0 DUP2 CALLDATALOAD SWAP1 POP PUSH2 0x3DFF DUP2 PUSH2 0x5C28 JUMP JUMPDEST SWAP3 SWAP2 POP POP JUMP JUMPDEST PUSH1 0x0 DUP2 MLOAD SWAP1 POP PUSH2 0x3E14 DUP2 PUSH2 0x5C28 JUMP JUMPDEST SWAP3 SWAP2 POP POP JUMP JUMPDEST PUSH1 0x0 PUSH1 0x20 DUP3 DUP5 SUB SLT ISZERO PUSH2 0x3E2C JUMPI PUSH1 0x0 DUP1 REVERT JUMPDEST PUSH1 0x0 PUSH2 0x3E3A DUP5 DUP3 DUP6 ADD PUSH2 0x32D9 JUMP JUMPDEST SWAP2 POP POP SWAP3 SWAP2 POP POP JUMP JUMPDEST PUSH1 0x0 PUSH1 0x20 DUP3 DUP5 SUB SLT ISZERO PUSH2 0x3E55 JUMPI PUSH1 0x0 DUP1 REVERT JUMPDEST PUSH1 0x0 PUSH2 0x3E63 DUP5 DUP3 DUP6 ADD PUSH2 0x32EE JUMP JUMPDEST SWAP2 POP POP SWAP3 SWAP2 POP POP JUMP JUMPDEST PUSH1 0x0 PUSH1 0x20 DUP3 DUP5 SUB SLT ISZERO PUSH2 0x3E7E JUMPI PUSH1 0x0 DUP1 REVERT JUMPDEST PUSH1 0x0 DUP3 ADD CALLDATALOAD PUSH8 0xFFFFFFFFFFFFFFFF DUP2 GT ISZERO PUSH2 0x3E98 JUMPI PUSH1 0x0 DUP1 REVERT JUMPDEST PUSH2 0x3EA4 DUP5 DUP3 DUP6 ADD PUSH2 0x33AB JUMP JUMPDEST SWAP2 POP POP SWAP3 SWAP2 POP POP JUMP JUMPDEST PUSH1 0x0 PUSH1 0x20 DUP3 DUP5 SUB SLT ISZERO PUSH2 0x3EBF JUMPI PUSH1 0x0 DUP1 REVERT JUMPDEST PUSH1 0x0 PUSH2 0x3ECD DUP5 DUP3 DUP6 ADD PUSH2 0x3429 JUMP JUMPDEST SWAP2 POP POP SWAP3 SWAP2 POP POP JUMP JUMPDEST PUSH1 0x0 PUSH1 0x20 DUP3 DUP5 SUB SLT ISZERO PUSH2 0x3EE8 JUMPI PUSH1 0x0 DUP1 REVERT JUMPDEST PUSH1 0x0 PUSH2 0x3EF6 DUP5 DUP3 DUP6 ADD PUSH2 0x343E JUMP JUMPDEST SWAP2 POP POP SWAP3 SWAP2 POP POP JUMP JUMPDEST PUSH1 0x0 PUSH1 0x20 DUP3 DUP5 SUB SLT ISZERO PUSH2 0x3F11 JUMPI PUSH1 0x0 DUP1 REVERT JUMPDEST PUSH1 0x0 DUP3 ADD MLOAD PUSH8 0xFFFFFFFFFFFFFFFF DUP2 GT ISZERO PUSH2 0x3F2B JUMPI PUSH1 0x0 DUP1 REVERT JUMPDEST PUSH2 0x3F37 DUP5 DUP3 DUP6 ADD PUSH2 0x3492 JUMP JUMPDEST SWAP2 POP POP SWAP3 SWAP2 POP POP JUMP JUMPDEST PUSH1 0x0 PUSH1 0x20 DUP3 DUP5 SUB SLT ISZERO PUSH2 0x3F52 JUMPI PUSH1 0x0 DUP1 REVERT JUMPDEST PUSH1 0x0 DUP3 ADD MLOAD PUSH8 0xFFFFFFFFFFFFFFFF DUP2 GT ISZERO PUSH2 0x3F6C JUMPI PUSH1 0x0 DUP1 REVERT JUMPDEST PUSH2 0x3F78 DUP5 DUP3 DUP6 ADD PUSH2 0x3730 JUMP JUMPDEST SWAP2 POP POP SWAP3 SWAP2 POP POP JUMP JUMPDEST PUSH1 0x0 PUSH1 0x20 DUP3 DUP5 SUB SLT ISZERO PUSH2 0x3F93 JUMPI PUSH1 0x0 DUP1 REVERT JUMPDEST PUSH1 0x0 DUP3 ADD CALLDATALOAD PUSH8 0xFFFFFFFFFFFFFFFF DUP2 GT ISZERO PUSH2 0x3FAD JUMPI PUSH1 0x0 DUP1 REVERT JUMPDEST PUSH2 0x3FB9 DUP5 DUP3 DUP6 ADD PUSH2 0x3A8A JUMP JUMPDEST SWAP2 POP POP SWAP3 SWAP2 POP POP JUMP JUMPDEST PUSH1 0x0 PUSH2 0x160 DUP3 DUP5 SUB SLT ISZERO PUSH2 0x3FD5 JUMPI PUSH1 0x0 DUP1 REVERT JUMPDEST PUSH1 0x0 PUSH2 0x3FE3 DUP5 DUP3 DUP6 ADD PUSH2 0x3B6E JUMP JUMPDEST SWAP2 POP POP SWAP3 SWAP2 POP POP JUMP JUMPDEST PUSH1 0x0 PUSH1 0x20 DUP3 DUP5 SUB SLT ISZERO PUSH2 0x3FFE JUMPI PUSH1 0x0 DUP1 REVERT JUMPDEST PUSH1 0x0 PUSH2 0x400C DUP5 DUP3 DUP6 ADD PUSH2 0x3D72 JUMP JUMPDEST SWAP2 POP POP SWAP3 SWAP2 POP POP JUMP JUMPDEST PUSH1 0x0 PUSH1 0x20 DUP3 DUP5 SUB SLT ISZERO PUSH2 0x4027 JUMPI PUSH1 0x0 DUP1 REVERT JUMPDEST PUSH1 0x0 PUSH2 0x4035 DUP5 DUP3 DUP6 ADD PUSH2 0x3D87 JUMP JUMPDEST SWAP2 POP POP SWAP3 SWAP2 POP POP JUMP JUMPDEST PUSH1 0x0 DUP1 PUSH1 0x40 DUP4 DUP6 SUB SLT ISZERO PUSH2 0x4051 JUMPI PUSH1 0x0 DUP1 REVERT JUMPDEST PUSH1 0x0 PUSH2 0x405F DUP6 DUP3 DUP7 ADD PUSH2 0x3D72 JUMP JUMPDEST SWAP3 POP POP PUSH1 0x20 PUSH2 0x4070 DUP6 DUP3 DUP7 ADD PUSH2 0x3D72 JUMP JUMPDEST SWAP2 POP POP SWAP3 POP SWAP3 SWAP1 POP JUMP JUMPDEST PUSH1 0x0 PUSH2 0x4086 DUP4 DUP4 PUSH2 0x442A JUMP JUMPDEST PUSH1 0x20 DUP4 ADD SWAP1 POP SWAP3 SWAP2 POP POP JUMP JUMPDEST PUSH1 0x0 PUSH2 0x409E DUP4 DUP4 PUSH2 0x485B JUMP JUMPDEST SWAP1 POP SWAP3 SWAP2 POP POP JUMP JUMPDEST PUSH1 0x0 PUSH2 0x40B2 DUP4 DUP4 PUSH2 0x4B50 JUMP JUMPDEST PUSH1 0x40 DUP4 ADD SWAP1 POP SWAP3 SWAP2 POP POP JUMP JUMPDEST PUSH1 0x0 PUSH2 0x40CA DUP4 DUP4 PUSH2 0x4D52 JUMP JUMPDEST SWAP1 POP SWAP3 SWAP2 POP POP JUMP JUMPDEST PUSH1 0x0 PUSH2 0x40DE DUP4 DUP4 PUSH2 0x4E18 JUMP JUMPDEST PUSH2 0x160 DUP4 ADD SWAP1 POP SWAP3 SWAP2 POP POP JUMP JUMPDEST PUSH1 0x0 PUSH2 0x40F7 DUP4 DUP4 PUSH2 0x4ED1 JUMP JUMPDEST PUSH2 0x160 DUP4 ADD SWAP1 POP SWAP3 SWAP2 POP POP JUMP JUMPDEST PUSH1 0x0 PUSH2 0x4110 DUP4 DUP4 PUSH2 0x4FCF JUMP JUMPDEST SWAP1 POP SWAP3 SWAP2 POP POP JUMP JUMPDEST PUSH2 0x4121 DUP2 PUSH2 0x59F1 JUMP JUMPDEST DUP3 MSTORE POP POP JUMP JUMPDEST PUSH2 0x4130 DUP2 PUSH2 0x5953 JUMP JUMPDEST DUP3 MSTORE POP POP JUMP JUMPDEST PUSH2 0x413F DUP2 PUSH2 0x5953 JUMP JUMPDEST DUP3 MSTORE POP POP JUMP JUMPDEST PUSH1 0x0 PUSH2 0x4150 DUP3 PUSH2 0x5790 JUMP JUMPDEST PUSH2 0x415A DUP2 DUP6 PUSH2 0x5843 JUMP JUMPDEST SWAP4 POP PUSH2 0x4165 DUP4 PUSH2 0x571B JUMP JUMPDEST DUP1 PUSH1 0x0 JUMPDEST DUP4 DUP2 LT ISZERO PUSH2 0x4196 JUMPI DUP2 MLOAD PUSH2 0x417D DUP9 DUP3 PUSH2 0x407A JUMP JUMPDEST SWAP8 POP PUSH2 0x4188 DUP4 PUSH2 0x57E8 JUMP JUMPDEST SWAP3 POP POP PUSH1 0x1 DUP2 ADD SWAP1 POP PUSH2 0x4169 JUMP JUMPDEST POP DUP6 SWAP4 POP POP POP POP SWAP3 SWAP2 POP POP JUMP JUMPDEST PUSH1 0x0 PUSH2 0x41AE DUP3 PUSH2 0x579B JUMP JUMPDEST PUSH2 0x41B8 DUP2 DUP6 PUSH2 0x5854 JUMP JUMPDEST SWAP4 POP DUP4 PUSH1 0x20 DUP3 MUL DUP6 ADD PUSH2 0x41CA DUP6 PUSH2 0x572B JUMP JUMPDEST DUP1 PUSH1 0x0 JUMPDEST DUP6 DUP2 LT ISZERO PUSH2 0x4206 JUMPI DUP5 DUP5 SUB DUP10 MSTORE DUP2 MLOAD PUSH2 0x41E7 DUP6 DUP3 PUSH2 0x4092 JUMP JUMPDEST SWAP5 POP PUSH2 0x41F2 DUP4 PUSH2 0x57F5 JUMP JUMPDEST SWAP3 POP PUSH1 0x20 DUP11 ADD SWAP10 POP POP PUSH1 0x1 DUP2 ADD SWAP1 POP PUSH2 0x41CE JUMP JUMPDEST POP DUP3 SWAP8 POP DUP8 SWAP6 POP POP POP POP POP POP SWAP3 SWAP2 POP POP JUMP JUMPDEST PUSH1 0x0 PUSH2 0x4223 DUP3 PUSH2 0x57A6 JUMP JUMPDEST PUSH2 0x422D DUP2 DUP6 PUSH2 0x5865 JUMP JUMPDEST SWAP4 POP PUSH2 0x4238 DUP4 PUSH2 0x573B JUMP JUMPDEST DUP1 PUSH1 0x0 JUMPDEST DUP4 DUP2 LT ISZERO PUSH2 0x4269 JUMPI DUP2 MLOAD PUSH2 0x4250 DUP9 DUP3 PUSH2 0x40A6 JUMP JUMPDEST SWAP8 POP PUSH2 0x425B DUP4 PUSH2 0x5802 JUMP JUMPDEST SWAP3 POP POP PUSH1 0x1 DUP2 ADD SWAP1 POP PUSH2 0x423C JUMP JUMPDEST POP DUP6 SWAP4 POP POP POP POP SWAP3 SWAP2 POP POP JUMP JUMPDEST PUSH1 0x0 PUSH2 0x4281 DUP3 PUSH2 0x57B1 JUMP JUMPDEST PUSH2 0x428B DUP2 DUP6 PUSH2 0x5876 JUMP JUMPDEST SWAP4 POP DUP4 PUSH1 0x20 DUP3 MUL DUP6 ADD PUSH2 0x429D DUP6 PUSH2 0x574B JUMP JUMPDEST DUP1 PUSH1 0x0 JUMPDEST DUP6 DUP2 LT ISZERO PUSH2 0x42D9 JUMPI DUP5 DUP5 SUB DUP10 MSTORE DUP2 MLOAD PUSH2 0x42BA DUP6 DUP3 PUSH2 0x40BE JUMP JUMPDEST SWAP5 POP PUSH2 0x42C5 DUP4 PUSH2 0x580F JUMP JUMPDEST SWAP3 POP PUSH1 0x20 DUP11 ADD SWAP10 POP POP PUSH1 0x1 DUP2 ADD SWAP1 POP PUSH2 0x42A1 JUMP JUMPDEST POP DUP3 SWAP8 POP DUP8 SWAP6 POP POP POP POP POP POP SWAP3 SWAP2 POP POP JUMP JUMPDEST PUSH1 0x0 PUSH2 0x42F6 DUP3 PUSH2 0x57BC JUMP JUMPDEST PUSH2 0x4300 DUP2 DUP6 PUSH2 0x5887 JUMP JUMPDEST SWAP4 POP PUSH2 0x430B DUP4 PUSH2 0x575B JUMP JUMPDEST DUP1 PUSH1 0x0 JUMPDEST DUP4 DUP2 LT ISZERO PUSH2 0x433C JUMPI DUP2 MLOAD PUSH2 0x4323 DUP9 DUP3 PUSH2 0x40D2 JUMP JUMPDEST SWAP8 POP PUSH2 0x432E DUP4 PUSH2 0x581C JUMP JUMPDEST SWAP3 POP POP PUSH1 0x1 DUP2 ADD SWAP1 POP PUSH2 0x430F JUMP JUMPDEST POP DUP6 SWAP4 POP POP POP POP SWAP3 SWAP2 POP POP JUMP JUMPDEST PUSH1 0x0 PUSH2 0x4354 DUP3 PUSH2 0x57C7 JUMP JUMPDEST PUSH2 0x435E DUP2 DUP6 PUSH2 0x5898 JUMP JUMPDEST SWAP4 POP PUSH2 0x4369 DUP4 PUSH2 0x576B JUMP JUMPDEST DUP1 PUSH1 0x0 JUMPDEST DUP4 DUP2 LT ISZERO PUSH2 0x4399 JUMPI DUP2 PUSH2 0x4380 DUP9 DUP3 PUSH2 0x40EB JUMP JUMPDEST SWAP8 POP PUSH2 0x438B DUP4 PUSH2 0x5829 JUMP JUMPDEST SWAP3 POP POP PUSH1 0x1 DUP2 ADD SWAP1 POP PUSH2 0x436D JUMP JUMPDEST POP DUP6 SWAP4 POP POP POP POP SWAP3 SWAP2 POP POP JUMP JUMPDEST PUSH1 0x0 PUSH2 0x43B1 DUP3 PUSH2 0x57D2 JUMP JUMPDEST PUSH2 0x43BB DUP2 DUP6 PUSH2 0x58A9 JUMP JUMPDEST SWAP4 POP DUP4 PUSH1 0x20 DUP3 MUL DUP6 ADD PUSH2 0x43CD DUP6 PUSH2 0x5780 JUMP JUMPDEST DUP1 PUSH1 0x0 JUMPDEST DUP6 DUP2 LT ISZERO PUSH2 0x4409 JUMPI DUP5 DUP5 SUB DUP10 MSTORE DUP2 MLOAD PUSH2 0x43EA DUP6 DUP3 PUSH2 0x4104 JUMP JUMPDEST SWAP5 POP PUSH2 0x43F5 DUP4 PUSH2 0x5836 JUMP JUMPDEST SWAP3 POP PUSH1 0x20 DUP11 ADD SWAP10 POP POP PUSH1 0x1 DUP2 ADD SWAP1 POP PUSH2 0x43D1 JUMP JUMPDEST POP DUP3 SWAP8 POP DUP8 SWAP6 POP POP POP POP POP POP SWAP3 SWAP2 POP POP JUMP JUMPDEST PUSH2 0x4424 DUP2 PUSH2 0x5965 JUMP JUMPDEST DUP3 MSTORE POP POP JUMP JUMPDEST PUSH2 0x4433 DUP2 PUSH2 0x5971 JUMP JUMPDEST DUP3 MSTORE POP POP JUMP JUMPDEST PUSH2 0x4442 DUP2 PUSH2 0x5971 JUMP JUMPDEST DUP3 MSTORE POP POP JUMP JUMPDEST PUSH2 0x4459 PUSH2 0x4454 DUP3 PUSH2 0x5971 JUMP JUMPDEST PUSH2 0x5B1F JUMP JUMPDEST DUP3 MSTORE POP POP JUMP JUMPDEST PUSH1 0x0 PUSH2 0x446A DUP3 PUSH2 0x57DD JUMP JUMPDEST PUSH2 0x4474 DUP2 DUP6 PUSH2 0x58BA JUMP JUMPDEST SWAP4 POP PUSH2 0x4484 DUP2 DUP6 PUSH1 0x20 DUP7 ADD PUSH2 0x5A36 JUMP JUMPDEST PUSH2 0x448D DUP2 PUSH2 0x5B2B JUMP JUMPDEST DUP5 ADD SWAP2 POP POP SWAP3 SWAP2 POP POP JUMP JUMPDEST PUSH1 0x0 PUSH2 0x44A3 DUP3 PUSH2 0x57DD JUMP JUMPDEST PUSH2 0x44AD DUP2 DUP6 PUSH2 0x58CB JUMP JUMPDEST SWAP4 POP PUSH2 0x44BD DUP2 DUP6 PUSH1 0x20 DUP7 ADD PUSH2 0x5A36 JUMP JUMPDEST PUSH2 0x44C6 DUP2 PUSH2 0x5B2B JUMP JUMPDEST DUP5 ADD SWAP2 POP POP SWAP3 SWAP2 POP POP JUMP JUMPDEST PUSH1 0x0 PUSH2 0x44DC DUP3 PUSH2 0x57DD JUMP JUMPDEST PUSH2 0x44E6 DUP2 DUP6 PUSH2 0x58DC JUMP JUMPDEST SWAP4 POP PUSH2 0x44F6 DUP2 DUP6 PUSH1 0x20 DUP7 ADD PUSH2 0x5A36 JUMP JUMPDEST DUP1 DUP5 ADD SWAP2 POP POP SWAP3 SWAP2 POP POP JUMP JUMPDEST PUSH2 0x450B DUP2 PUSH2 0x597B JUMP JUMPDEST DUP3 MSTORE POP POP JUMP JUMPDEST PUSH1 0x0 PUSH2 0x451E PUSH1 0x3B DUP4 PUSH2 0x58E7 JUMP JUMPDEST SWAP2 POP PUSH32 0x427269646765206973206E6F742079657420617661696C61626C65206F6E6C79 PUSH1 0x0 DUP4 ADD MSTORE PUSH32 0x2056657275732063616E206265207573656420666F7220666565730000000000 PUSH1 0x20 DUP4 ADD MSTORE PUSH1 0x40 DUP3 ADD SWAP1 POP SWAP2 SWAP1 POP JUMP JUMPDEST PUSH1 0x0 PUSH2 0x4584 PUSH1 0x1C DUP4 PUSH2 0x58E7 JUMP JUMPDEST SWAP2 POP PUSH32 0x436F6E747261637420686173206265656E206465707265636174656400000000 PUSH1 0x0 DUP4 ADD MSTORE PUSH1 0x20 DUP3 ADD SWAP1 POP SWAP2 SWAP1 POP JUMP JUMPDEST PUSH1 0x0 PUSH2 0x45C4 PUSH1 0x1B DUP4 PUSH2 0x58E7 JUMP JUMPDEST SWAP2 POP PUSH32 0x5472616E7366657220686173206265656E2070726F6365737365640000000000 PUSH1 0x0 DUP4 ADD MSTORE PUSH1 0x20 DUP3 ADD SWAP1 POP SWAP2 SWAP1 POP JUMP JUMPDEST PUSH1 0x0 PUSH2 0x4604 PUSH1 0x34 DUP4 PUSH2 0x58E7 JUMP JUMPDEST SWAP2 POP PUSH32 0x5472616E736665727320646F206E6F742070726F766520616761696E73742074 PUSH1 0x0 DUP4 ADD MSTORE PUSH32 0x6865206C617374206E6F746172697A6174696F6E000000000000000000000000 PUSH1 0x20 DUP4 ADD MSTORE PUSH1 0x40 DUP3 ADD SWAP1 POP SWAP2 SWAP1 POP JUMP JUMPDEST PUSH1 0x0 PUSH2 0x466A PUSH1 0x29 DUP4 PUSH2 0x58E7 JUMP JUMPDEST SWAP2 POP PUSH32 0x52657175657374656420616D6F756E74206578636565647320636F6E74726163 PUSH1 0x0 DUP4 ADD MSTORE PUSH32 0x742062616C616E63650000000000000000000000000000000000000000000000 PUSH1 0x20 DUP4 ADD MSTORE PUSH1 0x40 DUP3 ADD SWAP1 POP SWAP2 SWAP1 POP JUMP JUMPDEST PUSH1 0x0 PUSH2 0x46D0 PUSH1 0x3D DUP4 PUSH2 0x58E7 JUMP JUMPDEST SWAP2 POP PUSH32 0x427269646765206973206E6F742079657420617661696C61626C652066656573 PUSH1 0x0 DUP4 ADD MSTORE PUSH32 0x2063616E6E6F7420657863656564206578697374696E6720706F6F6C2E000000 PUSH1 0x20 DUP4 ADD MSTORE PUSH1 0x40 DUP3 ADD SWAP1 POP SWAP2 SWAP1 POP JUMP JUMPDEST PUSH1 0x0 PUSH2 0x4736 PUSH1 0x1B DUP4 PUSH2 0x58E7 JUMP JUMPDEST SWAP2 POP PUSH32 0x54686520746F6B656E206973206E6F7420726567697374657265640000000000 PUSH1 0x0 DUP4 ADD MSTORE PUSH1 0x20 DUP3 ADD SWAP1 POP SWAP2 SWAP1 POP JUMP JUMPDEST PUSH1 0x0 PUSH2 0x4776 PUSH1 0x55 DUP4 PUSH2 0x58E7 JUMP JUMPDEST SWAP2 POP PUSH32 0x5468697320636F6E7472616374206D757374206861766520616E20616C6C6F77 PUSH1 0x0 DUP4 ADD MSTORE PUSH32 0x616E6365206F662067726561746572207468616E206F7220657175616C20746F PUSH1 0x20 DUP4 ADD MSTORE PUSH32 0x20746865206E756D626572206F6620746F6B656E730000000000000000000000 PUSH1 0x40 DUP4 ADD MSTORE PUSH1 0x60 DUP3 ADD SWAP1 POP SWAP2 SWAP1 POP JUMP JUMPDEST PUSH1 0x0 PUSH2 0x4802 PUSH1 0x2C DUP4 PUSH2 0x58E7 JUMP JUMPDEST SWAP2 POP PUSH32 0x506C656173652073656E642074686520617070726F707269617465207472616E PUSH1 0x0 DUP4 ADD MSTORE PUSH32 0x73616374696F6E206665652E0000000000000000000000000000000000000000 PUSH1 0x20 DUP4 ADD MSTORE PUSH1 0x40 DUP3 ADD SWAP1 POP SWAP2 SWAP1 POP JUMP JUMPDEST PUSH1 0x0 PUSH1 0xA0 DUP4 ADD PUSH1 0x0 DUP4 ADD MLOAD PUSH2 0x4873 PUSH1 0x0 DUP7 ADD DUP3 PUSH2 0x5113 JUMP JUMPDEST POP PUSH1 0x20 DUP4 ADD MLOAD PUSH2 0x4886 PUSH1 0x20 DUP7 ADD DUP3 PUSH2 0x5113 JUMP JUMPDEST POP PUSH1 0x40 DUP4 ADD MLOAD DUP5 DUP3 SUB PUSH1 0x40 DUP7 ADD MSTORE PUSH2 0x489E DUP3 DUP3 PUSH2 0x445F JUMP JUMPDEST SWAP2 POP POP PUSH1 0x60 DUP4 ADD MLOAD DUP5 DUP3 SUB PUSH1 0x60 DUP7 ADD MSTORE PUSH2 0x48B8 DUP3 DUP3 PUSH2 0x43A6 JUMP JUMPDEST SWAP2 POP POP PUSH1 0x80 DUP4 ADD MLOAD PUSH2 0x48CD PUSH1 0x80 DUP7 ADD DUP3 PUSH2 0x50D7 JUMP JUMPDEST POP DUP1 SWAP2 POP POP SWAP3 SWAP2 POP POP JUMP JUMPDEST PUSH1 0x0 PUSH2 0x1E0 DUP4 ADD PUSH1 0x0 DUP4 ADD MLOAD PUSH2 0x48F1 PUSH1 0x0 DUP7 ADD DUP3 PUSH2 0x50AA JUMP JUMPDEST POP PUSH1 0x20 DUP4 ADD MLOAD PUSH2 0x4904 PUSH1 0x20 DUP7 ADD DUP3 PUSH2 0x50AA JUMP JUMPDEST POP PUSH1 0x40 DUP4 ADD MLOAD PUSH2 0x4917 PUSH1 0x40 DUP7 ADD DUP3 PUSH2 0x4127 JUMP JUMPDEST POP PUSH1 0x60 DUP4 ADD MLOAD PUSH2 0x492A PUSH1 0x60 DUP7 ADD DUP3 PUSH2 0x50D7 JUMP JUMPDEST POP PUSH1 0x80 DUP4 ADD MLOAD PUSH2 0x493D PUSH1 0x80 DUP7 ADD DUP3 PUSH2 0x50D7 JUMP JUMPDEST POP PUSH1 0xA0 DUP4 ADD MLOAD PUSH2 0x4950 PUSH1 0xA0 DUP7 ADD DUP3 PUSH2 0x4127 JUMP JUMPDEST POP PUSH1 0xC0 DUP4 ADD MLOAD PUSH2 0x4963 PUSH1 0xC0 DUP7 ADD DUP3 PUSH2 0x4127 JUMP JUMPDEST POP PUSH1 0xE0 DUP4 ADD MLOAD PUSH2 0x4976 PUSH1 0xE0 DUP7 ADD DUP3 PUSH2 0x50D7 JUMP JUMPDEST POP PUSH2 0x100 DUP4 ADD MLOAD DUP5 DUP3 SUB PUSH2 0x100 DUP7 ADD MSTORE PUSH2 0x4990 DUP3 DUP3 PUSH2 0x4218 JUMP JUMPDEST SWAP2 POP POP PUSH2 0x120 DUP4 ADD MLOAD DUP5 DUP3 SUB PUSH2 0x120 DUP7 ADD MSTORE PUSH2 0x49AC DUP3 DUP3 PUSH2 0x4218 JUMP JUMPDEST SWAP2 POP POP PUSH2 0x140 DUP4 ADD MLOAD PUSH2 0x49C3 PUSH2 0x140 DUP7 ADD DUP3 PUSH2 0x442A JUMP JUMPDEST POP PUSH2 0x160 DUP4 ADD MLOAD DUP5 DUP3 SUB PUSH2 0x160 DUP7 ADD MSTORE PUSH2 0x49DD DUP3 DUP3 PUSH2 0x4218 JUMP JUMPDEST SWAP2 POP POP PUSH2 0x180 DUP4 ADD MLOAD PUSH2 0x49F4 PUSH2 0x180 DUP7 ADD DUP3 PUSH2 0x500C JUMP JUMPDEST POP PUSH2 0x1A0 DUP4 ADD MLOAD PUSH2 0x4A09 PUSH2 0x1C0 DUP7 ADD DUP3 PUSH2 0x4502 JUMP JUMPDEST POP DUP1 SWAP2 POP POP SWAP3 SWAP2 POP POP JUMP JUMPDEST PUSH1 0x0 PUSH2 0x1E0 DUP4 ADD PUSH1 0x0 DUP4 ADD MLOAD PUSH2 0x4A2D PUSH1 0x0 DUP7 ADD DUP3 PUSH2 0x50AA JUMP JUMPDEST POP PUSH1 0x20 DUP4 ADD MLOAD PUSH2 0x4A40 PUSH1 0x20 DUP7 ADD DUP3 PUSH2 0x50AA JUMP JUMPDEST POP PUSH1 0x40 DUP4 ADD MLOAD PUSH2 0x4A53 PUSH1 0x40 DUP7 ADD DUP3 PUSH2 0x4127 JUMP JUMPDEST POP PUSH1 0x60 DUP4 ADD MLOAD PUSH2 0x4A66 PUSH1 0x60 DUP7 ADD DUP3 PUSH2 0x50D7 JUMP JUMPDEST POP PUSH1 0x80 DUP4 ADD MLOAD PUSH2 0x4A79 PUSH1 0x80 DUP7 ADD DUP3 PUSH2 0x50D7 JUMP JUMPDEST POP PUSH1 0xA0 DUP4 ADD MLOAD PUSH2 0x4A8C PUSH1 0xA0 DUP7 ADD DUP3 PUSH2 0x4127 JUMP JUMPDEST POP PUSH1 0xC0 DUP4 ADD MLOAD PUSH2 0x4A9F PUSH1 0xC0 DUP7 ADD DUP3 PUSH2 0x4127 JUMP JUMPDEST POP PUSH1 0xE0 DUP4 ADD MLOAD PUSH2 0x4AB2 PUSH1 0xE0 DUP7 ADD DUP3 PUSH2 0x50D7 JUMP JUMPDEST POP PUSH2 0x100 DUP4 ADD MLOAD DUP5 DUP3 SUB PUSH2 0x100 DUP7 ADD MSTORE PUSH2 0x4ACC DUP3 DUP3 PUSH2 0x4218 JUMP JUMPDEST SWAP2 POP POP PUSH2 0x120 DUP4 ADD MLOAD DUP5 DUP3 SUB PUSH2 0x120 DUP7 ADD MSTORE PUSH2 0x4AE8 DUP3 DUP3 PUSH2 0x4218 JUMP JUMPDEST SWAP2 POP POP PUSH2 0x140 DUP4 ADD MLOAD PUSH2 0x4AFF PUSH2 0x140 DUP7 ADD DUP3 PUSH2 0x442A JUMP JUMPDEST POP PUSH2 0x160 DUP4 ADD MLOAD DUP5 DUP3 SUB PUSH2 0x160 DUP7 ADD MSTORE PUSH2 0x4B19 DUP3 DUP3 PUSH2 0x4218 JUMP JUMPDEST SWAP2 POP POP PUSH2 0x180 DUP4 ADD MLOAD PUSH2 0x4B30 PUSH2 0x180 DUP7 ADD DUP3 PUSH2 0x500C JUMP JUMPDEST POP PUSH2 0x1A0 DUP4 ADD MLOAD PUSH2 0x4B45 PUSH2 0x1C0 DUP7 ADD DUP3 PUSH2 0x4502 JUMP JUMPDEST POP DUP1 SWAP2 POP POP SWAP3 SWAP2 POP POP JUMP JUMPDEST PUSH1 0x40 DUP3 ADD PUSH1 0x0 DUP3 ADD MLOAD PUSH2 0x4B66 PUSH1 0x0 DUP6 ADD DUP3 PUSH2 0x4127 JUMP JUMPDEST POP PUSH1 0x20 DUP3 ADD MLOAD PUSH2 0x4B79 PUSH1 0x20 DUP6 ADD DUP3 PUSH2 0x50F5 JUMP JUMPDEST POP POP POP POP JUMP JUMPDEST PUSH1 0x40 DUP3 ADD PUSH1 0x0 DUP3 ADD MLOAD PUSH2 0x4B95 PUSH1 0x0 DUP6 ADD DUP3 PUSH2 0x4127 JUMP JUMPDEST POP PUSH1 0x20 DUP3 ADD MLOAD PUSH2 0x4BA8 PUSH1 0x20 DUP6 ADD DUP3 PUSH2 0x50F5 JUMP JUMPDEST POP POP POP POP JUMP JUMPDEST PUSH1 0x40 DUP3 ADD PUSH1 0x0 DUP1 DUP4 ADD SLOAD SWAP1 POP PUSH2 0x4BC3 DUP2 PUSH2 0x5A69 JUMP JUMPDEST PUSH2 0x4BD0 PUSH1 0x0 DUP7 ADD DUP3 PUSH2 0x4127 JUMP JUMPDEST POP PUSH2 0x4BDA DUP2 PUSH2 0x5AEB JUMP JUMPDEST PUSH2 0x4BE7 PUSH1 0x20 DUP7 ADD DUP3 PUSH2 0x50F5 JUMP JUMPDEST POP POP POP POP POP JUMP JUMPDEST PUSH1 0x0 PUSH1 0x80 DUP4 ADD PUSH1 0x0 DUP4 ADD MLOAD PUSH2 0x4C06 PUSH1 0x0 DUP7 ADD DUP3 PUSH2 0x5113 JUMP JUMPDEST POP PUSH1 0x20 DUP4 ADD MLOAD PUSH2 0x4C19 PUSH1 0x20 DUP7 ADD DUP3 PUSH2 0x50D7 JUMP JUMPDEST POP PUSH1 0x40 DUP4 ADD MLOAD PUSH2 0x4C2C PUSH1 0x40 DUP7 ADD DUP3 PUSH2 0x50D7 JUMP JUMPDEST POP PUSH1 0x60 DUP4 ADD MLOAD DUP5 DUP3 SUB PUSH1 0x60 DUP7 ADD MSTORE PUSH2 0x4C44 DUP3 DUP3 PUSH2 0x4145 JUMP JUMPDEST SWAP2 POP POP DUP1 SWAP2 POP POP SWAP3 SWAP2 POP POP JUMP JUMPDEST PUSH1 0x0 PUSH1 0x80 DUP4 ADD PUSH1 0x0 DUP4 ADD MLOAD PUSH2 0x4C69 PUSH1 0x0 DUP7 ADD DUP3 PUSH2 0x5113 JUMP JUMPDEST POP PUSH1 0x20 DUP4 ADD MLOAD PUSH2 0x4C7C PUSH1 0x20 DUP7 ADD DUP3 PUSH2 0x5113 JUMP JUMPDEST POP PUSH1 0x40 DUP4 ADD MLOAD DUP5 DUP3 SUB PUSH1 0x40 DUP7 ADD MSTORE PUSH2 0x4C94 DUP3 DUP3 PUSH2 0x43A6 JUMP JUMPDEST SWAP2 POP POP PUSH1 0x60 DUP4 ADD MLOAD DUP5 DUP3 SUB PUSH1 0x60 DUP7 ADD MSTORE PUSH2 0x4CAE DUP3 DUP3 PUSH2 0x41A3 JUMP JUMPDEST SWAP2 POP POP DUP1 SWAP2 POP POP SWAP3 SWAP2 POP POP JUMP JUMPDEST PUSH1 0x0 PUSH1 0xC0 DUP4 ADD PUSH1 0x0 DUP4 ADD MLOAD PUSH2 0x4CD3 PUSH1 0x0 DUP7 ADD DUP3 PUSH2 0x50B9 JUMP JUMPDEST POP PUSH1 0x20 DUP4 ADD MLOAD PUSH2 0x4CE6 PUSH1 0x20 DUP7 ADD DUP3 PUSH2 0x442A JUMP JUMPDEST POP PUSH1 0x40 DUP4 ADD MLOAD PUSH2 0x4CF9 PUSH1 0x40 DUP7 ADD DUP3 PUSH2 0x50B9 JUMP JUMPDEST POP PUSH1 0x60 DUP4 ADD MLOAD DUP5 DUP3 SUB PUSH1 0x60 DUP7 ADD MSTORE PUSH2 0x4D11 DUP3 DUP3 PUSH2 0x48D8 JUMP JUMPDEST SWAP2 POP POP PUSH1 0x80 DUP4 ADD MLOAD DUP5 DUP3 SUB PUSH1 0x80 DUP7 ADD MSTORE PUSH2 0x4D2B DUP3 DUP3 PUSH2 0x4C51 JUMP JUMPDEST SWAP2 POP POP PUSH1 0xA0 DUP4 ADD MLOAD DUP5 DUP3 SUB PUSH1 0xA0 DUP7 ADD MSTORE PUSH2 0x4D45 DUP3 DUP3 PUSH2 0x42EB JUMP JUMPDEST SWAP2 POP POP DUP1 SWAP2 POP POP SWAP3 SWAP2 POP POP JUMP JUMPDEST PUSH1 0x0 PUSH1 0x80 DUP4 ADD PUSH1 0x0 DUP4 ADD MLOAD PUSH2 0x4D6A PUSH1 0x0 DUP7 ADD DUP3 PUSH2 0x50B9 JUMP JUMPDEST POP PUSH1 0x20 DUP4 ADD MLOAD PUSH2 0x4D7D PUSH1 0x20 DUP7 ADD DUP3 PUSH2 0x50B9 JUMP JUMPDEST POP PUSH1 0x40 DUP4 ADD MLOAD PUSH2 0x4D90 PUSH1 0x40 DUP7 ADD DUP3 PUSH2 0x442A JUMP JUMPDEST POP PUSH1 0x60 DUP4 ADD MLOAD DUP5 DUP3 SUB PUSH1 0x60 DUP7 ADD MSTORE PUSH2 0x4DA8 DUP3 DUP3 PUSH2 0x42EB JUMP JUMPDEST SWAP2 POP POP DUP1 SWAP2 POP POP SWAP3 SWAP2 POP POP JUMP JUMPDEST PUSH1 0x0 PUSH1 0x80 DUP4 ADD PUSH1 0x0 DUP4 ADD MLOAD PUSH2 0x4DCD PUSH1 0x0 DUP7 ADD DUP3 PUSH2 0x50B9 JUMP JUMPDEST POP PUSH1 0x20 DUP4 ADD MLOAD PUSH2 0x4DE0 PUSH1 0x20 DUP7 ADD DUP3 PUSH2 0x50B9 JUMP JUMPDEST POP PUSH1 0x40 DUP4 ADD MLOAD PUSH2 0x4DF3 PUSH1 0x40 DUP7 ADD DUP3 PUSH2 0x442A JUMP JUMPDEST POP PUSH1 0x60 DUP4 ADD MLOAD DUP5 DUP3 SUB PUSH1 0x60 DUP7 ADD MSTORE PUSH2 0x4E0B DUP3 DUP3 PUSH2 0x42EB JUMP JUMPDEST SWAP2 POP POP DUP1 SWAP2 POP POP SWAP3 SWAP2 POP POP JUMP JUMPDEST PUSH2 0x160 DUP3 ADD PUSH1 0x0 DUP3 ADD MLOAD PUSH2 0x4E2F PUSH1 0x0 DUP6 ADD DUP3 PUSH2 0x50D7 JUMP JUMPDEST POP PUSH1 0x20 DUP3 ADD MLOAD PUSH2 0x4E42 PUSH1 0x20 DUP6 ADD DUP3 PUSH2 0x4B50 JUMP JUMPDEST POP PUSH1 0x40 DUP3 ADD MLOAD PUSH2 0x4E55 PUSH1 0x60 DUP6 ADD DUP3 PUSH2 0x50D7 JUMP JUMPDEST POP PUSH1 0x60 DUP3 ADD MLOAD PUSH2 0x4E68 PUSH1 0x80 DUP6 ADD DUP3 PUSH2 0x4127 JUMP JUMPDEST POP PUSH1 0x80 DUP3 ADD MLOAD PUSH2 0x4E7B PUSH1 0xA0 DUP6 ADD DUP3 PUSH2 0x50B9 JUMP JUMPDEST POP PUSH1 0xA0 DUP3 ADD MLOAD PUSH2 0x4E8E PUSH1 0xC0 DUP6 ADD DUP3 PUSH2 0x500C JUMP JUMPDEST POP PUSH1 0xC0 DUP3 ADD MLOAD PUSH2 0x4EA2 PUSH2 0x100 DUP6 ADD DUP3 PUSH2 0x4127 JUMP JUMPDEST POP PUSH1 0xE0 DUP3 ADD MLOAD PUSH2 0x4EB6 PUSH2 0x120 DUP6 ADD DUP3 PUSH2 0x4127 JUMP JUMPDEST POP PUSH2 0x100 DUP3 ADD MLOAD PUSH2 0x4ECB PUSH2 0x140 DUP6 ADD DUP3 PUSH2 0x4127 JUMP JUMPDEST POP POP POP POP JUMP JUMPDEST PUSH2 0x160 DUP3 ADD PUSH1 0x0 DUP1 DUP4 ADD SLOAD SWAP1 POP PUSH2 0x4EE7 DUP2 PUSH2 0x5A9D JUMP JUMPDEST PUSH2 0x4EF4 PUSH1 0x0 DUP7 ADD DUP3 PUSH2 0x50D7 JUMP JUMPDEST POP PUSH1 0x1 DUP4 ADD PUSH2 0x4F06 PUSH1 0x20 DUP7 ADD DUP3 PUSH2 0x4BAE JUMP JUMPDEST POP PUSH1 0x2 DUP4 ADD SLOAD SWAP1 POP PUSH2 0x4F17 DUP2 PUSH2 0x5A9D JUMP JUMPDEST PUSH2 0x4F24 PUSH1 0x60 DUP7 ADD DUP3 PUSH2 0x50D7 JUMP JUMPDEST POP PUSH2 0x4F2E DUP2 PUSH2 0x5B05 JUMP JUMPDEST PUSH2 0x4F3B PUSH1 0x80 DUP7 ADD DUP3 PUSH2 0x4127 JUMP JUMPDEST POP PUSH1 0x3 DUP4 ADD SLOAD SWAP1 POP PUSH2 0x4F4C DUP2 PUSH2 0x5A83 JUMP JUMPDEST PUSH2 0x4F59 PUSH1 0xA0 DUP7 ADD DUP3 PUSH2 0x50B9 JUMP JUMPDEST POP PUSH1 0x4 DUP4 ADD PUSH2 0x4F6B PUSH1 0xC0 DUP7 ADD DUP3 PUSH2 0x506A JUMP JUMPDEST POP PUSH1 0x5 DUP4 ADD SLOAD SWAP1 POP PUSH2 0x4F7C DUP2 PUSH2 0x5A69 JUMP JUMPDEST PUSH2 0x4F8A PUSH2 0x100 DUP7 ADD DUP3 PUSH2 0x4127 JUMP JUMPDEST POP PUSH1 0x6 DUP4 ADD SLOAD SWAP1 POP PUSH2 0x4F9B DUP2 PUSH2 0x5A69 JUMP JUMPDEST PUSH2 0x4FA9 PUSH2 0x120 DUP7 ADD DUP3 PUSH2 0x4127 JUMP JUMPDEST POP PUSH1 0x7 DUP4 ADD SLOAD SWAP1 POP PUSH2 0x4FBA DUP2 PUSH2 0x5A69 JUMP JUMPDEST PUSH2 0x4FC8 PUSH2 0x140 DUP7 ADD DUP3 PUSH2 0x4127 JUMP JUMPDEST POP POP POP POP POP JUMP JUMPDEST PUSH1 0x0 PUSH1 0x40 DUP4 ADD PUSH1 0x0 DUP4 ADD MLOAD PUSH2 0x4FE7 PUSH1 0x0 DUP7 ADD DUP3 PUSH2 0x5113 JUMP JUMPDEST POP PUSH1 0x20 DUP4 ADD MLOAD DUP5 DUP3 SUB PUSH1 0x20 DUP7 ADD MSTORE PUSH2 0x4FFF DUP3 DUP3 PUSH2 0x4BEE JUMP JUMPDEST SWAP2 POP POP DUP1 SWAP2 POP POP SWAP3 SWAP2 POP POP JUMP JUMPDEST PUSH1 0x40 DUP3 ADD PUSH1 0x0 DUP3 ADD MLOAD PUSH2 0x5022 PUSH1 0x0 DUP6 ADD DUP3 PUSH2 0x5113 JUMP JUMPDEST POP PUSH1 0x20 DUP3 ADD MLOAD PUSH2 0x5035 PUSH1 0x20 DUP6 ADD DUP3 PUSH2 0x4127 JUMP JUMPDEST POP POP POP POP JUMP JUMPDEST PUSH1 0x40 DUP3 ADD PUSH1 0x0 DUP3 ADD MLOAD PUSH2 0x5051 PUSH1 0x0 DUP6 ADD DUP3 PUSH2 0x5113 JUMP JUMPDEST POP PUSH1 0x20 DUP3 ADD MLOAD PUSH2 0x5064 PUSH1 0x20 DUP6 ADD DUP3 PUSH2 0x4127 JUMP JUMPDEST POP POP POP POP JUMP JUMPDEST PUSH1 0x40 DUP3 ADD PUSH1 0x0 DUP1 DUP4 ADD SLOAD SWAP1 POP PUSH2 0x507F DUP2 PUSH2 0x5AB7 JUMP JUMPDEST PUSH2 0x508C PUSH1 0x0 DUP7 ADD DUP3 PUSH2 0x5113 JUMP JUMPDEST POP PUSH2 0x5096 DUP2 PUSH2 0x5AD1 JUMP JUMPDEST PUSH2 0x50A3 PUSH1 0x20 DUP7 ADD DUP3 PUSH2 0x4127 JUMP JUMPDEST POP POP POP POP POP JUMP JUMPDEST PUSH2 0x50B3 DUP2 PUSH2 0x5988 JUMP JUMPDEST DUP3 MSTORE POP POP JUMP JUMPDEST PUSH2 0x50C2 DUP2 PUSH2 0x59B6 JUMP JUMPDEST DUP3 MSTORE POP POP JUMP JUMPDEST PUSH2 0x50D1 DUP2 PUSH2 0x59B6 JUMP JUMPDEST DUP3 MSTORE POP POP JUMP JUMPDEST PUSH2 0x50E0 DUP2 PUSH2 0x59C0 JUMP JUMPDEST DUP3 MSTORE POP POP JUMP JUMPDEST PUSH2 0x50EF DUP2 PUSH2 0x59C0 JUMP JUMPDEST DUP3 MSTORE POP POP JUMP JUMPDEST PUSH2 0x50FE DUP2 PUSH2 0x59D0 JUMP JUMPDEST DUP3 MSTORE POP POP JUMP JUMPDEST PUSH2 0x510D DUP2 PUSH2 0x59D0 JUMP JUMPDEST DUP3 MSTORE POP POP JUMP JUMPDEST PUSH2 0x511C DUP2 PUSH2 0x59E4 JUMP JUMPDEST DUP3 MSTORE POP POP JUMP JUMPDEST PUSH1 0x0 PUSH2 0x512E DUP3 DUP6 PUSH2 0x44D1 JUMP JUMPDEST SWAP2 POP PUSH2 0x513A DUP3 DUP5 PUSH2 0x4448 JUMP JUMPDEST PUSH1 0x20 DUP3 ADD SWAP2 POP DUP2 SWAP1 POP SWAP4 SWAP3 POP POP POP JUMP JUMPDEST PUSH1 0x0 PUSH2 0x5156 DUP3 DUP6 PUSH2 0x44D1 JUMP JUMPDEST SWAP2 POP PUSH2 0x5162 DUP3 DUP5 PUSH2 0x44D1 JUMP JUMPDEST SWAP2 POP DUP2 SWAP1 POP SWAP4 SWAP3 POP POP POP JUMP JUMPDEST PUSH1 0x0 PUSH1 0x20 DUP3 ADD SWAP1 POP PUSH2 0x5183 PUSH1 0x0 DUP4 ADD DUP5 PUSH2 0x4136 JUMP JUMPDEST SWAP3 SWAP2 POP POP JUMP JUMPDEST PUSH1 0x0 PUSH1 0x40 DUP3 ADD SWAP1 POP PUSH2 0x519E PUSH1 0x0 DUP4 ADD DUP6 PUSH2 0x4118 JUMP JUMPDEST PUSH2 0x51AB PUSH1 0x20 DUP4 ADD DUP5 PUSH2 0x4136 JUMP JUMPDEST SWAP4 SWAP3 POP POP POP JUMP JUMPDEST PUSH1 0x0 PUSH1 0x60 DUP3 ADD SWAP1 POP PUSH2 0x51C7 PUSH1 0x0 DUP4 ADD DUP7 PUSH2 0x4118 JUMP JUMPDEST PUSH2 0x51D4 PUSH1 0x20 DUP4 ADD DUP6 PUSH2 0x4136 JUMP JUMPDEST PUSH2 0x51E1 PUSH1 0x40 DUP4 ADD DUP5 PUSH2 0x50C8 JUMP JUMPDEST SWAP5 SWAP4 POP POP POP POP JUMP JUMPDEST PUSH1 0x0 PUSH1 0x40 DUP3 ADD SWAP1 POP PUSH2 0x51FE PUSH1 0x0 DUP4 ADD DUP6 PUSH2 0x4136 JUMP JUMPDEST PUSH2 0x520B PUSH1 0x20 DUP4 ADD DUP5 PUSH2 0x50C8 JUMP JUMPDEST SWAP4 SWAP3 POP POP POP JUMP JUMPDEST PUSH1 0x0 PUSH1 0x60 DUP3 ADD SWAP1 POP PUSH2 0x5227 PUSH1 0x0 DUP4 ADD DUP7 PUSH2 0x4136 JUMP JUMPDEST PUSH2 0x5234 PUSH1 0x20 DUP4 ADD DUP6 PUSH2 0x50C8 JUMP JUMPDEST PUSH2 0x5241 PUSH1 0x40 DUP4 ADD DUP5 PUSH2 0x4136 JUMP JUMPDEST SWAP5 SWAP4 POP POP POP POP JUMP JUMPDEST PUSH1 0x0 PUSH1 0x20 DUP3 ADD SWAP1 POP DUP2 DUP2 SUB PUSH1 0x0 DUP4 ADD MSTORE PUSH2 0x5263 DUP2 DUP5 PUSH2 0x4276 JUMP JUMPDEST SWAP1 POP SWAP3 SWAP2 POP POP JUMP JUMPDEST PUSH1 0x0 PUSH1 0x20 DUP3 ADD SWAP1 POP DUP2 DUP2 SUB PUSH1 0x0 DUP4 ADD MSTORE PUSH2 0x5285 DUP2 DUP5 PUSH2 0x4349 JUMP JUMPDEST SWAP1 POP SWAP3 SWAP2 POP POP JUMP JUMPDEST PUSH1 0x0 PUSH1 0x40 DUP3 ADD SWAP1 POP DUP2 DUP2 SUB PUSH1 0x0 DUP4 ADD MSTORE PUSH2 0x52A7 DUP2 DUP6 PUSH2 0x4349 JUMP JUMPDEST SWAP1 POP PUSH2 0x52B6 PUSH1 0x20 DUP4 ADD DUP5 PUSH2 0x441B JUMP JUMPDEST SWAP4 SWAP3 POP POP POP JUMP JUMPDEST PUSH1 0x0 PUSH1 0x20 DUP3 ADD SWAP1 POP PUSH2 0x52D2 PUSH1 0x0 DUP4 ADD DUP5 PUSH2 0x441B JUMP JUMPDEST SWAP3 SWAP2 POP POP JUMP JUMPDEST PUSH1 0x0 PUSH1 0x20 DUP3 ADD SWAP1 POP PUSH2 0x52ED PUSH1 0x0 DUP4 ADD DUP5 PUSH2 0x4439 JUMP JUMPDEST SWAP3 SWAP2 POP POP JUMP JUMPDEST PUSH1 0x0 PUSH1 0x20 DUP3 ADD SWAP1 POP DUP2 DUP2 SUB PUSH1 0x0 DUP4 ADD MSTORE PUSH2 0x530D DUP2 DUP5 PUSH2 0x4498 JUMP JUMPDEST SWAP1 POP SWAP3 SWAP2 POP POP JUMP JUMPDEST PUSH1 0x0 PUSH1 0x20 DUP3 ADD SWAP1 POP DUP2 DUP2 SUB PUSH1 0x0 DUP4 ADD MSTORE PUSH2 0x532E DUP2 PUSH2 0x4511 JUMP JUMPDEST SWAP1 POP SWAP2 SWAP1 POP JUMP JUMPDEST PUSH1 0x0 PUSH1 0x20 DUP3 ADD SWAP1 POP DUP2 DUP2 SUB PUSH1 0x0 DUP4 ADD MSTORE PUSH2 0x534E DUP2 PUSH2 0x4577 JUMP JUMPDEST SWAP1 POP SWAP2 SWAP1 POP JUMP JUMPDEST PUSH1 0x0 PUSH1 0x20 DUP3 ADD SWAP1 POP DUP2 DUP2 SUB PUSH1 0x0 DUP4 ADD MSTORE PUSH2 0x536E DUP2 PUSH2 0x45B7 JUMP JUMPDEST SWAP1 POP SWAP2 SWAP1 POP JUMP JUMPDEST PUSH1 0x0 PUSH1 0x20 DUP3 ADD SWAP1 POP DUP2 DUP2 SUB PUSH1 0x0 DUP4 ADD MSTORE PUSH2 0x538E DUP2 PUSH2 0x45F7 JUMP JUMPDEST SWAP1 POP SWAP2 SWAP1 POP JUMP JUMPDEST PUSH1 0x0 PUSH1 0x20 DUP3 ADD SWAP1 POP DUP2 DUP2 SUB PUSH1 0x0 DUP4 ADD MSTORE PUSH2 0x53AE DUP2 PUSH2 0x465D JUMP JUMPDEST SWAP1 POP SWAP2 SWAP1 POP JUMP JUMPDEST PUSH1 0x0 PUSH1 0x20 DUP3 ADD SWAP1 POP DUP2 DUP2 SUB PUSH1 0x0 DUP4 ADD MSTORE PUSH2 0x53CE DUP2 PUSH2 0x46C3 JUMP JUMPDEST SWAP1 POP SWAP2 SWAP1 POP JUMP JUMPDEST PUSH1 0x0 PUSH1 0x20 DUP3 ADD SWAP1 POP DUP2 DUP2 SUB PUSH1 0x0 DUP4 ADD MSTORE PUSH2 0x53EE DUP2 PUSH2 0x4729 JUMP JUMPDEST SWAP1 POP SWAP2 SWAP1 POP JUMP JUMPDEST PUSH1 0x0 PUSH1 0x20 DUP3 ADD SWAP1 POP DUP2 DUP2 SUB PUSH1 0x0 DUP4 ADD MSTORE PUSH2 0x540E DUP2 PUSH2 0x4769 JUMP JUMPDEST SWAP1 POP SWAP2 SWAP1 POP JUMP JUMPDEST PUSH1 0x0 PUSH1 0x20 DUP3 ADD SWAP1 POP DUP2 DUP2 SUB PUSH1 0x0 DUP4 ADD MSTORE PUSH2 0x542E DUP2 PUSH2 0x47F5 JUMP JUMPDEST SWAP1 POP SWAP2 SWAP1 POP JUMP JUMPDEST PUSH1 0x0 PUSH1 0x20 DUP3 ADD SWAP1 POP DUP2 DUP2 SUB PUSH1 0x0 DUP4 ADD MSTORE PUSH2 0x544F DUP2 DUP5 PUSH2 0x4A14 JUMP JUMPDEST SWAP1 POP SWAP3 SWAP2 POP POP JUMP JUMPDEST PUSH1 0x0 PUSH1 0x20 DUP3 ADD SWAP1 POP DUP2 DUP2 SUB PUSH1 0x0 DUP4 ADD MSTORE PUSH2 0x5471 DUP2 DUP5 PUSH2 0x4CBB JUMP JUMPDEST SWAP1 POP SWAP3 SWAP2 POP POP JUMP JUMPDEST PUSH1 0x0 PUSH1 0x20 DUP3 ADD SWAP1 POP DUP2 DUP2 SUB PUSH1 0x0 DUP4 ADD MSTORE PUSH2 0x5493 DUP2 DUP5 PUSH2 0x4DB5 JUMP JUMPDEST SWAP1 POP SWAP3 SWAP2 POP POP JUMP JUMPDEST PUSH1 0x0 PUSH1 0x20 DUP3 ADD SWAP1 POP PUSH2 0x54B0 PUSH1 0x0 DUP4 ADD DUP5 PUSH2 0x50C8 JUMP JUMPDEST SWAP3 SWAP2 POP POP JUMP JUMPDEST PUSH1 0x0 PUSH1 0x40 DUP3 ADD SWAP1 POP PUSH2 0x54CB PUSH1 0x0 DUP4 ADD DUP6 PUSH2 0x50C8 JUMP JUMPDEST PUSH2 0x54D8 PUSH1 0x20 DUP4 ADD DUP5 PUSH2 0x441B JUMP JUMPDEST SWAP4 SWAP3 POP POP POP JUMP JUMPDEST PUSH1 0x0 PUSH1 0x40 DUP3 ADD SWAP1 POP PUSH2 0x54F4 PUSH1 0x0 DUP4 ADD DUP6 PUSH2 0x50C8 JUMP JUMPDEST PUSH2 0x5501 PUSH1 0x20 DUP4 ADD DUP5 PUSH2 0x4439 JUMP JUMPDEST SWAP4 SWAP3 POP POP POP JUMP JUMPDEST PUSH1 0x0 PUSH2 0x160 DUP3 ADD SWAP1 POP PUSH2 0x551E PUSH1 0x0 DUP4 ADD DUP13 PUSH2 0x50E6 JUMP JUMPDEST PUSH2 0x552B PUSH1 0x20 DUP4 ADD DUP12 PUSH2 0x4B7F JUMP JUMPDEST PUSH2 0x5538 PUSH1 0x60 DUP4 ADD DUP11 PUSH2 0x50E6 JUMP JUMPDEST PUSH2 0x5545 PUSH1 0x80 DUP4 ADD DUP10 PUSH2 0x4136 JUMP JUMPDEST PUSH2 0x5552 PUSH1 0xA0 DUP4 ADD DUP9 PUSH2 0x50C8 JUMP JUMPDEST PUSH2 0x555F PUSH1 0xC0 DUP4 ADD DUP8 PUSH2 0x503B JUMP JUMPDEST PUSH2 0x556D PUSH2 0x100 DUP4 ADD DUP7 PUSH2 0x4136 JUMP JUMPDEST PUSH2 0x557B PUSH2 0x120 DUP4 ADD DUP6 PUSH2 0x4136 JUMP JUMPDEST PUSH2 0x5589 PUSH2 0x140 DUP4 ADD DUP5 PUSH2 0x4136 JUMP JUMPDEST SWAP11 SWAP10 POP POP POP POP POP POP POP POP POP POP JUMP JUMPDEST PUSH1 0x0 PUSH1 0x20 DUP3 ADD SWAP1 POP PUSH2 0x55AC PUSH1 0x0 DUP4 ADD DUP5 PUSH2 0x5104 JUMP JUMPDEST SWAP3 SWAP2 POP POP JUMP JUMPDEST PUSH1 0x0 PUSH1 0x40 MLOAD SWAP1 POP DUP2 DUP2 ADD DUP2 DUP2 LT PUSH8 0xFFFFFFFFFFFFFFFF DUP3 GT OR ISZERO PUSH2 0x55D9 JUMPI PUSH2 0x55D8 PUSH2 0x5B29 JUMP JUMPDEST JUMPDEST DUP1 PUSH1 0x40 MSTORE POP SWAP2 SWAP1 POP JUMP JUMPDEST PUSH1 0x0 PUSH8 0xFFFFFFFFFFFFFFFF DUP3 GT ISZERO PUSH2 0x55FE JUMPI PUSH2 0x55FD PUSH2 0x5B29 JUMP JUMPDEST JUMPDEST PUSH1 0x20 DUP3 MUL SWAP1 POP PUSH1 0x20 DUP2 ADD SWAP1 POP SWAP2 SWAP1 POP JUMP JUMPDEST PUSH1 0x0 PUSH8 0xFFFFFFFFFFFFFFFF DUP3 GT ISZERO PUSH2 0x562A JUMPI PUSH2 0x5629 PUSH2 0x5B29 JUMP JUMPDEST JUMPDEST PUSH1 0x20 DUP3 MUL SWAP1 POP PUSH1 0x20 DUP2 ADD SWAP1 POP SWAP2 SWAP1 POP JUMP JUMPDEST PUSH1 0x0 PUSH8 0xFFFFFFFFFFFFFFFF DUP3 GT ISZERO PUSH2 0x5656 JUMPI PUSH2 0x5655 PUSH2 0x5B29 JUMP JUMPDEST JUMPDEST PUSH1 0x20 DUP3 MUL SWAP1 POP PUSH1 0x20 DUP2 ADD SWAP1 POP SWAP2 SWAP1 POP JUMP JUMPDEST PUSH1 0x0 PUSH8 0xFFFFFFFFFFFFFFFF DUP3 GT ISZERO PUSH2 0x5682 JUMPI PUSH2 0x5681 PUSH2 0x5B29 JUMP JUMPDEST JUMPDEST PUSH1 0x20 DUP3 MUL SWAP1 POP PUSH1 0x20 DUP2 ADD SWAP1 POP SWAP2 SWAP1 POP JUMP JUMPDEST PUSH1 0x0 PUSH8 0xFFFFFFFFFFFFFFFF DUP3 GT ISZERO PUSH2 0x56AE JUMPI PUSH2 0x56AD PUSH2 0x5B29 JUMP JUMPDEST JUMPDEST PUSH1 0x20 DUP3 MUL SWAP1 POP PUSH1 0x20 DUP2 ADD SWAP1 POP SWAP2 SWAP1 POP JUMP JUMPDEST PUSH1 0x0 PUSH8 0xFFFFFFFFFFFFFFFF DUP3 GT ISZERO PUSH2 0x56DA JUMPI PUSH2 0x56D9 PUSH2 0x5B29 JUMP JUMPDEST JUMPDEST PUSH1 0x20 DUP3 MUL SWAP1 POP PUSH1 0x20 DUP2 ADD SWAP1 POP SWAP2 SWAP1 POP JUMP JUMPDEST PUSH1 0x0 PUSH8 0xFFFFFFFFFFFFFFFF DUP3 GT ISZERO PUSH2 0x5706 JUMPI PUSH2 0x5705 PUSH2 0x5B29 JUMP JUMPDEST JUMPDEST PUSH1 0x1F NOT PUSH1 0x1F DUP4 ADD AND SWAP1 POP PUSH1 0x20 DUP2 ADD SWAP1 POP SWAP2 SWAP1 POP JUMP JUMPDEST PUSH1 0x0 DUP2 SWAP1 POP PUSH1 0x20 DUP3 ADD SWAP1 POP SWAP2 SWAP1 POP JUMP JUMPDEST PUSH1 0x0 DUP2 SWAP1 POP PUSH1 0x20 DUP3 ADD SWAP1 POP SWAP2 SWAP1 POP JUMP JUMPDEST PUSH1 0x0 DUP2 SWAP1 POP PUSH1 0x20 DUP3 ADD SWAP1 POP SWAP2 SWAP1 POP JUMP JUMPDEST PUSH1 0x0 DUP2 SWAP1 POP PUSH1 0x20 DUP3 ADD SWAP1 POP SWAP2 SWAP1 POP JUMP JUMPDEST PUSH1 0x0 DUP2 SWAP1 POP PUSH1 0x20 DUP3 ADD SWAP1 POP SWAP2 SWAP1 POP JUMP JUMPDEST PUSH1 0x0 DUP2 SWAP1 POP DUP2 PUSH1 0x0 MSTORE PUSH1 0x20 PUSH1 0x0 KECCAK256 SWAP1 POP SWAP2 SWAP1 POP JUMP JUMPDEST PUSH1 0x0 DUP2 SWAP1 POP PUSH1 0x20 DUP3 ADD SWAP1 POP SWAP2 SWAP1 POP JUMP JUMPDEST PUSH1 0x0 DUP2 MLOAD SWAP1 POP SWAP2 SWAP1 POP JUMP JUMPDEST PUSH1 0x0 DUP2 MLOAD SWAP1 POP SWAP2 SWAP1 POP JUMP JUMPDEST PUSH1 0x0 DUP2 MLOAD SWAP1 POP SWAP2 SWAP1 POP JUMP JUMPDEST PUSH1 0x0 DUP2 MLOAD SWAP1 POP SWAP2 SWAP1 POP JUMP JUMPDEST PUSH1 0x0 DUP2 MLOAD SWAP1 POP SWAP2 SWAP1 POP JUMP JUMPDEST PUSH1 0x0 DUP2 SLOAD SWAP1 POP SWAP2 SWAP1 POP JUMP JUMPDEST PUSH1 0x0 DUP2 MLOAD SWAP1 POP SWAP2 SWAP1 POP JUMP JUMPDEST PUSH1 0x0 DUP2 MLOAD SWAP1 POP SWAP2 SWAP1 POP JUMP JUMPDEST PUSH1 0x0 PUSH1 0x20 DUP3 ADD SWAP1 POP SWAP2 SWAP1 POP JUMP JUMPDEST PUSH1 0x0 PUSH1 0x20 DUP3 ADD SWAP1 POP SWAP2 SWAP1 POP JUMP JUMPDEST PUSH1 0x0 PUSH1 0x20 DUP3 ADD SWAP1 POP SWAP2 SWAP1 POP JUMP JUMPDEST PUSH1 0x0 PUSH1 0x20 DUP3 ADD SWAP1 POP SWAP2 SWAP1 POP JUMP JUMPDEST PUSH1 0x0 PUSH1 0x20 DUP3 ADD SWAP1 POP SWAP2 SWAP1 POP JUMP JUMPDEST PUSH1 0x0 PUSH1 0x8 DUP3 ADD SWAP1 POP SWAP2 SWAP1 POP JUMP JUMPDEST PUSH1 0x0 PUSH1 0x20 DUP3 ADD SWAP1 POP SWAP2 SWAP1 POP JUMP JUMPDEST PUSH1 0x0 DUP3 DUP3 MSTORE PUSH1 0x20 DUP3 ADD SWAP1 POP SWAP3 SWAP2 POP POP JUMP JUMPDEST PUSH1 0x0 DUP3 DUP3 MSTORE PUSH1 0x20 DUP3 ADD SWAP1 POP SWAP3 SWAP2 POP POP JUMP JUMPDEST PUSH1 0x0 DUP3 DUP3 MSTORE PUSH1 0x20 DUP3 ADD SWAP1 POP SWAP3 SWAP2 POP POP JUMP JUMPDEST PUSH1 0x0 DUP3 DUP3 MSTORE PUSH1 0x20 DUP3 ADD SWAP1 POP SWAP3 SWAP2 POP POP JUMP JUMPDEST PUSH1 0x0 DUP3 DUP3 MSTORE PUSH1 0x20 DUP3 ADD SWAP1 POP SWAP3 SWAP2 POP POP JUMP JUMPDEST PUSH1 0x0 DUP3 DUP3 MSTORE PUSH1 0x20 DUP3 ADD SWAP1 POP SWAP3 SWAP2 POP POP JUMP JUMPDEST PUSH1 0x0 DUP3 DUP3 MSTORE PUSH1 0x20 DUP3 ADD SWAP1 POP SWAP3 SWAP2 POP POP JUMP JUMPDEST PUSH1 0x0 DUP3 DUP3 MSTORE PUSH1 0x20 DUP3 ADD SWAP1 POP SWAP3 SWAP2 POP POP JUMP JUMPDEST PUSH1 0x0 DUP3 DUP3 MSTORE PUSH1 0x20 DUP3 ADD SWAP1 POP SWAP3 SWAP2 POP POP JUMP JUMPDEST PUSH1 0x0 DUP2 SWAP1 POP SWAP3 SWAP2 POP POP JUMP JUMPDEST PUSH1 0x0 DUP3 DUP3 MSTORE PUSH1 0x20 DUP3 ADD SWAP1 POP SWAP3 SWAP2 POP POP JUMP JUMPDEST PUSH1 0x0 PUSH20 0xFFFFFFFFFFFFFFFFFFFFFFFFFFFFFFFFFFFFFFFF DUP3 AND SWAP1 POP SWAP2 SWAP1 POP JUMP JUMPDEST PUSH1 0x0 DUP2 SWAP1 POP SWAP2 SWAP1 POP JUMP JUMPDEST PUSH1 0x0 PUSH4 0xFFFFFFFF DUP3 AND SWAP1 POP SWAP2 SWAP1 POP JUMP JUMPDEST PUSH1 0x0 PUSH8 0xFFFFFFFFFFFFFFFF DUP3 AND SWAP1 POP SWAP2 SWAP1 POP JUMP JUMPDEST PUSH1 0x0 PUSH1 0xFF DUP3 AND SWAP1 POP SWAP2 SWAP1 POP JUMP JUMPDEST PUSH1 0x0 PUSH2 0x595E DUP3 PUSH2 0x5996 JUMP JUMPDEST SWAP1 POP SWAP2 SWAP1 POP JUMP JUMPDEST PUSH1 0x0 DUP2 ISZERO ISZERO SWAP1 POP SWAP2 SWAP1 POP JUMP JUMPDEST PUSH1 0x0 DUP2 SWAP1 POP SWAP2 SWAP1 POP JUMP JUMPDEST PUSH1 0x0 DUP2 PUSH1 0x3 SIGNEXTEND SWAP1 POP SWAP2 SWAP1 POP JUMP JUMPDEST PUSH1 0x0 PUSH2 0xFFFF DUP3 AND SWAP1 POP SWAP2 SWAP1 POP JUMP JUMPDEST PUSH1 0x0 PUSH20 0xFFFFFFFFFFFFFFFFFFFFFFFFFFFFFFFFFFFFFFFF DUP3 AND SWAP1 POP SWAP2 SWAP1 POP JUMP JUMPDEST PUSH1 0x0 DUP2 SWAP1 POP SWAP2 SWAP1 POP JUMP JUMPDEST PUSH1 0x0 PUSH4 0xFFFFFFFF DUP3 AND SWAP1 POP SWAP2 SWAP1 POP JUMP JUMPDEST PUSH1 0x0 PUSH8 0xFFFFFFFFFFFFFFFF DUP3 AND SWAP1 POP SWAP2 SWAP1 POP JUMP JUMPDEST PUSH1 0x0 PUSH1 0xFF DUP3 AND SWAP1 POP SWAP2 SWAP1 POP JUMP JUMPDEST PUSH1 0x0 PUSH2 0x59FC DUP3 PUSH2 0x5A03 JUMP JUMPDEST SWAP1 POP SWAP2 SWAP1 POP JUMP JUMPDEST PUSH1 0x0 PUSH2 0x5A0E DUP3 PUSH2 0x5A15 JUMP JUMPDEST SWAP1 POP SWAP2 SWAP1 POP JUMP JUMPDEST PUSH1 0x0 PUSH2 0x5A20 DUP3 PUSH2 0x5996 JUMP JUMPDEST SWAP1 POP SWAP2 SWAP1 POP JUMP JUMPDEST DUP3 DUP2 DUP4 CALLDATACOPY PUSH1 0x0 DUP4 DUP4 ADD MSTORE POP POP POP JUMP JUMPDEST PUSH1 0x0 JUMPDEST DUP4 DUP2 LT ISZERO PUSH2 0x5A54 JUMPI DUP1 DUP3 ADD MLOAD DUP2 DUP5 ADD MSTORE PUSH1 0x20 DUP2 ADD SWAP1 POP PUSH2 0x5A39 JUMP JUMPDEST DUP4 DUP2 GT ISZERO PUSH2 0x5A63 JUMPI PUSH1 0x0 DUP5 DUP5 ADD MSTORE JUMPDEST POP POP POP POP JUMP JUMPDEST PUSH1 0x0 PUSH2 0x5A7C PUSH2 0x5A77 DUP4 PUSH2 0x5B3C JUMP JUMPDEST PUSH2 0x58F8 JUMP JUMPDEST SWAP1 POP SWAP2 SWAP1 POP JUMP JUMPDEST PUSH1 0x0 PUSH2 0x5A96 PUSH2 0x5A91 DUP4 PUSH2 0x5B3C JUMP JUMPDEST PUSH2 0x5918 JUMP JUMPDEST SWAP1 POP SWAP2 SWAP1 POP JUMP JUMPDEST PUSH1 0x0 PUSH2 0x5AB0 PUSH2 0x5AAB DUP4 PUSH2 0x5B3C JUMP JUMPDEST PUSH2 0x5922 JUMP JUMPDEST SWAP1 POP SWAP2 SWAP1 POP JUMP JUMPDEST PUSH1 0x0 PUSH2 0x5ACA PUSH2 0x5AC5 DUP4 PUSH2 0x5B3C JUMP JUMPDEST PUSH2 0x5946 JUMP JUMPDEST SWAP1 POP SWAP2 SWAP1 POP JUMP JUMPDEST PUSH1 0x0 PUSH2 0x5AE4 PUSH2 0x5ADF DUP4 PUSH2 0x5B63 JUMP JUMPDEST PUSH2 0x58F8 JUMP JUMPDEST SWAP1 POP SWAP2 SWAP1 POP JUMP JUMPDEST PUSH1 0x0 PUSH2 0x5AFE PUSH2 0x5AF9 DUP4 PUSH2 0x5B49 JUMP JUMPDEST PUSH2 0x5932 JUMP JUMPDEST SWAP1 POP SWAP2 SWAP1 POP JUMP JUMPDEST PUSH1 0x0 PUSH2 0x5B18 PUSH2 0x5B13 DUP4 PUSH2 0x5B56 JUMP JUMPDEST PUSH2 0x58F8 JUMP JUMPDEST SWAP1 POP SWAP2 SWAP1 POP JUMP JUMPDEST PUSH1 0x0 DUP2 SWAP1 POP SWAP2 SWAP1 POP JUMP JUMPDEST INVALID JUMPDEST PUSH1 0x0 PUSH1 0x1F NOT PUSH1 0x1F DUP4 ADD AND SWAP1 POP SWAP2 SWAP1 POP JUMP JUMPDEST PUSH1 0x0 DUP2 PUSH1 0x0 SHR SWAP1 POP SWAP2 SWAP1 POP JUMP JUMPDEST PUSH1 0x0 DUP2 PUSH1 0xA0 SHR SWAP1 POP SWAP2 SWAP1 POP JUMP JUMPDEST PUSH1 0x0 DUP2 PUSH1 0x20 SHR SWAP1 POP SWAP2 SWAP1 POP JUMP JUMPDEST PUSH1 0x0 DUP2 PUSH1 0x8 SHR SWAP1 POP SWAP2 SWAP1 POP JUMP JUMPDEST PUSH2 0x5B79 DUP2 PUSH2 0x5953 JUMP JUMPDEST DUP2 EQ PUSH2 0x5B84 JUMPI PUSH1 0x0 DUP1 REVERT JUMPDEST POP JUMP JUMPDEST PUSH2 0x5B90 DUP2 PUSH2 0x5965 JUMP JUMPDEST DUP2 EQ PUSH2 0x5B9B JUMPI PUSH1 0x0 DUP1 REVERT JUMPDEST POP JUMP JUMPDEST PUSH2 0x5BA7 DUP2 PUSH2 0x5971 JUMP JUMPDEST DUP2 EQ PUSH2 0x5BB2 JUMPI PUSH1 0x0 DUP1 REVERT JUMPDEST POP JUMP JUMPDEST PUSH2 0x5BBE DUP2 PUSH2 0x597B JUMP JUMPDEST DUP2 EQ PUSH2 0x5BC9 JUMPI PUSH1 0x0 DUP1 REVERT JUMPDEST POP JUMP JUMPDEST PUSH2 0x5BD5 DUP2 PUSH2 0x5988 JUMP JUMPDEST DUP2 EQ PUSH2 0x5BE0 JUMPI PUSH1 0x0 DUP1 REVERT JUMPDEST POP JUMP JUMPDEST PUSH2 0x5BEC DUP2 PUSH2 0x59B6 JUMP JUMPDEST DUP2 EQ PUSH2 0x5BF7 JUMPI PUSH1 0x0 DUP1 REVERT JUMPDEST POP JUMP JUMPDEST PUSH2 0x5C03 DUP2 PUSH2 0x59C0 JUMP JUMPDEST DUP2 EQ PUSH2 0x5C0E JUMPI PUSH1 0x0 DUP1 REVERT JUMPDEST POP JUMP JUMPDEST PUSH2 0x5C1A DUP2 PUSH2 0x59D0 JUMP JUMPDEST DUP2 EQ PUSH2 0x5C25 JUMPI PUSH1 0x0 DUP1 REVERT JUMPDEST POP JUMP JUMPDEST PUSH2 0x5C31 DUP2 PUSH2 0x59E4 JUMP JUMPDEST DUP2 EQ PUSH2 0x5C3C JUMPI PUSH1 0x0 DUP1 REVERT JUMPDEST POP JUMP INVALID LOG2 PUSH5 0x6970667358 0x22 SLT KECCAK256 PUSH8 0x79AF6E882A523323 CHAINID 0x4C 0xA5 0xAB 0x48 0xE5 DELEGATECALL JUMPDEST 0xEF 0xD4 LOG0 0x4F 0x1F 0xCE SHL RETURNDATASIZE 0xD7 DUP3 PUSH25 0xAA07D36C64736F6C6343000706003300000000000000000000 "
		},
		"gasEstimates": {
			"creation": {
				"codeDepositCost": "4733800",
				"executionCost": "infinite",
				"totalCost": "infinite"
			},
			"external": {
				"SerializedCCEs(uint256)": "infinite",
				"SerializedCRTs(uint256)": "infinite",
				"_createImports((uint256,bytes32,uint256,(uint16,uint16,address,uint32,uint32,address,address,uint32,(address,uint64)[],(address,uint64)[],bytes32,(address,uint64)[],(uint8,address),int32),(uint8,uint8,(uint8,(uint8,uint32,uint32,bytes32[]))[],(uint8,uint8,bytes,(uint8,(uint8,uint32,uint32,bytes32[]))[],uint32)[]),(uint32,(address,uint64),uint32,address,uint256,(uint8,address),address,address,address)[]))": "infinite",
				"_readyExports(uint256,uint256)": "infinite",
				"claimFees()": "infinite",
				"claimableFees(address)": "1625",
				"convertFromVerusNumber(uint256)": "696",
				"convertToVerusNumber(uint256)": "713",
				"deprecated()": "1245",
				"ethHeld()": "1262",
				"export((uint32,(address,uint64),uint32,address,uint256,(uint8,address),address,address,address))": "infinite",
				"feesHeld()": "1240",
				"firstBlock()": "1175",
				"getReadyExportsByBlock(uint256)": "infinite",
				"getReadyExportsByRange(uint256,uint256)": "infinite",
				"hashedCRTs(uint256)": "2305",
				"lastimport()": "2144",
				"poolSize()": "1174",
				"processedTxids(bytes32)": "1519",
				"readyExportHashes(uint256)": "2392",
				"readyExportsByBlock(uint256)": "infinite",
				"submitImports((uint256,bytes32,uint256,(uint16,uint16,address,uint32,uint32,address,address,uint32,(address,uint64)[],(address,uint64)[],bytes32,(address,uint64)[],(uint8,address),int32),(uint8,uint8,(uint8,(uint8,uint32,uint32,bytes32[]))[],(uint8,uint8,bytes,(uint8,(uint8,uint32,uint32,bytes32[]))[],uint32)[]),(uint32,(address,uint64),uint32,address,uint256,(uint8,address),address,address,address)[])[])": "infinite",
				"upgradedAddress()": "1282"
			},
			"internal": {
				"_createExports(struct VerusObjects.CReserveTransfer memory)": "infinite",
				"isPoolAvailable(uint256,address)": "infinite",
				"sendEth(uint256,address payable)": "infinite"
			}
		},
		"methodIdentifiers": {
			"SerializedCCEs(uint256)": "3ee2ce85",
			"SerializedCRTs(uint256)": "d83aa63c",
			"_createImports((uint256,bytes32,uint256,(uint16,uint16,address,uint32,uint32,address,address,uint32,(address,uint64)[],(address,uint64)[],bytes32,(address,uint64)[],(uint8,address),int32),(uint8,uint8,(uint8,(uint8,uint32,uint32,bytes32[]))[],(uint8,uint8,bytes,(uint8,(uint8,uint32,uint32,bytes32[]))[],uint32)[]),(uint32,(address,uint64),uint32,address,uint256,(uint8,address),address,address,address)[]))": "33bc02fa",
			"_readyExports(uint256,uint256)": "7e3e661b",
			"claimFees()": "d294f093",
			"claimableFees(address)": "7e0b2492",
			"convertFromVerusNumber(uint256)": "529cb5a1",
			"convertToVerusNumber(uint256)": "388eee6c",
			"deprecated()": "0e136b19",
			"ethHeld()": "42ce5011",
			"export((uint32,(address,uint64),uint32,address,uint256,(uint8,address),address,address,address))": "2d5beadc",
			"feesHeld()": "3f067b20",
			"firstBlock()": "231b0268",
			"getReadyExportsByBlock(uint256)": "2a9e72a6",
			"getReadyExportsByRange(uint256,uint256)": "e4804abc",
			"hashedCRTs(uint256)": "44e5ffd3",
			"lastimport()": "5f2edcbe",
			"poolSize()": "4ec18db9",
			"processedTxids(bytes32)": "327d4263",
			"readyExportHashes(uint256)": "e45b909d",
			"readyExportsByBlock(uint256)": "c17a4eef",
			"submitImports((uint256,bytes32,uint256,(uint16,uint16,address,uint32,uint32,address,address,uint32,(address,uint64)[],(address,uint64)[],bytes32,(address,uint64)[],(uint8,address),int32),(uint8,uint8,(uint8,(uint8,uint32,uint32,bytes32[]))[],(uint8,uint8,bytes,(uint8,(uint8,uint32,uint32,bytes32[]))[],uint32)[]),(uint32,(address,uint64),uint32,address,uint256,(uint8,address),address,address,address)[])[])": "df7dc506",
			"upgradedAddress()": "26976e3f"
		}
	},
	"abi": [
		{
			"inputs": [
				{
					"internalType": "address",
					"name": "verusProofAddress",
					"type": "address"
				},
				{
					"internalType": "address",
					"name": "tokenManagerAddress",
					"type": "address"
				},
				{
					"internalType": "address",
					"name": "verusSerializerAddress",
					"type": "address"
				},
				{
					"internalType": "address",
					"name": "verusNotarizerAddress",
					"type": "address"
				},
				{
					"internalType": "address",
					"name": "verusCCEAddress",
					"type": "address"
				},
				{
					"internalType": "uint256",
					"name": "_poolSize",
					"type": "uint256"
				}
			],
			"stateMutability": "nonpayable",
			"type": "constructor"
		},
		{
			"anonymous": false,
			"inputs": [
				{
					"indexed": false,
					"internalType": "address",
					"name": "newAddress",
					"type": "address"
				}
			],
			"name": "Deprecate",
			"type": "event"
		},
		{
			"inputs": [
				{
					"internalType": "uint256",
					"name": "",
					"type": "uint256"
				}
			],
			"name": "SerializedCCEs",
			"outputs": [
				{
					"internalType": "bytes",
					"name": "",
					"type": "bytes"
				}
			],
			"stateMutability": "view",
			"type": "function"
		},
		{
			"inputs": [
				{
					"internalType": "uint256",
					"name": "",
					"type": "uint256"
				}
			],
			"name": "SerializedCRTs",
			"outputs": [
				{
					"internalType": "bytes",
					"name": "",
					"type": "bytes"
				}
			],
			"stateMutability": "view",
			"type": "function"
		},
		{
			"inputs": [
				{
					"components": [
						{
							"internalType": "uint256",
							"name": "height",
							"type": "uint256"
						},
						{
							"internalType": "bytes32",
							"name": "txid",
							"type": "bytes32"
						},
						{
							"internalType": "uint256",
							"name": "txoutnum",
							"type": "uint256"
						},
						{
							"components": [
								{
									"internalType": "uint16",
									"name": "version",
									"type": "uint16"
								},
								{
									"internalType": "uint16",
									"name": "flags",
									"type": "uint16"
								},
								{
									"internalType": "address",
									"name": "sourcesystemid",
									"type": "address"
								},
								{
									"internalType": "uint32",
									"name": "sourceheightstart",
									"type": "uint32"
								},
								{
									"internalType": "uint32",
									"name": "sourceheightend",
									"type": "uint32"
								},
								{
									"internalType": "address",
									"name": "destinationsystemid",
									"type": "address"
								},
								{
									"internalType": "address",
									"name": "destinationcurrencyid",
									"type": "address"
								},
								{
									"internalType": "uint32",
									"name": "numinputs",
									"type": "uint32"
								},
								{
									"components": [
										{
											"internalType": "address",
											"name": "currency",
											"type": "address"
										},
										{
											"internalType": "uint64",
											"name": "amount",
											"type": "uint64"
										}
									],
									"internalType": "struct VerusObjects.CCurrencyValueMap[]",
									"name": "totalamounts",
									"type": "tuple[]"
								},
								{
									"components": [
										{
											"internalType": "address",
											"name": "currency",
											"type": "address"
										},
										{
											"internalType": "uint64",
											"name": "amount",
											"type": "uint64"
										}
									],
									"internalType": "struct VerusObjects.CCurrencyValueMap[]",
									"name": "totalfees",
									"type": "tuple[]"
								},
								{
									"internalType": "bytes32",
									"name": "hashtransfers",
									"type": "bytes32"
								},
								{
									"components": [
										{
											"internalType": "address",
											"name": "currency",
											"type": "address"
										},
										{
											"internalType": "uint64",
											"name": "amount",
											"type": "uint64"
										}
									],
									"internalType": "struct VerusObjects.CCurrencyValueMap[]",
									"name": "totalburned",
									"type": "tuple[]"
								},
								{
									"components": [
										{
											"internalType": "uint8",
											"name": "destinationtype",
											"type": "uint8"
										},
										{
											"internalType": "address",
											"name": "destinationaddress",
											"type": "address"
										}
									],
									"internalType": "struct VerusObjectsCommon.CTransferDestination",
									"name": "rewardaddress",
									"type": "tuple"
								},
								{
									"internalType": "int32",
									"name": "firstinput",
									"type": "int32"
								}
							],
							"internalType": "struct VerusObjects.CCrossChainExport",
							"name": "exportinfo",
							"type": "tuple"
						},
						{
							"components": [
								{
									"internalType": "uint8",
									"name": "version",
									"type": "uint8"
								},
								{
									"internalType": "uint8",
									"name": "typeC",
									"type": "uint8"
								},
								{
									"components": [
										{
											"internalType": "uint8",
											"name": "branchType",
											"type": "uint8"
										},
										{
											"components": [
												{
													"internalType": "uint8",
													"name": "CMerkleBranchBase",
													"type": "uint8"
												},
												{
													"internalType": "uint32",
													"name": "nIndex",
													"type": "uint32"
												},
												{
													"internalType": "uint32",
													"name": "nSize",
													"type": "uint32"
												},
												{
													"internalType": "bytes32[]",
													"name": "branch",
													"type": "bytes32[]"
												}
											],
											"internalType": "struct VerusObjects.CMerkleBranch",
											"name": "proofSequence",
											"type": "tuple"
										}
									],
									"internalType": "struct VerusObjects.CTXProof[]",
									"name": "txproof",
									"type": "tuple[]"
								},
								{
									"components": [
										{
											"internalType": "uint8",
											"name": "elType",
											"type": "uint8"
										},
										{
											"internalType": "uint8",
											"name": "elIdx",
											"type": "uint8"
										},
										{
											"internalType": "bytes",
											"name": "elVchObj",
											"type": "bytes"
										},
										{
											"components": [
												{
													"internalType": "uint8",
													"name": "branchType",
													"type": "uint8"
												},
												{
													"components": [
														{
															"internalType": "uint8",
															"name": "CMerkleBranchBase",
															"type": "uint8"
														},
														{
															"internalType": "uint32",
															"name": "nIndex",
															"type": "uint32"
														},
														{
															"internalType": "uint32",
															"name": "nSize",
															"type": "uint32"
														},
														{
															"internalType": "bytes32[]",
															"name": "branch",
															"type": "bytes32[]"
														}
													],
													"internalType": "struct VerusObjects.CMerkleBranch",
													"name": "proofSequence",
													"type": "tuple"
												}
											],
											"internalType": "struct VerusObjects.CTXProof[]",
											"name": "elProof",
											"type": "tuple[]"
										},
										{
											"internalType": "uint32",
											"name": "VchObjIndex",
											"type": "uint32"
										}
									],
									"internalType": "struct VerusObjects.CComponents[]",
									"name": "components",
									"type": "tuple[]"
								}
							],
							"internalType": "struct VerusObjects.CPtransactionproof",
							"name": "partialtransactionproof",
							"type": "tuple"
						},
						{
							"components": [
								{
									"internalType": "uint32",
									"name": "version",
									"type": "uint32"
								},
								{
									"components": [
										{
											"internalType": "address",
											"name": "currency",
											"type": "address"
										},
										{
											"internalType": "uint64",
											"name": "amount",
											"type": "uint64"
										}
									],
									"internalType": "struct VerusObjects.CCurrencyValueMap",
									"name": "currencyvalue",
									"type": "tuple"
								},
								{
									"internalType": "uint32",
									"name": "flags",
									"type": "uint32"
								},
								{
									"internalType": "address",
									"name": "feecurrencyid",
									"type": "address"
								},
								{
									"internalType": "uint256",
									"name": "fees",
									"type": "uint256"
								},
								{
									"components": [
										{
											"internalType": "uint8",
											"name": "destinationtype",
											"type": "uint8"
										},
										{
											"internalType": "address",
											"name": "destinationaddress",
											"type": "address"
										}
									],
									"internalType": "struct VerusObjectsCommon.CTransferDestination",
									"name": "destination",
									"type": "tuple"
								},
								{
									"internalType": "address",
									"name": "destcurrencyid",
									"type": "address"
								},
								{
									"internalType": "address",
									"name": "destsystemid",
									"type": "address"
								},
								{
									"internalType": "address",
									"name": "secondreserveid",
									"type": "address"
								}
							],
							"internalType": "struct VerusObjects.CReserveTransfer[]",
							"name": "transfers",
							"type": "tuple[]"
						}
					],
					"internalType": "struct VerusObjects.CReserveTransferImport",
					"name": "_import",
					"type": "tuple"
				}
			],
			"name": "_createImports",
			"outputs": [
				{
					"internalType": "bool",
					"name": "",
					"type": "bool"
				}
			],
			"stateMutability": "nonpayable",
			"type": "function"
		},
		{
			"inputs": [
				{
					"internalType": "uint256",
					"name": "",
					"type": "uint256"
				},
				{
					"internalType": "uint256",
					"name": "",
					"type": "uint256"
				}
			],
			"name": "_readyExports",
			"outputs": [
				{
					"internalType": "uint32",
					"name": "version",
					"type": "uint32"
				},
				{
					"components": [
						{
							"internalType": "address",
							"name": "currency",
							"type": "address"
						},
						{
							"internalType": "uint64",
							"name": "amount",
							"type": "uint64"
						}
					],
					"internalType": "struct VerusObjects.CCurrencyValueMap",
					"name": "currencyvalue",
					"type": "tuple"
				},
				{
					"internalType": "uint32",
					"name": "flags",
					"type": "uint32"
				},
				{
					"internalType": "address",
					"name": "feecurrencyid",
					"type": "address"
				},
				{
					"internalType": "uint256",
					"name": "fees",
					"type": "uint256"
				},
				{
					"components": [
						{
							"internalType": "uint8",
							"name": "destinationtype",
							"type": "uint8"
						},
						{
							"internalType": "address",
							"name": "destinationaddress",
							"type": "address"
						}
					],
					"internalType": "struct VerusObjectsCommon.CTransferDestination",
					"name": "destination",
					"type": "tuple"
				},
				{
					"internalType": "address",
					"name": "destcurrencyid",
					"type": "address"
				},
				{
					"internalType": "address",
					"name": "destsystemid",
					"type": "address"
				},
				{
					"internalType": "address",
					"name": "secondreserveid",
					"type": "address"
				}
			],
			"stateMutability": "view",
			"type": "function"
		},
		{
			"inputs": [],
			"name": "claimFees",
			"outputs": [
				{
					"internalType": "uint256",
					"name": "",
					"type": "uint256"
				}
			],
			"stateMutability": "nonpayable",
			"type": "function"
		},
		{
			"inputs": [
				{
					"internalType": "address",
					"name": "",
					"type": "address"
				}
			],
			"name": "claimableFees",
			"outputs": [
				{
					"internalType": "uint256",
					"name": "",
					"type": "uint256"
				}
			],
			"stateMutability": "view",
			"type": "function"
		},
		{
			"inputs": [
				{
					"internalType": "uint256",
					"name": "a",
					"type": "uint256"
				}
			],
			"name": "convertFromVerusNumber",
			"outputs": [
				{
					"internalType": "uint64",
					"name": "",
					"type": "uint64"
				}
			],
			"stateMutability": "pure",
			"type": "function"
		},
		{
			"inputs": [
				{
					"internalType": "uint256",
					"name": "a",
					"type": "uint256"
				}
			],
			"name": "convertToVerusNumber",
			"outputs": [
				{
					"internalType": "uint64",
					"name": "",
					"type": "uint64"
				}
			],
			"stateMutability": "pure",
			"type": "function"
		},
		{
			"inputs": [],
			"name": "deprecated",
			"outputs": [
				{
					"internalType": "bool",
					"name": "",
					"type": "bool"
				}
			],
			"stateMutability": "view",
			"type": "function"
		},
		{
			"inputs": [],
			"name": "ethHeld",
			"outputs": [
				{
					"internalType": "uint256",
					"name": "",
					"type": "uint256"
				}
			],
			"stateMutability": "view",
			"type": "function"
		},
		{
			"inputs": [
				{
					"components": [
						{
							"internalType": "uint32",
							"name": "version",
							"type": "uint32"
						},
						{
							"components": [
								{
									"internalType": "address",
									"name": "currency",
									"type": "address"
								},
								{
									"internalType": "uint64",
									"name": "amount",
									"type": "uint64"
								}
							],
							"internalType": "struct VerusObjects.CCurrencyValueMap",
							"name": "currencyvalue",
							"type": "tuple"
						},
						{
							"internalType": "uint32",
							"name": "flags",
							"type": "uint32"
						},
						{
							"internalType": "address",
							"name": "feecurrencyid",
							"type": "address"
						},
						{
							"internalType": "uint256",
							"name": "fees",
							"type": "uint256"
						},
						{
							"components": [
								{
									"internalType": "uint8",
									"name": "destinationtype",
									"type": "uint8"
								},
								{
									"internalType": "address",
									"name": "destinationaddress",
									"type": "address"
								}
							],
							"internalType": "struct VerusObjectsCommon.CTransferDestination",
							"name": "destination",
							"type": "tuple"
						},
						{
							"internalType": "address",
							"name": "destcurrencyid",
							"type": "address"
						},
						{
							"internalType": "address",
							"name": "destsystemid",
							"type": "address"
						},
						{
							"internalType": "address",
							"name": "secondreserveid",
							"type": "address"
						}
					],
					"internalType": "struct VerusObjects.CReserveTransfer",
					"name": "transfer",
					"type": "tuple"
				}
			],
			"name": "export",
			"outputs": [],
			"stateMutability": "payable",
			"type": "function"
		},
		{
			"inputs": [],
			"name": "feesHeld",
			"outputs": [
				{
					"internalType": "uint256",
					"name": "",
					"type": "uint256"
				}
			],
			"stateMutability": "view",
			"type": "function"
		},
		{
			"inputs": [],
			"name": "firstBlock",
			"outputs": [
				{
					"internalType": "uint256",
					"name": "",
					"type": "uint256"
				}
			],
			"stateMutability": "view",
			"type": "function"
		},
		{
			"inputs": [
				{
					"internalType": "uint256",
					"name": "_blockNumber",
					"type": "uint256"
				}
			],
			"name": "getReadyExportsByBlock",
			"outputs": [
				{
					"components": [
						{
							"internalType": "uint256",
							"name": "position",
							"type": "uint256"
						},
						{
							"internalType": "uint256",
							"name": "blockHeight",
							"type": "uint256"
						},
						{
							"internalType": "bytes32",
							"name": "exportHash",
							"type": "bytes32"
						},
						{
							"components": [
								{
									"internalType": "uint32",
									"name": "version",
									"type": "uint32"
								},
								{
									"components": [
										{
											"internalType": "address",
											"name": "currency",
											"type": "address"
										},
										{
											"internalType": "uint64",
											"name": "amount",
											"type": "uint64"
										}
									],
									"internalType": "struct VerusObjects.CCurrencyValueMap",
									"name": "currencyvalue",
									"type": "tuple"
								},
								{
									"internalType": "uint32",
									"name": "flags",
									"type": "uint32"
								},
								{
									"internalType": "address",
									"name": "feecurrencyid",
									"type": "address"
								},
								{
									"internalType": "uint256",
									"name": "fees",
									"type": "uint256"
								},
								{
									"components": [
										{
											"internalType": "uint8",
											"name": "destinationtype",
											"type": "uint8"
										},
										{
											"internalType": "address",
											"name": "destinationaddress",
											"type": "address"
										}
									],
									"internalType": "struct VerusObjectsCommon.CTransferDestination",
									"name": "destination",
									"type": "tuple"
								},
								{
									"internalType": "address",
									"name": "destcurrencyid",
									"type": "address"
								},
								{
									"internalType": "address",
									"name": "destsystemid",
									"type": "address"
								},
								{
									"internalType": "address",
									"name": "secondreserveid",
									"type": "address"
								}
							],
							"internalType": "struct VerusObjects.CReserveTransfer[]",
							"name": "transfers",
							"type": "tuple[]"
						}
					],
					"internalType": "struct VerusObjects.CReserveTransferSet",
					"name": "",
					"type": "tuple"
				}
			],
			"stateMutability": "view",
			"type": "function"
		},
		{
			"inputs": [
				{
					"internalType": "uint256",
					"name": "_startBlock",
					"type": "uint256"
				},
				{
					"internalType": "uint256",
					"name": "_endBlock",
					"type": "uint256"
				}
			],
			"name": "getReadyExportsByRange",
			"outputs": [
				{
					"components": [
						{
							"internalType": "uint256",
							"name": "position",
							"type": "uint256"
						},
						{
							"internalType": "uint256",
							"name": "blockHeight",
							"type": "uint256"
						},
						{
							"internalType": "bytes32",
							"name": "exportHash",
							"type": "bytes32"
						},
						{
							"components": [
								{
									"internalType": "uint32",
									"name": "version",
									"type": "uint32"
								},
								{
									"components": [
										{
											"internalType": "address",
											"name": "currency",
											"type": "address"
										},
										{
											"internalType": "uint64",
											"name": "amount",
											"type": "uint64"
										}
									],
									"internalType": "struct VerusObjects.CCurrencyValueMap",
									"name": "currencyvalue",
									"type": "tuple"
								},
								{
									"internalType": "uint32",
									"name": "flags",
									"type": "uint32"
								},
								{
									"internalType": "address",
									"name": "feecurrencyid",
									"type": "address"
								},
								{
									"internalType": "uint256",
									"name": "fees",
									"type": "uint256"
								},
								{
									"components": [
										{
											"internalType": "uint8",
											"name": "destinationtype",
											"type": "uint8"
										},
										{
											"internalType": "address",
											"name": "destinationaddress",
											"type": "address"
										}
									],
									"internalType": "struct VerusObjectsCommon.CTransferDestination",
									"name": "destination",
									"type": "tuple"
								},
								{
									"internalType": "address",
									"name": "destcurrencyid",
									"type": "address"
								},
								{
									"internalType": "address",
									"name": "destsystemid",
									"type": "address"
								},
								{
									"internalType": "address",
									"name": "secondreserveid",
									"type": "address"
								}
							],
							"internalType": "struct VerusObjects.CReserveTransfer[]",
							"name": "transfers",
							"type": "tuple[]"
						}
					],
					"internalType": "struct VerusObjects.CReserveTransferSet[]",
					"name": "",
					"type": "tuple[]"
				}
			],
			"stateMutability": "view",
			"type": "function"
		},
		{
			"inputs": [
				{
					"internalType": "uint256",
					"name": "",
					"type": "uint256"
				}
			],
			"name": "hashedCRTs",
			"outputs": [
				{
					"internalType": "bytes32",
					"name": "",
					"type": "bytes32"
				}
			],
			"stateMutability": "view",
			"type": "function"
		},
		{
			"inputs": [],
			"name": "lastimport",
			"outputs": [
				{
					"internalType": "uint256",
					"name": "height",
					"type": "uint256"
				},
				{
					"internalType": "bytes32",
					"name": "txid",
					"type": "bytes32"
				}
			],
			"stateMutability": "view",
			"type": "function"
		},
		{
			"inputs": [],
			"name": "poolSize",
			"outputs": [
				{
					"internalType": "uint256",
					"name": "",
					"type": "uint256"
				}
			],
			"stateMutability": "view",
			"type": "function"
		},
		{
			"inputs": [
				{
					"internalType": "bytes32",
					"name": "",
					"type": "bytes32"
				}
			],
			"name": "processedTxids",
			"outputs": [
				{
					"internalType": "bool",
					"name": "",
					"type": "bool"
				}
			],
			"stateMutability": "view",
			"type": "function"
		},
		{
			"inputs": [
				{
					"internalType": "uint256",
					"name": "",
					"type": "uint256"
				}
			],
			"name": "readyExportHashes",
			"outputs": [
				{
					"internalType": "bytes32",
					"name": "",
					"type": "bytes32"
				}
			],
			"stateMutability": "view",
			"type": "function"
		},
		{
			"inputs": [
				{
					"internalType": "uint256",
					"name": "",
					"type": "uint256"
				}
			],
			"name": "readyExportsByBlock",
			"outputs": [
				{
					"internalType": "uint256",
					"name": "index",
					"type": "uint256"
				},
				{
					"internalType": "bool",
					"name": "created",
					"type": "bool"
				}
			],
			"stateMutability": "view",
			"type": "function"
		},
		{
			"inputs": [
				{
					"components": [
						{
							"internalType": "uint256",
							"name": "height",
							"type": "uint256"
						},
						{
							"internalType": "bytes32",
							"name": "txid",
							"type": "bytes32"
						},
						{
							"internalType": "uint256",
							"name": "txoutnum",
							"type": "uint256"
						},
						{
							"components": [
								{
									"internalType": "uint16",
									"name": "version",
									"type": "uint16"
								},
								{
									"internalType": "uint16",
									"name": "flags",
									"type": "uint16"
								},
								{
									"internalType": "address",
									"name": "sourcesystemid",
									"type": "address"
								},
								{
									"internalType": "uint32",
									"name": "sourceheightstart",
									"type": "uint32"
								},
								{
									"internalType": "uint32",
									"name": "sourceheightend",
									"type": "uint32"
								},
								{
									"internalType": "address",
									"name": "destinationsystemid",
									"type": "address"
								},
								{
									"internalType": "address",
									"name": "destinationcurrencyid",
									"type": "address"
								},
								{
									"internalType": "uint32",
									"name": "numinputs",
									"type": "uint32"
								},
								{
									"components": [
										{
											"internalType": "address",
											"name": "currency",
											"type": "address"
										},
										{
											"internalType": "uint64",
											"name": "amount",
											"type": "uint64"
										}
									],
									"internalType": "struct VerusObjects.CCurrencyValueMap[]",
									"name": "totalamounts",
									"type": "tuple[]"
								},
								{
									"components": [
										{
											"internalType": "address",
											"name": "currency",
											"type": "address"
										},
										{
											"internalType": "uint64",
											"name": "amount",
											"type": "uint64"
										}
									],
									"internalType": "struct VerusObjects.CCurrencyValueMap[]",
									"name": "totalfees",
									"type": "tuple[]"
								},
								{
									"internalType": "bytes32",
									"name": "hashtransfers",
									"type": "bytes32"
								},
								{
									"components": [
										{
											"internalType": "address",
											"name": "currency",
											"type": "address"
										},
										{
											"internalType": "uint64",
											"name": "amount",
											"type": "uint64"
										}
									],
									"internalType": "struct VerusObjects.CCurrencyValueMap[]",
									"name": "totalburned",
									"type": "tuple[]"
								},
								{
									"components": [
										{
											"internalType": "uint8",
											"name": "destinationtype",
											"type": "uint8"
										},
										{
											"internalType": "address",
											"name": "destinationaddress",
											"type": "address"
										}
									],
									"internalType": "struct VerusObjectsCommon.CTransferDestination",
									"name": "rewardaddress",
									"type": "tuple"
								},
								{
									"internalType": "int32",
									"name": "firstinput",
									"type": "int32"
								}
							],
							"internalType": "struct VerusObjects.CCrossChainExport",
							"name": "exportinfo",
							"type": "tuple"
						},
						{
							"components": [
								{
									"internalType": "uint8",
									"name": "version",
									"type": "uint8"
								},
								{
									"internalType": "uint8",
									"name": "typeC",
									"type": "uint8"
								},
								{
									"components": [
										{
											"internalType": "uint8",
											"name": "branchType",
											"type": "uint8"
										},
										{
											"components": [
												{
													"internalType": "uint8",
													"name": "CMerkleBranchBase",
													"type": "uint8"
												},
												{
													"internalType": "uint32",
													"name": "nIndex",
													"type": "uint32"
												},
												{
													"internalType": "uint32",
													"name": "nSize",
													"type": "uint32"
												},
												{
													"internalType": "bytes32[]",
													"name": "branch",
													"type": "bytes32[]"
												}
											],
											"internalType": "struct VerusObjects.CMerkleBranch",
											"name": "proofSequence",
											"type": "tuple"
										}
									],
									"internalType": "struct VerusObjects.CTXProof[]",
									"name": "txproof",
									"type": "tuple[]"
								},
								{
									"components": [
										{
											"internalType": "uint8",
											"name": "elType",
											"type": "uint8"
										},
										{
											"internalType": "uint8",
											"name": "elIdx",
											"type": "uint8"
										},
										{
											"internalType": "bytes",
											"name": "elVchObj",
											"type": "bytes"
										},
										{
											"components": [
												{
													"internalType": "uint8",
													"name": "branchType",
													"type": "uint8"
												},
												{
													"components": [
														{
															"internalType": "uint8",
															"name": "CMerkleBranchBase",
															"type": "uint8"
														},
														{
															"internalType": "uint32",
															"name": "nIndex",
															"type": "uint32"
														},
														{
															"internalType": "uint32",
															"name": "nSize",
															"type": "uint32"
														},
														{
															"internalType": "bytes32[]",
															"name": "branch",
															"type": "bytes32[]"
														}
													],
													"internalType": "struct VerusObjects.CMerkleBranch",
													"name": "proofSequence",
													"type": "tuple"
												}
											],
											"internalType": "struct VerusObjects.CTXProof[]",
											"name": "elProof",
											"type": "tuple[]"
										},
										{
											"internalType": "uint32",
											"name": "VchObjIndex",
											"type": "uint32"
										}
									],
									"internalType": "struct VerusObjects.CComponents[]",
									"name": "components",
									"type": "tuple[]"
								}
							],
							"internalType": "struct VerusObjects.CPtransactionproof",
							"name": "partialtransactionproof",
							"type": "tuple"
						},
						{
							"components": [
								{
									"internalType": "uint32",
									"name": "version",
									"type": "uint32"
								},
								{
									"components": [
										{
											"internalType": "address",
											"name": "currency",
											"type": "address"
										},
										{
											"internalType": "uint64",
											"name": "amount",
											"type": "uint64"
										}
									],
									"internalType": "struct VerusObjects.CCurrencyValueMap",
									"name": "currencyvalue",
									"type": "tuple"
								},
								{
									"internalType": "uint32",
									"name": "flags",
									"type": "uint32"
								},
								{
									"internalType": "address",
									"name": "feecurrencyid",
									"type": "address"
								},
								{
									"internalType": "uint256",
									"name": "fees",
									"type": "uint256"
								},
								{
									"components": [
										{
											"internalType": "uint8",
											"name": "destinationtype",
											"type": "uint8"
										},
										{
											"internalType": "address",
											"name": "destinationaddress",
											"type": "address"
										}
									],
									"internalType": "struct VerusObjectsCommon.CTransferDestination",
									"name": "destination",
									"type": "tuple"
								},
								{
									"internalType": "address",
									"name": "destcurrencyid",
									"type": "address"
								},
								{
									"internalType": "address",
									"name": "destsystemid",
									"type": "address"
								},
								{
									"internalType": "address",
									"name": "secondreserveid",
									"type": "address"
								}
							],
							"internalType": "struct VerusObjects.CReserveTransfer[]",
							"name": "transfers",
							"type": "tuple[]"
						}
					],
					"internalType": "struct VerusObjects.CReserveTransferImport[]",
					"name": "_imports",
					"type": "tuple[]"
				}
			],
			"name": "submitImports",
			"outputs": [],
			"stateMutability": "nonpayable",
			"type": "function"
		},
		{
			"inputs": [],
			"name": "upgradedAddress",
			"outputs": [
				{
					"internalType": "address",
					"name": "",
					"type": "address"
				}
			],
			"stateMutability": "view",
			"type": "function"
		}
	]
}