{
	"data": {
		"bytecode": {
			"linkReferences": {},
			"object": "60806040526000600660146101000a81548160ff021916908315150217905550600060085560006009556000600a556000600b553480156200004057600080fd5b50604051620064aa380380620064aa833981810160405281019062000066919062000428565b33600660006101000a81548173ffffffffffffffffffffffffffffffffffffffff021916908373ffffffffffffffffffffffffffffffffffffffff1602179055508a600260006101000a81548173ffffffffffffffffffffffffffffffffffffffff021916908373ffffffffffffffffffffffffffffffffffffffff160217905550896000806101000a81548173ffffffffffffffffffffffffffffffffffffffff021916908373ffffffffffffffffffffffffffffffffffffffff16021790555088600160006101000a81548173ffffffffffffffffffffffffffffffffffffffff021916908373ffffffffffffffffffffffffffffffffffffffff16021790555087600360006101000a81548173ffffffffffffffffffffffffffffffffffffffff021916908373ffffffffffffffffffffffffffffffffffffffff16021790555086600460006101000a81548173ffffffffffffffffffffffffffffffffffffffff021916908373ffffffffffffffffffffffffffffffffffffffff16021790555085600560006101000a81548173ffffffffffffffffffffffffffffffffffffffff021916908373ffffffffffffffffffffffffffffffffffffffff16021790555084601360000181905550836013600101908051906020019062000251929190620002bb565b5082601360040190805190602001906200026d929190620002bb565b5081601360050160006101000a81548160ff02191690831515021790555080600a819055506000600f600001819055506000801b600f60010181905550505050505050505050505062000698565b828054600181600116156101000203166002900490600052602060002090601f016020900481019282620002f357600085556200033f565b82601f106200030e57805160ff19168380011785556200033f565b828001600101855582156200033f579182015b828111156200033e57825182559160200191906001019062000321565b5b5090506200034e919062000352565b5090565b5b808211156200036d57600081600090555060010162000353565b5090565b600062000388620003828462000595565b62000561565b905082815260208101848484011115620003a157600080fd5b620003ae84828562000612565b509392505050565b600081519050620003c7816200064a565b92915050565b600081519050620003de8162000664565b92915050565b600082601f830112620003f657600080fd5b81516200040884826020860162000371565b91505092915050565b60008151905062000422816200067e565b92915050565b60008060008060008060008060008060006101608c8e0312156200044b57600080fd5b60006200045b8e828f01620003b6565b9b505060206200046e8e828f01620003b6565b9a50506040620004818e828f01620003b6565b9950506060620004948e828f01620003b6565b9850506080620004a78e828f01620003b6565b97505060a0620004ba8e828f01620003b6565b96505060c0620004cd8e828f0162000411565b95505060e08c015167ffffffffffffffff811115620004eb57600080fd5b620004f98e828f01620003e4565b9450506101008c015167ffffffffffffffff8111156200051857600080fd5b620005268e828f01620003e4565b9350506101206200053a8e828f01620003cd565b9250506101406200054e8e828f0162000411565b9150509295989b509295989b9093969950565b6000604051905081810181811067ffffffffffffffff821117156200058b576200058a62000648565b5b8060405250919050565b600067ffffffffffffffff821115620005b357620005b262000648565b5b601f19601f8301169050602081019050919050565b6000620005d582620005e8565b9050919050565b60008115159050919050565b600073ffffffffffffffffffffffffffffffffffffffff82169050919050565b6000819050919050565b60005b838110156200063257808201518184015260208101905062000615565b8381111562000642576000848401525b50505050565bfe5b6200065581620005c8565b81146200066157600080fd5b50565b6200066f81620005dc565b81146200067b57600080fd5b50565b620006898162000608565b81146200069557600080fd5b50565b615e0280620006a86000396000f3fe6080604052600436106101405760003560e01c80634ec18db9116100b6578063c17a4eef1161006f578063c17a4eef14610495578063d294f093146104d3578063d83aa63c146104fe578063e45b909d1461053b578063e4804abc14610578578063f9023e0a146105b557610140565b80634ec18db9146103575780634fcf4e2a146103825780635f2edcbe146103ab5780637e0b2492146103d75780637e3e661b14610414578063a01c6f4e1461045857610140565b80632a9e72a6116101085780632a9e72a61461020d578063388eee6c1461024a5780633ee2ce85146102875780633f067b20146102c457806342ce5011146102ef57806344e5ffd31461031a57610140565b80630e136b191461014557806312d9f8e0146101705780631a2d86291461018c578063231b0268146101b757806326976e3f146101e2575b600080fd5b34801561015157600080fd5b5061015a6105e5565b604051610167919061547c565b60405180910390f35b61018a600480360381019061018591906143f3565b6105f8565b005b34801561019857600080fd5b506101a1610a20565b6040516101ae919061565a565b60405180910390f35b3480156101c357600080fd5b506101cc610bc8565b6040516101d9919061567c565b60405180910390f35b3480156101ee57600080fd5b506101f7610bce565b604051610204919061532d565b60405180910390f35b34801561021957600080fd5b50610234600480360381019061022f9190614365565b610bf4565b6040516102419190615616565b60405180910390f35b34801561025657600080fd5b50610271600480360381019061026c9190614365565b610f45565b60405161027e9190615769565b60405180910390f35b34801561029357600080fd5b506102ae60048036038101906102a99190614365565b610f62565b6040516102bb91906154b2565b60405180910390f35b3480156102d057600080fd5b506102d961101e565b6040516102e6919061567c565b60405180910390f35b3480156102fb57600080fd5b50610304611024565b604051610311919061567c565b60405180910390f35b34801561032657600080fd5b50610341600480360381019061033c9190614365565b61102a565b60405161034e9190615497565b60405180910390f35b34801561036357600080fd5b5061036c61104e565b604051610379919061567c565b60405180910390f35b34801561038e57600080fd5b506103a960048036038101906103a49190614279565b611054565b005b3480156103b757600080fd5b506103c061108e565b6040516103ce9291906156c0565b60405180910390f35b3480156103e357600080fd5b506103fe60048036038101906103f99190614198565b6110a0565b60405161040b919061567c565b60405180910390f35b34801561042057600080fd5b5061043b600480360381019061043691906143b7565b6110b8565b60405161044f9897969594939291906156e9565b60405180910390f35b34801561046457600080fd5b5061047f600480360381019061047a9190614198565b6112b8565b60405161048c9190615638565b60405180910390f35b3480156104a157600080fd5b506104bc60048036038101906104b79190614365565b61165a565b6040516104ca929190615697565b60405180910390f35b3480156104df57600080fd5b506104e861168b565b6040516104f5919061567c565b60405180910390f35b34801561050a57600080fd5b5061052560048036038101906105209190614365565b6117b4565b60405161053291906154b2565b60405180910390f35b34801561054757600080fd5b50610562600480360381019061055d9190614365565b611870565b60405161056f9190615497565b60405180910390f35b34801561058457600080fd5b5061059f600480360381019061059a91906143b7565b611894565b6040516105ac9190615408565b60405180910390f35b6105cf60048036038101906105ca91906141c1565b6119c3565b6040516105dc919061567c565b60405180910390f35b600660149054906101000a900460ff1681565b600660149054906101000a900460ff1615610648576040517f08c379a000000000000000000000000000000000000000000000000000000000815260040161063f906154f4565b60405180910390fd5b8267ffffffffffffffff16655af3107a40000134101561069d576040517f08c379a0000000000000000000000000000000000000000000000000000000008152600401610694906155d4565b60405180910390fd5b7367460c2f56774ed27eeb8685f29f6cec0b090b0073ffffffffffffffffffffffffffffffffffffffff168673ffffffffffffffffffffffffffffffffffffffff161415610720576040517f08c379a000000000000000000000000000000000000000000000000000000000815260040161071790615534565b60405180910390fd5b34600860008282540192505081905550600087905060008173ffffffffffffffffffffffffffffffffffffffff1663dd62ed3e33306040518363ffffffff1660e01b8152600401610772929190615348565b60206040518083038186803b15801561078a57600080fd5b505afa15801561079e573d6000803e3d6000fd5b505050506040513d601f19601f820116820180604052508101906107c2919061438e565b90508967ffffffffffffffff168167ffffffffffffffff16101561081b576040517f08c379a0000000000000000000000000000000000000000000000000000000008152600401610812906155b4565b60405180910390fd5b8173ffffffffffffffffffffffffffffffffffffffff166323b872dd33308d67ffffffffffffffff166040518463ffffffff1660e01b815260040161086293929190615371565b602060405180830381600087803b15801561087c57600080fd5b505af1158015610890573d6000803e3d6000fd5b505050506040513d601f19601f820116820180604052508101906108b491906142ba565b508173ffffffffffffffffffffffffffffffffffffffff1663095ea7b360008054906101000a900473ffffffffffffffffffffffffffffffffffffffff168c67ffffffffffffffff166040518363ffffffff1660e01b815260040161091a9291906153a8565b602060405180830381600087803b15801561093457600080fd5b505af1158015610948573d6000803e3d6000fd5b505050506040513d601f19601f8201168201806040525081019061096c91906142ba565b5060008054906101000a900473ffffffffffffffffffffffffffffffffffffffff1673ffffffffffffffffffffffffffffffffffffffff16639033ef3f8a8c67ffffffffffffffff166040518363ffffffff1660e01b81526004016109d29291906153a8565b600060405180830381600087803b1580156109ec57600080fd5b505af1158015610a00573d6000803e3d6000fd5b50505050610a148a8a8a8a8a8a8a8a611add565b50505050505050505050565b610a28612b91565b610a30612b91565b60136000015481600001818152505060136001018054600181600116156101000203166002900480601f016020809104026020016040519081016040528092919081815260200182805460018160011615610100020316600290048015610ad85780601f10610aad57610100808354040283529160200191610ad8565b820191906000526020600020905b815481529060010190602001808311610abb57829003601f168201915b50505050508160200181905250438160400181815250504281606001818152505060136004018054600181600116156101000203166002900480601f016020809104026020016040519081016040528092919081815260200182805460018160011615610100020316600290048015610b925780601f10610b6757610100808354040283529160200191610b92565b820191906000526020600020905b815481529060010190602001808311610b7557829003601f168201915b50505050508160800181905250601360050160009054906101000a900460ff168160a00190151590811515815250508091505090565b600b5481565b600760009054906101000a900473ffffffffffffffffffffffffffffffffffffffff1681565b610bfc612bc9565b60006011600084815260200190815260200160002060000154905060006040518060800160405280838152602001858152602001601b8481548110610c3d57fe5b90600052602060002001548152602001600e8481548110610c5a57fe5b90600052602060002001805480602002602001604051908101604052809291908181526020016000905b82821015610f325783829060005260206000209060070201604051806101000160405290816000820160009054906101000a900463ffffffff1663ffffffff1663ffffffff168152602001600182016040518060400160405290816000820160009054906101000a900473ffffffffffffffffffffffffffffffffffffffff1673ffffffffffffffffffffffffffffffffffffffff1673ffffffffffffffffffffffffffffffffffffffff1681526020016000820160149054906101000a900467ffffffffffffffff1667ffffffffffffffff1667ffffffffffffffff168152505081526020016002820160009054906101000a900463ffffffff1663ffffffff1663ffffffff1681526020016002820160049054906101000a900473ffffffffffffffffffffffffffffffffffffffff1673ffffffffffffffffffffffffffffffffffffffff1673ffffffffffffffffffffffffffffffffffffffff16815260200160038201548152602001600482016040518060400160405290816000820160009054906101000a900460ff1660ff1660ff1681526020016000820160019054906101000a900473ffffffffffffffffffffffffffffffffffffffff1673ffffffffffffffffffffffffffffffffffffffff1673ffffffffffffffffffffffffffffffffffffffff168152505081526020016005820160009054906101000a900473ffffffffffffffffffffffffffffffffffffffff1673ffffffffffffffffffffffffffffffffffffffff1673ffffffffffffffffffffffffffffffffffffffff1681526020016006820160009054906101000a900473ffffffffffffffffffffffffffffffffffffffff1673ffffffffffffffffffffffffffffffffffffffff1673ffffffffffffffffffffffffffffffffffffffff168152505081526020019060010190610c84565b5050505081525090508092505050919050565b6000806402540be4008381610f5657fe5b04905080915050919050565b601a8181548110610f7257600080fd5b906000526020600020016000915090508054600181600116156101000203166002900480601f0160208091040260200160405190810160405280929190818152602001828054600181600116156101000203166002900480156110165780601f10610feb57610100808354040283529160200191611016565b820191906000526020600020905b815481529060010190602001808311610ff957829003601f168201915b505050505081565b60085481565b60095481565b601b818154811061103a57600080fd5b906000526020600020016000915090505481565b600a5481565b60005b815181101561108a5761107c82828151811061106f57fe5b6020026020010151612583565b508080600101915050611057565b5050565b600f8060000154908060010154905082565b60126020528060005260406000206000915090505481565b600e82815481106110c857600080fd5b9060005260206000200181815481106110e057600080fd5b9060005260206000209060070201600091509150508060000160009054906101000a900463ffffffff1690806001016040518060400160405290816000820160009054906101000a900473ffffffffffffffffffffffffffffffffffffffff1673ffffffffffffffffffffffffffffffffffffffff1673ffffffffffffffffffffffffffffffffffffffff1681526020016000820160149054906101000a900467ffffffffffffffff1667ffffffffffffffff1667ffffffffffffffff1681525050908060020160009054906101000a900463ffffffff16908060020160049054906101000a900473ffffffffffffffffffffffffffffffffffffffff1690806003015490806004016040518060400160405290816000820160009054906101000a900460ff1660ff1660ff1681526020016000820160019054906101000a900473ffffffffffffffffffffffffffffffffffffffff1673ffffffffffffffffffffffffffffffffffffffff1673ffffffffffffffffffffffffffffffffffffffff1681525050908060050160009054906101000a900473ffffffffffffffffffffffffffffffffffffffff16908060060160009054906101000a900473ffffffffffffffffffffffffffffffffffffffff16905088565b6112c0612bf4565b6112c8612bf4565b6013600001548160000181815250506000600460009054906101000a900473ffffffffffffffffffffffffffffffffffffffff1673ffffffffffffffffffffffffffffffffffffffff1663aaf34b946040518163ffffffff1660e01b815260040160006040518083038186803b15801561134157600080fd5b505afa158015611355573d6000803e3d6000fd5b505050506040513d6000823e3d601f19601f8201168201806040525081019061137e9190614238565b90506000600460009054906101000a900473ffffffffffffffffffffffffffffffffffffffff1673ffffffffffffffffffffffffffffffffffffffff166320cd6ba16040518163ffffffff1660e01b815260040160206040518083038186803b1580156113ea57600080fd5b505afa1580156113fe573d6000803e3d6000fd5b505050506040513d601f19601f8201168201806040525081019061142291906144a5565b90506000807367460c2f56774ed27eeb8685f29f6cec0b090b0073ffffffffffffffffffffffffffffffffffffffff168773ffffffffffffffffffffffffffffffffffffffff161415611492577367460c2f56774ed27eeb8685f29f6cec0b090b00915063044aa200905061149a565b869150600090505b60405180610200016040528060136000015481526020016040518060400160405280600481526020017f564554480000000000000000000000000000000000000000000000000000000081525081526020017367460c2f56774ed27eeb8685f29f6cec0b090b0073ffffffffffffffffffffffffffffffffffffffff16815260200173a6ef9ea235635e328124ff3429db9f9e91b64e2d73ffffffffffffffffffffffffffffffffffffffff16815260200173a6ef9ea235635e328124ff3429db9f9e91b64e2d73ffffffffffffffffffffffffffffffffffffffff168152602001600260ff168152602001600360ff1681526020016040518060400160405280600960ff1681526020018573ffffffffffffffffffffffffffffffffffffffff16815250815260200173a6ef9ea235635e328124ff3429db9f9e91b64e2d73ffffffffffffffffffffffffffffffffffffffff16815260200160008152602001600081526020018281526020018281526020017367460c2f56774ed27eeb8685f29f6cec0b090b0073ffffffffffffffffffffffffffffffffffffffff1681526020018581526020018460ff1681525094508495505050505050919050565b60116020528060005260406000206000915090508060000154908060010160009054906101000a900460ff16905082565b6000600660149054906101000a900460ff16156116dd576040517f08c379a00000000000000000000000000000000000000000000000000000000081526004016116d4906154f4565b60405180910390fd5b6000601260003373ffffffffffffffffffffffffffffffffffffffff1673ffffffffffffffffffffffffffffffffffffffff16815260200190815260200160002054111561176f5761176e601260003373ffffffffffffffffffffffffffffffffffffffff1673ffffffffffffffffffffffffffffffffffffffff1681526020019081526020016000205433612930565b5b601260003373ffffffffffffffffffffffffffffffffffffffff1673ffffffffffffffffffffffffffffffffffffffff16815260200190815260200160002054905090565b601981815481106117c457600080fd5b906000526020600020016000915090508054600181600116156101000203166002900480601f0160208091040260200160405190810160405280929190818152602001828054600181600116156101000203166002900480156118685780601f1061183d57610100808354040283529160200191611868565b820191906000526020600020905b81548152906001019060200180831161184b57829003601f168201915b505050505081565b600c818154811061188057600080fd5b906000526020600020016000915090505481565b60606000600b548410156118a857600b5493505b60008490505b8381116118f2576011600082815260200190815260200160002060010160009054906101000a900460ff16156118e5576001820191505b80806001019150506118ae565b5060008167ffffffffffffffff8111801561190c57600080fd5b5060405190808252806020026020018201604052801561194657816020015b611933612bc9565b81526020019060019003908161192b5790505b5090506000808690505b8581116119b6576011600082815260200190815260200160002060010160009054906101000a900460ff16156119a95761198981610bf4565b83838151811061199557fe5b602002602001018190525081806001019250505b8080600101915050611950565b5081935050505092915050565b6000600660149054906101000a900460ff1615611a15576040517f08c379a0000000000000000000000000000000000000000000000000000000008152600401611a0c906154f4565b60405180910390fd5b655af3107a40003411611a5d576040517f08c379a0000000000000000000000000000000000000000000000000000000008152600401611a5490615554565b60405180910390fd5b6000655af3107a40003403905080600960008282540192505081905550655af3107a4000600860008282540192505081905550611ad0611a9c82610f45565b7367460c2f56774ed27eeb8685f29f6cec0b090b00898973a6ef9ea235635e328124ff3429db9f9e91b64e2d898b8a611add565b8091505095945050505050565b6000439050600080600060419050600060405180604001604052808b60ff1681526020018c73ffffffffffffffffffffffffffffffffffffffff168152509050600060405180604001604052808e73ffffffffffffffffffffffffffffffffffffffff1681526020018f67ffffffffffffffff1681525090506000604051806101000160405280600163ffffffff1681526020018381526020018563ffffffff1681526020018a73ffffffffffffffffffffffffffffffffffffffff1681526020018b81526020018481526020018c73ffffffffffffffffffffffffffffffffffffffff1681526020018973ffffffffffffffffffffffffffffffffffffffff168152509050611bf581608001518260600151612a0e565b15611c0f578060800151600a600082825403925050819055505b6011600088815260200190815260200160002060010160009054906101000a900460ff1615611ebe5760116000888152602001908152602001600020600001549550600e8681548110611c5e57fe5b9060005260206000200181908060018154018082558091505060019003906000526020600020906007020160009091909190915060008201518160000160006101000a81548163ffffffff021916908363ffffffff16021790555060208201518160010160008201518160000160006101000a81548173ffffffffffffffffffffffffffffffffffffffff021916908373ffffffffffffffffffffffffffffffffffffffff16021790555060208201518160000160146101000a81548167ffffffffffffffff021916908367ffffffffffffffff160217905550505060408201518160020160006101000a81548163ffffffff021916908363ffffffff16021790555060608201518160020160046101000a81548173ffffffffffffffffffffffffffffffffffffffff021916908373ffffffffffffffffffffffffffffffffffffffff1602179055506080820151816003015560a08201518160040160008201518160000160006101000a81548160ff021916908360ff16021790555060208201518160000160016101000a81548173ffffffffffffffffffffffffffffffffffffffff021916908373ffffffffffffffffffffffffffffffffffffffff160217905550505060c08201518160050160006101000a81548173ffffffffffffffffffffffffffffffffffffffff021916908373ffffffffffffffffffffffffffffffffffffffff16021790555060e08201518160060160006101000a81548173ffffffffffffffffffffffffffffffffffffffff021916908373ffffffffffffffffffffffffffffffffffffffff1602179055505050600094506121bb565b600d81908060018154018082558091505060019003906000526020600020906007020160009091909190915060008201518160000160006101000a81548163ffffffff021916908363ffffffff16021790555060208201518160010160008201518160000160006101000a81548173ffffffffffffffffffffffffffffffffffffffff021916908373ffffffffffffffffffffffffffffffffffffffff16021790555060208201518160000160146101000a81548167ffffffffffffffff021916908367ffffffffffffffff160217905550505060408201518160020160006101000a81548163ffffffff021916908363ffffffff16021790555060608201518160020160046101000a81548173ffffffffffffffffffffffffffffffffffffffff021916908373ffffffffffffffffffffffffffffffffffffffff1602179055506080820151816003015560a08201518160040160008201518160000160006101000a81548160ff021916908360ff16021790555060208201518160000160016101000a81548173ffffffffffffffffffffffffffffffffffffffff021916908373ffffffffffffffffffffffffffffffffffffffff160217905550505060c08201518160050160006101000a81548173ffffffffffffffffffffffffffffffffffffffff021916908373ffffffffffffffffffffffffffffffffffffffff16021790555060e08201518160060160006101000a81548173ffffffffffffffffffffffffffffffffffffffff021916908373ffffffffffffffffffffffffffffffffffffffff1602179055505050600e600d90806001815401808255809150506001900390600052602060002001600090919091909150908054612144929190612ceb565b506001600e80549050039550604051806040016040528087815260200160011515815250601160008981526020019081526020016000206000820151816000015560208201518160010160006101000a81548160ff021916908315150217905550905050600d60006121b69190613043565b600194505b6000600560009054906101000a900473ffffffffffffffffffffffffffffffffffffffff1673ffffffffffffffffffffffffffffffffffffffff1663fe3c423b600e898154811061220857fe5b906000526020600020016040518263ffffffff1660e01b815260040161222e919061542a565b600060405180830381600087803b15801561224857600080fd5b505af115801561225c573d6000803e3d6000fd5b505050506040513d6000823e3d601f19601f820116820180604052508101906122859190614324565b90506000600160009054906101000a900473ffffffffffffffffffffffffffffffffffffffff1673ffffffffffffffffffffffffffffffffffffffff1663343bee60836040518263ffffffff1660e01b81526004016122e491906155f4565b60006040518083038186803b1580156122fc57600080fd5b505afa158015612310573d6000803e3d6000fd5b505050506040513d6000823e3d601f19601f8201168201806040525081019061233991906142e3565b90506000600160009054906101000a900473ffffffffffffffffffffffffffffffffffffffff1673ffffffffffffffffffffffffffffffffffffffff1663b04d197a600e8b8154811061238857fe5b9060005260206000200160006040518363ffffffff1660e01b81526004016123b192919061544c565b60006040518083038186803b1580156123c957600080fd5b505afa1580156123dd573d6000803e3d6000fd5b505050506040513d6000823e3d601f19601f8201168201806040525081019061240691906142e3565b9050601981908060018154018082558091505060019003906000526020600020016000909190919091509080519060200190612443929190613067565b5060008180519060200120905060008383604051602001612465929190615309565b6040516020818303038152906040529050601a819080600181540180825580915050600190039060005260206000200160009091909190915090805190602001906124b1929190613067565b50601b829080600181540180825580915050600190039060005260206000200160009091909190915055600084846040516020016124f0929190615309565b6040516020818303038152906040528051906020012090508a1561253c57600c819080600181540180825580915050600190039060005260206000200160009091909190915055612559565b80600c8d8154811061254a57fe5b90600052602060002001819055505b6000600b54141561256c578c600b819055505b505050505050505050505050505050505050505050565b6000600f600001548260000151101580156125a75750600f60010154826020015114155b6125e6576040517f08c379a00000000000000000000000000000000000000000000000000000000081526004016125dd90615514565b60405180910390fd5b8160000151600f600001819055508160200151600f6001018190555060005b8260a0015151811015612926577367460c2f56774ed27eeb8685f29f6cec0b090b0073ffffffffffffffffffffffffffffffffffffffff168360a00151828151811061264d57fe5b602002602001015160c0015173ffffffffffffffffffffffffffffffffffffffff161415612705576126c78360a00151828151811061268857fe5b6020026020010151602001516020015167ffffffffffffffff168460a0015183815181106126b257fe5b602002602001015160a0015160200151612930565b8260a0015181815181106126d757fe5b6020026020010151602001516020015167ffffffffffffffff166009600082825403925050819055506127ee565b60008054906101000a900473ffffffffffffffffffffffffffffffffffffffff1673ffffffffffffffffffffffffffffffffffffffff1663abe900e48460a00151838151811061275157fe5b602002602001015160c001518560a00151848151811061276d57fe5b602002602001015160200151602001518660a00151858151811061278d57fe5b602002602001015160a00151602001516040518463ffffffff1660e01b81526004016127bb939291906153d1565b600060405180830381600087803b1580156127d557600080fd5b505af11580156127e9573d6000803e3d6000fd5b505050505b60008360a00151828151811061280057fe5b60200260200101516080015111801561287357507367460c2f56774ed27eeb8685f29f6cec0b090b0073ffffffffffffffffffffffffffffffffffffffff168360a00151828151811061284f57fe5b60200260200101516060015173ffffffffffffffffffffffffffffffffffffffff16145b15612919578260a00151818151811061288857fe5b602002602001015160800151601260003373ffffffffffffffffffffffffffffffffffffffff1673ffffffffffffffffffffffffffffffffffffffff1681526020019081526020016000205401601260003373ffffffffffffffffffffffffffffffffffffffff1673ffffffffffffffffffffffffffffffffffffffff168152602001908152602001600020819055505b8080600101915050612605565b5060019050919050565b600660149054906101000a900460ff1615612980576040517f08c379a0000000000000000000000000000000000000000000000000000000008152600401612977906154f4565b60405180910390fd5b478211156129c3576040517f08c379a00000000000000000000000000000000000000000000000000000000081526004016129ba90615574565b60405180910390fd5b8073ffffffffffffffffffffffffffffffffffffffff166108fc839081150290604051600060405180830381858888f19350505050158015612a09573d6000803e3d6000fd5b505050565b60006001600460009054906101000a900473ffffffffffffffffffffffffffffffffffffffff1673ffffffffffffffffffffffffffffffffffffffff1663ec48ae3c6040518163ffffffff1660e01b815260040160206040518083038186803b158015612a7a57600080fd5b505afa158015612a8e573d6000803e3d6000fd5b505050506040513d601f19601f82011682018060405250810190612ab2919061438e565b10612ac05760009050612b8b565b73a6ef9ea235635e328124ff3429db9f9e91b64e2d73ffffffffffffffffffffffffffffffffffffffff168273ffffffffffffffffffffffffffffffffffffffff1614612b42576040517f08c379a0000000000000000000000000000000000000000000000000000000008152600401612b39906154d4565b60405180910390fd5b82600a5411612b86576040517f08c379a0000000000000000000000000000000000000000000000000000000008152600401612b7d90615594565b60405180910390fd5b600190505b92915050565b6040518060c0016040528060008152602001606081526020016000815260200160008152602001606081526020016000151581525090565b6040518060800160405280600081526020016000815260200160008019168152602001606081525090565b6040518061020001604052806000815260200160608152602001600073ffffffffffffffffffffffffffffffffffffffff168152602001600073ffffffffffffffffffffffffffffffffffffffff168152602001600073ffffffffffffffffffffffffffffffffffffffff168152602001600060ff168152602001600060ff168152602001612c816130f5565b8152602001600073ffffffffffffffffffffffffffffffffffffffff16815260200160008152602001600081526020016000815260200160008152602001600073ffffffffffffffffffffffffffffffffffffffff16815260200160608152602001600081525090565b8280548282559060005260206000209060070281019282156130325760005260206000209160070282015b828111156130315782826000820160009054906101000a900463ffffffff168160000160006101000a81548163ffffffff021916908363ffffffff16021790555060018201816001016000820160009054906101000a900473ffffffffffffffffffffffffffffffffffffffff168160000160006101000a81548173ffffffffffffffffffffffffffffffffffffffff021916908373ffffffffffffffffffffffffffffffffffffffff1602179055506000820160149054906101000a900467ffffffffffffffff168160000160146101000a81548167ffffffffffffffff021916908367ffffffffffffffff16021790555050506002820160009054906101000a900463ffffffff168160020160006101000a81548163ffffffff021916908363ffffffff1602179055506002820160049054906101000a900473ffffffffffffffffffffffffffffffffffffffff168160020160046101000a81548173ffffffffffffffffffffffffffffffffffffffff021916908373ffffffffffffffffffffffffffffffffffffffff1602179055506003820154816003015560048201816004016000820160009054906101000a900460ff168160000160006101000a81548160ff021916908360ff1602179055506000820160019054906101000a900473ffffffffffffffffffffffffffffffffffffffff168160000160016101000a81548173ffffffffffffffffffffffffffffffffffffffff021916908373ffffffffffffffffffffffffffffffffffffffff16021790555050506005820160009054906101000a900473ffffffffffffffffffffffffffffffffffffffff168160050160006101000a81548173ffffffffffffffffffffffffffffffffffffffff021916908373ffffffffffffffffffffffffffffffffffffffff1602179055506006820160009054906101000a900473ffffffffffffffffffffffffffffffffffffffff168160060160006101000a81548173ffffffffffffffffffffffffffffffffffffffff021916908373ffffffffffffffffffffffffffffffffffffffff160217905550505091600701919060070190612d16565b5b50905061303f9190613128565b5090565b50805460008255600702906000526020600020908101906130649190613128565b50565b828054600181600116156101000203166002900490600052602060002090601f01602090048101928261309d57600085556130e4565b82601f106130b657805160ff19168380011785556130e4565b828001600101855582156130e4579182015b828111156130e35782518255916020019190600101906130c8565b5b5090506130f19190613275565b5090565b6040518060400160405280600060ff168152602001600073ffffffffffffffffffffffffffffffffffffffff1681525090565b5b8082111561327157600080820160006101000a81549063ffffffff021916905560018201600080820160006101000a81549073ffffffffffffffffffffffffffffffffffffffff02191690556000820160146101000a81549067ffffffffffffffff021916905550506002820160006101000a81549063ffffffff02191690556002820160046101000a81549073ffffffffffffffffffffffffffffffffffffffff0219169055600382016000905560048201600080820160006101000a81549060ff02191690556000820160016101000a81549073ffffffffffffffffffffffffffffffffffffffff021916905550506005820160006101000a81549073ffffffffffffffffffffffffffffffffffffffff02191690556006820160006101000a81549073ffffffffffffffffffffffffffffffffffffffff021916905550600701613129565b5090565b5b8082111561328e576000816000905550600101613276565b5090565b60006132a56132a0846157b5565b615784565b905080838252602082019050828560208602820111156132c457600080fd5b60005b858110156132f457816132da8882613658565b8452602084019350602083019250506001810190506132c7565b5050509392505050565b600061331161330c846157e1565b615784565b9050808382526020820190508285602086028201111561333057600080fd5b60005b85811015613360578161334688826137d2565b845260208401935060208301925050600181019050613333565b5050509392505050565b600061337d6133788461580d565b615784565b9050808382526020820190508260005b858110156133bd57813585016133a3888261387a565b84526020840193506020830192505060018101905061338d565b5050509392505050565b60006133da6133d584615839565b615784565b905080838252602082019050828560408602820111156133f957600080fd5b60005b85811015613429578161340f8882613c56565b8452602084019350604083019250506001810190506133fc565b5050509392505050565b600061344661344184615839565b615784565b9050808382526020820190508285604086028201111561346557600080fd5b60005b85811015613495578161347b8882613ca2565b845260208401935060408301925050600181019050613468565b5050509392505050565b60006134b26134ad84615865565b615784565b9050808382526020820190508260005b858110156134f257813585016134d88882613e1e565b8452602084019350602083019250506001810190506134c2565b5050509392505050565b600061350f61350a84615891565b615784565b905080838252602082019050828561014086028201111561352f57600080fd5b60005b8581101561356057816135458882613f02565b84526020840193506101408301925050600181019050613532565b5050509392505050565b600061357d613578846158bd565b615784565b9050808382526020820190508260005b858110156135bd57813585016135a38882613fca565b84526020840193506020830192505060018101905061358d565b5050509392505050565b60006135da6135d5846158e9565b615784565b9050828152602081018484840111156135f257600080fd5b6135fd848285615bbe565b509392505050565b6000613618613613846158e9565b615784565b90508281526020810184848401111561363057600080fd5b61363b848285615bcd565b509392505050565b60008135905061365281615cfd565b92915050565b60008151905061366781615cfd565b92915050565b600082601f83011261367e57600080fd5b815161368e848260208601613292565b91505092915050565b600082601f8301126136a857600080fd5b81356136b88482602086016132fe565b91505092915050565b600082601f8301126136d257600080fd5b81356136e284826020860161336a565b91505092915050565b600082601f8301126136fc57600080fd5b813561370c8482602086016133c7565b91505092915050565b600082601f83011261372657600080fd5b8151613736848260208601613433565b91505092915050565b600082601f83011261375057600080fd5b813561376084826020860161349f565b91505092915050565b600082601f83011261377a57600080fd5b813561378a8482602086016134fc565b91505092915050565b600082601f8301126137a457600080fd5b81356137b484826020860161356a565b91505092915050565b6000815190506137cc81615d14565b92915050565b6000813590506137e181615d2b565b92915050565b6000815190506137f681615d2b565b92915050565b600082601f83011261380d57600080fd5b813561381d8482602086016135c7565b91505092915050565b600082601f83011261383757600080fd5b8151613847848260208601613605565b91505092915050565b60008135905061385f81615d42565b92915050565b60008151905061387481615d42565b92915050565b600060a0828403121561388c57600080fd5b61389660a0615784565b905060006138a68482850161416e565b60008301525060206138ba8482850161416e565b602083015250604082013567ffffffffffffffff8111156138da57600080fd5b6138e6848285016137fc565b604083015250606082013567ffffffffffffffff81111561390657600080fd5b61391284828501613793565b60608301525060806139268482850161411a565b60808301525092915050565b60006101e0828403121561394557600080fd5b6139506101c0615784565b90506000613960848285016140c6565b6000830152506020613974848285016140c6565b602083015250604061398884828501613643565b604083015250606061399c8482850161411a565b60608301525060806139b08482850161411a565b60808301525060a06139c484828501613643565b60a08301525060c06139d884828501613643565b60c08301525060e06139ec8482850161411a565b60e08301525061010082013567ffffffffffffffff811115613a0d57600080fd5b613a19848285016136eb565b6101008301525061012082013567ffffffffffffffff811115613a3b57600080fd5b613a47848285016136eb565b61012083015250610140613a5d848285016137d2565b6101408301525061016082013567ffffffffffffffff811115613a7f57600080fd5b613a8b848285016136eb565b61016083015250610180613aa18482850161402e565b610180830152506101c0613ab784828501613850565b6101a08301525092915050565b60006101e08284031215613ad757600080fd5b613ae26101c0615784565b90506000613af2848285016140db565b6000830152506020613b06848285016140db565b6020830152506040613b1a84828501613658565b6040830152506060613b2e8482850161412f565b6060830152506080613b428482850161412f565b60808301525060a0613b5684828501613658565b60a08301525060c0613b6a84828501613658565b60c08301525060e0613b7e8482850161412f565b60e08301525061010082015167ffffffffffffffff811115613b9f57600080fd5b613bab84828501613715565b6101008301525061012082015167ffffffffffffffff811115613bcd57600080fd5b613bd984828501613715565b61012083015250610140613bef848285016137e7565b6101408301525061016082015167ffffffffffffffff811115613c1157600080fd5b613c1d84828501613715565b61016083015250610180613c338482850161407a565b610180830152506101c0613c4984828501613865565b6101a08301525092915050565b600060408284031215613c6857600080fd5b613c726040615784565b90506000613c8284828501613643565b6000830152506020613c9684828501614144565b60208301525092915050565b600060408284031215613cb457600080fd5b613cbe6040615784565b90506000613cce84828501613658565b6000830152506020613ce284828501614159565b60208301525092915050565b600060808284031215613d0057600080fd5b613d0a6080615784565b90506000613d1a8482850161416e565b6000830152506020613d2e8482850161411a565b6020830152506040613d428482850161411a565b604083015250606082013567ffffffffffffffff811115613d6257600080fd5b613d6e84828501613697565b60608301525092915050565b600060808284031215613d8c57600080fd5b613d966080615784565b90506000613da68482850161416e565b6000830152506020613dba8482850161416e565b602083015250604082013567ffffffffffffffff811115613dda57600080fd5b613de684828501613793565b604083015250606082013567ffffffffffffffff811115613e0657600080fd5b613e12848285016136c1565b60608301525092915050565b600060c08284031215613e3057600080fd5b613e3a60c0615784565b90506000613e4a848285016140f0565b6000830152506020613e5e848285016137d2565b6020830152506040613e72848285016140f0565b604083015250606082013567ffffffffffffffff811115613e9257600080fd5b613e9e84828501613932565b606083015250608082013567ffffffffffffffff811115613ebe57600080fd5b613eca84828501613d7a565b60808301525060a082013567ffffffffffffffff811115613eea57600080fd5b613ef684828501613769565b60a08301525092915050565b60006101408284031215613f1557600080fd5b613f20610100615784565b90506000613f308482850161411a565b6000830152506020613f4484828501613c56565b6020830152506060613f588482850161411a565b6040830152506080613f6c84828501613643565b60608301525060a0613f80848285016140f0565b60808301525060c0613f948482850161402e565b60a083015250610100613fa984828501613643565b60c083015250610120613fbe84828501613643565b60e08301525092915050565b600060408284031215613fdc57600080fd5b613fe66040615784565b90506000613ff68482850161416e565b600083015250602082013567ffffffffffffffff81111561401657600080fd5b61402284828501613cee565b60208301525092915050565b60006040828403121561404057600080fd5b61404a6040615784565b9050600061405a8482850161416e565b600083015250602061406e84828501613643565b60208301525092915050565b60006040828403121561408c57600080fd5b6140966040615784565b905060006140a684828501614183565b60008301525060206140ba84828501613658565b60208301525092915050565b6000813590506140d581615d59565b92915050565b6000815190506140ea81615d59565b92915050565b6000813590506140ff81615d70565b92915050565b60008151905061411481615d70565b92915050565b60008135905061412981615d87565b92915050565b60008151905061413e81615d87565b92915050565b60008135905061415381615d9e565b92915050565b60008151905061416881615d9e565b92915050565b60008135905061417d81615db5565b92915050565b60008151905061419281615db5565b92915050565b6000602082840312156141aa57600080fd5b60006141b884828501613643565b91505092915050565b600080600080600060a086880312156141d957600080fd5b60006141e788828901613643565b95505060206141f88882890161416e565b945050604061420988828901613643565b935050606061421a888289016140f0565b925050608061422b88828901613643565b9150509295509295909350565b60006020828403121561424a57600080fd5b600082015167ffffffffffffffff81111561426457600080fd5b6142708482850161366d565b91505092915050565b60006020828403121561428b57600080fd5b600082013567ffffffffffffffff8111156142a557600080fd5b6142b18482850161373f565b91505092915050565b6000602082840312156142cc57600080fd5b60006142da848285016137bd565b91505092915050565b6000602082840312156142f557600080fd5b600082015167ffffffffffffffff81111561430f57600080fd5b61431b84828501613826565b91505092915050565b60006020828403121561433657600080fd5b600082015167ffffffffffffffff81111561435057600080fd5b61435c84828501613ac4565b91505092915050565b60006020828403121561437757600080fd5b6000614385848285016140f0565b91505092915050565b6000602082840312156143a057600080fd5b60006143ae84828501614105565b91505092915050565b600080604083850312156143ca57600080fd5b60006143d8858286016140f0565b92505060206143e9858286016140f0565b9150509250929050565b600080600080600080600080610100898b03121561441057600080fd5b600061441e8b828c01614144565b985050602061442f8b828c01613643565b97505060406144408b828c01613643565b96505060606144518b828c0161416e565b95505060806144628b828c01613643565b94505060a06144738b828c016140f0565b93505060c06144848b828c01613643565b92505060e06144958b828c01613643565b9150509295985092959890939650565b6000602082840312156144b757600080fd5b60006144c584828501614183565b91505092915050565b60006144da8383614553565b60208301905092915050565b60006144f28383614d1d565b60408301905092915050565b600061450a8383614dbb565b905092915050565b600061451e8383614e81565b6101408301905092915050565b60006145378383614f25565b6101408301905092915050565b61454d81615b88565b82525050565b61455c81615aea565b82525050565b61456b81615aea565b82525050565b600061457c8261596e565b61458681856159fc565b935061459183615919565b8060005b838110156145c25781516145a988826144ce565b97506145b4836159bb565b925050600181019050614595565b5085935050505092915050565b60006145da82615979565b6145e48185615a0d565b93506145ef83615929565b8060005b8381101561462057815161460788826144e6565b9750614612836159c8565b9250506001810190506145f3565b5085935050505092915050565b600061463882615984565b6146428185615a1e565b93508360208202850161465485615939565b8060005b85811015614690578484038952815161467185826144fe565b945061467c836159d5565b925060208a01995050600181019050614658565b50829750879550505050505092915050565b60006146ad8261598f565b6146b78185615a2f565b93506146c283615949565b8060005b838110156146f35781516146da8882614512565b97506146e5836159e2565b9250506001810190506146c6565b5085935050505092915050565b600061470b8261599a565b6147158185615a40565b935061472083615959565b8060005b838110156147505781614737888261452b565b9750614742836159ef565b925050600181019050614724565b5085935050505092915050565b61476681615afc565b82525050565b61477581615afc565b82525050565b61478481615b08565b82525050565b61479381615b08565b82525050565b60006147a4826159a5565b6147ae8185615a51565b93506147be818560208601615bcd565b6147c781615cb8565b840191505092915050565b60006147dd826159a5565b6147e78185615a62565b93506147f7818560208601615bcd565b80840191505092915050565b61480c81615b12565b82525050565b600061481d826159b0565b6148278185615a6d565b9350614837818560208601615bcd565b61484081615cb8565b840191505092915050565b6000614858603b83615a7e565b91507f427269646765206973206e6f742079657420617661696c61626c65206f6e6c7960008301527f2056657275732063616e206265207573656420666f72206665657300000000006020830152604082019050919050565b60006148be601c83615a7e565b91507f436f6e747261637420686173206265656e2064657072656361746564000000006000830152602082019050919050565b60006148fe602383615a7e565b91507f5472616e736665722068617320616c7265616479206265656e2070726f63657360008301527f73656400000000000000000000000000000000000000000000000000000000006020830152604082019050919050565b6000614964601983615a7e565b91507f546f2073656e642065746820757365206578706f7274455448000000000000006000830152602082019050919050565b60006149a4604883615a7e565b91507f457468657265756d206d7573742062652073656e74207769746820746865207460008301527f72616e73616374696f6e20746f2062652073656e7420746f207468652056657260208301527f757320436861696e0000000000000000000000000000000000000000000000006040830152606082019050919050565b6000614a30602983615a7e565b91507f52657175657374656420616d6f756e74206578636565647320636f6e7472616360008301527f742062616c616e636500000000000000000000000000000000000000000000006020830152604082019050919050565b6000614a96603d83615a7e565b91507f427269646765206973206e6f742079657420617661696c61626c65206665657360008301527f2063616e6e6f7420657863656564206578697374696e6720706f6f6c2e0000006020830152604082019050919050565b6000614afc605583615a7e565b91507f5468697320636f6e7472616374206d757374206861766520616e20616c6c6f7760008301527f616e6365206f662067726561746572207468616e206f7220657175616c20746f60208301527f20746865206e756d626572206f6620746f6b656e7300000000000000000000006040830152606082019050919050565b6000614b88602c83615a7e565b91507f506c656173652073656e642074686520617070726f707269617465207472616e60008301527f73616374696f6e206665652e00000000000000000000000000000000000000006020830152604082019050919050565b60006101e083016000830151614bfa6000860182615291565b506020830151614c0d6020860182615291565b506040830151614c206040860182614553565b506060830151614c3360608601826152be565b506080830151614c4660808601826152be565b5060a0830151614c5960a0860182614553565b5060c0830151614c6c60c0860182614553565b5060e0830151614c7f60e08601826152be565b50610100830151848203610100860152614c9982826145cf565b915050610120830151848203610120860152614cb582826145cf565b915050610140830151614ccc61014086018261477b565b50610160830151848203610160860152614ce682826145cf565b915050610180830151614cfd610180860182615004565b506101a0830151614d126101c0860182614803565b508091505092915050565b604082016000820151614d336000850182614553565b506020820151614d4660208501826152dc565b50505050565b604082016000820151614d626000850182614553565b506020820151614d7560208501826152dc565b50505050565b604082016000808301549050614d9081615c00565b614d9d6000860182614553565b50614da781615c82565b614db460208601826152dc565b5050505050565b6000608083016000830151614dd360008601826152a0565b506020830151614de660208601826152a0565b506040830151614df9604086018261477b565b5060608301518482036060860152614e1182826146a2565b9150508091505092915050565b6000608083016000830151614e3660008601826152a0565b506020830151614e4960208601826152a0565b506040830151614e5c604086018261477b565b5060608301518482036060860152614e7482826146a2565b9150508091505092915050565b61014082016000820151614e9860008501826152be565b506020820151614eab6020850182614d1d565b506040820151614ebe60608501826152be565b506060820151614ed16080850182614553565b506080820151614ee460a08501826152a0565b5060a0820151614ef760c0850182615004565b5060c0820151614f0b610100850182614553565b5060e0820151614f1f610120850182614553565b50505050565b61014082016000808301549050614f3b81615c34565b614f4860008601826152be565b5060018301614f5a6020860182614d7b565b5060028301549050614f6b81615c34565b614f7860608601826152be565b50614f8281615c9c565b614f8f6080860182614553565b5060038301549050614fa081615c1a565b614fad60a08601826152a0565b5060048301614fbf60c0860182615062565b5060058301549050614fd081615c00565b614fde610100860182614553565b5060068301549050614fef81615c00565b614ffd610120860182614553565b5050505050565b60408201600082015161501a60008501826152fa565b50602082015161502d6020850182614553565b50505050565b60408201600082015161504960008501826152fa565b50602082015161505c6020850182614553565b50505050565b60408201600080830154905061507781615c4e565b61508460008601826152fa565b5061508e81615c68565b61509b6020860182614553565b5050505050565b6000610220830160008301516150bb60008601826152a0565b50602083015184820360208601526150d38282614812565b91505060408301516150e86040860182614553565b5060608301516150fb6060860182614553565b50608083015161510e6080860182614553565b5060a083015161512160a08601826152fa565b5060c083015161513460c08601826152fa565b5060e083015161514760e0860182615004565b5061010083015161515c610120860182614553565b506101208301516151716101408601826152a0565b506101408301516151866101608601826152a0565b5061016083015161519b6101808601826152a0565b506101808301516151b06101a08601826152a0565b506101a08301516151c56101c0860182614553565b506101c08301518482036101e08601526151df8282614571565b9150506101e08301516151f66102008601826152a0565b508091505092915050565b600060c08301600083015161521960008601826152a0565b50602083015184820360208601526152318282614812565b915050604083015161524660408601826152a0565b50606083015161525960608601826152a0565b50608083015184820360808601526152718282614812565b91505060a083015161528660a086018261475d565b508091505092915050565b61529a81615b1f565b82525050565b6152a981615b4d565b82525050565b6152b881615b4d565b82525050565b6152c781615b57565b82525050565b6152d681615b57565b82525050565b6152e581615b67565b82525050565b6152f481615b67565b82525050565b61530381615b7b565b82525050565b600061531582856147d2565b915061532182846147d2565b91508190509392505050565b60006020820190506153426000830184614562565b92915050565b600060408201905061535d6000830185614544565b61536a6020830184614562565b9392505050565b60006060820190506153866000830186614544565b6153936020830185614562565b6153a060408301846152af565b949350505050565b60006040820190506153bd6000830185614562565b6153ca60208301846152af565b9392505050565b60006060820190506153e66000830186614562565b6153f360208301856152eb565b6154006040830184614562565b949350505050565b60006020820190508181036000830152615422818461462d565b905092915050565b600060208201905081810360008301526154448184614700565b905092915050565b600060408201905081810360008301526154668185614700565b9050615475602083018461476c565b9392505050565b6000602082019050615491600083018461476c565b92915050565b60006020820190506154ac600083018461478a565b92915050565b600060208201905081810360008301526154cc8184614799565b905092915050565b600060208201905081810360008301526154ed8161484b565b9050919050565b6000602082019050818103600083015261550d816148b1565b9050919050565b6000602082019050818103600083015261552d816148f1565b9050919050565b6000602082019050818103600083015261554d81614957565b9050919050565b6000602082019050818103600083015261556d81614997565b9050919050565b6000602082019050818103600083015261558d81614a23565b9050919050565b600060208201905081810360008301526155ad81614a89565b9050919050565b600060208201905081810360008301526155cd81614aef565b9050919050565b600060208201905081810360008301526155ed81614b7b565b9050919050565b6000602082019050818103600083015261560e8184614be1565b905092915050565b600060208201905081810360008301526156308184614e1e565b905092915050565b6000602082019050818103600083015261565281846150a2565b905092915050565b600060208201905081810360008301526156748184615201565b905092915050565b600060208201905061569160008301846152af565b92915050565b60006040820190506156ac60008301856152af565b6156b9602083018461476c565b9392505050565b60006040820190506156d560008301856152af565b6156e2602083018461478a565b9392505050565b6000610140820190506156ff600083018b6152cd565b61570c602083018a614d4c565b61571960608301896152cd565b6157266080830188614562565b61573360a08301876152af565b61574060c0830186615033565b61574e610100830185614562565b61575c610120830184614562565b9998505050505050505050565b600060208201905061577e60008301846152eb565b92915050565b6000604051905081810181811067ffffffffffffffff821117156157ab576157aa615cb6565b5b8060405250919050565b600067ffffffffffffffff8211156157d0576157cf615cb6565b5b602082029050602081019050919050565b600067ffffffffffffffff8211156157fc576157fb615cb6565b5b602082029050602081019050919050565b600067ffffffffffffffff82111561582857615827615cb6565b5b602082029050602081019050919050565b600067ffffffffffffffff82111561585457615853615cb6565b5b602082029050602081019050919050565b600067ffffffffffffffff8211156158805761587f615cb6565b5b602082029050602081019050919050565b600067ffffffffffffffff8211156158ac576158ab615cb6565b5b602082029050602081019050919050565b600067ffffffffffffffff8211156158d8576158d7615cb6565b5b602082029050602081019050919050565b600067ffffffffffffffff82111561590457615903615cb6565b5b601f19601f8301169050602081019050919050565b6000819050602082019050919050565b6000819050602082019050919050565b6000819050602082019050919050565b6000819050602082019050919050565b60008190508160005260206000209050919050565b600081519050919050565b600081519050919050565b600081519050919050565b600081519050919050565b600081549050919050565b600081519050919050565b600081519050919050565b6000602082019050919050565b6000602082019050919050565b6000602082019050919050565b6000602082019050919050565b6000600782019050919050565b600082825260208201905092915050565b600082825260208201905092915050565b600082825260208201905092915050565b600082825260208201905092915050565b600082825260208201905092915050565b600082825260208201905092915050565b600081905092915050565b600082825260208201905092915050565b600082825260208201905092915050565b600073ffffffffffffffffffffffffffffffffffffffff82169050919050565b6000819050919050565b600063ffffffff82169050919050565b600067ffffffffffffffff82169050919050565b600060ff82169050919050565b6000615af582615b2d565b9050919050565b60008115159050919050565b6000819050919050565b60008160030b9050919050565b600061ffff82169050919050565b600073ffffffffffffffffffffffffffffffffffffffff82169050919050565b6000819050919050565b600063ffffffff82169050919050565b600067ffffffffffffffff82169050919050565b600060ff82169050919050565b6000615b9382615b9a565b9050919050565b6000615ba582615bac565b9050919050565b6000615bb782615b2d565b9050919050565b82818337600083830152505050565b60005b83811015615beb578082015181840152602081019050615bd0565b83811115615bfa576000848401525b50505050565b6000615c13615c0e83615cc9565b615a8f565b9050919050565b6000615c2d615c2883615cc9565b615aaf565b9050919050565b6000615c47615c4283615cc9565b615ab9565b9050919050565b6000615c61615c5c83615cc9565b615add565b9050919050565b6000615c7b615c7683615cf0565b615a8f565b9050919050565b6000615c95615c9083615cd6565b615ac9565b9050919050565b6000615caf615caa83615ce3565b615a8f565b9050919050565bfe5b6000601f19601f8301169050919050565b60008160001c9050919050565b60008160a01c9050919050565b60008160201c9050919050565b60008160081c9050919050565b615d0681615aea565b8114615d1157600080fd5b50565b615d1d81615afc565b8114615d2857600080fd5b50565b615d3481615b08565b8114615d3f57600080fd5b50565b615d4b81615b12565b8114615d5657600080fd5b50565b615d6281615b1f565b8114615d6d57600080fd5b50565b615d7981615b4d565b8114615d8457600080fd5b50565b615d9081615b57565b8114615d9b57600080fd5b50565b615da781615b67565b8114615db257600080fd5b50565b615dbe81615b7b565b8114615dc957600080fd5b5056fea2646970667358221220d3b6c908124100da6634f2e26b2a06ca6ffc5f9d17184b21ca06be78fbda9b6b64736f6c63430007060033",
			"opcodes": "PUSH1 0x80 PUSH1 0x40 MSTORE PUSH1 0x0 PUSH1 0x6 PUSH1 0x14 PUSH2 0x100 EXP DUP2 SLOAD DUP2 PUSH1 0xFF MUL NOT AND SWAP1 DUP4 ISZERO ISZERO MUL OR SWAP1 SSTORE POP PUSH1 0x0 PUSH1 0x8 SSTORE PUSH1 0x0 PUSH1 0x9 SSTORE PUSH1 0x0 PUSH1 0xA SSTORE PUSH1 0x0 PUSH1 0xB SSTORE CALLVALUE DUP1 ISZERO PUSH3 0x40 JUMPI PUSH1 0x0 DUP1 REVERT JUMPDEST POP PUSH1 0x40 MLOAD PUSH3 0x64AA CODESIZE SUB DUP1 PUSH3 0x64AA DUP4 CODECOPY DUP2 DUP2 ADD PUSH1 0x40 MSTORE DUP2 ADD SWAP1 PUSH3 0x66 SWAP2 SWAP1 PUSH3 0x428 JUMP JUMPDEST CALLER PUSH1 0x6 PUSH1 0x0 PUSH2 0x100 EXP DUP2 SLOAD DUP2 PUSH20 0xFFFFFFFFFFFFFFFFFFFFFFFFFFFFFFFFFFFFFFFF MUL NOT AND SWAP1 DUP4 PUSH20 0xFFFFFFFFFFFFFFFFFFFFFFFFFFFFFFFFFFFFFFFF AND MUL OR SWAP1 SSTORE POP DUP11 PUSH1 0x2 PUSH1 0x0 PUSH2 0x100 EXP DUP2 SLOAD DUP2 PUSH20 0xFFFFFFFFFFFFFFFFFFFFFFFFFFFFFFFFFFFFFFFF MUL NOT AND SWAP1 DUP4 PUSH20 0xFFFFFFFFFFFFFFFFFFFFFFFFFFFFFFFFFFFFFFFF AND MUL OR SWAP1 SSTORE POP DUP10 PUSH1 0x0 DUP1 PUSH2 0x100 EXP DUP2 SLOAD DUP2 PUSH20 0xFFFFFFFFFFFFFFFFFFFFFFFFFFFFFFFFFFFFFFFF MUL NOT AND SWAP1 DUP4 PUSH20 0xFFFFFFFFFFFFFFFFFFFFFFFFFFFFFFFFFFFFFFFF AND MUL OR SWAP1 SSTORE POP DUP9 PUSH1 0x1 PUSH1 0x0 PUSH2 0x100 EXP DUP2 SLOAD DUP2 PUSH20 0xFFFFFFFFFFFFFFFFFFFFFFFFFFFFFFFFFFFFFFFF MUL NOT AND SWAP1 DUP4 PUSH20 0xFFFFFFFFFFFFFFFFFFFFFFFFFFFFFFFFFFFFFFFF AND MUL OR SWAP1 SSTORE POP DUP8 PUSH1 0x3 PUSH1 0x0 PUSH2 0x100 EXP DUP2 SLOAD DUP2 PUSH20 0xFFFFFFFFFFFFFFFFFFFFFFFFFFFFFFFFFFFFFFFF MUL NOT AND SWAP1 DUP4 PUSH20 0xFFFFFFFFFFFFFFFFFFFFFFFFFFFFFFFFFFFFFFFF AND MUL OR SWAP1 SSTORE POP DUP7 PUSH1 0x4 PUSH1 0x0 PUSH2 0x100 EXP DUP2 SLOAD DUP2 PUSH20 0xFFFFFFFFFFFFFFFFFFFFFFFFFFFFFFFFFFFFFFFF MUL NOT AND SWAP1 DUP4 PUSH20 0xFFFFFFFFFFFFFFFFFFFFFFFFFFFFFFFFFFFFFFFF AND MUL OR SWAP1 SSTORE POP DUP6 PUSH1 0x5 PUSH1 0x0 PUSH2 0x100 EXP DUP2 SLOAD DUP2 PUSH20 0xFFFFFFFFFFFFFFFFFFFFFFFFFFFFFFFFFFFFFFFF MUL NOT AND SWAP1 DUP4 PUSH20 0xFFFFFFFFFFFFFFFFFFFFFFFFFFFFFFFFFFFFFFFF AND MUL OR SWAP1 SSTORE POP DUP5 PUSH1 0x13 PUSH1 0x0 ADD DUP2 SWAP1 SSTORE POP DUP4 PUSH1 0x13 PUSH1 0x1 ADD SWAP1 DUP1 MLOAD SWAP1 PUSH1 0x20 ADD SWAP1 PUSH3 0x251 SWAP3 SWAP2 SWAP1 PUSH3 0x2BB JUMP JUMPDEST POP DUP3 PUSH1 0x13 PUSH1 0x4 ADD SWAP1 DUP1 MLOAD SWAP1 PUSH1 0x20 ADD SWAP1 PUSH3 0x26D SWAP3 SWAP2 SWAP1 PUSH3 0x2BB JUMP JUMPDEST POP DUP2 PUSH1 0x13 PUSH1 0x5 ADD PUSH1 0x0 PUSH2 0x100 EXP DUP2 SLOAD DUP2 PUSH1 0xFF MUL NOT AND SWAP1 DUP4 ISZERO ISZERO MUL OR SWAP1 SSTORE POP DUP1 PUSH1 0xA DUP2 SWAP1 SSTORE POP PUSH1 0x0 PUSH1 0xF PUSH1 0x0 ADD DUP2 SWAP1 SSTORE POP PUSH1 0x0 DUP1 SHL PUSH1 0xF PUSH1 0x1 ADD DUP2 SWAP1 SSTORE POP POP POP POP POP POP POP POP POP POP POP POP PUSH3 0x698 JUMP JUMPDEST DUP3 DUP1 SLOAD PUSH1 0x1 DUP2 PUSH1 0x1 AND ISZERO PUSH2 0x100 MUL SUB AND PUSH1 0x2 SWAP1 DIV SWAP1 PUSH1 0x0 MSTORE PUSH1 0x20 PUSH1 0x0 KECCAK256 SWAP1 PUSH1 0x1F ADD PUSH1 0x20 SWAP1 DIV DUP2 ADD SWAP3 DUP3 PUSH3 0x2F3 JUMPI PUSH1 0x0 DUP6 SSTORE PUSH3 0x33F JUMP JUMPDEST DUP3 PUSH1 0x1F LT PUSH3 0x30E JUMPI DUP1 MLOAD PUSH1 0xFF NOT AND DUP4 DUP1 ADD OR DUP6 SSTORE PUSH3 0x33F JUMP JUMPDEST DUP3 DUP1 ADD PUSH1 0x1 ADD DUP6 SSTORE DUP3 ISZERO PUSH3 0x33F JUMPI SWAP2 DUP3 ADD JUMPDEST DUP3 DUP2 GT ISZERO PUSH3 0x33E JUMPI DUP3 MLOAD DUP3 SSTORE SWAP2 PUSH1 0x20 ADD SWAP2 SWAP1 PUSH1 0x1 ADD SWAP1 PUSH3 0x321 JUMP JUMPDEST JUMPDEST POP SWAP1 POP PUSH3 0x34E SWAP2 SWAP1 PUSH3 0x352 JUMP JUMPDEST POP SWAP1 JUMP JUMPDEST JUMPDEST DUP1 DUP3 GT ISZERO PUSH3 0x36D JUMPI PUSH1 0x0 DUP2 PUSH1 0x0 SWAP1 SSTORE POP PUSH1 0x1 ADD PUSH3 0x353 JUMP JUMPDEST POP SWAP1 JUMP JUMPDEST PUSH1 0x0 PUSH3 0x388 PUSH3 0x382 DUP5 PUSH3 0x595 JUMP JUMPDEST PUSH3 0x561 JUMP JUMPDEST SWAP1 POP DUP3 DUP2 MSTORE PUSH1 0x20 DUP2 ADD DUP5 DUP5 DUP5 ADD GT ISZERO PUSH3 0x3A1 JUMPI PUSH1 0x0 DUP1 REVERT JUMPDEST PUSH3 0x3AE DUP5 DUP3 DUP6 PUSH3 0x612 JUMP JUMPDEST POP SWAP4 SWAP3 POP POP POP JUMP JUMPDEST PUSH1 0x0 DUP2 MLOAD SWAP1 POP PUSH3 0x3C7 DUP2 PUSH3 0x64A JUMP JUMPDEST SWAP3 SWAP2 POP POP JUMP JUMPDEST PUSH1 0x0 DUP2 MLOAD SWAP1 POP PUSH3 0x3DE DUP2 PUSH3 0x664 JUMP JUMPDEST SWAP3 SWAP2 POP POP JUMP JUMPDEST PUSH1 0x0 DUP3 PUSH1 0x1F DUP4 ADD SLT PUSH3 0x3F6 JUMPI PUSH1 0x0 DUP1 REVERT JUMPDEST DUP2 MLOAD PUSH3 0x408 DUP5 DUP3 PUSH1 0x20 DUP7 ADD PUSH3 0x371 JUMP JUMPDEST SWAP2 POP POP SWAP3 SWAP2 POP POP JUMP JUMPDEST PUSH1 0x0 DUP2 MLOAD SWAP1 POP PUSH3 0x422 DUP2 PUSH3 0x67E JUMP JUMPDEST SWAP3 SWAP2 POP POP JUMP JUMPDEST PUSH1 0x0 DUP1 PUSH1 0x0 DUP1 PUSH1 0x0 DUP1 PUSH1 0x0 DUP1 PUSH1 0x0 DUP1 PUSH1 0x0 PUSH2 0x160 DUP13 DUP15 SUB SLT ISZERO PUSH3 0x44B JUMPI PUSH1 0x0 DUP1 REVERT JUMPDEST PUSH1 0x0 PUSH3 0x45B DUP15 DUP3 DUP16 ADD PUSH3 0x3B6 JUMP JUMPDEST SWAP12 POP POP PUSH1 0x20 PUSH3 0x46E DUP15 DUP3 DUP16 ADD PUSH3 0x3B6 JUMP JUMPDEST SWAP11 POP POP PUSH1 0x40 PUSH3 0x481 DUP15 DUP3 DUP16 ADD PUSH3 0x3B6 JUMP JUMPDEST SWAP10 POP POP PUSH1 0x60 PUSH3 0x494 DUP15 DUP3 DUP16 ADD PUSH3 0x3B6 JUMP JUMPDEST SWAP9 POP POP PUSH1 0x80 PUSH3 0x4A7 DUP15 DUP3 DUP16 ADD PUSH3 0x3B6 JUMP JUMPDEST SWAP8 POP POP PUSH1 0xA0 PUSH3 0x4BA DUP15 DUP3 DUP16 ADD PUSH3 0x3B6 JUMP JUMPDEST SWAP7 POP POP PUSH1 0xC0 PUSH3 0x4CD DUP15 DUP3 DUP16 ADD PUSH3 0x411 JUMP JUMPDEST SWAP6 POP POP PUSH1 0xE0 DUP13 ADD MLOAD PUSH8 0xFFFFFFFFFFFFFFFF DUP2 GT ISZERO PUSH3 0x4EB JUMPI PUSH1 0x0 DUP1 REVERT JUMPDEST PUSH3 0x4F9 DUP15 DUP3 DUP16 ADD PUSH3 0x3E4 JUMP JUMPDEST SWAP5 POP POP PUSH2 0x100 DUP13 ADD MLOAD PUSH8 0xFFFFFFFFFFFFFFFF DUP2 GT ISZERO PUSH3 0x518 JUMPI PUSH1 0x0 DUP1 REVERT JUMPDEST PUSH3 0x526 DUP15 DUP3 DUP16 ADD PUSH3 0x3E4 JUMP JUMPDEST SWAP4 POP POP PUSH2 0x120 PUSH3 0x53A DUP15 DUP3 DUP16 ADD PUSH3 0x3CD JUMP JUMPDEST SWAP3 POP POP PUSH2 0x140 PUSH3 0x54E DUP15 DUP3 DUP16 ADD PUSH3 0x411 JUMP JUMPDEST SWAP2 POP POP SWAP3 SWAP6 SWAP9 SWAP12 POP SWAP3 SWAP6 SWAP9 SWAP12 SWAP1 SWAP4 SWAP7 SWAP10 POP JUMP JUMPDEST PUSH1 0x0 PUSH1 0x40 MLOAD SWAP1 POP DUP2 DUP2 ADD DUP2 DUP2 LT PUSH8 0xFFFFFFFFFFFFFFFF DUP3 GT OR ISZERO PUSH3 0x58B JUMPI PUSH3 0x58A PUSH3 0x648 JUMP JUMPDEST JUMPDEST DUP1 PUSH1 0x40 MSTORE POP SWAP2 SWAP1 POP JUMP JUMPDEST PUSH1 0x0 PUSH8 0xFFFFFFFFFFFFFFFF DUP3 GT ISZERO PUSH3 0x5B3 JUMPI PUSH3 0x5B2 PUSH3 0x648 JUMP JUMPDEST JUMPDEST PUSH1 0x1F NOT PUSH1 0x1F DUP4 ADD AND SWAP1 POP PUSH1 0x20 DUP2 ADD SWAP1 POP SWAP2 SWAP1 POP JUMP JUMPDEST PUSH1 0x0 PUSH3 0x5D5 DUP3 PUSH3 0x5E8 JUMP JUMPDEST SWAP1 POP SWAP2 SWAP1 POP JUMP JUMPDEST PUSH1 0x0 DUP2 ISZERO ISZERO SWAP1 POP SWAP2 SWAP1 POP JUMP JUMPDEST PUSH1 0x0 PUSH20 0xFFFFFFFFFFFFFFFFFFFFFFFFFFFFFFFFFFFFFFFF DUP3 AND SWAP1 POP SWAP2 SWAP1 POP JUMP JUMPDEST PUSH1 0x0 DUP2 SWAP1 POP SWAP2 SWAP1 POP JUMP JUMPDEST PUSH1 0x0 JUMPDEST DUP4 DUP2 LT ISZERO PUSH3 0x632 JUMPI DUP1 DUP3 ADD MLOAD DUP2 DUP5 ADD MSTORE PUSH1 0x20 DUP2 ADD SWAP1 POP PUSH3 0x615 JUMP JUMPDEST DUP4 DUP2 GT ISZERO PUSH3 0x642 JUMPI PUSH1 0x0 DUP5 DUP5 ADD MSTORE JUMPDEST POP POP POP POP JUMP JUMPDEST INVALID JUMPDEST PUSH3 0x655 DUP2 PUSH3 0x5C8 JUMP JUMPDEST DUP2 EQ PUSH3 0x661 JUMPI PUSH1 0x0 DUP1 REVERT JUMPDEST POP JUMP JUMPDEST PUSH3 0x66F DUP2 PUSH3 0x5DC JUMP JUMPDEST DUP2 EQ PUSH3 0x67B JUMPI PUSH1 0x0 DUP1 REVERT JUMPDEST POP JUMP JUMPDEST PUSH3 0x689 DUP2 PUSH3 0x608 JUMP JUMPDEST DUP2 EQ PUSH3 0x695 JUMPI PUSH1 0x0 DUP1 REVERT JUMPDEST POP JUMP JUMPDEST PUSH2 0x5E02 DUP1 PUSH3 0x6A8 PUSH1 0x0 CODECOPY PUSH1 0x0 RETURN INVALID PUSH1 0x80 PUSH1 0x40 MSTORE PUSH1 0x4 CALLDATASIZE LT PUSH2 0x140 JUMPI PUSH1 0x0 CALLDATALOAD PUSH1 0xE0 SHR DUP1 PUSH4 0x4EC18DB9 GT PUSH2 0xB6 JUMPI DUP1 PUSH4 0xC17A4EEF GT PUSH2 0x6F JUMPI DUP1 PUSH4 0xC17A4EEF EQ PUSH2 0x495 JUMPI DUP1 PUSH4 0xD294F093 EQ PUSH2 0x4D3 JUMPI DUP1 PUSH4 0xD83AA63C EQ PUSH2 0x4FE JUMPI DUP1 PUSH4 0xE45B909D EQ PUSH2 0x53B JUMPI DUP1 PUSH4 0xE4804ABC EQ PUSH2 0x578 JUMPI DUP1 PUSH4 0xF9023E0A EQ PUSH2 0x5B5 JUMPI PUSH2 0x140 JUMP JUMPDEST DUP1 PUSH4 0x4EC18DB9 EQ PUSH2 0x357 JUMPI DUP1 PUSH4 0x4FCF4E2A EQ PUSH2 0x382 JUMPI DUP1 PUSH4 0x5F2EDCBE EQ PUSH2 0x3AB JUMPI DUP1 PUSH4 0x7E0B2492 EQ PUSH2 0x3D7 JUMPI DUP1 PUSH4 0x7E3E661B EQ PUSH2 0x414 JUMPI DUP1 PUSH4 0xA01C6F4E EQ PUSH2 0x458 JUMPI PUSH2 0x140 JUMP JUMPDEST DUP1 PUSH4 0x2A9E72A6 GT PUSH2 0x108 JUMPI DUP1 PUSH4 0x2A9E72A6 EQ PUSH2 0x20D JUMPI DUP1 PUSH4 0x388EEE6C EQ PUSH2 0x24A JUMPI DUP1 PUSH4 0x3EE2CE85 EQ PUSH2 0x287 JUMPI DUP1 PUSH4 0x3F067B20 EQ PUSH2 0x2C4 JUMPI DUP1 PUSH4 0x42CE5011 EQ PUSH2 0x2EF JUMPI DUP1 PUSH4 0x44E5FFD3 EQ PUSH2 0x31A JUMPI PUSH2 0x140 JUMP JUMPDEST DUP1 PUSH4 0xE136B19 EQ PUSH2 0x145 JUMPI DUP1 PUSH4 0x12D9F8E0 EQ PUSH2 0x170 JUMPI DUP1 PUSH4 0x1A2D8629 EQ PUSH2 0x18C JUMPI DUP1 PUSH4 0x231B0268 EQ PUSH2 0x1B7 JUMPI DUP1 PUSH4 0x26976E3F EQ PUSH2 0x1E2 JUMPI JUMPDEST PUSH1 0x0 DUP1 REVERT JUMPDEST CALLVALUE DUP1 ISZERO PUSH2 0x151 JUMPI PUSH1 0x0 DUP1 REVERT JUMPDEST POP PUSH2 0x15A PUSH2 0x5E5 JUMP JUMPDEST PUSH1 0x40 MLOAD PUSH2 0x167 SWAP2 SWAP1 PUSH2 0x547C JUMP JUMPDEST PUSH1 0x40 MLOAD DUP1 SWAP2 SUB SWAP1 RETURN JUMPDEST PUSH2 0x18A PUSH1 0x4 DUP1 CALLDATASIZE SUB DUP2 ADD SWAP1 PUSH2 0x185 SWAP2 SWAP1 PUSH2 0x43F3 JUMP JUMPDEST PUSH2 0x5F8 JUMP JUMPDEST STOP JUMPDEST CALLVALUE DUP1 ISZERO PUSH2 0x198 JUMPI PUSH1 0x0 DUP1 REVERT JUMPDEST POP PUSH2 0x1A1 PUSH2 0xA20 JUMP JUMPDEST PUSH1 0x40 MLOAD PUSH2 0x1AE SWAP2 SWAP1 PUSH2 0x565A JUMP JUMPDEST PUSH1 0x40 MLOAD DUP1 SWAP2 SUB SWAP1 RETURN JUMPDEST CALLVALUE DUP1 ISZERO PUSH2 0x1C3 JUMPI PUSH1 0x0 DUP1 REVERT JUMPDEST POP PUSH2 0x1CC PUSH2 0xBC8 JUMP JUMPDEST PUSH1 0x40 MLOAD PUSH2 0x1D9 SWAP2 SWAP1 PUSH2 0x567C JUMP JUMPDEST PUSH1 0x40 MLOAD DUP1 SWAP2 SUB SWAP1 RETURN JUMPDEST CALLVALUE DUP1 ISZERO PUSH2 0x1EE JUMPI PUSH1 0x0 DUP1 REVERT JUMPDEST POP PUSH2 0x1F7 PUSH2 0xBCE JUMP JUMPDEST PUSH1 0x40 MLOAD PUSH2 0x204 SWAP2 SWAP1 PUSH2 0x532D JUMP JUMPDEST PUSH1 0x40 MLOAD DUP1 SWAP2 SUB SWAP1 RETURN JUMPDEST CALLVALUE DUP1 ISZERO PUSH2 0x219 JUMPI PUSH1 0x0 DUP1 REVERT JUMPDEST POP PUSH2 0x234 PUSH1 0x4 DUP1 CALLDATASIZE SUB DUP2 ADD SWAP1 PUSH2 0x22F SWAP2 SWAP1 PUSH2 0x4365 JUMP JUMPDEST PUSH2 0xBF4 JUMP JUMPDEST PUSH1 0x40 MLOAD PUSH2 0x241 SWAP2 SWAP1 PUSH2 0x5616 JUMP JUMPDEST PUSH1 0x40 MLOAD DUP1 SWAP2 SUB SWAP1 RETURN JUMPDEST CALLVALUE DUP1 ISZERO PUSH2 0x256 JUMPI PUSH1 0x0 DUP1 REVERT JUMPDEST POP PUSH2 0x271 PUSH1 0x4 DUP1 CALLDATASIZE SUB DUP2 ADD SWAP1 PUSH2 0x26C SWAP2 SWAP1 PUSH2 0x4365 JUMP JUMPDEST PUSH2 0xF45 JUMP JUMPDEST PUSH1 0x40 MLOAD PUSH2 0x27E SWAP2 SWAP1 PUSH2 0x5769 JUMP JUMPDEST PUSH1 0x40 MLOAD DUP1 SWAP2 SUB SWAP1 RETURN JUMPDEST CALLVALUE DUP1 ISZERO PUSH2 0x293 JUMPI PUSH1 0x0 DUP1 REVERT JUMPDEST POP PUSH2 0x2AE PUSH1 0x4 DUP1 CALLDATASIZE SUB DUP2 ADD SWAP1 PUSH2 0x2A9 SWAP2 SWAP1 PUSH2 0x4365 JUMP JUMPDEST PUSH2 0xF62 JUMP JUMPDEST PUSH1 0x40 MLOAD PUSH2 0x2BB SWAP2 SWAP1 PUSH2 0x54B2 JUMP JUMPDEST PUSH1 0x40 MLOAD DUP1 SWAP2 SUB SWAP1 RETURN JUMPDEST CALLVALUE DUP1 ISZERO PUSH2 0x2D0 JUMPI PUSH1 0x0 DUP1 REVERT JUMPDEST POP PUSH2 0x2D9 PUSH2 0x101E JUMP JUMPDEST PUSH1 0x40 MLOAD PUSH2 0x2E6 SWAP2 SWAP1 PUSH2 0x567C JUMP JUMPDEST PUSH1 0x40 MLOAD DUP1 SWAP2 SUB SWAP1 RETURN JUMPDEST CALLVALUE DUP1 ISZERO PUSH2 0x2FB JUMPI PUSH1 0x0 DUP1 REVERT JUMPDEST POP PUSH2 0x304 PUSH2 0x1024 JUMP JUMPDEST PUSH1 0x40 MLOAD PUSH2 0x311 SWAP2 SWAP1 PUSH2 0x567C JUMP JUMPDEST PUSH1 0x40 MLOAD DUP1 SWAP2 SUB SWAP1 RETURN JUMPDEST CALLVALUE DUP1 ISZERO PUSH2 0x326 JUMPI PUSH1 0x0 DUP1 REVERT JUMPDEST POP PUSH2 0x341 PUSH1 0x4 DUP1 CALLDATASIZE SUB DUP2 ADD SWAP1 PUSH2 0x33C SWAP2 SWAP1 PUSH2 0x4365 JUMP JUMPDEST PUSH2 0x102A JUMP JUMPDEST PUSH1 0x40 MLOAD PUSH2 0x34E SWAP2 SWAP1 PUSH2 0x5497 JUMP JUMPDEST PUSH1 0x40 MLOAD DUP1 SWAP2 SUB SWAP1 RETURN JUMPDEST CALLVALUE DUP1 ISZERO PUSH2 0x363 JUMPI PUSH1 0x0 DUP1 REVERT JUMPDEST POP PUSH2 0x36C PUSH2 0x104E JUMP JUMPDEST PUSH1 0x40 MLOAD PUSH2 0x379 SWAP2 SWAP1 PUSH2 0x567C JUMP JUMPDEST PUSH1 0x40 MLOAD DUP1 SWAP2 SUB SWAP1 RETURN JUMPDEST CALLVALUE DUP1 ISZERO PUSH2 0x38E JUMPI PUSH1 0x0 DUP1 REVERT JUMPDEST POP PUSH2 0x3A9 PUSH1 0x4 DUP1 CALLDATASIZE SUB DUP2 ADD SWAP1 PUSH2 0x3A4 SWAP2 SWAP1 PUSH2 0x4279 JUMP JUMPDEST PUSH2 0x1054 JUMP JUMPDEST STOP JUMPDEST CALLVALUE DUP1 ISZERO PUSH2 0x3B7 JUMPI PUSH1 0x0 DUP1 REVERT JUMPDEST POP PUSH2 0x3C0 PUSH2 0x108E JUMP JUMPDEST PUSH1 0x40 MLOAD PUSH2 0x3CE SWAP3 SWAP2 SWAP1 PUSH2 0x56C0 JUMP JUMPDEST PUSH1 0x40 MLOAD DUP1 SWAP2 SUB SWAP1 RETURN JUMPDEST CALLVALUE DUP1 ISZERO PUSH2 0x3E3 JUMPI PUSH1 0x0 DUP1 REVERT JUMPDEST POP PUSH2 0x3FE PUSH1 0x4 DUP1 CALLDATASIZE SUB DUP2 ADD SWAP1 PUSH2 0x3F9 SWAP2 SWAP1 PUSH2 0x4198 JUMP JUMPDEST PUSH2 0x10A0 JUMP JUMPDEST PUSH1 0x40 MLOAD PUSH2 0x40B SWAP2 SWAP1 PUSH2 0x567C JUMP JUMPDEST PUSH1 0x40 MLOAD DUP1 SWAP2 SUB SWAP1 RETURN JUMPDEST CALLVALUE DUP1 ISZERO PUSH2 0x420 JUMPI PUSH1 0x0 DUP1 REVERT JUMPDEST POP PUSH2 0x43B PUSH1 0x4 DUP1 CALLDATASIZE SUB DUP2 ADD SWAP1 PUSH2 0x436 SWAP2 SWAP1 PUSH2 0x43B7 JUMP JUMPDEST PUSH2 0x10B8 JUMP JUMPDEST PUSH1 0x40 MLOAD PUSH2 0x44F SWAP9 SWAP8 SWAP7 SWAP6 SWAP5 SWAP4 SWAP3 SWAP2 SWAP1 PUSH2 0x56E9 JUMP JUMPDEST PUSH1 0x40 MLOAD DUP1 SWAP2 SUB SWAP1 RETURN JUMPDEST CALLVALUE DUP1 ISZERO PUSH2 0x464 JUMPI PUSH1 0x0 DUP1 REVERT JUMPDEST POP PUSH2 0x47F PUSH1 0x4 DUP1 CALLDATASIZE SUB DUP2 ADD SWAP1 PUSH2 0x47A SWAP2 SWAP1 PUSH2 0x4198 JUMP JUMPDEST PUSH2 0x12B8 JUMP JUMPDEST PUSH1 0x40 MLOAD PUSH2 0x48C SWAP2 SWAP1 PUSH2 0x5638 JUMP JUMPDEST PUSH1 0x40 MLOAD DUP1 SWAP2 SUB SWAP1 RETURN JUMPDEST CALLVALUE DUP1 ISZERO PUSH2 0x4A1 JUMPI PUSH1 0x0 DUP1 REVERT JUMPDEST POP PUSH2 0x4BC PUSH1 0x4 DUP1 CALLDATASIZE SUB DUP2 ADD SWAP1 PUSH2 0x4B7 SWAP2 SWAP1 PUSH2 0x4365 JUMP JUMPDEST PUSH2 0x165A JUMP JUMPDEST PUSH1 0x40 MLOAD PUSH2 0x4CA SWAP3 SWAP2 SWAP1 PUSH2 0x5697 JUMP JUMPDEST PUSH1 0x40 MLOAD DUP1 SWAP2 SUB SWAP1 RETURN JUMPDEST CALLVALUE DUP1 ISZERO PUSH2 0x4DF JUMPI PUSH1 0x0 DUP1 REVERT JUMPDEST POP PUSH2 0x4E8 PUSH2 0x168B JUMP JUMPDEST PUSH1 0x40 MLOAD PUSH2 0x4F5 SWAP2 SWAP1 PUSH2 0x567C JUMP JUMPDEST PUSH1 0x40 MLOAD DUP1 SWAP2 SUB SWAP1 RETURN JUMPDEST CALLVALUE DUP1 ISZERO PUSH2 0x50A JUMPI PUSH1 0x0 DUP1 REVERT JUMPDEST POP PUSH2 0x525 PUSH1 0x4 DUP1 CALLDATASIZE SUB DUP2 ADD SWAP1 PUSH2 0x520 SWAP2 SWAP1 PUSH2 0x4365 JUMP JUMPDEST PUSH2 0x17B4 JUMP JUMPDEST PUSH1 0x40 MLOAD PUSH2 0x532 SWAP2 SWAP1 PUSH2 0x54B2 JUMP JUMPDEST PUSH1 0x40 MLOAD DUP1 SWAP2 SUB SWAP1 RETURN JUMPDEST CALLVALUE DUP1 ISZERO PUSH2 0x547 JUMPI PUSH1 0x0 DUP1 REVERT JUMPDEST POP PUSH2 0x562 PUSH1 0x4 DUP1 CALLDATASIZE SUB DUP2 ADD SWAP1 PUSH2 0x55D SWAP2 SWAP1 PUSH2 0x4365 JUMP JUMPDEST PUSH2 0x1870 JUMP JUMPDEST PUSH1 0x40 MLOAD PUSH2 0x56F SWAP2 SWAP1 PUSH2 0x5497 JUMP JUMPDEST PUSH1 0x40 MLOAD DUP1 SWAP2 SUB SWAP1 RETURN JUMPDEST CALLVALUE DUP1 ISZERO PUSH2 0x584 JUMPI PUSH1 0x0 DUP1 REVERT JUMPDEST POP PUSH2 0x59F PUSH1 0x4 DUP1 CALLDATASIZE SUB DUP2 ADD SWAP1 PUSH2 0x59A SWAP2 SWAP1 PUSH2 0x43B7 JUMP JUMPDEST PUSH2 0x1894 JUMP JUMPDEST PUSH1 0x40 MLOAD PUSH2 0x5AC SWAP2 SWAP1 PUSH2 0x5408 JUMP JUMPDEST PUSH1 0x40 MLOAD DUP1 SWAP2 SUB SWAP1 RETURN JUMPDEST PUSH2 0x5CF PUSH1 0x4 DUP1 CALLDATASIZE SUB DUP2 ADD SWAP1 PUSH2 0x5CA SWAP2 SWAP1 PUSH2 0x41C1 JUMP JUMPDEST PUSH2 0x19C3 JUMP JUMPDEST PUSH1 0x40 MLOAD PUSH2 0x5DC SWAP2 SWAP1 PUSH2 0x567C JUMP JUMPDEST PUSH1 0x40 MLOAD DUP1 SWAP2 SUB SWAP1 RETURN JUMPDEST PUSH1 0x6 PUSH1 0x14 SWAP1 SLOAD SWAP1 PUSH2 0x100 EXP SWAP1 DIV PUSH1 0xFF AND DUP2 JUMP JUMPDEST PUSH1 0x6 PUSH1 0x14 SWAP1 SLOAD SWAP1 PUSH2 0x100 EXP SWAP1 DIV PUSH1 0xFF AND ISZERO PUSH2 0x648 JUMPI PUSH1 0x40 MLOAD PUSH32 0x8C379A000000000000000000000000000000000000000000000000000000000 DUP2 MSTORE PUSH1 0x4 ADD PUSH2 0x63F SWAP1 PUSH2 0x54F4 JUMP JUMPDEST PUSH1 0x40 MLOAD DUP1 SWAP2 SUB SWAP1 REVERT JUMPDEST DUP3 PUSH8 0xFFFFFFFFFFFFFFFF AND PUSH6 0x5AF3107A4000 ADD CALLVALUE LT ISZERO PUSH2 0x69D JUMPI PUSH1 0x40 MLOAD PUSH32 0x8C379A000000000000000000000000000000000000000000000000000000000 DUP2 MSTORE PUSH1 0x4 ADD PUSH2 0x694 SWAP1 PUSH2 0x55D4 JUMP JUMPDEST PUSH1 0x40 MLOAD DUP1 SWAP2 SUB SWAP1 REVERT JUMPDEST PUSH20 0x67460C2F56774ED27EEB8685F29F6CEC0B090B00 PUSH20 0xFFFFFFFFFFFFFFFFFFFFFFFFFFFFFFFFFFFFFFFF AND DUP7 PUSH20 0xFFFFFFFFFFFFFFFFFFFFFFFFFFFFFFFFFFFFFFFF AND EQ ISZERO PUSH2 0x720 JUMPI PUSH1 0x40 MLOAD PUSH32 0x8C379A000000000000000000000000000000000000000000000000000000000 DUP2 MSTORE PUSH1 0x4 ADD PUSH2 0x717 SWAP1 PUSH2 0x5534 JUMP JUMPDEST PUSH1 0x40 MLOAD DUP1 SWAP2 SUB SWAP1 REVERT JUMPDEST CALLVALUE PUSH1 0x8 PUSH1 0x0 DUP3 DUP3 SLOAD ADD SWAP3 POP POP DUP2 SWAP1 SSTORE POP PUSH1 0x0 DUP8 SWAP1 POP PUSH1 0x0 DUP2 PUSH20 0xFFFFFFFFFFFFFFFFFFFFFFFFFFFFFFFFFFFFFFFF AND PUSH4 0xDD62ED3E CALLER ADDRESS PUSH1 0x40 MLOAD DUP4 PUSH4 0xFFFFFFFF AND PUSH1 0xE0 SHL DUP2 MSTORE PUSH1 0x4 ADD PUSH2 0x772 SWAP3 SWAP2 SWAP1 PUSH2 0x5348 JUMP JUMPDEST PUSH1 0x20 PUSH1 0x40 MLOAD DUP1 DUP4 SUB DUP2 DUP7 DUP1 EXTCODESIZE ISZERO DUP1 ISZERO PUSH2 0x78A JUMPI PUSH1 0x0 DUP1 REVERT JUMPDEST POP GAS STATICCALL ISZERO DUP1 ISZERO PUSH2 0x79E JUMPI RETURNDATASIZE PUSH1 0x0 DUP1 RETURNDATACOPY RETURNDATASIZE PUSH1 0x0 REVERT JUMPDEST POP POP POP POP PUSH1 0x40 MLOAD RETURNDATASIZE PUSH1 0x1F NOT PUSH1 0x1F DUP3 ADD AND DUP3 ADD DUP1 PUSH1 0x40 MSTORE POP DUP2 ADD SWAP1 PUSH2 0x7C2 SWAP2 SWAP1 PUSH2 0x438E JUMP JUMPDEST SWAP1 POP DUP10 PUSH8 0xFFFFFFFFFFFFFFFF AND DUP2 PUSH8 0xFFFFFFFFFFFFFFFF AND LT ISZERO PUSH2 0x81B JUMPI PUSH1 0x40 MLOAD PUSH32 0x8C379A000000000000000000000000000000000000000000000000000000000 DUP2 MSTORE PUSH1 0x4 ADD PUSH2 0x812 SWAP1 PUSH2 0x55B4 JUMP JUMPDEST PUSH1 0x40 MLOAD DUP1 SWAP2 SUB SWAP1 REVERT JUMPDEST DUP2 PUSH20 0xFFFFFFFFFFFFFFFFFFFFFFFFFFFFFFFFFFFFFFFF AND PUSH4 0x23B872DD CALLER ADDRESS DUP14 PUSH8 0xFFFFFFFFFFFFFFFF AND PUSH1 0x40 MLOAD DUP5 PUSH4 0xFFFFFFFF AND PUSH1 0xE0 SHL DUP2 MSTORE PUSH1 0x4 ADD PUSH2 0x862 SWAP4 SWAP3 SWAP2 SWAP1 PUSH2 0x5371 JUMP JUMPDEST PUSH1 0x20 PUSH1 0x40 MLOAD DUP1 DUP4 SUB DUP2 PUSH1 0x0 DUP8 DUP1 EXTCODESIZE ISZERO DUP1 ISZERO PUSH2 0x87C JUMPI PUSH1 0x0 DUP1 REVERT JUMPDEST POP GAS CALL ISZERO DUP1 ISZERO PUSH2 0x890 JUMPI RETURNDATASIZE PUSH1 0x0 DUP1 RETURNDATACOPY RETURNDATASIZE PUSH1 0x0 REVERT JUMPDEST POP POP POP POP PUSH1 0x40 MLOAD RETURNDATASIZE PUSH1 0x1F NOT PUSH1 0x1F DUP3 ADD AND DUP3 ADD DUP1 PUSH1 0x40 MSTORE POP DUP2 ADD SWAP1 PUSH2 0x8B4 SWAP2 SWAP1 PUSH2 0x42BA JUMP JUMPDEST POP DUP2 PUSH20 0xFFFFFFFFFFFFFFFFFFFFFFFFFFFFFFFFFFFFFFFF AND PUSH4 0x95EA7B3 PUSH1 0x0 DUP1 SLOAD SWAP1 PUSH2 0x100 EXP SWAP1 DIV PUSH20 0xFFFFFFFFFFFFFFFFFFFFFFFFFFFFFFFFFFFFFFFF AND DUP13 PUSH8 0xFFFFFFFFFFFFFFFF AND PUSH1 0x40 MLOAD DUP4 PUSH4 0xFFFFFFFF AND PUSH1 0xE0 SHL DUP2 MSTORE PUSH1 0x4 ADD PUSH2 0x91A SWAP3 SWAP2 SWAP1 PUSH2 0x53A8 JUMP JUMPDEST PUSH1 0x20 PUSH1 0x40 MLOAD DUP1 DUP4 SUB DUP2 PUSH1 0x0 DUP8 DUP1 EXTCODESIZE ISZERO DUP1 ISZERO PUSH2 0x934 JUMPI PUSH1 0x0 DUP1 REVERT JUMPDEST POP GAS CALL ISZERO DUP1 ISZERO PUSH2 0x948 JUMPI RETURNDATASIZE PUSH1 0x0 DUP1 RETURNDATACOPY RETURNDATASIZE PUSH1 0x0 REVERT JUMPDEST POP POP POP POP PUSH1 0x40 MLOAD RETURNDATASIZE PUSH1 0x1F NOT PUSH1 0x1F DUP3 ADD AND DUP3 ADD DUP1 PUSH1 0x40 MSTORE POP DUP2 ADD SWAP1 PUSH2 0x96C SWAP2 SWAP1 PUSH2 0x42BA JUMP JUMPDEST POP PUSH1 0x0 DUP1 SLOAD SWAP1 PUSH2 0x100 EXP SWAP1 DIV PUSH20 0xFFFFFFFFFFFFFFFFFFFFFFFFFFFFFFFFFFFFFFFF AND PUSH20 0xFFFFFFFFFFFFFFFFFFFFFFFFFFFFFFFFFFFFFFFF AND PUSH4 0x9033EF3F DUP11 DUP13 PUSH8 0xFFFFFFFFFFFFFFFF AND PUSH1 0x40 MLOAD DUP4 PUSH4 0xFFFFFFFF AND PUSH1 0xE0 SHL DUP2 MSTORE PUSH1 0x4 ADD PUSH2 0x9D2 SWAP3 SWAP2 SWAP1 PUSH2 0x53A8 JUMP JUMPDEST PUSH1 0x0 PUSH1 0x40 MLOAD DUP1 DUP4 SUB DUP2 PUSH1 0x0 DUP8 DUP1 EXTCODESIZE ISZERO DUP1 ISZERO PUSH2 0x9EC JUMPI PUSH1 0x0 DUP1 REVERT JUMPDEST POP GAS CALL ISZERO DUP1 ISZERO PUSH2 0xA00 JUMPI RETURNDATASIZE PUSH1 0x0 DUP1 RETURNDATACOPY RETURNDATASIZE PUSH1 0x0 REVERT JUMPDEST POP POP POP POP PUSH2 0xA14 DUP11 DUP11 DUP11 DUP11 DUP11 DUP11 DUP11 DUP11 PUSH2 0x1ADD JUMP JUMPDEST POP POP POP POP POP POP POP POP POP POP JUMP JUMPDEST PUSH2 0xA28 PUSH2 0x2B91 JUMP JUMPDEST PUSH2 0xA30 PUSH2 0x2B91 JUMP JUMPDEST PUSH1 0x13 PUSH1 0x0 ADD SLOAD DUP2 PUSH1 0x0 ADD DUP2 DUP2 MSTORE POP POP PUSH1 0x13 PUSH1 0x1 ADD DUP1 SLOAD PUSH1 0x1 DUP2 PUSH1 0x1 AND ISZERO PUSH2 0x100 MUL SUB AND PUSH1 0x2 SWAP1 DIV DUP1 PUSH1 0x1F ADD PUSH1 0x20 DUP1 SWAP2 DIV MUL PUSH1 0x20 ADD PUSH1 0x40 MLOAD SWAP1 DUP2 ADD PUSH1 0x40 MSTORE DUP1 SWAP3 SWAP2 SWAP1 DUP2 DUP2 MSTORE PUSH1 0x20 ADD DUP3 DUP1 SLOAD PUSH1 0x1 DUP2 PUSH1 0x1 AND ISZERO PUSH2 0x100 MUL SUB AND PUSH1 0x2 SWAP1 DIV DUP1 ISZERO PUSH2 0xAD8 JUMPI DUP1 PUSH1 0x1F LT PUSH2 0xAAD JUMPI PUSH2 0x100 DUP1 DUP4 SLOAD DIV MUL DUP4 MSTORE SWAP2 PUSH1 0x20 ADD SWAP2 PUSH2 0xAD8 JUMP JUMPDEST DUP3 ADD SWAP2 SWAP1 PUSH1 0x0 MSTORE PUSH1 0x20 PUSH1 0x0 KECCAK256 SWAP1 JUMPDEST DUP2 SLOAD DUP2 MSTORE SWAP1 PUSH1 0x1 ADD SWAP1 PUSH1 0x20 ADD DUP1 DUP4 GT PUSH2 0xABB JUMPI DUP3 SWAP1 SUB PUSH1 0x1F AND DUP3 ADD SWAP2 JUMPDEST POP POP POP POP POP DUP2 PUSH1 0x20 ADD DUP2 SWAP1 MSTORE POP NUMBER DUP2 PUSH1 0x40 ADD DUP2 DUP2 MSTORE POP POP TIMESTAMP DUP2 PUSH1 0x60 ADD DUP2 DUP2 MSTORE POP POP PUSH1 0x13 PUSH1 0x4 ADD DUP1 SLOAD PUSH1 0x1 DUP2 PUSH1 0x1 AND ISZERO PUSH2 0x100 MUL SUB AND PUSH1 0x2 SWAP1 DIV DUP1 PUSH1 0x1F ADD PUSH1 0x20 DUP1 SWAP2 DIV MUL PUSH1 0x20 ADD PUSH1 0x40 MLOAD SWAP1 DUP2 ADD PUSH1 0x40 MSTORE DUP1 SWAP3 SWAP2 SWAP1 DUP2 DUP2 MSTORE PUSH1 0x20 ADD DUP3 DUP1 SLOAD PUSH1 0x1 DUP2 PUSH1 0x1 AND ISZERO PUSH2 0x100 MUL SUB AND PUSH1 0x2 SWAP1 DIV DUP1 ISZERO PUSH2 0xB92 JUMPI DUP1 PUSH1 0x1F LT PUSH2 0xB67 JUMPI PUSH2 0x100 DUP1 DUP4 SLOAD DIV MUL DUP4 MSTORE SWAP2 PUSH1 0x20 ADD SWAP2 PUSH2 0xB92 JUMP JUMPDEST DUP3 ADD SWAP2 SWAP1 PUSH1 0x0 MSTORE PUSH1 0x20 PUSH1 0x0 KECCAK256 SWAP1 JUMPDEST DUP2 SLOAD DUP2 MSTORE SWAP1 PUSH1 0x1 ADD SWAP1 PUSH1 0x20 ADD DUP1 DUP4 GT PUSH2 0xB75 JUMPI DUP3 SWAP1 SUB PUSH1 0x1F AND DUP3 ADD SWAP2 JUMPDEST POP POP POP POP POP DUP2 PUSH1 0x80 ADD DUP2 SWAP1 MSTORE POP PUSH1 0x13 PUSH1 0x5 ADD PUSH1 0x0 SWAP1 SLOAD SWAP1 PUSH2 0x100 EXP SWAP1 DIV PUSH1 0xFF AND DUP2 PUSH1 0xA0 ADD SWAP1 ISZERO ISZERO SWAP1 DUP2 ISZERO ISZERO DUP2 MSTORE POP POP DUP1 SWAP2 POP POP SWAP1 JUMP JUMPDEST PUSH1 0xB SLOAD DUP2 JUMP JUMPDEST PUSH1 0x7 PUSH1 0x0 SWAP1 SLOAD SWAP1 PUSH2 0x100 EXP SWAP1 DIV PUSH20 0xFFFFFFFFFFFFFFFFFFFFFFFFFFFFFFFFFFFFFFFF AND DUP2 JUMP JUMPDEST PUSH2 0xBFC PUSH2 0x2BC9 JUMP JUMPDEST PUSH1 0x0 PUSH1 0x11 PUSH1 0x0 DUP5 DUP2 MSTORE PUSH1 0x20 ADD SWAP1 DUP2 MSTORE PUSH1 0x20 ADD PUSH1 0x0 KECCAK256 PUSH1 0x0 ADD SLOAD SWAP1 POP PUSH1 0x0 PUSH1 0x40 MLOAD DUP1 PUSH1 0x80 ADD PUSH1 0x40 MSTORE DUP1 DUP4 DUP2 MSTORE PUSH1 0x20 ADD DUP6 DUP2 MSTORE PUSH1 0x20 ADD PUSH1 0x1B DUP5 DUP2 SLOAD DUP2 LT PUSH2 0xC3D JUMPI INVALID JUMPDEST SWAP1 PUSH1 0x0 MSTORE PUSH1 0x20 PUSH1 0x0 KECCAK256 ADD SLOAD DUP2 MSTORE PUSH1 0x20 ADD PUSH1 0xE DUP5 DUP2 SLOAD DUP2 LT PUSH2 0xC5A JUMPI INVALID JUMPDEST SWAP1 PUSH1 0x0 MSTORE PUSH1 0x20 PUSH1 0x0 KECCAK256 ADD DUP1 SLOAD DUP1 PUSH1 0x20 MUL PUSH1 0x20 ADD PUSH1 0x40 MLOAD SWAP1 DUP2 ADD PUSH1 0x40 MSTORE DUP1 SWAP3 SWAP2 SWAP1 DUP2 DUP2 MSTORE PUSH1 0x20 ADD PUSH1 0x0 SWAP1 JUMPDEST DUP3 DUP3 LT ISZERO PUSH2 0xF32 JUMPI DUP4 DUP3 SWAP1 PUSH1 0x0 MSTORE PUSH1 0x20 PUSH1 0x0 KECCAK256 SWAP1 PUSH1 0x7 MUL ADD PUSH1 0x40 MLOAD DUP1 PUSH2 0x100 ADD PUSH1 0x40 MSTORE SWAP1 DUP2 PUSH1 0x0 DUP3 ADD PUSH1 0x0 SWAP1 SLOAD SWAP1 PUSH2 0x100 EXP SWAP1 DIV PUSH4 0xFFFFFFFF AND PUSH4 0xFFFFFFFF AND PUSH4 0xFFFFFFFF AND DUP2 MSTORE PUSH1 0x20 ADD PUSH1 0x1 DUP3 ADD PUSH1 0x40 MLOAD DUP1 PUSH1 0x40 ADD PUSH1 0x40 MSTORE SWAP1 DUP2 PUSH1 0x0 DUP3 ADD PUSH1 0x0 SWAP1 SLOAD SWAP1 PUSH2 0x100 EXP SWAP1 DIV PUSH20 0xFFFFFFFFFFFFFFFFFFFFFFFFFFFFFFFFFFFFFFFF AND PUSH20 0xFFFFFFFFFFFFFFFFFFFFFFFFFFFFFFFFFFFFFFFF AND PUSH20 0xFFFFFFFFFFFFFFFFFFFFFFFFFFFFFFFFFFFFFFFF AND DUP2 MSTORE PUSH1 0x20 ADD PUSH1 0x0 DUP3 ADD PUSH1 0x14 SWAP1 SLOAD SWAP1 PUSH2 0x100 EXP SWAP1 DIV PUSH8 0xFFFFFFFFFFFFFFFF AND PUSH8 0xFFFFFFFFFFFFFFFF AND PUSH8 0xFFFFFFFFFFFFFFFF AND DUP2 MSTORE POP POP DUP2 MSTORE PUSH1 0x20 ADD PUSH1 0x2 DUP3 ADD PUSH1 0x0 SWAP1 SLOAD SWAP1 PUSH2 0x100 EXP SWAP1 DIV PUSH4 0xFFFFFFFF AND PUSH4 0xFFFFFFFF AND PUSH4 0xFFFFFFFF AND DUP2 MSTORE PUSH1 0x20 ADD PUSH1 0x2 DUP3 ADD PUSH1 0x4 SWAP1 SLOAD SWAP1 PUSH2 0x100 EXP SWAP1 DIV PUSH20 0xFFFFFFFFFFFFFFFFFFFFFFFFFFFFFFFFFFFFFFFF AND PUSH20 0xFFFFFFFFFFFFFFFFFFFFFFFFFFFFFFFFFFFFFFFF AND PUSH20 0xFFFFFFFFFFFFFFFFFFFFFFFFFFFFFFFFFFFFFFFF AND DUP2 MSTORE PUSH1 0x20 ADD PUSH1 0x3 DUP3 ADD SLOAD DUP2 MSTORE PUSH1 0x20 ADD PUSH1 0x4 DUP3 ADD PUSH1 0x40 MLOAD DUP1 PUSH1 0x40 ADD PUSH1 0x40 MSTORE SWAP1 DUP2 PUSH1 0x0 DUP3 ADD PUSH1 0x0 SWAP1 SLOAD SWAP1 PUSH2 0x100 EXP SWAP1 DIV PUSH1 0xFF AND PUSH1 0xFF AND PUSH1 0xFF AND DUP2 MSTORE PUSH1 0x20 ADD PUSH1 0x0 DUP3 ADD PUSH1 0x1 SWAP1 SLOAD SWAP1 PUSH2 0x100 EXP SWAP1 DIV PUSH20 0xFFFFFFFFFFFFFFFFFFFFFFFFFFFFFFFFFFFFFFFF AND PUSH20 0xFFFFFFFFFFFFFFFFFFFFFFFFFFFFFFFFFFFFFFFF AND PUSH20 0xFFFFFFFFFFFFFFFFFFFFFFFFFFFFFFFFFFFFFFFF AND DUP2 MSTORE POP POP DUP2 MSTORE PUSH1 0x20 ADD PUSH1 0x5 DUP3 ADD PUSH1 0x0 SWAP1 SLOAD SWAP1 PUSH2 0x100 EXP SWAP1 DIV PUSH20 0xFFFFFFFFFFFFFFFFFFFFFFFFFFFFFFFFFFFFFFFF AND PUSH20 0xFFFFFFFFFFFFFFFFFFFFFFFFFFFFFFFFFFFFFFFF AND PUSH20 0xFFFFFFFFFFFFFFFFFFFFFFFFFFFFFFFFFFFFFFFF AND DUP2 MSTORE PUSH1 0x20 ADD PUSH1 0x6 DUP3 ADD PUSH1 0x0 SWAP1 SLOAD SWAP1 PUSH2 0x100 EXP SWAP1 DIV PUSH20 0xFFFFFFFFFFFFFFFFFFFFFFFFFFFFFFFFFFFFFFFF AND PUSH20 0xFFFFFFFFFFFFFFFFFFFFFFFFFFFFFFFFFFFFFFFF AND PUSH20 0xFFFFFFFFFFFFFFFFFFFFFFFFFFFFFFFFFFFFFFFF AND DUP2 MSTORE POP POP DUP2 MSTORE PUSH1 0x20 ADD SWAP1 PUSH1 0x1 ADD SWAP1 PUSH2 0xC84 JUMP JUMPDEST POP POP POP POP DUP2 MSTORE POP SWAP1 POP DUP1 SWAP3 POP POP POP SWAP2 SWAP1 POP JUMP JUMPDEST PUSH1 0x0 DUP1 PUSH5 0x2540BE400 DUP4 DUP2 PUSH2 0xF56 JUMPI INVALID JUMPDEST DIV SWAP1 POP DUP1 SWAP2 POP POP SWAP2 SWAP1 POP JUMP JUMPDEST PUSH1 0x1A DUP2 DUP2 SLOAD DUP2 LT PUSH2 0xF72 JUMPI PUSH1 0x0 DUP1 REVERT JUMPDEST SWAP1 PUSH1 0x0 MSTORE PUSH1 0x20 PUSH1 0x0 KECCAK256 ADD PUSH1 0x0 SWAP2 POP SWAP1 POP DUP1 SLOAD PUSH1 0x1 DUP2 PUSH1 0x1 AND ISZERO PUSH2 0x100 MUL SUB AND PUSH1 0x2 SWAP1 DIV DUP1 PUSH1 0x1F ADD PUSH1 0x20 DUP1 SWAP2 DIV MUL PUSH1 0x20 ADD PUSH1 0x40 MLOAD SWAP1 DUP2 ADD PUSH1 0x40 MSTORE DUP1 SWAP3 SWAP2 SWAP1 DUP2 DUP2 MSTORE PUSH1 0x20 ADD DUP3 DUP1 SLOAD PUSH1 0x1 DUP2 PUSH1 0x1 AND ISZERO PUSH2 0x100 MUL SUB AND PUSH1 0x2 SWAP1 DIV DUP1 ISZERO PUSH2 0x1016 JUMPI DUP1 PUSH1 0x1F LT PUSH2 0xFEB JUMPI PUSH2 0x100 DUP1 DUP4 SLOAD DIV MUL DUP4 MSTORE SWAP2 PUSH1 0x20 ADD SWAP2 PUSH2 0x1016 JUMP JUMPDEST DUP3 ADD SWAP2 SWAP1 PUSH1 0x0 MSTORE PUSH1 0x20 PUSH1 0x0 KECCAK256 SWAP1 JUMPDEST DUP2 SLOAD DUP2 MSTORE SWAP1 PUSH1 0x1 ADD SWAP1 PUSH1 0x20 ADD DUP1 DUP4 GT PUSH2 0xFF9 JUMPI DUP3 SWAP1 SUB PUSH1 0x1F AND DUP3 ADD SWAP2 JUMPDEST POP POP POP POP POP DUP2 JUMP JUMPDEST PUSH1 0x8 SLOAD DUP2 JUMP JUMPDEST PUSH1 0x9 SLOAD DUP2 JUMP JUMPDEST PUSH1 0x1B DUP2 DUP2 SLOAD DUP2 LT PUSH2 0x103A JUMPI PUSH1 0x0 DUP1 REVERT JUMPDEST SWAP1 PUSH1 0x0 MSTORE PUSH1 0x20 PUSH1 0x0 KECCAK256 ADD PUSH1 0x0 SWAP2 POP SWAP1 POP SLOAD DUP2 JUMP JUMPDEST PUSH1 0xA SLOAD DUP2 JUMP JUMPDEST PUSH1 0x0 JUMPDEST DUP2 MLOAD DUP2 LT ISZERO PUSH2 0x108A JUMPI PUSH2 0x107C DUP3 DUP3 DUP2 MLOAD DUP2 LT PUSH2 0x106F JUMPI INVALID JUMPDEST PUSH1 0x20 MUL PUSH1 0x20 ADD ADD MLOAD PUSH2 0x2583 JUMP JUMPDEST POP DUP1 DUP1 PUSH1 0x1 ADD SWAP2 POP POP PUSH2 0x1057 JUMP JUMPDEST POP POP JUMP JUMPDEST PUSH1 0xF DUP1 PUSH1 0x0 ADD SLOAD SWAP1 DUP1 PUSH1 0x1 ADD SLOAD SWAP1 POP DUP3 JUMP JUMPDEST PUSH1 0x12 PUSH1 0x20 MSTORE DUP1 PUSH1 0x0 MSTORE PUSH1 0x40 PUSH1 0x0 KECCAK256 PUSH1 0x0 SWAP2 POP SWAP1 POP SLOAD DUP2 JUMP JUMPDEST PUSH1 0xE DUP3 DUP2 SLOAD DUP2 LT PUSH2 0x10C8 JUMPI PUSH1 0x0 DUP1 REVERT JUMPDEST SWAP1 PUSH1 0x0 MSTORE PUSH1 0x20 PUSH1 0x0 KECCAK256 ADD DUP2 DUP2 SLOAD DUP2 LT PUSH2 0x10E0 JUMPI PUSH1 0x0 DUP1 REVERT JUMPDEST SWAP1 PUSH1 0x0 MSTORE PUSH1 0x20 PUSH1 0x0 KECCAK256 SWAP1 PUSH1 0x7 MUL ADD PUSH1 0x0 SWAP2 POP SWAP2 POP POP DUP1 PUSH1 0x0 ADD PUSH1 0x0 SWAP1 SLOAD SWAP1 PUSH2 0x100 EXP SWAP1 DIV PUSH4 0xFFFFFFFF AND SWAP1 DUP1 PUSH1 0x1 ADD PUSH1 0x40 MLOAD DUP1 PUSH1 0x40 ADD PUSH1 0x40 MSTORE SWAP1 DUP2 PUSH1 0x0 DUP3 ADD PUSH1 0x0 SWAP1 SLOAD SWAP1 PUSH2 0x100 EXP SWAP1 DIV PUSH20 0xFFFFFFFFFFFFFFFFFFFFFFFFFFFFFFFFFFFFFFFF AND PUSH20 0xFFFFFFFFFFFFFFFFFFFFFFFFFFFFFFFFFFFFFFFF AND PUSH20 0xFFFFFFFFFFFFFFFFFFFFFFFFFFFFFFFFFFFFFFFF AND DUP2 MSTORE PUSH1 0x20 ADD PUSH1 0x0 DUP3 ADD PUSH1 0x14 SWAP1 SLOAD SWAP1 PUSH2 0x100 EXP SWAP1 DIV PUSH8 0xFFFFFFFFFFFFFFFF AND PUSH8 0xFFFFFFFFFFFFFFFF AND PUSH8 0xFFFFFFFFFFFFFFFF AND DUP2 MSTORE POP POP SWAP1 DUP1 PUSH1 0x2 ADD PUSH1 0x0 SWAP1 SLOAD SWAP1 PUSH2 0x100 EXP SWAP1 DIV PUSH4 0xFFFFFFFF AND SWAP1 DUP1 PUSH1 0x2 ADD PUSH1 0x4 SWAP1 SLOAD SWAP1 PUSH2 0x100 EXP SWAP1 DIV PUSH20 0xFFFFFFFFFFFFFFFFFFFFFFFFFFFFFFFFFFFFFFFF AND SWAP1 DUP1 PUSH1 0x3 ADD SLOAD SWAP1 DUP1 PUSH1 0x4 ADD PUSH1 0x40 MLOAD DUP1 PUSH1 0x40 ADD PUSH1 0x40 MSTORE SWAP1 DUP2 PUSH1 0x0 DUP3 ADD PUSH1 0x0 SWAP1 SLOAD SWAP1 PUSH2 0x100 EXP SWAP1 DIV PUSH1 0xFF AND PUSH1 0xFF AND PUSH1 0xFF AND DUP2 MSTORE PUSH1 0x20 ADD PUSH1 0x0 DUP3 ADD PUSH1 0x1 SWAP1 SLOAD SWAP1 PUSH2 0x100 EXP SWAP1 DIV PUSH20 0xFFFFFFFFFFFFFFFFFFFFFFFFFFFFFFFFFFFFFFFF AND PUSH20 0xFFFFFFFFFFFFFFFFFFFFFFFFFFFFFFFFFFFFFFFF AND PUSH20 0xFFFFFFFFFFFFFFFFFFFFFFFFFFFFFFFFFFFFFFFF AND DUP2 MSTORE POP POP SWAP1 DUP1 PUSH1 0x5 ADD PUSH1 0x0 SWAP1 SLOAD SWAP1 PUSH2 0x100 EXP SWAP1 DIV PUSH20 0xFFFFFFFFFFFFFFFFFFFFFFFFFFFFFFFFFFFFFFFF AND SWAP1 DUP1 PUSH1 0x6 ADD PUSH1 0x0 SWAP1 SLOAD SWAP1 PUSH2 0x100 EXP SWAP1 DIV PUSH20 0xFFFFFFFFFFFFFFFFFFFFFFFFFFFFFFFFFFFFFFFF AND SWAP1 POP DUP9 JUMP JUMPDEST PUSH2 0x12C0 PUSH2 0x2BF4 JUMP JUMPDEST PUSH2 0x12C8 PUSH2 0x2BF4 JUMP JUMPDEST PUSH1 0x13 PUSH1 0x0 ADD SLOAD DUP2 PUSH1 0x0 ADD DUP2 DUP2 MSTORE POP POP PUSH1 0x0 PUSH1 0x4 PUSH1 0x0 SWAP1 SLOAD SWAP1 PUSH2 0x100 EXP SWAP1 DIV PUSH20 0xFFFFFFFFFFFFFFFFFFFFFFFFFFFFFFFFFFFFFFFF AND PUSH20 0xFFFFFFFFFFFFFFFFFFFFFFFFFFFFFFFFFFFFFFFF AND PUSH4 0xAAF34B94 PUSH1 0x40 MLOAD DUP2 PUSH4 0xFFFFFFFF AND PUSH1 0xE0 SHL DUP2 MSTORE PUSH1 0x4 ADD PUSH1 0x0 PUSH1 0x40 MLOAD DUP1 DUP4 SUB DUP2 DUP7 DUP1 EXTCODESIZE ISZERO DUP1 ISZERO PUSH2 0x1341 JUMPI PUSH1 0x0 DUP1 REVERT JUMPDEST POP GAS STATICCALL ISZERO DUP1 ISZERO PUSH2 0x1355 JUMPI RETURNDATASIZE PUSH1 0x0 DUP1 RETURNDATACOPY RETURNDATASIZE PUSH1 0x0 REVERT JUMPDEST POP POP POP POP PUSH1 0x40 MLOAD RETURNDATASIZE PUSH1 0x0 DUP3 RETURNDATACOPY RETURNDATASIZE PUSH1 0x1F NOT PUSH1 0x1F DUP3 ADD AND DUP3 ADD DUP1 PUSH1 0x40 MSTORE POP DUP2 ADD SWAP1 PUSH2 0x137E SWAP2 SWAP1 PUSH2 0x4238 JUMP JUMPDEST SWAP1 POP PUSH1 0x0 PUSH1 0x4 PUSH1 0x0 SWAP1 SLOAD SWAP1 PUSH2 0x100 EXP SWAP1 DIV PUSH20 0xFFFFFFFFFFFFFFFFFFFFFFFFFFFFFFFFFFFFFFFF AND PUSH20 0xFFFFFFFFFFFFFFFFFFFFFFFFFFFFFFFFFFFFFFFF AND PUSH4 0x20CD6BA1 PUSH1 0x40 MLOAD DUP2 PUSH4 0xFFFFFFFF AND PUSH1 0xE0 SHL DUP2 MSTORE PUSH1 0x4 ADD PUSH1 0x20 PUSH1 0x40 MLOAD DUP1 DUP4 SUB DUP2 DUP7 DUP1 EXTCODESIZE ISZERO DUP1 ISZERO PUSH2 0x13EA JUMPI PUSH1 0x0 DUP1 REVERT JUMPDEST POP GAS STATICCALL ISZERO DUP1 ISZERO PUSH2 0x13FE JUMPI RETURNDATASIZE PUSH1 0x0 DUP1 RETURNDATACOPY RETURNDATASIZE PUSH1 0x0 REVERT JUMPDEST POP POP POP POP PUSH1 0x40 MLOAD RETURNDATASIZE PUSH1 0x1F NOT PUSH1 0x1F DUP3 ADD AND DUP3 ADD DUP1 PUSH1 0x40 MSTORE POP DUP2 ADD SWAP1 PUSH2 0x1422 SWAP2 SWAP1 PUSH2 0x44A5 JUMP JUMPDEST SWAP1 POP PUSH1 0x0 DUP1 PUSH20 0x67460C2F56774ED27EEB8685F29F6CEC0B090B00 PUSH20 0xFFFFFFFFFFFFFFFFFFFFFFFFFFFFFFFFFFFFFFFF AND DUP8 PUSH20 0xFFFFFFFFFFFFFFFFFFFFFFFFFFFFFFFFFFFFFFFF AND EQ ISZERO PUSH2 0x1492 JUMPI PUSH20 0x67460C2F56774ED27EEB8685F29F6CEC0B090B00 SWAP2 POP PUSH4 0x44AA200 SWAP1 POP PUSH2 0x149A JUMP JUMPDEST DUP7 SWAP2 POP PUSH1 0x0 SWAP1 POP JUMPDEST PUSH1 0x40 MLOAD DUP1 PUSH2 0x200 ADD PUSH1 0x40 MSTORE DUP1 PUSH1 0x13 PUSH1 0x0 ADD SLOAD DUP2 MSTORE PUSH1 0x20 ADD PUSH1 0x40 MLOAD DUP1 PUSH1 0x40 ADD PUSH1 0x40 MSTORE DUP1 PUSH1 0x4 DUP2 MSTORE PUSH1 0x20 ADD PUSH32 0x5645544800000000000000000000000000000000000000000000000000000000 DUP2 MSTORE POP DUP2 MSTORE PUSH1 0x20 ADD PUSH20 0x67460C2F56774ED27EEB8685F29F6CEC0B090B00 PUSH20 0xFFFFFFFFFFFFFFFFFFFFFFFFFFFFFFFFFFFFFFFF AND DUP2 MSTORE PUSH1 0x20 ADD PUSH20 0xA6EF9EA235635E328124FF3429DB9F9E91B64E2D PUSH20 0xFFFFFFFFFFFFFFFFFFFFFFFFFFFFFFFFFFFFFFFF AND DUP2 MSTORE PUSH1 0x20 ADD PUSH20 0xA6EF9EA235635E328124FF3429DB9F9E91B64E2D PUSH20 0xFFFFFFFFFFFFFFFFFFFFFFFFFFFFFFFFFFFFFFFF AND DUP2 MSTORE PUSH1 0x20 ADD PUSH1 0x2 PUSH1 0xFF AND DUP2 MSTORE PUSH1 0x20 ADD PUSH1 0x3 PUSH1 0xFF AND DUP2 MSTORE PUSH1 0x20 ADD PUSH1 0x40 MLOAD DUP1 PUSH1 0x40 ADD PUSH1 0x40 MSTORE DUP1 PUSH1 0x9 PUSH1 0xFF AND DUP2 MSTORE PUSH1 0x20 ADD DUP6 PUSH20 0xFFFFFFFFFFFFFFFFFFFFFFFFFFFFFFFFFFFFFFFF AND DUP2 MSTORE POP DUP2 MSTORE PUSH1 0x20 ADD PUSH20 0xA6EF9EA235635E328124FF3429DB9F9E91B64E2D PUSH20 0xFFFFFFFFFFFFFFFFFFFFFFFFFFFFFFFFFFFFFFFF AND DUP2 MSTORE PUSH1 0x20 ADD PUSH1 0x0 DUP2 MSTORE PUSH1 0x20 ADD PUSH1 0x0 DUP2 MSTORE PUSH1 0x20 ADD DUP3 DUP2 MSTORE PUSH1 0x20 ADD DUP3 DUP2 MSTORE PUSH1 0x20 ADD PUSH20 0x67460C2F56774ED27EEB8685F29F6CEC0B090B00 PUSH20 0xFFFFFFFFFFFFFFFFFFFFFFFFFFFFFFFFFFFFFFFF AND DUP2 MSTORE PUSH1 0x20 ADD DUP6 DUP2 MSTORE PUSH1 0x20 ADD DUP5 PUSH1 0xFF AND DUP2 MSTORE POP SWAP5 POP DUP5 SWAP6 POP POP POP POP POP POP SWAP2 SWAP1 POP JUMP JUMPDEST PUSH1 0x11 PUSH1 0x20 MSTORE DUP1 PUSH1 0x0 MSTORE PUSH1 0x40 PUSH1 0x0 KECCAK256 PUSH1 0x0 SWAP2 POP SWAP1 POP DUP1 PUSH1 0x0 ADD SLOAD SWAP1 DUP1 PUSH1 0x1 ADD PUSH1 0x0 SWAP1 SLOAD SWAP1 PUSH2 0x100 EXP SWAP1 DIV PUSH1 0xFF AND SWAP1 POP DUP3 JUMP JUMPDEST PUSH1 0x0 PUSH1 0x6 PUSH1 0x14 SWAP1 SLOAD SWAP1 PUSH2 0x100 EXP SWAP1 DIV PUSH1 0xFF AND ISZERO PUSH2 0x16DD JUMPI PUSH1 0x40 MLOAD PUSH32 0x8C379A000000000000000000000000000000000000000000000000000000000 DUP2 MSTORE PUSH1 0x4 ADD PUSH2 0x16D4 SWAP1 PUSH2 0x54F4 JUMP JUMPDEST PUSH1 0x40 MLOAD DUP1 SWAP2 SUB SWAP1 REVERT JUMPDEST PUSH1 0x0 PUSH1 0x12 PUSH1 0x0 CALLER PUSH20 0xFFFFFFFFFFFFFFFFFFFFFFFFFFFFFFFFFFFFFFFF AND PUSH20 0xFFFFFFFFFFFFFFFFFFFFFFFFFFFFFFFFFFFFFFFF AND DUP2 MSTORE PUSH1 0x20 ADD SWAP1 DUP2 MSTORE PUSH1 0x20 ADD PUSH1 0x0 KECCAK256 SLOAD GT ISZERO PUSH2 0x176F JUMPI PUSH2 0x176E PUSH1 0x12 PUSH1 0x0 CALLER PUSH20 0xFFFFFFFFFFFFFFFFFFFFFFFFFFFFFFFFFFFFFFFF AND PUSH20 0xFFFFFFFFFFFFFFFFFFFFFFFFFFFFFFFFFFFFFFFF AND DUP2 MSTORE PUSH1 0x20 ADD SWAP1 DUP2 MSTORE PUSH1 0x20 ADD PUSH1 0x0 KECCAK256 SLOAD CALLER PUSH2 0x2930 JUMP JUMPDEST JUMPDEST PUSH1 0x12 PUSH1 0x0 CALLER PUSH20 0xFFFFFFFFFFFFFFFFFFFFFFFFFFFFFFFFFFFFFFFF AND PUSH20 0xFFFFFFFFFFFFFFFFFFFFFFFFFFFFFFFFFFFFFFFF AND DUP2 MSTORE PUSH1 0x20 ADD SWAP1 DUP2 MSTORE PUSH1 0x20 ADD PUSH1 0x0 KECCAK256 SLOAD SWAP1 POP SWAP1 JUMP JUMPDEST PUSH1 0x19 DUP2 DUP2 SLOAD DUP2 LT PUSH2 0x17C4 JUMPI PUSH1 0x0 DUP1 REVERT JUMPDEST SWAP1 PUSH1 0x0 MSTORE PUSH1 0x20 PUSH1 0x0 KECCAK256 ADD PUSH1 0x0 SWAP2 POP SWAP1 POP DUP1 SLOAD PUSH1 0x1 DUP2 PUSH1 0x1 AND ISZERO PUSH2 0x100 MUL SUB AND PUSH1 0x2 SWAP1 DIV DUP1 PUSH1 0x1F ADD PUSH1 0x20 DUP1 SWAP2 DIV MUL PUSH1 0x20 ADD PUSH1 0x40 MLOAD SWAP1 DUP2 ADD PUSH1 0x40 MSTORE DUP1 SWAP3 SWAP2 SWAP1 DUP2 DUP2 MSTORE PUSH1 0x20 ADD DUP3 DUP1 SLOAD PUSH1 0x1 DUP2 PUSH1 0x1 AND ISZERO PUSH2 0x100 MUL SUB AND PUSH1 0x2 SWAP1 DIV DUP1 ISZERO PUSH2 0x1868 JUMPI DUP1 PUSH1 0x1F LT PUSH2 0x183D JUMPI PUSH2 0x100 DUP1 DUP4 SLOAD DIV MUL DUP4 MSTORE SWAP2 PUSH1 0x20 ADD SWAP2 PUSH2 0x1868 JUMP JUMPDEST DUP3 ADD SWAP2 SWAP1 PUSH1 0x0 MSTORE PUSH1 0x20 PUSH1 0x0 KECCAK256 SWAP1 JUMPDEST DUP2 SLOAD DUP2 MSTORE SWAP1 PUSH1 0x1 ADD SWAP1 PUSH1 0x20 ADD DUP1 DUP4 GT PUSH2 0x184B JUMPI DUP3 SWAP1 SUB PUSH1 0x1F AND DUP3 ADD SWAP2 JUMPDEST POP POP POP POP POP DUP2 JUMP JUMPDEST PUSH1 0xC DUP2 DUP2 SLOAD DUP2 LT PUSH2 0x1880 JUMPI PUSH1 0x0 DUP1 REVERT JUMPDEST SWAP1 PUSH1 0x0 MSTORE PUSH1 0x20 PUSH1 0x0 KECCAK256 ADD PUSH1 0x0 SWAP2 POP SWAP1 POP SLOAD DUP2 JUMP JUMPDEST PUSH1 0x60 PUSH1 0x0 PUSH1 0xB SLOAD DUP5 LT ISZERO PUSH2 0x18A8 JUMPI PUSH1 0xB SLOAD SWAP4 POP JUMPDEST PUSH1 0x0 DUP5 SWAP1 POP JUMPDEST DUP4 DUP2 GT PUSH2 0x18F2 JUMPI PUSH1 0x11 PUSH1 0x0 DUP3 DUP2 MSTORE PUSH1 0x20 ADD SWAP1 DUP2 MSTORE PUSH1 0x20 ADD PUSH1 0x0 KECCAK256 PUSH1 0x1 ADD PUSH1 0x0 SWAP1 SLOAD SWAP1 PUSH2 0x100 EXP SWAP1 DIV PUSH1 0xFF AND ISZERO PUSH2 0x18E5 JUMPI PUSH1 0x1 DUP3 ADD SWAP2 POP JUMPDEST DUP1 DUP1 PUSH1 0x1 ADD SWAP2 POP POP PUSH2 0x18AE JUMP JUMPDEST POP PUSH1 0x0 DUP2 PUSH8 0xFFFFFFFFFFFFFFFF DUP2 GT DUP1 ISZERO PUSH2 0x190C JUMPI PUSH1 0x0 DUP1 REVERT JUMPDEST POP PUSH1 0x40 MLOAD SWAP1 DUP1 DUP3 MSTORE DUP1 PUSH1 0x20 MUL PUSH1 0x20 ADD DUP3 ADD PUSH1 0x40 MSTORE DUP1 ISZERO PUSH2 0x1946 JUMPI DUP2 PUSH1 0x20 ADD JUMPDEST PUSH2 0x1933 PUSH2 0x2BC9 JUMP JUMPDEST DUP2 MSTORE PUSH1 0x20 ADD SWAP1 PUSH1 0x1 SWAP1 SUB SWAP1 DUP2 PUSH2 0x192B JUMPI SWAP1 POP JUMPDEST POP SWAP1 POP PUSH1 0x0 DUP1 DUP7 SWAP1 POP JUMPDEST DUP6 DUP2 GT PUSH2 0x19B6 JUMPI PUSH1 0x11 PUSH1 0x0 DUP3 DUP2 MSTORE PUSH1 0x20 ADD SWAP1 DUP2 MSTORE PUSH1 0x20 ADD PUSH1 0x0 KECCAK256 PUSH1 0x1 ADD PUSH1 0x0 SWAP1 SLOAD SWAP1 PUSH2 0x100 EXP SWAP1 DIV PUSH1 0xFF AND ISZERO PUSH2 0x19A9 JUMPI PUSH2 0x1989 DUP2 PUSH2 0xBF4 JUMP JUMPDEST DUP4 DUP4 DUP2 MLOAD DUP2 LT PUSH2 0x1995 JUMPI INVALID JUMPDEST PUSH1 0x20 MUL PUSH1 0x20 ADD ADD DUP2 SWAP1 MSTORE POP DUP2 DUP1 PUSH1 0x1 ADD SWAP3 POP POP JUMPDEST DUP1 DUP1 PUSH1 0x1 ADD SWAP2 POP POP PUSH2 0x1950 JUMP JUMPDEST POP DUP2 SWAP4 POP POP POP POP SWAP3 SWAP2 POP POP JUMP JUMPDEST PUSH1 0x0 PUSH1 0x6 PUSH1 0x14 SWAP1 SLOAD SWAP1 PUSH2 0x100 EXP SWAP1 DIV PUSH1 0xFF AND ISZERO PUSH2 0x1A15 JUMPI PUSH1 0x40 MLOAD PUSH32 0x8C379A000000000000000000000000000000000000000000000000000000000 DUP2 MSTORE PUSH1 0x4 ADD PUSH2 0x1A0C SWAP1 PUSH2 0x54F4 JUMP JUMPDEST PUSH1 0x40 MLOAD DUP1 SWAP2 SUB SWAP1 REVERT JUMPDEST PUSH6 0x5AF3107A4000 CALLVALUE GT PUSH2 0x1A5D JUMPI PUSH1 0x40 MLOAD PUSH32 0x8C379A000000000000000000000000000000000000000000000000000000000 DUP2 MSTORE PUSH1 0x4 ADD PUSH2 0x1A54 SWAP1 PUSH2 0x5554 JUMP JUMPDEST PUSH1 0x40 MLOAD DUP1 SWAP2 SUB SWAP1 REVERT JUMPDEST PUSH1 0x0 PUSH6 0x5AF3107A4000 CALLVALUE SUB SWAP1 POP DUP1 PUSH1 0x9 PUSH1 0x0 DUP3 DUP3 SLOAD ADD SWAP3 POP POP DUP2 SWAP1 SSTORE POP PUSH6 0x5AF3107A4000 PUSH1 0x8 PUSH1 0x0 DUP3 DUP3 SLOAD ADD SWAP3 POP POP DUP2 SWAP1 SSTORE POP PUSH2 0x1AD0 PUSH2 0x1A9C DUP3 PUSH2 0xF45 JUMP JUMPDEST PUSH20 0x67460C2F56774ED27EEB8685F29F6CEC0B090B00 DUP10 DUP10 PUSH20 0xA6EF9EA235635E328124FF3429DB9F9E91B64E2D DUP10 DUP12 DUP11 PUSH2 0x1ADD JUMP JUMPDEST DUP1 SWAP2 POP POP SWAP6 SWAP5 POP POP POP POP POP JUMP JUMPDEST PUSH1 0x0 NUMBER SWAP1 POP PUSH1 0x0 DUP1 PUSH1 0x0 PUSH1 0x41 SWAP1 POP PUSH1 0x0 PUSH1 0x40 MLOAD DUP1 PUSH1 0x40 ADD PUSH1 0x40 MSTORE DUP1 DUP12 PUSH1 0xFF AND DUP2 MSTORE PUSH1 0x20 ADD DUP13 PUSH20 0xFFFFFFFFFFFFFFFFFFFFFFFFFFFFFFFFFFFFFFFF AND DUP2 MSTORE POP SWAP1 POP PUSH1 0x0 PUSH1 0x40 MLOAD DUP1 PUSH1 0x40 ADD PUSH1 0x40 MSTORE DUP1 DUP15 PUSH20 0xFFFFFFFFFFFFFFFFFFFFFFFFFFFFFFFFFFFFFFFF AND DUP2 MSTORE PUSH1 0x20 ADD DUP16 PUSH8 0xFFFFFFFFFFFFFFFF AND DUP2 MSTORE POP SWAP1 POP PUSH1 0x0 PUSH1 0x40 MLOAD DUP1 PUSH2 0x100 ADD PUSH1 0x40 MSTORE DUP1 PUSH1 0x1 PUSH4 0xFFFFFFFF AND DUP2 MSTORE PUSH1 0x20 ADD DUP4 DUP2 MSTORE PUSH1 0x20 ADD DUP6 PUSH4 0xFFFFFFFF AND DUP2 MSTORE PUSH1 0x20 ADD DUP11 PUSH20 0xFFFFFFFFFFFFFFFFFFFFFFFFFFFFFFFFFFFFFFFF AND DUP2 MSTORE PUSH1 0x20 ADD DUP12 DUP2 MSTORE PUSH1 0x20 ADD DUP5 DUP2 MSTORE PUSH1 0x20 ADD DUP13 PUSH20 0xFFFFFFFFFFFFFFFFFFFFFFFFFFFFFFFFFFFFFFFF AND DUP2 MSTORE PUSH1 0x20 ADD DUP10 PUSH20 0xFFFFFFFFFFFFFFFFFFFFFFFFFFFFFFFFFFFFFFFF AND DUP2 MSTORE POP SWAP1 POP PUSH2 0x1BF5 DUP2 PUSH1 0x80 ADD MLOAD DUP3 PUSH1 0x60 ADD MLOAD PUSH2 0x2A0E JUMP JUMPDEST ISZERO PUSH2 0x1C0F JUMPI DUP1 PUSH1 0x80 ADD MLOAD PUSH1 0xA PUSH1 0x0 DUP3 DUP3 SLOAD SUB SWAP3 POP POP DUP2 SWAP1 SSTORE POP JUMPDEST PUSH1 0x11 PUSH1 0x0 DUP9 DUP2 MSTORE PUSH1 0x20 ADD SWAP1 DUP2 MSTORE PUSH1 0x20 ADD PUSH1 0x0 KECCAK256 PUSH1 0x1 ADD PUSH1 0x0 SWAP1 SLOAD SWAP1 PUSH2 0x100 EXP SWAP1 DIV PUSH1 0xFF AND ISZERO PUSH2 0x1EBE JUMPI PUSH1 0x11 PUSH1 0x0 DUP9 DUP2 MSTORE PUSH1 0x20 ADD SWAP1 DUP2 MSTORE PUSH1 0x20 ADD PUSH1 0x0 KECCAK256 PUSH1 0x0 ADD SLOAD SWAP6 POP PUSH1 0xE DUP7 DUP2 SLOAD DUP2 LT PUSH2 0x1C5E JUMPI INVALID JUMPDEST SWAP1 PUSH1 0x0 MSTORE PUSH1 0x20 PUSH1 0x0 KECCAK256 ADD DUP2 SWAP1 DUP1 PUSH1 0x1 DUP2 SLOAD ADD DUP1 DUP3 SSTORE DUP1 SWAP2 POP POP PUSH1 0x1 SWAP1 SUB SWAP1 PUSH1 0x0 MSTORE PUSH1 0x20 PUSH1 0x0 KECCAK256 SWAP1 PUSH1 0x7 MUL ADD PUSH1 0x0 SWAP1 SWAP2 SWAP1 SWAP2 SWAP1 SWAP2 POP PUSH1 0x0 DUP3 ADD MLOAD DUP2 PUSH1 0x0 ADD PUSH1 0x0 PUSH2 0x100 EXP DUP2 SLOAD DUP2 PUSH4 0xFFFFFFFF MUL NOT AND SWAP1 DUP4 PUSH4 0xFFFFFFFF AND MUL OR SWAP1 SSTORE POP PUSH1 0x20 DUP3 ADD MLOAD DUP2 PUSH1 0x1 ADD PUSH1 0x0 DUP3 ADD MLOAD DUP2 PUSH1 0x0 ADD PUSH1 0x0 PUSH2 0x100 EXP DUP2 SLOAD DUP2 PUSH20 0xFFFFFFFFFFFFFFFFFFFFFFFFFFFFFFFFFFFFFFFF MUL NOT AND SWAP1 DUP4 PUSH20 0xFFFFFFFFFFFFFFFFFFFFFFFFFFFFFFFFFFFFFFFF AND MUL OR SWAP1 SSTORE POP PUSH1 0x20 DUP3 ADD MLOAD DUP2 PUSH1 0x0 ADD PUSH1 0x14 PUSH2 0x100 EXP DUP2 SLOAD DUP2 PUSH8 0xFFFFFFFFFFFFFFFF MUL NOT AND SWAP1 DUP4 PUSH8 0xFFFFFFFFFFFFFFFF AND MUL OR SWAP1 SSTORE POP POP POP PUSH1 0x40 DUP3 ADD MLOAD DUP2 PUSH1 0x2 ADD PUSH1 0x0 PUSH2 0x100 EXP DUP2 SLOAD DUP2 PUSH4 0xFFFFFFFF MUL NOT AND SWAP1 DUP4 PUSH4 0xFFFFFFFF AND MUL OR SWAP1 SSTORE POP PUSH1 0x60 DUP3 ADD MLOAD DUP2 PUSH1 0x2 ADD PUSH1 0x4 PUSH2 0x100 EXP DUP2 SLOAD DUP2 PUSH20 0xFFFFFFFFFFFFFFFFFFFFFFFFFFFFFFFFFFFFFFFF MUL NOT AND SWAP1 DUP4 PUSH20 0xFFFFFFFFFFFFFFFFFFFFFFFFFFFFFFFFFFFFFFFF AND MUL OR SWAP1 SSTORE POP PUSH1 0x80 DUP3 ADD MLOAD DUP2 PUSH1 0x3 ADD SSTORE PUSH1 0xA0 DUP3 ADD MLOAD DUP2 PUSH1 0x4 ADD PUSH1 0x0 DUP3 ADD MLOAD DUP2 PUSH1 0x0 ADD PUSH1 0x0 PUSH2 0x100 EXP DUP2 SLOAD DUP2 PUSH1 0xFF MUL NOT AND SWAP1 DUP4 PUSH1 0xFF AND MUL OR SWAP1 SSTORE POP PUSH1 0x20 DUP3 ADD MLOAD DUP2 PUSH1 0x0 ADD PUSH1 0x1 PUSH2 0x100 EXP DUP2 SLOAD DUP2 PUSH20 0xFFFFFFFFFFFFFFFFFFFFFFFFFFFFFFFFFFFFFFFF MUL NOT AND SWAP1 DUP4 PUSH20 0xFFFFFFFFFFFFFFFFFFFFFFFFFFFFFFFFFFFFFFFF AND MUL OR SWAP1 SSTORE POP POP POP PUSH1 0xC0 DUP3 ADD MLOAD DUP2 PUSH1 0x5 ADD PUSH1 0x0 PUSH2 0x100 EXP DUP2 SLOAD DUP2 PUSH20 0xFFFFFFFFFFFFFFFFFFFFFFFFFFFFFFFFFFFFFFFF MUL NOT AND SWAP1 DUP4 PUSH20 0xFFFFFFFFFFFFFFFFFFFFFFFFFFFFFFFFFFFFFFFF AND MUL OR SWAP1 SSTORE POP PUSH1 0xE0 DUP3 ADD MLOAD DUP2 PUSH1 0x6 ADD PUSH1 0x0 PUSH2 0x100 EXP DUP2 SLOAD DUP2 PUSH20 0xFFFFFFFFFFFFFFFFFFFFFFFFFFFFFFFFFFFFFFFF MUL NOT AND SWAP1 DUP4 PUSH20 0xFFFFFFFFFFFFFFFFFFFFFFFFFFFFFFFFFFFFFFFF AND MUL OR SWAP1 SSTORE POP POP POP PUSH1 0x0 SWAP5 POP PUSH2 0x21BB JUMP JUMPDEST PUSH1 0xD DUP2 SWAP1 DUP1 PUSH1 0x1 DUP2 SLOAD ADD DUP1 DUP3 SSTORE DUP1 SWAP2 POP POP PUSH1 0x1 SWAP1 SUB SWAP1 PUSH1 0x0 MSTORE PUSH1 0x20 PUSH1 0x0 KECCAK256 SWAP1 PUSH1 0x7 MUL ADD PUSH1 0x0 SWAP1 SWAP2 SWAP1 SWAP2 SWAP1 SWAP2 POP PUSH1 0x0 DUP3 ADD MLOAD DUP2 PUSH1 0x0 ADD PUSH1 0x0 PUSH2 0x100 EXP DUP2 SLOAD DUP2 PUSH4 0xFFFFFFFF MUL NOT AND SWAP1 DUP4 PUSH4 0xFFFFFFFF AND MUL OR SWAP1 SSTORE POP PUSH1 0x20 DUP3 ADD MLOAD DUP2 PUSH1 0x1 ADD PUSH1 0x0 DUP3 ADD MLOAD DUP2 PUSH1 0x0 ADD PUSH1 0x0 PUSH2 0x100 EXP DUP2 SLOAD DUP2 PUSH20 0xFFFFFFFFFFFFFFFFFFFFFFFFFFFFFFFFFFFFFFFF MUL NOT AND SWAP1 DUP4 PUSH20 0xFFFFFFFFFFFFFFFFFFFFFFFFFFFFFFFFFFFFFFFF AND MUL OR SWAP1 SSTORE POP PUSH1 0x20 DUP3 ADD MLOAD DUP2 PUSH1 0x0 ADD PUSH1 0x14 PUSH2 0x100 EXP DUP2 SLOAD DUP2 PUSH8 0xFFFFFFFFFFFFFFFF MUL NOT AND SWAP1 DUP4 PUSH8 0xFFFFFFFFFFFFFFFF AND MUL OR SWAP1 SSTORE POP POP POP PUSH1 0x40 DUP3 ADD MLOAD DUP2 PUSH1 0x2 ADD PUSH1 0x0 PUSH2 0x100 EXP DUP2 SLOAD DUP2 PUSH4 0xFFFFFFFF MUL NOT AND SWAP1 DUP4 PUSH4 0xFFFFFFFF AND MUL OR SWAP1 SSTORE POP PUSH1 0x60 DUP3 ADD MLOAD DUP2 PUSH1 0x2 ADD PUSH1 0x4 PUSH2 0x100 EXP DUP2 SLOAD DUP2 PUSH20 0xFFFFFFFFFFFFFFFFFFFFFFFFFFFFFFFFFFFFFFFF MUL NOT AND SWAP1 DUP4 PUSH20 0xFFFFFFFFFFFFFFFFFFFFFFFFFFFFFFFFFFFFFFFF AND MUL OR SWAP1 SSTORE POP PUSH1 0x80 DUP3 ADD MLOAD DUP2 PUSH1 0x3 ADD SSTORE PUSH1 0xA0 DUP3 ADD MLOAD DUP2 PUSH1 0x4 ADD PUSH1 0x0 DUP3 ADD MLOAD DUP2 PUSH1 0x0 ADD PUSH1 0x0 PUSH2 0x100 EXP DUP2 SLOAD DUP2 PUSH1 0xFF MUL NOT AND SWAP1 DUP4 PUSH1 0xFF AND MUL OR SWAP1 SSTORE POP PUSH1 0x20 DUP3 ADD MLOAD DUP2 PUSH1 0x0 ADD PUSH1 0x1 PUSH2 0x100 EXP DUP2 SLOAD DUP2 PUSH20 0xFFFFFFFFFFFFFFFFFFFFFFFFFFFFFFFFFFFFFFFF MUL NOT AND SWAP1 DUP4 PUSH20 0xFFFFFFFFFFFFFFFFFFFFFFFFFFFFFFFFFFFFFFFF AND MUL OR SWAP1 SSTORE POP POP POP PUSH1 0xC0 DUP3 ADD MLOAD DUP2 PUSH1 0x5 ADD PUSH1 0x0 PUSH2 0x100 EXP DUP2 SLOAD DUP2 PUSH20 0xFFFFFFFFFFFFFFFFFFFFFFFFFFFFFFFFFFFFFFFF MUL NOT AND SWAP1 DUP4 PUSH20 0xFFFFFFFFFFFFFFFFFFFFFFFFFFFFFFFFFFFFFFFF AND MUL OR SWAP1 SSTORE POP PUSH1 0xE0 DUP3 ADD MLOAD DUP2 PUSH1 0x6 ADD PUSH1 0x0 PUSH2 0x100 EXP DUP2 SLOAD DUP2 PUSH20 0xFFFFFFFFFFFFFFFFFFFFFFFFFFFFFFFFFFFFFFFF MUL NOT AND SWAP1 DUP4 PUSH20 0xFFFFFFFFFFFFFFFFFFFFFFFFFFFFFFFFFFFFFFFF AND MUL OR SWAP1 SSTORE POP POP POP PUSH1 0xE PUSH1 0xD SWAP1 DUP1 PUSH1 0x1 DUP2 SLOAD ADD DUP1 DUP3 SSTORE DUP1 SWAP2 POP POP PUSH1 0x1 SWAP1 SUB SWAP1 PUSH1 0x0 MSTORE PUSH1 0x20 PUSH1 0x0 KECCAK256 ADD PUSH1 0x0 SWAP1 SWAP2 SWAP1 SWAP2 SWAP1 SWAP2 POP SWAP1 DUP1 SLOAD PUSH2 0x2144 SWAP3 SWAP2 SWAP1 PUSH2 0x2CEB JUMP JUMPDEST POP PUSH1 0x1 PUSH1 0xE DUP1 SLOAD SWAP1 POP SUB SWAP6 POP PUSH1 0x40 MLOAD DUP1 PUSH1 0x40 ADD PUSH1 0x40 MSTORE DUP1 DUP8 DUP2 MSTORE PUSH1 0x20 ADD PUSH1 0x1 ISZERO ISZERO DUP2 MSTORE POP PUSH1 0x11 PUSH1 0x0 DUP10 DUP2 MSTORE PUSH1 0x20 ADD SWAP1 DUP2 MSTORE PUSH1 0x20 ADD PUSH1 0x0 KECCAK256 PUSH1 0x0 DUP3 ADD MLOAD DUP2 PUSH1 0x0 ADD SSTORE PUSH1 0x20 DUP3 ADD MLOAD DUP2 PUSH1 0x1 ADD PUSH1 0x0 PUSH2 0x100 EXP DUP2 SLOAD DUP2 PUSH1 0xFF MUL NOT AND SWAP1 DUP4 ISZERO ISZERO MUL OR SWAP1 SSTORE POP SWAP1 POP POP PUSH1 0xD PUSH1 0x0 PUSH2 0x21B6 SWAP2 SWAP1 PUSH2 0x3043 JUMP JUMPDEST PUSH1 0x1 SWAP5 POP JUMPDEST PUSH1 0x0 PUSH1 0x5 PUSH1 0x0 SWAP1 SLOAD SWAP1 PUSH2 0x100 EXP SWAP1 DIV PUSH20 0xFFFFFFFFFFFFFFFFFFFFFFFFFFFFFFFFFFFFFFFF AND PUSH20 0xFFFFFFFFFFFFFFFFFFFFFFFFFFFFFFFFFFFFFFFF AND PUSH4 0xFE3C423B PUSH1 0xE DUP10 DUP2 SLOAD DUP2 LT PUSH2 0x2208 JUMPI INVALID JUMPDEST SWAP1 PUSH1 0x0 MSTORE PUSH1 0x20 PUSH1 0x0 KECCAK256 ADD PUSH1 0x40 MLOAD DUP3 PUSH4 0xFFFFFFFF AND PUSH1 0xE0 SHL DUP2 MSTORE PUSH1 0x4 ADD PUSH2 0x222E SWAP2 SWAP1 PUSH2 0x542A JUMP JUMPDEST PUSH1 0x0 PUSH1 0x40 MLOAD DUP1 DUP4 SUB DUP2 PUSH1 0x0 DUP8 DUP1 EXTCODESIZE ISZERO DUP1 ISZERO PUSH2 0x2248 JUMPI PUSH1 0x0 DUP1 REVERT JUMPDEST POP GAS CALL ISZERO DUP1 ISZERO PUSH2 0x225C JUMPI RETURNDATASIZE PUSH1 0x0 DUP1 RETURNDATACOPY RETURNDATASIZE PUSH1 0x0 REVERT JUMPDEST POP POP POP POP PUSH1 0x40 MLOAD RETURNDATASIZE PUSH1 0x0 DUP3 RETURNDATACOPY RETURNDATASIZE PUSH1 0x1F NOT PUSH1 0x1F DUP3 ADD AND DUP3 ADD DUP1 PUSH1 0x40 MSTORE POP DUP2 ADD SWAP1 PUSH2 0x2285 SWAP2 SWAP1 PUSH2 0x4324 JUMP JUMPDEST SWAP1 POP PUSH1 0x0 PUSH1 0x1 PUSH1 0x0 SWAP1 SLOAD SWAP1 PUSH2 0x100 EXP SWAP1 DIV PUSH20 0xFFFFFFFFFFFFFFFFFFFFFFFFFFFFFFFFFFFFFFFF AND PUSH20 0xFFFFFFFFFFFFFFFFFFFFFFFFFFFFFFFFFFFFFFFF AND PUSH4 0x343BEE60 DUP4 PUSH1 0x40 MLOAD DUP3 PUSH4 0xFFFFFFFF AND PUSH1 0xE0 SHL DUP2 MSTORE PUSH1 0x4 ADD PUSH2 0x22E4 SWAP2 SWAP1 PUSH2 0x55F4 JUMP JUMPDEST PUSH1 0x0 PUSH1 0x40 MLOAD DUP1 DUP4 SUB DUP2 DUP7 DUP1 EXTCODESIZE ISZERO DUP1 ISZERO PUSH2 0x22FC JUMPI PUSH1 0x0 DUP1 REVERT JUMPDEST POP GAS STATICCALL ISZERO DUP1 ISZERO PUSH2 0x2310 JUMPI RETURNDATASIZE PUSH1 0x0 DUP1 RETURNDATACOPY RETURNDATASIZE PUSH1 0x0 REVERT JUMPDEST POP POP POP POP PUSH1 0x40 MLOAD RETURNDATASIZE PUSH1 0x0 DUP3 RETURNDATACOPY RETURNDATASIZE PUSH1 0x1F NOT PUSH1 0x1F DUP3 ADD AND DUP3 ADD DUP1 PUSH1 0x40 MSTORE POP DUP2 ADD SWAP1 PUSH2 0x2339 SWAP2 SWAP1 PUSH2 0x42E3 JUMP JUMPDEST SWAP1 POP PUSH1 0x0 PUSH1 0x1 PUSH1 0x0 SWAP1 SLOAD SWAP1 PUSH2 0x100 EXP SWAP1 DIV PUSH20 0xFFFFFFFFFFFFFFFFFFFFFFFFFFFFFFFFFFFFFFFF AND PUSH20 0xFFFFFFFFFFFFFFFFFFFFFFFFFFFFFFFFFFFFFFFF AND PUSH4 0xB04D197A PUSH1 0xE DUP12 DUP2 SLOAD DUP2 LT PUSH2 0x2388 JUMPI INVALID JUMPDEST SWAP1 PUSH1 0x0 MSTORE PUSH1 0x20 PUSH1 0x0 KECCAK256 ADD PUSH1 0x0 PUSH1 0x40 MLOAD DUP4 PUSH4 0xFFFFFFFF AND PUSH1 0xE0 SHL DUP2 MSTORE PUSH1 0x4 ADD PUSH2 0x23B1 SWAP3 SWAP2 SWAP1 PUSH2 0x544C JUMP JUMPDEST PUSH1 0x0 PUSH1 0x40 MLOAD DUP1 DUP4 SUB DUP2 DUP7 DUP1 EXTCODESIZE ISZERO DUP1 ISZERO PUSH2 0x23C9 JUMPI PUSH1 0x0 DUP1 REVERT JUMPDEST POP GAS STATICCALL ISZERO DUP1 ISZERO PUSH2 0x23DD JUMPI RETURNDATASIZE PUSH1 0x0 DUP1 RETURNDATACOPY RETURNDATASIZE PUSH1 0x0 REVERT JUMPDEST POP POP POP POP PUSH1 0x40 MLOAD RETURNDATASIZE PUSH1 0x0 DUP3 RETURNDATACOPY RETURNDATASIZE PUSH1 0x1F NOT PUSH1 0x1F DUP3 ADD AND DUP3 ADD DUP1 PUSH1 0x40 MSTORE POP DUP2 ADD SWAP1 PUSH2 0x2406 SWAP2 SWAP1 PUSH2 0x42E3 JUMP JUMPDEST SWAP1 POP PUSH1 0x19 DUP2 SWAP1 DUP1 PUSH1 0x1 DUP2 SLOAD ADD DUP1 DUP3 SSTORE DUP1 SWAP2 POP POP PUSH1 0x1 SWAP1 SUB SWAP1 PUSH1 0x0 MSTORE PUSH1 0x20 PUSH1 0x0 KECCAK256 ADD PUSH1 0x0 SWAP1 SWAP2 SWAP1 SWAP2 SWAP1 SWAP2 POP SWAP1 DUP1 MLOAD SWAP1 PUSH1 0x20 ADD SWAP1 PUSH2 0x2443 SWAP3 SWAP2 SWAP1 PUSH2 0x3067 JUMP JUMPDEST POP PUSH1 0x0 DUP2 DUP1 MLOAD SWAP1 PUSH1 0x20 ADD KECCAK256 SWAP1 POP PUSH1 0x0 DUP4 DUP4 PUSH1 0x40 MLOAD PUSH1 0x20 ADD PUSH2 0x2465 SWAP3 SWAP2 SWAP1 PUSH2 0x5309 JUMP JUMPDEST PUSH1 0x40 MLOAD PUSH1 0x20 DUP2 DUP4 SUB SUB DUP2 MSTORE SWAP1 PUSH1 0x40 MSTORE SWAP1 POP PUSH1 0x1A DUP2 SWAP1 DUP1 PUSH1 0x1 DUP2 SLOAD ADD DUP1 DUP3 SSTORE DUP1 SWAP2 POP POP PUSH1 0x1 SWAP1 SUB SWAP1 PUSH1 0x0 MSTORE PUSH1 0x20 PUSH1 0x0 KECCAK256 ADD PUSH1 0x0 SWAP1 SWAP2 SWAP1 SWAP2 SWAP1 SWAP2 POP SWAP1 DUP1 MLOAD SWAP1 PUSH1 0x20 ADD SWAP1 PUSH2 0x24B1 SWAP3 SWAP2 SWAP1 PUSH2 0x3067 JUMP JUMPDEST POP PUSH1 0x1B DUP3 SWAP1 DUP1 PUSH1 0x1 DUP2 SLOAD ADD DUP1 DUP3 SSTORE DUP1 SWAP2 POP POP PUSH1 0x1 SWAP1 SUB SWAP1 PUSH1 0x0 MSTORE PUSH1 0x20 PUSH1 0x0 KECCAK256 ADD PUSH1 0x0 SWAP1 SWAP2 SWAP1 SWAP2 SWAP1 SWAP2 POP SSTORE PUSH1 0x0 DUP5 DUP5 PUSH1 0x40 MLOAD PUSH1 0x20 ADD PUSH2 0x24F0 SWAP3 SWAP2 SWAP1 PUSH2 0x5309 JUMP JUMPDEST PUSH1 0x40 MLOAD PUSH1 0x20 DUP2 DUP4 SUB SUB DUP2 MSTORE SWAP1 PUSH1 0x40 MSTORE DUP1 MLOAD SWAP1 PUSH1 0x20 ADD KECCAK256 SWAP1 POP DUP11 ISZERO PUSH2 0x253C JUMPI PUSH1 0xC DUP2 SWAP1 DUP1 PUSH1 0x1 DUP2 SLOAD ADD DUP1 DUP3 SSTORE DUP1 SWAP2 POP POP PUSH1 0x1 SWAP1 SUB SWAP1 PUSH1 0x0 MSTORE PUSH1 0x20 PUSH1 0x0 KECCAK256 ADD PUSH1 0x0 SWAP1 SWAP2 SWAP1 SWAP2 SWAP1 SWAP2 POP SSTORE PUSH2 0x2559 JUMP JUMPDEST DUP1 PUSH1 0xC DUP14 DUP2 SLOAD DUP2 LT PUSH2 0x254A JUMPI INVALID JUMPDEST SWAP1 PUSH1 0x0 MSTORE PUSH1 0x20 PUSH1 0x0 KECCAK256 ADD DUP2 SWAP1 SSTORE POP JUMPDEST PUSH1 0x0 PUSH1 0xB SLOAD EQ ISZERO PUSH2 0x256C JUMPI DUP13 PUSH1 0xB DUP2 SWAP1 SSTORE POP JUMPDEST POP POP POP POP POP POP POP POP POP POP POP POP POP POP POP POP POP POP POP POP POP JUMP JUMPDEST PUSH1 0x0 PUSH1 0xF PUSH1 0x0 ADD SLOAD DUP3 PUSH1 0x0 ADD MLOAD LT ISZERO DUP1 ISZERO PUSH2 0x25A7 JUMPI POP PUSH1 0xF PUSH1 0x1 ADD SLOAD DUP3 PUSH1 0x20 ADD MLOAD EQ ISZERO JUMPDEST PUSH2 0x25E6 JUMPI PUSH1 0x40 MLOAD PUSH32 0x8C379A000000000000000000000000000000000000000000000000000000000 DUP2 MSTORE PUSH1 0x4 ADD PUSH2 0x25DD SWAP1 PUSH2 0x5514 JUMP JUMPDEST PUSH1 0x40 MLOAD DUP1 SWAP2 SUB SWAP1 REVERT JUMPDEST DUP2 PUSH1 0x0 ADD MLOAD PUSH1 0xF PUSH1 0x0 ADD DUP2 SWAP1 SSTORE POP DUP2 PUSH1 0x20 ADD MLOAD PUSH1 0xF PUSH1 0x1 ADD DUP2 SWAP1 SSTORE POP PUSH1 0x0 JUMPDEST DUP3 PUSH1 0xA0 ADD MLOAD MLOAD DUP2 LT ISZERO PUSH2 0x2926 JUMPI PUSH20 0x67460C2F56774ED27EEB8685F29F6CEC0B090B00 PUSH20 0xFFFFFFFFFFFFFFFFFFFFFFFFFFFFFFFFFFFFFFFF AND DUP4 PUSH1 0xA0 ADD MLOAD DUP3 DUP2 MLOAD DUP2 LT PUSH2 0x264D JUMPI INVALID JUMPDEST PUSH1 0x20 MUL PUSH1 0x20 ADD ADD MLOAD PUSH1 0xC0 ADD MLOAD PUSH20 0xFFFFFFFFFFFFFFFFFFFFFFFFFFFFFFFFFFFFFFFF AND EQ ISZERO PUSH2 0x2705 JUMPI PUSH2 0x26C7 DUP4 PUSH1 0xA0 ADD MLOAD DUP3 DUP2 MLOAD DUP2 LT PUSH2 0x2688 JUMPI INVALID JUMPDEST PUSH1 0x20 MUL PUSH1 0x20 ADD ADD MLOAD PUSH1 0x20 ADD MLOAD PUSH1 0x20 ADD MLOAD PUSH8 0xFFFFFFFFFFFFFFFF AND DUP5 PUSH1 0xA0 ADD MLOAD DUP4 DUP2 MLOAD DUP2 LT PUSH2 0x26B2 JUMPI INVALID JUMPDEST PUSH1 0x20 MUL PUSH1 0x20 ADD ADD MLOAD PUSH1 0xA0 ADD MLOAD PUSH1 0x20 ADD MLOAD PUSH2 0x2930 JUMP JUMPDEST DUP3 PUSH1 0xA0 ADD MLOAD DUP2 DUP2 MLOAD DUP2 LT PUSH2 0x26D7 JUMPI INVALID JUMPDEST PUSH1 0x20 MUL PUSH1 0x20 ADD ADD MLOAD PUSH1 0x20 ADD MLOAD PUSH1 0x20 ADD MLOAD PUSH8 0xFFFFFFFFFFFFFFFF AND PUSH1 0x9 PUSH1 0x0 DUP3 DUP3 SLOAD SUB SWAP3 POP POP DUP2 SWAP1 SSTORE POP PUSH2 0x27EE JUMP JUMPDEST PUSH1 0x0 DUP1 SLOAD SWAP1 PUSH2 0x100 EXP SWAP1 DIV PUSH20 0xFFFFFFFFFFFFFFFFFFFFFFFFFFFFFFFFFFFFFFFF AND PUSH20 0xFFFFFFFFFFFFFFFFFFFFFFFFFFFFFFFFFFFFFFFF AND PUSH4 0xABE900E4 DUP5 PUSH1 0xA0 ADD MLOAD DUP4 DUP2 MLOAD DUP2 LT PUSH2 0x2751 JUMPI INVALID JUMPDEST PUSH1 0x20 MUL PUSH1 0x20 ADD ADD MLOAD PUSH1 0xC0 ADD MLOAD DUP6 PUSH1 0xA0 ADD MLOAD DUP5 DUP2 MLOAD DUP2 LT PUSH2 0x276D JUMPI INVALID JUMPDEST PUSH1 0x20 MUL PUSH1 0x20 ADD ADD MLOAD PUSH1 0x20 ADD MLOAD PUSH1 0x20 ADD MLOAD DUP7 PUSH1 0xA0 ADD MLOAD DUP6 DUP2 MLOAD DUP2 LT PUSH2 0x278D JUMPI INVALID JUMPDEST PUSH1 0x20 MUL PUSH1 0x20 ADD ADD MLOAD PUSH1 0xA0 ADD MLOAD PUSH1 0x20 ADD MLOAD PUSH1 0x40 MLOAD DUP5 PUSH4 0xFFFFFFFF AND PUSH1 0xE0 SHL DUP2 MSTORE PUSH1 0x4 ADD PUSH2 0x27BB SWAP4 SWAP3 SWAP2 SWAP1 PUSH2 0x53D1 JUMP JUMPDEST PUSH1 0x0 PUSH1 0x40 MLOAD DUP1 DUP4 SUB DUP2 PUSH1 0x0 DUP8 DUP1 EXTCODESIZE ISZERO DUP1 ISZERO PUSH2 0x27D5 JUMPI PUSH1 0x0 DUP1 REVERT JUMPDEST POP GAS CALL ISZERO DUP1 ISZERO PUSH2 0x27E9 JUMPI RETURNDATASIZE PUSH1 0x0 DUP1 RETURNDATACOPY RETURNDATASIZE PUSH1 0x0 REVERT JUMPDEST POP POP POP POP JUMPDEST PUSH1 0x0 DUP4 PUSH1 0xA0 ADD MLOAD DUP3 DUP2 MLOAD DUP2 LT PUSH2 0x2800 JUMPI INVALID JUMPDEST PUSH1 0x20 MUL PUSH1 0x20 ADD ADD MLOAD PUSH1 0x80 ADD MLOAD GT DUP1 ISZERO PUSH2 0x2873 JUMPI POP PUSH20 0x67460C2F56774ED27EEB8685F29F6CEC0B090B00 PUSH20 0xFFFFFFFFFFFFFFFFFFFFFFFFFFFFFFFFFFFFFFFF AND DUP4 PUSH1 0xA0 ADD MLOAD DUP3 DUP2 MLOAD DUP2 LT PUSH2 0x284F JUMPI INVALID JUMPDEST PUSH1 0x20 MUL PUSH1 0x20 ADD ADD MLOAD PUSH1 0x60 ADD MLOAD PUSH20 0xFFFFFFFFFFFFFFFFFFFFFFFFFFFFFFFFFFFFFFFF AND EQ JUMPDEST ISZERO PUSH2 0x2919 JUMPI DUP3 PUSH1 0xA0 ADD MLOAD DUP2 DUP2 MLOAD DUP2 LT PUSH2 0x2888 JUMPI INVALID JUMPDEST PUSH1 0x20 MUL PUSH1 0x20 ADD ADD MLOAD PUSH1 0x80 ADD MLOAD PUSH1 0x12 PUSH1 0x0 CALLER PUSH20 0xFFFFFFFFFFFFFFFFFFFFFFFFFFFFFFFFFFFFFFFF AND PUSH20 0xFFFFFFFFFFFFFFFFFFFFFFFFFFFFFFFFFFFFFFFF AND DUP2 MSTORE PUSH1 0x20 ADD SWAP1 DUP2 MSTORE PUSH1 0x20 ADD PUSH1 0x0 KECCAK256 SLOAD ADD PUSH1 0x12 PUSH1 0x0 CALLER PUSH20 0xFFFFFFFFFFFFFFFFFFFFFFFFFFFFFFFFFFFFFFFF AND PUSH20 0xFFFFFFFFFFFFFFFFFFFFFFFFFFFFFFFFFFFFFFFF AND DUP2 MSTORE PUSH1 0x20 ADD SWAP1 DUP2 MSTORE PUSH1 0x20 ADD PUSH1 0x0 KECCAK256 DUP2 SWAP1 SSTORE POP JUMPDEST DUP1 DUP1 PUSH1 0x1 ADD SWAP2 POP POP PUSH2 0x2605 JUMP JUMPDEST POP PUSH1 0x1 SWAP1 POP SWAP2 SWAP1 POP JUMP JUMPDEST PUSH1 0x6 PUSH1 0x14 SWAP1 SLOAD SWAP1 PUSH2 0x100 EXP SWAP1 DIV PUSH1 0xFF AND ISZERO PUSH2 0x2980 JUMPI PUSH1 0x40 MLOAD PUSH32 0x8C379A000000000000000000000000000000000000000000000000000000000 DUP2 MSTORE PUSH1 0x4 ADD PUSH2 0x2977 SWAP1 PUSH2 0x54F4 JUMP JUMPDEST PUSH1 0x40 MLOAD DUP1 SWAP2 SUB SWAP1 REVERT JUMPDEST SELFBALANCE DUP3 GT ISZERO PUSH2 0x29C3 JUMPI PUSH1 0x40 MLOAD PUSH32 0x8C379A000000000000000000000000000000000000000000000000000000000 DUP2 MSTORE PUSH1 0x4 ADD PUSH2 0x29BA SWAP1 PUSH2 0x5574 JUMP JUMPDEST PUSH1 0x40 MLOAD DUP1 SWAP2 SUB SWAP1 REVERT JUMPDEST DUP1 PUSH20 0xFFFFFFFFFFFFFFFFFFFFFFFFFFFFFFFFFFFFFFFF AND PUSH2 0x8FC DUP4 SWAP1 DUP2 ISZERO MUL SWAP1 PUSH1 0x40 MLOAD PUSH1 0x0 PUSH1 0x40 MLOAD DUP1 DUP4 SUB DUP2 DUP6 DUP9 DUP9 CALL SWAP4 POP POP POP POP ISZERO DUP1 ISZERO PUSH2 0x2A09 JUMPI RETURNDATASIZE PUSH1 0x0 DUP1 RETURNDATACOPY RETURNDATASIZE PUSH1 0x0 REVERT JUMPDEST POP POP POP JUMP JUMPDEST PUSH1 0x0 PUSH1 0x1 PUSH1 0x4 PUSH1 0x0 SWAP1 SLOAD SWAP1 PUSH2 0x100 EXP SWAP1 DIV PUSH20 0xFFFFFFFFFFFFFFFFFFFFFFFFFFFFFFFFFFFFFFFF AND PUSH20 0xFFFFFFFFFFFFFFFFFFFFFFFFFFFFFFFFFFFFFFFF AND PUSH4 0xEC48AE3C PUSH1 0x40 MLOAD DUP2 PUSH4 0xFFFFFFFF AND PUSH1 0xE0 SHL DUP2 MSTORE PUSH1 0x4 ADD PUSH1 0x20 PUSH1 0x40 MLOAD DUP1 DUP4 SUB DUP2 DUP7 DUP1 EXTCODESIZE ISZERO DUP1 ISZERO PUSH2 0x2A7A JUMPI PUSH1 0x0 DUP1 REVERT JUMPDEST POP GAS STATICCALL ISZERO DUP1 ISZERO PUSH2 0x2A8E JUMPI RETURNDATASIZE PUSH1 0x0 DUP1 RETURNDATACOPY RETURNDATASIZE PUSH1 0x0 REVERT JUMPDEST POP POP POP POP PUSH1 0x40 MLOAD RETURNDATASIZE PUSH1 0x1F NOT PUSH1 0x1F DUP3 ADD AND DUP3 ADD DUP1 PUSH1 0x40 MSTORE POP DUP2 ADD SWAP1 PUSH2 0x2AB2 SWAP2 SWAP1 PUSH2 0x438E JUMP JUMPDEST LT PUSH2 0x2AC0 JUMPI PUSH1 0x0 SWAP1 POP PUSH2 0x2B8B JUMP JUMPDEST PUSH20 0xA6EF9EA235635E328124FF3429DB9F9E91B64E2D PUSH20 0xFFFFFFFFFFFFFFFFFFFFFFFFFFFFFFFFFFFFFFFF AND DUP3 PUSH20 0xFFFFFFFFFFFFFFFFFFFFFFFFFFFFFFFFFFFFFFFF AND EQ PUSH2 0x2B42 JUMPI PUSH1 0x40 MLOAD PUSH32 0x8C379A000000000000000000000000000000000000000000000000000000000 DUP2 MSTORE PUSH1 0x4 ADD PUSH2 0x2B39 SWAP1 PUSH2 0x54D4 JUMP JUMPDEST PUSH1 0x40 MLOAD DUP1 SWAP2 SUB SWAP1 REVERT JUMPDEST DUP3 PUSH1 0xA SLOAD GT PUSH2 0x2B86 JUMPI PUSH1 0x40 MLOAD PUSH32 0x8C379A000000000000000000000000000000000000000000000000000000000 DUP2 MSTORE PUSH1 0x4 ADD PUSH2 0x2B7D SWAP1 PUSH2 0x5594 JUMP JUMPDEST PUSH1 0x40 MLOAD DUP1 SWAP2 SUB SWAP1 REVERT JUMPDEST PUSH1 0x1 SWAP1 POP JUMPDEST SWAP3 SWAP2 POP POP JUMP JUMPDEST PUSH1 0x40 MLOAD DUP1 PUSH1 0xC0 ADD PUSH1 0x40 MSTORE DUP1 PUSH1 0x0 DUP2 MSTORE PUSH1 0x20 ADD PUSH1 0x60 DUP2 MSTORE PUSH1 0x20 ADD PUSH1 0x0 DUP2 MSTORE PUSH1 0x20 ADD PUSH1 0x0 DUP2 MSTORE PUSH1 0x20 ADD PUSH1 0x60 DUP2 MSTORE PUSH1 0x20 ADD PUSH1 0x0 ISZERO ISZERO DUP2 MSTORE POP SWAP1 JUMP JUMPDEST PUSH1 0x40 MLOAD DUP1 PUSH1 0x80 ADD PUSH1 0x40 MSTORE DUP1 PUSH1 0x0 DUP2 MSTORE PUSH1 0x20 ADD PUSH1 0x0 DUP2 MSTORE PUSH1 0x20 ADD PUSH1 0x0 DUP1 NOT AND DUP2 MSTORE PUSH1 0x20 ADD PUSH1 0x60 DUP2 MSTORE POP SWAP1 JUMP JUMPDEST PUSH1 0x40 MLOAD DUP1 PUSH2 0x200 ADD PUSH1 0x40 MSTORE DUP1 PUSH1 0x0 DUP2 MSTORE PUSH1 0x20 ADD PUSH1 0x60 DUP2 MSTORE PUSH1 0x20 ADD PUSH1 0x0 PUSH20 0xFFFFFFFFFFFFFFFFFFFFFFFFFFFFFFFFFFFFFFFF AND DUP2 MSTORE PUSH1 0x20 ADD PUSH1 0x0 PUSH20 0xFFFFFFFFFFFFFFFFFFFFFFFFFFFFFFFFFFFFFFFF AND DUP2 MSTORE PUSH1 0x20 ADD PUSH1 0x0 PUSH20 0xFFFFFFFFFFFFFFFFFFFFFFFFFFFFFFFFFFFFFFFF AND DUP2 MSTORE PUSH1 0x20 ADD PUSH1 0x0 PUSH1 0xFF AND DUP2 MSTORE PUSH1 0x20 ADD PUSH1 0x0 PUSH1 0xFF AND DUP2 MSTORE PUSH1 0x20 ADD PUSH2 0x2C81 PUSH2 0x30F5 JUMP JUMPDEST DUP2 MSTORE PUSH1 0x20 ADD PUSH1 0x0 PUSH20 0xFFFFFFFFFFFFFFFFFFFFFFFFFFFFFFFFFFFFFFFF AND DUP2 MSTORE PUSH1 0x20 ADD PUSH1 0x0 DUP2 MSTORE PUSH1 0x20 ADD PUSH1 0x0 DUP2 MSTORE PUSH1 0x20 ADD PUSH1 0x0 DUP2 MSTORE PUSH1 0x20 ADD PUSH1 0x0 DUP2 MSTORE PUSH1 0x20 ADD PUSH1 0x0 PUSH20 0xFFFFFFFFFFFFFFFFFFFFFFFFFFFFFFFFFFFFFFFF AND DUP2 MSTORE PUSH1 0x20 ADD PUSH1 0x60 DUP2 MSTORE PUSH1 0x20 ADD PUSH1 0x0 DUP2 MSTORE POP SWAP1 JUMP JUMPDEST DUP3 DUP1 SLOAD DUP3 DUP3 SSTORE SWAP1 PUSH1 0x0 MSTORE PUSH1 0x20 PUSH1 0x0 KECCAK256 SWAP1 PUSH1 0x7 MUL DUP2 ADD SWAP3 DUP3 ISZERO PUSH2 0x3032 JUMPI PUSH1 0x0 MSTORE PUSH1 0x20 PUSH1 0x0 KECCAK256 SWAP2 PUSH1 0x7 MUL DUP3 ADD JUMPDEST DUP3 DUP2 GT ISZERO PUSH2 0x3031 JUMPI DUP3 DUP3 PUSH1 0x0 DUP3 ADD PUSH1 0x0 SWAP1 SLOAD SWAP1 PUSH2 0x100 EXP SWAP1 DIV PUSH4 0xFFFFFFFF AND DUP2 PUSH1 0x0 ADD PUSH1 0x0 PUSH2 0x100 EXP DUP2 SLOAD DUP2 PUSH4 0xFFFFFFFF MUL NOT AND SWAP1 DUP4 PUSH4 0xFFFFFFFF AND MUL OR SWAP1 SSTORE POP PUSH1 0x1 DUP3 ADD DUP2 PUSH1 0x1 ADD PUSH1 0x0 DUP3 ADD PUSH1 0x0 SWAP1 SLOAD SWAP1 PUSH2 0x100 EXP SWAP1 DIV PUSH20 0xFFFFFFFFFFFFFFFFFFFFFFFFFFFFFFFFFFFFFFFF AND DUP2 PUSH1 0x0 ADD PUSH1 0x0 PUSH2 0x100 EXP DUP2 SLOAD DUP2 PUSH20 0xFFFFFFFFFFFFFFFFFFFFFFFFFFFFFFFFFFFFFFFF MUL NOT AND SWAP1 DUP4 PUSH20 0xFFFFFFFFFFFFFFFFFFFFFFFFFFFFFFFFFFFFFFFF AND MUL OR SWAP1 SSTORE POP PUSH1 0x0 DUP3 ADD PUSH1 0x14 SWAP1 SLOAD SWAP1 PUSH2 0x100 EXP SWAP1 DIV PUSH8 0xFFFFFFFFFFFFFFFF AND DUP2 PUSH1 0x0 ADD PUSH1 0x14 PUSH2 0x100 EXP DUP2 SLOAD DUP2 PUSH8 0xFFFFFFFFFFFFFFFF MUL NOT AND SWAP1 DUP4 PUSH8 0xFFFFFFFFFFFFFFFF AND MUL OR SWAP1 SSTORE POP POP POP PUSH1 0x2 DUP3 ADD PUSH1 0x0 SWAP1 SLOAD SWAP1 PUSH2 0x100 EXP SWAP1 DIV PUSH4 0xFFFFFFFF AND DUP2 PUSH1 0x2 ADD PUSH1 0x0 PUSH2 0x100 EXP DUP2 SLOAD DUP2 PUSH4 0xFFFFFFFF MUL NOT AND SWAP1 DUP4 PUSH4 0xFFFFFFFF AND MUL OR SWAP1 SSTORE POP PUSH1 0x2 DUP3 ADD PUSH1 0x4 SWAP1 SLOAD SWAP1 PUSH2 0x100 EXP SWAP1 DIV PUSH20 0xFFFFFFFFFFFFFFFFFFFFFFFFFFFFFFFFFFFFFFFF AND DUP2 PUSH1 0x2 ADD PUSH1 0x4 PUSH2 0x100 EXP DUP2 SLOAD DUP2 PUSH20 0xFFFFFFFFFFFFFFFFFFFFFFFFFFFFFFFFFFFFFFFF MUL NOT AND SWAP1 DUP4 PUSH20 0xFFFFFFFFFFFFFFFFFFFFFFFFFFFFFFFFFFFFFFFF AND MUL OR SWAP1 SSTORE POP PUSH1 0x3 DUP3 ADD SLOAD DUP2 PUSH1 0x3 ADD SSTORE PUSH1 0x4 DUP3 ADD DUP2 PUSH1 0x4 ADD PUSH1 0x0 DUP3 ADD PUSH1 0x0 SWAP1 SLOAD SWAP1 PUSH2 0x100 EXP SWAP1 DIV PUSH1 0xFF AND DUP2 PUSH1 0x0 ADD PUSH1 0x0 PUSH2 0x100 EXP DUP2 SLOAD DUP2 PUSH1 0xFF MUL NOT AND SWAP1 DUP4 PUSH1 0xFF AND MUL OR SWAP1 SSTORE POP PUSH1 0x0 DUP3 ADD PUSH1 0x1 SWAP1 SLOAD SWAP1 PUSH2 0x100 EXP SWAP1 DIV PUSH20 0xFFFFFFFFFFFFFFFFFFFFFFFFFFFFFFFFFFFFFFFF AND DUP2 PUSH1 0x0 ADD PUSH1 0x1 PUSH2 0x100 EXP DUP2 SLOAD DUP2 PUSH20 0xFFFFFFFFFFFFFFFFFFFFFFFFFFFFFFFFFFFFFFFF MUL NOT AND SWAP1 DUP4 PUSH20 0xFFFFFFFFFFFFFFFFFFFFFFFFFFFFFFFFFFFFFFFF AND MUL OR SWAP1 SSTORE POP POP POP PUSH1 0x5 DUP3 ADD PUSH1 0x0 SWAP1 SLOAD SWAP1 PUSH2 0x100 EXP SWAP1 DIV PUSH20 0xFFFFFFFFFFFFFFFFFFFFFFFFFFFFFFFFFFFFFFFF AND DUP2 PUSH1 0x5 ADD PUSH1 0x0 PUSH2 0x100 EXP DUP2 SLOAD DUP2 PUSH20 0xFFFFFFFFFFFFFFFFFFFFFFFFFFFFFFFFFFFFFFFF MUL NOT AND SWAP1 DUP4 PUSH20 0xFFFFFFFFFFFFFFFFFFFFFFFFFFFFFFFFFFFFFFFF AND MUL OR SWAP1 SSTORE POP PUSH1 0x6 DUP3 ADD PUSH1 0x0 SWAP1 SLOAD SWAP1 PUSH2 0x100 EXP SWAP1 DIV PUSH20 0xFFFFFFFFFFFFFFFFFFFFFFFFFFFFFFFFFFFFFFFF AND DUP2 PUSH1 0x6 ADD PUSH1 0x0 PUSH2 0x100 EXP DUP2 SLOAD DUP2 PUSH20 0xFFFFFFFFFFFFFFFFFFFFFFFFFFFFFFFFFFFFFFFF MUL NOT AND SWAP1 DUP4 PUSH20 0xFFFFFFFFFFFFFFFFFFFFFFFFFFFFFFFFFFFFFFFF AND MUL OR SWAP1 SSTORE POP POP POP SWAP2 PUSH1 0x7 ADD SWAP2 SWAP1 PUSH1 0x7 ADD SWAP1 PUSH2 0x2D16 JUMP JUMPDEST JUMPDEST POP SWAP1 POP PUSH2 0x303F SWAP2 SWAP1 PUSH2 0x3128 JUMP JUMPDEST POP SWAP1 JUMP JUMPDEST POP DUP1 SLOAD PUSH1 0x0 DUP3 SSTORE PUSH1 0x7 MUL SWAP1 PUSH1 0x0 MSTORE PUSH1 0x20 PUSH1 0x0 KECCAK256 SWAP1 DUP2 ADD SWAP1 PUSH2 0x3064 SWAP2 SWAP1 PUSH2 0x3128 JUMP JUMPDEST POP JUMP JUMPDEST DUP3 DUP1 SLOAD PUSH1 0x1 DUP2 PUSH1 0x1 AND ISZERO PUSH2 0x100 MUL SUB AND PUSH1 0x2 SWAP1 DIV SWAP1 PUSH1 0x0 MSTORE PUSH1 0x20 PUSH1 0x0 KECCAK256 SWAP1 PUSH1 0x1F ADD PUSH1 0x20 SWAP1 DIV DUP2 ADD SWAP3 DUP3 PUSH2 0x309D JUMPI PUSH1 0x0 DUP6 SSTORE PUSH2 0x30E4 JUMP JUMPDEST DUP3 PUSH1 0x1F LT PUSH2 0x30B6 JUMPI DUP1 MLOAD PUSH1 0xFF NOT AND DUP4 DUP1 ADD OR DUP6 SSTORE PUSH2 0x30E4 JUMP JUMPDEST DUP3 DUP1 ADD PUSH1 0x1 ADD DUP6 SSTORE DUP3 ISZERO PUSH2 0x30E4 JUMPI SWAP2 DUP3 ADD JUMPDEST DUP3 DUP2 GT ISZERO PUSH2 0x30E3 JUMPI DUP3 MLOAD DUP3 SSTORE SWAP2 PUSH1 0x20 ADD SWAP2 SWAP1 PUSH1 0x1 ADD SWAP1 PUSH2 0x30C8 JUMP JUMPDEST JUMPDEST POP SWAP1 POP PUSH2 0x30F1 SWAP2 SWAP1 PUSH2 0x3275 JUMP JUMPDEST POP SWAP1 JUMP JUMPDEST PUSH1 0x40 MLOAD DUP1 PUSH1 0x40 ADD PUSH1 0x40 MSTORE DUP1 PUSH1 0x0 PUSH1 0xFF AND DUP2 MSTORE PUSH1 0x20 ADD PUSH1 0x0 PUSH20 0xFFFFFFFFFFFFFFFFFFFFFFFFFFFFFFFFFFFFFFFF AND DUP2 MSTORE POP SWAP1 JUMP JUMPDEST JUMPDEST DUP1 DUP3 GT ISZERO PUSH2 0x3271 JUMPI PUSH1 0x0 DUP1 DUP3 ADD PUSH1 0x0 PUSH2 0x100 EXP DUP2 SLOAD SWAP1 PUSH4 0xFFFFFFFF MUL NOT AND SWAP1 SSTORE PUSH1 0x1 DUP3 ADD PUSH1 0x0 DUP1 DUP3 ADD PUSH1 0x0 PUSH2 0x100 EXP DUP2 SLOAD SWAP1 PUSH20 0xFFFFFFFFFFFFFFFFFFFFFFFFFFFFFFFFFFFFFFFF MUL NOT AND SWAP1 SSTORE PUSH1 0x0 DUP3 ADD PUSH1 0x14 PUSH2 0x100 EXP DUP2 SLOAD SWAP1 PUSH8 0xFFFFFFFFFFFFFFFF MUL NOT AND SWAP1 SSTORE POP POP PUSH1 0x2 DUP3 ADD PUSH1 0x0 PUSH2 0x100 EXP DUP2 SLOAD SWAP1 PUSH4 0xFFFFFFFF MUL NOT AND SWAP1 SSTORE PUSH1 0x2 DUP3 ADD PUSH1 0x4 PUSH2 0x100 EXP DUP2 SLOAD SWAP1 PUSH20 0xFFFFFFFFFFFFFFFFFFFFFFFFFFFFFFFFFFFFFFFF MUL NOT AND SWAP1 SSTORE PUSH1 0x3 DUP3 ADD PUSH1 0x0 SWAP1 SSTORE PUSH1 0x4 DUP3 ADD PUSH1 0x0 DUP1 DUP3 ADD PUSH1 0x0 PUSH2 0x100 EXP DUP2 SLOAD SWAP1 PUSH1 0xFF MUL NOT AND SWAP1 SSTORE PUSH1 0x0 DUP3 ADD PUSH1 0x1 PUSH2 0x100 EXP DUP2 SLOAD SWAP1 PUSH20 0xFFFFFFFFFFFFFFFFFFFFFFFFFFFFFFFFFFFFFFFF MUL NOT AND SWAP1 SSTORE POP POP PUSH1 0x5 DUP3 ADD PUSH1 0x0 PUSH2 0x100 EXP DUP2 SLOAD SWAP1 PUSH20 0xFFFFFFFFFFFFFFFFFFFFFFFFFFFFFFFFFFFFFFFF MUL NOT AND SWAP1 SSTORE PUSH1 0x6 DUP3 ADD PUSH1 0x0 PUSH2 0x100 EXP DUP2 SLOAD SWAP1 PUSH20 0xFFFFFFFFFFFFFFFFFFFFFFFFFFFFFFFFFFFFFFFF MUL NOT AND SWAP1 SSTORE POP PUSH1 0x7 ADD PUSH2 0x3129 JUMP JUMPDEST POP SWAP1 JUMP JUMPDEST JUMPDEST DUP1 DUP3 GT ISZERO PUSH2 0x328E JUMPI PUSH1 0x0 DUP2 PUSH1 0x0 SWAP1 SSTORE POP PUSH1 0x1 ADD PUSH2 0x3276 JUMP JUMPDEST POP SWAP1 JUMP JUMPDEST PUSH1 0x0 PUSH2 0x32A5 PUSH2 0x32A0 DUP5 PUSH2 0x57B5 JUMP JUMPDEST PUSH2 0x5784 JUMP JUMPDEST SWAP1 POP DUP1 DUP4 DUP3 MSTORE PUSH1 0x20 DUP3 ADD SWAP1 POP DUP3 DUP6 PUSH1 0x20 DUP7 MUL DUP3 ADD GT ISZERO PUSH2 0x32C4 JUMPI PUSH1 0x0 DUP1 REVERT JUMPDEST PUSH1 0x0 JUMPDEST DUP6 DUP2 LT ISZERO PUSH2 0x32F4 JUMPI DUP2 PUSH2 0x32DA DUP9 DUP3 PUSH2 0x3658 JUMP JUMPDEST DUP5 MSTORE PUSH1 0x20 DUP5 ADD SWAP4 POP PUSH1 0x20 DUP4 ADD SWAP3 POP POP PUSH1 0x1 DUP2 ADD SWAP1 POP PUSH2 0x32C7 JUMP JUMPDEST POP POP POP SWAP4 SWAP3 POP POP POP JUMP JUMPDEST PUSH1 0x0 PUSH2 0x3311 PUSH2 0x330C DUP5 PUSH2 0x57E1 JUMP JUMPDEST PUSH2 0x5784 JUMP JUMPDEST SWAP1 POP DUP1 DUP4 DUP3 MSTORE PUSH1 0x20 DUP3 ADD SWAP1 POP DUP3 DUP6 PUSH1 0x20 DUP7 MUL DUP3 ADD GT ISZERO PUSH2 0x3330 JUMPI PUSH1 0x0 DUP1 REVERT JUMPDEST PUSH1 0x0 JUMPDEST DUP6 DUP2 LT ISZERO PUSH2 0x3360 JUMPI DUP2 PUSH2 0x3346 DUP9 DUP3 PUSH2 0x37D2 JUMP JUMPDEST DUP5 MSTORE PUSH1 0x20 DUP5 ADD SWAP4 POP PUSH1 0x20 DUP4 ADD SWAP3 POP POP PUSH1 0x1 DUP2 ADD SWAP1 POP PUSH2 0x3333 JUMP JUMPDEST POP POP POP SWAP4 SWAP3 POP POP POP JUMP JUMPDEST PUSH1 0x0 PUSH2 0x337D PUSH2 0x3378 DUP5 PUSH2 0x580D JUMP JUMPDEST PUSH2 0x5784 JUMP JUMPDEST SWAP1 POP DUP1 DUP4 DUP3 MSTORE PUSH1 0x20 DUP3 ADD SWAP1 POP DUP3 PUSH1 0x0 JUMPDEST DUP6 DUP2 LT ISZERO PUSH2 0x33BD JUMPI DUP2 CALLDATALOAD DUP6 ADD PUSH2 0x33A3 DUP9 DUP3 PUSH2 0x387A JUMP JUMPDEST DUP5 MSTORE PUSH1 0x20 DUP5 ADD SWAP4 POP PUSH1 0x20 DUP4 ADD SWAP3 POP POP PUSH1 0x1 DUP2 ADD SWAP1 POP PUSH2 0x338D JUMP JUMPDEST POP POP POP SWAP4 SWAP3 POP POP POP JUMP JUMPDEST PUSH1 0x0 PUSH2 0x33DA PUSH2 0x33D5 DUP5 PUSH2 0x5839 JUMP JUMPDEST PUSH2 0x5784 JUMP JUMPDEST SWAP1 POP DUP1 DUP4 DUP3 MSTORE PUSH1 0x20 DUP3 ADD SWAP1 POP DUP3 DUP6 PUSH1 0x40 DUP7 MUL DUP3 ADD GT ISZERO PUSH2 0x33F9 JUMPI PUSH1 0x0 DUP1 REVERT JUMPDEST PUSH1 0x0 JUMPDEST DUP6 DUP2 LT ISZERO PUSH2 0x3429 JUMPI DUP2 PUSH2 0x340F DUP9 DUP3 PUSH2 0x3C56 JUMP JUMPDEST DUP5 MSTORE PUSH1 0x20 DUP5 ADD SWAP4 POP PUSH1 0x40 DUP4 ADD SWAP3 POP POP PUSH1 0x1 DUP2 ADD SWAP1 POP PUSH2 0x33FC JUMP JUMPDEST POP POP POP SWAP4 SWAP3 POP POP POP JUMP JUMPDEST PUSH1 0x0 PUSH2 0x3446 PUSH2 0x3441 DUP5 PUSH2 0x5839 JUMP JUMPDEST PUSH2 0x5784 JUMP JUMPDEST SWAP1 POP DUP1 DUP4 DUP3 MSTORE PUSH1 0x20 DUP3 ADD SWAP1 POP DUP3 DUP6 PUSH1 0x40 DUP7 MUL DUP3 ADD GT ISZERO PUSH2 0x3465 JUMPI PUSH1 0x0 DUP1 REVERT JUMPDEST PUSH1 0x0 JUMPDEST DUP6 DUP2 LT ISZERO PUSH2 0x3495 JUMPI DUP2 PUSH2 0x347B DUP9 DUP3 PUSH2 0x3CA2 JUMP JUMPDEST DUP5 MSTORE PUSH1 0x20 DUP5 ADD SWAP4 POP PUSH1 0x40 DUP4 ADD SWAP3 POP POP PUSH1 0x1 DUP2 ADD SWAP1 POP PUSH2 0x3468 JUMP JUMPDEST POP POP POP SWAP4 SWAP3 POP POP POP JUMP JUMPDEST PUSH1 0x0 PUSH2 0x34B2 PUSH2 0x34AD DUP5 PUSH2 0x5865 JUMP JUMPDEST PUSH2 0x5784 JUMP JUMPDEST SWAP1 POP DUP1 DUP4 DUP3 MSTORE PUSH1 0x20 DUP3 ADD SWAP1 POP DUP3 PUSH1 0x0 JUMPDEST DUP6 DUP2 LT ISZERO PUSH2 0x34F2 JUMPI DUP2 CALLDATALOAD DUP6 ADD PUSH2 0x34D8 DUP9 DUP3 PUSH2 0x3E1E JUMP JUMPDEST DUP5 MSTORE PUSH1 0x20 DUP5 ADD SWAP4 POP PUSH1 0x20 DUP4 ADD SWAP3 POP POP PUSH1 0x1 DUP2 ADD SWAP1 POP PUSH2 0x34C2 JUMP JUMPDEST POP POP POP SWAP4 SWAP3 POP POP POP JUMP JUMPDEST PUSH1 0x0 PUSH2 0x350F PUSH2 0x350A DUP5 PUSH2 0x5891 JUMP JUMPDEST PUSH2 0x5784 JUMP JUMPDEST SWAP1 POP DUP1 DUP4 DUP3 MSTORE PUSH1 0x20 DUP3 ADD SWAP1 POP DUP3 DUP6 PUSH2 0x140 DUP7 MUL DUP3 ADD GT ISZERO PUSH2 0x352F JUMPI PUSH1 0x0 DUP1 REVERT JUMPDEST PUSH1 0x0 JUMPDEST DUP6 DUP2 LT ISZERO PUSH2 0x3560 JUMPI DUP2 PUSH2 0x3545 DUP9 DUP3 PUSH2 0x3F02 JUMP JUMPDEST DUP5 MSTORE PUSH1 0x20 DUP5 ADD SWAP4 POP PUSH2 0x140 DUP4 ADD SWAP3 POP POP PUSH1 0x1 DUP2 ADD SWAP1 POP PUSH2 0x3532 JUMP JUMPDEST POP POP POP SWAP4 SWAP3 POP POP POP JUMP JUMPDEST PUSH1 0x0 PUSH2 0x357D PUSH2 0x3578 DUP5 PUSH2 0x58BD JUMP JUMPDEST PUSH2 0x5784 JUMP JUMPDEST SWAP1 POP DUP1 DUP4 DUP3 MSTORE PUSH1 0x20 DUP3 ADD SWAP1 POP DUP3 PUSH1 0x0 JUMPDEST DUP6 DUP2 LT ISZERO PUSH2 0x35BD JUMPI DUP2 CALLDATALOAD DUP6 ADD PUSH2 0x35A3 DUP9 DUP3 PUSH2 0x3FCA JUMP JUMPDEST DUP5 MSTORE PUSH1 0x20 DUP5 ADD SWAP4 POP PUSH1 0x20 DUP4 ADD SWAP3 POP POP PUSH1 0x1 DUP2 ADD SWAP1 POP PUSH2 0x358D JUMP JUMPDEST POP POP POP SWAP4 SWAP3 POP POP POP JUMP JUMPDEST PUSH1 0x0 PUSH2 0x35DA PUSH2 0x35D5 DUP5 PUSH2 0x58E9 JUMP JUMPDEST PUSH2 0x5784 JUMP JUMPDEST SWAP1 POP DUP3 DUP2 MSTORE PUSH1 0x20 DUP2 ADD DUP5 DUP5 DUP5 ADD GT ISZERO PUSH2 0x35F2 JUMPI PUSH1 0x0 DUP1 REVERT JUMPDEST PUSH2 0x35FD DUP5 DUP3 DUP6 PUSH2 0x5BBE JUMP JUMPDEST POP SWAP4 SWAP3 POP POP POP JUMP JUMPDEST PUSH1 0x0 PUSH2 0x3618 PUSH2 0x3613 DUP5 PUSH2 0x58E9 JUMP JUMPDEST PUSH2 0x5784 JUMP JUMPDEST SWAP1 POP DUP3 DUP2 MSTORE PUSH1 0x20 DUP2 ADD DUP5 DUP5 DUP5 ADD GT ISZERO PUSH2 0x3630 JUMPI PUSH1 0x0 DUP1 REVERT JUMPDEST PUSH2 0x363B DUP5 DUP3 DUP6 PUSH2 0x5BCD JUMP JUMPDEST POP SWAP4 SWAP3 POP POP POP JUMP JUMPDEST PUSH1 0x0 DUP2 CALLDATALOAD SWAP1 POP PUSH2 0x3652 DUP2 PUSH2 0x5CFD JUMP JUMPDEST SWAP3 SWAP2 POP POP JUMP JUMPDEST PUSH1 0x0 DUP2 MLOAD SWAP1 POP PUSH2 0x3667 DUP2 PUSH2 0x5CFD JUMP JUMPDEST SWAP3 SWAP2 POP POP JUMP JUMPDEST PUSH1 0x0 DUP3 PUSH1 0x1F DUP4 ADD SLT PUSH2 0x367E JUMPI PUSH1 0x0 DUP1 REVERT JUMPDEST DUP2 MLOAD PUSH2 0x368E DUP5 DUP3 PUSH1 0x20 DUP7 ADD PUSH2 0x3292 JUMP JUMPDEST SWAP2 POP POP SWAP3 SWAP2 POP POP JUMP JUMPDEST PUSH1 0x0 DUP3 PUSH1 0x1F DUP4 ADD SLT PUSH2 0x36A8 JUMPI PUSH1 0x0 DUP1 REVERT JUMPDEST DUP2 CALLDATALOAD PUSH2 0x36B8 DUP5 DUP3 PUSH1 0x20 DUP7 ADD PUSH2 0x32FE JUMP JUMPDEST SWAP2 POP POP SWAP3 SWAP2 POP POP JUMP JUMPDEST PUSH1 0x0 DUP3 PUSH1 0x1F DUP4 ADD SLT PUSH2 0x36D2 JUMPI PUSH1 0x0 DUP1 REVERT JUMPDEST DUP2 CALLDATALOAD PUSH2 0x36E2 DUP5 DUP3 PUSH1 0x20 DUP7 ADD PUSH2 0x336A JUMP JUMPDEST SWAP2 POP POP SWAP3 SWAP2 POP POP JUMP JUMPDEST PUSH1 0x0 DUP3 PUSH1 0x1F DUP4 ADD SLT PUSH2 0x36FC JUMPI PUSH1 0x0 DUP1 REVERT JUMPDEST DUP2 CALLDATALOAD PUSH2 0x370C DUP5 DUP3 PUSH1 0x20 DUP7 ADD PUSH2 0x33C7 JUMP JUMPDEST SWAP2 POP POP SWAP3 SWAP2 POP POP JUMP JUMPDEST PUSH1 0x0 DUP3 PUSH1 0x1F DUP4 ADD SLT PUSH2 0x3726 JUMPI PUSH1 0x0 DUP1 REVERT JUMPDEST DUP2 MLOAD PUSH2 0x3736 DUP5 DUP3 PUSH1 0x20 DUP7 ADD PUSH2 0x3433 JUMP JUMPDEST SWAP2 POP POP SWAP3 SWAP2 POP POP JUMP JUMPDEST PUSH1 0x0 DUP3 PUSH1 0x1F DUP4 ADD SLT PUSH2 0x3750 JUMPI PUSH1 0x0 DUP1 REVERT JUMPDEST DUP2 CALLDATALOAD PUSH2 0x3760 DUP5 DUP3 PUSH1 0x20 DUP7 ADD PUSH2 0x349F JUMP JUMPDEST SWAP2 POP POP SWAP3 SWAP2 POP POP JUMP JUMPDEST PUSH1 0x0 DUP3 PUSH1 0x1F DUP4 ADD SLT PUSH2 0x377A JUMPI PUSH1 0x0 DUP1 REVERT JUMPDEST DUP2 CALLDATALOAD PUSH2 0x378A DUP5 DUP3 PUSH1 0x20 DUP7 ADD PUSH2 0x34FC JUMP JUMPDEST SWAP2 POP POP SWAP3 SWAP2 POP POP JUMP JUMPDEST PUSH1 0x0 DUP3 PUSH1 0x1F DUP4 ADD SLT PUSH2 0x37A4 JUMPI PUSH1 0x0 DUP1 REVERT JUMPDEST DUP2 CALLDATALOAD PUSH2 0x37B4 DUP5 DUP3 PUSH1 0x20 DUP7 ADD PUSH2 0x356A JUMP JUMPDEST SWAP2 POP POP SWAP3 SWAP2 POP POP JUMP JUMPDEST PUSH1 0x0 DUP2 MLOAD SWAP1 POP PUSH2 0x37CC DUP2 PUSH2 0x5D14 JUMP JUMPDEST SWAP3 SWAP2 POP POP JUMP JUMPDEST PUSH1 0x0 DUP2 CALLDATALOAD SWAP1 POP PUSH2 0x37E1 DUP2 PUSH2 0x5D2B JUMP JUMPDEST SWAP3 SWAP2 POP POP JUMP JUMPDEST PUSH1 0x0 DUP2 MLOAD SWAP1 POP PUSH2 0x37F6 DUP2 PUSH2 0x5D2B JUMP JUMPDEST SWAP3 SWAP2 POP POP JUMP JUMPDEST PUSH1 0x0 DUP3 PUSH1 0x1F DUP4 ADD SLT PUSH2 0x380D JUMPI PUSH1 0x0 DUP1 REVERT JUMPDEST DUP2 CALLDATALOAD PUSH2 0x381D DUP5 DUP3 PUSH1 0x20 DUP7 ADD PUSH2 0x35C7 JUMP JUMPDEST SWAP2 POP POP SWAP3 SWAP2 POP POP JUMP JUMPDEST PUSH1 0x0 DUP3 PUSH1 0x1F DUP4 ADD SLT PUSH2 0x3837 JUMPI PUSH1 0x0 DUP1 REVERT JUMPDEST DUP2 MLOAD PUSH2 0x3847 DUP5 DUP3 PUSH1 0x20 DUP7 ADD PUSH2 0x3605 JUMP JUMPDEST SWAP2 POP POP SWAP3 SWAP2 POP POP JUMP JUMPDEST PUSH1 0x0 DUP2 CALLDATALOAD SWAP1 POP PUSH2 0x385F DUP2 PUSH2 0x5D42 JUMP JUMPDEST SWAP3 SWAP2 POP POP JUMP JUMPDEST PUSH1 0x0 DUP2 MLOAD SWAP1 POP PUSH2 0x3874 DUP2 PUSH2 0x5D42 JUMP JUMPDEST SWAP3 SWAP2 POP POP JUMP JUMPDEST PUSH1 0x0 PUSH1 0xA0 DUP3 DUP5 SUB SLT ISZERO PUSH2 0x388C JUMPI PUSH1 0x0 DUP1 REVERT JUMPDEST PUSH2 0x3896 PUSH1 0xA0 PUSH2 0x5784 JUMP JUMPDEST SWAP1 POP PUSH1 0x0 PUSH2 0x38A6 DUP5 DUP3 DUP6 ADD PUSH2 0x416E JUMP JUMPDEST PUSH1 0x0 DUP4 ADD MSTORE POP PUSH1 0x20 PUSH2 0x38BA DUP5 DUP3 DUP6 ADD PUSH2 0x416E JUMP JUMPDEST PUSH1 0x20 DUP4 ADD MSTORE POP PUSH1 0x40 DUP3 ADD CALLDATALOAD PUSH8 0xFFFFFFFFFFFFFFFF DUP2 GT ISZERO PUSH2 0x38DA JUMPI PUSH1 0x0 DUP1 REVERT JUMPDEST PUSH2 0x38E6 DUP5 DUP3 DUP6 ADD PUSH2 0x37FC JUMP JUMPDEST PUSH1 0x40 DUP4 ADD MSTORE POP PUSH1 0x60 DUP3 ADD CALLDATALOAD PUSH8 0xFFFFFFFFFFFFFFFF DUP2 GT ISZERO PUSH2 0x3906 JUMPI PUSH1 0x0 DUP1 REVERT JUMPDEST PUSH2 0x3912 DUP5 DUP3 DUP6 ADD PUSH2 0x3793 JUMP JUMPDEST PUSH1 0x60 DUP4 ADD MSTORE POP PUSH1 0x80 PUSH2 0x3926 DUP5 DUP3 DUP6 ADD PUSH2 0x411A JUMP JUMPDEST PUSH1 0x80 DUP4 ADD MSTORE POP SWAP3 SWAP2 POP POP JUMP JUMPDEST PUSH1 0x0 PUSH2 0x1E0 DUP3 DUP5 SUB SLT ISZERO PUSH2 0x3945 JUMPI PUSH1 0x0 DUP1 REVERT JUMPDEST PUSH2 0x3950 PUSH2 0x1C0 PUSH2 0x5784 JUMP JUMPDEST SWAP1 POP PUSH1 0x0 PUSH2 0x3960 DUP5 DUP3 DUP6 ADD PUSH2 0x40C6 JUMP JUMPDEST PUSH1 0x0 DUP4 ADD MSTORE POP PUSH1 0x20 PUSH2 0x3974 DUP5 DUP3 DUP6 ADD PUSH2 0x40C6 JUMP JUMPDEST PUSH1 0x20 DUP4 ADD MSTORE POP PUSH1 0x40 PUSH2 0x3988 DUP5 DUP3 DUP6 ADD PUSH2 0x3643 JUMP JUMPDEST PUSH1 0x40 DUP4 ADD MSTORE POP PUSH1 0x60 PUSH2 0x399C DUP5 DUP3 DUP6 ADD PUSH2 0x411A JUMP JUMPDEST PUSH1 0x60 DUP4 ADD MSTORE POP PUSH1 0x80 PUSH2 0x39B0 DUP5 DUP3 DUP6 ADD PUSH2 0x411A JUMP JUMPDEST PUSH1 0x80 DUP4 ADD MSTORE POP PUSH1 0xA0 PUSH2 0x39C4 DUP5 DUP3 DUP6 ADD PUSH2 0x3643 JUMP JUMPDEST PUSH1 0xA0 DUP4 ADD MSTORE POP PUSH1 0xC0 PUSH2 0x39D8 DUP5 DUP3 DUP6 ADD PUSH2 0x3643 JUMP JUMPDEST PUSH1 0xC0 DUP4 ADD MSTORE POP PUSH1 0xE0 PUSH2 0x39EC DUP5 DUP3 DUP6 ADD PUSH2 0x411A JUMP JUMPDEST PUSH1 0xE0 DUP4 ADD MSTORE POP PUSH2 0x100 DUP3 ADD CALLDATALOAD PUSH8 0xFFFFFFFFFFFFFFFF DUP2 GT ISZERO PUSH2 0x3A0D JUMPI PUSH1 0x0 DUP1 REVERT JUMPDEST PUSH2 0x3A19 DUP5 DUP3 DUP6 ADD PUSH2 0x36EB JUMP JUMPDEST PUSH2 0x100 DUP4 ADD MSTORE POP PUSH2 0x120 DUP3 ADD CALLDATALOAD PUSH8 0xFFFFFFFFFFFFFFFF DUP2 GT ISZERO PUSH2 0x3A3B JUMPI PUSH1 0x0 DUP1 REVERT JUMPDEST PUSH2 0x3A47 DUP5 DUP3 DUP6 ADD PUSH2 0x36EB JUMP JUMPDEST PUSH2 0x120 DUP4 ADD MSTORE POP PUSH2 0x140 PUSH2 0x3A5D DUP5 DUP3 DUP6 ADD PUSH2 0x37D2 JUMP JUMPDEST PUSH2 0x140 DUP4 ADD MSTORE POP PUSH2 0x160 DUP3 ADD CALLDATALOAD PUSH8 0xFFFFFFFFFFFFFFFF DUP2 GT ISZERO PUSH2 0x3A7F JUMPI PUSH1 0x0 DUP1 REVERT JUMPDEST PUSH2 0x3A8B DUP5 DUP3 DUP6 ADD PUSH2 0x36EB JUMP JUMPDEST PUSH2 0x160 DUP4 ADD MSTORE POP PUSH2 0x180 PUSH2 0x3AA1 DUP5 DUP3 DUP6 ADD PUSH2 0x402E JUMP JUMPDEST PUSH2 0x180 DUP4 ADD MSTORE POP PUSH2 0x1C0 PUSH2 0x3AB7 DUP5 DUP3 DUP6 ADD PUSH2 0x3850 JUMP JUMPDEST PUSH2 0x1A0 DUP4 ADD MSTORE POP SWAP3 SWAP2 POP POP JUMP JUMPDEST PUSH1 0x0 PUSH2 0x1E0 DUP3 DUP5 SUB SLT ISZERO PUSH2 0x3AD7 JUMPI PUSH1 0x0 DUP1 REVERT JUMPDEST PUSH2 0x3AE2 PUSH2 0x1C0 PUSH2 0x5784 JUMP JUMPDEST SWAP1 POP PUSH1 0x0 PUSH2 0x3AF2 DUP5 DUP3 DUP6 ADD PUSH2 0x40DB JUMP JUMPDEST PUSH1 0x0 DUP4 ADD MSTORE POP PUSH1 0x20 PUSH2 0x3B06 DUP5 DUP3 DUP6 ADD PUSH2 0x40DB JUMP JUMPDEST PUSH1 0x20 DUP4 ADD MSTORE POP PUSH1 0x40 PUSH2 0x3B1A DUP5 DUP3 DUP6 ADD PUSH2 0x3658 JUMP JUMPDEST PUSH1 0x40 DUP4 ADD MSTORE POP PUSH1 0x60 PUSH2 0x3B2E DUP5 DUP3 DUP6 ADD PUSH2 0x412F JUMP JUMPDEST PUSH1 0x60 DUP4 ADD MSTORE POP PUSH1 0x80 PUSH2 0x3B42 DUP5 DUP3 DUP6 ADD PUSH2 0x412F JUMP JUMPDEST PUSH1 0x80 DUP4 ADD MSTORE POP PUSH1 0xA0 PUSH2 0x3B56 DUP5 DUP3 DUP6 ADD PUSH2 0x3658 JUMP JUMPDEST PUSH1 0xA0 DUP4 ADD MSTORE POP PUSH1 0xC0 PUSH2 0x3B6A DUP5 DUP3 DUP6 ADD PUSH2 0x3658 JUMP JUMPDEST PUSH1 0xC0 DUP4 ADD MSTORE POP PUSH1 0xE0 PUSH2 0x3B7E DUP5 DUP3 DUP6 ADD PUSH2 0x412F JUMP JUMPDEST PUSH1 0xE0 DUP4 ADD MSTORE POP PUSH2 0x100 DUP3 ADD MLOAD PUSH8 0xFFFFFFFFFFFFFFFF DUP2 GT ISZERO PUSH2 0x3B9F JUMPI PUSH1 0x0 DUP1 REVERT JUMPDEST PUSH2 0x3BAB DUP5 DUP3 DUP6 ADD PUSH2 0x3715 JUMP JUMPDEST PUSH2 0x100 DUP4 ADD MSTORE POP PUSH2 0x120 DUP3 ADD MLOAD PUSH8 0xFFFFFFFFFFFFFFFF DUP2 GT ISZERO PUSH2 0x3BCD JUMPI PUSH1 0x0 DUP1 REVERT JUMPDEST PUSH2 0x3BD9 DUP5 DUP3 DUP6 ADD PUSH2 0x3715 JUMP JUMPDEST PUSH2 0x120 DUP4 ADD MSTORE POP PUSH2 0x140 PUSH2 0x3BEF DUP5 DUP3 DUP6 ADD PUSH2 0x37E7 JUMP JUMPDEST PUSH2 0x140 DUP4 ADD MSTORE POP PUSH2 0x160 DUP3 ADD MLOAD PUSH8 0xFFFFFFFFFFFFFFFF DUP2 GT ISZERO PUSH2 0x3C11 JUMPI PUSH1 0x0 DUP1 REVERT JUMPDEST PUSH2 0x3C1D DUP5 DUP3 DUP6 ADD PUSH2 0x3715 JUMP JUMPDEST PUSH2 0x160 DUP4 ADD MSTORE POP PUSH2 0x180 PUSH2 0x3C33 DUP5 DUP3 DUP6 ADD PUSH2 0x407A JUMP JUMPDEST PUSH2 0x180 DUP4 ADD MSTORE POP PUSH2 0x1C0 PUSH2 0x3C49 DUP5 DUP3 DUP6 ADD PUSH2 0x3865 JUMP JUMPDEST PUSH2 0x1A0 DUP4 ADD MSTORE POP SWAP3 SWAP2 POP POP JUMP JUMPDEST PUSH1 0x0 PUSH1 0x40 DUP3 DUP5 SUB SLT ISZERO PUSH2 0x3C68 JUMPI PUSH1 0x0 DUP1 REVERT JUMPDEST PUSH2 0x3C72 PUSH1 0x40 PUSH2 0x5784 JUMP JUMPDEST SWAP1 POP PUSH1 0x0 PUSH2 0x3C82 DUP5 DUP3 DUP6 ADD PUSH2 0x3643 JUMP JUMPDEST PUSH1 0x0 DUP4 ADD MSTORE POP PUSH1 0x20 PUSH2 0x3C96 DUP5 DUP3 DUP6 ADD PUSH2 0x4144 JUMP JUMPDEST PUSH1 0x20 DUP4 ADD MSTORE POP SWAP3 SWAP2 POP POP JUMP JUMPDEST PUSH1 0x0 PUSH1 0x40 DUP3 DUP5 SUB SLT ISZERO PUSH2 0x3CB4 JUMPI PUSH1 0x0 DUP1 REVERT JUMPDEST PUSH2 0x3CBE PUSH1 0x40 PUSH2 0x5784 JUMP JUMPDEST SWAP1 POP PUSH1 0x0 PUSH2 0x3CCE DUP5 DUP3 DUP6 ADD PUSH2 0x3658 JUMP JUMPDEST PUSH1 0x0 DUP4 ADD MSTORE POP PUSH1 0x20 PUSH2 0x3CE2 DUP5 DUP3 DUP6 ADD PUSH2 0x4159 JUMP JUMPDEST PUSH1 0x20 DUP4 ADD MSTORE POP SWAP3 SWAP2 POP POP JUMP JUMPDEST PUSH1 0x0 PUSH1 0x80 DUP3 DUP5 SUB SLT ISZERO PUSH2 0x3D00 JUMPI PUSH1 0x0 DUP1 REVERT JUMPDEST PUSH2 0x3D0A PUSH1 0x80 PUSH2 0x5784 JUMP JUMPDEST SWAP1 POP PUSH1 0x0 PUSH2 0x3D1A DUP5 DUP3 DUP6 ADD PUSH2 0x416E JUMP JUMPDEST PUSH1 0x0 DUP4 ADD MSTORE POP PUSH1 0x20 PUSH2 0x3D2E DUP5 DUP3 DUP6 ADD PUSH2 0x411A JUMP JUMPDEST PUSH1 0x20 DUP4 ADD MSTORE POP PUSH1 0x40 PUSH2 0x3D42 DUP5 DUP3 DUP6 ADD PUSH2 0x411A JUMP JUMPDEST PUSH1 0x40 DUP4 ADD MSTORE POP PUSH1 0x60 DUP3 ADD CALLDATALOAD PUSH8 0xFFFFFFFFFFFFFFFF DUP2 GT ISZERO PUSH2 0x3D62 JUMPI PUSH1 0x0 DUP1 REVERT JUMPDEST PUSH2 0x3D6E DUP5 DUP3 DUP6 ADD PUSH2 0x3697 JUMP JUMPDEST PUSH1 0x60 DUP4 ADD MSTORE POP SWAP3 SWAP2 POP POP JUMP JUMPDEST PUSH1 0x0 PUSH1 0x80 DUP3 DUP5 SUB SLT ISZERO PUSH2 0x3D8C JUMPI PUSH1 0x0 DUP1 REVERT JUMPDEST PUSH2 0x3D96 PUSH1 0x80 PUSH2 0x5784 JUMP JUMPDEST SWAP1 POP PUSH1 0x0 PUSH2 0x3DA6 DUP5 DUP3 DUP6 ADD PUSH2 0x416E JUMP JUMPDEST PUSH1 0x0 DUP4 ADD MSTORE POP PUSH1 0x20 PUSH2 0x3DBA DUP5 DUP3 DUP6 ADD PUSH2 0x416E JUMP JUMPDEST PUSH1 0x20 DUP4 ADD MSTORE POP PUSH1 0x40 DUP3 ADD CALLDATALOAD PUSH8 0xFFFFFFFFFFFFFFFF DUP2 GT ISZERO PUSH2 0x3DDA JUMPI PUSH1 0x0 DUP1 REVERT JUMPDEST PUSH2 0x3DE6 DUP5 DUP3 DUP6 ADD PUSH2 0x3793 JUMP JUMPDEST PUSH1 0x40 DUP4 ADD MSTORE POP PUSH1 0x60 DUP3 ADD CALLDATALOAD PUSH8 0xFFFFFFFFFFFFFFFF DUP2 GT ISZERO PUSH2 0x3E06 JUMPI PUSH1 0x0 DUP1 REVERT JUMPDEST PUSH2 0x3E12 DUP5 DUP3 DUP6 ADD PUSH2 0x36C1 JUMP JUMPDEST PUSH1 0x60 DUP4 ADD MSTORE POP SWAP3 SWAP2 POP POP JUMP JUMPDEST PUSH1 0x0 PUSH1 0xC0 DUP3 DUP5 SUB SLT ISZERO PUSH2 0x3E30 JUMPI PUSH1 0x0 DUP1 REVERT JUMPDEST PUSH2 0x3E3A PUSH1 0xC0 PUSH2 0x5784 JUMP JUMPDEST SWAP1 POP PUSH1 0x0 PUSH2 0x3E4A DUP5 DUP3 DUP6 ADD PUSH2 0x40F0 JUMP JUMPDEST PUSH1 0x0 DUP4 ADD MSTORE POP PUSH1 0x20 PUSH2 0x3E5E DUP5 DUP3 DUP6 ADD PUSH2 0x37D2 JUMP JUMPDEST PUSH1 0x20 DUP4 ADD MSTORE POP PUSH1 0x40 PUSH2 0x3E72 DUP5 DUP3 DUP6 ADD PUSH2 0x40F0 JUMP JUMPDEST PUSH1 0x40 DUP4 ADD MSTORE POP PUSH1 0x60 DUP3 ADD CALLDATALOAD PUSH8 0xFFFFFFFFFFFFFFFF DUP2 GT ISZERO PUSH2 0x3E92 JUMPI PUSH1 0x0 DUP1 REVERT JUMPDEST PUSH2 0x3E9E DUP5 DUP3 DUP6 ADD PUSH2 0x3932 JUMP JUMPDEST PUSH1 0x60 DUP4 ADD MSTORE POP PUSH1 0x80 DUP3 ADD CALLDATALOAD PUSH8 0xFFFFFFFFFFFFFFFF DUP2 GT ISZERO PUSH2 0x3EBE JUMPI PUSH1 0x0 DUP1 REVERT JUMPDEST PUSH2 0x3ECA DUP5 DUP3 DUP6 ADD PUSH2 0x3D7A JUMP JUMPDEST PUSH1 0x80 DUP4 ADD MSTORE POP PUSH1 0xA0 DUP3 ADD CALLDATALOAD PUSH8 0xFFFFFFFFFFFFFFFF DUP2 GT ISZERO PUSH2 0x3EEA JUMPI PUSH1 0x0 DUP1 REVERT JUMPDEST PUSH2 0x3EF6 DUP5 DUP3 DUP6 ADD PUSH2 0x3769 JUMP JUMPDEST PUSH1 0xA0 DUP4 ADD MSTORE POP SWAP3 SWAP2 POP POP JUMP JUMPDEST PUSH1 0x0 PUSH2 0x140 DUP3 DUP5 SUB SLT ISZERO PUSH2 0x3F15 JUMPI PUSH1 0x0 DUP1 REVERT JUMPDEST PUSH2 0x3F20 PUSH2 0x100 PUSH2 0x5784 JUMP JUMPDEST SWAP1 POP PUSH1 0x0 PUSH2 0x3F30 DUP5 DUP3 DUP6 ADD PUSH2 0x411A JUMP JUMPDEST PUSH1 0x0 DUP4 ADD MSTORE POP PUSH1 0x20 PUSH2 0x3F44 DUP5 DUP3 DUP6 ADD PUSH2 0x3C56 JUMP JUMPDEST PUSH1 0x20 DUP4 ADD MSTORE POP PUSH1 0x60 PUSH2 0x3F58 DUP5 DUP3 DUP6 ADD PUSH2 0x411A JUMP JUMPDEST PUSH1 0x40 DUP4 ADD MSTORE POP PUSH1 0x80 PUSH2 0x3F6C DUP5 DUP3 DUP6 ADD PUSH2 0x3643 JUMP JUMPDEST PUSH1 0x60 DUP4 ADD MSTORE POP PUSH1 0xA0 PUSH2 0x3F80 DUP5 DUP3 DUP6 ADD PUSH2 0x40F0 JUMP JUMPDEST PUSH1 0x80 DUP4 ADD MSTORE POP PUSH1 0xC0 PUSH2 0x3F94 DUP5 DUP3 DUP6 ADD PUSH2 0x402E JUMP JUMPDEST PUSH1 0xA0 DUP4 ADD MSTORE POP PUSH2 0x100 PUSH2 0x3FA9 DUP5 DUP3 DUP6 ADD PUSH2 0x3643 JUMP JUMPDEST PUSH1 0xC0 DUP4 ADD MSTORE POP PUSH2 0x120 PUSH2 0x3FBE DUP5 DUP3 DUP6 ADD PUSH2 0x3643 JUMP JUMPDEST PUSH1 0xE0 DUP4 ADD MSTORE POP SWAP3 SWAP2 POP POP JUMP JUMPDEST PUSH1 0x0 PUSH1 0x40 DUP3 DUP5 SUB SLT ISZERO PUSH2 0x3FDC JUMPI PUSH1 0x0 DUP1 REVERT JUMPDEST PUSH2 0x3FE6 PUSH1 0x40 PUSH2 0x5784 JUMP JUMPDEST SWAP1 POP PUSH1 0x0 PUSH2 0x3FF6 DUP5 DUP3 DUP6 ADD PUSH2 0x416E JUMP JUMPDEST PUSH1 0x0 DUP4 ADD MSTORE POP PUSH1 0x20 DUP3 ADD CALLDATALOAD PUSH8 0xFFFFFFFFFFFFFFFF DUP2 GT ISZERO PUSH2 0x4016 JUMPI PUSH1 0x0 DUP1 REVERT JUMPDEST PUSH2 0x4022 DUP5 DUP3 DUP6 ADD PUSH2 0x3CEE JUMP JUMPDEST PUSH1 0x20 DUP4 ADD MSTORE POP SWAP3 SWAP2 POP POP JUMP JUMPDEST PUSH1 0x0 PUSH1 0x40 DUP3 DUP5 SUB SLT ISZERO PUSH2 0x4040 JUMPI PUSH1 0x0 DUP1 REVERT JUMPDEST PUSH2 0x404A PUSH1 0x40 PUSH2 0x5784 JUMP JUMPDEST SWAP1 POP PUSH1 0x0 PUSH2 0x405A DUP5 DUP3 DUP6 ADD PUSH2 0x416E JUMP JUMPDEST PUSH1 0x0 DUP4 ADD MSTORE POP PUSH1 0x20 PUSH2 0x406E DUP5 DUP3 DUP6 ADD PUSH2 0x3643 JUMP JUMPDEST PUSH1 0x20 DUP4 ADD MSTORE POP SWAP3 SWAP2 POP POP JUMP JUMPDEST PUSH1 0x0 PUSH1 0x40 DUP3 DUP5 SUB SLT ISZERO PUSH2 0x408C JUMPI PUSH1 0x0 DUP1 REVERT JUMPDEST PUSH2 0x4096 PUSH1 0x40 PUSH2 0x5784 JUMP JUMPDEST SWAP1 POP PUSH1 0x0 PUSH2 0x40A6 DUP5 DUP3 DUP6 ADD PUSH2 0x4183 JUMP JUMPDEST PUSH1 0x0 DUP4 ADD MSTORE POP PUSH1 0x20 PUSH2 0x40BA DUP5 DUP3 DUP6 ADD PUSH2 0x3658 JUMP JUMPDEST PUSH1 0x20 DUP4 ADD MSTORE POP SWAP3 SWAP2 POP POP JUMP JUMPDEST PUSH1 0x0 DUP2 CALLDATALOAD SWAP1 POP PUSH2 0x40D5 DUP2 PUSH2 0x5D59 JUMP JUMPDEST SWAP3 SWAP2 POP POP JUMP JUMPDEST PUSH1 0x0 DUP2 MLOAD SWAP1 POP PUSH2 0x40EA DUP2 PUSH2 0x5D59 JUMP JUMPDEST SWAP3 SWAP2 POP POP JUMP JUMPDEST PUSH1 0x0 DUP2 CALLDATALOAD SWAP1 POP PUSH2 0x40FF DUP2 PUSH2 0x5D70 JUMP JUMPDEST SWAP3 SWAP2 POP POP JUMP JUMPDEST PUSH1 0x0 DUP2 MLOAD SWAP1 POP PUSH2 0x4114 DUP2 PUSH2 0x5D70 JUMP JUMPDEST SWAP3 SWAP2 POP POP JUMP JUMPDEST PUSH1 0x0 DUP2 CALLDATALOAD SWAP1 POP PUSH2 0x4129 DUP2 PUSH2 0x5D87 JUMP JUMPDEST SWAP3 SWAP2 POP POP JUMP JUMPDEST PUSH1 0x0 DUP2 MLOAD SWAP1 POP PUSH2 0x413E DUP2 PUSH2 0x5D87 JUMP JUMPDEST SWAP3 SWAP2 POP POP JUMP JUMPDEST PUSH1 0x0 DUP2 CALLDATALOAD SWAP1 POP PUSH2 0x4153 DUP2 PUSH2 0x5D9E JUMP JUMPDEST SWAP3 SWAP2 POP POP JUMP JUMPDEST PUSH1 0x0 DUP2 MLOAD SWAP1 POP PUSH2 0x4168 DUP2 PUSH2 0x5D9E JUMP JUMPDEST SWAP3 SWAP2 POP POP JUMP JUMPDEST PUSH1 0x0 DUP2 CALLDATALOAD SWAP1 POP PUSH2 0x417D DUP2 PUSH2 0x5DB5 JUMP JUMPDEST SWAP3 SWAP2 POP POP JUMP JUMPDEST PUSH1 0x0 DUP2 MLOAD SWAP1 POP PUSH2 0x4192 DUP2 PUSH2 0x5DB5 JUMP JUMPDEST SWAP3 SWAP2 POP POP JUMP JUMPDEST PUSH1 0x0 PUSH1 0x20 DUP3 DUP5 SUB SLT ISZERO PUSH2 0x41AA JUMPI PUSH1 0x0 DUP1 REVERT JUMPDEST PUSH1 0x0 PUSH2 0x41B8 DUP5 DUP3 DUP6 ADD PUSH2 0x3643 JUMP JUMPDEST SWAP2 POP POP SWAP3 SWAP2 POP POP JUMP JUMPDEST PUSH1 0x0 DUP1 PUSH1 0x0 DUP1 PUSH1 0x0 PUSH1 0xA0 DUP7 DUP9 SUB SLT ISZERO PUSH2 0x41D9 JUMPI PUSH1 0x0 DUP1 REVERT JUMPDEST PUSH1 0x0 PUSH2 0x41E7 DUP9 DUP3 DUP10 ADD PUSH2 0x3643 JUMP JUMPDEST SWAP6 POP POP PUSH1 0x20 PUSH2 0x41F8 DUP9 DUP3 DUP10 ADD PUSH2 0x416E JUMP JUMPDEST SWAP5 POP POP PUSH1 0x40 PUSH2 0x4209 DUP9 DUP3 DUP10 ADD PUSH2 0x3643 JUMP JUMPDEST SWAP4 POP POP PUSH1 0x60 PUSH2 0x421A DUP9 DUP3 DUP10 ADD PUSH2 0x40F0 JUMP JUMPDEST SWAP3 POP POP PUSH1 0x80 PUSH2 0x422B DUP9 DUP3 DUP10 ADD PUSH2 0x3643 JUMP JUMPDEST SWAP2 POP POP SWAP3 SWAP6 POP SWAP3 SWAP6 SWAP1 SWAP4 POP JUMP JUMPDEST PUSH1 0x0 PUSH1 0x20 DUP3 DUP5 SUB SLT ISZERO PUSH2 0x424A JUMPI PUSH1 0x0 DUP1 REVERT JUMPDEST PUSH1 0x0 DUP3 ADD MLOAD PUSH8 0xFFFFFFFFFFFFFFFF DUP2 GT ISZERO PUSH2 0x4264 JUMPI PUSH1 0x0 DUP1 REVERT JUMPDEST PUSH2 0x4270 DUP5 DUP3 DUP6 ADD PUSH2 0x366D JUMP JUMPDEST SWAP2 POP POP SWAP3 SWAP2 POP POP JUMP JUMPDEST PUSH1 0x0 PUSH1 0x20 DUP3 DUP5 SUB SLT ISZERO PUSH2 0x428B JUMPI PUSH1 0x0 DUP1 REVERT JUMPDEST PUSH1 0x0 DUP3 ADD CALLDATALOAD PUSH8 0xFFFFFFFFFFFFFFFF DUP2 GT ISZERO PUSH2 0x42A5 JUMPI PUSH1 0x0 DUP1 REVERT JUMPDEST PUSH2 0x42B1 DUP5 DUP3 DUP6 ADD PUSH2 0x373F JUMP JUMPDEST SWAP2 POP POP SWAP3 SWAP2 POP POP JUMP JUMPDEST PUSH1 0x0 PUSH1 0x20 DUP3 DUP5 SUB SLT ISZERO PUSH2 0x42CC JUMPI PUSH1 0x0 DUP1 REVERT JUMPDEST PUSH1 0x0 PUSH2 0x42DA DUP5 DUP3 DUP6 ADD PUSH2 0x37BD JUMP JUMPDEST SWAP2 POP POP SWAP3 SWAP2 POP POP JUMP JUMPDEST PUSH1 0x0 PUSH1 0x20 DUP3 DUP5 SUB SLT ISZERO PUSH2 0x42F5 JUMPI PUSH1 0x0 DUP1 REVERT JUMPDEST PUSH1 0x0 DUP3 ADD MLOAD PUSH8 0xFFFFFFFFFFFFFFFF DUP2 GT ISZERO PUSH2 0x430F JUMPI PUSH1 0x0 DUP1 REVERT JUMPDEST PUSH2 0x431B DUP5 DUP3 DUP6 ADD PUSH2 0x3826 JUMP JUMPDEST SWAP2 POP POP SWAP3 SWAP2 POP POP JUMP JUMPDEST PUSH1 0x0 PUSH1 0x20 DUP3 DUP5 SUB SLT ISZERO PUSH2 0x4336 JUMPI PUSH1 0x0 DUP1 REVERT JUMPDEST PUSH1 0x0 DUP3 ADD MLOAD PUSH8 0xFFFFFFFFFFFFFFFF DUP2 GT ISZERO PUSH2 0x4350 JUMPI PUSH1 0x0 DUP1 REVERT JUMPDEST PUSH2 0x435C DUP5 DUP3 DUP6 ADD PUSH2 0x3AC4 JUMP JUMPDEST SWAP2 POP POP SWAP3 SWAP2 POP POP JUMP JUMPDEST PUSH1 0x0 PUSH1 0x20 DUP3 DUP5 SUB SLT ISZERO PUSH2 0x4377 JUMPI PUSH1 0x0 DUP1 REVERT JUMPDEST PUSH1 0x0 PUSH2 0x4385 DUP5 DUP3 DUP6 ADD PUSH2 0x40F0 JUMP JUMPDEST SWAP2 POP POP SWAP3 SWAP2 POP POP JUMP JUMPDEST PUSH1 0x0 PUSH1 0x20 DUP3 DUP5 SUB SLT ISZERO PUSH2 0x43A0 JUMPI PUSH1 0x0 DUP1 REVERT JUMPDEST PUSH1 0x0 PUSH2 0x43AE DUP5 DUP3 DUP6 ADD PUSH2 0x4105 JUMP JUMPDEST SWAP2 POP POP SWAP3 SWAP2 POP POP JUMP JUMPDEST PUSH1 0x0 DUP1 PUSH1 0x40 DUP4 DUP6 SUB SLT ISZERO PUSH2 0x43CA JUMPI PUSH1 0x0 DUP1 REVERT JUMPDEST PUSH1 0x0 PUSH2 0x43D8 DUP6 DUP3 DUP7 ADD PUSH2 0x40F0 JUMP JUMPDEST SWAP3 POP POP PUSH1 0x20 PUSH2 0x43E9 DUP6 DUP3 DUP7 ADD PUSH2 0x40F0 JUMP JUMPDEST SWAP2 POP POP SWAP3 POP SWAP3 SWAP1 POP JUMP JUMPDEST PUSH1 0x0 DUP1 PUSH1 0x0 DUP1 PUSH1 0x0 DUP1 PUSH1 0x0 DUP1 PUSH2 0x100 DUP10 DUP12 SUB SLT ISZERO PUSH2 0x4410 JUMPI PUSH1 0x0 DUP1 REVERT JUMPDEST PUSH1 0x0 PUSH2 0x441E DUP12 DUP3 DUP13 ADD PUSH2 0x4144 JUMP JUMPDEST SWAP9 POP POP PUSH1 0x20 PUSH2 0x442F DUP12 DUP3 DUP13 ADD PUSH2 0x3643 JUMP JUMPDEST SWAP8 POP POP PUSH1 0x40 PUSH2 0x4440 DUP12 DUP3 DUP13 ADD PUSH2 0x3643 JUMP JUMPDEST SWAP7 POP POP PUSH1 0x60 PUSH2 0x4451 DUP12 DUP3 DUP13 ADD PUSH2 0x416E JUMP JUMPDEST SWAP6 POP POP PUSH1 0x80 PUSH2 0x4462 DUP12 DUP3 DUP13 ADD PUSH2 0x3643 JUMP JUMPDEST SWAP5 POP POP PUSH1 0xA0 PUSH2 0x4473 DUP12 DUP3 DUP13 ADD PUSH2 0x40F0 JUMP JUMPDEST SWAP4 POP POP PUSH1 0xC0 PUSH2 0x4484 DUP12 DUP3 DUP13 ADD PUSH2 0x3643 JUMP JUMPDEST SWAP3 POP POP PUSH1 0xE0 PUSH2 0x4495 DUP12 DUP3 DUP13 ADD PUSH2 0x3643 JUMP JUMPDEST SWAP2 POP POP SWAP3 SWAP6 SWAP9 POP SWAP3 SWAP6 SWAP9 SWAP1 SWAP4 SWAP7 POP JUMP JUMPDEST PUSH1 0x0 PUSH1 0x20 DUP3 DUP5 SUB SLT ISZERO PUSH2 0x44B7 JUMPI PUSH1 0x0 DUP1 REVERT JUMPDEST PUSH1 0x0 PUSH2 0x44C5 DUP5 DUP3 DUP6 ADD PUSH2 0x4183 JUMP JUMPDEST SWAP2 POP POP SWAP3 SWAP2 POP POP JUMP JUMPDEST PUSH1 0x0 PUSH2 0x44DA DUP4 DUP4 PUSH2 0x4553 JUMP JUMPDEST PUSH1 0x20 DUP4 ADD SWAP1 POP SWAP3 SWAP2 POP POP JUMP JUMPDEST PUSH1 0x0 PUSH2 0x44F2 DUP4 DUP4 PUSH2 0x4D1D JUMP JUMPDEST PUSH1 0x40 DUP4 ADD SWAP1 POP SWAP3 SWAP2 POP POP JUMP JUMPDEST PUSH1 0x0 PUSH2 0x450A DUP4 DUP4 PUSH2 0x4DBB JUMP JUMPDEST SWAP1 POP SWAP3 SWAP2 POP POP JUMP JUMPDEST PUSH1 0x0 PUSH2 0x451E DUP4 DUP4 PUSH2 0x4E81 JUMP JUMPDEST PUSH2 0x140 DUP4 ADD SWAP1 POP SWAP3 SWAP2 POP POP JUMP JUMPDEST PUSH1 0x0 PUSH2 0x4537 DUP4 DUP4 PUSH2 0x4F25 JUMP JUMPDEST PUSH2 0x140 DUP4 ADD SWAP1 POP SWAP3 SWAP2 POP POP JUMP JUMPDEST PUSH2 0x454D DUP2 PUSH2 0x5B88 JUMP JUMPDEST DUP3 MSTORE POP POP JUMP JUMPDEST PUSH2 0x455C DUP2 PUSH2 0x5AEA JUMP JUMPDEST DUP3 MSTORE POP POP JUMP JUMPDEST PUSH2 0x456B DUP2 PUSH2 0x5AEA JUMP JUMPDEST DUP3 MSTORE POP POP JUMP JUMPDEST PUSH1 0x0 PUSH2 0x457C DUP3 PUSH2 0x596E JUMP JUMPDEST PUSH2 0x4586 DUP2 DUP6 PUSH2 0x59FC JUMP JUMPDEST SWAP4 POP PUSH2 0x4591 DUP4 PUSH2 0x5919 JUMP JUMPDEST DUP1 PUSH1 0x0 JUMPDEST DUP4 DUP2 LT ISZERO PUSH2 0x45C2 JUMPI DUP2 MLOAD PUSH2 0x45A9 DUP9 DUP3 PUSH2 0x44CE JUMP JUMPDEST SWAP8 POP PUSH2 0x45B4 DUP4 PUSH2 0x59BB JUMP JUMPDEST SWAP3 POP POP PUSH1 0x1 DUP2 ADD SWAP1 POP PUSH2 0x4595 JUMP JUMPDEST POP DUP6 SWAP4 POP POP POP POP SWAP3 SWAP2 POP POP JUMP JUMPDEST PUSH1 0x0 PUSH2 0x45DA DUP3 PUSH2 0x5979 JUMP JUMPDEST PUSH2 0x45E4 DUP2 DUP6 PUSH2 0x5A0D JUMP JUMPDEST SWAP4 POP PUSH2 0x45EF DUP4 PUSH2 0x5929 JUMP JUMPDEST DUP1 PUSH1 0x0 JUMPDEST DUP4 DUP2 LT ISZERO PUSH2 0x4620 JUMPI DUP2 MLOAD PUSH2 0x4607 DUP9 DUP3 PUSH2 0x44E6 JUMP JUMPDEST SWAP8 POP PUSH2 0x4612 DUP4 PUSH2 0x59C8 JUMP JUMPDEST SWAP3 POP POP PUSH1 0x1 DUP2 ADD SWAP1 POP PUSH2 0x45F3 JUMP JUMPDEST POP DUP6 SWAP4 POP POP POP POP SWAP3 SWAP2 POP POP JUMP JUMPDEST PUSH1 0x0 PUSH2 0x4638 DUP3 PUSH2 0x5984 JUMP JUMPDEST PUSH2 0x4642 DUP2 DUP6 PUSH2 0x5A1E JUMP JUMPDEST SWAP4 POP DUP4 PUSH1 0x20 DUP3 MUL DUP6 ADD PUSH2 0x4654 DUP6 PUSH2 0x5939 JUMP JUMPDEST DUP1 PUSH1 0x0 JUMPDEST DUP6 DUP2 LT ISZERO PUSH2 0x4690 JUMPI DUP5 DUP5 SUB DUP10 MSTORE DUP2 MLOAD PUSH2 0x4671 DUP6 DUP3 PUSH2 0x44FE JUMP JUMPDEST SWAP5 POP PUSH2 0x467C DUP4 PUSH2 0x59D5 JUMP JUMPDEST SWAP3 POP PUSH1 0x20 DUP11 ADD SWAP10 POP POP PUSH1 0x1 DUP2 ADD SWAP1 POP PUSH2 0x4658 JUMP JUMPDEST POP DUP3 SWAP8 POP DUP8 SWAP6 POP POP POP POP POP POP SWAP3 SWAP2 POP POP JUMP JUMPDEST PUSH1 0x0 PUSH2 0x46AD DUP3 PUSH2 0x598F JUMP JUMPDEST PUSH2 0x46B7 DUP2 DUP6 PUSH2 0x5A2F JUMP JUMPDEST SWAP4 POP PUSH2 0x46C2 DUP4 PUSH2 0x5949 JUMP JUMPDEST DUP1 PUSH1 0x0 JUMPDEST DUP4 DUP2 LT ISZERO PUSH2 0x46F3 JUMPI DUP2 MLOAD PUSH2 0x46DA DUP9 DUP3 PUSH2 0x4512 JUMP JUMPDEST SWAP8 POP PUSH2 0x46E5 DUP4 PUSH2 0x59E2 JUMP JUMPDEST SWAP3 POP POP PUSH1 0x1 DUP2 ADD SWAP1 POP PUSH2 0x46C6 JUMP JUMPDEST POP DUP6 SWAP4 POP POP POP POP SWAP3 SWAP2 POP POP JUMP JUMPDEST PUSH1 0x0 PUSH2 0x470B DUP3 PUSH2 0x599A JUMP JUMPDEST PUSH2 0x4715 DUP2 DUP6 PUSH2 0x5A40 JUMP JUMPDEST SWAP4 POP PUSH2 0x4720 DUP4 PUSH2 0x5959 JUMP JUMPDEST DUP1 PUSH1 0x0 JUMPDEST DUP4 DUP2 LT ISZERO PUSH2 0x4750 JUMPI DUP2 PUSH2 0x4737 DUP9 DUP3 PUSH2 0x452B JUMP JUMPDEST SWAP8 POP PUSH2 0x4742 DUP4 PUSH2 0x59EF JUMP JUMPDEST SWAP3 POP POP PUSH1 0x1 DUP2 ADD SWAP1 POP PUSH2 0x4724 JUMP JUMPDEST POP DUP6 SWAP4 POP POP POP POP SWAP3 SWAP2 POP POP JUMP JUMPDEST PUSH2 0x4766 DUP2 PUSH2 0x5AFC JUMP JUMPDEST DUP3 MSTORE POP POP JUMP JUMPDEST PUSH2 0x4775 DUP2 PUSH2 0x5AFC JUMP JUMPDEST DUP3 MSTORE POP POP JUMP JUMPDEST PUSH2 0x4784 DUP2 PUSH2 0x5B08 JUMP JUMPDEST DUP3 MSTORE POP POP JUMP JUMPDEST PUSH2 0x4793 DUP2 PUSH2 0x5B08 JUMP JUMPDEST DUP3 MSTORE POP POP JUMP JUMPDEST PUSH1 0x0 PUSH2 0x47A4 DUP3 PUSH2 0x59A5 JUMP JUMPDEST PUSH2 0x47AE DUP2 DUP6 PUSH2 0x5A51 JUMP JUMPDEST SWAP4 POP PUSH2 0x47BE DUP2 DUP6 PUSH1 0x20 DUP7 ADD PUSH2 0x5BCD JUMP JUMPDEST PUSH2 0x47C7 DUP2 PUSH2 0x5CB8 JUMP JUMPDEST DUP5 ADD SWAP2 POP POP SWAP3 SWAP2 POP POP JUMP JUMPDEST PUSH1 0x0 PUSH2 0x47DD DUP3 PUSH2 0x59A5 JUMP JUMPDEST PUSH2 0x47E7 DUP2 DUP6 PUSH2 0x5A62 JUMP JUMPDEST SWAP4 POP PUSH2 0x47F7 DUP2 DUP6 PUSH1 0x20 DUP7 ADD PUSH2 0x5BCD JUMP JUMPDEST DUP1 DUP5 ADD SWAP2 POP POP SWAP3 SWAP2 POP POP JUMP JUMPDEST PUSH2 0x480C DUP2 PUSH2 0x5B12 JUMP JUMPDEST DUP3 MSTORE POP POP JUMP JUMPDEST PUSH1 0x0 PUSH2 0x481D DUP3 PUSH2 0x59B0 JUMP JUMPDEST PUSH2 0x4827 DUP2 DUP6 PUSH2 0x5A6D JUMP JUMPDEST SWAP4 POP PUSH2 0x4837 DUP2 DUP6 PUSH1 0x20 DUP7 ADD PUSH2 0x5BCD JUMP JUMPDEST PUSH2 0x4840 DUP2 PUSH2 0x5CB8 JUMP JUMPDEST DUP5 ADD SWAP2 POP POP SWAP3 SWAP2 POP POP JUMP JUMPDEST PUSH1 0x0 PUSH2 0x4858 PUSH1 0x3B DUP4 PUSH2 0x5A7E JUMP JUMPDEST SWAP2 POP PUSH32 0x427269646765206973206E6F742079657420617661696C61626C65206F6E6C79 PUSH1 0x0 DUP4 ADD MSTORE PUSH32 0x2056657275732063616E206265207573656420666F7220666565730000000000 PUSH1 0x20 DUP4 ADD MSTORE PUSH1 0x40 DUP3 ADD SWAP1 POP SWAP2 SWAP1 POP JUMP JUMPDEST PUSH1 0x0 PUSH2 0x48BE PUSH1 0x1C DUP4 PUSH2 0x5A7E JUMP JUMPDEST SWAP2 POP PUSH32 0x436F6E747261637420686173206265656E206465707265636174656400000000 PUSH1 0x0 DUP4 ADD MSTORE PUSH1 0x20 DUP3 ADD SWAP1 POP SWAP2 SWAP1 POP JUMP JUMPDEST PUSH1 0x0 PUSH2 0x48FE PUSH1 0x23 DUP4 PUSH2 0x5A7E JUMP JUMPDEST SWAP2 POP PUSH32 0x5472616E736665722068617320616C7265616479206265656E2070726F636573 PUSH1 0x0 DUP4 ADD MSTORE PUSH32 0x7365640000000000000000000000000000000000000000000000000000000000 PUSH1 0x20 DUP4 ADD MSTORE PUSH1 0x40 DUP3 ADD SWAP1 POP SWAP2 SWAP1 POP JUMP JUMPDEST PUSH1 0x0 PUSH2 0x4964 PUSH1 0x19 DUP4 PUSH2 0x5A7E JUMP JUMPDEST SWAP2 POP PUSH32 0x546F2073656E642065746820757365206578706F727445544800000000000000 PUSH1 0x0 DUP4 ADD MSTORE PUSH1 0x20 DUP3 ADD SWAP1 POP SWAP2 SWAP1 POP JUMP JUMPDEST PUSH1 0x0 PUSH2 0x49A4 PUSH1 0x48 DUP4 PUSH2 0x5A7E JUMP JUMPDEST SWAP2 POP PUSH32 0x457468657265756D206D7573742062652073656E742077697468207468652074 PUSH1 0x0 DUP4 ADD MSTORE PUSH32 0x72616E73616374696F6E20746F2062652073656E7420746F2074686520566572 PUSH1 0x20 DUP4 ADD MSTORE PUSH32 0x757320436861696E000000000000000000000000000000000000000000000000 PUSH1 0x40 DUP4 ADD MSTORE PUSH1 0x60 DUP3 ADD SWAP1 POP SWAP2 SWAP1 POP JUMP JUMPDEST PUSH1 0x0 PUSH2 0x4A30 PUSH1 0x29 DUP4 PUSH2 0x5A7E JUMP JUMPDEST SWAP2 POP PUSH32 0x52657175657374656420616D6F756E74206578636565647320636F6E74726163 PUSH1 0x0 DUP4 ADD MSTORE PUSH32 0x742062616C616E63650000000000000000000000000000000000000000000000 PUSH1 0x20 DUP4 ADD MSTORE PUSH1 0x40 DUP3 ADD SWAP1 POP SWAP2 SWAP1 POP JUMP JUMPDEST PUSH1 0x0 PUSH2 0x4A96 PUSH1 0x3D DUP4 PUSH2 0x5A7E JUMP JUMPDEST SWAP2 POP PUSH32 0x427269646765206973206E6F742079657420617661696C61626C652066656573 PUSH1 0x0 DUP4 ADD MSTORE PUSH32 0x2063616E6E6F7420657863656564206578697374696E6720706F6F6C2E000000 PUSH1 0x20 DUP4 ADD MSTORE PUSH1 0x40 DUP3 ADD SWAP1 POP SWAP2 SWAP1 POP JUMP JUMPDEST PUSH1 0x0 PUSH2 0x4AFC PUSH1 0x55 DUP4 PUSH2 0x5A7E JUMP JUMPDEST SWAP2 POP PUSH32 0x5468697320636F6E7472616374206D757374206861766520616E20616C6C6F77 PUSH1 0x0 DUP4 ADD MSTORE PUSH32 0x616E6365206F662067726561746572207468616E206F7220657175616C20746F PUSH1 0x20 DUP4 ADD MSTORE PUSH32 0x20746865206E756D626572206F6620746F6B656E730000000000000000000000 PUSH1 0x40 DUP4 ADD MSTORE PUSH1 0x60 DUP3 ADD SWAP1 POP SWAP2 SWAP1 POP JUMP JUMPDEST PUSH1 0x0 PUSH2 0x4B88 PUSH1 0x2C DUP4 PUSH2 0x5A7E JUMP JUMPDEST SWAP2 POP PUSH32 0x506C656173652073656E642074686520617070726F707269617465207472616E PUSH1 0x0 DUP4 ADD MSTORE PUSH32 0x73616374696F6E206665652E0000000000000000000000000000000000000000 PUSH1 0x20 DUP4 ADD MSTORE PUSH1 0x40 DUP3 ADD SWAP1 POP SWAP2 SWAP1 POP JUMP JUMPDEST PUSH1 0x0 PUSH2 0x1E0 DUP4 ADD PUSH1 0x0 DUP4 ADD MLOAD PUSH2 0x4BFA PUSH1 0x0 DUP7 ADD DUP3 PUSH2 0x5291 JUMP JUMPDEST POP PUSH1 0x20 DUP4 ADD MLOAD PUSH2 0x4C0D PUSH1 0x20 DUP7 ADD DUP3 PUSH2 0x5291 JUMP JUMPDEST POP PUSH1 0x40 DUP4 ADD MLOAD PUSH2 0x4C20 PUSH1 0x40 DUP7 ADD DUP3 PUSH2 0x4553 JUMP JUMPDEST POP PUSH1 0x60 DUP4 ADD MLOAD PUSH2 0x4C33 PUSH1 0x60 DUP7 ADD DUP3 PUSH2 0x52BE JUMP JUMPDEST POP PUSH1 0x80 DUP4 ADD MLOAD PUSH2 0x4C46 PUSH1 0x80 DUP7 ADD DUP3 PUSH2 0x52BE JUMP JUMPDEST POP PUSH1 0xA0 DUP4 ADD MLOAD PUSH2 0x4C59 PUSH1 0xA0 DUP7 ADD DUP3 PUSH2 0x4553 JUMP JUMPDEST POP PUSH1 0xC0 DUP4 ADD MLOAD PUSH2 0x4C6C PUSH1 0xC0 DUP7 ADD DUP3 PUSH2 0x4553 JUMP JUMPDEST POP PUSH1 0xE0 DUP4 ADD MLOAD PUSH2 0x4C7F PUSH1 0xE0 DUP7 ADD DUP3 PUSH2 0x52BE JUMP JUMPDEST POP PUSH2 0x100 DUP4 ADD MLOAD DUP5 DUP3 SUB PUSH2 0x100 DUP7 ADD MSTORE PUSH2 0x4C99 DUP3 DUP3 PUSH2 0x45CF JUMP JUMPDEST SWAP2 POP POP PUSH2 0x120 DUP4 ADD MLOAD DUP5 DUP3 SUB PUSH2 0x120 DUP7 ADD MSTORE PUSH2 0x4CB5 DUP3 DUP3 PUSH2 0x45CF JUMP JUMPDEST SWAP2 POP POP PUSH2 0x140 DUP4 ADD MLOAD PUSH2 0x4CCC PUSH2 0x140 DUP7 ADD DUP3 PUSH2 0x477B JUMP JUMPDEST POP PUSH2 0x160 DUP4 ADD MLOAD DUP5 DUP3 SUB PUSH2 0x160 DUP7 ADD MSTORE PUSH2 0x4CE6 DUP3 DUP3 PUSH2 0x45CF JUMP JUMPDEST SWAP2 POP POP PUSH2 0x180 DUP4 ADD MLOAD PUSH2 0x4CFD PUSH2 0x180 DUP7 ADD DUP3 PUSH2 0x5004 JUMP JUMPDEST POP PUSH2 0x1A0 DUP4 ADD MLOAD PUSH2 0x4D12 PUSH2 0x1C0 DUP7 ADD DUP3 PUSH2 0x4803 JUMP JUMPDEST POP DUP1 SWAP2 POP POP SWAP3 SWAP2 POP POP JUMP JUMPDEST PUSH1 0x40 DUP3 ADD PUSH1 0x0 DUP3 ADD MLOAD PUSH2 0x4D33 PUSH1 0x0 DUP6 ADD DUP3 PUSH2 0x4553 JUMP JUMPDEST POP PUSH1 0x20 DUP3 ADD MLOAD PUSH2 0x4D46 PUSH1 0x20 DUP6 ADD DUP3 PUSH2 0x52DC JUMP JUMPDEST POP POP POP POP JUMP JUMPDEST PUSH1 0x40 DUP3 ADD PUSH1 0x0 DUP3 ADD MLOAD PUSH2 0x4D62 PUSH1 0x0 DUP6 ADD DUP3 PUSH2 0x4553 JUMP JUMPDEST POP PUSH1 0x20 DUP3 ADD MLOAD PUSH2 0x4D75 PUSH1 0x20 DUP6 ADD DUP3 PUSH2 0x52DC JUMP JUMPDEST POP POP POP POP JUMP JUMPDEST PUSH1 0x40 DUP3 ADD PUSH1 0x0 DUP1 DUP4 ADD SLOAD SWAP1 POP PUSH2 0x4D90 DUP2 PUSH2 0x5C00 JUMP JUMPDEST PUSH2 0x4D9D PUSH1 0x0 DUP7 ADD DUP3 PUSH2 0x4553 JUMP JUMPDEST POP PUSH2 0x4DA7 DUP2 PUSH2 0x5C82 JUMP JUMPDEST PUSH2 0x4DB4 PUSH1 0x20 DUP7 ADD DUP3 PUSH2 0x52DC JUMP JUMPDEST POP POP POP POP POP JUMP JUMPDEST PUSH1 0x0 PUSH1 0x80 DUP4 ADD PUSH1 0x0 DUP4 ADD MLOAD PUSH2 0x4DD3 PUSH1 0x0 DUP7 ADD DUP3 PUSH2 0x52A0 JUMP JUMPDEST POP PUSH1 0x20 DUP4 ADD MLOAD PUSH2 0x4DE6 PUSH1 0x20 DUP7 ADD DUP3 PUSH2 0x52A0 JUMP JUMPDEST POP PUSH1 0x40 DUP4 ADD MLOAD PUSH2 0x4DF9 PUSH1 0x40 DUP7 ADD DUP3 PUSH2 0x477B JUMP JUMPDEST POP PUSH1 0x60 DUP4 ADD MLOAD DUP5 DUP3 SUB PUSH1 0x60 DUP7 ADD MSTORE PUSH2 0x4E11 DUP3 DUP3 PUSH2 0x46A2 JUMP JUMPDEST SWAP2 POP POP DUP1 SWAP2 POP POP SWAP3 SWAP2 POP POP JUMP JUMPDEST PUSH1 0x0 PUSH1 0x80 DUP4 ADD PUSH1 0x0 DUP4 ADD MLOAD PUSH2 0x4E36 PUSH1 0x0 DUP7 ADD DUP3 PUSH2 0x52A0 JUMP JUMPDEST POP PUSH1 0x20 DUP4 ADD MLOAD PUSH2 0x4E49 PUSH1 0x20 DUP7 ADD DUP3 PUSH2 0x52A0 JUMP JUMPDEST POP PUSH1 0x40 DUP4 ADD MLOAD PUSH2 0x4E5C PUSH1 0x40 DUP7 ADD DUP3 PUSH2 0x477B JUMP JUMPDEST POP PUSH1 0x60 DUP4 ADD MLOAD DUP5 DUP3 SUB PUSH1 0x60 DUP7 ADD MSTORE PUSH2 0x4E74 DUP3 DUP3 PUSH2 0x46A2 JUMP JUMPDEST SWAP2 POP POP DUP1 SWAP2 POP POP SWAP3 SWAP2 POP POP JUMP JUMPDEST PUSH2 0x140 DUP3 ADD PUSH1 0x0 DUP3 ADD MLOAD PUSH2 0x4E98 PUSH1 0x0 DUP6 ADD DUP3 PUSH2 0x52BE JUMP JUMPDEST POP PUSH1 0x20 DUP3 ADD MLOAD PUSH2 0x4EAB PUSH1 0x20 DUP6 ADD DUP3 PUSH2 0x4D1D JUMP JUMPDEST POP PUSH1 0x40 DUP3 ADD MLOAD PUSH2 0x4EBE PUSH1 0x60 DUP6 ADD DUP3 PUSH2 0x52BE JUMP JUMPDEST POP PUSH1 0x60 DUP3 ADD MLOAD PUSH2 0x4ED1 PUSH1 0x80 DUP6 ADD DUP3 PUSH2 0x4553 JUMP JUMPDEST POP PUSH1 0x80 DUP3 ADD MLOAD PUSH2 0x4EE4 PUSH1 0xA0 DUP6 ADD DUP3 PUSH2 0x52A0 JUMP JUMPDEST POP PUSH1 0xA0 DUP3 ADD MLOAD PUSH2 0x4EF7 PUSH1 0xC0 DUP6 ADD DUP3 PUSH2 0x5004 JUMP JUMPDEST POP PUSH1 0xC0 DUP3 ADD MLOAD PUSH2 0x4F0B PUSH2 0x100 DUP6 ADD DUP3 PUSH2 0x4553 JUMP JUMPDEST POP PUSH1 0xE0 DUP3 ADD MLOAD PUSH2 0x4F1F PUSH2 0x120 DUP6 ADD DUP3 PUSH2 0x4553 JUMP JUMPDEST POP POP POP POP JUMP JUMPDEST PUSH2 0x140 DUP3 ADD PUSH1 0x0 DUP1 DUP4 ADD SLOAD SWAP1 POP PUSH2 0x4F3B DUP2 PUSH2 0x5C34 JUMP JUMPDEST PUSH2 0x4F48 PUSH1 0x0 DUP7 ADD DUP3 PUSH2 0x52BE JUMP JUMPDEST POP PUSH1 0x1 DUP4 ADD PUSH2 0x4F5A PUSH1 0x20 DUP7 ADD DUP3 PUSH2 0x4D7B JUMP JUMPDEST POP PUSH1 0x2 DUP4 ADD SLOAD SWAP1 POP PUSH2 0x4F6B DUP2 PUSH2 0x5C34 JUMP JUMPDEST PUSH2 0x4F78 PUSH1 0x60 DUP7 ADD DUP3 PUSH2 0x52BE JUMP JUMPDEST POP PUSH2 0x4F82 DUP2 PUSH2 0x5C9C JUMP JUMPDEST PUSH2 0x4F8F PUSH1 0x80 DUP7 ADD DUP3 PUSH2 0x4553 JUMP JUMPDEST POP PUSH1 0x3 DUP4 ADD SLOAD SWAP1 POP PUSH2 0x4FA0 DUP2 PUSH2 0x5C1A JUMP JUMPDEST PUSH2 0x4FAD PUSH1 0xA0 DUP7 ADD DUP3 PUSH2 0x52A0 JUMP JUMPDEST POP PUSH1 0x4 DUP4 ADD PUSH2 0x4FBF PUSH1 0xC0 DUP7 ADD DUP3 PUSH2 0x5062 JUMP JUMPDEST POP PUSH1 0x5 DUP4 ADD SLOAD SWAP1 POP PUSH2 0x4FD0 DUP2 PUSH2 0x5C00 JUMP JUMPDEST PUSH2 0x4FDE PUSH2 0x100 DUP7 ADD DUP3 PUSH2 0x4553 JUMP JUMPDEST POP PUSH1 0x6 DUP4 ADD SLOAD SWAP1 POP PUSH2 0x4FEF DUP2 PUSH2 0x5C00 JUMP JUMPDEST PUSH2 0x4FFD PUSH2 0x120 DUP7 ADD DUP3 PUSH2 0x4553 JUMP JUMPDEST POP POP POP POP POP JUMP JUMPDEST PUSH1 0x40 DUP3 ADD PUSH1 0x0 DUP3 ADD MLOAD PUSH2 0x501A PUSH1 0x0 DUP6 ADD DUP3 PUSH2 0x52FA JUMP JUMPDEST POP PUSH1 0x20 DUP3 ADD MLOAD PUSH2 0x502D PUSH1 0x20 DUP6 ADD DUP3 PUSH2 0x4553 JUMP JUMPDEST POP POP POP POP JUMP JUMPDEST PUSH1 0x40 DUP3 ADD PUSH1 0x0 DUP3 ADD MLOAD PUSH2 0x5049 PUSH1 0x0 DUP6 ADD DUP3 PUSH2 0x52FA JUMP JUMPDEST POP PUSH1 0x20 DUP3 ADD MLOAD PUSH2 0x505C PUSH1 0x20 DUP6 ADD DUP3 PUSH2 0x4553 JUMP JUMPDEST POP POP POP POP JUMP JUMPDEST PUSH1 0x40 DUP3 ADD PUSH1 0x0 DUP1 DUP4 ADD SLOAD SWAP1 POP PUSH2 0x5077 DUP2 PUSH2 0x5C4E JUMP JUMPDEST PUSH2 0x5084 PUSH1 0x0 DUP7 ADD DUP3 PUSH2 0x52FA JUMP JUMPDEST POP PUSH2 0x508E DUP2 PUSH2 0x5C68 JUMP JUMPDEST PUSH2 0x509B PUSH1 0x20 DUP7 ADD DUP3 PUSH2 0x4553 JUMP JUMPDEST POP POP POP POP POP JUMP JUMPDEST PUSH1 0x0 PUSH2 0x220 DUP4 ADD PUSH1 0x0 DUP4 ADD MLOAD PUSH2 0x50BB PUSH1 0x0 DUP7 ADD DUP3 PUSH2 0x52A0 JUMP JUMPDEST POP PUSH1 0x20 DUP4 ADD MLOAD DUP5 DUP3 SUB PUSH1 0x20 DUP7 ADD MSTORE PUSH2 0x50D3 DUP3 DUP3 PUSH2 0x4812 JUMP JUMPDEST SWAP2 POP POP PUSH1 0x40 DUP4 ADD MLOAD PUSH2 0x50E8 PUSH1 0x40 DUP7 ADD DUP3 PUSH2 0x4553 JUMP JUMPDEST POP PUSH1 0x60 DUP4 ADD MLOAD PUSH2 0x50FB PUSH1 0x60 DUP7 ADD DUP3 PUSH2 0x4553 JUMP JUMPDEST POP PUSH1 0x80 DUP4 ADD MLOAD PUSH2 0x510E PUSH1 0x80 DUP7 ADD DUP3 PUSH2 0x4553 JUMP JUMPDEST POP PUSH1 0xA0 DUP4 ADD MLOAD PUSH2 0x5121 PUSH1 0xA0 DUP7 ADD DUP3 PUSH2 0x52FA JUMP JUMPDEST POP PUSH1 0xC0 DUP4 ADD MLOAD PUSH2 0x5134 PUSH1 0xC0 DUP7 ADD DUP3 PUSH2 0x52FA JUMP JUMPDEST POP PUSH1 0xE0 DUP4 ADD MLOAD PUSH2 0x5147 PUSH1 0xE0 DUP7 ADD DUP3 PUSH2 0x5004 JUMP JUMPDEST POP PUSH2 0x100 DUP4 ADD MLOAD PUSH2 0x515C PUSH2 0x120 DUP7 ADD DUP3 PUSH2 0x4553 JUMP JUMPDEST POP PUSH2 0x120 DUP4 ADD MLOAD PUSH2 0x5171 PUSH2 0x140 DUP7 ADD DUP3 PUSH2 0x52A0 JUMP JUMPDEST POP PUSH2 0x140 DUP4 ADD MLOAD PUSH2 0x5186 PUSH2 0x160 DUP7 ADD DUP3 PUSH2 0x52A0 JUMP JUMPDEST POP PUSH2 0x160 DUP4 ADD MLOAD PUSH2 0x519B PUSH2 0x180 DUP7 ADD DUP3 PUSH2 0x52A0 JUMP JUMPDEST POP PUSH2 0x180 DUP4 ADD MLOAD PUSH2 0x51B0 PUSH2 0x1A0 DUP7 ADD DUP3 PUSH2 0x52A0 JUMP JUMPDEST POP PUSH2 0x1A0 DUP4 ADD MLOAD PUSH2 0x51C5 PUSH2 0x1C0 DUP7 ADD DUP3 PUSH2 0x4553 JUMP JUMPDEST POP PUSH2 0x1C0 DUP4 ADD MLOAD DUP5 DUP3 SUB PUSH2 0x1E0 DUP7 ADD MSTORE PUSH2 0x51DF DUP3 DUP3 PUSH2 0x4571 JUMP JUMPDEST SWAP2 POP POP PUSH2 0x1E0 DUP4 ADD MLOAD PUSH2 0x51F6 PUSH2 0x200 DUP7 ADD DUP3 PUSH2 0x52A0 JUMP JUMPDEST POP DUP1 SWAP2 POP POP SWAP3 SWAP2 POP POP JUMP JUMPDEST PUSH1 0x0 PUSH1 0xC0 DUP4 ADD PUSH1 0x0 DUP4 ADD MLOAD PUSH2 0x5219 PUSH1 0x0 DUP7 ADD DUP3 PUSH2 0x52A0 JUMP JUMPDEST POP PUSH1 0x20 DUP4 ADD MLOAD DUP5 DUP3 SUB PUSH1 0x20 DUP7 ADD MSTORE PUSH2 0x5231 DUP3 DUP3 PUSH2 0x4812 JUMP JUMPDEST SWAP2 POP POP PUSH1 0x40 DUP4 ADD MLOAD PUSH2 0x5246 PUSH1 0x40 DUP7 ADD DUP3 PUSH2 0x52A0 JUMP JUMPDEST POP PUSH1 0x60 DUP4 ADD MLOAD PUSH2 0x5259 PUSH1 0x60 DUP7 ADD DUP3 PUSH2 0x52A0 JUMP JUMPDEST POP PUSH1 0x80 DUP4 ADD MLOAD DUP5 DUP3 SUB PUSH1 0x80 DUP7 ADD MSTORE PUSH2 0x5271 DUP3 DUP3 PUSH2 0x4812 JUMP JUMPDEST SWAP2 POP POP PUSH1 0xA0 DUP4 ADD MLOAD PUSH2 0x5286 PUSH1 0xA0 DUP7 ADD DUP3 PUSH2 0x475D JUMP JUMPDEST POP DUP1 SWAP2 POP POP SWAP3 SWAP2 POP POP JUMP JUMPDEST PUSH2 0x529A DUP2 PUSH2 0x5B1F JUMP JUMPDEST DUP3 MSTORE POP POP JUMP JUMPDEST PUSH2 0x52A9 DUP2 PUSH2 0x5B4D JUMP JUMPDEST DUP3 MSTORE POP POP JUMP JUMPDEST PUSH2 0x52B8 DUP2 PUSH2 0x5B4D JUMP JUMPDEST DUP3 MSTORE POP POP JUMP JUMPDEST PUSH2 0x52C7 DUP2 PUSH2 0x5B57 JUMP JUMPDEST DUP3 MSTORE POP POP JUMP JUMPDEST PUSH2 0x52D6 DUP2 PUSH2 0x5B57 JUMP JUMPDEST DUP3 MSTORE POP POP JUMP JUMPDEST PUSH2 0x52E5 DUP2 PUSH2 0x5B67 JUMP JUMPDEST DUP3 MSTORE POP POP JUMP JUMPDEST PUSH2 0x52F4 DUP2 PUSH2 0x5B67 JUMP JUMPDEST DUP3 MSTORE POP POP JUMP JUMPDEST PUSH2 0x5303 DUP2 PUSH2 0x5B7B JUMP JUMPDEST DUP3 MSTORE POP POP JUMP JUMPDEST PUSH1 0x0 PUSH2 0x5315 DUP3 DUP6 PUSH2 0x47D2 JUMP JUMPDEST SWAP2 POP PUSH2 0x5321 DUP3 DUP5 PUSH2 0x47D2 JUMP JUMPDEST SWAP2 POP DUP2 SWAP1 POP SWAP4 SWAP3 POP POP POP JUMP JUMPDEST PUSH1 0x0 PUSH1 0x20 DUP3 ADD SWAP1 POP PUSH2 0x5342 PUSH1 0x0 DUP4 ADD DUP5 PUSH2 0x4562 JUMP JUMPDEST SWAP3 SWAP2 POP POP JUMP JUMPDEST PUSH1 0x0 PUSH1 0x40 DUP3 ADD SWAP1 POP PUSH2 0x535D PUSH1 0x0 DUP4 ADD DUP6 PUSH2 0x4544 JUMP JUMPDEST PUSH2 0x536A PUSH1 0x20 DUP4 ADD DUP5 PUSH2 0x4562 JUMP JUMPDEST SWAP4 SWAP3 POP POP POP JUMP JUMPDEST PUSH1 0x0 PUSH1 0x60 DUP3 ADD SWAP1 POP PUSH2 0x5386 PUSH1 0x0 DUP4 ADD DUP7 PUSH2 0x4544 JUMP JUMPDEST PUSH2 0x5393 PUSH1 0x20 DUP4 ADD DUP6 PUSH2 0x4562 JUMP JUMPDEST PUSH2 0x53A0 PUSH1 0x40 DUP4 ADD DUP5 PUSH2 0x52AF JUMP JUMPDEST SWAP5 SWAP4 POP POP POP POP JUMP JUMPDEST PUSH1 0x0 PUSH1 0x40 DUP3 ADD SWAP1 POP PUSH2 0x53BD PUSH1 0x0 DUP4 ADD DUP6 PUSH2 0x4562 JUMP JUMPDEST PUSH2 0x53CA PUSH1 0x20 DUP4 ADD DUP5 PUSH2 0x52AF JUMP JUMPDEST SWAP4 SWAP3 POP POP POP JUMP JUMPDEST PUSH1 0x0 PUSH1 0x60 DUP3 ADD SWAP1 POP PUSH2 0x53E6 PUSH1 0x0 DUP4 ADD DUP7 PUSH2 0x4562 JUMP JUMPDEST PUSH2 0x53F3 PUSH1 0x20 DUP4 ADD DUP6 PUSH2 0x52EB JUMP JUMPDEST PUSH2 0x5400 PUSH1 0x40 DUP4 ADD DUP5 PUSH2 0x4562 JUMP JUMPDEST SWAP5 SWAP4 POP POP POP POP JUMP JUMPDEST PUSH1 0x0 PUSH1 0x20 DUP3 ADD SWAP1 POP DUP2 DUP2 SUB PUSH1 0x0 DUP4 ADD MSTORE PUSH2 0x5422 DUP2 DUP5 PUSH2 0x462D JUMP JUMPDEST SWAP1 POP SWAP3 SWAP2 POP POP JUMP JUMPDEST PUSH1 0x0 PUSH1 0x20 DUP3 ADD SWAP1 POP DUP2 DUP2 SUB PUSH1 0x0 DUP4 ADD MSTORE PUSH2 0x5444 DUP2 DUP5 PUSH2 0x4700 JUMP JUMPDEST SWAP1 POP SWAP3 SWAP2 POP POP JUMP JUMPDEST PUSH1 0x0 PUSH1 0x40 DUP3 ADD SWAP1 POP DUP2 DUP2 SUB PUSH1 0x0 DUP4 ADD MSTORE PUSH2 0x5466 DUP2 DUP6 PUSH2 0x4700 JUMP JUMPDEST SWAP1 POP PUSH2 0x5475 PUSH1 0x20 DUP4 ADD DUP5 PUSH2 0x476C JUMP JUMPDEST SWAP4 SWAP3 POP POP POP JUMP JUMPDEST PUSH1 0x0 PUSH1 0x20 DUP3 ADD SWAP1 POP PUSH2 0x5491 PUSH1 0x0 DUP4 ADD DUP5 PUSH2 0x476C JUMP JUMPDEST SWAP3 SWAP2 POP POP JUMP JUMPDEST PUSH1 0x0 PUSH1 0x20 DUP3 ADD SWAP1 POP PUSH2 0x54AC PUSH1 0x0 DUP4 ADD DUP5 PUSH2 0x478A JUMP JUMPDEST SWAP3 SWAP2 POP POP JUMP JUMPDEST PUSH1 0x0 PUSH1 0x20 DUP3 ADD SWAP1 POP DUP2 DUP2 SUB PUSH1 0x0 DUP4 ADD MSTORE PUSH2 0x54CC DUP2 DUP5 PUSH2 0x4799 JUMP JUMPDEST SWAP1 POP SWAP3 SWAP2 POP POP JUMP JUMPDEST PUSH1 0x0 PUSH1 0x20 DUP3 ADD SWAP1 POP DUP2 DUP2 SUB PUSH1 0x0 DUP4 ADD MSTORE PUSH2 0x54ED DUP2 PUSH2 0x484B JUMP JUMPDEST SWAP1 POP SWAP2 SWAP1 POP JUMP JUMPDEST PUSH1 0x0 PUSH1 0x20 DUP3 ADD SWAP1 POP DUP2 DUP2 SUB PUSH1 0x0 DUP4 ADD MSTORE PUSH2 0x550D DUP2 PUSH2 0x48B1 JUMP JUMPDEST SWAP1 POP SWAP2 SWAP1 POP JUMP JUMPDEST PUSH1 0x0 PUSH1 0x20 DUP3 ADD SWAP1 POP DUP2 DUP2 SUB PUSH1 0x0 DUP4 ADD MSTORE PUSH2 0x552D DUP2 PUSH2 0x48F1 JUMP JUMPDEST SWAP1 POP SWAP2 SWAP1 POP JUMP JUMPDEST PUSH1 0x0 PUSH1 0x20 DUP3 ADD SWAP1 POP DUP2 DUP2 SUB PUSH1 0x0 DUP4 ADD MSTORE PUSH2 0x554D DUP2 PUSH2 0x4957 JUMP JUMPDEST SWAP1 POP SWAP2 SWAP1 POP JUMP JUMPDEST PUSH1 0x0 PUSH1 0x20 DUP3 ADD SWAP1 POP DUP2 DUP2 SUB PUSH1 0x0 DUP4 ADD MSTORE PUSH2 0x556D DUP2 PUSH2 0x4997 JUMP JUMPDEST SWAP1 POP SWAP2 SWAP1 POP JUMP JUMPDEST PUSH1 0x0 PUSH1 0x20 DUP3 ADD SWAP1 POP DUP2 DUP2 SUB PUSH1 0x0 DUP4 ADD MSTORE PUSH2 0x558D DUP2 PUSH2 0x4A23 JUMP JUMPDEST SWAP1 POP SWAP2 SWAP1 POP JUMP JUMPDEST PUSH1 0x0 PUSH1 0x20 DUP3 ADD SWAP1 POP DUP2 DUP2 SUB PUSH1 0x0 DUP4 ADD MSTORE PUSH2 0x55AD DUP2 PUSH2 0x4A89 JUMP JUMPDEST SWAP1 POP SWAP2 SWAP1 POP JUMP JUMPDEST PUSH1 0x0 PUSH1 0x20 DUP3 ADD SWAP1 POP DUP2 DUP2 SUB PUSH1 0x0 DUP4 ADD MSTORE PUSH2 0x55CD DUP2 PUSH2 0x4AEF JUMP JUMPDEST SWAP1 POP SWAP2 SWAP1 POP JUMP JUMPDEST PUSH1 0x0 PUSH1 0x20 DUP3 ADD SWAP1 POP DUP2 DUP2 SUB PUSH1 0x0 DUP4 ADD MSTORE PUSH2 0x55ED DUP2 PUSH2 0x4B7B JUMP JUMPDEST SWAP1 POP SWAP2 SWAP1 POP JUMP JUMPDEST PUSH1 0x0 PUSH1 0x20 DUP3 ADD SWAP1 POP DUP2 DUP2 SUB PUSH1 0x0 DUP4 ADD MSTORE PUSH2 0x560E DUP2 DUP5 PUSH2 0x4BE1 JUMP JUMPDEST SWAP1 POP SWAP3 SWAP2 POP POP JUMP JUMPDEST PUSH1 0x0 PUSH1 0x20 DUP3 ADD SWAP1 POP DUP2 DUP2 SUB PUSH1 0x0 DUP4 ADD MSTORE PUSH2 0x5630 DUP2 DUP5 PUSH2 0x4E1E JUMP JUMPDEST SWAP1 POP SWAP3 SWAP2 POP POP JUMP JUMPDEST PUSH1 0x0 PUSH1 0x20 DUP3 ADD SWAP1 POP DUP2 DUP2 SUB PUSH1 0x0 DUP4 ADD MSTORE PUSH2 0x5652 DUP2 DUP5 PUSH2 0x50A2 JUMP JUMPDEST SWAP1 POP SWAP3 SWAP2 POP POP JUMP JUMPDEST PUSH1 0x0 PUSH1 0x20 DUP3 ADD SWAP1 POP DUP2 DUP2 SUB PUSH1 0x0 DUP4 ADD MSTORE PUSH2 0x5674 DUP2 DUP5 PUSH2 0x5201 JUMP JUMPDEST SWAP1 POP SWAP3 SWAP2 POP POP JUMP JUMPDEST PUSH1 0x0 PUSH1 0x20 DUP3 ADD SWAP1 POP PUSH2 0x5691 PUSH1 0x0 DUP4 ADD DUP5 PUSH2 0x52AF JUMP JUMPDEST SWAP3 SWAP2 POP POP JUMP JUMPDEST PUSH1 0x0 PUSH1 0x40 DUP3 ADD SWAP1 POP PUSH2 0x56AC PUSH1 0x0 DUP4 ADD DUP6 PUSH2 0x52AF JUMP JUMPDEST PUSH2 0x56B9 PUSH1 0x20 DUP4 ADD DUP5 PUSH2 0x476C JUMP JUMPDEST SWAP4 SWAP3 POP POP POP JUMP JUMPDEST PUSH1 0x0 PUSH1 0x40 DUP3 ADD SWAP1 POP PUSH2 0x56D5 PUSH1 0x0 DUP4 ADD DUP6 PUSH2 0x52AF JUMP JUMPDEST PUSH2 0x56E2 PUSH1 0x20 DUP4 ADD DUP5 PUSH2 0x478A JUMP JUMPDEST SWAP4 SWAP3 POP POP POP JUMP JUMPDEST PUSH1 0x0 PUSH2 0x140 DUP3 ADD SWAP1 POP PUSH2 0x56FF PUSH1 0x0 DUP4 ADD DUP12 PUSH2 0x52CD JUMP JUMPDEST PUSH2 0x570C PUSH1 0x20 DUP4 ADD DUP11 PUSH2 0x4D4C JUMP JUMPDEST PUSH2 0x5719 PUSH1 0x60 DUP4 ADD DUP10 PUSH2 0x52CD JUMP JUMPDEST PUSH2 0x5726 PUSH1 0x80 DUP4 ADD DUP9 PUSH2 0x4562 JUMP JUMPDEST PUSH2 0x5733 PUSH1 0xA0 DUP4 ADD DUP8 PUSH2 0x52AF JUMP JUMPDEST PUSH2 0x5740 PUSH1 0xC0 DUP4 ADD DUP7 PUSH2 0x5033 JUMP JUMPDEST PUSH2 0x574E PUSH2 0x100 DUP4 ADD DUP6 PUSH2 0x4562 JUMP JUMPDEST PUSH2 0x575C PUSH2 0x120 DUP4 ADD DUP5 PUSH2 0x4562 JUMP JUMPDEST SWAP10 SWAP9 POP POP POP POP POP POP POP POP POP JUMP JUMPDEST PUSH1 0x0 PUSH1 0x20 DUP3 ADD SWAP1 POP PUSH2 0x577E PUSH1 0x0 DUP4 ADD DUP5 PUSH2 0x52EB JUMP JUMPDEST SWAP3 SWAP2 POP POP JUMP JUMPDEST PUSH1 0x0 PUSH1 0x40 MLOAD SWAP1 POP DUP2 DUP2 ADD DUP2 DUP2 LT PUSH8 0xFFFFFFFFFFFFFFFF DUP3 GT OR ISZERO PUSH2 0x57AB JUMPI PUSH2 0x57AA PUSH2 0x5CB6 JUMP JUMPDEST JUMPDEST DUP1 PUSH1 0x40 MSTORE POP SWAP2 SWAP1 POP JUMP JUMPDEST PUSH1 0x0 PUSH8 0xFFFFFFFFFFFFFFFF DUP3 GT ISZERO PUSH2 0x57D0 JUMPI PUSH2 0x57CF PUSH2 0x5CB6 JUMP JUMPDEST JUMPDEST PUSH1 0x20 DUP3 MUL SWAP1 POP PUSH1 0x20 DUP2 ADD SWAP1 POP SWAP2 SWAP1 POP JUMP JUMPDEST PUSH1 0x0 PUSH8 0xFFFFFFFFFFFFFFFF DUP3 GT ISZERO PUSH2 0x57FC JUMPI PUSH2 0x57FB PUSH2 0x5CB6 JUMP JUMPDEST JUMPDEST PUSH1 0x20 DUP3 MUL SWAP1 POP PUSH1 0x20 DUP2 ADD SWAP1 POP SWAP2 SWAP1 POP JUMP JUMPDEST PUSH1 0x0 PUSH8 0xFFFFFFFFFFFFFFFF DUP3 GT ISZERO PUSH2 0x5828 JUMPI PUSH2 0x5827 PUSH2 0x5CB6 JUMP JUMPDEST JUMPDEST PUSH1 0x20 DUP3 MUL SWAP1 POP PUSH1 0x20 DUP2 ADD SWAP1 POP SWAP2 SWAP1 POP JUMP JUMPDEST PUSH1 0x0 PUSH8 0xFFFFFFFFFFFFFFFF DUP3 GT ISZERO PUSH2 0x5854 JUMPI PUSH2 0x5853 PUSH2 0x5CB6 JUMP JUMPDEST JUMPDEST PUSH1 0x20 DUP3 MUL SWAP1 POP PUSH1 0x20 DUP2 ADD SWAP1 POP SWAP2 SWAP1 POP JUMP JUMPDEST PUSH1 0x0 PUSH8 0xFFFFFFFFFFFFFFFF DUP3 GT ISZERO PUSH2 0x5880 JUMPI PUSH2 0x587F PUSH2 0x5CB6 JUMP JUMPDEST JUMPDEST PUSH1 0x20 DUP3 MUL SWAP1 POP PUSH1 0x20 DUP2 ADD SWAP1 POP SWAP2 SWAP1 POP JUMP JUMPDEST PUSH1 0x0 PUSH8 0xFFFFFFFFFFFFFFFF DUP3 GT ISZERO PUSH2 0x58AC JUMPI PUSH2 0x58AB PUSH2 0x5CB6 JUMP JUMPDEST JUMPDEST PUSH1 0x20 DUP3 MUL SWAP1 POP PUSH1 0x20 DUP2 ADD SWAP1 POP SWAP2 SWAP1 POP JUMP JUMPDEST PUSH1 0x0 PUSH8 0xFFFFFFFFFFFFFFFF DUP3 GT ISZERO PUSH2 0x58D8 JUMPI PUSH2 0x58D7 PUSH2 0x5CB6 JUMP JUMPDEST JUMPDEST PUSH1 0x20 DUP3 MUL SWAP1 POP PUSH1 0x20 DUP2 ADD SWAP1 POP SWAP2 SWAP1 POP JUMP JUMPDEST PUSH1 0x0 PUSH8 0xFFFFFFFFFFFFFFFF DUP3 GT ISZERO PUSH2 0x5904 JUMPI PUSH2 0x5903 PUSH2 0x5CB6 JUMP JUMPDEST JUMPDEST PUSH1 0x1F NOT PUSH1 0x1F DUP4 ADD AND SWAP1 POP PUSH1 0x20 DUP2 ADD SWAP1 POP SWAP2 SWAP1 POP JUMP JUMPDEST PUSH1 0x0 DUP2 SWAP1 POP PUSH1 0x20 DUP3 ADD SWAP1 POP SWAP2 SWAP1 POP JUMP JUMPDEST PUSH1 0x0 DUP2 SWAP1 POP PUSH1 0x20 DUP3 ADD SWAP1 POP SWAP2 SWAP1 POP JUMP JUMPDEST PUSH1 0x0 DUP2 SWAP1 POP PUSH1 0x20 DUP3 ADD SWAP1 POP SWAP2 SWAP1 POP JUMP JUMPDEST PUSH1 0x0 DUP2 SWAP1 POP PUSH1 0x20 DUP3 ADD SWAP1 POP SWAP2 SWAP1 POP JUMP JUMPDEST PUSH1 0x0 DUP2 SWAP1 POP DUP2 PUSH1 0x0 MSTORE PUSH1 0x20 PUSH1 0x0 KECCAK256 SWAP1 POP SWAP2 SWAP1 POP JUMP JUMPDEST PUSH1 0x0 DUP2 MLOAD SWAP1 POP SWAP2 SWAP1 POP JUMP JUMPDEST PUSH1 0x0 DUP2 MLOAD SWAP1 POP SWAP2 SWAP1 POP JUMP JUMPDEST PUSH1 0x0 DUP2 MLOAD SWAP1 POP SWAP2 SWAP1 POP JUMP JUMPDEST PUSH1 0x0 DUP2 MLOAD SWAP1 POP SWAP2 SWAP1 POP JUMP JUMPDEST PUSH1 0x0 DUP2 SLOAD SWAP1 POP SWAP2 SWAP1 POP JUMP JUMPDEST PUSH1 0x0 DUP2 MLOAD SWAP1 POP SWAP2 SWAP1 POP JUMP JUMPDEST PUSH1 0x0 DUP2 MLOAD SWAP1 POP SWAP2 SWAP1 POP JUMP JUMPDEST PUSH1 0x0 PUSH1 0x20 DUP3 ADD SWAP1 POP SWAP2 SWAP1 POP JUMP JUMPDEST PUSH1 0x0 PUSH1 0x20 DUP3 ADD SWAP1 POP SWAP2 SWAP1 POP JUMP JUMPDEST PUSH1 0x0 PUSH1 0x20 DUP3 ADD SWAP1 POP SWAP2 SWAP1 POP JUMP JUMPDEST PUSH1 0x0 PUSH1 0x20 DUP3 ADD SWAP1 POP SWAP2 SWAP1 POP JUMP JUMPDEST PUSH1 0x0 PUSH1 0x7 DUP3 ADD SWAP1 POP SWAP2 SWAP1 POP JUMP JUMPDEST PUSH1 0x0 DUP3 DUP3 MSTORE PUSH1 0x20 DUP3 ADD SWAP1 POP SWAP3 SWAP2 POP POP JUMP JUMPDEST PUSH1 0x0 DUP3 DUP3 MSTORE PUSH1 0x20 DUP3 ADD SWAP1 POP SWAP3 SWAP2 POP POP JUMP JUMPDEST PUSH1 0x0 DUP3 DUP3 MSTORE PUSH1 0x20 DUP3 ADD SWAP1 POP SWAP3 SWAP2 POP POP JUMP JUMPDEST PUSH1 0x0 DUP3 DUP3 MSTORE PUSH1 0x20 DUP3 ADD SWAP1 POP SWAP3 SWAP2 POP POP JUMP JUMPDEST PUSH1 0x0 DUP3 DUP3 MSTORE PUSH1 0x20 DUP3 ADD SWAP1 POP SWAP3 SWAP2 POP POP JUMP JUMPDEST PUSH1 0x0 DUP3 DUP3 MSTORE PUSH1 0x20 DUP3 ADD SWAP1 POP SWAP3 SWAP2 POP POP JUMP JUMPDEST PUSH1 0x0 DUP2 SWAP1 POP SWAP3 SWAP2 POP POP JUMP JUMPDEST PUSH1 0x0 DUP3 DUP3 MSTORE PUSH1 0x20 DUP3 ADD SWAP1 POP SWAP3 SWAP2 POP POP JUMP JUMPDEST PUSH1 0x0 DUP3 DUP3 MSTORE PUSH1 0x20 DUP3 ADD SWAP1 POP SWAP3 SWAP2 POP POP JUMP JUMPDEST PUSH1 0x0 PUSH20 0xFFFFFFFFFFFFFFFFFFFFFFFFFFFFFFFFFFFFFFFF DUP3 AND SWAP1 POP SWAP2 SWAP1 POP JUMP JUMPDEST PUSH1 0x0 DUP2 SWAP1 POP SWAP2 SWAP1 POP JUMP JUMPDEST PUSH1 0x0 PUSH4 0xFFFFFFFF DUP3 AND SWAP1 POP SWAP2 SWAP1 POP JUMP JUMPDEST PUSH1 0x0 PUSH8 0xFFFFFFFFFFFFFFFF DUP3 AND SWAP1 POP SWAP2 SWAP1 POP JUMP JUMPDEST PUSH1 0x0 PUSH1 0xFF DUP3 AND SWAP1 POP SWAP2 SWAP1 POP JUMP JUMPDEST PUSH1 0x0 PUSH2 0x5AF5 DUP3 PUSH2 0x5B2D JUMP JUMPDEST SWAP1 POP SWAP2 SWAP1 POP JUMP JUMPDEST PUSH1 0x0 DUP2 ISZERO ISZERO SWAP1 POP SWAP2 SWAP1 POP JUMP JUMPDEST PUSH1 0x0 DUP2 SWAP1 POP SWAP2 SWAP1 POP JUMP JUMPDEST PUSH1 0x0 DUP2 PUSH1 0x3 SIGNEXTEND SWAP1 POP SWAP2 SWAP1 POP JUMP JUMPDEST PUSH1 0x0 PUSH2 0xFFFF DUP3 AND SWAP1 POP SWAP2 SWAP1 POP JUMP JUMPDEST PUSH1 0x0 PUSH20 0xFFFFFFFFFFFFFFFFFFFFFFFFFFFFFFFFFFFFFFFF DUP3 AND SWAP1 POP SWAP2 SWAP1 POP JUMP JUMPDEST PUSH1 0x0 DUP2 SWAP1 POP SWAP2 SWAP1 POP JUMP JUMPDEST PUSH1 0x0 PUSH4 0xFFFFFFFF DUP3 AND SWAP1 POP SWAP2 SWAP1 POP JUMP JUMPDEST PUSH1 0x0 PUSH8 0xFFFFFFFFFFFFFFFF DUP3 AND SWAP1 POP SWAP2 SWAP1 POP JUMP JUMPDEST PUSH1 0x0 PUSH1 0xFF DUP3 AND SWAP1 POP SWAP2 SWAP1 POP JUMP JUMPDEST PUSH1 0x0 PUSH2 0x5B93 DUP3 PUSH2 0x5B9A JUMP JUMPDEST SWAP1 POP SWAP2 SWAP1 POP JUMP JUMPDEST PUSH1 0x0 PUSH2 0x5BA5 DUP3 PUSH2 0x5BAC JUMP JUMPDEST SWAP1 POP SWAP2 SWAP1 POP JUMP JUMPDEST PUSH1 0x0 PUSH2 0x5BB7 DUP3 PUSH2 0x5B2D JUMP JUMPDEST SWAP1 POP SWAP2 SWAP1 POP JUMP JUMPDEST DUP3 DUP2 DUP4 CALLDATACOPY PUSH1 0x0 DUP4 DUP4 ADD MSTORE POP POP POP JUMP JUMPDEST PUSH1 0x0 JUMPDEST DUP4 DUP2 LT ISZERO PUSH2 0x5BEB JUMPI DUP1 DUP3 ADD MLOAD DUP2 DUP5 ADD MSTORE PUSH1 0x20 DUP2 ADD SWAP1 POP PUSH2 0x5BD0 JUMP JUMPDEST DUP4 DUP2 GT ISZERO PUSH2 0x5BFA JUMPI PUSH1 0x0 DUP5 DUP5 ADD MSTORE JUMPDEST POP POP POP POP JUMP JUMPDEST PUSH1 0x0 PUSH2 0x5C13 PUSH2 0x5C0E DUP4 PUSH2 0x5CC9 JUMP JUMPDEST PUSH2 0x5A8F JUMP JUMPDEST SWAP1 POP SWAP2 SWAP1 POP JUMP JUMPDEST PUSH1 0x0 PUSH2 0x5C2D PUSH2 0x5C28 DUP4 PUSH2 0x5CC9 JUMP JUMPDEST PUSH2 0x5AAF JUMP JUMPDEST SWAP1 POP SWAP2 SWAP1 POP JUMP JUMPDEST PUSH1 0x0 PUSH2 0x5C47 PUSH2 0x5C42 DUP4 PUSH2 0x5CC9 JUMP JUMPDEST PUSH2 0x5AB9 JUMP JUMPDEST SWAP1 POP SWAP2 SWAP1 POP JUMP JUMPDEST PUSH1 0x0 PUSH2 0x5C61 PUSH2 0x5C5C DUP4 PUSH2 0x5CC9 JUMP JUMPDEST PUSH2 0x5ADD JUMP JUMPDEST SWAP1 POP SWAP2 SWAP1 POP JUMP JUMPDEST PUSH1 0x0 PUSH2 0x5C7B PUSH2 0x5C76 DUP4 PUSH2 0x5CF0 JUMP JUMPDEST PUSH2 0x5A8F JUMP JUMPDEST SWAP1 POP SWAP2 SWAP1 POP JUMP JUMPDEST PUSH1 0x0 PUSH2 0x5C95 PUSH2 0x5C90 DUP4 PUSH2 0x5CD6 JUMP JUMPDEST PUSH2 0x5AC9 JUMP JUMPDEST SWAP1 POP SWAP2 SWAP1 POP JUMP JUMPDEST PUSH1 0x0 PUSH2 0x5CAF PUSH2 0x5CAA DUP4 PUSH2 0x5CE3 JUMP JUMPDEST PUSH2 0x5A8F JUMP JUMPDEST SWAP1 POP SWAP2 SWAP1 POP JUMP JUMPDEST INVALID JUMPDEST PUSH1 0x0 PUSH1 0x1F NOT PUSH1 0x1F DUP4 ADD AND SWAP1 POP SWAP2 SWAP1 POP JUMP JUMPDEST PUSH1 0x0 DUP2 PUSH1 0x0 SHR SWAP1 POP SWAP2 SWAP1 POP JUMP JUMPDEST PUSH1 0x0 DUP2 PUSH1 0xA0 SHR SWAP1 POP SWAP2 SWAP1 POP JUMP JUMPDEST PUSH1 0x0 DUP2 PUSH1 0x20 SHR SWAP1 POP SWAP2 SWAP1 POP JUMP JUMPDEST PUSH1 0x0 DUP2 PUSH1 0x8 SHR SWAP1 POP SWAP2 SWAP1 POP JUMP JUMPDEST PUSH2 0x5D06 DUP2 PUSH2 0x5AEA JUMP JUMPDEST DUP2 EQ PUSH2 0x5D11 JUMPI PUSH1 0x0 DUP1 REVERT JUMPDEST POP JUMP JUMPDEST PUSH2 0x5D1D DUP2 PUSH2 0x5AFC JUMP JUMPDEST DUP2 EQ PUSH2 0x5D28 JUMPI PUSH1 0x0 DUP1 REVERT JUMPDEST POP JUMP JUMPDEST PUSH2 0x5D34 DUP2 PUSH2 0x5B08 JUMP JUMPDEST DUP2 EQ PUSH2 0x5D3F JUMPI PUSH1 0x0 DUP1 REVERT JUMPDEST POP JUMP JUMPDEST PUSH2 0x5D4B DUP2 PUSH2 0x5B12 JUMP JUMPDEST DUP2 EQ PUSH2 0x5D56 JUMPI PUSH1 0x0 DUP1 REVERT JUMPDEST POP JUMP JUMPDEST PUSH2 0x5D62 DUP2 PUSH2 0x5B1F JUMP JUMPDEST DUP2 EQ PUSH2 0x5D6D JUMPI PUSH1 0x0 DUP1 REVERT JUMPDEST POP JUMP JUMPDEST PUSH2 0x5D79 DUP2 PUSH2 0x5B4D JUMP JUMPDEST DUP2 EQ PUSH2 0x5D84 JUMPI PUSH1 0x0 DUP1 REVERT JUMPDEST POP JUMP JUMPDEST PUSH2 0x5D90 DUP2 PUSH2 0x5B57 JUMP JUMPDEST DUP2 EQ PUSH2 0x5D9B JUMPI PUSH1 0x0 DUP1 REVERT JUMPDEST POP JUMP JUMPDEST PUSH2 0x5DA7 DUP2 PUSH2 0x5B67 JUMP JUMPDEST DUP2 EQ PUSH2 0x5DB2 JUMPI PUSH1 0x0 DUP1 REVERT JUMPDEST POP JUMP JUMPDEST PUSH2 0x5DBE DUP2 PUSH2 0x5B7B JUMP JUMPDEST DUP2 EQ PUSH2 0x5DC9 JUMPI PUSH1 0x0 DUP1 REVERT JUMPDEST POP JUMP INVALID LOG2 PUSH5 0x6970667358 0x22 SLT KECCAK256 0xD3 0xB6 0xC9 ADDMOD SLT COINBASE STOP 0xDA PUSH7 0x34F2E26B2A06CA PUSH16 0xFC5F9D17184B21CA06BE78FBDA9B6B64 PUSH20 0x6F6C634300070600330000000000000000000000 "
		},
		"gasEstimates": {
			"creation": {
				"codeDepositCost": "4813200",
				"executionCost": "infinite",
				"totalCost": "infinite"
			},
			"external": {
				"SerializedCCEs(uint256)": "infinite",
				"SerializedCRTs(uint256)": "infinite",
				"_readyExports(uint256,uint256)": "infinite",
				"claimFees()": "infinite",
				"claimableFees(address)": "1603",
				"convertToVerusNumber(uint256)": "691",
				"deprecated()": "1245",
				"ethHeld()": "1240",
				"exportERC20(uint64,address,address,uint8,address,uint256,address,address)": "infinite",
				"exportETH(address,uint8,address,uint256,address)": "infinite",
				"feesHeld()": "1218",
				"firstBlock()": "1219",
				"getReadyExportsByBlock(uint256)": "infinite",
				"getReadyExportsByRange(uint256,uint256)": "infinite",
				"getcurrency(address)": "infinite",
				"getinfo()": "infinite",
				"hashedCRTs(uint256)": "2415",
				"lastimport()": "2122",
				"poolSize()": "1152",
				"readyExportHashes(uint256)": "2370",
				"readyExportsByBlock(uint256)": "infinite",
				"submitImports((uint256,bytes32,uint256,(uint16,uint16,address,uint32,uint32,address,address,uint32,(address,uint64)[],(address,uint64)[],bytes32,(address,uint64)[],(uint8,address),int32),(uint8,uint8,(uint8,(uint8,uint32,uint32,bytes32[]))[],(uint8,uint8,bytes,(uint8,(uint8,uint32,uint32,bytes32[]))[],uint32)[]),(uint32,(address,uint64),uint32,address,uint256,(uint8,address),address,address)[])[])": "infinite",
				"upgradedAddress()": "1326"
			},
			"internal": {
				"_createExports(uint64,address,address,uint8,address,uint256,address,address)": "infinite",
				"_createImports(struct VerusObjects.CReserveTransferImport memory)": "infinite",
				"isPoolAvailable(uint256,address)": "infinite",
				"sendEth(uint256,address payable)": "infinite"
			}
		},
		"methodIdentifiers": {
			"SerializedCCEs(uint256)": "3ee2ce85",
			"SerializedCRTs(uint256)": "d83aa63c",
			"_readyExports(uint256,uint256)": "7e3e661b",
			"claimFees()": "d294f093",
			"claimableFees(address)": "7e0b2492",
			"convertToVerusNumber(uint256)": "388eee6c",
			"deprecated()": "0e136b19",
			"ethHeld()": "42ce5011",
			"exportERC20(uint64,address,address,uint8,address,uint256,address,address)": "12d9f8e0",
			"exportETH(address,uint8,address,uint256,address)": "f9023e0a",
			"feesHeld()": "3f067b20",
			"firstBlock()": "231b0268",
			"getReadyExportsByBlock(uint256)": "2a9e72a6",
			"getReadyExportsByRange(uint256,uint256)": "e4804abc",
			"getcurrency(address)": "a01c6f4e",
			"getinfo()": "1a2d8629",
			"hashedCRTs(uint256)": "44e5ffd3",
			"lastimport()": "5f2edcbe",
			"poolSize()": "4ec18db9",
			"readyExportHashes(uint256)": "e45b909d",
			"readyExportsByBlock(uint256)": "c17a4eef",
			"submitImports((uint256,bytes32,uint256,(uint16,uint16,address,uint32,uint32,address,address,uint32,(address,uint64)[],(address,uint64)[],bytes32,(address,uint64)[],(uint8,address),int32),(uint8,uint8,(uint8,(uint8,uint32,uint32,bytes32[]))[],(uint8,uint8,bytes,(uint8,(uint8,uint32,uint32,bytes32[]))[],uint32)[]),(uint32,(address,uint64),uint32,address,uint256,(uint8,address),address,address)[])[])": "4fcf4e2a",
			"upgradedAddress()": "26976e3f"
		}
	},
	"abi": [
		{
			"inputs": [
				{
					"internalType": "address",
					"name": "verusProofAddress",
					"type": "address"
				},
				{
					"internalType": "address",
					"name": "tokenManagerAddress",
					"type": "address"
				},
				{
					"internalType": "address",
					"name": "verusSerializerAddress",
					"type": "address"
				},
				{
					"internalType": "address",
					"name": "verusBLAKE2bAddress",
					"type": "address"
				},
				{
					"internalType": "address",
					"name": "verusNotarizerAddress",
					"type": "address"
				},
				{
					"internalType": "address",
					"name": "verusCCEAddress",
					"type": "address"
				},
				{
					"internalType": "uint256",
					"name": "chainVersion",
					"type": "uint256"
				},
				{
					"internalType": "string",
					"name": "chainVerusVersion",
					"type": "string"
				},
				{
					"internalType": "string",
					"name": "chainName",
					"type": "string"
				},
				{
					"internalType": "bool",
					"name": "chainTestnet",
					"type": "bool"
				},
				{
					"internalType": "uint256",
					"name": "_poolSize",
					"type": "uint256"
				}
			],
			"stateMutability": "nonpayable",
			"type": "constructor"
		},
		{
			"anonymous": false,
			"inputs": [
				{
					"indexed": false,
					"internalType": "address",
					"name": "newAddress",
					"type": "address"
				}
			],
			"name": "Deprecate",
			"type": "event"
		},
		{
			"inputs": [
				{
					"internalType": "uint256",
					"name": "",
					"type": "uint256"
				}
			],
			"name": "SerializedCCEs",
			"outputs": [
				{
					"internalType": "bytes",
					"name": "",
					"type": "bytes"
				}
			],
			"stateMutability": "view",
			"type": "function"
		},
		{
			"inputs": [
				{
					"internalType": "uint256",
					"name": "",
					"type": "uint256"
				}
			],
			"name": "SerializedCRTs",
			"outputs": [
				{
					"internalType": "bytes",
					"name": "",
					"type": "bytes"
				}
			],
			"stateMutability": "view",
			"type": "function"
		},
		{
			"inputs": [
				{
					"internalType": "uint256",
					"name": "",
					"type": "uint256"
				},
				{
					"internalType": "uint256",
					"name": "",
					"type": "uint256"
				}
			],
			"name": "_readyExports",
			"outputs": [
				{
					"internalType": "uint32",
					"name": "version",
					"type": "uint32"
				},
				{
					"components": [
						{
							"internalType": "address",
							"name": "currency",
							"type": "address"
						},
						{
							"internalType": "uint64",
							"name": "amount",
							"type": "uint64"
						}
					],
					"internalType": "struct VerusObjects.CCurrencyValueMap",
					"name": "currencyvalue",
					"type": "tuple"
				},
				{
					"internalType": "uint32",
					"name": "flags",
					"type": "uint32"
				},
				{
					"internalType": "address",
					"name": "feecurrencyid",
					"type": "address"
				},
				{
					"internalType": "uint256",
					"name": "fees",
					"type": "uint256"
				},
				{
					"components": [
						{
							"internalType": "uint8",
							"name": "destinationtype",
							"type": "uint8"
						},
						{
							"internalType": "address",
							"name": "destinationaddress",
							"type": "address"
						}
					],
					"internalType": "struct VerusObjectsCommon.CTransferDestination",
					"name": "destination",
					"type": "tuple"
				},
				{
					"internalType": "address",
					"name": "destcurrencyid",
					"type": "address"
				},
				{
					"internalType": "address",
					"name": "destsystemid",
					"type": "address"
				}
			],
			"stateMutability": "view",
			"type": "function"
		},
		{
			"inputs": [],
			"name": "claimFees",
			"outputs": [
				{
					"internalType": "uint256",
					"name": "",
					"type": "uint256"
				}
			],
			"stateMutability": "nonpayable",
			"type": "function"
		},
		{
			"inputs": [
				{
					"internalType": "address",
					"name": "",
					"type": "address"
				}
			],
			"name": "claimableFees",
			"outputs": [
				{
					"internalType": "uint256",
					"name": "",
					"type": "uint256"
				}
			],
			"stateMutability": "view",
			"type": "function"
		},
		{
			"inputs": [
				{
					"internalType": "uint256",
					"name": "a",
					"type": "uint256"
				}
			],
			"name": "convertToVerusNumber",
			"outputs": [
				{
					"internalType": "uint64",
					"name": "",
					"type": "uint64"
				}
			],
			"stateMutability": "pure",
			"type": "function"
		},
		{
			"inputs": [],
			"name": "deprecated",
			"outputs": [
				{
					"internalType": "bool",
					"name": "",
					"type": "bool"
				}
			],
			"stateMutability": "view",
			"type": "function"
		},
		{
			"inputs": [],
			"name": "ethHeld",
			"outputs": [
				{
					"internalType": "uint256",
					"name": "",
					"type": "uint256"
				}
			],
			"stateMutability": "view",
			"type": "function"
		},
		{
			"inputs": [
				{
					"internalType": "uint64",
					"name": "_amount",
					"type": "uint64"
				},
				{
					"internalType": "address",
					"name": "_tokenAddress",
					"type": "address"
				},
				{
					"internalType": "address",
					"name": "_destination",
					"type": "address"
				},
				{
					"internalType": "uint8",
					"name": "_destinationType",
					"type": "uint8"
				},
				{
					"internalType": "address",
					"name": "_destCurrencyID",
					"type": "address"
				},
				{
					"internalType": "uint256",
					"name": "_nFees",
					"type": "uint256"
				},
				{
					"internalType": "address",
					"name": "_feeCurrencyID",
					"type": "address"
				},
				{
					"internalType": "address",
					"name": "_destSystemID",
					"type": "address"
				}
			],
			"name": "exportERC20",
			"outputs": [],
			"stateMutability": "payable",
			"type": "function"
		},
		{
			"inputs": [
				{
					"internalType": "address",
					"name": "_destination",
					"type": "address"
				},
				{
					"internalType": "uint8",
					"name": "_destinationType",
					"type": "uint8"
				},
				{
					"internalType": "address",
					"name": "_feeCurrencyID",
					"type": "address"
				},
				{
					"internalType": "uint256",
					"name": "_nFees",
					"type": "uint256"
				},
				{
					"internalType": "address",
					"name": "_destSystemID",
					"type": "address"
				}
			],
			"name": "exportETH",
			"outputs": [
				{
					"internalType": "uint256",
					"name": "",
					"type": "uint256"
				}
			],
			"stateMutability": "payable",
			"type": "function"
		},
		{
			"inputs": [],
			"name": "feesHeld",
			"outputs": [
				{
					"internalType": "uint256",
					"name": "",
					"type": "uint256"
				}
			],
			"stateMutability": "view",
			"type": "function"
		},
		{
			"inputs": [],
			"name": "firstBlock",
			"outputs": [
				{
					"internalType": "uint256",
					"name": "",
					"type": "uint256"
				}
			],
			"stateMutability": "view",
			"type": "function"
		},
		{
			"inputs": [
				{
					"internalType": "uint256",
					"name": "_blockNumber",
					"type": "uint256"
				}
			],
			"name": "getReadyExportsByBlock",
			"outputs": [
				{
					"components": [
						{
							"internalType": "uint256",
							"name": "position",
							"type": "uint256"
						},
						{
							"internalType": "uint256",
							"name": "blockHeight",
							"type": "uint256"
						},
						{
							"internalType": "bytes32",
							"name": "exportHash",
							"type": "bytes32"
						},
						{
							"components": [
								{
									"internalType": "uint32",
									"name": "version",
									"type": "uint32"
								},
								{
									"components": [
										{
											"internalType": "address",
											"name": "currency",
											"type": "address"
										},
										{
											"internalType": "uint64",
											"name": "amount",
											"type": "uint64"
										}
									],
									"internalType": "struct VerusObjects.CCurrencyValueMap",
									"name": "currencyvalue",
									"type": "tuple"
								},
								{
									"internalType": "uint32",
									"name": "flags",
									"type": "uint32"
								},
								{
									"internalType": "address",
									"name": "feecurrencyid",
									"type": "address"
								},
								{
									"internalType": "uint256",
									"name": "fees",
									"type": "uint256"
								},
								{
									"components": [
										{
											"internalType": "uint8",
											"name": "destinationtype",
											"type": "uint8"
										},
										{
											"internalType": "address",
											"name": "destinationaddress",
											"type": "address"
										}
									],
									"internalType": "struct VerusObjectsCommon.CTransferDestination",
									"name": "destination",
									"type": "tuple"
								},
								{
									"internalType": "address",
									"name": "destcurrencyid",
									"type": "address"
								},
								{
									"internalType": "address",
									"name": "destsystemid",
									"type": "address"
								}
							],
							"internalType": "struct VerusObjects.CReserveTransfer[]",
							"name": "transfers",
							"type": "tuple[]"
						}
					],
					"internalType": "struct VerusObjects.CReserveTransferSet",
					"name": "",
					"type": "tuple"
				}
			],
			"stateMutability": "view",
			"type": "function"
		},
		{
			"inputs": [
				{
					"internalType": "uint256",
					"name": "_startBlock",
					"type": "uint256"
				},
				{
					"internalType": "uint256",
					"name": "_endBlock",
					"type": "uint256"
				}
			],
			"name": "getReadyExportsByRange",
			"outputs": [
				{
					"components": [
						{
							"internalType": "uint256",
							"name": "position",
							"type": "uint256"
						},
						{
							"internalType": "uint256",
							"name": "blockHeight",
							"type": "uint256"
						},
						{
							"internalType": "bytes32",
							"name": "exportHash",
							"type": "bytes32"
						},
						{
							"components": [
								{
									"internalType": "uint32",
									"name": "version",
									"type": "uint32"
								},
								{
									"components": [
										{
											"internalType": "address",
											"name": "currency",
											"type": "address"
										},
										{
											"internalType": "uint64",
											"name": "amount",
											"type": "uint64"
										}
									],
									"internalType": "struct VerusObjects.CCurrencyValueMap",
									"name": "currencyvalue",
									"type": "tuple"
								},
								{
									"internalType": "uint32",
									"name": "flags",
									"type": "uint32"
								},
								{
									"internalType": "address",
									"name": "feecurrencyid",
									"type": "address"
								},
								{
									"internalType": "uint256",
									"name": "fees",
									"type": "uint256"
								},
								{
									"components": [
										{
											"internalType": "uint8",
											"name": "destinationtype",
											"type": "uint8"
										},
										{
											"internalType": "address",
											"name": "destinationaddress",
											"type": "address"
										}
									],
									"internalType": "struct VerusObjectsCommon.CTransferDestination",
									"name": "destination",
									"type": "tuple"
								},
								{
									"internalType": "address",
									"name": "destcurrencyid",
									"type": "address"
								},
								{
									"internalType": "address",
									"name": "destsystemid",
									"type": "address"
								}
							],
							"internalType": "struct VerusObjects.CReserveTransfer[]",
							"name": "transfers",
							"type": "tuple[]"
						}
					],
					"internalType": "struct VerusObjects.CReserveTransferSet[]",
					"name": "",
					"type": "tuple[]"
				}
			],
			"stateMutability": "view",
			"type": "function"
		},
		{
			"inputs": [
				{
					"internalType": "address",
					"name": "_currencyid",
					"type": "address"
				}
			],
			"name": "getcurrency",
			"outputs": [
				{
					"components": [
						{
							"internalType": "uint256",
							"name": "version",
							"type": "uint256"
						},
						{
							"internalType": "string",
							"name": "name",
							"type": "string"
						},
						{
							"internalType": "address",
							"name": "currencyid",
							"type": "address"
						},
						{
							"internalType": "address",
							"name": "parent",
							"type": "address"
						},
						{
							"internalType": "address",
							"name": "systemid",
							"type": "address"
						},
						{
							"internalType": "uint8",
							"name": "notarizationprotocol",
							"type": "uint8"
						},
						{
							"internalType": "uint8",
							"name": "proofprotocol",
							"type": "uint8"
						},
						{
							"components": [
								{
									"internalType": "uint8",
									"name": "destinationtype",
									"type": "uint8"
								},
								{
									"internalType": "address",
									"name": "destinationaddress",
									"type": "address"
								}
							],
							"internalType": "struct VerusObjectsCommon.CTransferDestination",
							"name": "nativecurrencyid",
							"type": "tuple"
						},
						{
							"internalType": "address",
							"name": "launchsystemid",
							"type": "address"
						},
						{
							"internalType": "uint256",
							"name": "startblock",
							"type": "uint256"
						},
						{
							"internalType": "uint256",
							"name": "endblock",
							"type": "uint256"
						},
						{
							"internalType": "uint256",
							"name": "initialsupply",
							"type": "uint256"
						},
						{
							"internalType": "uint256",
							"name": "prelaunchcarveout",
							"type": "uint256"
						},
						{
							"internalType": "address",
							"name": "gatewayid",
							"type": "address"
						},
						{
							"internalType": "address[]",
							"name": "notaries",
							"type": "address[]"
						},
						{
							"internalType": "uint256",
							"name": "minnotariesconfirm",
							"type": "uint256"
						}
					],
					"internalType": "struct VerusObjects.currencyDetail",
					"name": "",
					"type": "tuple"
				}
			],
			"stateMutability": "view",
			"type": "function"
		},
		{
			"inputs": [],
			"name": "getinfo",
			"outputs": [
				{
					"components": [
						{
							"internalType": "uint256",
							"name": "version",
							"type": "uint256"
						},
						{
							"internalType": "string",
							"name": "VRSCversion",
							"type": "string"
						},
						{
							"internalType": "uint256",
							"name": "blocks",
							"type": "uint256"
						},
						{
							"internalType": "uint256",
							"name": "tiptime",
							"type": "uint256"
						},
						{
							"internalType": "string",
							"name": "name",
							"type": "string"
						},
						{
							"internalType": "bool",
							"name": "testnet",
							"type": "bool"
						}
					],
					"internalType": "struct VerusObjects.infoDetails",
					"name": "",
					"type": "tuple"
				}
			],
			"stateMutability": "view",
			"type": "function"
		},
		{
			"inputs": [
				{
					"internalType": "uint256",
					"name": "",
					"type": "uint256"
				}
			],
			"name": "hashedCRTs",
			"outputs": [
				{
					"internalType": "bytes32",
					"name": "",
					"type": "bytes32"
				}
			],
			"stateMutability": "view",
			"type": "function"
		},
		{
			"inputs": [],
			"name": "lastimport",
			"outputs": [
				{
					"internalType": "uint256",
					"name": "height",
					"type": "uint256"
				},
				{
					"internalType": "bytes32",
					"name": "txid",
					"type": "bytes32"
				}
			],
			"stateMutability": "view",
			"type": "function"
		},
		{
			"inputs": [],
			"name": "poolSize",
			"outputs": [
				{
					"internalType": "uint256",
					"name": "",
					"type": "uint256"
				}
			],
			"stateMutability": "view",
			"type": "function"
		},
		{
			"inputs": [
				{
					"internalType": "uint256",
					"name": "",
					"type": "uint256"
				}
			],
			"name": "readyExportHashes",
			"outputs": [
				{
					"internalType": "bytes32",
					"name": "",
					"type": "bytes32"
				}
			],
			"stateMutability": "view",
			"type": "function"
		},
		{
			"inputs": [
				{
					"internalType": "uint256",
					"name": "",
					"type": "uint256"
				}
			],
			"name": "readyExportsByBlock",
			"outputs": [
				{
					"internalType": "uint256",
					"name": "index",
					"type": "uint256"
				},
				{
					"internalType": "bool",
					"name": "created",
					"type": "bool"
				}
			],
			"stateMutability": "view",
			"type": "function"
		},
		{
			"inputs": [
				{
					"components": [
						{
							"internalType": "uint256",
							"name": "height",
							"type": "uint256"
						},
						{
							"internalType": "bytes32",
							"name": "txid",
							"type": "bytes32"
						},
						{
							"internalType": "uint256",
							"name": "txoutnum",
							"type": "uint256"
						},
						{
							"components": [
								{
									"internalType": "uint16",
									"name": "version",
									"type": "uint16"
								},
								{
									"internalType": "uint16",
									"name": "flags",
									"type": "uint16"
								},
								{
									"internalType": "address",
									"name": "sourcesystemid",
									"type": "address"
								},
								{
									"internalType": "uint32",
									"name": "sourceheightstart",
									"type": "uint32"
								},
								{
									"internalType": "uint32",
									"name": "sourceheightend",
									"type": "uint32"
								},
								{
									"internalType": "address",
									"name": "destinationsystemid",
									"type": "address"
								},
								{
									"internalType": "address",
									"name": "destinationcurrencyid",
									"type": "address"
								},
								{
									"internalType": "uint32",
									"name": "numinputs",
									"type": "uint32"
								},
								{
									"components": [
										{
											"internalType": "address",
											"name": "currency",
											"type": "address"
										},
										{
											"internalType": "uint64",
											"name": "amount",
											"type": "uint64"
										}
									],
									"internalType": "struct VerusObjects.CCurrencyValueMap[]",
									"name": "totalamounts",
									"type": "tuple[]"
								},
								{
									"components": [
										{
											"internalType": "address",
											"name": "currency",
											"type": "address"
										},
										{
											"internalType": "uint64",
											"name": "amount",
											"type": "uint64"
										}
									],
									"internalType": "struct VerusObjects.CCurrencyValueMap[]",
									"name": "totalfees",
									"type": "tuple[]"
								},
								{
									"internalType": "bytes32",
									"name": "hashtransfers",
									"type": "bytes32"
								},
								{
									"components": [
										{
											"internalType": "address",
											"name": "currency",
											"type": "address"
										},
										{
											"internalType": "uint64",
											"name": "amount",
											"type": "uint64"
										}
									],
									"internalType": "struct VerusObjects.CCurrencyValueMap[]",
									"name": "totalburned",
									"type": "tuple[]"
								},
								{
									"components": [
										{
											"internalType": "uint8",
											"name": "destinationtype",
											"type": "uint8"
										},
										{
											"internalType": "address",
											"name": "destinationaddress",
											"type": "address"
										}
									],
									"internalType": "struct VerusObjectsCommon.CTransferDestination",
									"name": "rewardaddress",
									"type": "tuple"
								},
								{
									"internalType": "int32",
									"name": "firstinput",
									"type": "int32"
								}
							],
							"internalType": "struct VerusObjects.CCrossChainExport",
							"name": "exportinfo",
							"type": "tuple"
						},
						{
							"components": [
								{
									"internalType": "uint8",
									"name": "version",
									"type": "uint8"
								},
								{
									"internalType": "uint8",
									"name": "typeC",
									"type": "uint8"
								},
								{
									"components": [
										{
											"internalType": "uint8",
											"name": "branchType",
											"type": "uint8"
										},
										{
											"components": [
												{
													"internalType": "uint8",
													"name": "CMerkleBranchBase",
													"type": "uint8"
												},
												{
													"internalType": "uint32",
													"name": "nIndex",
													"type": "uint32"
												},
												{
													"internalType": "uint32",
													"name": "nSize",
													"type": "uint32"
												},
												{
													"internalType": "bytes32[]",
													"name": "branch",
													"type": "bytes32[]"
												}
											],
											"internalType": "struct VerusObjects.CMerkleBranch",
											"name": "proofSequence",
											"type": "tuple"
										}
									],
									"internalType": "struct VerusObjects.CTXProof[]",
									"name": "txproof",
									"type": "tuple[]"
								},
								{
									"components": [
										{
											"internalType": "uint8",
											"name": "elType",
											"type": "uint8"
										},
										{
											"internalType": "uint8",
											"name": "elIdx",
											"type": "uint8"
										},
										{
											"internalType": "bytes",
											"name": "elVchObj",
											"type": "bytes"
										},
										{
											"components": [
												{
													"internalType": "uint8",
													"name": "branchType",
													"type": "uint8"
												},
												{
													"components": [
														{
															"internalType": "uint8",
															"name": "CMerkleBranchBase",
															"type": "uint8"
														},
														{
															"internalType": "uint32",
															"name": "nIndex",
															"type": "uint32"
														},
														{
															"internalType": "uint32",
															"name": "nSize",
															"type": "uint32"
														},
														{
															"internalType": "bytes32[]",
															"name": "branch",
															"type": "bytes32[]"
														}
													],
													"internalType": "struct VerusObjects.CMerkleBranch",
													"name": "proofSequence",
													"type": "tuple"
												}
											],
											"internalType": "struct VerusObjects.CTXProof[]",
											"name": "elProof",
											"type": "tuple[]"
										},
										{
											"internalType": "uint32",
											"name": "VchObjIndex",
											"type": "uint32"
										}
									],
									"internalType": "struct VerusObjects.CComponents[]",
									"name": "components",
									"type": "tuple[]"
								}
							],
							"internalType": "struct VerusObjects.CPtransactionproof",
							"name": "partialtransactionproof",
							"type": "tuple"
						},
						{
							"components": [
								{
									"internalType": "uint32",
									"name": "version",
									"type": "uint32"
								},
								{
									"components": [
										{
											"internalType": "address",
											"name": "currency",
											"type": "address"
										},
										{
											"internalType": "uint64",
											"name": "amount",
											"type": "uint64"
										}
									],
									"internalType": "struct VerusObjects.CCurrencyValueMap",
									"name": "currencyvalue",
									"type": "tuple"
								},
								{
									"internalType": "uint32",
									"name": "flags",
									"type": "uint32"
								},
								{
									"internalType": "address",
									"name": "feecurrencyid",
									"type": "address"
								},
								{
									"internalType": "uint256",
									"name": "fees",
									"type": "uint256"
								},
								{
									"components": [
										{
											"internalType": "uint8",
											"name": "destinationtype",
											"type": "uint8"
										},
										{
											"internalType": "address",
											"name": "destinationaddress",
											"type": "address"
										}
									],
									"internalType": "struct VerusObjectsCommon.CTransferDestination",
									"name": "destination",
									"type": "tuple"
								},
								{
									"internalType": "address",
									"name": "destcurrencyid",
									"type": "address"
								},
								{
									"internalType": "address",
									"name": "destsystemid",
									"type": "address"
								}
							],
							"internalType": "struct VerusObjects.CReserveTransfer[]",
							"name": "transfers",
							"type": "tuple[]"
						}
					],
					"internalType": "struct VerusObjects.CReserveTransferImport[]",
					"name": "_imports",
					"type": "tuple[]"
				}
			],
			"name": "submitImports",
			"outputs": [],
			"stateMutability": "nonpayable",
			"type": "function"
		},
		{
			"inputs": [],
			"name": "upgradedAddress",
			"outputs": [
				{
					"internalType": "address",
					"name": "",
					"type": "address"
				}
			],
			"stateMutability": "view",
			"type": "function"
		}
	]
}