{
	"data": {
		"bytecode": {
			"linkReferences": {},
			"object": "608060405234801561001057600080fd5b50613115806100206000396000f3fe608060405234801561001057600080fd5b50600436106101d95760003560e01c80639d487b4711610104578063c41c134d116100a2578063e4cba54711610071578063e4cba547146106be578063f20fb830146106ee578063f82172951461071e578063fef5906a1461074e576101d9565b8063c41c134d146105fe578063c6f4c2691461062e578063cecb30431461065e578063d40274b21461068e576101d9565b8063af832f09116100de578063af832f091461053e578063b5a0fb241461056e578063b9edc7951461059e578063baa42698146105ce576101d9565b80639d487b47146104ae5780639eeb30ff146104de578063a2e5d8361461050e576101d9565b8063463276c31161017c5780636127b4ff1161014b5780636127b4ff146103ee57806368b4ae811461041e5780636d83f48c1461044e57806385f909831461047e576101d9565b8063463276c31461032e57806348352c071461035e578063537b91f51461038e57806357759e15146103be576101d9565b806320907b41116101b857806320907b411461026e578063241d23b21461029e578063253fe4ee146102ce57806346256007146102fe576101d9565b80629c8152146101de5780631222d81a1461020e578063122e5ae71461023e575b600080fd5b6101f860048036038101906101f391906121de565b61077e565b6040516102059190612b99565b60405180910390f35b61022860048036038101906102239190612230565b6107a7565b6040516102359190612b99565b60405180910390f35b610258600480360381019061025391906125cd565b610878565b6040516102659190612b99565b60405180910390f35b6102886004803603810190610283919061246c565b6108ae565b6040516102959190612b99565b60405180910390f35b6102b860048036038101906102b3919061202f565b6108f1565b6040516102c59190612b99565b60405180910390f35b6102e860048036038101906102e391906124ff565b610922565b6040516102f59190612b99565b60405180910390f35b61031860048036038101906103139190612271565b610965565b6040516103259190612b99565b60405180910390f35b61034860048036038101906103439190612207565b61099b565b6040516103559190612b99565b60405180910390f35b6103786004803603810190610373919061211b565b6109c4565b6040516103859190612b99565b60405180910390f35b6103a860048036038101906103a39190612419565b610a35565b6040516103b59190612b99565b60405180910390f35b6103d860048036038101906103d39190612552565b610abe565b6040516103e59190612b99565b60405180910390f35b610408600480360381019061040391906125f6565b610af4565b6040516104159190612b99565b60405180910390f35b610438600480360381019061043391906122ec565b610b2a565b6040516104459190612b99565b60405180910390f35b610468600480360381019061046391906124be565b610b53565b6040516104759190612b99565b60405180910390f35b6104986004803603810190610493919061232d565b610b96565b6040516104a59190612b99565b60405180910390f35b6104c860048036038101906104c39190612058565b610c69565b6040516104d59190612b99565b60405180910390f35b6104f860048036038101906104f3919061236e565b610cd2565b6040516105059190612b99565b60405180910390f35b610528600480360381019061052391906123d8565b610dfd565b6040516105359190612b99565b60405180910390f35b610558600480360381019061055391906122c3565b610ec1565b6040516105659190612b99565b60405180910390f35b6105886004803603810190610583919061215c565b610ef7565b6040516105959190612b99565b60405180910390f35b6105b860048036038101906105b39190612495565b610f68565b6040516105c59190612b99565b60405180910390f35b6105e860048036038101906105e39190612442565b610fab565b6040516105f59190612b99565b60405180910390f35b610618600480360381019061061391906123af565b611034565b6040516106259190612b99565b60405180910390f35b610648600480360381019061064391906120da565b611077565b6040516106559190612b99565b60405180910390f35b610678600480360381019061067391906125a4565b6110e8565b6040516106859190612b99565b60405180910390f35b6106a860048036038101906106a3919061219d565b61111e565b6040516106b59190612b99565b60405180910390f35b6106d860048036038101906106d39190612529565b61118f565b6040516106e59190612b99565b60405180910390f35b6107086004803603810190610703919061257b565b6111c5565b6040516107159190612b99565b60405180910390f35b61073860048036038101906107339190612099565b6111fb565b6040516107459190612b99565b60405180910390f35b6107686004803603810190610763919061229a565b611264565b6040516107759190612b99565b60405180910390f35b60608160405160200161079191906127e9565b6040516020818303038152906040529050919050565b606060008251905060608167ffffffffffffffff811180156107c857600080fd5b506040519080825280601f01601f1916602001820160405280156107fb5781602001600182028036833780820191505090505b50905060005b8281101561086d57846001828503038151811061081a57fe5b602001015160f81c60f81b82828151811061083157fe5b60200101907effffffffffffffffffffffffffffffffffffffffffffffffffffffffffffff1916908160001a9053508080600101915050610801565b819350505050919050565b6060808260405160200161088c9190612b63565b60405160208183030381529060405290506108a6816107a7565b915050919050565b60606108bd82600001516110e8565b6108ca8360200151610abe565b6040516020016108db92919061281f565b6040516020818303038152906040529050919050565b606061091b8260405160200161090791906127ce565b6040516020818303038152906040526107a7565b9050919050565b60606109318260000151610abe565b61093e8360200151610a35565b60405160200161094f92919061281f565b6040516020818303038152906040529050919050565b606080826040516020016109799190612a8f565b6040516020818303038152906040529050610993816107a7565b915050919050565b6060816040516020016109ae9190612804565b6040516020818303038152906040529050919050565b6060806109d183516111c5565b905060005b8351811015610a2b57816109fc8583815181106109ef57fe5b6020026020010151610fab565b604051602001610a0d92919061281f565b604051602081830303815290604052915080806001019150506109d6565b5080915050919050565b6060610a448260000151610965565b610a518360200151610965565b610a5e8460400151610abe565b610a6b85606001516110e8565b610a7886608001516111c5565b610a858760a001516111c5565b610a928860c001516111c5565b604051602001610aa8979695949392919061289b565b6040516020818303038152906040529050919050565b60608082604051602001610ad29190612af7565b6040516020818303038152906040529050610aec816107a7565b915050919050565b60608082604051602001610b089190612b7e565b6040516020818303038152906040529050610b22816107a7565b915050919050565b606081604051602001610b3d9190612ae0565b6040516020818303038152906040529050919050565b6060610b628260000151610abe565b610b6f8360200151610b96565b604051602001610b8092919061281f565b6040516020818303038152906040529050919050565b6060610ba58260000151610ec1565b610bb28360200151610ec1565b610bbf8460400151610ec1565b610bcc8560600151610ec1565b610bd986608001516111fb565b610be68760a001516111fb565b610bf38860c001516111fb565b610c008960e001516111fb565b610c0e8a61010001516111fb565b610c1c8b61012001516111fb565b610c2a8c61014001516111fb565b610c388d6101600151610c69565b604051602001610c539c9b9a99989796959493929190612999565b6040516020818303038152906040529050919050565b606080610c7683516111c5565b905060005b8351811015610cc85781848281518110610c9157fe5b6020026020010151604051602001610caa929190612a3f565b60405160208183030381529060405291508080600101915050610c7b565b5080915050919050565b606080610ce28360000151610af4565b610cef84602001516110e8565b610cfc8560400151610abe565b610d0986606001516110e8565b610d1687608001516110e8565b610d238860a00151610abe565b610d308960c00151610abe565b604051602001610d46979695949392919061289b565b60405160208183030381529060405290506060610d668460e00151611264565b610d74856101000151611077565b610d82866101200151611077565b610d908761014001516111c5565b610d9e8861018001516108f1565b610dac896101a00151611264565b604051602001610dc196959493929190612843565b60405160208183030381529060405290508181604051602001610de592919061281f565b60405160208183030381529060405292505050919050565b6060610e0c82600001516110e8565b610e1983602001516110e8565b610e2684604001516108ae565b610e338560600151610abe565b610e4086608001516110e8565b610e4d8760a00151610b96565b610e5a8860c00151610f68565b610e678960e001516111c5565b610e758a61010001516110e8565b610e838b6101200151610ef7565b610e918c610140015161111e565b604051602001610eab9b9a99989796959493929190612900565b6040516020818303038152906040529050919050565b60608082604051602001610ed59190612ac5565b6040516020818303038152906040529050610eef816107a7565b915050919050565b606080610f0483516111c5565b905060005b8351811015610f5e5781610f2f858381518110610f2257fe5b6020026020010151610b53565b604051602001610f4092919061281f565b60405160208183030381529060405291508080600101915050610f09565b5080915050919050565b6060610f7782600001516111c5565b610f8483602001516110e8565b604051602001610f9592919061281f565b6040516020818303038152906040529050919050565b6060610fba82600001516110e8565b610fc78360200151611034565b610fd484604001516110e8565b610fe18560600151610abe565b610fee86608001516111c5565b610ffb8760c00151610abe565b6110088860a001516108ae565b60405160200161101e979695949392919061289b565b6040516020818303038152906040529050919050565b60606110438260000151610abe565b6110508360200151610878565b60405160200161106192919061281f565b6040516020818303038152906040529050919050565b60608061108483516111c5565b905060005b83518110156110de57816110af8583815181106110a257fe5b6020026020010151611034565b6040516020016110c092919061281f565b60405160208183030381529060405291508080600101915050611089565b5080915050919050565b606080826040516020016110fc9190612b48565b6040516020818303038152906040529050611116816107a7565b915050919050565b60608061112b83516111c5565b905060005b8351811015611185578161115685838151811061114957fe5b6020026020010151610922565b60405160200161116792919061281f565b60405160208183030381529060405291508080600101915050611130565b5080915050919050565b606080826040516020016111a39190612b12565b60405160208183030381529060405290506111bd816107a7565b915050919050565b606080826040516020016111d99190612b2d565b60405160208183030381529060405290506111f3816107a7565b915050919050565b60608061120883516111c5565b905060005b835181101561125a578184828151811061122357fe5b602002602001015160405160200161123c929190612a67565b6040516020818303038152906040529150808060010191505061120d565b5080915050919050565b606080826040516020016112789190612aaa565b6040516020818303038152906040529050611292816107a7565b915050919050565b6000813590506112a981612fcb565b92915050565b600082601f8301126112c057600080fd5b81356112d36112ce82612be8565b612bbb565b915081818352602084019350602081019050838560208402820111156112f857600080fd5b60005b83811015611328578161130e88826116bd565b8452602084019350602083019250506001810190506112fb565b5050505092915050565b600082601f83011261134357600080fd5b813561135661135182612c10565b612bbb565b9150818183526020840193506020810190508385602084028201111561137b57600080fd5b60005b838110156113ab578161139188826116d2565b84526020840193506020830192505060018101905061137e565b5050505092915050565b600082601f8301126113c657600080fd5b81356113d96113d482612c38565b612bbb565b915081818352602084019350602081019050838560408402820111156113fe57600080fd5b60005b8381101561142e57816114148882611aab565b845260208401935060408301925050600181019050611401565b5050505092915050565b600082601f83011261144957600080fd5b813561145c61145782612c60565b612bbb565b9150818183526020840193506020810190508360005b838110156114a257813586016114888882611af7565b845260208401935060208301925050600181019050611472565b5050505092915050565b600082601f8301126114bd57600080fd5b81356114d06114cb82612c88565b612bbb565b91508181835260208401935060208101905083856101608402820111156114f657600080fd5b60005b83811015611527578161150c8882611d8a565b845260208401935061016083019250506001810190506114f9565b5050505092915050565b600082601f83011261154257600080fd5b813561155561155082612cb0565b612bbb565b9150818183526020840193506020810190508360005b8381101561159b57813586016115818882611f00565b84526020840193506020830192505060018101905061156b565b5050505092915050565b600082601f8301126115b657600080fd5b81356115c96115c482612cd8565b612bbb565b91508181835260208401935060208101905083856101008402820111156115ef57600080fd5b60005b8381101561162057816116058882611f64565b845260208401935061010083019250506001810190506115f2565b5050505092915050565b60008135905061163981612fe2565b92915050565b60008135905061164e81612ff9565b92915050565b600082601f83011261166557600080fd5b813561167861167382612d00565b612bbb565b9150808252602083016020830185838301111561169457600080fd5b61169f838284612e6f565b50505092915050565b6000813590506116b781613010565b92915050565b6000813590506116cc81613027565b92915050565b6000813590506116e18161303e565b92915050565b600082601f8301126116f857600080fd5b813561170b61170682612d2c565b612bbb565b9150808252602083016020830185838301111561172757600080fd5b611732838284612e6f565b50505092915050565b6000610180828403121561174e57600080fd5b611759610180612bbb565b90506000611769848285016116d2565b600083015250602061177d848285016116d2565b6020830152506040611791848285016116d2565b60408301525060606117a5848285016116d2565b606083015250608082013567ffffffffffffffff8111156117c557600080fd5b6117d184828501611332565b60808301525060a082013567ffffffffffffffff8111156117f157600080fd5b6117fd84828501611332565b60a08301525060c082013567ffffffffffffffff81111561181d57600080fd5b61182984828501611332565b60c08301525060e082013567ffffffffffffffff81111561184957600080fd5b61185584828501611332565b60e08301525061010082013567ffffffffffffffff81111561187657600080fd5b61188284828501611332565b6101008301525061012082013567ffffffffffffffff8111156118a457600080fd5b6118b084828501611332565b6101208301525061014082013567ffffffffffffffff8111156118d257600080fd5b6118de84828501611332565b6101408301525061016082013567ffffffffffffffff81111561190057600080fd5b61190c848285016112af565b6101608301525092915050565b60006101c0828403121561192c57600080fd5b6119376101c0612bbb565b905060006119478482850161201a565b600083015250602061195b84828501611ff0565b602083015250604061196f84828501611fc6565b604083015250606061198384828501611ff0565b606083015250608061199784828501611ff0565b60808301525060a06119ab84828501611fc6565b60a08301525060c06119bf84828501611fc6565b60c08301525060e06119d3848285016116bd565b60e08301525061010082013567ffffffffffffffff8111156119f457600080fd5b611a00848285016113b5565b6101008301525061012082013567ffffffffffffffff811115611a2257600080fd5b611a2e848285016113b5565b61012083015250610140611a4484828501611fdb565b6101408301525061016082013567ffffffffffffffff811115611a6657600080fd5b611a72848285016113b5565b61016083015250610180611a888482850161129a565b610180830152506101a0611a9e848285016116bd565b6101a08301525092915050565b600060408284031215611abd57600080fd5b611ac76040612bbb565b90506000611ad784828501611fc6565b6000830152506020611aeb84828501612005565b60208301525092915050565b600060408284031215611b0957600080fd5b611b136040612bbb565b9050600082013567ffffffffffffffff811115611b2f57600080fd5b611b3b848285016116e7565b6000830152506020611b4f84828501611fc6565b60208301525092915050565b60006101c08284031215611b6e57600080fd5b611b79610180612bbb565b90506000611b8984828501611ff0565b6000830152506020611b9d84828501611ff0565b6020830152506040611bb184828501611e68565b6040830152506080611bc584828501611fc6565b60608301525060a0611bd984828501611ff0565b60808301525060c082013567ffffffffffffffff811115611bf957600080fd5b611c058482850161173b565b60a08301525060e0611c1984828501611eb4565b60c083015250610120611c2e84828501611fdb565b60e083015250610140611c4384828501611ff0565b6101008301525061016082013567ffffffffffffffff811115611c6557600080fd5b611c7184828501611531565b6101208301525061018082013567ffffffffffffffff811115611c9357600080fd5b611c9f848285016115a5565b610140830152506101a082013567ffffffffffffffff811115611cc157600080fd5b611ccd84828501611438565b6101608301525092915050565b600060e08284031215611cec57600080fd5b611cf660e0612bbb565b90506000611d06848285016116a8565b6000830152506020611d1a848285016116a8565b6020830152506040611d2e84828501611fc6565b6040830152506060611d4284828501611ff0565b6060830152506080611d5684828501611fdb565b60808301525060a0611d6a84828501611fdb565b60a08301525060c0611d7e84828501611fdb565b60c08301525092915050565b60006101608284031215611d9d57600080fd5b611da8610120612bbb565b90506000611db884828501611ff0565b6000830152506020611dcc84828501611aab565b6020830152506060611de084828501611ff0565b6040830152506080611df484828501611fc6565b60608301525060a0611e0884828501611fdb565b60808301525060c0611e1c84828501611e68565b60a083015250610100611e3184828501611fc6565b60c083015250610120611e4684828501611fc6565b60e083015250610140611e5b84828501611fc6565b6101008301525092915050565b600060408284031215611e7a57600080fd5b611e846040612bbb565b90506000611e9484828501611ff0565b6000830152506020611ea884828501611fc6565b60208301525092915050565b600060408284031215611ec657600080fd5b611ed06040612bbb565b90506000611ee084828501611fdb565b6000830152506020611ef484828501611ff0565b60208301525092915050565b600060408284031215611f1257600080fd5b611f1c6040612bbb565b90506000611f2c84828501611fc6565b600083015250602082013567ffffffffffffffff811115611f4c57600080fd5b611f588482850161173b565b60208301525092915050565b60006101008284031215611f7757600080fd5b611f816040612bbb565b90506000611f9184828501611fc6565b6000830152506020611fa584828501611cda565b60208301525092915050565b600081359050611fc081613055565b92915050565b600081359050611fd58161306c565b92915050565b600081359050611fea81613083565b92915050565b600081359050611fff8161309a565b92915050565b600081359050612014816130b1565b92915050565b600081359050612029816130c8565b92915050565b60006020828403121561204157600080fd5b600061204f8482850161129a565b91505092915050565b60006020828403121561206a57600080fd5b600082013567ffffffffffffffff81111561208457600080fd5b612090848285016112af565b91505092915050565b6000602082840312156120ab57600080fd5b600082013567ffffffffffffffff8111156120c557600080fd5b6120d184828501611332565b91505092915050565b6000602082840312156120ec57600080fd5b600082013567ffffffffffffffff81111561210657600080fd5b612112848285016113b5565b91505092915050565b60006020828403121561212d57600080fd5b600082013567ffffffffffffffff81111561214757600080fd5b612153848285016114ac565b91505092915050565b60006020828403121561216e57600080fd5b600082013567ffffffffffffffff81111561218857600080fd5b61219484828501611531565b91505092915050565b6000602082840312156121af57600080fd5b600082013567ffffffffffffffff8111156121c957600080fd5b6121d5848285016115a5565b91505092915050565b6000602082840312156121f057600080fd5b60006121fe8482850161162a565b91505092915050565b60006020828403121561221957600080fd5b60006122278482850161163f565b91505092915050565b60006020828403121561224257600080fd5b600082013567ffffffffffffffff81111561225c57600080fd5b61226884828501611654565b91505092915050565b60006020828403121561228357600080fd5b6000612291848285016116a8565b91505092915050565b6000602082840312156122ac57600080fd5b60006122ba848285016116bd565b91505092915050565b6000602082840312156122d557600080fd5b60006122e3848285016116d2565b91505092915050565b6000602082840312156122fe57600080fd5b600082013567ffffffffffffffff81111561231857600080fd5b612324848285016116e7565b91505092915050565b60006020828403121561233f57600080fd5b600082013567ffffffffffffffff81111561235957600080fd5b6123658482850161173b565b91505092915050565b60006020828403121561238057600080fd5b600082013567ffffffffffffffff81111561239a57600080fd5b6123a684828501611919565b91505092915050565b6000604082840312156123c157600080fd5b60006123cf84828501611aab565b91505092915050565b6000602082840312156123ea57600080fd5b600082013567ffffffffffffffff81111561240457600080fd5b61241084828501611b5b565b91505092915050565b600060e0828403121561242b57600080fd5b600061243984828501611cda565b91505092915050565b6000610160828403121561245557600080fd5b600061246384828501611d8a565b91505092915050565b60006040828403121561247e57600080fd5b600061248c84828501611e68565b91505092915050565b6000604082840312156124a757600080fd5b60006124b584828501611eb4565b91505092915050565b6000602082840312156124d057600080fd5b600082013567ffffffffffffffff8111156124ea57600080fd5b6124f684828501611f00565b91505092915050565b6000610100828403121561251257600080fd5b600061252084828501611f64565b91505092915050565b60006020828403121561253b57600080fd5b600061254984828501611fb1565b91505092915050565b60006020828403121561256457600080fd5b600061257284828501611fc6565b91505092915050565b60006020828403121561258d57600080fd5b600061259b84828501611fdb565b91505092915050565b6000602082840312156125b657600080fd5b60006125c484828501611ff0565b91505092915050565b6000602082840312156125df57600080fd5b60006125ed84828501612005565b91505092915050565b60006020828403121561260857600080fd5b60006126168482850161201a565b91505092915050565b61263061262b82612d95565b612eb1565b82525050565b61264761264282612da7565b612ec3565b82525050565b61265e61265982612db3565b612ed5565b82525050565b600061266f82612d58565b6126798185612d6e565b9350612689818560208601612e7e565b61269281612f79565b840191505092915050565b60006126a882612d58565b6126b28185612d7f565b93506126c2818560208601612e7e565b80840191505092915050565b6126df6126da82612ddf565b612edf565b82525050565b6126f66126f182612dec565b612ef1565b82525050565b61270d61270882612df9565b612f03565b82525050565b600061271e82612d63565b6127288185612d8a565b9350612738818560208601612e7e565b80840191505092915050565b61275561275082612e14565b612f27565b82525050565b61276c61276782612e06565b612f15565b82525050565b61278361277e82612e34565b612f39565b82525050565b61279a61279582612e3e565b612f43565b82525050565b6127b16127ac82612e4e565b612f55565b82525050565b6127c86127c382612e62565b612f67565b82525050565b60006127da828461261f565b60148201915081905092915050565b60006127f58284612636565b60018201915081905092915050565b6000612810828461264d565b60148201915081905092915050565b600061282b828561269d565b9150612837828461269d565b91508190509392505050565b600061284f828961269d565b915061285b828861269d565b9150612867828761269d565b9150612873828661269d565b915061287f828561269d565b915061288b828461269d565b9150819050979650505050505050565b60006128a7828a61269d565b91506128b3828961269d565b91506128bf828861269d565b91506128cb828761269d565b91506128d7828661269d565b91506128e3828561269d565b91506128ef828461269d565b915081905098975050505050505050565b600061290c828e61269d565b9150612918828d61269d565b9150612924828c61269d565b9150612930828b61269d565b915061293c828a61269d565b9150612948828961269d565b9150612954828861269d565b9150612960828761269d565b915061296c828661269d565b9150612978828561269d565b9150612984828461269d565b91508190509c9b505050505050505050505050565b60006129a5828f61269d565b91506129b1828e61269d565b91506129bd828d61269d565b91506129c9828c61269d565b91506129d5828b61269d565b91506129e1828a61269d565b91506129ed828961269d565b91506129f9828861269d565b9150612a05828761269d565b9150612a11828661269d565b9150612a1d828561269d565b9150612a29828461269d565b91508190509d9c50505050505050505050505050565b6000612a4b828561269d565b9150612a5782846126e5565b6004820191508190509392505050565b6000612a73828561269d565b9150612a7f82846126fc565b6008820191508190509392505050565b6000612a9b82846126ce565b60028201915081905092915050565b6000612ab682846126e5565b60048201915081905092915050565b6000612ad182846126fc565b60088201915081905092915050565b6000612aec8284612713565b915081905092915050565b6000612b038284612744565b60148201915081905092915050565b6000612b1e828461275b565b60028201915081905092915050565b6000612b398284612772565b60208201915081905092915050565b6000612b548284612789565b60048201915081905092915050565b6000612b6f82846127a0565b60088201915081905092915050565b6000612b8a82846127b7565b60018201915081905092915050565b60006020820190508181036000830152612bb38184612664565b905092915050565b6000604051905081810181811067ffffffffffffffff82111715612bde57600080fd5b8060405250919050565b600067ffffffffffffffff821115612bff57600080fd5b602082029050602081019050919050565b600067ffffffffffffffff821115612c2757600080fd5b602082029050602081019050919050565b600067ffffffffffffffff821115612c4f57600080fd5b602082029050602081019050919050565b600067ffffffffffffffff821115612c7757600080fd5b602082029050602081019050919050565b600067ffffffffffffffff821115612c9f57600080fd5b602082029050602081019050919050565b600067ffffffffffffffff821115612cc757600080fd5b602082029050602081019050919050565b600067ffffffffffffffff821115612cef57600080fd5b602082029050602081019050919050565b600067ffffffffffffffff821115612d1757600080fd5b601f19601f8301169050602081019050919050565b600067ffffffffffffffff821115612d4357600080fd5b601f19601f8301169050602081019050919050565b600081519050919050565b600081519050919050565b600082825260208201905092915050565b600081905092915050565b600081905092915050565b6000612da082612e14565b9050919050565b60008115159050919050565b60007fffffffffffffffffffffffffffffffffffffffff00000000000000000000000082169050919050565b60008160010b9050919050565b60008160030b9050919050565b60008160070b9050919050565b600061ffff82169050919050565b600073ffffffffffffffffffffffffffffffffffffffff82169050919050565b6000819050919050565b600063ffffffff82169050919050565b600067ffffffffffffffff82169050919050565b600060ff82169050919050565b82818337600083830152505050565b60005b83811015612e9c578082015181840152602081019050612e81565b83811115612eab576000848401525b50505050565b6000612ebc82612f27565b9050919050565b6000612ece82612f67565b9050919050565b6000819050919050565b6000612eea82612fa4565b9050919050565b6000612efc82612f97565b9050919050565b6000612f0e82612f8a565b9050919050565b6000612f2082612fa4565b9050919050565b6000612f3282612fbe565b9050919050565b6000819050919050565b6000612f4e82612f97565b9050919050565b6000612f6082612f8a565b9050919050565b6000612f7282612fb1565b9050919050565b6000601f19601f8301169050919050565b60008160c01b9050919050565b60008160e01b9050919050565b60008160f01b9050919050565b60008160f81b9050919050565b60008160601b9050919050565b612fd481612d95565b8114612fdf57600080fd5b50565b612feb81612da7565b8114612ff657600080fd5b50565b61300281612db3565b811461300d57600080fd5b50565b61301981612ddf565b811461302457600080fd5b50565b61303081612dec565b811461303b57600080fd5b50565b61304781612df9565b811461305257600080fd5b50565b61305e81612e06565b811461306957600080fd5b50565b61307581612e14565b811461308057600080fd5b50565b61308c81612e34565b811461309757600080fd5b50565b6130a381612e3e565b81146130ae57600080fd5b50565b6130ba81612e4e565b81146130c557600080fd5b50565b6130d181612e62565b81146130dc57600080fd5b5056fea26469706673582212208cb125fcd330721cf74a7b6554161f13372d45098adc97fdc9f7066c03c9e80c64736f6c634300060c0033",
			"opcodes": "PUSH1 0x80 PUSH1 0x40 MSTORE CALLVALUE DUP1 ISZERO PUSH2 0x10 JUMPI PUSH1 0x0 DUP1 REVERT JUMPDEST POP PUSH2 0x3115 DUP1 PUSH2 0x20 PUSH1 0x0 CODECOPY PUSH1 0x0 RETURN INVALID PUSH1 0x80 PUSH1 0x40 MSTORE CALLVALUE DUP1 ISZERO PUSH2 0x10 JUMPI PUSH1 0x0 DUP1 REVERT JUMPDEST POP PUSH1 0x4 CALLDATASIZE LT PUSH2 0x1D9 JUMPI PUSH1 0x0 CALLDATALOAD PUSH1 0xE0 SHR DUP1 PUSH4 0x9D487B47 GT PUSH2 0x104 JUMPI DUP1 PUSH4 0xC41C134D GT PUSH2 0xA2 JUMPI DUP1 PUSH4 0xE4CBA547 GT PUSH2 0x71 JUMPI DUP1 PUSH4 0xE4CBA547 EQ PUSH2 0x6BE JUMPI DUP1 PUSH4 0xF20FB830 EQ PUSH2 0x6EE JUMPI DUP1 PUSH4 0xF8217295 EQ PUSH2 0x71E JUMPI DUP1 PUSH4 0xFEF5906A EQ PUSH2 0x74E JUMPI PUSH2 0x1D9 JUMP JUMPDEST DUP1 PUSH4 0xC41C134D EQ PUSH2 0x5FE JUMPI DUP1 PUSH4 0xC6F4C269 EQ PUSH2 0x62E JUMPI DUP1 PUSH4 0xCECB3043 EQ PUSH2 0x65E JUMPI DUP1 PUSH4 0xD40274B2 EQ PUSH2 0x68E JUMPI PUSH2 0x1D9 JUMP JUMPDEST DUP1 PUSH4 0xAF832F09 GT PUSH2 0xDE JUMPI DUP1 PUSH4 0xAF832F09 EQ PUSH2 0x53E JUMPI DUP1 PUSH4 0xB5A0FB24 EQ PUSH2 0x56E JUMPI DUP1 PUSH4 0xB9EDC795 EQ PUSH2 0x59E JUMPI DUP1 PUSH4 0xBAA42698 EQ PUSH2 0x5CE JUMPI PUSH2 0x1D9 JUMP JUMPDEST DUP1 PUSH4 0x9D487B47 EQ PUSH2 0x4AE JUMPI DUP1 PUSH4 0x9EEB30FF EQ PUSH2 0x4DE JUMPI DUP1 PUSH4 0xA2E5D836 EQ PUSH2 0x50E JUMPI PUSH2 0x1D9 JUMP JUMPDEST DUP1 PUSH4 0x463276C3 GT PUSH2 0x17C JUMPI DUP1 PUSH4 0x6127B4FF GT PUSH2 0x14B JUMPI DUP1 PUSH4 0x6127B4FF EQ PUSH2 0x3EE JUMPI DUP1 PUSH4 0x68B4AE81 EQ PUSH2 0x41E JUMPI DUP1 PUSH4 0x6D83F48C EQ PUSH2 0x44E JUMPI DUP1 PUSH4 0x85F90983 EQ PUSH2 0x47E JUMPI PUSH2 0x1D9 JUMP JUMPDEST DUP1 PUSH4 0x463276C3 EQ PUSH2 0x32E JUMPI DUP1 PUSH4 0x48352C07 EQ PUSH2 0x35E JUMPI DUP1 PUSH4 0x537B91F5 EQ PUSH2 0x38E JUMPI DUP1 PUSH4 0x57759E15 EQ PUSH2 0x3BE JUMPI PUSH2 0x1D9 JUMP JUMPDEST DUP1 PUSH4 0x20907B41 GT PUSH2 0x1B8 JUMPI DUP1 PUSH4 0x20907B41 EQ PUSH2 0x26E JUMPI DUP1 PUSH4 0x241D23B2 EQ PUSH2 0x29E JUMPI DUP1 PUSH4 0x253FE4EE EQ PUSH2 0x2CE JUMPI DUP1 PUSH4 0x46256007 EQ PUSH2 0x2FE JUMPI PUSH2 0x1D9 JUMP JUMPDEST DUP1 PUSH3 0x9C8152 EQ PUSH2 0x1DE JUMPI DUP1 PUSH4 0x1222D81A EQ PUSH2 0x20E JUMPI DUP1 PUSH4 0x122E5AE7 EQ PUSH2 0x23E JUMPI JUMPDEST PUSH1 0x0 DUP1 REVERT JUMPDEST PUSH2 0x1F8 PUSH1 0x4 DUP1 CALLDATASIZE SUB DUP2 ADD SWAP1 PUSH2 0x1F3 SWAP2 SWAP1 PUSH2 0x21DE JUMP JUMPDEST PUSH2 0x77E JUMP JUMPDEST PUSH1 0x40 MLOAD PUSH2 0x205 SWAP2 SWAP1 PUSH2 0x2B99 JUMP JUMPDEST PUSH1 0x40 MLOAD DUP1 SWAP2 SUB SWAP1 RETURN JUMPDEST PUSH2 0x228 PUSH1 0x4 DUP1 CALLDATASIZE SUB DUP2 ADD SWAP1 PUSH2 0x223 SWAP2 SWAP1 PUSH2 0x2230 JUMP JUMPDEST PUSH2 0x7A7 JUMP JUMPDEST PUSH1 0x40 MLOAD PUSH2 0x235 SWAP2 SWAP1 PUSH2 0x2B99 JUMP JUMPDEST PUSH1 0x40 MLOAD DUP1 SWAP2 SUB SWAP1 RETURN JUMPDEST PUSH2 0x258 PUSH1 0x4 DUP1 CALLDATASIZE SUB DUP2 ADD SWAP1 PUSH2 0x253 SWAP2 SWAP1 PUSH2 0x25CD JUMP JUMPDEST PUSH2 0x878 JUMP JUMPDEST PUSH1 0x40 MLOAD PUSH2 0x265 SWAP2 SWAP1 PUSH2 0x2B99 JUMP JUMPDEST PUSH1 0x40 MLOAD DUP1 SWAP2 SUB SWAP1 RETURN JUMPDEST PUSH2 0x288 PUSH1 0x4 DUP1 CALLDATASIZE SUB DUP2 ADD SWAP1 PUSH2 0x283 SWAP2 SWAP1 PUSH2 0x246C JUMP JUMPDEST PUSH2 0x8AE JUMP JUMPDEST PUSH1 0x40 MLOAD PUSH2 0x295 SWAP2 SWAP1 PUSH2 0x2B99 JUMP JUMPDEST PUSH1 0x40 MLOAD DUP1 SWAP2 SUB SWAP1 RETURN JUMPDEST PUSH2 0x2B8 PUSH1 0x4 DUP1 CALLDATASIZE SUB DUP2 ADD SWAP1 PUSH2 0x2B3 SWAP2 SWAP1 PUSH2 0x202F JUMP JUMPDEST PUSH2 0x8F1 JUMP JUMPDEST PUSH1 0x40 MLOAD PUSH2 0x2C5 SWAP2 SWAP1 PUSH2 0x2B99 JUMP JUMPDEST PUSH1 0x40 MLOAD DUP1 SWAP2 SUB SWAP1 RETURN JUMPDEST PUSH2 0x2E8 PUSH1 0x4 DUP1 CALLDATASIZE SUB DUP2 ADD SWAP1 PUSH2 0x2E3 SWAP2 SWAP1 PUSH2 0x24FF JUMP JUMPDEST PUSH2 0x922 JUMP JUMPDEST PUSH1 0x40 MLOAD PUSH2 0x2F5 SWAP2 SWAP1 PUSH2 0x2B99 JUMP JUMPDEST PUSH1 0x40 MLOAD DUP1 SWAP2 SUB SWAP1 RETURN JUMPDEST PUSH2 0x318 PUSH1 0x4 DUP1 CALLDATASIZE SUB DUP2 ADD SWAP1 PUSH2 0x313 SWAP2 SWAP1 PUSH2 0x2271 JUMP JUMPDEST PUSH2 0x965 JUMP JUMPDEST PUSH1 0x40 MLOAD PUSH2 0x325 SWAP2 SWAP1 PUSH2 0x2B99 JUMP JUMPDEST PUSH1 0x40 MLOAD DUP1 SWAP2 SUB SWAP1 RETURN JUMPDEST PUSH2 0x348 PUSH1 0x4 DUP1 CALLDATASIZE SUB DUP2 ADD SWAP1 PUSH2 0x343 SWAP2 SWAP1 PUSH2 0x2207 JUMP JUMPDEST PUSH2 0x99B JUMP JUMPDEST PUSH1 0x40 MLOAD PUSH2 0x355 SWAP2 SWAP1 PUSH2 0x2B99 JUMP JUMPDEST PUSH1 0x40 MLOAD DUP1 SWAP2 SUB SWAP1 RETURN JUMPDEST PUSH2 0x378 PUSH1 0x4 DUP1 CALLDATASIZE SUB DUP2 ADD SWAP1 PUSH2 0x373 SWAP2 SWAP1 PUSH2 0x211B JUMP JUMPDEST PUSH2 0x9C4 JUMP JUMPDEST PUSH1 0x40 MLOAD PUSH2 0x385 SWAP2 SWAP1 PUSH2 0x2B99 JUMP JUMPDEST PUSH1 0x40 MLOAD DUP1 SWAP2 SUB SWAP1 RETURN JUMPDEST PUSH2 0x3A8 PUSH1 0x4 DUP1 CALLDATASIZE SUB DUP2 ADD SWAP1 PUSH2 0x3A3 SWAP2 SWAP1 PUSH2 0x2419 JUMP JUMPDEST PUSH2 0xA35 JUMP JUMPDEST PUSH1 0x40 MLOAD PUSH2 0x3B5 SWAP2 SWAP1 PUSH2 0x2B99 JUMP JUMPDEST PUSH1 0x40 MLOAD DUP1 SWAP2 SUB SWAP1 RETURN JUMPDEST PUSH2 0x3D8 PUSH1 0x4 DUP1 CALLDATASIZE SUB DUP2 ADD SWAP1 PUSH2 0x3D3 SWAP2 SWAP1 PUSH2 0x2552 JUMP JUMPDEST PUSH2 0xABE JUMP JUMPDEST PUSH1 0x40 MLOAD PUSH2 0x3E5 SWAP2 SWAP1 PUSH2 0x2B99 JUMP JUMPDEST PUSH1 0x40 MLOAD DUP1 SWAP2 SUB SWAP1 RETURN JUMPDEST PUSH2 0x408 PUSH1 0x4 DUP1 CALLDATASIZE SUB DUP2 ADD SWAP1 PUSH2 0x403 SWAP2 SWAP1 PUSH2 0x25F6 JUMP JUMPDEST PUSH2 0xAF4 JUMP JUMPDEST PUSH1 0x40 MLOAD PUSH2 0x415 SWAP2 SWAP1 PUSH2 0x2B99 JUMP JUMPDEST PUSH1 0x40 MLOAD DUP1 SWAP2 SUB SWAP1 RETURN JUMPDEST PUSH2 0x438 PUSH1 0x4 DUP1 CALLDATASIZE SUB DUP2 ADD SWAP1 PUSH2 0x433 SWAP2 SWAP1 PUSH2 0x22EC JUMP JUMPDEST PUSH2 0xB2A JUMP JUMPDEST PUSH1 0x40 MLOAD PUSH2 0x445 SWAP2 SWAP1 PUSH2 0x2B99 JUMP JUMPDEST PUSH1 0x40 MLOAD DUP1 SWAP2 SUB SWAP1 RETURN JUMPDEST PUSH2 0x468 PUSH1 0x4 DUP1 CALLDATASIZE SUB DUP2 ADD SWAP1 PUSH2 0x463 SWAP2 SWAP1 PUSH2 0x24BE JUMP JUMPDEST PUSH2 0xB53 JUMP JUMPDEST PUSH1 0x40 MLOAD PUSH2 0x475 SWAP2 SWAP1 PUSH2 0x2B99 JUMP JUMPDEST PUSH1 0x40 MLOAD DUP1 SWAP2 SUB SWAP1 RETURN JUMPDEST PUSH2 0x498 PUSH1 0x4 DUP1 CALLDATASIZE SUB DUP2 ADD SWAP1 PUSH2 0x493 SWAP2 SWAP1 PUSH2 0x232D JUMP JUMPDEST PUSH2 0xB96 JUMP JUMPDEST PUSH1 0x40 MLOAD PUSH2 0x4A5 SWAP2 SWAP1 PUSH2 0x2B99 JUMP JUMPDEST PUSH1 0x40 MLOAD DUP1 SWAP2 SUB SWAP1 RETURN JUMPDEST PUSH2 0x4C8 PUSH1 0x4 DUP1 CALLDATASIZE SUB DUP2 ADD SWAP1 PUSH2 0x4C3 SWAP2 SWAP1 PUSH2 0x2058 JUMP JUMPDEST PUSH2 0xC69 JUMP JUMPDEST PUSH1 0x40 MLOAD PUSH2 0x4D5 SWAP2 SWAP1 PUSH2 0x2B99 JUMP JUMPDEST PUSH1 0x40 MLOAD DUP1 SWAP2 SUB SWAP1 RETURN JUMPDEST PUSH2 0x4F8 PUSH1 0x4 DUP1 CALLDATASIZE SUB DUP2 ADD SWAP1 PUSH2 0x4F3 SWAP2 SWAP1 PUSH2 0x236E JUMP JUMPDEST PUSH2 0xCD2 JUMP JUMPDEST PUSH1 0x40 MLOAD PUSH2 0x505 SWAP2 SWAP1 PUSH2 0x2B99 JUMP JUMPDEST PUSH1 0x40 MLOAD DUP1 SWAP2 SUB SWAP1 RETURN JUMPDEST PUSH2 0x528 PUSH1 0x4 DUP1 CALLDATASIZE SUB DUP2 ADD SWAP1 PUSH2 0x523 SWAP2 SWAP1 PUSH2 0x23D8 JUMP JUMPDEST PUSH2 0xDFD JUMP JUMPDEST PUSH1 0x40 MLOAD PUSH2 0x535 SWAP2 SWAP1 PUSH2 0x2B99 JUMP JUMPDEST PUSH1 0x40 MLOAD DUP1 SWAP2 SUB SWAP1 RETURN JUMPDEST PUSH2 0x558 PUSH1 0x4 DUP1 CALLDATASIZE SUB DUP2 ADD SWAP1 PUSH2 0x553 SWAP2 SWAP1 PUSH2 0x22C3 JUMP JUMPDEST PUSH2 0xEC1 JUMP JUMPDEST PUSH1 0x40 MLOAD PUSH2 0x565 SWAP2 SWAP1 PUSH2 0x2B99 JUMP JUMPDEST PUSH1 0x40 MLOAD DUP1 SWAP2 SUB SWAP1 RETURN JUMPDEST PUSH2 0x588 PUSH1 0x4 DUP1 CALLDATASIZE SUB DUP2 ADD SWAP1 PUSH2 0x583 SWAP2 SWAP1 PUSH2 0x215C JUMP JUMPDEST PUSH2 0xEF7 JUMP JUMPDEST PUSH1 0x40 MLOAD PUSH2 0x595 SWAP2 SWAP1 PUSH2 0x2B99 JUMP JUMPDEST PUSH1 0x40 MLOAD DUP1 SWAP2 SUB SWAP1 RETURN JUMPDEST PUSH2 0x5B8 PUSH1 0x4 DUP1 CALLDATASIZE SUB DUP2 ADD SWAP1 PUSH2 0x5B3 SWAP2 SWAP1 PUSH2 0x2495 JUMP JUMPDEST PUSH2 0xF68 JUMP JUMPDEST PUSH1 0x40 MLOAD PUSH2 0x5C5 SWAP2 SWAP1 PUSH2 0x2B99 JUMP JUMPDEST PUSH1 0x40 MLOAD DUP1 SWAP2 SUB SWAP1 RETURN JUMPDEST PUSH2 0x5E8 PUSH1 0x4 DUP1 CALLDATASIZE SUB DUP2 ADD SWAP1 PUSH2 0x5E3 SWAP2 SWAP1 PUSH2 0x2442 JUMP JUMPDEST PUSH2 0xFAB JUMP JUMPDEST PUSH1 0x40 MLOAD PUSH2 0x5F5 SWAP2 SWAP1 PUSH2 0x2B99 JUMP JUMPDEST PUSH1 0x40 MLOAD DUP1 SWAP2 SUB SWAP1 RETURN JUMPDEST PUSH2 0x618 PUSH1 0x4 DUP1 CALLDATASIZE SUB DUP2 ADD SWAP1 PUSH2 0x613 SWAP2 SWAP1 PUSH2 0x23AF JUMP JUMPDEST PUSH2 0x1034 JUMP JUMPDEST PUSH1 0x40 MLOAD PUSH2 0x625 SWAP2 SWAP1 PUSH2 0x2B99 JUMP JUMPDEST PUSH1 0x40 MLOAD DUP1 SWAP2 SUB SWAP1 RETURN JUMPDEST PUSH2 0x648 PUSH1 0x4 DUP1 CALLDATASIZE SUB DUP2 ADD SWAP1 PUSH2 0x643 SWAP2 SWAP1 PUSH2 0x20DA JUMP JUMPDEST PUSH2 0x1077 JUMP JUMPDEST PUSH1 0x40 MLOAD PUSH2 0x655 SWAP2 SWAP1 PUSH2 0x2B99 JUMP JUMPDEST PUSH1 0x40 MLOAD DUP1 SWAP2 SUB SWAP1 RETURN JUMPDEST PUSH2 0x678 PUSH1 0x4 DUP1 CALLDATASIZE SUB DUP2 ADD SWAP1 PUSH2 0x673 SWAP2 SWAP1 PUSH2 0x25A4 JUMP JUMPDEST PUSH2 0x10E8 JUMP JUMPDEST PUSH1 0x40 MLOAD PUSH2 0x685 SWAP2 SWAP1 PUSH2 0x2B99 JUMP JUMPDEST PUSH1 0x40 MLOAD DUP1 SWAP2 SUB SWAP1 RETURN JUMPDEST PUSH2 0x6A8 PUSH1 0x4 DUP1 CALLDATASIZE SUB DUP2 ADD SWAP1 PUSH2 0x6A3 SWAP2 SWAP1 PUSH2 0x219D JUMP JUMPDEST PUSH2 0x111E JUMP JUMPDEST PUSH1 0x40 MLOAD PUSH2 0x6B5 SWAP2 SWAP1 PUSH2 0x2B99 JUMP JUMPDEST PUSH1 0x40 MLOAD DUP1 SWAP2 SUB SWAP1 RETURN JUMPDEST PUSH2 0x6D8 PUSH1 0x4 DUP1 CALLDATASIZE SUB DUP2 ADD SWAP1 PUSH2 0x6D3 SWAP2 SWAP1 PUSH2 0x2529 JUMP JUMPDEST PUSH2 0x118F JUMP JUMPDEST PUSH1 0x40 MLOAD PUSH2 0x6E5 SWAP2 SWAP1 PUSH2 0x2B99 JUMP JUMPDEST PUSH1 0x40 MLOAD DUP1 SWAP2 SUB SWAP1 RETURN JUMPDEST PUSH2 0x708 PUSH1 0x4 DUP1 CALLDATASIZE SUB DUP2 ADD SWAP1 PUSH2 0x703 SWAP2 SWAP1 PUSH2 0x257B JUMP JUMPDEST PUSH2 0x11C5 JUMP JUMPDEST PUSH1 0x40 MLOAD PUSH2 0x715 SWAP2 SWAP1 PUSH2 0x2B99 JUMP JUMPDEST PUSH1 0x40 MLOAD DUP1 SWAP2 SUB SWAP1 RETURN JUMPDEST PUSH2 0x738 PUSH1 0x4 DUP1 CALLDATASIZE SUB DUP2 ADD SWAP1 PUSH2 0x733 SWAP2 SWAP1 PUSH2 0x2099 JUMP JUMPDEST PUSH2 0x11FB JUMP JUMPDEST PUSH1 0x40 MLOAD PUSH2 0x745 SWAP2 SWAP1 PUSH2 0x2B99 JUMP JUMPDEST PUSH1 0x40 MLOAD DUP1 SWAP2 SUB SWAP1 RETURN JUMPDEST PUSH2 0x768 PUSH1 0x4 DUP1 CALLDATASIZE SUB DUP2 ADD SWAP1 PUSH2 0x763 SWAP2 SWAP1 PUSH2 0x229A JUMP JUMPDEST PUSH2 0x1264 JUMP JUMPDEST PUSH1 0x40 MLOAD PUSH2 0x775 SWAP2 SWAP1 PUSH2 0x2B99 JUMP JUMPDEST PUSH1 0x40 MLOAD DUP1 SWAP2 SUB SWAP1 RETURN JUMPDEST PUSH1 0x60 DUP2 PUSH1 0x40 MLOAD PUSH1 0x20 ADD PUSH2 0x791 SWAP2 SWAP1 PUSH2 0x27E9 JUMP JUMPDEST PUSH1 0x40 MLOAD PUSH1 0x20 DUP2 DUP4 SUB SUB DUP2 MSTORE SWAP1 PUSH1 0x40 MSTORE SWAP1 POP SWAP2 SWAP1 POP JUMP JUMPDEST PUSH1 0x60 PUSH1 0x0 DUP3 MLOAD SWAP1 POP PUSH1 0x60 DUP2 PUSH8 0xFFFFFFFFFFFFFFFF DUP2 GT DUP1 ISZERO PUSH2 0x7C8 JUMPI PUSH1 0x0 DUP1 REVERT JUMPDEST POP PUSH1 0x40 MLOAD SWAP1 DUP1 DUP3 MSTORE DUP1 PUSH1 0x1F ADD PUSH1 0x1F NOT AND PUSH1 0x20 ADD DUP3 ADD PUSH1 0x40 MSTORE DUP1 ISZERO PUSH2 0x7FB JUMPI DUP2 PUSH1 0x20 ADD PUSH1 0x1 DUP3 MUL DUP1 CALLDATASIZE DUP4 CALLDATACOPY DUP1 DUP3 ADD SWAP2 POP POP SWAP1 POP JUMPDEST POP SWAP1 POP PUSH1 0x0 JUMPDEST DUP3 DUP2 LT ISZERO PUSH2 0x86D JUMPI DUP5 PUSH1 0x1 DUP3 DUP6 SUB SUB DUP2 MLOAD DUP2 LT PUSH2 0x81A JUMPI INVALID JUMPDEST PUSH1 0x20 ADD ADD MLOAD PUSH1 0xF8 SHR PUSH1 0xF8 SHL DUP3 DUP3 DUP2 MLOAD DUP2 LT PUSH2 0x831 JUMPI INVALID JUMPDEST PUSH1 0x20 ADD ADD SWAP1 PUSH31 0xFFFFFFFFFFFFFFFFFFFFFFFFFFFFFFFFFFFFFFFFFFFFFFFFFFFFFFFFFFFFFF NOT AND SWAP1 DUP2 PUSH1 0x0 BYTE SWAP1 MSTORE8 POP DUP1 DUP1 PUSH1 0x1 ADD SWAP2 POP POP PUSH2 0x801 JUMP JUMPDEST DUP2 SWAP4 POP POP POP POP SWAP2 SWAP1 POP JUMP JUMPDEST PUSH1 0x60 DUP1 DUP3 PUSH1 0x40 MLOAD PUSH1 0x20 ADD PUSH2 0x88C SWAP2 SWAP1 PUSH2 0x2B63 JUMP JUMPDEST PUSH1 0x40 MLOAD PUSH1 0x20 DUP2 DUP4 SUB SUB DUP2 MSTORE SWAP1 PUSH1 0x40 MSTORE SWAP1 POP PUSH2 0x8A6 DUP2 PUSH2 0x7A7 JUMP JUMPDEST SWAP2 POP POP SWAP2 SWAP1 POP JUMP JUMPDEST PUSH1 0x60 PUSH2 0x8BD DUP3 PUSH1 0x0 ADD MLOAD PUSH2 0x10E8 JUMP JUMPDEST PUSH2 0x8CA DUP4 PUSH1 0x20 ADD MLOAD PUSH2 0xABE JUMP JUMPDEST PUSH1 0x40 MLOAD PUSH1 0x20 ADD PUSH2 0x8DB SWAP3 SWAP2 SWAP1 PUSH2 0x281F JUMP JUMPDEST PUSH1 0x40 MLOAD PUSH1 0x20 DUP2 DUP4 SUB SUB DUP2 MSTORE SWAP1 PUSH1 0x40 MSTORE SWAP1 POP SWAP2 SWAP1 POP JUMP JUMPDEST PUSH1 0x60 PUSH2 0x91B DUP3 PUSH1 0x40 MLOAD PUSH1 0x20 ADD PUSH2 0x907 SWAP2 SWAP1 PUSH2 0x27CE JUMP JUMPDEST PUSH1 0x40 MLOAD PUSH1 0x20 DUP2 DUP4 SUB SUB DUP2 MSTORE SWAP1 PUSH1 0x40 MSTORE PUSH2 0x7A7 JUMP JUMPDEST SWAP1 POP SWAP2 SWAP1 POP JUMP JUMPDEST PUSH1 0x60 PUSH2 0x931 DUP3 PUSH1 0x0 ADD MLOAD PUSH2 0xABE JUMP JUMPDEST PUSH2 0x93E DUP4 PUSH1 0x20 ADD MLOAD PUSH2 0xA35 JUMP JUMPDEST PUSH1 0x40 MLOAD PUSH1 0x20 ADD PUSH2 0x94F SWAP3 SWAP2 SWAP1 PUSH2 0x281F JUMP JUMPDEST PUSH1 0x40 MLOAD PUSH1 0x20 DUP2 DUP4 SUB SUB DUP2 MSTORE SWAP1 PUSH1 0x40 MSTORE SWAP1 POP SWAP2 SWAP1 POP JUMP JUMPDEST PUSH1 0x60 DUP1 DUP3 PUSH1 0x40 MLOAD PUSH1 0x20 ADD PUSH2 0x979 SWAP2 SWAP1 PUSH2 0x2A8F JUMP JUMPDEST PUSH1 0x40 MLOAD PUSH1 0x20 DUP2 DUP4 SUB SUB DUP2 MSTORE SWAP1 PUSH1 0x40 MSTORE SWAP1 POP PUSH2 0x993 DUP2 PUSH2 0x7A7 JUMP JUMPDEST SWAP2 POP POP SWAP2 SWAP1 POP JUMP JUMPDEST PUSH1 0x60 DUP2 PUSH1 0x40 MLOAD PUSH1 0x20 ADD PUSH2 0x9AE SWAP2 SWAP1 PUSH2 0x2804 JUMP JUMPDEST PUSH1 0x40 MLOAD PUSH1 0x20 DUP2 DUP4 SUB SUB DUP2 MSTORE SWAP1 PUSH1 0x40 MSTORE SWAP1 POP SWAP2 SWAP1 POP JUMP JUMPDEST PUSH1 0x60 DUP1 PUSH2 0x9D1 DUP4 MLOAD PUSH2 0x11C5 JUMP JUMPDEST SWAP1 POP PUSH1 0x0 JUMPDEST DUP4 MLOAD DUP2 LT ISZERO PUSH2 0xA2B JUMPI DUP2 PUSH2 0x9FC DUP6 DUP4 DUP2 MLOAD DUP2 LT PUSH2 0x9EF JUMPI INVALID JUMPDEST PUSH1 0x20 MUL PUSH1 0x20 ADD ADD MLOAD PUSH2 0xFAB JUMP JUMPDEST PUSH1 0x40 MLOAD PUSH1 0x20 ADD PUSH2 0xA0D SWAP3 SWAP2 SWAP1 PUSH2 0x281F JUMP JUMPDEST PUSH1 0x40 MLOAD PUSH1 0x20 DUP2 DUP4 SUB SUB DUP2 MSTORE SWAP1 PUSH1 0x40 MSTORE SWAP2 POP DUP1 DUP1 PUSH1 0x1 ADD SWAP2 POP POP PUSH2 0x9D6 JUMP JUMPDEST POP DUP1 SWAP2 POP POP SWAP2 SWAP1 POP JUMP JUMPDEST PUSH1 0x60 PUSH2 0xA44 DUP3 PUSH1 0x0 ADD MLOAD PUSH2 0x965 JUMP JUMPDEST PUSH2 0xA51 DUP4 PUSH1 0x20 ADD MLOAD PUSH2 0x965 JUMP JUMPDEST PUSH2 0xA5E DUP5 PUSH1 0x40 ADD MLOAD PUSH2 0xABE JUMP JUMPDEST PUSH2 0xA6B DUP6 PUSH1 0x60 ADD MLOAD PUSH2 0x10E8 JUMP JUMPDEST PUSH2 0xA78 DUP7 PUSH1 0x80 ADD MLOAD PUSH2 0x11C5 JUMP JUMPDEST PUSH2 0xA85 DUP8 PUSH1 0xA0 ADD MLOAD PUSH2 0x11C5 JUMP JUMPDEST PUSH2 0xA92 DUP9 PUSH1 0xC0 ADD MLOAD PUSH2 0x11C5 JUMP JUMPDEST PUSH1 0x40 MLOAD PUSH1 0x20 ADD PUSH2 0xAA8 SWAP8 SWAP7 SWAP6 SWAP5 SWAP4 SWAP3 SWAP2 SWAP1 PUSH2 0x289B JUMP JUMPDEST PUSH1 0x40 MLOAD PUSH1 0x20 DUP2 DUP4 SUB SUB DUP2 MSTORE SWAP1 PUSH1 0x40 MSTORE SWAP1 POP SWAP2 SWAP1 POP JUMP JUMPDEST PUSH1 0x60 DUP1 DUP3 PUSH1 0x40 MLOAD PUSH1 0x20 ADD PUSH2 0xAD2 SWAP2 SWAP1 PUSH2 0x2AF7 JUMP JUMPDEST PUSH1 0x40 MLOAD PUSH1 0x20 DUP2 DUP4 SUB SUB DUP2 MSTORE SWAP1 PUSH1 0x40 MSTORE SWAP1 POP PUSH2 0xAEC DUP2 PUSH2 0x7A7 JUMP JUMPDEST SWAP2 POP POP SWAP2 SWAP1 POP JUMP JUMPDEST PUSH1 0x60 DUP1 DUP3 PUSH1 0x40 MLOAD PUSH1 0x20 ADD PUSH2 0xB08 SWAP2 SWAP1 PUSH2 0x2B7E JUMP JUMPDEST PUSH1 0x40 MLOAD PUSH1 0x20 DUP2 DUP4 SUB SUB DUP2 MSTORE SWAP1 PUSH1 0x40 MSTORE SWAP1 POP PUSH2 0xB22 DUP2 PUSH2 0x7A7 JUMP JUMPDEST SWAP2 POP POP SWAP2 SWAP1 POP JUMP JUMPDEST PUSH1 0x60 DUP2 PUSH1 0x40 MLOAD PUSH1 0x20 ADD PUSH2 0xB3D SWAP2 SWAP1 PUSH2 0x2AE0 JUMP JUMPDEST PUSH1 0x40 MLOAD PUSH1 0x20 DUP2 DUP4 SUB SUB DUP2 MSTORE SWAP1 PUSH1 0x40 MSTORE SWAP1 POP SWAP2 SWAP1 POP JUMP JUMPDEST PUSH1 0x60 PUSH2 0xB62 DUP3 PUSH1 0x0 ADD MLOAD PUSH2 0xABE JUMP JUMPDEST PUSH2 0xB6F DUP4 PUSH1 0x20 ADD MLOAD PUSH2 0xB96 JUMP JUMPDEST PUSH1 0x40 MLOAD PUSH1 0x20 ADD PUSH2 0xB80 SWAP3 SWAP2 SWAP1 PUSH2 0x281F JUMP JUMPDEST PUSH1 0x40 MLOAD PUSH1 0x20 DUP2 DUP4 SUB SUB DUP2 MSTORE SWAP1 PUSH1 0x40 MSTORE SWAP1 POP SWAP2 SWAP1 POP JUMP JUMPDEST PUSH1 0x60 PUSH2 0xBA5 DUP3 PUSH1 0x0 ADD MLOAD PUSH2 0xEC1 JUMP JUMPDEST PUSH2 0xBB2 DUP4 PUSH1 0x20 ADD MLOAD PUSH2 0xEC1 JUMP JUMPDEST PUSH2 0xBBF DUP5 PUSH1 0x40 ADD MLOAD PUSH2 0xEC1 JUMP JUMPDEST PUSH2 0xBCC DUP6 PUSH1 0x60 ADD MLOAD PUSH2 0xEC1 JUMP JUMPDEST PUSH2 0xBD9 DUP7 PUSH1 0x80 ADD MLOAD PUSH2 0x11FB JUMP JUMPDEST PUSH2 0xBE6 DUP8 PUSH1 0xA0 ADD MLOAD PUSH2 0x11FB JUMP JUMPDEST PUSH2 0xBF3 DUP9 PUSH1 0xC0 ADD MLOAD PUSH2 0x11FB JUMP JUMPDEST PUSH2 0xC00 DUP10 PUSH1 0xE0 ADD MLOAD PUSH2 0x11FB JUMP JUMPDEST PUSH2 0xC0E DUP11 PUSH2 0x100 ADD MLOAD PUSH2 0x11FB JUMP JUMPDEST PUSH2 0xC1C DUP12 PUSH2 0x120 ADD MLOAD PUSH2 0x11FB JUMP JUMPDEST PUSH2 0xC2A DUP13 PUSH2 0x140 ADD MLOAD PUSH2 0x11FB JUMP JUMPDEST PUSH2 0xC38 DUP14 PUSH2 0x160 ADD MLOAD PUSH2 0xC69 JUMP JUMPDEST PUSH1 0x40 MLOAD PUSH1 0x20 ADD PUSH2 0xC53 SWAP13 SWAP12 SWAP11 SWAP10 SWAP9 SWAP8 SWAP7 SWAP6 SWAP5 SWAP4 SWAP3 SWAP2 SWAP1 PUSH2 0x2999 JUMP JUMPDEST PUSH1 0x40 MLOAD PUSH1 0x20 DUP2 DUP4 SUB SUB DUP2 MSTORE SWAP1 PUSH1 0x40 MSTORE SWAP1 POP SWAP2 SWAP1 POP JUMP JUMPDEST PUSH1 0x60 DUP1 PUSH2 0xC76 DUP4 MLOAD PUSH2 0x11C5 JUMP JUMPDEST SWAP1 POP PUSH1 0x0 JUMPDEST DUP4 MLOAD DUP2 LT ISZERO PUSH2 0xCC8 JUMPI DUP2 DUP5 DUP3 DUP2 MLOAD DUP2 LT PUSH2 0xC91 JUMPI INVALID JUMPDEST PUSH1 0x20 MUL PUSH1 0x20 ADD ADD MLOAD PUSH1 0x40 MLOAD PUSH1 0x20 ADD PUSH2 0xCAA SWAP3 SWAP2 SWAP1 PUSH2 0x2A3F JUMP JUMPDEST PUSH1 0x40 MLOAD PUSH1 0x20 DUP2 DUP4 SUB SUB DUP2 MSTORE SWAP1 PUSH1 0x40 MSTORE SWAP2 POP DUP1 DUP1 PUSH1 0x1 ADD SWAP2 POP POP PUSH2 0xC7B JUMP JUMPDEST POP DUP1 SWAP2 POP POP SWAP2 SWAP1 POP JUMP JUMPDEST PUSH1 0x60 DUP1 PUSH2 0xCE2 DUP4 PUSH1 0x0 ADD MLOAD PUSH2 0xAF4 JUMP JUMPDEST PUSH2 0xCEF DUP5 PUSH1 0x20 ADD MLOAD PUSH2 0x10E8 JUMP JUMPDEST PUSH2 0xCFC DUP6 PUSH1 0x40 ADD MLOAD PUSH2 0xABE JUMP JUMPDEST PUSH2 0xD09 DUP7 PUSH1 0x60 ADD MLOAD PUSH2 0x10E8 JUMP JUMPDEST PUSH2 0xD16 DUP8 PUSH1 0x80 ADD MLOAD PUSH2 0x10E8 JUMP JUMPDEST PUSH2 0xD23 DUP9 PUSH1 0xA0 ADD MLOAD PUSH2 0xABE JUMP JUMPDEST PUSH2 0xD30 DUP10 PUSH1 0xC0 ADD MLOAD PUSH2 0xABE JUMP JUMPDEST PUSH1 0x40 MLOAD PUSH1 0x20 ADD PUSH2 0xD46 SWAP8 SWAP7 SWAP6 SWAP5 SWAP4 SWAP3 SWAP2 SWAP1 PUSH2 0x289B JUMP JUMPDEST PUSH1 0x40 MLOAD PUSH1 0x20 DUP2 DUP4 SUB SUB DUP2 MSTORE SWAP1 PUSH1 0x40 MSTORE SWAP1 POP PUSH1 0x60 PUSH2 0xD66 DUP5 PUSH1 0xE0 ADD MLOAD PUSH2 0x1264 JUMP JUMPDEST PUSH2 0xD74 DUP6 PUSH2 0x100 ADD MLOAD PUSH2 0x1077 JUMP JUMPDEST PUSH2 0xD82 DUP7 PUSH2 0x120 ADD MLOAD PUSH2 0x1077 JUMP JUMPDEST PUSH2 0xD90 DUP8 PUSH2 0x140 ADD MLOAD PUSH2 0x11C5 JUMP JUMPDEST PUSH2 0xD9E DUP9 PUSH2 0x180 ADD MLOAD PUSH2 0x8F1 JUMP JUMPDEST PUSH2 0xDAC DUP10 PUSH2 0x1A0 ADD MLOAD PUSH2 0x1264 JUMP JUMPDEST PUSH1 0x40 MLOAD PUSH1 0x20 ADD PUSH2 0xDC1 SWAP7 SWAP6 SWAP5 SWAP4 SWAP3 SWAP2 SWAP1 PUSH2 0x2843 JUMP JUMPDEST PUSH1 0x40 MLOAD PUSH1 0x20 DUP2 DUP4 SUB SUB DUP2 MSTORE SWAP1 PUSH1 0x40 MSTORE SWAP1 POP DUP2 DUP2 PUSH1 0x40 MLOAD PUSH1 0x20 ADD PUSH2 0xDE5 SWAP3 SWAP2 SWAP1 PUSH2 0x281F JUMP JUMPDEST PUSH1 0x40 MLOAD PUSH1 0x20 DUP2 DUP4 SUB SUB DUP2 MSTORE SWAP1 PUSH1 0x40 MSTORE SWAP3 POP POP POP SWAP2 SWAP1 POP JUMP JUMPDEST PUSH1 0x60 PUSH2 0xE0C DUP3 PUSH1 0x0 ADD MLOAD PUSH2 0x10E8 JUMP JUMPDEST PUSH2 0xE19 DUP4 PUSH1 0x20 ADD MLOAD PUSH2 0x10E8 JUMP JUMPDEST PUSH2 0xE26 DUP5 PUSH1 0x40 ADD MLOAD PUSH2 0x8AE JUMP JUMPDEST PUSH2 0xE33 DUP6 PUSH1 0x60 ADD MLOAD PUSH2 0xABE JUMP JUMPDEST PUSH2 0xE40 DUP7 PUSH1 0x80 ADD MLOAD PUSH2 0x10E8 JUMP JUMPDEST PUSH2 0xE4D DUP8 PUSH1 0xA0 ADD MLOAD PUSH2 0xB96 JUMP JUMPDEST PUSH2 0xE5A DUP9 PUSH1 0xC0 ADD MLOAD PUSH2 0xF68 JUMP JUMPDEST PUSH2 0xE67 DUP10 PUSH1 0xE0 ADD MLOAD PUSH2 0x11C5 JUMP JUMPDEST PUSH2 0xE75 DUP11 PUSH2 0x100 ADD MLOAD PUSH2 0x10E8 JUMP JUMPDEST PUSH2 0xE83 DUP12 PUSH2 0x120 ADD MLOAD PUSH2 0xEF7 JUMP JUMPDEST PUSH2 0xE91 DUP13 PUSH2 0x140 ADD MLOAD PUSH2 0x111E JUMP JUMPDEST PUSH1 0x40 MLOAD PUSH1 0x20 ADD PUSH2 0xEAB SWAP12 SWAP11 SWAP10 SWAP9 SWAP8 SWAP7 SWAP6 SWAP5 SWAP4 SWAP3 SWAP2 SWAP1 PUSH2 0x2900 JUMP JUMPDEST PUSH1 0x40 MLOAD PUSH1 0x20 DUP2 DUP4 SUB SUB DUP2 MSTORE SWAP1 PUSH1 0x40 MSTORE SWAP1 POP SWAP2 SWAP1 POP JUMP JUMPDEST PUSH1 0x60 DUP1 DUP3 PUSH1 0x40 MLOAD PUSH1 0x20 ADD PUSH2 0xED5 SWAP2 SWAP1 PUSH2 0x2AC5 JUMP JUMPDEST PUSH1 0x40 MLOAD PUSH1 0x20 DUP2 DUP4 SUB SUB DUP2 MSTORE SWAP1 PUSH1 0x40 MSTORE SWAP1 POP PUSH2 0xEEF DUP2 PUSH2 0x7A7 JUMP JUMPDEST SWAP2 POP POP SWAP2 SWAP1 POP JUMP JUMPDEST PUSH1 0x60 DUP1 PUSH2 0xF04 DUP4 MLOAD PUSH2 0x11C5 JUMP JUMPDEST SWAP1 POP PUSH1 0x0 JUMPDEST DUP4 MLOAD DUP2 LT ISZERO PUSH2 0xF5E JUMPI DUP2 PUSH2 0xF2F DUP6 DUP4 DUP2 MLOAD DUP2 LT PUSH2 0xF22 JUMPI INVALID JUMPDEST PUSH1 0x20 MUL PUSH1 0x20 ADD ADD MLOAD PUSH2 0xB53 JUMP JUMPDEST PUSH1 0x40 MLOAD PUSH1 0x20 ADD PUSH2 0xF40 SWAP3 SWAP2 SWAP1 PUSH2 0x281F JUMP JUMPDEST PUSH1 0x40 MLOAD PUSH1 0x20 DUP2 DUP4 SUB SUB DUP2 MSTORE SWAP1 PUSH1 0x40 MSTORE SWAP2 POP DUP1 DUP1 PUSH1 0x1 ADD SWAP2 POP POP PUSH2 0xF09 JUMP JUMPDEST POP DUP1 SWAP2 POP POP SWAP2 SWAP1 POP JUMP JUMPDEST PUSH1 0x60 PUSH2 0xF77 DUP3 PUSH1 0x0 ADD MLOAD PUSH2 0x11C5 JUMP JUMPDEST PUSH2 0xF84 DUP4 PUSH1 0x20 ADD MLOAD PUSH2 0x10E8 JUMP JUMPDEST PUSH1 0x40 MLOAD PUSH1 0x20 ADD PUSH2 0xF95 SWAP3 SWAP2 SWAP1 PUSH2 0x281F JUMP JUMPDEST PUSH1 0x40 MLOAD PUSH1 0x20 DUP2 DUP4 SUB SUB DUP2 MSTORE SWAP1 PUSH1 0x40 MSTORE SWAP1 POP SWAP2 SWAP1 POP JUMP JUMPDEST PUSH1 0x60 PUSH2 0xFBA DUP3 PUSH1 0x0 ADD MLOAD PUSH2 0x10E8 JUMP JUMPDEST PUSH2 0xFC7 DUP4 PUSH1 0x20 ADD MLOAD PUSH2 0x1034 JUMP JUMPDEST PUSH2 0xFD4 DUP5 PUSH1 0x40 ADD MLOAD PUSH2 0x10E8 JUMP JUMPDEST PUSH2 0xFE1 DUP6 PUSH1 0x60 ADD MLOAD PUSH2 0xABE JUMP JUMPDEST PUSH2 0xFEE DUP7 PUSH1 0x80 ADD MLOAD PUSH2 0x11C5 JUMP JUMPDEST PUSH2 0xFFB DUP8 PUSH1 0xC0 ADD MLOAD PUSH2 0xABE JUMP JUMPDEST PUSH2 0x1008 DUP9 PUSH1 0xA0 ADD MLOAD PUSH2 0x8AE JUMP JUMPDEST PUSH1 0x40 MLOAD PUSH1 0x20 ADD PUSH2 0x101E SWAP8 SWAP7 SWAP6 SWAP5 SWAP4 SWAP3 SWAP2 SWAP1 PUSH2 0x289B JUMP JUMPDEST PUSH1 0x40 MLOAD PUSH1 0x20 DUP2 DUP4 SUB SUB DUP2 MSTORE SWAP1 PUSH1 0x40 MSTORE SWAP1 POP SWAP2 SWAP1 POP JUMP JUMPDEST PUSH1 0x60 PUSH2 0x1043 DUP3 PUSH1 0x0 ADD MLOAD PUSH2 0xABE JUMP JUMPDEST PUSH2 0x1050 DUP4 PUSH1 0x20 ADD MLOAD PUSH2 0x878 JUMP JUMPDEST PUSH1 0x40 MLOAD PUSH1 0x20 ADD PUSH2 0x1061 SWAP3 SWAP2 SWAP1 PUSH2 0x281F JUMP JUMPDEST PUSH1 0x40 MLOAD PUSH1 0x20 DUP2 DUP4 SUB SUB DUP2 MSTORE SWAP1 PUSH1 0x40 MSTORE SWAP1 POP SWAP2 SWAP1 POP JUMP JUMPDEST PUSH1 0x60 DUP1 PUSH2 0x1084 DUP4 MLOAD PUSH2 0x11C5 JUMP JUMPDEST SWAP1 POP PUSH1 0x0 JUMPDEST DUP4 MLOAD DUP2 LT ISZERO PUSH2 0x10DE JUMPI DUP2 PUSH2 0x10AF DUP6 DUP4 DUP2 MLOAD DUP2 LT PUSH2 0x10A2 JUMPI INVALID JUMPDEST PUSH1 0x20 MUL PUSH1 0x20 ADD ADD MLOAD PUSH2 0x1034 JUMP JUMPDEST PUSH1 0x40 MLOAD PUSH1 0x20 ADD PUSH2 0x10C0 SWAP3 SWAP2 SWAP1 PUSH2 0x281F JUMP JUMPDEST PUSH1 0x40 MLOAD PUSH1 0x20 DUP2 DUP4 SUB SUB DUP2 MSTORE SWAP1 PUSH1 0x40 MSTORE SWAP2 POP DUP1 DUP1 PUSH1 0x1 ADD SWAP2 POP POP PUSH2 0x1089 JUMP JUMPDEST POP DUP1 SWAP2 POP POP SWAP2 SWAP1 POP JUMP JUMPDEST PUSH1 0x60 DUP1 DUP3 PUSH1 0x40 MLOAD PUSH1 0x20 ADD PUSH2 0x10FC SWAP2 SWAP1 PUSH2 0x2B48 JUMP JUMPDEST PUSH1 0x40 MLOAD PUSH1 0x20 DUP2 DUP4 SUB SUB DUP2 MSTORE SWAP1 PUSH1 0x40 MSTORE SWAP1 POP PUSH2 0x1116 DUP2 PUSH2 0x7A7 JUMP JUMPDEST SWAP2 POP POP SWAP2 SWAP1 POP JUMP JUMPDEST PUSH1 0x60 DUP1 PUSH2 0x112B DUP4 MLOAD PUSH2 0x11C5 JUMP JUMPDEST SWAP1 POP PUSH1 0x0 JUMPDEST DUP4 MLOAD DUP2 LT ISZERO PUSH2 0x1185 JUMPI DUP2 PUSH2 0x1156 DUP6 DUP4 DUP2 MLOAD DUP2 LT PUSH2 0x1149 JUMPI INVALID JUMPDEST PUSH1 0x20 MUL PUSH1 0x20 ADD ADD MLOAD PUSH2 0x922 JUMP JUMPDEST PUSH1 0x40 MLOAD PUSH1 0x20 ADD PUSH2 0x1167 SWAP3 SWAP2 SWAP1 PUSH2 0x281F JUMP JUMPDEST PUSH1 0x40 MLOAD PUSH1 0x20 DUP2 DUP4 SUB SUB DUP2 MSTORE SWAP1 PUSH1 0x40 MSTORE SWAP2 POP DUP1 DUP1 PUSH1 0x1 ADD SWAP2 POP POP PUSH2 0x1130 JUMP JUMPDEST POP DUP1 SWAP2 POP POP SWAP2 SWAP1 POP JUMP JUMPDEST PUSH1 0x60 DUP1 DUP3 PUSH1 0x40 MLOAD PUSH1 0x20 ADD PUSH2 0x11A3 SWAP2 SWAP1 PUSH2 0x2B12 JUMP JUMPDEST PUSH1 0x40 MLOAD PUSH1 0x20 DUP2 DUP4 SUB SUB DUP2 MSTORE SWAP1 PUSH1 0x40 MSTORE SWAP1 POP PUSH2 0x11BD DUP2 PUSH2 0x7A7 JUMP JUMPDEST SWAP2 POP POP SWAP2 SWAP1 POP JUMP JUMPDEST PUSH1 0x60 DUP1 DUP3 PUSH1 0x40 MLOAD PUSH1 0x20 ADD PUSH2 0x11D9 SWAP2 SWAP1 PUSH2 0x2B2D JUMP JUMPDEST PUSH1 0x40 MLOAD PUSH1 0x20 DUP2 DUP4 SUB SUB DUP2 MSTORE SWAP1 PUSH1 0x40 MSTORE SWAP1 POP PUSH2 0x11F3 DUP2 PUSH2 0x7A7 JUMP JUMPDEST SWAP2 POP POP SWAP2 SWAP1 POP JUMP JUMPDEST PUSH1 0x60 DUP1 PUSH2 0x1208 DUP4 MLOAD PUSH2 0x11C5 JUMP JUMPDEST SWAP1 POP PUSH1 0x0 JUMPDEST DUP4 MLOAD DUP2 LT ISZERO PUSH2 0x125A JUMPI DUP2 DUP5 DUP3 DUP2 MLOAD DUP2 LT PUSH2 0x1223 JUMPI INVALID JUMPDEST PUSH1 0x20 MUL PUSH1 0x20 ADD ADD MLOAD PUSH1 0x40 MLOAD PUSH1 0x20 ADD PUSH2 0x123C SWAP3 SWAP2 SWAP1 PUSH2 0x2A67 JUMP JUMPDEST PUSH1 0x40 MLOAD PUSH1 0x20 DUP2 DUP4 SUB SUB DUP2 MSTORE SWAP1 PUSH1 0x40 MSTORE SWAP2 POP DUP1 DUP1 PUSH1 0x1 ADD SWAP2 POP POP PUSH2 0x120D JUMP JUMPDEST POP DUP1 SWAP2 POP POP SWAP2 SWAP1 POP JUMP JUMPDEST PUSH1 0x60 DUP1 DUP3 PUSH1 0x40 MLOAD PUSH1 0x20 ADD PUSH2 0x1278 SWAP2 SWAP1 PUSH2 0x2AAA JUMP JUMPDEST PUSH1 0x40 MLOAD PUSH1 0x20 DUP2 DUP4 SUB SUB DUP2 MSTORE SWAP1 PUSH1 0x40 MSTORE SWAP1 POP PUSH2 0x1292 DUP2 PUSH2 0x7A7 JUMP JUMPDEST SWAP2 POP POP SWAP2 SWAP1 POP JUMP JUMPDEST PUSH1 0x0 DUP2 CALLDATALOAD SWAP1 POP PUSH2 0x12A9 DUP2 PUSH2 0x2FCB JUMP JUMPDEST SWAP3 SWAP2 POP POP JUMP JUMPDEST PUSH1 0x0 DUP3 PUSH1 0x1F DUP4 ADD SLT PUSH2 0x12C0 JUMPI PUSH1 0x0 DUP1 REVERT JUMPDEST DUP2 CALLDATALOAD PUSH2 0x12D3 PUSH2 0x12CE DUP3 PUSH2 0x2BE8 JUMP JUMPDEST PUSH2 0x2BBB JUMP JUMPDEST SWAP2 POP DUP2 DUP2 DUP4 MSTORE PUSH1 0x20 DUP5 ADD SWAP4 POP PUSH1 0x20 DUP2 ADD SWAP1 POP DUP4 DUP6 PUSH1 0x20 DUP5 MUL DUP3 ADD GT ISZERO PUSH2 0x12F8 JUMPI PUSH1 0x0 DUP1 REVERT JUMPDEST PUSH1 0x0 JUMPDEST DUP4 DUP2 LT ISZERO PUSH2 0x1328 JUMPI DUP2 PUSH2 0x130E DUP9 DUP3 PUSH2 0x16BD JUMP JUMPDEST DUP5 MSTORE PUSH1 0x20 DUP5 ADD SWAP4 POP PUSH1 0x20 DUP4 ADD SWAP3 POP POP PUSH1 0x1 DUP2 ADD SWAP1 POP PUSH2 0x12FB JUMP JUMPDEST POP POP POP POP SWAP3 SWAP2 POP POP JUMP JUMPDEST PUSH1 0x0 DUP3 PUSH1 0x1F DUP4 ADD SLT PUSH2 0x1343 JUMPI PUSH1 0x0 DUP1 REVERT JUMPDEST DUP2 CALLDATALOAD PUSH2 0x1356 PUSH2 0x1351 DUP3 PUSH2 0x2C10 JUMP JUMPDEST PUSH2 0x2BBB JUMP JUMPDEST SWAP2 POP DUP2 DUP2 DUP4 MSTORE PUSH1 0x20 DUP5 ADD SWAP4 POP PUSH1 0x20 DUP2 ADD SWAP1 POP DUP4 DUP6 PUSH1 0x20 DUP5 MUL DUP3 ADD GT ISZERO PUSH2 0x137B JUMPI PUSH1 0x0 DUP1 REVERT JUMPDEST PUSH1 0x0 JUMPDEST DUP4 DUP2 LT ISZERO PUSH2 0x13AB JUMPI DUP2 PUSH2 0x1391 DUP9 DUP3 PUSH2 0x16D2 JUMP JUMPDEST DUP5 MSTORE PUSH1 0x20 DUP5 ADD SWAP4 POP PUSH1 0x20 DUP4 ADD SWAP3 POP POP PUSH1 0x1 DUP2 ADD SWAP1 POP PUSH2 0x137E JUMP JUMPDEST POP POP POP POP SWAP3 SWAP2 POP POP JUMP JUMPDEST PUSH1 0x0 DUP3 PUSH1 0x1F DUP4 ADD SLT PUSH2 0x13C6 JUMPI PUSH1 0x0 DUP1 REVERT JUMPDEST DUP2 CALLDATALOAD PUSH2 0x13D9 PUSH2 0x13D4 DUP3 PUSH2 0x2C38 JUMP JUMPDEST PUSH2 0x2BBB JUMP JUMPDEST SWAP2 POP DUP2 DUP2 DUP4 MSTORE PUSH1 0x20 DUP5 ADD SWAP4 POP PUSH1 0x20 DUP2 ADD SWAP1 POP DUP4 DUP6 PUSH1 0x40 DUP5 MUL DUP3 ADD GT ISZERO PUSH2 0x13FE JUMPI PUSH1 0x0 DUP1 REVERT JUMPDEST PUSH1 0x0 JUMPDEST DUP4 DUP2 LT ISZERO PUSH2 0x142E JUMPI DUP2 PUSH2 0x1414 DUP9 DUP3 PUSH2 0x1AAB JUMP JUMPDEST DUP5 MSTORE PUSH1 0x20 DUP5 ADD SWAP4 POP PUSH1 0x40 DUP4 ADD SWAP3 POP POP PUSH1 0x1 DUP2 ADD SWAP1 POP PUSH2 0x1401 JUMP JUMPDEST POP POP POP POP SWAP3 SWAP2 POP POP JUMP JUMPDEST PUSH1 0x0 DUP3 PUSH1 0x1F DUP4 ADD SLT PUSH2 0x1449 JUMPI PUSH1 0x0 DUP1 REVERT JUMPDEST DUP2 CALLDATALOAD PUSH2 0x145C PUSH2 0x1457 DUP3 PUSH2 0x2C60 JUMP JUMPDEST PUSH2 0x2BBB JUMP JUMPDEST SWAP2 POP DUP2 DUP2 DUP4 MSTORE PUSH1 0x20 DUP5 ADD SWAP4 POP PUSH1 0x20 DUP2 ADD SWAP1 POP DUP4 PUSH1 0x0 JUMPDEST DUP4 DUP2 LT ISZERO PUSH2 0x14A2 JUMPI DUP2 CALLDATALOAD DUP7 ADD PUSH2 0x1488 DUP9 DUP3 PUSH2 0x1AF7 JUMP JUMPDEST DUP5 MSTORE PUSH1 0x20 DUP5 ADD SWAP4 POP PUSH1 0x20 DUP4 ADD SWAP3 POP POP PUSH1 0x1 DUP2 ADD SWAP1 POP PUSH2 0x1472 JUMP JUMPDEST POP POP POP POP SWAP3 SWAP2 POP POP JUMP JUMPDEST PUSH1 0x0 DUP3 PUSH1 0x1F DUP4 ADD SLT PUSH2 0x14BD JUMPI PUSH1 0x0 DUP1 REVERT JUMPDEST DUP2 CALLDATALOAD PUSH2 0x14D0 PUSH2 0x14CB DUP3 PUSH2 0x2C88 JUMP JUMPDEST PUSH2 0x2BBB JUMP JUMPDEST SWAP2 POP DUP2 DUP2 DUP4 MSTORE PUSH1 0x20 DUP5 ADD SWAP4 POP PUSH1 0x20 DUP2 ADD SWAP1 POP DUP4 DUP6 PUSH2 0x160 DUP5 MUL DUP3 ADD GT ISZERO PUSH2 0x14F6 JUMPI PUSH1 0x0 DUP1 REVERT JUMPDEST PUSH1 0x0 JUMPDEST DUP4 DUP2 LT ISZERO PUSH2 0x1527 JUMPI DUP2 PUSH2 0x150C DUP9 DUP3 PUSH2 0x1D8A JUMP JUMPDEST DUP5 MSTORE PUSH1 0x20 DUP5 ADD SWAP4 POP PUSH2 0x160 DUP4 ADD SWAP3 POP POP PUSH1 0x1 DUP2 ADD SWAP1 POP PUSH2 0x14F9 JUMP JUMPDEST POP POP POP POP SWAP3 SWAP2 POP POP JUMP JUMPDEST PUSH1 0x0 DUP3 PUSH1 0x1F DUP4 ADD SLT PUSH2 0x1542 JUMPI PUSH1 0x0 DUP1 REVERT JUMPDEST DUP2 CALLDATALOAD PUSH2 0x1555 PUSH2 0x1550 DUP3 PUSH2 0x2CB0 JUMP JUMPDEST PUSH2 0x2BBB JUMP JUMPDEST SWAP2 POP DUP2 DUP2 DUP4 MSTORE PUSH1 0x20 DUP5 ADD SWAP4 POP PUSH1 0x20 DUP2 ADD SWAP1 POP DUP4 PUSH1 0x0 JUMPDEST DUP4 DUP2 LT ISZERO PUSH2 0x159B JUMPI DUP2 CALLDATALOAD DUP7 ADD PUSH2 0x1581 DUP9 DUP3 PUSH2 0x1F00 JUMP JUMPDEST DUP5 MSTORE PUSH1 0x20 DUP5 ADD SWAP4 POP PUSH1 0x20 DUP4 ADD SWAP3 POP POP PUSH1 0x1 DUP2 ADD SWAP1 POP PUSH2 0x156B JUMP JUMPDEST POP POP POP POP SWAP3 SWAP2 POP POP JUMP JUMPDEST PUSH1 0x0 DUP3 PUSH1 0x1F DUP4 ADD SLT PUSH2 0x15B6 JUMPI PUSH1 0x0 DUP1 REVERT JUMPDEST DUP2 CALLDATALOAD PUSH2 0x15C9 PUSH2 0x15C4 DUP3 PUSH2 0x2CD8 JUMP JUMPDEST PUSH2 0x2BBB JUMP JUMPDEST SWAP2 POP DUP2 DUP2 DUP4 MSTORE PUSH1 0x20 DUP5 ADD SWAP4 POP PUSH1 0x20 DUP2 ADD SWAP1 POP DUP4 DUP6 PUSH2 0x100 DUP5 MUL DUP3 ADD GT ISZERO PUSH2 0x15EF JUMPI PUSH1 0x0 DUP1 REVERT JUMPDEST PUSH1 0x0 JUMPDEST DUP4 DUP2 LT ISZERO PUSH2 0x1620 JUMPI DUP2 PUSH2 0x1605 DUP9 DUP3 PUSH2 0x1F64 JUMP JUMPDEST DUP5 MSTORE PUSH1 0x20 DUP5 ADD SWAP4 POP PUSH2 0x100 DUP4 ADD SWAP3 POP POP PUSH1 0x1 DUP2 ADD SWAP1 POP PUSH2 0x15F2 JUMP JUMPDEST POP POP POP POP SWAP3 SWAP2 POP POP JUMP JUMPDEST PUSH1 0x0 DUP2 CALLDATALOAD SWAP1 POP PUSH2 0x1639 DUP2 PUSH2 0x2FE2 JUMP JUMPDEST SWAP3 SWAP2 POP POP JUMP JUMPDEST PUSH1 0x0 DUP2 CALLDATALOAD SWAP1 POP PUSH2 0x164E DUP2 PUSH2 0x2FF9 JUMP JUMPDEST SWAP3 SWAP2 POP POP JUMP JUMPDEST PUSH1 0x0 DUP3 PUSH1 0x1F DUP4 ADD SLT PUSH2 0x1665 JUMPI PUSH1 0x0 DUP1 REVERT JUMPDEST DUP2 CALLDATALOAD PUSH2 0x1678 PUSH2 0x1673 DUP3 PUSH2 0x2D00 JUMP JUMPDEST PUSH2 0x2BBB JUMP JUMPDEST SWAP2 POP DUP1 DUP3 MSTORE PUSH1 0x20 DUP4 ADD PUSH1 0x20 DUP4 ADD DUP6 DUP4 DUP4 ADD GT ISZERO PUSH2 0x1694 JUMPI PUSH1 0x0 DUP1 REVERT JUMPDEST PUSH2 0x169F DUP4 DUP3 DUP5 PUSH2 0x2E6F JUMP JUMPDEST POP POP POP SWAP3 SWAP2 POP POP JUMP JUMPDEST PUSH1 0x0 DUP2 CALLDATALOAD SWAP1 POP PUSH2 0x16B7 DUP2 PUSH2 0x3010 JUMP JUMPDEST SWAP3 SWAP2 POP POP JUMP JUMPDEST PUSH1 0x0 DUP2 CALLDATALOAD SWAP1 POP PUSH2 0x16CC DUP2 PUSH2 0x3027 JUMP JUMPDEST SWAP3 SWAP2 POP POP JUMP JUMPDEST PUSH1 0x0 DUP2 CALLDATALOAD SWAP1 POP PUSH2 0x16E1 DUP2 PUSH2 0x303E JUMP JUMPDEST SWAP3 SWAP2 POP POP JUMP JUMPDEST PUSH1 0x0 DUP3 PUSH1 0x1F DUP4 ADD SLT PUSH2 0x16F8 JUMPI PUSH1 0x0 DUP1 REVERT JUMPDEST DUP2 CALLDATALOAD PUSH2 0x170B PUSH2 0x1706 DUP3 PUSH2 0x2D2C JUMP JUMPDEST PUSH2 0x2BBB JUMP JUMPDEST SWAP2 POP DUP1 DUP3 MSTORE PUSH1 0x20 DUP4 ADD PUSH1 0x20 DUP4 ADD DUP6 DUP4 DUP4 ADD GT ISZERO PUSH2 0x1727 JUMPI PUSH1 0x0 DUP1 REVERT JUMPDEST PUSH2 0x1732 DUP4 DUP3 DUP5 PUSH2 0x2E6F JUMP JUMPDEST POP POP POP SWAP3 SWAP2 POP POP JUMP JUMPDEST PUSH1 0x0 PUSH2 0x180 DUP3 DUP5 SUB SLT ISZERO PUSH2 0x174E JUMPI PUSH1 0x0 DUP1 REVERT JUMPDEST PUSH2 0x1759 PUSH2 0x180 PUSH2 0x2BBB JUMP JUMPDEST SWAP1 POP PUSH1 0x0 PUSH2 0x1769 DUP5 DUP3 DUP6 ADD PUSH2 0x16D2 JUMP JUMPDEST PUSH1 0x0 DUP4 ADD MSTORE POP PUSH1 0x20 PUSH2 0x177D DUP5 DUP3 DUP6 ADD PUSH2 0x16D2 JUMP JUMPDEST PUSH1 0x20 DUP4 ADD MSTORE POP PUSH1 0x40 PUSH2 0x1791 DUP5 DUP3 DUP6 ADD PUSH2 0x16D2 JUMP JUMPDEST PUSH1 0x40 DUP4 ADD MSTORE POP PUSH1 0x60 PUSH2 0x17A5 DUP5 DUP3 DUP6 ADD PUSH2 0x16D2 JUMP JUMPDEST PUSH1 0x60 DUP4 ADD MSTORE POP PUSH1 0x80 DUP3 ADD CALLDATALOAD PUSH8 0xFFFFFFFFFFFFFFFF DUP2 GT ISZERO PUSH2 0x17C5 JUMPI PUSH1 0x0 DUP1 REVERT JUMPDEST PUSH2 0x17D1 DUP5 DUP3 DUP6 ADD PUSH2 0x1332 JUMP JUMPDEST PUSH1 0x80 DUP4 ADD MSTORE POP PUSH1 0xA0 DUP3 ADD CALLDATALOAD PUSH8 0xFFFFFFFFFFFFFFFF DUP2 GT ISZERO PUSH2 0x17F1 JUMPI PUSH1 0x0 DUP1 REVERT JUMPDEST PUSH2 0x17FD DUP5 DUP3 DUP6 ADD PUSH2 0x1332 JUMP JUMPDEST PUSH1 0xA0 DUP4 ADD MSTORE POP PUSH1 0xC0 DUP3 ADD CALLDATALOAD PUSH8 0xFFFFFFFFFFFFFFFF DUP2 GT ISZERO PUSH2 0x181D JUMPI PUSH1 0x0 DUP1 REVERT JUMPDEST PUSH2 0x1829 DUP5 DUP3 DUP6 ADD PUSH2 0x1332 JUMP JUMPDEST PUSH1 0xC0 DUP4 ADD MSTORE POP PUSH1 0xE0 DUP3 ADD CALLDATALOAD PUSH8 0xFFFFFFFFFFFFFFFF DUP2 GT ISZERO PUSH2 0x1849 JUMPI PUSH1 0x0 DUP1 REVERT JUMPDEST PUSH2 0x1855 DUP5 DUP3 DUP6 ADD PUSH2 0x1332 JUMP JUMPDEST PUSH1 0xE0 DUP4 ADD MSTORE POP PUSH2 0x100 DUP3 ADD CALLDATALOAD PUSH8 0xFFFFFFFFFFFFFFFF DUP2 GT ISZERO PUSH2 0x1876 JUMPI PUSH1 0x0 DUP1 REVERT JUMPDEST PUSH2 0x1882 DUP5 DUP3 DUP6 ADD PUSH2 0x1332 JUMP JUMPDEST PUSH2 0x100 DUP4 ADD MSTORE POP PUSH2 0x120 DUP3 ADD CALLDATALOAD PUSH8 0xFFFFFFFFFFFFFFFF DUP2 GT ISZERO PUSH2 0x18A4 JUMPI PUSH1 0x0 DUP1 REVERT JUMPDEST PUSH2 0x18B0 DUP5 DUP3 DUP6 ADD PUSH2 0x1332 JUMP JUMPDEST PUSH2 0x120 DUP4 ADD MSTORE POP PUSH2 0x140 DUP3 ADD CALLDATALOAD PUSH8 0xFFFFFFFFFFFFFFFF DUP2 GT ISZERO PUSH2 0x18D2 JUMPI PUSH1 0x0 DUP1 REVERT JUMPDEST PUSH2 0x18DE DUP5 DUP3 DUP6 ADD PUSH2 0x1332 JUMP JUMPDEST PUSH2 0x140 DUP4 ADD MSTORE POP PUSH2 0x160 DUP3 ADD CALLDATALOAD PUSH8 0xFFFFFFFFFFFFFFFF DUP2 GT ISZERO PUSH2 0x1900 JUMPI PUSH1 0x0 DUP1 REVERT JUMPDEST PUSH2 0x190C DUP5 DUP3 DUP6 ADD PUSH2 0x12AF JUMP JUMPDEST PUSH2 0x160 DUP4 ADD MSTORE POP SWAP3 SWAP2 POP POP JUMP JUMPDEST PUSH1 0x0 PUSH2 0x1C0 DUP3 DUP5 SUB SLT ISZERO PUSH2 0x192C JUMPI PUSH1 0x0 DUP1 REVERT JUMPDEST PUSH2 0x1937 PUSH2 0x1C0 PUSH2 0x2BBB JUMP JUMPDEST SWAP1 POP PUSH1 0x0 PUSH2 0x1947 DUP5 DUP3 DUP6 ADD PUSH2 0x201A JUMP JUMPDEST PUSH1 0x0 DUP4 ADD MSTORE POP PUSH1 0x20 PUSH2 0x195B DUP5 DUP3 DUP6 ADD PUSH2 0x1FF0 JUMP JUMPDEST PUSH1 0x20 DUP4 ADD MSTORE POP PUSH1 0x40 PUSH2 0x196F DUP5 DUP3 DUP6 ADD PUSH2 0x1FC6 JUMP JUMPDEST PUSH1 0x40 DUP4 ADD MSTORE POP PUSH1 0x60 PUSH2 0x1983 DUP5 DUP3 DUP6 ADD PUSH2 0x1FF0 JUMP JUMPDEST PUSH1 0x60 DUP4 ADD MSTORE POP PUSH1 0x80 PUSH2 0x1997 DUP5 DUP3 DUP6 ADD PUSH2 0x1FF0 JUMP JUMPDEST PUSH1 0x80 DUP4 ADD MSTORE POP PUSH1 0xA0 PUSH2 0x19AB DUP5 DUP3 DUP6 ADD PUSH2 0x1FC6 JUMP JUMPDEST PUSH1 0xA0 DUP4 ADD MSTORE POP PUSH1 0xC0 PUSH2 0x19BF DUP5 DUP3 DUP6 ADD PUSH2 0x1FC6 JUMP JUMPDEST PUSH1 0xC0 DUP4 ADD MSTORE POP PUSH1 0xE0 PUSH2 0x19D3 DUP5 DUP3 DUP6 ADD PUSH2 0x16BD JUMP JUMPDEST PUSH1 0xE0 DUP4 ADD MSTORE POP PUSH2 0x100 DUP3 ADD CALLDATALOAD PUSH8 0xFFFFFFFFFFFFFFFF DUP2 GT ISZERO PUSH2 0x19F4 JUMPI PUSH1 0x0 DUP1 REVERT JUMPDEST PUSH2 0x1A00 DUP5 DUP3 DUP6 ADD PUSH2 0x13B5 JUMP JUMPDEST PUSH2 0x100 DUP4 ADD MSTORE POP PUSH2 0x120 DUP3 ADD CALLDATALOAD PUSH8 0xFFFFFFFFFFFFFFFF DUP2 GT ISZERO PUSH2 0x1A22 JUMPI PUSH1 0x0 DUP1 REVERT JUMPDEST PUSH2 0x1A2E DUP5 DUP3 DUP6 ADD PUSH2 0x13B5 JUMP JUMPDEST PUSH2 0x120 DUP4 ADD MSTORE POP PUSH2 0x140 PUSH2 0x1A44 DUP5 DUP3 DUP6 ADD PUSH2 0x1FDB JUMP JUMPDEST PUSH2 0x140 DUP4 ADD MSTORE POP PUSH2 0x160 DUP3 ADD CALLDATALOAD PUSH8 0xFFFFFFFFFFFFFFFF DUP2 GT ISZERO PUSH2 0x1A66 JUMPI PUSH1 0x0 DUP1 REVERT JUMPDEST PUSH2 0x1A72 DUP5 DUP3 DUP6 ADD PUSH2 0x13B5 JUMP JUMPDEST PUSH2 0x160 DUP4 ADD MSTORE POP PUSH2 0x180 PUSH2 0x1A88 DUP5 DUP3 DUP6 ADD PUSH2 0x129A JUMP JUMPDEST PUSH2 0x180 DUP4 ADD MSTORE POP PUSH2 0x1A0 PUSH2 0x1A9E DUP5 DUP3 DUP6 ADD PUSH2 0x16BD JUMP JUMPDEST PUSH2 0x1A0 DUP4 ADD MSTORE POP SWAP3 SWAP2 POP POP JUMP JUMPDEST PUSH1 0x0 PUSH1 0x40 DUP3 DUP5 SUB SLT ISZERO PUSH2 0x1ABD JUMPI PUSH1 0x0 DUP1 REVERT JUMPDEST PUSH2 0x1AC7 PUSH1 0x40 PUSH2 0x2BBB JUMP JUMPDEST SWAP1 POP PUSH1 0x0 PUSH2 0x1AD7 DUP5 DUP3 DUP6 ADD PUSH2 0x1FC6 JUMP JUMPDEST PUSH1 0x0 DUP4 ADD MSTORE POP PUSH1 0x20 PUSH2 0x1AEB DUP5 DUP3 DUP6 ADD PUSH2 0x2005 JUMP JUMPDEST PUSH1 0x20 DUP4 ADD MSTORE POP SWAP3 SWAP2 POP POP JUMP JUMPDEST PUSH1 0x0 PUSH1 0x40 DUP3 DUP5 SUB SLT ISZERO PUSH2 0x1B09 JUMPI PUSH1 0x0 DUP1 REVERT JUMPDEST PUSH2 0x1B13 PUSH1 0x40 PUSH2 0x2BBB JUMP JUMPDEST SWAP1 POP PUSH1 0x0 DUP3 ADD CALLDATALOAD PUSH8 0xFFFFFFFFFFFFFFFF DUP2 GT ISZERO PUSH2 0x1B2F JUMPI PUSH1 0x0 DUP1 REVERT JUMPDEST PUSH2 0x1B3B DUP5 DUP3 DUP6 ADD PUSH2 0x16E7 JUMP JUMPDEST PUSH1 0x0 DUP4 ADD MSTORE POP PUSH1 0x20 PUSH2 0x1B4F DUP5 DUP3 DUP6 ADD PUSH2 0x1FC6 JUMP JUMPDEST PUSH1 0x20 DUP4 ADD MSTORE POP SWAP3 SWAP2 POP POP JUMP JUMPDEST PUSH1 0x0 PUSH2 0x1C0 DUP3 DUP5 SUB SLT ISZERO PUSH2 0x1B6E JUMPI PUSH1 0x0 DUP1 REVERT JUMPDEST PUSH2 0x1B79 PUSH2 0x180 PUSH2 0x2BBB JUMP JUMPDEST SWAP1 POP PUSH1 0x0 PUSH2 0x1B89 DUP5 DUP3 DUP6 ADD PUSH2 0x1FF0 JUMP JUMPDEST PUSH1 0x0 DUP4 ADD MSTORE POP PUSH1 0x20 PUSH2 0x1B9D DUP5 DUP3 DUP6 ADD PUSH2 0x1FF0 JUMP JUMPDEST PUSH1 0x20 DUP4 ADD MSTORE POP PUSH1 0x40 PUSH2 0x1BB1 DUP5 DUP3 DUP6 ADD PUSH2 0x1E68 JUMP JUMPDEST PUSH1 0x40 DUP4 ADD MSTORE POP PUSH1 0x80 PUSH2 0x1BC5 DUP5 DUP3 DUP6 ADD PUSH2 0x1FC6 JUMP JUMPDEST PUSH1 0x60 DUP4 ADD MSTORE POP PUSH1 0xA0 PUSH2 0x1BD9 DUP5 DUP3 DUP6 ADD PUSH2 0x1FF0 JUMP JUMPDEST PUSH1 0x80 DUP4 ADD MSTORE POP PUSH1 0xC0 DUP3 ADD CALLDATALOAD PUSH8 0xFFFFFFFFFFFFFFFF DUP2 GT ISZERO PUSH2 0x1BF9 JUMPI PUSH1 0x0 DUP1 REVERT JUMPDEST PUSH2 0x1C05 DUP5 DUP3 DUP6 ADD PUSH2 0x173B JUMP JUMPDEST PUSH1 0xA0 DUP4 ADD MSTORE POP PUSH1 0xE0 PUSH2 0x1C19 DUP5 DUP3 DUP6 ADD PUSH2 0x1EB4 JUMP JUMPDEST PUSH1 0xC0 DUP4 ADD MSTORE POP PUSH2 0x120 PUSH2 0x1C2E DUP5 DUP3 DUP6 ADD PUSH2 0x1FDB JUMP JUMPDEST PUSH1 0xE0 DUP4 ADD MSTORE POP PUSH2 0x140 PUSH2 0x1C43 DUP5 DUP3 DUP6 ADD PUSH2 0x1FF0 JUMP JUMPDEST PUSH2 0x100 DUP4 ADD MSTORE POP PUSH2 0x160 DUP3 ADD CALLDATALOAD PUSH8 0xFFFFFFFFFFFFFFFF DUP2 GT ISZERO PUSH2 0x1C65 JUMPI PUSH1 0x0 DUP1 REVERT JUMPDEST PUSH2 0x1C71 DUP5 DUP3 DUP6 ADD PUSH2 0x1531 JUMP JUMPDEST PUSH2 0x120 DUP4 ADD MSTORE POP PUSH2 0x180 DUP3 ADD CALLDATALOAD PUSH8 0xFFFFFFFFFFFFFFFF DUP2 GT ISZERO PUSH2 0x1C93 JUMPI PUSH1 0x0 DUP1 REVERT JUMPDEST PUSH2 0x1C9F DUP5 DUP3 DUP6 ADD PUSH2 0x15A5 JUMP JUMPDEST PUSH2 0x140 DUP4 ADD MSTORE POP PUSH2 0x1A0 DUP3 ADD CALLDATALOAD PUSH8 0xFFFFFFFFFFFFFFFF DUP2 GT ISZERO PUSH2 0x1CC1 JUMPI PUSH1 0x0 DUP1 REVERT JUMPDEST PUSH2 0x1CCD DUP5 DUP3 DUP6 ADD PUSH2 0x1438 JUMP JUMPDEST PUSH2 0x160 DUP4 ADD MSTORE POP SWAP3 SWAP2 POP POP JUMP JUMPDEST PUSH1 0x0 PUSH1 0xE0 DUP3 DUP5 SUB SLT ISZERO PUSH2 0x1CEC JUMPI PUSH1 0x0 DUP1 REVERT JUMPDEST PUSH2 0x1CF6 PUSH1 0xE0 PUSH2 0x2BBB JUMP JUMPDEST SWAP1 POP PUSH1 0x0 PUSH2 0x1D06 DUP5 DUP3 DUP6 ADD PUSH2 0x16A8 JUMP JUMPDEST PUSH1 0x0 DUP4 ADD MSTORE POP PUSH1 0x20 PUSH2 0x1D1A DUP5 DUP3 DUP6 ADD PUSH2 0x16A8 JUMP JUMPDEST PUSH1 0x20 DUP4 ADD MSTORE POP PUSH1 0x40 PUSH2 0x1D2E DUP5 DUP3 DUP6 ADD PUSH2 0x1FC6 JUMP JUMPDEST PUSH1 0x40 DUP4 ADD MSTORE POP PUSH1 0x60 PUSH2 0x1D42 DUP5 DUP3 DUP6 ADD PUSH2 0x1FF0 JUMP JUMPDEST PUSH1 0x60 DUP4 ADD MSTORE POP PUSH1 0x80 PUSH2 0x1D56 DUP5 DUP3 DUP6 ADD PUSH2 0x1FDB JUMP JUMPDEST PUSH1 0x80 DUP4 ADD MSTORE POP PUSH1 0xA0 PUSH2 0x1D6A DUP5 DUP3 DUP6 ADD PUSH2 0x1FDB JUMP JUMPDEST PUSH1 0xA0 DUP4 ADD MSTORE POP PUSH1 0xC0 PUSH2 0x1D7E DUP5 DUP3 DUP6 ADD PUSH2 0x1FDB JUMP JUMPDEST PUSH1 0xC0 DUP4 ADD MSTORE POP SWAP3 SWAP2 POP POP JUMP JUMPDEST PUSH1 0x0 PUSH2 0x160 DUP3 DUP5 SUB SLT ISZERO PUSH2 0x1D9D JUMPI PUSH1 0x0 DUP1 REVERT JUMPDEST PUSH2 0x1DA8 PUSH2 0x120 PUSH2 0x2BBB JUMP JUMPDEST SWAP1 POP PUSH1 0x0 PUSH2 0x1DB8 DUP5 DUP3 DUP6 ADD PUSH2 0x1FF0 JUMP JUMPDEST PUSH1 0x0 DUP4 ADD MSTORE POP PUSH1 0x20 PUSH2 0x1DCC DUP5 DUP3 DUP6 ADD PUSH2 0x1AAB JUMP JUMPDEST PUSH1 0x20 DUP4 ADD MSTORE POP PUSH1 0x60 PUSH2 0x1DE0 DUP5 DUP3 DUP6 ADD PUSH2 0x1FF0 JUMP JUMPDEST PUSH1 0x40 DUP4 ADD MSTORE POP PUSH1 0x80 PUSH2 0x1DF4 DUP5 DUP3 DUP6 ADD PUSH2 0x1FC6 JUMP JUMPDEST PUSH1 0x60 DUP4 ADD MSTORE POP PUSH1 0xA0 PUSH2 0x1E08 DUP5 DUP3 DUP6 ADD PUSH2 0x1FDB JUMP JUMPDEST PUSH1 0x80 DUP4 ADD MSTORE POP PUSH1 0xC0 PUSH2 0x1E1C DUP5 DUP3 DUP6 ADD PUSH2 0x1E68 JUMP JUMPDEST PUSH1 0xA0 DUP4 ADD MSTORE POP PUSH2 0x100 PUSH2 0x1E31 DUP5 DUP3 DUP6 ADD PUSH2 0x1FC6 JUMP JUMPDEST PUSH1 0xC0 DUP4 ADD MSTORE POP PUSH2 0x120 PUSH2 0x1E46 DUP5 DUP3 DUP6 ADD PUSH2 0x1FC6 JUMP JUMPDEST PUSH1 0xE0 DUP4 ADD MSTORE POP PUSH2 0x140 PUSH2 0x1E5B DUP5 DUP3 DUP6 ADD PUSH2 0x1FC6 JUMP JUMPDEST PUSH2 0x100 DUP4 ADD MSTORE POP SWAP3 SWAP2 POP POP JUMP JUMPDEST PUSH1 0x0 PUSH1 0x40 DUP3 DUP5 SUB SLT ISZERO PUSH2 0x1E7A JUMPI PUSH1 0x0 DUP1 REVERT JUMPDEST PUSH2 0x1E84 PUSH1 0x40 PUSH2 0x2BBB JUMP JUMPDEST SWAP1 POP PUSH1 0x0 PUSH2 0x1E94 DUP5 DUP3 DUP6 ADD PUSH2 0x1FF0 JUMP JUMPDEST PUSH1 0x0 DUP4 ADD MSTORE POP PUSH1 0x20 PUSH2 0x1EA8 DUP5 DUP3 DUP6 ADD PUSH2 0x1FC6 JUMP JUMPDEST PUSH1 0x20 DUP4 ADD MSTORE POP SWAP3 SWAP2 POP POP JUMP JUMPDEST PUSH1 0x0 PUSH1 0x40 DUP3 DUP5 SUB SLT ISZERO PUSH2 0x1EC6 JUMPI PUSH1 0x0 DUP1 REVERT JUMPDEST PUSH2 0x1ED0 PUSH1 0x40 PUSH2 0x2BBB JUMP JUMPDEST SWAP1 POP PUSH1 0x0 PUSH2 0x1EE0 DUP5 DUP3 DUP6 ADD PUSH2 0x1FDB JUMP JUMPDEST PUSH1 0x0 DUP4 ADD MSTORE POP PUSH1 0x20 PUSH2 0x1EF4 DUP5 DUP3 DUP6 ADD PUSH2 0x1FF0 JUMP JUMPDEST PUSH1 0x20 DUP4 ADD MSTORE POP SWAP3 SWAP2 POP POP JUMP JUMPDEST PUSH1 0x0 PUSH1 0x40 DUP3 DUP5 SUB SLT ISZERO PUSH2 0x1F12 JUMPI PUSH1 0x0 DUP1 REVERT JUMPDEST PUSH2 0x1F1C PUSH1 0x40 PUSH2 0x2BBB JUMP JUMPDEST SWAP1 POP PUSH1 0x0 PUSH2 0x1F2C DUP5 DUP3 DUP6 ADD PUSH2 0x1FC6 JUMP JUMPDEST PUSH1 0x0 DUP4 ADD MSTORE POP PUSH1 0x20 DUP3 ADD CALLDATALOAD PUSH8 0xFFFFFFFFFFFFFFFF DUP2 GT ISZERO PUSH2 0x1F4C JUMPI PUSH1 0x0 DUP1 REVERT JUMPDEST PUSH2 0x1F58 DUP5 DUP3 DUP6 ADD PUSH2 0x173B JUMP JUMPDEST PUSH1 0x20 DUP4 ADD MSTORE POP SWAP3 SWAP2 POP POP JUMP JUMPDEST PUSH1 0x0 PUSH2 0x100 DUP3 DUP5 SUB SLT ISZERO PUSH2 0x1F77 JUMPI PUSH1 0x0 DUP1 REVERT JUMPDEST PUSH2 0x1F81 PUSH1 0x40 PUSH2 0x2BBB JUMP JUMPDEST SWAP1 POP PUSH1 0x0 PUSH2 0x1F91 DUP5 DUP3 DUP6 ADD PUSH2 0x1FC6 JUMP JUMPDEST PUSH1 0x0 DUP4 ADD MSTORE POP PUSH1 0x20 PUSH2 0x1FA5 DUP5 DUP3 DUP6 ADD PUSH2 0x1CDA JUMP JUMPDEST PUSH1 0x20 DUP4 ADD MSTORE POP SWAP3 SWAP2 POP POP JUMP JUMPDEST PUSH1 0x0 DUP2 CALLDATALOAD SWAP1 POP PUSH2 0x1FC0 DUP2 PUSH2 0x3055 JUMP JUMPDEST SWAP3 SWAP2 POP POP JUMP JUMPDEST PUSH1 0x0 DUP2 CALLDATALOAD SWAP1 POP PUSH2 0x1FD5 DUP2 PUSH2 0x306C JUMP JUMPDEST SWAP3 SWAP2 POP POP JUMP JUMPDEST PUSH1 0x0 DUP2 CALLDATALOAD SWAP1 POP PUSH2 0x1FEA DUP2 PUSH2 0x3083 JUMP JUMPDEST SWAP3 SWAP2 POP POP JUMP JUMPDEST PUSH1 0x0 DUP2 CALLDATALOAD SWAP1 POP PUSH2 0x1FFF DUP2 PUSH2 0x309A JUMP JUMPDEST SWAP3 SWAP2 POP POP JUMP JUMPDEST PUSH1 0x0 DUP2 CALLDATALOAD SWAP1 POP PUSH2 0x2014 DUP2 PUSH2 0x30B1 JUMP JUMPDEST SWAP3 SWAP2 POP POP JUMP JUMPDEST PUSH1 0x0 DUP2 CALLDATALOAD SWAP1 POP PUSH2 0x2029 DUP2 PUSH2 0x30C8 JUMP JUMPDEST SWAP3 SWAP2 POP POP JUMP JUMPDEST PUSH1 0x0 PUSH1 0x20 DUP3 DUP5 SUB SLT ISZERO PUSH2 0x2041 JUMPI PUSH1 0x0 DUP1 REVERT JUMPDEST PUSH1 0x0 PUSH2 0x204F DUP5 DUP3 DUP6 ADD PUSH2 0x129A JUMP JUMPDEST SWAP2 POP POP SWAP3 SWAP2 POP POP JUMP JUMPDEST PUSH1 0x0 PUSH1 0x20 DUP3 DUP5 SUB SLT ISZERO PUSH2 0x206A JUMPI PUSH1 0x0 DUP1 REVERT JUMPDEST PUSH1 0x0 DUP3 ADD CALLDATALOAD PUSH8 0xFFFFFFFFFFFFFFFF DUP2 GT ISZERO PUSH2 0x2084 JUMPI PUSH1 0x0 DUP1 REVERT JUMPDEST PUSH2 0x2090 DUP5 DUP3 DUP6 ADD PUSH2 0x12AF JUMP JUMPDEST SWAP2 POP POP SWAP3 SWAP2 POP POP JUMP JUMPDEST PUSH1 0x0 PUSH1 0x20 DUP3 DUP5 SUB SLT ISZERO PUSH2 0x20AB JUMPI PUSH1 0x0 DUP1 REVERT JUMPDEST PUSH1 0x0 DUP3 ADD CALLDATALOAD PUSH8 0xFFFFFFFFFFFFFFFF DUP2 GT ISZERO PUSH2 0x20C5 JUMPI PUSH1 0x0 DUP1 REVERT JUMPDEST PUSH2 0x20D1 DUP5 DUP3 DUP6 ADD PUSH2 0x1332 JUMP JUMPDEST SWAP2 POP POP SWAP3 SWAP2 POP POP JUMP JUMPDEST PUSH1 0x0 PUSH1 0x20 DUP3 DUP5 SUB SLT ISZERO PUSH2 0x20EC JUMPI PUSH1 0x0 DUP1 REVERT JUMPDEST PUSH1 0x0 DUP3 ADD CALLDATALOAD PUSH8 0xFFFFFFFFFFFFFFFF DUP2 GT ISZERO PUSH2 0x2106 JUMPI PUSH1 0x0 DUP1 REVERT JUMPDEST PUSH2 0x2112 DUP5 DUP3 DUP6 ADD PUSH2 0x13B5 JUMP JUMPDEST SWAP2 POP POP SWAP3 SWAP2 POP POP JUMP JUMPDEST PUSH1 0x0 PUSH1 0x20 DUP3 DUP5 SUB SLT ISZERO PUSH2 0x212D JUMPI PUSH1 0x0 DUP1 REVERT JUMPDEST PUSH1 0x0 DUP3 ADD CALLDATALOAD PUSH8 0xFFFFFFFFFFFFFFFF DUP2 GT ISZERO PUSH2 0x2147 JUMPI PUSH1 0x0 DUP1 REVERT JUMPDEST PUSH2 0x2153 DUP5 DUP3 DUP6 ADD PUSH2 0x14AC JUMP JUMPDEST SWAP2 POP POP SWAP3 SWAP2 POP POP JUMP JUMPDEST PUSH1 0x0 PUSH1 0x20 DUP3 DUP5 SUB SLT ISZERO PUSH2 0x216E JUMPI PUSH1 0x0 DUP1 REVERT JUMPDEST PUSH1 0x0 DUP3 ADD CALLDATALOAD PUSH8 0xFFFFFFFFFFFFFFFF DUP2 GT ISZERO PUSH2 0x2188 JUMPI PUSH1 0x0 DUP1 REVERT JUMPDEST PUSH2 0x2194 DUP5 DUP3 DUP6 ADD PUSH2 0x1531 JUMP JUMPDEST SWAP2 POP POP SWAP3 SWAP2 POP POP JUMP JUMPDEST PUSH1 0x0 PUSH1 0x20 DUP3 DUP5 SUB SLT ISZERO PUSH2 0x21AF JUMPI PUSH1 0x0 DUP1 REVERT JUMPDEST PUSH1 0x0 DUP3 ADD CALLDATALOAD PUSH8 0xFFFFFFFFFFFFFFFF DUP2 GT ISZERO PUSH2 0x21C9 JUMPI PUSH1 0x0 DUP1 REVERT JUMPDEST PUSH2 0x21D5 DUP5 DUP3 DUP6 ADD PUSH2 0x15A5 JUMP JUMPDEST SWAP2 POP POP SWAP3 SWAP2 POP POP JUMP JUMPDEST PUSH1 0x0 PUSH1 0x20 DUP3 DUP5 SUB SLT ISZERO PUSH2 0x21F0 JUMPI PUSH1 0x0 DUP1 REVERT JUMPDEST PUSH1 0x0 PUSH2 0x21FE DUP5 DUP3 DUP6 ADD PUSH2 0x162A JUMP JUMPDEST SWAP2 POP POP SWAP3 SWAP2 POP POP JUMP JUMPDEST PUSH1 0x0 PUSH1 0x20 DUP3 DUP5 SUB SLT ISZERO PUSH2 0x2219 JUMPI PUSH1 0x0 DUP1 REVERT JUMPDEST PUSH1 0x0 PUSH2 0x2227 DUP5 DUP3 DUP6 ADD PUSH2 0x163F JUMP JUMPDEST SWAP2 POP POP SWAP3 SWAP2 POP POP JUMP JUMPDEST PUSH1 0x0 PUSH1 0x20 DUP3 DUP5 SUB SLT ISZERO PUSH2 0x2242 JUMPI PUSH1 0x0 DUP1 REVERT JUMPDEST PUSH1 0x0 DUP3 ADD CALLDATALOAD PUSH8 0xFFFFFFFFFFFFFFFF DUP2 GT ISZERO PUSH2 0x225C JUMPI PUSH1 0x0 DUP1 REVERT JUMPDEST PUSH2 0x2268 DUP5 DUP3 DUP6 ADD PUSH2 0x1654 JUMP JUMPDEST SWAP2 POP POP SWAP3 SWAP2 POP POP JUMP JUMPDEST PUSH1 0x0 PUSH1 0x20 DUP3 DUP5 SUB SLT ISZERO PUSH2 0x2283 JUMPI PUSH1 0x0 DUP1 REVERT JUMPDEST PUSH1 0x0 PUSH2 0x2291 DUP5 DUP3 DUP6 ADD PUSH2 0x16A8 JUMP JUMPDEST SWAP2 POP POP SWAP3 SWAP2 POP POP JUMP JUMPDEST PUSH1 0x0 PUSH1 0x20 DUP3 DUP5 SUB SLT ISZERO PUSH2 0x22AC JUMPI PUSH1 0x0 DUP1 REVERT JUMPDEST PUSH1 0x0 PUSH2 0x22BA DUP5 DUP3 DUP6 ADD PUSH2 0x16BD JUMP JUMPDEST SWAP2 POP POP SWAP3 SWAP2 POP POP JUMP JUMPDEST PUSH1 0x0 PUSH1 0x20 DUP3 DUP5 SUB SLT ISZERO PUSH2 0x22D5 JUMPI PUSH1 0x0 DUP1 REVERT JUMPDEST PUSH1 0x0 PUSH2 0x22E3 DUP5 DUP3 DUP6 ADD PUSH2 0x16D2 JUMP JUMPDEST SWAP2 POP POP SWAP3 SWAP2 POP POP JUMP JUMPDEST PUSH1 0x0 PUSH1 0x20 DUP3 DUP5 SUB SLT ISZERO PUSH2 0x22FE JUMPI PUSH1 0x0 DUP1 REVERT JUMPDEST PUSH1 0x0 DUP3 ADD CALLDATALOAD PUSH8 0xFFFFFFFFFFFFFFFF DUP2 GT ISZERO PUSH2 0x2318 JUMPI PUSH1 0x0 DUP1 REVERT JUMPDEST PUSH2 0x2324 DUP5 DUP3 DUP6 ADD PUSH2 0x16E7 JUMP JUMPDEST SWAP2 POP POP SWAP3 SWAP2 POP POP JUMP JUMPDEST PUSH1 0x0 PUSH1 0x20 DUP3 DUP5 SUB SLT ISZERO PUSH2 0x233F JUMPI PUSH1 0x0 DUP1 REVERT JUMPDEST PUSH1 0x0 DUP3 ADD CALLDATALOAD PUSH8 0xFFFFFFFFFFFFFFFF DUP2 GT ISZERO PUSH2 0x2359 JUMPI PUSH1 0x0 DUP1 REVERT JUMPDEST PUSH2 0x2365 DUP5 DUP3 DUP6 ADD PUSH2 0x173B JUMP JUMPDEST SWAP2 POP POP SWAP3 SWAP2 POP POP JUMP JUMPDEST PUSH1 0x0 PUSH1 0x20 DUP3 DUP5 SUB SLT ISZERO PUSH2 0x2380 JUMPI PUSH1 0x0 DUP1 REVERT JUMPDEST PUSH1 0x0 DUP3 ADD CALLDATALOAD PUSH8 0xFFFFFFFFFFFFFFFF DUP2 GT ISZERO PUSH2 0x239A JUMPI PUSH1 0x0 DUP1 REVERT JUMPDEST PUSH2 0x23A6 DUP5 DUP3 DUP6 ADD PUSH2 0x1919 JUMP JUMPDEST SWAP2 POP POP SWAP3 SWAP2 POP POP JUMP JUMPDEST PUSH1 0x0 PUSH1 0x40 DUP3 DUP5 SUB SLT ISZERO PUSH2 0x23C1 JUMPI PUSH1 0x0 DUP1 REVERT JUMPDEST PUSH1 0x0 PUSH2 0x23CF DUP5 DUP3 DUP6 ADD PUSH2 0x1AAB JUMP JUMPDEST SWAP2 POP POP SWAP3 SWAP2 POP POP JUMP JUMPDEST PUSH1 0x0 PUSH1 0x20 DUP3 DUP5 SUB SLT ISZERO PUSH2 0x23EA JUMPI PUSH1 0x0 DUP1 REVERT JUMPDEST PUSH1 0x0 DUP3 ADD CALLDATALOAD PUSH8 0xFFFFFFFFFFFFFFFF DUP2 GT ISZERO PUSH2 0x2404 JUMPI PUSH1 0x0 DUP1 REVERT JUMPDEST PUSH2 0x2410 DUP5 DUP3 DUP6 ADD PUSH2 0x1B5B JUMP JUMPDEST SWAP2 POP POP SWAP3 SWAP2 POP POP JUMP JUMPDEST PUSH1 0x0 PUSH1 0xE0 DUP3 DUP5 SUB SLT ISZERO PUSH2 0x242B JUMPI PUSH1 0x0 DUP1 REVERT JUMPDEST PUSH1 0x0 PUSH2 0x2439 DUP5 DUP3 DUP6 ADD PUSH2 0x1CDA JUMP JUMPDEST SWAP2 POP POP SWAP3 SWAP2 POP POP JUMP JUMPDEST PUSH1 0x0 PUSH2 0x160 DUP3 DUP5 SUB SLT ISZERO PUSH2 0x2455 JUMPI PUSH1 0x0 DUP1 REVERT JUMPDEST PUSH1 0x0 PUSH2 0x2463 DUP5 DUP3 DUP6 ADD PUSH2 0x1D8A JUMP JUMPDEST SWAP2 POP POP SWAP3 SWAP2 POP POP JUMP JUMPDEST PUSH1 0x0 PUSH1 0x40 DUP3 DUP5 SUB SLT ISZERO PUSH2 0x247E JUMPI PUSH1 0x0 DUP1 REVERT JUMPDEST PUSH1 0x0 PUSH2 0x248C DUP5 DUP3 DUP6 ADD PUSH2 0x1E68 JUMP JUMPDEST SWAP2 POP POP SWAP3 SWAP2 POP POP JUMP JUMPDEST PUSH1 0x0 PUSH1 0x40 DUP3 DUP5 SUB SLT ISZERO PUSH2 0x24A7 JUMPI PUSH1 0x0 DUP1 REVERT JUMPDEST PUSH1 0x0 PUSH2 0x24B5 DUP5 DUP3 DUP6 ADD PUSH2 0x1EB4 JUMP JUMPDEST SWAP2 POP POP SWAP3 SWAP2 POP POP JUMP JUMPDEST PUSH1 0x0 PUSH1 0x20 DUP3 DUP5 SUB SLT ISZERO PUSH2 0x24D0 JUMPI PUSH1 0x0 DUP1 REVERT JUMPDEST PUSH1 0x0 DUP3 ADD CALLDATALOAD PUSH8 0xFFFFFFFFFFFFFFFF DUP2 GT ISZERO PUSH2 0x24EA JUMPI PUSH1 0x0 DUP1 REVERT JUMPDEST PUSH2 0x24F6 DUP5 DUP3 DUP6 ADD PUSH2 0x1F00 JUMP JUMPDEST SWAP2 POP POP SWAP3 SWAP2 POP POP JUMP JUMPDEST PUSH1 0x0 PUSH2 0x100 DUP3 DUP5 SUB SLT ISZERO PUSH2 0x2512 JUMPI PUSH1 0x0 DUP1 REVERT JUMPDEST PUSH1 0x0 PUSH2 0x2520 DUP5 DUP3 DUP6 ADD PUSH2 0x1F64 JUMP JUMPDEST SWAP2 POP POP SWAP3 SWAP2 POP POP JUMP JUMPDEST PUSH1 0x0 PUSH1 0x20 DUP3 DUP5 SUB SLT ISZERO PUSH2 0x253B JUMPI PUSH1 0x0 DUP1 REVERT JUMPDEST PUSH1 0x0 PUSH2 0x2549 DUP5 DUP3 DUP6 ADD PUSH2 0x1FB1 JUMP JUMPDEST SWAP2 POP POP SWAP3 SWAP2 POP POP JUMP JUMPDEST PUSH1 0x0 PUSH1 0x20 DUP3 DUP5 SUB SLT ISZERO PUSH2 0x2564 JUMPI PUSH1 0x0 DUP1 REVERT JUMPDEST PUSH1 0x0 PUSH2 0x2572 DUP5 DUP3 DUP6 ADD PUSH2 0x1FC6 JUMP JUMPDEST SWAP2 POP POP SWAP3 SWAP2 POP POP JUMP JUMPDEST PUSH1 0x0 PUSH1 0x20 DUP3 DUP5 SUB SLT ISZERO PUSH2 0x258D JUMPI PUSH1 0x0 DUP1 REVERT JUMPDEST PUSH1 0x0 PUSH2 0x259B DUP5 DUP3 DUP6 ADD PUSH2 0x1FDB JUMP JUMPDEST SWAP2 POP POP SWAP3 SWAP2 POP POP JUMP JUMPDEST PUSH1 0x0 PUSH1 0x20 DUP3 DUP5 SUB SLT ISZERO PUSH2 0x25B6 JUMPI PUSH1 0x0 DUP1 REVERT JUMPDEST PUSH1 0x0 PUSH2 0x25C4 DUP5 DUP3 DUP6 ADD PUSH2 0x1FF0 JUMP JUMPDEST SWAP2 POP POP SWAP3 SWAP2 POP POP JUMP JUMPDEST PUSH1 0x0 PUSH1 0x20 DUP3 DUP5 SUB SLT ISZERO PUSH2 0x25DF JUMPI PUSH1 0x0 DUP1 REVERT JUMPDEST PUSH1 0x0 PUSH2 0x25ED DUP5 DUP3 DUP6 ADD PUSH2 0x2005 JUMP JUMPDEST SWAP2 POP POP SWAP3 SWAP2 POP POP JUMP JUMPDEST PUSH1 0x0 PUSH1 0x20 DUP3 DUP5 SUB SLT ISZERO PUSH2 0x2608 JUMPI PUSH1 0x0 DUP1 REVERT JUMPDEST PUSH1 0x0 PUSH2 0x2616 DUP5 DUP3 DUP6 ADD PUSH2 0x201A JUMP JUMPDEST SWAP2 POP POP SWAP3 SWAP2 POP POP JUMP JUMPDEST PUSH2 0x2630 PUSH2 0x262B DUP3 PUSH2 0x2D95 JUMP JUMPDEST PUSH2 0x2EB1 JUMP JUMPDEST DUP3 MSTORE POP POP JUMP JUMPDEST PUSH2 0x2647 PUSH2 0x2642 DUP3 PUSH2 0x2DA7 JUMP JUMPDEST PUSH2 0x2EC3 JUMP JUMPDEST DUP3 MSTORE POP POP JUMP JUMPDEST PUSH2 0x265E PUSH2 0x2659 DUP3 PUSH2 0x2DB3 JUMP JUMPDEST PUSH2 0x2ED5 JUMP JUMPDEST DUP3 MSTORE POP POP JUMP JUMPDEST PUSH1 0x0 PUSH2 0x266F DUP3 PUSH2 0x2D58 JUMP JUMPDEST PUSH2 0x2679 DUP2 DUP6 PUSH2 0x2D6E JUMP JUMPDEST SWAP4 POP PUSH2 0x2689 DUP2 DUP6 PUSH1 0x20 DUP7 ADD PUSH2 0x2E7E JUMP JUMPDEST PUSH2 0x2692 DUP2 PUSH2 0x2F79 JUMP JUMPDEST DUP5 ADD SWAP2 POP POP SWAP3 SWAP2 POP POP JUMP JUMPDEST PUSH1 0x0 PUSH2 0x26A8 DUP3 PUSH2 0x2D58 JUMP JUMPDEST PUSH2 0x26B2 DUP2 DUP6 PUSH2 0x2D7F JUMP JUMPDEST SWAP4 POP PUSH2 0x26C2 DUP2 DUP6 PUSH1 0x20 DUP7 ADD PUSH2 0x2E7E JUMP JUMPDEST DUP1 DUP5 ADD SWAP2 POP POP SWAP3 SWAP2 POP POP JUMP JUMPDEST PUSH2 0x26DF PUSH2 0x26DA DUP3 PUSH2 0x2DDF JUMP JUMPDEST PUSH2 0x2EDF JUMP JUMPDEST DUP3 MSTORE POP POP JUMP JUMPDEST PUSH2 0x26F6 PUSH2 0x26F1 DUP3 PUSH2 0x2DEC JUMP JUMPDEST PUSH2 0x2EF1 JUMP JUMPDEST DUP3 MSTORE POP POP JUMP JUMPDEST PUSH2 0x270D PUSH2 0x2708 DUP3 PUSH2 0x2DF9 JUMP JUMPDEST PUSH2 0x2F03 JUMP JUMPDEST DUP3 MSTORE POP POP JUMP JUMPDEST PUSH1 0x0 PUSH2 0x271E DUP3 PUSH2 0x2D63 JUMP JUMPDEST PUSH2 0x2728 DUP2 DUP6 PUSH2 0x2D8A JUMP JUMPDEST SWAP4 POP PUSH2 0x2738 DUP2 DUP6 PUSH1 0x20 DUP7 ADD PUSH2 0x2E7E JUMP JUMPDEST DUP1 DUP5 ADD SWAP2 POP POP SWAP3 SWAP2 POP POP JUMP JUMPDEST PUSH2 0x2755 PUSH2 0x2750 DUP3 PUSH2 0x2E14 JUMP JUMPDEST PUSH2 0x2F27 JUMP JUMPDEST DUP3 MSTORE POP POP JUMP JUMPDEST PUSH2 0x276C PUSH2 0x2767 DUP3 PUSH2 0x2E06 JUMP JUMPDEST PUSH2 0x2F15 JUMP JUMPDEST DUP3 MSTORE POP POP JUMP JUMPDEST PUSH2 0x2783 PUSH2 0x277E DUP3 PUSH2 0x2E34 JUMP JUMPDEST PUSH2 0x2F39 JUMP JUMPDEST DUP3 MSTORE POP POP JUMP JUMPDEST PUSH2 0x279A PUSH2 0x2795 DUP3 PUSH2 0x2E3E JUMP JUMPDEST PUSH2 0x2F43 JUMP JUMPDEST DUP3 MSTORE POP POP JUMP JUMPDEST PUSH2 0x27B1 PUSH2 0x27AC DUP3 PUSH2 0x2E4E JUMP JUMPDEST PUSH2 0x2F55 JUMP JUMPDEST DUP3 MSTORE POP POP JUMP JUMPDEST PUSH2 0x27C8 PUSH2 0x27C3 DUP3 PUSH2 0x2E62 JUMP JUMPDEST PUSH2 0x2F67 JUMP JUMPDEST DUP3 MSTORE POP POP JUMP JUMPDEST PUSH1 0x0 PUSH2 0x27DA DUP3 DUP5 PUSH2 0x261F JUMP JUMPDEST PUSH1 0x14 DUP3 ADD SWAP2 POP DUP2 SWAP1 POP SWAP3 SWAP2 POP POP JUMP JUMPDEST PUSH1 0x0 PUSH2 0x27F5 DUP3 DUP5 PUSH2 0x2636 JUMP JUMPDEST PUSH1 0x1 DUP3 ADD SWAP2 POP DUP2 SWAP1 POP SWAP3 SWAP2 POP POP JUMP JUMPDEST PUSH1 0x0 PUSH2 0x2810 DUP3 DUP5 PUSH2 0x264D JUMP JUMPDEST PUSH1 0x14 DUP3 ADD SWAP2 POP DUP2 SWAP1 POP SWAP3 SWAP2 POP POP JUMP JUMPDEST PUSH1 0x0 PUSH2 0x282B DUP3 DUP6 PUSH2 0x269D JUMP JUMPDEST SWAP2 POP PUSH2 0x2837 DUP3 DUP5 PUSH2 0x269D JUMP JUMPDEST SWAP2 POP DUP2 SWAP1 POP SWAP4 SWAP3 POP POP POP JUMP JUMPDEST PUSH1 0x0 PUSH2 0x284F DUP3 DUP10 PUSH2 0x269D JUMP JUMPDEST SWAP2 POP PUSH2 0x285B DUP3 DUP9 PUSH2 0x269D JUMP JUMPDEST SWAP2 POP PUSH2 0x2867 DUP3 DUP8 PUSH2 0x269D JUMP JUMPDEST SWAP2 POP PUSH2 0x2873 DUP3 DUP7 PUSH2 0x269D JUMP JUMPDEST SWAP2 POP PUSH2 0x287F DUP3 DUP6 PUSH2 0x269D JUMP JUMPDEST SWAP2 POP PUSH2 0x288B DUP3 DUP5 PUSH2 0x269D JUMP JUMPDEST SWAP2 POP DUP2 SWAP1 POP SWAP8 SWAP7 POP POP POP POP POP POP POP JUMP JUMPDEST PUSH1 0x0 PUSH2 0x28A7 DUP3 DUP11 PUSH2 0x269D JUMP JUMPDEST SWAP2 POP PUSH2 0x28B3 DUP3 DUP10 PUSH2 0x269D JUMP JUMPDEST SWAP2 POP PUSH2 0x28BF DUP3 DUP9 PUSH2 0x269D JUMP JUMPDEST SWAP2 POP PUSH2 0x28CB DUP3 DUP8 PUSH2 0x269D JUMP JUMPDEST SWAP2 POP PUSH2 0x28D7 DUP3 DUP7 PUSH2 0x269D JUMP JUMPDEST SWAP2 POP PUSH2 0x28E3 DUP3 DUP6 PUSH2 0x269D JUMP JUMPDEST SWAP2 POP PUSH2 0x28EF DUP3 DUP5 PUSH2 0x269D JUMP JUMPDEST SWAP2 POP DUP2 SWAP1 POP SWAP9 SWAP8 POP POP POP POP POP POP POP POP JUMP JUMPDEST PUSH1 0x0 PUSH2 0x290C DUP3 DUP15 PUSH2 0x269D JUMP JUMPDEST SWAP2 POP PUSH2 0x2918 DUP3 DUP14 PUSH2 0x269D JUMP JUMPDEST SWAP2 POP PUSH2 0x2924 DUP3 DUP13 PUSH2 0x269D JUMP JUMPDEST SWAP2 POP PUSH2 0x2930 DUP3 DUP12 PUSH2 0x269D JUMP JUMPDEST SWAP2 POP PUSH2 0x293C DUP3 DUP11 PUSH2 0x269D JUMP JUMPDEST SWAP2 POP PUSH2 0x2948 DUP3 DUP10 PUSH2 0x269D JUMP JUMPDEST SWAP2 POP PUSH2 0x2954 DUP3 DUP9 PUSH2 0x269D JUMP JUMPDEST SWAP2 POP PUSH2 0x2960 DUP3 DUP8 PUSH2 0x269D JUMP JUMPDEST SWAP2 POP PUSH2 0x296C DUP3 DUP7 PUSH2 0x269D JUMP JUMPDEST SWAP2 POP PUSH2 0x2978 DUP3 DUP6 PUSH2 0x269D JUMP JUMPDEST SWAP2 POP PUSH2 0x2984 DUP3 DUP5 PUSH2 0x269D JUMP JUMPDEST SWAP2 POP DUP2 SWAP1 POP SWAP13 SWAP12 POP POP POP POP POP POP POP POP POP POP POP POP JUMP JUMPDEST PUSH1 0x0 PUSH2 0x29A5 DUP3 DUP16 PUSH2 0x269D JUMP JUMPDEST SWAP2 POP PUSH2 0x29B1 DUP3 DUP15 PUSH2 0x269D JUMP JUMPDEST SWAP2 POP PUSH2 0x29BD DUP3 DUP14 PUSH2 0x269D JUMP JUMPDEST SWAP2 POP PUSH2 0x29C9 DUP3 DUP13 PUSH2 0x269D JUMP JUMPDEST SWAP2 POP PUSH2 0x29D5 DUP3 DUP12 PUSH2 0x269D JUMP JUMPDEST SWAP2 POP PUSH2 0x29E1 DUP3 DUP11 PUSH2 0x269D JUMP JUMPDEST SWAP2 POP PUSH2 0x29ED DUP3 DUP10 PUSH2 0x269D JUMP JUMPDEST SWAP2 POP PUSH2 0x29F9 DUP3 DUP9 PUSH2 0x269D JUMP JUMPDEST SWAP2 POP PUSH2 0x2A05 DUP3 DUP8 PUSH2 0x269D JUMP JUMPDEST SWAP2 POP PUSH2 0x2A11 DUP3 DUP7 PUSH2 0x269D JUMP JUMPDEST SWAP2 POP PUSH2 0x2A1D DUP3 DUP6 PUSH2 0x269D JUMP JUMPDEST SWAP2 POP PUSH2 0x2A29 DUP3 DUP5 PUSH2 0x269D JUMP JUMPDEST SWAP2 POP DUP2 SWAP1 POP SWAP14 SWAP13 POP POP POP POP POP POP POP POP POP POP POP POP POP JUMP JUMPDEST PUSH1 0x0 PUSH2 0x2A4B DUP3 DUP6 PUSH2 0x269D JUMP JUMPDEST SWAP2 POP PUSH2 0x2A57 DUP3 DUP5 PUSH2 0x26E5 JUMP JUMPDEST PUSH1 0x4 DUP3 ADD SWAP2 POP DUP2 SWAP1 POP SWAP4 SWAP3 POP POP POP JUMP JUMPDEST PUSH1 0x0 PUSH2 0x2A73 DUP3 DUP6 PUSH2 0x269D JUMP JUMPDEST SWAP2 POP PUSH2 0x2A7F DUP3 DUP5 PUSH2 0x26FC JUMP JUMPDEST PUSH1 0x8 DUP3 ADD SWAP2 POP DUP2 SWAP1 POP SWAP4 SWAP3 POP POP POP JUMP JUMPDEST PUSH1 0x0 PUSH2 0x2A9B DUP3 DUP5 PUSH2 0x26CE JUMP JUMPDEST PUSH1 0x2 DUP3 ADD SWAP2 POP DUP2 SWAP1 POP SWAP3 SWAP2 POP POP JUMP JUMPDEST PUSH1 0x0 PUSH2 0x2AB6 DUP3 DUP5 PUSH2 0x26E5 JUMP JUMPDEST PUSH1 0x4 DUP3 ADD SWAP2 POP DUP2 SWAP1 POP SWAP3 SWAP2 POP POP JUMP JUMPDEST PUSH1 0x0 PUSH2 0x2AD1 DUP3 DUP5 PUSH2 0x26FC JUMP JUMPDEST PUSH1 0x8 DUP3 ADD SWAP2 POP DUP2 SWAP1 POP SWAP3 SWAP2 POP POP JUMP JUMPDEST PUSH1 0x0 PUSH2 0x2AEC DUP3 DUP5 PUSH2 0x2713 JUMP JUMPDEST SWAP2 POP DUP2 SWAP1 POP SWAP3 SWAP2 POP POP JUMP JUMPDEST PUSH1 0x0 PUSH2 0x2B03 DUP3 DUP5 PUSH2 0x2744 JUMP JUMPDEST PUSH1 0x14 DUP3 ADD SWAP2 POP DUP2 SWAP1 POP SWAP3 SWAP2 POP POP JUMP JUMPDEST PUSH1 0x0 PUSH2 0x2B1E DUP3 DUP5 PUSH2 0x275B JUMP JUMPDEST PUSH1 0x2 DUP3 ADD SWAP2 POP DUP2 SWAP1 POP SWAP3 SWAP2 POP POP JUMP JUMPDEST PUSH1 0x0 PUSH2 0x2B39 DUP3 DUP5 PUSH2 0x2772 JUMP JUMPDEST PUSH1 0x20 DUP3 ADD SWAP2 POP DUP2 SWAP1 POP SWAP3 SWAP2 POP POP JUMP JUMPDEST PUSH1 0x0 PUSH2 0x2B54 DUP3 DUP5 PUSH2 0x2789 JUMP JUMPDEST PUSH1 0x4 DUP3 ADD SWAP2 POP DUP2 SWAP1 POP SWAP3 SWAP2 POP POP JUMP JUMPDEST PUSH1 0x0 PUSH2 0x2B6F DUP3 DUP5 PUSH2 0x27A0 JUMP JUMPDEST PUSH1 0x8 DUP3 ADD SWAP2 POP DUP2 SWAP1 POP SWAP3 SWAP2 POP POP JUMP JUMPDEST PUSH1 0x0 PUSH2 0x2B8A DUP3 DUP5 PUSH2 0x27B7 JUMP JUMPDEST PUSH1 0x1 DUP3 ADD SWAP2 POP DUP2 SWAP1 POP SWAP3 SWAP2 POP POP JUMP JUMPDEST PUSH1 0x0 PUSH1 0x20 DUP3 ADD SWAP1 POP DUP2 DUP2 SUB PUSH1 0x0 DUP4 ADD MSTORE PUSH2 0x2BB3 DUP2 DUP5 PUSH2 0x2664 JUMP JUMPDEST SWAP1 POP SWAP3 SWAP2 POP POP JUMP JUMPDEST PUSH1 0x0 PUSH1 0x40 MLOAD SWAP1 POP DUP2 DUP2 ADD DUP2 DUP2 LT PUSH8 0xFFFFFFFFFFFFFFFF DUP3 GT OR ISZERO PUSH2 0x2BDE JUMPI PUSH1 0x0 DUP1 REVERT JUMPDEST DUP1 PUSH1 0x40 MSTORE POP SWAP2 SWAP1 POP JUMP JUMPDEST PUSH1 0x0 PUSH8 0xFFFFFFFFFFFFFFFF DUP3 GT ISZERO PUSH2 0x2BFF JUMPI PUSH1 0x0 DUP1 REVERT JUMPDEST PUSH1 0x20 DUP3 MUL SWAP1 POP PUSH1 0x20 DUP2 ADD SWAP1 POP SWAP2 SWAP1 POP JUMP JUMPDEST PUSH1 0x0 PUSH8 0xFFFFFFFFFFFFFFFF DUP3 GT ISZERO PUSH2 0x2C27 JUMPI PUSH1 0x0 DUP1 REVERT JUMPDEST PUSH1 0x20 DUP3 MUL SWAP1 POP PUSH1 0x20 DUP2 ADD SWAP1 POP SWAP2 SWAP1 POP JUMP JUMPDEST PUSH1 0x0 PUSH8 0xFFFFFFFFFFFFFFFF DUP3 GT ISZERO PUSH2 0x2C4F JUMPI PUSH1 0x0 DUP1 REVERT JUMPDEST PUSH1 0x20 DUP3 MUL SWAP1 POP PUSH1 0x20 DUP2 ADD SWAP1 POP SWAP2 SWAP1 POP JUMP JUMPDEST PUSH1 0x0 PUSH8 0xFFFFFFFFFFFFFFFF DUP3 GT ISZERO PUSH2 0x2C77 JUMPI PUSH1 0x0 DUP1 REVERT JUMPDEST PUSH1 0x20 DUP3 MUL SWAP1 POP PUSH1 0x20 DUP2 ADD SWAP1 POP SWAP2 SWAP1 POP JUMP JUMPDEST PUSH1 0x0 PUSH8 0xFFFFFFFFFFFFFFFF DUP3 GT ISZERO PUSH2 0x2C9F JUMPI PUSH1 0x0 DUP1 REVERT JUMPDEST PUSH1 0x20 DUP3 MUL SWAP1 POP PUSH1 0x20 DUP2 ADD SWAP1 POP SWAP2 SWAP1 POP JUMP JUMPDEST PUSH1 0x0 PUSH8 0xFFFFFFFFFFFFFFFF DUP3 GT ISZERO PUSH2 0x2CC7 JUMPI PUSH1 0x0 DUP1 REVERT JUMPDEST PUSH1 0x20 DUP3 MUL SWAP1 POP PUSH1 0x20 DUP2 ADD SWAP1 POP SWAP2 SWAP1 POP JUMP JUMPDEST PUSH1 0x0 PUSH8 0xFFFFFFFFFFFFFFFF DUP3 GT ISZERO PUSH2 0x2CEF JUMPI PUSH1 0x0 DUP1 REVERT JUMPDEST PUSH1 0x20 DUP3 MUL SWAP1 POP PUSH1 0x20 DUP2 ADD SWAP1 POP SWAP2 SWAP1 POP JUMP JUMPDEST PUSH1 0x0 PUSH8 0xFFFFFFFFFFFFFFFF DUP3 GT ISZERO PUSH2 0x2D17 JUMPI PUSH1 0x0 DUP1 REVERT JUMPDEST PUSH1 0x1F NOT PUSH1 0x1F DUP4 ADD AND SWAP1 POP PUSH1 0x20 DUP2 ADD SWAP1 POP SWAP2 SWAP1 POP JUMP JUMPDEST PUSH1 0x0 PUSH8 0xFFFFFFFFFFFFFFFF DUP3 GT ISZERO PUSH2 0x2D43 JUMPI PUSH1 0x0 DUP1 REVERT JUMPDEST PUSH1 0x1F NOT PUSH1 0x1F DUP4 ADD AND SWAP1 POP PUSH1 0x20 DUP2 ADD SWAP1 POP SWAP2 SWAP1 POP JUMP JUMPDEST PUSH1 0x0 DUP2 MLOAD SWAP1 POP SWAP2 SWAP1 POP JUMP JUMPDEST PUSH1 0x0 DUP2 MLOAD SWAP1 POP SWAP2 SWAP1 POP JUMP JUMPDEST PUSH1 0x0 DUP3 DUP3 MSTORE PUSH1 0x20 DUP3 ADD SWAP1 POP SWAP3 SWAP2 POP POP JUMP JUMPDEST PUSH1 0x0 DUP2 SWAP1 POP SWAP3 SWAP2 POP POP JUMP JUMPDEST PUSH1 0x0 DUP2 SWAP1 POP SWAP3 SWAP2 POP POP JUMP JUMPDEST PUSH1 0x0 PUSH2 0x2DA0 DUP3 PUSH2 0x2E14 JUMP JUMPDEST SWAP1 POP SWAP2 SWAP1 POP JUMP JUMPDEST PUSH1 0x0 DUP2 ISZERO ISZERO SWAP1 POP SWAP2 SWAP1 POP JUMP JUMPDEST PUSH1 0x0 PUSH32 0xFFFFFFFFFFFFFFFFFFFFFFFFFFFFFFFFFFFFFFFF000000000000000000000000 DUP3 AND SWAP1 POP SWAP2 SWAP1 POP JUMP JUMPDEST PUSH1 0x0 DUP2 PUSH1 0x1 SIGNEXTEND SWAP1 POP SWAP2 SWAP1 POP JUMP JUMPDEST PUSH1 0x0 DUP2 PUSH1 0x3 SIGNEXTEND SWAP1 POP SWAP2 SWAP1 POP JUMP JUMPDEST PUSH1 0x0 DUP2 PUSH1 0x7 SIGNEXTEND SWAP1 POP SWAP2 SWAP1 POP JUMP JUMPDEST PUSH1 0x0 PUSH2 0xFFFF DUP3 AND SWAP1 POP SWAP2 SWAP1 POP JUMP JUMPDEST PUSH1 0x0 PUSH20 0xFFFFFFFFFFFFFFFFFFFFFFFFFFFFFFFFFFFFFFFF DUP3 AND SWAP1 POP SWAP2 SWAP1 POP JUMP JUMPDEST PUSH1 0x0 DUP2 SWAP1 POP SWAP2 SWAP1 POP JUMP JUMPDEST PUSH1 0x0 PUSH4 0xFFFFFFFF DUP3 AND SWAP1 POP SWAP2 SWAP1 POP JUMP JUMPDEST PUSH1 0x0 PUSH8 0xFFFFFFFFFFFFFFFF DUP3 AND SWAP1 POP SWAP2 SWAP1 POP JUMP JUMPDEST PUSH1 0x0 PUSH1 0xFF DUP3 AND SWAP1 POP SWAP2 SWAP1 POP JUMP JUMPDEST DUP3 DUP2 DUP4 CALLDATACOPY PUSH1 0x0 DUP4 DUP4 ADD MSTORE POP POP POP JUMP JUMPDEST PUSH1 0x0 JUMPDEST DUP4 DUP2 LT ISZERO PUSH2 0x2E9C JUMPI DUP1 DUP3 ADD MLOAD DUP2 DUP5 ADD MSTORE PUSH1 0x20 DUP2 ADD SWAP1 POP PUSH2 0x2E81 JUMP JUMPDEST DUP4 DUP2 GT ISZERO PUSH2 0x2EAB JUMPI PUSH1 0x0 DUP5 DUP5 ADD MSTORE JUMPDEST POP POP POP POP JUMP JUMPDEST PUSH1 0x0 PUSH2 0x2EBC DUP3 PUSH2 0x2F27 JUMP JUMPDEST SWAP1 POP SWAP2 SWAP1 POP JUMP JUMPDEST PUSH1 0x0 PUSH2 0x2ECE DUP3 PUSH2 0x2F67 JUMP JUMPDEST SWAP1 POP SWAP2 SWAP1 POP JUMP JUMPDEST PUSH1 0x0 DUP2 SWAP1 POP SWAP2 SWAP1 POP JUMP JUMPDEST PUSH1 0x0 PUSH2 0x2EEA DUP3 PUSH2 0x2FA4 JUMP JUMPDEST SWAP1 POP SWAP2 SWAP1 POP JUMP JUMPDEST PUSH1 0x0 PUSH2 0x2EFC DUP3 PUSH2 0x2F97 JUMP JUMPDEST SWAP1 POP SWAP2 SWAP1 POP JUMP JUMPDEST PUSH1 0x0 PUSH2 0x2F0E DUP3 PUSH2 0x2F8A JUMP JUMPDEST SWAP1 POP SWAP2 SWAP1 POP JUMP JUMPDEST PUSH1 0x0 PUSH2 0x2F20 DUP3 PUSH2 0x2FA4 JUMP JUMPDEST SWAP1 POP SWAP2 SWAP1 POP JUMP JUMPDEST PUSH1 0x0 PUSH2 0x2F32 DUP3 PUSH2 0x2FBE JUMP JUMPDEST SWAP1 POP SWAP2 SWAP1 POP JUMP JUMPDEST PUSH1 0x0 DUP2 SWAP1 POP SWAP2 SWAP1 POP JUMP JUMPDEST PUSH1 0x0 PUSH2 0x2F4E DUP3 PUSH2 0x2F97 JUMP JUMPDEST SWAP1 POP SWAP2 SWAP1 POP JUMP JUMPDEST PUSH1 0x0 PUSH2 0x2F60 DUP3 PUSH2 0x2F8A JUMP JUMPDEST SWAP1 POP SWAP2 SWAP1 POP JUMP JUMPDEST PUSH1 0x0 PUSH2 0x2F72 DUP3 PUSH2 0x2FB1 JUMP JUMPDEST SWAP1 POP SWAP2 SWAP1 POP JUMP JUMPDEST PUSH1 0x0 PUSH1 0x1F NOT PUSH1 0x1F DUP4 ADD AND SWAP1 POP SWAP2 SWAP1 POP JUMP JUMPDEST PUSH1 0x0 DUP2 PUSH1 0xC0 SHL SWAP1 POP SWAP2 SWAP1 POP JUMP JUMPDEST PUSH1 0x0 DUP2 PUSH1 0xE0 SHL SWAP1 POP SWAP2 SWAP1 POP JUMP JUMPDEST PUSH1 0x0 DUP2 PUSH1 0xF0 SHL SWAP1 POP SWAP2 SWAP1 POP JUMP JUMPDEST PUSH1 0x0 DUP2 PUSH1 0xF8 SHL SWAP1 POP SWAP2 SWAP1 POP JUMP JUMPDEST PUSH1 0x0 DUP2 PUSH1 0x60 SHL SWAP1 POP SWAP2 SWAP1 POP JUMP JUMPDEST PUSH2 0x2FD4 DUP2 PUSH2 0x2D95 JUMP JUMPDEST DUP2 EQ PUSH2 0x2FDF JUMPI PUSH1 0x0 DUP1 REVERT JUMPDEST POP JUMP JUMPDEST PUSH2 0x2FEB DUP2 PUSH2 0x2DA7 JUMP JUMPDEST DUP2 EQ PUSH2 0x2FF6 JUMPI PUSH1 0x0 DUP1 REVERT JUMPDEST POP JUMP JUMPDEST PUSH2 0x3002 DUP2 PUSH2 0x2DB3 JUMP JUMPDEST DUP2 EQ PUSH2 0x300D JUMPI PUSH1 0x0 DUP1 REVERT JUMPDEST POP JUMP JUMPDEST PUSH2 0x3019 DUP2 PUSH2 0x2DDF JUMP JUMPDEST DUP2 EQ PUSH2 0x3024 JUMPI PUSH1 0x0 DUP1 REVERT JUMPDEST POP JUMP JUMPDEST PUSH2 0x3030 DUP2 PUSH2 0x2DEC JUMP JUMPDEST DUP2 EQ PUSH2 0x303B JUMPI PUSH1 0x0 DUP1 REVERT JUMPDEST POP JUMP JUMPDEST PUSH2 0x3047 DUP2 PUSH2 0x2DF9 JUMP JUMPDEST DUP2 EQ PUSH2 0x3052 JUMPI PUSH1 0x0 DUP1 REVERT JUMPDEST POP JUMP JUMPDEST PUSH2 0x305E DUP2 PUSH2 0x2E06 JUMP JUMPDEST DUP2 EQ PUSH2 0x3069 JUMPI PUSH1 0x0 DUP1 REVERT JUMPDEST POP JUMP JUMPDEST PUSH2 0x3075 DUP2 PUSH2 0x2E14 JUMP JUMPDEST DUP2 EQ PUSH2 0x3080 JUMPI PUSH1 0x0 DUP1 REVERT JUMPDEST POP JUMP JUMPDEST PUSH2 0x308C DUP2 PUSH2 0x2E34 JUMP JUMPDEST DUP2 EQ PUSH2 0x3097 JUMPI PUSH1 0x0 DUP1 REVERT JUMPDEST POP JUMP JUMPDEST PUSH2 0x30A3 DUP2 PUSH2 0x2E3E JUMP JUMPDEST DUP2 EQ PUSH2 0x30AE JUMPI PUSH1 0x0 DUP1 REVERT JUMPDEST POP JUMP JUMPDEST PUSH2 0x30BA DUP2 PUSH2 0x2E4E JUMP JUMPDEST DUP2 EQ PUSH2 0x30C5 JUMPI PUSH1 0x0 DUP1 REVERT JUMPDEST POP JUMP JUMPDEST PUSH2 0x30D1 DUP2 PUSH2 0x2E62 JUMP JUMPDEST DUP2 EQ PUSH2 0x30DC JUMPI PUSH1 0x0 DUP1 REVERT JUMPDEST POP JUMP INVALID LOG2 PUSH5 0x6970667358 0x22 SLT KECCAK256 DUP13 0xB1 0x25 0xFC 0xD3 ADDRESS PUSH19 0x1CF74A7B6554161F13372D45098ADC97FDC9F7 MOD PUSH13 0x3C9E80C64736F6C634300060C STOP CALLER "
		},
		"gasEstimates": {
			"creation": {
				"codeDepositCost": "2513000",
				"executionCost": "2710",
				"totalCost": "2515710"
			},
			"external": {
				"flipArray(bytes)": "infinite",
				"serializeAddress(address)": "infinite",
				"serializeBool(bool)": "infinite",
				"serializeBytes20(bytes20)": "infinite",
				"serializeCCoinbaseCurrencyState((int64,int64,int64,int64,int64[],int64[],int64[],int64[],int64[],int64[],int64[],int32[]))": "infinite",
				"serializeCCrossChainExport((uint8,uint32,uint160,uint32,uint32,uint160,uint160,int32,(uint160,uint64)[],(uint160,uint64)[],uint256,(uint160,uint64)[],address,int32))": "infinite",
				"serializeCCurrencyValueMap((uint160,uint64))": "infinite",
				"serializeCCurrencyValueMaps((uint160,uint64)[])": "infinite",
				"serializeCPBaaSNotarization((uint32,uint32,(uint32,uint160),uint160,uint32,(int64,int64,int64,int64,int64[],int64[],int64[],int64[],int64[],int64[],int64[],int32[]),(uint256,uint32),uint256,uint32,(uint160,(int64,int64,int64,int64,int64[],int64[],int64[],int64[],int64[],int64[],int64[],int32[]))[],(uint160,(int16,int16,uint160,uint32,uint256,uint256,uint256))[],(string,uint160)[]))": "infinite",
				"serializeCProofRoot((int16,int16,uint160,uint32,uint256,uint256,uint256))": "infinite",
				"serializeCReserveTransfer((uint32,(uint160,uint64),uint32,uint160,uint256,(uint32,uint160),uint160,uint160,uint160))": "infinite",
				"serializeCReserveTransfers((uint32,(uint160,uint64),uint32,uint160,uint256,(uint32,uint160),uint160,uint160,uint160)[])": "infinite",
				"serializeCTransferDestination((uint32,uint160))": "infinite",
				"serializeCUTXORef((uint256,uint32))": "infinite",
				"serializeCurrencyStates((uint160,(int64,int64,int64,int64,int64[],int64[],int64[],int64[],int64[],int64[],int64[],int32[])))": "infinite",
				"serializeCurrencyStatesArray((uint160,(int64,int64,int64,int64,int64[],int64[],int64[],int64[],int64[],int64[],int64[],int32[]))[])": "infinite",
				"serializeInt16(int16)": "infinite",
				"serializeInt32(int32)": "infinite",
				"serializeInt32Array(int32[])": "infinite",
				"serializeInt64(int64)": "infinite",
				"serializeInt64Array(int64[])": "infinite",
				"serializeProofRoots((uint160,(int16,int16,uint160,uint32,uint256,uint256,uint256)))": "infinite",
				"serializeProofRootsArray((uint160,(int16,int16,uint160,uint32,uint256,uint256,uint256))[])": "infinite",
				"serializeString(string)": "infinite",
				"serializeUint16(uint16)": "infinite",
				"serializeUint160(uint160)": "infinite",
				"serializeUint256(uint256)": "infinite",
				"serializeUint32(uint32)": "infinite",
				"serializeUint64(uint64)": "infinite",
				"serializeUint8(uint8)": "infinite"
			}
		},
		"methodIdentifiers": {
			"flipArray(bytes)": "1222d81a",
			"serializeAddress(address)": "241d23b2",
			"serializeBool(bool)": "009c8152",
			"serializeBytes20(bytes20)": "463276c3",
			"serializeCCoinbaseCurrencyState((int64,int64,int64,int64,int64[],int64[],int64[],int64[],int64[],int64[],int64[],int32[]))": "85f90983",
			"serializeCCrossChainExport((uint8,uint32,uint160,uint32,uint32,uint160,uint160,int32,(uint160,uint64)[],(uint160,uint64)[],uint256,(uint160,uint64)[],address,int32))": "9eeb30ff",
			"serializeCCurrencyValueMap((uint160,uint64))": "c41c134d",
			"serializeCCurrencyValueMaps((uint160,uint64)[])": "c6f4c269",
			"serializeCPBaaSNotarization((uint32,uint32,(uint32,uint160),uint160,uint32,(int64,int64,int64,int64,int64[],int64[],int64[],int64[],int64[],int64[],int64[],int32[]),(uint256,uint32),uint256,uint32,(uint160,(int64,int64,int64,int64,int64[],int64[],int64[],int64[],int64[],int64[],int64[],int32[]))[],(uint160,(int16,int16,uint160,uint32,uint256,uint256,uint256))[],(string,uint160)[]))": "a2e5d836",
			"serializeCProofRoot((int16,int16,uint160,uint32,uint256,uint256,uint256))": "537b91f5",
			"serializeCReserveTransfer((uint32,(uint160,uint64),uint32,uint160,uint256,(uint32,uint160),uint160,uint160,uint160))": "baa42698",
			"serializeCReserveTransfers((uint32,(uint160,uint64),uint32,uint160,uint256,(uint32,uint160),uint160,uint160,uint160)[])": "48352c07",
			"serializeCTransferDestination((uint32,uint160))": "20907b41",
			"serializeCUTXORef((uint256,uint32))": "b9edc795",
			"serializeCurrencyStates((uint160,(int64,int64,int64,int64,int64[],int64[],int64[],int64[],int64[],int64[],int64[],int32[])))": "6d83f48c",
			"serializeCurrencyStatesArray((uint160,(int64,int64,int64,int64,int64[],int64[],int64[],int64[],int64[],int64[],int64[],int32[]))[])": "b5a0fb24",
			"serializeInt16(int16)": "46256007",
			"serializeInt32(int32)": "fef5906a",
			"serializeInt32Array(int32[])": "9d487b47",
			"serializeInt64(int64)": "af832f09",
			"serializeInt64Array(int64[])": "f8217295",
			"serializeProofRoots((uint160,(int16,int16,uint160,uint32,uint256,uint256,uint256)))": "253fe4ee",
			"serializeProofRootsArray((uint160,(int16,int16,uint160,uint32,uint256,uint256,uint256))[])": "d40274b2",
			"serializeString(string)": "68b4ae81",
			"serializeUint16(uint16)": "e4cba547",
			"serializeUint160(uint160)": "57759e15",
			"serializeUint256(uint256)": "f20fb830",
			"serializeUint32(uint32)": "cecb3043",
			"serializeUint64(uint64)": "122e5ae7",
			"serializeUint8(uint8)": "6127b4ff"
		}
	},
	"abi": [
		{
			"inputs": [
				{
					"internalType": "bytes",
					"name": "incoming",
					"type": "bytes"
				}
			],
			"name": "flipArray",
			"outputs": [
				{
					"internalType": "bytes",
					"name": "",
					"type": "bytes"
				}
			],
			"stateMutability": "pure",
			"type": "function"
		},
		{
			"inputs": [
				{
					"internalType": "address",
					"name": "anyAddress",
					"type": "address"
				}
			],
			"name": "serializeAddress",
			"outputs": [
				{
					"internalType": "bytes",
					"name": "",
					"type": "bytes"
				}
			],
			"stateMutability": "pure",
			"type": "function"
		},
		{
			"inputs": [
				{
					"internalType": "bool",
					"name": "anyBool",
					"type": "bool"
				}
			],
			"name": "serializeBool",
			"outputs": [
				{
					"internalType": "bytes",
					"name": "",
					"type": "bytes"
				}
			],
			"stateMutability": "pure",
			"type": "function"
		},
		{
			"inputs": [
				{
					"internalType": "bytes20",
					"name": "anyBytes20",
					"type": "bytes20"
				}
			],
			"name": "serializeBytes20",
			"outputs": [
				{
					"internalType": "bytes",
					"name": "",
					"type": "bytes"
				}
			],
			"stateMutability": "pure",
			"type": "function"
		},
		{
			"inputs": [
				{
					"components": [
						{
							"internalType": "int64",
							"name": "primaryCurrencyOut",
							"type": "int64"
						},
						{
							"internalType": "int64",
							"name": "preconvertedOut",
							"type": "int64"
						},
						{
							"internalType": "int64",
							"name": "primaryCurrencyFees",
							"type": "int64"
						},
						{
							"internalType": "int64",
							"name": "primaryCurrencyConversionFees",
							"type": "int64"
						},
						{
							"internalType": "int64[]",
							"name": "reserveIn",
							"type": "int64[]"
						},
						{
							"internalType": "int64[]",
							"name": "primaryCurrencyIn",
							"type": "int64[]"
						},
						{
							"internalType": "int64[]",
							"name": "reserveOut",
							"type": "int64[]"
						},
						{
							"internalType": "int64[]",
							"name": "conversionPrice",
							"type": "int64[]"
						},
						{
							"internalType": "int64[]",
							"name": "viaConversionPrice",
							"type": "int64[]"
						},
						{
							"internalType": "int64[]",
							"name": "fees",
							"type": "int64[]"
						},
						{
							"internalType": "int64[]",
							"name": "conversionFees",
							"type": "int64[]"
						},
						{
							"internalType": "int32[]",
							"name": "priorWeights",
							"type": "int32[]"
						}
					],
					"internalType": "struct VerusObjects.CCoinbaseCurrencyState",
					"name": "_cccs",
					"type": "tuple"
				}
			],
			"name": "serializeCCoinbaseCurrencyState",
			"outputs": [
				{
					"internalType": "bytes",
					"name": "",
					"type": "bytes"
				}
			],
			"stateMutability": "pure",
			"type": "function"
		},
		{
			"inputs": [
				{
					"components": [
						{
							"internalType": "uint8",
							"name": "version",
							"type": "uint8"
						},
						{
							"internalType": "uint32",
							"name": "flags",
							"type": "uint32"
						},
						{
							"internalType": "uint160",
							"name": "sourcesystemid",
							"type": "uint160"
						},
						{
							"internalType": "uint32",
							"name": "sourceheightstart",
							"type": "uint32"
						},
						{
							"internalType": "uint32",
							"name": "sourceheightend",
							"type": "uint32"
						},
						{
							"internalType": "uint160",
							"name": "destinationsystemid",
							"type": "uint160"
						},
						{
							"internalType": "uint160",
							"name": "destinationcurrencyid",
							"type": "uint160"
						},
						{
							"internalType": "int32",
							"name": "numinputs",
							"type": "int32"
						},
						{
							"components": [
								{
									"internalType": "uint160",
									"name": "currency",
									"type": "uint160"
								},
								{
									"internalType": "uint64",
									"name": "amount",
									"type": "uint64"
								}
							],
							"internalType": "struct VerusObjects.CCurrencyValueMap[]",
							"name": "totalamounts",
							"type": "tuple[]"
						},
						{
							"components": [
								{
									"internalType": "uint160",
									"name": "currency",
									"type": "uint160"
								},
								{
									"internalType": "uint64",
									"name": "amount",
									"type": "uint64"
								}
							],
							"internalType": "struct VerusObjects.CCurrencyValueMap[]",
							"name": "totalfees",
							"type": "tuple[]"
						},
						{
							"internalType": "uint256",
							"name": "hashtransfers",
							"type": "uint256"
						},
						{
							"components": [
								{
									"internalType": "uint160",
									"name": "currency",
									"type": "uint160"
								},
								{
									"internalType": "uint64",
									"name": "amount",
									"type": "uint64"
								}
							],
							"internalType": "struct VerusObjects.CCurrencyValueMap[]",
							"name": "totalburned",
							"type": "tuple[]"
						},
						{
							"internalType": "address",
							"name": "rewardaddress",
							"type": "address"
						},
						{
							"internalType": "int32",
							"name": "firstinput",
							"type": "int32"
						}
					],
					"internalType": "struct VerusObjects.CCrossChainExport",
					"name": "_ccce",
					"type": "tuple"
				}
			],
			"name": "serializeCCrossChainExport",
			"outputs": [
				{
					"internalType": "bytes",
					"name": "",
					"type": "bytes"
				}
			],
			"stateMutability": "pure",
			"type": "function"
		},
		{
			"inputs": [
				{
					"components": [
						{
							"internalType": "uint160",
							"name": "currency",
							"type": "uint160"
						},
						{
							"internalType": "uint64",
							"name": "amount",
							"type": "uint64"
						}
					],
					"internalType": "struct VerusObjects.CCurrencyValueMap",
					"name": "_ccvm",
					"type": "tuple"
				}
			],
			"name": "serializeCCurrencyValueMap",
			"outputs": [
				{
					"internalType": "bytes",
					"name": "",
					"type": "bytes"
				}
			],
			"stateMutability": "pure",
			"type": "function"
		},
		{
			"inputs": [
				{
					"components": [
						{
							"internalType": "uint160",
							"name": "currency",
							"type": "uint160"
						},
						{
							"internalType": "uint64",
							"name": "amount",
							"type": "uint64"
						}
					],
					"internalType": "struct VerusObjects.CCurrencyValueMap[]",
					"name": "_ccvms",
					"type": "tuple[]"
				}
			],
			"name": "serializeCCurrencyValueMaps",
			"outputs": [
				{
					"internalType": "bytes",
					"name": "",
					"type": "bytes"
				}
			],
			"stateMutability": "pure",
			"type": "function"
		},
		{
			"inputs": [
				{
					"components": [
						{
							"internalType": "uint32",
							"name": "version",
							"type": "uint32"
						},
						{
							"internalType": "uint32",
							"name": "flags",
							"type": "uint32"
						},
						{
							"components": [
								{
									"internalType": "uint32",
									"name": "destinationtype",
									"type": "uint32"
								},
								{
									"internalType": "uint160",
									"name": "destinationaddress",
									"type": "uint160"
								}
							],
							"internalType": "struct VerusObjects.CTransferDestination",
							"name": "proposer",
							"type": "tuple"
						},
						{
							"internalType": "uint160",
							"name": "currencyID",
							"type": "uint160"
						},
						{
							"internalType": "uint32",
							"name": "notarizationHeight",
							"type": "uint32"
						},
						{
							"components": [
								{
									"internalType": "int64",
									"name": "primaryCurrencyOut",
									"type": "int64"
								},
								{
									"internalType": "int64",
									"name": "preconvertedOut",
									"type": "int64"
								},
								{
									"internalType": "int64",
									"name": "primaryCurrencyFees",
									"type": "int64"
								},
								{
									"internalType": "int64",
									"name": "primaryCurrencyConversionFees",
									"type": "int64"
								},
								{
									"internalType": "int64[]",
									"name": "reserveIn",
									"type": "int64[]"
								},
								{
									"internalType": "int64[]",
									"name": "primaryCurrencyIn",
									"type": "int64[]"
								},
								{
									"internalType": "int64[]",
									"name": "reserveOut",
									"type": "int64[]"
								},
								{
									"internalType": "int64[]",
									"name": "conversionPrice",
									"type": "int64[]"
								},
								{
									"internalType": "int64[]",
									"name": "viaConversionPrice",
									"type": "int64[]"
								},
								{
									"internalType": "int64[]",
									"name": "fees",
									"type": "int64[]"
								},
								{
									"internalType": "int64[]",
									"name": "conversionFees",
									"type": "int64[]"
								},
								{
									"internalType": "int32[]",
									"name": "priorWeights",
									"type": "int32[]"
								}
							],
							"internalType": "struct VerusObjects.CCoinbaseCurrencyState",
							"name": "currencyState",
							"type": "tuple"
						},
						{
							"components": [
								{
									"internalType": "uint256",
									"name": "hash",
									"type": "uint256"
								},
								{
									"internalType": "uint32",
									"name": "n",
									"type": "uint32"
								}
							],
							"internalType": "struct VerusObjects.CUTXORef",
							"name": "prevNotarization",
							"type": "tuple"
						},
						{
							"internalType": "uint256",
							"name": "hashPrevNotarization",
							"type": "uint256"
						},
						{
							"internalType": "uint32",
							"name": "prevHeight",
							"type": "uint32"
						},
						{
							"components": [
								{
									"internalType": "uint160",
									"name": "currencyId",
									"type": "uint160"
								},
								{
									"components": [
										{
											"internalType": "int64",
											"name": "primaryCurrencyOut",
											"type": "int64"
										},
										{
											"internalType": "int64",
											"name": "preconvertedOut",
											"type": "int64"
										},
										{
											"internalType": "int64",
											"name": "primaryCurrencyFees",
											"type": "int64"
										},
										{
											"internalType": "int64",
											"name": "primaryCurrencyConversionFees",
											"type": "int64"
										},
										{
											"internalType": "int64[]",
											"name": "reserveIn",
											"type": "int64[]"
										},
										{
											"internalType": "int64[]",
											"name": "primaryCurrencyIn",
											"type": "int64[]"
										},
										{
											"internalType": "int64[]",
											"name": "reserveOut",
											"type": "int64[]"
										},
										{
											"internalType": "int64[]",
											"name": "conversionPrice",
											"type": "int64[]"
										},
										{
											"internalType": "int64[]",
											"name": "viaConversionPrice",
											"type": "int64[]"
										},
										{
											"internalType": "int64[]",
											"name": "fees",
											"type": "int64[]"
										},
										{
											"internalType": "int64[]",
											"name": "conversionFees",
											"type": "int64[]"
										},
										{
											"internalType": "int32[]",
											"name": "priorWeights",
											"type": "int32[]"
										}
									],
									"internalType": "struct VerusObjects.CCoinbaseCurrencyState",
									"name": "currencyState",
									"type": "tuple"
								}
							],
							"internalType": "struct VerusObjects.CurrencyStates[]",
							"name": "currencyStates",
							"type": "tuple[]"
						},
						{
							"components": [
								{
									"internalType": "uint160",
									"name": "currencyId",
									"type": "uint160"
								},
								{
									"components": [
										{
											"internalType": "int16",
											"name": "version",
											"type": "int16"
										},
										{
											"internalType": "int16",
											"name": "CPRtype",
											"type": "int16"
										},
										{
											"internalType": "uint160",
											"name": "systemID",
											"type": "uint160"
										},
										{
											"internalType": "uint32",
											"name": "rootHeight",
											"type": "uint32"
										},
										{
											"internalType": "uint256",
											"name": "stateRoot",
											"type": "uint256"
										},
										{
											"internalType": "uint256",
											"name": "blockHash",
											"type": "uint256"
										},
										{
											"internalType": "uint256",
											"name": "compactPower",
											"type": "uint256"
										}
									],
									"internalType": "struct VerusObjects.CProofRoot",
									"name": "proofRoot",
									"type": "tuple"
								}
							],
							"internalType": "struct VerusObjects.ProofRoots[]",
							"name": "proofRoots",
							"type": "tuple[]"
						},
						{
							"components": [
								{
									"internalType": "string",
									"name": "networkAddress",
									"type": "string"
								},
								{
									"internalType": "uint160",
									"name": "nodeIdentity",
									"type": "uint160"
								}
							],
							"internalType": "struct VerusObjects.CNodeData[]",
							"name": "nodes",
							"type": "tuple[]"
						}
					],
					"internalType": "struct VerusObjects.CPBaaSNotarization",
					"name": "_not",
					"type": "tuple"
				}
			],
			"name": "serializeCPBaaSNotarization",
			"outputs": [
				{
					"internalType": "bytes",
					"name": "",
					"type": "bytes"
				}
			],
			"stateMutability": "pure",
			"type": "function"
		},
		{
			"inputs": [
				{
					"components": [
						{
							"internalType": "int16",
							"name": "version",
							"type": "int16"
						},
						{
							"internalType": "int16",
							"name": "CPRtype",
							"type": "int16"
						},
						{
							"internalType": "uint160",
							"name": "systemID",
							"type": "uint160"
						},
						{
							"internalType": "uint32",
							"name": "rootHeight",
							"type": "uint32"
						},
						{
							"internalType": "uint256",
							"name": "stateRoot",
							"type": "uint256"
						},
						{
							"internalType": "uint256",
							"name": "blockHash",
							"type": "uint256"
						},
						{
							"internalType": "uint256",
							"name": "compactPower",
							"type": "uint256"
						}
					],
					"internalType": "struct VerusObjects.CProofRoot",
					"name": "_cpr",
					"type": "tuple"
				}
			],
			"name": "serializeCProofRoot",
			"outputs": [
				{
					"internalType": "bytes",
					"name": "",
					"type": "bytes"
				}
			],
			"stateMutability": "pure",
			"type": "function"
		},
		{
			"inputs": [
				{
					"components": [
						{
							"internalType": "uint32",
							"name": "version",
							"type": "uint32"
						},
						{
							"components": [
								{
									"internalType": "uint160",
									"name": "currency",
									"type": "uint160"
								},
								{
									"internalType": "uint64",
									"name": "amount",
									"type": "uint64"
								}
							],
							"internalType": "struct VerusObjects.CCurrencyValueMap",
							"name": "currencyvalues",
							"type": "tuple"
						},
						{
							"internalType": "uint32",
							"name": "flags",
							"type": "uint32"
						},
						{
							"internalType": "uint160",
							"name": "feecurrencyid",
							"type": "uint160"
						},
						{
							"internalType": "uint256",
							"name": "fees",
							"type": "uint256"
						},
						{
							"components": [
								{
									"internalType": "uint32",
									"name": "destinationtype",
									"type": "uint32"
								},
								{
									"internalType": "uint160",
									"name": "destinationaddress",
									"type": "uint160"
								}
							],
							"internalType": "struct VerusObjects.CTransferDestination",
							"name": "destination",
							"type": "tuple"
						},
						{
							"internalType": "uint160",
							"name": "destCurrencyID",
							"type": "uint160"
						},
						{
							"internalType": "uint160",
							"name": "secondReserveID",
							"type": "uint160"
						},
						{
							"internalType": "uint160",
							"name": "destSystemID",
							"type": "uint160"
						}
					],
					"internalType": "struct VerusObjects.CReserveTransfer",
					"name": "ct",
					"type": "tuple"
				}
			],
			"name": "serializeCReserveTransfer",
			"outputs": [
				{
					"internalType": "bytes",
					"name": "",
					"type": "bytes"
				}
			],
			"stateMutability": "pure",
			"type": "function"
		},
		{
			"inputs": [
				{
					"components": [
						{
							"internalType": "uint32",
							"name": "version",
							"type": "uint32"
						},
						{
							"components": [
								{
									"internalType": "uint160",
									"name": "currency",
									"type": "uint160"
								},
								{
									"internalType": "uint64",
									"name": "amount",
									"type": "uint64"
								}
							],
							"internalType": "struct VerusObjects.CCurrencyValueMap",
							"name": "currencyvalues",
							"type": "tuple"
						},
						{
							"internalType": "uint32",
							"name": "flags",
							"type": "uint32"
						},
						{
							"internalType": "uint160",
							"name": "feecurrencyid",
							"type": "uint160"
						},
						{
							"internalType": "uint256",
							"name": "fees",
							"type": "uint256"
						},
						{
							"components": [
								{
									"internalType": "uint32",
									"name": "destinationtype",
									"type": "uint32"
								},
								{
									"internalType": "uint160",
									"name": "destinationaddress",
									"type": "uint160"
								}
							],
							"internalType": "struct VerusObjects.CTransferDestination",
							"name": "destination",
							"type": "tuple"
						},
						{
							"internalType": "uint160",
							"name": "destCurrencyID",
							"type": "uint160"
						},
						{
							"internalType": "uint160",
							"name": "secondReserveID",
							"type": "uint160"
						},
						{
							"internalType": "uint160",
							"name": "destSystemID",
							"type": "uint160"
						}
					],
					"internalType": "struct VerusObjects.CReserveTransfer[]",
					"name": "_bts",
					"type": "tuple[]"
				}
			],
			"name": "serializeCReserveTransfers",
			"outputs": [
				{
					"internalType": "bytes",
					"name": "",
					"type": "bytes"
				}
			],
			"stateMutability": "pure",
			"type": "function"
		},
		{
			"inputs": [
				{
					"components": [
						{
							"internalType": "uint32",
							"name": "destinationtype",
							"type": "uint32"
						},
						{
							"internalType": "uint160",
							"name": "destinationaddress",
							"type": "uint160"
						}
					],
					"internalType": "struct VerusObjects.CTransferDestination",
					"name": "ctd",
					"type": "tuple"
				}
			],
			"name": "serializeCTransferDestination",
			"outputs": [
				{
					"internalType": "bytes",
					"name": "",
					"type": "bytes"
				}
			],
			"stateMutability": "pure",
			"type": "function"
		},
		{
			"inputs": [
				{
					"components": [
						{
							"internalType": "uint256",
							"name": "hash",
							"type": "uint256"
						},
						{
							"internalType": "uint32",
							"name": "n",
							"type": "uint32"
						}
					],
					"internalType": "struct VerusObjects.CUTXORef",
					"name": "_cutxo",
					"type": "tuple"
				}
			],
			"name": "serializeCUTXORef",
			"outputs": [
				{
					"internalType": "bytes",
					"name": "",
					"type": "bytes"
				}
			],
			"stateMutability": "pure",
			"type": "function"
		},
		{
			"inputs": [
				{
					"components": [
						{
							"internalType": "uint160",
							"name": "currencyId",
							"type": "uint160"
						},
						{
							"components": [
								{
									"internalType": "int64",
									"name": "primaryCurrencyOut",
									"type": "int64"
								},
								{
									"internalType": "int64",
									"name": "preconvertedOut",
									"type": "int64"
								},
								{
									"internalType": "int64",
									"name": "primaryCurrencyFees",
									"type": "int64"
								},
								{
									"internalType": "int64",
									"name": "primaryCurrencyConversionFees",
									"type": "int64"
								},
								{
									"internalType": "int64[]",
									"name": "reserveIn",
									"type": "int64[]"
								},
								{
									"internalType": "int64[]",
									"name": "primaryCurrencyIn",
									"type": "int64[]"
								},
								{
									"internalType": "int64[]",
									"name": "reserveOut",
									"type": "int64[]"
								},
								{
									"internalType": "int64[]",
									"name": "conversionPrice",
									"type": "int64[]"
								},
								{
									"internalType": "int64[]",
									"name": "viaConversionPrice",
									"type": "int64[]"
								},
								{
									"internalType": "int64[]",
									"name": "fees",
									"type": "int64[]"
								},
								{
									"internalType": "int64[]",
									"name": "conversionFees",
									"type": "int64[]"
								},
								{
									"internalType": "int32[]",
									"name": "priorWeights",
									"type": "int32[]"
								}
							],
							"internalType": "struct VerusObjects.CCoinbaseCurrencyState",
							"name": "currencyState",
							"type": "tuple"
						}
					],
					"internalType": "struct VerusObjects.CurrencyStates",
					"name": "_cs",
					"type": "tuple"
				}
			],
			"name": "serializeCurrencyStates",
			"outputs": [
				{
					"internalType": "bytes",
					"name": "",
					"type": "bytes"
				}
			],
			"stateMutability": "pure",
			"type": "function"
		},
		{
			"inputs": [
				{
					"components": [
						{
							"internalType": "uint160",
							"name": "currencyId",
							"type": "uint160"
						},
						{
							"components": [
								{
									"internalType": "int64",
									"name": "primaryCurrencyOut",
									"type": "int64"
								},
								{
									"internalType": "int64",
									"name": "preconvertedOut",
									"type": "int64"
								},
								{
									"internalType": "int64",
									"name": "primaryCurrencyFees",
									"type": "int64"
								},
								{
									"internalType": "int64",
									"name": "primaryCurrencyConversionFees",
									"type": "int64"
								},
								{
									"internalType": "int64[]",
									"name": "reserveIn",
									"type": "int64[]"
								},
								{
									"internalType": "int64[]",
									"name": "primaryCurrencyIn",
									"type": "int64[]"
								},
								{
									"internalType": "int64[]",
									"name": "reserveOut",
									"type": "int64[]"
								},
								{
									"internalType": "int64[]",
									"name": "conversionPrice",
									"type": "int64[]"
								},
								{
									"internalType": "int64[]",
									"name": "viaConversionPrice",
									"type": "int64[]"
								},
								{
									"internalType": "int64[]",
									"name": "fees",
									"type": "int64[]"
								},
								{
									"internalType": "int64[]",
									"name": "conversionFees",
									"type": "int64[]"
								},
								{
									"internalType": "int32[]",
									"name": "priorWeights",
									"type": "int32[]"
								}
							],
							"internalType": "struct VerusObjects.CCoinbaseCurrencyState",
							"name": "currencyState",
							"type": "tuple"
						}
					],
					"internalType": "struct VerusObjects.CurrencyStates[]",
					"name": "_csa",
					"type": "tuple[]"
				}
			],
			"name": "serializeCurrencyStatesArray",
			"outputs": [
				{
					"internalType": "bytes",
					"name": "",
					"type": "bytes"
				}
			],
			"stateMutability": "pure",
			"type": "function"
		},
		{
			"inputs": [
				{
					"internalType": "int16",
					"name": "number",
					"type": "int16"
				}
			],
			"name": "serializeInt16",
			"outputs": [
				{
					"internalType": "bytes",
					"name": "",
					"type": "bytes"
				}
			],
			"stateMutability": "pure",
			"type": "function"
		},
		{
			"inputs": [
				{
					"internalType": "int32",
					"name": "number",
					"type": "int32"
				}
			],
			"name": "serializeInt32",
			"outputs": [
				{
					"internalType": "bytes",
					"name": "",
					"type": "bytes"
				}
			],
			"stateMutability": "pure",
			"type": "function"
		},
		{
			"inputs": [
				{
					"internalType": "int32[]",
					"name": "numbers",
					"type": "int32[]"
				}
			],
			"name": "serializeInt32Array",
			"outputs": [
				{
					"internalType": "bytes",
					"name": "",
					"type": "bytes"
				}
			],
			"stateMutability": "pure",
			"type": "function"
		},
		{
			"inputs": [
				{
					"internalType": "int64",
					"name": "number",
					"type": "int64"
				}
			],
			"name": "serializeInt64",
			"outputs": [
				{
					"internalType": "bytes",
					"name": "",
					"type": "bytes"
				}
			],
			"stateMutability": "pure",
			"type": "function"
		},
		{
			"inputs": [
				{
					"internalType": "int64[]",
					"name": "numbers",
					"type": "int64[]"
				}
			],
			"name": "serializeInt64Array",
			"outputs": [
				{
					"internalType": "bytes",
					"name": "",
					"type": "bytes"
				}
			],
			"stateMutability": "pure",
			"type": "function"
		},
		{
			"inputs": [
				{
					"components": [
						{
							"internalType": "uint160",
							"name": "currencyId",
							"type": "uint160"
						},
						{
							"components": [
								{
									"internalType": "int16",
									"name": "version",
									"type": "int16"
								},
								{
									"internalType": "int16",
									"name": "CPRtype",
									"type": "int16"
								},
								{
									"internalType": "uint160",
									"name": "systemID",
									"type": "uint160"
								},
								{
									"internalType": "uint32",
									"name": "rootHeight",
									"type": "uint32"
								},
								{
									"internalType": "uint256",
									"name": "stateRoot",
									"type": "uint256"
								},
								{
									"internalType": "uint256",
									"name": "blockHash",
									"type": "uint256"
								},
								{
									"internalType": "uint256",
									"name": "compactPower",
									"type": "uint256"
								}
							],
							"internalType": "struct VerusObjects.CProofRoot",
							"name": "proofRoot",
							"type": "tuple"
						}
					],
					"internalType": "struct VerusObjects.ProofRoots",
					"name": "_prs",
					"type": "tuple"
				}
			],
			"name": "serializeProofRoots",
			"outputs": [
				{
					"internalType": "bytes",
					"name": "",
					"type": "bytes"
				}
			],
			"stateMutability": "pure",
			"type": "function"
		},
		{
			"inputs": [
				{
					"components": [
						{
							"internalType": "uint160",
							"name": "currencyId",
							"type": "uint160"
						},
						{
							"components": [
								{
									"internalType": "int16",
									"name": "version",
									"type": "int16"
								},
								{
									"internalType": "int16",
									"name": "CPRtype",
									"type": "int16"
								},
								{
									"internalType": "uint160",
									"name": "systemID",
									"type": "uint160"
								},
								{
									"internalType": "uint32",
									"name": "rootHeight",
									"type": "uint32"
								},
								{
									"internalType": "uint256",
									"name": "stateRoot",
									"type": "uint256"
								},
								{
									"internalType": "uint256",
									"name": "blockHash",
									"type": "uint256"
								},
								{
									"internalType": "uint256",
									"name": "compactPower",
									"type": "uint256"
								}
							],
							"internalType": "struct VerusObjects.CProofRoot",
							"name": "proofRoot",
							"type": "tuple"
						}
					],
					"internalType": "struct VerusObjects.ProofRoots[]",
					"name": "_prsa",
					"type": "tuple[]"
				}
			],
			"name": "serializeProofRootsArray",
			"outputs": [
				{
					"internalType": "bytes",
					"name": "",
					"type": "bytes"
				}
			],
			"stateMutability": "pure",
			"type": "function"
		},
		{
			"inputs": [
				{
					"internalType": "string",
					"name": "anyString",
					"type": "string"
				}
			],
			"name": "serializeString",
			"outputs": [
				{
					"internalType": "bytes",
					"name": "",
					"type": "bytes"
				}
			],
			"stateMutability": "pure",
			"type": "function"
		},
		{
			"inputs": [
				{
					"internalType": "uint16",
					"name": "number",
					"type": "uint16"
				}
			],
			"name": "serializeUint16",
			"outputs": [
				{
					"internalType": "bytes",
					"name": "",
					"type": "bytes"
				}
			],
			"stateMutability": "pure",
			"type": "function"
		},
		{
			"inputs": [
				{
					"internalType": "uint160",
					"name": "number",
					"type": "uint160"
				}
			],
			"name": "serializeUint160",
			"outputs": [
				{
					"internalType": "bytes",
					"name": "",
					"type": "bytes"
				}
			],
			"stateMutability": "pure",
			"type": "function"
		},
		{
			"inputs": [
				{
					"internalType": "uint256",
					"name": "number",
					"type": "uint256"
				}
			],
			"name": "serializeUint256",
			"outputs": [
				{
					"internalType": "bytes",
					"name": "",
					"type": "bytes"
				}
			],
			"stateMutability": "pure",
			"type": "function"
		},
		{
			"inputs": [
				{
					"internalType": "uint32",
					"name": "number",
					"type": "uint32"
				}
			],
			"name": "serializeUint32",
			"outputs": [
				{
					"internalType": "bytes",
					"name": "",
					"type": "bytes"
				}
			],
			"stateMutability": "pure",
			"type": "function"
		},
		{
			"inputs": [
				{
					"internalType": "uint64",
					"name": "number",
					"type": "uint64"
				}
			],
			"name": "serializeUint64",
			"outputs": [
				{
					"internalType": "bytes",
					"name": "",
					"type": "bytes"
				}
			],
			"stateMutability": "pure",
			"type": "function"
		},
		{
			"inputs": [
				{
					"internalType": "uint8",
					"name": "number",
					"type": "uint8"
				}
			],
			"name": "serializeUint8",
			"outputs": [
				{
					"internalType": "bytes",
					"name": "",
					"type": "bytes"
				}
			],
			"stateMutability": "pure",
			"type": "function"
		}
	]
}