{
	"data": {
		"bytecode": {
			"linkReferences": {},
			"object": "608060405234801561001057600080fd5b50613d0b806100206000396000f3fe608060405234801561001057600080fd5b506004361061021b5760003560e01c80638e619e2011610125578063c93e58c8116100ad578063df61a9371161007c578063df61a937146107f0578063e4cba54714610820578063f20fb83014610850578063f821729514610880578063fef5906a146108b05761021b565b8063c93e58c814610730578063cecb304314610760578063cfa84de914610790578063dad935a1146107c05761021b565b8063b3a895f6116100f4578063b3a895f614610640578063b9edc79514610670578063b9f7f35a146106a0578063bcddeda4146106d0578063c7343e2c146107005761021b565b80638e619e2014610580578063941bb060146105b05780639d487b47146105e0578063af832f09146106105761021b565b8063343bee60116101a85780635f02802c116101775780635f02802c146104905780636127b4ff146104c057806368b4ae81146104f05780637a635645146105205780638bbfc13e146105505761021b565b8063343bee60146103d057806344c789d1146104005780634625600714610430578063463276c3146104605761021b565b8063153f504f116101ef578063153f504f146102e057806319a7c17b1461031057806320105c8a14610340578063241d23b21461037057806329688df3146103a05761021b565b80629c815214610220578063049e3490146102505780631222d81a14610280578063122e5ae7146102b0575b600080fd5b61023a60048036038101906102359190612a52565b6108e0565b60405161024791906136d8565b60405180910390f35b61026a6004803603810190610265919061290d565b610909565b60405161027791906136d8565b60405180910390f35b61029a60048036038101906102959190612acd565b61097a565b6040516102a791906136d8565b60405180910390f35b6102ca60048036038101906102c59190612f29565b610a4b565b6040516102d791906136d8565b60405180910390f35b6102fa60048036038101906102f5919061294e565b610a82565b60405161030791906136d8565b60405180910390f35b61032a60048036038101906103259190612a11565b610af3565b60405161033791906136d8565b60405180910390f35b61035a60048036038101906103559190612d9e565b610b83565b60405161036791906136d8565b60405180910390f35b61038a60048036038101906103859190612821565b610c0c565b60405161039791906136d8565b60405180910390f35b6103ba60048036038101906103b59190612e84565b610c3b565b6040516103c791906136d8565b60405180910390f35b6103ea60048036038101906103e59190612cb2565b610c7e565b6040516103f791906136d8565b60405180910390f35b61041a60048036038101906104159190612d1c565b610dcb565b60405161042791906136d8565b60405180910390f35b61044a60048036038101906104459190612b0e565b610e06565b60405161045791906136d8565b60405180910390f35b61047a60048036038101906104759190612a7b565b610e3d565b60405161048791906136d8565b60405180910390f35b6104aa60048036038101906104a59190612d5d565b610e66565b6040516104b791906136d8565b60405180910390f35b6104da60048036038101906104d59190612f52565b610f2a565b6040516104e791906136d8565b60405180910390f35b61050a60048036038101906105059190612b89565b610f61565b60405161051791906136d8565b60405180910390f35b61053a6004803603810190610535919061298f565b610f8a565b60405161054791906136d8565b60405180910390f35b61056a60048036038101906105659190612dc7565b610ffb565b60405161057791906136d8565b60405180910390f35b61059a600480360381019061059591906129d0565b6110ff565b6040516105a791906136d8565b60405180910390f35b6105ca60048036038101906105c591906128cc565b611170565b6040516105d791906136d8565b60405180910390f35b6105fa60048036038101906105f5919061284a565b6111e1565b60405161060791906136d8565b60405180910390f35b61062a60048036038101906106259190612b60565b61124a565b60405161063791906136d8565b60405180910390f35b61065a60048036038101906106559190612ed7565b611281565b60405161066791906136d8565b60405180910390f35b61068a60048036038101906106859190612e1a565b611309565b60405161069791906136d8565b60405180910390f35b6106ba60048036038101906106b59190612aa4565b61134c565b6040516106c791906136d8565b60405180910390f35b6106ea60048036038101906106e59190612e43565b611375565b6040516106f791906136d8565b60405180910390f35b61071a60048036038101906107159190612c71565b6113b8565b60405161072791906136d8565b60405180910390f35b61074a60048036038101906107459190612bca565b611531565b60405161075791906136d8565b60405180910390f35b61077a60048036038101906107759190612f00565b611586565b60405161078791906136d8565b60405180910390f35b6107aa60048036038101906107a59190612cf3565b6115bd565b6040516107b791906136d8565b60405180910390f35b6107da60048036038101906107d59190612ed7565b611600565b6040516107e791906136d8565b60405180910390f35b61080a60048036038101906108059190612df1565b6116cf565b60405161081791906136d8565b60405180910390f35b61083a60048036038101906108359190612eae565b61171d565b60405161084791906136d8565b60405180910390f35b61086a60048036038101906108659190612ed7565b611754565b60405161087791906136d8565b60405180910390f35b61089a6004803603810190610895919061288b565b61178b565b6040516108a791906136d8565b60405180910390f35b6108ca60048036038101906108c59190612b37565b61181b565b6040516108d791906136d8565b60405180910390f35b6060816040516020016108f39190613173565b6040516020818303038152906040529050919050565b6060806109168351611754565b905060005b8351811015610970578161094185838151811061093457fe5b6020026020010151610dcb565b6040516020016109529291906131ec565b6040516020818303038152906040529150808060010191505061091b565b5080915050919050565b606060008251905060008167ffffffffffffffff8111801561099b57600080fd5b506040519080825280601f01601f1916602001820160405280156109ce5781602001600182028036833780820191505090505b50905060005b82811015610a405784600182850303815181106109ed57fe5b602001015160f81c60f81b828281518110610a0457fe5b60200101907effffffffffffffffffffffffffffffffffffffffffffffffffffffffffffff1916908160001a90535080806001019150506109d4565b819350505050919050565b6060600082604051602001610a60919061361e565b6040516020818303038152906040529050610a7a8161097a565b915050919050565b606080610a8f8351611600565b905060005b8351811015610ae95781610aba858381518110610aad57fe5b6020026020010151610ffb565b604051602001610acb9291906131ec565b60405160208183030381529060405291508080600101915050610a94565b5080915050919050565b606080610b008351611754565b905060005b8351811015610b795781610b4a858381518110610b1e57fe5b6020026020010151604051602001610b3691906135b2565b60405160208183030381529060405261097a565b604051602001610b5b9291906131ec565b60405160208183030381529060405291508080600101915050610b05565b5080915050919050565b6060610b928260000151610e06565b610b9f8360200151610e06565b610bac8460400151610c0c565b610bb98560600151611586565b610bc68660800151611754565b610bd38760a00151611754565b610be08860c00151611754565b604051602001610bf697969594939291906132e4565b6040516020818303038152906040529050919050565b6060600082604051602001610c219190613158565b604051602081830303815290604052905080915050919050565b6060610c4a8260000151610c0c565b610c578360200151610b83565b604051602001610c689291906131ec565b6040516020818303038152906040529050919050565b60606000610c8f836000015161171d565b610c9c846020015161171d565b610ca98560400151610c0c565b610cbc866060015163ffffffff16611281565b610ccf876080015163ffffffff16611281565b610cdc8860a00151610c0c565b610ce98960c00151610c0c565b604051602001610cff97969594939291906132e4565b60405160208183030381529060405290506000610d1f8460e00151611586565b610d2d856101000151611170565b610d3b866101200151611170565b610d4987610140015161134c565b610d57886101600151611170565b610d658961018001516116cf565b610d738a6101a0015161181b565b600060f81b604051602001610d8f989796959493929190613349565b60405160208183030381529060405290508181604051602001610db39291906131ec565b60405160208183030381529060405292505050919050565b60608160000151610ddf8360200151610c0c565b604051602001610df092919061358e565b6040516020818303038152906040529050919050565b6060600082604051602001610e1b9190613526565b6040516020818303038152906040529050610e358161097a565b915050919050565b606081604051602001610e50919061318e565b6040516020818303038152906040529050919050565b6060610e758260000151611586565b610e8283602001516116cf565b610e8f8460400151611586565b610e9c85606001516113b8565b610ea98660800151611754565b610eb68760a0015161124a565b610ec38860c00151611754565b610ed08960e00151610a4b565b610ede8a6101000151610f8a565b610eec8b61012001516110ff565b610efa8c6101400151610909565b604051602001610f149b9a999897969594939291906133bf565b6040516020818303038152906040529050919050565b6060600082604051602001610f3f9190613639565b6040516020818303038152906040529050610f598161097a565b915050919050565b606081604051602001610f749190613577565b6040516020818303038152906040529050919050565b606080610f978351611754565b905060005b8351811015610ff15781610fc2858381518110610fb557fe5b6020026020010151611375565b604051602001610fd39291906131ec565b60405160208183030381529060405291508080600101915050610f9c565b5080915050919050565b60606000611012836000015163ffffffff16611281565b61101f84602001516115bd565b611032856040015163ffffffff16611281565b61103f8660600151610c0c565b61104c8760800151611281565b6110598860a001516116cf565b6110668960c00151610c0c565b60405160200161107c97969594939291906132e4565b6040516020818303038152906040529050600073ffffffffffffffffffffffffffffffffffffffff168360e0015173ffffffffffffffffffffffffffffffffffffffff16146110f657806110d38460e00151610c0c565b6040516020016110e49291906131ec565b60405160208183030381529060405290505b80915050919050565b60608061110c8351611754565b905060005b8351811015611166578161113785838151811061112a57fe5b6020026020010151610c3b565b6040516020016111489291906131ec565b60405160208183030381529060405291508080600101915050611111565b5080915050919050565b60608061117d8351611281565b905060005b83518110156111d757816111a885838151811061119b57fe5b60200260200101516115bd565b6040516020016111b99291906131ec565b60405160208183030381529060405291508080600101915050611182565b5080915050919050565b6060806111ee8351611754565b905060005b8351811015611240578184828151811061120957fe5b60200260200101516040516020016112229291906134fe565b604051602081830303815290604052915080806001019150506111f3565b5080915050919050565b606060008260405160200161125f919061355c565b60405160208183030381529060405290506112798161097a565b915050919050565b60606000606060005b6001156112f65760008114156112a15760006112a4565b60805b607f86161760f81b925081836040516020016112c19291906131c4565b6040516020818303038152906040529150607f85116112df576112f6565b6001600786901c039450808060010191505061128a565b6112ff8261097a565b9350505050919050565b60606113188260000151611754565b6113258360200151611586565b6040516020016113369291906131ec565b6040516020818303038152906040529050919050565b60608160405160200161135f91906131a9565b6040516020818303038152906040529050919050565b60606113848260000151610c0c565b61139183602001516113b8565b6040516020016113a29291906131ec565b6040516020818303038152906040529050919050565b606060006113c9836000015161171d565b6113d6846020015161171d565b6113e38560400151610c0c565b6113f08660600151610af3565b6113fd87608001516111e1565b61140a8860a0015161178b565b60405160200161141f9695949392919061328c565b6040516020818303038152906040529050600061144084610120015161124a565b61144e85610140015161124a565b61145c86610160015161124a565b61146a87610180015161124a565b611478886101a0015161178b565b611486896101c0015161178b565b6114948a6101e0015161178b565b6114a28b610200015161178b565b6114b08c610220015161178b565b6114be8d610240015161178b565b6114cc8e610260015161178b565b6114da8f61028001516111e1565b6040516020016114f59c9b9a99989796959493929190613458565b604051602081830303815290604052905081816040516020016115199291906131ec565b60405160208183030381529060405292505050919050565b606061153c86610f61565b61154586610c0c565b61154e8661124a565b61155786610c0c565b8560405160200161156c959493929190613241565b604051602081830303815290604052905095945050505050565b606060008260405160200161159b9190613603565b60405160208183030381529060405290506115b58161097a565b915050919050565b60606115cc8260000151610c0c565b6115d98360200151610a4b565b6040516020016115ea9291906131ec565b6040516020818303038152906040529050919050565b60608060fd60ff1683101561163657826040516020016116209190613639565b60405160208183030381529060405290506116c6565b61ffff83116116695760fd83604051602001611653929190613654565b60405160208183030381529060405290506116c5565b63ffffffff831161169e5760fe83604051602001611688929190613680565b60405160208183030381529060405290506116c4565b60ff836040516020016116b29291906136ac565b60405160208183030381529060405290505b5b5b80915050919050565b60606116de8260000151610f2a565b6116e86014611600565b6116f58460200151610c0c565b60405160200161170793929190613210565b6040516020818303038152906040529050919050565b606060008260405160200161173291906135cd565b604051602081830303815290604052905061174c8161097a565b915050919050565b606060008260405160200161176991906135e8565b60405160208183030381529060405290506117838161097a565b915050919050565b6060806117988351611754565b905060005b835181101561181157816117e28583815181106117b657fe5b60200260200101516040516020016117ce919061355c565b60405160208183030381529060405261097a565b6040516020016117f39291906131ec565b6040516020818303038152906040529150808060010191505061179d565b5080915050919050565b60606000826040516020016118309190613541565b604051602081830303815290604052905061184a8161097a565b915050919050565b60006118656118608461372b565b6136fa565b9050808382526020820190508285602086028201111561188457600080fd5b60005b858110156118b4578161189a8882611df7565b845260208401935060208301925050600181019050611887565b5050509392505050565b60006118d16118cc84613757565b6136fa565b905080838252602082019050828560208602820111156118f057600080fd5b60005b8581101561192057816119068882611e0c565b8452602084019350602083019250506001810190506118f3565b5050509392505050565b600061193d61193884613783565b6136fa565b9050808382526020820190508285604086028201111561195c57600080fd5b60005b8581101561198c578161197288826122c9565b84526020840193506040830192505060018101905061195f565b5050509392505050565b60006119a96119a4846137af565b6136fa565b9050808382526020820190508260005b858110156119e957813585016119cf8882612315565b8452602084019350602083019250506001810190506119b9565b5050509392505050565b6000611a06611a01846137db565b6136fa565b9050808382526020820190508285610140860282011115611a2657600080fd5b60005b85811015611a575781611a3c8882612592565b84526020840193506101408301925050600181019050611a29565b5050509392505050565b6000611a74611a6f84613807565b6136fa565b9050808382526020820190508260005b85811015611ab45781358501611a9a88826126f2565b845260208401935060208301925050600181019050611a84565b5050509392505050565b6000611ad1611acc84613833565b6136fa565b9050808382526020820190508285610100860282011115611af157600080fd5b60005b85811015611b225781611b078882612756565b84526020840193506101008301925050600181019050611af4565b5050509392505050565b6000611b3f611b3a8461385f565b6136fa565b90508083825260208201905082856020860282011115611b5e57600080fd5b60005b85811015611b8e5781611b7488826127b8565b845260208401935060208301925050600181019050611b61565b5050509392505050565b6000611bab611ba68461388b565b6136fa565b905082815260208101848484011115611bc357600080fd5b611bce848285613a38565b509392505050565b6000611be9611be4846138bb565b6136fa565b905082815260208101848484011115611c0157600080fd5b611c0c848285613a38565b509392505050565b600081359050611c2381613baa565b92915050565b600082601f830112611c3a57600080fd5b8135611c4a848260208601611852565b91505092915050565b600082601f830112611c6457600080fd5b8135611c748482602086016118be565b91505092915050565b600082601f830112611c8e57600080fd5b8135611c9e84826020860161192a565b91505092915050565b600082601f830112611cb857600080fd5b8135611cc8848260208601611996565b91505092915050565b600082601f830112611ce257600080fd5b8135611cf28482602086016119f3565b91505092915050565b600082601f830112611d0c57600080fd5b8135611d1c848260208601611a61565b91505092915050565b600082601f830112611d3657600080fd5b8135611d46848260208601611abe565b91505092915050565b600082601f830112611d6057600080fd5b8135611d70848260208601611b2c565b91505092915050565b600081359050611d8881613bc1565b92915050565b600081359050611d9d81613bd8565b92915050565b600081359050611db281613bef565b92915050565b600082601f830112611dc957600080fd5b8135611dd9848260208601611b98565b91505092915050565b600081359050611df181613c06565b92915050565b600081359050611e0681613c1d565b92915050565b600081359050611e1b81613c34565b92915050565b600082601f830112611e3257600080fd5b8135611e42848260208601611bd6565b91505092915050565b60006102a08284031215611e5e57600080fd5b611e696102a06136fa565b90506000611e79848285016127a3565b6000830152506020611e8d848285016127a3565b6020830152506040611ea184828501611c14565b604083015250606082013567ffffffffffffffff811115611ec157600080fd5b611ecd84828501611d4f565b606083015250608082013567ffffffffffffffff811115611eed57600080fd5b611ef984828501611c29565b60808301525060a082013567ffffffffffffffff811115611f1957600080fd5b611f2584828501611c53565b60a08301525060c0611f3984828501611e0c565b60c08301525060e0611f4d84828501611e0c565b60e083015250610100611f6284828501611e0c565b61010083015250610120611f7884828501611e0c565b61012083015250610140611f8e84828501611e0c565b61014083015250610160611fa484828501611e0c565b61016083015250610180611fba84828501611e0c565b610180830152506101a082013567ffffffffffffffff811115611fdc57600080fd5b611fe884828501611c53565b6101a0830152506101c082013567ffffffffffffffff81111561200a57600080fd5b61201684828501611c53565b6101c0830152506101e082013567ffffffffffffffff81111561203857600080fd5b61204484828501611c53565b6101e08301525061020082013567ffffffffffffffff81111561206657600080fd5b61207284828501611c53565b6102008301525061022082013567ffffffffffffffff81111561209457600080fd5b6120a084828501611c53565b6102208301525061024082013567ffffffffffffffff8111156120c257600080fd5b6120ce84828501611c53565b6102408301525061026082013567ffffffffffffffff8111156120f057600080fd5b6120fc84828501611c53565b6102608301525061028082013567ffffffffffffffff81111561211e57600080fd5b61212a84828501611c29565b6102808301525092915050565b60006101e0828403121561214a57600080fd5b6121556101c06136fa565b90506000612165848285016127a3565b6000830152506020612179848285016127a3565b602083015250604061218d84828501611c14565b60408301525060606121a1848285016127e2565b60608301525060806121b5848285016127e2565b60808301525060a06121c984828501611c14565b60a08301525060c06121dd84828501611c14565b60c08301525060e06121f1848285016127e2565b60e08301525061010082013567ffffffffffffffff81111561221257600080fd5b61221e84828501611c7d565b6101008301525061012082013567ffffffffffffffff81111561224057600080fd5b61224c84828501611c7d565b6101208301525061014061226284828501611da3565b6101408301525061016082013567ffffffffffffffff81111561228457600080fd5b61229084828501611c7d565b610160830152506101806122a68482850161265a565b610180830152506101c06122bc84828501611df7565b6101a08301525092915050565b6000604082840312156122db57600080fd5b6122e560406136fa565b905060006122f584828501611c14565b6000830152506020612309848285016127f7565b60208301525092915050565b60006040828403121561232757600080fd5b61233160406136fa565b9050600082013567ffffffffffffffff81111561234d57600080fd5b61235984828501611e21565b600083015250602061236d84828501611c14565b60208301525092915050565b6000610180828403121561238c57600080fd5b6123976101606136fa565b905060006123a7848285016127e2565b60008301525060206123bb8482850161265a565b60208301525060606123cf848285016127e2565b604083015250608082013567ffffffffffffffff8111156123ef57600080fd5b6123fb84828501611e4b565b60608301525060a061240f848285016127cd565b60808301525060c061242384828501611e0c565b60a08301525060e0612437848285016127cd565b60c08301525061010061244c848285016127f7565b60e08301525061012082013567ffffffffffffffff81111561246d57600080fd5b61247984828501611cfb565b6101008301525061014082013567ffffffffffffffff81111561249b57600080fd5b6124a784828501611d25565b6101208301525061016082013567ffffffffffffffff8111156124c957600080fd5b6124d584828501611ca7565b6101408301525092915050565b600060e082840312156124f457600080fd5b6124fe60e06136fa565b9050600061250e84828501611de2565b600083015250602061252284828501611de2565b602083015250604061253684828501611c14565b604083015250606061254a848285016127e2565b606083015250608061255e848285016127cd565b60808301525060a0612572848285016127cd565b60a08301525060c0612586848285016127cd565b60c08301525092915050565b600061014082840312156125a557600080fd5b6125b06101006136fa565b905060006125c0848285016127e2565b60008301525060206125d4848285016122c9565b60208301525060606125e8848285016127e2565b60408301525060806125fc84828501611c14565b60608301525060a0612610848285016127cd565b60808301525060c06126248482850161265a565b60a08301525061010061263984828501611c14565b60c08301525061012061264e84828501611c14565b60e08301525092915050565b60006040828403121561266c57600080fd5b61267660406136fa565b905060006126868482850161280c565b600083015250602061269a84828501611c14565b60208301525092915050565b6000604082840312156126b857600080fd5b6126c260406136fa565b905060006126d2848285016127cd565b60008301525060206126e6848285016127e2565b60208301525092915050565b60006040828403121561270457600080fd5b61270e60406136fa565b9050600061271e84828501611c14565b600083015250602082013567ffffffffffffffff81111561273e57600080fd5b61274a84828501611e4b565b60208301525092915050565b6000610100828403121561276957600080fd5b61277360406136fa565b9050600061278384828501611c14565b6000830152506020612797848285016124e2565b60208301525092915050565b6000813590506127b281613c4b565b92915050565b6000813590506127c781613c62565b92915050565b6000813590506127dc81613c79565b92915050565b6000813590506127f181613c90565b92915050565b60008135905061280681613ca7565b92915050565b60008135905061281b81613cbe565b92915050565b60006020828403121561283357600080fd5b600061284184828501611c14565b91505092915050565b60006020828403121561285c57600080fd5b600082013567ffffffffffffffff81111561287657600080fd5b61288284828501611c29565b91505092915050565b60006020828403121561289d57600080fd5b600082013567ffffffffffffffff8111156128b757600080fd5b6128c384828501611c53565b91505092915050565b6000602082840312156128de57600080fd5b600082013567ffffffffffffffff8111156128f857600080fd5b61290484828501611c7d565b91505092915050565b60006020828403121561291f57600080fd5b600082013567ffffffffffffffff81111561293957600080fd5b61294584828501611ca7565b91505092915050565b60006020828403121561296057600080fd5b600082013567ffffffffffffffff81111561297a57600080fd5b61298684828501611cd1565b91505092915050565b6000602082840312156129a157600080fd5b600082013567ffffffffffffffff8111156129bb57600080fd5b6129c784828501611cfb565b91505092915050565b6000602082840312156129e257600080fd5b600082013567ffffffffffffffff8111156129fc57600080fd5b612a0884828501611d25565b91505092915050565b600060208284031215612a2357600080fd5b600082013567ffffffffffffffff811115612a3d57600080fd5b612a4984828501611d4f565b91505092915050565b600060208284031215612a6457600080fd5b6000612a7284828501611d79565b91505092915050565b600060208284031215612a8d57600080fd5b6000612a9b84828501611d8e565b91505092915050565b600060208284031215612ab657600080fd5b6000612ac484828501611da3565b91505092915050565b600060208284031215612adf57600080fd5b600082013567ffffffffffffffff811115612af957600080fd5b612b0584828501611db8565b91505092915050565b600060208284031215612b2057600080fd5b6000612b2e84828501611de2565b91505092915050565b600060208284031215612b4957600080fd5b6000612b5784828501611df7565b91505092915050565b600060208284031215612b7257600080fd5b6000612b8084828501611e0c565b91505092915050565b600060208284031215612b9b57600080fd5b600082013567ffffffffffffffff811115612bb557600080fd5b612bc184828501611e21565b91505092915050565b600080600080600060a08688031215612be257600080fd5b600086013567ffffffffffffffff811115612bfc57600080fd5b612c0888828901611e21565b9550506020612c1988828901611c14565b9450506040612c2a88828901611e0c565b9350506060612c3b88828901611c14565b925050608086013567ffffffffffffffff811115612c5857600080fd5b612c6488828901611db8565b9150509295509295909350565b600060208284031215612c8357600080fd5b600082013567ffffffffffffffff811115612c9d57600080fd5b612ca984828501611e4b565b91505092915050565b600060208284031215612cc457600080fd5b600082013567ffffffffffffffff811115612cde57600080fd5b612cea84828501612137565b91505092915050565b600060408284031215612d0557600080fd5b6000612d13848285016122c9565b91505092915050565b600060208284031215612d2e57600080fd5b600082013567ffffffffffffffff811115612d4857600080fd5b612d5484828501612315565b91505092915050565b600060208284031215612d6f57600080fd5b600082013567ffffffffffffffff811115612d8957600080fd5b612d9584828501612379565b91505092915050565b600060e08284031215612db057600080fd5b6000612dbe848285016124e2565b91505092915050565b60006101408284031215612dda57600080fd5b6000612de884828501612592565b91505092915050565b600060408284031215612e0357600080fd5b6000612e118482850161265a565b91505092915050565b600060408284031215612e2c57600080fd5b6000612e3a848285016126a6565b91505092915050565b600060208284031215612e5557600080fd5b600082013567ffffffffffffffff811115612e6f57600080fd5b612e7b848285016126f2565b91505092915050565b60006101008284031215612e9757600080fd5b6000612ea584828501612756565b91505092915050565b600060208284031215612ec057600080fd5b6000612ece848285016127a3565b91505092915050565b600060208284031215612ee957600080fd5b6000612ef7848285016127cd565b91505092915050565b600060208284031215612f1257600080fd5b6000612f20848285016127e2565b91505092915050565b600060208284031215612f3b57600080fd5b6000612f49848285016127f7565b91505092915050565b600060208284031215612f6457600080fd5b6000612f728482850161280c565b91505092915050565b612f8c612f8782613928565b613a7a565b82525050565b612fa3612f9e8261393a565b613a8c565b82525050565b612fba612fb582613946565b613a9e565b82525050565b612fd1612fcc82613972565b613aa8565b82525050565b612fe8612fe38261399e565b613ab2565b82525050565b6000612ff9826138eb565b6130038185613901565b9350613013818560208601613a47565b61301c81613b58565b840191505092915050565b6000613032826138eb565b61303c8185613912565b935061304c818560208601613a47565b80840191505092915050565b613069613064826139a8565b613abc565b82525050565b61308061307b826139b5565b613ace565b82525050565b613097613092826139c2565b613ae0565b82525050565b60006130a8826138f6565b6130b2818561391d565b93506130c2818560208601613a47565b80840191505092915050565b6130df6130da826139dd565b613b04565b82525050565b6130f66130f1826139cf565b613af2565b82525050565b61310d613108826139fd565b613b16565b82525050565b61312461311f82613a07565b613b20565b82525050565b61313b61313682613a17565b613b32565b82525050565b61315261314d82613a2b565b613b44565b82525050565b60006131648284612f7b565b60148201915081905092915050565b600061317f8284612f92565b60018201915081905092915050565b600061319a8284612fc0565b60148201915081905092915050565b60006131b58284612fd7565b60208201915081905092915050565b60006131d08285613027565b91506131dc8284612fa9565b6001820191508190509392505050565b60006131f88285613027565b91506132048284613027565b91508190509392505050565b600061321c8286613027565b91506132288285613027565b91506132348284613027565b9150819050949350505050565b600061324d8288613027565b91506132598287613027565b91506132658286613027565b91506132718285613027565b915061327d8284613027565b91508190509695505050505050565b60006132988289613027565b91506132a48288613027565b91506132b08287613027565b91506132bc8286613027565b91506132c88285613027565b91506132d48284613027565b9150819050979650505050505050565b60006132f0828a613027565b91506132fc8289613027565b91506133088288613027565b91506133148287613027565b91506133208286613027565b915061332c8285613027565b91506133388284613027565b915081905098975050505050505050565b6000613355828b613027565b9150613361828a613027565b915061336d8289613027565b91506133798288613027565b91506133858287613027565b91506133918286613027565b915061339d8285613027565b91506133a98284612fa9565b6001820191508190509998505050505050505050565b60006133cb828e613027565b91506133d7828d613027565b91506133e3828c613027565b91506133ef828b613027565b91506133fb828a613027565b91506134078289613027565b91506134138288613027565b915061341f8287613027565b915061342b8286613027565b91506134378285613027565b91506134438284613027565b91508190509c9b505050505050505050505050565b6000613464828f613027565b9150613470828e613027565b915061347c828d613027565b9150613488828c613027565b9150613494828b613027565b91506134a0828a613027565b91506134ac8289613027565b91506134b88288613027565b91506134c48287613027565b91506134d08286613027565b91506134dc8285613027565b91506134e88284613027565b91508190509d9c50505050505050505050505050565b600061350a8285613027565b9150613516828461306f565b6004820191508190509392505050565b60006135328284613058565b60028201915081905092915050565b600061354d828461306f565b60048201915081905092915050565b60006135688284613086565b60088201915081905092915050565b6000613583828461309d565b915081905092915050565b600061359a828561309d565b91506135a68284613027565b91508190509392505050565b60006135be82846130ce565b60148201915081905092915050565b60006135d982846130e5565b60028201915081905092915050565b60006135f482846130fc565b60208201915081905092915050565b600061360f8284613113565b60048201915081905092915050565b600061362a828461312a565b60088201915081905092915050565b60006136458284613141565b60018201915081905092915050565b60006136608285613141565b60018201915061367082846130e5565b6002820191508190509392505050565b600061368c8285613141565b60018201915061369c8284613113565b6004820191508190509392505050565b60006136b88285613141565b6001820191506136c8828461312a565b6008820191508190509392505050565b600060208201905081810360008301526136f28184612fee565b905092915050565b6000604051905081810181811067ffffffffffffffff8211171561372157613720613b56565b5b8060405250919050565b600067ffffffffffffffff82111561374657613745613b56565b5b602082029050602081019050919050565b600067ffffffffffffffff82111561377257613771613b56565b5b602082029050602081019050919050565b600067ffffffffffffffff82111561379e5761379d613b56565b5b602082029050602081019050919050565b600067ffffffffffffffff8211156137ca576137c9613b56565b5b602082029050602081019050919050565b600067ffffffffffffffff8211156137f6576137f5613b56565b5b602082029050602081019050919050565b600067ffffffffffffffff82111561382257613821613b56565b5b602082029050602081019050919050565b600067ffffffffffffffff82111561384e5761384d613b56565b5b602082029050602081019050919050565b600067ffffffffffffffff82111561387a57613879613b56565b5b602082029050602081019050919050565b600067ffffffffffffffff8211156138a6576138a5613b56565b5b601f19601f8301169050602081019050919050565b600067ffffffffffffffff8211156138d6576138d5613b56565b5b601f19601f8301169050602081019050919050565b600081519050919050565b600081519050919050565b600082825260208201905092915050565b600081905092915050565b600081905092915050565b6000613933826139dd565b9050919050565b60008115159050919050565b60007fff0000000000000000000000000000000000000000000000000000000000000082169050919050565b60007fffffffffffffffffffffffffffffffffffffffff00000000000000000000000082169050919050565b6000819050919050565b60008160010b9050919050565b60008160030b9050919050565b60008160070b9050919050565b600061ffff82169050919050565b600073ffffffffffffffffffffffffffffffffffffffff82169050919050565b6000819050919050565b600063ffffffff82169050919050565b600067ffffffffffffffff82169050919050565b600060ff82169050919050565b82818337600083830152505050565b60005b83811015613a65578082015181840152602081019050613a4a565b83811115613a74576000848401525b50505050565b6000613a8582613b04565b9050919050565b6000613a9782613b44565b9050919050565b6000819050919050565b6000819050919050565b6000819050919050565b6000613ac782613b83565b9050919050565b6000613ad982613b76565b9050919050565b6000613aeb82613b69565b9050919050565b6000613afd82613b83565b9050919050565b6000613b0f82613b9d565b9050919050565b6000819050919050565b6000613b2b82613b76565b9050919050565b6000613b3d82613b69565b9050919050565b6000613b4f82613b90565b9050919050565bfe5b6000601f19601f8301169050919050565b60008160c01b9050919050565b60008160e01b9050919050565b60008160f01b9050919050565b60008160f81b9050919050565b60008160601b9050919050565b613bb381613928565b8114613bbe57600080fd5b50565b613bca8161393a565b8114613bd557600080fd5b50565b613be181613972565b8114613bec57600080fd5b50565b613bf88161399e565b8114613c0357600080fd5b50565b613c0f816139a8565b8114613c1a57600080fd5b50565b613c26816139b5565b8114613c3157600080fd5b50565b613c3d816139c2565b8114613c4857600080fd5b50565b613c54816139cf565b8114613c5f57600080fd5b50565b613c6b816139dd565b8114613c7657600080fd5b50565b613c82816139fd565b8114613c8d57600080fd5b50565b613c9981613a07565b8114613ca457600080fd5b50565b613cb081613a17565b8114613cbb57600080fd5b50565b613cc781613a2b565b8114613cd257600080fd5b5056fea26469706673582212200d0bfe87dfa9e4bfa422bc19e79b599c15061d07d7b510fb27b712daed99c28264736f6c63430007060033",
			"opcodes": "PUSH1 0x80 PUSH1 0x40 MSTORE CALLVALUE DUP1 ISZERO PUSH2 0x10 JUMPI PUSH1 0x0 DUP1 REVERT JUMPDEST POP PUSH2 0x3D0B DUP1 PUSH2 0x20 PUSH1 0x0 CODECOPY PUSH1 0x0 RETURN INVALID PUSH1 0x80 PUSH1 0x40 MSTORE CALLVALUE DUP1 ISZERO PUSH2 0x10 JUMPI PUSH1 0x0 DUP1 REVERT JUMPDEST POP PUSH1 0x4 CALLDATASIZE LT PUSH2 0x21B JUMPI PUSH1 0x0 CALLDATALOAD PUSH1 0xE0 SHR DUP1 PUSH4 0x8E619E20 GT PUSH2 0x125 JUMPI DUP1 PUSH4 0xC93E58C8 GT PUSH2 0xAD JUMPI DUP1 PUSH4 0xDF61A937 GT PUSH2 0x7C JUMPI DUP1 PUSH4 0xDF61A937 EQ PUSH2 0x7F0 JUMPI DUP1 PUSH4 0xE4CBA547 EQ PUSH2 0x820 JUMPI DUP1 PUSH4 0xF20FB830 EQ PUSH2 0x850 JUMPI DUP1 PUSH4 0xF8217295 EQ PUSH2 0x880 JUMPI DUP1 PUSH4 0xFEF5906A EQ PUSH2 0x8B0 JUMPI PUSH2 0x21B JUMP JUMPDEST DUP1 PUSH4 0xC93E58C8 EQ PUSH2 0x730 JUMPI DUP1 PUSH4 0xCECB3043 EQ PUSH2 0x760 JUMPI DUP1 PUSH4 0xCFA84DE9 EQ PUSH2 0x790 JUMPI DUP1 PUSH4 0xDAD935A1 EQ PUSH2 0x7C0 JUMPI PUSH2 0x21B JUMP JUMPDEST DUP1 PUSH4 0xB3A895F6 GT PUSH2 0xF4 JUMPI DUP1 PUSH4 0xB3A895F6 EQ PUSH2 0x640 JUMPI DUP1 PUSH4 0xB9EDC795 EQ PUSH2 0x670 JUMPI DUP1 PUSH4 0xB9F7F35A EQ PUSH2 0x6A0 JUMPI DUP1 PUSH4 0xBCDDEDA4 EQ PUSH2 0x6D0 JUMPI DUP1 PUSH4 0xC7343E2C EQ PUSH2 0x700 JUMPI PUSH2 0x21B JUMP JUMPDEST DUP1 PUSH4 0x8E619E20 EQ PUSH2 0x580 JUMPI DUP1 PUSH4 0x941BB060 EQ PUSH2 0x5B0 JUMPI DUP1 PUSH4 0x9D487B47 EQ PUSH2 0x5E0 JUMPI DUP1 PUSH4 0xAF832F09 EQ PUSH2 0x610 JUMPI PUSH2 0x21B JUMP JUMPDEST DUP1 PUSH4 0x343BEE60 GT PUSH2 0x1A8 JUMPI DUP1 PUSH4 0x5F02802C GT PUSH2 0x177 JUMPI DUP1 PUSH4 0x5F02802C EQ PUSH2 0x490 JUMPI DUP1 PUSH4 0x6127B4FF EQ PUSH2 0x4C0 JUMPI DUP1 PUSH4 0x68B4AE81 EQ PUSH2 0x4F0 JUMPI DUP1 PUSH4 0x7A635645 EQ PUSH2 0x520 JUMPI DUP1 PUSH4 0x8BBFC13E EQ PUSH2 0x550 JUMPI PUSH2 0x21B JUMP JUMPDEST DUP1 PUSH4 0x343BEE60 EQ PUSH2 0x3D0 JUMPI DUP1 PUSH4 0x44C789D1 EQ PUSH2 0x400 JUMPI DUP1 PUSH4 0x46256007 EQ PUSH2 0x430 JUMPI DUP1 PUSH4 0x463276C3 EQ PUSH2 0x460 JUMPI PUSH2 0x21B JUMP JUMPDEST DUP1 PUSH4 0x153F504F GT PUSH2 0x1EF JUMPI DUP1 PUSH4 0x153F504F EQ PUSH2 0x2E0 JUMPI DUP1 PUSH4 0x19A7C17B EQ PUSH2 0x310 JUMPI DUP1 PUSH4 0x20105C8A EQ PUSH2 0x340 JUMPI DUP1 PUSH4 0x241D23B2 EQ PUSH2 0x370 JUMPI DUP1 PUSH4 0x29688DF3 EQ PUSH2 0x3A0 JUMPI PUSH2 0x21B JUMP JUMPDEST DUP1 PUSH3 0x9C8152 EQ PUSH2 0x220 JUMPI DUP1 PUSH4 0x49E3490 EQ PUSH2 0x250 JUMPI DUP1 PUSH4 0x1222D81A EQ PUSH2 0x280 JUMPI DUP1 PUSH4 0x122E5AE7 EQ PUSH2 0x2B0 JUMPI JUMPDEST PUSH1 0x0 DUP1 REVERT JUMPDEST PUSH2 0x23A PUSH1 0x4 DUP1 CALLDATASIZE SUB DUP2 ADD SWAP1 PUSH2 0x235 SWAP2 SWAP1 PUSH2 0x2A52 JUMP JUMPDEST PUSH2 0x8E0 JUMP JUMPDEST PUSH1 0x40 MLOAD PUSH2 0x247 SWAP2 SWAP1 PUSH2 0x36D8 JUMP JUMPDEST PUSH1 0x40 MLOAD DUP1 SWAP2 SUB SWAP1 RETURN JUMPDEST PUSH2 0x26A PUSH1 0x4 DUP1 CALLDATASIZE SUB DUP2 ADD SWAP1 PUSH2 0x265 SWAP2 SWAP1 PUSH2 0x290D JUMP JUMPDEST PUSH2 0x909 JUMP JUMPDEST PUSH1 0x40 MLOAD PUSH2 0x277 SWAP2 SWAP1 PUSH2 0x36D8 JUMP JUMPDEST PUSH1 0x40 MLOAD DUP1 SWAP2 SUB SWAP1 RETURN JUMPDEST PUSH2 0x29A PUSH1 0x4 DUP1 CALLDATASIZE SUB DUP2 ADD SWAP1 PUSH2 0x295 SWAP2 SWAP1 PUSH2 0x2ACD JUMP JUMPDEST PUSH2 0x97A JUMP JUMPDEST PUSH1 0x40 MLOAD PUSH2 0x2A7 SWAP2 SWAP1 PUSH2 0x36D8 JUMP JUMPDEST PUSH1 0x40 MLOAD DUP1 SWAP2 SUB SWAP1 RETURN JUMPDEST PUSH2 0x2CA PUSH1 0x4 DUP1 CALLDATASIZE SUB DUP2 ADD SWAP1 PUSH2 0x2C5 SWAP2 SWAP1 PUSH2 0x2F29 JUMP JUMPDEST PUSH2 0xA4B JUMP JUMPDEST PUSH1 0x40 MLOAD PUSH2 0x2D7 SWAP2 SWAP1 PUSH2 0x36D8 JUMP JUMPDEST PUSH1 0x40 MLOAD DUP1 SWAP2 SUB SWAP1 RETURN JUMPDEST PUSH2 0x2FA PUSH1 0x4 DUP1 CALLDATASIZE SUB DUP2 ADD SWAP1 PUSH2 0x2F5 SWAP2 SWAP1 PUSH2 0x294E JUMP JUMPDEST PUSH2 0xA82 JUMP JUMPDEST PUSH1 0x40 MLOAD PUSH2 0x307 SWAP2 SWAP1 PUSH2 0x36D8 JUMP JUMPDEST PUSH1 0x40 MLOAD DUP1 SWAP2 SUB SWAP1 RETURN JUMPDEST PUSH2 0x32A PUSH1 0x4 DUP1 CALLDATASIZE SUB DUP2 ADD SWAP1 PUSH2 0x325 SWAP2 SWAP1 PUSH2 0x2A11 JUMP JUMPDEST PUSH2 0xAF3 JUMP JUMPDEST PUSH1 0x40 MLOAD PUSH2 0x337 SWAP2 SWAP1 PUSH2 0x36D8 JUMP JUMPDEST PUSH1 0x40 MLOAD DUP1 SWAP2 SUB SWAP1 RETURN JUMPDEST PUSH2 0x35A PUSH1 0x4 DUP1 CALLDATASIZE SUB DUP2 ADD SWAP1 PUSH2 0x355 SWAP2 SWAP1 PUSH2 0x2D9E JUMP JUMPDEST PUSH2 0xB83 JUMP JUMPDEST PUSH1 0x40 MLOAD PUSH2 0x367 SWAP2 SWAP1 PUSH2 0x36D8 JUMP JUMPDEST PUSH1 0x40 MLOAD DUP1 SWAP2 SUB SWAP1 RETURN JUMPDEST PUSH2 0x38A PUSH1 0x4 DUP1 CALLDATASIZE SUB DUP2 ADD SWAP1 PUSH2 0x385 SWAP2 SWAP1 PUSH2 0x2821 JUMP JUMPDEST PUSH2 0xC0C JUMP JUMPDEST PUSH1 0x40 MLOAD PUSH2 0x397 SWAP2 SWAP1 PUSH2 0x36D8 JUMP JUMPDEST PUSH1 0x40 MLOAD DUP1 SWAP2 SUB SWAP1 RETURN JUMPDEST PUSH2 0x3BA PUSH1 0x4 DUP1 CALLDATASIZE SUB DUP2 ADD SWAP1 PUSH2 0x3B5 SWAP2 SWAP1 PUSH2 0x2E84 JUMP JUMPDEST PUSH2 0xC3B JUMP JUMPDEST PUSH1 0x40 MLOAD PUSH2 0x3C7 SWAP2 SWAP1 PUSH2 0x36D8 JUMP JUMPDEST PUSH1 0x40 MLOAD DUP1 SWAP2 SUB SWAP1 RETURN JUMPDEST PUSH2 0x3EA PUSH1 0x4 DUP1 CALLDATASIZE SUB DUP2 ADD SWAP1 PUSH2 0x3E5 SWAP2 SWAP1 PUSH2 0x2CB2 JUMP JUMPDEST PUSH2 0xC7E JUMP JUMPDEST PUSH1 0x40 MLOAD PUSH2 0x3F7 SWAP2 SWAP1 PUSH2 0x36D8 JUMP JUMPDEST PUSH1 0x40 MLOAD DUP1 SWAP2 SUB SWAP1 RETURN JUMPDEST PUSH2 0x41A PUSH1 0x4 DUP1 CALLDATASIZE SUB DUP2 ADD SWAP1 PUSH2 0x415 SWAP2 SWAP1 PUSH2 0x2D1C JUMP JUMPDEST PUSH2 0xDCB JUMP JUMPDEST PUSH1 0x40 MLOAD PUSH2 0x427 SWAP2 SWAP1 PUSH2 0x36D8 JUMP JUMPDEST PUSH1 0x40 MLOAD DUP1 SWAP2 SUB SWAP1 RETURN JUMPDEST PUSH2 0x44A PUSH1 0x4 DUP1 CALLDATASIZE SUB DUP2 ADD SWAP1 PUSH2 0x445 SWAP2 SWAP1 PUSH2 0x2B0E JUMP JUMPDEST PUSH2 0xE06 JUMP JUMPDEST PUSH1 0x40 MLOAD PUSH2 0x457 SWAP2 SWAP1 PUSH2 0x36D8 JUMP JUMPDEST PUSH1 0x40 MLOAD DUP1 SWAP2 SUB SWAP1 RETURN JUMPDEST PUSH2 0x47A PUSH1 0x4 DUP1 CALLDATASIZE SUB DUP2 ADD SWAP1 PUSH2 0x475 SWAP2 SWAP1 PUSH2 0x2A7B JUMP JUMPDEST PUSH2 0xE3D JUMP JUMPDEST PUSH1 0x40 MLOAD PUSH2 0x487 SWAP2 SWAP1 PUSH2 0x36D8 JUMP JUMPDEST PUSH1 0x40 MLOAD DUP1 SWAP2 SUB SWAP1 RETURN JUMPDEST PUSH2 0x4AA PUSH1 0x4 DUP1 CALLDATASIZE SUB DUP2 ADD SWAP1 PUSH2 0x4A5 SWAP2 SWAP1 PUSH2 0x2D5D JUMP JUMPDEST PUSH2 0xE66 JUMP JUMPDEST PUSH1 0x40 MLOAD PUSH2 0x4B7 SWAP2 SWAP1 PUSH2 0x36D8 JUMP JUMPDEST PUSH1 0x40 MLOAD DUP1 SWAP2 SUB SWAP1 RETURN JUMPDEST PUSH2 0x4DA PUSH1 0x4 DUP1 CALLDATASIZE SUB DUP2 ADD SWAP1 PUSH2 0x4D5 SWAP2 SWAP1 PUSH2 0x2F52 JUMP JUMPDEST PUSH2 0xF2A JUMP JUMPDEST PUSH1 0x40 MLOAD PUSH2 0x4E7 SWAP2 SWAP1 PUSH2 0x36D8 JUMP JUMPDEST PUSH1 0x40 MLOAD DUP1 SWAP2 SUB SWAP1 RETURN JUMPDEST PUSH2 0x50A PUSH1 0x4 DUP1 CALLDATASIZE SUB DUP2 ADD SWAP1 PUSH2 0x505 SWAP2 SWAP1 PUSH2 0x2B89 JUMP JUMPDEST PUSH2 0xF61 JUMP JUMPDEST PUSH1 0x40 MLOAD PUSH2 0x517 SWAP2 SWAP1 PUSH2 0x36D8 JUMP JUMPDEST PUSH1 0x40 MLOAD DUP1 SWAP2 SUB SWAP1 RETURN JUMPDEST PUSH2 0x53A PUSH1 0x4 DUP1 CALLDATASIZE SUB DUP2 ADD SWAP1 PUSH2 0x535 SWAP2 SWAP1 PUSH2 0x298F JUMP JUMPDEST PUSH2 0xF8A JUMP JUMPDEST PUSH1 0x40 MLOAD PUSH2 0x547 SWAP2 SWAP1 PUSH2 0x36D8 JUMP JUMPDEST PUSH1 0x40 MLOAD DUP1 SWAP2 SUB SWAP1 RETURN JUMPDEST PUSH2 0x56A PUSH1 0x4 DUP1 CALLDATASIZE SUB DUP2 ADD SWAP1 PUSH2 0x565 SWAP2 SWAP1 PUSH2 0x2DC7 JUMP JUMPDEST PUSH2 0xFFB JUMP JUMPDEST PUSH1 0x40 MLOAD PUSH2 0x577 SWAP2 SWAP1 PUSH2 0x36D8 JUMP JUMPDEST PUSH1 0x40 MLOAD DUP1 SWAP2 SUB SWAP1 RETURN JUMPDEST PUSH2 0x59A PUSH1 0x4 DUP1 CALLDATASIZE SUB DUP2 ADD SWAP1 PUSH2 0x595 SWAP2 SWAP1 PUSH2 0x29D0 JUMP JUMPDEST PUSH2 0x10FF JUMP JUMPDEST PUSH1 0x40 MLOAD PUSH2 0x5A7 SWAP2 SWAP1 PUSH2 0x36D8 JUMP JUMPDEST PUSH1 0x40 MLOAD DUP1 SWAP2 SUB SWAP1 RETURN JUMPDEST PUSH2 0x5CA PUSH1 0x4 DUP1 CALLDATASIZE SUB DUP2 ADD SWAP1 PUSH2 0x5C5 SWAP2 SWAP1 PUSH2 0x28CC JUMP JUMPDEST PUSH2 0x1170 JUMP JUMPDEST PUSH1 0x40 MLOAD PUSH2 0x5D7 SWAP2 SWAP1 PUSH2 0x36D8 JUMP JUMPDEST PUSH1 0x40 MLOAD DUP1 SWAP2 SUB SWAP1 RETURN JUMPDEST PUSH2 0x5FA PUSH1 0x4 DUP1 CALLDATASIZE SUB DUP2 ADD SWAP1 PUSH2 0x5F5 SWAP2 SWAP1 PUSH2 0x284A JUMP JUMPDEST PUSH2 0x11E1 JUMP JUMPDEST PUSH1 0x40 MLOAD PUSH2 0x607 SWAP2 SWAP1 PUSH2 0x36D8 JUMP JUMPDEST PUSH1 0x40 MLOAD DUP1 SWAP2 SUB SWAP1 RETURN JUMPDEST PUSH2 0x62A PUSH1 0x4 DUP1 CALLDATASIZE SUB DUP2 ADD SWAP1 PUSH2 0x625 SWAP2 SWAP1 PUSH2 0x2B60 JUMP JUMPDEST PUSH2 0x124A JUMP JUMPDEST PUSH1 0x40 MLOAD PUSH2 0x637 SWAP2 SWAP1 PUSH2 0x36D8 JUMP JUMPDEST PUSH1 0x40 MLOAD DUP1 SWAP2 SUB SWAP1 RETURN JUMPDEST PUSH2 0x65A PUSH1 0x4 DUP1 CALLDATASIZE SUB DUP2 ADD SWAP1 PUSH2 0x655 SWAP2 SWAP1 PUSH2 0x2ED7 JUMP JUMPDEST PUSH2 0x1281 JUMP JUMPDEST PUSH1 0x40 MLOAD PUSH2 0x667 SWAP2 SWAP1 PUSH2 0x36D8 JUMP JUMPDEST PUSH1 0x40 MLOAD DUP1 SWAP2 SUB SWAP1 RETURN JUMPDEST PUSH2 0x68A PUSH1 0x4 DUP1 CALLDATASIZE SUB DUP2 ADD SWAP1 PUSH2 0x685 SWAP2 SWAP1 PUSH2 0x2E1A JUMP JUMPDEST PUSH2 0x1309 JUMP JUMPDEST PUSH1 0x40 MLOAD PUSH2 0x697 SWAP2 SWAP1 PUSH2 0x36D8 JUMP JUMPDEST PUSH1 0x40 MLOAD DUP1 SWAP2 SUB SWAP1 RETURN JUMPDEST PUSH2 0x6BA PUSH1 0x4 DUP1 CALLDATASIZE SUB DUP2 ADD SWAP1 PUSH2 0x6B5 SWAP2 SWAP1 PUSH2 0x2AA4 JUMP JUMPDEST PUSH2 0x134C JUMP JUMPDEST PUSH1 0x40 MLOAD PUSH2 0x6C7 SWAP2 SWAP1 PUSH2 0x36D8 JUMP JUMPDEST PUSH1 0x40 MLOAD DUP1 SWAP2 SUB SWAP1 RETURN JUMPDEST PUSH2 0x6EA PUSH1 0x4 DUP1 CALLDATASIZE SUB DUP2 ADD SWAP1 PUSH2 0x6E5 SWAP2 SWAP1 PUSH2 0x2E43 JUMP JUMPDEST PUSH2 0x1375 JUMP JUMPDEST PUSH1 0x40 MLOAD PUSH2 0x6F7 SWAP2 SWAP1 PUSH2 0x36D8 JUMP JUMPDEST PUSH1 0x40 MLOAD DUP1 SWAP2 SUB SWAP1 RETURN JUMPDEST PUSH2 0x71A PUSH1 0x4 DUP1 CALLDATASIZE SUB DUP2 ADD SWAP1 PUSH2 0x715 SWAP2 SWAP1 PUSH2 0x2C71 JUMP JUMPDEST PUSH2 0x13B8 JUMP JUMPDEST PUSH1 0x40 MLOAD PUSH2 0x727 SWAP2 SWAP1 PUSH2 0x36D8 JUMP JUMPDEST PUSH1 0x40 MLOAD DUP1 SWAP2 SUB SWAP1 RETURN JUMPDEST PUSH2 0x74A PUSH1 0x4 DUP1 CALLDATASIZE SUB DUP2 ADD SWAP1 PUSH2 0x745 SWAP2 SWAP1 PUSH2 0x2BCA JUMP JUMPDEST PUSH2 0x1531 JUMP JUMPDEST PUSH1 0x40 MLOAD PUSH2 0x757 SWAP2 SWAP1 PUSH2 0x36D8 JUMP JUMPDEST PUSH1 0x40 MLOAD DUP1 SWAP2 SUB SWAP1 RETURN JUMPDEST PUSH2 0x77A PUSH1 0x4 DUP1 CALLDATASIZE SUB DUP2 ADD SWAP1 PUSH2 0x775 SWAP2 SWAP1 PUSH2 0x2F00 JUMP JUMPDEST PUSH2 0x1586 JUMP JUMPDEST PUSH1 0x40 MLOAD PUSH2 0x787 SWAP2 SWAP1 PUSH2 0x36D8 JUMP JUMPDEST PUSH1 0x40 MLOAD DUP1 SWAP2 SUB SWAP1 RETURN JUMPDEST PUSH2 0x7AA PUSH1 0x4 DUP1 CALLDATASIZE SUB DUP2 ADD SWAP1 PUSH2 0x7A5 SWAP2 SWAP1 PUSH2 0x2CF3 JUMP JUMPDEST PUSH2 0x15BD JUMP JUMPDEST PUSH1 0x40 MLOAD PUSH2 0x7B7 SWAP2 SWAP1 PUSH2 0x36D8 JUMP JUMPDEST PUSH1 0x40 MLOAD DUP1 SWAP2 SUB SWAP1 RETURN JUMPDEST PUSH2 0x7DA PUSH1 0x4 DUP1 CALLDATASIZE SUB DUP2 ADD SWAP1 PUSH2 0x7D5 SWAP2 SWAP1 PUSH2 0x2ED7 JUMP JUMPDEST PUSH2 0x1600 JUMP JUMPDEST PUSH1 0x40 MLOAD PUSH2 0x7E7 SWAP2 SWAP1 PUSH2 0x36D8 JUMP JUMPDEST PUSH1 0x40 MLOAD DUP1 SWAP2 SUB SWAP1 RETURN JUMPDEST PUSH2 0x80A PUSH1 0x4 DUP1 CALLDATASIZE SUB DUP2 ADD SWAP1 PUSH2 0x805 SWAP2 SWAP1 PUSH2 0x2DF1 JUMP JUMPDEST PUSH2 0x16CF JUMP JUMPDEST PUSH1 0x40 MLOAD PUSH2 0x817 SWAP2 SWAP1 PUSH2 0x36D8 JUMP JUMPDEST PUSH1 0x40 MLOAD DUP1 SWAP2 SUB SWAP1 RETURN JUMPDEST PUSH2 0x83A PUSH1 0x4 DUP1 CALLDATASIZE SUB DUP2 ADD SWAP1 PUSH2 0x835 SWAP2 SWAP1 PUSH2 0x2EAE JUMP JUMPDEST PUSH2 0x171D JUMP JUMPDEST PUSH1 0x40 MLOAD PUSH2 0x847 SWAP2 SWAP1 PUSH2 0x36D8 JUMP JUMPDEST PUSH1 0x40 MLOAD DUP1 SWAP2 SUB SWAP1 RETURN JUMPDEST PUSH2 0x86A PUSH1 0x4 DUP1 CALLDATASIZE SUB DUP2 ADD SWAP1 PUSH2 0x865 SWAP2 SWAP1 PUSH2 0x2ED7 JUMP JUMPDEST PUSH2 0x1754 JUMP JUMPDEST PUSH1 0x40 MLOAD PUSH2 0x877 SWAP2 SWAP1 PUSH2 0x36D8 JUMP JUMPDEST PUSH1 0x40 MLOAD DUP1 SWAP2 SUB SWAP1 RETURN JUMPDEST PUSH2 0x89A PUSH1 0x4 DUP1 CALLDATASIZE SUB DUP2 ADD SWAP1 PUSH2 0x895 SWAP2 SWAP1 PUSH2 0x288B JUMP JUMPDEST PUSH2 0x178B JUMP JUMPDEST PUSH1 0x40 MLOAD PUSH2 0x8A7 SWAP2 SWAP1 PUSH2 0x36D8 JUMP JUMPDEST PUSH1 0x40 MLOAD DUP1 SWAP2 SUB SWAP1 RETURN JUMPDEST PUSH2 0x8CA PUSH1 0x4 DUP1 CALLDATASIZE SUB DUP2 ADD SWAP1 PUSH2 0x8C5 SWAP2 SWAP1 PUSH2 0x2B37 JUMP JUMPDEST PUSH2 0x181B JUMP JUMPDEST PUSH1 0x40 MLOAD PUSH2 0x8D7 SWAP2 SWAP1 PUSH2 0x36D8 JUMP JUMPDEST PUSH1 0x40 MLOAD DUP1 SWAP2 SUB SWAP1 RETURN JUMPDEST PUSH1 0x60 DUP2 PUSH1 0x40 MLOAD PUSH1 0x20 ADD PUSH2 0x8F3 SWAP2 SWAP1 PUSH2 0x3173 JUMP JUMPDEST PUSH1 0x40 MLOAD PUSH1 0x20 DUP2 DUP4 SUB SUB DUP2 MSTORE SWAP1 PUSH1 0x40 MSTORE SWAP1 POP SWAP2 SWAP1 POP JUMP JUMPDEST PUSH1 0x60 DUP1 PUSH2 0x916 DUP4 MLOAD PUSH2 0x1754 JUMP JUMPDEST SWAP1 POP PUSH1 0x0 JUMPDEST DUP4 MLOAD DUP2 LT ISZERO PUSH2 0x970 JUMPI DUP2 PUSH2 0x941 DUP6 DUP4 DUP2 MLOAD DUP2 LT PUSH2 0x934 JUMPI INVALID JUMPDEST PUSH1 0x20 MUL PUSH1 0x20 ADD ADD MLOAD PUSH2 0xDCB JUMP JUMPDEST PUSH1 0x40 MLOAD PUSH1 0x20 ADD PUSH2 0x952 SWAP3 SWAP2 SWAP1 PUSH2 0x31EC JUMP JUMPDEST PUSH1 0x40 MLOAD PUSH1 0x20 DUP2 DUP4 SUB SUB DUP2 MSTORE SWAP1 PUSH1 0x40 MSTORE SWAP2 POP DUP1 DUP1 PUSH1 0x1 ADD SWAP2 POP POP PUSH2 0x91B JUMP JUMPDEST POP DUP1 SWAP2 POP POP SWAP2 SWAP1 POP JUMP JUMPDEST PUSH1 0x60 PUSH1 0x0 DUP3 MLOAD SWAP1 POP PUSH1 0x0 DUP2 PUSH8 0xFFFFFFFFFFFFFFFF DUP2 GT DUP1 ISZERO PUSH2 0x99B JUMPI PUSH1 0x0 DUP1 REVERT JUMPDEST POP PUSH1 0x40 MLOAD SWAP1 DUP1 DUP3 MSTORE DUP1 PUSH1 0x1F ADD PUSH1 0x1F NOT AND PUSH1 0x20 ADD DUP3 ADD PUSH1 0x40 MSTORE DUP1 ISZERO PUSH2 0x9CE JUMPI DUP2 PUSH1 0x20 ADD PUSH1 0x1 DUP3 MUL DUP1 CALLDATASIZE DUP4 CALLDATACOPY DUP1 DUP3 ADD SWAP2 POP POP SWAP1 POP JUMPDEST POP SWAP1 POP PUSH1 0x0 JUMPDEST DUP3 DUP2 LT ISZERO PUSH2 0xA40 JUMPI DUP5 PUSH1 0x1 DUP3 DUP6 SUB SUB DUP2 MLOAD DUP2 LT PUSH2 0x9ED JUMPI INVALID JUMPDEST PUSH1 0x20 ADD ADD MLOAD PUSH1 0xF8 SHR PUSH1 0xF8 SHL DUP3 DUP3 DUP2 MLOAD DUP2 LT PUSH2 0xA04 JUMPI INVALID JUMPDEST PUSH1 0x20 ADD ADD SWAP1 PUSH31 0xFFFFFFFFFFFFFFFFFFFFFFFFFFFFFFFFFFFFFFFFFFFFFFFFFFFFFFFFFFFFFF NOT AND SWAP1 DUP2 PUSH1 0x0 BYTE SWAP1 MSTORE8 POP DUP1 DUP1 PUSH1 0x1 ADD SWAP2 POP POP PUSH2 0x9D4 JUMP JUMPDEST DUP2 SWAP4 POP POP POP POP SWAP2 SWAP1 POP JUMP JUMPDEST PUSH1 0x60 PUSH1 0x0 DUP3 PUSH1 0x40 MLOAD PUSH1 0x20 ADD PUSH2 0xA60 SWAP2 SWAP1 PUSH2 0x361E JUMP JUMPDEST PUSH1 0x40 MLOAD PUSH1 0x20 DUP2 DUP4 SUB SUB DUP2 MSTORE SWAP1 PUSH1 0x40 MSTORE SWAP1 POP PUSH2 0xA7A DUP2 PUSH2 0x97A JUMP JUMPDEST SWAP2 POP POP SWAP2 SWAP1 POP JUMP JUMPDEST PUSH1 0x60 DUP1 PUSH2 0xA8F DUP4 MLOAD PUSH2 0x1600 JUMP JUMPDEST SWAP1 POP PUSH1 0x0 JUMPDEST DUP4 MLOAD DUP2 LT ISZERO PUSH2 0xAE9 JUMPI DUP2 PUSH2 0xABA DUP6 DUP4 DUP2 MLOAD DUP2 LT PUSH2 0xAAD JUMPI INVALID JUMPDEST PUSH1 0x20 MUL PUSH1 0x20 ADD ADD MLOAD PUSH2 0xFFB JUMP JUMPDEST PUSH1 0x40 MLOAD PUSH1 0x20 ADD PUSH2 0xACB SWAP3 SWAP2 SWAP1 PUSH2 0x31EC JUMP JUMPDEST PUSH1 0x40 MLOAD PUSH1 0x20 DUP2 DUP4 SUB SUB DUP2 MSTORE SWAP1 PUSH1 0x40 MSTORE SWAP2 POP DUP1 DUP1 PUSH1 0x1 ADD SWAP2 POP POP PUSH2 0xA94 JUMP JUMPDEST POP DUP1 SWAP2 POP POP SWAP2 SWAP1 POP JUMP JUMPDEST PUSH1 0x60 DUP1 PUSH2 0xB00 DUP4 MLOAD PUSH2 0x1754 JUMP JUMPDEST SWAP1 POP PUSH1 0x0 JUMPDEST DUP4 MLOAD DUP2 LT ISZERO PUSH2 0xB79 JUMPI DUP2 PUSH2 0xB4A DUP6 DUP4 DUP2 MLOAD DUP2 LT PUSH2 0xB1E JUMPI INVALID JUMPDEST PUSH1 0x20 MUL PUSH1 0x20 ADD ADD MLOAD PUSH1 0x40 MLOAD PUSH1 0x20 ADD PUSH2 0xB36 SWAP2 SWAP1 PUSH2 0x35B2 JUMP JUMPDEST PUSH1 0x40 MLOAD PUSH1 0x20 DUP2 DUP4 SUB SUB DUP2 MSTORE SWAP1 PUSH1 0x40 MSTORE PUSH2 0x97A JUMP JUMPDEST PUSH1 0x40 MLOAD PUSH1 0x20 ADD PUSH2 0xB5B SWAP3 SWAP2 SWAP1 PUSH2 0x31EC JUMP JUMPDEST PUSH1 0x40 MLOAD PUSH1 0x20 DUP2 DUP4 SUB SUB DUP2 MSTORE SWAP1 PUSH1 0x40 MSTORE SWAP2 POP DUP1 DUP1 PUSH1 0x1 ADD SWAP2 POP POP PUSH2 0xB05 JUMP JUMPDEST POP DUP1 SWAP2 POP POP SWAP2 SWAP1 POP JUMP JUMPDEST PUSH1 0x60 PUSH2 0xB92 DUP3 PUSH1 0x0 ADD MLOAD PUSH2 0xE06 JUMP JUMPDEST PUSH2 0xB9F DUP4 PUSH1 0x20 ADD MLOAD PUSH2 0xE06 JUMP JUMPDEST PUSH2 0xBAC DUP5 PUSH1 0x40 ADD MLOAD PUSH2 0xC0C JUMP JUMPDEST PUSH2 0xBB9 DUP6 PUSH1 0x60 ADD MLOAD PUSH2 0x1586 JUMP JUMPDEST PUSH2 0xBC6 DUP7 PUSH1 0x80 ADD MLOAD PUSH2 0x1754 JUMP JUMPDEST PUSH2 0xBD3 DUP8 PUSH1 0xA0 ADD MLOAD PUSH2 0x1754 JUMP JUMPDEST PUSH2 0xBE0 DUP9 PUSH1 0xC0 ADD MLOAD PUSH2 0x1754 JUMP JUMPDEST PUSH1 0x40 MLOAD PUSH1 0x20 ADD PUSH2 0xBF6 SWAP8 SWAP7 SWAP6 SWAP5 SWAP4 SWAP3 SWAP2 SWAP1 PUSH2 0x32E4 JUMP JUMPDEST PUSH1 0x40 MLOAD PUSH1 0x20 DUP2 DUP4 SUB SUB DUP2 MSTORE SWAP1 PUSH1 0x40 MSTORE SWAP1 POP SWAP2 SWAP1 POP JUMP JUMPDEST PUSH1 0x60 PUSH1 0x0 DUP3 PUSH1 0x40 MLOAD PUSH1 0x20 ADD PUSH2 0xC21 SWAP2 SWAP1 PUSH2 0x3158 JUMP JUMPDEST PUSH1 0x40 MLOAD PUSH1 0x20 DUP2 DUP4 SUB SUB DUP2 MSTORE SWAP1 PUSH1 0x40 MSTORE SWAP1 POP DUP1 SWAP2 POP POP SWAP2 SWAP1 POP JUMP JUMPDEST PUSH1 0x60 PUSH2 0xC4A DUP3 PUSH1 0x0 ADD MLOAD PUSH2 0xC0C JUMP JUMPDEST PUSH2 0xC57 DUP4 PUSH1 0x20 ADD MLOAD PUSH2 0xB83 JUMP JUMPDEST PUSH1 0x40 MLOAD PUSH1 0x20 ADD PUSH2 0xC68 SWAP3 SWAP2 SWAP1 PUSH2 0x31EC JUMP JUMPDEST PUSH1 0x40 MLOAD PUSH1 0x20 DUP2 DUP4 SUB SUB DUP2 MSTORE SWAP1 PUSH1 0x40 MSTORE SWAP1 POP SWAP2 SWAP1 POP JUMP JUMPDEST PUSH1 0x60 PUSH1 0x0 PUSH2 0xC8F DUP4 PUSH1 0x0 ADD MLOAD PUSH2 0x171D JUMP JUMPDEST PUSH2 0xC9C DUP5 PUSH1 0x20 ADD MLOAD PUSH2 0x171D JUMP JUMPDEST PUSH2 0xCA9 DUP6 PUSH1 0x40 ADD MLOAD PUSH2 0xC0C JUMP JUMPDEST PUSH2 0xCBC DUP7 PUSH1 0x60 ADD MLOAD PUSH4 0xFFFFFFFF AND PUSH2 0x1281 JUMP JUMPDEST PUSH2 0xCCF DUP8 PUSH1 0x80 ADD MLOAD PUSH4 0xFFFFFFFF AND PUSH2 0x1281 JUMP JUMPDEST PUSH2 0xCDC DUP9 PUSH1 0xA0 ADD MLOAD PUSH2 0xC0C JUMP JUMPDEST PUSH2 0xCE9 DUP10 PUSH1 0xC0 ADD MLOAD PUSH2 0xC0C JUMP JUMPDEST PUSH1 0x40 MLOAD PUSH1 0x20 ADD PUSH2 0xCFF SWAP8 SWAP7 SWAP6 SWAP5 SWAP4 SWAP3 SWAP2 SWAP1 PUSH2 0x32E4 JUMP JUMPDEST PUSH1 0x40 MLOAD PUSH1 0x20 DUP2 DUP4 SUB SUB DUP2 MSTORE SWAP1 PUSH1 0x40 MSTORE SWAP1 POP PUSH1 0x0 PUSH2 0xD1F DUP5 PUSH1 0xE0 ADD MLOAD PUSH2 0x1586 JUMP JUMPDEST PUSH2 0xD2D DUP6 PUSH2 0x100 ADD MLOAD PUSH2 0x1170 JUMP JUMPDEST PUSH2 0xD3B DUP7 PUSH2 0x120 ADD MLOAD PUSH2 0x1170 JUMP JUMPDEST PUSH2 0xD49 DUP8 PUSH2 0x140 ADD MLOAD PUSH2 0x134C JUMP JUMPDEST PUSH2 0xD57 DUP9 PUSH2 0x160 ADD MLOAD PUSH2 0x1170 JUMP JUMPDEST PUSH2 0xD65 DUP10 PUSH2 0x180 ADD MLOAD PUSH2 0x16CF JUMP JUMPDEST PUSH2 0xD73 DUP11 PUSH2 0x1A0 ADD MLOAD PUSH2 0x181B JUMP JUMPDEST PUSH1 0x0 PUSH1 0xF8 SHL PUSH1 0x40 MLOAD PUSH1 0x20 ADD PUSH2 0xD8F SWAP9 SWAP8 SWAP7 SWAP6 SWAP5 SWAP4 SWAP3 SWAP2 SWAP1 PUSH2 0x3349 JUMP JUMPDEST PUSH1 0x40 MLOAD PUSH1 0x20 DUP2 DUP4 SUB SUB DUP2 MSTORE SWAP1 PUSH1 0x40 MSTORE SWAP1 POP DUP2 DUP2 PUSH1 0x40 MLOAD PUSH1 0x20 ADD PUSH2 0xDB3 SWAP3 SWAP2 SWAP1 PUSH2 0x31EC JUMP JUMPDEST PUSH1 0x40 MLOAD PUSH1 0x20 DUP2 DUP4 SUB SUB DUP2 MSTORE SWAP1 PUSH1 0x40 MSTORE SWAP3 POP POP POP SWAP2 SWAP1 POP JUMP JUMPDEST PUSH1 0x60 DUP2 PUSH1 0x0 ADD MLOAD PUSH2 0xDDF DUP4 PUSH1 0x20 ADD MLOAD PUSH2 0xC0C JUMP JUMPDEST PUSH1 0x40 MLOAD PUSH1 0x20 ADD PUSH2 0xDF0 SWAP3 SWAP2 SWAP1 PUSH2 0x358E JUMP JUMPDEST PUSH1 0x40 MLOAD PUSH1 0x20 DUP2 DUP4 SUB SUB DUP2 MSTORE SWAP1 PUSH1 0x40 MSTORE SWAP1 POP SWAP2 SWAP1 POP JUMP JUMPDEST PUSH1 0x60 PUSH1 0x0 DUP3 PUSH1 0x40 MLOAD PUSH1 0x20 ADD PUSH2 0xE1B SWAP2 SWAP1 PUSH2 0x3526 JUMP JUMPDEST PUSH1 0x40 MLOAD PUSH1 0x20 DUP2 DUP4 SUB SUB DUP2 MSTORE SWAP1 PUSH1 0x40 MSTORE SWAP1 POP PUSH2 0xE35 DUP2 PUSH2 0x97A JUMP JUMPDEST SWAP2 POP POP SWAP2 SWAP1 POP JUMP JUMPDEST PUSH1 0x60 DUP2 PUSH1 0x40 MLOAD PUSH1 0x20 ADD PUSH2 0xE50 SWAP2 SWAP1 PUSH2 0x318E JUMP JUMPDEST PUSH1 0x40 MLOAD PUSH1 0x20 DUP2 DUP4 SUB SUB DUP2 MSTORE SWAP1 PUSH1 0x40 MSTORE SWAP1 POP SWAP2 SWAP1 POP JUMP JUMPDEST PUSH1 0x60 PUSH2 0xE75 DUP3 PUSH1 0x0 ADD MLOAD PUSH2 0x1586 JUMP JUMPDEST PUSH2 0xE82 DUP4 PUSH1 0x20 ADD MLOAD PUSH2 0x16CF JUMP JUMPDEST PUSH2 0xE8F DUP5 PUSH1 0x40 ADD MLOAD PUSH2 0x1586 JUMP JUMPDEST PUSH2 0xE9C DUP6 PUSH1 0x60 ADD MLOAD PUSH2 0x13B8 JUMP JUMPDEST PUSH2 0xEA9 DUP7 PUSH1 0x80 ADD MLOAD PUSH2 0x1754 JUMP JUMPDEST PUSH2 0xEB6 DUP8 PUSH1 0xA0 ADD MLOAD PUSH2 0x124A JUMP JUMPDEST PUSH2 0xEC3 DUP9 PUSH1 0xC0 ADD MLOAD PUSH2 0x1754 JUMP JUMPDEST PUSH2 0xED0 DUP10 PUSH1 0xE0 ADD MLOAD PUSH2 0xA4B JUMP JUMPDEST PUSH2 0xEDE DUP11 PUSH2 0x100 ADD MLOAD PUSH2 0xF8A JUMP JUMPDEST PUSH2 0xEEC DUP12 PUSH2 0x120 ADD MLOAD PUSH2 0x10FF JUMP JUMPDEST PUSH2 0xEFA DUP13 PUSH2 0x140 ADD MLOAD PUSH2 0x909 JUMP JUMPDEST PUSH1 0x40 MLOAD PUSH1 0x20 ADD PUSH2 0xF14 SWAP12 SWAP11 SWAP10 SWAP9 SWAP8 SWAP7 SWAP6 SWAP5 SWAP4 SWAP3 SWAP2 SWAP1 PUSH2 0x33BF JUMP JUMPDEST PUSH1 0x40 MLOAD PUSH1 0x20 DUP2 DUP4 SUB SUB DUP2 MSTORE SWAP1 PUSH1 0x40 MSTORE SWAP1 POP SWAP2 SWAP1 POP JUMP JUMPDEST PUSH1 0x60 PUSH1 0x0 DUP3 PUSH1 0x40 MLOAD PUSH1 0x20 ADD PUSH2 0xF3F SWAP2 SWAP1 PUSH2 0x3639 JUMP JUMPDEST PUSH1 0x40 MLOAD PUSH1 0x20 DUP2 DUP4 SUB SUB DUP2 MSTORE SWAP1 PUSH1 0x40 MSTORE SWAP1 POP PUSH2 0xF59 DUP2 PUSH2 0x97A JUMP JUMPDEST SWAP2 POP POP SWAP2 SWAP1 POP JUMP JUMPDEST PUSH1 0x60 DUP2 PUSH1 0x40 MLOAD PUSH1 0x20 ADD PUSH2 0xF74 SWAP2 SWAP1 PUSH2 0x3577 JUMP JUMPDEST PUSH1 0x40 MLOAD PUSH1 0x20 DUP2 DUP4 SUB SUB DUP2 MSTORE SWAP1 PUSH1 0x40 MSTORE SWAP1 POP SWAP2 SWAP1 POP JUMP JUMPDEST PUSH1 0x60 DUP1 PUSH2 0xF97 DUP4 MLOAD PUSH2 0x1754 JUMP JUMPDEST SWAP1 POP PUSH1 0x0 JUMPDEST DUP4 MLOAD DUP2 LT ISZERO PUSH2 0xFF1 JUMPI DUP2 PUSH2 0xFC2 DUP6 DUP4 DUP2 MLOAD DUP2 LT PUSH2 0xFB5 JUMPI INVALID JUMPDEST PUSH1 0x20 MUL PUSH1 0x20 ADD ADD MLOAD PUSH2 0x1375 JUMP JUMPDEST PUSH1 0x40 MLOAD PUSH1 0x20 ADD PUSH2 0xFD3 SWAP3 SWAP2 SWAP1 PUSH2 0x31EC JUMP JUMPDEST PUSH1 0x40 MLOAD PUSH1 0x20 DUP2 DUP4 SUB SUB DUP2 MSTORE SWAP1 PUSH1 0x40 MSTORE SWAP2 POP DUP1 DUP1 PUSH1 0x1 ADD SWAP2 POP POP PUSH2 0xF9C JUMP JUMPDEST POP DUP1 SWAP2 POP POP SWAP2 SWAP1 POP JUMP JUMPDEST PUSH1 0x60 PUSH1 0x0 PUSH2 0x1012 DUP4 PUSH1 0x0 ADD MLOAD PUSH4 0xFFFFFFFF AND PUSH2 0x1281 JUMP JUMPDEST PUSH2 0x101F DUP5 PUSH1 0x20 ADD MLOAD PUSH2 0x15BD JUMP JUMPDEST PUSH2 0x1032 DUP6 PUSH1 0x40 ADD MLOAD PUSH4 0xFFFFFFFF AND PUSH2 0x1281 JUMP JUMPDEST PUSH2 0x103F DUP7 PUSH1 0x60 ADD MLOAD PUSH2 0xC0C JUMP JUMPDEST PUSH2 0x104C DUP8 PUSH1 0x80 ADD MLOAD PUSH2 0x1281 JUMP JUMPDEST PUSH2 0x1059 DUP9 PUSH1 0xA0 ADD MLOAD PUSH2 0x16CF JUMP JUMPDEST PUSH2 0x1066 DUP10 PUSH1 0xC0 ADD MLOAD PUSH2 0xC0C JUMP JUMPDEST PUSH1 0x40 MLOAD PUSH1 0x20 ADD PUSH2 0x107C SWAP8 SWAP7 SWAP6 SWAP5 SWAP4 SWAP3 SWAP2 SWAP1 PUSH2 0x32E4 JUMP JUMPDEST PUSH1 0x40 MLOAD PUSH1 0x20 DUP2 DUP4 SUB SUB DUP2 MSTORE SWAP1 PUSH1 0x40 MSTORE SWAP1 POP PUSH1 0x0 PUSH20 0xFFFFFFFFFFFFFFFFFFFFFFFFFFFFFFFFFFFFFFFF AND DUP4 PUSH1 0xE0 ADD MLOAD PUSH20 0xFFFFFFFFFFFFFFFFFFFFFFFFFFFFFFFFFFFFFFFF AND EQ PUSH2 0x10F6 JUMPI DUP1 PUSH2 0x10D3 DUP5 PUSH1 0xE0 ADD MLOAD PUSH2 0xC0C JUMP JUMPDEST PUSH1 0x40 MLOAD PUSH1 0x20 ADD PUSH2 0x10E4 SWAP3 SWAP2 SWAP1 PUSH2 0x31EC JUMP JUMPDEST PUSH1 0x40 MLOAD PUSH1 0x20 DUP2 DUP4 SUB SUB DUP2 MSTORE SWAP1 PUSH1 0x40 MSTORE SWAP1 POP JUMPDEST DUP1 SWAP2 POP POP SWAP2 SWAP1 POP JUMP JUMPDEST PUSH1 0x60 DUP1 PUSH2 0x110C DUP4 MLOAD PUSH2 0x1754 JUMP JUMPDEST SWAP1 POP PUSH1 0x0 JUMPDEST DUP4 MLOAD DUP2 LT ISZERO PUSH2 0x1166 JUMPI DUP2 PUSH2 0x1137 DUP6 DUP4 DUP2 MLOAD DUP2 LT PUSH2 0x112A JUMPI INVALID JUMPDEST PUSH1 0x20 MUL PUSH1 0x20 ADD ADD MLOAD PUSH2 0xC3B JUMP JUMPDEST PUSH1 0x40 MLOAD PUSH1 0x20 ADD PUSH2 0x1148 SWAP3 SWAP2 SWAP1 PUSH2 0x31EC JUMP JUMPDEST PUSH1 0x40 MLOAD PUSH1 0x20 DUP2 DUP4 SUB SUB DUP2 MSTORE SWAP1 PUSH1 0x40 MSTORE SWAP2 POP DUP1 DUP1 PUSH1 0x1 ADD SWAP2 POP POP PUSH2 0x1111 JUMP JUMPDEST POP DUP1 SWAP2 POP POP SWAP2 SWAP1 POP JUMP JUMPDEST PUSH1 0x60 DUP1 PUSH2 0x117D DUP4 MLOAD PUSH2 0x1281 JUMP JUMPDEST SWAP1 POP PUSH1 0x0 JUMPDEST DUP4 MLOAD DUP2 LT ISZERO PUSH2 0x11D7 JUMPI DUP2 PUSH2 0x11A8 DUP6 DUP4 DUP2 MLOAD DUP2 LT PUSH2 0x119B JUMPI INVALID JUMPDEST PUSH1 0x20 MUL PUSH1 0x20 ADD ADD MLOAD PUSH2 0x15BD JUMP JUMPDEST PUSH1 0x40 MLOAD PUSH1 0x20 ADD PUSH2 0x11B9 SWAP3 SWAP2 SWAP1 PUSH2 0x31EC JUMP JUMPDEST PUSH1 0x40 MLOAD PUSH1 0x20 DUP2 DUP4 SUB SUB DUP2 MSTORE SWAP1 PUSH1 0x40 MSTORE SWAP2 POP DUP1 DUP1 PUSH1 0x1 ADD SWAP2 POP POP PUSH2 0x1182 JUMP JUMPDEST POP DUP1 SWAP2 POP POP SWAP2 SWAP1 POP JUMP JUMPDEST PUSH1 0x60 DUP1 PUSH2 0x11EE DUP4 MLOAD PUSH2 0x1754 JUMP JUMPDEST SWAP1 POP PUSH1 0x0 JUMPDEST DUP4 MLOAD DUP2 LT ISZERO PUSH2 0x1240 JUMPI DUP2 DUP5 DUP3 DUP2 MLOAD DUP2 LT PUSH2 0x1209 JUMPI INVALID JUMPDEST PUSH1 0x20 MUL PUSH1 0x20 ADD ADD MLOAD PUSH1 0x40 MLOAD PUSH1 0x20 ADD PUSH2 0x1222 SWAP3 SWAP2 SWAP1 PUSH2 0x34FE JUMP JUMPDEST PUSH1 0x40 MLOAD PUSH1 0x20 DUP2 DUP4 SUB SUB DUP2 MSTORE SWAP1 PUSH1 0x40 MSTORE SWAP2 POP DUP1 DUP1 PUSH1 0x1 ADD SWAP2 POP POP PUSH2 0x11F3 JUMP JUMPDEST POP DUP1 SWAP2 POP POP SWAP2 SWAP1 POP JUMP JUMPDEST PUSH1 0x60 PUSH1 0x0 DUP3 PUSH1 0x40 MLOAD PUSH1 0x20 ADD PUSH2 0x125F SWAP2 SWAP1 PUSH2 0x355C JUMP JUMPDEST PUSH1 0x40 MLOAD PUSH1 0x20 DUP2 DUP4 SUB SUB DUP2 MSTORE SWAP1 PUSH1 0x40 MSTORE SWAP1 POP PUSH2 0x1279 DUP2 PUSH2 0x97A JUMP JUMPDEST SWAP2 POP POP SWAP2 SWAP1 POP JUMP JUMPDEST PUSH1 0x60 PUSH1 0x0 PUSH1 0x60 PUSH1 0x0 JUMPDEST PUSH1 0x1 ISZERO PUSH2 0x12F6 JUMPI PUSH1 0x0 DUP2 EQ ISZERO PUSH2 0x12A1 JUMPI PUSH1 0x0 PUSH2 0x12A4 JUMP JUMPDEST PUSH1 0x80 JUMPDEST PUSH1 0x7F DUP7 AND OR PUSH1 0xF8 SHL SWAP3 POP DUP2 DUP4 PUSH1 0x40 MLOAD PUSH1 0x20 ADD PUSH2 0x12C1 SWAP3 SWAP2 SWAP1 PUSH2 0x31C4 JUMP JUMPDEST PUSH1 0x40 MLOAD PUSH1 0x20 DUP2 DUP4 SUB SUB DUP2 MSTORE SWAP1 PUSH1 0x40 MSTORE SWAP2 POP PUSH1 0x7F DUP6 GT PUSH2 0x12DF JUMPI PUSH2 0x12F6 JUMP JUMPDEST PUSH1 0x1 PUSH1 0x7 DUP7 SWAP1 SHR SUB SWAP5 POP DUP1 DUP1 PUSH1 0x1 ADD SWAP2 POP POP PUSH2 0x128A JUMP JUMPDEST PUSH2 0x12FF DUP3 PUSH2 0x97A JUMP JUMPDEST SWAP4 POP POP POP POP SWAP2 SWAP1 POP JUMP JUMPDEST PUSH1 0x60 PUSH2 0x1318 DUP3 PUSH1 0x0 ADD MLOAD PUSH2 0x1754 JUMP JUMPDEST PUSH2 0x1325 DUP4 PUSH1 0x20 ADD MLOAD PUSH2 0x1586 JUMP JUMPDEST PUSH1 0x40 MLOAD PUSH1 0x20 ADD PUSH2 0x1336 SWAP3 SWAP2 SWAP1 PUSH2 0x31EC JUMP JUMPDEST PUSH1 0x40 MLOAD PUSH1 0x20 DUP2 DUP4 SUB SUB DUP2 MSTORE SWAP1 PUSH1 0x40 MSTORE SWAP1 POP SWAP2 SWAP1 POP JUMP JUMPDEST PUSH1 0x60 DUP2 PUSH1 0x40 MLOAD PUSH1 0x20 ADD PUSH2 0x135F SWAP2 SWAP1 PUSH2 0x31A9 JUMP JUMPDEST PUSH1 0x40 MLOAD PUSH1 0x20 DUP2 DUP4 SUB SUB DUP2 MSTORE SWAP1 PUSH1 0x40 MSTORE SWAP1 POP SWAP2 SWAP1 POP JUMP JUMPDEST PUSH1 0x60 PUSH2 0x1384 DUP3 PUSH1 0x0 ADD MLOAD PUSH2 0xC0C JUMP JUMPDEST PUSH2 0x1391 DUP4 PUSH1 0x20 ADD MLOAD PUSH2 0x13B8 JUMP JUMPDEST PUSH1 0x40 MLOAD PUSH1 0x20 ADD PUSH2 0x13A2 SWAP3 SWAP2 SWAP1 PUSH2 0x31EC JUMP JUMPDEST PUSH1 0x40 MLOAD PUSH1 0x20 DUP2 DUP4 SUB SUB DUP2 MSTORE SWAP1 PUSH1 0x40 MSTORE SWAP1 POP SWAP2 SWAP1 POP JUMP JUMPDEST PUSH1 0x60 PUSH1 0x0 PUSH2 0x13C9 DUP4 PUSH1 0x0 ADD MLOAD PUSH2 0x171D JUMP JUMPDEST PUSH2 0x13D6 DUP5 PUSH1 0x20 ADD MLOAD PUSH2 0x171D JUMP JUMPDEST PUSH2 0x13E3 DUP6 PUSH1 0x40 ADD MLOAD PUSH2 0xC0C JUMP JUMPDEST PUSH2 0x13F0 DUP7 PUSH1 0x60 ADD MLOAD PUSH2 0xAF3 JUMP JUMPDEST PUSH2 0x13FD DUP8 PUSH1 0x80 ADD MLOAD PUSH2 0x11E1 JUMP JUMPDEST PUSH2 0x140A DUP9 PUSH1 0xA0 ADD MLOAD PUSH2 0x178B JUMP JUMPDEST PUSH1 0x40 MLOAD PUSH1 0x20 ADD PUSH2 0x141F SWAP7 SWAP6 SWAP5 SWAP4 SWAP3 SWAP2 SWAP1 PUSH2 0x328C JUMP JUMPDEST PUSH1 0x40 MLOAD PUSH1 0x20 DUP2 DUP4 SUB SUB DUP2 MSTORE SWAP1 PUSH1 0x40 MSTORE SWAP1 POP PUSH1 0x0 PUSH2 0x1440 DUP5 PUSH2 0x120 ADD MLOAD PUSH2 0x124A JUMP JUMPDEST PUSH2 0x144E DUP6 PUSH2 0x140 ADD MLOAD PUSH2 0x124A JUMP JUMPDEST PUSH2 0x145C DUP7 PUSH2 0x160 ADD MLOAD PUSH2 0x124A JUMP JUMPDEST PUSH2 0x146A DUP8 PUSH2 0x180 ADD MLOAD PUSH2 0x124A JUMP JUMPDEST PUSH2 0x1478 DUP9 PUSH2 0x1A0 ADD MLOAD PUSH2 0x178B JUMP JUMPDEST PUSH2 0x1486 DUP10 PUSH2 0x1C0 ADD MLOAD PUSH2 0x178B JUMP JUMPDEST PUSH2 0x1494 DUP11 PUSH2 0x1E0 ADD MLOAD PUSH2 0x178B JUMP JUMPDEST PUSH2 0x14A2 DUP12 PUSH2 0x200 ADD MLOAD PUSH2 0x178B JUMP JUMPDEST PUSH2 0x14B0 DUP13 PUSH2 0x220 ADD MLOAD PUSH2 0x178B JUMP JUMPDEST PUSH2 0x14BE DUP14 PUSH2 0x240 ADD MLOAD PUSH2 0x178B JUMP JUMPDEST PUSH2 0x14CC DUP15 PUSH2 0x260 ADD MLOAD PUSH2 0x178B JUMP JUMPDEST PUSH2 0x14DA DUP16 PUSH2 0x280 ADD MLOAD PUSH2 0x11E1 JUMP JUMPDEST PUSH1 0x40 MLOAD PUSH1 0x20 ADD PUSH2 0x14F5 SWAP13 SWAP12 SWAP11 SWAP10 SWAP9 SWAP8 SWAP7 SWAP6 SWAP5 SWAP4 SWAP3 SWAP2 SWAP1 PUSH2 0x3458 JUMP JUMPDEST PUSH1 0x40 MLOAD PUSH1 0x20 DUP2 DUP4 SUB SUB DUP2 MSTORE SWAP1 PUSH1 0x40 MSTORE SWAP1 POP DUP2 DUP2 PUSH1 0x40 MLOAD PUSH1 0x20 ADD PUSH2 0x1519 SWAP3 SWAP2 SWAP1 PUSH2 0x31EC JUMP JUMPDEST PUSH1 0x40 MLOAD PUSH1 0x20 DUP2 DUP4 SUB SUB DUP2 MSTORE SWAP1 PUSH1 0x40 MSTORE SWAP3 POP POP POP SWAP2 SWAP1 POP JUMP JUMPDEST PUSH1 0x60 PUSH2 0x153C DUP7 PUSH2 0xF61 JUMP JUMPDEST PUSH2 0x1545 DUP7 PUSH2 0xC0C JUMP JUMPDEST PUSH2 0x154E DUP7 PUSH2 0x124A JUMP JUMPDEST PUSH2 0x1557 DUP7 PUSH2 0xC0C JUMP JUMPDEST DUP6 PUSH1 0x40 MLOAD PUSH1 0x20 ADD PUSH2 0x156C SWAP6 SWAP5 SWAP4 SWAP3 SWAP2 SWAP1 PUSH2 0x3241 JUMP JUMPDEST PUSH1 0x40 MLOAD PUSH1 0x20 DUP2 DUP4 SUB SUB DUP2 MSTORE SWAP1 PUSH1 0x40 MSTORE SWAP1 POP SWAP6 SWAP5 POP POP POP POP POP JUMP JUMPDEST PUSH1 0x60 PUSH1 0x0 DUP3 PUSH1 0x40 MLOAD PUSH1 0x20 ADD PUSH2 0x159B SWAP2 SWAP1 PUSH2 0x3603 JUMP JUMPDEST PUSH1 0x40 MLOAD PUSH1 0x20 DUP2 DUP4 SUB SUB DUP2 MSTORE SWAP1 PUSH1 0x40 MSTORE SWAP1 POP PUSH2 0x15B5 DUP2 PUSH2 0x97A JUMP JUMPDEST SWAP2 POP POP SWAP2 SWAP1 POP JUMP JUMPDEST PUSH1 0x60 PUSH2 0x15CC DUP3 PUSH1 0x0 ADD MLOAD PUSH2 0xC0C JUMP JUMPDEST PUSH2 0x15D9 DUP4 PUSH1 0x20 ADD MLOAD PUSH2 0xA4B JUMP JUMPDEST PUSH1 0x40 MLOAD PUSH1 0x20 ADD PUSH2 0x15EA SWAP3 SWAP2 SWAP1 PUSH2 0x31EC JUMP JUMPDEST PUSH1 0x40 MLOAD PUSH1 0x20 DUP2 DUP4 SUB SUB DUP2 MSTORE SWAP1 PUSH1 0x40 MSTORE SWAP1 POP SWAP2 SWAP1 POP JUMP JUMPDEST PUSH1 0x60 DUP1 PUSH1 0xFD PUSH1 0xFF AND DUP4 LT ISZERO PUSH2 0x1636 JUMPI DUP3 PUSH1 0x40 MLOAD PUSH1 0x20 ADD PUSH2 0x1620 SWAP2 SWAP1 PUSH2 0x3639 JUMP JUMPDEST PUSH1 0x40 MLOAD PUSH1 0x20 DUP2 DUP4 SUB SUB DUP2 MSTORE SWAP1 PUSH1 0x40 MSTORE SWAP1 POP PUSH2 0x16C6 JUMP JUMPDEST PUSH2 0xFFFF DUP4 GT PUSH2 0x1669 JUMPI PUSH1 0xFD DUP4 PUSH1 0x40 MLOAD PUSH1 0x20 ADD PUSH2 0x1653 SWAP3 SWAP2 SWAP1 PUSH2 0x3654 JUMP JUMPDEST PUSH1 0x40 MLOAD PUSH1 0x20 DUP2 DUP4 SUB SUB DUP2 MSTORE SWAP1 PUSH1 0x40 MSTORE SWAP1 POP PUSH2 0x16C5 JUMP JUMPDEST PUSH4 0xFFFFFFFF DUP4 GT PUSH2 0x169E JUMPI PUSH1 0xFE DUP4 PUSH1 0x40 MLOAD PUSH1 0x20 ADD PUSH2 0x1688 SWAP3 SWAP2 SWAP1 PUSH2 0x3680 JUMP JUMPDEST PUSH1 0x40 MLOAD PUSH1 0x20 DUP2 DUP4 SUB SUB DUP2 MSTORE SWAP1 PUSH1 0x40 MSTORE SWAP1 POP PUSH2 0x16C4 JUMP JUMPDEST PUSH1 0xFF DUP4 PUSH1 0x40 MLOAD PUSH1 0x20 ADD PUSH2 0x16B2 SWAP3 SWAP2 SWAP1 PUSH2 0x36AC JUMP JUMPDEST PUSH1 0x40 MLOAD PUSH1 0x20 DUP2 DUP4 SUB SUB DUP2 MSTORE SWAP1 PUSH1 0x40 MSTORE SWAP1 POP JUMPDEST JUMPDEST JUMPDEST DUP1 SWAP2 POP POP SWAP2 SWAP1 POP JUMP JUMPDEST PUSH1 0x60 PUSH2 0x16DE DUP3 PUSH1 0x0 ADD MLOAD PUSH2 0xF2A JUMP JUMPDEST PUSH2 0x16E8 PUSH1 0x14 PUSH2 0x1600 JUMP JUMPDEST PUSH2 0x16F5 DUP5 PUSH1 0x20 ADD MLOAD PUSH2 0xC0C JUMP JUMPDEST PUSH1 0x40 MLOAD PUSH1 0x20 ADD PUSH2 0x1707 SWAP4 SWAP3 SWAP2 SWAP1 PUSH2 0x3210 JUMP JUMPDEST PUSH1 0x40 MLOAD PUSH1 0x20 DUP2 DUP4 SUB SUB DUP2 MSTORE SWAP1 PUSH1 0x40 MSTORE SWAP1 POP SWAP2 SWAP1 POP JUMP JUMPDEST PUSH1 0x60 PUSH1 0x0 DUP3 PUSH1 0x40 MLOAD PUSH1 0x20 ADD PUSH2 0x1732 SWAP2 SWAP1 PUSH2 0x35CD JUMP JUMPDEST PUSH1 0x40 MLOAD PUSH1 0x20 DUP2 DUP4 SUB SUB DUP2 MSTORE SWAP1 PUSH1 0x40 MSTORE SWAP1 POP PUSH2 0x174C DUP2 PUSH2 0x97A JUMP JUMPDEST SWAP2 POP POP SWAP2 SWAP1 POP JUMP JUMPDEST PUSH1 0x60 PUSH1 0x0 DUP3 PUSH1 0x40 MLOAD PUSH1 0x20 ADD PUSH2 0x1769 SWAP2 SWAP1 PUSH2 0x35E8 JUMP JUMPDEST PUSH1 0x40 MLOAD PUSH1 0x20 DUP2 DUP4 SUB SUB DUP2 MSTORE SWAP1 PUSH1 0x40 MSTORE SWAP1 POP PUSH2 0x1783 DUP2 PUSH2 0x97A JUMP JUMPDEST SWAP2 POP POP SWAP2 SWAP1 POP JUMP JUMPDEST PUSH1 0x60 DUP1 PUSH2 0x1798 DUP4 MLOAD PUSH2 0x1754 JUMP JUMPDEST SWAP1 POP PUSH1 0x0 JUMPDEST DUP4 MLOAD DUP2 LT ISZERO PUSH2 0x1811 JUMPI DUP2 PUSH2 0x17E2 DUP6 DUP4 DUP2 MLOAD DUP2 LT PUSH2 0x17B6 JUMPI INVALID JUMPDEST PUSH1 0x20 MUL PUSH1 0x20 ADD ADD MLOAD PUSH1 0x40 MLOAD PUSH1 0x20 ADD PUSH2 0x17CE SWAP2 SWAP1 PUSH2 0x355C JUMP JUMPDEST PUSH1 0x40 MLOAD PUSH1 0x20 DUP2 DUP4 SUB SUB DUP2 MSTORE SWAP1 PUSH1 0x40 MSTORE PUSH2 0x97A JUMP JUMPDEST PUSH1 0x40 MLOAD PUSH1 0x20 ADD PUSH2 0x17F3 SWAP3 SWAP2 SWAP1 PUSH2 0x31EC JUMP JUMPDEST PUSH1 0x40 MLOAD PUSH1 0x20 DUP2 DUP4 SUB SUB DUP2 MSTORE SWAP1 PUSH1 0x40 MSTORE SWAP2 POP DUP1 DUP1 PUSH1 0x1 ADD SWAP2 POP POP PUSH2 0x179D JUMP JUMPDEST POP DUP1 SWAP2 POP POP SWAP2 SWAP1 POP JUMP JUMPDEST PUSH1 0x60 PUSH1 0x0 DUP3 PUSH1 0x40 MLOAD PUSH1 0x20 ADD PUSH2 0x1830 SWAP2 SWAP1 PUSH2 0x3541 JUMP JUMPDEST PUSH1 0x40 MLOAD PUSH1 0x20 DUP2 DUP4 SUB SUB DUP2 MSTORE SWAP1 PUSH1 0x40 MSTORE SWAP1 POP PUSH2 0x184A DUP2 PUSH2 0x97A JUMP JUMPDEST SWAP2 POP POP SWAP2 SWAP1 POP JUMP JUMPDEST PUSH1 0x0 PUSH2 0x1865 PUSH2 0x1860 DUP5 PUSH2 0x372B JUMP JUMPDEST PUSH2 0x36FA JUMP JUMPDEST SWAP1 POP DUP1 DUP4 DUP3 MSTORE PUSH1 0x20 DUP3 ADD SWAP1 POP DUP3 DUP6 PUSH1 0x20 DUP7 MUL DUP3 ADD GT ISZERO PUSH2 0x1884 JUMPI PUSH1 0x0 DUP1 REVERT JUMPDEST PUSH1 0x0 JUMPDEST DUP6 DUP2 LT ISZERO PUSH2 0x18B4 JUMPI DUP2 PUSH2 0x189A DUP9 DUP3 PUSH2 0x1DF7 JUMP JUMPDEST DUP5 MSTORE PUSH1 0x20 DUP5 ADD SWAP4 POP PUSH1 0x20 DUP4 ADD SWAP3 POP POP PUSH1 0x1 DUP2 ADD SWAP1 POP PUSH2 0x1887 JUMP JUMPDEST POP POP POP SWAP4 SWAP3 POP POP POP JUMP JUMPDEST PUSH1 0x0 PUSH2 0x18D1 PUSH2 0x18CC DUP5 PUSH2 0x3757 JUMP JUMPDEST PUSH2 0x36FA JUMP JUMPDEST SWAP1 POP DUP1 DUP4 DUP3 MSTORE PUSH1 0x20 DUP3 ADD SWAP1 POP DUP3 DUP6 PUSH1 0x20 DUP7 MUL DUP3 ADD GT ISZERO PUSH2 0x18F0 JUMPI PUSH1 0x0 DUP1 REVERT JUMPDEST PUSH1 0x0 JUMPDEST DUP6 DUP2 LT ISZERO PUSH2 0x1920 JUMPI DUP2 PUSH2 0x1906 DUP9 DUP3 PUSH2 0x1E0C JUMP JUMPDEST DUP5 MSTORE PUSH1 0x20 DUP5 ADD SWAP4 POP PUSH1 0x20 DUP4 ADD SWAP3 POP POP PUSH1 0x1 DUP2 ADD SWAP1 POP PUSH2 0x18F3 JUMP JUMPDEST POP POP POP SWAP4 SWAP3 POP POP POP JUMP JUMPDEST PUSH1 0x0 PUSH2 0x193D PUSH2 0x1938 DUP5 PUSH2 0x3783 JUMP JUMPDEST PUSH2 0x36FA JUMP JUMPDEST SWAP1 POP DUP1 DUP4 DUP3 MSTORE PUSH1 0x20 DUP3 ADD SWAP1 POP DUP3 DUP6 PUSH1 0x40 DUP7 MUL DUP3 ADD GT ISZERO PUSH2 0x195C JUMPI PUSH1 0x0 DUP1 REVERT JUMPDEST PUSH1 0x0 JUMPDEST DUP6 DUP2 LT ISZERO PUSH2 0x198C JUMPI DUP2 PUSH2 0x1972 DUP9 DUP3 PUSH2 0x22C9 JUMP JUMPDEST DUP5 MSTORE PUSH1 0x20 DUP5 ADD SWAP4 POP PUSH1 0x40 DUP4 ADD SWAP3 POP POP PUSH1 0x1 DUP2 ADD SWAP1 POP PUSH2 0x195F JUMP JUMPDEST POP POP POP SWAP4 SWAP3 POP POP POP JUMP JUMPDEST PUSH1 0x0 PUSH2 0x19A9 PUSH2 0x19A4 DUP5 PUSH2 0x37AF JUMP JUMPDEST PUSH2 0x36FA JUMP JUMPDEST SWAP1 POP DUP1 DUP4 DUP3 MSTORE PUSH1 0x20 DUP3 ADD SWAP1 POP DUP3 PUSH1 0x0 JUMPDEST DUP6 DUP2 LT ISZERO PUSH2 0x19E9 JUMPI DUP2 CALLDATALOAD DUP6 ADD PUSH2 0x19CF DUP9 DUP3 PUSH2 0x2315 JUMP JUMPDEST DUP5 MSTORE PUSH1 0x20 DUP5 ADD SWAP4 POP PUSH1 0x20 DUP4 ADD SWAP3 POP POP PUSH1 0x1 DUP2 ADD SWAP1 POP PUSH2 0x19B9 JUMP JUMPDEST POP POP POP SWAP4 SWAP3 POP POP POP JUMP JUMPDEST PUSH1 0x0 PUSH2 0x1A06 PUSH2 0x1A01 DUP5 PUSH2 0x37DB JUMP JUMPDEST PUSH2 0x36FA JUMP JUMPDEST SWAP1 POP DUP1 DUP4 DUP3 MSTORE PUSH1 0x20 DUP3 ADD SWAP1 POP DUP3 DUP6 PUSH2 0x140 DUP7 MUL DUP3 ADD GT ISZERO PUSH2 0x1A26 JUMPI PUSH1 0x0 DUP1 REVERT JUMPDEST PUSH1 0x0 JUMPDEST DUP6 DUP2 LT ISZERO PUSH2 0x1A57 JUMPI DUP2 PUSH2 0x1A3C DUP9 DUP3 PUSH2 0x2592 JUMP JUMPDEST DUP5 MSTORE PUSH1 0x20 DUP5 ADD SWAP4 POP PUSH2 0x140 DUP4 ADD SWAP3 POP POP PUSH1 0x1 DUP2 ADD SWAP1 POP PUSH2 0x1A29 JUMP JUMPDEST POP POP POP SWAP4 SWAP3 POP POP POP JUMP JUMPDEST PUSH1 0x0 PUSH2 0x1A74 PUSH2 0x1A6F DUP5 PUSH2 0x3807 JUMP JUMPDEST PUSH2 0x36FA JUMP JUMPDEST SWAP1 POP DUP1 DUP4 DUP3 MSTORE PUSH1 0x20 DUP3 ADD SWAP1 POP DUP3 PUSH1 0x0 JUMPDEST DUP6 DUP2 LT ISZERO PUSH2 0x1AB4 JUMPI DUP2 CALLDATALOAD DUP6 ADD PUSH2 0x1A9A DUP9 DUP3 PUSH2 0x26F2 JUMP JUMPDEST DUP5 MSTORE PUSH1 0x20 DUP5 ADD SWAP4 POP PUSH1 0x20 DUP4 ADD SWAP3 POP POP PUSH1 0x1 DUP2 ADD SWAP1 POP PUSH2 0x1A84 JUMP JUMPDEST POP POP POP SWAP4 SWAP3 POP POP POP JUMP JUMPDEST PUSH1 0x0 PUSH2 0x1AD1 PUSH2 0x1ACC DUP5 PUSH2 0x3833 JUMP JUMPDEST PUSH2 0x36FA JUMP JUMPDEST SWAP1 POP DUP1 DUP4 DUP3 MSTORE PUSH1 0x20 DUP3 ADD SWAP1 POP DUP3 DUP6 PUSH2 0x100 DUP7 MUL DUP3 ADD GT ISZERO PUSH2 0x1AF1 JUMPI PUSH1 0x0 DUP1 REVERT JUMPDEST PUSH1 0x0 JUMPDEST DUP6 DUP2 LT ISZERO PUSH2 0x1B22 JUMPI DUP2 PUSH2 0x1B07 DUP9 DUP3 PUSH2 0x2756 JUMP JUMPDEST DUP5 MSTORE PUSH1 0x20 DUP5 ADD SWAP4 POP PUSH2 0x100 DUP4 ADD SWAP3 POP POP PUSH1 0x1 DUP2 ADD SWAP1 POP PUSH2 0x1AF4 JUMP JUMPDEST POP POP POP SWAP4 SWAP3 POP POP POP JUMP JUMPDEST PUSH1 0x0 PUSH2 0x1B3F PUSH2 0x1B3A DUP5 PUSH2 0x385F JUMP JUMPDEST PUSH2 0x36FA JUMP JUMPDEST SWAP1 POP DUP1 DUP4 DUP3 MSTORE PUSH1 0x20 DUP3 ADD SWAP1 POP DUP3 DUP6 PUSH1 0x20 DUP7 MUL DUP3 ADD GT ISZERO PUSH2 0x1B5E JUMPI PUSH1 0x0 DUP1 REVERT JUMPDEST PUSH1 0x0 JUMPDEST DUP6 DUP2 LT ISZERO PUSH2 0x1B8E JUMPI DUP2 PUSH2 0x1B74 DUP9 DUP3 PUSH2 0x27B8 JUMP JUMPDEST DUP5 MSTORE PUSH1 0x20 DUP5 ADD SWAP4 POP PUSH1 0x20 DUP4 ADD SWAP3 POP POP PUSH1 0x1 DUP2 ADD SWAP1 POP PUSH2 0x1B61 JUMP JUMPDEST POP POP POP SWAP4 SWAP3 POP POP POP JUMP JUMPDEST PUSH1 0x0 PUSH2 0x1BAB PUSH2 0x1BA6 DUP5 PUSH2 0x388B JUMP JUMPDEST PUSH2 0x36FA JUMP JUMPDEST SWAP1 POP DUP3 DUP2 MSTORE PUSH1 0x20 DUP2 ADD DUP5 DUP5 DUP5 ADD GT ISZERO PUSH2 0x1BC3 JUMPI PUSH1 0x0 DUP1 REVERT JUMPDEST PUSH2 0x1BCE DUP5 DUP3 DUP6 PUSH2 0x3A38 JUMP JUMPDEST POP SWAP4 SWAP3 POP POP POP JUMP JUMPDEST PUSH1 0x0 PUSH2 0x1BE9 PUSH2 0x1BE4 DUP5 PUSH2 0x38BB JUMP JUMPDEST PUSH2 0x36FA JUMP JUMPDEST SWAP1 POP DUP3 DUP2 MSTORE PUSH1 0x20 DUP2 ADD DUP5 DUP5 DUP5 ADD GT ISZERO PUSH2 0x1C01 JUMPI PUSH1 0x0 DUP1 REVERT JUMPDEST PUSH2 0x1C0C DUP5 DUP3 DUP6 PUSH2 0x3A38 JUMP JUMPDEST POP SWAP4 SWAP3 POP POP POP JUMP JUMPDEST PUSH1 0x0 DUP2 CALLDATALOAD SWAP1 POP PUSH2 0x1C23 DUP2 PUSH2 0x3BAA JUMP JUMPDEST SWAP3 SWAP2 POP POP JUMP JUMPDEST PUSH1 0x0 DUP3 PUSH1 0x1F DUP4 ADD SLT PUSH2 0x1C3A JUMPI PUSH1 0x0 DUP1 REVERT JUMPDEST DUP2 CALLDATALOAD PUSH2 0x1C4A DUP5 DUP3 PUSH1 0x20 DUP7 ADD PUSH2 0x1852 JUMP JUMPDEST SWAP2 POP POP SWAP3 SWAP2 POP POP JUMP JUMPDEST PUSH1 0x0 DUP3 PUSH1 0x1F DUP4 ADD SLT PUSH2 0x1C64 JUMPI PUSH1 0x0 DUP1 REVERT JUMPDEST DUP2 CALLDATALOAD PUSH2 0x1C74 DUP5 DUP3 PUSH1 0x20 DUP7 ADD PUSH2 0x18BE JUMP JUMPDEST SWAP2 POP POP SWAP3 SWAP2 POP POP JUMP JUMPDEST PUSH1 0x0 DUP3 PUSH1 0x1F DUP4 ADD SLT PUSH2 0x1C8E JUMPI PUSH1 0x0 DUP1 REVERT JUMPDEST DUP2 CALLDATALOAD PUSH2 0x1C9E DUP5 DUP3 PUSH1 0x20 DUP7 ADD PUSH2 0x192A JUMP JUMPDEST SWAP2 POP POP SWAP3 SWAP2 POP POP JUMP JUMPDEST PUSH1 0x0 DUP3 PUSH1 0x1F DUP4 ADD SLT PUSH2 0x1CB8 JUMPI PUSH1 0x0 DUP1 REVERT JUMPDEST DUP2 CALLDATALOAD PUSH2 0x1CC8 DUP5 DUP3 PUSH1 0x20 DUP7 ADD PUSH2 0x1996 JUMP JUMPDEST SWAP2 POP POP SWAP3 SWAP2 POP POP JUMP JUMPDEST PUSH1 0x0 DUP3 PUSH1 0x1F DUP4 ADD SLT PUSH2 0x1CE2 JUMPI PUSH1 0x0 DUP1 REVERT JUMPDEST DUP2 CALLDATALOAD PUSH2 0x1CF2 DUP5 DUP3 PUSH1 0x20 DUP7 ADD PUSH2 0x19F3 JUMP JUMPDEST SWAP2 POP POP SWAP3 SWAP2 POP POP JUMP JUMPDEST PUSH1 0x0 DUP3 PUSH1 0x1F DUP4 ADD SLT PUSH2 0x1D0C JUMPI PUSH1 0x0 DUP1 REVERT JUMPDEST DUP2 CALLDATALOAD PUSH2 0x1D1C DUP5 DUP3 PUSH1 0x20 DUP7 ADD PUSH2 0x1A61 JUMP JUMPDEST SWAP2 POP POP SWAP3 SWAP2 POP POP JUMP JUMPDEST PUSH1 0x0 DUP3 PUSH1 0x1F DUP4 ADD SLT PUSH2 0x1D36 JUMPI PUSH1 0x0 DUP1 REVERT JUMPDEST DUP2 CALLDATALOAD PUSH2 0x1D46 DUP5 DUP3 PUSH1 0x20 DUP7 ADD PUSH2 0x1ABE JUMP JUMPDEST SWAP2 POP POP SWAP3 SWAP2 POP POP JUMP JUMPDEST PUSH1 0x0 DUP3 PUSH1 0x1F DUP4 ADD SLT PUSH2 0x1D60 JUMPI PUSH1 0x0 DUP1 REVERT JUMPDEST DUP2 CALLDATALOAD PUSH2 0x1D70 DUP5 DUP3 PUSH1 0x20 DUP7 ADD PUSH2 0x1B2C JUMP JUMPDEST SWAP2 POP POP SWAP3 SWAP2 POP POP JUMP JUMPDEST PUSH1 0x0 DUP2 CALLDATALOAD SWAP1 POP PUSH2 0x1D88 DUP2 PUSH2 0x3BC1 JUMP JUMPDEST SWAP3 SWAP2 POP POP JUMP JUMPDEST PUSH1 0x0 DUP2 CALLDATALOAD SWAP1 POP PUSH2 0x1D9D DUP2 PUSH2 0x3BD8 JUMP JUMPDEST SWAP3 SWAP2 POP POP JUMP JUMPDEST PUSH1 0x0 DUP2 CALLDATALOAD SWAP1 POP PUSH2 0x1DB2 DUP2 PUSH2 0x3BEF JUMP JUMPDEST SWAP3 SWAP2 POP POP JUMP JUMPDEST PUSH1 0x0 DUP3 PUSH1 0x1F DUP4 ADD SLT PUSH2 0x1DC9 JUMPI PUSH1 0x0 DUP1 REVERT JUMPDEST DUP2 CALLDATALOAD PUSH2 0x1DD9 DUP5 DUP3 PUSH1 0x20 DUP7 ADD PUSH2 0x1B98 JUMP JUMPDEST SWAP2 POP POP SWAP3 SWAP2 POP POP JUMP JUMPDEST PUSH1 0x0 DUP2 CALLDATALOAD SWAP1 POP PUSH2 0x1DF1 DUP2 PUSH2 0x3C06 JUMP JUMPDEST SWAP3 SWAP2 POP POP JUMP JUMPDEST PUSH1 0x0 DUP2 CALLDATALOAD SWAP1 POP PUSH2 0x1E06 DUP2 PUSH2 0x3C1D JUMP JUMPDEST SWAP3 SWAP2 POP POP JUMP JUMPDEST PUSH1 0x0 DUP2 CALLDATALOAD SWAP1 POP PUSH2 0x1E1B DUP2 PUSH2 0x3C34 JUMP JUMPDEST SWAP3 SWAP2 POP POP JUMP JUMPDEST PUSH1 0x0 DUP3 PUSH1 0x1F DUP4 ADD SLT PUSH2 0x1E32 JUMPI PUSH1 0x0 DUP1 REVERT JUMPDEST DUP2 CALLDATALOAD PUSH2 0x1E42 DUP5 DUP3 PUSH1 0x20 DUP7 ADD PUSH2 0x1BD6 JUMP JUMPDEST SWAP2 POP POP SWAP3 SWAP2 POP POP JUMP JUMPDEST PUSH1 0x0 PUSH2 0x2A0 DUP3 DUP5 SUB SLT ISZERO PUSH2 0x1E5E JUMPI PUSH1 0x0 DUP1 REVERT JUMPDEST PUSH2 0x1E69 PUSH2 0x2A0 PUSH2 0x36FA JUMP JUMPDEST SWAP1 POP PUSH1 0x0 PUSH2 0x1E79 DUP5 DUP3 DUP6 ADD PUSH2 0x27A3 JUMP JUMPDEST PUSH1 0x0 DUP4 ADD MSTORE POP PUSH1 0x20 PUSH2 0x1E8D DUP5 DUP3 DUP6 ADD PUSH2 0x27A3 JUMP JUMPDEST PUSH1 0x20 DUP4 ADD MSTORE POP PUSH1 0x40 PUSH2 0x1EA1 DUP5 DUP3 DUP6 ADD PUSH2 0x1C14 JUMP JUMPDEST PUSH1 0x40 DUP4 ADD MSTORE POP PUSH1 0x60 DUP3 ADD CALLDATALOAD PUSH8 0xFFFFFFFFFFFFFFFF DUP2 GT ISZERO PUSH2 0x1EC1 JUMPI PUSH1 0x0 DUP1 REVERT JUMPDEST PUSH2 0x1ECD DUP5 DUP3 DUP6 ADD PUSH2 0x1D4F JUMP JUMPDEST PUSH1 0x60 DUP4 ADD MSTORE POP PUSH1 0x80 DUP3 ADD CALLDATALOAD PUSH8 0xFFFFFFFFFFFFFFFF DUP2 GT ISZERO PUSH2 0x1EED JUMPI PUSH1 0x0 DUP1 REVERT JUMPDEST PUSH2 0x1EF9 DUP5 DUP3 DUP6 ADD PUSH2 0x1C29 JUMP JUMPDEST PUSH1 0x80 DUP4 ADD MSTORE POP PUSH1 0xA0 DUP3 ADD CALLDATALOAD PUSH8 0xFFFFFFFFFFFFFFFF DUP2 GT ISZERO PUSH2 0x1F19 JUMPI PUSH1 0x0 DUP1 REVERT JUMPDEST PUSH2 0x1F25 DUP5 DUP3 DUP6 ADD PUSH2 0x1C53 JUMP JUMPDEST PUSH1 0xA0 DUP4 ADD MSTORE POP PUSH1 0xC0 PUSH2 0x1F39 DUP5 DUP3 DUP6 ADD PUSH2 0x1E0C JUMP JUMPDEST PUSH1 0xC0 DUP4 ADD MSTORE POP PUSH1 0xE0 PUSH2 0x1F4D DUP5 DUP3 DUP6 ADD PUSH2 0x1E0C JUMP JUMPDEST PUSH1 0xE0 DUP4 ADD MSTORE POP PUSH2 0x100 PUSH2 0x1F62 DUP5 DUP3 DUP6 ADD PUSH2 0x1E0C JUMP JUMPDEST PUSH2 0x100 DUP4 ADD MSTORE POP PUSH2 0x120 PUSH2 0x1F78 DUP5 DUP3 DUP6 ADD PUSH2 0x1E0C JUMP JUMPDEST PUSH2 0x120 DUP4 ADD MSTORE POP PUSH2 0x140 PUSH2 0x1F8E DUP5 DUP3 DUP6 ADD PUSH2 0x1E0C JUMP JUMPDEST PUSH2 0x140 DUP4 ADD MSTORE POP PUSH2 0x160 PUSH2 0x1FA4 DUP5 DUP3 DUP6 ADD PUSH2 0x1E0C JUMP JUMPDEST PUSH2 0x160 DUP4 ADD MSTORE POP PUSH2 0x180 PUSH2 0x1FBA DUP5 DUP3 DUP6 ADD PUSH2 0x1E0C JUMP JUMPDEST PUSH2 0x180 DUP4 ADD MSTORE POP PUSH2 0x1A0 DUP3 ADD CALLDATALOAD PUSH8 0xFFFFFFFFFFFFFFFF DUP2 GT ISZERO PUSH2 0x1FDC JUMPI PUSH1 0x0 DUP1 REVERT JUMPDEST PUSH2 0x1FE8 DUP5 DUP3 DUP6 ADD PUSH2 0x1C53 JUMP JUMPDEST PUSH2 0x1A0 DUP4 ADD MSTORE POP PUSH2 0x1C0 DUP3 ADD CALLDATALOAD PUSH8 0xFFFFFFFFFFFFFFFF DUP2 GT ISZERO PUSH2 0x200A JUMPI PUSH1 0x0 DUP1 REVERT JUMPDEST PUSH2 0x2016 DUP5 DUP3 DUP6 ADD PUSH2 0x1C53 JUMP JUMPDEST PUSH2 0x1C0 DUP4 ADD MSTORE POP PUSH2 0x1E0 DUP3 ADD CALLDATALOAD PUSH8 0xFFFFFFFFFFFFFFFF DUP2 GT ISZERO PUSH2 0x2038 JUMPI PUSH1 0x0 DUP1 REVERT JUMPDEST PUSH2 0x2044 DUP5 DUP3 DUP6 ADD PUSH2 0x1C53 JUMP JUMPDEST PUSH2 0x1E0 DUP4 ADD MSTORE POP PUSH2 0x200 DUP3 ADD CALLDATALOAD PUSH8 0xFFFFFFFFFFFFFFFF DUP2 GT ISZERO PUSH2 0x2066 JUMPI PUSH1 0x0 DUP1 REVERT JUMPDEST PUSH2 0x2072 DUP5 DUP3 DUP6 ADD PUSH2 0x1C53 JUMP JUMPDEST PUSH2 0x200 DUP4 ADD MSTORE POP PUSH2 0x220 DUP3 ADD CALLDATALOAD PUSH8 0xFFFFFFFFFFFFFFFF DUP2 GT ISZERO PUSH2 0x2094 JUMPI PUSH1 0x0 DUP1 REVERT JUMPDEST PUSH2 0x20A0 DUP5 DUP3 DUP6 ADD PUSH2 0x1C53 JUMP JUMPDEST PUSH2 0x220 DUP4 ADD MSTORE POP PUSH2 0x240 DUP3 ADD CALLDATALOAD PUSH8 0xFFFFFFFFFFFFFFFF DUP2 GT ISZERO PUSH2 0x20C2 JUMPI PUSH1 0x0 DUP1 REVERT JUMPDEST PUSH2 0x20CE DUP5 DUP3 DUP6 ADD PUSH2 0x1C53 JUMP JUMPDEST PUSH2 0x240 DUP4 ADD MSTORE POP PUSH2 0x260 DUP3 ADD CALLDATALOAD PUSH8 0xFFFFFFFFFFFFFFFF DUP2 GT ISZERO PUSH2 0x20F0 JUMPI PUSH1 0x0 DUP1 REVERT JUMPDEST PUSH2 0x20FC DUP5 DUP3 DUP6 ADD PUSH2 0x1C53 JUMP JUMPDEST PUSH2 0x260 DUP4 ADD MSTORE POP PUSH2 0x280 DUP3 ADD CALLDATALOAD PUSH8 0xFFFFFFFFFFFFFFFF DUP2 GT ISZERO PUSH2 0x211E JUMPI PUSH1 0x0 DUP1 REVERT JUMPDEST PUSH2 0x212A DUP5 DUP3 DUP6 ADD PUSH2 0x1C29 JUMP JUMPDEST PUSH2 0x280 DUP4 ADD MSTORE POP SWAP3 SWAP2 POP POP JUMP JUMPDEST PUSH1 0x0 PUSH2 0x1E0 DUP3 DUP5 SUB SLT ISZERO PUSH2 0x214A JUMPI PUSH1 0x0 DUP1 REVERT JUMPDEST PUSH2 0x2155 PUSH2 0x1C0 PUSH2 0x36FA JUMP JUMPDEST SWAP1 POP PUSH1 0x0 PUSH2 0x2165 DUP5 DUP3 DUP6 ADD PUSH2 0x27A3 JUMP JUMPDEST PUSH1 0x0 DUP4 ADD MSTORE POP PUSH1 0x20 PUSH2 0x2179 DUP5 DUP3 DUP6 ADD PUSH2 0x27A3 JUMP JUMPDEST PUSH1 0x20 DUP4 ADD MSTORE POP PUSH1 0x40 PUSH2 0x218D DUP5 DUP3 DUP6 ADD PUSH2 0x1C14 JUMP JUMPDEST PUSH1 0x40 DUP4 ADD MSTORE POP PUSH1 0x60 PUSH2 0x21A1 DUP5 DUP3 DUP6 ADD PUSH2 0x27E2 JUMP JUMPDEST PUSH1 0x60 DUP4 ADD MSTORE POP PUSH1 0x80 PUSH2 0x21B5 DUP5 DUP3 DUP6 ADD PUSH2 0x27E2 JUMP JUMPDEST PUSH1 0x80 DUP4 ADD MSTORE POP PUSH1 0xA0 PUSH2 0x21C9 DUP5 DUP3 DUP6 ADD PUSH2 0x1C14 JUMP JUMPDEST PUSH1 0xA0 DUP4 ADD MSTORE POP PUSH1 0xC0 PUSH2 0x21DD DUP5 DUP3 DUP6 ADD PUSH2 0x1C14 JUMP JUMPDEST PUSH1 0xC0 DUP4 ADD MSTORE POP PUSH1 0xE0 PUSH2 0x21F1 DUP5 DUP3 DUP6 ADD PUSH2 0x27E2 JUMP JUMPDEST PUSH1 0xE0 DUP4 ADD MSTORE POP PUSH2 0x100 DUP3 ADD CALLDATALOAD PUSH8 0xFFFFFFFFFFFFFFFF DUP2 GT ISZERO PUSH2 0x2212 JUMPI PUSH1 0x0 DUP1 REVERT JUMPDEST PUSH2 0x221E DUP5 DUP3 DUP6 ADD PUSH2 0x1C7D JUMP JUMPDEST PUSH2 0x100 DUP4 ADD MSTORE POP PUSH2 0x120 DUP3 ADD CALLDATALOAD PUSH8 0xFFFFFFFFFFFFFFFF DUP2 GT ISZERO PUSH2 0x2240 JUMPI PUSH1 0x0 DUP1 REVERT JUMPDEST PUSH2 0x224C DUP5 DUP3 DUP6 ADD PUSH2 0x1C7D JUMP JUMPDEST PUSH2 0x120 DUP4 ADD MSTORE POP PUSH2 0x140 PUSH2 0x2262 DUP5 DUP3 DUP6 ADD PUSH2 0x1DA3 JUMP JUMPDEST PUSH2 0x140 DUP4 ADD MSTORE POP PUSH2 0x160 DUP3 ADD CALLDATALOAD PUSH8 0xFFFFFFFFFFFFFFFF DUP2 GT ISZERO PUSH2 0x2284 JUMPI PUSH1 0x0 DUP1 REVERT JUMPDEST PUSH2 0x2290 DUP5 DUP3 DUP6 ADD PUSH2 0x1C7D JUMP JUMPDEST PUSH2 0x160 DUP4 ADD MSTORE POP PUSH2 0x180 PUSH2 0x22A6 DUP5 DUP3 DUP6 ADD PUSH2 0x265A JUMP JUMPDEST PUSH2 0x180 DUP4 ADD MSTORE POP PUSH2 0x1C0 PUSH2 0x22BC DUP5 DUP3 DUP6 ADD PUSH2 0x1DF7 JUMP JUMPDEST PUSH2 0x1A0 DUP4 ADD MSTORE POP SWAP3 SWAP2 POP POP JUMP JUMPDEST PUSH1 0x0 PUSH1 0x40 DUP3 DUP5 SUB SLT ISZERO PUSH2 0x22DB JUMPI PUSH1 0x0 DUP1 REVERT JUMPDEST PUSH2 0x22E5 PUSH1 0x40 PUSH2 0x36FA JUMP JUMPDEST SWAP1 POP PUSH1 0x0 PUSH2 0x22F5 DUP5 DUP3 DUP6 ADD PUSH2 0x1C14 JUMP JUMPDEST PUSH1 0x0 DUP4 ADD MSTORE POP PUSH1 0x20 PUSH2 0x2309 DUP5 DUP3 DUP6 ADD PUSH2 0x27F7 JUMP JUMPDEST PUSH1 0x20 DUP4 ADD MSTORE POP SWAP3 SWAP2 POP POP JUMP JUMPDEST PUSH1 0x0 PUSH1 0x40 DUP3 DUP5 SUB SLT ISZERO PUSH2 0x2327 JUMPI PUSH1 0x0 DUP1 REVERT JUMPDEST PUSH2 0x2331 PUSH1 0x40 PUSH2 0x36FA JUMP JUMPDEST SWAP1 POP PUSH1 0x0 DUP3 ADD CALLDATALOAD PUSH8 0xFFFFFFFFFFFFFFFF DUP2 GT ISZERO PUSH2 0x234D JUMPI PUSH1 0x0 DUP1 REVERT JUMPDEST PUSH2 0x2359 DUP5 DUP3 DUP6 ADD PUSH2 0x1E21 JUMP JUMPDEST PUSH1 0x0 DUP4 ADD MSTORE POP PUSH1 0x20 PUSH2 0x236D DUP5 DUP3 DUP6 ADD PUSH2 0x1C14 JUMP JUMPDEST PUSH1 0x20 DUP4 ADD MSTORE POP SWAP3 SWAP2 POP POP JUMP JUMPDEST PUSH1 0x0 PUSH2 0x180 DUP3 DUP5 SUB SLT ISZERO PUSH2 0x238C JUMPI PUSH1 0x0 DUP1 REVERT JUMPDEST PUSH2 0x2397 PUSH2 0x160 PUSH2 0x36FA JUMP JUMPDEST SWAP1 POP PUSH1 0x0 PUSH2 0x23A7 DUP5 DUP3 DUP6 ADD PUSH2 0x27E2 JUMP JUMPDEST PUSH1 0x0 DUP4 ADD MSTORE POP PUSH1 0x20 PUSH2 0x23BB DUP5 DUP3 DUP6 ADD PUSH2 0x265A JUMP JUMPDEST PUSH1 0x20 DUP4 ADD MSTORE POP PUSH1 0x60 PUSH2 0x23CF DUP5 DUP3 DUP6 ADD PUSH2 0x27E2 JUMP JUMPDEST PUSH1 0x40 DUP4 ADD MSTORE POP PUSH1 0x80 DUP3 ADD CALLDATALOAD PUSH8 0xFFFFFFFFFFFFFFFF DUP2 GT ISZERO PUSH2 0x23EF JUMPI PUSH1 0x0 DUP1 REVERT JUMPDEST PUSH2 0x23FB DUP5 DUP3 DUP6 ADD PUSH2 0x1E4B JUMP JUMPDEST PUSH1 0x60 DUP4 ADD MSTORE POP PUSH1 0xA0 PUSH2 0x240F DUP5 DUP3 DUP6 ADD PUSH2 0x27CD JUMP JUMPDEST PUSH1 0x80 DUP4 ADD MSTORE POP PUSH1 0xC0 PUSH2 0x2423 DUP5 DUP3 DUP6 ADD PUSH2 0x1E0C JUMP JUMPDEST PUSH1 0xA0 DUP4 ADD MSTORE POP PUSH1 0xE0 PUSH2 0x2437 DUP5 DUP3 DUP6 ADD PUSH2 0x27CD JUMP JUMPDEST PUSH1 0xC0 DUP4 ADD MSTORE POP PUSH2 0x100 PUSH2 0x244C DUP5 DUP3 DUP6 ADD PUSH2 0x27F7 JUMP JUMPDEST PUSH1 0xE0 DUP4 ADD MSTORE POP PUSH2 0x120 DUP3 ADD CALLDATALOAD PUSH8 0xFFFFFFFFFFFFFFFF DUP2 GT ISZERO PUSH2 0x246D JUMPI PUSH1 0x0 DUP1 REVERT JUMPDEST PUSH2 0x2479 DUP5 DUP3 DUP6 ADD PUSH2 0x1CFB JUMP JUMPDEST PUSH2 0x100 DUP4 ADD MSTORE POP PUSH2 0x140 DUP3 ADD CALLDATALOAD PUSH8 0xFFFFFFFFFFFFFFFF DUP2 GT ISZERO PUSH2 0x249B JUMPI PUSH1 0x0 DUP1 REVERT JUMPDEST PUSH2 0x24A7 DUP5 DUP3 DUP6 ADD PUSH2 0x1D25 JUMP JUMPDEST PUSH2 0x120 DUP4 ADD MSTORE POP PUSH2 0x160 DUP3 ADD CALLDATALOAD PUSH8 0xFFFFFFFFFFFFFFFF DUP2 GT ISZERO PUSH2 0x24C9 JUMPI PUSH1 0x0 DUP1 REVERT JUMPDEST PUSH2 0x24D5 DUP5 DUP3 DUP6 ADD PUSH2 0x1CA7 JUMP JUMPDEST PUSH2 0x140 DUP4 ADD MSTORE POP SWAP3 SWAP2 POP POP JUMP JUMPDEST PUSH1 0x0 PUSH1 0xE0 DUP3 DUP5 SUB SLT ISZERO PUSH2 0x24F4 JUMPI PUSH1 0x0 DUP1 REVERT JUMPDEST PUSH2 0x24FE PUSH1 0xE0 PUSH2 0x36FA JUMP JUMPDEST SWAP1 POP PUSH1 0x0 PUSH2 0x250E DUP5 DUP3 DUP6 ADD PUSH2 0x1DE2 JUMP JUMPDEST PUSH1 0x0 DUP4 ADD MSTORE POP PUSH1 0x20 PUSH2 0x2522 DUP5 DUP3 DUP6 ADD PUSH2 0x1DE2 JUMP JUMPDEST PUSH1 0x20 DUP4 ADD MSTORE POP PUSH1 0x40 PUSH2 0x2536 DUP5 DUP3 DUP6 ADD PUSH2 0x1C14 JUMP JUMPDEST PUSH1 0x40 DUP4 ADD MSTORE POP PUSH1 0x60 PUSH2 0x254A DUP5 DUP3 DUP6 ADD PUSH2 0x27E2 JUMP JUMPDEST PUSH1 0x60 DUP4 ADD MSTORE POP PUSH1 0x80 PUSH2 0x255E DUP5 DUP3 DUP6 ADD PUSH2 0x27CD JUMP JUMPDEST PUSH1 0x80 DUP4 ADD MSTORE POP PUSH1 0xA0 PUSH2 0x2572 DUP5 DUP3 DUP6 ADD PUSH2 0x27CD JUMP JUMPDEST PUSH1 0xA0 DUP4 ADD MSTORE POP PUSH1 0xC0 PUSH2 0x2586 DUP5 DUP3 DUP6 ADD PUSH2 0x27CD JUMP JUMPDEST PUSH1 0xC0 DUP4 ADD MSTORE POP SWAP3 SWAP2 POP POP JUMP JUMPDEST PUSH1 0x0 PUSH2 0x140 DUP3 DUP5 SUB SLT ISZERO PUSH2 0x25A5 JUMPI PUSH1 0x0 DUP1 REVERT JUMPDEST PUSH2 0x25B0 PUSH2 0x100 PUSH2 0x36FA JUMP JUMPDEST SWAP1 POP PUSH1 0x0 PUSH2 0x25C0 DUP5 DUP3 DUP6 ADD PUSH2 0x27E2 JUMP JUMPDEST PUSH1 0x0 DUP4 ADD MSTORE POP PUSH1 0x20 PUSH2 0x25D4 DUP5 DUP3 DUP6 ADD PUSH2 0x22C9 JUMP JUMPDEST PUSH1 0x20 DUP4 ADD MSTORE POP PUSH1 0x60 PUSH2 0x25E8 DUP5 DUP3 DUP6 ADD PUSH2 0x27E2 JUMP JUMPDEST PUSH1 0x40 DUP4 ADD MSTORE POP PUSH1 0x80 PUSH2 0x25FC DUP5 DUP3 DUP6 ADD PUSH2 0x1C14 JUMP JUMPDEST PUSH1 0x60 DUP4 ADD MSTORE POP PUSH1 0xA0 PUSH2 0x2610 DUP5 DUP3 DUP6 ADD PUSH2 0x27CD JUMP JUMPDEST PUSH1 0x80 DUP4 ADD MSTORE POP PUSH1 0xC0 PUSH2 0x2624 DUP5 DUP3 DUP6 ADD PUSH2 0x265A JUMP JUMPDEST PUSH1 0xA0 DUP4 ADD MSTORE POP PUSH2 0x100 PUSH2 0x2639 DUP5 DUP3 DUP6 ADD PUSH2 0x1C14 JUMP JUMPDEST PUSH1 0xC0 DUP4 ADD MSTORE POP PUSH2 0x120 PUSH2 0x264E DUP5 DUP3 DUP6 ADD PUSH2 0x1C14 JUMP JUMPDEST PUSH1 0xE0 DUP4 ADD MSTORE POP SWAP3 SWAP2 POP POP JUMP JUMPDEST PUSH1 0x0 PUSH1 0x40 DUP3 DUP5 SUB SLT ISZERO PUSH2 0x266C JUMPI PUSH1 0x0 DUP1 REVERT JUMPDEST PUSH2 0x2676 PUSH1 0x40 PUSH2 0x36FA JUMP JUMPDEST SWAP1 POP PUSH1 0x0 PUSH2 0x2686 DUP5 DUP3 DUP6 ADD PUSH2 0x280C JUMP JUMPDEST PUSH1 0x0 DUP4 ADD MSTORE POP PUSH1 0x20 PUSH2 0x269A DUP5 DUP3 DUP6 ADD PUSH2 0x1C14 JUMP JUMPDEST PUSH1 0x20 DUP4 ADD MSTORE POP SWAP3 SWAP2 POP POP JUMP JUMPDEST PUSH1 0x0 PUSH1 0x40 DUP3 DUP5 SUB SLT ISZERO PUSH2 0x26B8 JUMPI PUSH1 0x0 DUP1 REVERT JUMPDEST PUSH2 0x26C2 PUSH1 0x40 PUSH2 0x36FA JUMP JUMPDEST SWAP1 POP PUSH1 0x0 PUSH2 0x26D2 DUP5 DUP3 DUP6 ADD PUSH2 0x27CD JUMP JUMPDEST PUSH1 0x0 DUP4 ADD MSTORE POP PUSH1 0x20 PUSH2 0x26E6 DUP5 DUP3 DUP6 ADD PUSH2 0x27E2 JUMP JUMPDEST PUSH1 0x20 DUP4 ADD MSTORE POP SWAP3 SWAP2 POP POP JUMP JUMPDEST PUSH1 0x0 PUSH1 0x40 DUP3 DUP5 SUB SLT ISZERO PUSH2 0x2704 JUMPI PUSH1 0x0 DUP1 REVERT JUMPDEST PUSH2 0x270E PUSH1 0x40 PUSH2 0x36FA JUMP JUMPDEST SWAP1 POP PUSH1 0x0 PUSH2 0x271E DUP5 DUP3 DUP6 ADD PUSH2 0x1C14 JUMP JUMPDEST PUSH1 0x0 DUP4 ADD MSTORE POP PUSH1 0x20 DUP3 ADD CALLDATALOAD PUSH8 0xFFFFFFFFFFFFFFFF DUP2 GT ISZERO PUSH2 0x273E JUMPI PUSH1 0x0 DUP1 REVERT JUMPDEST PUSH2 0x274A DUP5 DUP3 DUP6 ADD PUSH2 0x1E4B JUMP JUMPDEST PUSH1 0x20 DUP4 ADD MSTORE POP SWAP3 SWAP2 POP POP JUMP JUMPDEST PUSH1 0x0 PUSH2 0x100 DUP3 DUP5 SUB SLT ISZERO PUSH2 0x2769 JUMPI PUSH1 0x0 DUP1 REVERT JUMPDEST PUSH2 0x2773 PUSH1 0x40 PUSH2 0x36FA JUMP JUMPDEST SWAP1 POP PUSH1 0x0 PUSH2 0x2783 DUP5 DUP3 DUP6 ADD PUSH2 0x1C14 JUMP JUMPDEST PUSH1 0x0 DUP4 ADD MSTORE POP PUSH1 0x20 PUSH2 0x2797 DUP5 DUP3 DUP6 ADD PUSH2 0x24E2 JUMP JUMPDEST PUSH1 0x20 DUP4 ADD MSTORE POP SWAP3 SWAP2 POP POP JUMP JUMPDEST PUSH1 0x0 DUP2 CALLDATALOAD SWAP1 POP PUSH2 0x27B2 DUP2 PUSH2 0x3C4B JUMP JUMPDEST SWAP3 SWAP2 POP POP JUMP JUMPDEST PUSH1 0x0 DUP2 CALLDATALOAD SWAP1 POP PUSH2 0x27C7 DUP2 PUSH2 0x3C62 JUMP JUMPDEST SWAP3 SWAP2 POP POP JUMP JUMPDEST PUSH1 0x0 DUP2 CALLDATALOAD SWAP1 POP PUSH2 0x27DC DUP2 PUSH2 0x3C79 JUMP JUMPDEST SWAP3 SWAP2 POP POP JUMP JUMPDEST PUSH1 0x0 DUP2 CALLDATALOAD SWAP1 POP PUSH2 0x27F1 DUP2 PUSH2 0x3C90 JUMP JUMPDEST SWAP3 SWAP2 POP POP JUMP JUMPDEST PUSH1 0x0 DUP2 CALLDATALOAD SWAP1 POP PUSH2 0x2806 DUP2 PUSH2 0x3CA7 JUMP JUMPDEST SWAP3 SWAP2 POP POP JUMP JUMPDEST PUSH1 0x0 DUP2 CALLDATALOAD SWAP1 POP PUSH2 0x281B DUP2 PUSH2 0x3CBE JUMP JUMPDEST SWAP3 SWAP2 POP POP JUMP JUMPDEST PUSH1 0x0 PUSH1 0x20 DUP3 DUP5 SUB SLT ISZERO PUSH2 0x2833 JUMPI PUSH1 0x0 DUP1 REVERT JUMPDEST PUSH1 0x0 PUSH2 0x2841 DUP5 DUP3 DUP6 ADD PUSH2 0x1C14 JUMP JUMPDEST SWAP2 POP POP SWAP3 SWAP2 POP POP JUMP JUMPDEST PUSH1 0x0 PUSH1 0x20 DUP3 DUP5 SUB SLT ISZERO PUSH2 0x285C JUMPI PUSH1 0x0 DUP1 REVERT JUMPDEST PUSH1 0x0 DUP3 ADD CALLDATALOAD PUSH8 0xFFFFFFFFFFFFFFFF DUP2 GT ISZERO PUSH2 0x2876 JUMPI PUSH1 0x0 DUP1 REVERT JUMPDEST PUSH2 0x2882 DUP5 DUP3 DUP6 ADD PUSH2 0x1C29 JUMP JUMPDEST SWAP2 POP POP SWAP3 SWAP2 POP POP JUMP JUMPDEST PUSH1 0x0 PUSH1 0x20 DUP3 DUP5 SUB SLT ISZERO PUSH2 0x289D JUMPI PUSH1 0x0 DUP1 REVERT JUMPDEST PUSH1 0x0 DUP3 ADD CALLDATALOAD PUSH8 0xFFFFFFFFFFFFFFFF DUP2 GT ISZERO PUSH2 0x28B7 JUMPI PUSH1 0x0 DUP1 REVERT JUMPDEST PUSH2 0x28C3 DUP5 DUP3 DUP6 ADD PUSH2 0x1C53 JUMP JUMPDEST SWAP2 POP POP SWAP3 SWAP2 POP POP JUMP JUMPDEST PUSH1 0x0 PUSH1 0x20 DUP3 DUP5 SUB SLT ISZERO PUSH2 0x28DE JUMPI PUSH1 0x0 DUP1 REVERT JUMPDEST PUSH1 0x0 DUP3 ADD CALLDATALOAD PUSH8 0xFFFFFFFFFFFFFFFF DUP2 GT ISZERO PUSH2 0x28F8 JUMPI PUSH1 0x0 DUP1 REVERT JUMPDEST PUSH2 0x2904 DUP5 DUP3 DUP6 ADD PUSH2 0x1C7D JUMP JUMPDEST SWAP2 POP POP SWAP3 SWAP2 POP POP JUMP JUMPDEST PUSH1 0x0 PUSH1 0x20 DUP3 DUP5 SUB SLT ISZERO PUSH2 0x291F JUMPI PUSH1 0x0 DUP1 REVERT JUMPDEST PUSH1 0x0 DUP3 ADD CALLDATALOAD PUSH8 0xFFFFFFFFFFFFFFFF DUP2 GT ISZERO PUSH2 0x2939 JUMPI PUSH1 0x0 DUP1 REVERT JUMPDEST PUSH2 0x2945 DUP5 DUP3 DUP6 ADD PUSH2 0x1CA7 JUMP JUMPDEST SWAP2 POP POP SWAP3 SWAP2 POP POP JUMP JUMPDEST PUSH1 0x0 PUSH1 0x20 DUP3 DUP5 SUB SLT ISZERO PUSH2 0x2960 JUMPI PUSH1 0x0 DUP1 REVERT JUMPDEST PUSH1 0x0 DUP3 ADD CALLDATALOAD PUSH8 0xFFFFFFFFFFFFFFFF DUP2 GT ISZERO PUSH2 0x297A JUMPI PUSH1 0x0 DUP1 REVERT JUMPDEST PUSH2 0x2986 DUP5 DUP3 DUP6 ADD PUSH2 0x1CD1 JUMP JUMPDEST SWAP2 POP POP SWAP3 SWAP2 POP POP JUMP JUMPDEST PUSH1 0x0 PUSH1 0x20 DUP3 DUP5 SUB SLT ISZERO PUSH2 0x29A1 JUMPI PUSH1 0x0 DUP1 REVERT JUMPDEST PUSH1 0x0 DUP3 ADD CALLDATALOAD PUSH8 0xFFFFFFFFFFFFFFFF DUP2 GT ISZERO PUSH2 0x29BB JUMPI PUSH1 0x0 DUP1 REVERT JUMPDEST PUSH2 0x29C7 DUP5 DUP3 DUP6 ADD PUSH2 0x1CFB JUMP JUMPDEST SWAP2 POP POP SWAP3 SWAP2 POP POP JUMP JUMPDEST PUSH1 0x0 PUSH1 0x20 DUP3 DUP5 SUB SLT ISZERO PUSH2 0x29E2 JUMPI PUSH1 0x0 DUP1 REVERT JUMPDEST PUSH1 0x0 DUP3 ADD CALLDATALOAD PUSH8 0xFFFFFFFFFFFFFFFF DUP2 GT ISZERO PUSH2 0x29FC JUMPI PUSH1 0x0 DUP1 REVERT JUMPDEST PUSH2 0x2A08 DUP5 DUP3 DUP6 ADD PUSH2 0x1D25 JUMP JUMPDEST SWAP2 POP POP SWAP3 SWAP2 POP POP JUMP JUMPDEST PUSH1 0x0 PUSH1 0x20 DUP3 DUP5 SUB SLT ISZERO PUSH2 0x2A23 JUMPI PUSH1 0x0 DUP1 REVERT JUMPDEST PUSH1 0x0 DUP3 ADD CALLDATALOAD PUSH8 0xFFFFFFFFFFFFFFFF DUP2 GT ISZERO PUSH2 0x2A3D JUMPI PUSH1 0x0 DUP1 REVERT JUMPDEST PUSH2 0x2A49 DUP5 DUP3 DUP6 ADD PUSH2 0x1D4F JUMP JUMPDEST SWAP2 POP POP SWAP3 SWAP2 POP POP JUMP JUMPDEST PUSH1 0x0 PUSH1 0x20 DUP3 DUP5 SUB SLT ISZERO PUSH2 0x2A64 JUMPI PUSH1 0x0 DUP1 REVERT JUMPDEST PUSH1 0x0 PUSH2 0x2A72 DUP5 DUP3 DUP6 ADD PUSH2 0x1D79 JUMP JUMPDEST SWAP2 POP POP SWAP3 SWAP2 POP POP JUMP JUMPDEST PUSH1 0x0 PUSH1 0x20 DUP3 DUP5 SUB SLT ISZERO PUSH2 0x2A8D JUMPI PUSH1 0x0 DUP1 REVERT JUMPDEST PUSH1 0x0 PUSH2 0x2A9B DUP5 DUP3 DUP6 ADD PUSH2 0x1D8E JUMP JUMPDEST SWAP2 POP POP SWAP3 SWAP2 POP POP JUMP JUMPDEST PUSH1 0x0 PUSH1 0x20 DUP3 DUP5 SUB SLT ISZERO PUSH2 0x2AB6 JUMPI PUSH1 0x0 DUP1 REVERT JUMPDEST PUSH1 0x0 PUSH2 0x2AC4 DUP5 DUP3 DUP6 ADD PUSH2 0x1DA3 JUMP JUMPDEST SWAP2 POP POP SWAP3 SWAP2 POP POP JUMP JUMPDEST PUSH1 0x0 PUSH1 0x20 DUP3 DUP5 SUB SLT ISZERO PUSH2 0x2ADF JUMPI PUSH1 0x0 DUP1 REVERT JUMPDEST PUSH1 0x0 DUP3 ADD CALLDATALOAD PUSH8 0xFFFFFFFFFFFFFFFF DUP2 GT ISZERO PUSH2 0x2AF9 JUMPI PUSH1 0x0 DUP1 REVERT JUMPDEST PUSH2 0x2B05 DUP5 DUP3 DUP6 ADD PUSH2 0x1DB8 JUMP JUMPDEST SWAP2 POP POP SWAP3 SWAP2 POP POP JUMP JUMPDEST PUSH1 0x0 PUSH1 0x20 DUP3 DUP5 SUB SLT ISZERO PUSH2 0x2B20 JUMPI PUSH1 0x0 DUP1 REVERT JUMPDEST PUSH1 0x0 PUSH2 0x2B2E DUP5 DUP3 DUP6 ADD PUSH2 0x1DE2 JUMP JUMPDEST SWAP2 POP POP SWAP3 SWAP2 POP POP JUMP JUMPDEST PUSH1 0x0 PUSH1 0x20 DUP3 DUP5 SUB SLT ISZERO PUSH2 0x2B49 JUMPI PUSH1 0x0 DUP1 REVERT JUMPDEST PUSH1 0x0 PUSH2 0x2B57 DUP5 DUP3 DUP6 ADD PUSH2 0x1DF7 JUMP JUMPDEST SWAP2 POP POP SWAP3 SWAP2 POP POP JUMP JUMPDEST PUSH1 0x0 PUSH1 0x20 DUP3 DUP5 SUB SLT ISZERO PUSH2 0x2B72 JUMPI PUSH1 0x0 DUP1 REVERT JUMPDEST PUSH1 0x0 PUSH2 0x2B80 DUP5 DUP3 DUP6 ADD PUSH2 0x1E0C JUMP JUMPDEST SWAP2 POP POP SWAP3 SWAP2 POP POP JUMP JUMPDEST PUSH1 0x0 PUSH1 0x20 DUP3 DUP5 SUB SLT ISZERO PUSH2 0x2B9B JUMPI PUSH1 0x0 DUP1 REVERT JUMPDEST PUSH1 0x0 DUP3 ADD CALLDATALOAD PUSH8 0xFFFFFFFFFFFFFFFF DUP2 GT ISZERO PUSH2 0x2BB5 JUMPI PUSH1 0x0 DUP1 REVERT JUMPDEST PUSH2 0x2BC1 DUP5 DUP3 DUP6 ADD PUSH2 0x1E21 JUMP JUMPDEST SWAP2 POP POP SWAP3 SWAP2 POP POP JUMP JUMPDEST PUSH1 0x0 DUP1 PUSH1 0x0 DUP1 PUSH1 0x0 PUSH1 0xA0 DUP7 DUP9 SUB SLT ISZERO PUSH2 0x2BE2 JUMPI PUSH1 0x0 DUP1 REVERT JUMPDEST PUSH1 0x0 DUP7 ADD CALLDATALOAD PUSH8 0xFFFFFFFFFFFFFFFF DUP2 GT ISZERO PUSH2 0x2BFC JUMPI PUSH1 0x0 DUP1 REVERT JUMPDEST PUSH2 0x2C08 DUP9 DUP3 DUP10 ADD PUSH2 0x1E21 JUMP JUMPDEST SWAP6 POP POP PUSH1 0x20 PUSH2 0x2C19 DUP9 DUP3 DUP10 ADD PUSH2 0x1C14 JUMP JUMPDEST SWAP5 POP POP PUSH1 0x40 PUSH2 0x2C2A DUP9 DUP3 DUP10 ADD PUSH2 0x1E0C JUMP JUMPDEST SWAP4 POP POP PUSH1 0x60 PUSH2 0x2C3B DUP9 DUP3 DUP10 ADD PUSH2 0x1C14 JUMP JUMPDEST SWAP3 POP POP PUSH1 0x80 DUP7 ADD CALLDATALOAD PUSH8 0xFFFFFFFFFFFFFFFF DUP2 GT ISZERO PUSH2 0x2C58 JUMPI PUSH1 0x0 DUP1 REVERT JUMPDEST PUSH2 0x2C64 DUP9 DUP3 DUP10 ADD PUSH2 0x1DB8 JUMP JUMPDEST SWAP2 POP POP SWAP3 SWAP6 POP SWAP3 SWAP6 SWAP1 SWAP4 POP JUMP JUMPDEST PUSH1 0x0 PUSH1 0x20 DUP3 DUP5 SUB SLT ISZERO PUSH2 0x2C83 JUMPI PUSH1 0x0 DUP1 REVERT JUMPDEST PUSH1 0x0 DUP3 ADD CALLDATALOAD PUSH8 0xFFFFFFFFFFFFFFFF DUP2 GT ISZERO PUSH2 0x2C9D JUMPI PUSH1 0x0 DUP1 REVERT JUMPDEST PUSH2 0x2CA9 DUP5 DUP3 DUP6 ADD PUSH2 0x1E4B JUMP JUMPDEST SWAP2 POP POP SWAP3 SWAP2 POP POP JUMP JUMPDEST PUSH1 0x0 PUSH1 0x20 DUP3 DUP5 SUB SLT ISZERO PUSH2 0x2CC4 JUMPI PUSH1 0x0 DUP1 REVERT JUMPDEST PUSH1 0x0 DUP3 ADD CALLDATALOAD PUSH8 0xFFFFFFFFFFFFFFFF DUP2 GT ISZERO PUSH2 0x2CDE JUMPI PUSH1 0x0 DUP1 REVERT JUMPDEST PUSH2 0x2CEA DUP5 DUP3 DUP6 ADD PUSH2 0x2137 JUMP JUMPDEST SWAP2 POP POP SWAP3 SWAP2 POP POP JUMP JUMPDEST PUSH1 0x0 PUSH1 0x40 DUP3 DUP5 SUB SLT ISZERO PUSH2 0x2D05 JUMPI PUSH1 0x0 DUP1 REVERT JUMPDEST PUSH1 0x0 PUSH2 0x2D13 DUP5 DUP3 DUP6 ADD PUSH2 0x22C9 JUMP JUMPDEST SWAP2 POP POP SWAP3 SWAP2 POP POP JUMP JUMPDEST PUSH1 0x0 PUSH1 0x20 DUP3 DUP5 SUB SLT ISZERO PUSH2 0x2D2E JUMPI PUSH1 0x0 DUP1 REVERT JUMPDEST PUSH1 0x0 DUP3 ADD CALLDATALOAD PUSH8 0xFFFFFFFFFFFFFFFF DUP2 GT ISZERO PUSH2 0x2D48 JUMPI PUSH1 0x0 DUP1 REVERT JUMPDEST PUSH2 0x2D54 DUP5 DUP3 DUP6 ADD PUSH2 0x2315 JUMP JUMPDEST SWAP2 POP POP SWAP3 SWAP2 POP POP JUMP JUMPDEST PUSH1 0x0 PUSH1 0x20 DUP3 DUP5 SUB SLT ISZERO PUSH2 0x2D6F JUMPI PUSH1 0x0 DUP1 REVERT JUMPDEST PUSH1 0x0 DUP3 ADD CALLDATALOAD PUSH8 0xFFFFFFFFFFFFFFFF DUP2 GT ISZERO PUSH2 0x2D89 JUMPI PUSH1 0x0 DUP1 REVERT JUMPDEST PUSH2 0x2D95 DUP5 DUP3 DUP6 ADD PUSH2 0x2379 JUMP JUMPDEST SWAP2 POP POP SWAP3 SWAP2 POP POP JUMP JUMPDEST PUSH1 0x0 PUSH1 0xE0 DUP3 DUP5 SUB SLT ISZERO PUSH2 0x2DB0 JUMPI PUSH1 0x0 DUP1 REVERT JUMPDEST PUSH1 0x0 PUSH2 0x2DBE DUP5 DUP3 DUP6 ADD PUSH2 0x24E2 JUMP JUMPDEST SWAP2 POP POP SWAP3 SWAP2 POP POP JUMP JUMPDEST PUSH1 0x0 PUSH2 0x140 DUP3 DUP5 SUB SLT ISZERO PUSH2 0x2DDA JUMPI PUSH1 0x0 DUP1 REVERT JUMPDEST PUSH1 0x0 PUSH2 0x2DE8 DUP5 DUP3 DUP6 ADD PUSH2 0x2592 JUMP JUMPDEST SWAP2 POP POP SWAP3 SWAP2 POP POP JUMP JUMPDEST PUSH1 0x0 PUSH1 0x40 DUP3 DUP5 SUB SLT ISZERO PUSH2 0x2E03 JUMPI PUSH1 0x0 DUP1 REVERT JUMPDEST PUSH1 0x0 PUSH2 0x2E11 DUP5 DUP3 DUP6 ADD PUSH2 0x265A JUMP JUMPDEST SWAP2 POP POP SWAP3 SWAP2 POP POP JUMP JUMPDEST PUSH1 0x0 PUSH1 0x40 DUP3 DUP5 SUB SLT ISZERO PUSH2 0x2E2C JUMPI PUSH1 0x0 DUP1 REVERT JUMPDEST PUSH1 0x0 PUSH2 0x2E3A DUP5 DUP3 DUP6 ADD PUSH2 0x26A6 JUMP JUMPDEST SWAP2 POP POP SWAP3 SWAP2 POP POP JUMP JUMPDEST PUSH1 0x0 PUSH1 0x20 DUP3 DUP5 SUB SLT ISZERO PUSH2 0x2E55 JUMPI PUSH1 0x0 DUP1 REVERT JUMPDEST PUSH1 0x0 DUP3 ADD CALLDATALOAD PUSH8 0xFFFFFFFFFFFFFFFF DUP2 GT ISZERO PUSH2 0x2E6F JUMPI PUSH1 0x0 DUP1 REVERT JUMPDEST PUSH2 0x2E7B DUP5 DUP3 DUP6 ADD PUSH2 0x26F2 JUMP JUMPDEST SWAP2 POP POP SWAP3 SWAP2 POP POP JUMP JUMPDEST PUSH1 0x0 PUSH2 0x100 DUP3 DUP5 SUB SLT ISZERO PUSH2 0x2E97 JUMPI PUSH1 0x0 DUP1 REVERT JUMPDEST PUSH1 0x0 PUSH2 0x2EA5 DUP5 DUP3 DUP6 ADD PUSH2 0x2756 JUMP JUMPDEST SWAP2 POP POP SWAP3 SWAP2 POP POP JUMP JUMPDEST PUSH1 0x0 PUSH1 0x20 DUP3 DUP5 SUB SLT ISZERO PUSH2 0x2EC0 JUMPI PUSH1 0x0 DUP1 REVERT JUMPDEST PUSH1 0x0 PUSH2 0x2ECE DUP5 DUP3 DUP6 ADD PUSH2 0x27A3 JUMP JUMPDEST SWAP2 POP POP SWAP3 SWAP2 POP POP JUMP JUMPDEST PUSH1 0x0 PUSH1 0x20 DUP3 DUP5 SUB SLT ISZERO PUSH2 0x2EE9 JUMPI PUSH1 0x0 DUP1 REVERT JUMPDEST PUSH1 0x0 PUSH2 0x2EF7 DUP5 DUP3 DUP6 ADD PUSH2 0x27CD JUMP JUMPDEST SWAP2 POP POP SWAP3 SWAP2 POP POP JUMP JUMPDEST PUSH1 0x0 PUSH1 0x20 DUP3 DUP5 SUB SLT ISZERO PUSH2 0x2F12 JUMPI PUSH1 0x0 DUP1 REVERT JUMPDEST PUSH1 0x0 PUSH2 0x2F20 DUP5 DUP3 DUP6 ADD PUSH2 0x27E2 JUMP JUMPDEST SWAP2 POP POP SWAP3 SWAP2 POP POP JUMP JUMPDEST PUSH1 0x0 PUSH1 0x20 DUP3 DUP5 SUB SLT ISZERO PUSH2 0x2F3B JUMPI PUSH1 0x0 DUP1 REVERT JUMPDEST PUSH1 0x0 PUSH2 0x2F49 DUP5 DUP3 DUP6 ADD PUSH2 0x27F7 JUMP JUMPDEST SWAP2 POP POP SWAP3 SWAP2 POP POP JUMP JUMPDEST PUSH1 0x0 PUSH1 0x20 DUP3 DUP5 SUB SLT ISZERO PUSH2 0x2F64 JUMPI PUSH1 0x0 DUP1 REVERT JUMPDEST PUSH1 0x0 PUSH2 0x2F72 DUP5 DUP3 DUP6 ADD PUSH2 0x280C JUMP JUMPDEST SWAP2 POP POP SWAP3 SWAP2 POP POP JUMP JUMPDEST PUSH2 0x2F8C PUSH2 0x2F87 DUP3 PUSH2 0x3928 JUMP JUMPDEST PUSH2 0x3A7A JUMP JUMPDEST DUP3 MSTORE POP POP JUMP JUMPDEST PUSH2 0x2FA3 PUSH2 0x2F9E DUP3 PUSH2 0x393A JUMP JUMPDEST PUSH2 0x3A8C JUMP JUMPDEST DUP3 MSTORE POP POP JUMP JUMPDEST PUSH2 0x2FBA PUSH2 0x2FB5 DUP3 PUSH2 0x3946 JUMP JUMPDEST PUSH2 0x3A9E JUMP JUMPDEST DUP3 MSTORE POP POP JUMP JUMPDEST PUSH2 0x2FD1 PUSH2 0x2FCC DUP3 PUSH2 0x3972 JUMP JUMPDEST PUSH2 0x3AA8 JUMP JUMPDEST DUP3 MSTORE POP POP JUMP JUMPDEST PUSH2 0x2FE8 PUSH2 0x2FE3 DUP3 PUSH2 0x399E JUMP JUMPDEST PUSH2 0x3AB2 JUMP JUMPDEST DUP3 MSTORE POP POP JUMP JUMPDEST PUSH1 0x0 PUSH2 0x2FF9 DUP3 PUSH2 0x38EB JUMP JUMPDEST PUSH2 0x3003 DUP2 DUP6 PUSH2 0x3901 JUMP JUMPDEST SWAP4 POP PUSH2 0x3013 DUP2 DUP6 PUSH1 0x20 DUP7 ADD PUSH2 0x3A47 JUMP JUMPDEST PUSH2 0x301C DUP2 PUSH2 0x3B58 JUMP JUMPDEST DUP5 ADD SWAP2 POP POP SWAP3 SWAP2 POP POP JUMP JUMPDEST PUSH1 0x0 PUSH2 0x3032 DUP3 PUSH2 0x38EB JUMP JUMPDEST PUSH2 0x303C DUP2 DUP6 PUSH2 0x3912 JUMP JUMPDEST SWAP4 POP PUSH2 0x304C DUP2 DUP6 PUSH1 0x20 DUP7 ADD PUSH2 0x3A47 JUMP JUMPDEST DUP1 DUP5 ADD SWAP2 POP POP SWAP3 SWAP2 POP POP JUMP JUMPDEST PUSH2 0x3069 PUSH2 0x3064 DUP3 PUSH2 0x39A8 JUMP JUMPDEST PUSH2 0x3ABC JUMP JUMPDEST DUP3 MSTORE POP POP JUMP JUMPDEST PUSH2 0x3080 PUSH2 0x307B DUP3 PUSH2 0x39B5 JUMP JUMPDEST PUSH2 0x3ACE JUMP JUMPDEST DUP3 MSTORE POP POP JUMP JUMPDEST PUSH2 0x3097 PUSH2 0x3092 DUP3 PUSH2 0x39C2 JUMP JUMPDEST PUSH2 0x3AE0 JUMP JUMPDEST DUP3 MSTORE POP POP JUMP JUMPDEST PUSH1 0x0 PUSH2 0x30A8 DUP3 PUSH2 0x38F6 JUMP JUMPDEST PUSH2 0x30B2 DUP2 DUP6 PUSH2 0x391D JUMP JUMPDEST SWAP4 POP PUSH2 0x30C2 DUP2 DUP6 PUSH1 0x20 DUP7 ADD PUSH2 0x3A47 JUMP JUMPDEST DUP1 DUP5 ADD SWAP2 POP POP SWAP3 SWAP2 POP POP JUMP JUMPDEST PUSH2 0x30DF PUSH2 0x30DA DUP3 PUSH2 0x39DD JUMP JUMPDEST PUSH2 0x3B04 JUMP JUMPDEST DUP3 MSTORE POP POP JUMP JUMPDEST PUSH2 0x30F6 PUSH2 0x30F1 DUP3 PUSH2 0x39CF JUMP JUMPDEST PUSH2 0x3AF2 JUMP JUMPDEST DUP3 MSTORE POP POP JUMP JUMPDEST PUSH2 0x310D PUSH2 0x3108 DUP3 PUSH2 0x39FD JUMP JUMPDEST PUSH2 0x3B16 JUMP JUMPDEST DUP3 MSTORE POP POP JUMP JUMPDEST PUSH2 0x3124 PUSH2 0x311F DUP3 PUSH2 0x3A07 JUMP JUMPDEST PUSH2 0x3B20 JUMP JUMPDEST DUP3 MSTORE POP POP JUMP JUMPDEST PUSH2 0x313B PUSH2 0x3136 DUP3 PUSH2 0x3A17 JUMP JUMPDEST PUSH2 0x3B32 JUMP JUMPDEST DUP3 MSTORE POP POP JUMP JUMPDEST PUSH2 0x3152 PUSH2 0x314D DUP3 PUSH2 0x3A2B JUMP JUMPDEST PUSH2 0x3B44 JUMP JUMPDEST DUP3 MSTORE POP POP JUMP JUMPDEST PUSH1 0x0 PUSH2 0x3164 DUP3 DUP5 PUSH2 0x2F7B JUMP JUMPDEST PUSH1 0x14 DUP3 ADD SWAP2 POP DUP2 SWAP1 POP SWAP3 SWAP2 POP POP JUMP JUMPDEST PUSH1 0x0 PUSH2 0x317F DUP3 DUP5 PUSH2 0x2F92 JUMP JUMPDEST PUSH1 0x1 DUP3 ADD SWAP2 POP DUP2 SWAP1 POP SWAP3 SWAP2 POP POP JUMP JUMPDEST PUSH1 0x0 PUSH2 0x319A DUP3 DUP5 PUSH2 0x2FC0 JUMP JUMPDEST PUSH1 0x14 DUP3 ADD SWAP2 POP DUP2 SWAP1 POP SWAP3 SWAP2 POP POP JUMP JUMPDEST PUSH1 0x0 PUSH2 0x31B5 DUP3 DUP5 PUSH2 0x2FD7 JUMP JUMPDEST PUSH1 0x20 DUP3 ADD SWAP2 POP DUP2 SWAP1 POP SWAP3 SWAP2 POP POP JUMP JUMPDEST PUSH1 0x0 PUSH2 0x31D0 DUP3 DUP6 PUSH2 0x3027 JUMP JUMPDEST SWAP2 POP PUSH2 0x31DC DUP3 DUP5 PUSH2 0x2FA9 JUMP JUMPDEST PUSH1 0x1 DUP3 ADD SWAP2 POP DUP2 SWAP1 POP SWAP4 SWAP3 POP POP POP JUMP JUMPDEST PUSH1 0x0 PUSH2 0x31F8 DUP3 DUP6 PUSH2 0x3027 JUMP JUMPDEST SWAP2 POP PUSH2 0x3204 DUP3 DUP5 PUSH2 0x3027 JUMP JUMPDEST SWAP2 POP DUP2 SWAP1 POP SWAP4 SWAP3 POP POP POP JUMP JUMPDEST PUSH1 0x0 PUSH2 0x321C DUP3 DUP7 PUSH2 0x3027 JUMP JUMPDEST SWAP2 POP PUSH2 0x3228 DUP3 DUP6 PUSH2 0x3027 JUMP JUMPDEST SWAP2 POP PUSH2 0x3234 DUP3 DUP5 PUSH2 0x3027 JUMP JUMPDEST SWAP2 POP DUP2 SWAP1 POP SWAP5 SWAP4 POP POP POP POP JUMP JUMPDEST PUSH1 0x0 PUSH2 0x324D DUP3 DUP9 PUSH2 0x3027 JUMP JUMPDEST SWAP2 POP PUSH2 0x3259 DUP3 DUP8 PUSH2 0x3027 JUMP JUMPDEST SWAP2 POP PUSH2 0x3265 DUP3 DUP7 PUSH2 0x3027 JUMP JUMPDEST SWAP2 POP PUSH2 0x3271 DUP3 DUP6 PUSH2 0x3027 JUMP JUMPDEST SWAP2 POP PUSH2 0x327D DUP3 DUP5 PUSH2 0x3027 JUMP JUMPDEST SWAP2 POP DUP2 SWAP1 POP SWAP7 SWAP6 POP POP POP POP POP POP JUMP JUMPDEST PUSH1 0x0 PUSH2 0x3298 DUP3 DUP10 PUSH2 0x3027 JUMP JUMPDEST SWAP2 POP PUSH2 0x32A4 DUP3 DUP9 PUSH2 0x3027 JUMP JUMPDEST SWAP2 POP PUSH2 0x32B0 DUP3 DUP8 PUSH2 0x3027 JUMP JUMPDEST SWAP2 POP PUSH2 0x32BC DUP3 DUP7 PUSH2 0x3027 JUMP JUMPDEST SWAP2 POP PUSH2 0x32C8 DUP3 DUP6 PUSH2 0x3027 JUMP JUMPDEST SWAP2 POP PUSH2 0x32D4 DUP3 DUP5 PUSH2 0x3027 JUMP JUMPDEST SWAP2 POP DUP2 SWAP1 POP SWAP8 SWAP7 POP POP POP POP POP POP POP JUMP JUMPDEST PUSH1 0x0 PUSH2 0x32F0 DUP3 DUP11 PUSH2 0x3027 JUMP JUMPDEST SWAP2 POP PUSH2 0x32FC DUP3 DUP10 PUSH2 0x3027 JUMP JUMPDEST SWAP2 POP PUSH2 0x3308 DUP3 DUP9 PUSH2 0x3027 JUMP JUMPDEST SWAP2 POP PUSH2 0x3314 DUP3 DUP8 PUSH2 0x3027 JUMP JUMPDEST SWAP2 POP PUSH2 0x3320 DUP3 DUP7 PUSH2 0x3027 JUMP JUMPDEST SWAP2 POP PUSH2 0x332C DUP3 DUP6 PUSH2 0x3027 JUMP JUMPDEST SWAP2 POP PUSH2 0x3338 DUP3 DUP5 PUSH2 0x3027 JUMP JUMPDEST SWAP2 POP DUP2 SWAP1 POP SWAP9 SWAP8 POP POP POP POP POP POP POP POP JUMP JUMPDEST PUSH1 0x0 PUSH2 0x3355 DUP3 DUP12 PUSH2 0x3027 JUMP JUMPDEST SWAP2 POP PUSH2 0x3361 DUP3 DUP11 PUSH2 0x3027 JUMP JUMPDEST SWAP2 POP PUSH2 0x336D DUP3 DUP10 PUSH2 0x3027 JUMP JUMPDEST SWAP2 POP PUSH2 0x3379 DUP3 DUP9 PUSH2 0x3027 JUMP JUMPDEST SWAP2 POP PUSH2 0x3385 DUP3 DUP8 PUSH2 0x3027 JUMP JUMPDEST SWAP2 POP PUSH2 0x3391 DUP3 DUP7 PUSH2 0x3027 JUMP JUMPDEST SWAP2 POP PUSH2 0x339D DUP3 DUP6 PUSH2 0x3027 JUMP JUMPDEST SWAP2 POP PUSH2 0x33A9 DUP3 DUP5 PUSH2 0x2FA9 JUMP JUMPDEST PUSH1 0x1 DUP3 ADD SWAP2 POP DUP2 SWAP1 POP SWAP10 SWAP9 POP POP POP POP POP POP POP POP POP JUMP JUMPDEST PUSH1 0x0 PUSH2 0x33CB DUP3 DUP15 PUSH2 0x3027 JUMP JUMPDEST SWAP2 POP PUSH2 0x33D7 DUP3 DUP14 PUSH2 0x3027 JUMP JUMPDEST SWAP2 POP PUSH2 0x33E3 DUP3 DUP13 PUSH2 0x3027 JUMP JUMPDEST SWAP2 POP PUSH2 0x33EF DUP3 DUP12 PUSH2 0x3027 JUMP JUMPDEST SWAP2 POP PUSH2 0x33FB DUP3 DUP11 PUSH2 0x3027 JUMP JUMPDEST SWAP2 POP PUSH2 0x3407 DUP3 DUP10 PUSH2 0x3027 JUMP JUMPDEST SWAP2 POP PUSH2 0x3413 DUP3 DUP9 PUSH2 0x3027 JUMP JUMPDEST SWAP2 POP PUSH2 0x341F DUP3 DUP8 PUSH2 0x3027 JUMP JUMPDEST SWAP2 POP PUSH2 0x342B DUP3 DUP7 PUSH2 0x3027 JUMP JUMPDEST SWAP2 POP PUSH2 0x3437 DUP3 DUP6 PUSH2 0x3027 JUMP JUMPDEST SWAP2 POP PUSH2 0x3443 DUP3 DUP5 PUSH2 0x3027 JUMP JUMPDEST SWAP2 POP DUP2 SWAP1 POP SWAP13 SWAP12 POP POP POP POP POP POP POP POP POP POP POP POP JUMP JUMPDEST PUSH1 0x0 PUSH2 0x3464 DUP3 DUP16 PUSH2 0x3027 JUMP JUMPDEST SWAP2 POP PUSH2 0x3470 DUP3 DUP15 PUSH2 0x3027 JUMP JUMPDEST SWAP2 POP PUSH2 0x347C DUP3 DUP14 PUSH2 0x3027 JUMP JUMPDEST SWAP2 POP PUSH2 0x3488 DUP3 DUP13 PUSH2 0x3027 JUMP JUMPDEST SWAP2 POP PUSH2 0x3494 DUP3 DUP12 PUSH2 0x3027 JUMP JUMPDEST SWAP2 POP PUSH2 0x34A0 DUP3 DUP11 PUSH2 0x3027 JUMP JUMPDEST SWAP2 POP PUSH2 0x34AC DUP3 DUP10 PUSH2 0x3027 JUMP JUMPDEST SWAP2 POP PUSH2 0x34B8 DUP3 DUP9 PUSH2 0x3027 JUMP JUMPDEST SWAP2 POP PUSH2 0x34C4 DUP3 DUP8 PUSH2 0x3027 JUMP JUMPDEST SWAP2 POP PUSH2 0x34D0 DUP3 DUP7 PUSH2 0x3027 JUMP JUMPDEST SWAP2 POP PUSH2 0x34DC DUP3 DUP6 PUSH2 0x3027 JUMP JUMPDEST SWAP2 POP PUSH2 0x34E8 DUP3 DUP5 PUSH2 0x3027 JUMP JUMPDEST SWAP2 POP DUP2 SWAP1 POP SWAP14 SWAP13 POP POP POP POP POP POP POP POP POP POP POP POP POP JUMP JUMPDEST PUSH1 0x0 PUSH2 0x350A DUP3 DUP6 PUSH2 0x3027 JUMP JUMPDEST SWAP2 POP PUSH2 0x3516 DUP3 DUP5 PUSH2 0x306F JUMP JUMPDEST PUSH1 0x4 DUP3 ADD SWAP2 POP DUP2 SWAP1 POP SWAP4 SWAP3 POP POP POP JUMP JUMPDEST PUSH1 0x0 PUSH2 0x3532 DUP3 DUP5 PUSH2 0x3058 JUMP JUMPDEST PUSH1 0x2 DUP3 ADD SWAP2 POP DUP2 SWAP1 POP SWAP3 SWAP2 POP POP JUMP JUMPDEST PUSH1 0x0 PUSH2 0x354D DUP3 DUP5 PUSH2 0x306F JUMP JUMPDEST PUSH1 0x4 DUP3 ADD SWAP2 POP DUP2 SWAP1 POP SWAP3 SWAP2 POP POP JUMP JUMPDEST PUSH1 0x0 PUSH2 0x3568 DUP3 DUP5 PUSH2 0x3086 JUMP JUMPDEST PUSH1 0x8 DUP3 ADD SWAP2 POP DUP2 SWAP1 POP SWAP3 SWAP2 POP POP JUMP JUMPDEST PUSH1 0x0 PUSH2 0x3583 DUP3 DUP5 PUSH2 0x309D JUMP JUMPDEST SWAP2 POP DUP2 SWAP1 POP SWAP3 SWAP2 POP POP JUMP JUMPDEST PUSH1 0x0 PUSH2 0x359A DUP3 DUP6 PUSH2 0x309D JUMP JUMPDEST SWAP2 POP PUSH2 0x35A6 DUP3 DUP5 PUSH2 0x3027 JUMP JUMPDEST SWAP2 POP DUP2 SWAP1 POP SWAP4 SWAP3 POP POP POP JUMP JUMPDEST PUSH1 0x0 PUSH2 0x35BE DUP3 DUP5 PUSH2 0x30CE JUMP JUMPDEST PUSH1 0x14 DUP3 ADD SWAP2 POP DUP2 SWAP1 POP SWAP3 SWAP2 POP POP JUMP JUMPDEST PUSH1 0x0 PUSH2 0x35D9 DUP3 DUP5 PUSH2 0x30E5 JUMP JUMPDEST PUSH1 0x2 DUP3 ADD SWAP2 POP DUP2 SWAP1 POP SWAP3 SWAP2 POP POP JUMP JUMPDEST PUSH1 0x0 PUSH2 0x35F4 DUP3 DUP5 PUSH2 0x30FC JUMP JUMPDEST PUSH1 0x20 DUP3 ADD SWAP2 POP DUP2 SWAP1 POP SWAP3 SWAP2 POP POP JUMP JUMPDEST PUSH1 0x0 PUSH2 0x360F DUP3 DUP5 PUSH2 0x3113 JUMP JUMPDEST PUSH1 0x4 DUP3 ADD SWAP2 POP DUP2 SWAP1 POP SWAP3 SWAP2 POP POP JUMP JUMPDEST PUSH1 0x0 PUSH2 0x362A DUP3 DUP5 PUSH2 0x312A JUMP JUMPDEST PUSH1 0x8 DUP3 ADD SWAP2 POP DUP2 SWAP1 POP SWAP3 SWAP2 POP POP JUMP JUMPDEST PUSH1 0x0 PUSH2 0x3645 DUP3 DUP5 PUSH2 0x3141 JUMP JUMPDEST PUSH1 0x1 DUP3 ADD SWAP2 POP DUP2 SWAP1 POP SWAP3 SWAP2 POP POP JUMP JUMPDEST PUSH1 0x0 PUSH2 0x3660 DUP3 DUP6 PUSH2 0x3141 JUMP JUMPDEST PUSH1 0x1 DUP3 ADD SWAP2 POP PUSH2 0x3670 DUP3 DUP5 PUSH2 0x30E5 JUMP JUMPDEST PUSH1 0x2 DUP3 ADD SWAP2 POP DUP2 SWAP1 POP SWAP4 SWAP3 POP POP POP JUMP JUMPDEST PUSH1 0x0 PUSH2 0x368C DUP3 DUP6 PUSH2 0x3141 JUMP JUMPDEST PUSH1 0x1 DUP3 ADD SWAP2 POP PUSH2 0x369C DUP3 DUP5 PUSH2 0x3113 JUMP JUMPDEST PUSH1 0x4 DUP3 ADD SWAP2 POP DUP2 SWAP1 POP SWAP4 SWAP3 POP POP POP JUMP JUMPDEST PUSH1 0x0 PUSH2 0x36B8 DUP3 DUP6 PUSH2 0x3141 JUMP JUMPDEST PUSH1 0x1 DUP3 ADD SWAP2 POP PUSH2 0x36C8 DUP3 DUP5 PUSH2 0x312A JUMP JUMPDEST PUSH1 0x8 DUP3 ADD SWAP2 POP DUP2 SWAP1 POP SWAP4 SWAP3 POP POP POP JUMP JUMPDEST PUSH1 0x0 PUSH1 0x20 DUP3 ADD SWAP1 POP DUP2 DUP2 SUB PUSH1 0x0 DUP4 ADD MSTORE PUSH2 0x36F2 DUP2 DUP5 PUSH2 0x2FEE JUMP JUMPDEST SWAP1 POP SWAP3 SWAP2 POP POP JUMP JUMPDEST PUSH1 0x0 PUSH1 0x40 MLOAD SWAP1 POP DUP2 DUP2 ADD DUP2 DUP2 LT PUSH8 0xFFFFFFFFFFFFFFFF DUP3 GT OR ISZERO PUSH2 0x3721 JUMPI PUSH2 0x3720 PUSH2 0x3B56 JUMP JUMPDEST JUMPDEST DUP1 PUSH1 0x40 MSTORE POP SWAP2 SWAP1 POP JUMP JUMPDEST PUSH1 0x0 PUSH8 0xFFFFFFFFFFFFFFFF DUP3 GT ISZERO PUSH2 0x3746 JUMPI PUSH2 0x3745 PUSH2 0x3B56 JUMP JUMPDEST JUMPDEST PUSH1 0x20 DUP3 MUL SWAP1 POP PUSH1 0x20 DUP2 ADD SWAP1 POP SWAP2 SWAP1 POP JUMP JUMPDEST PUSH1 0x0 PUSH8 0xFFFFFFFFFFFFFFFF DUP3 GT ISZERO PUSH2 0x3772 JUMPI PUSH2 0x3771 PUSH2 0x3B56 JUMP JUMPDEST JUMPDEST PUSH1 0x20 DUP3 MUL SWAP1 POP PUSH1 0x20 DUP2 ADD SWAP1 POP SWAP2 SWAP1 POP JUMP JUMPDEST PUSH1 0x0 PUSH8 0xFFFFFFFFFFFFFFFF DUP3 GT ISZERO PUSH2 0x379E JUMPI PUSH2 0x379D PUSH2 0x3B56 JUMP JUMPDEST JUMPDEST PUSH1 0x20 DUP3 MUL SWAP1 POP PUSH1 0x20 DUP2 ADD SWAP1 POP SWAP2 SWAP1 POP JUMP JUMPDEST PUSH1 0x0 PUSH8 0xFFFFFFFFFFFFFFFF DUP3 GT ISZERO PUSH2 0x37CA JUMPI PUSH2 0x37C9 PUSH2 0x3B56 JUMP JUMPDEST JUMPDEST PUSH1 0x20 DUP3 MUL SWAP1 POP PUSH1 0x20 DUP2 ADD SWAP1 POP SWAP2 SWAP1 POP JUMP JUMPDEST PUSH1 0x0 PUSH8 0xFFFFFFFFFFFFFFFF DUP3 GT ISZERO PUSH2 0x37F6 JUMPI PUSH2 0x37F5 PUSH2 0x3B56 JUMP JUMPDEST JUMPDEST PUSH1 0x20 DUP3 MUL SWAP1 POP PUSH1 0x20 DUP2 ADD SWAP1 POP SWAP2 SWAP1 POP JUMP JUMPDEST PUSH1 0x0 PUSH8 0xFFFFFFFFFFFFFFFF DUP3 GT ISZERO PUSH2 0x3822 JUMPI PUSH2 0x3821 PUSH2 0x3B56 JUMP JUMPDEST JUMPDEST PUSH1 0x20 DUP3 MUL SWAP1 POP PUSH1 0x20 DUP2 ADD SWAP1 POP SWAP2 SWAP1 POP JUMP JUMPDEST PUSH1 0x0 PUSH8 0xFFFFFFFFFFFFFFFF DUP3 GT ISZERO PUSH2 0x384E JUMPI PUSH2 0x384D PUSH2 0x3B56 JUMP JUMPDEST JUMPDEST PUSH1 0x20 DUP3 MUL SWAP1 POP PUSH1 0x20 DUP2 ADD SWAP1 POP SWAP2 SWAP1 POP JUMP JUMPDEST PUSH1 0x0 PUSH8 0xFFFFFFFFFFFFFFFF DUP3 GT ISZERO PUSH2 0x387A JUMPI PUSH2 0x3879 PUSH2 0x3B56 JUMP JUMPDEST JUMPDEST PUSH1 0x20 DUP3 MUL SWAP1 POP PUSH1 0x20 DUP2 ADD SWAP1 POP SWAP2 SWAP1 POP JUMP JUMPDEST PUSH1 0x0 PUSH8 0xFFFFFFFFFFFFFFFF DUP3 GT ISZERO PUSH2 0x38A6 JUMPI PUSH2 0x38A5 PUSH2 0x3B56 JUMP JUMPDEST JUMPDEST PUSH1 0x1F NOT PUSH1 0x1F DUP4 ADD AND SWAP1 POP PUSH1 0x20 DUP2 ADD SWAP1 POP SWAP2 SWAP1 POP JUMP JUMPDEST PUSH1 0x0 PUSH8 0xFFFFFFFFFFFFFFFF DUP3 GT ISZERO PUSH2 0x38D6 JUMPI PUSH2 0x38D5 PUSH2 0x3B56 JUMP JUMPDEST JUMPDEST PUSH1 0x1F NOT PUSH1 0x1F DUP4 ADD AND SWAP1 POP PUSH1 0x20 DUP2 ADD SWAP1 POP SWAP2 SWAP1 POP JUMP JUMPDEST PUSH1 0x0 DUP2 MLOAD SWAP1 POP SWAP2 SWAP1 POP JUMP JUMPDEST PUSH1 0x0 DUP2 MLOAD SWAP1 POP SWAP2 SWAP1 POP JUMP JUMPDEST PUSH1 0x0 DUP3 DUP3 MSTORE PUSH1 0x20 DUP3 ADD SWAP1 POP SWAP3 SWAP2 POP POP JUMP JUMPDEST PUSH1 0x0 DUP2 SWAP1 POP SWAP3 SWAP2 POP POP JUMP JUMPDEST PUSH1 0x0 DUP2 SWAP1 POP SWAP3 SWAP2 POP POP JUMP JUMPDEST PUSH1 0x0 PUSH2 0x3933 DUP3 PUSH2 0x39DD JUMP JUMPDEST SWAP1 POP SWAP2 SWAP1 POP JUMP JUMPDEST PUSH1 0x0 DUP2 ISZERO ISZERO SWAP1 POP SWAP2 SWAP1 POP JUMP JUMPDEST PUSH1 0x0 PUSH32 0xFF00000000000000000000000000000000000000000000000000000000000000 DUP3 AND SWAP1 POP SWAP2 SWAP1 POP JUMP JUMPDEST PUSH1 0x0 PUSH32 0xFFFFFFFFFFFFFFFFFFFFFFFFFFFFFFFFFFFFFFFF000000000000000000000000 DUP3 AND SWAP1 POP SWAP2 SWAP1 POP JUMP JUMPDEST PUSH1 0x0 DUP2 SWAP1 POP SWAP2 SWAP1 POP JUMP JUMPDEST PUSH1 0x0 DUP2 PUSH1 0x1 SIGNEXTEND SWAP1 POP SWAP2 SWAP1 POP JUMP JUMPDEST PUSH1 0x0 DUP2 PUSH1 0x3 SIGNEXTEND SWAP1 POP SWAP2 SWAP1 POP JUMP JUMPDEST PUSH1 0x0 DUP2 PUSH1 0x7 SIGNEXTEND SWAP1 POP SWAP2 SWAP1 POP JUMP JUMPDEST PUSH1 0x0 PUSH2 0xFFFF DUP3 AND SWAP1 POP SWAP2 SWAP1 POP JUMP JUMPDEST PUSH1 0x0 PUSH20 0xFFFFFFFFFFFFFFFFFFFFFFFFFFFFFFFFFFFFFFFF DUP3 AND SWAP1 POP SWAP2 SWAP1 POP JUMP JUMPDEST PUSH1 0x0 DUP2 SWAP1 POP SWAP2 SWAP1 POP JUMP JUMPDEST PUSH1 0x0 PUSH4 0xFFFFFFFF DUP3 AND SWAP1 POP SWAP2 SWAP1 POP JUMP JUMPDEST PUSH1 0x0 PUSH8 0xFFFFFFFFFFFFFFFF DUP3 AND SWAP1 POP SWAP2 SWAP1 POP JUMP JUMPDEST PUSH1 0x0 PUSH1 0xFF DUP3 AND SWAP1 POP SWAP2 SWAP1 POP JUMP JUMPDEST DUP3 DUP2 DUP4 CALLDATACOPY PUSH1 0x0 DUP4 DUP4 ADD MSTORE POP POP POP JUMP JUMPDEST PUSH1 0x0 JUMPDEST DUP4 DUP2 LT ISZERO PUSH2 0x3A65 JUMPI DUP1 DUP3 ADD MLOAD DUP2 DUP5 ADD MSTORE PUSH1 0x20 DUP2 ADD SWAP1 POP PUSH2 0x3A4A JUMP JUMPDEST DUP4 DUP2 GT ISZERO PUSH2 0x3A74 JUMPI PUSH1 0x0 DUP5 DUP5 ADD MSTORE JUMPDEST POP POP POP POP JUMP JUMPDEST PUSH1 0x0 PUSH2 0x3A85 DUP3 PUSH2 0x3B04 JUMP JUMPDEST SWAP1 POP SWAP2 SWAP1 POP JUMP JUMPDEST PUSH1 0x0 PUSH2 0x3A97 DUP3 PUSH2 0x3B44 JUMP JUMPDEST SWAP1 POP SWAP2 SWAP1 POP JUMP JUMPDEST PUSH1 0x0 DUP2 SWAP1 POP SWAP2 SWAP1 POP JUMP JUMPDEST PUSH1 0x0 DUP2 SWAP1 POP SWAP2 SWAP1 POP JUMP JUMPDEST PUSH1 0x0 DUP2 SWAP1 POP SWAP2 SWAP1 POP JUMP JUMPDEST PUSH1 0x0 PUSH2 0x3AC7 DUP3 PUSH2 0x3B83 JUMP JUMPDEST SWAP1 POP SWAP2 SWAP1 POP JUMP JUMPDEST PUSH1 0x0 PUSH2 0x3AD9 DUP3 PUSH2 0x3B76 JUMP JUMPDEST SWAP1 POP SWAP2 SWAP1 POP JUMP JUMPDEST PUSH1 0x0 PUSH2 0x3AEB DUP3 PUSH2 0x3B69 JUMP JUMPDEST SWAP1 POP SWAP2 SWAP1 POP JUMP JUMPDEST PUSH1 0x0 PUSH2 0x3AFD DUP3 PUSH2 0x3B83 JUMP JUMPDEST SWAP1 POP SWAP2 SWAP1 POP JUMP JUMPDEST PUSH1 0x0 PUSH2 0x3B0F DUP3 PUSH2 0x3B9D JUMP JUMPDEST SWAP1 POP SWAP2 SWAP1 POP JUMP JUMPDEST PUSH1 0x0 DUP2 SWAP1 POP SWAP2 SWAP1 POP JUMP JUMPDEST PUSH1 0x0 PUSH2 0x3B2B DUP3 PUSH2 0x3B76 JUMP JUMPDEST SWAP1 POP SWAP2 SWAP1 POP JUMP JUMPDEST PUSH1 0x0 PUSH2 0x3B3D DUP3 PUSH2 0x3B69 JUMP JUMPDEST SWAP1 POP SWAP2 SWAP1 POP JUMP JUMPDEST PUSH1 0x0 PUSH2 0x3B4F DUP3 PUSH2 0x3B90 JUMP JUMPDEST SWAP1 POP SWAP2 SWAP1 POP JUMP JUMPDEST INVALID JUMPDEST PUSH1 0x0 PUSH1 0x1F NOT PUSH1 0x1F DUP4 ADD AND SWAP1 POP SWAP2 SWAP1 POP JUMP JUMPDEST PUSH1 0x0 DUP2 PUSH1 0xC0 SHL SWAP1 POP SWAP2 SWAP1 POP JUMP JUMPDEST PUSH1 0x0 DUP2 PUSH1 0xE0 SHL SWAP1 POP SWAP2 SWAP1 POP JUMP JUMPDEST PUSH1 0x0 DUP2 PUSH1 0xF0 SHL SWAP1 POP SWAP2 SWAP1 POP JUMP JUMPDEST PUSH1 0x0 DUP2 PUSH1 0xF8 SHL SWAP1 POP SWAP2 SWAP1 POP JUMP JUMPDEST PUSH1 0x0 DUP2 PUSH1 0x60 SHL SWAP1 POP SWAP2 SWAP1 POP JUMP JUMPDEST PUSH2 0x3BB3 DUP2 PUSH2 0x3928 JUMP JUMPDEST DUP2 EQ PUSH2 0x3BBE JUMPI PUSH1 0x0 DUP1 REVERT JUMPDEST POP JUMP JUMPDEST PUSH2 0x3BCA DUP2 PUSH2 0x393A JUMP JUMPDEST DUP2 EQ PUSH2 0x3BD5 JUMPI PUSH1 0x0 DUP1 REVERT JUMPDEST POP JUMP JUMPDEST PUSH2 0x3BE1 DUP2 PUSH2 0x3972 JUMP JUMPDEST DUP2 EQ PUSH2 0x3BEC JUMPI PUSH1 0x0 DUP1 REVERT JUMPDEST POP JUMP JUMPDEST PUSH2 0x3BF8 DUP2 PUSH2 0x399E JUMP JUMPDEST DUP2 EQ PUSH2 0x3C03 JUMPI PUSH1 0x0 DUP1 REVERT JUMPDEST POP JUMP JUMPDEST PUSH2 0x3C0F DUP2 PUSH2 0x39A8 JUMP JUMPDEST DUP2 EQ PUSH2 0x3C1A JUMPI PUSH1 0x0 DUP1 REVERT JUMPDEST POP JUMP JUMPDEST PUSH2 0x3C26 DUP2 PUSH2 0x39B5 JUMP JUMPDEST DUP2 EQ PUSH2 0x3C31 JUMPI PUSH1 0x0 DUP1 REVERT JUMPDEST POP JUMP JUMPDEST PUSH2 0x3C3D DUP2 PUSH2 0x39C2 JUMP JUMPDEST DUP2 EQ PUSH2 0x3C48 JUMPI PUSH1 0x0 DUP1 REVERT JUMPDEST POP JUMP JUMPDEST PUSH2 0x3C54 DUP2 PUSH2 0x39CF JUMP JUMPDEST DUP2 EQ PUSH2 0x3C5F JUMPI PUSH1 0x0 DUP1 REVERT JUMPDEST POP JUMP JUMPDEST PUSH2 0x3C6B DUP2 PUSH2 0x39DD JUMP JUMPDEST DUP2 EQ PUSH2 0x3C76 JUMPI PUSH1 0x0 DUP1 REVERT JUMPDEST POP JUMP JUMPDEST PUSH2 0x3C82 DUP2 PUSH2 0x39FD JUMP JUMPDEST DUP2 EQ PUSH2 0x3C8D JUMPI PUSH1 0x0 DUP1 REVERT JUMPDEST POP JUMP JUMPDEST PUSH2 0x3C99 DUP2 PUSH2 0x3A07 JUMP JUMPDEST DUP2 EQ PUSH2 0x3CA4 JUMPI PUSH1 0x0 DUP1 REVERT JUMPDEST POP JUMP JUMPDEST PUSH2 0x3CB0 DUP2 PUSH2 0x3A17 JUMP JUMPDEST DUP2 EQ PUSH2 0x3CBB JUMPI PUSH1 0x0 DUP1 REVERT JUMPDEST POP JUMP JUMPDEST PUSH2 0x3CC7 DUP2 PUSH2 0x3A2B JUMP JUMPDEST DUP2 EQ PUSH2 0x3CD2 JUMPI PUSH1 0x0 DUP1 REVERT JUMPDEST POP JUMP INVALID LOG2 PUSH5 0x6970667358 0x22 SLT KECCAK256 0xD SIGNEXTEND INVALID DUP8 0xDF 0xA9 0xE4 0xBF LOG4 0x22 0xBC NOT 0xE7 SWAP12 MSIZE SWAP13 ISZERO MOD SAR SMOD 0xD7 0xB5 LT 0xFB 0x27 0xB7 SLT 0xDA 0xED SWAP10 0xC2 DUP3 PUSH5 0x736F6C6343 STOP SMOD MOD STOP CALLER "
		},
		"gasEstimates": {
			"creation": {
				"codeDepositCost": "3125400",
				"executionCost": "3452",
				"totalCost": "3128852"
			},
			"external": {
				"flipArray(bytes)": "infinite",
				"serializeAddress(address)": "infinite",
				"serializeBool(bool)": "infinite",
				"serializeBytes20(bytes20)": "infinite",
				"serializeBytes32(bytes32)": "infinite",
				"serializeCCoinbaseCurrencyState((uint16,uint16,address,uint160[],int32[],int64[],int64,int64,int64,int64,int64,int64,int64,int64[],int64[],int64[],int64[],int64[],int64[],int64[],int32[]))": "infinite",
				"serializeCCrossChainExport((uint16,uint16,address,uint32,uint32,address,address,uint32,(address,uint64)[],(address,uint64)[],bytes32,(address,uint64)[],(uint8,address),int32))": "infinite",
				"serializeCCurrencyValueMap((address,uint64))": "infinite",
				"serializeCCurrencyValueMaps((address,uint64)[])": "infinite",
				"serializeCNodeData((string,address))": "infinite",
				"serializeCPBaaSNotarization((uint32,(uint8,address),uint32,(uint16,uint16,address,uint160[],int32[],int64[],int64,int64,int64,int64,int64,int64,int64,int64[],int64[],int64[],int64[],int64[],int64[],int64[],int32[]),uint256,int64,uint256,uint64,(address,(uint16,uint16,address,uint160[],int32[],int64[],int64,int64,int64,int64,int64,int64,int64,int64[],int64[],int64[],int64[],int64[],int64[],int64[],int32[]))[],(address,(int16,int16,address,uint32,uint256,uint256,uint256))[],(string,address)[]))": "infinite",
				"serializeCProofRoot((int16,int16,address,uint32,uint256,uint256,uint256))": "infinite",
				"serializeCReserveTransfer((uint32,(address,uint64),uint32,address,uint256,(uint8,address),address,address))": "infinite",
				"serializeCReserveTransfers((uint32,(address,uint64),uint32,address,uint256,(uint8,address),address,address)[])": "infinite",
				"serializeCTransferDestination((uint8,address))": "infinite",
				"serializeCUTXORef((uint256,uint32))": "infinite",
				"serializeCurrencyStates((address,(uint16,uint16,address,uint160[],int32[],int64[],int64,int64,int64,int64,int64,int64,int64,int64[],int64[],int64[],int64[],int64[],int64[],int64[],int32[])))": "infinite",
				"serializeCurrencyStatesArray((address,(uint16,uint16,address,uint160[],int32[],int64[],int64,int64,int64,int64,int64,int64,int64,int64[],int64[],int64[],int64[],int64[],int64[],int64[],int32[]))[])": "infinite",
				"serializeInt16(int16)": "infinite",
				"serializeInt32(int32)": "infinite",
				"serializeInt32Array(int32[])": "infinite",
				"serializeInt64(int64)": "infinite",
				"serializeInt64Array(int64[])": "infinite",
				"serializeNodes((string,address)[])": "infinite",
				"serializeProofRoots((address,(int16,int16,address,uint32,uint256,uint256,uint256)))": "infinite",
				"serializeProofRootsArray((address,(int16,int16,address,uint32,uint256,uint256,uint256))[])": "infinite",
				"serializeString(string)": "infinite",
				"serializeUint16(uint16)": "infinite",
				"serializeUint160Array(uint160[])": "infinite",
				"serializeUint256(uint256)": "infinite",
				"serializeUint32(uint32)": "infinite",
				"serializeUint64(uint64)": "infinite",
				"serializeUint8(uint8)": "infinite",
				"verusHashPrefix(string,address,int64,address,bytes)": "infinite",
				"writeCompactSize(uint256)": "infinite",
				"writeVarInt(uint256)": "infinite"
			}
		},
		"methodIdentifiers": {
			"flipArray(bytes)": "1222d81a",
			"serializeAddress(address)": "241d23b2",
			"serializeBool(bool)": "009c8152",
			"serializeBytes20(bytes20)": "463276c3",
			"serializeBytes32(bytes32)": "b9f7f35a",
			"serializeCCoinbaseCurrencyState((uint16,uint16,address,uint160[],int32[],int64[],int64,int64,int64,int64,int64,int64,int64,int64[],int64[],int64[],int64[],int64[],int64[],int64[],int32[]))": "c7343e2c",
			"serializeCCrossChainExport((uint16,uint16,address,uint32,uint32,address,address,uint32,(address,uint64)[],(address,uint64)[],bytes32,(address,uint64)[],(uint8,address),int32))": "343bee60",
			"serializeCCurrencyValueMap((address,uint64))": "cfa84de9",
			"serializeCCurrencyValueMaps((address,uint64)[])": "941bb060",
			"serializeCNodeData((string,address))": "44c789d1",
			"serializeCPBaaSNotarization((uint32,(uint8,address),uint32,(uint16,uint16,address,uint160[],int32[],int64[],int64,int64,int64,int64,int64,int64,int64,int64[],int64[],int64[],int64[],int64[],int64[],int64[],int32[]),uint256,int64,uint256,uint64,(address,(uint16,uint16,address,uint160[],int32[],int64[],int64,int64,int64,int64,int64,int64,int64,int64[],int64[],int64[],int64[],int64[],int64[],int64[],int32[]))[],(address,(int16,int16,address,uint32,uint256,uint256,uint256))[],(string,address)[]))": "5f02802c",
			"serializeCProofRoot((int16,int16,address,uint32,uint256,uint256,uint256))": "20105c8a",
			"serializeCReserveTransfer((uint32,(address,uint64),uint32,address,uint256,(uint8,address),address,address))": "8bbfc13e",
			"serializeCReserveTransfers((uint32,(address,uint64),uint32,address,uint256,(uint8,address),address,address)[])": "153f504f",
			"serializeCTransferDestination((uint8,address))": "df61a937",
			"serializeCUTXORef((uint256,uint32))": "b9edc795",
			"serializeCurrencyStates((address,(uint16,uint16,address,uint160[],int32[],int64[],int64,int64,int64,int64,int64,int64,int64,int64[],int64[],int64[],int64[],int64[],int64[],int64[],int32[])))": "bcddeda4",
			"serializeCurrencyStatesArray((address,(uint16,uint16,address,uint160[],int32[],int64[],int64,int64,int64,int64,int64,int64,int64,int64[],int64[],int64[],int64[],int64[],int64[],int64[],int32[]))[])": "7a635645",
			"serializeInt16(int16)": "46256007",
			"serializeInt32(int32)": "fef5906a",
			"serializeInt32Array(int32[])": "9d487b47",
			"serializeInt64(int64)": "af832f09",
			"serializeInt64Array(int64[])": "f8217295",
			"serializeNodes((string,address)[])": "049e3490",
			"serializeProofRoots((address,(int16,int16,address,uint32,uint256,uint256,uint256)))": "29688df3",
			"serializeProofRootsArray((address,(int16,int16,address,uint32,uint256,uint256,uint256))[])": "8e619e20",
			"serializeString(string)": "68b4ae81",
			"serializeUint16(uint16)": "e4cba547",
			"serializeUint160Array(uint160[])": "19a7c17b",
			"serializeUint256(uint256)": "f20fb830",
			"serializeUint32(uint32)": "cecb3043",
			"serializeUint64(uint64)": "122e5ae7",
			"serializeUint8(uint8)": "6127b4ff",
			"verusHashPrefix(string,address,int64,address,bytes)": "c93e58c8",
			"writeCompactSize(uint256)": "dad935a1",
			"writeVarInt(uint256)": "b3a895f6"
		}
	},
	"abi": [
		{
			"inputs": [
				{
					"internalType": "bytes",
					"name": "incoming",
					"type": "bytes"
				}
			],
			"name": "flipArray",
			"outputs": [
				{
					"internalType": "bytes",
					"name": "",
					"type": "bytes"
				}
			],
			"stateMutability": "pure",
			"type": "function"
		},
		{
			"inputs": [
				{
					"internalType": "address",
					"name": "number",
					"type": "address"
				}
			],
			"name": "serializeAddress",
			"outputs": [
				{
					"internalType": "bytes",
					"name": "",
					"type": "bytes"
				}
			],
			"stateMutability": "pure",
			"type": "function"
		},
		{
			"inputs": [
				{
					"internalType": "bool",
					"name": "anyBool",
					"type": "bool"
				}
			],
			"name": "serializeBool",
			"outputs": [
				{
					"internalType": "bytes",
					"name": "",
					"type": "bytes"
				}
			],
			"stateMutability": "pure",
			"type": "function"
		},
		{
			"inputs": [
				{
					"internalType": "bytes20",
					"name": "anyBytes20",
					"type": "bytes20"
				}
			],
			"name": "serializeBytes20",
			"outputs": [
				{
					"internalType": "bytes",
					"name": "",
					"type": "bytes"
				}
			],
			"stateMutability": "pure",
			"type": "function"
		},
		{
			"inputs": [
				{
					"internalType": "bytes32",
					"name": "anyBytes32",
					"type": "bytes32"
				}
			],
			"name": "serializeBytes32",
			"outputs": [
				{
					"internalType": "bytes",
					"name": "",
					"type": "bytes"
				}
			],
			"stateMutability": "pure",
			"type": "function"
		},
		{
			"inputs": [
				{
					"components": [
						{
							"internalType": "uint16",
							"name": "version",
							"type": "uint16"
						},
						{
							"internalType": "uint16",
							"name": "flags",
							"type": "uint16"
						},
						{
							"internalType": "address",
							"name": "currencyID",
							"type": "address"
						},
						{
							"internalType": "uint160[]",
							"name": "currencies",
							"type": "uint160[]"
						},
						{
							"internalType": "int32[]",
							"name": "weights",
							"type": "int32[]"
						},
						{
							"internalType": "int64[]",
							"name": "reserves",
							"type": "int64[]"
						},
						{
							"internalType": "int64",
							"name": "initialSupply",
							"type": "int64"
						},
						{
							"internalType": "int64",
							"name": "emitted",
							"type": "int64"
						},
						{
							"internalType": "int64",
							"name": "supply",
							"type": "int64"
						},
						{
							"internalType": "int64",
							"name": "primaryCurrencyOut",
							"type": "int64"
						},
						{
							"internalType": "int64",
							"name": "preconvertedOut",
							"type": "int64"
						},
						{
							"internalType": "int64",
							"name": "primaryCurrencyFees",
							"type": "int64"
						},
						{
							"internalType": "int64",
							"name": "primaryCurrencyConversionFees",
							"type": "int64"
						},
						{
							"internalType": "int64[]",
							"name": "reserveIn",
							"type": "int64[]"
						},
						{
							"internalType": "int64[]",
							"name": "primaryCurrencyIn",
							"type": "int64[]"
						},
						{
							"internalType": "int64[]",
							"name": "reserveOut",
							"type": "int64[]"
						},
						{
							"internalType": "int64[]",
							"name": "conversionPrice",
							"type": "int64[]"
						},
						{
							"internalType": "int64[]",
							"name": "viaConversionPrice",
							"type": "int64[]"
						},
						{
							"internalType": "int64[]",
							"name": "fees",
							"type": "int64[]"
						},
						{
							"internalType": "int64[]",
							"name": "conversionFees",
							"type": "int64[]"
						},
						{
							"internalType": "int32[]",
							"name": "priorWeights",
							"type": "int32[]"
						}
					],
					"internalType": "struct VerusObjects.CCoinbaseCurrencyState",
					"name": "_cccs",
					"type": "tuple"
				}
			],
			"name": "serializeCCoinbaseCurrencyState",
			"outputs": [
				{
					"internalType": "bytes",
					"name": "",
					"type": "bytes"
				}
			],
			"stateMutability": "pure",
			"type": "function"
		},
		{
			"inputs": [
				{
					"components": [
						{
							"internalType": "uint16",
							"name": "version",
							"type": "uint16"
						},
						{
							"internalType": "uint16",
							"name": "flags",
							"type": "uint16"
						},
						{
							"internalType": "address",
							"name": "sourcesystemid",
							"type": "address"
						},
						{
							"internalType": "uint32",
							"name": "sourceheightstart",
							"type": "uint32"
						},
						{
							"internalType": "uint32",
							"name": "sourceheightend",
							"type": "uint32"
						},
						{
							"internalType": "address",
							"name": "destinationsystemid",
							"type": "address"
						},
						{
							"internalType": "address",
							"name": "destinationcurrencyid",
							"type": "address"
						},
						{
							"internalType": "uint32",
							"name": "numinputs",
							"type": "uint32"
						},
						{
							"components": [
								{
									"internalType": "address",
									"name": "currency",
									"type": "address"
								},
								{
									"internalType": "uint64",
									"name": "amount",
									"type": "uint64"
								}
							],
							"internalType": "struct VerusObjects.CCurrencyValueMap[]",
							"name": "totalamounts",
							"type": "tuple[]"
						},
						{
							"components": [
								{
									"internalType": "address",
									"name": "currency",
									"type": "address"
								},
								{
									"internalType": "uint64",
									"name": "amount",
									"type": "uint64"
								}
							],
							"internalType": "struct VerusObjects.CCurrencyValueMap[]",
							"name": "totalfees",
							"type": "tuple[]"
						},
						{
							"internalType": "bytes32",
							"name": "hashtransfers",
							"type": "bytes32"
						},
						{
							"components": [
								{
									"internalType": "address",
									"name": "currency",
									"type": "address"
								},
								{
									"internalType": "uint64",
									"name": "amount",
									"type": "uint64"
								}
							],
							"internalType": "struct VerusObjects.CCurrencyValueMap[]",
							"name": "totalburned",
							"type": "tuple[]"
						},
						{
							"components": [
								{
									"internalType": "uint8",
									"name": "destinationtype",
									"type": "uint8"
								},
								{
									"internalType": "address",
									"name": "destinationaddress",
									"type": "address"
								}
							],
							"internalType": "struct VerusObjects.CTransferDestination",
							"name": "rewardaddress",
							"type": "tuple"
						},
						{
							"internalType": "int32",
							"name": "firstinput",
							"type": "int32"
						}
					],
					"internalType": "struct VerusObjects.CCrossChainExport",
					"name": "_ccce",
					"type": "tuple"
				}
			],
			"name": "serializeCCrossChainExport",
			"outputs": [
				{
					"internalType": "bytes",
					"name": "",
					"type": "bytes"
				}
			],
			"stateMutability": "pure",
			"type": "function"
		},
		{
			"inputs": [
				{
					"components": [
						{
							"internalType": "address",
							"name": "currency",
							"type": "address"
						},
						{
							"internalType": "uint64",
							"name": "amount",
							"type": "uint64"
						}
					],
					"internalType": "struct VerusObjects.CCurrencyValueMap",
					"name": "_ccvm",
					"type": "tuple"
				}
			],
			"name": "serializeCCurrencyValueMap",
			"outputs": [
				{
					"internalType": "bytes",
					"name": "",
					"type": "bytes"
				}
			],
			"stateMutability": "pure",
			"type": "function"
		},
		{
			"inputs": [
				{
					"components": [
						{
							"internalType": "address",
							"name": "currency",
							"type": "address"
						},
						{
							"internalType": "uint64",
							"name": "amount",
							"type": "uint64"
						}
					],
					"internalType": "struct VerusObjects.CCurrencyValueMap[]",
					"name": "_ccvms",
					"type": "tuple[]"
				}
			],
			"name": "serializeCCurrencyValueMaps",
			"outputs": [
				{
					"internalType": "bytes",
					"name": "",
					"type": "bytes"
				}
			],
			"stateMutability": "pure",
			"type": "function"
		},
		{
			"inputs": [
				{
					"components": [
						{
							"internalType": "string",
							"name": "networkAddress",
							"type": "string"
						},
						{
							"internalType": "address",
							"name": "nodeIdentity",
							"type": "address"
						}
					],
					"internalType": "struct VerusObjects.CNodeData",
					"name": "_cnd",
					"type": "tuple"
				}
			],
			"name": "serializeCNodeData",
			"outputs": [
				{
					"internalType": "bytes",
					"name": "",
					"type": "bytes"
				}
			],
			"stateMutability": "pure",
			"type": "function"
		},
		{
			"inputs": [
				{
					"components": [
						{
							"internalType": "uint32",
							"name": "version",
							"type": "uint32"
						},
						{
							"components": [
								{
									"internalType": "uint8",
									"name": "destinationtype",
									"type": "uint8"
								},
								{
									"internalType": "address",
									"name": "destinationaddress",
									"type": "address"
								}
							],
							"internalType": "struct VerusObjects.CTransferDestination",
							"name": "proposer",
							"type": "tuple"
						},
						{
							"internalType": "uint32",
							"name": "notarizationHeight",
							"type": "uint32"
						},
						{
							"components": [
								{
									"internalType": "uint16",
									"name": "version",
									"type": "uint16"
								},
								{
									"internalType": "uint16",
									"name": "flags",
									"type": "uint16"
								},
								{
									"internalType": "address",
									"name": "currencyID",
									"type": "address"
								},
								{
									"internalType": "uint160[]",
									"name": "currencies",
									"type": "uint160[]"
								},
								{
									"internalType": "int32[]",
									"name": "weights",
									"type": "int32[]"
								},
								{
									"internalType": "int64[]",
									"name": "reserves",
									"type": "int64[]"
								},
								{
									"internalType": "int64",
									"name": "initialSupply",
									"type": "int64"
								},
								{
									"internalType": "int64",
									"name": "emitted",
									"type": "int64"
								},
								{
									"internalType": "int64",
									"name": "supply",
									"type": "int64"
								},
								{
									"internalType": "int64",
									"name": "primaryCurrencyOut",
									"type": "int64"
								},
								{
									"internalType": "int64",
									"name": "preconvertedOut",
									"type": "int64"
								},
								{
									"internalType": "int64",
									"name": "primaryCurrencyFees",
									"type": "int64"
								},
								{
									"internalType": "int64",
									"name": "primaryCurrencyConversionFees",
									"type": "int64"
								},
								{
									"internalType": "int64[]",
									"name": "reserveIn",
									"type": "int64[]"
								},
								{
									"internalType": "int64[]",
									"name": "primaryCurrencyIn",
									"type": "int64[]"
								},
								{
									"internalType": "int64[]",
									"name": "reserveOut",
									"type": "int64[]"
								},
								{
									"internalType": "int64[]",
									"name": "conversionPrice",
									"type": "int64[]"
								},
								{
									"internalType": "int64[]",
									"name": "viaConversionPrice",
									"type": "int64[]"
								},
								{
									"internalType": "int64[]",
									"name": "fees",
									"type": "int64[]"
								},
								{
									"internalType": "int64[]",
									"name": "conversionFees",
									"type": "int64[]"
								},
								{
									"internalType": "int32[]",
									"name": "priorWeights",
									"type": "int32[]"
								}
							],
							"internalType": "struct VerusObjects.CCoinbaseCurrencyState",
							"name": "currencyState",
							"type": "tuple"
						},
						{
							"internalType": "uint256",
							"name": "prevnotarizationtxid",
							"type": "uint256"
						},
						{
							"internalType": "int64",
							"name": "prevnotarizationout",
							"type": "int64"
						},
						{
							"internalType": "uint256",
							"name": "hashprevnotarizationobject",
							"type": "uint256"
						},
						{
							"internalType": "uint64",
							"name": "prevheight",
							"type": "uint64"
						},
						{
							"components": [
								{
									"internalType": "address",
									"name": "currencyId",
									"type": "address"
								},
								{
									"components": [
										{
											"internalType": "uint16",
											"name": "version",
											"type": "uint16"
										},
										{
											"internalType": "uint16",
											"name": "flags",
											"type": "uint16"
										},
										{
											"internalType": "address",
											"name": "currencyID",
											"type": "address"
										},
										{
											"internalType": "uint160[]",
											"name": "currencies",
											"type": "uint160[]"
										},
										{
											"internalType": "int32[]",
											"name": "weights",
											"type": "int32[]"
										},
										{
											"internalType": "int64[]",
											"name": "reserves",
											"type": "int64[]"
										},
										{
											"internalType": "int64",
											"name": "initialSupply",
											"type": "int64"
										},
										{
											"internalType": "int64",
											"name": "emitted",
											"type": "int64"
										},
										{
											"internalType": "int64",
											"name": "supply",
											"type": "int64"
										},
										{
											"internalType": "int64",
											"name": "primaryCurrencyOut",
											"type": "int64"
										},
										{
											"internalType": "int64",
											"name": "preconvertedOut",
											"type": "int64"
										},
										{
											"internalType": "int64",
											"name": "primaryCurrencyFees",
											"type": "int64"
										},
										{
											"internalType": "int64",
											"name": "primaryCurrencyConversionFees",
											"type": "int64"
										},
										{
											"internalType": "int64[]",
											"name": "reserveIn",
											"type": "int64[]"
										},
										{
											"internalType": "int64[]",
											"name": "primaryCurrencyIn",
											"type": "int64[]"
										},
										{
											"internalType": "int64[]",
											"name": "reserveOut",
											"type": "int64[]"
										},
										{
											"internalType": "int64[]",
											"name": "conversionPrice",
											"type": "int64[]"
										},
										{
											"internalType": "int64[]",
											"name": "viaConversionPrice",
											"type": "int64[]"
										},
										{
											"internalType": "int64[]",
											"name": "fees",
											"type": "int64[]"
										},
										{
											"internalType": "int64[]",
											"name": "conversionFees",
											"type": "int64[]"
										},
										{
											"internalType": "int32[]",
											"name": "priorWeights",
											"type": "int32[]"
										}
									],
									"internalType": "struct VerusObjects.CCoinbaseCurrencyState",
									"name": "currencyState",
									"type": "tuple"
								}
							],
							"internalType": "struct VerusObjects.CurrencyStates[]",
							"name": "currencyStates",
							"type": "tuple[]"
						},
						{
							"components": [
								{
									"internalType": "address",
									"name": "currencyId",
									"type": "address"
								},
								{
									"components": [
										{
											"internalType": "int16",
											"name": "version",
											"type": "int16"
										},
										{
											"internalType": "int16",
											"name": "CPRtype",
											"type": "int16"
										},
										{
											"internalType": "address",
											"name": "systemID",
											"type": "address"
										},
										{
											"internalType": "uint32",
											"name": "rootHeight",
											"type": "uint32"
										},
										{
											"internalType": "uint256",
											"name": "stateRoot",
											"type": "uint256"
										},
										{
											"internalType": "uint256",
											"name": "blockHash",
											"type": "uint256"
										},
										{
											"internalType": "uint256",
											"name": "compactPower",
											"type": "uint256"
										}
									],
									"internalType": "struct VerusObjects.CProofRoot",
									"name": "proofRoot",
									"type": "tuple"
								}
							],
							"internalType": "struct VerusObjects.ProofRoots[]",
							"name": "proofRoots",
							"type": "tuple[]"
						},
						{
							"components": [
								{
									"internalType": "string",
									"name": "networkAddress",
									"type": "string"
								},
								{
									"internalType": "address",
									"name": "nodeIdentity",
									"type": "address"
								}
							],
							"internalType": "struct VerusObjects.CNodeData[]",
							"name": "nodes",
							"type": "tuple[]"
						}
					],
					"internalType": "struct VerusObjects.CPBaaSNotarization",
					"name": "_not",
					"type": "tuple"
				}
			],
			"name": "serializeCPBaaSNotarization",
			"outputs": [
				{
					"internalType": "bytes",
					"name": "",
					"type": "bytes"
				}
			],
			"stateMutability": "pure",
			"type": "function"
		},
		{
			"inputs": [
				{
					"components": [
						{
							"internalType": "int16",
							"name": "version",
							"type": "int16"
						},
						{
							"internalType": "int16",
							"name": "CPRtype",
							"type": "int16"
						},
						{
							"internalType": "address",
							"name": "systemID",
							"type": "address"
						},
						{
							"internalType": "uint32",
							"name": "rootHeight",
							"type": "uint32"
						},
						{
							"internalType": "uint256",
							"name": "stateRoot",
							"type": "uint256"
						},
						{
							"internalType": "uint256",
							"name": "blockHash",
							"type": "uint256"
						},
						{
							"internalType": "uint256",
							"name": "compactPower",
							"type": "uint256"
						}
					],
					"internalType": "struct VerusObjects.CProofRoot",
					"name": "_cpr",
					"type": "tuple"
				}
			],
			"name": "serializeCProofRoot",
			"outputs": [
				{
					"internalType": "bytes",
					"name": "",
					"type": "bytes"
				}
			],
			"stateMutability": "pure",
			"type": "function"
		},
		{
			"inputs": [
				{
					"components": [
						{
							"internalType": "uint32",
							"name": "version",
							"type": "uint32"
						},
						{
							"components": [
								{
									"internalType": "address",
									"name": "currency",
									"type": "address"
								},
								{
									"internalType": "uint64",
									"name": "amount",
									"type": "uint64"
								}
							],
							"internalType": "struct VerusObjects.CCurrencyValueMap",
							"name": "currencyvalue",
							"type": "tuple"
						},
						{
							"internalType": "uint32",
							"name": "flags",
							"type": "uint32"
						},
						{
							"internalType": "address",
							"name": "feecurrencyid",
							"type": "address"
						},
						{
							"internalType": "uint256",
							"name": "fees",
							"type": "uint256"
						},
						{
							"components": [
								{
									"internalType": "uint8",
									"name": "destinationtype",
									"type": "uint8"
								},
								{
									"internalType": "address",
									"name": "destinationaddress",
									"type": "address"
								}
							],
							"internalType": "struct VerusObjects.CTransferDestination",
							"name": "destination",
							"type": "tuple"
						},
						{
							"internalType": "address",
							"name": "destCurrencyID",
							"type": "address"
						},
						{
							"internalType": "address",
							"name": "destSystemID",
							"type": "address"
						}
					],
					"internalType": "struct VerusObjects.CReserveTransfer",
					"name": "ct",
					"type": "tuple"
				}
			],
			"name": "serializeCReserveTransfer",
			"outputs": [
				{
					"internalType": "bytes",
					"name": "",
					"type": "bytes"
				}
			],
			"stateMutability": "pure",
			"type": "function"
		},
		{
			"inputs": [
				{
					"components": [
						{
							"internalType": "uint32",
							"name": "version",
							"type": "uint32"
						},
						{
							"components": [
								{
									"internalType": "address",
									"name": "currency",
									"type": "address"
								},
								{
									"internalType": "uint64",
									"name": "amount",
									"type": "uint64"
								}
							],
							"internalType": "struct VerusObjects.CCurrencyValueMap",
							"name": "currencyvalue",
							"type": "tuple"
						},
						{
							"internalType": "uint32",
							"name": "flags",
							"type": "uint32"
						},
						{
							"internalType": "address",
							"name": "feecurrencyid",
							"type": "address"
						},
						{
							"internalType": "uint256",
							"name": "fees",
							"type": "uint256"
						},
						{
							"components": [
								{
									"internalType": "uint8",
									"name": "destinationtype",
									"type": "uint8"
								},
								{
									"internalType": "address",
									"name": "destinationaddress",
									"type": "address"
								}
							],
							"internalType": "struct VerusObjects.CTransferDestination",
							"name": "destination",
							"type": "tuple"
						},
						{
							"internalType": "address",
							"name": "destCurrencyID",
							"type": "address"
						},
						{
							"internalType": "address",
							"name": "destSystemID",
							"type": "address"
						}
					],
					"internalType": "struct VerusObjects.CReserveTransfer[]",
					"name": "_bts",
					"type": "tuple[]"
				}
			],
			"name": "serializeCReserveTransfers",
			"outputs": [
				{
					"internalType": "bytes",
					"name": "",
					"type": "bytes"
				}
			],
			"stateMutability": "pure",
			"type": "function"
		},
		{
			"inputs": [
				{
					"components": [
						{
							"internalType": "uint8",
							"name": "destinationtype",
							"type": "uint8"
						},
						{
							"internalType": "address",
							"name": "destinationaddress",
							"type": "address"
						}
					],
					"internalType": "struct VerusObjects.CTransferDestination",
					"name": "ctd",
					"type": "tuple"
				}
			],
			"name": "serializeCTransferDestination",
			"outputs": [
				{
					"internalType": "bytes",
					"name": "",
					"type": "bytes"
				}
			],
			"stateMutability": "pure",
			"type": "function"
		},
		{
			"inputs": [
				{
					"components": [
						{
							"internalType": "uint256",
							"name": "hash",
							"type": "uint256"
						},
						{
							"internalType": "uint32",
							"name": "n",
							"type": "uint32"
						}
					],
					"internalType": "struct VerusObjects.CUTXORef",
					"name": "_cutxo",
					"type": "tuple"
				}
			],
			"name": "serializeCUTXORef",
			"outputs": [
				{
					"internalType": "bytes",
					"name": "",
					"type": "bytes"
				}
			],
			"stateMutability": "pure",
			"type": "function"
		},
		{
			"inputs": [
				{
					"components": [
						{
							"internalType": "address",
							"name": "currencyId",
							"type": "address"
						},
						{
							"components": [
								{
									"internalType": "uint16",
									"name": "version",
									"type": "uint16"
								},
								{
									"internalType": "uint16",
									"name": "flags",
									"type": "uint16"
								},
								{
									"internalType": "address",
									"name": "currencyID",
									"type": "address"
								},
								{
									"internalType": "uint160[]",
									"name": "currencies",
									"type": "uint160[]"
								},
								{
									"internalType": "int32[]",
									"name": "weights",
									"type": "int32[]"
								},
								{
									"internalType": "int64[]",
									"name": "reserves",
									"type": "int64[]"
								},
								{
									"internalType": "int64",
									"name": "initialSupply",
									"type": "int64"
								},
								{
									"internalType": "int64",
									"name": "emitted",
									"type": "int64"
								},
								{
									"internalType": "int64",
									"name": "supply",
									"type": "int64"
								},
								{
									"internalType": "int64",
									"name": "primaryCurrencyOut",
									"type": "int64"
								},
								{
									"internalType": "int64",
									"name": "preconvertedOut",
									"type": "int64"
								},
								{
									"internalType": "int64",
									"name": "primaryCurrencyFees",
									"type": "int64"
								},
								{
									"internalType": "int64",
									"name": "primaryCurrencyConversionFees",
									"type": "int64"
								},
								{
									"internalType": "int64[]",
									"name": "reserveIn",
									"type": "int64[]"
								},
								{
									"internalType": "int64[]",
									"name": "primaryCurrencyIn",
									"type": "int64[]"
								},
								{
									"internalType": "int64[]",
									"name": "reserveOut",
									"type": "int64[]"
								},
								{
									"internalType": "int64[]",
									"name": "conversionPrice",
									"type": "int64[]"
								},
								{
									"internalType": "int64[]",
									"name": "viaConversionPrice",
									"type": "int64[]"
								},
								{
									"internalType": "int64[]",
									"name": "fees",
									"type": "int64[]"
								},
								{
									"internalType": "int64[]",
									"name": "conversionFees",
									"type": "int64[]"
								},
								{
									"internalType": "int32[]",
									"name": "priorWeights",
									"type": "int32[]"
								}
							],
							"internalType": "struct VerusObjects.CCoinbaseCurrencyState",
							"name": "currencyState",
							"type": "tuple"
						}
					],
					"internalType": "struct VerusObjects.CurrencyStates",
					"name": "_cs",
					"type": "tuple"
				}
			],
			"name": "serializeCurrencyStates",
			"outputs": [
				{
					"internalType": "bytes",
					"name": "",
					"type": "bytes"
				}
			],
			"stateMutability": "pure",
			"type": "function"
		},
		{
			"inputs": [
				{
					"components": [
						{
							"internalType": "address",
							"name": "currencyId",
							"type": "address"
						},
						{
							"components": [
								{
									"internalType": "uint16",
									"name": "version",
									"type": "uint16"
								},
								{
									"internalType": "uint16",
									"name": "flags",
									"type": "uint16"
								},
								{
									"internalType": "address",
									"name": "currencyID",
									"type": "address"
								},
								{
									"internalType": "uint160[]",
									"name": "currencies",
									"type": "uint160[]"
								},
								{
									"internalType": "int32[]",
									"name": "weights",
									"type": "int32[]"
								},
								{
									"internalType": "int64[]",
									"name": "reserves",
									"type": "int64[]"
								},
								{
									"internalType": "int64",
									"name": "initialSupply",
									"type": "int64"
								},
								{
									"internalType": "int64",
									"name": "emitted",
									"type": "int64"
								},
								{
									"internalType": "int64",
									"name": "supply",
									"type": "int64"
								},
								{
									"internalType": "int64",
									"name": "primaryCurrencyOut",
									"type": "int64"
								},
								{
									"internalType": "int64",
									"name": "preconvertedOut",
									"type": "int64"
								},
								{
									"internalType": "int64",
									"name": "primaryCurrencyFees",
									"type": "int64"
								},
								{
									"internalType": "int64",
									"name": "primaryCurrencyConversionFees",
									"type": "int64"
								},
								{
									"internalType": "int64[]",
									"name": "reserveIn",
									"type": "int64[]"
								},
								{
									"internalType": "int64[]",
									"name": "primaryCurrencyIn",
									"type": "int64[]"
								},
								{
									"internalType": "int64[]",
									"name": "reserveOut",
									"type": "int64[]"
								},
								{
									"internalType": "int64[]",
									"name": "conversionPrice",
									"type": "int64[]"
								},
								{
									"internalType": "int64[]",
									"name": "viaConversionPrice",
									"type": "int64[]"
								},
								{
									"internalType": "int64[]",
									"name": "fees",
									"type": "int64[]"
								},
								{
									"internalType": "int64[]",
									"name": "conversionFees",
									"type": "int64[]"
								},
								{
									"internalType": "int32[]",
									"name": "priorWeights",
									"type": "int32[]"
								}
							],
							"internalType": "struct VerusObjects.CCoinbaseCurrencyState",
							"name": "currencyState",
							"type": "tuple"
						}
					],
					"internalType": "struct VerusObjects.CurrencyStates[]",
					"name": "_csa",
					"type": "tuple[]"
				}
			],
			"name": "serializeCurrencyStatesArray",
			"outputs": [
				{
					"internalType": "bytes",
					"name": "",
					"type": "bytes"
				}
			],
			"stateMutability": "pure",
			"type": "function"
		},
		{
			"inputs": [
				{
					"internalType": "int16",
					"name": "number",
					"type": "int16"
				}
			],
			"name": "serializeInt16",
			"outputs": [
				{
					"internalType": "bytes",
					"name": "",
					"type": "bytes"
				}
			],
			"stateMutability": "pure",
			"type": "function"
		},
		{
			"inputs": [
				{
					"internalType": "int32",
					"name": "number",
					"type": "int32"
				}
			],
			"name": "serializeInt32",
			"outputs": [
				{
					"internalType": "bytes",
					"name": "",
					"type": "bytes"
				}
			],
			"stateMutability": "pure",
			"type": "function"
		},
		{
			"inputs": [
				{
					"internalType": "int32[]",
					"name": "numbers",
					"type": "int32[]"
				}
			],
			"name": "serializeInt32Array",
			"outputs": [
				{
					"internalType": "bytes",
					"name": "",
					"type": "bytes"
				}
			],
			"stateMutability": "pure",
			"type": "function"
		},
		{
			"inputs": [
				{
					"internalType": "int64",
					"name": "number",
					"type": "int64"
				}
			],
			"name": "serializeInt64",
			"outputs": [
				{
					"internalType": "bytes",
					"name": "",
					"type": "bytes"
				}
			],
			"stateMutability": "pure",
			"type": "function"
		},
		{
			"inputs": [
				{
					"internalType": "int64[]",
					"name": "numbers",
					"type": "int64[]"
				}
			],
			"name": "serializeInt64Array",
			"outputs": [
				{
					"internalType": "bytes",
					"name": "",
					"type": "bytes"
				}
			],
			"stateMutability": "pure",
			"type": "function"
		},
		{
			"inputs": [
				{
					"components": [
						{
							"internalType": "string",
							"name": "networkAddress",
							"type": "string"
						},
						{
							"internalType": "address",
							"name": "nodeIdentity",
							"type": "address"
						}
					],
					"internalType": "struct VerusObjects.CNodeData[]",
					"name": "_cnds",
					"type": "tuple[]"
				}
			],
			"name": "serializeNodes",
			"outputs": [
				{
					"internalType": "bytes",
					"name": "",
					"type": "bytes"
				}
			],
			"stateMutability": "pure",
			"type": "function"
		},
		{
			"inputs": [
				{
					"components": [
						{
							"internalType": "address",
							"name": "currencyId",
							"type": "address"
						},
						{
							"components": [
								{
									"internalType": "int16",
									"name": "version",
									"type": "int16"
								},
								{
									"internalType": "int16",
									"name": "CPRtype",
									"type": "int16"
								},
								{
									"internalType": "address",
									"name": "systemID",
									"type": "address"
								},
								{
									"internalType": "uint32",
									"name": "rootHeight",
									"type": "uint32"
								},
								{
									"internalType": "uint256",
									"name": "stateRoot",
									"type": "uint256"
								},
								{
									"internalType": "uint256",
									"name": "blockHash",
									"type": "uint256"
								},
								{
									"internalType": "uint256",
									"name": "compactPower",
									"type": "uint256"
								}
							],
							"internalType": "struct VerusObjects.CProofRoot",
							"name": "proofRoot",
							"type": "tuple"
						}
					],
					"internalType": "struct VerusObjects.ProofRoots",
					"name": "_prs",
					"type": "tuple"
				}
			],
			"name": "serializeProofRoots",
			"outputs": [
				{
					"internalType": "bytes",
					"name": "",
					"type": "bytes"
				}
			],
			"stateMutability": "pure",
			"type": "function"
		},
		{
			"inputs": [
				{
					"components": [
						{
							"internalType": "address",
							"name": "currencyId",
							"type": "address"
						},
						{
							"components": [
								{
									"internalType": "int16",
									"name": "version",
									"type": "int16"
								},
								{
									"internalType": "int16",
									"name": "CPRtype",
									"type": "int16"
								},
								{
									"internalType": "address",
									"name": "systemID",
									"type": "address"
								},
								{
									"internalType": "uint32",
									"name": "rootHeight",
									"type": "uint32"
								},
								{
									"internalType": "uint256",
									"name": "stateRoot",
									"type": "uint256"
								},
								{
									"internalType": "uint256",
									"name": "blockHash",
									"type": "uint256"
								},
								{
									"internalType": "uint256",
									"name": "compactPower",
									"type": "uint256"
								}
							],
							"internalType": "struct VerusObjects.CProofRoot",
							"name": "proofRoot",
							"type": "tuple"
						}
					],
					"internalType": "struct VerusObjects.ProofRoots[]",
					"name": "_prsa",
					"type": "tuple[]"
				}
			],
			"name": "serializeProofRootsArray",
			"outputs": [
				{
					"internalType": "bytes",
					"name": "",
					"type": "bytes"
				}
			],
			"stateMutability": "pure",
			"type": "function"
		},
		{
			"inputs": [
				{
					"internalType": "string",
					"name": "anyString",
					"type": "string"
				}
			],
			"name": "serializeString",
			"outputs": [
				{
					"internalType": "bytes",
					"name": "",
					"type": "bytes"
				}
			],
			"stateMutability": "pure",
			"type": "function"
		},
		{
			"inputs": [
				{
					"internalType": "uint16",
					"name": "number",
					"type": "uint16"
				}
			],
			"name": "serializeUint16",
			"outputs": [
				{
					"internalType": "bytes",
					"name": "",
					"type": "bytes"
				}
			],
			"stateMutability": "pure",
			"type": "function"
		},
		{
			"inputs": [
				{
					"internalType": "uint160[]",
					"name": "numbers",
					"type": "uint160[]"
				}
			],
			"name": "serializeUint160Array",
			"outputs": [
				{
					"internalType": "bytes",
					"name": "",
					"type": "bytes"
				}
			],
			"stateMutability": "pure",
			"type": "function"
		},
		{
			"inputs": [
				{
					"internalType": "uint256",
					"name": "number",
					"type": "uint256"
				}
			],
			"name": "serializeUint256",
			"outputs": [
				{
					"internalType": "bytes",
					"name": "",
					"type": "bytes"
				}
			],
			"stateMutability": "pure",
			"type": "function"
		},
		{
			"inputs": [
				{
					"internalType": "uint32",
					"name": "number",
					"type": "uint32"
				}
			],
			"name": "serializeUint32",
			"outputs": [
				{
					"internalType": "bytes",
					"name": "",
					"type": "bytes"
				}
			],
			"stateMutability": "pure",
			"type": "function"
		},
		{
			"inputs": [
				{
					"internalType": "uint64",
					"name": "number",
					"type": "uint64"
				}
			],
			"name": "serializeUint64",
			"outputs": [
				{
					"internalType": "bytes",
					"name": "",
					"type": "bytes"
				}
			],
			"stateMutability": "pure",
			"type": "function"
		},
		{
			"inputs": [
				{
					"internalType": "uint8",
					"name": "number",
					"type": "uint8"
				}
			],
			"name": "serializeUint8",
			"outputs": [
				{
					"internalType": "bytes",
					"name": "",
					"type": "bytes"
				}
			],
			"stateMutability": "pure",
			"type": "function"
		},
		{
			"inputs": [
				{
					"internalType": "string",
					"name": "prefix",
					"type": "string"
				},
				{
					"internalType": "address",
					"name": "systemID",
					"type": "address"
				},
				{
					"internalType": "int64",
					"name": "blockHeight",
					"type": "int64"
				},
				{
					"internalType": "address",
					"name": "signingID",
					"type": "address"
				},
				{
					"internalType": "bytes",
					"name": "messageToHash",
					"type": "bytes"
				}
			],
			"name": "verusHashPrefix",
			"outputs": [
				{
					"internalType": "bytes",
					"name": "",
					"type": "bytes"
				}
			],
			"stateMutability": "pure",
			"type": "function"
		},
		{
			"inputs": [
				{
					"internalType": "uint256",
					"name": "newNumber",
					"type": "uint256"
				}
			],
			"name": "writeCompactSize",
			"outputs": [
				{
					"internalType": "bytes",
					"name": "",
					"type": "bytes"
				}
			],
			"stateMutability": "pure",
			"type": "function"
		},
		{
			"inputs": [
				{
					"internalType": "uint256",
					"name": "incoming",
					"type": "uint256"
				}
			],
			"name": "writeVarInt",
			"outputs": [
				{
					"internalType": "bytes",
					"name": "",
					"type": "bytes"
				}
			],
			"stateMutability": "pure",
			"type": "function"
		}
	]
}