{
  "contractName": "BLAKE2_Constants",
  "abi": [
    {
      "inputs": [
        {
          "internalType": "uint256",
          "name": "",
          "type": "uint256"
        }
      ],
      "name": "IV",
      "outputs": [
        {
          "internalType": "uint64",
          "name": "",
          "type": "uint64"
        }
      ],
      "stateMutability": "view",
      "type": "function"
    }
  ],
  "bytecode": "0x6080604052604051806101000160405280676a09e667f3bcc90867ffffffffffffffff16815260200167bb67ae8584caa73b67ffffffffffffffff168152602001673c6ef372fe94f82b67ffffffffffffffff16815260200167a54ff53a5f1d36f167ffffffffffffffff16815260200167510e527fade682d167ffffffffffffffff168152602001679b05688c2b3e6c1f67ffffffffffffffff168152602001671f83d9abfb41bd6b67ffffffffffffffff168152602001675be0cd19137e217967ffffffffffffffff1681525060009060086100de9291906100f1565b503480156100eb57600080fd5b506101cf565b82600860030160049004810192821561018f5791602002820160005b8382111561015957835183826101000a81548167ffffffffffffffff021916908367ffffffffffffffff160217905550926020019260080160208160070104928301926001030261010d565b801561018d5782816101000a81549067ffffffffffffffff0219169055600801602081600701049283019260010302610159565b505b50905061019c91906101a0565b5090565b5b808211156101cb57600081816101000a81549067ffffffffffffffff0219169055506001016101a1565b5090565b60dc806101dd6000396000f3fe6080604052348015600f57600080fd5b506004361060285760003560e01c8063f23525ec14602d575b600080fd5b605660048036036020811015604157600080fd5b81019080803590602001909291905050506076565b604051808267ffffffffffffffff16815260200191505060405180910390f35b60008160088110608257fe5b60049182820401919006600802915054906101000a900467ffffffffffffffff168156fea2646970667358221220d9594ee5b07786e8b34bdbe17e252bd4a4a8edafdab1347a0275966f0570a22c64736f6c634300060c0033",
  "immutableReferences": {},
  "source": "pragma solidity >=0.5.16 <0.7.1;\ncontract BLAKE2_Constants{\n    /*\n    Constants, as defined in RFC 7693\n    */\n\n\n      uint64[8] public IV = [\n          0x6a09e667f3bcc908, 0xbb67ae8584caa73b,\n          0x3c6ef372fe94f82b, 0xa54ff53a5f1d36f1,\n          0x510e527fade682d1, 0x9b05688c2b3e6c1f,\n          0x1f83d9abfb41bd6b, 0x5be0cd19137e2179\n      ];\n\n      uint64 constant MASK_0 = 0xFF00000000000000;\n      uint64 constant MASK_1 = 0x00FF000000000000;\n      uint64 constant MASK_2 = 0x0000FF0000000000;\n      uint64 constant MASK_3 = 0x000000FF00000000;\n      uint64 constant MASK_4 = 0x00000000FF000000;\n      uint64 constant MASK_5 = 0x0000000000FF0000;\n      uint64 constant MASK_6 = 0x000000000000FF00;\n      uint64 constant MASK_7 = 0x00000000000000FF;\n\n      uint64 constant SHIFT_0 = 0x0100000000000000;\n      uint64 constant SHIFT_1 = 0x0000010000000000;\n      uint64 constant SHIFT_2 = 0x0000000001000000;\n      uint64 constant SHIFT_3 = 0x0000000000000100;\n}\n",
  "sourcePath": "/Volumes/UsersSSD/james/Development/komodo-notarisation-solidity/contracts/MMR/BLAKE2b/BLAKE2b_Constants.sol",
  "compiler": {
    "name": "solc",
    "version": "0.6.12+commit.27d51765.Emscripten.clang"
  },
  "schemaVersion": "3.2.0",
  "updatedAt": "2020-08-17T10:34:43.570Z",
  "devdoc": {
    "kind": "dev",
    "methods": {},
    "version": 1
  },
  "userdoc": {
    "kind": "user",
    "methods": {},
    "version": 1
  }
}