{
  "contractName": "BLAKE2b",
  "abi": [
    {
      "anonymous": false,
      "inputs": [
        {
          "indexed": false,
          "internalType": "uint64[8]",
          "name": "blakeArray",
          "type": "uint64[8]"
        }
      ],
      "name": "BlakeResult",
      "type": "event"
    },
    {
      "inputs": [
        {
          "internalType": "uint256",
          "name": "",
          "type": "uint256"
        }
      ],
      "name": "IV",
      "outputs": [
        {
          "internalType": "uint64",
          "name": "",
          "type": "uint64"
        }
      ],
      "stateMutability": "view",
      "type": "function"
    },
    {
      "inputs": [
        {
          "internalType": "uint64[16]",
          "name": "v",
          "type": "uint64[16]"
        },
        {
          "internalType": "uint256",
          "name": "a",
          "type": "uint256"
        },
        {
          "internalType": "uint256",
          "name": "b",
          "type": "uint256"
        },
        {
          "internalType": "uint256",
          "name": "c",
          "type": "uint256"
        },
        {
          "internalType": "uint256",
          "name": "d",
          "type": "uint256"
        },
        {
          "internalType": "uint64",
          "name": "x",
          "type": "uint64"
        },
        {
          "internalType": "uint64",
          "name": "y",
          "type": "uint64"
        }
      ],
      "name": "G",
      "outputs": [],
      "stateMutability": "pure",
      "type": "function"
    },
    {
      "inputs": [
        {
          "internalType": "bytes",
          "name": "input",
          "type": "bytes"
        },
        {
          "internalType": "bytes",
          "name": "key",
          "type": "bytes"
        },
        {
          "internalType": "bytes",
          "name": "salt",
          "type": "bytes"
        },
        {
          "internalType": "bytes",
          "name": "personalization",
          "type": "bytes"
        },
        {
          "internalType": "uint64",
          "name": "outlen",
          "type": "uint64"
        }
      ],
      "name": "blake2b",
      "outputs": [
        {
          "internalType": "uint64[8]",
          "name": "",
          "type": "uint64[8]"
        }
      ],
      "stateMutability": "nonpayable",
      "type": "function"
    },
    {
      "inputs": [
        {
          "internalType": "bytes",
          "name": "input",
          "type": "bytes"
        },
        {
          "internalType": "bytes",
          "name": "key",
          "type": "bytes"
        },
        {
          "internalType": "uint64",
          "name": "outlen",
          "type": "uint64"
        }
      ],
      "name": "blake2b",
      "outputs": [
        {
          "internalType": "uint64[8]",
          "name": "",
          "type": "uint64[8]"
        }
      ],
      "stateMutability": "nonpayable",
      "type": "function"
    },
    {
      "inputs": [
        {
          "internalType": "uint64",
          "name": "a",
          "type": "uint64"
        }
      ],
      "name": "getWords",
      "outputs": [
        {
          "internalType": "uint64",
          "name": "b",
          "type": "uint64"
        }
      ],
      "stateMutability": "pure",
      "type": "function"
    },
    {
      "inputs": [
        {
          "internalType": "uint64",
          "name": "a",
          "type": "uint64"
        },
        {
          "internalType": "uint256",
          "name": "shift",
          "type": "uint256"
        }
      ],
      "name": "shift_right",
      "outputs": [
        {
          "internalType": "uint64",
          "name": "b",
          "type": "uint64"
        }
      ],
      "stateMutability": "pure",
      "type": "function"
    },
    {
      "inputs": [
        {
          "internalType": "uint64",
          "name": "a",
          "type": "uint64"
        },
        {
          "internalType": "uint256",
          "name": "shift",
          "type": "uint256"
        }
      ],
      "name": "shift_left",
      "outputs": [
        {
          "internalType": "uint64",
          "name": "",
          "type": "uint64"
        }
      ],
      "stateMutability": "pure",
      "type": "function"
    },
    {
      "inputs": [
        {
          "internalType": "bytes",
          "name": "input",
          "type": "bytes"
        }
      ],
      "name": "formatInput",
      "outputs": [
        {
          "internalType": "uint64[2]",
          "name": "output",
          "type": "uint64[2]"
        }
      ],
      "stateMutability": "pure",
      "type": "function"
    },
    {
      "inputs": [
        {
          "internalType": "uint64[8]",
          "name": "input",
          "type": "uint64[8]"
        }
      ],
      "name": "formatOutput",
      "outputs": [
        {
          "internalType": "bytes32[2]",
          "name": "",
          "type": "bytes32[2]"
        }
      ],
      "stateMutability": "pure",
      "type": "function"
    }
  ],
  "bytecode": "0x6080604052604051806101000160405280676a09e667f3bcc90867ffffffffffffffff16815260200167bb67ae8584caa73b67ffffffffffffffff168152602001673c6ef372fe94f82b67ffffffffffffffff16815260200167a54ff53a5f1d36f167ffffffffffffffff16815260200167510e527fade682d167ffffffffffffffff168152602001679b05688c2b3e6c1f67ffffffffffffffff168152602001671f83d9abfb41bd6b67ffffffffffffffff168152602001675be0cd19137e217967ffffffffffffffff168152506000906008620000e0929190620000f5565b50348015620000ee57600080fd5b50620001dc565b826008600301600490048101928215620001985791602002820160005b838211156200016057835183826101000a81548167ffffffffffffffff021916908367ffffffffffffffff160217905550926020019260080160208160070104928301926001030262000112565b8015620001965782816101000a81549067ffffffffffffffff021916905560080160208160070104928301926001030262000160565b505b509050620001a79190620001ab565b5090565b5b80821115620001d857600081816101000a81549067ffffffffffffffff021916905550600101620001ac565b5090565b612c8c80620001ec6000396000f3fe608060405234801561001057600080fd5b50600436106100935760003560e01c8063d299dac011610066578063d299dac014610515578063df459019146106b7578063f23525ec1461075a578063fa2acd87146107a6578063fb72d24e1461085d57610093565b80631e09242314610098578063217311ac146103685780637ac0b1e3146103be578063bf187478146104b5575b600080fd5b61032a600480360360a08110156100ae57600080fd5b81019080803590602001906401000000008111156100cb57600080fd5b8201836020820111156100dd57600080fd5b803590602001918460018302840111640100000000831117156100ff57600080fd5b91908080601f016020809104026020016040519081016040528093929190818152602001838380828437600081840152601f19601f8201169050808301925050505050505091929192908035906020019064010000000081111561016257600080fd5b82018360208201111561017457600080fd5b8035906020019184600183028401116401000000008311171561019657600080fd5b91908080601f016020809104026020016040519081016040528093929190818152602001838380828437600081840152601f19601f820116905080830192505050505050509192919290803590602001906401000000008111156101f957600080fd5b82018360208201111561020b57600080fd5b8035906020019184600183028401116401000000008311171561022d57600080fd5b91908080601f016020809104026020016040519081016040528093929190818152602001838380828437600081840152601f19601f8201169050808301925050505050505091929192908035906020019064010000000081111561029057600080fd5b8201836020820111156102a257600080fd5b803590602001918460018302840111640100000000831117156102c457600080fd5b91908080601f016020809104026020016040519081016040528093929190818152602001838380828437600081840152601f19601f820116905080830192505050505050509192919290803567ffffffffffffffff1690602001909291905050506108bd565b6040518082600860200280838360005b8381101561035557808201518184015260208101905061033a565b5050505090500191505060405180910390f35b61039e6004803603602081101561037e57600080fd5b81019080803567ffffffffffffffff169060200190929190505050610973565b604051808267ffffffffffffffff16815260200191505060405180910390f35b610477600480360360208110156103d457600080fd5b81019080803590602001906401000000008111156103f157600080fd5b82018360208201111561040357600080fd5b8035906020019184600183028401116401000000008311171561042557600080fd5b91908080601f016020809104026020016040519081016040528093929190818152602001838380828437600081840152601f19601f820116905080830192505050505050509192919290505050610a63565b6040518082600260200280838360005b838110156104a2578082015181840152602081019050610487565b5050505090500191505060405180910390f35b6104f5600480360360408110156104cb57600080fd5b81019080803567ffffffffffffffff16906020019092919080359060200190929190505050610ba0565b604051808267ffffffffffffffff16815260200191505060405180910390f35b6106796004803603606081101561052b57600080fd5b810190808035906020019064010000000081111561054857600080fd5b82018360208201111561055a57600080fd5b8035906020019184600183028401116401000000008311171561057c57600080fd5b91908080601f016020809104026020016040519081016040528093929190818152602001838380828437600081840152601f19601f820116905080830192505050505050509192919290803590602001906401000000008111156105df57600080fd5b8201836020820111156105f157600080fd5b8035906020019184600183028401116401000000008311171561061357600080fd5b91908080601f016020809104026020016040519081016040528093929190818152602001838380828437600081840152601f19601f820116905080830192505050505050509192919290803567ffffffffffffffff169060200190929190505050610bcc565b6040518082600860200280838360005b838110156106a4578082015181840152602081019050610689565b5050505090500191505060405180910390f35b61071c60048036036101008110156106ce57600080fd5b810190808061010001906008806020026040519081016040528092919082600860200280828437600081840152601f19601f8201169050808301925050505050509192919290505050610c08565b6040518082600260200280838360005b8381101561074757808201518184015260208101905061072c565b5050505090500191505060405180910390f35b6107866004803603602081101561077057600080fd5b8101908080359060200190929190505050610ca9565b604051808267ffffffffffffffff16815260200191505060405180910390f35b61085b60048036036102c08110156107bd57600080fd5b810190808061020001906010806020026040519081016040528092919082601060200280828437600081840152601f19601f820116905080830192505050505050919291929080359060200190929190803590602001909291908035906020019092919080359060200190929190803567ffffffffffffffff169060200190929190803567ffffffffffffffff169060200190929190505050610cda565b005b61089d6004803603604081101561087357600080fd5b81019080803567ffffffffffffffff16906020019092919080359060200190929190505050610eae565b604051808267ffffffffffffffff16815260200191505060405180910390f35b6108c5612b25565b6108cd612b48565b6108d5612b25565b6108f28285896108e48a610a63565b6108ed8a610a63565b610ecf565b6108fc82896111da565b61090682826112e6565b7fde1a9fb355752f7765552010c12ee02e62eaa7b0502f3088e6b5398ce8686a38816040518082600860200280838360005b83811015610953578082015181840152602081019050610938565b5050505090500191505060405180910390a1809250505095945050505050565b600067010000000000000060ff8316026501000000000061ff00841602630100000062ff000085160261010063ff00000086160261010067ffffffffffffffff1664ff00000000871667ffffffffffffffff16816109cd57fe5b04630100000067ffffffffffffffff1665ff0000000000881667ffffffffffffffff16816109f757fe5b046501000000000067ffffffffffffffff1666ff000000000000891667ffffffffffffffff1681610a2457fe5b0467010000000000000067ffffffffffffffff1667ff000000000000008a1667ffffffffffffffff1681610a5457fe5b04181818181818189050919050565b610a6b612b9f565b60005b8251811015610b0e57610ab0838281518110610a8657fe5b602001015160f81c60f81b60f81c60ff16600160088481610aa357fe5b0601600802604003610ba0565b8260088381610abb57fe5b0460028110610ac657fe5b6020020151188260088381610ad757fe5b0460028110610ae257fe5b602002019067ffffffffffffffff16908167ffffffffffffffff16815250508080600101915050610a6e565b50610b2981600060028110610b1f57fe5b6020020151610973565b81600060028110610b3657fe5b602002019067ffffffffffffffff16908167ffffffffffffffff1681525050610b6f81600160028110610b6557fe5b6020020151610973565b81600160028110610b7c57fe5b602002019067ffffffffffffffff16908167ffffffffffffffff1681525050919050565b6000680100000000000000008260020a8467ffffffffffffffff160281610bc357fe5b06905092915050565b610bd4612b25565b610bff84846040518060200160405280600081525060405180602001604052806000815250866108bd565b90509392505050565b610c10612bc1565b610c18612bc1565b60005b6008811015610c9f5760048181610c2e57fe5b0660030360400260020a848260088110610c4457fe5b602002015167ffffffffffffffff160260001b8260048381610c6257fe5b0460028110610c6d57fe5b6020020151188260048381610c7e57fe5b0460028110610c8957fe5b6020020181815250508080600101915050610c1b565b5080915050919050565b60008160088110610cb657fe5b60049182820401919006600802915054906101000a900467ffffffffffffffff1681565b6000878760108110610ce857fe5b602002015190506000888760108110610cfd57fe5b602002015190506000898760108110610d1257fe5b6020020151905060008a8760108110610d2757fe5b60200201519050680100000000000000008684860108935068010000000000000000640100000000858318096401000000008583180418905068010000000000000000818308915068010000000000000000650100000000008385180963010000008385180418925068010000000000000000858486010893506801000000000000000066010000000000008583180962010000858318041890506801000000000000000081830891506801000000000000000060028385180967800000000000000083851804189250838b8b60108110610dfe57fe5b602002019067ffffffffffffffff16908167ffffffffffffffff1681525050828b8a60108110610e2a57fe5b602002019067ffffffffffffffff16908167ffffffffffffffff1681525050818b8960108110610e5657fe5b602002019067ffffffffffffffff16908167ffffffffffffffff1681525050808b8860108110610e8257fe5b602002019067ffffffffffffffff16908167ffffffffffffffff16815250505050505050505050505050565b60008160020a8367ffffffffffffffff1681610ec657fe5b04905092915050565b60008467ffffffffffffffff161480610ef2575060408467ffffffffffffffff16115b80610efe575060408351115b15610f54576040517f08c379a000000000000000000000000000000000000000000000000000000000815260040180806020018281038252602e815260200180612c29602e913960400191505060405180910390fd5b60005b6008811015610fc95760008160088110610f6d57fe5b600491828204019190066008029054906101000a900467ffffffffffffffff1686602001518260088110610f9d57fe5b602002019067ffffffffffffffff16908167ffffffffffffffff16815250508080600101915050610f57565b5083610fd784516008610ba0565b63010100008760200151600060088110610fed57fe5b6020020151181818856020015160006008811061100657fe5b602002019067ffffffffffffffff16908167ffffffffffffffff16815250508160006002811061103257fe5b6020020151856020015160046008811061104857fe5b602002015118856020015160046008811061105f57fe5b602002019067ffffffffffffffff16908167ffffffffffffffff16815250508160016002811061108b57fe5b602002015185602001516005600881106110a157fe5b60200201511885602001516005600881106110b857fe5b602002019067ffffffffffffffff16908167ffffffffffffffff1681525050806000600281106110e457fe5b602002015185602001516006600881106110fa57fe5b602002015118856020015160066008811061111157fe5b602002019067ffffffffffffffff16908167ffffffffffffffff16815250508060016002811061113d57fe5b6020020151856020015160076008811061115357fe5b602002015118856020015160076008811061116a57fe5b602002019067ffffffffffffffff16908167ffffffffffffffff16815250508367ffffffffffffffff168560800181815250506000835111156111d3576111b185846111da565b6080856060019067ffffffffffffffff16908167ffffffffffffffff16815250505b5050505050565b60005b81518110156112e1576080836060015167ffffffffffffffff16141561126e57826060015167ffffffffffffffff1683604001818151019150906fffffffffffffffffffffffffffffffff1690816fffffffffffffffffffffffffffffffff168152505061124c836000611437565b6000836060019067ffffffffffffffff16908167ffffffffffffffff16815250505b600083606001805180919060010167ffffffffffffffff1667ffffffffffffffff1681525067ffffffffffffffff1690506112a7612be3565b8460000151905060008484815181106112bc57fe5b602001015160f81c60f81b60f81c9050808383015350505080806001019150506111dd565b505050565b816060015167ffffffffffffffff1682604001818151019150906fffffffffffffffffffffffffffffffff1690816fffffffffffffffffffffffffffffffff1681525050611335826001611437565b60005b600883608001518161134657fe5b048110156113a35761136b8360200151826008811061136157fe5b6020020151610973565b82826008811061137757fe5b602002019067ffffffffffffffff16908167ffffffffffffffff16815250508080600101915050611338565b50604082608001511015611433576113f96113df836020015160088560800151816113ca57fe5b04600881106113d557fe5b6020020151610973565b60088460800151816113ed57fe5b06600802604003610eae565b81600884608001518161140857fe5b046008811061141357fe5b602002019067ffffffffffffffff16908167ffffffffffffffff16815250505b5050565b61143f612c05565b611447612c05565b60005b60088110156114fb578460200151816008811061146357fe5b602002015183826010811061147457fe5b602002019067ffffffffffffffff16908167ffffffffffffffff1681525050600081600881106114a057fe5b600491828204019190066008029054906101000a900467ffffffffffffffff168360088301601081106114cf57fe5b602002019067ffffffffffffffff16908167ffffffffffffffff1681525050808060010191505061144a565b506801000000000000000084604001516fffffffffffffffffffffffffffffffff168161152457fe5b0682600c6010811061153257fe5b60200201511882600c6010811061154557fe5b602002019067ffffffffffffffff16908167ffffffffffffffff16815250506801000000000000000084604001516fffffffffffffffffffffffffffffffff168161158c57fe5b0482600d6010811061159a57fe5b60200201511882600d601081106115ad57fe5b602002019067ffffffffffffffff16908167ffffffffffffffff168152505082156116125781600e601081106115df57fe5b60200201511982600e601081106115f257fe5b602002019067ffffffffffffffff16908167ffffffffffffffff16815250505b60008060005b60108110156116b95760006004828161162d57fe5b06905060009350600081141561165f5787600001516004838161164c57fe5b046004811061165757fe5b602002015192505b67ffffffffffffffff8160030360400260020a840416935061168084610973565b85836010811061168c57fe5b602002019067ffffffffffffffff16908167ffffffffffffffff1681525050508080600101915050611618565b506116ef84600060046008600c886000601081106116d357fe5b6020020151896001601081106116e557fe5b6020020151610cda565b61172484600160056009600d8860026010811061170857fe5b60200201518960036010811061171a57fe5b6020020151610cda565b6117598460026006600a600e8860046010811061173d57fe5b60200201518960056010811061174f57fe5b6020020151610cda565b61178e8460036007600b600f8860066010811061177257fe5b60200201518960076010811061178457fe5b6020020151610cda565b6117c38460006005600a600f886008601081106117a757fe5b6020020151896009601081106117b957fe5b6020020151610cda565b6117f88460016006600b600c88600a601081106117dc57fe5b602002015189600b601081106117ee57fe5b6020020151610cda565b61182d84600260076008600d88600c6010811061181157fe5b602002015189600d6010811061182357fe5b6020020151610cda565b61186284600360046009600e88600e6010811061184657fe5b602002015189600f6010811061185857fe5b6020020151610cda565b61189784600060046008600c88600e6010811061187b57fe5b602002015189600a6010811061188d57fe5b6020020151610cda565b6118cc84600160056009600d886004601081106118b057fe5b6020020151896008601081106118c257fe5b6020020151610cda565b6119018460026006600a600e886009601081106118e557fe5b602002015189600f601081106118f757fe5b6020020151610cda565b6119368460036007600b600f88600d6010811061191a57fe5b60200201518960066010811061192c57fe5b6020020151610cda565b61196b8460006005600a600f8860016010811061194f57fe5b602002015189600c6010811061196157fe5b6020020151610cda565b6119a08460016006600b600c8860006010811061198457fe5b60200201518960026010811061199657fe5b6020020151610cda565b6119d584600260076008600d88600b601081106119b957fe5b6020020151896007601081106119cb57fe5b6020020151610cda565b611a0a84600360046009600e886005601081106119ee57fe5b602002015189600360108110611a0057fe5b6020020151610cda565b611a3f84600060046008600c88600b60108110611a2357fe5b602002015189600860108110611a3557fe5b6020020151610cda565b611a7484600160056009600d88600c60108110611a5857fe5b602002015189600060108110611a6a57fe5b6020020151610cda565b611aa98460026006600a600e88600560108110611a8d57fe5b602002015189600260108110611a9f57fe5b6020020151610cda565b611ade8460036007600b600f88600f60108110611ac257fe5b602002015189600d60108110611ad457fe5b6020020151610cda565b611b138460006005600a600f88600a60108110611af757fe5b602002015189600e60108110611b0957fe5b6020020151610cda565b611b488460016006600b600c88600360108110611b2c57fe5b602002015189600660108110611b3e57fe5b6020020151610cda565b611b7d84600260076008600d88600760108110611b6157fe5b602002015189600160108110611b7357fe5b6020020151610cda565b611bb284600360046009600e88600960108110611b9657fe5b602002015189600460108110611ba857fe5b6020020151610cda565b611be784600060046008600c88600760108110611bcb57fe5b602002015189600960108110611bdd57fe5b6020020151610cda565b611c1c84600160056009600d88600360108110611c0057fe5b602002015189600160108110611c1257fe5b6020020151610cda565b611c518460026006600a600e88600d60108110611c3557fe5b602002015189600c60108110611c4757fe5b6020020151610cda565b611c868460036007600b600f88600b60108110611c6a57fe5b602002015189600e60108110611c7c57fe5b6020020151610cda565b611cbb8460006005600a600f88600260108110611c9f57fe5b602002015189600660108110611cb157fe5b6020020151610cda565b611cf08460016006600b600c88600560108110611cd457fe5b602002015189600a60108110611ce657fe5b6020020151610cda565b611d2584600260076008600d88600460108110611d0957fe5b602002015189600060108110611d1b57fe5b6020020151610cda565b611d5a84600360046009600e88600f60108110611d3e57fe5b602002015189600860108110611d5057fe5b6020020151610cda565b611d8f84600060046008600c88600960108110611d7357fe5b602002015189600060108110611d8557fe5b6020020151610cda565b611dc484600160056009600d88600560108110611da857fe5b602002015189600760108110611dba57fe5b6020020151610cda565b611df98460026006600a600e88600260108110611ddd57fe5b602002015189600460108110611def57fe5b6020020151610cda565b611e2e8460036007600b600f88600a60108110611e1257fe5b602002015189600f60108110611e2457fe5b6020020151610cda565b611e638460006005600a600f88600e60108110611e4757fe5b602002015189600160108110611e5957fe5b6020020151610cda565b611e988460016006600b600c88600b60108110611e7c57fe5b602002015189600c60108110611e8e57fe5b6020020151610cda565b611ecd84600260076008600d88600660108110611eb157fe5b602002015189600860108110611ec357fe5b6020020151610cda565b611f0284600360046009600e88600360108110611ee657fe5b602002015189600d60108110611ef857fe5b6020020151610cda565b611f3784600060046008600c88600260108110611f1b57fe5b602002015189600c60108110611f2d57fe5b6020020151610cda565b611f6c84600160056009600d88600660108110611f5057fe5b602002015189600a60108110611f6257fe5b6020020151610cda565b611fa18460026006600a600e88600060108110611f8557fe5b602002015189600b60108110611f9757fe5b6020020151610cda565b611fd68460036007600b600f88600860108110611fba57fe5b602002015189600360108110611fcc57fe5b6020020151610cda565b61200b8460006005600a600f88600460108110611fef57fe5b602002015189600d6010811061200157fe5b6020020151610cda565b6120408460016006600b600c8860076010811061202457fe5b60200201518960056010811061203657fe5b6020020151610cda565b61207584600260076008600d88600f6010811061205957fe5b602002015189600e6010811061206b57fe5b6020020151610cda565b6120aa84600360046009600e8860016010811061208e57fe5b6020020151896009601081106120a057fe5b6020020151610cda565b6120df84600060046008600c88600c601081106120c357fe5b6020020151896005601081106120d557fe5b6020020151610cda565b61211484600160056009600d886001601081106120f857fe5b602002015189600f6010811061210a57fe5b6020020151610cda565b6121498460026006600a600e88600e6010811061212d57fe5b602002015189600d6010811061213f57fe5b6020020151610cda565b61217e8460036007600b600f8860046010811061216257fe5b602002015189600a6010811061217457fe5b6020020151610cda565b6121b38460006005600a600f8860006010811061219757fe5b6020020151896007601081106121a957fe5b6020020151610cda565b6121e88460016006600b600c886006601081106121cc57fe5b6020020151896003601081106121de57fe5b6020020151610cda565b61221d84600260076008600d8860096010811061220157fe5b60200201518960026010811061221357fe5b6020020151610cda565b61225284600360046009600e8860086010811061223657fe5b602002015189600b6010811061224857fe5b6020020151610cda565b61228784600060046008600c88600d6010811061226b57fe5b602002015189600b6010811061227d57fe5b6020020151610cda565b6122bc84600160056009600d886007601081106122a057fe5b602002015189600e601081106122b257fe5b6020020151610cda565b6122f18460026006600a600e88600c601081106122d557fe5b6020020151896001601081106122e757fe5b6020020151610cda565b6123268460036007600b600f8860036010811061230a57fe5b60200201518960096010811061231c57fe5b6020020151610cda565b61235b8460006005600a600f8860056010811061233f57fe5b60200201518960006010811061235157fe5b6020020151610cda565b6123908460016006600b600c88600f6010811061237457fe5b60200201518960046010811061238657fe5b6020020151610cda565b6123c584600260076008600d886008601081106123a957fe5b6020020151896006601081106123bb57fe5b6020020151610cda565b6123fa84600360046009600e886002601081106123de57fe5b602002015189600a601081106123f057fe5b6020020151610cda565b61242f84600060046008600c8860066010811061241357fe5b602002015189600f6010811061242557fe5b6020020151610cda565b61246484600160056009600d88600e6010811061244857fe5b60200201518960096010811061245a57fe5b6020020151610cda565b6124998460026006600a600e88600b6010811061247d57fe5b60200201518960036010811061248f57fe5b6020020151610cda565b6124ce8460036007600b600f886000601081106124b257fe5b6020020151896008601081106124c457fe5b6020020151610cda565b6125038460006005600a600f88600c601081106124e757fe5b6020020151896002601081106124f957fe5b6020020151610cda565b6125388460016006600b600c88600d6010811061251c57fe5b60200201518960076010811061252e57fe5b6020020151610cda565b61256d84600260076008600d8860016010811061255157fe5b60200201518960046010811061256357fe5b6020020151610cda565b6125a284600360046009600e88600a6010811061258657fe5b60200201518960056010811061259857fe5b6020020151610cda565b6125d784600060046008600c88600a601081106125bb57fe5b6020020151896002601081106125cd57fe5b6020020151610cda565b61260c84600160056009600d886008601081106125f057fe5b60200201518960046010811061260257fe5b6020020151610cda565b6126418460026006600a600e8860076010811061262557fe5b60200201518960066010811061263757fe5b6020020151610cda565b6126768460036007600b600f8860016010811061265a57fe5b60200201518960056010811061266c57fe5b6020020151610cda565b6126ab8460006005600a600f88600f6010811061268f57fe5b602002015189600b601081106126a157fe5b6020020151610cda565b6126e08460016006600b600c886009601081106126c457fe5b602002015189600e601081106126d657fe5b6020020151610cda565b61271584600260076008600d886003601081106126f957fe5b602002015189600c6010811061270b57fe5b6020020151610cda565b61274a84600360046009600e88600d6010811061272e57fe5b60200201518960006010811061274057fe5b6020020151610cda565b61277f84600060046008600c8860006010811061276357fe5b60200201518960016010811061277557fe5b6020020151610cda565b6127b484600160056009600d8860026010811061279857fe5b6020020151896003601081106127aa57fe5b6020020151610cda565b6127e98460026006600a600e886004601081106127cd57fe5b6020020151896005601081106127df57fe5b6020020151610cda565b61281e8460036007600b600f8860066010811061280257fe5b60200201518960076010811061281457fe5b6020020151610cda565b6128538460006005600a600f8860086010811061283757fe5b60200201518960096010811061284957fe5b6020020151610cda565b6128888460016006600b600c88600a6010811061286c57fe5b602002015189600b6010811061287e57fe5b6020020151610cda565b6128bd84600260076008600d88600c601081106128a157fe5b602002015189600d601081106128b357fe5b6020020151610cda565b6128f284600360046009600e88600e601081106128d657fe5b602002015189600f601081106128e857fe5b6020020151610cda565b61292784600060046008600c88600e6010811061290b57fe5b602002015189600a6010811061291d57fe5b6020020151610cda565b61295c84600160056009600d8860046010811061294057fe5b60200201518960086010811061295257fe5b6020020151610cda565b6129918460026006600a600e8860096010811061297557fe5b602002015189600f6010811061298757fe5b6020020151610cda565b6129c68460036007600b600f88600d601081106129aa57fe5b6020020151896006601081106129bc57fe5b6020020151610cda565b6129fb8460006005600a600f886001601081106129df57fe5b602002015189600c601081106129f157fe5b6020020151610cda565b612a308460016006600b600c88600060108110612a1457fe5b602002015189600260108110612a2657fe5b6020020151610cda565b612a6584600260076008600d88600b60108110612a4957fe5b602002015189600760108110612a5b57fe5b6020020151610cda565b612a9a84600360046009600e88600560108110612a7e57fe5b602002015189600360108110612a9057fe5b6020020151610cda565b60005b6008811015612b1c57846008820160108110612ab557fe5b6020020151858260108110612ac657fe5b602002015188602001518360088110612adb57fe5b6020020151181887602001518260088110612af257fe5b602002019067ffffffffffffffff16908167ffffffffffffffff1681525050806001019050612a9d565b50505050505050565b604051806101000160405280600890602082028036833780820191505090505090565b6040518060a00160405280612b5b612be3565b8152602001612b68612b25565b815260200160006fffffffffffffffffffffffffffffffff168152602001600067ffffffffffffffff168152602001600081525090565b6040518060400160405280600290602082028036833780820191505090505090565b6040518060400160405280600290602082028036833780820191505090505090565b6040518060800160405280600490602082028036833780820191505090505090565b60405180610200016040528060109060208202803683378082019150509050509056fe4f75746c656e206d7573742062652067726561746572207468616e203020616e64206c657373207468616e203634a2646970667358221220c20e8e42de5e831a2015c3002cd091934adddba10d4c9ab4a135949479e8c90a64736f6c634300060c0033",
  "immutableReferences": {},
  "source": "// SPDX-License-Identifier: MIT\n// Bridge between ethereum and verus\n\npragma solidity >=0.5.16 <0.7.1;\nimport \"./BLAKE2b_Constants.sol\";\n\ncontract BLAKE2b is BLAKE2_Constants{\n\n  struct BLAKE2b_ctx {\n    uint256[4] b; //input buffer\n    uint64[8] h;  //chained state\n    uint128 t; //total bytes\n    uint64 c; //Size of b\n    uint outlen; //diigest output size\n  }\n\nevent BlakeResult(uint64[8] blakeArray);\n\n  // Mixing Function\n  function G(uint64[16] memory v, uint a, uint b, uint c, uint d, uint64 x, uint64 y) public pure {\n\n       // Dereference to decrease memory reads\n       uint64 va = v[a];\n       uint64 vb = v[b];\n       uint64 vc = v[c];\n       uint64 vd = v[d];\n\n       //Optimised mixing function\n       assembly{\n         // v[a] := (v[a] + v[b] + x) mod 2**64\n         va := addmod(add(va,vb),x, 0x10000000000000000)\n         //v[d] := (v[d] ^ v[a]) >>> 32\n         vd := xor(div(xor(vd,va), 0x100000000), mulmod(xor(vd, va),0x100000000, 0x10000000000000000))\n         //v[c] := (v[c] + v[d])     mod 2**64\n         vc := addmod(vc,vd, 0x10000000000000000)\n         //v[b] := (v[b] ^ v[c]) >>> 24\n         vb := xor(div(xor(vb,vc), 0x1000000), mulmod(xor(vb, vc),0x10000000000, 0x10000000000000000))\n         // v[a] := (v[a] + v[b] + y) mod 2**64\n         va := addmod(add(va,vb),y, 0x10000000000000000)\n         //v[d] := (v[d] ^ v[a]) >>> 16\n         vd := xor(div(xor(vd,va), 0x10000), mulmod(xor(vd, va),0x1000000000000, 0x10000000000000000))\n         //v[c] := (v[c] + v[d])     mod 2**64\n         vc := addmod(vc,vd, 0x10000000000000000)\n         // v[b] := (v[b] ^ v[c]) >>> 63\n         vb := xor(div(xor(vb,vc), 0x8000000000000000), mulmod(xor(vb, vc),0x2, 0x10000000000000000))\n       }\n\n       v[a] = va;\n       v[b] = vb;\n       v[c] = vc;\n       v[d] = vd;\n  }\n\n\n  function compress(BLAKE2b_ctx memory ctx, bool last) internal view {\n    //TODO: Look into storing these as uint256[4]\n    uint64[16] memory v;\n    uint64[16] memory m;\n\n\n    for(uint i = 0; i<8; i++){\n      v[i] = ctx.h[i]; // v[:8] = h[:8]\n      v[i+8] = IV[i];  // v[8:] = IV\n    }\n\n    //\n    v[12] = v[12] ^ uint64(ctx.t % 2**64);  //Lower word of t\n    v[13] = v[13] ^ uint64(ctx.t / 2**64);\n\n    if(last) v[14] = ~v[14];   //Finalization flag\n\n    uint64 mi;  //Temporary stack variable to decrease memory ops\n    uint b; // Input buffer\n\n    for(uint i = 0; i < 16; i++){ //Operate 16 words at a time\n      uint k = i%4; //Current buffer word\n      mi = 0;\n      if(k == 0){\n        b = ctx.b[i/4];  //Load relevant input into buffer\n      }\n\n      //Extract relevent input from buffer\n      assembly{\n        mi := and(div(b,exp(2,mul(64,sub(3,k)))), 0xFFFFFFFFFFFFFFFF)\n      }\n\n      //Flip endianness\n      m[i] = getWords(mi);\n    }\n\n    //Mix m\n\n          G(v, 0, 4, 8, 12, m[0], m[1]);\n          G(v, 1, 5, 9, 13, m[2], m[3]);\n          G(v, 2, 6, 10, 14, m[4], m[5]);\n          G(v, 3, 7, 11, 15, m[6], m[7]);\n          G(v, 0, 5, 10, 15, m[8], m[9]);\n          G(v, 1, 6, 11, 12, m[10], m[11]);\n          G(v, 2, 7, 8, 13, m[12], m[13]);\n          G(v, 3, 4, 9, 14, m[14], m[15]);\n\n\n          G(v, 0, 4, 8, 12, m[14], m[10]);\n          G(v, 1, 5, 9, 13, m[4], m[8]);\n          G(v, 2, 6, 10, 14, m[9], m[15]);\n          G(v, 3, 7, 11, 15, m[13], m[6]);\n          G(v, 0, 5, 10, 15, m[1], m[12]);\n          G(v, 1, 6, 11, 12, m[0], m[2]);\n          G(v, 2, 7, 8, 13, m[11], m[7]);\n          G(v, 3, 4, 9, 14, m[5], m[3]);\n\n\n          G(v, 0, 4, 8, 12, m[11], m[8]);\n          G(v, 1, 5, 9, 13, m[12], m[0]);\n          G(v, 2, 6, 10, 14, m[5], m[2]);\n          G(v, 3, 7, 11, 15, m[15], m[13]);\n          G(v, 0, 5, 10, 15, m[10], m[14]);\n          G(v, 1, 6, 11, 12, m[3], m[6]);\n          G(v, 2, 7, 8, 13, m[7], m[1]);\n          G(v, 3, 4, 9, 14, m[9], m[4]);\n\n\n          G(v, 0, 4, 8, 12, m[7], m[9]);\n          G(v, 1, 5, 9, 13, m[3], m[1]);\n          G(v, 2, 6, 10, 14, m[13], m[12]);\n          G(v, 3, 7, 11, 15, m[11], m[14]);\n          G(v, 0, 5, 10, 15, m[2], m[6]);\n          G(v, 1, 6, 11, 12, m[5], m[10]);\n          G(v, 2, 7, 8, 13, m[4], m[0]);\n          G(v, 3, 4, 9, 14, m[15], m[8]);\n\n\n          G(v, 0, 4, 8, 12, m[9], m[0]);\n          G(v, 1, 5, 9, 13, m[5], m[7]);\n          G(v, 2, 6, 10, 14, m[2], m[4]);\n          G(v, 3, 7, 11, 15, m[10], m[15]);\n          G(v, 0, 5, 10, 15, m[14], m[1]);\n          G(v, 1, 6, 11, 12, m[11], m[12]);\n          G(v, 2, 7, 8, 13, m[6], m[8]);\n          G(v, 3, 4, 9, 14, m[3], m[13]);\n\n\n          G(v, 0, 4, 8, 12, m[2], m[12]);\n          G(v, 1, 5, 9, 13, m[6], m[10]);\n          G(v, 2, 6, 10, 14, m[0], m[11]);\n          G(v, 3, 7, 11, 15, m[8], m[3]);\n          G(v, 0, 5, 10, 15, m[4], m[13]);\n          G(v, 1, 6, 11, 12, m[7], m[5]);\n          G(v, 2, 7, 8, 13, m[15], m[14]);\n          G(v, 3, 4, 9, 14, m[1], m[9]);\n\n\n          G(v, 0, 4, 8, 12, m[12], m[5]);\n          G(v, 1, 5, 9, 13, m[1], m[15]);\n          G(v, 2, 6, 10, 14, m[14], m[13]);\n          G(v, 3, 7, 11, 15, m[4], m[10]);\n          G(v, 0, 5, 10, 15, m[0], m[7]);\n          G(v, 1, 6, 11, 12, m[6], m[3]);\n          G(v, 2, 7, 8, 13, m[9], m[2]);\n          G(v, 3, 4, 9, 14, m[8], m[11]);\n\n\n          G(v, 0, 4, 8, 12, m[13], m[11]);\n          G(v, 1, 5, 9, 13, m[7], m[14]);\n          G(v, 2, 6, 10, 14, m[12], m[1]);\n          G(v, 3, 7, 11, 15, m[3], m[9]);\n          G(v, 0, 5, 10, 15, m[5], m[0]);\n          G(v, 1, 6, 11, 12, m[15], m[4]);\n          G(v, 2, 7, 8, 13, m[8], m[6]);\n          G(v, 3, 4, 9, 14, m[2], m[10]);\n\n\n          G(v, 0, 4, 8, 12, m[6], m[15]);\n          G(v, 1, 5, 9, 13, m[14], m[9]);\n          G(v, 2, 6, 10, 14, m[11], m[3]);\n          G(v, 3, 7, 11, 15, m[0], m[8]);\n          G(v, 0, 5, 10, 15, m[12], m[2]);\n          G(v, 1, 6, 11, 12, m[13], m[7]);\n          G(v, 2, 7, 8, 13, m[1], m[4]);\n          G(v, 3, 4, 9, 14, m[10], m[5]);\n\n\n          G(v, 0, 4, 8, 12, m[10], m[2]);\n          G(v, 1, 5, 9, 13, m[8], m[4]);\n          G(v, 2, 6, 10, 14, m[7], m[6]);\n          G(v, 3, 7, 11, 15, m[1], m[5]);\n          G(v, 0, 5, 10, 15, m[15], m[11]);\n          G(v, 1, 6, 11, 12, m[9], m[14]);\n          G(v, 2, 7, 8, 13, m[3], m[12]);\n          G(v, 3, 4, 9, 14, m[13], m[0]);\n\n\n          G(v, 0, 4, 8, 12, m[0], m[1]);\n          G(v, 1, 5, 9, 13, m[2], m[3]);\n          G(v, 2, 6, 10, 14, m[4], m[5]);\n          G(v, 3, 7, 11, 15, m[6], m[7]);\n          G(v, 0, 5, 10, 15, m[8], m[9]);\n          G(v, 1, 6, 11, 12, m[10], m[11]);\n          G(v, 2, 7, 8, 13, m[12], m[13]);\n          G(v, 3, 4, 9, 14, m[14], m[15]);\n\n\n          G(v, 0, 4, 8, 12, m[14], m[10]);\n          G(v, 1, 5, 9, 13, m[4], m[8]);\n          G(v, 2, 6, 10, 14, m[9], m[15]);\n          G(v, 3, 7, 11, 15, m[13], m[6]);\n          G(v, 0, 5, 10, 15, m[1], m[12]);\n          G(v, 1, 6, 11, 12, m[0], m[2]);\n          G(v, 2, 7, 8, 13, m[11], m[7]);\n          G(v, 3, 4, 9, 14, m[5], m[3]);\n\n\n\n    //XOR current state with both halves of v\n    for(uint i = 0; i<8; ++i){\n      ctx.h[i] = ctx.h[i] ^ v[i] ^ v[i+8];\n    }\n\n  }\n\n\n  function init(BLAKE2b_ctx memory ctx, uint64 outlen, bytes memory key, uint64[2] memory salt, uint64[2] memory person) internal{\n\n      if(outlen == 0 || outlen > 64 || key.length > 64) revert(\"Outlen must be greater than 0 and less than 64\");\n\n      //Initialize chained-state to IV\n      for(uint i = 0; i < 8; i++){\n        ctx.h[i] = IV[i];\n      }\n\n      // Set up parameter block\n      ctx.h[0] = ctx.h[0] ^ 0x01010000 ^ shift_left(uint64(key.length), 8) ^ outlen;\n      ctx.h[4] = ctx.h[4] ^ salt[0];\n      ctx.h[5] = ctx.h[5] ^ salt[1];\n      ctx.h[6] = ctx.h[6] ^ person[0];\n      ctx.h[7] = ctx.h[7] ^ person[1];\n\n      ctx.outlen = outlen;\n\n      //Run hash once with key as input\n      if(key.length > 0){\n        update(ctx, key);\n        ctx.c = 128;\n      }\n  }\n\n\n  function update(BLAKE2b_ctx memory ctx, bytes memory input) internal {\n\n    for(uint i = 0; i < input.length; i++){\n      //If buffer is full, update byte counters and compress\n      if(ctx.c == 128){\n        ctx.t += ctx.c;\n        compress(ctx, false);\n        ctx.c = 0;\n      }\n\n      //Update temporary counter c\n      uint c = ctx.c++;\n\n      // b -> ctx.b\n      uint[4] memory b = ctx.b;\n      uint8 a = uint8(input[i]);\n\n      // ctx.b[c] = a\n      assembly{\n        mstore8(add(b,c),a)\n      }\n    }\n  }\n\n\n  function finalize(BLAKE2b_ctx memory ctx, uint64[8] memory out) internal {\n    // Add any uncounted bytes\n    ctx.t += ctx.c;\n\n    // Compress with finalization flag\n    compress(ctx,true);\n\n    //Flip little to big endian and store in output buffer\n    for(uint i = 0; i < ctx.outlen / 8; i++){\n      out[i] = getWords(ctx.h[i]);\n    }\n\n    //Properly pad output if it doesn't fill a full word\n    if(ctx.outlen < 64){\n      out[ctx.outlen/8] = shift_right(getWords(ctx.h[ctx.outlen/8]),64-8*(ctx.outlen%8));\n    }\n\n  }\n\n  //Helper function for full hash function\n  function blake2b(bytes memory input,\n    bytes memory key,\n    bytes memory salt,\n    bytes memory personalization,\n    uint64 outlen) public returns(uint64[8] memory){\n\n    BLAKE2b_ctx memory ctx;\n    uint64[8] memory out;\n    //out = [uint64(0),uint64(0),uint64(0),uint64(0),uint64(0),uint64(0),uint64(0),uint64(0)];\n    init(ctx, outlen, key, formatInput(salt), formatInput(personalization));\n    //break the input array into 128 byte chunks\n    update(ctx, input);\n    finalize(ctx, out);\n    emit BlakeResult(out);\n    return out;\n  }\n\n  function blake2b(bytes memory input, bytes memory key, uint64 outlen) public returns (uint64[8] memory){\n    \n    return blake2b(input, key, \"\", \"\", outlen);\n    //return([uint64(23),uint64(23),uint64(23),uint64(23),uint64(23),uint64(23),uint64(23),uint64(23)]);\n  }\n\n// Utility functions\n\n  //Flips endianness of words\n  function getWords(uint64 a) public pure returns (uint64 b) {\n    return  (a & MASK_0) / SHIFT_0 ^\n            (a & MASK_1) / SHIFT_1 ^\n            (a & MASK_2) / SHIFT_2 ^\n            (a & MASK_3) / SHIFT_3 ^\n            (a & MASK_4) * SHIFT_3 ^\n            (a & MASK_5) * SHIFT_2 ^\n            (a & MASK_6) * SHIFT_1 ^\n            (a & MASK_7) * SHIFT_0;\n  }\n\n  function shift_right(uint64 a, uint shift) public pure returns(uint64 b){\n    return uint64(a / 2**shift);\n  }\n\n  function shift_left(uint64 a, uint shift) public pure returns(uint64){\n    return uint64((a * 2**shift) % (2**64));\n  }\n\n  //bytes -> uint64[2]\n  function formatInput(bytes memory input) public pure returns (uint64[2] memory output){\n    for(uint i = 0; i<input.length; i++){\n        output[i/8] = output[i/8] ^ shift_left(uint64(uint8(input[i])), 64-8*(i%8+1));\n    }\n        output[0] = getWords(output[0]);\n        output[1] = getWords(output[1]);\n  }\n\n  function formatOutput(uint64[8] memory input) public pure returns(bytes32[2] memory){\n    bytes32[2] memory result;\n\n    for(uint i = 0; i < 8; i++){\n        result[i/4] = result[i/4] ^ bytes32(input[i] * 2**(64*(3-i%4)));\n    }\n    return result;\n  }\n}\n",
  "sourcePath": "/Volumes/UsersSSD/james/Development/komodo-notarisation-solidity/contracts/MMR/BLAKE2b/BLAKE2b.sol",
  "compiler": {
    "name": "solc",
    "version": "0.6.12+commit.27d51765.Emscripten.clang"
  },
  "schemaVersion": "3.2.0",
  "updatedAt": "2020-10-07T11:07:22.840Z",
  "devdoc": {
    "kind": "dev",
    "methods": {},
    "version": 1
  },
  "userdoc": {
    "kind": "user",
    "methods": {},
    "version": 1
  }
}