{
  "contractName": "GasTest",
  "abi": [
    {
      "anonymous": false,
      "inputs": [
        {
          "indexed": false,
          "internalType": "string",
          "name": "message",
          "type": "string"
        },
        {
          "indexed": false,
          "internalType": "int256",
          "name": "gas",
          "type": "int256"
        }
      ],
      "name": "LogGas",
      "type": "event"
    },
    {
      "anonymous": false,
      "inputs": [
        {
          "indexed": false,
          "internalType": "string",
          "name": "message",
          "type": "string"
        },
        {
          "indexed": false,
          "internalType": "bytes32",
          "name": "v",
          "type": "bytes32"
        }
      ],
      "name": "LogVal",
      "type": "event"
    },
    {
      "inputs": [
        {
          "internalType": "string",
          "name": "message",
          "type": "string"
        }
      ],
      "name": "Log",
      "outputs": [],
      "stateMutability": "nonpayable",
      "type": "function"
    }
  ],
  "bytecode": "0x608060405234801561001057600080fd5b506101ef806100206000396000f3fe608060405234801561001057600080fd5b506004361061002b5760003560e01c8063cf34ef5314610030575b600080fd5b6100e96004803603602081101561004657600080fd5b810190808035906020019064010000000081111561006357600080fd5b82018360208201111561007557600080fd5b8035906020019184600183028401116401000000008311171561009757600080fd5b91908080601f016020809104026020016040519081016040528093929190818152602001838380828437600081840152601f19601f8201169050808301925050505050505091929192905050506100eb565b005b60005a905060008054141561010257806000819055505b7f569ce8098633621053be3ba47ba2b19d6f88529159b5e3381ced2d1198a468418261144a8360005403036040518080602001838152602001828103825284818151815260200191508051906020019080838360005b83811015610173578082015181840152602081019050610158565b50505050905090810190601f1680156101a05780820380516001836020036101000a031916815260200191505b50935050505060405180910390a180600081905550505056fea2646970667358221220c96cdeb01fcce60f6fc66f916ffdc748ec7872f9539a887a79423dcfbea8069864736f6c634300060c0033",
  "immutableReferences": {},
  "source": "pragma solidity >=0.5.16 <0.7.1;\ncontract GasTest{\n  uint lastGas;\n  uint constant calibration = 5194;\n  event LogGas(string message, int gas);\n\n  function Log(string memory message) public {\n    uint gasLeft = gasleft();\n      if(lastGas == 0){\n        lastGas = gasLeft;\n      }\n      emit LogGas(message, int(lastGas - gasLeft - calibration));\n      lastGas = gasLeft;\n  }\n\n  event LogVal(string message, bytes32 v);\n}\n",
  "sourcePath": "/Volumes/UsersSSD/james/Development/komodo-notarisation-solidity/contracts/MMR/BLAKE2b/GasTest.sol",
  "compiler": {
    "name": "solc",
    "version": "0.6.12+commit.27d51765.Emscripten.clang"
  },
  "schemaVersion": "3.2.0",
  "updatedAt": "2020-08-17T10:34:43.571Z",
  "devdoc": {
    "kind": "dev",
    "methods": {},
    "version": 1
  },
  "userdoc": {
    "kind": "user",
    "methods": {},
    "version": 1
  }
}