{
  "contractName": "KomodoNotarize",
  "abi": [
    {
      "inputs": [],
      "stateMutability": "nonpayable",
      "type": "constructor"
    },
    {
      "anonymous": false,
      "inputs": [
        {
          "indexed": false,
          "internalType": "address",
          "name": "newAddress",
          "type": "address"
        }
      ],
      "name": "Deprecate",
      "type": "event"
    },
    {
      "anonymous": false,
      "inputs": [
        {
          "components": [
            {
              "internalType": "uint32",
              "name": "version",
              "type": "uint32"
            },
            {
              "internalType": "uint32",
              "name": "protocol",
              "type": "uint32"
            },
            {
              "internalType": "uint160",
              "name": "currencyID",
              "type": "uint160"
            },
            {
              "internalType": "uint160",
              "name": "notaryDest",
              "type": "uint160"
            },
            {
              "internalType": "uint32",
              "name": "notarizationHeight",
              "type": "uint32"
            },
            {
              "internalType": "uint256",
              "name": "mmrRoot",
              "type": "uint256"
            },
            {
              "internalType": "uint256",
              "name": "notarizationPreHash",
              "type": "uint256"
            },
            {
              "internalType": "uint256",
              "name": "compactPower",
              "type": "uint256"
            }
          ],
          "indexed": false,
          "internalType": "struct KomodoNotarize.NotarizedBlock",
          "name": "notarizedBlock",
          "type": "tuple"
        },
        {
          "indexed": false,
          "internalType": "uint64",
          "name": "notarizedBlockHeight",
          "type": "uint64"
        }
      ],
      "name": "NewBlock",
      "type": "event"
    },
    {
      "anonymous": false,
      "inputs": [
        {
          "indexed": true,
          "internalType": "address",
          "name": "previousOwner",
          "type": "address"
        },
        {
          "indexed": true,
          "internalType": "address",
          "name": "newOwner",
          "type": "address"
        }
      ],
      "name": "OwnershipTransferred",
      "type": "event"
    },
    {
      "inputs": [],
      "name": "deprecated",
      "outputs": [
        {
          "internalType": "bool",
          "name": "",
          "type": "bool"
        }
      ],
      "stateMutability": "view",
      "type": "function",
      "constant": true
    },
    {
      "inputs": [],
      "name": "lastBlockHeight",
      "outputs": [
        {
          "internalType": "uint32",
          "name": "",
          "type": "uint32"
        }
      ],
      "stateMutability": "view",
      "type": "function",
      "constant": true
    },
    {
      "inputs": [],
      "name": "owner",
      "outputs": [
        {
          "internalType": "address",
          "name": "",
          "type": "address"
        }
      ],
      "stateMutability": "view",
      "type": "function",
      "constant": true
    },
    {
      "inputs": [],
      "name": "renounceOwnership",
      "outputs": [],
      "stateMutability": "nonpayable",
      "type": "function"
    },
    {
      "inputs": [
        {
          "internalType": "address",
          "name": "newOwner",
          "type": "address"
        }
      ],
      "name": "transferOwnership",
      "outputs": [],
      "stateMutability": "nonpayable",
      "type": "function"
    },
    {
      "inputs": [],
      "name": "upgradedAddress",
      "outputs": [
        {
          "internalType": "address",
          "name": "",
          "type": "address"
        }
      ],
      "stateMutability": "view",
      "type": "function",
      "constant": true
    },
    {
      "inputs": [
        {
          "internalType": "address",
          "name": "_notary",
          "type": "address"
        }
      ],
      "name": "addNotary",
      "outputs": [
        {
          "internalType": "bool",
          "name": "",
          "type": "bool"
        }
      ],
      "stateMutability": "nonpayable",
      "type": "function"
    },
    {
      "inputs": [
        {
          "internalType": "address",
          "name": "_notary",
          "type": "address"
        }
      ],
      "name": "removeNotary",
      "outputs": [
        {
          "internalType": "bool",
          "name": "",
          "type": "bool"
        }
      ],
      "stateMutability": "nonpayable",
      "type": "function"
    },
    {
      "inputs": [
        {
          "components": [
            {
              "internalType": "uint32",
              "name": "version",
              "type": "uint32"
            },
            {
              "internalType": "uint32",
              "name": "protocol",
              "type": "uint32"
            },
            {
              "internalType": "uint160",
              "name": "currencyID",
              "type": "uint160"
            },
            {
              "internalType": "uint160",
              "name": "notaryDest",
              "type": "uint160"
            },
            {
              "internalType": "uint32",
              "name": "notarizationHeight",
              "type": "uint32"
            },
            {
              "internalType": "uint256",
              "name": "mmrRoot",
              "type": "uint256"
            },
            {
              "internalType": "uint256",
              "name": "notarizationPreHash",
              "type": "uint256"
            },
            {
              "internalType": "uint256",
              "name": "compactPower",
              "type": "uint256"
            }
          ],
          "internalType": "struct KomodoNotarize.NotarizedBlock",
          "name": "_notarizedBlockDetail",
          "type": "tuple"
        },
        {
          "components": [
            {
              "internalType": "uint64[]",
              "name": "reserveIn",
              "type": "uint64[]"
            },
            {
              "internalType": "uint64[]",
              "name": "nativeIn",
              "type": "uint64[]"
            },
            {
              "internalType": "uint64[]",
              "name": "reserveOut",
              "type": "uint64[]"
            },
            {
              "internalType": "uint64[]",
              "name": "conversionPrice",
              "type": "uint64[]"
            },
            {
              "internalType": "uint64[]",
              "name": "fees",
              "type": "uint64[]"
            },
            {
              "internalType": "uint64[]",
              "name": "conversionFees",
              "type": "uint64[]"
            }
          ],
          "internalType": "struct KomodoNotarize.CurrencyState",
          "name": "_currencyState",
          "type": "tuple"
        },
        {
          "internalType": "bytes32",
          "name": "_notarizedBlockHash",
          "type": "bytes32"
        },
        {
          "internalType": "bytes32[]",
          "name": "_rs",
          "type": "bytes32[]"
        },
        {
          "internalType": "bytes32[]",
          "name": "_ss",
          "type": "bytes32[]"
        },
        {
          "internalType": "uint8[]",
          "name": "_vs",
          "type": "uint8[]"
        }
      ],
      "name": "setLatestBlock",
      "outputs": [
        {
          "internalType": "bool",
          "name": "",
          "type": "bool"
        }
      ],
      "stateMutability": "nonpayable",
      "type": "function"
    },
    {
      "inputs": [],
      "name": "getLastNotarizedBlock",
      "outputs": [
        {
          "components": [
            {
              "internalType": "uint32",
              "name": "version",
              "type": "uint32"
            },
            {
              "internalType": "uint32",
              "name": "protocol",
              "type": "uint32"
            },
            {
              "internalType": "uint160",
              "name": "currencyID",
              "type": "uint160"
            },
            {
              "internalType": "uint160",
              "name": "notaryDest",
              "type": "uint160"
            },
            {
              "internalType": "uint32",
              "name": "notarizationHeight",
              "type": "uint32"
            },
            {
              "internalType": "uint256",
              "name": "mmrRoot",
              "type": "uint256"
            },
            {
              "internalType": "uint256",
              "name": "notarizationPreHash",
              "type": "uint256"
            },
            {
              "internalType": "uint256",
              "name": "compactPower",
              "type": "uint256"
            }
          ],
          "internalType": "struct KomodoNotarize.NotarizedBlock",
          "name": "",
          "type": "tuple"
        }
      ],
      "stateMutability": "view",
      "type": "function",
      "constant": true
    },
    {
      "inputs": [
        {
          "internalType": "uint32",
          "name": "_blockHeight",
          "type": "uint32"
        }
      ],
      "name": "getNotarizedBlock",
      "outputs": [
        {
          "components": [
            {
              "internalType": "uint32",
              "name": "version",
              "type": "uint32"
            },
            {
              "internalType": "uint32",
              "name": "protocol",
              "type": "uint32"
            },
            {
              "internalType": "uint160",
              "name": "currencyID",
              "type": "uint160"
            },
            {
              "internalType": "uint160",
              "name": "notaryDest",
              "type": "uint160"
            },
            {
              "internalType": "uint32",
              "name": "notarizationHeight",
              "type": "uint32"
            },
            {
              "internalType": "uint256",
              "name": "mmrRoot",
              "type": "uint256"
            },
            {
              "internalType": "uint256",
              "name": "notarizationPreHash",
              "type": "uint256"
            },
            {
              "internalType": "uint256",
              "name": "compactPower",
              "type": "uint256"
            }
          ],
          "internalType": "struct KomodoNotarize.NotarizedBlock",
          "name": "",
          "type": "tuple"
        }
      ],
      "stateMutability": "view",
      "type": "function",
      "constant": true
    },
    {
      "inputs": [],
      "name": "getLastBlockHeight",
      "outputs": [
        {
          "internalType": "uint32",
          "name": "",
          "type": "uint32"
        }
      ],
      "stateMutability": "view",
      "type": "function",
      "constant": true
    },
    {
      "inputs": [],
      "name": "kill",
      "outputs": [],
      "stateMutability": "nonpayable",
      "type": "function"
    },
    {
      "inputs": [
        {
          "internalType": "address",
          "name": "_upgradedAddress",
          "type": "address"
        }
      ],
      "name": "deprecate",
      "outputs": [],
      "stateMutability": "nonpayable",
      "type": "function"
    }
  ],
  "bytecode": "0x60806040526001600760156101000a81548160ff021916908360ff16021790555034801561002c57600080fd5b50600061003d61013860201b60201c565b9050806000806101000a81548173ffffffffffffffffffffffffffffffffffffffff021916908373ffffffffffffffffffffffffffffffffffffffff1602179055508073ffffffffffffffffffffffffffffffffffffffff16600073ffffffffffffffffffffffffffffffffffffffff167f8be0079c531659141344cd1fd0a4f28419497f9722a3daafe3b4186f6b6457e060405160405180910390a3506000600760006101000a81548160ff0219169083151502179055506000600a60006101000a81548160ff021916908360ff16021790555060008060146101000a81548163ffffffff021916908363ffffffff160217905550610140565b600033905090565b6126298061014f6000396000f3fe608060405234801561001057600080fd5b50600436106100ea5760003560e01c8063715018a61161008c5780638da5cb5b116100665780638da5cb5b14610227578063cd794cc114610245578063e53c095614610275578063f2fde38b14610293576100ea565b8063715018a6146101bd5780637d955312146101c757806386785a6f146101f7576100ea565b80630e136b19116100c85780630e136b191461015957806326976e3f1461017757806341c0e1b5146101955780634b60ae631461019f576100ea565b806302394872146100ef5780630588565f1461010d5780630753c30c1461013d575b600080fd5b6100f76102af565b604051610104919061236e565b60405180910390f35b61012760048036038101906101229190611b7a565b610319565b60405161013491906121a7565b60405180910390f35b61015760048036038101906101529190611b7a565b610576565b005b6101616106f2565b60405161016e91906121a7565b60405180910390f35b61017f610705565b60405161018c919061218c565b60405180910390f35b61019d61072b565b005b6101a76107da565b6040516101b4919061236e565b60405180910390f35b6101c56107f0565b005b6101e160048036038101906101dc9190611ba3565b610945565b6040516101ee91906121a7565b60405180910390f35b610211600480360381019061020c9190611b7a565b610c6c565b60405161021e91906121a7565b60405180910390f35b61022f610e7b565b60405161023c919061218c565b60405180910390f35b61025f600480360381019061025a9190611c92565b610ea4565b60405161026c9190612327565b60405180910390f35b61027d610f73565b60405161028a9190612327565b60405180910390f35b6102ad60048036038101906102a89190611b7a565b6110a1565b005b6000600760009054906101000a900460ff1615610301576040517f08c379a00000000000000000000000000000000000000000000000000000000081526004016102f890612207565b60405180910390fd5b600060149054906101000a900463ffffffff16905090565b6000610323611265565b73ffffffffffffffffffffffffffffffffffffffff166000809054906101000a900473ffffffffffffffffffffffffffffffffffffffff1673ffffffffffffffffffffffffffffffffffffffff16146103b1576040517f08c379a00000000000000000000000000000000000000000000000000000000081526004016103a8906122c7565b60405180910390fd5b600760009054906101000a900460ff1615610401576040517f08c379a00000000000000000000000000000000000000000000000000000000081526004016103f890612207565b60405180910390fd5b603c600a60009054906101000a900460ff1660ff1610610456576040517f08c379a000000000000000000000000000000000000000000000000000000000815260040161044d90612287565b60405180910390fd5b600860008373ffffffffffffffffffffffffffffffffffffffff1673ffffffffffffffffffffffffffffffffffffffff16815260200190815260200160002060009054906101000a900460ff16156104e3576040517f08c379a00000000000000000000000000000000000000000000000000000000081526004016104da90612307565b60405180910390fd5b6001600860008473ffffffffffffffffffffffffffffffffffffffff1673ffffffffffffffffffffffffffffffffffffffff16815260200190815260200160002060006101000a81548160ff021916908315150217905550600a600081819054906101000a900460ff168092919060010191906101000a81548160ff021916908360ff1602179055505060019050919050565b61057e611265565b73ffffffffffffffffffffffffffffffffffffffff166000809054906101000a900473ffffffffffffffffffffffffffffffffffffffff1673ffffffffffffffffffffffffffffffffffffffff161461060c576040517f08c379a0000000000000000000000000000000000000000000000000000000008152600401610603906122c7565b60405180910390fd5b600760009054906101000a900460ff161561065c576040517f08c379a000000000000000000000000000000000000000000000000000000000815260040161065390612207565b60405180910390fd5b6001600760006101000a81548160ff02191690831515021790555080600760016101000a81548173ffffffffffffffffffffffffffffffffffffffff021916908373ffffffffffffffffffffffffffffffffffffffff1602179055507fcc358699805e9a8b7f77b522628c7cb9abd07d9efb86b6fb616af1609036a99e816040516106e7919061218c565b60405180910390a150565b600760009054906101000a900460ff1681565b600760019054906101000a900473ffffffffffffffffffffffffffffffffffffffff1681565b610733611265565b73ffffffffffffffffffffffffffffffffffffffff166000809054906101000a900473ffffffffffffffffffffffffffffffffffffffff1673ffffffffffffffffffffffffffffffffffffffff16146107c1576040517f08c379a00000000000000000000000000000000000000000000000000000000081526004016107b8906122c7565b60405180910390fd5b3373ffffffffffffffffffffffffffffffffffffffff16ff5b600060149054906101000a900463ffffffff1681565b6107f8611265565b73ffffffffffffffffffffffffffffffffffffffff166000809054906101000a900473ffffffffffffffffffffffffffffffffffffffff1673ffffffffffffffffffffffffffffffffffffffff1614610886576040517f08c379a000000000000000000000000000000000000000000000000000000000815260040161087d906122c7565b60405180910390fd5b600073ffffffffffffffffffffffffffffffffffffffff166000809054906101000a900473ffffffffffffffffffffffffffffffffffffffff1673ffffffffffffffffffffffffffffffffffffffff167f8be0079c531659141344cd1fd0a4f28419497f9722a3daafe3b4186f6b6457e060405160405180910390a360008060006101000a81548173ffffffffffffffffffffffffffffffffffffffff021916908373ffffffffffffffffffffffffffffffffffffffff160217905550565b6000600760009054906101000a900460ff1615610997576040517f08c379a000000000000000000000000000000000000000000000000000000000815260040161098e90612207565b60405180910390fd5b600860003373ffffffffffffffffffffffffffffffffffffffff1673ffffffffffffffffffffffffffffffffffffffff16815260200190815260200160002060009054906101000a900460ff16610a23576040517f08c379a0000000000000000000000000000000000000000000000000000000008152600401610a1a90612247565b60405180910390fd5b82518451148015610a35575081518451145b610a74576040517f08c379a0000000000000000000000000000000000000000000000000000000008152600401610a6b906122a7565b60405180910390fd5b600060149054906101000a900463ffffffff1663ffffffff16876080015163ffffffff1611610ad8576040517f08c379a0000000000000000000000000000000000000000000000000000000008152600401610acf906122e7565b60405180910390fd5b6060610ae38861126d565b9050610af1868686866112c4565b15610c5c5780600960008a6080015163ffffffff1663ffffffff1681526020019081526020016000209080519060200190610b2d929190611512565b508760800151600060146101000a81548163ffffffff021916908363ffffffff1602179055508660016000820151816000019080519060200190610b72929190611592565b506020820151816001019080519060200190610b8f929190611592565b506040820151816002019080519060200190610bac929190611592565b506060820151816003019080519060200190610bc9929190611592565b506080820151816004019080519060200190610be6929190611592565b5060a0820151816005019080519060200190610c03929190611592565b509050507fdad29582f3039647d6718f2f4496866217b915cd3f2d6fd2f7fb084a263f05ad88600060149054906101000a900463ffffffff16604051610c4a929190612343565b60405180910390a16001915050610c62565b60009150505b9695505050505050565b6000610c76611265565b73ffffffffffffffffffffffffffffffffffffffff166000809054906101000a900473ffffffffffffffffffffffffffffffffffffffff1673ffffffffffffffffffffffffffffffffffffffff1614610d04576040517f08c379a0000000000000000000000000000000000000000000000000000000008152600401610cfb906122c7565b60405180910390fd5b600760009054906101000a900460ff1615610d54576040517f08c379a0000000000000000000000000000000000000000000000000000000008152600401610d4b90612207565b60405180910390fd5b60011515600860008473ffffffffffffffffffffffffffffffffffffffff1673ffffffffffffffffffffffffffffffffffffffff16815260200190815260200160002060009054906101000a900460ff16151514610de7576040517f08c379a0000000000000000000000000000000000000000000000000000000008152600401610dde90612267565b60405180910390fd5b6000600860008473ffffffffffffffffffffffffffffffffffffffff1673ffffffffffffffffffffffffffffffffffffffff16815260200190815260200160002060006101000a81548160ff021916908315150217905550600a600081819054906101000a900460ff16809291906001900391906101000a81548160ff021916908360ff1602179055505060019050919050565b60008060009054906101000a900473ffffffffffffffffffffffffffffffffffffffff16905090565b610eac61164e565b610f6c600960008463ffffffff1663ffffffff1681526020019081526020016000208054600181600116156101000203166002900480601f016020809104026020016040519081016040528092919081815260200182805460018160011615610100020316600290048015610f625780601f10610f3757610100808354040283529160200191610f62565b820191906000526020600020905b815481529060010190602001808311610f4557829003601f168201915b50505050506113c1565b9050919050565b610f7b61164e565b600760009054906101000a900460ff1615610fcb576040517f08c379a0000000000000000000000000000000000000000000000000000000008152600401610fc290612207565b60405180910390fd5b61109c600960008060149054906101000a900463ffffffff1663ffffffff1663ffffffff1681526020019081526020016000208054600181600116156101000203166002900480601f0160208091040260200160405190810160405280929190818152602001828054600181600116156101000203166002900480156110925780601f1061106757610100808354040283529160200191611092565b820191906000526020600020905b81548152906001019060200180831161107557829003601f168201915b50505050506113c1565b905090565b6110a9611265565b73ffffffffffffffffffffffffffffffffffffffff166000809054906101000a900473ffffffffffffffffffffffffffffffffffffffff1673ffffffffffffffffffffffffffffffffffffffff1614611137576040517f08c379a000000000000000000000000000000000000000000000000000000000815260040161112e906122c7565b60405180910390fd5b600073ffffffffffffffffffffffffffffffffffffffff168173ffffffffffffffffffffffffffffffffffffffff1614156111a7576040517f08c379a000000000000000000000000000000000000000000000000000000000815260040161119e90612227565b60405180910390fd5b8073ffffffffffffffffffffffffffffffffffffffff166000809054906101000a900473ffffffffffffffffffffffffffffffffffffffff1673ffffffffffffffffffffffffffffffffffffffff167f8be0079c531659141344cd1fd0a4f28419497f9722a3daafe3b4186f6b6457e060405160405180910390a3806000806101000a81548173ffffffffffffffffffffffffffffffffffffffff021916908373ffffffffffffffffffffffffffffffffffffffff16021790555050565b600033905090565b6060816000015182602001518360400151846060015185608001518660a001518760c001518860e001516040516020016112ae989796959493929190612389565b6040516020818303038152906040529050919050565b600080600080905060008090505b865181101561138a57611320888683815181106112eb57fe5b60200260200101518984815181106112ff57fe5b602002602001015189858151811061131357fe5b60200260200101516114b2565b9250600860008473ffffffffffffffffffffffffffffffffffffffff1673ffffffffffffffffffffffffffffffffffffffff16815260200190815260200160002060009054906101000a900460ff161561137d5781806001019250505b80806001019150506112d2565b50600760159054906101000a900460ff1660ff168160ff16106113b2576001925050506113b9565b6000925050505b949350505050565b6113c961164e565b6113d161164e565b828060200190518101906113e59190611cbb565b88600001896020018a6040018b6060018c6080018d60a0018e60c0018f60e0018881525088815250888152508863ffffffff1663ffffffff168152508873ffffffffffffffffffffffffffffffffffffffff1673ffffffffffffffffffffffffffffffffffffffff168152508873ffffffffffffffffffffffffffffffffffffffff1673ffffffffffffffffffffffffffffffffffffffff168152508863ffffffff1663ffffffff168152508863ffffffff1663ffffffff16815250505050505050505080915050919050565b600080600186868686604051600081526020016040526040516114d894939291906121c2565b6020604051602081039080840390855afa1580156114fa573d6000803e3d6000fd5b50505060206040510351905080915050949350505050565b828054600181600116156101000203166002900490600052602060002090601f016020900481019282601f1061155357805160ff1916838001178555611581565b82800160010185558215611581579182015b82811115611580578251825591602001919060010190611565565b5b50905061158e91906116d1565b5090565b8280548282559060005260206000209060030160049004810192821561163d5791602002820160005b8382111561160757835183826101000a81548167ffffffffffffffff021916908367ffffffffffffffff16021790555092602001926008016020816007010492830192600103026115bb565b801561163b5782816101000a81549067ffffffffffffffff0219169055600801602081600701049283019260010302611607565b505b50905061164a91906116f6565b5090565b604051806101000160405280600063ffffffff168152602001600063ffffffff168152602001600073ffffffffffffffffffffffffffffffffffffffff168152602001600073ffffffffffffffffffffffffffffffffffffffff168152602001600063ffffffff1681526020016000815260200160008152602001600081525090565b6116f391905b808211156116ef5760008160009055506001016116d7565b5090565b90565b61172a91905b8082111561172657600081816101000a81549067ffffffffffffffff0219169055506001016116fc565b5090565b90565b60008135905061173c81612552565b92915050565b600082601f83011261175357600080fd5b813561176661176182612434565b612407565b9150818183526020840193506020810190508385602084028201111561178b57600080fd5b60005b838110156117bb57816117a188826118cb565b84526020840193506020830192505060018101905061178e565b5050505092915050565b600082601f8301126117d657600080fd5b81356117e96117e48261245c565b612407565b9150818183526020840193506020810190508385602084028201111561180e57600080fd5b60005b8381101561183e57816118248882611b50565b845260208401935060208301925050600181019050611811565b5050505092915050565b600082601f83011261185957600080fd5b813561186c61186782612484565b612407565b9150818183526020840193506020810190508385602084028201111561189157600080fd5b60005b838110156118c157816118a78882611b65565b845260208401935060208301925050600181019050611894565b5050505092915050565b6000813590506118da81612569565b92915050565b600060c082840312156118f257600080fd5b6118fc60c0612407565b9050600082013567ffffffffffffffff81111561191857600080fd5b611924848285016117c5565b600083015250602082013567ffffffffffffffff81111561194457600080fd5b611950848285016117c5565b602083015250604082013567ffffffffffffffff81111561197057600080fd5b61197c848285016117c5565b604083015250606082013567ffffffffffffffff81111561199c57600080fd5b6119a8848285016117c5565b606083015250608082013567ffffffffffffffff8111156119c857600080fd5b6119d4848285016117c5565b60808301525060a082013567ffffffffffffffff8111156119f457600080fd5b611a00848285016117c5565b60a08301525092915050565b60006101008284031215611a1f57600080fd5b611a2a610100612407565b90506000611a3a84828501611b26565b6000830152506020611a4e84828501611b26565b6020830152506040611a6284828501611ad2565b6040830152506060611a7684828501611ad2565b6060830152506080611a8a84828501611b26565b60808301525060a0611a9e84828501611afc565b60a08301525060c0611ab284828501611afc565b60c08301525060e0611ac684828501611afc565b60e08301525092915050565b600081359050611ae181612580565b92915050565b600081519050611af681612580565b92915050565b600081359050611b0b81612597565b92915050565b600081519050611b2081612597565b92915050565b600081359050611b35816125ae565b92915050565b600081519050611b4a816125ae565b92915050565b600081359050611b5f816125c5565b92915050565b600081359050611b74816125dc565b92915050565b600060208284031215611b8c57600080fd5b6000611b9a8482850161172d565b91505092915050565b6000806000806000806101a08789031215611bbd57600080fd5b6000611bcb89828a01611a0c565b96505061010087013567ffffffffffffffff811115611be957600080fd5b611bf589828a016118e0565b955050610120611c0789828a016118cb565b94505061014087013567ffffffffffffffff811115611c2557600080fd5b611c3189828a01611742565b93505061016087013567ffffffffffffffff811115611c4f57600080fd5b611c5b89828a01611742565b92505061018087013567ffffffffffffffff811115611c7957600080fd5b611c8589828a01611848565b9150509295509295509295565b600060208284031215611ca457600080fd5b6000611cb284828501611b26565b91505092915050565b600080600080600080600080610100898b031215611cd857600080fd5b6000611ce68b828c01611b3b565b9850506020611cf78b828c01611b3b565b9750506040611d088b828c01611ae7565b9650506060611d198b828c01611ae7565b9550506080611d2a8b828c01611b3b565b94505060a0611d3b8b828c01611b11565b93505060c0611d4c8b828c01611b11565b92505060e0611d5d8b828c01611b11565b9150509295985092959890939650565b611d76816124bd565b82525050565b611d85816124cf565b82525050565b611d94816124db565b82525050565b6000611da7601c836124ac565b91507f436f6e747261637420686173206265656e2064657072656361746564000000006000830152602082019050919050565b6000611de76026836124ac565b91507f4f776e61626c653a206e6577206f776e657220697320746865207a65726f206160008301527f64647265737300000000000000000000000000000000000000000000000000006020830152604082019050919050565b6000611e4d6024836124ac565b91507f4f6e6c792061206e6f746172792063616e2063616c6c20746869732066756e6360008301527f74696f6e000000000000000000000000000000000000000000000000000000006020830152604082019050919050565b6000611eb36015836124ac565b91507f4e6f7461727920646f6573206e6f7420657869737400000000000000000000006000830152602082019050919050565b6000611ef3601f836124ac565b91507f43616e742068617665206d6f7265207468616e203630206e6f746172696573006000830152602082019050919050565b6000611f336028836124ac565b91507f5369676e617475726520617272617973206d757374206265206f66206571756160008301527f6c206c656e6774680000000000000000000000000000000000000000000000006020830152604082019050919050565b6000611f996020836124ac565b91507f4f776e61626c653a2063616c6c6572206973206e6f7420746865206f776e65726000830152602082019050919050565b6000611fd96036836124ac565b91507f426c6f636b20486569676874206d75737420626520677265617465722074686160008301527f6e2063757272656e7420626c6f636b20686569676874000000000000000000006020830152604082019050919050565b600061203f6015836124ac565b91507f4e6f7461727920616c72656164792065786973747300000000000000000000006000830152602082019050919050565b610100820160008201516120896000850182612150565b50602082015161209c6020850182612150565b5060408201516120af6040850182612114565b5060608201516120c26060850182612114565b5060808201516120d56080850182612150565b5060a08201516120e860a0850182612132565b5060c08201516120fb60c0850182612132565b5060e082015161210e60e0850182612132565b50505050565b61211d816124e5565b82525050565b61212c816124e5565b82525050565b61213b81612505565b82525050565b61214a81612505565b82525050565b6121598161250f565b82525050565b6121688161250f565b82525050565b61217781612540565b82525050565b61218681612533565b82525050565b60006020820190506121a16000830184611d6d565b92915050565b60006020820190506121bc6000830184611d7c565b92915050565b60006080820190506121d76000830187611d8b565b6121e4602083018661217d565b6121f16040830185611d8b565b6121fe6060830184611d8b565b95945050505050565b6000602082019050818103600083015261222081611d9a565b9050919050565b6000602082019050818103600083015261224081611dda565b9050919050565b6000602082019050818103600083015261226081611e40565b9050919050565b6000602082019050818103600083015261228081611ea6565b9050919050565b600060208201905081810360008301526122a081611ee6565b9050919050565b600060208201905081810360008301526122c081611f26565b9050919050565b600060208201905081810360008301526122e081611f8c565b9050919050565b6000602082019050818103600083015261230081611fcc565b9050919050565b6000602082019050818103600083015261232081612032565b9050919050565b60006101008201905061233d6000830184612072565b92915050565b6000610120820190506123596000830185612072565b61236761010083018461216e565b9392505050565b6000602082019050612383600083018461215f565b92915050565b60006101008201905061239f600083018b61215f565b6123ac602083018a61215f565b6123b96040830189612123565b6123c66060830188612123565b6123d3608083018761215f565b6123e060a0830186612141565b6123ed60c0830185612141565b6123fa60e0830184612141565b9998505050505050505050565b6000604051905081810181811067ffffffffffffffff8211171561242a57600080fd5b8060405250919050565b600067ffffffffffffffff82111561244b57600080fd5b602082029050602081019050919050565b600067ffffffffffffffff82111561247357600080fd5b602082029050602081019050919050565b600067ffffffffffffffff82111561249b57600080fd5b602082029050602081019050919050565b600082825260208201905092915050565b60006124c8826124e5565b9050919050565b60008115159050919050565b6000819050919050565b600073ffffffffffffffffffffffffffffffffffffffff82169050919050565b6000819050919050565b600063ffffffff82169050919050565b600067ffffffffffffffff82169050919050565b600060ff82169050919050565b600061254b8261250f565b9050919050565b61255b816124bd565b811461256657600080fd5b50565b612572816124db565b811461257d57600080fd5b50565b612589816124e5565b811461259457600080fd5b50565b6125a081612505565b81146125ab57600080fd5b50565b6125b78161250f565b81146125c257600080fd5b50565b6125ce8161251f565b81146125d957600080fd5b50565b6125e581612533565b81146125f057600080fd5b5056fea2646970667358221220ebc25c1ffde1a945b5282b8417a8b2e54189bc32aeb6779a26104852b186732c64736f6c634300060b0033",
  "immutableReferences": {},
  "source": "// SPDX-License-Identifier: MIT\n// Bridge between ethereum and verus\n\npragma solidity >=0.6.0 <0.7.0;\npragma experimental ABIEncoderV2;\nimport \"../node_modules/@openzeppelin/contracts/access/Ownable.sol\";\n\ncontract KomodoNotarize is Ownable{\n\n    //last notarized blockheight\n    uint32 public lastBlockHeight;\n    CurrencyState private lastCurrencyState;\n    //allows for the contract to be upgradable\n    bool public deprecated;\n    address public upgradedAddress;\n    //number of notaries required\n    uint8 requiredNotaries = 1;\n\n    //list of all notarizers mapped to allow for quick searching\n    mapping (address => bool) private komodoNotaries;\n    //mapped blockdetails\n    //the\n    mapping (uint32 => bytes) private notarizedBlocks;\n    //used to record the number of notaries\n    uint8 private notaryCount;\n\n    struct NotarizedBlock{\n        uint32 version;\n        uint32 protocol;\n        uint160 currencyID;\n        uint160 notaryDest;\n        uint32 notarizationHeight;\n        uint256 mmrRoot;\n        uint256 notarizationPreHash;\n        uint256 compactPower;\n    }\n\n    struct CurrencyState{\n        uint64[] reserveIn;\n        uint64[] nativeIn;\n        uint64[] reserveOut;\n        uint64[] conversionPrice;\n        uint64[] fees;\n        uint64[] conversionFees;\n    }\n\n    // Notifies when the contract is deprecated\n    event Deprecate(address newAddress);\n    // Notifies when a new block hash is published\n    event NewBlock(NotarizedBlock notarizedBlock,uint64 notarizedBlockHeight);\n\n\n    constructor() public {\n        deprecated = false;\n        notaryCount = 0;\n        lastBlockHeight = 0;\n    }\n\n    function addNotary(address _notary) public onlyOwner\n    returns(bool){\n\n        require(!deprecated,\"Contract has been deprecated\");\n        //if the the komodoNotaries is full reject\n        require(notaryCount < 60,\"Cant have more than 60 notaries\");\n        //if the notary already is in the komodNotaries then reject\n        require(!komodoNotaries[_notary],\"Notary already exists\");\n\n        komodoNotaries[_notary] = true;\n        notaryCount++;\n        return true;\n\n    }\n\n    function removeNotary(address _notary)  public onlyOwner\n    returns(bool){\n\n        require(!deprecated,\"Contract has been deprecated\");\n        //if the notary is not in the list then fail\n        require(komodoNotaries[_notary] == true,\"Notary does not exist\");\n\n        //need to look at this no easy way to delete from a mapping\n        komodoNotaries[_notary] = false;\n        notaryCount--;\n        return true;\n\n    }\n\n    function isNotarized(bytes32 notarizedBlockHash,\n        bytes32[] memory _rs,\n        bytes32[] memory _ss,\n        uint8[] memory _vs) private view returns(bool){\n        \n        address signingAddress;\n        //total number of signatures that have been validated\n        uint8 numberOfSignatures = 0;\n\n        //loop through the arrays, check the following:\n        //does the hash in the hashedBlocks match the komodoBlockHash passed in\n        for(uint i = 0; i < _rs.length; i++){\n            //if the address is in the notary array increment the number of signatures\n            signingAddress = recoverSigner(notarizedBlockHash, _vs[i], _rs[i], _ss[i]);\n            if(komodoNotaries[signingAddress]) {\n                numberOfSignatures++;\n            }\n        }\n        if(numberOfSignatures >= requiredNotaries){\n            return true;\n        } else return false;\n\n    }\n\n    function setLatestBlock(NotarizedBlock memory _notarizedBlockDetail,\n        CurrencyState memory _currencyState,\n        bytes32 _notarizedBlockHash,\n        bytes32[] memory _rs,\n        bytes32[] memory _ss,\n        uint8[] memory _vs) public returns(bool){\n\n        require(!deprecated,\"Contract has been deprecated\");\n        require(komodoNotaries[msg.sender],\"Only a notary can call this function\");\n        require((_rs.length == _ss.length) && (_rs.length == _vs.length),\"Signature arrays must be of equal length\");\n        require(_notarizedBlockDetail.notarizationHeight > lastBlockHeight,\"Block Height must be greater than current block height\");\n\n        bytes memory serializedBlock = serializeBlock(_notarizedBlockDetail);\n        //check the hash of the data\n        //need to check the block hash matches the hashed notarized block\n        \n        \n        //if there is greater than 13 proper signatories then set the block hash\n        if(isNotarized(_notarizedBlockHash,_rs,_ss,_vs)){\n            notarizedBlocks[_notarizedBlockDetail.notarizationHeight] = serializedBlock;\n            lastBlockHeight = _notarizedBlockDetail.notarizationHeight;\n            lastCurrencyState = _currencyState;\n            emit NewBlock(_notarizedBlockDetail,lastBlockHeight);\n            return true;\n        } else return false;\n\n\n    }\n\n    function recoverSigner(bytes32 h, uint8 v, bytes32 r, bytes32 s) private pure returns (address) {\n        address addr = ecrecover(h, v, r, s);\n        return addr;\n    }\n\n\n    function getLastNotarizedBlock() public view returns(NotarizedBlock memory){\n\n        require(!deprecated,\"Contract has been deprecated\");\n        return deSerializeBlock(notarizedBlocks[lastBlockHeight]);\n\n    }\n\n    function getNotarizedBlock(uint32 _blockHeight) public view returns(NotarizedBlock memory){\n\n        return deSerializeBlock(notarizedBlocks[_blockHeight]);\n\n    }\n\n    function getLastBlockHeight() public view returns(uint32){\n\n        require(!deprecated,\"Contract has been deprecated\");\n        return lastBlockHeight;\n    }\n\n    function deSerializeBlock(bytes memory _serializedBlock) private pure returns(NotarizedBlock memory){\n        NotarizedBlock memory deserializedBlock;\n\n        (deserializedBlock.version,\n        deserializedBlock.protocol,\n        deserializedBlock.currencyID,\n        deserializedBlock.notaryDest,\n        deserializedBlock.notarizationHeight,\n        deserializedBlock.mmrRoot,\n        deserializedBlock.notarizationPreHash,\n        deserializedBlock.compactPower\n        ) = abi.decode(_serializedBlock,(uint32,uint32,uint160,uint160,uint32,uint256,uint256,uint256));\n\n        return deserializedBlock;\n    }\n\n    function serializeBlock(NotarizedBlock memory _deserializedBlock) private pure returns(bytes memory){\n\n        return abi.encode(_deserializedBlock.version,\n        _deserializedBlock.protocol,\n        _deserializedBlock.currencyID,\n        _deserializedBlock.notaryDest,\n        _deserializedBlock.notarizationHeight,\n        _deserializedBlock.mmrRoot,\n        _deserializedBlock.notarizationPreHash,\n        _deserializedBlock.compactPower);\n\n    }\n\n    function kill() public onlyOwner{\n        selfdestruct(msg.sender);\n    }\n\n    /**\n    * deprecate current contract\n    */\n    function deprecate(address _upgradedAddress) public onlyOwner {\n        require(!deprecated,\"Contract has been deprecated\");\n        deprecated = true;\n        upgradedAddress = _upgradedAddress;\n        emit Deprecate(_upgradedAddress);\n\n    }\n\n}",
  "sourcePath": "/Users/james/Development/Ethereum-komodo-notarisation/contracts/komodoNotarize.sol",
  "compiler": {
    "name": "solc",
    "version": "0.6.11+commit.5ef660b1.Emscripten.clang"
  },
  "schemaVersion": "3.2.2",
  "updatedAt": "2020-07-31T13:11:58.101Z",
  "networkType": "ethereum",
  "devdoc": {
    "kind": "dev",
    "methods": {
      "owner()": {
        "details": "Returns the address of the current owner."
      },
      "renounceOwnership()": {
        "details": "Leaves the contract without owner. It will not be possible to call `onlyOwner` functions anymore. Can only be called by the current owner. NOTE: Renouncing ownership will leave the contract without an owner, thereby removing any functionality that is only available to the owner."
      },
      "transferOwnership(address)": {
        "details": "Transfers ownership of the contract to a new account (`newOwner`). Can only be called by the current owner."
      }
    },
    "version": 1
  },
  "userdoc": {
    "kind": "user",
    "methods": {
      "deprecate(address)": {
        "notice": "deprecate current contract"
      }
    },
    "version": 1
  }
}