{
  "contractName": "KomodoNotarisation",
  "abi": [
    {
      "inputs": [],
      "stateMutability": "nonpayable",
      "type": "constructor"
    },
    {
      "anonymous": false,
      "inputs": [
        {
          "indexed": false,
          "internalType": "address",
          "name": "newAddress",
          "type": "address"
        }
      ],
      "name": "Deprecate",
      "type": "event"
    },
    {
      "anonymous": false,
      "inputs": [
        {
          "indexed": false,
          "internalType": "bytes32",
          "name": "komodoBlockHash",
          "type": "bytes32"
        },
        {
          "indexed": false,
          "internalType": "uint256",
          "name": "komodoBlockHeight",
          "type": "uint256"
        }
      ],
      "name": "NewBlock",
      "type": "event"
    },
    {
      "anonymous": false,
      "inputs": [
        {
          "indexed": true,
          "internalType": "address",
          "name": "previousOwner",
          "type": "address"
        },
        {
          "indexed": true,
          "internalType": "address",
          "name": "newOwner",
          "type": "address"
        }
      ],
      "name": "OwnershipTransferred",
      "type": "event"
    },
    {
      "inputs": [],
      "name": "deprecated",
      "outputs": [
        {
          "internalType": "bool",
          "name": "",
          "type": "bool"
        }
      ],
      "stateMutability": "view",
      "type": "function"
    },
    {
      "inputs": [],
      "name": "komodoBlockHash",
      "outputs": [
        {
          "internalType": "bytes32",
          "name": "",
          "type": "bytes32"
        }
      ],
      "stateMutability": "view",
      "type": "function"
    },
    {
      "inputs": [],
      "name": "komodoBlockHeight",
      "outputs": [
        {
          "internalType": "uint256",
          "name": "",
          "type": "uint256"
        }
      ],
      "stateMutability": "view",
      "type": "function"
    },
    {
      "inputs": [],
      "name": "owner",
      "outputs": [
        {
          "internalType": "address",
          "name": "",
          "type": "address"
        }
      ],
      "stateMutability": "view",
      "type": "function"
    },
    {
      "inputs": [],
      "name": "renounceOwnership",
      "outputs": [],
      "stateMutability": "nonpayable",
      "type": "function"
    },
    {
      "inputs": [
        {
          "internalType": "address",
          "name": "newOwner",
          "type": "address"
        }
      ],
      "name": "transferOwnership",
      "outputs": [],
      "stateMutability": "nonpayable",
      "type": "function"
    },
    {
      "inputs": [],
      "name": "upgradedAddress",
      "outputs": [
        {
          "internalType": "address",
          "name": "",
          "type": "address"
        }
      ],
      "stateMutability": "view",
      "type": "function"
    },
    {
      "inputs": [
        {
          "internalType": "address",
          "name": "_notary",
          "type": "address"
        }
      ],
      "name": "addNotary",
      "outputs": [
        {
          "internalType": "bool",
          "name": "",
          "type": "bool"
        }
      ],
      "stateMutability": "nonpayable",
      "type": "function"
    },
    {
      "inputs": [
        {
          "internalType": "address",
          "name": "_notary",
          "type": "address"
        }
      ],
      "name": "removeNotary",
      "outputs": [
        {
          "internalType": "bool",
          "name": "",
          "type": "bool"
        }
      ],
      "stateMutability": "nonpayable",
      "type": "function"
    },
    {
      "inputs": [
        {
          "internalType": "bytes32",
          "name": "_komodoBlockHash",
          "type": "bytes32"
        },
        {
          "internalType": "uint256",
          "name": "_komodoBlockHeight",
          "type": "uint256"
        },
        {
          "internalType": "bytes32[]",
          "name": "_hashedBlocks",
          "type": "bytes32[]"
        },
        {
          "internalType": "bytes32[]",
          "name": "_rs",
          "type": "bytes32[]"
        },
        {
          "internalType": "bytes32[]",
          "name": "_ss",
          "type": "bytes32[]"
        },
        {
          "internalType": "uint8[]",
          "name": "_vs",
          "type": "uint8[]"
        }
      ],
      "name": "setLatestBlock",
      "outputs": [
        {
          "internalType": "bool",
          "name": "",
          "type": "bool"
        }
      ],
      "stateMutability": "nonpayable",
      "type": "function"
    },
    {
      "inputs": [
        {
          "internalType": "bytes32",
          "name": "h",
          "type": "bytes32"
        },
        {
          "internalType": "uint8",
          "name": "v",
          "type": "uint8"
        },
        {
          "internalType": "bytes32",
          "name": "r",
          "type": "bytes32"
        },
        {
          "internalType": "bytes32",
          "name": "s",
          "type": "bytes32"
        }
      ],
      "name": "recoverSigner",
      "outputs": [
        {
          "internalType": "address",
          "name": "",
          "type": "address"
        }
      ],
      "stateMutability": "pure",
      "type": "function"
    },
    {
      "inputs": [],
      "name": "getLatestBlockHash",
      "outputs": [
        {
          "internalType": "bytes32",
          "name": "",
          "type": "bytes32"
        }
      ],
      "stateMutability": "view",
      "type": "function"
    },
    {
      "inputs": [],
      "name": "getLatestBlockHeight",
      "outputs": [
        {
          "internalType": "bytes32",
          "name": "",
          "type": "bytes32"
        }
      ],
      "stateMutability": "view",
      "type": "function"
    },
    {
      "inputs": [],
      "name": "kill",
      "outputs": [],
      "stateMutability": "nonpayable",
      "type": "function"
    },
    {
      "inputs": [
        {
          "internalType": "address",
          "name": "_upgradedAddress",
          "type": "address"
        }
      ],
      "name": "deprecate",
      "outputs": [],
      "stateMutability": "nonpayable",
      "type": "function"
    }
  ],
  "bytecode": "0x6080604052600d600360156101000a81548160ff021916908360ff16021790555034801561002c57600080fd5b50600061003d6100fc60201b60201c565b9050806000806101000a81548173ffffffffffffffffffffffffffffffffffffffff021916908373ffffffffffffffffffffffffffffffffffffffff1602179055508073ffffffffffffffffffffffffffffffffffffffff16600073ffffffffffffffffffffffffffffffffffffffff167f8be0079c531659141344cd1fd0a4f28419497f9722a3daafe3b4186f6b6457e060405160405180910390a3506000600560006101000a81548160ff021916908360ff160217905550610104565b600033905090565b6118b8806101136000396000f3fe608060405234801561001057600080fd5b50600436106100f55760003560e01c806371dc5f0f11610097578063ca72d56f11610066578063ca72d56f1461059c578063d45167d0146105ba578063e875aa5d14610649578063f2fde38b14610667576100f5565b806371dc5f0f1461023857806374943094146104d857806386785a6f146104f65780638da5cb5b14610552576100f5565b806326976e3f116100d357806326976e3f146101bc57806341c0e1b51461020657806342bcad2814610210578063715018a61461022e576100f5565b80630588565f146100fa5780630753c30c146101565780630e136b191461019a575b600080fd5b61013c6004803603602081101561011057600080fd5b81019080803573ffffffffffffffffffffffffffffffffffffffff1690602001909291905050506106ab565b604051808215151515815260200191505060405180910390f35b6101986004803603602081101561016c57600080fd5b81019080803573ffffffffffffffffffffffffffffffffffffffff169060200190929190505050610912565b005b6101a2610b20565b604051808215151515815260200191505060405180910390f35b6101c4610b33565b604051808273ffffffffffffffffffffffffffffffffffffffff1673ffffffffffffffffffffffffffffffffffffffff16815260200191505060405180910390f35b61020e610b59565b005b610218610c3b565b6040518082815260200191505060405180910390f35b610236610cc8565b005b6104be600480360360c081101561024e57600080fd5b8101908080359060200190929190803590602001909291908035906020019064010000000081111561027f57600080fd5b82018360208201111561029157600080fd5b803590602001918460208302840111640100000000831117156102b357600080fd5b919080806020026020016040519081016040528093929190818152602001838360200280828437600081840152601f19601f8201169050808301925050505050505091929192908035906020019064010000000081111561031357600080fd5b82018360208201111561032557600080fd5b8035906020019184602083028401116401000000008311171561034757600080fd5b919080806020026020016040519081016040528093929190818152602001838360200280828437600081840152601f19601f820116905080830192505050505050509192919290803590602001906401000000008111156103a757600080fd5b8201836020820111156103b957600080fd5b803590602001918460208302840111640100000000831117156103db57600080fd5b919080806020026020016040519081016040528093929190818152602001838360200280828437600081840152601f19601f8201169050808301925050505050505091929192908035906020019064010000000081111561043b57600080fd5b82018360208201111561044d57600080fd5b8035906020019184602083028401116401000000008311171561046f57600080fd5b919080806020026020016040519081016040528093929190818152602001838360200280828437600081840152601f19601f820116905080830192505050505050509192919290505050610e50565b604051808215151515815260200191505060405180910390f35b6104e061118c565b6040518082815260200191505060405180910390f35b6105386004803603602081101561050c57600080fd5b81019080803573ffffffffffffffffffffffffffffffffffffffff169060200190929190505050611192565b604051808215151515815260200191505060405180910390f35b61055a6113d6565b604051808273ffffffffffffffffffffffffffffffffffffffff1673ffffffffffffffffffffffffffffffffffffffff16815260200191505060405180910390f35b6105a46113ff565b6040518082815260200191505060405180910390f35b610607600480360360808110156105d057600080fd5b8101908080359060200190929190803560ff1690602001909291908035906020019092919080359060200190929190505050611405565b604051808273ffffffffffffffffffffffffffffffffffffffff1673ffffffffffffffffffffffffffffffffffffffff16815260200191505060405180910390f35b610651611538565b6040518082815260200191505060405180910390f35b6106a96004803603602081101561067d57600080fd5b81019080803573ffffffffffffffffffffffffffffffffffffffff1690602001909291905050506115c5565b005b60006106b56117d2565b73ffffffffffffffffffffffffffffffffffffffff166000809054906101000a900473ffffffffffffffffffffffffffffffffffffffff1673ffffffffffffffffffffffffffffffffffffffff1614610776576040517f08c379a00000000000000000000000000000000000000000000000000000000081526004018080602001828103825260208152602001807f4f776e61626c653a2063616c6c6572206973206e6f7420746865206f776e657281525060200191505060405180910390fd5b600360009054906101000a900460ff16156107f9576040517f08c379a000000000000000000000000000000000000000000000000000000000815260040180806020018281038252601c8152602001807f436f6e747261637420686173206265656e20646570726563617465640000000081525060200191505060405180910390fd5b603c600560009054906101000a900460ff1660ff161061081c576000905061090d565b60011515600460008473ffffffffffffffffffffffffffffffffffffffff1673ffffffffffffffffffffffffffffffffffffffff16815260200190815260200160002060009054906101000a900460ff161515141561087e576000905061090d565b6001600460008473ffffffffffffffffffffffffffffffffffffffff1673ffffffffffffffffffffffffffffffffffffffff16815260200190815260200160002060006101000a81548160ff0219169083151502179055506005600081819054906101000a900460ff168092919060010191906101000a81548160ff021916908360ff16021790555050600190505b919050565b61091a6117d2565b73ffffffffffffffffffffffffffffffffffffffff166000809054906101000a900473ffffffffffffffffffffffffffffffffffffffff1673ffffffffffffffffffffffffffffffffffffffff16146109db576040517f08c379a00000000000000000000000000000000000000000000000000000000081526004018080602001828103825260208152602001807f4f776e61626c653a2063616c6c6572206973206e6f7420746865206f776e657281525060200191505060405180910390fd5b600360009054906101000a900460ff1615610a5e576040517f08c379a000000000000000000000000000000000000000000000000000000000815260040180806020018281038252601c8152602001807f436f6e747261637420686173206265656e20646570726563617465640000000081525060200191505060405180910390fd5b6001600360006101000a81548160ff02191690831515021790555080600360016101000a81548173ffffffffffffffffffffffffffffffffffffffff021916908373ffffffffffffffffffffffffffffffffffffffff1602179055507fcc358699805e9a8b7f77b522628c7cb9abd07d9efb86b6fb616af1609036a99e81604051808273ffffffffffffffffffffffffffffffffffffffff1673ffffffffffffffffffffffffffffffffffffffff16815260200191505060405180910390a150565b600360009054906101000a900460ff1681565b600360019054906101000a900473ffffffffffffffffffffffffffffffffffffffff1681565b610b616117d2565b73ffffffffffffffffffffffffffffffffffffffff166000809054906101000a900473ffffffffffffffffffffffffffffffffffffffff1673ffffffffffffffffffffffffffffffffffffffff1614610c22576040517f08c379a00000000000000000000000000000000000000000000000000000000081526004018080602001828103825260208152602001807f4f776e61626c653a2063616c6c6572206973206e6f7420746865206f776e657281525060200191505060405180910390fd5b3373ffffffffffffffffffffffffffffffffffffffff16ff5b6000600360009054906101000a900460ff1615610cc0576040517f08c379a000000000000000000000000000000000000000000000000000000000815260040180806020018281038252601c8152602001807f436f6e747261637420686173206265656e20646570726563617465640000000081525060200191505060405180910390fd5b600154905090565b610cd06117d2565b73ffffffffffffffffffffffffffffffffffffffff166000809054906101000a900473ffffffffffffffffffffffffffffffffffffffff1673ffffffffffffffffffffffffffffffffffffffff1614610d91576040517f08c379a00000000000000000000000000000000000000000000000000000000081526004018080602001828103825260208152602001807f4f776e61626c653a2063616c6c6572206973206e6f7420746865206f776e657281525060200191505060405180910390fd5b600073ffffffffffffffffffffffffffffffffffffffff166000809054906101000a900473ffffffffffffffffffffffffffffffffffffffff1673ffffffffffffffffffffffffffffffffffffffff167f8be0079c531659141344cd1fd0a4f28419497f9722a3daafe3b4186f6b6457e060405160405180910390a360008060006101000a81548173ffffffffffffffffffffffffffffffffffffffff021916908373ffffffffffffffffffffffffffffffffffffffff160217905550565b6000600360009054906101000a900460ff1615610ed5576040517f08c379a000000000000000000000000000000000000000000000000000000000815260040180806020018281038252601c8152602001807f436f6e747261637420686173206265656e20646570726563617465640000000081525060200191505060405180910390fd5b600460003373ffffffffffffffffffffffffffffffffffffffff1673ffffffffffffffffffffffffffffffffffffffff16815260200190815260200160002060009054906101000a900460ff16610f77576040517f08c379a00000000000000000000000000000000000000000000000000000000081526004018080602001828103825260248152602001806118016024913960400191505060405180910390fd5b82518451148015610f89575081518451145b610fde576040517f08c379a00000000000000000000000000000000000000000000000000000000081526004018080602001828103825260288152602001806118256028913960400191505060405180910390fd5b6002548611611038576040517f08c379a000000000000000000000000000000000000000000000000000000000815260040180806020018281038252603681526020018061184d6036913960400191505060405180910390fd5b6000806000905060008090505b8651811015611111576110a788828151811061105d57fe5b602002602001015186838151811061107157fe5b60200260200101518960018151811061108657fe5b602002602001015189858151811061109a57fe5b6020026020010151611405565b9250600460008473ffffffffffffffffffffffffffffffffffffffff1673ffffffffffffffffffffffffffffffffffffffff16815260200190815260200160002060009054906101000a900460ff16156111045781806001019250505b8080600101915050611045565b50600360159054906101000a900460ff1660ff168160ff16106111805788600181905550876002819055507f88d5c6299a76739cbd2527f4de445a36be8acb8d20aff6e4820be63434d6e3b2600154600254604051808381526020018281526020019250505060405180910390a15b50509695505050505050565b60025481565b600061119c6117d2565b73ffffffffffffffffffffffffffffffffffffffff166000809054906101000a900473ffffffffffffffffffffffffffffffffffffffff1673ffffffffffffffffffffffffffffffffffffffff161461125d576040517f08c379a00000000000000000000000000000000000000000000000000000000081526004018080602001828103825260208152602001807f4f776e61626c653a2063616c6c6572206973206e6f7420746865206f776e657281525060200191505060405180910390fd5b600360009054906101000a900460ff16156112e0576040517f08c379a000000000000000000000000000000000000000000000000000000000815260040180806020018281038252601c8152602001807f436f6e747261637420686173206265656e20646570726563617465640000000081525060200191505060405180910390fd5b60011515600460008473ffffffffffffffffffffffffffffffffffffffff1673ffffffffffffffffffffffffffffffffffffffff16815260200190815260200160002060009054906101000a900460ff1615151461134157600090506113d1565b6000600460008473ffffffffffffffffffffffffffffffffffffffff1673ffffffffffffffffffffffffffffffffffffffff16815260200190815260200160002060006101000a81548160ff0219169083151502179055506005600081819054906101000a900460ff16809291906001900391906101000a81548160ff021916908360ff16021790555050600190505b919050565b60008060009054906101000a900473ffffffffffffffffffffffffffffffffffffffff16905090565b60015481565b600060606040518060400160405280601c81526020017f19457468657265756d205369676e6564204d6573736167653a0a3332000000008152509050600081876040516020018083805190602001908083835b6020831061147b5780518252602082019150602081019050602083039250611458565b6001836020036101000a03801982511681845116808217855250505050505090500182815260200192505050604051602081830303815290604052805190602001209050600060018288888860405160008152602001604052604051808581526020018460ff1660ff1681526020018381526020018281526020019450505050506020604051602081039080840390855afa15801561151e573d6000803e3d6000fd5b505050602060405103519050809350505050949350505050565b6000600360009054906101000a900460ff16156115bd576040517f08c379a000000000000000000000000000000000000000000000000000000000815260040180806020018281038252601c8152602001807f436f6e747261637420686173206265656e20646570726563617465640000000081525060200191505060405180910390fd5b600154905090565b6115cd6117d2565b73ffffffffffffffffffffffffffffffffffffffff166000809054906101000a900473ffffffffffffffffffffffffffffffffffffffff1673ffffffffffffffffffffffffffffffffffffffff161461168e576040517f08c379a00000000000000000000000000000000000000000000000000000000081526004018080602001828103825260208152602001807f4f776e61626c653a2063616c6c6572206973206e6f7420746865206f776e657281525060200191505060405180910390fd5b600073ffffffffffffffffffffffffffffffffffffffff168173ffffffffffffffffffffffffffffffffffffffff161415611714576040517f08c379a00000000000000000000000000000000000000000000000000000000081526004018080602001828103825260268152602001806117db6026913960400191505060405180910390fd5b8073ffffffffffffffffffffffffffffffffffffffff166000809054906101000a900473ffffffffffffffffffffffffffffffffffffffff1673ffffffffffffffffffffffffffffffffffffffff167f8be0079c531659141344cd1fd0a4f28419497f9722a3daafe3b4186f6b6457e060405160405180910390a3806000806101000a81548173ffffffffffffffffffffffffffffffffffffffff021916908373ffffffffffffffffffffffffffffffffffffffff16021790555050565b60003390509056fe4f776e61626c653a206e6577206f776e657220697320746865207a65726f20616464726573734f6e6c792061206e6f746172792063616e2063616c6c20746869732066756e6374696f6e5369676e617475726520617272617973206d757374206265206f6620657175616c206c656e677468426c6f636b20486569676874206d7573742062652067726561746572207468616e2063757272656e7420626c6f636b20686569676874a26469706673582212203942707593d3cb16e82d75d811909963a3dc5f2e8897567720e63f780f188c2564736f6c634300060b0033",
  "immutableReferences": {},
  "source": "// SPDX-License-Identifier: MIT\n// Bridge between ethereum and verus\n\npragma solidity >=0.4.21 <0.7.0;\nimport \"../node_modules/@openzeppelin/contracts/access/Ownable.sol\";\n\ncontract KomodoNotarisation is Ownable{\n\n    //last notarised blockhash\n    bytes32 public komodoBlockHash;\n    //last notarised blockheight\n    uint256 public komodoBlockHeight;\n    //allows for the contract to be upgradable\n    bool public deprecated;\n    address public upgradedAddress;\n    //number of notaries required\n    uint8 requiredNotaries = 13;\n\n    //list of all notarisers mapped to allow for quick searching\n    mapping (address => bool) private komodoNotaries;\n    //used to record the number of\n    uint8 private notaryCount;\n\n    // Notifies when the contract is deprecated\n    event Deprecate(address newAddress);\n    // Notifies when a new block hash is published\n    event NewBlock(bytes32 komodoBlockHash,uint256 komodoBlockHeight);\n\n\n\n    constructor() public {\n         notaryCount = 0;\n    }\n\n\n\n    function addNotary(address _notary) public onlyOwner\n    returns(bool){\n\n        require(!deprecated,\"Contract has been deprecated\");\n        //if the the komodoNotaries is full reject\n        if(notaryCount >= 60) return false;\n        //if the notary already is in the komodNotaries then reject\n        if(komodoNotaries[_notary] == true) return false;\n\n        komodoNotaries[_notary] = true;\n        notaryCount++;\n        return true;\n\n    }\n\n    function removeNotary(address _notary)  public onlyOwner\n    returns(bool){\n\n        require(!deprecated,\"Contract has been deprecated\");\n        //if the notary is not in the list then fail\n        if(komodoNotaries[_notary] != true) return false;\n\n        //need to look at this no easy way to delete from a mapping\n        komodoNotaries[_notary] = false;\n        notaryCount--;\n        return true;\n\n    }\n\n    /**\n    Solidity cant handle a struct array or an array of variable length arrays\n    as the sig byte array is 65 bytes this gets flagged as a variable length array\n    to get round this we pass in the constituents of the address\n    **/\n    function setLatestBlock(bytes32 _komodoBlockHash,\n    uint256 _komodoBlockHeight,\n    bytes32[] memory _hashedBlocks,\n    bytes32[] memory _rs,\n    bytes32[] memory _ss,\n    uint8[] memory _vs) public returns(bool){\n\n        require(!deprecated,\"Contract has been deprecated\");\n        require(komodoNotaries[msg.sender],\"Only a notary can call this function\");\n        require((_rs.length == _ss.length) && (_rs.length == _vs.length),\"Signature arrays must be of equal length\");\n        require(_komodoBlockHeight > komodoBlockHeight,\"Block Height must be greater than current block height\");\n\n        address signingAddress;\n        //total number of signatures that have been validated\n        uint8 numberOfSignatures = 0;\n\n        //loop through the arrays, check the following:\n        //does the hash in the hashedBlocks match the komodoBlockHash passed in\n        for(uint i = 0; i < _rs.length; i++){\n            //is the address in the hashed block\n            signingAddress = recoverSigner(_hashedBlocks[i], _vs[i], _rs[1], _ss[i]);\n            if(komodoNotaries[signingAddress]) {\n                numberOfSignatures++;\n            }\n        }\n\n        //if there is greater than 13 proper signatories then set the block hash\n        if(numberOfSignatures >= requiredNotaries){\n            komodoBlockHash = _komodoBlockHash;\n            komodoBlockHeight = _komodoBlockHeight;\n            emit NewBlock(komodoBlockHash,komodoBlockHeight);\n        }\n\n    }\n\n    function recoverSigner(bytes32 h, uint8 v, bytes32 r, bytes32 s) public pure returns (address) {\n        bytes memory prefix = \"\\x19Ethereum Signed Message:\\n32\";\n        bytes32 prefixedHash = keccak256(abi.encodePacked(prefix, h));\n        address addr = ecrecover(prefixedHash, v, r, s);\n\n        return addr;\n    }\n\n    function getLatestBlockHash() public view returns(bytes32){\n\n        require(!deprecated,\"Contract has been deprecated\");\n        return komodoBlockHash;\n\n    }\n\n    function getLatestBlockHeight() public view returns(bytes32){\n\n        require(!deprecated,\"Contract has been deprecated\");\n        return komodoBlockHash;\n    }\n\n    function kill() public onlyOwner{\n        selfdestruct(msg.sender);\n    }\n\n    /**\n    * deprecate current contract\n    */\n    function deprecate(address _upgradedAddress) public onlyOwner {\n        require(!deprecated,\"Contract has been deprecated\");\n        deprecated = true;\n        upgradedAddress = _upgradedAddress;\n        emit Deprecate(_upgradedAddress);\n\n    }\n\n}\n",
  "sourcePath": "/Volumes/UsersSSD/james/Development/komodo-notarisation-solidity/contracts/komodoNotarise.sol",
  "compiler": {
    "name": "solc",
    "version": "0.6.11+commit.5ef660b1.Emscripten.clang"
  },
  "schemaVersion": "3.2.0",
  "updatedAt": "2020-07-16T15:19:26.467Z",
  "devdoc": {
    "kind": "dev",
    "methods": {
      "owner()": {
        "details": "Returns the address of the current owner."
      },
      "renounceOwnership()": {
        "details": "Leaves the contract without owner. It will not be possible to call `onlyOwner` functions anymore. Can only be called by the current owner. NOTE: Renouncing ownership will leave the contract without an owner, thereby removing any functionality that is only available to the owner."
      },
      "transferOwnership(address)": {
        "details": "Transfers ownership of the contract to a new account (`newOwner`). Can only be called by the current owner."
      }
    },
    "version": 1
  },
  "userdoc": {
    "kind": "user",
    "methods": {
      "deprecate(address)": {
        "notice": "deprecate current contract"
      },
      "setLatestBlock(bytes32,uint256,bytes32[],bytes32[],bytes32[],uint8[])": {
        "notice": "Solidity cant handle a struct array or an array of variable length arrays as the sig byte array is 65 bytes this gets flagged as a variable length array to get round this we pass in the constituents of the address*"
      }
    },
    "version": 1
  }
}