{
  "contractName": "KomodoNotarise",
  "abi": [
    {
      "inputs": [],
      "stateMutability": "nonpayable",
      "type": "constructor"
    },
    {
      "anonymous": false,
      "inputs": [
        {
          "indexed": false,
          "internalType": "address",
          "name": "newAddress",
          "type": "address"
        }
      ],
      "name": "Deprecate",
      "type": "event"
    },
    {
      "anonymous": false,
      "inputs": [
        {
          "components": [
            {
              "internalType": "uint32",
              "name": "version",
              "type": "uint32"
            },
            {
              "internalType": "uint32",
              "name": "protocol",
              "type": "uint32"
            },
            {
              "internalType": "uint160",
              "name": "currencyID",
              "type": "uint160"
            },
            {
              "internalType": "uint160",
              "name": "notaryDest",
              "type": "uint160"
            },
            {
              "internalType": "uint32",
              "name": "notarizationHeight",
              "type": "uint32"
            },
            {
              "internalType": "uint256",
              "name": "mmrRoot",
              "type": "uint256"
            },
            {
              "internalType": "uint256",
              "name": "notarizationPreHash",
              "type": "uint256"
            },
            {
              "internalType": "uint256",
              "name": "compactPower",
              "type": "uint256"
            },
            {
              "components": [
                {
                  "internalType": "uint64[]",
                  "name": "reserveIn",
                  "type": "uint64[]"
                },
                {
                  "internalType": "uint64[]",
                  "name": "nativeIn",
                  "type": "uint64[]"
                },
                {
                  "internalType": "uint64[]",
                  "name": "reserveOut",
                  "type": "uint64[]"
                },
                {
                  "internalType": "uint64[]",
                  "name": "conversionPrice",
                  "type": "uint64[]"
                },
                {
                  "internalType": "uint64[]",
                  "name": "fees",
                  "type": "uint64[]"
                },
                {
                  "internalType": "uint64[]",
                  "name": "conversionFees",
                  "type": "uint64[]"
                }
              ],
              "internalType": "struct KomodoNotarise.CurrencyState",
              "name": "currencyState",
              "type": "tuple"
            }
          ],
          "indexed": false,
          "internalType": "struct KomodoNotarise.NotarisedBlock",
          "name": "notarisedBlock",
          "type": "tuple"
        },
        {
          "indexed": false,
          "internalType": "uint64",
          "name": "notarisedBlockHeight",
          "type": "uint64"
        }
      ],
      "name": "NewBlock",
      "type": "event"
    },
    {
      "anonymous": false,
      "inputs": [
        {
          "indexed": true,
          "internalType": "address",
          "name": "previousOwner",
          "type": "address"
        },
        {
          "indexed": true,
          "internalType": "address",
          "name": "newOwner",
          "type": "address"
        }
      ],
      "name": "OwnershipTransferred",
      "type": "event"
    },
    {
      "inputs": [],
      "name": "deprecated",
      "outputs": [
        {
          "internalType": "bool",
          "name": "",
          "type": "bool"
        }
      ],
      "stateMutability": "view",
      "type": "function"
    },
    {
      "inputs": [],
      "name": "lastBlockHeight",
      "outputs": [
        {
          "internalType": "uint32",
          "name": "",
          "type": "uint32"
        }
      ],
      "stateMutability": "view",
      "type": "function"
    },
    {
      "inputs": [],
      "name": "owner",
      "outputs": [
        {
          "internalType": "address",
          "name": "",
          "type": "address"
        }
      ],
      "stateMutability": "view",
      "type": "function"
    },
    {
      "inputs": [],
      "name": "renounceOwnership",
      "outputs": [],
      "stateMutability": "nonpayable",
      "type": "function"
    },
    {
      "inputs": [
        {
          "internalType": "address",
          "name": "newOwner",
          "type": "address"
        }
      ],
      "name": "transferOwnership",
      "outputs": [],
      "stateMutability": "nonpayable",
      "type": "function"
    },
    {
      "inputs": [],
      "name": "upgradedAddress",
      "outputs": [
        {
          "internalType": "address",
          "name": "",
          "type": "address"
        }
      ],
      "stateMutability": "view",
      "type": "function"
    },
    {
      "inputs": [
        {
          "internalType": "address",
          "name": "_notary",
          "type": "address"
        }
      ],
      "name": "addNotary",
      "outputs": [
        {
          "internalType": "bool",
          "name": "",
          "type": "bool"
        }
      ],
      "stateMutability": "nonpayable",
      "type": "function"
    },
    {
      "inputs": [
        {
          "internalType": "address",
          "name": "_notary",
          "type": "address"
        }
      ],
      "name": "removeNotary",
      "outputs": [
        {
          "internalType": "bool",
          "name": "",
          "type": "bool"
        }
      ],
      "stateMutability": "nonpayable",
      "type": "function"
    },
    {
      "inputs": [
        {
          "components": [
            {
              "internalType": "uint32",
              "name": "version",
              "type": "uint32"
            },
            {
              "internalType": "uint32",
              "name": "protocol",
              "type": "uint32"
            },
            {
              "internalType": "uint160",
              "name": "currencyID",
              "type": "uint160"
            },
            {
              "internalType": "uint160",
              "name": "notaryDest",
              "type": "uint160"
            },
            {
              "internalType": "uint32",
              "name": "notarizationHeight",
              "type": "uint32"
            },
            {
              "internalType": "uint256",
              "name": "mmrRoot",
              "type": "uint256"
            },
            {
              "internalType": "uint256",
              "name": "notarizationPreHash",
              "type": "uint256"
            },
            {
              "internalType": "uint256",
              "name": "compactPower",
              "type": "uint256"
            },
            {
              "components": [
                {
                  "internalType": "uint64[]",
                  "name": "reserveIn",
                  "type": "uint64[]"
                },
                {
                  "internalType": "uint64[]",
                  "name": "nativeIn",
                  "type": "uint64[]"
                },
                {
                  "internalType": "uint64[]",
                  "name": "reserveOut",
                  "type": "uint64[]"
                },
                {
                  "internalType": "uint64[]",
                  "name": "conversionPrice",
                  "type": "uint64[]"
                },
                {
                  "internalType": "uint64[]",
                  "name": "fees",
                  "type": "uint64[]"
                },
                {
                  "internalType": "uint64[]",
                  "name": "conversionFees",
                  "type": "uint64[]"
                }
              ],
              "internalType": "struct KomodoNotarise.CurrencyState",
              "name": "currencyState",
              "type": "tuple"
            }
          ],
          "internalType": "struct KomodoNotarise.NotarisedBlock",
          "name": "_notarisedBlockDetail",
          "type": "tuple"
        },
        {
          "internalType": "bytes32[]",
          "name": "_rs",
          "type": "bytes32[]"
        },
        {
          "internalType": "bytes32[]",
          "name": "_ss",
          "type": "bytes32[]"
        },
        {
          "internalType": "uint8[]",
          "name": "_vs",
          "type": "uint8[]"
        }
      ],
      "name": "setLatestBlock",
      "outputs": [
        {
          "internalType": "bool",
          "name": "",
          "type": "bool"
        }
      ],
      "stateMutability": "nonpayable",
      "type": "function"
    },
    {
      "inputs": [
        {
          "internalType": "bytes32",
          "name": "h",
          "type": "bytes32"
        },
        {
          "internalType": "uint8",
          "name": "v",
          "type": "uint8"
        },
        {
          "internalType": "bytes32",
          "name": "r",
          "type": "bytes32"
        },
        {
          "internalType": "bytes32",
          "name": "s",
          "type": "bytes32"
        }
      ],
      "name": "recoverSigner",
      "outputs": [
        {
          "internalType": "address",
          "name": "",
          "type": "address"
        }
      ],
      "stateMutability": "pure",
      "type": "function"
    },
    {
      "inputs": [],
      "name": "getLastNotarisedBlock",
      "outputs": [
        {
          "components": [
            {
              "internalType": "uint32",
              "name": "version",
              "type": "uint32"
            },
            {
              "internalType": "uint32",
              "name": "protocol",
              "type": "uint32"
            },
            {
              "internalType": "uint160",
              "name": "currencyID",
              "type": "uint160"
            },
            {
              "internalType": "uint160",
              "name": "notaryDest",
              "type": "uint160"
            },
            {
              "internalType": "uint32",
              "name": "notarizationHeight",
              "type": "uint32"
            },
            {
              "internalType": "uint256",
              "name": "mmrRoot",
              "type": "uint256"
            },
            {
              "internalType": "uint256",
              "name": "notarizationPreHash",
              "type": "uint256"
            },
            {
              "internalType": "uint256",
              "name": "compactPower",
              "type": "uint256"
            },
            {
              "components": [
                {
                  "internalType": "uint64[]",
                  "name": "reserveIn",
                  "type": "uint64[]"
                },
                {
                  "internalType": "uint64[]",
                  "name": "nativeIn",
                  "type": "uint64[]"
                },
                {
                  "internalType": "uint64[]",
                  "name": "reserveOut",
                  "type": "uint64[]"
                },
                {
                  "internalType": "uint64[]",
                  "name": "conversionPrice",
                  "type": "uint64[]"
                },
                {
                  "internalType": "uint64[]",
                  "name": "fees",
                  "type": "uint64[]"
                },
                {
                  "internalType": "uint64[]",
                  "name": "conversionFees",
                  "type": "uint64[]"
                }
              ],
              "internalType": "struct KomodoNotarise.CurrencyState",
              "name": "currencyState",
              "type": "tuple"
            }
          ],
          "internalType": "struct KomodoNotarise.NotarisedBlock",
          "name": "",
          "type": "tuple"
        }
      ],
      "stateMutability": "view",
      "type": "function"
    },
    {
      "inputs": [
        {
          "internalType": "uint32",
          "name": "_blockHeight",
          "type": "uint32"
        }
      ],
      "name": "getNotarisedBlock",
      "outputs": [
        {
          "components": [
            {
              "internalType": "uint32",
              "name": "version",
              "type": "uint32"
            },
            {
              "internalType": "uint32",
              "name": "protocol",
              "type": "uint32"
            },
            {
              "internalType": "uint160",
              "name": "currencyID",
              "type": "uint160"
            },
            {
              "internalType": "uint160",
              "name": "notaryDest",
              "type": "uint160"
            },
            {
              "internalType": "uint32",
              "name": "notarizationHeight",
              "type": "uint32"
            },
            {
              "internalType": "uint256",
              "name": "mmrRoot",
              "type": "uint256"
            },
            {
              "internalType": "uint256",
              "name": "notarizationPreHash",
              "type": "uint256"
            },
            {
              "internalType": "uint256",
              "name": "compactPower",
              "type": "uint256"
            },
            {
              "components": [
                {
                  "internalType": "uint64[]",
                  "name": "reserveIn",
                  "type": "uint64[]"
                },
                {
                  "internalType": "uint64[]",
                  "name": "nativeIn",
                  "type": "uint64[]"
                },
                {
                  "internalType": "uint64[]",
                  "name": "reserveOut",
                  "type": "uint64[]"
                },
                {
                  "internalType": "uint64[]",
                  "name": "conversionPrice",
                  "type": "uint64[]"
                },
                {
                  "internalType": "uint64[]",
                  "name": "fees",
                  "type": "uint64[]"
                },
                {
                  "internalType": "uint64[]",
                  "name": "conversionFees",
                  "type": "uint64[]"
                }
              ],
              "internalType": "struct KomodoNotarise.CurrencyState",
              "name": "currencyState",
              "type": "tuple"
            }
          ],
          "internalType": "struct KomodoNotarise.NotarisedBlock",
          "name": "",
          "type": "tuple"
        }
      ],
      "stateMutability": "view",
      "type": "function"
    },
    {
      "inputs": [],
      "name": "getLastBlockHeight",
      "outputs": [
        {
          "internalType": "uint32",
          "name": "",
          "type": "uint32"
        }
      ],
      "stateMutability": "view",
      "type": "function"
    },
    {
      "inputs": [],
      "name": "kill",
      "outputs": [],
      "stateMutability": "nonpayable",
      "type": "function"
    },
    {
      "inputs": [
        {
          "internalType": "address",
          "name": "_upgradedAddress",
          "type": "address"
        }
      ],
      "name": "deprecate",
      "outputs": [],
      "stateMutability": "nonpayable",
      "type": "function"
    }
  ],
  "bytecode": "0x60806040526001600760156101000a81548160ff021916908360ff16021790555034801561002c57600080fd5b50600061003d61013860201b60201c565b9050806000806101000a81548173ffffffffffffffffffffffffffffffffffffffff021916908373ffffffffffffffffffffffffffffffffffffffff1602179055508073ffffffffffffffffffffffffffffffffffffffff16600073ffffffffffffffffffffffffffffffffffffffff167f8be0079c531659141344cd1fd0a4f28419497f9722a3daafe3b4186f6b6457e060405160405180910390a3506000600760006101000a81548160ff0219169083151502179055506000600a60006101000a81548160ff021916908360ff16021790555060008060146101000a81548163ffffffff021916908363ffffffff160217905550610140565b600033905090565b61281c8061014f6000396000f3fe608060405234801561001057600080fd5b50600436106100f55760003560e01c806370bbf76b11610097578063b213264a11610066578063b213264a1461023e578063c727ea301461026e578063d45167d01461029e578063f2fde38b146102ce576100f5565b806370bbf76b146101c8578063715018a6146101e657806386785a6f146101f05780638da5cb5b14610220576100f5565b80630e136b19116100d35780630e136b191461016457806326976e3f1461018257806341c0e1b5146101a05780634b60ae63146101aa576100f5565b806302394872146100fa5780630588565f146101185780630753c30c14610148575b600080fd5b6101026102ea565b60405161010f91906124ca565b60405180910390f35b610132600480360381019061012d9190611a85565b610354565b60405161013f91906122f8565b60405180910390f35b610162600480360381019061015d9190611a85565b6105b1565b005b61016c61072d565b60405161017991906122f8565b60405180910390f35b61018a610740565b60405161019791906122dd565b60405180910390f35b6101a8610766565b005b6101b2610815565b6040516101bf91906124ca565b60405180910390f35b6101d061082b565b6040516101dd9190612478565b60405180910390f35b6101ee610959565b005b61020a60048036038101906102059190611a85565b610aae565b60405161021791906122f8565b60405180910390f35b610228610cbd565b60405161023591906122dd565b60405180910390f35b61025860048036038101906102539190611bd4565b610ce6565b6040516102659190612478565b60405180910390f35b61028860048036038101906102839190611b11565b610db5565b60405161029591906122f8565b60405180910390f35b6102b860048036038101906102b39190611aae565b61112b565b6040516102c591906122dd565b60405180910390f35b6102e860048036038101906102e39190611a85565b61118b565b005b6000600760009054906101000a900460ff161561033c576040517f08c379a000000000000000000000000000000000000000000000000000000000815260040161033390612358565b60405180910390fd5b600060149054906101000a900463ffffffff16905090565b600061035e61134f565b73ffffffffffffffffffffffffffffffffffffffff166000809054906101000a900473ffffffffffffffffffffffffffffffffffffffff1673ffffffffffffffffffffffffffffffffffffffff16146103ec576040517f08c379a00000000000000000000000000000000000000000000000000000000081526004016103e390612418565b60405180910390fd5b600760009054906101000a900460ff161561043c576040517f08c379a000000000000000000000000000000000000000000000000000000000815260040161043390612358565b60405180910390fd5b603c600a60009054906101000a900460ff1660ff1610610491576040517f08c379a0000000000000000000000000000000000000000000000000000000008152600401610488906123d8565b60405180910390fd5b600860008373ffffffffffffffffffffffffffffffffffffffff1673ffffffffffffffffffffffffffffffffffffffff16815260200190815260200160002060009054906101000a900460ff161561051e576040517f08c379a000000000000000000000000000000000000000000000000000000000815260040161051590612458565b60405180910390fd5b6001600860008473ffffffffffffffffffffffffffffffffffffffff1673ffffffffffffffffffffffffffffffffffffffff16815260200190815260200160002060006101000a81548160ff021916908315150217905550600a600081819054906101000a900460ff168092919060010191906101000a81548160ff021916908360ff1602179055505060019050919050565b6105b961134f565b73ffffffffffffffffffffffffffffffffffffffff166000809054906101000a900473ffffffffffffffffffffffffffffffffffffffff1673ffffffffffffffffffffffffffffffffffffffff1614610647576040517f08c379a000000000000000000000000000000000000000000000000000000000815260040161063e90612418565b60405180910390fd5b600760009054906101000a900460ff1615610697576040517f08c379a000000000000000000000000000000000000000000000000000000000815260040161068e90612358565b60405180910390fd5b6001600760006101000a81548160ff02191690831515021790555080600760016101000a81548173ffffffffffffffffffffffffffffffffffffffff021916908373ffffffffffffffffffffffffffffffffffffffff1602179055507fcc358699805e9a8b7f77b522628c7cb9abd07d9efb86b6fb616af1609036a99e8160405161072291906122dd565b60405180910390a150565b600760009054906101000a900460ff1681565b600760019054906101000a900473ffffffffffffffffffffffffffffffffffffffff1681565b61076e61134f565b73ffffffffffffffffffffffffffffffffffffffff166000809054906101000a900473ffffffffffffffffffffffffffffffffffffffff1673ffffffffffffffffffffffffffffffffffffffff16146107fc576040517f08c379a00000000000000000000000000000000000000000000000000000000081526004016107f390612418565b60405180910390fd5b3373ffffffffffffffffffffffffffffffffffffffff16ff5b600060149054906101000a900463ffffffff1681565b61083361149f565b600760009054906101000a900460ff1615610883576040517f08c379a000000000000000000000000000000000000000000000000000000000815260040161087a90612358565b60405180910390fd5b610954600960008060149054906101000a900463ffffffff1663ffffffff1663ffffffff1681526020019081526020016000208054600181600116156101000203166002900480601f01602080910402602001604051908101604052809291908181526020018280546001816001161561010002031660029004801561094a5780601f1061091f5761010080835404028352916020019161094a565b820191906000526020600020905b81548152906001019060200180831161092d57829003601f168201915b5050505050611357565b905090565b61096161134f565b73ffffffffffffffffffffffffffffffffffffffff166000809054906101000a900473ffffffffffffffffffffffffffffffffffffffff1673ffffffffffffffffffffffffffffffffffffffff16146109ef576040517f08c379a00000000000000000000000000000000000000000000000000000000081526004016109e690612418565b60405180910390fd5b600073ffffffffffffffffffffffffffffffffffffffff166000809054906101000a900473ffffffffffffffffffffffffffffffffffffffff1673ffffffffffffffffffffffffffffffffffffffff167f8be0079c531659141344cd1fd0a4f28419497f9722a3daafe3b4186f6b6457e060405160405180910390a360008060006101000a81548173ffffffffffffffffffffffffffffffffffffffff021916908373ffffffffffffffffffffffffffffffffffffffff160217905550565b6000610ab861134f565b73ffffffffffffffffffffffffffffffffffffffff166000809054906101000a900473ffffffffffffffffffffffffffffffffffffffff1673ffffffffffffffffffffffffffffffffffffffff1614610b46576040517f08c379a0000000000000000000000000000000000000000000000000000000008152600401610b3d90612418565b60405180910390fd5b600760009054906101000a900460ff1615610b96576040517f08c379a0000000000000000000000000000000000000000000000000000000008152600401610b8d90612358565b60405180910390fd5b60011515600860008473ffffffffffffffffffffffffffffffffffffffff1673ffffffffffffffffffffffffffffffffffffffff16815260200190815260200160002060009054906101000a900460ff16151514610c29576040517f08c379a0000000000000000000000000000000000000000000000000000000008152600401610c20906123b8565b60405180910390fd5b6000600860008473ffffffffffffffffffffffffffffffffffffffff1673ffffffffffffffffffffffffffffffffffffffff16815260200190815260200160002060006101000a81548160ff021916908315150217905550600a600081819054906101000a900460ff16809291906001900391906101000a81548160ff021916908360ff1602179055505060019050919050565b60008060009054906101000a900473ffffffffffffffffffffffffffffffffffffffff16905090565b610cee61149f565b610dae600960008463ffffffff1663ffffffff1681526020019081526020016000208054600181600116156101000203166002900480601f016020809104026020016040519081016040528092919081815260200182805460018160011615610100020316600290048015610da45780601f10610d7957610100808354040283529160200191610da4565b820191906000526020600020905b815481529060010190602001808311610d8757829003601f168201915b5050505050611357565b9050919050565b6000600760009054906101000a900460ff1615610e07576040517f08c379a0000000000000000000000000000000000000000000000000000000008152600401610dfe90612358565b60405180910390fd5b600860003373ffffffffffffffffffffffffffffffffffffffff1673ffffffffffffffffffffffffffffffffffffffff16815260200190815260200160002060009054906101000a900460ff16610e93576040517f08c379a0000000000000000000000000000000000000000000000000000000008152600401610e8a90612398565b60405180910390fd5b82518451148015610ea5575081518451145b610ee4576040517f08c379a0000000000000000000000000000000000000000000000000000000008152600401610edb906123f8565b60405180910390fd5b600060149054906101000a900463ffffffff1663ffffffff16856080015163ffffffff1611610f48576040517f08c379a0000000000000000000000000000000000000000000000000000000008152600401610f3f90612438565b60405180910390fd5b6060610f5386611448565b90506000815182604051602001610f6b9291906122aa565b6040516020818303038152906040528051906020012090506000806000905060008090505b885181101561104857610fde84888381518110610fa957fe5b60200260200101518b8481518110610fbd57fe5b60200260200101518b8581518110610fd157fe5b602002602001015161112b565b9250600860008473ffffffffffffffffffffffffffffffffffffffff1673ffffffffffffffffffffffffffffffffffffffff16815260200190815260200160002060009054906101000a900460ff161561103b5781806001019250505b8080600101915050610f90565b50600760159054906101000a900460ff1660ff168160ff161061111a5783600960008b6080015163ffffffff1663ffffffff168152602001908152602001600020908051906020019061109c92919061152f565b508860800151600060146101000a81548163ffffffff021916908363ffffffff1602179055507f588e3f94612820cb46b297443db0238613fe43e46a279eedeca0a0bca0e15bb489600060149054906101000a900463ffffffff1660405161110592919061249a565b60405180910390a16001945050505050611123565b60009450505050505b949350505050565b600080600186868686604051600081526020016040526040516111519493929190612313565b6020604051602081039080840390855afa158015611173573d6000803e3d6000fd5b50505060206040510351905080915050949350505050565b61119361134f565b73ffffffffffffffffffffffffffffffffffffffff166000809054906101000a900473ffffffffffffffffffffffffffffffffffffffff1673ffffffffffffffffffffffffffffffffffffffff1614611221576040517f08c379a000000000000000000000000000000000000000000000000000000000815260040161121890612418565b60405180910390fd5b600073ffffffffffffffffffffffffffffffffffffffff168173ffffffffffffffffffffffffffffffffffffffff161415611291576040517f08c379a000000000000000000000000000000000000000000000000000000000815260040161128890612378565b60405180910390fd5b8073ffffffffffffffffffffffffffffffffffffffff166000809054906101000a900473ffffffffffffffffffffffffffffffffffffffff1673ffffffffffffffffffffffffffffffffffffffff167f8be0079c531659141344cd1fd0a4f28419497f9722a3daafe3b4186f6b6457e060405160405180910390a3806000806101000a81548173ffffffffffffffffffffffffffffffffffffffff021916908373ffffffffffffffffffffffffffffffffffffffff16021790555050565b600033905090565b61135f61149f565b61136761149f565b8280602001905181019061137b9190611bfd565b88600001896020018a6040018b6060018c6080018d60a0018e60c0018f60e0018881525088815250888152508863ffffffff1663ffffffff168152508873ffffffffffffffffffffffffffffffffffffffff1673ffffffffffffffffffffffffffffffffffffffff168152508873ffffffffffffffffffffffffffffffffffffffff1673ffffffffffffffffffffffffffffffffffffffff168152508863ffffffff1663ffffffff168152508863ffffffff1663ffffffff16815250505050505050505080915050919050565b6060816000015182602001518360400151846060015185608001518660a001518760c001518860e001516040516020016114899897969594939291906124e5565b6040516020818303038152906040529050919050565b604051806101200160405280600063ffffffff168152602001600063ffffffff168152602001600073ffffffffffffffffffffffffffffffffffffffff168152602001600073ffffffffffffffffffffffffffffffffffffffff168152602001600063ffffffff1681526020016000815260200160008152602001600081526020016115296115af565b81525090565b828054600181600116156101000203166002900490600052602060002090601f016020900481019282601f1061157057805160ff191683800117855561159e565b8280016001018555821561159e579182015b8281111561159d578251825591602001919060010190611582565b5b5090506115ab91906115e5565b5090565b6040518060c001604052806060815260200160608152602001606081526020016060815260200160608152602001606081525090565b61160791905b808211156116035760008160009055506001016115eb565b5090565b90565b60008135905061161981612745565b92915050565b600082601f83011261163057600080fd5b813561164361163e82612590565b612563565b9150818183526020840193506020810190508385602084028201111561166857600080fd5b60005b83811015611698578161167e88826117a8565b84526020840193506020830192505060018101905061166b565b5050505092915050565b600082601f8301126116b357600080fd5b81356116c66116c1826125b8565b612563565b915081818352602084019350602081019050838560208402820111156116eb57600080fd5b60005b8381101561171b57816117018882611a5b565b8452602084019350602083019250506001810190506116ee565b5050505092915050565b600082601f83011261173657600080fd5b8135611749611744826125e0565b612563565b9150818183526020840193506020810190508385602084028201111561176e57600080fd5b60005b8381101561179e57816117848882611a70565b845260208401935060208301925050600181019050611771565b5050505092915050565b6000813590506117b78161275c565b92915050565b600060c082840312156117cf57600080fd5b6117d960c0612563565b9050600082013567ffffffffffffffff8111156117f557600080fd5b611801848285016116a2565b600083015250602082013567ffffffffffffffff81111561182157600080fd5b61182d848285016116a2565b602083015250604082013567ffffffffffffffff81111561184d57600080fd5b611859848285016116a2565b604083015250606082013567ffffffffffffffff81111561187957600080fd5b611885848285016116a2565b606083015250608082013567ffffffffffffffff8111156118a557600080fd5b6118b1848285016116a2565b60808301525060a082013567ffffffffffffffff8111156118d157600080fd5b6118dd848285016116a2565b60a08301525092915050565b600061012082840312156118fc57600080fd5b611907610120612563565b9050600061191784828501611a31565b600083015250602061192b84828501611a31565b602083015250604061193f848285016119dd565b6040830152506060611953848285016119dd565b606083015250608061196784828501611a31565b60808301525060a061197b84828501611a07565b60a08301525060c061198f84828501611a07565b60c08301525060e06119a384828501611a07565b60e08301525061010082013567ffffffffffffffff8111156119c457600080fd5b6119d0848285016117bd565b6101008301525092915050565b6000813590506119ec81612773565b92915050565b600081519050611a0181612773565b92915050565b600081359050611a168161278a565b92915050565b600081519050611a2b8161278a565b92915050565b600081359050611a40816127a1565b92915050565b600081519050611a55816127a1565b92915050565b600081359050611a6a816127b8565b92915050565b600081359050611a7f816127cf565b92915050565b600060208284031215611a9757600080fd5b6000611aa58482850161160a565b91505092915050565b60008060008060808587031215611ac457600080fd5b6000611ad2878288016117a8565b9450506020611ae387828801611a70565b9350506040611af4878288016117a8565b9250506060611b05878288016117a8565b91505092959194509250565b60008060008060808587031215611b2757600080fd5b600085013567ffffffffffffffff811115611b4157600080fd5b611b4d878288016118e9565b945050602085013567ffffffffffffffff811115611b6a57600080fd5b611b768782880161161f565b935050604085013567ffffffffffffffff811115611b9357600080fd5b611b9f8782880161161f565b925050606085013567ffffffffffffffff811115611bbc57600080fd5b611bc887828801611725565b91505092959194509250565b600060208284031215611be657600080fd5b6000611bf484828501611a31565b91505092915050565b600080600080600080600080610100898b031215611c1a57600080fd5b6000611c288b828c01611a46565b9850506020611c398b828c01611a46565b9750506040611c4a8b828c016119f2565b9650506060611c5b8b828c016119f2565b9550506080611c6c8b828c01611a46565b94505060a0611c7d8b828c01611a1c565b93505060c0611c8e8b828c01611a1c565b92505060e0611c9f8b828c01611a1c565b9150509295985092959890939650565b6000611cbb838361228c565b60208301905092915050565b611cd081612673565b82525050565b6000611ce182612618565b611ceb818561263b565b9350611cf683612608565b8060005b83811015611d27578151611d0e8882611caf565b9750611d198361262e565b925050600181019050611cfa565b5085935050505092915050565b611d3d81612685565b82525050565b611d4c81612691565b82525050565b6000611d5d82612623565b611d67818561264c565b9350611d77818560208601612708565b80840191505092915050565b6000611d90601c83612657565b91507f436f6e747261637420686173206265656e2064657072656361746564000000006000830152602082019050919050565b6000611dd0602683612657565b91507f4f776e61626c653a206e6577206f776e657220697320746865207a65726f206160008301527f64647265737300000000000000000000000000000000000000000000000000006020830152604082019050919050565b6000611e36602483612657565b91507f4f6e6c792061206e6f746172792063616e2063616c6c20746869732066756e6360008301527f74696f6e000000000000000000000000000000000000000000000000000000006020830152604082019050919050565b6000611e9c601583612657565b91507f4e6f7461727920646f6573206e6f7420657869737400000000000000000000006000830152602082019050919050565b6000611edc601f83612657565b91507f43616e742068617665206d6f7265207468616e203630206e6f746172696573006000830152602082019050919050565b6000611f1c602883612657565b91507f5369676e617475726520617272617973206d757374206265206f66206571756160008301527f6c206c656e6774680000000000000000000000000000000000000000000000006020830152604082019050919050565b6000611f82602083612657565b91507f4f776e61626c653a2063616c6c6572206973206e6f7420746865206f776e65726000830152602082019050919050565b6000611fc2601a83612668565b91507f19457468657265756d205369676e6564204d6573736167653a0a0000000000006000830152601a82019050919050565b6000612002603683612657565b91507f426c6f636b20486569676874206d75737420626520677265617465722074686160008301527f6e2063757272656e7420626c6f636b20686569676874000000000000000000006020830152604082019050919050565b6000612068601583612657565b91507f4e6f7461727920616c72656164792065786973747300000000000000000000006000830152602082019050919050565b600060c08301600083015184820360008601526120b88282611cd6565b915050602083015184820360208601526120d28282611cd6565b915050604083015184820360408601526120ec8282611cd6565b915050606083015184820360608601526121068282611cd6565b915050608083015184820360808601526121208282611cd6565b91505060a083015184820360a086015261213a8282611cd6565b9150508091505092915050565b600061012083016000830151612160600086018261225f565b506020830151612173602086018261225f565b506040830151612186604086018261220c565b506060830151612199606086018261220c565b5060808301516121ac608086018261225f565b5060a08301516121bf60a086018261222a565b5060c08301516121d260c086018261222a565b5060e08301516121e560e086018261222a565b506101008301518482036101008601526121ff828261209b565b9150508091505092915050565b6122158161269b565b82525050565b6122248161269b565b82525050565b612233816126bb565b82525050565b612242816126bb565b82525050565b612259612254826126bb565b61273b565b82525050565b612268816126c5565b82525050565b612277816126c5565b82525050565b612286816126f6565b82525050565b612295816126d5565b82525050565b6122a4816126e9565b82525050565b60006122b582611fb5565b91506122c18285612248565b6020820191506122d18284611d52565b91508190509392505050565b60006020820190506122f26000830184611cc7565b92915050565b600060208201905061230d6000830184611d34565b92915050565b60006080820190506123286000830187611d43565b612335602083018661229b565b6123426040830185611d43565b61234f6060830184611d43565b95945050505050565b6000602082019050818103600083015261237181611d83565b9050919050565b6000602082019050818103600083015261239181611dc3565b9050919050565b600060208201905081810360008301526123b181611e29565b9050919050565b600060208201905081810360008301526123d181611e8f565b9050919050565b600060208201905081810360008301526123f181611ecf565b9050919050565b6000602082019050818103600083015261241181611f0f565b9050919050565b6000602082019050818103600083015261243181611f75565b9050919050565b6000602082019050818103600083015261245181611ff5565b9050919050565b600060208201905081810360008301526124718161205b565b9050919050565b600060208201905081810360008301526124928184612147565b905092915050565b600060408201905081810360008301526124b48185612147565b90506124c3602083018461227d565b9392505050565b60006020820190506124df600083018461226e565b92915050565b6000610100820190506124fb600083018b61226e565b612508602083018a61226e565b612515604083018961221b565b612522606083018861221b565b61252f608083018761226e565b61253c60a0830186612239565b61254960c0830185612239565b61255660e0830184612239565b9998505050505050505050565b6000604051905081810181811067ffffffffffffffff8211171561258657600080fd5b8060405250919050565b600067ffffffffffffffff8211156125a757600080fd5b602082029050602081019050919050565b600067ffffffffffffffff8211156125cf57600080fd5b602082029050602081019050919050565b600067ffffffffffffffff8211156125f757600080fd5b602082029050602081019050919050565b6000819050602082019050919050565b600081519050919050565b600081519050919050565b6000602082019050919050565b600082825260208201905092915050565b600081905092915050565b600082825260208201905092915050565b600081905092915050565b600061267e8261269b565b9050919050565b60008115159050919050565b6000819050919050565b600073ffffffffffffffffffffffffffffffffffffffff82169050919050565b6000819050919050565b600063ffffffff82169050919050565b600067ffffffffffffffff82169050919050565b600060ff82169050919050565b6000612701826126c5565b9050919050565b60005b8381101561272657808201518184015260208101905061270b565b83811115612735576000848401525b50505050565b6000819050919050565b61274e81612673565b811461275957600080fd5b50565b61276581612691565b811461277057600080fd5b50565b61277c8161269b565b811461278757600080fd5b50565b612793816126bb565b811461279e57600080fd5b50565b6127aa816126c5565b81146127b557600080fd5b50565b6127c1816126d5565b81146127cc57600080fd5b50565b6127d8816126e9565b81146127e357600080fd5b5056fea26469706673582212209f973a50918ad33a4753046b286925b5fca9e35740732306d015d4a376d52ecf64736f6c634300060b0033",
  "immutableReferences": {},
  "source": "// SPDX-License-Identifier: MIT\n// Bridge between ethereum and verus\n\npragma solidity >=0.6.0 <0.7.0;\npragma experimental ABIEncoderV2;\nimport \"../node_modules/@openzeppelin/contracts/access/Ownable.sol\";\n\ncontract KomodoNotarise is Ownable{\n\n    //last notarised blockheight\n    uint32 public lastBlockHeight;\n    CurrencyState private lastCurrencyState;\n    //allows for the contract to be upgradable\n    bool public deprecated;\n    address public upgradedAddress;\n    //number of notaries required\n    uint8 requiredNotaries = 1;\n\n    //list of all notarisers mapped to allow for quick searching\n    mapping (address => bool) private komodoNotaries;\n    //mapped blockdetails\n    //the\n    mapping (uint32 => bytes) private notarisedBlocks;\n    //used to record the number of notaries\n    uint8 private notaryCount;\n\n    struct NotarisedBlock{\n        uint32 version;\n        uint32 protocol;\n        uint160 currencyID;\n        uint160 notaryDest;\n        uint32 notarizationHeight;\n        uint256 mmrRoot;\n        uint256 notarizationPreHash;\n        uint256 compactPower;\n        CurrencyState currencyState;\n    }\n\n    struct CurrencyState{\n        uint64[] reserveIn;\n        uint64[] nativeIn;\n        uint64[] reserveOut;\n        uint64[] conversionPrice;\n        uint64[] fees;\n        uint64[] conversionFees;\n    }\n\n    // Notifies when the contract is deprecated\n    event Deprecate(address newAddress);\n    // Notifies when a new block hash is published\n    event NewBlock(NotarisedBlock notarisedBlock,uint64 notarisedBlockHeight);\n\n\n    constructor() public {\n        deprecated = false;\n        notaryCount = 0;\n        lastBlockHeight = 0;\n    }\n\n    function addNotary(address _notary) public onlyOwner\n    returns(bool){\n\n        require(!deprecated,\"Contract has been deprecated\");\n        //if the the komodoNotaries is full reject\n        require(notaryCount < 60,\"Cant have more than 60 notaries\");\n        //if the notary already is in the komodNotaries then reject\n        require(!komodoNotaries[_notary],\"Notary already exists\");\n\n        komodoNotaries[_notary] = true;\n        notaryCount++;\n        return true;\n\n    }\n\n    function removeNotary(address _notary)  public onlyOwner\n    returns(bool){\n\n        require(!deprecated,\"Contract has been deprecated\");\n        //if the notary is not in the list then fail\n        require(komodoNotaries[_notary] == true,\"Notary does not exist\");\n\n        //need to look at this no easy way to delete from a mapping\n        komodoNotaries[_notary] = false;\n        notaryCount--;\n        return true;\n\n    }\n\n\n    function setLatestBlock(NotarisedBlock memory _notarisedBlockDetail,\n        bytes32[] memory _rs,\n        bytes32[] memory _ss,\n        uint8[] memory _vs) public returns(bool){\n\n        require(!deprecated,\"Contract has been deprecated\");\n        require(komodoNotaries[msg.sender],\"Only a notary can call this function\");\n        require((_rs.length == _ss.length) && (_rs.length == _vs.length),\"Signature arrays must be of equal length\");\n        require(_notarisedBlockDetail.notarizationHeight > lastBlockHeight,\"Block Height must be greater than current block height\");\n\n        bytes memory serialisedBlock = serialiseBlock(_notarisedBlockDetail);\n        //check the hash of the data\n        bytes32 hashedData = keccak256(abi.encodePacked(\"\\x19Ethereum Signed Message:\\n\",serialisedBlock.length,serialisedBlock));\n        //need to check the block hash matches the hashed notarised block\n        //require(_notarisedBlockDetail.length == 148,\"Incorrect block length, block whould be 148 long\");\n\n        address signingAddress;\n        //total number of signatures that have been validated\n        uint8 numberOfSignatures = 0;\n\n        //loop through the arrays, check the following:\n        //does the hash in the hashedBlocks match the komodoBlockHash passed in\n        for(uint i = 0; i < _rs.length; i++){\n            //if the address is in the notary array increment the number of signatures\n            signingAddress = recoverSigner(hashedData, _vs[i], _rs[i], _ss[i]);\n            if(komodoNotaries[signingAddress]) {\n                numberOfSignatures++;\n            }\n        }\n\n        //if there is greater than 13 proper signatories then set the block hash\n        if(numberOfSignatures >= requiredNotaries){\n            notarisedBlocks[_notarisedBlockDetail.notarizationHeight] = serialisedBlock;\n            lastBlockHeight = _notarisedBlockDetail.notarizationHeight;\n            emit NewBlock(_notarisedBlockDetail,lastBlockHeight);\n            return true;\n        } else return false;\n\n\n    }\n\n    function recoverSigner(bytes32 h, uint8 v, bytes32 r, bytes32 s) public pure returns (address) {\n        address addr = ecrecover(h, v, r, s);\n        return addr;\n    }\n\n\n    function getLastNotarisedBlock() public view returns(NotarisedBlock memory){\n\n        require(!deprecated,\"Contract has been deprecated\");\n        return deSerialiseBlock(notarisedBlocks[lastBlockHeight]);\n\n    }\n\n    function getNotarisedBlock(uint32 _blockHeight) public view returns(NotarisedBlock memory){\n\n        return deSerialiseBlock(notarisedBlocks[_blockHeight]);\n\n    }\n\n    function getLastBlockHeight() public view returns(uint32){\n\n        require(!deprecated,\"Contract has been deprecated\");\n        return lastBlockHeight;\n    }\n\n    function deSerialiseBlock(bytes memory _serialisedBlock) private pure returns(NotarisedBlock memory){\n        NotarisedBlock memory deserialisedBlock;\n        (deserialisedBlock.version,\n        deserialisedBlock.protocol,\n        deserialisedBlock.currencyID,\n        deserialisedBlock.notaryDest,\n        deserialisedBlock.notarizationHeight,\n        deserialisedBlock.mmrRoot,\n        deserialisedBlock.notarizationPreHash,\n        deserialisedBlock.compactPower\n        ) = abi.decode(_serialisedBlock,(uint32,uint32,uint160,uint160,uint32,uint256,uint256,uint256));\n\n        return deserialisedBlock;\n    }\n\n    function serialiseBlock(NotarisedBlock memory _deserialisedBlock) private pure returns(bytes memory){\n        return abi.encode(_deserialisedBlock.version,\n        _deserialisedBlock.protocol,\n        _deserialisedBlock.currencyID,\n        _deserialisedBlock.notaryDest,\n        _deserialisedBlock.notarizationHeight,\n        _deserialisedBlock.mmrRoot,\n        _deserialisedBlock.notarizationPreHash,\n        _deserialisedBlock.compactPower);\n    }\n\n    function kill() public onlyOwner{\n        selfdestruct(msg.sender);\n    }\n\n    /**\n    * deprecate current contract\n    */\n    function deprecate(address _upgradedAddress) public onlyOwner {\n        require(!deprecated,\"Contract has been deprecated\");\n        deprecated = true;\n        upgradedAddress = _upgradedAddress;\n        emit Deprecate(_upgradedAddress);\n\n    }\n\n}\n\n",
  "sourcePath": "/Volumes/UsersSSD/james/Development/komodo-notarisation-solidity/contracts/komodoNotarise.sol",
  "compiler": {
    "name": "solc",
    "version": "0.6.11+commit.5ef660b1.Emscripten.clang"
  },
  "schemaVersion": "3.2.0",
  "updatedAt": "2020-07-21T19:33:12.845Z",
  "devdoc": {
    "kind": "dev",
    "methods": {
      "owner()": {
        "details": "Returns the address of the current owner."
      },
      "renounceOwnership()": {
        "details": "Leaves the contract without owner. It will not be possible to call `onlyOwner` functions anymore. Can only be called by the current owner. NOTE: Renouncing ownership will leave the contract without an owner, thereby removing any functionality that is only available to the owner."
      },
      "transferOwnership(address)": {
        "details": "Transfers ownership of the contract to a new account (`newOwner`). Can only be called by the current owner."
      }
    },
    "version": 1
  },
  "userdoc": {
    "kind": "user",
    "methods": {
      "deprecate(address)": {
        "notice": "deprecate current contract"
      }
    },
    "version": 1
  }
}