{
  "contractName": "KomodoNotarize",
  "abi": [
    {
      "inputs": [],
      "stateMutability": "nonpayable",
      "type": "constructor"
    },
    {
      "anonymous": false,
      "inputs": [
        {
          "indexed": false,
          "internalType": "address",
          "name": "newAddress",
          "type": "address"
        }
      ],
      "name": "Deprecate",
      "type": "event"
    },
    {
      "anonymous": false,
      "inputs": [
        {
          "components": [
            {
              "internalType": "uint32",
              "name": "version",
              "type": "uint32"
            },
            {
              "internalType": "uint32",
              "name": "protocol",
              "type": "uint32"
            },
            {
              "internalType": "uint160",
              "name": "currencyID",
              "type": "uint160"
            },
            {
              "internalType": "uint160",
              "name": "notaryDest",
              "type": "uint160"
            },
            {
              "internalType": "uint32",
              "name": "notarizationHeight",
              "type": "uint32"
            },
            {
              "internalType": "uint256",
              "name": "mmrRoot",
              "type": "uint256"
            },
            {
              "internalType": "uint256",
              "name": "notarizationPreHash",
              "type": "uint256"
            },
            {
              "internalType": "uint256",
              "name": "compactPower",
              "type": "uint256"
            }
          ],
          "indexed": false,
          "internalType": "struct KomodoNotarize.NotarizedData",
          "name": "notarizedData",
          "type": "tuple"
        },
        {
          "indexed": false,
          "internalType": "uint64",
          "name": "notarizedDataHeight",
          "type": "uint64"
        }
      ],
      "name": "NewBlock",
      "type": "event"
    },
    {
      "anonymous": false,
      "inputs": [
        {
          "indexed": true,
          "internalType": "address",
          "name": "previousOwner",
          "type": "address"
        },
        {
          "indexed": true,
          "internalType": "address",
          "name": "newOwner",
          "type": "address"
        }
      ],
      "name": "OwnershipTransferred",
      "type": "event"
    },
    {
      "anonymous": false,
      "inputs": [
        {
          "indexed": false,
          "internalType": "address",
          "name": "signedAddress",
          "type": "address"
        }
      ],
      "name": "signedAddress",
      "type": "event"
    },
    {
      "inputs": [
        {
          "internalType": "uint256",
          "name": "",
          "type": "uint256"
        }
      ],
      "name": "blockHeights",
      "outputs": [
        {
          "internalType": "uint32",
          "name": "",
          "type": "uint32"
        }
      ],
      "stateMutability": "view",
      "type": "function"
    },
    {
      "inputs": [],
      "name": "deprecated",
      "outputs": [
        {
          "internalType": "bool",
          "name": "",
          "type": "bool"
        }
      ],
      "stateMutability": "view",
      "type": "function"
    },
    {
      "inputs": [],
      "name": "lastBlockHeight",
      "outputs": [
        {
          "internalType": "uint32",
          "name": "",
          "type": "uint32"
        }
      ],
      "stateMutability": "view",
      "type": "function"
    },
    {
      "inputs": [
        {
          "internalType": "uint32",
          "name": "",
          "type": "uint32"
        }
      ],
      "name": "notarizedDataEntries",
      "outputs": [
        {
          "internalType": "bytes",
          "name": "",
          "type": "bytes"
        }
      ],
      "stateMutability": "view",
      "type": "function"
    },
    {
      "inputs": [],
      "name": "owner",
      "outputs": [
        {
          "internalType": "address",
          "name": "",
          "type": "address"
        }
      ],
      "stateMutability": "view",
      "type": "function"
    },
    {
      "inputs": [],
      "name": "renounceOwnership",
      "outputs": [],
      "stateMutability": "nonpayable",
      "type": "function"
    },
    {
      "inputs": [
        {
          "internalType": "address",
          "name": "newOwner",
          "type": "address"
        }
      ],
      "name": "transferOwnership",
      "outputs": [],
      "stateMutability": "nonpayable",
      "type": "function"
    },
    {
      "inputs": [],
      "name": "upgradedAddress",
      "outputs": [
        {
          "internalType": "address",
          "name": "",
          "type": "address"
        }
      ],
      "stateMutability": "view",
      "type": "function"
    },
    {
      "inputs": [
        {
          "internalType": "address",
          "name": "_notary",
          "type": "address"
        },
        {
          "internalType": "bytes32",
          "name": "_notarizedAddressHash",
          "type": "bytes32"
        },
        {
          "internalType": "bytes32[]",
          "name": "_rs",
          "type": "bytes32[]"
        },
        {
          "internalType": "bytes32[]",
          "name": "_ss",
          "type": "bytes32[]"
        },
        {
          "internalType": "uint8[]",
          "name": "_vs",
          "type": "uint8[]"
        }
      ],
      "name": "addNotary",
      "outputs": [
        {
          "internalType": "bool",
          "name": "",
          "type": "bool"
        }
      ],
      "stateMutability": "nonpayable",
      "type": "function"
    },
    {
      "inputs": [
        {
          "internalType": "address",
          "name": "_notary",
          "type": "address"
        }
      ],
      "name": "removeNotary",
      "outputs": [
        {
          "internalType": "bool",
          "name": "",
          "type": "bool"
        }
      ],
      "stateMutability": "nonpayable",
      "type": "function"
    },
    {
      "inputs": [],
      "name": "currentNotariesRequired",
      "outputs": [
        {
          "internalType": "uint8",
          "name": "",
          "type": "uint8"
        }
      ],
      "stateMutability": "view",
      "type": "function"
    },
    {
      "inputs": [
        {
          "components": [
            {
              "internalType": "uint32",
              "name": "version",
              "type": "uint32"
            },
            {
              "internalType": "uint32",
              "name": "protocol",
              "type": "uint32"
            },
            {
              "internalType": "uint160",
              "name": "currencyID",
              "type": "uint160"
            },
            {
              "internalType": "uint160",
              "name": "notaryDest",
              "type": "uint160"
            },
            {
              "internalType": "uint32",
              "name": "notarizationHeight",
              "type": "uint32"
            },
            {
              "internalType": "uint256",
              "name": "mmrRoot",
              "type": "uint256"
            },
            {
              "internalType": "uint256",
              "name": "notarizationPreHash",
              "type": "uint256"
            },
            {
              "internalType": "uint256",
              "name": "compactPower",
              "type": "uint256"
            }
          ],
          "internalType": "struct KomodoNotarize.NotarizedData",
          "name": "_notarizedDataDetail",
          "type": "tuple"
        },
        {
          "internalType": "bytes32",
          "name": "_notarizedDataHash",
          "type": "bytes32"
        },
        {
          "internalType": "bytes32[]",
          "name": "_rs",
          "type": "bytes32[]"
        },
        {
          "internalType": "bytes32[]",
          "name": "_ss",
          "type": "bytes32[]"
        },
        {
          "internalType": "uint8[]",
          "name": "_vs",
          "type": "uint8[]"
        }
      ],
      "name": "setLatestData",
      "outputs": [
        {
          "internalType": "bool",
          "name": "",
          "type": "bool"
        }
      ],
      "stateMutability": "nonpayable",
      "type": "function"
    },
    {
      "inputs": [],
      "name": "getLastNotarizedData",
      "outputs": [
        {
          "components": [
            {
              "internalType": "uint32",
              "name": "version",
              "type": "uint32"
            },
            {
              "internalType": "uint32",
              "name": "protocol",
              "type": "uint32"
            },
            {
              "internalType": "uint160",
              "name": "currencyID",
              "type": "uint160"
            },
            {
              "internalType": "uint160",
              "name": "notaryDest",
              "type": "uint160"
            },
            {
              "internalType": "uint32",
              "name": "notarizationHeight",
              "type": "uint32"
            },
            {
              "internalType": "uint256",
              "name": "mmrRoot",
              "type": "uint256"
            },
            {
              "internalType": "uint256",
              "name": "notarizationPreHash",
              "type": "uint256"
            },
            {
              "internalType": "uint256",
              "name": "compactPower",
              "type": "uint256"
            }
          ],
          "internalType": "struct KomodoNotarize.NotarizedData",
          "name": "",
          "type": "tuple"
        }
      ],
      "stateMutability": "view",
      "type": "function"
    },
    {
      "inputs": [],
      "name": "getLastCurrencyState",
      "outputs": [
        {
          "components": [
            {
              "internalType": "uint64[]",
              "name": "reserveIn",
              "type": "uint64[]"
            },
            {
              "internalType": "uint64[]",
              "name": "nativeIn",
              "type": "uint64[]"
            },
            {
              "internalType": "uint64[]",
              "name": "reserveOut",
              "type": "uint64[]"
            },
            {
              "internalType": "uint64[]",
              "name": "conversionPrice",
              "type": "uint64[]"
            },
            {
              "internalType": "uint64[]",
              "name": "fees",
              "type": "uint64[]"
            },
            {
              "internalType": "uint64[]",
              "name": "conversionFees",
              "type": "uint64[]"
            }
          ],
          "internalType": "struct KomodoNotarize.CurrencyState",
          "name": "",
          "type": "tuple"
        }
      ],
      "stateMutability": "view",
      "type": "function"
    },
    {
      "inputs": [
        {
          "internalType": "uint32",
          "name": "_blockHeight",
          "type": "uint32"
        }
      ],
      "name": "getNotarizedData",
      "outputs": [
        {
          "components": [
            {
              "internalType": "uint32",
              "name": "version",
              "type": "uint32"
            },
            {
              "internalType": "uint32",
              "name": "protocol",
              "type": "uint32"
            },
            {
              "internalType": "uint160",
              "name": "currencyID",
              "type": "uint160"
            },
            {
              "internalType": "uint160",
              "name": "notaryDest",
              "type": "uint160"
            },
            {
              "internalType": "uint32",
              "name": "notarizationHeight",
              "type": "uint32"
            },
            {
              "internalType": "uint256",
              "name": "mmrRoot",
              "type": "uint256"
            },
            {
              "internalType": "uint256",
              "name": "notarizationPreHash",
              "type": "uint256"
            },
            {
              "internalType": "uint256",
              "name": "compactPower",
              "type": "uint256"
            }
          ],
          "internalType": "struct KomodoNotarize.NotarizedData",
          "name": "",
          "type": "tuple"
        }
      ],
      "stateMutability": "view",
      "type": "function"
    },
    {
      "inputs": [],
      "name": "getLastBlockHeight",
      "outputs": [
        {
          "internalType": "uint32",
          "name": "",
          "type": "uint32"
        }
      ],
      "stateMutability": "view",
      "type": "function"
    },
    {
      "inputs": [],
      "name": "kill",
      "outputs": [],
      "stateMutability": "nonpayable",
      "type": "function"
    },
    {
      "inputs": [
        {
          "internalType": "address",
          "name": "_upgradedAddress",
          "type": "address"
        }
      ],
      "name": "deprecate",
      "outputs": [],
      "stateMutability": "nonpayable",
      "type": "function"
    }
  ],
  "bytecode": "0x6080604052600d600760156101000a81548160ff021916908360ff1602179055503480156200002d57600080fd5b50600062000040620001db60201b60201c565b9050806000806101000a81548173ffffffffffffffffffffffffffffffffffffffff021916908373ffffffffffffffffffffffffffffffffffffffff1602179055508073ffffffffffffffffffffffffffffffffffffffff16600073ffffffffffffffffffffffffffffffffffffffff167f8be0079c531659141344cd1fd0a4f28419497f9722a3daafe3b4186f6b6457e060405160405180910390a3506000600760006101000a81548160ff0219169083151502179055506000600b60006101000a81548160ff021916908360ff16021790555060008060146101000a81548163ffffffff021916908363ffffffff160217905550600062000148620001db60201b60201c565b90506001600860008373ffffffffffffffffffffffffffffffffffffffff1673ffffffffffffffffffffffffffffffffffffffff16815260200190815260200160002060006101000a81548160ff021916908315150217905550600b600081819054906101000a900460ff168092919060010191906101000a81548160ff021916908360ff1602179055505050620001e3565b600033905090565b612e8680620001f36000396000f3fe608060405234801561001057600080fd5b50600436106101165760003560e01c80635630ecd6116100a257806386785a6f1161007157806386785a6f146102bf5780638da5cb5b146102ef578063db3346c31461030d578063eb32f7121461032b578063f2fde38b1461035b57610116565b80635630ecd61461022557806359d4d188146102555780636e08081614610285578063715018a6146102b557610116565b806320cd6ba1116100e957806320cd6ba1146101a357806326976e3f146101c15780633627cf1c146101df57806341c0e1b5146101fd5780634b60ae631461020757610116565b8063023948721461011b5780630753c30c146101395780630e136b19146101555780631d0404cb14610173575b600080fd5b610123610377565b6040516101309190612b56565b60405180910390f35b610153600480360381019061014e9190611fb1565b6103e1565b005b61015d61055c565b60405161016a91906128eb565b60405180910390f35b61018d60048036038101906101889190612099565b61056f565b60405161019a91906128eb565b60405180910390f35b6101ab6108d2565b6040516101b89190612bef565b60405180910390f35b6101c9610956565b6040516101d691906128d0565b60405180910390f35b6101e761097c565b6040516101f49190612b0f565b60405180910390f35b610205610aaa565b005b61020f610b58565b60405161021c9190612b56565b60405180910390f35b61023f600480360381019061023a9190612186565b610b6e565b60405161024c919061294b565b60405180910390f35b61026f600480360381019061026a9190612186565b610c1e565b60405161027c9190612b0f565b60405180910390f35b61029f600480360381019061029a919061215d565b610ced565b6040516102ac9190612b56565b60405180910390f35b6102bd610d24565b005b6102d960048036038101906102d49190611fb1565b610e77565b6040516102e691906128eb565b60405180910390f35b6102f76110db565b60405161030491906128d0565b60405180910390f35b610315611104565b6040516103229190612aed565b60405180910390f35b61034560048036038101906103409190611fda565b6114b6565b60405161035291906128eb565b60405180910390f35b61037560048036038101906103709190611fb1565b61176b565b005b6000600760009054906101000a900460ff16156103c9576040517f08c379a00000000000000000000000000000000000000000000000000000000081526004016103c09061296d565b60405180910390fd5b600060149054906101000a900463ffffffff16905090565b6103e961192d565b73ffffffffffffffffffffffffffffffffffffffff1660008054906101000a900473ffffffffffffffffffffffffffffffffffffffff1673ffffffffffffffffffffffffffffffffffffffff1614610476576040517f08c379a000000000000000000000000000000000000000000000000000000000815260040161046d90612a6d565b60405180910390fd5b600760009054906101000a900460ff16156104c6576040517f08c379a00000000000000000000000000000000000000000000000000000000081526004016104bd9061296d565b60405180910390fd5b6001600760006101000a81548160ff02191690831515021790555080600760016101000a81548173ffffffffffffffffffffffffffffffffffffffff021916908373ffffffffffffffffffffffffffffffffffffffff1602179055507fcc358699805e9a8b7f77b522628c7cb9abd07d9efb86b6fb616af1609036a99e8160405161055191906128d0565b60405180910390a150565b600760009054906101000a900460ff1681565b60008061057a61192d565b905060011515600860008373ffffffffffffffffffffffffffffffffffffffff1673ffffffffffffffffffffffffffffffffffffffff16815260200190815260200160002060009054906101000a900460ff1615151461060f576040517f08c379a00000000000000000000000000000000000000000000000000000000081526004016106069061298d565b60405180910390fd5b600760009054906101000a900460ff161561065f576040517f08c379a00000000000000000000000000000000000000000000000000000000081526004016106569061296d565b60405180910390fd5b600860003373ffffffffffffffffffffffffffffffffffffffff1673ffffffffffffffffffffffffffffffffffffffff16815260200190815260200160002060009054906101000a900460ff166106eb576040517f08c379a00000000000000000000000000000000000000000000000000000000081526004016106e2906129cd565b60405180910390fd5b835185511480156106fd575082518551145b61073c576040517f08c379a000000000000000000000000000000000000000000000000000000000815260040161073390612a4d565b60405180910390fd5b600060149054906101000a900463ffffffff1663ffffffff16876080015163ffffffff16116107a0576040517f08c379a000000000000000000000000000000000000000000000000000000000815260040161079790612aad565b60405180910390fd5b60606107ab88611935565b90506107b98787878761198c565b156108c25780600960008a6080015163ffffffff1663ffffffff16815260200190815260200160002090805190602001906107f5929190611bd2565b50600a886080015190806001815401808255809150506001900390600052602060002090600891828204019190066004029091909190916101000a81548163ffffffff021916908363ffffffff1602179055508760800151600060146101000a81548163ffffffff021916908363ffffffff1602179055507fdad29582f3039647d6718f2f4496866217b915cd3f2d6fd2f7fb084a263f05ad88600060149054906101000a900463ffffffff166040516108b0929190612b2b565b60405180910390a160019250506108c8565b60009250505b5095945050505050565b60006001600b60009054906101000a900460ff1660ff1614156108f85760019050610953565b60006002600b60009054906101000a900460ff1660ff168161091657fe5b0460ff169050600760159054906101000a900460ff1660ff1681111561094e57600760159054906101000a900460ff16915050610953565b809150505b90565b600760019054906101000a900473ffffffffffffffffffffffffffffffffffffffff1681565b610984611c52565b600760009054906101000a900460ff16156109d4576040517f08c379a00000000000000000000000000000000000000000000000000000000081526004016109cb9061296d565b60405180910390fd5b610aa5600960008060149054906101000a900463ffffffff1663ffffffff1663ffffffff1681526020019081526020016000208054600181600116156101000203166002900480601f016020809104026020016040519081016040528092919081815260200182805460018160011615610100020316600290048015610a9b5780601f10610a7057610100808354040283529160200191610a9b565b820191906000526020600020905b815481529060010190602001808311610a7e57829003601f168201915b5050505050611a81565b905090565b610ab261192d565b73ffffffffffffffffffffffffffffffffffffffff1660008054906101000a900473ffffffffffffffffffffffffffffffffffffffff1673ffffffffffffffffffffffffffffffffffffffff1614610b3f576040517f08c379a0000000000000000000000000000000000000000000000000000000008152600401610b3690612a6d565b60405180910390fd5b3373ffffffffffffffffffffffffffffffffffffffff16ff5b600060149054906101000a900463ffffffff1681565b60096020528060005260406000206000915090508054600181600116156101000203166002900480601f016020809104026020016040519081016040528092919081815260200182805460018160011615610100020316600290048015610c165780601f10610beb57610100808354040283529160200191610c16565b820191906000526020600020905b815481529060010190602001808311610bf957829003601f168201915b505050505081565b610c26611c52565b610ce6600960008463ffffffff1663ffffffff1681526020019081526020016000208054600181600116156101000203166002900480601f016020809104026020016040519081016040528092919081815260200182805460018160011615610100020316600290048015610cdc5780601f10610cb157610100808354040283529160200191610cdc565b820191906000526020600020905b815481529060010190602001808311610cbf57829003601f168201915b5050505050611a81565b9050919050565b600a8181548110610cfa57fe5b9060005260206000209060089182820401919006600402915054906101000a900463ffffffff1681565b610d2c61192d565b73ffffffffffffffffffffffffffffffffffffffff1660008054906101000a900473ffffffffffffffffffffffffffffffffffffffff1673ffffffffffffffffffffffffffffffffffffffff1614610db9576040517f08c379a0000000000000000000000000000000000000000000000000000000008152600401610db090612a6d565b60405180910390fd5b600073ffffffffffffffffffffffffffffffffffffffff1660008054906101000a900473ffffffffffffffffffffffffffffffffffffffff1673ffffffffffffffffffffffffffffffffffffffff167f8be0079c531659141344cd1fd0a4f28419497f9722a3daafe3b4186f6b6457e060405160405180910390a360008060006101000a81548173ffffffffffffffffffffffffffffffffffffffff021916908373ffffffffffffffffffffffffffffffffffffffff160217905550565b600080610e8261192d565b905060011515600860008373ffffffffffffffffffffffffffffffffffffffff1673ffffffffffffffffffffffffffffffffffffffff16815260200190815260200160002060009054906101000a900460ff16151514610f17576040517f08c379a0000000000000000000000000000000000000000000000000000000008152600401610f0e9061298d565b60405180910390fd5b600760009054906101000a900460ff1615610f67576040517f08c379a0000000000000000000000000000000000000000000000000000000008152600401610f5e9061296d565b60405180910390fd5b60011515600860008573ffffffffffffffffffffffffffffffffffffffff1673ffffffffffffffffffffffffffffffffffffffff16815260200190815260200160002060009054906101000a900460ff16151514610ffa576040517f08c379a0000000000000000000000000000000000000000000000000000000008152600401610ff1906129ed565b60405180910390fd5b6001600b60009054906101000a900460ff1660ff161161104f576040517f08c379a000000000000000000000000000000000000000000000000000000000815260040161104690612a0d565b60405180910390fd5b600860008473ffffffffffffffffffffffffffffffffffffffff1673ffffffffffffffffffffffffffffffffffffffff16815260200190815260200160002060006101000a81549060ff0219169055600b600081819054906101000a900460ff16809291906001900391906101000a81548160ff021916908360ff160217905550506001915050919050565b60008060009054906101000a900473ffffffffffffffffffffffffffffffffffffffff16905090565b61110c611cd5565b600760009054906101000a900460ff161561115c576040517f08c379a00000000000000000000000000000000000000000000000000000000081526004016111539061296d565b60405180910390fd5b60016040518060c0016040529081600082018054806020026020016040519081016040528092919081815260200182805480156111ec57602002820191906000526020600020906000905b82829054906101000a900467ffffffffffffffff1667ffffffffffffffff16815260200190600801906020826007010492830192600103820291508084116111a75790505b505050505081526020016001820180548060200260200160405190810160405280929190818152602001828054801561127857602002820191906000526020600020906000905b82829054906101000a900467ffffffffffffffff1667ffffffffffffffff16815260200190600801906020826007010492830192600103820291508084116112335790505b505050505081526020016002820180548060200260200160405190810160405280929190818152602001828054801561130457602002820191906000526020600020906000905b82829054906101000a900467ffffffffffffffff1667ffffffffffffffff16815260200190600801906020826007010492830192600103820291508084116112bf5790505b505050505081526020016003820180548060200260200160405190810160405280929190818152602001828054801561139057602002820191906000526020600020906000905b82829054906101000a900467ffffffffffffffff1667ffffffffffffffff168152602001906008019060208260070104928301926001038202915080841161134b5790505b505050505081526020016004820180548060200260200160405190810160405280929190818152602001828054801561141c57602002820191906000526020600020906000905b82829054906101000a900467ffffffffffffffff1667ffffffffffffffff16815260200190600801906020826007010492830192600103820291508084116113d75790505b50505050508152602001600582018054806020026020016040519081016040528092919081815260200182805480156114a857602002820191906000526020600020906000905b82829054906101000a900467ffffffffffffffff1667ffffffffffffffff16815260200190600801906020826007010492830192600103820291508084116114635790505b505050505081525050905090565b6000806114c161192d565b905060011515600860008373ffffffffffffffffffffffffffffffffffffffff1673ffffffffffffffffffffffffffffffffffffffff16815260200190815260200160002060009054906101000a900460ff16151514611556576040517f08c379a000000000000000000000000000000000000000000000000000000000815260040161154d9061298d565b60405180910390fd5b6115628686868661198c565b6115a1576040517f08c379a000000000000000000000000000000000000000000000000000000000815260040161159890612a8d565b60405180910390fd5b600760009054906101000a900460ff16156115f1576040517f08c379a00000000000000000000000000000000000000000000000000000000081526004016115e89061296d565b60405180910390fd5b603c600b60009054906101000a900460ff1660ff1610611646576040517f08c379a000000000000000000000000000000000000000000000000000000000815260040161163d90612a2d565b60405180910390fd5b600860008873ffffffffffffffffffffffffffffffffffffffff1673ffffffffffffffffffffffffffffffffffffffff16815260200190815260200160002060009054906101000a900460ff16156116d3576040517f08c379a00000000000000000000000000000000000000000000000000000000081526004016116ca90612acd565b60405180910390fd5b6001600860008973ffffffffffffffffffffffffffffffffffffffff1673ffffffffffffffffffffffffffffffffffffffff16815260200190815260200160002060006101000a81548160ff021916908315150217905550600b600081819054906101000a900460ff168092919060010191906101000a81548160ff021916908360ff16021790555050600191505095945050505050565b61177361192d565b73ffffffffffffffffffffffffffffffffffffffff1660008054906101000a900473ffffffffffffffffffffffffffffffffffffffff1673ffffffffffffffffffffffffffffffffffffffff1614611800576040517f08c379a00000000000000000000000000000000000000000000000000000000081526004016117f790612a6d565b60405180910390fd5b600073ffffffffffffffffffffffffffffffffffffffff168173ffffffffffffffffffffffffffffffffffffffff161415611870576040517f08c379a0000000000000000000000000000000000000000000000000000000008152600401611867906129ad565b60405180910390fd5b8073ffffffffffffffffffffffffffffffffffffffff1660008054906101000a900473ffffffffffffffffffffffffffffffffffffffff1673ffffffffffffffffffffffffffffffffffffffff167f8be0079c531659141344cd1fd0a4f28419497f9722a3daafe3b4186f6b6457e060405160405180910390a3806000806101000a81548173ffffffffffffffffffffffffffffffffffffffff021916908373ffffffffffffffffffffffffffffffffffffffff16021790555050565b600033905090565b6060816000015182602001518360400151846060015185608001518660a001518760c001518860e00151604051602001611976989796959493929190612b71565b6040516020818303038152906040529050919050565b6000806000805b8651811015611a4b576119e1888683815181106119ac57fe5b60200260200101518984815181106119c057fe5b60200260200101518985815181106119d457fe5b6020026020010151611b72565b9250600860008473ffffffffffffffffffffffffffffffffffffffff1673ffffffffffffffffffffffffffffffffffffffff16815260200190815260200160002060009054906101000a900460ff1615611a3e5781806001019250505b8080600101915050611993565b506000611a566108d2565b90508060ff168260ff1610611a715760019350505050611a79565b600093505050505b949350505050565b611a89611c52565b611a91611c52565b82806020019051810190611aa591906121af565b88600001896020018a6040018b6060018c6080018d60a0018e60c0018f60e0018881525088815250888152508863ffffffff1663ffffffff168152508873ffffffffffffffffffffffffffffffffffffffff1673ffffffffffffffffffffffffffffffffffffffff168152508873ffffffffffffffffffffffffffffffffffffffff1673ffffffffffffffffffffffffffffffffffffffff168152508863ffffffff1663ffffffff168152508863ffffffff1663ffffffff16815250505050505050505080915050919050565b60008060018686868660405160008152602001604052604051611b989493929190612906565b6020604051602081039080840390855afa158015611bba573d6000803e3d6000fd5b50505060206040510351905080915050949350505050565b828054600181600116156101000203166002900490600052602060002090601f016020900481019282601f10611c1357805160ff1916838001178555611c41565b82800160010185558215611c41579182015b82811115611c40578251825591602001919060010190611c25565b5b509050611c4e9190611d0b565b5090565b604051806101000160405280600063ffffffff168152602001600063ffffffff168152602001600073ffffffffffffffffffffffffffffffffffffffff168152602001600073ffffffffffffffffffffffffffffffffffffffff168152602001600063ffffffff1681526020016000815260200160008152602001600081525090565b6040518060c001604052806060815260200160608152602001606081526020016060815260200160608152602001606081525090565b5b80821115611d24576000816000905550600101611d0c565b5090565b600081359050611d3781612dc6565b92915050565b600082601f830112611d4e57600080fd5b8135611d61611d5c82612c37565b612c0a565b91508181835260208401935060208101905083856020840282011115611d8657600080fd5b60005b83811015611db65781611d9c8882611e43565b845260208401935060208301925050600181019050611d89565b5050505092915050565b600082601f830112611dd157600080fd5b8135611de4611ddf82612c5f565b612c0a565b91508181835260208401935060208101905083856020840282011115611e0957600080fd5b60005b83811015611e395781611e1f8882611f9c565b845260208401935060208301925050600181019050611e0c565b5050505092915050565b600081359050611e5281612ddd565b92915050565b60006101008284031215611e6b57600080fd5b611e76610100612c0a565b90506000611e8684828501611f72565b6000830152506020611e9a84828501611f72565b6020830152506040611eae84828501611f1e565b6040830152506060611ec284828501611f1e565b6060830152506080611ed684828501611f72565b60808301525060a0611eea84828501611f48565b60a08301525060c0611efe84828501611f48565b60c08301525060e0611f1284828501611f48565b60e08301525092915050565b600081359050611f2d81612df4565b92915050565b600081519050611f4281612df4565b92915050565b600081359050611f5781612e0b565b92915050565b600081519050611f6c81612e0b565b92915050565b600081359050611f8181612e22565b92915050565b600081519050611f9681612e22565b92915050565b600081359050611fab81612e39565b92915050565b600060208284031215611fc357600080fd5b6000611fd184828501611d28565b91505092915050565b600080600080600060a08688031215611ff257600080fd5b600061200088828901611d28565b955050602061201188828901611e43565b945050604086013567ffffffffffffffff81111561202e57600080fd5b61203a88828901611d3d565b935050606086013567ffffffffffffffff81111561205757600080fd5b61206388828901611d3d565b925050608086013567ffffffffffffffff81111561208057600080fd5b61208c88828901611dc0565b9150509295509295909350565b600080600080600061018086880312156120b257600080fd5b60006120c088828901611e58565b9550506101006120d288828901611e43565b94505061012086013567ffffffffffffffff8111156120f057600080fd5b6120fc88828901611d3d565b93505061014086013567ffffffffffffffff81111561211a57600080fd5b61212688828901611d3d565b92505061016086013567ffffffffffffffff81111561214457600080fd5b61215088828901611dc0565b9150509295509295909350565b60006020828403121561216f57600080fd5b600061217d84828501611f48565b91505092915050565b60006020828403121561219857600080fd5b60006121a684828501611f72565b91505092915050565b600080600080600080600080610100898b0312156121cc57600080fd5b60006121da8b828c01611f87565b98505060206121eb8b828c01611f87565b97505060406121fc8b828c01611f33565b965050606061220d8b828c01611f33565b955050608061221e8b828c01611f87565b94505060a061222f8b828c01611f5d565b93505060c06122408b828c01611f5d565b92505060e06122518b828c01611f5d565b9150509295985092959890939650565b600061226d83836128b2565b60208301905092915050565b61228281612ced565b82525050565b600061229382612c97565b61229d8185612cba565b93506122a883612c87565b8060005b838110156122d95781516122c08882612261565b97506122cb83612cad565b9250506001810190506122ac565b5085935050505092915050565b6122ef81612cff565b82525050565b6122fe81612d0b565b82525050565b600061230f82612ca2565b6123198185612ccb565b9350612329818560208601612d82565b61233281612db5565b840191505092915050565b600061234a601c83612cdc565b91507f436f6e747261637420686173206265656e2064657072656361746564000000006000830152602082019050919050565b600061238a601683612cdc565b91507f43616c6c6572206973206e6f742061206e6f74617279000000000000000000006000830152602082019050919050565b60006123ca602683612cdc565b91507f4f776e61626c653a206e6577206f776e657220697320746865207a65726f206160008301527f64647265737300000000000000000000000000000000000000000000000000006020830152604082019050919050565b6000612430602483612cdc565b91507f4f6e6c792061206e6f746172792063616e2063616c6c20746869732066756e6360008301527f74696f6e000000000000000000000000000000000000000000000000000000006020830152604082019050919050565b6000612496601583612cdc565b91507f4e6f7461727920646f6573206e6f7420657869737400000000000000000000006000830152602082019050919050565b60006124d6601e83612cdc565b91507f4d7573742068617665206d6f7265207468616e206f6e65206e6f7461727900006000830152602082019050919050565b6000612516601f83612cdc565b91507f43616e742068617665206d6f7265207468616e203630206e6f746172696573006000830152602082019050919050565b6000612556602883612cdc565b91507f5369676e617475726520617272617973206d757374206265206f66206571756160008301527f6c206c656e6774680000000000000000000000000000000000000000000000006020830152604082019050919050565b60006125bc602083612cdc565b91507f4f776e61626c653a2063616c6c6572206973206e6f7420746865206f776e65726000830152602082019050919050565b60006125fc602983612cdc565b91507f46756e6374696f6e2063616e206f6e6c7920626520657865637574656420627960008301527f206e6f74617269657300000000000000000000000000000000000000000000006020830152604082019050919050565b6000612662603683612cdc565b91507f426c6f636b20486569676874206d75737420626520677265617465722074686160008301527f6e2063757272656e7420626c6f636b20686569676874000000000000000000006020830152604082019050919050565b60006126c8601583612cdc565b91507f4e6f7461727920616c72656164792065786973747300000000000000000000006000830152602082019050919050565b600060c08301600083015184820360008601526127188282612288565b915050602083015184820360208601526127328282612288565b9150506040830151848203604086015261274c8282612288565b915050606083015184820360608601526127668282612288565b915050608083015184820360808601526127808282612288565b91505060a083015184820360a086015261279a8282612288565b9150508091505092915050565b610100820160008201516127be6000850182612885565b5060208201516127d16020850182612885565b5060408201516127e46040850182612849565b5060608201516127f76060850182612849565b50608082015161280a6080850182612885565b5060a082015161281d60a0850182612867565b5060c082015161283060c0850182612867565b5060e082015161284360e0850182612867565b50505050565b61285281612d15565b82525050565b61286181612d15565b82525050565b61287081612d35565b82525050565b61287f81612d35565b82525050565b61288e81612d3f565b82525050565b61289d81612d3f565b82525050565b6128ac81612d70565b82525050565b6128bb81612d4f565b82525050565b6128ca81612d63565b82525050565b60006020820190506128e56000830184612279565b92915050565b600060208201905061290060008301846122e6565b92915050565b600060808201905061291b60008301876122f5565b61292860208301866128c1565b61293560408301856122f5565b61294260608301846122f5565b95945050505050565b600060208201905081810360008301526129658184612304565b905092915050565b600060208201905081810360008301526129868161233d565b9050919050565b600060208201905081810360008301526129a68161237d565b9050919050565b600060208201905081810360008301526129c6816123bd565b9050919050565b600060208201905081810360008301526129e681612423565b9050919050565b60006020820190508181036000830152612a0681612489565b9050919050565b60006020820190508181036000830152612a26816124c9565b9050919050565b60006020820190508181036000830152612a4681612509565b9050919050565b60006020820190508181036000830152612a6681612549565b9050919050565b60006020820190508181036000830152612a86816125af565b9050919050565b60006020820190508181036000830152612aa6816125ef565b9050919050565b60006020820190508181036000830152612ac681612655565b9050919050565b60006020820190508181036000830152612ae6816126bb565b9050919050565b60006020820190508181036000830152612b0781846126fb565b905092915050565b600061010082019050612b2560008301846127a7565b92915050565b600061012082019050612b4160008301856127a7565b612b4f6101008301846128a3565b9392505050565b6000602082019050612b6b6000830184612894565b92915050565b600061010082019050612b87600083018b612894565b612b94602083018a612894565b612ba16040830189612858565b612bae6060830188612858565b612bbb6080830187612894565b612bc860a0830186612876565b612bd560c0830185612876565b612be260e0830184612876565b9998505050505050505050565b6000602082019050612c0460008301846128c1565b92915050565b6000604051905081810181811067ffffffffffffffff82111715612c2d57600080fd5b8060405250919050565b600067ffffffffffffffff821115612c4e57600080fd5b602082029050602081019050919050565b600067ffffffffffffffff821115612c7657600080fd5b602082029050602081019050919050565b6000819050602082019050919050565b600081519050919050565b600081519050919050565b6000602082019050919050565b600082825260208201905092915050565b600082825260208201905092915050565b600082825260208201905092915050565b6000612cf882612d15565b9050919050565b60008115159050919050565b6000819050919050565b600073ffffffffffffffffffffffffffffffffffffffff82169050919050565b6000819050919050565b600063ffffffff82169050919050565b600067ffffffffffffffff82169050919050565b600060ff82169050919050565b6000612d7b82612d3f565b9050919050565b60005b83811015612da0578082015181840152602081019050612d85565b83811115612daf576000848401525b50505050565b6000601f19601f8301169050919050565b612dcf81612ced565b8114612dda57600080fd5b50565b612de681612d0b565b8114612df157600080fd5b50565b612dfd81612d15565b8114612e0857600080fd5b50565b612e1481612d35565b8114612e1f57600080fd5b50565b612e2b81612d3f565b8114612e3657600080fd5b50565b612e4281612d63565b8114612e4d57600080fd5b5056fea26469706673582212205896521b740b30834b2338812fc1d10929b703adfef6932101c73f115a1b427c64736f6c634300060c0033",
  "immutableReferences": {},
  "source": "// SPDX-License-Identifier: MIT\n// Bridge between ethereum and verus\n\npragma solidity >=0.6.0 <0.7.0;\npragma experimental ABIEncoderV2;\nimport \"../../node_modules/@openzeppelin/contracts/access/Ownable.sol\";\n\ncontract KomodoNotarize is Ownable{\n\n    //last notarized blockheight\n    uint32 public lastBlockHeight;\n    CurrencyState private lastCurrencyState;\n    //allows for the contract to be upgradable\n    bool public deprecated;\n    address public upgradedAddress;\n    //number of notaries required\n    uint8 requiredNotaries = 13;\n\n    //list of all notarizers mapped to allow for quick searching\n    mapping (address => bool) private komodoNotaries;\n    //mapped blockdetails\n    mapping (uint32 => bytes) public notarizedDataEntries;\n    uint32[] public blockHeights;\n    //used to record the number of notaries\n    uint8 private notaryCount;\n\n    struct NotarizedData{\n        uint32 version;\n        uint32 protocol;\n        uint160 currencyID;\n        uint160 notaryDest;\n        uint32 notarizationHeight;\n        uint256 mmrRoot;\n        uint256 notarizationPreHash;\n        uint256 compactPower;\n    }\n\n    struct TestData{\n        uint32 version;\n        uint32 protocol;\n        uint160 currencyID;\n        uint160 notaryDest;\n        uint32 notarizationHeight;\n        uint256 mmrRoot;\n    }\n\n    struct CurrencyState{\n        uint64[] reserveIn;\n        uint64[] nativeIn;\n        uint64[] reserveOut;\n        uint64[] conversionPrice;\n        uint64[] fees;\n        uint64[] conversionFees;\n    }\n\n    // Notifies when the contract is deprecated\n    event Deprecate(address newAddress);\n    // Notifies when a new block hash is published\n    event NewBlock(NotarizedData notarizedData,uint64 notarizedDataHeight);\n    event signedAddress(address signedAddress);\n\n    constructor() public {\n        deprecated = false;\n        notaryCount = 0;\n        lastBlockHeight = 0;\n        //add in the owner as the first notary\n        address msgSender = _msgSender();\n        komodoNotaries[msgSender] = true;\n        notaryCount++;\n    }\n\n    modifier onlyNotary() {\n        address msgSender = _msgSender();\n        require(komodoNotaries[msgSender] == true, \"Caller is not a notary\");\n        _;\n    }\n\n    function addNotary(address _notary,\n        bytes32 _notarizedAddressHash,\n        bytes32[] memory _rs,\n        bytes32[] memory _ss,\n        uint8[] memory _vs) public onlyNotary\n    returns(bool){\n        require(isNotarized(_notarizedAddressHash,_rs,_ss,_vs),\"Function can only be executed by notaries\");\n        require(!deprecated,\"Contract has been deprecated\");\n        //if the the komodoNotaries is full reject\n        require(notaryCount < 60,\"Cant have more than 60 notaries\");\n        //if the notary already is in the komodNotaries then reject\n        require(!komodoNotaries[_notary],\"Notary already exists\");\n\n        komodoNotaries[_notary] = true;\n        notaryCount++;\n        return true;\n\n    }\n\n    function removeNotary(address _notary) public onlyNotary\n    returns(bool){\n\n        require(!deprecated,\"Contract has been deprecated\");\n        //if the notary is not in the list then fail\n        require(komodoNotaries[_notary] == true,\"Notary does not exist\");\n        //there must be at least one notary in the contract perhaps?\n        require(notaryCount > 1,\"Must have more than one notary\");\n        //need to look at this no easy way to delete from a mapping\n        delete komodoNotaries[_notary];\n        notaryCount--;\n        return true;\n\n    }\n\n    //this function allows for intially expanding out the number of notaries\n    function currentNotariesRequired() public view returns(uint8){\n        if(notaryCount == 1) return 1;\n        uint halfNotaryCount = notaryCount/2;\n        if(halfNotaryCount > requiredNotaries) return requiredNotaries;\n        else return uint8(halfNotaryCount);\n    }\n\n    function isNotarized(bytes32 notarizedDataHash,\n        bytes32[] memory _rs,\n        bytes32[] memory _ss,\n        uint8[] memory _vs) private view returns(bool){\n        \n        address signingAddress;\n        //total number of signatures that have been validated\n        uint8 numberOfSignatures = 0;\n\n        //loop through the arrays, check the following:\n        //does the hash in the hashedBlocks match the komodoBlockHash passed in\n        for(uint i = 0; i < _rs.length; i++){\n            //if the address is in the notary array increment the number of signatures\n            signingAddress = recoverSigner(notarizedDataHash, _vs[i], _rs[i], _ss[i]);\n            if(komodoNotaries[signingAddress]) {\n                numberOfSignatures++;\n            }\n        }\n        uint8 _requiredNotaries = currentNotariesRequired();\n        if(numberOfSignatures >= _requiredNotaries){\n            return true;\n        } else return false;\n\n    }\n\n    function setLatestData(NotarizedData memory _notarizedDataDetail,\n        bytes32 _notarizedDataHash,\n        bytes32[] memory _rs,\n        bytes32[] memory _ss,\n        uint8[] memory _vs) public onlyNotary returns(bool){\n\n        require(!deprecated,\"Contract has been deprecated\");\n        require(komodoNotaries[msg.sender],\"Only a notary can call this function\");\n        require((_rs.length == _ss.length) && (_rs.length == _vs.length),\"Signature arrays must be of equal length\");\n        require(_notarizedDataDetail.notarizationHeight > lastBlockHeight,\"Block Height must be greater than current block height\");\n\n        bytes memory serializedBlock = serializeData(_notarizedDataDetail);\n        //check the hash of the data\n        //need to check the block hash matches the hashed notarized block\n        \n        \n        //if there is greater than 13 proper signatories then set the block hash\n        if(isNotarized(_notarizedDataHash,_rs,_ss,_vs)){\n            notarizedDataEntries[_notarizedDataDetail.notarizationHeight] = serializedBlock;\n            blockHeights.push(_notarizedDataDetail.notarizationHeight);\n            lastBlockHeight = _notarizedDataDetail.notarizationHeight;\n            //lastCurrencyState = _currencyState;\n            emit NewBlock(_notarizedDataDetail,lastBlockHeight);\n            return true;\n        } else return false;\n\n\n    }\n\n    function recoverSigner(bytes32 h, uint8 v, bytes32 r, bytes32 s) private pure returns (address) {\n        address addr = ecrecover(h, v, r, s);\n        return addr;\n    }\n\n\n    function getLastNotarizedData() public view returns(NotarizedData memory){\n\n        require(!deprecated,\"Contract has been deprecated\");\n        return deSerializeData(notarizedDataEntries[lastBlockHeight]);\n\n    }\n    function getLastCurrencyState() public view returns(CurrencyState memory){\n        require(!deprecated,\"Contract has been deprecated\");\n        return lastCurrencyState;\n    }\n\n    function getNotarizedData(uint32 _blockHeight) public view returns(NotarizedData memory){\n\n        return deSerializeData(notarizedDataEntries[_blockHeight]);\n\n    }\n\n    function getLastBlockHeight() public view returns(uint32){\n\n        require(!deprecated,\"Contract has been deprecated\");\n        return lastBlockHeight;\n    }\n\n    function deSerializeData(bytes memory _serializedBlock) private pure returns(NotarizedData memory){\n        NotarizedData memory deserializedBlock;\n\n        (deserializedBlock.version,\n        deserializedBlock.protocol,\n        deserializedBlock.currencyID,\n        deserializedBlock.notaryDest,\n        deserializedBlock.notarizationHeight,\n        deserializedBlock.mmrRoot,\n        deserializedBlock.notarizationPreHash,\n        deserializedBlock.compactPower\n        ) = abi.decode(_serializedBlock,(uint32,uint32,uint160,uint160,uint32,uint256,uint256,uint256));\n\n        return deserializedBlock;\n    }\n\n    function serializeData(NotarizedData memory _deserializedBlock) private pure returns(bytes memory){\n\n        return abi.encode(_deserializedBlock.version,\n        _deserializedBlock.protocol,\n        _deserializedBlock.currencyID,\n        _deserializedBlock.notaryDest,\n        _deserializedBlock.notarizationHeight,\n        _deserializedBlock.mmrRoot,\n        _deserializedBlock.notarizationPreHash,\n        _deserializedBlock.compactPower);\n\n    }\n\n    /*** temporary code for use on test net only will be removed for production */\n\n    function kill() public onlyOwner{\n        selfdestruct(msg.sender);\n    }\n\n    /**\n    * deprecate current contract\n    */\n    function deprecate(address _upgradedAddress) public onlyOwner {\n        require(!deprecated,\"Contract has been deprecated\");\n        deprecated = true;\n        upgradedAddress = _upgradedAddress;\n        emit Deprecate(_upgradedAddress);\n\n    }\n\n}",
  "sourcePath": "/Volumes/UsersSSD/james/Development/komodo-notarisation-solidity/contracts/KomodoNotarize/komodoNotarize.sol",
  "compiler": {
    "name": "solc",
    "version": "0.6.12+commit.27d51765.Emscripten.clang"
  },
  "schemaVersion": "3.2.0",
  "updatedAt": "2020-08-17T10:34:43.533Z",
  "devdoc": {
    "kind": "dev",
    "methods": {
      "owner()": {
        "details": "Returns the address of the current owner."
      },
      "renounceOwnership()": {
        "details": "Leaves the contract without owner. It will not be possible to call `onlyOwner` functions anymore. Can only be called by the current owner. NOTE: Renouncing ownership will leave the contract without an owner, thereby removing any functionality that is only available to the owner."
      },
      "transferOwnership(address)": {
        "details": "Transfers ownership of the contract to a new account (`newOwner`). Can only be called by the current owner."
      }
    },
    "version": 1
  },
  "userdoc": {
    "kind": "user",
    "methods": {
      "deprecate(address)": {
        "notice": "deprecate current contract"
      }
    },
    "version": 1
  }
}