{
  "contractName": "KomodoNotarize",
  "abi": [
    {
      "inputs": [],
      "stateMutability": "nonpayable",
      "type": "constructor"
    },
    {
      "anonymous": false,
      "inputs": [
        {
          "indexed": false,
          "internalType": "address",
          "name": "newAddress",
          "type": "address"
        }
      ],
      "name": "Deprecate",
      "type": "event"
    },
    {
      "anonymous": false,
      "inputs": [
        {
          "components": [
            {
              "internalType": "uint32",
              "name": "version",
              "type": "uint32"
            },
            {
              "internalType": "uint32",
              "name": "protocol",
              "type": "uint32"
            },
            {
              "internalType": "uint160",
              "name": "currencyID",
              "type": "uint160"
            },
            {
              "internalType": "uint160",
              "name": "notaryDest",
              "type": "uint160"
            },
            {
              "internalType": "uint32",
              "name": "notarizationHeight",
              "type": "uint32"
            },
            {
              "internalType": "uint256",
              "name": "mmrRoot",
              "type": "uint256"
            },
            {
              "internalType": "uint256",
              "name": "notarizationPreHash",
              "type": "uint256"
            },
            {
              "internalType": "uint256",
              "name": "compactPower",
              "type": "uint256"
            }
          ],
          "indexed": false,
          "internalType": "struct KomodoNotarize.NotarizedBlock",
          "name": "notarizedBlock",
          "type": "tuple"
        },
        {
          "indexed": false,
          "internalType": "uint64",
          "name": "notarizedBlockHeight",
          "type": "uint64"
        }
      ],
      "name": "NewBlock",
      "type": "event"
    },
    {
      "anonymous": false,
      "inputs": [
        {
          "indexed": true,
          "internalType": "address",
          "name": "previousOwner",
          "type": "address"
        },
        {
          "indexed": true,
          "internalType": "address",
          "name": "newOwner",
          "type": "address"
        }
      ],
      "name": "OwnershipTransferred",
      "type": "event"
    },
    {
      "inputs": [],
      "name": "deprecated",
      "outputs": [
        {
          "internalType": "bool",
          "name": "",
          "type": "bool"
        }
      ],
      "stateMutability": "view",
      "type": "function"
    },
    {
      "inputs": [],
      "name": "lastBlockHeight",
      "outputs": [
        {
          "internalType": "uint32",
          "name": "",
          "type": "uint32"
        }
      ],
      "stateMutability": "view",
      "type": "function"
    },
    {
      "inputs": [],
      "name": "owner",
      "outputs": [
        {
          "internalType": "address",
          "name": "",
          "type": "address"
        }
      ],
      "stateMutability": "view",
      "type": "function"
    },
    {
      "inputs": [],
      "name": "renounceOwnership",
      "outputs": [],
      "stateMutability": "nonpayable",
      "type": "function"
    },
    {
      "inputs": [
        {
          "internalType": "address",
          "name": "newOwner",
          "type": "address"
        }
      ],
      "name": "transferOwnership",
      "outputs": [],
      "stateMutability": "nonpayable",
      "type": "function"
    },
    {
      "inputs": [],
      "name": "upgradedAddress",
      "outputs": [
        {
          "internalType": "address",
          "name": "",
          "type": "address"
        }
      ],
      "stateMutability": "view",
      "type": "function"
    },
    {
      "inputs": [
        {
          "internalType": "address",
          "name": "_notary",
          "type": "address"
        }
      ],
      "name": "addNotary",
      "outputs": [
        {
          "internalType": "bool",
          "name": "",
          "type": "bool"
        }
      ],
      "stateMutability": "nonpayable",
      "type": "function"
    },
    {
      "inputs": [
        {
          "internalType": "address",
          "name": "_notary",
          "type": "address"
        }
      ],
      "name": "removeNotary",
      "outputs": [
        {
          "internalType": "bool",
          "name": "",
          "type": "bool"
        }
      ],
      "stateMutability": "nonpayable",
      "type": "function"
    },
    {
      "inputs": [
        {
          "components": [
            {
              "internalType": "uint32",
              "name": "version",
              "type": "uint32"
            },
            {
              "internalType": "uint32",
              "name": "protocol",
              "type": "uint32"
            },
            {
              "internalType": "uint160",
              "name": "currencyID",
              "type": "uint160"
            },
            {
              "internalType": "uint160",
              "name": "notaryDest",
              "type": "uint160"
            },
            {
              "internalType": "uint32",
              "name": "notarizationHeight",
              "type": "uint32"
            },
            {
              "internalType": "uint256",
              "name": "mmrRoot",
              "type": "uint256"
            },
            {
              "internalType": "uint256",
              "name": "notarizationPreHash",
              "type": "uint256"
            },
            {
              "internalType": "uint256",
              "name": "compactPower",
              "type": "uint256"
            }
          ],
          "internalType": "struct KomodoNotarize.NotarizedBlock",
          "name": "_notarizedBlockDetail",
          "type": "tuple"
        },
        {
          "components": [
            {
              "internalType": "uint64[]",
              "name": "reserveIn",
              "type": "uint64[]"
            },
            {
              "internalType": "uint64[]",
              "name": "nativeIn",
              "type": "uint64[]"
            },
            {
              "internalType": "uint64[]",
              "name": "reserveOut",
              "type": "uint64[]"
            },
            {
              "internalType": "uint64[]",
              "name": "conversionPrice",
              "type": "uint64[]"
            },
            {
              "internalType": "uint64[]",
              "name": "fees",
              "type": "uint64[]"
            },
            {
              "internalType": "uint64[]",
              "name": "conversionFees",
              "type": "uint64[]"
            }
          ],
          "internalType": "struct KomodoNotarize.CurrencyState",
          "name": "_currencyState",
          "type": "tuple"
        },
        {
          "internalType": "bytes32[]",
          "name": "_rs",
          "type": "bytes32[]"
        },
        {
          "internalType": "bytes32[]",
          "name": "_ss",
          "type": "bytes32[]"
        },
        {
          "internalType": "uint8[]",
          "name": "_vs",
          "type": "uint8[]"
        }
      ],
      "name": "setLatestBlock",
      "outputs": [
        {
          "internalType": "bool",
          "name": "",
          "type": "bool"
        }
      ],
      "stateMutability": "nonpayable",
      "type": "function"
    },
    {
      "inputs": [
        {
          "internalType": "bytes32",
          "name": "h",
          "type": "bytes32"
        },
        {
          "internalType": "uint8",
          "name": "v",
          "type": "uint8"
        },
        {
          "internalType": "bytes32",
          "name": "r",
          "type": "bytes32"
        },
        {
          "internalType": "bytes32",
          "name": "s",
          "type": "bytes32"
        }
      ],
      "name": "recoverSigner",
      "outputs": [
        {
          "internalType": "address",
          "name": "",
          "type": "address"
        }
      ],
      "stateMutability": "pure",
      "type": "function"
    },
    {
      "inputs": [],
      "name": "getLastNotarizedBlock",
      "outputs": [
        {
          "components": [
            {
              "internalType": "uint32",
              "name": "version",
              "type": "uint32"
            },
            {
              "internalType": "uint32",
              "name": "protocol",
              "type": "uint32"
            },
            {
              "internalType": "uint160",
              "name": "currencyID",
              "type": "uint160"
            },
            {
              "internalType": "uint160",
              "name": "notaryDest",
              "type": "uint160"
            },
            {
              "internalType": "uint32",
              "name": "notarizationHeight",
              "type": "uint32"
            },
            {
              "internalType": "uint256",
              "name": "mmrRoot",
              "type": "uint256"
            },
            {
              "internalType": "uint256",
              "name": "notarizationPreHash",
              "type": "uint256"
            },
            {
              "internalType": "uint256",
              "name": "compactPower",
              "type": "uint256"
            }
          ],
          "internalType": "struct KomodoNotarize.NotarizedBlock",
          "name": "",
          "type": "tuple"
        }
      ],
      "stateMutability": "view",
      "type": "function"
    },
    {
      "inputs": [
        {
          "internalType": "uint32",
          "name": "_blockHeight",
          "type": "uint32"
        }
      ],
      "name": "getNotarizedBlock",
      "outputs": [
        {
          "components": [
            {
              "internalType": "uint32",
              "name": "version",
              "type": "uint32"
            },
            {
              "internalType": "uint32",
              "name": "protocol",
              "type": "uint32"
            },
            {
              "internalType": "uint160",
              "name": "currencyID",
              "type": "uint160"
            },
            {
              "internalType": "uint160",
              "name": "notaryDest",
              "type": "uint160"
            },
            {
              "internalType": "uint32",
              "name": "notarizationHeight",
              "type": "uint32"
            },
            {
              "internalType": "uint256",
              "name": "mmrRoot",
              "type": "uint256"
            },
            {
              "internalType": "uint256",
              "name": "notarizationPreHash",
              "type": "uint256"
            },
            {
              "internalType": "uint256",
              "name": "compactPower",
              "type": "uint256"
            }
          ],
          "internalType": "struct KomodoNotarize.NotarizedBlock",
          "name": "",
          "type": "tuple"
        }
      ],
      "stateMutability": "view",
      "type": "function"
    },
    {
      "inputs": [],
      "name": "getLastBlockHeight",
      "outputs": [
        {
          "internalType": "uint32",
          "name": "",
          "type": "uint32"
        }
      ],
      "stateMutability": "view",
      "type": "function"
    },
    {
      "inputs": [],
      "name": "kill",
      "outputs": [],
      "stateMutability": "nonpayable",
      "type": "function"
    },
    {
      "inputs": [
        {
          "internalType": "address",
          "name": "_upgradedAddress",
          "type": "address"
        }
      ],
      "name": "deprecate",
      "outputs": [],
      "stateMutability": "nonpayable",
      "type": "function"
    }
  ],
  "bytecode": "0x60806040526001600760156101000a81548160ff021916908360ff16021790555034801561002c57600080fd5b50600061003d61013860201b60201c565b9050806000806101000a81548173ffffffffffffffffffffffffffffffffffffffff021916908373ffffffffffffffffffffffffffffffffffffffff1602179055508073ffffffffffffffffffffffffffffffffffffffff16600073ffffffffffffffffffffffffffffffffffffffff167f8be0079c531659141344cd1fd0a4f28419497f9722a3daafe3b4186f6b6457e060405160405180910390a3506000600760006101000a81548160ff0219169083151502179055506000600a60006101000a81548160ff021916908360ff16021790555060008060146101000a81548163ffffffff021916908363ffffffff160217905550610140565b600033905090565b6128268061014f6000396000f3fe608060405234801561001057600080fd5b50600436106100f55760003560e01c80635100bf5a11610097578063cd794cc111610066578063cd794cc114610250578063d45167d014610280578063e53c0956146102b0578063f2fde38b146102ce576100f5565b80635100bf5a146101c8578063715018a6146101f857806386785a6f146102025780638da5cb5b14610232576100f5565b80630e136b19116100d35780630e136b191461016457806326976e3f1461018257806341c0e1b5146101a05780634b60ae63146101aa576100f5565b806302394872146100fa5780630588565f146101185780630753c30c14610148575b600080fd5b6101026102ea565b60405161010f919061250b565b60405180910390f35b610132600480360381019061012d9190611be9565b610354565b60405161013f91906122df565b60405180910390f35b610162600480360381019061015d9190611be9565b6105b1565b005b61016c61072d565b60405161017991906122df565b60405180910390f35b61018a610740565b60405161019791906122c4565b60405180910390f35b6101a8610766565b005b6101b2610815565b6040516101bf919061250b565b60405180910390f35b6101e260048036038101906101dd9190611c75565b61082b565b6040516101ef91906122df565b60405180910390f35b610200610c83565b005b61021c60048036038101906102179190611be9565b610dd8565b60405161022991906122df565b60405180910390f35b61023a610fe7565b60405161024791906122c4565b60405180910390f35b61026a60048036038101906102659190611d51565b611010565b60405161027791906124c4565b60405180910390f35b61029a60048036038101906102959190611c12565b6110df565b6040516102a791906122c4565b60405180910390f35b6102b861113f565b6040516102c591906124c4565b60405180910390f35b6102e860048036038101906102e39190611be9565b61126d565b005b6000600760009054906101000a900460ff161561033c576040517f08c379a000000000000000000000000000000000000000000000000000000000815260040161033390612361565b60405180910390fd5b600060149054906101000a900463ffffffff16905090565b600061035e611431565b73ffffffffffffffffffffffffffffffffffffffff166000809054906101000a900473ffffffffffffffffffffffffffffffffffffffff1673ffffffffffffffffffffffffffffffffffffffff16146103ec576040517f08c379a00000000000000000000000000000000000000000000000000000000081526004016103e390612421565b60405180910390fd5b600760009054906101000a900460ff161561043c576040517f08c379a000000000000000000000000000000000000000000000000000000000815260040161043390612361565b60405180910390fd5b603c600a60009054906101000a900460ff1660ff1610610491576040517f08c379a0000000000000000000000000000000000000000000000000000000008152600401610488906123e1565b60405180910390fd5b600860008373ffffffffffffffffffffffffffffffffffffffff1673ffffffffffffffffffffffffffffffffffffffff16815260200190815260200160002060009054906101000a900460ff161561051e576040517f08c379a0000000000000000000000000000000000000000000000000000000008152600401610515906124a4565b60405180910390fd5b6001600860008473ffffffffffffffffffffffffffffffffffffffff1673ffffffffffffffffffffffffffffffffffffffff16815260200190815260200160002060006101000a81548160ff021916908315150217905550600a600081819054906101000a900460ff168092919060010191906101000a81548160ff021916908360ff1602179055505060019050919050565b6105b9611431565b73ffffffffffffffffffffffffffffffffffffffff166000809054906101000a900473ffffffffffffffffffffffffffffffffffffffff1673ffffffffffffffffffffffffffffffffffffffff1614610647576040517f08c379a000000000000000000000000000000000000000000000000000000000815260040161063e90612421565b60405180910390fd5b600760009054906101000a900460ff1615610697576040517f08c379a000000000000000000000000000000000000000000000000000000000815260040161068e90612361565b60405180910390fd5b6001600760006101000a81548160ff02191690831515021790555080600760016101000a81548173ffffffffffffffffffffffffffffffffffffffff021916908373ffffffffffffffffffffffffffffffffffffffff1602179055507fcc358699805e9a8b7f77b522628c7cb9abd07d9efb86b6fb616af1609036a99e8160405161072291906122c4565b60405180910390a150565b600760009054906101000a900460ff1681565b600760019054906101000a900473ffffffffffffffffffffffffffffffffffffffff1681565b61076e611431565b73ffffffffffffffffffffffffffffffffffffffff166000809054906101000a900473ffffffffffffffffffffffffffffffffffffffff1673ffffffffffffffffffffffffffffffffffffffff16146107fc576040517f08c379a00000000000000000000000000000000000000000000000000000000081526004016107f390612421565b60405180910390fd5b3373ffffffffffffffffffffffffffffffffffffffff16ff5b600060149054906101000a900463ffffffff1681565b6000600760009054906101000a900460ff161561087d576040517f08c379a000000000000000000000000000000000000000000000000000000000815260040161087490612361565b60405180910390fd5b600860003373ffffffffffffffffffffffffffffffffffffffff1673ffffffffffffffffffffffffffffffffffffffff16815260200190815260200160002060009054906101000a900460ff16610909576040517f08c379a0000000000000000000000000000000000000000000000000000000008152600401610900906123a1565b60405180910390fd5b8251845114801561091b575081518451145b61095a576040517f08c379a000000000000000000000000000000000000000000000000000000000815260040161095190612401565b60405180910390fd5b600060149054906101000a900463ffffffff1663ffffffff16866080015163ffffffff16116109be576040517f08c379a00000000000000000000000000000000000000000000000000000000081526004016109b590612484565b60405180910390fd5b60606109c987611439565b905060008151826040516020016109e1929190612441565b604051602081830303815290604052805190602001209050600082604051602001610a0c919061233f565b6040516020818303038152906040528051906020012090506000806000905060008090505b8951811015610ae957610a7f85898381518110610a4a57fe5b60200260200101518c8481518110610a5e57fe5b60200260200101518c8581518110610a7257fe5b60200260200101516110df565b9250600860008473ffffffffffffffffffffffffffffffffffffffff1673ffffffffffffffffffffffffffffffffffffffff16815260200190815260200160002060009054906101000a900460ff1615610adc5781806001019250505b8080600101915050610a31565b50600760159054906101000a900460ff1660ff168160ff1610610c705784600960008d6080015163ffffffff1663ffffffff1681526020019081526020016000209080519060200190610b3d929190611581565b508a60800151600060146101000a81548163ffffffff021916908363ffffffff1602179055508960016000820151816000019080519060200190610b82929190611601565b506020820151816001019080519060200190610b9f929190611601565b506040820151816002019080519060200190610bbc929190611601565b506060820151816003019080519060200190610bd9929190611601565b506080820151816004019080519060200190610bf6929190611601565b5060a0820151816005019080519060200190610c13929190611601565b509050507fdad29582f3039647d6718f2f4496866217b915cd3f2d6fd2f7fb084a263f05ad8b600060149054906101000a900463ffffffff16604051610c5a9291906124e0565b60405180910390a1600195505050505050610c7a565b6000955050505050505b95945050505050565b610c8b611431565b73ffffffffffffffffffffffffffffffffffffffff166000809054906101000a900473ffffffffffffffffffffffffffffffffffffffff1673ffffffffffffffffffffffffffffffffffffffff1614610d19576040517f08c379a0000000000000000000000000000000000000000000000000000000008152600401610d1090612421565b60405180910390fd5b600073ffffffffffffffffffffffffffffffffffffffff166000809054906101000a900473ffffffffffffffffffffffffffffffffffffffff1673ffffffffffffffffffffffffffffffffffffffff167f8be0079c531659141344cd1fd0a4f28419497f9722a3daafe3b4186f6b6457e060405160405180910390a360008060006101000a81548173ffffffffffffffffffffffffffffffffffffffff021916908373ffffffffffffffffffffffffffffffffffffffff160217905550565b6000610de2611431565b73ffffffffffffffffffffffffffffffffffffffff166000809054906101000a900473ffffffffffffffffffffffffffffffffffffffff1673ffffffffffffffffffffffffffffffffffffffff1614610e70576040517f08c379a0000000000000000000000000000000000000000000000000000000008152600401610e6790612421565b60405180910390fd5b600760009054906101000a900460ff1615610ec0576040517f08c379a0000000000000000000000000000000000000000000000000000000008152600401610eb790612361565b60405180910390fd5b60011515600860008473ffffffffffffffffffffffffffffffffffffffff1673ffffffffffffffffffffffffffffffffffffffff16815260200190815260200160002060009054906101000a900460ff16151514610f53576040517f08c379a0000000000000000000000000000000000000000000000000000000008152600401610f4a906123c1565b60405180910390fd5b6000600860008473ffffffffffffffffffffffffffffffffffffffff1673ffffffffffffffffffffffffffffffffffffffff16815260200190815260200160002060006101000a81548160ff021916908315150217905550600a600081819054906101000a900460ff16809291906001900391906101000a81548160ff021916908360ff1602179055505060019050919050565b60008060009054906101000a900473ffffffffffffffffffffffffffffffffffffffff16905090565b6110186116bd565b6110d8600960008463ffffffff1663ffffffff1681526020019081526020016000208054600181600116156101000203166002900480601f0160208091040260200160405190810160405280929190818152602001828054600181600116156101000203166002900480156110ce5780601f106110a3576101008083540402835291602001916110ce565b820191906000526020600020905b8154815290600101906020018083116110b157829003601f168201915b5050505050611490565b9050919050565b6000806001868686866040516000815260200160405260405161110594939291906122fa565b6020604051602081039080840390855afa158015611127573d6000803e3d6000fd5b50505060206040510351905080915050949350505050565b6111476116bd565b600760009054906101000a900460ff1615611197576040517f08c379a000000000000000000000000000000000000000000000000000000000815260040161118e90612361565b60405180910390fd5b611268600960008060149054906101000a900463ffffffff1663ffffffff1663ffffffff1681526020019081526020016000208054600181600116156101000203166002900480601f01602080910402602001604051908101604052809291908181526020018280546001816001161561010002031660029004801561125e5780601f106112335761010080835404028352916020019161125e565b820191906000526020600020905b81548152906001019060200180831161124157829003601f168201915b5050505050611490565b905090565b611275611431565b73ffffffffffffffffffffffffffffffffffffffff166000809054906101000a900473ffffffffffffffffffffffffffffffffffffffff1673ffffffffffffffffffffffffffffffffffffffff1614611303576040517f08c379a00000000000000000000000000000000000000000000000000000000081526004016112fa90612421565b60405180910390fd5b600073ffffffffffffffffffffffffffffffffffffffff168173ffffffffffffffffffffffffffffffffffffffff161415611373576040517f08c379a000000000000000000000000000000000000000000000000000000000815260040161136a90612381565b60405180910390fd5b8073ffffffffffffffffffffffffffffffffffffffff166000809054906101000a900473ffffffffffffffffffffffffffffffffffffffff1673ffffffffffffffffffffffffffffffffffffffff167f8be0079c531659141344cd1fd0a4f28419497f9722a3daafe3b4186f6b6457e060405160405180910390a3806000806101000a81548173ffffffffffffffffffffffffffffffffffffffff021916908373ffffffffffffffffffffffffffffffffffffffff16021790555050565b600033905090565b6060816000015182602001518360400151846060015185608001518660a001518760c001518860e0015160405160200161147a989796959493929190612526565b6040516020818303038152906040529050919050565b6114986116bd565b6114a06116bd565b828060200190518101906114b49190611d7a565b88600001896020018a6040018b6060018c6080018d60a0018e60c0018f60e0018881525088815250888152508863ffffffff1663ffffffff168152508873ffffffffffffffffffffffffffffffffffffffff1673ffffffffffffffffffffffffffffffffffffffff168152508873ffffffffffffffffffffffffffffffffffffffff1673ffffffffffffffffffffffffffffffffffffffff168152508863ffffffff1663ffffffff168152508863ffffffff1663ffffffff16815250505050505050505080915050919050565b828054600181600116156101000203166002900490600052602060002090601f016020900481019282601f106115c257805160ff19168380011785556115f0565b828001600101855582156115f0579182015b828111156115ef5782518255916020019190600101906115d4565b5b5090506115fd9190611740565b5090565b828054828255906000526020600020906003016004900481019282156116ac5791602002820160005b8382111561167657835183826101000a81548167ffffffffffffffff021916908367ffffffffffffffff160217905550926020019260080160208160070104928301926001030261162a565b80156116aa5782816101000a81549067ffffffffffffffff0219169055600801602081600701049283019260010302611676565b505b5090506116b99190611765565b5090565b604051806101000160405280600063ffffffff168152602001600063ffffffff168152602001600073ffffffffffffffffffffffffffffffffffffffff168152602001600073ffffffffffffffffffffffffffffffffffffffff168152602001600063ffffffff1681526020016000815260200160008152602001600081525090565b61176291905b8082111561175e576000816000905550600101611746565b5090565b90565b61179991905b8082111561179557600081816101000a81549067ffffffffffffffff02191690555060010161176b565b5090565b90565b6000813590506117ab8161274f565b92915050565b600082601f8301126117c257600080fd5b81356117d56117d0826125d1565b6125a4565b915081818352602084019350602081019050838560208402820111156117fa57600080fd5b60005b8381101561182a5781611810888261193a565b8452602084019350602083019250506001810190506117fd565b5050505092915050565b600082601f83011261184557600080fd5b8135611858611853826125f9565b6125a4565b9150818183526020840193506020810190508385602084028201111561187d57600080fd5b60005b838110156118ad57816118938882611bbf565b845260208401935060208301925050600181019050611880565b5050505092915050565b600082601f8301126118c857600080fd5b81356118db6118d682612621565b6125a4565b9150818183526020840193506020810190508385602084028201111561190057600080fd5b60005b8381101561193057816119168882611bd4565b845260208401935060208301925050600181019050611903565b5050505092915050565b60008135905061194981612766565b92915050565b600060c0828403121561196157600080fd5b61196b60c06125a4565b9050600082013567ffffffffffffffff81111561198757600080fd5b61199384828501611834565b600083015250602082013567ffffffffffffffff8111156119b357600080fd5b6119bf84828501611834565b602083015250604082013567ffffffffffffffff8111156119df57600080fd5b6119eb84828501611834565b604083015250606082013567ffffffffffffffff811115611a0b57600080fd5b611a1784828501611834565b606083015250608082013567ffffffffffffffff811115611a3757600080fd5b611a4384828501611834565b60808301525060a082013567ffffffffffffffff811115611a6357600080fd5b611a6f84828501611834565b60a08301525092915050565b60006101008284031215611a8e57600080fd5b611a996101006125a4565b90506000611aa984828501611b95565b6000830152506020611abd84828501611b95565b6020830152506040611ad184828501611b41565b6040830152506060611ae584828501611b41565b6060830152506080611af984828501611b95565b60808301525060a0611b0d84828501611b6b565b60a08301525060c0611b2184828501611b6b565b60c08301525060e0611b3584828501611b6b565b60e08301525092915050565b600081359050611b508161277d565b92915050565b600081519050611b658161277d565b92915050565b600081359050611b7a81612794565b92915050565b600081519050611b8f81612794565b92915050565b600081359050611ba4816127ab565b92915050565b600081519050611bb9816127ab565b92915050565b600081359050611bce816127c2565b92915050565b600081359050611be3816127d9565b92915050565b600060208284031215611bfb57600080fd5b6000611c098482850161179c565b91505092915050565b60008060008060808587031215611c2857600080fd5b6000611c368782880161193a565b9450506020611c4787828801611bd4565b9350506040611c588782880161193a565b9250506060611c698782880161193a565b91505092959194509250565b60008060008060006101808688031215611c8e57600080fd5b6000611c9c88828901611a7b565b95505061010086013567ffffffffffffffff811115611cba57600080fd5b611cc68882890161194f565b94505061012086013567ffffffffffffffff811115611ce457600080fd5b611cf0888289016117b1565b93505061014086013567ffffffffffffffff811115611d0e57600080fd5b611d1a888289016117b1565b92505061016086013567ffffffffffffffff811115611d3857600080fd5b611d44888289016118b7565b9150509295509295909350565b600060208284031215611d6357600080fd5b6000611d7184828501611b95565b91505092915050565b600080600080600080600080610100898b031215611d9757600080fd5b6000611da58b828c01611baa565b9850506020611db68b828c01611baa565b9750506040611dc78b828c01611b56565b9650506060611dd88b828c01611b56565b9550506080611de98b828c01611baa565b94505060a0611dfa8b828c01611b80565b93505060c0611e0b8b828c01611b80565b92505060e0611e1c8b828c01611b80565b9150509295985092959890939650565b611e3581612676565b82525050565b611e4481612688565b82525050565b611e5381612694565b82525050565b6000611e6482612649565b611e6e8185612654565b9350611e7e81856020860161270b565b611e878161273e565b840191505092915050565b6000611e9f601c83612665565b91507f436f6e747261637420686173206265656e2064657072656361746564000000006000830152602082019050919050565b6000611edf602683612665565b91507f4f776e61626c653a206e6577206f776e657220697320746865207a65726f206160008301527f64647265737300000000000000000000000000000000000000000000000000006020830152604082019050919050565b6000611f45602483612665565b91507f4f6e6c792061206e6f746172792063616e2063616c6c20746869732066756e6360008301527f74696f6e000000000000000000000000000000000000000000000000000000006020830152604082019050919050565b6000611fab601583612665565b91507f4e6f7461727920646f6573206e6f7420657869737400000000000000000000006000830152602082019050919050565b6000611feb601f83612665565b91507f43616e742068617665206d6f7265207468616e203630206e6f746172696573006000830152602082019050919050565b600061202b602883612665565b91507f5369676e617475726520617272617973206d757374206265206f66206571756160008301527f6c206c656e6774680000000000000000000000000000000000000000000000006020830152604082019050919050565b6000612091602083612665565b91507f4f776e61626c653a2063616c6c6572206973206e6f7420746865206f776e65726000830152602082019050919050565b60006120d1601a83612665565b91507f19457468657265756d205369676e6564204d6573736167653a0a0000000000006000830152602082019050919050565b6000612111603683612665565b91507f426c6f636b20486569676874206d75737420626520677265617465722074686160008301527f6e2063757272656e7420626c6f636b20686569676874000000000000000000006020830152604082019050919050565b6000612177601583612665565b91507f4e6f7461727920616c72656164792065786973747300000000000000000000006000830152602082019050919050565b610100820160008201516121c16000850182612288565b5060208201516121d46020850182612288565b5060408201516121e7604085018261224c565b5060608201516121fa606085018261224c565b50608082015161220d6080850182612288565b5060a082015161222060a085018261226a565b5060c082015161223360c085018261226a565b5060e082015161224660e085018261226a565b50505050565b6122558161269e565b82525050565b6122648161269e565b82525050565b612273816126be565b82525050565b612282816126be565b82525050565b612291816126c8565b82525050565b6122a0816126c8565b82525050565b6122af816126f9565b82525050565b6122be816126ec565b82525050565b60006020820190506122d96000830184611e2c565b92915050565b60006020820190506122f46000830184611e3b565b92915050565b600060808201905061230f6000830187611e4a565b61231c60208301866122b5565b6123296040830185611e4a565b6123366060830184611e4a565b95945050505050565b600060208201905081810360008301526123598184611e59565b905092915050565b6000602082019050818103600083015261237a81611e92565b9050919050565b6000602082019050818103600083015261239a81611ed2565b9050919050565b600060208201905081810360008301526123ba81611f38565b9050919050565b600060208201905081810360008301526123da81611f9e565b9050919050565b600060208201905081810360008301526123fa81611fde565b9050919050565b6000602082019050818103600083015261241a8161201e565b9050919050565b6000602082019050818103600083015261243a81612084565b9050919050565b6000606082019050818103600083015261245a816120c4565b90506124696020830185612279565b818103604083015261247b8184611e59565b90509392505050565b6000602082019050818103600083015261249d81612104565b9050919050565b600060208201905081810360008301526124bd8161216a565b9050919050565b6000610100820190506124da60008301846121aa565b92915050565b6000610120820190506124f660008301856121aa565b6125046101008301846122a6565b9392505050565b60006020820190506125206000830184612297565b92915050565b60006101008201905061253c600083018b612297565b612549602083018a612297565b612556604083018961225b565b612563606083018861225b565b6125706080830187612297565b61257d60a0830186612279565b61258a60c0830185612279565b61259760e0830184612279565b9998505050505050505050565b6000604051905081810181811067ffffffffffffffff821117156125c757600080fd5b8060405250919050565b600067ffffffffffffffff8211156125e857600080fd5b602082029050602081019050919050565b600067ffffffffffffffff82111561261057600080fd5b602082029050602081019050919050565b600067ffffffffffffffff82111561263857600080fd5b602082029050602081019050919050565b600081519050919050565b600082825260208201905092915050565b600082825260208201905092915050565b60006126818261269e565b9050919050565b60008115159050919050565b6000819050919050565b600073ffffffffffffffffffffffffffffffffffffffff82169050919050565b6000819050919050565b600063ffffffff82169050919050565b600067ffffffffffffffff82169050919050565b600060ff82169050919050565b6000612704826126c8565b9050919050565b60005b8381101561272957808201518184015260208101905061270e565b83811115612738576000848401525b50505050565b6000601f19601f8301169050919050565b61275881612676565b811461276357600080fd5b50565b61276f81612694565b811461277a57600080fd5b50565b6127868161269e565b811461279157600080fd5b50565b61279d816126be565b81146127a857600080fd5b50565b6127b4816126c8565b81146127bf57600080fd5b50565b6127cb816126d8565b81146127d657600080fd5b50565b6127e2816126ec565b81146127ed57600080fd5b5056fea26469706673582212201430fc2e1f1c2fa2f500e3dcb9e33971bfab4fab4f1beeeb8b4a67a2d041663b64736f6c634300060b0033",
  "immutableReferences": {},
  "source": "// SPDX-License-Identifier: MIT\n// Bridge between ethereum and verus\n\npragma solidity >=0.6.0 <0.7.0;\npragma experimental ABIEncoderV2;\nimport \"../node_modules/@openzeppelin/contracts/access/Ownable.sol\";\n\ncontract KomodoNotarize is Ownable{\n\n    //last notarized blockheight\n    uint32 public lastBlockHeight;\n    CurrencyState private lastCurrencyState;\n    //allows for the contract to be upgradable\n    bool public deprecated;\n    address public upgradedAddress;\n    //number of notaries required\n    uint8 requiredNotaries = 1;\n\n    //list of all notarizers mapped to allow for quick searching\n    mapping (address => bool) private komodoNotaries;\n    //mapped blockdetails\n    //the\n    mapping (uint32 => bytes) private notarizedBlocks;\n    //used to record the number of notaries\n    uint8 private notaryCount;\n\n    struct NotarizedBlock{\n        uint32 version;\n        uint32 protocol;\n        uint160 currencyID;\n        uint160 notaryDest;\n        uint32 notarizationHeight;\n        uint256 mmrRoot;\n        uint256 notarizationPreHash;\n        uint256 compactPower;\n    }\n\n    struct CurrencyState{\n        uint64[] reserveIn;\n        uint64[] nativeIn;\n        uint64[] reserveOut;\n        uint64[] conversionPrice;\n        uint64[] fees;\n        uint64[] conversionFees;\n    }\n\n    // Notifies when the contract is deprecated\n    event Deprecate(address newAddress);\n    // Notifies when a new block hash is published\n    event NewBlock(NotarizedBlock notarizedBlock,uint64 notarizedBlockHeight);\n\n\n    constructor() public {\n        deprecated = false;\n        notaryCount = 0;\n        lastBlockHeight = 0;\n    }\n\n    function addNotary(address _notary) public onlyOwner\n    returns(bool){\n\n        require(!deprecated,\"Contract has been deprecated\");\n        //if the the komodoNotaries is full reject\n        require(notaryCount < 60,\"Cant have more than 60 notaries\");\n        //if the notary already is in the komodNotaries then reject\n        require(!komodoNotaries[_notary],\"Notary already exists\");\n\n        komodoNotaries[_notary] = true;\n        notaryCount++;\n        return true;\n\n    }\n\n    function removeNotary(address _notary)  public onlyOwner\n    returns(bool){\n\n        require(!deprecated,\"Contract has been deprecated\");\n        //if the notary is not in the list then fail\n        require(komodoNotaries[_notary] == true,\"Notary does not exist\");\n\n        //need to look at this no easy way to delete from a mapping\n        komodoNotaries[_notary] = false;\n        notaryCount--;\n        return true;\n\n    }\n\n\n    function setLatestBlock(NotarizedBlock memory _notarizedBlockDetail,\n        CurrencyState memory _currencyState,\n        bytes32[] memory _rs,\n        bytes32[] memory _ss,\n        uint8[] memory _vs) public returns(bool){\n\n        require(!deprecated,\"Contract has been deprecated\");\n        require(komodoNotaries[msg.sender],\"Only a notary can call this function\");\n        require((_rs.length == _ss.length) && (_rs.length == _vs.length),\"Signature arrays must be of equal length\");\n        require(_notarizedBlockDetail.notarizationHeight > lastBlockHeight,\"Block Height must be greater than current block height\");\n\n        bytes memory serializedBlock = serializeBlock(_notarizedBlockDetail);\n        //check the hash of the data\n        bytes32 hashedData = keccak256(abi.encode(\"\\x19Ethereum Signed Message:\\n\",serializedBlock.length,serializedBlock));\n        bytes32 hashData2 = keccak256(abi.encode(serializedBlock));\n        //need to check the block hash matches the hashed notarized block\n        //require(_notarizedBlockDetail.length == 148,\"Incorrect block length, block whould be 148 long\");\n\n        address signingAddress;\n        //total number of signatures that have been validated\n        uint8 numberOfSignatures = 0;\n\n        //loop through the arrays, check the following:\n        //does the hash in the hashedBlocks match the komodoBlockHash passed in\n        for(uint i = 0; i < _rs.length; i++){\n            //if the address is in the notary array increment the number of signatures\n            signingAddress = recoverSigner(hashedData, _vs[i], _rs[i], _ss[i]);\n            if(komodoNotaries[signingAddress]) {\n                numberOfSignatures++;\n            }\n        }\n\n        //if there is greater than 13 proper signatories then set the block hash\n        if(numberOfSignatures >= requiredNotaries){\n            notarizedBlocks[_notarizedBlockDetail.notarizationHeight] = serializedBlock;\n            lastBlockHeight = _notarizedBlockDetail.notarizationHeight;\n            lastCurrencyState = _currencyState;\n            emit NewBlock(_notarizedBlockDetail,lastBlockHeight);\n            return true;\n        } else return false;\n\n\n    }\n\n    function recoverSigner(bytes32 h, uint8 v, bytes32 r, bytes32 s) public pure returns (address) {\n        address addr = ecrecover(h, v, r, s);\n        return addr;\n    }\n\n\n    function getLastNotarizedBlock() public view returns(NotarizedBlock memory){\n\n        require(!deprecated,\"Contract has been deprecated\");\n        return deSerializeBlock(notarizedBlocks[lastBlockHeight]);\n\n    }\n\n    function getNotarizedBlock(uint32 _blockHeight) public view returns(NotarizedBlock memory){\n\n        return deSerializeBlock(notarizedBlocks[_blockHeight]);\n\n    }\n\n    function getLastBlockHeight() public view returns(uint32){\n\n        require(!deprecated,\"Contract has been deprecated\");\n        return lastBlockHeight;\n    }\n\n    function deSerializeBlock(bytes memory _serializedBlock) private pure returns(NotarizedBlock memory){\n        NotarizedBlock memory deserializedBlock;\n\n        (deserializedBlock.version,\n        deserializedBlock.protocol,\n        deserializedBlock.currencyID,\n        deserializedBlock.notaryDest,\n        deserializedBlock.notarizationHeight,\n        deserializedBlock.mmrRoot,\n        deserializedBlock.notarizationPreHash,\n        deserializedBlock.compactPower\n        ) = abi.decode(_serializedBlock,(uint32,uint32,uint160,uint160,uint32,uint256,uint256,uint256));\n\n        return deserializedBlock;\n    }\n\n    function serializeBlock(NotarizedBlock memory _deserializedBlock) private pure returns(bytes memory){\n\n        return abi.encode(_deserializedBlock.version,\n        _deserializedBlock.protocol,\n        _deserializedBlock.currencyID,\n        _deserializedBlock.notaryDest,\n        _deserializedBlock.notarizationHeight,\n        _deserializedBlock.mmrRoot,\n        _deserializedBlock.notarizationPreHash,\n        _deserializedBlock.compactPower);\n\n    }\n\n    function kill() public onlyOwner{\n        selfdestruct(msg.sender);\n    }\n\n    /**\n    * deprecate current contract\n    */\n    function deprecate(address _upgradedAddress) public onlyOwner {\n        require(!deprecated,\"Contract has been deprecated\");\n        deprecated = true;\n        upgradedAddress = _upgradedAddress;\n        emit Deprecate(_upgradedAddress);\n\n    }\n\n}\n/*\nlet parameters = web3.eth.abi.encodeParameters(['uint32','uint32','uint160','uint160','uint32','uint256','uint256','uint256','uint64[]','uint64[]','uint64[]','uint64[]','uint64[]','uint64[]'],['0xFFFFFFFF','0xFFFFFFFF','0xa400ff00ff00ff00ff00ff00ff00ff00ff00ff01','0xa400ff00ff00ff00ff00ff00ff00ff00ff00ff01','0xFFFFFFFF','0x0ef9d8f8804d174666011a394cab7901679a8944d24249fd148a6a36071151f8','0x0ef9d8f8804d174666011a394cab7901679a8944d24249fd148a6a36071151f8','0x0ef9d8f8804d174666011a394cab7901679a8944d24249fd148a6a36071151f8',['0','0','0'],['0','0','0'],['0','0','0'],['0','0','0'],['0','0','0'],['0','0','0']]);\nmessage: '0x00000000000000000000000000000000000000000000000000000000ffffffff00000000000000000000000000000000000000000000000000000000ffffffff000000000000000000000000a400ff00ff00ff00ff00ff00ff00ff00ff00ff01000000000000000000000000a400ff00ff00ff00ff00ff00ff00ff00ff00ff0100000000000000000000000000000000000000000000000000000000ffffffff0ef9d8f8804d174666011a394cab7901679a8944d24249fd148a6a36071151f80ef9d8f8804d174666011a394cab7901679a8944d24249fd148a6a36071151f80ef9d8f8804d174666011a394cab7901679a8944d24249fd148a6a36071151f800000000000000000000000000000000000000000000000000000000000001c0000000000000000000000000000000000000000000000000000000000000024000000000000000000000000000000000000000000000000000000000000002c0000000000000000000000000000000000000000000000000000000000000034000000000000000000000000000000000000000000000000000000000000003c00000000000000000000000000000000000000000000000000000000000000440000000000000000000000000000000000000000000000000000000000000000300000000000000000000000000000000000000000000000000000000000000000000000000000000000000000000000000000000000000000000000000000000000000000000000000000000000000000000000000000000000000000000000000000000000000000000000000000000000000000000000000000000000000030000000000000000000000000000000000000000000000000000000000000000000000000000000000000000000000000000000000000000000000000000000000000000000000000000000000000000000000000000000000000000000000000000000000000000000000000000000000000000000000000000000000000003000000000000000000000000000000000000000000000000000000000000000000000000000000000000000000000000000000000000000000000000000000000000000000000000000000000000000000000000000000000000000000000000000000000000000000000000000000000000000000000000000000000000000300000000000000000000000000000000000000000000000000000000000000000000000000000000000000000000000000000000000000000000000000000000000000000000000000000000000000000000000000000000000000000000000000000000000000000000000000000000000000000000000000000000000000030000000000000000000000000000000000000000000000000000000000000000000000000000000000000000000000000000000000000000000000000000000000000000000000000000000000000000000000000000000000000000000000000000000000000000000000000000000000000000000000000000000000000003000000000000000000000000000000000000000000000000000000000000000000000000000000000000000000000000000000000000000000000000000000000000000000000000000000000000000000000000000000000000000000000000',\n  messageHash: '0x932c10ccb95449180ea12c3129092d9c57040c1328fa6f444f505dbfb6a881cc',\n  v: '0x1b',\n  r: '0x50fcf8f5375deea8de9c53b1f77a3f93ef3ff2f7d38bb9b27543435851cc8977',\n  s: '0x3a485fb724b5d8a9defee7ab8996cac4c8eefe1b43352c0eed6075aebe08d928',\n  signature: '0x50fcf8f5375deea8de9c53b1f77a3f93ef3ff2f7d38bb9b27543435851cc89773a485fb724b5d8a9defee7ab8996cac4c8eefe1b43352c0eed6075aebe08d9281b'\n  */\n\n  //Note.setLatestBlock(['0xFFFFFFFF','0xFFFFFFFF','0xa400ff00ff00ff00ff00ff00ff00ff00ff00ff01','0xa400ff00ff00ff00ff00ff00ff00ff00ff00ff01','0xFFFFFFFF','0x0ef9d8f8804d174666011a394cab7901679a8944d24249fd148a6a36071151f8','0x0ef9d8f8804d174666011a394cab7901679a8944d24249fd148a6a36071151f8','0x0ef9d8f8804d174666011a394cab7901679a8944d24249fd148a6a36071151f8',[['0','0','0'],['0','0','0'],['0','0','0'],['0','0','0'],['0','0','0'],['0','0','0']]],['0x50fcf8f5375deea8de9c53b1f77a3f93ef3ff2f7d38bb9b27543435851cc8977'],['0x3a485fb724b5d8a9defee7ab8996cac4c8eefe1b43352c0eed6075aebe08d928'],['0x1b']);\n\n  //kNote.setLatestBlock(['0xFFFFFFFF','0xFFFFFFFF','0xa400ff00ff00ff00ff00ff00ff00ff00ff00ff01','0xa400ff00ff00ff00ff00ff00ff00ff00ff00ff01','0xFFFFFFFF','0x0ef9d8f8804d174666011a394cab7901679a8944d24249fd148a6a36071151f8','0x0ef9d8f8804d174666011a394cab7901679a8944d24249fd148a6a36071151f8','0x0ef9d8f8804d174666011a394cab7901679a8944d24249fd148a6a36071151f8',[[],[],[],[],[],[]]],1,['0xadbe38230f895321882ee2e2779a25c11f255fa0a7389ac8da2d4108252ac194'],['0xea9f1c4751abcf7d7f7dbae052543acdf98bf356acb96d527d5a9a73c846d591'],['0x643c712d0687bfbd7c0fe14cc7384850c65c628220e8f783f6cb3d907c78ebed'],['0x1c'])",
  "sourcePath": "/Volumes/UsersSSD/james/Development/komodo-notarisation-solidity/contracts/komodoNotarize.sol",
  "compiler": {
    "name": "solc",
    "version": "0.6.11+commit.5ef660b1.Emscripten.clang"
  },
  "schemaVersion": "3.2.0",
  "updatedAt": "2020-07-22T17:33:57.158Z",
  "devdoc": {
    "kind": "dev",
    "methods": {
      "owner()": {
        "details": "Returns the address of the current owner."
      },
      "renounceOwnership()": {
        "details": "Leaves the contract without owner. It will not be possible to call `onlyOwner` functions anymore. Can only be called by the current owner. NOTE: Renouncing ownership will leave the contract without an owner, thereby removing any functionality that is only available to the owner."
      },
      "transferOwnership(address)": {
        "details": "Transfers ownership of the contract to a new account (`newOwner`). Can only be called by the current owner."
      }
    },
    "version": 1
  },
  "userdoc": {
    "kind": "user",
    "methods": {
      "deprecate(address)": {
        "notice": "deprecate current contract"
      }
    },
    "version": 1
  }
}