{
  "contractName": "KomodoNotarise",
  "abi": [
    {
      "inputs": [],
      "stateMutability": "nonpayable",
      "type": "constructor"
    },
    {
      "anonymous": false,
      "inputs": [
        {
          "indexed": false,
          "internalType": "address",
          "name": "newAddress",
          "type": "address"
        }
      ],
      "name": "Deprecate",
      "type": "event"
    },
    {
      "anonymous": false,
      "inputs": [
        {
          "indexed": false,
          "internalType": "bytes",
          "name": "notarisedBlock",
          "type": "bytes"
        },
        {
          "indexed": false,
          "internalType": "uint64",
          "name": "komodoBlockHeight",
          "type": "uint64"
        }
      ],
      "name": "NewBlock",
      "type": "event"
    },
    {
      "anonymous": false,
      "inputs": [
        {
          "indexed": true,
          "internalType": "address",
          "name": "previousOwner",
          "type": "address"
        },
        {
          "indexed": true,
          "internalType": "address",
          "name": "newOwner",
          "type": "address"
        }
      ],
      "name": "OwnershipTransferred",
      "type": "event"
    },
    {
      "inputs": [],
      "name": "deprecated",
      "outputs": [
        {
          "internalType": "bool",
          "name": "",
          "type": "bool"
        }
      ],
      "stateMutability": "view",
      "type": "function"
    },
    {
      "inputs": [],
      "name": "lastBlockHeight",
      "outputs": [
        {
          "internalType": "uint32",
          "name": "",
          "type": "uint32"
        }
      ],
      "stateMutability": "view",
      "type": "function"
    },
    {
      "inputs": [],
      "name": "owner",
      "outputs": [
        {
          "internalType": "address",
          "name": "",
          "type": "address"
        }
      ],
      "stateMutability": "view",
      "type": "function"
    },
    {
      "inputs": [],
      "name": "renounceOwnership",
      "outputs": [],
      "stateMutability": "nonpayable",
      "type": "function"
    },
    {
      "inputs": [
        {
          "internalType": "address",
          "name": "newOwner",
          "type": "address"
        }
      ],
      "name": "transferOwnership",
      "outputs": [],
      "stateMutability": "nonpayable",
      "type": "function"
    },
    {
      "inputs": [],
      "name": "upgradedAddress",
      "outputs": [
        {
          "internalType": "address",
          "name": "",
          "type": "address"
        }
      ],
      "stateMutability": "view",
      "type": "function"
    },
    {
      "inputs": [
        {
          "internalType": "address",
          "name": "_notary",
          "type": "address"
        }
      ],
      "name": "addNotary",
      "outputs": [
        {
          "internalType": "bool",
          "name": "",
          "type": "bool"
        }
      ],
      "stateMutability": "nonpayable",
      "type": "function"
    },
    {
      "inputs": [
        {
          "internalType": "address",
          "name": "_notary",
          "type": "address"
        }
      ],
      "name": "removeNotary",
      "outputs": [
        {
          "internalType": "bool",
          "name": "",
          "type": "bool"
        }
      ],
      "stateMutability": "nonpayable",
      "type": "function"
    },
    {
      "inputs": [
        {
          "internalType": "bytes",
          "name": "_komodoBlockDetail",
          "type": "bytes"
        },
        {
          "internalType": "uint32",
          "name": "_blockHeight",
          "type": "uint32"
        },
        {
          "internalType": "bytes32[]",
          "name": "_hashedBlockDetail",
          "type": "bytes32[]"
        },
        {
          "internalType": "bytes32[]",
          "name": "_rs",
          "type": "bytes32[]"
        },
        {
          "internalType": "bytes32[]",
          "name": "_ss",
          "type": "bytes32[]"
        },
        {
          "internalType": "uint8[]",
          "name": "_vs",
          "type": "uint8[]"
        }
      ],
      "name": "setLatestBlock",
      "outputs": [
        {
          "internalType": "bool",
          "name": "",
          "type": "bool"
        }
      ],
      "stateMutability": "nonpayable",
      "type": "function"
    },
    {
      "inputs": [
        {
          "internalType": "bytes32",
          "name": "h",
          "type": "bytes32"
        },
        {
          "internalType": "uint8",
          "name": "v",
          "type": "uint8"
        },
        {
          "internalType": "bytes32",
          "name": "r",
          "type": "bytes32"
        },
        {
          "internalType": "bytes32",
          "name": "s",
          "type": "bytes32"
        }
      ],
      "name": "recoverSigner",
      "outputs": [
        {
          "internalType": "address",
          "name": "",
          "type": "address"
        }
      ],
      "stateMutability": "pure",
      "type": "function"
    },
    {
      "inputs": [],
      "name": "getLastNotarisedBlock",
      "outputs": [
        {
          "components": [
            {
              "internalType": "uint32",
              "name": "version",
              "type": "uint32"
            },
            {
              "internalType": "uint32",
              "name": "protocol",
              "type": "uint32"
            },
            {
              "internalType": "uint160",
              "name": "currencyID",
              "type": "uint160"
            },
            {
              "internalType": "uint160",
              "name": "notaryDest",
              "type": "uint160"
            },
            {
              "internalType": "uint32",
              "name": "notarizationHeight",
              "type": "uint32"
            },
            {
              "internalType": "uint256",
              "name": "mmrRoot",
              "type": "uint256"
            },
            {
              "internalType": "uint256",
              "name": "notarizationPreHash",
              "type": "uint256"
            },
            {
              "internalType": "uint256",
              "name": "compactPower",
              "type": "uint256"
            }
          ],
          "internalType": "struct KomodoNotarise.NotarisedBlock",
          "name": "",
          "type": "tuple"
        }
      ],
      "stateMutability": "view",
      "type": "function"
    },
    {
      "inputs": [
        {
          "internalType": "uint32",
          "name": "_blockHeight",
          "type": "uint32"
        }
      ],
      "name": "getNotarisedBlock",
      "outputs": [
        {
          "components": [
            {
              "internalType": "uint32",
              "name": "version",
              "type": "uint32"
            },
            {
              "internalType": "uint32",
              "name": "protocol",
              "type": "uint32"
            },
            {
              "internalType": "uint160",
              "name": "currencyID",
              "type": "uint160"
            },
            {
              "internalType": "uint160",
              "name": "notaryDest",
              "type": "uint160"
            },
            {
              "internalType": "uint32",
              "name": "notarizationHeight",
              "type": "uint32"
            },
            {
              "internalType": "uint256",
              "name": "mmrRoot",
              "type": "uint256"
            },
            {
              "internalType": "uint256",
              "name": "notarizationPreHash",
              "type": "uint256"
            },
            {
              "internalType": "uint256",
              "name": "compactPower",
              "type": "uint256"
            }
          ],
          "internalType": "struct KomodoNotarise.NotarisedBlock",
          "name": "",
          "type": "tuple"
        }
      ],
      "stateMutability": "view",
      "type": "function"
    },
    {
      "inputs": [],
      "name": "getLastBlockHeight",
      "outputs": [
        {
          "internalType": "uint32",
          "name": "",
          "type": "uint32"
        }
      ],
      "stateMutability": "view",
      "type": "function"
    },
    {
      "inputs": [],
      "name": "kill",
      "outputs": [],
      "stateMutability": "nonpayable",
      "type": "function"
    },
    {
      "inputs": [
        {
          "internalType": "address",
          "name": "_upgradedAddress",
          "type": "address"
        }
      ],
      "name": "deprecate",
      "outputs": [],
      "stateMutability": "nonpayable",
      "type": "function"
    }
  ],
  "bytecode": "0x60806040526001600760156101000a81548160ff021916908360ff16021790555034801561002c57600080fd5b50600061003d61013860201b60201c565b9050806000806101000a81548173ffffffffffffffffffffffffffffffffffffffff021916908373ffffffffffffffffffffffffffffffffffffffff1602179055508073ffffffffffffffffffffffffffffffffffffffff16600073ffffffffffffffffffffffffffffffffffffffff167f8be0079c531659141344cd1fd0a4f28419497f9722a3daafe3b4186f6b6457e060405160405180910390a3506000600760006101000a81548160ff0219169083151502179055506000600a60006101000a81548160ff021916908360ff16021790555060008060146101000a81548163ffffffff021916908363ffffffff160217905550610140565b600033905090565b6124ba8061014f6000396000f3fe608060405234801561001057600080fd5b50600436106100f55760003560e01c806370bbf76b116100975780638da5cb5b116100665780638da5cb5b14610250578063b213264a1461026e578063d45167d01461029e578063f2fde38b146102ce576100f5565b806370bbf76b146101c8578063715018a6146101e65780638164392d146101f057806386785a6f14610220576100f5565b80630e136b19116100d35780630e136b191461016457806326976e3f1461018257806341c0e1b5146101a05780634b60ae63146101aa576100f5565b806302394872146100fa5780630588565f146101185780630753c30c14610148575b600080fd5b6101026102ea565b60405161010f9190612263565b60405180910390f35b610132600480360381019061012d91906118e6565b610354565b60405161013f9190612017565b60405180910390f35b610162600480360381019061015d91906118e6565b6105b1565b005b61016c61072d565b6040516101799190612017565b60405180910390f35b61018a610740565b6040516101979190611ffc565b60405180910390f35b6101a8610766565b005b6101b2610815565b6040516101bf9190612263565b60405180910390f35b6101d061082b565b6040516101dd9190612247565b60405180910390f35b6101ee610959565b005b61020a60048036038101906102059190611972565b610aae565b6040516102179190612017565b60405180910390f35b61023a600480360381019061023591906118e6565b610e66565b6040516102479190612017565b60405180910390f35b610258611075565b6040516102659190611ffc565b60405180910390f35b61028860048036038101906102839190611a73565b61109e565b6040516102959190612247565b60405180910390f35b6102b860048036038101906102b3919061190f565b61116d565b6040516102c59190611ffc565b60405180910390f35b6102e860048036038101906102e391906118e6565b6111cd565b005b6000600760009054906101000a900460ff161561033c576040517f08c379a0000000000000000000000000000000000000000000000000000000008152600401610333906120c7565b60405180910390fd5b600060149054906101000a900463ffffffff16905090565b600061035e611391565b73ffffffffffffffffffffffffffffffffffffffff166000809054906101000a900473ffffffffffffffffffffffffffffffffffffffff1673ffffffffffffffffffffffffffffffffffffffff16146103ec576040517f08c379a00000000000000000000000000000000000000000000000000000000081526004016103e3906121a7565b60405180910390fd5b600760009054906101000a900460ff161561043c576040517f08c379a0000000000000000000000000000000000000000000000000000000008152600401610433906120c7565b60405180910390fd5b603c600a60009054906101000a900460ff1660ff1610610491576040517f08c379a000000000000000000000000000000000000000000000000000000000815260040161048890612167565b60405180910390fd5b600860008373ffffffffffffffffffffffffffffffffffffffff1673ffffffffffffffffffffffffffffffffffffffff16815260200190815260200160002060009054906101000a900460ff161561051e576040517f08c379a000000000000000000000000000000000000000000000000000000000815260040161051590612227565b60405180910390fd5b6001600860008473ffffffffffffffffffffffffffffffffffffffff1673ffffffffffffffffffffffffffffffffffffffff16815260200190815260200160002060006101000a81548160ff021916908315150217905550600a600081819054906101000a900460ff168092919060010191906101000a81548160ff021916908360ff1602179055505060019050919050565b6105b9611391565b73ffffffffffffffffffffffffffffffffffffffff166000809054906101000a900473ffffffffffffffffffffffffffffffffffffffff1673ffffffffffffffffffffffffffffffffffffffff1614610647576040517f08c379a000000000000000000000000000000000000000000000000000000000815260040161063e906121a7565b60405180910390fd5b600760009054906101000a900460ff1615610697576040517f08c379a000000000000000000000000000000000000000000000000000000000815260040161068e906120c7565b60405180910390fd5b6001600760006101000a81548160ff02191690831515021790555080600760016101000a81548173ffffffffffffffffffffffffffffffffffffffff021916908373ffffffffffffffffffffffffffffffffffffffff1602179055507fcc358699805e9a8b7f77b522628c7cb9abd07d9efb86b6fb616af1609036a99e816040516107229190611ffc565b60405180910390a150565b600760009054906101000a900460ff1681565b600760019054906101000a900473ffffffffffffffffffffffffffffffffffffffff1681565b61076e611391565b73ffffffffffffffffffffffffffffffffffffffff166000809054906101000a900473ffffffffffffffffffffffffffffffffffffffff1673ffffffffffffffffffffffffffffffffffffffff16146107fc576040517f08c379a00000000000000000000000000000000000000000000000000000000081526004016107f3906121a7565b60405180910390fd5b3373ffffffffffffffffffffffffffffffffffffffff16ff5b600060149054906101000a900463ffffffff1681565b610833611610565b600760009054906101000a900460ff1615610883576040517f08c379a000000000000000000000000000000000000000000000000000000000815260040161087a906120c7565b60405180910390fd5b610954600960008060149054906101000a900463ffffffff1663ffffffff1663ffffffff1681526020019081526020016000208054600181600116156101000203166002900480601f01602080910402602001604051908101604052809291908181526020018280546001816001161561010002031660029004801561094a5780601f1061091f5761010080835404028352916020019161094a565b820191906000526020600020905b81548152906001019060200180831161092d57829003601f168201915b5050505050611399565b905090565b610961611391565b73ffffffffffffffffffffffffffffffffffffffff166000809054906101000a900473ffffffffffffffffffffffffffffffffffffffff1673ffffffffffffffffffffffffffffffffffffffff16146109ef576040517f08c379a00000000000000000000000000000000000000000000000000000000081526004016109e6906121a7565b60405180910390fd5b600073ffffffffffffffffffffffffffffffffffffffff166000809054906101000a900473ffffffffffffffffffffffffffffffffffffffff1673ffffffffffffffffffffffffffffffffffffffff167f8be0079c531659141344cd1fd0a4f28419497f9722a3daafe3b4186f6b6457e060405160405180910390a360008060006101000a81548173ffffffffffffffffffffffffffffffffffffffff021916908373ffffffffffffffffffffffffffffffffffffffff160217905550565b6000600760009054906101000a900460ff1615610b00576040517f08c379a0000000000000000000000000000000000000000000000000000000008152600401610af7906120c7565b60405180910390fd5b600860003373ffffffffffffffffffffffffffffffffffffffff1673ffffffffffffffffffffffffffffffffffffffff16815260200190815260200160002060009054906101000a900460ff16610b8c576040517f08c379a0000000000000000000000000000000000000000000000000000000008152600401610b8390612127565b60405180910390fd5b82518451148015610b9e575081518451145b610bdd576040517f08c379a0000000000000000000000000000000000000000000000000000000008152600401610bd490612187565b60405180910390fd5b600060149054906101000a900463ffffffff1663ffffffff168663ffffffff1611610c3d576040517f08c379a0000000000000000000000000000000000000000000000000000000008152600401610c34906121e7565b60405180910390fd5b6094875114610c81576040517f08c379a0000000000000000000000000000000000000000000000000000000008152600401610c7890612207565b60405180910390fd5b6000806000905060008090505b8651811015610d9c576001888281518110610ca557fe5b6020026020010151868381518110610cb957fe5b6020026020010151898481518110610ccd57fe5b6020026020010151898581518110610ce157fe5b602002602001015160405160008152602001604052604051610d069493929190612032565b6020604051602081039080840390855afa158015610d28573d6000803e3d6000fd5b505050602060405103519250600860008473ffffffffffffffffffffffffffffffffffffffff1673ffffffffffffffffffffffffffffffffffffffff16815260200190815260200160002060009054906101000a900460ff1615610d8f5781806001019250505b8080600101915050610c8e565b50600760159054906101000a900460ff1660ff168160ff1610610e5a5788600960008a63ffffffff1663ffffffff1681526020019081526020016000209080519060200190610dec929190611693565b5087600060146101000a81548163ffffffff021916908363ffffffff1602179055507f70ca5ed17112f6ae552c9ef4d189f6aa9849f7ae794721615458d9d778daa38889600060149054906101000a900463ffffffff16604051610e51929190612077565b60405180910390a15b50509695505050505050565b6000610e70611391565b73ffffffffffffffffffffffffffffffffffffffff166000809054906101000a900473ffffffffffffffffffffffffffffffffffffffff1673ffffffffffffffffffffffffffffffffffffffff1614610efe576040517f08c379a0000000000000000000000000000000000000000000000000000000008152600401610ef5906121a7565b60405180910390fd5b600760009054906101000a900460ff1615610f4e576040517f08c379a0000000000000000000000000000000000000000000000000000000008152600401610f45906120c7565b60405180910390fd5b60011515600860008473ffffffffffffffffffffffffffffffffffffffff1673ffffffffffffffffffffffffffffffffffffffff16815260200190815260200160002060009054906101000a900460ff16151514610fe1576040517f08c379a0000000000000000000000000000000000000000000000000000000008152600401610fd890612147565b60405180910390fd5b6000600860008473ffffffffffffffffffffffffffffffffffffffff1673ffffffffffffffffffffffffffffffffffffffff16815260200190815260200160002060006101000a81548160ff021916908315150217905550600a600081819054906101000a900460ff16809291906001900391906101000a81548160ff021916908360ff1602179055505060019050919050565b60008060009054906101000a900473ffffffffffffffffffffffffffffffffffffffff16905090565b6110a6611610565b611166600960008463ffffffff1663ffffffff1681526020019081526020016000208054600181600116156101000203166002900480601f01602080910402602001604051908101604052809291908181526020018280546001816001161561010002031660029004801561115c5780601f106111315761010080835404028352916020019161115c565b820191906000526020600020905b81548152906001019060200180831161113f57829003601f168201915b5050505050611399565b9050919050565b600080600186868686604051600081526020016040526040516111939493929190612032565b6020604051602081039080840390855afa1580156111b5573d6000803e3d6000fd5b50505060206040510351905080915050949350505050565b6111d5611391565b73ffffffffffffffffffffffffffffffffffffffff166000809054906101000a900473ffffffffffffffffffffffffffffffffffffffff1673ffffffffffffffffffffffffffffffffffffffff1614611263576040517f08c379a000000000000000000000000000000000000000000000000000000000815260040161125a906121a7565b60405180910390fd5b600073ffffffffffffffffffffffffffffffffffffffff168173ffffffffffffffffffffffffffffffffffffffff1614156112d3576040517f08c379a00000000000000000000000000000000000000000000000000000000081526004016112ca906120e7565b60405180910390fd5b8073ffffffffffffffffffffffffffffffffffffffff166000809054906101000a900473ffffffffffffffffffffffffffffffffffffffff1673ffffffffffffffffffffffffffffffffffffffff167f8be0079c531659141344cd1fd0a4f28419497f9722a3daafe3b4186f6b6457e060405160405180910390a3806000806101000a81548173ffffffffffffffffffffffffffffffffffffffff021916908373ffffffffffffffffffffffffffffffffffffffff16021790555050565b600033905090565b6113a1611610565b6113a9611610565b6113b48360006114f6565b816000019063ffffffff16908163ffffffff16815250506113d68360046114f6565b816020019063ffffffff16908163ffffffff16815250506113f8836008611554565b63ffffffff16816040019073ffffffffffffffffffffffffffffffffffffffff16908173ffffffffffffffffffffffffffffffffffffffff168152505061144083601c611554565b63ffffffff16816060019073ffffffffffffffffffffffffffffffffffffffff16908173ffffffffffffffffffffffffffffffffffffffff16815250506114888360306114f6565b816080019063ffffffff16908163ffffffff16815250506114aa8360346115b2565b63ffffffff168160a00181815250506114c48360546115b2565b63ffffffff168160c00181815250506114de8360746115b2565b63ffffffff168160e001818152505080915050919050565b6000600482018351101561153f576040517f08c379a0000000000000000000000000000000000000000000000000000000008152600401611536906120a7565b60405180910390fd5b60008260048501015190508091505092915050565b6000601482018351101561159d576040517f08c379a0000000000000000000000000000000000000000000000000000000008152600401611594906121c7565b60405180910390fd5b60008260148501015190508091505092915050565b600060208201835110156115fb576040517f08c379a00000000000000000000000000000000000000000000000000000000081526004016115f290612107565b60405180910390fd5b60008260108501015190508091505092915050565b604051806101000160405280600063ffffffff168152602001600063ffffffff168152602001600073ffffffffffffffffffffffffffffffffffffffff168152602001600073ffffffffffffffffffffffffffffffffffffffff168152602001600063ffffffff1681526020016000815260200160008152602001600081525090565b828054600181600116156101000203166002900490600052602060002090601f016020900481019282601f106116d457805160ff1916838001178555611702565b82800160010185558215611702579182015b828111156117015782518255916020019190600101906116e6565b5b50905061170f9190611713565b5090565b61173591905b80821115611731576000816000905550600101611719565b5090565b90565b60008135905061174781612428565b92915050565b600082601f83011261175e57600080fd5b813561177161176c826122ab565b61227e565b9150818183526020840193506020810190508385602084028201111561179657600080fd5b60005b838110156117c657816117ac8882611853565b845260208401935060208301925050600181019050611799565b5050505092915050565b600082601f8301126117e157600080fd5b81356117f46117ef826122d3565b61227e565b9150818183526020840193506020810190508385602084028201111561181957600080fd5b60005b83811015611849578161182f88826118d1565b84526020840193506020830192505060018101905061181c565b5050505092915050565b6000813590506118628161243f565b92915050565b600082601f83011261187957600080fd5b813561188c611887826122fb565b61227e565b915080825260208301602083018583830111156118a857600080fd5b6118b38382846123d5565b50505092915050565b6000813590506118cb81612456565b92915050565b6000813590506118e08161246d565b92915050565b6000602082840312156118f857600080fd5b600061190684828501611738565b91505092915050565b6000806000806080858703121561192557600080fd5b600061193387828801611853565b9450506020611944878288016118d1565b935050604061195587828801611853565b925050606061196687828801611853565b91505092959194509250565b60008060008060008060c0878903121561198b57600080fd5b600087013567ffffffffffffffff8111156119a557600080fd5b6119b189828a01611868565b96505060206119c289828a016118bc565b955050604087013567ffffffffffffffff8111156119df57600080fd5b6119eb89828a0161174d565b945050606087013567ffffffffffffffff811115611a0857600080fd5b611a1489828a0161174d565b935050608087013567ffffffffffffffff811115611a3157600080fd5b611a3d89828a0161174d565b92505060a087013567ffffffffffffffff811115611a5a57600080fd5b611a6689828a016117d0565b9150509295509295509295565b600060208284031215611a8557600080fd5b6000611a93848285016118bc565b91505092915050565b611aa581612354565b82525050565b611ab481612366565b82525050565b611ac381612372565b82525050565b6000611ad482612327565b611ade8185612332565b9350611aee8185602086016123e4565b611af781612417565b840191505092915050565b6000611b0f601983612343565b91507f52656164206f7574206f6620626f756e64732055696e743332000000000000006000830152602082019050919050565b6000611b4f601c83612343565b91507f436f6e747261637420686173206265656e2064657072656361746564000000006000830152602082019050919050565b6000611b8f602683612343565b91507f4f776e61626c653a206e6577206f776e657220697320746865207a65726f206160008301527f64647265737300000000000000000000000000000000000000000000000000006020830152604082019050919050565b6000611bf5601a83612343565b91507f52656164206f7574206f6620626f756e64732055696e743235360000000000006000830152602082019050919050565b6000611c35602483612343565b91507f4f6e6c792061206e6f746172792063616e2063616c6c20746869732066756e6360008301527f74696f6e000000000000000000000000000000000000000000000000000000006020830152604082019050919050565b6000611c9b601583612343565b91507f4e6f7461727920646f6573206e6f7420657869737400000000000000000000006000830152602082019050919050565b6000611cdb601f83612343565b91507f436e61742068617665206d6f7265207468616e203630206e6f746172696573006000830152602082019050919050565b6000611d1b602883612343565b91507f5369676e617475726520617272617973206d757374206265206f66206571756160008301527f6c206c656e6774680000000000000000000000000000000000000000000000006020830152604082019050919050565b6000611d81602083612343565b91507f4f776e61626c653a2063616c6c6572206973206e6f7420746865206f776e65726000830152602082019050919050565b6000611dc1601a83612343565b91507f52656164206f7574206f6620626f756e64732055696e743136300000000000006000830152602082019050919050565b6000611e01603683612343565b91507f426c6f636b20486569676874206d75737420626520677265617465722074686160008301527f6e2063757272656e7420626c6f636b20686569676874000000000000000000006020830152604082019050919050565b6000611e67603083612343565b91507f496e636f727265637420626c6f636b206c656e6774682c20626c6f636b20776860008301527f6f756c6420626520313438206c6f6e67000000000000000000000000000000006020830152604082019050919050565b6000611ecd601583612343565b91507f4e6f7461727920616c72656164792065786973747300000000000000000000006000830152602082019050919050565b61010082016000820151611f176000850182611fc0565b506020820151611f2a6020850182611fc0565b506040820151611f3d6040850182611fa2565b506060820151611f506060850182611fa2565b506080820151611f636080850182611fc0565b5060a0820151611f7660a0850182611fb1565b5060c0820151611f8960c0850182611fb1565b5060e0820151611f9c60e0850182611fb1565b50505050565b611fab8161237c565b82525050565b611fba8161239c565b82525050565b611fc9816123a6565b82525050565b611fd8816123a6565b82525050565b611fe7816123c3565b82525050565b611ff6816123b6565b82525050565b60006020820190506120116000830184611a9c565b92915050565b600060208201905061202c6000830184611aab565b92915050565b60006080820190506120476000830187611aba565b6120546020830186611fed565b6120616040830185611aba565b61206e6060830184611aba565b95945050505050565b600060408201905081810360008301526120918185611ac9565b90506120a06020830184611fde565b9392505050565b600060208201905081810360008301526120c081611b02565b9050919050565b600060208201905081810360008301526120e081611b42565b9050919050565b6000602082019050818103600083015261210081611b82565b9050919050565b6000602082019050818103600083015261212081611be8565b9050919050565b6000602082019050818103600083015261214081611c28565b9050919050565b6000602082019050818103600083015261216081611c8e565b9050919050565b6000602082019050818103600083015261218081611cce565b9050919050565b600060208201905081810360008301526121a081611d0e565b9050919050565b600060208201905081810360008301526121c081611d74565b9050919050565b600060208201905081810360008301526121e081611db4565b9050919050565b6000602082019050818103600083015261220081611df4565b9050919050565b6000602082019050818103600083015261222081611e5a565b9050919050565b6000602082019050818103600083015261224081611ec0565b9050919050565b60006101008201905061225d6000830184611f00565b92915050565b60006020820190506122786000830184611fcf565b92915050565b6000604051905081810181811067ffffffffffffffff821117156122a157600080fd5b8060405250919050565b600067ffffffffffffffff8211156122c257600080fd5b602082029050602081019050919050565b600067ffffffffffffffff8211156122ea57600080fd5b602082029050602081019050919050565b600067ffffffffffffffff82111561231257600080fd5b601f19601f8301169050602081019050919050565b600081519050919050565b600082825260208201905092915050565b600082825260208201905092915050565b600061235f8261237c565b9050919050565b60008115159050919050565b6000819050919050565b600073ffffffffffffffffffffffffffffffffffffffff82169050919050565b6000819050919050565b600063ffffffff82169050919050565b600060ff82169050919050565b60006123ce826123a6565b9050919050565b82818337600083830152505050565b60005b838110156124025780820151818401526020810190506123e7565b83811115612411576000848401525b50505050565b6000601f19601f8301169050919050565b61243181612354565b811461243c57600080fd5b50565b61244881612372565b811461245357600080fd5b50565b61245f816123a6565b811461246a57600080fd5b50565b612476816123b6565b811461248157600080fd5b5056fea2646970667358221220fd5e75253e3f0f826a47697c40a85d129189afba5e58ed4768a00654bc505ef964736f6c634300060b0033",
  "immutableReferences": {},
  "source": "// SPDX-License-Identifier: MIT\n// Bridge between ethereum and verus\n\npragma solidity >=0.6.0 <0.7.0;\npragma experimental ABIEncoderV2;\nimport \"../node_modules/@openzeppelin/contracts/access/Ownable.sol\";\n\ncontract KomodoNotarise is Ownable{\n\n    //last notarised blockheight\n    uint32 public lastBlockHeight;\n    CurrencyState private lastCurrencyState;\n    //allows for the contract to be upgradable\n    bool public deprecated;\n    address public upgradedAddress;\n    //number of notaries required\n    uint8 requiredNotaries = 1;\n\n    //list of all notarisers mapped to allow for quick searching\n    mapping (address => bool) private komodoNotaries;\n    //mapped blockdetails\n    //the\n    mapping (uint32 => bytes) private notarisedBlocks;\n    //used to record the number of notaries\n    uint8 private notaryCount;\n\n    struct NotarisedBlock{\n        uint32 version;\n        uint32 protocol;\n        uint160 currencyID;\n        uint160 notaryDest;\n        uint32 notarizationHeight;\n        uint256 mmrRoot;\n        uint256 notarizationPreHash;\n        uint256 compactPower;\n    }\n\n    struct CurrencyState{\n        uint64[] reserveIn;\n        uint64[] nativeIn;\n        uint64[] reserveOut;\n        uint64[] conversionPrice;\n        uint64[] fees;\n        uint64[] conversionFees;\n    }\n\n    // Notifies when the contract is deprecated\n    event Deprecate(address newAddress);\n    // Notifies when a new block hash is published\n    event NewBlock(bytes notarisedBlock,uint64 komodoBlockHeight);\n\n\n    constructor() public {\n        deprecated = false;\n        notaryCount = 0;\n        lastBlockHeight = 0;\n    }\n\n    function addNotary(address _notary) public onlyOwner\n    returns(bool){\n\n        require(!deprecated,\"Contract has been deprecated\");\n        //if the the komodoNotaries is full reject\n        require(notaryCount < 60,\"Cnat have more than 60 notaries\");\n        //if the notary already is in the komodNotaries then reject\n        require(!komodoNotaries[_notary],\"Notary already exists\");\n\n        komodoNotaries[_notary] = true;\n        notaryCount++;\n        return true;\n\n    }\n\n    function removeNotary(address _notary)  public onlyOwner\n    returns(bool){\n\n        require(!deprecated,\"Contract has been deprecated\");\n        //if the notary is not in the list then fail\n        require(komodoNotaries[_notary] == true,\"Notary does not exist\");\n\n        //need to look at this no easy way to delete from a mapping\n        komodoNotaries[_notary] = false;\n        notaryCount--;\n        return true;\n\n    }\n\n    /**\n    Solidity cant handle a struct array or an array of variable length arrays\n    as the sig byte array is 65 bytes this gets flagged as a variable length array\n    to get round this we pass in the constituents of the address.\n    _komodoBlockDetail is 148 bytes serialised\n    **/\n    function setLatestBlock(bytes memory _komodoBlockDetail,\n        uint32 _blockHeight,\n        bytes32[] memory _hashedBlockDetail,\n        bytes32[] memory _rs,\n        bytes32[] memory _ss,\n        uint8[] memory _vs) public returns(bool){\n\n        require(!deprecated,\"Contract has been deprecated\");\n        require(komodoNotaries[msg.sender],\"Only a notary can call this function\");\n        require((_rs.length == _ss.length) && (_rs.length == _vs.length),\"Signature arrays must be of equal length\");\n        require(_blockHeight > lastBlockHeight,\"Block Height must be greater than current block height\");\n        require(_komodoBlockDetail.length == 148,\"Incorrect block length, block whould be 148 long\");\n        \n\n        address signingAddress;\n        //total number of signatures that have been validated\n        uint8 numberOfSignatures = 0;\n\n        //loop through the arrays, check the following:\n        //does the hash in the hashedBlocks match the komodoBlockHash passed in\n        for(uint i = 0; i < _rs.length; i++){\n            //is the address in the hashed block\n\n            signingAddress = ecrecover(_hashedBlockDetail[i], _vs[i], _rs[i], _ss[i]);\n            if(komodoNotaries[signingAddress]) {\n                numberOfSignatures++;\n            }\n        }\n\n        //if there is greater than 13 proper signatories then set the block hash\n        if(numberOfSignatures >= requiredNotaries){\n            notarisedBlocks[_blockHeight] = _komodoBlockDetail;\n            lastBlockHeight = _blockHeight;\n            emit NewBlock(_komodoBlockDetail,lastBlockHeight);\n        }\n\n    }\n\n    function recoverSigner(bytes32 h, uint8 v, bytes32 r, bytes32 s) public pure returns (address) {\n        address addr = ecrecover(h, v, r, s);\n        return addr;\n    }\n\n\n    function getLastNotarisedBlock() public view returns(NotarisedBlock memory){\n\n        require(!deprecated,\"Contract has been deprecated\");\n        return convertSerialisedBlock(notarisedBlocks[lastBlockHeight]);\n\n    }\n\n    function getNotarisedBlock(uint32 _blockHeight) public view returns(NotarisedBlock memory){\n\n        return convertSerialisedBlock(notarisedBlocks[_blockHeight]);\n\n    }\n\n    function getLastBlockHeight() public view returns(uint32){\n\n        require(!deprecated,\"Contract has been deprecated\");\n        return lastBlockHeight;\n    }\n\n    function convertSerialisedBlock(bytes memory _serialisedBlock) private pure returns(NotarisedBlock memory){\n        NotarisedBlock memory deserialisedBlock;\n        deserialisedBlock.version = toUint32(_serialisedBlock,0);\n        deserialisedBlock.protocol = toUint32(_serialisedBlock,4);\n        deserialisedBlock.currencyID = toUint160(_serialisedBlock,8);\n        deserialisedBlock.notaryDest = toUint160(_serialisedBlock,28);\n        deserialisedBlock.notarizationHeight = toUint32(_serialisedBlock,48);\n        deserialisedBlock.mmrRoot = toUint256(_serialisedBlock,52);\n        deserialisedBlock.notarizationPreHash = toUint256(_serialisedBlock,84);\n        deserialisedBlock.compactPower = toUint256(_serialisedBlock,116);\n        return deserialisedBlock;\n    }\n\n    function toUint32(bytes memory _bytes, uint256 _start) internal pure returns (uint32) {\n        require(_bytes.length >= (_start + 4), \"Read out of bounds Uint32\");\n        uint32 tempUint;\n\n        assembly {\n            tempUint := mload(add(add(_bytes, 0x4), _start))\n        }\n\n        return tempUint;\n    }\n\n    function toUint160(bytes memory _bytes, uint256 _start) internal pure returns (uint32) {\n        require(_bytes.length >= (_start + 20), \"Read out of bounds Uint160\");\n        uint32 tempUint;\n\n        assembly {\n            tempUint := mload(add(add(_bytes, 0x14), _start))\n        }\n\n        return tempUint;\n    }\n\n    function toUint256(bytes memory _bytes, uint256 _start) internal pure returns (uint32) {\n        require(_bytes.length >= (_start + 32), \"Read out of bounds Uint256\");\n        uint32 tempUint;\n\n        assembly {\n            tempUint := mload(add(add(_bytes, 0x10), _start))\n        }\n\n        return tempUint;\n    }\n\n\n    function kill() public onlyOwner{\n        selfdestruct(msg.sender);\n    }\n\n\n\n    /**\n    * deprecate current contract\n    */\n    function deprecate(address _upgradedAddress) public onlyOwner {\n        require(!deprecated,\"Contract has been deprecated\");\n        deprecated = true;\n        upgradedAddress = _upgradedAddress;\n        emit Deprecate(_upgradedAddress);\n\n    }\n\n}\n\n//kNote.setLatestBlock(['0xFF','0xFF','0xFF','0xFF','0x7F','0xFF','0xFF','0xFF','0xa4','0x00','0xff','0x00','0xff','0x00','0xff','0x00','0xff','0x00','0xff','0x00','0xff','0x00','0xff','0x00','0xff','0x00','0xff','0x01','0xa4','0x00','0xff','0x00','0xff','0x00','0xff','0x00','0xff','0x00','0xff','0x00','0xff','0x00','0xff','0x00','0xff','0x00','0xff','0x01','0xFF','0xFF','0xFF','0xFF','0x0e','0xf9','0xd8','0xf8','0x80','0x4d','0x17','0x46','0x66','0x01','0x1a','0x39','0x4c','0xab','0x79','0x01','0x67','0x9a','0x89','0x44','0xd2','0x42','0x49','0xfd','0x14','0x8a','0x6a','0x36','0x07','0x11','0x51','0xf8','0x0e','0xf9','0xd8','0xf8','0x80','0x4d','0x17','0x46','0x66','0x01','0x1a','0x39','0x4c','0xab','0x79','0x01','0x67','0x9a','0x89','0x44','0xd2','0x42','0x49','0xfd','0x14','0x8a','0x6a','0x36','0x07','0x11','0x51','0xf8','0x0e','0xf9','0xd8','0xf8','0x80','0x4d','0x17','0x46','0x66','0x01','0x1a','0x39','0x4c','0xab','0x79','0x01','0x67','0x9a','0x89','0x44','0xd2','0x42','0x49','0xfd','0x14','0x8a','0x6a','0x36','0x07','0x11','0x51','0xf8'],1,['0xed3655291674c5c8661756b26ccca8fdd8c5b0f8cce98e3c1a423568cf967390'],['0x711b1f375c7437e4effa7f9d91e7418bdcfd67175aa664a6f6fd2e58176bee80'],['0x7703efe4996d176bb3d5ec0573e2b8aa59822090e473ee54c2c640c260b7ed60'],['0x1c']\n\n",
  "sourcePath": "/Volumes/UsersSSD/james/Development/komodo-notarisation-solidity/contracts/komodoNotarise.sol",
  "compiler": {
    "name": "solc",
    "version": "0.6.11+commit.5ef660b1.Emscripten.clang"
  },
  "schemaVersion": "3.2.0",
  "updatedAt": "2020-07-21T15:25:06.268Z",
  "devdoc": {
    "kind": "dev",
    "methods": {
      "owner()": {
        "details": "Returns the address of the current owner."
      },
      "renounceOwnership()": {
        "details": "Leaves the contract without owner. It will not be possible to call `onlyOwner` functions anymore. Can only be called by the current owner. NOTE: Renouncing ownership will leave the contract without an owner, thereby removing any functionality that is only available to the owner."
      },
      "transferOwnership(address)": {
        "details": "Transfers ownership of the contract to a new account (`newOwner`). Can only be called by the current owner."
      }
    },
    "version": 1
  },
  "userdoc": {
    "kind": "user",
    "methods": {
      "deprecate(address)": {
        "notice": "deprecate current contract"
      },
      "setLatestBlock(bytes,uint32,bytes32[],bytes32[],bytes32[],uint8[])": {
        "notice": "Solidity cant handle a struct array or an array of variable length arrays as the sig byte array is 65 bytes this gets flagged as a variable length array to get round this we pass in the constituents of the address. _komodoBlockDetail is 148 bytes serialised*"
      }
    },
    "version": 1
  }
}