{
  "contractName": "MMRProof",
  "abi": [
    {
      "inputs": [],
      "stateMutability": "nonpayable",
      "type": "constructor"
    },
    {
      "anonymous": false,
      "inputs": [
        {
          "indexed": false,
          "internalType": "bytes32",
          "name": "newHash",
          "type": "bytes32"
        },
        {
          "indexed": false,
          "internalType": "uint8",
          "name": "eventType",
          "type": "uint8"
        }
      ],
      "name": "HashEvent",
      "type": "event"
    },
    {
      "anonymous": false,
      "inputs": [
        {
          "indexed": false,
          "internalType": "bytes",
          "name": "joinedValue",
          "type": "bytes"
        },
        {
          "indexed": false,
          "internalType": "uint8",
          "name": "eventType",
          "type": "uint8"
        }
      ],
      "name": "JoinEvent",
      "type": "event"
    },
    {
      "inputs": [
        {
          "internalType": "bytes32",
          "name": "_hashToCheck",
          "type": "bytes32"
        },
        {
          "internalType": "uint256",
          "name": "_hashIndex",
          "type": "uint256"
        },
        {
          "internalType": "bytes32[]",
          "name": "_branch",
          "type": "bytes32[]"
        }
      ],
      "name": "predictedRootHash",
      "outputs": [
        {
          "internalType": "bytes32",
          "name": "",
          "type": "bytes32"
        }
      ],
      "stateMutability": "nonpayable",
      "type": "function"
    },
    {
      "inputs": [
        {
          "internalType": "bytes32",
          "name": "_mmrRoot",
          "type": "bytes32"
        },
        {
          "internalType": "bytes32",
          "name": "_hashToCheck",
          "type": "bytes32"
        },
        {
          "internalType": "uint256",
          "name": "_hashIndex",
          "type": "uint256"
        },
        {
          "internalType": "bytes32[]",
          "name": "_branch",
          "type": "bytes32[]"
        }
      ],
      "name": "checkHashInRoot",
      "outputs": [
        {
          "internalType": "bool",
          "name": "",
          "type": "bool"
        }
      ],
      "stateMutability": "nonpayable",
      "type": "function"
    },
    {
      "inputs": [
        {
          "internalType": "bytes",
          "name": "source",
          "type": "bytes"
        }
      ],
      "name": "bytesToBytes32",
      "outputs": [
        {
          "internalType": "bytes32",
          "name": "result",
          "type": "bytes32"
        }
      ],
      "stateMutability": "pure",
      "type": "function"
    },
    {
      "inputs": [
        {
          "internalType": "bytes",
          "name": "testString",
          "type": "bytes"
        },
        {
          "internalType": "bytes",
          "name": "key",
          "type": "bytes"
        }
      ],
      "name": "createHash",
      "outputs": [
        {
          "internalType": "bytes32",
          "name": "",
          "type": "bytes32"
        }
      ],
      "stateMutability": "nonpayable",
      "type": "function"
    },
    {
      "inputs": [
        {
          "internalType": "bytes",
          "name": "testString",
          "type": "bytes"
        },
        {
          "internalType": "bytes",
          "name": "key",
          "type": "bytes"
        }
      ],
      "name": "create64Hash",
      "outputs": [
        {
          "internalType": "bytes",
          "name": "",
          "type": "bytes"
        }
      ],
      "stateMutability": "nonpayable",
      "type": "function"
    }
  ],
  "bytecode": "0x60806040526040518060400160405280601081526020017f566572757344656661756c7448617368000000000000000000000000000000008152506002908051906020019062000051929190620000d2565b503480156200005f57600080fd5b506040516200006e9062000159565b604051809103906000f0801580156200008b573d6000803e3d6000fd5b50600160006101000a81548173ffffffffffffffffffffffffffffffffffffffff021916908373ffffffffffffffffffffffffffffffffffffffff16021790555062000186565b828054600181600116156101000203166002900490600052602060002090601f016020900481019282601f106200011557805160ff191683800117855562000146565b8280016001018555821562000146579182015b828111156200014557825182559160200191906001019062000128565b5b50905062000155919062000167565b5090565b612e7880620016a483390190565b5b808211156200018257600081600090555060010162000168565b5090565b61150e80620001966000396000f3fe608060405234801561001057600080fd5b50600436106100575760003560e01c80630a01b9b01461005c57806382577c561461008c578063bfe370d9146100bc578063c984bae8146100ec578063fe5320bf1461011c575b600080fd5b61007660048036038101906100719190610c02565b61014c565b6040516100839190611097565b60405180910390f35b6100a660048036038101906100a19190610b87565b61055f565b6040516100b3919061107c565b60405180910390f35b6100d660048036038101906100d19190610c69565b61058f565b6040516100e39190611097565b60405180910390f35b61010660048036038101906101019190610caa565b6105ba565b60405161011391906110db565b60405180910390f35b61013660048036038101906101319190610caa565b610762565b6040516101439190611097565b60405180910390f35b600080831015610191576040517f08c379a00000000000000000000000000000000000000000000000000000000081526004016101889061126c565b60405180910390fd5b60008251116101d5576040517f08c379a00000000000000000000000000000000000000000000000000000000081526004016101cc9061122c565b60405180910390fd5b60008251905060006101e5610913565b6060604051806020016040528060008152506002908051906020019061020c929190610936565b50610235886040516020016102219190610f8c565b60405160208183030381529060405261058f565b925060005b8481101561055057600060018916111561031a578887828151811061025b57fe5b602002602001015114156102a4576040517f08c379a000000000000000000000000000000000000000000000000000000000815260040161029b9061124c565b60405180910390fd5b8681815181106102b057fe5b6020026020010151846040516020016102ca929190610fa7565b60405160208183030381529060405291507fb59b9417237df8735fe744fca91cd5730d251ce869959d110a2915359096256182600160405161030d9291906111cc565b60405180910390a161038c565b8387828151811061032757fe5b6020026020010151604051602001610340929190610fa7565b60405160208183030381529060405291507fb59b9417237df8735fe744fca91cd5730d251ce869959d110a291535909625618260026040516103839291906111fc565b60405180910390a15b600160009054906101000a900473ffffffffffffffffffffffffffffffffffffffff1673ffffffffffffffffffffffffffffffffffffffff1663d299dac083600260206040518463ffffffff1660e01b81526004016103ed93929190611187565b61010060405180830381600087803b15801561040857600080fd5b505af115801561041c573d6000803e3d6000fd5b505050506040513d601f19601f820116820180604052508101906104409190610b5d565b92506105008360006008811061045257fe5b60200201518460016008811061046457fe5b60200201518560026008811061047657fe5b60200201518660036008811061048857fe5b60200201518760046008811061049a57fe5b6020020151886005600881106104ac57fe5b6020020151896006600881106104be57fe5b60200201518a6007600881106104d057fe5b60200201516040516020016104ec989796959493929190610fea565b60405160208183030381529060405261058f565b93507f72969aef5690044312f898780ff7189689547472aaea4eb1e0de070b96ebc2788460036040516105349291906110b2565b60405180910390a1600188901c9750808060010191505061023a565b50829450505050509392505050565b60008061056d85858561014c565b905080861415610581576001915050610587565b60009150505b949350505050565b600060608290506000815114156105ac576000801b9150506105b5565b60208301519150505b919050565b60606105c4610913565b6060846040516020016105d79190610fd3565b6040516020818303038152906040529050600160009054906101000a900473ffffffffffffffffffffffffffffffffffffffff1673ffffffffffffffffffffffffffffffffffffffff1663d299dac08286604080518463ffffffff1660e01b815260040161064793929190611142565b61010060405180830381600087803b15801561066257600080fd5b505af1158015610676573d6000803e3d6000fd5b505050506040513d601f19601f8201168201806040525081019061069a9190610b5d565b91506060826000600881106106ab57fe5b6020020151836001600881106106bd57fe5b6020020151846002600881106106cf57fe5b6020020151856003600881106106e157fe5b6020020151866004600881106106f357fe5b60200201518760056008811061070557fe5b60200201518860066008811061071757fe5b60200201518960076008811061072957fe5b6020020151604051602001610745989796959493929190610fea565b604051602081830303815290604052905080935050505092915050565b600061076c610913565b60608460405160200161077f9190610fd3565b6040516020818303038152906040529050600160009054906101000a900473ffffffffffffffffffffffffffffffffffffffff1673ffffffffffffffffffffffffffffffffffffffff1663d299dac0828660206040518463ffffffff1660e01b81526004016107f0939291906110fd565b61010060405180830381600087803b15801561080b57600080fd5b505af115801561081f573d6000803e3d6000fd5b505050506040513d601f19601f820116820180604052508101906108439190610b5d565b915060608260006008811061085457fe5b60200201518360016008811061086657fe5b60200201518460026008811061087857fe5b60200201518560036008811061088a57fe5b60200201518660046008811061089c57fe5b6020020151876005600881106108ae57fe5b6020020151886006600881106108c057fe5b6020020151896007600881106108d257fe5b60200201516040516020016108ee989796959493929190610fea565b60405160208183030381529060405290506109088161058f565b935050505092915050565b604051806101000160405280600890602082028036833780820191505090505090565b828054600181600116156101000203166002900490600052602060002090601f016020900481019282601f1061097757805160ff19168380011785556109a5565b828001600101855582156109a5579182015b828111156109a4578251825591602001919060010190610989565b5b5090506109b291906109b6565b5090565b5b808211156109cf5760008160009055506001016109b7565b5090565b600082601f8301126109e457600080fd5b81356109f76109f2826112b9565b61128c565b91508181835260208401935060208101905083856020840282011115610a1c57600080fd5b60005b83811015610a4c5781610a328882610aca565b845260208401935060208301925050600181019050610a1f565b5050505092915050565b600082601f830112610a6757600080fd5b6008610a7a610a75826112e1565b61128c565b91508183856020840282011115610a9057600080fd5b60005b83811015610ac05781610aa68882610b48565b845260208401935060208301925050600181019050610a93565b5050505092915050565b600081359050610ad981611493565b92915050565b600082601f830112610af057600080fd5b8135610b03610afe82611303565b61128c565b91508082526020830160208301858383011115610b1f57600080fd5b610b2a838284611417565b50505092915050565b600081359050610b42816114aa565b92915050565b600081519050610b57816114c1565b92915050565b60006101008284031215610b7057600080fd5b6000610b7e84828501610a56565b91505092915050565b60008060008060808587031215610b9d57600080fd5b6000610bab87828801610aca565b9450506020610bbc87828801610aca565b9350506040610bcd87828801610b33565b925050606085013567ffffffffffffffff811115610bea57600080fd5b610bf6878288016109d3565b91505092959194509250565b600080600060608486031215610c1757600080fd5b6000610c2586828701610aca565b9350506020610c3686828701610b33565b925050604084013567ffffffffffffffff811115610c5357600080fd5b610c5f868287016109d3565b9150509250925092565b600060208284031215610c7b57600080fd5b600082013567ffffffffffffffff811115610c9557600080fd5b610ca184828501610adf565b91505092915050565b60008060408385031215610cbd57600080fd5b600083013567ffffffffffffffff811115610cd757600080fd5b610ce385828601610adf565b925050602083013567ffffffffffffffff811115610d0057600080fd5b610d0c85828601610adf565b9150509250929050565b610d1f8161137c565b82525050565b610d2e81611388565b82525050565b610d45610d4082611388565b611459565b82525050565b6000610d5682611344565b610d60818561134f565b9350610d70818560208601611426565b610d7981611475565b840191505092915050565b6000610d8f82611344565b610d998185611360565b9350610da9818560208601611426565b80840191505092915050565b600081546001811660008114610dd25760018114610df857610e3c565b607f6002830416610de3818761134f565b955060ff198316865260208601935050610e3c565b60028204610e06818761134f565b9550610e118561132f565b60005b82811015610e3357815481890152600182019150602081019050610e14565b80880195505050505b505092915050565b610e4d816113bd565b82525050565b610e5c816113cf565b82525050565b610e6b816113e1565b82525050565b610e7a816113f3565b82525050565b610e8981611405565b82525050565b6000610e9c601c8361136b565b91507f4272616e6368206d757374206265206c6f6e676572207468616e2030000000006000830152602082019050919050565b6000610edc60318361136b565b91507f56616c75652063616e20626520657175616c20746f206e6f646520627574206e60008301527f65766572206f6e207468652072696768740000000000000000000000000000006020830152604082019050919050565b6000610f42601b8361136b565b91507f496e6465782063616e6e6f74206265206c657373207468616e203000000000006000830152602082019050919050565b610f86610f818261139c565b611463565b82525050565b6000610f988284610d34565b60208201915081905092915050565b6000610fb38285610d34565b602082019150610fc38284610d34565b6020820191508190509392505050565b6000610fdf8284610d84565b915081905092915050565b6000610ff6828b610f75565b600882019150611006828a610f75565b6008820191506110168289610f75565b6008820191506110268288610f75565b6008820191506110368287610f75565b6008820191506110468286610f75565b6008820191506110568285610f75565b6008820191506110668284610f75565b6008820191508190509998505050505050505050565b60006020820190506110916000830184610d16565b92915050565b60006020820190506110ac6000830184610d25565b92915050565b60006040820190506110c76000830185610d25565b6110d46020830184610e71565b9392505050565b600060208201905081810360008301526110f58184610d4b565b905092915050565b600060608201905081810360008301526111178186610d4b565b9050818103602083015261112b8185610d4b565b905061113a6040830184610e62565b949350505050565b6000606082019050818103600083015261115c8186610d4b565b905081810360208301526111708185610d4b565b905061117f6040830184610e80565b949350505050565b600060608201905081810360008301526111a18186610d4b565b905081810360208301526111b58185610db5565b90506111c46040830184610e62565b949350505050565b600060408201905081810360008301526111e68185610d4b565b90506111f56020830184610e44565b9392505050565b600060408201905081810360008301526112168185610d4b565b90506112256020830184610e53565b9392505050565b6000602082019050818103600083015261124581610e8f565b9050919050565b6000602082019050818103600083015261126581610ecf565b9050919050565b6000602082019050818103600083015261128581610f35565b9050919050565b6000604051905081810181811067ffffffffffffffff821117156112af57600080fd5b8060405250919050565b600067ffffffffffffffff8211156112d057600080fd5b602082029050602081019050919050565b600067ffffffffffffffff8211156112f857600080fd5b602082029050919050565b600067ffffffffffffffff82111561131a57600080fd5b601f19601f8301169050602081019050919050565b60008190508160005260206000209050919050565b600081519050919050565b600082825260208201905092915050565b600081905092915050565b600082825260208201905092915050565b60008115159050919050565b6000819050919050565b6000819050919050565b600067ffffffffffffffff82169050919050565b600060ff82169050919050565b60006113c8826113b0565b9050919050565b60006113da826113b0565b9050919050565b60006113ec8261139c565b9050919050565b60006113fe826113b0565b9050919050565b60006114108261139c565b9050919050565b82818337600083830152505050565b60005b83811015611444578082015181840152602081019050611429565b83811115611453576000848401525b50505050565b6000819050919050565b600061146e82611486565b9050919050565b6000601f19601f8301169050919050565b60008160c01b9050919050565b61149c81611388565b81146114a757600080fd5b50565b6114b381611392565b81146114be57600080fd5b50565b6114ca8161139c565b81146114d557600080fd5b5056fea2646970667358221220fe4784080b994d47b23bdd2ea9a12ea52f18dbee4e8eb53c0eeb76bb04675ce164736f6c634300060c00336080604052604051806101000160405280676a09e667f3bcc90867ffffffffffffffff16815260200167bb67ae8584caa73b67ffffffffffffffff168152602001673c6ef372fe94f82b67ffffffffffffffff16815260200167a54ff53a5f1d36f167ffffffffffffffff16815260200167510e527fade682d167ffffffffffffffff168152602001679b05688c2b3e6c1f67ffffffffffffffff168152602001671f83d9abfb41bd6b67ffffffffffffffff168152602001675be0cd19137e217967ffffffffffffffff168152506000906008620000e0929190620000f5565b50348015620000ee57600080fd5b50620001dc565b826008600301600490048101928215620001985791602002820160005b838211156200016057835183826101000a81548167ffffffffffffffff021916908367ffffffffffffffff160217905550926020019260080160208160070104928301926001030262000112565b8015620001965782816101000a81549067ffffffffffffffff021916905560080160208160070104928301926001030262000160565b505b509050620001a79190620001ab565b5090565b5b80821115620001d857600081816101000a81549067ffffffffffffffff021916905550600101620001ac565b5090565b612c8c80620001ec6000396000f3fe608060405234801561001057600080fd5b50600436106100935760003560e01c8063d299dac011610066578063d299dac014610515578063df459019146106b7578063f23525ec1461075a578063fa2acd87146107a6578063fb72d24e1461085d57610093565b80631e09242314610098578063217311ac146103685780637ac0b1e3146103be578063bf187478146104b5575b600080fd5b61032a600480360360a08110156100ae57600080fd5b81019080803590602001906401000000008111156100cb57600080fd5b8201836020820111156100dd57600080fd5b803590602001918460018302840111640100000000831117156100ff57600080fd5b91908080601f016020809104026020016040519081016040528093929190818152602001838380828437600081840152601f19601f8201169050808301925050505050505091929192908035906020019064010000000081111561016257600080fd5b82018360208201111561017457600080fd5b8035906020019184600183028401116401000000008311171561019657600080fd5b91908080601f016020809104026020016040519081016040528093929190818152602001838380828437600081840152601f19601f820116905080830192505050505050509192919290803590602001906401000000008111156101f957600080fd5b82018360208201111561020b57600080fd5b8035906020019184600183028401116401000000008311171561022d57600080fd5b91908080601f016020809104026020016040519081016040528093929190818152602001838380828437600081840152601f19601f8201169050808301925050505050505091929192908035906020019064010000000081111561029057600080fd5b8201836020820111156102a257600080fd5b803590602001918460018302840111640100000000831117156102c457600080fd5b91908080601f016020809104026020016040519081016040528093929190818152602001838380828437600081840152601f19601f820116905080830192505050505050509192919290803567ffffffffffffffff1690602001909291905050506108bd565b6040518082600860200280838360005b8381101561035557808201518184015260208101905061033a565b5050505090500191505060405180910390f35b61039e6004803603602081101561037e57600080fd5b81019080803567ffffffffffffffff169060200190929190505050610973565b604051808267ffffffffffffffff16815260200191505060405180910390f35b610477600480360360208110156103d457600080fd5b81019080803590602001906401000000008111156103f157600080fd5b82018360208201111561040357600080fd5b8035906020019184600183028401116401000000008311171561042557600080fd5b91908080601f016020809104026020016040519081016040528093929190818152602001838380828437600081840152601f19601f820116905080830192505050505050509192919290505050610a63565b6040518082600260200280838360005b838110156104a2578082015181840152602081019050610487565b5050505090500191505060405180910390f35b6104f5600480360360408110156104cb57600080fd5b81019080803567ffffffffffffffff16906020019092919080359060200190929190505050610ba0565b604051808267ffffffffffffffff16815260200191505060405180910390f35b6106796004803603606081101561052b57600080fd5b810190808035906020019064010000000081111561054857600080fd5b82018360208201111561055a57600080fd5b8035906020019184600183028401116401000000008311171561057c57600080fd5b91908080601f016020809104026020016040519081016040528093929190818152602001838380828437600081840152601f19601f820116905080830192505050505050509192919290803590602001906401000000008111156105df57600080fd5b8201836020820111156105f157600080fd5b8035906020019184600183028401116401000000008311171561061357600080fd5b91908080601f016020809104026020016040519081016040528093929190818152602001838380828437600081840152601f19601f820116905080830192505050505050509192919290803567ffffffffffffffff169060200190929190505050610bcc565b6040518082600860200280838360005b838110156106a4578082015181840152602081019050610689565b5050505090500191505060405180910390f35b61071c60048036036101008110156106ce57600080fd5b810190808061010001906008806020026040519081016040528092919082600860200280828437600081840152601f19601f8201169050808301925050505050509192919290505050610c08565b6040518082600260200280838360005b8381101561074757808201518184015260208101905061072c565b5050505090500191505060405180910390f35b6107866004803603602081101561077057600080fd5b8101908080359060200190929190505050610ca9565b604051808267ffffffffffffffff16815260200191505060405180910390f35b61085b60048036036102c08110156107bd57600080fd5b810190808061020001906010806020026040519081016040528092919082601060200280828437600081840152601f19601f820116905080830192505050505050919291929080359060200190929190803590602001909291908035906020019092919080359060200190929190803567ffffffffffffffff169060200190929190803567ffffffffffffffff169060200190929190505050610cda565b005b61089d6004803603604081101561087357600080fd5b81019080803567ffffffffffffffff16906020019092919080359060200190929190505050610eae565b604051808267ffffffffffffffff16815260200191505060405180910390f35b6108c5612b25565b6108cd612b48565b6108d5612b25565b6108f28285896108e48a610a63565b6108ed8a610a63565b610ecf565b6108fc82896111da565b61090682826112e6565b7fde1a9fb355752f7765552010c12ee02e62eaa7b0502f3088e6b5398ce8686a38816040518082600860200280838360005b83811015610953578082015181840152602081019050610938565b5050505090500191505060405180910390a1809250505095945050505050565b600067010000000000000060ff8316026501000000000061ff00841602630100000062ff000085160261010063ff00000086160261010067ffffffffffffffff1664ff00000000871667ffffffffffffffff16816109cd57fe5b04630100000067ffffffffffffffff1665ff0000000000881667ffffffffffffffff16816109f757fe5b046501000000000067ffffffffffffffff1666ff000000000000891667ffffffffffffffff1681610a2457fe5b0467010000000000000067ffffffffffffffff1667ff000000000000008a1667ffffffffffffffff1681610a5457fe5b04181818181818189050919050565b610a6b612b9f565b60005b8251811015610b0e57610ab0838281518110610a8657fe5b602001015160f81c60f81b60f81c60ff16600160088481610aa357fe5b0601600802604003610ba0565b8260088381610abb57fe5b0460028110610ac657fe5b6020020151188260088381610ad757fe5b0460028110610ae257fe5b602002019067ffffffffffffffff16908167ffffffffffffffff16815250508080600101915050610a6e565b50610b2981600060028110610b1f57fe5b6020020151610973565b81600060028110610b3657fe5b602002019067ffffffffffffffff16908167ffffffffffffffff1681525050610b6f81600160028110610b6557fe5b6020020151610973565b81600160028110610b7c57fe5b602002019067ffffffffffffffff16908167ffffffffffffffff1681525050919050565b6000680100000000000000008260020a8467ffffffffffffffff160281610bc357fe5b06905092915050565b610bd4612b25565b610bff84846040518060200160405280600081525060405180602001604052806000815250866108bd565b90509392505050565b610c10612bc1565b610c18612bc1565b60005b6008811015610c9f5760048181610c2e57fe5b0660030360400260020a848260088110610c4457fe5b602002015167ffffffffffffffff160260001b8260048381610c6257fe5b0460028110610c6d57fe5b6020020151188260048381610c7e57fe5b0460028110610c8957fe5b6020020181815250508080600101915050610c1b565b5080915050919050565b60008160088110610cb657fe5b60049182820401919006600802915054906101000a900467ffffffffffffffff1681565b6000878760108110610ce857fe5b602002015190506000888760108110610cfd57fe5b602002015190506000898760108110610d1257fe5b6020020151905060008a8760108110610d2757fe5b60200201519050680100000000000000008684860108935068010000000000000000640100000000858318096401000000008583180418905068010000000000000000818308915068010000000000000000650100000000008385180963010000008385180418925068010000000000000000858486010893506801000000000000000066010000000000008583180962010000858318041890506801000000000000000081830891506801000000000000000060028385180967800000000000000083851804189250838b8b60108110610dfe57fe5b602002019067ffffffffffffffff16908167ffffffffffffffff1681525050828b8a60108110610e2a57fe5b602002019067ffffffffffffffff16908167ffffffffffffffff1681525050818b8960108110610e5657fe5b602002019067ffffffffffffffff16908167ffffffffffffffff1681525050808b8860108110610e8257fe5b602002019067ffffffffffffffff16908167ffffffffffffffff16815250505050505050505050505050565b60008160020a8367ffffffffffffffff1681610ec657fe5b04905092915050565b60008467ffffffffffffffff161480610ef2575060408467ffffffffffffffff16115b80610efe575060408351115b15610f54576040517f08c379a000000000000000000000000000000000000000000000000000000000815260040180806020018281038252602e815260200180612c29602e913960400191505060405180910390fd5b60005b6008811015610fc95760008160088110610f6d57fe5b600491828204019190066008029054906101000a900467ffffffffffffffff1686602001518260088110610f9d57fe5b602002019067ffffffffffffffff16908167ffffffffffffffff16815250508080600101915050610f57565b5083610fd784516008610ba0565b63010100008760200151600060088110610fed57fe5b6020020151181818856020015160006008811061100657fe5b602002019067ffffffffffffffff16908167ffffffffffffffff16815250508160006002811061103257fe5b6020020151856020015160046008811061104857fe5b602002015118856020015160046008811061105f57fe5b602002019067ffffffffffffffff16908167ffffffffffffffff16815250508160016002811061108b57fe5b602002015185602001516005600881106110a157fe5b60200201511885602001516005600881106110b857fe5b602002019067ffffffffffffffff16908167ffffffffffffffff1681525050806000600281106110e457fe5b602002015185602001516006600881106110fa57fe5b602002015118856020015160066008811061111157fe5b602002019067ffffffffffffffff16908167ffffffffffffffff16815250508060016002811061113d57fe5b6020020151856020015160076008811061115357fe5b602002015118856020015160076008811061116a57fe5b602002019067ffffffffffffffff16908167ffffffffffffffff16815250508367ffffffffffffffff168560800181815250506000835111156111d3576111b185846111da565b6080856060019067ffffffffffffffff16908167ffffffffffffffff16815250505b5050505050565b60005b81518110156112e1576080836060015167ffffffffffffffff16141561126e57826060015167ffffffffffffffff1683604001818151019150906fffffffffffffffffffffffffffffffff1690816fffffffffffffffffffffffffffffffff168152505061124c836000611437565b6000836060019067ffffffffffffffff16908167ffffffffffffffff16815250505b600083606001805180919060010167ffffffffffffffff1667ffffffffffffffff1681525067ffffffffffffffff1690506112a7612be3565b8460000151905060008484815181106112bc57fe5b602001015160f81c60f81b60f81c9050808383015350505080806001019150506111dd565b505050565b816060015167ffffffffffffffff1682604001818151019150906fffffffffffffffffffffffffffffffff1690816fffffffffffffffffffffffffffffffff1681525050611335826001611437565b60005b600883608001518161134657fe5b048110156113a35761136b8360200151826008811061136157fe5b6020020151610973565b82826008811061137757fe5b602002019067ffffffffffffffff16908167ffffffffffffffff16815250508080600101915050611338565b50604082608001511015611433576113f96113df836020015160088560800151816113ca57fe5b04600881106113d557fe5b6020020151610973565b60088460800151816113ed57fe5b06600802604003610eae565b81600884608001518161140857fe5b046008811061141357fe5b602002019067ffffffffffffffff16908167ffffffffffffffff16815250505b5050565b61143f612c05565b611447612c05565b60005b60088110156114fb578460200151816008811061146357fe5b602002015183826010811061147457fe5b602002019067ffffffffffffffff16908167ffffffffffffffff1681525050600081600881106114a057fe5b600491828204019190066008029054906101000a900467ffffffffffffffff168360088301601081106114cf57fe5b602002019067ffffffffffffffff16908167ffffffffffffffff1681525050808060010191505061144a565b506801000000000000000084604001516fffffffffffffffffffffffffffffffff168161152457fe5b0682600c6010811061153257fe5b60200201511882600c6010811061154557fe5b602002019067ffffffffffffffff16908167ffffffffffffffff16815250506801000000000000000084604001516fffffffffffffffffffffffffffffffff168161158c57fe5b0482600d6010811061159a57fe5b60200201511882600d601081106115ad57fe5b602002019067ffffffffffffffff16908167ffffffffffffffff168152505082156116125781600e601081106115df57fe5b60200201511982600e601081106115f257fe5b602002019067ffffffffffffffff16908167ffffffffffffffff16815250505b60008060005b60108110156116b95760006004828161162d57fe5b06905060009350600081141561165f5787600001516004838161164c57fe5b046004811061165757fe5b602002015192505b67ffffffffffffffff8160030360400260020a840416935061168084610973565b85836010811061168c57fe5b602002019067ffffffffffffffff16908167ffffffffffffffff1681525050508080600101915050611618565b506116ef84600060046008600c886000601081106116d357fe5b6020020151896001601081106116e557fe5b6020020151610cda565b61172484600160056009600d8860026010811061170857fe5b60200201518960036010811061171a57fe5b6020020151610cda565b6117598460026006600a600e8860046010811061173d57fe5b60200201518960056010811061174f57fe5b6020020151610cda565b61178e8460036007600b600f8860066010811061177257fe5b60200201518960076010811061178457fe5b6020020151610cda565b6117c38460006005600a600f886008601081106117a757fe5b6020020151896009601081106117b957fe5b6020020151610cda565b6117f88460016006600b600c88600a601081106117dc57fe5b602002015189600b601081106117ee57fe5b6020020151610cda565b61182d84600260076008600d88600c6010811061181157fe5b602002015189600d6010811061182357fe5b6020020151610cda565b61186284600360046009600e88600e6010811061184657fe5b602002015189600f6010811061185857fe5b6020020151610cda565b61189784600060046008600c88600e6010811061187b57fe5b602002015189600a6010811061188d57fe5b6020020151610cda565b6118cc84600160056009600d886004601081106118b057fe5b6020020151896008601081106118c257fe5b6020020151610cda565b6119018460026006600a600e886009601081106118e557fe5b602002015189600f601081106118f757fe5b6020020151610cda565b6119368460036007600b600f88600d6010811061191a57fe5b60200201518960066010811061192c57fe5b6020020151610cda565b61196b8460006005600a600f8860016010811061194f57fe5b602002015189600c6010811061196157fe5b6020020151610cda565b6119a08460016006600b600c8860006010811061198457fe5b60200201518960026010811061199657fe5b6020020151610cda565b6119d584600260076008600d88600b601081106119b957fe5b6020020151896007601081106119cb57fe5b6020020151610cda565b611a0a84600360046009600e886005601081106119ee57fe5b602002015189600360108110611a0057fe5b6020020151610cda565b611a3f84600060046008600c88600b60108110611a2357fe5b602002015189600860108110611a3557fe5b6020020151610cda565b611a7484600160056009600d88600c60108110611a5857fe5b602002015189600060108110611a6a57fe5b6020020151610cda565b611aa98460026006600a600e88600560108110611a8d57fe5b602002015189600260108110611a9f57fe5b6020020151610cda565b611ade8460036007600b600f88600f60108110611ac257fe5b602002015189600d60108110611ad457fe5b6020020151610cda565b611b138460006005600a600f88600a60108110611af757fe5b602002015189600e60108110611b0957fe5b6020020151610cda565b611b488460016006600b600c88600360108110611b2c57fe5b602002015189600660108110611b3e57fe5b6020020151610cda565b611b7d84600260076008600d88600760108110611b6157fe5b602002015189600160108110611b7357fe5b6020020151610cda565b611bb284600360046009600e88600960108110611b9657fe5b602002015189600460108110611ba857fe5b6020020151610cda565b611be784600060046008600c88600760108110611bcb57fe5b602002015189600960108110611bdd57fe5b6020020151610cda565b611c1c84600160056009600d88600360108110611c0057fe5b602002015189600160108110611c1257fe5b6020020151610cda565b611c518460026006600a600e88600d60108110611c3557fe5b602002015189600c60108110611c4757fe5b6020020151610cda565b611c868460036007600b600f88600b60108110611c6a57fe5b602002015189600e60108110611c7c57fe5b6020020151610cda565b611cbb8460006005600a600f88600260108110611c9f57fe5b602002015189600660108110611cb157fe5b6020020151610cda565b611cf08460016006600b600c88600560108110611cd457fe5b602002015189600a60108110611ce657fe5b6020020151610cda565b611d2584600260076008600d88600460108110611d0957fe5b602002015189600060108110611d1b57fe5b6020020151610cda565b611d5a84600360046009600e88600f60108110611d3e57fe5b602002015189600860108110611d5057fe5b6020020151610cda565b611d8f84600060046008600c88600960108110611d7357fe5b602002015189600060108110611d8557fe5b6020020151610cda565b611dc484600160056009600d88600560108110611da857fe5b602002015189600760108110611dba57fe5b6020020151610cda565b611df98460026006600a600e88600260108110611ddd57fe5b602002015189600460108110611def57fe5b6020020151610cda565b611e2e8460036007600b600f88600a60108110611e1257fe5b602002015189600f60108110611e2457fe5b6020020151610cda565b611e638460006005600a600f88600e60108110611e4757fe5b602002015189600160108110611e5957fe5b6020020151610cda565b611e988460016006600b600c88600b60108110611e7c57fe5b602002015189600c60108110611e8e57fe5b6020020151610cda565b611ecd84600260076008600d88600660108110611eb157fe5b602002015189600860108110611ec357fe5b6020020151610cda565b611f0284600360046009600e88600360108110611ee657fe5b602002015189600d60108110611ef857fe5b6020020151610cda565b611f3784600060046008600c88600260108110611f1b57fe5b602002015189600c60108110611f2d57fe5b6020020151610cda565b611f6c84600160056009600d88600660108110611f5057fe5b602002015189600a60108110611f6257fe5b6020020151610cda565b611fa18460026006600a600e88600060108110611f8557fe5b602002015189600b60108110611f9757fe5b6020020151610cda565b611fd68460036007600b600f88600860108110611fba57fe5b602002015189600360108110611fcc57fe5b6020020151610cda565b61200b8460006005600a600f88600460108110611fef57fe5b602002015189600d6010811061200157fe5b6020020151610cda565b6120408460016006600b600c8860076010811061202457fe5b60200201518960056010811061203657fe5b6020020151610cda565b61207584600260076008600d88600f6010811061205957fe5b602002015189600e6010811061206b57fe5b6020020151610cda565b6120aa84600360046009600e8860016010811061208e57fe5b6020020151896009601081106120a057fe5b6020020151610cda565b6120df84600060046008600c88600c601081106120c357fe5b6020020151896005601081106120d557fe5b6020020151610cda565b61211484600160056009600d886001601081106120f857fe5b602002015189600f6010811061210a57fe5b6020020151610cda565b6121498460026006600a600e88600e6010811061212d57fe5b602002015189600d6010811061213f57fe5b6020020151610cda565b61217e8460036007600b600f8860046010811061216257fe5b602002015189600a6010811061217457fe5b6020020151610cda565b6121b38460006005600a600f8860006010811061219757fe5b6020020151896007601081106121a957fe5b6020020151610cda565b6121e88460016006600b600c886006601081106121cc57fe5b6020020151896003601081106121de57fe5b6020020151610cda565b61221d84600260076008600d8860096010811061220157fe5b60200201518960026010811061221357fe5b6020020151610cda565b61225284600360046009600e8860086010811061223657fe5b602002015189600b6010811061224857fe5b6020020151610cda565b61228784600060046008600c88600d6010811061226b57fe5b602002015189600b6010811061227d57fe5b6020020151610cda565b6122bc84600160056009600d886007601081106122a057fe5b602002015189600e601081106122b257fe5b6020020151610cda565b6122f18460026006600a600e88600c601081106122d557fe5b6020020151896001601081106122e757fe5b6020020151610cda565b6123268460036007600b600f8860036010811061230a57fe5b60200201518960096010811061231c57fe5b6020020151610cda565b61235b8460006005600a600f8860056010811061233f57fe5b60200201518960006010811061235157fe5b6020020151610cda565b6123908460016006600b600c88600f6010811061237457fe5b60200201518960046010811061238657fe5b6020020151610cda565b6123c584600260076008600d886008601081106123a957fe5b6020020151896006601081106123bb57fe5b6020020151610cda565b6123fa84600360046009600e886002601081106123de57fe5b602002015189600a601081106123f057fe5b6020020151610cda565b61242f84600060046008600c8860066010811061241357fe5b602002015189600f6010811061242557fe5b6020020151610cda565b61246484600160056009600d88600e6010811061244857fe5b60200201518960096010811061245a57fe5b6020020151610cda565b6124998460026006600a600e88600b6010811061247d57fe5b60200201518960036010811061248f57fe5b6020020151610cda565b6124ce8460036007600b600f886000601081106124b257fe5b6020020151896008601081106124c457fe5b6020020151610cda565b6125038460006005600a600f88600c601081106124e757fe5b6020020151896002601081106124f957fe5b6020020151610cda565b6125388460016006600b600c88600d6010811061251c57fe5b60200201518960076010811061252e57fe5b6020020151610cda565b61256d84600260076008600d8860016010811061255157fe5b60200201518960046010811061256357fe5b6020020151610cda565b6125a284600360046009600e88600a6010811061258657fe5b60200201518960056010811061259857fe5b6020020151610cda565b6125d784600060046008600c88600a601081106125bb57fe5b6020020151896002601081106125cd57fe5b6020020151610cda565b61260c84600160056009600d886008601081106125f057fe5b60200201518960046010811061260257fe5b6020020151610cda565b6126418460026006600a600e8860076010811061262557fe5b60200201518960066010811061263757fe5b6020020151610cda565b6126768460036007600b600f8860016010811061265a57fe5b60200201518960056010811061266c57fe5b6020020151610cda565b6126ab8460006005600a600f88600f6010811061268f57fe5b602002015189600b601081106126a157fe5b6020020151610cda565b6126e08460016006600b600c886009601081106126c457fe5b602002015189600e601081106126d657fe5b6020020151610cda565b61271584600260076008600d886003601081106126f957fe5b602002015189600c6010811061270b57fe5b6020020151610cda565b61274a84600360046009600e88600d6010811061272e57fe5b60200201518960006010811061274057fe5b6020020151610cda565b61277f84600060046008600c8860006010811061276357fe5b60200201518960016010811061277557fe5b6020020151610cda565b6127b484600160056009600d8860026010811061279857fe5b6020020151896003601081106127aa57fe5b6020020151610cda565b6127e98460026006600a600e886004601081106127cd57fe5b6020020151896005601081106127df57fe5b6020020151610cda565b61281e8460036007600b600f8860066010811061280257fe5b60200201518960076010811061281457fe5b6020020151610cda565b6128538460006005600a600f8860086010811061283757fe5b60200201518960096010811061284957fe5b6020020151610cda565b6128888460016006600b600c88600a6010811061286c57fe5b602002015189600b6010811061287e57fe5b6020020151610cda565b6128bd84600260076008600d88600c601081106128a157fe5b602002015189600d601081106128b357fe5b6020020151610cda565b6128f284600360046009600e88600e601081106128d657fe5b602002015189600f601081106128e857fe5b6020020151610cda565b61292784600060046008600c88600e6010811061290b57fe5b602002015189600a6010811061291d57fe5b6020020151610cda565b61295c84600160056009600d8860046010811061294057fe5b60200201518960086010811061295257fe5b6020020151610cda565b6129918460026006600a600e8860096010811061297557fe5b602002015189600f6010811061298757fe5b6020020151610cda565b6129c68460036007600b600f88600d601081106129aa57fe5b6020020151896006601081106129bc57fe5b6020020151610cda565b6129fb8460006005600a600f886001601081106129df57fe5b602002015189600c601081106129f157fe5b6020020151610cda565b612a308460016006600b600c88600060108110612a1457fe5b602002015189600260108110612a2657fe5b6020020151610cda565b612a6584600260076008600d88600b60108110612a4957fe5b602002015189600760108110612a5b57fe5b6020020151610cda565b612a9a84600360046009600e88600560108110612a7e57fe5b602002015189600360108110612a9057fe5b6020020151610cda565b60005b6008811015612b1c57846008820160108110612ab557fe5b6020020151858260108110612ac657fe5b602002015188602001518360088110612adb57fe5b6020020151181887602001518260088110612af257fe5b602002019067ffffffffffffffff16908167ffffffffffffffff1681525050806001019050612a9d565b50505050505050565b604051806101000160405280600890602082028036833780820191505090505090565b6040518060a00160405280612b5b612be3565b8152602001612b68612b25565b815260200160006fffffffffffffffffffffffffffffffff168152602001600067ffffffffffffffff168152602001600081525090565b6040518060400160405280600290602082028036833780820191505090505090565b6040518060400160405280600290602082028036833780820191505090505090565b6040518060800160405280600490602082028036833780820191505090505090565b60405180610200016040528060109060208202803683378082019150509050509056fe4f75746c656e206d7573742062652067726561746572207468616e203020616e64206c657373207468616e203634a26469706673582212209d0985218629151bb5b001384a4a941e09b4de0d071e621983672b6212668e9164736f6c634300060c0033",
  "immutableReferences": {},
  "source": "// SPDX-License-Identifier: MIT\n// Bridge between ethereum and verus\n\npragma solidity >=0.6.0 <0.7.0;\nimport \"./BLAKE2B/BLAKE2b.sol\";\npragma experimental ABIEncoderV2;\n\ncontract MMRProof{\n\n    uint256 mmrRoot;\n    BLAKE2b blake2b;\n    bytes verusKey = \"VerusDefaultHash\";\n    event JoinEvent(bytes joinedValue,uint8 eventType);\n    event HashEvent(bytes32 newHash,uint8 eventType);\n\n    constructor() public{\n        blake2b = new BLAKE2b();\n    }\n\n    function predictedRootHash(bytes32 _hashToCheck,uint _hashIndex,bytes32[] memory _branch) public returns(bytes32){\n        \n        require(_hashIndex >= 0,\"Index cannot be less than 0\");\n        require(_branch.length > 0,\"Branch must be longer than 0\");\n        uint branchLength = _branch.length;\n        bytes32 hashInProgress;\n        uint64[8] memory blakeResult;\n        bytes memory joined;\n        verusKey = \"\";\n        hashInProgress = bytesToBytes32(abi.encodePacked(_hashToCheck));\n\n       for(uint i = 0;i < branchLength; i++){\n            if(_hashIndex & 1 > 0){\n                require(_branch[i] != _hashToCheck,\"Value can be equal to node but never on the right\");\n                //join the two arrays and pass to blake2b\n                joined = abi.encodePacked(_branch[i],hashInProgress);\n                emit JoinEvent(joined,1);\n            } else {\n                joined = abi.encodePacked(hashInProgress,_branch[i]);\n                emit JoinEvent(joined,2);\n            }\n            blakeResult = blake2b.blake2b(joined,verusKey,32);\n            hashInProgress = bytesToBytes32(abi.encodePacked(blakeResult[0],blakeResult[1],blakeResult[2],blakeResult[3],\n                blakeResult[4],blakeResult[5],blakeResult[6],blakeResult[7]));\n            emit HashEvent(hashInProgress,3);\n            _hashIndex >>= 1;\n        }\n\n        return hashInProgress;\n\n    }\n\n    function checkHashInRoot(bytes32 _mmrRoot,bytes32 _hashToCheck,uint _hashIndex,bytes32[] memory _branch) public returns(bool){\n        bytes32 calculatedHash = predictedRootHash(_hashToCheck,_hashIndex,_branch);\n        if(_mmrRoot == calculatedHash) return true;\n        else return false;\n    }\n\n    function bytesToBytes32(bytes memory source) public pure returns (bytes32 result) {\n        bytes memory tempEmptyStringTest = bytes(source);\n        if (tempEmptyStringTest.length == 0) {\n            return 0x0;\n        }\n\n        assembly {\n            result := mload(add(source, 32))\n        }\n    }\n\n    function createHash(bytes memory testString,bytes memory key) public returns(bytes32){\n        uint64[8] memory blakeResult;\n        bytes memory testInput = abi.encodePacked(testString);\n        \n        blakeResult = blake2b.blake2b(testInput,key,32);\n        bytes memory hashInProgress = abi.encodePacked(blakeResult[0],blakeResult[1],blakeResult[2],blakeResult[3],\n                blakeResult[4],blakeResult[5],blakeResult[6],blakeResult[7]);\n        return bytesToBytes32(hashInProgress);\n    }\n\n    function create64Hash(bytes memory testString,bytes memory key) public returns(bytes memory){\n        uint64[8] memory blakeResult;\n        bytes memory testInput = abi.encodePacked(testString);\n        \n        blakeResult = blake2b.blake2b(testInput,key,64);\n        bytes memory hashInProgress = abi.encodePacked(blakeResult[0],blakeResult[1],blakeResult[2],blakeResult[3],\n                blakeResult[4],blakeResult[5],blakeResult[6],blakeResult[7]);\n        return hashInProgress;\n    }\n\n    /*\n    function testMMR(string memory testString) public returns(bytes32){\n        uint64[8] memory blakeResult;\n        bytes memory testInput = bytes(testString);\n        verusKey = \"\";\n        blakeResult = blake2b.blake2b(testInput,verusKey,32);\n        bytes memory hashInProgress = abi.encodePacked(blakeResult[0],blakeResult[1],blakeResult[2],blakeResult[3],\n                blakeResult[4],blakeResult[5],blakeResult[6],blakeResult[7]);\n        return bytesToBytes32(hashInProgress);\n    }\n\n    function testMMRBytes(bytes memory testInput) public returns(bytes32){\n        uint64[8] memory blakeResult;\n        verusKey = \"\";\n        blakeResult = blake2b.blake2b(testInput,verusKey,32);\n        bytes memory hashInProgress = abi.encodePacked(blakeResult[0],blakeResult[1],blakeResult[2],blakeResult[3],\n                blakeResult[4],blakeResult[5],blakeResult[6],blakeResult[7]);\n        return bytesToBytes32(hashInProgress);\n    }\n\n\n\n    */\n}\n",
  "sourcePath": "/Volumes/UsersSSD/james/Development/komodo-notarisation-solidity/contracts/MMR/MMRProof.sol",
  "compiler": {
    "name": "solc",
    "version": "0.6.12+commit.27d51765.Emscripten.clang"
  },
  "schemaVersion": "3.2.0",
  "updatedAt": "2020-10-02T13:48:17.434Z",
  "devdoc": {
    "kind": "dev",
    "methods": {},
    "version": 1
  },
  "userdoc": {
    "kind": "user",
    "methods": {},
    "version": 1
  }
}