{
  "contractName": "TokenManager",
  "abi": [
    {
      "inputs": [],
      "stateMutability": "nonpayable",
      "type": "constructor"
    },
    {
      "anonymous": false,
      "inputs": [
        {
          "indexed": false,
          "internalType": "address",
          "name": "tokenAddress",
          "type": "address"
        }
      ],
      "name": "TokenCreated",
      "type": "event"
    },
    {
      "inputs": [
        {
          "internalType": "address",
          "name": "",
          "type": "address"
        }
      ],
      "name": "destinationToAddress",
      "outputs": [
        {
          "internalType": "address",
          "name": "",
          "type": "address"
        }
      ],
      "stateMutability": "view",
      "type": "function"
    },
    {
      "inputs": [
        {
          "internalType": "address",
          "name": "",
          "type": "address"
        }
      ],
      "name": "vERC20Tokens",
      "outputs": [
        {
          "internalType": "address",
          "name": "destinationCurrencyID",
          "type": "address"
        },
        {
          "internalType": "bool",
          "name": "VerusOwned",
          "type": "bool"
        },
        {
          "internalType": "bool",
          "name": "isRegistered",
          "type": "bool"
        }
      ],
      "stateMutability": "view",
      "type": "function"
    },
    {
      "inputs": [
        {
          "internalType": "address",
          "name": "_verusBridgeContract",
          "type": "address"
        }
      ],
      "name": "setVerusBridgeContract",
      "outputs": [],
      "stateMutability": "nonpayable",
      "type": "function"
    },
    {
      "inputs": [
        {
          "internalType": "address",
          "name": "_contractAddress",
          "type": "address"
        },
        {
          "internalType": "uint256",
          "name": "_tokenAmount",
          "type": "uint256"
        }
      ],
      "name": "exportERC20Tokens",
      "outputs": [],
      "stateMutability": "nonpayable",
      "type": "function"
    },
    {
      "inputs": [
        {
          "internalType": "address",
          "name": "_destCurrencyID",
          "type": "address"
        },
        {
          "internalType": "uint256",
          "name": "_tokenAmount",
          "type": "uint256"
        },
        {
          "internalType": "address",
          "name": "_destination",
          "type": "address"
        }
      ],
      "name": "importERC20Tokens",
      "outputs": [],
      "stateMutability": "nonpayable",
      "type": "function"
    },
    {
      "inputs": [
        {
          "internalType": "address",
          "name": "_contractAddress",
          "type": "address"
        },
        {
          "internalType": "address",
          "name": "_account",
          "type": "address"
        }
      ],
      "name": "balanceOf",
      "outputs": [
        {
          "internalType": "uint256",
          "name": "",
          "type": "uint256"
        }
      ],
      "stateMutability": "view",
      "type": "function"
    },
    {
      "inputs": [
        {
          "internalType": "address",
          "name": "_contractAddress",
          "type": "address"
        },
        {
          "internalType": "address",
          "name": "_owner",
          "type": "address"
        },
        {
          "internalType": "address",
          "name": "_spender",
          "type": "address"
        }
      ],
      "name": "allowance",
      "outputs": [
        {
          "internalType": "uint256",
          "name": "",
          "type": "uint256"
        }
      ],
      "stateMutability": "view",
      "type": "function"
    },
    {
      "inputs": [
        {
          "internalType": "address",
          "name": "_contractAddress",
          "type": "address"
        }
      ],
      "name": "addExistingToken",
      "outputs": [
        {
          "internalType": "address",
          "name": "",
          "type": "address"
        }
      ],
      "stateMutability": "nonpayable",
      "type": "function"
    },
    {
      "inputs": [
        {
          "internalType": "address",
          "name": "_destinationCurrencyID",
          "type": "address"
        },
        {
          "internalType": "string",
          "name": "_tokenName",
          "type": "string"
        },
        {
          "internalType": "string",
          "name": "_symbol",
          "type": "string"
        }
      ],
      "name": "deployNewToken",
      "outputs": [
        {
          "internalType": "address",
          "name": "",
          "type": "address"
        }
      ],
      "stateMutability": "nonpayable",
      "type": "function"
    },
    {
      "inputs": [
        {
          "internalType": "address",
          "name": "_destinationCurrencyID",
          "type": "address"
        }
      ],
      "name": "deployNewToken",
      "outputs": [
        {
          "internalType": "address",
          "name": "",
          "type": "address"
        }
      ],
      "stateMutability": "nonpayable",
      "type": "function"
    },
    {
      "inputs": [
        {
          "internalType": "string",
          "name": "_tokenName",
          "type": "string"
        }
      ],
      "name": "generateDestinationCurrencyID",
      "outputs": [
        {
          "internalType": "address",
          "name": "",
          "type": "address"
        }
      ],
      "stateMutability": "view",
      "type": "function"
    },
    {
      "inputs": [
        {
          "internalType": "address",
          "name": "_contractAddress",
          "type": "address"
        }
      ],
      "name": "isToken",
      "outputs": [
        {
          "internalType": "bool",
          "name": "",
          "type": "bool"
        }
      ],
      "stateMutability": "view",
      "type": "function"
    },
    {
      "inputs": [
        {
          "internalType": "address",
          "name": "_contractAddress",
          "type": "address"
        }
      ],
      "name": "isVerusOwned",
      "outputs": [
        {
          "internalType": "bool",
          "name": "",
          "type": "bool"
        }
      ],
      "stateMutability": "view",
      "type": "function"
    }
  ],
  "bytecode": "0x608060405234801561001057600080fd5b506000600260006101000a81548173ffffffffffffffffffffffffffffffffffffffff021916908373ffffffffffffffffffffffffffffffffffffffff16021790555061460b806100626000396000f3fe60806040523480156200001157600080fd5b5060043610620000e25760003560e01c8063935634411162000099578063d2a5bdb1116200006f578063d2a5bdb114620002b9578063f7888aec14620002d9578063fe40694d146200030f578063ff409190146200034557620000e2565b8063935634411462000217578063c2ab4c60146200024d578063cad67478146200028357620000e2565b806319f3736114620000e75780632fb5b2f5146200011d578063560613151462000155578063826737fc146200018b5780639033ef3f14620001c1578063927da10514620001e1575b600080fd5b620001056004803603810190620000ff919062001e19565b62000365565b60405162000114919062002704565b60405180910390f35b6200013b600480360381019062000135919062001e19565b620003be565b6040516200014c939291906200269a565b60405180910390f35b6200017360048036038101906200016d919062001e19565b62000422565b604051620001829190620025e6565b60405180910390f35b620001a96004803603810190620001a3919062001e19565b62000693565b604051620001b89190620025e6565b60405180910390f35b620001df6004803603810190620001d9919062001f90565b620006c6565b005b620001ff6004803603810190620001f9919062001eb2565b62000ac1565b6040516200020e91906200286e565b60405180910390f35b6200023560048036038101906200022f91906200207f565b62000b62565b604051620002449190620025e6565b60405180910390f35b6200026b600480360381019062000265919062001f08565b62000f33565b6040516200027a9190620025e6565b60405180910390f35b620002a160048036038101906200029b919062001e19565b620011fa565b604051620002b0919062002704565b60405180910390f35b620002d76004803603810190620002d1919062001fd1565b62001253565b005b620002f76004803603810190620002f1919062001e71565b620014c0565b6040516200030691906200286e565b60405180910390f35b6200032d600480360381019062000327919062001e19565b6200155e565b6040516200033c9190620025e6565b60405180910390f35b6200036360048036038101906200035d919062001e19565b62001884565b005b6000600160008373ffffffffffffffffffffffffffffffffffffffff1673ffffffffffffffffffffffffffffffffffffffff16815260200190815260200160002060000160159054906101000a900460ff169050919050565b60016020528060005260406000206000915090508060000160009054906101000a900473ffffffffffffffffffffffffffffffffffffffff16908060000160149054906101000a900460ff16908060000160159054906101000a900460ff16905083565b60006200042f8262000365565b1562000472576040517f08c379a00000000000000000000000000000000000000000000000000000000081526004016200046990620027c4565b60405180910390fd5b600082905060006200050a8273ffffffffffffffffffffffffffffffffffffffff166306fdde036040518163ffffffff1660e01b815260040160006040518083038186803b158015620004c457600080fd5b505afa158015620004d9573d6000803e3d6000fd5b505050506040513d6000823e3d601f19601f82011682018060405250810190620005049190620020c4565b62000b62565b905060405180606001604052808273ffffffffffffffffffffffffffffffffffffffff16815260200160001515815260200160011515815250600160008673ffffffffffffffffffffffffffffffffffffffff1673ffffffffffffffffffffffffffffffffffffffff16815260200190815260200160002060008201518160000160006101000a81548173ffffffffffffffffffffffffffffffffffffffff021916908373ffffffffffffffffffffffffffffffffffffffff16021790555060208201518160000160146101000a81548160ff02191690831515021790555060408201518160000160156101000a81548160ff021916908315150217905550905050836000808373ffffffffffffffffffffffffffffffffffffffff1673ffffffffffffffffffffffffffffffffffffffff16815260200190815260200160002060006101000a81548173ffffffffffffffffffffffffffffffffffffffff021916908373ffffffffffffffffffffffffffffffffffffffff1602179055508092505050919050565b60006020528060005260406000206000915054906101000a900473ffffffffffffffffffffffffffffffffffffffff1681565b620006d06200195c565b62000712576040517f08c379a000000000000000000000000000000000000000000000000000000000815260040162000709906200284c565b60405180910390fd5b6200071d8262000365565b6200075f576040517f08c379a0000000000000000000000000000000000000000000000000000000008152600401620007569062002780565b60405180910390fd5b60008290506200076e62001c62565b60008273ffffffffffffffffffffffffffffffffffffffff1663dd62ed3e33306040518363ffffffff1660e01b8152600401620007ad92919062002603565b60206040518083038186803b158015620007c657600080fd5b505afa158015620007db573d6000803e3d6000fd5b505050506040513d601f19601f8201168201806040525081019062000801919062002109565b90508381101562000849576040517f08c379a000000000000000000000000000000000000000000000000000000000815260040162000840906200282a565b60405180910390fd5b8273ffffffffffffffffffffffffffffffffffffffff166323b872dd3330876040518463ffffffff1660e01b8152600401620008889392919062002630565b602060405180830381600087803b158015620008a357600080fd5b505af1158015620008b8573d6000803e3d6000fd5b505050506040513d601f19601f82011682018060405250810190620008de919062002027565b50620008ea8562000365565b620009c857600160008673ffffffffffffffffffffffffffffffffffffffff1673ffffffffffffffffffffffffffffffffffffffff1681526020019081526020016000206040518060600160405290816000820160009054906101000a900473ffffffffffffffffffffffffffffffffffffffff1673ffffffffffffffffffffffffffffffffffffffff1673ffffffffffffffffffffffffffffffffffffffff1681526020016000820160149054906101000a900460ff161515151581526020016000820160159054906101000a900460ff16151515158152505091505b81602001511562000ab957838373ffffffffffffffffffffffffffffffffffffffff166370a08231306040518263ffffffff1660e01b815260040162000a0f9190620025e6565b60206040518083038186803b15801562000a2857600080fd5b505afa15801562000a3d573d6000803e3d6000fd5b505050506040513d601f19601f8201168201806040525081019062000a63919062002109565b101562000aa7576040517f08c379a000000000000000000000000000000000000000000000000000000000815260040162000a9e90620027e6565b60405180910390fd5b62000ab3858562001a16565b62000aba565b5b5050505050565b6000808490508073ffffffffffffffffffffffffffffffffffffffff1663dd62ed3e85856040518363ffffffff1660e01b815260040162000b049291906200266d565b60206040518083038186803b15801562000b1d57600080fd5b505afa15801562000b32573d6000803e3d6000fd5b505050506040513d601f19601f8201168201806040525081019062000b58919062002109565b9150509392505050565b60008073__VerusAddressCalculator________________63cfb51928846040518263ffffffff1660e01b815260040162000b9e919062002721565b60206040518083038186803b15801562000bb757600080fd5b505af415801562000bcc573d6000803e3d6000fd5b505050506040513d601f19601f8201168201806040525081019062000bf2919062002053565b60405160200162000c0491906200254e565b604051602081830303815290604052905060008060009050606060006009905060608073__VerusAddressCalculator________________6315706fdf887f2e65726332302e6574682e00000000000000000000000000000000000000000060405160200162000c7692919062002584565b6040516020818303038152906040526040518263ffffffff1660e01b815260040162000ca3919062002721565b60206040518083038186803b15801562000cbc57600080fd5b505af415801562000cd1573d6000803e3d6000fd5b505050506040513d601f19601f8201168201806040525081019062000cf7919062001e45565b95505b62000d058662000365565b1562000f2457848060010195505062000d1e8562001a8f565b93508660405160200162000d3391906200256b565b60405160208183030381529060405291508360405160200162000d579190620025b0565b6040516020818303038152906040529050600083101562000daf576040517f08c379a000000000000000000000000000000000000000000000000000000000815260040162000da690620027a2565b60405180910390fd5b6000600190505b8151811162000e275781818351038151811062000dcf57fe5b602001015160f81c60f81b83828551038151811062000dea57fe5b60200101907effffffffffffffffffffffffffffffffffffffffffffffffffffffffffffff1916908160001a905350808060010191505062000db6565b508160405160200162000e3b91906200256b565b604051602081830303815290604052965073__VerusAddressCalculator________________6315706fdf887f2e65726332302e6574682e00000000000000000000000000000000000000000060405160200162000e9b92919062002584565b6040516020818303038152906040526040518263ffffffff1660e01b815260040162000ec8919062002721565b60206040518083038186803b15801562000ee157600080fd5b505af415801562000ef6573d6000803e3d6000fd5b505050506040513d601f19601f8201168201806040525081019062000f1c919062001e45565b955062000cfa565b85975050505050505050919050565b600062000f3f6200195c565b62000f81576040517f08c379a000000000000000000000000000000000000000000000000000000000815260040162000f78906200284c565b60405180910390fd5b62000f8c8462000365565b1562000ff9576000808573ffffffffffffffffffffffffffffffffffffffff1673ffffffffffffffffffffffffffffffffffffffff16815260200190815260200160002060009054906101000a900473ffffffffffffffffffffffffffffffffffffffff169050620011f3565b600083836040516200100b9062001c9d565b6200101892919062002745565b604051809103906000f08015801562001035573d6000803e3d6000fd5b50905060405180606001604052808673ffffffffffffffffffffffffffffffffffffffff16815260200160011515815260200160011515815250600160008373ffffffffffffffffffffffffffffffffffffffff1673ffffffffffffffffffffffffffffffffffffffff16815260200190815260200160002060008201518160000160006101000a81548173ffffffffffffffffffffffffffffffffffffffff021916908373ffffffffffffffffffffffffffffffffffffffff16021790555060208201518160000160146101000a81548160ff02191690831515021790555060408201518160000160156101000a81548160ff021916908315150217905550905050806000808773ffffffffffffffffffffffffffffffffffffffff1673ffffffffffffffffffffffffffffffffffffffff16815260200190815260200160002060006101000a81548173ffffffffffffffffffffffffffffffffffffffff021916908373ffffffffffffffffffffffffffffffffffffffff1602179055507f2e2b3f61b70d2d131b2a807371103cc98d51adcaa5e9a8f9c32658ad8426e74e81604051620011e69190620025e6565b60405180910390a1809150505b9392505050565b6000600160008373ffffffffffffffffffffffffffffffffffffffff1673ffffffffffffffffffffffffffffffffffffffff16815260200190815260200160002060000160149054906101000a900460ff169050919050565b6200125d6200195c565b6200129f576040517f08c379a000000000000000000000000000000000000000000000000000000000815260040162001296906200284c565b60405180910390fd5b6000620012ac8462000365565b620012c457620012bc846200155e565b905062001326565b6000808573ffffffffffffffffffffffffffffffffffffffff1673ffffffffffffffffffffffffffffffffffffffff16815260200190815260200160002060009054906101000a900473ffffffffffffffffffffffffffffffffffffffff1690505b6000600160008373ffffffffffffffffffffffffffffffffffffffff1673ffffffffffffffffffffffffffffffffffffffff1681526020019081526020016000206040518060600160405290816000820160009054906101000a900473ffffffffffffffffffffffffffffffffffffffff1673ffffffffffffffffffffffffffffffffffffffff1673ffffffffffffffffffffffffffffffffffffffff1681526020016000820160149054906101000a900460ff161515151581526020016000820160159054906101000a900460ff16151515158152505090508060200151156200141e576200141882858562001be6565b620014b9565b60008290508073ffffffffffffffffffffffffffffffffffffffff1663a9059cbb85876040518363ffffffff1660e01b815260040162001460929190620026d7565b602060405180830381600087803b1580156200147b57600080fd5b505af115801562001490573d6000803e3d6000fd5b505050506040513d601f19601f82011682018060405250810190620014b6919062002027565b50505b5050505050565b6000808390508073ffffffffffffffffffffffffffffffffffffffff166370a08231846040518263ffffffff1660e01b8152600401620015019190620025e6565b60206040518083038186803b1580156200151a57600080fd5b505afa1580156200152f573d6000803e3d6000fd5b505050506040513d601f19601f8201168201806040525081019062001555919062002109565b91505092915050565b60006200156a6200195c565b620015ac576040517f08c379a0000000000000000000000000000000000000000000000000000000008152600401620015a3906200284c565b60405180910390fd5b606073__VerusAddressCalculator________________635e57966d846040518263ffffffff1660e01b8152600401620015e79190620025c9565b60006040518083038186803b1580156200160057600080fd5b505af415801562001615573d6000803e3d6000fd5b505050506040513d6000823e3d601f19601f82011682018060405250810190620016409190620020c4565b9050600073__VerusAddressCalculator________________63cfb51928836040518263ffffffff1660e01b81526004016200167d919062002721565b60206040518083038186803b1580156200169657600080fd5b505af4158015620016ab573d6000803e3d6000fd5b505050506040513d601f19601f82011682018060405250810190620016d1919062002053565b604051602001620016e3919062002531565b60405160208183030381529060405290506000600467ffffffffffffffff811180156200170f57600080fd5b506040519080825280601f01601f191660200182016040528015620017435781602001600182028036833780820191505090505b50905060005b60048110156200186c5760618382815181106200176257fe5b602001015160f81c60f81b60f81c60ff1610158015620017a05750607a8382815181106200178c57fe5b602001015160f81c60f81b60f81c60ff1611155b1562001809576020838281518110620017b557fe5b602001015160f81c60f81b60f81c0360f81b828281518110620017d457fe5b60200101907effffffffffffffffffffffffffffffffffffffffffffffffffffffffffffff1916908160001a9053506200185e565b8281815181106200181657fe5b602001015160f81c60f81b8282815181106200182e57fe5b60200101907effffffffffffffffffffffffffffffffffffffffffffffffffffffffffffff1916908160001a9053505b808060010191505062001749565b506200187a85848362000f33565b9350505050919050565b600073ffffffffffffffffffffffffffffffffffffffff16600260009054906101000a900473ffffffffffffffffffffffffffffffffffffffff1673ffffffffffffffffffffffffffffffffffffffff161462001918576040517f08c379a00000000000000000000000000000000000000000000000000000000081526004016200190f9062002808565b60405180910390fd5b80600260006101000a81548173ffffffffffffffffffffffffffffffffffffffff021916908373ffffffffffffffffffffffffffffffffffffffff16021790555050565b60008073ffffffffffffffffffffffffffffffffffffffff16600260009054906101000a900473ffffffffffffffffffffffffffffffffffffffff1673ffffffffffffffffffffffffffffffffffffffff161415620019bf576001905062001a13565b600260009054906101000a900473ffffffffffffffffffffffffffffffffffffffff1673ffffffffffffffffffffffffffffffffffffffff163373ffffffffffffffffffffffffffffffffffffffff161490505b90565b60008290508073ffffffffffffffffffffffffffffffffffffffff166342966c68836040518263ffffffff1660e01b815260040162001a5691906200286e565b600060405180830381600087803b15801562001a7157600080fd5b505af115801562001a86573d6000803e3d6000fd5b50505050505050565b60606000829050600081141562001adf576040518060400160405280600181526020017f300000000000000000000000000000000000000000000000000000000000000081525091505062001be1565b600081905060005b6000821462001b0c578080600101915050600a828162001b0357fe5b04915062001ae7565b60008167ffffffffffffffff8111801562001b2657600080fd5b506040519080825280601f01601f19166020018201604052801562001b5a5781602001600182028036833780820191505090505b50905060006001830390505b6000851462001bd857600a858162001b7a57fe5b0660300160f81b8282806001900393508151811062001b9557fe5b60200101907effffffffffffffffffffffffffffffffffffffffffffffffffffffffffffff1916908160001a905350600a858162001bcf57fe5b04945062001b66565b81955050505050505b919050565b60008390508073ffffffffffffffffffffffffffffffffffffffff166340c10f1983856040518363ffffffff1660e01b815260040162001c28929190620026d7565b600060405180830381600087803b15801562001c4357600080fd5b505af115801562001c58573d6000803e3d6000fd5b5050505050505050565b6040518060600160405280600073ffffffffffffffffffffffffffffffffffffffff1681526020016000151581526020016000151581525090565b611aa38062002b3383390190565b600062001cc262001cbc84620028bf565b6200288b565b90508281526020810184848401111562001cdb57600080fd5b62001ce884828562002a54565b509392505050565b600062001d0762001d0184620028bf565b6200288b565b90508281526020810184848401111562001d2057600080fd5b62001d2d84828562002a63565b509392505050565b60008135905062001d468162002aca565b92915050565b60008151905062001d5d8162002aca565b92915050565b60008151905062001d748162002ae4565b92915050565b60008151905062001d8b8162002afe565b92915050565b600082601f83011262001da357600080fd5b813562001db584826020860162001cab565b91505092915050565b600082601f83011262001dd057600080fd5b815162001de284826020860162001cf0565b91505092915050565b60008135905062001dfc8162002b18565b92915050565b60008151905062001e138162002b18565b92915050565b60006020828403121562001e2c57600080fd5b600062001e3c8482850162001d35565b91505092915050565b60006020828403121562001e5857600080fd5b600062001e688482850162001d4c565b91505092915050565b6000806040838503121562001e8557600080fd5b600062001e958582860162001d35565b925050602062001ea88582860162001d35565b9150509250929050565b60008060006060848603121562001ec857600080fd5b600062001ed88682870162001d35565b935050602062001eeb8682870162001d35565b925050604062001efe8682870162001d35565b9150509250925092565b60008060006060848603121562001f1e57600080fd5b600062001f2e8682870162001d35565b935050602084013567ffffffffffffffff81111562001f4c57600080fd5b62001f5a8682870162001d91565b925050604084013567ffffffffffffffff81111562001f7857600080fd5b62001f868682870162001d91565b9150509250925092565b6000806040838503121562001fa457600080fd5b600062001fb48582860162001d35565b925050602062001fc78582860162001deb565b9150509250929050565b60008060006060848603121562001fe757600080fd5b600062001ff78682870162001d35565b93505060206200200a8682870162001deb565b92505060406200201d8682870162001d35565b9150509250925092565b6000602082840312156200203a57600080fd5b60006200204a8482850162001d63565b91505092915050565b6000602082840312156200206657600080fd5b6000620020768482850162001d7a565b91505092915050565b6000602082840312156200209257600080fd5b600082013567ffffffffffffffff811115620020ad57600080fd5b620020bb8482850162001d91565b91505092915050565b600060208284031215620020d757600080fd5b600082015167ffffffffffffffff811115620020f257600080fd5b620021008482850162001dbe565b91505092915050565b6000602082840312156200211c57600080fd5b60006200212c8482850162001e02565b91505092915050565b620021408162002a18565b82525050565b620021518162002940565b82525050565b620021628162002940565b82525050565b620021738162002954565b82525050565b6200218e620021888262002960565b62002a99565b82525050565b620021a9620021a38262002996565b62002aa3565b82525050565b620021c4620021be82620029c2565b62002aad565b82525050565b6000620021d782620028f2565b620021e3818562002908565b9350620021f581856020860162002a63565b80840191505092915050565b60006200220e82620028fd565b6200221a818562002913565b93506200222c81856020860162002a63565b620022378162002ab9565b840191505092915050565b60006200224f82620028fd565b6200225b818562002924565b93506200226d81856020860162002a63565b620022788162002ab9565b840191505092915050565b60006200229082620028fd565b6200229c818562002935565b9350620022ae81856020860162002a63565b80840191505092915050565b6000620022c960218362002913565b91507f546f6b656e20686173206e6f74206265656e207265676973746572656420796560008301527f74000000000000000000000000000000000000000000000000000000000000006020830152604082019050919050565b60006200233160208362002913565b91507f746f6b656e4e616d65207065726d75746174696f6e732065786365656465642e6000830152602082019050919050565b600062002373601b8362002913565b91507f546f6b656e20697320616c7265616479207265676973746572656400000000006000830152602082019050919050565b6000620023b560158362002913565b91507f546f6b656e73206469646e74207472616e7366657200000000000000000000006000830152602082019050919050565b6000620023f760318362002913565b91507f7665727573427269646765436f6e74726163742041646472657373206861732060008301527f616c7265616479206265656e207365742e0000000000000000000000000000006020830152604082019050919050565b60006200245f60248362002913565b91507f4e6f7420656e6f75676820746f6b656e732068617665206265656e206170707260008301527f6f766564000000000000000000000000000000000000000000000000000000006020830152604082019050919050565b6000620024c760308362002913565b91507f43616c6c2063616e206f6e6c79206265206d6164652066726f6d20566572757360008301527f2042726964676520436f6e7472616374000000000000000000000000000000006020830152604082019050919050565b6200252b8162002a0e565b82525050565b60006200253f828462002194565b60048201915081905092915050565b60006200255c8284620021af565b60098201915081905092915050565b6000620025798284620021ca565b915081905092915050565b6000620025928285620021ca565b9150620025a0828462002179565b600b820191508190509392505050565b6000620025be828462002283565b915081905092915050565b6000602082019050620025e0600083018462002157565b92915050565b6000602082019050620025fd600083018462002146565b92915050565b60006040820190506200261a600083018562002135565b62002629602083018462002146565b9392505050565b600060608201905062002647600083018662002135565b62002656602083018562002146565b62002665604083018462002520565b949350505050565b600060408201905062002684600083018562002146565b62002693602083018462002146565b9392505050565b6000606082019050620026b1600083018662002146565b620026c0602083018562002168565b620026cf604083018462002168565b949350505050565b6000604082019050620026ee600083018562002146565b620026fd602083018462002520565b9392505050565b60006020820190506200271b600083018462002168565b92915050565b600060208201905081810360008301526200273d818462002242565b905092915050565b6000604082019050818103600083015262002761818562002201565b9050818103602083015262002777818462002201565b90509392505050565b600060208201905081810360008301526200279b81620022ba565b9050919050565b60006020820190508181036000830152620027bd8162002322565b9050919050565b60006020820190508181036000830152620027df8162002364565b9050919050565b600060208201905081810360008301526200280181620023a6565b9050919050565b600060208201905081810360008301526200282381620023e8565b9050919050565b60006020820190508181036000830152620028458162002450565b9050919050565b600060208201905081810360008301526200286781620024b8565b9050919050565b600060208201905062002885600083018462002520565b92915050565b6000604051905081810181811067ffffffffffffffff82111715620028b557620028b462002ab7565b5b8060405250919050565b600067ffffffffffffffff821115620028dd57620028dc62002ab7565b5b601f19601f8301169050602081019050919050565b600081519050919050565b600081519050919050565b600081905092915050565b600082825260208201905092915050565b600082825260208201905092915050565b600081905092915050565b60006200294d82620029ee565b9050919050565b60008115159050919050565b60007fffffffffffffffffffffff00000000000000000000000000000000000000000082169050919050565b6000819050919050565b60007fffffffff0000000000000000000000000000000000000000000000000000000082169050919050565b60007fffffffffffffffffff000000000000000000000000000000000000000000000082169050919050565b600073ffffffffffffffffffffffffffffffffffffffff82169050919050565b6000819050919050565b600062002a258262002a2c565b9050919050565b600062002a398262002a40565b9050919050565b600062002a4d82620029ee565b9050919050565b82818337600083830152505050565b60005b8381101562002a8357808201518184015260208101905062002a66565b8381111562002a93576000848401525b50505050565b6000819050919050565b6000819050919050565b6000819050919050565bfe5b6000601f19601f8301169050919050565b62002ad58162002940565b811462002ae157600080fd5b50565b62002aef8162002954565b811462002afb57600080fd5b50565b62002b09816200298c565b811462002b1557600080fd5b50565b62002b238162002a0e565b811462002b2f57600080fd5b5056fe60806040523480156200001157600080fd5b5060405162001aa338038062001aa3833981810160405260408110156200003757600080fd5b81019080805160405193929190846401000000008211156200005857600080fd5b838201915060208201858111156200006f57600080fd5b82518660018202830111640100000000821117156200008d57600080fd5b8083526020830192505050908051906020019080838360005b83811015620000c3578082015181840152602081019050620000a6565b50505050905090810190601f168015620000f15780820380516001836020036101000a031916815260200191505b50604052602001805160405193929190846401000000008211156200011557600080fd5b838201915060208201858111156200012c57600080fd5b82518660018202830111640100000000821117156200014a57600080fd5b8083526020830192505050908051906020019080838360005b838110156200018057808201518184015260208101905062000163565b50505050905090810190601f168015620001ae5780820380516001836020036101000a031916815260200191505b5060405250505081818160039080519060200190620001cf92919062000250565b508060049080519060200190620001e892919062000250565b506012600560006101000a81548160ff021916908360ff160217905550505033600560016101000a81548173ffffffffffffffffffffffffffffffffffffffff021916908373ffffffffffffffffffffffffffffffffffffffff160217905550505062000306565b828054600181600116156101000203166002900490600052602060002090601f016020900481019282620002885760008555620002d4565b82601f10620002a357805160ff1916838001178555620002d4565b82800160010185558215620002d4579182015b82811115620002d3578251825591602001919060010190620002b6565b5b509050620002e39190620002e7565b5090565b5b8082111562000302576000816000905550600101620002e8565b5090565b61178d80620003166000396000f3fe608060405234801561001057600080fd5b50600436106100cf5760003560e01c806340c10f191161008c57806395d89b411161006657806395d89b41146103b6578063a457c2d714610439578063a9059cbb1461049d578063dd62ed3e14610501576100cf565b806340c10f19146102e257806342966c681461033057806370a082311461035e576100cf565b806306fdde03146100d4578063095ea7b31461015757806318160ddd146101bb57806323b872dd146101d9578063313ce5671461025d578063395093511461027e575b600080fd5b6100dc610579565b6040518080602001828103825283818151815260200191508051906020019080838360005b8381101561011c578082015181840152602081019050610101565b50505050905090810190601f1680156101495780820380516001836020036101000a031916815260200191505b509250505060405180910390f35b6101a36004803603604081101561016d57600080fd5b81019080803573ffffffffffffffffffffffffffffffffffffffff1690602001909291908035906020019092919050505061061b565b60405180821515815260200191505060405180910390f35b6101c3610639565b6040518082815260200191505060405180910390f35b610245600480360360608110156101ef57600080fd5b81019080803573ffffffffffffffffffffffffffffffffffffffff169060200190929190803573ffffffffffffffffffffffffffffffffffffffff16906020019092919080359060200190929190505050610643565b60405180821515815260200191505060405180910390f35b61026561071c565b604051808260ff16815260200191505060405180910390f35b6102ca6004803603604081101561029457600080fd5b81019080803573ffffffffffffffffffffffffffffffffffffffff16906020019092919080359060200190929190505050610733565b60405180821515815260200191505060405180910390f35b61032e600480360360408110156102f857600080fd5b81019080803573ffffffffffffffffffffffffffffffffffffffff169060200190929190803590602001909291905050506107e6565b005b61035c6004803603602081101561034657600080fd5b810190808035906020019092919050505061089a565b005b6103a06004803603602081101561037457600080fd5b81019080803573ffffffffffffffffffffffffffffffffffffffff169060200190929190505050610954565b6040518082815260200191505060405180910390f35b6103be61099c565b6040518080602001828103825283818151815260200191508051906020019080838360005b838110156103fe5780820151818401526020810190506103e3565b50505050905090810190601f16801561042b5780820380516001836020036101000a031916815260200191505b509250505060405180910390f35b6104856004803603604081101561044f57600080fd5b81019080803573ffffffffffffffffffffffffffffffffffffffff16906020019092919080359060200190929190505050610a3e565b60405180821515815260200191505060405180910390f35b6104e9600480360360408110156104b357600080fd5b81019080803573ffffffffffffffffffffffffffffffffffffffff16906020019092919080359060200190929190505050610b0b565b60405180821515815260200191505060405180910390f35b6105636004803603604081101561051757600080fd5b81019080803573ffffffffffffffffffffffffffffffffffffffff169060200190929190803573ffffffffffffffffffffffffffffffffffffffff169060200190929190505050610b29565b6040518082815260200191505060405180910390f35b606060038054600181600116156101000203166002900480601f0160208091040260200160405190810160405280929190818152602001828054600181600116156101000203166002900480156106115780601f106105e657610100808354040283529160200191610611565b820191906000526020600020905b8154815290600101906020018083116105f457829003601f168201915b5050505050905090565b600061062f610628610bb0565b8484610bb8565b6001905092915050565b6000600254905090565b6000610650848484610daf565b6107118461065c610bb0565b61070c856040518060600160405280602881526020016116a160289139600160008b73ffffffffffffffffffffffffffffffffffffffff1673ffffffffffffffffffffffffffffffffffffffff16815260200190815260200160002060006106c2610bb0565b73ffffffffffffffffffffffffffffffffffffffff1673ffffffffffffffffffffffffffffffffffffffff168152602001908152602001600020546110709092919063ffffffff16565b610bb8565b600190509392505050565b6000600560009054906101000a900460ff16905090565b60006107dc610740610bb0565b846107d78560016000610751610bb0565b73ffffffffffffffffffffffffffffffffffffffff1673ffffffffffffffffffffffffffffffffffffffff16815260200190815260200160002060008973ffffffffffffffffffffffffffffffffffffffff1673ffffffffffffffffffffffffffffffffffffffff1681526020019081526020016000205461112a90919063ffffffff16565b610bb8565b6001905092915050565b600560019054906101000a900473ffffffffffffffffffffffffffffffffffffffff1673ffffffffffffffffffffffffffffffffffffffff163373ffffffffffffffffffffffffffffffffffffffff161461088c576040517f08c379a00000000000000000000000000000000000000000000000000000000081526004018080602001828103825260278152602001806116536027913960400191505060405180910390fd5b61089682826111b2565b5050565b600560019054906101000a900473ffffffffffffffffffffffffffffffffffffffff1673ffffffffffffffffffffffffffffffffffffffff163373ffffffffffffffffffffffffffffffffffffffff1614610940576040517f08c379a000000000000000000000000000000000000000000000000000000000815260040180806020018281038252602781526020018061167a6027913960400191505060405180910390fd5b61095161094b610bb0565b82611379565b50565b60008060008373ffffffffffffffffffffffffffffffffffffffff1673ffffffffffffffffffffffffffffffffffffffff168152602001908152602001600020549050919050565b606060048054600181600116156101000203166002900480601f016020809104026020016040519081016040528092919081815260200182805460018160011615610100020316600290048015610a345780601f10610a0957610100808354040283529160200191610a34565b820191906000526020600020905b815481529060010190602001808311610a1757829003601f168201915b5050505050905090565b6000610b01610a4b610bb0565b84610afc856040518060600160405280602581526020016117336025913960016000610a75610bb0565b73ffffffffffffffffffffffffffffffffffffffff1673ffffffffffffffffffffffffffffffffffffffff16815260200190815260200160002060008a73ffffffffffffffffffffffffffffffffffffffff1673ffffffffffffffffffffffffffffffffffffffff168152602001908152602001600020546110709092919063ffffffff16565b610bb8565b6001905092915050565b6000610b1f610b18610bb0565b8484610daf565b6001905092915050565b6000600160008473ffffffffffffffffffffffffffffffffffffffff1673ffffffffffffffffffffffffffffffffffffffff16815260200190815260200160002060008373ffffffffffffffffffffffffffffffffffffffff1673ffffffffffffffffffffffffffffffffffffffff16815260200190815260200160002054905092915050565b600033905090565b600073ffffffffffffffffffffffffffffffffffffffff168373ffffffffffffffffffffffffffffffffffffffff161415610c3e576040517f08c379a000000000000000000000000000000000000000000000000000000000815260040180806020018281038252602481526020018061170f6024913960400191505060405180910390fd5b600073ffffffffffffffffffffffffffffffffffffffff168273ffffffffffffffffffffffffffffffffffffffff161415610cc4576040517f08c379a000000000000000000000000000000000000000000000000000000000815260040180806020018281038252602281526020018061160b6022913960400191505060405180910390fd5b80600160008573ffffffffffffffffffffffffffffffffffffffff1673ffffffffffffffffffffffffffffffffffffffff16815260200190815260200160002060008473ffffffffffffffffffffffffffffffffffffffff1673ffffffffffffffffffffffffffffffffffffffff168152602001908152602001600020819055508173ffffffffffffffffffffffffffffffffffffffff168373ffffffffffffffffffffffffffffffffffffffff167f8c5be1e5ebec7d5bd14f71427d1e84f3dd0314c0f7b2291e5b200ac8c7c3b925836040518082815260200191505060405180910390a3505050565b600073ffffffffffffffffffffffffffffffffffffffff168373ffffffffffffffffffffffffffffffffffffffff161415610e35576040517f08c379a00000000000000000000000000000000000000000000000000000000081526004018080602001828103825260258152602001806116ea6025913960400191505060405180910390fd5b600073ffffffffffffffffffffffffffffffffffffffff168273ffffffffffffffffffffffffffffffffffffffff161415610ebb576040517f08c379a00000000000000000000000000000000000000000000000000000000081526004018080602001828103825260238152602001806115c66023913960400191505060405180910390fd5b610ec683838361153d565b610f318160405180606001604052806026815260200161162d602691396000808773ffffffffffffffffffffffffffffffffffffffff1673ffffffffffffffffffffffffffffffffffffffff168152602001908152602001600020546110709092919063ffffffff16565b6000808573ffffffffffffffffffffffffffffffffffffffff1673ffffffffffffffffffffffffffffffffffffffff16815260200190815260200160002081905550610fc4816000808573ffffffffffffffffffffffffffffffffffffffff1673ffffffffffffffffffffffffffffffffffffffff1681526020019081526020016000205461112a90919063ffffffff16565b6000808473ffffffffffffffffffffffffffffffffffffffff1673ffffffffffffffffffffffffffffffffffffffff168152602001908152602001600020819055508173ffffffffffffffffffffffffffffffffffffffff168373ffffffffffffffffffffffffffffffffffffffff167fddf252ad1be2c89b69c2b068fc378daa952ba7f163c4a11628f55a4df523b3ef836040518082815260200191505060405180910390a3505050565b600083831115829061111d576040517f08c379a00000000000000000000000000000000000000000000000000000000081526004018080602001828103825283818151815260200191508051906020019080838360005b838110156110e25780820151818401526020810190506110c7565b50505050905090810190601f16801561110f5780820380516001836020036101000a031916815260200191505b509250505060405180910390fd5b5082840390509392505050565b6000808284019050838110156111a8576040517f08c379a000000000000000000000000000000000000000000000000000000000815260040180806020018281038252601b8152602001807f536166654d6174683a206164646974696f6e206f766572666c6f77000000000081525060200191505060405180910390fd5b8091505092915050565b600073ffffffffffffffffffffffffffffffffffffffff168273ffffffffffffffffffffffffffffffffffffffff161415611255576040517f08c379a000000000000000000000000000000000000000000000000000000000815260040180806020018281038252601f8152602001807f45524332303a206d696e7420746f20746865207a65726f20616464726573730081525060200191505060405180910390fd5b6112616000838361153d565b6112768160025461112a90919063ffffffff16565b6002819055506112cd816000808573ffffffffffffffffffffffffffffffffffffffff1673ffffffffffffffffffffffffffffffffffffffff1681526020019081526020016000205461112a90919063ffffffff16565b6000808473ffffffffffffffffffffffffffffffffffffffff1673ffffffffffffffffffffffffffffffffffffffff168152602001908152602001600020819055508173ffffffffffffffffffffffffffffffffffffffff16600073ffffffffffffffffffffffffffffffffffffffff167fddf252ad1be2c89b69c2b068fc378daa952ba7f163c4a11628f55a4df523b3ef836040518082815260200191505060405180910390a35050565b600073ffffffffffffffffffffffffffffffffffffffff168273ffffffffffffffffffffffffffffffffffffffff1614156113ff576040517f08c379a00000000000000000000000000000000000000000000000000000000081526004018080602001828103825260218152602001806116c96021913960400191505060405180910390fd5b61140b8260008361153d565b611476816040518060600160405280602281526020016115e9602291396000808673ffffffffffffffffffffffffffffffffffffffff1673ffffffffffffffffffffffffffffffffffffffff168152602001908152602001600020546110709092919063ffffffff16565b6000808473ffffffffffffffffffffffffffffffffffffffff1673ffffffffffffffffffffffffffffffffffffffff168152602001908152602001600020819055506114cd8160025461154290919063ffffffff16565b600281905550600073ffffffffffffffffffffffffffffffffffffffff168273ffffffffffffffffffffffffffffffffffffffff167fddf252ad1be2c89b69c2b068fc378daa952ba7f163c4a11628f55a4df523b3ef836040518082815260200191505060405180910390a35050565b505050565b6000828211156115ba576040517f08c379a000000000000000000000000000000000000000000000000000000000815260040180806020018281038252601e8152602001807f536166654d6174683a207375627472616374696f6e206f766572666c6f77000081525060200191505060405180910390fd5b81830390509291505056fe45524332303a207472616e7366657220746f20746865207a65726f206164647265737345524332303a206275726e20616d6f756e7420657863656564732062616c616e636545524332303a20617070726f766520746f20746865207a65726f206164647265737345524332303a207472616e7366657220616d6f756e7420657863656564732062616c616e63654f6e6c792074686520636f6e7472616374206f776e65722063616e204d696e7420546f6b656e734f6e6c792074686520636f6e7472616374206f776e65722063616e204275726e20546f6b656e7345524332303a207472616e7366657220616d6f756e74206578636565647320616c6c6f77616e636545524332303a206275726e2066726f6d20746865207a65726f206164647265737345524332303a207472616e736665722066726f6d20746865207a65726f206164647265737345524332303a20617070726f76652066726f6d20746865207a65726f206164647265737345524332303a2064656372656173656420616c6c6f77616e63652062656c6f77207a65726fa264697066735822122054985216d9180aabf0c445b922f3e31efcd488ab0709d929398abf7722f7df0e64736f6c63430007060033a264697066735822122053ef2c5833576b83ed842c519a11049536aad9c98d76860bd423f6447022a57064736f6c63430007060033",
  "immutableReferences": {},
  "source": "// SPDX-License-Identifier: MIT\r\n// Bridge between ethereum and verus\r\n\r\npragma solidity >=0.4.20;\r\npragma experimental ABIEncoderV2;\r\n\r\nimport \"./Token.sol\";\r\nimport \"./VerusAddressCalculator.sol\";\r\n\r\ncontract TokenManager {\r\n\r\n    event TokenCreated(address tokenAddress);\r\n    //array of contracts address mapped to the token name\r\n    struct hostedToken{\r\n        address destinationCurrencyID;\r\n        bool VerusOwned;\r\n        bool isRegistered;\r\n    }\r\n    \r\n    mapping(address => address) public destinationToAddress;\r\n    mapping(address => hostedToken) public vERC20Tokens;\r\n    \r\n    address verusBridgeContract;\r\n    \r\n    constructor() public {\r\n        verusBridgeContract = address(0);\r\n    }\r\n    \r\n    function setVerusBridgeContract(address _verusBridgeContract) public {\r\n        require(verusBridgeContract == address(0),\"verusBridgeContract Address has already been set.\");\r\n        verusBridgeContract = _verusBridgeContract;\r\n    }\r\n    \r\n    function isVerusBridgeContract() private view returns(bool){\r\n        if(verusBridgeContract == address(0)) return true;\r\n        else return msg.sender == verusBridgeContract;\r\n    }\r\n    \r\n    //Tokens that are being exported from the eth blockchain are either destroyed or held until imported\r\n    function exportERC20Tokens(address _contractAddress,uint256 _tokenAmount) public {\r\n        require(isVerusBridgeContract(),\"Call can only be made from Verus Bridge Contract\");\r\n        //check that the erc20 token is registered with the tokenManager\r\n        require(isToken(_contractAddress),\"Token has not been registered yet\");\r\n        \r\n        Token token = Token(_contractAddress);\r\n        hostedToken memory tokenDetail;\r\n        //transfer the tokens to the contract address\r\n        uint256 allowedTokens = token.allowance(msg.sender,address(this));\r\n        require( allowedTokens >= _tokenAmount,\"Not enough tokens have been approved\");\r\n        //if its not approved it wont work\r\n        token.transferFrom(msg.sender,address(this),_tokenAmount);   \r\n        \r\n        if(!isToken(_contractAddress)){\r\n            tokenDetail = vERC20Tokens[_contractAddress];\r\n            //if the token has been cerated by this contract then burn the token\r\n        }\r\n        if(tokenDetail.VerusOwned){\r\n                require(token.balanceOf(address(this)) >= _tokenAmount,\"Tokens didnt transfer\");\r\n                burnToken(_contractAddress,_tokenAmount);\r\n        } else {\r\n            //the contract stores the token\r\n        }\r\n    }\r\n\r\n    /*function exportERC20Tokens(address _destCurrencyID,uint256 _tokenAmount) public {\r\n        require(isVerusBridgeContract(),\"Call can only be made from Verus Bridge Contract\");\r\n        address contactAddress = destinationToAddress[_destCurrencyID];\r\n        exportERC20Tokens(contactAddress,_tokenAmount);\r\n    }*/\r\n    \r\n    //Tokens that are being imported into the eth blockchain are either minted or transferred from a reserve\r\n    /*function importERC20Tokens(address _contractAddress,uint256 _tokenAmount,address _destinationAddress) public {\r\n        require(isVerusBridgeContract(),\"Call can only be made from Verus Bridge Contract\");\r\n        hostedToken memory tokenDetail = vERC20Tokens[_contractAddress];\r\n        //if the token has been created by this contract then burn the token\r\n        if(tokenDetail.VerusOwned){\r\n            mintToken(_contractAddress,_tokenAmount,_destinationAddress);\r\n        } else {\r\n            //transfer from the \r\n            Token token = Token(_contractAddress);\r\n            token.transfer(_destinationAddress,_tokenAmount);   \r\n        }\r\n    }*/\r\n\r\n    function importERC20Tokens(address _destCurrencyID,uint256 _tokenAmount,address _destination) public {\r\n        require(isVerusBridgeContract(),\"Call can only be made from Verus Bridge Contract\");\r\n        address contractAddress;\r\n        //if the token has not been previously created then it must be deployed\r\n        //require(isToken(destCurrencyID),\"Token is not registered\");\r\n        if(!isToken(_destCurrencyID)) {\r\n            contractAddress = deployNewToken(_destCurrencyID);\r\n        } else {\r\n            contractAddress = destinationToAddress[_destCurrencyID];\r\n        }\r\n\r\n        hostedToken memory tokenDetail = vERC20Tokens[contractAddress];\r\n        //if the token has been created by this contract then burn the token\r\n        if(tokenDetail.VerusOwned){\r\n            mintToken(contractAddress,_tokenAmount,address(_destination));\r\n        } else {\r\n            //transfer from the \r\n            Token token = Token(contractAddress);\r\n            token.transfer(address(_destination),_tokenAmount);   \r\n        }\r\n    }\r\n\r\n    function balanceOf(address _contractAddress,address _account) public view returns(uint256){\r\n        Token token = Token(_contractAddress);\r\n        return token.balanceOf(_account);\r\n    }\r\n    function allowance(address _contractAddress,address _owner, address _spender) public view returns(uint256){\r\n        Token token = Token(_contractAddress);\r\n        return token.allowance(_owner,_spender);\r\n    }\r\n\r\n    function mintToken(address _contractAddress,uint256 _mintAmount,address _recipient) private {\r\n        Token token = Token(_contractAddress);\r\n        token.mint(_recipient,_mintAmount);\r\n    }\r\n\r\n    function burnToken(address _contractAddress,uint _burnAmount) private {\r\n        Token token = Token(_contractAddress);\r\n        token.burn(_burnAmount);\r\n    }\r\n\r\n    function addExistingToken(address _contractAddress) public returns(address){\r\n        require(!isToken(_contractAddress),\"Token is already registered\");\r\n        //generate a address for the token name\r\n        Token token = Token(_contractAddress);\r\n        address destinationCurrencyID = generateDestinationCurrencyID(token.name());\r\n        vERC20Tokens[_contractAddress] = hostedToken(destinationCurrencyID,false,true);\r\n        destinationToAddress[destinationCurrencyID] = _contractAddress;\r\n        return destinationCurrencyID;\r\n    }\r\n\r\n    function deployNewToken(address _destinationCurrencyID) public returns (address) {\r\n        require(isVerusBridgeContract(),\"Call can only be made from Verus Bridge Contract\");\r\n        //generate a name based on the address and deploy the token\r\n        string memory IDAsString; \r\n        IDAsString= VerusAddressCalculator.addressToString(_destinationCurrencyID);\r\n        \r\n        //capitalised version of the first 4 letters becomes the symbol the full address is the token name\r\n        bytes memory tokenSymbolBytes = abi.encodePacked(bytes4(VerusAddressCalculator.stringToBytes32(IDAsString)));\r\n        //convert them to uppercase\r\n        bytes memory symbolUpper = new bytes(4);\r\n        for(uint i = 0; i < 4; i++){\r\n            if ((uint8(tokenSymbolBytes[i]) >= 97) && (uint8(tokenSymbolBytes[i]) <= 122)){\r\n                symbolUpper[i] = bytes1(uint8(tokenSymbolBytes[i]) - 32);\r\n            } else {\r\n                symbolUpper[i] = tokenSymbolBytes[i];\r\n            }\r\n        }\r\n        return deployNewToken(_destinationCurrencyID,IDAsString,string(symbolUpper));\r\n    }\r\n\r\n    function deployNewToken(address _destinationCurrencyID,string memory _tokenName, string memory _symbol) public returns (address) {\r\n        require(isVerusBridgeContract(),\"Call can only be made from Verus Bridge Contract\");\r\n        if(isToken(_destinationCurrencyID)) return destinationToAddress[_destinationCurrencyID];\r\n        Token t = new Token(_tokenName, _symbol);\r\n        vERC20Tokens[address(t)]= hostedToken(_destinationCurrencyID,true,true);\r\n        destinationToAddress[_destinationCurrencyID] = address(t);\r\n        emit TokenCreated(address(t));\r\n        return address(t);\r\n    }\r\n\r\n    function generateDestinationCurrencyID(string memory _tokenName) public view returns(address){\r\n        bytes memory reducedTokenName = abi.encodePacked(bytes9(VerusAddressCalculator.stringToBytes32(_tokenName)));\r\n        address output;\r\n        uint coinNumber = 0;\r\n        string memory coinNumberAsStr;\r\n        uint maxLen = 9;\r\n        bytes memory tokenNameAsBytes;\r\n        bytes memory numberAsBytes;\r\n        output = VerusAddressCalculator.stringToAddress(string(abi.encodePacked(reducedTokenName,bytes11(\".erc20.eth.\"))));\r\n        while(isToken(output)){\r\n            \r\n            //need to be able to handle\r\n            coinNumber++;\r\n            coinNumberAsStr = _uintToStr(coinNumber);\r\n            tokenNameAsBytes = abi.encodePacked(reducedTokenName);\r\n            numberAsBytes = abi.encodePacked(coinNumberAsStr);\r\n            \r\n            //check for the very slim possibility that this maxes out\r\n            require(maxLen >= 0,\"tokenName permutations exceeded.\");\r\n            \r\n            for(uint i = 1;i <= numberAsBytes.length; i++){\r\n                tokenNameAsBytes[tokenNameAsBytes.length -i] = numberAsBytes[numberAsBytes.length -i];\r\n            }\r\n            \r\n            //truncate the bytes array\r\n            reducedTokenName =abi.encodePacked(tokenNameAsBytes);\r\n            output = VerusAddressCalculator.stringToAddress(string(abi.encodePacked(reducedTokenName,bytes11(\".erc20.eth.\"))));\r\n            \r\n        }\r\n        return output;\r\n    }\r\n\r\n    function _newDestinationCurrencyID(string memory _tokenName) private pure returns(address){\r\n        //a verus address is made up of tokenName.erc20.eth. where tokenName is a max of 9 chars\r\n        //check if the tokenName already exists\r\n        bytes9 reducedTokenName = bytes9(VerusAddressCalculator.stringToBytes32(_tokenName));\r\n        return VerusAddressCalculator.stringToAddress(string(abi.encodePacked(reducedTokenName,bytes11(\".erc20.eth.\"))));\r\n    }\r\n    \r\n    /*function isToken(address _destinationCurrencyID) public view returns(bool){\r\n        return vERC20Tokens[destinationToAddress[_destinationCurrencyID]].isRegistered;\r\n    }*/\r\n\r\n    function isToken(address _contractAddress) public view returns(bool){\r\n        return vERC20Tokens[_contractAddress].isRegistered;\r\n    }\r\n\r\n    function isVerusOwned(address _contractAddress) public view returns(bool){\r\n        return vERC20Tokens[_contractAddress].VerusOwned;\r\n    }\r\n\r\n    /** helper function for generating currency ids **/\r\n    function _uintToStr(uint _i) private pure returns (string memory _uintAsString) {\r\n        uint number = _i;\r\n        if (number == 0) {\r\n            return \"0\";\r\n        }\r\n        uint j = number;\r\n        uint len;\r\n        while (j != 0) {\r\n            len++;\r\n            j /= 10;\r\n        }\r\n        bytes memory bstr = new bytes(len);\r\n        uint k = len - 1;\r\n        while (number != 0) {\r\n            bstr[k--] = bytes1(uint8(48 + number % 10));\r\n            number /= 10;\r\n        }\r\n        return string(bstr);\r\n    }\r\n\r\n}",
  "sourcePath": "D:\\dev\\Ethereum-verus-notarisation\\contracts\\VerusBridge\\TokenManager.sol",
  "compiler": {
    "name": "solc",
    "version": "0.7.6+commit.7338295f.Emscripten.clang"
  },
  "schemaVersion": "3.4.3",
  "updatedAt": "2021-09-27T13:57:35.412Z",
  "devdoc": {
    "kind": "dev",
    "methods": {},
    "version": 1
  },
  "userdoc": {
    "kind": "user",
    "methods": {},
    "version": 1
  }
}