{
  "contractName": "TokenManager",
  "abi": [
    {
      "inputs": [],
      "stateMutability": "nonpayable",
      "type": "constructor"
    },
    {
      "anonymous": false,
      "inputs": [
        {
          "indexed": false,
          "internalType": "address",
          "name": "tokenAddress",
          "type": "address"
        }
      ],
      "name": "TokenCreated",
      "type": "event"
    },
    {
      "inputs": [
        {
          "internalType": "address",
          "name": "",
          "type": "address"
        }
      ],
      "name": "destinationToAddress",
      "outputs": [
        {
          "internalType": "address",
          "name": "",
          "type": "address"
        }
      ],
      "stateMutability": "view",
      "type": "function"
    },
    {
      "inputs": [
        {
          "internalType": "address",
          "name": "",
          "type": "address"
        }
      ],
      "name": "vERC20Tokens",
      "outputs": [
        {
          "internalType": "address",
          "name": "destinationCurrencyID",
          "type": "address"
        },
        {
          "internalType": "bool",
          "name": "VerusOwned",
          "type": "bool"
        },
        {
          "internalType": "bool",
          "name": "isRegistered",
          "type": "bool"
        }
      ],
      "stateMutability": "view",
      "type": "function"
    },
    {
      "inputs": [
        {
          "internalType": "address",
          "name": "",
          "type": "address"
        }
      ],
      "name": "verusToERC20mapping",
      "outputs": [
        {
          "internalType": "address",
          "name": "destinationCurrencyID",
          "type": "address"
        },
        {
          "internalType": "bool",
          "name": "VerusOwned",
          "type": "bool"
        },
        {
          "internalType": "bool",
          "name": "isRegistered",
          "type": "bool"
        }
      ],
      "stateMutability": "view",
      "type": "function"
    },
    {
      "inputs": [
        {
          "internalType": "uint256",
          "name": "a",
          "type": "uint256"
        },
        {
          "internalType": "uint8",
          "name": "decimals",
          "type": "uint8"
        }
      ],
      "name": "convertFromVerusNumber",
      "outputs": [
        {
          "internalType": "uint256",
          "name": "",
          "type": "uint256"
        }
      ],
      "stateMutability": "pure",
      "type": "function"
    },
    {
      "inputs": [
        {
          "internalType": "address",
          "name": "_verusBridgeContract",
          "type": "address"
        }
      ],
      "name": "setVerusBridgeContract",
      "outputs": [],
      "stateMutability": "nonpayable",
      "type": "function"
    },
    {
      "inputs": [
        {
          "internalType": "address",
          "name": "_contractAddress",
          "type": "address"
        },
        {
          "internalType": "uint256",
          "name": "_tokenAmount",
          "type": "uint256"
        }
      ],
      "name": "exportERC20Tokens",
      "outputs": [],
      "stateMutability": "nonpayable",
      "type": "function"
    },
    {
      "inputs": [
        {
          "internalType": "address",
          "name": "_destCurrencyID",
          "type": "address"
        },
        {
          "internalType": "uint64",
          "name": "_tokenAmount",
          "type": "uint64"
        },
        {
          "internalType": "address",
          "name": "_destination",
          "type": "address"
        }
      ],
      "name": "importERC20Tokens",
      "outputs": [],
      "stateMutability": "nonpayable",
      "type": "function"
    },
    {
      "inputs": [
        {
          "internalType": "address",
          "name": "_contractAddress",
          "type": "address"
        },
        {
          "internalType": "address",
          "name": "_account",
          "type": "address"
        }
      ],
      "name": "balanceOf",
      "outputs": [
        {
          "internalType": "uint256",
          "name": "",
          "type": "uint256"
        }
      ],
      "stateMutability": "view",
      "type": "function"
    },
    {
      "inputs": [
        {
          "internalType": "address",
          "name": "_contractAddress",
          "type": "address"
        },
        {
          "internalType": "address",
          "name": "_owner",
          "type": "address"
        },
        {
          "internalType": "address",
          "name": "_spender",
          "type": "address"
        }
      ],
      "name": "allowance",
      "outputs": [
        {
          "internalType": "uint256",
          "name": "",
          "type": "uint256"
        }
      ],
      "stateMutability": "view",
      "type": "function"
    },
    {
      "inputs": [
        {
          "internalType": "address",
          "name": "_ERC20contractAddress",
          "type": "address"
        },
        {
          "internalType": "address",
          "name": "_verusAddress",
          "type": "address"
        }
      ],
      "name": "addExistingToken",
      "outputs": [
        {
          "internalType": "address",
          "name": "",
          "type": "address"
        }
      ],
      "stateMutability": "nonpayable",
      "type": "function"
    },
    {
      "inputs": [
        {
          "internalType": "address",
          "name": "_destinationCurrencyID",
          "type": "address"
        },
        {
          "internalType": "string",
          "name": "_tokenName",
          "type": "string"
        },
        {
          "internalType": "string",
          "name": "_symbol",
          "type": "string"
        }
      ],
      "name": "deployNewToken",
      "outputs": [
        {
          "internalType": "address",
          "name": "",
          "type": "address"
        }
      ],
      "stateMutability": "nonpayable",
      "type": "function"
    },
    {
      "inputs": [
        {
          "internalType": "address",
          "name": "_contractAddress",
          "type": "address"
        }
      ],
      "name": "isToken",
      "outputs": [
        {
          "internalType": "bool",
          "name": "",
          "type": "bool"
        }
      ],
      "stateMutability": "view",
      "type": "function"
    },
    {
      "inputs": [
        {
          "internalType": "address",
          "name": "_contractAddress",
          "type": "address"
        }
      ],
      "name": "isVerusOwned",
      "outputs": [
        {
          "internalType": "bool",
          "name": "",
          "type": "bool"
        }
      ],
      "stateMutability": "view",
      "type": "function"
    }
  ],
  "bytecode": "0x608060405234801561001057600080fd5b506000600360006101000a81548173ffffffffffffffffffffffffffffffffffffffff021916908373ffffffffffffffffffffffffffffffffffffffff160217905550613e14806100626000396000f3fe60806040523480156200001157600080fd5b5060043610620000e25760003560e01c8063abe900e41162000099578063cad67478116200006f578063cad6747814620002a5578063d5b91a9214620002db578063f7888aec1462000311578063ff409190146200034757620000e2565b8063abe900e41462000217578063b17f15a21462000237578063c2ab4c60146200026f57620000e2565b806319f3736114620000e75780632fb5b2f5146200011d5780637b2107fd1462000155578063826737fc146200018b5780639033ef3f14620001c1578063927da10514620001e1575b600080fd5b620001056004803603810190620000ff9190620018fe565b62000367565b60405162000114919062001fd4565b60405180910390f35b6200013b6004803603810190620001359190620018fe565b620003c0565b6040516200014c9392919062001f6a565b60405180910390f35b6200017360048036038101906200016d91906200192a565b62000424565b60405162000182919062001eb6565b60405180910390f35b620001a96004803603810190620001a39190620018fe565b620006fa565b604051620001b8919062001eb6565b60405180910390f35b620001df6004803603810190620001d9919062001a49565b6200072d565b005b620001ff6004803603810190620001f991906200196b565b62000b28565b6040516200020e91906200211a565b60405180910390f35b6200023560048036038101906200022f919062001a8a565b62000bc9565b005b6200025560048036038101906200024f9190620018fe565b62000f9b565b604051620002669392919062001f6a565b60405180910390f35b6200028d6004803603810190620002879190620019c1565b62000fff565b6040516200029c919062001eb6565b60405180910390f35b620002c36004803603810190620002bd9190620018fe565b620013c1565b604051620002d2919062001fd4565b60405180910390f35b620002f96004803603810190620002f3919062001b38565b6200141a565b6040516200030891906200211a565b60405180910390f35b6200032f60048036038101906200032991906200192a565b6200147d565b6040516200033e91906200211a565b60405180910390f35b6200036560048036038101906200035f9190620018fe565b6200151b565b005b6000600260008373ffffffffffffffffffffffffffffffffffffffff1673ffffffffffffffffffffffffffffffffffffffff16815260200190815260200160002060000160159054906101000a900460ff169050919050565b60026020528060005260406000206000915090508060000160009054906101000a900473ffffffffffffffffffffffffffffffffffffffff16908060000160149054906101000a900460ff16908060000160159054906101000a900460ff16905083565b6000620004318262000367565b1562000474576040517f08c379a00000000000000000000000000000000000000000000000000000000081526004016200046b906200204e565b60405180910390fd5b60405180606001604052808473ffffffffffffffffffffffffffffffffffffffff168152602001600015158152602001600115158152506000808473ffffffffffffffffffffffffffffffffffffffff1673ffffffffffffffffffffffffffffffffffffffff16815260200190815260200160002060008201518160000160006101000a81548173ffffffffffffffffffffffffffffffffffffffff021916908373ffffffffffffffffffffffffffffffffffffffff16021790555060208201518160000160146101000a81548160ff02191690831515021790555060408201518160000160156101000a81548160ff02191690831515021790555090505060405180606001604052808373ffffffffffffffffffffffffffffffffffffffff16815260200160001515815260200160011515815250600260008573ffffffffffffffffffffffffffffffffffffffff1673ffffffffffffffffffffffffffffffffffffffff16815260200190815260200160002060008201518160000160006101000a81548173ffffffffffffffffffffffffffffffffffffffff021916908373ffffffffffffffffffffffffffffffffffffffff16021790555060208201518160000160146101000a81548160ff02191690831515021790555060408201518160000160156101000a81548160ff02191690831515021790555090505082600160008473ffffffffffffffffffffffffffffffffffffffff1673ffffffffffffffffffffffffffffffffffffffff16815260200190815260200160002060006101000a81548173ffffffffffffffffffffffffffffffffffffffff021916908373ffffffffffffffffffffffffffffffffffffffff16021790555081905092915050565b60016020528060005260406000206000915054906101000a900473ffffffffffffffffffffffffffffffffffffffff1681565b62000737620015f3565b62000779576040517f08c379a00000000000000000000000000000000000000000000000000000000081526004016200077090620020f8565b60405180910390fd5b620007848262000367565b620007c6576040517f08c379a0000000000000000000000000000000000000000000000000000000008152600401620007bd906200202c565b60405180910390fd5b6000829050620007d5620017a2565b60008273ffffffffffffffffffffffffffffffffffffffff1663dd62ed3e33306040518363ffffffff1660e01b81526004016200081492919062001ed3565b60206040518083038186803b1580156200082d57600080fd5b505afa15801562000842573d6000803e3d6000fd5b505050506040513d601f19601f8201168201806040525081019062000868919062001b0c565b905083811015620008b0576040517f08c379a0000000000000000000000000000000000000000000000000000000008152600401620008a790620020d6565b60405180910390fd5b8273ffffffffffffffffffffffffffffffffffffffff166323b872dd3330876040518463ffffffff1660e01b8152600401620008ef9392919062001f00565b602060405180830381600087803b1580156200090a57600080fd5b505af11580156200091f573d6000803e3d6000fd5b505050506040513d601f19601f8201168201806040525081019062000945919062001ae0565b50620009518562000367565b62000a2f57600260008673ffffffffffffffffffffffffffffffffffffffff1673ffffffffffffffffffffffffffffffffffffffff1681526020019081526020016000206040518060600160405290816000820160009054906101000a900473ffffffffffffffffffffffffffffffffffffffff1673ffffffffffffffffffffffffffffffffffffffff1673ffffffffffffffffffffffffffffffffffffffff1681526020016000820160149054906101000a900460ff161515151581526020016000820160159054906101000a900460ff16151515158152505091505b81602001511562000b2057838373ffffffffffffffffffffffffffffffffffffffff166370a08231306040518263ffffffff1660e01b815260040162000a76919062001eb6565b60206040518083038186803b15801562000a8f57600080fd5b505afa15801562000aa4573d6000803e3d6000fd5b505050506040513d601f19601f8201168201806040525081019062000aca919062001b0c565b101562000b0e576040517f08c379a000000000000000000000000000000000000000000000000000000000815260040162000b059062002092565b60405180910390fd5b62000b1a8585620016ad565b62000b21565b5b5050505050565b6000808490508073ffffffffffffffffffffffffffffffffffffffff1663dd62ed3e85856040518363ffffffff1660e01b815260040162000b6b92919062001f3d565b60206040518083038186803b15801562000b8457600080fd5b505afa15801562000b99573d6000803e3d6000fd5b505050506040513d601f19601f8201168201806040525081019062000bbf919062001b0c565b9150509392505050565b62000bd3620015f3565b62000c15576040517f08c379a000000000000000000000000000000000000000000000000000000000815260040162000c0c90620020f8565b60405180910390fd5b60008060008573ffffffffffffffffffffffffffffffffffffffff1673ffffffffffffffffffffffffffffffffffffffff16815260200190815260200160002060000160159054906101000a900460ff1662000d02576000808573ffffffffffffffffffffffffffffffffffffffff1673ffffffffffffffffffffffffffffffffffffffff16815260200190815260200160002060000160159054906101000a900460ff1662000cfc576040517f08c379a000000000000000000000000000000000000000000000000000000000815260040162000cf39062002070565b60405180910390fd5b62000d65565b600160008573ffffffffffffffffffffffffffffffffffffffff1673ffffffffffffffffffffffffffffffffffffffff16815260200190815260200160002060009054906101000a900473ffffffffffffffffffffffffffffffffffffffff1690505b6000600260008373ffffffffffffffffffffffffffffffffffffffff1673ffffffffffffffffffffffffffffffffffffffff1681526020019081526020016000206040518060600160405290816000820160009054906101000a900473ffffffffffffffffffffffffffffffffffffffff1673ffffffffffffffffffffffffffffffffffffffff1673ffffffffffffffffffffffffffffffffffffffff1681526020016000820160149054906101000a900460ff161515151581526020016000820160159054906101000a900460ff16151515158152505090506000829050600062000edd8667ffffffffffffffff168373ffffffffffffffffffffffffffffffffffffffff1663313ce5676040518163ffffffff1660e01b815260040160206040518083038186803b15801562000e9c57600080fd5b505afa15801562000eb1573d6000803e3d6000fd5b505050506040513d601f19601f8201168201806040525081019062000ed7919062001b79565b6200141a565b905082602001511562000efd5762000ef784828762001726565b62000f92565b8173ffffffffffffffffffffffffffffffffffffffff1663a9059cbb86836040518363ffffffff1660e01b815260040162000f3a92919062001fa7565b602060405180830381600087803b15801562000f5557600080fd5b505af115801562000f6a573d6000803e3d6000fd5b505050506040513d601f19601f8201168201806040525081019062000f90919062001ae0565b505b50505050505050565b60006020528060005260406000206000915090508060000160009054906101000a900473ffffffffffffffffffffffffffffffffffffffff16908060000160149054906101000a900460ff16908060000160159054906101000a900460ff16905083565b60008060008573ffffffffffffffffffffffffffffffffffffffff1673ffffffffffffffffffffffffffffffffffffffff16815260200190815260200160002060000160159054906101000a900460ff1615620010c0576000808573ffffffffffffffffffffffffffffffffffffffff1673ffffffffffffffffffffffffffffffffffffffff16815260200190815260200160002060000160009054906101000a900473ffffffffffffffffffffffffffffffffffffffff169050620013ba565b60008383604051620010d290620017dd565b620010df92919062001ff1565b604051809103906000f080158015620010fc573d6000803e3d6000fd5b50905060405180606001604052808273ffffffffffffffffffffffffffffffffffffffff168152602001600115158152602001600115158152506000808773ffffffffffffffffffffffffffffffffffffffff1673ffffffffffffffffffffffffffffffffffffffff16815260200190815260200160002060008201518160000160006101000a81548173ffffffffffffffffffffffffffffffffffffffff021916908373ffffffffffffffffffffffffffffffffffffffff16021790555060208201518160000160146101000a81548160ff02191690831515021790555060408201518160000160156101000a81548160ff02191690831515021790555090505060405180606001604052808673ffffffffffffffffffffffffffffffffffffffff16815260200160011515815260200160011515815250600260008373ffffffffffffffffffffffffffffffffffffffff1673ffffffffffffffffffffffffffffffffffffffff16815260200190815260200160002060008201518160000160006101000a81548173ffffffffffffffffffffffffffffffffffffffff021916908373ffffffffffffffffffffffffffffffffffffffff16021790555060208201518160000160146101000a81548160ff02191690831515021790555060408201518160000160156101000a81548160ff02191690831515021790555090505080600160008773ffffffffffffffffffffffffffffffffffffffff1673ffffffffffffffffffffffffffffffffffffffff16815260200190815260200160002060006101000a81548173ffffffffffffffffffffffffffffffffffffffff021916908373ffffffffffffffffffffffffffffffffffffffff1602179055507f2e2b3f61b70d2d131b2a807371103cc98d51adcaa5e9a8f9c32658ad8426e74e81604051620013ad919062001eb6565b60405180910390a1809150505b9392505050565b6000600260008373ffffffffffffffffffffffffffffffffffffffff1673ffffffffffffffffffffffffffffffffffffffff16815260200190815260200160002060000160149054906101000a900460ff169050919050565b600080600a9050600084905060088460ff1611156200144a576008840391508160ff16600a0a8502905062001472565b60088460ff16101562001471578360080391508160ff16600a0a85816200146d57fe5b0490505b5b809250505092915050565b6000808390508073ffffffffffffffffffffffffffffffffffffffff166370a08231846040518263ffffffff1660e01b8152600401620014be919062001eb6565b60206040518083038186803b158015620014d757600080fd5b505afa158015620014ec573d6000803e3d6000fd5b505050506040513d601f19601f8201168201806040525081019062001512919062001b0c565b91505092915050565b600073ffffffffffffffffffffffffffffffffffffffff16600360009054906101000a900473ffffffffffffffffffffffffffffffffffffffff1673ffffffffffffffffffffffffffffffffffffffff1614620015af576040517f08c379a0000000000000000000000000000000000000000000000000000000008152600401620015a690620020b4565b60405180910390fd5b80600360006101000a81548173ffffffffffffffffffffffffffffffffffffffff021916908373ffffffffffffffffffffffffffffffffffffffff16021790555050565b60008073ffffffffffffffffffffffffffffffffffffffff16600360009054906101000a900473ffffffffffffffffffffffffffffffffffffffff1673ffffffffffffffffffffffffffffffffffffffff161415620016565760019050620016aa565b600360009054906101000a900473ffffffffffffffffffffffffffffffffffffffff1673ffffffffffffffffffffffffffffffffffffffff163373ffffffffffffffffffffffffffffffffffffffff161490505b90565b60008290508073ffffffffffffffffffffffffffffffffffffffff166342966c68836040518263ffffffff1660e01b8152600401620016ed91906200211a565b600060405180830381600087803b1580156200170857600080fd5b505af11580156200171d573d6000803e3d6000fd5b50505050505050565b60008390508073ffffffffffffffffffffffffffffffffffffffff166340c10f1983856040518363ffffffff1660e01b81526004016200176892919062001fa7565b600060405180830381600087803b1580156200178357600080fd5b505af115801562001798573d6000803e3d6000fd5b5050505050505050565b6040518060600160405280600073ffffffffffffffffffffffffffffffffffffffff1681526020016000151581526020016000151581525090565b611aa3806200233c83390190565b600062001802620017fc846200216b565b62002137565b9050828152602081018484840111156200181b57600080fd5b6200182884828562002261565b509392505050565b6000813590506200184181620022b9565b92915050565b6000815190506200185881620022d3565b92915050565b600082601f8301126200187057600080fd5b813562001882848260208601620017eb565b91505092915050565b6000813590506200189c81620022ed565b92915050565b600081519050620018b381620022ed565b92915050565b600081359050620018ca8162002307565b92915050565b600081359050620018e18162002321565b92915050565b600081519050620018f88162002321565b92915050565b6000602082840312156200191157600080fd5b6000620019218482850162001830565b91505092915050565b600080604083850312156200193e57600080fd5b60006200194e8582860162001830565b9250506020620019618582860162001830565b9150509250929050565b6000806000606084860312156200198157600080fd5b6000620019918682870162001830565b9350506020620019a48682870162001830565b9250506040620019b78682870162001830565b9150509250925092565b600080600060608486031215620019d757600080fd5b6000620019e78682870162001830565b935050602084013567ffffffffffffffff81111562001a0557600080fd5b62001a13868287016200185e565b925050604084013567ffffffffffffffff81111562001a3157600080fd5b62001a3f868287016200185e565b9150509250925092565b6000806040838503121562001a5d57600080fd5b600062001a6d8582860162001830565b925050602062001a80858286016200188b565b9150509250929050565b60008060006060848603121562001aa057600080fd5b600062001ab08682870162001830565b935050602062001ac386828701620018b9565b925050604062001ad68682870162001830565b9150509250925092565b60006020828403121562001af357600080fd5b600062001b038482850162001847565b91505092915050565b60006020828403121562001b1f57600080fd5b600062001b2f84828501620018a2565b91505092915050565b6000806040838503121562001b4c57600080fd5b600062001b5c858286016200188b565b925050602062001b6f85828601620018d0565b9150509250929050565b60006020828403121562001b8c57600080fd5b600062001b9c84828501620018e7565b91505092915050565b62001bb08162002225565b82525050565b62001bc181620021ba565b82525050565b62001bd281620021ce565b82525050565b600062001be5826200219e565b62001bf18185620021a9565b935062001c0381856020860162002270565b62001c0e81620022a8565b840191505092915050565b600062001c28602183620021a9565b91507f546f6b656e20686173206e6f74206265656e207265676973746572656420796560008301527f74000000000000000000000000000000000000000000000000000000000000006020830152604082019050919050565b600062001c90601b83620021a9565b91507f546f6b656e20697320616c7265616479207265676973746572656400000000006000830152602082019050919050565b600062001cd2602983620021a9565b91507f44657374696e6174696f6e2043757272656e6379204944206973206e6f74207260008301527f65676973746572656400000000000000000000000000000000000000000000006020830152604082019050919050565b600062001d3a601583620021a9565b91507f546f6b656e73206469646e74207472616e7366657200000000000000000000006000830152602082019050919050565b600062001d7c603183620021a9565b91507f7665727573427269646765436f6e74726163742041646472657373206861732060008301527f616c7265616479206265656e207365742e0000000000000000000000000000006020830152604082019050919050565b600062001de4602483620021a9565b91507f4e6f7420656e6f75676820746f6b656e732068617665206265656e206170707260008301527f6f766564000000000000000000000000000000000000000000000000000000006020830152604082019050919050565b600062001e4c603083620021a9565b91507f43616c6c2063616e206f6e6c79206265206d6164652066726f6d20566572757360008301527f2042726964676520436f6e7472616374000000000000000000000000000000006020830152604082019050919050565b62001eb081620021fa565b82525050565b600060208201905062001ecd600083018462001bb6565b92915050565b600060408201905062001eea600083018562001ba5565b62001ef9602083018462001bb6565b9392505050565b600060608201905062001f17600083018662001ba5565b62001f26602083018562001bb6565b62001f35604083018462001ea5565b949350505050565b600060408201905062001f54600083018562001bb6565b62001f63602083018462001bb6565b9392505050565b600060608201905062001f81600083018662001bb6565b62001f90602083018562001bc7565b62001f9f604083018462001bc7565b949350505050565b600060408201905062001fbe600083018562001bb6565b62001fcd602083018462001ea5565b9392505050565b600060208201905062001feb600083018462001bc7565b92915050565b600060408201905081810360008301526200200d818562001bd8565b9050818103602083015262002023818462001bd8565b90509392505050565b60006020820190508181036000830152620020478162001c19565b9050919050565b60006020820190508181036000830152620020698162001c81565b9050919050565b600060208201905081810360008301526200208b8162001cc3565b9050919050565b60006020820190508181036000830152620020ad8162001d2b565b9050919050565b60006020820190508181036000830152620020cf8162001d6d565b9050919050565b60006020820190508181036000830152620020f18162001dd5565b9050919050565b60006020820190508181036000830152620021138162001e3d565b9050919050565b600060208201905062002131600083018462001ea5565b92915050565b6000604051905081810181811067ffffffffffffffff82111715620021615762002160620022a6565b5b8060405250919050565b600067ffffffffffffffff821115620021895762002188620022a6565b5b601f19601f8301169050602081019050919050565b600081519050919050565b600082825260208201905092915050565b6000620021c782620021da565b9050919050565b60008115159050919050565b600073ffffffffffffffffffffffffffffffffffffffff82169050919050565b6000819050919050565b600067ffffffffffffffff82169050919050565b600060ff82169050919050565b6000620022328262002239565b9050919050565b600062002246826200224d565b9050919050565b60006200225a82620021da565b9050919050565b82818337600083830152505050565b60005b838110156200229057808201518184015260208101905062002273565b83811115620022a0576000848401525b50505050565bfe5b6000601f19601f8301169050919050565b620022c481620021ba565b8114620022d057600080fd5b50565b620022de81620021ce565b8114620022ea57600080fd5b50565b620022f881620021fa565b81146200230457600080fd5b50565b620023128162002204565b81146200231e57600080fd5b50565b6200232c8162002218565b81146200233857600080fd5b5056fe60806040523480156200001157600080fd5b5060405162001aa338038062001aa3833981810160405260408110156200003757600080fd5b81019080805160405193929190846401000000008211156200005857600080fd5b838201915060208201858111156200006f57600080fd5b82518660018202830111640100000000821117156200008d57600080fd5b8083526020830192505050908051906020019080838360005b83811015620000c3578082015181840152602081019050620000a6565b50505050905090810190601f168015620000f15780820380516001836020036101000a031916815260200191505b50604052602001805160405193929190846401000000008211156200011557600080fd5b838201915060208201858111156200012c57600080fd5b82518660018202830111640100000000821117156200014a57600080fd5b8083526020830192505050908051906020019080838360005b838110156200018057808201518184015260208101905062000163565b50505050905090810190601f168015620001ae5780820380516001836020036101000a031916815260200191505b5060405250505081818160039080519060200190620001cf92919062000250565b508060049080519060200190620001e892919062000250565b506012600560006101000a81548160ff021916908360ff160217905550505033600560016101000a81548173ffffffffffffffffffffffffffffffffffffffff021916908373ffffffffffffffffffffffffffffffffffffffff160217905550505062000306565b828054600181600116156101000203166002900490600052602060002090601f016020900481019282620002885760008555620002d4565b82601f10620002a357805160ff1916838001178555620002d4565b82800160010185558215620002d4579182015b82811115620002d3578251825591602001919060010190620002b6565b5b509050620002e39190620002e7565b5090565b5b8082111562000302576000816000905550600101620002e8565b5090565b61178d80620003166000396000f3fe608060405234801561001057600080fd5b50600436106100cf5760003560e01c806340c10f191161008c57806395d89b411161006657806395d89b41146103b6578063a457c2d714610439578063a9059cbb1461049d578063dd62ed3e14610501576100cf565b806340c10f19146102e257806342966c681461033057806370a082311461035e576100cf565b806306fdde03146100d4578063095ea7b31461015757806318160ddd146101bb57806323b872dd146101d9578063313ce5671461025d578063395093511461027e575b600080fd5b6100dc610579565b6040518080602001828103825283818151815260200191508051906020019080838360005b8381101561011c578082015181840152602081019050610101565b50505050905090810190601f1680156101495780820380516001836020036101000a031916815260200191505b509250505060405180910390f35b6101a36004803603604081101561016d57600080fd5b81019080803573ffffffffffffffffffffffffffffffffffffffff1690602001909291908035906020019092919050505061061b565b60405180821515815260200191505060405180910390f35b6101c3610639565b6040518082815260200191505060405180910390f35b610245600480360360608110156101ef57600080fd5b81019080803573ffffffffffffffffffffffffffffffffffffffff169060200190929190803573ffffffffffffffffffffffffffffffffffffffff16906020019092919080359060200190929190505050610643565b60405180821515815260200191505060405180910390f35b61026561071c565b604051808260ff16815260200191505060405180910390f35b6102ca6004803603604081101561029457600080fd5b81019080803573ffffffffffffffffffffffffffffffffffffffff16906020019092919080359060200190929190505050610733565b60405180821515815260200191505060405180910390f35b61032e600480360360408110156102f857600080fd5b81019080803573ffffffffffffffffffffffffffffffffffffffff169060200190929190803590602001909291905050506107e6565b005b61035c6004803603602081101561034657600080fd5b810190808035906020019092919050505061089a565b005b6103a06004803603602081101561037457600080fd5b81019080803573ffffffffffffffffffffffffffffffffffffffff169060200190929190505050610954565b6040518082815260200191505060405180910390f35b6103be61099c565b6040518080602001828103825283818151815260200191508051906020019080838360005b838110156103fe5780820151818401526020810190506103e3565b50505050905090810190601f16801561042b5780820380516001836020036101000a031916815260200191505b509250505060405180910390f35b6104856004803603604081101561044f57600080fd5b81019080803573ffffffffffffffffffffffffffffffffffffffff16906020019092919080359060200190929190505050610a3e565b60405180821515815260200191505060405180910390f35b6104e9600480360360408110156104b357600080fd5b81019080803573ffffffffffffffffffffffffffffffffffffffff16906020019092919080359060200190929190505050610b0b565b60405180821515815260200191505060405180910390f35b6105636004803603604081101561051757600080fd5b81019080803573ffffffffffffffffffffffffffffffffffffffff169060200190929190803573ffffffffffffffffffffffffffffffffffffffff169060200190929190505050610b29565b6040518082815260200191505060405180910390f35b606060038054600181600116156101000203166002900480601f0160208091040260200160405190810160405280929190818152602001828054600181600116156101000203166002900480156106115780601f106105e657610100808354040283529160200191610611565b820191906000526020600020905b8154815290600101906020018083116105f457829003601f168201915b5050505050905090565b600061062f610628610bb0565b8484610bb8565b6001905092915050565b6000600254905090565b6000610650848484610daf565b6107118461065c610bb0565b61070c856040518060600160405280602881526020016116a160289139600160008b73ffffffffffffffffffffffffffffffffffffffff1673ffffffffffffffffffffffffffffffffffffffff16815260200190815260200160002060006106c2610bb0565b73ffffffffffffffffffffffffffffffffffffffff1673ffffffffffffffffffffffffffffffffffffffff168152602001908152602001600020546110709092919063ffffffff16565b610bb8565b600190509392505050565b6000600560009054906101000a900460ff16905090565b60006107dc610740610bb0565b846107d78560016000610751610bb0565b73ffffffffffffffffffffffffffffffffffffffff1673ffffffffffffffffffffffffffffffffffffffff16815260200190815260200160002060008973ffffffffffffffffffffffffffffffffffffffff1673ffffffffffffffffffffffffffffffffffffffff1681526020019081526020016000205461112a90919063ffffffff16565b610bb8565b6001905092915050565b600560019054906101000a900473ffffffffffffffffffffffffffffffffffffffff1673ffffffffffffffffffffffffffffffffffffffff163373ffffffffffffffffffffffffffffffffffffffff161461088c576040517f08c379a00000000000000000000000000000000000000000000000000000000081526004018080602001828103825260278152602001806116536027913960400191505060405180910390fd5b61089682826111b2565b5050565b600560019054906101000a900473ffffffffffffffffffffffffffffffffffffffff1673ffffffffffffffffffffffffffffffffffffffff163373ffffffffffffffffffffffffffffffffffffffff1614610940576040517f08c379a000000000000000000000000000000000000000000000000000000000815260040180806020018281038252602781526020018061167a6027913960400191505060405180910390fd5b61095161094b610bb0565b82611379565b50565b60008060008373ffffffffffffffffffffffffffffffffffffffff1673ffffffffffffffffffffffffffffffffffffffff168152602001908152602001600020549050919050565b606060048054600181600116156101000203166002900480601f016020809104026020016040519081016040528092919081815260200182805460018160011615610100020316600290048015610a345780601f10610a0957610100808354040283529160200191610a34565b820191906000526020600020905b815481529060010190602001808311610a1757829003601f168201915b5050505050905090565b6000610b01610a4b610bb0565b84610afc856040518060600160405280602581526020016117336025913960016000610a75610bb0565b73ffffffffffffffffffffffffffffffffffffffff1673ffffffffffffffffffffffffffffffffffffffff16815260200190815260200160002060008a73ffffffffffffffffffffffffffffffffffffffff1673ffffffffffffffffffffffffffffffffffffffff168152602001908152602001600020546110709092919063ffffffff16565b610bb8565b6001905092915050565b6000610b1f610b18610bb0565b8484610daf565b6001905092915050565b6000600160008473ffffffffffffffffffffffffffffffffffffffff1673ffffffffffffffffffffffffffffffffffffffff16815260200190815260200160002060008373ffffffffffffffffffffffffffffffffffffffff1673ffffffffffffffffffffffffffffffffffffffff16815260200190815260200160002054905092915050565b600033905090565b600073ffffffffffffffffffffffffffffffffffffffff168373ffffffffffffffffffffffffffffffffffffffff161415610c3e576040517f08c379a000000000000000000000000000000000000000000000000000000000815260040180806020018281038252602481526020018061170f6024913960400191505060405180910390fd5b600073ffffffffffffffffffffffffffffffffffffffff168273ffffffffffffffffffffffffffffffffffffffff161415610cc4576040517f08c379a000000000000000000000000000000000000000000000000000000000815260040180806020018281038252602281526020018061160b6022913960400191505060405180910390fd5b80600160008573ffffffffffffffffffffffffffffffffffffffff1673ffffffffffffffffffffffffffffffffffffffff16815260200190815260200160002060008473ffffffffffffffffffffffffffffffffffffffff1673ffffffffffffffffffffffffffffffffffffffff168152602001908152602001600020819055508173ffffffffffffffffffffffffffffffffffffffff168373ffffffffffffffffffffffffffffffffffffffff167f8c5be1e5ebec7d5bd14f71427d1e84f3dd0314c0f7b2291e5b200ac8c7c3b925836040518082815260200191505060405180910390a3505050565b600073ffffffffffffffffffffffffffffffffffffffff168373ffffffffffffffffffffffffffffffffffffffff161415610e35576040517f08c379a00000000000000000000000000000000000000000000000000000000081526004018080602001828103825260258152602001806116ea6025913960400191505060405180910390fd5b600073ffffffffffffffffffffffffffffffffffffffff168273ffffffffffffffffffffffffffffffffffffffff161415610ebb576040517f08c379a00000000000000000000000000000000000000000000000000000000081526004018080602001828103825260238152602001806115c66023913960400191505060405180910390fd5b610ec683838361153d565b610f318160405180606001604052806026815260200161162d602691396000808773ffffffffffffffffffffffffffffffffffffffff1673ffffffffffffffffffffffffffffffffffffffff168152602001908152602001600020546110709092919063ffffffff16565b6000808573ffffffffffffffffffffffffffffffffffffffff1673ffffffffffffffffffffffffffffffffffffffff16815260200190815260200160002081905550610fc4816000808573ffffffffffffffffffffffffffffffffffffffff1673ffffffffffffffffffffffffffffffffffffffff1681526020019081526020016000205461112a90919063ffffffff16565b6000808473ffffffffffffffffffffffffffffffffffffffff1673ffffffffffffffffffffffffffffffffffffffff168152602001908152602001600020819055508173ffffffffffffffffffffffffffffffffffffffff168373ffffffffffffffffffffffffffffffffffffffff167fddf252ad1be2c89b69c2b068fc378daa952ba7f163c4a11628f55a4df523b3ef836040518082815260200191505060405180910390a3505050565b600083831115829061111d576040517f08c379a00000000000000000000000000000000000000000000000000000000081526004018080602001828103825283818151815260200191508051906020019080838360005b838110156110e25780820151818401526020810190506110c7565b50505050905090810190601f16801561110f5780820380516001836020036101000a031916815260200191505b509250505060405180910390fd5b5082840390509392505050565b6000808284019050838110156111a8576040517f08c379a000000000000000000000000000000000000000000000000000000000815260040180806020018281038252601b8152602001807f536166654d6174683a206164646974696f6e206f766572666c6f77000000000081525060200191505060405180910390fd5b8091505092915050565b600073ffffffffffffffffffffffffffffffffffffffff168273ffffffffffffffffffffffffffffffffffffffff161415611255576040517f08c379a000000000000000000000000000000000000000000000000000000000815260040180806020018281038252601f8152602001807f45524332303a206d696e7420746f20746865207a65726f20616464726573730081525060200191505060405180910390fd5b6112616000838361153d565b6112768160025461112a90919063ffffffff16565b6002819055506112cd816000808573ffffffffffffffffffffffffffffffffffffffff1673ffffffffffffffffffffffffffffffffffffffff1681526020019081526020016000205461112a90919063ffffffff16565b6000808473ffffffffffffffffffffffffffffffffffffffff1673ffffffffffffffffffffffffffffffffffffffff168152602001908152602001600020819055508173ffffffffffffffffffffffffffffffffffffffff16600073ffffffffffffffffffffffffffffffffffffffff167fddf252ad1be2c89b69c2b068fc378daa952ba7f163c4a11628f55a4df523b3ef836040518082815260200191505060405180910390a35050565b600073ffffffffffffffffffffffffffffffffffffffff168273ffffffffffffffffffffffffffffffffffffffff1614156113ff576040517f08c379a00000000000000000000000000000000000000000000000000000000081526004018080602001828103825260218152602001806116c96021913960400191505060405180910390fd5b61140b8260008361153d565b611476816040518060600160405280602281526020016115e9602291396000808673ffffffffffffffffffffffffffffffffffffffff1673ffffffffffffffffffffffffffffffffffffffff168152602001908152602001600020546110709092919063ffffffff16565b6000808473ffffffffffffffffffffffffffffffffffffffff1673ffffffffffffffffffffffffffffffffffffffff168152602001908152602001600020819055506114cd8160025461154290919063ffffffff16565b600281905550600073ffffffffffffffffffffffffffffffffffffffff168273ffffffffffffffffffffffffffffffffffffffff167fddf252ad1be2c89b69c2b068fc378daa952ba7f163c4a11628f55a4df523b3ef836040518082815260200191505060405180910390a35050565b505050565b6000828211156115ba576040517f08c379a000000000000000000000000000000000000000000000000000000000815260040180806020018281038252601e8152602001807f536166654d6174683a207375627472616374696f6e206f766572666c6f77000081525060200191505060405180910390fd5b81830390509291505056fe45524332303a207472616e7366657220746f20746865207a65726f206164647265737345524332303a206275726e20616d6f756e7420657863656564732062616c616e636545524332303a20617070726f766520746f20746865207a65726f206164647265737345524332303a207472616e7366657220616d6f756e7420657863656564732062616c616e63654f6e6c792074686520636f6e7472616374206f776e65722063616e204d696e7420546f6b656e734f6e6c792074686520636f6e7472616374206f776e65722063616e204275726e20546f6b656e7345524332303a207472616e7366657220616d6f756e74206578636565647320616c6c6f77616e636545524332303a206275726e2066726f6d20746865207a65726f206164647265737345524332303a207472616e736665722066726f6d20746865207a65726f206164647265737345524332303a20617070726f76652066726f6d20746865207a65726f206164647265737345524332303a2064656372656173656420616c6c6f77616e63652062656c6f77207a65726fa264697066735822122054985216d9180aabf0c445b922f3e31efcd488ab0709d929398abf7722f7df0e64736f6c63430007060033a26469706673582212208c0a108571391a0011d28e8849dfc3ca6fe728f5347d02319f4a1c72c178f95864736f6c63430007060033",
  "immutableReferences": {},
  "source": "// SPDX-License-Identifier: MIT\r\n// Bridge between ethereum and verus\r\n\r\npragma solidity >=0.4.20;\r\npragma experimental ABIEncoderV2;\r\n\r\nimport \"./Token.sol\";\r\nimport \"./VerusAddressCalculator.sol\";\r\n\r\ncontract TokenManager {\r\n\r\n    event TokenCreated(address tokenAddress);\r\n    //array of contracts address mapped to the token name\r\n    struct hostedToken{\r\n        address destinationCurrencyID;\r\n        bool VerusOwned;\r\n        bool isRegistered;\r\n    }\r\n    \r\n    mapping(address => hostedToken) public verusToERC20mapping;\r\n    mapping(address => address) public destinationToAddress;\r\n    mapping(address => hostedToken) public vERC20Tokens;\r\n    \r\n    address verusBridgeContract;\r\n    \r\n    constructor() public {\r\n        verusBridgeContract = address(0);\r\n    }\r\n    \r\n        \r\n    function convertFromVerusNumber(uint256 a,uint8 decimals) public pure returns (uint256) {\r\n         uint8 power = 10; //default value for 18\r\n         uint256 c = a;\r\n        if(decimals > 8 ) {\r\n            power = decimals - 8;// number of decimals in verus\r\n            c = a * (10 ** power);\r\n        }else if(decimals < 8){\r\n            power = 8 - decimals;// number of decimals in verus\r\n            c = a / (10 ** power);\r\n        }\r\n      \r\n        return c;\r\n    }\r\n    \r\n    function setVerusBridgeContract(address _verusBridgeContract) public {\r\n        require(verusBridgeContract == address(0),\"verusBridgeContract Address has already been set.\");\r\n        verusBridgeContract = _verusBridgeContract;\r\n    }\r\n    \r\n    function isVerusBridgeContract() private view returns(bool){\r\n        if(verusBridgeContract == address(0)) return true;\r\n        else return msg.sender == verusBridgeContract;\r\n    }\r\n    \r\n    //Tokens that are being exported from the eth blockchain are either destroyed or held until imported\r\n    function exportERC20Tokens(address _contractAddress,uint256 _tokenAmount) public {\r\n        require(isVerusBridgeContract(),\"Call can only be made from Verus Bridge Contract\");\r\n        //check that the erc20 token is registered with the tokenManager\r\n        require(isToken(_contractAddress),\"Token has not been registered yet\");\r\n        \r\n        Token token = Token(_contractAddress);\r\n        hostedToken memory tokenDetail;\r\n        //transfer the tokens to the contract address\r\n        uint256 allowedTokens = token.allowance(msg.sender,address(this));\r\n        require( allowedTokens >= _tokenAmount,\"Not enough tokens have been approved\"); //values in wei\r\n        //if its not approved it wont work\r\n        token.transferFrom(msg.sender,address(this),_tokenAmount);   \r\n        \r\n        if(!isToken(_contractAddress)){\r\n            tokenDetail = vERC20Tokens[_contractAddress];\r\n            //if the token has been cerated by this contract then burn the token\r\n        }\r\n        if(tokenDetail.VerusOwned){\r\n                require(token.balanceOf(address(this)) >= _tokenAmount,\"Tokens didnt transfer\");\r\n                burnToken(_contractAddress,_tokenAmount);\r\n        } else {\r\n            //the contract stores the token\r\n        }\r\n    }\r\n\r\n    function importERC20Tokens(address _destCurrencyID,uint64 _tokenAmount,address _destination) public {\r\n        require(isVerusBridgeContract(),\"Call can only be made from Verus Bridge Contract\");\r\n        address contractAddress;\r\n        //if the token has not been previously created then it must be deployed\r\n        //require(isToken(destCurrencyID),\"Token is not registered\");\r\n        if(!verusToERC20mapping[_destCurrencyID].isRegistered) {\r\n            //contractAddress = deployNewToken(_destCurrencyID);\r\n            require(verusToERC20mapping[_destCurrencyID].isRegistered,\r\n            \"Destination Currency ID is not registered\");\r\n        } else {\r\n            contractAddress = destinationToAddress[_destCurrencyID];\r\n        }\r\n        hostedToken memory tokenDetail = vERC20Tokens[contractAddress];\r\n        Token token = Token(contractAddress);\r\n        uint256 processedTokenAmount = convertFromVerusNumber(_tokenAmount, token.decimals());\r\n        //if the token has been created by this contract then burn the token\r\n        if(tokenDetail.VerusOwned){\r\n            mintToken(contractAddress,processedTokenAmount,address(_destination));\r\n        } else {\r\n            //transfer from the contract\r\n            token.transfer(address(_destination),processedTokenAmount);   \r\n        }\r\n\r\n    }\r\n\r\n    function balanceOf(address _contractAddress,address _account) public view returns(uint256){\r\n        Token token = Token(_contractAddress);\r\n        return token.balanceOf(_account);\r\n    }\r\n    function allowance(address _contractAddress,address _owner, address _spender) public view returns(uint256){\r\n        Token token = Token(_contractAddress);\r\n        return token.allowance(_owner,_spender);\r\n    }\r\n\r\n    function mintToken(address _contractAddress,uint256 _mintAmount,address _recipient) private {\r\n        Token token = Token(_contractAddress);\r\n        token.mint(_recipient,_mintAmount);\r\n    }\r\n\r\n    function burnToken(address _contractAddress,uint _burnAmount) private {\r\n        Token token = Token(_contractAddress);\r\n        token.burn(_burnAmount);\r\n    }\r\n\r\n    function addExistingToken(address _ERC20contractAddress,address _verusAddress) public returns(address){\r\n        require(!isToken( _verusAddress),\"Token is already registered\");\r\n        //generate a address for the token name\r\n        //Token token = Token( _ERC20contractAddress);\r\n        verusToERC20mapping[_verusAddress] = hostedToken(address(_ERC20contractAddress),false,true);\r\n        vERC20Tokens[ _ERC20contractAddress] = hostedToken(_verusAddress,false,true);\r\n        destinationToAddress[_verusAddress] = _ERC20contractAddress;\r\n        return _verusAddress;\r\n    }\r\n/* no longer required unless we want auto token creation\r\n\r\n    function deployNewToken(address _destinationCurrencyID) public returns (address) {\r\n        require(isVerusBridgeContract(),\"Call can only be made from Verus Bridge Contract\");\r\n        //generate a name based on the address and deploy the token\r\n        string memory IDAsString; \r\n        IDAsString= VerusAddressCalculator.addressToString(_destinationCurrencyID);\r\n        \r\n        //capitalised version of the first 4 letters becomes the symbol the full address is the token name\r\n        bytes memory tokenSymbolBytes = abi.encodePacked(bytes4(VerusAddressCalculator.stringToBytes32(IDAsString)));\r\n        //convert them to uppercase\r\n        bytes memory symbolUpper = new bytes(4);\r\n        for(uint i = 0; i < 4; i++){\r\n            if ((uint8(tokenSymbolBytes[i]) >= 97) && (uint8(tokenSymbolBytes[i]) <= 122)){\r\n                symbolUpper[i] = bytes1(uint8(tokenSymbolBytes[i]) - 32);\r\n            } else {\r\n                symbolUpper[i] = tokenSymbolBytes[i];\r\n            }\r\n        }\r\n        return deployNewToken(_destinationCurrencyID,IDAsString,string(symbolUpper));\r\n    }*/\r\n\r\n    function deployNewToken(address _destinationCurrencyID,string memory _tokenName, string memory _symbol) public returns (address) {\r\n        //require(isVerusBridgeContract(),\"Call can only be made from Verus Bridge Contract\");\r\n        if(verusToERC20mapping[_destinationCurrencyID].isRegistered) \r\n            return verusToERC20mapping[_destinationCurrencyID].destinationCurrencyID;\r\n        Token t = new Token(_tokenName, _symbol);\r\n        verusToERC20mapping[_destinationCurrencyID] = hostedToken(address(t),true,true); \r\n        vERC20Tokens[address(t)]= hostedToken(_destinationCurrencyID,true,true);\r\n        destinationToAddress[_destinationCurrencyID] = address(t);\r\n        emit TokenCreated(address(t));\r\n        return address(t);\r\n    }\r\n/*\r\nno longer required unless we want automatic token creation\r\n    function generateDestinationCurrencyID(string memory _tokenName) public view returns(address){\r\n        bytes memory reducedTokenName = abi.encodePacked(bytes9(VerusAddressCalculator.stringToBytes32(_tokenName)));\r\n        address output;\r\n        uint coinNumber = 0;\r\n        string memory coinNumberAsStr;\r\n        uint maxLen = 9;\r\n        bytes memory tokenNameAsBytes;\r\n        bytes memory numberAsBytes;\r\n        output = VerusAddressCalculator.stringToAddress(string(abi.encodePacked(reducedTokenName,bytes11(\".erc20.eth.\"))));\r\n        while(isToken(output)){\r\n            \r\n            //need to be able to handle\r\n            coinNumber++;\r\n            coinNumberAsStr = _uintToStr(coinNumber);\r\n            tokenNameAsBytes = abi.encodePacked(reducedTokenName);\r\n            numberAsBytes = abi.encodePacked(coinNumberAsStr);\r\n            \r\n            //check for the very slim possibility that this maxes out\r\n            require(maxLen >= 0,\"tokenName permutations exceeded.\");\r\n            \r\n            for(uint i = 1;i <= numberAsBytes.length; i++){\r\n                tokenNameAsBytes[tokenNameAsBytes.length -i] = numberAsBytes[numberAsBytes.length -i];\r\n            }\r\n            \r\n            //truncate the bytes array\r\n            reducedTokenName =abi.encodePacked(tokenNameAsBytes);\r\n            output = VerusAddressCalculator.stringToAddress(string(abi.encodePacked(reducedTokenName,bytes11(\".erc20.eth.\"))));\r\n            \r\n        }\r\n        return output;\r\n    }\r\n\r\n    function _newDestinationCurrencyID(string memory _tokenName) private pure returns(address){\r\n        //a verus address is made up of tokenName.erc20.eth. where tokenName is a max of 9 chars\r\n        //check if the tokenName already exists\r\n        bytes9 reducedTokenName = bytes9(VerusAddressCalculator.stringToBytes32(_tokenName));\r\n        return VerusAddressCalculator.stringToAddress(string(abi.encodePacked(reducedTokenName,bytes11(\".erc20.eth.\"))));\r\n    }*/\r\n\r\n    function isToken(address _contractAddress) public view returns(bool){\r\n        return vERC20Tokens[_contractAddress].isRegistered;\r\n    }\r\n\r\n    function isVerusOwned(address _contractAddress) public view returns(bool){\r\n        return vERC20Tokens[_contractAddress].VerusOwned;\r\n    }\r\n\r\n    /* no longer required unless we want to automatically generate currencies\r\n    helper function for generating currency ids\r\n    function _uintToStr(uint _i) private pure returns (string memory _uintAsString) {\r\n        uint number = _i;\r\n        if (number == 0) {\r\n            return \"0\";\r\n        }\r\n        uint j = number;\r\n        uint len;\r\n        while (j != 0) {\r\n            len++;\r\n            j /= 10;\r\n        }\r\n        bytes memory bstr = new bytes(len);\r\n        uint k = len - 1;\r\n        while (number != 0) {\r\n            bstr[k--] = bytes1(uint8(48 + number % 10));\r\n            number /= 10;\r\n        }\r\n        return string(bstr);\r\n    }*/\r\n\r\n}",
  "sourcePath": "D:\\dev\\Ethereum-verus-notarisation\\contracts\\VerusBridge\\TokenManager.sol",
  "compiler": {
    "name": "solc",
    "version": "0.7.6+commit.7338295f.Emscripten.clang"
  },
  "schemaVersion": "3.4.3",
  "updatedAt": "2021-09-30T09:32:23.333Z",
  "devdoc": {
    "kind": "dev",
    "methods": {},
    "version": 1
  },
  "userdoc": {
    "kind": "user",
    "methods": {},
    "version": 1
  }
}