{
  "contractName": "TokenManager",
  "abi": [
    {
      "anonymous": false,
      "inputs": [
        {
          "indexed": false,
          "internalType": "address",
          "name": "tokenAddress",
          "type": "address"
        }
      ],
      "name": "TokenCreated",
      "type": "event"
    },
    {
      "inputs": [
        {
          "internalType": "address",
          "name": "contractAddress",
          "type": "address"
        },
        {
          "internalType": "uint256",
          "name": "tokenAmount",
          "type": "uint256"
        }
      ],
      "name": "receiveERC20Tokens",
      "outputs": [],
      "stateMutability": "nonpayable",
      "type": "function"
    },
    {
      "inputs": [
        {
          "internalType": "string",
          "name": "tokenName",
          "type": "string"
        },
        {
          "internalType": "uint256",
          "name": "tokenAmount",
          "type": "uint256"
        }
      ],
      "name": "receiveERC20Tokens",
      "outputs": [],
      "stateMutability": "nonpayable",
      "type": "function"
    },
    {
      "inputs": [
        {
          "internalType": "address",
          "name": "contractAddress",
          "type": "address"
        },
        {
          "internalType": "uint256",
          "name": "tokenAmount",
          "type": "uint256"
        },
        {
          "internalType": "address",
          "name": "destinationAddress",
          "type": "address"
        }
      ],
      "name": "sendERC20Tokens",
      "outputs": [
        {
          "internalType": "bool",
          "name": "",
          "type": "bool"
        }
      ],
      "stateMutability": "nonpayable",
      "type": "function"
    },
    {
      "inputs": [
        {
          "internalType": "string",
          "name": "tokenName",
          "type": "string"
        },
        {
          "internalType": "uint256",
          "name": "tokenAmount",
          "type": "uint256"
        },
        {
          "internalType": "address",
          "name": "destinationAddress",
          "type": "address"
        }
      ],
      "name": "sendERC20Tokens",
      "outputs": [],
      "stateMutability": "nonpayable",
      "type": "function"
    },
    {
      "inputs": [
        {
          "internalType": "string",
          "name": "tokenName",
          "type": "string"
        },
        {
          "internalType": "string",
          "name": "symbol",
          "type": "string"
        }
      ],
      "name": "deployNewToken",
      "outputs": [
        {
          "internalType": "address",
          "name": "",
          "type": "address"
        }
      ],
      "stateMutability": "nonpayable",
      "type": "function"
    },
    {
      "inputs": [
        {
          "internalType": "address",
          "name": "contractAddress",
          "type": "address"
        },
        {
          "internalType": "address",
          "name": "account",
          "type": "address"
        }
      ],
      "name": "balanceOf",
      "outputs": [
        {
          "internalType": "uint256",
          "name": "",
          "type": "uint256"
        }
      ],
      "stateMutability": "view",
      "type": "function"
    },
    {
      "inputs": [
        {
          "internalType": "address",
          "name": "contractAddress",
          "type": "address"
        },
        {
          "internalType": "address",
          "name": "spender",
          "type": "address"
        },
        {
          "internalType": "uint256",
          "name": "amount",
          "type": "uint256"
        }
      ],
      "name": "approve",
      "outputs": [],
      "stateMutability": "nonpayable",
      "type": "function"
    },
    {
      "inputs": [
        {
          "internalType": "address",
          "name": "contractAddress",
          "type": "address"
        },
        {
          "internalType": "address",
          "name": "owner",
          "type": "address"
        },
        {
          "internalType": "address",
          "name": "spender",
          "type": "address"
        }
      ],
      "name": "allowance",
      "outputs": [
        {
          "internalType": "uint256",
          "name": "",
          "type": "uint256"
        }
      ],
      "stateMutability": "view",
      "type": "function"
    },
    {
      "inputs": [
        {
          "internalType": "address",
          "name": "contractAddress",
          "type": "address"
        },
        {
          "internalType": "uint256",
          "name": "mintAmount",
          "type": "uint256"
        },
        {
          "internalType": "address",
          "name": "recipient",
          "type": "address"
        }
      ],
      "name": "mintToken",
      "outputs": [],
      "stateMutability": "nonpayable",
      "type": "function"
    },
    {
      "inputs": [
        {
          "internalType": "address",
          "name": "contractAddress",
          "type": "address"
        },
        {
          "internalType": "uint256",
          "name": "burnAmount",
          "type": "uint256"
        }
      ],
      "name": "burnToken",
      "outputs": [],
      "stateMutability": "nonpayable",
      "type": "function"
    },
    {
      "inputs": [
        {
          "internalType": "string",
          "name": "name",
          "type": "string"
        },
        {
          "internalType": "address",
          "name": "contactAddress",
          "type": "address"
        }
      ],
      "name": "addExistingToken",
      "outputs": [],
      "stateMutability": "nonpayable",
      "type": "function"
    },
    {
      "inputs": [
        {
          "internalType": "string",
          "name": "name",
          "type": "string"
        }
      ],
      "name": "isToken",
      "outputs": [
        {
          "internalType": "bool",
          "name": "",
          "type": "bool"
        }
      ],
      "stateMutability": "view",
      "type": "function"
    },
    {
      "inputs": [
        {
          "internalType": "string",
          "name": "name",
          "type": "string"
        }
      ],
      "name": "isVerusOwned",
      "outputs": [
        {
          "internalType": "bool",
          "name": "",
          "type": "bool"
        }
      ],
      "stateMutability": "view",
      "type": "function"
    },
    {
      "inputs": [
        {
          "internalType": "string",
          "name": "name",
          "type": "string"
        }
      ],
      "name": "getTokenAddress",
      "outputs": [
        {
          "internalType": "address",
          "name": "",
          "type": "address"
        }
      ],
      "stateMutability": "view",
      "type": "function"
    },
    {
      "inputs": [
        {
          "internalType": "address",
          "name": "tokenAddress",
          "type": "address"
        }
      ],
      "name": "getTokenName",
      "outputs": [
        {
          "internalType": "string",
          "name": "",
          "type": "string"
        }
      ],
      "stateMutability": "view",
      "type": "function"
    }
  ],
  "bytecode": "0x608060405234801561001057600080fd5b506136de806100206000396000f3fe60806040523480156200001157600080fd5b50600436106200010c5760003560e01c80637715702111620000a5578063d1df306c116200006f578063d1df306c146200030b578063d80adeaf146200032b578063e1f21c67146200034b578063f7888aec146200036b576200010c565b8063771570211462000249578063927da105146200027f578063aef11a6414620002b5578063c409123614620002d5576200010c565b80634c18c8fa11620000e75780634c18c8fa146200019d5780635c3507f214620001bd5780636dfada8614620001f35780636f0fccab1462000213576200010c565b80633c37cd0814620001115780633d4286fb146200014757806340c3acb2146200017d575b600080fd5b6200012f6004803603810190620001299190620015f7565b620003a1565b6040516200013e9190620018de565b60405180910390f35b6200016560048036038101906200015f919062001558565b62000581565b604051620001749190620019bf565b60405180910390f35b6200019b600480360381019062000195919062001495565b620005cd565b005b620001bb6004803603810190620001b591906200166a565b620009e0565b005b620001db6004803603810190620001d59190620014d6565b62000a00565b604051620001ea9190620019bf565b60405180910390f35b6200021160048036038101906200020b9190620014d6565b62000c67565b005b6200023160048036038101906200022b91906200137c565b62000ce3565b604051620002409190620019dc565b60405180910390f35b62000267600480360381019062000261919062001558565b62000dc8565b604051620002769190620019bf565b60405180910390f35b6200029d6004803603810190620002979190620013e9565b62000e14565b604051620002ac919062001a7f565b60405180910390f35b620002d36004803603810190620002cd91906200159d565b62000eb5565b005b620002f36004803603810190620002ed919062001558565b62000fb0565b604051620003029190620018de565b60405180910390f35b62000329600480360381019062000323919062001495565b62000ffc565b005b620003496004803603810190620003439190620016c4565b62001075565b005b6200036960048036038101906200036391906200143f565b62001098565b005b620003896004803603810190620003839190620013a8565b62001137565b60405162000398919062001a7f565b60405180910390f35b6000620003ae8362000581565b15620003c757620003bf8362000fb0565b90506200057b565b60008383604051620003d990620011d5565b620003e692919062001a00565b604051809103906000f08015801562000403573d6000803e3d6000fd5b50905060405180606001604052808273ffffffffffffffffffffffffffffffffffffffff168152602001600115158152602001600115158152506000856040516200044f9190620018c5565b908152602001604051809103902060008201518160000160006101000a81548173ffffffffffffffffffffffffffffffffffffffff021916908373ffffffffffffffffffffffffffffffffffffffff16021790555060208201518160000160146101000a81548160ff02191690831515021790555060408201518160000160156101000a81548160ff02191690831515021790555090505083600160008373ffffffffffffffffffffffffffffffffffffffff1673ffffffffffffffffffffffffffffffffffffffff16815260200190815260200160002090805190602001906200053c929190620011e3565b507f2e2b3f61b70d2d131b2a807371103cc98d51adcaa5e9a8f9c32658ad8426e74e816040516200056e9190620018de565b60405180910390a1809150505b92915050565b60008082604051620005949190620018c5565b908152602001604051809103902060000160159054906101000a900460ff1615620005c35760019050620005c8565b600090505b919050565b600082905060008173ffffffffffffffffffffffffffffffffffffffff1663dd62ed3e33306040518363ffffffff1660e01b815260040162000611929190620018fb565b60206040518083038186803b1580156200062a57600080fd5b505afa1580156200063f573d6000803e3d6000fd5b505050506040513d601f19601f8201168201806040525081019062000665919062001733565b905082811015620006ad576040517f08c379a0000000000000000000000000000000000000000000000000000000008152600401620006a49062001a5d565b60405180910390fd5b8173ffffffffffffffffffffffffffffffffffffffff166323b872dd3330866040518463ffffffff1660e01b8152600401620006ec9392919062001928565b602060405180830381600087803b1580156200070757600080fd5b505af11580156200071c573d6000803e3d6000fd5b505050506040513d601f19601f820116820180604052508101906200074291906200152c565b506060600160008673ffffffffffffffffffffffffffffffffffffffff1673ffffffffffffffffffffffffffffffffffffffff1681526020019081526020016000208054600181600116156101000203166002900480601f0160208091040260200160405190810160405280929190818152602001828054600181600116156101000203166002900480156200081c5780601f10620007f0576101008083540402835291602001916200081c565b820191906000526020600020905b815481529060010190602001808311620007fe57829003601f168201915b505050505090506200082d6200126a565b6000826040516200083f9190620018c5565b90815260200160405180910390206040518060600160405290816000820160009054906101000a900473ffffffffffffffffffffffffffffffffffffffff1673ffffffffffffffffffffffffffffffffffffffff1673ffffffffffffffffffffffffffffffffffffffff1681526020016000820160149054906101000a900460ff161515151581526020016000820160159054906101000a900460ff1615151515815250509050806020015115620009d757848473ffffffffffffffffffffffffffffffffffffffff166370a08231306040518263ffffffff1660e01b81526004016200092d9190620018de565b60206040518083038186803b1580156200094657600080fd5b505afa1580156200095b573d6000803e3d6000fd5b505050506040513d601f19601f8201168201806040525081019062000981919062001733565b1015620009c5576040517f08c379a0000000000000000000000000000000000000000000000000000000008152600401620009bc9062001a3b565b60405180910390fd5b620009d1868662000ffc565b620009d8565b5b505050505050565b6000620009ed8362000fb0565b9050620009fb8183620005cd565b505050565b60006060600160008673ffffffffffffffffffffffffffffffffffffffff1673ffffffffffffffffffffffffffffffffffffffff1681526020019081526020016000208054600181600116156101000203166002900480601f01602080910402602001604051908101604052809291908181526020018280546001816001161561010002031660029004801562000adb5780601f1062000aaf5761010080835404028352916020019162000adb565b820191906000526020600020905b81548152906001019060200180831162000abd57829003601f168201915b5050505050905062000aec6200126a565b60008260405162000afe9190620018c5565b90815260200160405180910390206040518060600160405290816000820160009054906101000a900473ffffffffffffffffffffffffffffffffffffffff1673ffffffffffffffffffffffffffffffffffffffff1673ffffffffffffffffffffffffffffffffffffffff1681526020016000820160149054906101000a900460ff161515151581526020016000820160159054906101000a900460ff161515151581525050905080602001511562000bc35762000bbd86868662000c67565b62000c5e565b60008690508073ffffffffffffffffffffffffffffffffffffffff1663a9059cbb86886040518363ffffffff1660e01b815260040162000c0592919062001992565b602060405180830381600087803b15801562000c2057600080fd5b505af115801562000c35573d6000803e3d6000fd5b505050506040513d601f19601f8201168201806040525081019062000c5b91906200152c565b50505b50509392505050565b60008390508073ffffffffffffffffffffffffffffffffffffffff166340c10f1983856040518363ffffffff1660e01b815260040162000ca992919062001992565b600060405180830381600087803b15801562000cc457600080fd5b505af115801562000cd9573d6000803e3d6000fd5b5050505050505050565b6060600160008373ffffffffffffffffffffffffffffffffffffffff1673ffffffffffffffffffffffffffffffffffffffff1681526020019081526020016000208054600181600116156101000203166002900480601f01602080910402602001604051908101604052809291908181526020018280546001816001161561010002031660029004801562000dbc5780601f1062000d905761010080835404028352916020019162000dbc565b820191906000526020600020905b81548152906001019060200180831162000d9e57829003601f168201915b50505050509050919050565b6000808260405162000ddb9190620018c5565b908152602001604051809103902060000160149054906101000a900460ff161562000e0a576001905062000e0f565b600090505b919050565b6000808490508073ffffffffffffffffffffffffffffffffffffffff1663dd62ed3e85856040518363ffffffff1660e01b815260040162000e5792919062001965565b60206040518083038186803b15801562000e7057600080fd5b505afa15801562000e85573d6000803e3d6000fd5b505050506040513d601f19601f8201168201806040525081019062000eab919062001733565b9150509392505050565b62000ec08262000581565b1562000ecb57600080fd5b60405180606001604052808273ffffffffffffffffffffffffffffffffffffffff1681526020016000151581526020016001151581525060008360405162000f149190620018c5565b908152602001604051809103902060008201518160000160006101000a81548173ffffffffffffffffffffffffffffffffffffffff021916908373ffffffffffffffffffffffffffffffffffffffff16021790555060208201518160000160146101000a81548160ff02191690831515021790555060408201518160000160156101000a81548160ff0219169083151502179055509050505050565b6000808260405162000fc39190620018c5565b908152602001604051809103902060000160009054906101000a900473ffffffffffffffffffffffffffffffffffffffff169050919050565b60008290508073ffffffffffffffffffffffffffffffffffffffff166342966c68836040518263ffffffff1660e01b81526004016200103c919062001a7f565b600060405180830381600087803b1580156200105757600080fd5b505af11580156200106c573d6000803e3d6000fd5b50505050505050565b6000620010828462000fb0565b90506200109181848462000a00565b5050505050565b60008390508073ffffffffffffffffffffffffffffffffffffffff1663095ea7b384846040518363ffffffff1660e01b8152600401620010da92919062001992565b602060405180830381600087803b158015620010f557600080fd5b505af11580156200110a573d6000803e3d6000fd5b505050506040513d601f19601f820116820180604052508101906200113091906200152c565b5050505050565b6000808390508073ffffffffffffffffffffffffffffffffffffffff166370a08231846040518263ffffffff1660e01b8152600401620011789190620018de565b60206040518083038186803b1580156200119157600080fd5b505afa158015620011a6573d6000803e3d6000fd5b505050506040513d601f19601f82011682018060405250810190620011cc919062001733565b91505092915050565b611a608062001c4983390190565b828054600181600116156101000203166002900490600052602060002090601f016020900481019282601f106200122657805160ff191683800117855562001257565b8280016001018555821562001257579182015b828111156200125657825182559160200191906001019062001239565b5b509050620012669190620012a5565b5090565b6040518060600160405280600073ffffffffffffffffffffffffffffffffffffffff1681526020016000151581526020016000151581525090565b5b80821115620012c0576000816000905550600101620012a6565b5090565b600081359050620012d58162001bfa565b92915050565b600081519050620012ec8162001c14565b92915050565b600082601f8301126200130457600080fd5b81356200131b620013158262001aca565b62001a9c565b915080825260208301602083018583830111156200133857600080fd5b6200134583828462001ba4565b50505092915050565b6000813590506200135f8162001c2e565b92915050565b600081519050620013768162001c2e565b92915050565b6000602082840312156200138f57600080fd5b60006200139f84828501620012c4565b91505092915050565b60008060408385031215620013bc57600080fd5b6000620013cc85828601620012c4565b9250506020620013df85828601620012c4565b9150509250929050565b600080600060608486031215620013ff57600080fd5b60006200140f86828701620012c4565b93505060206200142286828701620012c4565b92505060406200143586828701620012c4565b9150509250925092565b6000806000606084860312156200145557600080fd5b60006200146586828701620012c4565b93505060206200147886828701620012c4565b92505060406200148b868287016200134e565b9150509250925092565b60008060408385031215620014a957600080fd5b6000620014b985828601620012c4565b9250506020620014cc858286016200134e565b9150509250929050565b600080600060608486031215620014ec57600080fd5b6000620014fc86828701620012c4565b93505060206200150f868287016200134e565b92505060406200152286828701620012c4565b9150509250925092565b6000602082840312156200153f57600080fd5b60006200154f84828501620012db565b91505092915050565b6000602082840312156200156b57600080fd5b600082013567ffffffffffffffff8111156200158657600080fd5b6200159484828501620012f2565b91505092915050565b60008060408385031215620015b157600080fd5b600083013567ffffffffffffffff811115620015cc57600080fd5b620015da85828601620012f2565b9250506020620015ed85828601620012c4565b9150509250929050565b600080604083850312156200160b57600080fd5b600083013567ffffffffffffffff8111156200162657600080fd5b6200163485828601620012f2565b925050602083013567ffffffffffffffff8111156200165257600080fd5b6200166085828601620012f2565b9150509250929050565b600080604083850312156200167e57600080fd5b600083013567ffffffffffffffff8111156200169957600080fd5b620016a785828601620012f2565b9250506020620016ba858286016200134e565b9150509250929050565b600080600060608486031215620016da57600080fd5b600084013567ffffffffffffffff811115620016f557600080fd5b6200170386828701620012f2565b935050602062001716868287016200134e565b92505060406200172986828701620012c4565b9150509250925092565b6000602082840312156200174657600080fd5b6000620017568482850162001365565b91505092915050565b6200176a8162001b68565b82525050565b6200177b8162001b1e565b82525050565b6200178c8162001b32565b82525050565b60006200179f8262001af7565b620017ab818562001b02565b9350620017bd81856020860162001bb3565b620017c88162001be9565b840191505092915050565b6000620017e08262001af7565b620017ec818562001b13565b9350620017fe81856020860162001bb3565b80840191505092915050565b60006200181960158362001b02565b91507f546f6b656e73206469646e74207472616e7366657200000000000000000000006000830152602082019050919050565b60006200185b60248362001b02565b91507f4e6f7420656e6f75676820746f6b656e732068617665206265656e206170707260008301527f6f766564000000000000000000000000000000000000000000000000000000006020830152604082019050919050565b620018bf8162001b5e565b82525050565b6000620018d38284620017d3565b915081905092915050565b6000602082019050620018f5600083018462001770565b92915050565b60006040820190506200191260008301856200175f565b62001921602083018462001770565b9392505050565b60006060820190506200193f60008301866200175f565b6200194e602083018562001770565b6200195d6040830184620018b4565b949350505050565b60006040820190506200197c600083018562001770565b6200198b602083018462001770565b9392505050565b6000604082019050620019a9600083018562001770565b620019b86020830184620018b4565b9392505050565b6000602082019050620019d6600083018462001781565b92915050565b60006020820190508181036000830152620019f8818462001792565b905092915050565b6000604082019050818103600083015262001a1c818562001792565b9050818103602083015262001a32818462001792565b90509392505050565b6000602082019050818103600083015262001a56816200180a565b9050919050565b6000602082019050818103600083015262001a78816200184c565b9050919050565b600060208201905062001a966000830184620018b4565b92915050565b6000604051905081810181811067ffffffffffffffff8211171562001ac057600080fd5b8060405250919050565b600067ffffffffffffffff82111562001ae257600080fd5b601f19601f8301169050602081019050919050565b600081519050919050565b600082825260208201905092915050565b600081905092915050565b600062001b2b8262001b3e565b9050919050565b60008115159050919050565b600073ffffffffffffffffffffffffffffffffffffffff82169050919050565b6000819050919050565b600062001b758262001b7c565b9050919050565b600062001b898262001b90565b9050919050565b600062001b9d8262001b3e565b9050919050565b82818337600083830152505050565b60005b8381101562001bd357808201518184015260208101905062001bb6565b8381111562001be3576000848401525b50505050565b6000601f19601f8301169050919050565b62001c058162001b1e565b811462001c1157600080fd5b50565b62001c1f8162001b32565b811462001c2b57600080fd5b50565b62001c398162001b5e565b811462001c4557600080fd5b5056fe60806040523480156200001157600080fd5b5060405162001a6038038062001a60833981810160405260408110156200003757600080fd5b81019080805160405193929190846401000000008211156200005857600080fd5b838201915060208201858111156200006f57600080fd5b82518660018202830111640100000000821117156200008d57600080fd5b8083526020830192505050908051906020019080838360005b83811015620000c3578082015181840152602081019050620000a6565b50505050905090810190601f168015620000f15780820380516001836020036101000a031916815260200191505b50604052602001805160405193929190846401000000008211156200011557600080fd5b838201915060208201858111156200012c57600080fd5b82518660018202830111640100000000821117156200014a57600080fd5b8083526020830192505050908051906020019080838360005b838110156200018057808201518184015260208101905062000163565b50505050905090810190601f168015620001ae5780820380516001836020036101000a031916815260200191505b5060405250505081818160039080519060200190620001cf92919062000250565b508060049080519060200190620001e892919062000250565b506012600560006101000a81548160ff021916908360ff160217905550505033600560016101000a81548173ffffffffffffffffffffffffffffffffffffffff021916908373ffffffffffffffffffffffffffffffffffffffff1602179055505050620002f6565b828054600181600116156101000203166002900490600052602060002090601f016020900481019282601f106200029357805160ff1916838001178555620002c4565b82800160010185558215620002c4579182015b82811115620002c3578251825591602001919060010190620002a6565b5b509050620002d39190620002d7565b5090565b5b80821115620002f2576000816000905550600101620002d8565b5090565b61175a80620003066000396000f3fe608060405234801561001057600080fd5b50600436106100cf5760003560e01c806340c10f191161008c57806395d89b411161006657806395d89b41146103b6578063a457c2d714610439578063a9059cbb1461049d578063dd62ed3e14610501576100cf565b806340c10f19146102e257806342966c681461033057806370a082311461035e576100cf565b806306fdde03146100d4578063095ea7b31461015757806318160ddd146101bb57806323b872dd146101d9578063313ce5671461025d578063395093511461027e575b600080fd5b6100dc610579565b6040518080602001828103825283818151815260200191508051906020019080838360005b8381101561011c578082015181840152602081019050610101565b50505050905090810190601f1680156101495780820380516001836020036101000a031916815260200191505b509250505060405180910390f35b6101a36004803603604081101561016d57600080fd5b81019080803573ffffffffffffffffffffffffffffffffffffffff1690602001909291908035906020019092919050505061061b565b60405180821515815260200191505060405180910390f35b6101c3610639565b6040518082815260200191505060405180910390f35b610245600480360360608110156101ef57600080fd5b81019080803573ffffffffffffffffffffffffffffffffffffffff169060200190929190803573ffffffffffffffffffffffffffffffffffffffff16906020019092919080359060200190929190505050610643565b60405180821515815260200191505060405180910390f35b61026561071c565b604051808260ff16815260200191505060405180910390f35b6102ca6004803603604081101561029457600080fd5b81019080803573ffffffffffffffffffffffffffffffffffffffff16906020019092919080359060200190929190505050610733565b60405180821515815260200191505060405180910390f35b61032e600480360360408110156102f857600080fd5b81019080803573ffffffffffffffffffffffffffffffffffffffff169060200190929190803590602001909291905050506107e6565b005b61035c6004803603602081101561034657600080fd5b810190808035906020019092919050505061089a565b005b6103a06004803603602081101561037457600080fd5b81019080803573ffffffffffffffffffffffffffffffffffffffff169060200190929190505050610954565b6040518082815260200191505060405180910390f35b6103be61099c565b6040518080602001828103825283818151815260200191508051906020019080838360005b838110156103fe5780820151818401526020810190506103e3565b50505050905090810190601f16801561042b5780820380516001836020036101000a031916815260200191505b509250505060405180910390f35b6104856004803603604081101561044f57600080fd5b81019080803573ffffffffffffffffffffffffffffffffffffffff16906020019092919080359060200190929190505050610a3e565b60405180821515815260200191505060405180910390f35b6104e9600480360360408110156104b357600080fd5b81019080803573ffffffffffffffffffffffffffffffffffffffff16906020019092919080359060200190929190505050610b0b565b60405180821515815260200191505060405180910390f35b6105636004803603604081101561051757600080fd5b81019080803573ffffffffffffffffffffffffffffffffffffffff169060200190929190803573ffffffffffffffffffffffffffffffffffffffff169060200190929190505050610b29565b6040518082815260200191505060405180910390f35b606060038054600181600116156101000203166002900480601f0160208091040260200160405190810160405280929190818152602001828054600181600116156101000203166002900480156106115780601f106105e657610100808354040283529160200191610611565b820191906000526020600020905b8154815290600101906020018083116105f457829003601f168201915b5050505050905090565b600061062f610628610bb0565b8484610bb8565b6001905092915050565b6000600254905090565b6000610650848484610daf565b6107118461065c610bb0565b61070c8560405180606001604052806028815260200161166e60289139600160008b73ffffffffffffffffffffffffffffffffffffffff1673ffffffffffffffffffffffffffffffffffffffff16815260200190815260200160002060006106c2610bb0565b73ffffffffffffffffffffffffffffffffffffffff1673ffffffffffffffffffffffffffffffffffffffff168152602001908152602001600020546110709092919063ffffffff16565b610bb8565b600190509392505050565b6000600560009054906101000a900460ff16905090565b60006107dc610740610bb0565b846107d78560016000610751610bb0565b73ffffffffffffffffffffffffffffffffffffffff1673ffffffffffffffffffffffffffffffffffffffff16815260200190815260200160002060008973ffffffffffffffffffffffffffffffffffffffff1673ffffffffffffffffffffffffffffffffffffffff1681526020019081526020016000205461113090919063ffffffff16565b610bb8565b6001905092915050565b600560019054906101000a900473ffffffffffffffffffffffffffffffffffffffff1673ffffffffffffffffffffffffffffffffffffffff163373ffffffffffffffffffffffffffffffffffffffff161461088c576040517f08c379a00000000000000000000000000000000000000000000000000000000081526004018080602001828103825260278152602001806116206027913960400191505060405180910390fd5b61089682826111b8565b5050565b600560019054906101000a900473ffffffffffffffffffffffffffffffffffffffff1673ffffffffffffffffffffffffffffffffffffffff163373ffffffffffffffffffffffffffffffffffffffff1614610940576040517f08c379a00000000000000000000000000000000000000000000000000000000081526004018080602001828103825260278152602001806116476027913960400191505060405180910390fd5b61095161094b610bb0565b8261137f565b50565b60008060008373ffffffffffffffffffffffffffffffffffffffff1673ffffffffffffffffffffffffffffffffffffffff168152602001908152602001600020549050919050565b606060048054600181600116156101000203166002900480601f016020809104026020016040519081016040528092919081815260200182805460018160011615610100020316600290048015610a345780601f10610a0957610100808354040283529160200191610a34565b820191906000526020600020905b815481529060010190602001808311610a1757829003601f168201915b5050505050905090565b6000610b01610a4b610bb0565b84610afc856040518060600160405280602581526020016117006025913960016000610a75610bb0565b73ffffffffffffffffffffffffffffffffffffffff1673ffffffffffffffffffffffffffffffffffffffff16815260200190815260200160002060008a73ffffffffffffffffffffffffffffffffffffffff1673ffffffffffffffffffffffffffffffffffffffff168152602001908152602001600020546110709092919063ffffffff16565b610bb8565b6001905092915050565b6000610b1f610b18610bb0565b8484610daf565b6001905092915050565b6000600160008473ffffffffffffffffffffffffffffffffffffffff1673ffffffffffffffffffffffffffffffffffffffff16815260200190815260200160002060008373ffffffffffffffffffffffffffffffffffffffff1673ffffffffffffffffffffffffffffffffffffffff16815260200190815260200160002054905092915050565b600033905090565b600073ffffffffffffffffffffffffffffffffffffffff168373ffffffffffffffffffffffffffffffffffffffff161415610c3e576040517f08c379a00000000000000000000000000000000000000000000000000000000081526004018080602001828103825260248152602001806116dc6024913960400191505060405180910390fd5b600073ffffffffffffffffffffffffffffffffffffffff168273ffffffffffffffffffffffffffffffffffffffff161415610cc4576040517f08c379a00000000000000000000000000000000000000000000000000000000081526004018080602001828103825260228152602001806115d86022913960400191505060405180910390fd5b80600160008573ffffffffffffffffffffffffffffffffffffffff1673ffffffffffffffffffffffffffffffffffffffff16815260200190815260200160002060008473ffffffffffffffffffffffffffffffffffffffff1673ffffffffffffffffffffffffffffffffffffffff168152602001908152602001600020819055508173ffffffffffffffffffffffffffffffffffffffff168373ffffffffffffffffffffffffffffffffffffffff167f8c5be1e5ebec7d5bd14f71427d1e84f3dd0314c0f7b2291e5b200ac8c7c3b925836040518082815260200191505060405180910390a3505050565b600073ffffffffffffffffffffffffffffffffffffffff168373ffffffffffffffffffffffffffffffffffffffff161415610e35576040517f08c379a00000000000000000000000000000000000000000000000000000000081526004018080602001828103825260258152602001806116b76025913960400191505060405180910390fd5b600073ffffffffffffffffffffffffffffffffffffffff168273ffffffffffffffffffffffffffffffffffffffff161415610ebb576040517f08c379a00000000000000000000000000000000000000000000000000000000081526004018080602001828103825260238152602001806115936023913960400191505060405180910390fd5b610ec6838383611543565b610f31816040518060600160405280602681526020016115fa602691396000808773ffffffffffffffffffffffffffffffffffffffff1673ffffffffffffffffffffffffffffffffffffffff168152602001908152602001600020546110709092919063ffffffff16565b6000808573ffffffffffffffffffffffffffffffffffffffff1673ffffffffffffffffffffffffffffffffffffffff16815260200190815260200160002081905550610fc4816000808573ffffffffffffffffffffffffffffffffffffffff1673ffffffffffffffffffffffffffffffffffffffff1681526020019081526020016000205461113090919063ffffffff16565b6000808473ffffffffffffffffffffffffffffffffffffffff1673ffffffffffffffffffffffffffffffffffffffff168152602001908152602001600020819055508173ffffffffffffffffffffffffffffffffffffffff168373ffffffffffffffffffffffffffffffffffffffff167fddf252ad1be2c89b69c2b068fc378daa952ba7f163c4a11628f55a4df523b3ef836040518082815260200191505060405180910390a3505050565b600083831115829061111d576040517f08c379a00000000000000000000000000000000000000000000000000000000081526004018080602001828103825283818151815260200191508051906020019080838360005b838110156110e25780820151818401526020810190506110c7565b50505050905090810190601f16801561110f5780820380516001836020036101000a031916815260200191505b509250505060405180910390fd5b5060008385039050809150509392505050565b6000808284019050838110156111ae576040517f08c379a000000000000000000000000000000000000000000000000000000000815260040180806020018281038252601b8152602001807f536166654d6174683a206164646974696f6e206f766572666c6f77000000000081525060200191505060405180910390fd5b8091505092915050565b600073ffffffffffffffffffffffffffffffffffffffff168273ffffffffffffffffffffffffffffffffffffffff16141561125b576040517f08c379a000000000000000000000000000000000000000000000000000000000815260040180806020018281038252601f8152602001807f45524332303a206d696e7420746f20746865207a65726f20616464726573730081525060200191505060405180910390fd5b61126760008383611543565b61127c8160025461113090919063ffffffff16565b6002819055506112d3816000808573ffffffffffffffffffffffffffffffffffffffff1673ffffffffffffffffffffffffffffffffffffffff1681526020019081526020016000205461113090919063ffffffff16565b6000808473ffffffffffffffffffffffffffffffffffffffff1673ffffffffffffffffffffffffffffffffffffffff168152602001908152602001600020819055508173ffffffffffffffffffffffffffffffffffffffff16600073ffffffffffffffffffffffffffffffffffffffff167fddf252ad1be2c89b69c2b068fc378daa952ba7f163c4a11628f55a4df523b3ef836040518082815260200191505060405180910390a35050565b600073ffffffffffffffffffffffffffffffffffffffff168273ffffffffffffffffffffffffffffffffffffffff161415611405576040517f08c379a00000000000000000000000000000000000000000000000000000000081526004018080602001828103825260218152602001806116966021913960400191505060405180910390fd5b61141182600083611543565b61147c816040518060600160405280602281526020016115b6602291396000808673ffffffffffffffffffffffffffffffffffffffff1673ffffffffffffffffffffffffffffffffffffffff168152602001908152602001600020546110709092919063ffffffff16565b6000808473ffffffffffffffffffffffffffffffffffffffff1673ffffffffffffffffffffffffffffffffffffffff168152602001908152602001600020819055506114d38160025461154890919063ffffffff16565b600281905550600073ffffffffffffffffffffffffffffffffffffffff168273ffffffffffffffffffffffffffffffffffffffff167fddf252ad1be2c89b69c2b068fc378daa952ba7f163c4a11628f55a4df523b3ef836040518082815260200191505060405180910390a35050565b505050565b600061158a83836040518060400160405280601e81526020017f536166654d6174683a207375627472616374696f6e206f766572666c6f770000815250611070565b90509291505056fe45524332303a207472616e7366657220746f20746865207a65726f206164647265737345524332303a206275726e20616d6f756e7420657863656564732062616c616e636545524332303a20617070726f766520746f20746865207a65726f206164647265737345524332303a207472616e7366657220616d6f756e7420657863656564732062616c616e63654f6e6c792074686520636f6e7472616374206f776e65722063616e204d696e7420546f6b656e734f6e6c792074686520636f6e7472616374206f776e65722063616e204275726e20546f6b656e7345524332303a207472616e7366657220616d6f756e74206578636565647320616c6c6f77616e636545524332303a206275726e2066726f6d20746865207a65726f206164647265737345524332303a207472616e736665722066726f6d20746865207a65726f206164647265737345524332303a20617070726f76652066726f6d20746865207a65726f206164647265737345524332303a2064656372656173656420616c6c6f77616e63652062656c6f77207a65726fa2646970667358221220cf9dfb4a5b4eed454f54fa00d528cc3019abd50f6aa902b66e41ff4093dfd68564736f6c634300060c0033a2646970667358221220213f1358db99281b88a8d9586a0e2388fe25b74a334a27bb2b89e8b9a9bbc9bd64736f6c634300060c0033",
  "immutableReferences": {},
  "source": "pragma solidity >=0.4.20;\npragma experimental ABIEncoderV2;\n\nimport \"./Token.sol\";\n\ncontract TokenManager {\n\n    event TokenCreated(address tokenAddress);\n    //array of contracts address mapped to the token name\n    struct hostedToken{\n        address contractAddress;\n        bool VerusOwned;\n        bool isRegistered;\n    }\n    mapping(string => hostedToken) vERC20Tokens;\n    mapping(address => string) vERC20TokenNames;\n\n    //receive tokens that arent owned by the contract these would need to be authorised before transfer\n    function receiveERC20Tokens(address contractAddress,uint256 tokenAmount) public {\n        //transfer the tokens to the contract address\n        //if its not approved it wont work\n        Token token = Token(contractAddress);\n        uint256 allowedTokens = token.allowance(msg.sender,address(this));\n        require( allowedTokens >= tokenAmount,\"Not enough tokens have been approved\");\n        token.transferFrom(msg.sender,address(this),tokenAmount);   \n        \n        string memory tokenName = vERC20TokenNames[contractAddress];\n        hostedToken memory tokenDetail = vERC20Tokens[tokenName];\n        //if the token has been cerated by this contract then burn the token\n        if(tokenDetail.VerusOwned){\n            require(token.balanceOf(address(this)) >= tokenAmount,\"Tokens didnt transfer\");\n            burnToken(contractAddress,tokenAmount);\n        } else {\n            //the contract stores the token\n        }\n    }\n\n    function receiveERC20Tokens(string memory tokenName,uint256 tokenAmount) public {\n        address contactAddress = getTokenAddress(tokenName);\n        receiveERC20Tokens(contactAddress,tokenAmount);\n    }\n    \n    function sendERC20Tokens(address contractAddress,uint256 tokenAmount,address destinationAddress) public returns(bool){\n        string memory tokenName = vERC20TokenNames[contractAddress];\n        hostedToken memory tokenDetail = vERC20Tokens[tokenName];\n        \n        //if the token has been created by this contract then burn the token\n        \n        if(tokenDetail.VerusOwned){\n            mintToken(contractAddress,tokenAmount,destinationAddress);\n        } else {\n            //transfer from the \n            Token token = Token(contractAddress);\n            token.transfer(destinationAddress,tokenAmount);   \n        }\n    }\n\n    function sendERC20Tokens(string memory tokenName,uint256 tokenAmount,address destinationAddress) public {\n        address contactAddress = getTokenAddress(tokenName);\n        sendERC20Tokens(contactAddress,tokenAmount,destinationAddress);        \n    }\n\n    function deployNewToken(string memory tokenName, string memory symbol)\n    public returns (address) {\n        if(isToken(tokenName)) return getTokenAddress(tokenName);\n        Token t = new Token(tokenName, symbol);\n        vERC20Tokens[tokenName]= hostedToken(address(t),true,true);\n        vERC20TokenNames[address(t)] = tokenName;\n        emit TokenCreated(address(t));\n        return address(t);\n    }\n\n    function balanceOf(address contractAddress,address account) public view returns(uint256){\n        Token token = Token(contractAddress);\n        return token.balanceOf(account);\n    }\n    function approve(address contractAddress,address spender, uint256 amount) public {\n        Token token = Token(contractAddress);\n        token.approve(spender,amount);\n    }\n    function allowance(address contractAddress,address owner, address spender) public view returns(uint256){\n        Token token = Token(contractAddress);\n        return token.allowance(owner,spender);\n    }\n\n    function mintToken(address contractAddress,uint256 mintAmount,address recipient) public {\n        Token token = Token(contractAddress);\n        token.mint(recipient,mintAmount);\n    }\n\n    function burnToken(address contractAddress,uint burnAmount) public {\n        Token token = Token(contractAddress);\n        token.burn(burnAmount);\n    }\n\n    function addExistingToken(string memory name, address contactAddress) public{\n        require(!isToken(name));\n        vERC20Tokens[name] = hostedToken(contactAddress,false,true);\n    }\n\n    function isToken(string memory name) public view returns(bool){\n        if(vERC20Tokens[name].isRegistered) return true;\n        else return false;\n    }\n\n    function isVerusOwned(string memory name) public view returns(bool){\n        if(vERC20Tokens[name].VerusOwned) return true;\n        else return false;\n    }\n\n    function getTokenAddress(string memory name) public view returns(address){\n        return vERC20Tokens[name].contractAddress;\n    }\n\n    function getTokenName(address tokenAddress) public view returns(string memory){\n        return vERC20TokenNames[tokenAddress];\n    }\n\n\n}",
  "sourcePath": "/Volumes/UsersSSD/james/Development/komodo-notarisation-solidity/contracts/VerusBridge/TokenManager.sol",
  "compiler": {
    "name": "solc",
    "version": "0.6.12+commit.27d51765.Emscripten.clang"
  },
  "schemaVersion": "3.3.0",
  "updatedAt": "2020-11-04T11:31:49.568Z",
  "devdoc": {
    "kind": "dev",
    "methods": {},
    "version": 1
  },
  "userdoc": {
    "kind": "user",
    "methods": {},
    "version": 1
  }
}