{
  "contractName": "TokenManager",
  "abi": [
    {
      "inputs": [],
      "stateMutability": "nonpayable",
      "type": "constructor"
    },
    {
      "anonymous": false,
      "inputs": [
        {
          "indexed": false,
          "internalType": "address",
          "name": "tokenAddress",
          "type": "address"
        }
      ],
      "name": "TokenCreated",
      "type": "event"
    },
    {
      "inputs": [
        {
          "internalType": "address",
          "name": "",
          "type": "address"
        }
      ],
      "name": "destinationToAddress",
      "outputs": [
        {
          "internalType": "address",
          "name": "",
          "type": "address"
        }
      ],
      "stateMutability": "view",
      "type": "function",
      "constant": true
    },
    {
      "inputs": [
        {
          "internalType": "address",
          "name": "",
          "type": "address"
        }
      ],
      "name": "vERC20Tokens",
      "outputs": [
        {
          "internalType": "address",
          "name": "destinationCurrencyID",
          "type": "address"
        },
        {
          "internalType": "bool",
          "name": "VerusOwned",
          "type": "bool"
        },
        {
          "internalType": "bool",
          "name": "isRegistered",
          "type": "bool"
        }
      ],
      "stateMutability": "view",
      "type": "function",
      "constant": true
    },
    {
      "inputs": [
        {
          "internalType": "address",
          "name": "",
          "type": "address"
        }
      ],
      "name": "verusToERC20mapping",
      "outputs": [
        {
          "internalType": "address",
          "name": "destinationCurrencyID",
          "type": "address"
        },
        {
          "internalType": "bool",
          "name": "VerusOwned",
          "type": "bool"
        },
        {
          "internalType": "bool",
          "name": "isRegistered",
          "type": "bool"
        }
      ],
      "stateMutability": "view",
      "type": "function",
      "constant": true
    },
    {
      "inputs": [
        {
          "internalType": "address",
          "name": "_verusBridgeContract",
          "type": "address"
        }
      ],
      "name": "setVerusBridgeContract",
      "outputs": [],
      "stateMutability": "nonpayable",
      "type": "function"
    },
    {
      "inputs": [
        {
          "internalType": "address",
          "name": "_contractAddress",
          "type": "address"
        },
        {
          "internalType": "uint256",
          "name": "_tokenAmount",
          "type": "uint256"
        }
      ],
      "name": "exportERC20Tokens",
      "outputs": [],
      "stateMutability": "nonpayable",
      "type": "function"
    },
    {
      "inputs": [
        {
          "internalType": "address",
          "name": "_destCurrencyID",
          "type": "address"
        },
        {
          "internalType": "uint256",
          "name": "_tokenAmount",
          "type": "uint256"
        },
        {
          "internalType": "address",
          "name": "_destination",
          "type": "address"
        }
      ],
      "name": "importERC20Tokens",
      "outputs": [],
      "stateMutability": "nonpayable",
      "type": "function"
    },
    {
      "inputs": [
        {
          "internalType": "address",
          "name": "_contractAddress",
          "type": "address"
        },
        {
          "internalType": "address",
          "name": "_account",
          "type": "address"
        }
      ],
      "name": "balanceOf",
      "outputs": [
        {
          "internalType": "uint256",
          "name": "",
          "type": "uint256"
        }
      ],
      "stateMutability": "view",
      "type": "function",
      "constant": true
    },
    {
      "inputs": [
        {
          "internalType": "address",
          "name": "_contractAddress",
          "type": "address"
        },
        {
          "internalType": "address",
          "name": "_owner",
          "type": "address"
        },
        {
          "internalType": "address",
          "name": "_spender",
          "type": "address"
        }
      ],
      "name": "allowance",
      "outputs": [
        {
          "internalType": "uint256",
          "name": "",
          "type": "uint256"
        }
      ],
      "stateMutability": "view",
      "type": "function",
      "constant": true
    },
    {
      "inputs": [
        {
          "internalType": "address",
          "name": "_contractAddress",
          "type": "address"
        }
      ],
      "name": "addExistingToken",
      "outputs": [
        {
          "internalType": "address",
          "name": "",
          "type": "address"
        }
      ],
      "stateMutability": "nonpayable",
      "type": "function"
    },
    {
      "inputs": [
        {
          "internalType": "address",
          "name": "_destinationCurrencyID",
          "type": "address"
        },
        {
          "internalType": "string",
          "name": "_tokenName",
          "type": "string"
        },
        {
          "internalType": "string",
          "name": "_symbol",
          "type": "string"
        }
      ],
      "name": "deployNewToken",
      "outputs": [
        {
          "internalType": "address",
          "name": "",
          "type": "address"
        }
      ],
      "stateMutability": "nonpayable",
      "type": "function"
    },
    {
      "inputs": [
        {
          "internalType": "address",
          "name": "_destinationCurrencyID",
          "type": "address"
        }
      ],
      "name": "deployNewToken",
      "outputs": [
        {
          "internalType": "address",
          "name": "",
          "type": "address"
        }
      ],
      "stateMutability": "nonpayable",
      "type": "function"
    },
    {
      "inputs": [
        {
          "internalType": "string",
          "name": "_tokenName",
          "type": "string"
        }
      ],
      "name": "generateDestinationCurrencyID",
      "outputs": [
        {
          "internalType": "address",
          "name": "",
          "type": "address"
        }
      ],
      "stateMutability": "view",
      "type": "function",
      "constant": true
    },
    {
      "inputs": [
        {
          "internalType": "address",
          "name": "_contractAddress",
          "type": "address"
        }
      ],
      "name": "isToken",
      "outputs": [
        {
          "internalType": "bool",
          "name": "",
          "type": "bool"
        }
      ],
      "stateMutability": "view",
      "type": "function",
      "constant": true
    },
    {
      "inputs": [
        {
          "internalType": "address",
          "name": "_contractAddress",
          "type": "address"
        }
      ],
      "name": "isVerusOwned",
      "outputs": [
        {
          "internalType": "bool",
          "name": "",
          "type": "bool"
        }
      ],
      "stateMutability": "view",
      "type": "function",
      "constant": true
    }
  ],
  "bytecode": "0x608060405234801561001057600080fd5b506000600360006101000a81548173ffffffffffffffffffffffffffffffffffffffff021916908373ffffffffffffffffffffffffffffffffffffffff16021790555061480c806100626000396000f3fe60806040523480156200001157600080fd5b5060043610620001005760003560e01c8063b17f15a21162000099578063d2a5bdb1116200006f578063d2a5bdb1146200030f578063f7888aec146200032f578063fe40694d1462000365578063ff409190146200039b5762000100565b8063b17f15a2146200026b578063c2ab4c6014620002a3578063cad6747814620002d95762000100565b8063826737fc11620000db578063826737fc14620001a95780639033ef3f14620001df578063927da10514620001ff5780639356344114620002355762000100565b806319f3736114620001055780632fb5b2f5146200013b578063560613151462000173575b600080fd5b6200012360048036038101906200011d91906200201a565b620003bb565b60405162000132919062002905565b60405180910390f35b6200015960048036038101906200015391906200201a565b62000414565b6040516200016a939291906200289b565b60405180910390f35b6200019160048036038101906200018b91906200201a565b62000478565b604051620001a09190620027e7565b60405180910390f35b620001c76004803603810190620001c191906200201a565b620006ea565b604051620001d69190620027e7565b60405180910390f35b620001fd6004803603810190620001f7919062002191565b6200071d565b005b6200021d6004803603810190620002179190620020b3565b62000b18565b6040516200022c919062002a6f565b60405180910390f35b6200025360048036038101906200024d919062002280565b62000bb9565b604051620002629190620027e7565b60405180910390f35b6200028960048036038101906200028391906200201a565b62000f8a565b6040516200029a939291906200289b565b60405180910390f35b620002c16004803603810190620002bb919062002109565b62000fee565b604051620002d09190620027e7565b60405180910390f35b620002f76004803603810190620002f191906200201a565b620013b6565b60405162000306919062002905565b60405180910390f35b6200032d6004803603810190620003279190620021d2565b6200140f565b005b6200034d600480360381019062000347919062002072565b620016c1565b6040516200035c919062002a6f565b60405180910390f35b6200038360048036038101906200037d91906200201a565b6200175f565b604051620003929190620027e7565b60405180910390f35b620003b96004803603810190620003b391906200201a565b62001a85565b005b6000600260008373ffffffffffffffffffffffffffffffffffffffff1673ffffffffffffffffffffffffffffffffffffffff16815260200190815260200160002060000160159054906101000a900460ff169050919050565b60026020528060005260406000206000915090508060000160009054906101000a900473ffffffffffffffffffffffffffffffffffffffff16908060000160149054906101000a900460ff16908060000160159054906101000a900460ff16905083565b60006200048582620003bb565b15620004c8576040517f08c379a0000000000000000000000000000000000000000000000000000000008152600401620004bf90620029c5565b60405180910390fd5b60008290506000620005608273ffffffffffffffffffffffffffffffffffffffff166306fdde036040518163ffffffff1660e01b815260040160006040518083038186803b1580156200051a57600080fd5b505afa1580156200052f573d6000803e3d6000fd5b505050506040513d6000823e3d601f19601f820116820180604052508101906200055a9190620022c5565b62000bb9565b905060405180606001604052808273ffffffffffffffffffffffffffffffffffffffff16815260200160001515815260200160011515815250600260008673ffffffffffffffffffffffffffffffffffffffff1673ffffffffffffffffffffffffffffffffffffffff16815260200190815260200160002060008201518160000160006101000a81548173ffffffffffffffffffffffffffffffffffffffff021916908373ffffffffffffffffffffffffffffffffffffffff16021790555060208201518160000160146101000a81548160ff02191690831515021790555060408201518160000160156101000a81548160ff02191690831515021790555090505083600160008373ffffffffffffffffffffffffffffffffffffffff1673ffffffffffffffffffffffffffffffffffffffff16815260200190815260200160002060006101000a81548173ffffffffffffffffffffffffffffffffffffffff021916908373ffffffffffffffffffffffffffffffffffffffff1602179055508092505050919050565b60016020528060005260406000206000915054906101000a900473ffffffffffffffffffffffffffffffffffffffff1681565b6200072762001b5d565b62000769576040517f08c379a0000000000000000000000000000000000000000000000000000000008152600401620007609062002a4d565b60405180910390fd5b6200077482620003bb565b620007b6576040517f08c379a0000000000000000000000000000000000000000000000000000000008152600401620007ad9062002981565b60405180910390fd5b6000829050620007c562001e63565b60008273ffffffffffffffffffffffffffffffffffffffff1663dd62ed3e33306040518363ffffffff1660e01b81526004016200080492919062002804565b60206040518083038186803b1580156200081d57600080fd5b505afa15801562000832573d6000803e3d6000fd5b505050506040513d601f19601f820116820180604052508101906200085891906200230a565b905083811015620008a0576040517f08c379a0000000000000000000000000000000000000000000000000000000008152600401620008979062002a2b565b60405180910390fd5b8273ffffffffffffffffffffffffffffffffffffffff166323b872dd3330876040518463ffffffff1660e01b8152600401620008df9392919062002831565b602060405180830381600087803b158015620008fa57600080fd5b505af11580156200090f573d6000803e3d6000fd5b505050506040513d601f19601f8201168201806040525081019062000935919062002228565b506200094185620003bb565b62000a1f57600260008673ffffffffffffffffffffffffffffffffffffffff1673ffffffffffffffffffffffffffffffffffffffff1681526020019081526020016000206040518060600160405290816000820160009054906101000a900473ffffffffffffffffffffffffffffffffffffffff1673ffffffffffffffffffffffffffffffffffffffff1673ffffffffffffffffffffffffffffffffffffffff1681526020016000820160149054906101000a900460ff161515151581526020016000820160159054906101000a900460ff16151515158152505091505b81602001511562000b1057838373ffffffffffffffffffffffffffffffffffffffff166370a08231306040518263ffffffff1660e01b815260040162000a669190620027e7565b60206040518083038186803b15801562000a7f57600080fd5b505afa15801562000a94573d6000803e3d6000fd5b505050506040513d601f19601f8201168201806040525081019062000aba91906200230a565b101562000afe576040517f08c379a000000000000000000000000000000000000000000000000000000000815260040162000af590620029e7565b60405180910390fd5b62000b0a858562001c17565b62000b11565b5b5050505050565b6000808490508073ffffffffffffffffffffffffffffffffffffffff1663dd62ed3e85856040518363ffffffff1660e01b815260040162000b5b9291906200286e565b60206040518083038186803b15801562000b7457600080fd5b505afa15801562000b89573d6000803e3d6000fd5b505050506040513d601f19601f8201168201806040525081019062000baf91906200230a565b9150509392505050565b60008073__VerusAddressCalculator________________63cfb51928846040518263ffffffff1660e01b815260040162000bf5919062002922565b60206040518083038186803b15801562000c0e57600080fd5b505af415801562000c23573d6000803e3d6000fd5b505050506040513d601f19601f8201168201806040525081019062000c49919062002254565b60405160200162000c5b91906200274f565b604051602081830303815290604052905060008060009050606060006009905060608073__VerusAddressCalculator________________6315706fdf887f2e65726332302e6574682e00000000000000000000000000000000000000000060405160200162000ccd92919062002785565b6040516020818303038152906040526040518263ffffffff1660e01b815260040162000cfa919062002922565b60206040518083038186803b15801562000d1357600080fd5b505af415801562000d28573d6000803e3d6000fd5b505050506040513d601f19601f8201168201806040525081019062000d4e919062002046565b95505b62000d5c86620003bb565b1562000f7b57848060010195505062000d758562001c90565b93508660405160200162000d8a91906200276c565b60405160208183030381529060405291508360405160200162000dae9190620027b1565b6040516020818303038152906040529050600083101562000e06576040517f08c379a000000000000000000000000000000000000000000000000000000000815260040162000dfd90620029a3565b60405180910390fd5b6000600190505b8151811162000e7e5781818351038151811062000e2657fe5b602001015160f81c60f81b83828551038151811062000e4157fe5b60200101907effffffffffffffffffffffffffffffffffffffffffffffffffffffffffffff1916908160001a905350808060010191505062000e0d565b508160405160200162000e9291906200276c565b604051602081830303815290604052965073__VerusAddressCalculator________________6315706fdf887f2e65726332302e6574682e00000000000000000000000000000000000000000060405160200162000ef292919062002785565b6040516020818303038152906040526040518263ffffffff1660e01b815260040162000f1f919062002922565b60206040518083038186803b15801562000f3857600080fd5b505af415801562000f4d573d6000803e3d6000fd5b505050506040513d601f19601f8201168201806040525081019062000f73919062002046565b955062000d51565b85975050505050505050919050565b60006020528060005260406000206000915090508060000160009054906101000a900473ffffffffffffffffffffffffffffffffffffffff16908060000160149054906101000a900460ff16908060000160159054906101000a900460ff16905083565b600062000ffa62001b5d565b6200103c576040517f08c379a0000000000000000000000000000000000000000000000000000000008152600401620010339062002a4d565b60405180910390fd5b6200104784620003bb565b15620010b557600160008573ffffffffffffffffffffffffffffffffffffffff1673ffffffffffffffffffffffffffffffffffffffff16815260200190815260200160002060009054906101000a900473ffffffffffffffffffffffffffffffffffffffff169050620013af565b60008383604051620010c79062001e9e565b620010d492919062002946565b604051809103906000f080158015620010f1573d6000803e3d6000fd5b50905060405180606001604052808273ffffffffffffffffffffffffffffffffffffffff168152602001600115158152602001600115158152506000808773ffffffffffffffffffffffffffffffffffffffff1673ffffffffffffffffffffffffffffffffffffffff16815260200190815260200160002060008201518160000160006101000a81548173ffffffffffffffffffffffffffffffffffffffff021916908373ffffffffffffffffffffffffffffffffffffffff16021790555060208201518160000160146101000a81548160ff02191690831515021790555060408201518160000160156101000a81548160ff02191690831515021790555090505060405180606001604052808673ffffffffffffffffffffffffffffffffffffffff16815260200160011515815260200160011515815250600260008373ffffffffffffffffffffffffffffffffffffffff1673ffffffffffffffffffffffffffffffffffffffff16815260200190815260200160002060008201518160000160006101000a81548173ffffffffffffffffffffffffffffffffffffffff021916908373ffffffffffffffffffffffffffffffffffffffff16021790555060208201518160000160146101000a81548160ff02191690831515021790555060408201518160000160156101000a81548160ff02191690831515021790555090505080600160008773ffffffffffffffffffffffffffffffffffffffff1673ffffffffffffffffffffffffffffffffffffffff16815260200190815260200160002060006101000a81548173ffffffffffffffffffffffffffffffffffffffff021916908373ffffffffffffffffffffffffffffffffffffffff1602179055507f2e2b3f61b70d2d131b2a807371103cc98d51adcaa5e9a8f9c32658ad8426e74e81604051620013a29190620027e7565b60405180910390a1809150505b9392505050565b6000600260008373ffffffffffffffffffffffffffffffffffffffff1673ffffffffffffffffffffffffffffffffffffffff16815260200190815260200160002060000160149054906101000a900460ff169050919050565b6200141962001b5d565b6200145b576040517f08c379a0000000000000000000000000000000000000000000000000000000008152600401620014529062002a4d565b60405180910390fd5b60008060008573ffffffffffffffffffffffffffffffffffffffff1673ffffffffffffffffffffffffffffffffffffffff16815260200190815260200160002060000160159054906101000a900460ff16620014c457620014bc846200175f565b905062001527565b600160008573ffffffffffffffffffffffffffffffffffffffff1673ffffffffffffffffffffffffffffffffffffffff16815260200190815260200160002060009054906101000a900473ffffffffffffffffffffffffffffffffffffffff1690505b6000600260008373ffffffffffffffffffffffffffffffffffffffff1673ffffffffffffffffffffffffffffffffffffffff1681526020019081526020016000206040518060600160405290816000820160009054906101000a900473ffffffffffffffffffffffffffffffffffffffff1673ffffffffffffffffffffffffffffffffffffffff1673ffffffffffffffffffffffffffffffffffffffff1681526020016000820160149054906101000a900460ff161515151581526020016000820160159054906101000a900460ff16151515158152505090508060200151156200161f576200161982858562001de7565b620016ba565b60008290508073ffffffffffffffffffffffffffffffffffffffff1663a9059cbb85876040518363ffffffff1660e01b815260040162001661929190620028d8565b602060405180830381600087803b1580156200167c57600080fd5b505af115801562001691573d6000803e3d6000fd5b505050506040513d601f19601f82011682018060405250810190620016b7919062002228565b50505b5050505050565b6000808390508073ffffffffffffffffffffffffffffffffffffffff166370a08231846040518263ffffffff1660e01b8152600401620017029190620027e7565b60206040518083038186803b1580156200171b57600080fd5b505afa15801562001730573d6000803e3d6000fd5b505050506040513d601f19601f820116820180604052508101906200175691906200230a565b91505092915050565b60006200176b62001b5d565b620017ad576040517f08c379a0000000000000000000000000000000000000000000000000000000008152600401620017a49062002a4d565b60405180910390fd5b606073__VerusAddressCalculator________________635e57966d846040518263ffffffff1660e01b8152600401620017e89190620027ca565b60006040518083038186803b1580156200180157600080fd5b505af415801562001816573d6000803e3d6000fd5b505050506040513d6000823e3d601f19601f82011682018060405250810190620018419190620022c5565b9050600073__VerusAddressCalculator________________63cfb51928836040518263ffffffff1660e01b81526004016200187e919062002922565b60206040518083038186803b1580156200189757600080fd5b505af4158015620018ac573d6000803e3d6000fd5b505050506040513d601f19601f82011682018060405250810190620018d2919062002254565b604051602001620018e4919062002732565b60405160208183030381529060405290506000600467ffffffffffffffff811180156200191057600080fd5b506040519080825280601f01601f191660200182016040528015620019445781602001600182028036833780820191505090505b50905060005b600481101562001a6d5760618382815181106200196357fe5b602001015160f81c60f81b60f81c60ff1610158015620019a15750607a8382815181106200198d57fe5b602001015160f81c60f81b60f81c60ff1611155b1562001a0a576020838281518110620019b657fe5b602001015160f81c60f81b60f81c0360f81b828281518110620019d557fe5b60200101907effffffffffffffffffffffffffffffffffffffffffffffffffffffffffffff1916908160001a90535062001a5f565b82818151811062001a1757fe5b602001015160f81c60f81b82828151811062001a2f57fe5b60200101907effffffffffffffffffffffffffffffffffffffffffffffffffffffffffffff1916908160001a9053505b80806001019150506200194a565b5062001a7b85848362000fee565b9350505050919050565b600073ffffffffffffffffffffffffffffffffffffffff16600360009054906101000a900473ffffffffffffffffffffffffffffffffffffffff1673ffffffffffffffffffffffffffffffffffffffff161462001b19576040517f08c379a000000000000000000000000000000000000000000000000000000000815260040162001b109062002a09565b60405180910390fd5b80600360006101000a81548173ffffffffffffffffffffffffffffffffffffffff021916908373ffffffffffffffffffffffffffffffffffffffff16021790555050565b60008073ffffffffffffffffffffffffffffffffffffffff16600360009054906101000a900473ffffffffffffffffffffffffffffffffffffffff1673ffffffffffffffffffffffffffffffffffffffff16141562001bc0576001905062001c14565b600360009054906101000a900473ffffffffffffffffffffffffffffffffffffffff1673ffffffffffffffffffffffffffffffffffffffff163373ffffffffffffffffffffffffffffffffffffffff161490505b90565b60008290508073ffffffffffffffffffffffffffffffffffffffff166342966c68836040518263ffffffff1660e01b815260040162001c57919062002a6f565b600060405180830381600087803b15801562001c7257600080fd5b505af115801562001c87573d6000803e3d6000fd5b50505050505050565b60606000829050600081141562001ce0576040518060400160405280600181526020017f300000000000000000000000000000000000000000000000000000000000000081525091505062001de2565b600081905060005b6000821462001d0d578080600101915050600a828162001d0457fe5b04915062001ce8565b60008167ffffffffffffffff8111801562001d2757600080fd5b506040519080825280601f01601f19166020018201604052801562001d5b5781602001600182028036833780820191505090505b50905060006001830390505b6000851462001dd957600a858162001d7b57fe5b0660300160f81b8282806001900393508151811062001d9657fe5b60200101907effffffffffffffffffffffffffffffffffffffffffffffffffffffffffffff1916908160001a905350600a858162001dd057fe5b04945062001d67565b81955050505050505b919050565b60008390508073ffffffffffffffffffffffffffffffffffffffff166340c10f1983856040518363ffffffff1660e01b815260040162001e29929190620028d8565b600060405180830381600087803b15801562001e4457600080fd5b505af115801562001e59573d6000803e3d6000fd5b5050505050505050565b6040518060600160405280600073ffffffffffffffffffffffffffffffffffffffff1681526020016000151581526020016000151581525090565b611aa38062002d3483390190565b600062001ec362001ebd8462002ac0565b62002a8c565b90508281526020810184848401111562001edc57600080fd5b62001ee984828562002c55565b509392505050565b600062001f0862001f028462002ac0565b62002a8c565b90508281526020810184848401111562001f2157600080fd5b62001f2e84828562002c64565b509392505050565b60008135905062001f478162002ccb565b92915050565b60008151905062001f5e8162002ccb565b92915050565b60008151905062001f758162002ce5565b92915050565b60008151905062001f8c8162002cff565b92915050565b600082601f83011262001fa457600080fd5b813562001fb684826020860162001eac565b91505092915050565b600082601f83011262001fd157600080fd5b815162001fe384826020860162001ef1565b91505092915050565b60008135905062001ffd8162002d19565b92915050565b600081519050620020148162002d19565b92915050565b6000602082840312156200202d57600080fd5b60006200203d8482850162001f36565b91505092915050565b6000602082840312156200205957600080fd5b6000620020698482850162001f4d565b91505092915050565b600080604083850312156200208657600080fd5b6000620020968582860162001f36565b9250506020620020a98582860162001f36565b9150509250929050565b600080600060608486031215620020c957600080fd5b6000620020d98682870162001f36565b9350506020620020ec8682870162001f36565b9250506040620020ff8682870162001f36565b9150509250925092565b6000806000606084860312156200211f57600080fd5b60006200212f8682870162001f36565b935050602084013567ffffffffffffffff8111156200214d57600080fd5b6200215b8682870162001f92565b925050604084013567ffffffffffffffff8111156200217957600080fd5b620021878682870162001f92565b9150509250925092565b60008060408385031215620021a557600080fd5b6000620021b58582860162001f36565b9250506020620021c88582860162001fec565b9150509250929050565b600080600060608486031215620021e857600080fd5b6000620021f88682870162001f36565b93505060206200220b8682870162001fec565b92505060406200221e8682870162001f36565b9150509250925092565b6000602082840312156200223b57600080fd5b60006200224b8482850162001f64565b91505092915050565b6000602082840312156200226757600080fd5b6000620022778482850162001f7b565b91505092915050565b6000602082840312156200229357600080fd5b600082013567ffffffffffffffff811115620022ae57600080fd5b620022bc8482850162001f92565b91505092915050565b600060208284031215620022d857600080fd5b600082015167ffffffffffffffff811115620022f357600080fd5b620023018482850162001fbf565b91505092915050565b6000602082840312156200231d57600080fd5b60006200232d8482850162002003565b91505092915050565b620023418162002c19565b82525050565b620023528162002b41565b82525050565b620023638162002b41565b82525050565b620023748162002b55565b82525050565b6200238f620023898262002b61565b62002c9a565b82525050565b620023aa620023a48262002b97565b62002ca4565b82525050565b620023c5620023bf8262002bc3565b62002cae565b82525050565b6000620023d88262002af3565b620023e4818562002b09565b9350620023f681856020860162002c64565b80840191505092915050565b60006200240f8262002afe565b6200241b818562002b14565b93506200242d81856020860162002c64565b620024388162002cba565b840191505092915050565b6000620024508262002afe565b6200245c818562002b25565b93506200246e81856020860162002c64565b620024798162002cba565b840191505092915050565b6000620024918262002afe565b6200249d818562002b36565b9350620024af81856020860162002c64565b80840191505092915050565b6000620024ca60218362002b14565b91507f546f6b656e20686173206e6f74206265656e207265676973746572656420796560008301527f74000000000000000000000000000000000000000000000000000000000000006020830152604082019050919050565b60006200253260208362002b14565b91507f746f6b656e4e616d65207065726d75746174696f6e732065786365656465642e6000830152602082019050919050565b600062002574601b8362002b14565b91507f546f6b656e20697320616c7265616479207265676973746572656400000000006000830152602082019050919050565b6000620025b660158362002b14565b91507f546f6b656e73206469646e74207472616e7366657200000000000000000000006000830152602082019050919050565b6000620025f860318362002b14565b91507f7665727573427269646765436f6e74726163742041646472657373206861732060008301527f616c7265616479206265656e207365742e0000000000000000000000000000006020830152604082019050919050565b60006200266060248362002b14565b91507f4e6f7420656e6f75676820746f6b656e732068617665206265656e206170707260008301527f6f766564000000000000000000000000000000000000000000000000000000006020830152604082019050919050565b6000620026c860308362002b14565b91507f43616c6c2063616e206f6e6c79206265206d6164652066726f6d20566572757360008301527f2042726964676520436f6e7472616374000000000000000000000000000000006020830152604082019050919050565b6200272c8162002c0f565b82525050565b600062002740828462002395565b60048201915081905092915050565b60006200275d8284620023b0565b60098201915081905092915050565b60006200277a8284620023cb565b915081905092915050565b6000620027938285620023cb565b9150620027a182846200237a565b600b820191508190509392505050565b6000620027bf828462002484565b915081905092915050565b6000602082019050620027e1600083018462002358565b92915050565b6000602082019050620027fe600083018462002347565b92915050565b60006040820190506200281b600083018562002336565b6200282a602083018462002347565b9392505050565b600060608201905062002848600083018662002336565b62002857602083018562002347565b62002866604083018462002721565b949350505050565b600060408201905062002885600083018562002347565b62002894602083018462002347565b9392505050565b6000606082019050620028b2600083018662002347565b620028c1602083018562002369565b620028d0604083018462002369565b949350505050565b6000604082019050620028ef600083018562002347565b620028fe602083018462002721565b9392505050565b60006020820190506200291c600083018462002369565b92915050565b600060208201905081810360008301526200293e818462002443565b905092915050565b6000604082019050818103600083015262002962818562002402565b9050818103602083015262002978818462002402565b90509392505050565b600060208201905081810360008301526200299c81620024bb565b9050919050565b60006020820190508181036000830152620029be8162002523565b9050919050565b60006020820190508181036000830152620029e08162002565565b9050919050565b6000602082019050818103600083015262002a0281620025a7565b9050919050565b6000602082019050818103600083015262002a2481620025e9565b9050919050565b6000602082019050818103600083015262002a468162002651565b9050919050565b6000602082019050818103600083015262002a6881620026b9565b9050919050565b600060208201905062002a86600083018462002721565b92915050565b6000604051905081810181811067ffffffffffffffff8211171562002ab65762002ab562002cb8565b5b8060405250919050565b600067ffffffffffffffff82111562002ade5762002add62002cb8565b5b601f19601f8301169050602081019050919050565b600081519050919050565b600081519050919050565b600081905092915050565b600082825260208201905092915050565b600082825260208201905092915050565b600081905092915050565b600062002b4e8262002bef565b9050919050565b60008115159050919050565b60007fffffffffffffffffffffff00000000000000000000000000000000000000000082169050919050565b6000819050919050565b60007fffffffff0000000000000000000000000000000000000000000000000000000082169050919050565b60007fffffffffffffffffff000000000000000000000000000000000000000000000082169050919050565b600073ffffffffffffffffffffffffffffffffffffffff82169050919050565b6000819050919050565b600062002c268262002c2d565b9050919050565b600062002c3a8262002c41565b9050919050565b600062002c4e8262002bef565b9050919050565b82818337600083830152505050565b60005b8381101562002c8457808201518184015260208101905062002c67565b8381111562002c94576000848401525b50505050565b6000819050919050565b6000819050919050565b6000819050919050565bfe5b6000601f19601f8301169050919050565b62002cd68162002b41565b811462002ce257600080fd5b50565b62002cf08162002b55565b811462002cfc57600080fd5b50565b62002d0a8162002b8d565b811462002d1657600080fd5b50565b62002d248162002c0f565b811462002d3057600080fd5b5056fe60806040523480156200001157600080fd5b5060405162001aa338038062001aa3833981810160405260408110156200003757600080fd5b81019080805160405193929190846401000000008211156200005857600080fd5b838201915060208201858111156200006f57600080fd5b82518660018202830111640100000000821117156200008d57600080fd5b8083526020830192505050908051906020019080838360005b83811015620000c3578082015181840152602081019050620000a6565b50505050905090810190601f168015620000f15780820380516001836020036101000a031916815260200191505b50604052602001805160405193929190846401000000008211156200011557600080fd5b838201915060208201858111156200012c57600080fd5b82518660018202830111640100000000821117156200014a57600080fd5b8083526020830192505050908051906020019080838360005b838110156200018057808201518184015260208101905062000163565b50505050905090810190601f168015620001ae5780820380516001836020036101000a031916815260200191505b5060405250505081818160039080519060200190620001cf92919062000250565b508060049080519060200190620001e892919062000250565b506012600560006101000a81548160ff021916908360ff160217905550505033600560016101000a81548173ffffffffffffffffffffffffffffffffffffffff021916908373ffffffffffffffffffffffffffffffffffffffff160217905550505062000306565b828054600181600116156101000203166002900490600052602060002090601f016020900481019282620002885760008555620002d4565b82601f10620002a357805160ff1916838001178555620002d4565b82800160010185558215620002d4579182015b82811115620002d3578251825591602001919060010190620002b6565b5b509050620002e39190620002e7565b5090565b5b8082111562000302576000816000905550600101620002e8565b5090565b61178d80620003166000396000f3fe608060405234801561001057600080fd5b50600436106100cf5760003560e01c806340c10f191161008c57806395d89b411161006657806395d89b41146103b6578063a457c2d714610439578063a9059cbb1461049d578063dd62ed3e14610501576100cf565b806340c10f19146102e257806342966c681461033057806370a082311461035e576100cf565b806306fdde03146100d4578063095ea7b31461015757806318160ddd146101bb57806323b872dd146101d9578063313ce5671461025d578063395093511461027e575b600080fd5b6100dc610579565b6040518080602001828103825283818151815260200191508051906020019080838360005b8381101561011c578082015181840152602081019050610101565b50505050905090810190601f1680156101495780820380516001836020036101000a031916815260200191505b509250505060405180910390f35b6101a36004803603604081101561016d57600080fd5b81019080803573ffffffffffffffffffffffffffffffffffffffff1690602001909291908035906020019092919050505061061b565b60405180821515815260200191505060405180910390f35b6101c3610639565b6040518082815260200191505060405180910390f35b610245600480360360608110156101ef57600080fd5b81019080803573ffffffffffffffffffffffffffffffffffffffff169060200190929190803573ffffffffffffffffffffffffffffffffffffffff16906020019092919080359060200190929190505050610643565b60405180821515815260200191505060405180910390f35b61026561071c565b604051808260ff16815260200191505060405180910390f35b6102ca6004803603604081101561029457600080fd5b81019080803573ffffffffffffffffffffffffffffffffffffffff16906020019092919080359060200190929190505050610733565b60405180821515815260200191505060405180910390f35b61032e600480360360408110156102f857600080fd5b81019080803573ffffffffffffffffffffffffffffffffffffffff169060200190929190803590602001909291905050506107e6565b005b61035c6004803603602081101561034657600080fd5b810190808035906020019092919050505061089a565b005b6103a06004803603602081101561037457600080fd5b81019080803573ffffffffffffffffffffffffffffffffffffffff169060200190929190505050610954565b6040518082815260200191505060405180910390f35b6103be61099c565b6040518080602001828103825283818151815260200191508051906020019080838360005b838110156103fe5780820151818401526020810190506103e3565b50505050905090810190601f16801561042b5780820380516001836020036101000a031916815260200191505b509250505060405180910390f35b6104856004803603604081101561044f57600080fd5b81019080803573ffffffffffffffffffffffffffffffffffffffff16906020019092919080359060200190929190505050610a3e565b60405180821515815260200191505060405180910390f35b6104e9600480360360408110156104b357600080fd5b81019080803573ffffffffffffffffffffffffffffffffffffffff16906020019092919080359060200190929190505050610b0b565b60405180821515815260200191505060405180910390f35b6105636004803603604081101561051757600080fd5b81019080803573ffffffffffffffffffffffffffffffffffffffff169060200190929190803573ffffffffffffffffffffffffffffffffffffffff169060200190929190505050610b29565b6040518082815260200191505060405180910390f35b606060038054600181600116156101000203166002900480601f0160208091040260200160405190810160405280929190818152602001828054600181600116156101000203166002900480156106115780601f106105e657610100808354040283529160200191610611565b820191906000526020600020905b8154815290600101906020018083116105f457829003601f168201915b5050505050905090565b600061062f610628610bb0565b8484610bb8565b6001905092915050565b6000600254905090565b6000610650848484610daf565b6107118461065c610bb0565b61070c856040518060600160405280602881526020016116a160289139600160008b73ffffffffffffffffffffffffffffffffffffffff1673ffffffffffffffffffffffffffffffffffffffff16815260200190815260200160002060006106c2610bb0565b73ffffffffffffffffffffffffffffffffffffffff1673ffffffffffffffffffffffffffffffffffffffff168152602001908152602001600020546110709092919063ffffffff16565b610bb8565b600190509392505050565b6000600560009054906101000a900460ff16905090565b60006107dc610740610bb0565b846107d78560016000610751610bb0565b73ffffffffffffffffffffffffffffffffffffffff1673ffffffffffffffffffffffffffffffffffffffff16815260200190815260200160002060008973ffffffffffffffffffffffffffffffffffffffff1673ffffffffffffffffffffffffffffffffffffffff1681526020019081526020016000205461112a90919063ffffffff16565b610bb8565b6001905092915050565b600560019054906101000a900473ffffffffffffffffffffffffffffffffffffffff1673ffffffffffffffffffffffffffffffffffffffff163373ffffffffffffffffffffffffffffffffffffffff161461088c576040517f08c379a00000000000000000000000000000000000000000000000000000000081526004018080602001828103825260278152602001806116536027913960400191505060405180910390fd5b61089682826111b2565b5050565b600560019054906101000a900473ffffffffffffffffffffffffffffffffffffffff1673ffffffffffffffffffffffffffffffffffffffff163373ffffffffffffffffffffffffffffffffffffffff1614610940576040517f08c379a000000000000000000000000000000000000000000000000000000000815260040180806020018281038252602781526020018061167a6027913960400191505060405180910390fd5b61095161094b610bb0565b82611379565b50565b60008060008373ffffffffffffffffffffffffffffffffffffffff1673ffffffffffffffffffffffffffffffffffffffff168152602001908152602001600020549050919050565b606060048054600181600116156101000203166002900480601f016020809104026020016040519081016040528092919081815260200182805460018160011615610100020316600290048015610a345780601f10610a0957610100808354040283529160200191610a34565b820191906000526020600020905b815481529060010190602001808311610a1757829003601f168201915b5050505050905090565b6000610b01610a4b610bb0565b84610afc856040518060600160405280602581526020016117336025913960016000610a75610bb0565b73ffffffffffffffffffffffffffffffffffffffff1673ffffffffffffffffffffffffffffffffffffffff16815260200190815260200160002060008a73ffffffffffffffffffffffffffffffffffffffff1673ffffffffffffffffffffffffffffffffffffffff168152602001908152602001600020546110709092919063ffffffff16565b610bb8565b6001905092915050565b6000610b1f610b18610bb0565b8484610daf565b6001905092915050565b6000600160008473ffffffffffffffffffffffffffffffffffffffff1673ffffffffffffffffffffffffffffffffffffffff16815260200190815260200160002060008373ffffffffffffffffffffffffffffffffffffffff1673ffffffffffffffffffffffffffffffffffffffff16815260200190815260200160002054905092915050565b600033905090565b600073ffffffffffffffffffffffffffffffffffffffff168373ffffffffffffffffffffffffffffffffffffffff161415610c3e576040517f08c379a000000000000000000000000000000000000000000000000000000000815260040180806020018281038252602481526020018061170f6024913960400191505060405180910390fd5b600073ffffffffffffffffffffffffffffffffffffffff168273ffffffffffffffffffffffffffffffffffffffff161415610cc4576040517f08c379a000000000000000000000000000000000000000000000000000000000815260040180806020018281038252602281526020018061160b6022913960400191505060405180910390fd5b80600160008573ffffffffffffffffffffffffffffffffffffffff1673ffffffffffffffffffffffffffffffffffffffff16815260200190815260200160002060008473ffffffffffffffffffffffffffffffffffffffff1673ffffffffffffffffffffffffffffffffffffffff168152602001908152602001600020819055508173ffffffffffffffffffffffffffffffffffffffff168373ffffffffffffffffffffffffffffffffffffffff167f8c5be1e5ebec7d5bd14f71427d1e84f3dd0314c0f7b2291e5b200ac8c7c3b925836040518082815260200191505060405180910390a3505050565b600073ffffffffffffffffffffffffffffffffffffffff168373ffffffffffffffffffffffffffffffffffffffff161415610e35576040517f08c379a00000000000000000000000000000000000000000000000000000000081526004018080602001828103825260258152602001806116ea6025913960400191505060405180910390fd5b600073ffffffffffffffffffffffffffffffffffffffff168273ffffffffffffffffffffffffffffffffffffffff161415610ebb576040517f08c379a00000000000000000000000000000000000000000000000000000000081526004018080602001828103825260238152602001806115c66023913960400191505060405180910390fd5b610ec683838361153d565b610f318160405180606001604052806026815260200161162d602691396000808773ffffffffffffffffffffffffffffffffffffffff1673ffffffffffffffffffffffffffffffffffffffff168152602001908152602001600020546110709092919063ffffffff16565b6000808573ffffffffffffffffffffffffffffffffffffffff1673ffffffffffffffffffffffffffffffffffffffff16815260200190815260200160002081905550610fc4816000808573ffffffffffffffffffffffffffffffffffffffff1673ffffffffffffffffffffffffffffffffffffffff1681526020019081526020016000205461112a90919063ffffffff16565b6000808473ffffffffffffffffffffffffffffffffffffffff1673ffffffffffffffffffffffffffffffffffffffff168152602001908152602001600020819055508173ffffffffffffffffffffffffffffffffffffffff168373ffffffffffffffffffffffffffffffffffffffff167fddf252ad1be2c89b69c2b068fc378daa952ba7f163c4a11628f55a4df523b3ef836040518082815260200191505060405180910390a3505050565b600083831115829061111d576040517f08c379a00000000000000000000000000000000000000000000000000000000081526004018080602001828103825283818151815260200191508051906020019080838360005b838110156110e25780820151818401526020810190506110c7565b50505050905090810190601f16801561110f5780820380516001836020036101000a031916815260200191505b509250505060405180910390fd5b5082840390509392505050565b6000808284019050838110156111a8576040517f08c379a000000000000000000000000000000000000000000000000000000000815260040180806020018281038252601b8152602001807f536166654d6174683a206164646974696f6e206f766572666c6f77000000000081525060200191505060405180910390fd5b8091505092915050565b600073ffffffffffffffffffffffffffffffffffffffff168273ffffffffffffffffffffffffffffffffffffffff161415611255576040517f08c379a000000000000000000000000000000000000000000000000000000000815260040180806020018281038252601f8152602001807f45524332303a206d696e7420746f20746865207a65726f20616464726573730081525060200191505060405180910390fd5b6112616000838361153d565b6112768160025461112a90919063ffffffff16565b6002819055506112cd816000808573ffffffffffffffffffffffffffffffffffffffff1673ffffffffffffffffffffffffffffffffffffffff1681526020019081526020016000205461112a90919063ffffffff16565b6000808473ffffffffffffffffffffffffffffffffffffffff1673ffffffffffffffffffffffffffffffffffffffff168152602001908152602001600020819055508173ffffffffffffffffffffffffffffffffffffffff16600073ffffffffffffffffffffffffffffffffffffffff167fddf252ad1be2c89b69c2b068fc378daa952ba7f163c4a11628f55a4df523b3ef836040518082815260200191505060405180910390a35050565b600073ffffffffffffffffffffffffffffffffffffffff168273ffffffffffffffffffffffffffffffffffffffff1614156113ff576040517f08c379a00000000000000000000000000000000000000000000000000000000081526004018080602001828103825260218152602001806116c96021913960400191505060405180910390fd5b61140b8260008361153d565b611476816040518060600160405280602281526020016115e9602291396000808673ffffffffffffffffffffffffffffffffffffffff1673ffffffffffffffffffffffffffffffffffffffff168152602001908152602001600020546110709092919063ffffffff16565b6000808473ffffffffffffffffffffffffffffffffffffffff1673ffffffffffffffffffffffffffffffffffffffff168152602001908152602001600020819055506114cd8160025461154290919063ffffffff16565b600281905550600073ffffffffffffffffffffffffffffffffffffffff168273ffffffffffffffffffffffffffffffffffffffff167fddf252ad1be2c89b69c2b068fc378daa952ba7f163c4a11628f55a4df523b3ef836040518082815260200191505060405180910390a35050565b505050565b6000828211156115ba576040517f08c379a000000000000000000000000000000000000000000000000000000000815260040180806020018281038252601e8152602001807f536166654d6174683a207375627472616374696f6e206f766572666c6f77000081525060200191505060405180910390fd5b81830390509291505056fe45524332303a207472616e7366657220746f20746865207a65726f206164647265737345524332303a206275726e20616d6f756e7420657863656564732062616c616e636545524332303a20617070726f766520746f20746865207a65726f206164647265737345524332303a207472616e7366657220616d6f756e7420657863656564732062616c616e63654f6e6c792074686520636f6e7472616374206f776e65722063616e204d696e7420546f6b656e734f6e6c792074686520636f6e7472616374206f776e65722063616e204275726e20546f6b656e7345524332303a207472616e7366657220616d6f756e74206578636565647320616c6c6f77616e636545524332303a206275726e2066726f6d20746865207a65726f206164647265737345524332303a207472616e736665722066726f6d20746865207a65726f206164647265737345524332303a20617070726f76652066726f6d20746865207a65726f206164647265737345524332303a2064656372656173656420616c6c6f77616e63652062656c6f77207a65726fa264697066735822122054985216d9180aabf0c445b922f3e31efcd488ab0709d929398abf7722f7df0e64736f6c63430007060033a264697066735822122023765dbf3d9b21029b42daff6bbf39ddb2e6fee999e63ef37ef84a55101c76d864736f6c63430007060033",
  "immutableReferences": {},
  "source": "// SPDX-License-Identifier: MIT\r\n// Bridge between ethereum and verus\r\n\r\npragma solidity >=0.4.20;\r\npragma experimental ABIEncoderV2;\r\n\r\nimport \"./Token.sol\";\r\nimport \"./VerusAddressCalculator.sol\";\r\n\r\ncontract TokenManager {\r\n\r\n    event TokenCreated(address tokenAddress);\r\n    //array of contracts address mapped to the token name\r\n    struct hostedToken{\r\n        address destinationCurrencyID;\r\n        bool VerusOwned;\r\n        bool isRegistered;\r\n    }\r\n    \r\n    mapping(address => hostedToken) public verusToERC20mapping;\r\n    mapping(address => address) public destinationToAddress;\r\n    mapping(address => hostedToken) public vERC20Tokens;\r\n    \r\n    address verusBridgeContract;\r\n    \r\n    constructor() public {\r\n        verusBridgeContract = address(0);\r\n    }\r\n    \r\n    function setVerusBridgeContract(address _verusBridgeContract) public {\r\n        require(verusBridgeContract == address(0),\"verusBridgeContract Address has already been set.\");\r\n        verusBridgeContract = _verusBridgeContract;\r\n    }\r\n    \r\n    function isVerusBridgeContract() private view returns(bool){\r\n        if(verusBridgeContract == address(0)) return true;\r\n        else return msg.sender == verusBridgeContract;\r\n    }\r\n    \r\n    //Tokens that are being exported from the eth blockchain are either destroyed or held until imported\r\n    function exportERC20Tokens(address _contractAddress,uint256 _tokenAmount) public {\r\n        require(isVerusBridgeContract(),\"Call can only be made from Verus Bridge Contract\");\r\n        //check that the erc20 token is registered with the tokenManager\r\n        require(isToken(_contractAddress),\"Token has not been registered yet\");\r\n        \r\n        Token token = Token(_contractAddress);\r\n        hostedToken memory tokenDetail;\r\n        //transfer the tokens to the contract address\r\n        uint256 allowedTokens = token.allowance(msg.sender,address(this));\r\n        require( allowedTokens >= _tokenAmount,\"Not enough tokens have been approved\"); //values in wei\r\n        //if its not approved it wont work\r\n        token.transferFrom(msg.sender,address(this),_tokenAmount);   \r\n        \r\n        if(!isToken(_contractAddress)){\r\n            tokenDetail = vERC20Tokens[_contractAddress];\r\n            //if the token has been cerated by this contract then burn the token\r\n        }\r\n        if(tokenDetail.VerusOwned){\r\n                require(token.balanceOf(address(this)) >= _tokenAmount,\"Tokens didnt transfer\");\r\n                burnToken(_contractAddress,_tokenAmount);\r\n        } else {\r\n            //the contract stores the token\r\n        }\r\n    }\r\n\r\n    function importERC20Tokens(address _destCurrencyID,uint256 _tokenAmount,address _destination) public {\r\n        require(isVerusBridgeContract(),\"Call can only be made from Verus Bridge Contract\");\r\n        address contractAddress;\r\n        //if the token has not been previously created then it must be deployed\r\n        //require(isToken(destCurrencyID),\"Token is not registered\");\r\n        if(!verusToERC20mapping[_destCurrencyID].isRegistered) {\r\n            contractAddress = deployNewToken(_destCurrencyID);\r\n        } else {\r\n            contractAddress = destinationToAddress[_destCurrencyID];\r\n        }\r\n\r\n        hostedToken memory tokenDetail = vERC20Tokens[contractAddress];\r\n        //if the token has been created by this contract then burn the token\r\n        if(tokenDetail.VerusOwned){\r\n            mintToken(contractAddress,_tokenAmount,address(_destination));\r\n        } else {\r\n            //transfer from the \r\n            Token token = Token(contractAddress);\r\n            token.transfer(address(_destination),_tokenAmount);   \r\n        }\r\n    }\r\n\r\n    function balanceOf(address _contractAddress,address _account) public view returns(uint256){\r\n        Token token = Token(_contractAddress);\r\n        return token.balanceOf(_account);\r\n    }\r\n    function allowance(address _contractAddress,address _owner, address _spender) public view returns(uint256){\r\n        Token token = Token(_contractAddress);\r\n        return token.allowance(_owner,_spender);\r\n    }\r\n\r\n    function mintToken(address _contractAddress,uint256 _mintAmount,address _recipient) private {\r\n        Token token = Token(_contractAddress);\r\n        token.mint(_recipient,_mintAmount);\r\n    }\r\n\r\n    function burnToken(address _contractAddress,uint _burnAmount) private {\r\n        Token token = Token(_contractAddress);\r\n        token.burn(_burnAmount);\r\n    }\r\n\r\n    function addExistingToken(address _contractAddress) public returns(address){\r\n        require(!isToken(_contractAddress),\"Token is already registered\");\r\n        //generate a address for the token name\r\n        Token token = Token(_contractAddress);\r\n        address destinationCurrencyID = generateDestinationCurrencyID(token.name());\r\n        vERC20Tokens[_contractAddress] = hostedToken(destinationCurrencyID,false,true);\r\n        destinationToAddress[destinationCurrencyID] = _contractAddress;\r\n        return destinationCurrencyID;\r\n    }\r\n\r\n    function deployNewToken(address _destinationCurrencyID) public returns (address) {\r\n        require(isVerusBridgeContract(),\"Call can only be made from Verus Bridge Contract\");\r\n        //generate a name based on the address and deploy the token\r\n        string memory IDAsString; \r\n        IDAsString= VerusAddressCalculator.addressToString(_destinationCurrencyID);\r\n        \r\n        //capitalised version of the first 4 letters becomes the symbol the full address is the token name\r\n        bytes memory tokenSymbolBytes = abi.encodePacked(bytes4(VerusAddressCalculator.stringToBytes32(IDAsString)));\r\n        //convert them to uppercase\r\n        bytes memory symbolUpper = new bytes(4);\r\n        for(uint i = 0; i < 4; i++){\r\n            if ((uint8(tokenSymbolBytes[i]) >= 97) && (uint8(tokenSymbolBytes[i]) <= 122)){\r\n                symbolUpper[i] = bytes1(uint8(tokenSymbolBytes[i]) - 32);\r\n            } else {\r\n                symbolUpper[i] = tokenSymbolBytes[i];\r\n            }\r\n        }\r\n        return deployNewToken(_destinationCurrencyID,IDAsString,string(symbolUpper));\r\n    }\r\n\r\n    function deployNewToken(address _destinationCurrencyID,string memory _tokenName, string memory _symbol) public returns (address) {\r\n        require(isVerusBridgeContract(),\"Call can only be made from Verus Bridge Contract\");\r\n        if(isToken(_destinationCurrencyID)) return destinationToAddress[_destinationCurrencyID];\r\n        Token t = new Token(_tokenName, _symbol);\r\n        verusToERC20mapping[_destinationCurrencyID] = hostedToken(address(t),true,true); \r\n        vERC20Tokens[address(t)]= hostedToken(_destinationCurrencyID,true,true);\r\n        destinationToAddress[_destinationCurrencyID] = address(t);\r\n        emit TokenCreated(address(t));\r\n        return address(t);\r\n    }\r\n\r\n    function generateDestinationCurrencyID(string memory _tokenName) public view returns(address){\r\n        bytes memory reducedTokenName = abi.encodePacked(bytes9(VerusAddressCalculator.stringToBytes32(_tokenName)));\r\n        address output;\r\n        uint coinNumber = 0;\r\n        string memory coinNumberAsStr;\r\n        uint maxLen = 9;\r\n        bytes memory tokenNameAsBytes;\r\n        bytes memory numberAsBytes;\r\n        output = VerusAddressCalculator.stringToAddress(string(abi.encodePacked(reducedTokenName,bytes11(\".erc20.eth.\"))));\r\n        while(isToken(output)){\r\n            \r\n            //need to be able to handle\r\n            coinNumber++;\r\n            coinNumberAsStr = _uintToStr(coinNumber);\r\n            tokenNameAsBytes = abi.encodePacked(reducedTokenName);\r\n            numberAsBytes = abi.encodePacked(coinNumberAsStr);\r\n            \r\n            //check for the very slim possibility that this maxes out\r\n            require(maxLen >= 0,\"tokenName permutations exceeded.\");\r\n            \r\n            for(uint i = 1;i <= numberAsBytes.length; i++){\r\n                tokenNameAsBytes[tokenNameAsBytes.length -i] = numberAsBytes[numberAsBytes.length -i];\r\n            }\r\n            \r\n            //truncate the bytes array\r\n            reducedTokenName =abi.encodePacked(tokenNameAsBytes);\r\n            output = VerusAddressCalculator.stringToAddress(string(abi.encodePacked(reducedTokenName,bytes11(\".erc20.eth.\"))));\r\n            \r\n        }\r\n        return output;\r\n    }\r\n\r\n    function _newDestinationCurrencyID(string memory _tokenName) private pure returns(address){\r\n        //a verus address is made up of tokenName.erc20.eth. where tokenName is a max of 9 chars\r\n        //check if the tokenName already exists\r\n        bytes9 reducedTokenName = bytes9(VerusAddressCalculator.stringToBytes32(_tokenName));\r\n        return VerusAddressCalculator.stringToAddress(string(abi.encodePacked(reducedTokenName,bytes11(\".erc20.eth.\"))));\r\n    }\r\n    \r\n    /*function isToken(address _destinationCurrencyID) public view returns(bool){\r\n        return vERC20Tokens[destinationToAddress[_destinationCurrencyID]].isRegistered;\r\n    }*/\r\n\r\n    function isToken(address _contractAddress) public view returns(bool){\r\n        return vERC20Tokens[_contractAddress].isRegistered;\r\n    }\r\n\r\n    function isVerusOwned(address _contractAddress) public view returns(bool){\r\n        return vERC20Tokens[_contractAddress].VerusOwned;\r\n    }\r\n\r\n    /** helper function for generating currency ids **/\r\n    function _uintToStr(uint _i) private pure returns (string memory _uintAsString) {\r\n        uint number = _i;\r\n        if (number == 0) {\r\n            return \"0\";\r\n        }\r\n        uint j = number;\r\n        uint len;\r\n        while (j != 0) {\r\n            len++;\r\n            j /= 10;\r\n        }\r\n        bytes memory bstr = new bytes(len);\r\n        uint k = len - 1;\r\n        while (number != 0) {\r\n            bstr[k--] = bytes1(uint8(48 + number % 10));\r\n            number /= 10;\r\n        }\r\n        return string(bstr);\r\n    }\r\n\r\n}",
  "sourcePath": "D:\\dev\\Ethereum-verus-notarisation\\contracts\\VerusBridge\\TokenManager.sol",
  "compiler": {
    "name": "solc",
    "version": "0.7.6+commit.7338295f.Emscripten.clang"
  },
  "schemaVersion": "3.4.3",
  "updatedAt": "2021-09-29T10:19:09.211Z",
  "networkType": "ethereum",
  "devdoc": {
    "kind": "dev",
    "methods": {},
    "version": 1
  },
  "userdoc": {
    "kind": "user",
    "methods": {},
    "version": 1
  }
}