{
  "contractName": "VerusCrossChainExport",
  "abi": [
    {
      "inputs": [
        {
          "internalType": "address",
          "name": "_verusSerializerAddress",
          "type": "address"
        }
      ],
      "stateMutability": "nonpayable",
      "type": "constructor"
    },
    {
      "inputs": [
        {
          "components": [
            {
              "internalType": "uint32",
              "name": "version",
              "type": "uint32"
            },
            {
              "components": [
                {
                  "internalType": "address",
                  "name": "currency",
                  "type": "address"
                },
                {
                  "internalType": "uint64",
                  "name": "amount",
                  "type": "uint64"
                }
              ],
              "internalType": "struct VerusObjects.CCurrencyValueMap",
              "name": "currencyvalue",
              "type": "tuple"
            },
            {
              "internalType": "uint32",
              "name": "flags",
              "type": "uint32"
            },
            {
              "internalType": "address",
              "name": "feecurrencyid",
              "type": "address"
            },
            {
              "internalType": "uint256",
              "name": "fees",
              "type": "uint256"
            },
            {
              "components": [
                {
                  "internalType": "uint8",
                  "name": "destinationtype",
                  "type": "uint8"
                },
                {
                  "internalType": "address",
                  "name": "destinationaddress",
                  "type": "address"
                }
              ],
              "internalType": "struct VerusObjectsCommon.CTransferDestination",
              "name": "destination",
              "type": "tuple"
            },
            {
              "internalType": "address",
              "name": "destcurrencyid",
              "type": "address"
            },
            {
              "internalType": "address",
              "name": "destsystemid",
              "type": "address"
            },
            {
              "internalType": "address",
              "name": "secondreserveid",
              "type": "address"
            }
          ],
          "internalType": "struct VerusObjects.CReserveTransfer[]",
          "name": "transfers",
          "type": "tuple[]"
        }
      ],
      "name": "generateCCE",
      "outputs": [
        {
          "components": [
            {
              "internalType": "uint16",
              "name": "version",
              "type": "uint16"
            },
            {
              "internalType": "uint16",
              "name": "flags",
              "type": "uint16"
            },
            {
              "internalType": "address",
              "name": "sourcesystemid",
              "type": "address"
            },
            {
              "internalType": "uint32",
              "name": "sourceheightstart",
              "type": "uint32"
            },
            {
              "internalType": "uint32",
              "name": "sourceheightend",
              "type": "uint32"
            },
            {
              "internalType": "address",
              "name": "destinationsystemid",
              "type": "address"
            },
            {
              "internalType": "address",
              "name": "destinationcurrencyid",
              "type": "address"
            },
            {
              "internalType": "uint32",
              "name": "numinputs",
              "type": "uint32"
            },
            {
              "components": [
                {
                  "internalType": "address",
                  "name": "currency",
                  "type": "address"
                },
                {
                  "internalType": "uint64",
                  "name": "amount",
                  "type": "uint64"
                }
              ],
              "internalType": "struct VerusObjects.CCurrencyValueMap[]",
              "name": "totalamounts",
              "type": "tuple[]"
            },
            {
              "components": [
                {
                  "internalType": "address",
                  "name": "currency",
                  "type": "address"
                },
                {
                  "internalType": "uint64",
                  "name": "amount",
                  "type": "uint64"
                }
              ],
              "internalType": "struct VerusObjects.CCurrencyValueMap[]",
              "name": "totalfees",
              "type": "tuple[]"
            },
            {
              "internalType": "bytes32",
              "name": "hashtransfers",
              "type": "bytes32"
            },
            {
              "components": [
                {
                  "internalType": "address",
                  "name": "currency",
                  "type": "address"
                },
                {
                  "internalType": "uint64",
                  "name": "amount",
                  "type": "uint64"
                }
              ],
              "internalType": "struct VerusObjects.CCurrencyValueMap[]",
              "name": "totalburned",
              "type": "tuple[]"
            },
            {
              "components": [
                {
                  "internalType": "uint8",
                  "name": "destinationtype",
                  "type": "uint8"
                },
                {
                  "internalType": "address",
                  "name": "destinationaddress",
                  "type": "address"
                }
              ],
              "internalType": "struct VerusObjectsCommon.CTransferDestination",
              "name": "rewardaddress",
              "type": "tuple"
            },
            {
              "internalType": "int32",
              "name": "firstinput",
              "type": "int32"
            }
          ],
          "internalType": "struct VerusObjects.CCrossChainExport",
          "name": "",
          "type": "tuple"
        }
      ],
      "stateMutability": "nonpayable",
      "type": "function"
    }
  ],
  "bytecode": "0x60806040523480156200001157600080fd5b506040516200193c3803806200193c833981810160405281019062000037919062000096565b80600260006101000a81548173ffffffffffffffffffffffffffffffffffffffff021916908373ffffffffffffffffffffffffffffffffffffffff1602179055505062000110565b6000815190506200009081620000f6565b92915050565b600060208284031215620000a957600080fd5b6000620000b9848285016200007f565b91505092915050565b6000620000cf82620000d6565b9050919050565b600073ffffffffffffffffffffffffffffffffffffffff82169050919050565b6200010181620000c2565b81146200010d57600080fd5b50565b61181c80620001206000396000f3fe608060405234801561001057600080fd5b506004361061002b5760003560e01c8063bdfcfddd14610030575b600080fd5b61004a60048036038101906100459190611106565b610060565b604051610057919061157f565b60405180910390f35b610068610c69565b610070610c69565b6000600260009054906101000a900473ffffffffffffffffffffffffffffffffffffffff1673ffffffffffffffffffffffffffffffffffffffff16632a4edd708560006040518363ffffffff1660e01b81526004016100d092919061154f565b60006040518083038186803b1580156100e857600080fd5b505afa1580156100fc573d6000803e3d6000fd5b505050506040513d6000823e3d601f19601f820116820180604052508101906101259190611147565b90506000818051906020012090506001836000019061ffff16908161ffff16815250506002836020019061ffff16908161ffff168152505043836060019063ffffffff16908163ffffffff168152505043836080019063ffffffff16908163ffffffff16815250507367460c2f56774ed27eeb8685f29f6cec0b090b00836040019073ffffffffffffffffffffffffffffffffffffffff16908173ffffffffffffffffffffffffffffffffffffffff168152505073a6ef9ea235635e328124ff3429db9f9e91b64e2d8360a0019073ffffffffffffffffffffffffffffffffffffffff16908173ffffffffffffffffffffffffffffffffffffffff16815250508460008151811061023257fe5b602002602001015160c001518360c0019073ffffffffffffffffffffffffffffffffffffffff16908173ffffffffffffffffffffffffffffffffffffffff168152505084518360e0019063ffffffff16908163ffffffff1681525050600080600080600090505b88518110156107ba576102c68982815181106102b157fe5b60200260200101516020015160000151610acf565b935060008460070b12610350578881815181106102df57fe5b6020026020010151602001516020015160008560070b815481106102ff57fe5b9060005260206000200160000160148282829054906101000a900467ffffffffffffffff160192506101000a81548167ffffffffffffffff021916908367ffffffffffffffff16021790555061045b565b600060405180604001604052808b848151811061036957fe5b6020026020010151602001516000015173ffffffffffffffffffffffffffffffffffffffff1681526020018b84815181106103a057fe5b6020026020010151602001516020015167ffffffffffffffff168152509080600181540180825580915050600190039060005260206000200160009091909190915060008201518160000160006101000a81548173ffffffffffffffffffffffffffffffffffffffff021916908373ffffffffffffffffffffffffffffffffffffffff16021790555060208201518160000160146101000a81548167ffffffffffffffff021916908367ffffffffffffffff16021790555050505b61047b89828151811061046a57fe5b602002602001015160600151610acf565b925060008360070b126105015788818151811061049457fe5b60200260200101516080015160008460070b815481106104b057fe5b9060005260206000200160000160148282829054906101000a900467ffffffffffffffff160192506101000a81548167ffffffffffffffff021916908367ffffffffffffffff160217905550610604565b600060405180604001604052808b848151811061051a57fe5b60200260200101516060015173ffffffffffffffffffffffffffffffffffffffff1681526020018b848151811061054d57fe5b60200260200101516080015167ffffffffffffffff168152509080600181540180825580915050600190039060005260206000200160009091909190915060008201518160000160006101000a81548173ffffffffffffffffffffffffffffffffffffffff021916908373ffffffffffffffffffffffffffffffffffffffff16021790555060208201518160000160146101000a81548167ffffffffffffffff021916908367ffffffffffffffff16021790555050505b61062489828151811061061357fe5b602002602001015160600151610b9c565b915060008260070b126106aa5788818151811061063d57fe5b60200260200101516080015160018360070b8154811061065957fe5b9060005260206000200160000160148282829054906101000a900467ffffffffffffffff160192506101000a81548167ffffffffffffffff021916908367ffffffffffffffff1602179055506107ad565b600160405180604001604052808b84815181106106c357fe5b60200260200101516060015173ffffffffffffffffffffffffffffffffffffffff1681526020018b84815181106106f657fe5b60200260200101516080015167ffffffffffffffff168152509080600181540180825580915050600190039060005260206000200160009091909190915060008201518160000160006101000a81548173ffffffffffffffffffffffffffffffffffffffff021916908373ffffffffffffffffffffffffffffffffffffffff16021790555060208201518160000160146101000a81548167ffffffffffffffff021916908367ffffffffffffffff16021790555050505b8080600101915050610299565b506000805480602002602001604051908101604052809291908181526020016000905b82821015610893578382906000526020600020016040518060400160405290816000820160009054906101000a900473ffffffffffffffffffffffffffffffffffffffff1673ffffffffffffffffffffffffffffffffffffffff1673ffffffffffffffffffffffffffffffffffffffff1681526020016000820160149054906101000a900467ffffffffffffffff1667ffffffffffffffff1667ffffffffffffffff1681525050815260200190600101906107dd565b505050508661010001819052506001805480602002602001604051908101604052809291908181526020016000905b82821015610978578382906000526020600020016040518060400160405290816000820160009054906101000a900473ffffffffffffffffffffffffffffffffffffffff1673ffffffffffffffffffffffffffffffffffffffff1673ffffffffffffffffffffffffffffffffffffffff1681526020016000820160149054906101000a900467ffffffffffffffff1667ffffffffffffffff1667ffffffffffffffff1681525050815260200190600101906108c2565b50505050866101200181905250838661014001818152505060006040518060400160405280600073ffffffffffffffffffffffffffffffffffffffff168152602001600067ffffffffffffffff168152509050600167ffffffffffffffff811180156109e357600080fd5b50604051908082528060200260200182016040528015610a1d57816020015b610a0a610d40565b815260200190600190039081610a025790505b5087610160018190525080876101600151600081518110610a3a57fe5b60200260200101819052506040518060400160405280600460ff16815260200173b26820ee0c9b1276aac834cf457026a575dfce8473ffffffffffffffffffffffffffffffffffffffff168152508761018001819052506001876101a0019060030b908160030b81525050600080610ab29190610d7a565b60016000610ac09190610d7a565b86975050505050505050919050565b600080600090505b60008054905067ffffffffffffffff16811015610b72578273ffffffffffffffffffffffffffffffffffffffff1660008281548110610b1257fe5b9060005260206000200160000160009054906101000a900473ffffffffffffffffffffffffffffffffffffffff1673ffffffffffffffffffffffffffffffffffffffff161415610b655780915050610b97565b8080600101915050610ad7565b507fffffffffffffffffffffffffffffffffffffffffffffffffffffffffffffffff90505b919050565b600080600090505b60018054905067ffffffffffffffff16811015610c3f578273ffffffffffffffffffffffffffffffffffffffff1660018281548110610bdf57fe5b9060005260206000200160000160009054906101000a900473ffffffffffffffffffffffffffffffffffffffff1673ffffffffffffffffffffffffffffffffffffffff161415610c325780915050610c64565b8080600101915050610ba4565b507fffffffffffffffffffffffffffffffffffffffffffffffffffffffffffffffff90505b919050565b604051806101c00160405280600061ffff168152602001600061ffff168152602001600073ffffffffffffffffffffffffffffffffffffffff168152602001600063ffffffff168152602001600063ffffffff168152602001600073ffffffffffffffffffffffffffffffffffffffff168152602001600073ffffffffffffffffffffffffffffffffffffffff168152602001600063ffffffff16815260200160608152602001606081526020016000801916815260200160608152602001610d30610d9b565b8152602001600060030b81525090565b6040518060400160405280600073ffffffffffffffffffffffffffffffffffffffff168152602001600067ffffffffffffffff1681525090565b5080546000825590600052602060002090810190610d989190610dce565b50565b6040518060400160405280600060ff168152602001600073ffffffffffffffffffffffffffffffffffffffff1681525090565b5b80821115610e2357600080820160006101000a81549073ffffffffffffffffffffffffffffffffffffffff02191690556000820160146101000a81549067ffffffffffffffff021916905550600101610dcf565b5090565b6000610e3a610e35846115d2565b6115a1565b9050808382526020820190508285610160860282011115610e5a57600080fd5b60005b85811015610e8b5781610e708882610f88565b84526020840193506101608301925050600181019050610e5d565b5050509392505050565b6000610ea8610ea3846115fe565b6115a1565b905082815260208101848484011115610ec057600080fd5b610ecb84828561173e565b509392505050565b600081359050610ee281611773565b92915050565b600082601f830112610ef957600080fd5b8135610f09848260208601610e27565b91505092915050565b600082601f830112610f2357600080fd5b8151610f33848260208601610e95565b91505092915050565b600060408284031215610f4e57600080fd5b610f5860406115a1565b90506000610f6884828501610ed3565b6000830152506020610f7c848285016110dc565b60208301525092915050565b60006101608284031215610f9b57600080fd5b610fa66101206115a1565b90506000610fb6848285016110c7565b6000830152506020610fca84828501610f3c565b6020830152506060610fde848285016110c7565b6040830152506080610ff284828501610ed3565b60608301525060a0611006848285016110b2565b60808301525060c061101a84828501611066565b60a08301525061010061102f84828501610ed3565b60c08301525061012061104484828501610ed3565b60e08301525061014061105984828501610ed3565b6101008301525092915050565b60006040828403121561107857600080fd5b61108260406115a1565b90506000611092848285016110f1565b60008301525060206110a684828501610ed3565b60208301525092915050565b6000813590506110c18161178a565b92915050565b6000813590506110d6816117a1565b92915050565b6000813590506110eb816117b8565b92915050565b600081359050611100816117cf565b92915050565b60006020828403121561111857600080fd5b600082013567ffffffffffffffff81111561113257600080fd5b61113e84828501610ee8565b91505092915050565b60006020828403121561115957600080fd5b600082015167ffffffffffffffff81111561117357600080fd5b61117f84828501610f12565b91505092915050565b600061119483836113ed565b60408301905092915050565b60006111ac838361141c565b6101608301905092915050565b6111c2816116a0565b82525050565b60006111d38261164e565b6111dd818561167e565b93506111e88361162e565b8060005b838110156112195781516112008882611188565b975061120b83611664565b9250506001810190506111ec565b5085935050505092915050565b600061123182611659565b61123b818561168f565b93506112468361163e565b8060005b8381101561127757815161125e88826111a0565b975061126983611671565b92505060018101905061124a565b5085935050505092915050565b61128d816116b2565b82525050565b61129c816116be565b82525050565b6112ab816116c8565b82525050565b60006101e0830160008301516112ca6000860182611504565b5060208301516112dd6020860182611504565b5060408301516112f060408601826111b9565b5060608301516113036060860182611522565b5060808301516113166080860182611522565b5060a083015161132960a08601826111b9565b5060c083015161133c60c08601826111b9565b5060e083015161134f60e0860182611522565b5061010083015184820361010086015261136982826111c8565b91505061012083015184820361012086015261138582826111c8565b91505061014083015161139c610140860182611293565b506101608301518482036101608601526113b682826111c8565b9150506101808301516113cd6101808601826114d5565b506101a08301516113e26101c08601826112a2565b508091505092915050565b60408201600082015161140360008501826111b9565b5060208201516114166020850182611531565b50505050565b610160820160008201516114336000850182611522565b50602082015161144660208501826113ed565b5060408201516114596060850182611522565b50606082015161146c60808501826111b9565b50608082015161147f60a0850182611513565b5060a082015161149260c08501826114d5565b5060c08201516114a66101008501826111b9565b5060e08201516114ba6101208501826111b9565b506101008201516114cf6101408501826111b9565b50505050565b6040820160008201516114eb6000850182611540565b5060208201516114fe60208501826111b9565b50505050565b61150d816116d5565b82525050565b61151c81611703565b82525050565b61152b8161170d565b82525050565b61153a8161171d565b82525050565b61154981611731565b82525050565b600060408201905081810360008301526115698185611226565b90506115786020830184611284565b9392505050565b6000602082019050818103600083015261159981846112b1565b905092915050565b6000604051905081810181811067ffffffffffffffff821117156115c8576115c7611771565b5b8060405250919050565b600067ffffffffffffffff8211156115ed576115ec611771565b5b602082029050602081019050919050565b600067ffffffffffffffff82111561161957611618611771565b5b601f19601f8301169050602081019050919050565b6000819050602082019050919050565b6000819050602082019050919050565b600081519050919050565b600081519050919050565b6000602082019050919050565b6000602082019050919050565b600082825260208201905092915050565b600082825260208201905092915050565b60006116ab826116e3565b9050919050565b60008115159050919050565b6000819050919050565b60008160030b9050919050565b600061ffff82169050919050565b600073ffffffffffffffffffffffffffffffffffffffff82169050919050565b6000819050919050565b600063ffffffff82169050919050565b600067ffffffffffffffff82169050919050565b600060ff82169050919050565b60005b8381101561175c578082015181840152602081019050611741565b8381111561176b576000848401525b50505050565bfe5b61177c816116a0565b811461178757600080fd5b50565b61179381611703565b811461179e57600080fd5b50565b6117aa8161170d565b81146117b557600080fd5b50565b6117c18161171d565b81146117cc57600080fd5b50565b6117d881611731565b81146117e357600080fd5b5056fea2646970667358221220f9ae0bc53a6f3738fef9cb27d54f56e4b93e01a443889ab9effb882d1aa03b0c64736f6c63430007060033",
  "immutableReferences": {},
  "source": "// SPDX-License-Identifier: MIT\r\n// Bridge between ethereum and verus\r\n\r\npragma solidity >=0.6.0 <0.9.0;\r\npragma experimental ABIEncoderV2;\r\n\r\nimport \"../Libraries/VerusObjects.sol\";\r\nimport \"../Libraries/VerusConstants.sol\";\r\nimport \"../VerusBridge/VerusSerializer.sol\";\r\n\r\ncontract VerusCrossChainExport{\r\n\r\n    VerusObjects.CCurrencyValueMap[] currencies;\r\n    VerusObjects.CCurrencyValueMap[] fees;\r\n    VerusSerializer verusSerializer;\r\n\r\n    constructor(address _verusSerializerAddress) {\r\n        verusSerializer = VerusSerializer(_verusSerializerAddress);\r\n    }\r\n\r\n    function inCurrencies(address checkCurrency) private view returns(int64){\r\n        for(uint i = 0; i < uint64(currencies.length); i++){\r\n            if(currencies[i].currency == checkCurrency) return int64(i);\r\n        }\r\n        return -1;\r\n    }\r\n\r\n    function inFees(address checkFeesCurrency) private view returns(int64){\r\n        for(uint i = 0; i < uint64(fees.length); i++){\r\n            if(fees[i].currency == checkFeesCurrency) return int64(i);\r\n        }\r\n        return -1;\r\n    }\r\n\r\n    function generateCCE(VerusObjects.CReserveTransfer[] memory transfers) public returns(VerusObjects.CCrossChainExport memory){\r\n\r\n        VerusObjects.CCrossChainExport memory workingCCE;\r\n        //create a hash of the transfers and then \r\n        bytes memory serializedTransfers = verusSerializer.serializeCReserveTransfers(transfers,false);\r\n        bytes32 hashedTransfers = keccak256(serializedTransfers);\r\n\r\n        //create the Cross ChainExport to then serialize and hash\r\n        \r\n        workingCCE.version = 1;\r\n        workingCCE.flags = 2;\r\n        //workingCCE.flags = 1;\r\n        //need to pick up the \r\n        workingCCE.sourceheightstart = uint32(block.number);\r\n        workingCCE.sourceheightend = uint32(block.number);\r\n        workingCCE.sourcesystemid = VerusConstants.VEth;\r\n        workingCCE.destinationsystemid = VerusConstants.VerusSystemId;\r\n        workingCCE.destinationcurrencyid = transfers[0].destcurrencyid;\r\n        workingCCE.numinputs = uint32(transfers.length);\r\n        //loop through the array and create totals of the amounts and fees\r\n        \r\n        int64 currencyExists;\r\n        int64 feeExistsInTotals;\r\n        int64 feeExists;\r\n        for(uint i = 0; i < transfers.length; i++){\r\n            currencyExists = inCurrencies(transfers[i].currencyvalue.currency);\r\n            if(currencyExists >= 0){\r\n                currencies[uint256(currencyExists)].amount += transfers[i].currencyvalue.amount;\r\n            } else {\r\n                currencies.push(VerusObjects.CCurrencyValueMap(transfers[i].currencyvalue.currency,transfers[i].currencyvalue.amount));\r\n            }\r\n            \r\n            //add the fees into the totalamounts too \r\n            feeExistsInTotals = inCurrencies(transfers[i].feecurrencyid); \r\n            if(feeExistsInTotals >= 0){\r\n                currencies[uint256(feeExistsInTotals)].amount += uint64(transfers[i].fees);\r\n            } else {\r\n                currencies.push(VerusObjects.CCurrencyValueMap(transfers[i].feecurrencyid,uint64(transfers[i].fees)));\r\n            }\r\n\r\n            feeExists = inFees(transfers[i].feecurrencyid); \r\n            if(feeExists >= 0){\r\n                fees[uint256(feeExists)].amount += uint64(transfers[i].fees);\r\n            } else {\r\n                fees.push(VerusObjects.CCurrencyValueMap(transfers[i].feecurrencyid,uint64(transfers[i].fees)));\r\n            }\r\n            \r\n        }\r\n        workingCCE.totalamounts = currencies;\r\n        workingCCE.totalfees = fees;\r\n\r\n        workingCCE.hashtransfers = hashedTransfers;\r\n        VerusObjects.CCurrencyValueMap memory totalburnedCCVM = VerusObjects.CCurrencyValueMap(0x0000000000000000000000000000000000000000,0);\r\n        \r\n        workingCCE.totalburned = new VerusObjects.CCurrencyValueMap[](1);\r\n        workingCCE.totalburned[0] = totalburnedCCVM;\r\n        workingCCE.rewardaddress = VerusObjectsCommon.CTransferDestination(VerusConstants.RewardAddressType,address(VerusConstants.RewardAddress));\r\n        workingCCE.firstinput = 1;\r\n\r\n        //clear the arrays\r\n        delete currencies;\r\n        delete fees;\r\n\r\n        return workingCCE;\r\n\r\n    }\r\n    \r\n    \r\n\r\n}",
  "sourcePath": "D:\\dev\\Ethereum-verus-notarisation\\contracts\\VerusBridge\\VerusCrossChainExport.sol",
  "compiler": {
    "name": "solc",
    "version": "0.7.6+commit.7338295f.Emscripten.clang"
  },
  "schemaVersion": "3.4.3",
  "updatedAt": "2021-09-27T13:57:35.482Z",
  "devdoc": {
    "kind": "dev",
    "methods": {},
    "version": 1
  },
  "userdoc": {
    "kind": "user",
    "methods": {},
    "version": 1
  }
}