{
  "contractName": "VerusNotarizer",
  "abi": [
    {
      "inputs": [],
      "stateMutability": "nonpayable",
      "type": "constructor"
    },
    {
      "anonymous": false,
      "inputs": [
        {
          "indexed": false,
          "internalType": "address",
          "name": "newAddress",
          "type": "address"
        }
      ],
      "name": "Deprecate",
      "type": "event"
    },
    {
      "anonymous": false,
      "inputs": [
        {
          "components": [
            {
              "internalType": "uint32",
              "name": "version",
              "type": "uint32"
            },
            {
              "internalType": "uint32",
              "name": "protocol",
              "type": "uint32"
            },
            {
              "internalType": "uint160",
              "name": "currencyID",
              "type": "uint160"
            },
            {
              "internalType": "uint160",
              "name": "notaryDest",
              "type": "uint160"
            },
            {
              "internalType": "uint32",
              "name": "notarizationHeight",
              "type": "uint32"
            },
            {
              "internalType": "uint256",
              "name": "mmrRoot",
              "type": "uint256"
            },
            {
              "internalType": "uint256",
              "name": "notarizationPreHash",
              "type": "uint256"
            },
            {
              "internalType": "uint256",
              "name": "compactPower",
              "type": "uint256"
            }
          ],
          "indexed": false,
          "internalType": "struct VerusNotarizer.NotarizedData",
          "name": "notarizedData",
          "type": "tuple"
        },
        {
          "indexed": false,
          "internalType": "uint64",
          "name": "notarizedDataHeight",
          "type": "uint64"
        }
      ],
      "name": "NewBlock",
      "type": "event"
    },
    {
      "anonymous": false,
      "inputs": [
        {
          "indexed": false,
          "internalType": "address",
          "name": "signedAddress",
          "type": "address"
        }
      ],
      "name": "signedAddress",
      "type": "event"
    },
    {
      "inputs": [
        {
          "internalType": "uint256",
          "name": "",
          "type": "uint256"
        }
      ],
      "name": "blockHeights",
      "outputs": [
        {
          "internalType": "uint32",
          "name": "",
          "type": "uint32"
        }
      ],
      "stateMutability": "view",
      "type": "function",
      "constant": true
    },
    {
      "inputs": [],
      "name": "deprecated",
      "outputs": [
        {
          "internalType": "bool",
          "name": "",
          "type": "bool"
        }
      ],
      "stateMutability": "view",
      "type": "function",
      "constant": true
    },
    {
      "inputs": [],
      "name": "lastBlockHeight",
      "outputs": [
        {
          "internalType": "uint32",
          "name": "",
          "type": "uint32"
        }
      ],
      "stateMutability": "view",
      "type": "function",
      "constant": true
    },
    {
      "inputs": [
        {
          "internalType": "uint32",
          "name": "",
          "type": "uint32"
        }
      ],
      "name": "notarizedDataEntries",
      "outputs": [
        {
          "internalType": "bytes",
          "name": "",
          "type": "bytes"
        }
      ],
      "stateMutability": "view",
      "type": "function",
      "constant": true
    },
    {
      "inputs": [],
      "name": "upgradedAddress",
      "outputs": [
        {
          "internalType": "address",
          "name": "",
          "type": "address"
        }
      ],
      "stateMutability": "view",
      "type": "function",
      "constant": true
    },
    {
      "inputs": [
        {
          "internalType": "address",
          "name": "_notary",
          "type": "address"
        },
        {
          "internalType": "bytes32",
          "name": "_notarizedAddressHash",
          "type": "bytes32"
        },
        {
          "internalType": "bytes32[]",
          "name": "_rs",
          "type": "bytes32[]"
        },
        {
          "internalType": "bytes32[]",
          "name": "_ss",
          "type": "bytes32[]"
        },
        {
          "internalType": "uint8[]",
          "name": "_vs",
          "type": "uint8[]"
        }
      ],
      "name": "addNotary",
      "outputs": [
        {
          "internalType": "bool",
          "name": "",
          "type": "bool"
        }
      ],
      "stateMutability": "nonpayable",
      "type": "function"
    },
    {
      "inputs": [
        {
          "internalType": "address",
          "name": "_notary",
          "type": "address"
        }
      ],
      "name": "removeNotary",
      "outputs": [
        {
          "internalType": "bool",
          "name": "",
          "type": "bool"
        }
      ],
      "stateMutability": "nonpayable",
      "type": "function"
    },
    {
      "inputs": [],
      "name": "currentNotariesRequired",
      "outputs": [
        {
          "internalType": "uint8",
          "name": "",
          "type": "uint8"
        }
      ],
      "stateMutability": "view",
      "type": "function",
      "constant": true
    },
    {
      "inputs": [
        {
          "components": [
            {
              "internalType": "uint32",
              "name": "version",
              "type": "uint32"
            },
            {
              "internalType": "uint32",
              "name": "protocol",
              "type": "uint32"
            },
            {
              "internalType": "uint160",
              "name": "currencyID",
              "type": "uint160"
            },
            {
              "internalType": "uint160",
              "name": "notaryDest",
              "type": "uint160"
            },
            {
              "internalType": "uint32",
              "name": "notarizationHeight",
              "type": "uint32"
            },
            {
              "internalType": "uint256",
              "name": "mmrRoot",
              "type": "uint256"
            },
            {
              "internalType": "uint256",
              "name": "notarizationPreHash",
              "type": "uint256"
            },
            {
              "internalType": "uint256",
              "name": "compactPower",
              "type": "uint256"
            }
          ],
          "internalType": "struct VerusNotarizer.NotarizedData",
          "name": "_notarizedDataDetail",
          "type": "tuple"
        },
        {
          "internalType": "bytes32",
          "name": "_notarizedDataHash",
          "type": "bytes32"
        },
        {
          "internalType": "bytes32[]",
          "name": "_rs",
          "type": "bytes32[]"
        },
        {
          "internalType": "bytes32[]",
          "name": "_ss",
          "type": "bytes32[]"
        },
        {
          "internalType": "uint8[]",
          "name": "_vs",
          "type": "uint8[]"
        }
      ],
      "name": "setLatestData",
      "outputs": [
        {
          "internalType": "bool",
          "name": "",
          "type": "bool"
        }
      ],
      "stateMutability": "nonpayable",
      "type": "function"
    },
    {
      "inputs": [],
      "name": "getLastNotarizedData",
      "outputs": [
        {
          "components": [
            {
              "internalType": "uint32",
              "name": "version",
              "type": "uint32"
            },
            {
              "internalType": "uint32",
              "name": "protocol",
              "type": "uint32"
            },
            {
              "internalType": "uint160",
              "name": "currencyID",
              "type": "uint160"
            },
            {
              "internalType": "uint160",
              "name": "notaryDest",
              "type": "uint160"
            },
            {
              "internalType": "uint32",
              "name": "notarizationHeight",
              "type": "uint32"
            },
            {
              "internalType": "uint256",
              "name": "mmrRoot",
              "type": "uint256"
            },
            {
              "internalType": "uint256",
              "name": "notarizationPreHash",
              "type": "uint256"
            },
            {
              "internalType": "uint256",
              "name": "compactPower",
              "type": "uint256"
            }
          ],
          "internalType": "struct VerusNotarizer.NotarizedData",
          "name": "",
          "type": "tuple"
        }
      ],
      "stateMutability": "view",
      "type": "function",
      "constant": true
    },
    {
      "inputs": [
        {
          "internalType": "uint32",
          "name": "_blockHeight",
          "type": "uint32"
        }
      ],
      "name": "getNotarizedData",
      "outputs": [
        {
          "components": [
            {
              "internalType": "uint32",
              "name": "version",
              "type": "uint32"
            },
            {
              "internalType": "uint32",
              "name": "protocol",
              "type": "uint32"
            },
            {
              "internalType": "uint160",
              "name": "currencyID",
              "type": "uint160"
            },
            {
              "internalType": "uint160",
              "name": "notaryDest",
              "type": "uint160"
            },
            {
              "internalType": "uint32",
              "name": "notarizationHeight",
              "type": "uint32"
            },
            {
              "internalType": "uint256",
              "name": "mmrRoot",
              "type": "uint256"
            },
            {
              "internalType": "uint256",
              "name": "notarizationPreHash",
              "type": "uint256"
            },
            {
              "internalType": "uint256",
              "name": "compactPower",
              "type": "uint256"
            }
          ],
          "internalType": "struct VerusNotarizer.NotarizedData",
          "name": "",
          "type": "tuple"
        }
      ],
      "stateMutability": "view",
      "type": "function",
      "constant": true
    },
    {
      "inputs": [],
      "name": "getLastBlockHeight",
      "outputs": [
        {
          "internalType": "uint32",
          "name": "",
          "type": "uint32"
        }
      ],
      "stateMutability": "view",
      "type": "function",
      "constant": true
    },
    {
      "inputs": [],
      "name": "getAllBlockHeights",
      "outputs": [
        {
          "internalType": "uint32[]",
          "name": "",
          "type": "uint32[]"
        }
      ],
      "stateMutability": "view",
      "type": "function",
      "constant": true
    },
    {
      "inputs": [],
      "name": "kill",
      "outputs": [],
      "stateMutability": "nonpayable",
      "type": "function"
    },
    {
      "inputs": [
        {
          "internalType": "address",
          "name": "_upgradedAddress",
          "type": "address"
        }
      ],
      "name": "deprecate",
      "outputs": [],
      "stateMutability": "nonpayable",
      "type": "function"
    }
  ],
  "bytecode": "0x6080604052600d600060196101000a81548160ff021916908360ff16021790555034801561002c57600080fd5b5060008060046101000a81548160ff0219169083151502179055506000600460006101000a81548160ff021916908360ff16021790555060008060006101000a81548163ffffffff021916908363ffffffff160217905550600033905060018060008373ffffffffffffffffffffffffffffffffffffffff1673ffffffffffffffffffffffffffffffffffffffff16815260200190815260200160002060006101000a81548160ff0219169083151502179055506004600081819054906101000a900460ff168092919060010191906101000a81548160ff021916908360ff16021790555050506125a9806101226000396000f3fe608060405234801561001057600080fd5b50600436106100f55760003560e01c806341c0e1b5116100975780636e080816116100665780636e080816146102645780638451a3a01461029457806386785a6f146102b2578063eb32f712146102e2576100f5565b806341c0e1b5146101dc5780634b60ae63146101e65780635630ecd61461020457806359d4d18814610234576100f5565b80631d0404cb116100d35780631d0404cb1461015257806320cd6ba11461018257806326976e3f146101a05780633627cf1c146101be576100f5565b806302394872146100fa5780630753c30c146101185780630e136b1914610134575b600080fd5b610102610312565b60405161010f919061228d565b60405180910390f35b610132600480360381019061012d9190611889565b610379565b005b61013c6104f8565b6040516101499190612084565b60405180910390f35b61016c60048036038101906101679190611971565b61050b565b6040516101799190612084565b60405180910390f35b61018a610862565b6040516101979190612326565b60405180910390f35b6101a86108e6565b6040516101b59190612047565b60405180910390f35b6101c661090c565b6040516101d39190612246565b60405180910390f35b6101e4610a3a565b005b6101ee610aeb565b6040516101fb919061228d565b60405180910390f35b61021e60048036038101906102199190611a5e565b610aff565b60405161022b91906120e4565b60405180910390f35b61024e60048036038101906102499190611a5e565b610baf565b60405161025b9190612246565b60405180910390f35b61027e60048036038101906102799190611a35565b610c7e565b60405161028b919061228d565b60405180910390f35b61029c610cb5565b6040516102a99190612062565b60405180910390f35b6102cc60048036038101906102c79190611889565b610d39565b6040516102d99190612084565b60405180910390f35b6102fc60048036038101906102f791906118b2565b610f96565b6040516103099190612084565b60405180910390f35b60008060049054906101000a900460ff1615610363576040517f08c379a000000000000000000000000000000000000000000000000000000000815260040161035a90612106565b60405180910390fd5b60008054906101000a900463ffffffff16905090565b600033905060011515600160008373ffffffffffffffffffffffffffffffffffffffff1673ffffffffffffffffffffffffffffffffffffffff16815260200190815260200160002060009054906101000a900460ff16151514610411576040517f08c379a000000000000000000000000000000000000000000000000000000000815260040161040890612126565b60405180910390fd5b600060049054906101000a900460ff1615610461576040517f08c379a000000000000000000000000000000000000000000000000000000000815260040161045890612106565b60405180910390fd5b6001600060046101000a81548160ff02191690831515021790555081600060056101000a81548173ffffffffffffffffffffffffffffffffffffffff021916908373ffffffffffffffffffffffffffffffffffffffff1602179055507fcc358699805e9a8b7f77b522628c7cb9abd07d9efb86b6fb616af1609036a99e826040516104ec9190612047565b60405180910390a15050565b600060049054906101000a900460ff1681565b60008033905060011515600160008373ffffffffffffffffffffffffffffffffffffffff1673ffffffffffffffffffffffffffffffffffffffff16815260200190815260200160002060009054906101000a900460ff161515146105a4576040517f08c379a000000000000000000000000000000000000000000000000000000000815260040161059b90612126565b60405180910390fd5b600060049054906101000a900460ff16156105f4576040517f08c379a00000000000000000000000000000000000000000000000000000000081526004016105eb90612106565b60405180910390fd5b600160003373ffffffffffffffffffffffffffffffffffffffff1673ffffffffffffffffffffffffffffffffffffffff16815260200190815260200160002060009054906101000a900460ff16610680576040517f08c379a000000000000000000000000000000000000000000000000000000000815260040161067790612146565b60405180910390fd5b83518551148015610692575082518551145b6106d1576040517f08c379a00000000000000000000000000000000000000000000000000000000081526004016106c8906121c6565b60405180910390fd5b60008054906101000a900463ffffffff1663ffffffff16876080015163ffffffff1611610733576040517f08c379a000000000000000000000000000000000000000000000000000000000815260040161072a90612206565b60405180910390fd5b606061073e88611243565b905061074c8787878761129a565b156108525780600260008a6080015163ffffffff1663ffffffff16815260200190815260200160002090805190602001906107889291906114e0565b506003886080015190806001815401808255809150506001900390600052602060002090600891828204019190066004029091909190916101000a81548163ffffffff021916908363ffffffff16021790555087608001516000806101000a81548163ffffffff021916908363ffffffff1602179055507fdad29582f3039647d6718f2f4496866217b915cd3f2d6fd2f7fb084a263f05ad8860008054906101000a900463ffffffff16604051610840929190612262565b60405180910390a16001925050610858565b60009250505b5095945050505050565b60006001600460009054906101000a900460ff1660ff16141561088857600190506108e3565b60006002600460009054906101000a900460ff1660ff16816108a657fe5b0460ff169050600060199054906101000a900460ff1660ff168111156108de57600060199054906101000a900460ff169150506108e3565b809150505b90565b600060059054906101000a900473ffffffffffffffffffffffffffffffffffffffff1681565b610914611560565b600060049054906101000a900460ff1615610964576040517f08c379a000000000000000000000000000000000000000000000000000000000815260040161095b90612106565b60405180910390fd5b610a35600260008060009054906101000a900463ffffffff1663ffffffff1663ffffffff1681526020019081526020016000208054600181600116156101000203166002900480601f016020809104026020016040519081016040528092919081815260200182805460018160011615610100020316600290048015610a2b5780601f10610a0057610100808354040283529160200191610a2b565b820191906000526020600020905b815481529060010190602001808311610a0e57829003601f168201915b505050505061138f565b905090565b600033905060011515600160008373ffffffffffffffffffffffffffffffffffffffff1673ffffffffffffffffffffffffffffffffffffffff16815260200190815260200160002060009054906101000a900460ff16151514610ad2576040517f08c379a0000000000000000000000000000000000000000000000000000000008152600401610ac990612126565b60405180910390fd5b3373ffffffffffffffffffffffffffffffffffffffff16ff5b60008054906101000a900463ffffffff1681565b60026020528060005260406000206000915090508054600181600116156101000203166002900480601f016020809104026020016040519081016040528092919081815260200182805460018160011615610100020316600290048015610ba75780601f10610b7c57610100808354040283529160200191610ba7565b820191906000526020600020905b815481529060010190602001808311610b8a57829003601f168201915b505050505081565b610bb7611560565b610c77600260008463ffffffff1663ffffffff1681526020019081526020016000208054600181600116156101000203166002900480601f016020809104026020016040519081016040528092919081815260200182805460018160011615610100020316600290048015610c6d5780601f10610c4257610100808354040283529160200191610c6d565b820191906000526020600020905b815481529060010190602001808311610c5057829003601f168201915b505050505061138f565b9050919050565b60038181548110610c8b57fe5b9060005260206000209060089182820401919006600402915054906101000a900463ffffffff1681565b60606003805480602002602001604051908101604052809291908181526020018280548015610d2f57602002820191906000526020600020906000905b82829054906101000a900463ffffffff1663ffffffff1681526020019060040190602082600301049283019260010382029150808411610cf25790505b5050505050905090565b60008033905060011515600160008373ffffffffffffffffffffffffffffffffffffffff1673ffffffffffffffffffffffffffffffffffffffff16815260200190815260200160002060009054906101000a900460ff16151514610dd2576040517f08c379a0000000000000000000000000000000000000000000000000000000008152600401610dc990612126565b60405180910390fd5b600060049054906101000a900460ff1615610e22576040517f08c379a0000000000000000000000000000000000000000000000000000000008152600401610e1990612106565b60405180910390fd5b60011515600160008573ffffffffffffffffffffffffffffffffffffffff1673ffffffffffffffffffffffffffffffffffffffff16815260200190815260200160002060009054906101000a900460ff16151514610eb5576040517f08c379a0000000000000000000000000000000000000000000000000000000008152600401610eac90612166565b60405180910390fd5b6001600460009054906101000a900460ff1660ff1611610f0a576040517f08c379a0000000000000000000000000000000000000000000000000000000008152600401610f0190612186565b60405180910390fd5b600160008473ffffffffffffffffffffffffffffffffffffffff1673ffffffffffffffffffffffffffffffffffffffff16815260200190815260200160002060006101000a81549060ff02191690556004600081819054906101000a900460ff16809291906001900391906101000a81548160ff021916908360ff160217905550506001915050919050565b60008033905060011515600160008373ffffffffffffffffffffffffffffffffffffffff1673ffffffffffffffffffffffffffffffffffffffff16815260200190815260200160002060009054906101000a900460ff1615151461102f576040517f08c379a000000000000000000000000000000000000000000000000000000000815260040161102690612126565b60405180910390fd5b61103b8686868661129a565b61107a576040517f08c379a0000000000000000000000000000000000000000000000000000000008152600401611071906121e6565b60405180910390fd5b600060049054906101000a900460ff16156110ca576040517f08c379a00000000000000000000000000000000000000000000000000000000081526004016110c190612106565b60405180910390fd5b603c600460009054906101000a900460ff1660ff161061111f576040517f08c379a0000000000000000000000000000000000000000000000000000000008152600401611116906121a6565b60405180910390fd5b600160008873ffffffffffffffffffffffffffffffffffffffff1673ffffffffffffffffffffffffffffffffffffffff16815260200190815260200160002060009054906101000a900460ff16156111ac576040517f08c379a00000000000000000000000000000000000000000000000000000000081526004016111a390612226565b60405180910390fd5b60018060008973ffffffffffffffffffffffffffffffffffffffff1673ffffffffffffffffffffffffffffffffffffffff16815260200190815260200160002060006101000a81548160ff0219169083151502179055506004600081819054906101000a900460ff168092919060010191906101000a81548160ff021916908360ff16021790555050600191505095945050505050565b6060816000015182602001518360400151846060015185608001518660a001518760c001518860e001516040516020016112849897969594939291906122a8565b6040516020818303038152906040529050919050565b6000806000805b8651811015611359576112ef888683815181106112ba57fe5b60200260200101518984815181106112ce57fe5b60200260200101518985815181106112e257fe5b6020026020010151611480565b9250600160008473ffffffffffffffffffffffffffffffffffffffff1673ffffffffffffffffffffffffffffffffffffffff16815260200190815260200160002060009054906101000a900460ff161561134c5781806001019250505b80806001019150506112a1565b506000611364610862565b90508060ff168260ff161061137f5760019350505050611387565b600093505050505b949350505050565b611397611560565b61139f611560565b828060200190518101906113b39190611a87565b88600001896020018a6040018b6060018c6080018d60a0018e60c0018f60e0018881525088815250888152508863ffffffff1663ffffffff168152508873ffffffffffffffffffffffffffffffffffffffff1673ffffffffffffffffffffffffffffffffffffffff168152508873ffffffffffffffffffffffffffffffffffffffff1673ffffffffffffffffffffffffffffffffffffffff168152508863ffffffff1663ffffffff168152508863ffffffff1663ffffffff16815250505050505050505080915050919050565b600080600186868686604051600081526020016040526040516114a6949392919061209f565b6020604051602081039080840390855afa1580156114c8573d6000803e3d6000fd5b50505060206040510351905080915050949350505050565b828054600181600116156101000203166002900490600052602060002090601f016020900481019282601f1061152157805160ff191683800117855561154f565b8280016001018555821561154f579182015b8281111561154e578251825591602001919060010190611533565b5b50905061155c91906115e3565b5090565b604051806101000160405280600063ffffffff168152602001600063ffffffff168152602001600073ffffffffffffffffffffffffffffffffffffffff168152602001600073ffffffffffffffffffffffffffffffffffffffff168152602001600063ffffffff1681526020016000815260200160008152602001600081525090565b5b808211156115fc5760008160009055506001016115e4565b5090565b60008135905061160f816124e9565b92915050565b600082601f83011261162657600080fd5b81356116396116348261236e565b612341565b9150818183526020840193506020810190508385602084028201111561165e57600080fd5b60005b8381101561168e5781611674888261171b565b845260208401935060208301925050600181019050611661565b5050505092915050565b600082601f8301126116a957600080fd5b81356116bc6116b782612396565b612341565b915081818352602084019350602081019050838560208402820111156116e157600080fd5b60005b8381101561171157816116f78882611874565b8452602084019350602083019250506001810190506116e4565b5050505092915050565b60008135905061172a81612500565b92915050565b6000610100828403121561174357600080fd5b61174e610100612341565b9050600061175e8482850161184a565b60008301525060206117728482850161184a565b6020830152506040611786848285016117f6565b604083015250606061179a848285016117f6565b60608301525060806117ae8482850161184a565b60808301525060a06117c284828501611820565b60a08301525060c06117d684828501611820565b60c08301525060e06117ea84828501611820565b60e08301525092915050565b60008135905061180581612517565b92915050565b60008151905061181a81612517565b92915050565b60008135905061182f8161252e565b92915050565b6000815190506118448161252e565b92915050565b60008135905061185981612545565b92915050565b60008151905061186e81612545565b92915050565b6000813590506118838161255c565b92915050565b60006020828403121561189b57600080fd5b60006118a984828501611600565b91505092915050565b600080600080600060a086880312156118ca57600080fd5b60006118d888828901611600565b95505060206118e98882890161171b565b945050604086013567ffffffffffffffff81111561190657600080fd5b61191288828901611615565b935050606086013567ffffffffffffffff81111561192f57600080fd5b61193b88828901611615565b925050608086013567ffffffffffffffff81111561195857600080fd5b61196488828901611698565b9150509295509295909350565b6000806000806000610180868803121561198a57600080fd5b600061199888828901611730565b9550506101006119aa8882890161171b565b94505061012086013567ffffffffffffffff8111156119c857600080fd5b6119d488828901611615565b93505061014086013567ffffffffffffffff8111156119f257600080fd5b6119fe88828901611615565b92505061016086013567ffffffffffffffff811115611a1c57600080fd5b611a2888828901611698565b9150509295509295909350565b600060208284031215611a4757600080fd5b6000611a5584828501611820565b91505092915050565b600060208284031215611a7057600080fd5b6000611a7e8482850161184a565b91505092915050565b600080600080600080600080610100898b031215611aa457600080fd5b6000611ab28b828c0161185f565b9850506020611ac38b828c0161185f565b9750506040611ad48b828c0161180b565b9650506060611ae58b828c0161180b565b9550506080611af68b828c0161185f565b94505060a0611b078b828c01611835565b93505060c0611b188b828c01611835565b92505060e0611b298b828c01611835565b9150509295985092959890939650565b6000611b45838361200b565b60208301905092915050565b611b5a81612424565b82525050565b6000611b6b826123ce565b611b7581856123f1565b9350611b80836123be565b8060005b83811015611bb1578151611b988882611b39565b9750611ba3836123e4565b925050600181019050611b84565b5085935050505092915050565b611bc781612436565b82525050565b611bd681612442565b82525050565b6000611be7826123d9565b611bf18185612402565b9350611c018185602086016124a5565b611c0a816124d8565b840191505092915050565b6000611c22601c83612413565b91507f436f6e747261637420686173206265656e2064657072656361746564000000006000830152602082019050919050565b6000611c62601683612413565b91507f43616c6c6572206973206e6f742061206e6f74617279000000000000000000006000830152602082019050919050565b6000611ca2602483612413565b91507f4f6e6c792061206e6f746172792063616e2063616c6c20746869732066756e6360008301527f74696f6e000000000000000000000000000000000000000000000000000000006020830152604082019050919050565b6000611d08601583612413565b91507f4e6f7461727920646f6573206e6f7420657869737400000000000000000000006000830152602082019050919050565b6000611d48601e83612413565b91507f4d7573742068617665206d6f7265207468616e206f6e65206e6f7461727900006000830152602082019050919050565b6000611d88601f83612413565b91507f43616e742068617665206d6f7265207468616e203630206e6f746172696573006000830152602082019050919050565b6000611dc8602883612413565b91507f5369676e617475726520617272617973206d757374206265206f66206571756160008301527f6c206c656e6774680000000000000000000000000000000000000000000000006020830152604082019050919050565b6000611e2e602983612413565b91507f46756e6374696f6e2063616e206f6e6c7920626520657865637574656420627960008301527f206e6f74617269657300000000000000000000000000000000000000000000006020830152604082019050919050565b6000611e94603683612413565b91507f426c6f636b20486569676874206d75737420626520677265617465722074686160008301527f6e2063757272656e7420626c6f636b20686569676874000000000000000000006020830152604082019050919050565b6000611efa601583612413565b91507f4e6f7461727920616c72656164792065786973747300000000000000000000006000830152602082019050919050565b61010082016000820151611f44600085018261200b565b506020820151611f57602085018261200b565b506040820151611f6a6040850182611fcf565b506060820151611f7d6060850182611fcf565b506080820151611f90608085018261200b565b5060a0820151611fa360a0850182611fed565b5060c0820151611fb660c0850182611fed565b5060e0820151611fc960e0850182611fed565b50505050565b611fd88161244c565b82525050565b611fe78161244c565b82525050565b611ff68161246c565b82525050565b6120058161246c565b82525050565b61201481612476565b82525050565b61202381612476565b82525050565b61203281612493565b82525050565b61204181612486565b82525050565b600060208201905061205c6000830184611b51565b92915050565b6000602082019050818103600083015261207c8184611b60565b905092915050565b60006020820190506120996000830184611bbe565b92915050565b60006080820190506120b46000830187611bcd565b6120c16020830186612038565b6120ce6040830185611bcd565b6120db6060830184611bcd565b95945050505050565b600060208201905081810360008301526120fe8184611bdc565b905092915050565b6000602082019050818103600083015261211f81611c15565b9050919050565b6000602082019050818103600083015261213f81611c55565b9050919050565b6000602082019050818103600083015261215f81611c95565b9050919050565b6000602082019050818103600083015261217f81611cfb565b9050919050565b6000602082019050818103600083015261219f81611d3b565b9050919050565b600060208201905081810360008301526121bf81611d7b565b9050919050565b600060208201905081810360008301526121df81611dbb565b9050919050565b600060208201905081810360008301526121ff81611e21565b9050919050565b6000602082019050818103600083015261221f81611e87565b9050919050565b6000602082019050818103600083015261223f81611eed565b9050919050565b60006101008201905061225c6000830184611f2d565b92915050565b6000610120820190506122786000830185611f2d565b612286610100830184612029565b9392505050565b60006020820190506122a2600083018461201a565b92915050565b6000610100820190506122be600083018b61201a565b6122cb602083018a61201a565b6122d86040830189611fde565b6122e56060830188611fde565b6122f2608083018761201a565b6122ff60a0830186611ffc565b61230c60c0830185611ffc565b61231960e0830184611ffc565b9998505050505050505050565b600060208201905061233b6000830184612038565b92915050565b6000604051905081810181811067ffffffffffffffff8211171561236457600080fd5b8060405250919050565b600067ffffffffffffffff82111561238557600080fd5b602082029050602081019050919050565b600067ffffffffffffffff8211156123ad57600080fd5b602082029050602081019050919050565b6000819050602082019050919050565b600081519050919050565b600081519050919050565b6000602082019050919050565b600082825260208201905092915050565b600082825260208201905092915050565b600082825260208201905092915050565b600061242f8261244c565b9050919050565b60008115159050919050565b6000819050919050565b600073ffffffffffffffffffffffffffffffffffffffff82169050919050565b6000819050919050565b600063ffffffff82169050919050565b600060ff82169050919050565b600061249e82612476565b9050919050565b60005b838110156124c35780820151818401526020810190506124a8565b838111156124d2576000848401525b50505050565b6000601f19601f8301169050919050565b6124f281612424565b81146124fd57600080fd5b50565b61250981612442565b811461251457600080fd5b50565b6125208161244c565b811461252b57600080fd5b50565b6125378161246c565b811461254257600080fd5b50565b61254e81612476565b811461255957600080fd5b50565b61256581612486565b811461257057600080fd5b5056fea2646970667358221220414e826cbbc0396ac10166d89e9fa500e779aa07728bca34c6c42c200ec8cd3264736f6c634300060c0033",
  "immutableReferences": {},
  "source": "// SPDX-License-Identifier: MIT\n// Bridge between ethereum and verus\n\npragma solidity >=0.6.0 <0.7.0;\npragma experimental ABIEncoderV2;\n\n\ncontract VerusNotarizer{\n\n    //last notarized blockheight\n    uint32 public lastBlockHeight;\n    //CurrencyState private lastCurrencyState;\n    //allows for the contract to be upgradable\n    bool public deprecated;\n    address public upgradedAddress;\n    //number of notaries required\n    uint8 requiredNotaries = 13;\n\n    //list of all notarizers mapped to allow for quick searching\n    mapping (address => bool) private komodoNotaries;\n    //mapped blockdetails\n    mapping (uint32 => bytes) public notarizedDataEntries;\n    uint32[] public blockHeights;\n    //used to record the number of notaries\n    uint8 private notaryCount;\n\n    struct NotarizedData{\n        uint32 version;\n        uint32 protocol;\n        uint160 currencyID;\n        uint160 notaryDest;\n        uint32 notarizationHeight;\n        uint256 mmrRoot;\n        uint256 notarizationPreHash;\n        uint256 compactPower;\n    }\n\n    struct TestData{\n        uint32 version;\n        uint32 protocol;\n        uint160 currencyID;\n        uint160 notaryDest;\n        uint32 notarizationHeight;\n        uint256 mmrRoot;\n    }\n  /*  \n    struct CurrencyState{\n        uint64[] reserveIn;\n        uint64[] nativeIn;\n        uint64[] reserveOut;\n        uint64[] conversionPrice;\n        uint64[] fees;\n        uint64[] conversionFees;\n    }\n  */  \n    // Notifies when the contract is deprecated\n    event Deprecate(address newAddress);\n    // Notifies when a new block hash is published\n    event NewBlock(NotarizedData notarizedData,uint64 notarizedDataHeight);\n    event signedAddress(address signedAddress);\n\n    constructor() public {\n        deprecated = false;\n        notaryCount = 0;\n        lastBlockHeight = 0;\n        //add in the owner as the first notary\n        address msgSender = msg.sender;\n        komodoNotaries[msgSender] = true;\n        notaryCount++;\n    }\n\n    modifier onlyNotary() {\n        address msgSender = msg.sender;\n        require(komodoNotaries[msgSender] == true, \"Caller is not a notary\");\n        _;\n    }\n\n    function addNotary(address _notary,\n        bytes32 _notarizedAddressHash,\n        bytes32[] memory _rs,\n        bytes32[] memory _ss,\n        uint8[] memory _vs) public onlyNotary\n    returns(bool){\n        require(isNotarized(_notarizedAddressHash,_rs,_ss,_vs),\"Function can only be executed by notaries\");\n        require(!deprecated,\"Contract has been deprecated\");\n        //if the the komodoNotaries is full reject\n        require(notaryCount < 60,\"Cant have more than 60 notaries\");\n        //if the notary already is in the komodNotaries then reject\n        require(!komodoNotaries[_notary],\"Notary already exists\");\n\n        komodoNotaries[_notary] = true;\n        notaryCount++;\n        return true;\n\n    }\n\n    function removeNotary(address _notary) public onlyNotary\n    returns(bool){\n\n        require(!deprecated,\"Contract has been deprecated\");\n        //if the notary is not in the list then fail\n        require(komodoNotaries[_notary] == true,\"Notary does not exist\");\n        //there must be at least one notary in the contract perhaps?\n        require(notaryCount > 1,\"Must have more than one notary\");\n        //need to look at this no easy way to delete from a mapping\n        delete komodoNotaries[_notary];\n        notaryCount--;\n        return true;\n\n    }\n\n    //this function allows for intially expanding out the number of notaries\n    function currentNotariesRequired() public view returns(uint8){\n        if(notaryCount == 1) return 1;\n        uint halfNotaryCount = notaryCount/2;\n        if(halfNotaryCount > requiredNotaries) return requiredNotaries;\n        else return uint8(halfNotaryCount);\n    }\n\n    function isNotarized(bytes32 notarizedDataHash,\n        bytes32[] memory _rs,\n        bytes32[] memory _ss,\n        uint8[] memory _vs) private view returns(bool){\n        \n        address signingAddress;\n        //total number of signatures that have been validated\n        uint8 numberOfSignatures = 0;\n\n        //loop through the arrays, check the following:\n        //does the hash in the hashedBlocks match the komodoBlockHash passed in\n        for(uint i = 0; i < _rs.length; i++){\n            //if the address is in the notary array increment the number of signatures\n            signingAddress = recoverSigner(notarizedDataHash, _vs[i], _rs[i], _ss[i]);\n            if(komodoNotaries[signingAddress]) {\n                numberOfSignatures++;\n            }\n        }\n        uint8 _requiredNotaries = currentNotariesRequired();\n        if(numberOfSignatures >= _requiredNotaries){\n            return true;\n        } else return false;\n\n    }\n\n    function setLatestData(NotarizedData memory _notarizedDataDetail,\n        bytes32 _notarizedDataHash,\n        bytes32[] memory _rs,\n        bytes32[] memory _ss,\n        uint8[] memory _vs) public onlyNotary returns(bool){\n\n        require(!deprecated,\"Contract has been deprecated\");\n        require(komodoNotaries[msg.sender],\"Only a notary can call this function\");\n        require((_rs.length == _ss.length) && (_rs.length == _vs.length),\"Signature arrays must be of equal length\");\n        require(_notarizedDataDetail.notarizationHeight > lastBlockHeight,\"Block Height must be greater than current block height\");\n\n        bytes memory serializedBlock = serializeData(_notarizedDataDetail);\n        //check the hash of the data\n        //need to check the block hash matches the hashed notarized block\n        \n        //if there is greater than 13 proper signatories then set the block hash\n        if(isNotarized(_notarizedDataHash,_rs,_ss,_vs)){\n            notarizedDataEntries[_notarizedDataDetail.notarizationHeight] = serializedBlock;\n            blockHeights.push(_notarizedDataDetail.notarizationHeight);\n            lastBlockHeight = _notarizedDataDetail.notarizationHeight;\n            //lastCurrencyState = _currencyState;\n            emit NewBlock(_notarizedDataDetail,lastBlockHeight);\n            return true;\n        } else return false;\n    }\n\n    function recoverSigner(bytes32 h, uint8 v, bytes32 r, bytes32 s) private pure returns (address) {\n        address addr = ecrecover(h, v, r, s);\n        return addr;\n    }\n\n\n    function getLastNotarizedData() public view returns(NotarizedData memory){\n\n        require(!deprecated,\"Contract has been deprecated\");\n        return deSerializeData(notarizedDataEntries[lastBlockHeight]);\n\n    }\n    /*\n    function getLastCurrencyState() public view returns(CurrencyState memory){\n        require(!deprecated,\"Contract has been deprecated\");\n        return lastCurrencyState;\n    }*/\n\n    function getNotarizedData(uint32 _blockHeight) public view returns(NotarizedData memory){\n\n        return deSerializeData(notarizedDataEntries[_blockHeight]);\n\n    }\n\n    function getLastBlockHeight() public view returns(uint32){\n\n        require(!deprecated,\"Contract has been deprecated\");\n        return lastBlockHeight;\n    }\n\n    function getAllBlockHeights() public view returns(uint32[] memory){\n        return blockHeights;\n    }\n\n    function deSerializeData(bytes memory _serializedBlock) private pure returns(NotarizedData memory){\n        NotarizedData memory deserializedBlock;\n\n        (deserializedBlock.version,\n        deserializedBlock.protocol,\n        deserializedBlock.currencyID,\n        deserializedBlock.notaryDest,\n        deserializedBlock.notarizationHeight,\n        deserializedBlock.mmrRoot,\n        deserializedBlock.notarizationPreHash,\n        deserializedBlock.compactPower\n        ) = abi.decode(_serializedBlock,(uint32,uint32,uint160,uint160,uint32,uint256,uint256,uint256));\n\n        return deserializedBlock;\n    }\n\n    function serializeData(NotarizedData memory _deserializedBlock) private pure returns(bytes memory){\n\n        return abi.encode(_deserializedBlock.version,\n        _deserializedBlock.protocol,\n        _deserializedBlock.currencyID,\n        _deserializedBlock.notaryDest,\n        _deserializedBlock.notarizationHeight,\n        _deserializedBlock.mmrRoot,\n        _deserializedBlock.notarizationPreHash,\n        _deserializedBlock.compactPower);\n\n    }\n\n    /*** temporary code for use on test net only will be removed for production */\n\n    function kill() public onlyNotary{\n        selfdestruct(msg.sender);\n    }\n\n    /**\n    * deprecate current contract\n    */\n    function deprecate(address _upgradedAddress) public onlyNotary {\n        require(!deprecated,\"Contract has been deprecated\");\n        deprecated = true;\n        upgradedAddress = _upgradedAddress;\n        emit Deprecate(_upgradedAddress);\n\n    }\n\n}",
  "sourcePath": "/Volumes/UsersSSD/james/Development/komodo-notarisation-solidity/contracts/VerusNotarizer/VerusNotarizer.sol",
  "compiler": {
    "name": "solc",
    "version": "0.6.12+commit.27d51765.Emscripten.clang"
  },
  "schemaVersion": "3.2.0",
  "updatedAt": "2020-10-07T11:07:24.964Z",
  "networkType": "ethereum",
  "devdoc": {
    "kind": "dev",
    "methods": {},
    "version": 1
  },
  "userdoc": {
    "kind": "user",
    "methods": {
      "deprecate(address)": {
        "notice": "deprecate current contract"
      }
    },
    "version": 1
  }
}