{
  "contractName": "VerusBridge",
  "abi": [
    {
      "inputs": [
        {
          "internalType": "address",
          "name": "verusProofAddress",
          "type": "address"
        },
        {
          "internalType": "address",
          "name": "tokenManagerAddress",
          "type": "address"
        },
        {
          "internalType": "address",
          "name": "verusSerializerAddress",
          "type": "address"
        },
        {
          "internalType": "address",
          "name": "verusNotarizerAddress",
          "type": "address"
        },
        {
          "internalType": "address",
          "name": "verusCCEAddress",
          "type": "address"
        },
        {
          "internalType": "uint256",
          "name": "_poolSize",
          "type": "uint256"
        }
      ],
      "stateMutability": "nonpayable",
      "type": "constructor"
    },
    {
      "anonymous": false,
      "inputs": [
        {
          "indexed": false,
          "internalType": "address",
          "name": "newAddress",
          "type": "address"
        }
      ],
      "name": "Deprecate",
      "type": "event"
    },
    {
      "inputs": [
        {
          "internalType": "uint256",
          "name": "",
          "type": "uint256"
        }
      ],
      "name": "SerializedCCEs",
      "outputs": [
        {
          "internalType": "bytes",
          "name": "",
          "type": "bytes"
        }
      ],
      "stateMutability": "view",
      "type": "function",
      "constant": true
    },
    {
      "inputs": [
        {
          "internalType": "uint256",
          "name": "",
          "type": "uint256"
        }
      ],
      "name": "SerializedCRTs",
      "outputs": [
        {
          "internalType": "bytes",
          "name": "",
          "type": "bytes"
        }
      ],
      "stateMutability": "view",
      "type": "function",
      "constant": true
    },
    {
      "inputs": [
        {
          "internalType": "uint256",
          "name": "",
          "type": "uint256"
        },
        {
          "internalType": "uint256",
          "name": "",
          "type": "uint256"
        }
      ],
      "name": "_readyExports",
      "outputs": [
        {
          "internalType": "uint32",
          "name": "version",
          "type": "uint32"
        },
        {
          "components": [
            {
              "internalType": "address",
              "name": "currency",
              "type": "address"
            },
            {
              "internalType": "uint64",
              "name": "amount",
              "type": "uint64"
            }
          ],
          "internalType": "struct VerusObjects.CCurrencyValueMap",
          "name": "currencyvalue",
          "type": "tuple"
        },
        {
          "internalType": "uint32",
          "name": "flags",
          "type": "uint32"
        },
        {
          "internalType": "address",
          "name": "feecurrencyid",
          "type": "address"
        },
        {
          "internalType": "uint256",
          "name": "fees",
          "type": "uint256"
        },
        {
          "components": [
            {
              "internalType": "uint8",
              "name": "destinationtype",
              "type": "uint8"
            },
            {
              "internalType": "address",
              "name": "destinationaddress",
              "type": "address"
            }
          ],
          "internalType": "struct VerusObjectsCommon.CTransferDestination",
          "name": "destination",
          "type": "tuple"
        },
        {
          "internalType": "address",
          "name": "destcurrencyid",
          "type": "address"
        },
        {
          "internalType": "address",
          "name": "destsystemid",
          "type": "address"
        },
        {
          "internalType": "address",
          "name": "secondreserveid",
          "type": "address"
        }
      ],
      "stateMutability": "view",
      "type": "function",
      "constant": true
    },
    {
      "inputs": [
        {
          "internalType": "address",
          "name": "",
          "type": "address"
        }
      ],
      "name": "claimableFees",
      "outputs": [
        {
          "internalType": "uint256",
          "name": "",
          "type": "uint256"
        }
      ],
      "stateMutability": "view",
      "type": "function",
      "constant": true
    },
    {
      "inputs": [],
      "name": "deprecated",
      "outputs": [
        {
          "internalType": "bool",
          "name": "",
          "type": "bool"
        }
      ],
      "stateMutability": "view",
      "type": "function",
      "constant": true
    },
    {
      "inputs": [],
      "name": "ethHeld",
      "outputs": [
        {
          "internalType": "uint256",
          "name": "",
          "type": "uint256"
        }
      ],
      "stateMutability": "view",
      "type": "function",
      "constant": true
    },
    {
      "inputs": [],
      "name": "feesHeld",
      "outputs": [
        {
          "internalType": "uint256",
          "name": "",
          "type": "uint256"
        }
      ],
      "stateMutability": "view",
      "type": "function",
      "constant": true
    },
    {
      "inputs": [],
      "name": "firstBlock",
      "outputs": [
        {
          "internalType": "uint256",
          "name": "",
          "type": "uint256"
        }
      ],
      "stateMutability": "view",
      "type": "function",
      "constant": true
    },
    {
      "inputs": [
        {
          "internalType": "uint256",
          "name": "",
          "type": "uint256"
        }
      ],
      "name": "hashedCRTs",
      "outputs": [
        {
          "internalType": "bytes32",
          "name": "",
          "type": "bytes32"
        }
      ],
      "stateMutability": "view",
      "type": "function",
      "constant": true
    },
    {
      "inputs": [],
      "name": "lastTxidimport",
      "outputs": [
        {
          "internalType": "uint256",
          "name": "",
          "type": "uint256"
        }
      ],
      "stateMutability": "view",
      "type": "function",
      "constant": true
    },
    {
      "inputs": [],
      "name": "lastimport",
      "outputs": [
        {
          "internalType": "uint256",
          "name": "height",
          "type": "uint256"
        },
        {
          "internalType": "bytes32",
          "name": "txid",
          "type": "bytes32"
        }
      ],
      "stateMutability": "view",
      "type": "function",
      "constant": true
    },
    {
      "inputs": [],
      "name": "poolSize",
      "outputs": [
        {
          "internalType": "uint256",
          "name": "",
          "type": "uint256"
        }
      ],
      "stateMutability": "view",
      "type": "function",
      "constant": true
    },
    {
      "inputs": [
        {
          "internalType": "bytes32",
          "name": "",
          "type": "bytes32"
        }
      ],
      "name": "processedTxids",
      "outputs": [
        {
          "internalType": "bool",
          "name": "",
          "type": "bool"
        }
      ],
      "stateMutability": "view",
      "type": "function",
      "constant": true
    },
    {
      "inputs": [
        {
          "internalType": "uint256",
          "name": "",
          "type": "uint256"
        }
      ],
      "name": "readyExportHashes",
      "outputs": [
        {
          "internalType": "bytes32",
          "name": "",
          "type": "bytes32"
        }
      ],
      "stateMutability": "view",
      "type": "function",
      "constant": true
    },
    {
      "inputs": [
        {
          "internalType": "uint256",
          "name": "",
          "type": "uint256"
        }
      ],
      "name": "readyExportsByBlock",
      "outputs": [
        {
          "internalType": "uint256",
          "name": "index",
          "type": "uint256"
        },
        {
          "internalType": "bool",
          "name": "created",
          "type": "bool"
        }
      ],
      "stateMutability": "view",
      "type": "function",
      "constant": true
    },
    {
      "inputs": [],
      "name": "upgradedAddress",
      "outputs": [
        {
          "internalType": "address",
          "name": "",
          "type": "address"
        }
      ],
      "stateMutability": "view",
      "type": "function",
      "constant": true
    },
    {
      "inputs": [
        {
          "internalType": "uint256",
          "name": "a",
          "type": "uint256"
        }
      ],
      "name": "convertToVerusNumber",
      "outputs": [
        {
          "internalType": "uint64",
          "name": "",
          "type": "uint64"
        }
      ],
      "stateMutability": "pure",
      "type": "function",
      "constant": true
    },
    {
      "inputs": [
        {
          "internalType": "uint256",
          "name": "a",
          "type": "uint256"
        }
      ],
      "name": "convertFromVerusNumber",
      "outputs": [
        {
          "internalType": "uint256",
          "name": "",
          "type": "uint256"
        }
      ],
      "stateMutability": "pure",
      "type": "function",
      "constant": true
    },
    {
      "inputs": [
        {
          "components": [
            {
              "internalType": "uint32",
              "name": "version",
              "type": "uint32"
            },
            {
              "components": [
                {
                  "internalType": "address",
                  "name": "currency",
                  "type": "address"
                },
                {
                  "internalType": "uint64",
                  "name": "amount",
                  "type": "uint64"
                }
              ],
              "internalType": "struct VerusObjects.CCurrencyValueMap",
              "name": "currencyvalue",
              "type": "tuple"
            },
            {
              "internalType": "uint32",
              "name": "flags",
              "type": "uint32"
            },
            {
              "internalType": "address",
              "name": "feecurrencyid",
              "type": "address"
            },
            {
              "internalType": "uint256",
              "name": "fees",
              "type": "uint256"
            },
            {
              "components": [
                {
                  "internalType": "uint8",
                  "name": "destinationtype",
                  "type": "uint8"
                },
                {
                  "internalType": "address",
                  "name": "destinationaddress",
                  "type": "address"
                }
              ],
              "internalType": "struct VerusObjectsCommon.CTransferDestination",
              "name": "destination",
              "type": "tuple"
            },
            {
              "internalType": "address",
              "name": "destcurrencyid",
              "type": "address"
            },
            {
              "internalType": "address",
              "name": "destsystemid",
              "type": "address"
            },
            {
              "internalType": "address",
              "name": "secondreserveid",
              "type": "address"
            }
          ],
          "internalType": "struct VerusObjects.CReserveTransfer",
          "name": "transfer",
          "type": "tuple"
        }
      ],
      "name": "export",
      "outputs": [],
      "stateMutability": "payable",
      "type": "function",
      "payable": true
    },
    {
      "inputs": [],
      "name": "getlastimportheight",
      "outputs": [
        {
          "internalType": "uint256",
          "name": "",
          "type": "uint256"
        }
      ],
      "stateMutability": "view",
      "type": "function",
      "constant": true
    },
    {
      "inputs": [
        {
          "internalType": "bytes32[]",
          "name": "_imports",
          "type": "bytes32[]"
        }
      ],
      "name": "checkImports",
      "outputs": [
        {
          "internalType": "bytes32[]",
          "name": "",
          "type": "bytes32[]"
        }
      ],
      "stateMutability": "view",
      "type": "function",
      "constant": true
    },
    {
      "inputs": [
        {
          "components": [
            {
              "internalType": "uint256",
              "name": "height",
              "type": "uint256"
            },
            {
              "internalType": "bytes32",
              "name": "txid",
              "type": "bytes32"
            },
            {
              "internalType": "uint256",
              "name": "txoutnum",
              "type": "uint256"
            },
            {
              "components": [
                {
                  "internalType": "uint16",
                  "name": "version",
                  "type": "uint16"
                },
                {
                  "internalType": "uint16",
                  "name": "flags",
                  "type": "uint16"
                },
                {
                  "internalType": "address",
                  "name": "sourcesystemid",
                  "type": "address"
                },
                {
                  "internalType": "uint32",
                  "name": "sourceheightstart",
                  "type": "uint32"
                },
                {
                  "internalType": "uint32",
                  "name": "sourceheightend",
                  "type": "uint32"
                },
                {
                  "internalType": "address",
                  "name": "destinationsystemid",
                  "type": "address"
                },
                {
                  "internalType": "address",
                  "name": "destinationcurrencyid",
                  "type": "address"
                },
                {
                  "internalType": "uint32",
                  "name": "numinputs",
                  "type": "uint32"
                },
                {
                  "components": [
                    {
                      "internalType": "address",
                      "name": "currency",
                      "type": "address"
                    },
                    {
                      "internalType": "uint64",
                      "name": "amount",
                      "type": "uint64"
                    }
                  ],
                  "internalType": "struct VerusObjects.CCurrencyValueMap[]",
                  "name": "totalamounts",
                  "type": "tuple[]"
                },
                {
                  "components": [
                    {
                      "internalType": "address",
                      "name": "currency",
                      "type": "address"
                    },
                    {
                      "internalType": "uint64",
                      "name": "amount",
                      "type": "uint64"
                    }
                  ],
                  "internalType": "struct VerusObjects.CCurrencyValueMap[]",
                  "name": "totalfees",
                  "type": "tuple[]"
                },
                {
                  "internalType": "bytes32",
                  "name": "hashtransfers",
                  "type": "bytes32"
                },
                {
                  "components": [
                    {
                      "internalType": "address",
                      "name": "currency",
                      "type": "address"
                    },
                    {
                      "internalType": "uint64",
                      "name": "amount",
                      "type": "uint64"
                    }
                  ],
                  "internalType": "struct VerusObjects.CCurrencyValueMap[]",
                  "name": "totalburned",
                  "type": "tuple[]"
                },
                {
                  "components": [
                    {
                      "internalType": "uint8",
                      "name": "destinationtype",
                      "type": "uint8"
                    },
                    {
                      "internalType": "address",
                      "name": "destinationaddress",
                      "type": "address"
                    }
                  ],
                  "internalType": "struct VerusObjectsCommon.CTransferDestination",
                  "name": "rewardaddress",
                  "type": "tuple"
                },
                {
                  "internalType": "int32",
                  "name": "firstinput",
                  "type": "int32"
                }
              ],
              "internalType": "struct VerusObjects.CCrossChainExport",
              "name": "exportinfo",
              "type": "tuple"
            },
            {
              "components": [
                {
                  "internalType": "uint8",
                  "name": "version",
                  "type": "uint8"
                },
                {
                  "internalType": "uint8",
                  "name": "typeC",
                  "type": "uint8"
                },
                {
                  "components": [
                    {
                      "internalType": "uint8",
                      "name": "branchType",
                      "type": "uint8"
                    },
                    {
                      "components": [
                        {
                          "internalType": "uint8",
                          "name": "CMerkleBranchBase",
                          "type": "uint8"
                        },
                        {
                          "internalType": "uint32",
                          "name": "nIndex",
                          "type": "uint32"
                        },
                        {
                          "internalType": "uint32",
                          "name": "nSize",
                          "type": "uint32"
                        },
                        {
                          "internalType": "bytes32[]",
                          "name": "branch",
                          "type": "bytes32[]"
                        }
                      ],
                      "internalType": "struct VerusObjects.CMerkleBranch",
                      "name": "proofSequence",
                      "type": "tuple"
                    }
                  ],
                  "internalType": "struct VerusObjects.CTXProof[]",
                  "name": "txproof",
                  "type": "tuple[]"
                },
                {
                  "components": [
                    {
                      "internalType": "uint8",
                      "name": "elType",
                      "type": "uint8"
                    },
                    {
                      "internalType": "uint8",
                      "name": "elIdx",
                      "type": "uint8"
                    },
                    {
                      "internalType": "bytes",
                      "name": "elVchObj",
                      "type": "bytes"
                    },
                    {
                      "components": [
                        {
                          "internalType": "uint8",
                          "name": "branchType",
                          "type": "uint8"
                        },
                        {
                          "components": [
                            {
                              "internalType": "uint8",
                              "name": "CMerkleBranchBase",
                              "type": "uint8"
                            },
                            {
                              "internalType": "uint32",
                              "name": "nIndex",
                              "type": "uint32"
                            },
                            {
                              "internalType": "uint32",
                              "name": "nSize",
                              "type": "uint32"
                            },
                            {
                              "internalType": "bytes32[]",
                              "name": "branch",
                              "type": "bytes32[]"
                            }
                          ],
                          "internalType": "struct VerusObjects.CMerkleBranch",
                          "name": "proofSequence",
                          "type": "tuple"
                        }
                      ],
                      "internalType": "struct VerusObjects.CTXProof[]",
                      "name": "elProof",
                      "type": "tuple[]"
                    },
                    {
                      "internalType": "uint32",
                      "name": "VchObjIndex",
                      "type": "uint32"
                    }
                  ],
                  "internalType": "struct VerusObjects.CComponents[]",
                  "name": "components",
                  "type": "tuple[]"
                }
              ],
              "internalType": "struct VerusObjects.CPtransactionproof",
              "name": "partialtransactionproof",
              "type": "tuple"
            },
            {
              "components": [
                {
                  "internalType": "uint32",
                  "name": "version",
                  "type": "uint32"
                },
                {
                  "components": [
                    {
                      "internalType": "address",
                      "name": "currency",
                      "type": "address"
                    },
                    {
                      "internalType": "uint64",
                      "name": "amount",
                      "type": "uint64"
                    }
                  ],
                  "internalType": "struct VerusObjects.CCurrencyValueMap",
                  "name": "currencyvalue",
                  "type": "tuple"
                },
                {
                  "internalType": "uint32",
                  "name": "flags",
                  "type": "uint32"
                },
                {
                  "internalType": "address",
                  "name": "feecurrencyid",
                  "type": "address"
                },
                {
                  "internalType": "uint256",
                  "name": "fees",
                  "type": "uint256"
                },
                {
                  "components": [
                    {
                      "internalType": "uint8",
                      "name": "destinationtype",
                      "type": "uint8"
                    },
                    {
                      "internalType": "address",
                      "name": "destinationaddress",
                      "type": "address"
                    }
                  ],
                  "internalType": "struct VerusObjectsCommon.CTransferDestination",
                  "name": "destination",
                  "type": "tuple"
                },
                {
                  "internalType": "address",
                  "name": "destcurrencyid",
                  "type": "address"
                },
                {
                  "internalType": "address",
                  "name": "destsystemid",
                  "type": "address"
                },
                {
                  "internalType": "address",
                  "name": "secondreserveid",
                  "type": "address"
                }
              ],
              "internalType": "struct VerusObjects.CReserveTransfer[]",
              "name": "transfers",
              "type": "tuple[]"
            }
          ],
          "internalType": "struct VerusObjects.CReserveTransferImport[]",
          "name": "_imports",
          "type": "tuple[]"
        }
      ],
      "name": "submitImports",
      "outputs": [],
      "stateMutability": "nonpayable",
      "type": "function"
    },
    {
      "inputs": [
        {
          "components": [
            {
              "internalType": "uint256",
              "name": "height",
              "type": "uint256"
            },
            {
              "internalType": "bytes32",
              "name": "txid",
              "type": "bytes32"
            },
            {
              "internalType": "uint256",
              "name": "txoutnum",
              "type": "uint256"
            },
            {
              "components": [
                {
                  "internalType": "uint16",
                  "name": "version",
                  "type": "uint16"
                },
                {
                  "internalType": "uint16",
                  "name": "flags",
                  "type": "uint16"
                },
                {
                  "internalType": "address",
                  "name": "sourcesystemid",
                  "type": "address"
                },
                {
                  "internalType": "uint32",
                  "name": "sourceheightstart",
                  "type": "uint32"
                },
                {
                  "internalType": "uint32",
                  "name": "sourceheightend",
                  "type": "uint32"
                },
                {
                  "internalType": "address",
                  "name": "destinationsystemid",
                  "type": "address"
                },
                {
                  "internalType": "address",
                  "name": "destinationcurrencyid",
                  "type": "address"
                },
                {
                  "internalType": "uint32",
                  "name": "numinputs",
                  "type": "uint32"
                },
                {
                  "components": [
                    {
                      "internalType": "address",
                      "name": "currency",
                      "type": "address"
                    },
                    {
                      "internalType": "uint64",
                      "name": "amount",
                      "type": "uint64"
                    }
                  ],
                  "internalType": "struct VerusObjects.CCurrencyValueMap[]",
                  "name": "totalamounts",
                  "type": "tuple[]"
                },
                {
                  "components": [
                    {
                      "internalType": "address",
                      "name": "currency",
                      "type": "address"
                    },
                    {
                      "internalType": "uint64",
                      "name": "amount",
                      "type": "uint64"
                    }
                  ],
                  "internalType": "struct VerusObjects.CCurrencyValueMap[]",
                  "name": "totalfees",
                  "type": "tuple[]"
                },
                {
                  "internalType": "bytes32",
                  "name": "hashtransfers",
                  "type": "bytes32"
                },
                {
                  "components": [
                    {
                      "internalType": "address",
                      "name": "currency",
                      "type": "address"
                    },
                    {
                      "internalType": "uint64",
                      "name": "amount",
                      "type": "uint64"
                    }
                  ],
                  "internalType": "struct VerusObjects.CCurrencyValueMap[]",
                  "name": "totalburned",
                  "type": "tuple[]"
                },
                {
                  "components": [
                    {
                      "internalType": "uint8",
                      "name": "destinationtype",
                      "type": "uint8"
                    },
                    {
                      "internalType": "address",
                      "name": "destinationaddress",
                      "type": "address"
                    }
                  ],
                  "internalType": "struct VerusObjectsCommon.CTransferDestination",
                  "name": "rewardaddress",
                  "type": "tuple"
                },
                {
                  "internalType": "int32",
                  "name": "firstinput",
                  "type": "int32"
                }
              ],
              "internalType": "struct VerusObjects.CCrossChainExport",
              "name": "exportinfo",
              "type": "tuple"
            },
            {
              "components": [
                {
                  "internalType": "uint8",
                  "name": "version",
                  "type": "uint8"
                },
                {
                  "internalType": "uint8",
                  "name": "typeC",
                  "type": "uint8"
                },
                {
                  "components": [
                    {
                      "internalType": "uint8",
                      "name": "branchType",
                      "type": "uint8"
                    },
                    {
                      "components": [
                        {
                          "internalType": "uint8",
                          "name": "CMerkleBranchBase",
                          "type": "uint8"
                        },
                        {
                          "internalType": "uint32",
                          "name": "nIndex",
                          "type": "uint32"
                        },
                        {
                          "internalType": "uint32",
                          "name": "nSize",
                          "type": "uint32"
                        },
                        {
                          "internalType": "bytes32[]",
                          "name": "branch",
                          "type": "bytes32[]"
                        }
                      ],
                      "internalType": "struct VerusObjects.CMerkleBranch",
                      "name": "proofSequence",
                      "type": "tuple"
                    }
                  ],
                  "internalType": "struct VerusObjects.CTXProof[]",
                  "name": "txproof",
                  "type": "tuple[]"
                },
                {
                  "components": [
                    {
                      "internalType": "uint8",
                      "name": "elType",
                      "type": "uint8"
                    },
                    {
                      "internalType": "uint8",
                      "name": "elIdx",
                      "type": "uint8"
                    },
                    {
                      "internalType": "bytes",
                      "name": "elVchObj",
                      "type": "bytes"
                    },
                    {
                      "components": [
                        {
                          "internalType": "uint8",
                          "name": "branchType",
                          "type": "uint8"
                        },
                        {
                          "components": [
                            {
                              "internalType": "uint8",
                              "name": "CMerkleBranchBase",
                              "type": "uint8"
                            },
                            {
                              "internalType": "uint32",
                              "name": "nIndex",
                              "type": "uint32"
                            },
                            {
                              "internalType": "uint32",
                              "name": "nSize",
                              "type": "uint32"
                            },
                            {
                              "internalType": "bytes32[]",
                              "name": "branch",
                              "type": "bytes32[]"
                            }
                          ],
                          "internalType": "struct VerusObjects.CMerkleBranch",
                          "name": "proofSequence",
                          "type": "tuple"
                        }
                      ],
                      "internalType": "struct VerusObjects.CTXProof[]",
                      "name": "elProof",
                      "type": "tuple[]"
                    },
                    {
                      "internalType": "uint32",
                      "name": "VchObjIndex",
                      "type": "uint32"
                    }
                  ],
                  "internalType": "struct VerusObjects.CComponents[]",
                  "name": "components",
                  "type": "tuple[]"
                }
              ],
              "internalType": "struct VerusObjects.CPtransactionproof",
              "name": "partialtransactionproof",
              "type": "tuple"
            },
            {
              "components": [
                {
                  "internalType": "uint32",
                  "name": "version",
                  "type": "uint32"
                },
                {
                  "components": [
                    {
                      "internalType": "address",
                      "name": "currency",
                      "type": "address"
                    },
                    {
                      "internalType": "uint64",
                      "name": "amount",
                      "type": "uint64"
                    }
                  ],
                  "internalType": "struct VerusObjects.CCurrencyValueMap",
                  "name": "currencyvalue",
                  "type": "tuple"
                },
                {
                  "internalType": "uint32",
                  "name": "flags",
                  "type": "uint32"
                },
                {
                  "internalType": "address",
                  "name": "feecurrencyid",
                  "type": "address"
                },
                {
                  "internalType": "uint256",
                  "name": "fees",
                  "type": "uint256"
                },
                {
                  "components": [
                    {
                      "internalType": "uint8",
                      "name": "destinationtype",
                      "type": "uint8"
                    },
                    {
                      "internalType": "address",
                      "name": "destinationaddress",
                      "type": "address"
                    }
                  ],
                  "internalType": "struct VerusObjectsCommon.CTransferDestination",
                  "name": "destination",
                  "type": "tuple"
                },
                {
                  "internalType": "address",
                  "name": "destcurrencyid",
                  "type": "address"
                },
                {
                  "internalType": "address",
                  "name": "destsystemid",
                  "type": "address"
                },
                {
                  "internalType": "address",
                  "name": "secondreserveid",
                  "type": "address"
                }
              ],
              "internalType": "struct VerusObjects.CReserveTransfer[]",
              "name": "transfers",
              "type": "tuple[]"
            }
          ],
          "internalType": "struct VerusObjects.CReserveTransferImport",
          "name": "_import",
          "type": "tuple"
        }
      ],
      "name": "_createImports",
      "outputs": [
        {
          "internalType": "bool",
          "name": "",
          "type": "bool"
        }
      ],
      "stateMutability": "nonpayable",
      "type": "function"
    },
    {
      "inputs": [
        {
          "internalType": "uint256",
          "name": "_blockNumber",
          "type": "uint256"
        }
      ],
      "name": "getReadyExportsByBlock",
      "outputs": [
        {
          "components": [
            {
              "internalType": "uint256",
              "name": "position",
              "type": "uint256"
            },
            {
              "internalType": "uint256",
              "name": "blockHeight",
              "type": "uint256"
            },
            {
              "internalType": "bytes32",
              "name": "exportHash",
              "type": "bytes32"
            },
            {
              "components": [
                {
                  "internalType": "uint32",
                  "name": "version",
                  "type": "uint32"
                },
                {
                  "components": [
                    {
                      "internalType": "address",
                      "name": "currency",
                      "type": "address"
                    },
                    {
                      "internalType": "uint64",
                      "name": "amount",
                      "type": "uint64"
                    }
                  ],
                  "internalType": "struct VerusObjects.CCurrencyValueMap",
                  "name": "currencyvalue",
                  "type": "tuple"
                },
                {
                  "internalType": "uint32",
                  "name": "flags",
                  "type": "uint32"
                },
                {
                  "internalType": "address",
                  "name": "feecurrencyid",
                  "type": "address"
                },
                {
                  "internalType": "uint256",
                  "name": "fees",
                  "type": "uint256"
                },
                {
                  "components": [
                    {
                      "internalType": "uint8",
                      "name": "destinationtype",
                      "type": "uint8"
                    },
                    {
                      "internalType": "address",
                      "name": "destinationaddress",
                      "type": "address"
                    }
                  ],
                  "internalType": "struct VerusObjectsCommon.CTransferDestination",
                  "name": "destination",
                  "type": "tuple"
                },
                {
                  "internalType": "address",
                  "name": "destcurrencyid",
                  "type": "address"
                },
                {
                  "internalType": "address",
                  "name": "destsystemid",
                  "type": "address"
                },
                {
                  "internalType": "address",
                  "name": "secondreserveid",
                  "type": "address"
                }
              ],
              "internalType": "struct VerusObjects.CReserveTransfer[]",
              "name": "transfers",
              "type": "tuple[]"
            }
          ],
          "internalType": "struct VerusObjects.CReserveTransferSet",
          "name": "",
          "type": "tuple"
        }
      ],
      "stateMutability": "view",
      "type": "function",
      "constant": true
    },
    {
      "inputs": [
        {
          "internalType": "uint256",
          "name": "_startBlock",
          "type": "uint256"
        },
        {
          "internalType": "uint256",
          "name": "_endBlock",
          "type": "uint256"
        }
      ],
      "name": "getReadyExportsByRange",
      "outputs": [
        {
          "components": [
            {
              "internalType": "uint256",
              "name": "position",
              "type": "uint256"
            },
            {
              "internalType": "uint256",
              "name": "blockHeight",
              "type": "uint256"
            },
            {
              "internalType": "bytes32",
              "name": "exportHash",
              "type": "bytes32"
            },
            {
              "components": [
                {
                  "internalType": "uint32",
                  "name": "version",
                  "type": "uint32"
                },
                {
                  "components": [
                    {
                      "internalType": "address",
                      "name": "currency",
                      "type": "address"
                    },
                    {
                      "internalType": "uint64",
                      "name": "amount",
                      "type": "uint64"
                    }
                  ],
                  "internalType": "struct VerusObjects.CCurrencyValueMap",
                  "name": "currencyvalue",
                  "type": "tuple"
                },
                {
                  "internalType": "uint32",
                  "name": "flags",
                  "type": "uint32"
                },
                {
                  "internalType": "address",
                  "name": "feecurrencyid",
                  "type": "address"
                },
                {
                  "internalType": "uint256",
                  "name": "fees",
                  "type": "uint256"
                },
                {
                  "components": [
                    {
                      "internalType": "uint8",
                      "name": "destinationtype",
                      "type": "uint8"
                    },
                    {
                      "internalType": "address",
                      "name": "destinationaddress",
                      "type": "address"
                    }
                  ],
                  "internalType": "struct VerusObjectsCommon.CTransferDestination",
                  "name": "destination",
                  "type": "tuple"
                },
                {
                  "internalType": "address",
                  "name": "destcurrencyid",
                  "type": "address"
                },
                {
                  "internalType": "address",
                  "name": "destsystemid",
                  "type": "address"
                },
                {
                  "internalType": "address",
                  "name": "secondreserveid",
                  "type": "address"
                }
              ],
              "internalType": "struct VerusObjects.CReserveTransfer[]",
              "name": "transfers",
              "type": "tuple[]"
            }
          ],
          "internalType": "struct VerusObjects.CReserveTransferSet[]",
          "name": "",
          "type": "tuple[]"
        }
      ],
      "stateMutability": "view",
      "type": "function",
      "constant": true
    },
    {
      "inputs": [],
      "name": "claimFees",
      "outputs": [
        {
          "internalType": "uint256",
          "name": "",
          "type": "uint256"
        }
      ],
      "stateMutability": "nonpayable",
      "type": "function"
    }
  ],
  "bytecode": "0x60806040526000600560146101000a81548160ff0219169083151502179055506000600755600060085560006009556000600a553480156200004057600080fd5b50604051620062c8380380620062c8833981810160405281019062000066919062000244565b33600560006101000a81548173ffffffffffffffffffffffffffffffffffffffff021916908373ffffffffffffffffffffffffffffffffffffffff16021790555085600260006101000a81548173ffffffffffffffffffffffffffffffffffffffff021916908373ffffffffffffffffffffffffffffffffffffffff160217905550846000806101000a81548173ffffffffffffffffffffffffffffffffffffffff021916908373ffffffffffffffffffffffffffffffffffffffff16021790555083600160006101000a81548173ffffffffffffffffffffffffffffffffffffffff021916908373ffffffffffffffffffffffffffffffffffffffff16021790555082600360006101000a81548173ffffffffffffffffffffffffffffffffffffffff021916908373ffffffffffffffffffffffffffffffffffffffff16021790555081600460006101000a81548173ffffffffffffffffffffffffffffffffffffffff021916908373ffffffffffffffffffffffffffffffffffffffff160217905550806009819055506000600e600001819055506000801b600e600101819055505050505050506200034c565b600081519050620002278162000318565b92915050565b6000815190506200023e8162000332565b92915050565b60008060008060008060c087890312156200025e57600080fd5b60006200026e89828a0162000216565b96505060206200028189828a0162000216565b95505060406200029489828a0162000216565b9450506060620002a789828a0162000216565b9350506080620002ba89828a0162000216565b92505060a0620002cd89828a016200022d565b9150509295509295509295565b6000620002e782620002ee565b9050919050565b600073ffffffffffffffffffffffffffffffffffffffff82169050919050565b6000819050919050565b6200032381620002da565b81146200032f57600080fd5b50565b6200033d816200030e565b81146200034957600080fd5b50565b615f6c806200035c6000396000f3fe6080604052600436106101815760003560e01c8063529cb5a1116100d1578063d294f0931161008a578063e45b909d11610064578063e45b909d14610609578063e4804abc14610646578063e4f30a9f14610683578063e9fc7ae7146106ae57610181565b8063d294f09314610578578063d83aa63c146105a3578063df7dc506146105e057610181565b8063529cb5a1146104125780635f2edcbe1461044f5780637e0b24921461047b5780637e3e661b146104b8578063b85c0acb146104fd578063c17a4eef1461053a57610181565b806333bc02fa1161013e5780633f067b20116101185780633f067b201461035457806342ce50111461037f57806344e5ffd3146103aa5780634ec18db9146103e757610181565b806333bc02fa1461029d578063388eee6c146102da5780633ee2ce851461031757610181565b80630e136b1914610186578063231b0268146101b157806326976e3f146101dc5780632a9e72a6146102075780632d5beadc14610244578063327d426314610260575b600080fd5b34801561019257600080fd5b5061019b6106d9565b6040516101a891906155a3565b60405180910390f35b3480156101bd57600080fd5b506101c66106ec565b6040516101d39190615781565b60405180910390f35b3480156101e857600080fd5b506101f16106f2565b6040516101fe9190615432565b60405180910390f35b34801561021357600080fd5b5061022e60048036038101906102299190614252565b610718565b60405161023b919061575f565b60405180910390f35b61025e60048036038101906102599190614228565b610abf565b005b34801561026c57600080fd5b506102876004803603810190610282919061413c565b6111b2565b60405161029491906155a3565b60405180910390f35b3480156102a957600080fd5b506102c460048036038101906102bf91906141e7565b6111d2565b6040516102d191906155a3565b60405180910390f35b3480156102e657600080fd5b5061030160048036038101906102fc9190614252565b611700565b60405161030e919061587d565b60405180910390f35b34801561032357600080fd5b5061033e60048036038101906103399190614252565b61171d565b60405161034b91906155d9565b60405180910390f35b34801561036057600080fd5b506103696117d9565b6040516103769190615781565b60405180910390f35b34801561038b57600080fd5b506103946117df565b6040516103a19190615781565b60405180910390f35b3480156103b657600080fd5b506103d160048036038101906103cc9190614252565b6117e5565b6040516103de91906155be565b60405180910390f35b3480156103f357600080fd5b506103fc611809565b6040516104099190615781565b60405180910390f35b34801561041e57600080fd5b5061043960048036038101906104349190614252565b61180f565b6040516104469190615781565b60405180910390f35b34801561045b57600080fd5b50610464611825565b6040516104729291906157c5565b60405180910390f35b34801561048757600080fd5b506104a2600480360381019061049d919061403f565b611837565b6040516104af9190615781565b60405180910390f35b3480156104c457600080fd5b506104df60048036038101906104da91906142a4565b61184f565b6040516104f4999897969594939291906157ee565b60405180910390f35b34801561050957600080fd5b50610524600480360381019061051f9190614091565b611a75565b604051610531919061550d565b60405180910390f35b34801561054657600080fd5b50610561600480360381019061055c9190614252565b611b60565b60405161056f92919061579c565b60405180910390f35b34801561058457600080fd5b5061058d611b91565b60405161059a9190615781565b60405180910390f35b3480156105af57600080fd5b506105ca60048036038101906105c59190614252565b611cba565b6040516105d791906155d9565b60405180910390f35b3480156105ec57600080fd5b50610607600480360381019061060291906140d2565b611d76565b005b34801561061557600080fd5b50610630600480360381019061062b9190614252565b611db0565b60405161063d91906155be565b60405180910390f35b34801561065257600080fd5b5061066d600480360381019061066891906142a4565b611dd4565b60405161067a919061552f565b60405180910390f35b34801561068f57600080fd5b50610698611f03565b6040516106a59190615781565b60405180910390f35b3480156106ba57600080fd5b506106c3611f0d565b6040516106d09190615781565b60405180910390f35b600560149054906101000a900460ff1681565b600a5481565b600660009054906101000a900473ffffffffffffffffffffffffffffffffffffffff1681565b610720612b8c565b60006011600084815260200190815260200160002060000154905060006040518060800160405280838152602001858152602001600b848154811061076157fe5b90600052602060002001548152602001600d848154811061077e57fe5b90600052602060002001805480602002602001604051908101604052809291908181526020016000905b82821015610aac5783829060005260206000209060080201604051806101200160405290816000820160009054906101000a900463ffffffff1663ffffffff1663ffffffff168152602001600182016040518060400160405290816000820160009054906101000a900473ffffffffffffffffffffffffffffffffffffffff1673ffffffffffffffffffffffffffffffffffffffff1673ffffffffffffffffffffffffffffffffffffffff1681526020016000820160149054906101000a900467ffffffffffffffff1667ffffffffffffffff1667ffffffffffffffff168152505081526020016002820160009054906101000a900463ffffffff1663ffffffff1663ffffffff1681526020016002820160049054906101000a900473ffffffffffffffffffffffffffffffffffffffff1673ffffffffffffffffffffffffffffffffffffffff1673ffffffffffffffffffffffffffffffffffffffff16815260200160038201548152602001600482016040518060400160405290816000820160009054906101000a900460ff1660ff1660ff1681526020016000820160019054906101000a900473ffffffffffffffffffffffffffffffffffffffff1673ffffffffffffffffffffffffffffffffffffffff1673ffffffffffffffffffffffffffffffffffffffff168152505081526020016005820160009054906101000a900473ffffffffffffffffffffffffffffffffffffffff1673ffffffffffffffffffffffffffffffffffffffff1673ffffffffffffffffffffffffffffffffffffffff1681526020016006820160009054906101000a900473ffffffffffffffffffffffffffffffffffffffff1673ffffffffffffffffffffffffffffffffffffffff1673ffffffffffffffffffffffffffffffffffffffff1681526020016007820160009054906101000a900473ffffffffffffffffffffffffffffffffffffffff1673ffffffffffffffffffffffffffffffffffffffff1673ffffffffffffffffffffffffffffffffffffffff1681525050815260200190600101906107a8565b5050505081525090508092505050919050565b600560149054906101000a900460ff1615610b0f576040517f08c379a0000000000000000000000000000000000000000000000000000000008152600401610b069061561b565b60405180910390fd5b806080015167ffffffffffffffff16655af3107a400001341015610b68576040517f08c379a0000000000000000000000000000000000000000000000000000000008152600401610b5f906156fb565b60405180910390fd5b7367460c2f56774ed27eeb8685f29f6cec0b090b0073ffffffffffffffffffffffffffffffffffffffff1681602001516000015173ffffffffffffffffffffffffffffffffffffffff16146111435734600760008282540192505081905550600073ffffffffffffffffffffffffffffffffffffffff1660008054906101000a900473ffffffffffffffffffffffffffffffffffffffff1673ffffffffffffffffffffffffffffffffffffffff1663826737fc8360200151600001516040518263ffffffff1660e01b8152600401610c409190615432565b60206040518083038186803b158015610c5857600080fd5b505afa158015610c6c573d6000803e3d6000fd5b505050506040513d601f19601f82011682018060405250810190610c909190614068565b73ffffffffffffffffffffffffffffffffffffffff161415610ce7576040517f08c379a0000000000000000000000000000000000000000000000000000000008152600401610cde906156bb565b60405180910390fd5b60008060009054906101000a900473ffffffffffffffffffffffffffffffffffffffff1673ffffffffffffffffffffffffffffffffffffffff1663826737fc8360200151600001516040518263ffffffff1660e01b8152600401610d4b9190615432565b60206040518083038186803b158015610d6357600080fd5b505afa158015610d77573d6000803e3d6000fd5b505050506040513d601f19601f82011682018060405250810190610d9b9190614068565b905060008173ffffffffffffffffffffffffffffffffffffffff1663dd62ed3e33306040518363ffffffff1660e01b8152600401610dda92919061544d565b60206040518083038186803b158015610df257600080fd5b505afa158015610e06573d6000803e3d6000fd5b505050506040513d601f19601f82011682018060405250810190610e2a919061427b565b905082602001516020015167ffffffffffffffff168167ffffffffffffffff161015610e8b576040517f08c379a0000000000000000000000000000000000000000000000000000000008152600401610e82906156db565b60405180910390fd5b8173ffffffffffffffffffffffffffffffffffffffff166323b872dd333086602001516020015167ffffffffffffffff166040518463ffffffff1660e01b8152600401610eda93929190615476565b602060405180830381600087803b158015610ef457600080fd5b505af1158015610f08573d6000803e3d6000fd5b505050506040513d601f19601f82011682018060405250810190610f2c9190614113565b508173ffffffffffffffffffffffffffffffffffffffff1663095ea7b360008054906101000a900473ffffffffffffffffffffffffffffffffffffffff1685602001516020015167ffffffffffffffff166040518363ffffffff1660e01b8152600401610f9a9291906154ad565b602060405180830381600087803b158015610fb457600080fd5b505af1158015610fc8573d6000803e3d6000fd5b505050506040513d601f19601f82011682018060405250810190610fec9190614113565b5060008054906101000a900473ffffffffffffffffffffffffffffffffffffffff1673ffffffffffffffffffffffffffffffffffffffff16639033ef3f60008054906101000a900473ffffffffffffffffffffffffffffffffffffffff1673ffffffffffffffffffffffffffffffffffffffff1663826737fc8660200151600001516040518263ffffffff1660e01b815260040161108a9190615432565b60206040518083038186803b1580156110a257600080fd5b505afa1580156110b6573d6000803e3d6000fd5b505050506040513d601f19601f820116820180604052508101906110da9190614068565b85602001516020015167ffffffffffffffff166040518363ffffffff1660e01b815260040161110a9291906154ad565b600060405180830381600087803b15801561112457600080fd5b505af1158015611138573d6000803e3d6000fd5b5050505050506111a6565b611154655af3107a40003403611700565b81602001516020019067ffffffffffffffff16908167ffffffffffffffff1681525050655af3107a40003403600860008282540192505081905550655af3107a40006007600082825401925050819055505b6111af81611f13565b50565b60106020528060005260406000206000915054906101000a900460ff1681565b600060011515601060008460200151815260200190815260200160002060009054906101000a900460ff161515141561120e57600090506116fb565b60008083608001516060015160008151811061122657fe5b60200260200101516040015190506020810151915081846020015114611281576040517f08c379a00000000000000000000000000000000000000000000000000000000081526004016112789061563b565b60405180910390fd5b6000600260009054906101000a900473ffffffffffffffffffffffffffffffffffffffff1673ffffffffffffffffffffffffffffffffffffffff16638f59b004866040518263ffffffff1660e01b81526004016112de919061573d565b60206040518083038186803b1580156112f657600080fd5b505afa15801561130a573d6000803e3d6000fd5b505050506040513d601f19601f8201168201806040525081019061132e9190614113565b905080611370576040517f08c379a00000000000000000000000000000000000000000000000000000000081526004016113679061565b565b60405180910390fd5b6001601060008760200151815260200190815260200160002060006101000a81548160ff021916908315150217905550846000015160165410156113ba5784600001516016819055505b600080600090505b8660a00151518110156116f1576114018760a0015182815181106113e257fe5b6020026020010151602001516020015167ffffffffffffffff1661180f565b91507367460c2f56774ed27eeb8685f29f6cec0b090b0073ffffffffffffffffffffffffffffffffffffffff168760a00151828151811061143e57fe5b6020026020010151602001516000015173ffffffffffffffffffffffffffffffffffffffff1614156114eb57478211156114ad576040517f08c379a00000000000000000000000000000000000000000000000000000000081526004016114a49061567b565b60405180910390fd5b6114d6828860a0015183815181106114c157fe5b602002602001015160a001516020015161296e565b816008600082825403925050819055506115b9565b60008054906101000a900473ffffffffffffffffffffffffffffffffffffffff1673ffffffffffffffffffffffffffffffffffffffff1663d2a5bdb18860a00151838151811061153757fe5b60200260200101516020015160000151848a60a00151858151811061155857fe5b602002602001015160a00151602001516040518463ffffffff1660e01b8152600401611586939291906154d6565b600060405180830381600087803b1580156115a057600080fd5b505af11580156115b4573d6000803e3d6000fd5b505050505b60008760a0015182815181106115cb57fe5b60200260200101516080015111801561163e57507367460c2f56774ed27eeb8685f29f6cec0b090b0073ffffffffffffffffffffffffffffffffffffffff168760a00151828151811061161a57fe5b60200260200101516060015173ffffffffffffffffffffffffffffffffffffffff16145b156116e4578660a00151818151811061165357fe5b602002602001015160800151601260003373ffffffffffffffffffffffffffffffffffffffff1673ffffffffffffffffffffffffffffffffffffffff1681526020019081526020016000205401601260003373ffffffffffffffffffffffffffffffffffffffff1673ffffffffffffffffffffffffffffffffffffffff168152602001908152602001600020819055505b80806001019150506113c2565b5060019450505050505b919050565b6000806402540be400838161171157fe5b04905080915050919050565b6014818154811061172d57600080fd5b906000526020600020016000915090508054600181600116156101000203166002900480601f0160208091040260200160405190810160405280929190818152602001828054600181600116156101000203166002900480156117d15780601f106117a6576101008083540402835291602001916117d1565b820191906000526020600020905b8154815290600101906020018083116117b457829003601f168201915b505050505081565b60075481565b60085481565b601581815481106117f557600080fd5b906000526020600020016000915090505481565b60095481565b6000806402540be4008302905080915050919050565b600e8060000154908060010154905082565b60126020528060005260406000206000915090505481565b600d828154811061185f57600080fd5b90600052602060002001818154811061187757600080fd5b9060005260206000209060080201600091509150508060000160009054906101000a900463ffffffff1690806001016040518060400160405290816000820160009054906101000a900473ffffffffffffffffffffffffffffffffffffffff1673ffffffffffffffffffffffffffffffffffffffff1673ffffffffffffffffffffffffffffffffffffffff1681526020016000820160149054906101000a900467ffffffffffffffff1667ffffffffffffffff1667ffffffffffffffff1681525050908060020160009054906101000a900463ffffffff16908060020160049054906101000a900473ffffffffffffffffffffffffffffffffffffffff1690806003015490806004016040518060400160405290816000820160009054906101000a900460ff1660ff1660ff1681526020016000820160019054906101000a900473ffffffffffffffffffffffffffffffffffffffff1673ffffffffffffffffffffffffffffffffffffffff1673ffffffffffffffffffffffffffffffffffffffff1681525050908060050160009054906101000a900473ffffffffffffffffffffffffffffffffffffffff16908060060160009054906101000a900473ffffffffffffffffffffffffffffffffffffffff16908060070160009054906101000a900473ffffffffffffffffffffffffffffffffffffffff16905089565b60606000825167ffffffffffffffff81118015611a9157600080fd5b50604051908082528060200260200182016040528015611ac05781602001602082028036833780820191505090505b509050600080600090505b8451811015611b55576001151560106000878481518110611ae857fe5b6020026020010151815260200190815260200160002060009054906101000a900460ff16151514611b4857848181518110611b1f57fe5b6020026020010151838381518110611b3357fe5b60200260200101818152505081806001019250505b8080600101915050611acb565b508192505050919050565b60116020528060005260406000206000915090508060000154908060010160009054906101000a900460ff16905082565b6000600560149054906101000a900460ff1615611be3576040517f08c379a0000000000000000000000000000000000000000000000000000000008152600401611bda9061561b565b60405180910390fd5b6000601260003373ffffffffffffffffffffffffffffffffffffffff1673ffffffffffffffffffffffffffffffffffffffff168152602001908152602001600020541115611c7557611c74601260003373ffffffffffffffffffffffffffffffffffffffff1673ffffffffffffffffffffffffffffffffffffffff168152602001908152602001600020543361296e565b5b601260003373ffffffffffffffffffffffffffffffffffffffff1673ffffffffffffffffffffffffffffffffffffffff16815260200190815260200160002054905090565b60138181548110611cca57600080fd5b906000526020600020016000915090508054600181600116156101000203166002900480601f016020809104026020016040519081016040528092919081815260200182805460018160011615610100020316600290048015611d6e5780601f10611d4357610100808354040283529160200191611d6e565b820191906000526020600020905b815481529060010190602001808311611d5157829003601f168201915b505050505081565b60005b8151811015611dac57611d9e828281518110611d9157fe5b60200260200101516111d2565b508080600101915050611d79565b5050565b600b8181548110611dc057600080fd5b906000526020600020016000915090505481565b60606000600a54841015611de857600a5493505b60008490505b838111611e32576011600082815260200190815260200160002060010160009054906101000a900460ff1615611e25576001820191505b8080600101915050611dee565b5060008167ffffffffffffffff81118015611e4c57600080fd5b50604051908082528060200260200182016040528015611e8657816020015b611e73612b8c565b815260200190600190039081611e6b5790505b5090506000808690505b858111611ef6576011600082815260200190815260200160002060010160009054906101000a900460ff1615611ee957611ec981610718565b838381518110611ed557fe5b602002602001018190525081806001019250505b8080600101915050611e90565b5081935050505092915050565b6000601654905090565b60165481565b6000439050600080611f2d84608001518560600151612a09565b15611f475783608001516009600082825403925050819055505b6011600084815260200190815260200160002060010160009054906101000a900460ff161561223e5760116000848152602001908152602001600020600001549150600d8281548110611f9657fe5b9060005260206000200184908060018154018082558091505060019003906000526020600020906008020160009091909190915060008201518160000160006101000a81548163ffffffff021916908363ffffffff16021790555060208201518160010160008201518160000160006101000a81548173ffffffffffffffffffffffffffffffffffffffff021916908373ffffffffffffffffffffffffffffffffffffffff16021790555060208201518160000160146101000a81548167ffffffffffffffff021916908367ffffffffffffffff160217905550505060408201518160020160006101000a81548163ffffffff021916908363ffffffff16021790555060608201518160020160046101000a81548173ffffffffffffffffffffffffffffffffffffffff021916908373ffffffffffffffffffffffffffffffffffffffff1602179055506080820151816003015560a08201518160040160008201518160000160006101000a81548160ff021916908360ff16021790555060208201518160000160016101000a81548173ffffffffffffffffffffffffffffffffffffffff021916908373ffffffffffffffffffffffffffffffffffffffff160217905550505060c08201518160050160006101000a81548173ffffffffffffffffffffffffffffffffffffffff021916908373ffffffffffffffffffffffffffffffffffffffff16021790555060e08201518160060160006101000a81548173ffffffffffffffffffffffffffffffffffffffff021916908373ffffffffffffffffffffffffffffffffffffffff1602179055506101008201518160070160006101000a81548173ffffffffffffffffffffffffffffffffffffffff021916908373ffffffffffffffffffffffffffffffffffffffff160217905550505060009050612583565b600c84908060018154018082558091505060019003906000526020600020906008020160009091909190915060008201518160000160006101000a81548163ffffffff021916908363ffffffff16021790555060208201518160010160008201518160000160006101000a81548173ffffffffffffffffffffffffffffffffffffffff021916908373ffffffffffffffffffffffffffffffffffffffff16021790555060208201518160000160146101000a81548167ffffffffffffffff021916908367ffffffffffffffff160217905550505060408201518160020160006101000a81548163ffffffff021916908363ffffffff16021790555060608201518160020160046101000a81548173ffffffffffffffffffffffffffffffffffffffff021916908373ffffffffffffffffffffffffffffffffffffffff1602179055506080820151816003015560a08201518160040160008201518160000160006101000a81548160ff021916908360ff16021790555060208201518160000160016101000a81548173ffffffffffffffffffffffffffffffffffffffff021916908373ffffffffffffffffffffffffffffffffffffffff160217905550505060c08201518160050160006101000a81548173ffffffffffffffffffffffffffffffffffffffff021916908373ffffffffffffffffffffffffffffffffffffffff16021790555060e08201518160060160006101000a81548173ffffffffffffffffffffffffffffffffffffffff021916908373ffffffffffffffffffffffffffffffffffffffff1602179055506101008201518160070160006101000a81548173ffffffffffffffffffffffffffffffffffffffff021916908373ffffffffffffffffffffffffffffffffffffffff1602179055505050600d600c9080600181540180825580915050600190039060005260206000200160009091909190915090805461250c929190612bb7565b506001600d80549050039150604051806040016040528083815260200160011515815250601160008581526020019081526020016000206000820151816000015560208201518160010160006101000a81548160ff021916908315150217905550905050600c600061257e9190612f76565b600190505b6000600460009054906101000a900473ffffffffffffffffffffffffffffffffffffffff1673ffffffffffffffffffffffffffffffffffffffff1663bdfcfddd600d85815481106125d057fe5b906000526020600020016040518263ffffffff1660e01b81526004016125f69190615551565b600060405180830381600087803b15801561261057600080fd5b505af1158015612624573d6000803e3d6000fd5b505050506040513d6000823e3d601f19601f8201168201806040525081019061264d91906141a6565b90506000600160009054906101000a900473ffffffffffffffffffffffffffffffffffffffff1673ffffffffffffffffffffffffffffffffffffffff1663343bee60836040518263ffffffff1660e01b81526004016126ac919061571b565b60006040518083038186803b1580156126c457600080fd5b505afa1580156126d8573d6000803e3d6000fd5b505050506040513d6000823e3d601f19601f820116820180604052508101906127019190614165565b90506000600160009054906101000a900473ffffffffffffffffffffffffffffffffffffffff1673ffffffffffffffffffffffffffffffffffffffff16632a4edd70600d878154811061275057fe5b9060005260206000200160006040518363ffffffff1660e01b8152600401612779929190615573565b60006040518083038186803b15801561279157600080fd5b505afa1580156127a5573d6000803e3d6000fd5b505050506040513d6000823e3d601f19601f820116820180604052508101906127ce9190614165565b905060138190806001815401808255809150506001900390600052602060002001600090919091909150908051906020019061280b929190612f9a565b506000818051906020012090506000838360405160200161282d92919061540e565b6040516020818303038152906040529050601481908060018154018082558091505060019003906000526020600020016000909190919091509080519060200190612879929190612f9a565b5060158290806001815401808255809150506001900390600052602060002001600090919091909150556000806000801b9050600089146128d257600b60018a03815481106128c457fe5b906000526020600020015490505b85816040516020016128e59291906153e6565b604051602081830303815290604052805190602001209150871561293157600b82908060018154018082558091505060019003906000526020600020016000909190919091505561294e565b81600b8a8154811061293f57fe5b90600052602060002001819055505b6000600a5414156129615789600a819055505b5050505050505050505050565b600560149054906101000a900460ff16156129be576040517f08c379a00000000000000000000000000000000000000000000000000000000081526004016129b59061561b565b60405180910390fd5b8073ffffffffffffffffffffffffffffffffffffffff166108fc839081150290604051600060405180830381858888f19350505050158015612a04573d6000803e3d6000fd5b505050565b60006001600360009054906101000a900473ffffffffffffffffffffffffffffffffffffffff1673ffffffffffffffffffffffffffffffffffffffff1663ec48ae3c6040518163ffffffff1660e01b815260040160206040518083038186803b158015612a7557600080fd5b505afa158015612a89573d6000803e3d6000fd5b505050506040513d601f19601f82011682018060405250810190612aad919061427b565b10612abb5760009050612b86565b73a6ef9ea235635e328124ff3429db9f9e91b64e2d73ffffffffffffffffffffffffffffffffffffffff168273ffffffffffffffffffffffffffffffffffffffff1614612b3d576040517f08c379a0000000000000000000000000000000000000000000000000000000008152600401612b34906155fb565b60405180910390fd5b8260095411612b81576040517f08c379a0000000000000000000000000000000000000000000000000000000008152600401612b789061569b565b60405180910390fd5b600190505b92915050565b6040518060800160405280600081526020016000815260200160008019168152602001606081525090565b828054828255906000526020600020906008028101928215612f655760005260206000209160080282015b82811115612f645782826000820160009054906101000a900463ffffffff168160000160006101000a81548163ffffffff021916908363ffffffff16021790555060018201816001016000820160009054906101000a900473ffffffffffffffffffffffffffffffffffffffff168160000160006101000a81548173ffffffffffffffffffffffffffffffffffffffff021916908373ffffffffffffffffffffffffffffffffffffffff1602179055506000820160149054906101000a900467ffffffffffffffff168160000160146101000a81548167ffffffffffffffff021916908367ffffffffffffffff16021790555050506002820160009054906101000a900463ffffffff168160020160006101000a81548163ffffffff021916908363ffffffff1602179055506002820160049054906101000a900473ffffffffffffffffffffffffffffffffffffffff168160020160046101000a81548173ffffffffffffffffffffffffffffffffffffffff021916908373ffffffffffffffffffffffffffffffffffffffff1602179055506003820154816003015560048201816004016000820160009054906101000a900460ff168160000160006101000a81548160ff021916908360ff1602179055506000820160019054906101000a900473ffffffffffffffffffffffffffffffffffffffff168160000160016101000a81548173ffffffffffffffffffffffffffffffffffffffff021916908373ffffffffffffffffffffffffffffffffffffffff16021790555050506005820160009054906101000a900473ffffffffffffffffffffffffffffffffffffffff168160050160006101000a81548173ffffffffffffffffffffffffffffffffffffffff021916908373ffffffffffffffffffffffffffffffffffffffff1602179055506006820160009054906101000a900473ffffffffffffffffffffffffffffffffffffffff168160060160006101000a81548173ffffffffffffffffffffffffffffffffffffffff021916908373ffffffffffffffffffffffffffffffffffffffff1602179055506007820160009054906101000a900473ffffffffffffffffffffffffffffffffffffffff168160070160006101000a81548173ffffffffffffffffffffffffffffffffffffffff021916908373ffffffffffffffffffffffffffffffffffffffff160217905550505091600801919060080190612be2565b5b509050612f729190613028565b5090565b5080546000825560080290600052602060002090810190612f979190613028565b50565b828054600181600116156101000203166002900490600052602060002090601f016020900481019282612fd05760008555613017565b82601f10612fe957805160ff1916838001178555613017565b82800160010185558215613017579182015b82811115613016578251825591602001919060010190612ffb565b5b509050613024919061319c565b5090565b5b8082111561319857600080820160006101000a81549063ffffffff021916905560018201600080820160006101000a81549073ffffffffffffffffffffffffffffffffffffffff02191690556000820160146101000a81549067ffffffffffffffff021916905550506002820160006101000a81549063ffffffff02191690556002820160046101000a81549073ffffffffffffffffffffffffffffffffffffffff0219169055600382016000905560048201600080820160006101000a81549060ff02191690556000820160016101000a81549073ffffffffffffffffffffffffffffffffffffffff021916905550506005820160006101000a81549073ffffffffffffffffffffffffffffffffffffffff02191690556006820160006101000a81549073ffffffffffffffffffffffffffffffffffffffff02191690556007820160006101000a81549073ffffffffffffffffffffffffffffffffffffffff021916905550600801613029565b5090565b5b808211156131b557600081600090555060010161319d565b5090565b60006131cc6131c7846158c9565b615898565b905080838252602082019050828560208602820111156131eb57600080fd5b60005b8581101561321b57816132018882613663565b8452602084019350602083019250506001810190506131ee565b5050509392505050565b6000613238613233846158f5565b615898565b9050808382526020820190508260005b85811015613278578135850161325e888261370b565b845260208401935060208301925050600181019050613248565b5050509392505050565b600061329561329084615921565b615898565b905080838252602082019050828560408602820111156132b457600080fd5b60005b858110156132e457816132ca8882613ae7565b8452602084019350604083019250506001810190506132b7565b5050509392505050565b60006133016132fc84615921565b615898565b9050808382526020820190508285604086028201111561332057600080fd5b60005b8581101561335057816133368882613b33565b845260208401935060408301925050600181019050613323565b5050509392505050565b600061336d6133688461594d565b615898565b9050808382526020820190508260005b858110156133ad57813585016133938882613caf565b84526020840193506020830192505060018101905061337d565b5050509392505050565b60006133ca6133c584615979565b615898565b90508083825260208201905082856101608602820111156133ea57600080fd5b60005b8581101561341b57816134008882613d93565b845260208401935061016083019250506001810190506133ed565b5050509392505050565b6000613438613433846159a5565b615898565b9050808382526020820190508260005b85811015613478578135850161345e8882613e71565b845260208401935060208301925050600181019050613448565b5050509392505050565b6000613495613490846159d1565b615898565b9050828152602081018484840111156134ad57600080fd5b6134b8848285615d1e565b509392505050565b60006134d36134ce846159d1565b615898565b9050828152602081018484840111156134eb57600080fd5b6134f6848285615d2d565b509392505050565b60008135905061350d81615e67565b92915050565b60008151905061352281615e67565b92915050565b600082601f83011261353957600080fd5b81356135498482602086016131b9565b91505092915050565b600082601f83011261356357600080fd5b8135613573848260208601613225565b91505092915050565b600082601f83011261358d57600080fd5b813561359d848260208601613282565b91505092915050565b600082601f8301126135b757600080fd5b81516135c78482602086016132ee565b91505092915050565b600082601f8301126135e157600080fd5b81356135f184826020860161335a565b91505092915050565b600082601f83011261360b57600080fd5b813561361b8482602086016133b7565b91505092915050565b600082601f83011261363557600080fd5b8135613645848260208601613425565b91505092915050565b60008151905061365d81615e7e565b92915050565b60008135905061367281615e95565b92915050565b60008151905061368781615e95565b92915050565b600082601f83011261369e57600080fd5b81356136ae848260208601613482565b91505092915050565b600082601f8301126136c857600080fd5b81516136d88482602086016134c0565b91505092915050565b6000813590506136f081615eac565b92915050565b60008151905061370581615eac565b92915050565b600060a0828403121561371d57600080fd5b61372760a0615898565b9050600061373784828501614015565b600083015250602061374b84828501614015565b602083015250604082013567ffffffffffffffff81111561376b57600080fd5b6137778482850161368d565b604083015250606082013567ffffffffffffffff81111561379757600080fd5b6137a384828501613624565b60608301525060806137b784828501613fc1565b60808301525092915050565b60006101e082840312156137d657600080fd5b6137e16101c0615898565b905060006137f184828501613f6d565b600083015250602061380584828501613f6d565b6020830152506040613819848285016134fe565b604083015250606061382d84828501613fc1565b606083015250608061384184828501613fc1565b60808301525060a0613855848285016134fe565b60a08301525060c0613869848285016134fe565b60c08301525060e061387d84828501613fc1565b60e08301525061010082013567ffffffffffffffff81111561389e57600080fd5b6138aa8482850161357c565b6101008301525061012082013567ffffffffffffffff8111156138cc57600080fd5b6138d88482850161357c565b610120830152506101406138ee84828501613663565b6101408301525061016082013567ffffffffffffffff81111561391057600080fd5b61391c8482850161357c565b6101608301525061018061393284828501613ed5565b610180830152506101c0613948848285016136e1565b6101a08301525092915050565b60006101e0828403121561396857600080fd5b6139736101c0615898565b9050600061398384828501613f82565b600083015250602061399784828501613f82565b60208301525060406139ab84828501613513565b60408301525060606139bf84828501613fd6565b60608301525060806139d384828501613fd6565b60808301525060a06139e784828501613513565b60a08301525060c06139fb84828501613513565b60c08301525060e0613a0f84828501613fd6565b60e08301525061010082015167ffffffffffffffff811115613a3057600080fd5b613a3c848285016135a6565b6101008301525061012082015167ffffffffffffffff811115613a5e57600080fd5b613a6a848285016135a6565b61012083015250610140613a8084828501613678565b6101408301525061016082015167ffffffffffffffff811115613aa257600080fd5b613aae848285016135a6565b61016083015250610180613ac484828501613f21565b610180830152506101c0613ada848285016136f6565b6101a08301525092915050565b600060408284031215613af957600080fd5b613b036040615898565b90506000613b13848285016134fe565b6000830152506020613b2784828501613feb565b60208301525092915050565b600060408284031215613b4557600080fd5b613b4f6040615898565b90506000613b5f84828501613513565b6000830152506020613b7384828501614000565b60208301525092915050565b600060808284031215613b9157600080fd5b613b9b6080615898565b90506000613bab84828501614015565b6000830152506020613bbf84828501613fc1565b6020830152506040613bd384828501613fc1565b604083015250606082013567ffffffffffffffff811115613bf357600080fd5b613bff84828501613528565b60608301525092915050565b600060808284031215613c1d57600080fd5b613c276080615898565b90506000613c3784828501614015565b6000830152506020613c4b84828501614015565b602083015250604082013567ffffffffffffffff811115613c6b57600080fd5b613c7784828501613624565b604083015250606082013567ffffffffffffffff811115613c9757600080fd5b613ca384828501613552565b60608301525092915050565b600060c08284031215613cc157600080fd5b613ccb60c0615898565b90506000613cdb84828501613f97565b6000830152506020613cef84828501613663565b6020830152506040613d0384828501613f97565b604083015250606082013567ffffffffffffffff811115613d2357600080fd5b613d2f848285016137c3565b606083015250608082013567ffffffffffffffff811115613d4f57600080fd5b613d5b84828501613c0b565b60808301525060a082013567ffffffffffffffff811115613d7b57600080fd5b613d87848285016135fa565b60a08301525092915050565b60006101608284031215613da657600080fd5b613db1610120615898565b90506000613dc184828501613fc1565b6000830152506020613dd584828501613ae7565b6020830152506060613de984828501613fc1565b6040830152506080613dfd848285016134fe565b60608301525060a0613e1184828501613f97565b60808301525060c0613e2584828501613ed5565b60a083015250610100613e3a848285016134fe565b60c083015250610120613e4f848285016134fe565b60e083015250610140613e64848285016134fe565b6101008301525092915050565b600060408284031215613e8357600080fd5b613e8d6040615898565b90506000613e9d84828501614015565b600083015250602082013567ffffffffffffffff811115613ebd57600080fd5b613ec984828501613b7f565b60208301525092915050565b600060408284031215613ee757600080fd5b613ef16040615898565b90506000613f0184828501614015565b6000830152506020613f15848285016134fe565b60208301525092915050565b600060408284031215613f3357600080fd5b613f3d6040615898565b90506000613f4d8482850161402a565b6000830152506020613f6184828501613513565b60208301525092915050565b600081359050613f7c81615ec3565b92915050565b600081519050613f9181615ec3565b92915050565b600081359050613fa681615eda565b92915050565b600081519050613fbb81615eda565b92915050565b600081359050613fd081615ef1565b92915050565b600081519050613fe581615ef1565b92915050565b600081359050613ffa81615f08565b92915050565b60008151905061400f81615f08565b92915050565b60008135905061402481615f1f565b92915050565b60008151905061403981615f1f565b92915050565b60006020828403121561405157600080fd5b600061405f848285016134fe565b91505092915050565b60006020828403121561407a57600080fd5b600061408884828501613513565b91505092915050565b6000602082840312156140a357600080fd5b600082013567ffffffffffffffff8111156140bd57600080fd5b6140c984828501613528565b91505092915050565b6000602082840312156140e457600080fd5b600082013567ffffffffffffffff8111156140fe57600080fd5b61410a848285016135d0565b91505092915050565b60006020828403121561412557600080fd5b60006141338482850161364e565b91505092915050565b60006020828403121561414e57600080fd5b600061415c84828501613663565b91505092915050565b60006020828403121561417757600080fd5b600082015167ffffffffffffffff81111561419157600080fd5b61419d848285016136b7565b91505092915050565b6000602082840312156141b857600080fd5b600082015167ffffffffffffffff8111156141d257600080fd5b6141de84828501613955565b91505092915050565b6000602082840312156141f957600080fd5b600082013567ffffffffffffffff81111561421357600080fd5b61421f84828501613caf565b91505092915050565b6000610160828403121561423b57600080fd5b600061424984828501613d93565b91505092915050565b60006020828403121561426457600080fd5b600061427284828501613f97565b91505092915050565b60006020828403121561428d57600080fd5b600061429b84828501613fac565b91505092915050565b600080604083850312156142b757600080fd5b60006142c585828601613f97565b92505060206142d685828601613f97565b9150509250929050565b60006142ec83836146ee565b60208301905092915050565b60006143048383614b1f565b905092915050565b60006143188383614e14565b60408301905092915050565b60006143308383615016565b905092915050565b600061434483836150dc565b6101608301905092915050565b600061435d8383615195565b6101608301905092915050565b60006143768383615293565b905092915050565b61438781615ce8565b82525050565b61439681615c4a565b82525050565b6143a581615c4a565b82525050565b60006143b682615a76565b6143c08185615b29565b93506143cb83615a01565b8060005b838110156143fc5781516143e388826142e0565b97506143ee83615ace565b9250506001810190506143cf565b5085935050505092915050565b600061441482615a76565b61441e8185615b3a565b935061442983615a01565b8060005b8381101561445a57815161444188826142e0565b975061444c83615ace565b92505060018101905061442d565b5085935050505092915050565b600061447282615a81565b61447c8185615b4b565b93508360208202850161448e85615a11565b8060005b858110156144ca57848403895281516144ab85826142f8565b94506144b683615adb565b925060208a01995050600181019050614492565b50829750879550505050505092915050565b60006144e782615a8c565b6144f18185615b5c565b93506144fc83615a21565b8060005b8381101561452d578151614514888261430c565b975061451f83615ae8565b925050600181019050614500565b5085935050505092915050565b600061454582615a97565b61454f8185615b6d565b93508360208202850161456185615a31565b8060005b8581101561459d578484038952815161457e8582614324565b945061458983615af5565b925060208a01995050600181019050614565565b50829750879550505050505092915050565b60006145ba82615aa2565b6145c48185615b7e565b93506145cf83615a41565b8060005b838110156146005781516145e78882614338565b97506145f283615b02565b9250506001810190506145d3565b5085935050505092915050565b600061461882615aad565b6146228185615b8f565b935061462d83615a51565b8060005b8381101561465d57816146448882614351565b975061464f83615b0f565b925050600181019050614631565b5085935050505092915050565b600061467582615ab8565b61467f8185615ba0565b93508360208202850161469185615a66565b8060005b858110156146cd57848403895281516146ae858261436a565b94506146b983615b1c565b925060208a01995050600181019050614695565b50829750879550505050505092915050565b6146e881615c5c565b82525050565b6146f781615c68565b82525050565b61470681615c68565b82525050565b61471d61471882615c68565b615e16565b82525050565b600061472e82615ac3565b6147388185615bb1565b9350614748818560208601615d2d565b61475181615e22565b840191505092915050565b600061476782615ac3565b6147718185615bc2565b9350614781818560208601615d2d565b61478a81615e22565b840191505092915050565b60006147a082615ac3565b6147aa8185615bd3565b93506147ba818560208601615d2d565b80840191505092915050565b6147cf81615c72565b82525050565b60006147e2603b83615bde565b91507f427269646765206973206e6f742079657420617661696c61626c65206f6e6c7960008301527f2056657275732063616e206265207573656420666f72206665657300000000006020830152604082019050919050565b6000614848601c83615bde565b91507f436f6e747261637420686173206265656e2064657072656361746564000000006000830152602082019050919050565b6000614888601a83615bde565b91507f54786964206e6f7420636f727265637420696e206865616465720000000000006000830152602082019050919050565b60006148c8603483615bde565b91507f5472616e736665727320646f206e6f742070726f766520616761696e7374207460008301527f6865206c617374206e6f746172697a6174696f6e0000000000000000000000006020830152604082019050919050565b600061492e602983615bde565b91507f52657175657374656420616d6f756e74206578636565647320636f6e7472616360008301527f742062616c616e636500000000000000000000000000000000000000000000006020830152604082019050919050565b6000614994603d83615bde565b91507f427269646765206973206e6f742079657420617661696c61626c65206665657360008301527f2063616e6e6f7420657863656564206578697374696e6720706f6f6c2e0000006020830152604082019050919050565b60006149fa601b83615bde565b91507f54686520746f6b656e206973206e6f74207265676973746572656400000000006000830152602082019050919050565b6000614a3a605583615bde565b91507f5468697320636f6e7472616374206d757374206861766520616e20616c6c6f7760008301527f616e6365206f662067726561746572207468616e206f7220657175616c20746f60208301527f20746865206e756d626572206f6620746f6b656e7300000000000000000000006040830152606082019050919050565b6000614ac6602c83615bde565b91507f506c656173652073656e642074686520617070726f707269617465207472616e60008301527f73616374696f6e206665652e00000000000000000000000000000000000000006020830152604082019050919050565b600060a083016000830151614b3760008601826153d7565b506020830151614b4a60208601826153d7565b5060408301518482036040860152614b628282614723565b91505060608301518482036060860152614b7c828261466a565b9150506080830151614b91608086018261539b565b508091505092915050565b60006101e083016000830151614bb5600086018261536e565b506020830151614bc8602086018261536e565b506040830151614bdb604086018261438d565b506060830151614bee606086018261539b565b506080830151614c01608086018261539b565b5060a0830151614c1460a086018261438d565b5060c0830151614c2760c086018261438d565b5060e0830151614c3a60e086018261539b565b50610100830151848203610100860152614c5482826144dc565b915050610120830151848203610120860152614c7082826144dc565b915050610140830151614c876101408601826146ee565b50610160830151848203610160860152614ca182826144dc565b915050610180830151614cb86101808601826152d0565b506101a0830151614ccd6101c08601826147c6565b508091505092915050565b60006101e083016000830151614cf1600086018261536e565b506020830151614d04602086018261536e565b506040830151614d17604086018261438d565b506060830151614d2a606086018261539b565b506080830151614d3d608086018261539b565b5060a0830151614d5060a086018261438d565b5060c0830151614d6360c086018261438d565b5060e0830151614d7660e086018261539b565b50610100830151848203610100860152614d9082826144dc565b915050610120830151848203610120860152614dac82826144dc565b915050610140830151614dc36101408601826146ee565b50610160830151848203610160860152614ddd82826144dc565b915050610180830151614df46101808601826152d0565b506101a0830151614e096101c08601826147c6565b508091505092915050565b604082016000820151614e2a600085018261438d565b506020820151614e3d60208501826153b9565b50505050565b604082016000820151614e59600085018261438d565b506020820151614e6c60208501826153b9565b50505050565b604082016000808301549050614e8781615d60565b614e94600086018261438d565b50614e9e81615de2565b614eab60208601826153b9565b5050505050565b6000608083016000830151614eca60008601826153d7565b506020830151614edd602086018261539b565b506040830151614ef0604086018261539b565b5060608301518482036060860152614f0882826143ab565b9150508091505092915050565b6000608083016000830151614f2d60008601826153d7565b506020830151614f4060208601826153d7565b5060408301518482036040860152614f58828261466a565b91505060608301518482036060860152614f728282614467565b9150508091505092915050565b600060c083016000830151614f97600086018261537d565b506020830151614faa60208601826146ee565b506040830151614fbd604086018261537d565b5060608301518482036060860152614fd58282614b9c565b91505060808301518482036080860152614fef8282614f15565b91505060a083015184820360a086015261500982826145af565b9150508091505092915050565b600060808301600083015161502e600086018261537d565b506020830151615041602086018261537d565b50604083015161505460408601826146ee565b506060830151848203606086015261506c82826145af565b9150508091505092915050565b6000608083016000830151615091600086018261537d565b5060208301516150a4602086018261537d565b5060408301516150b760408601826146ee565b50606083015184820360608601526150cf82826145af565b9150508091505092915050565b610160820160008201516150f3600085018261539b565b5060208201516151066020850182614e14565b506040820151615119606085018261539b565b50606082015161512c608085018261438d565b50608082015161513f60a085018261537d565b5060a082015161515260c08501826152d0565b5060c082015161516661010085018261438d565b5060e082015161517a61012085018261438d565b5061010082015161518f61014085018261438d565b50505050565b610160820160008083015490506151ab81615d94565b6151b8600086018261539b565b50600183016151ca6020860182614e72565b50600283015490506151db81615d94565b6151e8606086018261539b565b506151f281615dfc565b6151ff608086018261438d565b506003830154905061521081615d7a565b61521d60a086018261537d565b506004830161522f60c086018261532e565b506005830154905061524081615d60565b61524e61010086018261438d565b506006830154905061525f81615d60565b61526d61012086018261438d565b506007830154905061527e81615d60565b61528c61014086018261438d565b5050505050565b60006040830160008301516152ab60008601826153d7565b50602083015184820360208601526152c38282614eb2565b9150508091505092915050565b6040820160008201516152e660008501826153d7565b5060208201516152f9602085018261438d565b50505050565b60408201600082015161531560008501826153d7565b506020820151615328602085018261438d565b50505050565b60408201600080830154905061534381615dae565b61535060008601826153d7565b5061535a81615dc8565b615367602086018261438d565b5050505050565b61537781615c7f565b82525050565b61538681615cad565b82525050565b61539581615cad565b82525050565b6153a481615cb7565b82525050565b6153b381615cb7565b82525050565b6153c281615cc7565b82525050565b6153d181615cc7565b82525050565b6153e081615cdb565b82525050565b60006153f28285614795565b91506153fe828461470c565b6020820191508190509392505050565b600061541a8285614795565b91506154268284614795565b91508190509392505050565b6000602082019050615447600083018461439c565b92915050565b6000604082019050615462600083018561437e565b61546f602083018461439c565b9392505050565b600060608201905061548b600083018661437e565b615498602083018561439c565b6154a5604083018461538c565b949350505050565b60006040820190506154c2600083018561439c565b6154cf602083018461538c565b9392505050565b60006060820190506154eb600083018661439c565b6154f8602083018561538c565b615505604083018461439c565b949350505050565b600060208201905081810360008301526155278184614409565b905092915050565b60006020820190508181036000830152615549818461453a565b905092915050565b6000602082019050818103600083015261556b818461460d565b905092915050565b6000604082019050818103600083015261558d818561460d565b905061559c60208301846146df565b9392505050565b60006020820190506155b860008301846146df565b92915050565b60006020820190506155d360008301846146fd565b92915050565b600060208201905081810360008301526155f3818461475c565b905092915050565b60006020820190508181036000830152615614816147d5565b9050919050565b600060208201905081810360008301526156348161483b565b9050919050565b600060208201905081810360008301526156548161487b565b9050919050565b60006020820190508181036000830152615674816148bb565b9050919050565b6000602082019050818103600083015261569481614921565b9050919050565b600060208201905081810360008301526156b481614987565b9050919050565b600060208201905081810360008301526156d4816149ed565b9050919050565b600060208201905081810360008301526156f481614a2d565b9050919050565b6000602082019050818103600083015261571481614ab9565b9050919050565b600060208201905081810360008301526157358184614cd8565b905092915050565b600060208201905081810360008301526157578184614f7f565b905092915050565b600060208201905081810360008301526157798184615079565b905092915050565b6000602082019050615796600083018461538c565b92915050565b60006040820190506157b1600083018561538c565b6157be60208301846146df565b9392505050565b60006040820190506157da600083018561538c565b6157e760208301846146fd565b9392505050565b600061016082019050615804600083018c6153aa565b615811602083018b614e43565b61581e606083018a6153aa565b61582b608083018961439c565b61583860a083018861538c565b61584560c08301876152ff565b61585361010083018661439c565b61586161012083018561439c565b61586f61014083018461439c565b9a9950505050505050505050565b600060208201905061589260008301846153c8565b92915050565b6000604051905081810181811067ffffffffffffffff821117156158bf576158be615e20565b5b8060405250919050565b600067ffffffffffffffff8211156158e4576158e3615e20565b5b602082029050602081019050919050565b600067ffffffffffffffff8211156159105761590f615e20565b5b602082029050602081019050919050565b600067ffffffffffffffff82111561593c5761593b615e20565b5b602082029050602081019050919050565b600067ffffffffffffffff82111561596857615967615e20565b5b602082029050602081019050919050565b600067ffffffffffffffff82111561599457615993615e20565b5b602082029050602081019050919050565b600067ffffffffffffffff8211156159c0576159bf615e20565b5b602082029050602081019050919050565b600067ffffffffffffffff8211156159ec576159eb615e20565b5b601f19601f8301169050602081019050919050565b6000819050602082019050919050565b6000819050602082019050919050565b6000819050602082019050919050565b6000819050602082019050919050565b6000819050602082019050919050565b60008190508160005260206000209050919050565b6000819050602082019050919050565b600081519050919050565b600081519050919050565b600081519050919050565b600081519050919050565b600081519050919050565b600081549050919050565b600081519050919050565b600081519050919050565b6000602082019050919050565b6000602082019050919050565b6000602082019050919050565b6000602082019050919050565b6000602082019050919050565b6000600882019050919050565b6000602082019050919050565b600082825260208201905092915050565b600082825260208201905092915050565b600082825260208201905092915050565b600082825260208201905092915050565b600082825260208201905092915050565b600082825260208201905092915050565b600082825260208201905092915050565b600082825260208201905092915050565b600082825260208201905092915050565b600082825260208201905092915050565b600081905092915050565b600082825260208201905092915050565b600073ffffffffffffffffffffffffffffffffffffffff82169050919050565b6000819050919050565b600063ffffffff82169050919050565b600067ffffffffffffffff82169050919050565b600060ff82169050919050565b6000615c5582615c8d565b9050919050565b60008115159050919050565b6000819050919050565b60008160030b9050919050565b600061ffff82169050919050565b600073ffffffffffffffffffffffffffffffffffffffff82169050919050565b6000819050919050565b600063ffffffff82169050919050565b600067ffffffffffffffff82169050919050565b600060ff82169050919050565b6000615cf382615cfa565b9050919050565b6000615d0582615d0c565b9050919050565b6000615d1782615c8d565b9050919050565b82818337600083830152505050565b60005b83811015615d4b578082015181840152602081019050615d30565b83811115615d5a576000848401525b50505050565b6000615d73615d6e83615e33565b615bef565b9050919050565b6000615d8d615d8883615e33565b615c0f565b9050919050565b6000615da7615da283615e33565b615c19565b9050919050565b6000615dc1615dbc83615e33565b615c3d565b9050919050565b6000615ddb615dd683615e5a565b615bef565b9050919050565b6000615df5615df083615e40565b615c29565b9050919050565b6000615e0f615e0a83615e4d565b615bef565b9050919050565b6000819050919050565bfe5b6000601f19601f8301169050919050565b60008160001c9050919050565b60008160a01c9050919050565b60008160201c9050919050565b60008160081c9050919050565b615e7081615c4a565b8114615e7b57600080fd5b50565b615e8781615c5c565b8114615e9257600080fd5b50565b615e9e81615c68565b8114615ea957600080fd5b50565b615eb581615c72565b8114615ec057600080fd5b50565b615ecc81615c7f565b8114615ed757600080fd5b50565b615ee381615cad565b8114615eee57600080fd5b50565b615efa81615cb7565b8114615f0557600080fd5b50565b615f1181615cc7565b8114615f1c57600080fd5b50565b615f2881615cdb565b8114615f3357600080fd5b5056fea26469706673582212209cc5a5b3adf1326db9db77e1f63f96497f4545d173aac326fb2acf6f9a473b2764736f6c63430007060033",
  "immutableReferences": {},
  "source": "// SPDX-License-Identifier: MIT\r\n// Bridge between ethereum and verus\r\n\r\npragma solidity >=0.6.0 <0.9.0;\r\npragma experimental ABIEncoderV2;\r\n\r\nimport \"../Libraries/VerusObjects.sol\";\r\nimport \"../Libraries/VerusObjectsCommon.sol\";\r\nimport \"../Libraries/VerusConstants.sol\";\r\nimport \"./TokenManager.sol\";\r\nimport \"../MMR/VerusProof.sol\";\r\nimport \"./Token.sol\";\r\nimport \"./VerusSerializer.sol\";\r\nimport \"../VerusNotarizer/VerusNotarizer.sol\";\r\nimport \"./VerusCrossChainExport.sol\";\r\n\r\ncontract VerusBridge {\r\n\r\n    //list of erc20 tokens that can be accessed,\r\n    //the contract must be able to mint and burn coins on the contract\r\n    //defines the tokenManager which creates the erc20\r\n    TokenManager tokenManager;\r\n    VerusSerializer verusSerializer;\r\n    VerusProof verusProof;\r\n    VerusNotarizer verusNotarizer;\r\n    VerusCrossChainExport verusCCE;\r\n\r\n    //THE CONTRACT OWNER NEEDS TO BE REPLACED BY A SET OF NOTARIES\r\n    address contractOwner;\r\n    bool public deprecated = false; //indicates if the cotnract is deprecated\r\n    address public upgradedAddress;\r\n    uint256 public feesHeld = 0;\r\n    uint256 public ethHeld = 0;\r\n    uint256 public poolSize = 0;\r\n    uint public firstBlock = 0;\r\n\r\n    //used to prove the transfers the index of this corresponds to the index of the \r\n    bytes32[] public readyExportHashes;\r\n    //DO NOT ADD ANY VARIABLES ABOVE THIS POINT\r\n    //used to store a list of currencies and an amount\r\n    VerusObjects.CReserveTransfer[] private _pendingExports;\r\n    \r\n    //stores the blockheight of each pending transfer\r\n    //the export set holds the summary of a set of exports\r\n    VerusObjects.CReserveTransfer[][] public _readyExports;\r\n    \r\n    //stores the index corresponds to the block\r\n    VerusObjects.LastImport public lastimport;\r\n    mapping(bytes32 => bool) public processedTxids;\r\n    mapping (uint => VerusObjects.blockCreated) public readyExportsByBlock;\r\n    mapping (address => uint256) public claimableFees;\r\n    \r\n    bytes[] public SerializedCRTs;\r\n    bytes[] public SerializedCCEs;\r\n    bytes32[] public hashedCRTs;\r\n    uint public lastTxidimport;\r\n    \r\n    \r\n    event Deprecate(address newAddress);\r\n    \r\n    constructor(address verusProofAddress,\r\n        address tokenManagerAddress,\r\n        address verusSerializerAddress,\r\n        address verusNotarizerAddress,\r\n        address verusCCEAddress,\r\n        uint256 _poolSize) public {\r\n        contractOwner = msg.sender; \r\n        verusProof =  VerusProof(verusProofAddress);\r\n        tokenManager = TokenManager(tokenManagerAddress);\r\n        verusSerializer = VerusSerializer(verusSerializerAddress);\r\n        verusNotarizer = VerusNotarizer(verusNotarizerAddress);\r\n        verusCCE = VerusCrossChainExport(verusCCEAddress);\r\n        poolSize = _poolSize;\r\n        lastimport.height = 0;\r\n        lastimport.txid = 0x00000000000000000000000000000000;\r\n    }\r\n\r\n    function isPoolAvailable(uint256 _feesAmount,address _feeCurrencyID) private view returns(bool){\r\n        if(verusNotarizer.numNotarizedBlocks() >= 1) {\r\n            //the bridge has been activated\r\n            return false;\r\n        } else {\r\n            require(_feeCurrencyID == VerusConstants.VerusCurrencyId,\"Bridge is not yet available only Verus can be used for fees\");\r\n            require(poolSize > _feesAmount,\"Bridge is not yet available fees cannot exceed existing pool.\");\r\n            return true;\r\n        }\r\n    }\r\n\r\n    function convertToVerusNumber(uint256 a) public pure returns (uint64) {\r\n        uint256 c = a / 10000000000;\r\n        return uint64(c);\r\n    }\r\n    \r\n    function convertFromVerusNumber(uint256 a) public pure returns (uint256) {\r\n        uint256 c = a * 10000000000;\r\n        return c;\r\n    }\r\n    \r\n    function export(VerusObjects.CReserveTransfer memory transfer) public payable{\r\n        require(!deprecated,\"Contract has been deprecated\");\r\n        require(msg.value >= VerusConstants.transactionFee + uint64(transfer.fees),\"Please send the appropriate transaction fee.\");\r\n        if(transfer.currencyvalue.currency != VerusConstants.VEth){\r\n            //check there are enough fees sent\r\n            feesHeld += msg.value;\r\n            //check that the token is registered\r\n            require(tokenManager.destinationToAddress(transfer.currencyvalue.currency) != 0x0000000000000000000000000000000000000000, \"The token is not registered\");\r\n            Token token = Token(tokenManager.destinationToAddress(transfer.currencyvalue.currency));\r\n            uint256 allowedTokens = token.allowance(msg.sender,address(this));\r\n            require( uint64(allowedTokens) >= transfer.currencyvalue.amount,\"This contract must have an allowance of greater than or equal to the number of tokens\");\r\n            //transfer the tokens to this contract\r\n            token.transferFrom(msg.sender,address(this),uint256(transfer.currencyvalue.amount)); \r\n            token.approve(address(tokenManager),uint256(transfer.currencyvalue.amount));  \r\n            //give an approval for the tokenmanagerinstance to spend the tokens\r\n            tokenManager.exportERC20Tokens(tokenManager.destinationToAddress(transfer.currencyvalue.currency),uint256(transfer.currencyvalue.amount));\r\n        } else {\r\n            //handle a vEth transfer\r\n            transfer.currencyvalue.amount = convertToVerusNumber(msg.value - VerusConstants.transactionFee);\r\n            ethHeld += msg.value - VerusConstants.transactionFee;\r\n            feesHeld += VerusConstants.transactionFee;\r\n        }\r\n        _createExports(transfer);\r\n    }\r\n    /*\r\n    function exportETH(address _destination,uint8 _destinationType,address _feeCurrencyID,uint256 _nFees,address _destSystemID,uint32 _flags,address _secondReserveID) public payable returns(uint256){\r\n        require(!deprecated,\"Contract has been deprecated\");\r\n        //calculate amount of eth to send\r\n        require(msg.value > VerusConstants.transactionFee,\"Ethereum must be sent with the transaction to be sent to the Verus Chain\");\r\n        \r\n        uint256 amount = msg.value - VerusConstants.transactionFee;\r\n        ethHeld += amount;\r\n        feesHeld += VerusConstants.transactionFee;\r\n        //create a new Bridge Transaction\r\n         VerusObjectsCommon.CTransferDestination memory transferDestination = VerusObjectsCommon.CTransferDestination(_destinationType,_destination);\r\n        _createExports(convertToVerusNumber(amount), address(VerusConstants.VEth), transferDestination, VerusConstants.VerusSystemId, _nFees, _feeCurrencyID, _destSystemID, _flags,_secondReserveID);\r\n\r\n        return amount;\r\n    }\r\n\r\n\r\n    //nFees and secondReserveID are used to send the tokens/eth on\r\n    function exportERC20(uint64 _amount,address _tokenAddress,address _destination,uint8 _destinationType,address _destCurrencyID,uint256 _nFees,address _feeCurrencyID,address _destSystemID,uint32 _flags,address _secondReserveID) public payable {\r\n        //check that they are not attempting to send Eth\r\n        require(!deprecated,\"Contract has been deprecated\");\r\n        require(msg.value >= VerusConstants.transactionFee + uint64(_nFees),\"Please send the appropriate transaction fee.\");\r\n        require(_destination != VerusConstants.VEth,\"To send eth use exportETH\");\r\n        //check there are enough fees sent\r\n        feesHeld += msg.value;\r\n        Token token = Token(_tokenAddress);\r\n        uint256 allowedTokens = token.allowance(msg.sender,address(this));\r\n        require( uint64(allowedTokens) >= _amount,\"This contract must have an allowance of greater than or equal to the number of tokens\");\r\n        //transfer the tokens to this contract\r\n        token.transferFrom(msg.sender,address(this),uint256(_amount)); \r\n        token.approve(address(tokenManager),uint256(_amount));  \r\n        //give an approval for the tokenmanagerinstance to spend the tokens\r\n        tokenManager.exportERC20Tokens(_tokenAddress,uint256(_amount));\r\n\r\n        //create the BridgeTransaction \r\n        VerusObjectsCommon.CTransferDestination memory transferDestination = VerusObjectsCommon.CTransferDestination(_destinationType,_destination);\r\n        _createExports(_amount,tokenManager.vERC20Tokens(_tokenAddress).destinationCurrencyID,transferDestination,_destCurrencyID,_nFees,_feeCurrencyID,_destSystemID,_flags,_secondReserveID);\r\n    }*/\r\n\r\n    //function _createExports(uint64 _amount,address _tokenAddress,VerusObjectsCommon.CTransferDestination memory _destination,address _destCurrencyID,uint256 _nFees,address _feeCurrencyID,address _destSystemID,uint32 _flags,address _secondReserveID) private {\r\n      function _createExports(VerusObjects.CReserveTransfer memory newTransaction) private {\r\n        uint currentHeight = block.number;\r\n        uint exportIndex;\r\n        bool newHash;\r\n\r\n        /*VerusObjects.CCurrencyValueMap memory currencyvalues = VerusObjects.CCurrencyValueMap(_tokenAddress,_amount);\r\n        VerusObjects.CReserveTransfer memory newTransaction = VerusObjects.CReserveTransfer(\r\n            1,//force to be a signle value in the currencyvalue\r\n            currencyvalues,(Veth,amount)\r\n            _flags,65\r\n            _feeCurrencyID, VRSCTEST\r\n            _nFees, 200000\r\n            _destination, (4,\"0xb26820ee0c9b1276aac834cf457026a575dfce84\")\r\n            _destCurrencyID,VerusConstants.VerusSystemId\r\n            _destSystemID,\"0xAef9ea235635E328124Ff3429dB9F9E91b64e2d\",\r\n            _secondReserveID);'0x00000000000000000000000000000000*/\r\n//[\"1\",[\"0x67460C2f56774eD27EeB8685f29f6CEC0B090B00\",\"0\"],\"65\",0xA6ef9ea235635E328124Ff3429dB9F9E91b64e2d,\"2000000\",[\"4\",\"0xb26820ee0c9b1276aac834cf457026a575dfce84\"],0xAef9ea235635E328124Ff3429dB9F9E91b64e2d,0xAef9ea235635E328124Ff3429dB9F9E91b64e2d,\"0x00000000000000000000000000000000\"]\r\n//[1,[0x67460C2f56774eD27EeB8685f29f6CEC0B090B00,0],65,0xA6ef9ea235635E328124Ff3429dB9F9E91b64e2d,2000000,[4,0xb26820ee0c9b1276aac834cf457026a575dfce84],0xAef9ea235635E328124Ff3429dB9F9E91b64e2d,0xAef9ea235635E328124Ff3429dB9F9E91b64e2d,0x00000000000000000000000000000000]\r\n        //if there is fees in the pool spend those and not the amount that\r\n        if(isPoolAvailable(newTransaction.fees,newTransaction.feecurrencyid)) {\r\n            poolSize -= newTransaction.fees;\r\n        }\r\n\r\n        //check if the current block height has a set of transfers associated with it if so add to the existing array\r\n        if(readyExportsByBlock[currentHeight].created) {\r\n            //append to an existing array of transfers\r\n            exportIndex = readyExportsByBlock[currentHeight].index;\r\n            _readyExports[exportIndex].push(newTransaction);\r\n            newHash = false;\r\n        }\r\n        else {\r\n            _pendingExports.push(newTransaction);\r\n            _readyExports.push(_pendingExports);\r\n            exportIndex = _readyExports.length - 1;\r\n            readyExportsByBlock[currentHeight] = VerusObjects.blockCreated(exportIndex,true);\r\n            delete _pendingExports;\r\n            newHash = true;\r\n        }\r\n       \r\n        //create a cross chain export, serialize it and hash it\r\n        \r\n        VerusObjects.CCrossChainExport memory CCCE = verusCCE.generateCCE(_readyExports[exportIndex]);\r\n        //create a hash of the CCCE\r\n        \r\n        bytes memory serializedCCE = verusSerializer.serializeCCrossChainExport(CCCE);\r\n        bytes memory serializedTransfers = verusSerializer.serializeCReserveTransfers(_readyExports[exportIndex],false);\r\n        SerializedCRTs.push(serializedTransfers);\r\n        bytes32 hashedTransfers = keccak256(serializedTransfers);\r\n        bytes memory toHash = abi.encodePacked(serializedCCE,serializedTransfers);\r\n        SerializedCCEs.push(toHash);\r\n        hashedCRTs.push(hashedTransfers);\r\n        //bytes32 hashedTransfers = keccak256(serializedTransfers);\r\n        //bytes memory toHash = abi.encodePacked(serializedCCE,serializedTransfers);\r\n        bytes32 hashedCCE;\r\n        bytes32 lastProofRoot = 0;\r\n        if(exportIndex != 0)  lastProofRoot = readyExportHashes[exportIndex -1];\r\n        hashedCCE = keccak256(abi.encodePacked(serializedCCE,lastProofRoot));\r\n        \r\n        //add the hashed value\r\n        if(newHash) readyExportHashes.push(hashedCCE);\r\n        else readyExportHashes[exportIndex] = hashedCCE;\r\n        if(firstBlock == 0) firstBlock = currentHeight;\r\n        \r\n    }\r\n\r\n    function getlastimportheight() public view returns(uint) {\r\n        return lastTxidimport;\r\n    }\r\n    /***\r\n     * Import from Verus functions\r\n     ***/\r\n      function checkImports(bytes32[] memory _imports) public view returns(bytes32[] memory) {\r\n        //loop through the transfers and return a list of unprocessed\r\n        bytes32[] memory txidList = new bytes32[](_imports.length);\r\n        uint iterator;\r\n        for(uint i = 0; i < _imports.length; i++){\r\n            if(processedTxids[_imports[i]] != true){\r\n                txidList[iterator] = _imports[i];\r\n                iterator++;\r\n            }\r\n        }\r\n        return txidList;\r\n    }\r\n\r\n    function submitImports(VerusObjects.CReserveTransferImport[] memory _imports) public {\r\n        //loop through the transfers and process\r\n        for(uint i = 0; i < _imports.length; i++){\r\n           _createImports(_imports[i]);\r\n        }\r\n    }\r\n\r\n    function _createImports(VerusObjects.CReserveTransferImport memory _import) public returns(bool){\r\n\r\n        if(processedTxids[_import.txid] == true) return false; \r\n        bytes32 txidfound;\r\n        bytes memory sliced = _import.partialtransactionproof.components[0].elVchObj;\r\n        assembly {\r\n            txidfound := mload(add(sliced, 32))\r\n        }\r\n        require(_import.txid == txidfound, \"Txid not correct in header\"); //the txid should be present in the header\r\n        bool proved = verusProof.proveImports(_import);\r\n        require(proved,\"Transfers do not prove against the last notarization\");\r\n        processedTxids[_import.txid] = true;\r\n        if(lastTxidimport < _import.height)\r\n            lastTxidimport = _import.height;\r\n        uint256 amount;\r\n        //check the transfers were in the hash.\r\n        for(uint i = 0; i < _import.transfers.length; i++){\r\n            //handle eth transactions\r\n            amount = convertFromVerusNumber(uint256(_import.transfers[i].currencyvalue.amount));\r\n            if(_import.transfers[i].currencyvalue.currency == VerusConstants.VEth) {\r\n                //cast the destination as an ethAddress\r\n                    require(amount <= address(this).balance,\"Requested amount exceeds contract balance\");\r\n                    sendEth(amount,payable(address(_import.transfers[i].destination.destinationaddress)));\r\n                    ethHeld -= amount;\r\n        \r\n           } else {\r\n                //handle erc20 transactions   \r\n                tokenManager.importERC20Tokens(_import.transfers[i].currencyvalue.currency,\r\n                    amount,\r\n                    _import.transfers[i].destination.destinationaddress);\r\n           }\r\n            //handle the distributions of the fees\r\n            //add them into the fees array to be claimed by the message sender\r\n            if(_import.transfers[i].fees > 0 && _import.transfers[i].feecurrencyid == VerusConstants.VEth){\r\n                claimableFees[msg.sender] = claimableFees[msg.sender] + _import.transfers[i].fees;\r\n            }\r\n        }\r\n        return true;\r\n    }\r\n    \r\n    function getReadyExportsByBlock(uint _blockNumber) public view returns(VerusObjects.CReserveTransferSet memory){\r\n        //need a transferset for each position not each block\r\n        //retrieve a block get the indexes, create a transfer set for each index add those to the array\r\n        uint eIndex = readyExportsByBlock[_blockNumber].index;\r\n        VerusObjects.CReserveTransferSet memory output = VerusObjects.CReserveTransferSet(\r\n            eIndex, //position in array\r\n            _blockNumber, //blockHeight\r\n            //readyExportHashes[eIndex],\r\n            //DO WE NEED TO DO THIS\r\n            readyExportHashes[eIndex],\r\n            _readyExports[eIndex]\r\n        );\r\n        return output;\r\n    }\r\n\r\n    function getReadyExportsByRange(uint _startBlock,uint _endBlock) public view returns(VerusObjects.CReserveTransferSet[] memory){\r\n        //calculate the size that the return array will be to initialise it\r\n        uint outputSize = 0;\r\n        if(_startBlock < firstBlock) _startBlock = firstBlock;\r\n        for(uint i = _startBlock; i <= _endBlock; i++){\r\n            if(readyExportsByBlock[i].created) outputSize += 1;\r\n        }\r\n\r\n        VerusObjects.CReserveTransferSet[] memory output = new VerusObjects.CReserveTransferSet[](outputSize);\r\n        uint outputPosition = 0;\r\n        for(uint blockNumber = _startBlock;blockNumber <= _endBlock;blockNumber++){\r\n            if(readyExportsByBlock[blockNumber].created) {\r\n                output[outputPosition] = getReadyExportsByBlock(blockNumber);\r\n                outputPosition++;\r\n            }\r\n        }\r\n        return output;        \r\n    }\r\n \r\n    function sendEth(uint256 _ethAmount,address payable _ethAddress) private {\r\n        require(!deprecated,\"Contract has been deprecated\");\r\n        //do we take fees here????\r\n        \r\n        _ethAddress.transfer(_ethAmount);\r\n    }\r\n   \r\n    function claimFees() public returns(uint256){\r\n        require(!deprecated,\"Contract has been deprecated\");\r\n        if(claimableFees[msg.sender] > 0 ){\r\n            sendEth(claimableFees[msg.sender],msg.sender);\r\n        }\r\n        return claimableFees[msg.sender];\r\n\r\n    }\r\n/*\r\n    function deprecate(address _upgradedAddress,bytes32 _addressHash,uint8[] memory _vs,bytes32[] memory _rs,bytes32[] memory _ss) public{\r\n        if(verusNotarizer.notarizedDeprecation(_upgradedAddress, _addressHash, _vs, _rs, _ss)){\r\n            deprecated = true;\r\n            upgradedAddress = _upgradedAddress;\r\n            Deprecate(_upgradedAddress);\r\n        }\r\n    }\r\n*/\r\n\r\n}\r\n",
  "sourcePath": "D:\\dev\\Ethereum-verus-notarisation\\contracts\\VerusBridge\\VerusBridge.sol",
  "compiler": {
    "name": "solc",
    "version": "0.7.6+commit.7338295f.Emscripten.clang"
  },
  "schemaVersion": "3.4.3",
  "updatedAt": "2021-09-28T19:45:46.568Z",
  "networkType": "ethereum",
  "devdoc": {
    "kind": "dev",
    "methods": {},
    "version": 1
  },
  "userdoc": {
    "kind": "user",
    "methods": {},
    "version": 1
  }
}