{
  "contractName": "VerusBridge",
  "abi": [
    {
      "inputs": [
        {
          "internalType": "address",
          "name": "notarizerAddress",
          "type": "address"
        },
        {
          "internalType": "address",
          "name": "mmrAddress",
          "type": "address"
        },
        {
          "internalType": "address",
          "name": "tokenManagerAddress",
          "type": "address"
        }
      ],
      "stateMutability": "nonpayable",
      "type": "constructor"
    },
    {
      "anonymous": false,
      "inputs": [
        {
          "components": [
            {
              "internalType": "address",
              "name": "ethAddress",
              "type": "address"
            },
            {
              "internalType": "string",
              "name": "RAddress",
              "type": "string"
            },
            {
              "internalType": "string",
              "name": "tokenName",
              "type": "string"
            },
            {
              "internalType": "uint256",
              "name": "tokenAmount",
              "type": "uint256"
            }
          ],
          "indexed": false,
          "internalType": "struct VerusBridge.BridgeTransaction",
          "name": "transaction",
          "type": "tuple"
        }
      ],
      "name": "ReceivedFromVerus",
      "type": "event"
    },
    {
      "anonymous": false,
      "inputs": [
        {
          "indexed": false,
          "internalType": "uint256",
          "name": "index",
          "type": "uint256"
        }
      ],
      "name": "TransactionsReady",
      "type": "event"
    },
    {
      "inputs": [],
      "name": "getEthHeld",
      "outputs": [
        {
          "internalType": "uint256",
          "name": "",
          "type": "uint256"
        }
      ],
      "stateMutability": "view",
      "type": "function"
    },
    {
      "inputs": [],
      "name": "getFeesHeld",
      "outputs": [
        {
          "internalType": "uint256",
          "name": "",
          "type": "uint256"
        }
      ],
      "stateMutability": "view",
      "type": "function"
    },
    {
      "inputs": [],
      "name": "getTransactionsPerCall",
      "outputs": [
        {
          "internalType": "uint64",
          "name": "",
          "type": "uint64"
        }
      ],
      "stateMutability": "view",
      "type": "function"
    },
    {
      "inputs": [
        {
          "components": [
            {
              "internalType": "address",
              "name": "ethAddress",
              "type": "address"
            },
            {
              "internalType": "string",
              "name": "RAddress",
              "type": "string"
            },
            {
              "internalType": "string",
              "name": "tokenName",
              "type": "string"
            },
            {
              "internalType": "uint256",
              "name": "tokenAmount",
              "type": "uint256"
            }
          ],
          "internalType": "struct VerusBridge.BridgeTransaction[]",
          "name": "_newTransactions",
          "type": "tuple[]"
        },
        {
          "internalType": "uint32",
          "name": "_hashIndex",
          "type": "uint32"
        },
        {
          "internalType": "bytes32[]",
          "name": "_transactionsProof",
          "type": "bytes32[]"
        },
        {
          "internalType": "uint32",
          "name": "_blockHeight",
          "type": "uint32"
        }
      ],
      "name": "receiveFromVerusChain",
      "outputs": [
        {
          "internalType": "bytes32",
          "name": "",
          "type": "bytes32"
        }
      ],
      "stateMutability": "nonpayable",
      "type": "function"
    },
    {
      "inputs": [
        {
          "internalType": "string",
          "name": "_RAddress",
          "type": "string"
        }
      ],
      "name": "sendEthToVerus",
      "outputs": [
        {
          "internalType": "uint256",
          "name": "",
          "type": "uint256"
        }
      ],
      "stateMutability": "payable",
      "type": "function"
    },
    {
      "inputs": [
        {
          "internalType": "string",
          "name": "_tokenName",
          "type": "string"
        },
        {
          "internalType": "uint256",
          "name": "_tokenAmount",
          "type": "uint256"
        },
        {
          "internalType": "string",
          "name": "_RAddress",
          "type": "string"
        }
      ],
      "name": "sendERC20ToVerus",
      "outputs": [],
      "stateMutability": "payable",
      "type": "function"
    },
    {
      "inputs": [
        {
          "internalType": "string",
          "name": "_tokenName",
          "type": "string"
        },
        {
          "internalType": "uint256",
          "name": "_tokenAmount",
          "type": "uint256"
        },
        {
          "internalType": "string",
          "name": "_targetAddress",
          "type": "string"
        }
      ],
      "name": "testKeccak",
      "outputs": [
        {
          "internalType": "bytes",
          "name": "",
          "type": "bytes"
        }
      ],
      "stateMutability": "view",
      "type": "function"
    },
    {
      "inputs": [],
      "name": "outboundTransactionsIndex",
      "outputs": [
        {
          "internalType": "uint256",
          "name": "",
          "type": "uint256"
        }
      ],
      "stateMutability": "view",
      "type": "function"
    },
    {
      "inputs": [
        {
          "internalType": "uint256",
          "name": "_tIndex",
          "type": "uint256"
        }
      ],
      "name": "getTransactionsHash",
      "outputs": [
        {
          "internalType": "bytes32",
          "name": "",
          "type": "bytes32"
        }
      ],
      "stateMutability": "view",
      "type": "function"
    },
    {
      "inputs": [
        {
          "internalType": "uint256",
          "name": "_tIndex",
          "type": "uint256"
        }
      ],
      "name": "getTransactionsToProcess",
      "outputs": [
        {
          "components": [
            {
              "internalType": "address",
              "name": "ethAddress",
              "type": "address"
            },
            {
              "internalType": "string",
              "name": "RAddress",
              "type": "string"
            },
            {
              "internalType": "string",
              "name": "tokenName",
              "type": "string"
            },
            {
              "internalType": "uint256",
              "name": "tokenAmount",
              "type": "uint256"
            }
          ],
          "internalType": "struct VerusBridge.BridgeTransaction[]",
          "name": "",
          "type": "tuple[]"
        }
      ],
      "stateMutability": "view",
      "type": "function"
    },
    {
      "inputs": [],
      "name": "getPendingOutboundTransactions",
      "outputs": [
        {
          "components": [
            {
              "internalType": "address",
              "name": "ethAddress",
              "type": "address"
            },
            {
              "internalType": "string",
              "name": "RAddress",
              "type": "string"
            },
            {
              "internalType": "string",
              "name": "tokenName",
              "type": "string"
            },
            {
              "internalType": "uint256",
              "name": "tokenAmount",
              "type": "uint256"
            }
          ],
          "internalType": "struct VerusBridge.BridgeTransaction[]",
          "name": "",
          "type": "tuple[]"
        }
      ],
      "stateMutability": "view",
      "type": "function"
    },
    {
      "inputs": [
        {
          "internalType": "bytes32",
          "name": "transactionHash",
          "type": "bytes32"
        }
      ],
      "name": "getCompletedInboundTransaction",
      "outputs": [
        {
          "components": [
            {
              "internalType": "uint256",
              "name": "blockNumber",
              "type": "uint256"
            },
            {
              "components": [
                {
                  "internalType": "address",
                  "name": "ethAddress",
                  "type": "address"
                },
                {
                  "internalType": "string",
                  "name": "RAddress",
                  "type": "string"
                },
                {
                  "internalType": "string",
                  "name": "tokenName",
                  "type": "string"
                },
                {
                  "internalType": "uint256",
                  "name": "tokenAmount",
                  "type": "uint256"
                }
              ],
              "internalType": "struct VerusBridge.BridgeTransaction[]",
              "name": "includedTransactions",
              "type": "tuple[]"
            },
            {
              "internalType": "bool",
              "name": "completed",
              "type": "bool"
            }
          ],
          "internalType": "struct VerusBridge.CompletedTransaction",
          "name": "",
          "type": "tuple"
        }
      ],
      "stateMutability": "view",
      "type": "function"
    },
    {
      "inputs": [
        {
          "internalType": "string",
          "name": "verusAddress",
          "type": "string"
        },
        {
          "internalType": "string",
          "name": "ticker",
          "type": "string"
        }
      ],
      "name": "createToken",
      "outputs": [
        {
          "internalType": "address",
          "name": "",
          "type": "address"
        }
      ],
      "stateMutability": "nonpayable",
      "type": "function"
    },
    {
      "inputs": [
        {
          "components": [
            {
              "internalType": "address",
              "name": "ethAddress",
              "type": "address"
            },
            {
              "internalType": "string",
              "name": "RAddress",
              "type": "string"
            },
            {
              "internalType": "string",
              "name": "tokenName",
              "type": "string"
            },
            {
              "internalType": "uint256",
              "name": "tokenAmount",
              "type": "uint256"
            }
          ],
          "internalType": "struct VerusBridge.BridgeTransaction[]",
          "name": "_newTransactions",
          "type": "tuple[]"
        }
      ],
      "name": "createTransactionsHash",
      "outputs": [
        {
          "internalType": "bytes32",
          "name": "",
          "type": "bytes32"
        }
      ],
      "stateMutability": "nonpayable",
      "type": "function"
    },
    {
      "inputs": [
        {
          "components": [
            {
              "internalType": "address",
              "name": "ethAddress",
              "type": "address"
            },
            {
              "internalType": "string",
              "name": "RAddress",
              "type": "string"
            },
            {
              "internalType": "string",
              "name": "tokenName",
              "type": "string"
            },
            {
              "internalType": "uint256",
              "name": "tokenAmount",
              "type": "uint256"
            }
          ],
          "internalType": "struct VerusBridge.BridgeTransaction[]",
          "name": "_newTransactions",
          "type": "tuple[]"
        }
      ],
      "name": "serializeTransactions",
      "outputs": [
        {
          "internalType": "bytes",
          "name": "",
          "type": "bytes"
        }
      ],
      "stateMutability": "pure",
      "type": "function"
    },
    {
      "inputs": [
        {
          "internalType": "bytes",
          "name": "toHash",
          "type": "bytes"
        },
        {
          "internalType": "bytes",
          "name": "hashKey",
          "type": "bytes"
        }
      ],
      "name": "mmrHash",
      "outputs": [
        {
          "internalType": "bytes32",
          "name": "",
          "type": "bytes32"
        }
      ],
      "stateMutability": "nonpayable",
      "type": "function"
    },
    {
      "inputs": [
        {
          "components": [
            {
              "internalType": "address",
              "name": "ethAddress",
              "type": "address"
            },
            {
              "internalType": "string",
              "name": "RAddress",
              "type": "string"
            },
            {
              "internalType": "string",
              "name": "tokenName",
              "type": "string"
            },
            {
              "internalType": "uint256",
              "name": "tokenAmount",
              "type": "uint256"
            }
          ],
          "internalType": "struct VerusBridge.BridgeTransaction",
          "name": "_sendTransaction",
          "type": "tuple"
        }
      ],
      "name": "serializeTransaction",
      "outputs": [
        {
          "internalType": "bytes",
          "name": "",
          "type": "bytes"
        }
      ],
      "stateMutability": "pure",
      "type": "function"
    },
    {
      "inputs": [
        {
          "internalType": "string",
          "name": "tokenName",
          "type": "string"
        }
      ],
      "name": "getTokenAddress",
      "outputs": [
        {
          "internalType": "address",
          "name": "",
          "type": "address"
        }
      ],
      "stateMutability": "view",
      "type": "function"
    },
    {
      "inputs": [
        {
          "internalType": "address",
          "name": "tokenAddress",
          "type": "address"
        }
      ],
      "name": "getTokenName",
      "outputs": [
        {
          "internalType": "string",
          "name": "",
          "type": "string"
        }
      ],
      "stateMutability": "view",
      "type": "function"
    },
    {
      "inputs": [
        {
          "internalType": "bytes",
          "name": "self",
          "type": "bytes"
        },
        {
          "internalType": "bytes",
          "name": "other",
          "type": "bytes"
        }
      ],
      "name": "concat",
      "outputs": [
        {
          "internalType": "bytes",
          "name": "",
          "type": "bytes"
        }
      ],
      "stateMutability": "pure",
      "type": "function"
    }
  ],
  "bytecode": "0x6080604052600060035560006004556040518060400160405280601081526020017f566572757344656661756c744861736800000000000000000000000000000000815250600590805190602001906200005b92919062000209565b50600a600660006101000a81548167ffffffffffffffff021916908367ffffffffffffffff1602179055506040518060400160405280600581526020017f2e6574682e00000000000000000000000000000000000000000000000000000081525060079080519060200190620000d392919062000290565b50655af3107a4000600855348015620000eb57600080fd5b5060405162003b6438038062003b6483398181016040528101906200011191906200034d565b81600260006101000a81548173ffffffffffffffffffffffffffffffffffffffff021916908373ffffffffffffffffffffffffffffffffffffffff16021790555082600160006101000a81548173ffffffffffffffffffffffffffffffffffffffff021916908373ffffffffffffffffffffffffffffffffffffffff160217905550806000806101000a81548173ffffffffffffffffffffffffffffffffffffffff021916908373ffffffffffffffffffffffffffffffffffffffff160217905550600b6000908060018154018082558091505060019003906000526020600020016000909160001b909190915055505050620003f1565b828054600181600116156101000203166002900490600052602060002090601f016020900481019282601f106200024c57805160ff19168380011785556200027d565b828001600101855582156200027d579182015b828111156200027c5782518255916020019190600101906200025f565b5b5090506200028c919062000317565b5090565b828054600181600116156101000203166002900490600052602060002090601f016020900481019282601f10620002d357805160ff191683800117855562000304565b8280016001018555821562000304579182015b8281111562000303578251825591602001919060010190620002e6565b5b50905062000313919062000317565b5090565b5b808211156200033257600081600090555060010162000318565b5090565b6000815190506200034781620003d7565b92915050565b6000806000606084860312156200036357600080fd5b6000620003738682870162000336565b9350506020620003868682870162000336565b9250506040620003998682870162000336565b9150509250925092565b6000620003b082620003b7565b9050919050565b600073ffffffffffffffffffffffffffffffffffffffff82169050919050565b620003e281620003a3565b8114620003ee57600080fd5b50565b61376380620004016000396000f3fe60806040526004361061011f5760003560e01c806376bbae6d116100a0578063b5c8cf1111610064578063b5c8cf111461043c578063c409123614610479578063ef22f831146104b6578063f2bd653a146104f3578063f2ca85b7146105235761011f565b806376bbae6d1461031d5780638b9426a81461035a5780639105f2451461039757806393478f64146103c2578063b14b1e99146103ff5761011f565b806348cd4428116100e757806348cd44281461022257806349b4cd0e1461024d5780634a786eda146102785780635f3376f3146102a35780636f0fccab146102e05761011f565b80632f2f2d56146101245780633210ed8d146101615780633720f57f1461019e5780633b802da6146101ba5780633e15102e146101f7575b600080fd5b34801561013057600080fd5b5061014b600480360381019061014691906126b0565b610560565b6040516101589190613059565b60405180910390f35b34801561016d57600080fd5b50610188600480360381019061018391906124b4565b610618565b604051610195919061311f565b60405180910390f35b6101b860048036038101906101b3919061271c565b61099a565b005b3480156101c657600080fd5b506101e160048036038101906101dc9190612473565b610a8f565b6040516101ee919061311f565b60405180910390f35b34801561020357600080fd5b5061020c610b5c565b60405161021991906133a3565b60405180910390f35b34801561022e57600080fd5b50610237610b66565b60405161024491906130fd565b60405180910390f35b34801561025957600080fd5b50610262610d69565b60405161026f91906133be565b60405180910390f35b34801561028457600080fd5b5061028d610d87565b60405161029a91906133a3565b60405180910390f35b3480156102af57600080fd5b506102ca60048036038101906102c591906125c2565b610d94565b6040516102d7919061313a565b60405180910390f35b3480156102ec57600080fd5b5061030760048036038101906103029190612421565b610e43565b60405161031491906131d8565b60405180910390f35b34801561032957600080fd5b50610344600480360381019061033f919061271c565b610efa565b604051610351919061313a565b60405180910390f35b34801561036657600080fd5b50610381600480360381019061037c91906127dc565b610f4a565b60405161038e919061311f565b60405180910390f35b3480156103a357600080fd5b506103ac610f6b565b6040516103b991906133a3565b60405180910390f35b3480156103ce57600080fd5b506103e960048036038101906103e491906125c2565b610f75565b6040516103f6919061311f565b60405180910390f35b34801561040b57600080fd5b5061042660048036038101906104219190612473565b611036565b604051610433919061313a565b60405180910390f35b34801561044857600080fd5b50610463600480360381019061045e91906127dc565b61109c565b60405161047091906130fd565b60405180910390f35b34801561048557600080fd5b506104a0600480360381019061049b919061262e565b6112b6565b6040516104ad9190613059565b60405180910390f35b3480156104c257600080fd5b506104dd60048036038101906104d89190612570565b611369565b6040516104ea9190613381565b60405180910390f35b61050d6004803603810190610508919061262e565b6115be565b60405161051a91906133a3565b60405180910390f35b34801561052f57600080fd5b5061054a6004803603810190610545919061279b565b6116dd565b604051610557919061313a565b60405180910390f35b60008060009054906101000a900473ffffffffffffffffffffffffffffffffffffffff1673ffffffffffffffffffffffffffffffffffffffff16633c37cd0884846040518363ffffffff1660e01b81526004016105be9291906131fa565b602060405180830381600087803b1580156105d857600080fd5b505af11580156105ec573d6000803e3d6000fd5b505050506040513d601f19601f82011682018060405250810190610610919061244a565b905092915050565b60008061062486610a8f565b9050600c600082815260200190815260200160002060020160009054906101000a900460ff161561068a576040517f08c379a00000000000000000000000000000000000000000000000000000000081526004016106819061329f565b60405180910390fd5b60005b865181101561098d5760076040516020016106a89190613042565b604051602081830303815290604052805190602001208782815181106106ca57fe5b6020026020010151604001516040516020016106e6919061302b565b6040516020818303038152906040528051906020012014156107665761073a87828151811061071157fe5b60200260200101516060015188838151811061072957fe5b602002602001015160000151611721565b86818151811061074657fe5b60200260200101516060015160046000828254039250508190555061083b565b60008054906101000a900473ffffffffffffffffffffffffffffffffffffffff1673ffffffffffffffffffffffffffffffffffffffff1663d80adeaf8883815181106107ae57fe5b6020026020010151604001518984815181106107c657fe5b6020026020010151606001518a85815181106107de57fe5b6020026020010151600001516040518463ffffffff1660e01b815260040161080893929190613261565b600060405180830381600087803b15801561082257600080fd5b505af1158015610836573d6000803e3d6000fd5b505050505b43600c600084815260200190815260200160002060000181905550600c600083815260200190815260200160002060010187828151811061087857fe5b6020026020010151908060018154018082558091505060019003906000526020600020906004020160009091909190915060008201518160000160006101000a81548173ffffffffffffffffffffffffffffffffffffffff021916908373ffffffffffffffffffffffffffffffffffffffff160217905550602082015181600101908051906020019061090c929190611db0565b506040820151816002019080519060200190610929929190611db0565b506060820151816003015550507ff75d00e01bc0cdca2f866963e29de8b5401f7de4d2f1f9b7a90ade0886efe0c887828151811061096357fe5b6020026020010151604051610978919061335f565b60405180910390a1808060010191505061068d565b5080915050949350505050565b6008543410156109df576040517f08c379a00000000000000000000000000000000000000000000000000000000081526004016109d69061331f565b60405180910390fd5b60076040516020016109f19190613042565b6040516020818303038152906040528051906020012083604051602001610a18919061302b565b604051602081830303815290604052805190602001201415610a6f576040517f08c379a0000000000000000000000000000000000000000000000000000000008152600401610a66906132df565b60405180910390fd5b34600360008282540192505081905550610a8a8383836117af565b505050565b60006060610a9c83611036565b90506000600260009054906101000a900473ffffffffffffffffffffffffffffffffffffffff1673ffffffffffffffffffffffffffffffffffffffff1663fe5320bf8360056040518363ffffffff1660e01b8152600401610afe9291906131a1565b602060405180830381600087803b158015610b1857600080fd5b505af1158015610b2c573d6000803e3d6000fd5b505050506040513d601f19601f82011682018060405250810190610b509190612599565b90508092505050919050565b6000600454905090565b60606009805480602002602001604051908101604052809291908181526020016000905b82821015610d6057838290600052602060002090600402016040518060800160405290816000820160009054906101000a900473ffffffffffffffffffffffffffffffffffffffff1673ffffffffffffffffffffffffffffffffffffffff1673ffffffffffffffffffffffffffffffffffffffff168152602001600182018054600181600116156101000203166002900480601f016020809104026020016040519081016040528092919081815260200182805460018160011615610100020316600290048015610c9c5780601f10610c7157610100808354040283529160200191610c9c565b820191906000526020600020905b815481529060010190602001808311610c7f57829003601f168201915b50505050508152602001600282018054600181600116156101000203166002900480601f016020809104026020016040519081016040528092919081815260200182805460018160011615610100020316600290048015610d3e5780601f10610d1357610100808354040283529160200191610d3e565b820191906000526020600020905b815481529060010190602001808311610d2157829003601f168201915b5050505050815260200160038201548152505081526020019060010190610b8a565b50505050905090565b6000600660009054906101000a900467ffffffffffffffff16905090565b6000600a80549050905090565b606080825184510167ffffffffffffffff81118015610db257600080fd5b506040519080825280601f01601f191660200182016040528015610de55781602001600182028036833780820191505090505b509050600080610df486611c02565b91509150600080610e0487611c02565b915091506000610e1386611c02565b50905060008282019050610e28868387611c14565b610e33848285611c14565b8697505050505050505092915050565b606060008054906101000a900473ffffffffffffffffffffffffffffffffffffffff1673ffffffffffffffffffffffffffffffffffffffff16636f0fccab836040518263ffffffff1660e01b8152600401610e9e9190613059565b60006040518083038186803b158015610eb657600080fd5b505afa158015610eca573d6000803e3d6000fd5b505050506040513d6000823e3d601f19601f82011682018060405250810190610ef3919061266f565b9050919050565b6060600b6001600b805490500381548110610f1157fe5b9060005260206000200154848484604051602001610f329493929190612fe5565b60405160208183030381529060405290509392505050565b6000600b8281548110610f5957fe5b90600052602060002001549050919050565b6000600354905090565b600080600260009054906101000a900473ffffffffffffffffffffffffffffffffffffffff1673ffffffffffffffffffffffffffffffffffffffff166395c12f53858560006040518463ffffffff1660e01b8152600401610fd89392919061315c565b602060405180830381600087803b158015610ff257600080fd5b505af1158015611006573d6000803e3d6000fd5b505050506040513d601f19601f8201168201806040525081019061102a9190612599565b90508091505092915050565b606080606060005b84518110156110915761106385828151811061105657fe5b60200260200101516116dd565b9150600083511115611080576110798283610d94565b9250611084565b8192505b808060010191505061103e565b508192505050919050565b6060600a82815481106110ab57fe5b90600052602060002001805480602002602001604051908101604052809291908181526020016000905b828210156112ab57838290600052602060002090600402016040518060800160405290816000820160009054906101000a900473ffffffffffffffffffffffffffffffffffffffff1673ffffffffffffffffffffffffffffffffffffffff1673ffffffffffffffffffffffffffffffffffffffff168152602001600182018054600181600116156101000203166002900480601f0160208091040260200160405190810160405280929190818152602001828054600181600116156101000203166002900480156111e75780601f106111bc576101008083540402835291602001916111e7565b820191906000526020600020905b8154815290600101906020018083116111ca57829003601f168201915b50505050508152602001600282018054600181600116156101000203166002900480601f0160208091040260200160405190810160405280929190818152602001828054600181600116156101000203166002900480156112895780601f1061125e57610100808354040283529160200191611289565b820191906000526020600020905b81548152906001019060200180831161126c57829003601f168201915b50505050508152602001600382015481525050815260200190600101906110d5565b505050509050919050565b60008060009054906101000a900473ffffffffffffffffffffffffffffffffffffffff1673ffffffffffffffffffffffffffffffffffffffff1663c4091236836040518263ffffffff1660e01b815260040161131291906131d8565b60206040518083038186803b15801561132a57600080fd5b505afa15801561133e573d6000803e3d6000fd5b505050506040513d601f19601f82011682018060405250810190611362919061244a565b9050919050565b611371611e30565b600c60008381526020019081526020016000206040518060600160405290816000820154815260200160018201805480602002602001604051908101604052809291908181526020016000905b8282101561159457838290600052602060002090600402016040518060800160405290816000820160009054906101000a900473ffffffffffffffffffffffffffffffffffffffff1673ffffffffffffffffffffffffffffffffffffffff1673ffffffffffffffffffffffffffffffffffffffff168152602001600182018054600181600116156101000203166002900480601f0160208091040260200160405190810160405280929190818152602001828054600181600116156101000203166002900480156114d05780601f106114a5576101008083540402835291602001916114d0565b820191906000526020600020905b8154815290600101906020018083116114b357829003601f168201915b50505050508152602001600282018054600181600116156101000203166002900480601f0160208091040260200160405190810160405280929190818152602001828054600181600116156101000203166002900480156115725780601f1061154757610100808354040283529160200191611572565b820191906000526020600020905b81548152906001019060200180831161155557829003601f168201915b50505050508152602001600382015481525050815260200190600101906113be565b5050505081526020016002820160009054906101000a900460ff1615151515815250509050919050565b60006008543411611604576040517f08c379a00000000000000000000000000000000000000000000000000000000081526004016115fb906132bf565b60405180910390fd5b600060085434039050806004600082825401925050819055506008546003600082825401925050819055506116d460078054600181600116156101000203166002900480601f0160208091040260200160405190810160405280929190818152602001828054600181600116156101000203166002900480156116c85780601f1061169d576101008083540402835291602001916116c8565b820191906000526020600020905b8154815290600101906020018083116116ab57829003601f168201915b50505050508285611c5d565b80915050919050565b60608082600001518360200151846040015185606001516040516020016117079493929190612f9f565b604051602081830303815290604052905080915050919050565b47821015611764576040517f08c379a000000000000000000000000000000000000000000000000000000000815260040161175b906132ff565b60405180910390fd5b8073ffffffffffffffffffffffffffffffffffffffff166108fc839081150290604051600060405180830381858888f193505050501580156117aa573d6000803e3d6000fd5b505050565b60008060009054906101000a900473ffffffffffffffffffffffffffffffffffffffff1673ffffffffffffffffffffffffffffffffffffffff1663c4091236856040518263ffffffff1660e01b815260040161180b91906131d8565b60206040518083038186803b15801561182357600080fd5b505afa158015611837573d6000803e3d6000fd5b505050506040513d601f19601f8201168201806040525081019061185b919061244a565b9050600081905060008173ffffffffffffffffffffffffffffffffffffffff1663dd62ed3e33306040518363ffffffff1660e01b815260040161189f929190613074565b60206040518083038186803b1580156118b757600080fd5b505afa1580156118cb573d6000803e3d6000fd5b505050506040513d601f19601f820116820180604052508101906118ef9190612805565b905084811015611934576040517f08c379a000000000000000000000000000000000000000000000000000000000815260040161192b9061333f565b60405180910390fd5b8173ffffffffffffffffffffffffffffffffffffffff166323b872dd3330886040518463ffffffff1660e01b81526004016119719392919061309d565b602060405180830381600087803b15801561198b57600080fd5b505af115801561199f573d6000803e3d6000fd5b505050506040513d601f19601f820116820180604052508101906119c39190612547565b508173ffffffffffffffffffffffffffffffffffffffff1663095ea7b360008054906101000a900473ffffffffffffffffffffffffffffffffffffffff16876040518363ffffffff1660e01b8152600401611a1f9291906130d4565b602060405180830381600087803b158015611a3957600080fd5b505af1158015611a4d573d6000803e3d6000fd5b505050506040513d601f19601f82011682018060405250810190611a719190612547565b5060008054906101000a900473ffffffffffffffffffffffffffffffffffffffff1673ffffffffffffffffffffffffffffffffffffffff16634c18c8fa87876040518363ffffffff1660e01b8152600401611acd929190613231565b600060405180830381600087803b158015611ae757600080fd5b505af1158015611afb573d6000803e3d6000fd5b5050505060096040518060800160405280600073ffffffffffffffffffffffffffffffffffffffff16815260200186815260200188815260200187815250908060018154018082558091505060019003906000526020600020906004020160009091909190915060008201518160000160006101000a81548173ffffffffffffffffffffffffffffffffffffffff021916908373ffffffffffffffffffffffffffffffffffffffff1602179055506020820151816001019080519060200190611bc5929190611db0565b506040820151816002019080519060200190611be2929190611db0565b50606082015181600301555050611bfa868686611c5d565b505050505050565b60008082519050602083019150915091565b5b60208110611c385782518252602082019150602083019250602081039050611c15565b60006001826020036101000a0390508019845116818451168181178552505050505050565b600b6001600b805490500381548110611c7257fe5b9060005260206000200154838383604051602001611c939493929190612fe5565b60405160208183030381529060405280519060200120600b6001600b805490500381548110611cbe57fe5b9060005260206000200181905550600660009054906101000a900467ffffffffffffffff1667ffffffffffffffff1660098054905010611dab57600a600990806001815401808255809150506001900390600052602060002001600090919091909150908054611d2f929190611e53565b50600b6000908060018154018082558091505060019003906000526020600020016000909160001b90919091505560096000611d6b9190611f6c565b7f4f9cbcc2df29a3d4a1f5b4e688d0826588ed8150e918782f644a1ab8b70561066001600a8054905003604051611da291906133a3565b60405180910390a15b505050565b828054600181600116156101000203166002900490600052602060002090601f016020900481019282601f10611df157805160ff1916838001178555611e1f565b82800160010185558215611e1f579182015b82811115611e1e578251825591602001919060010190611e03565b5b509050611e2c9190611f90565b5090565b604051806060016040528060008152602001606081526020016000151581525090565b828054828255906000526020600020906004028101928215611f5b5760005260206000209160040282015b82811115611f5a5782826000820160009054906101000a900473ffffffffffffffffffffffffffffffffffffffff168160000160006101000a81548173ffffffffffffffffffffffffffffffffffffffff021916908373ffffffffffffffffffffffffffffffffffffffff16021790555060018201816001019080546001816001161561010002031660029004611f16929190611fad565b5060028201816002019080546001816001161561010002031660029004611f3e929190611fad565b5060038201548160030155505091600401919060040190611e7e565b5b509050611f689190612034565b5090565b5080546000825560040290600052602060002090810190611f8d9190612034565b50565b5b80821115611fa9576000816000905550600101611f91565b5090565b828054600181600116156101000203166002900490600052602060002090601f016020900481019282601f10611fe65780548555612023565b8280016001018555821561202357600052602060002091601f016020900482015b82811115612022578254825591600101919060010190612007565b5b5090506120309190611f90565b5090565b5b8082111561209657600080820160006101000a81549073ffffffffffffffffffffffffffffffffffffffff0219169055600182016000612075919061209a565b600282016000612085919061209a565b600382016000905550600401612035565b5090565b50805460018160011615610100020316600290046000825580601f106120c057506120df565b601f0160209004906000526020600020908101906120de9190611f90565b5b50565b6000813590506120f1816136ba565b92915050565b600081519050612106816136ba565b92915050565b600082601f83011261211d57600080fd5b813561213061212b82613406565b6133d9565b9150818183526020840193506020810190508385602084028201111561215557600080fd5b60005b83811015612185578161216b8882612218565b845260208401935060208301925050600181019050612158565b5050505092915050565b600082601f8301126121a057600080fd5b81356121b36121ae8261342e565b6133d9565b9150818183526020840193506020810190508360005b838110156121f957813586016121df888261233e565b8452602084019350602083019250506001810190506121c9565b5050505092915050565b600081519050612212816136d1565b92915050565b600081359050612227816136e8565b92915050565b60008151905061223c816136e8565b92915050565b600082601f83011261225357600080fd5b813561226661226182613456565b6133d9565b9150808252602083016020830185838301111561228257600080fd5b61228d838284613622565b50505092915050565b600082601f8301126122a757600080fd5b81356122ba6122b582613482565b6133d9565b915080825260208301602083018583830111156122d657600080fd5b6122e1838284613622565b50505092915050565b600082601f8301126122fb57600080fd5b815161230e61230982613482565b6133d9565b9150808252602083016020830185838301111561232a57600080fd5b612335838284613631565b50505092915050565b60006080828403121561235057600080fd5b61235a60806133d9565b9050600061236a848285016120e2565b600083015250602082013567ffffffffffffffff81111561238a57600080fd5b61239684828501612296565b602083015250604082013567ffffffffffffffff8111156123b657600080fd5b6123c284828501612296565b60408301525060606123d6848285016123e2565b60608301525092915050565b6000813590506123f1816136ff565b92915050565b600081519050612406816136ff565b92915050565b60008135905061241b81613716565b92915050565b60006020828403121561243357600080fd5b6000612441848285016120e2565b91505092915050565b60006020828403121561245c57600080fd5b600061246a848285016120f7565b91505092915050565b60006020828403121561248557600080fd5b600082013567ffffffffffffffff81111561249f57600080fd5b6124ab8482850161218f565b91505092915050565b600080600080608085870312156124ca57600080fd5b600085013567ffffffffffffffff8111156124e457600080fd5b6124f08782880161218f565b94505060206125018782880161240c565b935050604085013567ffffffffffffffff81111561251e57600080fd5b61252a8782880161210c565b925050606061253b8782880161240c565b91505092959194509250565b60006020828403121561255957600080fd5b600061256784828501612203565b91505092915050565b60006020828403121561258257600080fd5b600061259084828501612218565b91505092915050565b6000602082840312156125ab57600080fd5b60006125b98482850161222d565b91505092915050565b600080604083850312156125d557600080fd5b600083013567ffffffffffffffff8111156125ef57600080fd5b6125fb85828601612242565b925050602083013567ffffffffffffffff81111561261857600080fd5b61262485828601612242565b9150509250929050565b60006020828403121561264057600080fd5b600082013567ffffffffffffffff81111561265a57600080fd5b61266684828501612296565b91505092915050565b60006020828403121561268157600080fd5b600082015167ffffffffffffffff81111561269b57600080fd5b6126a7848285016122ea565b91505092915050565b600080604083850312156126c357600080fd5b600083013567ffffffffffffffff8111156126dd57600080fd5b6126e985828601612296565b925050602083013567ffffffffffffffff81111561270657600080fd5b61271285828601612296565b9150509250929050565b60008060006060848603121561273157600080fd5b600084013567ffffffffffffffff81111561274b57600080fd5b61275786828701612296565b9350506020612768868287016123e2565b925050604084013567ffffffffffffffff81111561278557600080fd5b61279186828701612296565b9150509250925092565b6000602082840312156127ad57600080fd5b600082013567ffffffffffffffff8111156127c757600080fd5b6127d38482850161233e565b91505092915050565b6000602082840312156127ee57600080fd5b60006127fc848285016123e2565b91505092915050565b60006020828403121561281757600080fd5b6000612825848285016123f7565b91505092915050565b600061283a8383612e37565b905092915050565b61284b816135ec565b82525050565b61285a81613576565b82525050565b61286981613576565b82525050565b61288061287b82613576565b613664565b82525050565b6000612891826134e8565b61289b8185613516565b9350836020820285016128ad856134ae565b8060005b858110156128e957848403895281516128ca858261282e565b94506128d583613509565b925060208a019950506001810190506128b1565b50829750879550505050505092915050565b6000612906826134e8565b6129108185613527565b935083602082028501612922856134ae565b8060005b8581101561295e578484038952815161293f858261282e565b945061294a83613509565b925060208a01995050600181019050612926565b50829750879550505050505092915050565b61297981613588565b82525050565b61298881613588565b82525050565b61299781613594565b82525050565b6129ae6129a982613594565b613676565b82525050565b60006129bf826134f3565b6129c98185613538565b93506129d9818560208601613631565b6129e28161369c565b840191505092915050565b600081546001811660008114612a0a5760018114612a3057612a74565b607f6002830416612a1b8187613538565b955060ff198316865260208601935050612a74565b60028204612a3e8187613538565b9550612a49856134be565b60005b82811015612a6b57815481890152600182019150602081019050612a4c565b80880195505050505b505092915050565b6000612a87826134fe565b612a918185613549565b9350612aa1818560208601613631565b612aaa8161369c565b840191505092915050565b6000612ac0826134fe565b612aca818561355a565b9350612ada818560208601613631565b612ae38161369c565b840191505092915050565b6000612af9826134fe565b612b03818561356b565b9350612b13818560208601613631565b80840191505092915050565b600081546001811660008114612b3c5760018114612b6157612ba5565b607f6002830416612b4d818761356b565b955060ff1983168652808601935050612ba5565b60028204612b6f818761356b565b9550612b7a856134d3565b60005b82811015612b9c57815481890152600182019150602081019050612b7d565b82880195505050505b505092915050565b6000612bba60288361355a565b91507f5472616e73616374696f6e732068617665206265656e20616c7265616479207060008301527f726f6365737365640000000000000000000000000000000000000000000000006020830152604082019050919050565b6000612c2060488361355a565b91507f457468657265756d206d7573742062652073656e74207769746820746865207460008301527f72616e73616374696f6e20746f2062652073656e7420746f207468652056657260208301527f757320436861696e0000000000000000000000000000000000000000000000006040830152606082019050919050565b6000612cac601e8361355a565b91507f546f2073656e6420657468207573652073656e64457468546f566572757300006000830152602082019050919050565b6000612cec60298361355a565b91507f52657175657374656420616d6f756e74206578636565647320636f6e7472616360008301527f742062616c616e636500000000000000000000000000000000000000000000006020830152604082019050919050565b6000612d52602b8361355a565b91507f506c656173652073656e642074686520617070726f707269617465207472616e60008301527f736163696f6e206665652e0000000000000000000000000000000000000000006020830152604082019050919050565b6000612db860558361355a565b91507f5468697320636f6e7472616374206d757374206861766520616e20616c6c6f7760008301527f616e6365206f662067726561746572207468616e206f7220657175616c20746f60208301527f20746865206e756d626572206f6620746f6b656e7300000000000000000000006040830152606082019050919050565b6000608083016000830151612e4f6000860182612851565b5060208301518482036020860152612e678282612a7c565b91505060408301518482036040860152612e818282612a7c565b9150506060830151612e966060860182612f5b565b508091505092915050565b6000608083016000830151612eb96000860182612851565b5060208301518482036020860152612ed18282612a7c565b91505060408301518482036040860152612eeb8282612a7c565b9150506060830151612f006060860182612f5b565b508091505092915050565b6000606083016000830151612f236000860182612f5b565b5060208301518482036020860152612f3b8282612886565b9150506040830151612f506040860182612970565b508091505092915050565b612f64816135be565b82525050565b612f73816135be565b82525050565b612f8a612f85826135be565b613692565b82525050565b612f99816135d8565b82525050565b6000612fab828761286f565b601482019150612fbb8286612aee565b9150612fc78285612aee565b9150612fd38284612f79565b60208201915081905095945050505050565b6000612ff1828761299d565b6020820191506130018286612aee565b915061300d8285612f79565b60208201915061301d8284612aee565b915081905095945050505050565b60006130378284612aee565b915081905092915050565b600061304e8284612b1f565b915081905092915050565b600060208201905061306e6000830184612860565b92915050565b60006040820190506130896000830185612842565b6130966020830184612860565b9392505050565b60006060820190506130b26000830186612842565b6130bf6020830185612860565b6130cc6040830184612f6a565b949350505050565b60006040820190506130e96000830185612860565b6130f66020830184612f6a565b9392505050565b6000602082019050818103600083015261311781846128fb565b905092915050565b6000602082019050613134600083018461298e565b92915050565b6000602082019050818103600083015261315481846129b4565b905092915050565b6000606082019050818103600083015261317681866129b4565b9050818103602083015261318a81856129b4565b9050613199604083018461297f565b949350505050565b600060408201905081810360008301526131bb81856129b4565b905081810360208301526131cf81846129ed565b90509392505050565b600060208201905081810360008301526131f28184612ab5565b905092915050565b600060408201905081810360008301526132148185612ab5565b905081810360208301526132288184612ab5565b90509392505050565b6000604082019050818103600083015261324b8185612ab5565b905061325a6020830184612f6a565b9392505050565b6000606082019050818103600083015261327b8186612ab5565b905061328a6020830185612f6a565b6132976040830184612860565b949350505050565b600060208201905081810360008301526132b881612bad565b9050919050565b600060208201905081810360008301526132d881612c13565b9050919050565b600060208201905081810360008301526132f881612c9f565b9050919050565b6000602082019050818103600083015261331881612cdf565b9050919050565b6000602082019050818103600083015261333881612d45565b9050919050565b6000602082019050818103600083015261335881612dab565b9050919050565b600060208201905081810360008301526133798184612ea1565b905092915050565b6000602082019050818103600083015261339b8184612f0b565b905092915050565b60006020820190506133b86000830184612f6a565b92915050565b60006020820190506133d36000830184612f90565b92915050565b6000604051905081810181811067ffffffffffffffff821117156133fc57600080fd5b8060405250919050565b600067ffffffffffffffff82111561341d57600080fd5b602082029050602081019050919050565b600067ffffffffffffffff82111561344557600080fd5b602082029050602081019050919050565b600067ffffffffffffffff82111561346d57600080fd5b601f19601f8301169050602081019050919050565b600067ffffffffffffffff82111561349957600080fd5b601f19601f8301169050602081019050919050565b6000819050602082019050919050565b60008190508160005260206000209050919050565b60008190508160005260206000209050919050565b600081519050919050565b600081519050919050565b600081519050919050565b6000602082019050919050565b600082825260208201905092915050565b600082825260208201905092915050565b600082825260208201905092915050565b600082825260208201905092915050565b600082825260208201905092915050565b600081905092915050565b60006135818261359e565b9050919050565b60008115159050919050565b6000819050919050565b600073ffffffffffffffffffffffffffffffffffffffff82169050919050565b6000819050919050565b600063ffffffff82169050919050565b600067ffffffffffffffff82169050919050565b60006135f7826135fe565b9050919050565b600061360982613610565b9050919050565b600061361b8261359e565b9050919050565b82818337600083830152505050565b60005b8381101561364f578082015181840152602081019050613634565b8381111561365e576000848401525b50505050565b600061366f82613680565b9050919050565b6000819050919050565b600061368b826136ad565b9050919050565b6000819050919050565b6000601f19601f8301169050919050565b60008160601b9050919050565b6136c381613576565b81146136ce57600080fd5b50565b6136da81613588565b81146136e557600080fd5b50565b6136f181613594565b81146136fc57600080fd5b50565b613708816135be565b811461371357600080fd5b50565b61371f816135c8565b811461372a57600080fd5b5056fea26469706673582212205184cd9e96758fe7c3daa9c8cc4392ede45576331b31f2b79044105093bc78cd64736f6c634300060c0033",
  "immutableReferences": {},
  "source": "// SPDX-License-Identifier: MIT\n// Bridge between ethereum and verus\n\npragma solidity >=0.6.0 <0.7.0;\npragma experimental ABIEncoderV2;\n\nimport \"../../node_modules/openzeppelin-solidity/contracts/access/Ownable.sol\";\nimport \"./TokenManager.sol\";\nimport \"../MMR/MMRProof.sol\";\nimport \"../VerusNotarizer/VerusNotarizer.sol\";\nimport { Memory } from \"../Standard/Memory.sol\";\nimport \"./Token.sol\";\n\ncontract VerusBridge {\n \n    //list of erc20 tokens that can be accessed,\n    //the contract must be able to mint and burn coins on the contract\n    //defines the tokenManager which creates the erc20\n    TokenManager tokenManager;\n    VerusNotarizer verusNotarizer;\n    MMRProof mmrProof;\n\n    uint256 feesHeld = 0;\n    uint256 ethHeld = 0;\n\n    bytes verusKey = \"VerusDefaultHash\";\n    uint64 transactionsPerCall = 10;\n    string VRSCEthTokenName = \".eth.\";\n    uint256 transactionFee = 100000000000000; //0.0001 eth\n\n\n    //pending transactions array\n    struct BridgeTransaction {\n        address ethAddress;\n        string RAddress;\n        string tokenName;\n        uint256 tokenAmount;\n    }\n\n    struct CompletedTransaction{\n        uint256 blockNumber;\n        BridgeTransaction[] includedTransactions;\n        bool completed;\n    }\n\n    BridgeTransaction[] private pendingOutboundTransactions;\n    BridgeTransaction[][] private readyOutboundTransactions;\n    //to allow for a singe proof for a block of transactions we generate a hash of the transactions in a block\n    //that can then be retrieved and used as a single proof of the transactions\n    bytes32[] private readyOutboundTransactionsHashes;\n\n    mapping (bytes32 => CompletedTransaction) private completedInboundTransactions;\n    event ReceivedFromVerus(BridgeTransaction transaction);\n    event TransactionsReady(uint256 index);\n    \n    constructor(address notarizerAddress,address mmrAddress,address tokenManagerAddress) public {\n        mmrProof =  MMRProof(mmrAddress);\n        verusNotarizer = VerusNotarizer(notarizerAddress);\n        tokenManager = TokenManager(tokenManagerAddress);\n        //initialise the hash array\n        readyOutboundTransactionsHashes.push(0x00);\n        \n    }\n\n    function getEthHeld() public view returns(uint256){\n        return ethHeld;\n    }\n\n    function getFeesHeld() public view returns(uint256){\n        return feesHeld;\n    }\n\n    function getTransactionsPerCall() public view returns(uint64){\n        return transactionsPerCall;\n    }\n\n    function sendEth(uint256 _ethAmount,address payable _ethAddress) private {\n        //do we take fees here????\n        require(_ethAmount >= address(this).balance,\"Requested amount exceeds contract balance\");\n        _ethAddress.transfer(_ethAmount);\n    }\n\n    function receiveFromVerusChain(BridgeTransaction[] memory _newTransactions, uint32 _hashIndex, bytes32[] memory _transactionsProof, uint32 _blockHeight) public returns(bytes32){   \n        //check the transaction has not already been processed\n        bytes32 newTransactionHash = createTransactionsHash(_newTransactions);\n        require(!completedInboundTransactions[newTransactionHash].completed ,\"Transactions have been already processed\");\n        //check the transaction is in the mmr contains the relevant hash\n        //require(confirmTransactionInMMR(_newTransactions,_hashIndex,_transactionsProof,_blockHeight) == true,\"Transactions are not in the MMR root hash\");\n        \n        //loop through the transactions and execute\n        for(uint i = 0; i < _newTransactions.length; i++){\n            if(keccak256(abi.encodePacked(_newTransactions[i].tokenName)) == keccak256(abi.encodePacked(VRSCEthTokenName))) {\n                sendEth(_newTransactions[i].tokenAmount,payable(_newTransactions[i].ethAddress));\n                ethHeld -= _newTransactions[i].tokenAmount;\n            } else {\n                tokenManager.sendERC20Tokens(_newTransactions[i].tokenName,_newTransactions[i].tokenAmount,_newTransactions[i].ethAddress);\n            }\n            \n            //create an array in storage of transactions as memory cant be added to a storage array\n            completedInboundTransactions[newTransactionHash].blockNumber = block.number;\n            completedInboundTransactions[newTransactionHash].includedTransactions.push(_newTransactions[i]);\n            emit ReceivedFromVerus(_newTransactions[i]);\n        }\n\n        return newTransactionHash;\n        \n    }\n\n    function sendEthToVerus(string memory _RAddress) public payable returns(uint256){\n        //calculate amount of eth to send\n        require(msg.value > transactionFee,\"Ethereum must be sent with the transaction to be sent to the Verus Chain\");\n        uint256 amount = msg.value - transactionFee;\n        ethHeld += amount;\n        feesHeld += transactionFee;\n        _addOutboundTransaction(VRSCEthTokenName,amount,_RAddress);\n        return amount;\n    }\n\n    function sendERC20ToVerus(string memory _tokenName, uint256 _tokenAmount, string memory _RAddress) public payable {\n        require(msg.value >= transactionFee,\"Please send the appropriate transacion fee.\");\n        require(keccak256(abi.encodePacked(_tokenName)) != keccak256(abi.encodePacked(VRSCEthTokenName)),\"To send eth use sendEthToVerus\");\n        feesHeld += msg.value;\n        //claim fees\n        _sendToVerus(_tokenName,_tokenAmount,_RAddress);\n    }\n\n    function _sendToVerus(string memory _tokenName, uint256 _tokenAmount, string memory _RAddress) private {\n        //if the tokens have been approved for VerusBridge, approve the tokenManager contract to transfer them over\n        address tokenAddress = tokenManager.getTokenAddress(_tokenName);\n        Token token = Token(tokenAddress);\n        uint256 allowedTokens = token.allowance(msg.sender,address(this));\n        require( allowedTokens >= _tokenAmount,\"This contract must have an allowance of greater than or equal to the number of tokens\");\n        //transfer the tokens to this contract\n        token.transferFrom(msg.sender,address(this),_tokenAmount); \n        token.approve(address(tokenManager),_tokenAmount);  \n        //give an approval for the tokenmanagerinstance to spend the tokens\n        tokenManager.receiveERC20Tokens(_tokenName,_tokenAmount);\n        pendingOutboundTransactions.push(BridgeTransaction(address(0),_RAddress,_tokenName,_tokenAmount));\n        //create a hash of the transaction values and add that to the last value \n        //of the readyOutboundTransactionsHashes;\n        _addOutboundTransaction(_tokenName,_tokenAmount,_RAddress);\n    }\n\n    function _addOutboundTransaction(string memory _tokenName,uint256 _tokenAmount,string memory _RAddress) private {\n        readyOutboundTransactionsHashes[readyOutboundTransactionsHashes.length - 1] = \n            keccak256(abi.encodePacked(readyOutboundTransactionsHashes[readyOutboundTransactionsHashes.length - 1],_tokenName,_tokenAmount,_RAddress));\n        if(pendingOutboundTransactions.length >= transactionsPerCall){\n            //move the array to readyOutboundTransactions\n            readyOutboundTransactions.push(pendingOutboundTransactions);\n            readyOutboundTransactionsHashes.push(0x00);\n            delete pendingOutboundTransactions;\n            emit TransactionsReady(readyOutboundTransactions.length - 1);\n        }\n    }\n\n    function testKeccak(string memory _tokenName, uint256 _tokenAmount, string memory _targetAddress) public view returns(bytes memory){\n        //return keccak256(abi.encodePacked(readyOutboundTransactionsHashes[readyOutboundTransactionsHashes.length - 1],_tokenName,_tokenAmount,_targetAddress));\n        return abi.encodePacked(readyOutboundTransactionsHashes[readyOutboundTransactionsHashes.length - 1],_tokenName,_tokenAmount,_targetAddress);\n    \n    }\n    /**\n    returns a list of transactions to be processed on the verus chain\n    */\n    \n    function outboundTransactionsIndex() public view returns(uint){\n        return readyOutboundTransactions.length;\n    }\n\n    function getTransactionsHash(uint _tIndex) public view returns(bytes32){\n        return readyOutboundTransactionsHashes[_tIndex];\n    }\n\n    function getTransactionsToProcess(uint _tIndex) public view returns(BridgeTransaction[] memory){\n        return readyOutboundTransactions[_tIndex];\n    }\n\n    function getPendingOutboundTransactions() public view returns(BridgeTransaction[] memory){\n        return pendingOutboundTransactions;\n    }\n\n    function getCompletedInboundTransaction(bytes32 transactionHash) public view returns(CompletedTransaction memory){\n        return completedInboundTransactions[transactionHash];\n    }\n\n    /**\n    deploy a new token\n     */\n    function createToken(string memory verusAddress,string memory ticker) public returns(address){\n        return tokenManager.deployNewToken(verusAddress,ticker);\n    }\n\n\n    function confirmTransactionInMMR(BridgeTransaction[] memory _newTransactions, \n        uint32 _hashIndex,\n        bytes32[] memory _transactionsProof,\n        uint32 _blockHeight) private returns(bool){\n        \n        //loop through the transactions and create a hash of the list\n        bytes32 hashedTransactions = createTransactionsHash(_newTransactions);\n        //get the mmrRoot relating to the blockheight from the notarized data\n        VerusNotarizer.NotarizedData memory verusNotarizedData = verusNotarizer.getNotarizedData(_blockHeight);\n        bytes32 mmrRootHash = bytes32(verusNotarizedData.mmrRoot);\n        //check the proof and return the result\n        if (mmrRootHash == mmrProof.predictedRootHash(hashedTransactions,_hashIndex,_transactionsProof)) return true;\n        else return false;\n    }\n\n    function createTransactionsHash(BridgeTransaction[] memory _newTransactions) public returns(bytes32){\n        bytes memory serializedTransactions = serializeTransactions(_newTransactions);\n        bytes32 hashedTransactions = mmrProof.createHash(serializedTransactions,verusKey);\n        return hashedTransactions;\n    }\n    \n    function serializeTransactions(BridgeTransaction[] memory _newTransactions) public pure returns(bytes memory){\n        bytes memory serializedTransactions;\n        bytes memory serializedTransaction;\n        for(uint i = 0; i < _newTransactions.length; i++){\n            serializedTransaction = serializeTransaction(_newTransactions[i]);\n            if(serializedTransactions.length > 0) serializedTransactions = concat(serializedTransaction,serializedTransaction);\n            else serializedTransactions = serializedTransaction;\n        }\n        return serializedTransactions;\n    }\n\n    function mmrHash(bytes memory toHash,bytes memory hashKey) public returns(bytes32){\n        bytes32 generatedHash = mmrProof.createHash(toHash,hashKey,false);\n        return generatedHash;\n    }\n\n    function serializeTransaction(BridgeTransaction memory _sendTransaction) public pure returns(bytes memory){\n        bytes memory serializedTransaction = abi.encodePacked(_sendTransaction.ethAddress,_sendTransaction.RAddress,_sendTransaction.tokenName,_sendTransaction.tokenAmount);\n        return serializedTransaction;\n    }\n\n    function getTokenAddress(string memory tokenName) public view returns(address){\n        return tokenManager.getTokenAddress(tokenName);\n    }\n\n    function getTokenName(address tokenAddress) public view returns(string memory){\n        return tokenManager.getTokenName(tokenAddress);\n    }\n    \n\n\n    /** bytes concat helper function */\n    function concat(bytes memory self, bytes memory other) public pure returns (bytes memory) {\n        bytes memory ret = new bytes(self.length + other.length);\n        \n        (uint256 src, uint256 srcLen) = Memory.fromBytes(self);\n        (uint256 src2, uint256 src2Len) = Memory.fromBytes(other);\n        (uint256 dest,) = Memory.fromBytes(ret);\n        uint256 dest2 = dest + src2Len;\n        Memory.copy(src, dest, srcLen);\n        Memory.copy(src2, dest2, src2Len);\n     return ret;\n    }\n\n}\n",
  "sourcePath": "/Volumes/UsersSSD/james/Development/komodo-notarisation-solidity/contracts/VerusBridge/VerusBridge.sol",
  "compiler": {
    "name": "solc",
    "version": "0.6.12+commit.27d51765.Emscripten.clang"
  },
  "schemaVersion": "3.3.0",
  "updatedAt": "2020-11-04T11:32:03.729Z",
  "devdoc": {
    "kind": "dev",
    "methods": {},
    "version": 1
  },
  "userdoc": {
    "kind": "user",
    "methods": {
      "concat(bytes,bytes)": {
        "notice": "bytes concat helper function "
      },
      "createToken(string,string)": {
        "notice": "deploy a new token"
      },
      "outboundTransactionsIndex()": {
        "notice": "returns a list of transactions to be processed on the verus chain"
      }
    },
    "version": 1
  }
}