{
  "contractName": "VerusBridge",
  "abi": [
    {
      "inputs": [
        {
          "internalType": "address",
          "name": "verusProofAddress",
          "type": "address"
        },
        {
          "internalType": "address",
          "name": "tokenManagerAddress",
          "type": "address"
        },
        {
          "internalType": "address",
          "name": "verusSerializerAddress",
          "type": "address"
        },
        {
          "internalType": "address",
          "name": "verusNotarizerAddress",
          "type": "address"
        },
        {
          "internalType": "address",
          "name": "verusCCEAddress",
          "type": "address"
        },
        {
          "internalType": "uint256",
          "name": "_poolSize",
          "type": "uint256"
        }
      ],
      "stateMutability": "nonpayable",
      "type": "constructor"
    },
    {
      "anonymous": false,
      "inputs": [
        {
          "indexed": false,
          "internalType": "address",
          "name": "newAddress",
          "type": "address"
        }
      ],
      "name": "Deprecate",
      "type": "event"
    },
    {
      "inputs": [
        {
          "internalType": "uint256",
          "name": "",
          "type": "uint256"
        }
      ],
      "name": "SerializedCCEs",
      "outputs": [
        {
          "internalType": "bytes",
          "name": "",
          "type": "bytes"
        }
      ],
      "stateMutability": "view",
      "type": "function"
    },
    {
      "inputs": [
        {
          "internalType": "uint256",
          "name": "",
          "type": "uint256"
        }
      ],
      "name": "SerializedCRTs",
      "outputs": [
        {
          "internalType": "bytes",
          "name": "",
          "type": "bytes"
        }
      ],
      "stateMutability": "view",
      "type": "function"
    },
    {
      "inputs": [
        {
          "internalType": "uint256",
          "name": "",
          "type": "uint256"
        },
        {
          "internalType": "uint256",
          "name": "",
          "type": "uint256"
        }
      ],
      "name": "_readyExports",
      "outputs": [
        {
          "internalType": "uint32",
          "name": "version",
          "type": "uint32"
        },
        {
          "components": [
            {
              "internalType": "address",
              "name": "currency",
              "type": "address"
            },
            {
              "internalType": "uint64",
              "name": "amount",
              "type": "uint64"
            }
          ],
          "internalType": "struct VerusObjects.CCurrencyValueMap",
          "name": "currencyvalue",
          "type": "tuple"
        },
        {
          "internalType": "uint32",
          "name": "flags",
          "type": "uint32"
        },
        {
          "internalType": "address",
          "name": "feecurrencyid",
          "type": "address"
        },
        {
          "internalType": "uint256",
          "name": "fees",
          "type": "uint256"
        },
        {
          "components": [
            {
              "internalType": "uint8",
              "name": "destinationtype",
              "type": "uint8"
            },
            {
              "internalType": "address",
              "name": "destinationaddress",
              "type": "address"
            }
          ],
          "internalType": "struct VerusObjectsCommon.CTransferDestination",
          "name": "destination",
          "type": "tuple"
        },
        {
          "internalType": "address",
          "name": "destcurrencyid",
          "type": "address"
        },
        {
          "internalType": "address",
          "name": "destsystemid",
          "type": "address"
        },
        {
          "internalType": "address",
          "name": "secondreserveid",
          "type": "address"
        }
      ],
      "stateMutability": "view",
      "type": "function"
    },
    {
      "inputs": [
        {
          "internalType": "address",
          "name": "",
          "type": "address"
        }
      ],
      "name": "claimableFees",
      "outputs": [
        {
          "internalType": "uint256",
          "name": "",
          "type": "uint256"
        }
      ],
      "stateMutability": "view",
      "type": "function"
    },
    {
      "inputs": [],
      "name": "deprecated",
      "outputs": [
        {
          "internalType": "bool",
          "name": "",
          "type": "bool"
        }
      ],
      "stateMutability": "view",
      "type": "function"
    },
    {
      "inputs": [],
      "name": "ethHeld",
      "outputs": [
        {
          "internalType": "uint256",
          "name": "",
          "type": "uint256"
        }
      ],
      "stateMutability": "view",
      "type": "function"
    },
    {
      "inputs": [],
      "name": "feesHeld",
      "outputs": [
        {
          "internalType": "uint256",
          "name": "",
          "type": "uint256"
        }
      ],
      "stateMutability": "view",
      "type": "function"
    },
    {
      "inputs": [],
      "name": "firstBlock",
      "outputs": [
        {
          "internalType": "uint256",
          "name": "",
          "type": "uint256"
        }
      ],
      "stateMutability": "view",
      "type": "function"
    },
    {
      "inputs": [
        {
          "internalType": "uint256",
          "name": "",
          "type": "uint256"
        }
      ],
      "name": "hashedCRTs",
      "outputs": [
        {
          "internalType": "bytes32",
          "name": "",
          "type": "bytes32"
        }
      ],
      "stateMutability": "view",
      "type": "function"
    },
    {
      "inputs": [],
      "name": "lastTxidimport",
      "outputs": [
        {
          "internalType": "uint256",
          "name": "",
          "type": "uint256"
        }
      ],
      "stateMutability": "view",
      "type": "function"
    },
    {
      "inputs": [],
      "name": "lastimport",
      "outputs": [
        {
          "internalType": "uint256",
          "name": "height",
          "type": "uint256"
        },
        {
          "internalType": "bytes32",
          "name": "txid",
          "type": "bytes32"
        }
      ],
      "stateMutability": "view",
      "type": "function"
    },
    {
      "inputs": [],
      "name": "poolSize",
      "outputs": [
        {
          "internalType": "uint256",
          "name": "",
          "type": "uint256"
        }
      ],
      "stateMutability": "view",
      "type": "function"
    },
    {
      "inputs": [
        {
          "internalType": "bytes32",
          "name": "",
          "type": "bytes32"
        }
      ],
      "name": "processedTxids",
      "outputs": [
        {
          "internalType": "bool",
          "name": "",
          "type": "bool"
        }
      ],
      "stateMutability": "view",
      "type": "function"
    },
    {
      "inputs": [
        {
          "internalType": "uint256",
          "name": "",
          "type": "uint256"
        }
      ],
      "name": "readyExportHashes",
      "outputs": [
        {
          "internalType": "bytes32",
          "name": "",
          "type": "bytes32"
        }
      ],
      "stateMutability": "view",
      "type": "function"
    },
    {
      "inputs": [
        {
          "internalType": "uint256",
          "name": "",
          "type": "uint256"
        }
      ],
      "name": "readyExportsByBlock",
      "outputs": [
        {
          "internalType": "uint256",
          "name": "index",
          "type": "uint256"
        },
        {
          "internalType": "bool",
          "name": "created",
          "type": "bool"
        }
      ],
      "stateMutability": "view",
      "type": "function"
    },
    {
      "inputs": [],
      "name": "upgradedAddress",
      "outputs": [
        {
          "internalType": "address",
          "name": "",
          "type": "address"
        }
      ],
      "stateMutability": "view",
      "type": "function"
    },
    {
      "inputs": [
        {
          "internalType": "uint256",
          "name": "a",
          "type": "uint256"
        },
        {
          "internalType": "uint8",
          "name": "decimals",
          "type": "uint8"
        }
      ],
      "name": "convertFromVerusNumber",
      "outputs": [
        {
          "internalType": "uint256",
          "name": "",
          "type": "uint256"
        }
      ],
      "stateMutability": "pure",
      "type": "function"
    },
    {
      "inputs": [
        {
          "internalType": "uint256",
          "name": "a",
          "type": "uint256"
        },
        {
          "internalType": "uint8",
          "name": "decimals",
          "type": "uint8"
        }
      ],
      "name": "convertToVerusNumber",
      "outputs": [
        {
          "internalType": "uint256",
          "name": "",
          "type": "uint256"
        }
      ],
      "stateMutability": "pure",
      "type": "function"
    },
    {
      "inputs": [
        {
          "components": [
            {
              "internalType": "uint32",
              "name": "version",
              "type": "uint32"
            },
            {
              "components": [
                {
                  "internalType": "address",
                  "name": "currency",
                  "type": "address"
                },
                {
                  "internalType": "uint64",
                  "name": "amount",
                  "type": "uint64"
                }
              ],
              "internalType": "struct VerusObjects.CCurrencyValueMap",
              "name": "currencyvalue",
              "type": "tuple"
            },
            {
              "internalType": "uint32",
              "name": "flags",
              "type": "uint32"
            },
            {
              "internalType": "address",
              "name": "feecurrencyid",
              "type": "address"
            },
            {
              "internalType": "uint256",
              "name": "fees",
              "type": "uint256"
            },
            {
              "components": [
                {
                  "internalType": "uint8",
                  "name": "destinationtype",
                  "type": "uint8"
                },
                {
                  "internalType": "address",
                  "name": "destinationaddress",
                  "type": "address"
                }
              ],
              "internalType": "struct VerusObjectsCommon.CTransferDestination",
              "name": "destination",
              "type": "tuple"
            },
            {
              "internalType": "address",
              "name": "destcurrencyid",
              "type": "address"
            },
            {
              "internalType": "address",
              "name": "destsystemid",
              "type": "address"
            },
            {
              "internalType": "address",
              "name": "secondreserveid",
              "type": "address"
            }
          ],
          "internalType": "struct VerusObjects.CReserveTransfer",
          "name": "transfer",
          "type": "tuple"
        }
      ],
      "name": "export",
      "outputs": [],
      "stateMutability": "payable",
      "type": "function"
    },
    {
      "inputs": [],
      "name": "getlastimportheight",
      "outputs": [
        {
          "internalType": "uint256",
          "name": "",
          "type": "uint256"
        }
      ],
      "stateMutability": "view",
      "type": "function"
    },
    {
      "inputs": [
        {
          "internalType": "bytes32[]",
          "name": "_imports",
          "type": "bytes32[]"
        }
      ],
      "name": "checkImports",
      "outputs": [
        {
          "internalType": "bytes32[]",
          "name": "",
          "type": "bytes32[]"
        }
      ],
      "stateMutability": "view",
      "type": "function"
    },
    {
      "inputs": [
        {
          "components": [
            {
              "internalType": "uint256",
              "name": "height",
              "type": "uint256"
            },
            {
              "internalType": "bytes32",
              "name": "txid",
              "type": "bytes32"
            },
            {
              "internalType": "uint256",
              "name": "txoutnum",
              "type": "uint256"
            },
            {
              "components": [
                {
                  "internalType": "uint16",
                  "name": "version",
                  "type": "uint16"
                },
                {
                  "internalType": "uint16",
                  "name": "flags",
                  "type": "uint16"
                },
                {
                  "internalType": "address",
                  "name": "sourcesystemid",
                  "type": "address"
                },
                {
                  "internalType": "uint32",
                  "name": "sourceheightstart",
                  "type": "uint32"
                },
                {
                  "internalType": "uint32",
                  "name": "sourceheightend",
                  "type": "uint32"
                },
                {
                  "internalType": "address",
                  "name": "destinationsystemid",
                  "type": "address"
                },
                {
                  "internalType": "address",
                  "name": "destinationcurrencyid",
                  "type": "address"
                },
                {
                  "internalType": "uint32",
                  "name": "numinputs",
                  "type": "uint32"
                },
                {
                  "components": [
                    {
                      "internalType": "address",
                      "name": "currency",
                      "type": "address"
                    },
                    {
                      "internalType": "uint64",
                      "name": "amount",
                      "type": "uint64"
                    }
                  ],
                  "internalType": "struct VerusObjects.CCurrencyValueMap[]",
                  "name": "totalamounts",
                  "type": "tuple[]"
                },
                {
                  "components": [
                    {
                      "internalType": "address",
                      "name": "currency",
                      "type": "address"
                    },
                    {
                      "internalType": "uint64",
                      "name": "amount",
                      "type": "uint64"
                    }
                  ],
                  "internalType": "struct VerusObjects.CCurrencyValueMap[]",
                  "name": "totalfees",
                  "type": "tuple[]"
                },
                {
                  "internalType": "bytes32",
                  "name": "hashtransfers",
                  "type": "bytes32"
                },
                {
                  "components": [
                    {
                      "internalType": "address",
                      "name": "currency",
                      "type": "address"
                    },
                    {
                      "internalType": "uint64",
                      "name": "amount",
                      "type": "uint64"
                    }
                  ],
                  "internalType": "struct VerusObjects.CCurrencyValueMap[]",
                  "name": "totalburned",
                  "type": "tuple[]"
                },
                {
                  "components": [
                    {
                      "internalType": "uint8",
                      "name": "destinationtype",
                      "type": "uint8"
                    },
                    {
                      "internalType": "address",
                      "name": "destinationaddress",
                      "type": "address"
                    }
                  ],
                  "internalType": "struct VerusObjectsCommon.CTransferDestination",
                  "name": "rewardaddress",
                  "type": "tuple"
                },
                {
                  "internalType": "int32",
                  "name": "firstinput",
                  "type": "int32"
                }
              ],
              "internalType": "struct VerusObjects.CCrossChainExport",
              "name": "exportinfo",
              "type": "tuple"
            },
            {
              "components": [
                {
                  "internalType": "uint8",
                  "name": "version",
                  "type": "uint8"
                },
                {
                  "internalType": "uint8",
                  "name": "typeC",
                  "type": "uint8"
                },
                {
                  "components": [
                    {
                      "internalType": "uint8",
                      "name": "branchType",
                      "type": "uint8"
                    },
                    {
                      "components": [
                        {
                          "internalType": "uint8",
                          "name": "CMerkleBranchBase",
                          "type": "uint8"
                        },
                        {
                          "internalType": "uint32",
                          "name": "nIndex",
                          "type": "uint32"
                        },
                        {
                          "internalType": "uint32",
                          "name": "nSize",
                          "type": "uint32"
                        },
                        {
                          "internalType": "bytes32[]",
                          "name": "branch",
                          "type": "bytes32[]"
                        }
                      ],
                      "internalType": "struct VerusObjects.CMerkleBranch",
                      "name": "proofSequence",
                      "type": "tuple"
                    }
                  ],
                  "internalType": "struct VerusObjects.CTXProof[]",
                  "name": "txproof",
                  "type": "tuple[]"
                },
                {
                  "components": [
                    {
                      "internalType": "uint8",
                      "name": "elType",
                      "type": "uint8"
                    },
                    {
                      "internalType": "uint8",
                      "name": "elIdx",
                      "type": "uint8"
                    },
                    {
                      "internalType": "bytes",
                      "name": "elVchObj",
                      "type": "bytes"
                    },
                    {
                      "components": [
                        {
                          "internalType": "uint8",
                          "name": "branchType",
                          "type": "uint8"
                        },
                        {
                          "components": [
                            {
                              "internalType": "uint8",
                              "name": "CMerkleBranchBase",
                              "type": "uint8"
                            },
                            {
                              "internalType": "uint32",
                              "name": "nIndex",
                              "type": "uint32"
                            },
                            {
                              "internalType": "uint32",
                              "name": "nSize",
                              "type": "uint32"
                            },
                            {
                              "internalType": "bytes32[]",
                              "name": "branch",
                              "type": "bytes32[]"
                            }
                          ],
                          "internalType": "struct VerusObjects.CMerkleBranch",
                          "name": "proofSequence",
                          "type": "tuple"
                        }
                      ],
                      "internalType": "struct VerusObjects.CTXProof[]",
                      "name": "elProof",
                      "type": "tuple[]"
                    },
                    {
                      "internalType": "uint32",
                      "name": "VchObjIndex",
                      "type": "uint32"
                    }
                  ],
                  "internalType": "struct VerusObjects.CComponents[]",
                  "name": "components",
                  "type": "tuple[]"
                }
              ],
              "internalType": "struct VerusObjects.CPtransactionproof",
              "name": "partialtransactionproof",
              "type": "tuple"
            },
            {
              "components": [
                {
                  "internalType": "uint32",
                  "name": "version",
                  "type": "uint32"
                },
                {
                  "components": [
                    {
                      "internalType": "address",
                      "name": "currency",
                      "type": "address"
                    },
                    {
                      "internalType": "uint64",
                      "name": "amount",
                      "type": "uint64"
                    }
                  ],
                  "internalType": "struct VerusObjects.CCurrencyValueMap",
                  "name": "currencyvalue",
                  "type": "tuple"
                },
                {
                  "internalType": "uint32",
                  "name": "flags",
                  "type": "uint32"
                },
                {
                  "internalType": "address",
                  "name": "feecurrencyid",
                  "type": "address"
                },
                {
                  "internalType": "uint256",
                  "name": "fees",
                  "type": "uint256"
                },
                {
                  "components": [
                    {
                      "internalType": "uint8",
                      "name": "destinationtype",
                      "type": "uint8"
                    },
                    {
                      "internalType": "address",
                      "name": "destinationaddress",
                      "type": "address"
                    }
                  ],
                  "internalType": "struct VerusObjectsCommon.CTransferDestination",
                  "name": "destination",
                  "type": "tuple"
                },
                {
                  "internalType": "address",
                  "name": "destcurrencyid",
                  "type": "address"
                },
                {
                  "internalType": "address",
                  "name": "destsystemid",
                  "type": "address"
                },
                {
                  "internalType": "address",
                  "name": "secondreserveid",
                  "type": "address"
                }
              ],
              "internalType": "struct VerusObjects.CReserveTransfer[]",
              "name": "transfers",
              "type": "tuple[]"
            }
          ],
          "internalType": "struct VerusObjects.CReserveTransferImport[]",
          "name": "_imports",
          "type": "tuple[]"
        }
      ],
      "name": "submitImports",
      "outputs": [],
      "stateMutability": "nonpayable",
      "type": "function"
    },
    {
      "inputs": [
        {
          "components": [
            {
              "internalType": "uint256",
              "name": "height",
              "type": "uint256"
            },
            {
              "internalType": "bytes32",
              "name": "txid",
              "type": "bytes32"
            },
            {
              "internalType": "uint256",
              "name": "txoutnum",
              "type": "uint256"
            },
            {
              "components": [
                {
                  "internalType": "uint16",
                  "name": "version",
                  "type": "uint16"
                },
                {
                  "internalType": "uint16",
                  "name": "flags",
                  "type": "uint16"
                },
                {
                  "internalType": "address",
                  "name": "sourcesystemid",
                  "type": "address"
                },
                {
                  "internalType": "uint32",
                  "name": "sourceheightstart",
                  "type": "uint32"
                },
                {
                  "internalType": "uint32",
                  "name": "sourceheightend",
                  "type": "uint32"
                },
                {
                  "internalType": "address",
                  "name": "destinationsystemid",
                  "type": "address"
                },
                {
                  "internalType": "address",
                  "name": "destinationcurrencyid",
                  "type": "address"
                },
                {
                  "internalType": "uint32",
                  "name": "numinputs",
                  "type": "uint32"
                },
                {
                  "components": [
                    {
                      "internalType": "address",
                      "name": "currency",
                      "type": "address"
                    },
                    {
                      "internalType": "uint64",
                      "name": "amount",
                      "type": "uint64"
                    }
                  ],
                  "internalType": "struct VerusObjects.CCurrencyValueMap[]",
                  "name": "totalamounts",
                  "type": "tuple[]"
                },
                {
                  "components": [
                    {
                      "internalType": "address",
                      "name": "currency",
                      "type": "address"
                    },
                    {
                      "internalType": "uint64",
                      "name": "amount",
                      "type": "uint64"
                    }
                  ],
                  "internalType": "struct VerusObjects.CCurrencyValueMap[]",
                  "name": "totalfees",
                  "type": "tuple[]"
                },
                {
                  "internalType": "bytes32",
                  "name": "hashtransfers",
                  "type": "bytes32"
                },
                {
                  "components": [
                    {
                      "internalType": "address",
                      "name": "currency",
                      "type": "address"
                    },
                    {
                      "internalType": "uint64",
                      "name": "amount",
                      "type": "uint64"
                    }
                  ],
                  "internalType": "struct VerusObjects.CCurrencyValueMap[]",
                  "name": "totalburned",
                  "type": "tuple[]"
                },
                {
                  "components": [
                    {
                      "internalType": "uint8",
                      "name": "destinationtype",
                      "type": "uint8"
                    },
                    {
                      "internalType": "address",
                      "name": "destinationaddress",
                      "type": "address"
                    }
                  ],
                  "internalType": "struct VerusObjectsCommon.CTransferDestination",
                  "name": "rewardaddress",
                  "type": "tuple"
                },
                {
                  "internalType": "int32",
                  "name": "firstinput",
                  "type": "int32"
                }
              ],
              "internalType": "struct VerusObjects.CCrossChainExport",
              "name": "exportinfo",
              "type": "tuple"
            },
            {
              "components": [
                {
                  "internalType": "uint8",
                  "name": "version",
                  "type": "uint8"
                },
                {
                  "internalType": "uint8",
                  "name": "typeC",
                  "type": "uint8"
                },
                {
                  "components": [
                    {
                      "internalType": "uint8",
                      "name": "branchType",
                      "type": "uint8"
                    },
                    {
                      "components": [
                        {
                          "internalType": "uint8",
                          "name": "CMerkleBranchBase",
                          "type": "uint8"
                        },
                        {
                          "internalType": "uint32",
                          "name": "nIndex",
                          "type": "uint32"
                        },
                        {
                          "internalType": "uint32",
                          "name": "nSize",
                          "type": "uint32"
                        },
                        {
                          "internalType": "bytes32[]",
                          "name": "branch",
                          "type": "bytes32[]"
                        }
                      ],
                      "internalType": "struct VerusObjects.CMerkleBranch",
                      "name": "proofSequence",
                      "type": "tuple"
                    }
                  ],
                  "internalType": "struct VerusObjects.CTXProof[]",
                  "name": "txproof",
                  "type": "tuple[]"
                },
                {
                  "components": [
                    {
                      "internalType": "uint8",
                      "name": "elType",
                      "type": "uint8"
                    },
                    {
                      "internalType": "uint8",
                      "name": "elIdx",
                      "type": "uint8"
                    },
                    {
                      "internalType": "bytes",
                      "name": "elVchObj",
                      "type": "bytes"
                    },
                    {
                      "components": [
                        {
                          "internalType": "uint8",
                          "name": "branchType",
                          "type": "uint8"
                        },
                        {
                          "components": [
                            {
                              "internalType": "uint8",
                              "name": "CMerkleBranchBase",
                              "type": "uint8"
                            },
                            {
                              "internalType": "uint32",
                              "name": "nIndex",
                              "type": "uint32"
                            },
                            {
                              "internalType": "uint32",
                              "name": "nSize",
                              "type": "uint32"
                            },
                            {
                              "internalType": "bytes32[]",
                              "name": "branch",
                              "type": "bytes32[]"
                            }
                          ],
                          "internalType": "struct VerusObjects.CMerkleBranch",
                          "name": "proofSequence",
                          "type": "tuple"
                        }
                      ],
                      "internalType": "struct VerusObjects.CTXProof[]",
                      "name": "elProof",
                      "type": "tuple[]"
                    },
                    {
                      "internalType": "uint32",
                      "name": "VchObjIndex",
                      "type": "uint32"
                    }
                  ],
                  "internalType": "struct VerusObjects.CComponents[]",
                  "name": "components",
                  "type": "tuple[]"
                }
              ],
              "internalType": "struct VerusObjects.CPtransactionproof",
              "name": "partialtransactionproof",
              "type": "tuple"
            },
            {
              "components": [
                {
                  "internalType": "uint32",
                  "name": "version",
                  "type": "uint32"
                },
                {
                  "components": [
                    {
                      "internalType": "address",
                      "name": "currency",
                      "type": "address"
                    },
                    {
                      "internalType": "uint64",
                      "name": "amount",
                      "type": "uint64"
                    }
                  ],
                  "internalType": "struct VerusObjects.CCurrencyValueMap",
                  "name": "currencyvalue",
                  "type": "tuple"
                },
                {
                  "internalType": "uint32",
                  "name": "flags",
                  "type": "uint32"
                },
                {
                  "internalType": "address",
                  "name": "feecurrencyid",
                  "type": "address"
                },
                {
                  "internalType": "uint256",
                  "name": "fees",
                  "type": "uint256"
                },
                {
                  "components": [
                    {
                      "internalType": "uint8",
                      "name": "destinationtype",
                      "type": "uint8"
                    },
                    {
                      "internalType": "address",
                      "name": "destinationaddress",
                      "type": "address"
                    }
                  ],
                  "internalType": "struct VerusObjectsCommon.CTransferDestination",
                  "name": "destination",
                  "type": "tuple"
                },
                {
                  "internalType": "address",
                  "name": "destcurrencyid",
                  "type": "address"
                },
                {
                  "internalType": "address",
                  "name": "destsystemid",
                  "type": "address"
                },
                {
                  "internalType": "address",
                  "name": "secondreserveid",
                  "type": "address"
                }
              ],
              "internalType": "struct VerusObjects.CReserveTransfer[]",
              "name": "transfers",
              "type": "tuple[]"
            }
          ],
          "internalType": "struct VerusObjects.CReserveTransferImport",
          "name": "_import",
          "type": "tuple"
        }
      ],
      "name": "_createImports",
      "outputs": [
        {
          "internalType": "bool",
          "name": "",
          "type": "bool"
        }
      ],
      "stateMutability": "nonpayable",
      "type": "function"
    },
    {
      "inputs": [
        {
          "internalType": "uint256",
          "name": "_blockNumber",
          "type": "uint256"
        }
      ],
      "name": "getReadyExportsByBlock",
      "outputs": [
        {
          "components": [
            {
              "internalType": "uint256",
              "name": "position",
              "type": "uint256"
            },
            {
              "internalType": "uint256",
              "name": "blockHeight",
              "type": "uint256"
            },
            {
              "internalType": "bytes32",
              "name": "exportHash",
              "type": "bytes32"
            },
            {
              "components": [
                {
                  "internalType": "uint32",
                  "name": "version",
                  "type": "uint32"
                },
                {
                  "components": [
                    {
                      "internalType": "address",
                      "name": "currency",
                      "type": "address"
                    },
                    {
                      "internalType": "uint64",
                      "name": "amount",
                      "type": "uint64"
                    }
                  ],
                  "internalType": "struct VerusObjects.CCurrencyValueMap",
                  "name": "currencyvalue",
                  "type": "tuple"
                },
                {
                  "internalType": "uint32",
                  "name": "flags",
                  "type": "uint32"
                },
                {
                  "internalType": "address",
                  "name": "feecurrencyid",
                  "type": "address"
                },
                {
                  "internalType": "uint256",
                  "name": "fees",
                  "type": "uint256"
                },
                {
                  "components": [
                    {
                      "internalType": "uint8",
                      "name": "destinationtype",
                      "type": "uint8"
                    },
                    {
                      "internalType": "address",
                      "name": "destinationaddress",
                      "type": "address"
                    }
                  ],
                  "internalType": "struct VerusObjectsCommon.CTransferDestination",
                  "name": "destination",
                  "type": "tuple"
                },
                {
                  "internalType": "address",
                  "name": "destcurrencyid",
                  "type": "address"
                },
                {
                  "internalType": "address",
                  "name": "destsystemid",
                  "type": "address"
                },
                {
                  "internalType": "address",
                  "name": "secondreserveid",
                  "type": "address"
                }
              ],
              "internalType": "struct VerusObjects.CReserveTransfer[]",
              "name": "transfers",
              "type": "tuple[]"
            }
          ],
          "internalType": "struct VerusObjects.CReserveTransferSet",
          "name": "",
          "type": "tuple"
        }
      ],
      "stateMutability": "view",
      "type": "function"
    },
    {
      "inputs": [
        {
          "internalType": "uint256",
          "name": "_startBlock",
          "type": "uint256"
        },
        {
          "internalType": "uint256",
          "name": "_endBlock",
          "type": "uint256"
        }
      ],
      "name": "getReadyExportsByRange",
      "outputs": [
        {
          "components": [
            {
              "internalType": "uint256",
              "name": "position",
              "type": "uint256"
            },
            {
              "internalType": "uint256",
              "name": "blockHeight",
              "type": "uint256"
            },
            {
              "internalType": "bytes32",
              "name": "exportHash",
              "type": "bytes32"
            },
            {
              "components": [
                {
                  "internalType": "uint32",
                  "name": "version",
                  "type": "uint32"
                },
                {
                  "components": [
                    {
                      "internalType": "address",
                      "name": "currency",
                      "type": "address"
                    },
                    {
                      "internalType": "uint64",
                      "name": "amount",
                      "type": "uint64"
                    }
                  ],
                  "internalType": "struct VerusObjects.CCurrencyValueMap",
                  "name": "currencyvalue",
                  "type": "tuple"
                },
                {
                  "internalType": "uint32",
                  "name": "flags",
                  "type": "uint32"
                },
                {
                  "internalType": "address",
                  "name": "feecurrencyid",
                  "type": "address"
                },
                {
                  "internalType": "uint256",
                  "name": "fees",
                  "type": "uint256"
                },
                {
                  "components": [
                    {
                      "internalType": "uint8",
                      "name": "destinationtype",
                      "type": "uint8"
                    },
                    {
                      "internalType": "address",
                      "name": "destinationaddress",
                      "type": "address"
                    }
                  ],
                  "internalType": "struct VerusObjectsCommon.CTransferDestination",
                  "name": "destination",
                  "type": "tuple"
                },
                {
                  "internalType": "address",
                  "name": "destcurrencyid",
                  "type": "address"
                },
                {
                  "internalType": "address",
                  "name": "destsystemid",
                  "type": "address"
                },
                {
                  "internalType": "address",
                  "name": "secondreserveid",
                  "type": "address"
                }
              ],
              "internalType": "struct VerusObjects.CReserveTransfer[]",
              "name": "transfers",
              "type": "tuple[]"
            }
          ],
          "internalType": "struct VerusObjects.CReserveTransferSet[]",
          "name": "",
          "type": "tuple[]"
        }
      ],
      "stateMutability": "view",
      "type": "function"
    },
    {
      "inputs": [],
      "name": "claimFees",
      "outputs": [
        {
          "internalType": "uint256",
          "name": "",
          "type": "uint256"
        }
      ],
      "stateMutability": "nonpayable",
      "type": "function"
    }
  ],
  "bytecode": "0x60806040526000600560146101000a81548160ff0219169083151502179055506000600755600060085560006009556000600a553480156200004057600080fd5b50604051620062bb380380620062bb833981810160405281019062000066919062000244565b33600560006101000a81548173ffffffffffffffffffffffffffffffffffffffff021916908373ffffffffffffffffffffffffffffffffffffffff16021790555085600260006101000a81548173ffffffffffffffffffffffffffffffffffffffff021916908373ffffffffffffffffffffffffffffffffffffffff160217905550846000806101000a81548173ffffffffffffffffffffffffffffffffffffffff021916908373ffffffffffffffffffffffffffffffffffffffff16021790555083600160006101000a81548173ffffffffffffffffffffffffffffffffffffffff021916908373ffffffffffffffffffffffffffffffffffffffff16021790555082600360006101000a81548173ffffffffffffffffffffffffffffffffffffffff021916908373ffffffffffffffffffffffffffffffffffffffff16021790555081600460006101000a81548173ffffffffffffffffffffffffffffffffffffffff021916908373ffffffffffffffffffffffffffffffffffffffff160217905550806009819055506000600e600001819055506000801b600e600101819055505050505050506200034c565b600081519050620002278162000318565b92915050565b6000815190506200023e8162000332565b92915050565b60008060008060008060c087890312156200025e57600080fd5b60006200026e89828a0162000216565b96505060206200028189828a0162000216565b95505060406200029489828a0162000216565b9450506060620002a789828a0162000216565b9350506080620002ba89828a0162000216565b92505060a0620002cd89828a016200022d565b9150509295509295509295565b6000620002e782620002ee565b9050919050565b600073ffffffffffffffffffffffffffffffffffffffff82169050919050565b6000819050919050565b6200032381620002da565b81146200032f57600080fd5b50565b6200033d816200030e565b81146200034957600080fd5b50565b615f5f806200035c6000396000f3fe6080604052600436106101815760003560e01c80635f2edcbe116100d1578063d5b91a921161008a578063e45b909d11610064578063e45b909d14610609578063e4804abc14610646578063e4f30a9f14610683578063e9fc7ae7146106ae57610181565b8063d5b91a9214610566578063d83aa63c146105a3578063df7dc506146105e057610181565b80635f2edcbe146104125780637e0b24921461043e5780637e3e661b1461047b578063b85c0acb146104c0578063c17a4eef146104fd578063d294f0931461053b57610181565b806333bc02fa1161013e5780633f067b20116101185780633f067b201461035457806342ce50111461037f57806344e5ffd3146103aa5780634ec18db9146103e757610181565b806333bc02fa1461029d57806338eb07e1146102da5780633ee2ce851461031757610181565b80630e136b1914610186578063231b0268146101b157806326976e3f146101dc5780632a9e72a6146102075780632d5beadc14610244578063327d426314610260575b600080fd5b34801561019257600080fd5b5061019b6106d9565b6040516101a891906155b1565b60405180910390f35b3480156101bd57600080fd5b506101c66106ec565b6040516101d3919061578f565b60405180910390f35b3480156101e857600080fd5b506101f16106f2565b6040516101fe9190615440565b60405180910390f35b34801561021357600080fd5b5061022e600480360381019061022991906141fb565b610718565b60405161023b919061576d565b60405180910390f35b61025e600480360381019061025991906141d1565b610abf565b005b34801561026c57600080fd5b50610287600480360381019061028291906140e5565b611089565b60405161029491906155b1565b60405180910390f35b3480156102a957600080fd5b506102c460048036038101906102bf9190614190565b6110a9565b6040516102d191906155b1565b60405180910390f35b3480156102e657600080fd5b5061030160048036038101906102fc9190614289565b6115f8565b60405161030e919061578f565b60405180910390f35b34801561032357600080fd5b5061033e600480360381019061033991906141fb565b611657565b60405161034b91906155e7565b60405180910390f35b34801561036057600080fd5b50610369611713565b604051610376919061578f565b60405180910390f35b34801561038b57600080fd5b50610394611719565b6040516103a1919061578f565b60405180910390f35b3480156103b657600080fd5b506103d160048036038101906103cc91906141fb565b61171f565b6040516103de91906155cc565b60405180910390f35b3480156103f357600080fd5b506103fc611743565b604051610409919061578f565b60405180910390f35b34801561041e57600080fd5b50610427611749565b6040516104359291906157d3565b60405180910390f35b34801561044a57600080fd5b5061046560048036038101906104609190613fc2565b61175b565b604051610472919061578f565b60405180910390f35b34801561048757600080fd5b506104a2600480360381019061049d919061424d565b611773565b6040516104b7999897969594939291906157fc565b60405180910390f35b3480156104cc57600080fd5b506104e760048036038101906104e2919061403a565b611999565b6040516104f4919061551b565b60405180910390f35b34801561050957600080fd5b50610524600480360381019061051f91906141fb565b611a84565b6040516105329291906157aa565b60405180910390f35b34801561054757600080fd5b50610550611ab5565b60405161055d919061578f565b60405180910390f35b34801561057257600080fd5b5061058d60048036038101906105889190614289565b611bde565b60405161059a919061578f565b60405180910390f35b3480156105af57600080fd5b506105ca60048036038101906105c591906141fb565b611c3d565b6040516105d791906155e7565b60405180910390f35b3480156105ec57600080fd5b506106076004803603810190610602919061407b565b611cf9565b005b34801561061557600080fd5b50610630600480360381019061062b91906141fb565b611d33565b60405161063d91906155cc565b60405180910390f35b34801561065257600080fd5b5061066d6004803603810190610668919061424d565b611d57565b60405161067a919061553d565b60405180910390f35b34801561068f57600080fd5b50610698611e86565b6040516106a5919061578f565b60405180910390f35b3480156106ba57600080fd5b506106c3611e90565b6040516106d0919061578f565b60405180910390f35b600560149054906101000a900460ff1681565b600a5481565b600660009054906101000a900473ffffffffffffffffffffffffffffffffffffffff1681565b610720612b0f565b60006011600084815260200190815260200160002060000154905060006040518060800160405280838152602001858152602001600b848154811061076157fe5b90600052602060002001548152602001600d848154811061077e57fe5b90600052602060002001805480602002602001604051908101604052809291908181526020016000905b82821015610aac5783829060005260206000209060080201604051806101200160405290816000820160009054906101000a900463ffffffff1663ffffffff1663ffffffff168152602001600182016040518060400160405290816000820160009054906101000a900473ffffffffffffffffffffffffffffffffffffffff1673ffffffffffffffffffffffffffffffffffffffff1673ffffffffffffffffffffffffffffffffffffffff1681526020016000820160149054906101000a900467ffffffffffffffff1667ffffffffffffffff1667ffffffffffffffff168152505081526020016002820160009054906101000a900463ffffffff1663ffffffff1663ffffffff1681526020016002820160049054906101000a900473ffffffffffffffffffffffffffffffffffffffff1673ffffffffffffffffffffffffffffffffffffffff1673ffffffffffffffffffffffffffffffffffffffff16815260200160038201548152602001600482016040518060400160405290816000820160009054906101000a900460ff1660ff1660ff1681526020016000820160019054906101000a900473ffffffffffffffffffffffffffffffffffffffff1673ffffffffffffffffffffffffffffffffffffffff1673ffffffffffffffffffffffffffffffffffffffff168152505081526020016005820160009054906101000a900473ffffffffffffffffffffffffffffffffffffffff1673ffffffffffffffffffffffffffffffffffffffff1673ffffffffffffffffffffffffffffffffffffffff1681526020016006820160009054906101000a900473ffffffffffffffffffffffffffffffffffffffff1673ffffffffffffffffffffffffffffffffffffffff1673ffffffffffffffffffffffffffffffffffffffff1681526020016007820160009054906101000a900473ffffffffffffffffffffffffffffffffffffffff1673ffffffffffffffffffffffffffffffffffffffff1673ffffffffffffffffffffffffffffffffffffffff1681525050815260200190600101906107a8565b5050505081525090508092505050919050565b600560149054906101000a900460ff1615610b0f576040517f08c379a0000000000000000000000000000000000000000000000000000000008152600401610b0690615629565b60405180910390fd5b806080015167ffffffffffffffff16655af3107a400001341015610b68576040517f08c379a0000000000000000000000000000000000000000000000000000000008152600401610b5f90615709565b60405180910390fd5b7367460c2f56774ed27eeb8685f29f6cec0b090b0073ffffffffffffffffffffffffffffffffffffffff1681602001516000015173ffffffffffffffffffffffffffffffffffffffff161461100e573460076000828254019250508190555060008060008060009054906101000a900473ffffffffffffffffffffffffffffffffffffffff1673ffffffffffffffffffffffffffffffffffffffff1663b17f15a28560200151600001516040518263ffffffff1660e01b8152600401610c2e9190615440565b60606040518083038186803b158015610c4657600080fd5b505afa158015610c5a573d6000803e3d6000fd5b505050506040513d601f19601f82011682018060405250810190610c7e9190613feb565b92509250925080610cc4576040517f08c379a0000000000000000000000000000000000000000000000000000000008152600401610cbb906156c9565b60405180910390fd5b600083905060008173ffffffffffffffffffffffffffffffffffffffff1663dd62ed3e33306040518363ffffffff1660e01b8152600401610d0692919061545b565b60206040518083038186803b158015610d1e57600080fd5b505afa158015610d32573d6000803e3d6000fd5b505050506040513d601f19601f82011682018060405250810190610d569190614224565b90506000610df387602001516020015167ffffffffffffffff168473ffffffffffffffffffffffffffffffffffffffff1663313ce5676040518163ffffffff1660e01b815260040160206040518083038186803b158015610db657600080fd5b505afa158015610dca573d6000803e3d6000fd5b505050506040513d601f19601f82011682018060405250810190610dee91906142c5565b611bde565b905080821015610e38576040517f08c379a0000000000000000000000000000000000000000000000000000000008152600401610e2f906156e9565b60405180910390fd5b8273ffffffffffffffffffffffffffffffffffffffff166323b872dd3330846040518463ffffffff1660e01b8152600401610e7593929190615484565b602060405180830381600087803b158015610e8f57600080fd5b505af1158015610ea3573d6000803e3d6000fd5b505050506040513d601f19601f82011682018060405250810190610ec791906140bc565b508273ffffffffffffffffffffffffffffffffffffffff1663095ea7b360008054906101000a900473ffffffffffffffffffffffffffffffffffffffff16836040518363ffffffff1660e01b8152600401610f239291906154bb565b602060405180830381600087803b158015610f3d57600080fd5b505af1158015610f51573d6000803e3d6000fd5b505050506040513d601f19601f82011682018060405250810190610f7591906140bc565b5060008054906101000a900473ffffffffffffffffffffffffffffffffffffffff1673ffffffffffffffffffffffffffffffffffffffff16639033ef3f87836040518363ffffffff1660e01b8152600401610fd19291906154bb565b600060405180830381600087803b158015610feb57600080fd5b505af1158015610fff573d6000803e3d6000fd5b5050505050505050505061107d565b611021655af3107a4000340360126115f8565b81602001516020019067ffffffffffffffff16908167ffffffffffffffff168152505080602001516020015167ffffffffffffffff16600860008282540192505081905550655af3107a40006007600082825401925050819055505b61108681611e96565b50565b60106020528060005260406000206000915054906101000a900460ff1681565b600060011515601060008460200151815260200190815260200160002060009054906101000a900460ff16151514156110e557600090506115f3565b6000808360800151606001516000815181106110fd57fe5b60200260200101516040015190506020810151915081846020015114611158576040517f08c379a000000000000000000000000000000000000000000000000000000000815260040161114f90615649565b60405180910390fd5b6000600260009054906101000a900473ffffffffffffffffffffffffffffffffffffffff1673ffffffffffffffffffffffffffffffffffffffff16638f59b004866040518263ffffffff1660e01b81526004016111b5919061574b565b60206040518083038186803b1580156111cd57600080fd5b505afa1580156111e1573d6000803e3d6000fd5b505050506040513d601f19601f8201168201806040525081019061120591906140bc565b905080611247576040517f08c379a000000000000000000000000000000000000000000000000000000000815260040161123e90615669565b60405180910390fd5b6001601060008760200151815260200190815260200160002060006101000a81548160ff021916908315150217905550846000015160165410156112915784600001516016819055505b600080600090505b8660a00151518110156115e9576112da8760a0015182815181106112b957fe5b6020026020010151602001516020015167ffffffffffffffff166012611bde565b91507367460c2f56774ed27eeb8685f29f6cec0b090b0073ffffffffffffffffffffffffffffffffffffffff168760a00151828151811061131757fe5b6020026020010151602001516000015173ffffffffffffffffffffffffffffffffffffffff1614156113c45747821115611386576040517f08c379a000000000000000000000000000000000000000000000000000000000815260040161137d90615689565b60405180910390fd5b6113af828860a00151838151811061139a57fe5b602002602001015160a00151602001516128f1565b816008600082825403925050819055506114b1565b60008054906101000a900473ffffffffffffffffffffffffffffffffffffffff1673ffffffffffffffffffffffffffffffffffffffff1663abe900e48860a00151838151811061141057fe5b602002602001015160200151600001518960a00151848151811061143057fe5b602002602001015160200151602001518a60a00151858151811061145057fe5b602002602001015160a00151602001516040518463ffffffff1660e01b815260040161147e939291906154e4565b600060405180830381600087803b15801561149857600080fd5b505af11580156114ac573d6000803e3d6000fd5b505050505b60008760a0015182815181106114c357fe5b60200260200101516080015111801561153657507367460c2f56774ed27eeb8685f29f6cec0b090b0073ffffffffffffffffffffffffffffffffffffffff168760a00151828151811061151257fe5b60200260200101516060015173ffffffffffffffffffffffffffffffffffffffff16145b156115dc578660a00151818151811061154b57fe5b602002602001015160800151601260003373ffffffffffffffffffffffffffffffffffffffff1673ffffffffffffffffffffffffffffffffffffffff1681526020019081526020016000205401601260003373ffffffffffffffffffffffffffffffffffffffff1673ffffffffffffffffffffffffffffffffffffffff168152602001908152602001600020819055505b8080600101915050611299565b5060019450505050505b919050565b600080600a9050600084905060088460ff16111561162d576008840391508160ff16600a0a858161162557fe5b04905061164c565b60088460ff16101561164b578360080391508160ff16600a0a850290505b5b809250505092915050565b6014818154811061166757600080fd5b906000526020600020016000915090508054600181600116156101000203166002900480601f01602080910402602001604051908101604052809291908181526020018280546001816001161561010002031660029004801561170b5780601f106116e05761010080835404028352916020019161170b565b820191906000526020600020905b8154815290600101906020018083116116ee57829003601f168201915b505050505081565b60075481565b60085481565b6015818154811061172f57600080fd5b906000526020600020016000915090505481565b60095481565b600e8060000154908060010154905082565b60126020528060005260406000206000915090505481565b600d828154811061178357600080fd5b90600052602060002001818154811061179b57600080fd5b9060005260206000209060080201600091509150508060000160009054906101000a900463ffffffff1690806001016040518060400160405290816000820160009054906101000a900473ffffffffffffffffffffffffffffffffffffffff1673ffffffffffffffffffffffffffffffffffffffff1673ffffffffffffffffffffffffffffffffffffffff1681526020016000820160149054906101000a900467ffffffffffffffff1667ffffffffffffffff1667ffffffffffffffff1681525050908060020160009054906101000a900463ffffffff16908060020160049054906101000a900473ffffffffffffffffffffffffffffffffffffffff1690806003015490806004016040518060400160405290816000820160009054906101000a900460ff1660ff1660ff1681526020016000820160019054906101000a900473ffffffffffffffffffffffffffffffffffffffff1673ffffffffffffffffffffffffffffffffffffffff1673ffffffffffffffffffffffffffffffffffffffff1681525050908060050160009054906101000a900473ffffffffffffffffffffffffffffffffffffffff16908060060160009054906101000a900473ffffffffffffffffffffffffffffffffffffffff16908060070160009054906101000a900473ffffffffffffffffffffffffffffffffffffffff16905089565b60606000825167ffffffffffffffff811180156119b557600080fd5b506040519080825280602002602001820160405280156119e45781602001602082028036833780820191505090505b509050600080600090505b8451811015611a79576001151560106000878481518110611a0c57fe5b6020026020010151815260200190815260200160002060009054906101000a900460ff16151514611a6c57848181518110611a4357fe5b6020026020010151838381518110611a5757fe5b60200260200101818152505081806001019250505b80806001019150506119ef565b508192505050919050565b60116020528060005260406000206000915090508060000154908060010160009054906101000a900460ff16905082565b6000600560149054906101000a900460ff1615611b07576040517f08c379a0000000000000000000000000000000000000000000000000000000008152600401611afe90615629565b60405180910390fd5b6000601260003373ffffffffffffffffffffffffffffffffffffffff1673ffffffffffffffffffffffffffffffffffffffff168152602001908152602001600020541115611b9957611b98601260003373ffffffffffffffffffffffffffffffffffffffff1673ffffffffffffffffffffffffffffffffffffffff16815260200190815260200160002054336128f1565b5b601260003373ffffffffffffffffffffffffffffffffffffffff1673ffffffffffffffffffffffffffffffffffffffff16815260200190815260200160002054905090565b600080600a9050600084905060088460ff161115611c0c576008840391508160ff16600a0a85029050611c32565b60088460ff161015611c31578360080391508160ff16600a0a8581611c2d57fe5b0490505b5b809250505092915050565b60138181548110611c4d57600080fd5b906000526020600020016000915090508054600181600116156101000203166002900480601f016020809104026020016040519081016040528092919081815260200182805460018160011615610100020316600290048015611cf15780601f10611cc657610100808354040283529160200191611cf1565b820191906000526020600020905b815481529060010190602001808311611cd457829003601f168201915b505050505081565b60005b8151811015611d2f57611d21828281518110611d1457fe5b60200260200101516110a9565b508080600101915050611cfc565b5050565b600b8181548110611d4357600080fd5b906000526020600020016000915090505481565b60606000600a54841015611d6b57600a5493505b60008490505b838111611db5576011600082815260200190815260200160002060010160009054906101000a900460ff1615611da8576001820191505b8080600101915050611d71565b5060008167ffffffffffffffff81118015611dcf57600080fd5b50604051908082528060200260200182016040528015611e0957816020015b611df6612b0f565b815260200190600190039081611dee5790505b5090506000808690505b858111611e79576011600082815260200190815260200160002060010160009054906101000a900460ff1615611e6c57611e4c81610718565b838381518110611e5857fe5b602002602001018190525081806001019250505b8080600101915050611e13565b5081935050505092915050565b6000601654905090565b60165481565b6000439050600080611eb08460800151856060015161298c565b15611eca5783608001516009600082825403925050819055505b6011600084815260200190815260200160002060010160009054906101000a900460ff16156121c15760116000848152602001908152602001600020600001549150600d8281548110611f1957fe5b9060005260206000200184908060018154018082558091505060019003906000526020600020906008020160009091909190915060008201518160000160006101000a81548163ffffffff021916908363ffffffff16021790555060208201518160010160008201518160000160006101000a81548173ffffffffffffffffffffffffffffffffffffffff021916908373ffffffffffffffffffffffffffffffffffffffff16021790555060208201518160000160146101000a81548167ffffffffffffffff021916908367ffffffffffffffff160217905550505060408201518160020160006101000a81548163ffffffff021916908363ffffffff16021790555060608201518160020160046101000a81548173ffffffffffffffffffffffffffffffffffffffff021916908373ffffffffffffffffffffffffffffffffffffffff1602179055506080820151816003015560a08201518160040160008201518160000160006101000a81548160ff021916908360ff16021790555060208201518160000160016101000a81548173ffffffffffffffffffffffffffffffffffffffff021916908373ffffffffffffffffffffffffffffffffffffffff160217905550505060c08201518160050160006101000a81548173ffffffffffffffffffffffffffffffffffffffff021916908373ffffffffffffffffffffffffffffffffffffffff16021790555060e08201518160060160006101000a81548173ffffffffffffffffffffffffffffffffffffffff021916908373ffffffffffffffffffffffffffffffffffffffff1602179055506101008201518160070160006101000a81548173ffffffffffffffffffffffffffffffffffffffff021916908373ffffffffffffffffffffffffffffffffffffffff160217905550505060009050612506565b600c84908060018154018082558091505060019003906000526020600020906008020160009091909190915060008201518160000160006101000a81548163ffffffff021916908363ffffffff16021790555060208201518160010160008201518160000160006101000a81548173ffffffffffffffffffffffffffffffffffffffff021916908373ffffffffffffffffffffffffffffffffffffffff16021790555060208201518160000160146101000a81548167ffffffffffffffff021916908367ffffffffffffffff160217905550505060408201518160020160006101000a81548163ffffffff021916908363ffffffff16021790555060608201518160020160046101000a81548173ffffffffffffffffffffffffffffffffffffffff021916908373ffffffffffffffffffffffffffffffffffffffff1602179055506080820151816003015560a08201518160040160008201518160000160006101000a81548160ff021916908360ff16021790555060208201518160000160016101000a81548173ffffffffffffffffffffffffffffffffffffffff021916908373ffffffffffffffffffffffffffffffffffffffff160217905550505060c08201518160050160006101000a81548173ffffffffffffffffffffffffffffffffffffffff021916908373ffffffffffffffffffffffffffffffffffffffff16021790555060e08201518160060160006101000a81548173ffffffffffffffffffffffffffffffffffffffff021916908373ffffffffffffffffffffffffffffffffffffffff1602179055506101008201518160070160006101000a81548173ffffffffffffffffffffffffffffffffffffffff021916908373ffffffffffffffffffffffffffffffffffffffff1602179055505050600d600c9080600181540180825580915050600190039060005260206000200160009091909190915090805461248f929190612b3a565b506001600d80549050039150604051806040016040528083815260200160011515815250601160008581526020019081526020016000206000820151816000015560208201518160010160006101000a81548160ff021916908315150217905550905050600c60006125019190612ef9565b600190505b6000600460009054906101000a900473ffffffffffffffffffffffffffffffffffffffff1673ffffffffffffffffffffffffffffffffffffffff1663bdfcfddd600d858154811061255357fe5b906000526020600020016040518263ffffffff1660e01b8152600401612579919061555f565b600060405180830381600087803b15801561259357600080fd5b505af11580156125a7573d6000803e3d6000fd5b505050506040513d6000823e3d601f19601f820116820180604052508101906125d0919061414f565b90506000600160009054906101000a900473ffffffffffffffffffffffffffffffffffffffff1673ffffffffffffffffffffffffffffffffffffffff1663343bee60836040518263ffffffff1660e01b815260040161262f9190615729565b60006040518083038186803b15801561264757600080fd5b505afa15801561265b573d6000803e3d6000fd5b505050506040513d6000823e3d601f19601f82011682018060405250810190612684919061410e565b90506000600160009054906101000a900473ffffffffffffffffffffffffffffffffffffffff1673ffffffffffffffffffffffffffffffffffffffff16632a4edd70600d87815481106126d357fe5b9060005260206000200160006040518363ffffffff1660e01b81526004016126fc929190615581565b60006040518083038186803b15801561271457600080fd5b505afa158015612728573d6000803e3d6000fd5b505050506040513d6000823e3d601f19601f82011682018060405250810190612751919061410e565b905060138190806001815401808255809150506001900390600052602060002001600090919091909150908051906020019061278e929190612f1d565b50600081805190602001209050600083836040516020016127b092919061541c565b60405160208183030381529060405290506014819080600181540180825580915050600190039060005260206000200160009091909190915090805190602001906127fc929190612f1d565b5060158290806001815401808255809150506001900390600052602060002001600090919091909150556000806000801b90506000891461285557600b60018a038154811061284757fe5b906000526020600020015490505b85816040516020016128689291906153f4565b60405160208183030381529060405280519060200120915087156128b457600b8290806001815401808255809150506001900390600052602060002001600090919091909150556128d1565b81600b8a815481106128c257fe5b90600052602060002001819055505b6000600a5414156128e45789600a819055505b5050505050505050505050565b600560149054906101000a900460ff1615612941576040517f08c379a000000000000000000000000000000000000000000000000000000000815260040161293890615629565b60405180910390fd5b8073ffffffffffffffffffffffffffffffffffffffff166108fc839081150290604051600060405180830381858888f19350505050158015612987573d6000803e3d6000fd5b505050565b60006001600360009054906101000a900473ffffffffffffffffffffffffffffffffffffffff1673ffffffffffffffffffffffffffffffffffffffff1663ec48ae3c6040518163ffffffff1660e01b815260040160206040518083038186803b1580156129f857600080fd5b505afa158015612a0c573d6000803e3d6000fd5b505050506040513d601f19601f82011682018060405250810190612a309190614224565b10612a3e5760009050612b09565b73a6ef9ea235635e328124ff3429db9f9e91b64e2d73ffffffffffffffffffffffffffffffffffffffff168273ffffffffffffffffffffffffffffffffffffffff1614612ac0576040517f08c379a0000000000000000000000000000000000000000000000000000000008152600401612ab790615609565b60405180910390fd5b8260095411612b04576040517f08c379a0000000000000000000000000000000000000000000000000000000008152600401612afb906156a9565b60405180910390fd5b600190505b92915050565b6040518060800160405280600081526020016000815260200160008019168152602001606081525090565b828054828255906000526020600020906008028101928215612ee85760005260206000209160080282015b82811115612ee75782826000820160009054906101000a900463ffffffff168160000160006101000a81548163ffffffff021916908363ffffffff16021790555060018201816001016000820160009054906101000a900473ffffffffffffffffffffffffffffffffffffffff168160000160006101000a81548173ffffffffffffffffffffffffffffffffffffffff021916908373ffffffffffffffffffffffffffffffffffffffff1602179055506000820160149054906101000a900467ffffffffffffffff168160000160146101000a81548167ffffffffffffffff021916908367ffffffffffffffff16021790555050506002820160009054906101000a900463ffffffff168160020160006101000a81548163ffffffff021916908363ffffffff1602179055506002820160049054906101000a900473ffffffffffffffffffffffffffffffffffffffff168160020160046101000a81548173ffffffffffffffffffffffffffffffffffffffff021916908373ffffffffffffffffffffffffffffffffffffffff1602179055506003820154816003015560048201816004016000820160009054906101000a900460ff168160000160006101000a81548160ff021916908360ff1602179055506000820160019054906101000a900473ffffffffffffffffffffffffffffffffffffffff168160000160016101000a81548173ffffffffffffffffffffffffffffffffffffffff021916908373ffffffffffffffffffffffffffffffffffffffff16021790555050506005820160009054906101000a900473ffffffffffffffffffffffffffffffffffffffff168160050160006101000a81548173ffffffffffffffffffffffffffffffffffffffff021916908373ffffffffffffffffffffffffffffffffffffffff1602179055506006820160009054906101000a900473ffffffffffffffffffffffffffffffffffffffff168160060160006101000a81548173ffffffffffffffffffffffffffffffffffffffff021916908373ffffffffffffffffffffffffffffffffffffffff1602179055506007820160009054906101000a900473ffffffffffffffffffffffffffffffffffffffff168160070160006101000a81548173ffffffffffffffffffffffffffffffffffffffff021916908373ffffffffffffffffffffffffffffffffffffffff160217905550505091600801919060080190612b65565b5b509050612ef59190612fab565b5090565b5080546000825560080290600052602060002090810190612f1a9190612fab565b50565b828054600181600116156101000203166002900490600052602060002090601f016020900481019282612f535760008555612f9a565b82601f10612f6c57805160ff1916838001178555612f9a565b82800160010185558215612f9a579182015b82811115612f99578251825591602001919060010190612f7e565b5b509050612fa7919061311f565b5090565b5b8082111561311b57600080820160006101000a81549063ffffffff021916905560018201600080820160006101000a81549073ffffffffffffffffffffffffffffffffffffffff02191690556000820160146101000a81549067ffffffffffffffff021916905550506002820160006101000a81549063ffffffff02191690556002820160046101000a81549073ffffffffffffffffffffffffffffffffffffffff0219169055600382016000905560048201600080820160006101000a81549060ff02191690556000820160016101000a81549073ffffffffffffffffffffffffffffffffffffffff021916905550506005820160006101000a81549073ffffffffffffffffffffffffffffffffffffffff02191690556006820160006101000a81549073ffffffffffffffffffffffffffffffffffffffff02191690556007820160006101000a81549073ffffffffffffffffffffffffffffffffffffffff021916905550600801612fac565b5090565b5b80821115613138576000816000905550600101613120565b5090565b600061314f61314a846158bc565b61588b565b9050808382526020820190508285602086028201111561316e57600080fd5b60005b8581101561319e578161318488826135e6565b845260208401935060208301925050600181019050613171565b5050509392505050565b60006131bb6131b6846158e8565b61588b565b9050808382526020820190508260005b858110156131fb57813585016131e1888261368e565b8452602084019350602083019250506001810190506131cb565b5050509392505050565b600061321861321384615914565b61588b565b9050808382526020820190508285604086028201111561323757600080fd5b60005b85811015613267578161324d8882613a6a565b84526020840193506040830192505060018101905061323a565b5050509392505050565b600061328461327f84615914565b61588b565b905080838252602082019050828560408602820111156132a357600080fd5b60005b858110156132d357816132b98882613ab6565b8452602084019350604083019250506001810190506132a6565b5050509392505050565b60006132f06132eb84615940565b61588b565b9050808382526020820190508260005b8581101561333057813585016133168882613c32565b845260208401935060208301925050600181019050613300565b5050509392505050565b600061334d6133488461596c565b61588b565b905080838252602082019050828561016086028201111561336d57600080fd5b60005b8581101561339e57816133838882613d16565b84526020840193506101608301925050600181019050613370565b5050509392505050565b60006133bb6133b684615998565b61588b565b9050808382526020820190508260005b858110156133fb57813585016133e18882613df4565b8452602084019350602083019250506001810190506133cb565b5050509392505050565b6000613418613413846159c4565b61588b565b90508281526020810184848401111561343057600080fd5b61343b848285615d11565b509392505050565b6000613456613451846159c4565b61588b565b90508281526020810184848401111561346e57600080fd5b613479848285615d20565b509392505050565b60008135905061349081615e5a565b92915050565b6000815190506134a581615e5a565b92915050565b600082601f8301126134bc57600080fd5b81356134cc84826020860161313c565b91505092915050565b600082601f8301126134e657600080fd5b81356134f68482602086016131a8565b91505092915050565b600082601f83011261351057600080fd5b8135613520848260208601613205565b91505092915050565b600082601f83011261353a57600080fd5b815161354a848260208601613271565b91505092915050565b600082601f83011261356457600080fd5b81356135748482602086016132dd565b91505092915050565b600082601f83011261358e57600080fd5b813561359e84826020860161333a565b91505092915050565b600082601f8301126135b857600080fd5b81356135c88482602086016133a8565b91505092915050565b6000815190506135e081615e71565b92915050565b6000813590506135f581615e88565b92915050565b60008151905061360a81615e88565b92915050565b600082601f83011261362157600080fd5b8135613631848260208601613405565b91505092915050565b600082601f83011261364b57600080fd5b815161365b848260208601613443565b91505092915050565b60008135905061367381615e9f565b92915050565b60008151905061368881615e9f565b92915050565b600060a082840312156136a057600080fd5b6136aa60a061588b565b905060006136ba84828501613f98565b60008301525060206136ce84828501613f98565b602083015250604082013567ffffffffffffffff8111156136ee57600080fd5b6136fa84828501613610565b604083015250606082013567ffffffffffffffff81111561371a57600080fd5b613726848285016135a7565b606083015250608061373a84828501613f44565b60808301525092915050565b60006101e0828403121561375957600080fd5b6137646101c061588b565b9050600061377484828501613ef0565b600083015250602061378884828501613ef0565b602083015250604061379c84828501613481565b60408301525060606137b084828501613f44565b60608301525060806137c484828501613f44565b60808301525060a06137d884828501613481565b60a08301525060c06137ec84828501613481565b60c08301525060e061380084828501613f44565b60e08301525061010082013567ffffffffffffffff81111561382157600080fd5b61382d848285016134ff565b6101008301525061012082013567ffffffffffffffff81111561384f57600080fd5b61385b848285016134ff565b61012083015250610140613871848285016135e6565b6101408301525061016082013567ffffffffffffffff81111561389357600080fd5b61389f848285016134ff565b610160830152506101806138b584828501613e58565b610180830152506101c06138cb84828501613664565b6101a08301525092915050565b60006101e082840312156138eb57600080fd5b6138f66101c061588b565b9050600061390684828501613f05565b600083015250602061391a84828501613f05565b602083015250604061392e84828501613496565b604083015250606061394284828501613f59565b606083015250608061395684828501613f59565b60808301525060a061396a84828501613496565b60a08301525060c061397e84828501613496565b60c08301525060e061399284828501613f59565b60e08301525061010082015167ffffffffffffffff8111156139b357600080fd5b6139bf84828501613529565b6101008301525061012082015167ffffffffffffffff8111156139e157600080fd5b6139ed84828501613529565b61012083015250610140613a03848285016135fb565b6101408301525061016082015167ffffffffffffffff811115613a2557600080fd5b613a3184828501613529565b61016083015250610180613a4784828501613ea4565b610180830152506101c0613a5d84828501613679565b6101a08301525092915050565b600060408284031215613a7c57600080fd5b613a86604061588b565b90506000613a9684828501613481565b6000830152506020613aaa84828501613f6e565b60208301525092915050565b600060408284031215613ac857600080fd5b613ad2604061588b565b90506000613ae284828501613496565b6000830152506020613af684828501613f83565b60208301525092915050565b600060808284031215613b1457600080fd5b613b1e608061588b565b90506000613b2e84828501613f98565b6000830152506020613b4284828501613f44565b6020830152506040613b5684828501613f44565b604083015250606082013567ffffffffffffffff811115613b7657600080fd5b613b82848285016134ab565b60608301525092915050565b600060808284031215613ba057600080fd5b613baa608061588b565b90506000613bba84828501613f98565b6000830152506020613bce84828501613f98565b602083015250604082013567ffffffffffffffff811115613bee57600080fd5b613bfa848285016135a7565b604083015250606082013567ffffffffffffffff811115613c1a57600080fd5b613c26848285016134d5565b60608301525092915050565b600060c08284031215613c4457600080fd5b613c4e60c061588b565b90506000613c5e84828501613f1a565b6000830152506020613c72848285016135e6565b6020830152506040613c8684828501613f1a565b604083015250606082013567ffffffffffffffff811115613ca657600080fd5b613cb284828501613746565b606083015250608082013567ffffffffffffffff811115613cd257600080fd5b613cde84828501613b8e565b60808301525060a082013567ffffffffffffffff811115613cfe57600080fd5b613d0a8482850161357d565b60a08301525092915050565b60006101608284031215613d2957600080fd5b613d3461012061588b565b90506000613d4484828501613f44565b6000830152506020613d5884828501613a6a565b6020830152506060613d6c84828501613f44565b6040830152506080613d8084828501613481565b60608301525060a0613d9484828501613f1a565b60808301525060c0613da884828501613e58565b60a083015250610100613dbd84828501613481565b60c083015250610120613dd284828501613481565b60e083015250610140613de784828501613481565b6101008301525092915050565b600060408284031215613e0657600080fd5b613e10604061588b565b90506000613e2084828501613f98565b600083015250602082013567ffffffffffffffff811115613e4057600080fd5b613e4c84828501613b02565b60208301525092915050565b600060408284031215613e6a57600080fd5b613e74604061588b565b90506000613e8484828501613f98565b6000830152506020613e9884828501613481565b60208301525092915050565b600060408284031215613eb657600080fd5b613ec0604061588b565b90506000613ed084828501613fad565b6000830152506020613ee484828501613496565b60208301525092915050565b600081359050613eff81615eb6565b92915050565b600081519050613f1481615eb6565b92915050565b600081359050613f2981615ecd565b92915050565b600081519050613f3e81615ecd565b92915050565b600081359050613f5381615ee4565b92915050565b600081519050613f6881615ee4565b92915050565b600081359050613f7d81615efb565b92915050565b600081519050613f9281615efb565b92915050565b600081359050613fa781615f12565b92915050565b600081519050613fbc81615f12565b92915050565b600060208284031215613fd457600080fd5b6000613fe284828501613481565b91505092915050565b60008060006060848603121561400057600080fd5b600061400e86828701613496565b935050602061401f868287016135d1565b9250506040614030868287016135d1565b9150509250925092565b60006020828403121561404c57600080fd5b600082013567ffffffffffffffff81111561406657600080fd5b614072848285016134ab565b91505092915050565b60006020828403121561408d57600080fd5b600082013567ffffffffffffffff8111156140a757600080fd5b6140b384828501613553565b91505092915050565b6000602082840312156140ce57600080fd5b60006140dc848285016135d1565b91505092915050565b6000602082840312156140f757600080fd5b6000614105848285016135e6565b91505092915050565b60006020828403121561412057600080fd5b600082015167ffffffffffffffff81111561413a57600080fd5b6141468482850161363a565b91505092915050565b60006020828403121561416157600080fd5b600082015167ffffffffffffffff81111561417b57600080fd5b614187848285016138d8565b91505092915050565b6000602082840312156141a257600080fd5b600082013567ffffffffffffffff8111156141bc57600080fd5b6141c884828501613c32565b91505092915050565b600061016082840312156141e457600080fd5b60006141f284828501613d16565b91505092915050565b60006020828403121561420d57600080fd5b600061421b84828501613f1a565b91505092915050565b60006020828403121561423657600080fd5b600061424484828501613f2f565b91505092915050565b6000806040838503121561426057600080fd5b600061426e85828601613f1a565b925050602061427f85828601613f1a565b9150509250929050565b6000806040838503121561429c57600080fd5b60006142aa85828601613f1a565b92505060206142bb85828601613f98565b9150509250929050565b6000602082840312156142d757600080fd5b60006142e584828501613fad565b91505092915050565b60006142fa83836146fc565b60208301905092915050565b60006143128383614b2d565b905092915050565b60006143268383614e22565b60408301905092915050565b600061433e8383615024565b905092915050565b600061435283836150ea565b6101608301905092915050565b600061436b83836151a3565b6101608301905092915050565b600061438483836152a1565b905092915050565b61439581615cdb565b82525050565b6143a481615c3d565b82525050565b6143b381615c3d565b82525050565b60006143c482615a69565b6143ce8185615b1c565b93506143d9836159f4565b8060005b8381101561440a5781516143f188826142ee565b97506143fc83615ac1565b9250506001810190506143dd565b5085935050505092915050565b600061442282615a69565b61442c8185615b2d565b9350614437836159f4565b8060005b8381101561446857815161444f88826142ee565b975061445a83615ac1565b92505060018101905061443b565b5085935050505092915050565b600061448082615a74565b61448a8185615b3e565b93508360208202850161449c85615a04565b8060005b858110156144d857848403895281516144b98582614306565b94506144c483615ace565b925060208a019950506001810190506144a0565b50829750879550505050505092915050565b60006144f582615a7f565b6144ff8185615b4f565b935061450a83615a14565b8060005b8381101561453b578151614522888261431a565b975061452d83615adb565b92505060018101905061450e565b5085935050505092915050565b600061455382615a8a565b61455d8185615b60565b93508360208202850161456f85615a24565b8060005b858110156145ab578484038952815161458c8582614332565b945061459783615ae8565b925060208a01995050600181019050614573565b50829750879550505050505092915050565b60006145c882615a95565b6145d28185615b71565b93506145dd83615a34565b8060005b8381101561460e5781516145f58882614346565b975061460083615af5565b9250506001810190506145e1565b5085935050505092915050565b600061462682615aa0565b6146308185615b82565b935061463b83615a44565b8060005b8381101561466b5781614652888261435f565b975061465d83615b02565b92505060018101905061463f565b5085935050505092915050565b600061468382615aab565b61468d8185615b93565b93508360208202850161469f85615a59565b8060005b858110156146db57848403895281516146bc8582614378565b94506146c783615b0f565b925060208a019950506001810190506146a3565b50829750879550505050505092915050565b6146f681615c4f565b82525050565b61470581615c5b565b82525050565b61471481615c5b565b82525050565b61472b61472682615c5b565b615e09565b82525050565b600061473c82615ab6565b6147468185615ba4565b9350614756818560208601615d20565b61475f81615e15565b840191505092915050565b600061477582615ab6565b61477f8185615bb5565b935061478f818560208601615d20565b61479881615e15565b840191505092915050565b60006147ae82615ab6565b6147b88185615bc6565b93506147c8818560208601615d20565b80840191505092915050565b6147dd81615c65565b82525050565b60006147f0603b83615bd1565b91507f427269646765206973206e6f742079657420617661696c61626c65206f6e6c7960008301527f2056657275732063616e206265207573656420666f72206665657300000000006020830152604082019050919050565b6000614856601c83615bd1565b91507f436f6e747261637420686173206265656e2064657072656361746564000000006000830152602082019050919050565b6000614896601a83615bd1565b91507f54786964206e6f7420636f727265637420696e206865616465720000000000006000830152602082019050919050565b60006148d6603483615bd1565b91507f5472616e736665727320646f206e6f742070726f766520616761696e7374207460008301527f6865206c617374206e6f746172697a6174696f6e0000000000000000000000006020830152604082019050919050565b600061493c602983615bd1565b91507f52657175657374656420616d6f756e74206578636565647320636f6e7472616360008301527f742062616c616e636500000000000000000000000000000000000000000000006020830152604082019050919050565b60006149a2603d83615bd1565b91507f427269646765206973206e6f742079657420617661696c61626c65206665657360008301527f2063616e6e6f7420657863656564206578697374696e6720706f6f6c2e0000006020830152604082019050919050565b6000614a08601b83615bd1565b91507f54686520746f6b656e206973206e6f74207265676973746572656400000000006000830152602082019050919050565b6000614a48605583615bd1565b91507f5468697320636f6e7472616374206d757374206861766520616e20616c6c6f7760008301527f616e6365206f662067726561746572207468616e206f7220657175616c20746f60208301527f20746865206e756d626572206f6620746f6b656e7300000000000000000000006040830152606082019050919050565b6000614ad4602c83615bd1565b91507f506c656173652073656e642074686520617070726f707269617465207472616e60008301527f73616374696f6e206665652e00000000000000000000000000000000000000006020830152604082019050919050565b600060a083016000830151614b4560008601826153e5565b506020830151614b5860208601826153e5565b5060408301518482036040860152614b708282614731565b91505060608301518482036060860152614b8a8282614678565b9150506080830151614b9f60808601826153a9565b508091505092915050565b60006101e083016000830151614bc3600086018261537c565b506020830151614bd6602086018261537c565b506040830151614be9604086018261439b565b506060830151614bfc60608601826153a9565b506080830151614c0f60808601826153a9565b5060a0830151614c2260a086018261439b565b5060c0830151614c3560c086018261439b565b5060e0830151614c4860e08601826153a9565b50610100830151848203610100860152614c6282826144ea565b915050610120830151848203610120860152614c7e82826144ea565b915050610140830151614c956101408601826146fc565b50610160830151848203610160860152614caf82826144ea565b915050610180830151614cc66101808601826152de565b506101a0830151614cdb6101c08601826147d4565b508091505092915050565b60006101e083016000830151614cff600086018261537c565b506020830151614d12602086018261537c565b506040830151614d25604086018261439b565b506060830151614d3860608601826153a9565b506080830151614d4b60808601826153a9565b5060a0830151614d5e60a086018261439b565b5060c0830151614d7160c086018261439b565b5060e0830151614d8460e08601826153a9565b50610100830151848203610100860152614d9e82826144ea565b915050610120830151848203610120860152614dba82826144ea565b915050610140830151614dd16101408601826146fc565b50610160830151848203610160860152614deb82826144ea565b915050610180830151614e026101808601826152de565b506101a0830151614e176101c08601826147d4565b508091505092915050565b604082016000820151614e38600085018261439b565b506020820151614e4b60208501826153c7565b50505050565b604082016000820151614e67600085018261439b565b506020820151614e7a60208501826153c7565b50505050565b604082016000808301549050614e9581615d53565b614ea2600086018261439b565b50614eac81615dd5565b614eb960208601826153c7565b5050505050565b6000608083016000830151614ed860008601826153e5565b506020830151614eeb60208601826153a9565b506040830151614efe60408601826153a9565b5060608301518482036060860152614f1682826143b9565b9150508091505092915050565b6000608083016000830151614f3b60008601826153e5565b506020830151614f4e60208601826153e5565b5060408301518482036040860152614f668282614678565b91505060608301518482036060860152614f808282614475565b9150508091505092915050565b600060c083016000830151614fa5600086018261538b565b506020830151614fb860208601826146fc565b506040830151614fcb604086018261538b565b5060608301518482036060860152614fe38282614baa565b91505060808301518482036080860152614ffd8282614f23565b91505060a083015184820360a086015261501782826145bd565b9150508091505092915050565b600060808301600083015161503c600086018261538b565b50602083015161504f602086018261538b565b50604083015161506260408601826146fc565b506060830151848203606086015261507a82826145bd565b9150508091505092915050565b600060808301600083015161509f600086018261538b565b5060208301516150b2602086018261538b565b5060408301516150c560408601826146fc565b50606083015184820360608601526150dd82826145bd565b9150508091505092915050565b6101608201600082015161510160008501826153a9565b5060208201516151146020850182614e22565b50604082015161512760608501826153a9565b50606082015161513a608085018261439b565b50608082015161514d60a085018261538b565b5060a082015161516060c08501826152de565b5060c082015161517461010085018261439b565b5060e082015161518861012085018261439b565b5061010082015161519d61014085018261439b565b50505050565b610160820160008083015490506151b981615d87565b6151c660008601826153a9565b50600183016151d86020860182614e80565b50600283015490506151e981615d87565b6151f660608601826153a9565b5061520081615def565b61520d608086018261439b565b506003830154905061521e81615d6d565b61522b60a086018261538b565b506004830161523d60c086018261533c565b506005830154905061524e81615d53565b61525c61010086018261439b565b506006830154905061526d81615d53565b61527b61012086018261439b565b506007830154905061528c81615d53565b61529a61014086018261439b565b5050505050565b60006040830160008301516152b960008601826153e5565b50602083015184820360208601526152d18282614ec0565b9150508091505092915050565b6040820160008201516152f460008501826153e5565b506020820151615307602085018261439b565b50505050565b60408201600082015161532360008501826153e5565b506020820151615336602085018261439b565b50505050565b60408201600080830154905061535181615da1565b61535e60008601826153e5565b5061536881615dbb565b615375602086018261439b565b5050505050565b61538581615c72565b82525050565b61539481615ca0565b82525050565b6153a381615ca0565b82525050565b6153b281615caa565b82525050565b6153c181615caa565b82525050565b6153d081615cba565b82525050565b6153df81615cba565b82525050565b6153ee81615cce565b82525050565b600061540082856147a3565b915061540c828461471a565b6020820191508190509392505050565b600061542882856147a3565b915061543482846147a3565b91508190509392505050565b600060208201905061545560008301846143aa565b92915050565b6000604082019050615470600083018561438c565b61547d60208301846143aa565b9392505050565b6000606082019050615499600083018661438c565b6154a660208301856143aa565b6154b3604083018461539a565b949350505050565b60006040820190506154d060008301856143aa565b6154dd602083018461539a565b9392505050565b60006060820190506154f960008301866143aa565b61550660208301856153d6565b61551360408301846143aa565b949350505050565b600060208201905081810360008301526155358184614417565b905092915050565b600060208201905081810360008301526155578184614548565b905092915050565b60006020820190508181036000830152615579818461461b565b905092915050565b6000604082019050818103600083015261559b818561461b565b90506155aa60208301846146ed565b9392505050565b60006020820190506155c660008301846146ed565b92915050565b60006020820190506155e1600083018461470b565b92915050565b60006020820190508181036000830152615601818461476a565b905092915050565b60006020820190508181036000830152615622816147e3565b9050919050565b6000602082019050818103600083015261564281614849565b9050919050565b6000602082019050818103600083015261566281614889565b9050919050565b60006020820190508181036000830152615682816148c9565b9050919050565b600060208201905081810360008301526156a28161492f565b9050919050565b600060208201905081810360008301526156c281614995565b9050919050565b600060208201905081810360008301526156e2816149fb565b9050919050565b6000602082019050818103600083015261570281614a3b565b9050919050565b6000602082019050818103600083015261572281614ac7565b9050919050565b600060208201905081810360008301526157438184614ce6565b905092915050565b600060208201905081810360008301526157658184614f8d565b905092915050565b600060208201905081810360008301526157878184615087565b905092915050565b60006020820190506157a4600083018461539a565b92915050565b60006040820190506157bf600083018561539a565b6157cc60208301846146ed565b9392505050565b60006040820190506157e8600083018561539a565b6157f5602083018461470b565b9392505050565b600061016082019050615812600083018c6153b8565b61581f602083018b614e51565b61582c606083018a6153b8565b61583960808301896143aa565b61584660a083018861539a565b61585360c083018761530d565b6158616101008301866143aa565b61586f6101208301856143aa565b61587d6101408301846143aa565b9a9950505050505050505050565b6000604051905081810181811067ffffffffffffffff821117156158b2576158b1615e13565b5b8060405250919050565b600067ffffffffffffffff8211156158d7576158d6615e13565b5b602082029050602081019050919050565b600067ffffffffffffffff82111561590357615902615e13565b5b602082029050602081019050919050565b600067ffffffffffffffff82111561592f5761592e615e13565b5b602082029050602081019050919050565b600067ffffffffffffffff82111561595b5761595a615e13565b5b602082029050602081019050919050565b600067ffffffffffffffff82111561598757615986615e13565b5b602082029050602081019050919050565b600067ffffffffffffffff8211156159b3576159b2615e13565b5b602082029050602081019050919050565b600067ffffffffffffffff8211156159df576159de615e13565b5b601f19601f8301169050602081019050919050565b6000819050602082019050919050565b6000819050602082019050919050565b6000819050602082019050919050565b6000819050602082019050919050565b6000819050602082019050919050565b60008190508160005260206000209050919050565b6000819050602082019050919050565b600081519050919050565b600081519050919050565b600081519050919050565b600081519050919050565b600081519050919050565b600081549050919050565b600081519050919050565b600081519050919050565b6000602082019050919050565b6000602082019050919050565b6000602082019050919050565b6000602082019050919050565b6000602082019050919050565b6000600882019050919050565b6000602082019050919050565b600082825260208201905092915050565b600082825260208201905092915050565b600082825260208201905092915050565b600082825260208201905092915050565b600082825260208201905092915050565b600082825260208201905092915050565b600082825260208201905092915050565b600082825260208201905092915050565b600082825260208201905092915050565b600082825260208201905092915050565b600081905092915050565b600082825260208201905092915050565b600073ffffffffffffffffffffffffffffffffffffffff82169050919050565b6000819050919050565b600063ffffffff82169050919050565b600067ffffffffffffffff82169050919050565b600060ff82169050919050565b6000615c4882615c80565b9050919050565b60008115159050919050565b6000819050919050565b60008160030b9050919050565b600061ffff82169050919050565b600073ffffffffffffffffffffffffffffffffffffffff82169050919050565b6000819050919050565b600063ffffffff82169050919050565b600067ffffffffffffffff82169050919050565b600060ff82169050919050565b6000615ce682615ced565b9050919050565b6000615cf882615cff565b9050919050565b6000615d0a82615c80565b9050919050565b82818337600083830152505050565b60005b83811015615d3e578082015181840152602081019050615d23565b83811115615d4d576000848401525b50505050565b6000615d66615d6183615e26565b615be2565b9050919050565b6000615d80615d7b83615e26565b615c02565b9050919050565b6000615d9a615d9583615e26565b615c0c565b9050919050565b6000615db4615daf83615e26565b615c30565b9050919050565b6000615dce615dc983615e4d565b615be2565b9050919050565b6000615de8615de383615e33565b615c1c565b9050919050565b6000615e02615dfd83615e40565b615be2565b9050919050565b6000819050919050565bfe5b6000601f19601f8301169050919050565b60008160001c9050919050565b60008160a01c9050919050565b60008160201c9050919050565b60008160081c9050919050565b615e6381615c3d565b8114615e6e57600080fd5b50565b615e7a81615c4f565b8114615e8557600080fd5b50565b615e9181615c5b565b8114615e9c57600080fd5b50565b615ea881615c65565b8114615eb357600080fd5b50565b615ebf81615c72565b8114615eca57600080fd5b50565b615ed681615ca0565b8114615ee157600080fd5b50565b615eed81615caa565b8114615ef857600080fd5b50565b615f0481615cba565b8114615f0f57600080fd5b50565b615f1b81615cce565b8114615f2657600080fd5b5056fea264697066735822122063acbf13f722f379fa3c09d1d88aeaddd7af08ee9f8212be4ef8e701c72e7e0464736f6c63430007060033",
  "immutableReferences": {},
  "source": "// SPDX-License-Identifier: MIT\r\n// Bridge between ethereum and verus\r\n\r\npragma solidity >=0.6.0 <0.9.0;\r\npragma experimental ABIEncoderV2;\r\n\r\nimport \"../Libraries/VerusObjects.sol\";\r\nimport \"../Libraries/VerusObjectsCommon.sol\";\r\nimport \"../Libraries/VerusConstants.sol\";\r\nimport \"./TokenManager.sol\";\r\nimport \"../MMR/VerusProof.sol\";\r\nimport \"./Token.sol\";\r\nimport \"./VerusSerializer.sol\";\r\nimport \"../VerusNotarizer/VerusNotarizer.sol\";\r\nimport \"./VerusCrossChainExport.sol\";\r\n\r\ncontract VerusBridge {\r\n\r\n    //list of erc20 tokens that can be accessed,\r\n    //the contract must be able to mint and burn coins on the contract\r\n    //defines the tokenManager which creates the erc20\r\n    TokenManager tokenManager;\r\n    VerusSerializer verusSerializer;\r\n    VerusProof verusProof;\r\n    VerusNotarizer verusNotarizer;\r\n    VerusCrossChainExport verusCCE;\r\n\r\n    //THE CONTRACT OWNER NEEDS TO BE REPLACED BY A SET OF NOTARIES\r\n    address contractOwner;\r\n    bool public deprecated = false; //indicates if the cotnract is deprecated\r\n    address public upgradedAddress;\r\n    uint256 public feesHeld = 0;\r\n    uint256 public ethHeld = 0;\r\n    uint256 public poolSize = 0;\r\n    uint public firstBlock = 0;\r\n\r\n    //used to prove the transfers the index of this corresponds to the index of the \r\n    bytes32[] public readyExportHashes;\r\n    //DO NOT ADD ANY VARIABLES ABOVE THIS POINT\r\n    //used to store a list of currencies and an amount\r\n    VerusObjects.CReserveTransfer[] private _pendingExports;\r\n    \r\n    //stores the blockheight of each pending transfer\r\n    //the export set holds the summary of a set of exports\r\n    VerusObjects.CReserveTransfer[][] public _readyExports;\r\n    \r\n    //stores the index corresponds to the block\r\n    VerusObjects.LastImport public lastimport;\r\n    mapping(bytes32 => bool) public processedTxids;\r\n    mapping (uint => VerusObjects.blockCreated) public readyExportsByBlock;\r\n    mapping (address => uint256) public claimableFees;\r\n    \r\n    bytes[] public SerializedCRTs;\r\n    bytes[] public SerializedCCEs;\r\n    bytes32[] public hashedCRTs;\r\n    uint public lastTxidimport;\r\n    \r\n    \r\n    event Deprecate(address newAddress);\r\n    \r\n    constructor(address verusProofAddress,\r\n        address tokenManagerAddress,\r\n        address verusSerializerAddress,\r\n        address verusNotarizerAddress,\r\n        address verusCCEAddress,\r\n        uint256 _poolSize) public {\r\n        contractOwner = msg.sender; \r\n        verusProof =  VerusProof(verusProofAddress);\r\n        tokenManager = TokenManager(tokenManagerAddress);\r\n        verusSerializer = VerusSerializer(verusSerializerAddress);\r\n        verusNotarizer = VerusNotarizer(verusNotarizerAddress);\r\n        verusCCE = VerusCrossChainExport(verusCCEAddress);\r\n        poolSize = _poolSize;\r\n        lastimport.height = 0;\r\n        lastimport.txid = 0x00000000000000000000000000000000;\r\n    }\r\n\r\n    function isPoolAvailable(uint256 _feesAmount,address _feeCurrencyID) private view returns(bool){\r\n        if(verusNotarizer.numNotarizedBlocks() >= 1) {\r\n            //the bridge has been activated\r\n            return false;\r\n        } else {\r\n            require(_feeCurrencyID == VerusConstants.VerusCurrencyId,\"Bridge is not yet available only Verus can be used for fees\");\r\n            require(poolSize > _feesAmount,\"Bridge is not yet available fees cannot exceed existing pool.\");\r\n            return true;\r\n        }\r\n    }\r\n\r\n    function convertFromVerusNumber(uint256 a,uint8 decimals) public pure returns (uint256) {\r\n         uint8 power = 10; //default value for 18\r\n         uint256 c = a;\r\n        if(decimals > 8 ) {\r\n            power = decimals - 8;// number of decimals in verus\r\n            c = a * (10 ** power);\r\n        }else if(decimals < 8){\r\n            power = 8 - decimals;// number of decimals in verus\r\n            c = a / (10 ** power);\r\n        }\r\n      \r\n        return c;\r\n    }\r\n\r\n    function convertToVerusNumber(uint256 a,uint8 decimals) public pure returns (uint256) {\r\n         uint8 power = 10; //default value for 18\r\n         uint256 c = a;\r\n        if(decimals > 8 ) {\r\n            power = decimals - 8;// number of decimals in verus\r\n            c = a / (10 ** power);\r\n        }else if(decimals < 8){\r\n            power = 8 - decimals;// number of decimals in verus\r\n            c = a * (10 ** power);\r\n        }\r\n      \r\n        return c;\r\n    }\r\n \r\n    function export(VerusObjects.CReserveTransfer memory transfer) public payable{\r\n        require(!deprecated,\"Contract has been deprecated\");\r\n        require(msg.value >= VerusConstants.transactionFee + uint64(transfer.fees),\"Please send the appropriate transaction fee.\");\r\n        if(transfer.currencyvalue.currency != VerusConstants.VEth){\r\n            //check there are enough fees sent\r\n            feesHeld += msg.value;\r\n            //check that the token is registered\r\n            (address ERC20TokenAddress, bool VerusOwned, bool isRegistered) = tokenManager.verusToERC20mapping(transfer.currencyvalue.currency);\r\n            require(isRegistered, \"The token is not registered\");\r\n            Token token = Token(ERC20TokenAddress);\r\n            uint256 allowedTokens = token.allowance(msg.sender,address(this));\r\n            uint256 tokenAmount = convertFromVerusNumber(transfer.currencyvalue.amount,token.decimals()); //convert to wei from verus satoshis\r\n            require( allowedTokens >= tokenAmount,\"This contract must have an allowance of greater than or equal to the number of tokens\");\r\n            //transfer the tokens to this contract\r\n            token.transferFrom(msg.sender,address(this),tokenAmount); \r\n            token.approve(address(tokenManager),tokenAmount);\r\n            //give an approval for the tokenmanagerinstance to spend the tokens\r\n            tokenManager.exportERC20Tokens(ERC20TokenAddress, tokenAmount);  //total amount kept as wei until export to verus\r\n        } else {\r\n            //handle a vEth transfer\r\n            transfer.currencyvalue.amount = uint64(convertToVerusNumber(msg.value - VerusConstants.transactionFee,18));\r\n            ethHeld += transfer.currencyvalue.amount;\r\n            feesHeld += VerusConstants.transactionFee;\r\n        }\r\n        _createExports(transfer);\r\n    }\r\n\r\n    function _createExports(VerusObjects.CReserveTransfer memory newTransaction) private {\r\n        uint currentHeight = block.number;\r\n        uint exportIndex;\r\n        bool newHash;\r\n\r\n        //if there is fees in the pool spend those and not the amount that\r\n        if(isPoolAvailable(newTransaction.fees,newTransaction.feecurrencyid)) {\r\n            poolSize -= newTransaction.fees;\r\n        }\r\n\r\n        //check if the current block height has a set of transfers associated with it if so add to the existing array\r\n        if(readyExportsByBlock[currentHeight].created) {\r\n            //append to an existing array of transfers\r\n            exportIndex = readyExportsByBlock[currentHeight].index;\r\n            _readyExports[exportIndex].push(newTransaction);\r\n            newHash = false;\r\n        }\r\n        else {\r\n            _pendingExports.push(newTransaction);\r\n            _readyExports.push(_pendingExports);\r\n            exportIndex = _readyExports.length - 1;\r\n            readyExportsByBlock[currentHeight] = VerusObjects.blockCreated(exportIndex,true);\r\n            delete _pendingExports;\r\n            newHash = true;\r\n        }\r\n       \r\n        //create a cross chain export, serialize it and hash it\r\n        \r\n        VerusObjects.CCrossChainExport memory CCCE = verusCCE.generateCCE(_readyExports[exportIndex]);\r\n        //create a hash of the CCCE\r\n        \r\n        bytes memory serializedCCE = verusSerializer.serializeCCrossChainExport(CCCE);\r\n        bytes memory serializedTransfers = verusSerializer.serializeCReserveTransfers(_readyExports[exportIndex],false);\r\n        SerializedCRTs.push(serializedTransfers);\r\n        bytes32 hashedTransfers = keccak256(serializedTransfers);\r\n        bytes memory toHash = abi.encodePacked(serializedCCE,serializedTransfers);\r\n        SerializedCCEs.push(toHash);\r\n        hashedCRTs.push(hashedTransfers);\r\n        //bytes32 hashedTransfers = keccak256(serializedTransfers);\r\n        //bytes memory toHash = abi.encodePacked(serializedCCE,serializedTransfers);\r\n        bytes32 hashedCCE;\r\n        bytes32 lastProofRoot = 0;\r\n        if(exportIndex != 0)  lastProofRoot = readyExportHashes[exportIndex -1];\r\n        hashedCCE = keccak256(abi.encodePacked(serializedCCE,lastProofRoot));\r\n        \r\n        //add the hashed value\r\n        if(newHash) readyExportHashes.push(hashedCCE);\r\n        else readyExportHashes[exportIndex] = hashedCCE;\r\n        if(firstBlock == 0) firstBlock = currentHeight;\r\n        \r\n    }\r\n\r\n    function getlastimportheight() public view returns(uint) {\r\n        return lastTxidimport;\r\n    }\r\n    /***\r\n     * Import from Verus functions\r\n     ***/\r\n      function checkImports(bytes32[] memory _imports) public view returns(bytes32[] memory) {\r\n        //loop through the transfers and return a list of unprocessed\r\n        bytes32[] memory txidList = new bytes32[](_imports.length);\r\n        uint iterator;\r\n        for(uint i = 0; i < _imports.length; i++){\r\n            if(processedTxids[_imports[i]] != true){\r\n                txidList[iterator] = _imports[i];\r\n                iterator++;\r\n            }\r\n        }\r\n        return txidList;\r\n    }\r\n\r\n    function submitImports(VerusObjects.CReserveTransferImport[] memory _imports) public {\r\n        //loop through the transfers and process\r\n        for(uint i = 0; i < _imports.length; i++){\r\n           _createImports(_imports[i]);\r\n        }\r\n    }\r\n\r\n    function _createImports(VerusObjects.CReserveTransferImport memory _import) public returns(bool){\r\n\r\n        if(processedTxids[_import.txid] == true) return false; \r\n        bytes32 txidfound;\r\n        bytes memory sliced = _import.partialtransactionproof.components[0].elVchObj;\r\n        assembly {\r\n            txidfound := mload(add(sliced, 32))\r\n        }\r\n        require(_import.txid == txidfound, \"Txid not correct in header\"); //the txid should be present in the header\r\n        bool proved = verusProof.proveImports(_import);\r\n        require(proved,\"Transfers do not prove against the last notarization\");\r\n        processedTxids[_import.txid] = true;\r\n        if(lastTxidimport < _import.height)\r\n            lastTxidimport = _import.height;\r\n        uint256 amount;\r\n        //check the transfers were in the hash.\r\n        for(uint i = 0; i < _import.transfers.length; i++){\r\n            //handle eth transactions\r\n            amount = convertFromVerusNumber(uint256(_import.transfers[i].currencyvalue.amount),18);\r\n            if(_import.transfers[i].currencyvalue.currency == VerusConstants.VEth) {\r\n                //cast the destination as an ethAddress\r\n                    require(amount <= address(this).balance,\"Requested amount exceeds contract balance\");\r\n                    sendEth(amount,payable(address(_import.transfers[i].destination.destinationaddress)));\r\n                    ethHeld -= amount;\r\n        \r\n           } else {\r\n                //handle erc20 transactions  \r\n                //amount convesrion is handled in token manager\r\n                tokenManager.importERC20Tokens(_import.transfers[i].currencyvalue.currency,\r\n                    _import.transfers[i].currencyvalue.amount,\r\n                    _import.transfers[i].destination.destinationaddress);\r\n           }\r\n            //handle the distributions of the fees\r\n            //add them into the fees array to be claimed by the message sender\r\n            if(_import.transfers[i].fees > 0 && _import.transfers[i].feecurrencyid == VerusConstants.VEth){\r\n                claimableFees[msg.sender] = claimableFees[msg.sender] + _import.transfers[i].fees;\r\n            }\r\n        }\r\n        return true;\r\n    }\r\n    \r\n    function getReadyExportsByBlock(uint _blockNumber) public view returns(VerusObjects.CReserveTransferSet memory){\r\n        //need a transferset for each position not each block\r\n        //retrieve a block get the indexes, create a transfer set for each index add those to the array\r\n        uint eIndex = readyExportsByBlock[_blockNumber].index;\r\n        VerusObjects.CReserveTransferSet memory output = VerusObjects.CReserveTransferSet(\r\n            eIndex, //position in array\r\n            _blockNumber, //blockHeight\r\n            //readyExportHashes[eIndex],\r\n            //DO WE NEED TO DO THIS\r\n            readyExportHashes[eIndex],\r\n            _readyExports[eIndex]\r\n        );\r\n        return output;\r\n    }\r\n\r\n    function getReadyExportsByRange(uint _startBlock,uint _endBlock) public view returns(VerusObjects.CReserveTransferSet[] memory){\r\n        //calculate the size that the return array will be to initialise it\r\n        uint outputSize = 0;\r\n        if(_startBlock < firstBlock) _startBlock = firstBlock;\r\n        for(uint i = _startBlock; i <= _endBlock; i++){\r\n            if(readyExportsByBlock[i].created) outputSize += 1;\r\n        }\r\n\r\n        VerusObjects.CReserveTransferSet[] memory output = new VerusObjects.CReserveTransferSet[](outputSize);\r\n        uint outputPosition = 0;\r\n        for(uint blockNumber = _startBlock;blockNumber <= _endBlock;blockNumber++){\r\n            if(readyExportsByBlock[blockNumber].created) {\r\n                output[outputPosition] = getReadyExportsByBlock(blockNumber);\r\n                outputPosition++;\r\n            }\r\n        }\r\n        return output;        \r\n    }\r\n \r\n    function sendEth(uint256 _ethAmount,address payable _ethAddress) private {\r\n        require(!deprecated,\"Contract has been deprecated\");\r\n        //do we take fees here????\r\n        \r\n        _ethAddress.transfer(_ethAmount);\r\n    }\r\n   \r\n    function claimFees() public returns(uint256){\r\n        require(!deprecated,\"Contract has been deprecated\");\r\n        if(claimableFees[msg.sender] > 0 ){\r\n            sendEth(claimableFees[msg.sender],msg.sender);\r\n        }\r\n        return claimableFees[msg.sender];\r\n\r\n    }\r\n/*\r\n    function deprecate(address _upgradedAddress,bytes32 _addressHash,uint8[] memory _vs,bytes32[] memory _rs,bytes32[] memory _ss) public{\r\n        if(verusNotarizer.notarizedDeprecation(_upgradedAddress, _addressHash, _vs, _rs, _ss)){\r\n            deprecated = true;\r\n            upgradedAddress = _upgradedAddress;\r\n            Deprecate(_upgradedAddress);\r\n        }\r\n    }\r\n*/\r\n\r\n}\r\n",
  "sourcePath": "D:\\dev\\Ethereum-verus-notarisation\\contracts\\VerusBridge\\VerusBridge.sol",
  "compiler": {
    "name": "solc",
    "version": "0.7.6+commit.7338295f.Emscripten.clang"
  },
  "schemaVersion": "3.4.3",
  "updatedAt": "2021-09-30T09:32:23.376Z",
  "devdoc": {
    "kind": "dev",
    "methods": {},
    "version": 1
  },
  "userdoc": {
    "kind": "user",
    "methods": {},
    "version": 1
  }
}