{
  "contractName": "VerusNotarizer",
  "abi": [
    {
      "inputs": [],
      "stateMutability": "nonpayable",
      "type": "constructor"
    },
    {
      "anonymous": false,
      "inputs": [
        {
          "indexed": false,
          "internalType": "address",
          "name": "newAddress",
          "type": "address"
        }
      ],
      "name": "Deprecate",
      "type": "event"
    },
    {
      "anonymous": false,
      "inputs": [
        {
          "components": [
            {
              "internalType": "uint32",
              "name": "version",
              "type": "uint32"
            },
            {
              "internalType": "uint32",
              "name": "protocol",
              "type": "uint32"
            },
            {
              "internalType": "uint160",
              "name": "currencyID",
              "type": "uint160"
            },
            {
              "internalType": "uint160",
              "name": "notaryDest",
              "type": "uint160"
            },
            {
              "internalType": "uint32",
              "name": "notarizationHeight",
              "type": "uint32"
            },
            {
              "internalType": "uint256",
              "name": "mmrRoot",
              "type": "uint256"
            },
            {
              "internalType": "uint256",
              "name": "notarizationPreHash",
              "type": "uint256"
            },
            {
              "internalType": "uint256",
              "name": "compactPower",
              "type": "uint256"
            }
          ],
          "indexed": false,
          "internalType": "struct VerusNotarizer.NotarizedData",
          "name": "notarizedData",
          "type": "tuple"
        },
        {
          "indexed": false,
          "internalType": "uint64",
          "name": "notarizedDataHeight",
          "type": "uint64"
        }
      ],
      "name": "NewBlock",
      "type": "event"
    },
    {
      "anonymous": false,
      "inputs": [
        {
          "indexed": false,
          "internalType": "address",
          "name": "signedAddress",
          "type": "address"
        }
      ],
      "name": "signedAddress",
      "type": "event"
    },
    {
      "inputs": [
        {
          "internalType": "uint256",
          "name": "",
          "type": "uint256"
        }
      ],
      "name": "blockHeights",
      "outputs": [
        {
          "internalType": "uint32",
          "name": "",
          "type": "uint32"
        }
      ],
      "stateMutability": "view",
      "type": "function"
    },
    {
      "inputs": [],
      "name": "deprecated",
      "outputs": [
        {
          "internalType": "bool",
          "name": "",
          "type": "bool"
        }
      ],
      "stateMutability": "view",
      "type": "function"
    },
    {
      "inputs": [],
      "name": "lastBlockHeight",
      "outputs": [
        {
          "internalType": "uint32",
          "name": "",
          "type": "uint32"
        }
      ],
      "stateMutability": "view",
      "type": "function"
    },
    {
      "inputs": [
        {
          "internalType": "uint32",
          "name": "",
          "type": "uint32"
        }
      ],
      "name": "notarizedDataEntries",
      "outputs": [
        {
          "internalType": "bytes",
          "name": "",
          "type": "bytes"
        }
      ],
      "stateMutability": "view",
      "type": "function"
    },
    {
      "inputs": [],
      "name": "upgradedAddress",
      "outputs": [
        {
          "internalType": "address",
          "name": "",
          "type": "address"
        }
      ],
      "stateMutability": "view",
      "type": "function"
    },
    {
      "inputs": [
        {
          "internalType": "address",
          "name": "_notary",
          "type": "address"
        },
        {
          "internalType": "bytes32",
          "name": "_notarizedAddressHash",
          "type": "bytes32"
        },
        {
          "internalType": "bytes32[]",
          "name": "_rs",
          "type": "bytes32[]"
        },
        {
          "internalType": "bytes32[]",
          "name": "_ss",
          "type": "bytes32[]"
        },
        {
          "internalType": "uint8[]",
          "name": "_vs",
          "type": "uint8[]"
        }
      ],
      "name": "addNotary",
      "outputs": [
        {
          "internalType": "bool",
          "name": "",
          "type": "bool"
        }
      ],
      "stateMutability": "nonpayable",
      "type": "function"
    },
    {
      "inputs": [
        {
          "internalType": "address",
          "name": "_notary",
          "type": "address"
        }
      ],
      "name": "removeNotary",
      "outputs": [
        {
          "internalType": "bool",
          "name": "",
          "type": "bool"
        }
      ],
      "stateMutability": "nonpayable",
      "type": "function"
    },
    {
      "inputs": [],
      "name": "currentNotariesRequired",
      "outputs": [
        {
          "internalType": "uint8",
          "name": "",
          "type": "uint8"
        }
      ],
      "stateMutability": "view",
      "type": "function"
    },
    {
      "inputs": [
        {
          "components": [
            {
              "internalType": "uint32",
              "name": "version",
              "type": "uint32"
            },
            {
              "internalType": "uint32",
              "name": "protocol",
              "type": "uint32"
            },
            {
              "internalType": "uint160",
              "name": "currencyID",
              "type": "uint160"
            },
            {
              "internalType": "uint160",
              "name": "notaryDest",
              "type": "uint160"
            },
            {
              "internalType": "uint32",
              "name": "notarizationHeight",
              "type": "uint32"
            },
            {
              "internalType": "uint256",
              "name": "mmrRoot",
              "type": "uint256"
            },
            {
              "internalType": "uint256",
              "name": "notarizationPreHash",
              "type": "uint256"
            },
            {
              "internalType": "uint256",
              "name": "compactPower",
              "type": "uint256"
            }
          ],
          "internalType": "struct VerusNotarizer.NotarizedData",
          "name": "_notarizedDataDetail",
          "type": "tuple"
        },
        {
          "internalType": "bytes32",
          "name": "_notarizedDataHash",
          "type": "bytes32"
        },
        {
          "internalType": "bytes32[]",
          "name": "_rs",
          "type": "bytes32[]"
        },
        {
          "internalType": "bytes32[]",
          "name": "_ss",
          "type": "bytes32[]"
        },
        {
          "internalType": "uint8[]",
          "name": "_vs",
          "type": "uint8[]"
        }
      ],
      "name": "setLatestData",
      "outputs": [
        {
          "internalType": "bool",
          "name": "",
          "type": "bool"
        }
      ],
      "stateMutability": "nonpayable",
      "type": "function"
    },
    {
      "inputs": [],
      "name": "getLastNotarizedData",
      "outputs": [
        {
          "components": [
            {
              "internalType": "uint32",
              "name": "version",
              "type": "uint32"
            },
            {
              "internalType": "uint32",
              "name": "protocol",
              "type": "uint32"
            },
            {
              "internalType": "uint160",
              "name": "currencyID",
              "type": "uint160"
            },
            {
              "internalType": "uint160",
              "name": "notaryDest",
              "type": "uint160"
            },
            {
              "internalType": "uint32",
              "name": "notarizationHeight",
              "type": "uint32"
            },
            {
              "internalType": "uint256",
              "name": "mmrRoot",
              "type": "uint256"
            },
            {
              "internalType": "uint256",
              "name": "notarizationPreHash",
              "type": "uint256"
            },
            {
              "internalType": "uint256",
              "name": "compactPower",
              "type": "uint256"
            }
          ],
          "internalType": "struct VerusNotarizer.NotarizedData",
          "name": "",
          "type": "tuple"
        }
      ],
      "stateMutability": "view",
      "type": "function"
    },
    {
      "inputs": [
        {
          "internalType": "uint32",
          "name": "_blockHeight",
          "type": "uint32"
        }
      ],
      "name": "getNotarizedData",
      "outputs": [
        {
          "components": [
            {
              "internalType": "uint32",
              "name": "version",
              "type": "uint32"
            },
            {
              "internalType": "uint32",
              "name": "protocol",
              "type": "uint32"
            },
            {
              "internalType": "uint160",
              "name": "currencyID",
              "type": "uint160"
            },
            {
              "internalType": "uint160",
              "name": "notaryDest",
              "type": "uint160"
            },
            {
              "internalType": "uint32",
              "name": "notarizationHeight",
              "type": "uint32"
            },
            {
              "internalType": "uint256",
              "name": "mmrRoot",
              "type": "uint256"
            },
            {
              "internalType": "uint256",
              "name": "notarizationPreHash",
              "type": "uint256"
            },
            {
              "internalType": "uint256",
              "name": "compactPower",
              "type": "uint256"
            }
          ],
          "internalType": "struct VerusNotarizer.NotarizedData",
          "name": "",
          "type": "tuple"
        }
      ],
      "stateMutability": "view",
      "type": "function"
    },
    {
      "inputs": [],
      "name": "getLastBlockHeight",
      "outputs": [
        {
          "internalType": "uint32",
          "name": "",
          "type": "uint32"
        }
      ],
      "stateMutability": "view",
      "type": "function"
    },
    {
      "inputs": [],
      "name": "getAllBlockHeights",
      "outputs": [
        {
          "internalType": "uint32[]",
          "name": "",
          "type": "uint32[]"
        }
      ],
      "stateMutability": "view",
      "type": "function"
    }
  ],
  "bytecode": "0x6080604052600d600060196101000a81548160ff021916908360ff16021790555034801561002c57600080fd5b5060008060046101000a81548160ff0219169083151502179055506000600460006101000a81548160ff021916908360ff16021790555060008060006101000a81548163ffffffff021916908363ffffffff160217905550600033905060018060008373ffffffffffffffffffffffffffffffffffffffff1673ffffffffffffffffffffffffffffffffffffffff16815260200190815260200160002060006101000a81548160ff0219169083151502179055506004600081819054906101000a900460ff168092919060010191906101000a81548160ff021916908360ff160217905550505061232d806101226000396000f3fe608060405234801561001057600080fd5b50600436106100cf5760003560e01c80634b60ae631161008c5780636e080816116100665780636e080816146102185780638451a3a01461024857806386785a6f14610266578063eb32f71214610296576100cf565b80634b60ae631461019a5780635630ecd6146101b857806359d4d188146101e8576100cf565b806302394872146100d45780630e136b19146100f25780631d0404cb1461011057806320cd6ba11461014057806326976e3f1461015e5780633627cf1c1461017c575b600080fd5b6100dc6102c6565b6040516100e99190612011565b60405180910390f35b6100fa61032d565b6040516101079190611e08565b60405180910390f35b61012a600480360381019061012591906116f5565b610340565b6040516101379190611e08565b60405180910390f35b610148610697565b60405161015591906120aa565b60405180910390f35b61016661071b565b6040516101739190611dcb565b60405180910390f35b610184610741565b6040516101919190611fca565b60405180910390f35b6101a261086f565b6040516101af9190612011565b60405180910390f35b6101d260048036038101906101cd91906117e2565b610883565b6040516101df9190611e68565b60405180910390f35b61020260048036038101906101fd91906117e2565b610933565b60405161020f9190611fca565b60405180910390f35b610232600480360381019061022d91906117b9565b610a02565b60405161023f9190612011565b60405180910390f35b610250610a39565b60405161025d9190611de6565b60405180910390f35b610280600480360381019061027b919061160d565b610abd565b60405161028d9190611e08565b60405180910390f35b6102b060048036038101906102ab9190611636565b610d1a565b6040516102bd9190611e08565b60405180910390f35b60008060049054906101000a900460ff1615610317576040517f08c379a000000000000000000000000000000000000000000000000000000000815260040161030e90611e8a565b60405180910390fd5b60008054906101000a900463ffffffff16905090565b600060049054906101000a900460ff1681565b60008033905060011515600160008373ffffffffffffffffffffffffffffffffffffffff1673ffffffffffffffffffffffffffffffffffffffff16815260200190815260200160002060009054906101000a900460ff161515146103d9576040517f08c379a00000000000000000000000000000000000000000000000000000000081526004016103d090611eaa565b60405180910390fd5b600060049054906101000a900460ff1615610429576040517f08c379a000000000000000000000000000000000000000000000000000000000815260040161042090611e8a565b60405180910390fd5b600160003373ffffffffffffffffffffffffffffffffffffffff1673ffffffffffffffffffffffffffffffffffffffff16815260200190815260200160002060009054906101000a900460ff166104b5576040517f08c379a00000000000000000000000000000000000000000000000000000000081526004016104ac90611eca565b60405180910390fd5b835185511480156104c7575082518551145b610506576040517f08c379a00000000000000000000000000000000000000000000000000000000081526004016104fd90611f4a565b60405180910390fd5b60008054906101000a900463ffffffff1663ffffffff16876080015163ffffffff1611610568576040517f08c379a000000000000000000000000000000000000000000000000000000000815260040161055f90611f8a565b60405180910390fd5b606061057388610fc7565b90506105818787878761101e565b156106875780600260008a6080015163ffffffff1663ffffffff16815260200190815260200160002090805190602001906105bd929190611264565b506003886080015190806001815401808255809150506001900390600052602060002090600891828204019190066004029091909190916101000a81548163ffffffff021916908363ffffffff16021790555087608001516000806101000a81548163ffffffff021916908363ffffffff1602179055507fdad29582f3039647d6718f2f4496866217b915cd3f2d6fd2f7fb084a263f05ad8860008054906101000a900463ffffffff16604051610675929190611fe6565b60405180910390a1600192505061068d565b60009250505b5095945050505050565b60006001600460009054906101000a900460ff1660ff1614156106bd5760019050610718565b60006002600460009054906101000a900460ff1660ff16816106db57fe5b0460ff169050600060199054906101000a900460ff1660ff1681111561071357600060199054906101000a900460ff16915050610718565b809150505b90565b600060059054906101000a900473ffffffffffffffffffffffffffffffffffffffff1681565b6107496112e4565b600060049054906101000a900460ff1615610799576040517f08c379a000000000000000000000000000000000000000000000000000000000815260040161079090611e8a565b60405180910390fd5b61086a600260008060009054906101000a900463ffffffff1663ffffffff1663ffffffff1681526020019081526020016000208054600181600116156101000203166002900480601f0160208091040260200160405190810160405280929190818152602001828054600181600116156101000203166002900480156108605780601f1061083557610100808354040283529160200191610860565b820191906000526020600020905b81548152906001019060200180831161084357829003601f168201915b5050505050611113565b905090565b60008054906101000a900463ffffffff1681565b60026020528060005260406000206000915090508054600181600116156101000203166002900480601f01602080910402602001604051908101604052809291908181526020018280546001816001161561010002031660029004801561092b5780601f106109005761010080835404028352916020019161092b565b820191906000526020600020905b81548152906001019060200180831161090e57829003601f168201915b505050505081565b61093b6112e4565b6109fb600260008463ffffffff1663ffffffff1681526020019081526020016000208054600181600116156101000203166002900480601f0160208091040260200160405190810160405280929190818152602001828054600181600116156101000203166002900480156109f15780601f106109c6576101008083540402835291602001916109f1565b820191906000526020600020905b8154815290600101906020018083116109d457829003601f168201915b5050505050611113565b9050919050565b60038181548110610a0f57fe5b9060005260206000209060089182820401919006600402915054906101000a900463ffffffff1681565b60606003805480602002602001604051908101604052809291908181526020018280548015610ab357602002820191906000526020600020906000905b82829054906101000a900463ffffffff1663ffffffff1681526020019060040190602082600301049283019260010382029150808411610a765790505b5050505050905090565b60008033905060011515600160008373ffffffffffffffffffffffffffffffffffffffff1673ffffffffffffffffffffffffffffffffffffffff16815260200190815260200160002060009054906101000a900460ff16151514610b56576040517f08c379a0000000000000000000000000000000000000000000000000000000008152600401610b4d90611eaa565b60405180910390fd5b600060049054906101000a900460ff1615610ba6576040517f08c379a0000000000000000000000000000000000000000000000000000000008152600401610b9d90611e8a565b60405180910390fd5b60011515600160008573ffffffffffffffffffffffffffffffffffffffff1673ffffffffffffffffffffffffffffffffffffffff16815260200190815260200160002060009054906101000a900460ff16151514610c39576040517f08c379a0000000000000000000000000000000000000000000000000000000008152600401610c3090611eea565b60405180910390fd5b6001600460009054906101000a900460ff1660ff1611610c8e576040517f08c379a0000000000000000000000000000000000000000000000000000000008152600401610c8590611f0a565b60405180910390fd5b600160008473ffffffffffffffffffffffffffffffffffffffff1673ffffffffffffffffffffffffffffffffffffffff16815260200190815260200160002060006101000a81549060ff02191690556004600081819054906101000a900460ff16809291906001900391906101000a81548160ff021916908360ff160217905550506001915050919050565b60008033905060011515600160008373ffffffffffffffffffffffffffffffffffffffff1673ffffffffffffffffffffffffffffffffffffffff16815260200190815260200160002060009054906101000a900460ff16151514610db3576040517f08c379a0000000000000000000000000000000000000000000000000000000008152600401610daa90611eaa565b60405180910390fd5b610dbf8686868661101e565b610dfe576040517f08c379a0000000000000000000000000000000000000000000000000000000008152600401610df590611f6a565b60405180910390fd5b600060049054906101000a900460ff1615610e4e576040517f08c379a0000000000000000000000000000000000000000000000000000000008152600401610e4590611e8a565b60405180910390fd5b603c600460009054906101000a900460ff1660ff1610610ea3576040517f08c379a0000000000000000000000000000000000000000000000000000000008152600401610e9a90611f2a565b60405180910390fd5b600160008873ffffffffffffffffffffffffffffffffffffffff1673ffffffffffffffffffffffffffffffffffffffff16815260200190815260200160002060009054906101000a900460ff1615610f30576040517f08c379a0000000000000000000000000000000000000000000000000000000008152600401610f2790611faa565b60405180910390fd5b60018060008973ffffffffffffffffffffffffffffffffffffffff1673ffffffffffffffffffffffffffffffffffffffff16815260200190815260200160002060006101000a81548160ff0219169083151502179055506004600081819054906101000a900460ff168092919060010191906101000a81548160ff021916908360ff16021790555050600191505095945050505050565b6060816000015182602001518360400151846060015185608001518660a001518760c001518860e0015160405160200161100898979695949392919061202c565b6040516020818303038152906040529050919050565b6000806000805b86518110156110dd576110738886838151811061103e57fe5b602002602001015189848151811061105257fe5b602002602001015189858151811061106657fe5b6020026020010151611204565b9250600160008473ffffffffffffffffffffffffffffffffffffffff1673ffffffffffffffffffffffffffffffffffffffff16815260200190815260200160002060009054906101000a900460ff16156110d05781806001019250505b8080600101915050611025565b5060006110e8610697565b90508060ff168260ff1610611103576001935050505061110b565b600093505050505b949350505050565b61111b6112e4565b6111236112e4565b82806020019051810190611137919061180b565b88600001896020018a6040018b6060018c6080018d60a0018e60c0018f60e0018881525088815250888152508863ffffffff1663ffffffff168152508873ffffffffffffffffffffffffffffffffffffffff1673ffffffffffffffffffffffffffffffffffffffff168152508873ffffffffffffffffffffffffffffffffffffffff1673ffffffffffffffffffffffffffffffffffffffff168152508863ffffffff1663ffffffff168152508863ffffffff1663ffffffff16815250505050505050505080915050919050565b6000806001868686866040516000815260200160405260405161122a9493929190611e23565b6020604051602081039080840390855afa15801561124c573d6000803e3d6000fd5b50505060206040510351905080915050949350505050565b828054600181600116156101000203166002900490600052602060002090601f016020900481019282601f106112a557805160ff19168380011785556112d3565b828001600101855582156112d3579182015b828111156112d25782518255916020019190600101906112b7565b5b5090506112e09190611367565b5090565b604051806101000160405280600063ffffffff168152602001600063ffffffff168152602001600073ffffffffffffffffffffffffffffffffffffffff168152602001600073ffffffffffffffffffffffffffffffffffffffff168152602001600063ffffffff1681526020016000815260200160008152602001600081525090565b5b80821115611380576000816000905550600101611368565b5090565b6000813590506113938161226d565b92915050565b600082601f8301126113aa57600080fd5b81356113bd6113b8826120f2565b6120c5565b915081818352602084019350602081019050838560208402820111156113e257600080fd5b60005b8381101561141257816113f8888261149f565b8452602084019350602083019250506001810190506113e5565b5050505092915050565b600082601f83011261142d57600080fd5b813561144061143b8261211a565b6120c5565b9150818183526020840193506020810190508385602084028201111561146557600080fd5b60005b83811015611495578161147b88826115f8565b845260208401935060208301925050600181019050611468565b5050505092915050565b6000813590506114ae81612284565b92915050565b600061010082840312156114c757600080fd5b6114d26101006120c5565b905060006114e2848285016115ce565b60008301525060206114f6848285016115ce565b602083015250604061150a8482850161157a565b604083015250606061151e8482850161157a565b6060830152506080611532848285016115ce565b60808301525060a0611546848285016115a4565b60a08301525060c061155a848285016115a4565b60c08301525060e061156e848285016115a4565b60e08301525092915050565b6000813590506115898161229b565b92915050565b60008151905061159e8161229b565b92915050565b6000813590506115b3816122b2565b92915050565b6000815190506115c8816122b2565b92915050565b6000813590506115dd816122c9565b92915050565b6000815190506115f2816122c9565b92915050565b600081359050611607816122e0565b92915050565b60006020828403121561161f57600080fd5b600061162d84828501611384565b91505092915050565b600080600080600060a0868803121561164e57600080fd5b600061165c88828901611384565b955050602061166d8882890161149f565b945050604086013567ffffffffffffffff81111561168a57600080fd5b61169688828901611399565b935050606086013567ffffffffffffffff8111156116b357600080fd5b6116bf88828901611399565b925050608086013567ffffffffffffffff8111156116dc57600080fd5b6116e88882890161141c565b9150509295509295909350565b6000806000806000610180868803121561170e57600080fd5b600061171c888289016114b4565b95505061010061172e8882890161149f565b94505061012086013567ffffffffffffffff81111561174c57600080fd5b61175888828901611399565b93505061014086013567ffffffffffffffff81111561177657600080fd5b61178288828901611399565b92505061016086013567ffffffffffffffff8111156117a057600080fd5b6117ac8882890161141c565b9150509295509295909350565b6000602082840312156117cb57600080fd5b60006117d9848285016115a4565b91505092915050565b6000602082840312156117f457600080fd5b6000611802848285016115ce565b91505092915050565b600080600080600080600080610100898b03121561182857600080fd5b60006118368b828c016115e3565b98505060206118478b828c016115e3565b97505060406118588b828c0161158f565b96505060606118698b828c0161158f565b955050608061187a8b828c016115e3565b94505060a061188b8b828c016115b9565b93505060c061189c8b828c016115b9565b92505060e06118ad8b828c016115b9565b9150509295985092959890939650565b60006118c98383611d8f565b60208301905092915050565b6118de816121a8565b82525050565b60006118ef82612152565b6118f98185612175565b935061190483612142565b8060005b8381101561193557815161191c88826118bd565b975061192783612168565b925050600181019050611908565b5085935050505092915050565b61194b816121ba565b82525050565b61195a816121c6565b82525050565b600061196b8261215d565b6119758185612186565b9350611985818560208601612229565b61198e8161225c565b840191505092915050565b60006119a6601c83612197565b91507f436f6e747261637420686173206265656e2064657072656361746564000000006000830152602082019050919050565b60006119e6601683612197565b91507f43616c6c6572206973206e6f742061206e6f74617279000000000000000000006000830152602082019050919050565b6000611a26602483612197565b91507f4f6e6c792061206e6f746172792063616e2063616c6c20746869732066756e6360008301527f74696f6e000000000000000000000000000000000000000000000000000000006020830152604082019050919050565b6000611a8c601583612197565b91507f4e6f7461727920646f6573206e6f7420657869737400000000000000000000006000830152602082019050919050565b6000611acc601e83612197565b91507f4d7573742068617665206d6f7265207468616e206f6e65206e6f7461727900006000830152602082019050919050565b6000611b0c601f83612197565b91507f43616e742068617665206d6f7265207468616e203630206e6f746172696573006000830152602082019050919050565b6000611b4c602883612197565b91507f5369676e617475726520617272617973206d757374206265206f66206571756160008301527f6c206c656e6774680000000000000000000000000000000000000000000000006020830152604082019050919050565b6000611bb2602983612197565b91507f46756e6374696f6e2063616e206f6e6c7920626520657865637574656420627960008301527f206e6f74617269657300000000000000000000000000000000000000000000006020830152604082019050919050565b6000611c18603683612197565b91507f426c6f636b20486569676874206d75737420626520677265617465722074686160008301527f6e2063757272656e7420626c6f636b20686569676874000000000000000000006020830152604082019050919050565b6000611c7e601583612197565b91507f4e6f7461727920616c72656164792065786973747300000000000000000000006000830152602082019050919050565b61010082016000820151611cc86000850182611d8f565b506020820151611cdb6020850182611d8f565b506040820151611cee6040850182611d53565b506060820151611d016060850182611d53565b506080820151611d146080850182611d8f565b5060a0820151611d2760a0850182611d71565b5060c0820151611d3a60c0850182611d71565b5060e0820151611d4d60e0850182611d71565b50505050565b611d5c816121d0565b82525050565b611d6b816121d0565b82525050565b611d7a816121f0565b82525050565b611d89816121f0565b82525050565b611d98816121fa565b82525050565b611da7816121fa565b82525050565b611db681612217565b82525050565b611dc58161220a565b82525050565b6000602082019050611de060008301846118d5565b92915050565b60006020820190508181036000830152611e0081846118e4565b905092915050565b6000602082019050611e1d6000830184611942565b92915050565b6000608082019050611e386000830187611951565b611e456020830186611dbc565b611e526040830185611951565b611e5f6060830184611951565b95945050505050565b60006020820190508181036000830152611e828184611960565b905092915050565b60006020820190508181036000830152611ea381611999565b9050919050565b60006020820190508181036000830152611ec3816119d9565b9050919050565b60006020820190508181036000830152611ee381611a19565b9050919050565b60006020820190508181036000830152611f0381611a7f565b9050919050565b60006020820190508181036000830152611f2381611abf565b9050919050565b60006020820190508181036000830152611f4381611aff565b9050919050565b60006020820190508181036000830152611f6381611b3f565b9050919050565b60006020820190508181036000830152611f8381611ba5565b9050919050565b60006020820190508181036000830152611fa381611c0b565b9050919050565b60006020820190508181036000830152611fc381611c71565b9050919050565b600061010082019050611fe06000830184611cb1565b92915050565b600061012082019050611ffc6000830185611cb1565b61200a610100830184611dad565b9392505050565b60006020820190506120266000830184611d9e565b92915050565b600061010082019050612042600083018b611d9e565b61204f602083018a611d9e565b61205c6040830189611d62565b6120696060830188611d62565b6120766080830187611d9e565b61208360a0830186611d80565b61209060c0830185611d80565b61209d60e0830184611d80565b9998505050505050505050565b60006020820190506120bf6000830184611dbc565b92915050565b6000604051905081810181811067ffffffffffffffff821117156120e857600080fd5b8060405250919050565b600067ffffffffffffffff82111561210957600080fd5b602082029050602081019050919050565b600067ffffffffffffffff82111561213157600080fd5b602082029050602081019050919050565b6000819050602082019050919050565b600081519050919050565b600081519050919050565b6000602082019050919050565b600082825260208201905092915050565b600082825260208201905092915050565b600082825260208201905092915050565b60006121b3826121d0565b9050919050565b60008115159050919050565b6000819050919050565b600073ffffffffffffffffffffffffffffffffffffffff82169050919050565b6000819050919050565b600063ffffffff82169050919050565b600060ff82169050919050565b6000612222826121fa565b9050919050565b60005b8381101561224757808201518184015260208101905061222c565b83811115612256576000848401525b50505050565b6000601f19601f8301169050919050565b612276816121a8565b811461228157600080fd5b50565b61228d816121c6565b811461229857600080fd5b50565b6122a4816121d0565b81146122af57600080fd5b50565b6122bb816121f0565b81146122c657600080fd5b50565b6122d2816121fa565b81146122dd57600080fd5b50565b6122e98161220a565b81146122f457600080fd5b5056fea264697066735822122091c1337b3020a38d2db93c40a565a002820b727f58a2846617c488e2cb57876a64736f6c634300060c0033",
  "immutableReferences": {},
  "source": "// SPDX-License-Identifier: MIT\n// Bridge between ethereum and verus\n\npragma solidity >=0.6.0 <0.7.0;\npragma experimental ABIEncoderV2;\n\n\ncontract VerusNotarizer{\n\n    //last notarized blockheight\n    uint32 public lastBlockHeight;\n    //CurrencyState private lastCurrencyState;\n    //allows for the contract to be upgradable\n    bool public deprecated;\n    address public upgradedAddress;\n    //number of notaries required\n    uint8 requiredNotaries = 13;\n\n    //list of all notarizers mapped to allow for quick searching\n    mapping (address => bool) private komodoNotaries;\n    //mapped blockdetails\n    mapping (uint32 => bytes) public notarizedDataEntries;\n    uint32[] public blockHeights;\n    //used to record the number of notaries\n    uint8 private notaryCount;\n\n    struct NotarizedData{\n        uint32 version;\n        uint32 protocol;\n        uint160 currencyID;\n        uint160 notaryDest;\n        uint32 notarizationHeight;\n        uint256 mmrRoot;\n        uint256 notarizationPreHash;\n        uint256 compactPower;\n    }\n\n    struct TestData{\n        uint32 version;\n        uint32 protocol;\n        uint160 currencyID;\n        uint160 notaryDest;\n        uint32 notarizationHeight;\n        uint256 mmrRoot;\n    }\n  /*  \n    struct CurrencyState{\n        uint64[] reserveIn;\n        uint64[] nativeIn;\n        uint64[] reserveOut;\n        uint64[] conversionPrice;\n        uint64[] fees;\n        uint64[] conversionFees;\n    }\n  */  \n    // Notifies when the contract is deprecated\n    event Deprecate(address newAddress);\n    // Notifies when a new block hash is published\n    event NewBlock(NotarizedData notarizedData,uint64 notarizedDataHeight);\n    event signedAddress(address signedAddress);\n\n    constructor() public {\n        deprecated = false;\n        notaryCount = 0;\n        lastBlockHeight = 0;\n        //add in the owner as the first notary\n        address msgSender = msg.sender;\n        komodoNotaries[msgSender] = true;\n        notaryCount++;\n    }\n\n    modifier onlyNotary() {\n        address msgSender = msg.sender;\n        require(komodoNotaries[msgSender] == true, \"Caller is not a notary\");\n        _;\n    }\n\n    function addNotary(address _notary,\n        bytes32 _notarizedAddressHash,\n        bytes32[] memory _rs,\n        bytes32[] memory _ss,\n        uint8[] memory _vs) public onlyNotary\n    returns(bool){\n        require(isNotarized(_notarizedAddressHash,_rs,_ss,_vs),\"Function can only be executed by notaries\");\n        require(!deprecated,\"Contract has been deprecated\");\n        //if the the komodoNotaries is full reject\n        require(notaryCount < 60,\"Cant have more than 60 notaries\");\n        //if the notary already is in the komodNotaries then reject\n        require(!komodoNotaries[_notary],\"Notary already exists\");\n\n        komodoNotaries[_notary] = true;\n        notaryCount++;\n        return true;\n\n    }\n\n    function removeNotary(address _notary) public onlyNotary\n    returns(bool){\n\n        require(!deprecated,\"Contract has been deprecated\");\n        //if the notary is not in the list then fail\n        require(komodoNotaries[_notary] == true,\"Notary does not exist\");\n        //there must be at least one notary in the contract perhaps?\n        require(notaryCount > 1,\"Must have more than one notary\");\n        //need to look at this no easy way to delete from a mapping\n        delete komodoNotaries[_notary];\n        notaryCount--;\n        return true;\n\n    }\n\n    //this function allows for intially expanding out the number of notaries\n    function currentNotariesRequired() public view returns(uint8){\n        if(notaryCount == 1) return 1;\n        uint halfNotaryCount = notaryCount/2;\n        if(halfNotaryCount > requiredNotaries) return requiredNotaries;\n        else return uint8(halfNotaryCount);\n    }\n\n    function isNotarized(bytes32 notarizedDataHash,\n        bytes32[] memory _rs,\n        bytes32[] memory _ss,\n        uint8[] memory _vs) private view returns(bool){\n        \n        address signingAddress;\n        //total number of signatures that have been validated\n        uint8 numberOfSignatures = 0;\n\n        //loop through the arrays, check the following:\n        //does the hash in the hashedBlocks match the komodoBlockHash passed in\n        for(uint i = 0; i < _rs.length; i++){\n            //if the address is in the notary array increment the number of signatures\n            signingAddress = recoverSigner(notarizedDataHash, _vs[i], _rs[i], _ss[i]);\n            if(komodoNotaries[signingAddress]) {\n                numberOfSignatures++;\n            }\n        }\n        uint8 _requiredNotaries = currentNotariesRequired();\n        if(numberOfSignatures >= _requiredNotaries){\n            return true;\n        } else return false;\n\n    }\n\n    function setLatestData(NotarizedData memory _notarizedDataDetail,\n        bytes32 _notarizedDataHash,\n        bytes32[] memory _rs,\n        bytes32[] memory _ss,\n        uint8[] memory _vs) public onlyNotary returns(bool){\n\n        require(!deprecated,\"Contract has been deprecated\");\n        require(komodoNotaries[msg.sender],\"Only a notary can call this function\");\n        require((_rs.length == _ss.length) && (_rs.length == _vs.length),\"Signature arrays must be of equal length\");\n        require(_notarizedDataDetail.notarizationHeight > lastBlockHeight,\"Block Height must be greater than current block height\");\n\n        bytes memory serializedBlock = serializeData(_notarizedDataDetail);\n        //check the hash of the data\n        //need to check the block hash matches the hashed notarized block\n        \n        //if there is greater than 13 proper signatories then set the block hash\n        if(isNotarized(_notarizedDataHash,_rs,_ss,_vs)){\n            notarizedDataEntries[_notarizedDataDetail.notarizationHeight] = serializedBlock;\n            blockHeights.push(_notarizedDataDetail.notarizationHeight);\n            lastBlockHeight = _notarizedDataDetail.notarizationHeight;\n            //lastCurrencyState = _currencyState;\n            emit NewBlock(_notarizedDataDetail,lastBlockHeight);\n            return true;\n        } else return false;\n    }\n\n    function recoverSigner(bytes32 h, uint8 v, bytes32 r, bytes32 s) private pure returns (address) {\n        address addr = ecrecover(h, v, r, s);\n        return addr;\n    }\n\n\n    function getLastNotarizedData() public view returns(NotarizedData memory){\n\n        require(!deprecated,\"Contract has been deprecated\");\n        return deSerializeData(notarizedDataEntries[lastBlockHeight]);\n\n    }\n\n\n    function getNotarizedData(uint32 _blockHeight) public view returns(NotarizedData memory){\n\n        return deSerializeData(notarizedDataEntries[_blockHeight]);\n\n    }\n\n    function getLastBlockHeight() public view returns(uint32){\n\n        require(!deprecated,\"Contract has been deprecated\");\n        return lastBlockHeight;\n    }\n\n    function getAllBlockHeights() public view returns(uint32[] memory){\n        return blockHeights;\n    }\n\n    function deSerializeData(bytes memory _serializedBlock) private pure returns(NotarizedData memory){\n        NotarizedData memory deserializedBlock;\n\n        (deserializedBlock.version,\n        deserializedBlock.protocol,\n        deserializedBlock.currencyID,\n        deserializedBlock.notaryDest,\n        deserializedBlock.notarizationHeight,\n        deserializedBlock.mmrRoot,\n        deserializedBlock.notarizationPreHash,\n        deserializedBlock.compactPower\n        ) = abi.decode(_serializedBlock,(uint32,uint32,uint160,uint160,uint32,uint256,uint256,uint256));\n\n        return deserializedBlock;\n    }\n\n    function serializeData(NotarizedData memory _deserializedBlock) private pure returns(bytes memory){\n\n        return abi.encode(_deserializedBlock.version,\n        _deserializedBlock.protocol,\n        _deserializedBlock.currencyID,\n        _deserializedBlock.notaryDest,\n        _deserializedBlock.notarizationHeight,\n        _deserializedBlock.mmrRoot,\n        _deserializedBlock.notarizationPreHash,\n        _deserializedBlock.compactPower);\n\n    }\n\n    /*** temporary code for use on test net only will be removed for production */\n/*\n    function kill() public onlyNotary{\n        selfdestruct(msg.sender);\n    }\n*/\n    /**\n    * deprecate current contract\n    */\n/*    \n    function deprecate(address _upgradedAddress) public onlyNotary {\n        require(!deprecated,\"Contract has been deprecated\");\n        deprecated = true;\n        upgradedAddress = _upgradedAddress;\n        emit Deprecate(_upgradedAddress);\n    }\n*/\n}",
  "sourcePath": "/Volumes/UsersSSD/james/Development/komodo-notarisation-solidity/contracts/VerusNotarizer/VerusNotarizer.sol",
  "compiler": {
    "name": "solc",
    "version": "0.6.12+commit.27d51765.Emscripten.clang"
  },
  "schemaVersion": "3.3.0",
  "updatedAt": "2020-11-04T11:31:49.595Z",
  "devdoc": {
    "kind": "dev",
    "methods": {},
    "version": 1
  },
  "userdoc": {
    "kind": "user",
    "methods": {},
    "version": 1
  }
}