{
  "contractName": "VerusBridge",
  "abi": [
    {
      "inputs": [
        {
          "internalType": "address",
          "name": "verusProofAddress",
          "type": "address"
        },
        {
          "internalType": "address",
          "name": "tokenManagerAddress",
          "type": "address"
        },
        {
          "internalType": "address",
          "name": "verusSerializerAddress",
          "type": "address"
        },
        {
          "internalType": "address",
          "name": "verusNotarizerAddress",
          "type": "address"
        },
        {
          "internalType": "address",
          "name": "verusCCEAddress",
          "type": "address"
        },
        {
          "internalType": "uint256",
          "name": "_poolSize",
          "type": "uint256"
        }
      ],
      "stateMutability": "nonpayable",
      "type": "constructor"
    },
    {
      "anonymous": false,
      "inputs": [
        {
          "indexed": false,
          "internalType": "address",
          "name": "newAddress",
          "type": "address"
        }
      ],
      "name": "Deprecate",
      "type": "event"
    },
    {
      "inputs": [
        {
          "internalType": "uint256",
          "name": "",
          "type": "uint256"
        }
      ],
      "name": "SerializedCCEs",
      "outputs": [
        {
          "internalType": "bytes",
          "name": "",
          "type": "bytes"
        }
      ],
      "stateMutability": "view",
      "type": "function",
      "constant": true
    },
    {
      "inputs": [
        {
          "internalType": "uint256",
          "name": "",
          "type": "uint256"
        }
      ],
      "name": "SerializedCRTs",
      "outputs": [
        {
          "internalType": "bytes",
          "name": "",
          "type": "bytes"
        }
      ],
      "stateMutability": "view",
      "type": "function",
      "constant": true
    },
    {
      "inputs": [
        {
          "internalType": "uint256",
          "name": "",
          "type": "uint256"
        },
        {
          "internalType": "uint256",
          "name": "",
          "type": "uint256"
        }
      ],
      "name": "_readyExports",
      "outputs": [
        {
          "internalType": "uint32",
          "name": "version",
          "type": "uint32"
        },
        {
          "components": [
            {
              "internalType": "address",
              "name": "currency",
              "type": "address"
            },
            {
              "internalType": "uint64",
              "name": "amount",
              "type": "uint64"
            }
          ],
          "internalType": "struct VerusObjects.CCurrencyValueMap",
          "name": "currencyvalue",
          "type": "tuple"
        },
        {
          "internalType": "uint32",
          "name": "flags",
          "type": "uint32"
        },
        {
          "internalType": "address",
          "name": "feecurrencyid",
          "type": "address"
        },
        {
          "internalType": "uint256",
          "name": "fees",
          "type": "uint256"
        },
        {
          "components": [
            {
              "internalType": "uint8",
              "name": "destinationtype",
              "type": "uint8"
            },
            {
              "internalType": "address",
              "name": "destinationaddress",
              "type": "address"
            }
          ],
          "internalType": "struct VerusObjectsCommon.CTransferDestination",
          "name": "destination",
          "type": "tuple"
        },
        {
          "internalType": "address",
          "name": "destcurrencyid",
          "type": "address"
        },
        {
          "internalType": "address",
          "name": "destsystemid",
          "type": "address"
        },
        {
          "internalType": "address",
          "name": "secondreserveid",
          "type": "address"
        }
      ],
      "stateMutability": "view",
      "type": "function",
      "constant": true
    },
    {
      "inputs": [
        {
          "internalType": "address",
          "name": "",
          "type": "address"
        }
      ],
      "name": "claimableFees",
      "outputs": [
        {
          "internalType": "uint256",
          "name": "",
          "type": "uint256"
        }
      ],
      "stateMutability": "view",
      "type": "function",
      "constant": true
    },
    {
      "inputs": [],
      "name": "deprecated",
      "outputs": [
        {
          "internalType": "bool",
          "name": "",
          "type": "bool"
        }
      ],
      "stateMutability": "view",
      "type": "function",
      "constant": true
    },
    {
      "inputs": [],
      "name": "ethHeld",
      "outputs": [
        {
          "internalType": "uint256",
          "name": "",
          "type": "uint256"
        }
      ],
      "stateMutability": "view",
      "type": "function",
      "constant": true
    },
    {
      "inputs": [],
      "name": "feesHeld",
      "outputs": [
        {
          "internalType": "uint256",
          "name": "",
          "type": "uint256"
        }
      ],
      "stateMutability": "view",
      "type": "function",
      "constant": true
    },
    {
      "inputs": [],
      "name": "firstBlock",
      "outputs": [
        {
          "internalType": "uint256",
          "name": "",
          "type": "uint256"
        }
      ],
      "stateMutability": "view",
      "type": "function",
      "constant": true
    },
    {
      "inputs": [
        {
          "internalType": "uint256",
          "name": "",
          "type": "uint256"
        }
      ],
      "name": "hashedCRTs",
      "outputs": [
        {
          "internalType": "bytes32",
          "name": "",
          "type": "bytes32"
        }
      ],
      "stateMutability": "view",
      "type": "function",
      "constant": true
    },
    {
      "inputs": [],
      "name": "lastTxidimport",
      "outputs": [
        {
          "internalType": "uint256",
          "name": "",
          "type": "uint256"
        }
      ],
      "stateMutability": "view",
      "type": "function",
      "constant": true
    },
    {
      "inputs": [],
      "name": "lastimport",
      "outputs": [
        {
          "internalType": "uint256",
          "name": "height",
          "type": "uint256"
        },
        {
          "internalType": "bytes32",
          "name": "txid",
          "type": "bytes32"
        }
      ],
      "stateMutability": "view",
      "type": "function",
      "constant": true
    },
    {
      "inputs": [],
      "name": "poolSize",
      "outputs": [
        {
          "internalType": "uint256",
          "name": "",
          "type": "uint256"
        }
      ],
      "stateMutability": "view",
      "type": "function",
      "constant": true
    },
    {
      "inputs": [
        {
          "internalType": "bytes32",
          "name": "",
          "type": "bytes32"
        }
      ],
      "name": "processedTxids",
      "outputs": [
        {
          "internalType": "bool",
          "name": "",
          "type": "bool"
        }
      ],
      "stateMutability": "view",
      "type": "function",
      "constant": true
    },
    {
      "inputs": [
        {
          "internalType": "uint256",
          "name": "",
          "type": "uint256"
        }
      ],
      "name": "readyExportHashes",
      "outputs": [
        {
          "internalType": "bytes32",
          "name": "",
          "type": "bytes32"
        }
      ],
      "stateMutability": "view",
      "type": "function",
      "constant": true
    },
    {
      "inputs": [
        {
          "internalType": "uint256",
          "name": "",
          "type": "uint256"
        }
      ],
      "name": "readyExportsByBlock",
      "outputs": [
        {
          "internalType": "uint256",
          "name": "index",
          "type": "uint256"
        },
        {
          "internalType": "bool",
          "name": "created",
          "type": "bool"
        }
      ],
      "stateMutability": "view",
      "type": "function",
      "constant": true
    },
    {
      "inputs": [],
      "name": "upgradedAddress",
      "outputs": [
        {
          "internalType": "address",
          "name": "",
          "type": "address"
        }
      ],
      "stateMutability": "view",
      "type": "function",
      "constant": true
    },
    {
      "inputs": [
        {
          "internalType": "uint256",
          "name": "a",
          "type": "uint256"
        }
      ],
      "name": "convertToVerusNumber",
      "outputs": [
        {
          "internalType": "uint64",
          "name": "",
          "type": "uint64"
        }
      ],
      "stateMutability": "pure",
      "type": "function",
      "constant": true
    },
    {
      "inputs": [
        {
          "internalType": "uint256",
          "name": "a",
          "type": "uint256"
        }
      ],
      "name": "convertFromVerusNumber",
      "outputs": [
        {
          "internalType": "uint256",
          "name": "",
          "type": "uint256"
        }
      ],
      "stateMutability": "pure",
      "type": "function",
      "constant": true
    },
    {
      "inputs": [
        {
          "components": [
            {
              "internalType": "uint32",
              "name": "version",
              "type": "uint32"
            },
            {
              "components": [
                {
                  "internalType": "address",
                  "name": "currency",
                  "type": "address"
                },
                {
                  "internalType": "uint64",
                  "name": "amount",
                  "type": "uint64"
                }
              ],
              "internalType": "struct VerusObjects.CCurrencyValueMap",
              "name": "currencyvalue",
              "type": "tuple"
            },
            {
              "internalType": "uint32",
              "name": "flags",
              "type": "uint32"
            },
            {
              "internalType": "address",
              "name": "feecurrencyid",
              "type": "address"
            },
            {
              "internalType": "uint256",
              "name": "fees",
              "type": "uint256"
            },
            {
              "components": [
                {
                  "internalType": "uint8",
                  "name": "destinationtype",
                  "type": "uint8"
                },
                {
                  "internalType": "address",
                  "name": "destinationaddress",
                  "type": "address"
                }
              ],
              "internalType": "struct VerusObjectsCommon.CTransferDestination",
              "name": "destination",
              "type": "tuple"
            },
            {
              "internalType": "address",
              "name": "destcurrencyid",
              "type": "address"
            },
            {
              "internalType": "address",
              "name": "destsystemid",
              "type": "address"
            },
            {
              "internalType": "address",
              "name": "secondreserveid",
              "type": "address"
            }
          ],
          "internalType": "struct VerusObjects.CReserveTransfer",
          "name": "transfer",
          "type": "tuple"
        }
      ],
      "name": "export",
      "outputs": [],
      "stateMutability": "payable",
      "type": "function",
      "payable": true
    },
    {
      "inputs": [],
      "name": "getlastimportheight",
      "outputs": [
        {
          "internalType": "uint256",
          "name": "",
          "type": "uint256"
        }
      ],
      "stateMutability": "view",
      "type": "function",
      "constant": true
    },
    {
      "inputs": [
        {
          "internalType": "bytes32[]",
          "name": "_imports",
          "type": "bytes32[]"
        }
      ],
      "name": "checkImports",
      "outputs": [
        {
          "internalType": "bytes32[]",
          "name": "",
          "type": "bytes32[]"
        }
      ],
      "stateMutability": "view",
      "type": "function",
      "constant": true
    },
    {
      "inputs": [
        {
          "components": [
            {
              "internalType": "uint256",
              "name": "height",
              "type": "uint256"
            },
            {
              "internalType": "bytes32",
              "name": "txid",
              "type": "bytes32"
            },
            {
              "internalType": "uint256",
              "name": "txoutnum",
              "type": "uint256"
            },
            {
              "components": [
                {
                  "internalType": "uint16",
                  "name": "version",
                  "type": "uint16"
                },
                {
                  "internalType": "uint16",
                  "name": "flags",
                  "type": "uint16"
                },
                {
                  "internalType": "address",
                  "name": "sourcesystemid",
                  "type": "address"
                },
                {
                  "internalType": "uint32",
                  "name": "sourceheightstart",
                  "type": "uint32"
                },
                {
                  "internalType": "uint32",
                  "name": "sourceheightend",
                  "type": "uint32"
                },
                {
                  "internalType": "address",
                  "name": "destinationsystemid",
                  "type": "address"
                },
                {
                  "internalType": "address",
                  "name": "destinationcurrencyid",
                  "type": "address"
                },
                {
                  "internalType": "uint32",
                  "name": "numinputs",
                  "type": "uint32"
                },
                {
                  "components": [
                    {
                      "internalType": "address",
                      "name": "currency",
                      "type": "address"
                    },
                    {
                      "internalType": "uint64",
                      "name": "amount",
                      "type": "uint64"
                    }
                  ],
                  "internalType": "struct VerusObjects.CCurrencyValueMap[]",
                  "name": "totalamounts",
                  "type": "tuple[]"
                },
                {
                  "components": [
                    {
                      "internalType": "address",
                      "name": "currency",
                      "type": "address"
                    },
                    {
                      "internalType": "uint64",
                      "name": "amount",
                      "type": "uint64"
                    }
                  ],
                  "internalType": "struct VerusObjects.CCurrencyValueMap[]",
                  "name": "totalfees",
                  "type": "tuple[]"
                },
                {
                  "internalType": "bytes32",
                  "name": "hashtransfers",
                  "type": "bytes32"
                },
                {
                  "components": [
                    {
                      "internalType": "address",
                      "name": "currency",
                      "type": "address"
                    },
                    {
                      "internalType": "uint64",
                      "name": "amount",
                      "type": "uint64"
                    }
                  ],
                  "internalType": "struct VerusObjects.CCurrencyValueMap[]",
                  "name": "totalburned",
                  "type": "tuple[]"
                },
                {
                  "components": [
                    {
                      "internalType": "uint8",
                      "name": "destinationtype",
                      "type": "uint8"
                    },
                    {
                      "internalType": "address",
                      "name": "destinationaddress",
                      "type": "address"
                    }
                  ],
                  "internalType": "struct VerusObjectsCommon.CTransferDestination",
                  "name": "rewardaddress",
                  "type": "tuple"
                },
                {
                  "internalType": "int32",
                  "name": "firstinput",
                  "type": "int32"
                }
              ],
              "internalType": "struct VerusObjects.CCrossChainExport",
              "name": "exportinfo",
              "type": "tuple"
            },
            {
              "components": [
                {
                  "internalType": "uint8",
                  "name": "version",
                  "type": "uint8"
                },
                {
                  "internalType": "uint8",
                  "name": "typeC",
                  "type": "uint8"
                },
                {
                  "components": [
                    {
                      "internalType": "uint8",
                      "name": "branchType",
                      "type": "uint8"
                    },
                    {
                      "components": [
                        {
                          "internalType": "uint8",
                          "name": "CMerkleBranchBase",
                          "type": "uint8"
                        },
                        {
                          "internalType": "uint32",
                          "name": "nIndex",
                          "type": "uint32"
                        },
                        {
                          "internalType": "uint32",
                          "name": "nSize",
                          "type": "uint32"
                        },
                        {
                          "internalType": "bytes32[]",
                          "name": "branch",
                          "type": "bytes32[]"
                        }
                      ],
                      "internalType": "struct VerusObjects.CMerkleBranch",
                      "name": "proofSequence",
                      "type": "tuple"
                    }
                  ],
                  "internalType": "struct VerusObjects.CTXProof[]",
                  "name": "txproof",
                  "type": "tuple[]"
                },
                {
                  "components": [
                    {
                      "internalType": "uint8",
                      "name": "elType",
                      "type": "uint8"
                    },
                    {
                      "internalType": "uint8",
                      "name": "elIdx",
                      "type": "uint8"
                    },
                    {
                      "internalType": "bytes",
                      "name": "elVchObj",
                      "type": "bytes"
                    },
                    {
                      "components": [
                        {
                          "internalType": "uint8",
                          "name": "branchType",
                          "type": "uint8"
                        },
                        {
                          "components": [
                            {
                              "internalType": "uint8",
                              "name": "CMerkleBranchBase",
                              "type": "uint8"
                            },
                            {
                              "internalType": "uint32",
                              "name": "nIndex",
                              "type": "uint32"
                            },
                            {
                              "internalType": "uint32",
                              "name": "nSize",
                              "type": "uint32"
                            },
                            {
                              "internalType": "bytes32[]",
                              "name": "branch",
                              "type": "bytes32[]"
                            }
                          ],
                          "internalType": "struct VerusObjects.CMerkleBranch",
                          "name": "proofSequence",
                          "type": "tuple"
                        }
                      ],
                      "internalType": "struct VerusObjects.CTXProof[]",
                      "name": "elProof",
                      "type": "tuple[]"
                    },
                    {
                      "internalType": "uint32",
                      "name": "VchObjIndex",
                      "type": "uint32"
                    }
                  ],
                  "internalType": "struct VerusObjects.CComponents[]",
                  "name": "components",
                  "type": "tuple[]"
                }
              ],
              "internalType": "struct VerusObjects.CPtransactionproof",
              "name": "partialtransactionproof",
              "type": "tuple"
            },
            {
              "components": [
                {
                  "internalType": "uint32",
                  "name": "version",
                  "type": "uint32"
                },
                {
                  "components": [
                    {
                      "internalType": "address",
                      "name": "currency",
                      "type": "address"
                    },
                    {
                      "internalType": "uint64",
                      "name": "amount",
                      "type": "uint64"
                    }
                  ],
                  "internalType": "struct VerusObjects.CCurrencyValueMap",
                  "name": "currencyvalue",
                  "type": "tuple"
                },
                {
                  "internalType": "uint32",
                  "name": "flags",
                  "type": "uint32"
                },
                {
                  "internalType": "address",
                  "name": "feecurrencyid",
                  "type": "address"
                },
                {
                  "internalType": "uint256",
                  "name": "fees",
                  "type": "uint256"
                },
                {
                  "components": [
                    {
                      "internalType": "uint8",
                      "name": "destinationtype",
                      "type": "uint8"
                    },
                    {
                      "internalType": "address",
                      "name": "destinationaddress",
                      "type": "address"
                    }
                  ],
                  "internalType": "struct VerusObjectsCommon.CTransferDestination",
                  "name": "destination",
                  "type": "tuple"
                },
                {
                  "internalType": "address",
                  "name": "destcurrencyid",
                  "type": "address"
                },
                {
                  "internalType": "address",
                  "name": "destsystemid",
                  "type": "address"
                },
                {
                  "internalType": "address",
                  "name": "secondreserveid",
                  "type": "address"
                }
              ],
              "internalType": "struct VerusObjects.CReserveTransfer[]",
              "name": "transfers",
              "type": "tuple[]"
            }
          ],
          "internalType": "struct VerusObjects.CReserveTransferImport[]",
          "name": "_imports",
          "type": "tuple[]"
        }
      ],
      "name": "submitImports",
      "outputs": [],
      "stateMutability": "nonpayable",
      "type": "function"
    },
    {
      "inputs": [
        {
          "components": [
            {
              "internalType": "uint256",
              "name": "height",
              "type": "uint256"
            },
            {
              "internalType": "bytes32",
              "name": "txid",
              "type": "bytes32"
            },
            {
              "internalType": "uint256",
              "name": "txoutnum",
              "type": "uint256"
            },
            {
              "components": [
                {
                  "internalType": "uint16",
                  "name": "version",
                  "type": "uint16"
                },
                {
                  "internalType": "uint16",
                  "name": "flags",
                  "type": "uint16"
                },
                {
                  "internalType": "address",
                  "name": "sourcesystemid",
                  "type": "address"
                },
                {
                  "internalType": "uint32",
                  "name": "sourceheightstart",
                  "type": "uint32"
                },
                {
                  "internalType": "uint32",
                  "name": "sourceheightend",
                  "type": "uint32"
                },
                {
                  "internalType": "address",
                  "name": "destinationsystemid",
                  "type": "address"
                },
                {
                  "internalType": "address",
                  "name": "destinationcurrencyid",
                  "type": "address"
                },
                {
                  "internalType": "uint32",
                  "name": "numinputs",
                  "type": "uint32"
                },
                {
                  "components": [
                    {
                      "internalType": "address",
                      "name": "currency",
                      "type": "address"
                    },
                    {
                      "internalType": "uint64",
                      "name": "amount",
                      "type": "uint64"
                    }
                  ],
                  "internalType": "struct VerusObjects.CCurrencyValueMap[]",
                  "name": "totalamounts",
                  "type": "tuple[]"
                },
                {
                  "components": [
                    {
                      "internalType": "address",
                      "name": "currency",
                      "type": "address"
                    },
                    {
                      "internalType": "uint64",
                      "name": "amount",
                      "type": "uint64"
                    }
                  ],
                  "internalType": "struct VerusObjects.CCurrencyValueMap[]",
                  "name": "totalfees",
                  "type": "tuple[]"
                },
                {
                  "internalType": "bytes32",
                  "name": "hashtransfers",
                  "type": "bytes32"
                },
                {
                  "components": [
                    {
                      "internalType": "address",
                      "name": "currency",
                      "type": "address"
                    },
                    {
                      "internalType": "uint64",
                      "name": "amount",
                      "type": "uint64"
                    }
                  ],
                  "internalType": "struct VerusObjects.CCurrencyValueMap[]",
                  "name": "totalburned",
                  "type": "tuple[]"
                },
                {
                  "components": [
                    {
                      "internalType": "uint8",
                      "name": "destinationtype",
                      "type": "uint8"
                    },
                    {
                      "internalType": "address",
                      "name": "destinationaddress",
                      "type": "address"
                    }
                  ],
                  "internalType": "struct VerusObjectsCommon.CTransferDestination",
                  "name": "rewardaddress",
                  "type": "tuple"
                },
                {
                  "internalType": "int32",
                  "name": "firstinput",
                  "type": "int32"
                }
              ],
              "internalType": "struct VerusObjects.CCrossChainExport",
              "name": "exportinfo",
              "type": "tuple"
            },
            {
              "components": [
                {
                  "internalType": "uint8",
                  "name": "version",
                  "type": "uint8"
                },
                {
                  "internalType": "uint8",
                  "name": "typeC",
                  "type": "uint8"
                },
                {
                  "components": [
                    {
                      "internalType": "uint8",
                      "name": "branchType",
                      "type": "uint8"
                    },
                    {
                      "components": [
                        {
                          "internalType": "uint8",
                          "name": "CMerkleBranchBase",
                          "type": "uint8"
                        },
                        {
                          "internalType": "uint32",
                          "name": "nIndex",
                          "type": "uint32"
                        },
                        {
                          "internalType": "uint32",
                          "name": "nSize",
                          "type": "uint32"
                        },
                        {
                          "internalType": "bytes32[]",
                          "name": "branch",
                          "type": "bytes32[]"
                        }
                      ],
                      "internalType": "struct VerusObjects.CMerkleBranch",
                      "name": "proofSequence",
                      "type": "tuple"
                    }
                  ],
                  "internalType": "struct VerusObjects.CTXProof[]",
                  "name": "txproof",
                  "type": "tuple[]"
                },
                {
                  "components": [
                    {
                      "internalType": "uint8",
                      "name": "elType",
                      "type": "uint8"
                    },
                    {
                      "internalType": "uint8",
                      "name": "elIdx",
                      "type": "uint8"
                    },
                    {
                      "internalType": "bytes",
                      "name": "elVchObj",
                      "type": "bytes"
                    },
                    {
                      "components": [
                        {
                          "internalType": "uint8",
                          "name": "branchType",
                          "type": "uint8"
                        },
                        {
                          "components": [
                            {
                              "internalType": "uint8",
                              "name": "CMerkleBranchBase",
                              "type": "uint8"
                            },
                            {
                              "internalType": "uint32",
                              "name": "nIndex",
                              "type": "uint32"
                            },
                            {
                              "internalType": "uint32",
                              "name": "nSize",
                              "type": "uint32"
                            },
                            {
                              "internalType": "bytes32[]",
                              "name": "branch",
                              "type": "bytes32[]"
                            }
                          ],
                          "internalType": "struct VerusObjects.CMerkleBranch",
                          "name": "proofSequence",
                          "type": "tuple"
                        }
                      ],
                      "internalType": "struct VerusObjects.CTXProof[]",
                      "name": "elProof",
                      "type": "tuple[]"
                    },
                    {
                      "internalType": "uint32",
                      "name": "VchObjIndex",
                      "type": "uint32"
                    }
                  ],
                  "internalType": "struct VerusObjects.CComponents[]",
                  "name": "components",
                  "type": "tuple[]"
                }
              ],
              "internalType": "struct VerusObjects.CPtransactionproof",
              "name": "partialtransactionproof",
              "type": "tuple"
            },
            {
              "components": [
                {
                  "internalType": "uint32",
                  "name": "version",
                  "type": "uint32"
                },
                {
                  "components": [
                    {
                      "internalType": "address",
                      "name": "currency",
                      "type": "address"
                    },
                    {
                      "internalType": "uint64",
                      "name": "amount",
                      "type": "uint64"
                    }
                  ],
                  "internalType": "struct VerusObjects.CCurrencyValueMap",
                  "name": "currencyvalue",
                  "type": "tuple"
                },
                {
                  "internalType": "uint32",
                  "name": "flags",
                  "type": "uint32"
                },
                {
                  "internalType": "address",
                  "name": "feecurrencyid",
                  "type": "address"
                },
                {
                  "internalType": "uint256",
                  "name": "fees",
                  "type": "uint256"
                },
                {
                  "components": [
                    {
                      "internalType": "uint8",
                      "name": "destinationtype",
                      "type": "uint8"
                    },
                    {
                      "internalType": "address",
                      "name": "destinationaddress",
                      "type": "address"
                    }
                  ],
                  "internalType": "struct VerusObjectsCommon.CTransferDestination",
                  "name": "destination",
                  "type": "tuple"
                },
                {
                  "internalType": "address",
                  "name": "destcurrencyid",
                  "type": "address"
                },
                {
                  "internalType": "address",
                  "name": "destsystemid",
                  "type": "address"
                },
                {
                  "internalType": "address",
                  "name": "secondreserveid",
                  "type": "address"
                }
              ],
              "internalType": "struct VerusObjects.CReserveTransfer[]",
              "name": "transfers",
              "type": "tuple[]"
            }
          ],
          "internalType": "struct VerusObjects.CReserveTransferImport",
          "name": "_import",
          "type": "tuple"
        }
      ],
      "name": "_createImports",
      "outputs": [
        {
          "internalType": "bool",
          "name": "",
          "type": "bool"
        }
      ],
      "stateMutability": "nonpayable",
      "type": "function"
    },
    {
      "inputs": [
        {
          "internalType": "uint256",
          "name": "_blockNumber",
          "type": "uint256"
        }
      ],
      "name": "getReadyExportsByBlock",
      "outputs": [
        {
          "components": [
            {
              "internalType": "uint256",
              "name": "position",
              "type": "uint256"
            },
            {
              "internalType": "uint256",
              "name": "blockHeight",
              "type": "uint256"
            },
            {
              "internalType": "bytes32",
              "name": "exportHash",
              "type": "bytes32"
            },
            {
              "components": [
                {
                  "internalType": "uint32",
                  "name": "version",
                  "type": "uint32"
                },
                {
                  "components": [
                    {
                      "internalType": "address",
                      "name": "currency",
                      "type": "address"
                    },
                    {
                      "internalType": "uint64",
                      "name": "amount",
                      "type": "uint64"
                    }
                  ],
                  "internalType": "struct VerusObjects.CCurrencyValueMap",
                  "name": "currencyvalue",
                  "type": "tuple"
                },
                {
                  "internalType": "uint32",
                  "name": "flags",
                  "type": "uint32"
                },
                {
                  "internalType": "address",
                  "name": "feecurrencyid",
                  "type": "address"
                },
                {
                  "internalType": "uint256",
                  "name": "fees",
                  "type": "uint256"
                },
                {
                  "components": [
                    {
                      "internalType": "uint8",
                      "name": "destinationtype",
                      "type": "uint8"
                    },
                    {
                      "internalType": "address",
                      "name": "destinationaddress",
                      "type": "address"
                    }
                  ],
                  "internalType": "struct VerusObjectsCommon.CTransferDestination",
                  "name": "destination",
                  "type": "tuple"
                },
                {
                  "internalType": "address",
                  "name": "destcurrencyid",
                  "type": "address"
                },
                {
                  "internalType": "address",
                  "name": "destsystemid",
                  "type": "address"
                },
                {
                  "internalType": "address",
                  "name": "secondreserveid",
                  "type": "address"
                }
              ],
              "internalType": "struct VerusObjects.CReserveTransfer[]",
              "name": "transfers",
              "type": "tuple[]"
            }
          ],
          "internalType": "struct VerusObjects.CReserveTransferSet",
          "name": "",
          "type": "tuple"
        }
      ],
      "stateMutability": "view",
      "type": "function",
      "constant": true
    },
    {
      "inputs": [
        {
          "internalType": "uint256",
          "name": "_startBlock",
          "type": "uint256"
        },
        {
          "internalType": "uint256",
          "name": "_endBlock",
          "type": "uint256"
        }
      ],
      "name": "getReadyExportsByRange",
      "outputs": [
        {
          "components": [
            {
              "internalType": "uint256",
              "name": "position",
              "type": "uint256"
            },
            {
              "internalType": "uint256",
              "name": "blockHeight",
              "type": "uint256"
            },
            {
              "internalType": "bytes32",
              "name": "exportHash",
              "type": "bytes32"
            },
            {
              "components": [
                {
                  "internalType": "uint32",
                  "name": "version",
                  "type": "uint32"
                },
                {
                  "components": [
                    {
                      "internalType": "address",
                      "name": "currency",
                      "type": "address"
                    },
                    {
                      "internalType": "uint64",
                      "name": "amount",
                      "type": "uint64"
                    }
                  ],
                  "internalType": "struct VerusObjects.CCurrencyValueMap",
                  "name": "currencyvalue",
                  "type": "tuple"
                },
                {
                  "internalType": "uint32",
                  "name": "flags",
                  "type": "uint32"
                },
                {
                  "internalType": "address",
                  "name": "feecurrencyid",
                  "type": "address"
                },
                {
                  "internalType": "uint256",
                  "name": "fees",
                  "type": "uint256"
                },
                {
                  "components": [
                    {
                      "internalType": "uint8",
                      "name": "destinationtype",
                      "type": "uint8"
                    },
                    {
                      "internalType": "address",
                      "name": "destinationaddress",
                      "type": "address"
                    }
                  ],
                  "internalType": "struct VerusObjectsCommon.CTransferDestination",
                  "name": "destination",
                  "type": "tuple"
                },
                {
                  "internalType": "address",
                  "name": "destcurrencyid",
                  "type": "address"
                },
                {
                  "internalType": "address",
                  "name": "destsystemid",
                  "type": "address"
                },
                {
                  "internalType": "address",
                  "name": "secondreserveid",
                  "type": "address"
                }
              ],
              "internalType": "struct VerusObjects.CReserveTransfer[]",
              "name": "transfers",
              "type": "tuple[]"
            }
          ],
          "internalType": "struct VerusObjects.CReserveTransferSet[]",
          "name": "",
          "type": "tuple[]"
        }
      ],
      "stateMutability": "view",
      "type": "function",
      "constant": true
    },
    {
      "inputs": [],
      "name": "claimFees",
      "outputs": [
        {
          "internalType": "uint256",
          "name": "",
          "type": "uint256"
        }
      ],
      "stateMutability": "nonpayable",
      "type": "function"
    }
  ],
  "bytecode": "0x60806040526000600560146101000a81548160ff0219169083151502179055506000600755600060085560006009556000600a553480156200004057600080fd5b506040516200614538038062006145833981810160405281019062000066919062000244565b33600560006101000a81548173ffffffffffffffffffffffffffffffffffffffff021916908373ffffffffffffffffffffffffffffffffffffffff16021790555085600260006101000a81548173ffffffffffffffffffffffffffffffffffffffff021916908373ffffffffffffffffffffffffffffffffffffffff160217905550846000806101000a81548173ffffffffffffffffffffffffffffffffffffffff021916908373ffffffffffffffffffffffffffffffffffffffff16021790555083600160006101000a81548173ffffffffffffffffffffffffffffffffffffffff021916908373ffffffffffffffffffffffffffffffffffffffff16021790555082600360006101000a81548173ffffffffffffffffffffffffffffffffffffffff021916908373ffffffffffffffffffffffffffffffffffffffff16021790555081600460006101000a81548173ffffffffffffffffffffffffffffffffffffffff021916908373ffffffffffffffffffffffffffffffffffffffff160217905550806009819055506000600e600001819055506000801b600e600101819055505050505050506200034c565b600081519050620002278162000318565b92915050565b6000815190506200023e8162000332565b92915050565b60008060008060008060c087890312156200025e57600080fd5b60006200026e89828a0162000216565b96505060206200028189828a0162000216565b95505060406200029489828a0162000216565b9450506060620002a789828a0162000216565b9350506080620002ba89828a0162000216565b92505060a0620002cd89828a016200022d565b9150509295509295509295565b6000620002e782620002ee565b9050919050565b600073ffffffffffffffffffffffffffffffffffffffff82169050919050565b6000819050919050565b6200032381620002da565b81146200032f57600080fd5b50565b6200033d816200030e565b81146200034957600080fd5b50565b615de9806200035c6000396000f3fe6080604052600436106101815760003560e01c8063529cb5a1116100d1578063d294f0931161008a578063e45b909d11610064578063e45b909d14610609578063e4804abc14610646578063e4f30a9f14610683578063e9fc7ae7146106ae57610181565b8063d294f09314610578578063d83aa63c146105a3578063df7dc506146105e057610181565b8063529cb5a1146104125780635f2edcbe1461044f5780637e0b24921461047b5780637e3e661b146104b8578063b85c0acb146104fd578063c17a4eef1461053a57610181565b806333bc02fa1161013e5780633f067b20116101185780633f067b201461035457806342ce50111461037f57806344e5ffd3146103aa5780634ec18db9146103e757610181565b806333bc02fa1461029d578063388eee6c146102da5780633ee2ce851461031757610181565b80630e136b1914610186578063231b0268146101b157806326976e3f146101dc5780632a9e72a6146102075780632d5beadc14610244578063327d426314610260575b600080fd5b34801561019257600080fd5b5061019b6106d9565b6040516101a89190615420565b60405180910390f35b3480156101bd57600080fd5b506101c66106ec565b6040516101d391906155fe565b60405180910390f35b3480156101e857600080fd5b506101f16106f2565b6040516101fe91906152af565b60405180910390f35b34801561021357600080fd5b5061022e600480360381019061022991906140cf565b610718565b60405161023b91906155dc565b60405180910390f35b61025e600480360381019061025991906140a5565b610abf565b005b34801561026c57600080fd5b5061028760048036038101906102829190613fb9565b611009565b6040516102949190615420565b60405180910390f35b3480156102a957600080fd5b506102c460048036038101906102bf9190614064565b611029565b6040516102d19190615420565b60405180910390f35b3480156102e657600080fd5b5061030160048036038101906102fc91906140cf565b611557565b60405161030e91906156fa565b60405180910390f35b34801561032357600080fd5b5061033e600480360381019061033991906140cf565b611574565b60405161034b9190615456565b60405180910390f35b34801561036057600080fd5b50610369611630565b60405161037691906155fe565b60405180910390f35b34801561038b57600080fd5b50610394611636565b6040516103a191906155fe565b60405180910390f35b3480156103b657600080fd5b506103d160048036038101906103cc91906140cf565b61163c565b6040516103de919061543b565b60405180910390f35b3480156103f357600080fd5b506103fc611660565b60405161040991906155fe565b60405180910390f35b34801561041e57600080fd5b50610439600480360381019061043491906140cf565b611666565b60405161044691906155fe565b60405180910390f35b34801561045b57600080fd5b5061046461167c565b604051610472929190615642565b60405180910390f35b34801561048757600080fd5b506104a2600480360381019061049d9190613e96565b61168e565b6040516104af91906155fe565b60405180910390f35b3480156104c457600080fd5b506104df60048036038101906104da9190614121565b6116a6565b6040516104f49998979695949392919061566b565b60405180910390f35b34801561050957600080fd5b50610524600480360381019061051f9190613f0e565b6118cc565b604051610531919061538a565b60405180910390f35b34801561054657600080fd5b50610561600480360381019061055c91906140cf565b6119b7565b60405161056f929190615619565b60405180910390f35b34801561058457600080fd5b5061058d6119e8565b60405161059a91906155fe565b60405180910390f35b3480156105af57600080fd5b506105ca60048036038101906105c591906140cf565b611b11565b6040516105d79190615456565b60405180910390f35b3480156105ec57600080fd5b5061060760048036038101906106029190613f4f565b611bcd565b005b34801561061557600080fd5b50610630600480360381019061062b91906140cf565b611c07565b60405161063d919061543b565b60405180910390f35b34801561065257600080fd5b5061066d60048036038101906106689190614121565b611c2b565b60405161067a91906153ac565b60405180910390f35b34801561068f57600080fd5b50610698611d5a565b6040516106a591906155fe565b60405180910390f35b3480156106ba57600080fd5b506106c3611d64565b6040516106d091906155fe565b60405180910390f35b600560149054906101000a900460ff1681565b600a5481565b600660009054906101000a900473ffffffffffffffffffffffffffffffffffffffff1681565b6107206129e3565b60006011600084815260200190815260200160002060000154905060006040518060800160405280838152602001858152602001600b848154811061076157fe5b90600052602060002001548152602001600d848154811061077e57fe5b90600052602060002001805480602002602001604051908101604052809291908181526020016000905b82821015610aac5783829060005260206000209060080201604051806101200160405290816000820160009054906101000a900463ffffffff1663ffffffff1663ffffffff168152602001600182016040518060400160405290816000820160009054906101000a900473ffffffffffffffffffffffffffffffffffffffff1673ffffffffffffffffffffffffffffffffffffffff1673ffffffffffffffffffffffffffffffffffffffff1681526020016000820160149054906101000a900467ffffffffffffffff1667ffffffffffffffff1667ffffffffffffffff168152505081526020016002820160009054906101000a900463ffffffff1663ffffffff1663ffffffff1681526020016002820160049054906101000a900473ffffffffffffffffffffffffffffffffffffffff1673ffffffffffffffffffffffffffffffffffffffff1673ffffffffffffffffffffffffffffffffffffffff16815260200160038201548152602001600482016040518060400160405290816000820160009054906101000a900460ff1660ff1660ff1681526020016000820160019054906101000a900473ffffffffffffffffffffffffffffffffffffffff1673ffffffffffffffffffffffffffffffffffffffff1673ffffffffffffffffffffffffffffffffffffffff168152505081526020016005820160009054906101000a900473ffffffffffffffffffffffffffffffffffffffff1673ffffffffffffffffffffffffffffffffffffffff1673ffffffffffffffffffffffffffffffffffffffff1681526020016006820160009054906101000a900473ffffffffffffffffffffffffffffffffffffffff1673ffffffffffffffffffffffffffffffffffffffff1673ffffffffffffffffffffffffffffffffffffffff1681526020016007820160009054906101000a900473ffffffffffffffffffffffffffffffffffffffff1673ffffffffffffffffffffffffffffffffffffffff1673ffffffffffffffffffffffffffffffffffffffff1681525050815260200190600101906107a8565b5050505081525090508092505050919050565b600560149054906101000a900460ff1615610b0f576040517f08c379a0000000000000000000000000000000000000000000000000000000008152600401610b0690615498565b60405180910390fd5b806080015167ffffffffffffffff16655af3107a400001341015610b68576040517f08c379a0000000000000000000000000000000000000000000000000000000008152600401610b5f90615578565b60405180910390fd5b7367460c2f56774ed27eeb8685f29f6cec0b090b0073ffffffffffffffffffffffffffffffffffffffff1681602001516000015173ffffffffffffffffffffffffffffffffffffffff1614610f90573460076000828254019250508190555060008060008060009054906101000a900473ffffffffffffffffffffffffffffffffffffffff1673ffffffffffffffffffffffffffffffffffffffff1663b17f15a28560200151600001516040518263ffffffff1660e01b8152600401610c2e91906152af565b60606040518083038186803b158015610c4657600080fd5b505afa158015610c5a573d6000803e3d6000fd5b505050506040513d601f19601f82011682018060405250810190610c7e9190613ebf565b92509250925080610cc4576040517f08c379a0000000000000000000000000000000000000000000000000000000008152600401610cbb90615538565b60405180910390fd5b600083905060008173ffffffffffffffffffffffffffffffffffffffff1663dd62ed3e33306040518363ffffffff1660e01b8152600401610d069291906152ca565b60206040518083038186803b158015610d1e57600080fd5b505afa158015610d32573d6000803e3d6000fd5b505050506040513d601f19601f82011682018060405250810190610d5691906140f8565b90506000610d7587602001516020015167ffffffffffffffff16611666565b905080821015610dba576040517f08c379a0000000000000000000000000000000000000000000000000000000008152600401610db190615558565b60405180910390fd5b8273ffffffffffffffffffffffffffffffffffffffff166323b872dd3330846040518463ffffffff1660e01b8152600401610df7939291906152f3565b602060405180830381600087803b158015610e1157600080fd5b505af1158015610e25573d6000803e3d6000fd5b505050506040513d601f19601f82011682018060405250810190610e499190613f90565b508273ffffffffffffffffffffffffffffffffffffffff1663095ea7b360008054906101000a900473ffffffffffffffffffffffffffffffffffffffff16836040518363ffffffff1660e01b8152600401610ea592919061532a565b602060405180830381600087803b158015610ebf57600080fd5b505af1158015610ed3573d6000803e3d6000fd5b505050506040513d601f19601f82011682018060405250810190610ef79190613f90565b5060008054906101000a900473ffffffffffffffffffffffffffffffffffffffff1673ffffffffffffffffffffffffffffffffffffffff16639033ef3f87836040518363ffffffff1660e01b8152600401610f5392919061532a565b600060405180830381600087803b158015610f6d57600080fd5b505af1158015610f81573d6000803e3d6000fd5b50505050505050505050610ffd565b610fa1655af3107a40003403611557565b81602001516020019067ffffffffffffffff16908167ffffffffffffffff168152505080602001516020015167ffffffffffffffff16600860008282540192505081905550655af3107a40006007600082825401925050819055505b61100681611d6a565b50565b60106020528060005260406000206000915054906101000a900460ff1681565b600060011515601060008460200151815260200190815260200160002060009054906101000a900460ff16151514156110655760009050611552565b60008083608001516060015160008151811061107d57fe5b602002602001015160400151905060208101519150818460200151146110d8576040517f08c379a00000000000000000000000000000000000000000000000000000000081526004016110cf906154b8565b60405180910390fd5b6000600260009054906101000a900473ffffffffffffffffffffffffffffffffffffffff1673ffffffffffffffffffffffffffffffffffffffff16638f59b004866040518263ffffffff1660e01b815260040161113591906155ba565b60206040518083038186803b15801561114d57600080fd5b505afa158015611161573d6000803e3d6000fd5b505050506040513d601f19601f820116820180604052508101906111859190613f90565b9050806111c7576040517f08c379a00000000000000000000000000000000000000000000000000000000081526004016111be906154d8565b60405180910390fd5b6001601060008760200151815260200190815260200160002060006101000a81548160ff021916908315150217905550846000015160165410156112115784600001516016819055505b600080600090505b8660a0015151811015611548576112588760a00151828151811061123957fe5b6020026020010151602001516020015167ffffffffffffffff16611666565b91507367460c2f56774ed27eeb8685f29f6cec0b090b0073ffffffffffffffffffffffffffffffffffffffff168760a00151828151811061129557fe5b6020026020010151602001516000015173ffffffffffffffffffffffffffffffffffffffff1614156113425747821115611304576040517f08c379a00000000000000000000000000000000000000000000000000000000081526004016112fb906154f8565b60405180910390fd5b61132d828860a00151838151811061131857fe5b602002602001015160a00151602001516127c5565b81600860008282540392505081905550611410565b60008054906101000a900473ffffffffffffffffffffffffffffffffffffffff1673ffffffffffffffffffffffffffffffffffffffff1663d2a5bdb18860a00151838151811061138e57fe5b60200260200101516020015160000151848a60a0015185815181106113af57fe5b602002602001015160a00151602001516040518463ffffffff1660e01b81526004016113dd93929190615353565b600060405180830381600087803b1580156113f757600080fd5b505af115801561140b573d6000803e3d6000fd5b505050505b60008760a00151828151811061142257fe5b60200260200101516080015111801561149557507367460c2f56774ed27eeb8685f29f6cec0b090b0073ffffffffffffffffffffffffffffffffffffffff168760a00151828151811061147157fe5b60200260200101516060015173ffffffffffffffffffffffffffffffffffffffff16145b1561153b578660a0015181815181106114aa57fe5b602002602001015160800151601260003373ffffffffffffffffffffffffffffffffffffffff1673ffffffffffffffffffffffffffffffffffffffff1681526020019081526020016000205401601260003373ffffffffffffffffffffffffffffffffffffffff1673ffffffffffffffffffffffffffffffffffffffff168152602001908152602001600020819055505b8080600101915050611219565b5060019450505050505b919050565b6000806402540be400838161156857fe5b04905080915050919050565b6014818154811061158457600080fd5b906000526020600020016000915090508054600181600116156101000203166002900480601f0160208091040260200160405190810160405280929190818152602001828054600181600116156101000203166002900480156116285780601f106115fd57610100808354040283529160200191611628565b820191906000526020600020905b81548152906001019060200180831161160b57829003601f168201915b505050505081565b60075481565b60085481565b6015818154811061164c57600080fd5b906000526020600020016000915090505481565b60095481565b6000806402540be4008302905080915050919050565b600e8060000154908060010154905082565b60126020528060005260406000206000915090505481565b600d82815481106116b657600080fd5b9060005260206000200181815481106116ce57600080fd5b9060005260206000209060080201600091509150508060000160009054906101000a900463ffffffff1690806001016040518060400160405290816000820160009054906101000a900473ffffffffffffffffffffffffffffffffffffffff1673ffffffffffffffffffffffffffffffffffffffff1673ffffffffffffffffffffffffffffffffffffffff1681526020016000820160149054906101000a900467ffffffffffffffff1667ffffffffffffffff1667ffffffffffffffff1681525050908060020160009054906101000a900463ffffffff16908060020160049054906101000a900473ffffffffffffffffffffffffffffffffffffffff1690806003015490806004016040518060400160405290816000820160009054906101000a900460ff1660ff1660ff1681526020016000820160019054906101000a900473ffffffffffffffffffffffffffffffffffffffff1673ffffffffffffffffffffffffffffffffffffffff1673ffffffffffffffffffffffffffffffffffffffff1681525050908060050160009054906101000a900473ffffffffffffffffffffffffffffffffffffffff16908060060160009054906101000a900473ffffffffffffffffffffffffffffffffffffffff16908060070160009054906101000a900473ffffffffffffffffffffffffffffffffffffffff16905089565b60606000825167ffffffffffffffff811180156118e857600080fd5b506040519080825280602002602001820160405280156119175781602001602082028036833780820191505090505b509050600080600090505b84518110156119ac57600115156010600087848151811061193f57fe5b6020026020010151815260200190815260200160002060009054906101000a900460ff1615151461199f5784818151811061197657fe5b602002602001015183838151811061198a57fe5b60200260200101818152505081806001019250505b8080600101915050611922565b508192505050919050565b60116020528060005260406000206000915090508060000154908060010160009054906101000a900460ff16905082565b6000600560149054906101000a900460ff1615611a3a576040517f08c379a0000000000000000000000000000000000000000000000000000000008152600401611a3190615498565b60405180910390fd5b6000601260003373ffffffffffffffffffffffffffffffffffffffff1673ffffffffffffffffffffffffffffffffffffffff168152602001908152602001600020541115611acc57611acb601260003373ffffffffffffffffffffffffffffffffffffffff1673ffffffffffffffffffffffffffffffffffffffff16815260200190815260200160002054336127c5565b5b601260003373ffffffffffffffffffffffffffffffffffffffff1673ffffffffffffffffffffffffffffffffffffffff16815260200190815260200160002054905090565b60138181548110611b2157600080fd5b906000526020600020016000915090508054600181600116156101000203166002900480601f016020809104026020016040519081016040528092919081815260200182805460018160011615610100020316600290048015611bc55780601f10611b9a57610100808354040283529160200191611bc5565b820191906000526020600020905b815481529060010190602001808311611ba857829003601f168201915b505050505081565b60005b8151811015611c0357611bf5828281518110611be857fe5b6020026020010151611029565b508080600101915050611bd0565b5050565b600b8181548110611c1757600080fd5b906000526020600020016000915090505481565b60606000600a54841015611c3f57600a5493505b60008490505b838111611c89576011600082815260200190815260200160002060010160009054906101000a900460ff1615611c7c576001820191505b8080600101915050611c45565b5060008167ffffffffffffffff81118015611ca357600080fd5b50604051908082528060200260200182016040528015611cdd57816020015b611cca6129e3565b815260200190600190039081611cc25790505b5090506000808690505b858111611d4d576011600082815260200190815260200160002060010160009054906101000a900460ff1615611d4057611d2081610718565b838381518110611d2c57fe5b602002602001018190525081806001019250505b8080600101915050611ce7565b5081935050505092915050565b6000601654905090565b60165481565b6000439050600080611d8484608001518560600151612860565b15611d9e5783608001516009600082825403925050819055505b6011600084815260200190815260200160002060010160009054906101000a900460ff16156120955760116000848152602001908152602001600020600001549150600d8281548110611ded57fe5b9060005260206000200184908060018154018082558091505060019003906000526020600020906008020160009091909190915060008201518160000160006101000a81548163ffffffff021916908363ffffffff16021790555060208201518160010160008201518160000160006101000a81548173ffffffffffffffffffffffffffffffffffffffff021916908373ffffffffffffffffffffffffffffffffffffffff16021790555060208201518160000160146101000a81548167ffffffffffffffff021916908367ffffffffffffffff160217905550505060408201518160020160006101000a81548163ffffffff021916908363ffffffff16021790555060608201518160020160046101000a81548173ffffffffffffffffffffffffffffffffffffffff021916908373ffffffffffffffffffffffffffffffffffffffff1602179055506080820151816003015560a08201518160040160008201518160000160006101000a81548160ff021916908360ff16021790555060208201518160000160016101000a81548173ffffffffffffffffffffffffffffffffffffffff021916908373ffffffffffffffffffffffffffffffffffffffff160217905550505060c08201518160050160006101000a81548173ffffffffffffffffffffffffffffffffffffffff021916908373ffffffffffffffffffffffffffffffffffffffff16021790555060e08201518160060160006101000a81548173ffffffffffffffffffffffffffffffffffffffff021916908373ffffffffffffffffffffffffffffffffffffffff1602179055506101008201518160070160006101000a81548173ffffffffffffffffffffffffffffffffffffffff021916908373ffffffffffffffffffffffffffffffffffffffff1602179055505050600090506123da565b600c84908060018154018082558091505060019003906000526020600020906008020160009091909190915060008201518160000160006101000a81548163ffffffff021916908363ffffffff16021790555060208201518160010160008201518160000160006101000a81548173ffffffffffffffffffffffffffffffffffffffff021916908373ffffffffffffffffffffffffffffffffffffffff16021790555060208201518160000160146101000a81548167ffffffffffffffff021916908367ffffffffffffffff160217905550505060408201518160020160006101000a81548163ffffffff021916908363ffffffff16021790555060608201518160020160046101000a81548173ffffffffffffffffffffffffffffffffffffffff021916908373ffffffffffffffffffffffffffffffffffffffff1602179055506080820151816003015560a08201518160040160008201518160000160006101000a81548160ff021916908360ff16021790555060208201518160000160016101000a81548173ffffffffffffffffffffffffffffffffffffffff021916908373ffffffffffffffffffffffffffffffffffffffff160217905550505060c08201518160050160006101000a81548173ffffffffffffffffffffffffffffffffffffffff021916908373ffffffffffffffffffffffffffffffffffffffff16021790555060e08201518160060160006101000a81548173ffffffffffffffffffffffffffffffffffffffff021916908373ffffffffffffffffffffffffffffffffffffffff1602179055506101008201518160070160006101000a81548173ffffffffffffffffffffffffffffffffffffffff021916908373ffffffffffffffffffffffffffffffffffffffff1602179055505050600d600c90806001815401808255809150506001900390600052602060002001600090919091909150908054612363929190612a0e565b506001600d80549050039150604051806040016040528083815260200160011515815250601160008581526020019081526020016000206000820151816000015560208201518160010160006101000a81548160ff021916908315150217905550905050600c60006123d59190612dcd565b600190505b6000600460009054906101000a900473ffffffffffffffffffffffffffffffffffffffff1673ffffffffffffffffffffffffffffffffffffffff1663bdfcfddd600d858154811061242757fe5b906000526020600020016040518263ffffffff1660e01b815260040161244d91906153ce565b600060405180830381600087803b15801561246757600080fd5b505af115801561247b573d6000803e3d6000fd5b505050506040513d6000823e3d601f19601f820116820180604052508101906124a49190614023565b90506000600160009054906101000a900473ffffffffffffffffffffffffffffffffffffffff1673ffffffffffffffffffffffffffffffffffffffff1663343bee60836040518263ffffffff1660e01b81526004016125039190615598565b60006040518083038186803b15801561251b57600080fd5b505afa15801561252f573d6000803e3d6000fd5b505050506040513d6000823e3d601f19601f820116820180604052508101906125589190613fe2565b90506000600160009054906101000a900473ffffffffffffffffffffffffffffffffffffffff1673ffffffffffffffffffffffffffffffffffffffff16632a4edd70600d87815481106125a757fe5b9060005260206000200160006040518363ffffffff1660e01b81526004016125d09291906153f0565b60006040518083038186803b1580156125e857600080fd5b505afa1580156125fc573d6000803e3d6000fd5b505050506040513d6000823e3d601f19601f820116820180604052508101906126259190613fe2565b9050601381908060018154018082558091505060019003906000526020600020016000909190919091509080519060200190612662929190612df1565b506000818051906020012090506000838360405160200161268492919061528b565b60405160208183030381529060405290506014819080600181540180825580915050600190039060005260206000200160009091909190915090805190602001906126d0929190612df1565b5060158290806001815401808255809150506001900390600052602060002001600090919091909150556000806000801b90506000891461272957600b60018a038154811061271b57fe5b906000526020600020015490505b858160405160200161273c929190615263565b604051602081830303815290604052805190602001209150871561278857600b8290806001815401808255809150506001900390600052602060002001600090919091909150556127a5565b81600b8a8154811061279657fe5b90600052602060002001819055505b6000600a5414156127b85789600a819055505b5050505050505050505050565b600560149054906101000a900460ff1615612815576040517f08c379a000000000000000000000000000000000000000000000000000000000815260040161280c90615498565b60405180910390fd5b8073ffffffffffffffffffffffffffffffffffffffff166108fc839081150290604051600060405180830381858888f1935050505015801561285b573d6000803e3d6000fd5b505050565b60006001600360009054906101000a900473ffffffffffffffffffffffffffffffffffffffff1673ffffffffffffffffffffffffffffffffffffffff1663ec48ae3c6040518163ffffffff1660e01b815260040160206040518083038186803b1580156128cc57600080fd5b505afa1580156128e0573d6000803e3d6000fd5b505050506040513d601f19601f8201168201806040525081019061290491906140f8565b1061291257600090506129dd565b73a6ef9ea235635e328124ff3429db9f9e91b64e2d73ffffffffffffffffffffffffffffffffffffffff168273ffffffffffffffffffffffffffffffffffffffff1614612994576040517f08c379a000000000000000000000000000000000000000000000000000000000815260040161298b90615478565b60405180910390fd5b82600954116129d8576040517f08c379a00000000000000000000000000000000000000000000000000000000081526004016129cf90615518565b60405180910390fd5b600190505b92915050565b6040518060800160405280600081526020016000815260200160008019168152602001606081525090565b828054828255906000526020600020906008028101928215612dbc5760005260206000209160080282015b82811115612dbb5782826000820160009054906101000a900463ffffffff168160000160006101000a81548163ffffffff021916908363ffffffff16021790555060018201816001016000820160009054906101000a900473ffffffffffffffffffffffffffffffffffffffff168160000160006101000a81548173ffffffffffffffffffffffffffffffffffffffff021916908373ffffffffffffffffffffffffffffffffffffffff1602179055506000820160149054906101000a900467ffffffffffffffff168160000160146101000a81548167ffffffffffffffff021916908367ffffffffffffffff16021790555050506002820160009054906101000a900463ffffffff168160020160006101000a81548163ffffffff021916908363ffffffff1602179055506002820160049054906101000a900473ffffffffffffffffffffffffffffffffffffffff168160020160046101000a81548173ffffffffffffffffffffffffffffffffffffffff021916908373ffffffffffffffffffffffffffffffffffffffff1602179055506003820154816003015560048201816004016000820160009054906101000a900460ff168160000160006101000a81548160ff021916908360ff1602179055506000820160019054906101000a900473ffffffffffffffffffffffffffffffffffffffff168160000160016101000a81548173ffffffffffffffffffffffffffffffffffffffff021916908373ffffffffffffffffffffffffffffffffffffffff16021790555050506005820160009054906101000a900473ffffffffffffffffffffffffffffffffffffffff168160050160006101000a81548173ffffffffffffffffffffffffffffffffffffffff021916908373ffffffffffffffffffffffffffffffffffffffff1602179055506006820160009054906101000a900473ffffffffffffffffffffffffffffffffffffffff168160060160006101000a81548173ffffffffffffffffffffffffffffffffffffffff021916908373ffffffffffffffffffffffffffffffffffffffff1602179055506007820160009054906101000a900473ffffffffffffffffffffffffffffffffffffffff168160070160006101000a81548173ffffffffffffffffffffffffffffffffffffffff021916908373ffffffffffffffffffffffffffffffffffffffff160217905550505091600801919060080190612a39565b5b509050612dc99190612e7f565b5090565b5080546000825560080290600052602060002090810190612dee9190612e7f565b50565b828054600181600116156101000203166002900490600052602060002090601f016020900481019282612e275760008555612e6e565b82601f10612e4057805160ff1916838001178555612e6e565b82800160010185558215612e6e579182015b82811115612e6d578251825591602001919060010190612e52565b5b509050612e7b9190612ff3565b5090565b5b80821115612fef57600080820160006101000a81549063ffffffff021916905560018201600080820160006101000a81549073ffffffffffffffffffffffffffffffffffffffff02191690556000820160146101000a81549067ffffffffffffffff021916905550506002820160006101000a81549063ffffffff02191690556002820160046101000a81549073ffffffffffffffffffffffffffffffffffffffff0219169055600382016000905560048201600080820160006101000a81549060ff02191690556000820160016101000a81549073ffffffffffffffffffffffffffffffffffffffff021916905550506005820160006101000a81549073ffffffffffffffffffffffffffffffffffffffff02191690556006820160006101000a81549073ffffffffffffffffffffffffffffffffffffffff02191690556007820160006101000a81549073ffffffffffffffffffffffffffffffffffffffff021916905550600801612e80565b5090565b5b8082111561300c576000816000905550600101612ff4565b5090565b600061302361301e84615746565b615715565b9050808382526020820190508285602086028201111561304257600080fd5b60005b85811015613072578161305888826134ba565b845260208401935060208301925050600181019050613045565b5050509392505050565b600061308f61308a84615772565b615715565b9050808382526020820190508260005b858110156130cf57813585016130b58882613562565b84526020840193506020830192505060018101905061309f565b5050509392505050565b60006130ec6130e78461579e565b615715565b9050808382526020820190508285604086028201111561310b57600080fd5b60005b8581101561313b5781613121888261393e565b84526020840193506040830192505060018101905061310e565b5050509392505050565b60006131586131538461579e565b615715565b9050808382526020820190508285604086028201111561317757600080fd5b60005b858110156131a7578161318d888261398a565b84526020840193506040830192505060018101905061317a565b5050509392505050565b60006131c46131bf846157ca565b615715565b9050808382526020820190508260005b8581101561320457813585016131ea8882613b06565b8452602084019350602083019250506001810190506131d4565b5050509392505050565b600061322161321c846157f6565b615715565b905080838252602082019050828561016086028201111561324157600080fd5b60005b8581101561327257816132578882613bea565b84526020840193506101608301925050600181019050613244565b5050509392505050565b600061328f61328a84615822565b615715565b9050808382526020820190508260005b858110156132cf57813585016132b58882613cc8565b84526020840193506020830192505060018101905061329f565b5050509392505050565b60006132ec6132e78461584e565b615715565b90508281526020810184848401111561330457600080fd5b61330f848285615b9b565b509392505050565b600061332a6133258461584e565b615715565b90508281526020810184848401111561334257600080fd5b61334d848285615baa565b509392505050565b60008135905061336481615ce4565b92915050565b60008151905061337981615ce4565b92915050565b600082601f83011261339057600080fd5b81356133a0848260208601613010565b91505092915050565b600082601f8301126133ba57600080fd5b81356133ca84826020860161307c565b91505092915050565b600082601f8301126133e457600080fd5b81356133f48482602086016130d9565b91505092915050565b600082601f83011261340e57600080fd5b815161341e848260208601613145565b91505092915050565b600082601f83011261343857600080fd5b81356134488482602086016131b1565b91505092915050565b600082601f83011261346257600080fd5b813561347284826020860161320e565b91505092915050565b600082601f83011261348c57600080fd5b813561349c84826020860161327c565b91505092915050565b6000815190506134b481615cfb565b92915050565b6000813590506134c981615d12565b92915050565b6000815190506134de81615d12565b92915050565b600082601f8301126134f557600080fd5b81356135058482602086016132d9565b91505092915050565b600082601f83011261351f57600080fd5b815161352f848260208601613317565b91505092915050565b60008135905061354781615d29565b92915050565b60008151905061355c81615d29565b92915050565b600060a0828403121561357457600080fd5b61357e60a0615715565b9050600061358e84828501613e6c565b60008301525060206135a284828501613e6c565b602083015250604082013567ffffffffffffffff8111156135c257600080fd5b6135ce848285016134e4565b604083015250606082013567ffffffffffffffff8111156135ee57600080fd5b6135fa8482850161347b565b606083015250608061360e84828501613e18565b60808301525092915050565b60006101e0828403121561362d57600080fd5b6136386101c0615715565b9050600061364884828501613dc4565b600083015250602061365c84828501613dc4565b602083015250604061367084828501613355565b604083015250606061368484828501613e18565b606083015250608061369884828501613e18565b60808301525060a06136ac84828501613355565b60a08301525060c06136c084828501613355565b60c08301525060e06136d484828501613e18565b60e08301525061010082013567ffffffffffffffff8111156136f557600080fd5b613701848285016133d3565b6101008301525061012082013567ffffffffffffffff81111561372357600080fd5b61372f848285016133d3565b61012083015250610140613745848285016134ba565b6101408301525061016082013567ffffffffffffffff81111561376757600080fd5b613773848285016133d3565b6101608301525061018061378984828501613d2c565b610180830152506101c061379f84828501613538565b6101a08301525092915050565b60006101e082840312156137bf57600080fd5b6137ca6101c0615715565b905060006137da84828501613dd9565b60008301525060206137ee84828501613dd9565b60208301525060406138028482850161336a565b604083015250606061381684828501613e2d565b606083015250608061382a84828501613e2d565b60808301525060a061383e8482850161336a565b60a08301525060c06138528482850161336a565b60c08301525060e061386684828501613e2d565b60e08301525061010082015167ffffffffffffffff81111561388757600080fd5b613893848285016133fd565b6101008301525061012082015167ffffffffffffffff8111156138b557600080fd5b6138c1848285016133fd565b610120830152506101406138d7848285016134cf565b6101408301525061016082015167ffffffffffffffff8111156138f957600080fd5b613905848285016133fd565b6101608301525061018061391b84828501613d78565b610180830152506101c06139318482850161354d565b6101a08301525092915050565b60006040828403121561395057600080fd5b61395a6040615715565b9050600061396a84828501613355565b600083015250602061397e84828501613e42565b60208301525092915050565b60006040828403121561399c57600080fd5b6139a66040615715565b905060006139b68482850161336a565b60008301525060206139ca84828501613e57565b60208301525092915050565b6000608082840312156139e857600080fd5b6139f26080615715565b90506000613a0284828501613e6c565b6000830152506020613a1684828501613e18565b6020830152506040613a2a84828501613e18565b604083015250606082013567ffffffffffffffff811115613a4a57600080fd5b613a568482850161337f565b60608301525092915050565b600060808284031215613a7457600080fd5b613a7e6080615715565b90506000613a8e84828501613e6c565b6000830152506020613aa284828501613e6c565b602083015250604082013567ffffffffffffffff811115613ac257600080fd5b613ace8482850161347b565b604083015250606082013567ffffffffffffffff811115613aee57600080fd5b613afa848285016133a9565b60608301525092915050565b600060c08284031215613b1857600080fd5b613b2260c0615715565b90506000613b3284828501613dee565b6000830152506020613b46848285016134ba565b6020830152506040613b5a84828501613dee565b604083015250606082013567ffffffffffffffff811115613b7a57600080fd5b613b868482850161361a565b606083015250608082013567ffffffffffffffff811115613ba657600080fd5b613bb284828501613a62565b60808301525060a082013567ffffffffffffffff811115613bd257600080fd5b613bde84828501613451565b60a08301525092915050565b60006101608284031215613bfd57600080fd5b613c08610120615715565b90506000613c1884828501613e18565b6000830152506020613c2c8482850161393e565b6020830152506060613c4084828501613e18565b6040830152506080613c5484828501613355565b60608301525060a0613c6884828501613dee565b60808301525060c0613c7c84828501613d2c565b60a083015250610100613c9184828501613355565b60c083015250610120613ca684828501613355565b60e083015250610140613cbb84828501613355565b6101008301525092915050565b600060408284031215613cda57600080fd5b613ce46040615715565b90506000613cf484828501613e6c565b600083015250602082013567ffffffffffffffff811115613d1457600080fd5b613d20848285016139d6565b60208301525092915050565b600060408284031215613d3e57600080fd5b613d486040615715565b90506000613d5884828501613e6c565b6000830152506020613d6c84828501613355565b60208301525092915050565b600060408284031215613d8a57600080fd5b613d946040615715565b90506000613da484828501613e81565b6000830152506020613db88482850161336a565b60208301525092915050565b600081359050613dd381615d40565b92915050565b600081519050613de881615d40565b92915050565b600081359050613dfd81615d57565b92915050565b600081519050613e1281615d57565b92915050565b600081359050613e2781615d6e565b92915050565b600081519050613e3c81615d6e565b92915050565b600081359050613e5181615d85565b92915050565b600081519050613e6681615d85565b92915050565b600081359050613e7b81615d9c565b92915050565b600081519050613e9081615d9c565b92915050565b600060208284031215613ea857600080fd5b6000613eb684828501613355565b91505092915050565b600080600060608486031215613ed457600080fd5b6000613ee28682870161336a565b9350506020613ef3868287016134a5565b9250506040613f04868287016134a5565b9150509250925092565b600060208284031215613f2057600080fd5b600082013567ffffffffffffffff811115613f3a57600080fd5b613f468482850161337f565b91505092915050565b600060208284031215613f6157600080fd5b600082013567ffffffffffffffff811115613f7b57600080fd5b613f8784828501613427565b91505092915050565b600060208284031215613fa257600080fd5b6000613fb0848285016134a5565b91505092915050565b600060208284031215613fcb57600080fd5b6000613fd9848285016134ba565b91505092915050565b600060208284031215613ff457600080fd5b600082015167ffffffffffffffff81111561400e57600080fd5b61401a8482850161350e565b91505092915050565b60006020828403121561403557600080fd5b600082015167ffffffffffffffff81111561404f57600080fd5b61405b848285016137ac565b91505092915050565b60006020828403121561407657600080fd5b600082013567ffffffffffffffff81111561409057600080fd5b61409c84828501613b06565b91505092915050565b600061016082840312156140b857600080fd5b60006140c684828501613bea565b91505092915050565b6000602082840312156140e157600080fd5b60006140ef84828501613dee565b91505092915050565b60006020828403121561410a57600080fd5b600061411884828501613e03565b91505092915050565b6000806040838503121561413457600080fd5b600061414285828601613dee565b925050602061415385828601613dee565b9150509250929050565b6000614169838361456b565b60208301905092915050565b6000614181838361499c565b905092915050565b60006141958383614c91565b60408301905092915050565b60006141ad8383614e93565b905092915050565b60006141c18383614f59565b6101608301905092915050565b60006141da8383615012565b6101608301905092915050565b60006141f38383615110565b905092915050565b61420481615b65565b82525050565b61421381615ac7565b82525050565b61422281615ac7565b82525050565b6000614233826158f3565b61423d81856159a6565b93506142488361587e565b8060005b83811015614279578151614260888261415d565b975061426b8361594b565b92505060018101905061424c565b5085935050505092915050565b6000614291826158f3565b61429b81856159b7565b93506142a68361587e565b8060005b838110156142d75781516142be888261415d565b97506142c98361594b565b9250506001810190506142aa565b5085935050505092915050565b60006142ef826158fe565b6142f981856159c8565b93508360208202850161430b8561588e565b8060005b8581101561434757848403895281516143288582614175565b945061433383615958565b925060208a0199505060018101905061430f565b50829750879550505050505092915050565b600061436482615909565b61436e81856159d9565b93506143798361589e565b8060005b838110156143aa5781516143918882614189565b975061439c83615965565b92505060018101905061437d565b5085935050505092915050565b60006143c282615914565b6143cc81856159ea565b9350836020820285016143de856158ae565b8060005b8581101561441a57848403895281516143fb85826141a1565b945061440683615972565b925060208a019950506001810190506143e2565b50829750879550505050505092915050565b60006144378261591f565b61444181856159fb565b935061444c836158be565b8060005b8381101561447d57815161446488826141b5565b975061446f8361597f565b925050600181019050614450565b5085935050505092915050565b60006144958261592a565b61449f8185615a0c565b93506144aa836158ce565b8060005b838110156144da57816144c188826141ce565b97506144cc8361598c565b9250506001810190506144ae565b5085935050505092915050565b60006144f282615935565b6144fc8185615a1d565b93508360208202850161450e856158e3565b8060005b8581101561454a578484038952815161452b85826141e7565b945061453683615999565b925060208a01995050600181019050614512565b50829750879550505050505092915050565b61456581615ad9565b82525050565b61457481615ae5565b82525050565b61458381615ae5565b82525050565b61459a61459582615ae5565b615c93565b82525050565b60006145ab82615940565b6145b58185615a2e565b93506145c5818560208601615baa565b6145ce81615c9f565b840191505092915050565b60006145e482615940565b6145ee8185615a3f565b93506145fe818560208601615baa565b61460781615c9f565b840191505092915050565b600061461d82615940565b6146278185615a50565b9350614637818560208601615baa565b80840191505092915050565b61464c81615aef565b82525050565b600061465f603b83615a5b565b91507f427269646765206973206e6f742079657420617661696c61626c65206f6e6c7960008301527f2056657275732063616e206265207573656420666f72206665657300000000006020830152604082019050919050565b60006146c5601c83615a5b565b91507f436f6e747261637420686173206265656e2064657072656361746564000000006000830152602082019050919050565b6000614705601a83615a5b565b91507f54786964206e6f7420636f727265637420696e206865616465720000000000006000830152602082019050919050565b6000614745603483615a5b565b91507f5472616e736665727320646f206e6f742070726f766520616761696e7374207460008301527f6865206c617374206e6f746172697a6174696f6e0000000000000000000000006020830152604082019050919050565b60006147ab602983615a5b565b91507f52657175657374656420616d6f756e74206578636565647320636f6e7472616360008301527f742062616c616e636500000000000000000000000000000000000000000000006020830152604082019050919050565b6000614811603d83615a5b565b91507f427269646765206973206e6f742079657420617661696c61626c65206665657360008301527f2063616e6e6f7420657863656564206578697374696e6720706f6f6c2e0000006020830152604082019050919050565b6000614877601b83615a5b565b91507f54686520746f6b656e206973206e6f74207265676973746572656400000000006000830152602082019050919050565b60006148b7605583615a5b565b91507f5468697320636f6e7472616374206d757374206861766520616e20616c6c6f7760008301527f616e6365206f662067726561746572207468616e206f7220657175616c20746f60208301527f20746865206e756d626572206f6620746f6b656e7300000000000000000000006040830152606082019050919050565b6000614943602c83615a5b565b91507f506c656173652073656e642074686520617070726f707269617465207472616e60008301527f73616374696f6e206665652e00000000000000000000000000000000000000006020830152604082019050919050565b600060a0830160008301516149b46000860182615254565b5060208301516149c76020860182615254565b50604083015184820360408601526149df82826145a0565b915050606083015184820360608601526149f982826144e7565b9150506080830151614a0e6080860182615218565b508091505092915050565b60006101e083016000830151614a3260008601826151eb565b506020830151614a4560208601826151eb565b506040830151614a58604086018261420a565b506060830151614a6b6060860182615218565b506080830151614a7e6080860182615218565b5060a0830151614a9160a086018261420a565b5060c0830151614aa460c086018261420a565b5060e0830151614ab760e0860182615218565b50610100830151848203610100860152614ad18282614359565b915050610120830151848203610120860152614aed8282614359565b915050610140830151614b0461014086018261456b565b50610160830151848203610160860152614b1e8282614359565b915050610180830151614b3561018086018261514d565b506101a0830151614b4a6101c0860182614643565b508091505092915050565b60006101e083016000830151614b6e60008601826151eb565b506020830151614b8160208601826151eb565b506040830151614b94604086018261420a565b506060830151614ba76060860182615218565b506080830151614bba6080860182615218565b5060a0830151614bcd60a086018261420a565b5060c0830151614be060c086018261420a565b5060e0830151614bf360e0860182615218565b50610100830151848203610100860152614c0d8282614359565b915050610120830151848203610120860152614c298282614359565b915050610140830151614c4061014086018261456b565b50610160830151848203610160860152614c5a8282614359565b915050610180830151614c7161018086018261514d565b506101a0830151614c866101c0860182614643565b508091505092915050565b604082016000820151614ca7600085018261420a565b506020820151614cba6020850182615236565b50505050565b604082016000820151614cd6600085018261420a565b506020820151614ce96020850182615236565b50505050565b604082016000808301549050614d0481615bdd565b614d11600086018261420a565b50614d1b81615c5f565b614d286020860182615236565b5050505050565b6000608083016000830151614d476000860182615254565b506020830151614d5a6020860182615218565b506040830151614d6d6040860182615218565b5060608301518482036060860152614d858282614228565b9150508091505092915050565b6000608083016000830151614daa6000860182615254565b506020830151614dbd6020860182615254565b5060408301518482036040860152614dd582826144e7565b91505060608301518482036060860152614def82826142e4565b9150508091505092915050565b600060c083016000830151614e1460008601826151fa565b506020830151614e27602086018261456b565b506040830151614e3a60408601826151fa565b5060608301518482036060860152614e528282614a19565b91505060808301518482036080860152614e6c8282614d92565b91505060a083015184820360a0860152614e86828261442c565b9150508091505092915050565b6000608083016000830151614eab60008601826151fa565b506020830151614ebe60208601826151fa565b506040830151614ed1604086018261456b565b5060608301518482036060860152614ee9828261442c565b9150508091505092915050565b6000608083016000830151614f0e60008601826151fa565b506020830151614f2160208601826151fa565b506040830151614f34604086018261456b565b5060608301518482036060860152614f4c828261442c565b9150508091505092915050565b61016082016000820151614f706000850182615218565b506020820151614f836020850182614c91565b506040820151614f966060850182615218565b506060820151614fa9608085018261420a565b506080820151614fbc60a08501826151fa565b5060a0820151614fcf60c085018261514d565b5060c0820151614fe361010085018261420a565b5060e0820151614ff761012085018261420a565b5061010082015161500c61014085018261420a565b50505050565b6101608201600080830154905061502881615c11565b6150356000860182615218565b50600183016150476020860182614cef565b506002830154905061505881615c11565b6150656060860182615218565b5061506f81615c79565b61507c608086018261420a565b506003830154905061508d81615bf7565b61509a60a08601826151fa565b50600483016150ac60c08601826151ab565b50600583015490506150bd81615bdd565b6150cb61010086018261420a565b50600683015490506150dc81615bdd565b6150ea61012086018261420a565b50600783015490506150fb81615bdd565b61510961014086018261420a565b5050505050565b60006040830160008301516151286000860182615254565b50602083015184820360208601526151408282614d2f565b9150508091505092915050565b6040820160008201516151636000850182615254565b506020820151615176602085018261420a565b50505050565b6040820160008201516151926000850182615254565b5060208201516151a5602085018261420a565b50505050565b6040820160008083015490506151c081615c2b565b6151cd6000860182615254565b506151d781615c45565b6151e4602086018261420a565b5050505050565b6151f481615afc565b82525050565b61520381615b2a565b82525050565b61521281615b2a565b82525050565b61522181615b34565b82525050565b61523081615b34565b82525050565b61523f81615b44565b82525050565b61524e81615b44565b82525050565b61525d81615b58565b82525050565b600061526f8285614612565b915061527b8284614589565b6020820191508190509392505050565b60006152978285614612565b91506152a38284614612565b91508190509392505050565b60006020820190506152c46000830184614219565b92915050565b60006040820190506152df60008301856141fb565b6152ec6020830184614219565b9392505050565b600060608201905061530860008301866141fb565b6153156020830185614219565b6153226040830184615209565b949350505050565b600060408201905061533f6000830185614219565b61534c6020830184615209565b9392505050565b60006060820190506153686000830186614219565b6153756020830185615209565b6153826040830184614219565b949350505050565b600060208201905081810360008301526153a48184614286565b905092915050565b600060208201905081810360008301526153c681846143b7565b905092915050565b600060208201905081810360008301526153e8818461448a565b905092915050565b6000604082019050818103600083015261540a818561448a565b9050615419602083018461455c565b9392505050565b6000602082019050615435600083018461455c565b92915050565b6000602082019050615450600083018461457a565b92915050565b6000602082019050818103600083015261547081846145d9565b905092915050565b6000602082019050818103600083015261549181614652565b9050919050565b600060208201905081810360008301526154b1816146b8565b9050919050565b600060208201905081810360008301526154d1816146f8565b9050919050565b600060208201905081810360008301526154f181614738565b9050919050565b600060208201905081810360008301526155118161479e565b9050919050565b6000602082019050818103600083015261553181614804565b9050919050565b600060208201905081810360008301526155518161486a565b9050919050565b60006020820190508181036000830152615571816148aa565b9050919050565b6000602082019050818103600083015261559181614936565b9050919050565b600060208201905081810360008301526155b28184614b55565b905092915050565b600060208201905081810360008301526155d48184614dfc565b905092915050565b600060208201905081810360008301526155f68184614ef6565b905092915050565b60006020820190506156136000830184615209565b92915050565b600060408201905061562e6000830185615209565b61563b602083018461455c565b9392505050565b60006040820190506156576000830185615209565b615664602083018461457a565b9392505050565b600061016082019050615681600083018c615227565b61568e602083018b614cc0565b61569b606083018a615227565b6156a86080830189614219565b6156b560a0830188615209565b6156c260c083018761517c565b6156d0610100830186614219565b6156de610120830185614219565b6156ec610140830184614219565b9a9950505050505050505050565b600060208201905061570f6000830184615245565b92915050565b6000604051905081810181811067ffffffffffffffff8211171561573c5761573b615c9d565b5b8060405250919050565b600067ffffffffffffffff82111561576157615760615c9d565b5b602082029050602081019050919050565b600067ffffffffffffffff82111561578d5761578c615c9d565b5b602082029050602081019050919050565b600067ffffffffffffffff8211156157b9576157b8615c9d565b5b602082029050602081019050919050565b600067ffffffffffffffff8211156157e5576157e4615c9d565b5b602082029050602081019050919050565b600067ffffffffffffffff82111561581157615810615c9d565b5b602082029050602081019050919050565b600067ffffffffffffffff82111561583d5761583c615c9d565b5b602082029050602081019050919050565b600067ffffffffffffffff82111561586957615868615c9d565b5b601f19601f8301169050602081019050919050565b6000819050602082019050919050565b6000819050602082019050919050565b6000819050602082019050919050565b6000819050602082019050919050565b6000819050602082019050919050565b60008190508160005260206000209050919050565b6000819050602082019050919050565b600081519050919050565b600081519050919050565b600081519050919050565b600081519050919050565b600081519050919050565b600081549050919050565b600081519050919050565b600081519050919050565b6000602082019050919050565b6000602082019050919050565b6000602082019050919050565b6000602082019050919050565b6000602082019050919050565b6000600882019050919050565b6000602082019050919050565b600082825260208201905092915050565b600082825260208201905092915050565b600082825260208201905092915050565b600082825260208201905092915050565b600082825260208201905092915050565b600082825260208201905092915050565b600082825260208201905092915050565b600082825260208201905092915050565b600082825260208201905092915050565b600082825260208201905092915050565b600081905092915050565b600082825260208201905092915050565b600073ffffffffffffffffffffffffffffffffffffffff82169050919050565b6000819050919050565b600063ffffffff82169050919050565b600067ffffffffffffffff82169050919050565b600060ff82169050919050565b6000615ad282615b0a565b9050919050565b60008115159050919050565b6000819050919050565b60008160030b9050919050565b600061ffff82169050919050565b600073ffffffffffffffffffffffffffffffffffffffff82169050919050565b6000819050919050565b600063ffffffff82169050919050565b600067ffffffffffffffff82169050919050565b600060ff82169050919050565b6000615b7082615b77565b9050919050565b6000615b8282615b89565b9050919050565b6000615b9482615b0a565b9050919050565b82818337600083830152505050565b60005b83811015615bc8578082015181840152602081019050615bad565b83811115615bd7576000848401525b50505050565b6000615bf0615beb83615cb0565b615a6c565b9050919050565b6000615c0a615c0583615cb0565b615a8c565b9050919050565b6000615c24615c1f83615cb0565b615a96565b9050919050565b6000615c3e615c3983615cb0565b615aba565b9050919050565b6000615c58615c5383615cd7565b615a6c565b9050919050565b6000615c72615c6d83615cbd565b615aa6565b9050919050565b6000615c8c615c8783615cca565b615a6c565b9050919050565b6000819050919050565bfe5b6000601f19601f8301169050919050565b60008160001c9050919050565b60008160a01c9050919050565b60008160201c9050919050565b60008160081c9050919050565b615ced81615ac7565b8114615cf857600080fd5b50565b615d0481615ad9565b8114615d0f57600080fd5b50565b615d1b81615ae5565b8114615d2657600080fd5b50565b615d3281615aef565b8114615d3d57600080fd5b50565b615d4981615afc565b8114615d5457600080fd5b50565b615d6081615b2a565b8114615d6b57600080fd5b50565b615d7781615b34565b8114615d8257600080fd5b50565b615d8e81615b44565b8114615d9957600080fd5b50565b615da581615b58565b8114615db057600080fd5b5056fea2646970667358221220d6709d0bdb0ff90f9e06310491805c3ff3ba581322a9bd429d89884e4aa5b5b964736f6c63430007060033",
  "immutableReferences": {},
  "source": "// SPDX-License-Identifier: MIT\r\n// Bridge between ethereum and verus\r\n\r\npragma solidity >=0.6.0 <0.9.0;\r\npragma experimental ABIEncoderV2;\r\n\r\nimport \"../Libraries/VerusObjects.sol\";\r\nimport \"../Libraries/VerusObjectsCommon.sol\";\r\nimport \"../Libraries/VerusConstants.sol\";\r\nimport \"./TokenManager.sol\";\r\nimport \"../MMR/VerusProof.sol\";\r\nimport \"./Token.sol\";\r\nimport \"./VerusSerializer.sol\";\r\nimport \"../VerusNotarizer/VerusNotarizer.sol\";\r\nimport \"./VerusCrossChainExport.sol\";\r\n\r\ncontract VerusBridge {\r\n\r\n    //list of erc20 tokens that can be accessed,\r\n    //the contract must be able to mint and burn coins on the contract\r\n    //defines the tokenManager which creates the erc20\r\n    TokenManager tokenManager;\r\n    VerusSerializer verusSerializer;\r\n    VerusProof verusProof;\r\n    VerusNotarizer verusNotarizer;\r\n    VerusCrossChainExport verusCCE;\r\n\r\n    //THE CONTRACT OWNER NEEDS TO BE REPLACED BY A SET OF NOTARIES\r\n    address contractOwner;\r\n    bool public deprecated = false; //indicates if the cotnract is deprecated\r\n    address public upgradedAddress;\r\n    uint256 public feesHeld = 0;\r\n    uint256 public ethHeld = 0;\r\n    uint256 public poolSize = 0;\r\n    uint public firstBlock = 0;\r\n\r\n    //used to prove the transfers the index of this corresponds to the index of the \r\n    bytes32[] public readyExportHashes;\r\n    //DO NOT ADD ANY VARIABLES ABOVE THIS POINT\r\n    //used to store a list of currencies and an amount\r\n    VerusObjects.CReserveTransfer[] private _pendingExports;\r\n    \r\n    //stores the blockheight of each pending transfer\r\n    //the export set holds the summary of a set of exports\r\n    VerusObjects.CReserveTransfer[][] public _readyExports;\r\n    \r\n    //stores the index corresponds to the block\r\n    VerusObjects.LastImport public lastimport;\r\n    mapping(bytes32 => bool) public processedTxids;\r\n    mapping (uint => VerusObjects.blockCreated) public readyExportsByBlock;\r\n    mapping (address => uint256) public claimableFees;\r\n    \r\n    bytes[] public SerializedCRTs;\r\n    bytes[] public SerializedCCEs;\r\n    bytes32[] public hashedCRTs;\r\n    uint public lastTxidimport;\r\n    \r\n    \r\n    event Deprecate(address newAddress);\r\n    \r\n    constructor(address verusProofAddress,\r\n        address tokenManagerAddress,\r\n        address verusSerializerAddress,\r\n        address verusNotarizerAddress,\r\n        address verusCCEAddress,\r\n        uint256 _poolSize) public {\r\n        contractOwner = msg.sender; \r\n        verusProof =  VerusProof(verusProofAddress);\r\n        tokenManager = TokenManager(tokenManagerAddress);\r\n        verusSerializer = VerusSerializer(verusSerializerAddress);\r\n        verusNotarizer = VerusNotarizer(verusNotarizerAddress);\r\n        verusCCE = VerusCrossChainExport(verusCCEAddress);\r\n        poolSize = _poolSize;\r\n        lastimport.height = 0;\r\n        lastimport.txid = 0x00000000000000000000000000000000;\r\n    }\r\n\r\n    function isPoolAvailable(uint256 _feesAmount,address _feeCurrencyID) private view returns(bool){\r\n        if(verusNotarizer.numNotarizedBlocks() >= 1) {\r\n            //the bridge has been activated\r\n            return false;\r\n        } else {\r\n            require(_feeCurrencyID == VerusConstants.VerusCurrencyId,\"Bridge is not yet available only Verus can be used for fees\");\r\n            require(poolSize > _feesAmount,\"Bridge is not yet available fees cannot exceed existing pool.\");\r\n            return true;\r\n        }\r\n    }\r\n\r\n    function convertToVerusNumber(uint256 a) public pure returns (uint64) {\r\n        uint256 c = a / 10000000000;\r\n        return uint64(c);\r\n    }\r\n    \r\n    function convertFromVerusNumber(uint256 a) public pure returns (uint256) {\r\n        uint256 c = a * 10000000000;\r\n        return c;\r\n    }\r\n \r\n    function export(VerusObjects.CReserveTransfer memory transfer) public payable{\r\n        require(!deprecated,\"Contract has been deprecated\");\r\n        require(msg.value >= VerusConstants.transactionFee + uint64(transfer.fees),\"Please send the appropriate transaction fee.\");\r\n        if(transfer.currencyvalue.currency != VerusConstants.VEth){\r\n            //check there are enough fees sent\r\n            feesHeld += msg.value;\r\n            //check that the token is registered\r\n            (address ERC20TokenAddress, bool VerusOwned, bool isRegistered) = tokenManager.verusToERC20mapping(transfer.currencyvalue.currency);\r\n            require(isRegistered, \"The token is not registered\");\r\n            Token token = Token(ERC20TokenAddress);\r\n            uint256 allowedTokens = token.allowance(msg.sender,address(this));\r\n            uint256 tokenAmount = convertFromVerusNumber(transfer.currencyvalue.amount); //convert to wei from verus satoshis\r\n            require( allowedTokens >= tokenAmount,\"This contract must have an allowance of greater than or equal to the number of tokens\");\r\n            //transfer the tokens to this contract\r\n            token.transferFrom(msg.sender,address(this),tokenAmount); \r\n            token.approve(address(tokenManager),tokenAmount);\r\n            //give an approval for the tokenmanagerinstance to spend the tokens\r\n            tokenManager.exportERC20Tokens(ERC20TokenAddress, tokenAmount);  //total amount kept as wei until export to verus\r\n        } else {\r\n            //handle a vEth transfer\r\n            transfer.currencyvalue.amount = convertToVerusNumber(msg.value - VerusConstants.transactionFee);\r\n            ethHeld += transfer.currencyvalue.amount;\r\n            feesHeld += VerusConstants.transactionFee;\r\n        }\r\n        _createExports(transfer);\r\n    }\r\n    /*\r\n    function exportETH(address _destination,uint8 _destinationType,address _feeCurrencyID,uint256 _nFees,address _destSystemID,uint32 _flags,address _secondReserveID) public payable returns(uint256){\r\n        require(!deprecated,\"Contract has been deprecated\");\r\n        //calculate amount of eth to send\r\n        require(msg.value > VerusConstants.transactionFee,\"Ethereum must be sent with the transaction to be sent to the Verus Chain\");\r\n        \r\n        uint256 amount = msg.value - VerusConstants.transactionFee;\r\n        ethHeld += amount;\r\n        feesHeld += VerusConstants.transactionFee;\r\n        //create a new Bridge Transaction\r\n         VerusObjectsCommon.CTransferDestination memory transferDestination = VerusObjectsCommon.CTransferDestination(_destinationType,_destination);\r\n        _createExports(convertToVerusNumber(amount), address(VerusConstants.VEth), transferDestination, VerusConstants.VerusSystemId, _nFees, _feeCurrencyID, _destSystemID, _flags,_secondReserveID);\r\n\r\n        return amount;\r\n    }\r\n\r\n\r\n    //nFees and secondReserveID are used to send the tokens/eth on\r\n    function exportERC20(uint64 _amount,address _tokenAddress,address _destination,uint8 _destinationType,address _destCurrencyID,uint256 _nFees,address _feeCurrencyID,address _destSystemID,uint32 _flags,address _secondReserveID) public payable {\r\n        //check that they are not attempting to send Eth\r\n        require(!deprecated,\"Contract has been deprecated\");\r\n        require(msg.value >= VerusConstants.transactionFee + uint64(_nFees),\"Please send the appropriate transaction fee.\");\r\n        require(_destination != VerusConstants.VEth,\"To send eth use exportETH\");\r\n        //check there are enough fees sent\r\n        feesHeld += msg.value;\r\n        Token token = Token(_tokenAddress);\r\n        uint256 allowedTokens = token.allowance(msg.sender,address(this));\r\n        require( uint64(allowedTokens) >= _amount,\"This contract must have an allowance of greater than or equal to the number of tokens\");\r\n        //transfer the tokens to this contract\r\n        token.transferFrom(msg.sender,address(this),uint256(_amount)); \r\n        token.approve(address(tokenManager),uint256(_amount));  \r\n        //give an approval for the tokenmanagerinstance to spend the tokens\r\n        tokenManager.exportERC20Tokens(_tokenAddress,uint256(_amount));\r\n\r\n        //create the BridgeTransaction \r\n        VerusObjectsCommon.CTransferDestination memory transferDestination = VerusObjectsCommon.CTransferDestination(_destinationType,_destination);\r\n        _createExports(_amount,tokenManager.vERC20Tokens(_tokenAddress).destinationCurrencyID,transferDestination,_destCurrencyID,_nFees,_feeCurrencyID,_destSystemID,_flags,_secondReserveID);\r\n    }*/\r\n\r\n    //function _createExports(uint64 _amount,address _tokenAddress,VerusObjectsCommon.CTransferDestination memory _destination,address _destCurrencyID,uint256 _nFees,address _feeCurrencyID,address _destSystemID,uint32 _flags,address _secondReserveID) private {\r\n      function _createExports(VerusObjects.CReserveTransfer memory newTransaction) private {\r\n        uint currentHeight = block.number;\r\n        uint exportIndex;\r\n        bool newHash;\r\n\r\n        /*VerusObjects.CCurrencyValueMap memory currencyvalues = VerusObjects.CCurrencyValueMap(_tokenAddress,_amount);\r\n        VerusObjects.CReserveTransfer memory newTransaction = VerusObjects.CReserveTransfer(\r\n            1,//force to be a signle value in the currencyvalue\r\n            currencyvalues,(Veth,amount)\r\n            _flags,65\r\n            _feeCurrencyID, VRSCTEST\r\n            _nFees, 200000\r\n            _destination, (4,\"0xb26820ee0c9b1276aac834cf457026a575dfce84\")\r\n            _destCurrencyID,VerusConstants.VerusSystemId\r\n            _destSystemID,\"0xAef9ea235635E328124Ff3429dB9F9E91b64e2d\",\r\n            _secondReserveID);'0x00000000000000000000000000000000*/\r\n//[\"1\",[\"0x67460C2f56774eD27EeB8685f29f6CEC0B090B00\",\"0\"],\"65\",0xA6ef9ea235635E328124Ff3429dB9F9E91b64e2d,\"2000000\",[\"4\",\"0xb26820ee0c9b1276aac834cf457026a575dfce84\"],0xAef9ea235635E328124Ff3429dB9F9E91b64e2d,0xAef9ea235635E328124Ff3429dB9F9E91b64e2d,\"0x00000000000000000000000000000000\"]\r\n//[1,[0x67460C2f56774eD27EeB8685f29f6CEC0B090B00,0],65,0xA6ef9ea235635E328124Ff3429dB9F9E91b64e2d,2000000,[4,0xb26820ee0c9b1276aac834cf457026a575dfce84],0xAef9ea235635E328124Ff3429dB9F9E91b64e2d,0xAef9ea235635E328124Ff3429dB9F9E91b64e2d,0x00000000000000000000000000000000]\r\n        //if there is fees in the pool spend those and not the amount that\r\n        if(isPoolAvailable(newTransaction.fees,newTransaction.feecurrencyid)) {\r\n            poolSize -= newTransaction.fees;\r\n        }\r\n\r\n        //check if the current block height has a set of transfers associated with it if so add to the existing array\r\n        if(readyExportsByBlock[currentHeight].created) {\r\n            //append to an existing array of transfers\r\n            exportIndex = readyExportsByBlock[currentHeight].index;\r\n            _readyExports[exportIndex].push(newTransaction);\r\n            newHash = false;\r\n        }\r\n        else {\r\n            _pendingExports.push(newTransaction);\r\n            _readyExports.push(_pendingExports);\r\n            exportIndex = _readyExports.length - 1;\r\n            readyExportsByBlock[currentHeight] = VerusObjects.blockCreated(exportIndex,true);\r\n            delete _pendingExports;\r\n            newHash = true;\r\n        }\r\n       \r\n        //create a cross chain export, serialize it and hash it\r\n        \r\n        VerusObjects.CCrossChainExport memory CCCE = verusCCE.generateCCE(_readyExports[exportIndex]);\r\n        //create a hash of the CCCE\r\n        \r\n        bytes memory serializedCCE = verusSerializer.serializeCCrossChainExport(CCCE);\r\n        bytes memory serializedTransfers = verusSerializer.serializeCReserveTransfers(_readyExports[exportIndex],false);\r\n        SerializedCRTs.push(serializedTransfers);\r\n        bytes32 hashedTransfers = keccak256(serializedTransfers);\r\n        bytes memory toHash = abi.encodePacked(serializedCCE,serializedTransfers);\r\n        SerializedCCEs.push(toHash);\r\n        hashedCRTs.push(hashedTransfers);\r\n        //bytes32 hashedTransfers = keccak256(serializedTransfers);\r\n        //bytes memory toHash = abi.encodePacked(serializedCCE,serializedTransfers);\r\n        bytes32 hashedCCE;\r\n        bytes32 lastProofRoot = 0;\r\n        if(exportIndex != 0)  lastProofRoot = readyExportHashes[exportIndex -1];\r\n        hashedCCE = keccak256(abi.encodePacked(serializedCCE,lastProofRoot));\r\n        \r\n        //add the hashed value\r\n        if(newHash) readyExportHashes.push(hashedCCE);\r\n        else readyExportHashes[exportIndex] = hashedCCE;\r\n        if(firstBlock == 0) firstBlock = currentHeight;\r\n        \r\n    }\r\n\r\n    function getlastimportheight() public view returns(uint) {\r\n        return lastTxidimport;\r\n    }\r\n    /***\r\n     * Import from Verus functions\r\n     ***/\r\n      function checkImports(bytes32[] memory _imports) public view returns(bytes32[] memory) {\r\n        //loop through the transfers and return a list of unprocessed\r\n        bytes32[] memory txidList = new bytes32[](_imports.length);\r\n        uint iterator;\r\n        for(uint i = 0; i < _imports.length; i++){\r\n            if(processedTxids[_imports[i]] != true){\r\n                txidList[iterator] = _imports[i];\r\n                iterator++;\r\n            }\r\n        }\r\n        return txidList;\r\n    }\r\n\r\n    function submitImports(VerusObjects.CReserveTransferImport[] memory _imports) public {\r\n        //loop through the transfers and process\r\n        for(uint i = 0; i < _imports.length; i++){\r\n           _createImports(_imports[i]);\r\n        }\r\n    }\r\n\r\n    function _createImports(VerusObjects.CReserveTransferImport memory _import) public returns(bool){\r\n\r\n        if(processedTxids[_import.txid] == true) return false; \r\n        bytes32 txidfound;\r\n        bytes memory sliced = _import.partialtransactionproof.components[0].elVchObj;\r\n        assembly {\r\n            txidfound := mload(add(sliced, 32))\r\n        }\r\n        require(_import.txid == txidfound, \"Txid not correct in header\"); //the txid should be present in the header\r\n        bool proved = verusProof.proveImports(_import);\r\n        require(proved,\"Transfers do not prove against the last notarization\");\r\n        processedTxids[_import.txid] = true;\r\n        if(lastTxidimport < _import.height)\r\n            lastTxidimport = _import.height;\r\n        uint256 amount;\r\n        //check the transfers were in the hash.\r\n        for(uint i = 0; i < _import.transfers.length; i++){\r\n            //handle eth transactions\r\n            amount = convertFromVerusNumber(uint256(_import.transfers[i].currencyvalue.amount));\r\n            if(_import.transfers[i].currencyvalue.currency == VerusConstants.VEth) {\r\n                //cast the destination as an ethAddress\r\n                    require(amount <= address(this).balance,\"Requested amount exceeds contract balance\");\r\n                    sendEth(amount,payable(address(_import.transfers[i].destination.destinationaddress)));\r\n                    ethHeld -= amount;\r\n        \r\n           } else {\r\n                //handle erc20 transactions   \r\n                tokenManager.importERC20Tokens(_import.transfers[i].currencyvalue.currency,\r\n                    amount,\r\n                    _import.transfers[i].destination.destinationaddress);\r\n           }\r\n            //handle the distributions of the fees\r\n            //add them into the fees array to be claimed by the message sender\r\n            if(_import.transfers[i].fees > 0 && _import.transfers[i].feecurrencyid == VerusConstants.VEth){\r\n                claimableFees[msg.sender] = claimableFees[msg.sender] + _import.transfers[i].fees;\r\n            }\r\n        }\r\n        return true;\r\n    }\r\n    \r\n    function getReadyExportsByBlock(uint _blockNumber) public view returns(VerusObjects.CReserveTransferSet memory){\r\n        //need a transferset for each position not each block\r\n        //retrieve a block get the indexes, create a transfer set for each index add those to the array\r\n        uint eIndex = readyExportsByBlock[_blockNumber].index;\r\n        VerusObjects.CReserveTransferSet memory output = VerusObjects.CReserveTransferSet(\r\n            eIndex, //position in array\r\n            _blockNumber, //blockHeight\r\n            //readyExportHashes[eIndex],\r\n            //DO WE NEED TO DO THIS\r\n            readyExportHashes[eIndex],\r\n            _readyExports[eIndex]\r\n        );\r\n        return output;\r\n    }\r\n\r\n    function getReadyExportsByRange(uint _startBlock,uint _endBlock) public view returns(VerusObjects.CReserveTransferSet[] memory){\r\n        //calculate the size that the return array will be to initialise it\r\n        uint outputSize = 0;\r\n        if(_startBlock < firstBlock) _startBlock = firstBlock;\r\n        for(uint i = _startBlock; i <= _endBlock; i++){\r\n            if(readyExportsByBlock[i].created) outputSize += 1;\r\n        }\r\n\r\n        VerusObjects.CReserveTransferSet[] memory output = new VerusObjects.CReserveTransferSet[](outputSize);\r\n        uint outputPosition = 0;\r\n        for(uint blockNumber = _startBlock;blockNumber <= _endBlock;blockNumber++){\r\n            if(readyExportsByBlock[blockNumber].created) {\r\n                output[outputPosition] = getReadyExportsByBlock(blockNumber);\r\n                outputPosition++;\r\n            }\r\n        }\r\n        return output;        \r\n    }\r\n \r\n    function sendEth(uint256 _ethAmount,address payable _ethAddress) private {\r\n        require(!deprecated,\"Contract has been deprecated\");\r\n        //do we take fees here????\r\n        \r\n        _ethAddress.transfer(_ethAmount);\r\n    }\r\n   \r\n    function claimFees() public returns(uint256){\r\n        require(!deprecated,\"Contract has been deprecated\");\r\n        if(claimableFees[msg.sender] > 0 ){\r\n            sendEth(claimableFees[msg.sender],msg.sender);\r\n        }\r\n        return claimableFees[msg.sender];\r\n\r\n    }\r\n/*\r\n    function deprecate(address _upgradedAddress,bytes32 _addressHash,uint8[] memory _vs,bytes32[] memory _rs,bytes32[] memory _ss) public{\r\n        if(verusNotarizer.notarizedDeprecation(_upgradedAddress, _addressHash, _vs, _rs, _ss)){\r\n            deprecated = true;\r\n            upgradedAddress = _upgradedAddress;\r\n            Deprecate(_upgradedAddress);\r\n        }\r\n    }\r\n*/\r\n\r\n}\r\n",
  "sourcePath": "D:\\dev\\Ethereum-verus-notarisation\\contracts\\VerusBridge\\VerusBridge.sol",
  "compiler": {
    "name": "solc",
    "version": "0.7.6+commit.7338295f.Emscripten.clang"
  },
  "schemaVersion": "3.4.3",
  "updatedAt": "2021-09-29T10:19:09.426Z",
  "networkType": "ethereum",
  "devdoc": {
    "kind": "dev",
    "methods": {},
    "version": 1
  },
  "userdoc": {
    "kind": "user",
    "methods": {},
    "version": 1
  }
}