{
  "contractName": "VerusBridge",
  "abi": [
    {
      "inputs": [
        {
          "internalType": "address",
          "name": "notarizerAddress",
          "type": "address"
        },
        {
          "internalType": "address",
          "name": "mmrAddress",
          "type": "address"
        },
        {
          "internalType": "address",
          "name": "tokenManagerAddress",
          "type": "address"
        }
      ],
      "stateMutability": "nonpayable",
      "type": "constructor"
    },
    {
      "anonymous": false,
      "inputs": [
        {
          "components": [
            {
              "internalType": "address",
              "name": "targetAddress",
              "type": "address"
            },
            {
              "internalType": "string",
              "name": "tokenName",
              "type": "string"
            },
            {
              "internalType": "uint256",
              "name": "tokenAmount",
              "type": "uint256"
            }
          ],
          "indexed": false,
          "internalType": "struct VerusBridge.BridgeTransaction",
          "name": "transaction",
          "type": "tuple"
        }
      ],
      "name": "ReceivedFromVerus",
      "type": "event"
    },
    {
      "inputs": [
        {
          "components": [
            {
              "internalType": "address",
              "name": "targetAddress",
              "type": "address"
            },
            {
              "internalType": "string",
              "name": "tokenName",
              "type": "string"
            },
            {
              "internalType": "uint256",
              "name": "tokenAmount",
              "type": "uint256"
            }
          ],
          "internalType": "struct VerusBridge.BridgeTransaction[]",
          "name": "_newTransactions",
          "type": "tuple[]"
        },
        {
          "internalType": "uint32",
          "name": "_hashIndex",
          "type": "uint32"
        },
        {
          "internalType": "bytes32[]",
          "name": "_transactionsProof",
          "type": "bytes32[]"
        },
        {
          "internalType": "uint32",
          "name": "_blockHeight",
          "type": "uint32"
        }
      ],
      "name": "receiveFromVerusChain",
      "outputs": [
        {
          "internalType": "bytes32",
          "name": "",
          "type": "bytes32"
        }
      ],
      "stateMutability": "nonpayable",
      "type": "function"
    },
    {
      "inputs": [
        {
          "internalType": "string",
          "name": "_tokenName",
          "type": "string"
        },
        {
          "internalType": "uint256",
          "name": "_tokenAmount",
          "type": "uint256"
        },
        {
          "internalType": "address",
          "name": "_targetAddress",
          "type": "address"
        }
      ],
      "name": "sendToVerus",
      "outputs": [],
      "stateMutability": "nonpayable",
      "type": "function"
    },
    {
      "inputs": [],
      "name": "outboundTransactionsIndex",
      "outputs": [
        {
          "internalType": "uint256",
          "name": "",
          "type": "uint256"
        }
      ],
      "stateMutability": "view",
      "type": "function"
    },
    {
      "inputs": [
        {
          "internalType": "uint256",
          "name": "_tIndex",
          "type": "uint256"
        }
      ],
      "name": "getTransactionsToProcess",
      "outputs": [
        {
          "components": [
            {
              "internalType": "address",
              "name": "targetAddress",
              "type": "address"
            },
            {
              "internalType": "string",
              "name": "tokenName",
              "type": "string"
            },
            {
              "internalType": "uint256",
              "name": "tokenAmount",
              "type": "uint256"
            }
          ],
          "internalType": "struct VerusBridge.BridgeTransaction[]",
          "name": "",
          "type": "tuple[]"
        }
      ],
      "stateMutability": "view",
      "type": "function"
    },
    {
      "inputs": [],
      "name": "getPendingOutboundTransactions",
      "outputs": [
        {
          "components": [
            {
              "internalType": "address",
              "name": "targetAddress",
              "type": "address"
            },
            {
              "internalType": "string",
              "name": "tokenName",
              "type": "string"
            },
            {
              "internalType": "uint256",
              "name": "tokenAmount",
              "type": "uint256"
            }
          ],
          "internalType": "struct VerusBridge.BridgeTransaction[]",
          "name": "",
          "type": "tuple[]"
        }
      ],
      "stateMutability": "view",
      "type": "function"
    },
    {
      "inputs": [
        {
          "internalType": "bytes32",
          "name": "transactionHash",
          "type": "bytes32"
        }
      ],
      "name": "getCompletedInboundTransaction",
      "outputs": [
        {
          "components": [
            {
              "internalType": "uint256",
              "name": "blockNumber",
              "type": "uint256"
            },
            {
              "components": [
                {
                  "internalType": "address",
                  "name": "targetAddress",
                  "type": "address"
                },
                {
                  "internalType": "string",
                  "name": "tokenName",
                  "type": "string"
                },
                {
                  "internalType": "uint256",
                  "name": "tokenAmount",
                  "type": "uint256"
                }
              ],
              "internalType": "struct VerusBridge.BridgeTransaction[]",
              "name": "includedTransactions",
              "type": "tuple[]"
            },
            {
              "internalType": "bool",
              "name": "completed",
              "type": "bool"
            }
          ],
          "internalType": "struct VerusBridge.CompletedTransaction",
          "name": "",
          "type": "tuple"
        }
      ],
      "stateMutability": "view",
      "type": "function"
    },
    {
      "inputs": [
        {
          "internalType": "string",
          "name": "verusAddress",
          "type": "string"
        },
        {
          "internalType": "string",
          "name": "ticker",
          "type": "string"
        }
      ],
      "name": "createToken",
      "outputs": [
        {
          "internalType": "address",
          "name": "",
          "type": "address"
        }
      ],
      "stateMutability": "nonpayable",
      "type": "function"
    },
    {
      "inputs": [
        {
          "components": [
            {
              "internalType": "address",
              "name": "targetAddress",
              "type": "address"
            },
            {
              "internalType": "string",
              "name": "tokenName",
              "type": "string"
            },
            {
              "internalType": "uint256",
              "name": "tokenAmount",
              "type": "uint256"
            }
          ],
          "internalType": "struct VerusBridge.BridgeTransaction[]",
          "name": "_newTransactions",
          "type": "tuple[]"
        }
      ],
      "name": "createTransactionsHash",
      "outputs": [
        {
          "internalType": "bytes32",
          "name": "",
          "type": "bytes32"
        }
      ],
      "stateMutability": "nonpayable",
      "type": "function"
    },
    {
      "inputs": [
        {
          "components": [
            {
              "internalType": "address",
              "name": "targetAddress",
              "type": "address"
            },
            {
              "internalType": "string",
              "name": "tokenName",
              "type": "string"
            },
            {
              "internalType": "uint256",
              "name": "tokenAmount",
              "type": "uint256"
            }
          ],
          "internalType": "struct VerusBridge.BridgeTransaction[]",
          "name": "_newTransactions",
          "type": "tuple[]"
        }
      ],
      "name": "serializeTransactions",
      "outputs": [
        {
          "internalType": "bytes",
          "name": "",
          "type": "bytes"
        }
      ],
      "stateMutability": "pure",
      "type": "function"
    },
    {
      "inputs": [
        {
          "internalType": "bytes",
          "name": "toHash",
          "type": "bytes"
        },
        {
          "internalType": "bytes",
          "name": "hashKey",
          "type": "bytes"
        }
      ],
      "name": "mmrHash",
      "outputs": [
        {
          "internalType": "bytes32",
          "name": "",
          "type": "bytes32"
        }
      ],
      "stateMutability": "nonpayable",
      "type": "function"
    },
    {
      "inputs": [
        {
          "components": [
            {
              "internalType": "address",
              "name": "targetAddress",
              "type": "address"
            },
            {
              "internalType": "string",
              "name": "tokenName",
              "type": "string"
            },
            {
              "internalType": "uint256",
              "name": "tokenAmount",
              "type": "uint256"
            }
          ],
          "internalType": "struct VerusBridge.BridgeTransaction",
          "name": "_sendTransaction",
          "type": "tuple"
        }
      ],
      "name": "serializeTransaction",
      "outputs": [
        {
          "internalType": "bytes",
          "name": "",
          "type": "bytes"
        }
      ],
      "stateMutability": "pure",
      "type": "function"
    },
    {
      "inputs": [
        {
          "internalType": "string",
          "name": "tokenName",
          "type": "string"
        }
      ],
      "name": "getTokenAddress",
      "outputs": [
        {
          "internalType": "address",
          "name": "",
          "type": "address"
        }
      ],
      "stateMutability": "view",
      "type": "function"
    },
    {
      "inputs": [
        {
          "internalType": "address",
          "name": "tokenAddress",
          "type": "address"
        }
      ],
      "name": "getTokenName",
      "outputs": [
        {
          "internalType": "string",
          "name": "",
          "type": "string"
        }
      ],
      "stateMutability": "view",
      "type": "function"
    },
    {
      "inputs": [
        {
          "internalType": "bytes",
          "name": "self",
          "type": "bytes"
        },
        {
          "internalType": "bytes",
          "name": "other",
          "type": "bytes"
        }
      ],
      "name": "concat",
      "outputs": [
        {
          "internalType": "bytes",
          "name": "",
          "type": "bytes"
        }
      ],
      "stateMutability": "pure",
      "type": "function"
    }
  ],
  "bytecode": "0x60806040526040518060400160405280601081526020017f566572757344656661756c744861736800000000000000000000000000000000815250600490805190602001906200005192919062000151565b503480156200005f57600080fd5b5060405162002c8f38038062002c8f83398181016040528101906200008591906200020e565b81600360006101000a81548173ffffffffffffffffffffffffffffffffffffffff021916908373ffffffffffffffffffffffffffffffffffffffff16021790555082600260006101000a81548173ffffffffffffffffffffffffffffffffffffffff021916908373ffffffffffffffffffffffffffffffffffffffff16021790555080600160006101000a81548173ffffffffffffffffffffffffffffffffffffffff021916908373ffffffffffffffffffffffffffffffffffffffff160217905550505050620002b2565b828054600181600116156101000203166002900490600052602060002090601f016020900481019282601f106200019457805160ff1916838001178555620001c5565b82800160010185558215620001c5579182015b82811115620001c4578251825591602001919060010190620001a7565b5b509050620001d49190620001d8565b5090565b5b80821115620001f3576000816000905550600101620001d9565b5090565b600081519050620002088162000298565b92915050565b6000806000606084860312156200022457600080fd5b60006200023486828701620001f7565b93505060206200024786828701620001f7565b92505060406200025a86828701620001f7565b9150509250925092565b6000620002718262000278565b9050919050565b600073ffffffffffffffffffffffffffffffffffffffff82169050919050565b620002a38162000264565b8114620002af57600080fd5b50565b6129cd80620002c26000396000f3fe608060405234801561001057600080fd5b50600436106100ea5760003560e01c80638744e0d51161008c578063b5c8cf1111610066578063b5c8cf1114610297578063c4091236146102c7578063d17a9f42146102f7578063ef22f83114610327576100ea565b80638744e0d51461020757806393478f6414610237578063b24b59a114610267576100ea565b80635f3376f3116100c85780635f3376f31461015b5780635fc763341461018b5780636b511d5a146101a75780636f0fccab146101d7576100ea565b80632f2f2d56146100ef57806348cd44281461011f5780634a786eda1461013d575b600080fd5b61010960048036038101906101049190611d01565b610357565b6040516101169190612391565b60405180910390f35b610127610410565b6040516101349190612435565b60405180910390f35b610145610571565b604051610152919061265b565b60405180910390f35b61017560048036038101906101709190611c13565b61057e565b6040516101829190612472565b60405180910390f35b6101a560048036038101906101a09190611d6d565b61062d565b005b6101c160048036038101906101bc9190611ac4565b610aaa565b6040516101ce9190612457565b60405180910390f35b6101f160048036038101906101ec9190611a72565b610b77565b6040516101fe9190612510565b60405180910390f35b610221600480360381019061021c9190611ac4565b610c30565b60405161022e9190612472565b60405180910390f35b610251600480360381019061024c9190611c13565b610c96565b60405161025e9190612457565b60405180910390f35b610281600480360381019061027c9190611b05565b610d57565b60405161028e9190612457565b60405180910390f35b6102b160048036038101906102ac9190611e15565b610fed565b6040516102be9190612435565b60405180910390f35b6102e160048036038101906102dc9190611c7f565b611165565b6040516102ee9190612391565b60405180910390f35b610311600480360381019061030c9190611dd4565b611219565b60405161031e9190612472565b60405180910390f35b610341600480360381019061033c9190611bc1565b611257565b60405161034e9190612639565b60405180910390f35b6000600160009054906101000a900473ffffffffffffffffffffffffffffffffffffffff1673ffffffffffffffffffffffffffffffffffffffff16633c37cd0884846040518363ffffffff1660e01b81526004016103b6929190612532565b602060405180830381600087803b1580156103d057600080fd5b505af11580156103e4573d6000803e3d6000fd5b505050506040513d601f19601f820116820180604052508101906104089190611a9b565b905092915050565b60606005805480602002602001604051908101604052809291908181526020016000905b8282101561056857838290600052602060002090600302016040518060600160405290816000820160009054906101000a900473ffffffffffffffffffffffffffffffffffffffff1673ffffffffffffffffffffffffffffffffffffffff1673ffffffffffffffffffffffffffffffffffffffff168152602001600182018054600181600116156101000203166002900480601f0160208091040260200160405190810160405280929190818152602001828054600181600116156101000203166002900480156105465780601f1061051b57610100808354040283529160200191610546565b820191906000526020600020905b81548152906001019060200180831161052957829003601f168201915b5050505050815260200160028201548152505081526020019060010190610434565b50505050905090565b6000600680549050905090565b606080825184510167ffffffffffffffff8111801561059c57600080fd5b506040519080825280601f01601f1916602001820160405280156105cf5781602001600182028036833780820191505090505b5090506000806105de8661140a565b915091506000806105ee8761140a565b9150915060006105fd8661140a565b5090506000828201905061061286838761141c565b61061d84828561141c565b8697505050505050505092915050565b6000600160009054906101000a900473ffffffffffffffffffffffffffffffffffffffff1673ffffffffffffffffffffffffffffffffffffffff1663c4091236856040518263ffffffff1660e01b815260040161068a9190612510565b60206040518083038186803b1580156106a257600080fd5b505afa1580156106b6573d6000803e3d6000fd5b505050506040513d601f19601f820116820180604052508101906106da9190611a9b565b9050600081905060008173ffffffffffffffffffffffffffffffffffffffff1663dd62ed3e33306040518363ffffffff1660e01b815260040161071e9291906123ac565b60206040518083038186803b15801561073657600080fd5b505afa15801561074a573d6000803e3d6000fd5b505050506040513d601f19601f8201168201806040525081019061076e9190611e3e565b9050848110156107b3576040517f08c379a00000000000000000000000000000000000000000000000000000000081526004016107aa906125f7565b60405180910390fd5b8173ffffffffffffffffffffffffffffffffffffffff166323b872dd3330886040518463ffffffff1660e01b81526004016107f0939291906123d5565b602060405180830381600087803b15801561080a57600080fd5b505af115801561081e573d6000803e3d6000fd5b505050506040513d601f19601f820116820180604052508101906108429190611b98565b508173ffffffffffffffffffffffffffffffffffffffff1663095ea7b3600160009054906101000a900473ffffffffffffffffffffffffffffffffffffffff16876040518363ffffffff1660e01b81526004016108a092919061240c565b602060405180830381600087803b1580156108ba57600080fd5b505af11580156108ce573d6000803e3d6000fd5b505050506040513d601f19601f820116820180604052508101906108f29190611b98565b50600160009054906101000a900473ffffffffffffffffffffffffffffffffffffffff1673ffffffffffffffffffffffffffffffffffffffff16634c18c8fa87876040518363ffffffff1660e01b8152600401610950929190612569565b600060405180830381600087803b15801561096a57600080fd5b505af115801561097e573d6000803e3d6000fd5b50505050600560405180606001604052808673ffffffffffffffffffffffffffffffffffffffff16815260200188815260200187815250908060018154018082558091505060019003906000526020600020906003020160009091909190915060008201518160000160006101000a81548173ffffffffffffffffffffffffffffffffffffffff021916908373ffffffffffffffffffffffffffffffffffffffff1602179055506020820151816001019080519060200190610a41929190611465565b50604082015181600201555050600a60058054905010610aa2576006600590806001815401808255809150506001900390600052602060002001600090919091909150908054610a929291906114e5565b5060056000610aa191906115d6565b5b505050505050565b60006060610ab783610c30565b90506000600360009054906101000a900473ffffffffffffffffffffffffffffffffffffffff1673ffffffffffffffffffffffffffffffffffffffff1663fe5320bf8360046040518363ffffffff1660e01b8152600401610b199291906124d9565b602060405180830381600087803b158015610b3357600080fd5b505af1158015610b47573d6000803e3d6000fd5b505050506040513d601f19601f82011682018060405250810190610b6b9190611bea565b90508092505050919050565b6060600160009054906101000a900473ffffffffffffffffffffffffffffffffffffffff1673ffffffffffffffffffffffffffffffffffffffff16636f0fccab836040518263ffffffff1660e01b8152600401610bd49190612391565b60006040518083038186803b158015610bec57600080fd5b505afa158015610c00573d6000803e3d6000fd5b505050506040513d6000823e3d601f19601f82011682018060405250810190610c299190611cc0565b9050919050565b606080606060005b8451811015610c8b57610c5d858281518110610c5057fe5b6020026020010151611219565b9150600083511115610c7a57610c73828361057e565b9250610c7e565b8192505b8080600101915050610c38565b508192505050919050565b600080600360009054906101000a900473ffffffffffffffffffffffffffffffffffffffff1673ffffffffffffffffffffffffffffffffffffffff166395c12f53858560006040518463ffffffff1660e01b8152600401610cf993929190612494565b602060405180830381600087803b158015610d1357600080fd5b505af1158015610d27573d6000803e3d6000fd5b505050506040513d601f19601f82011682018060405250810190610d4b9190611bea565b90508091505092915050565b600080610d6386610aaa565b90506007600082815260200190815260200160002060020160009054906101000a900460ff1615610dc9576040517f08c379a0000000000000000000000000000000000000000000000000000000008152600401610dc0906125d7565b60405180910390fd5b60005b8651811015610fe057600160009054906101000a900473ffffffffffffffffffffffffffffffffffffffff1673ffffffffffffffffffffffffffffffffffffffff1663d80adeaf888381518110610e1f57fe5b602002602001015160200151898481518110610e3757fe5b6020026020010151604001518a8581518110610e4f57fe5b6020026020010151600001516040518463ffffffff1660e01b8152600401610e7993929190612599565b600060405180830381600087803b158015610e9357600080fd5b505af1158015610ea7573d6000803e3d6000fd5b5050505043600760008481526020019081526020016000206000018190555060076000838152602001908152602001600020600101878281518110610ee857fe5b6020026020010151908060018154018082558091505060019003906000526020600020906003020160009091909190915060008201518160000160006101000a81548173ffffffffffffffffffffffffffffffffffffffff021916908373ffffffffffffffffffffffffffffffffffffffff1602179055506020820151816001019080519060200190610f7c929190611465565b506040820151816002015550507f6884924226770fe8529ff263cd2b0985cb1450fb3b2ea14ef7def691f6803613878281518110610fb657fe5b6020026020010151604051610fcb9190612617565b60405180910390a18080600101915050610dcc565b5080915050949350505050565b606060068281548110610ffc57fe5b90600052602060002001805480602002602001604051908101604052809291908181526020016000905b8282101561115a57838290600052602060002090600302016040518060600160405290816000820160009054906101000a900473ffffffffffffffffffffffffffffffffffffffff1673ffffffffffffffffffffffffffffffffffffffff1673ffffffffffffffffffffffffffffffffffffffff168152602001600182018054600181600116156101000203166002900480601f0160208091040260200160405190810160405280929190818152602001828054600181600116156101000203166002900480156111385780601f1061110d57610100808354040283529160200191611138565b820191906000526020600020905b81548152906001019060200180831161111b57829003601f168201915b5050505050815260200160028201548152505081526020019060010190611026565b505050509050919050565b6000600160009054906101000a900473ffffffffffffffffffffffffffffffffffffffff1673ffffffffffffffffffffffffffffffffffffffff1663c4091236836040518263ffffffff1660e01b81526004016111c29190612510565b60206040518083038186803b1580156111da57600080fd5b505afa1580156111ee573d6000803e3d6000fd5b505050506040513d601f19601f820116820180604052508101906112129190611a9b565b9050919050565b60608082600001518360200151846040015160405160200161123d93929190612358565b604051602081830303815290604052905080915050919050565b61125f6115fa565b600760008381526020019081526020016000206040518060600160405290816000820154815260200160018201805480602002602001604051908101604052809291908181526020016000905b828210156113e057838290600052602060002090600302016040518060600160405290816000820160009054906101000a900473ffffffffffffffffffffffffffffffffffffffff1673ffffffffffffffffffffffffffffffffffffffff1673ffffffffffffffffffffffffffffffffffffffff168152602001600182018054600181600116156101000203166002900480601f0160208091040260200160405190810160405280929190818152602001828054600181600116156101000203166002900480156113be5780601f10611393576101008083540402835291602001916113be565b820191906000526020600020905b8154815290600101906020018083116113a157829003601f168201915b50505050508152602001600282015481525050815260200190600101906112ac565b5050505081526020016002820160009054906101000a900460ff1615151515815250509050919050565b60008082519050602083019150915091565b5b60208110611440578251825260208201915060208301925060208103905061141d565b60006001826020036101000a0390508019845116818451168181178552505050505050565b828054600181600116156101000203166002900490600052602060002090601f016020900481019282601f106114a657805160ff19168380011785556114d4565b828001600101855582156114d4579182015b828111156114d35782518255916020019190600101906114b8565b5b5090506114e1919061161d565b5090565b8280548282559060005260206000209060030281019282156115c55760005260206000209160030282015b828111156115c45782826000820160009054906101000a900473ffffffffffffffffffffffffffffffffffffffff168160000160006101000a81548173ffffffffffffffffffffffffffffffffffffffff021916908373ffffffffffffffffffffffffffffffffffffffff160217905550600182018160010190805460018160011615610100020316600290046115a892919061163a565b5060028201548160020155505091600301919060030190611510565b5b5090506115d291906116c1565b5090565b50805460008255600302906000526020600020908101906115f791906116c1565b50565b604051806060016040528060008152602001606081526020016000151581525090565b5b8082111561163657600081600090555060010161161e565b5090565b828054600181600116156101000203166002900490600052602060002090601f016020900481019282601f1061167357805485556116b0565b828001600101855582156116b057600052602060002091601f016020900482015b828111156116af578254825591600101919060010190611694565b5b5090506116bd919061161d565b5090565b5b8082111561171357600080820160006101000a81549073ffffffffffffffffffffffffffffffffffffffff02191690556001820160006117029190611717565b6002820160009055506003016116c2565b5090565b50805460018160011615610100020316600290046000825580601f1061173d575061175c565b601f01602090049060005260206000209081019061175b919061161d565b5b50565b60008135905061176e81612924565b92915050565b60008151905061178381612924565b92915050565b600082601f83011261179a57600080fd5b81356117ad6117a8826126a3565b612676565b915081818352602084019350602081019050838560208402820111156117d257600080fd5b60005b8381101561180257816117e88882611895565b8452602084019350602083019250506001810190506117d5565b5050505092915050565b600082601f83011261181d57600080fd5b813561183061182b826126cb565b612676565b9150818183526020840193506020810190508360005b83811015611876578135860161185c88826119bb565b845260208401935060208301925050600181019050611846565b5050505092915050565b60008151905061188f8161293b565b92915050565b6000813590506118a481612952565b92915050565b6000815190506118b981612952565b92915050565b600082601f8301126118d057600080fd5b81356118e36118de826126f3565b612676565b915080825260208301602083018583830111156118ff57600080fd5b61190a838284612896565b50505092915050565b600082601f83011261192457600080fd5b81356119376119328261271f565b612676565b9150808252602083016020830185838301111561195357600080fd5b61195e838284612896565b50505092915050565b600082601f83011261197857600080fd5b815161198b6119868261271f565b612676565b915080825260208301602083018583830111156119a757600080fd5b6119b28382846128a5565b50505092915050565b6000606082840312156119cd57600080fd5b6119d76060612676565b905060006119e78482850161175f565b600083015250602082013567ffffffffffffffff811115611a0757600080fd5b611a1384828501611913565b6020830152506040611a2784828501611a33565b60408301525092915050565b600081359050611a4281612969565b92915050565b600081519050611a5781612969565b92915050565b600081359050611a6c81612980565b92915050565b600060208284031215611a8457600080fd5b6000611a928482850161175f565b91505092915050565b600060208284031215611aad57600080fd5b6000611abb84828501611774565b91505092915050565b600060208284031215611ad657600080fd5b600082013567ffffffffffffffff811115611af057600080fd5b611afc8482850161180c565b91505092915050565b60008060008060808587031215611b1b57600080fd5b600085013567ffffffffffffffff811115611b3557600080fd5b611b418782880161180c565b9450506020611b5287828801611a5d565b935050604085013567ffffffffffffffff811115611b6f57600080fd5b611b7b87828801611789565b9250506060611b8c87828801611a5d565b91505092959194509250565b600060208284031215611baa57600080fd5b6000611bb884828501611880565b91505092915050565b600060208284031215611bd357600080fd5b6000611be184828501611895565b91505092915050565b600060208284031215611bfc57600080fd5b6000611c0a848285016118aa565b91505092915050565b60008060408385031215611c2657600080fd5b600083013567ffffffffffffffff811115611c4057600080fd5b611c4c858286016118bf565b925050602083013567ffffffffffffffff811115611c6957600080fd5b611c75858286016118bf565b9150509250929050565b600060208284031215611c9157600080fd5b600082013567ffffffffffffffff811115611cab57600080fd5b611cb784828501611913565b91505092915050565b600060208284031215611cd257600080fd5b600082015167ffffffffffffffff811115611cec57600080fd5b611cf884828501611967565b91505092915050565b60008060408385031215611d1457600080fd5b600083013567ffffffffffffffff811115611d2e57600080fd5b611d3a85828601611913565b925050602083013567ffffffffffffffff811115611d5757600080fd5b611d6385828601611913565b9150509250929050565b600080600060608486031215611d8257600080fd5b600084013567ffffffffffffffff811115611d9c57600080fd5b611da886828701611913565b9350506020611db986828701611a33565b9250506040611dca8682870161175f565b9150509250925092565b600060208284031215611de657600080fd5b600082013567ffffffffffffffff811115611e0057600080fd5b611e0c848285016119bb565b91505092915050565b600060208284031215611e2757600080fd5b6000611e3584828501611a33565b91505092915050565b600060208284031215611e5057600080fd5b6000611e5e84828501611a48565b91505092915050565b6000611e738383612233565b905092915050565b611e8481612860565b82525050565b611e93816127fe565b82525050565b611ea2816127fe565b82525050565b611eb9611eb4826127fe565b6128d8565b82525050565b6000611eca82612770565b611ed4818561279e565b935083602082028501611ee68561274b565b8060005b85811015611f225784840389528151611f038582611e67565b9450611f0e83612791565b925060208a01995050600181019050611eea565b50829750879550505050505092915050565b6000611f3f82612770565b611f4981856127af565b935083602082028501611f5b8561274b565b8060005b85811015611f975784840389528151611f788582611e67565b9450611f8383612791565b925060208a01995050600181019050611f5f565b50829750879550505050505092915050565b611fb281612810565b82525050565b611fc181612810565b82525050565b611fd08161281c565b82525050565b6000611fe18261277b565b611feb81856127c0565b9350611ffb8185602086016128a5565b61200481612906565b840191505092915050565b60008154600181166000811461202c576001811461205257612096565b607f600283041661203d81876127c0565b955060ff198316865260208601935050612096565b6002820461206081876127c0565b955061206b8561275b565b60005b8281101561208d5781548189015260018201915060208101905061206e565b80880195505050505b505092915050565b60006120a982612786565b6120b381856127d1565b93506120c38185602086016128a5565b6120cc81612906565b840191505092915050565b60006120e282612786565b6120ec81856127e2565b93506120fc8185602086016128a5565b61210581612906565b840191505092915050565b600061211b82612786565b61212581856127f3565b93506121358185602086016128a5565b80840191505092915050565b600061214e6028836127e2565b91507f5472616e73616374696f6e732068617665206265656e20616c7265616479207060008301527f726f6365737365640000000000000000000000000000000000000000000000006020830152604082019050919050565b60006121b46055836127e2565b91507f5468697320636f6e7472616374206d757374206861766520616e20616c6c6f7760008301527f616e6365206f662067726561746572207468616e206f7220657175616c20746f60208301527f20746865206e756d626572206f6620746f6b656e7300000000000000000000006040830152606082019050919050565b600060608301600083015161224b6000860182611e8a565b5060208301518482036020860152612263828261209e565b91505060408301516122786040860182612323565b508091505092915050565b600060608301600083015161229b6000860182611e8a565b50602083015184820360208601526122b3828261209e565b91505060408301516122c86040860182612323565b508091505092915050565b60006060830160008301516122eb6000860182612323565b50602083015184820360208601526123038282611ebf565b91505060408301516123186040860182611fa9565b508091505092915050565b61232c81612846565b82525050565b61233b81612846565b82525050565b61235261234d82612846565b6128fc565b82525050565b60006123648286611ea8565b6014820191506123748285612110565b91506123808284612341565b602082019150819050949350505050565b60006020820190506123a66000830184611e99565b92915050565b60006040820190506123c16000830185611e7b565b6123ce6020830184611e99565b9392505050565b60006060820190506123ea6000830186611e7b565b6123f76020830185611e99565b6124046040830184612332565b949350505050565b60006040820190506124216000830185611e99565b61242e6020830184612332565b9392505050565b6000602082019050818103600083015261244f8184611f34565b905092915050565b600060208201905061246c6000830184611fc7565b92915050565b6000602082019050818103600083015261248c8184611fd6565b905092915050565b600060608201905081810360008301526124ae8186611fd6565b905081810360208301526124c28185611fd6565b90506124d16040830184611fb8565b949350505050565b600060408201905081810360008301526124f38185611fd6565b90508181036020830152612507818461200f565b90509392505050565b6000602082019050818103600083015261252a81846120d7565b905092915050565b6000604082019050818103600083015261254c81856120d7565b9050818103602083015261256081846120d7565b90509392505050565b6000604082019050818103600083015261258381856120d7565b90506125926020830184612332565b9392505050565b600060608201905081810360008301526125b381866120d7565b90506125c26020830185612332565b6125cf6040830184611e99565b949350505050565b600060208201905081810360008301526125f081612141565b9050919050565b60006020820190508181036000830152612610816121a7565b9050919050565b600060208201905081810360008301526126318184612283565b905092915050565b6000602082019050818103600083015261265381846122d3565b905092915050565b60006020820190506126706000830184612332565b92915050565b6000604051905081810181811067ffffffffffffffff8211171561269957600080fd5b8060405250919050565b600067ffffffffffffffff8211156126ba57600080fd5b602082029050602081019050919050565b600067ffffffffffffffff8211156126e257600080fd5b602082029050602081019050919050565b600067ffffffffffffffff82111561270a57600080fd5b601f19601f8301169050602081019050919050565b600067ffffffffffffffff82111561273657600080fd5b601f19601f8301169050602081019050919050565b6000819050602082019050919050565b60008190508160005260206000209050919050565b600081519050919050565b600081519050919050565b600081519050919050565b6000602082019050919050565b600082825260208201905092915050565b600082825260208201905092915050565b600082825260208201905092915050565b600082825260208201905092915050565b600082825260208201905092915050565b600081905092915050565b600061280982612826565b9050919050565b60008115159050919050565b6000819050919050565b600073ffffffffffffffffffffffffffffffffffffffff82169050919050565b6000819050919050565b600063ffffffff82169050919050565b600061286b82612872565b9050919050565b600061287d82612884565b9050919050565b600061288f82612826565b9050919050565b82818337600083830152505050565b60005b838110156128c35780820151818401526020810190506128a8565b838111156128d2576000848401525b50505050565b60006128e3826128ea565b9050919050565b60006128f582612917565b9050919050565b6000819050919050565b6000601f19601f8301169050919050565b60008160601b9050919050565b61292d816127fe565b811461293857600080fd5b50565b61294481612810565b811461294f57600080fd5b50565b61295b8161281c565b811461296657600080fd5b50565b61297281612846565b811461297d57600080fd5b50565b61298981612850565b811461299457600080fd5b5056fea2646970667358221220d78bfd05b74274768ee86696fd68a644e5e8d884a822ac87e74dd0bb6fc6563964736f6c634300060c0033",
  "immutableReferences": {},
  "source": "// SPDX-License-Identifier: MIT\n// Bridge between ethereum and verus\n\npragma solidity >=0.6.0 <0.7.0;\npragma experimental ABIEncoderV2;\n\nimport \"../../node_modules/openzeppelin-solidity/contracts/ownership/Ownable.sol\";\nimport \"./TokenManager.sol\";\nimport \"../MMR/MMRProof.sol\";\nimport \"../VerusNotarizer/VerusNotarizer.sol\";\nimport { Memory } from \"../Standard/Memory.sol\";\nimport \"./Token.sol\";\n\ncontract VerusBridge {\n \n    //list of erc20 tokens that can be accessed,\n    //the contract must be able to mint and burn coins on the contract\n    //list of addresses allowed to execute transactions\n    address[] private permittedAddresses;\n    //defines the tokenManager which creates the erc20\n    TokenManager tokenManager;\n    VerusNotarizer verusNotarizer;\n    MMRProof mmrProof;\n    bytes verusKey = \"VerusDefaultHash\";\n\n    //pending transactions array\n    struct BridgeTransaction {\n        address targetAddress;\n        string tokenName;\n        uint256 tokenAmount;\n    }\n\n    struct CompletedTransaction{\n        uint256 blockNumber;\n        BridgeTransaction[] includedTransactions;\n        bool completed;\n    }\n\n    BridgeTransaction[] private pendingOutboundTransactions;\n    BridgeTransaction[][] private readyOutboundTransactions;\n\n    mapping (bytes32 => CompletedTransaction) private completedInboundTransactions;\n    event ReceivedFromVerus(BridgeTransaction transaction);\n\n    constructor(address notarizerAddress,address mmrAddress,address tokenManagerAddress) public {\n        mmrProof =  MMRProof(mmrAddress);\n        verusNotarizer = VerusNotarizer(notarizerAddress);\n        tokenManager = TokenManager(tokenManagerAddress);\n        \n    }\n\n    function receiveFromVerusChain(BridgeTransaction[] memory _newTransactions, uint32 _hashIndex, bytes32[] memory _transactionsProof, uint32 _blockHeight) public returns(bytes32){\n        \n        //check the transaction has not already been processed\n        bytes32 newTransactionHash = createTransactionsHash(_newTransactions);\n        require(!completedInboundTransactions[newTransactionHash].completed ,\"Transactions have been already processed\");\n        //check the transaction is in the mmr contains the relevant hash\n        //require(confirmTransactionInMMR(_newTransactions,_hashIndex,_transactionsProof,_blockHeight) == true,\"Transactions are not in the MMR root hash\");\n        \n        //loop through the transactions and execute\n        for(uint i = 0; i < _newTransactions.length; i++){\n            tokenManager.sendERC20Tokens(_newTransactions[i].tokenName,_newTransactions[i].tokenAmount,_newTransactions[i].targetAddress);\n            //create an array in storage of transactions as memory cant be added to a storage array\n            completedInboundTransactions[newTransactionHash].blockNumber = block.number;\n            completedInboundTransactions[newTransactionHash].includedTransactions.push(_newTransactions[i]);\n            emit ReceivedFromVerus(_newTransactions[i]);\n        }\n\n        return newTransactionHash;\n        \n    }\n\n    function sendToVerus(string memory _tokenName, uint256 _tokenAmount, address _targetAddress) public {\n        \n        //check if the token is registered, i should really use the contract address and do a lookup on it\n        \n        //if the tokens have been approved for VerusBridge, approve the tokenManager contract to transfer them over\n        address tokenAddress = tokenManager.getTokenAddress(_tokenName);\n        Token token = Token(tokenAddress);\n        uint256 allowedTokens = token.allowance(msg.sender,address(this));\n        require( allowedTokens >= _tokenAmount,\"This contract must have an allowance of greater than or equal to the number of tokens\");\n        //transfer the tokens to this contract\n        token.transferFrom(msg.sender,address(this),_tokenAmount); \n        token.approve(address(tokenManager),_tokenAmount);  \n        //give an approval for the tokenmanagerinstance to spend the tokens\n        tokenManager.receiveERC20Tokens(_tokenName,_tokenAmount);\n        pendingOutboundTransactions.push(BridgeTransaction(_targetAddress,_tokenName,_tokenAmount));\n        if(pendingOutboundTransactions.length >= 10){\n            //move the array to readyOutboundTransactions and \n            readyOutboundTransactions.push(pendingOutboundTransactions);\n            delete pendingOutboundTransactions;\n        }\n    }\n\n    /**\n    returns a list of transactions to be processed on the verus chain\n    */\n\n    \n    \n    function outboundTransactionsIndex() public view returns(uint){\n        return readyOutboundTransactions.length;\n    }\n\n    function getTransactionsToProcess(uint _tIndex) public view returns(BridgeTransaction[] memory){\n        return readyOutboundTransactions[_tIndex];\n    }\n\n    function getPendingOutboundTransactions() public view returns(BridgeTransaction[] memory){\n        return pendingOutboundTransactions;\n    }\n\n    function getCompletedInboundTransaction(bytes32 transactionHash) public view returns(CompletedTransaction memory){\n        return completedInboundTransactions[transactionHash];\n    }\n\n    /**\n    deploy a new token\n     */\n    function createToken(string memory verusAddress,string memory ticker) public returns(address){\n        return tokenManager.deployNewToken(verusAddress,ticker);\n    }\n\n\n    function confirmTransactionInMMR(BridgeTransaction[] memory _newTransactions, \n        uint32 _hashIndex,\n        bytes32[] memory _transactionsProof,\n        uint32 _blockHeight) private returns(bool){\n        \n        //loop through the transactions and create a hash of the list\n        bytes32 hashedTransactions = createTransactionsHash(_newTransactions);\n        //get the mmrRoot relating to the blockheight from the notarized data\n        VerusNotarizer.NotarizedData memory verusNotarizedData = verusNotarizer.getNotarizedData(_blockHeight);\n        bytes32 mmrRootHash = bytes32(verusNotarizedData.mmrRoot);\n        //check the proof and return the result\n        if (mmrRootHash == mmrProof.predictedRootHash(hashedTransactions,_hashIndex,_transactionsProof)) return true;\n        else return false;\n    }\n\n    function createTransactionsHash(BridgeTransaction[] memory _newTransactions) public returns(bytes32){\n        bytes memory serializedTransactions = serializeTransactions(_newTransactions);\n        bytes32 hashedTransactions = mmrProof.createHash(serializedTransactions,verusKey);\n        return hashedTransactions;\n    }\n    \n    function serializeTransactions(BridgeTransaction[] memory _newTransactions) public pure returns(bytes memory){\n        bytes memory serializedTransactions;\n        bytes memory serializedTransaction;\n        for(uint i = 0; i < _newTransactions.length; i++){\n            serializedTransaction = serializeTransaction(_newTransactions[i]);\n            if(serializedTransactions.length > 0) serializedTransactions = concat(serializedTransaction,serializedTransaction);\n            else serializedTransactions = serializedTransaction;\n        }\n        return serializedTransactions;\n    }\n\n    function mmrHash(bytes memory toHash,bytes memory hashKey) public returns(bytes32){\n        bytes32 generatedHash = mmrProof.createHash(toHash,hashKey,false);\n        return generatedHash;\n    }\n\n    \n\n\n    function serializeTransaction(BridgeTransaction memory _sendTransaction) public pure returns(bytes memory){\n        bytes memory serializedTransaction = abi.encodePacked(_sendTransaction.targetAddress,_sendTransaction.tokenName,_sendTransaction.tokenAmount);\n        return serializedTransaction;\n    }\n\n    function getTokenAddress(string memory tokenName) public view returns(address){\n        return tokenManager.getTokenAddress(tokenName);\n    }\n\n    function getTokenName(address tokenAddress) public view returns(string memory){\n        return tokenManager.getTokenName(tokenAddress);\n    }\n    \n\n\n    /** bytes concat helper function */\n    function concat(bytes memory self, bytes memory other) public pure returns (bytes memory) {\n        bytes memory ret = new bytes(self.length + other.length);\n        \n        (uint256 src, uint256 srcLen) = Memory.fromBytes(self);\n        (uint256 src2, uint256 src2Len) = Memory.fromBytes(other);\n        (uint256 dest,) = Memory.fromBytes(ret);\n        uint256 dest2 = dest + src2Len;\n        Memory.copy(src, dest, srcLen);\n        Memory.copy(src2, dest2, src2Len);\n     return ret;\n    }\n\n}\n",
  "sourcePath": "/Volumes/UsersSSD/james/Development/komodo-notarisation-solidity/contracts/VerusBridge/VerusBridge.sol",
  "compiler": {
    "name": "solc",
    "version": "0.6.12+commit.27d51765.Emscripten.clang"
  },
  "schemaVersion": "3.2.0",
  "updatedAt": "2020-10-08T11:49:20.498Z",
  "devdoc": {
    "kind": "dev",
    "methods": {},
    "version": 1
  },
  "userdoc": {
    "kind": "user",
    "methods": {
      "concat(bytes,bytes)": {
        "notice": "bytes concat helper function "
      },
      "createToken(string,string)": {
        "notice": "deploy a new token"
      },
      "outboundTransactionsIndex()": {
        "notice": "returns a list of transactions to be processed on the verus chain"
      }
    },
    "version": 1
  }
}