{
  "contractName": "VerusBridge",
  "abi": [
    {
      "inputs": [
        {
          "internalType": "address",
          "name": "notarizerAddress",
          "type": "address"
        },
        {
          "internalType": "address",
          "name": "mmrAddress",
          "type": "address"
        },
        {
          "internalType": "address",
          "name": "tokenManagerAddress",
          "type": "address"
        }
      ],
      "stateMutability": "nonpayable",
      "type": "constructor"
    },
    {
      "anonymous": false,
      "inputs": [
        {
          "components": [
            {
              "internalType": "address",
              "name": "targetAddress",
              "type": "address"
            },
            {
              "internalType": "string",
              "name": "tokenName",
              "type": "string"
            },
            {
              "internalType": "uint256",
              "name": "tokenAmount",
              "type": "uint256"
            }
          ],
          "indexed": false,
          "internalType": "struct VerusBridge.BridgeTransaction",
          "name": "transaction",
          "type": "tuple"
        }
      ],
      "name": "ReceivedFromVerus",
      "type": "event"
    },
    {
      "inputs": [
        {
          "components": [
            {
              "internalType": "address",
              "name": "targetAddress",
              "type": "address"
            },
            {
              "internalType": "string",
              "name": "tokenName",
              "type": "string"
            },
            {
              "internalType": "uint256",
              "name": "tokenAmount",
              "type": "uint256"
            }
          ],
          "internalType": "struct VerusBridge.BridgeTransaction[]",
          "name": "_newTransactions",
          "type": "tuple[]"
        },
        {
          "internalType": "uint32",
          "name": "_hashIndex",
          "type": "uint32"
        },
        {
          "internalType": "bytes32[]",
          "name": "_transactionsProof",
          "type": "bytes32[]"
        },
        {
          "internalType": "uint32",
          "name": "_blockHeight",
          "type": "uint32"
        }
      ],
      "name": "receiveFromVerusChain",
      "outputs": [
        {
          "internalType": "bytes32",
          "name": "",
          "type": "bytes32"
        }
      ],
      "stateMutability": "nonpayable",
      "type": "function"
    },
    {
      "inputs": [
        {
          "internalType": "string",
          "name": "_tokenName",
          "type": "string"
        },
        {
          "internalType": "uint256",
          "name": "_tokenAmount",
          "type": "uint256"
        },
        {
          "internalType": "address",
          "name": "_targetAddress",
          "type": "address"
        }
      ],
      "name": "sendToVerus",
      "outputs": [],
      "stateMutability": "nonpayable",
      "type": "function"
    },
    {
      "inputs": [],
      "name": "outboundTransactionsIndex",
      "outputs": [
        {
          "internalType": "uint256",
          "name": "",
          "type": "uint256"
        }
      ],
      "stateMutability": "view",
      "type": "function"
    },
    {
      "inputs": [
        {
          "internalType": "uint256",
          "name": "_tIndex",
          "type": "uint256"
        }
      ],
      "name": "getTransactionsToProcess",
      "outputs": [
        {
          "components": [
            {
              "internalType": "address",
              "name": "targetAddress",
              "type": "address"
            },
            {
              "internalType": "string",
              "name": "tokenName",
              "type": "string"
            },
            {
              "internalType": "uint256",
              "name": "tokenAmount",
              "type": "uint256"
            }
          ],
          "internalType": "struct VerusBridge.BridgeTransaction[]",
          "name": "",
          "type": "tuple[]"
        }
      ],
      "stateMutability": "view",
      "type": "function"
    },
    {
      "inputs": [],
      "name": "getPendingOutboundTransactions",
      "outputs": [
        {
          "components": [
            {
              "internalType": "address",
              "name": "targetAddress",
              "type": "address"
            },
            {
              "internalType": "string",
              "name": "tokenName",
              "type": "string"
            },
            {
              "internalType": "uint256",
              "name": "tokenAmount",
              "type": "uint256"
            }
          ],
          "internalType": "struct VerusBridge.BridgeTransaction[]",
          "name": "",
          "type": "tuple[]"
        }
      ],
      "stateMutability": "view",
      "type": "function"
    },
    {
      "inputs": [
        {
          "internalType": "bytes32",
          "name": "transactionHash",
          "type": "bytes32"
        }
      ],
      "name": "getCompletedInboundTransaction",
      "outputs": [
        {
          "components": [
            {
              "internalType": "uint256",
              "name": "blockNumber",
              "type": "uint256"
            },
            {
              "components": [
                {
                  "internalType": "address",
                  "name": "targetAddress",
                  "type": "address"
                },
                {
                  "internalType": "string",
                  "name": "tokenName",
                  "type": "string"
                },
                {
                  "internalType": "uint256",
                  "name": "tokenAmount",
                  "type": "uint256"
                }
              ],
              "internalType": "struct VerusBridge.BridgeTransaction[]",
              "name": "includedTransactions",
              "type": "tuple[]"
            },
            {
              "internalType": "bool",
              "name": "completed",
              "type": "bool"
            }
          ],
          "internalType": "struct VerusBridge.CompletedTransaction",
          "name": "",
          "type": "tuple"
        }
      ],
      "stateMutability": "view",
      "type": "function"
    },
    {
      "inputs": [
        {
          "internalType": "string",
          "name": "verusAddress",
          "type": "string"
        },
        {
          "internalType": "string",
          "name": "ticker",
          "type": "string"
        }
      ],
      "name": "createToken",
      "outputs": [
        {
          "internalType": "address",
          "name": "",
          "type": "address"
        }
      ],
      "stateMutability": "nonpayable",
      "type": "function"
    },
    {
      "inputs": [
        {
          "components": [
            {
              "internalType": "address",
              "name": "targetAddress",
              "type": "address"
            },
            {
              "internalType": "string",
              "name": "tokenName",
              "type": "string"
            },
            {
              "internalType": "uint256",
              "name": "tokenAmount",
              "type": "uint256"
            }
          ],
          "internalType": "struct VerusBridge.BridgeTransaction[]",
          "name": "_newTransactions",
          "type": "tuple[]"
        }
      ],
      "name": "createTransactionsHash",
      "outputs": [
        {
          "internalType": "bytes32",
          "name": "",
          "type": "bytes32"
        }
      ],
      "stateMutability": "nonpayable",
      "type": "function"
    },
    {
      "inputs": [
        {
          "components": [
            {
              "internalType": "address",
              "name": "targetAddress",
              "type": "address"
            },
            {
              "internalType": "string",
              "name": "tokenName",
              "type": "string"
            },
            {
              "internalType": "uint256",
              "name": "tokenAmount",
              "type": "uint256"
            }
          ],
          "internalType": "struct VerusBridge.BridgeTransaction[]",
          "name": "_newTransactions",
          "type": "tuple[]"
        }
      ],
      "name": "serializeTransactions",
      "outputs": [
        {
          "internalType": "bytes",
          "name": "",
          "type": "bytes"
        }
      ],
      "stateMutability": "pure",
      "type": "function"
    },
    {
      "inputs": [
        {
          "internalType": "bytes",
          "name": "toHash",
          "type": "bytes"
        },
        {
          "internalType": "bytes",
          "name": "hashKey",
          "type": "bytes"
        }
      ],
      "name": "mmrHash",
      "outputs": [
        {
          "internalType": "bytes32",
          "name": "",
          "type": "bytes32"
        }
      ],
      "stateMutability": "nonpayable",
      "type": "function"
    },
    {
      "inputs": [
        {
          "components": [
            {
              "internalType": "address",
              "name": "targetAddress",
              "type": "address"
            },
            {
              "internalType": "string",
              "name": "tokenName",
              "type": "string"
            },
            {
              "internalType": "uint256",
              "name": "tokenAmount",
              "type": "uint256"
            }
          ],
          "internalType": "struct VerusBridge.BridgeTransaction",
          "name": "_sendTransaction",
          "type": "tuple"
        }
      ],
      "name": "serializeTransaction",
      "outputs": [
        {
          "internalType": "bytes",
          "name": "",
          "type": "bytes"
        }
      ],
      "stateMutability": "pure",
      "type": "function"
    },
    {
      "inputs": [
        {
          "internalType": "string",
          "name": "tokenName",
          "type": "string"
        }
      ],
      "name": "getTokenAddress",
      "outputs": [
        {
          "internalType": "address",
          "name": "",
          "type": "address"
        }
      ],
      "stateMutability": "view",
      "type": "function"
    },
    {
      "inputs": [
        {
          "internalType": "address",
          "name": "tokenAddress",
          "type": "address"
        }
      ],
      "name": "getTokenName",
      "outputs": [
        {
          "internalType": "string",
          "name": "",
          "type": "string"
        }
      ],
      "stateMutability": "view",
      "type": "function"
    },
    {
      "inputs": [
        {
          "internalType": "bytes",
          "name": "self",
          "type": "bytes"
        },
        {
          "internalType": "bytes",
          "name": "other",
          "type": "bytes"
        }
      ],
      "name": "concat",
      "outputs": [
        {
          "internalType": "bytes",
          "name": "",
          "type": "bytes"
        }
      ],
      "stateMutability": "pure",
      "type": "function"
    }
  ],
  "bytecode": "0x60806040526040518060400160405280601081526020017f566572757344656661756c744861736800000000000000000000000000000000815250600490805190602001906200005192919062000151565b503480156200005f57600080fd5b5060405162002c6f38038062002c6f83398181016040528101906200008591906200020e565b81600360006101000a81548173ffffffffffffffffffffffffffffffffffffffff021916908373ffffffffffffffffffffffffffffffffffffffff16021790555082600260006101000a81548173ffffffffffffffffffffffffffffffffffffffff021916908373ffffffffffffffffffffffffffffffffffffffff16021790555080600160006101000a81548173ffffffffffffffffffffffffffffffffffffffff021916908373ffffffffffffffffffffffffffffffffffffffff160217905550505050620002b2565b828054600181600116156101000203166002900490600052602060002090601f016020900481019282601f106200019457805160ff1916838001178555620001c5565b82800160010185558215620001c5579182015b82811115620001c4578251825591602001919060010190620001a7565b5b509050620001d49190620001d8565b5090565b5b80821115620001f3576000816000905550600101620001d9565b5090565b600081519050620002088162000298565b92915050565b6000806000606084860312156200022457600080fd5b60006200023486828701620001f7565b93505060206200024786828701620001f7565b92505060406200025a86828701620001f7565b9150509250925092565b6000620002718262000278565b9050919050565b600073ffffffffffffffffffffffffffffffffffffffff82169050919050565b620002a38162000264565b8114620002af57600080fd5b50565b6129ad80620002c26000396000f3fe608060405234801561001057600080fd5b50600436106100ea5760003560e01c80638744e0d51161008c578063b5c8cf1111610066578063b5c8cf1114610297578063c4091236146102c7578063d17a9f42146102f7578063ef22f83114610327576100ea565b80638744e0d51461020757806393478f6414610237578063b24b59a114610267576100ea565b80635f3376f3116100c85780635f3376f31461015b5780635fc763341461018b5780636b511d5a146101a75780636f0fccab146101d7576100ea565b80632f2f2d56146100ef57806348cd44281461011f5780634a786eda1461013d575b600080fd5b61010960048036038101906101049190611cfe565b610357565b604051610116919061237f565b60405180910390f35b610127610410565b6040516101349190612423565b60405180910390f35b610145610571565b604051610152919061263b565b60405180910390f35b61017560048036038101906101709190611c10565b61057e565b6040516101829190612460565b60405180910390f35b6101a560048036038101906101a09190611d6a565b61062d565b005b6101c160048036038101906101bc9190611ac1565b610aaa565b6040516101ce9190612445565b60405180910390f35b6101f160048036038101906101ec9190611a6f565b610b77565b6040516101fe91906124f0565b60405180910390f35b610221600480360381019061021c9190611ac1565b610c30565b60405161022e9190612460565b60405180910390f35b610251600480360381019061024c9190611c10565b610c96565b60405161025e9190612445565b60405180910390f35b610281600480360381019061027c9190611b02565b610d54565b60405161028e9190612445565b60405180910390f35b6102b160048036038101906102ac9190611e12565b610fea565b6040516102be9190612423565b60405180910390f35b6102e160048036038101906102dc9190611c7c565b611162565b6040516102ee919061237f565b60405180910390f35b610311600480360381019061030c9190611dd1565b611216565b60405161031e9190612460565b60405180910390f35b610341600480360381019061033c9190611bbe565b611254565b60405161034e9190612619565b60405180910390f35b6000600160009054906101000a900473ffffffffffffffffffffffffffffffffffffffff1673ffffffffffffffffffffffffffffffffffffffff16633c37cd0884846040518363ffffffff1660e01b81526004016103b6929190612512565b602060405180830381600087803b1580156103d057600080fd5b505af11580156103e4573d6000803e3d6000fd5b505050506040513d601f19601f820116820180604052508101906104089190611a98565b905092915050565b60606005805480602002602001604051908101604052809291908181526020016000905b8282101561056857838290600052602060002090600302016040518060600160405290816000820160009054906101000a900473ffffffffffffffffffffffffffffffffffffffff1673ffffffffffffffffffffffffffffffffffffffff1673ffffffffffffffffffffffffffffffffffffffff168152602001600182018054600181600116156101000203166002900480601f0160208091040260200160405190810160405280929190818152602001828054600181600116156101000203166002900480156105465780601f1061051b57610100808354040283529160200191610546565b820191906000526020600020905b81548152906001019060200180831161052957829003601f168201915b5050505050815260200160028201548152505081526020019060010190610434565b50505050905090565b6000600680549050905090565b606080825184510167ffffffffffffffff8111801561059c57600080fd5b506040519080825280601f01601f1916602001820160405280156105cf5781602001600182028036833780820191505090505b5090506000806105de86611407565b915091506000806105ee87611407565b9150915060006105fd86611407565b50905060008282019050610612868387611419565b61061d848285611419565b8697505050505050505092915050565b6000600160009054906101000a900473ffffffffffffffffffffffffffffffffffffffff1673ffffffffffffffffffffffffffffffffffffffff1663c4091236856040518263ffffffff1660e01b815260040161068a91906124f0565b60206040518083038186803b1580156106a257600080fd5b505afa1580156106b6573d6000803e3d6000fd5b505050506040513d601f19601f820116820180604052508101906106da9190611a98565b9050600081905060008173ffffffffffffffffffffffffffffffffffffffff1663dd62ed3e33306040518363ffffffff1660e01b815260040161071e92919061239a565b60206040518083038186803b15801561073657600080fd5b505afa15801561074a573d6000803e3d6000fd5b505050506040513d601f19601f8201168201806040525081019061076e9190611e3b565b9050848110156107b3576040517f08c379a00000000000000000000000000000000000000000000000000000000081526004016107aa906125d7565b60405180910390fd5b8173ffffffffffffffffffffffffffffffffffffffff166323b872dd3330886040518463ffffffff1660e01b81526004016107f0939291906123c3565b602060405180830381600087803b15801561080a57600080fd5b505af115801561081e573d6000803e3d6000fd5b505050506040513d601f19601f820116820180604052508101906108429190611b95565b508173ffffffffffffffffffffffffffffffffffffffff1663095ea7b3600160009054906101000a900473ffffffffffffffffffffffffffffffffffffffff16876040518363ffffffff1660e01b81526004016108a09291906123fa565b602060405180830381600087803b1580156108ba57600080fd5b505af11580156108ce573d6000803e3d6000fd5b505050506040513d601f19601f820116820180604052508101906108f29190611b95565b50600160009054906101000a900473ffffffffffffffffffffffffffffffffffffffff1673ffffffffffffffffffffffffffffffffffffffff16634c18c8fa87876040518363ffffffff1660e01b8152600401610950929190612549565b600060405180830381600087803b15801561096a57600080fd5b505af115801561097e573d6000803e3d6000fd5b50505050600560405180606001604052808673ffffffffffffffffffffffffffffffffffffffff16815260200188815260200187815250908060018154018082558091505060019003906000526020600020906003020160009091909190915060008201518160000160006101000a81548173ffffffffffffffffffffffffffffffffffffffff021916908373ffffffffffffffffffffffffffffffffffffffff1602179055506020820151816001019080519060200190610a41929190611462565b50604082015181600201555050600a60058054905010610aa2576006600590806001815401808255809150506001900390600052602060002001600090919091909150908054610a929291906114e2565b5060056000610aa191906115d3565b5b505050505050565b60006060610ab783610c30565b90506000600360009054906101000a900473ffffffffffffffffffffffffffffffffffffffff1673ffffffffffffffffffffffffffffffffffffffff1663fe5320bf8360046040518363ffffffff1660e01b8152600401610b199291906124b9565b602060405180830381600087803b158015610b3357600080fd5b505af1158015610b47573d6000803e3d6000fd5b505050506040513d601f19601f82011682018060405250810190610b6b9190611be7565b90508092505050919050565b6060600160009054906101000a900473ffffffffffffffffffffffffffffffffffffffff1673ffffffffffffffffffffffffffffffffffffffff16636f0fccab836040518263ffffffff1660e01b8152600401610bd4919061237f565b60006040518083038186803b158015610bec57600080fd5b505afa158015610c00573d6000803e3d6000fd5b505050506040513d6000823e3d601f19601f82011682018060405250810190610c299190611cbd565b9050919050565b606080606060005b8451811015610c8b57610c5d858281518110610c5057fe5b6020026020010151611216565b9150600083511115610c7a57610c73828361057e565b9250610c7e565b8192505b8080600101915050610c38565b508192505050919050565b600080600360009054906101000a900473ffffffffffffffffffffffffffffffffffffffff1673ffffffffffffffffffffffffffffffffffffffff1663fe5320bf85856040518363ffffffff1660e01b8152600401610cf6929190612482565b602060405180830381600087803b158015610d1057600080fd5b505af1158015610d24573d6000803e3d6000fd5b505050506040513d601f19601f82011682018060405250810190610d489190611be7565b90508091505092915050565b600080610d6086610aaa565b90506007600082815260200190815260200160002060020160009054906101000a900460ff1615610dc6576040517f08c379a0000000000000000000000000000000000000000000000000000000008152600401610dbd906125b7565b60405180910390fd5b60005b8651811015610fdd57600160009054906101000a900473ffffffffffffffffffffffffffffffffffffffff1673ffffffffffffffffffffffffffffffffffffffff1663d80adeaf888381518110610e1c57fe5b602002602001015160200151898481518110610e3457fe5b6020026020010151604001518a8581518110610e4c57fe5b6020026020010151600001516040518463ffffffff1660e01b8152600401610e7693929190612579565b600060405180830381600087803b158015610e9057600080fd5b505af1158015610ea4573d6000803e3d6000fd5b5050505043600760008481526020019081526020016000206000018190555060076000838152602001908152602001600020600101878281518110610ee557fe5b6020026020010151908060018154018082558091505060019003906000526020600020906003020160009091909190915060008201518160000160006101000a81548173ffffffffffffffffffffffffffffffffffffffff021916908373ffffffffffffffffffffffffffffffffffffffff1602179055506020820151816001019080519060200190610f79929190611462565b506040820151816002015550507f6884924226770fe8529ff263cd2b0985cb1450fb3b2ea14ef7def691f6803613878281518110610fb357fe5b6020026020010151604051610fc891906125f7565b60405180910390a18080600101915050610dc9565b5080915050949350505050565b606060068281548110610ff957fe5b90600052602060002001805480602002602001604051908101604052809291908181526020016000905b8282101561115757838290600052602060002090600302016040518060600160405290816000820160009054906101000a900473ffffffffffffffffffffffffffffffffffffffff1673ffffffffffffffffffffffffffffffffffffffff1673ffffffffffffffffffffffffffffffffffffffff168152602001600182018054600181600116156101000203166002900480601f0160208091040260200160405190810160405280929190818152602001828054600181600116156101000203166002900480156111355780601f1061110a57610100808354040283529160200191611135565b820191906000526020600020905b81548152906001019060200180831161111857829003601f168201915b5050505050815260200160028201548152505081526020019060010190611023565b505050509050919050565b6000600160009054906101000a900473ffffffffffffffffffffffffffffffffffffffff1673ffffffffffffffffffffffffffffffffffffffff1663c4091236836040518263ffffffff1660e01b81526004016111bf91906124f0565b60206040518083038186803b1580156111d757600080fd5b505afa1580156111eb573d6000803e3d6000fd5b505050506040513d601f19601f8201168201806040525081019061120f9190611a98565b9050919050565b60608082600001518360200151846040015160405160200161123a93929190612346565b604051602081830303815290604052905080915050919050565b61125c6115f7565b600760008381526020019081526020016000206040518060600160405290816000820154815260200160018201805480602002602001604051908101604052809291908181526020016000905b828210156113dd57838290600052602060002090600302016040518060600160405290816000820160009054906101000a900473ffffffffffffffffffffffffffffffffffffffff1673ffffffffffffffffffffffffffffffffffffffff1673ffffffffffffffffffffffffffffffffffffffff168152602001600182018054600181600116156101000203166002900480601f0160208091040260200160405190810160405280929190818152602001828054600181600116156101000203166002900480156113bb5780601f10611390576101008083540402835291602001916113bb565b820191906000526020600020905b81548152906001019060200180831161139e57829003601f168201915b50505050508152602001600282015481525050815260200190600101906112a9565b5050505081526020016002820160009054906101000a900460ff1615151515815250509050919050565b60008082519050602083019150915091565b5b6020811061143d578251825260208201915060208301925060208103905061141a565b60006001826020036101000a0390508019845116818451168181178552505050505050565b828054600181600116156101000203166002900490600052602060002090601f016020900481019282601f106114a357805160ff19168380011785556114d1565b828001600101855582156114d1579182015b828111156114d05782518255916020019190600101906114b5565b5b5090506114de919061161a565b5090565b8280548282559060005260206000209060030281019282156115c25760005260206000209160030282015b828111156115c15782826000820160009054906101000a900473ffffffffffffffffffffffffffffffffffffffff168160000160006101000a81548173ffffffffffffffffffffffffffffffffffffffff021916908373ffffffffffffffffffffffffffffffffffffffff160217905550600182018160010190805460018160011615610100020316600290046115a5929190611637565b506002820154816002015550509160030191906003019061150d565b5b5090506115cf91906116be565b5090565b50805460008255600302906000526020600020908101906115f491906116be565b50565b604051806060016040528060008152602001606081526020016000151581525090565b5b8082111561163357600081600090555060010161161b565b5090565b828054600181600116156101000203166002900490600052602060002090601f016020900481019282601f1061167057805485556116ad565b828001600101855582156116ad57600052602060002091601f016020900482015b828111156116ac578254825591600101919060010190611691565b5b5090506116ba919061161a565b5090565b5b8082111561171057600080820160006101000a81549073ffffffffffffffffffffffffffffffffffffffff02191690556001820160006116ff9190611714565b6002820160009055506003016116bf565b5090565b50805460018160011615610100020316600290046000825580601f1061173a5750611759565b601f016020900490600052602060002090810190611758919061161a565b5b50565b60008135905061176b81612904565b92915050565b60008151905061178081612904565b92915050565b600082601f83011261179757600080fd5b81356117aa6117a582612683565b612656565b915081818352602084019350602081019050838560208402820111156117cf57600080fd5b60005b838110156117ff57816117e58882611892565b8452602084019350602083019250506001810190506117d2565b5050505092915050565b600082601f83011261181a57600080fd5b813561182d611828826126ab565b612656565b9150818183526020840193506020810190508360005b83811015611873578135860161185988826119b8565b845260208401935060208301925050600181019050611843565b5050505092915050565b60008151905061188c8161291b565b92915050565b6000813590506118a181612932565b92915050565b6000815190506118b681612932565b92915050565b600082601f8301126118cd57600080fd5b81356118e06118db826126d3565b612656565b915080825260208301602083018583830111156118fc57600080fd5b611907838284612876565b50505092915050565b600082601f83011261192157600080fd5b813561193461192f826126ff565b612656565b9150808252602083016020830185838301111561195057600080fd5b61195b838284612876565b50505092915050565b600082601f83011261197557600080fd5b8151611988611983826126ff565b612656565b915080825260208301602083018583830111156119a457600080fd5b6119af838284612885565b50505092915050565b6000606082840312156119ca57600080fd5b6119d46060612656565b905060006119e48482850161175c565b600083015250602082013567ffffffffffffffff811115611a0457600080fd5b611a1084828501611910565b6020830152506040611a2484828501611a30565b60408301525092915050565b600081359050611a3f81612949565b92915050565b600081519050611a5481612949565b92915050565b600081359050611a6981612960565b92915050565b600060208284031215611a8157600080fd5b6000611a8f8482850161175c565b91505092915050565b600060208284031215611aaa57600080fd5b6000611ab884828501611771565b91505092915050565b600060208284031215611ad357600080fd5b600082013567ffffffffffffffff811115611aed57600080fd5b611af984828501611809565b91505092915050565b60008060008060808587031215611b1857600080fd5b600085013567ffffffffffffffff811115611b3257600080fd5b611b3e87828801611809565b9450506020611b4f87828801611a5a565b935050604085013567ffffffffffffffff811115611b6c57600080fd5b611b7887828801611786565b9250506060611b8987828801611a5a565b91505092959194509250565b600060208284031215611ba757600080fd5b6000611bb58482850161187d565b91505092915050565b600060208284031215611bd057600080fd5b6000611bde84828501611892565b91505092915050565b600060208284031215611bf957600080fd5b6000611c07848285016118a7565b91505092915050565b60008060408385031215611c2357600080fd5b600083013567ffffffffffffffff811115611c3d57600080fd5b611c49858286016118bc565b925050602083013567ffffffffffffffff811115611c6657600080fd5b611c72858286016118bc565b9150509250929050565b600060208284031215611c8e57600080fd5b600082013567ffffffffffffffff811115611ca857600080fd5b611cb484828501611910565b91505092915050565b600060208284031215611ccf57600080fd5b600082015167ffffffffffffffff811115611ce957600080fd5b611cf584828501611964565b91505092915050565b60008060408385031215611d1157600080fd5b600083013567ffffffffffffffff811115611d2b57600080fd5b611d3785828601611910565b925050602083013567ffffffffffffffff811115611d5457600080fd5b611d6085828601611910565b9150509250929050565b600080600060608486031215611d7f57600080fd5b600084013567ffffffffffffffff811115611d9957600080fd5b611da586828701611910565b9350506020611db686828701611a30565b9250506040611dc78682870161175c565b9150509250925092565b600060208284031215611de357600080fd5b600082013567ffffffffffffffff811115611dfd57600080fd5b611e09848285016119b8565b91505092915050565b600060208284031215611e2457600080fd5b6000611e3284828501611a30565b91505092915050565b600060208284031215611e4d57600080fd5b6000611e5b84828501611a45565b91505092915050565b6000611e708383612221565b905092915050565b611e8181612840565b82525050565b611e90816127de565b82525050565b611e9f816127de565b82525050565b611eb6611eb1826127de565b6128b8565b82525050565b6000611ec782612750565b611ed1818561277e565b935083602082028501611ee38561272b565b8060005b85811015611f1f5784840389528151611f008582611e64565b9450611f0b83612771565b925060208a01995050600181019050611ee7565b50829750879550505050505092915050565b6000611f3c82612750565b611f46818561278f565b935083602082028501611f588561272b565b8060005b85811015611f945784840389528151611f758582611e64565b9450611f8083612771565b925060208a01995050600181019050611f5c565b50829750879550505050505092915050565b611faf816127f0565b82525050565b611fbe816127fc565b82525050565b6000611fcf8261275b565b611fd981856127a0565b9350611fe9818560208601612885565b611ff2816128e6565b840191505092915050565b60008154600181166000811461201a576001811461204057612084565b607f600283041661202b81876127a0565b955060ff198316865260208601935050612084565b6002820461204e81876127a0565b95506120598561273b565b60005b8281101561207b5781548189015260018201915060208101905061205c565b80880195505050505b505092915050565b600061209782612766565b6120a181856127b1565b93506120b1818560208601612885565b6120ba816128e6565b840191505092915050565b60006120d082612766565b6120da81856127c2565b93506120ea818560208601612885565b6120f3816128e6565b840191505092915050565b600061210982612766565b61211381856127d3565b9350612123818560208601612885565b80840191505092915050565b600061213c6028836127c2565b91507f5472616e73616374696f6e732068617665206265656e20616c7265616479207060008301527f726f6365737365640000000000000000000000000000000000000000000000006020830152604082019050919050565b60006121a26055836127c2565b91507f5468697320636f6e7472616374206d757374206861766520616e20616c6c6f7760008301527f616e6365206f662067726561746572207468616e206f7220657175616c20746f60208301527f20746865206e756d626572206f6620746f6b656e7300000000000000000000006040830152606082019050919050565b60006060830160008301516122396000860182611e87565b5060208301518482036020860152612251828261208c565b91505060408301516122666040860182612311565b508091505092915050565b60006060830160008301516122896000860182611e87565b50602083015184820360208601526122a1828261208c565b91505060408301516122b66040860182612311565b508091505092915050565b60006060830160008301516122d96000860182612311565b50602083015184820360208601526122f18282611ebc565b91505060408301516123066040860182611fa6565b508091505092915050565b61231a81612826565b82525050565b61232981612826565b82525050565b61234061233b82612826565b6128dc565b82525050565b60006123528286611ea5565b60148201915061236282856120fe565b915061236e828461232f565b602082019150819050949350505050565b60006020820190506123946000830184611e96565b92915050565b60006040820190506123af6000830185611e78565b6123bc6020830184611e96565b9392505050565b60006060820190506123d86000830186611e78565b6123e56020830185611e96565b6123f26040830184612320565b949350505050565b600060408201905061240f6000830185611e96565b61241c6020830184612320565b9392505050565b6000602082019050818103600083015261243d8184611f31565b905092915050565b600060208201905061245a6000830184611fb5565b92915050565b6000602082019050818103600083015261247a8184611fc4565b905092915050565b6000604082019050818103600083015261249c8185611fc4565b905081810360208301526124b08184611fc4565b90509392505050565b600060408201905081810360008301526124d38185611fc4565b905081810360208301526124e78184611ffd565b90509392505050565b6000602082019050818103600083015261250a81846120c5565b905092915050565b6000604082019050818103600083015261252c81856120c5565b9050818103602083015261254081846120c5565b90509392505050565b6000604082019050818103600083015261256381856120c5565b90506125726020830184612320565b9392505050565b6000606082019050818103600083015261259381866120c5565b90506125a26020830185612320565b6125af6040830184611e96565b949350505050565b600060208201905081810360008301526125d08161212f565b9050919050565b600060208201905081810360008301526125f081612195565b9050919050565b600060208201905081810360008301526126118184612271565b905092915050565b6000602082019050818103600083015261263381846122c1565b905092915050565b60006020820190506126506000830184612320565b92915050565b6000604051905081810181811067ffffffffffffffff8211171561267957600080fd5b8060405250919050565b600067ffffffffffffffff82111561269a57600080fd5b602082029050602081019050919050565b600067ffffffffffffffff8211156126c257600080fd5b602082029050602081019050919050565b600067ffffffffffffffff8211156126ea57600080fd5b601f19601f8301169050602081019050919050565b600067ffffffffffffffff82111561271657600080fd5b601f19601f8301169050602081019050919050565b6000819050602082019050919050565b60008190508160005260206000209050919050565b600081519050919050565b600081519050919050565b600081519050919050565b6000602082019050919050565b600082825260208201905092915050565b600082825260208201905092915050565b600082825260208201905092915050565b600082825260208201905092915050565b600082825260208201905092915050565b600081905092915050565b60006127e982612806565b9050919050565b60008115159050919050565b6000819050919050565b600073ffffffffffffffffffffffffffffffffffffffff82169050919050565b6000819050919050565b600063ffffffff82169050919050565b600061284b82612852565b9050919050565b600061285d82612864565b9050919050565b600061286f82612806565b9050919050565b82818337600083830152505050565b60005b838110156128a3578082015181840152602081019050612888565b838111156128b2576000848401525b50505050565b60006128c3826128ca565b9050919050565b60006128d5826128f7565b9050919050565b6000819050919050565b6000601f19601f8301169050919050565b60008160601b9050919050565b61290d816127de565b811461291857600080fd5b50565b612924816127f0565b811461292f57600080fd5b50565b61293b816127fc565b811461294657600080fd5b50565b61295281612826565b811461295d57600080fd5b50565b61296981612830565b811461297457600080fd5b5056fea2646970667358221220b946023ab2e318d6e70a1c89b7b9cbe2c685ff971307308d33c2f9e7e0250ab264736f6c634300060c0033",
  "immutableReferences": {},
  "source": "// SPDX-License-Identifier: MIT\n// Bridge between ethereum and verus\n\npragma solidity >=0.6.0 <0.7.0;\npragma experimental ABIEncoderV2;\n\nimport \"../../node_modules/openzeppelin-solidity/contracts/ownership/Ownable.sol\";\nimport \"./TokenManager.sol\";\nimport \"../MMR/MMRProof.sol\";\nimport \"../VerusNotarizer/VerusNotarizer.sol\";\nimport { Memory } from \"../Standard/Memory.sol\";\nimport \"./Token.sol\";\n\ncontract VerusBridge {\n \n    //list of erc20 tokens that can be accessed,\n    //the contract must be able to mint and burn coins on the contract\n    //list of addresses allowed to execute transactions\n    address[] private permittedAddresses;\n    //defines the tokenManager which creates the erc20\n    TokenManager tokenManager;\n    VerusNotarizer verusNotarizer;\n    MMRProof mmrProof;\n    bytes verusKey = \"VerusDefaultHash\";\n\n    //pending transactions array\n    struct BridgeTransaction {\n        address targetAddress;\n        string tokenName;\n        uint256 tokenAmount;\n    }\n\n    struct CompletedTransaction{\n        uint256 blockNumber;\n        BridgeTransaction[] includedTransactions;\n        bool completed;\n    }\n\n    BridgeTransaction[] private pendingOutboundTransactions;\n    BridgeTransaction[][] private readyOutboundTransactions;\n\n    mapping (bytes32 => CompletedTransaction) private completedInboundTransactions;\n    event ReceivedFromVerus(BridgeTransaction transaction);\n\n    constructor(address notarizerAddress,address mmrAddress,address tokenManagerAddress) public {\n        mmrProof =  MMRProof(mmrAddress);\n        verusNotarizer = VerusNotarizer(notarizerAddress);\n        tokenManager = TokenManager(tokenManagerAddress);\n        \n    }\n\n    function receiveFromVerusChain(BridgeTransaction[] memory _newTransactions, uint32 _hashIndex, bytes32[] memory _transactionsProof, uint32 _blockHeight) public returns(bytes32){\n        \n        //check the transaction has not already been processed\n        bytes32 newTransactionHash = createTransactionsHash(_newTransactions);\n        require(!completedInboundTransactions[newTransactionHash].completed ,\"Transactions have been already processed\");\n        //check the transaction is in the mmr contains the relevant hash\n        //require(confirmTransactionInMMR(_newTransactions,_hashIndex,_transactionsProof,_blockHeight) == true,\"Transactions are not in the MMR root hash\");\n        \n        //loop through the transactions and execute\n        for(uint i = 0; i < _newTransactions.length; i++){\n            tokenManager.sendERC20Tokens(_newTransactions[i].tokenName,_newTransactions[i].tokenAmount,_newTransactions[i].targetAddress);\n            //create an array in storage of transactions as memory cant be added to a storage array\n            completedInboundTransactions[newTransactionHash].blockNumber = block.number;\n            completedInboundTransactions[newTransactionHash].includedTransactions.push(_newTransactions[i]);\n            emit ReceivedFromVerus(_newTransactions[i]);\n        }\n\n        return newTransactionHash;\n        \n    }\n\n    function sendToVerus(string memory _tokenName, uint256 _tokenAmount, address _targetAddress) public {\n        \n        //check if the token is registered, i should really use the contract address and do a lookup on it\n        \n        //if the tokens have been approved for VerusBridge, approve the tokenManager contract to transfer them over\n        address tokenAddress = tokenManager.getTokenAddress(_tokenName);\n        Token token = Token(tokenAddress);\n        uint256 allowedTokens = token.allowance(msg.sender,address(this));\n        require( allowedTokens >= _tokenAmount,\"This contract must have an allowance of greater than or equal to the number of tokens\");\n        //transfer the tokens to this contract\n        token.transferFrom(msg.sender,address(this),_tokenAmount); \n        token.approve(address(tokenManager),_tokenAmount);  \n        //give an approval for the tokenmanagerinstance to spend the tokens\n        tokenManager.receiveERC20Tokens(_tokenName,_tokenAmount);\n        pendingOutboundTransactions.push(BridgeTransaction(_targetAddress,_tokenName,_tokenAmount));\n        if(pendingOutboundTransactions.length >= 10){\n            //move the array to readyOutboundTransactions and \n            readyOutboundTransactions.push(pendingOutboundTransactions);\n            delete pendingOutboundTransactions;\n        }\n    }\n\n    /**\n    returns a list of transactions to be processed on the verus chain\n    */\n\n    \n    \n    function outboundTransactionsIndex() public view returns(uint){\n        return readyOutboundTransactions.length;\n    }\n\n    function getTransactionsToProcess(uint _tIndex) public view returns(BridgeTransaction[] memory){\n        return readyOutboundTransactions[_tIndex];\n    }\n\n    function getPendingOutboundTransactions() public view returns(BridgeTransaction[] memory){\n        return pendingOutboundTransactions;\n    }\n\n    function getCompletedInboundTransaction(bytes32 transactionHash) public view returns(CompletedTransaction memory){\n        return completedInboundTransactions[transactionHash];\n    }\n\n    /**\n    deploy a new token\n     */\n    function createToken(string memory verusAddress,string memory ticker) public returns(address){\n        return tokenManager.deployNewToken(verusAddress,ticker);\n    }\n\n\n    function confirmTransactionInMMR(BridgeTransaction[] memory _newTransactions, \n        uint32 _hashIndex,\n        bytes32[] memory _transactionsProof,\n        uint32 _blockHeight) private returns(bool){\n        \n        //loop through the transactions and create a hash of the list\n        bytes32 hashedTransactions = createTransactionsHash(_newTransactions);\n        //get the mmrRoot relating to the blockheight from the notarized data\n        VerusNotarizer.NotarizedData memory verusNotarizedData = verusNotarizer.getNotarizedData(_blockHeight);\n        bytes32 mmrRootHash = bytes32(verusNotarizedData.mmrRoot);\n        //check the proof and return the result\n        if (mmrRootHash == mmrProof.predictedRootHash(hashedTransactions,_hashIndex,_transactionsProof)) return true;\n        else return false;\n    }\n\n    function createTransactionsHash(BridgeTransaction[] memory _newTransactions) public returns(bytes32){\n        bytes memory serializedTransactions = serializeTransactions(_newTransactions);\n        bytes32 hashedTransactions = mmrProof.createHash(serializedTransactions,verusKey);\n        return hashedTransactions;\n    }\n    \n    function serializeTransactions(BridgeTransaction[] memory _newTransactions) public pure returns(bytes memory){\n        bytes memory serializedTransactions;\n        bytes memory serializedTransaction;\n        for(uint i = 0; i < _newTransactions.length; i++){\n            serializedTransaction = serializeTransaction(_newTransactions[i]);\n            if(serializedTransactions.length > 0) serializedTransactions = concat(serializedTransaction,serializedTransaction);\n            else serializedTransactions = serializedTransaction;\n        }\n        return serializedTransactions;\n    }\n\n    function mmrHash(bytes memory toHash,bytes memory hashKey) public returns(bytes32){\n        bytes32 generatedHash = mmrProof.createHash(toHash,hashKey);\n        return generatedHash;\n    }\n\n    function serializeTransaction(BridgeTransaction memory _sendTransaction) public pure returns(bytes memory){\n        bytes memory serializedTransaction = abi.encodePacked(_sendTransaction.targetAddress,_sendTransaction.tokenName,_sendTransaction.tokenAmount);\n        return serializedTransaction;\n    }\n\n    function getTokenAddress(string memory tokenName) public view returns(address){\n        return tokenManager.getTokenAddress(tokenName);\n    }\n\n    function getTokenName(address tokenAddress) public view returns(string memory){\n        return tokenManager.getTokenName(tokenAddress);\n    }\n    \n\n\n    /** bytes concat helper function */\n    function concat(bytes memory self, bytes memory other) public pure returns (bytes memory) {\n        bytes memory ret = new bytes(self.length + other.length);\n        \n        (uint256 src, uint256 srcLen) = Memory.fromBytes(self);\n        (uint256 src2, uint256 src2Len) = Memory.fromBytes(other);\n        (uint256 dest,) = Memory.fromBytes(ret);\n        uint256 dest2 = dest + src2Len;\n        Memory.copy(src, dest, srcLen);\n        Memory.copy(src2, dest2, src2Len);\n     return ret;\n    }\n\n}\n",
  "sourcePath": "/Volumes/UsersSSD/james/Development/komodo-notarisation-solidity/contracts/VerusBridge/VerusBridge.sol",
  "compiler": {
    "name": "solc",
    "version": "0.6.12+commit.27d51765.Emscripten.clang"
  },
  "schemaVersion": "3.2.0",
  "updatedAt": "2020-10-02T13:48:17.443Z",
  "devdoc": {
    "kind": "dev",
    "methods": {},
    "version": 1
  },
  "userdoc": {
    "kind": "user",
    "methods": {
      "concat(bytes,bytes)": {
        "notice": "bytes concat helper function "
      },
      "createToken(string,string)": {
        "notice": "deploy a new token"
      },
      "outboundTransactionsIndex()": {
        "notice": "returns a list of transactions to be processed on the verus chain"
      }
    },
    "version": 1
  }
}